153345000153345               153345               170213GV     1400+00000+GV0000003150+0000003150+000000000+000000444+0000003594+           I90000000000+0000000000+Z
153345001153345071-000874     153345006003000010110RUB-BANDS PLN BAG-30   0000006000+00000525+00000+0001T063567730000                    1400 1IC1301ICV             Z
153346000153346               153346               170213GV     1400+00000+GV0000005262+0000005262+000000000+000000737+0000005999+           I90000000000+0000000000+Z
153346001153346566-000322     153346006003000423132STICKER R/DEC CHANDELIE0000001000+00005262+00000+0001T023536270000                    1400 1IC1301ICV             Z
M17021301                              IT DEPT     GVATT IT                                          NO TRADE ON SLAVE 4                             THANX GV
M17021391                              CASH        GVSLAVE 4                       Z-REPORT No.   572TOTAL (Sales - Refunds)              0.00       CASH TO BE BANKED                    0.00       DEBIT CARDS                          0.00       CREDIT CARDS                         0.00       Z-READING                            0.00       AIRTIME DEBIT CARD SALES             0.00       AIRTIME CARD SALES                   0.00       OVERS/UNDERS                         0.00       AIRTIME CASH SALES                   0.00       GIFT CARDS                           0.00       GIFT CARD CASH SALES                 0.00       T O T A L  CASH PAYOUTS              0.00                                                                                                                                                                                                                                                                                                                                                      Z
M17021392                              CASH        GVABSENT                                                                                                                                                                                          ANNUAL LEAVE                                                                                                                                                                                    DAY OFF                                                                                                                                                                                         COMMENTS                                                                                                                                                                                                                                                                                                                                                                                       Z
Y17021300                                          GV00000000000000+000000
ZGV17021319443 SLAVE 4      SALES DATA                     NEXT INVOICE NO.  153347 0572
L53714300343257-001-001       GV1702131020381ICMPHO THSISHONGA                                                                                                                                                                                                                                                                                                                                                                                                                                                                                                                                                                                                                                                                                                                                                                                                                                                                                                                                                                                      Z
L54069700337472-001-002       GV1702130953531ICMPHO THSISHONGA                                                                                                                                                                                                                                                                                                                                                                                                                                                                                                                                                                                                                                                                                                                                                                                                                                                                                                                                                                                      Z
L54069700337472-002-002       GV1702130938041ICMPHO THSISHONGA                                                                                                                                                                                                                                                                                                                                                                                                                                                                                                                                                                                                                                                                                                                                                                                                                                                                                                                                                                                      Z
L54884100337964-001-004       GV1702130945211ICMPHO THSISHONGA                                                                                                                                                                                                                                                                                                                                                                                                                                                                                                                                                                                                                                                                                                                                                                                                                                                                                                                                                                                      Z
L54884100337964-002-004       GV1702131021111ICMPHO THSISHONGA                                                                                                                                                                                                                                                                                                                                                                                                                                                                                                                                                                                                                                                                                                                                                                                                                                                                                                                                                                                      Z
L54884100337964-003-004       GV1702131016101ICMPHO THSISHONGA                                                                                                                                                                                                                                                                                                                                                                                                                                                                                                                                                                                                                                                                                                                                                                                                                                                                                                                                                                                      Z
L54884100337964-004-004       GV1702131013271ICMPHO THSISHONGA                                                                                                                                                                                                                                                                                                                                                                                                                                                                                                                                                                                                                                                                                                                                                                                                                                                                                                                                                                                      Z
L54888800355532-001-001       GV1702130938561ICMPHO THSISHONGA                                                                                                                                                                                                                                                                                                                                                                                                                                                                                                                                                                                                                                                                                                                                                                                                                                                                                                                                                                                      Z
L54893600356773-001-001       GV1702130944051ICMPHO THSISHONGA                                                                                                                                                                                                                                                                                                                                                                                                                                                                                                                                                                                                                                                                                                                                                                                                                                                                                                                                                                                      Z
L54912700355967-001-003       GV1702130954471ICMPHO THSISHONGA                                                                                                                                                                                                                                                                                                                                                                                                                                                                                                                                                                                                                                                                                                                                                                                                                                                                                                                                                                                      Z
L54912700355967-002-003       GV1702130951261ICMPHO THSISHONGA                                                                                                                                                                                                                                                                                                                                                                                                                                                                                                                                                                                                                                                                                                                                                                                                                                                                                                                                                                                      Z
L54912700355967-003-003       GV1702131024151ICMPHO THSISHONGA                                                                                                                                                                                                                                                                                                                                                                                                                                                                                                                                                                                                                                                                                                                                                                                                                                                                                                                                                                                      Z
L55075600340148-001-001       GV1702130956041ICMPHO THSISHONGA                                                                                                                                                                                                                                                                                                                                                                                                                                                                                                                                                                                                                                                                                                                                                                                                                                                                                                                                                                                      Z
L55084000336466-001-002       GV1702130950551ICMPHO THSISHONGA                                                                                                                                                                                                                                                                                                                                                                                                                                                                                                                                                                                                                                                                                                                                                                                                                                                                                                                                                                                      Z
L55084000336466-002-002       GV1702130941011ICMPHO THSISHONGA                                                                                                                                                                                                                                                                                                                                                                                                                                                                                                                                                                                                                                                                                                                                                                                                                                                                                                                                                                                      Z
L55350300339086-001-002       GV1702130941211ICMPHO THSISHONGA                                                                                                                                                                                                                                                                                                                                                                                                                                                                                                                                                                                                                                                                                                                                                                                                                                                                                                                                                                                      Z
L55350300339086-002-002       GV1702130941431ICMPHO THSISHONGA                                                                                                                                                                                                                                                                                                                                                                                                                                                                                                                                                                                                                                                                                                                                                                                                                                                                                                                                                                                      Z
L55366800353985-001-003       GV1702131025271ICMPHO THSISHONGA                                                                                                                                                                                                                                                                                                                                                                                                                                                                                                                                                                                                                                                                                                                                                                                                                                                                                                                                                                                      Z
L55366800353985-002-003       GV1702131025471ICMPHO THSISHONGA                                                                                                                                                                                                                                                                                                                                                                                                                                                                                                                                                                                                                                                                                                                                                                                                                                                                                                                                                                                      Z
L55366800353985-003-003       GV1702131029121ICMPHO THSISHONGA                                                                                                                                                                                                                                                                                                                                                                                                                                                                                                                                                                                                                                                                                                                                                                                                                                                                                                                                                                                      Z
L55372900340411-001-003       GV1702131018251ICMPHO THSISHONGA                                                                                                                                                                                                                                                                                                                                                                                                                                                                                                                                                                                                                                                                                                                                                                                                                                                                                                                                                                                      Z
L55372900340411-002-003       GV1702131031051ICMPHO THSISHONGA                                                                                                                                                                                                                                                                                                                                                                                                                                                                                                                                                                                                                                                                                                                                                                                                                                                                                                                                                                                      Z
L55372900340411-003-003       GV1702131029591ICMPHO THSISHONGA                                                                                                                                                                                                                                                                                                                                                                                                                                                                                                                                                                                                                                                                                                                                                                                                                                                                                                                                                                                      Z
L55452500338104-001-003       GV1702131027151ICMPHO THSISHONGA                                                                                                                                                                                                                                                                                                                                                                                                                                                                                                                                                                                                                                                                                                                                                                                                                                                                                                                                                                                      Z
L55452500338104-002-003       GV1702131018131ICMPHO THSISHONGA                                                                                                                                                                                                                                                                                                                                                                                                                                                                                                                                                                                                                                                                                                                                                                                                                                                                                                                                                                                      Z
L55452500338104-003-003       GV1702130940381ICMPHO THSISHONGA                                                                                                                                                                                                                                                                                                                                                                                                                                                                                                                                                                                                                                                                                                                                                                                                                                                                                                                                                                                      Z
L55467600359189-001-002       GV1702131000321ICMPHO THSISHONGA                                                                                                                                                                                                                                                                                                                                                                                                                                                                                                                                                                                                                                                                                                                                                                                                                                                                                                                                                                                      Z
L55467600359189-002-002       GV1702131013411ICMPHO THSISHONGA                                                                                                                                                                                                                                                                                                                                                                                                                                                                                                                                                                                                                                                                                                                                                                                                                                                                                                                                                                                      Z
L55478600337557-001-002       GV1702131024011ICMPHO THSISHONGA                                                                                                                                                                                                                                                                                                                                                                                                                                                                                                                                                                                                                                                                                                                                                                                                                                                                                                                                                                                      Z
L55478600337557-002-002       GV1702130955291ICMPHO THSISHONGA                                                                                                                                                                                                                                                                                                                                                                                                                                                                                                                                                                                                                                                                                                                                                                                                                                                                                                                                                                                      Z
L55496600343307-001-001       GV1702131001451ICMPHO THSISHONGA                                                                                                                                                                                                                                                                                                                                                                                                                                                                                                                                                                                                                                                                                                                                                                                                                                                                                                                                                                                      Z
L55500700338403-001-001       GV1702130943401ICMPHO THSISHONGA                                                                                                                                                                                                                                                                                                                                                                                                                                                                                                                                                                                                                                                                                                                                                                                                                                                                                                                                                                                      Z
L55504700338127-001-002       GV1702130944581ICMPHO THSISHONGA                                                                                                                                                                                                                                                                                                                                                                                                                                                                                                                                                                                                                                                                                                                                                                                                                                                                                                                                                                                      Z
L55504700338127-002-002       GV1702131013561ICMPHO THSISHONGA                                                                                                                                                                                                                                                                                                                                                                                                                                                                                                                                                                                                                                                                                                                                                                                                                                                                                                                                                                                      Z
L56187100343384-001-001       GV1702131019501ICMPHO THSISHONGA                                                                                                                                                                                                                                                                                                                                                                                                                                                                                                                                                                                                                                                                                                                                                                                                                                                                                                                                                                                      Z
L56315700341474-001-003       GV1702131000001ICMPHO THSISHONGA                                                                                                                                                                                                                                                                                                                                                                                                                                                                                                                                                                                                                                                                                                                                                                                                                                                                                                                                                                                      Z
L56315700341474-002-003       GV1702131026241ICMPHO THSISHONGA                                                                                                                                                                                                                                                                                                                                                                                                                                                                                                                                                                                                                                                                                                                                                                                                                                                                                                                                                                                      Z
L56315700341474-003-003       GV1702131029311ICMPHO THSISHONGA                                                                                                                                                                                                                                                                                                                                                                                                                                                                                                                                                                                                                                                                                                                                                                                                                                                                                                                                                                                      Z
L56388200336448-001-003       GV1702131015511ICMPHO THSISHONGA                                                                                                                                                                                                                                                                                                                                                                                                                                                                                                                                                                                                                                                                                                                                                                                                                                                                                                                                                                                      Z
L56388200336448-002-003       GV1702130954251ICMPHO THSISHONGA                                                                                                                                                                                                                                                                                                                                                                                                                                                                                                                                                                                                                                                                                                                                                                                                                                                                                                                                                                                      Z
L56388200336448-003-003       GV1702131002121ICMPHO THSISHONGA                                                                                                                                                                                                                                                                                                                                                                                                                                                                                                                                                                                                                                                                                                                                                                                                                                                                                                                                                                                      Z
L56613700342381-001-002       GV1702130955491ICMPHO THSISHONGA                                                                                                                                                                                                                                                                                                                                                                                                                                                                                                                                                                                                                                                                                                                                                                                                                                                                                                                                                                                      Z
L56613700342381-002-002       GV1702131026401ICMPHO THSISHONGA                                                                                                                                                                                                                                                                                                                                                                                                                                                                                                                                                                                                                                                                                                                                                                                                                                                                                                                                                                                      Z
L57026800360040-001-006       GV1702131021531ICMPHO THSISHONGA                                                                                                                                                                                                                                                                                                                                                                                                                                                                                                                                                                                                                                                                                                                                                                                                                                                                                                                                                                                      Z
L57026800360040-002-006       GV1702131014331ICMPHO THSISHONGA                                                                                                                                                                                                                                                                                                                                                                                                                                                                                                                                                                                                                                                                                                                                                                                                                                                                                                                                                                                      Z
L57026800360040-003-006       GV1702131019111ICMPHO THSISHONGA                                                                                                                                                                                                                                                                                                                                                                                                                                                                                                                                                                                                                                                                                                                                                                                                                                                                                                                                                                                      Z
L57026800360040-004-006       GV1702130953351ICMPHO THSISHONGA                                                                                                                                                                                                                                                                                                                                                                                                                                                                                                                                                                                                                                                                                                                                                                                                                                                                                                                                                                                      Z
L57026800360040-005-006       GV1702130942131ICMPHO THSISHONGA                                                                                                                                                                                                                                                                                                                                                                                                                                                                                                                                                                                                                                                                                                                                                                                                                                                                                                                                                                                      Z
L57026800360040-006-006       GV1702130938231ICMPHO THSISHONGA                                                                                                                                                                                                                                                                                                                                                                                                                                                                                                                                                                                                                                                                                                                                                                                                                                                                                                                                                                                      Z
L57821000356362-001-002       GV1702130951571ICMPHO THSISHONGA                                                                                                                                                                                                                                                                                                                                                                                                                                                                                                                                                                                                                                                                                                                                                                                                                                                                                                                                                                                      Z
L58231200356001-002-003       GV1702131012171ICMPHO THSISHONGA                                                                                                                                                                                                                                                                                                                                                                                                                                                                                                                                                                                                                                                                                                                                                                                                                                                                                                                                                                                      Z
L58231200356001-003-003       GV1702130942291ICMPHO THSISHONGA                                                                                                                                                                                                                                                                                                                                                                                                                                                                                                                                                                                                                                                                                                                                                                                                                                                                                                                                                                                      Z
L58241900355845-001-004       GV1702131012551ICMPHO THSISHONGA                                                                                                                                                                                                                                                                                                                                                                                                                                                                                                                                                                                                                                                                                                                                                                                                                                                                                                                                                                                      Z
L58241900355845-002-004       GV1702131018541ICMPHO THSISHONGA                                                                                                                                                                                                                                                                                                                                                                                                                                                                                                                                                                                                                                                                                                                                                                                                                                                                                                                                                                                      Z
L58241900355845-003-004       GV1702131014131ICMPHO THSISHONGA                                                                                                                                                                                                                                                                                                                                                                                                                                                                                                                                                                                                                                                                                                                                                                                                                                                                                                                                                                                      Z
L58241900355845-004-004       GV1702131020161ICMPHO THSISHONGA                                                                                                                                                                                                                                                                                                                                                                                                                                                                                                                                                                                                                                                                                                                                                                                                                                                                                                                                                                                      Z
L58292800355492-001-003       GV1702131028511ICMPHO THSISHONGA                                                                                                                                                                                                                                                                                                                                                                                                                                                                                                                                                                                                                                                                                                                                                                                                                                                                                                                                                                                      Z
L58292800355492-002-003       GV1702131030411ICMPHO THSISHONGA                                                                                                                                                                                                                                                                                                                                                                                                                                                                                                                                                                                                                                                                                                                                                                                                                                                                                                                                                                                      Z
L58292800355492-003-003       GV1702130944401ICMPHO THSISHONGA                                                                                                                                                                                                                                                                                                                                                                                                                                                                                                                                                                                                                                                                                                                                                                                                                                                                                                                                                                                      Z
L58302600356372-001-003       GV1702131025101ICMPHO THSISHONGA                                                                                                                                                                                                                                                                                                                                                                                                                                                                                                                                                                                                                                                                                                                                                                                                                                                                                                                                                                                      Z
L58302600356372-002-003       GV1702130957011ICMPHO THSISHONGA                                                                                                                                                                                                                                                                                                                                                                                                                                                                                                                                                                                                                                                                                                                                                                                                                                                                                                                                                                                      Z
L58302600356372-003-003       GV1702130958381ICMPHO THSISHONGA                                                                                                                                                                                                                                                                                                                                                                                                                                                                                                                                                                                                                                                                                                                                                                                                                                                                                                                                                                                      Z
L58389400354408-001-003       GV1702131023201ICMPHO THSISHONGA                                                                                                                                                                                                                                                                                                                                                                                                                                                                                                                                                                                                                                                                                                                                                                                                                                                                                                                                                                                      Z
L58389400354408-002-003       GV1702131003161ICMPHO THSISHONGA                                                                                                                                                                                                                                                                                                                                                                                                                                                                                                                                                                                                                                                                                                                                                                                                                                                                                                                                                                                      Z
L58389400354408-003-003       GV1702131013101ICMPHO THSISHONGA                                                                                                                                                                                                                                                                                                                                                                                                                                                                                                                                                                                                                                                                                                                                                                                                                                                                                                                                                                                      Z
L58399700353627-001-001       GV1702130953191ICMPHO THSISHONGA                                                                                                                                                                                                                                                                                                                                                                                                                                                                                                                                                                                                                                                                                                                                                                                                                                                                                                                                                                                      Z
L59308900360366-001-002       GV1702130937161ICMPHO THSISHONGA                                                                                                                                                                                                                                                                                                                                                                                                                                                                                                                                                                                                                                                                                                                                                                                                                                                                                                                                                                                      Z
L59308900360366-002-002       GV1702131017391ICMPHO THSISHONGA                                                                                                                                                                                                                                                                                                                                                                                                                                                                                                                                                                                                                                                                                                                                                                                                                                                                                                                                                                                      Z
V53714300000366-002-002       GV1702131017391ICMPHO               0000000000000001702130000001ICSLAVE 4     170213161130343257N              01
V54069700000366-002-002       GV1702131017391ICMPHO               000000000000000170213000000   SLAVE 4     000000000000337472               02
V54884100000366-002-002       GV1702131017391ICMPHO               0000000000000001702130000001ICSLAVE 4     170213161248337964N              04
V54888800000366-002-002       GV1702131017391ICMPHO               000000000000000170213000000   SLAVE 4     000000000000355532               01
V54893600000366-002-002       GV1702131017391ICMPHO               0000000000000001702130000001ICSLAVE 4     170213161347356773Y              01
V54912700000366-002-002       GV1702131017391ICMPHO               000000000000000170213000000   SLAVE 4     000000000000355967               03
V55075600000366-002-002       GV1702131017391ICMPHO               000000000000000170213000000   SLAVE 4     000000000000340148               01
V55084000000366-002-002       GV1702131017391ICMPHO               000000000000000170213000000   SLAVE 4     000000000000336466               02
V55350300000366-002-002       GV1702131017391ICMPHO               000000000000000170213000000   SLAVE 4     000000000000339086               02
V55366800000366-002-002       GV1702131017391ICMPHO               000000000000000170213000000   SLAVE 4     000000000000353985               03
V55372900000366-002-002       GV1702131017391ICMPHO               000000000000000170213000000   SLAVE 4     000000000000340411               03
V55452500000366-002-002       GV1702131017391ICMPHO               000000000000000170213000000   SLAVE 4     000000000000338104               03
V55467600000366-002-002       GV1702131017391ICMPHO               0000000000000001702130000001ICSLAVE 4     170213161208359189N              02
V55478600000366-002-002       GV1702131017391ICMPHO               000000000000000170213000000   SLAVE 4     000000000000337557               02
V55496600000366-002-002       GV1702131017391ICMPHO               0000000000000001702130000001ICSLAVE 4     170213160447343307N              01
V55500700000366-002-002       GV1702131017391ICMPHO               000000000000000170213000000   SLAVE 4     000000000000338403               01
V55504700000366-002-002       GV1702131017391ICMPHO               000000000000000170213000000   SLAVE 4     000000000000338127               02
V56187100000366-002-002       GV1702131017391ICMPHO               0000000000000001702130000001ICSLAVE 4     170213161049343384N              01
V56315700000366-002-002       GV1702131017391ICMPHO               000000000000000170213000000   SLAVE 4     000000000000341474               03
V56388200000366-002-002       GV1702131017391ICMPHO               000000000000000170213000000   SLAVE 4     000000000000336448               03
V56613700000366-002-002       GV1702131017391ICMPHO               000000000000000170213000000   SLAVE 4     000000000000342381               02
V57026800000366-002-002       GV1702131017391ICMPHO               000000000000000170213000000   SLAVE 4     000000000000360040               06
V57821000000366-002-002       GV1702131017391ICMPHO               000000000000000170213000000   SLAVE 4     000000000000356362               02
V58231200000366-002-002       GV1702131017391ICMPHO               000000000000000170213000000   SLAVE 4     000000000000356001               03
V58241900000366-002-002       GV1702131017391ICMPHO               000000000000000170213000000   SLAVE 4     000000000000355845               04
V58292800000366-002-002       GV1702131017391ICMPHO               000000000000000170213000000   SLAVE 4     000000000000355492               03
V58302600000366-002-002       GV1702131017391ICMPHO               000000000000000170213000000   SLAVE 4     000000000000356372               03
V58389400000366-002-002       GV1702131017391ICMPHO               000000000000000170213000000   SLAVE 4     000000000000354408               03
V58399700000366-002-002       GV1702131017391ICMPHO               0000000000000001702130000001ICSLAVE 4     170213161425353627Y              01
V59308900000366-002-002       GV1702131017391ICMPHO               000000000000000170213000000   SLAVE 4     000000000000360366               02
X GV Slave 4 First invoice 153345 170213 Last invoice 153346 170213 Next invoice 153347 Total number of records 000000107 clbackup completed 19:44:31
