803806000803806               803806               170213GW     1400+00000+GW0000004385+0000004385+000000000+000000614+0000004999+0000000000+I40000004999+0000000000+Z
803806001803806007-000179     803806006003000534555OFFICE DISPLAY C/CASE  0000001000+00004385+00000+0001T   00004385+0000000931          1400 DJ2130               1CZ
803807000803807               803807               170213GW     1400+00000+GW0000005261+0000005261+000000000+000000737+0000005990+0000000008+I20000000000+0000005990+Z
803807001803807903-000483     803807006001704001410SWT LIQUOR SML SORT 60G0000001000+00000876+00000+0001T   00000876+0000000932          1400 DJ2150               1CZ
803807002803807362-002430     803807006001023707314HAIR ACCESS SHINY PURSE0000001000+00004385+00000+0001T   00004385+0000000932          1400 DJ2160               1CZ
803808000803808               803808               170213GW     1400+00000+GW0000010998+0000010998+000000000+000001540+0000012538+0000000000+I40000012538+0000000000+Z
803808001803808159-000887     803808006001023730817HOOKS PL SUCTION 9PCE  0000001000+00002192+00000+0001T   00002192+0000000936          1400 DJ2200               1CZ
803808002803808107-004505     803808006003000677177STEP STOOL FOLDABLE    0000001000+00008771+00000+0001T   00008771+0000000936          1400 DJ2210               1CZ
803808003803808112-116038     803808006009681820246TCS CARRIER BAG MIDI   0000001000+00000035+00000+0001T   00000035+0000000936          1400 DJ2090               1CZ
803809000803809               803809               170213GW     1400+00000+GW0000006186+0000006186+000000000+000000867+0000007050+0000000003+I20000000000+0000007050+Z
803809001803809079-001001     803809006003000448593CANVAS A3 WOOD MOUNTED 0000001000+00004385+00000+0001T   00004385+0000000943          1400 DJ2130               1CZ
803809002803809079-000275     803809006003000160488PAINT-BRUSHES 6PCE PRO 0000001000+00001753+00000+0001T   00001753+0000000943          1400 DJ2130               1CZ
803809003803809112-116069     803809006009681820277TCS CARRIER BAG JUMBO  0000001000+00000048+00000+0001T   00000048+0000000943          1400 DJ2090               1CZ
803810000803810               803810               170213GW     1400+00000+GW0000002665+0000002665+000000000+000000374+0000003039+0000000000+I40000003039+0000000000+Z
803810001803810071-005669     803810006003000153268STAPLER MINI W/STAPLES 0000001000+00002630+00000+0001T   00002630+0000001005          1400 DJ2130               1CZ
803810002803810112-116038     803810006009681820246TCS CARRIER BAG MIDI   0000001000+00000035+00000+0001T   00000035+0000001005          1400 DJ2090               1CZ
803811000803811               803811               170213GW     1400+00000+GW0000009380+0000009380+000000000+000001316+0000010690+0000000006+I20000000000+0000010690+Z
803811001803811566-000367     803811006003000645558STICKER WINDOW DECOR   0000002000+00002630+00000+0001T   00002630+0000001007          1400 DJ2130               1CZ
803811002803811079-009702-D   803811008427973059354PAPER SIRIO A2 RED COL 0000001000+00001051+00000+0001T   00001051+0000001007          1400 DJ2130               1CZ
803811003803811301-085008     803811006003000673933ORN OCC.LOVE TINSEL HRT0000001000+00003069+00000+0001T   00003069+0000001007          1400 DJ2505               1CZ
803812000803812               803812               170213GW     1400+00000+GW0000001313+0000001313+000000000+000000184+0000001490+0000000007+I20000000000+0000001490+Z
803812001803812018-000177     803812006001023797513MUG MINI LOVE ASSTD    0000001000+00000700+00000+0001T   00000700+0000001028          1400 DJ2515               1BZ
803812002803812304-001011     803812006001023806727FLWR ROSE RED W/BEAR   0000001000+00000613+00000+0001T   00000788+0006471028          1400 DJ2510               1BZ
803813000803813               803813               170213GW     1400+00000+GW0000003979+0000003979+000000000+000000558+0000004537+0000000000+I40000004537+0000000000+Z
803813001803813080-000133-A   803813006003000647019MINI VALENTINES CARD   0000001000+00000437+00000+0001T   00000437+0000001030          1400 DJ2112               1BZ
803813002803813018-000130     803813006001023867537MUG OCC LOVE MINI+HEART0000001000+00003507+00000+0001T   00003507+0000001030          1400 DJ2515               1BZ
803813003803813112-116038     803813006009681820246TCS CARRIER BAG MIDI   0000001000+00000035+00000+0001T   00000035+0000001030          1400 DJ2090               1BZ
803814000803814               803814               170213GW     1400+00000+GW0000002752+0000002752+000000000+000000386+0000003138+0000000000+I40000003138+0000000000+Z
803814001803814077-000323     803814006001023677563G/BAG 25X32CM E/DAY FLO0000001000+00001578+00000+0001T   00001578+0000001053          1400 DJ2112               1CZ
803814002803814112-116038     803814006009681820246TCS CARRIER BAG MIDI   0000001000+00000035+00000+0001T   00000035+0000001053          1400 DJ2090               1CZ
803814003803814903-000699     803814006002099007018SWT CANDY FRUIT CHEWS  0000001000+00001139+00000+0001T   00001139+0000001053          1400 DJ2150               1CZ
803815000803815               803815               170213GW     1400+00000+GW0000005524+0000005524+000000000+000000774+0000006290+0000000008+I20000000000+0000006290+Z
803815001803815267-000219     803815006003000301997PUZZLE 100pc FUNNY CAR 0000001000+00004385+00000+0001T   00004385+0000001053          1400 DJ2755               1CZ
803815002803815903-000087     803815006001704000161SWT SPECKLED-EGGS 50G  0000001000+00001139+00000+0001T   00001139+0000001053          1400 DJ2150               1CZ
803816000803816               803816               170213GW     1400+00000+GW0000003507+0000003507+000000000+000000491+0000003998+0000000000+I40000003998+0000000000+Z
803816001803816031-000002-A   803816006003000247103P/FRAME LOVE 7.5X7.5CM 0000001000+00003507+00000+0001T   00003507+0000001055          1400 DJ2510               1CZ
803817000803817               803817               170213GW     1400+00000+GW0000003506+0000003506+000000000+000000492+0000003990+0000000008+I20000000000+0000003990+Z
803817001803817200-003024     803817006001023657299REFUSE BAGS 20PCE BLACK0000001000+00001753+00000+0001T   00001753+0000001056          1400 DJ2214               1CZ
803817002803817200-003026     803817006003000276448REFUSE BAGS 10PCE GREEN0000001000+00001753+00000+0001T   00001753+0000001056          1400 DJ2214               1CZ
803818000803818               803818               170213GW     1400+00000+GW0000006139+0000006139+000000000+000000860+0000006990+0000000009+I20000000000+0000006990+Z
803818001803818566-000316     803818006003000521821STICKERS MIRRORS HOME  0000001000+00006139+00000+0001T   00006139+0000001102          1400 DJ2130               1CZ
803819000803819               803819               170213GW     1400+00000+GW0000015278+0000015278+000000000+000002141+0000017410+0000000009+I20000000000+0000017410+Z
803819001803819903-000194     803819006009826020616SWT CHOC RP LOLLY 25G  0000006000+00001314+00000+0001T   00001314+0000001104          1400 DJ2150               1BZ
803819002803819304-001011     803819006001023806727FLWR ROSE RED W/BEAR   0000006000+00000613+00000+0001T   00000788+0006471104          1400 DJ2510               1BZ
803819003803819903-004951     803819006002580020328SWT MALLOW MINI M/SHAKE0000003000+00001227+00000+0001T   00001227+0000001104          1400 DJ2150               1BZ
803819004803819112-116038     803819006009681820246TCS CARRIER BAG MIDI   0000001000+00000035+00000+0001T   00000035+0000001104          1400 DJ2090               1BZ
803820000803820               803820               170213GW     1400+00000+GW0000007624+0000007624+000000000+000001070+0000008690+0000000004+I20000000000+0000008690+Z
803820001803820903-000087     803820006001704000161SWT SPECKLED-EGGS 50G  0000001000+00001139+00000+0001T   00001139+0000001105          1400 DJ2150               1CZ
803820002803820301-085004     803820006003000420469ORN LOVE PLAQUE 21X10CM0000001000+00003507+00000+0001T   00003946+0006471105          1400 DJ2505               1CZ
803820003803820080-000133     803820006003000535613CARD&ENV MINI ASTD DSGN0000001000+00000437+00000+0001T   00000437+0000001105          1400 DJ2112               1CZ
803820004803820071-000307     803820006003000535118RULER FLEXI 30cm       0000001000+00001490+00000+0001T   00001490+0000001105          1400 DJ2130               1CZ
803820005803820903-002890     803820008935001721352MENTOS GUM PURE F/MINT 0000001000+00001051+00000+0001T   00001051+0000001105          1400 DJ2150               1CZ
803821000803821               803821               170213GW     1400+00000+GW0000000000+0000000000+000000000+000000000+0000000000+0000000000+I20000000000+0000000000+Z
803821001803821267-000219     803821006003000301997PUZZLE 100pc FUNNY CAR 0000001000-00004385+00000+0001T   00004385+0000001113          1400 DJ27552IC            1 Z
803821002803821267-000182     803821006003000390274PUZZLE 24pc ASSTD      0000001000+00004385+00000+0001T   00004385+0000001113          1400 DJ2755               1 Z
803822000803822               803822               170213GW     1400+00000+GW0000002630+0000002630+000000000+000000369+0000002990+0000000009+I20000000000+0000002990+Z
803822001803822077-000115-B   803822006003000181025GIFT-WRAP PPR 700MMX2M 0000001000+00002630+00000+0001T   00002630+0000001116          1400 DJ2112               1CZ
803823000803823               803823               170213GW     1400+00000+GW0000001662+0000001662+000000000+000000235+0000001890+0000000007+I20000000000+0000001890+Z
803823001803823033-006001     803823006001023135933SEWING-KIT TRAVELLING  0000001000+00000876+00000+0001T   00000876+0000001121          1400 DJ2200               1CZ
803823002803823903-000183     803823006003000451043SWT LB HEART LOLLY     0000002000+00000393+00000+0001T   00000393+0000001121          1400 DJ2150               1CZ
803824000803824               803824               170213GW     1400+00000+GW0000003507+0000003507+000000000+000000491+0000003990+0000000008+I20000000000+0000003990+Z
803824001803824200-000012     803824006003000399536BAG 50PCE 165x146mm    0000001000+00003507+00000+0001T   00003507+0000001126          1400 DJ2214               1CZ
803825000803825               803825               170213GW     1400+00000+GW0000005260+0000005260+000000000+000000737+0000005990+0000000007+I20000000000+0000005990+Z
803825001803825028-002101     803825006002580009507CHAIR JUNIOR    ASSTD  0000001000+00003507+00000+0001T   00003507+0000001131          1400 DJ2305               1CZ
803825002803825200-003026     803825006003000276448REFUSE BAGS 10PCE GREEN0000001000+00001753+00000+0001T   00001753+0000001131          1400 DJ2214               1CZ
803826000803826               803826               170213GW     1400+00000+GW0000003155+0000003155+000000000+000000443+0000003590+0000000008+I20000000000+0000003590+Z
803826001803826903-000155     803826006009803374435SWT LOLLY I LUV U HEART0000001000+00000525+00000+0001T   00000525+0000001135          1400 DJ2150               1CZ
803826002803826562-000010     803826006001023762528KID'S PLAY DOUGH       0000001000+00002630+00000+0001T   00002630+0000001135          1400 DJ2755               1CZ
803827000803827               803827               170213GW     1400+00000+GW0000013817+0000013817+000000000+000001936+0000015753+0000000000+I40000015753+0000000000+Z
803827001803827368-000113     803827006001023780874PLUSH BLINGED LOVE 30cm0000001000+00012279+00000+0001T   00012279+0000001139          1400 DJ2745               1CZ
803827002803827077-000299     803827006003000395576G/BAG 32x25cm LRG LOVE 0000001000+00001490+00000+0001T   00001490+0000001139          1400 DJ2112               1CZ
803827003803827112-116069     803827006009681820277TCS CARRIER BAG JUMBO  0000001000+00000048+00000+0001T   00000048+0000001139          1400 DJ2090               1CZ
803828000803828               803828               170213GW     1400+00000+GW0000001314+0000001314+000000000+000000184+0000001490+0000000008+I20000000000+0000001490+Z
803828001803828077-000310     803828006001023608635GIFT-BAG 18X23CM GLOSS 0000001000+00001314+00000+0001T   00001314+0000001140          1400 DJ2112               1CZ
803829000803829               803829               170213GW     1400+00000+GW0000009694+0000009694+000000000+000001359+0000011050+0000000003+I20000000000+0000011050+Z
803829001803829174-000001     803829006001023759412SHOE/CLOTHES-STORER    0000001000+00007893+00000+0001T   00007893+0000001142          1400 DJ2205               1CZ
803829002803829036-000063     803829006009654960436COATHANGERS VIRGIN 5PCE0000001000+00001753+00000+0001T   00001753+0000001142          1400 DJ2212               1CZ
803829003803829112-116069     803829006009681820277TCS CARRIER BAG JUMBO  0000001000+00000048+00000+0001T   00000048+0000001142          1400 DJ2090               1CZ
803830000803830               803830               170213GW     1400+00000+GW0000003978+0000003978+000000000+000000558+0000004530+0000000006+I20000000000+0000004530+Z
803830001803830039-000319-1   803830006003000442386B/CANDLES LRG NUMBER-1 0000001000+00000876+00000+0001T   00000876+0000001151          1400 DJ2510               1CZ
803830002803830566-000351     803830006001023809230STICKERS D/CUT ALPHABET0000001000+00001314+00000+0001T   00001753+0008151151          1400 DJ2130               1CZ
803830003803830006-000133     803830006001023823083BALLOONS 4PCE SHAKER   0000001000+00001753+00000+0001T   00001753+0000001151          1400 DJ2131               1CZ
803830004803830112-116038     803830006009681820246TCS CARRIER BAG MIDI   0000001000+00000035+00000+0001T   00000035+0000001151          1400 DJ2090               1CZ
803831000803831               803831               170213GW     1400+00000+GW0000001753+0000001753+000000000+000000246+0000001990+0000000009+I20000000000+0000001990+Z
803831001803831065-006042     803831006001023712998MARACAS 2PCE CHA-CHA   0000001000+00001753+00000+0001T   00001753+0000001153          1400 DJ2745               1CZ
803832000803832               803832               170213GW     1400+00000+GW0000007449+0000007449+000000000+000001045+0000008490+0000000004+I20000000000+0000008490+Z
803832001803832107-004105     803832006002923010504BUCKET 9L OPEN         0000001000+00001314+00000+0001T   00001314+0000001245          1400 DJ2210               1CZ
803832002803832261-002266     803832006001023186218CAP-GUN ROLL-CAP 15cm  0000001000+00001753+00000+0001T   00001753+0000001245          1400 DJ2710               1CZ
803832003803832104-000010     803832006001023507822BASKET 30x23cm RECT.   0000001000+00001753+00000+0001T   00001753+0000001245          1400 DJ2210               1CZ
803832004803832903-000615     803832006003000617456SWT JET PLANE J/B 5G   0000001000+00001753+00000+0001T   00001753+0000001245          1400 DJ2150               1CZ
803832005803832306-000021-A   803832006001023891358EARBUDS COTTON 100PCE  0000001000+00000876+00000+0001T   00000876+0000001245          1400 DJ2200               1CZ
803833000803833               803833               170213GW     1400+00000+GW0000001753+0000001753+000000000+000000246+0000001990+0000000009+I20000000000+0000001990+Z
803833001803833200-003026     803833006003000276448REFUSE BAGS 10PCE GREEN0000001000+00001753+00000+0001T   00001753+0000001246          1400 DJ2214               1CZ
803834000803834               803834               170213GW     1400+00000+GW0000031835+0000031835+000000000+000004459+0000036290+0000000004+I20000000000+0000036290+Z
803834001803834112-116038     803834006009681820246TCS CARRIER BAG MIDI   0000001000+00000035+00000+0001T   00000035+0000001313          1400 DJ2090               1CZ
803834002803834301-085007     803834006003000673698ORN OCC. LOVE S/PLAQUE 0000001000+00007893+00000+0001T   00007893+0000001313          1400 DJ2505               1CZ
803834003803834018-000177     803834006001023797513MUG MINI LOVE ASSTD    0000011000+00000700+00000+0001T   00000700+0000001313          1400 DJ2515               1CZ
803834004803834903-000844     803834005010478432567SWT CANDY DL LUV HEARTS0000011000+00001314+00000+0001T   00001314+0000001313          1400 DJ2150               1CZ
803834005803834077-000904     803834006003000410682G/WRAP 700mmx1m PATTERN0000001000+00001753+00000+0001T   00001753+0000001313          1400 DJ2112               1CZ
803835000803835               803835               170213GW     1400+00000+GW0000007712+0000007712+000000000+000001081+0000008790+0000000003+I20000000000+0000008790+Z
803835001803835018-000127     803835006001023380289MUG OCC STRAIGHT LOVE  0000001000+00001578+00000+0001T   00001753+0006471319          1400 DJ2515               1CZ
803835002803835018-000177     803835006001023797513MUG MINI LOVE ASSTD    0000002000+00000700+00000+0001T   00000700+0000001319          1400 DJ2515               1CZ
803835003803835903-000095     803835006001704011495SWT SPECKLED-EGGS 100G 0000001000+00002104+00000+0001T   00002104+0000001319          1400 DJ2150               1CZ
803835004803835002-000717     803835006001023775184CHOPPING-MATS FLEX 2PCE0000001000+00002630+00000+0001T   00002630+0000001319          1400 DJ2300               1CZ
803836000803836               803836               170213GW     1400+00000+GW0000000876+0000000876+000000000+000000123+0000000990+0000000009+I20000000000+0000000990+Z
803836001803836306-000023     803836006001023606976COTTON-WOOL-BALLS 50PCE0000001000+00000876+00000+0001T   00000876+0000001345          1400 DJ2200               1CZ
803837000803837               803837               170213GW     1400+00000+GW0000001788+0000001788+000000000+000000251+0000002030+0000000009+I20000000000+0000002030+Z
803837001803837306-000973     803837006003000559473FIRSTAID PLASTER 30PC  0000001000+00001753+00000+0001T   00001753+0000001346          1400 DJ2200               1CZ
803837002803837112-116038     803837006009681820246TCS CARRIER BAG MIDI   0000001000+00000035+00000+0001T   00000035+0000001346          1400 DJ2090               1CZ
803838000803838               803838               170213GW     1400+00000+GW0000002630+0000002630+000000000+000000369+0000002990+0000000009+I20000000000+0000002990+Z
803838001803838077-000349-B   803838006001023908315G/RIBBON 3ROLLS 12BOWS 0000001000+00002630+00000+0001T   00002630+0000001408          1400 DJ2112               1CZ
803839000803839               803839               170213GW     1400+00000+GW0000001314+0000001314+000000000+000000184+0000001490+0000000008+I20000000000+0000001490+Z
803839001803839107-004105     803839006002923010504BUCKET 9L OPEN         0000001000+00001314+00000+0001T   00001314+0000001409          1400 DJ2210               1CZ
803840000803840               803840               170213GW     1400+00000+GW0000002630+0000002630+000000000+000000369+0000002999+0000000000+I40000002999+0000000000+Z
803840001803840174-000175     803840006001023730985LAUNDRY-BAG FOLD-AWAY  0000001000+00002630+00000+0001T   00002630+0000001413          1400 DJ2205               1CZ
803841000803841               803841               170213GW     1400+00000+GW0000002630+0000002630+000000000+000000369+0000002990+0000000009+I20000000000+0000002990+Z
803841001803841106-001125     803841006003000666270WATER BOTTLE 600ml     0000001000+00002630+00000+0001T   00002630+0000001432          1400 DJ2210               1CZ
803842000803842               803842               170213GW     1400+00000+GW0000000876+0000000876+000000000+000000123+0000000990+0000000009+I20000000000+0000000990+Z
803842001803842039-000319-3   803842006003000442621B/CANDLES LRG NUMBER-3 0000001000+00000876+00000+0001T   00000876+0000001451          1400 DJ2510               1CZ
803843000803843               803843               170213GW     1400+00000+GW0000001753+0000001753+000000000+000000246+0000001990+0000000009+I20000000000+0000001990+Z
803843001803843162-010769     803843006001492107691#TAG LDS SINGLE HOOPS  0000001000+00001753+00000+0001T   00001753+0000001500          1400 DJ2160               1CZ
803844000803844               803844               170213GW     1400+00000+GW0000015786+0000015786+000000000+000002212+0000017998+0000000000+I40000017998+0000000000+Z
803844001803844301-085007     803844006003000673698ORN OCC. LOVE S/PLAQUE 0000002000+00007893+00000+0001T   00007893+0000001504          1400 DJ2505               1CZ
803845000803845               803845               170213GW     1400+00000+GW0000001314+0000001314+000000000+000000184+0000001490+0000000008+I20000000000+0000001490+Z
803845001803845077-000407     803845006003000145096G/BAG PP 19X26X8CM     0000001000+00001314+00000+0001T   00001314+0000001506          1400 DJ2112               1CZ
803846000803846               803846               170213GW     1400+00000+GW0000001753+0000001753+000000000+000000246+0000001990+0000000009+I20000000000+0000001990+Z
803846001803846077-000299-A   803846006003000670888GIFT-BAG PAPER JMB LOVE0000001000+00001753+00000+0001T   00001753+0000001511          1400 DJ2112               1CZ
803847000803847               803847               170213GW     1400+00000+GW0000000876+0000000876+000000000+000000123+0000000990+0000000009+I20000000000+0000000990+Z
803847001803847089-000192-A   803847006001023901774KEY-CHAIN ACRYLIC      0000001000+00000876+00000+0001T   00000876+0000001512          1400 DJ2205               1CZ
803848000803848               803848               170213GW     1400+00000+GW0000008902+0000008902+000000000+000001249+0000010151+0000000000+I40000010151+0000000000+Z
803848001803848079-000510     803848006001023509079CRAYONS WAX 12-COLOUR  0000001000+00002455+00000+0001T   00002455+0000001518          1400 DJ2130               1CZ
803848002803848047-000012     803848006002521079279PLUG 1x16A+2x5A-2PIN   0000002000+00001753+00000+0001T   00001753+0000001518          1400 DJ2880               1CZ
803848003803848112-116069     803848006009681820277TCS CARRIER BAG JUMBO  0000001000+00000048+00000+0001T   00000048+0000001518          1400 DJ2090               1CZ
803848004803848036-000151     803848006001023810588COATHANGERS    PACK-10 0000001000+00002893+00000+0001T   00002893+0000001518          1400 DJ2212               1CZ
803849000803849               803849               170213GW     1400+00000+GW0000003507+0000003507+000000000+000000491+0000003990+0000000008+I20000000000+0000003990+Z
803849001803849365-000077     803849006003000242757PLAY-SET W/FURNITURE   0000001000+00003507+00000+0001T   00003507+0000001518          1400 DJ2725               1CZ
803850000803850               803850               170213GW     1400+00000+GW0000000035+0000000035+000000000+000000005+0000000040+0000000000+I20000000000+0000000040+Z
803850001803850112-116038     803850006009681820246TCS CARRIER BAG MIDI   0000001000+00000035+00000+0001T   00000035+0000001519          1400 DJ2090               1CZ
803851000803851               803851               170213GW     1400+00000+GW0000026314+0000026314+000000000+000003684+0000029990+0000000008+I20000000000+0000029990+Z
803851001803851486-010001     803851006003000283323WALL-CLOCK QTZ 60CM RND0000001000+00026314+00000+0001T   00026314+0000001520          1400 DJ2510               1CZ
803852000803852               803852               170213GW     1400+00000+GW0000002401+0000002401+000000000+000000337+0000002738+0000000000+I40000002738+0000000000+Z
803852001803852304-001011     803852006001023806727FLWR ROSE RED W/BEAR   0000001000+00000613+00000+0001T   00000788+0006471524          1400 DJ2510               1CZ
803852002803852080-000117     803852006003000236350CARD & ENVELOPE THANK U0000001000+00001753+00000+0001T   00001753+0000001524          1400 DJ2112               1CZ
803852003803852112-116038     803852006009681820246TCS CARRIER BAG MIDI   0000001000+00000035+00000+0001T   00000035+0000001524          1400 DJ2090               1CZ
803853000803853               803853               170213GW     1400+00000+GW0000027232+0000027232+000000000+000003815+0000031047+0000000000+I40000031047+0000000000+Z
803853001803853562-006275     803853006001023836182EDU BOARD W/MARKER ASST0000001000+00007016+00000+0001T   00007016+0000001530          1400 DJ2755               1CZ
803853002803853567-011446     803853009780857266187BK COLOURING EARLY LEAR0000002000+00003507+00000+0001T   00003507+0000001530          1400 DJ2757               1CZ
803853003803853562-002000     803853006003000228539EDU THINK FIRST MEMORY 0000001000+00007016+00000+0001T   00007016+0000001530          1400 DJ2755               1CZ
803853004803853079-000206     803853006003000639700PENCIL CRAYONS THERAPY 0000001000+00001753+00000+0001T   00001753+0000001530          1400 DJ2130               1CZ
803853005803853562-000810     803853006003000158867EDU PEG BOARD ART SETS 0000001000+00004385+00000+0001T   00004385+0000001530          1400 DJ2755               1CZ
803853006803853112-116069     803853006009681820277TCS CARRIER BAG JUMBO  0000001000+00000048+00000+0001T   00000048+0000001530          1400 DJ2090               1CZ
803854000803854               803854               170213GW     1400+00000+GW0000000613+0000000613+000000000+000000086+0000000690+0000000009+I20000000000+0000000690+Z
803854001803854077-000311     803854006001023608666GIFT-BAG 11X14CM GLOSS 0000001000+00000613+00000+0001T   00000613+0000001531          1400 DJ2112               1CZ
803855000803855               803855               170213GW     1400+00000+GW0000003507+0000003507+000000000+000000491+0000003990+0000000008+I20000000000+0000003990+Z
803855001803855562-058911     803855006001023705778EDU MAGNETIC UPPER CASE0000001000+00003507+00000+0001T   00003507+0000001533          1400 DJ2755               1CZ
803856000803856               803856               170213GW     1400+00000+GW0000001402+0000001402+000000000+000000197+0000001590+0000000009+I20000000000+0000001590+Z
803856001803856304-001204     803856006001023737984FLOWER OCC. TEDDY/ROSES0000001000+00001402+00000+0001T   00001490+0006471549          1400 DJ2510               1CZ
803857000803857               803857               170213GW     1400+00000+GW0000010240+0000010240+000000000+000001434+0000011670+0000000004+I20000000000+0000011670+Z
803857001803857018-000136     803857006001023659026MUG OCC LOVE W/PLUSH   0000002000+00003507+00000+0001T   00003507+0000001551          1400 DJ2515               1CZ
803857002803857080-000124     803857006003000297733CARD & ENV VALENTINES  0000002000+00001578+00000+0001T   00001578+0000001551          1400 DJ2112               1CZ
803857003803857112-116038     803857006009681820246TCS CARRIER BAG MIDI   0000002000+00000035+00000+0001T   00000035+0000001551          1400 DJ2090               1CZ
803858000803858               803858               170213GW     1400+00000+GW0000004384+0000004384+000000000+000000614+0000004990+0000000008+I20000000000+0000004990+Z
803858001803858566-000068     803858006003000418046POP UP LOVE 2 ASSTD    0000002000+00002192+00000+0001T   00002192+0000001552          1400 DJ2130               1CZ
803859000803859               803859               170213GW     1400+00000+GW0000002450+0000002450+000000000+000000343+0000002793+0000000000+I40000002793+0000000000+Z
803859001803859002-000879     803859006001023770004STRAINER TEA 7cm H/H   0000007000+00000350+00000+0001T   00000350+0000001554          1400 DJ2300               1CZ
803860000803860               803860               170213GW     1400+00000+GW0000007658+0000007658+000000000+000001075+0000008730+0000000003+I20000000000+0000008730+Z
803860001803860080-000127     803860006003000424351VALENTINES DAY 36x24CM 0000001000+00002192+00000+0001T   00002192+0000001556          1400 DJ2112               1CZ
803860002803860903-000503     803860006001704006118SWT VAMPIRE FANGS 60G  0000001000+00000876+00000+0001T   00000876+0000001556          1400 DJ2150               1CZ
803860003803860903-000504     803860006001704012416SWT CHOC JELLY BEANS   0000001000+00001227+00000+0001T   00001227+0000001556          1400 DJ2150               1CZ
803860004803860903-000087     803860006001704000161SWT SPECKLED-EGGS 50G  0000001000+00001139+00000+0001T   00001139+0000001556          1400 DJ2150               1CZ
803860005803860903-000137     803860006002099004130SWEET GS JELLY BEAN 60G0000001000+00000788+00000+0001T   00000788+0000001556          1400 DJ2150               1CZ
803860006803860903-000520     803860006001704009898SWT GUMMY MINI SOUR 60g0000001000+00000876+00000+0001T   00000876+0000001556          1400 DJ2150               1CZ
803860007803860903-000155     803860006009803374435SWT LOLLY I LUV U HEART0000001000+00000525+00000+0001T   00000525+0000001556          1400 DJ2150               1CZ
803860008803860112-116038     803860006009681820246TCS CARRIER BAG MIDI   0000001000+00000035+00000+0001T   00000035+0000001556          1400 DJ2090               1CZ
803861000803861               803861               170213GW     1400+00000+GW0000003542+0000003542+000000000+000000496+0000004030+0000000008+I20000000000+0000004030+Z
803861001803861560-000023     803861006003000651399ANIMALS DRAGON         0000001000+00003507+00000+0001T   00003507+0000001558          1400 DJ2745               1CZ
803861002803861112-116038     803861006009681820246TCS CARRIER BAG MIDI   0000001000+00000035+00000+0001T   00000035+0000001558          1400 DJ2090               1CZ
803862000803862               803862               170213GW     1400+00000+GW0000007063+0000007063+000000000+000000990+0000008050+0000000003+I20000000000+0000008050+Z
803862001803862464-009011     803862006003000647675FISHING WITH TWO RODS  0000001000+00005262+00000+0001T   00005262+0000001601          1400 DJ2785               1CZ
803862002803862903-000615     803862006003000617456SWT JET PLANE J/B 5G   0000001000+00001753+00000+0001T   00001753+0000001601          1400 DJ2150               1CZ
803862003803862112-116069     803862006009681820277TCS CARRIER BAG JUMBO  0000001000+00000048+00000+0001T   00000048+0000001601          1400 DJ2090               1CZ
803863000803863               803863               170213GW     1400+00000+GW0000002016+0000002016+000000000+000000283+0000002299+0000000000+I40000002299+0000000000+Z
803863001803863050-000362-Z   803863006001023475275PADLOCK IRON 25mm CARD 0000001000+00002016+00000+0001T   00002016+0000001606          1400 DJ2855               1CZ
803864000803864               803864               170213GW     1400+00000+GW0000002893+0000002893+000000000+000000406+0000003290+0000000009+I20000000000+0000003290+Z
803864001803864036-000151     803864006001023810588COATHANGERS    PACK-10 0000001000+00002893+00000+0001T   00002893+0000001607          1400 DJ2212               1CZ
803865000803865               803865               170213GW     1400+00000+GW0000004153+0000004153+000000000+000000583+0000004730+0000000006+I20000000000+0000004730+Z
803865001803865039-000319-1   803865006003000442386B/CANDLES LRG NUMBER-1 0000001000+00000876+00000+0001T   00000876+0000001609          1400 DJ2510               1CZ
803865002803865006-000812     803865006001023902832HAT CONE WITH TINSEL   0000002000+00000876+00000+0001T   00000876+0000001609          1400 DJ2131               1CZ
803865003803865089-001021     803865006003000112319KEY CHAIN MINI BIBLE   0000001000+00001490+00000+0001T   00001490+0000001609          1400 DJ2205               1CZ
803865004803865112-116038     803865006009681820246TCS CARRIER BAG MIDI   0000001000+00000035+00000+0001T   00000035+0000001609          1400 DJ2090               1CZ
803866000803866               803866               170213GW     1400+00000+GW0000004385+0000004385+000000000+000000614+0000004990+0000000009+I20000000000+0000004990+Z
803866001803866267-000182     803866006003000390274PUZZLE 24pc ASSTD      0000001000+00004385+00000+0001T   00004385+0000001609          1400 DJ2755               1CZ
803867000803867               803867               170213GW     1400+00000+GW0000001227+0000001227+000000000+000000172+0000001390+0000000009+I20000000000+0000001390+Z
803867001803867077-000319     803867006001023609779GIFT-BAG 18X23CM BIRTHD0000001000+00001227+00000+0001T   00001227+0000001611          1400 DJ2112               1CZ
803868000803868               803868               170213GW     1400+00000+GW0000003946+0000003946+000000000+000000553+0000004499+0000000000+I40000004499+0000000000+Z
803868001803868133-000008     803868006003000366453KITCHEN SWAB 3PCE CHECK0000001000+00003946+00000+0001T   00003946+0000001616          1400 DJ2212               1CZ
803869000803869               803869               170213GW     1400+00000+GW0000007892+0000007892+000000000+000001105+0000008990+0000000007+I20000000000+0000008990+Z
803869001803869082-000100     803869006003000360246READING GLS STRENGHT:1 0000001000+00004385+00000+0001T   00004385+0000001617          1400 DJ2160               1CZ
803869002803869082-000385     803869006001023694164SPECTACLE-CASE ASSTD   0000001000+00003507+00000+0001T   00003507+0000001617          1400 DJ2160               1CZ
803870000803870               803870               170213GW     1400+00000+GW0000002665+0000002665+000000000+000000374+0000003030+0000000009+I20000000000+0000003030+Z
803870001803870027-009025     803870006003962000747DUSTPAN-SET PL         0000001000+00002630+00000+0001T   00002630+0000001618          1400 DJ2212               1CZ
803870002803870112-116038     803870006009681820246TCS CARRIER BAG MIDI   0000001000+00000035+00000+0001T   00000035+0000001618          1400 DJ2090               1CZ
803871000803871               803871               170213GW     1400+00000+GW0000007664+0000007664+000000000+000001074+0000008730+0000000008+I20000000000+0000008730+Z
803871001803871077-000452     803871006003000284986G/BAG METALLIC MED EMB 0000001000+00001490+00000+0001T   00001490+0000001620          1400 DJ2112               1CZ
803871002803871018-050000     803871006003000412679MUG OCC LOVE TWIN BEAR 0000001000+00006139+00000+0001T   00006139+0000001620          1400 DJ2515               1CZ
803871003803871112-116038     803871006009681820246TCS CARRIER BAG MIDI   0000001000+00000035+00000+0001T   00000035+0000001620          1400 DJ2090               1CZ
803872000803872               803872               170213GW     1400+00000+GW0000001227+0000001227+000000000+000000172+0000001390+0000000009+I20000000000+0000001390+Z
803872001803872077-000245     803872006001023759214GIFT-RIBBON METALLICx2 0000001000+00001227+00000+0001T   00001227+0000001621          1400 DJ2112               1CZ
803873000803873               803873               170213GW     1400+00000+GW0000005033+0000005033+000000000+000000705+0000005738+0000000000+I40000005738+0000000000+Z
803873001803873031-000001-A   803873006003000246908P/FRAME GLS LOVE 9X13cm0000001000+00004385+00000+0001T   00004385+0000001625          1400 DJ2510               1CZ
803873002803873304-001011     803873006001023806727FLWR ROSE RED W/BEAR   0000001000+00000613+00000+0001T   00000788+0006471625          1400 DJ2510               1CZ
803873003803873112-116038     803873006009681820246TCS CARRIER BAG MIDI   0000001000+00000035+00000+0001T   00000035+0000001625          1400 DJ2090               1CZ
803874000803874               803874               170213GW     1400+00000+GW0000001578+0000001578+000000000+000000221+0000001790+0000000009+I20000000000+0000001790+Z
803874001803874018-000127     803874006001023380289MUG OCC STRAIGHT LOVE  0000001000+00001578+00000+0001T   00001753+0006471625          1400 DJ2515               1CZ
803875000803875               803875               170213GW     1400+00000+GW0000005297+0000005297+000000000+000000742+0000006030+0000000009+I20000000000+0000006030+Z
803875001803875263-000623     803875006001023905697VEHICLE HELICOPTER 30cm0000001000+00005262+00000+0001T   00005262+0000001626          1400 DJ2710               1CZ
803875002803875112-116038     803875006009681820246TCS CARRIER BAG MIDI   0000001000+00000035+00000+0001T   00000035+0000001626          1400 DJ2090               1CZ
803876000803876               803876               170213GW     1400+00000+GW0000001665+0000001665+000000000+000000234+0000001890+0000000009+I20000000000+0000001890+Z
803876001803876047-000504-H   803876006001023589958PLUG EURODAPTOR 2PIN HH0000001000+00001665+00000+0001T   00001665+0000001631          1400 DJ2880               1CZ
803877000803877               803877               170213GW     1400+00000+GW0000000700+0000000700+000000000+000000098+0000000790+0000000008+I20000000000+0000000790+Z
803877001803877903-000126     803877006002099003591SWT ZILLIONS MINT 50G  0000001000+00000700+00000+0001T   00000700+0000001631          1400 DJ2150               1CZ
803878000803878               803878               170213GW     1400+00000+GW0000009644+0000009644+000000000+000001351+0000010995+0000000000+I40000010995+0000000000+Z
803878001803878018-000170     803878006001023775528MUG OCC. LOVE 2PC MINI 0000001000+00002192+00000+0001T   00002192+0000001635          1400 DJ2515               1CZ
803878002803878301-085004     803878006003000420469ORN LOVE PLAQUE 21X10CM0000001000+00003507+00000+0001T   00003946+0006471635          1400 DJ2505               1CZ
803878003803878080-000127     803878006003000424351VALENTINES DAY 36x24CM 0000001000+00002192+00000+0001T   00002192+0000001635          1400 DJ2112               1CZ
803878004803878077-000299-A   803878006003000670888GIFT-BAG PAPER JMB LOVE0000001000+00001753+00000+0001T   00001753+0000001635          1400 DJ2112               1CZ
803879000803879               803879               170213GW     1400+00000+GW0000003555+0000003555+000000000+000000498+0000004050+0000000003+I20000000000+0000004050+Z
803879001803879031-000923     803879006001023669933P/FRAME BLK W/WORDS    0000001000+00003507+00000+0001T   00003507+0000001635          1400 DJ2510               1CZ
803879002803879112-116069     803879006009681820277TCS CARRIER BAG JUMBO  0000001000+00000048+00000+0001T   00000048+0000001635          1400 DJ2090               1CZ
803880000803880               803880               170213GW     1400+00000+GW0000002630+0000002630+000000000+000000369+0000002990+0000000009+I20000000000+0000002990+Z
803880001803880159-000684     803880006001023776532BATH BODY-GLOVE 18cm   0000001000+00002630+00000+0001T   00002630+0000001637          1400 DJ2200               1CZ
803881000803881               803881               170213GW     1400+00000+GW0000028944+0000028944+000000000+000004054+0000032998+0000000000+I10000014998+0000018000+Z
803881001803881562-088354     803881006001023735980EVA MAT 26PC 30x30cm   0000001000+00016665+00000+0001T   00016665+0000001642          1400 DJ2755               1CZ
803881002803881562-088357     803881006001023873392EVA CARPET 56x56x0.9cm 0000001000+00012279+00000+0001T   00012279+0000001642          1400 DJ2755               1CZ
803882000803882               803882               170213GW     1400+00000+GW0000003507+0000003507+000000000+000000491+0000003990+0000000008+I20000000000+0000003990+Z
803882001803882018-000136     803882006001023659026MUG OCC LOVE W/PLUSH   0000001000+00003507+00000+0001T   00003507+0000001643          1400 DJ2515               1CZ
803883000803883               803883               170213GW     1400+00000+GW0000000876+0000000876+000000000+000000123+0000000990+0000000009+I20000000000+0000000990+Z
803883001803883039-000323     803883006001023524171BIRTHDAY-CANDLES 24PCE 0000001000+00000876+00000+0001T   00000876+0000001644          1400 DJ2510               1CZ
803884000803884               803884               170213GW     1400+00000+GW0000006523+0000006523+000000000+000000914+0000007437+0000000000+I40000007437+0000000000+Z
803884001803884903-000155     803884006009803374435SWT LOLLY I LUV U HEART0000001000+00000525+00000+0001T   00000525+0000001659          1400 DJ2150               1CZ
803884002803884030-000031-A   803884006003000457588PLAQUE W/WORDS ASSTD   0000001000+00004385+00000+0001T   00004823+0006471659          1400 DJ2505               1CZ
803884003803884077-000315     803884006003000181186GIFT-BAG 20x28cm MATT  0000001000+00001578+00000+0001T   00001578+0000001659          1400 DJ2112               1CZ
803884004803884112-116038     803884006009681820246TCS CARRIER BAG MIDI   0000001000+00000035+00000+0001T   00000035+0000001659          1400 DJ2090               1CZ
803885000803885               803885               170213GW     1400+00000+GW0000009241+0000009241+000000000+000001294+0000010530+0000000005+I20000000000+0000010530+Z
803885001803885251-000002     803885006003000093991TAPE D-SIDED 24x1000mm 0000001000+00002192+00000+0001T   00002192+0000001717          1400 DJ2810               1CZ
803885002803885133-098000     803885006003000460779TABLE RUNNER 33x180cm  0000002000+00003507+00000+0001T   00004385+0008121717          1400 DJ2212               1CZ
803885003803885112-116038     803885006009681820246TCS CARRIER BAG MIDI   0000001000+00000035+00000+0001T   00000035+0000001717          1400 DJ2090               1CZ
803886000803886               803886               170213GW     1400+00000+GW0000005645+0000005645+000000000+000000792+0000006430+0000000007+I20000000000+0000006430+Z
803886001803886077-000245     803886006001023759214GIFT-RIBBON METALLICx2 0000001000+00001227+00000+0001T   00001227+0000001729          1400 DJ2112               1CZ
803886002803886366-002809     803886006003000222643DRESS UP MOUSTACHE SET 0000001000+00001753+00000+0001T   00001753+0000001729          1400 DJ2131               1CZ
803886003803886366-002101     803886006003000617715DRESS UP MASK LIGHT UP 0000001000+00002630+00000+0001T   00002630+0000001729          1400 DJ2131               1CZ
803886004803886112-116038     803886006009681820246TCS CARRIER BAG MIDI   0000001000+00000035+00000+0001T   00000035+0000001729          1400 DJ2090               1CZ
803887000803887               803887               170213GW     1400+00000+GW0000014032+0000014032+000000000+000001966+0000015990+0000000008+I20000000000+0000015990+Z
803887001803887368-000113     803887006001023780874PLUSH BLINGED LOVE 30cm0000001000+00012279+00000+0001T   00012279+0000001730          1400 DJ2745               1CZ
803887002803887077-000299-A   803887006003000670888GIFT-BAG PAPER JMB LOVE0000001000+00001753+00000+0001T   00001753+0000001730          1400 DJ2112               1CZ
803888000803888               803888               170213GW     1400+00000+GW0000001753+0000001753+000000000+000000246+0000001990+0000000009+I20000000000+0000001990+Z
803888001803888362-003003     803888006003000295616HAIR BAND SET 6PCE     0000001000+00001753+00000+0001T   00001753+0000001731          1400 DJ2160               1CZ
803889000803889               803889               170213GW     1400+00000+GW0000005608+0000005608+000000000+000000788+0000006390+0000000006+I20000000000+0000006390+Z
803889001803889039-000029     803889006003000286829C/TAPERED 25CM M/PINK  0000001000+00001051+00000+0001T   00001051+0000001733          1400 DJ2510               1CZ
803889002803889039-000024     803889006003000286300C/TAPERED 25CM M/WHITE 0000001000+00001051+00000+0001T   00001051+0000001733          1400 DJ2510               1CZ
803889003803889040-000923     803889006001023587831CANDLE-HOLDER GLS 13.5 0000002000+00001753+00000+0001T   00001753+0000001733          1400 DJ2510               1CZ
803890000803890               803890               170213GW     1400+00000+GW0000001753+0000001753+000000000+000000246+0000001990+0000000009+I20000000000+0000001990+Z
803890001803890079-013032-B   803890006003000389445MIXED SHAPES           0000001000+00001753+00000+0001T   00001753+0000001735          1400 DJ2130               1CZ
803891000803891               803891               170213GW     1400+00000+GW0000007893+0000007893+000000000+000001106+0000008999+0000000000+I40000008999+0000000000+Z
803891001803891466-000605     803891003427000901125BALL SOC 2-PLY PANEL   0000001000+00007893+00000+0001T   00007893+0000001744          1400 DJ2785               1CZ
803892000803892               803892               170213GW     1400+00000+GW0000001753+0000001753+000000000+000000246+0000001999+0000000000+I40000001999+0000000000+Z
803892001803892200-003026     803892006003000276448REFUSE BAGS 10PCE GREEN0000001000+00001753+00000+0001T   00001753+0000001746          1400 DJ2214               1CZ
803893000803893               803893               170213GW     1400+00000+GW0000004857+0000004857+000000000+000000681+0000005530+0000000008+I20000000000+0000005530+Z
803893001803893018-000129     803893006001023403353MUG OCC. LOVE V-SHAPE  0000001000+00002630+00000+0001T   00002630+0000001750          1400 DJ2515               1CZ
803893002803893080-000127     803893006003000424351VALENTINES DAY 36x24CM 0000001000+00002192+00000+0001T   00002192+0000001750          1400 DJ2112               1CZ
803893003803893112-116038     803893006009681820246TCS CARRIER BAG MIDI   0000001000+00000035+00000+0001T   00000035+0000001750          1400 DJ2090               1CZ
803894000803894               803894               170213GW     1400+00000+GW0000003069+0000003069+000000000+000000430+0000003490+0000000009+I20000000000+0000003490+Z
803894001803894464-000107     803894000073854318089PLAY-CARDS 2nd (SINGLE)0000001000+00003069+00000+0001T   00003069+0000001754          1400 DJ2785               1CZ
803895000803895               803895               170213GW     1400+00000+GW0000004120+0000004120+000000000+000000578+0000004698+0000000000+I40000004698+0000000000+Z
803895001803895079-000282     803895006001023493309PAINT TUBS POSTER 12COL0000001000+00002630+00000+0001T   00002630+0000001755          1400 DJ2130               1CZ
803895002803895079-006494     803895006003000159864GLITTER GLUE 5PCE 11cm 0000001000+00001490+00000+0001T   00001490+0000001755          1400 DJ2130               1CZ
803896000803896               803896               170213GW     1400+00000+GW0000001613+0000001613+000000000+000000226+0000001830+0000000009+I20000000000+0000001830+Z
803896001803896018-000127     803896006001023380289MUG OCC STRAIGHT LOVE  0000001000+00001578+00000+0001T   00001753+0006471758          1400 DJ2515               1CZ
803896002803896112-116038     803896006009681820246TCS CARRIER BAG MIDI   0000001000+00000035+00000+0001T   00000035+0000001758          1400 DJ2090               1CZ
803897000803897               803897               170213GW     1400+00000+GW0000012395+0000012395+000000000+000001736+0000014131+0000000000+I40000014131+0000000000+Z
803897001803897018-000136     803897006001023659026MUG OCC LOVE W/PLUSH   0000003000+00003507+00000+0001T   00003507+0000001801          1400 DJ2515               1CZ
803897002803897304-001011     803897006001023806727FLWR ROSE RED W/BEAR   0000003000+00000613+00000+0001T   00000788+0006471801          1400 DJ2510               1CZ
803897003803897112-116038     803897006009681820246TCS CARRIER BAG MIDI   0000001000+00000035+00000+0001T   00000035+0000001801          1400 DJ2090               1CZ
803898000803898               803898               170213GW     1400+00000+GW0000029862+0000029862+000000000+000004186+0000034048+0000000000+I40000034048+0000000000+Z
803898001803898368-000111     803898006001023780812PLUSH BEAR/DOG 29CM    0000001000+00012279+00000+0001T   00012279+0000001804          1400 DJ2745               1CZ
803898002803898077-000270     803898006003000395453GIFT-BAG PPR JMB 33X45 0000001000+00002630+00000+0001T   00002630+0000001804          1400 DJ2112               1CZ
803898003803898024-000092     803898006003000426805MEASURING-SET 6PC      0000001000+00003946+00000+0001T   00003946+0000001804          1400 DJ2300               1CZ
803898004803898018-000055     803898006003000086498SOUP-MUG CER. SOLD COL.0000001000+00002630+00000+0001T   00002630+0000001804          1400 DJ2515               1CZ
803898005803898024-000071     803898006001023415653E/WHISK S/S & SILICONE 0000001000+00002630+00000+0001T   00002630+0000001804          1400 DJ2300               1CZ
803898006803898024-000065     803898006001023770424SPATULA SILICONE 25CM  0000001000+00003946+00000+0001T   00003946+0000001804          1400 DJ2300               1CZ
803898007803898024-006874     803898006001023769978PASTRY-BRUSH SQ WHITE  0000001000+00001753+00000+0001T   00001753+0000001804          1400 DJ2300               1CZ
803898008803898112-116069     803898006009681820277TCS CARRIER BAG JUMBO  0000001000+00000048+00000+0001T   00000048+0000001804          1400 DJ2090               1CZ
803899000803899               803899               170213GW     1400+00000+GW0000001753+0000001753+000000000+000000246+0000001990+0000000009+I20000000000+0000001990+Z
803899001803899078-000470     803899006007347000018SHOE-CEMENT 70ml-TIN   0000001000+00001753+00000+0001T   00001753+0000001813          1400 DJ2810               1CZ
803900000803900               803900               170213GW     1400+00000+GW0000004820+0000004820+000000000+000000675+0000005495+0000000000+I40000005495+0000000000+Z
803900001803900903-000844     803900005010478432567SWT CANDY DL LUV HEARTS0000002000+00001314+00000+0001T   00001314+0000001816          1400 DJ2150               1CZ
803900002803900077-000509     803900006003000082582GIFT-BAG SML 6PCE ORG P0000001000+00002192+00000+0001T   00002192+0000001816          1400 DJ2112               1CZ
803901000803901               803901               170213GW     1400+00000+GW0000001753+0000001753+000000000+000000246+0000001990+0000000009+I20000000000+0000001990+Z
803901001803901200-003026     803901006003000276448REFUSE BAGS 10PCE GREEN0000001000+00001753+00000+0001T   00001753+0000001817          1400 DJ2214               1CZ
803902000803902               803902               170213GW     1400+00000+GW0000014454+0000014454+000000000+000002031+0000016485+0000000000+I40000016485+0000000000+Z
803902001803902368-000637     803902006001023874092PLUSH BEAR SLEEPING LOV0000001000+00011402+00000+0001T   00012279+0006471820          1400 DJ2745               1CZ
803902002803902006-000171-E   803902006003000609406BALLOONS 1PC BLUE PRNT 0000004000+00000218+00000+0001T   00000218+0000001820          1400 DJ2131               1CZ
803902003803902006-000172-G   803902006003000610167BALLOONS METALLIC SILV 0000004000+00000218+00000+0001T   00000218+0000001820          1400 DJ2131               1CZ
803902004803902006-000173-D   803902006003000636631BALLOONS 1PC BLUE      0000002000+00000218+00000+0001T   00000218+0000001820          1400 DJ2131               1CZ
803902005803902006-000170-G   803902006003000608553BALLOONS 1PC YELLOW    0000001000+00000218+00000+0001T   00000218+0000001820          1400 DJ2131               1CZ
803902006803902006-000170-K   803902006003000609284BALLOONS 1PC PURPLE    0000003000+00000218+00000+0001T   00000218+0000001820          1400 DJ2131               1CZ
803903000803903               803903               170213GW     1400+00000+GW0000023983+0000023983+000000000+000003362+0000027345+0000000000+I40000027345+0000000000+Z
803903001803903007-000209     803903006001023582102NOTE STICKY FILE MARKER0000001000+00001314+00000+0001T   00001314+0000001823          1400 DJ2130               1CZ
803903002803903033-006003     803903006001023678584SEWING-KIT             0000001000+00002630+00000+0001T   00002630+0000001823          1400 DJ2200               1CZ
803903003803903002-000740     803903006001023763945GRATER 4-WAY WHITE     0000001000+00002192+00000+0001T   00002192+0000001823          1400 DJ2300               1CZ
803903004803903089-000192-A   803903006001023901774KEY-CHAIN ACRYLIC      0000001000+00000876+00000+0001T   00000876+0000001823          1400 DJ2205               1CZ
803903005803903565-000890     803903006003000322107NOVELTY HIBOUNCE BALL  0000001000+00002630+00000+0001T   00002630+0000001823          1400 DJ2745               1CZ
803903006803903031-000864-D   803903006003000674657P/FRAME WDN CERTIFICATE0000001000+00006139+00000+0001T   00006139+0000001823          1400 DJ2510               1CZ
803903007803903031-005919     803903006003000580576P/FRAME PL PLAIN 13X18 0000001000+00002630+00000+0001T   00002630+0000001823          1400 DJ2510               1CZ
803903008803903031-000868-D   803903006003000580330P/FRAME PL BLCK CERT.  0000001000+00004385+00000+0001T   00004385+0000001823          1400 DJ2510               1CZ
803903009803903903-000699     803903006002099007018SWT CANDY FRUIT CHEWS  0000001000+00001139+00000+0001T   00001139+0000001823          1400 DJ2150               1CZ
803903010803903112-116069     803903006009681820277TCS CARRIER BAG JUMBO  0000001000+00000048+00000+0001T   00000048+0000001823          1400 DJ2090               1CZ
803904000803904               803904               170213GW     1400+00000+GW0000001753+0000001753+000000000+000000246+0000001990+0000000009+I20000000000+0000001990+Z
803904001803904200-003024     803904006001023657299REFUSE BAGS 20PCE BLACK0000001000+00001753+00000+0001T   00001753+0000001823          1400 DJ2214               1CZ
803905000803905               803905               170213GW     1400+00000+GW0000002630+0000002630+000000000+000000369+0000002990+0000000009+I20000000000+0000002990+Z
803905001803905077-000456     803905006003000285549G/BAG METALLIC JMB EMB 0000001000+00002630+00000+0001T   00002630+0000001823          1400 DJ2112               1CZ
803906000803906               803906               170213GW     1400+00000+GW0000001402+0000001402+000000000+000000197+0000001590+0000000009+I20000000000+0000001590+Z
803906001803906304-001204     803906006001023737984FLOWER OCC. TEDDY/ROSES0000001000+00001402+00000+0001T   00001490+0006471824          1400 DJ2510               1CZ
803907000803907               803907               170213GW     1400+00000+GW0000022538+0000022538+000000000+000003158+0000025696+0000000000+I40000025696+0000000000+Z
803907001803907368-000113     803907006001023780874PLUSH BLINGED LOVE 30cm0000001000+00012279+00000+0001T   00012279+0000001827          1400 DJ2745               1CZ
803907002803907565-004101     803907006003000548033BALL BOUNCING EGG      0000001000+00001490+00000+0001T   00001490+0000001827          1400 DJ2745               1CZ
803907003803907560-000245     803907006001023622716RUBBER ANIMALS 10PC ASS0000001000+00007016+00000+0001T   00007016+0000001827          1400 DJ2745               1CZ
803907004803907077-000299-A   803907006003000670888GIFT-BAG PAPER JMB LOVE0000001000+00001753+00000+0001T   00001753+0000001827          1400 DJ2112               1CZ
803908000803908               803908               170213GW     1400+00000+GW0000007969+0000007969+000000000+000001118+0000009080+0000000007+I20000000000+0000009080+Z
803908001803908304-001011     803908006001023806727FLWR ROSE RED W/BEAR   0000013000+00000613+00000+0001T   00000788+0006471828          1400 DJ25102IC            1CZ
803909000803909               803909               170213GW     1400+00000+GW0000001226+0000001226+000000000+000000172+0000001390+0000000008+I20000000000+0000001390+Z
803909001803909304-001011     803909006001023806727FLWR ROSE RED W/BEAR   0000002000+00000613+00000+0001T   00000788+0006471829          1400 DJ2510               1CZ
803910000803910               803910               170213GW     1400+00000+GW0000004998+0000004998+000000000+000000700+0000005690+0000000008+I20000000000+0000005690+Z
803910001803910088-000107     803910006001023555823DIFFUSER SET FLOWER    0000001000+00004385+00000+0001T   00004385+0000001842          1400 DJ2212               1CZ
803910002803910077-000317     803910006001023609748GIFT-BAG 11X14CM E/D AN0000001000+00000613+00000+0001T   00000613+0000001842          1400 DJ2112               1CZ
B80390800                                          170213GW304-001011     18284249SLAVE 1     DJ22IC0000016000+0000013000+0000000000000+
M17021301                              IT          GWATTENTION:IT                                    LAST TILL SLIP ON SLAVE 1 WAS                   803910                                          WONDERPARK(GW)                                  THANKS
M17021391                              CASH        GWSLAVE 1                       Z-REPORT No.   622TOTAL (Sales - Refunds)           7158.90       CASH TO BE BANKED                 4153.00       DEBIT CARDS                          0.00       CREDIT CARDS                      3005.90       Z-READING                         7158.90       AIRTIME DEBIT CARD SALES             0.00       AIRTIME CARD SALES                   0.00       OVERS/UNDERS                         0.00       AIRTIME CASH SALES                   0.00       GIFT CARDS                           0.00       GIFT CARD CASH SALES                 0.00       T O T A L  CASH PAYOUTS              0.00                                                                                                                                                                                                                                                                                                                                                      Z
M17021392                              CASH        GWABSENT                                                                                                                                                                                          ANNUAL LEAVE                                                                                                                                                                                    DAY OFF                                                                                                                                                                                         COMMENTS                                                                                                                                                                                                                                                                                                                                                                                       Z
Y17021300                                          GW00000000632770+000105
ZGW17021319443 SLAVE 1      SALES DATA                     NEXT INVOICE NO.  803911 0622
X GW Slave 1 First invoice 803806 170213 Last invoice 803910 170213 Next invoice 803911 Total number of records 000000341 clbackup completed 19:44:58
