817267000817267               817267               170213GW     1400+00000+GW0000012324+0000012324+000000000+000001727+0000014050+0000000001+I20000000000+0000014050+Z
817267001817267112-116069     817267006003000535064TCS CARRIER BAG JUMBO  0000001000+00000048+00000+0001T   00000048+0000000843          1400 DF5090               2AZ
817267002817267466-000103     817267006001023642134BALL 20cm ASSTD        0000001000+00001753+00000+0001T   00001753+0000000843          1400 DF5785               2AZ
817267003817267562-002007     817267006003000228188LEARNING EDU ALPHABET  0000001000+00007016+00000+0001T   00007016+0000000843          1400 DF5755               2AZ
817267004817267007-000324     81726700600968585864125 SHEETS BRIGHTS MARLI0000001000+00003507+00000+0001T   00003507+0000000843          1400 DF5130               2AZ
817268000817268               817268               170213GW     1400+00000+GW0000005261+0000005261+000000000+000000737+0000005998+0000000000+I40000005998+0000000000+Z
817268001817268082-000100     817268006003000360246READING GLS STRENGHT:1 0000001000+00004385+00000+0001T   00004385+0000000918          1400 DF5160               2AZ
817268002817268082-026204     817268006001023816443R/GLASSES STRINGS 2PCE 0000001000+00000876+00000+0001T   00000876+0000000918          1400 DF5160               2AZ
817269000817269               817269               170213GW     1400+00000+GW0000002630+0000002630+000000000+000000369+0000002990+0000000009+I20000000000+0000002990+Z
817269001817269050-000889     817269006001023821102PADLOCK COMB RESETABLE 0000001000+00002630+00000+0001T   00002630+0000000921          1400 DF5855               2AZ
817270000817270               817270               170213GW     1400+00000+GW0000002135+0000002135+000000000+000000299+0000002430+0000000004+I20000000000+0000002430+Z
817270001817270018-000177     817270006001023797513MUG MINI LOVE ASSTD    0000003000+00000700+00000+0001T   00000700+0000000946          1400 DF5515               2AZ
817270002817270112-116038     817270006003000534906TCS CARRIER BAG MIDI   0000001000+00000035+00000+0001T   00000035+0000000946          1400 DF5090               2AZ
817271000817271               817271               170213GW     1400+00000+GW0000000350+0000000350+000000000+000000049+0000000390+0000000009+I20000000000+0000000390+Z
817271001817271002-000879     817271006001023770004STRAINER TEA 7cm H/H   0000001000+00000350+00000+0001T   00000350+0000000948          1400 DF5300               2AZ
817272000817272               817272               170213GW     1400+00000+GW0000003507+0000003507+000000000+000000491+0000003990+0000000008+I20000000000+0000003990+Z
817272001817272562-000011     817272006003000600984PLAY DOUGH NEON TUBE   0000001000+00003507+00000+0001T   00003507+0000000949          1400 DF5755               2AZ
817273000817273               817273               170213GW     1400+00000+GW0000000876+0000000876+000000000+000000123+0000000990+0000000009+I20000000000+0000000990+Z
817273001817273076-000017     817273006001811010022TWINE COTTON 50g-BALL  0000001000+00000876+00000+0001T   00000876+0000001028          1400 DF5810               2AZ
817274000817274               817274               170213GW     1400+00000+GW0000000868-0000000868-000000000+000000122-0000000990-0000000000+I20000000000+0000000990-Z
817274001817274001-999902     817274000000000999902MAINTENANCE+REPAIR-EQP 0000001000-00000868+00000+0001T   00000000+0000001029          1400 DF59021IC            2 Z
817275000817275               817275               170213GW     1400+00000+GW0000000876+0000000876+000000000+000000123+0000000990+0000000009+I20000000000+0000000990+Z
817275001817275071-001019     817275006001023474513MARKER BLACK NAME-PEN  0000001000+00000876+00000+0001T   00000876+0000001030          1400 DF5130               2AZ
817276000817276               817276               170213GW     1400+00000+GW0000000868-0000000868-000000000+000000122-0000000990-0000000000+I20000000000+0000000990-Z
817276001817276001-999906     817276000000000999906STATIONERY(PHOTOCOPIES)0000001000-00000868+00000+0001T   00000000+0000001030          1400 DF59061IC            2 Z
817277000817277               817277               170213GW     1400+00000+GW0000004241+0000004241+000000000+000000595+0000004830+0000000006+I20000000000+0000004830+Z
817277001817277071-081091     817277006001151010287STAED/GENKEM ALL-STICK 0000001000+00001227+00000+0001T   00001227+0000001033          1400 DF5130               2AZ
817277002817277112-116038     817277006003000534906TCS CARRIER BAG MIDI   0000001000+00000035+00000+0001T   00000035+0000001033          1400 DF5090               2AZ
817277003817277903-000504     817277006001704012416SWT CHOC JELLY BEANS   0000001000+00001227+00000+0001T   00001227+0000001033          1400 DF5150               2AZ
817277004817277007-000045     817277006009608640438DISPLAY-POCKETS A4 10PC0000002000+00000876+00000+0001T   00000876+0000001033          1400 DF5130               2AZ
817278000817278               817278               170213GW     1400+00000+GW0000008819+0000008819+000000000+000001235+0000010050+0000000004+I20000000000+0000010050+Z
817278001817278019-000076     817278006001023757159V/GLASS 25CM C/DESIGN  0000001000+00008771+00000+0001T   00008771+0000001037          1400 DF5510               2AZ
817278002817278112-116069     817278006003000535064TCS CARRIER BAG JUMBO  0000001000+00000048+00000+0001T   00000048+0000001037          1400 DF5090               2AZ
817279000817279               817279               170213GW     1400+00000+GW0000011392+0000011392+000000000+000001600+0000012992+0000000000+I40000012992+0000000000+Z
817279001817279024-000039     817279006003000114030MEASURING-JUG PL 1,0L  0000001000+00003946+00000+0001T   00005262+0008121058          1400 DF5300               2AZ
817279002817279089-000192-A   817279006001023901774KEY-CHAIN ACRYLIC      0000001000+00000876+00000+0001T   00000876+0000001058          1400 DF5205               2AZ
817279003817279301-086010     817279006003000573400ORN TEABAG HOLDER 20cm 0000001000+00003069+00000+0001T   00003069+0000001058          1400 DF5505               2AZ
817279004817279204-000002     817279006003000575794MEMO HOLDER CRYSTAL RND0000001000+00001753+00000+0001T   00001753+0000001058          1400 DF5300               2AZ
817279005817279080-000133     817279006003000535613CARD&ENV MINI ASTD DSGN0000004000+00000437+00000+0001T   00000437+0000001058          1400 DF5112               2AZ
817280000817280               817280               170213GW     1400+00000+GW0000008806+0000008806+000000000+000001233+0000010030+0000000009+I20000000000+0000010030+Z
817280001817280001-091415     817280006003000329113W/GLS OCC. LOVE 2PC 2800000001000+00008771+00000+0001T   00009648+0006471146          1400 DF5515               2AZ
817280002817280112-116038     817280006003000534906TCS CARRIER BAG MIDI   0000001000+00000035+00000+0001T   00000035+0000001146          1400 DF5090               2AZ
817281000817281               817281               170213GW     1400+00000+GW0000030745+0000030745+000000000+000004306+0000035051+0000000000+I40000035051+0000000000+Z
817281001817281082-092844     817281006001492928449#TAG SPECTACLE POUCH   0000001000+00002630+00000+0001T   00002630+0000001206          1400 DF5160               2AZ
817281002817281082-007580     817281006003000698523SUNGLASS MENS DESIGNER 0000001000+00005262+00000+0001T   00005262+0000001206          1400 DF5160               2AZ
817281003817281140-092001     817281006001023819154MOSQ-NET 900x230x60cm  0000001000+00014034+00000+0001T   00014034+0000001206          1400 DF5830               2AZ
817281004817281368-000665     817281006003000169016PLUSH BEAR 30cm        0000001000+00008771+00000+0001T   00008771+0000001206          1400 DF5745               2AZ
817281005817281112-116069     817281006003000535064TCS CARRIER BAG JUMBO  0000001000+00000048+00000+0001T   00000048+0000001206          1400 DF5090               2AZ
817282000817282               817282               170213GW     1400+00000+GW0000009031+0000009031+000000000+000001266+0000010290+0000000007+I20000000000+0000010290+Z
817282001817282567-010161     817282009780000008516BOOK TOP ASSTD MILLS   0000001000+00005262+00000+0001T   00005262+0000001208          1400 DF5757               2AZ
817282002817282903-000095     817282006001704011495SWT SPECKLED-EGGS 100G 0000001000+00002104+00000+0001T   00002104+0000001208          1400 DF5150               2AZ
817282003817282159-000684     817282006001023776532BATH BODY-GLOVE 18cm   0000001000+00002630+00000+0001T   00002630+0000001208          1400 DF5200               2AZ
817282004817282903-000095     817282006001704011495SWT SPECKLED-EGGS 100G 0000001000-00002104+00000+0001T   00002104+0000001208          1400 DF51502IC            2 Z
817282005817282903-000087     817282006001704000161SWT SPECKLED-EGGS 50G  0000001000+00001139+00000+0001T   00001139+0000001208          1400 DF5150               2AZ
817283000817283               817283               170213GW     1400+00000+GW0000004822+0000004822+000000000+000000676+0000005490+0000000008+I20000000000+0000005490+Z
817283001817283174-000312     817283006003000053483TRAVEL PADLCK CMB RESET0000001000+00002630+00000+0001T   00003069+0008171213          1400 DF5205               2AZ
817283002817283036-000400     817283006001023886132CLOTHES-DRYER PL 8-PEG 0000001000+00002192+00000+0001T   00002192+0000001213          1400 DF5212               2AZ
817284000817284               817284               170213GW     1400+00000+GW0000007893+0000007893+000000000+000001106+0000008990+0000000009+I20000000000+0000008990+Z
817284001817284082-000126     817284006003000646517READING GLASS TWIN 2.5 0000001000+00007893+00000+0001T   00007893+0000001222          1400 DF5160               2AZ
817285000817285               817285               170213GW     1400+00000+GW0000003507-0000003507-000000000+000000491-0000004000-0000000002+I20000000000+0000004000-Z
817285001817285261-000001     817285006003000656080GUN HAND POTATO SHOOTER0000001000-00003507+00000+0001T   00003507+0000001226          1400 DF57101IC            2 Z
817286000817286               817286               170213GW     1400+00000+GW0000001753+0000001753+000000000+000000246+0000001990+0000000009+I20000000000+0000001990+Z
817286001817286079-006496     817286006003000160105GLITTER SHAKERS        0000001000+00001753+00000+0001T   00001753+0000001227          1400 DF5130               2AZ
817287000817287               817287               170213GW     1400+00000+GW0000004074+0000004074+000000000+000000572+0000004646+0000000000+I40000004646+0000000000+Z
817287001817287079-009700-D   817287006003000545711PAPER SIRIO A4 RED COL.0000002000+00000306+00000+0001T   00000306+0000001231          1400 DF5130               2AZ
817287002817287016-006530     817287006003000456208S/JAR GLS COUNTER 2SIDE0000001000+00003069+00000+0001T   00003069+0000001231          1400 DF5300               2AZ
817287003817287903-000183     817287006003000451043SWT LB HEART LOLLY     0000001000+00000393+00000+0001T   00000393+0000001231          1400 DF5150               2AZ
817288000817288               817288               170213GW     1400+00000+GW0000002278+0000002278+000000000+000000320+0000002590+0000000008+I20000000000+0000002590+Z
817288001817288046-000014     817288006001023725387BATTERIES SIZE:AAA 4PCE0000002000+00001139+00000+0001T   00001139+0000001234          1400 DF5312               2AZ
817289000817289               817289               170213GW     1400+00000+GW0000001928+0000001928+000000000+000000270+0000002190+0000000008+I20000000000+0000002190+Z
817289001817289174-008028     817289006009654960825TRAVEL JARS 4-PACK     0000001000+00001928+00000+0001T   00001928+0000001234          1400 DF5205               2AZ
817290000817290               817290               170213GW     1400+00000+GW0000001753+0000001753+000000000+000000246+0000001990+0000000009+I20000000000+0000001990+Z
817290001817290903-000615     817290006003000617456SWT JET PLANE J/B 5G   0000001000+00001753+00000+0001T   00001753+0000001235          1400 DF5150               2AZ
817291000817291               817291               170213GW     1400+00000+GW0000017053+0000017053+000000000+000002391+0000019444+0000000000+I40000019444+0000000000+Z
817291001817291077-000303     817291006001023593757GIFT-BAG PAPER MED     0000001000+00001578+00000+0001T   00001578+0000001246          1400 DF5112               2AZ
817291002817291018-000170     817291006001023775528MUG OCC. LOVE 2PC MINI 0000001000+00002192+00000+0001T   00002192+0000001246          1400 DF5515               2AZ
817291003817291903-000155     817291006009803374435SWT LOLLY I LUV U HEART0000001000+00000525+00000+0001T   00000525+0000001246          1400 DF5150               2AZ
817291004817291368-000001     817291006003000097982Plush Bear 25cm        0000001000+00004385+00000+0001T   00004385+0000001246          1400 DF5745               2AZ
817291005817291018-000170     817291006001023775528MUG OCC. LOVE 2PC MINI 0000001000-00002192+00000+0001T   00002192+0000001246          1400 DF55152IC            2 Z
817291006817291903-000926     817291006914204004556SWT NOVELTY ST N/LACE  0000001000+00001753+00000+0001T   00001753+0000001246          1400 DF5150               2AZ
817291007817291903-003075     817291003800065783125SWT CHOC FAFL WAFER 52g0000001000+00000876+00000+0001T   00000876+0000001246          1400 DF5150               2AZ
817291008817291903-000121     817291006002099001689SWT GS ZILLIONS SOURS  0000001000+00000700+00000+0001T   00000700+0000001246          1400 DF5150               2AZ
817291009817291018-000127     817291006001023380289MUG OCC STRAIGHT LOVE  0000001000+00001578+00000+0001T   00001753+0006471246          1400 DF5515               2AZ
817291010817291077-000303     817291006001023593757GIFT-BAG PAPER MED     0000001000+00001578+00000+0001T   00001578+0000001246          1400 DF5112               2AZ
817291011817291304-001204     817291006001023737984FLOWER OCC. TEDDY/ROSES0000001000+00001402+00000+0001T   00001490+0006471246          1400 DF5510               2AZ
817291012817291018-000129     817291006001023403353MUG OCC. LOVE V-SHAPE  0000001000+00002630+00000+0001T   00002630+0000001246          1400 DF5515               2AZ
817291013817291112-116069     817291006003000535064TCS CARRIER BAG JUMBO  0000001000+00000048+00000+0001T   00000048+0000001246          1400 DF5090               2AZ
817292000817292               817292               170213GW     1400+00000+GW0000004385+0000004385+000000000+000000614+0000004990+0000000009+I20000000000+0000004990+Z
817292001817292030-000031-A   817292006003000457588PLAQUE W/WORDS ASSTD   0000001000+00004385+00000+0001T   00004823+0006471247          1400 DF5505               2AZ
817293000817293               817293               170213GW     1400+00000+GW0000011750+0000011750+000000000+000001647+0000013390+0000000007+I20000000000+0000013390+Z
817293001817293039-000624     817293006003000054923C/SET 4PC PILLARS 5X8CM0000001000+00007016+00000+0001T   00007016+0000001251          1400 DF5510               2AZ
817293002817293039-081008     817293006008766081008CANDLES 9PCE SCENTED   0000001000+00002630+00000+0001T   00002630+0000001251          1400 DF5510               2AZ
817293003817293903-000095     817293006001704011495SWT SPECKLED-EGGS 100G 0000001000+00002104+00000+0001T   00002104+0000001251          1400 DF5150               2AZ
817294000817294               817294               170213GW     1400+00000+GW0000000876+0000000876+000000000+000000123+0000000990+0000000009+I20000000000+0000000990+Z
817294001817294039-000319-2   817294006003000442508B/CANDLES LRG NUMBER-2 0000001000+00000876+00000+0001T   00000876+0000001253          1400 DF5510               2AZ
817295000817295               817295               170213GW     1400+00000+GW0000011279+0000011279+000000000+000001602+0000012880+0000000001+I20000000000+0000012880+Z
817295001817295112-116069     817295006003000535064TCS CARRIER BAG JUMBO  0000001000+00000048+00000+0001T   00000048+0000001318          1400 DF5090               2AZ
817295002817295903-000183     817295006003000451043SWT LB HEART LOLLY     0000023000+00000393+00000+0001T   00000393+0000001318          1400 DF5150               2AZ
817295003817295566-000359     817295006003000582709STICKER BOOK LOVE SPARK0000001000+00002192+00000+0001T   00002192+0000001318          1400 DF5130               2AZ
817296000817296               817296               170213GW     1400+00000+GW0000021005+0000021005+000000000+000002944+0000023940+0000000009+I20000000000+0000023940+Z
817296001817296112-116069     817296006003000535064TCS CARRIER BAG JUMBO  0000001000+00000048+00000+0001T   00000048+0000001331          1400 DF5090               2AZ
817296002817296566-000302     817296006003000444281GLOW IN THE DARK ROOM D0000001000+00007016+00000+0001T   00007016+0000001331          1400 DF5130               2AZ
817296003817296567-007951     817296009781775782452LHA BABA SE KLEIN PIENK0000001000+00007016+00000+0001T   00007016+0000001331          1400 DF5757               2AZ
817296004817296079-014153     817296006003000253166ART+CRAFT DRAGON PK6   0000001000+00002630+00000+0001T   00002630+0000001331          1400 DF5130               2AZ
817296005817296034-078821     817296006003000621668BABY HANGERS PL 3PC    0000001000+00003507+00000+0001T   00003507+0000001331          1400 DF5215               2AZ
817296006817296036-000149     817296006001246675193COATHANGERS ANIMAL 3PCE0000001000+00000788+00000+0001T   00000788+0000001331          1400 DF5212               2AZ
817297000817297               817297               170213GW     1400+00000+GW0000012850+0000012850+000000000+000001801+0000014651+0000000000+I40000014651+0000000000+Z
817297001817297112-116069     817297006003000535064TCS CARRIER BAG JUMBO  0000001000+00000048+00000+0001T   00000048+0000001335          1400 DF5090               2AZ
817297002817297174-000173     817297006001023905307STORAGE-BOX COLLAPSIBLE0000001000+00004385+00000+0001T   00004385+0000001335          1400 DF5205               2AZ
817297003817297174-000176     817297006001023759351STORAGE W/HNDLE RECT   0000001000+00005262+00000+0001T   00007016+0008171335          1400 DF5205               2AZ
817297004817297033-000124     817297006009654960597COMBS HANDLE + TAIL 2PC0000001000+00001051+00000+0001T   00001051+0000001335          1400 DF5200               2AZ
817297005817297903-000095     817297006001704011495SWT SPECKLED-EGGS 100G 0000001000+00002104+00000+0001T   00002104+0000001335          1400 DF5150               2AZ
817298000817298               817298               170213GW     1400+00000+GW0000001753+0000001753+000000000+000000246+0000001990+0000000009+I20000000000+0000001990+Z
817298001817298077-000299-A   817298006003000670888GIFT-BAG PAPER JMB LOVE0000001000+00001753+00000+0001T   00001753+0000001347          1400 DF5112               2AZ
817299000817299               817299               170213GW     1400+00000+GW0000003542+0000003542+000000000+000000496+0000004030+0000000008+I20000000000+0000004030+Z
817299001817299084-000364     817299006001023624581MANICURE-SET 7PCE LTHR 0000001000+00003507+00000+0001T   00003507+0000001353          1400 DF5200               2AZ
817299002817299112-116038     817299006003000534906TCS CARRIER BAG MIDI   0000001000+00000035+00000+0001T   00000035+0000001353          1400 DF5090               2AZ
817300000817300               817300               170213GW     1400+00000+GW0000001400+0000001400+000000000+000000196+0000001590+0000000006+I20000000000+0000001590+Z
817300001817300018-000177     817300006001023797513MUG MINI LOVE ASSTD    0000002000+00000700+00000+0001T   00000700+0000001422          1400 DF5515               2AZ
817301000817301               817301               170213GW     1400+00000+GW0000001227+0000001227+000000000+000000172+0000001399+0000000000+I40000001399+0000000000+Z
817301001817301071-001004     817301006001023439154PENCIL-SHARPENER       0000001000+00001227+00000+0001T   00001227+0000001427          1400 DF5130               2AZ
817302000817302               817302               170213GW     1400+00000+GW0000039450+0000039450+000000000+000005535+0000044980+0000000005+I20000000000+0000044980+Z
817302001817302366-006103     817302006001023786944DRESS UP FACE PAINT SET0000015000+00002630+00000+0001T   00002630+0000001428          1400 DF5131               2AZ
817303000817303               817303               170213GW     1400+00000+GW0000000048+0000000048+000000000+000000007+0000000050+0000000005+I20000000000+0000000050+Z
817303001817303112-116069     817303006003000535064TCS CARRIER BAG JUMBO  0000001000+00000048+00000+0001T   00000048+0000001429          1400 DF5090               2AZ
817304000817304               817304               170213GW     1400+00000+GW0000013284+0000013284+000000000+000001862+0000015140+0000000006+I20000000000+0000015140+Z
817304001817304267-000182     817304006003000390274PUZZLE 24pc ASSTD      0000001000+00004385+00000+0001T   00004385+0000001440          1400 DF5755               2AZ
817304002817304071-000012     817304006001177101006CHALK COLOUR 12PCE     0000001000+00000481+00000+0001T   00000481+0000001440          1400 DF5130               2AZ
817304003817304007-010504     817304006002923014960BLACKBOARD EASEL       0000001000+00007893+00000+0001T   00007893+0000001440          1400 DF5130               2AZ
817304004817304903-000155     817304006009803374435SWT LOLLY I LUV U HEART0000001000+00000525+00000+0001T   00000525+0000001440          1400 DF5150               2AZ
817305000817305               817305               170213GW     1400+00000+GW0000000876+0000000876+000000000+000000123+0000000990+0000000009+I20000000000+0000000990+Z
817305001817305083-000295     817305006001023898562LIGHTER-GAS BUTANE 18ml0000001000+00000876+00000+0001T   00000876+0000001518          1400 DF5315               2AZ
817306000817306               817306               170213GW     1400+00000+GW0000004384+0000004384+000000000+000000614+0000004998+0000000000+I40000004998+0000000000+Z
817306001817306566-000991     817306000721129013121STICKERS GLOW-IN-DARK  0000002000+00002192+00000+0001T   00002192+0000001520          1400 DF5130               2AZ
817307000817307               817307               170213GW     1400+00000+GW0000002452+0000002452+000000000+000000344+0000002790+0000000006+I20000000000+0000002790+Z
817307001817307304-001011     817307006001023806727FLWR ROSE RED W/BEAR   0000004000+00000613+00000+0001T   00000788+0006471521          1400 DF5510               2AZ
817308000817308               817308               170213GW     1400+00000+GW0000007501+0000007501+000000000+000001051+0000008552+0000000000+I40000008552+0000000000+Z
817308001817308077-000304     817308006001023483232GIFT-BAG 25X32CM E/DAY 0000001000+00001490+00000+0001T   00001490+0000001523          1400 DF5112               2AZ
817308002817308368-000001     817308006003000097982Plush Bear 25cm        0000001000+00004385+00000+0001T   00004385+0000001523          1400 DF5745               2AZ
817308003817308018-000127     817308006001023380289MUG OCC STRAIGHT LOVE  0000001000+00001578+00000+0001T   00001753+0006471523          1400 DF5515               2AZ
817308004817308112-116069     817308006003000535064TCS CARRIER BAG JUMBO  0000001000+00000048+00000+0001T   00000048+0000001523          1400 DF5090               2AZ
817309000817309               817309               170213GW     1400+00000+GW0000005308+0000005308+000000000+000000744+0000006050+0000000002+I20000000000+0000006050+Z
817309001817309112-116069     817309006003000535064TCS CARRIER BAG JUMBO  0000001000+00000048+00000+0001T   00000048+0000001529          1400 DF5090               2AZ
817309002817309036-000515     817309006001023817402HOOK-HANGER PL-CTD 10HK0000001000+00003507+00000+0001T   00003507+0000001529          1400 DF5212               2AZ
817309003817309084-000889     817309006003000293674NAIL FILE EMERY 18CM   0000001000+00001753+00000+0001T   00001753+0000001529          1400 DF5200               2AZ
817310000817310               817310               170213GW     1400+00000+GW0000001314+0000001314+000000000+000000184+0000001490+0000000008+I20000000000+0000001490+Z
817310001817310362-000307     817310006003000519750HAIR HEADBAND PRINTED  0000001000+00001314+00000+0001T   00001314+0000001529          1400 DF5160               2AZ
817311000817311               817311               170213GW     1400+00000+GW0000014909+0000014909+000000000+000002089+0000016998+0000000000+I40000016998+0000000000+Z
817311001817311464-003002     817311006003000328550GAME THINK:CHESS KIDS  0000001000+00012279+00000+0001T   00012279+0000001535          1400 DF5785               2AZ
817311002817311079-001002     817311006003000448715CANVAS A4 WOOD MOUNTED 0000001000+00002630+00000+0001T   00002630+0000001535          1400 DF5130               2AZ
817312000817312               817312               170213GW     1400+00000+GW0000009384+0000009384+000000000+000001314+0000010690+0000000008+I20000000000+0000010690+Z
817312001817312368-000012     817312006003000610464PLUSH BEAR 30cm SITTING0000001000+00008771+00000+0001T   00008771+0000001536          1400 DF5745               2AZ
817312002817312304-001011     817312006001023806727FLWR ROSE RED W/BEAR   0000001000+00000613+00000+0001T   00000788+0006471536          1400 DF5510               2AZ
817313000817313               817313               170213GW     1400+00000+GW0000004385+0000004385+000000000+000000614+0000004990+0000000009+I20000000000+0000004990+Z
817313001817313082-000115     817313006003000360604READING GLS STRNGHT:2.50000001000+00004385+00000+0001T   00004385+0000001536          1400 DF5160               2AZ
817314000817314               817314               170213GW     1400+00000+GW0000002630+0000002630+000000000+000000369+0000002990+0000000009+I20000000000+0000002990+Z
817314001817314104-000131     817314006003000676996BASKET/ORGANISER ROUND 0000001000+00002630+00000+0001T   00002630+0000001537          1400 DF5210               2AZ
817315000817315               817315               170213GW     1400+00000+GW0000006187+0000006187+000000000+000000867+0000007050+0000000004+I20000000000+0000007050+Z
817315001817315018-050000     817315006003000412679MUG OCC LOVE TWIN BEAR 0000001000+00006139+00000+0001T   00006139+0000001539          1400 DF5515               2AZ
817315002817315112-116069     817315006003000535064TCS CARRIER BAG JUMBO  0000001000+00000048+00000+0001T   00000048+0000001539          1400 DF5090               2AZ
817316000817316               817316               170213GW     1400+00000+GW0000003243+0000003243+000000000+000000455+0000003698+0000000000+I40000003698+0000000000+Z
817316001817316077-000380     817316006003000247585GIFT-BAG 33X45CM S/COL 0000001000+00002455+00000+0001T   00002455+0000001605          1400 DF5112               2AZ
817316002817316077-000010-D   817316006001023123886CREPE-PAPER WHITE      0000001000+00000788+00000+0001T   00000788+0000001605          1400 DF5112               2AZ
817317000817317               817317               170213GW     1400+00000+GW0000003506+0000003506+000000000+000000492+0000003998+0000000000+I40000003998+0000000000+Z
817317001817317077-000115-B   817317006003000181025GIFT-WRAP PPR 700MMX2M 0000001000+00002630+00000+0001T   00002630+0000001609          1400 DF5112               2AZ
817317002817317071-005213     817317006001023690371CELLOTAPE 12mmx33m     0000001000+00000876+00000+0001T   00000876+0000001609          1400 DF5130               2AZ
817318000817318               817318               170213GW     1400+00000+GW0000003242+0000003242+000000000+000000455+0000003690+0000000007+I20000000000+0000003690+Z
817318001817318366-007600     817318006001023902184MASK THEATRICAL GLITTER0000001000+00001753+00000+0001T   00001753+0000001647          1400 DF5131               2AZ
817318002817318027-078282     817318006001023767837SCOURER 25g SPIRAL-BALL0000001000+00000613+00000+0001T   00000613+0000001647          1400 DF5212               2AZ
817318003817318903-000482     817318006001704001397SWT SOFT-MINTS 60G     0000001000+00000876+00000+0001T   00000876+0000001647          1400 DF5150               2AZ
817319000817319               817319               170213GW     1400+00000+GW0000001050+0000001050+000000000+000000148+0000001190+0000000008+I20000000000+0000001190+Z
817319001817319903-000155     817319006009803374435SWT LOLLY I LUV U HEART0000002000+00000525+00000+0001T   00000525+0000001648          1400 DF5150               2AZ
817320000817320               817320               170213GW     1400+00000+GW0000016359+0000016359+000000000+000002291+0000018650+0000000000+I20000000000+0000018650+Z
817320001817320112-116069     817320006003000535064TCS CARRIER BAG JUMBO  0000001000+00000048+00000+0001T   00000048+0000001652          1400 DF5090               2AZ
817320002817320077-000303     817320006001023593757GIFT-BAG PAPER MED     0000002000+00001578+00000+0001T   00001578+0000001652          1400 DF5112               2AZ
817320003817320368-000049     817320006003000536955PLUSH BEAR 15cm LOVE   0000002000+00004385+00000+0001T   00004385+0000001652          1400 DF5745               2AZ
817320004817320162-097719     817320006001492977195#TAG NECKLACE          0000001000+00004385+00000+0001T   00004385+0000001652          1400 DF5160               2AZ
817321000817321               817321               170213GW     1400+00000+GW0000002192+0000002192+000000000+000000307+0000002490+0000000009+I20000000000+0000002490+Z
817321001817321089-000225     817321006003000622290KEY CHAIN RELIGIOUS    0000001000+00002192+00000+0001T   00002192+0000001656          1400 DF5205               2AZ
817322000817322               817322               170213GW     1400+00000+GW0000001788+0000001788+000000000+000000251+0000002039+0000000000+I40000002039+0000000000+Z
817322001817322366-007600     817322006001023902184MASK THEATRICAL GLITTER0000001000+00001753+00000+0001T   00001753+0000001658          1400 DF5131               2AZ
817322002817322112-116038     817322006003000534906TCS CARRIER BAG MIDI   0000001000+00000035+00000+0001T   00000035+0000001658          1400 DF5090               2AZ
817323000817323               817323               170213GW     1400+00000+GW0000005295+0000005295+000000000+000000742+0000006030+0000000007+I20000000000+0000006030+Z
817323001817323112-116038     817323006003000534906TCS CARRIER BAG MIDI   0000001000+00000035+00000+0001T   00000035+0000001700          1400 DF5090               2AZ
817323002817323077-000303     817323006001023593757GIFT-BAG PAPER MED     0000001000+00001578+00000+0001T   00001578+0000001700          1400 DF5112               2AZ
817323003817323080-000124     817323006003000297733CARD & ENV VALENTINES  0000001000+00001578+00000+0001T   00001578+0000001700          1400 DF5112               2AZ
817323004817323903-000095     817323006001704011495SWT SPECKLED-EGGS 100G 0000001000+00002104+00000+0001T   00002104+0000001700          1400 DF5150               2AZ
817324000817324               817324               170213GW     1400+00000+GW0000005259+0000005259+000000000+000000738+0000005990+0000000007+I20000000000+0000005990+Z
817324001817324466-000200     817324006001023621665HULA-HOOP     ASSTD    0000002000+00001753+00000+0001T   00001753+0000001701          1400 DF5785               2AZ
817324002817324466-000109     817324006003000612345BALL RAINBOW DESIGN    0000001000+00001753+00000+0001T   00001753+0000001701          1400 DF5785               2AZ
817325000817325               817325               170213GW     1400+00000+GW0000014911+0000014911+000000000+000002088+0000016999+0000000000+I40000016999+0000000000+Z
817325001817325495-058802     817325000078257588022CHAIR 160x85cm LOUNGER 0000001000+00014911+00000+0001T   00014911+0000001705          1400 DF5787               2AZ
817326000817326               817326               170213GW     1400+00000+GW0000004338+0000004338+000000000+000000611+0000004949+0000000000+I40000004949+0000000000+Z
817326001817326077-000289     817326006001023901996GIFT BOX 20x25x11cm    0000001000+00001753+00000+0001T   00001753+0000001708          1400 DF5112               2AZ
817326002817326112-116069     817326006003000535064TCS CARRIER BAG JUMBO  0000001000+00000048+00000+0001T   00000048+0000001708          1400 DF5090               2AZ
817326003817326903-000155     817326006009803374435SWT LOLLY I LUV U HEART0000004000+00000525+00000+0001T   00000525+0000001708          1400 DF5150               2AZ
817326004817326080-000133-A   817326006003000647019MINI VALENTINES CARD   0000001000+00000437+00000+0001T   00000437+0000001708          1400 DF5112               2AZ
817327000817327               817327               170213GW     1400+00000+GW0000007016+0000007016+000000000+000000983+0000007990+0000000009+I20000000000+0000007990+Z
817327001817327267-000905     817327006003000636211PUZZLE FLOOR JIGSAW    0000001000+00007016+00000+0001T   00007016+0000001709          1400 DF5755               2AZ
817328000817328               817328               170213GW     1400+00000+GW0000006187+0000006187+000000000+000000867+0000007050+0000000004+I20000000000+0000007050+Z
817328001817328133-003245     817328006003000419074IRON BRD COVER 122x38cm0000001000+00006139+00000+0001T   00006139+0000001710          1400 DF5212               2AZ
817328002817328112-116069     817328006003000535064TCS CARRIER BAG JUMBO  0000001000+00000048+00000+0001T   00000048+0000001710          1400 DF5090               2AZ
817329000817329               817329               170213GW     1400+00000+GW0000009516+0000009516+000000000+000001333+0000010840+0000000009+I20000000000+0000010840+Z
817329001817329112-116069     817329006009681820277TCS CARRIER BAG JUMBO  0000001000+00000048+00000+0001T   00000048+0000001715          1400 DF5090               2AZ
817329002817329018-000127     817329006001023380289MUG OCC STRAIGHT LOVE  0000006000+00001578+00000+0001T   00001753+0006471715          1400 DF5515               2AZ
817330000817330               817330               170213GW     1400+00000+GW0000008806+0000008806+000000000+000001233+0000010039+0000000000+I40000010039+0000000000+Z
817330001817330001-091415     817330006003000329113W/GLS OCC. LOVE 2PC 2800000001000+00008771+00000+0001T   00009648+0006471717          1400 DF5515               2AZ
817330002817330112-116038     817330006003000534906TCS CARRIER BAG MIDI   0000001000+00000035+00000+0001T   00000035+0000001717          1400 DF5090               2AZ
817331000817331               817331               170213GW     1400+00000+GW0000002192+0000002192+000000000+000000307+0000002490+0000000009+I20000000000+0000002490+Z
817331001817331080-000127     817331006003000424351VALENTINES DAY 36x24CM 0000001000+00002192+00000+0001T   00002192+0000001719          1400 DF5112               2AZ
817332000817332               817332               170213GW     1400+00000+GW0000000876+0000000876+000000000+000000123+0000000990+0000000009+I20000000000+0000000990+Z
817332001817332077-000408     817332006003000145218G/BAG PP 15X21X7CM     0000001000+00000876+00000+0001T   00000876+0000001719          1400 DF5112               2AZ
817333000817333               817333               170213GW     1400+00000+GW0000002630+0000002630+000000000+000000369+0000002990+0000000009+I20000000000+0000002990+Z
817333001817333079-000270     817333006001023886071ARTIST APRON-SET 3PCE  0000001000+00002630+00000+0001T   00002630+0000001724          1400 DF5130               2AZ
817334000817334               817334               170213GW     1400+00000+GW0000002717+0000002717+000000000+000000381+0000003090+0000000008+I20000000000+0000003090+Z
817334001817334566-000506     817334006001023671455TATTOO BODY STICKER    0000001000+00001578+00000+0001T   00001578+0000001728          1400 DF5130               2AZ
817334002817334903-000087     817334006001704000161SWT SPECKLED-EGGS 50G  0000001000+00001139+00000+0001T   00001139+0000001728          1400 DF5150               2AZ
817335000817335               817335               170213GW     1400+00000+GW0000004420+0000004420+000000000+000000619+0000005039+0000000000+I40000005039+0000000000+Z
817335001817335031-000001-A   817335006003000246908P/FRAME GLS LOVE 9X13cm0000001000+00004385+00000+0001T   00004385+0000001730          1400 DF5510               2AZ
817335002817335112-116038     817335006009681820246TCS CARRIER BAG MIDI   0000001000+00000035+00000+0001T   00000035+0000001730          1400 DF5090               2AZ
817336000817336               817336               170213GW     1400+00000+GW0000002190+0000002190+000000000+000000308+0000002490+0000000008+I20000000000+0000002490+Z
817336001817336077-000309     817336006001023608604GIFT-BAG 25X32CM GLOSS 0000001000+00001753+00000+0001T   00001753+0000001731          1400 DF5112               2AZ
817336002817336080-000133-A   817336006003000647019MINI VALENTINES CARD   0000001000+00000437+00000+0001T   00000437+0000001731          1400 DF5112               2AZ
817337000817337               817337               170213GW     1400+00000+GW0000008800+0000008800+000000000+000001235+0000010030+0000000005+I20000000000+0000010030+Z
817337001817337112-116038     817337006003000534906TCS CARRIER BAG MIDI   0000001000+00000035+00000+0001T   00000035+0000001734          1400 DF5090               2AZ
817337002817337006-000804     817337006003000574445STREAMERS 6-ROLLS 2.5cm0000001000+00001753+00000+0001T   00001753+0000001734          1400 DF5131               2AZ
817337003817337006-000120     817337006001023346889BALLOONS 10PC MIX COL  0000002000+00001753+00000+0001T   00001753+0000001734          1400 DF5131               2AZ
817337004817337006-000114     817337006003000671939BALLOONS W/BOMBS 100PCE0000002000+00001753+00000+0001T   00001753+0000001734          1400 DF5131               2AZ
817338000817338               817338               170213GW     1400+00000+GW0000006185+0000006185+000000000+000000867+0000007052+0000000000+I40000007052+0000000000+Z
817338001817338079-000600     817338006003000160990ART-SHEETS FOAM ASSTD-C0000001000+00003507+00000+0001T   00003507+0000001736          1400 DF5130               2AZ
817338002817338058-000061     817338006001023759597KNIFE SNAPOFF+5PCE BLDE0000001000+00002630+00000+0001T   00002630+0000001736          1400 DF5840               2AZ
817338003817338112-116069     817338006003000535064TCS CARRIER BAG JUMBO  0000001000+00000048+00000+0001T   00000048+0000001736          1400 DF5090               2AZ
817339000817339               817339               170213GW     1400+00000+GW0000008274+0000008274+000000000+000001160+0000009434+0000000000+I40000009434+0000000000+Z
817339001817339112-116038     817339006003000534906TCS CARRIER BAG MIDI   0000001000+00000035+00000+0001T   00000035+0000001738          1400 DF5090               2AZ
817339002817339079-006494     817339006003000159864GLITTER GLUE 5PCE 11cm 0000001000+00001490+00000+0001T   00001490+0000001738          1400 DF5130               2AZ
817339003817339071-001010     817339006001023893314MARKERS-METALIC 3PCE   0000001000+00003507+00000+0001T   00003507+0000001738          1400 DF5130               2AZ
817339004817339071-001012     817339006001023474445MARKERS BLACK ROUND    0000001000+00000876+00000+0001T   00000876+0000001738          1400 DF5130               2AZ
817339005817339071-001019     817339006001023474513MARKER BLACK NAME-PEN  0000001000+00000876+00000+0001T   00000876+0000001738          1400 DF5130               2AZ
817339006817339071-005214     817339006003000152544CELLOTAPE SUPER REFILL 0000001000+00001490+00000+0001T   00001490+0000001738          1400 DF5130               2AZ
817340000817340               817340               170213GW     1400+00000+GW0000024558+0000024558+000000000+000003440+0000027998+0000000000+I40000027998+0000000000+Z
817340001817340562-088357     817340006001023873392EVA CARPET 56x56x0.9cm 0000002000+00012279+00000+0001T   00012279+0000001739          1400 DF5755               2AZ
817341000817341               817341               170213GW     1400+00000+GW0000001801+0000001801+000000000+000000253+0000002050+0000000004+I20000000000+0000002050+Z
817341001817341466-000109     817341006003000612345BALL RAINBOW DESIGN    0000001000+00001753+00000+0001T   00001753+0000001740          1400 DF5785               2AZ
817341002817341112-116069     817341006003000535064TCS CARRIER BAG JUMBO  0000001000+00000048+00000+0001T   00000048+0000001740          1400 DF5090               2AZ
817342000817342               817342               170213GW     1400+00000+GW0000001801+0000001801+000000000+000000253+0000002050+0000000004+I20000000000+0000002050+Z
817342001817342077-000290     817342006001023902023GIFT BOX 26x32x13cm    0000001000+00001753+00000+0001T   00001753+0000001741          1400 DF5112               2AZ
817342002817342112-116069     817342006003000535064TCS CARRIER BAG JUMBO  0000001000+00000048+00000+0001T   00000048+0000001741          1400 DF5090               2AZ
817343000817343               817343               170213GW     1400+00000+GW0000000876+0000000876+000000000+000000123+0000000990+0000000009+I20000000000+0000000990+Z
817343001817343077-000011-D   817343006001023808554TISSUE-WRAP WHITE 10PCE0000001000+00000876+00000+0001T   00000876+0000001743          1400 DF5112               2AZ
817344000817344               817344               170213GW     1400+00000+GW0000001490+0000001490+000000000+000000209+0000001690+0000000009+I20000000000+0000001690+Z
817344001817344077-000299     817344006003000395576G/BAG 32x25cm LRG LOVE 0000001000+00001490+00000+0001T   00001490+0000001744          1400 DF5112               2AZ
817345000817345               817345               170213GW     1400+00000+GW0000005085+0000005085+000000000+000000712+0000005790+0000000007+I20000000000+0000005790+Z
817345001817345077-000303     817345006001023593757GIFT-BAG PAPER MED     0000001000+00001578+00000+0001T   00001578+0000001748          1400 DF5112               2AZ
817345002817345018-005009     817345006001023725608MUG W/PLUSH-BEAR LOVE  0000001000+00003507+00000+0001T   00003507+0000001748          1400 DF5515               2AZ
817346000817346               817346               170213GW     1400+00000+GW0000017795+0000017795+000000000+000002495+0000020290+0000000000+I20000000000+0000020290+Z
817346001817346077-000299-A   817346006003000670888GIFT-BAG PAPER JMB LOVE0000001000+00001753+00000+0001T   00001753+0000001750          1400 DF5112               2AZ
817346002817346001-091415     817346006003000329113W/GLS OCC. LOVE 2PC 2800000001000+00008771+00000+0001T   00009648+0006471750          1400 DF5515               2AZ
817346003817346018-000129     817346006001023403353MUG OCC. LOVE V-SHAPE  0000001000+00002630+00000+0001T   00002630+0000001750          1400 DF5515               2AZ
817346004817346018-000177     817346006001023797513MUG MINI LOVE ASSTD    0000002000+00000700+00000+0001T   00000700+0000001750          1400 DF5515               2AZ
817346005817346080-000133-A   817346006003000647019MINI VALENTINES CARD   0000001000+00000437+00000+0001T   00000437+0000001750          1400 DF5112               2AZ
817346006817346304-001204     817346006001023737984FLOWER OCC. TEDDY/ROSES0000002000+00001402+00000+0001T   00001490+0006471750          1400 DF5510               2AZ
817347000817347               817347               170213GW     1400+00000+GW0000007501+0000007501+000000000+000001051+0000008552+0000000000+I40000008552+0000000000+Z
817347001817347112-116069     817347006003000535064TCS CARRIER BAG JUMBO  0000001000+00000048+00000+0001T   00000048+0000001754          1400 DF5090               2AZ
817347002817347497-068614     817347000078257686148H/PUMP HIGH-O/PUT 36cm 0000001000+00006139+00000+0001T   00006139+0000001754          1400 DF5787               2AZ
817347003817347089-000098     817347006003000677443KEY CHAIN OPENER ASSTD 0000001000+00001314+00000+0001T   00001314+0000001754          1400 DF5205               2AZ
817348000817348               817348               170213GW     1400+00000+GW0000003069+0000003069+000000000+000000430+0000003490+0000000009+I20000000000+0000003490+Z
817348001817348079-000271     817348006003000160082PAINT-BRUSHES LRGE ART 0000001000+00003069+00000+0001T   00003069+0000001754          1400 DF5130               2AZ
817349000817349               817349               170213GW     1400+00000+GW0000007312+0000007312+000000000+000001025+0000008330+0000000007+I20000000000+0000008330+Z
817349001817349112-116038     817349006003000534906TCS CARRIER BAG MIDI   0000001000+00000035+00000+0001T   00000035+0000001758          1400 DF5090               2AZ
817349002817349071-001005     817349006001023558169PENCIL-SHARPENER DOUBLE0000001000+00001578+00000+0001T   00001578+0000001758          1400 DF5130               2AZ
817349003817349071-001124     817349006001023802873MARKERS WHITEBOARD 3PCE0000001000+00002630+00000+0001T   00002630+0000001758          1400 DF5130               2AZ
817349004817349071-008222     817349006003000418459P/BAG CANVAS ASSTD COL 0000001000+00003069+00000+0001T   00003069+0000001758          1400 DF5130               2AZ
817350000817350               817350               170213GW     1400+00000+GW0000005435+0000005435+000000000+000000762+0000006197+0000000000+I40000006197+0000000000+Z
817350001817350080-000127     817350006003000424351VALENTINES DAY 36x24CM 0000001000+00002192+00000+0001T   00002192+0000001800          1400 DF5112               2AZ
817350002817350077-000316     817350006001023609731GIFT-BAG 25X32CM MATT  0000001000+00001753+00000+0001T   00001753+0000001800          1400 DF5112               2AZ
817350003817350077-000299     817350006003000395576G/BAG 32x25cm LRG LOVE 0000001000+00001490+00000+0001T   00001490+0000001800          1400 DF5112               2AZ
817351000817351               817351               170213GW     1400+00000+GW0000000437+0000000437+000000000+000000062+0000000490+0000000009+I20000000000+0000000490+Z
817351001817351080-000133-A   817351006003000647019MINI VALENTINES CARD   0000001000+00000437+00000+0001T   00000437+0000001800          1400 DF5112               2AZ
817352000817352               817352               170213GW     1400+00000+GW0000003243+0000003243+000000000+000000455+0000003690+0000000008+I20000000000+0000003690+Z
817352001817352033-005903-B   817352006001023678164B/LACES FLAT 120cm ASST0000001000+00001490+00000+0001T   00001490+0000001800          1400 DF5200               2AZ
817352002817352077-000299-A   817352006003000670888GIFT-BAG PAPER JMB LOVE0000001000+00001753+00000+0001T   00001753+0000001800          1400 DF5112               2AZ
817353000817353               817353               170213GW     1400+00000+GW0000012327+0000012327+000000000+000001727+0000014054+0000000000+I40000014054+0000000000+Z
817353001817353368-000113     817353006001023780874PLUSH BLINGED LOVE 30cm0000001000+00012279+00000+0001T   00012279+0000001802          1400 DF5745               2AZ
817353002817353112-116069     817353006003000535064TCS CARRIER BAG JUMBO  0000001000+00000048+00000+0001T   00000048+0000001802          1400 DF5090               2AZ
817354000817354               817354               170213GW     1400+00000+GW0000001051+0000001051+000000000+000000148+0000001190+0000000009+I20000000000+0000001190+Z
817354001817354033-000125     817354006009654960658COMBS GENTS MINI 2PC   0000001000+00001051+00000+0001T   00001051+0000001803          1400 DF5200               2AZ
817355000817355               817355               170213GW     1400+00000+GW0000004385+0000004385+000000000+000000614+0000004990+0000000009+I20000000000+0000004990+Z
817355001817355082-000110     817355006003000360482READING GLS STRENGHT:2 0000001000+00004385+00000+0001T   00004385+0000001803          1400 DF5160               2AZ
817356000817356               817356               170213GW     1400+00000+GW0000013817+0000013817+000000000+000001936+0000015750+0000000003+I20000000000+0000015750+Z
817356001817356077-000299     817356006003000395576G/BAG 32x25cm LRG LOVE 0000001000+00001490+00000+0001T   00001490+0000001804          1400 DF5112               2AZ
817356002817356112-116069     817356006003000535064TCS CARRIER BAG JUMBO  0000001000+00000048+00000+0001T   00000048+0000001804          1400 DF5090               2AZ
817356003817356368-000111     817356006001023780812PLUSH BEAR/DOG 29CM    0000001000+00012279+00000+0001T   00012279+0000001804          1400 DF5745               2AZ
817357000817357               817357               170213GW     1400+00000+GW0000003803+0000003803+000000000+000000534+0000004330+0000000007+I20000000000+0000004330+Z
817357001817357080-000133-A   817357006003000647019MINI VALENTINES CARD   0000001000+00000437+00000+0001T   00000437+0000001809          1400 DF5112               2AZ
817357002817357566-001118     817357006003000682171STICKERS CELL PHONE    0000001000+00001753+00000+0001T   00001753+0000001809          1400 DF5130               2AZ
817357003817357112-116038     817357006003000534906TCS CARRIER BAG MIDI   0000001000+00000035+00000+0001T   00000035+0000001809          1400 DF5090               2AZ
817357004817357362-000302     817357006003000095469HAIR CLIP LRG GIRLS    0000001000+00001578+00000+0001T   00001578+0000001809          1400 DF5160               2AZ
817358000817358               817358               170213GW     1400+00000+GW0000007846+0000007846+000000000+000001100+0000008946+0000000000+I40000008946+0000000000+Z
817358001817358304-001204     817358006001023737984FLOWER OCC. TEDDY/ROSES0000001000+00001402+00000+0001T   00001490+0006471829          1400 DF5510               2AZ
817358002817358007-000614     817358006001023768667DIARY W/LOCK+PEN LOVE  0000001000+00005262+00000+0001T   00005262+0000001829          1400 DF5130               2AZ
817358003817358077-000309     817358006001023608604GIFT-BAG 25X32CM GLOSS 0000001000+00001753+00000+0001T   00001753+0000001829          1400 DF5112               2AZ
817358004817358903-000671     817358006009803358015SWT SHERBET BLUE LIPS  0000001000+00000218+00000+0001T   00000218+0000001829          1400 DF5150               2AZ
817358005817358304-001204     817358006001023737984FLOWER OCC. TEDDY/ROSES0000001000-00001402+00000+0001T   00001490+0006471829          1400 DF55102IC            2 Z
817358006817358304-001011     817358006001023806727FLWR ROSE RED W/BEAR   0000001000+00000613+00000+0001T   00000788+0006471829          1400 DF5510               2AZ
817359000817359               817359               170213GW     1400+00000+GW0000007016+0000007016+000000000+000000983+0000007999+0000000000+I40000007999+0000000000+Z
817359001817359560-000245     817359006001023622716RUBBER ANIMALS 10PC ASS0000001000+00007016+00000+0001T   00007016+0000001851          1400 DF5745               2AZ
817360000817360               817360               170213GW     1400+00000+GW0000001314+0000001314+000000000+000000184+0000001498+0000000000+I40000001498+0000000000+Z
817360001817360563-000317-B   817360006001023776174SERVIETTES PLN WHT PK400000001000+00001314+00000+0001T   00001314+0000001852          1400 DF5214               2AZ
817361000817361               817361               170213GW     1400+00000+GW0000003945+0000003945+000000000+000000553+0000004490+0000000008+I20000000000+0000004490+Z
817361001817361089-060027     817361006003000245871KEY-CHAIN HEART 6X6cm  0000001000+00003069+00000+0001T   00003069+0000001853          1400 DF5205               2AZ
817361002817361903-000520     817361006001704009898SWT GUMMY MINI SOUR 60g0000001000+00000876+00000+0001T   00000876+0000001853          1400 DF5150               2AZ
817362000817362               817362               170213GW     1400+00000+GW0000002800+0000002800+000000000+000000392+0000003190+0000000002+I20000000000+0000003190+Z
817362001817362018-000177     817362006001023797513MUG MINI LOVE ASSTD    0000004000+00000700+00000+0001T   00000700+0000001855          1400 DF5515               2AZ
817363000817363               817363               170213GW     1400+00000+GW0000007935+0000007935+000000000+000001114+0000009049+0000000000+I40000009049+0000000000+Z
817363001817363112-116069     817363006003000535064TCS CARRIER BAG JUMBO  0000001000+00000048+00000+0001T   00000048+0000001905          1400 DF5090               2AZ
817363002817363006-000812     817363006001023902832HAT CONE WITH TINSEL   0000003000+00000876+00000+0001T   00000876+0000001905          1400 DF5131               2AZ
817363003817363006-000124     817363006003000625888BALLOONS 10PC MIX COL  0000001000+00001753+00000+0001T   00001753+0000001905          1400 DF5131               2AZ
817363004817363006-000201-B   817363006003000601271PARTY BOYS DSGN A 8PC  0000001000+00001753+00000+0001T   00001753+0000001905          1400 DF5131               2AZ
817363005817363080-000109     817363006003000237203CARD&ENVLPE BDAY-BRIGHT0000001000+00001753+00000+0001T   00001753+0000001905          1400 DF5112               2AZ
A17021300                                          08473035GWSLAVE 2                       DF51IC
A17021301                                          09272596GWSLAVE 2                       DF52IC
A17021302                                          10211957GWSLAVE 2                       DF51IC
A17021303                                          13275658GWSLAVE 2                       DF52IC
M17021301                              IT          GWATTENTION:IT                                    LAST TILL SLIP ON SLAVE 2 WAS                   817363                                          WONDERPARK(GW)                                  THANKS
M17021391                              CASH        GWSLAVE 2                       Z-REPORT No.   622TOTAL (Sales - Refunds)           6823.49       CASH TO BE BANKED                 4081.00       DEBIT CARDS                          0.00       CREDIT CARDS                      2722.69       Z-READING                         6803.69       AIRTIME DEBIT CARD SALES             0.00       AIRTIME CARD SALES                   0.00       OVERS/UNDERS                         0.00       AIRTIME CASH SALES                   0.00       GIFT CARDS                           0.00       GIFT CARD CASH SALES                 0.00       MAINTENANCE+REPAIR-EQP               9.90       STATIONERY(PHOTOCOPIES)              9.90       T O T A L  CASH PAYOUTS             19.80                                                                                                                                                                                                                                                      Z
M17021392                              CASH        GWABSENT                                                                                                                                                                                          ANNUAL LEAVE                                                                                                                                                                                    DAY OFF                                                                                                                                                                                         COMMENTS                                                                                                                                                                                                                                                                                                                                                                                       Z
Y17021300                                          GW00000000608058+000094
ZGW17021319453 SLAVE 2      SALES DATA                     NEXT INVOICE NO.  817364 0622
X GW Slave 2 First invoice 817267 170213 Last invoice 817363 170213 Next invoice 817364 Total number of records 000000328 clbackup completed 19:45:02
