848411000848411               848411               170213GX     1400+00000+GX0000005295+0000005295+000000000+000000742+0000006030+0000000007+I20000000000+0000006030+Z
848411001848411567-011343     848411006003000630592BK COLOURING THERAPY   0000001000+00003507+00000+0001T   00003507+0000000900          1400 DL5757               1BZ
848411002848411079-000207     848411006003000639120COLORING SECRET GARDEN 0000001000+00001753+00000+0001T   00001753+0000000900          1400 DL5130               1BZ
848411003848411112-116038     848411006009681820246TCS CARRIER BAG MIDI   0000001000+00000035+00000+0001T   00000035+0000000900          1400 DL5090               1BZ
848412000848412               848412               170213GX     1400+00000+GX0000002190+0000002190+000000000+000000307+0000002490+0000000007+I20000000000+0000002490+Z
848412001848412007-000167     848412006009685857347SPIRAL NOTES A7 72PG   0000002000+00000350+00000+0001T   00000350+0000000901          1400 DL5130               1AZ
848412002848412007-000566     848412006003000640898NOVELTY PHONE NOTE-PAD 0000001000+00001490+00000+0001T   00001490+0000000901          1400 DL5130               1AZ
848413000848413               848413               170213GX     1400+00000+GX0000015778+0000015778+000000000+000002211+0000017980+0000000009+I20000000000+0000017980+Z
848413001848413903-004952     848413006002580020052SWT FREAKY FACES 100G  0000001000+00001314+00000+0001T   00001314+0000000906          1400 DL5150               1BZ
848413002848413903-005002     848413006002580020021SWT MALLOW SNAKE 120g  0000001000+00001314+00000+0001T   00001314+0000000906          1400 DL5150               1BZ
848413003848413903-005007     848413006002580020311SWT MALLOW BEAR M/SHAKE0000001000+00001314+00000+0001T   00001314+0000000906          1400 DL5150               1BZ
848413004848413903-005001     848413006002580020014SWT CT MALLOW MICE 120g0000001000+00001314+00000+0001T   00001314+0000000906          1400 DL5150               1BZ
848413005848413158-000021     848413006003000568628DISH RACK CHROME PLATED0000001000+00007016+00000+0001T   00007016+0000000906          1400 DL5300               1BZ
848413006848413016-006509     848413006003000567355S/JAR GLS MINI LABEL   0000002000+00001753+00000+0001T   00002192+0008190906          1400 DL5300               1BZ
848414000848414               848414               170213GX     1400+00000+GX0000005260+0000005260+000000000+000000738+0000005998+0000000000+I40000005998+0000000000+Z
848414001848414206-000620     848414006003000631797BACK SCRATCHER EXTEND  0000002000+00002630+00000+0001T   00002630+0000000909          1400 DL5321               1BZ
848415000848415               848415               170213GX     1400+00000+GX0000001314+0000001314+000000000+000000184+0000001490+0000000008+I20000000000+0000001490+Z
848415001848415903-004950     848415006002580020304SWT APRICOT SURPRISE   0000001000+00001314+00000+0001T   00001314+0000001001          1400 DL5150               1CZ
848416000848416               848416               170213GX     1400+00000+GX0000013026+0000013026+000000000+000001825+0000014850+0000000001+I20000000000+0000014850+Z
848416001848416104-000040     848416006001023846280BASKET HEART-SHAPED    0000001000+00001753+00000+0001T   00001753+0000001020          1400 DL5210               1CZ
848416002848416024-000003     848416006001023462206S/BURNER COVERS ASSTD  0000002000+00004385+00000+0001T   00004385+0000001020          1400 DL5300               1CZ
848416003848416112-116069     848416006009681820277TCS CARRIER BAG JUMBO  0000001000+00000048+00000+0001T   00000048+0000001020          1400 DL5090               1CZ
848416004848416104-000052     848416006003000450787BASKET PL 23x8x13cm    0000001000+00002455+00000+0001T   00002455+0000001020          1400 DL5210               1CZ
848417000848417               848417               170213GX     1400+00000+GX0000002190+0000002190+000000000+000000307+0000002490+0000000007+I20000000000+0000002490+Z
848417001848417107-004105     848417006002923010504BUCKET 9L OPEN         0000001000+00001314+00000+0001T   00001314+0000001033          1400 DL5210               1AZ
848417002848417047-000505     848417006009636901976PLUG-ADAPTOR 2-PIN     0000001000+00000876+00000+0001T   00000876+0000001033          1400 DL5880               1AZ
848418000848418               848418               170213GX     1400+00000+GX0000001753+0000001753+000000000+000000246+0000001990+0000000009+I20000000000+0000001990+Z
848418001848418078-000020     848418008887013700071YAMAYO CONTACT-CEMENT  0000001000+00001753+00000+0001T   00001753+0000001034          1400 DL5810               1AZ
848419000848419               848419               170213GX     1400+00000+GX0000006174+0000006174+000000000+000000865+0000007030+0000000009+I20000000000+0000007030+Z
848419001848419018-050000     848419006003000412679MUG OCC LOVE TWIN BEAR 0000001000+00006139+00000+0001T   00006139+0000001037          1400 DL5515               1DZ
848419002848419112-116038     848419006009681820246TCS CARRIER BAG MIDI   0000001000+00000035+00000+0001T   00000035+0000001037          1400 DL5090               1DZ
848420000848420               848420               170213GX     1400+00000+GX0000004856+0000004856+000000000+000000680+0000005530+0000000006+I20000000000+0000005530+Z
848420001848420018-000130     848420006001023867537MUG OCC LOVE MINI+HEART0000001000+00003507+00000+0001T   00003507+0000001038          1400 DL5515               1CZ
848420002848420077-000312     848420006001023608697GIFT-BAG 10X35CM GLOSS 0000001000+00001314+00000+0001T   00001314+0000001038          1400 DL5112               1CZ
848420003848420112-116038     848420006009681820246TCS CARRIER BAG MIDI   0000001000+00000035+00000+0001T   00000035+0000001038          1400 DL5090               1CZ
848421000848421               848421               170213GX     1400+00000+GX0000002452+0000002452+000000000+000000344+0000002790+0000000006+I20000000000+0000002790+Z
848421001848421007-000555     848421006001023848239MEMO-PAD MINI LOVE     0000004000+00000613+00000+0001T   00000613+0000001041          1400 DL5130               1AZ
848422000848422               848422               170213GX     1400+00000+GX0000001752+0000001752+000000000+000000246+0000001990+0000000008+I20000000000+0000001990+Z
848422001848422903-000482     848422006001704001397SWT SOFT-MINTS 60G     0000002000+00000876+00000+0001T   00000876+0000001050          1400 DL5150               1BZ
848423000848423               848423               170213GX     1400+00000+GX0000002192+0000002192+000000000+000000307+0000002490+0000000009+I20000000000+0000002490+Z
848423001848423046-000012-A   848423006003000208296BATTERIES H/POWER SZ:AA0000001000+00002192+00000+0001T   00002192+0000001053          1400 DL5312               1BZ
848424000848424               848424               170213GX     1400+00000+GX0000007628+0000007628+000000000+000001069+0000008690+0000000007+I20000000000+0000008690+Z
848424001848424368-000049     848424006003000536955PLUSH BEAR 15cm LOVE   0000001000+00004385+00000+0001T   00004385+0000001055          1400 DL5745               1BZ
848424002848424903-000095     848424006001704011495SWT SPECKLED-EGGS 100G 0000001000+00002104+00000+0001T   00002104+0000001055          1400 DL5150               1BZ
848424003848424565-000071     848424006003000643387NOVELTY WIND UP CHATTER0000001000+00001139+00000+0001T   00001139+0000001055          1400 DL5745               1BZ
848425000848425               848425               170213GX     1400+00000+GX0000006606+0000006606+000000000+000000928+0000007530+0000000004+I20000000000+0000007530+Z
848425001848425039-000026     848425006001023551610C/TAPERED 25CM M/RED   0000002000+00001051+00000+0001T   00001051+0000001101          1400 DL5510               1AZ
848425002848425071-000212     848425006009608641190CHALK WHITE 12PCE      0000001000+00000437+00000+0001T   00000437+0000001101          1400 DL5130               1AZ
848425003848425040-000213     848425006001023617736CANDLE-HOLDER DAISY    0000002000+00001227+00000+0001T   00001227+0000001101          1400 DL5510               1AZ
848425004848425077-000315     848425006003000181186GIFT-BAG 20x28cm MATT  0000001000+00001578+00000+0001T   00001578+0000001101          1400 DL5112               1AZ
848425005848425112-116038     848425006009681820246TCS CARRIER BAG MIDI   0000001000+00000035+00000+0001T   00000035+0000001101          1400 DL5090               1AZ
848426000848426               848426               170213GX     1400+00000+GX0000018850+0000018850+000000000+000002641+0000021490+0000000001+I20000000000+0000021490+Z
848426001848426301-085001     848426006003000297610ORN WATERBALL LOVE ASST0000002000+00004823+00000+0001T   00004823+0000001103          1400 DL5505               1DZ
848426002848426301-085003     848426006003000420827ORN OCCASION LOVE KEY  0000001000+00005262+00000+0001T   00005262+0000001103          1400 DL5505               1DZ
848426003848426903-000194     848426006009826020616SWT CHOC RP LOLLY 25G  0000003000+00001314+00000+0001T   00001314+0000001103          1400 DL5150               1DZ
848427000848427               848427               170213GX     1400+00000+GX0000005262+0000005262+000000000+000000737+0000005990+0000000009+I20000000000+0000005990+Z
848427001848427301-085003     848427006003000420827ORN OCCASION LOVE KEY  0000001000+00005262+00000+0001T   00005262+0000001114          1400 DL5505               1BZ
848428000848428               848428               170213GX     1400+00000+GX0000001314+0000001314+000000000+000000184+0000001490+0000000008+I20000000000+0000001490+Z
848428001848428563-000317-B   848428006001023776174SERVIETTES PLN WHT PK400000001000+00001314+00000+0001T   00001314+0000001115          1400 DL5214               1CZ
848429000848429               848429               170213GX     1400+00000+GX0000013156+0000013156+000000000+000001842+0000014998+0000000000+I40000014998+0000000000+Z
848429001848429368-000614     848429006001023705808PLUSH LOVE 30cm        0000001000+00008771+00000+0001T   00008771+0000001120          1400 DL5745               1AZ
848429002848429031-080508     848429006001023802415P/FRAME PL 22X11CM LOVE0000001000+00004385+00000+0001T   00004385+0000001120          1400 DL5510               1AZ
848430000848430               848430               170213GX     1400+00000+GX0000003593+0000003593+000000000+000000504+0000004090+0000000007+I20000000000+0000004090+Z
848430001848430077-000926     848430006003000414178G/WRAP 700mmx2m LOVE   0000001000+00002192+00000+0001T   00002192+0000001121          1400 DL5112               1AZ
848430002848430007-000555     848430006001023848239MEMO-PAD MINI LOVE     0000001000+00000613+00000+0001T   00000613+0000001121          1400 DL5130               1AZ
848430003848430903-000200     848430006009826020234SWT CHOC RP CHOCO 23G  0000001000+00000788+00000+0001T   00000788+0000001121          1400 DL5150               1AZ
848431000848431               848431               170213GX     1400+00000+GX0000006611+0000006611+000000000+000000927+0000007538+0000000000+I40000007538+0000000000+Z
848431001848431016-002010     848431006003000674480S/BOTTLE GLS W/CAP 1L  0000001000+00003946+00000+0001T   00003946+0000001123          1400 DL5300               1CZ
848431002848431016-002000     848431006003000674404S/BOTTLE GLS W/PL CAP  0000001000+00002630+00000+0001T   00002630+0000001123          1400 DL5300               1CZ
848431003848431112-116038     848431006009681820246TCS CARRIER BAG MIDI   0000001000+00000035+00000+0001T   00000035+0000001123          1400 DL5090               1CZ
848432000848432               848432               170213GX     1400+00000+GX0000003857+0000003857+000000000+000000541+0000004390+0000000008+I20000000000+0000004390+Z
848432001848432903-000095     848432006001704011495SWT SPECKLED-EGGS 100G 0000001000+00002104+00000+0001T   00002104+0000001123          1400 DL5150               1CZ
848432002848432004-078985     848432006003000093267EARPHONES MINI ASST COL0000001000+00001753+00000+0001T   00001753+0000001123          1400 DL5310               1CZ
848433000848433               848433               170213GX     1400+00000+GX0000004503+0000004503+000000000+000000632+0000005130+0000000005+I20000000000+0000005130+Z
848433001848433018-000127     848433006001023380289MUG OCC STRAIGHT LOVE  0000001000+00001578+00000+0001T   00001753+0006471125          1400 DL5515               1CZ
848433002848433903-000200     848433006009826020234SWT CHOC RP CHOCO 23G  0000002000+00000788+00000+0001T   00000788+0000001125          1400 DL5150               1CZ
848433003848433903-000194     848433006009826020616SWT CHOC RP LOLLY 25G  0000001000+00001314+00000+0001T   00001314+0000001125          1400 DL5150               1CZ
848433004848433112-116038     848433006009681820246TCS CARRIER BAG MIDI   0000001000+00000035+00000+0001T   00000035+0000001125          1400 DL5090               1CZ
848434000848434               848434               170213GX     1400+00000+GX0000001314+0000001314+000000000+000000184+0000001490+0000000008+I20000000000+0000001490+Z
848434001848434077-000310     848434006001023608635GIFT-BAG 18X23CM GLOSS 0000001000+00001314+00000+0001T   00001314+0000001127          1400 DL5112               1AZ
848435000848435               848435               170213GX     1400+00000+GX0000001753+0000001753+000000000+000000246+0000001990+0000000009+I20000000000+0000001990+Z
848435001848435046-002013-PK6 848435004897006174851BATTERY BUTTON AG13 6PC0000001000+00001753+00000+0001T   00001753+0000001128          1400 DL5312               1CZ
848436000848436               848436               170213GX     1400+00000+GX0000003507+0000003507+000000000+000000491+0000003990+0000000008+I20000000000+0000003990+Z
848436001848436133-000010-A   848436006001023997647CLEANING CLOTH ROLL 30 0000001000+00003507+00000+0001T   00003507+0000001130          1400 DL5212               1BZ
848437000848437               848437               170213GX     1400+00000+GX0000004030+0000004030+000000000+000000566+0000004590+0000000006+I20000000000+0000004590+Z
848437001848437039-000108     848437006001023524034TEA-LITE CANDLES 8PCE  0000002000+00001490+00000+0001T   00001490+0000001131          1400 DL5510               1AZ
848437002848437002-021040     848437006001023812216PARTY-PICKS 100PCE     0000002000+00000525+00000+0001T   00000525+0000001131          1400 DL5300               1AZ
848438000848438               848438               170213GX     1400+00000+GX0000003506+0000003506+000000000+000000492+0000003990+0000000008+I20000000000+0000003990+Z
848438001848438031-000868-B   848438006001023798565P/FRAME PL BLCK 13X18CM0000001000+00002630+00000+0001T   00002630+0000001210          1400 DL5510               1CZ
848438002848438903-000481     848438006001704007481SWT MOO MILK-SHAKES 60G0000001000+00000876+00000+0001T   00000876+0000001210          1400 DL5150               1CZ
848439000848439               848439               170213GX     1400+00000+GX0000009248+0000009248+000000000+000001298+0000010546+0000000000+I40000010546+0000000000+Z
848439001848439007-010504     848439006002923014960BLACKBOARD EASEL       0000001000+00007893+00000+0001T   00007893+0000001214          1400 DL5130               1CZ
848439002848439071-000012     848439006001177101006CHALK COLOUR 12PCE     0000001000+00000481+00000+0001T   00000481+0000001214          1400 DL5130               1CZ
848439003848439071-000212     848439006009608641190CHALK WHITE 12PCE      0000002000+00000437+00000+0001T   00000437+0000001214          1400 DL5130               1CZ
848440000848440               848440               170213GX     1400+00000+GX0000007454+0000007454+000000000+000001044+0000008498+0000000000+I40000008498+0000000000+Z
848440001848440077-000376     848440006003000444427GIFT-BAG 25X32CM 2PK   0000001000+00003069+00000+0001T   00003069+0000001218          1400 DL5112               1AZ
848440002848440368-000049     848440006003000536955PLUSH BEAR 15cm LOVE   0000001000+00004385+00000+0001T   00004385+0000001218          1400 DL5745               1AZ
848441000848441               848441               170213GX     1400+00000+GX0000001753+0000001753+000000000+000000246+0000001990+0000000009+I20000000000+0000001990+Z
848441001848441565-000055     848441006003000028252NOVELTY B/O FINGR-BEAMS0000001000+00001753+00000+0001T   00001753+0000001220          1400 DL5745               1CZ
848442000848442               848442               170213GX     1400+00000+GX0000001753+0000001753+000000000+000000246+0000001990+0000000009+I20000000000+0000001990+Z
848442001848442150-012228-H   848442006001023416773DOOR-STOPPERS SET-OF-2 0000001000+00001753+00000+0001T   00001753+0000001224          1400 DL5810               1CZ
848443000848443               848443               170213GX     1400+00000+GX0000003945+0000003945+000000000+000000553+0000004490+0000000008+I20000000000+0000004490+Z
848443001848443077-000309     848443006001023608604GIFT-BAG 25X32CM GLOSS 0000001000+00001753+00000+0001T   00001753+0000001225          1400 DL5112               1BZ
848443002848443080-000127     848443006003000424351VALENTINES DAY 36x24CM 0000001000+00002192+00000+0001T   00002192+0000001225          1400 DL5112               1BZ
848444000848444               848444               170213GX     1400+00000+GX0000014941+0000014941+000000000+000002093+0000017030+0000000004+I20000000000+0000017030+Z
848444001848444368-000175     848444006003000270316PLUSH BEAR 4 ASSTD 18CM0000002000+00006139+00000+0001T   00006139+0000001230          1400 DL5745               1AZ
848444002848444077-000310     848444006001023608635GIFT-BAG 18X23CM GLOSS 0000002000+00001314+00000+0001T   00001314+0000001230          1400 DL5112               1AZ
848444003848444112-116038     848444006009681820246TCS CARRIER BAG MIDI   0000001000+00000035+00000+0001T   00000035+0000001230          1400 DL5090               1AZ
848445000848445               848445               170213GX     1400+00000+GX0000000000+0000000000+000000000+000000000+0000000000+0000000000+I20000000000+0000000000+Z
848445001848445004-071215     848445006003000459360MOBILE SELFI STICK 80cm0000001000-00007016+00000+0001T   00007016+0000001237          1400 DL53102IC            1 Z
848445002848445004-071215     848445006003000459360MOBILE SELFI STICK 80cm0000001000+00007016+00000+0001T   00007016+0000001237          1400 DL53102IC            1 Z
848446000848446               848446               170213GX     1400+00000+GX0000004030-0000004030-000000000+000000566-0000004600-0000000004+I20000000000+0000004600-Z
848446001848446002-021040     848446006001023812216PARTY-PICKS 100PCE     0000002000-00000525+00000+0001T   00000525+0000001313          1400 DL53001IC            1 Z
848446002848446039-000108     848446006001023524034TEA-LITE CANDLES 8PCE  0000002000-00001490+00000+0001T   00001490+0000001313          1400 DL55101IC            1 Z
848447000848447               848447               170213GX     1400+00000+GX0000006094+0000006094+000000000+000000855+0000006940+0000000009+I20000000000+0000006940+Z
848447001848447903-000194     848447006009826020616SWT CHOC RP LOLLY 25G  0000001000+00001314+00000+0001T   00001314+0000001506          1400 CU8150               1CZ
848447002848447903-000200     848447006009826020234SWT CHOC RP CHOCO 23G  0000001000+00000788+00000+0001T   00000788+0000001506          1400 CU8150               1CZ
848447003848447077-000305     848447006003000395422GIFT-BAG WINE 10X35CM  0000001000+00001490+00000+0001T   00001490+0000001506          1400 CU8112               1CZ
848447004848447077-000151     848447006008766114676GIFT-WRAP C/PHANE ASSTD0000001000+00000876+00000+0001T   00000876+0000001506          1400 CU8112               1CZ
848447005848447112-116069     848447006009681820277TCS CARRIER BAG JUMBO  0000001000+00000048+00000+0001T   00000048+0000001506          1400 CU8090               1CZ
848447006848447018-000127     848447006001023380289MUG OCC STRAIGHT LOVE  0000001000+00001578+00000+0001T   00001753+0006471506          1400 CU8515               1CZ
848448000848448               848448               170213GX     1400+00000+GX0000014687+0000014687+000000000+000002060+0000016747+0000000000+I40000016747+0000000000+Z
848448001848448034-078800     848448006001023856555COOEY WET-WIPES 60PCE  0000004000+00001753+00000+0001T   00001753+0000001510          1400 CU8215               1CZ
848448002848448079-000280     848448006003000160723PAINT READYMIX 6PCE    0000001000+00002630+00000+0001T   00002630+0000001510          1400 CU8130               1CZ
848448003848448567-011489     848448006003000663330BK COLOURING 96P PONY  0000001000+00003507+00000+0001T   00003507+0000001510          1400 CU8757               1CZ
848448004848448112-116069     848448006009681820277TCS CARRIER BAG JUMBO  0000001000+00000048+00000+0001T   00000048+0000001510          1400 CU8090               1CZ
848448005848448046-000004     848448006001023606525BATTERY 9VOLT H/POWER  0000001000+00001490+00000+0001T   00001490+0000001510          1400 CU8312               1CZ
848449000848449               848449               170213GX     1400+00000+GX0000019515+0000019515+000000000+000002735+0000022250+0000000000+I40000022250+0000000000+Z
848449001848449368-000111     848449006001023780812PLUSH BEAR/DOG 29CM    0000001000+00012279+00000+0001T   00012279+0000001512          1400 CU8745               1CZ
848449002848449903-000200     848449006009826020234SWT CHOC RP CHOCO 23G  0000001000+00000788+00000+0001T   00000788+0000001512          1400 CU8150               1CZ
848449003848449903-000619     848449006003000672455SWT LOLLY STR/BRRY 140G0000001000+00001753+00000+0001T   00001753+0000001512          1400 CU8150               1CZ
848449004848449080-000127     848449006003000424351VALENTINES DAY 36x24CM 0000001000+00002192+00000+0001T   00002192+0000001512          1400 CU8112               1CZ
848449005848449077-000380     848449006003000247585GIFT-BAG 33X45CM S/COL 0000001000+00002455+00000+0001T   00002455+0000001512          1400 CU8112               1CZ
848449006848449112-116069     848449006009681820277TCS CARRIER BAG JUMBO  0000001000+00000048+00000+0001T   00000048+0000001512          1400 CU8090               1CZ
848450000848450               848450               170213GX     1400+00000+GX0000002192+0000002192+000000000+000000307+0000002490+0000000009+I20000000000+0000002490+Z
848450001848450080-000127     848450006003000424351VALENTINES DAY 36x24CM 0000001000+00002192+00000+0001T   00002192+0000001513          1400 CU8112               1CZ
848451000848451               848451               170213GX     1400+00000+GX0000003506+0000003506+000000000+000000492+0000003990+0000000008+I20000000000+0000003990+Z
848451001848451084-070005     848451006001023627902NAIL FILES 6PCE H/GLOW 0000001000+00000876+00000+0001T   00000876+0000001513          1400 CU8200               1CZ
848451002848451306-001622     848451006003000450091INNER SOLES 1-PAIR     0000001000+00002630+00000+0001T   00002630+0000001513          1400 CU8200               1CZ
848452000848452               848452               170213GX     1400+00000+GX0000006138+0000006138+000000000+000000860+0000006990+0000000008+I20000000000+0000006990+Z
848452001848452080-000109     848452006003000237203CARD&ENVLPE BDAY-BRIGHT0000001000+00001753+00000+0001T   00001753+0000001514          1400 CU8112               1CZ
848452002848452368-000049     848452006003000536955PLUSH BEAR 15cm LOVE   0000001000+00004385+00000+0001T   00004385+0000001514          1400 CU8745               1CZ
848453000848453               848453               170213GX     1400+00000+GX0000003856+0000003856+000000000+000000541+0000004390+0000000007+I20000000000+0000004390+Z
848453001848453031-005815     848453009320760100019P/FRAME-CLIP 10x15cm   0000001000+00001227+00000+0001T   00001227+0000001517          1400 CU8510               1CZ
848453002848453077-000302     848453008010410010195GIFT-BAG 18X23CM E/D   0000001000+00000876+00000+0001T   00000876+0000001517          1400 CU8112               1CZ
848453003848453077-000309     848453006001023608604GIFT-BAG 25X32CM GLOSS 0000001000+00001753+00000+0001T   00001753+0000001517          1400 CU8112               1CZ
848454000848454               848454               170213GX     1400+00000+GX0000000048+0000000048+000000000+000000007+0000000050+0000000005+I20000000000+0000000050+Z
848454001848454112-116069     848454006009681820277TCS CARRIER BAG JUMBO  0000001000+00000048+00000+0001T   00000048+0000001518          1400 CU8090               1CZ
848455000848455               848455               170213GX     1400+00000+GX0000003507+0000003507+000000000+000000491+0000003990+0000000008+I20000000000+0000003990+Z
848455001848455018-005009     848455006001023725608MUG W/PLUSH-BEAR LOVE  0000001000+00003507+00000+0001T   00003507+0000001518          1400 CU8515               1CZ
848456000848456               848456               170213GX     1400+00000+GX0000006783+0000006783+000000000+000000951+0000007730+0000000004+I20000000000+0000007730+Z
848456001848456903-000200     848456006009826020234SWT CHOC RP CHOCO 23G  0000001000+00000788+00000+0001T   00000788+0000001520          1400 CU8150               1AZ
848456002848456301-085004     848456006003000420469ORN LOVE PLAQUE 21X10CM0000001000+00003507+00000+0001T   00003946+0006471520          1400 CU8505               1AZ
848456003848456077-000310     848456006001023608635GIFT-BAG 18X23CM GLOSS 0000001000+00001314+00000+0001T   00001314+0000001520          1400 CU8112               1AZ
848456004848456565-000071     848456006003000643387NOVELTY WIND UP CHATTER0000001000+00001139+00000+0001T   00001139+0000001520          1400 CU8745               1AZ
848456005848456112-116038     848456006009681820246TCS CARRIER BAG MIDI   0000001000+00000035+00000+0001T   00000035+0000001520          1400 CU8090               1AZ
848457000848457               848457               170213GX     1400+00000+GX0000035084+0000035084+000000000+000004912+0000039990+0000000006+I20000000000+0000039990+Z
848457001848457007-010503     848457006003000455393WIPE & CHALK 90X60CM   0000001000+00026314+00000+0001T   00026314+0000001522          1400 CU8130               1AZ
848457002848457206-000180     848457006003000631223TEA INFUSER TEAMAN     0000002000+00004385+00000+0001T   00004385+0000001522          1400 CU8321               1AZ
848458000848458               848458               170213GX     1400+00000+GX0000002015+0000002015+000000000+000000283+0000002290+0000000008+I20000000000+0000002290+Z
848458001848458304-001011     848458006001023806727FLWR ROSE RED W/BEAR   0000001000+00000613+00000+0001T   00000788+0006471523          1400 CU8510               1CZ
848458002848458304-001204     848458006001023737984FLOWER OCC. TEDDY/ROSES0000001000+00001402+00000+0001T   00001490+0006471523          1400 CU8510               1CZ
848459000848459               848459               170213GX     1400+00000+GX0000006174+0000006174+000000000+000000865+0000007030+0000000009+I20000000000+0000007030+Z
848459001848459018-050000     848459006003000412679MUG OCC LOVE TWIN BEAR 0000001000+00006139+00000+0001T   00006139+0000001524          1400 CU8515               1CZ
848459002848459112-116038     848459006009681820246TCS CARRIER BAG MIDI   0000001000+00000035+00000+0001T   00000035+0000001524          1400 CU8090               1CZ
848460000848460               848460               170213GX     1400+00000+GX0000001578+0000001578+000000000+000000221+0000001799+0000000000+I40000001799+0000000000+Z
848460001848460080-000124     848460006003000297733CARD & ENV VALENTINES  0000001000+00001578+00000+0001T   00001578+0000001525          1400 CU8112               1CZ
848461000848461               848461               170213GX     1400+00000+GX0000001752+0000001752+000000000+000000246+0000001990+0000000008+I20000000000+0000001990+Z
848461001848461033-000106     848461006001023678027ELASTIC  6mmx3m  CARDED0000002000+00000876+00000+0001T   00000876+0000001526          1400 CU8200               1AZ
848462000848462               848462               170213GX     1400+00000+GX0000000613+0000000613+000000000+000000086+0000000690+0000000009+I20000000000+0000000690+Z
848462001848462077-000311     848462006001023608666GIFT-BAG 11X14CM GLOSS 0000001000+00000613+00000+0001T   00000613+0000001526          1400 CU8112               1CZ
848463000848463               848463               170213GX     1400+00000+GX0000001314+0000001314+000000000+000000184+0000001490+0000000008+I20000000000+0000001490+Z
848463001848463077-000310     848463006001023608635GIFT-BAG 18X23CM GLOSS 0000001000+00001314+00000+0001T   00001314+0000001527          1400 CU8112               1CZ
848464000848464               848464               170213GX     1400+00000+GX0000001753+0000001753+000000000+000000246+0000001990+0000000009+I20000000000+0000001990+Z
848464001848464077-000904     848464006003000410682G/WRAP 700mmx1m PATTERN0000001000+00001753+00000+0001T   00001753+0000001530          1400 CU8112               1CZ
848465000848465               848465               170213GX     1400+00000+GX0000018416+0000018416+000000000+000002580+0000020996+0000000000+I40000020996+0000000000+Z
848465001848465018-000130     848465006001023867537MUG OCC LOVE MINI+HEART0000001000+00003507+00000+0001T   00003507+0000001538          1400 CU8515               1CZ
848465002848465077-000456     848465006003000285549G/BAG METALLIC JMB EMB 0000001000+00002630+00000+0001T   00002630+0000001538          1400 CU8112               1CZ
848465003848465368-000113     848465006001023780874PLUSH BLINGED LOVE 30cm0000001000+00012279+00000+0001T   00012279+0000001538          1400 CU8745               1CZ
848466000848466               848466               170213GX     1400+00000+GX0000005260+0000005260+000000000+000000737+0000005997+0000000000+I40000005997+0000000000+Z
848466001848466079-000012     848466006001023655332P/CRAYONS 12-COL LONG  0000001000+00001753+00000+0001T   00001753+0000001540          1400 CU8130               1CZ
848466002848466079-000342     848466006001023913326FELT-TIP PENS 24PCE    0000001000+00003507+00000+0001T   00003507+0000001540          1400 CU8130               1CZ
848467000848467               848467               170213GX     1400+00000+GX0000003857+0000003857+000000000+000000541+0000004390+0000000008+I20000000000+0000004390+Z
848467001848467903-000504     848467006001704012416SWT CHOC JELLY BEANS   0000001000+00001227+00000+0001T   00001227+0000001541          1400 CU8150               1CZ
848467002848467306-000977     848467006003000559596FIRSTAID PLASTER 75PC  0000001000+00002630+00000+0001T   00002630+0000001541          1400 CU8200               1CZ
848468000848468               848468               170213GX     1400+00000+GX0000001261+0000001261+000000000+000000177+0000001430+0000000008+I20000000000+0000001430+Z
848468001848468304-001011     848468006001023806727FLWR ROSE RED W/BEAR   0000002000+00000613+00000+0001T   00000788+0006471542          1400 CU8510               1CZ
848468002848468112-116038     848468006009681820246TCS CARRIER BAG MIDI   0000001000+00000035+00000+0001T   00000035+0000001542          1400 CU8090               1CZ
848469000848469               848469               170213GX     1400+00000+GX0000011399+0000011399+000000000+000001598+0000012997+0000000000+I40000012997+0000000000+Z
848469001848469004-071215     848469006003000459360MOBILE SELFI STICK 80cm0000001000+00007016+00000+0001T   00007016+0000001544          1400 CU8310               1CZ
848469002848469084-000359     848469006003000642960NAIL MANICURE SET S/STE0000001000+00002630+00000+0001T   00002630+0000001544          1400 CU8200               1CZ
848469003848469142-000815     848469006001023183903GLOVES RUBBER LARGE    0000001000+00001753+00000+0001T   00001753+0000001544          1400 CU8810               1CZ
848470000848470               848470               170213GX     1400+00000+GX0000043457+0000043457+000000000+000006089+0000049540+0000000006+I20000000000+0000049540+Z
848470001848470112-116069     848470006009681820277TCS CARRIER BAG JUMBO  0000001000+00000048+00000+0001T   00000048+0000001546          1400 CU8090               1CZ
848470002848470466-002096     848470006001023800398CATCHBALL VELCRO W/BALL0000002000+00005262+00000+0001T   00005262+0000001546          1400 CU8785               1CZ
848470003848470006-000111     848470006003000519385BALLOONS LARGE 12PCE   0000001000+00002630+00000+0001T   00002630+0000001546          1400 CU8131               1CZ
848470004848470039-000332     848470006001023900470CANDLES 8PCE+NUMBERS   0000001000+00002630+00000+0001T   00002630+0000001546          1400 CU8510               1CZ
848470005848470267-000300     848470006003000162970PUZZLE BLOCKS ASSTD    0000001000+00002630+00000+0001T   00002630+0000001546          1400 CU8755               1CZ
848470006848470566-000359     848470006003000582709STICKER BOOK LOVE SPARK0000001000+00002192+00000+0001T   00002192+0000001546          1400 CU8130               1CZ
848470007848470267-000219     848470006003000301997PUZZLE 100pc FUNNY CAR 0000001000+00004385+00000+0001T   00004385+0000001546          1400 CU8755               1CZ
848470008848470562-002007     848470006003000228188LEARNING EDU ALPHABET  0000001000+00007016+00000+0001T   00007016+0000001546          1400 CU8755               1CZ
848470009848470562-000012     848470006001023589682BLOCKS 36PCE SNAP+PLAY 0000001000+00011402+00000+0001T   00011402+0000001546          1400 CU8755               1CZ
848471000848471               848471               170213GX     1400+00000+GX0000007015+0000007015+000000000+000000983+0000007998+0000000000+I40000007998+0000000000+Z
848471001848471106-000901     848471006003000538058WATER BOTTLE 600ml     0000001000+00006139+00000+0001T   00006139+0000001548          1400 CU8210               1AZ
848471002848471903-000861     848471005010478430822SWT LOVE HEARTS SML    0000001000+00000876+00000+0001T   00000876+0000001548          1400 CU8150               1AZ
848472000848472               848472               170213GX     1400+00000+GX0000000876+0000000876+000000000+000000123+0000000990+0000000009+I20000000000+0000000990+Z
848472001848472039-000319-7   848472006003000443109B/CANDLES LRG NUMBER-7 0000001000+00000876+00000+0001T   00000876+0000001548          1400 CU8510               1CZ
848473000848473               848473               170213GX     1400+00000+GX0000010395+0000010395+000000000+000001456+0000011850+0000000001+I20000000000+0000011850+Z
848473001848473007-000614     848473006001023768667DIARY W/LOCK+PEN LOVE  0000001000+00005262+00000+0001T   00005262+0000001550          1400 CU8130               1CZ
848473002848473077-000315     848473006003000181186GIFT-BAG 20x28cm MATT  0000001000+00001578+00000+0001T   00001578+0000001550          1400 CU8112               1CZ
848473003848473018-000136     848473006001023659026MUG OCC LOVE W/PLUSH   0000001000+00003507+00000+0001T   00003507+0000001550          1400 CU8515               1CZ
848473004848473112-116069     848473006009681820277TCS CARRIER BAG JUMBO  0000001000+00000048+00000+0001T   00000048+0000001550          1400 CU8090               1CZ
848474000848474               848474               170213GX     1400+00000+GX0000000788+0000000788+000000000+000000111+0000000890+0000000009+I20000000000+0000000890+Z
848474001848474903-000200     848474006009826020234SWT CHOC RP CHOCO 23G  0000001000+00000788+00000+0001T   00000788+0000001551          1400 CU8150               1CZ
848475000848475               848475               170213GX     1400+00000+GX0000000175+0000000175+000000000+000000024+0000000190+0000000009+I20000000000+0000000190+Z
848475001848475046-000014     848475006001023725387BATTERIES SIZE:AAA 4PCE0000001000-00001139+00000+0001T   00001139+0000001553          1400 CU83121IC            1 Z
848475002848475046-000012     848475006904708013062BATTERIES AA  CARD-OF-40000001000+00001314+00000+0001T   00001314+0000001553          1400 CU8312               1CZ
848476000848476               848476               170213GX     1400+00000+GX0000001226+0000001226+000000000+000000172+0000001390+0000000008+I20000000000+0000001390+Z
848476001848476304-001011     848476006001023806727FLWR ROSE RED W/BEAR   0000002000+00000613+00000+0001T   00000788+0006471554          1400 CU8510               1CZ
848477000848477               848477               170213GX     1400+00000+GX0000005644+0000005644+000000000+000000792+0000006430+0000000006+I20000000000+0000006430+Z
848477001848477304-001011     848477006001023806727FLWR ROSE RED W/BEAR   0000002000+00000613+00000+0001T   00000788+0006471555          1400 CU8510               1CZ
848477002848477077-000235     848477006003000160211GIFT-RIBBON ROLL METALC0000001000+00002630+00000+0001T   00002630+0000001555          1400 CU8112               1CZ
848477003848477366-002701     848477006001023903136DRESS UP HAWAII FLOWER 0000001000+00001753+00000+0001T   00001753+0000001555          1400 CU8131               1CZ
848477004848477112-116038     848477006009681820246TCS CARRIER BAG MIDI   0000001000+00000035+00000+0001T   00000035+0000001555          1400 CU8090               1CZ
848478000848478               848478               170213GX     1400+00000+GX0000009607+0000009607+000000000+000001346+0000010953+0000000000+I40000010953+0000000000+Z
848478001848478001-091415     848478006003000329113W/GLS OCC. LOVE 2PC 2800000001000+00008771+00000+0001T   00009648+0006471557          1400 CU8515               1CZ
848478002848478903-000138     848478006002099004314SWT GS WINE GUMS 60G   0000001000+00000788+00000+0001T   00000788+0000001557          1400 CU8150               1CZ
848478003848478112-116069     848478006009681820277TCS CARRIER BAG JUMBO  0000001000+00000048+00000+0001T   00000048+0000001557          1400 CU8090               1CZ
848479000848479               848479               170213GX     1400+00000+GX0000001402+0000001402+000000000+000000197+0000001590+0000000009+I20000000000+0000001590+Z
848479001848479007-000610     848479006009685851017DIARY HOMEWORK UNDATED 0000001000+00001402+00000+0001T   00001402+0000001558          1400 CU8130               1CZ
848480000848480               848480               170213GX     1400+00000+GX0000013548+0000013548+000000000+000001899+0000015447+0000000000+I40000015447+0000000000+Z
848480001848480018-005009     848480006001023725608MUG W/PLUSH-BEAR LOVE  0000002000+00003507+00000+0001T   00003507+0000001600          1400 CU8515               1CZ
848480002848480565-000071     848480006003000643387NOVELTY WIND UP CHATTER0000002000+00001139+00000+0001T   00001139+0000001600          1400 CU8745               1CZ
848480003848480903-000095     848480006001704011495SWT SPECKLED-EGGS 100G 0000002000+00002104+00000+0001T   00002104+0000001600          1400 CU8150               1CZ
848480004848480112-116069     848480006009681820277TCS CARRIER BAG JUMBO  0000001000+00000048+00000+0001T   00000048+0000001600          1400 CU8090               1CZ
848481000848481               848481               170213GX     1400+00000+GX0000002451+0000002451+000000000+000000344+0000002790+0000000005+I20000000000+0000002790+Z
848481001848481903-002853     848481000000087108019MENTOS ROLL MINT       0000001000+00001051+00000+0001T   00001051+0000001601          1400 CU8150               1CZ
848481002848481903-000070     848481006001704001106SWT TOFFEE CREAMY 35g  0000002000+00000700+00000+0001T   00000700+0000001601          1400 CU8150               1CZ
848482000848482               848482               170213GX     1400+00000+GX0000001753+0000001753+000000000+000000246+0000001990+0000000009+I20000000000+0000001990+Z
848482001848482301-085002     848482006003000420704ORN OCC. LOVE BELL ASST0000001000+00001753+00000+0001T   00002630+0008121601          1400 CU8505               1CZ
848483000848483               848483               170213GX     1400+00000+GX0000002540+0000002540+000000000+000000357+0000002890+0000000007+I20000000000+0000002890+Z
848483001848483903-000138     848483006002099004314SWT GS WINE GUMS 60G   0000001000+00000788+00000+0001T   00000788+0000001602          1400 CU8150               1CZ
848483002848483077-000314     848483006003000181148GIFT-BAG 11X14CM MATT  0000002000+00000876+00000+0001T   00000876+0000001602          1400 CU8112               1CZ
848484000848484               848484               170213GX     1400+00000+GX0000002804+0000002804+000000000+000000393+0000003190+0000000007+I20000000000+0000003190+Z
848484001848484903-004950     848484006002580020304SWT APRICOT SURPRISE   0000001000+00001314+00000+0001T   00001314+0000001603          1400 CU8150               1CZ
848484002848484071-081100-A   848484006003000326426GLUE-STICK 25g 2pk     0000001000+00001490+00000+0001T   00001490+0000001603          1400 CU8130               1CZ
848485000848485               848485               170213GX     1400+00000+GX0000026349+0000026349+000000000+000003692+0000030040+0000000001+I20000000000+0000030040+Z
848485001848485112-116069     848485006009681820277TCS CARRIER BAG JUMBO  0000001000+00000048+00000+0001T   00000048+0000001604          1400 CU8090               1AZ
848485002848485200-000012     848485006003000399536BAG 50PCE 165x146mm    0000002000+00003507+00000+0001T   00003507+0000001604          1400 CU8214               1AZ
848485003848485200-000011     848485006003000613489DISPOSABLE BAG ZIPER   0000002000+00003507+00000+0001T   00003507+0000001604          1400 CU8214               1AZ
848485004848485089-000192-A   848485006001023901774KEY-CHAIN ACRYLIC      0000001000+00000876+00000+0001T   00000876+0000001604          1400 CU8205               1AZ
848485005848485562-000010     848485006001023762528KID'S PLAY DOUGH       0000003000+00002630+00000+0001T   00002630+0000001604          1400 CU8755               1AZ
848485006848485562-000011     848485006001023782182PLAY DOUGH NEON TUBE   0000001000+00003507+00000+0001T   00003507+0000001604          1400 CU8755               1AZ
848486000848486               848486               170213GX     1400+00000+GX0000006521+0000006521+000000000+000000915+0000007430+0000000006+I20000000000+0000007430+Z
848486001848486039-000108     848486006001023524034TEA-LITE CANDLES 8PCE  0000002000+00001490+00000+0001T   00001490+0000001607          1400 CU8510               1AZ
848486002848486112-116038     848486006009681820246TCS CARRIER BAG MIDI   0000001000+00000035+00000+0001T   00000035+0000001607          1400 CU8090               1AZ
848486003848486016-001000     848486006001023901439STORAGE-JAR GLS W/STRAW0000001000+00003069+00000+0001T   00003069+0000001607          1400 CU8300               1AZ
848486004848486080-000133-A   848486006003000647019MINI VALENTINES CARD   0000001000+00000437+00000+0001T   00000437+0000001607          1400 CU8112               1AZ
848487000848487               848487               170213GX     1400+00000+GX0000001753+0000001753+000000000+000000246+0000001990+0000000009+I20000000000+0000001990+Z
848487001848487362-003003     848487006003000295616HAIR BAND SET 6PCE     0000001000+00001753+00000+0001T   00001753+0000001717          1400 DN3160               1AZ
848488000848488               848488               170213GX     1400+00000+GX0000001314+0000001314+000000000+000000184+0000001490+0000000008+I20000000000+0000001490+Z
848488001848488077-000310     848488006001023608635GIFT-BAG 18X23CM GLOSS 0000001000+00001314+00000+0001T   00001314+0000001730          1400 DN3112               1AZ
848489000848489               848489               170213GX     1400+00000+GX0000021026+0000021026+000000000+000002954+0000023980+0000000000+I40000023980+0000000000+Z
848489001848489018-019000     848489006003000557288MUG OCC. LOVE JUMBO    0000001000+00005262+00000+0001T   00005262+0000001733          1400 DN3515               1AZ
848489002848489006-000190     848489006003000685530BALLOONS LOVE 81x91cm  0000001000+00004385+00000+0001T   00004385+0000001733          1400 DN3131               1AZ
848489003848489018-000177     848489006001023797513MUG MINI LOVE ASSTD    0000002000+00000700+00000+0001T   00000700+0000001733          1400 DN3515               1AZ
848489004848489903-000200     848489006009826020234SWT CHOC RP CHOCO 23G  0000011000+00000788+00000+0001T   00000788+0000001733          1400 DN3150               1AZ
848489005848489080-000133-A   848489006003000647019MINI VALENTINES CARD   0000003000+00000437+00000+0001T   00000437+0000001733          1400 DN3112               1AZ
848490000848490               848490               170213GX     1400+00000+GX0000002630+0000002630+000000000+000000369+0000002990+0000000009+I20000000000+0000002990+Z
848490001848490071-030012     848490006003000283842PEN NVLTY GLITTER 6PC  0000001000+00002630+00000+0001T   00002630+0000001734          1400 DN3130               1AZ
848491000848491               848491               170213GX     1400+00000+GX0000001314+0000001314+000000000+000000184+0000001490+0000000008+I20000000000+0000001490+Z
848491001848491251-000001     848491006001023487681TAPE DBL-SIDE 18x1000mm0000001000+00001314+00000+0001T   00001314+0000001734          1400 DN3810               1AZ
848492000848492               848492               170213GX     1400+00000+GX0000001530+0000001530+000000000+000000216+0000001740+0000000006+I20000000000+0000001740+Z
848492001848492903-000159     848492006003000417629SWT LB SMALL DUMMIE    0000001000+00000350+00000+0001T   00000350+0000001735          1400 DN3150               1AZ
848492002848492903-000151     848492006009803374411SWT SML RND R/BOW LOLLY0000001000+00000525+00000+0001T   00000525+0000001735          1400 DN3150               1AZ
848492003848492903-000670     848492006009803358008SWT SHERBET RED LIPS   0000001000+00000218+00000+0001T   00000218+0000001735          1400 DN3150               1AZ
848492004848492080-000133-A   848492006003000647019MINI VALENTINES CARD   0000001000+00000437+00000+0001T   00000437+0000001735          1400 DN3112               1AZ
A17021300                                          10173804GXSLAVE 1                       DL52IC
A17021301                                          17151096GXSLAVE 1                       DN32IC
M17021391                              CASH        GXSLAVE 1                       Z-REPORT No.   622TOTAL (Sales - Refunds)           5784.02       CASH TO BE BANKED                 3916.60       DEBIT CARDS                          0.00       CREDIT CARDS                      1867.42       Z-READING                         5784.02       AIRTIME DEBIT CARD SALES             0.00       AIRTIME CARD SALES                   0.00       OVERS/UNDERS                         0.00       AIRTIME CASH SALES                   0.00       GIFT CARDS                           0.00       GIFT CARD CASH SALES                 0.00       T O T A L  CASH PAYOUTS              0.00                                                                                                                                                                                                                                                                                                                                                      Z
M17021392                              CASH        GXABSENT                                                                                                                                                                                          ANNUAL LEAVE                                                                                                                                                                                    DAY OFF                                                                                                                                                                                         COMMENTS                                                                                                                                                                                                                                                                                                                                                                                       Z
Y17021300                                          GX00000000519891+000081
ZGX17021319453 SLAVE 1      SALES DATA                     NEXT INVOICE NO.  848493 0622
X GX Slave 1 First invoice 848411 170213 Last invoice 848492 170213 Next invoice 848493 Total number of records 000000283 clbackup completed 19:45:03
