852506000852506               852506               170213GX     1400+00000+GX0000000437+0000000437+000000000+000000062+0000000490+0000000009+I20000000000+0000000490+Z
852506001852506080-000133-A   852506006003000647019MINI VALENTINES CARD   0000001000+00000437+00000+0001T   00000437+0000000828          1400 EA6112               2AZ
852507000852507               852507               170213GX     1400+00000+GX0000006139+0000006139+000000000+000000860+0000006990+0000000009+I20000000000+0000006990+Z
852507001852507020-000019     852507006003000515387K/SCISSORS IN-HOLDER   0000001000+00006139+00000+0001T   00006139+0000000929          1400 EA6300               2AZ
852508000852508               852508               170213GX     1400+00000+GX0000003507+0000003507+000000000+000000491+0000003990+0000000008+I20000000000+0000003990+Z
852508001852508263-000498     852508006003000473021TRUCK 20cm+TRAILER+CAR 0000001000+00003507+00000+0001T   00003507+0000000930          1400 EA6710               2AZ
852509000852509               852509               170213GX     1400+00000+GX0000001753+0000001753+000000000+000000246+0000001990+0000000009+I20000000000+0000001990+Z
852509001852509071-010481     852509006001023417220MAGNIFYING-GLASS 90mm-D0000001000+00001753+00000+0001T   00001753+0000000938          1400 EA6130               2AZ
852510000852510               852510               170213GX     1400+00000+GX0000007016+0000007016+000000000+000000983+0000007990+0000000009+I20000000000+0000007990+Z
852510001852510174-000305     852510006003000105502TRAVEL NECK-PILLOW     0000001000+00007016+00000+0001T   00007016+0000000942          1400 EA6205               2AZ
852511000852511               852511               170213GX     1400+00000+GX0000001801+0000001801+000000000+000000253+0000002050+0000000004+I20000000000+0000002050+Z
852511001852511077-000290     852511006001023902023GIFT BOX 26x32x13cm    0000001000+00001753+00000+0001T   00001753+0000000945          1400 EA6112               2AZ
852511002852511112-116069     852511006009681820277TCS CARRIER BAG JUMBO  0000001000+00000048+00000+0001T   00000048+0000000945          1400 EA6090               2AZ
852512000852512               852512               170213GX     1400+00000+GX0000010559+0000010559+000000000+000001479+0000012038+0000000000+I40000012038+0000000000+Z
852512001852512567-010161     852512009780000008516BOOK TOP ASSTD MILLS   0000002000+00005262+00000+0001T   00005262+0000000958          1400 EA6757               2AZ
852512002852512112-116038     852512006009681820246TCS CARRIER BAG MIDI   0000001000+00000035+00000+0001T   00000035+0000000958          1400 EA6090               2AZ
852513000852513               852513               170213GX     1400+00000+GX0000002630+0000002630+000000000+000000369+0000002990+0000000009+I20000000000+0000002990+Z
852513001852513562-000010     852513006001023762528KID'S PLAY DOUGH       0000001000+00002630+00000+0001T   00002630+0000001004          1400 EA6755               2AZ
852514000852514               852514               170213GX     1400+00000+GX0000001578+0000001578+000000000+000000221+0000001790+0000000009+I20000000000+0000001790+Z
852514001852514251-000031     852514006001023515827MASKING-TAPE 24mmx40m  0000001000+00001578+00000+0001T   00001578+0000001015          1400 EA6810               2AZ
852515000852515               852515               170213GX     1400+00000+GX0000004939+0000004939+000000000+000000692+0000005630+0000000001+I20000000000+0000005630+Z
852515001852515903-000095     852515006001704011495SWT SPECKLED-EGGS 100G 0000001000+00002104+00000+0001T   00002104+0000001019          1400 EA6150               2AZ
852515002852515903-000126     852515006002099003591SWT ZILLIONS MINT 50G  0000002000+00000700+00000+0001T   00000700+0000001019          1400 EA6150               2AZ
852515003852515903-000120     852515006002099001665SWEET GS ZILLIONS 50g  0000002000+00000700+00000+0001T   00000700+0000001019          1400 EA6150               2AZ
852515004852515112-116038     852515006009681820246TCS CARRIER BAG MIDI   0000001000+00000035+00000+0001T   00000035+0000001019          1400 EA6090               2AZ
852516000852516               852516               170213GX     1400+00000+GX0000042979+0000042979+000000000+000006018+0000048990+0000000007+I20000000000+0000048990+Z
852516001852516263-000311     852516006003000028580JEEP PL FRICTION 45CM  0000001000+00026314+00000+0001T   00026314+0000001024          1400 EA6710               2AZ
852516002852516365-003115     852516006003000157525PLAY-SET IRON+BOARD+ACC0000001000+00016665+00000+0001T   00016665+0000001024          1400 EA6725               2AZ
852517000852517               852517               170213GX     1400+00000+GX0000006139+0000006139+000000000+000000860+0000006990+0000000009+I20000000000+0000006990+Z
852517001852517018-050000     852517006003000412679MUG OCC LOVE TWIN BEAR 0000001000+00006139+00000+0001T   00006139+0000001027          1400 EA6515               2AZ
852518000852518               852518               170213GX     1400+00000+GX0000003505+0000003505+000000000+000000492+0000003990+0000000007+I20000000000+0000003990+Z
852518001852518077-000115     852518006001023834225WRAP METALLIC 700mmx1m 0000001000+00001753+00000+0001T   00001753+0000001106          1400 EA6112               2AZ
852518002852518033-005931     852518006001023678447PINS ON-WHEEL PEARLIZED0000001000+00000876+00000+0001T   00000876+0000001106          1400 EA6200               2AZ
852518003852518033-000106     852518006001023678027ELASTIC  6mmx3m  CARDED0000001000+00000876+00000+0001T   00000876+0000001106          1400 EA6200               2AZ
852519000852519               852519               170213GX     1400+00000+GX0000000876+0000000876+000000000+000000123+0000000990+0000000009+I20000000000+0000000990+Z
852519001852519903-000483     852519006001704001410SWT LIQUOR SML SORT 60G0000001000+00000876+00000+0001T   00000876+0000001107          1400 EA6150               2AZ
852520000852520               852520               170213GX     1400+00000+GX0000002630+0000002630+000000000+000000369+0000002990+0000000009+I20000000000+0000002990+Z
852520001852520159-000684     852520006001023776532BATH BODY-GLOVE 18cm   0000001000+00002630+00000+0001T   00002630+0000001142          1400 EA6200               2AZ
852521000852521               852521               170213GX     1400+00000+GX0000001753+0000001753+000000000+000000246+0000001990+0000000009+I20000000000+0000001990+Z
852521001852521903-000619     852521006003000672455SWT LOLLY STR/BRRY 140G0000001000+00001753+00000+0001T   00001753+0000001143          1400 EA6150               2AZ
852522000852522               852522               170213GX     1400+00000+GX0000008375+0000008375+000000000+000001173+0000009540+0000000008+I20000000000+0000009540+Z
852522001852522080-000127     852522006003000424351VALENTINES DAY 36x24CM 0000001000+00002192+00000+0001T   00002192+0000001145          1400 EA6112               2AZ
852522002852522077-000310     852522006001023608635GIFT-BAG 18X23CM GLOSS 0000002000+00001314+00000+0001T   00001314+0000001145          1400 EA6112               2AZ
852522003852522567-011489     852522006003000663330BK COLOURING 96P PONY  0000001000+00003507+00000+0001T   00003507+0000001145          1400 EA6757               2AZ
852522004852522112-116069     852522006009681820277TCS CARRIER BAG JUMBO  0000001000+00000048+00000+0001T   00000048+0000001145          1400 EA6090               2AZ
852523000852523               852523               170213GX     1400+00000+GX0000000481+0000000481+000000000+000000068+0000000540+0000000009+I20000000000+0000000540+Z
852523001852523071-000012     852523006001177101006CHALK COLOUR 12PCE     0000001000+00000481+00000+0001T   00000481+0000001145          1400 EA6130               2AZ
852524000852524               852524               170213GX     1400+00000+GX0000018904+0000018904+000000000+000002648+0000021552+0000000000+I40000021552+0000000000+Z
852524001852524112-116069     852524006009681820277TCS CARRIER BAG JUMBO  0000001000+00000048+00000+0001T   00000048+0000001148          1400 EA6090               2AZ
852524002852524368-000637     852524006001023874092PLUSH BEAR SLEEPING LOV0000001000+00011402+00000+0001T   00012279+0006471148          1400 EA6745               2AZ
852524003852524567-010161     852524009780000008516BOOK TOP ASSTD MILLS   0000001000+00005262+00000+0001T   00005262+0000001148          1400 EA6757               2AZ
852524004852524080-000127     852524006003000424351VALENTINES DAY 36x24CM 0000001000+00002192+00000+0001T   00002192+0000001148          1400 EA6112               2AZ
852525000852525               852525               170213GX     1400+00000+GX0000001752+0000001752+000000000+000000246+0000001990+0000000008+I20000000000+0000001990+Z
852525001852525903-000517     852525006001704012768SWT STRAWS FIZZY CHERRY0000001000+00001227+00000+0001T   00001227+0000001149          1400 EA6150               2AZ
852525002852525903-000151     852525006009803374411SWT SML RND R/BOW LOLLY0000001000+00000525+00000+0001T   00000525+0000001149          1400 EA6150               2AZ
852526000852526               852526               170213GX     1400+00000+GX0000003015+0000003015+000000000+000000423+0000003430+0000000008+I20000000000+0000003430+Z
852526001852526079-000512     852526006001023635853CRAYONS WAX 12-COLOUR  0000001000+00001490+00000+0001T   00001490+0000001152          1400 EA6130               2AZ
852526002852526567-014133     852526006003000560103BOOK COLOURING 48 PAGE 0000001000+00001490+00000+0001T   00001490+0000001152          1400 EA6757               2AZ
852526003852526112-116038     852526006009681820246TCS CARRIER BAG MIDI   0000001000+00000035+00000+0001T   00000035+0000001152          1400 EA6090               2AZ
852527000852527               852527               170213GX     1400+00000+GX0000003100+0000003100+000000000+000000435+0000003530+0000000005+I20000000000+0000003530+Z
852527001852527304-001011     852527006001023806727FLWR ROSE RED W/BEAR   0000005000+00000613+00000+0001T   00000788+0006471154          1400 EA6510               2AZ
852527002852527112-116038     852527006009681820246TCS CARRIER BAG MIDI   0000001000+00000035+00000+0001T   00000035+0000001154          1400 EA6090               2AZ
852528000852528               852528               170213GX     1400+00000+GX0000004468+0000004468+000000000+000000627+0000005090+0000000005+I20000000000+0000005090+Z
852528001852528903-000126     852528006002099003591SWT ZILLIONS MINT 50G  0000001000+00000700+00000+0001T   00000700+0000001156          1400 EA6150               2AZ
852528002852528306-000540     852528006003000165780T/BRUSH+GUM PROTECTION 0000001000+00001490+00000+0001T   00001490+0000001156          1400 EA6200               2AZ
852528003852528140-006004     852528006001023628077FLY-SWATTER RUBBER     0000002000+00001139+00000+0001T   00001139+0000001156          1400 EA6830               2AZ
852529000852529               852529               170213GX     1400+00000+GX0000001753+0000001753+000000000+000000246+0000001990+0000000009+I20000000000+0000001990+Z
852529001852529071-010481     852529006001023417220MAGNIFYING-GLASS 90mm-D0000001000+00001753+00000+0001T   00001753+0000001156          1400 EA6130               2AZ
852530000852530               852530               170213GX     1400+00000+GX0000007926+0000007926+000000000+000001111+0000009030+0000000007+I20000000000+0000009030+Z
852530001852530072-000606     852530006001023858566DOG-COLLAR+LEAD        0000001000+00004385+00000+0001T   00004385+0000001157          1400 EA6870               2AZ
852530002852530047-000507     852530006001023684479PLUG-ADAPTOR EURO TWIN 0000002000+00001753+00000+0001T   00001753+0000001157          1400 EA6880               2AZ
852530003852530112-116038     852530006009681820246TCS CARRIER BAG MIDI   0000001000+00000035+00000+0001T   00000035+0000001157          1400 EA6090               2AZ
852531000852531               852531               170213GX     1400+00000+GX0000013890+0000013890+000000000+000001946+0000015830+0000000006+I20000000000+0000015830+Z
852531001852531261-008552     852531006001023832580CAP-GUN           ASSTD0000001000+00007016+00000+0001T   00007016+0000001158          1400 EA6710               2AZ
852531002852531261-000121     852531006001023341600GUN-CAPS 8-SHOT CARD-9 0000001000+00000700+00000+0001T   00000700+0000001158          1400 EA6710               2AZ
852531003852531361-000431     852531006003000243518DOLL 15cm BENDABLE SET 0000001000+00006139+00000+0001T   00006139+0000001158          1400 EA6725               2AZ
852531004852531112-116038     852531006009681820246TCS CARRIER BAG MIDI   0000001000+00000035+00000+0001T   00000035+0000001158          1400 EA6090               2AZ
852532000852532               852532               170213GX     1400+00000+GX0000003979+0000003979+000000000+000000558+0000004537+0000000000+I40000004537+0000000000+Z
852532001852532031-086100     852532006001023900661P/FRAME GLS FILM 10X15 0000001000+00002630+00000+0001T   00002630+0000001210          1400 EA6510               2AZ
852532002852532112-116038     852532006009681820246TCS CARRIER BAG MIDI   0000001000+00000035+00000+0001T   00000035+0000001210          1400 EA6090               2AZ
852532003852532077-000310     852532006001023608635GIFT-BAG 18X23CM GLOSS 0000001000+00001314+00000+0001T   00001314+0000001210          1400 EA6112               2AZ
852533000852533               852533               170213GX     1400+00000+GX0000036887+0000036887+000000000+000005165+0000042052+0000000000+I40000042052+0000000000+Z
852533001852533497-068758     852533006941057467580AIRBED DOWNY-D 137x191 0000001000+00030700+00000+0001T   00030700+0000001239          1400 EA6787               2AZ
852533002852533497-068614     852533000078257686148H/PUMP HIGH-O/PUT 36cm 0000001000+00006139+00000+0001T   00006139+0000001239          1400 EA6787               2AZ
852533003852533112-116069     852533006009681820277TCS CARRIER BAG JUMBO  0000001000+00000048+00000+0001T   00000048+0000001239          1400 EA6090               2AZ
852534000852534               852534               170213GX     1400+00000+GX0000003242+0000003242+000000000+000000455+0000003690+0000000007+I20000000000+0000003690+Z
852534001852534903-000517     852534006001704012768SWT STRAWS FIZZY CHERRY0000001000+00001227+00000+0001T   00001227+0000001242          1400 EA6150               2AZ
852534002852534903-000510     852534006001704012621SWEET MS ZBDZ S/BERRY  0000001000+00001227+00000+0001T   00001227+0000001242          1400 EA6150               2AZ
852534003852534903-000137     852534006002099004130SWEET GS JELLY BEAN 60G0000001000+00000788+00000+0001T   00000788+0000001242          1400 EA6150               2AZ
852535000852535               852535               170213GX     1400+00000+GX0000001402+0000001402+000000000+000000197+0000001590+0000000009+I20000000000+0000001590+Z
852535001852535027-009030     852535006002814400100DUSTPAN PL             0000001000+00001402+00000+0001T   00001402+0000001245          1400 EA6212               2AZ
852536000852536               852536               170213GX     1400+00000+GX0000003067+0000003067+000000000+000000430+0000003490+0000000007+I20000000000+0000003490+Z
852536001852536464-000238     852536006001023644039GAME SNAKES+LADDERS    0000001000+00001314+00000+0001T   00001314+0000001245          1400 EA6785               2AZ
852536002852536071-008229     852536006003000216017PENCIL-BAG ASTD COL A5 0000001000+00001753+00000+0001T   00001753+0000001245          1400 EA6130               2AZ
852537000852537               852537               170213GX     1400+00000+GX0000000613+0000000613+000000000+000000086+0000000690+0000000009+I20000000000+0000000690+Z
852537001852537077-000321     852537006001023677501GIFT-BAG 11X14CM E/D FL0000001000+00000613+00000+0001T   00000613+0000001246          1400 EA6112               2AZ
852538000852538               852538               170213GX     1400+00000+GX0000005262+0000005262+000000000+000000737+0000005990+0000000009+I20000000000+0000005990+Z
852538001852538082-007580     852538006003000698523SUNGLASS MENS DESIGNER 0000001000+00005262+00000+0001T   00005262+0000001247          1400 EA6160               2AZ
852539000852539               852539               170213GX     1400+00000+GX0000000876+0000000876+000000000+000000123+0000000990+0000000009+I20000000000+0000000990+Z
852539001852539077-000314     852539006003000181148GIFT-BAG 11X14CM MATT  0000001000+00000876+00000+0001T   00000876+0000001249          1400 EA6112               2AZ
852540000852540               852540               170213GX     1400+00000+GX0000001227+0000001227+000000000+000000172+0000001390+0000000009+I20000000000+0000001390+Z
852540001852540031-005815     852540009320760100019P/FRAME-CLIP 10x15cm   0000001000+00001227+00000+0001T   00001227+0000001252          1400 EA6510               2AZ
852541000852541               852541               170213GX     1400+00000+GX0000001139+0000001139+000000000+000000160+0000001290+0000000009+I20000000000+0000001290+Z
852541001852541002-000801     852541006003000555994PEELER PL/MTL Y-SHAPE  0000001000+00001139+00000+0001T   00001139+0000001257          1400 EA6300               2AZ
852542000852542               852542               170213GX     1400+00000+GX0000003278+0000003278+000000000+000000460+0000003730+0000000008+I20000000000+0000003730+Z
852542001852542039-001023     852542006003000466337CANDLE TEA-LITE METALIC0000001000+00001753+00000+0001T   00001753+0000001259          1400 EA6510               2AZ
852542002852542039-000108     852542006001023524034TEA-LITE CANDLES 8PCE  0000001000+00001490+00000+0001T   00001490+0000001259          1400 EA6510               2AZ
852542003852542112-116038     852542006009681820246TCS CARRIER BAG MIDI   0000001000+00000035+00000+0001T   00000035+0000001259          1400 EA6090               2AZ
852543000852543               852543               170213GX     1400+00000+GX0000004416+0000004416+000000000+000000620+0000005030+0000000006+I20000000000+0000005030+Z
852543001852543077-000302     852543008010410010195GIFT-BAG 18X23CM E/D   0000001000+00000876+00000+0001T   00000876+0000001314          1400 EA6112               2AZ
852543002852543903-000481     852543006001704007481SWT MOO MILK-SHAKES 60G0000001000+00000876+00000+0001T   00000876+0000001314          1400 EA6150               2AZ
852543003852543903-000619     852543006003000672455SWT LOLLY STR/BRRY 140G0000001000+00001753+00000+0001T   00001753+0000001314          1400 EA6150               2AZ
852543004852543077-000314     852543006003000181148GIFT-BAG 11X14CM MATT  0000001000+00000876+00000+0001T   00000876+0000001314          1400 EA6112               2AZ
852543005852543112-116038     852543006009681820246TCS CARRIER BAG MIDI   0000001000+00000035+00000+0001T   00000035+0000001314          1400 EA6090               2AZ
852544000852544               852544               170213GX     1400+00000+GX0000002104+0000002104+000000000+000000295+0000002390+0000000009+I20000000000+0000002390+Z
852544001852544903-000095     852544006001704011495SWT SPECKLED-EGGS 100G 0000001000+00002104+00000+0001T   00002104+0000001318          1400 EA6150               2AZ
852545000852545               852545               170213GX     1400+00000+GX0000002190+0000002190+000000000+000000308+0000002490+0000000008+I20000000000+0000002490+Z
852545001852545088-000084     852545006001023798060P/POURRI 120G ASSTD    0000001000+00001753+00000+0001T   00001753+0000001321          1400 EA6212               2AZ
852545002852545080-000133-A   852545006003000647019MINI VALENTINES CARD   0000001000+00000437+00000+0001T   00000437+0000001321          1400 EA6112               2AZ
852546000852546               852546               170213GX     1400+00000+GX0000001753+0000001753+000000000+000000246+0000001990+0000000009+I20000000000+0000001990+Z
852546001852546200-003024     852546006001023657299REFUSE BAGS 20PCE BLACK0000001000+00001753+00000+0001T   00001753+0000001326          1400 EA6214               2AZ
852547000852547               852547               170213GX     1400+00000+GX0000002630+0000002630+000000000+000000369+0000002990+0000000009+I20000000000+0000002990+Z
852547001852547018-000129     852547006001023403353MUG OCC. LOVE V-SHAPE  0000001000+00002630+00000+0001T   00002630+0000001328          1400 EA6515               2AZ
852548000852548               852548               170213GX     1400+00000+GX0000005120+0000005120+000000000+000000717+0000005830+0000000007+I20000000000+0000005830+Z
852548001852548031-080508     852548006001023802415P/FRAME PL 22X11CM LOVE0000001000+00004385+00000+0001T   00004385+0000001330          1400 EA6510               2AZ
852548002852548018-000177     852548006001023797513MUG MINI LOVE ASSTD    0000001000+00000700+00000+0001T   00000700+0000001330          1400 EA6515               2AZ
852548003852548112-116038     852548006009681820246TCS CARRIER BAG MIDI   0000001000+00000035+00000+0001T   00000035+0000001330          1400 EA6090               2AZ
852549000852549               852549               170213GX     1400+00000+GX0000000613+0000000613+000000000+000000086+0000000690+0000000009+I20000000000+0000000690+Z
852549001852549077-000321     852549006001023677501GIFT-BAG 11X14CM E/D FL0000001000+00000613+00000+0001T   00000613+0000001333          1400 EA6112               2AZ
852550000852550               852550               170213GX     1400+00000+GX0000000788+0000000788+000000000+000000111+0000000890+0000000009+I20000000000+0000000890+Z
852550001852550903-000138     852550006002099004314SWT GS WINE GUMS 60G   0000001000+00000788+00000+0001T   00000788+0000001334          1400 EA6150               2AZ
852551000852551               852551               170213GX     1400+00000+GX0000001613+0000001613+000000000+000000226+0000001830+0000000009+I20000000000+0000001830+Z
852551001852551018-000127     852551006001023380289MUG OCC STRAIGHT LOVE  0000001000+00001578+00000+0001T   00001753+0006471336          1400 EA6515               2AZ
852551002852551112-116038     852551006009681820246TCS CARRIER BAG MIDI   0000001000+00000035+00000+0001T   00000035+0000001336          1400 EA6090               2AZ
852552000852552               852552               170213GX     1400+00000+GX0000005697+0000005697+000000000+000000799+0000006496+0000000000+I40000006496+0000000000+Z
852552001852552903-000481     852552006001704007481SWT MOO MILK-SHAKES 60G0000001000+00000876+00000+0001T   00000876+0000001338          1400 EA6150               2AZ
852552002852552361-009103     852552006001023706607DOLL BOTTLES 10cm 2PCE 0000001000+00002192+00000+0001T   00002192+0000001338          1400 EA6725               2AZ
852552003852552039-000319-2   852552006003000442508B/CANDLES LRG NUMBER-2 0000001000+00000876+00000+0001T   00000876+0000001338          1400 EA6510               2AZ
852552004852552077-000908     852552006003000410927G/WRAP 700mmx1m FLOWER 0000001000+00001753+00000+0001T   00001753+0000001338          1400 EA6112               2AZ
852553000852553               852553               170213GX     1400+00000+GX0000001753+0000001753+000000000+000000246+0000001990+0000000009+I20000000000+0000001990+Z
852553001852553077-000373     852553006003000395217G/BAG MED 18X23CM DESGN0000001000+00001753+00000+0001T   00001753+0000001339          1400 EA6112               2AZ
852554000852554               852554               170213GX     1400+00000+GX0000000613+0000000613+000000000+000000086+0000000690+0000000009+I20000000000+0000000690+Z
852554001852554077-000311     852554006001023608666GIFT-BAG 11X14CM GLOSS 0000001000+00000613+00000+0001T   00000613+0000001339          1400 EA6112               2AZ
852555000852555               852555               170213GX     1400+00000+GX0000014942+0000014942+000000000+000002093+0000017035+0000000000+I40000017035+0000000000+Z
852555001852555018-000130     852555006001023867537MUG OCC LOVE MINI+HEART0000001000+00003507+00000+0001T   00003507+0000001341          1400 EA6515               2AZ
852555002852555031-005853     852555006003000442416P/FRAME WDN TWIN HEARTS0000001000+00003507+00000+0001T   00003507+0000001341          1400 EA6510               2AZ
852555003852555301-085007     852555006003000673698ORN OCC. LOVE S/PLAQUE 0000001000+00007893+00000+0001T   00007893+0000001341          1400 EA6505               2AZ
852555004852555112-116038     852555006009681820246TCS CARRIER BAG MIDI   0000001000+00000035+00000+0001T   00000035+0000001341          1400 EA6090               2AZ
852556000852556               852556               170213GX     1400+00000+GX0000001314+0000001314+000000000+000000184+0000001490+0000000008+I20000000000+0000001490+Z
852556001852556077-000310     852556006001023608635GIFT-BAG 18X23CM GLOSS 0000001000+00001314+00000+0001T   00001314+0000001350          1400 EA6112               2AZ
852557000852557               852557               170213GX     1400+00000+GX0000001753+0000001753+000000000+000000246+0000001990+0000000009+I20000000000+0000001990+Z
852557001852557077-000316     852557006001023609731GIFT-BAG 25X32CM MATT  0000001000+00001753+00000+0001T   00001753+0000001351          1400 EA6112               2AZ
852558000852558               852558               170213GX     1400+00000+GX0000004382+0000004382+000000000+000000615+0000004990+0000000007+I20000000000+0000004990+Z
852558001852558306-000965     852558006003000559237FIRSTAID PLASTER 30PC  0000001000+00002630+00000+0001T   00002630+0000001353          1400 EA6200               2AZ
852558002852558306-000021-A   852558006001023891358EARBUDS COTTON 100PCE  0000001000+00000876+00000+0001T   00000876+0000001353          1400 EA6200               2AZ
852558003852558903-000295     852558006001704002899SWT MS FRUITY RASCALS  0000001000+00000876+00000+0001T   00000876+0000001353          1400 EA6150               2AZ
852559000852559               852559               170213GX     1400+00000+GX0000006139+0000006139+000000000+000000860+0000006999+0000000000+I40000006999+0000000000+Z
852559001852559019-000084     852559006001023797247VASE GLASS GEOMETRIC   0000001000+00006139+00000+0001T   00006139+0000001357          1400 EA6510               2AZ
852560000852560               852560               170213GX     1400+00000+GX0000001314+0000001314+000000000+000000184+0000001490+0000000008+I20000000000+0000001490+Z
852560001852560046-000012     852560006904708013062BATTERIES AA  CARD-OF-40000001000+00001314+00000+0001T   00001314+0000001400          1400 EA6312               2AZ
852561000852561               852561               170213GX     1400+00000+GX0000007892+0000007892+000000000+000001105+0000008990+0000000007+I20000000000+0000008990+Z
852561001852561361-000123     852561006001023866073DOLL 28cm FASHION GIRL 0000001000+00004385+00000+0001T   00004385+0000001401          1400 EA6725               2AZ
852561002852561082-098775     852561006001492987750SUNGLASS KIDS GIRLS    0000001000+00003507+00000+0001T   00003507+0000001401          1400 EA6160               2AZ
852562000852562               852562               170213GX     1400+00000+GX0000008765+0000008765+000000000+000001230+0000009990+0000000005+I20000000000+0000009990+Z
852562001852562104-000020     852562006916920023026BASKET 25x14x10cm      0000001000+00001753+00000+0001T   00001753+0000001407          1400 EA6210               2AZ
852562002852562079-003003     852562006003000448005A/TUBE 75ML DARK GREEN 0000001000+00001753+00000+0001T   00001753+0000001407          1400 EA6130               2AZ
852562003852562079-003011     852562006003000448968A/TUBE 75ML ORANGE     0000001000+00001753+00000+0001T   00001753+0000001407          1400 EA6130               2AZ
852562004852562079-003009     852562006003000448722A/TUBE 75ML NATURAL    0000001000+00001753+00000+0001T   00001753+0000001407          1400 EA6130               2AZ
852562005852562079-003001     852562006003000448951A/TUBE 75ML BLACK      0000001000+00001753+00000+0001T   00001753+0000001407          1400 EA6130               2AZ
852563000852563               852563               170213GX     1400+00000+GX0000005963+0000005963+000000000+000000835+0000006790+0000000008+I20000000000+0000006790+Z
852563001852563362-003007     852563006003000295401GIRL FASHION SUNGLASSES0000001000+00001578+00000+0001T   00001753+0008191413          1400 EA6160               2AZ
852563002852563369-001032     852563006001023796158BABY RATTLE SET 6PCE   0000001000+00004385+00000+0001T   00004385+0000001413          1400 EA6745               2AZ
852564000852564               852564               170213GX     1400+00000+GX0000003190+0000003190+000000000+000000448+0000003630+0000000008+I20000000000+0000003630+Z
852564001852564304-001204     852564006001023737984FLOWER OCC. TEDDY/ROSES0000001000+00001402+00000+0001T   00001490+0006471414          1400 EA6510               2AZ
852564002852564080-000113     852564006003000237449CARD&ENVLPE - LOVE     0000001000+00001753+00000+0001T   00001753+0000001414          1400 EA6112               2AZ
852564003852564112-116038     852564006009681820246TCS CARRIER BAG MIDI   0000001000+00000035+00000+0001T   00000035+0000001414          1400 EA6090               2AZ
852565000852565               852565               170213GX     1400+00000+GX0000000263+0000000263+000000000+000000037+0000000300+0000000000+I20000000000+0000000300+Z
852565001852565077-000311     852565006001023608666GIFT-BAG 11X14CM GLOSS 0000001000-00000613+00000+0001T   00000613+0000001415          1400 EA61122IC            2 Z
852565002852565077-000302     852565008010410010195GIFT-BAG 18X23CM E/D   0000001000+00000876+00000+0001T   00000876+0000001415          1400 EA6112               2AZ
852566000852566               852566               170213GX     1400+00000+GX0000006174+0000006174+000000000+000000865+0000007039+0000000000+I40000007039+0000000000+Z
852566001852566018-050000     852566006003000412679MUG OCC LOVE TWIN BEAR 0000001000+00006139+00000+0001T   00006139+0000001417          1400 EA6515               2AZ
852566002852566112-116038     852566006009681820246TCS CARRIER BAG MIDI   0000001000+00000035+00000+0001T   00000035+0000001417          1400 EA6090               2AZ
852567000852567               852567               170213GX     1400+00000+GX0000001314+0000001314+000000000+000000184+0000001490+0000000008+I20000000000+0000001490+Z
852567001852567251-000001     852567006001023487681TAPE DBL-SIDE 18x1000mm0000001000+00001314+00000+0001T   00001314+0000001422          1400 EA6810               2AZ
852568000852568               852568               170213GX     1400+00000+GX0000007047+0000007047+000000000+000000989+0000008030+0000000006+I20000000000+0000008030+Z
852568001852568038-000205     852568006001926001205PLACE-MATS PVC ASSTD-C 0000001000+00001753+00000+0001T   00001753+0000001426          1400 EA6300               2AZ
852568002852568562-088335     852568006003000425372EVA PUZZLE MAT MINI    0000001000+00001753+00000+0001T   00001753+0000001426          1400 EA6755               2AZ
852568003852568562-000010     852568006001023762528KID'S PLAY DOUGH       0000001000+00002630+00000+0001T   00002630+0000001426          1400 EA6755               2AZ
852568004852568083-000295     852568006001023898562LIGHTER-GAS BUTANE 18ml0000001000+00000876+00000+0001T   00000876+0000001426          1400 EA6315               2AZ
852568005852568112-116038     852568006009681820246TCS CARRIER BAG MIDI   0000001000+00000035+00000+0001T   00000035+0000001426          1400 EA6090               2AZ
852569000852569               852569               170213GX     1400+00000+GX0000017098+0000017098+000000000+000002396+0000019490+0000000004+I20000000000+0000019490+Z
852569001852569034-000329     852569006001023564290BOTTLE-BRUSHES WHT 2PCE0000001000+00001314+00000+0001T   00001314+0000001442          1400 EA6215               2AZ
852569002852569079-006496     852569006003000160105GLITTER SHAKERS        0000001000+00001753+00000+0001T   00001753+0000001442          1400 EA6130               2AZ
852569003852569466-000802     852569003523930009754BOXING-SET GLOVES+BAG  0000001000+00010525+00000+0001T   00010525+0000001442          1400 EA6785               2AZ
852569004852569565-000055     852569006003000028252NOVELTY B/O FINGR-BEAMS0000001000+00001753+00000+0001T   00001753+0000001442          1400 EA6745               2AZ
852569005852569077-000308     852569006001023595812GIFT-BAG 33X45CM E/DAY 0000001000+00001753+00000+0001T   00001753+0000001442          1400 EA6112               2AZ
852570000852570               852570               170213GX     1400+00000+GX0000000788+0000000788+000000000+000000111+0000000890+0000000009+I20000000000+0000000890+Z
852570001852570566-000858     852570006001023760975STCKRS G/OUTLINE ASSTD 0000001000+00000788+00000+0001T   00000788+0000001442          1400 EA6130               2AZ
852571000852571               852571               170213GX     1400+00000+GX0000004420+0000004420+000000000+000000619+0000005030+0000000009+I20000000000+0000005030+Z
852571001852571368-000049     852571006003000536955PLUSH BEAR 15cm LOVE   0000001000+00004385+00000+0001T   00004385+0000001450          1400 EA6745               2AZ
852571002852571112-116038     852571006009681820246TCS CARRIER BAG MIDI   0000001000+00000035+00000+0001T   00000035+0000001450          1400 EA6090               2AZ
852572000852572               852572               170213GX     1400+00000+GX0000004995+0000004995+000000000+000000700+0000005690+0000000005+I20000000000+0000005690+Z
852572001852572018-000127     852572006001023380289MUG OCC STRAIGHT LOVE  0000002000+00001578+00000+0001T   00001753+0006471453          1400 EA6515               2AZ
852572002852572304-001011     852572006001023806727FLWR ROSE RED W/BEAR   0000003000+00000613+00000+0001T   00000788+0006471453          1400 EA6510               2AZ
852573000852573               852573               170213GX     1400+00000+GX0000000876+0000000876+000000000+000000123+0000000990+0000000009+I20000000000+0000000990+Z
852573001852573903-000481     852573006001704007481SWT MOO MILK-SHAKES 60G0000001000+00000876+00000+0001T   00000876+0000001453          1400 EA6150               2AZ
852574000852574               852574               170213GX     1400+00000+GX0000000788+0000000788+000000000+000000111+0000000890+0000000009+I20000000000+0000000890+Z
852574001852574903-000200     852574006009826020234SWT CHOC RP CHOCO 23G  0000001000+00000788+00000+0001T   00000788+0000001453          1400 EA6150               2AZ
852575000852575               852575               170213GX     1400+00000+GX0000001753+0000001753+000000000+000000246+0000001990+0000000009+I20000000000+0000001990+Z
852575001852575567-010740     852575009780710511041BOOK EDU. ASSTD CAT 3  0000001000+00001753+00000+0001T   00001753+0000001454          1400 EA6757               2AZ
852576000852576               852576               170213GX     1400+00000+GX0000000876+0000000876+000000000+000000123+0000000990+0000000009+I20000000000+0000000990+Z
852576001852576077-000302     852576008010410010195GIFT-BAG 18X23CM E/D   0000001000+00000876+00000+0001T   00000876+0000001504          1400 EA6112               2AZ
852577000852577               852577               170213GX     1400+00000+GX0000005433+0000005433+000000000+000000762+0000006195+0000000000+I40000006195+0000000000+Z
852577001852577077-000302     852577008010410010195GIFT-BAG 18X23CM E/D   0000001000+00000876+00000+0001T   00000876+0000001608          1400 EA6112               2AZ
852577002852577018-005009     852577006001023725608MUG W/PLUSH-BEAR LOVE  0000001000+00003507+00000+0001T   00003507+0000001608          1400 EA6515               2AZ
852577003852577304-001011     852577006001023806727FLWR ROSE RED W/BEAR   0000001000+00000613+00000+0001T   00000788+0006471608          1400 EA6510               2AZ
852577004852577080-000133-A   852577006003000647019MINI VALENTINES CARD   0000001000+00000437+00000+0001T   00000437+0000001608          1400 EA6112               2AZ
852578000852578               852578               170213GX     1400+00000+GX0000004420+0000004420+000000000+000000619+0000005039+0000000000+I40000005039+0000000000+Z
852578001852578104-000135     852578006001023846419WASTEBIN SWING-LID 28cm0000001000+00004385+00000+0001T   00004385+0000001610          1400 EA6210               2AZ
852578002852578112-116038     852578006009681820246TCS CARRIER BAG MIDI   0000001000+00000035+00000+0001T   00000035+0000001610          1400 EA6090               2AZ
852579000852579               852579               170213GX     1400+00000+GX0000000613+0000000613+000000000+000000086+0000000690+0000000009+I20000000000+0000000690+Z
852579001852579304-001011     852579006001023806727FLWR ROSE RED W/BEAR   0000001000+00000613+00000+0001T   00000788+0006471613          1400 EA6510               2AZ
852580000852580               852580               170213GX     1400+00000+GX0000002630+0000002630+000000000+000000369+0000002990+0000000009+I20000000000+0000002990+Z
852580001852580018-000129     852580006001023403353MUG OCC. LOVE V-SHAPE  0000001000+00002630+00000+0001T   00002630+0000001616          1400 EA6515               2AZ
852581000852581               852581               170213GX     1400+00000+GX0000012327+0000012327+000000000+000001727+0000014050+0000000004+I20000000000+0000014050+Z
852581001852581368-000113     852581006001023780874PLUSH BLINGED LOVE 30cm0000001000+00012279+00000+0001T   00012279+0000001618          1400 EA6745               2AZ
852581002852581112-116069     852581006009681820277TCS CARRIER BAG JUMBO  0000001000+00000048+00000+0001T   00000048+0000001618          1400 EA6090               2AZ
852582000852582               852582               170213GX     1400+00000+GX0000003243+0000003243+000000000+000000455+0000003690+0000000008+I20000000000+0000003690+Z
852582001852582304-001011     852582006001023806727FLWR ROSE RED W/BEAR   0000001000+00000613+00000+0001T   00000788+0006471620          1400 EA6510               2AZ
852582002852582018-000129     852582006001023403353MUG OCC. LOVE V-SHAPE  0000001000+00002630+00000+0001T   00002630+0000001620          1400 EA6515               2AZ
852583000852583               852583               170213GX     1400+00000+GX0000005435+0000005435+000000000+000000762+0000006190+0000000007+I20000000000+0000006190+Z
852583001852583304-001011     852583006001023806727FLWR ROSE RED W/BEAR   0000001000+00000613+00000+0001T   00000788+0006471623          1400 EA6510               2AZ
852583002852583018-000129     852583006001023403353MUG OCC. LOVE V-SHAPE  0000001000+00002630+00000+0001T   00002630+0000001623          1400 EA6515               2AZ
852583003852583080-000127     852583006003000424351VALENTINES DAY 36x24CM 0000001000+00002192+00000+0001T   00002192+0000001623          1400 EA6112               2AZ
852584000852584               852584               170213GX     1400+00000+GX0000011998+0000011998+000000000+000001683+0000013680+0000000001+I20000000000+0000013680+Z
852584001852584562-000020     852584006003000600861EDU PLAY DOUGH 60g 4PC 0000001000+00003507+00000+0001T   00003507+0000001628          1400 EA6755               2AZ
852584002852584079-006496     852584006003000160105GLITTER SHAKERS        0000001000+00001753+00000+0001T   00001753+0000001628          1400 EA6130               2AZ
852584003852584079-006522     852584006001023149442ART+CRAFT GLUE ASSORTED0000001000+00001753+00000+0001T   00001753+0000001628          1400 EA6130               2AZ
852584004852584007-000610     852584006009685851017DIARY HOMEWORK UNDATED 0000002000+00001402+00000+0001T   00001402+0000001628          1400 EA6130               2AZ
852584005852584112-116038     852584006009681820246TCS CARRIER BAG MIDI   0000001000+00000035+00000+0001T   00000035+0000001628          1400 EA6090               2AZ
852584006852584903-000598     852584006003000607990SWEET CRAYON 15cm J/B  0000001000+00001314+00000+0001T   00001314+0000001628          1400 EA6150               2AZ
852584007852584159-000150-B   852584006005387002009SOAP-BOX PL ASSORTED   0000001000+00000832+00000+0001T   00000832+0000001628          1400 EA6200               2AZ
852585000852585               852585               170213GX     1400+00000+GX0000002630+0000002630+000000000+000000369+0000002990+0000000009+I20000000000+0000002990+Z
852585001852585077-000456     852585006003000285549G/BAG METALLIC JMB EMB 0000001000+00002630+00000+0001T   00002630+0000001630          1400 EA6112               2AZ
852586000852586               852586               170213GX     1400+00000+GX0000007060+0000007060+000000000+000000991+0000008050+0000000001+I20000000000+0000008050+Z
852586001852586038-047250     852586006001023816009PLACE MAT ASSORTED     0000004000+00001753+00000+0001T   00001753+0000001631          1400 EA6300               2AZ
852586002852586112-116069     852586006009681820277TCS CARRIER BAG JUMBO  0000001000+00000048+00000+0001T   00000048+0000001631          1400 EA6090               2AZ
852587000852587               852587               170213GX     1400+00000+GX0000005737+0000005737+000000000+000000807+0000006544+0000000000+I40000006544+0000000000+Z
852587001852587903-000613     852587006003000617173SWT LIPS DUMMY 10G     0000001000+00001490+00000+0001T   00001490+0000001633          1400 EA6150               2AZ
852587002852587903-000200     852587006009826020234SWT CHOC RP CHOCO 23G  0000003000+00000788+00000+0001T   00000788+0000001633          1400 EA6150               2AZ
852587003852587903-000183     852587006003000451043SWT LB HEART LOLLY     0000001000+00000393+00000+0001T   00000393+0000001633          1400 EA6150               2AZ
852587004852587903-000613     852587006003000617173SWT LIPS DUMMY 10G     0000001000+00001490+00000+0001T   00001490+0000001633          1400 EA6150               2AZ
852588000852588               852588               170213GX     1400+00000+GX0000000613+0000000613+000000000+000000086+0000000690+0000000009+I20000000000+0000000690+Z
852588001852588077-000311     852588006001023608666GIFT-BAG 11X14CM GLOSS 0000001000+00000613+00000+0001T   00000613+0000001634          1400 EA6112               2AZ
852589000852589               852589               170213GX     1400+00000+GX0000007710+0000007710+000000000+000001082+0000008790+0000000002+I20000000000+0000008790+Z
852589001852589077-000314     852589006003000181148GIFT-BAG 11X14CM MATT  0000002000+00000876+00000+0001T   00000876+0000001638          1400 EA6112               2AZ
852589002852589304-001011     852589006001023806727FLWR ROSE RED W/BEAR   0000002000+00000613+00000+0001T   00000788+0006471638          1400 EA6510               2AZ
852589003852589903-000200     852589006009826020234SWT CHOC RP CHOCO 23G  0000002000+00000788+00000+0001T   00000788+0000001638          1400 EA6150               2AZ
852589004852589018-000127     852589006001023380289MUG OCC STRAIGHT LOVE  0000002000+00001578+00000+0001T   00001753+0006471638          1400 EA6515               2AZ
852590000852590               852590               170213GX     1400+00000+GX0000015786+0000015786+000000000+000002211+0000017990+0000000007+I20000000000+0000017990+Z
852590001852590560-000301     852590006001023800275DINOSAUR VINYL 23cm    0000001000+00007016+00000+0001T   00007016+0000001645          1400 EA6745               2AZ
852590002852590560-000250     852590006001023831040ANIMALS STRETCHABLE    0000002000+00004385+00000+0001T   00004385+0000001645          1400 EA6745               2AZ
852591000852591               852591               170213GX     1400+00000+GX0000004636+0000004636+000000000+000000651+0000005280+0000000007+I20000000000+0000005280+Z
852591001852591018-000129     852591006001023403353MUG OCC. LOVE V-SHAPE  0000001000+00002630+00000+0001T   00002630+0000001648          1400 EA6515               2AZ
852591002852591159-000150-B   852591006005387002009SOAP-BOX PL ASSORTED   0000001000+00000832+00000+0001T   00000832+0000001648          1400 EA6200               2AZ
852591003852591159-000445     852591006001023669728SOAP-BOX PL OVAL       0000001000+00001139+00000+0001T   00001139+0000001648          1400 EA6200               2AZ
852591004852591112-116038     852591006009681820246TCS CARRIER BAG MIDI   0000001000+00000035+00000+0001T   00000035+0000001648          1400 EA6090               2AZ
852592000852592               852592               170213GX     1400+00000+GX0000012326+0000012326+000000000+000001727+0000014050+0000000003+I20000000000+0000014050+Z
852592001852592112-116069     852592006009681820277TCS CARRIER BAG JUMBO  0000001000+00000048+00000+0001T   00000048+0000001650          1400 EA6090               2AZ
852592002852592368-000170     852592006003000270194LUSH DINOSAUR 26cm     0000002000+00006139+00000+0001T   00006139+0000001650          1400 EA6745               2AZ
852593000852593               852593               170213GX     1400+00000+GX0000003542+0000003542+000000000+000000496+0000004030+0000000008+I20000000000+0000004030+Z
852593001852593018-000130     852593006001023867537MUG OCC LOVE MINI+HEART0000001000+00003507+00000+0001T   00003507+0000001655          1400 EA6515               2AZ
852593002852593112-116038     852593006009681820246TCS CARRIER BAG MIDI   0000001000+00000035+00000+0001T   00000035+0000001655          1400 EA6090               2AZ
852594000852594               852594               170213GX     1400+00000+GX0000013639+0000013639+000000000+000001912+0000015550+0000000001+I20000000000+0000015550+Z
852594001852594077-000457     852594006003000285662G/BAG METALLIC JMB SOL 0000001000+00001753+00000+0001T   00001753+0000001657          1400 EA6112               2AZ
852594002852594018-000129     852594006001023403353MUG OCC. LOVE V-SHAPE  0000001000+00002630+00000+0001T   00002630+0000001657          1400 EA6515               2AZ
852594003852594368-000614     852594006001023705808PLUSH LOVE 30cm        0000001000+00008771+00000+0001T   00008771+0000001657          1400 EA6745               2AZ
852594004852594112-116069     852594006009681820277TCS CARRIER BAG JUMBO  0000001000+00000048+00000+0001T   00000048+0000001657          1400 EA6090               2AZ
852594005852594080-000133-A   852594006003000647019MINI VALENTINES CARD   0000001000+00000437+00000+0001T   00000437+0000001657          1400 EA6112               2AZ
852595000852595               852595               170213GX     1400+00000+GX0000008819+0000008819+000000000+000001235+0000010050+0000000004+I20000000000+0000010050+Z
852595001852595112-116069     852595006009681820277TCS CARRIER BAG JUMBO  0000001000+00000048+00000+0001T   00000048+0000001659          1400 EA6090               2AZ
852595002852595031-000924     852595006001023669964P/FRAME COLLAGE PL     0000001000+00008771+00000+0001T   00008771+0000001659          1400 EA6510               2AZ
852596000852596               852596               170213GX     1400+00000+GX0000013152+0000013152+000000000+000001843+0000014990+0000000005+I20000000000+0000014990+Z
852596001852596039-001023     852596006003000466337CANDLE TEA-LITE METALIC0000002000+00001753+00000+0001T   00001753+0000001701          1400 EA6510               2AZ
852596002852596018-017000     852596006003000541850MUG OCC. MOM JUMBO ASST0000001000+00005262+00000+0001T   00005262+0000001701          1400 EA6515               2AZ
852596003852596080-000127     852596006003000424351VALENTINES DAY 36x24CM 0000002000+00002192+00000+0001T   00002192+0000001701          1400 EA6112               2AZ
852597000852597               852597               170213GX     1400+00000+GX0000001753+0000001753+000000000+000000246+0000001990+0000000009+I20000000000+0000001990+Z
852597001852597077-000116     852597006003000240777GIFT-WRAP 700mmx2m COL 0000001000+00001753+00000+0001T   00001753+0000001705          1400 EA6112               2AZ
852598000852598               852598               170213GX     1400+00000+GX0000003592+0000003592+000000000+000000504+0000004090+0000000006+I20000000000+0000004090+Z
852598001852598077-000311     852598006001023608666GIFT-BAG 11X14CM GLOSS 0000003000+00000613+00000+0001T   00000613+0000001706          1400 EA6112               2AZ
852598002852598077-000115     852598006001023834225WRAP METALLIC 700mmx1m 0000001000+00001753+00000+0001T   00001753+0000001706          1400 EA6112               2AZ
852599000852599               852599               170213GX     1400+00000+GX0000001753+0000001753+000000000+000000246+0000001990+0000000009+I20000000000+0000001990+Z
852599001852599077-000382     852599006003000247820GIFT-BAG MED 18X23CM   0000001000+00001753+00000+0001T   00001753+0000001712          1400 EA6112               2AZ
A17021300                                          10180023GXSLAVE 2                       EA62IC
A17021301                                          10540834GXSLAVE 2                       EA62IC
M17021391                              CASH        GXSLAVE 2                       Z-REPORT No.   631TOTAL (Sales - Refunds)           5729.66       CASH TO BE BANKED                 4374.40       DEBIT CARDS                          0.00       CREDIT CARDS                      1355.26       Z-READING                         5729.66       AIRTIME DEBIT CARD SALES             0.00       AIRTIME CARD SALES                   0.00       OVERS/UNDERS                         0.00       AIRTIME CASH SALES                   0.00       GIFT CARDS                           0.00       GIFT CARD CASH SALES                 0.00       T O T A L  CASH PAYOUTS              0.00                                                                                                                                                                                                                                                                                                                                                      Z
M17021392                              CASH        GXABSENT                                                                                                                                                                                          ANNUAL LEAVE                                                                                                                                                                                    DAY OFF                                                                                                                                                                                         COMMENTS                                                                                                                                                                                                                                                                                                                                                                                       Z
Y17021300                                          GX00000000503673+000094
ZGX17021319453 SLAVE 2      SALES DATA                     NEXT INVOICE NO.  852600 0631
X GX Slave 2 First invoice 852506 170213 Last invoice 852599 170213 Next invoice 852600 Total number of records 000000299 clbackup completed 19:45:05
