131507000131507               131507               170213GY     1400+00000+GY0000007938+0000007938+000000000+000001114+0000009052+0000000000+I40000009052+0000000000+Z
131507001131507006-000203-A   131507006003453010965SNACK BOX 6PCE ASSTD   0000003000+00002630+00000+0001T   00002630+0000001125          1400 AT7131               1AZ
131507002131507112-116069     131507006009681820277TCS CARRIER BAG JUMBO  0000001000+00000048+00000+0001T   00000048+0000001125          1400 AT7090               1AZ
131508000131508               131508               170213GY     1400+00000+GY0000001753+0000001753+000000000+000000246+0000001990+0000000009+I20000000000+0000001990+Z
131508001131508002-000883     131508006001023770394CAN-OPENER             0000001000+00001753+00000+0001T   00001753+0000001216          1400 AT7300               1AZ
131509000131509               131509               170213GY     1400+00000+GY0000001578+0000001578+000000000+000000221+0000001799+0000000000+I40000001799+0000000000+Z
131509001131509077-000315     131509006003000181186GIFT-BAG 20x28cm MATT  0000001000+00001578+00000+0001T   00001578+0000001218          1400 AT7112               1AZ
131510000131510               131510               170213GY     1400+00000+GY0000001753+0000001753+000000000+000000246+0000001990+0000000009+I20000000000+0000001990+Z
131510001131510077-000299-A   131510006003000670888GIFT-BAG PAPER JMB LOVE0000001000+00001753+00000+0001T   00001753+0000001219          1400 AT7112               1AZ
131511000131511               131511               170213GY     1400+00000+GY0000005745+0000005745+000000000+000000806+0000006550+0000000001+I20000000000+0000006550+Z
131511001131511162-096854     131511006001492968544#TAG KIDS 6PK EARING   0000001000+00002630+00000+0001T   00002630+0000001257          1400 AT7160               1AZ
131511002131511464-000238     131511006001023644039GAME SNAKES+LADDERS    0000001000+00001314+00000+0001T   00001314+0000001257          1400 AT7785               1AZ
131511003131511077-000467     131511006003000329991GIFT-BAG STAMP 18X23CM 0000001000+00001753+00000+0001T   00001753+0000001257          1400 AT7112               1AZ
131511004131511112-116069     131511006009681820277TCS CARRIER BAG JUMBO  0000001000+00000048+00000+0001T   00000048+0000001257          1400 AT7090               1AZ
131512000131512               131512               170213GY     1400+00000+GY0000008771+0000008771+000000000+000001228+0000009999+0000000000+I40000009999+0000000000+Z
131512001131512001-091415     131512006003000329113W/GLS OCC. LOVE 2PC 2800000001000+00008771+00000+0001T   00009648+0006471259          1400 AT7515               1AZ
131513000131513               131513               170213GY     1400+00000+GY0000007012+0000007012+000000000+000000984+0000007996+0000000000+I40000007996+0000000000+Z
131513001131513019-071595     131513006001023756428PEBBLES 250g SKY-BLUE  0000001000+00001753+00000+0001T   00001753+0000001300          1400 AT7510               1AZ
131513002131513019-071596     131513006001023733078PEBBLES GLS 250g ASSTD.0000001000+00001753+00000+0001T   00001753+0000001300          1400 AT7510               1AZ
131513003131513019-071595     131513006001023756428PEBBLES 250g SKY-BLUE  0000001000+00001753+00000+0001T   00001753+0000001300          1400 AT7510               1AZ
131513004131513019-071596     131513006001023733078PEBBLES GLS 250g ASSTD.0000001000+00001753+00000+0001T   00001753+0000001300          1400 AT7510               1AZ
131514000131514               131514               170213GY     1400+00000+GY0000001753+0000001753+000000000+000000246+0000001990+0000000009+I20000000000+0000001990+Z
131514001131514206-000590     131514006003000633708BAG CLIPS LIPS 2PC     0000001000+00001753+00000+0001T   00001753+0000001304          1400 AT7321               1AZ
131515000131515               131515               170213GY     1400+00000+GY0000001753+0000001753+000000000+000000246+0000001990+0000000009+I20000000000+0000001990+Z
131515001131515150-012228-H   131515006001023416773DOOR-STOPPERS SET-OF-2 0000001000+00001753+00000+0001T   00001753+0000001311          1400 AT7810               1AZ
131516000131516               131516               170213GY     1400+00000+GY0000003154+0000003154+000000000+000000443+0000003590+0000000007+I20000000000+0000003590+Z
131516001131516033-005931     131516006001023678447PINS ON-WHEEL PEARLIZED0000001000+00000876+00000+0001T   00000876+0000001318          1400 AT7200               1AZ
131516002131516033-005919     131516006003000154883SEWING THREAD 24cm ASST0000001000+00001490+00000+0001T   00001490+0000001318          1400 AT7200               1AZ
131516003131516033-005991     131516006001023678546NEEDLES H/HOLD-REPAIR  0000001000+00000788+00000+0001T   00000788+0000001318          1400 AT7200               1AZ
131517000131517               131517               170213GY     1400+00000+GY0000004385+0000004385+000000000+000000614+0000004990+0000000009+I20000000000+0000004990+Z
131517001131517027-008815     131517006003000439799DUSTER 62cm RUBBER-GRIP0000001000+00004385+00000+0001T   00004385+0000001318          1400 AT7212               1AZ
131518000131518               131518               170213GY     1400+00000+GY0000006575+0000006575+000000000+000000922+0000007490+0000000007+I20000000000+0000007490+Z
131518001131518019-000126     131518006003000329571PLANTER GALV W/HANDLE  0000001000+00004823+00000+0001T   00004823+0000001319          1400 AT7510               1AZ
131518002131518077-000150-D   131518006003000054343GIFT-WRAP CELLPHANE CLR0000002000+00000876+00000+0001T   00000876+0000001319          1400 AT7112               1AZ
131519000131519               131519               170213GY     1400+00000+GY0000001753+0000001753+000000000+000000246+0000001990+0000000009+I20000000000+0000001990+Z
131519001131519077-000011-X   131519006001023809827TISSUE-WRAP SILVER 10PC0000001000+00001753+00000+0001T   00001753+0000001319          1400 AT7112               1AZ
131520000131520               131520               170213GY     1400+00000+GY0000011446+0000011446+000000000+000001605+0000013050+0000000001+I20000000000+0000013050+Z
131520001131520124-001300     131520006003000486861STORAGE TIN WASHING    0000001000+00006139+00000+0001T   00006139+0000001324          1400 AT7300               1AZ
131520002131520037-000004     131520006001023763679ASHTRAY PL TUB 8X11CM  0000003000+00001753+00000+0001T   00002192+0008191324          1400 AT7515               1AZ
131520003131520112-116069     131520006009681820277TCS CARRIER BAG JUMBO  0000001000+00000048+00000+0001T   00000048+0000001324          1400 AT7090               1AZ
131521000131521               131521               170213GY     1400+00000+GY0000017588+0000017588+000000000+000002463+0000020051+0000000000+I40000020051+0000000000+Z
131521001131521051-600632     131521006001023868404PLANTER W/TRAY PL RECT 0000004000+00004385+00000+0001T   00004385+0000001328          1400 AT7820               1AZ
131521002131521112-116069     131521006009681820277TCS CARRIER BAG JUMBO  0000001000+00000048+00000+0001T   00000048+0000001328          1400 AT7090               1AZ
131522000131522               131522               170213GY     1400+00000+GY0000003067+0000003067+000000000+000000430+0000003497+0000000000+I40000003497+0000000000+Z
131522001131522077-000407     131522006003000145096G/BAG PP 19X26X8CM     0000001000+00001314+00000+0001T   00001314+0000001330          1400 AT7112               1AZ
131522002131522077-000011-X   131522006001023809827TISSUE-WRAP SILVER 10PC0000001000+00001753+00000+0001T   00001753+0000001330          1400 AT7112               1AZ
131523000131523               131523               170213GY     1400+00000+GY0000002629+0000002629+000000000+000000369+0000002990+0000000008+I20000000000+0000002990+Z
131523001131523077-000299-A   131523006003000670888GIFT-BAG PAPER JMB LOVE0000001000+00001753+00000+0001T   00001753+0000001332          1400 AT7112               1AZ
131523002131523077-000314     131523006003000181148GIFT-BAG 11X14CM MATT  0000001000+00000876+00000+0001T   00000876+0000001332          1400 AT7112               1AZ
131524000131524               131524               170213GY     1400+00000+GY0000007012+0000007012+000000000+000000984+0000007990+0000000006+I20000000000+0000007990+Z
131524001131524077-000472     131524006003000330133G-BAG DESGNR LRG 25X32 0000004000+00001753+00000+0001T   00001753+0000001334          1400 AT7112               1AZ
131525000131525               131525               170213GY     1400+00000+GY0000000393+0000000393+000000000+000000056+0000000440+0000000009+I20000000000+0000000440+Z
131525001131525903-000183     131525006003000451043SWT LB HEART LOLLY     0000001000+00000393+00000+0001T   00000393+0000001335          1400 AT7150               1AZ
131526000131526               131526               170213GY     1400+00000+GY0000001753+0000001753+000000000+000000246+0000001990+0000000009+I20000000000+0000001990+Z
131526001131526080-000111     131526006003000252695CARD&ENVELPE - MUSICAL 0000001000+00001753+00000+0001T   00001753+0000001521          1400 AT7112               1AZ
131527000131527               131527               170213GY     1400+00000+GY0000003507+0000003507+000000000+000000491+0000003990+0000000008+I20000000000+0000003990+Z
131527001131527301-085004     131527006003000420469ORN LOVE PLAQUE 21X10CM0000001000+00003507+00000+0001T   00003946+0006471547          1400 AT7505               1AZ
131528000131528               131528               170213GY     1400+00000+GY0000001227+0000001227+000000000+000000172+0000001390+0000000009+I20000000000+0000001390+Z
131528001131528077-000322     131528006001023677532GIFT-BAG 18X23CM E/D FL0000001000+00001227+00000+0001T   00001227+0000001548          1400 AT7112               1AZ
131529000131529               131529               170213GY     1400+00000+GY0000004385+0000004385+000000000+000000614+0000004999+0000000000+I40000004999+0000000000+Z
131529001131529082-000100     131529006003000360246READING GLS STRENGHT:1 0000001000+00004385+00000+0001T   00004385+0000001551          1400 AT7160               1AZ
131530000131530               131530               170213GY     1400+00000+GY0000002313+0000002313+000000000+000000325+0000002630+0000000008+I20000000000+0000002630+Z
131530001131530033-001363     131530006001023802057HAIR-CLIPS 50mm 48PCE  0000002000+00001139+00000+0001T   00001139+0000001554          1400 AT7200               1AZ
131530002131530112-116038     131530006009681820246TCS CARRIER BAG MIDI   0000001000+00000035+00000+0001T   00000035+0000001554          1400 AT7090               1AZ
131531000131531               131531               170213GY     1400+00000+GY0000009431+0000009431+000000000+000001322+0000010753+0000000000+I40000010753+0000000000+Z
131531001131531031-006544     131531006003000279401P/FRAME WDN DISTRESSED 0000001000+00007893+00000+0001T   00007893+0000001556          1400 AT7510               1AZ
131531002131531077-000299     131531006003000395576G/BAG 32x25cm LRG LOVE 0000001000+00001490+00000+0001T   00001490+0000001556          1400 AT7112               1AZ
131531003131531112-116069     131531006009681820277TCS CARRIER BAG JUMBO  0000001000+00000048+00000+0001T   00000048+0000001556          1400 AT7090               1AZ
131532000131532               131532               170213GY     1400+00000+GY0000001227+0000001227+000000000+000000172+0000001390+0000000009+I20000000000+0000001390+Z
131532001131532077-000322     131532006001023677532GIFT-BAG 18X23CM E/D FL0000001000+00001227+00000+0001T   00001227+0000001557          1400 AT7112               1AZ
131533000131533               131533               170213GY     1400+00000+GY0000005084+0000005084+000000000+000000712+0000005790+0000000006+I20000000000+0000005790+Z
131533001131533007-000537     131533000651728791017NOTE-PAD RND SMILE-FACE0000001000+00000700+00000+0001T   00000700+0000001602          1400 AT7130               1AZ
131533002131533566-000359     131533006003000582709STICKER BOOK LOVE SPARK0000001000+00002192+00000+0001T   00002192+0000001602          1400 AT7130               1AZ
131533003131533200-000067     131533006003000330683STRAWS DRINKING 100PC  0000001000+00002192+00000+0001T   00002192+0000001602          1400 AT7214               1AZ
131534000131534               131534               170213GY     1400+00000+GY0000014994+0000014994+000000000+000002100+0000017090+0000000004+I20000000000+0000017090+Z
131534001131534018-000177     131534006001023797513MUG MINI LOVE ASSTD    0000002000+00000700+00000+0001T   00000700+0000001603          1400 AT7515               1AZ
131534002131534368-000637     131534006001023874092PLUSH BEAR SLEEPING LOV0000001000+00011402+00000+0001T   00012279+0006471603          1400 AT7745               1AZ
131534003131534077-000309-A   131534006003000671007GIFT-BAG HOLOGRAM JMB  0000001000+00002192+00000+0001T   00002192+0000001603          1400 AT7112               1AZ
131535000131535               131535               170213GY     1400+00000+GY0000001400+0000001400+000000000+000000196+0000001590+0000000006+I20000000000+0000001590+Z
131535001131535018-000177     131535006001023797513MUG MINI LOVE ASSTD    0000002000+00000700+00000+0001T   00000700+0000001603          1400 AT7515               1AZ
131536000131536               131536               170213GY     1400+00000+GY0000001753+0000001753+000000000+000000246+0000001990+0000000009+I20000000000+0000001990+Z
131536001131536077-000239     131536006003000160419GIFT-RIBBON ROLL PEARL 0000001000+00001753+00000+0001T   00001753+0000001604          1400 AT7112               1AZ
131537000131537               131537               170213GY     1400+00000+GY0000002150+0000002150+000000000+000000302+0000002452+0000000000+I40000002452+0000000000+Z
131537001131537077-000010-C   131537006001023123879CREPE-PAPER RED        0000001000+00000788+00000+0001T   00000788+0000001605          1400 AT7112               1AZ
131537002131537077-000312     131537006001023608697GIFT-BAG 10X35CM GLOSS 0000001000+00001314+00000+0001T   00001314+0000001605          1400 AT7112               1AZ
131537003131537112-116069     131537006009681820277TCS CARRIER BAG JUMBO  0000001000+00000048+00000+0001T   00000048+0000001605          1400 AT7090               1AZ
131538000131538               131538               170213GY     1400+00000+GY0000001576+0000001576+000000000+000000221+0000001797+0000000000+I40000001797+0000000000+Z
131538001131538018-000177     131538006001023797513MUG MINI LOVE ASSTD    0000001000+00000700+00000+0001T   00000700+0000001607          1400 AT7515               1AZ
131538002131538089-000192-A   131538006001023901774KEY-CHAIN ACRYLIC      0000001000+00000876+00000+0001T   00000876+0000001607          1400 AT7205               1AZ
131539000131539               131539               170213GY     1400+00000+GY0000002980+0000002980+000000000+000000418+0000003398+0000000000+I40000003398+0000000000+Z
131539001131539019-071611     131539006003000513642PEBBLES W/GEM 10g CLEAR0000002000+00001490+00000+0001T   00001490+0000001609          1400 AT7510               1AZ
131540000131540               131540               170213GY     1400+00000+GY0000013198+0000013198+000000000+000001852+0000015050+0000000000+I20000000000+0000015050+Z
131540001131540105-001150     131540006003000666287CONTAINER SET LITE 3PC 0000005000+00002630+00000+0001T   00002630+0000001610          1400 AT7210               1AZ
131540002131540112-116069     131540006009681820277TCS CARRIER BAG JUMBO  0000001000+00000048+00000+0001T   00000048+0000001610          1400 AT7090               1AZ
131541000131541               131541               170213GY     1400+00000+GY0000011011+0000011011+000000000+000001542+0000012550+0000000003+I20000000000+0000012550+Z
131541001131541112-116069     131541006009681820277TCS CARRIER BAG JUMBO  0000001000+00000048+00000+0001T   00000048+0000001615          1400 AT7090               1AZ
131541002131541046-000012-A   131541006003000208296BATTERIES H/POWER SZ:AA0000001000+00002192+00000+0001T   00002192+0000001615          1400 AT7312               1AZ
131541003131541001-091415     131541006003000329113W/GLS OCC. LOVE 2PC 2800000001000+00008771+00000+0001T   00009648+0006471615          1400 AT7515               1AZ
131542000131542               131542               170213GY     1400+00000+GY0000003506+0000003506+000000000+000000492+0000003990+0000000008+I20000000000+0000003990+Z
131542001131542200-003026     131542006003000276448REFUSE BAGS 10PCE GREEN0000002000+00001753+00000+0001T   00001753+0000001617          1400 AT7214               1AZ
131543000131543               131543               170213GY     1400+00000+GY0000000876+0000000876+000000000+000000123+0000000990+0000000009+I20000000000+0000000990+Z
131543001131543077-000150-D   131543006003000054343GIFT-WRAP CELLPHANE CLR0000001000+00000876+00000+0001T   00000876+0000001617          1400 AT7112               1AZ
131544000131544               131544               170213GY     1400+00000+GY0000001314+0000001314+000000000+000000184+0000001490+0000000008+I20000000000+0000001490+Z
131544001131544046-000012     131544006904708013062BATTERIES AA  CARD-OF-40000001000+00001314+00000+0001T   00001314+0000001618          1400 AT7312               1AZ
131545000131545               131545               170213GY     1400+00000+GY0000010524+0000010524+000000000+000001474+0000011998+0000000000+I40000011998+0000000000+Z
131545001131545077-000299-A   131545006003000670888GIFT-BAG PAPER JMB LOVE0000001000+00001753+00000+0001T   00001753+0000001622          1400 AT7112               1AZ
131545002131545368-000614     131545006001023705808PLUSH LOVE 30cm        0000001000+00008771+00000+0001T   00008771+0000001622          1400 AT7745               1AZ
131546000131546               131546               170213GY     1400+00000+GY0000004385+0000004385+000000000+000000614+0000004990+0000000009+I20000000000+0000004990+Z
131546001131546368-000001     131546006003000097982Plush Bear 25cm        0000001000+00004385+00000+0001T   00004385+0000001625          1400 AT7745               1AZ
131547000131547               131547               170213GY     1400+00000+GY0000003977+0000003977+000000000+000000557+0000004530+0000000004+I20000000000+0000004530+Z
131547001131547039-082021     131547006001023816320C/SET 3PC GLS CUP      0000003000+00001314+00000+0001T   00001753+0008171626          1400 AT7510               1AZ
131547002131547112-116038     131547006009681820246TCS CARRIER BAG MIDI   0000001000+00000035+00000+0001T   00000035+0000001626          1400 AT7090               1AZ
131548000131548               131548               170213GY     1400+00000+GY0000000700+0000000700+000000000+000000098+0000000790+0000000008+I20000000000+0000000790+Z
131548001131548018-000177     131548006001023797513MUG MINI LOVE ASSTD    0000001000+00000700+00000+0001T   00000700+0000001626          1400 AT7515               1AZ
131549000131549               131549               170213GY     1400+00000+GY0000001357+0000001357+000000000+000000191+0000001540+0000000008+I20000000000+0000001540+Z
131549001131549903-004960     131549008410525221842SWT GUMMY STR/BERRY 50G0000001000+00000964+00000+0001T   00000964+0000001627          1400 AT7150               1AZ
131549002131549903-000183     131549006003000451043SWT LB HEART LOLLY     0000001000+00000393+00000+0001T   00000393+0000001627          1400 AT7150               1AZ
131550000131550               131550               170213GY     1400+00000+GY0000014048+0000014048+000000000+000001967+0000016015+0000000000+I40000016015+0000000000+Z
131550001131550018-000177     131550006001023797513MUG MINI LOVE ASSTD    0000020000+00000700+00000+0001T   00000700+0000001721          1400 AT7515               1AZ
131550002131550112-116069     131550006009681820277TCS CARRIER BAG JUMBO  0000001000+00000048+00000+0001T   00000048+0000001721          1400 AT7090               1AZ
131551000131551               131551               170213GY     1400+00000+GY0000002628+0000002628+000000000+000000368+0000002990+0000000006+I20000000000+0000002990+Z
131551001131551077-000407     131551006003000145096G/BAG PP 19X26X8CM     0000002000+00001314+00000+0001T   00001314+0000001724          1400 AT7112               1AZ
131552000131552               131552               170213GY     1400+00000+GY0000004296+0000004296+000000000+000000602+0000004898+0000000000+I40000004898+0000000000+Z
131552001131552903-000090     131552006009826020821SWT GS CHOCO COINS 60g 0000001000+00002104+00000+0001T   00002104+0000001728          1400 AT7150               1AZ
131552002131552565-000080     131552006003000643424NOVELTY BENDY          0000001000+00002192+00000+0001T   00002192+0000001728          1400 AT7745               1AZ
131553000131553               131553               170213GY     1400+00000+GY0000007237+0000007237+000000000+000001015+0000008250+0000000002+I20000000000+0000008250+Z
131553001131553304-001204     131553006001023737984FLOWER OCC. TEDDY/ROSES0000002000+00001402+00000+0001T   00001490+0006471729          1400 AT7510               1AZ
131553002131553030-000031-A   131553006003000457588PLAQUE W/WORDS ASSTD   0000001000+00004385+00000+0001T   00004823+0006471729          1400 AT7505               1AZ
131553003131553112-116069     131553006009681820277TCS CARRIER BAG JUMBO  0000001000+00000048+00000+0001T   00000048+0000001729          1400 AT7090               1AZ
131554000131554               131554               170213GY     1400+00000+GY0000000437+0000000437+000000000+000000062+0000000490+0000000009+I20000000000+0000000490+Z
131554001131554080-000133-A   131554006003000647019MINI VALENTINES CARD   0000001000+00000437+00000+0001T   00000437+0000001748          1400 AT7112               1AZ
A17021300                                          15190404GYSLAVE 1                       AT71IC
M17021391                              CASH        GYSLAVE 1                       Z-REPORT No.   580TOTAL (Sales - Refunds)           2612.44       CASH TO BE BANKED                 1525.40       DEBIT CARDS                          0.00       CREDIT CARDS                      1087.04       Z-READING                         2612.44       AIRTIME DEBIT CARD SALES             0.00       AIRTIME CARD SALES                   0.00       OVERS/UNDERS                         0.00       AIRTIME CASH SALES                   0.00       GIFT CARDS                           0.00       GIFT CARD CASH SALES                 0.00       T O T A L  CASH PAYOUTS              0.00                                                                                                                                                                                                                                                                                                                                                      Z
M17021392                              CASH        GYABSENT                                                                                                                                                                                          ANNUAL LEAVE                                                                                                                                                                                    DAY OFF                                                                                                                                                                                         COMMENTS          LAST TILL SLIP NO 131553                                                                                                                                                                                                                                                                                                                                                     Z
Y17021300                                          GY00015800229332+000048
ZGY17021319453 SLAVE 1      SALES DATA                     NEXT INVOICE NO.  131555 0580
T094274496-056483                                          1702130856320000001ICSLAVE 1
X GY Slave 1 First invoice 131507 170213 Last invoice 131554 170213 Next invoice 131555 Total number of records 000000137 clbackup completed 19:45:15
