141839000141839               141839               170213GY     1400+00000+GY0000002630+0000002630+000000000+000000369+0000002990+0000000009+I20000000000+0000002990+Z
141839001141839046-000011-A   141839006003000438891BATTERIES SIZE:AA  4PCE0000001000+00002630+00000+0001T   00002630+0000000841          1400 ND5312               2AZ
141840000141840               141840               170213GY     1400+00000+GY0000001139+0000001139+000000000+000000160+0000001290+0000000009+I20000000000+0000001290+Z
141840001141840071-004202     141840006001023417176SCISSORS-SCHOOL PL/MTL 0000001000+00001139+00000+0001T   00001139+0000000911          1400 ND5130               2AZ
141841000141841               141841               170213GY     1400+00000+GY0000004200+0000004200+000000000+000000588+0000004780+0000000008+I20000000000+0000004780+Z
141841001141841903-000120     141841006002099001665SWEET GS ZILLIONS 50g  0000001000+00000700+00000+0001T   00000700+0000000912          1400 ND5150               2AZ
141841002141841903-000126     141841006002099003591SWT ZILLIONS MINT 50G  0000001000+00000700+00000+0001T   00000700+0000000912          1400 ND5150               2AZ
141841003141841018-000177     141841006001023797513MUG MINI LOVE ASSTD    0000004000+00000700+00000+0001T   00000700+0000000912          1400 ND5515               2AZ
141842000141842               141842               170213GY     1400+00000+GY0000011645+0000011645+000000000+000001636+0000013280+0000000001+I20000000000+0000013280+Z
141842001141842112-116038     141842006009681820246TCS CARRIER BAG MIDI   0000001000+00000035+00000+0001T   00000035+0000000914          1400 ND5090               2AZ
141842002141842018-000170     141842006001023775528MUG OCC. LOVE 2PC MINI 0000003000+00002192+00000+0001T   00002192+0000000914          1400 ND5515               2AZ
141842003141842079-000345     141842006001023890146FELT-TIP PENS 8PCE     0000001000+00003069+00000+0001T   00003069+0000000914          1400 ND5130               2AZ
141842004141842903-000183     141842006003000451043SWT LB HEART LOLLY     0000005000+00000393+00000+0001T   00000393+0000000914          1400 ND5150               2AZ
141843000141843               141843               170213GY     1400+00000+GY0000007890+0000007890+000000000+000001107+0000008990+0000000007+I20000000000+0000008990+Z
141843001141843058-000061     141843006001023759597KNIFE SNAPOFF+5PCE BLDE0000003000+00002630+00000+0001T   00002630+0000000915          1400 ND5840               2AZ
141844000141844               141844               170213GY     1400+00000+GY0000004385+0000004385+000000000+000000614+0000004990+0000000009+I20000000000+0000004990+Z
141844001141844082-000120     141844006003000360727READING GLS STRENGTH:3 0000001000+00004385+00000+0001T   00004385+0000000918          1400 ND5160               2AZ
141845000141845               141845               170213GY     1400+00000+GY0000016709+0000016709+000000000+000002342+0000019050+0000000001+I20000000000+0000019050+Z
141845001141845049-004579     141845006002868010027DOORMAT COIR  40X60cm  0000001000+00012279+00000+0001T   00012279+0000000932          1400 ND5510               2AZ
141845002141845051-002407     141845006003000452491SPRAYER TRIGGER 550ml  0000002000+00001753+00000+0001T   00001753+0000000932          1400 ND5820               2AZ
141845003141845112-116069     141845006009681820277TCS CARRIER BAG JUMBO  0000001000+00000048+00000+0001T   00000048+0000000932          1400 ND5090               2AZ
141845004141845903-003080     141845005907029004673SWT SNACK STIX CHOC 50g0000001000+00000876+00000+0001T   00000876+0000000932          1400 ND5150               2AZ
141846000141846               141846               170213GY     1400+00000+GY0000001314+0000001314+000000000+000000184+0000001490+0000000008+I20000000000+0000001490+Z
141846001141846251-000001     141846006001023487681TAPE DBL-SIDE 18x1000mm0000001000+00001314+00000+0001T   00001314+0000000945          1400 ND5810               2AZ
141847000141847               141847               170213GY     1400+00000+GY0000010907+0000010907+000000000+000001528+0000012430+0000000005+I20000000000+0000012430+Z
141847001141847112-116038     141847006009681820246TCS CARRIER BAG MIDI   0000001000+00000035+00000+0001T   00000035+0000000948          1400 ND5090               2AZ
141847002141847366-006110     141847006003000636075DRESS UP HAIR CHALK 6  0000001000+00004385+00000+0001T   00004385+0000000948          1400 ND5131               2AZ
141847003141847006-000102     141847006001023806819BALLOONS W/BOMBS 50PCE 0000002000+00001490+00000+0001T   00001490+0000000948          1400 ND5131               2AZ
141847004141847006-000113     141847006003000671816BALLOONS WATER FILLER  0000001000+00003507+00000+0001T   00003507+0000000948          1400 ND5131               2AZ
141848000141848               141848               170213GY     1400+00000+GY0000000876+0000000876+000000000+000000123+0000000990+0000000009+I20000000000+0000000990+Z
141848001141848083-000050     141848006001023898593LIGHTERS DISPOSABLE    0000001000+00000876+00000+0001T   00000876+0000000953          1400 ND5315               2AZ
141849000141849               141849               170213GY     1400+00000+GY0000003555+0000003555+000000000+000000498+0000004050+0000000003+I20000000000+0000004050+Z
141849001141849108-001216     141849006003000010882SALAD BOWL PL 4.9L     0000001000+00003507+00000+0001T   00003507+0000000955          1400 ND5210               2AZ
141849002141849112-116069     141849006009681820277TCS CARRIER BAG JUMBO  0000001000+00000048+00000+0001T   00000048+0000000955          1400 ND5090               2AZ
141850000141850               141850               170213GY     1400+00000+GY0000001753+0000001753+000000000+000000246+0000001990+0000000009+I20000000000+0000001990+Z
141850001141850079-000623     141850006001023836274CHALK MARBLE 5PCE      0000001000+00001753+00000+0001T   00001753+0000000956          1400 ND5130               2AZ
141851000141851               141851               170213GY     1400+00000+GY0000001753+0000001753+000000000+000000246+0000001990+0000000009+I20000000000+0000001990+Z
141851001141851047-000507     141851006001023684479PLUG-ADAPTOR EURO TWIN 0000001000+00001753+00000+0001T   00001753+0000001001          1400 ND5880               2AZ
141852000141852               141852               170213GY     1400+00000+GY0000003945+0000003945+000000000+000000553+0000004498+0000000000+I40000004498+0000000000+Z
141852001141852024-091100     141852006001023914224BAKING-CUPS PAPER 100PC0000001000+00001753+00000+0001T   00001753+0000001010          1400 ND5300               2AZ
141852002141852563-000318-L   141852006003000407088SERVIETTES 33cm RED    0000001000+00002192+00000+0001T   00002192+0000001010          1400 ND5214               2AZ
141853000141853               141853               170213GY     1400+00000+GY0000014911+0000014911+000000000+000002088+0000016999+0000000000+I40000016999+0000000000+Z
141853001141853140-092000     141853006001023819130MOSQ-NET 1250x250x65cm 0000001000+00014911+00000+0001T   00014911+0000001014          1400 ND5830               2AZ
141854000141854               141854               170213GY     1400+00000+GY0000008364+0000008364+000000000+000001172+0000009530+0000000006+I20000000000+0000009530+Z
141854001141854072-000326     141854006003000451722PET CAT COLLAR 31x1cm  0000001000+00002630+00000+0001T   00002630+0000001015          1400 ND5870               2AZ
141854002141854072-000235     141854006003000236183DOG-COLLAR REFLECTIVE  0000001000+00001314+00000+0001T   00001753+0008191015          1400 ND5870               2AZ
141854003141854018-030000     141854006003000421060MUG OCCASIONS LOVE 2PCE0000001000+00004385+00000+0001T   00004385+0000001015          1400 ND5515               2AZ
141854004141854112-116038     141854006009681820246TCS CARRIER BAG MIDI   0000001000+00000035+00000+0001T   00000035+0000001015          1400 ND5090               2AZ
141855000141855               141855               170213GY     1400+00000+GY0000003977+0000003977+000000000+000000558+0000004530+0000000005+I20000000000+0000004530+Z
141855001141855112-116038     141855006009681820246TCS CARRIER BAG MIDI   0000001000+00000035+00000+0001T   00000035+0000001016          1400 ND5090               2AZ
141855002141855039-000319-4   141855006003000442744B/CANDLES LRG NUMBER-4 0000001000+00000876+00000+0001T   00000876+0000001016          1400 ND5510               2AZ
141855003141855077-000312     141855006001023608697GIFT-BAG 10X35CM GLOSS 0000001000+00001314+00000+0001T   00001314+0000001016          1400 ND5112               2AZ
141855004141855077-000151     141855006008766114676GIFT-WRAP C/PHANE ASSTD0000002000+00000876+00000+0001T   00000876+0000001016          1400 ND5112               2AZ
141856000141856               141856               170213GY     1400+00000+GY0000003506+0000003506+000000000+000000492+0000003990+0000000008+I20000000000+0000003990+Z
141856001141856046-000002     141856006001023585202BATTERIES SIZE:C   2PCE0000002000+00001753+00000+0001T   00001753+0000001017          1400 ND5312               2AZ
141857000141857               141857               170213GY     1400+00000+GY0000000876+0000000876+000000000+000000123+0000000990+0000000009+I20000000000+0000000990+Z
141857001141857306-000021-A   141857006001023891358EARBUDS COTTON 100PCE  0000001000+00000876+00000+0001T   00000876+0000001020          1400 ND5200               2AZ
141858000141858               141858               170213GY     1400+00000+GY0000008806+0000008806+000000000+000001233+0000010030+0000000009+I20000000000+0000010030+Z
141858001141858039-000799     141858006001023692382CANDLES TEALITE 100PCE 0000001000+00008771+00000+0001T   00008771+0000001025          1400 ND5510               2AZ
141858002141858112-116038     141858006009681820246TCS CARRIER BAG MIDI   0000001000+00000035+00000+0001T   00000035+0000001025          1400 ND5090               2AZ
141859000141859               141859               170213GY     1400+00000+GY0000004420+0000004420+000000000+000000619+0000005030+0000000009+I20000000000+0000005030+Z
141859001141859001-000175     141859006001023788108B/MUG GLS LOVE 380ML   0000001000+00004385+00000+0001T   00004385+0000001041          1400 ND5515               2AZ
141859002141859112-116038     141859006009681820246TCS CARRIER BAG MIDI   0000001000+00000035+00000+0001T   00000035+0000001041          1400 ND5090               2AZ
141860000141860               141860               170213GY     1400+00000+GY0000012935+0000012935+000000000+000001813+0000014740+0000000008+I20000000000+0000014740+Z
141860001141860112-116069     141860006009681820277TCS CARRIER BAG JUMBO  0000001000+00000048+00000+0001T   00000048+0000001046          1400 ND5090               2AZ
141860002141860174-000313     141860006003000344086STORAGE BAG VACUUM SEAL0000001000+00003069+00000+0001T   00003069+0000001046          1400 ND5205               2AZ
141860003141860174-008024     141860006009654960368TRAVEL BOTTLES 2-PACK  0000001000+00001928+00000+0001T   00001928+0000001046          1400 ND5205               2AZ
141860004141860079-006500     141860006001023557186GLUE GLITTER 6/10 PCE  0000001000+00001753+00000+0001T   00001753+0000001046          1400 ND5130               2AZ
141860005141860006-000104     141860006001023990112BALLOONS 40PC AIR PUMP 0000001000+00002630+00000+0001T   00002630+0000001046          1400 ND5131               2AZ
141860006141860079-011526     141860006003000408375GLITTER & SAND ART     0000001000+00003507+00000+0001T   00003507+0000001046          1400 ND5130               2AZ
141861000141861               141861               170213GY     1400+00000+GY0000006522+0000006522+000000000+000000914+0000007436+0000000000+I40000007436+0000000000+Z
141861001141861106-005105     141861006003000667154WATER BOTTLE 1,6L      0000001000+00003507+00000+0001T   00003507+0000001052          1400 ND5210               2AZ
141861002141861006-000102     141861006001023806819BALLOONS W/BOMBS 50PCE 0000002000+00001490+00000+0001T   00001490+0000001052          1400 ND5131               2AZ
141861003141861112-116038     141861006009681820246TCS CARRIER BAG MIDI   0000001000+00000035+00000+0001T   00000035+0000001052          1400 ND5090               2AZ
141862000141862               141862               170213GY     1400+00000+GY0000010084+0000010084+000000000+000001412+0000011496+0000000000+I40000011496+0000000000+Z
141862001141862162-096642     141862006001492966427#TAG NK VINTAGE PENDANT0000001000+00004385+00000+0001T   00004385+0000001055          1400 ND5160               2AZ
141862002141862079-013102     141862006003000019601ART+CRAFT DIY PIPE-CLNR0000001000+00002192+00000+0001T   00002192+0000001055          1400 ND5130               2AZ
141862003141862007-000324     14186200600968585864125 SHEETS BRIGHTS MARLI0000001000+00003507+00000+0001T   00003507+0000001055          1400 ND5130               2AZ
141863000141863               141863               170213GY     1400+00000+GY0000001093+0000001093+000000000+000000154+0000001240+0000000007+I20000000000+0000001240+Z
141863001141863018-000177     141863006001023797513MUG MINI LOVE ASSTD    0000001000+00000700+00000+0001T   00000700+0000001056          1400 ND5515               2AZ
141863002141863903-000183     141863006003000451043SWT LB HEART LOLLY     0000001000+00000393+00000+0001T   00000393+0000001056          1400 ND51502IC            2AZ
141864000141864               141864               170213GY     1400+00000+GY0000031691+0000031691+000000000+000004442+0000036133+0000000000+I40000036133+0000000000+Z
141864001141864567-004963     141864009780636049031TYB G03 MATHS          0000001000+00002192+00000+0001T   00002192+0000001059          1400 ND5757               2AZ
141864002141864567-004976     141864009780636049024TYB G02 MATHS          0000001000+00002192+00000+0001T   00002192+0000001059          1400 ND5757               2AZ
141864003141864079-000336     141864006003000670758SUPER FINE MARKER PENS 0000001000+00005262+00000+0001T   00005262+0000001059          1400 ND5130               2AZ
141864004141864079-000334     141864006003000670437THERAPY P/CRAYONS 18   0000001000+00005262+00000+0001T   00005262+0000001059          1400 ND5130               2AZ
141864005141864564-000012     141864006001023130075BUBBLE BOTTLE MAGIC    0000005000+00000700+00000+0001T   00000700+0000001059          1400 ND5131               2AZ
141864006141864006-000102     141864006001023806819BALLOONS W/BOMBS 50PCE 0000003000+00001490+00000+0001T   00001490+0000001059          1400 ND5131               2AZ
141864007141864112-116069     141864006009681820277TCS CARRIER BAG JUMBO  0000001000+00000048+00000+0001T   00000048+0000001059          1400 ND5090               2AZ
141864008141864467-000002     141864006001023354518BEACH-SET PL 2PCE      0000005000+00001753+00000+0001T   00001753+0000001059          1400 ND5785               2AZ
141865000141865               141865               170213GY     1400+00000+GY0000007890+0000007890+000000000+000001105+0000008995+0000000000+I40000008995+0000000000+Z
141865001141865077-000310     141865006001023608635GIFT-BAG 18X23CM GLOSS 0000001000+00001314+00000+0001T   00001314+0000001103          1400 ND5112               2AZ
141865002141865567-011422     141865006003000641222BK COLOURING THERAPY   0000001000+00003507+00000+0001T   00003507+0000001103          1400 ND5757               2AZ
141865003141865031-086303-A   141865006003000322206P/FRM CHAMPAGNE 10X15CM0000001000+00003069+00000+0001T   00003069+0000001103          1400 ND5510               2AZ
141866000141866               141866               170213GY     1400+00000+GY0000011402+0000011402+000000000+000001597+0000012990+0000000009+I20000000000+0000012990+Z
141866001141866368-000637     141866006001023874092PLUSH BEAR SLEEPING LOV0000001000+00011402+00000+0001T   00012279+0006471110          1400 ND5745               2AZ
141867000141867               141867               170213GY     1400+00000+GY0000004605+0000004605+000000000+000000647+0000005250+0000000002+I20000000000+0000005250+Z
141867001141867467-000002     141867006001023354518BEACH-SET PL 2PCE      0000001000+00001753+00000+0001T   00001753+0000001112          1400 ND5785               2AZ
141867002141867903-002890     141867008935001721352MENTOS GUM PURE F/MINT 0000001000+00001051+00000+0001T   00001051+0000001112          1400 ND5150               2AZ
141867003141867077-000454     141867006003000285266G/BAG METALLIC LRG EMB 0000001000+00001753+00000+0001T   00001753+0000001112          1400 ND5112               2AZ
141867004141867112-116069     141867006009681820277TCS CARRIER BAG JUMBO  0000001000+00000048+00000+0001T   00000048+0000001112          1400 ND5090               2AZ
141868000141868               141868               170213GY     1400+00000+GY0000001490+0000001490+000000000+000000209+0000001699+0000000000+I40000001699+0000000000+Z
141868001141868051-002401     141868006001023523570TRIGGER-SPRAYER   300ml0000001000+00001490+00000+0001T   00001490+0000001116          1400 ND5820               2AZ
141869000141869               141869               170213GY     1400+00000+GY0000004996+0000004996+000000000+000000701+0000005690+0000000007+I20000000000+0000005690+Z
141869001141869077-000321     141869006001023677501GIFT-BAG 11X14CM E/D FL0000001000+00000613+00000+0001T   00000613+0000001125          1400 ND5112               2AZ
141869002141869006-000107     141869006003000587872BALLOONS ITS BOY/GIRL  0000001000+00001753+00000+0001T   00001753+0000001125          1400 ND5131               2AZ
141869003141869563-000317-C   141869006001023776204SERVIETTES 20PK  FLOWER0000001000+00002630+00000+0001T   00002630+0000001125          1400 ND5214               2AZ
141870000141870               141870               170213GY     1400+00000+GY0000004420+0000004420+000000000+000000619+0000005030+0000000009+I20000000000+0000005030+Z
141870001141870031-080508     141870006001023802415P/FRAME PL 22X11CM LOVE0000001000+00004385+00000+0001T   00004385+0000001127          1400 ND5510               2AZ
141870002141870112-116038     141870006009681820246TCS CARRIER BAG MIDI   0000001000+00000035+00000+0001T   00000035+0000001127          1400 ND5090               2AZ
141871000141871               141871               170213GY     1400+00000+GY0000002192+0000002192+000000000+000000307+0000002490+0000000009+I20000000000+0000002490+Z
141871001141871046-000012-A   141871006003000208296BATTERIES H/POWER SZ:AA0000001000+00002192+00000+0001T   00002192+0000001129          1400 ND5312               2AZ
141872000141872               141872               170213GY     1400+00000+GY0000007937+0000007937+000000000+000001114+0000009050+0000000001+I20000000000+0000009050+Z
141872001141872112-116069     141872006009681820277TCS CARRIER BAG JUMBO  0000001000+00000048+00000+0001T   00000048+0000001132          1400 ND5090               2AZ
141872002141872036-000063     141872006009654960436COATHANGERS VIRGIN 5PCE0000003000+00001753+00000+0001T   00001753+0000001132          1400 ND5212               2AZ
141872003141872104-000072     141872006003000684199BASKET PL 25x18cm LACE 0000001000+00002630+00000+0001T   00002630+0000001132          1400 ND5210               2AZ
141873000141873               141873               170213GY     1400+00000+GY0000004383+0000004383+000000000+000000615+0000004990+0000000008+I20000000000+0000004990+Z
141873001141873019-071603     141873006001023772039RIVER-STONES 1kg PEACH 0000001000+00002630+00000+0001T   00002630+0000001135          1400 ND5510               2AZ
141873002141873009-001455     141873006001023696038MELAMINE PLATE 25cm    0000001000+00001753+00000+0001T   00001753+0000001135          1400 ND5210               2AZ
141874000141874               141874               170213GY     1400+00000+GY0000000700+0000000700+000000000+000000098+0000000798+0000000000+I40000000798+0000000000+Z
141874001141874088-000103     141874006008766127102INCENSE 20PCE ASSTD    0000001000+00000700+00000+0001T   00000700+0000001136          1400 ND5212               2AZ
141875000141875               141875               170213GY     1400+00000+GY0000002539+0000002539+000000000+000000357+0000002890+0000000006+I20000000000+0000002890+Z
141875001141875018-000177     141875006001023797513MUG MINI LOVE ASSTD    0000001000+00000700+00000+0001T   00000700+0000001136          1400 ND5515               2AZ
141875002141875903-000200     141875006009826020234SWT CHOC RP CHOCO 23G  0000001000+00000788+00000+0001T   00000788+0000001136          1400 ND5150               2AZ
141875003141875039-000026     141875006001023551610C/TAPERED 25CM M/RED   0000001000+00001051+00000+0001T   00001051+0000001136          1400 ND5510               2AZ
141876000141876               141876               170213GY     1400+00000+GY0000006137+0000006137+000000000+000000860+0000006990+0000000007+I20000000000+0000006990+Z
141876001141876079-006495     141876006003000159987GLITTER SHAKERS 6PK    0000001000+00002630+00000+0001T   00002630+0000001137          1400 ND5130               2AZ
141876002141876079-006498     141876006001023836151GLITTER SET 10PCE      0000001000+00003507+00000+0001T   00003507+0000001137          1400 ND5130               2AZ
141877000141877               141877               170213GY     1400+00000+GY0000001753+0000001753+000000000+000000246+0000001999+0000000000+I40000001999+0000000000+Z
141877001141877077-000309     141877006001023608604GIFT-BAG 25X32CM GLOSS 0000001000+00001753+00000+0001T   00001753+0000001138          1400 ND5112               2AZ
141878000141878               141878               170213GY     1400+00000+GY0000014032+0000014032+000000000+000001966+0000015998+0000000000+I40000015998+0000000000+Z
141878001141878368-000111     141878006001023780812PLUSH BEAR/DOG 29CM    0000001000+00012279+00000+0001T   00012279+0000001140          1400 ND5745               2AZ
141878002141878077-000299-A   141878006003000670888GIFT-BAG PAPER JMB LOVE0000001000+00001753+00000+0001T   00001753+0000001140          1400 ND5112               2AZ
141879000141879               141879               170213GY     1400+00000+GY0000006577+0000006577+000000000+000000923+0000007500+0000000000+I40000007500+0000000000+Z
141879001141879016-006508     141879006003000181537S/JAR GLASS 10X12CM    0000001000+00003507+00000+0001T   00003507+0000001143          1400 ND5300               2AZ
141879002141879077-000299-A   141879006003000670888GIFT-BAG PAPER JMB LOVE0000001000+00001753+00000+0001T   00001753+0000001143          1400 ND5112               2AZ
141879003141879903-000183     141879006003000451043SWT LB HEART LOLLY     0000001000+00000393+00000+0001T   00000393+0000001143          1400 ND5150               2AZ
141879004141879077-000151     141879006008766114676GIFT-WRAP C/PHANE ASSTD0000001000+00000876+00000+0001T   00000876+0000001143          1400 ND5112               2AZ
141879005141879112-116069     141879006009681820277TCS CARRIER BAG JUMBO  0000001000+00000048+00000+0001T   00000048+0000001143          1400 ND5090               2AZ
141880000141880               141880               170213GY     1400+00000+GY0000000035+0000000035+000000000+000000005+0000000040+0000000000+I20000000000+0000000040+Z
141880001141880112-116038     141880006009681820246TCS CARRIER BAG MIDI   0000001000+00000035+00000+0001T   00000035+0000001143          1400 ND5090               2AZ
141881000141881               141881               170213GY     1400+00000+GY0000007012+0000007012+000000000+000000984+0000007990+0000000006+I20000000000+0000007990+Z
141881001141881264-000921     141881000090159150442MAISTO CAR 3" FRESH    0000004000+00001753+00000+0001T   00001753+0000001150          1400 ND5710               2AZ
141882000141882               141882               170213GY     1400+00000+GY0000002192+0000002192+000000000+000000307+0000002490+0000000009+I20000000000+0000002490+Z
141882001141882077-000924     141882006003000414055G/WRAP 700mmx2m WEDDING0000001000+00002192+00000+0001T   00002192+0000001157          1400 ND5112               2AZ
141883000141883               141883               170213GY     1400+00000+GY0000024591+0000024591+000000000+000003449+0000028040+0000000000+I40000028040+0000000000+Z
141883001141883566-000068     141883006003000418046POP UP LOVE 2 ASSTD    0000002000+00002192+00000+0001T   00002192+0000001201          1400 ND5130               2AZ
141883002141883566-000535     141883006003000284719STICKER SPARKLE EMBOSS 0000001000+00001753+00000+0001T   00001753+0000001201          1400 ND5130               2AZ
141883003141883903-000494     141883006001704009911SWT GUMMY TEENY TEDDIES0000003000+00000876+00000+0001T   00000876+0000001201          1400 ND5150               2AZ
141883004141883903-000482     141883006001704001397SWT SOFT-MINTS 60G     0000001000+00000876+00000+0001T   00000876+0000001201          1400 ND5150               2AZ
141883005141883079-006494     141883006003000159864GLITTER GLUE 5PCE 11cm 0000001000+00001490+00000+0001T   00001490+0000001201          1400 ND5130               2AZ
141883006141883079-013032-G   141883006003000496389FOAM BUTTERFLIES       0000001000+00002192+00000+0001T   00002192+0000001201          1400 ND5130               2AZ
141883007141883564-000036     141883006001023708694BUBBLE W/PUZZLE        0000004000+00001490+00000+0001T   00001490+0000001201          1400 ND5131               2AZ
141883008141883104-000072     141883006003000684199BASKET PL 25x18cm LACE 0000002000+00002630+00000+0001T   00002630+0000001201          1400 ND5210               2AZ
141883009141883112-116069     141883006009681820277TCS CARRIER BAG JUMBO  0000001000+00000048+00000+0001T   00000048+0000001201          1400 ND5090               2AZ
141884000141884               141884               170213GY     1400+00000+GY0000000876+0000000876+000000000+000000123+0000000990+0000000009+I20000000000+0000000990+Z
141884001141884033-010720     141884006001023678645SAFETY-PINS 50PCE SMALL0000001000+00000876+00000+0001T   00000876+0000001202          1400 ND5200               2AZ
141885000141885               141885               170213GY     1400+00000+GY0000010306+0000010306+000000000+000001445+0000011751+0000000000+I40000011751+0000000000+Z
141885001141885007-000898     141885006001023871947BOOK JOURNAL           0000001000+00006139+00000+0001T   00006139+0000001210          1400 ND5130               2AZ
141885002141885077-000299     141885006003000395576G/BAG 32x25cm LRG LOVE 0000001000+00001490+00000+0001T   00001490+0000001210          1400 ND5112               2AZ
141885003141885112-116069     141885006009681820277TCS CARRIER BAG JUMBO  0000001000+00000048+00000+0001T   00000048+0000001210          1400 ND5090               2AZ
141885004141885077-000151     141885006008766114676GIFT-WRAP C/PHANE ASSTD0000001000+00000876+00000+0001T   00000876+0000001210          1400 ND5112               2AZ
141885005141885077-000011     141885006003000542352PAPER RAFFIA ASSTD COL 0000001000+00001753+00000+0001T   00001753+0000001210          1400 ND5112               2AZ
141886000141886               141886               170213GY     1400+00000+GY0000009027+0000009027+000000000+000001269+0000010296+0000000000+I40000010296+0000000000+Z
141886001141886018-005009     141886006001023725608MUG W/PLUSH-BEAR LOVE  0000002000+00003507+00000+0001T   00003507+0000001212          1400 ND5515               2AZ
141886002141886112-116069     141886006009681820277TCS CARRIER BAG JUMBO  0000001000+00000048+00000+0001T   00000048+0000001212          1400 ND5090               2AZ
141886003141886903-000183     141886006003000451043SWT LB HEART LOLLY     0000005000+00000393+00000+0001T   00000393+0000001212          1400 ND5150               2AZ
141887000141887               141887               170213GY     1400+00000+GY0000016354+0000016354+000000000+000002292+0000018646+0000000000+I40000018646+0000000000+Z
141887001141887112-116069     141887006009681820277TCS CARRIER BAG JUMBO  0000001000+00000048+00000+0001T   00000048+0000001215          1400 ND5090               2AZ
141887002141887006-000804     141887006003000574445STREAMERS 6-ROLLS 2.5cm0000001000+00001753+00000+0001T   00001753+0000001215          1400 ND5131               2AZ
141887003141887079-000623     141887006001023836274CHALK MARBLE 5PCE      0000001000+00001753+00000+0001T   00001753+0000001215          1400 ND5130               2AZ
141887004141887006-000210-H   141887006003000430055PINK/BLUE CUPS 230g 6PC0000001000+00001490+00000+0001T   00001490+0000001215          1400 ND5131               2AZ
141887005141887079-013098     141887006003000197040ART+CRAFT SET DIY      0000001000+00003069+00000+0001T   00003069+0000001215          1400 ND5130               2AZ
141887006141887562-000020     141887006001023800336EDU PLAY DOUGH 60g 4PC 0000001000+00003507+00000+0001T   00003507+0000001215          1400 ND5755               2AZ
141887007141887032-000236     141887006001023731647MIRROR PL STANDING OVAL0000001000+00003507+00000+0001T   00003507+0000001215          1400 ND5510               2AZ
141887008141887033-001402     141887006009654960498HAIR-CURLERS 6PCE LRG  0000001000+00001227+00000+0001T   00001227+0000001215          1400 ND5200               2AZ
141888000141888               141888               170213GY     1400+00000+GY0000001662+0000001662+000000000+000000235+0000001890+0000000007+I20000000000+0000001890+Z
141888001141888903-003080     141888005907029004673SWT SNACK STIX CHOC 50g0000001000+00000876+00000+0001T   00000876+0000001219          1400 ND5150               2AZ
141888002141888903-000183     141888006003000451043SWT LB HEART LOLLY     0000002000+00000393+00000+0001T   00000393+0000001219          1400 ND5150               2AZ
141889000141889               141889               170213GY     1400+00000+GY0000007672+0000007672+000000000+000001075+0000008740+0000000007+I20000000000+0000008740+Z
141889001141889112-116069     141889006009681820277TCS CARRIER BAG JUMBO  0000001000+00000048+00000+0001T   00000048+0000001225          1400 ND5090               2AZ
141889002141889077-000342     141889006003000273942G/BAG PAPER LRG 25X32CM0000001000+00001490+00000+0001T   00001490+0000001225          1400 ND5112               2AZ
141889003141889566-000451     141889006001023788443STICKERS GLITTER ASSTD 0000002000+00001314+00000+0001T   00001753+0008151225          1400 ND5130               2AZ
141889004141889566-000359     141889006003000582709STICKER BOOK LOVE SPARK0000001000+00002192+00000+0001T   00002192+0000001225          1400 ND5130               2AZ
141889005141889077-000312     141889006001023608697GIFT-BAG 10X35CM GLOSS 0000001000+00001314+00000+0001T   00001314+0000001225          1400 ND5112               2AZ
141890000141890               141890               170213GY     1400+00000+GY0000004385+0000004385+000000000+000000614+0000004990+0000000009+I20000000000+0000004990+Z
141890001141890030-000031-A   141890006003000457588PLAQUE W/WORDS ASSTD   0000001000+00004385+00000+0001T   00004823+0006471225          1400 ND5505               2AZ
141891000141891               141891               170213GY     1400+00000+GY0000010309+0000010309+000000000+000001444+0000011753+0000000000+I40000011753+0000000000+Z
141891001141891077-000327     141891006001023677686GIFT-BAG 25X32CM E/D BA0000001000+00001490+00000+0001T   00001490+0000001228          1400 ND5112               2AZ
141891002141891369-000821     141891006003000164431BABY SHAPE-SORTER RND  0000001000+00008771+00000+0001T   00008771+0000001228          1400 ND5745               2AZ
141891003141891112-116069     141891006009681820277TCS CARRIER BAG JUMBO  0000001000+00000048+00000+0001T   00000048+0000001228          1400 ND5090               2AZ
141892000141892               141892               170213GY     1400+00000+GY0000007892+0000007892+000000000+000001106+0000008998+0000000000+I40000008998+0000000000+Z
141892001141892077-000309     141892006001023608604GIFT-BAG 25X32CM GLOSS 0000001000+00001753+00000+0001T   00001753+0000001230          1400 ND5112               2AZ
141892002141892368-000175     141892006003000270316PLUSH BEAR 4 ASSTD 18CM0000001000+00006139+00000+0001T   00006139+0000001230          1400 ND5745               2AZ
141893000141893               141893               170213GY     1400+00000+GY0000019343+0000019343+000000000+000002710+0000022050+0000000003+I20000000000+0000022050+Z
141893001141893301-085007     141893006003000673698ORN OCC. LOVE S/PLAQUE 0000001000+00007893+00000+0001T   00007893+0000001231          1400 ND5505               2AZ
141893002141893368-000637     141893006001023874092PLUSH BEAR SLEEPING LOV0000001000+00011402+00000+0001T   00012279+0006471231          1400 ND5745               2AZ
141893003141893112-116069     141893006009681820277TCS CARRIER BAG JUMBO  0000001000+00000048+00000+0001T   00000048+0000001231          1400 ND5090               2AZ
141894000141894               141894               170213GY     1400+00000+GY0000001753+0000001753+000000000+000000246+0000001990+0000000009+I20000000000+0000001990+Z
141894001141894077-000299-A   141894006003000670888GIFT-BAG PAPER JMB LOVE0000001000+00001753+00000+0001T   00001753+0000001244          1400 ND5112               2AZ
141895000141895               141895               170213GY     1400+00000+GY0000000786+0000000786+000000000+000000112+0000000890+0000000008+I20000000000+0000000890+Z
141895001141895903-000183     141895006003000451043SWT LB HEART LOLLY     0000002000+00000393+00000+0001T   00000393+0000001252          1400 ND5150               2AZ
141896000141896               141896               170213GY     1400+00000+GY0000001227+0000001227+000000000+000000172+0000001390+0000000009+I20000000000+0000001390+Z
141896001141896903-000111     141896006001704006378SWT LIQUORICE-TWISTS   0000001000+00001227+00000+0001T   00001227+0000001330          1400 ND5150               2AZ
141897000141897               141897               170213GY     1400+00000+GY0000004433+0000004433+000000000+000000621+0000005050+0000000004+I20000000000+0000005050+Z
141897001141897031-005840     141897006001023481412P/FRAME-CLIP 30X40CM   0000001000+00004385+00000+0001T   00004385+0000001332          1400 ND5510               2AZ
141897002141897112-116069     141897006009681820277TCS CARRIER BAG JUMBO  0000001000+00000048+00000+0001T   00000048+0000001332          1400 ND5090               2AZ
141898000141898               141898               170213GY     1400+00000+GY0000003507+0000003507+000000000+000000491+0000003990+0000000008+I20000000000+0000003990+Z
141898001141898018-000136     141898006001023659026MUG OCC LOVE W/PLUSH   0000001000+00003507+00000+0001T   00003507+0000001339          1400 ND5515               2AZ
141899000141899               141899               170213GY     1400+00000+GY0000002358+0000002358+000000000+000000336+0000002690+0000000004+I20000000000+0000002690+Z
141899001141899903-000183     141899006003000451043SWT LB HEART LOLLY     0000006000+00000393+00000+0001T   00000393+0000001346          1400 ND5150               2AZ
141900000141900               141900               170213GY     1400+00000+GY0000002629+0000002629+000000000+000000369+0000002990+0000000008+I20000000000+0000002990+Z
141900001141900028-000797     141900006001023812124SKEWERS 15cm 100PCE    0000001000+00000876+00000+0001T   00000876+0000001347          1400 ND5305               2AZ
141900002141900563-000319-D   141900006003000581696SERVIETTE 2PLY PINK    0000001000+00001753+00000+0001T   00001753+0000001347          1400 ND5214               2AZ
141901000141901               141901               170213GY     1400+00000+GY0000005995+0000005995+000000000+000000841+0000006836+0000000000+I40000006836+0000000000+Z
141901001141901039-000108     141901006001023524034TEA-LITE CANDLES 8PCE  0000004000+00001490+00000+0001T   00001490+0000001348          1400 ND5510               2AZ
141901002141901112-116038     141901006009681820246TCS CARRIER BAG MIDI   0000001000+00000035+00000+0001T   00000035+0000001348          1400 ND5090               2AZ
141902000141902               141902               170213GY     1400+00000+GY0000010521+0000010521+000000000+000001473+0000011994+0000000000+I40000011994+0000000000+Z
141902001141902089-000018     141902006003000176724KEY CHAIN INSPIRATION  0000001000+00003507+00000+0001T   00003507+0000001350          1400 ND5205               2AZ
141902002141902105-001068     141902006003000629046CONTAINER CLIP LOCK    0000002000+00003507+00000+0001T   00003507+0000001350          1400 ND5210               2AZ
141903000141903               141903               170213GY     1400+00000+GY0000001139+0000001139+000000000+000000160+0000001299+0000000000+I40000001299+0000000000+Z
141903001141903039-000322     141903006001023524157B/CANDLES W/HOLDERS 24 0000001000+00001139+00000+0001T   00001139+0000001351          1400 ND5510               2AZ
141904000141904               141904               170213GY     1400+00000+GY0000001314+0000001314+000000000+000000184+0000001490+0000000008+I20000000000+0000001490+Z
141904001141904004-071280     141904006003000129959WRITABLE-CD SINGLE     0000001000+00001314+00000+0001T   00001314+0000001353          1400 ND5310               2AZ
141905000141905               141905               170213GY     1400+00000+GY0000016619+0000016619+000000000+000002330+0000018940+0000000009+I20000000000+0000018940+Z
141905001141905112-116069     141905006009681820277TCS CARRIER BAG JUMBO  0000001000+00000048+00000+0001T   00000048+0000001355          1400 ND5090               2AZ
141905002141905027-056185     141905006003000638093DISH BRUSH DUCK DESIGN 0000001000+00002630+00000+0001T   00002630+0000001355          1400 ND5212               2AZ
141905003141905903-000200     141905006009826020234SWT CHOC RP CHOCO 23G  0000002000+00000788+00000+0001T   00000788+0000001355          1400 ND5150               2AZ
141905004141905028-000795     141905006001023812063SKEWERS 10cm 100PCE 3mm0000001000+00000964+00000+0001T   00000964+0000001355          1400 ND5305               2AZ
141905005141905048-000865     141905006003000371433TORCH KEY CHAIN 5LED   0000001000+00002630+00000+0001T   00002630+0000001355          1400 ND5305               2AZ
141905006141905028-000027     141905006003000275816C/BAG+POCKET 27x18x23cm0000001000+00008771+00000+0001T   00008771+0000001355          1400 ND5305               2AZ
141906000141906               141906               170213GY     1400+00000+GY0000002100+0000002100+000000000+000000294+0000002390+0000000004+I20000000000+0000002390+Z
141906001141906261-000121     141906006001023341600GUN-CAPS 8-SHOT CARD-9 0000003000+00000700+00000+0001T   00000700+0000001402          1400 ND5710               2AZ
141907000141907               141907               170213GY     1400+00000+GY0000000613+0000000613+000000000+000000086+0000000699+0000000000+I40000000699+0000000000+Z
141907001141907033-008209     141907006001023678607MEASURING-TAPE 150cm   0000001000+00000613+00000+0001T   00000613+0000001404          1400 ND5200               2AZ
141908000141908               141908               170213GY     1400+00000+GY0000008113+0000008113+000000000+000001139+0000009252+0000000000+I40000009252+0000000000+Z
141908001141908036-000151     141908006001023810588COATHANGERS    PACK-10 0000002000+00002893+00000+0001T   00002893+0000001406          1400 ND5212               2AZ
141908002141908027-001020     141908006001246602519BROOM FLOOR W/HANDLE   0000001000+00002279+00000+0001T   00002279+0000001406          1400 ND5212               2AZ
141908003141908112-116069     141908006009681820277TCS CARRIER BAG JUMBO  0000001000+00000048+00000+0001T   00000048+0000001406          1400 ND5090               2AZ
141909000141909               141909               170213GY     1400+00000+GY0000006138+0000006138+000000000+000000860+0000006998+0000000000+I40000006998+0000000000+Z
141909001141909001-000175     141909006001023788108B/MUG GLS LOVE 380ML   0000001000+00004385+00000+0001T   00004385+0000001407          1400 ND5515               2AZ
141909002141909077-000309     141909006001023608604GIFT-BAG 25X32CM GLOSS 0000001000+00001753+00000+0001T   00001753+0000001407          1400 ND5112               2AZ
141910000141910               141910               170213GY     1400+00000+GY0000006138+0000006138+000000000+000000860+0000006998+0000000000+I40000006998+0000000000+Z
141910001141910001-000175     141910006001023788108B/MUG GLS LOVE 380ML   0000001000+00004385+00000+0001T   00004385+0000001408          1400 ND5515               2AZ
141910002141910077-000309     141910006001023608604GIFT-BAG 25X32CM GLOSS 0000001000+00001753+00000+0001T   00001753+0000001408          1400 ND5112               2AZ
141911000141911               141911               170213GY     1400+00000+GY0000003506+0000003506+000000000+000000492+0000003998+0000000000+I40000003998+0000000000+Z
141911001141911080-008102     141911006003000080724CARD&ENV MINI 6PK FOIL 0000002000+00001753+00000+0001T   00001753+0000001409          1400 ND5112               2AZ
141912000141912               141912               170213GY     1400+00000+GY0000007350+0000007350+000000000+000001034+0000008380+0000000004+I20000000000+0000008380+Z
141912001141912903-000619     141912006003000672455SWT LOLLY STR/BRRY 140G0000001000+00001753+00000+0001T   00001753+0000001410          1400 ND5150               2AZ
141912002141912077-000239     141912006003000160419GIFT-RIBBON ROLL PEARL 0000001000+00001753+00000+0001T   00001753+0000001410          1400 ND5112               2AZ
141912003141912019-071594     141912006003000505579PEBBLES GLS 250g RED   0000001000+00002630+00000+0001T   00002630+0000001410          1400 ND5510               2AZ
141912004141912903-000183     141912006003000451043SWT LB HEART LOLLY     0000003000+00000393+00000+0001T   00000393+0000001410          1400 ND5150               2AZ
141912005141912112-116038     141912006009681820246TCS CARRIER BAG MIDI   0000001000+00000035+00000+0001T   00000035+0000001410          1400 ND5090               2AZ
141913000141913               141913               170213GY     1400+00000+GY0000005923+0000005923+000000000+000000830+0000006750+0000000003+I20000000000+0000006750+Z
141913001141913368-000001     141913006003000097982Plush Bear 25cm        0000001000+00004385+00000+0001T   00004385+0000001411          1400 ND5745               2AZ
141913002141913077-000299     141913006003000395576G/BAG 32x25cm LRG LOVE 0000001000+00001490+00000+0001T   00001490+0000001411          1400 ND5112               2AZ
141913003141913112-116069     141913006009681820277TCS CARRIER BAG JUMBO  0000001000+00000048+00000+0001T   00000048+0000001411          1400 ND5090               2AZ
141914000141914               141914               170213GY     1400+00000+GY0000004594+0000004594+000000000+000000644+0000005238+0000000000+I40000005238+0000000000+Z
141914001141914079-006494     141914006003000159864GLITTER GLUE 5PCE 11cm 0000001000+00001490+00000+0001T   00001490+0000001415          1400 ND5130               2AZ
141914002141914079-014152     141914006003000253074ART+CRAFT PK50 ASSTD   0000001000+00003069+00000+0001T   00003069+0000001415          1400 ND5130               2AZ
141914003141914112-116038     141914006009681820246TCS CARRIER BAG MIDI   0000001000+00000035+00000+0001T   00000035+0000001415          1400 ND5090               2AZ
141915000141915               141915               170213GY     1400+00000+GY0000019908+0000019908+000000000+000002789+0000022690+0000000007+I20000000000+0000022690+Z
141915001141915039-809558     141915006003000344376CANDLE PILLAR 12CM 4AST0000001000+00006139+00000+0001T   00006139+0000001416          1400 ND5510               2AZ
141915002141915077-000299     141915006003000395576G/BAG 32x25cm LRG LOVE 0000001000+00001490+00000+0001T   00001490+0000001416          1400 ND5112               2AZ
141915003141915368-000111     141915006001023780812PLUSH BEAR/DOG 29CM    0000001000+00012279+00000+0001T   00012279+0000001416          1400 ND5745               2AZ
141916000141916               141916               170213GY     1400+00000+GY0000002192+0000002192+000000000+000000307+0000002490+0000000009+I20000000000+0000002490+Z
141916001141916024-091103     141916006003453014307BAKING-CUP MUFFIN 50PCE0000001000+00002192+00000+0001T   00002192+0000001417          1400 ND5300               2AZ
141917000141917               141917               170213GY     1400+00000+GY0000001179+0000001179+000000000+000000168+0000001340+0000000007+I20000000000+0000001340+Z
141917001141917903-000183     141917006003000451043SWT LB HEART LOLLY     0000003000+00000393+00000+0001T   00000393+0000001417          1400 ND5150               2AZ
141918000141918               141918               170213GY     1400+00000+GY0000000035+0000000035+000000000+000000005+0000000040+0000000000+I20000000000+0000000040+Z
141918001141918112-116038     141918006009681820246TCS CARRIER BAG MIDI   0000001000+00000035+00000+0001T   00000035+0000001418          1400 ND5090               2AZ
141919000141919               141919               170213GY     1400+00000+GY0000007264+0000007264+000000000+000001019+0000008283+0000000000+I40000008283+0000000000+Z
141919001141919903-000519     141919006001704012805SWT MS LIQ-O-GHETTI    0000001000+00001227+00000+0001T   00001227+0000001420          1400 ND5150               2AZ
141919002141919903-000517     141919006001704012768SWT STRAWS FIZZY CHERRY0000001000+00001227+00000+0001T   00001227+0000001420          1400 ND5150               2AZ
141919003141919080-000124     141919006003000297733CARD & ENV VALENTINES  0000001000+00001578+00000+0001T   00001578+0000001420          1400 ND5112               2AZ
141919004141919077-000452     141919006003000284986G/BAG METALLIC MED EMB 0000001000+00001490+00000+0001T   00001490+0000001420          1400 ND5112               2AZ
141919005141919903-000183     141919006003000451043SWT LB HEART LOLLY     0000001000+00000393+00000+0001T   00000393+0000001420          1400 ND5150               2AZ
141919006141919089-000187     141919006003000594245KEY CHAIN PVC DUCK 3.5 0000001000+00001314+00000+0001T   00001314+0000001420          1400 ND5205               2AZ
141919007141919112-116038     141919006009681820246TCS CARRIER BAG MIDI   0000001000+00000035+00000+0001T   00000035+0000001420          1400 ND5090               2AZ
141920000141920               141920               170213GY     1400+00000+GY0000001753+0000001753+000000000+000000246+0000001990+0000000009+I20000000000+0000001990+Z
141920001141920466-008889     141920006001023835376WHISTLE SPORTS+STRING  0000001000+00001753+00000+0001T   00001753+0000001420          1400 ND5785               2AZ
141921000141921               141921               170213GY     1400+00000+GY0000011431+0000011431+000000000+000001604+0000013030+0000000005+I20000000000+0000013030+Z
141921001141921366-006104     141921006003000616930DRESS UP FACE PAINT    0000002000+00001753+00000+0001T   00001753+0000001422          1400 ND5131               2AZ
141921002141921006-006013     141921006001023735195PARTY-SPRAY STRING     0000001000+00002630+00000+0001T   00002630+0000001422          1400 ND5131               2AZ
141921003141921006-006019     141921006001023908193PARTY-SPRAY GLITTER    0000002000+00002630+00000+0001T   00002630+0000001422          1400 ND5131               2AZ
141921004141921112-116038     141921006009681820246TCS CARRIER BAG MIDI   0000001000+00000035+00000+0001T   00000035+0000001422          1400 ND5090               2AZ
141922000141922               141922               170213GY     1400+00000+GY0000002665+0000002665+000000000+000000374+0000003030+0000000009+I20000000000+0000003030+Z
141922001141922016-006425     141922006001023998170S/JAR GLS CLIP W/RIBBON0000001000+00002630+00000+0001T   00002630+0000001423          1400 ND5300               2AZ
141922002141922112-116038     141922006009681820246TCS CARRIER BAG MIDI   0000001000+00000035+00000+0001T   00000035+0000001423          1400 ND5090               2AZ
141923000141923               141923               170213GY     1400+00000+GY0000006138+0000006138+000000000+000000860+0000006998+0000000000+I40000006998+0000000000+Z
141923001141923001-000175     141923006001023788108B/MUG GLS LOVE 380ML   0000001000+00004385+00000+0001T   00004385+0000001424          1400 ND5515               2AZ
141923002141923077-000454     141923006003000285266G/BAG METALLIC LRG EMB 0000001000+00001753+00000+0001T   00001753+0000001424          1400 ND5112               2AZ
141924000141924               141924               170213GY     1400+00000+GY0000006737+0000006737+000000000+000000947+0000007684+0000000000+I40000007684+0000000000+Z
141924001141924112-116038     141924006009681820246TCS CARRIER BAG MIDI   0000001000+00000035+00000+0001T   00000035+0000001428          1400 ND5090               2AZ
141924002141924903-000510     141924006001704012621SWEET MS ZBDZ S/BERRY  0000001000+00001227+00000+0001T   00001227+0000001428          1400 ND5150               2AZ
141924003141924903-000519     141924006001704012805SWT MS LIQ-O-GHETTI    0000001000+00001227+00000+0001T   00001227+0000001428          1400 ND5150               2AZ
141924004141924089-060027     141924006003000245871KEY-CHAIN HEART 6X6cm  0000001000+00003069+00000+0001T   00003069+0000001428          1400 ND5205               2AZ
141924005141924903-000183     141924006003000451043SWT LB HEART LOLLY     0000003000+00000393+00000+0001T   00000393+0000001428          1400 ND5150               2AZ
141925000141925               141925               170213GY     1400+00000+GY0000004417+0000004417+000000000+000000619+0000005030+0000000006+I20000000000+0000005030+Z
141925001141925112-116038     141925006009681820246TCS CARRIER BAG MIDI   0000001000+00000035+00000+0001T   00000035+0000001429          1400 ND5090               2AZ
141925002141925046-000012     141925006904708013062BATTERIES AA  CARD-OF-40000001000+00001314+00000+0001T   00001314+0000001429          1400 ND5312               2AZ
141925003141925071-005213     141925006001023690371CELLOTAPE 12mmx33m     0000001000+00000876+00000+0001T   00000876+0000001429          1400 ND5130               2AZ
141925004141925563-000318-L   141925006003000407088SERVIETTES 33cm RED    0000001000+00002192+00000+0001T   00002192+0000001429          1400 ND5214               2AZ
141926000141926               141926               170213GY     1400+00000+GY0000011838+0000011838+000000000+000001658+0000013490+0000000006+I20000000000+0000013490+Z
141926001141926566-000031     141926006003000283910STICKER BK TEACHER STIC0000003000+00002192+00000+0001T   00002192+0000001430          1400 ND5130               2AZ
141926002141926079-000336     141926006003000670758SUPER FINE MARKER PENS 0000001000+00005262+00000+0001T   00005262+0000001430          1400 ND5130               2AZ
141927000141927               141927               170213GY     1400+00000+GY0000001753+0000001753+000000000+000000246+0000001990+0000000009+I20000000000+0000001990+Z
141927001141927006-000120     141927006001023346889BALLOONS 10PC MIX COL  0000001000+00001753+00000+0001T   00001753+0000001430          1400 ND5131               2AZ
141928000141928               141928               170213GY     1400+00000+GY0000014480-0000000000+000000000+000000000+0000014480-0000000000+I20000000000+0000014480-Z
141928001141928001-999901     141928000000000999901CASUAL WAGES           0000001000-00014480+00000+0001X  8811205633086 0800JMONNA0000000000 ND59011IC TLALA      2 Z
141929000141929               141929               170213GY     1400+00000+GY0000011010+0000011010+000000000+000001542+0000012550+0000000002+I20000000000+0000012550+Z
141929001141929112-116069     141929006009681820277TCS CARRIER BAG JUMBO  0000001000+00000048+00000+0001T   00000048+0000001433          1400 ND5090               2AZ
141929002141929001-000175     141929006001023788108B/MUG GLS LOVE 380ML   0000001000+00004385+00000+0001T   00004385+0000001433          1400 ND5515               2AZ
141929003141929031-080508     141929006001023802415P/FRAME PL 22X11CM LOVE0000001000+00004385+00000+0001T   00004385+0000001433          1400 ND5510               2AZ
141929004141929080-000127     141929006003000424351VALENTINES DAY 36x24CM 0000001000+00002192+00000+0001T   00002192+0000001433          1400 ND5112               2AZ
141930000141930               141930               170213GY     1400+00000+GY0000003993+0000003993+000000000+000000560+0000004553+0000000000+I40000004553+0000000000+Z
141930001141930039-000114     141930006001023524058CANDLE T/LITE RED 3.5CM0000001000+00001753+00000+0001T   00001753+0000001436          1400 ND5510               2AZ
141930002141930080-000127     141930006003000424351VALENTINES DAY 36x24CM 0000001000+00002192+00000+0001T   00002192+0000001436          1400 ND5112               2AZ
141930003141930112-116069     141930006009681820277TCS CARRIER BAG JUMBO  0000001000+00000048+00000+0001T   00000048+0000001436          1400 ND5090               2AZ
141931000141931               141931               170213GY     1400+00000+GY0000001753+0000001753+000000000+000000246+0000001990+0000000009+I20000000000+0000001990+Z
141931001141931077-000454     141931006003000285266G/BAG METALLIC LRG EMB 0000001000+00001753+00000+0001T   00001753+0000001436          1400 ND5112               2AZ
141932000141932               141932               170213GY     1400+00000+GY0000002892+0000002892+000000000+000000406+0000003290+0000000008+I20000000000+0000003290+Z
141932001141932077-000240     141932006003000326259G/RIBBON 4PC PEARLIZED 0000001000+00001753+00000+0001T   00001753+0000001437          1400 ND5112               2AZ
141932002141932903-000087     141932006001704000161SWT SPECKLED-EGGS 50G  0000001000+00001139+00000+0001T   00001139+0000001437          1400 ND5150               2AZ
141933000141933               141933               170213GY     1400+00000+GY0000003506+0000003506+000000000+000000492+0000003990+0000000008+I20000000000+0000003990+Z
141933001141933080-000108     141933006003000237210CARD&ENVLPE BDAY-BOY   0000001000+00001753+00000+0001T   00001753+0000001438          1400 ND5112               2AZ
141933002141933080-000104     141933006003000236978CARD&ENVLP MALE AFR    0000001000+00001753+00000+0001T   00001753+0000001438          1400 ND5112               2AZ
141934000141934               141934               170213GY     1400+00000+GY0000017540+0000017540+000000000+000002457+0000019997+0000000000+I40000019997+0000000000+Z
141934001141934006-000190     141934006003000685530BALLOONS LOVE 81x91cm  0000001000+00004385+00000+0001T   00004385+0000001441          1400 ND5131               2AZ
141934002141934077-000457     141934006003000285662G/BAG METALLIC JMB SOL 0000001000+00001753+00000+0001T   00001753+0000001441          1400 ND5112               2AZ
141934003141934368-000637     141934006001023874092PLUSH BEAR SLEEPING LOV0000001000+00011402+00000+0001T   00012279+0006471441          1400 ND5745               2AZ
141935000141935               141935               170213GY     1400+00000+GY0000004635+0000004635+000000000+000000650+0000005280+0000000005+I20000000000+0000005280+Z
141935001141935018-000130     141935006001023867537MUG OCC LOVE MINI+HEART0000001000+00003507+00000+0001T   00003507+0000001442          1400 ND5515               2AZ
141935002141935903-000183     141935006003000451043SWT LB HEART LOLLY     0000001000+00000393+00000+0001T   00000393+0000001442          1400 ND5150               2AZ
141935003141935112-116038     141935006009681820246TCS CARRIER BAG MIDI   0000001000+00000035+00000+0001T   00000035+0000001442          1400 ND5090               2AZ
141935004141935018-000177     141935006001023797513MUG MINI LOVE ASSTD    0000001000+00000700+00000+0001T   00000700+0000001442          1400 ND5515               2AZ
141936000141936               141936               170213GY     1400+00000+GY0000010031+0000010031+000000000+000001406+0000011437+0000000000+I40000011437+0000000000+Z
141936001141936046-000015     141936006001023680839BATTERIES SIZE:D   2PCE0000002000+00002367+00000+0001T   00002367+0000001445          1400 ND5312               2AZ
141936002141936362-001045     141936006001023843449MAKE-UP TEEN GIFT SET  0000001000+00005262+00000+0001T   00005262+0000001445          1400 ND5160               2AZ
141936003141936112-116038     141936006009681820246TCS CARRIER BAG MIDI   0000001000+00000035+00000+0001T   00000035+0000001445          1400 ND5090               2AZ
141937000141937               141937               170213GY     1400+00000+GY0000004607+0000004607+000000000+000000646+0000005250+0000000003+I20000000000+0000005250+Z
141937001141937077-000299     141937006003000395576G/BAG 32x25cm LRG LOVE 0000001000+00001490+00000+0001T   00001490+0000001446          1400 ND5112               2AZ
141937002141937140-001007     141937006001023617163FLY-STICK STAND 260x36 0000001000+00003069+00000+0001T   00003069+0000001446          1400 ND5830               2AZ
141937003141937112-116069     141937006009681820277TCS CARRIER BAG JUMBO  0000001000+00000048+00000+0001T   00000048+0000001446          1400 ND5090               2AZ
141938000141938               141938               170213GY     1400+00000+GY0000013190+0000013190+000000000+000001847+0000015030+0000000007+I20000000000+0000015030+Z
141938001141938031-000849     141938006001023851932P/FRM COLLAGE 3-HOLE   0000003000+00004385+00000+0001T   00004385+0000001447          1400 ND5510               2AZ
141938002141938112-116038     141938006009681820246TCS CARRIER BAG MIDI   0000001000+00000035+00000+0001T   00000035+0000001447          1400 ND5090               2AZ
141939000141939               141939               170213GY     1400+00000+GY0000003506+0000003506+000000000+000000492+0000003998+0000000000+I40000003998+0000000000+Z
141939001141939036-000010     141939006003000675777LINT REMOVER STICKY    0000002000+00001753+00000+0001T   00001753+0000001449          1400 ND5212               2AZ
141940000141940               141940               170213GY     1400+00000+GY0000001227+0000001227+000000000+000000172+0000001390+0000000009+I20000000000+0000001390+Z
141940001141940206-000630     141940006003000631919SPECTACLE CLEANING BRUS0000001000+00001227+00000+0001T   00001227+0000001453          1400 ND5321               2AZ
141941000141941               141941               170213GY     1400+00000+GY0000007145+0000007145+000000000+000001004+0000008140+0000000009+I20000000000+0000008140+Z
141941001141941903-000183     141941006003000451043SWT LB HEART LOLLY     0000002000+00000393+00000+0001T   00000393+0000001457          1400 ND5150               2AZ
141941002141941263-000410     141941006001023827135VEHICLE BOAT           0000001000+00000876+00000+0001T   00001314+0008141457          1400 ND5710               2AZ
141941003141941079-000261     141941006003000159727PAINT WATER COLOUR CAKE0000001000+00004385+00000+0001T   00004385+0000001457          1400 ND5130               2AZ
141941004141941007-000120     141941006009698062714BOOK DRAWING A4 24-PAGE0000002000+00000525+00000+0001T   00000525+0000001457          1400 ND5130               2AZ
141941005141941112-116069     141941006009681820277TCS CARRIER BAG JUMBO  0000001000+00000048+00000+0001T   00000048+0000001457          1400 ND5090               2AZ
141942000141942               141942               170213GY     1400+00000+GY0000001753+0000001753+000000000+000000246+0000001990+0000000009+I20000000000+0000001990+Z
141942001141942077-000240     141942006003000326259G/RIBBON 4PC PEARLIZED 0000001000+00001753+00000+0001T   00001753+0000001501          1400 ND5112               2AZ
141943000141943               141943               170213GY     1400+00000+GY0000004419+0000004419+000000000+000000619+0000005030+0000000008+I20000000000+0000005030+Z
141943001141943563-000318-L   141943006003000407088SERVIETTES 33cm RED    0000002000+00002192+00000+0001T   00002192+0000001515          1400 ND5214               2AZ
141943002141943112-116038     141943006009681820246TCS CARRIER BAG MIDI   0000001000+00000035+00000+0001T   00000035+0000001515          1400 ND5090               2AZ
141944000141944               141944               170213GY     1400+00000+GY0000008801+0000008801+000000000+000001234+0000010030+0000000005+I20000000000+0000010030+Z
141944001141944046-002013-PK6 141944004897006174851BATTERY BUTTON AG13 6PC0000002000+00001753+00000+0001T   00001753+0000001520          1400 ND5312               2AZ
141944002141944072-020264     141944006001023602565PET DOG CLEAN-UP BAGS  0000001000+00003507+00000+0001T   00003507+0000001520          1400 ND5870               2AZ
141944003141944072-020271     141944006001023719522CAT LITTER-SCOOP 33cm  0000001000+00001753+00000+0001T   00001753+0000001520          1400 ND5870               2AZ
141944004141944112-116038     141944006009681820246TCS CARRIER BAG MIDI   0000001000+00000035+00000+0001T   00000035+0000001520          1400 ND5090               2AZ
141945000141945               141945               170213GY     1400+00000+GY0000007063+0000007063+000000000+000000990+0000008050+0000000003+I20000000000+0000008050+Z
141945001141945077-000472     141945006003000330133G-BAG DESGNR LRG 25X32 0000001000+00001753+00000+0001T   00001753+0000001521          1400 ND5112               2AZ
141945002141945018-000129-A   141945006003000441396MUG CERAMIC JUMBO      0000001000+00005262+00000+0001T   00005262+0000001521          1400 ND5515               2AZ
141945003141945112-116069     141945006009681820277TCS CARRIER BAG JUMBO  0000001000+00000048+00000+0001T   00000048+0000001521          1400 ND5090               2AZ
141946000141946               141946               170213GY     1400+00000+GY0000010692+0000010692+000000000+000001498+0000012190+0000000000+I20000000000+0000012190+Z
141946001141946077-000299-A   141946006003000670888GIFT-BAG PAPER JMB LOVE0000001000+00001753+00000+0001T   00001753+0000001544          1400 ND5112               2AZ
141946002141946368-000175     141946006003000270316PLUSH BEAR 4 ASSTD 18CM0000001000+00006139+00000+0001T   00006139+0000001544          1400 ND5745               2AZ
141946003141946018-000177     141946006001023797513MUG MINI LOVE ASSTD    0000004000+00000700+00000+0001T   00000700+0000001544          1400 ND5515               2AZ
141947000141947               141947               170213GY     1400+00000+GY0000001490+0000001490+000000000+000000209+0000001690+0000000009+I20000000000+0000001690+Z
141947001141947140-001004     141947006001023880932FLY-RIBBONS 4PCE PL    0000001000+00001490+00000+0001T   00001490+0000001544          1400 ND5830               2AZ
141948000141948               141948               170213GY     1400+00000+GY0000001314+0000001314+000000000+000000184+0000001490+0000000008+I20000000000+0000001490+Z
141948001141948072-000235     141948006003000236183DOG-COLLAR REFLECTIVE  0000001000+00001314+00000+0001T   00001753+0008191546          1400 ND5870               2AZ
141949000141949               141949               170213GY     1400+00000+GY0000006664+0000006664+000000000+000000934+0000007598+0000000000+I40000007598+0000000000+Z
141949001141949203-006000     141949006001023994493ICE-BALL IN-BAG    16PC0000002000+00003332+00000+0001T   00003332+0000001558          1400 ND5300               2AZ
141950000141950               141950               170213GY     1400+00000+GY0000003243+0000003243+000000000+000000455+0000003690+0000000008+I20000000000+0000003690+Z
141950001141950036-000605     141950006001023158611WASHING-PEGS WDN PCK-240000001000+00001490+00000+0001T   00001490+0000001619          1400 ND5212               2AZ
141950002141950079-003002     141950006003000447886A/TUBE 75ML RED        0000001000+00001753+00000+0001T   00001753+0000001619          1400 ND5130               2AZ
141951000141951               141951               170213GY     1400+00000+GY0000001753+0000001753+000000000+000000246+0000001990+0000000009+I20000000000+0000001990+Z
141951001141951077-000299-A   141951006003000670888GIFT-BAG PAPER JMB LOVE0000001000+00001753+00000+0001T   00001753+0000001630          1400 ND5112               2AZ
141952000141952               141952               170213GY     1400+00000+GY0000006139+0000006139+000000000+000000860+0000006999+0000000000+I40000006999+0000000000+Z
141952001141952035-000001     141952006002596010566UMBRELLA LADIES W/MINI 0000001000+00006139+00000+0001T   00006139+0000001633          1400 ND5205               2AZ
141953000141953               141953               170213GY     1400+00000+GY0000000613+0000000613+000000000+000000086+0000000690+0000000009+I20000000000+0000000690+Z
141953001141953150-004028-H   141953006003000649976BATH-PLUG RUBBER BLACK 0000001000+00000613+00000+0001T   00000613+0000001634          1400 ND5810               2AZ
141954000141954               141954               170213GY     1400+00000+GY0000007940+0000007940+000000000+000001113+0000009050+0000000003+I20000000000+0000009050+Z
141954001141954077-000309     141954006001023608604GIFT-BAG 25X32CM GLOSS 0000001000+00001753+00000+0001T   00001753+0000001635          1400 ND5112               2AZ
141954002141954368-000265     141954006001023750914PLUSH BEAR 23CM ASSTD C0000001000+00006139+00000+0001T   00006139+0000001635          1400 ND5745               2AZ
141954003141954112-116069     141954006009681820277TCS CARRIER BAG JUMBO  0000001000+00000048+00000+0001T   00000048+0000001635          1400 ND5090               2AZ
141955000141955               141955               170213GY     1400+00000+GY0000001578+0000001578+000000000+000000221+0000001790+0000000009+I20000000000+0000001790+Z
141955001141955077-000303     141955006001023593757GIFT-BAG PAPER MED     0000001000+00001578+00000+0001T   00001578+0000001635          1400 ND5112               2AZ
141956000141956               141956               170213GY     1400+00000+GY0000001434+0000001434+000000000+000000203+0000001630+0000000007+I20000000000+0000001630+Z
141956001141956150-004028-H   141956006003000649976BATH-PLUG RUBBER BLACK 0000001000+00000613+00000+0001T   00000613+0000001638          1400 ND5810               2AZ
141956002141956112-116038     141956006009681820246TCS CARRIER BAG MIDI   0000001000+00000035+00000+0001T   00000035+0000001638          1400 ND5090               2AZ
141956003141956903-000183     141956006003000451043SWT LB HEART LOLLY     0000002000+00000393+00000+0001T   00000393+0000001638          1400 ND5150               2AZ
141957000141957               141957               170213GY     1400+00000+GY0000002453+0000002453+000000000+000000344+0000002790+0000000007+I20000000000+0000002790+Z
141957001141957007-000537     141957000651728791017NOTE-PAD RND SMILE-FACE0000001000+00000700+00000+0001T   00000700+0000001639          1400 ND5130               2AZ
141957002141957077-000316     141957006001023609731GIFT-BAG 25X32CM MATT  0000001000+00001753+00000+0001T   00001753+0000001639          1400 ND5112               2AZ
141958000141958               141958               170213GY     1400+00000+GY0000013065+0000013065+000000000+000001831+0000014890+0000000006+I20000000000+0000014890+Z
141958001141958077-000457     141958006003000285662G/BAG METALLIC JMB SOL 0000001000+00001753+00000+0001T   00001753+0000001641          1400 ND5112               2AZ
141958002141958077-000010-D   141958006001023123886CREPE-PAPER WHITE      0000001000+00000788+00000+0001T   00000788+0000001641          1400 ND5112               2AZ
141958003141958047-000011-H   141958006001023879943M/PLUG 6-WAY-SURGE     0000001000+00008771+00000+0001T   00008771+0000001641          1400 ND5880               2AZ
141958004141958047-000510     141958006003000304080PLUG-ADAPTOR 2x2P EURO 0000001000+00001753+00000+0001T   00001753+0000001641          1400 ND5880               2AZ
141959000141959               141959               170213GY     1400+00000+GY0000003189+0000003189+000000000+000000447+0000003630+0000000006+I20000000000+0000003630+Z
141959001141959007-000104     141959006009685854865BK COVER BRWN KRFT ROLL0000003000+00000350+00000+0001T   00000350+0000001648          1400 ND5130               2AZ
141959002141959112-116038     141959006009681820246TCS CARRIER BAG MIDI   0000001000+00000035+00000+0001T   00000035+0000001648          1400 ND5090               2AZ
141959003141959903-000095     141959006001704011495SWT SPECKLED-EGGS 100G 0000001000+00002104+00000+0001T   00002104+0000001648          1400 ND5150               2AZ
141960000141960               141960               170213GY     1400+00000+GY0000027187+0000027187+000000000+000003822+0000031009+0000000000+I40000031009+0000000000+Z
141960001141960035-000030     141960006002596030229UMBRELLA GOLF 16-RIB   0000001000+00011402+00000+0001T   00011402+0000001650          1400 ND5205               2AZ
141960002141960903-000151     141960006009803374411SWT SML RND R/BOW LOLLY0000030000+00000525+00000+0001T   00000525+0000001650          1400 ND5150               2AZ
141960003141960112-116038     141960006009681820246TCS CARRIER BAG MIDI   0000001000+00000035+00000+0001T   00000035+0000001650          1400 ND5090               2AZ
141961000141961               141961               170213GY     1400+00000+GY0000010524+0000010524+000000000+000001474+0000011990+0000000008+I20000000000+0000011990+Z
141961001141961035-000013     141961006001023450180UMBRELLA KIDDIES 34cm  0000002000+00005262+00000+0001T   00005262+0000001653          1400 ND5205               2AZ
141962000141962               141962               170213GY     1400+00000+GY0000000700+0000000700+000000000+000000098+0000000790+0000000008+I20000000000+0000000790+Z
141962001141962018-000177     141962006001023797513MUG MINI LOVE ASSTD    0000001000+00000700+00000+0001T   00000700+0000001653          1400 ND5515               2AZ
141963000141963               141963               170213GY     1400+00000+GY0000002630+0000002630+000000000+000000369+0000002990+0000000009+I20000000000+0000002990+Z
141963001141963071-005669     141963006003000153268STAPLER MINI W/STAPLES 0000001000+00002630+00000+0001T   00002630+0000001654          1400 ND5130               2AZ
141964000141964               141964               170213GY     1400+00000+GY0000008276+0000008276+000000000+000001160+0000009436+0000000000+I40000009436+0000000000+Z
141964001141964077-000408     141964006003000145218G/BAG PP 15X21X7CM     0000001000+00000876+00000+0001T   00000876+0000001656          1400 ND5112               2AZ
141964002141964018-000210     141964006003000580095MUG DAILY TEXTS 4-ASST 0000001000+00001753+00000+0001T   00001753+0000001656          1400 ND5515               2AZ
141964003141964077-000245     141964006001023759214GIFT-RIBBON METALLICx2 0000001000+00001227+00000+0001T   00001227+0000001656          1400 ND5112               2AZ
141964004141964006-000190     141964006003000685530BALLOONS LOVE 81x91cm  0000001000+00004385+00000+0001T   00004385+0000001656          1400 ND5131               2AZ
141964005141964112-116038     141964006009681820246TCS CARRIER BAG MIDI   0000001000+00000035+00000+0001T   00000035+0000001656          1400 ND5090               2AZ
141965000141965               141965               170213GY     1400+00000+GY0000007927+0000007927+000000000+000001111+0000009038+0000000000+I40000009038+0000000000+Z
141965001141965036-000013     141965006001246500860LINT REMOVER REFILLS   0000002000+00003946+00000+0001T   00003946+0000001658          1400 ND5212               2AZ
141965002141965112-116038     141965006009681820246TCS CARRIER BAG MIDI   0000001000+00000035+00000+0001T   00000035+0000001658          1400 ND5090               2AZ
141966000141966               141966               170213GY     1400+00000+GY0000006174+0000006174+000000000+000000865+0000007030+0000000009+I20000000000+0000007030+Z
141966001141966112-116038     141966006009681820246TCS CARRIER BAG MIDI   0000001000+00000035+00000+0001T   00000035+0000001658          1400 ND5090               2AZ
141966002141966018-050000     141966006003000412679MUG OCC LOVE TWIN BEAR 0000001000+00006139+00000+0001T   00006139+0000001658          1400 ND5515               2AZ
141967000141967               141967               170213GY     1400+00000+GY0000008627+0000008627+000000000+000001208+0000009830+0000000005+I20000000000+0000009830+Z
141967001141967018-000127     141967006001023380289MUG OCC STRAIGHT LOVE  0000001000+00001578+00000+0001T   00001753+0006471700          1400 ND5515               2AZ
141967002141967018-005009     141967006001023725608MUG W/PLUSH-BEAR LOVE  0000002000+00003507+00000+0001T   00003507+0000001700          1400 ND5515               2AZ
141967003141967112-116038     141967006009681820246TCS CARRIER BAG MIDI   0000001000+00000035+00000+0001T   00000035+0000001700          1400 ND5090               2AZ
141968000141968               141968               170213GY     1400+00000+GY0000001928+0000001928+000000000+000000270+0000002190+0000000008+I20000000000+0000002190+Z
141968001141968050-000361-Z   141968006001023535382PADLOCK IRON 20mm CARD 0000001000+00001928+00000+0001T   00001928+0000001702          1400 ND5855               2AZ
141969000141969               141969               170213GY     1400+00000+GY0000002015+0000002015+000000000+000000283+0000002290+0000000008+I20000000000+0000002290+Z
141969001141969903-000087     141969006001704000161SWT SPECKLED-EGGS 50G  0000001000+00001139+00000+0001T   00001139+0000001703          1400 ND5150               2AZ
141969002141969903-000123     141969006925925909280SWEET GS MINI MALLOWS  0000001000+00000876+00000+0001T   00000876+0000001703          1400 ND5150               2AZ
141970000141970               141970               170213GY     1400+00000+GY0000006011+0000006011+000000000+000000842+0000006853+0000000000+I40000006853+0000000000+Z
141970001141970077-000303     141970006001023593757GIFT-BAG PAPER MED     0000001000+00001578+00000+0001T   00001578+0000001705          1400 ND5112               2AZ
141970002141970368-000001     141970006003000097982Plush Bear 25cm        0000001000+00004385+00000+0001T   00004385+0000001705          1400 ND5745               2AZ
141970003141970112-116069     141970006009681820277TCS CARRIER BAG JUMBO  0000001000+00000048+00000+0001T   00000048+0000001705          1400 ND5090               2AZ
141971000141971               141971               170213GY     1400+00000+GY0000006357+0000006357+000000000+000000892+0000007249+0000000000+I40000007249+0000000000+Z
141971001141971077-000351     141971006003000139033GIFT-BAG 18X23CM E/D P 0000001000+00001753+00000+0001T   00001753+0000001707          1400 ND5112               2AZ
141971002141971903-005001     141971006002580020014SWT CT MALLOW MICE 120g0000001000+00001314+00000+0001T   00001314+0000001707          1400 ND5150               2AZ
141971003141971112-116069     141971006009681820277TCS CARRIER BAG JUMBO  0000001000+00000048+00000+0001T   00000048+0000001707          1400 ND5090               2AZ
141971004141971903-000087     141971006001704000161SWT SPECKLED-EGGS 50G  0000001000+00001139+00000+0001T   00001139+0000001707          1400 ND5150               2AZ
141971005141971903-000510     141971006001704012621SWEET MS ZBDZ S/BERRY  0000001000+00001227+00000+0001T   00001227+0000001707          1400 ND5150               2AZ
141971006141971903-000503     141971006001704006118SWT VAMPIRE FANGS 60G  0000001000+00000876+00000+0001T   00000876+0000001707          1400 ND5150               2AZ
141972000141972               141972               170213GY     1400+00000+GY0000003946+0000003946+000000000+000000553+0000004490+0000000009+I20000000000+0000004490+Z
141972001141972031-000857     141972006001023852144P/FRAME PL BROWN 13X18 0000001000+00003946+00000+0001T   00003946+0000001708          1400 ND5510               2AZ
141973000141973               141973               170213GY     1400+00000+GY0000000700+0000000700+000000000+000000098+0000000790+0000000008+I20000000000+0000000790+Z
141973001141973018-000177     141973006001023797513MUG MINI LOVE ASSTD    0000001000+00000700+00000+0001T   00000700+0000001708          1400 ND5515               2AZ
141974000141974               141974               170213GY     1400+00000+GY0000002192+0000002192+000000000+000000307+0000002490+0000000009+I20000000000+0000002490+Z
141974001141974046-000012-A   141974006003000208296BATTERIES H/POWER SZ:AA0000001000+00002192+00000+0001T   00002192+0000001713          1400 ND5312               2AZ
141975000141975               141975               170213GY     1400+00000+GY0000000876+0000000876+000000000+000000123+0000000999+0000000000+I40000000999+0000000000+Z
141975001141975077-000151     141975006008766114676GIFT-WRAP C/PHANE ASSTD0000001000+00000876+00000+0001T   00000876+0000001716          1400 ND5112               2AZ
141976000141976               141976               170213GY     1400+00000+GY0000009429+0000009429+000000000+000001322+0000010751+0000000000+I40000010751+0000000000+Z
141976001141976112-116069     141976006009681820277TCS CARRIER BAG JUMBO  0000001000+00000048+00000+0001T   00000048+0000001718          1400 ND5090               2AZ
141976002141976200-000130     141976006001023645067DESSERT-SPOONS 10PCE   0000001000+00000613+00000+0001T   00000613+0000001718          1400 ND5214               2AZ
141976003141976006-006018     141976006001023735256PARTY-SPRAY HAIR ASSORT0000001000+00002630+00000+0001T   00002630+0000001718          1400 ND5131               2AZ
141976004141976078-000025     141976008887013700064SUPERGLUE 3g 1PCE CARD 0000001000+00000876+00000+0001T   00000876+0000001718          1400 ND5810               2AZ
141976005141976031-000870-B   141976006001023798657P/FRAME WOOD WHITE-PINE0000001000+00005262+00000+0001T   00005262+0000001718          1400 ND5510               2AZ
141977000141977               141977               170213GY     1400+00000+GY0000006387+0000006387+000000000+000000896+0000007280+0000000003+I20000000000+0000007280+Z
141977001141977018-000170     141977006001023775528MUG OCC. LOVE 2PC MINI 0000001000+00002192+00000+0001T   00002192+0000001720          1400 ND5515               2AZ
141977002141977018-000177     141977006001023797513MUG MINI LOVE ASSTD    0000001000+00000700+00000+0001T   00000700+0000001720          1400 ND5515               2AZ
141977003141977089-000033     141977006003000621217KEY CHAIN MOM POLY ASST0000001000+00001753+00000+0001T   00002630+0008121720          1400 ND5205               2AZ
141977004141977112-116038     141977006009681820246TCS CARRIER BAG MIDI   0000001000+00000035+00000+0001T   00000035+0000001720          1400 ND5090               2AZ
141977005141977077-000407     141977006003000145096G/BAG PP 19X26X8CM     0000001000+00001314+00000+0001T   00001314+0000001720          1400 ND5112               2AZ
141977006141977903-000183     141977006003000451043SWT LB HEART LOLLY     0000001000+00000393+00000+0001T   00000393+0000001720          1400 ND5150               2AZ
A17021300                                          09512498GYSLAVE 2                       ND51IC
A17021301                                          10022341GYSLAVE 2                       ND52IC
A17021302                                          11523616GYSLAVE 2                       ND51IC
A17021303                                          14514187GYSLAVE 2                       ND51IC
A17021304                                          15364555GYSLAVE 2                       ND51IC
A17021305                                          16185658GYSLAVE 2                       ND51IC
B14186300                                          170213GY903-000183     10562114SLAVE 2     ND52IC0000002000+0000001000+0000000000000+
M17021391                              CASH        GYSLAVE 2                       Z-REPORT No.   575TOTAL (Sales - Refunds)           9539.19       CASH TO BE BANKED                 5302.10       DEBIT CARDS                          0.00       CREDIT CARDS                      4092.29       Z-READING                         9394.39       AIRTIME DEBIT CARD SALES             0.00       AIRTIME CARD SALES                   0.00       OVERS/UNDERS                         0.00       AIRTIME CASH SALES                   0.00       GIFT CARDS                           0.00       GIFT CARD CASH SALES                 0.00       CASUAL WAGES                       144.80       T O T A L  CASH PAYOUTS            144.80                                                                                                                                                                                                                                                                                                      Z
M17021392                              CASH        GYABSENT                                                                                                                                                                                          ANNUAL LEAVE                                                                                                                                                                                    DAY OFF                                                                                                                                                                                         COMMENTS                                                                                                                                                                                                                                                                                                                                                                                       Z
Y17021300                                          GY00000000837185+000138
ZGY17021319453 SLAVE 2      SALES DATA                     NEXT INVOICE NO.  141978 0575
X GY Slave 2 First invoice 141839 170213 Last invoice 141977 170213 Next invoice 141978 Total number of records 000000486 clbackup completed 19:45:17
