150322000150322               150322               170213GY     1400+00000+GY0000007011+0000007011+000000000+000000984+0000007995+           I90000000000+0000000000+Z
150322001150322082-094888     150322006001492948881#SUNGLASS MNS PILOT    0000001000+00001753+00000+0001T102614981701-C                  1400 1IC1601ICV             Z
150322002150322082-094474     150322006001492944746#SUNGLASS LRG LOUNGER  0000001000+00001753+00000+0001T102614981701-C                  1400 1IC1601ICV             Z
150322003150322162-081666     150322006001492816661SS NEW 3PK GOLD STUDS  0000002000+00000876+00000+0001T102614981701-C                  1400 1IC1601ICV             Z
150322004150322162-093170     150322006001492931708#TAG DRK RED PENDANT   0000001000+00001753+00000+0001T102614981701-C                  1400 1IC1601ICV             Z
M17021391                              CASH        GYSLAVE 3                       Z-REPORT No.   371TOTAL (Sales - Refunds)              0.00       CASH TO BE BANKED                    0.00       DEBIT CARDS                          0.00       CREDIT CARDS                         0.00       Z-READING                            0.00       AIRTIME DEBIT CARD SALES             0.00       AIRTIME CARD SALES                   0.00       OVERS/UNDERS                         0.00       AIRTIME CASH SALES                   0.00       GIFT CARDS                           0.00       GIFT CARD CASH SALES                 0.00       T O T A L  CASH PAYOUTS              0.00                                                                                                                                                                                                                                                                                                                                                      Z
M17021392                              CASH        GYABSENT                                                                                                                                                                                          ANNUAL LEAVE                                                                                                                                                                                    DAY OFF                                                                                                                                                                                         COMMENTS                                                                                                                                                                                                                                                                                                                                                                                       Z
Y17021300                                          GY00000000000000+000000
ZGY17021319453 SLAVE 3      SALES DATA                     NEXT INVOICE NO.  150323 0371
L53955300351411-001-001       GY1702131117421ICQALA ELIZABETH                                                                                                                                                                                                                                                                                                                                                                                                                                                                                                                                                                                                                                                                                                                                                                                                                                                                                                                                                                                       Z
L54834700351920-001-001       GY1702131121361ICQALA ELIZABETH                                                                                                                                                                                                                                                                                                                                                                                                                                                                                                                                                                                                                                                                                                                                                                                                                                                                                                                                                                                       Z
L55056500353650-001-002       GY1702131111271ICQALA ELIZABETH                                                                                                                                                                                                                                                                                                                                                                                                                                                                                                                                                                                                                                                                                                                                                                                                                                                                                                                                                                                       Z
L55056500353650-002-002       GY1702131117121ICQALA ELIZABETH                                                                                                                                                                                                                                                                                                                                                                                                                                                                                                                                                                                                                                                                                                                                                                                                                                                                                                                                                                                       Z
L55321500356353-001-003       GY1702131115441ICQALA ELIZABETH                                                                                                                                                                                                                                                                                                                                                                                                                                                                                                                                                                                                                                                                                                                                                                                                                                                                                                                                                                                       Z
L55321500356353-002-003       GY1702131115331ICQALA ELIZABETH                                                                                                                                                                                                                                                                                                                                                                                                                                                                                                                                                                                                                                                                                                                                                                                                                                                                                                                                                                                       Z
L55321500356353-003-003       GY1702131126391ICQALA ELIZABETH                                                                                                                                                                                                                                                                                                                                                                                                                                                                                                                                                                                                                                                                                                                                                                                                                                                                                                                                                                                       Z
L55606400353559-001-002       GY1702131118111ICQALA ELIZABETH                                                                                                                                                                                                                                                                                                                                                                                                                                                                                                                                                                                                                                                                                                                                                                                                                                                                                                                                                                                       Z
L55606400353559-002-002       GY1702131112401ICQALA ELIZABETH                                                                                                                                                                                                                                                                                                                                                                                                                                                                                                                                                                                                                                                                                                                                                                                                                                                                                                                                                                                       Z
L56223300353731-001-008       GY1702131121271ICQALA ELIZABETH                                                                                                                                                                                                                                                                                                                                                                                                                                                                                                                                                                                                                                                                                                                                                                                                                                                                                                                                                                                       Z
L56223300353731-002-008       GY1702131116251ICQALA ELIZABETH                                                                                                                                                                                                                                                                                                                                                                                                                                                                                                                                                                                                                                                                                                                                                                                                                                                                                                                                                                                       Z
L56223300353731-003-008       GY1702131128131ICQALA ELIZABETH                                                                                                                                                                                                                                                                                                                                                                                                                                                                                                                                                                                                                                                                                                                                                                                                                                                                                                                                                                                       Z
L56223300353731-004-008       GY1702131118431ICQALA ELIZABETH                                                                                                                                                                                                                                                                                                                                                                                                                                                                                                                                                                                                                                                                                                                                                                                                                                                                                                                                                                                       Z
L56223300353731-005-008       GY1702131127061ICQALA ELIZABETH                                                                                                                                                                                                                                                                                                                                                                                                                                                                                                                                                                                                                                                                                                                                                                                                                                                                                                                                                                                       Z
L56223300353731-006-008       GY1702131126551ICQALA ELIZABETH                                                                                                                                                                                                                                                                                                                                                                                                                                                                                                                                                                                                                                                                                                                                                                                                                                                                                                                                                                                       Z
L56223300353731-007-008       GY1702131114391ICQALA ELIZABETH                                                                                                                                                                                                                                                                                                                                                                                                                                                                                                                                                                                                                                                                                                                                                                                                                                                                                                                                                                                       Z
L56223300353731-008-008       GY1702131113441ICQALA ELIZABETH                                                                                                                                                                                                                                                                                                                                                                                                                                                                                                                                                                                                                                                                                                                                                                                                                                                                                                                                                                                       Z
L56342400353016-001-003       GY1702131112451ICQALA ELIZABETH                                                                                                                                                                                                                                                                                                                                                                                                                                                                                                                                                                                                                                                                                                                                                                                                                                                                                                                                                                                       Z
L56342400353016-002-003       GY1702131117321ICQALA ELIZABETH                                                                                                                                                                                                                                                                                                                                                                                                                                                                                                                                                                                                                                                                                                                                                                                                                                                                                                                                                                                       Z
L56342400353016-003-003       GY1702131126241ICQALA ELIZABETH                                                                                                                                                                                                                                                                                                                                                                                                                                                                                                                                                                                                                                                                                                                                                                                                                                                                                                                                                                                       Z
L56343800353469-001-002       GY1702131127271ICQALA ELIZABETH                                                                                                                                                                                                                                                                                                                                                                                                                                                                                                                                                                                                                                                                                                                                                                                                                                                                                                                                                                                       Z
L56343800353469-002-002       GY1702131127461ICQALA ELIZABETH                                                                                                                                                                                                                                                                                                                                                                                                                                                                                                                                                                                                                                                                                                                                                                                                                                                                                                                                                                                       Z
L56410600355148-001-005       GY1702131128371ICQALA ELIZABETH                                                                                                                                                                                                                                                                                                                                                                                                                                                                                                                                                                                                                                                                                                                                                                                                                                                                                                                                                                                       Z
L56410600355148-002-005       GY1702131125251ICQALA ELIZABETH                                                                                                                                                                                                                                                                                                                                                                                                                                                                                                                                                                                                                                                                                                                                                                                                                                                                                                                                                                                       Z
L56410600355148-003-005       GY1702131127171ICQALA ELIZABETH                                                                                                                                                                                                                                                                                                                                                                                                                                                                                                                                                                                                                                                                                                                                                                                                                                                                                                                                                                                       Z
L56410600355148-004-005       GY1702131115551ICQALA ELIZABETH                                                                                                                                                                                                                                                                                                                                                                                                                                                                                                                                                                                                                                                                                                                                                                                                                                                                                                                                                                                       Z
L56410600355148-005-005       GY1702131115271ICQALA ELIZABETH                                                                                                                                                                                                                                                                                                                                                                                                                                                                                                                                                                                                                                                                                                                                                                                                                                                                                                                                                                                       Z
L56410800355084-001-003       GY1702131125151ICQALA ELIZABETH                                                                                                                                                                                                                                                                                                                                                                                                                                                                                                                                                                                                                                                                                                                                                                                                                                                                                                                                                                                       Z
L56410800355084-002-003       GY1702131118221ICQALA ELIZABETH                                                                                                                                                                                                                                                                                                                                                                                                                                                                                                                                                                                                                                                                                                                                                                                                                                                                                                                                                                                       Z
L56410800355084-003-003       GY1702131117201ICQALA ELIZABETH                                                                                                                                                                                                                                                                                                                                                                                                                                                                                                                                                                                                                                                                                                                                                                                                                                                                                                                                                                                       Z
L56655300353829-001-001       GY1702131125351ICQALA ELIZABETH                                                                                                                                                                                                                                                                                                                                                                                                                                                                                                                                                                                                                                                                                                                                                                                                                                                                                                                                                                                       Z
L57000600356679-001-004       GY1702131116361ICQALA ELIZABETH                                                                                                                                                                                                                                                                                                                                                                                                                                                                                                                                                                                                                                                                                                                                                                                                                                                                                                                                                                                       Z
L57000600356679-002-004       GY1702131127351ICQALA ELIZABETH                                                                                                                                                                                                                                                                                                                                                                                                                                                                                                                                                                                                                                                                                                                                                                                                                                                                                                                                                                                       Z
L57000600356679-003-004       GY1702131117001ICQALA ELIZABETH                                                                                                                                                                                                                                                                                                                                                                                                                                                                                                                                                                                                                                                                                                                                                                                                                                                                                                                                                                                       Z
L57000600356679-004-004       GY1702131118001ICQALA ELIZABETH                                                                                                                                                                                                                                                                                                                                                                                                                                                                                                                                                                                                                                                                                                                                                                                                                                                                                                                                                                                       Z
L57003900354457-001-001       GY1702131114321ICQALA ELIZABETH                                                                                                                                                                                                                                                                                                                                                                                                                                                                                                                                                                                                                                                                                                                                                                                                                                                                                                                                                                                       Z
L57428900359399-001-002       GY1702131111331ICQALA ELIZABETH                                                                                                                                                                                                                                                                                                                                                                                                                                                                                                                                                                                                                                                                                                                                                                                                                                                                                                                                                                                       Z
L57428900359399-002-002       GY1702131126481ICQALA ELIZABETH                                                                                                                                                                                                                                                                                                                                                                                                                                                                                                                                                                                                                                                                                                                                                                                                                                                                                                                                                                                       Z
L58052300351129-001-002       GY1702131113181ICQALA ELIZABETH                                                                                                                                                                                                                                                                                                                                                                                                                                                                                                                                                                                                                                                                                                                                                                                                                                                                                                                                                                                       Z
L58052300351129-002-002       GY1702131125431ICQALA ELIZABETH                                                                                                                                                                                                                                                                                                                                                                                                                                                                                                                                                                                                                                                                                                                                                                                                                                                                                                                                                                                       Z
L58100000350811-001-002       GY1702131110261ICQALA ELIZABETH                                                                                                                                                                                                                                                                                                                                                                                                                                                                                                                                                                                                                                                                                                                                                                                                                                                                                                                                                                                       Z
L58100000350811-002-002       GY1702131110581ICQALA ELIZABETH                                                                                                                                                                                                                                                                                                                                                                                                                                                                                                                                                                                                                                                                                                                                                                                                                                                                                                                                                                                       Z
L58268600357667-001-002       GY1702131109041ICQALA ELIZABETH                                                                                                                                                                                                                                                                                                                                                                                                                                                                                                                                                                                                                                                                                                                                                                                                                                                                                                                                                                                       Z
L58268600357667-002-002       GY1702131109531ICQALA ELIZABETH                                                                                                                                                                                                                                                                                                                                                                                                                                                                                                                                                                                                                                                                                                                                                                                                                                                                                                                                                                                       Z
L58374300358253-001-001       GY1702131126301ICQALA ELIZABETH                                                                                                                                                                                                                                                                                                                                                                                                                                                                                                                                                                                                                                                                                                                                                                                                                                                                                                                                                                                       Z
L58376100357997-001-001       GY1702131109491ICQALA ELIZABETH                                                                                                                                                                                                                                                                                                                                                                                                                                                                                                                                                                                                                                                                                                                                                                                                                                                                                                                                                                                       Z
V53955300000997-001-001       GY1702131109491ICQALA               000000000000000170213000000   SLAVE 3     000000000000351411               01
V54834700000997-001-001       GY1702131109491ICQALA               000000000000000170213000000   SLAVE 3     000000000000351920               01
V55056500000997-001-001       GY1702131109491ICQALA               000000000000000170213000000   SLAVE 3     000000000000353650               02
V55321500000997-001-001       GY1702131109491ICQALA               000000000000000170213000000   SLAVE 3     000000000000356353               03
V55606400000997-001-001       GY1702131109491ICQALA               000000000000000170213000000   SLAVE 3     000000000000353559               02
V56223300000997-001-001       GY1702131109491ICQALA               000000000000000170213000000   SLAVE 3     000000000000353731               08
V56342400000997-001-001       GY1702131109491ICQALA               000000000000000170213000000   SLAVE 3     000000000000353016               03
V56343800000997-001-001       GY1702131109491ICQALA               000000000000000170213000000   SLAVE 3     000000000000353469               02
V56410600000997-001-001       GY1702131109491ICQALA               000000000000000170213000000   SLAVE 3     000000000000355148               05
V56410800000997-001-001       GY1702131109491ICQALA               000000000000000170213000000   SLAVE 3     000000000000355084               03
V56655300000997-001-001       GY1702131109491ICQALA               000000000000000170213000000   SLAVE 3     000000000000353829               01
V57000600000997-001-001       GY1702131109491ICQALA               000000000000000170213000000   SLAVE 3     000000000000356679               04
V57003900000997-001-001       GY1702131109491ICQALA               000000000000000170213000000   SLAVE 3     000000000000354457               01
V57428900000997-001-001       GY1702131109491ICQALA               000000000000000170213000000   SLAVE 3     000000000000359399               02
V58052300000997-001-001       GY1702131109491ICQALA               000000000000000170213000000   SLAVE 3     000000000000351129               02
V58100000000997-001-001       GY1702131109491ICQALA               000000000000000170213000000   SLAVE 3     000000000000350811               02
V58268600000997-001-001       GY1702131109491ICQALA               000000000000000170213000000   SLAVE 3     000000000000357667               02
V58374300000997-001-001       GY1702131109491ICQALA               000000000000000170213000000   SLAVE 3     000000000000358253               01
V58376100000997-001-001       GY1702131109491ICQALA               000000000000000170213000000   SLAVE 3     000000000000357997               01
X GY Slave 3 First invoice 150322 170213 Last invoice 150322 170213 Next invoice 150323 Total number of records 000000074 clbackup completed 19:45:22
