182592000182592               182592               170213GZ     1400+00000+GZ0000000876+0000000876+000000000+000000123+0000000990+0000000009+I20000000000+0000000990+Z
182592001182592078-000025     182592008887013700064SUPERGLUE 3g 1PCE CARD 0000001000+00000876+00000+0001T   00000876+0000000912          1400 ST3810               1DZ
182593000182593               182593               170213GZ     1400+00000+GZ0000002980+0000002980+000000000+000000418+0000003398+0000000000+I40000003398+0000000000+Z
182593001182593464-000106     182593006001023171153PLAYING-CARDS (SINGLE) 0000002000+00001490+00000+0001T   00001490+0000000914          1400 ST3785               1DZ
182594000182594               182594               170213GZ     1400+00000+GZ0000004383+0000004383+000000000+000000615+0000004990+0000000008+I20000000000+0000004990+Z
182594001182594567-011311     182594006003000593453BOOK ACTIVITY DOT TO   0000001000+00002630+00000+0001T   00002630+0000000945          1400 ST3757               1DZ
182594002182594079-006496     182594006003000160105GLITTER SHAKERS        0000001000+00001753+00000+0001T   00001753+0000000945          1400 ST3130               1DZ
182595000182595               182595               170213GZ     1400+00000+GZ0000002015+0000002015+000000000+000000283+0000002298+0000000000+I40000002298+0000000000+Z
182595001182595078-000025     182595008887013700064SUPERGLUE 3g 1PCE CARD 0000001000+00000876+00000+0001T   00000876+0000001039          1400 ST3810               1DZ
182595002182595903-000710     182595006002099007056SWT REFRESHERS MINT    0000001000+00001139+00000+0001T   00001139+0000001039          1400 ST3150               1DZ
182596000182596               182596               170213GZ     1400+00000+GZ0000001314+0000001314+000000000+000000184+0000001490+0000000008+I20000000000+0000001490+Z
182596001182596006-000167-E   182596006003000517213BALLOONS GOLD METALLIC 0000001000+00001314+00000+0001T   00001314+0000001050          1400 ST3131               1DZ
182597000182597               182597               170213GZ     1400+00000+GZ0000005307+0000005307+000000000+000000745+0000006050+0000000002+I20000000000+0000006050+Z
182597001182597007-000602     182597006003000541270BOOK COVER 2M SOLID COL0000001000+00002630+00000+0001T   00002630+0000001053          1400 ST3130               1DZ
182597002182597071-005213     182597006001023690371CELLOTAPE 12mmx33m     0000001000+00000876+00000+0001T   00000876+0000001053          1400 ST3130               1DZ
182597003182597077-000316     182597006001023609731GIFT-BAG 25X32CM MATT  0000001000+00001753+00000+0001T   00001753+0000001053          1400 ST3112               1DZ
182597004182597112-116069     182597006009681820277TCS CARRIER BAG JUMBO  0000001000+00000048+00000+0001T   00000048+0000001053          1400 ST3090               1DZ
182598000182598               182598               170213GZ     1400+00000+GZ0000021047+0000021047+000000000+000002949+0000023996+0000000000+I40000023996+0000000000+Z
182598001182598903-003050     182598008024431008239SWT CHOC CONE H/NUT 25G0000001000+00000876+00000+0001T   00000876+0000001102          1400 ST3150               1DZ
182598002182598562-002002     182598006003000228775EDU LEARNING SHAPES    0000001000+00007016+00000+0001T   00007016+0000001102          1400 ST3755               1DZ
182598003182598562-002003     182598006003000228898EDU LEARN TO COUNT     0000001000+00007016+00000+0001T   00007016+0000001102          1400 ST3755               1DZ
182598004182598261-003821     182598006003000398713GUN HAND COWBOY PLAYSET0000001000+00006139+00000+0001T   00006139+0000001102          1400 ST3710               1DZ
182599000182599               182599               170213GZ     1400+00000+GZ0000002015+0000002015+000000000+000000283+0000002290+0000000008+I20000000000+0000002290+Z
182599001182599007-000045     182599006009608640438DISPLAY-POCKETS A4 10PC0000001000+00000876+00000+0001T   00000876+0000001109          1400 ST3130               1DZ
182599002182599903-000087     182599006001704000161SWT SPECKLED-EGGS 50G  0000001000+00001139+00000+0001T   00001139+0000001109          1400 ST3150               1DZ
182600000182600               182600               170213GZ     1400+00000+GZ0000000788+0000000788+000000000+000000111+0000000890+0000000009+I20000000000+0000000890+Z
182600001182600903-000137     182600006002099004130SWEET GS JELLY BEAN 60G0000001000+00000788+00000+0001T   00000788+0000001116          1400 ST3150               1DZ
182601000182601               182601               170213GZ     1400+00000+GZ0000004066+0000004066+000000000+000000571+0000004637+0000000000+I40000004637+0000000000+Z
182601001182601089-000030     182601006003000575671K/CHAIN LOVE MTL ASSTD 0000001000+00001753+00000+0001T   00001753+0000001133          1400 ST3205               1DZ
182601002182601903-000087     182601006001704000161SWT SPECKLED-EGGS 50G  0000002000+00001139+00000+0001T   00001139+0000001133          1400 ST3150               1DZ
182601003182601112-116038     182601006009681820246TCS CARRIER BAG MIDI   0000001000+00000035+00000+0001T   00000035+0000001133          1400 ST3090               1DZ
182602000182602               182602               170213GZ     1400+00000+GZ0000008814+0000008814+000000000+000001235+0000010049+0000000000+I40000010049+0000000000+Z
182602001182602039-000319-7   182602006003000443109B/CANDLES LRG NUMBER-7 0000001000+00000876+00000+0001T   00000876+0000001134          1400 ST3510               1DZ
182602002182602039-000319-0   182602006003000441273B/CANDLES LRG NUMBER-0 0000001000+00000876+00000+0001T   00000876+0000001134          1400 ST3510               1DZ
182602003182602024-091106     182602006003000443130C/STAND PAPER 3-TIER   0000002000+00003507+00000+0001T   00003507+0000001134          1400 ST3300               1DZ
182602004182602112-116069     182602006009681820277TCS CARRIER BAG JUMBO  0000001000+00000048+00000+0001T   00000048+0000001134          1400 ST3090               1DZ
182603000182603               182603               170213GZ     1400+00000+GZ0000003015+0000003015+000000000+000000423+0000003430+0000000008+I20000000000+0000003430+Z
182603001182603304-001204     182603006001023737984FLOWER OCC. TEDDY/ROSES0000001000+00001402+00000+0001T   00001490+0006471135          1400 ST3510               1DZ
182603002182603077-000303     182603006001023593757GIFT-BAG PAPER MED     0000001000+00001578+00000+0001T   00001578+0000001135          1400 ST3112               1DZ
182603003182603112-116038     182603006009681820246TCS CARRIER BAG MIDI   0000001000+00000035+00000+0001T   00000035+0000001135          1400 ST3090               1DZ
182604000182604               182604               170213GZ     1400+00000+GZ0000000918+0000000918+000000000+000000130+0000001040+0000000008+I20000000000+0000001040+Z
182604001182604071-000012     182604006001177101006CHALK COLOUR 12PCE     0000001000+00000481+00000+0001T   00000481+0000001136          1400 ST3130               1DZ
182604002182604071-000212     182604006009608641190CHALK WHITE 12PCE      0000001000+00000437+00000+0001T   00000437+0000001136          1400 ST3130               1DZ
182605000182605               182605               170213GZ     1400+00000+GZ0000004383+0000004383+000000000+000000615+0000004998+0000000000+I40000004998+0000000000+Z
182605001182605007-000602     182605006003000541270BOOK COVER 2M SOLID COL0000001000+00002630+00000+0001T   00002630+0000001138          1400 ST3130               1DZ
182605002182605077-000381     182605006003000247707GIFT-BAG 25X32CM S/COL 0000001000+00001753+00000+0001T   00001753+0000001138          1400 ST3112               1DZ
182606000182606               182606               170213GZ     1400+00000+GZ0000003542+0000003542+000000000+000000496+0000004030+0000000008+I20000000000+0000004030+Z
182606001182606018-005009     182606006001023725608MUG W/PLUSH-BEAR LOVE  0000001000+00003507+00000+0001T   00003507+0000001138          1400 ST3515               1DZ
182606002182606112-116038     182606006009681820246TCS CARRIER BAG MIDI   0000001000+00000035+00000+0001T   00000035+0000001138          1400 ST3090               1DZ
182607000182607               182607               170213GZ     1400+00000+GZ0000005260+0000005260+000000000+000000738+0000005990+0000000008+I20000000000+0000005990+Z
182607001182607560-000201     182607006001023400147RUBBER SNAKE 86cm      0000002000+00002630+00000+0001T   00002630+0000001141          1400 ST3745               1DZ
182608000182608               182608               170213GZ     1400+00000+GZ0000027407+0000027407+000000000+000003841+0000031240+0000000008+I20000000000+0000031240+Z
182608001182608562-000012     182608006001023589682BLOCKS 36PCE SNAP+PLAY 0000001000+00011402+00000+0001T   00011402+0000001144          1400 ST3755               1DZ
182608002182608105-001078     182608000700371637750CONTAINER 1,1L CLIP LOC0000001000+00001928+00000+0001T   00001928+0000001144          1400 ST3210               1DZ
182608003182608071-003863     182608006003000145102PENCIL NOVELTY ERASER  0000001000+00002630+00000+0001T   00002630+0000001144          1400 ST3130               1DZ
182608004182608002-000880     182608006001023769497CAN-OPENER WHITE       0000001000+00007016+00000+0001T   00007016+0000001144          1400 ST3300               1DZ
182608005182608088-000055     182608006003000623068TOILET FRESHENER CISTER0000001000+00001753+00000+0001T   00001753+0000001144          1400 ST3212               1DZ
182608006182608220-009001     182608006001023167804ROSE TEASPOON 6PCE     0000001000+00002630+00000+0001T   00002630+0000001144          1400 ST3300               1DZ
182608007182608112-116069     182608006009681820277TCS CARRIER BAG JUMBO  0000001000+00000048+00000+0001T   00000048+0000001144          1400 ST3090               1DZ
182609000182609               182609               170213GZ     1400+00000+GZ0000001402+0000001402+000000000+000000197+0000001590+0000000009+I20000000000+0000001590+Z
182609001182609304-001204     182609006001023737984FLOWER OCC. TEDDY/ROSES0000001000+00001402+00000+0001T   00001490+0006471145          1400 ST3510               1DZ
182610000182610               182610               170213GZ     1400+00000+GZ0000007715+0000007715+000000000+000001081+0000008796+0000000000+I40000008796+0000000000+Z
182610001182610251-000002     182610006003000093991TAPE D-SIDED 24x1000mm 0000002000+00002192+00000+0001T   00002192+0000001149          1400 ST3810               1DZ
182610002182610078-013424     182610006008741000338CONTACT-ADHESIVE 50ml  0000001000+00001578+00000+0001T   00001578+0000001149          1400 ST3810               1DZ
182610003182610088-000055     182610006003000623068TOILET FRESHENER CISTER0000001000+00001753+00000+0001T   00001753+0000001149          1400 ST3212               1DZ
182611000182611               182611               170213GZ     1400+00000+GZ0000001753+0000001753+000000000+000000246+0000001990+0000000009+I20000000000+0000001990+Z
182611001182611200-003026     182611006003000276448REFUSE BAGS 10PCE GREEN0000001000+00001753+00000+0001T   00001753+0000001157          1400 ST3214               1DZ
182612000182612               182612               170213GZ     1400+00000+GZ0000007889+0000007889+000000000+000001106+0000008995+0000000000+I40000008995+0000000000+Z
182612001182612077-000358     182612006003000329977GIFT-BAG KIDS 25X32CM  0000001000+00001753+00000+0001T   00001753+0000001208          1400 ST3112               1DZ
182612002182612039-000323     182612006001023524171BIRTHDAY-CANDLES 24PCE 0000001000+00000876+00000+0001T   00000876+0000001208          1400 ST3510               1DZ
182612003182612031-000902-A   182612006001023726254P/FRAME WDN OAK 6X9CM  0000001000+00003507+00000+0001T   00003507+0000001208          1400 ST3510               1DZ
182612004182612077-000457     182612006003000285662G/BAG METALLIC JMB SOL 0000001000+00001753+00000+0001T   00001753+0000001208          1400 ST3112               1DZ
182613000182613               182613               170213GZ     1400+00000+GZ0000001578+0000001578+000000000+000000221+0000001790+0000000009+I20000000000+0000001790+Z
182613001182613077-000303     182613006001023593757GIFT-BAG PAPER MED     0000001000+00001578+00000+0001T   00001578+0000001213          1400 ST3112               1DZ
182614000182614               182614               170213GZ     1400+00000+GZ0000006173+0000006173+000000000+000000865+0000007030+0000000008+I20000000000+0000007030+Z
182614001182614565-000084     182614006003000643431NOVELTY CATAPULT B/FLY 0000001000+00001753+00000+0001T   00001753+0000001216          1400 ST3745               1DZ
182614002182614079-130010     182614006003000496624ART+CRAFT FOAM DOLLS   0000001000+00004385+00000+0001T   00004385+0000001216          1400 ST3130               1DZ
182614003182614112-116038     182614006009681820246TCS CARRIER BAG MIDI   0000001000+00000035+00000+0001T   00000035+0000001216          1400 ST3090               1DZ
182615000182615               182615               170213GZ     1400+00000+GZ0000019423+0000019423+000000000+000002722+0000022145+0000000000+I40000022145+0000000000+Z
182615001182615071-004200     182615006001023835901SAFETY SCISSOR         0000001000+00001753+00000+0001T   00001753+0000001226          1400 ST3130               1DZ
182615002182615079-000013     182615006001023463890P/CRAYONS 24COL 18cm   0000001000+00003507+00000+0001T   00003507+0000001226          1400 ST3130               1DZ
182615003182615567-014133     182615006003000560103BOOK COLOURING 48 PAGE 0000001000+00001490+00000+0001T   00001490+0000001226          1400 ST3757               1DZ
182615004182615079-000282     182615006001023493309PAINT TUBS POSTER 12COL0000001000+00002630+00000+0001T   00002630+0000001226          1400 ST3130               1DZ
182615005182615079-000510     182615006001023509079CRAYONS WAX 12-COLOUR  0000002000+00002455+00000+0001T   00002455+0000001226          1400 ST3130               1DZ
182615006182615071-001002     182615006003000217540PENCIL-SHARPNER DOUBLE 0000001000+00001578+00000+0001T   00001578+0000001226          1400 ST3130               1DZ
182615007182615562-000020     182615006003000600861EDU PLAY DOUGH 60g 4PC 0000001000+00003507+00000+0001T   00003507+0000001226          1400 ST3755               1DZ
182615008182615112-116069     182615006009681820277TCS CARRIER BAG JUMBO  0000001000+00000048+00000+0001T   00000048+0000001226          1400 ST3090               1DZ
182616000182616               182616               170213GZ     1400+00000+GZ0000003506+0000003506+000000000+000000492+0000003990+0000000008+I20000000000+0000003990+Z
182616001182616567-010930     182616009780709718826BOOK PUZZLE ASSTD CAT 20000001000+00000876+00000+0001T   00001314+0008131227          1400 ST3757               1DZ
182616002182616567-010630     182616009781782443490BK ACTIVITY ASSTD      0000001000+00002630+00000+0001T   00003507+0008131227          1400 ST3757               1DZ
182617000182617               182617               170213GZ     1400+00000+GZ0000002665+0000002665+000000000+000000374+0000003030+0000000009+I20000000000+0000003030+Z
182617001182617104-000031     182617006003000614950BASKET PL 27x18x12cm   0000001000+00002630+00000+0001T   00002630+0000001238          1400 ST3210               1DZ
182617002182617112-116038     182617006009681820246TCS CARRIER BAG MIDI   0000001000+00000035+00000+0001T   00000035+0000001238          1400 ST3090               1DZ
182618000182618               182618               170213GZ     1400+00000+GZ0000005261+0000005261+000000000+000000737+0000005998+0000000000+I40000005998+0000000000+Z
182618001182618206-000460     182618006003000619986BOOKMARK ZIPPER        0000001000+00004385+00000+0001T   00004385+0000001241          1400 ST3321               1DZ
182618002182618903-003080     182618005907029004673SWT SNACK STIX CHOC 50g0000001000+00000876+00000+0001T   00000876+0000001241          1400 ST3150               1DZ
182619000182619               182619               170213GZ     1400+00000+GZ0000001753+0000001753+000000000+000000246+0000001990+0000000009+I20000000000+0000001990+Z
182619001182619077-000354     182619006003000139224GIFT-BAG 25X32CM H/MADE0000001000+00001753+00000+0001T   00001753+0000001242          1400 ST3112               1DZ
182620000182620               182620               170213GZ     1400+00000+GZ0000001576+0000001576+000000000+000000222+0000001790+0000000008+I20000000000+0000001790+Z
182620001182620001-000169     182620006005231103302TUMBLER 240ml HI-BALL  0000002000+00000788+00000+0001T   00000788+0000001244          1400 ST3515               1DZ
182621000182621               182621               170213GZ     1400+00000+GZ0000006522+0000006522+000000000+000000914+0000007430+0000000006+I20000000000+0000007430+Z
182621001182621018-005009     182621006001023725608MUG W/PLUSH-BEAR LOVE  0000001000+00003507+00000+0001T   00003507+0000001247          1400 ST3515               1DZ
182621002182621077-000303     182621006001023593757GIFT-BAG PAPER MED     0000001000+00001578+00000+0001T   00001578+0000001247          1400 ST3112               1DZ
182621003182621112-116038     182621006009681820246TCS CARRIER BAG MIDI   0000001000+00000035+00000+0001T   00000035+0000001247          1400 ST3090               1DZ
182621004182621304-001204     182621006001023737984FLOWER OCC. TEDDY/ROSES0000001000+00001402+00000+0001T   00001490+0006471247          1400 ST3510               1DZ
182622000182622               182622               170213GZ     1400+00000+GZ0000001227+0000001227+000000000+000000172+0000001390+0000000009+I20000000000+0000001390+Z
182622001182622251-000041     182622006001023515889SEAL-TAPE BUFF 48mmx50m0000001000+00001227+00000+0001T   00001227+0000001248          1400 ST3810               1DZ
182623000182623               182623               170213GZ     1400+00000+GZ0000003507+0000003507+000000000+000000491+0000003990+0000000008+I20000000000+0000003990+Z
182623001182623028-002101     182623006002580009507CHAIR JUNIOR    ASSTD  0000001000+00003507+00000+0001T   00003507+0000001249          1400 ST3305               1DZ
182624000182624               182624               170213GZ     1400+00000+GZ0000003541+0000003541+000000000+000000497+0000004030+0000000008+I20000000000+0000004030+Z
182624001182624018-000129     182624006001023403353MUG OCC. LOVE V-SHAPE  0000001000+00002630+00000+0001T   00002630+0000001250          1400 ST3515               1DZ
182624002182624077-000150-D   182624006003000054343GIFT-WRAP CELLPHANE CLR0000001000+00000876+00000+0001T   00000876+0000001250          1400 ST3112               1DZ
182624003182624112-116038     182624006009681820246TCS CARRIER BAG MIDI   0000001000+00000035+00000+0001T   00000035+0000001250          1400 ST3090               1DZ
182625000182625               182625               170213GZ     1400+00000+GZ0000000613+0000000613+000000000+000000086+0000000690+0000000009+I20000000000+0000000690+Z
182625001182625083-000055     182625006003000003853LIGHTER ELCTRNC REFILBL0000001000+00000613+00000+0001T   00000613+0000001251          1400 ST3315               1DZ
182626000182626               182626               170213GZ     1400+00000+GZ0000005295+0000005295+000000000+000000742+0000006037+0000000000+I40000006037+0000000000+Z
182626001182626133-000017     182626006003000525171CLEANING-CLOTHS 5PCE   0000001000+00003507+00000+0001T   00003507+0000001309          1400 ST3212               1DZ
182626002182626200-003024     182626006001023657299REFUSE BAGS 20PCE BLACK0000001000+00001753+00000+0001T   00001753+0000001309          1400 ST3214               1DZ
182626003182626112-116038     182626006009681820246TCS CARRIER BAG MIDI   0000001000+00000035+00000+0001T   00000035+0000001309          1400 ST3090               1DZ
182627000182627               182627               170213GZ     1400+00000+GZ0000014681+0000014681+000000000+000002056+0000016730+0000000007+I20000000000+0000016730+Z
182627001182627006-000190     182627006003000685530BALLOONS LOVE 81x91cm  0000001000+00004385+00000+0001T   00004385+0000001315          1400 ST3131               1DZ
182627002182627001-091415     182627006003000329113W/GLS OCC. LOVE 2PC 2800000001000+00008771+00000+0001T   00009648+0006471315          1400 ST3515               1DZ
182627003182627019-071610     182627006001023904560PEBBLES WATER GEMS 10g 0000001000+00001490+00000+0001T   00001490+0000001315          1400 ST3510               1DZ
182627004182627112-116038     182627006009681820246TCS CARRIER BAG MIDI   0000001000+00000035+00000+0001T   00000035+0000001315          1400 ST3090               1DZ
182628000182628               182628               170213GZ     1400+00000+GZ0000002892+0000002892+000000000+000000406+0000003290+0000000008+I20000000000+0000003290+Z
182628001182628024-091100     182628006001023914224BAKING-CUPS PAPER 100PC0000001000+00001753+00000+0001T   00001753+0000001348          1400 ST3300               1DZ
182628002182628903-000087     182628006001704000161SWT SPECKLED-EGGS 50G  0000001000+00001139+00000+0001T   00001139+0000001348          1400 ST3150               1DZ
182629000182629               182629               170213GZ     1400+00000+GZ0000008539+0000008539+000000000+000001198+0000009737+0000000000+I40000009737+0000000000+Z
182629001182629080-000133     182629006003000535613CARD&ENV MINI ASTD DSGN0000001000+00000437+00000+0001T   00000437+0000001350          1400 ST3112               1DZ
182629002182629007-000526     182629006001023637994STATIONERY GIRL FLOWER 0000001000+00007016+00000+0001T   00007016+0000001350          1400 ST3130               1DZ
182629003182629903-002850     182629000000087108262MENTOS ROLL FRUIT      0000001000+00001051+00000+0001T   00001051+0000001350          1400 ST3150               1DZ
182629004182629112-116038     182629006009681820246TCS CARRIER BAG MIDI   0000001000+00000035+00000+0001T   00000035+0000001350          1400 ST3090               1DZ
182630000182630               182630               170213GZ     1400+00000+GZ0000001525+0000001525+000000000+000000214+0000001730+0000000009+I20000000000+0000001730+Z
182630001182630106-001100-B   182630006001023651693FRIDGE BOTTLE ASSORTED 0000001000+00001490+00000+0001T   00001490+0000001356          1400 ST3210               1DZ
182630002182630112-116038     182630006009681820246TCS CARRIER BAG MIDI   0000001000+00000035+00000+0001T   00000035+0000001356          1400 ST3090               1DZ
182631000182631               182631               170213GZ     1400+00000+GZ0000002630+0000002630+000000000+000000369+0000002990+0000000009+I20000000000+0000002990+Z
182631001182631018-000129     182631006001023403353MUG OCC. LOVE V-SHAPE  0000001000+00002630+00000+0001T   00002630+0000001357          1400 ST3515               1DZ
182632000182632               182632               170213GZ     1400+00000+GZ0000007925+0000007925+000000000+000001112+0000009037+0000000000+I40000009037+0000000000+Z
182632001182632072-020354     182632006001023649980DOG/CAT-BOWL LARGE     0000002000+00002630+00000+0001T   00002630+0000001359          1400 ST3870               1DZ
182632002182632079-000282     182632006001023493309PAINT TUBS POSTER 12COL0000001000+00002630+00000+0001T   00002630+0000001359          1400 ST3130               1DZ
182632003182632112-116038     182632006009681820246TCS CARRIER BAG MIDI   0000001000+00000035+00000+0001T   00000035+0000001359          1400 ST3090               1DZ
182633000182633               182633               170213GZ     1400+00000+GZ0000007064+0000007064+000000000+000000990+0000008054+0000000000+I40000008054+0000000000+Z
182633001182633562-088355-A   182633006001023873262EVA MAT NUMBERS 10PC   0000001000+00007016+00000+0001T   00007016+0000001402          1400 ST3755               1DZ
182633002182633112-116069     182633006009681820277TCS CARRIER BAG JUMBO  0000001000+00000048+00000+0001T   00000048+0000001402          1400 ST3090               1DZ
182634000182634               182634               170213GZ     1400+00000+GZ0000002401+0000002401+000000000+000000337+0000002730+0000000008+I20000000000+0000002730+Z
182634001182634006-000114     182634006003000671939BALLOONS W/BOMBS 100PCE0000001000+00001753+00000+0001T   00001753+0000001404          1400 ST3131               1DZ
182634002182634903-000848     182634008692806080076SWT SNACK BISCUIT 70g  0000001000+00000613+00000+0001T   00000613+0000001404          1400 ST3150               1DZ
182634003182634112-116038     182634006009681820246TCS CARRIER BAG MIDI   0000001000+00000035+00000+0001T   00000035+0000001404          1400 ST3090               1DZ
182635000182635               182635               170213GZ     1400+00000+GZ0000001314+0000001314+000000000+000000184+0000001490+0000000008+I20000000000+0000001490+Z
182635001182635903-000194     182635006009826020616SWT CHOC RP LOLLY 25G  0000001000+00001314+00000+0001T   00001314+0000001415          1400 ST3150               1DZ
182636000182636               182636               170213GZ     1400+00000+GZ0000001139+0000001139+000000000+000000160+0000001290+0000000009+I20000000000+0000001290+Z
182636001182636903-000087     182636006001704000161SWT SPECKLED-EGGS 50G  0000001000+00001139+00000+0001T   00001139+0000001416          1400 ST3150               1DZ
182637000182637               182637               170213GZ     1400+00000+GZ0000036083+0000036083+000000000+000005058+0000041140+0000000001+I20000000000+0000041140+Z
182637001182637262-000651     182637006001023754561DIE CAST SET 5PC RACER 0000001000+00002630+00000+0001T   00002630+0000001446          1400 ST3710               1DZ
182637002182637046-000012     182637006904708013062BATTERIES AA  CARD-OF-40000001000+00001314+00000+0001T   00001314+0000001446          1400 ST3312               1DZ
182637003182637039-000319-3   182637006003000442621B/CANDLES LRG NUMBER-3 0000001000+00000876+00000+0001T   00000876+0000001446          1400 ST3510               1DZ
182637004182637005-005403     182637000694202400074SOCKETSET MET 69PCE    0000001000+00017542+00000+0001T   00017542+0000001446          1400 ST3840               1DZ
182637005182637466-000584     182637006001023628787SKIPPING-ROPE          0000001000+00002630+00000+0001T   00002630+0000001446          1400 ST3785               1DZ
182637006182637264-000921     182637000090159150442MAISTO CAR 3" FRESH    0000001000+00001753+00000+0001T   00001753+0000001446          1400 ST3710               1DZ
182637007182637261-003903     182637006001023827746GUN SET ARMY ASSTD     0000001000+00006139+00000+0001T   00006139+0000001446          1400 ST3710               1DZ
182637008182637112-116069     182637006009681820277TCS CARRIER BAG JUMBO  0000001000+00000048+00000+0001T   00000048+0000001446          1400 ST3090               1DZ
182637009182637903-002851     182637000000087108538MENTOS ROLL STRAWBERRY 0000001000+00001051+00000+0001T   00001051+0000001446          1400 ST3150               1DZ
182637010182637083-000049     182637004891035200024CIG-LIGHTER DISPOSABLE 0000002000+00000437+00000+0001T   00000437+0000001446          1400 ST3315               1DZ
182637011182637083-000055     182637006003000003853LIGHTER ELCTRNC REFILBL0000002000+00000613+00000+0001T   00000613+0000001446          1400 ST3315               1DZ
182638000182638               182638               170213GZ     1400+00000+GZ0000003535+0000003535+000000000+000000495+0000004030+0000000000+I20000000000+0000004030+Z
182638001182638018-000177     182638006001023797513MUG MINI LOVE ASSTD    0000005000+00000700+00000+0001T   00000700+0000001456          1400 ST3515               1DZ
182638002182638112-116038     182638006009681820246TCS CARRIER BAG MIDI   0000001000+00000035+00000+0001T   00000035+0000001456          1400 ST3090               1DZ
182639000182639               182639               170213GZ     1400+00000+GZ0000001753+0000001753+000000000+000000246+0000001990+0000000009+I20000000000+0000001990+Z
182639001182639079-000275     182639006003000160488PAINT-BRUSHES 6PCE PRO 0000001000+00001753+00000+0001T   00001753+0000001500          1400 ST3130               1DZ
182640000182640               182640               170213GZ     1400+00000+GZ0000001490+0000001490+000000000+000000209+0000001690+0000000009+I20000000000+0000001690+Z
182640001182640077-000452     182640006003000284986G/BAG METALLIC MED EMB 0000001000+00001490+00000+0001T   00001490+0000001501          1400 ST3112               1DZ
182641000182641               182641               170213GZ     1400+00000+GZ0000007887+0000007887+000000000+000001106+0000008993+0000000000+I40000008993+0000000000+Z
182641001182641903-004950     182641006002580020304SWT APRICOT SURPRISE   0000001000+00001314+00000+0001T   00001314+0000001506          1400 ST3150               1DZ
182641002182641903-004952     182641006002580020052SWT FREAKY FACES 100G  0000001000+00001314+00000+0001T   00001314+0000001506          1400 ST3150               1DZ
182641003182641466-072725     182641006001023622532YO-YO PL               0000001000+00002630+00000+0001T   00002630+0000001506          1400 ST3785               1DZ
182641004182641077-000472     182641006003000330133G-BAG DESGNR LRG 25X32 0000001000+00001753+00000+0001T   00001753+0000001506          1400 ST3112               1DZ
182641005182641077-000011-D   182641006001023808554TISSUE-WRAP WHITE 10PCE0000001000+00000876+00000+0001T   00000876+0000001506          1400 ST3112               1DZ
182642000182642               182642               170213GZ     1400+00000+GZ0000008804+0000008804+000000000+000001233+0000010030+0000000007+I20000000000+0000010030+Z
182642001182642366-000151     182642006003000601561DRESS UP WEDDING HEN   0000001000+00003507+00000+0001T   00003507+0000001513          1400 ST3131               1DZ
182642002182642366-002195     182642006001023990549DRESS UP WINGS FEATHER 0000001000+00005262+00000+0001T   00005262+0000001513          1400 ST3131               1DZ
182642003182642112-116038     182642006009681820246TCS CARRIER BAG MIDI   0000001000+00000035+00000+0001T   00000035+0000001513          1400 ST3090               1DZ
182643000182643               182643               170213GZ     1400+00000+GZ0000000876+0000000876+000000000+000000123+0000000990+0000000009+I20000000000+0000000990+Z
182643001182643007-000045     182643006009608640438DISPLAY-POCKETS A4 10PC0000001000+00000876+00000+0001T   00000876+0000001514          1400 ST3130               1DZ
182644000182644               182644               170213GZ     1400+00000+GZ0000003507+0000003507+000000000+000000491+0000003990+0000000008+I20000000000+0000003990+Z
182644001182644018-000136     182644006001023659026MUG OCC LOVE W/PLUSH   0000001000+00003507+00000+0001T   00003507+0000001522          1400 ST3515               1DZ
182645000182645               182645               170213GZ     1400+00000+GZ0000001227+0000001227+000000000+000000172+0000001390+0000000009+I20000000000+0000001390+Z
182645001182645031-005815     182645009320760100019P/FRAME-CLIP 10x15cm   0000001000+00001227+00000+0001T   00001227+0000001523          1400 ST3510               1DZ
182646000182646               182646               170213GZ     1400+00000+GZ0000001525+0000001525+000000000+000000214+0000001730+0000000009+I20000000000+0000001730+Z
182646001182646079-006494     182646006003000159864GLITTER GLUE 5PCE 11cm 0000001000+00001490+00000+0001T   00001490+0000001526          1400 ST3130               1DZ
182646002182646112-116038     182646006009681820246TCS CARRIER BAG MIDI   0000001000+00000035+00000+0001T   00000035+0000001526          1400 ST3090               1DZ
182647000182647               182647               170213GZ     1400+00000+GZ0000001753+0000001753+000000000+000000246+0000001990+0000000009+I20000000000+0000001990+Z
182647001182647077-000299-A   182647006003000670888GIFT-BAG PAPER JMB LOVE0000001000+00001753+00000+0001T   00001753+0000001528          1400 ST3112               1DZ
182648000182648               182648               170213GZ     1400+00000+GZ0000010482+0000010482+000000000+000001469+0000011950+0000000001+I20000000000+0000011950+Z
182648001182648466-000520     182648006003000023585BASEBALL BAT & BALL    0000001000+00006139+00000+0001T   00006139+0000001532          1400 ST3785               1DZ
182648002182648903-000138     182648006002099004314SWT GS WINE GUMS 60G   0000001000+00000788+00000+0001T   00000788+0000001532          1400 ST3150               1DZ
182648003182648077-000932     182648006003000409808G/WRAP 700mmx5m PATTERN0000001000+00003507+00000+0001T   00003507+0000001532          1400 ST3112               1DZ
182648004182648112-116069     182648006009681820277TCS CARRIER BAG JUMBO  0000001000+00000048+00000+0001T   00000048+0000001532          1400 ST3090               1DZ
182649000182649               182649               170213GZ     1400+00000+GZ0000001139+0000001139+000000000+000000160+0000001290+0000000009+I20000000000+0000001290+Z
182649001182649903-000898     182649006922516801503SWT POPPING CANDY      0000001000+00001139+00000+0001T   00001139+0000001533          1400 ST3150               1DZ
182650000182650               182650               170213GZ     1400+00000+GZ0000003507+0000003507+000000000+000000491+0000003990+0000000008+I20000000000+0000003990+Z
182650001182650018-050000     182650006003000412679MUG OCC LOVE TWIN BEAR 0000001000+00006139+00000+0001T   00006139+0000001535          1400 ST3515               1DZ
182650002182650018-000136     182650006001023659026MUG OCC LOVE W/PLUSH   0000001000+00003507+00000+0001T   00003507+0000001535          1400 ST3515               1DZ
182650003182650018-050000     182650006003000412679MUG OCC LOVE TWIN BEAR 0000001000-00006139+00000+0001T   00006139+0000001535          1400 ST35151IC            1 Z
182651000182651               182651               170213GZ     1400+00000+GZ0000002628+0000002628+000000000+000000369+0000002990+0000000007+I20000000000+0000002990+Z
182651001182651077-000150-D   182651006003000054343GIFT-WRAP CELLPHANE CLR0000003000+00000876+00000+0001T   00000876+0000001540          1400 ST3112               1DZ
182652000182652               182652               170213GZ     1400+00000+GZ0000003980+0000003980+000000000+000000558+0000004530+0000000008+I20000000000+0000004530+Z
182652001182652366-006104     182652006003000616930DRESS UP FACE PAINT    0000001000+00001753+00000+0001T   00001753+0000001541          1400 ST3131               1DZ
182652002182652033-000782     182652006001023905482COSMETIC SPONGES 12PC  0000001000+00002192+00000+0001T   00002192+0000001541          1400 ST3200               1DZ
182652003182652112-116038     182652006009681820246TCS CARRIER BAG MIDI   0000001000+00000035+00000+0001T   00000035+0000001541          1400 ST3090               1DZ
182653000182653               182653               170213GZ     1400+00000+GZ0000002455+0000002455+000000000+000000344+0000002790+0000000009+I20000000000+0000002790+Z
182653001182653079-000802     182653006001023528902ART+CRAFT STICKS 100PCE0000001000+00002455+00000+0001T   00002455+0000001542          1400 ST3130               1DZ
182654000182654               182654               170213GZ     1400+00000+GZ0000006139+0000006139+000000000+000000860+0000006999+0000000000+I40000006999+0000000000+Z
182654001182654368-000104     182654006001023751348PLUSH BEAR RUFFLED-LOOK0000001000+00006139+00000+0001T   00006139+0000001547          1400 ST3745               1DZ
182655000182655               182655               170213GZ     1400+00000+GZ0000006139+0000006139+000000000+000000860+0000006990+0000000009+I20000000000+0000006990+Z
182655001182655368-000104     182655006001023751348PLUSH BEAR RUFFLED-LOOK0000001000+00006139+00000+0001T   00006139+0000001548          1400 ST3745               1DZ
182656000182656               182656               170213GZ     1400+00000+GZ0000006139-0000006139-000000000+000000860-0000006999-0000000000+I40000006999-0000000000+Z
182656001182656368-000104     182656006001023751348PLUSH BEAR RUFFLED-LOOK0000001000-00006139+00000+0001T   00006139+0000001552          1400 ST37451IC            1 Z
182657000182657               182657               170213GZ     1400+00000+GZ0000006522+0000006522+000000000+000000914+0000007430+0000000006+I20000000000+0000007430+Z
182657001182657036-000605     182657006001023158611WASHING-PEGS WDN PCK-240000002000+00001490+00000+0001T   00001490+0000001553          1400 ST3212               1DZ
182657002182657104-000025     182657006001023780287BASKET PL 28x17x11cm   0000001000+00003507+00000+0001T   00003507+0000001553          1400 ST3210               1DZ
182657003182657112-116038     182657006009681820246TCS CARRIER BAG MIDI   0000001000+00000035+00000+0001T   00000035+0000001553          1400 ST3090               1DZ
182658000182658               182658               170213GZ     1400+00000+GZ0000001753+0000001753+000000000+000000246+0000001990+0000000009+I20000000000+0000001990+Z
182658001182658142-000810     182658006003000429844GLOVES LATEX PRNT CUFFS0000001000+00001753+00000+0001T   00001753+0000001554          1400 ST3810               1DZ
182659000182659               182659               170213GZ     1400+00000+GZ0000001927+0000001927+000000000+000000271+0000002190+0000000008+I20000000000+0000002190+Z
182659001182659033-000125     182659006009654960658COMBS GENTS MINI 2PC   0000001000+00001051+00000+0001T   00001051+0000001555          1400 ST3200               1DZ
182659002182659903-000006     182659006923431571571SWEET GS SOUR BELT 50g 0000001000+00000876+00000+0001T   00000876+0000001555          1400 ST3150               1DZ
182660000182660               182660               170213GZ     1400+00000+GZ0000005434+0000005434+000000000+000000762+0000006196+0000000000+I40000006196+0000000000+Z
182660001182660080-000124     182660006003000297733CARD & ENV VALENTINES  0000001000+00001578+00000+0001T   00001578+0000001558          1400 ST3112               1DZ
182660002182660077-000299-A   182660006003000670888GIFT-BAG PAPER JMB LOVE0000001000+00001753+00000+0001T   00001753+0000001558          1400 ST3112               1DZ
182660003182660077-000011-C   182660006001023808523TISSUE 10xSHTS RED     0000001000+00000876+00000+0001T   00000876+0000001558          1400 ST3112               1DZ
182660004182660903-000111     182660006001704006378SWT LIQUORICE-TWISTS   0000001000+00001227+00000+0001T   00001227+0000001558          1400 ST3150               1DZ
182661000182661               182661               170213GZ     1400+00000+GZ0000011401+0000011401+000000000+000001597+0000012998+0000000000+I40000012998+0000000000+Z
182661001182661024-000111     182661006001023504197ROASTER NON-STICK OBLNG0000001000+00007016+00000+0001T   00007016+0000001602          1400 ST3300               1DZ
182661002182661009-001312     182661006001023854728MELAMINE FLOWER TRAY RE0000001000+00004385+00000+0001T   00004385+0000001602          1400 ST3210               1DZ
182662000182662               182662               170213GZ     1400+00000+GZ0000005556+0000005556+000000000+000000780+0000006330+0000000006+I20000000000+0000006330+Z
182662001182662036-000605     182662006001023158611WASHING-PEGS WDN PCK-240000001000+00001490+00000+0001T   00001490+0000001603          1400 ST3212               1DZ
182662002182662002-021040     182662006001023812216PARTY-PICKS 100PCE     0000001000+00000525+00000+0001T   00000525+0000001603          1400 ST3300               1DZ
182662003182662903-000215     182662006002099001214SWT GS MALLOW TWIST PAC0000002000+00001753+00000+0001T   00001753+0000001603          1400 ST3150               1DZ
182662004182662112-116038     182662006009681820246TCS CARRIER BAG MIDI   0000001000+00000035+00000+0001T   00000035+0000001603          1400 ST3090               1DZ
182663000182663               182663               170213GZ     1400+00000+GZ0000008766+0000008766+000000000+000001228+0000009990+0000000004+I20000000000+0000009990+Z
182663001182663006-000166-C   182663006003000516377BALLOONS LRG 6PC PINK  0000001000+00001314+00000+0001T   00001314+0000001605          1400 ST3131               1DZ
182663002182663006-000166-F   182663006003000516735BALLOONS LRG 6PC PURPLE0000001000+00001314+00000+0001T   00001314+0000001605          1400 ST3131               1DZ
182663003182663368-000001     182663006003000097982Plush Bear 25cm        0000001000+00004385+00000+0001T   00004385+0000001605          1400 ST3745               1DZ
182663004182663077-000240     182663006003000326259G/RIBBON 4PC PEARLIZED 0000001000+00001753+00000+0001T   00001753+0000001605          1400 ST3112               1DZ
182664000182664               182664               170213GZ     1400+00000+GZ0000004242+0000004242+000000000+000000594+0000004830+0000000006+I20000000000+0000004830+Z
182664001182664301-085004     182664006003000420469ORN LOVE PLAQUE 21X10CM0000001000+00003507+00000+0001T   00003946+0006471606          1400 ST3505               1DZ
182664002182664018-000177     182664006001023797513MUG MINI LOVE ASSTD    0000001000+00000700+00000+0001T   00000700+0000001606          1400 ST3515               1DZ
182664003182664112-116038     182664006009681820246TCS CARRIER BAG MIDI   0000001000+00000035+00000+0001T   00000035+0000001606          1400 ST3090               1DZ
182665000182665               182665               170213GZ     1400+00000+GZ0000003768+0000003768+000000000+000000528+0000004296+0000000000+I40000004296+0000000000+Z
182665001182665077-000310     182665006001023608635GIFT-BAG 18X23CM GLOSS 0000001000+00001314+00000+0001T   00001314+0000001611          1400 ST3112               1DZ
182665002182665080-000124     182665006003000297733CARD & ENV VALENTINES  0000001000+00001578+00000+0001T   00001578+0000001611          1400 ST3112               1DZ
182665003182665077-000011-D   182665006001023808554TISSUE-WRAP WHITE 10PCE0000001000+00000876+00000+0001T   00000876+0000001611          1400 ST3112               1DZ
182666000182666               182666               170213GZ     1400+00000+GZ0000006187+0000006187+000000000+000000867+0000007050+0000000004+I20000000000+0000007050+Z
182666001182666174-000003     182666006001023724328STORAGE BOX ASSORTED   0000001000+00006139+00000+0001T   00006139+0000001613          1400 ST3205               1DZ
182666002182666112-116069     182666006009681820277TCS CARRIER BAG JUMBO  0000001000+00000048+00000+0001T   00000048+0000001613          1400 ST3090               1DZ
182667000182667               182667               170213GZ     1400+00000+GZ0000006139+0000006139+000000000+000000860+0000006990+0000000009+I20000000000+0000006990+Z
182667001182667366-000900     182667006003000006960DRESS UP WINGS BUG     0000001000+00006139+00000+0001T   00006139+0000001616          1400 ST3131               1DZ
182668000182668               182668               170213GZ     1400+00000+GZ0000003507+0000003507+000000000+000000491+0000003990+0000000008+I20000000000+0000003990+Z
182668001182668018-000136     182668006001023659026MUG OCC LOVE W/PLUSH   0000001000+00003507+00000+0001T   00003507+0000001618          1400 ST3515               1AZ
182669000182669               182669               170213GZ     1400+00000+GZ0000002099+0000002099+000000000+000000297+0000002390+0000000006+I20000000000+0000002390+Z
182669001182669080-000133-A   182669006003000647019MINI VALENTINES CARD   0000003000+00000437+00000+0001T   00000437+0000001620          1400 ST3112               1AZ
182669002182669903-000138     182669006002099004314SWT GS WINE GUMS 60G   0000001000+00000788+00000+0001T   00000788+0000001620          1400 ST3150               1AZ
182670000182670               182670               170213GZ     1400+00000+GZ0000004384+0000004384+000000000+000000614+0000004990+0000000008+I20000000000+0000004990+Z
182670001182670301-085000     182670006003000674299 ORN OCC. LOVE HEARTS  0000002000+00002192+00000+0001T   00002192+0000001620          1400 ST3505               1AZ
182671000182671               182671               170213GZ     1400+00000+GZ0000001753+0000001753+000000000+000000246+0000001990+0000000009+I20000000000+0000001990+Z
182671001182671079-006522     182671006001023149442ART+CRAFT GLUE ASSORTED0000001000+00001753+00000+0001T   00001753+0000001623          1400 ST3130               1AZ
182672000182672               182672               170213GZ     1400+00000+GZ0000001402+0000001402+000000000+000000197+0000001590+0000000009+I20000000000+0000001590+Z
182672001182672304-001204     182672006001023737984FLOWER OCC. TEDDY/ROSES0000001000+00001402+00000+0001T   00001490+0006471627          1400 ST3510               1AZ
182673000182673               182673               170213GZ     1400+00000+GZ0000008064+0000008064+000000000+000001131+0000009190+0000000005+I20000000000+0000009190+Z
182673001182673304-001204     182673006001023737984FLOWER OCC. TEDDY/ROSES0000002000+00001402+00000+0001T   00001490+0006471628          1400 ST3510               1AZ
182673002182673077-000472     182673006003000330133G-BAG DESGNR LRG 25X32 0000001000+00001753+00000+0001T   00001753+0000001628          1400 ST3112               1AZ
182673003182673089-000018     182673006003000176724KEY CHAIN INSPIRATION  0000001000+00003507+00000+0001T   00003507+0000001628          1400 ST3205               1AZ
182674000182674               182674               170213GZ     1400+00000+GZ0000001538+0000001538+000000000+000000216+0000001750+0000000004+I20000000000+0000001750+Z
182674001182674071-000873     182674006001023758743RUB-BANDS CLR BAG-100  0000001000+00001490+00000+0001T   00001490+0000001629          1400 ST3130               1AZ
182674002182674112-116069     182674006009681820277TCS CARRIER BAG JUMBO  0000001000+00000048+00000+0001T   00000048+0000001629          1400 ST3090               1AZ
182675000182675               182675               170213GZ     1400+00000+GZ0000006752+0000006752+000000000+000000946+0000007690+0000000008+I20000000000+0000007690+Z
182675001182675267-001998     182675008711147355350PUZZLE 300pc FAIRY-TALE0000001000+00005262+00000+0001T   00005262+0000001632          1400 ST3755               1AZ
182675002182675079-006494     182675006003000159864GLITTER GLUE 5PCE 11cm 0000001000+00001490+00000+0001T   00001490+0000001632          1400 ST3130               1AZ
182676000182676               182676               170213GZ     1400+00000+GZ0000003366+0000003366+000000000+000000472+0000003830+0000000008+I20000000000+0000003830+Z
182676001182676077-000348     182676006001023483287GIFT-BOWS 4,5cm 8PCE   0000001000+00001578+00000+0001T   00001578+0000001635          1400 ST3112               1AZ
182676002182676080-000111     182676006003000252695CARD&ENVELPE - MUSICAL 0000001000+00001753+00000+0001T   00001753+0000001635          1400 ST3112               1AZ
182676003182676112-116038     182676006009681820246TCS CARRIER BAG MIDI   0000001000+00000035+00000+0001T   00000035+0000001635          1400 ST3090               1AZ
182677000182677               182677               170213GZ     1400+00000+GZ0000007051+0000007051+000000000+000000988+0000008030+0000000009+I20000000000+0000008030+Z
182677001182677017-000050     182677006003000008223P/ALBUM 200-PHOTO PLAIN0000001000+00007016+00000+0001T   00007016+0000001636          1400 ST3510               1AZ
182677002182677112-116038     182677006009681820246TCS CARRIER BAG MIDI   0000001000+00000035+00000+0001T   00000035+0000001636          1400 ST3090               1AZ
182678000182678               182678               170213GZ     1400+00000+GZ0000002630+0000002630+000000000+000000369+0000002999+0000000000+I40000002999+0000000000+Z
182678001182678012-000021     182678006003000657902M/WAVE MUG 650ml       0000001000+00002630+00000+0001T   00002630+0000001639          1400 ST3300               1AZ
182679000182679               182679               170213GZ     1400+00000+GZ0000002665+0000002665+000000000+000000374+0000003030+0000000009+I20000000000+0000003030+Z
182679001182679159-000684     182679006001023776532BATH BODY-GLOVE 18cm   0000001000+00002630+00000+0001T   00002630+0000001641          1400 ST3200               1DZ
182679002182679112-116038     182679006009681820246TCS CARRIER BAG MIDI   0000001000+00000035+00000+0001T   00000035+0000001641          1400 ST3090               1DZ
182680000182680               182680               170213GZ     1400+00000+GZ0000007016+0000007016+000000000+000000983+0000007990+0000000009+I20000000000+0000007990+Z
182680001182680079-000590     182680006003000543236SKETCH PAD & PAINT SET 0000001000+00007016+00000+0001T   00007016+0000001641          1400 ST3130               1DZ
182681000182681               182681               170213GZ     1400+00000+GZ0000006749+0000006749+000000000+000000946+0000007695+0000000000+I40000007695+0000000000+Z
182681001182681077-000245     182681006001023759214GIFT-RIBBON METALLICx2 0000002000+00001227+00000+0001T   00001227+0000001643          1400 ST3112               1DZ
182681002182681087-000102     182681006003000137466HAIR TRIMMER SET       0000001000+00003507+00000+0001T   00003507+0000001643          1400 ST3200               1DZ
182681003182681903-000200     182681006009826020234SWT CHOC RP CHOCO 23G  0000001000+00000788+00000+0001T   00000788+0000001643          1400 ST3150               1DZ
182682000182682               182682               170213GZ     1400+00000+GZ0000007660+0000007660+000000000+000001075+0000008735+0000000000+I40000008735+0000000000+Z
182682001182682903-000138     182682006002099004314SWT GS WINE GUMS 60G   0000001000+00000788+00000+0001T   00000788+0000001646          1400 ST3150               1DZ
182682002182682006-000118     182682006001023730725BALLOONS 6PC TWISTER   0000002000+00001753+00000+0001T   00001753+0000001646          1400 ST3131               1DZ
182682003182682077-000240     182682006003000326259G/RIBBON 4PC PEARLIZED 0000001000+00001753+00000+0001T   00001753+0000001646          1400 ST3112               1DZ
182682004182682566-001234     182682006003000217793STICKERS LASER ASSTD   0000001000+00001578+00000+0001T   00001578+0000001646          1400 ST3130               1DZ
182682005182682112-116038     182682006009681820246TCS CARRIER BAG MIDI   0000001000+00000035+00000+0001T   00000035+0000001646          1400 ST3090               1DZ
182683000182683               182683               170213GZ     1400+00000+GZ0000003363+0000003363+000000000+000000472+0000003830+0000000005+I20000000000+0000003830+Z
182683001182683200-000065     182683006001023323675DRINKING-STRAWS 38PCE  0000002000+00000613+00000+0001T   00000613+0000001647          1400 ST3214               1DZ
182683002182683903-005002     182683006002580020021SWT MALLOW SNAKE 120g  0000001000+00001314+00000+0001T   00001314+0000001647          1400 ST3150               1DZ
182683003182683903-000138     182683006002099004314SWT GS WINE GUMS 60G   0000001000+00000788+00000+0001T   00000788+0000001647          1400 ST3150               1DZ
182683004182683112-116038     182683006009681820246TCS CARRIER BAG MIDI   0000001000+00000035+00000+0001T   00000035+0000001647          1400 ST3090               1DZ
182684000182684               182684               170213GZ     1400+00000+GZ0000011079+0000011079+000000000+000001554+0000012633+0000000000+I40000012633+0000000000+Z
182684001182684106-001099     182684006003000653447WATER BOTTLE 650ml     0000001000+00002630+00000+0001T   00002630+0000001650          1400 ST3210               1DZ
182684002182684903-000138     182684006002099004314SWT GS WINE GUMS 60G   0000001000+00000788+00000+0001T   00000788+0000001650          1400 ST3150               1DZ
182684003182684903-000699     182684006002099007018SWT CANDY FRUIT CHEWS  0000001000+00001139+00000+0001T   00001139+0000001650          1400 ST3150               1DZ
182684004182684031-000856     182684006001023852113P/FRAME PL BROWN 10X15 0000001000+00003507+00000+0001T   00003507+0000001650          1400 ST3510               1DZ
182684005182684016-006509     182684006003000567355S/JAR GLS MINI LABEL   0000001000+00001753+00000+0001T   00002192+0008191650          1400 ST3300               1DZ
182684006182684077-000319     182684006001023609779GIFT-BAG 18X23CM BIRTHD0000001000+00001227+00000+0001T   00001227+0000001650          1400 ST3112               1DZ
182684007182684112-116038     182684006009681820246TCS CARRIER BAG MIDI   0000001000+00000035+00000+0001T   00000035+0000001650          1400 ST3090               1DZ
182685000182685               182685               170213GZ     1400+00000+GZ0000007397+0000007397+000000000+000001038+0000008430+0000000005+I20000000000+0000008430+Z
182685001182685565-000044     182685006003000128280BARREL OF SLIME 100g   0000001000+00000613+00000+0001T   00000613+0000001651          1400 ST3745               1DZ
182685002182685106-001100-B   182685006001023651693FRIDGE BOTTLE ASSORTED 0000001000+00001490+00000+0001T   00001490+0000001651          1400 ST3210               1DZ
182685003182685903-000059     182685006002099001269SWT GS NOVELTY ALIEN VA0000003000+00001753+00000+0001T   00001753+0000001651          1400 ST3150               1DZ
182685004182685112-116038     182685006009681820246TCS CARRIER BAG MIDI   0000001000+00000035+00000+0001T   00000035+0000001651          1400 ST3090               1DZ
182686000182686               182686               170213GZ     1400+00000+GZ0000003506+0000003506+000000000+000000492+0000003998+0000000000+I40000003998+0000000000+Z
182686001182686071-005213     182686006001023690371CELLOTAPE 12mmx33m     0000001000+00000876+00000+0001T   00000876+0000001653          1400 ST3130               1DZ
182686002182686566-000345     182686006001023994837STICKER ALBUM+STICKERS 0000001000+00002630+00000+0001T   00002630+0000001653          1400 ST3130               1DZ
182687000182687               182687               170213GZ     1400+00000+GZ0000013063+0000013063+000000000+000001832+0000014895+0000000000+I40000014895+0000000000+Z
182687001182687301-085007     182687006003000673698ORN OCC. LOVE S/PLAQUE 0000001000+00007893+00000+0001T   00007893+0000001658          1400 ST3505               1DZ
182687002182687080-000133-A   182687006003000647019MINI VALENTINES CARD   0000001000+00000437+00000+0001T   00000437+0000001658          1400 ST3112               1DZ
182687003182687304-001204     182687006001023737984FLOWER OCC. TEDDY/ROSES0000001000+00001402+00000+0001T   00001490+0006471658          1400 ST3510               1DZ
182687004182687077-000299-A   182687006003000670888GIFT-BAG PAPER JMB LOVE0000001000+00001753+00000+0001T   00001753+0000001658          1400 ST3112               1DZ
182687005182687077-000926     182687006003000414178G/WRAP 700mmx2m LOVE   0000001000+00002192+00000+0001T   00002192+0000001658          1400 ST3112               1DZ
182687006182687077-000348     182687006001023483287GIFT-BOWS 4,5cm 8PCE   0000001000+00001578+00000+0001T   00001578+0000001658          1400 ST3112               1DZ
182687007182687077-000926     182687006003000414178G/WRAP 700mmx2m LOVE   0000001000-00002192+00000+0001T   00002192+0000001658          1400 ST31122IC            1 Z
182688000182688               182688               170213GZ     1400+00000+GZ0000001227+0000001227+000000000+000000172+0000001390+0000000009+I20000000000+0000001390+Z
182688001182688077-000245     182688006001023759214GIFT-RIBBON METALLICx2 0000001000+00001227+00000+0001T   00001227+0000001659          1400 ST3112               1DZ
182689000182689               182689               170213GZ     1400+00000+GZ0000025259+0000025259+000000000+000003537+0000028796+0000000000+I40000028796+0000000000+Z
182689001182689466-000005     182689006003000508174PLAY-TENT POP-UP GIRL  0000001000+00021928+00000+0001T   00021928+0000001701          1400 ST3785               1DZ
182689002182689077-000380     182689006003000247585GIFT-BAG 33X45CM S/COL 0000001000+00002455+00000+0001T   00002455+0000001701          1400 ST3112               1DZ
182689003182689077-000011-E   182689006001023808646TISSUE-WRAP PINK 10PCE 0000001000+00000876+00000+0001T   00000876+0000001701          1400 ST3112               1DZ
182690000182690               182690               170213GZ     1400+00000+GZ0000001662+0000001662+000000000+000000235+0000001890+0000000007+I20000000000+0000001890+Z
182690001182690080-000133-A   182690006003000647019MINI VALENTINES CARD   0000002000+00000437+00000+0001T   00000437+0000001707          1400 ST3112               1DZ
182690002182690903-000200     182690006009826020234SWT CHOC RP CHOCO 23G  0000001000+00000788+00000+0001T   00000788+0000001707          1400 ST3150               1DZ
182691000182691               182691               170213GZ     1400+00000+GZ0000001490+0000001490+000000000+000000209+0000001690+0000000009+I20000000000+0000001690+Z
182691001182691028-000796     182691006001023812094SKEWERS 25cm 50PCE 4mm 0000001000+00001490+00000+0001T   00001490+0000001713          1400 ST3305               1DZ
182692000182692               182692               170213GZ     1400+00000+GZ0000003507+0000003507+000000000+000000491+0000003990+0000000008+I20000000000+0000003990+Z
182692001182692018-000136     182692006001023659026MUG OCC LOVE W/PLUSH   0000001000+00003507+00000+0001T   00003507+0000001714          1400 ST3515               1DZ
182693000182693               182693               170213GZ     1400+00000+GZ0000003507+0000003507+000000000+000000491+0000003990+0000000008+I20000000000+0000003990+Z
182693001182693018-005009     182693006001023725608MUG W/PLUSH-BEAR LOVE  0000001000+00003507+00000+0001T   00003507+0000001715          1400 ST3515               1DZ
182694000182694               182694               170213GZ     1400+00000+GZ0000003506+0000003506+000000000+000000492+0000003990+0000000008+I20000000000+0000003990+Z
182694001182694006-006018     182694006001023735256PARTY-SPRAY HAIR ASSORT0000001000+00002630+00000+0001T   00002630+0000001716          1400 ST3131               1DZ
182694002182694903-000482     182694006001704001397SWT SOFT-MINTS 60G     0000001000+00000876+00000+0001T   00000876+0000001716          1400 ST3150               1DZ
182695000182695               182695               170213GZ     1400+00000+GZ0000002980+0000002980+000000000+000000418+0000003398+0000000000+I40000003398+0000000000+Z
182695001182695002-021042     182695006001023621801TOOTHPICKS 250PCE      0000001000+00001227+00000+0001T   00001227+0000001720          1400 ST3300               1DZ
182695002182695002-000906-H   182695006001023415417JAR-OPENER WONDERGRIP  0000001000+00001753+00000+0001T   00001753+0000001720          1400 ST3300               1DZ
182696000182696               182696               170213GZ     1400+00000+GZ0000006172+0000006172+000000000+000000865+0000007030+0000000007+I20000000000+0000007030+Z
182696001182696071-081103     182696006003000197002GLUE STICKS LIQUID 3PCE0000001000+00001753+00000+0001T   00001753+0000001722          1400 ST3130               1DZ
182696002182696071-001346     182696006001023732552HIGHLIGHTERS 4PCE CARD 0000002000+00002192+00000+0001T   00002192+0000001722          1400 ST3130               1DZ
182696003182696112-116038     182696006009681820246TCS CARRIER BAG MIDI   0000001000+00000035+00000+0001T   00000035+0000001722          1400 ST3090               1DZ
182697000182697               182697               170213GZ     1400+00000+GZ0000003506+0000003506+000000000+000000492+0000003990+0000000008+I20000000000+0000003990+Z
182697001182697077-000299-A   182697006003000670888GIFT-BAG PAPER JMB LOVE0000002000+00001753+00000+0001T   00001753+0000001723          1400 ST3112               1DZ
182698000182698               182698               170213GZ     1400+00000+GZ0000000876+0000000876+000000000+000000123+0000000990+0000000009+I20000000000+0000000990+Z
182698001182698903-000481     182698006001704007481SWT MOO MILK-SHAKES 60G0000001000+00000876+00000+0001T   00000876+0000001725          1400 ST3150               1DZ
182699000182699               182699               170213GZ     1400+00000+GZ0000003770+0000003770+000000000+000000528+0000004290+0000000008+I20000000000+0000004290+Z
182699001182699077-000926     182699006003000414178G/WRAP 700mmx2m LOVE   0000001000+00002192+00000+0001T   00002192+0000001736          1400 ST3112               1DZ
182699002182699077-000348     182699006001023483287GIFT-BOWS 4,5cm 8PCE   0000001000+00001578+00000+0001T   00001578+0000001736          1400 ST3112               1DZ
A17021300                                          17050061GZSLAVE 1                       ST31IC
M17021391                              CASH        GZSLAVE 1                       Z-REPORT No.   647TOTAL (Sales - Refunds)           6294.77       CASH TO BE BANKED                 3856.70       DEBIT CARDS                          0.00       CREDIT CARDS                      2438.07       Z-READING                         6294.77       AIRTIME DEBIT CARD SALES             0.00       AIRTIME CARD SALES                   0.00       OVERS/UNDERS                         0.00       AIRTIME CASH SALES                   0.00       GIFT CARDS                           0.00       GIFT CARD CASH SALES                 0.00       T O T A L  CASH PAYOUTS              0.00                                                                                                                                                                                                                                                                                                                                                      Z
M17021392                              CASH        GZABSENT                                                                                                                                                                                          ANNUAL LEAVE                                                                                                                                                                                    DAY OFF                                                                                                                                                                                         COMMENTS                                                                                                                                                                                                                                                                                                                                                                                       Z
Y17021300                                          GZ00000000567080+000107
ZGZ17021406033 SLAVE 1      SALES DATA                     NEXT INVOICE NO.  182700 0647
F094626497-068614         1702041109200000042ICSLAVE 1
F094627466-000802         1702041109350000102ICSLAVE 1
F094654065-005337         1702041104260000202ICSLAVE 1
X GZ Slave 1 First invoice 182592 170213 Last invoice 182699 170213 Next invoice 182700 Total number of records 000000371 clbackup completed 06:03:56
