194815000194815               194815               170213GZ     1400+00000+GZ0000001753+0000001753+000000000+000000246+0000001990+0000000009+I20000000000+0000001990+Z
194815001194815366-006104     194815006003000616930DRESS UP FACE PAINT    0000001000+00001753+00000+0001T   00001753+0000001000          1400 RM7131               2AZ
194816000194816               194816               170213GZ     1400+00000+GZ0000001226+0000001226+000000000+000000172+0000001390+0000000008+I20000000000+0000001390+Z
194816001194816304-001011     194816006001023806727FLWR ROSE RED W/BEAR   0000002000+00000613+00000+0001T   00000788+0006471014          1400 RM7510               2AZ
194817000194817               194817               170213GZ     1400+00000+GZ0000006838+0000006838+000000000+000000958+0000007790+0000000006+I20000000000+0000007790+Z
194817001194817080-000113     194817006003000237449CARD&ENVLPE - LOVE     0000001000+00001753+00000+0001T   00001753+0000001016          1400 RM7112               2AZ
194817002194817077-000303     194817006001023593757GIFT-BAG PAPER MED     0000001000+00001578+00000+0001T   00001578+0000001016          1400 RM7112               2AZ
194817003194817018-000136     194817006001023659026MUG OCC LOVE W/PLUSH   0000001000+00003507+00000+0001T   00003507+0000001016          1400 RM7515               2AZ
194818000194818               194818               170213GZ     1400+00000+GZ0000001788+0000001788+000000000+000000251+0000002030+0000000009+I20000000000+0000002030+Z
194818001194818366-007600     194818006001023902184MASK THEATRICAL GLITTER0000001000+00001753+00000+0001T   00001753+0000001019          1400 RM7131               2AZ
194818002194818112-116038     194818006009681820246TCS CARRIER BAG MIDI   0000001000+00000035+00000+0001T   00000035+0000001019          1400 RM7090               2AZ
194819000194819               194819               170213GZ     1400+00000+GZ0000017413+0000017413+000000000+000002439+0000019850+0000000002+I20000000000+0000019850+Z
194819001194819365-003115     194819006003000157525PLAY-SET IRON+BOARD+ACC0000001000+00016665+00000+0001T   00016665+0000001119          1400 RM7725               2AZ
194819002194819564-000012     194819006001023130075BUBBLE BOTTLE MAGIC    0000001000+00000700+00000+0001T   00000700+0000001119          1400 RM7131               2AZ
194819003194819112-116069     194819006009681820277TCS CARRIER BAG JUMBO  0000001000+00000048+00000+0001T   00000048+0000001119          1400 RM7090               2AZ
194820000194820               194820               170213GZ     1400+00000+GZ0000001576+0000001576+000000000+000000221+0000001790+0000000007+I20000000000+0000001790+Z
194820001194820903-000121     194820006002099001689SWT GS ZILLIONS SOURS  0000001000+00000700+00000+0001T   00000700+0000001120          1400 RM7150               2AZ
194820002194820903-003075     194820003800065783125SWT CHOC FAFL WAFER 52g0000001000+00000876+00000+0001T   00000876+0000001120          1400 RM7150               2AZ
194821000194821               194821               170213GZ     1400+00000+GZ0000001753+0000001753+000000000+000000246+0000001990+0000000009+I20000000000+0000001990+Z
194821001194821306-001130-A   194821006003000359271FIRSTAID SUPPORT ANKLE 0000001000+00001753+00000+0001T   00001753+0000001120          1400 RM7200               2AZ
194822000194822               194822               170213GZ     1400+00000+GZ0000003069+0000003069+000000000+000000430+0000003490+0000000009+I20000000000+0000003490+Z
194822001194822072-000610     194822006001023858535DOG-LEAD REFLECTIVE    0000001000+00003069+00000+0001T   00003069+0000001121          1400 RM7870               2AZ
194823000194823               194823               170213GZ     1400+00000+GZ0000016970+0000016970+000000000+000002379+0000019340+0000000009+I20000000000+0000019340+Z
194823001194823365-004002     194823006001023657992KITCHEN-SET ACCESSORIES0000001000+00004385+00000+0001T   00004385+0000001122          1400 RM7725               2AZ
194823002194823365-000027     194823006001023786852P/SET TEA-SET PL 9PCS  0000002000+00003946+00000+0001T   00003946+0000001122          1400 RM7725               2AZ
194823003194823903-000919     194823006009802868577SWEET NOVELTY LASER POP0000001000+00001753+00000+0001T   00001753+0000001122          1400 RM7150               2AZ
194823004194823903-000907     194823006009802868324SWEET LASER BARBIE     0000001000+00002016+00000+0001T   00002016+0000001122          1400 RM7150               2AZ
194823005194823039-000323     194823006001023524171BIRTHDAY-CANDLES 24PCE 0000001000+00000876+00000+0001T   00000876+0000001122          1400 RM7510               2AZ
194823006194823112-116069     194823006009681820277TCS CARRIER BAG JUMBO  0000001000+00000048+00000+0001T   00000048+0000001122          1400 RM7090               2AZ
194824000194824               194824               170213GZ     1400+00000+GZ0000003507+0000003507+000000000+000000491+0000003990+0000000008+I20000000000+0000003990+Z
194824001194824028-002101     194824006002580009507CHAIR JUNIOR    ASSTD  0000001000+00003507+00000+0001T   00003507+0000001327          1400 RM7305               2DZ
194825000194825               194825               170213GZ     1400+00000+GZ0000000613+0000000613+000000000+000000086+0000000690+0000000009+I20000000000+0000000690+Z
194825001194825903-000848     194825008692806080076SWT SNACK BISCUIT 70g  0000001000+00000613+00000+0001T   00000613+0000001327          1400 RM7150               2DZ
194826000194826               194826               170213GZ     1400+00000+GZ0000036007+0000036007+000000000+000005044+0000041051+0000000000+I40000041051+0000000000+Z
194826001194826024-000058     194826006001023887498ROLLING-PIN            0000001000+00003946+00000+0001T   00003946+0000001340          1400 RM7300               2DZ
194826002194826031-001006     194826006003000379064P/FRAME PL SET 10PC    0000001000+00024560+00000+0001T   00024560+0000001340          1400 RM7510               2DZ
194826003194826200-000029     194826006003000593668DISPOSABLE ROLL BAKING 0000001000+00002630+00000+0001T   00002630+0000001340          1400 RM7214               2DZ
194826004194826024-000116     194826006001023422286N/STICK C/PAN SQUARE   0000001000+00004823+00000+0001T   00004823+0000001340          1400 RM7300               2DZ
194826005194826112-116069     194826006009681820277TCS CARRIER BAG JUMBO  0000001000+00000048+00000+0001T   00000048+0000001340          1400 RM7090               2DZ
194827000194827               194827               170213GZ     1400+00000+GZ0000000876+0000000876+000000000+000000123+0000000990+0000000009+I20000000000+0000000990+Z
194827001194827007-000045     194827006009608640438DISPLAY-POCKETS A4 10PC0000001000+00000876+00000+0001T   00000876+0000001340          1400 RM7130               2DZ
194828000194828               194828               170213GZ     1400+00000+GZ0000001613+0000001613+000000000+000000226+0000001839+0000000000+I40000001839+0000000000+Z
194828001194828018-000127     194828006001023380289MUG OCC STRAIGHT LOVE  0000001000+00001578+00000+0001T   00001753+0006471342          1400 RM7515               2DZ
194828002194828112-116038     194828006009681820246TCS CARRIER BAG MIDI   0000001000+00000035+00000+0001T   00000035+0000001342          1400 RM7090               2DZ
194829000194829               194829               170213GZ     1400+00000+GZ0000001051+0000001051+000000000+000000148+0000001190+0000000009+I20000000000+0000001190+Z
194829001194829903-002891     194829008935001721376MENTOS GUM WINTERGREEN 0000001000+00001051+00000+0001T   00001051+0000001347          1400 RM7150               2DZ
194830000194830               194830               170213GZ     1400+00000+GZ0000002192+0000002192+000000000+000000307+0000002490+0000000009+I20000000000+0000002490+Z
194830001194830077-000926     194830006003000414178G/WRAP 700mmx2m LOVE   0000001000+00002192+00000+0001T   00002192+0000001636          1400 RM7112               2AZ
194831000194831               194831               170213GZ     1400+00000+GZ0000007938+0000007938+000000000+000001113+0000009050+0000000001+I20000000000+0000009050+Z
194831001194831077-000270     194831006003000395453GIFT-BAG PPR JMB 33X45 0000001000+00002630+00000+0001T   00002630+0000001648          1400 SG7112               2DZ
194831002194831112-116069     194831006009681820277TCS CARRIER BAG JUMBO  0000001000+00000048+00000+0001T   00000048+0000001648          1400 SG7090               2DZ
194831003194831077-000011-C   194831006001023808523TISSUE 10xSHTS RED     0000001000+00000876+00000+0001T   00000876+0000001648          1400 SG7112               2DZ
194831004194831301-085000     194831006003000674299 ORN OCC. LOVE HEARTS  0000001000+00002192+00000+0001T   00002192+0000001648          1400 SG7505               2DZ
194831005194831080-000127     194831006003000424351VALENTINES DAY 36x24CM 0000001000+00002192+00000+0001T   00002192+0000001648          1400 SG7112               2DZ
194832000194832               194832               170213GZ     1400+00000+GZ0000030036+0000030036+000000000+000004209+0000034245+0000000000+I40000034245+0000000000+Z
194832001194832368-000614     194832006001023705808PLUSH LOVE 30cm        0000001000+00008771+00000+0001T   00008771+0000001651          1400 SG7745               2DZ
194832002194832112-116069     194832006009681820277TCS CARRIER BAG JUMBO  0000001000+00000048+00000+0001T   00000048+0000001651          1400 SG7090               2DZ
194832003194832071-030014     194832006003000284085PEN NVLTY METALLIC 6PC 0000001000+00002630+00000+0001T   00002630+0000001651          1400 SG7130               2DZ
194832004194832301-085003     194832006003000420827ORN OCCASION LOVE KEY  0000001000+00005262+00000+0001T   00005262+0000001651          1400 SG7505               2DZ
194832005194832565-000043     194832006003000109562NOVELTY BALL FUNNY FACE0000001000+00001753+00000+0001T   00001753+0000001651          1400 SG7745               2DZ
194832006194832304-001204     194832006001023737984FLOWER OCC. TEDDY/ROSES0000001000+00001402+00000+0001T   00001490+0006471651          1400 SG7510               2DZ
194832007194832089-000501     194832006003000622900KEY CHAIN LIGHT LASER  0000001000+00002192+00000+0001T   00002192+0000001651          1400 SG7205               2DZ
194832008194832050-000264-Z   194832006001023777072PADLOCK BRS 38mm CARDED0000001000+00005876+00000+0001T   00005876+0000001651          1400 SG7855               2DZ
194832009194832903-000200     194832006009826020234SWT CHOC RP CHOCO 23G  0000001000+00000788+00000+0001T   00000788+0000001651          1400 SG7150               2DZ
194832010194832903-000194     194832006009826020616SWT CHOC RP LOLLY 25G  0000001000+00001314+00000+0001T   00001314+0000001651          1400 SG7150               2DZ
194833000194833               194833               170213GZ     1400+00000+GZ0000007014+0000007014+000000000+000000982+0000007996+0000000000+I40000007996+0000000000+Z
194833001194833089-000010     194833006003000106523KEY CHAIN REFLECTOR 2PC0000001000+00003507+00000+0001T   00003507+0000001652          1400 SG7205               2DZ
194833002194833079-006498     194833006001023836151GLITTER SET 10PCE      0000001000+00003507+00000+0001T   00003507+0000001652          1400 SG7130               2DZ
194834000194834               194834               170213GZ     1400+00000+GZ0000001227+0000001227+000000000+000000172+0000001390+0000000009+I20000000000+0000001390+Z
194834001194834007-000206     194834006009635830215X/PAD 80-SHEETS PUNCHED0000001000+00001227+00000+0001T   00001227+0000001653          1400 SG7130               2DZ
194835000194835               194835               170213GZ     1400+00000+GZ0000014952+0000014952+000000000+000002096+0000017048+0000000000+I40000017048+0000000000+Z
194835001194835006-000124     194835006003000625888BALLOONS 10PC MIX COL  0000001000+00001753+00000+0001T   00001753+0000001656          1400 SG7131               2DZ
194835002194835039-001023     194835006003000466337CANDLE TEA-LITE METALIC0000001000+00001753+00000+0001T   00001753+0000001656          1400 SG7510               2DZ
194835003194835039-000108     194835006001023524034TEA-LITE CANDLES 8PCE  0000001000+00001490+00000+0001T   00001490+0000001656          1400 SG7510               2DZ
194835004194835112-116069     194835006009681820277TCS CARRIER BAG JUMBO  0000001000+00000048+00000+0001T   00000048+0000001656          1400 SG7090               2DZ
194835005194835006-000124     194835006003000625888BALLOONS 10PC MIX COL  0000001000+00001753+00000+0001T   00001753+0000001656          1400 SG7131               2DZ
194835006194835301-085000     194835006003000674299 ORN OCC. LOVE HEARTS  0000001000+00002192+00000+0001T   00002192+0000001656          1400 SG7505               2DZ
194835007194835030-000031-A   194835006003000457588PLAQUE W/WORDS ASSTD   0000001000+00004385+00000+0001T   00004823+0006471656          1400 SG7505               2DZ
194835008194835566-001234     194835006003000217793STICKERS LASER ASSTD   0000001000+00001578+00000+0001T   00001578+0000001656          1400 SG7130               2DZ
194836000194836               194836               170213GZ     1400+00000+GZ0000005262+0000005262+000000000+000000737+0000005990+0000000009+I20000000000+0000005990+Z
194836001194836267-001998     194836008711147355350PUZZLE 300pc FAIRY-TALE0000001000+00005262+00000+0001T   00005262+0000001657          1400 SG7755               2DZ
194837000194837               194837               170213GZ     1400+00000+GZ0000011791+0000011791+000000000+000001655+0000013446+0000000000+I40000013446+0000000000+Z
194837001194837040-000213     194837006001023617736CANDLE-HOLDER DAISY    0000002000+00001227+00000+0001T   00001227+0000001700          1400 SG7510               2DZ
194837002194837301-085000     194837006003000674299 ORN OCC. LOVE HEARTS  0000001000+00002192+00000+0001T   00002192+0000001700          1400 SG7505               2DZ
194837003194837112-116069     194837006009681820277TCS CARRIER BAG JUMBO  0000001000+00000048+00000+0001T   00000048+0000001700          1400 SG7090               2DZ
194837004194837039-000108     194837006001023524034TEA-LITE CANDLES 8PCE  0000001000+00001490+00000+0001T   00001490+0000001700          1400 SG7510               2DZ
194837005194837039-001023     194837006003000466337CANDLE TEA-LITE METALIC0000001000+00001753+00000+0001T   00001753+0000001700          1400 SG7510               2DZ
194837006194837039-000026     194837006001023551610C/TAPERED 25CM M/RED   0000002000+00001051+00000+0001T   00001051+0000001700          1400 SG7510               2DZ
194837007194837566-000027     194837006003000215843STICKERS FOIL ASSTD    0000002000+00000876+00000+0001T   00000876+0000001700          1400 SG7130               2DZ
194838000194838               194838               170213GZ     1400+00000+GZ0000001314+0000001314+000000000+000000184+0000001490+0000000008+I20000000000+0000001490+Z
194838001194838903-000194     194838006009826020616SWT CHOC RP LOLLY 25G  0000001000+00001314+00000+0001T   00001314+0000001701          1400 SG7150               2DZ
194839000194839               194839               170213GZ     1400+00000+GZ0000002630+0000002630+000000000+000000369+0000002990+0000000009+I20000000000+0000002990+Z
194839001194839079-000280     194839006003000160723PAINT READYMIX 6PCE    0000001000+00002630+00000+0001T   00002630+0000001702          1400 SG7130               2DZ
194840000194840               194840               170213GZ     1400+00000+GZ0000001753+0000001753+000000000+000000246+0000001990+0000000009+I20000000000+0000001990+Z
194840001194840200-000210     194840006008766091137BAKING-PAN ALUM-FOIL 5P0000001000+00001753+00000+0001T   00002192+0008171704          1400 SG7214               2DZ
194841000194841               194841               170213GZ     1400+00000+GZ0000009253+0000009253+000000000+000001297+0000010550+0000000000+I40000010550+0000000000+Z
194841001194841112-116069     194841006009681820277TCS CARRIER BAG JUMBO  0000001000+00000048+00000+0001T   00000048+0000001723          1400 SG7090               2DZ
194841002194841301-085004     194841006003000420469ORN LOVE PLAQUE 21X10CM0000001000+00003507+00000+0001T   00003946+0006471723          1400 SG7505               2DZ
194841003194841077-000270     194841006003000395453GIFT-BAG PPR JMB 33X45 0000001000+00002630+00000+0001T   00002630+0000001723          1400 SG7112               2DZ
194841004194841080-000127     194841006003000424351VALENTINES DAY 36x24CM 0000001000+00002192+00000+0001T   00002192+0000001723          1400 SG7112               2DZ
194841005194841903-000221     194841006001704007382SWT EENY-MEENY-MOS 60G 0000001000+00000876+00000+0001T   00000876+0000001723          1400 SG7150               2DZ
194842000194842               194842               170213GZ     1400+00000+GZ0000004385+0000004385+000000000+000000614+0000004990+0000000009+I20000000000+0000004990+Z
194842001194842466-006126     194842006001023800633BASKETABALL-GAME+BALL  0000001000+00004385+00000+0001T   00004385+0000001724          1400 SG7785               2DZ
194843000194843               194843               170213GZ     1400+00000+GZ0000001490+0000001490+000000000+000000209+0000001690+0000000009+I20000000000+0000001690+Z
194843001194843002-021062     194843006001023437884T/PICKS 5OPCE SA-FLAG  0000001000+00001490+00000+0001T   00001490+0000001725          1400 SG7300               2DZ
194844000194844               194844               170213GZ     1400+00000+GZ0000011449+0000011449+000000000+000001604+0000013050+0000000003+I20000000000+0000013050+Z
194844001194844366-002006     194844006001023902696DRESS UP WIGS PARTY ASS0000001000+00007016+00000+0001T   00007016+0000001729          1400 SG7131               2DZ
194844002194844206-000160     194844006003000628780CORN KERNELER          0000001000+00004385+00000+0001T   00004385+0000001729          1400 SG7321               2DZ
194844003194844112-116069     194844006009681820277TCS CARRIER BAG JUMBO  0000001000+00000048+00000+0001T   00000048+0000001729          1400 SG7090               2DZ
194845000194845               194845               170213GZ     1400+00000+GZ0000026360+0000026360+000000000+000003691+0000030051+0000000000+I40000030051+0000000000+Z
194845001194845031-000924     194845006001023669964P/FRAME COLLAGE PL     0000002000+00008771+00000+0001T   00008771+0000001732          1400 SG7510               2AZ
194845002194845108-000500     194845006003000667161TUMBLER DOUBLE WALL    0000002000+00004385+00000+0001T   00004385+0000001732          1400 SG7210               2AZ
194845003194845112-116069     194845006009681820277TCS CARRIER BAG JUMBO  0000001000+00000048+00000+0001T   00000048+0000001732          1400 SG7090               2AZ
194846000194846               194846               170213GZ     1400+00000+GZ0000004385+0000004385+000000000+000000614+0000004990+0000000009+I20000000000+0000004990+Z
194846001194846368-000049     194846006003000536955PLUSH BEAR 15cm LOVE   0000001000+00004385+00000+0001T   00004385+0000001736          1400 SG7745               2DZ
194847000194847               194847               170213GZ     1400+00000+GZ0000001578+0000001578+000000000+000000221+0000001790+0000000009+I20000000000+0000001790+Z
194847001194847077-000303     194847006001023593757GIFT-BAG PAPER MED     0000001000+00001578+00000+0001T   00001578+0000001737          1400 SG7112               2DZ
194848000194848               194848               170213GZ     1400+00000+GZ0000001753+0000001753+000000000+000000246+0000001990+0000000009+I20000000000+0000001990+Z
194848001194848079-006500     194848006001023557186GLUE GLITTER 6/10 PCE  0000001000+00001753+00000+0001T   00001753+0000001739          1400 SG7130               2DZ
194849000194849               194849               170213GZ     1400+00000+GZ0000003506+0000003506+000000000+000000492+0000003990+0000000008+I20000000000+0000003990+Z
194849001194849079-006500     194849006001023557186GLUE GLITTER 6/10 PCE  0000002000+00001753+00000+0001T   00001753+0000001739          1400 SG7130               2DZ
194850000194850               194850               170213GZ     1400+00000+GZ0000003555+0000003555+000000000+000000498+0000004050+0000000003+I20000000000+0000004050+Z
194850001194850036-000515     194850006001023817402HOOK-HANGER PL-CTD 10HK0000001000+00003507+00000+0001T   00003507+0000001741          1400 SG7212               2DZ
194850002194850112-116069     194850006009681820277TCS CARRIER BAG JUMBO  0000001000+00000048+00000+0001T   00000048+0000001741          1400 SG7090               2DZ
194851000194851               194851               170213GZ     1400+00000+GZ0000002980+0000002980+000000000+000000418+0000003390+0000000008+I20000000000+0000003390+Z
194851001194851304-001204     194851006001023737984FLOWER OCC. TEDDY/ROSES0000001000+00001402+00000+0001T   00001490+0006471742          1400 SG7510               2DZ
194851002194851077-000303     194851006001023593757GIFT-BAG PAPER MED     0000001000+00001578+00000+0001T   00001578+0000001742          1400 SG7112               2DZ
194852000194852               194852               170213GZ     1400+00000+GZ0000003507+0000003507+000000000+000000491+0000003990+0000000008+I20000000000+0000003990+Z
194852001194852089-000092     194852006003000457649K/CHAIN BOTTLE OPENER  0000001000+00003507+00000+0001T   00003507+0000001742          1400 SG7205               2DZ
194853000194853               194853               170213GZ     1400+00000+GZ0000001490+0000001490+000000000+000000209+0000001690+0000000009+I20000000000+0000001690+Z
194853001194853466-001801     194853006001023343482BALLS TABLE-TENNIS BOX60000001000+00001490+00000+0001T   00001490+0000001745          1400 SG7785               2DZ
194854000194854               194854               170213GZ     1400+00000+GZ0000007765+0000007765+000000000+000001088+0000008850+0000000003+I20000000000+0000008850+Z
194854001194854018-050000     194854006003000412679MUG OCC LOVE TWIN BEAR 0000001000+00006139+00000+0001T   00006139+0000001745          1400 SG7515               2DZ
194854002194854077-000303     194854006001023593757GIFT-BAG PAPER MED     0000001000+00001578+00000+0001T   00001578+0000001745          1400 SG7112               2DZ
194854003194854112-116069     194854006009681820277TCS CARRIER BAG JUMBO  0000001000+00000048+00000+0001T   00000048+0000001745          1400 SG7090               2DZ
194855000194855               194855               170213GZ     1400+00000+GZ0000000048+0000000048+000000000+000000007+0000000050+0000000005+I20000000000+0000000050+Z
194855001194855112-116069     194855006009681820277TCS CARRIER BAG JUMBO  0000001000+00000048+00000+0001T   00000048+0000001746          1400 SG7090               2DZ
194856000194856               194856               170213GZ     1400+00000+GZ0000003506+0000003506+000000000+000000492+0000003990+0000000008+I20000000000+0000003990+Z
194856001194856077-000475     194856006003000640775GIFT-BAG DESIGNER MED  0000001000+00002630+00000+0001T   00002630+0000001748          1400 SG7112               2DZ
194856002194856077-000011-D   194856006001023808554TISSUE-WRAP WHITE 10PCE0000001000+00000876+00000+0001T   00000876+0000001748          1400 SG7112               2DZ
194857000194857               194857               170213GZ     1400+00000+GZ0000014074+0000014074+000000000+000001973+0000016047+0000000000+I40000016047+0000000000+Z
194857001194857018-000136     194857006001023659026MUG OCC LOVE W/PLUSH   0000002000+00003507+00000+0001T   00003507+0000001750          1400 SG7515               2DZ
194857002194857077-000011-D   194857006001023808554TISSUE-WRAP WHITE 10PCE0000002000+00000876+00000+0001T   00000876+0000001750          1400 SG7112               2DZ
194857003194857077-000270     194857006003000395453GIFT-BAG PPR JMB 33X45 0000002000+00002630+00000+0001T   00002630+0000001750          1400 SG7112               2DZ
194857004194857112-116069     194857006009681820277TCS CARRIER BAG JUMBO  0000001000+00000048+00000+0001T   00000048+0000001750          1400 SG7090               2DZ
194858000194858               194858               170213GZ     1400+00000+GZ0000010518+0000010518+000000000+000001476+0000011994+0000000000+I40000011994+0000000000+Z
194858001194858006-000120     194858006001023346889BALLOONS 10PC MIX COL  0000006000+00001753+00000+0001T   00001753+0000001753          1400 SG7131               2DZ
194859000194859               194859               170213GZ     1400+00000+GZ0000001576+0000001576+000000000+000000221+0000001790+0000000007+I20000000000+0000001790+Z
194859001194859903-000481     194859006001704007481SWT MOO MILK-SHAKES 60G0000001000+00000876+00000+0001T   00000876+0000001756          1400 SG7150               2DZ
194859002194859903-000920     194859000041396002155SWT CANDY STICK/TATT   0000001000+00000700+00000+0001T   00000700+0000001756          1400 SG7150               2DZ
194860000194860               194860               170213GZ     1400+00000+GZ0000001578+0000001578+000000000+000000221+0000001790+0000000009+I20000000000+0000001790+Z
194860001194860077-000303     194860006001023593757GIFT-BAG PAPER MED     0000001000+00001578+00000+0001T   00001578+0000001759          1400 RM7112               2DZ
194861000194861               194861               170213GZ     1400+00000+GZ0000003767+0000003767+000000000+000000528+0000004290+0000000005+I20000000000+0000004290+Z
194861001194861564-000012     194861006001023130075BUBBLE BOTTLE MAGIC    0000001000+00000700+00000+0001T   00000700+0000001801          1400 RM7131               2DZ
194861002194861560-000703     194861006003000332403INSECTS 9PC ASSTD      0000001000+00001753+00000+0001T   00001753+0000001801          1400 RM7745               2DZ
194861003194861566-000301     194861006003000443802ROOM DECOR KIDS FRAMES 0000001000+00001314+00000+0001T   00001753+0008151801          1400 RM7130               2DZ
194862000194862               194862               170213GZ     1400+00000+GZ0000002541+0000002541+000000000+000000357+0000002890+0000000008+I20000000000+0000002890+Z
194862001194862077-000309     194862006001023608604GIFT-BAG 25X32CM GLOSS 0000001000+00001753+00000+0001T   00001753+0000001803          1400 RM7112               2DZ
194862002194862077-000010-C   194862006001023123879CREPE-PAPER RED        0000001000+00000788+00000+0001T   00000788+0000001803          1400 RM7112               2DZ
194863000194863               194863               170213GZ     1400+00000+GZ0000001314+0000001314+000000000+000000184+0000001490+0000000008+I20000000000+0000001490+Z
194863001194863077-000470     194863006003000330171G-BAG DESGN SML 11X14CM0000001000+00001314+00000+0001T   00001314+0000001804          1400 RM7112               2DZ
A17021300                                          12493756GZSLAVE 2                       RM72IC
A17021301                                          17250657GZSLAVE 2                       SG72IC
J17021301                        SIPHIWE GADEBE    GZ007-000196      FILE LEVER ARCH A4      000012  903-000183      SWT LB HEART LOLLY      000024  079-000802      ART+CRAFT STICKS 100PCE 000012  464-000122      PLAYING CARDS POKER 2PK 000024  562-000009      PLAY MODELLING CARDED   000020  004-071211      MOBILE SCREEN ENLARGER  000006  469-006554      B/BLOCKS STORAGE TRUCK  000012  033-006004      SEWING-KIT IN-POUCH     000012  106-001120      W/BOTTLE ALUM 750ml     000012  368-000637      PLUSH BEAR SLEEPING LOV 000010  007-000123      BOOK COVER 450mmx1.5m   000024  368-000104      PLUSH BEAR RUFFLED-LOOK 000012  565-000735      NOVELTY PUTTY BOUNCING  000024  033-006003      SEWING-KIT              000024  306-000002      NAIL BRUSHES 3PC ASTD   000024  265-000216      CAR B/O RACING-SET 36PC 000001  466-000584      SKIPPING-ROPE           000012  369-000821      BABY SHAPE-SORTER RND   000012  267-000054      PUZZLE 4D MODEL PLANE   000012  004-071270      CD-DISCS WRITABLE 10PCE 000010 Z
M17021391                              CASH        GZSLAVE 2                       Z-REPORT No.   650TOTAL (Sales - Refunds)           3469.27       CASH TO BE BANKED                 1626.60       DEBIT CARDS                          0.00       CREDIT CARDS                      1842.67       Z-READING                         3469.27       AIRTIME DEBIT CARD SALES             0.00       AIRTIME CARD SALES                   0.00       OVERS/UNDERS                         0.00       AIRTIME CASH SALES                   0.00       GIFT CARDS                           0.00       GIFT CARD CASH SALES                 0.00       T O T A L  CASH PAYOUTS              0.00                                                                                                                                                                                                                                                                                                                                                      Z
M17021392                              CASH        GZABSENT                                                                                                                                                                                          ANNUAL LEAVE                                                                                                                                                                                    DAY OFF                                                                                                                                                                                         COMMENTS                                                                                                                                                                                                                                                                                                                                                                                       Z
Y17021300                                          GZ00000000304540+000049
ZGZ17021406033 SLAVE 2      SALES DATA                     NEXT INVOICE NO.  194864 0650
F094654065-005337         1702041105370000202ICSLAVE 2
X GZ Slave 2 First invoice 194815 170213 Last invoice 194863 170213 Next invoice 194864 Total number of records 000000169 clbackup completed 06:03:57
