102452000102452               102452               170213H1     1400+00000+H10000004558+0000004558+000000000+000000640+0000005198+0000000000+I40000005198+0000000000+Z
102452001102452027-001020     102452006001246602519BROOM FLOOR W/HANDLE   0000002000+00002279+00000+0001T   00002279+0000000856          1400 3IC212               1AZ
102453000102453               102453               170213H1     1400+00000+H10000003507+0000003507+000000000+000000491+0000003990+0000000008+I20000000000+0000003990+Z
102453001102453301-085004     102453006003000420469ORN LOVE PLAQUE 21X10CM0000001000+00003507+00000+0001T   00003946+0006470932          1400 3IC505               1AZ
102454000102454               102454               170213H1     1400+00000+H10000036865+0000036865+000000000+000005165+0000042030+0000000000+I40000042030+0000000000+Z
102454001102454112-116038     102454006009681820246TCS CARRIER BAG MIDI   0000001000+00000035+00000+0001T   00000035+0000000950          1400 3IC090               1AZ
102454002102454007-000547     102454006001023847966N/BOOK/DIARY+PEN ASSTD 0000006000+00004385+00000+0001T   00004385+0000000950          1400 3IC130               1AZ
102454003102454079-000344     102454006001023904010FELT-TIP PENS 12PCE    0000004000+00002630+00000+0001T   00002630+0000000950          1400 3IC130               1AZ
102455000102455               102455               170213H1     1400+00000+H10000020173+0000020173+000000000+000002825+0000022998+0000000000+I40000022998+0000000000+Z
102455001102455072-020245     102455006001023617996PET BED FLEECE W/SIDES 0000001000+00014911+00000+0001T   00014911+0000001012          1400 3IC870               1AZ
102455002102455072-020249     102455006003000451241PET BLANKET FLEECE     0000001000+00005262+00000+0001T   00005262+0000001012          1400 3IC870               1AZ
102456000102456               102456               170213H1     1400+00000+H10000002000-0000000000+000000000+000000000+0000002000-0000000000+I20000000000+0000002000-Z
102456001102456001-999908     102456000000000999908LOCAL-TRAVELLING       0000001000-00002000+00000+0001X   00000000+0000001013          0000 3IC9082IC            1 Z
102457000102457               102457               170213H1     1400+00000+H10000002192+0000002192+000000000+000000307+0000002490+0000000009+I20000000000+0000002490+Z
102457001102457024-091103     102457006003453014307BAKING-CUP MUFFIN 50PCE0000001000+00002192+00000+0001T   00002192+0000001055          1400 3IC300               1AZ
102458000102458               102458               170213H1     1400+00000+H10000006605+0000006605+000000000+000000925+0000007530+0000000000+I20000000000+0000007530+Z
102458001102458903-000194     102458006009826020616SWT CHOC RP LOLLY 25G  0000005000+00001314+00000+0001T   00001314+0000001057          1400 3IC150               1AZ
102458002102458112-116038     102458006009681820246TCS CARRIER BAG MIDI   0000001000+00000035+00000+0001T   00000035+0000001057          1400 3IC090               1AZ
102459000102459               102459               170213H1     1400+00000+H10000001139+0000001139+000000000+000000160+0000001290+0000000009+I20000000000+0000001290+Z
102459001102459159-000445     102459006001023669728SOAP-BOX PL OVAL       0000001000+00001139+00000+0001T   00001139+0000001100          1400 3IC200               1AZ
102460000102460               102460               170213H1     1400+00000+H10000001313+0000001313+000000000+000000184+0000001490+0000000007+I20000000000+0000001490+Z
102460001102460018-000177     102460006001023797513MUG MINI LOVE ASSTD    0000001000+00000700+00000+0001T   00000700+0000001114          1400 3IC515               1AZ
102460002102460304-001011     102460006001023806727FLWR ROSE RED W/BEAR   0000001000+00000613+00000+0001T   00000788+0006471114          1400 3IC510               1AZ
102461000102461               102461               170213H1     1400+00000+H10000000035+0000000035+000000000+000000005+0000000040+0000000000+I20000000000+0000000040+Z
102461001102461112-116038     102461006009681820246TCS CARRIER BAG MIDI   0000001000+00000035+00000+0001T   00000035+0000001115          1400 3IC090               1AZ
102462000102462               102462               170213H1     1400+00000+H10000004769+0000004769+000000000+000000668+0000005430+0000000007+I20000000000+0000005430+Z
102462001102462903-000596     102462006003000607754SWEET MONEYBOX 12cm J/B0000001000+00003507+00000+0001T   00003507+0000001134          1400 3IC150               1AZ
102462002102462077-000319     102462006001023609779GIFT-BAG 18X23CM BIRTHD0000001000+00001227+00000+0001T   00001227+0000001134          1400 3IC112               1AZ
102462003102462112-116038     102462006009681820246TCS CARRIER BAG MIDI   0000001000+00000035+00000+0001T   00000035+0000001134          1400 3IC090               1AZ
102463000102463               102463               170213H1     1400+00000+H10000001314+0000001314+000000000+000000184+0000001490+0000000008+I20000000000+0000001490+Z
102463001102463903-000194     102463006009826020616SWT CHOC RP LOLLY 25G  0000001000+00001314+00000+0001T   00001314+0000001135          1400 3IC150               1AZ
102464000102464               102464               170213H1     1400+00000+H10000006171+0000006171+000000000+000000865+0000007030+0000000006+I20000000000+0000007030+Z
102464001102464024-000018     102464006001023610232CAKE-DEC S/S NOZZLE    0000001000+00003946+00000+0001T   00003946+0000001136          1400 3IC300               1AZ
102464002102464089-000192-A   102464006001023901774KEY-CHAIN ACRYLIC      0000001000+00000876+00000+0001T   00000876+0000001136          1400 3IC205               1AZ
102464003102464112-116038     102464006009681820246TCS CARRIER BAG MIDI   0000001000+00000035+00000+0001T   00000035+0000001136          1400 3IC090               1AZ
102464004102464903-000844     102464005010478432567SWT CANDY DL LUV HEARTS0000001000+00001314+00000+0001T   00001314+0000001136          1400 3IC150               1AZ
102465000102465               102465               170213H1     1400+00000+H10000001139+0000001139+000000000+000000160+0000001290+0000000009+I20000000000+0000001290+Z
102465001102465903-000087     102465006001704000161SWT SPECKLED-EGGS 50G  0000001000+00001139+00000+0001T   00001139+0000001139          1400 3IC150               1AZ
102466000102466               102466               170213H1     1400+00000+H10000003980+0000003980+000000000+000000558+0000004538+0000000000+I40000004538+0000000000+Z
102466001102466366-002809     102466006003000222643DRESS UP MOUSTACHE SET 0000001000+00001753+00000+0001T   00001753+0000001146          1400 3IC131               1AZ
102466002102466366-002695     102466006003000222766DRESS UP HAT ROUND GLIT0000001000+00002192+00000+0001T   00002192+0000001146          1400 3IC131               1AZ
102466003102466112-116038     102466006009681820246TCS CARRIER BAG MIDI   0000001000+00000035+00000+0001T   00000035+0000001146          1400 3IC090               1AZ
102467000102467               102467               170213H1     1400+00000+H10000006137+0000006137+000000000+000000860+0000006990+0000000007+I20000000000+0000006990+Z
102467001102467133-083230     102467006001023714305T/CLOTH 132x183cm OBLNG0000001000+00003507+00000+0001T   00003507+0000001147          1400 3IC212               1AZ
102467002102467566-000366     102467006003000590667STICKER HALLOWEEN GLOW 0000001000+00002630+00000+0001T   00002630+0000001147          1400 3IC130               1AZ
102468000102468               102468               170213H1     1400+00000+H10000010380+0000010380+000000000+000001455+0000011835+0000000000+I40000011835+0000000000+Z
102468001102468112-116038     102468006009681820246TCS CARRIER BAG MIDI   0000001000+00000035+00000+0001T   00000035+0000001154          1400 3IC090               1AZ
102468002102468002-220004     102468006001023467614F/COVER HEXAGONAL 70cm 0000001000+00003069+00000+0001T   00003069+0000001154          1400 3IC300               1AZ
102468003102468002-000685     102468006001023693785K/TOOL P/MASHER H/HOUSE0000001000+00002192+00000+0001T   00002192+0000001154          1400 3IC300               1AZ
102468004102468024-000097     102468006001023770035MEASURING-SET 11PCE WHT0000001000+00002192+00000+0001T   00002192+0000001154          1400 3IC300               1AZ
102468005102468024-091100     102468006001023914224BAKING-CUPS PAPER 100PC0000001000+00001753+00000+0001T   00001753+0000001154          1400 3IC300               1AZ
102468006102468002-000800     102468006001023770660PEELER MTL/PL WHITE    0000001000+00001139+00000+0001T   00001139+0000001154          1400 3IC300               1AZ
102469000102469               102469               170213H1     1400+00000+H10000002628+0000002628+000000000+000000368+0000002990+0000000006+I20000000000+0000002990+Z
102469001102469046-000012     102469006904708013062BATTERIES AA  CARD-OF-40000002000+00001314+00000+0001T   00001314+0000001154          1400 3IC312               1AZ
102470000102470               102470               170213H1     1400+00000+H10000012311+0000012311+000000000+000001726+0000014030+0000000007+I20000000000+0000014030+Z
102470001102470567-011908     102470006003000676361BK PROMO CLEARANCE ASST0000001000+00007016+00000+0001T   00007016+0000001157          1400 3IC757               1AZ
102470002102470567-011380     102470009781408190135BK STICKER ENCHANTED   0000001000+00002630+00000+0001T   00003507+0008141157          1400 3IC757               1AZ
102470003102470567-011381     102470009781408847282BK STICKER STORYBOOK   0000001000+00002630+00000+0001T   00003507+0008141157          1400 3IC757               1AZ
102470004102470112-116038     102470006009681820246TCS CARRIER BAG MIDI   0000001000+00000035+00000+0001T   00000035+0000001157          1400 3IC090               1AZ
102471000102471               102471               170213H1     1400+00000+H10000002192+0000002192+000000000+000000307+0000002490+0000000009+I20000000000+0000002490+Z
102471001102471080-000127     102471006003000424351VALENTINES DAY 36x24CM 0000001000+00002192+00000+0001T   00002192+0000001200          1400 3IC112               1AZ
102472000102472               102472               170213H1     1400+00000+H10000005787+0000005787+000000000+000000811+0000006590+0000000008+I20000000000+0000006590+Z
102472001102472368-000001     102472006003000097982Plush Bear 25cm        0000001000+00004385+00000+0001T   00004385+0000001221          1400 3IC745               1AZ
102472002102472304-001204     102472006001023737984FLOWER OCC. TEDDY/ROSES0000001000+00001402+00000+0001T   00001490+0006471221          1400 3IC510               1AZ
102473000102473               102473               170213H1     1400+00000+H10000009643+0000009643+000000000+000001353+0000010996+0000000000+I40000010996+0000000000+Z
102473001102473006-006019     102473006001023908193PARTY-SPRAY GLITTER    0000001000+00002630+00000+0001T   00002630+0000001227          1400 3IC131               1AZ
102473002102473006-006018     102473006001023735256PARTY-SPRAY HAIR ASSORT0000001000+00002630+00000+0001T   00002630+0000001227          1400 3IC131               1AZ
102473003102473006-006018-B   102473006003000008278PARTY-SPRAY HAIR NEON  0000001000+00002630+00000+0001T   00002630+0000001227          1400 3IC131               1AZ
102473004102473903-000211     102473006002099001238SWT GS MALLOW ICE CREAM0000001000+00001753+00000+0001T   00001753+0000001227          1400 3IC150               1AZ
102474000102474               102474               170213H1     1400+00000+H10000000876+0000000876+000000000+000000123+0000000990+0000000009+I20000000000+0000000990+Z
102474001102474001-000167     102474006001023679659TUMBLER 340ml WILLY    0000001000+00000876+00000+0001T   00000876+0000001231          1400 3IC515               1AZ
102475000102475               102475               170213H1     1400+00000+H10000002540+0000002540+000000000+000000356+0000002896+0000000000+I40000002896+0000000000+Z
102475001102475903-000194     102475006009826020616SWT CHOC RP LOLLY 25G  0000001000+00001314+00000+0001T   00001314+0000001236          1400 3IC150               1AZ
102475002102475304-001011     102475006001023806727FLWR ROSE RED W/BEAR   0000002000+00000613+00000+0001T   00000788+0006471236          1400 3IC510               1AZ
102476000102476               102476               170213H1     1400+00000+H10000020172+0000020172+000000000+000002825+0000022990+0000000007+I20000000000+0000022990+Z
102476001102476072-020309     102476006001023700995DOG-TOY DUMBELL F/BALL 0000001000+00002630+00000+0001T   00002630+0000001246          1400 3IC870               1AZ
102476002102476072-020241     102476006946859290039PET CAVE 42x45x40cm    0000001000+00017542+00000+0001T   00017542+0000001246          1400 3IC870               1AZ
102477000102477               102477               170213H1     1400+00000+H10000006136+0000006136+000000000+000000861+0000006997+0000000000+I40000006997+0000000000+Z
102477001102477079-013101     102477006001023863706CRAFT SET DIY PIPE-CLNR0000001000+00002630+00000+0001T   00002630+0000001248          1400 3IC130               1AZ
102477002102477903-000912     102477006009802868461SWT GUM TAPE HOT WHEELS0000002000+00001753+00000+0001T   00001753+0000001248          1400 3IC150               1AZ
102478000102478               102478               170213H1     1400+00000+H10000012309+0000012309+000000000+000001725+0000014030+0000000004+I20000000000+0000014030+Z
102478001102478567-011388     102478009781405374156BK RELIGIOUS STICKER   0000002000+00002630+00000+0001T   00003507+0008141318          1400 3IC757               1AZ
102478002102478567-011312     102478006003000593842BOOK READER PLAKKERPRET0000002000+00003507+00000+0001T   00004385+0008141318          1400 3IC757               1AZ
102478003102478112-116038     102478006009681820246TCS CARRIER BAG MIDI   0000001000+00000035+00000+0001T   00000035+0000001318          1400 3IC090               1AZ
102479000102479               102479               170213H1     1400+00000+H10000011362+0000011362+000000000+000001612+0000012974+0000000000+I40000012974+0000000000+Z
102479001102479080-000133-A   102479006003000647019MINI VALENTINES CARD   0000023000+00000437+00000+0001T   00000437+0000001321          1400 3IC112               1AZ
102479002102479080-000133     102479006003000535613CARD&ENV MINI ASTD DSGN0000003000+00000437+00000+0001T   00000437+0000001321          1400 3IC112               1AZ
102480000102480               102480               170213H1     1400+00000+H10000006138+0000006138+000000000+000000860+0000006998+0000000000+I40000006998+0000000000+Z
102480001102480031-000001-A   102480006003000246908P/FRAME GLS LOVE 9X13cm0000001000+00004385+00000+0001T   00004385+0000001323          1400 3IC510               1AZ
102480002102480080-000111     102480006003000252695CARD&ENVELPE - MUSICAL 0000001000+00001753+00000+0001T   00001753+0000001323          1400 3IC112               1AZ
102481000102481               102481               170213H1     1400+00000+H10000028270+0000028270+000000000+000003965+0000032235+0000000000+I40000032235+0000000000+Z
102481001102481112-116069     102481006009681820277TCS CARRIER BAG JUMBO  0000001000+00000048+00000+0001T   00000048+0000001333          1400 3IC090               1AZ
102481002102481075-000604     102481006003000006489HANDBAG WOVEN 36x14x26 0000001000+00001753+00000+0001T   00002630+0008121333          1400 3IC160               1AZ
102481003102481033-010720     102481006001023678645SAFETY-PINS 50PCE SMALL0000001000+00000876+00000+0001T   00000876+0000001333          1400 3IC200               1AZ
102481004102481133-000083     102481006003000450510DISH DRAINING MAT      0000001000+00005262+00000+0001T   00005262+0000001333          1400 3IC212               1AZ
102481005102481304-001204     102481006001023737984FLOWER OCC. TEDDY/ROSES0000001000+00001402+00000+0001T   00001490+0006471333          1400 3IC510               1AZ
102481006102481200-000012     102481006003000399536BAG 50PCE 165x146mm    0000001000+00003507+00000+0001T   00003507+0000001333          1400 3IC214               1AZ
102481007102481200-000011     102481006003000613489DISPOSABLE BAG ZIPER   0000001000+00003507+00000+0001T   00003507+0000001333          1400 3IC214               1AZ
102481008102481200-000023     102481006003000399413BAG SLIDE LOCK 10PC    0000001000+00002630+00000+0001T   00002630+0000001333          1400 3IC214               1AZ
102481009102481366-007600     102481006001023902184MASK THEATRICAL GLITTER0000001000+00001753+00000+0001T   00001753+0000001333          1400 3IC131               1AZ
102481010102481903-000215     102481006002099001214SWT GS MALLOW TWIST PAC0000001000+00001753+00000+0001T   00001753+0000001333          1400 3IC150               1AZ
102481011102481079-009702-E   102481008427973059439PAPER SIRIO A2 BLUE    0000001000+00001051+00000+0001T   00001051+0000001333          1400 3IC130               1AZ
102481012102481903-000844     102481005010478432567SWT CANDY DL LUV HEARTS0000002000+00001314+00000+0001T   00001314+0000001333          1400 3IC150               1AZ
102481013102481903-000151     102481006009803374411SWT SML RND R/BOW LOLLY0000001000+00000525+00000+0001T   00000525+0000001333          1400 3IC150               1AZ
102481014102481903-000155     102481006009803374435SWT LOLLY I LUV U HEART0000003000+00000525+00000+0001T   00000525+0000001333          1400 3IC150               1AZ
102482000102482               102482               170213H1     1400+00000+H10000000874+0000000874+000000000+000000124+0000000990+0000000008+I20000000000+0000000990+Z
102482001102482080-000133-A   102482006003000647019MINI VALENTINES CARD   0000002000+00000437+00000+0001T   00000437+0000001333          1400 3IC112               1AZ
102483000102483               102483               170213H1     1400+00000+H10000000000+0000000000+000000000+000000000+0000000000+0000000000+I20000000000+0000000000+Z
102483001102483039-000319-7   102483006003000443109B/CANDLES LRG NUMBER-7 0000001000-00000876+00000+0001T   00000876+0000001337          1400 3IC5102IC            1 Z
102483002102483039-000319-9   102483006003000443345B/CANDLES LRG NUMBER-9 0000001000+00000876+00000+0001T   00000876+0000001337          1400 3IC510               1 Z
102484000102484               102484               170213H1     1400+00000+H10000003500+0000003500+000000000+000000490+0000003990+0000000000+I40000003990+0000000000+Z
102484001102484903-000070     102484006001704001106SWT TOFFEE CREAMY 35g  0000005000+00000700+00000+0001T   00000700+0000001345          1400 3IC150               1AZ
102485000102485               102485               170213H1     1400+00000+H10000008760+0000008760+000000000+000001230+0000009990+0000000000+I20000000000+0000009990+Z
102485001102485089-000192-A   102485006001023901774KEY-CHAIN ACRYLIC      0000010000+00000876+00000+0001T   00000876+0000001347          1400 3IC205               1AZ
102486000102486               102486               170213H1     1400+00000+H10000001093+0000001093+000000000+000000154+0000001240+0000000007+I20000000000+0000001240+Z
102486001102486903-000183     102486006003000451043SWT LB HEART LOLLY     0000001000+00000393+00000+0001T   00000393+0000001350          1400 3IC150               1AZ
102486002102486018-000177     102486006001023797513MUG MINI LOVE ASSTD    0000001000+00000700+00000+0001T   00000700+0000001350          1400 3IC515               1AZ
102487000102487               102487               170213H1     1400+00000+H10000001751+0000001751+000000000+000000246+0000001990+0000000007+I20000000000+0000001990+Z
102487001102487080-000133-A   102487006003000647019MINI VALENTINES CARD   0000001000+00000437+00000+0001T   00000437+0000001356          1400 3IC112               1AZ
102487002102487903-000844     102487005010478432567SWT CANDY DL LUV HEARTS0000001000+00001314+00000+0001T   00001314+0000001356          1400 3IC150               1AZ
102488000102488               102488               170213H1     1400+00000+H10000006785+0000006785+000000000+000000952+0000007730+0000000007+I20000000000+0000007730+Z
102488001102488112-116038     102488006009681820246TCS CARRIER BAG MIDI   0000001000+00000035+00000+0001T   00000035+0000001419          1400 3IC090               1AZ
102488002102488567-014135     102488006003000560264BOOK COLOURING 240P    0000001000+00003069+00000+0001T   00003507+0008191419          1400 3IC757               1AZ
102488003102488079-000514     102488009556341898321CRAYONS WAX 24-COLOUR  0000001000+00002630+00000+0001T   00002630+0000001419          1400 3IC130               1AZ
102488004102488903-002851     102488000000087108538MENTOS ROLL STRAWBERRY 0000001000+00001051+00000+0001T   00001051+0000001419          1400 3IC150               1AZ
102489000102489               102489               170213H1     1400+00000+H10000002751+0000002751+000000000+000000386+0000003137+0000000000+I40000003137+0000000000+Z
102489001102489077-000311     102489006001023608666GIFT-BAG 11X14CM GLOSS 0000001000+00000613+00000+0001T   00000613+0000001422          1400 3IC112               1AZ
102489002102489077-000322     102489006001023677532GIFT-BAG 18X23CM E/D FL0000001000+00001227+00000+0001T   00001227+0000001422          1400 3IC112               1AZ
102489003102489077-000302     102489008010410010195GIFT-BAG 18X23CM E/D   0000001000+00000876+00000+0001T   00000876+0000001422          1400 3IC112               1AZ
102489004102489112-116038     102489006009681820246TCS CARRIER BAG MIDI   0000001000+00000035+00000+0001T   00000035+0000001422          1400 3IC090               1AZ
102490000102490               102490               170213H1     1400+00000+H10000007047+0000007047+000000000+000000989+0000008036+0000000000+I40000008036+0000000000+Z
102490001102490036-000010     102490006003000675777LINT REMOVER STICKY    0000002000+00001753+00000+0001T   00001753+0000001429          1400 3IC212               1AZ
102490002102490108-005005     102490006003000667451TRAY PL 29x21cm RECT   0000002000+00001753+00000+0001T   00001753+0000001429          1400 3IC210               1AZ
102490003102490112-116038     102490006009681820246TCS CARRIER BAG MIDI   0000001000+00000035+00000+0001T   00000035+0000001429          1400 3IC090               1AZ
102491000102491               102491               170213H1     1400+00000+H10000008771+0000008771+000000000+000001228+0000009999+0000000000+I40000009999+0000000000+Z
102491001102491267-000257     102491006003000308866PUZZLE 1500pc 87x57cm  0000001000+00008771+00000+0001T   00008771+0000001433          1400 3IC755               1AZ
102492000102492               102492               170213H1     1400+00000+H10000005336+0000005336+000000000+000000750+0000006086+0000000000+I40000006086+0000000000+Z
102492001102492079-000275     102492006003000160488PAINT-BRUSHES 6PCE PRO 0000001000+00001753+00000+0001T   00001753+0000001436          1400 3IC130               1AZ
102492002102492079-000282     102492006001023493309PAINT TUBS POSTER 12COL0000001000+00002630+00000+0001T   00002630+0000001436          1400 3IC130               1AZ
102492003102492903-000183     102492006003000451043SWT LB HEART LOLLY     0000001000+00000393+00000+0001T   00000393+0000001436          1400 3IC150               1AZ
102492004102492903-000151     102492006009803374411SWT SML RND R/BOW LOLLY0000001000+00000525+00000+0001T   00000525+0000001436          1400 3IC150               1AZ
102492005102492112-116038     102492006009681820246TCS CARRIER BAG MIDI   0000001000+00000035+00000+0001T   00000035+0000001436          1400 3IC090               1AZ
102493000102493               102493               170213H1     1400+00000+H10000002452+0000002452+000000000+000000344+0000002790+0000000006+I20000000000+0000002790+Z
102493001102493077-000314     102493006003000181148GIFT-BAG 11X14CM MATT  0000001000+00000876+00000+0001T   00000876+0000001436          1400 3IC112               1AZ
102493002102493018-000177     102493006001023797513MUG MINI LOVE ASSTD    0000001000+00000700+00000+0001T   00000700+0000001436          1400 3IC515               1AZ
102493003102493033-000106     102493006001023678027ELASTIC  6mmx3m  CARDED0000001000+00000876+00000+0001T   00000876+0000001436          1400 3IC200               1AZ
102494000102494               102494               170213H1     1400+00000+H10000002630+0000002630+000000000+000000369+0000002990+0000000009+I20000000000+0000002990+Z
102494001102494018-000135     102494006003000284474MUG OCC. DAD TUBBY     0000001000+00002630+00000+0001T   00002630+0000001444          1400 3IC515               1AZ
102495000102495               102495               170213H1     1400+00000+H10000001313+0000001313+000000000+000000184+0000001490+0000000007+I20000000000+0000001490+Z
102495001102495304-001011     102495006001023806727FLWR ROSE RED W/BEAR   0000001000+00000613+00000+0001T   00000788+0006471447          1400 3IC510               1AZ
102495002102495018-000177     102495006001023797513MUG MINI LOVE ASSTD    0000001000+00000700+00000+0001T   00000700+0000001447          1400 3IC515               1AZ
102496000102496               102496               170213H1     1400+00000+H10000010524+0000010524+000000000+000001474+0000011990+0000000008+I20000000000+0000011990+Z
102496001102496301-085003     102496006003000420827ORN OCCASION LOVE KEY  0000001000+00005262+00000+0001T   00005262+0000001448          1400 3IC505               1AZ
102496002102496089-000091     102496006003000425839K/CHAIN HIP FLASK DAD  0000001000+00005262+00000+0001T   00005262+0000001448          1400 3IC205               1AZ
102497000102497               102497               170213H1     1400+00000+H10000003541+0000003541+000000000+000000497+0000004030+0000000008+I20000000000+0000004030+Z
102497001102497036-000063     102497006009654960436COATHANGERS VIRGIN 5PCE0000002000+00001753+00000+0001T   00001753+0000001450          1400 3IC212               1AZ
102497002102497112-116038     102497006009681820246TCS CARRIER BAG MIDI   0000001000+00000035+00000+0001T   00000035+0000001450          1400 3IC090               1AZ
102498000102498               102498               170213H1     1400+00000+H10000001753+0000001753+000000000+000000246+0000001990+0000000009+I20000000000+0000001990+Z
102498001102498080-000115     102498006003000237333CARD&ENVELOPE - BLANKS 0000001000+00001753+00000+0001T   00001753+0000001505          1400 3IC112               1AZ
102499000102499               102499               170213H1     1400+00000+H10000006259+0000006259+000000000+000000878+0000007137+0000000000+I40000007137+0000000000+Z
102499001102499565-000888     102499006003000607846NOVELTY MESH BALL      0000001000+00001753+00000+0001T   00001753+0000001520          1400 3IC745               1AZ
102499002102499079-013106     102499006003000081998ART+CRAFT PIPE-CLEANERS0000001000+00003069+00000+0001T   00003069+0000001520          1400 3IC130               1AZ
102499003102499304-001204     102499006001023737984FLOWER OCC. TEDDY/ROSES0000001000+00001402+00000+0001T   00001490+0006471520          1400 3IC510               1AZ
102499004102499112-116038     102499006009681820246TCS CARRIER BAG MIDI   0000001000+00000035+00000+0001T   00000035+0000001520          1400 3IC090               1AZ
102500000102500               102500               170213H1     1400+00000+H10000002630+0000002630+000000000+000000369+0000002990+0000000009+I20000000000+0000002990+Z
102500001102500079-001002     102500006003000448715CANVAS A4 WOOD MOUNTED 0000001000+00002630+00000+0001T   00002630+0000001536          1400 3IC130               1AZ
102501000102501               102501               170213H1     1400+00000+H10000003069+0000003069+000000000+000000430+0000003499+0000000000+I40000003499+0000000000+Z
102501001102501079-013106     102501006003000081998ART+CRAFT PIPE-CLEANERS0000001000+00003069+00000+0001T   00003069+0000001538          1400 3IC130               1AZ
102502000102502               102502               170213H1     1400+00000+H10000007660+0000007660+000000000+000001075+0000008735+0000000000+I40000008735+0000000000+Z
102502001102502112-116038     102502006009681820246TCS CARRIER BAG MIDI   0000001000+00000035+00000+0001T   00000035+0000001541          1400 3IC090               1AZ
102502002102502072-020312     102502006003000605330PET TOY PUP STARTER PCK0000001000+00002630+00000+0001T   00002630+0000001541          1400 3IC870               1AZ
102502003102502079-006494     102502006003000159864GLITTER GLUE 5PCE 11cm 0000002000+00001490+00000+0001T   00001490+0000001541          1400 3IC130               1AZ
102502004102502903-000709     102502006002099007070SWT QUENCHERS FRUIT    0000001000+00001139+00000+0001T   00001139+0000001541          1400 3IC150               1AZ
102502005102502903-000006     102502006923431571571SWEET GS SOUR BELT 50g 0000001000+00000876+00000+0001T   00000876+0000001541          1400 3IC150               1AZ
102503000102503               102503               170213H1     1400+00000+H10000000613+0000000613+000000000+000000086+0000000690+0000000009+I20000000000+0000000690+Z
102503001102503306-000021     102503006001023169433EARBUDS 100PCE IN BAG  0000001000+00000613+00000+0001T   00000613+0000001541          1400 3IC200               1AZ
102504000102504               102504               170213H1     1400+00000+H10000001227+0000001227+000000000+000000172+0000001390+0000000009+I20000000000+0000001390+Z
102504001102504077-000322     102504006001023677532GIFT-BAG 18X23CM E/D FL0000001000+00001227+00000+0001T   00001227+0000001548          1400 3IC112               1DZ
102505000102505               102505               170213H1     1400+00000+H10000002016-0000002016-000000000+000000283-0000002300-0000000001+I20000000000+0000002300-Z
102505001102505001-999907     102505000000000999907CLEANING-MATERIALS     0000001000-00002016+00000+0001T   00000000+0000001550          1400 3IC9072IC            1 Z
102506000102506               102506               170213H1     1400+00000+H10000014976+0000014976+000000000+000002099+0000017075+0000000000+I40000017075+0000000000+Z
102506001102506365-004002     102506006001023657992KITCHEN-SET ACCESSORIES0000001000+00004385+00000+0001T   00004385+0000001552          1400 3IC725               1AZ
102506002102506112-116053     102506006006438002399TCS CARRIER BAG 38L    0000001000+00000069+00000+0001T   00000069+0000001552          1400 3IC090               1AZ
102506003102506361-090311     102506006003000542895PONY 8cmx9cm PERFECT   0000001000+00002630+00000+0001T   00002630+0000001552          1400 3IC725               1AZ
102506004102506362-003003     102506006003000295616HAIR BAND SET 6PCE     0000001000+00001753+00000+0001T   00001753+0000001552          1400 3IC160               1AZ
102506005102506365-003055     102506006001023832313KITCHEN-SET PL COOKING 0000001000+00006139+00000+0001T   00006139+0000001552          1400 3IC725               1AZ
102507000102507               102507               170213H1     1400+00000+H10000005262+0000005262+000000000+000000737+0000005990+0000000009+I20000000000+0000005990+Z
102507001102507075-000325     102507006003000285495WALLET CANVAS ASSTD    0000001000+00005262+00000+0001T   00005262+0000001554          1400 3IC160               1AZ
102508000102508               102508               170213H1     1400+00000+H10000003331+0000003331+000000000+000000467+0000003790+0000000008+I20000000000+0000003790+Z
102508001102508565-000002     102508006003000308071NOVELTY GROWING ANIMALS0000001000+00001753+00000+0001T   00001753+0000001556          1400 3IC745               1AZ
102508002102508560-000700     102508006001023865830GROWING ANIMALS ASSTD  0000001000+00001578+00000+0001T   00001578+0000001556          1400 3IC745               1AZ
102509000102509               102509               170213H1     1400+00000+H10000003506+0000003506+000000000+000000492+0000003990+0000000008+I20000000000+0000003990+Z
102509001102509033-010720     102509006001023678645SAFETY-PINS 50PCE SMALL0000001000+00000876+00000+0001T   00000876+0000001603          1400 3IC200               1AZ
102509002102509566-000367     102509006003000645558STICKER WINDOW DECOR   0000001000+00002630+00000+0001T   00002630+0000001603          1400 3IC130               1AZ
102510000102510               102510               170213H1     1400+00000+H10000003945+0000003945+000000000+000000553+0000004490+0000000008+I20000000000+0000004490+Z
102510001102510080-000127     102510006003000424351VALENTINES DAY 36x24CM 0000001000+00002192+00000+0001T   00002192+0000001610          1400 3IC112               1AZ
102510002102510077-000308     102510006001023595812GIFT-BAG 33X45CM E/DAY 0000001000+00001753+00000+0001T   00001753+0000001610          1400 3IC112               1AZ
102511000102511               102511               170213H1     1400+00000+H10000013190+0000013190+000000000+000001847+0000015037+0000000000+I40000015037+0000000000+Z
102511001102511112-116038     102511006009681820246TCS CARRIER BAG MIDI   0000001000+00000035+00000+0001T   00000035+0000001619          1400 2IC090               1AZ
102511002102511368-000049     102511006003000536955PLUSH BEAR 15cm LOVE   0000003000+00004385+00000+0001T   00004385+0000001619          1400 2IC745               1AZ
102512000102512               102512               170213H1     1400+00000+H10000008627+0000008627+000000000+000001209+0000009836+0000000000+I40000009836+0000000000+Z
102512001102512112-116038     102512006009681820246TCS CARRIER BAG MIDI   0000001000+00000035+00000+0001T   00000035+0000001621          1400 2IC090               1AZ
102512002102512206-000220     102512006003000631704EGG TIMER COLOUR-CHANGE0000001000+00002630+00000+0001T   00002630+0000001621          1400 2IC321               1AZ
102512003102512080-000124     102512006003000297733CARD & ENV VALENTINES  0000001000+00001578+00000+0001T   00001578+0000001621          1400 2IC112               1AZ
102512004102512566-000031     102512006003000283910STICKER BK TEACHER STIC0000002000+00002192+00000+0001T   00002192+0000001621          1400 2IC130               1AZ
102513000102513               102513               170213H1     1400+00000+H10000000874+0000000874+000000000+000000124+0000000998+0000000000+I40000000998+0000000000+Z
102513001102513080-000133-A   102513006003000647019MINI VALENTINES CARD   0000002000+00000437+00000+0001T   00000437+0000001624          1400 2IC112               1AZ
102514000102514               102514               170213H1     1400+00000+H10000004906+0000004906+000000000+000000689+0000005595+0000000000+I40000005595+0000000000+Z
102514001102514903-000844     102514005010478432567SWT CANDY DL LUV HEARTS0000001000+00001314+00000+0001T   00001314+0000001626          1400 2IC150               1AZ
102514002102514080-000133-A   102514006003000647019MINI VALENTINES CARD   0000001000+00000437+00000+0001T   00000437+0000001626          1400 2IC112               1AZ
102514003102514903-000151     102514006009803374411SWT SML RND R/BOW LOLLY0000001000+00000525+00000+0001T   00000525+0000001626          1400 2IC150               1AZ
102514004102514077-000235     102514006003000160211GIFT-RIBBON ROLL METALC0000001000+00002630+00000+0001T   00002630+0000001626          1400 2IC112               1AZ
102515000102515               102515               170213H1     1400+00000+H10000005734+0000005734+000000000+000000804+0000006530+0000000008+I20000000000+0000006530+Z
102515001102515079-013106     102515006003000081998ART+CRAFT PIPE-CLEANERS0000001000+00003069+00000+0001T   00003069+0000001637          1400 3IC130               1AZ
102515002102515220-009001     102515006001023167804ROSE TEASPOON 6PCE     0000001000+00002630+00000+0001T   00002630+0000001637          1400 3IC300               1AZ
102515003102515112-116038     102515006009681820246TCS CARRIER BAG MIDI   0000001000+00000035+00000+0001T   00000035+0000001637          1400 3IC090               1AZ
102516000102516               102516               170213H1     1400+00000+H10000032582+0000032582+000000000+000004565+0000037140+0000000007+I20000000000+0000037140+Z
102516001102516112-116069     102516006009681820277TCS CARRIER BAG JUMBO  0000001000+00000048+00000+0001T   00000048+0000001639          1400 3IC090               1AZ
102516002102516030-004015     102516006003000467624PLAQUE WDN SIGN 30X20CM0000001000+00009648+00000+0001T   00009648+0000001639          1400 3IC505               1AZ
102516003102516301-085007     102516006003000673698ORN OCC. LOVE S/PLAQUE 0000001000+00007893+00000+0001T   00007893+0000001639          1400 3IC505               1AZ
102516004102516079-000802     102516006001023528902ART+CRAFT STICKS 100PCE0000001000+00002455+00000+0001T   00002455+0000001639          1400 3IC130               1AZ
102516005102516301-085004     102516006003000420469ORN LOVE PLAQUE 21X10CM0000001000+00003507+00000+0001T   00003946+0006471639          1400 3IC505               1AZ
102516006102516301-085003     102516006003000420827ORN OCCASION LOVE KEY  0000001000+00005262+00000+0001T   00005262+0000001639          1400 3IC505               1AZ
102516007102516047-001337-H   102516006001023429971INS-TAPE 20m BLACK     0000001000+00001753+00000+0001T   00001753+0000001639          1400 3IC880               1AZ
102516008102516264-015023     102516000090159150237MAISTO SLICKERS 2" CAR 0000001000+00002016+00000+0001T   00002016+0000001639          1400 3IC710               1AZ
102517000102517               102517               170213H1     1400+00000+H10000004385+0000004385+000000000+000000614+0000004999+0000000000+I40000004999+0000000000+Z
102517001102517105-008005     102517006002580009484STORAGE CONTAINER 7.5L 0000001000+00004385+00000+0001T   00004385+0000001649          1400 3IC210               1AZ
102518000102518               102518               170213H1     1400+00000+H10000004822+0000004822+000000000+000000676+0000005490+0000000008+I20000000000+0000005490+Z
102518001102518368-000049     102518006003000536955PLUSH BEAR 15cm LOVE   0000001000+00004385+00000+0001T   00004385+0000001651          1400 3IC745               1AZ
102518002102518080-000133-A   102518006003000647019MINI VALENTINES CARD   0000001000+00000437+00000+0001T   00000437+0000001651          1400 3IC112               1AZ
102519000102519               102519               170213H1     1400+00000+H10000008504+0000008504+000000000+000001191+0000009690+0000000005+I20000000000+0000009690+Z
102519001102519077-000299     102519006003000395576G/BAG 32x25cm LRG LOVE 0000001000+00001490+00000+0001T   00001490+0000001653          1400 3IC112               1AZ
102519002102519018-000130     102519006001023867537MUG OCC LOVE MINI+HEART0000001000+00003507+00000+0001T   00003507+0000001653          1400 3IC515               1AZ
102519003102519018-005009     102519006001023725608MUG W/PLUSH-BEAR LOVE  0000001000+00003507+00000+0001T   00003507+0000001653          1400 3IC515               1AZ
102520000102520               102520               170213H1     1400+00000+H10000002192+0000002192+000000000+000000307+0000002490+0000000009+I20000000000+0000002490+Z
102520001102520079-013102     102520006003000019601ART+CRAFT DIY PIPE-CLNR0000001000+00002192+00000+0001T   00002192+0000001659          1400 3IC130               1AZ
102521000102521               102521               170213H1     1400+00000+H10000008771-0000008771-000000000+000001228-0000010000-0000000001+I20000000000+0000010000-Z
102521001102521001-999904     102521000000000999904PROMO/ADVERTISING      0000001000-00008771+00000+0001T   00000000+0000001700          1400 3IC9041IC            1 Z
102522000102522               102522               170213H1     1400+00000+H10000003507+0000003507+000000000+000000491+0000003990+0000000008+I20000000000+0000003990+Z
102522001102522018-000136     102522006001023659026MUG OCC LOVE W/PLUSH   0000001000+00003507+00000+0001T   00003507+0000001705          1400 3IC5151IC            1AZ
102523000102523               102523               170213H1     1400+00000+H10000001226+0000001226+000000000+000000172+0000001390+0000000008+I20000000000+0000001390+Z
102523001102523304-001011     102523006001023806727FLWR ROSE RED W/BEAR   0000002000+00000613+00000+0001T   00000788+0006471706          1400 3IC510               1AZ
102524000102524               102524               170213H1     1400+00000+H10000003800+0000003800+000000000+000000534+0000004330+0000000004+I20000000000+0000004330+Z
102524001102524079-009700-D   102524006003000545711PAPER SIRIO A4 RED COL.0000001000+00000306+00000+0001T   00000306+0000001713          1400 3IC130               1AZ
102524002102524079-009700-B   102524006003000547661PAPER SIRIO A4 WHITE   0000001000+00000306+00000+0001T   00000306+0000001713          1400 3IC130               1AZ
102524003102524079-013102     102524006003000019601ART+CRAFT DIY PIPE-CLNR0000001000+00002192+00000+0001T   00002192+0000001713          1400 3IC130               1AZ
102524004102524112-116038     102524006009681820246TCS CARRIER BAG MIDI   0000001000+00000035+00000+0001T   00000035+0000001713          1400 3IC090               1AZ
102524005102524903-000094     102524006923431501622SWT GS CANDY NECKLACE  0000001000+00000437+00000+0001T   00000437+0000001713          1400 3IC150               1AZ
102524006102524903-000099     102524006923431501646SWT CANDY GS WTCH B/LET0000002000+00000262+00000+0001T   00000262+0000001713          1400 3IC150               1AZ
102525000102525               102525               170213H1     1400+00000+H10000001753+0000001753+000000000+000000246+0000001990+0000000009+I20000000000+0000001990+Z
102525001102525024-091100     102525006001023914224BAKING-CUPS PAPER 100PC0000001000+00001753+00000+0001T   00001753+0000001714          1400 3IC300               1AZ
102526000102526               102526               170213H1     1400+00000+H10000003451+0000003451+000000000+000000484+0000003935+0000000000+I40000003935+0000000000+Z
102526001102526079-009700-D   102526006003000545711PAPER SIRIO A4 RED COL.0000001000+00000306+00000+0001T   00000306+0000001716          1400 3IC130               1AZ
102526002102526079-009700-B   102526006003000547661PAPER SIRIO A4 WHITE   0000001000+00000306+00000+0001T   00000306+0000001716          1400 3IC130               1AZ
102526003102526079-013102     102526006003000019601ART+CRAFT DIY PIPE-CLNR0000001000+00002192+00000+0001T   00002192+0000001716          1400 3IC130               1AZ
102526004102526079-009700-D   102526006003000545711PAPER SIRIO A4 RED COL.0000001000+00000306+00000+0001T   00000306+0000001716          1400 3IC130               1AZ
102526005102526079-009700-B   102526006003000547661PAPER SIRIO A4 WHITE   0000001000+00000306+00000+0001T   00000306+0000001716          1400 3IC130               1AZ
102526006102526112-116038     102526006009681820246TCS CARRIER BAG MIDI   0000001000+00000035+00000+0001T   00000035+0000001716          1400 3IC090               1AZ
102527000102527               102527               170213H1     1400+00000+H10000008364+0000008364+000000000+000001172+0000009536+0000000000+I40000009536+0000000000+Z
102527001102527079-013102     102527006003000019601ART+CRAFT DIY PIPE-CLNR0000001000+00002192+00000+0001T   00002192+0000001722          1400 3IC130               1AZ
102527002102527065-003671     102527006003000644650MUSICAL FLUTE 22cm     0000001000+00002630+00000+0001T   00002630+0000001722          1400 3IC745               1AZ
102527003102527567-011905     102527006003000676200BK PROMO CLEARANCE FOOD0000001000+00003507+00000+0001T   00004385+0008141722          1400 3IC757               1AZ
102527004102527112-116038     102527006009681820246TCS CARRIER BAG MIDI   0000001000+00000035+00000+0001T   00000035+0000001722          1400 3IC090               1AZ
102528000102528               102528               170213H1     1400+00000+H10000002192+0000002192+000000000+000000307+0000002490+0000000009+I20000000000+0000002490+Z
102528001102528079-013102     102528006003000019601ART+CRAFT DIY PIPE-CLNR0000001000+00002192+00000+0001T   00002192+0000001723          1400 3IC130               1AZ
102529000102529               102529               170213H1     1400+00000+H10000002892+0000002892+000000000+000000405+0000003290+0000000007+I20000000000+0000003290+Z
102529001102529018-000127     102529006001023380289MUG OCC STRAIGHT LOVE  0000001000+00001578+00000+0001T   00001753+0006471724          1400 3IC515               1AZ
102529002102529077-000310     102529006001023608635GIFT-BAG 18X23CM GLOSS 0000001000+00001314+00000+0001T   00001314+0000001724          1400 3IC112               1AZ
102530000102530               102530               170213H1     1400+00000+H10000000035+0000000035+000000000+000000005+0000000040+0000000000+I20000000000+0000000040+Z
102530001102530112-116038     102530006009681820246TCS CARRIER BAG MIDI   0000001000+00000035+00000+0001T   00000035+0000001725          1400 3IC090               1AZ
102531000102531               102531               170213H1     1400+00000+H10000007014+0000007014+000000000+000000982+0000007990+0000000006+I20000000000+0000007990+Z
102531001102531567-011445     102531009781847509772BK COLOURING DINOSAUR  0000001000+00003507+00000+0001T   00003507+0000001726          1400 3IC757               1AZ
102531002102531567-011489     102531006003000663330BK COLOURING 96P PONY  0000001000+00003507+00000+0001T   00003507+0000001726          1400 3IC757               1AZ
102532000102532               102532               170213H1     1400+00000+H10000001490+0000001490+000000000+000000209+0000001690+0000000009+I20000000000+0000001690+Z
102532001102532077-000299     102532006003000395576G/BAG 32x25cm LRG LOVE 0000001000+00001490+00000+0001T   00001490+0000001727          1400 3IC112               1AZ
102533000102533               102533               170213H1     1400+00000+H10000003945+0000003945+000000000+000000553+0000004498+0000000000+I40000004498+0000000000+Z
102533001102533046-000014-A   102533004897006177708BATTERIES SIZE:AAA 8PCE0000001000+00001753+00000+0001T   00001753+0000001729          1400 3IC312               1AZ
102533002102533089-000501     102533006003000622900KEY CHAIN LIGHT LASER  0000001000+00002192+00000+0001T   00002192+0000001729          1400 3IC205               1AZ
102534000102534               102534               170213H1     1400+00000+H10000010996+0000010996+000000000+000001541+0000012537+0000000000+I40000012537+0000000000+Z
102534001102534301-085007     102534006003000673698ORN OCC. LOVE S/PLAQUE 0000001000+00007893+00000+0001T   00007893+0000001734          1400 3IC505               1AZ
102534002102534080-000124     102534006003000297733CARD & ENV VALENTINES  0000001000+00001578+00000+0001T   00001578+0000001734          1400 3IC112               1AZ
102534003102534112-116038     102534006009681820246TCS CARRIER BAG MIDI   0000001000+00000035+00000+0001T   00000035+0000001734          1400 3IC090               1AZ
102534004102534077-000299     102534006003000395576G/BAG 32x25cm LRG LOVE 0000001000+00001490+00000+0001T   00001490+0000001734          1400 3IC112               1AZ
102535000102535               102535               170213H1     1400+00000+H10000005084+0000005084+000000000+000000712+0000005790+0000000006+I20000000000+0000005790+Z
102535001102535080-000127     102535006003000424351VALENTINES DAY 36x24CM 0000002000+00002192+00000+0001T   00002192+0000001734          1400 3IC112               1AZ
102535002102535903-000070     102535006001704001106SWT TOFFEE CREAMY 35g  0000001000+00000700+00000+0001T   00000700+0000001734          1400 3IC150               1AZ
102536000102536               102536               170213H1     1400+00000+H10000010559+0000010559+000000000+000001479+0000012030+0000000008+I20000000000+0000012030+Z
102536001102536018-005007     102536006003000515516MUG OCC. LOVE W/HEARTS 0000001000+00006139+00000+0001T   00006139+0000001737          1400 3IC515               1AZ
102536002102536368-000049     102536006003000536955PLUSH BEAR 15cm LOVE   0000001000+00004385+00000+0001T   00004385+0000001737          1400 3IC745               1AZ
102536003102536112-116038     102536006009681820246TCS CARRIER BAG MIDI   0000001000+00000035+00000+0001T   00000035+0000001737          1400 3IC090               1AZ
102537000102537               102537               170213H1     1400+00000+H10000002192+0000002192+000000000+000000307+0000002490+0000000009+I20000000000+0000002490+Z
102537001102537079-013102     102537006003000019601ART+CRAFT DIY PIPE-CLNR0000001000+00002192+00000+0001T   00002192+0000001737          1400 3IC130               1AZ
102538000102538               102538               170213H1     1400+00000+H10000013625+0000013625+000000000+000001909+0000015530+0000000004+I20000000000+0000015530+Z
102538001102538077-000300     102538006001023483249GIFT BOX OCCASIONS HEXG0000005000+00002192+00000+0001T   00002192+0000001743          1400 3IC112               1AZ
102538002102538077-000235     102538006003000160211GIFT-RIBBON ROLL METALC0000001000+00002630+00000+0001T   00002630+0000001743          1400 3IC112               1AZ
102538003102538112-116038     102538006009681820246TCS CARRIER BAG MIDI   0000001000+00000035+00000+0001T   00000035+0000001743          1400 3IC090               1AZ
102539000102539               102539               170213H1     1400+00000+H10000008771+0000008771+000000000+000001228+0000009999+0000000000+I40000009999+0000000000+Z
102539001102539019-000080     102539006001023775740VASE GLS FLORIST BALL  0000001000+00008771+00000+0001T   00008771+0000001756          1400 3IC510               1AZ
102540000102540               102540               170213H1     1400+00000+H10000002979+0000002979+000000000+000000418+0000003397+0000000000+I40000003397+0000000000+Z
102540001102540077-000308     102540006001023595812GIFT-BAG 33X45CM E/DAY 0000001000+00001753+00000+0001T   00001753+0000001758          1400 3IC112               1AZ
102540002102540304-001011     102540006001023806727FLWR ROSE RED W/BEAR   0000002000+00000613+00000+0001T   00000788+0006471758          1400 3IC510               1AZ
102541000102541               102541               170213H1     1400+00000+H10000008735+0000008735+000000000+000001228+0000009960+0000000003+I20000000000+0000009960+Z
102541001102541112-116053     102541006006438002399TCS CARRIER BAG 38L    0000001000+00000069+00000+0001T   00000069+0000001802          1400 3IC090               1AZ
102541002102541006-000800     102541006001023902801HAT CABARET 14x18cm    0000001000+00001753+00000+0001T   00001753+0000001802          1400 3IC131               1AZ
102541003102541033-010720     102541006001023678645SAFETY-PINS 50PCE SMALL0000001000+00000876+00000+0001T   00000876+0000001802          1400 3IC200               1AZ
102541004102541903-000094     102541006923431501622SWT GS CANDY NECKLACE  0000001000+00000437+00000+0001T   00000437+0000001802          1400 3IC150               1AZ
102541005102541903-000151     102541006009803374411SWT SML RND R/BOW LOLLY0000006000+00000525+00000+0001T   00000525+0000001802          1400 3IC150               1AZ
102541006102541903-000159     102541006003000417629SWT LB SMALL DUMMIE    0000007000+00000350+00000+0001T   00000350+0000001802          1400 3IC150               1AZ
A17021300                                          08575236H1SLAVE 1                       3IC2IC
A17021301                                          09331305H1SLAVE 1                       3IC2IC
A17021302                                          11514123H1SLAVE 1                       3IC2IC
A17021303                                          11553866H1SLAVE 1                       3IC2IC
A17021304                                          14365883H1SLAVE 1                       3IC2IC
A17021305                                          15011153H1SLAVE 1                       3IC2IC
B10252200                                          170213H1018-000136     17031823SLAVE 1     3IC1IC0000002000+0000001000+0000000000000+
B10252201                                          170213H1018-000136     17052447SLAVE 1     3IC1IC0000002000+0000001000+0000000000000+
B10252202                                          170213H1018-000136     17054331SLAVE 1     3IC1IC0000040000+0000001000+0000000000000+
C10252200                                          170213H1112-116038     17033202SLAVE 1     3IC1IC0000000000+0000000000+0020000001000+
M17021391                              CASH        H1SLAVE 1                       Z-REPORT No.   618TOTAL (Sales - Refunds)           6158.16       CASH TO BE BANKED                 2937.60       DEBIT CARDS                          0.00       CREDIT CARDS                      3077.56       Z-READING                         6015.16       AIRTIME DEBIT CARD SALES             0.00       AIRTIME CARD SALES                   0.00       OVERS/UNDERS                         0.00       AIRTIME CASH SALES                   0.00       GIFT CARDS                           0.00       GIFT CARD CASH SALES                 0.00       LOCAL-TRAVELLING                    20.00       CLEANING-MATERIALS                  22.99       PROMO/ADVERTISING                   99.99       ROUNDING                             0.02       T O T A L  CASH PAYOUTS            143.00                                                                                                                                                      Z
M17021392                              CASH        H1ABSENT                                                                                                                                                                                          ANNUAL LEAVE                                                                                                                                                                                    DAY OFF                                                                                                                                                                                         COMMENTS                                                                                                                                                                                                                                                                                                                                                                                       Z
Y17021300                                          H100000000541302+000087
ZH117021319453 SLAVE 1      SALES DATA                     NEXT INVOICE NO.  102542 0618
X H1 Slave 1 First invoice 102452 170213 Last invoice 102541 170213 Next invoice 102542 Total number of records 000000322 clbackup completed 19:45:39
