109125000109125               109125               170213HA     1400+00000+HA0000003681+0000003681+000000000+000000516+0000004190+0000000007+I20000000000+0000004190+Z
109125001109125080-000112     109125006003000252749CARD&ENVLP BDAY-MUSICAL0000001000+00001753+00000+0001T   00001753+0000000911          1400 JY6112               1AZ
109125002109125174-008034     109125006009654960610TRAVEL BOTTLES 150ml   0000001000+00001928+00000+0001T   00001928+0000000911          1400 JY6205               1AZ
109126000109126               109126               170213HA     1400+00000+HA0000002454+0000002454+000000000+000000344+0000002798+0000000000+I40000002798+0000000000+Z
109126001109126077-000011-D   109126006001023808554TISSUE-WRAP WHITE 10PCE0000001000+00000876+00000+0001T   00000876+0000000918          1400 JY6112               1AZ
109126002109126077-000323     109126006001023677563G/BAG 25X32CM E/DAY FLO0000001000+00001578+00000+0001T   00001578+0000000918          1400 JY6112               1AZ
109127000109127               109127               170213HA     1400+00000+HA0000008620+0000008620+000000000+000001209+0000009820+0000000009+I20000000000+0000009820+Z
109127001109127112-116038     109127006009681820246TCS CARRIER BAG MIDI   0000001000+00000035+00000+0001T   00000035+0000000923          1400 JY6090               1AZ
109127002109127079-013099     109127006003000081875ART+CRAFT EYES ASSTD   0000001000+00001753+00000+0001T   00001753+0000000923          1400 JY6130               1AZ
109127003109127079-013102     109127006003000019601ART+CRAFT DIY PIPE-CLNR0000002000+00002192+00000+0001T   00002192+0000000923          1400 JY6130               1AZ
109127004109127079-009700-L   109127006003000546350PAPER SIRIO A4 YELLOW  0000004000+00000306+00000+0001T   00000306+0000000923          1400 JY6130               1AZ
109127005109127079-009700-D   109127006003000545711PAPER SIRIO A4 RED COL.0000004000+00000306+00000+0001T   00000306+0000000923          1400 JY6130               1AZ
109128000109128               109128               170213HA     1400+00000+HA0000007049+0000007049+000000000+000000987+0000008030+0000000006+I20000000000+0000008030+Z
109128001109128018-005009     109128006001023725608MUG W/PLUSH-BEAR LOVE  0000002000+00003507+00000+0001T   00003507+0000000924          1400 JY6515               1AZ
109128002109128112-116038     109128006009681820246TCS CARRIER BAG MIDI   0000001000+00000035+00000+0001T   00000035+0000000924          1400 JY6090               1AZ
109129000109129               109129               170213HA     1400+00000+HA0000002630+0000002630+000000000+000000369+0000002999+0000000000+I40000002999+0000000000+Z
109129001109129077-000512     109129006003000590223GIFT-BAG DESIGNER LRG  0000001000+00002630+00000+0001T   00002630+0000000926          1400 JY6112               1AZ
109130000109130               109130               170213HA     1400+00000+HA0000005733+0000005733+000000000+000000804+0000006530+0000000007+I20000000000+0000006530+Z
109130001109130263-000010     109130006003000551293VEHICLE ANIMAL WORLD 3p0000001000+00001753+00000+0001T   00001753+0000000937          1400 JY6710               1AZ
109130002109130024-091100     109130006001023914224BAKING-CUPS PAPER 100PC0000001000+00001753+00000+0001T   00001753+0000000937          1400 JY6300               1AZ
109130003109130024-091103     109130006003453014307BAKING-CUP MUFFIN 50PCE0000001000+00002192+00000+0001T   00002192+0000000937          1400 JY6300               1AZ
109130004109130112-116038     109130006009681820246TCS CARRIER BAG MIDI   0000001000+00000035+00000+0001T   00000035+0000000937          1400 JY6090               1AZ
109131000109131               109131               170213HA     1400+00000+HA0000001227+0000001227+000000000+000000172+0000001390+0000000009+I20000000000+0000001390+Z
109131001109131077-000318     109131006001023609755GIFT-BAG 18X23CM E/D AN0000001000+00001227+00000+0001T   00001227+0000000943          1400 JY6112               1AZ
109132000109132               109132               170213HA     1400+00000+HA0000000000+0000000000+000000000+000000000+0000000000+0000000000+I20000000000+0000000000+Z
109132001109132077-000512     109132006003000590223GIFT-BAG DESIGNER LRG  0000001000-00002630+00000+0001T   00002630+0000000950          1400 JY61121IC            1AZ
109132002109132077-000512     109132006003000590223GIFT-BAG DESIGNER LRG  0000001000+00002630+00000+0001T   00002630+0000000950          1400 JY61121IC            1 Z
109133000109133               109133               170213HA     1400+00000+HA0000002630+0000002630+000000000+000000369+0000002990+0000000009+I20000000000+0000002990+Z
109133001109133486-000001     109133006001023507969ALARM-CLOCK SQ ASS     0000001000+00002630+00000+0001T   00002630+0000000950          1400 JY6510               1AZ
109134000109134               109134               170213HA     1400+00000+HA0000000613+0000000613+000000000+000000086+0000000699+0000000000+I40000000699+0000000000+Z
109134001109134304-001011     109134006001023806727FLWR ROSE RED W/BEAR   0000001000+00000613+00000+0001T   00000788+0006470952          1400 JY6510               1AZ
109135000109135               109135               170213HA     1400+00000+HA0000005260+0000005260+000000000+000000738+0000005998+0000000000+I40000005998+0000000000+Z
109135001109135002-000717     109135006001023775184CHOPPING-MATS FLEX 2PCE0000002000+00002630+00000+0001T   00002630+0000000953          1400 JY6300               1AZ
109136000109136               109136               170213HA     1400+00000+HA0000017924+0000017924+000000000+000002511+0000020430+0000000005+I20000000000+0000020430+Z
109136001109136006-000190     109136006003000685530BALLOONS LOVE 81x91cm  0000001000+00004385+00000+0001T   00004385+0000000956          1400 JY6131               1AZ
109136002109136080-000113     109136006003000237449CARD&ENVLPE - LOVE     0000001000+00001753+00000+0001T   00001753+0000000956          1400 JY6112               1AZ
109136003109136368-000005     109136006003000616862PLUSH MONSTER 24cm     0000001000+00010525+00000+0001T   00010525+0000000956          1400 JY6745               1AZ
109136004109136006-001000     109136006003000093779HELIUM BALLOON FILL    0000002000+00000613+00000+0001T   00000613+0000000956          1400 JY6131               1AZ
109136005109136112-116038     109136006009681820246TCS CARRIER BAG MIDI   0000001000+00000035+00000+0001T   00000035+0000000956          1400 JY6090               1AZ
109137000109137               109137               170213HA     1400+00000+HA0000005611-0000005611-000000000+000000786-0000006400-0000000003+I20000000000+0000006400-Z
109137001109137006-000190     109137006003000685530BALLOONS LOVE 81x91cm  0000001000-00004385+00000+0001T   00004385+0000001001          1400 JY61311IC            1 Z
109137002109137006-001000     109137006003000093779HELIUM BALLOON FILL    0000002000-00000613+00000+0001T   00000613+0000001001          1400 JY61311IC            1 Z
109138000109138               109138               170213HA     1400+00000+HA0000012314+0000012314+000000000+000001725+0000014039+0000000000+I40000014039+0000000000+Z
109138001109138368-000113     109138006001023780874PLUSH BLINGED LOVE 30cm0000001000+00012279+00000+0001T   00012279+0000001004          1400 JY6745               1AZ
109138002109138112-116038     109138006009681820246TCS CARRIER BAG MIDI   0000001000+00000035+00000+0001T   00000035+0000001004          1400 JY6090               1AZ
109139000109139               109139               170213HA     1400+00000+HA0000008806+0000008806+000000000+000001233+0000010030+0000000009+I20000000000+0000010030+Z
109139001109139006-000165     109139006001023758392BALLOONS LRG BAG-OF-1000000001000+00008771+00000+0001T   00008771+0000001005          1400 JY6131               1AZ
109139002109139112-116038     109139006009681820246TCS CARRIER BAG MIDI   0000001000+00000035+00000+0001T   00000035+0000001005          1400 JY6090               1AZ
109140000109140               109140               170213HA     1400+00000+HA0000002227+0000002227+000000000+000000312+0000002530+0000000009+I20000000000+0000002530+Z
109140001109140080-000127     109140006003000424351VALENTINES DAY 36x24CM 0000001000+00002192+00000+0001T   00002192+0000001006          1400 JY6112               1AZ
109140002109140112-116038     109140006009681820246TCS CARRIER BAG MIDI   0000001000+00000035+00000+0001T   00000035+0000001006          1400 JY6090               1AZ
109141000109141               109141               170213HA     1400+00000+HA0000006174+0000006174+000000000+000000865+0000007030+0000000009+I20000000000+0000007030+Z
109141001109141112-116038     109141006009681820246TCS CARRIER BAG MIDI   0000001000+00000035+00000+0001T   00000035+0000001007          1400 JY6090               1AZ
109141002109141567-011424     109141006003000641468BK COLOURING THERAPY A40000001000+00006139+00000+0001T   00006139+0000001007          1400 JY6757               1AZ
109142000109142               109142               170213HA     1400+00000+HA0000024062+0000024062+000000000+000003372+0000027434+0000000000+I40000027434+0000000000+Z
109142001109142112-116038     109142006009681820246TCS CARRIER BAG MIDI   0000001000+00000035+00000+0001T   00000035+0000001009          1400 JY6090               1AZ
109142002109142007-000551     109142006001023848079NOTE-PAD SHOP-LIST ASST0000001000+00001753+00000+0001T   00001753+0000001009          1400 JY6130               1AZ
109142003109142368-000265     109142006001023750914PLUSH BEAR 23CM ASSTD C0000002000+00006139+00000+0001T   00006139+0000001009          1400 JY6745               1AZ
109142004109142077-000299     109142006003000395576G/BAG 32x25cm LRG LOVE 0000002000+00001490+00000+0001T   00001490+0000001009          1400 JY6112               1AZ
109142005109142562-006275     109142006001023836182EDU BOARD W/MARKER ASST0000001000+00007016+00000+0001T   00007016+0000001009          1400 JY6755               1AZ
109143000109143               109143               170213HA     1400+00000+HA0000010872+0000010872+000000000+000001524+0000012390+0000000006+I20000000000+0000012390+Z
109143001109143206-000630     109143006003000631919SPECTACLE CLEANING BRUS0000001000+00001227+00000+0001T   00001227+0000001035          1400 JY6321               1AZ
109143002109143027-056191     109143006916920933134DISH-BRUSH+HOOK RECT   0000001000+00001753+00000+0001T   00001753+0000001035          1400 JY6212               1AZ
109143003109143306-000008     109143006001023991553TOOTH BRUSH ADULT W/CAP0000001000+00002630+00000+0001T   00002630+0000001035          1400 JY6200               1AZ
109143004109143567-010161     109143009780000008516BOOK TOP ASSTD MILLS   0000001000+00005262+00000+0001T   00005262+0000001035          1400 JY6757               1AZ
109144000109144               109144               170213HA     1400+00000+HA0000004820+0000004820+000000000+000000676+0000005496+0000000000+I40000005496+0000000000+Z
109144001109144903-002901     109144005996071650655QUICK MILK 5 S/BERRY   0000001000+00001578+00000+0001T   00001578+0000001037          1400 JY6150               1AZ
109144002109144903-000503     109144006001704006118SWT VAMPIRE FANGS 60G  0000001000+00000876+00000+0001T   00000876+0000001037          1400 JY6150               1AZ
109144003109144903-000087     109144006001704000161SWT SPECKLED-EGGS 50G  0000001000+00001139+00000+0001T   00001139+0000001037          1400 JY6150               1AZ
109144004109144077-000319     109144006001023609779GIFT-BAG 18X23CM BIRTHD0000001000+00001227+00000+0001T   00001227+0000001037          1400 JY6112               1AZ
109145000109145               109145               170213HA     1400+00000+HA0000003277+0000003277+000000000+000000460+0000003730+0000000007+I20000000000+0000003730+Z
109145001109145112-116038     109145006009681820246TCS CARRIER BAG MIDI   0000001000+00000035+00000+0001T   00000035+0000001105          1400 JY6090               1AZ
109145002109145080-000133-A   109145006003000647019MINI VALENTINES CARD   0000001000+00000437+00000+0001T   00000437+0000001105          1400 JY6112               1AZ
109145003109145077-000303     109145006001023593757GIFT-BAG PAPER MED     0000001000+00001578+00000+0001T   00001578+0000001105          1400 JY6112               1AZ
109145004109145077-000318     109145006001023609755GIFT-BAG 18X23CM E/D AN0000001000+00001227+00000+0001T   00001227+0000001105          1400 JY6112               1AZ
109146000109146               109146               170213HA     1400+00000+HA0000001753+0000001753+000000000+000000246+0000001990+0000000009+I20000000000+0000001990+Z
109146001109146077-000358     109146006003000329977GIFT-BAG KIDS 25X32CM  0000001000+00001753+00000+0001T   00001753+0000001108          1400 JY6112               1AZ
109147000109147               109147               170213HA     1400+00000+HA0000005295+0000005295+000000000+000000743+0000006030+0000000008+I20000000000+0000006030+Z
109147001109147112-116038     109147006009681820246TCS CARRIER BAG MIDI   0000001000+00000035+00000+0001T   00000035+0000001111          1400 JY6090               1AZ
109147002109147006-006018     109147006001023735256PARTY-SPRAY HAIR ASSORT0000002000+00002630+00000+0001T   00002630+0000001111          1400 JY6131               1AZ
109148000109148               109148               170213HA     1400+00000+HA0000021079+0000021079+000000000+000002954+0000024033+0000000000+I40000024033+0000000000+Z
109148001109148112-116038     109148006009681820246TCS CARRIER BAG MIDI   0000001000+00000035+00000+0001T   00000035+0000001116          1400 JY6090               1AZ
109148002109148368-000108     109148006001023751461PLUSH ANIMAL BALL ASSTD0000002000+00005262+00000+0001T   00005262+0000001116          1400 JY6745               1AZ
109148003109148133-000002     109148006001926059749DISH CLOTH MICROFIBRE  0000001000+00002630+00000+0001T   00002630+0000001116          1400 JY6212               1AZ
109148004109148027-008817     109148006003000666393DUSTER MICROFIBRE      0000001000+00003507+00000+0001T   00003507+0000001116          1400 JY6212               1AZ
109148005109148027-056186     109148006003000638215DISH BRUSH DUCK DESIGN 0000001000+00002630+00000+0001T   00002630+0000001116          1400 JY6212               1AZ
109148006109148077-000357     109148006003000139354GIFT-BAG 18X23CM B/DAY 0000001000+00001753+00000+0001T   00001753+0000001116          1400 JY6112               1AZ
109149000109149               109149               170213HA     1400+00000+HA0000007015+0000007015+000000000+000000983+0000007998+0000000000+I40000007998+0000000000+Z
109149001109149088-000055     109149006003000623068TOILET FRESHENER CISTER0000001000+00001753+00000+0001T   00001753+0000001120          1400 JY6212               1AZ
109149002109149002-220009     109149006003000567478FOODCOVER COLL. ROUND  0000001000+00005262+00000+0001T   00005262+0000001120          1400 JY6300               1AZ
109150000109150               109150               170213HA     1400+00000+HA0000005785+0000005785+000000000+000000810+0000006590+0000000005+I20000000000+0000006590+Z
109150001109150467-000001     109150006002923008280BEACH BUCKET PL 17x16cm0000001000+00001578+00000+0001T   00001578+0000001122          1400 JY6785               1AZ
109150002109150564-001029     109150006001023690821BUBBLE WEDDING DOVES   0000001000+00000700+00000+0001T   00000700+0000001122          1400 JY6131               1AZ
109150003109150467-000018     109150006001023746818BEACH-SET 3PCE         0000001000+00003507+00000+0001T   00003507+0000001122          1400 JY6785               1AZ
109151000109151               109151               170213HA     1400+00000+HA0000001752+0000001752+000000000+000000246+0000001990+0000000008+I20000000000+0000001990+Z
109151001109151903-000481     109151006001704007481SWT MOO MILK-SHAKES 60G0000001000+00000876+00000+0001T   00000876+0000001130          1400 JY6150               1AZ
109151002109151903-000521     109151006001704009652SWT GUMMY SOFT GUMS    0000001000+00000876+00000+0001T   00000876+0000001130          1400 JY6150               1AZ
109152000109152               109152               170213HA     1400+00000+HA0000000876+0000000876+000000000+000000123+0000000990+0000000009+I20000000000+0000000990+Z
109152001109152563-000316-C   109152006003000468430SERVIETTE 25cm GREEN   0000001000+00000876+00000+0001T   00000876+0000001130          1400 JY6214               1AZ
109153000109153               109153               170213HA     1400+00000+HA0000014503+0000014503+000000000+000002032+0000016535+0000000000+I40000016535+0000000000+Z
109153001109153018-005009     109153006001023725608MUG W/PLUSH-BEAR LOVE  0000001000+00003507+00000+0001T   00003507+0000001132          1400 JY6515               1AZ
109153002109153030-000007     109153006001023527325PLAQUE WDN B/BOARD ASST0000001000+00002630+00000+0001T   00002630+0000001132          1400 JY6505               1AZ
109153003109153030-000031-A   109153006003000457588PLAQUE W/WORDS ASSTD   0000001000+00004385+00000+0001T   00004823+0006471132          1400 JY6505               1AZ
109153004109153031-000902-B   109153006001023726285P/FRAME WDN OAK 10X15CM0000001000+00003946+00000+0001T   00003946+0000001132          1400 JY6510               1AZ
109153005109153112-116038     109153006009681820246TCS CARRIER BAG MIDI   0000001000+00000035+00000+0001T   00000035+0000001132          1400 JY6090               1AZ
109154000109154               109154               170213HA     1400+00000+HA0000000876+0000000876+000000000+000000123+0000000990+0000000009+I20000000000+0000000990+Z
109154001109154077-000011-C   109154006001023808523TISSUE 10xSHTS RED     0000001000+00000876+00000+0001T   00000876+0000001135          1400 JY6112               1AZ
109155000109155               109155               170213HA     1400+00000+HA0000002665+0000002665+000000000+000000374+0000003039+0000000000+I40000003039+0000000000+Z
109155001109155018-000129     109155006001023403353MUG OCC. LOVE V-SHAPE  0000001000+00002630+00000+0001T   00002630+0000001137          1400 JY6515               1AZ
109155002109155112-116038     109155006009681820246TCS CARRIER BAG MIDI   0000001000+00000035+00000+0001T   00000035+0000001137          1400 JY6090               1AZ
109156000109156               109156               170213HA     1400+00000+HA0000012313+0000012313+000000000+000001725+0000014038+0000000000+I40000014038+0000000000+Z
109156001109156368-000175     109156006003000270316PLUSH BEAR 4 ASSTD 18CM0000002000+00006139+00000+0001T   00006139+0000001140          1400 JY6745               1AZ
109156002109156112-116038     109156006009681820246TCS CARRIER BAG MIDI   0000001000+00000035+00000+0001T   00000035+0000001140          1400 JY6090               1AZ
109157000109157               109157               170213HA     1400+00000+HA0000009419+0000009419+000000000+000001319+0000010738+0000000000+I40000010738+0000000000+Z
109157001109157304-001011     109157006001023806727FLWR ROSE RED W/BEAR   0000001000+00000613+00000+0001T   00000788+0006471142          1400 JY6510               1AZ
109157002109157031-086302-C   109157006001023910332P/FRAME COLL. PL 3-HOLE0000001000+00008771+00000+0001T   00008771+0000001142          1400 JY6510               1AZ
109157003109157112-116038     109157006009681820246TCS CARRIER BAG MIDI   0000001000+00000035+00000+0001T   00000035+0000001142          1400 JY6090               1AZ
109158000109158               109158               170213HA     1400+00000+HA0000005470+0000005470+000000000+000000767+0000006237+0000000000+I40000006237+0000000000+Z
109158001109158369-000225     109158006001023857132BABY EDU BATHTIME 5PC  0000001000+00002630+00000+0001T   00002630+0000001145          1400 JY6745               1AZ
109158002109158304-001011     109158006001023806727FLWR ROSE RED W/BEAR   0000001000+00000613+00000+0001T   00000788+0006471145          1400 JY6510               1AZ
109158003109158566-000667     109158006003000658039STICKER FOIL EMBOSSED  0000001000+00002192+00000+0001T   00002192+0000001145          1400 JY6130               1AZ
109158004109158112-116038     109158006009681820246TCS CARRIER BAG MIDI   0000001000+00000035+00000+0001T   00000035+0000001145          1400 JY6090               1AZ
109159000109159               109159               170213HA     1400+00000+HA0000003504+0000003504+000000000+000000491+0000003995+0000000000+I40000003995+0000000000+Z
109159001109159078-000025     109159008887013700064SUPERGLUE 3g 1PCE CARD 0000001000+00000876+00000+0001T   00000876+0000001150          1400 JY6810               1AZ
109159002109159007-000209     109159006001023582102NOTE STICKY FILE MARKER0000002000+00001314+00000+0001T   00001314+0000001150          1400 JY6130               1AZ
109160000109160               109160               170213HA     1400+00000+HA0000007486+0000007486+000000000+000001049+0000008535+0000000000+I40000008535+0000000000+Z
109160001109160564-000017     109160006003000654468BUBBLE NOVELTY WAND 29 0000001000+00003507+00000+0001T   00003507+0000001154          1400 JY6131               1AZ
109160002109160077-000311     109160006001023608666GIFT-BAG 11X14CM GLOSS 0000001000+00000613+00000+0001T   00000613+0000001154          1400 JY6112               1AZ
109160003109160077-000348     109160006001023483287GIFT-BOWS 4,5cm 8PCE   0000001000+00001578+00000+0001T   00001578+0000001154          1400 JY6112               1AZ
109160004109160080-000113     109160006003000237449CARD&ENVLPE - LOVE     0000001000+00001753+00000+0001T   00001753+0000001154          1400 JY6112               1AZ
109160005109160112-116038     109160006009681820246TCS CARRIER BAG MIDI   0000001000+00000035+00000+0001T   00000035+0000001154          1400 JY6090               1AZ
109161000109161               109161               170213HA     1400+00000+HA0000012314+0000012314+000000000+000001725+0000014030+0000000009+I20000000000+0000014030+Z
109161001109161019-000079     109161006001023775726VASE 30cm CRACK-DESIGN 0000001000+00012279+00000+0001T   00012279+0000001200          1400 JY6510               1AZ
109161002109161112-116038     109161006009681820246TCS CARRIER BAG MIDI   0000001000+00000035+00000+0001T   00000035+0000001200          1400 JY6090               1AZ
109162000109162               109162               170213HA     1400+00000+HA0000001314+0000001314+000000000+000000184+0000001490+0000000008+I20000000000+0000001490+Z
109162001109162251-000001     109162006001023487681TAPE DBL-SIDE 18x1000mm0000001000+00001314+00000+0001T   00001314+0000001201          1400 JY6810               1AZ
109163000109163               109163               170213HA     1400+00000+HA0000014118+0000014118+000000000+000001978+0000016090+0000000006+I20000000000+0000016090+Z
109163001109163038-092233     109163006003000328925TABLE-MAT N/SLIP ASST  0000001000+00003069+00000+0001T   00003507+0008191203          1400 JY6300               1AZ
109163002109163024-000003     109163006001023462206S/BURNER COVERS ASSTD  0000001000+00004385+00000+0001T   00004385+0000001203          1400 JY6300               1AZ
109163003109163027-001020     109163006001246602519BROOM FLOOR W/HANDLE   0000001000+00002279+00000+0001T   00002279+0000001203          1400 JY6212               1AZ
109163004109163027-000030     109163006003000621750MOP COTTON HEAD 160g   0000001000+00004385+00000+0001T   00004385+0000001203          1400 JY6212               1AZ
109164000109164               109164               170213HA     1400+00000+HA0000022839+0000022839+000000000+000003199+0000026038+0000000000+I40000026038+0000000000+Z
109164001109164368-000637     109164006001023874092PLUSH BEAR SLEEPING LOV0000002000+00011402+00000+0001T   00012279+0006471208          1400 JY6745               1AZ
109164002109164112-116038     109164006009681820246TCS CARRIER BAG MIDI   0000001000+00000035+00000+0001T   00000035+0000001208          1400 JY6090               1AZ
109165000109165               109165               170213HA     1400+00000+HA0000011259+0000011259+000000000+000001577+0000012836+0000000000+I40000012836+0000000000+Z
109165001109165368-000265     109165006001023750914PLUSH BEAR 23CM ASSTD C0000001000+00006139+00000+0001T   00006139+0000001209          1400 JY6745               1AZ
109165002109165564-000012     109165006001023130075BUBBLE BOTTLE MAGIC    0000001000+00000700+00000+0001T   00000700+0000001209          1400 JY6131               1AZ
109165003109165050-000887-TS  109165006003000688210PADLOCK COMBO 35mm 8DIG0000001000+00004385+00000+0001T   00004385+0000001209          1400 JY6855               1AZ
109165004109165112-116038     109165006009681820246TCS CARRIER BAG MIDI   0000001000+00000035+00000+0001T   00000035+0000001209          1400 JY6090               1AZ
109166000109166               109166               170213HA     1400+00000+HA0000005820+0000005820+000000000+000000816+0000006630+0000000006+I20000000000+0000006630+Z
109166001109166112-116038     109166006009681820246TCS CARRIER BAG MIDI   0000001000+00000035+00000+0001T   00000035+0000001210          1400 JY6090               1AZ
109166002109166077-000303     109166006001023593757GIFT-BAG PAPER MED     0000002000+00001578+00000+0001T   00001578+0000001210          1400 JY6112               1AZ
109166003109166077-000011-D   109166006001023808554TISSUE-WRAP WHITE 10PCE0000001000+00000876+00000+0001T   00000876+0000001210          1400 JY6112               1AZ
109166004109166077-000011-Y   109166006001023809858TISSUE-WRAP GOLD 10PCE 0000001000+00001753+00000+0001T   00001753+0000001210          1400 JY6112               1AZ
109167000109167               109167               170213HA     1400+00000+HA0000000700+0000000700+000000000+000000098+0000000790+0000000008+I20000000000+0000000790+Z
109167001109167464-000121     109167006003000640492PLAYING CARDS MINI     0000001000+00000700+00000+0001T   00000700+0000001211          1400 JY6785               1AZ
109168000109168               109168               170213HA     1400+00000+HA0000010557+0000010557+000000000+000001479+0000012030+0000000006+I20000000000+0000012030+Z
109168001109168018-000136     109168006001023659026MUG OCC LOVE W/PLUSH   0000001000+00003507+00000+0001T   00003507+0000001253          1400 JY6515               1AZ
109168002109168031-080508     109168006001023802415P/FRAME PL 22X11CM LOVE0000001000+00004385+00000+0001T   00004385+0000001253          1400 JY6510               1AZ
109168003109168112-116038     109168006009681820246TCS CARRIER BAG MIDI   0000001000+00000035+00000+0001T   00000035+0000001253          1400 JY6090               1AZ
109168004109168077-000270     109168006003000395453GIFT-BAG PPR JMB 33X45 0000001000+00002630+00000+0001T   00002630+0000001253          1400 JY6112               1AZ
109169000109169               109169               170213HA     1400+00000+HA0000002488+0000002488+000000000+000000349+0000002830+0000000007+I20000000000+0000002830+Z
109169001109169028-001017     109169006003000464661PICNIC SET W/CUTLERY PL0000001000+00001753+00000+0001T   00002630+0008191322          1400 JY6305               1AZ
109169002109169112-116038     109169006009681820246TCS CARRIER BAG MIDI   0000001000+00000035+00000+0001T   00000035+0000001322          1400 JY6090               1AZ
109169003109169464-000121     109169006003000640492PLAYING CARDS MINI     0000001000+00000700+00000+0001T   00000700+0000001322          1400 JY6785               1AZ
109170000109170               109170               170213HA     1400+00000+HA0000006138+0000006138+000000000+000000860+0000006998+0000000000+I40000006998+0000000000+Z
109170001109170050-000887-TS  109170006003000688210PADLOCK COMBO 35mm 8DIG0000001000+00004385+00000+0001T   00004385+0000001323          1400 JY6855               1AZ
109170002109170077-000309     109170006001023608604GIFT-BAG 25X32CM GLOSS 0000001000+00001753+00000+0001T   00001753+0000001323          1400 JY6112               1AZ
109171000109171               109171               170213HA     1400+00000+HA0000005611+0000005611+000000000+000000786+0000006390+0000000007+I20000000000+0000006390+Z
109171001109171018-000136     109171006001023659026MUG OCC LOVE W/PLUSH   0000001000+00003507+00000+0001T   00003507+0000001336          1400 JY6515               1AZ
109171002109171903-000095     109171006001704011495SWT SPECKLED-EGGS 100G 0000001000+00002104+00000+0001T   00002104+0000001336          1400 JY6150               1AZ
109172000109172               109172               170213HA     1400+00000+HA0000000613+0000000613+000000000+000000086+0000000690+0000000009+I20000000000+0000000690+Z
109172001109172304-001011     109172006001023806727FLWR ROSE RED W/BEAR   0000001000+00000613+00000+0001T   00000788+0006471401          1400 JY6510               1AZ
109173000109173               109173               170213HA     1400+00000+HA0000002102+0000002102+000000000+000000295+0000002390+0000000007+I20000000000+0000002390+Z
109173001109173078-000025     109173008887013700064SUPERGLUE 3g 1PCE CARD 0000001000+00000876+00000+0001T   00000876+0000001406          1400 JY6810               1AZ
109173002109173006-001000     109173006003000093779HELIUM BALLOON FILL    0000002000+00000613+00000+0001T   00000613+0000001406          1400 JY6131               1AZ
109174000109174               109174               170213HA     1400+00000+HA0000007050+0000007050+000000000+000000988+0000008030+0000000008+I20000000000+0000008030+Z
109174001109174112-116038     109174006009681820246TCS CARRIER BAG MIDI   0000001000+00000035+00000+0001T   00000035+0000001408          1400 JY6090               1AZ
109174002109174263-000504     109174006001023790590TRACTOR+TRAILER 30cm   0000001000+00005262+00000+0001T   00005262+0000001408          1400 JY6710               1AZ
109174003109174077-000354     109174006003000139224GIFT-BAG 25X32CM H/MADE0000001000+00001753+00000+0001T   00001753+0000001408          1400 JY6112               1AZ
109175000109175               109175               170213HA     1400+00000+HA0000002192+0000002192+000000000+000000307+0000002490+0000000009+I20000000000+0000002490+Z
109175001109175072-000234     109175006003000691487DOG-COLLAR REFLECTIVE  0000001000+00002192+00000+0001T   00002192+0000001410          1400 JY6870               1AZ
109176000109176               109176               170213HA     1400+00000+HA0000005295+0000005295+000000000+000000742+0000006030+0000000007+I20000000000+0000006030+Z
109176001109176018-000136     109176006001023659026MUG OCC LOVE W/PLUSH   0000001000+00003507+00000+0001T   00003507+0000001416          1400 JY6515               1AZ
109176002109176080-000113     109176006003000237449CARD&ENVLPE - LOVE     0000001000+00001753+00000+0001T   00001753+0000001416          1400 JY6112               1AZ
109176003109176112-116038     109176006009681820246TCS CARRIER BAG MIDI   0000001000+00000035+00000+0001T   00000035+0000001416          1400 JY6090               1AZ
109177000109177               109177               170213HA     1400+00000+HA0000001753+0000001753+000000000+000000246+0000001990+0000000009+I20000000000+0000001990+Z
109177001109177077-000455     109177006003000285389G/BAG METALLIC LRG SOL 0000001000+00001753+00000+0001T   00001753+0000001417          1400 JY6112               1AZ
109178000109178               109178               170213HA     1400+00000+HA0000005204+0000005204+000000000+000000731+0000005930+0000000005+I20000000000+0000005930+Z
109178001109178903-000087     109178006001704000161SWT SPECKLED-EGGS 50G  0000003000+00001139+00000+0001T   00001139+0000001421          1400 JY6150               1AZ
109178002109178903-000220     109178006001704007368SWT JELLY BEANS 60G    0000002000+00000876+00000+0001T   00000876+0000001421          1400 JY6150               1AZ
109178003109178112-116038     109178006009681820246TCS CARRIER BAG MIDI   0000001000+00000035+00000+0001T   00000035+0000001421          1400 JY6090               1AZ
109179000109179               109179               170213HA     1400+00000+HA0000016663+0000016663+000000000+000002334+0000018990+0000000007+I20000000000+0000018990+Z
109179001109179080-000127     109179006003000424351VALENTINES DAY 36x24CM 0000002000+00002192+00000+0001T   00002192+0000001503          1400 JY6112               1AZ
109179002109179368-000111     109179006001023780812PLUSH BEAR/DOG 29CM    0000001000+00012279+00000+0001T   00012279+0000001503          1400 JY6745               1AZ
109180000109180               109180               170213HA     1400+00000+HA0000002630+0000002630+000000000+000000369+0000002999+0000000000+I40000002999+0000000000+Z
109180001109180077-000270     109180006003000395453GIFT-BAG PPR JMB 33X45 0000001000+00002630+00000+0001T   00002630+0000001504          1400 JY6112               1AZ
109181000109181               109181               170213HA     1400+00000+HA0000014065+0000014065+000000000+000001971+0000016036+0000000000+I40000016036+0000000000+Z
109181001109181301-000013     109181006001023781604ORN SENTIMENT STONE 4-A0000001000+00006139+00000+0001T   00006139+0000001506          1400 JY6505               1AZ
109181002109181301-000015     109181006001023479907ORN SENTIMENT STONE    0000001000+00004385+00000+0001T   00004385+0000001506          1400 JY6505               1AZ
109181003109181077-000357     109181006003000139354GIFT-BAG 18X23CM B/DAY 0000001000+00001753+00000+0001T   00001753+0000001506          1400 JY6112               1AZ
109181004109181077-000467     109181006003000329991GIFT-BAG STAMP 18X23CM 0000001000+00001753+00000+0001T   00001753+0000001506          1400 JY6112               1AZ
109181005109181112-116038     109181006009681820246TCS CARRIER BAG MIDI   0000001000+00000035+00000+0001T   00000035+0000001506          1400 JY6090               1AZ
109182000109182               109182               170213HA     1400+00000+HA0000003507+0000003507+000000000+000000491+0000003998+0000000000+I40000003998+0000000000+Z
109182001109182018-000136     109182006001023659026MUG OCC LOVE W/PLUSH   0000001000+00003507+00000+0001T   00003507+0000001508          1400 JY6515               1AZ
109183000109183               109183               170213HA     1400+00000+HA0000002630+0000002630+000000000+000000369+0000002990+0000000009+I20000000000+0000002990+Z
109183001109183077-000456     109183006003000285549G/BAG METALLIC JMB EMB 0000001000+00002630+00000+0001T   00002630+0000001509          1400 JY6112               1AZ
109184000109184               109184               170213HA     1400+00000+HA0000001578+0000001578+000000000+000000221+0000001790+0000000009+I20000000000+0000001790+Z
109184001109184080-000124     109184006003000297733CARD & ENV VALENTINES  0000001000+00001578+00000+0001T   00001578+0000001509          1400 JY6112               1AZ
109185000109185               109185               170213HA     1400+00000+HA0000001753+0000001753+000000000+000000246+0000001990+0000000009+I20000000000+0000001990+Z
109185001109185072-000232     109185006003000236060DOG-COL REFLCTV 35-51cm0000001000+00001753+00000+0001T   00001753+0000001513          1400 JY6870               1AZ
109186000109186               109186               170213HA     1400+00000+HA0000000700+0000000700+000000000+000000098+0000000790+0000000008+I20000000000+0000000790+Z
109186001109186464-000121     109186006003000640492PLAYING CARDS MINI     0000001000+00000700+00000+0001T   00000700+0000001513          1400 JY6785               1AZ
109187000109187               109187               170213HA     1400+00000+HA0000006577+0000006577+000000000+000000921+0000007490+0000000008+I20000000000+0000007490+Z
109187001109187072-020303     109187006008632000492DOG-TOY DENTAL-BONE    0000001000+00002192+00000+0001T   00002192+0000001518          1400 JY6870               1AZ
109187002109187082-000110     109187006003000360482READING GLS STRENGHT:2 0000001000+00004385+00000+0001T   00004385+0000001518          1400 JY6160               1AZ
109188000109188               109188               170213HA     1400+00000+HA0000016519+0000016519+000000000+000002314+0000018833+0000000000+I40000018833+0000000000+Z
109188001109188028-000799     109188006001023812186SKEWERS BAMBOO 100PCE  0000001000+00001578+00000+0001T   00001578+0000001520          1400 JY6305               1AZ
109188002109188089-000017     109188006003000331147KEYCHAIN MOM POLY BOX  0000001000+00004385+00000+0001T   00004385+0000001520          1400 JY6205               1AZ
109188003109188078-000030     109188006003000151141YAMAYO SUPERGLUE 8g    0000001000+00001753+00000+0001T   00001753+0000001520          1400 JY6810               1AZ
109188004109188077-000509     109188006003000082582GIFT-BAG SML 6PCE ORG P0000004000+00002192+00000+0001T   00002192+0000001520          1400 JY6112               1AZ
109188005109188112-116038     109188006009681820246TCS CARRIER BAG MIDI   0000001000+00000035+00000+0001T   00000035+0000001520          1400 JY6090               1AZ
109189000109189               109189               170213HA     1400+00000+HA0000018969+0000018969+000000000+000002661+0000021630+0000000000+I40000021630+0000000000+Z
109189001109189903-000619     109189006003000672455SWT LOLLY STR/BRRY 140G0000002000+00001753+00000+0001T   00001753+0000001557          1400 JY6150               1AZ
109189002109189565-000014     109189006003000671915NOVELTY AIR BALLOON    0000002000+00002630+00000+0001T   00002630+0000001557          1400 JY6745               1AZ
109189003109189565-000071     109189006003000643387NOVELTY WIND UP CHATTER0000002000+00001139+00000+0001T   00001139+0000001557          1400 JY6745               1AZ
109189004109189362-003000     109189006003000295258GIRL HEART NOTEBOOK    0000002000+00001753+00000+0001T   00002630+0008191557          1400 JY6160               1AZ
109189005109189112-116038     109189006009681820246TCS CARRIER BAG MIDI   0000001000+00000035+00000+0001T   00000035+0000001557          1400 JY6090               1AZ
109189006109189903-000927     109189000686464546003SWT NOVELTY LOLLY 17g  0000002000+00002192+00000+0001T   00002192+0000001557          1400 JY6150               1AZ
109190000109190               109190               170213HA     1400+00000+HA0000007487+0000007487+000000000+000001049+0000008536+0000000000+I40000008536+0000000000+Z
109190001109190007-000324     10919000600968585864125 SHEETS BRIGHTS MARLI0000001000+00003507+00000+0001T   00003507+0000001559          1400 JY6130               1AZ
109190002109190077-000011-D   109190006001023808554TISSUE-WRAP WHITE 10PCE0000001000+00000876+00000+0001T   00000876+0000001559          1400 JY6112               1AZ
109190003109190031-000864-A   109190006001023798350P/FRAME MAHOGANY 10X15 0000001000+00003069+00000+0001T   00003069+0000001559          1400 JY6510               1AZ
109190004109190112-116038     109190006009681820246TCS CARRIER BAG MIDI   0000001000+00000035+00000+0001T   00000035+0000001559          1400 JY6090               1AZ
109191000109191               109191               170213HA     1400+00000+HA0000011874+0000011874+000000000+000001663+0000013537+0000000000+I40000013537+0000000000+Z
109191001109191077-000303     109191006001023593757GIFT-BAG PAPER MED     0000001000+00001578+00000+0001T   00001578+0000001602          1400 JY6112               1AZ
109191002109191019-071606     109191006003000678891PEBBLES 500G 3MM WHITE.0000001000+00001490+00000+0001T   00001490+0000001602          1400 JY6510               1AZ
109191003109191040-001009     109191006003000323302C/HLDR-SET 3PC HOLDERS 0000001000+00008771+00000+0001T   00013157+0008171602          1400 JY6510               1AZ
109191004109191112-116038     109191006009681820246TCS CARRIER BAG MIDI   0000001000+00000035+00000+0001T   00000035+0000001602          1400 JY6090               1AZ
109192000109192               109192               170213HA     1400+00000+HA0000001752+0000001752+000000000+000000246+0000001990+0000000008+I20000000000+0000001990+Z
109192001109192007-000045     109192006009608640438DISPLAY-POCKETS A4 10PC0000002000+00000876+00000+0001T   00000876+0000001603          1400 JY6130               1AZ
109193000109193               109193               170213HA     1400+00000+HA0000002980+0000002980+000000000+000000418+0000003390+0000000008+I20000000000+0000003390+Z
109193001109193077-000240     109193006003000326259G/RIBBON 4PC PEARLIZED 0000001000+00001753+00000+0001T   00001753+0000001608          1400 JY6112               1AZ
109193002109193077-000322     109193006001023677532GIFT-BAG 18X23CM E/D FL0000001000+00001227+00000+0001T   00001227+0000001608          1400 JY6112               1AZ
109194000109194               109194               170213HA     1400+00000+HA0000003942+0000003942+000000000+000000553+0000004495+0000000000+I40000004495+0000000000+Z
109194001109194077-000317     109194006001023609748GIFT-BAG 11X14CM E/D AN0000001000+00000613+00000+0001T   00000613+0000001618          1400 JY6112               1AZ
109194002109194077-000321     109194006001023677501GIFT-BAG 11X14CM E/D FL0000001000+00000613+00000+0001T   00000613+0000001618          1400 JY6112               1AZ
109194003109194077-000317     109194006001023609748GIFT-BAG 11X14CM E/D AN0000002000+00000613+00000+0001T   00000613+0000001618          1400 JY6112               1AZ
109194004109194077-000299     109194006003000395576G/BAG 32x25cm LRG LOVE 0000001000+00001490+00000+0001T   00001490+0000001618          1400 JY6112               1AZ
109195000109195               109195               170213HA     1400+00000+HA0000001753+0000001753+000000000+000000246+0000001999+0000000000+I40000001999+0000000000+Z
109195001109195077-000455     109195006003000285389G/BAG METALLIC LRG SOL 0000001000+00001753+00000+0001T   00001753+0000001619          1400 JY6112               1AZ
109196000109196               109196               170213HA     1400+00000+HA0000008806+0000008806+000000000+000001233+0000010030+0000000009+I20000000000+0000010030+Z
109196001109196006-000165     109196006001023758392BALLOONS LRG BAG-OF-1000000001000+00008771+00000+0001T   00008771+0000001629          1400 JY6131               1AZ
109196002109196112-116038     109196006009681820246TCS CARRIER BAG MIDI   0000001000+00000035+00000+0001T   00000035+0000001629          1400 JY6090               1AZ
109197000109197               109197               170213HA     1400+00000+HA0000019235+0000019235+000000000+000002695+0000021930+0000000000+I40000021930+0000000000+Z
109197001109197306-000021-C   109197006003000567294EARBUDS 300PCE IN TUB  0000001000+00001753+00000+0001T   00001753+0000001631          1400 JY6200               1AZ
109197002109197018-000170     109197006001023775528MUG OCC. LOVE 2PC MINI 0000001000+00002192+00000+0001T   00002192+0000001631          1400 JY6515               1AZ
109197003109197206-000610     109197006003000631674BOMB SHOTS PL 10PC     0000001000+00003507+00000+0001T   00003507+0000001631          1400 JY6321               1AZ
109197004109197206-000150     109197006003000628667SLICER CUCUMBER        0000001000+00002192+00000+0001T   00002192+0000001631          1400 JY6321               1AZ
109197005109197133-000017     109197006003000525171CLEANING-CLOTHS 5PCE   0000001000+00003507+00000+0001T   00003507+0000001631          1400 JY6212               1AZ
109197006109197206-000100     109197006003000628063TONGS ICE COLD FINGERS 0000001000+00002192+00000+0001T   00002192+0000001631          1400 JY6321               1AZ
109197007109197071-081091     109197006001151010287STAED/GENKEM ALL-STICK 0000001000+00001227+00000+0001T   00001227+0000001631          1400 JY6130               1AZ
109197008109197306-007303     109197006003000532476MASSAGER (FOR HEAD)    0000001000+00002630+00000+0001T   00002630+0000001631          1400 JY6200               1AZ
109197009109197112-116038     109197006009681820246TCS CARRIER BAG MIDI   0000001000+00000035+00000+0001T   00000035+0000001631          1400 JY6090               1AZ
109198000109198               109198               170213HA     1400+00000+HA0000004383+0000004383+000000000+000000614+0000004990+0000000007+I20000000000+0000004990+Z
109198001109198018-005009     109198006001023725608MUG W/PLUSH-BEAR LOVE  0000001000+00003507+00000+0001T   00003507+0000001632          1400 JY6515               1AZ
109198002109198089-000192-A   109198006001023901774KEY-CHAIN ACRYLIC      0000001000+00000876+00000+0001T   00000876+0000001632          1400 JY6205               1AZ
109199000109199               109199               170213HA     1400+00000+HA0000010384+0000010384+000000000+000001454+0000011838+0000000000+I40000011838+0000000000+Z
109199001109199077-000303     109199006001023593757GIFT-BAG PAPER MED     0000001000+00001578+00000+0001T   00001578+0000001638          1400 JY6112               1AZ
109199002109199001-091415     109199006003000329113W/GLS OCC. LOVE 2PC 2800000001000+00008771+00000+0001T   00009648+0006471638          1400 JY6515               1AZ
109199003109199112-116038     109199006009681820246TCS CARRIER BAG MIDI   0000001000+00000035+00000+0001T   00000035+0000001638          1400 JY6090               1AZ
109200000109200               109200               170213HA     1400+00000+HA0000005031+0000005031+000000000+000000706+0000005730+0000000007+I20000000000+0000005730+Z
109200001109200493-059010     109200000078257590100BEACH-BALL COLOR-PANELS0000001000+00001490+00000+0001T   00001490+0000001640          1400 JY6787               1AZ
109200002109200034-078839     109200006003000622320COOEY BABY FEEDING SET 0000001000+00002630+00000+0001T   00002630+0000001640          1400 JY6215               1AZ
109200003109200039-000319-1   109200006003000442386B/CANDLES LRG NUMBER-1 0000001000+00000876+00000+0001T   00000876+0000001640          1400 JY6510               1AZ
109200004109200112-116038     109200006009681820246TCS CARRIER BAG MIDI   0000001000+00000035+00000+0001T   00000035+0000001640          1400 JY6090               1AZ
109201000109201               109201               170213HA     1400+00000+HA0000006139+0000006139+000000000+000000860+0000006990+0000000009+I20000000000+0000006990+Z
109201001109201031-080509     109201006001023802446P/FRAME COLLAGE 10X15CM0000001000+00006139+00000+0001T   00006139+0000001651          1400 JY6510               1AZ
109202000109202               109202               170213HA     1400+00000+HA0000031129+0000031129+000000000+000004362+0000035491+0000000000+I40000035491+0000000000+Z
109202001109202077-000270     109202006003000395453GIFT-BAG PPR JMB 33X45 0000001000+00002630+00000+0001T   00002630+0000001654          1400 JY6112               1AZ
109202002109202368-000265     109202006001023750914PLUSH BEAR 23CM ASSTD C0000001000+00006139+00000+0001T   00006139+0000001654          1400 JY6745               1AZ
109202003109202368-000175     109202006003000270316PLUSH BEAR 4 ASSTD 18CM0000002000+00006139+00000+0001T   00006139+0000001654          1400 JY6745               1AZ
109202004109202264-000921     109202000090159150442MAISTO CAR 3" FRESH    0000002000+00001753+00000+0001T   00001753+0000001654          1400 JY6710               1AZ
109202005109202080-000127     109202006003000424351VALENTINES DAY 36x24CM 0000003000+00002192+00000+0001T   00002192+0000001654          1400 JY6112               1AZ
109203000109203               109203               170213HA     1400+00000+HA0000001753+0000001753+000000000+000000246+0000001990+0000000009+I20000000000+0000001990+Z
109203001109203037-000001     109203006001023490445ASHTRAY 14cm ASSTD     0000001000+00001753+00000+0001T   00001753+0000001655          1400 JY6515               1AZ
109204000109204               109204               170213HA     1400+00000+HA0000000613+0000000613+000000000+000000086+0000000690+0000000009+I20000000000+0000000690+Z
109204001109204304-001011     109204006001023806727FLWR ROSE RED W/BEAR   0000001000+00000613+00000+0001T   00000788+0006471655          1400 JY6510               1AZ
109205000109205               109205               170213HA     1400+00000+HA0000003626+0000003626+000000000+000000508+0000004134+0000000000+I40000004134+0000000000+Z
109205001109205464-000121     109205006003000640492PLAYING CARDS MINI     0000001000+00000700+00000+0001T   00000700+0000001707          1400 JY6785               1AZ
109205002109205077-000303     109205006001023593757GIFT-BAG PAPER MED     0000001000+00001578+00000+0001T   00001578+0000001707          1400 JY6112               1AZ
109205003109205018-000177     109205006001023797513MUG MINI LOVE ASSTD    0000001000+00000700+00000+0001T   00000700+0000001707          1400 JY6515               1AZ
109205004109205304-001011     109205006001023806727FLWR ROSE RED W/BEAR   0000001000+00000613+00000+0001T   00000788+0006471707          1400 JY6510               1AZ
109205005109205112-116038     109205006009681820246TCS CARRIER BAG MIDI   0000001000+00000035+00000+0001T   00000035+0000001707          1400 JY6090               1AZ
109206000109206               109206               170213HA     1400+00000+HA0000007014+0000007014+000000000+000000982+0000007996+0000000000+I40000007996+0000000000+Z
109206001109206018-005009     109206006001023725608MUG W/PLUSH-BEAR LOVE  0000002000+00003507+00000+0001T   00003507+0000001708          1400 JY6515               1AZ
109207000109207               109207               170213HA     1400+00000+HA0000001400+0000001400+000000000+000000196+0000001590+0000000006+I20000000000+0000001590+Z
109207001109207018-000177     109207006001023797513MUG MINI LOVE ASSTD    0000002000+00000700+00000+0001T   00000700+0000001712          1400 JY6515               1AZ
109208000109208               109208               170213HA     1400+00000+HA0000001837+0000001837+000000000+000000258+0000002090+0000000005+I20000000000+0000002090+Z
109208001109208018-000177     109208006001023797513MUG MINI LOVE ASSTD    0000002000+00000700+00000+0001T   00000700+0000001713          1400 JY6515               1AZ
109208002109208080-000133-A   109208006003000647019MINI VALENTINES CARD   0000001000+00000437+00000+0001T   00000437+0000001713          1400 JY6112               1AZ
109209000109209               109209               170213HA     1400+00000+HA0000000874+0000000874+000000000+000000124+0000000990+0000000008+I20000000000+0000000990+Z
109209001109209080-000133-A   109209006003000647019MINI VALENTINES CARD   0000002000+00000437+00000+0001T   00000437+0000001713          1400 JY6112               1AZ
109210000109210               109210               170213HA     1400+00000+HA0000010556+0000010556+000000000+000001478+0000012034+0000000000+I40000012034+0000000000+Z
109210001109210018-000136     109210006001023659026MUG OCC LOVE W/PLUSH   0000003000+00003507+00000+0001T   00003507+0000001715          1400 JY6515               1AZ
109210002109210112-116038     109210006009681820246TCS CARRIER BAG MIDI   0000001000+00000035+00000+0001T   00000035+0000001715          1400 JY6090               1AZ
109211000109211               109211               170213HA     1400+00000+HA0000007750+0000007750+000000000+000001086+0000008836+0000000000+I40000008836+0000000000+Z
109211001109211077-000151     109211006008766114676GIFT-WRAP C/PHANE ASSTD0000001000+00000876+00000+0001T   00000876+0000001716          1400 JY6112               1AZ
109211002109211088-000103     109211006008766127102INCENSE 20PCE ASSTD    0000001000+00000700+00000+0001T   00000700+0000001716          1400 JY6212               1AZ
109211003109211039-000798     109211006001023617774CANDLES TEALITE BOX-50 0000001000+00006139+00000+0001T   00006139+0000001716          1400 JY6510               1AZ
109211004109211112-116038     109211006009681820246TCS CARRIER BAG MIDI   0000001000+00000035+00000+0001T   00000035+0000001716          1400 JY6090               1AZ
109212000109212               109212               170213HA     1400+00000+HA0000007927+0000007927+000000000+000001111+0000009038+0000000000+I40000009038+0000000000+Z
109212001109212018-019000     109212006003000557288MUG OCC. LOVE JUMBO    0000001000+00005262+00000+0001T   00005262+0000001719          1400 JY6515               1AZ
109212002109212304-001126     109212006001023845047FLWR BUNCH GERBERA 31cm0000001000+00002630+00000+0001T   00002630+0000001719          1400 JY6510               1AZ
109212003109212112-116038     109212006009681820246TCS CARRIER BAG MIDI   0000001000+00000035+00000+0001T   00000035+0000001719          1400 JY6090               1AZ
109213000109213               109213               170213HA     1400+00000+HA0000008505+0000008505+000000000+000001191+0000009696+0000000000+I40000009696+0000000000+Z
109213001109213077-000321     109213006001023677501GIFT-BAG 11X14CM E/D FL0000001000+00000613+00000+0001T   00000613+0000001721          1400 JY6112               1AZ
109213002109213301-000163     109213006001023716262ORN SENTIMENT P/FRAME  0000001000+00004385+00000+0001T   00004385+0000001721          1400 JY6505               1AZ
109213003109213089-000018     109213006003000176724KEY CHAIN INSPIRATION  0000001000+00003507+00000+0001T   00003507+0000001721          1400 JY6205               1AZ
109214000109214               109214               170213HA     1400+00000+HA0000003507+0000003507+000000000+000000491+0000003990+0000000008+I20000000000+0000003990+Z
109214001109214077-000932     109214006003000409808G/WRAP 700mmx5m PATTERN0000001000+00003507+00000+0001T   00003507+0000001722          1400 JY6112               1AZ
109215000109215               109215               170213HA     1400+00000+HA0000001578+0000001578+000000000+000000221+0000001790+0000000009+I20000000000+0000001790+Z
109215001109215077-000303     109215006001023593757GIFT-BAG PAPER MED     0000001000+00001578+00000+0001T   00001578+0000001722          1400 JY6112               1AZ
109216000109216               109216               170213HA     1400+00000+HA0000003365+0000003365+000000000+000000472+0000003830+0000000007+I20000000000+0000003830+Z
109216001109216018-000177     109216006001023797513MUG MINI LOVE ASSTD    0000001000+00000700+00000+0001T   00000700+0000001725          1400 JY6515               1AZ
109216002109216266-003012     109216006001023786128BOYS P/SET ARCHERY 4pc 0000001000+00002630+00000+0001T   00002630+0000001725          1400 JY6710               1AZ
109216003109216112-116038     109216006009681820246TCS CARRIER BAG MIDI   0000001000+00000035+00000+0001T   00000035+0000001725          1400 JY6090               1AZ
109217000109217               109217               170213HA     1400+00000+HA0000008331+0000008331+000000000+000001167+0000009498+0000000000+I40000009498+0000000000+Z
109217001109217368-000265     109217006001023750914PLUSH BEAR 23CM ASSTD C0000001000+00006139+00000+0001T   00006139+0000001729          1400 JY6745               1AZ
109217002109217080-000127     109217006003000424351VALENTINES DAY 36x24CM 0000001000+00002192+00000+0001T   00002192+0000001729          1400 JY6112               1AZ
109218000109218               109218               170213HA     1400+00000+HA0000010346+0000010346+000000000+000001450+0000011790+0000000006+I20000000000+0000011790+Z
109218001109218077-000303     109218006001023593757GIFT-BAG PAPER MED     0000001000+00001578+00000+0001T   00001578+0000001730          1400 JY6112               1AZ
109218002109218030-000031-A   109218006003000457588PLAQUE W/WORDS ASSTD   0000001000+00004385+00000+0001T   00004823+0006471730          1400 JY6505               1AZ
109218003109218039-000114     109218006001023524058CANDLE T/LITE RED 3.5CM0000001000+00001753+00000+0001T   00001753+0000001730          1400 JY6510               1AZ
109218004109218018-000129     109218006001023403353MUG OCC. LOVE V-SHAPE  0000001000+00002630+00000+0001T   00002630+0000001730          1400 JY6515               1AZ
109219000109219               109219               170213HA     1400+00000+HA0000001578+0000001578+000000000+000000221+0000001790+0000000009+I20000000000+0000001790+Z
109219001109219077-000303     109219006001023593757GIFT-BAG PAPER MED     0000001000+00001578+00000+0001T   00001578+0000001730          1400 JY6112               1AZ
109220000109220               109220               170213HA     1400+00000+HA0000003856+0000003856+000000000+000000541+0000004390+0000000007+I20000000000+0000004390+Z
109220001109220006-001000     109220006003000093779HELIUM BALLOON FILL    0000002000+00000613+00000+0001T   00000613+0000001732          1400 JY6131               1AZ
109220002109220039-081008     109220006008766081008CANDLES 9PCE SCENTED   0000001000+00002630+00000+0001T   00002630+0000001732          1400 JY6510               1AZ
109221000109221               109221               170213HA     1400+00000+HA0000001753+0000001753+000000000+000000246+0000001990+0000000009+I20000000000+0000001990+Z
109221001109221084-006995     109221006003000092802NAIL CLIPPER 8cm TOE   0000001000+00001753+00000+0001T   00001753+0000001733          1400 JY6200               1AZ
109222000109222               109222               170213HA     1400+00000+HA0000004857+0000004857+000000000+000000681+0000005538+0000000000+I40000005538+0000000000+Z
109222001109222036-000610     109222006001023627230WASHING-PEGS PL PACK-240000001000+00001753+00000+0001T   00001753+0000001735          1400 JY6212               1AZ
109222002109222079-013098     109222006003000197040ART+CRAFT SET DIY      0000001000+00003069+00000+0001T   00003069+0000001735          1400 JY6130               1AZ
109222003109222112-116038     109222006009681820246TCS CARRIER BAG MIDI   0000001000+00000035+00000+0001T   00000035+0000001735          1400 JY6090               1AZ
109223000109223               109223               170213HA     1400+00000+HA0000004208+0000004208+000000000+000000590+0000004790+0000000008+I20000000000+0000004790+Z
109223001109223077-000303     109223006001023593757GIFT-BAG PAPER MED     0000001000+00001578+00000+0001T   00001578+0000001735          1400 JY6112               1AZ
109223002109223077-000270     109223006003000395453GIFT-BAG PPR JMB 33X45 0000001000+00002630+00000+0001T   00002630+0000001735          1400 JY6112               1AZ
109224000109224               109224               170213HA     1400+00000+HA0000002401+0000002401+000000000+000000337+0000002738+0000000000+I40000002738+0000000000+Z
109224001109224007-000555     109224006001023848239MEMO-PAD MINI LOVE     0000001000+00000613+00000+0001T   00000613+0000001739          1400 JY6130               1AZ
109224002109224007-000724     109224006003000225958NOTE MAGNETIC 60SHTS   0000001000+00001753+00000+0001T   00001753+0000001739          1400 JY6130               1AZ
109224003109224112-116038     109224006009681820246TCS CARRIER BAG MIDI   0000001000+00000035+00000+0001T   00000035+0000001739          1400 JY6090               1AZ
109225000109225               109225               170213HA     1400+00000+HA0000005260+0000005260+000000000+000000737+0000005990+0000000007+I20000000000+0000005990+Z
109225001109225080-000115     109225006003000237333CARD&ENVELOPE - BLANKS 0000001000+00001753+00000+0001T   00001753+0000001740          1400 JY6112               1AZ
109225002109225159-000102     109225006001023552891SHOWER-CADDY 48cm      0000001000+00003507+00000+0001T   00003507+0000001740          1400 JY6200               1AZ
109226000109226               109226               170213HA     1400+00000+HA0000000613+0000000613+000000000+000000086+0000000690+0000000009+I20000000000+0000000690+Z
109226001109226007-000555     109226006001023848239MEMO-PAD MINI LOVE     0000001000+00000613+00000+0001T   00000613+0000001741          1400 JY6130               1AZ
109227000109227               109227               170213HA     1400+00000+HA0000005611+0000005611+000000000+000000786+0000006390+0000000007+I20000000000+0000006390+Z
109227001109227903-000090     109227006009826020821SWT GS CHOCO COINS 60g 0000001000+00002104+00000+0001T   00002104+0000001742          1400 JY6150               1AZ
109227002109227079-000600     109227006003000160990ART-SHEETS FOAM ASSTD-C0000001000+00003507+00000+0001T   00003507+0000001742          1400 JY6130               1AZ
109228000109228               109228               170213HA     1400+00000+HA0000009645+0000009645+000000000+000001351+0000010996+0000000000+I40000010996+0000000000+Z
109228001109228366-000400     109228006001023918468DRESS UP SHOES IN BOX  0000001000+00003507+00000+0001T   00003507+0000001744          1400 JY6131               1AZ
109228002109228046-002032-PK2 109228004897006175063BATTERIES CR-2032  2PCE0000001000+00001753+00000+0001T   00001753+0000001744          1400 JY6312               1AZ
109228003109228366-000356     109228006003000006908DRESS UP WINGS FAIRY   0000001000+00004385+00000+0001T   00004385+0000001744          1400 JY6131               1AZ
109229000109229               109229               170213HA     1400+00000+HA0000002192+0000002192+000000000+000000307+0000002499+0000000000+I40000002499+0000000000+Z
109229001109229080-000127     109229006003000424351VALENTINES DAY 36x24CM 0000001000+00002192+00000+0001T   00002192+0000001746          1400 JY6112               1AZ
109230000109230               109230               170213HA     1400+00000+HA0000006137+0000006137+000000000+000000860+0000006997+0000000000+I40000006997+0000000000+Z
109230001109230903-003080     109230005907029004673SWT SNACK STIX CHOC 50g0000002000+00000876+00000+0001T   00000876+0000001747          1400 JY6150               1AZ
109230002109230263-000193     109230006003000299126CAR TRACK PUSH & LOOP  0000001000+00004385+00000+0001T   00004385+0000001747          1400 JY6710               1AZ
109231000109231               109231               170213HA     1400+00000+HA0000002454+0000002454+000000000+000000344+0000002790+0000000008+I20000000000+0000002790+Z
109231001109231903-000519     109231006001704012805SWT MS LIQ-O-GHETTI    0000002000+00001227+00000+0001T   00001227+0000001750          1400 JY6150               1AZ
109232000109232               109232               170213HA     1400+00000+HA0000011402+0000011402+000000000+000001597+0000012999+0000000000+I40000012999+0000000000+Z
109232001109232466-001012     109232006001023508157CRICKET-SET SIZE-3     0000001000+00011402+00000+0001T   00011402+0000001753          1400 JY6785               1AZ
109233000109233               109233               170213HA     1400+00000+HA0000003156+0000003156+000000000+000000442+0000003598+0000000000+I40000003598+0000000000+Z
109233001109233077-000303     109233006001023593757GIFT-BAG PAPER MED     0000002000+00001578+00000+0001T   00001578+0000001754          1400 JY6112               1AZ
109234000109234               109234               170213HA     1400+00000+HA0000002629+0000002629+000000000+000000369+0000002990+0000000008+I20000000000+0000002990+Z
109234001109234080-000133     109234006003000535613CARD&ENV MINI ASTD DSGN0000001000+00000437+00000+0001T   00000437+0000001755          1400 JY6112               1AZ
109234002109234024-091103     109234006003453014307BAKING-CUP MUFFIN 50PCE0000001000+00002192+00000+0001T   00002192+0000001755          1400 JY6300               1AZ
109235000109235               109235               170213HA     1400+00000+HA0000012661+0000012661+000000000+000001775+0000014436+0000000000+I40000014436+0000000000+Z
109235001109235046-000011-A   109235006003000438891BATTERIES SIZE:AA  4PCE0000001000+00002630+00000+0001T   00002630+0000001756          1400 JY6312               1AZ
109235002109235200-003026     109235006003000276448REFUSE BAGS 10PCE GREEN0000001000+00001753+00000+0001T   00001753+0000001756          1400 JY6214               1AZ
109235003109235039-000798     109235006001023617774CANDLES TEALITE BOX-50 0000001000+00006139+00000+0001T   00006139+0000001756          1400 JY6510               1AZ
109235004109235903-000090     109235006009826020821SWT GS CHOCO COINS 60g 0000001000+00002104+00000+0001T   00002104+0000001756          1400 JY6150               1AZ
109235005109235112-116038     109235006009681820246TCS CARRIER BAG MIDI   0000001000+00000035+00000+0001T   00000035+0000001756          1400 JY6090               1AZ
109236000109236               109236               170213HA     1400+00000+HA0000005697+0000005697+000000000+000000799+0000006496+0000000000+I40000006496+0000000000+Z
109236001109236024-091102-A   109236006003000328314BAKING-CUP CUPCAKE 75PC0000001000+00001753+00000+0001T   00001753+0000001757          1400 JY6300               1AZ
109236002109236078-009100     109236006008741002349ALL-CLEAR GLUE 25ml CRD0000001000+00001314+00000+0001T   00001314+0000001757          1400 JY6810               1AZ
109236003109236079-013032-E   109236006003000389766ART+CRAFT COL/PAPER    0000001000+00002630+00000+0001T   00002630+0000001757          1400 JY6130               1AZ
109237000109237               109237               170213HA     1400+00000+HA0000001578+0000001578+000000000+000000221+0000001790+0000000009+I20000000000+0000001790+Z
109237001109237077-000315     109237006003000181186GIFT-BAG 20x28cm MATT  0000001000+00001578+00000+0001T   00001578+0000001758          1400 JY6112               1AZ
109238000109238               109238               170213HA     1400+00000+HA0000003069+0000003069+000000000+000000430+0000003499+0000000000+I40000003499+0000000000+Z
109238001109238079-013098     109238006003000197040ART+CRAFT SET DIY      0000001000+00003069+00000+0001T   00003069+0000001800          1400 JY6130               1AZ
109239000109239               109239               170213HA     1400+00000+HA0000002015+0000002015+000000000+000000283+0000002298+0000000000+I40000002298+0000000000+Z
109239001109239077-000151     109239006008766114676GIFT-WRAP C/PHANE ASSTD0000001000+00000876+00000+0001T   00000876+0000001805          1400 JY6112               1AZ
109239002109239903-000087     109239006001704000161SWT SPECKLED-EGGS 50G  0000001000+00001139+00000+0001T   00001139+0000001805          1400 JY6150               1AZ
109240000109240               109240               170213HA     1400+00000+HA0000002630+0000002630+000000000+000000369+0000002990+0000000009+I20000000000+0000002990+Z
109240001109240162-096646     109240006001492966465#TAG HOT DEALS KIDS HR 0000001000+00002630+00000+0001T   00002630+0000001806          1400 JY6160               1AZ
109241000109241               109241               170213HA     1400+00000+HA0000005085+0000005085+000000000+000000712+0000005790+0000000007+I20000000000+0000005790+Z
109241001109241077-000303     109241006001023593757GIFT-BAG PAPER MED     0000001000+00001578+00000+0001T   00001578+0000001806          1400 JY6112               1AZ
109241002109241018-005009     109241006001023725608MUG W/PLUSH-BEAR LOVE  0000001000+00003507+00000+0001T   00003507+0000001806          1400 JY6515               1AZ
109242000109242               109242               170213HA     1400+00000+HA0000001753+0000001753+000000000+000000246+0000001990+0000000009+I20000000000+0000001990+Z
109242001109242466-000583     109242006001023156617SKIPPING-ROPE 224cm    0000001000+00001753+00000+0001T   00001753+0000001807          1400 JY6785               1AZ
109243000109243               109243               170213HA     1400+00000+HA0000008271+0000008271+000000000+000001159+0000009430+0000000000+I40000009430+0000000000+Z
109243001109243903-000844     109243005010478432567SWT CANDY DL LUV HEARTS0000004000+00001314+00000+0001T   00001314+0000001810          1400 JY6150               1AZ
109243002109243566-000858     109243006001023760975STCKRS G/OUTLINE ASSTD 0000001000+00000788+00000+0001T   00000788+0000001810          1400 JY6130               1AZ
109243003109243112-116038     109243006009681820246TCS CARRIER BAG MIDI   0000001000+00000035+00000+0001T   00000035+0000001810          1400 JY6090               1AZ
109243004109243077-000926     109243006003000414178G/WRAP 700mmx2m LOVE   0000001000+00002192+00000+0001T   00002192+0000001810          1400 JY6112               1AZ
109244000109244               109244               170213HA     1400+00000+HA0000006307+0000006307+000000000+000000883+0000007190+0000000000+I40000007190+0000000000+Z
109244001109244018-000177     109244006001023797513MUG MINI LOVE ASSTD    0000004000+00000700+00000+0001T   00000700+0000001812          1400 JY6515               1AZ
109244002109244089-000018     109244006003000176724KEY CHAIN INSPIRATION  0000001000+00003507+00000+0001T   00003507+0000001812          1400 JY6205               1AZ
109245000109245               109245               170213HA     1400+00000+HA0000001226+0000001226+000000000+000000172+0000001398+0000000000+I40000001398+0000000000+Z
109245001109245006-001000     109245006003000093779HELIUM BALLOON FILL    0000002000+00000613+00000+0001T   00000613+0000001814          1400 JY6131               1AZ
109246000109246               109246               170213HA     1400+00000+HA0000005963+0000005963+000000000+000000835+0000006790+0000000008+I20000000000+0000006790+Z
109246001109246077-000303     109246006001023593757GIFT-BAG PAPER MED     0000001000+00001578+00000+0001T   00001578+0000001815          1400 JY6112               1AZ
109246002109246018-030000     109246006003000421060MUG OCCASIONS LOVE 2PCE0000001000+00004385+00000+0001T   00004385+0000001815          1400 JY6515               1AZ
109247000109247               109247               170213HA     1400+00000+HA0000004420+0000004420+000000000+000000619+0000005039+0000000000+I40000005039+0000000000+Z
109247001109247028-000030     109247006001023810908COOLER-BAG 6PACK       0000001000+00004385+00000+0001T   00004385+0000001817          1400 JY6305               1AZ
109247002109247112-116038     109247006009681820246TCS CARRIER BAG MIDI   0000001000+00000035+00000+0001T   00000035+0000001817          1400 JY6090               1AZ
109248000109248               109248               170213HA     1400+00000+HA0000003541+0000003541+000000000+000000497+0000004030+0000000008+I20000000000+0000004030+Z
109248001109248206-000450     109248006003000619863DRINKING JAR GLOBE     0000001000+00002630+00000+0001T   00002630+0000001818          1400 JY6321               1AZ
109248002109248903-000520     109248006001704009898SWT GUMMY MINI SOUR 60g0000001000+00000876+00000+0001T   00000876+0000001818          1400 JY6150               1AZ
109248003109248112-116038     109248006009681820246TCS CARRIER BAG MIDI   0000001000+00000035+00000+0001T   00000035+0000001818          1400 JY6090               1AZ
109249000109249               109249               170213HA     1400+00000+HA0000002454+0000002454+000000000+000000344+0000002790+0000000008+I20000000000+0000002790+Z
109249001109249077-000011-D   109249006001023808554TISSUE-WRAP WHITE 10PCE0000001000+00000876+00000+0001T   00000876+0000001819          1400 JY6112               1AZ
109249002109249077-000303     109249006001023593757GIFT-BAG PAPER MED     0000001000+00001578+00000+0001T   00001578+0000001819          1400 JY6112               1AZ
109250000109250               109250               170213HA     1400+00000+HA0000005262+0000005262+000000000+000000737+0000005990+0000000009+I20000000000+0000005990+Z
109250001109250018-019000     109250006003000557288MUG OCC. LOVE JUMBO    0000001000+00005262+00000+0001T   00005262+0000001820          1400 JY6515               1AZ
109251000109251               109251               170213HA     1400+00000+HA0000000035+0000000035+000000000+000000005+0000000040+0000000000+I20000000000+0000000040+Z
109251001109251112-116038     109251006009681820246TCS CARRIER BAG MIDI   0000001000+00000035+00000+0001T   00000035+0000001821          1400 JY6090               1AZ
109252000109252               109252               170213HA     1400+00000+HA0000009680+0000009680+000000000+000001357+0000011037+0000000000+I40000011037+0000000000+Z
109252001109252140-005093     109252006003000331338INSECT-KILL RAQT-SHAPED0000001000+00005262+00000+0001T   00005262+0000001823          1400 JY6830               1AZ
109252002109252046-000011-A   109252006003000438891BATTERIES SIZE:AA  4PCE0000001000+00002630+00000+0001T   00002630+0000001823          1400 JY6312               1AZ
109252003109252464-000122     109252006003000638987PLAYING CARDS POKER 2PK0000001000+00001753+00000+0001T   00001753+0000001823          1400 JY6785               1AZ
109252004109252112-116038     109252006009681820246TCS CARRIER BAG MIDI   0000001000+00000035+00000+0001T   00000035+0000001823          1400 JY6090               1AZ
109253000109253               109253               170213HA     1400+00000+HA0000002227+0000002227+000000000+000000312+0000002530+0000000009+I20000000000+0000002530+Z
109253001109253080-000127     109253006003000424351VALENTINES DAY 36x24CM 0000001000+00002192+00000+0001T   00002192+0000001823          1400 JY6112               1AZ
109253002109253112-116038     109253006009681820246TCS CARRIER BAG MIDI   0000001000+00000035+00000+0001T   00000035+0000001823          1400 JY6090               1AZ
109254000109254               109254               170213HA     1400+00000+HA0000002454+0000002454+000000000+000000344+0000002790+0000000008+I20000000000+0000002790+Z
109254001109254903-000482     109254006001704001397SWT SOFT-MINTS 60G     0000001000+00000876+00000+0001T   00000876+0000001824          1400 JY6150               1AZ
109254002109254077-000303     109254006001023593757GIFT-BAG PAPER MED     0000001000+00001578+00000+0001T   00001578+0000001824          1400 JY6112               1AZ
109255000109255               109255               170213HA     1400+00000+HA0000003506+0000003506+000000000+000000492+0000003998+0000000000+I40000003998+0000000000+Z
109255001109255016-006509     109255006003000567355S/JAR GLS MINI LABEL   0000002000+00001753+00000+0001T   00002192+0008191826          1400 JY6300               1AZ
109256000109256               109256               170213HA     1400+00000+HA0000001402+0000001402+000000000+000000197+0000001590+0000000009+I20000000000+0000001590+Z
109256001109256107-002100     109256006002638001354BASIN PL 36cm          0000001000+00001402+00000+0001T   00001402+0000001826          1400 JY6210               1AZ
109257000109257               109257               170213HA     1400+00000+HA0000001753+0000001753+000000000+000000246+0000001999+0000000000+I40000001999+0000000000+Z
109257001109257903-000619     109257006003000672455SWT LOLLY STR/BRRY 140G0000001000+00001753+00000+0001T   00001753+0000001828          1400 JY6150               1AZ
109258000109258               109258               170213HA     1400+00000+HA0000004242+0000004242+000000000+000000594+0000004830+0000000006+I20000000000+0000004830+Z
109258001109258018-005009     109258006001023725608MUG W/PLUSH-BEAR LOVE  0000001000+00003507+00000+0001T   00003507+0000001829          1400 JY6515               1AZ
109258002109258903-000159     109258006003000417629SWT LB SMALL DUMMIE    0000002000+00000350+00000+0001T   00000350+0000001829          1400 JY6150               1AZ
109258003109258112-116038     109258006009681820246TCS CARRIER BAG MIDI   0000001000+00000035+00000+0001T   00000035+0000001829          1400 JY6090               1AZ
109259000109259               109259               170213HA     1400+00000+HA0000001314+0000001314+000000000+000000184+0000001490+0000000008+I20000000000+0000001490+Z
109259001109259007-000209     109259006001023582102NOTE STICKY FILE MARKER0000001000+00001314+00000+0001T   00001314+0000001832          1400 JY6130               1AZ
109260000109260               109260               170213HA     1400+00000+HA0000002630+0000002630+000000000+000000369+0000002990+0000000009+I20000000000+0000002990+Z
109260001109260206-000310     109260006003000632787BOTTLE-STOPPER SILICONE0000001000+00002630+00000+0001T   00002630+0000001833          1400 JY6321               1AZ
109261000109261               109261               170213HA     1400+00000+HA0000004385+0000004385+000000000+000000614+0000004999+0000000000+I40000004999+0000000000+Z
109261001109261368-000001     109261006003000097982Plush Bear 25cm        0000001000+00004385+00000+0001T   00004385+0000001844          1400 JY6745               1AZ
109262000109262               109262               170213HA     1400+00000+HA0000004383+0000004383+000000000+000000615+0000004990+0000000008+I20000000000+0000004990+Z
109262001109262077-000900     109262006003000410446G/WRAP 700mmx1m ANIMAL 0000001000+00001753+00000+0001T   00001753+0000001846          1400 JY6112               1AZ
109262002109262077-000270     109262006003000395453GIFT-BAG PPR JMB 33X45 0000001000+00002630+00000+0001T   00002630+0000001846          1400 JY6112               1AZ
109263000109263               109263               170213HA     1400+00000+HA0000009681+0000009681+000000000+000001356+0000011037+0000000000+I40000011037+0000000000+Z
109263001109263018-000136     109263006001023659026MUG OCC LOVE W/PLUSH   0000001000+00003507+00000+0001T   00003507+0000001851          1400 JY6515               1AZ
109263002109263018-050000     109263006003000412679MUG OCC LOVE TWIN BEAR 0000001000+00006139+00000+0001T   00006139+0000001851          1400 JY6515               1AZ
109263003109263112-116038     109263006009681820246TCS CARRIER BAG MIDI   0000001000+00000035+00000+0001T   00000035+0000001851          1400 JY6090               1AZ
109264000109264               109264               170213HA     1400+00000+HA0000002630+0000002630+000000000+000000369+0000002999+0000000000+I40000002999+0000000000+Z
109264001109264079-013101     109264006001023863706CRAFT SET DIY PIPE-CLNR0000001000+00002630+00000+0001T   00002630+0000001853          1400 JY6130               1AZ
109265000109265               109265               170213HA     1400+00000+HA0000008093+0000008093+000000000+000001135+0000009228+0000000000+I40000009228+0000000000+Z
109265001109265077-000470     109265006003000330171G-BAG DESGN SML 11X14CM0000002000+00001314+00000+0001T   00001314+0000001856          1400 JY6112               1AZ
109265002109265903-000220     109265006001704007368SWT JELLY BEANS 60G    0000002000+00000876+00000+0001T   00000876+0000001856          1400 JY6150               1AZ
109265003109265903-000087     109265006001704000161SWT SPECKLED-EGGS 50G  0000002000+00001139+00000+0001T   00001139+0000001856          1400 JY6150               1AZ
109265004109265112-116038     109265006009681820246TCS CARRIER BAG MIDI   0000001000+00000035+00000+0001T   00000035+0000001856          1400 JY6090               1AZ
109265005109265464-000121     109265006003000640492PLAYING CARDS MINI     0000002000+00000700+00000+0001T   00000700+0000001856          1400 JY6785               1AZ
109266000109266               109266               170213HA     1400+00000+HA0000006139+0000006139+000000000+000000860+0000006999+0000000000+I40000006999+0000000000+Z
109266001109266368-000175     109266006003000270316PLUSH BEAR 4 ASSTD 18CM0000001000+00006139+00000+0001T   00006139+0000001857          1400 JY6745               1AZ
109267000109267               109267               170213HA     1400+00000+HA0000004382+0000004382+000000000+000000615+0000004990+0000000007+I20000000000+0000004990+Z
109267001109267903-003080     109267005907029004673SWT SNACK STIX CHOC 50g0000002000+00000876+00000+0001T   00000876+0000001857          1400 JY6150               1AZ
109267002109267266-003012     109267006001023786128BOYS P/SET ARCHERY 4pc 0000001000+00002630+00000+0001T   00002630+0000001857          1400 JY6710               1AZ
109268000109268               109268               170213HA     1400+00000+HA0000008806+0000008806+000000000+000001233+0000010030+0000000009+I20000000000+0000010030+Z
109268001109268031-000871-C   109268006003000463169P/FRAME COLLAGE 3-HOLE 0000001000+00008771+00000+0001T   00008771+0000001903          1400 JY6510               1AZ
109268002109268112-116038     109268006009681820246TCS CARRIER BAG MIDI   0000001000+00000035+00000+0001T   00000035+0000001903          1400 JY6090               1AZ
109269000109269               109269               170213HA     1400+00000+HA0000003290-0000000000+000000000+000000000+0000003290-0000000000+I20000000000+0000003290-Z
109269001109269001-999909     109269000000000999909STAFF-REFRESHMENTS     0000001000-00003290+00000+0001X   00000000+0000001905          0000 JY69091IC            1 Z
B10913200                                          170213HA077-000512     09495245SLAVE 1     JY61IC0000004000+0000001000+0000000000000+
M17021301                              IT          HAATT;IT                                          LAST CASH SLIP ON SLAVE 1                       109269                                          THANKS[HA]
M17021391                              CASH        HASLAVE 1                       Z-REPORT No.   641TOTAL (Sales - Refunds)           9557.34       CASH TO BE BANKED                 3819.60       DEBIT CARDS                          0.00       CREDIT CARDS                      5704.84       Z-READING                         9524.44       AIRTIME DEBIT CARD SALES             0.00       AIRTIME CARD SALES                   0.00       OVERS/UNDERS                         0.00       AIRTIME CASH SALES                   0.00       GIFT CARDS                           0.00       GIFT CARD CASH SALES                 0.00       STAFF-REFRESHMENTS                  32.90       T O T A L  CASH PAYOUTS             32.90                                                                                                                                                                                                                                                                                                      Z
M17021392                              CASH        HAABSENT                                                                                                                                                                                          ANNUAL LEAVE                                                                                                                                                                                    DAY OFF                                                                                                                                                                                         COMMENTS                                                                                                                                                                                                                                                                                                                                                                                       Z
Y17021300                                          HA00000000847055+000143
ZHA17021319453 SLAVE 1      SALES DATA                     NEXT INVOICE NO.  109270 0641
X HA Slave 1 First invoice 109125 170213 Last invoice 109269 170213 Next invoice 109270 Total number of records 000000488 clbackup completed 19:45:57
