117924000117924               117924               170213HA     1400+00000+HA0000002227+0000002227+000000000+000000312+0000002530+0000000009+I20000000000+0000002530+Z
117924001117924080-000127     117924006003000424351VALENTINES DAY 36x24CM 0000001000+00002192+00000+0001T   00002192+0000000912          1400 KI8112               2AZ
117924002117924112-116038     117924006009681820246TCS CARRIER BAG MIDI   0000001000+00000035+00000+0001T   00000035+0000000912          1400 KI8090               2AZ
117925000117925               117925               170213HA     1400+00000+HA0000012713+0000012713+000000000+000001781+0000014494+0000000000+I40000014494+0000000000+Z
117925001117925072-020264     117925006001023602565PET DOG CLEAN-UP BAGS  0000001000+00003507+00000+0001T   00003507+0000001013          1400 KI8870               2AZ
117925002117925072-020302     117925006001023858818PET-DOG STICK/RING 24cm0000001000+00002630+00000+0001T   00002630+0000001013          1400 KI8870               2AZ
117925003117925072-020303     117925006008632000492DOG-TOY DENTAL-BONE    0000003000+00002192+00000+0001T   00002192+0000001013          1400 KI8870               2AZ
117926000117926               117926               170213HA     1400+00000+HA0000003540+0000003540+000000000+000000497+0000004030+0000000007+I20000000000+0000004030+Z
117926001117926903-003080     117926005907029004673SWT SNACK STIX CHOC 50g0000001000+00000876+00000+0001T   00000876+0000001014          1400 KI8150               2AZ
117926002117926566-000053     117926006003000284832S/BOOK C/BOARD STICKERS0000001000+00000876+00000+0001T   00001314+0008151014          1400 KI8130               2AZ
117926003117926565-000002     117926006003000308071NOVELTY GROWING ANIMALS0000001000+00001753+00000+0001T   00001753+0000001014          1400 KI8745               2AZ
117926004117926112-116038     117926006009681820246TCS CARRIER BAG MIDI   0000001000+00000035+00000+0001T   00000035+0000001014          1400 KI8090               2AZ
117927000117927               117927               170213HA     1400+00000+HA0000006136+0000006136+000000000+000000861+0000006997+0000000000+I40000006997+0000000000+Z
117927001117927019-071600     117927006001023771971RIVER-STONES 1kg MIXED 0000001000+00002630+00000+0001T   00002630+0000001023          1400 KI8510               2AZ
117927002117927565-000893     117927006003000643516NOVELTY FLASHING BALL  0000001000+00002630+00000+0001T   00002630+0000001023          1400 KI8745               2AZ
117927003117927903-000494     117927006001704009911SWT GUMMY TEENY TEDDIES0000001000+00000876+00000+0001T   00000876+0000001023          1400 KI8150               2AZ
117928000117928               117928               170213HA     1400+00000+HA0000015780+0000015780+000000000+000002214+0000017994+0000000000+I40000017994+0000000000+Z
117928001117928077-000512     117928006003000590223GIFT-BAG DESIGNER LRG  0000006000+00002630+00000+0001T   00002630+0000001041          1400 KI8112               2AZ
117929000117929               117929               170213HA     1400+00000+HA0000001753+0000001753+000000000+000000246+0000001990+0000000009+I20000000000+0000001990+Z
117929001117929080-000103     117929006003000236961CARD&ENVLOPE BDAY-MALE 0000001000+00001753+00000+0001T   00001753+0000001041          1400 KI8112               2AZ
117930000117930               117930               170213HA     1400+00000+HA0000009505+0000009505+000000000+000001331+0000010836+0000000000+I40000010836+0000000000+Z
117930001117930018-005009     117930006001023725608MUG W/PLUSH-BEAR LOVE  0000001000+00003507+00000+0001T   00003507+0000001054          1400 KI8515               2AZ
117930002117930018-030000     117930006003000421060MUG OCCASIONS LOVE 2PCE0000001000+00004385+00000+0001T   00004385+0000001054          1400 KI8515               2AZ
117930003117930112-116038     117930006009681820246TCS CARRIER BAG MIDI   0000001000+00000035+00000+0001T   00000035+0000001054          1400 KI8090               2AZ
117930004117930077-000386     117930006003000275489G/BAG POP UP 18x23CM   0000001000+00001578+00000+0001T   00001578+0000001054          1400 KI8112               2AZ
117931000117931               117931               170213HA     1400+00000+HA0000002192+0000002192+000000000+000000307+0000002499+0000000000+I40000002499+0000000000+Z
117931001117931080-000127     117931006003000424351VALENTINES DAY 36x24CM 0000001000+00002192+00000+0001T   00002192+0000001055          1400 KI8112               2AZ
117932000117932               117932               170213HA     1400+00000+HA0000010292+0000010292+000000000+000001443+0000011735+0000000000+I40000011735+0000000000+Z
117932001117932047-000001-BB  117932006001023723536INS-TAPE BLACK 18mmx10m0000001000+00000613+00000+0001T   00000613+0000001105          1400 KI8880               2AZ
117932002117932082-000392     117932006003000621811SPECTACLE REPAIR KIT   0000001000+00002192+00000+0001T   00002192+0000001105          1400 KI8160               2AZ
117932003117932077-000011-Y   117932006001023809858TISSUE-WRAP GOLD 10PCE 0000001000+00001753+00000+0001T   00001753+0000001105          1400 KI8112               2AZ
117932004117932056-065301     117932006001023625861CAR SUN-SHIELD 114x66cm0000001000+00005262+00000+0001T   00005262+0000001105          1400 KI8860               2AZ
117932005117932083-000049     117932004891035200024CIG-LIGHTER DISPOSABLE 0000001000+00000437+00000+0001T   00000437+0000001105          1400 KI8315               2AZ
117932006117932112-116038     117932006009681820246TCS CARRIER BAG MIDI   0000001000+00000035+00000+0001T   00000035+0000001105          1400 KI8090               2AZ
117933000117933               117933               170213HA     1400+00000+HA0000001613+0000001613+000000000+000000226+0000001830+0000000009+I20000000000+0000001830+Z
117933001117933079-013032-C   117933006003000389520POLY SHAPES            0000001000+00001578+00000+0001T   00001578+0000001105          1400 KI8130               2AZ
117933002117933112-116038     117933006009681820246TCS CARRIER BAG MIDI   0000001000+00000035+00000+0001T   00000035+0000001105          1400 KI8090               2AZ
117934000117934               117934               170213HA     1400+00000+HA0000025604+0000025604+000000000+000003587+0000029191+0000000000+I40000029191+0000000000+Z
117934001117934567-004966     117934009780636049154SPF G03 WISKUNDE       0000001000+00002192+00000+0001T   00002192+0000001147          1400 KI8757               2AZ
117934002117934567-004965     117934009780636049215SPF G03 AFRIKAANS      0000001000+00002192+00000+0001T   00002192+0000001147          1400 KI8757               2AZ
117934003117934077-000321     117934006001023677501GIFT-BAG 11X14CM E/D FL0000001000+00000613+00000+0001T   00000613+0000001147          1400 KI8112               2AZ
117934004117934204-000008     117934006003000567652MEMO HLDR MOM POLY     0000001000+00004385+00000+0001T   00004385+0000001147          1400 KI8300               2AZ
117934005117934301-086010     117934006003000573400ORN TEABAG HOLDER 20cm 0000001000+00003069+00000+0001T   00003069+0000001147          1400 KI8505               2AZ
117934006117934031-005853     117934006003000442416P/FRAME WDN TWIN HEARTS0000001000+00003507+00000+0001T   00003507+0000001147          1400 KI8510               2AZ
117934007117934903-000610     117934006003000610518SWEET JUMBO BUBBLE GUM 0000001000+00001753+00000+0001T   00001753+0000001147          1400 KI8150               2AZ
117934008117934566-000041     117934006003000265701SCRAPBOOK ALBUM 10PCKTS0000001000+00007893+00000+0001T   00007893+0000001147          1400 KI8130               2AZ
117935000117935               117935               170213HA     1400+00000+HA0000005434+0000005434+000000000+000000763+0000006197+0000000000+I40000006197+0000000000+Z
117935001117935077-000115-B   117935006003000181025GIFT-WRAP PPR 700MMX2M 0000001000+00002630+00000+0001T   00002630+0000001152          1400 KI8112               2AZ
117935002117935077-000011-Y   117935006001023809858TISSUE-WRAP GOLD 10PCE 0000001000+00001753+00000+0001T   00001753+0000001152          1400 KI8112               2AZ
117935003117935079-009702-A   117935008427973059408PAPER SIRIO A2 BLACK   0000001000+00001051+00000+0001T   00001051+0000001152          1400 KI8130               2AZ
117936000117936               117936               170213HA     1400+00000+HA0000007048+0000007048+000000000+000000989+0000008037+0000000000+I40000008037+0000000000+Z
117936001117936071-030014     117936006003000284085PEN NVLTY METALLIC 6PC 0000001000+00002630+00000+0001T   00002630+0000001154          1400 KI8130               2AZ
117936002117936071-030013     117936006003000283965PEN NVLTY NEON GEL 6PC 0000001000+00002630+00000+0001T   00002630+0000001154          1400 KI8130               2AZ
117936003117936071-000006     117936006001023732613PENCIL REFILLABLE 6PK  0000001000+00001753+00000+0001T   00001753+0000001154          1400 KI8130               2AZ
117936004117936112-116038     117936006009681820246TCS CARRIER BAG MIDI   0000001000+00000035+00000+0001T   00000035+0000001154          1400 KI8090               2AZ
117937000117937               117937               170213HA     1400+00000+HA0000001753+0000001753+000000000+000000246+0000001990+0000000009+I20000000000+0000001990+Z
117937001117937080-000113     117937006003000237449CARD&ENVLPE - LOVE     0000001000+00001753+00000+0001T   00001753+0000001155          1400 KI8112               2AZ
117938000117938               117938               170213HA     1400+00000+HA0000004418+0000004418+000000000+000000620+0000005030+0000000008+I20000000000+0000005030+Z
117938001117938903-000592     117938006003000563777SWT CELLPHONE 12cm     0000001000+00002630+00000+0001T   00002630+0000001202          1400 KI8150               2AZ
117938002117938466-000583     117938006001023156617SKIPPING-ROPE 224cm    0000001000+00001753+00000+0001T   00001753+0000001202          1400 KI8785               2AZ
117938003117938112-116038     117938006009681820246TCS CARRIER BAG MIDI   0000001000+00000035+00000+0001T   00000035+0000001202          1400 KI8090               2AZ
117939000117939               117939               170213HA     1400+00000+HA0000002192+0000002192+000000000+000000307+0000002490+0000000009+I20000000000+0000002490+Z
117939001117939077-000926     117939006003000414178G/WRAP 700mmx2m LOVE   0000001000+00002192+00000+0001T   00002192+0000001215          1400 KI8112               2AZ
117940000117940               117940               170213HA     1400+00000+HA0000002192+0000002192+000000000+000000307+0000002490+0000000009+I20000000000+0000002490+Z
117940001117940563-000318-J   117940006003000404728SERVIETTES 33cm YELLOW 0000001000+00002192+00000+0001T   00002192+0000001215          1400 KI8214               2AZ
117941000117941               117941               170213HA     1400+00000+HA0000003069+0000003069+000000000+000000430+0000003490+0000000009+I20000000000+0000003490+Z
117941001117941031-000864-A   117941006001023798350P/FRAME MAHOGANY 10X15 0000001000+00003069+00000+0001T   00003069+0000001221          1400 KI8510               2AZ
117942000117942               117942               170213HA     1400+00000+HA0000015786+0000015786+000000000+000002212+0000017990+0000000008+I20000000000+0000017990+Z
117942001117942082-000126     117942006003000646517READING GLASS TWIN 2.5 0000002000+00007893+00000+0001T   00007893+0000001224          1400 KI8160               2AZ
117943000117943               117943               170213HA     1400+00000+HA0000007400+0000007400+000000000+000001037+0000008430+0000000007+I20000000000+0000008430+Z
117943001117943206-000630     117943006003000631919SPECTACLE CLEANING BRUS0000001000+00001227+00000+0001T   00001227+0000001228          1400 KI8321               2AZ
117943002117943016-002709     117943006001023655257S/BOTTLE GLS W/LID 31CM0000002000+00003069+00000+0001T   00003069+0000001228          1400 KI8300               2AZ
117943003117943112-116038     117943006009681820246TCS CARRIER BAG MIDI   0000001000+00000035+00000+0001T   00000035+0000001228          1400 KI8090               2AZ
117944000117944               117944               170213HA     1400+00000+HA0000000788+0000000788+000000000+000000111+0000000890+0000000009+I20000000000+0000000890+Z
117944001117944077-000010-Z   117944006001023157874CREPE-PAPER BLK/ORG/PUR0000001000+00000788+00000+0001T   00000788+0000001237          1400 KI8112               2AZ
117945000117945               117945               170213HA     1400+00000+HA0000004207+0000004207+000000000+000000589+0000004796+0000000000+I40000004796+0000000000+Z
117945001117945564-000012     117945006001023130075BUBBLE BOTTLE MAGIC    0000001000+00000700+00000+0001T   00000700+0000001239          1400 KI8131               2AZ
117945002117945369-000035     117945006001023795885EDU STACKING-SET ASSTD 0000001000+00003507+00000+0001T   00003507+0000001239          1400 KI8745               2AZ
117946000117946               117946               170213HA     1400+00000+HA0000007838+0000007838+000000000+000001098+0000008930+0000000006+I20000000000+0000008930+Z
117946001117946133-000030     117946006001023755414KITCHEN-SWAB 30cm ASSTD0000001000+00001227+00000+0001T   00001227+0000001239          1400 KI8212               2AZ
117946002117946140-001007     117946006001023617163FLY-STICK STAND 260x36 0000001000+00003069+00000+0001T   00003069+0000001239          1400 KI8830               2AZ
117946003117946071-003043     117946006003000143948PEN CALIGRAPHY SET 8PCE0000001000+00003507+00000+0001T   00003507+0000001239          1400 KI8130               2AZ
117946004117946112-116038     117946006009681820246TCS CARRIER BAG MIDI   0000001000+00000035+00000+0001T   00000035+0000001239          1400 KI8090               2AZ
117947000117947               117947               170213HA     1400+00000+HA0000004857+0000004857+000000000+000000681+0000005538+0000000000+I40000005538+0000000000+Z
117947001117947103-000081     117947006003000637942BAMBOO BASKET 17x13x7cm0000001000+00003946+00000+0001T   00003946+0000001242          1400 KI8300               2AZ
117947002117947903-000481     117947006001704007481SWT MOO MILK-SHAKES 60G0000001000+00000876+00000+0001T   00000876+0000001242          1400 KI8150               2AZ
117947003117947112-116038     117947006009681820246TCS CARRIER BAG MIDI   0000001000+00000035+00000+0001T   00000035+0000001242          1400 KI8090               2AZ
117948000117948               117948               170213HA     1400+00000+HA0000002100+0000002100+000000000+000000294+0000002394+0000000000+I40000002394+0000000000+Z
117948001117948564-000012     117948006001023130075BUBBLE BOTTLE MAGIC    0000003000+00000700+00000+0001T   00000700+0000001243          1400 KI8131               2AZ
117949000117949               117949               170213HA     1400+00000+HA0000005873+0000005873+000000000+000000823+0000006696+0000000000+I40000006696+0000000000+Z
117949001117949018-000170     117949006001023775528MUG OCC. LOVE 2PC MINI 0000001000+00002192+00000+0001T   00002192+0000001244          1400 KI8515               2AZ
117949002117949077-000319     117949006001023609779GIFT-BAG 18X23CM BIRTHD0000001000+00001227+00000+0001T   00001227+0000001244          1400 KI8112               2AZ
117949003117949077-000318     117949006001023609755GIFT-BAG 18X23CM E/D AN0000001000+00001227+00000+0001T   00001227+0000001244          1400 KI8112               2AZ
117949004117949077-000319     117949006001023609779GIFT-BAG 18X23CM BIRTHD0000001000+00001227+00000+0001T   00001227+0000001244          1400 KI8112               2AZ
117950000117950               117950               170213HA     1400+00000+HA0000015944+0000015944+000000000+000002237+0000018180+0000000001+I20000000000+0000018180+Z
117950001117950466-000103     117950000681070950312BALL 20cm ASSTD        0000001000+00001753+00000+0001T   00001753+0000001246          1400 KI8785               2AZ
117950002117950466-000591     117950006001023751577CONES FLAT 1PC 18cm    0000001000+00000788+00000+0001T   00000788+0000001246          1400 KI8785               2AZ
117950003117950466-000598     117950006001023751522BALL RUGBY SIZE-2      0000002000+00006139+00000+0001T   00006139+0000001246          1400 KI8785               2AZ
117950004117950006-000172-A   117950006003000609765BALLOONS METALLIC PINK 0000001000+00000218+00000+0001T   00000218+0000001246          1400 KI8131               2AZ
117950005117950006-000171-C   117950006003000609178BALLOONS 1PC D/GRN PRNT0000001000+00000218+00000+0001T   00000218+0000001246          1400 KI8131               2AZ
117950006117950006-000173-A   117950006003000636235BALLOONS HELIUM 1PC BLK0000001000+00000218+00000+0001T   00000218+0000001246          1400 KI8131               2AZ
117950007117950006-000171-K   117950006003000609697BALLOONS 1PC PURPLE PRN0000001000+00000218+00000+0001T   00000218+0000001246          1400 KI8131               2AZ
117950008117950006-000172-D   117950006003000609932METALLIC GOLD          0000001000+00000218+00000+0001T   00000218+0000001246          1400 KI8131               2AZ
117950009117950112-116038     117950006009681820246TCS CARRIER BAG MIDI   0000001000+00000035+00000+0001T   00000035+0000001246          1400 KI8090               2AZ
117951000117951               117951               170213HA     1400+00000+HA0000006401+0000006401+000000000+000000897+0000007290+0000000008+I20000000000+0000007290+Z
117951001117951263-000188     117951006001023790927CAR RACER 24cm         0000001000+00005262+00000+0001T   00005262+0000001247          1400 KI8710               2AZ
117951002117951565-000071     117951006003000643387NOVELTY WIND UP CHATTER0000001000+00001139+00000+0001T   00001139+0000001247          1400 KI8745               2AZ
117952000117952               117952               170213HA     1400+00000+HA0000005258+0000005258+000000000+000000737+0000005995+0000000000+I40000005995+0000000000+Z
117952001117952903-003080     117952005907029004673SWT SNACK STIX CHOC 50g0000002000+00000876+00000+0001T   00000876+0000001248          1400 KI8150               2AZ
117952002117952077-000509     117952006003000082582GIFT-BAG SML 6PCE ORG P0000001000+00002192+00000+0001T   00002192+0000001248          1400 KI8112               2AZ
117952003117952077-000470     117952006003000330171G-BAG DESGN SML 11X14CM0000001000+00001314+00000+0001T   00001314+0000001248          1400 KI8112               2AZ
117953000117953               117953               170213HA     1400+00000+HA0000001137+0000001137+000000000+000000160+0000001290+0000000007+I20000000000+0000001290+Z
117953001117953080-000133-A   117953006003000647019MINI VALENTINES CARD   0000001000+00000437+00000+0001T   00000437+0000001248          1400 KI8112               2AZ
117953002117953018-000177     117953006001023797513MUG MINI LOVE ASSTD    0000001000+00000700+00000+0001T   00000700+0000001248          1400 KI8515               2AZ
117954000117954               117954               170213HA     1400+00000+HA0000005997+0000005997+000000000+000000841+0000006830+0000000008+I20000000000+0000006830+Z
117954001117954301-085008     117954006003000673933ORN OCC.LOVE TINSEL HRT0000001000+00003069+00000+0001T   00003069+0000001249          1400 KI8505               2AZ
117954002117954036-000151     117954006001023810588COATHANGERS    PACK-10 0000001000+00002893+00000+0001T   00002893+0000001249          1400 KI8212               2AZ
117954003117954112-116038     117954006009681820246TCS CARRIER BAG MIDI   0000001000+00000035+00000+0001T   00000035+0000001249          1400 KI8090               2AZ
117955000117955               117955               170213HA     1400+00000+HA0000025464+0000025464+000000000+000003567+0000029031+0000000000+I40000029031+0000000000+Z
117955001117955078-000470     117955006007347000018SHOE-CEMENT 70ml-TIN   0000001000+00001753+00000+0001T   00001753+0000001251          1400 KI8810               2AZ
117955002117955077-000011-D   117955006001023808554TISSUE-WRAP WHITE 10PCE0000001000+00000876+00000+0001T   00000876+0000001251          1400 KI8112               2AZ
117955003117955560-000106     117955006001023747099FROG FOAM BEADS 10cm   0000001000+00003507+00000+0001T   00003507+0000001251          1400 KI8745               2AZ
117955004117955560-000189     117955006003000592357ANIMALS SNAKE 78cm     0000001000+00003507+00000+0001T   00003507+0000001251          1400 KI8745               2AZ
117955005117955158-003092     117955006003000621644PAPER TOWEL HOLDER CHR 0000003000+00005262+00000+0001T   00005262+0000001251          1400 KI8300               2AZ
117955006117955112-116038     117955006009681820246TCS CARRIER BAG MIDI   0000001000+00000035+00000+0001T   00000035+0000001251          1400 KI8090               2AZ
117956000117956               117956               170213HA     1400+00000+HA0000001578+0000001578+000000000+000000221+0000001790+0000000009+I20000000000+0000001790+Z
117956001117956077-000303     117956006001023593757GIFT-BAG PAPER MED     0000001000+00001578+00000+0001T   00001578+0000001252          1400 KI8112               2AZ
117957000117957               117957               170213HA     1400+00000+HA0000003541+0000003541+000000000+000000497+0000004030+0000000008+I20000000000+0000004030+Z
117957001117957078-000470     117957006007347000018SHOE-CEMENT 70ml-TIN   0000002000+00001753+00000+0001T   00001753+0000001253          1400 KI8810               2AZ
117957002117957112-116038     117957006009681820246TCS CARRIER BAG MIDI   0000001000+00000035+00000+0001T   00000035+0000001253          1400 KI8090               2AZ
117958000117958               117958               170213HA     1400+00000+HA0000017535+0000017535+000000000+000002456+0000019990+0000000001+I20000000000+0000019990+Z
117958001117958206-000120     117958006003000628308PEELER CARROT SHARPENER0000001000+00001753+00000+0001T   00001753+0000001302          1400 KI8321               2AZ
117958002117958206-000150     117958006003000628667SLICER CUCUMBER        0000001000+00002192+00000+0001T   00002192+0000001302          1400 KI8321               2AZ
117958003117958206-000160     117958006003000628780CORN KERNELER          0000001000+00004385+00000+0001T   00004385+0000001302          1400 KI8321               2AZ
117958004117958206-000180     117958006003000631223TEA INFUSER TEAMAN     0000001000+00004385+00000+0001T   00004385+0000001302          1400 KI8321               2AZ
117958005117958036-000410     117958006003000614790WASHING PEGS PL WITH   0000002000+00001314+00000+0001T   00001753+0008161302          1400 KI8212               2AZ
117958006117958206-000245     117958006003000680818BOTTLE CLEANER PLASTIC 0000001000+00002192+00000+0001T   00002192+0000001302          1400 KI8321               2AZ
117959000117959               117959               170213HA     1400+00000+HA0000004385+0000004385+000000000+000000614+0000004990+0000000009+I20000000000+0000004990+Z
117959001117959206-000180     117959006003000631223TEA INFUSER TEAMAN     0000001000+00004385+00000+0001T   00004385+0000001303          1400 KI8321               2AZ
117960000117960               117960               170213HA     1400+00000+HA0000003331+0000003331+000000000+000000467+0000003798+0000000000+I40000003798+0000000000+Z
117960001117960080-000113     117960006003000237449CARD&ENVLPE - LOVE     0000001000+00001753+00000+0001T   00001753+0000001306          1400 KI8112               2AZ
117960002117960077-000303     117960006001023593757GIFT-BAG PAPER MED     0000001000+00001578+00000+0001T   00001578+0000001306          1400 KI8112               2AZ
117961000117961               117961               170213HA     1400+00000+HA0000001578+0000001578+000000000+000000221+0000001790+0000000009+I20000000000+0000001790+Z
117961001117961077-000303     117961006001023593757GIFT-BAG PAPER MED     0000001000+00001578+00000+0001T   00001578+0000001307          1400 KI8112               2AZ
117962000117962               117962               170213HA     1400+00000+HA0000002630+0000002630+000000000+000000369+0000002990+0000000009+I20000000000+0000002990+Z
117962001117962039-000332     117962006001023900470CANDLES 8PCE+NUMBERS   0000001000+00002630+00000+0001T   00002630+0000001310          1400 KI8510               2AZ
117963000117963               117963               170213HA     1400+00000+HA0000013151+0000013151+000000000+000001842+0000014993+0000000000+I40000014993+0000000000+Z
117963001117963267-000200     117963006001023892379PUZZLE 24pc CARTOON    0000002000+00002192+00000+0001T   00002192+0000001313          1400 KI8755               2AZ
117963002117963267-000233     117963006001023688576PUZZLE 48pc EDUCATIONAL0000002000+00003507+00000+0001T   00003507+0000001313          1400 KI8755               2AZ
117963003117963077-000328     117963006003000668939GIFT-BAG PAPER JMB     0000001000+00001753+00000+0001T   00001753+0000001313          1400 KI8112               2AZ
117964000117964               117964               170213HA     1400+00000+HA0000003592+0000003592+000000000+000000503+0000004090+0000000005+I20000000000+0000004090+Z
117964001117964018-000177     117964006001023797513MUG MINI LOVE ASSTD    0000002000+00000700+00000+0001T   00000700+0000001333          1400 KI8515               2AZ
117964002117964108-001208     117964006003000667147ICE CREAM BOWLS 4-PACK 0000001000+00002192+00000+0001T   00002192+0000001333          1400 KI8210               2AZ
117965000117965               117965               170213HA     1400+00000+HA0000002663+0000002663+000000000+000000373+0000003030+0000000006+I20000000000+0000003030+Z
117965001117965077-000310     117965006001023608635GIFT-BAG 18X23CM GLOSS 0000002000+00001314+00000+0001T   00001314+0000001336          1400 KI8112               2AZ
117965002117965112-116038     117965006009681820246TCS CARRIER BAG MIDI   0000001000+00000035+00000+0001T   00000035+0000001336          1400 KI8090               2AZ
117966000117966               117966               170213HA     1400+00000+HA0000031816+0000031816+000000000+000004457+0000036273+0000000000+I40000036273+0000000000+Z
117966001117966112-116038     117966006009681820246TCS CARRIER BAG MIDI   0000001000+00000035+00000+0001T   00000035+0000001342          1400 KI8090               2AZ
117966002117966368-000637     117966006001023874092PLUSH BEAR SLEEPING LOV0000002000+00011402+00000+0001T   00012279+0006471342          1400 KI8745               2AZ
117966003117966077-000315     117966006003000181186GIFT-BAG 20x28cm MATT  0000004000+00001578+00000+0001T   00001578+0000001342          1400 KI8112               2AZ
117966004117966105-001247     117966006003000623310CONTAINER RECT 3PCE    0000001000+00002630+00000+0001T   00002630+0000001342          1400 KI8210               2AZ
117966005117966112-116038     117966006009681820246TCS CARRIER BAG MIDI   0000001000+00000035+00000+0001T   00000035+0000001342          1400 KI8090               2AZ
117967000117967               117967               170213HA     1400+00000+HA0000014407+0000014407+000000000+000002022+0000016429+0000000000+I40000016429+0000000000+Z
117967001117967566-000037     117967006003000383948STICKER 3D GEL         0000001000+00001753+00000+0001T   00001753+0000001348          1400 KI8130               2AZ
117967002117967566-001234     117967006003000217793STICKERS LASER ASSTD   0000001000+00001578+00000+0001T   00001578+0000001348          1400 KI8130               2AZ
117967003117967566-000200     117967006003000384174STICKER PUFFY NEON     0000001000+00000876+00000+0001T   00000876+0000001348          1400 KI8130               2AZ
117967004117967566-000535     117967006003000284719STICKER SPARKLE EMBOSS 0000001000+00001753+00000+0001T   00001753+0000001348          1400 KI8130               2AZ
117967005117967566-002000     117967000721129013206STICKERS CRYSTAL ASSTD 0000001000+00000700+00000+0001T   00000700+0000001348          1400 KI8130               2AZ
117967006117967566-000535     117967006003000284719STICKER SPARKLE EMBOSS 0000001000+00001753+00000+0001T   00001753+0000001348          1400 KI8130               2AZ
117967007117967566-000037     117967006003000383948STICKER 3D GEL         0000001000+00001753+00000+0001T   00001753+0000001348          1400 KI8130               2AZ
117967008117967566-000858     117967006001023760975STCKRS G/OUTLINE ASSTD 0000002000+00000788+00000+0001T   00000788+0000001348          1400 KI8130               2AZ
117967009117967566-000863     117967006001023788351STICKERS LASER 20x25cm 0000001000+00002630+00000+0001T   00002630+0000001348          1400 KI8130               2AZ
117967010117967112-116038     117967006009681820246TCS CARRIER BAG MIDI   0000001000+00000035+00000+0001T   00000035+0000001348          1400 KI8090               2AZ
117968000117968               117968               170213HA     1400+00000+HA0000001613+0000001613+000000000+000000226+0000001830+0000000009+I20000000000+0000001830+Z
117968001117968077-000323     117968006001023677563G/BAG 25X32CM E/DAY FLO0000001000+00001578+00000+0001T   00001578+0000001348          1400 KI8112               2AZ
117968002117968112-116038     117968006009681820246TCS CARRIER BAG MIDI   0000001000+00000035+00000+0001T   00000035+0000001348          1400 KI8090               2AZ
117969000117969               117969               170213HA     1400+00000+HA0000007892+0000007892+000000000+000001106+0000008990+0000000008+I20000000000+0000008990+Z
117969001117969077-000309     117969006001023608604GIFT-BAG 25X32CM GLOSS 0000001000+00001753+00000+0001T   00001753+0000001353          1400 KI8112               2AZ
117969002117969562-001043     117969006003000478200NUMBERS&ALPHABET MAGNET0000001000+00006139+00000+0001T   00006139+0000001353          1400 KI8755               2AZ
117970000117970               117970               170213HA     1400+00000+HA0000001752+0000001752+000000000+000000246+0000001990+0000000008+I20000000000+0000001990+Z
117970001117970566-000200     117970006003000384174STICKER PUFFY NEON     0000002000+00000876+00000+0001T   00000876+0000001424          1400 KI8130               2AZ
117971000117971               117971               170213HA     1400+00000+HA0000001214+0000001214+000000000+000000173+0000001380+0000000007+I20000000000+0000001380+Z
117971001117971903-000183     117971006003000451043SWT LB HEART LOLLY     0000003000+00000393+00000+0001T   00000393+0000001425          1400 KI8150               2AZ
117971002117971112-116038     117971006009681820246TCS CARRIER BAG MIDI   0000001000+00000035+00000+0001T   00000035+0000001425          1400 KI8090               2AZ
117972000117972               117972               170213HA     1400+00000+HA0000004242+0000004242+000000000+000000594+0000004830+0000000006+I20000000000+0000004830+Z
117972001117972018-000136     117972006001023659026MUG OCC LOVE W/PLUSH   0000001000+00003507+00000+0001T   00003507+0000001426          1400 KI8515               2AZ
117972002117972018-000177     117972006001023797513MUG MINI LOVE ASSTD    0000001000+00000700+00000+0001T   00000700+0000001426          1400 KI8515               2AZ
117972003117972112-116038     117972006009681820246TCS CARRIER BAG MIDI   0000001000+00000035+00000+0001T   00000035+0000001426          1400 KI8090               2AZ
117973000117973               117973               170213HA     1400+00000+HA0000006139+0000006139+000000000+000000860+0000006990+0000000009+I20000000000+0000006990+Z
117973001117973566-000316     117973006003000521821STICKERS MIRRORS HOME  0000001000+00006139+00000+0001T   00006139+0000001427          1400 KI8130               2AZ
117974000117974               117974               170213HA     1400+00000+HA0000000700+0000000700+000000000+000000098+0000000790+0000000008+I20000000000+0000000790+Z
117974001117974464-000121     117974006003000640492PLAYING CARDS MINI     0000001000+00000700+00000+0001T   00000700+0000001427          1400 KI8785               2AZ
117975000117975               117975               170213HA     1400+00000+HA0000002401+0000002401+000000000+000000337+0000002730+0000000008+I20000000000+0000002730+Z
117975001117975077-000318     117975006001023609755GIFT-BAG 18X23CM E/D AN0000001000+00001227+00000+0001T   00001227+0000001428          1400 KI8112               2AZ
117975002117975903-000087     117975006001704000161SWT SPECKLED-EGGS 50G  0000001000+00001139+00000+0001T   00001139+0000001428          1400 KI8150               2AZ
117975003117975112-116038     117975006009681820246TCS CARRIER BAG MIDI   0000001000+00000035+00000+0001T   00000035+0000001428          1400 KI8090               2AZ
117976000117976               117976               170213HA     1400+00000+HA0000002192+0000002192+000000000+000000307+0000002490+0000000009+I20000000000+0000002490+Z
117976001117976077-000926     117976006003000414178G/WRAP 700mmx2m LOVE   0000001000+00002192+00000+0001T   00002192+0000001428          1400 KI8112               2AZ
117977000117977               117977               170213HA     1400+00000+HA0000008771+0000008771+000000000+000001228+0000009990+0000000009+I20000000000+0000009990+Z
117977001117977001-091415     117977006003000329113W/GLS OCC. LOVE 2PC 2800000001000+00008771+00000+0001T   00009648+0006471429          1400 KI8515               2AZ
117978000117978               117978               170213HA     1400+00000+HA0000007484+0000007484+000000000+000001051+0000008530+0000000005+I20000000000+0000008530+Z
117978001117978080-000133-A   117978006003000647019MINI VALENTINES CARD   0000002000+00000437+00000+0001T   00000437+0000001430          1400 KI8112               2AZ
117978002117978077-000011-D   117978006001023808554TISSUE-WRAP WHITE 10PCE0000001000+00000876+00000+0001T   00000876+0000001430          1400 KI8112               2AZ
117978003117978031-005830     117978009320760100040P/FRAME-CLIP 24X30CM   0000001000+00003069+00000+0001T   00003069+0000001430          1400 KI8510               2AZ
117978004117978077-000270     117978006003000395453GIFT-BAG PPR JMB 33X45 0000001000+00002630+00000+0001T   00002630+0000001430          1400 KI8112               2AZ
117978005117978112-116038     117978006009681820246TCS CARRIER BAG MIDI   0000001000+00000035+00000+0001T   00000035+0000001430          1400 KI8090               2AZ
117979000117979               117979               170213HA     1400+00000+HA0000001788+0000001788+000000000+000000251+0000002030+0000000009+I20000000000+0000002030+Z
117979001117979007-000724     117979006003000225958NOTE MAGNETIC 60SHTS   0000001000+00001753+00000+0001T   00001753+0000001431          1400 KI8130               2AZ
117979002117979112-116038     117979006009681820246TCS CARRIER BAG MIDI   0000001000+00000035+00000+0001T   00000035+0000001431          1400 KI8090               2AZ
117980000117980               117980               170213HA     1400+00000+HA0000006139+0000006139+000000000+000000860+0000006990+0000000009+I20000000000+0000006990+Z
117980001117980368-000175     117980006003000270316PLUSH BEAR 4 ASSTD 18CM0000001000+00006139+00000+0001T   00006139+0000001444          1400 KI8745               2AZ
117981000117981               117981               170213HA     1400+00000+HA0000002628+0000002628+000000000+000000368+0000002990+0000000006+I20000000000+0000002990+Z
117981001117981903-005000     117981006002580020007SWT CT MALLOW FISH 120g0000002000+00001314+00000+0001T   00001314+0000001448          1400 KI8150               2AZ
117982000117982               117982               170213HA     1400+00000+HA0000010031+0000010031+000000000+000001406+0000011437+0000000000+I40000011437+0000000000+Z
117982001117982306-001714     117982006003000061341FACIAL MAKE-UP WIPES 480000001000+00002630+00000+0001T   00002630+0000001450          1400 KI8200               2AZ
117982002117982903-000517     117982006001704012768SWT STRAWS FIZZY CHERRY0000001000+00001227+00000+0001T   00001227+0000001450          1400 KI8150               2AZ
117982003117982567-075497     117982009780799381672BK NOVEL ROMANCE AFR   0000001000+00006139+00000+0001T   00006139+0000001450          1400 KI8757               2AZ
117982004117982112-116038     117982006009681820246TCS CARRIER BAG MIDI   0000001000+00000035+00000+0001T   00000035+0000001450          1400 KI8090               2AZ
117983000117983               117983               170213HA     1400+00000+HA0000001753+0000001753+000000000+000000246+0000001999+0000000000+I40000001999+0000000000+Z
117983001117983077-000354     117983006003000139224GIFT-BAG 25X32CM H/MADE0000001000+00001753+00000+0001T   00001753+0000001451          1400 KI8112               2AZ
117984000117984               117984               170213HA     1400+00000+HA0000001490+0000001490+000000000+000000209+0000001690+0000000009+I20000000000+0000001690+Z
117984001117984077-000299     117984006003000395576G/BAG 32x25cm LRG LOVE 0000001000+00001490+00000+0001T   00001490+0000001452          1400 KI8112               2AZ
117985000117985               117985               170213HA     1400+00000+HA0000004857+0000004857+000000000+000000681+0000005530+0000000008+I20000000000+0000005530+Z
117985001117985034-001487     117985006003000622405COOEY BABY FOOD CONTAIN0000001000+00002192+00000+0001T   00002192+0000001455          1400 KI8215               2AZ
117985002117985018-000129     117985006001023403353MUG OCC. LOVE V-SHAPE  0000001000+00002630+00000+0001T   00002630+0000001455          1400 KI8515               2AZ
117985003117985112-116038     117985006009681820246TCS CARRIER BAG MIDI   0000001000+00000035+00000+0001T   00000035+0000001455          1400 KI8090               2AZ
117986000117986               117986               170213HA     1400+00000+HA0000002192+0000002192+000000000+000000307+0000002490+0000000009+I20000000000+0000002490+Z
117986001117986018-000170     117986006001023775528MUG OCC. LOVE 2PC MINI 0000001000+00002192+00000+0001T   00002192+0000001455          1400 KI8515               2AZ
117987000117987               117987               170213HA     1400+00000+HA0000003507+0000003507+000000000+000000491+0000003990+0000000008+I20000000000+0000003990+Z
117987001117987018-000136     117987006001023659026MUG OCC LOVE W/PLUSH   0000001000+00003507+00000+0001T   00003507+0000001458          1400 KI8515               2AZ
117988000117988               117988               170213HA     1400+00000+HA0000003156+0000003156+000000000+000000442+0000003590+0000000008+I20000000000+0000003590+Z
117988001117988077-000348     117988006001023483287GIFT-BOWS 4,5cm 8PCE   0000001000+00001578+00000+0001T   00001578+0000001520          1400 KI8112               2AZ
117988002117988080-000124     117988006003000297733CARD & ENV VALENTINES  0000001000+00001578+00000+0001T   00001578+0000001520          1400 KI8112               2AZ
117989000117989               117989               170213HA     1400+00000+HA0000001226+0000001226+000000000+000000172+0000001390+0000000008+I20000000000+0000001390+Z
117989001117989304-001011     117989006001023806727FLWR ROSE RED W/BEAR   0000002000+00000613+00000+0001T   00000788+0006471521          1400 KI8510               2AZ
117990000117990               117990               170213HA     1400+00000+HA0000007220+0000007220+000000000+000001011+0000008231+0000000000+I40000008231+0000000000+Z
117990001117990018-000177     117990006001023797513MUG MINI LOVE ASSTD    0000004000+00000700+00000+0001T   00000700+0000001523          1400 KI8515               2AZ
117990002117990030-000031-A   117990006003000457588PLAQUE W/WORDS ASSTD   0000001000+00004385+00000+0001T   00004823+0006471523          1400 KI8505               2AZ
117990003117990112-116038     117990006009681820246TCS CARRIER BAG MIDI   0000001000+00000035+00000+0001T   00000035+0000001523          1400 KI8090               2AZ
117991000117991               117991               170213HA     1400+00000+HA0000000823+0000000823+000000000+000000116+0000000930+0000000009+I20000000000+0000000930+Z
117991001117991566-000858     117991006001023760975STCKRS G/OUTLINE ASSTD 0000001000+00000788+00000+0001T   00000788+0000001525          1400 KI8130               2AZ
117991002117991112-116038     117991006009681820246TCS CARRIER BAG MIDI   0000001000+00000035+00000+0001T   00000035+0000001525          1400 KI8090               2AZ
117992000117992               117992               170213HA     1400+00000+HA0000008622+0000008622+000000000+000001208+0000009830+0000000000+I20000000000+0000009830+Z
117992001117992077-000315     117992006003000181186GIFT-BAG 20x28cm MATT  0000003000+00001578+00000+0001T   00001578+0000001526          1400 KI8112               2AZ
117992002117992565-000017     117992006003000672516NOVELTY TONGUE SLING   0000001000+00001753+00000+0001T   00001753+0000001526          1400 KI8745               2AZ
117992003117992007-000537     117992000651728791017NOTE-PAD RND SMILE-FACE0000003000+00000700+00000+0001T   00000700+0000001526          1400 KI8130               2AZ
117992004117992112-116038     117992006009681820246TCS CARRIER BAG MIDI   0000001000+00000035+00000+0001T   00000035+0000001526          1400 KI8090               2AZ
117993000117993               117993               170213HA     1400+00000+HA0000000876+0000000876+000000000+000000123+0000000990+0000000009+I20000000000+0000000990+Z
117993001117993077-000011-C   117993006001023808523TISSUE 10xSHTS RED     0000001000+00000876+00000+0001T   00000876+0000001526          1400 KI8112               2AZ
117994000117994               117994               170213HA     1400+00000+HA0000002630+0000002630+000000000+000000369+0000002990+0000000009+I20000000000+0000002990+Z
117994001117994077-000270     117994006003000395453GIFT-BAG PPR JMB 33X45 0000001000+00002630+00000+0001T   00002630+0000001527          1400 KI8112               2AZ
117995000117995               117995               170213HA     1400+00000+HA0000003506+0000003506+000000000+000000491+0000003990+0000000007+I20000000000+0000003990+Z
117995001117995080-000127     117995006003000424351VALENTINES DAY 36x24CM 0000001000+00002192+00000+0001T   00002192+0000001534          1400 KI8112               2AZ
117995002117995006-000166-C   117995006003000516377BALLOONS LRG 6PC PINK  0000001000+00001314+00000+0001T   00001314+0000001534          1400 KI8131               2AZ
117996000117996               117996               170213HA     1400+00000+HA0000014944+0000014944+000000000+000002094+0000017038+0000000000+I40000017038+0000000000+Z
117996001117996466-000584     117996006001023628787SKIPPING-ROPE          0000001000+00002630+00000+0001T   00002630+0000001537          1400 KI8785               2AZ
117996002117996466-000606     117996006001023752178BALL SOC 3-PLY PANEL   0000001000+00012279+00000+0001T   00012279+0000001537          1400 KI8785               2AZ
117996003117996112-116038     117996006009681820246TCS CARRIER BAG MIDI   0000001000+00000035+00000+0001T   00000035+0000001537          1400 KI8090               2AZ
117997000117997               117997               170213HA     1400+00000+HA0000001753+0000001753+000000000+000000246+0000001990+0000000009+I20000000000+0000001990+Z
117997001117997071-010481     117997006001023417220MAGNIFYING-GLASS 90mm-D0000001000+00001753+00000+0001T   00001753+0000001537          1400 KI8130               2AZ
117998000117998               117998               170213HA     1400+00000+HA0000002366+0000002366+000000000+000000332+0000002690+0000000008+I20000000000+0000002690+Z
117998001117998304-001011     117998006001023806727FLWR ROSE RED W/BEAR   0000001000+00000613+00000+0001T   00000788+0006471538          1400 KI8510               2AZ
117998002117998362-001103     117998006001023793515JWLRY GRL ASS 2PC ASSTD0000001000+00001753+00000+0001T   00001753+0000001538          1400 KI8160               2AZ
117999000117999               117999               170213HA     1400+00000+HA0000003942+0000003942+000000000+000000552+0000004490+0000000004+I20000000000+0000004490+Z
117999001117999046-000012     117999006904708013062BATTERIES AA  CARD-OF-40000002000+00001314+00000+0001T   00001314+0000001538          1400 KI8312               2AZ
117999002117999006-000167-C   117999006003000516971BALLOONS PINK METALLIC 0000001000+00001314+00000+0001T   00001314+0000001538          1400 KI8131               2AZ
118000000118000               118000               170213HA     1400+00000+HA0000014944+0000014944+000000000+000002094+0000017038+0000000000+I40000017038+0000000000+Z
118000001118000018-000129     118000006001023403353MUG OCC. LOVE V-SHAPE  0000001000+00002630+00000+0001T   00002630+0000001540          1400 KI8515               2AZ
118000002118000031-001008     118000006003000406494P/FRAME COLLAGE PLASTIC0000001000+00012279+00000+0001T   00012279+0000001540          1400 KI8510               2AZ
118000003118000112-116038     118000006009681820246TCS CARRIER BAG MIDI   0000001000+00000035+00000+0001T   00000035+0000001540          1400 KI8090               2AZ
118001000118001               118001               170213HA     1400+00000+HA0000003069+0000003069+000000000+000000430+0000003490+0000000009+I20000000000+0000003490+Z
118001001118001031-005830     118001009320760100040P/FRAME-CLIP 24X30CM   0000001000+00003069+00000+0001T   00003069+0000001542          1400 KI8510               2AZ
118002000118002               118002               170213HA     1400+00000+HA0000030985+0000030985+000000000+000004342+0000035327+0000000000+I40000035327+0000000000+Z
118002001118002566-000451     118002006001023788443STICKERS GLITTER ASSTD 0000001000+00001314+00000+0001T   00001753+0008151544          1400 KI8130               2AZ
118002002118002466-001021     118002005014294062007CRICKET-SET SIZE 1     0000001000+00010525+00000+0001T   00010525+0000001544          1400 KI8785               2AZ
118002003118002112-116038     118002006009681820246TCS CARRIER BAG MIDI   0000001000+00000035+00000+0001T   00000035+0000001544          1400 KI8090               2AZ
118002004118002079-006497     118002006003000160228GLITTER SET 6PCE+GLUE  0000001000+00002630+00000+0001T   00002630+0000001544          1400 KI8130               2AZ
118002005118002079-013098     118002006003000197040ART+CRAFT SET DIY      0000001000+00003069+00000+0001T   00003069+0000001544          1400 KI8130               2AZ
118002006118002079-006497     118002006003000160228GLITTER SET 6PCE+GLUE  0000001000+00002630+00000+0001T   00002630+0000001544          1400 KI8130               2AZ
118002007118002079-013098     118002006003000197040ART+CRAFT SET DIY      0000001000+00003069+00000+0001T   00003069+0000001544          1400 KI8130               2AZ
118002008118002004-071206     118002006003000605156USB CABLE CHARGER      0000001000+00003507+00000+0001T   00003507+0000001544          1400 KI8310               2AZ
118002009118002466-000583     118002006001023156617SKIPPING-ROPE 224cm    0000002000+00001753+00000+0001T   00001753+0000001544          1400 KI8785               2AZ
118002010118002464-000121     118002006003000640492PLAYING CARDS MINI     0000001000+00000700+00000+0001T   00000700+0000001544          1400 KI8785               2AZ
118003000118003               118003               170213HA     1400+00000+HA0000002192+0000002192+000000000+000000307+0000002499+0000000000+I40000002499+0000000000+Z
118003001118003079-013102     118003006003000019601ART+CRAFT DIY PIPE-CLNR0000001000+00002192+00000+0001T   00002192+0000001545          1400 KI8130               2AZ
118004000118004               118004               170213HA     1400+00000+HA0000004241+0000004241+000000000+000000595+0000004836+0000000000+I40000004836+0000000000+Z
118004001118004566-000007     118004006001023761187S/BOOK SUPER VALUE     0000002000+00001753+00000+0001T   00001753+0000001547          1400 KI8130               2AZ
118004002118004464-000121     118004006003000640492PLAYING CARDS MINI     0000001000+00000700+00000+0001T   00000700+0000001547          1400 KI8785               2AZ
118004003118004112-116038     118004006009681820246TCS CARRIER BAG MIDI   0000001000+00000035+00000+0001T   00000035+0000001547          1400 KI8090               2AZ
118005000118005               118005               170213HA     1400+00000+HA0000026919+0000026919+000000000+000003773+0000030692+0000000000+I40000030692+0000000000+Z
118005001118005079-000345     118005006001023890146FELT-TIP PENS 8PCE     0000001000+00003069+00000+0001T   00003069+0000001549          1400 KI8130               2AZ
118005002118005200-003024     118005006001023657299REFUSE BAGS 20PCE BLACK0000003000+00001753+00000+0001T   00001753+0000001549          1400 KI8214               2AZ
118005003118005007-000045     118005006009608640438DISPLAY-POCKETS A4 10PC0000002000+00000876+00000+0001T   00000876+0000001549          1400 KI8130               2AZ
118005004118005020-000210     118005006003000352913K/SET 5PC BREAKFAST SET0000001000+00015788+00000+0001T   00015788+0000001549          1400 KI8300               2AZ
118005005118005079-009702-D   118005008427973059354PAPER SIRIO A2 RED COL 0000001000+00001051+00000+0001T   00001051+0000001549          1400 KI8130               2AZ
118006000118006               118006               170213HA     1400+00000+HA0000002453+0000002453+000000000+000000344+0000002790+0000000007+I20000000000+0000002790+Z
118006001118006200-003024     118006006001023657299REFUSE BAGS 20PCE BLACK0000001000+00001753+00000+0001T   00001753+0000001549          1400 KI8214               2AZ
118006002118006464-000121     118006006003000640492PLAYING CARDS MINI     0000001000+00000700+00000+0001T   00000700+0000001549          1400 KI8785               2AZ
118007000118007               118007               170213HA     1400+00000+HA0000003944+0000003944+000000000+000000553+0000004490+0000000007+I20000000000+0000004490+Z
118007001118007024-091103     118007006003453014307BAKING-CUP MUFFIN 50PCE0000001000+00002192+00000+0001T   00002192+0000001550          1400 KI8300               2AZ
118007002118007903-000521     118007006001704009652SWT GUMMY SOFT GUMS    0000001000+00000876+00000+0001T   00000876+0000001550          1400 KI8150               2AZ
118007003118007903-000483     118007006001704001410SWT LIQUOR SML SORT 60G0000001000+00000876+00000+0001T   00000876+0000001550          1400 KI8150               2AZ
118008000118008               118008               170213HA     1400+00000+HA0000002192+0000002192+000000000+000000307+0000002499+0000000000+I40000002499+0000000000+Z
118008001118008084-000365     118008006001023731135MANICURE SET ASSORTED  0000001000+00002192+00000+0001T   00002192+0000001551          1400 KI8200               2AZ
118009000118009               118009               170213HA     1400+00000+HA0000012279+0000012279+000000000+000001720+0000013999+0000000000+I40000013999+0000000000+Z
118009001118009368-000111     118009006001023780812PLUSH BEAR/DOG 29CM    0000001000+00012279+00000+0001T   00012279+0000001552          1400 KI8745               2AZ
118010000118010               118010               170213HA     1400+00000+HA0000003506+0000003506+000000000+000000492+0000003990+0000000008+I20000000000+0000003990+Z
118010001118010071-002999-A   118010006003000611577PEN STICKBALL 10PCE ASS0000002000+00001753+00000+0001T   00001753+0000001552          1400 KI8130               2AZ
118011000118011               118011               170213HA     1400+00000+HA0000001227+0000001227+000000000+000000172+0000001390+0000000009+I20000000000+0000001390+Z
118011001118011031-005815     118011009320760100019P/FRAME-CLIP 10x15cm   0000001000+00001227+00000+0001T   00001227+0000001554          1400 KI8510               2AZ
118012000118012               118012               170213HA     1400+00000+HA0000002137+0000002137+000000000+000000300+0000002430+0000000007+I20000000000+0000002430+Z
118012001118012566-000858     118012006001023760975STCKRS G/OUTLINE ASSTD 0000001000+00000788+00000+0001T   00000788+0000001557          1400 KI8130               2AZ
118012002118012006-000166-C   118012006003000516377BALLOONS LRG 6PC PINK  0000001000+00001314+00000+0001T   00001314+0000001557          1400 KI8131               2AZ
118012003118012112-116038     118012006009681820246TCS CARRIER BAG MIDI   0000001000+00000035+00000+0001T   00000035+0000001557          1400 KI8090               2AZ
118013000118013               118013               170213HA     1400+00000+HA0000007717+0000007717+000000000+000001081+0000008790+0000000008+I20000000000+0000008790+Z
118013001118013368-000175     118013006003000270316PLUSH BEAR 4 ASSTD 18CM0000001000+00006139+00000+0001T   00006139+0000001609          1400 KI8745               2AZ
118013002118013077-000303     118013006001023593757GIFT-BAG PAPER MED     0000001000+00001578+00000+0001T   00001578+0000001609          1400 KI8112               2AZ
118014000118014               118014               170213HA     1400+00000+HA0000001753+0000001753+000000000+000000246+0000001990+0000000009+I20000000000+0000001990+Z
118014001118014077-000904     118014006003000410682G/WRAP 700mmx1m PATTERN0000001000+00001753+00000+0001T   00001753+0000001613          1400 KI8112               2AZ
118015000118015               118015               170213HA     1400+00000+HA0000007277+0000007277+000000000+000001020+0000008297+0000000000+I40000008297+0000000000+Z
118015001118015088-000107     118015006001023555823DIFFUSER SET FLOWER    0000001000+00004385+00000+0001T   00004385+0000001614          1400 KI8212               2AZ
118015002118015077-000239     118015006003000160419GIFT-RIBBON ROLL PEARL 0000001000+00001753+00000+0001T   00001753+0000001614          1400 KI8112               2AZ
118015003118015039-000322     118015006001023524157B/CANDLES W/HOLDERS 24 0000001000+00001139+00000+0001T   00001139+0000001614          1400 KI8510               2AZ
118016000118016               118016               170213HA     1400+00000+HA0000010346+0000010346+000000000+000001450+0000011796+0000000000+I40000011796+0000000000+Z
118016001118016903-000619     118016006003000672455SWT LOLLY STR/BRRY 140G0000001000+00001753+00000+0001T   00001753+0000001616          1400 KI8150               2AZ
118016002118016368-000175     118016006003000270316PLUSH BEAR 4 ASSTD 18CM0000001000+00006139+00000+0001T   00006139+0000001616          1400 KI8745               2AZ
118016003118016077-000303     118016006001023593757GIFT-BAG PAPER MED     0000001000+00001578+00000+0001T   00001578+0000001616          1400 KI8112               2AZ
118016004118016903-000520     118016006001704009898SWT GUMMY MINI SOUR 60g0000001000+00000876+00000+0001T   00000876+0000001616          1400 KI8150               2AZ
118017000118017               118017               170213HA     1400+00000+HA0000002015+0000002015+000000000+000000283+0000002290+0000000008+I20000000000+0000002290+Z
118017001118017903-000698     118017006002099007032SWT CANDY ECLAIRS 90g  0000001000+00001139+00000+0001T   00001139+0000001617          1400 KI8150               2AZ
118017002118017903-000482     118017006001704001397SWT SOFT-MINTS 60G     0000001000+00000876+00000+0001T   00000876+0000001617          1400 KI8150               2AZ
118018000118018               118018               170213HA     1400+00000+HA0000012133+0000012133+000000000+000001700+0000013833+0000000000+I40000013833+0000000000+Z
118018001118018903-000503     118018006001704006118SWT VAMPIRE FANGS 60G  0000001000+00000876+00000+0001T   00000876+0000001619          1400 KI8150               2AZ
118018002118018031-005853     118018006003000442416P/FRAME WDN TWIN HEARTS0000001000+00003507+00000+0001T   00003507+0000001619          1400 KI8510               2AZ
118018003118018031-000844     118018006001023851789P/FRAME WDN WORDS 2ASS 0000001000+00003507+00000+0001T   00003507+0000001619          1400 KI8510               2AZ
118018004118018077-000303     118018006001023593757GIFT-BAG PAPER MED     0000001000+00001578+00000+0001T   00001578+0000001619          1400 KI8112               2AZ
118018005118018018-000129     118018006001023403353MUG OCC. LOVE V-SHAPE  0000001000+00002630+00000+0001T   00002630+0000001619          1400 KI8515               2AZ
118018006118018112-116038     118018006009681820246TCS CARRIER BAG MIDI   0000001000+00000035+00000+0001T   00000035+0000001619          1400 KI8090               2AZ
118019000118019               118019               170213HA     1400+00000+HA0000002192+0000002192+000000000+000000307+0000002490+0000000009+I20000000000+0000002490+Z
118019001118019566-000068     118019006003000418046POP UP LOVE 2 ASSTD    0000001000+00002192+00000+0001T   00002192+0000001619          1400 KI8130               2AZ
118020000118020               118020               170213HA     1400+00000+HA0000005524+0000005524+000000000+000000774+0000006290+0000000008+I20000000000+0000006290+Z
118020001118020368-000001     118020006003000097982Plush Bear 25cm        0000001000+00004385+00000+0001T   00004385+0000001625          1400 KI8745               2AZ
118020002118020903-000087     118020006001704000161SWT SPECKLED-EGGS 50G  0000001000+00001139+00000+0001T   00001139+0000001625          1400 KI8150               2AZ
118021000118021               118021               170213HA     1400+00000+HA0000002227+0000002227+000000000+000000312+0000002530+0000000009+I20000000000+0000002530+Z
118021001118021018-000170     118021006001023775528MUG OCC. LOVE 2PC MINI 0000001000+00002192+00000+0001T   00002192+0000001626          1400 KI8515               2AZ
118021002118021112-116038     118021006009681820246TCS CARRIER BAG MIDI   0000001000+00000035+00000+0001T   00000035+0000001626          1400 KI8090               2AZ
118022000118022               118022               170213HA     1400+00000+HA0000003156+0000003156+000000000+000000442+0000003598+0000000000+I40000003598+0000000000+Z
118022001118022077-000303     118022006001023593757GIFT-BAG PAPER MED     0000002000+00001578+00000+0001T   00001578+0000001627          1400 KI8112               2AZ
118023000118023               118023               170213HA     1400+00000+HA0000017048+0000017048+000000000+000002388+0000019436+0000000000+I40000019436+0000000000+Z
118023001118023304-001011     118023006001023806727FLWR ROSE RED W/BEAR   0000002000+00000613+00000+0001T   00000788+0006471629          1400 KI8510               2AZ
118023002118023001-091415     118023006003000329113W/GLS OCC. LOVE 2PC 2800000001000+00008771+00000+0001T   00009648+0006471629          1400 KI8515               2AZ
118023003118023039-000624     118023006003000054923C/SET 4PC PILLARS 5X8CM0000001000+00007016+00000+0001T   00007016+0000001629          1400 KI8510               2AZ
118023004118023112-116038     118023006009681820246TCS CARRIER BAG MIDI   0000001000+00000035+00000+0001T   00000035+0000001629          1400 KI8090               2AZ
118024000118024               118024               170213HA     1400+00000+HA0000004385+0000004385+000000000+000000614+0000004990+0000000009+I20000000000+0000004990+Z
118024001118024018-030000     118024006003000421060MUG OCCASIONS LOVE 2PCE0000001000+00004385+00000+0001T   00004385+0000001630          1400 KI8515               2AZ
118025000118025               118025               170213HA     1400+00000+HA0000003507+0000003507+000000000+000000491+0000003990+0000000008+I20000000000+0000003990+Z
118025001118025018-005009     118025006001023725608MUG W/PLUSH-BEAR LOVE  0000001000+00003507+00000+0001T   00003507+0000001630          1400 KI8515               2AZ
118026000118026               118026               170213HA     1400+00000+HA0000001753+0000001753+000000000+000000246+0000001990+0000000009+I20000000000+0000001990+Z
118026001118026039-000318     118026006003000406159B/DAY CANDLES SMALL NO 0000001000+00001753+00000+0001T   00001753+0000001631          1400 KI8510               2AZ
118027000118027               118027               170213HA     1400+00000+HA0000002452+0000002452+000000000+000000344+0000002790+0000000006+I20000000000+0000002790+Z
118027001118027006-001000     118027006003000093779HELIUM BALLOON FILL    0000004000+00000613+00000+0001T   00000613+0000001632          1400 KI8131               2AZ
118028000118028               118028               170213HA     1400+00000+HA0000014505+0000014505+000000000+000002032+0000016530+0000000007+I20000000000+0000016530+Z
118028001118028072-000329     118028006001023904706PET CAT COLLAR LINING  0000001000+00002630+00000+0001T   00002630+0000001636          1400 KI8870               2AZ
118028002118028301-086010     118028006003000573400ORN TEABAG HOLDER 20cm 0000001000+00003069+00000+0001T   00003069+0000001636          1400 KI8505               2AZ
118028003118028072-020362     118028006001023820471DOG/CAT BOWL PL+S/S DBL0000001000+00008771+00000+0001T   00008771+0000001636          1400 KI8870               2AZ
118028004118028112-116038     118028006009681820246TCS CARRIER BAG MIDI   0000001000+00000035+00000+0001T   00000035+0000001636          1400 KI8090               2AZ
118029000118029               118029               170213HA     1400+00000+HA0000007401+0000007401+000000000+000001037+0000008438+0000000000+I40000008438+0000000000+Z
118029001118029368-000265     118029006001023750914PLUSH BEAR 23CM ASSTD C0000001000+00006139+00000+0001T   00006139+0000001641          1400 KI8745               2AZ
118029002118029077-000322     118029006001023677532GIFT-BAG 18X23CM E/D FL0000001000+00001227+00000+0001T   00001227+0000001641          1400 KI8112               2AZ
118029003118029112-116038     118029006009681820246TCS CARRIER BAG MIDI   0000001000+00000035+00000+0001T   00000035+0000001641          1400 KI8090               2AZ
118030000118030               118030               170213HA     1400+00000+HA0000004385+0000004385+000000000+000000614+0000004990+0000000009+I20000000000+0000004990+Z
118030001118030368-000001     118030006003000097982Plush Bear 25cm        0000001000+00004385+00000+0001T   00004385+0000001642          1400 KI8745               2AZ
118031000118031               118031               170213HA     1400+00000+HA0000001314+0000001314+000000000+000000184+0000001490+0000000008+I20000000000+0000001490+Z
118031001118031007-000209     118031006001023582102NOTE STICKY FILE MARKER0000001000+00001314+00000+0001T   00001314+0000001642          1400 KI8130               2AZ
118032000118032               118032               170213HA     1400+00000+HA0000003242+0000003242+000000000+000000455+0000003697+0000000000+I40000003697+0000000000+Z
118032001118032007-000208     118032006001023582096NOTE-PAD S/STICK 100'S 0000001000+00001490+00000+0001T   00001490+0000001644          1400 KI8130               2AZ
118032002118032903-000503     118032006001704006118SWT VAMPIRE FANGS 60G  0000001000+00000876+00000+0001T   00000876+0000001644          1400 KI8150               2AZ
118032003118032903-000520     118032006001704009898SWT GUMMY MINI SOUR 60g0000001000+00000876+00000+0001T   00000876+0000001644          1400 KI8150               2AZ
118033000118033               118033               170213HA     1400+00000+HA0000003507+0000003507+000000000+000000491+0000003990+0000000008+I20000000000+0000003990+Z
118033001118033018-000136     118033006001023659026MUG OCC LOVE W/PLUSH   0000001000+00003507+00000+0001T   00003507+0000001644          1400 KI8515               2AZ
118034000118034               118034               170213HA     1400+00000+HA0000000700+0000000700+000000000+000000098+0000000790+0000000008+I20000000000+0000000790+Z
118034001118034464-000121     118034006003000640492PLAYING CARDS MINI     0000001000+00000700+00000+0001T   00000700+0000001645          1400 KI8785               2AZ
118035000118035               118035               170213HA     1400+00000+HA0000002192+0000002192+000000000+000000307+0000002499+0000000000+I40000002499+0000000000+Z
118035001118035080-000127     118035006003000424351VALENTINES DAY 36x24CM 0000001000+00002192+00000+0001T   00002192+0000001648          1400 KI8112               2AZ
118036000118036               118036               170213HA     1400+00000+HA0000004935+0000004935+000000000+000000691+0000005626+0000000000+I40000005626+0000000000+Z
118036001118036018-000177     118036006001023797513MUG MINI LOVE ASSTD    0000007000+00000700+00000+0001T   00000700+0000001650          1400 KI8515               2AZ
118036002118036112-116038     118036006009681820246TCS CARRIER BAG MIDI   0000001000+00000035+00000+0001T   00000035+0000001650          1400 KI8090               2AZ
118037000118037               118037               170213HA     1400+00000+HA0000017539+0000017539+000000000+000002457+0000019996+0000000000+I40000019996+0000000000+Z
118037001118037007-000614     118037006001023768667DIARY W/LOCK+PEN LOVE  0000001000+00005262+00000+0001T   00005262+0000001651          1400 KI8130               2AZ
118037002118037368-000175     118037006003000270316PLUSH BEAR 4 ASSTD 18CM0000001000+00006139+00000+0001T   00006139+0000001651          1400 KI8745               2AZ
118037003118037031-080508     118037006001023802415P/FRAME PL 22X11CM LOVE0000001000+00004385+00000+0001T   00004385+0000001651          1400 KI8510               2AZ
118037004118037903-000619     118037006003000672455SWT LOLLY STR/BRRY 140G0000001000+00001753+00000+0001T   00001753+0000001651          1400 KI8150               2AZ
118038000118038               118038               170213HA     1400+00000+HA0000008802+0000008802+000000000+000001234+0000010036+0000000000+I40000010036+0000000000+Z
118038001118038018-005009     118038006001023725608MUG W/PLUSH-BEAR LOVE  0000001000+00003507+00000+0001T   00003507+0000001654          1400 KI8515               2AZ
118038002118038018-000129     118038006001023403353MUG OCC. LOVE V-SHAPE  0000002000+00002630+00000+0001T   00002630+0000001654          1400 KI8515               2AZ
118038003118038112-116038     118038006009681820246TCS CARRIER BAG MIDI   0000001000+00000035+00000+0001T   00000035+0000001654          1400 KI8090               2AZ
118039000118039               118039               170213HA     1400+00000+HA0000005867+0000005867+000000000+000000824+0000006690+0000000001+I20000000000+0000006690+Z
118039001118039080-000133     118039006003000535613CARD&ENV MINI ASTD DSGN0000002000+00000437+00000+0001T   00000437+0000001654          1400 KI8112               2AZ
118039002118039018-000177     118039006001023797513MUG MINI LOVE ASSTD    0000002000+00000700+00000+0001T   00000700+0000001654          1400 KI8515               2AZ
118039003118039903-000087     118039006001704000161SWT SPECKLED-EGGS 50G  0000001000+00001139+00000+0001T   00001139+0000001654          1400 KI8150               2AZ
118039004118039903-000483     118039006001704001410SWT LIQUOR SML SORT 60G0000001000+00000876+00000+0001T   00000876+0000001654          1400 KI8150               2AZ
118039005118039077-000303     118039006001023593757GIFT-BAG PAPER MED     0000001000+00001578+00000+0001T   00001578+0000001654          1400 KI8112               2AZ
118040000118040               118040               170213HA     1400+00000+HA0000001578+0000001578+000000000+000000221+0000001790+0000000009+I20000000000+0000001790+Z
118040001118040077-000303     118040006001023593757GIFT-BAG PAPER MED     0000001000+00001578+00000+0001T   00001578+0000001700          1400 KI8112               2AZ
118041000118041               118041               170213HA     1400+00000+HA0000015253+0000015253+000000000+000002138+0000017391+0000000000+I40000017391+0000000000+Z
118041001118041080-000127     118041006003000424351VALENTINES DAY 36x24CM 0000001000+00002192+00000+0001T   00002192+0000001706          1400 KI8112               2AZ
118041002118041077-000270     118041006003000395453GIFT-BAG PPR JMB 33X45 0000001000+00002630+00000+0001T   00002630+0000001706          1400 KI8112               2AZ
118041003118041369-001137-B   118041006003000626373BABY BATH VINYL DUCK   0000002000+00001578+00000+0001T   00001578+0000001706          1400 KI8745               2AZ
118041004118041366-000300     118041006001023902955DRESSUP TIARA FEATHER  0000001000+00002630+00000+0001T   00002630+0000001706          1400 KI8131               2AZ
118041005118041464-000121     118041006003000640492PLAYING CARDS MINI     0000001000+00000700+00000+0001T   00000700+0000001706          1400 KI8785               2AZ
118041006118041018-000170     118041006001023775528MUG OCC. LOVE 2PC MINI 0000001000+00002192+00000+0001T   00002192+0000001706          1400 KI8515               2AZ
118041007118041565-000043     118041006003000109562NOVELTY BALL FUNNY FACE0000001000+00001753+00000+0001T   00001753+0000001706          1400 KI8745               2AZ
118042000118042               118042               170213HA     1400+00000+HA0000019325+0000019325+000000000+000002708+0000022033+0000000000+I40000022033+0000000000+Z
118042001118042301-000013     118042006001023781604ORN SENTIMENT STONE 4-A0000001000+00006139+00000+0001T   00006139+0000001708          1400 KI8505               2AZ
118042002118042031-000844     118042006001023851789P/FRAME WDN WORDS 2ASS 0000001000+00003507+00000+0001T   00003507+0000001708          1400 KI8510               2AZ
118042003118042071-005213     118042006001023690371CELLOTAPE 12mmx33m     0000001000+00000876+00000+0001T   00000876+0000001708          1400 KI8130               2AZ
118042004118042077-000115-B   118042006003000181025GIFT-WRAP PPR 700MMX2M 0000001000+00002630+00000+0001T   00002630+0000001708          1400 KI8112               2AZ
118042005118042365-003056     118042006009635021453KIDDIES WOODEN BROOM   0000002000+00003069+00000+0001T   00003069+0000001708          1400 KI8725               2AZ
118042006118042112-116038     118042006009681820246TCS CARRIER BAG MIDI   0000001000+00000035+00000+0001T   00000035+0000001708          1400 KI8090               2AZ
118043000118043               118043               170213HA     1400+00000+HA0000014680+0000014680+000000000+000002057+0000016737+0000000000+I40000016737+0000000000+Z
118043001118043077-000011-D   118043006001023808554TISSUE-WRAP WHITE 10PCE0000001000+00000876+00000+0001T   00000876+0000001718          1400 KI8112               2AZ
118043002118043077-000299     118043006003000395576G/BAG 32x25cm LRG LOVE 0000001000+00001490+00000+0001T   00001490+0000001718          1400 KI8112               2AZ
118043003118043368-000111     118043006001023780812PLUSH BEAR/DOG 29CM    0000001000+00012279+00000+0001T   00012279+0000001718          1400 KI8745               2AZ
118043004118043112-116038     118043006009681820246TCS CARRIER BAG MIDI   0000001000+00000035+00000+0001T   00000035+0000001718          1400 KI8090               2AZ
118044000118044               118044               170213HA     1400+00000+HA0000003366+0000003366+000000000+000000472+0000003830+0000000008+I20000000000+0000003830+Z
118044001118044077-000323     118044006001023677563G/BAG 25X32CM E/DAY FLO0000001000+00001578+00000+0001T   00001578+0000001719          1400 KI8112               2AZ
118044002118044077-000309     118044006001023608604GIFT-BAG 25X32CM GLOSS 0000001000+00001753+00000+0001T   00001753+0000001719          1400 KI8112               2AZ
118044003118044112-116038     118044006009681820246TCS CARRIER BAG MIDI   0000001000+00000035+00000+0001T   00000035+0000001719          1400 KI8090               2AZ
118045000118045               118045               170213HA     1400+00000+HA0000007892+0000007892+000000000+000001106+0000008998+0000000000+I40000008998+0000000000+Z
118045001118045002-000015     118045006003000555604CAPPUCCINO STENCILS 12P0000001000+00001753+00000+0001T   00001753+0000001720          1400 KI8300               2AZ
118045002118045024-000190     118045006003000334131KIDS BAKING-SET 6PCE   0000001000+00006139+00000+0001T   00006139+0000001720          1400 KI8300               2AZ
118046000118046               118046               170213HA     1400+00000+HA0000001578+0000001578+000000000+000000221+0000001790+0000000009+I20000000000+0000001790+Z
118046001118046077-000303     118046006001023593757GIFT-BAG PAPER MED     0000001000+00001578+00000+0001T   00001578+0000001743          1400 KI8112               2AZ
118047000118047               118047               170213HA     1400+00000+HA0000020695+0000020695+000000000+000002900+0000023595+0000000000+I40000023595+0000000000+Z
118047001118047080-000127     118047006003000424351VALENTINES DAY 36x24CM 0000001000+00002192+00000+0001T   00002192+0000001746          1400 KI8112               2AZ
118047002118047077-000270     118047006003000395453GIFT-BAG PPR JMB 33X45 0000001000+00002630+00000+0001T   00002630+0000001746          1400 KI8112               2AZ
118047003118047077-000299     118047006003000395576G/BAG 32x25cm LRG LOVE 0000001000+00001490+00000+0001T   00001490+0000001746          1400 KI8112               2AZ
118047004118047903-000090     118047006009826020821SWT GS CHOCO COINS 60g 0000001000+00002104+00000+0001T   00002104+0000001746          1400 KI8150               2AZ
118047005118047368-000113     118047006001023780874PLUSH BLINGED LOVE 30cm0000001000+00012279+00000+0001T   00012279+0000001746          1400 KI8745               2AZ
118048000118048               118048               170213HA     1400+00000+HA0000012395+0000012395+000000000+000001736+0000014131+0000000000+I40000014131+0000000000+Z
118048001118048018-005009     118048006001023725608MUG W/PLUSH-BEAR LOVE  0000003000+00003507+00000+0001T   00003507+0000001747          1400 KI8515               2AZ
118048002118048304-001011     118048006001023806727FLWR ROSE RED W/BEAR   0000003000+00000613+00000+0001T   00000788+0006471747          1400 KI8510               2AZ
118048003118048112-116038     118048006009681820246TCS CARRIER BAG MIDI   0000001000+00000035+00000+0001T   00000035+0000001747          1400 KI8090               2AZ
118049000118049               118049               170213HA     1400+00000+HA0000008806+0000008806+000000000+000001233+0000010039+0000000000+I40000010039+0000000000+Z
118049001118049001-091415     118049006003000329113W/GLS OCC. LOVE 2PC 2800000001000+00008771+00000+0001T   00009648+0006471749          1400 KI8515               2AZ
118049002118049112-116038     118049006009681820246TCS CARRIER BAG MIDI   0000001000+00000035+00000+0001T   00000035+0000001749          1400 KI8090               2AZ
118050000118050               118050               170213HA     1400+00000+HA0000006576+0000006576+000000000+000000921+0000007497+0000000000+I40000007497+0000000000+Z
118050001118050567-004955     118050009780636049130SPF G01 WISKUNDE       0000001000+00002192+00000+0001T   00002192+0000001750          1400 KI8757               2AZ
118050002118050567-004954     118050009780636049192SPF G01 AFRIKAANS      0000001000+00002192+00000+0001T   00002192+0000001750          1400 KI8757               2AZ
118050003118050047-005126     118050006001023451255CABLETIES 100/150/200mm0000001000+00002192+00000+0001T   00002192+0000001750          1400 KI8880               2AZ
118051000118051               118051               170213HA     1400+00000+HA0000000788+0000000788+000000000+000000111+0000000890+0000000009+I20000000000+0000000890+Z
118051001118051077-000010-U   118051006001023168863CREPE-PAPER CERISE-PINK0000001000+00000788+00000+0001T   00000788+0000001753          1400 KI8112               2AZ
118052000118052               118052               170213HA     1400+00000+HA0000002630+0000002630+000000000+000000369+0000002999+0000000000+I40000002999+0000000000+Z
118052001118052050-000261-Z   118052006001023535351PADLOCK BRS 20mm CARDED0000001000+00002630+00000+0001T   00002630+0000001803          1400 ET9855               2AZ
118053000118053               118053               170213HA     1400+00000+HA0000007751+0000007751+000000000+000001086+0000008830+0000000007+I20000000000+0000008830+Z
118053001118053564-000012     118053006001023130075BUBBLE BOTTLE MAGIC    0000001000+00000700+00000+0001T   00000700+0000001804          1400 ET9131               2AZ
118053002118053267-000410     118053005011874004624PUZZLE 4-IN-1 MINI ASST0000001000+00007016+00000+0001T   00007016+0000001804          1400 ET9755               2AZ
118053003118053112-116038     118053006009681820246TCS CARRIER BAG MIDI   0000001000+00000035+00000+0001T   00000035+0000001804          1400 ET9090               2AZ
118054000118054               118054               170213HA     1400+00000+HA0000007890+0000007890+000000000+000001105+0000008990+0000000005+I20000000000+0000008990+Z
118054001118054903-000844     118054005010478432567SWT CANDY DL LUV HEARTS0000001000+00001314+00000+0001T   00001314+0000001818          1400 ET9150               2AZ
118054002118054018-019000     118054006003000557288MUG OCC. LOVE JUMBO    0000001000+00005262+00000+0001T   00005262+0000001818          1400 ET9515               2AZ
118054003118054077-000310     118054006001023608635GIFT-BAG 18X23CM GLOSS 0000001000+00001314+00000+0001T   00001314+0000001818          1400 ET9112               2AZ
118055000118055               118055               170213HA     1400+00000+HA0000004242+0000004242+000000000+000000594+0000004836+0000000000+I40000004836+0000000000+Z
118055001118055018-005009     118055006001023725608MUG W/PLUSH-BEAR LOVE  0000001000+00003507+00000+0001T   00003507+0000001821          1400 ET9515               2AZ
118055002118055018-000177     118055006001023797513MUG MINI LOVE ASSTD    0000001000+00000700+00000+0001T   00000700+0000001821          1400 ET9515               2AZ
118055003118055112-116038     118055006009681820246TCS CARRIER BAG MIDI   0000001000+00000035+00000+0001T   00000035+0000001821          1400 ET9090               2AZ
118056000118056               118056               170213HA     1400+00000+HA0000005998+0000005998+000000000+000000840+0000006838+0000000000+I40000006838+0000000000+Z
118056001118056077-000315     118056006003000181186GIFT-BAG 20x28cm MATT  0000001000+00001578+00000+0001T   00001578+0000001822          1400 ET9112               2AZ
118056002118056368-000001     118056006003000097982Plush Bear 25cm        0000001000+00004385+00000+0001T   00004385+0000001822          1400 ET9745               2AZ
118056003118056112-116038     118056006009681820246TCS CARRIER BAG MIDI   0000001000+00000035+00000+0001T   00000035+0000001822          1400 ET9090               2AZ
118057000118057               118057               170213HA     1400+00000+HA0000004385+0000004385+000000000+000000614+0000004999+0000000000+I40000004999+0000000000+Z
118057001118057079-000261     118057006003000159727PAINT WATER COLOUR CAKE0000001000+00004385+00000+0001T   00004385+0000001824          1400 ET9130               2AZ
118058000118058               118058               170213HA     1400+00000+HA0000002454+0000002454+000000000+000000344+0000002798+0000000000+I40000002798+0000000000+Z
118058001118058903-000483     118058006001704001410SWT LIQUOR SML SORT 60G0000001000+00000876+00000+0001T   00000876+0000001825          1400 ET9150               2AZ
118058002118058077-000303     118058006001023593757GIFT-BAG PAPER MED     0000001000+00001578+00000+0001T   00001578+0000001825          1400 ET9112               2AZ
118059000118059               118059               170213HA     1400+00000+HA0000005259+0000005259+000000000+000000738+0000005997+0000000000+I40000005997+0000000000+Z
118059001118059903-000619     118059006003000672455SWT LOLLY STR/BRRY 140G0000003000+00001753+00000+0001T   00001753+0000001826          1400 ET9150               2AZ
118060000118060               118060               170213HA     1400+00000+HA0000000700+0000000700+000000000+000000098+0000000790+0000000008+I20000000000+0000000790+Z
118060001118060033-010721     118060006001023678669SAFETY-PINS 20PCE ASSTD0000001000+00000700+00000+0001T   00000700+0000001827          1400 ET9200               2AZ
118061000118061               118061               170213HA     1400+00000+HA0000012314+0000012314+000000000+000001725+0000014030+0000000009+I20000000000+0000014030+Z
118061001118061368-000111     118061006001023780812PLUSH BEAR/DOG 29CM    0000001000+00012279+00000+0001T   00012279+0000001828          1400 ET9745               2AZ
118061002118061112-116038     118061006009681820246TCS CARRIER BAG MIDI   0000001000+00000035+00000+0001T   00000035+0000001828          1400 ET9090               2AZ
118062000118062               118062               170213HA     1400+00000+HA0000005262+0000005262+000000000+000000737+0000005990+0000000009+I20000000000+0000005990+Z
118062001118062133-000046     118062006003000366446POT-HOLDER-SET 3PCE    0000001000+00005262+00000+0001T   00005262+0000001829          1400 ET9212               2AZ
118063000118063               118063               170213HA     1400+00000+HA0000001490+0000001490+000000000+000000209+0000001690+0000000009+I20000000000+0000001690+Z
118063001118063077-000299     118063006003000395576G/BAG 32x25cm LRG LOVE 0000001000+00001490+00000+0001T   00001490+0000001830          1400 ET9112               2AZ
118064000118064               118064               170213HA     1400+00000+HA0000014032+0000014032+000000000+000001966+0000015998+0000000000+I40000015998+0000000000+Z
118064001118064077-000309     118064006001023608604GIFT-BAG 25X32CM GLOSS 0000001000+00001753+00000+0001T   00001753+0000001831          1400 ET9112               2AZ
118064002118064368-000111     118064006001023780812PLUSH BEAR/DOG 29CM    0000001000+00012279+00000+0001T   00012279+0000001831          1400 ET9745               2AZ
118065000118065               118065               170213HA     1400+00000+HA0000014032+0000014032+000000000+000001966+0000015998+0000000000+I40000015998+0000000000+Z
118065001118065368-000637     118065006001023874092PLUSH BEAR SLEEPING LOV0000001000+00011402+00000+0001T   00012279+0006471833          1400 ET9745               2AZ
118065002118065077-000270     118065006003000395453GIFT-BAG PPR JMB 33X45 0000001000+00002630+00000+0001T   00002630+0000001833          1400 ET9112               2AZ
118066000118066               118066               170213HA     1400+00000+HA0000008680+0000008680+000000000+000001216+0000009896+0000000000+I40000009896+0000000000+Z
118066001118066565-004101     118066006003000548033BALL BOUNCING EGG      0000002000+00001490+00000+0001T   00001490+0000001835          1400 ET9745               2AZ
118066002118066075-000412     118066006001023855299SHOPPER-BASKET PL      0000001000+00005700+00000+0001T   00005700+0000001835          1400 ET9160               2AZ
118067000118067               118067               170213HA     1400+00000+HA0000008806+0000008806+000000000+000001233+0000010039+0000000000+I40000010039+0000000000+Z
118067001118067368-000012     118067006003000610464PLUSH BEAR 30cm SITTING0000001000+00008771+00000+0001T   00008771+0000001836          1400 ET9745               2AZ
118067002118067112-116038     118067006009681820246TCS CARRIER BAG MIDI   0000001000+00000035+00000+0001T   00000035+0000001836          1400 ET9090               2AZ
118068000118068               118068               170213HA     1400+00000+HA0000000613+0000000613+000000000+000000086+0000000690+0000000009+I20000000000+0000000690+Z
118068001118068077-000317     118068006001023609748GIFT-BAG 11X14CM E/D AN0000001000+00000613+00000+0001T   00000613+0000001836          1400 ET9112               2AZ
118069000118069               118069               170213HA     1400+00000+HA0000001314+0000001314+000000000+000000184+0000001490+0000000008+I20000000000+0000001490+Z
118069001118069903-005000     118069006002580020007SWT CT MALLOW FISH 120g0000001000+00001314+00000+0001T   00001314+0000001837          1400 ET9150               2AZ
118070000118070               118070               170213HA     1400+00000+HA0000005297+0000005297+000000000+000000742+0000006039+0000000000+I40000006039+0000000000+Z
118070001118070366-002195     118070006001023990549DRESS UP WINGS FEATHER 0000001000+00005262+00000+0001T   00005262+0000001839          1400 ET9131               2AZ
118070002118070112-116038     118070006009681820246TCS CARRIER BAG MIDI   0000001000+00000035+00000+0001T   00000035+0000001839          1400 ET9090               2AZ
M17021301                              IT          HAATT'IT                                          LAST CASH SLIP ON SLAVE 2                       118070                                          THANKS HA
M17021391                              CASH        HASLAVE 2                       Z-REPORT No.   635TOTAL (Sales - Refunds)          10831.58       CASH TO BE BANKED                 3895.30       DEBIT CARDS                          0.00       CREDIT CARDS                      6936.28       Z-READING                        10831.58       AIRTIME DEBIT CARD SALES             0.00       AIRTIME CARD SALES                   0.00       OVERS/UNDERS                         0.00       AIRTIME CASH SALES                   0.00       GIFT CARDS                           0.00       GIFT CARD CASH SALES                 0.00       T O T A L  CASH PAYOUTS              0.00                                                                                                                                                                                                                                                                                                                                                      Z
M17021392                              CASH        HAABSENT                                                                                                                                                                                          ANNUAL LEAVE                                                                                                                                                                                    DAY OFF                                                                                                                                                                                         COMMENTS                                                                                                                                                                                                                                                                                                                                                                                       Z
Y17021300                                          HA00000000950610+000147
ZHA17021319453 SLAVE 2      SALES DATA                     NEXT INVOICE NO.  118071 0635
X HA Slave 2 First invoice 117924 170213 Last invoice 118070 170213 Next invoice 118071 Total number of records 000000510 clbackup completed 19:45:58
