139437000139437               139437               170213HB     1400+00000+HB0000005696+0000005696+000000000+000000799+0000006490+0000000005+I20000000000+0000006490+Z
139437001139437077-000382     139437006003000247820GIFT-BAG MED 18X23CM   0000001000+00001753+00000+0001T   00001753+0000000914          1400 LN7112               1AZ
139437002139437077-000457     139437006003000285662G/BAG METALLIC JMB SOL 0000001000+00001753+00000+0001T   00001753+0000000914          1400 LN7112               1AZ
139437003139437046-000012     139437006904708013062BATTERIES AA  CARD-OF-40000001000+00001314+00000+0001T   00001314+0000000914          1400 LN7312               1AZ
139437004139437077-000011-D   139437006001023808554TISSUE-WRAP WHITE 10PCE0000001000+00000876+00000+0001T   00000876+0000000914          1400 LN7112               1AZ
139438000139438               139438               170213HB     1400+00000+HB0000000035+0000000035+000000000+000000005+0000000040+0000000000+I20000000000+0000000040+Z
139438001139438112-116038     139438006009681820246TCS CARRIER BAG MIDI   0000001000+00000035+00000+0001T   00000035+0000000915          1400 LN7090               1AZ
139439000139439               139439               170213HB     1400+00000+HB0000000876+0000000876+000000000+000000123+0000000990+0000000009+I20000000000+0000000990+Z
139439001139439038-047246     139439006001023873750PLACEMAT 44x28cm KIDS  0000001000+00000876+00000+0001T   00000876+0000000920          1400 LN7300               1AZ
139440000139440               139440               170213HB     1400+00000+HB0000003855+0000003855+000000000+000000541+0000004390+0000000006+I20000000000+0000004390+Z
139440001139440105-001031     139440000700371696627FOODSAVER 800ml        0000001000+00001314+00000+0001T   00001314+0000000921          1400 LN7210               1AZ
139440002139440077-000010-C   139440006001023123879CREPE-PAPER RED        0000001000+00000788+00000+0001T   00000788+0000000921          1400 LN7112               1AZ
139440003139440077-000382     139440006003000247820GIFT-BAG MED 18X23CM   0000001000+00001753+00000+0001T   00001753+0000000921          1400 LN7112               1AZ
139441000139441               139441               170213HB     1400+00000+HB0000001831+0000001831+000000000+000000257+0000002080+0000000008+I20000000000+0000002080+Z
139441001139441077-000304     139441006001023483232GIFT-BAG 25X32CM E/DAY 0000001000+00001490+00000+0001T   00001490+0000000929          1400 LN7112               1AZ
139441002139441079-009700-H   139441006003000546039PAPER SIRIO A4 EARTH   0000001000+00000306+00000+0001T   00000306+0000000929          1400 LN7130               1AZ
139441003139441112-116038     139441006009681820246TCS CARRIER BAG MIDI   0000001000+00000035+00000+0001T   00000035+0000000929          1400 LN7090               1AZ
139442000139442               139442               170213HB     1400+00000+HB0000002227+0000002227+000000000+000000312+0000002539+0000000000+I40000002539+0000000000+Z
139442001139442002-000684     139442006001023693778K/TOOL TURNER H/HOUSE  0000001000+00002192+00000+0001T   00002192+0000000931          1400 LN7300               1AZ
139442002139442112-116038     139442006009681820246TCS CARRIER BAG MIDI   0000001000+00000035+00000+0001T   00000035+0000000931          1400 LN7090               1AZ
139443000139443               139443               170213HB     1400+00000+HB0000007892+0000007892+000000000+000001106+0000008998+0000000000+I40000008998+0000000000+Z
139443001139443306-000002     139443006003000365852NAIL BRUSHES 3PC ASTD  0000001000+00001753+00000+0001T   00001753+0000000937          1400 LN7200               1AZ
139443002139443031-080509     139443006001023802446P/FRAME COLLAGE 10X15CM0000001000+00006139+00000+0001T   00006139+0000000937          1400 LN7510               1AZ
139444000139444               139444               170213HB     1400+00000+HB0000021086+0000021086+000000000+000002957+0000024043+0000000000+I40000024043+0000000000+Z
139444001139444112-116069     139444006009681820277TCS CARRIER BAG JUMBO  0000001000+00000048+00000+0001T   00000048+0000000940          1400 LN7090               1AZ
139444002139444105-007000-B   139444006002580007374CONTAINER 3L ASSORTED  0000001000+00002192+00000+0001T   00002192+0000000940          1400 LN7210               1AZ
139444003139444368-000040     139444006003000671786PLUSH ICONS 7.5cm      0000002000+00002630+00000+0001T   00002630+0000000940          1400 LN7745               1AZ
139444004139444080-000127     139444006003000424351VALENTINES DAY 36x24CM 0000002000+00002192+00000+0001T   00002192+0000000940          1400 LN7112               1AZ
139444005139444073-000519     139444006001023871763COSMETIC-BG CYLINDRICAL0000001000+00003507+00000+0001T   00003507+0000000940          1400 LN7200               1AZ
139444006139444077-000303     139444006001023593757GIFT-BAG PAPER MED     0000002000+00001578+00000+0001T   00001578+0000000940          1400 LN7112               1AZ
139444007139444903-003061     139444000660973182129SWT CANDY FRUIT SOUR   0000002000+00000744+00000+0001T   00000744+0000000940          1400 LN7150               1AZ
139444008139444903-002891     139444008935001721376MENTOS GUM WINTERGREEN 0000001000+00001051+00000+0001T   00001051+0000000940          1400 LN7150               1AZ
139445000139445               139445               170213HB     1400+00000+HB0000004385+0000004385+000000000+000000614+0000004990+0000000009+I20000000000+0000004990+Z
139445001139445261-003901     139445006001023707451GUN SET PL POLICE+ACCES0000001000+00004385+00000+0001T   00004385+0000000940          1400 LN7710               1AZ
139446000139446               139446               170213HB     1400+00000+HB0000008854+0000008854+000000000+000001240+0000010090+0000000004+I20000000000+0000010090+Z
139446001139446004-071206     139446006003000605156USB CABLE CHARGER      0000001000+00003507+00000+0001T   00003507+0000000948          1400 LN7310               1AZ
139446002139446251-000040     139446006001023515865SEALTAPE CLEAR 48mmx50m0000001000+00001227+00000+0001T   00001227+0000000948          1400 LN7810               1AZ
139446003139446251-000002     139446006003000093991TAPE D-SIDED 24x1000mm 0000001000+00002192+00000+0001T   00002192+0000000948          1400 LN7810               1AZ
139446004139446050-000361-Z   139446006001023535382PADLOCK IRON 20mm CARD 0000001000+00001928+00000+0001T   00001928+0000000948          1400 LN7855               1AZ
139447000139447               139447               170213HB     1400+00000+HB0000000035+0000000035+000000000+000000005+0000000040+0000000000+I20000000000+0000000040+Z
139447001139447112-116038     139447006009681820246TCS CARRIER BAG MIDI   0000001000+00000035+00000+0001T   00000035+0000000949          1400 LN7090               1AZ
139448000139448               139448               170213HB     1400+00000+HB0000005963+0000005963+000000000+000000835+0000006798+0000000000+I40000006798+0000000000+Z
139448001139448368-000001     139448006003000097982Plush Bear 25cm        0000001000+00004385+00000+0001T   00004385+0000000953          1400 LN7745               1AZ
139448002139448077-000315     139448006003000181186GIFT-BAG 20x28cm MATT  0000001000+00001578+00000+0001T   00001578+0000000953          1400 LN7112               1AZ
139449000139449               139449               170213HB     1400+00000+HB0000019688+0000019688+000000000+000002759+0000022447+0000000000+I40000022447+0000000000+Z
139449001139449080-000127     139449006003000424351VALENTINES DAY 36x24CM 0000001000+00002192+00000+0001T   00002192+0000000955          1400 LN7112               1AZ
139449002139449077-000270     139449006003000395453GIFT-BAG PPR JMB 33X45 0000001000+00002630+00000+0001T   00002630+0000000955          1400 LN7112               1AZ
139449003139449080-000113     139449006003000237449CARD&ENVLPE - LOVE     0000001000+00001753+00000+0001T   00001753+0000000955          1400 LN7112               1AZ
139449004139449077-000010-C   139449006001023123879CREPE-PAPER RED        0000001000+00000788+00000+0001T   00000788+0000000955          1400 LN7112               1AZ
139449005139449031-005853     139449006003000442416P/FRAME WDN TWIN HEARTS0000001000+00003507+00000+0001T   00003507+0000000955          1400 LN7510               1AZ
139449006139449040-000220     139449006001023845313C/HOLDER HEART 17X18CM 0000002000+00004385+00000+0001T   00004385+0000000955          1400 LN7510               1AZ
139449007139449112-116069     139449006009681820277TCS CARRIER BAG JUMBO  0000001000+00000048+00000+0001T   00000048+0000000955          1400 LN7090               1AZ
139450000139450               139450               170213HB     1400+00000+HB0000003507+0000003507+000000000+000000491+0000003990+0000000008+I20000000000+0000003990+Z
139450001139450071-005667     139450006003000153060STAPLER SET MTL W/STPLS0000001000+00003507+00000+0001T   00003507+0000000957          1400 LN7130               1AZ
139451000139451               139451               170213HB     1400+00000+HB0000005519+0000005519+000000000+000000774+0000006290+0000000003+I20000000000+0000006290+Z
139451001139451007-000104     139451006009685854865BK COVER BRWN KRFT ROLL0000003000+00000350+00000+0001T   00000350+0000001000          1400 LN7130               1AZ
139451002139451903-000087     139451006001704000161SWT SPECKLED-EGGS 50G  0000001000+00001139+00000+0001T   00001139+0000001000          1400 LN7150               1AZ
139451003139451033-010721     139451006001023678669SAFETY-PINS 20PCE ASSTD0000001000+00000700+00000+0001T   00000700+0000001000          1400 LN7200               1AZ
139451004139451087-000103     139451006003000638185RAZOR LADIES 5PCE      0000001000+00002630+00000+0001T   00002630+0000001000          1400 LN7200               1AZ
139452000139452               139452               170213HB     1400+00000+HB0000002192+0000002192+000000000+000000307+0000002499+0000000000+I40000002499+0000000000+Z
139452001139452002-000681     139452006001023693747K/TOOL NYL SOLID-SPOON 0000001000+00002192+00000+0001T   00002192+0000001012          1400 LN7300               1AZ
139453000139453               139453               170213HB     1400+00000+HB0000040612+0000040612+000000000+000005689+0000046301+0000000000+I40000046301+0000000000+Z
139453001139453112-116069     139453006009681820277TCS CARRIER BAG JUMBO  0000001000+00000048+00000+0001T   00000048+0000001016          1400 LN7090               1AZ
139453002139453016-006517     139453006003000351626S/JAR GLS CHECK 650ML  0000004000+00002192+00000+0001T   00002192+0000001016          1400 LN7300               1AZ
139453003139453047-000006-H   139453006001023704054M/PLUG 3x16A+3x5A+CARD 0000001000+00006665+00000+0001T   00006665+0000001016          1400 LN7880               1AZ
139453004139453047-000011-H   139453006001023879943M/PLUG 6-WAY-SURGE     0000001000+00008771+00000+0001T   00008771+0000001016          1400 LN7880               1AZ
139453005139453047-000006-H   139453006001023704054M/PLUG 3x16A+3x5A+CARD 0000001000+00006665+00000+0001T   00006665+0000001016          1400 LN7880               1AZ
139453006139453158-008937     139453006003000571642TOILET ROLL HOLDER     0000001000+00004385+00000+0001T   00004385+0000001016          1400 LN7300               1AZ
139453007139453158-003092     139453006003000621644PAPER TOWEL HOLDER CHR 0000001000+00005262+00000+0001T   00005262+0000001016          1400 LN7300               1AZ
139453008139453112-116069     139453006009681820277TCS CARRIER BAG JUMBO  0000001000+00000048+00000+0001T   00000048+0000001016          1400 LN7090               1AZ
139454000139454               139454               170213HB     1400+00000+HB0000009951+0000009951+000000000+000001396+0000011347+0000000000+I40000011347+0000000000+Z
139454001139454077-000383     139454006003000247943GIFT-BAG 11X14CM S/COL 0000001000+00000788+00000+0001T   00000788+0000001018          1400 LN7112               1AZ
139454002139454200-000020     139454006925406841030BAG ZIPPERSEAL 25PC    0000002000+00002192+00000+0001T   00002192+0000001018          1400 LN7214               1AZ
139454003139454077-000245     139454006001023759214GIFT-RIBBON METALLICx2 0000001000+00001227+00000+0001T   00001227+0000001018          1400 LN7112               1AZ
139454004139454077-000151     139454006008766114676GIFT-WRAP C/PHANE ASSTD0000004000+00000876+00000+0001T   00000876+0000001018          1400 LN7112               1AZ
139454005139454112-116069     139454006009681820277TCS CARRIER BAG JUMBO  0000001000+00000048+00000+0001T   00000048+0000001018          1400 LN7090               1AZ
139455000139455               139455               170213HB     1400+00000+HB0000012892+0000012892+000000000+000001806+0000014698+0000000000+I40000014698+0000000000+Z
139455001139455077-000299     139455006003000395576G/BAG 32x25cm LRG LOVE 0000001000+00001490+00000+0001T   00001490+0000001020          1400 LN7112               1AZ
139455002139455368-000637     139455006001023874092PLUSH BEAR SLEEPING LOV0000001000+00011402+00000+0001T   00012279+0006471020          1400 LN7745               1AZ
139456000139456               139456               170213HB     1400+00000+HB0000002630+0000002630+000000000+000000369+0000002990+0000000009+I20000000000+0000002990+Z
139456001139456562-000504     139456006001023619327EDU CUBE RUBIX         0000001000+00002630+00000+0001T   00002630+0000001020          1400 LN7755               1AZ
139457000139457               139457               170213HB     1400+00000+HB0000004559+0000004559+000000000+000000639+0000005190+0000000008+I20000000000+0000005190+Z
139457001139457159-003615     139457006001246045460TOILET-BRUSH W/STAND   0000001000+00003069+00000+0001T   00003069+0000001025          1400 LN7200               1AZ
139457002139457036-000605     139457006001023158611WASHING-PEGS WDN PCK-240000001000+00001490+00000+0001T   00001490+0000001025          1400 LN7212               1AZ
139458000139458               139458               170213HB     1400+00000+HB0000001314+0000001314+000000000+000000184+0000001498+0000000000+I40000001498+0000000000+Z
139458001139458075-000348     139458006003000099474PURSE SILICONE W/CLIP  0000001000+00001314+00000+0001T   00001753+0008121028          1400 LN7160               1AZ
139459000139459               139459               170213HB     1400+00000+HB0000006960+0000006960+000000000+000000976+0000007936+0000000000+I40000007936+0000000000+Z
139459001139459007-000235     139459006003000134434LABELS RECTANGULAR 60pc0000001000+00000876+00000+0001T   00000876+0000001029          1400 LN7130               1AZ
139459002139459200-000025-A   139459006925406841054BAG ZIPPERSEAL 15PC    0000001000+00002192+00000+0001T   00002192+0000001029          1400 LN7214               1AZ
139459003139459071-030013     139459006003000283965PEN NVLTY NEON GEL 6PC 0000001000+00002630+00000+0001T   00002630+0000001029          1400 LN7130               1AZ
139459004139459007-000160     139459006009685857286NOTE-BOOK A5 SHORTHAND 0000001000+00001227+00000+0001T   00001227+0000001029          1400 LN7130               1AZ
139459005139459112-116038     139459006009681820246TCS CARRIER BAG MIDI   0000001000+00000035+00000+0001T   00000035+0000001029          1400 LN7090               1AZ
139460000139460               139460               170213HB     1400+00000+HB0000002364+0000002364+000000000+000000333+0000002697+0000000000+I40000002697+0000000000+Z
139460001139460083-000049     139460004891035200024CIG-LIGHTER DISPOSABLE 0000002000+00000437+00000+0001T   00000437+0000001031          1400 LN7315               1AZ
139460002139460266-008032     139460006003000023899BOYS PLAYSET FIG COMBAT0000001000+00001490+00000+0001T   00001490+0000001031          1400 LN7710               1AZ
139461000139461               139461               170213HB     1400+00000+HB0000002892+0000002892+000000000+000000405+0000003297+0000000000+I40000003297+0000000000+Z
139461001139461007-000095     139461006003000530434ENVELOPES WHITE 20PK C60000001000+00002192+00000+0001T   00002192+0000001033          1400 LN7130               1AZ
139461002139461566-002000     139461000721129013206STICKERS CRYSTAL ASSTD 0000001000+00000700+00000+0001T   00000700+0000001033          1400 LN7130               1AZ
139462000139462               139462               170213HB     1400+00000+HB0000001139+0000001139+000000000+000000160+0000001299+0000000000+I40000001299+0000000000+Z
139462001139462251-000030     139462006001023515803MASKING-TAPE 18mmx40m  0000001000+00001139+00000+0001T   00001139+0000001034          1400 LN7810               1AZ
139463000139463               139463               170213HB     1400+00000+HB0000008376+0000008376+000000000+000001175+0000009550+0000000001+I20000000000+0000009550+Z
139463001139463016-006509     139463006003000567355S/JAR GLS MINI LABEL   0000001000+00001753+00000+0001T   00002192+0008191038          1400 LN7300               1AZ
139463002139463024-000031     139463006003000295760MIXING BOWL PL W/HANDLE0000001000+00003069+00000+0001T   00003069+0000001038          1400 LN7300               1AZ
139463003139463036-000063     139463006009654960436COATHANGERS VIRGIN 5PCE0000002000+00001753+00000+0001T   00001753+0000001038          1400 LN7212               1AZ
139463004139463112-116069     139463006009681820277TCS CARRIER BAG JUMBO  0000001000+00000048+00000+0001T   00000048+0000001038          1400 LN7090               1AZ
139464000139464               139464               170213HB     1400+00000+HB0000000876+0000000876+000000000+000000123+0000000990+0000000009+I20000000000+0000000990+Z
139464001139464366-002681     139464006003000653744DRESS UP HAT FIRE CHIEF0000001000+00000876+00000+0001T   00000876+0000001038          1400 LN7131               1AZ
139465000139465               139465               170213HB     1400+00000+HB0000002192+0000002192+000000000+000000307+0000002490+0000000009+I20000000000+0000002490+Z
139465001139465200-000200     139465006008766091144BAKING ALUM FOIL 2PCE  0000001000+00002192+00000+0001T   00002192+0000001040          1400 LN7214               1AZ
139466000139466               139466               170213HB     1400+00000+HB0000014032+0000014032+000000000+000001965+0000015997+0000000000+I40000015997+0000000000+Z
139466001139466077-000932     139466006003000409808G/WRAP 700mmx5m PATTERN0000001000+00003507+00000+0001T   00003507+0000001041          1400 LN7112               1AZ
139466002139466203-005002     139466006003000384006DRINK. GAME SHOOTERS   0000001000+00010525+00000+0001T   00010525+0000001041          1400 LN7300               1AZ
139467000139467               139467               170213HB     1400+00000+HB0000014469+0000014469+000000000+000002027+0000016496+0000000000+I40000016496+0000000000+Z
139467001139467024-000168-C   139467006003000675036T/PLATE MUFFIN PAN 12  0000001000+00004385+00000+0001T   00004385+0000001043          1400 LN7300               1AZ
139467002139467306-000021-A   139467006001023891358EARBUDS COTTON 100PCE  0000001000+00000876+00000+0001T   00000876+0000001043          1400 LN7200               1AZ
139467003139467024-000020     139467006003000108640ICING-SET PL S/S NOZZLE0000001000+00007455+00000+0001T   00007455+0000001043          1400 LN7300               1AZ
139467004139467007-000724     139467006003000225958NOTE MAGNETIC 60SHTS   0000001000+00001753+00000+0001T   00001753+0000001043          1400 LN7130               1AZ
139468000139468               139468               170213HB     1400+00000+HB0000013362+0000013362+000000000+000001872+0000015234+0000000000+I40000015234+0000000000+Z
139468001139468564-000012     139468006001023130075BUBBLE BOTTLE MAGIC    0000009000+00000700+00000+0001T   00000700+0000001046          1400 LN7131               1AZ
139468002139468034-091340     139468006001023754370BABY-BIB PRINT MUM/DAD 0000002000+00003069+00000+0001T   00003069+0000001046          1400 LN7215               1AZ
139468003139468007-000235     139468006003000134434LABELS RECTANGULAR 60pc0000001000+00000876+00000+0001T   00000876+0000001046          1400 LN7130               1AZ
139468004139468112-116069     139468006009681820277TCS CARRIER BAG JUMBO  0000001000+00000048+00000+0001T   00000048+0000001046          1400 LN7090               1AZ
139469000139469               139469               170213HB     1400+00000+HB0000000876+0000000876+000000000+000000123+0000000990+0000000009+I20000000000+0000000990+Z
139469001139469076-000017     139469006001811010022TWINE COTTON 50g-BALL  0000001000+00000876+00000+0001T   00000876+0000001048          1400 LN7810               1AZ
139470000139470               139470               170213HB     1400+00000+HB0000007890+0000007890+000000000+000001106+0000008996+0000000000+I40000008996+0000000000+Z
139470001139470565-000014     139470006003000671915NOVELTY AIR BALLOON    0000001000+00002630+00000+0001T   00002630+0000001051          1400 LN7745               1AZ
139470002139470077-000457     139470006003000285662G/BAG METALLIC JMB SOL 0000001000+00001753+00000+0001T   00001753+0000001051          1400 LN7112               1AZ
139470003139470464-000515     139470006003000645725DART BOARD W/2x DARTS  0000001000+00003507+00000+0001T   00003507+0000001051          1400 LN7785               1AZ
139471000139471               139471               170213HB     1400+00000+HB0000003682+0000003682+000000000+000000516+0000004198+0000000000+I40000004198+0000000000+Z
139471001139471079-000512     139471006001023635853CRAYONS WAX 12-COLOUR  0000001000+00001490+00000+0001T   00001490+0000001054          1400 LN7130               1AZ
139471002139471566-000031     139471006003000283910STICKER BK TEACHER STIC0000001000+00002192+00000+0001T   00002192+0000001054          1400 LN7130               1AZ
139472000139472               139472               170213HB     1400+00000+HB0000008554+0000008554+000000000+000001199+0000009753+0000000000+I40000009753+0000000000+Z
139472001139472105-002013     139472006002580008494CONTAINER SET 18PCE    0000001000+00007016+00000+0001T   00007016+0000001059          1400 LN7210               1AZ
139472002139472051-002401     139472006001023523570TRIGGER-SPRAYER   300ml0000001000+00001490+00000+0001T   00001490+0000001059          1400 LN7820               1AZ
139472003139472112-116069     139472006009681820277TCS CARRIER BAG JUMBO  0000001000+00000048+00000+0001T   00000048+0000001059          1400 LN7090               1AZ
139473000139473               139473               170213HB     1400+00000+HB0000007014+0000007014+000000000+000000982+0000007990+0000000006+I20000000000+0000007990+Z
139473001139473039-080942     139473006001023669872C/PILLAR RND WHT 10X7CM0000002000+00003507+00000+0001T   00003507+0000001100          1400 LN7510               1AZ
139474000139474               139474               170213HB     1400+00000+HB0000000876+0000000876+000000000+000000123+0000000999+0000000000+I40000000999+0000000000+Z
139474001139474071-001019     139474006001023474513MARKER BLACK NAME-PEN  0000001000+00000876+00000+0001T   00000876+0000001101          1400 LN7130               1AZ
139475000139475               139475               170213HB     1400+00000+HB0000004769+0000004769+000000000+000000668+0000005437+0000000000+I40000005437+0000000000+Z
139475001139475018-000127     139475006001023380289MUG OCC STRAIGHT LOVE  0000003000+00001578+00000+0001T   00001753+0006471105          1400 LN7515               1AZ
139475002139475112-116038     139475006009681820246TCS CARRIER BAG MIDI   0000001000+00000035+00000+0001T   00000035+0000001105          1400 LN7090               1AZ
139476000139476               139476               170213HB     1400+00000+HB0000000788+0000000788+000000000+000000111+0000000890+0000000009+I20000000000+0000000890+Z
139476001139476077-000383     139476006003000247943GIFT-BAG 11X14CM S/COL 0000001000+00000788+00000+0001T   00000788+0000001106          1400 LN7112               1AZ
139477000139477               139477               170213HB     1400+00000+HB0000003503+0000003503+000000000+000000493+0000003990+0000000006+I20000000000+0000003990+Z
139477001139477079-013102     139477006003000019601ART+CRAFT DIY PIPE-CLNR0000001000+00002192+00000+0001T   00002192+0000001108          1400 LN7130               1AZ
139477002139477080-000133-A   139477006003000647019MINI VALENTINES CARD   0000003000+00000437+00000+0001T   00000437+0000001108          1400 LN7112               1AZ
139478000139478               139478               170213HB     1400+00000+HB0000001753+0000001753+000000000+000000246+0000001990+0000000009+I20000000000+0000001990+Z
139478001139478046-002032-PK2 139478004897006175063BATTERIES CR-2032  2PCE0000001000+00001753+00000+0001T   00001753+0000001110          1400 LN7312               1AZ
139479000139479               139479               170213HB     1400+00000+HB0000003507+0000003507+000000000+000000491+0000003990+0000000008+I20000000000+0000003990+Z
139479001139479031-005923     139479006003000040322P/FRAME CERT PL 21x29.70000001000+00003507+00000+0001T   00003507+0000001112          1400 LN7510               1AZ
139480000139480               139480               170213HB     1400+00000+HB0000008771+0000008771+000000000+000001228+0000009999+0000000000+I40000009999+0000000000+Z
139480001139480001-091415     139480006003000329113W/GLS OCC. LOVE 2PC 2800000001000+00008771+00000+0001T   00009648+0006471113          1400 LN7515               1AZ
139481000139481               139481               170213HB     1400+00000+HB0000003946+0000003946+000000000+000000553+0000004490+0000000009+I20000000000+0000004490+Z
139481001139481106-001119     139481006003000449972WATER BOTTLE ALUM 750ml0000001000+00003946+00000+0001T   00005262+0008171116          1400 LN7210               1AZ
139482000139482               139482               170213HB     1400+00000+HB0000000874+0000000874+000000000+000000124+0000000990+0000000008+I20000000000+0000000990+Z
139482001139482080-000133-A   139482006003000647019MINI VALENTINES CARD   0000002000+00000437+00000+0001T   00000437+0000001117          1400 LN7112               1AZ
139483000139483               139483               170213HB     1400+00000+HB0000013151+0000013151+000000000+000001842+0000014993+0000000000+I40000014993+0000000000+Z
139483001139483560-000201     139483006001023400147RUBBER SNAKE 86cm      0000001000+00002630+00000+0001T   00002630+0000001120          1400 LN7745               1AZ
139483002139483560-000189     139483006003000592357ANIMALS SNAKE 78cm     0000001000+00003507+00000+0001T   00003507+0000001120          1400 LN7745               1AZ
139483003139483560-000190     139483006001023355973SNAKE COBRA 58cm       0000002000+00003507+00000+0001T   00003507+0000001120          1400 LN7745               1AZ
139484000139484               139484               170213HB     1400+00000+HB0000001753+0000001753+000000000+000000246+0000001999+0000000000+I40000001999+0000000000+Z
139484001139484079-000275     139484006003000160488PAINT-BRUSHES 6PCE PRO 0000001000+00001753+00000+0001T   00001753+0000001130          1400 LN7130               1AZ
139485000139485               139485               170213HB     1400+00000+HB0000006083+0000006083+000000000+000000853+0000006930+0000000006+I20000000000+0000006930+Z
139485001139485071-081101-A   139485006003000326549GLUE-STICK 25g BLISTER 0000001000+00000788+00000+0001T   00000788+0000001137          1400 LN7130               1AZ
139485002139485133-000036     139485006003000133376CLOTHS M/PURPOSE PACK-20000001000+00001753+00000+0001T   00001753+0000001137          1400 LN7212               1AZ
139485003139485027-008817     139485006003000666393DUSTER MICROFIBRE      0000001000+00003507+00000+0001T   00003507+0000001137          1400 LN7212               1AZ
139485004139485112-116038     139485006009681820246TCS CARRIER BAG MIDI   0000001000+00000035+00000+0001T   00000035+0000001137          1400 LN7090               1AZ
139486000139486               139486               170213HB     1400+00000+HB0000024164+0000024164+000000000+000003385+0000027549+0000000000+I40000027549+0000000000+Z
139486001139486071-000306     139486006001023715371STENCILS ART FUN SET   0000001000+00003507+00000+0001T   00003507+0000001144          1400 LN7130               1AZ
139486002139486490-048674     139486000078257486748INTEX BALL PIT & BALLS 0000001000+00014911+00000+0001T   00014911+0000001144          1400 LN7787               1AZ
139486003139486112-116069     139486006009681820277TCS CARRIER BAG JUMBO  0000001000+00000048+00000+0001T   00000048+0000001144          1400 LN7090               1AZ
139486004139486566-000359     139486006003000582709STICKER BOOK LOVE SPARK0000001000+00002192+00000+0001T   00002192+0000001144          1400 LN7130               1AZ
139486005139486903-000919     139486006009802868577SWEET NOVELTY LASER POP0000002000+00001753+00000+0001T   00001753+0000001144          1400 LN7150               1AZ
139487000139487               139487               170213HB     1400+00000+HB0000012934+0000012934+000000000+000001813+0000014747+0000000000+I40000014747+0000000000+Z
139487001139487903-005000     139487006002580020007SWT CT MALLOW FISH 120g0000001000+00001314+00000+0001T   00001314+0000001147          1400 LN7150               1AZ
139487002139487077-000240     139487006003000326259G/RIBBON 4PC PEARLIZED 0000001000+00001753+00000+0001T   00001753+0000001147          1400 LN7112               1AZ
139487003139487077-000010-C   139487006001023123879CREPE-PAPER RED        0000001000+00000788+00000+0001T   00000788+0000001147          1400 LN7112               1AZ
139487004139487903-000519     139487006001704012805SWT MS LIQ-O-GHETTI    0000002000+00001227+00000+0001T   00001227+0000001147          1400 LN7150               1AZ
139487005139487200-000020     139487006925406841030BAG ZIPPERSEAL 25PC    0000001000+00002192+00000+0001T   00002192+0000001147          1400 LN7214               1AZ
139487006139487105-007505     139487006003000487301STORAGE BOX CLEAR 2L   0000001000+00004385+00000+0001T   00004385+0000001147          1400 LN7210               1AZ
139487007139487112-116069     139487006009681820277TCS CARRIER BAG JUMBO  0000001000+00000048+00000+0001T   00000048+0000001147          1400 LN7090               1AZ
139488000139488               139488               170213HB     1400+00000+HB0000002630+0000002630+000000000+000000369+0000002990+0000000009+I20000000000+0000002990+Z
139488001139488007-000588     139488006001023810090NOTES SHOPPING-LIST+RIB0000001000+00002630+00000+0001T   00002630+0000001157          1400 LN7130               1AZ
139489000139489               139489               170213HB     1400+00000+HB0000000876+0000000876+000000000+000000123+0000000990+0000000009+I20000000000+0000000990+Z
139489001139489071-001019     139489006001023474513MARKER BLACK NAME-PEN  0000001000+00000876+00000+0001T   00000876+0000001158          1400 LN7130               1AZ
139490000139490               139490               170213HB     1400+00000+HB0000048276+0000048276+000000000+000006762+0000055030+0000000008+I20000000000+0000055030+Z
139490001139490112-116069     139490006009681820277TCS CARRIER BAG JUMBO  0000001000+00000048+00000+0001T   00000048+0000001203          1400 LN7090               1AZ
139490002139490039-091784     139490006003000275311CANDLE LED CLR CHANGE  0000009000+00004385+00000+0001T   00004385+0000001203          1400 LN7510               1AZ
139490003139490006-000166-D   139490006003000516490BALLOONS LRG 6PC RED   0000001000+00001314+00000+0001T   00001314+0000001203          1400 LN7131               1AZ
139490004139490006-000166-H   139490006003000608096BALLOONS HELIUM 6PC WHT0000001000+00001314+00000+0001T   00001314+0000001203          1400 LN7131               1AZ
139490005139490071-008229     139490006003000216017PENCIL-BAG ASTD COL A5 0000001000+00001753+00000+0001T   00001753+0000001203          1400 LN7130               1AZ
139490006139490077-000235     139490006003000160211GIFT-RIBBON ROLL METALC0000001000+00002630+00000+0001T   00002630+0000001203          1400 LN7112               1AZ
139490007139490007-000235     139490006003000134434LABELS RECTANGULAR 60pc0000002000+00000876+00000+0001T   00000876+0000001203          1400 LN7130               1AZ
139491000139491               139491               170213HB     1400+00000+HB0000021925+0000021925+000000000+000003072+0000024990+0000000007+I20000000000+0000024990+Z
139491001139491031-007000     139491006003000462476P/FRAME WDN DIST.10X15 0000002000+00007016+00000+0001T   00007016+0000001205          1400 LN7510               1AZ
139491002139491031-006544     139491006003000279401P/FRAME WDN DISTRESSED 0000001000+00007893+00000+0001T   00007893+0000001205          1400 LN7510               1AZ
139492000139492               139492               170213HB     1400+00000+HB0000004154+0000004154+000000000+000000583+0000004737+0000000000+I40000004737+0000000000+Z
139492001139492565-000044     139492006003000128280BARREL OF SLIME 100g   0000001000+00000613+00000+0001T   00000613+0000001208          1400 LN7745               1AZ
139492002139492466-000103     139492006001023642134BALL 20cm ASSTD        0000001000+00001753+00000+0001T   00001753+0000001208          1400 LN7785               1AZ
139492003139492565-001212     139492006001023658173NOVELTY MAGIC-SPRING   0000001000+00001753+00000+0001T   00001753+0000001208          1400 LN7745               1AZ
139492004139492112-116038     139492006009681820246TCS CARRIER BAG MIDI   0000001000+00000035+00000+0001T   00000035+0000001208          1400 LN7090               1AZ
139493000139493               139493               170213HB     1400+00000+HB0000007046+0000007046+000000000+000000989+0000008035+0000000000+I40000008035+0000000000+Z
139493001139493077-000311     139493006001023608666GIFT-BAG 11X14CM GLOSS 0000001000+00000613+00000+0001T   00000613+0000001211          1400 LN7112               1AZ
139493002139493162-097717     139493006001492977171#TAG NEW SILVER E/PIERC0000001000+00001139+00000+0001T   00001139+0000001211          1400 LN7160               1AZ
139493003139493079-000275     139493006003000160488PAINT-BRUSHES 6PCE PRO 0000001000+00001753+00000+0001T   00001753+0000001211          1400 LN7130               1AZ
139493004139493079-003001     139493006003000448951A/TUBE 75ML BLACK      0000001000+00001753+00000+0001T   00001753+0000001211          1400 LN7130               1AZ
139493005139493079-003002     139493006003000447886A/TUBE 75ML RED        0000001000+00001753+00000+0001T   00001753+0000001211          1400 LN7130               1AZ
139493006139493112-116038     139493006009681820246TCS CARRIER BAG MIDI   0000001000+00000035+00000+0001T   00000035+0000001211          1400 LN7090               1AZ
139494000139494               139494               170213HB     1400+00000+HB0000003507+0000003507+000000000+000000491+0000003990+0000000008+I20000000000+0000003990+Z
139494001139494018-000136     139494006001023659026MUG OCC LOVE W/PLUSH   0000001000+00003507+00000+0001T   00003507+0000001212          1400 LN7515               1AZ
139495000139495               139495               170213HB     1400+00000+HB0000001663+0000001663+000000000+000000234+0000001897+0000000000+I40000001897+0000000000+Z
139495001139495079-009702-D   139495008427973059354PAPER SIRIO A2 RED COL 0000001000+00001051+00000+0001T   00001051+0000001214          1400 LN7130               1AZ
139495002139495079-009700-B   139495006003000547661PAPER SIRIO A4 WHITE   0000001000+00000306+00000+0001T   00000306+0000001214          1400 LN7130               1AZ
139495003139495079-009700-I   139495006003000546114PAPER SIRIO A4 LILAC   0000001000+00000306+00000+0001T   00000306+0000001214          1400 LN7130               1AZ
139496000139496               139496               170213HB     1400+00000+HB0000001927+0000001927+000000000+000000271+0000002190+0000000008+I20000000000+0000002190+Z
139496001139496077-000011-D   139496006001023808554TISSUE-WRAP WHITE 10PCE0000001000+00000876+00000+0001T   00000876+0000001215          1400 LN7112               1AZ
139496002139496079-009702-D   139496008427973059354PAPER SIRIO A2 RED COL 0000001000+00001051+00000+0001T   00001051+0000001215          1400 LN7130               1AZ
139497000139497               139497               170213HB     1400+00000+HB0000007015+0000007015+000000000+000000983+0000007990+0000000008+I20000000000+0000007990+Z
139497001139497077-000455     139497006003000285389G/BAG METALLIC LRG SOL 0000001000+00001753+00000+0001T   00001753+0000001216          1400 LN7112               1AZ
139497002139497018-019000     139497006003000557288MUG OCC. LOVE JUMBO    0000001000+00005262+00000+0001T   00005262+0000001216          1400 LN7515               1AZ
139498000139498               139498               170213HB     1400+00000+HB0000002452+0000002452+000000000+000000344+0000002796+0000000000+I40000002796+0000000000+Z
139498001139498200-000130     139498006001023645067DESSERT-SPOONS 10PCE   0000004000+00000613+00000+0001T   00000613+0000001217          1400 LN7214               1AZ
139499000139499               139499               170213HB     1400+00000+HB0000007012+0000007012+000000000+000000984+0000007996+0000000000+I40000007996+0000000000+Z
139499001139499466-000200     139499006001023621665HULA-HOOP     ASSTD    0000004000+00001753+00000+0001T   00001753+0000001219          1400 LN7785               1AZ
139500000139500               139500               170213HB     1400+00000+HB0000004385+0000004385+000000000+000000614+0000004990+0000000009+I20000000000+0000004990+Z
139500001139500261-004007     139500006001023707512GUNS DOUBLE WILD-WEST  0000001000+00004385+00000+0001T   00004385+0000001220          1400 LN7710               1AZ
139501000139501               139501               170213HB     1400+00000+HB0000001753+0000001753+000000000+000000246+0000001990+0000000009+I20000000000+0000001990+Z
139501001139501077-000455     139501006003000285389G/BAG METALLIC LRG SOL 0000001000+00001753+00000+0001T   00001753+0000001224          1400 LN7112               1AZ
139502000139502               139502               170213HB     1400+00000+HB0000011435+0000011435+000000000+000001602+0000013030+0000000007+I20000000000+0000013030+Z
139502001139502077-000011-E   139502006001023808646TISSUE-WRAP PINK 10PCE 0000001000+00000876+00000+0001T   00000876+0000001235          1400 LN7112               1AZ
139502002139502016-006524     139502006003000579358S/JAR GLS 750ml ASSTD  0000002000+00005262+00000+0001T   00005262+0000001235          1400 LN7300               1AZ
139502003139502112-116038     139502006009681820246TCS CARRIER BAG MIDI   0000001000+00000035+00000+0001T   00000035+0000001235          1400 LN7090               1AZ
139503000139503               139503               170213HB     1400+00000+HB0000001227+0000001227+000000000+000000172+0000001390+0000000009+I20000000000+0000001390+Z
139503001139503251-000040     139503006001023515865SEALTAPE CLEAR 48mmx50m0000001000+00001227+00000+0001T   00001227+0000001236          1400 LN7810               1AZ
139504000139504               139504               170213HB     1400+00000+HB0000009679+0000009679+000000000+000001356+0000011035+0000000000+I40000011035+0000000000+Z
139504001139504368-000023     139504006003000672264PLUSH BEAR 21.5cm      0000001000+00007016+00000+0001T   00007016+0000001243          1400 LN7745               1AZ
139504002139504006-000166-H   139504006003000608096BALLOONS HELIUM 6PC WHT0000001000+00001314+00000+0001T   00001314+0000001243          1400 LN7131               1AZ
139504003139504006-000166-D   139504006003000516490BALLOONS LRG 6PC RED   0000001000+00001314+00000+0001T   00001314+0000001243          1400 LN7131               1AZ
139504004139504112-116038     139504006009681820246TCS CARRIER BAG MIDI   0000001000+00000035+00000+0001T   00000035+0000001243          1400 LN7090               1AZ
139505000139505               139505               170213HB     1400+00000+HB0000002628+0000002628+000000000+000000368+0000002990+0000000006+I20000000000+0000002990+Z
139505001139505006-000166-D   139505006003000516490BALLOONS LRG 6PC RED   0000002000+00001314+00000+0001T   00001314+0000001244          1400 LN7131               1AZ
139506000139506               139506               170213HB     1400+00000+HB0000024546+0000024546+000000000+000003444+0000027990+0000000000+I40000027990+0000000000+Z
139506001139506024-000120     139506006001023422378NON-STICK LOAF-PAN MINI0000008000+00002630+00000+0001T   00002630+0000001303          1400 LN7300               1AZ
139506002139506080-000108     139506006003000237210CARD&ENVLPE BDAY-BOY   0000001000+00001753+00000+0001T   00001753+0000001303          1400 LN7112               1AZ
139506003139506080-000115     139506006003000237333CARD&ENVELOPE - BLANKS 0000001000+00001753+00000+0001T   00001753+0000001303          1400 LN7112               1AZ
139507000139507               139507               170213HB     1400+00000+HB0000001788+0000001788+000000000+000000251+0000002030+0000000009+I20000000000+0000002030+Z
139507001139507077-000289     139507006001023901996GIFT BOX 20x25x11cm    0000001000+00001753+00000+0001T   00001753+0000001303          1400 LN7112               1AZ
139507002139507112-116038     139507006009681820246TCS CARRIER BAG MIDI   0000001000+00000035+00000+0001T   00000035+0000001303          1400 LN7090               1AZ
139508000139508               139508               170213HB     1400+00000+HB0000004385+0000004385+000000000+000000614+0000004990+0000000009+I20000000000+0000004990+Z
139508001139508368-000001     139508006003000097982Plush Bear 25cm        0000001000+00004385+00000+0001T   00004385+0000001304          1400 LN7745               1AZ
139509000139509               139509               170213HB     1400+00000+HB0000001753+0000001753+000000000+000000246+0000001990+0000000009+I20000000000+0000001990+Z
139509001139509047-000508     139509006009636901983PLG EURODAPTOR 3x5A-2PN0000001000+00001753+00000+0001T   00001753+0000001304          1400 LN7880               1AZ
139510000139510               139510               170213HB     1400+00000+HB0000011799+0000011799+000000000+000001653+0000013452+0000000000+I40000013452+0000000000+Z
139510001139510077-000315     139510006003000181186GIFT-BAG 20x28cm MATT  0000001000+00001578+00000+0001T   00001578+0000001306          1400 LN7112               1AZ
139510002139510304-001204     139510006001023737984FLOWER OCC. TEDDY/ROSES0000001000+00001402+00000+0001T   00001490+0006471306          1400 LN7510               1AZ
139510003139510001-091415     139510006003000329113W/GLS OCC. LOVE 2PC 2800000001000+00008771+00000+0001T   00009648+0006471306          1400 LN7515               1AZ
139510004139510112-116069     139510006009681820277TCS CARRIER BAG JUMBO  0000001000+00000048+00000+0001T   00000048+0000001306          1400 LN7090               1AZ
139511000139511               139511               170213HB     1400+00000+HB0000001314+0000001314+000000000+000000184+0000001490+0000000008+I20000000000+0000001490+Z
139511001139511006-000166-D   139511006003000516490BALLOONS LRG 6PC RED   0000001000+00001314+00000+0001T   00001314+0000001306          1400 LN7131               1AZ
139512000139512               139512               170213HB     1400+00000+HB0000003069+0000003069+000000000+000000430+0000003499+0000000000+I40000003499+0000000000+Z
139512001139512016-006530     139512006003000618668S/JAR GLS COUNTER 2SIDE0000001000+00003069+00000+0001T   00003069+0000001307          1400 LN7300               1AZ
139513000139513               139513               170213HB     1400+00000+HB0000004822+0000004822+000000000+000000676+0000005498+0000000000+I40000005498+0000000000+Z
139513001139513083-000049     139513004891035200024CIG-LIGHTER DISPOSABLE 0000001000+00000437+00000+0001T   00000437+0000001309          1400 LN7315               1AZ
139513002139513039-000796     139513006001023617750CANDLES TEALITE BOX-8  0000001000+00004385+00000+0001T   00004385+0000001309          1400 LN7510               1AZ
139514000139514               139514               170213HB     1400+00000+HB0000001226+0000001226+000000000+000000172+0000001390+0000000008+I20000000000+0000001390+Z
139514001139514007-000167     139514006009685857347SPIRAL NOTES A7 72PG   0000001000+00000350+00000+0001T   00000350+0000001310          1400 LN7130               1AZ
139514002139514007-000127     139514006009685853431BOOK H/COVER MEMO 144PG0000001000+00000876+00000+0001T   00000876+0000001310          1400 LN7130               1AZ
139515000139515               139515               170213HB     1400+00000+HB0000001752+0000001752+000000000+000000246+0000001998+0000000000+I40000001998+0000000000+Z
139515001139515039-000319-0   139515006003000441273B/CANDLES LRG NUMBER-0 0000002000+00000876+00000+0001T   00000876+0000001311          1400 LN7510               1AZ
139516000139516               139516               170213HB     1400+00000+HB0000000876+0000000876+000000000+000000123+0000000990+0000000009+I20000000000+0000000990+Z
139516001139516078-000025     139516008887013700064SUPERGLUE 3g 1PCE CARD 0000001000+00000876+00000+0001T   00000876+0000001312          1400 LN7810               1AZ
139517000139517               139517               170213HB     1400+00000+HB0000019295+0000019295+000000000+000002702+0000021997+0000000000+I40000021997+0000000000+Z
139517001139517031-001010     139517006003000556892P/FRAME COLLAGE PL FMLY0000001000+00017542+00000+0001T   00017542+0000001315          1400 LN7510               1AZ
139517002139517077-000116     139517006003000240777GIFT-WRAP 700mmx2m COL 0000001000+00001753+00000+0001T   00001753+0000001315          1400 LN7112               1AZ
139518000139518               139518               170213HB     1400+00000+HB0000007014+0000007014+000000000+000000982+0000007990+0000000006+I20000000000+0000007990+Z
139518001139518495-059703     139518000078257597031LOUNGER AIR-MAT ECONO  0000002000+00003507+00000+0001T   00003507+0000001316          1400 LN7787               1AZ
139519000139519               139519               170213HB     1400+00000+HB0000000437+0000000437+000000000+000000062+0000000490+0000000009+I20000000000+0000000490+Z
139519001139519080-000133     139519006003000535613CARD&ENV MINI ASTD DSGN0000001000+00000437+00000+0001T   00000437+0000001316          1400 LN7112               1AZ
139520000139520               139520               170213HB     1400+00000+HB0000005297+0000005297+000000000+000000742+0000006030+0000000009+I20000000000+0000006030+Z
139520001139520562-000001     139520006009801541556MARLIN PLASTIC ABACUS  0000001000+00005262+00000+0001T   00005262+0000001317          1400 LN7755               1AZ
139520002139520112-116038     139520006009681820246TCS CARRIER BAG MIDI   0000001000+00000035+00000+0001T   00000035+0000001317          1400 LN7090               1AZ
139521000139521               139521               170213HB     1400+00000+HB0000004956+0000004956+000000000+000000696+0000005650+0000000002+I20000000000+0000005650+Z
139521001139521077-000452     139521006003000284986G/BAG METALLIC MED EMB 0000001000+00001490+00000+0001T   00001490+0000001318          1400 LN7112               1AZ
139521002139521077-000010-D   139521006001023123886CREPE-PAPER WHITE      0000001000+00000788+00000+0001T   00000788+0000001318          1400 LN7112               1AZ
139521003139521077-000270     139521006003000395453GIFT-BAG PPR JMB 33X45 0000001000+00002630+00000+0001T   00002630+0000001318          1400 LN7112               1AZ
139521004139521112-116069     139521006009681820277TCS CARRIER BAG JUMBO  0000001000+00000048+00000+0001T   00000048+0000001318          1400 LN7090               1AZ
139522000139522               139522               170213HB     1400+00000+HB0000003507+0000003507+000000000+000000491+0000003998+0000000000+I40000003998+0000000000+Z
139522001139522019-000124     139522006003000329502PLANTER GALV ROUND SML 0000001000+00003507+00000+0001T   00004385+0008171319          1400 LN7510               1AZ
139523000139523               139523               170213HB     1400+00000+HB0000000612+0000000612+000000000+000000086+0000000690+0000000008+I20000000000+0000000690+Z
139523001139523079-009700-I   139523006003000546114PAPER SIRIO A4 LILAC   0000002000+00000306+00000+0001T   00000306+0000001320          1400 LN7130               1AZ
139524000139524               139524               170213HB     1400+00000+HB0000000735+0000000735+000000000+000000103+0000000830+0000000008+I20000000000+0000000830+Z
139524001139524033-010721     139524006001023678669SAFETY-PINS 20PCE ASSTD0000001000+00000700+00000+0001T   00000700+0000001320          1400 LN7200               1AZ
139524002139524112-116038     139524006009681820246TCS CARRIER BAG MIDI   0000001000+00000035+00000+0001T   00000035+0000001320          1400 LN7090               1AZ
139525000139525               139525               170213HB     1400+00000+HB0000003819+0000003819+000000000+000000535+0000004354+0000000000+I40000004354+0000000000+Z
139525001139525108-009015-B   139525006005387000050SALAD-BOWL LRGE ASSTD  0000001000+00003771+00000+0001T   00003771+0000001323          1400 LN7210               1AZ
139525002139525112-116069     139525006009681820277TCS CARRIER BAG JUMBO  0000001000+00000048+00000+0001T   00000048+0000001323          1400 LN7090               1AZ
139526000139526               139526               170213HB     1400+00000+HB0000002014+0000002014+000000000+000000282+0000002290+0000000006+I20000000000+0000002290+Z
139526001139526018-000177     139526006001023797513MUG MINI LOVE ASSTD    0000001000+00000700+00000+0001T   00000700+0000001325          1400 LN7515               1AZ
139526002139526077-000310     139526006001023608635GIFT-BAG 18X23CM GLOSS 0000001000+00001314+00000+0001T   00001314+0000001325          1400 LN7112               1AZ
139527000139527               139527               170213HB     1400+00000+HB0000003555+0000003555+000000000+000000498+0000004050+0000000003+I20000000000+0000004050+Z
139527001139527020-000625     139527006001023821324BREAD-KNIFE 20cm       0000001000+00003507+00000+0001T   00003507+0000001326          1400 LN7300               1AZ
139527002139527112-116069     139527006009681820277TCS CARRIER BAG JUMBO  0000001000+00000048+00000+0001T   00000048+0000001326          1400 LN7090               1AZ
139528000139528               139528               170213HB     1400+00000+HB0000004385+0000004385+000000000+000000614+0000004990+0000000009+I20000000000+0000004990+Z
139528001139528368-000001     139528006003000097982Plush Bear 25cm        0000001000+00004385+00000+0001T   00004385+0000001327          1400 LN7745               1AZ
139529000139529               139529               170213HB     1400+00000+HB0000003855+0000003855+000000000+000000540+0000004390+0000000005+I20000000000+0000004390+Z
139529001139529006-000167-D   139529006003000517091BALLOONS PRPLE METALLIC0000002000+00001314+00000+0001T   00001314+0000001328          1400 LN7131               1AZ
139529002139529077-000245     139529006001023759214GIFT-RIBBON METALLICx2 0000001000+00001227+00000+0001T   00001227+0000001328          1400 LN7112               1AZ
139530000139530               139530               170213HB     1400+00000+HB0000002364+0000002364+000000000+000000333+0000002697+0000000000+I40000002697+0000000000+Z
139530001139530903-000200     139530006009826020234SWT CHOC RP CHOCO 23G  0000003000+00000788+00000+0001T   00000788+0000001334          1400 LN7150               1AZ
139531000139531               139531               170213HB     1400+00000+HB0000004120+0000004120+000000000+000000578+0000004698+0000000000+I40000004698+0000000000+Z
139531001139531077-000452     139531006003000284986G/BAG METALLIC MED EMB 0000001000+00001490+00000+0001T   00001490+0000001337          1400 LN7112               1AZ
139531002139531018-000129     139531006001023403353MUG OCC. LOVE V-SHAPE  0000001000+00002630+00000+0001T   00002630+0000001337          1400 LN7515               1AZ
139532000139532               139532               170213HB     1400+00000+HB0000005028+0000005028+000000000+000000706+0000005734+0000000000+I40000005734+0000000000+Z
139532001139532079-009702-A   139532008427973059408PAPER SIRIO A2 BLACK   0000001000+00001051+00000+0001T   00001051+0000001342          1400 LN7130               1AZ
139532002139532077-000010-C   139532006001023123879CREPE-PAPER RED        0000001000+00000788+00000+0001T   00000788+0000001342          1400 LN7112               1AZ
139532003139532903-000518     139532006001704012782SWT STRAWS S/BERRY 100g0000001000+00001227+00000+0001T   00001227+0000001342          1400 LN7150               1AZ
139532004139532903-000510     139532006001704012621SWEET MS ZBDZ S/BERRY  0000001000+00001227+00000+0001T   00001227+0000001342          1400 LN7150               1AZ
139532005139532464-000121     139532006003000640492PLAYING CARDS MINI     0000001000+00000700+00000+0001T   00000700+0000001342          1400 LN7785               1AZ
139532006139532112-116038     139532006009681820246TCS CARRIER BAG MIDI   0000001000+00000035+00000+0001T   00000035+0000001342          1400 LN7090               1AZ
139533000139533               139533               170213HB     1400+00000+HB0000008771+0000008771+000000000+000001228+0000009999+0000000000+I40000009999+0000000000+Z
139533001139533031-007010     139533006003000467945P/FRAME WDN CERTIFICATE0000001000+00008771+00000+0001T   00008771+0000001343          1400 LN7510               1AZ
139534000139534               139534               170213HB     1400+00000+HB0000004207+0000004207+000000000+000000590+0000004797+0000000000+I40000004797+0000000000+Z
139534001139534022-002106     139534006003000142712MUG EN 6cm ASSTD COLORS0000001000+00001139+00000+0001T   00001139+0000001345          1400 LN7305               1AZ
139534002139534077-000011-D   139534006001023808554TISSUE-WRAP WHITE 10PCE0000001000+00000876+00000+0001T   00000876+0000001345          1400 LN7112               1AZ
139534003139534563-000318-L   139534006003000407088SERVIETTES 33cm RED    0000001000+00002192+00000+0001T   00002192+0000001345          1400 LN7214               1AZ
139535000139535               139535               170213HB     1400+00000+HB0000005699+0000005699+000000000+000000798+0000006490+0000000007+I20000000000+0000006490+Z
139535001139535562-000520     139535006003000112777EDU BLOCKS WDN ALPHABET0000001000+00003507+00000+0001T   00003507+0000001345          1400 LN7755               1AZ
139535002139535077-000914     139535006003000413454G/WRAP 700mmx2m ANIMAL 0000001000+00002192+00000+0001T   00002192+0000001345          1400 LN7112               1AZ
139536000139536               139536               170213HB     1400+00000+HB0000012277+0000012277+000000000+000001720+0000013997+0000000000+I40000013997+0000000000+Z
139536001139536079-000336     139536006003000670758SUPER FINE MARKER PENS 0000001000+00005262+00000+0001T   00005262+0000001347          1400 LN7130               1AZ
139536002139536079-000207     139536006003000639120COLORING SECRET GARDEN 0000001000+00001753+00000+0001T   00001753+0000001347          1400 LN7130               1AZ
139536003139536006-000106     139536006003000471331WATERBOMBS 150PCE 6-COL0000001000+00005262+00000+0001T   00005262+0000001347          1400 LN7131               1AZ
139537000139537               139537               170213HB     1400+00000+HB0000002630+0000002630+000000000+000000369+0000002999+0000000000+I40000002999+0000000000+Z
139537001139537266-003012     139537006001023786128BOYS P/SET ARCHERY 4pc 0000001000+00002630+00000+0001T   00002630+0000001353          1400 LN7710               1AZ
139538000139538               139538               170213HB     1400+00000+HB0000003507+0000003507+000000000+000000491+0000003998+0000000000+I40000003998+0000000000+Z
139538001139538018-000136     139538006001023659026MUG OCC LOVE W/PLUSH   0000001000+00003507+00000+0001T   00003507+0000001354          1400 LN7515               1AZ
139539000139539               139539               170213HB     1400+00000+HB0000001753+0000001753+000000000+000000246+0000001999+0000000000+I40000001999+0000000000+Z
139539001139539565-000043     139539006003000109562NOVELTY BALL FUNNY FACE0000001000+00001753+00000+0001T   00001753+0000001357          1400 LN7745               1AZ
139540000139540               139540               170213HB     1400+00000+HB0000012279+0000012279+000000000+000001720+0000013999+0000000000+I40000013999+0000000000+Z
139540001139540368-000111     139540006001023780812PLUSH BEAR/DOG 29CM    0000001000+00012279+00000+0001T   00012279+0000001358          1400 LN7745               1AZ
139541000139541               139541               170213HB     1400+00000+HB0000002803+0000002803+000000000+000000393+0000003190+0000000006+I20000000000+0000003190+Z
139541001139541004-071280     139541006003000129959WRITABLE-CD SINGLE     0000001000+00001314+00000+0001T   00001314+0000001359          1400 LN7310               1AZ
139541002139541007-000555     139541006001023848239MEMO-PAD MINI LOVE     0000001000+00000613+00000+0001T   00000613+0000001359          1400 LN7130               1AZ
139541003139541077-000011-D   139541006001023808554TISSUE-WRAP WHITE 10PCE0000001000+00000876+00000+0001T   00000876+0000001359          1400 LN7112               1AZ
139542000139542               139542               170213HB     1400+00000+HB0000002541+0000002541+000000000+000000357+0000002898+0000000000+I40000002898+0000000000+Z
139542001139542077-000289     139542006001023901996GIFT BOX 20x25x11cm    0000001000+00001753+00000+0001T   00001753+0000001402          1400 LN7112               1AZ
139542002139542077-000010-C   139542006001023123879CREPE-PAPER RED        0000001000+00000788+00000+0001T   00000788+0000001402          1400 LN7112               1AZ
139543000139543               139543               170213HB     1400+00000+HB0000004204+0000004204+000000000+000000590+0000004794+0000000000+I40000004794+0000000000+Z
139543001139543006-000167-C   139543006003000516971BALLOONS PINK METALLIC 0000002000+00001314+00000+0001T   00001314+0000001406          1400 LN7131               1AZ
139543002139543039-000322     139543006001023524157B/CANDLES W/HOLDERS 24 0000001000+00001139+00000+0001T   00001139+0000001406          1400 LN7510               1AZ
139543003139543083-000049     139543004891035200024CIG-LIGHTER DISPOSABLE 0000001000+00000437+00000+0001T   00000437+0000001406          1400 LN7315               1AZ
139543004139543077-000240     139543006003000326259G/RIBBON 4PC PEARLIZED 0000001000-00001753+00000+0001T   00001753+0000001406          1400 LN71123IC            1 Z
139543005139543077-000240     139543006003000326259G/RIBBON 4PC PEARLIZED 0000001000+00001753+00000+0001T   00001753+0000001406          1400 LN71123IC            1AZ
139544000139544               139544               170213HB     1400+00000+HB0000000070+0000000070+000000000+000000010+0000000080+0000000000+I20000000000+0000000080+Z
139544001139544112-116038     139544006009681820246TCS CARRIER BAG MIDI   0000002000+00000035+00000+0001T   00000035+0000001408          1400 LN7090               1AZ
139545000139545               139545               170213HB     1400+00000+HB0000002630+0000002630+000000000+000000369+0000002999+0000000000+I40000002999+0000000000+Z
139545001139545031-000868-B   139545006001023798565P/FRAME PL BLCK 13X18CM0000001000+00002630+00000+0001T   00002630+0000001412          1400 LN7510               1AZ
139546000139546               139546               170213HB     1400+00000+HB0000002192+0000002192+000000000+000000307+0000002490+0000000009+I20000000000+0000002490+Z
139546001139546105-001033     139546000700371696641CONTAINER FOODSAVER 1.60000001000+00002192+00000+0001T   00002192+0000001417          1400 LN7210               1AZ
139547000139547               139547               170213HB     1400+00000+HB0000005963+0000005963+000000000+000000835+0000006790+0000000008+I20000000000+0000006790+Z
139547001139547368-000001     139547006003000097982Plush Bear 25cm        0000001000+00004385+00000+0001T   00004385+0000001418          1400 LN7745               1AZ
139547002139547077-000315     139547006003000181186GIFT-BAG 20x28cm MATT  0000001000+00001578+00000+0001T   00001578+0000001418          1400 LN7112               1AZ
139548000139548               139548               170213HB     1400+00000+HB0000016005+0000016005+000000000+000002243+0000018248+0000000000+I40000018248+0000000000+Z
139548001139548368-000614     139548006001023705808PLUSH LOVE 30cm        0000001000+00008771+00000+0001T   00008771+0000001420          1400 LN7745               1AZ
139548002139548079-009702-D   139548008427973059354PAPER SIRIO A2 RED COL 0000001000+00001051+00000+0001T   00001051+0000001420          1400 LN7130               1AZ
139548003139548080-000121     139548006003000237555CARD&ENVLPE-ANNIVERSARY0000001000+00000700+00000+0001T   00000876+0008151420          1400 LN7112               1AZ
139548004139548039-001023     139548006003000466337CANDLE TEA-LITE METALIC0000001000+00001753+00000+0001T   00001753+0000001420          1400 LN7510               1AZ
139548005139548563-000318-L   139548006003000407088SERVIETTES 33cm RED    0000001000+00002192+00000+0001T   00002192+0000001420          1400 LN7214               1AZ
139548006139548112-116069     139548006009681820277TCS CARRIER BAG JUMBO  0000001000+00000048+00000+0001T   00000048+0000001420          1400 LN7090               1AZ
139548007139548565-004101     139548006003000548033BALL BOUNCING EGG      0000001000+00001490+00000+0001T   00001490+0000001420          1400 LN7745               1AZ
139549000139549               139549               170213HB     1400+00000+HB0000001314+0000001314+000000000+000000184+0000001490+0000000008+I20000000000+0000001490+Z
139549001139549077-000312     139549006001023608697GIFT-BAG 10X35CM GLOSS 0000001000+00001314+00000+0001T   00001314+0000001430          1400 LN7112               1AZ
139550000139550               139550               170213HB     1400+00000+HB0000003507+0000003507+000000000+000000491+0000003990+0000000008+I20000000000+0000003990+Z
139550001139550018-005009     139550006001023725608MUG W/PLUSH-BEAR LOVE  0000001000+00003507+00000+0001T   00003507+0000001431          1400 LN7515               1AZ
139551000139551               139551               170213HB     1400+00000+HB0000042928+0000042928+000000000+000006014+0000048942+0000000000+I40000048942+0000000000+Z
139551001139551077-000299     139551006003000395576G/BAG 32x25cm LRG LOVE 0000002000+00001490+00000+0001T   00001490+0000001434          1400 LN7112               1AZ
139551002139551018-050000     139551006003000412679MUG OCC LOVE TWIN BEAR 0000002000+00006139+00000+0001T   00006139+0000001434          1400 LN7515               1AZ
139551003139551368-000265     139551006001023750914PLUSH BEAR 23CM ASSTD C0000001000+00006139+00000+0001T   00006139+0000001434          1400 LN7745               1AZ
139551004139551368-000067     139551006003000667864PLUSH REINDEER 20cm    0000001000+00006139+00000+0001T   00006139+0000001434          1400 LN7745               1AZ
139551005139551018-000130     139551006001023867537MUG OCC LOVE MINI+HEART0000001000+00003507+00000+0001T   00003507+0000001434          1400 LN7515               1AZ
139551006139551301-085001     139551006003000297610ORN WATERBALL LOVE ASST0000001000+00004823+00000+0001T   00004823+0000001434          1400 LN7505               1AZ
139551007139551301-085004     139551006003000420469ORN LOVE PLAQUE 21X10CM0000002000+00003507+00000+0001T   00003946+0006471434          1400 LN7505               1AZ
139551008139551112-116069     139551006009681820277TCS CARRIER BAG JUMBO  0000001000+00000048+00000+0001T   00000048+0000001434          1400 LN7090               1AZ
139552000139552               139552               170213HB     1400+00000+HB0000005996+0000005996+000000000+000000841+0000006837+0000000000+I40000006837+0000000000+Z
139552001139552903-002900     139552005996071650648QUICK MILK 5 CHOCO 5PC 0000001000+00001578+00000+0001T   00001578+0000001435          1400 LN7150               1AZ
139552002139552206-000350     139552006003000633265EGG MOULD SUNRISE      0000001000+00002630+00000+0001T   00002630+0000001435          1400 LN7321               1AZ
139552003139552077-000382     139552006003000247820GIFT-BAG MED 18X23CM   0000001000+00001753+00000+0001T   00001753+0000001435          1400 LN7112               1AZ
139552004139552112-116038     139552006009681820246TCS CARRIER BAG MIDI   0000001000+00000035+00000+0001T   00000035+0000001435          1400 LN7090               1AZ
139553000139553               139553               170213HB     1400+00000+HB0000026358+0000026358+000000000+000003691+0000030049+0000000000+I40000030049+0000000000+Z
139553001139553004-010013     139553006001023667717HOLDER DISC 24 DIVISION0000006000+00004385+00000+0001T   00004385+0000001437          1400 LN7310               1AZ
139553002139553112-116069     139553006009681820277TCS CARRIER BAG JUMBO  0000001000+00000048+00000+0001T   00000048+0000001437          1400 LN7090               1AZ
139554000139554               139554               170213HB     1400+00000+HB0000004383+0000004383+000000000+000000615+0000004990+0000000008+I20000000000+0000004990+Z
139554001139554039-001023     139554006003000466337CANDLE TEA-LITE METALIC0000001000+00001753+00000+0001T   00001753+0000001437          1400 LN7510               1AZ
139554002139554077-000270     139554006003000395453GIFT-BAG PPR JMB 33X45 0000001000+00002630+00000+0001T   00002630+0000001437          1400 LN7112               1AZ
139555000139555               139555               170213HB     1400+00000+HB0000001753-0000001753-000000000+000000246-0000002000-0000000001+I20000000000+0000002000-Z
139555001139555047-000012     139555006002521079279PLUG 1x16A+2x5A-2PIN   0000001000-00001753+00000+0001T   00001753+0000001442          1400 LN78802IC            1 Z
139556000139556               139556               170213HB     1400+00000+HB0000008771+0000008771+000000000+000001228+0000009999+0000000000+I40000009999+0000000000+Z
139556001139556001-091415     139556006003000329113W/GLS OCC. LOVE 2PC 2800000001000+00008771+00000+0001T   00009648+0006471444          1400 LN7515               1AZ
139557000139557               139557               170213HB     1400+00000+HB0000001578+0000001578+000000000+000000221+0000001799+0000000000+I40000001799+0000000000+Z
139557001139557560-000700     139557006001023865830GROWING ANIMALS ASSTD  0000001000+00001578+00000+0001T   00001578+0000001446          1400 LN7745               1AZ
139558000139558               139558               170213HB     1400+00000+HB0000005262+0000005262+000000000+000000737+0000005990+0000000009+I20000000000+0000005990+Z
139558001139558056-065300     139558006001023625854CAR SUNSHIELD ALUM FOIL0000001000+00005262+00000+0001L   00005262+0000001447          1400 LN7860               1AZ
139559000139559               139559               170213HB     1400+00000+HB0000002752+0000002752+000000000+000000386+0000003130+0000000008+I20000000000+0000003130+Z
139559001139559002-021040     139559006001023812216PARTY-PICKS 100PCE     0000001000+00000525+00000+0001T   00000525+0000001448          1400 LN7300               1AZ
139559002139559112-116038     139559006009681820246TCS CARRIER BAG MIDI   0000001000+00000035+00000+0001T   00000035+0000001448          1400 LN7090               1AZ
139559003139559079-013102     139559006003000019601ART+CRAFT DIY PIPE-CLNR0000001000+00002192+00000+0001T   00002192+0000001448          1400 LN7130               1AZ
139560000139560               139560               170213HB     1400+00000+HB0000013192+0000013192+000000000+000001847+0000015030+0000000009+I20000000000+0000015030+Z
139560001139560464-000123     139560006003000646081GAME POKER PLAY SET    0000001000+00013157+00000+0001T   00013157+0000001449          1400 LN7785               1AZ
139560002139560112-116038     139560006009681820246TCS CARRIER BAG MIDI   0000001000+00000035+00000+0001T   00000035+0000001449          1400 LN7090               1AZ
139561000139561               139561               170213HB     1400+00000+HB0000003946+0000003946+000000000+000000553+0000004499+0000000000+I40000004499+0000000000+Z
139561001139561031-000902-B   139561006001023726285P/FRAME WDN OAK 10X15CM0000001000+00003946+00000+0001T   00003946+0000001451          1400 LN7510               1AZ
139562000139562               139562               170213HB     1400+00000+HB0000002192+0000002192+000000000+000000307+0000002499+0000000000+I40000002499+0000000000+Z
139562001139562007-000597     139562006009699511129MARLIN SLF ADHESIVE 2M 0000001000+00002192+00000+0001T   00002192+0000001452          1400 LN7130               1AZ
139563000139563               139563               170213HB     1400+00000+HB0000001753+0000001753+000000000+000000246+0000001990+0000000009+I20000000000+0000001990+Z
139563001139563366-004047     139563006001023834850DRESS UP ACCESS TEETH  0000001000+00001753+00000+0001T   00001753+0000001452          1400 LN7131               1AZ
139564000139564               139564               170213HB     1400+00000+HB0000002630+0000002630+000000000+000000369+0000002999+0000000000+I40000002999+0000000000+Z
139564001139564565-000040     139564006008766115635NOVELTY ICON BEANIE    0000001000+00002630+00000+0001T   00002630+0000001454          1400 LN7745               1AZ
139565000139565               139565               170213HB     1400+00000+HB0000001753+0000001753+000000000+000000246+0000001990+0000000009+I20000000000+0000001990+Z
139565001139565047-001337-H   139565006001023429971INS-TAPE 20m BLACK     0000001000+00001753+00000+0001T   00001753+0000001455          1400 LN7880               1AZ
139566000139566               139566               170213HB     1400+00000+HB0000008817+0000008817+000000000+000001236+0000010053+0000000000+I40000010053+0000000000+Z
139566001139566159-000670     139566006003000577187BATH SPONGE MESH BACK  0000001000+00001753+00000+0001T   00002630+0008131458          1400 LN7200               1AZ
139566002139566105-002013     139566006002580008494CONTAINER SET 18PCE    0000001000+00007016+00000+0001T   00007016+0000001458          1400 LN7210               1AZ
139566003139566112-116069     139566006009681820277TCS CARRIER BAG JUMBO  0000001000+00000048+00000+0001T   00000048+0000001458          1400 LN7090               1AZ
139567000139567               139567               170213HB     1400+00000+HB0000001576+0000001576+000000000+000000221+0000001790+0000000007+I20000000000+0000001790+Z
139567001139567903-000006     139567006923431571571SWEET GS SOUR BELT 50g 0000001000+00000876+00000+0001T   00000876+0000001608          1400 LN7150               1AZ
139567002139567903-000070     139567006001704001106SWT TOFFEE CREAMY 35g  0000001000+00000700+00000+0001T   00000700+0000001608          1400 LN7150               1AZ
139568000139568               139568               170213HB     1400+00000+HB0000002980+0000002980+000000000+000000418+0000003390+0000000008+I20000000000+0000003390+Z
139568001139568028-000400     139568006001023421661PLATE-HOLDERS 4PCE     0000002000+00001490+00000+0001T   00001490+0000001609          1400 LN7305               1AZ
139569000139569               139569               170213HB     1400+00000+HB0000010547+0000010547+000000000+000001481+0000012028+0000000000+I40000012028+0000000000+Z
139569001139569112-116038     139569006009681820246TCS CARRIER BAG MIDI   0000001000+00000035+00000+0001T   00000035+0000001611          1400 LN7090               1AZ
139569002139569362-019375     139569006001023730664HAIR BAND SET 24PCE    0000012000+00000876+00000+0001T   00000876+0000001611          1400 LN7160               1AZ
139570000139570               139570               170213HB     1400+00000+HB0000005262+0000005262+000000000+000000737+0000005999+0000000000+I40000005999+0000000000+Z
139570001139570031-000864-C   139570006001023798411P/FRAME MAHOGANY 20X25 0000001000+00005262+00000+0001T   00005262+0000001613          1400 LN7510               1AZ
139571000139571               139571               170213HB     1400+00000+HB0000004329+0000004329+000000000+000000608+0000004930+0000000007+I20000000000+0000004930+Z
139571001139571077-000382     139571006003000247820GIFT-BAG MED 18X23CM   0000002000+00001753+00000+0001T   00001753+0000001615          1400 LN7112               1AZ
139571002139571077-000010-C   139571006001023123879CREPE-PAPER RED        0000001000+00000788+00000+0001T   00000788+0000001615          1400 LN7112               1AZ
139571003139571112-116038     139571006009681820246TCS CARRIER BAG MIDI   0000001000+00000035+00000+0001T   00000035+0000001615          1400 LN7090               1AZ
139572000139572               139572               170213HB     1400+00000+HB0000023727+0000023727+000000000+000003323+0000027050+0000000000+I40000027050+0000000000+Z
139572001139572039-001023     139572006003000466337CANDLE TEA-LITE METALIC0000001000+00001753+00000+0001T   00001753+0000001617          1400 LN7510               1AZ
139572002139572039-080944     139572006001023758897C/PILLAR RND WHT 12X7CM0000002000+00004385+00000+0001T   00004385+0000001617          1400 LN7510               1AZ
139572003139572040-000008     139572006001023900906C/HLDR MTL B/CAGE 17CM 0000002000+00006578+00000+0001T   00006578+0000001617          1400 LN7510               1AZ
139572004139572112-116069     139572006009681820277TCS CARRIER BAG JUMBO  0000001000+00000048+00000+0001T   00000048+0000001617          1400 LN7090               1AZ
139573000139573               139573               170213HB     1400+00000+HB0000021533+0000021533+000000000+000003016+0000024540+0000000009+I20000000000+0000024540+Z
139573001139573079-000336     139573006003000670758SUPER FINE MARKER PENS 0000001000+00005262+00000+0001T   00005262+0000001619          1400 LN7130               1AZ
139573002139573301-085004     139573006003000420469ORN LOVE PLAQUE 21X10CM0000001000+00003507+00000+0001T   00003946+0006471619          1400 LN7505               1AZ
139573003139573080-000105     139573006003000236237CARD & ENVELOPE BDAY   0000001000+00001753+00000+0001T   00001753+0000001619          1400 LN7112               1AZ
139573004139573080-000127     139573006003000424351VALENTINES DAY 36x24CM 0000001000+00002192+00000+0001T   00002192+0000001619          1400 LN7112               1AZ
139573005139573031-086302-C   139573006001023910332P/FRAME COLL. PL 3-HOLE0000001000+00008771+00000+0001T   00008771+0000001619          1400 LN7510               1AZ
139573006139573112-116069     139573006009681820277TCS CARRIER BAG JUMBO  0000001000+00000048+00000+0001T   00000048+0000001619          1400 LN7090               1AZ
139574000139574               139574               170213HB     1400+00000+HB0000002455+0000002455+000000000+000000344+0000002790+0000000009+I20000000000+0000002790+Z
139574001139574079-000802     139574006001023528902ART+CRAFT STICKS 100PCE0000001000+00002455+00000+0001T   00002455+0000001620          1400 LN7130               1AZ
139575000139575               139575               170213HB     1400+00000+HB0000008771+0000008771+000000000+000001228+0000009990+0000000009+I20000000000+0000009990+Z
139575001139575261-003906     139575006003000472376RIFLE 57cm +ACCESS 8PCE0000001000+00008771+00000+0001T   00008771+0000001621          1400 LN7710               1AZ
139576000139576               139576               170213HB     1400+00000+HB0000002100+0000002100+000000000+000000294+0000002394+0000000000+I40000002394+0000000000+Z
139576001139576018-000177     139576006001023797513MUG MINI LOVE ASSTD    0000003000+00000700+00000+0001T   00000700+0000001623          1400 LN7515               1AZ
139577000139577               139577               170213HB     1400+00000+HB0000000876+0000000876+000000000+000000123+0000000990+0000000009+I20000000000+0000000990+Z
139577001139577150-004032-H   139577006003000645367BASIN-PLUG 2PCE BLACK  0000001000+00000876+00000+0001T   00000876+0000001625          1400 LN7810               1AZ
139578000139578               139578               170213HB     1400+00000+HB0000007448+0000007448+000000000+000001045+0000008490+0000000003+I20000000000+0000008490+Z
139578001139578077-000150-D   139578006003000054343GIFT-WRAP CELLPHANE CLR0000006000+00000876+00000+0001T   00000876+0000001625          1400 LN7112               1AZ
139578002139578200-000002     139578006925406821049BAG FLIP TOP 80PCE     0000001000+00002192+00000+0001T   00002192+0000001625          1400 LN7214               1AZ
139579000139579               139579               170213HB     1400+00000+HB0000001490+0000001490+000000000+000000209+0000001690+0000000009+I20000000000+0000001690+Z
139579001139579077-000299     139579006003000395576G/BAG 32x25cm LRG LOVE 0000001000+00001490+00000+0001T   00001490+0000001626          1400 LN7112               1AZ
139580000139580               139580               170213HB     1400+00000+HB0000011882+0000011882+000000000+000001666+0000013548+0000000000+I40000013548+0000000000+Z
139580001139580112-116069     139580006009681820277TCS CARRIER BAG JUMBO  0000001000+00000048+00000+0001T   00000048+0000001627          1400 LN7090               1AZ
139580002139580006-000201-B   139580006003000601271PARTY BOYS DSGN A 8PC  0000001000+00001753+00000+0001T   00001753+0000001627          1400 LN7131               1AZ
139580003139580006-005909     139580006003000081301PARTY FAVOUR STAR WAND 0000001000+00002192+00000+0001T   00002192+0000001627          1400 LN7131               1AZ
139580004139580563-000317-J   139580006001023776419SERVIETTE 2PLY 33cm    0000001000+00001753+00000+0001T   00001753+0000001627          1400 LN7214               1AZ
139580005139580006-000097     139580006003000376612PARTY WIND SPINNER     0000001000+00003507+00000+0001T   00003507+0000001627          1400 LN7131               1AZ
139580006139580080-000112     139580006003000252749CARD&ENVLP BDAY-MUSICAL0000001000+00001753+00000+0001T   00001753+0000001627          1400 LN7112               1AZ
139580007139580077-000151     139580006008766114676GIFT-WRAP C/PHANE ASSTD0000001000+00000876+00000+0001T   00000876+0000001627          1400 LN7112               1AZ
139581000139581               139581               170213HB     1400+00000+HB0000003240+0000003240+000000000+000000456+0000003690+0000000006+I20000000000+0000003690+Z
139581001139581903-000518     139581006001704012782SWT STRAWS S/BERRY 100g0000001000+00001227+00000+0001T   00001227+0000001629          1400 LN7150               1AZ
139581002139581162-097717     139581006001492977171#TAG NEW SILVER E/PIERC0000001000+00001139+00000+0001T   00001139+0000001629          1400 LN7160               1AZ
139581003139581080-000133     139581006003000535613CARD&ENV MINI ASTD DSGN0000002000+00000437+00000+0001T   00000437+0000001629          1400 LN7112               1AZ
139582000139582               139582               170213HB     1400+00000+HB0000009031+0000009031+000000000+000001266+0000010297+0000000000+I40000010297+0000000000+Z
139582001139582494-059252     139582000078257592524TIRE-TUBE 91cm GIANT   0000001000+00005262+00000+0001T   00005262+0000001631          1400 LN7787               1AZ
139582002139582903-000087     139582006001704000161SWT SPECKLED-EGGS 50G  0000001000+00001139+00000+0001T   00001139+0000001631          1400 LN7150               1AZ
139582003139582497-069613     139582000078257696130HAND-PUMP PL DBL-QUICK 0000001000+00002630+00000+0001T   00002630+0000001631          1400 LN7787               1AZ
139583000139583               139583               170213HB     1400+00000+HB0000009819+0000009819+000000000+000001377+0000011196+0000000000+I40000011196+0000000000+Z
139583001139583040-000170     139583006001023774613C/HOLDER GLASS CUP 6CM 0000002000+00002630+00000+0001T   00002630+0000001633          1400 LN7510               1AZ
139583002139583039-000108     139583006001023524034TEA-LITE CANDLES 8PCE  0000001000+00001490+00000+0001T   00001490+0000001633          1400 LN7510               1AZ
139583003139583103-000088     139583006001023795625BAMBOO BASKET  W/HNDLES0000001000+00003069+00000+0001T   00003069+0000001633          1400 LN7300               1AZ
139584000139584               139584               170213HB     1400+00000+HB0000001314+0000001314+000000000+000000184+0000001498+0000000000+I40000001498+0000000000+Z
139584001139584033-005906-B   139584006001023727848S/LACES RND 90cm ASSTD 0000001000+00001314+00000+0001T   00001314+0000001636          1400 LN7200               1AZ
139585000139585               139585               170213HB     1400+00000+HB0000002975+0000002975+000000000+000000420+0000003390+0000000005+I20000000000+0000003390+Z
139585001139585080-000133     139585006003000535613CARD&ENV MINI ASTD DSGN0000004000+00000437+00000+0001T   00000437+0000001637          1400 LN7112               1AZ
139585002139585071-081091     139585006001151010287STAED/GENKEM ALL-STICK 0000001000+00001227+00000+0001T   00001227+0000001637          1400 LN7130               1AZ
139586000139586               139586               170213HB     1400+00000+HB0000005658+0000005658+000000000+000000794+0000006452+0000000000+I40000006452+0000000000+Z
139586001139586105-003025     139586006001023594662CONTAINER RECT 28x19cm 0000002000+00002630+00000+0001T   00002630+0000001638          1400 LN7210               1AZ
139586002139586007-000104     139586006009685854865BK COVER BRWN KRFT ROLL0000001000+00000350+00000+0001T   00000350+0000001638          1400 LN7130               1AZ
139586003139586112-116069     139586006009681820277TCS CARRIER BAG JUMBO  0000001000+00000048+00000+0001T   00000048+0000001638          1400 LN7090               1AZ
139587000139587               139587               170213HB     1400+00000+HB0000012323+0000012323+000000000+000001727+0000014050+0000000000+I40000014050+0000000000+Z
139587001139587072-000602     139587006003000452446DOG-COLLAR 1.6x35cm SML0000001000+00004385+00000+0001T   00004385+0000001641          1400 LN7870               1AZ
139587002139587077-000011-Y   139587006001023809858TISSUE-WRAP GOLD 10PCE 0000001000+00001753+00000+0001T   00001753+0000001641          1400 LN7112               1AZ
139587003139587467-004013     139587006003000123353BEACH SPADE W/WDN 67cm 0000001000+00003507+00000+0001T   00003507+0000001641          1400 LN7785               1AZ
139587004139587467-004012     139587006001023705358BEACH SPADE 46cm       0000001000+00002630+00000+0001T   00002630+0000001641          1400 LN7785               1AZ
139587005139587112-116069     139587006009681820277TCS CARRIER BAG JUMBO  0000001000+00000048+00000+0001T   00000048+0000001641          1400 LN7090               1AZ
139588000139588               139588               170213HB     1400+00000+HB0000001753+0000001753+000000000+000000246+0000001990+0000000009+I20000000000+0000001990+Z
139588001139588080-000108     139588006003000237210CARD&ENVLPE BDAY-BOY   0000001000+00001753+00000+0001T   00001753+0000001641          1400 LN7112               1AZ
139589000139589               139589               170213HB     1400+00000+HB0000002630+0000002630+000000000+000000369+0000002999+0000000000+I40000002999+0000000000+Z
139589001139589162-010792     139589006001492107929#TAG KIDS ELASTIC      0000001000+00002630+00000+0001T   00002630+0000001644          1400 LN7160               1AZ
139590000139590               139590               170213HB     1400+00000+HB0000005295+0000005295+000000000+000000742+0000006030+0000000007+I20000000000+0000006030+Z
139590001139590304-001204     139590006001023737984FLOWER OCC. TEDDY/ROSES0000001000+00001402+00000+0001T   00001490+0006471647          1400 LN7510               1AZ
139590002139590018-000136     139590006001023659026MUG OCC LOVE W/PLUSH   0000001000+00003507+00000+0001T   00003507+0000001647          1400 LN7515               1AZ
139590003139590031-006535     139590006003000456543P/FRAME POLY PRINCE/CES0000001000+00001753+00000+0001T   00002630+0008171647          1400 LN7510               1AZ
139590004139590304-001204     139590006001023737984FLOWER OCC. TEDDY/ROSES0000001000-00001402+00000+0001T   00001490+0006471647          1400 LN75101IC            1 Z
139590005139590112-116038     139590006009681820246TCS CARRIER BAG MIDI   0000001000+00000035+00000+0001T   00000035+0000001647          1400 LN7090               1AZ
139591000139591               139591               170213HB     1400+00000+HB0000007624+0000007624+000000000+000001070+0000008694+0000000000+I40000008694+0000000000+Z
139591001139591903-000087     139591006001704000161SWT SPECKLED-EGGS 50G  0000001000+00001139+00000+0001T   00001139+0000001649          1400 LN7150               1AZ
139591002139591071-030013     139591006003000283965PEN NVLTY NEON GEL 6PC 0000001000+00002630+00000+0001T   00002630+0000001649          1400 LN7130               1AZ
139591003139591071-000001-A   139591006003000129607PENCIL LEAD 0.5mm  2PK 0000001000+00000788+00000+0001T   00000788+0000001649          1400 LN7130               1AZ
139591004139591007-000209     139591006001023582102NOTE STICKY FILE MARKER0000001000+00001314+00000+0001T   00001314+0000001649          1400 LN7130               1AZ
139591005139591007-000598     139591006009608642333MARLIN FILE DIVIDER 10 0000001000+00001753+00000+0001T   00001753+0000001649          1400 LN7130               1AZ
139592000139592               139592               170213HB     1400+00000+HB0000001227+0000001227+000000000+000000172+0000001399+0000000000+I40000001399+0000000000+Z
139592001139592903-000510     139592006001704012621SWEET MS ZBDZ S/BERRY  0000001000+00001227+00000+0001T   00001227+0000001650          1400 LN7150               1AZ
139593000139593               139593               170213HB     1400+00000+HB0000003507+0000003507+000000000+000000491+0000003998+0000000000+I40000003998+0000000000+Z
139593001139593018-005009     139593006001023725608MUG W/PLUSH-BEAR LOVE  0000001000+00003507+00000+0001T   00003507+0000001652          1400 LN7515               1AZ
139594000139594               139594               170213HB     1400+00000+HB0000008766+0000008766+000000000+000001230+0000009990+0000000006+I20000000000+0000009990+Z
139594001139594563-000317-G   139594006001023776341SERVIETTES BRIGHT ASSTD0000001000+00002630+00000+0001T   00002630+0000001653          1400 LN7214               1AZ
139594002139594563-000317-C   139594006001023776204SERVIETTES 20PK  FLOWER0000001000+00002630+00000+0001T   00002630+0000001653          1400 LN7214               1AZ
139594003139594077-000373     139594006003000395217G/BAG MED 18X23CM DESGN0000002000+00001753+00000+0001T   00001753+0000001653          1400 LN7112               1AZ
139595000139595               139595               170213HB     1400+00000+HB0000002893+0000002893+000000000+000000406+0000003299+0000000000+I40000003299+0000000000+Z
139595001139595036-000151     139595006001023810588COATHANGERS    PACK-10 0000001000+00002893+00000+0001T   00002893+0000001654          1400 LN7212               1AZ
139596000139596               139596               170213HB     1400+00000+HB0000002629+0000002629+000000000+000000369+0000002998+0000000000+I40000002998+0000000000+Z
139596001139596077-000011-X   139596006001023809827TISSUE-WRAP SILVER 10PC0000001000+00001753+00000+0001T   00001753+0000001655          1400 LN7112               1AZ
139596002139596077-000011-R   139596006001023808462P/TISSUE DARK 10-SHEETS0000001000+00000876+00000+0001T   00000876+0000001655          1400 LN7112               1AZ
139597000139597               139597               170213HB     1400+00000+HB0000001753+0000001753+000000000+000000246+0000001990+0000000009+I20000000000+0000001990+Z
139597001139597077-000240     139597006003000326259G/RIBBON 4PC PEARLIZED 0000001000+00001753+00000+0001T   00001753+0000001656          1400 LN7112               1AZ
139598000139598               139598               170213HB     1400+00000+HB0000002630+0000002630+000000000+000000369+0000002990+0000000009+I20000000000+0000002990+Z
139598001139598464-009012     139598006003000469536GAME FISHING           0000001000+00002630+00000+0001T   00002630+0000001656          1400 LN7785               1AZ
139599000139599               139599               170213HB     1400+00000+HB0000002015+0000002015+000000000+000000283+0000002298+0000000000+I40000002298+0000000000+Z
139599001139599018-000127     139599006001023380289MUG OCC STRAIGHT LOVE  0000001000+00001578+00000+0001T   00001753+0006471659          1400 LN7515               1AZ
139599002139599080-000133-A   139599006003000647019MINI VALENTINES CARD   0000001000+00000437+00000+0001T   00000437+0000001659          1400 LN7112               1AZ
139600000139600               139600               170213HB     1400+00000+HB0000005784+0000005784+000000000+000000810+0000006594+0000000000+I40000006594+0000000000+Z
139600001139600105-001025-A   139600006009654960979CONTAINERS CLEAR 4PCE  0000003000+00001928+00000+0001T   00001928+0000001700          1400 LN7210               1AZ
139601000139601               139601               170213HB     1400+00000+HB0000000613+0000000613+000000000+000000086+0000000690+0000000009+I20000000000+0000000690+Z
139601001139601033-008209     139601006001023678607MEASURING-TAPE 150cm   0000001000+00000613+00000+0001T   00000613+0000001701          1400 LN7200               1AZ
139602000139602               139602               170213HB     1400+00000+HB0000008771+0000008771+000000000+000001228+0000009999+0000000000+I40000009999+0000000000+Z
139602001139602031-000924     139602006001023669964P/FRAME COLLAGE PL     0000001000+00008771+00000+0001T   00008771+0000001703          1400 LN7510               1AZ
139603000139603               139603               170213HB     1400+00000+HB0000009504+0000009504+000000000+000001332+0000010830+0000000006+I20000000000+0000010830+Z
139603001139603903-000126     139603006002099003591SWT ZILLIONS MINT 50G  0000001000+00000700+00000+0001T   00000700+0000001704          1400 LN7150               1AZ
139603002139603039-000798     139603006001023617774CANDLES TEALITE BOX-50 0000001000+00006139+00000+0001T   00006139+0000001704          1400 LN7510               1AZ
139603003139603108-003023     139603006003000665471TUMBLER W/STRAW 550ml  0000001000+00002630+00000+0001T   00002630+0000001704          1400 LN7210               1AZ
139603004139603112-116038     139603006009681820246TCS CARRIER BAG MIDI   0000001000+00000035+00000+0001T   00000035+0000001704          1400 LN7090               1AZ
139604000139604               139604               170213HB     1400+00000+HB0000006575+0000006575+000000000+000000922+0000007497+0000000000+I40000007497+0000000000+Z
139604001139604031-000868-A   139604006001023798534P/FRAME PL BLCK 10X15CM0000001000+00002192+00000+0001T   00002192+0000001706          1400 LN7510               1AZ
139604002139604077-000005-B   139604006003000326617PAPER TISSUE PATTERN   0000001000+00002630+00000+0001T   00002630+0000001706          1400 LN7112               1AZ
139604003139604077-000382     139604006003000247820GIFT-BAG MED 18X23CM   0000001000+00001753+00000+0001T   00001753+0000001706          1400 LN7112               1AZ
139605000139605               139605               170213HB     1400+00000+HB0000036090+0000036090+000000000+000005056+0000041146+0000000000+I40000041146+0000000000+Z
139605001139605903-000518     139605006001704012782SWT STRAWS S/BERRY 100g0000003000+00001227+00000+0001T   00001227+0000001709          1400 LN7150               1AZ
139605002139605368-000637     139605006001023874092PLUSH BEAR SLEEPING LOV0000001000+00011402+00000+0001T   00012279+0006471709          1400 LN7745               1AZ
139605003139605368-006004     139605006003000671076PLUSH DOLPHIN          0000001000+00004385+00000+0001T   00004385+0000001709          1400 LN7745               1AZ
139605004139605903-000510     139605006001704012621SWEET MS ZBDZ S/BERRY  0000001000+00001227+00000+0001T   00001227+0000001709          1400 LN7150               1AZ
139605005139605077-000376     139605006003000444427GIFT-BAG 25X32CM 2PK   0000001000+00003069+00000+0001T   00003069+0000001709          1400 LN7112               1AZ
139605006139605565-000043     139605006003000109562NOVELTY BALL FUNNY FACE0000001000+00001753+00000+0001T   00001753+0000001709          1400 LN7745               1AZ
139605007139605112-116069     139605006009681820277TCS CARRIER BAG JUMBO  0000001000+00000048+00000+0001T   00000048+0000001709          1400 LN7090               1AZ
139605008139605368-000005     139605006003000616862PLUSH MONSTER 24cm     0000001000+00010525+00000+0001T   00010525+0000001709          1400 LN7745               1AZ
139606000139606               139606               170213HB     1400+00000+HB0000007102+0000007102+000000000+000000995+0000008090+0000000007+I20000000000+0000008090+Z
139606001139606077-000309-A   139606006003000671007GIFT-BAG HOLOGRAM JMB  0000001000+00002192+00000+0001T   00002192+0000001720          1400 LN7112               1AZ
139606002139606077-000380     139606006003000247585GIFT-BAG 33X45CM S/COL 0000002000+00002455+00000+0001T   00002455+0000001720          1400 LN7112               1AZ
139607000139607               139607               170213HB     1400+00000+HB0000003067+0000003067+000000000+000000431+0000003498+0000000000+I40000003498+0000000000+Z
139607001139607071-001124     139607006001023802873MARKERS WHITEBOARD 3PCE0000001000+00002630+00000+0001T   00002630+0000001722          1400 LN7130               1AZ
139607002139607071-000212     139607006009608641190CHALK WHITE 12PCE      0000001000+00000437+00000+0001T   00000437+0000001722          1400 LN7130               1AZ
139608000139608               139608               170213HB     1400+00000+HB0000010786+0000010786+000000000+000001511+0000012297+0000000000+I40000012297+0000000000+Z
139608001139608080-000127     139608006003000424351VALENTINES DAY 36x24CM 0000001000+00002192+00000+0001T   00002192+0000001726          1400 LN7112               1AZ
139608002139608031-007000     139608006003000462476P/FRAME WDN DIST.10X15 0000001000+00007016+00000+0001T   00007016+0000001726          1400 LN7510               1AZ
139608003139608077-000315     139608006003000181186GIFT-BAG 20x28cm MATT  0000001000+00001578+00000+0001T   00001578+0000001726          1400 LN7112               1AZ
139609000139609               139609               170213HB     1400+00000+HB0000003506+0000003506+000000000+000000492+0000003998+0000000000+I40000003998+0000000000+Z
139609001139609007-010496     139609006003000640652MARKER WHITEBOARD 4PCE 0000001000+00001753+00000+0001T   00001753+0000001727          1400 LN7130               1AZ
139609002139609084-006996     139609006003000092833NAIL CLIPPER 6cm       0000001000+00001753+00000+0001T   00001753+0000001727          1400 LN7200               1AZ
139610000139610               139610               170213HB     1400+00000+HB0000017622+0000017622+000000000+000002470+0000020092+0000000000+I40000020092+0000000000+Z
139610001139610047-002041     139610006002521079170PLUG-ADAPTOR 2x16A 2x5A0000001000+00003157+00000+0001T   00003157+0000001728          1400 LN7880               1AZ
139610002139610047-000012     139610006002521079279PLUG 1x16A+2x5A-2PIN   0000001000+00001753+00000+0001T   00001753+0000001728          1400 LN7880               1AZ
139610003139610047-000507     139610006001023684479PLUG-ADAPTOR EURO TWIN 0000002000+00001753+00000+0001T   00001753+0000001728          1400 LN7880               1AZ
139610004139610200-000010     139610006925406841061BAG ZIPPERSEAL 35PC    0000001000+00002192+00000+0001T   00002192+0000001728          1400 LN7214               1AZ
139610005139610200-000025-A   139610006925406841054BAG ZIPPERSEAL 15PC    0000001000+00002192+00000+0001T   00002192+0000001728          1400 LN7214               1AZ
139610006139610200-000022     139610006003000399291BAG SLIDE LOCK 15PC    0000001000+00002630+00000+0001T   00002630+0000001728          1400 LN7214               1AZ
139610007139610200-000020     139610006925406841030BAG ZIPPERSEAL 25PC    0000001000+00002192+00000+0001T   00002192+0000001728          1400 LN7214               1AZ
139611000139611               139611               170213HB     1400+00000+HB0000000613+0000000613+000000000+000000086+0000000690+0000000009+I20000000000+0000000690+Z
139611001139611007-000555     139611006001023848239MEMO-PAD MINI LOVE     0000001000+00000613+00000+0001T   00000613+0000001729          1400 LN7130               1AZ
139612000139612               139612               170213HB     1400+00000+HB0000033497+0000033497+000000000+000004693+0000038190+0000000000+I40000038190+0000000000+Z
139612001139612159-000800     139612006001023167972BATHMAT ANTI-SLIP      0000001000+00002630+00000+0001T   00002630+0000001732          1400 LN7200               1AZ
139612002139612037-000004     139612006001023763679ASHTRAY PL TUB 8X11CM  0000001000+00001753+00000+0001T   00002192+0008191732          1400 LN7515               1AZ
139612003139612078-000025     139612008887013700064SUPERGLUE 3g 1PCE CARD 0000001000+00000876+00000+0001T   00000876+0000001732          1400 LN7810               1AZ
139612004139612083-000049     139612004891035200024CIG-LIGHTER DISPOSABLE 0000001000+00000437+00000+0001T   00000437+0000001732          1400 LN7315               1AZ
139612005139612150-004030-H   139612006001023435798BATH-PLUG RUBBER WHITE 0000001000+00000613+00000+0001T   00000613+0000001732          1400 LN7810               1AZ
139612006139612133-000017     139612006003000525171CLEANING-CLOTHS 5PCE   0000001000+00003507+00000+0001T   00003507+0000001732          1400 LN7212               1AZ
139612007139612159-000108     139612006003000484058SHOWER CURTAIN DELUX   0000001000+00013157+00000+0001T   00013157+0000001732          1400 LN7200               1AZ
139612008139612016-006530     139612006003000618668S/JAR GLS COUNTER 2SIDE0000001000+00003069+00000+0001T   00003069+0000001732          1400 LN7300               1AZ
139612009139612002-000711     139612006003000442775C/BOARD WDN 24x33.5x1.60000001000+00007455+00000+0001T   00007455+0000001732          1400 LN7300               1AZ
139613000139613               139613               170213HB     1400+00000+HB0000007454+0000007454+000000000+000001044+0000008498+0000000000+I40000008498+0000000000+Z
139613001139613368-000151     139613006003000166725PLUSH BEAR 14cm        0000001000+00004385+00000+0001T   00004385+0000001734          1400 LN7745               1AZ
139613002139613103-000088     139613006001023795625BAMBOO BASKET  W/HNDLES0000001000+00003069+00000+0001T   00003069+0000001734          1400 LN7300               1AZ
139614000139614               139614               170213HB     1400+00000+HB0000003946+0000003946+000000000+000000553+0000004499+0000000000+I40000004499+0000000000+Z
139614001139614368-000152     139614006003000166886PLUSH BEAR 15cm        0000001000+00003946+00000+0001T   00005262+0008141737          1400 LN7745               1AZ
139615000139615               139615               170213HB     1400+00000+HB0000004822+0000004822+000000000+000000676+0000005490+0000000008+I20000000000+0000005490+Z
139615001139615079-013102     139615006003000019601ART+CRAFT DIY PIPE-CLNR0000001000+00002192+00000+0001T   00002192+0000001740          1400 LN7130               1AZ
