142367000142367               142367               170213HB     1400+00000+HB0000000700+0000000700+000000000+000000098+0000000798+0000000000+I40000000798+0000000000+Z
142367001142367033-010721     142367006001023678669SAFETY-PINS 20PCE ASSTD0000001000+00000700+00000+0001T   00000700+0000000930          1400 BA2200               2BZ
142368000142368               142368               170213HB     1400+00000+HB0000002892+0000002892+000000000+000000405+0000003290+0000000007+I20000000000+0000003290+Z
142368001142368903-000120     142368006002099001665SWEET GS ZILLIONS 50g  0000001000+00000700+00000+0001T   00000700+0000000930          1400 BA2150               2BZ
142368002142368080-000127     142368006003000424351VALENTINES DAY 36x24CM 0000001000+00002192+00000+0001T   00002192+0000000930          1400 BA2112               2BZ
142369000142369               142369               170213HB     1400+00000+HB0000001753+0000001753+000000000+000000246+0000001999+0000000000+I40000001999+0000000000+Z
142369001142369006-000120     142369006001023346889BALLOONS 10PC MIX COL  0000001000+00001753+00000+0001T   00001753+0000000935          1400 BA2131               2BZ
142370000142370               142370               170213HB     1400+00000+HB0000000876+0000000876+000000000+000000123+0000000990+0000000009+I20000000000+0000000990+Z
142370001142370077-000011-D   142370006001023808554TISSUE-WRAP WHITE 10PCE0000001000+00000876+00000+0001T   00000876+0000000936          1400 BA2112               2BZ
142371000142371               142371               170213HB     1400+00000+HB0000007012+0000007012+000000000+000000984+0000007996+0000000000+I40000007996+0000000000+Z
142371001142371006-000201-D   142371006003000601516PARTY BOY DSGN B 8PC   0000003000+00001753+00000+0001T   00001753+0000000937          1400 BA2131               2BZ
142371002142371563-000317-J   142371006001023776419SERVIETTE 2PLY 33cm    0000001000+00001753+00000+0001T   00001753+0000000937          1400 BA2214               2BZ
142372000142372               142372               170213HB     1400+00000+HB0000012062+0000012062+000000000+000001690+0000013752+0000000000+I40000013752+0000000000+Z
142372001142372001-091415     142372006003000329113W/GLS OCC. LOVE 2PC 2800000001000+00008771+00000+0001T   00009648+0006470939          1400 BA2515               2BZ
142372002142372077-000299     142372006003000395576G/BAG 32x25cm LRG LOVE 0000001000+00001490+00000+0001T   00001490+0000000939          1400 BA2112               2BZ
142372003142372080-000116     142372006003000253555CARD&ENVELOPE-HANDMADE 0000001000+00001753+00000+0001T   00001753+0000000939          1400 BA2112               2BZ
142372004142372112-116069     142372006009681820277TCS CARRIER BAG JUMBO  0000001000+00000048+00000+0001T   00000048+0000000939          1400 BA2090               2BZ
142373000142373               142373               170213HB     1400+00000+HB0000004822+0000004822+000000000+000000676+0000005490+0000000008+I20000000000+0000005490+Z
142373001142373007-000095     142373006003000530434ENVELOPES WHITE 20PK C60000001000+00002192+00000+0001T   00002192+0000000940          1400 BA2130               2BZ
142373002142373007-000196     142373006002324002375FILE LEVER ARCH A4     0000001000+00002630+00000+0001T   00002630+0000000940          1400 BA2130               2BZ
142374000142374               142374               170213HB     1400+00000+HB0000007008+0000007008+000000000+000000984+0000007992+0000000000+I40000007992+0000000000+Z
142374001142374077-000150-D   142374006003000054343GIFT-WRAP CELLPHANE CLR0000008000+00000876+00000+0001T   00000876+0000000943          1400 BA2112               2BZ
142375000142375               142375               170213HB     1400+00000+HB0000003980+0000003980+000000000+000000558+0000004530+0000000008+I20000000000+0000004530+Z
142375001142375112-116038     142375006009681820246TCS CARRIER BAG MIDI   0000001000+00000035+00000+0001T   00000035+0000000944          1400 BA2090               2BZ
142375002142375563-000318-L   142375006003000407088SERVIETTES 33cm RED    0000001000+00002192+00000+0001T   00002192+0000000944          1400 BA2214               2BZ
142375003142375200-003024     142375006001023657299REFUSE BAGS 20PCE BLACK0000001000+00001753+00000+0001T   00001753+0000000944          1400 BA2214               2BZ
142376000142376               142376               170213HB     1400+00000+HB0000004385+0000004385+000000000+000000614+0000004999+0000000000+I40000004999+0000000000+Z
142376001142376036-000405     142376006001023630247CLOTHES DRYER PL 18-PEG0000001000+00004385+00000+0001T   00004385+0000001145          1400 BA2212               2BZ
142377000142377               142377               170213HB     1400+00000+HB0000011450+0000011450+000000000+000001604+0000013054+0000000000+I40000013054+0000000000+Z
142377001142377368-000637     142377006001023874092PLUSH BEAR SLEEPING LOV0000001000+00011402+00000+0001T   00012279+0006471207          1400 BA2745               2BZ
142377002142377112-116069     142377006009681820277TCS CARRIER BAG JUMBO  0000001000+00000048+00000+0001T   00000048+0000001207          1400 BA2090               2BZ
142378000142378               142378               170213HB     1400+00000+HB0000000700+0000000700+000000000+000000098+0000000790+0000000008+I20000000000+0000000790+Z
142378001142378018-000177     142378006001023797513MUG MINI LOVE ASSTD    0000001000+00000700+00000+0001T   00000700+0000001207          1400 BA2515               2BZ
142379000142379               142379               170213HB     1400+00000+HB0000002366+0000002366+000000000+000000332+0000002690+0000000008+I20000000000+0000002690+Z
142379001142379077-000303     142379006001023593757GIFT-BAG PAPER MED     0000001000+00001578+00000+0001T   00001578+0000001208          1400 BA2112               2BZ
142379002142379077-000010-C   142379006001023123879CREPE-PAPER RED        0000001000+00000788+00000+0001T   00000788+0000001208          1400 BA2112               2BZ
142380000142380               142380               170213HB     1400+00000+HB0000001576+0000001576+000000000+000000221+0000001790+0000000007+I20000000000+0000001790+Z
142380001142380306-000016     142380006001023887955T/BRUSH KIDDIES W/CAP  0000001000+00000876+00000+0001T   00000876+0000001209          1400 BA2200               2BZ
142380002142380564-000012     142380006001023130075BUBBLE BOTTLE MAGIC    0000001000+00000700+00000+0001T   00000700+0000001209          1400 BA2131               2BZ
142381000142381               142381               170213HB     1400+00000+HB0000003682+0000003682+000000000+000000516+0000004190+0000000008+I20000000000+0000004190+Z
142381001142381028-085274     142381006001023641571BBQ LIGHTER         H&L0000001000+00002192+00000+0001T   00002192+0000001223          1400 BA2305               2BZ
142381002142381039-000108     142381006001023524034TEA-LITE CANDLES 8PCE  0000001000+00001490+00000+0001T   00001490+0000001223          1400 BA2510               2BZ
142382000142382               142382               170213HB     1400+00000+HB0000006137+0000006137+000000000+000000860+0000006997+0000000000+I40000006997+0000000000+Z
142382001142382072-020366     142382006003000452927PET PLACE MAT ASSTD COL0000001000+00002630+00000+0001T   00002630+0000001225          1400 BA2870               2BZ
142382002142382133-000017     142382006003000525171CLEANING-CLOTHS 5PCE   0000001000+00003507+00000+0001T   00003507+0000001225          1400 BA2212               2BZ
142383000142383               142383               170213HB     1400+00000+HB0000002805+0000002805+000000000+000000393+0000003190+0000000008+I20000000000+0000003190+Z
142383001142383077-000318     142383006001023609755GIFT-BAG 18X23CM E/D AN0000001000+00001227+00000+0001T   00001227+0000001227          1400 BA2112               2BZ
142383002142383018-000127     142383006001023380289MUG OCC STRAIGHT LOVE  0000001000+00001578+00000+0001T   00001753+0006471227          1400 BA2515               2BZ
142384000142384               142384               170213HB     1400+00000+HB0000000876+0000000876+000000000+000000123+0000000990+0000000009+I20000000000+0000000990+Z
142384001142384077-000011-D   142384006001023808554TISSUE-WRAP WHITE 10PCE0000001000+00000876+00000+0001T   00000876+0000001228          1400 BA2112               2BZ
142385000142385               142385               170213HB     1400+00000+HB0000001664+0000001664+000000000+000000234+0000001890+0000000008+I20000000000+0000001890+Z
142385001142385903-000861     142385005010478430822SWT LOVE HEARTS SML    0000001000+00000876+00000+0001T   00000876+0000001234          1400 BA2150               2BZ
142385002142385903-000200     142385006009826020234SWT CHOC RP CHOCO 23G  0000001000+00000788+00000+0001T   00000788+0000001234          1400 BA2150               2BZ
142386000142386               142386               170213HB     1400+00000+HB0000002630+0000002630+000000000+000000369+0000002990+0000000009+I20000000000+0000002990+Z
142386001142386466-000584     142386006001023628787SKIPPING-ROPE          0000001000+00002630+00000+0001T   00002630+0000001236          1400 BA2785               2BZ
142387000142387               142387               170213HB     1400+00000+HB0000000700+0000000700+000000000+000000098+0000000790+0000000008+I20000000000+0000000790+Z
142387001142387018-000177     142387006001023797513MUG MINI LOVE ASSTD    0000001000+00000700+00000+0001T   00000700+0000001237          1400 BA2515               2BZ
142388000142388               142388               170213HB     1400+00000+HB0000002630+0000002630+000000000+000000369+0000002990+0000000009+I20000000000+0000002990+Z
142388001142388082-000388     142388006001023774385SPECT-CASE SPRING-CLOSE0000001000+00002630+00000+0001T   00002630+0000001238          1400 BA2160               2BZ
142389000142389               142389               170213HB     1400+00000+HB0000001400+0000001400+000000000+000000196+0000001590+0000000006+I20000000000+0000001590+Z
142389001142389007-000167     142389006009685857347SPIRAL NOTES A7 72PG   0000002000+00000350+00000+0001T   00000350+0000001239          1400 BA2130               2BZ
142389002142389007-000166     142389006009685857316SPIRAL NOTES A6 100PG  0000001000+00000700+00000+0001T   00000700+0000001239          1400 BA2130               2BZ
142390000142390               142390               170213HB     1400+00000+HB0000015251+0000015251+000000000+000002140+0000017391+0000000000+I40000017391+0000000000+Z
142390001142390009-001708     142390006001023807731SALAD BOWL 15cm SWIRL  0000003000+00001753+00000+0001T   00001753+0000001242          1400 BA2210               2BZ
142390002142390200-000092     142390006003000576739PICNIC PAPER PLATES 23c0000001000+00001227+00000+0001T   00001227+0000001242          1400 BA2214               2BZ
142390003142390009-001704     142390006001023807670PLATE 25cm SWIRL DESIGN0000003000+00001753+00000+0001T   00001753+0000001242          1400 BA2210               2BZ
142390004142390047-000507     142390006001023684479PLUG-ADAPTOR EURO TWIN 0000002000+00001753+00000+0001T   00001753+0000001242          1400 BA2880               2BZ
142391000142391               142391               170213HB     1400+00000+HB0000004823+0000004823+000000000+000000676+0000005499+0000000000+I40000005499+0000000000+Z
142391001142391301-085001     142391006003000297610ORN WATERBALL LOVE ASST0000001000+00004823+00000+0001T   00004823+0000001243          1400 BA2505               2BZ
142392000142392               142392               170213HB     1400+00000+HB0000002665+0000002665+000000000+000000374+0000003030+0000000009+I20000000000+0000003030+Z
142392001142392031-005821     142392006001023667786P/FRAME-GLS CLIP 21X30 0000001000+00002630+00000+0001T   00002630+0000001244          1400 BA2510               2BZ
142392002142392112-116038     142392006009681820246TCS CARRIER BAG MIDI   0000001000+00000035+00000+0001T   00000035+0000001244          1400 BA2090               2BZ
142393000142393               142393               170213HB     1400+00000+HB0000001753+0000001753+000000000+000000246+0000001990+0000000009+I20000000000+0000001990+Z
142393001142393491-059642     142393000078257596423INTEX ARMBAND 6-12YRS  0000001000+00001753+00000+0001T   00001753+0000001245          1400 BA2787               2BZ
142394000142394               142394               170213HB     1400+00000+HB0000007628+0000007628+000000000+000001069+0000008690+0000000007+I20000000000+0000008690+Z
142394001142394079-130100     142394006003000542635A&C DIY COLOUR EYES 24P0000001000+00001490+00000+0001T   00001490+0000001249          1400 BA2130               2BZ
142394002142394079-013102     142394006003000019601ART+CRAFT DIY PIPE-CLNR0000001000+00002192+00000+0001T   00002192+0000001249          1400 BA2130               2BZ
142394003142394566-000358     142394006003000582587STICKER ROOM DECOR WORD0000001000+00003946+00000+0001T   00003946+0000001249          1400 BA2130               2BZ
142395000142395               142395               170213HB     1400+00000+HB0000002630+0000002630+000000000+000000369+0000002990+0000000009+I20000000000+0000002990+Z
142395001142395159-000684     142395006001023776532BATH BODY-GLOVE 18cm   0000001000+00002630+00000+0001T   00002630+0000001250          1400 BA2200               2BZ
142396000142396               142396               170213HB     1400+00000+HB0000001051+0000001051+000000000+000000148+0000001190+0000000009+I20000000000+0000001190+Z
142396001142396079-009702-D   142396008427973059354PAPER SIRIO A2 RED COL 0000001000+00001051+00000+0001T   00001051+0000001252          1400 BA2130               2BZ
142397000142397               142397               170213HB     1400+00000+HB0000009146+0000009146+000000000+000001283+0000010420+0000000009+I20000000000+0000010420+Z
142397001142397006-000166-D   142397006003000516490BALLOONS LRG 6PC RED   0000001000+00001314+00000+0001T   00001314+0000001254          1400 BA2131               2BZ
142397002142397006-000166-B   142397006003000516254BALLOONS LRG 6PC BLUE  0000001000+00001314+00000+0001T   00001314+0000001254          1400 BA2131               2BZ
142397003142397006-000166-D   142397006003000516490BALLOONS LRG 6PC RED   0000001000+00001314+00000+0001T   00001314+0000001254          1400 BA2131               2BZ
142397004142397077-000240     142397006003000326259G/RIBBON 4PC PEARLIZED 0000001000+00001753+00000+0001T   00001753+0000001254          1400 BA2112               2BZ
142397005142397006-000166-B   142397006003000516254BALLOONS LRG 6PC BLUE  0000001000+00001314+00000+0001T   00001314+0000001254          1400 BA2131               2BZ
142397006142397039-000034     142397006003000287420C/TAPERED 25CM M/BLUE  0000001000+00001051+00000+0001T   00001051+0000001254          1400 BA2510               2BZ
142397007142397039-000026     142397006001023551610C/TAPERED 25CM M/RED   0000001000+00001051+00000+0001T   00001051+0000001254          1400 BA2510               2BZ
142397008142397112-116038     142397006009681820246TCS CARRIER BAG MIDI   0000001000+00000035+00000+0001T   00000035+0000001254          1400 BA2090               2BZ
142398000142398               142398               170213HB     1400+00000+HB0000000437+0000000437+000000000+000000062+0000000490+0000000009+I20000000000+0000000490+Z
142398001142398080-000133-A   142398006003000647019MINI VALENTINES CARD   0000001000+00000437+00000+0001T   00000437+0000001406          1400 BA2112               2BZ
142399000142399               142399               170213HB     1400+00000+HB0000000306+0000000306+000000000+000000043+0000000340+0000000009+I20000000000+0000000340+Z
142399001142399079-009700-H   142399006003000546039PAPER SIRIO A4 EARTH   0000001000+00000306+00000+0001T   00000306+0000001406          1400 BA2130               2BZ
142400000142400               142400               170213HB     1400+00000+HB0000001753+0000001753+000000000+000000246+0000001990+0000000009+I20000000000+0000001990+Z
142400001142400028-000796-A   142400006001023897152SKEWERS BAMBOO 100P 4mm0000001000+00001753+00000+0001T   00001753+0000001412          1400 BA2305               2BZ
142401000142401               142401               170213HB     1400+00000+HB0000003507+0000003507+000000000+000000491+0000003998+0000000000+I40000003998+0000000000+Z
142401001142401105-007800     142401006002923018913STORAGE BOX CLEAR 5.5L 0000001000+00003507+00000+0001T   00003507+0000001416          1400 BA2210               2BZ
142402000142402               142402               170213HB     1400+00000+HB0000001753+0000001753+000000000+000000246+0000001999+0000000000+I40000001999+0000000000+Z
142402001142402077-000381     142402006003000247707GIFT-BAG 25X32CM S/COL 0000001000+00001753+00000+0001T   00001753+0000001422          1400 BA2112               2BZ
142403000142403               142403               170213HB     1400+00000+HB0000005260+0000005260+000000000+000000738+0000005990+0000000008+I20000000000+0000005990+Z
142403001142403079-006495     142403006003000159987GLITTER SHAKERS 6PK    0000001000+00002630+00000+0001T   00002630+0000001423          1400 BA2130               2BZ
142403002142403079-000280     142403006003000160723PAINT READYMIX 6PCE    0000001000+00002630+00000+0001T   00002630+0000001423          1400 BA2130               2BZ
142404000142404               142404               170213HB     1400+00000+HB0000002192+0000002192+000000000+000000307+0000002499+0000000000+I40000002499+0000000000+Z
142404001142404080-000127     142404006003000424351VALENTINES DAY 36x24CM 0000001000+00002192+00000+0001T   00002192+0000001424          1400 BA2112               2BZ
142405000142405               142405               170213HB     1400+00000+HB0000008785+0000008785+000000000+000001230+0000010015+0000000000+I40000010015+0000000000+Z
142405001142405007-000167     142405006009685857347SPIRAL NOTES A7 72PG   0000025000+00000350+00000+0001T   00000350+0000001432          1400 BA2130               2BZ
142405002142405112-116038     142405006009681820246TCS CARRIER BAG MIDI   0000001000+00000035+00000+0001T   00000035+0000001432          1400 BA2090               2BZ
142406000142406               142406               170213HB     1400+00000+HB0000001753+0000001753+000000000+000000246+0000001990+0000000009+I20000000000+0000001990+Z
142406001142406047-000012     142406006002521079279PLUG 1x16A+2x5A-2PIN   0000001000+00001753+00000+0001T   00001753+0000001433          1400 BA2880               2BZ
142407000142407               142407               170213HB     1400+00000+HB0000002455+0000002455+000000000+000000344+0000002790+0000000009+I20000000000+0000002790+Z
142407001142407077-000380     142407006003000247585GIFT-BAG 33X45CM S/COL 0000001000+00002455+00000+0001T   00002455+0000001434          1400 BA2112               2BZ
142408000142408               142408               170213HB     1400+00000+HB0000002541+0000002541+000000000+000000357+0000002898+0000000000+I40000002898+0000000000+Z
142408001142408077-000010-C   142408006001023123879CREPE-PAPER RED        0000001000+00000788+00000+0001T   00000788+0000001436          1400 BA2112               2BZ
142408002142408077-000382     142408006003000247820GIFT-BAG MED 18X23CM   0000001000+00001753+00000+0001T   00001753+0000001436          1400 BA2112               2BZ
142409000142409               142409               170213HB     1400+00000+HB0000006136+0000006136+000000000+000000861+0000006990+0000000007+I20000000000+0000006990+Z
142409001142409071-000013     142409006003000535354BOARD DUSTER           0000001000+00002630+00000+0001T   00002630+0000001436          1400 BA2130               2BZ
142409002142409080-000133-A   142409006003000647019MINI VALENTINES CARD   0000001000+00000437+00000+0001T   00000437+0000001436          1400 BA2112               2BZ
142409003142409077-000376     142409006003000444427GIFT-BAG 25X32CM 2PK   0000001000+00003069+00000+0001T   00003069+0000001436          1400 BA2112               2BZ
142410000142410               142410               170213HB     1400+00000+HB0000001578+0000001578+000000000+000000221+0000001790+0000000009+I20000000000+0000001790+Z
142410001142410077-000323     142410006001023677563G/BAG 25X32CM E/DAY FLO0000001000+00001578+00000+0001T   00001578+0000001437          1400 BA2112               2BZ
142411000142411               142411               170213HB     1400+00000+HB0000004997+0000004997+000000000+000000700+0000005697+0000000000+I40000005697+0000000000+Z
142411001142411018-000136     142411006001023659026MUG OCC LOVE W/PLUSH   0000001000+00003507+00000+0001T   00003507+0000001438          1400 BA2515               2BZ
142411002142411077-000304     142411006001023483232GIFT-BAG 25X32CM E/DAY 0000001000+00001490+00000+0001T   00001490+0000001438          1400 BA2112               2BZ
142412000142412               142412               170213HB     1400+00000+HB0000009953+0000009953+000000000+000001397+0000011350+0000000000+I20000000000+0000011350+Z
142412001142412077-000270     142412006003000395453GIFT-BAG PPR JMB 33X45 0000001000+00002630+00000+0001T   00002630+0000001439          1400 BA2112               2BZ
142412002142412006-000120     142412006001023346889BALLOONS 10PC MIX COL  0000001000+00001753+00000+0001T   00001753+0000001439          1400 BA2131               2BZ
142412003142412018-000135     142412006003000284474MUG OCC. DAD TUBBY     0000001000+00002630+00000+0001T   00002630+0000001439          1400 BA2515               2BZ
142412004142412565-000071     142412006003000643387NOVELTY WIND UP CHATTER0000001000+00001139+00000+0001T   00001139+0000001439          1400 BA2745               2BZ
142412005142412200-003026     142412006003000276448REFUSE BAGS 10PCE GREEN0000001000+00001753+00000+0001T   00001753+0000001439          1400 BA2214               2BZ
142412006142412112-116069     142412006009681820277TCS CARRIER BAG JUMBO  0000001000+00000048+00000+0001T   00000048+0000001439          1400 BA2090               2BZ
142413000142413               142413               170213HB     1400+00000+HB0000003507+0000003507+000000000+000000491+0000003990+0000000008+I20000000000+0000003990+Z
142413001142413018-000136     142413006001023659026MUG OCC LOVE W/PLUSH   0000001000+00003507+00000+0001T   00003507+0000001440          1400 BA2515               2BZ
142414000142414               142414               170213HB     1400+00000+HB0000009805+0000009805+000000000+000001375+0000011180+0000000000+I40000011180+0000000000+Z
142414001142414007-000551     142414006001023848079NOTE-PAD SHOP-LIST ASST0000001000+00001753+00000+0001T   00001753+0000001442          1400 BA2130               2BZ
142414002142414903-000120     142414006002099001665SWEET GS ZILLIONS 50g  0000003000+00000700+00000+0001T   00000700+0000001442          1400 BA2150               2BZ
142414003142414050-000887-TS  142414006003000688210PADLOCK COMBO 35mm 8DIG0000001000+00004385+00000+0001T   00004385+0000001442          1400 BA2855               2BZ
142414004142414903-000495     142414006006920001565SWT MS TOFFEE ORIG 38g 0000001000+00000393+00000+0001T   00000393+0000001442          1400 BA2150               2BZ
142414005142414903-000087     142414006001704000161SWT SPECKLED-EGGS 50G  0000001000+00001139+00000+0001T   00001139+0000001442          1400 BA2150               2BZ
142414006142414112-116038     142414006009681820246TCS CARRIER BAG MIDI   0000001000+00000035+00000+0001T   00000035+0000001442          1400 BA2090               2BZ
142415000142415               142415               170213HB     1400+00000+HB0000004645+0000004645+000000000+000000652+0000005290+0000000007+I20000000000+0000005290+Z
142415001142415077-000010-C   142415006001023123879CREPE-PAPER RED        0000002000+00000788+00000+0001T   00000788+0000001442          1400 BA2112               2BZ
142415002142415301-085008     142415006003000673933ORN OCC.LOVE TINSEL HRT0000001000+00003069+00000+0001T   00003069+0000001442          1400 BA2505               2BZ
142416000142416               142416               170213HB     1400+00000+HB0000011400+0000011400+000000000+000001597+0000012997+0000000000+I40000012997+0000000000+Z
142416001142416079-130010     142416006003000496624ART+CRAFT FOAM DOLLS   0000002000+00004385+00000+0001T   00004385+0000001446          1400 BA2130               2BZ
142416002142416079-000260     142416006001023886385PAINT TUBS WT BASE 4COL0000001000+00002630+00000+0001T   00002630+0000001446          1400 BA2130               2BZ
142417000142417               142417               170213HB     1400+00000+HB0000002453+0000002453+000000000+000000344+0000002797+0000000000+I40000002797+0000000000+Z
142417001142417077-000381     142417006003000247707GIFT-BAG 25X32CM S/COL 0000001000+00001753+00000+0001T   00001753+0000001447          1400 BA2112               2BZ
142417002142417018-000177     142417006001023797513MUG MINI LOVE ASSTD    0000001000+00000700+00000+0001T   00000700+0000001447          1400 BA2515               2BZ
142418000142418               142418               170213HB     1400+00000+HB0000002192+0000002192+000000000+000000307+0000002490+0000000009+I20000000000+0000002490+Z
142418001142418200-000002     142418006925406821049BAG FLIP TOP 80PCE     0000001000+00002192+00000+0001T   00002192+0000001448          1400 BA2214               2BZ
142419000142419               142419               170213HB     1400+00000+HB0000002454+0000002454+000000000+000000344+0000002798+0000000000+I40000002798+0000000000+Z
142419001142419077-000245     142419006001023759214GIFT-RIBBON METALLICx2 0000002000+00001227+00000+0001T   00001227+0000001449          1400 BA2112               2BZ
142420000142420               142420               170213HB     1400+00000+HB0000003506+0000003506+000000000+000000492+0000003998+0000000000+I40000003998+0000000000+Z
142420001142420039-000114     142420006001023524058CANDLE T/LITE RED 3.5CM0000002000+00001753+00000+0001T   00001753+0000001450          1400 BA2510               2BZ
142421000142421               142421               170213HB     1400+00000+HB0000020544+0000020544+000000000+000002880+0000023424+0000000000+I40000023424+0000000000+Z
142421001142421079-009702-D   142421008427973059354PAPER SIRIO A2 RED COL 0000002000+00001051+00000+0001T   00001051+0000001453          1400 BA2130               2BZ
142421002142421080-000127     142421006003000424351VALENTINES DAY 36x24CM 0000003000+00002192+00000+0001T   00002192+0000001453          1400 BA2112               2BZ
142421003142421112-116069     142421006009681820277TCS CARRIER BAG JUMBO  0000001000+00000048+00000+0001T   00000048+0000001453          1400 BA2090               2BZ
142421004142421079-006495     142421006003000159987GLITTER SHAKERS 6PK    0000001000+00002630+00000+0001T   00002630+0000001453          1400 BA2130               2BZ
142421005142421566-002000     142421000721129013206STICKERS CRYSTAL ASSTD 0000002000+00000700+00000+0001T   00000700+0000001453          1400 BA2130               2BZ
142421006142421071-081101-A   142421006003000326549GLUE-STICK 25g BLISTER 0000001000+00000788+00000+0001T   00000788+0000001453          1400 BA2130               2BZ
142421007142421564-000012     142421006001023130075BUBBLE BOTTLE MAGIC    0000010000+00000700+00000+0001T   00000700+0000001453          1400 BA2131               2BZ
142422000142422               142422               170213HB     1400+00000+HB0000013814+0000013814+000000000+000001936+0000015750+0000000000+I40000015750+0000000000+Z
142422001142422077-000151     142422006008766114676GIFT-WRAP C/PHANE ASSTD0000002000+00000876+00000+0001T   00000876+0000001455          1400 BA2112               2BZ
142422002142422586-091713     142422006001492917139GRLS WTCH & S/GLS SET  0000001000+00008771+00000+0001T   00008771+0000001455          1400 BA2160               2BZ
142422003142422016-006505     142422006001023617576S/JAR GLS MINI CLIP    0000001000+00001490+00000+0001T   00001490+0000001455          1400 BA2300               2BZ
142422004142422077-000240     142422006003000326259G/RIBBON 4PC PEARLIZED 0000001000+00001753+00000+0001T   00001753+0000001455          1400 BA2112               2BZ
142422005142422112-116069     142422006009681820277TCS CARRIER BAG JUMBO  0000001000+00000048+00000+0001T   00000048+0000001455          1400 BA2090               2BZ
142423000142423               142423               170213HB     1400+00000+HB0000002630+0000002630+000000000+000000369+0000002999+0000000000+I40000002999+0000000000+Z
142423001142423304-001486     142423006003000035335FLWR BUNCH ROSE        0000001000+00002630+00000+0001T   00002630+0000001457          1400 BA2510               2BZ
142424000142424               142424               170213HB     1400+00000+HB0000014911+0000014911+000000000+000002088+0000016999+0000000000+I40000016999+0000000000+Z
142424001142424031-001001     142424006003000253265P/FRAME COL FAM-TREE   0000001000+00014911+00000+0001T   00014911+0000001458          1400 BA2510               2BZ
142425000142425               142425               170213HB     1400+00000+HB0000001664+0000001664+000000000+000000234+0000001890+0000000008+I20000000000+0000001890+Z
142425001142425079-009702-D   142425008427973059354PAPER SIRIO A2 RED COL 0000001000+00001051+00000+0001T   00001051+0000001459          1400 BA2130               2BZ
142425002142425565-000044     142425006003000128280BARREL OF SLIME 100g   0000001000+00000613+00000+0001T   00000613+0000001459          1400 BA2745               2BZ
142426000142426               142426               170213HB     1400+00000+HB0000003506+0000003506+000000000+000000492+0000003990+0000000008+I20000000000+0000003990+Z
142426001142426071-001019     142426006001023474513MARKER BLACK NAME-PEN  0000001000+00000876+00000+0001T   00000876+0000001501          1400 BA2130               2BZ
142426002142426464-000110     142426006001023868824PLAYING-CARDS JUMBO    0000001000+00002630+00000+0001T   00002630+0000001501          1400 BA2785               2BZ
142427000142427               142427               170213HB     1400+00000+HB0000004385+0000004385+000000000+000000614+0000004990+0000000009+I20000000000+0000004990+Z
142427001142427031-086301-A   142427006001023910189P/FRAME PL BRONZE 10X150000001000+00004385+00000+0001T   00004385+0000001502          1400 BA2510               2BZ
142428000142428               142428               170213HB     1400+00000+HB0000001753+0000001753+000000000+000000246+0000001990+0000000009+I20000000000+0000001990+Z
142428001142428007-000043     142428006009635831496DISPLAY-BOOK PL A4 20PG0000001000+00001753+00000+0001T   00001753+0000001504          1400 BA2130               2BZ
142429000142429               142429               170213HB     1400+00000+HB0000002630+0000002630+000000000+000000369+0000002999+0000000000+I40000002999+0000000000+Z
142429001142429466-000515     142429006001023477408BALLS TENNIS BAG-OF-3  0000001000+00002630+00000+0001T   00002630+0000001507          1400 BA2785               2BZ
142430000142430               142430               170213HB     1400+00000+HB0000008767+0000008767+000000000+000001229+0000009990+0000000006+I20000000000+0000009990+Z
142430001142430560-000101     142430006001023548740ANIMALS OCEAN-IN-TUBE  0000001000+00003507+00000+0001T   00003507+0000001508          1400 BA2745               2BZ
142430002142430469-000013     142430006003000303458BUILD METAL 60PC       0000001000+00002630+00000+0001T   00002630+0000001508          1400 BA2755               2BZ
142430003142430560-000256     142430006001023831101GROWING FISH ASSTD     0000001000+00002630+00000+0001T   00002630+0000001508          1400 BA2745               2BZ
142431000142431               142431               170213HB     1400+00000+HB0000003506+0000003506+000000000+000000491+0000003997+0000000000+I40000003997+0000000000+Z
142431001142431031-000868-A   142431006001023798534P/FRAME PL BLCK 10X15CM0000001000+00002192+00000+0001T   00002192+0000001509          1400 BA2510               2BZ
142431002142431077-000407     142431006003000145096G/BAG PP 19X26X8CM     0000001000+00001314+00000+0001T   00001314+0000001509          1400 BA2112               2BZ
142432000142432               142432               170213HB     1400+00000+HB0000002454+0000002454+000000000+000000344+0000002790+0000000008+I20000000000+0000002790+Z
142432001142432206-000630     142432006003000631919SPECTACLE CLEANING BRUS0000002000+00001227+00000+0001T   00001227+0000001509          1400 BA2321               2BZ
142433000142433               142433               170213HB     1400+00000+HB0000001753+0000001753+000000000+000000246+0000001990+0000000009+I20000000000+0000001990+Z
142433001142433077-000289     142433006001023901996GIFT BOX 20x25x11cm    0000001000+00001753+00000+0001T   00001753+0000001510          1400 BA2112               2BZ
142434000142434               142434               170213HB     1400+00000+HB0000003507+0000003507+000000000+000000491+0000003990+0000000008+I20000000000+0000003990+Z
142434001142434200-000011     142434006003000613489DISPOSABLE BAG ZIPER   0000001000+00003507+00000+0001T   00003507+0000001510          1400 BA2214               2BZ
142435000142435               142435               170213HB     1400+00000+HB0000001753+0000001753+000000000+000000246+0000001990+0000000009+I20000000000+0000001990+Z
142435001142435006-000240     142435006003000460595PARTY INVITES 12PC     0000001000+00001753+00000+0001T   00001753+0000001510          1400 BA2131               2BZ
142436000142436               142436               170213HB     1400+00000+HB0000015346+0000015346+000000000+000002150+0000017490+0000000006+I20000000000+0000017490+Z
142436001142436369-000989     142436006003000127481BABY EDU MUSICAL PHONE 0000001000+00011402+00000+0001T   00011402+0000001513          1400 BA2745               2BZ
142436002142436046-000012     142436006904708013062BATTERIES AA  CARD-OF-40000001000+00001314+00000+0001T   00001314+0000001513          1400 BA2312               2BZ
142436003142436903-000592     142436006003000563777SWT CELLPHONE 12cm     0000001000+00002630+00000+0001T   00002630+0000001513          1400 BA2150               2BZ
142437000142437               142437               170213HB     1400+00000+HB0000008151+0000008151+000000000+000001144+0000009290+0000000005+I20000000000+0000009290+Z
142437001142437262-000415     142437006003000013265DIE CAST TRANSPORTERS  0000001000+00002630+00000+0001T   00002630+0000001514          1400 BA2710               2BZ
142437002142437903-000885     142437008690997017147SWT L/BIRD CHOC BISCUIT0000001000+00000437+00000+0001T   00000437+0000001514          1400 BA2150               2BZ
142437003142437903-000090     142437006009826020821SWT GS CHOCO COINS 60g 0000002000+00002104+00000+0001T   00002104+0000001514          1400 BA2150               2BZ
142437004142437366-002681     142437006003000653744DRESS UP HAT FIRE CHIEF0000001000+00000876+00000+0001T   00000876+0000001514          1400 BA2131               2BZ
142438000142438               142438               170213HB     1400+00000+HB0000001753+0000001753+000000000+000000246+0000001990+0000000009+I20000000000+0000001990+Z
142438001142438077-000382     142438006003000247820GIFT-BAG MED 18X23CM   0000001000+00001753+00000+0001T   00001753+0000001515          1400 BA2112               2BZ
142439000142439               142439               170213HB     1400+00000+HB0000014760+0000014760+000000000+000002071+0000016830+0000000001+I20000000000+0000016830+Z
142439001142439304-001011     142439006001023806727FLWR ROSE RED W/BEAR   0000001000+00000613+00000+0001T   00000788+0006471518          1400 BA2510               2BZ
142439002142439112-116069     142439006009681820277TCS CARRIER BAG JUMBO  0000001000+00000048+00000+0001T   00000048+0000001518          1400 BA2090               2BZ
142439003142439304-001011     142439006001023806727FLWR ROSE RED W/BEAR   0000023000+00000613+00000+0001T   00000788+0006471518          1400 BA2510               2BZ
142440000142440               142440               170213HB     1400+00000+HB0000003640+0000003640+000000000+000000510+0000004150+0000000000+I40000004150+0000000000+Z
142440001142440080-000127     142440006003000424351VALENTINES DAY 36x24CM 0000001000+00002192+00000+0001T   00002192+0000001522          1400 BA2112               2BZ
142440002142440018-000177     142440006001023797513MUG MINI LOVE ASSTD    0000002000+00000700+00000+0001T   00000700+0000001522          1400 BA2515               2BZ
142440003142440112-116069     142440006009681820277TCS CARRIER BAG JUMBO  0000001000+00000048+00000+0001T   00000048+0000001522          1400 BA2090               2BZ
142441000142441               142441               170213HB     1400+00000+HB0000008771+0000008771+000000000+000001228+0000009999+0000000000+I40000009999+0000000000+Z
142441001142441368-000012     142441006003000610464PLUSH BEAR 30cm SITTING0000001000+00008771+00000+0001T   00008771+0000001524          1400 BA2745               2BZ
142442000142442               142442               170213HB     1400+00000+HB0000009645+0000009645+000000000+000001351+0000010990+0000000006+I20000000000+0000010990+Z
142442001142442368-000001     142442006003000097982Plush Bear 25cm        0000001000+00004385+00000+0001T   00004385+0000001525          1400 BA2745               2BZ
142442002142442018-000130     142442006001023867537MUG OCC LOVE MINI+HEART0000001000+00003507+00000+0001T   00003507+0000001525          1400 BA2515               2BZ
142442003142442077-000308     142442006001023595812GIFT-BAG 33X45CM E/DAY 0000001000+00001753+00000+0001T   00001753+0000001525          1400 BA2112               2BZ
142443000142443               142443               170213HB     1400+00000+HB0000012278+0000012278+000000000+000001720+0000013998+0000000000+I40000013998+0000000000+Z
142443001142443368-000265     142443006001023750914PLUSH BEAR 23CM ASSTD C0000001000+00006139+00000+0001T   00006139+0000001534          1400 BA2745               2BZ
142443002142443368-000175     142443006003000270316PLUSH BEAR 4 ASSTD 18CM0000001000+00006139+00000+0001T   00006139+0000001534          1400 BA2745               2BZ
142444000142444               142444               170213HB     1400+00000+HB0000014336+0000014336+000000000+000002010+0000016346+0000000000+I40000016346+0000000000+Z
142444001142444903-000090     142444006009826020821SWT GS CHOCO COINS 60g 0000002000+00002104+00000+0001T   00002104+0000001536          1400 BA2150               2BZ
142444002142444077-000300     142444006001023483249GIFT BOX OCCASIONS HEXG0000003000+00002192+00000+0001T   00002192+0000001536          1400 BA2112               2BZ
142444003142444366-007601     142444006003000655472DRESS UP MASK THEATRICA0000004000+00000876+00000+0001T   00000876+0000001536          1400 BA2131               2BZ
142444004142444112-116069     142444006009681820277TCS CARRIER BAG JUMBO  0000001000+00000048+00000+0001T   00000048+0000001536          1400 BA2090               2BZ
142445000142445               142445               170213HB     1400+00000+HB0000015167+0000015167+000000000+000002125+0000017292+0000000000+I40000017292+0000000000+Z
142445001142445206-000630     142445006003000631919SPECTACLE CLEANING BRUS0000001000+00001227+00000+0001T   00001227+0000001538          1400 BA2321               2BZ
142445002142445048-000870     142445006003000525287LANTERN B/LIGHT MINI   0000001000+00003507+00000+0001T   00003507+0000001538          1400 BA2305               2BZ
142445003142445089-000220     142445006003000677368KEY CHAIN+PEN+KNIFE    0000001000+00003069+00000+0001T   00003069+0000001538          1400 BA2205               2BZ
142445004142445077-000512     142445006003000590223GIFT-BAG DESIGNER LRG  0000001000+00002630+00000+0001T   00002630+0000001538          1400 BA2112               2BZ
142445005142445048-000870     142445006003000525287LANTERN B/LIGHT MINI   0000001000+00003507+00000+0001T   00003507+0000001538          1400 BA2305               2BZ
142445006142445206-000630     142445006003000631919SPECTACLE CLEANING BRUS0000001000+00001227+00000+0001T   00001227+0000001538          1400 BA2321               2BZ
142446000142446               142446               170213HB     1400+00000+HB0000003152+0000003152+000000000+000000444+0000003590+0000000006+I20000000000+0000003590+Z
142446001142446077-000383     142446006003000247943GIFT-BAG 11X14CM S/COL 0000004000+00000788+00000+0001T   00000788+0000001538          1400 BA2112               2BZ
142447000142447               142447               170213HB     1400+00000+HB0000006664+0000006664+000000000+000000934+0000007598+0000000000+I40000007598+0000000000+Z
142447001142447105-000750     142447006003000190270CONTAINERS 4xMINI 150ml0000001000+00001402+00000+0001T   00001402+0000001540          1400 BA2210               2BZ
142447002142447361-000113     142447006001023680204DOLL 30cm RAG          0000001000+00005262+00000+0001T   00005262+0000001540          1400 BA2725               2BZ
142448000142448               142448               170213HB     1400+00000+HB0000002630+0000002630+000000000+000000369+0000002990+0000000009+I20000000000+0000002990+Z
142448001142448206-000450     142448006003000619863DRINKING JAR GLOBE     0000001000+00002630+00000+0001T   00002630+0000001540          1400 BA2321               2BZ
142449000142449               142449               170213HB     1400+00000+HB0000003946+0000003946+000000000+000000553+0000004499+0000000000+I40000004499+0000000000+Z
142449001142449031-000874-A   142449006001023798800P/FRAME WDN P/BOX 10X150000001000+00003946+00000+0001T   00003946+0000001541          1400 BA2510               2BZ
142450000142450               142450               170213HB     1400+00000+HB0000006186+0000006186+000000000+000000867+0000007053+0000000000+I40000007053+0000000000+Z
142450001142450105-001028     142450006003000675470LUNCH BOX W/CLIPS      0000002000+00003069+00000+0001T   00003069+0000001543          1400 BA2210               2BZ
142450002142450112-116069     142450006009681820277TCS CARRIER BAG JUMBO  0000001000+00000048+00000+0001T   00000048+0000001543          1400 BA2090               2BZ
142451000142451               142451               170213HB     1400+00000+HB0000008806+0000008806+000000000+000001233+0000010039+0000000000+I40000010039+0000000000+Z
142451001142451001-091415     142451006003000329113W/GLS OCC. LOVE 2PC 2800000001000+00008771+00000+0001T   00009648+0006471544          1400 BA2515               2BZ
142451002142451112-116038     142451006009681820246TCS CARRIER BAG MIDI   0000001000+00000035+00000+0001T   00000035+0000001544          1400 BA2090               2BZ
142452000142452               142452               170213HB     1400+00000+HB0000003277+0000003277+000000000+000000460+0000003730+0000000007+I20000000000+0000003730+Z
142452001142452103-000051     142452006003000676255BAMBOO BASKET SQUARE   0000001000+00001753+00000+0001T   00001753+0000001545          1400 BA2300               2BZ
142452002142452077-000150-D   142452006003000054343GIFT-WRAP CELLPHANE CLR0000001000+00000876+00000+0001T   00000876+0000001545          1400 BA2112               2BZ
142452003142452077-000311     142452006001023608666GIFT-BAG 11X14CM GLOSS 0000001000+00000613+00000+0001T   00000613+0000001545          1400 BA2112               2BZ
142452004142452112-116038     142452006009681820246TCS CARRIER BAG MIDI   0000001000+00000035+00000+0001T   00000035+0000001545          1400 BA2090               2BZ
142453000142453               142453               170213HB     1400+00000+HB0000008819+0000008819+000000000+000001235+0000010050+0000000004+I20000000000+0000010050+Z
142453001142453368-000614     142453006001023705808PLUSH LOVE 30cm        0000001000+00008771+00000+0001T   00008771+0000001546          1400 BA2745               2BZ
142453002142453112-116069     142453006009681820277TCS CARRIER BAG JUMBO  0000001000+00000048+00000+0001T   00000048+0000001546          1400 BA2090               2BZ
142454000142454               142454               170213HB     1400+00000+HB0000008765+0000008765+000000000+000001230+0000009990+0000000005+I20000000000+0000009990+Z
142454001142454079-003000     142454006003000448838A/TUBE 75ML WHITE      0000001000+00001753+00000+0001T   00001753+0000001548          1400 BA2130               2BZ
142454002142454079-003002     142454006003000447886A/TUBE 75ML RED        0000001000+00001753+00000+0001T   00001753+0000001548          1400 BA2130               2BZ
142454003142454079-003001     142454006003000448951A/TUBE 75ML BLACK      0000001000+00001753+00000+0001T   00001753+0000001548          1400 BA2130               2BZ
142454004142454079-003010     142454006003000448845A/TUBE 75ML YELLOW     0000001000+00001753+00000+0001T   00001753+0000001548          1400 BA2130               2BZ
142454005142454079-000275     142454006003000160488PAINT-BRUSHES 6PCE PRO 0000001000+00001753+00000+0001T   00001753+0000001548          1400 BA2130               2BZ
142455000142455               142455               170213HB     1400+00000+HB0000007890+0000007890+000000000+000001107+0000008997+0000000000+I40000008997+0000000000+Z
142455001142455039-081008     142455006008766081008CANDLES 9PCE SCENTED   0000001000+00002630+00000+0001T   00002630+0000001550          1400 BA2510               2BZ
142455002142455108-003023     142455006003000665471TUMBLER W/STRAW 550ml  0000002000+00002630+00000+0001T   00002630+0000001550          1400 BA2210               2BZ
142456000142456               142456               170213HB     1400+00000+HB0000000876+0000000876+000000000+000000123+0000000990+0000000009+I20000000000+0000000990+Z
142456001142456306-000023     142456006001023606976COTTON-WOOL-BALLS 50PCE0000001000+00000876+00000+0001T   00000876+0000001550          1400 BA2200               2BZ
142457000142457               142457               170213HB     1400+00000+HB0000001051+0000001051+000000000+000000148+0000001190+0000000009+I20000000000+0000001190+Z
142457001142457079-009702-C   142457008427973059309PAPER SIRIO A2 VIOLET  0000001000+00001051+00000+0001T   00001051+0000001551          1400 BA2130               2BZ
142458000142458               142458               170213HB     1400+00000+HB0000003540+0000003540+000000000+000000496+0000004030+0000000006+I20000000000+0000004030+Z
142458001142458077-000312     142458006001023608697GIFT-BAG 10X35CM GLOSS 0000001000+00001314+00000+0001T   00001314+0000001553          1400 BA2112               2BZ
142458002142458304-001011     142458006001023806727FLWR ROSE RED W/BEAR   0000001000+00000613+00000+0001T   00000788+0006471553          1400 BA2510               2BZ
142458003142458018-000127     142458006001023380289MUG OCC STRAIGHT LOVE  0000001000+00001578+00000+0001T   00001753+0006471553          1400 BA2515               2BZ
142458004142458112-116038     142458006009681820246TCS CARRIER BAG MIDI   0000001000+00000035+00000+0001T   00000035+0000001553          1400 BA2090               2BZ
142459000142459               142459               170213HB     1400+00000+HB0000013192+0000013192+000000000+000001847+0000015039+0000000000+I40000015039+0000000000+Z
142459001142459203-005005     142459006003000088577GAME-TOWER W/4 GLASSES 0000001000+00013157+00000+0001T   00013157+0000001554          1400 BA2300               2BZ
142459002142459112-116038     142459006009681820246TCS CARRIER BAG MIDI   0000001000+00000035+00000+0001T   00000035+0000001554          1400 BA2090               2BZ
142460000142460               142460               170213HB     1400+00000+HB0000002630+0000002630+000000000+000000369+0000002999+0000000000+I40000002999+0000000000+Z
142460001142460105-006004     142460006002580007763CANNISTER 3PCE    250ml0000001000+00002630+00000+0001T   00002630+0000001555          1400 BA2210               2BZ
142461000142461               142461               170213HB     1400+00000+HB0000003069+0000003069+000000000+000000430+0000003499+0000000000+I40000003499+0000000000+Z
142461001142461024-000212     142461006001023858030COOKIE-CUTTERS PL SMALL0000001000+00003069+00000+0001T   00003069+0000001603          1400 BA2300               2BZ
142462000142462               142462               170213HB     1400+00000+HB0000006136+0000006136+000000000+000000861+0000006990+0000000007+I20000000000+0000006990+Z
142462001142462006-006018     142462006001023735256PARTY-SPRAY HAIR ASSORT0000002000+00002630+00000+0001T   00002630+0000001605          1400 BA2131               2BZ
142462002142462033-010720     142462006001023678645SAFETY-PINS 50PCE SMALL0000001000+00000876+00000+0001T   00000876+0000001605          1400 BA2200               2BZ
142463000142463               142463               170213HB     1400+00000+HB0000012313+0000012313+000000000+000001724+0000014037+0000000000+I40000014037+0000000000+Z
142463001142463018-000130     142463006001023867537MUG OCC LOVE MINI+HEART0000001000+00003507+00000+0001T   00003507+0000001606          1400 BA2515               2BZ
142463002142463001-091415     142463006003000329113W/GLS OCC. LOVE 2PC 2800000001000+00008771+00000+0001T   00009648+0006471606          1400 BA2515               2BZ
142463003142463112-116038     142463006009681820246TCS CARRIER BAG MIDI   0000001000+00000035+00000+0001T   00000035+0000001606          1400 BA2090               2BZ
142464000142464               142464               170213HB     1400+00000+HB0000020221+0000020221+000000000+000002832+0000023053+0000000000+I40000023053+0000000000+Z
142464001142464112-116069     142464006009681820277TCS CARRIER BAG JUMBO  0000001000+00000048+00000+0001T   00000048+0000001609          1400 BA2090               2BZ
142464002142464368-000637     142464006001023874092PLUSH BEAR SLEEPING LOV0000001000+00011402+00000+0001T   00012279+0006471609          1400 BA2745               2BZ
142464003142464368-000012     142464006003000610464PLUSH BEAR 30cm SITTING0000001000+00008771+00000+0001T   00008771+0000001609          1400 BA2745               2BZ
142465000142465               142465               170213HB     1400+00000+HB0000007014+0000007014+000000000+000000982+0000007996+0000000000+I40000007996+0000000000+Z
142465001142465567-011344     142465006003000630714BK COLOURING THERAPY 640000001000+00003507+00000+0001T   00003507+0000001610          1400 BA2757               2BZ
142465002142465072-020266     142465006003000400591PET PUPPY TRAINING PAD 0000001000+00003507+00000+0001T   00003507+0000001610          1400 BA2870               2BZ
142466000142466               142466               170213HB     1400+00000+HB0000005785+0000005785+000000000+000000812+0000006590+0000000007+I20000000000+0000006590+Z
142466001142466018-000129     142466006001023403353MUG OCC. LOVE V-SHAPE  0000001000+00002630+00000+0001T   00002630+0000001613          1400 BA2515               2BZ
142466002142466007-010496     142466006003000640652MARKER WHITEBOARD 4PCE 0000001000+00001753+00000+0001T   00001753+0000001613          1400 BA2130               2BZ
142466003142466304-001204     142466006001023737984FLOWER OCC. TEDDY/ROSES0000001000+00001402+00000+0001T   00001490+0006471613          1400 BA2510               2BZ
142467000142467               142467               170213HB     1400+00000+HB0000008769+0000008769+000000000+000001229+0000009990+0000000008+I20000000000+0000009990+Z
142467001142467019-071601     142467006001023771995RIVER-STONES 1kg WHITE 0000001000+00002630+00000+0001T   00002630+0000001614          1400 BA2510               2BZ
142467002142467004-071272     142467006001023855343DVD-DISC WRITABLE DR-100000001000+00006139+00000+0001T   00006139+0000001614          1400 BA2310               2BZ
142468000142468               142468               170213HB     1400+00000+HB0000006174+0000006174+000000000+000000865+0000007039+0000000000+I40000007039+0000000000+Z
142468001142468039-000798     142468006001023617774CANDLES TEALITE BOX-50 0000001000+00006139+00000+0001T   00006139+0000001617          1400 BA2510               2BZ
142468002142468112-116038     142468006009681820246TCS CARRIER BAG MIDI   0000001000+00000035+00000+0001T   00000035+0000001617          1400 BA2090               2BZ
142469000142469               142469               170213HB     1400+00000+HB0000001753+0000001753+000000000+000000246+0000001990+0000000009+I20000000000+0000001990+Z
142469001142469077-000373     142469006003000395217G/BAG MED 18X23CM DESGN0000001000+00001753+00000+0001T   00001753+0000001618          1400 BA2112               2BZ
142470000142470               142470               170213HB     1400+00000+HB0000001753+0000001753+000000000+000000246+0000001990+0000000009+I20000000000+0000001990+Z
142470001142470080-000115     142470006003000237333CARD&ENVELOPE - BLANKS 0000001000+00001753+00000+0001T   00001753+0000001621          1400 BA2112               2BZ
142471000142471               142471               170213HB     1400+00000+HB0000003769+0000003769+000000000+000000529+0000004290+0000000008+I20000000000+0000004290+Z
142471001142471903-000087     142471006001704000161SWT SPECKLED-EGGS 50G  0000001000+00001139+00000+0001T   00001139+0000001622          1400 BA2150               2BZ
142471002142471007-000327     142471006009699513406PAPER A4 80GSM WHT 100 0000001000+00002630+00000+0001T   00002630+0000001622          1400 BA2130               2BZ
142472000142472               142472               170213HB     1400+00000+HB0000000876+0000000876+000000000+000000123+0000000990+0000000009+I20000000000+0000000990+Z
142472001142472028-000797     142472006001023812124SKEWERS 15cm 100PCE    0000001000+00000876+00000+0001T   00000876+0000001631          1400 BA2305               2BZ
142473000142473               142473               170213HB     1400+00000+HB0000001752+0000001752+000000000+000000246+0000001990+0000000008+I20000000000+0000001990+Z
142473001142473039-000319-2   142473006003000442508B/CANDLES LRG NUMBER-2 0000001000+00000876+00000+0001T   00000876+0000001632          1400 BA2510               2BZ
142473002142473039-000319-8   142473006003000443222B/CANDLES LRG NUMBER-8 0000001000+00000876+00000+0001T   00000876+0000001632          1400 BA2510               2BZ
142474000142474               142474               170213HB     1400+00000+HB0000021951+0000021951+000000000+000003076+0000025027+0000000000+I40000025027+0000000000+Z
142474001142474112-116069     142474006009681820277TCS CARRIER BAG JUMBO  0000001000+00000048+00000+0001T   00000048+0000001639          1400 BA2090               2BZ
142474002142474079-013032-D   142474006003000389643RIBBONS                0000001000+00002630+00000+0001T   00002630+0000001639          1400 BA2130               2BZ
142474003142474079-013032     142474006003000389209SET LETTERS 2 ASSTD    0000002000+00001753+00000+0001T   00001753+0000001639          1400 BA2130               2BZ
142474004142474566-002000     142474000721129013206STICKERS CRYSTAL ASSTD 0000003000+00000700+00000+0001T   00000700+0000001639          1400 BA2130               2BZ
142474005142474007-000324     14247400600968585864125 SHEETS BRIGHTS MARLI0000002000+00003507+00000+0001T   00003507+0000001639          1400 BA2130               2BZ
142474006142474466-000103     142474000681070950312BALL 20cm ASSTD        0000001000+00001753+00000+0001T   00001753+0000001639          1400 BA2785               2BZ
142474007142474018-000177     142474006001023797513MUG MINI LOVE ASSTD    0000007000+00000700+00000+0001T   00000700+0000001639          1400 BA2515               2BZ
142475000142475               142475               170213HB     1400+00000+HB0000022848+0000022848+000000000+000003202+0000026050+0000000000+I40000026050+0000000000+Z
142475001142475368-000111     142475006001023780812PLUSH BEAR/DOG 29CM    0000001000+00012279+00000+0001T   00012279+0000001641          1400 BA2745               2BZ
142475002142475368-000001     142475006003000097982Plush Bear 25cm        0000001000+00004385+00000+0001T   00004385+0000001641          1400 BA2745               2BZ
142475003142475077-000270     142475006003000395453GIFT-BAG PPR JMB 33X45 0000001000+00002630+00000+0001T   00002630+0000001641          1400 BA2112               2BZ
142475004142475077-000455     142475006003000285389G/BAG METALLIC LRG SOL 0000001000+00001753+00000+0001T   00001753+0000001641          1400 BA2112               2BZ
142475005142475112-116069     142475006009681820277TCS CARRIER BAG JUMBO  0000001000+00000048+00000+0001T   00000048+0000001641          1400 BA2090               2BZ
142475006142475077-000011-X   142475006001023809827TISSUE-WRAP SILVER 10PC0000001000+00001753+00000+0001T   00001753+0000001641          1400 BA2112               2BZ
142476000142476               142476               170213HB     1400+00000+HB0000021252+0000021252+000000000+000002978+0000024230+0000000000+I40000024230+0000000000+Z
142476001142476039-000100     14247600600300060614625CM WHITE CANDLE 6PC  0000001000+00002630+00000+0001T   00002630+0000001647          1400 BA2510               2BZ
142476002142476039-000799     142476006001023692382CANDLES TEALITE 100PCE 0000001000+00008771+00000+0001T   00008771+0000001647          1400 BA2510               2BZ
142476003142476040-000212     142476006003000112418C/HOLDER RND T-LITE 6CM0000004000+00001227+00000+0001T   00001227+0000001647          1400 BA2510               2BZ
142476004142476040-000213     142476006001023617736CANDLE-HOLDER DAISY    0000004000+00001227+00000+0001T   00001227+0000001647          1400 BA2510               2BZ
142476005142476112-116038     142476006009681820246TCS CARRIER BAG MIDI   0000001000+00000035+00000+0001T   00000035+0000001647          1400 BA2090               2BZ
142477000142477               142477               170213HB     1400+00000+HB0000003945+0000003945+000000000+000000553+0000004490+0000000008+I20000000000+0000004490+Z
142477001142477077-000011-D   142477006001023808554TISSUE-WRAP WHITE 10PCE0000001000+00000876+00000+0001T   00000876+0000001647          1400 BA2112               2BZ
142477002142477077-000376     142477006003000444427GIFT-BAG 25X32CM 2PK   0000001000+00003069+00000+0001T   00003069+0000001647          1400 BA2112               2BZ
142478000142478               142478               170213HB     1400+00000+HB0000004207+0000004207+000000000+000000589+0000004790+0000000006+I20000000000+0000004790+Z
142478001142478018-000136     142478006001023659026MUG OCC LOVE W/PLUSH   0000001000+00003507+00000+0001T   00003507+0000001648          1400 BA2515               2BZ
142478002142478018-000177     142478006001023797513MUG MINI LOVE ASSTD    0000001000+00000700+00000+0001T   00000700+0000001648          1400 BA2515               2BZ
142479000142479               142479               170213HB     1400+00000+HB0000003542+0000003542+000000000+000000496+0000004030+0000000008+I20000000000+0000004030+Z
142479001142479112-116038     142479006009681820246TCS CARRIER BAG MIDI   0000001000+00000035+00000+0001T   00000035+0000001650          1400 BA2090               2BZ
142479002142479103-000090     142479006001023795786WOVEN HEART SHAPED     0000001000+00003507+00000+0001T   00003507+0000001650          1400 BA2300               2BZ
142480000142480               142480               170213HB     1400+00000+HB0000017304+0000017304+000000000+000002427+0000019731+0000000000+I40000019731+0000000000+Z
142480001142480024-091103     142480006003453014307BAKING-CUP MUFFIN 50PCE0000001000+00002192+00000+0001T   00002192+0000001700          1400 BA2300               2BZ
142480002142480071-005214     142480006003000152544CELLOTAPE SUPER REFILL 0000001000+00001490+00000+0001T   00001490+0000001700          1400 BA2130               2BZ
142480003142480112-116038     142480006009681820246TCS CARRIER BAG MIDI   0000001000+00000035+00000+0001T   00000035+0000001700          1400 BA2090               2BZ
142480004142480077-000201     142480006003000152612GIFT-BOX WEDDING PVC   0000002000+00002630+00000+0001T   00002630+0000001700          1400 BA2112               2BZ
142480005142480079-006525     142480006003000681938MASKING FABRIC 10PC    0000002000+00002630+00000+0001T   00002630+0000001700          1400 BA2130               2BZ
142480006142480024-091103-C   142480006003000596546CAKE BOX 2PC HLDS-6-C/C0000001000+00001314+00000+0001T   00001753+0008121700          1400 BA2300               2BZ
142480007142480077-000011-X   142480006001023809827TISSUE-WRAP SILVER 10PC0000001000+00001753+00000+0001T   00001753+0000001700          1400 BA2112               2BZ
142481000142481               142481               170213HB     1400+00000+HB0000018466+0000018466+000000000+000002587+0000021053+0000000000+I40000021053+0000000000+Z
142481001142481006-000104     142481006001023990112BALLOONS 40PC AIR PUMP 0000001000+00002630+00000+0001T   00002630+0000001702          1400 BA2131               2BZ
142481002142481262-000417     142481006003000471508DIE CAST TRUCK 35cm    0000001000+00015788+00000+0001T   00015788+0000001702          1400 BA2710               2BZ
142481003142481112-116069     142481006009681820277TCS CARRIER BAG JUMBO  0000001000+00000048+00000+0001T   00000048+0000001702          1400 BA2090               2BZ
142482000142482               142482               170213HB     1400+00000+HB0000004418+0000004418+000000000+000000620+0000005038+0000000000+I40000005038+0000000000+Z
142482001142482072-020300     142482006008632000430DOG-TOY TUG-A-BALL SML 0000001000+00002630+00000+0001T   00002630+0000001713          1400 BA2870               2BZ
142482002142482565-000888     142482006003000607846NOVELTY MESH BALL      0000001000+00001753+00000+0001T   00001753+0000001713          1400 BA2745               2BZ
142482003142482112-116038     142482006009681820246TCS CARRIER BAG MIDI   0000001000+00000035+00000+0001T   00000035+0000001713          1400 BA2090               2BZ
142483000142483               142483               170213HB     1400+00000+HB0000003507+0000003507+000000000+000000491+0000003998+0000000000+I40000003998+0000000000+Z
142483001142483108-001216     142483006003000010882SALAD BOWL PL 4.9L     0000001000+00003507+00000+0001T   00003507+0000001714          1400 BA2210               2BZ
142484000142484               142484               170213HB     1400+00000+HB0000006398+0000006398+000000000+000000897+0000007295+0000000000+I40000007295+0000000000+Z
142484001142484004-071206     142484006003000605156USB CABLE CHARGER      0000001000+00003507+00000+0001T   00003507+0000001715          1400 BA2310               2BZ
142484002142484077-000150-D   142484006003000054343GIFT-WRAP CELLPHANE CLR0000002000+00000876+00000+0001T   00000876+0000001715          1400 BA2112               2BZ
142484003142484903-000087     142484006001704000161SWT SPECKLED-EGGS 50G  0000001000+00001139+00000+0001T   00001139+0000001715          1400 BA2150               2BZ
142485000142485               142485               170213HB     1400+00000+HB0000002366+0000002366+000000000+000000332+0000002698+0000000000+I40000002698+0000000000+Z
142485001142485077-000010-Z   142485006001023157874CREPE-PAPER BLK/ORG/PUR0000001000+00000788+00000+0001T   00000788+0000001716          1400 BA2112               2BZ
142485002142485077-000315     142485006003000181186GIFT-BAG 20x28cm MATT  0000001000+00001578+00000+0001T   00001578+0000001716          1400 BA2112               2BZ
142486000142486               142486               170213HB     1400+00000+HB0000001139+0000001139+000000000+000000160+0000001290+0000000009+I20000000000+0000001290+Z
142486001142486162-097715     142486006001492977157#TAG NEW COLOUR E/PIERC0000001000+00001139+00000+0001T   00001139+0000001718          1400 BA2160               2BZ
142487000142487               142487               170213HB     1400+00000+HB0000018410+0000018410+000000000+000002583+0000020993+0000000000+I40000020993+0000000000+Z
142487001142487006-006013     142487006001023735195PARTY-SPRAY STRING     0000002000+00002630+00000+0001T   00002630+0000001722          1400 BA2131               2BZ
142487002142487006-006018     142487006001023735256PARTY-SPRAY HAIR ASSORT0000001000+00002630+00000+0001T   00002630+0000001722          1400 BA2131               2BZ
142487003142487159-000800     142487006001023167972BATHMAT ANTI-SLIP      0000003000+00002630+00000+0001T   00002630+0000001722          1400 BA2200               2BZ
142487004142487159-000020     142487006001023905543HAIR DRYING MICROFIBRE 0000001000+00002630+00000+0001T   00002630+0000001722          1400 BA2200               2BZ
142488000142488               142488               170213HB     1400+00000+HB0000005260+0000005260+000000000+000000738+0000005998+0000000000+I40000005998+0000000000+Z
142488001142488006-006018     142488006001023735256PARTY-SPRAY HAIR ASSORT0000002000+00002630+00000+0001T   00002630+0000001732          1400 BA2131               2BZ
142489000142489               142489               170213HB     1400+00000+HB0000001753+0000001753+000000000+000000246+0000001999+0000000000+I40000001999+0000000000+Z
142489001142489077-000116     142489006003000240777GIFT-WRAP 700mmx2m COL 0000001000+00001753+00000+0001T   00001753+0000001733          1400 BA2112               2BZ
142490000142490               142490               170213HB     1400+00000+HB0000010572+0000010572+000000000+000001481+0000012053+0000000000+I40000012053+0000000000+Z
142490001142490368-000614     142490006001023705808PLUSH LOVE 30cm        0000001000+00008771+00000+0001T   00008771+0000001735          1400 BA2745               2BZ
142490002142490077-000381     142490006003000247707GIFT-BAG 25X32CM S/COL 0000001000+00001753+00000+0001T   00001753+0000001735          1400 BA2112               2BZ
142490003142490112-116069     142490006009681820277TCS CARRIER BAG JUMBO  0000001000+00000048+00000+0001T   00000048+0000001735          1400 BA2090               2BZ
142491000142491               142491               170213HB     1400+00000+HB0000009152+0000009152+000000000+000001284+0000010436+0000000000+I40000010436+0000000000+Z
142491001142491006-000323-A   142491006001023739452CONFETTI SLVR/GLD 3PACK0000001000+00002630+00000+0001T   00002630+0000001736          1400 BA2131               2BZ
142491002142491039-000026     142491006001023551610C/TAPERED 25CM M/RED   0000002000+00001051+00000+0001T   00001051+0000001736          1400 BA2510               2BZ
142491003142491039-000796     142491006001023617750CANDLES TEALITE BOX-8  0000001000+00004385+00000+0001T   00004385+0000001736          1400 BA2510               2BZ
142491004142491112-116038     142491006009681820246TCS CARRIER BAG MIDI   0000001000+00000035+00000+0001T   00000035+0000001736          1400 BA2090               2BZ
142492000142492               142492               170213HB     1400+00000+HB0000002628+0000002628+000000000+000000368+0000002990+0000000006+I20000000000+0000002990+Z
142492001142492007-000209     142492006001023582102NOTE STICKY FILE MARKER0000001000+00001314+00000+0001T   00001314+0000001737          1400 BA2130               2BZ
142492002142492007-000044     142492006009635831489DISPLAY-BOOK A4 10-PAGE0000001000+00001314+00000+0001T   00001314+0000001737          1400 BA2130               2BZ
142493000142493               142493               170213HB     1400+00000+HB0000013205+0000013205+000000000+000001849+0000015054+0000000000+I40000015054+0000000000+Z
142493001142493031-001002     142493006003000253142P/FRAME COLLAGE 68X35CM0000001000+00013157+00000+0001T   00013157+0000001739          1400 BA2510               2BZ
142493002142493112-116069     142493006009681820277TCS CARRIER BAG JUMBO  0000001000+00000048+00000+0001T   00000048+0000001739          1400 BA2090               2BZ
142494000142494               142494               170213HB     1400+00000+HB0000008770+0000008770+000000000+000001228+0000009998+0000000000+I40000009998+0000000000+Z
142494001142494104-000135     142494006001023846419WASTEBIN SWING-LID 28cm0000002000+00004385+00000+0001T   00004385+0000001743          1400 BA2210               2BZ
142495000142495               142495               170213HB     1400+00000+HB0000006173+0000006173+000000000+000000865+0000007038+0000000000+I40000007038+0000000000+Z
142495001142495080-000112     142495006003000252749CARD&ENVLP BDAY-MUSICAL0000001000+00001753+00000+0001T   00001753+0000001745          1400 BA2112               2BZ
142495002142495018-030000     142495006003000421060MUG OCCASIONS LOVE 2PCE0000001000+00004385+00000+0001T   00004385+0000001745          1400 BA2515               2BZ
142495003142495112-116038     142495006009681820246TCS CARRIER BAG MIDI   0000001000+00000035+00000+0001T   00000035+0000001745          1400 BA2090               2BZ
142496000142496               142496               170213HB     1400+00000+HB0000001753+0000001753+000000000+000000246+0000001990+0000000009+I20000000000+0000001990+Z
142496001142496077-000382     142496006003000247820GIFT-BAG MED 18X23CM   0000001000+00001753+00000+0001T   00001753+0000001746          1400 BA2112               2BZ
142497000142497               142497               170213HB     1400+00000+HB0000005699+0000005699+000000000+000000799+0000006498+0000000000+I40000006498+0000000000+Z
142497001142497104-000035     142497006003000614752BASKET PL 29x10x31cm   0000001000+00003069+00000+0001T   00003069+0000001759          1400 BA2210               2BZ
142497002142497106-008100     142497006001023764126MEASURING-SHAKER 500ml 0000001000+00002630+00000+0001T   00002630+0000001759          1400 BA2210               2BZ
142498000142498               142498               170213HB     1400+00000+HB0000005262+0000005262+000000000+000000737+0000005999+0000000000+I40000005999+0000000000+Z
142498001142498024-000168-B   142498006003000674916T/PLATE BAKEWARE ROASTE0000001000+00005262+00000+0001T   00005262+0000001800          1400 BA2300               2BZ
142499000142499               142499               170213HB     1400+00000+HB0000013815+0000013815+000000000+000001936+0000015751+0000000000+I40000015751+0000000000+Z
142499001142499077-000010-C   142499006001023123879CREPE-PAPER RED        0000001000+00000788+00000+0001T   00000788+0000001801          1400 BA2112               2BZ
142499002142499077-000381     142499006003000247707GIFT-BAG 25X32CM S/COL 0000001000+00001753+00000+0001T   00001753+0000001801          1400 BA2112               2BZ
142499003142499030-004015     142499006003000467624PLAQUE WDN SIGN 30X20CM0000001000+00009648+00000+0001T   00009648+0000001801          1400 BA2505               2BZ
142499004142499080-000124     142499006003000297733CARD & ENV VALENTINES  0000001000+00001578+00000+0001T   00001578+0000001801          1400 BA2112               2BZ
142499005142499112-116069     142499006009681820277TCS CARRIER BAG JUMBO  0000001000+00000048+00000+0001T   00000048+0000001801          1400 BA2090               2BZ
142500000142500               142500               170213HB     1400+00000+HB0000011447+0000011447+000000000+000001605+0000013052+0000000000+I40000013052+0000000000+Z
142500001142500466-000515     142500006001023477408BALLS TENNIS BAG-OF-3  0000001000+00002630+00000+0001T   00002630+0000001802          1400 BA2785               2BZ
142500002142500079-011520     142500006003000160549ART+CRAFT SET SAND BOTL0000001000+00007016+00000+0001T   00007893+0008191802          1400 BA2130               2BZ
142500003142500077-000354     142500006003000139224GIFT-BAG 25X32CM H/MADE0000001000+00001753+00000+0001T   00001753+0000001802          1400 BA2112               2BZ
142500004142500112-116069     142500006009681820277TCS CARRIER BAG JUMBO  0000001000+00000048+00000+0001T   00000048+0000001802          1400 BA2090               2BZ
142501000142501               142501               170213HB     1400+00000+HB0000003331+0000003331+000000000+000000467+0000003798+0000000000+I40000003798+0000000000+Z
142501001142501039-001023     142501006003000466337CANDLE TEA-LITE METALIC0000001000+00001753+00000+0001T   00001753+0000001803          1400 BA2510               2BZ
142501002142501077-000315     142501006003000181186GIFT-BAG 20x28cm MATT  0000001000+00001578+00000+0001T   00001578+0000001803          1400 BA2112               2BZ
142502000142502               142502               170213HB     1400+00000+HB0000002977+0000002977+000000000+000000419+0000003396+0000000000+I40000003396+0000000000+Z
142502001142502080-000133     142502006003000535613CARD&ENV MINI ASTD DSGN0000001000+00000437+00000+0001T   00000437+0000001805          1400 BA2112               2BZ
142502002142502080-000133-A   142502006003000647019MINI VALENTINES CARD   0000001000+00000437+00000+0001T   00000437+0000001805          1400 BA2112               2BZ
142502003142502077-000239     142502006003000160419GIFT-RIBBON ROLL PEARL 0000001000+00001753+00000+0001T   00001753+0000001805          1400 BA2112               2BZ
142502004142502007-000104     142502006009685854865BK COVER BRWN KRFT ROLL0000001000+00000350+00000+0001T   00000350+0000001805          1400 BA2130               2BZ
142503000142503               142503               170213HB     1400+00000+HB0000004385+0000004385+000000000+000000614+0000004990+0000000009+I20000000000+0000004990+Z
142503001142503366-000356     142503006003000006908DRESS UP WINGS FAIRY   0000001000+00004385+00000+0001T   00004385+0000001808          1400 BA2131               2BZ
A17021300                                          11265658HBSLAVE 2                       BA23IC
A17021301                                          16433467HBSLAVE 2                       BA23IC
A17021302                                          17182921HBSLAVE 2                       BA21IC
M17021301                              IT          HBATT                                             LAST SLIP NUMBER FOR SLAVE 2                    142502                                          THANK YOU HB
M17021391                              CASH        HBSLAVE 2                       Z-REPORT No.   607TOTAL (Sales - Refunds)           9464.77       CASH TO BE BANKED                 2981.40       DEBIT CARDS                          0.00       CREDIT CARDS                      6483.37       Z-READING                         9464.77       AIRTIME DEBIT CARD SALES             0.00       AIRTIME CARD SALES                   0.00       OVERS/UNDERS                         0.00       AIRTIME CASH SALES                   0.00       GIFT CARDS                           0.00       GIFT CARD CASH SALES                 0.00       T O T A L  CASH PAYOUTS              0.00                                                                                                                                                                                                                                                                                                                                                      Z
M17021392                              CASH        HBABSENT                                                                                                                                                                                          ANNUAL LEAVE                                                                                                                                                                                    DAY OFF                                                                                                                                                                                         COMMENTS                                                                                                                                                                                                                                                                                                                                                                                       Z
Y17021300                                          HB00000000830588+000137
ZHB17021321083 SLAVE 2      SALES DATA                     NEXT INVOICE NO.  142504 0607
X HB Slave 2 First invoice 142367 170213 Last invoice 142503 170213 Next invoice 142504 Total number of records 000000448 clbackup completed 21:08:28
