151877000151877               151877               170213HB     1400+00000+HB0000001787+0000001787+000000000+000000251+0000002030+0000000008+I20000000000+0000002030+Z
151877001151877105-001010     151877006002580007329LUNCH-BOX 1L  ASSTD    0000002000+00000876+00000+0001T   00000876+0000000911          1400 GL5210               3BZ
151877002151877112-116038     151877006003000534906TCS CARRIER BAG MIDI   0000001000+00000035+00000+0001T   00000035+0000000911          1400 GL5090               3BZ
151878000151878               151878               170213HB     1400+00000+HB0000003069+0000003069+000000000+000000430+0000003490+0000000009+I20000000000+0000003490+Z
151878001151878077-000376     151878006003000444427GIFT-BAG 25X32CM 2PK   0000001000+00003069+00000+0001T   00003069+0000000911          1400 GL5112               3CZ
151879000151879               151879               170213HB     1400+00000+HB0000001051+0000001051+000000000+000000148+0000001190+0000000009+I20000000000+0000001190+Z
151879001151879079-009702-D   151879008427973059354PAPER SIRIO A2 RED COL 0000001000+00001051+00000+0001T   00001051+0000000912          1400 GL5130               3CZ
151880000151880               151880               170213HB     1400+00000+HB0000005698+0000005698+000000000+000000799+0000006497+0000000000+I40000006497+0000000000+Z
151880001151880084-009407     151880006001023861726SCISSORS 13cm MTL PL-H 0000001000+00001753+00000+0001T   00001753+0000000933          1400 GL5200               3BZ
151880002151880071-001017     151880006001023892676MARKER DVD FINE+MED 3PC0000001000+00002192+00000+0001T   00002192+0000000933          1400 GL5130               3BZ
151880003151880007-000551     151880006001023848079NOTE-PAD SHOP-LIST ASST0000001000+00001753+00000+0001T   00001753+0000000933          1400 GL5130               3BZ
151881000151881               151881               170213HB     1400+00000+HB0000008770+0000008770+000000000+000001228+0000009990+0000000008+I20000000000+0000009990+Z
151881001151881082-000115     151881006003000360604READING GLS STRNGHT:2.50000002000+00004385+00000+0001T   00004385+0000000934          1400 GL5160               3CZ
151882000151882               151882               170213HB     1400+00000+HB0000008819+0000008819+000000000+000001235+0000010054+0000000000+I40000010054+0000000000+Z
151882001151882368-000614     151882006001023705808PLUSH LOVE 30cm        0000001000+00008771+00000+0001T   00008771+0000001044          1400 GL5745               3BZ
151882002151882112-116069     151882006003000535064TCS CARRIER BAG JUMBO  0000001000+00000048+00000+0001T   00000048+0000001044          1400 GL5090               3BZ
151883000151883               151883               170213HB     1400+00000+HB0000000876+0000000876+000000000+000000123+0000000999+0000000000+I40000000999+0000000000+Z
151883001151883078-000025     151883008887013700064SUPERGLUE 3g 1PCE CARD 0000001000+00000876+00000+0001T   00000876+0000001047          1400 GL5810               3BZ
151884000151884               151884               170213HB     1400+00000+HB0000003682+0000003682+000000000+000000516+0000004190+0000000008+I20000000000+0000004190+Z
151884001151884077-000299     151884006003000395576G/BAG 32x25cm LRG LOVE 0000001000+00001490+00000+0001T   00001490+0000001048          1400 GL5112               3BZ
151884002151884080-000127     151884006003000424351VALENTINES DAY 36x24CM 0000001000+00002192+00000+0001T   00002192+0000001048          1400 GL5112               3BZ
151885000151885               151885               170213HB     1400+00000+HB0000019332+0000019332+000000000+000002709+0000022041+0000000000+I40000022041+0000000000+Z
151885001151885112-116069     151885006003000535064TCS CARRIER BAG JUMBO  0000001000+00000048+00000+0001T   00000048+0000001104          1400 GL5090               3BZ
151885002151885007-000206     151885006009635830215X/PAD 80-SHEETS PUNCHED0000010000+00001227+00000+0001T   00001227+0000001104          1400 GL5130               3BZ
151885003151885106-007105     151885006001023857644JUG 1,8L FRIDGE-DOOR   0000002000+00003507+00000+0001T   00003507+0000001104          1400 GL5210               3BZ
151886000151886               151886               170213HB     1400+00000+HB0000001753+0000001753+000000000+000000246+0000001990+0000000009+I20000000000+0000001990+Z
151886001151886077-000457     151886006003000285662G/BAG METALLIC JMB SOL 0000001000+00001753+00000+0001T   00001753+0000001105          1400 GL5112               3CZ
151887000151887               151887               170213HB     1400+00000+HB0000007892+0000007892+000000000+000001106+0000008990+0000000008+I20000000000+0000008990+Z
151887001151887174-000011     151887006001023523778W/MACHINE-BAG 50x40cm  0000001000+00001753+00000+0001T   00001753+0000001129          1400 GL5205               3CZ
151887002151887035-000001     151887006002596010566UMBRELLA LADIES W/MINI 0000001000+00006139+00000+0001T   00006139+0000001129          1400 GL5205               3CZ
151888000151888               151888               170213HB     1400+00000+HB0000001753+0000001753+000000000+000000246+0000001990+0000000009+I20000000000+0000001990+Z
151888001151888036-000063     151888006009654960436COATHANGERS VIRGIN 5PCE0000001000+00001753+00000+0001T   00001753+0000001130          1400 GL5212               3BZ
151889000151889               151889               170213HB     1400+00000+HB0000001753+0000001753+000000000+000000246+0000001999+0000000000+I40000001999+0000000000+Z
151889001151889047-000507     151889006001023684479PLUG-ADAPTOR EURO TWIN 0000001000+00001753+00000+0001T   00001753+0000001140          1400 GL5880               3CZ
151890000151890               151890               170213HB     1400+00000+HB0000009941+0000009941+000000000+000001394+0000011335+0000000000+I40000011335+0000000000+Z
151890001151890112-116038     151890006003000534906TCS CARRIER BAG MIDI   0000001000+00000035+00000+0001T   00000035+0000001145          1400 GL5090               3BZ
151890002151890565-000040     151890006008766115635NOVELTY ICON BEANIE    0000001000+00002630+00000+0001T   00002630+0000001145          1400 GL5745               3BZ
151890003151890007-000324     15189000600968585864125 SHEETS BRIGHTS MARLI0000001000+00003507+00000+0001T   00003507+0000001145          1400 GL5130               3BZ
151890004151890007-000145     151890006009635833087BK EXERCISE 72PG A4    0000001000+00000525+00000+0001T   00000525+0000001145          1400 GL5130               3BZ
151890005151890150-000770     151890006005387000128UTILITY BOX MEGA       0000001000+00003244+00000+0001T   00003244+0000001145          1400 GL5810               3BZ
151891000151891               151891               170213HB     1400+00000+HB0000002629+0000002629+000000000+000000369+0000002998+0000000000+I40000002998+0000000000+Z
151891001151891022-002108     151891006002600025159MUG 8cm PLAIN          0000001000+00000876+00000+0001T   00000876+0000001146          1400 GL5305               3BZ
151891002151891009-001455     151891006001023696038MELAMINE PLATE 25cm    0000001000+00001753+00000+0001T   00001753+0000001146          1400 GL5210               3BZ
151892000151892               151892               170213HB     1400+00000+HB0000007014+0000007014+000000000+000000982+0000007990+0000000006+I20000000000+0000007990+Z
151892001151892007-000096     151892006001023855114ENVELOPES WHT    BOX-400000002000+00003507+00000+0001T   00003507+0000001158          1400 GL5130               3BZ
151893000151893               151893               170213HB     1400+00000+HB0000004207+0000004207+000000000+000000590+0000004797+0000000000+I40000004797+0000000000+Z
151893001151893077-000011-D   151893006001023808554TISSUE-WRAP WHITE 10PCE0000001000+00000876+00000+0001T   00000876+0000001214          1400 GL5112               3BZ
151893002151893077-000382     151893006003000247820GIFT-BAG MED 18X23CM   0000001000+00001753+00000+0001T   00001753+0000001214          1400 GL5112               3BZ
151893003151893077-000315     151893006003000181186GIFT-BAG 20x28cm MATT  0000001000+00001578+00000+0001T   00001578+0000001214          1400 GL5112               3BZ
151894000151894               151894               170213HB     1400+00000+HB0000001753+0000001753+000000000+000000246+0000001990+0000000009+I20000000000+0000001990+Z
151894001151894016-006514     151894006003000295432S/JAR EMBOSSED 500ML   0000001000+00001753+00000+0001T   00001753+0000001214          1400 GL5300               3BZ
151895000151895               151895               170213HB     1400+00000+HB0000007278+0000007278+000000000+000001020+0000008298+0000000000+I40000008298+0000000000+Z
151895001151895469-006607     151895006003000389339BUILDING BLOCKS        0000001000+00007016+00000+0001T   00007016+0000001217          1400 GL5755               3BZ
151895002151895903-000216     151895006925925900966SWT MALLOW TWIST ERKO  0000001000+00000262+00000+0001T   00000262+0000001217          1400 GL5150               3BZ
151896000151896               151896               170213HB     1400+00000+HB0000004206+0000004206+000000000+000000591+0000004790+0000000007+I20000000000+0000004790+Z
151896001151896077-000270     151896006003000395453GIFT-BAG PPR JMB 33X45 0000001000+00002630+00000+0001T   00002630+0000001221          1400 GL5112               3BZ
151896002151896077-000010-C   151896006001023123879CREPE-PAPER RED        0000002000+00000788+00000+0001T   00000788+0000001221          1400 GL5112               3BZ
151897000151897               151897               170213HB     1400+00000+HB0000002192+0000002192+000000000+000000307+0000002490+0000000009+I20000000000+0000002490+Z
151897001151897080-000127     151897006003000424351VALENTINES DAY 36x24CM 0000001000+00002192+00000+0001T   00002192+0000001224          1400 GL5112               3BZ
151898000151898               151898               170213HB     1400+00000+HB0000003507+0000003507+000000000+000000491+0000003998+0000000000+I40000003998+0000000000+Z
151898001151898018-000136     151898006001023659026MUG OCC LOVE W/PLUSH   0000001000+00003507+00000+0001T   00003507+0000001320          1400 GL5515               3BZ
151899000151899               151899               170213HB     1400+00000+HB0000007455+0000007455+000000000+000001044+0000008490+0000000009+I20000000000+0000008490+Z
151899001151899024-000020     151899006003000108640ICING-SET PL S/S NOZZLE0000001000+00007455+00000+0001T   00007455+0000001323          1400 GL5300               3BZ
151900000151900               151900               170213HB     1400+00000+HB0000002628+0000002628+000000000+000000368+0000002990+0000000006+I20000000000+0000002990+Z
151900001151900006-000166-G   151900006003000607976BALLOONS HELIUM 6PC BLK0000002000+00001314+00000+0001T   00001314+0000001324          1400 GL5131               3BZ
151901000151901               151901               170213HB     1400+00000+HB0000001753+0000001753+000000000+000000246+0000001990+0000000009+I20000000000+0000001990+Z
151901001151901080-000115     151901006003000237333CARD&ENVELOPE - BLANKS 0000001000+00001753+00000+0001T   00001753+0000001324          1400 GL5112               3BZ
151902000151902               151902               170213HB     1400+00000+HB0000007189+0000007189+000000000+000001008+0000008197+0000000000+I40000008197+0000000000+Z
151902001151902301-085001     151902006003000297610ORN WATERBALL LOVE ASST0000001000+00004823+00000+0001T   00004823+0000001325          1400 GL5505               3BZ
151902002151902080-000109     151902006003000237203CARD&ENVLPE BDAY-BRIGHT0000001000+00001753+00000+0001T   00001753+0000001325          1400 GL5112               3BZ
151902003151902077-000311     151902006001023608666GIFT-BAG 11X14CM GLOSS 0000001000+00000613+00000+0001T   00000613+0000001325          1400 GL5112               3BZ
151903000151903               151903               170213HB     1400+00000+HB0000008621+0000008621+000000000+000001211+0000009830+0000000002+I20000000000+0000009830+Z
151903001151903077-000010-C   151903006001023123879CREPE-PAPER RED        0000001000+00000788+00000+0001T   00000788+0000001327          1400 GL5112               3BZ
151903002151903077-000150-D   151903006003000054343GIFT-WRAP CELLPHANE CLR0000001000+00000876+00000+0001T   00000876+0000001327          1400 GL5112               3BZ
151903003151903903-000504     151903006001704012416SWT CHOC JELLY BEANS   0000001000+00001227+00000+0001T   00001227+0000001327          1400 GL5150               3BZ
151903004151903903-000200     151903006009826020234SWT CHOC RP CHOCO 23G  0000001000+00000788+00000+0001T   00000788+0000001327          1400 GL5150               3BZ
151903005151903103-000051     151903006003000676255BAMBOO BASKET SQUARE   0000001000+00001753+00000+0001T   00001753+0000001327          1400 GL5300               3BZ
151903006151903903-000087     151903006001704000161SWT SPECKLED-EGGS 50G  0000001000+00001139+00000+0001T   00001139+0000001327          1400 GL5150               3BZ
151903007151903018-000127     151903006001023380289MUG OCC STRAIGHT LOVE  0000001000+00001578+00000+0001T   00001753+0006471327          1400 GL5515               3BZ
151903008151903112-116038     151903006003000534906TCS CARRIER BAG MIDI   0000001000+00000035+00000+0001T   00000035+0000001327          1400 GL5090               3BZ
151903009151903080-000133-A   151903006003000647019MINI VALENTINES CARD   0000001000+00000437+00000+0001T   00000437+0000001327          1400 GL5112               3BZ
151904000151904               151904               170213HB     1400+00000+HB0000005260+0000005260+000000000+000000738+0000005998+0000000000+I40000005998+0000000000+Z
151904001151904077-000251     151904006003000639106GIFT-DECOR RIBBON      0000001000+00002630+00000+0001T   00002630+0000001329          1400 GL5112               3AZ
151904002151904077-000270     151904006003000395453GIFT-BAG PPR JMB 33X45 0000001000+00002630+00000+0001T   00002630+0000001329          1400 GL5112               3AZ
151905000151905               151905               170213HB     1400+00000+HB0000002630+0000002630+000000000+000000369+0000002990+0000000009+I20000000000+0000002990+Z
151905001151905007-000601     151905006003000541195BOOK COVER ADHESIVE 2M 0000001000+00002630+00000+0001T   00002630+0000001334          1400 GL5130               3BZ
151906000151906               151906               170213HB     1400+00000+HB0000010556+0000010556+000000000+000001478+0000012034+0000000000+I40000012034+0000000000+Z
151906001151906004-071206     151906006003000605156USB CABLE CHARGER      0000001000+00003507+00000+0001T   00003507+0000001335          1400 GL5310               3BZ
151906002151906004-071205     151906006003000073368USB 2.0 COMPUTER 4 HUB 0000001000+00003507+00000+0001T   00003507+0000001335          1400 GL5310               3BZ
151906003151906004-071206     151906006003000605156USB CABLE CHARGER      0000001000+00003507+00000+0001T   00003507+0000001335          1400 GL5310               3BZ
151906004151906112-116038     151906006009681820246TCS CARRIER BAG MIDI   0000001000+00000035+00000+0001T   00000035+0000001335          1400 GL5090               3BZ
151907000151907               151907               170213HB     1400+00000+HB0000022303+0000022303+000000000+000003125+0000025428+0000000000+I40000025428+0000000000+Z
151907001151907018-000129     151907006001023403353MUG OCC. LOVE V-SHAPE  0000001000+00002630+00000+0001T   00002630+0000001345          1400 GL5515               3BZ
151907002151907018-000127     151907006001023380289MUG OCC STRAIGHT LOVE  0000002000+00001578+00000+0001T   00001753+0006471345          1400 GL5515               3BZ
151907003151907031-006228     151907006003000142293P/FRAME+PLAQUE 10X15CM 0000001000+00003507+00000+0001T   00003507+0000001345          1400 GL5510               3BZ
151907004151907077-000010-C   151907006001023123879CREPE-PAPER RED        0000001000-00000788+00000+0001T   00000788+0000001345          1400 GL51121IC            3 Z
151907005151907301-085007     151907006003000673698ORN OCC. LOVE S/PLAQUE 0000001000+00007893+00000+0001T   00007893+0000001345          1400 GL5505               3BZ
151907006151907077-000312     151907006001023608697GIFT-BAG 10X35CM GLOSS 0000002000+00001314+00000+0001T   00001314+0000001345          1400 GL5112               3BZ
151907007151907077-000315     151907006003000181186GIFT-BAG 20x28cm MATT  0000001000+00001578+00000+0001T   00001578+0000001345          1400 GL5112               3BZ
151907008151907112-116038     151907006003000534906TCS CARRIER BAG MIDI   0000001000+00000035+00000+0001T   00000035+0000001345          1400 GL5090               3BZ
151907009151907077-000010-C   151907006001023123879CREPE-PAPER RED        0000001000+00000788+00000+0001T   00000788+0000001345          1400 GL5112               3BZ
151907010151907077-000011-D   151907006001023808554TISSUE-WRAP WHITE 10PCE0000001000+00000876+00000+0001T   00000876+0000001345          1400 GL5112               3BZ
151908000151908               151908               170213HB     1400+00000+HB0000007925+0000007925+000000000+000001112+0000009037+0000000000+I40000009037+0000000000+Z
151908001151908108-003023     151908006003000665471TUMBLER W/STRAW 550ml  0000002000+00002630+00000+0001T   00002630+0000001346          1400 GL5210               3BZ
151908002151908077-000270     151908006003000395453GIFT-BAG PPR JMB 33X45 0000001000+00002630+00000+0001T   00002630+0000001346          1400 GL5112               3BZ
151908003151908112-116038     151908006009681820246TCS CARRIER BAG MIDI   0000001000+00000035+00000+0001T   00000035+0000001346          1400 GL5090               3BZ
151909000151909               151909               170213HB     1400+00000+HB0000007890+0000007890+000000000+000001106+0000008996+0000000000+I40000008996+0000000000+Z
151909001151909058-000062     151909006001023622976HOBBY-KNIFE+BLADE 15cm 0000001000+00003507+00000+0001T   00003507+0000001348          1400 GL5840               3BZ
151909002151909051-002407     151909006003000452491SPRAYER TRIGGER 550ml  0000001000+00001753+00000+0001T   00001753+0000001348          1400 GL5820               3BZ
151909003151909007-000718     151909006003000226672NOTE MAGNETIC WKLY PLNR0000001000+00002630+00000+0001T   00002630+0000001348          1400 GL5130               3BZ
151910000151910               151910               170213HB     1400+00000+HB0000015961+0000015961+000000000+000002238+0000018199+0000000000+I40000018199+0000000000+Z
151910001151910304-001502     151910006003000035533FLWR SATIN R/BUD 55CM  0000001000+00000613+00000+0001T   00000613+0000001358          1400 GL5510               3BZ
151910002151910071-001019     151910006001023474513MARKER BLACK NAME-PEN  0000001000+00000876+00000+0001T   00000876+0000001358          1400 GL5130               3BZ
151910003151910079-009702-D   151910008427973059354PAPER SIRIO A2 RED COL 0000001000+00001051+00000+0001T   00001051+0000001358          1400 GL5130               3BZ
151910004151910368-000111     151910006001023780812PLUSH BEAR/DOG 29CM    0000001000+00012279+00000+0001T   00012279+0000001358          1400 GL5745               3BZ
151910005151910079-009700-B   151910006003000547661PAPER SIRIO A4 WHITE   0000001000+00000306+00000+0001T   00000306+0000001358          1400 GL5130               3BZ
151910006151910071-081101-A   151910006003000326549GLUE-STICK 25g BLISTER 0000001000+00000788+00000+0001T   00000788+0000001358          1400 GL5130               3BZ
151910007151910112-116069     151910006003000535064TCS CARRIER BAG JUMBO  0000001000+00000048+00000+0001T   00000048+0000001358          1400 GL5090               3BZ
151911000151911               151911               170213HB     1400+00000+HB0000007937+0000007937+000000000+000001113+0000009050+0000000000+I20000000000+0000009050+Z
151911001151911903-000082     151911006001704014892SWT MINI WINE GUMS 100G0000001000+00001753+00000+0001T   00001753+0000001359          1400 GL5150               3CZ
151911002151911079-013102     151911006003000019601ART+CRAFT DIY PIPE-CLNR0000002000+00002192+00000+0001T   00002192+0000001359          1400 GL5130               3CZ
151911003151911077-000011-L   151911006001023808585P/TISSUE BRIGHT 10SHEET0000001000+00000876+00000+0001T   00000876+0000001359          1400 GL5112               3CZ
151911004151911077-000011-D   151911006001023808554TISSUE-WRAP WHITE 10PCE0000001000+00000876+00000+0001T   00000876+0000001359          1400 GL5112               3CZ
151911005151911112-116069     151911006003000535064TCS CARRIER BAG JUMBO  0000001000+00000048+00000+0001T   00000048+0000001359          1400 GL5090               3CZ
151912000151912               151912               170213HB     1400+00000+HB0000004433+0000004433+000000000+000000621+0000005054+0000000000+I40000005054+0000000000+Z
151912001151912031-000873-C   151912006003000673513P/FRAME WDN WHITE 20X250000001000+00004385+00000+0001T   00004385+0000001514          1400 GL5510               3BZ
151912002151912112-116069     151912006003000535064TCS CARRIER BAG JUMBO  0000001000+00000048+00000+0001T   00000048+0000001514          1400 GL5090               3BZ
151913000151913               151913               170213HB     1400+00000+HB0000011269+0000011269+000000000+000001579+0000012848+0000000000+I40000012848+0000000000+Z
151913001151913112-116069     151913006003000535064TCS CARRIER BAG JUMBO  0000001000+00000048+00000+0001T   00000048+0000001515          1400 GL5090               3BZ
151913002151913079-000206     151913006003000639700PENCIL CRAYONS THERAPY 0000001000+00001753+00000+0001T   00001753+0000001515          1400 GL5130               3BZ
151913003151913567-011343     151913006003000630592BK COLOURING THERAPY   0000001000+00003507+00000+0001T   00003507+0000001515          1400 GL5757               3BZ
151913004151913077-000322     151913006001023677532GIFT-BAG 18X23CM E/D FL0000001000+00001227+00000+0001T   00001227+0000001515          1400 GL5112               3BZ
151913005151913077-000315     151913006003000181186GIFT-BAG 20x28cm MATT  0000003000+00001578+00000+0001T   00001578+0000001515          1400 GL5112               3BZ
151914000151914               151914               170213HB     1400+00000+HB0000002059+0000002059+000000000+000000289+0000002340+0000000008+I20000000000+0000002340+Z
151914001151914306-000020     151914006001023743145POCKET-TISSUES 10PCE   0000001000+00000306+00000+0001T   00000306+0000001523          1400 GL5200               3BZ
151914002151914159-000636     151914006003000036035BATH PUMICE,BRUSH,FILE 0000001000+00001753+00000+0001T   00001753+0000001523          1400 GL5200               3BZ
151915000151915               151915               170213HB     1400+00000+HB0000007451+0000007451+000000000+000001045+0000008496+0000000000+I40000008496+0000000000+Z
151915001151915077-000300     151915006001023483249GIFT BOX OCCASIONS HEXG0000001000+00002192+00000+0001T   00002192+0000001525          1400 GL5112               3BZ
151915002151915366-002694     151915006003000088997DRESS UP HAT COWBOY PL 0000003000+00001753+00000+0001T   00001753+0000001525          1400 GL5131               3BZ
151916000151916               151916               170213HB     1400+00000+HB0000006361+0000006361+000000000+000000891+0000007250+0000000002+I20000000000+0000007250+Z
151916001151916083-000055     151916006003000003853LIGHTER ELCTRNC REFILBL0000001000+00000613+00000+0001T   00000613+0000001525          1400 GL5315               3BZ
151916002151916159-000801     151916006001023999832BATHMAT 36x59cm ASST   0000001000+00005700+00000+0001T   00005700+0000001525          1400 GL5200               3BZ
151916003151916112-116069     151916006003000535064TCS CARRIER BAG JUMBO  0000001000+00000048+00000+0001T   00000048+0000001525          1400 GL5090               3BZ
151917000151917               151917               170213HB     1400+00000+HB0000007013+0000007013+000000000+000000984+0000007990+0000000007+I20000000000+0000007990+Z
151917001151917039-000114     151917006001023524058CANDLE T/LITE RED 3.5CM0000001000+00001753+00000+0001T   00001753+0000001527          1400 GL5510               3CZ
151917002151917040-000170     151917006001023774613C/HOLDER GLASS CUP 6CM 0000002000+00002630+00000+0001T   00002630+0000001527          1400 GL5510               3CZ
151918000151918               151918               170213HB     1400+00000+HB0000005343+0000005343+000000000+000000751+0000006094+0000000000+I40000006094+0000000000+Z
151918001151918077-000150-D   151918006003000054343GIFT-WRAP CELLPHANE CLR0000003000+00000876+00000+0001T   00000876+0000001531          1400 GL5112               3BZ
151918002151918903-000699     151918006002099007018SWT CANDY FRUIT CHEWS  0000001000+00001139+00000+0001T   00001139+0000001531          1400 GL5150               3BZ
151918003151918903-000137     151918006002099004130SWEET GS JELLY BEAN 60G0000001000+00000788+00000+0001T   00000788+0000001531          1400 GL5150               3BZ
151918004151918903-000138     151918006002099004314SWT GS WINE GUMS 60G   0000001000+00000788+00000+0001T   00000788+0000001531          1400 GL5150               3BZ
151919000151919               151919               170213HB     1400+00000+HB0000008593+0000008593+000000000+000001204+0000009790+0000000007+I20000000000+0000009790+Z
151919001151919903-000498     151919006001704013048SWT CHOC MIGHTY MALTS  0000002000+00001227+00000+0001T   00001227+0000001531          1400 GL5150               3BZ
151919002151919368-000175     151919006003000270316PLUSH BEAR 4 ASSTD 18CM0000001000+00006139+00000+0001T   00006139+0000001531          1400 GL5745               3BZ
151920000151920               151920               170213HB     1400+00000+HB0000005872+0000005872+000000000+000000824+0000006690+0000000006+I20000000000+0000006690+Z
151920001151920159-000117     151920006003000450398SHOWER CAP PVC ASSTD   0000001000+00002630+00000+0001T   00002630+0000001532          1400 GL5200               3CZ
151920002151920133-000018     151920006003000583218SWAB MICROFIBRE 30x30cm0000001000+00001753+00000+0001T   00001753+0000001532          1400 GL5212               3CZ
151920003151920027-000082     151920006001023760258SCOURERS ROUND   PACK-60000001000+00001227+00000+0001T   00001227+0000001532          1400 GL5212               3CZ
151920004151920108-003007     151920006002923006590MUG PL 375ml           0000001000+00000262+00000+0001T   00000262+0000001532          1400 GL5210               3CZ
151921000151921               151921               170213HB     1400+00000+HB0000032836+0000032836+000000000+000004603+0000037439+0000000000+I40000037439+0000000000+Z
151921001151921903-000151     151921006009803374411SWT SML RND R/BOW LOLLY0000002000+00000525+00000+0001T   00000525+0000001535          1400 GL5150               3BZ
151921002151921112-116069     151921006003000535064TCS CARRIER BAG JUMBO  0000001000+00000048+00000+0001T   00000048+0000001535          1400 GL5090               3BZ
151921003151921562-000011     151921006003000600984PLAY DOUGH NEON TUBE   0000001000+00003507+00000+0001T   00003507+0000001535          1400 GL5755               3BZ
151921004151921304-001204     151921006001023737984FLOWER OCC. TEDDY/ROSES0000001000+00001402+00000+0001T   00001490+0006471535          1400 GL5510               3BZ
151921005151921077-000382     151921006003000247820GIFT-BAG MED 18X23CM   0000002000+00001753+00000+0001T   00001753+0000001535          1400 GL5112               3BZ
151921006151921080-000124     151921006003000297733CARD & ENV VALENTINES  0000001000+00001578+00000+0001T   00001578+0000001535          1400 GL5112               3BZ
151921007151921006-005909     151921006003000081301PARTY FAVOUR STAR WAND 0000001000+00002192+00000+0001T   00002192+0000001535          1400 GL5131               3BZ
151921008151921566-000950     151921006003000216048STICKERS 3 STYLES 100PC0000001000+00002192+00000+0001T   00002192+0000001535          1400 GL5130               3BZ
151921009151921301-085001     151921006003000297610ORN WATERBALL LOVE ASST0000001000+00004823+00000+0001T   00004823+0000001535          1400 GL5505               3BZ
151921010151921301-086006     151921006003000498918ORN OCCASION LOVE 4ASTD0000001000+00005262+00000+0001T   00005262+0000001535          1400 GL5505               3BZ
151921011151921301-085001     151921006003000297610ORN WATERBALL LOVE ASST0000001000+00004823+00000+0001T   00004823+0000001535          1400 GL5505               3BZ
151921012151921077-000902     151921006003000410569G/WRAP 700mmx1m BBY/KID0000001000+00001753+00000+0001T   00001753+0000001535          1400 GL5112               3BZ
151921013151921567-010542     151921009781743461808PIXIE HELLO KITTY ASSTD0000001000+00000700+00000+0001T   00000876+0008131535          1400 GL5757               3BZ
151922000151922               151922               170213HB     1400+00000+HB0000005260+0000005260+000000000+000000737+0000005997+0000000000+I40000005997+0000000000+Z
151922001151922077-000115     151922006001023834225WRAP METALLIC 700mmx1m 0000001000+00001753+00000+0001T   00001753+0000001536          1400 GL5112               3BZ
151922002151922018-000136     151922006001023659026MUG OCC LOVE W/PLUSH   0000001000+00003507+00000+0001T   00003507+0000001536          1400 GL5515               3BZ
151923000151923               151923               170213HB     1400+00000+HB0000002190+0000002190+000000000+000000308+0000002490+0000000008+I20000000000+0000002490+Z
151923001151923077-000381     151923006003000247707GIFT-BAG 25X32CM S/COL 0000001000+00001753+00000+0001T   00001753+0000001537          1400 GL5112               3BZ
151923002151923080-000133     151923006003000535613CARD&ENV MINI ASTD DSGN0000001000+00000437+00000+0001T   00000437+0000001537          1400 GL5112               3BZ
151924000151924               151924               170213HB     1400+00000+HB0000007890+0000007890+000000000+000001106+0000008990+0000000006+I20000000000+0000008990+Z
151924001151924034-078821     151924006003000621668BABY HANGERS PL 3PC    0000001000+00003507+00000+0001T   00003507+0000001538          1400 GL5215               3BZ
151924002151924466-000103     151924000681070950312BALL 20cm ASSTD        0000001000+00001753+00000+0001T   00001753+0000001538          1400 GL5785               3BZ
151924003151924466-000515     151924006001023477408BALLS TENNIS BAG-OF-3  0000001000+00002630+00000+0001T   00002630+0000001538          1400 GL5785               3BZ
151925000151925               151925               170213HB     1400+00000+HB0000007925+0000007925+000000000+000001112+0000009030+0000000007+I20000000000+0000009030+Z
151925001151925018-000133     151925006003000427543MUG OCCASIONS DAD HERO 0000001000+00002630+00000+0001T   00002630+0000001539          1400 GL5515               3BZ
151925002151925079-105310     151925006003000588947ART+CRAFT PAINT PALETTE0000001000+00002630+00000+0001T   00002630+0000001539          1400 GL5130               3BZ
151925003151925206-000620     151925006003000631797BACK SCRATCHER EXTEND  0000001000+00002630+00000+0001T   00002630+0000001539          1400 GL5321               3BZ
151925004151925112-116038     151925006003000534906TCS CARRIER BAG MIDI   0000001000+00000035+00000+0001T   00000035+0000001539          1400 GL5090               3BZ
151926000151926               151926               170213HB     1400+00000+HB0000025917+0000025917+000000000+000003631+0000029548+0000000000+I40000029548+0000000000+Z
151926001151926200-003019     151926006003000510856REFUSE BAGS 10PC D/STRN0000001000+00001314+00000+0001T   00001753+0008171542          1400 GL5214               3BZ
151926002151926072-020269     151926006009652253585PET POOP-SCOOP-SPADE   0000001000+00007016+00000+0001T   00007016+0000001542          1400 GL5870               3BZ
151926003151926112-116069     151926006003000535064TCS CARRIER BAG JUMBO  0000001000+00000048+00000+0001T   00000048+0000001542          1400 GL5090               3BZ
151926004151926368-000629     151926006003000208593PLUSH SNAKE ASSTD 170cm0000001000+00011402+00000+0001T   00011402+0000001542          1400 GL5745               3BZ
151926005151926072-020320     151926006003000603343PET DOG TOY TUG-ROPE   0000001000+00002630+00000+0001T   00002630+0000001542          1400 GL5870               3BZ
151926006151926105-007050-B   151926006002580007411CEREAL-STORE 3L ASSTD  0000001000+00003507+00000+0001T   00003507+0000001542          1400 GL5210               3BZ
151927000151927               151927               170213HB     1400+00000+HB0000002366+0000002366+000000000+000000332+0000002698+0000000000+I40000002698+0000000000+Z
151927001151927007-000302     151927006009635830000BOOK H/COVER A4 96-PAGE0000001000+00001139+00000+0001T   00001139+0000001543          1400 GL5130               3BZ
151927002151927007-000206     151927006009635830215X/PAD 80-SHEETS PUNCHED0000001000+00001227+00000+0001T   00001227+0000001543          1400 GL5130               3BZ
151928000151928               151928               170213HB     1400+00000+HB0000003540+0000003540+000000000+000000497+0000004037+0000000000+I40000004037+0000000000+Z
151928001151928037-000004     151928006001023763679ASHTRAY PL TUB 8X11CM  0000001000+00001753+00000+0001T   00002192+0008191544          1400 GL5515               3BZ
151928002151928078-000025     151928008887013700064SUPERGLUE 3g 1PCE CARD 0000002000+00000876+00000+0001T   00000876+0000001544          1400 GL5810               3BZ
151928003151928112-116038     151928006003000534906TCS CARRIER BAG MIDI   0000001000+00000035+00000+0001T   00000035+0000001544          1400 GL5090               3BZ
151929000151929               151929               170213HB     1400+00000+HB0000003815+0000003815+000000000+000000536+0000004350+0000000001+I20000000000+0000004350+Z
151929001151929077-000407     151929006003000145096G/BAG PP 19X26X8CM     0000001000+00001314+00000+0001T   00001314+0000001546          1400 GL5112               3BZ
151929002151929018-000138     151929006003000547104MUG NOVELTY CER. T-SHPE0000001000+00001753+00000+0001T   00002192+0008171546          1400 GL5515               3BZ
151929003151929018-005009     151929006001023725608MUG W/PLUSH-BEAR LOVE  0000001000-00003507+00000+0001T   00003507+0000001546          1400 GL55152IC            3 Z
151929004151929077-000318     151929006001023609755GIFT-BAG 18X23CM E/D AN0000001000+00001227+00000+0001T   00001227+0000001546          1400 GL5112               3BZ
151929005151929903-000618     151929006003000672370SWT LOLLY RAINBOW GIANT0000001000+00001753+00000+0001T   00001753+0000001546          1400 GL5150               3BZ
151929006151929112-116069     151929006003000535064TCS CARRIER BAG JUMBO  0000001000+00000048+00000+0001T   00000048+0000001546          1400 GL5090               3BZ
151929007151929077-000318     151929006001023609755GIFT-BAG 18X23CM E/D AN0000001000+00001227+00000+0001T   00001227+0000001546          1400 GL5112               3BZ
151930000151930               151930               170213HB     1400+00000+HB0000017234+0000017234+000000000+000002415+0000019649+0000000000+I40000019649+0000000000+Z
151930001151930903-000517     151930006001704012768SWT STRAWS FIZZY CHERRY0000002000+00001227+00000+0001T   00001227+0000001601          1400 GL5150               3BZ
151930002151930903-000518     151930006001704012782SWT STRAWS S/BERRY 100g0000002000+00001227+00000+0001T   00001227+0000001601          1400 GL5150               3BZ
151930003151930368-000701     151930006003000477432PLUSH DOG              0000002000+00006139+00000+0001T   00006139+0000001601          1400 GL5745               3BZ
151930004151930112-116069     151930006003000535064TCS CARRIER BAG JUMBO  0000001000+00000048+00000+0001T   00000048+0000001601          1400 GL5090               3BZ
151931000151931               151931               170213HB     1400+00000+HB0000010304+0000010304+000000000+000001445+0000011749+0000000000+I40000011749+0000000000+Z
151931001151931079-009702-D   151931008427973059354PAPER SIRIO A2 RED COL 0000001000+00001051+00000+0001T   00001051+0000001604          1400 GL5130               3BZ
151931002151931039-000108     151931006001023524034TEA-LITE CANDLES 8PCE  0000001000+00001490+00000+0001T   00001490+0000001604          1400 GL5510               3BZ
151931003151931039-001023     151931006003000466337CANDLE TEA-LITE METALIC0000001000+00001753+00000+0001T   00001753+0000001604          1400 GL5510               3BZ
151931004151931077-000380     151931006003000247585GIFT-BAG 33X45CM S/COL 0000001000+00002455+00000+0001T   00002455+0000001604          1400 GL5112               3BZ
151931005151931031-005853     151931006003000442416P/FRAME WDN TWIN HEARTS0000001000+00003507+00000+0001T   00003507+0000001604          1400 GL5510               3BZ
151931006151931112-116069     151931006003000535064TCS CARRIER BAG JUMBO  0000001000+00000048+00000+0001T   00000048+0000001604          1400 GL5090               3BZ
151932000151932               151932               170213HB     1400+00000+HB0000006576+0000006576+000000000+000000921+0000007497+0000000000+I40000007497+0000000000+Z
151932001151932080-000127     151932006003000424351VALENTINES DAY 36x24CM 0000003000+00002192+00000+0001T   00002192+0000001606          1400 GL5112               3BZ
151933000151933               151933               170213HB     1400+00000+HB0000014909+0000014909+000000000+000002088+0000016990+0000000007+I20000000000+0000016990+Z
151933001151933368-000001     151933006003000097982Plush Bear 25cm        0000001000+00004385+00000+0001T   00004385+0000001606          1400 GL5745               3BZ
151933002151933039-809558     151933006003000344376CANDLE PILLAR 12CM 4AST0000001000+00006139+00000+0001T   00006139+0000001606          1400 GL5510               3BZ
151933003151933039-000796     151933006001023617750CANDLES TEALITE BOX-8  0000001000+00004385+00000+0001T   00004385+0000001606          1400 GL5510               3BZ
151934000151934               151934               170213HB     1400+00000+HB0000003507+0000003507+000000000+000000491+0000003998+0000000000+I40000003998+0000000000+Z
151934001151934018-000130     151934006001023867537MUG OCC LOVE MINI+HEART0000001000+00003507+00000+0001T   00003507+0000001608          1400 GL5515               3BZ
151935000151935               151935               170213HB     1400+00000+HB0000004822+0000004822+000000000+000000676+0000005498+0000000000+I40000005498+0000000000+Z
151935001151935002-000885     151935006001023172655CAN-OPENER 3-ASST COL  0000001000+00003069+00000+0001T   00003069+0000001641          1400 1IC300               3BZ
151935002151935020-000015     151935006003000353118KITCHEN SCISSOR 3-ASSTD0000001000+00001753+00000+0001T   00001753+0000001641          1400 1IC300               3BZ
151936000151936               151936               170213HB     1400+00000+HB0000004200+0000004200+000000000+000000588+0000004780+0000000008+I20000000000+0000004780+Z
151936001151936018-000177     151936006001023797513MUG MINI LOVE ASSTD    0000006000+00000700+00000+0001T   00000700+0000001642          1400 1IC515               3BZ
151937000151937               151937               170213HB     1400+00000+HB0000021928+0000021928+000000000+000003070+0000024990+0000000008+I20000000000+0000024990+Z
151937001151937031-001014     151937006003000675302P/FRAME COLL PL 15-HOLE0000001000+00021928+00000+0001T   00021928+0000001647          1400 1IC510               3BZ
151938000151938               151938               170213HB     1400+00000+HB0000012396+0000012396+000000000+000001738+0000014134+0000000000+I40000014134+0000000000+Z
151938001151938079-000802     151938006001023528902ART+CRAFT STICKS 100PCE0000002000+00002455+00000+0001T   00002455+0000001731          1400 GL5130               3BZ
151938002151938079-013032-A   151938006003000389322SEA WORLD STICKERS     0000001000+00001753+00000+0001T   00001753+0000001731          1400 GL5130               3BZ
151938003151938566-000535     151938006003000284719STICKER SPARKLE EMBOSS 0000001000+00001753+00000+0001T   00001753+0000001731          1400 GL5130               3BZ
151938004151938566-000352     151938006001023809261STICKERS LASER ASSTD   0000001000+00002192+00000+0001T   00002192+0000001731          1400 GL5130               3BZ
151938005151938077-000382     151938006003000247820GIFT-BAG MED 18X23CM   0000001000+00001753+00000+0001T   00001753+0000001731          1400 GL5112               3BZ
151938006151938112-116038     151938006003000534906TCS CARRIER BAG MIDI   0000001000+00000035+00000+0001T   00000035+0000001731          1400 GL5090               3BZ
151939000151939               151939               170213HB     1400+00000+HB0000008800+0000008800+000000000+000001233+0000010033+0000000000+I40000010033+0000000000+Z
151939001151939077-000407     151939006003000145096G/BAG PP 19X26X8CM     0000001000+00001314+00000+0001T   00001314+0000001732          1400 GL5112               3BZ
151939002151939080-000133     151939006003000535613CARD&ENV MINI ASTD DSGN0000001000+00000437+00000+0001T   00000437+0000001732          1400 GL5112               3BZ
151939003151939031-000860-A   151939006001023798176P/FRAME PL ANTIQUE-BLK 0000001000+00003507+00000+0001T   00003507+0000001732          1400 GL5510               3BZ
151939004151939031-000856     151939006001023852113P/FRAME PL BROWN 10X15 0000001000+00003507+00000+0001T   00003507+0000001732          1400 GL5510               3BZ
151939005151939112-116038     151939006003000534906TCS CARRIER BAG MIDI   0000001000+00000035+00000+0001T   00000035+0000001732          1400 GL5090               3BZ
151940000151940               151940               170213HB     1400+00000+HB0000005293+0000005293+000000000+000000742+0000006035+0000000000+I40000006035+0000000000+Z
151940001151940112-116038     151940006003000534906TCS CARRIER BAG MIDI   0000001000+00000035+00000+0001T   00000035+0000001734          1400 GL5090               3BZ
151940002151940018-005009     151940006001023725608MUG W/PLUSH-BEAR LOVE  0000001000+00003507+00000+0001T   00003507+0000001734          1400 GL5515               3BZ
151940003151940018-000177     151940006001023797513MUG MINI LOVE ASSTD    0000001000+00000700+00000+0001T   00000700+0000001734          1400 GL5515               3BZ
151940004151940039-000026     151940006001023551610C/TAPERED 25CM M/RED   0000001000+00001051+00000+0001T   00001051+0000001734          1400 GL5510               3BZ
151941000151941               151941               170213HB     1400+00000+HB0000003946+0000003946+000000000+000000553+0000004499+0000000000+I40000004499+0000000000+Z
151941001151941368-000152     151941006003000166886PLUSH BEAR 15cm        0000001000+00003946+00000+0001T   00005262+0008141736          1400 GL5745               3BZ
151942000151942               151942               170213HB     1400+00000+HB0000001753+0000001753+000000000+000000246+0000001999+0000000000+I40000001999+0000000000+Z
151942001151942077-000316     151942006001023609731GIFT-BAG 25X32CM MATT  0000001000+00001753+00000+0001T   00001753+0000001738          1400 GL5112               3BZ
151943000151943               151943               170213HB     1400+00000+HB0000001753+0000001753+000000000+000000246+0000001990+0000000009+I20000000000+0000001990+Z
151943001151943077-000382     151943006003000247820GIFT-BAG MED 18X23CM   0000001000+00001753+00000+0001T   00001753+0000001745          1400 1IC112               3BZ
151944000151944               151944               170213HB     1400+00000+HB0000003104+0000003104+000000000+000000435+0000003539+0000000000+I40000003539+0000000000+Z
151944001151944366-000256     151944006001023918406DRESS UP TIARA&EARRINGS0000001000+00003069+00000+0001T   00003069+0000001746          1400 1IC131               3BZ
151944002151944112-116038     151944006003000534906TCS CARRIER BAG MIDI   0000001000+00000035+00000+0001T   00000035+0000001746          1400 1IC090               3BZ
151945000151945               151945               170213HB     1400+00000+HB0000006138+0000006138+000000000+000000860+0000006990+0000000008+I20000000000+0000006990+Z
151945001151945039-080959     151945006003000048922CANDLE PILLAR BALL 8CM 0000002000+00003069+00000+0001T   00003069+0000001751          1400 GL5510               3BZ
151946000151946               151946               170213HB     1400+00000+HB0000001752+0000001752+000000000+000000246+0000001990+0000000008+I20000000000+0000001990+Z
151946001151946252-000011     151946006001023475190CURTN-GLIDER ACETYL x500000001000+00000876+00000+0001T   00000876+0000001752          1400 GL5810               3BZ
151946002151946252-000013     151946006001023488107CURTN-HOOK R6 ACETYLx500000001000+00000876+00000+0001T   00000876+0000001752          1400 GL5810               3BZ
151947000151947               151947               170213HB     1400+00000+HB0000002274+0000002274+000000000+000000320+0000002590+0000000004+I20000000000+0000002590+Z
151947001151947018-000177     151947006001023797513MUG MINI LOVE ASSTD    0000002000+00000700+00000+0001T   00000700+0000001753          1400 GL5515               3BZ
151947002151947080-000133-A   151947006003000647019MINI VALENTINES CARD   0000002000+00000437+00000+0001T   00000437+0000001753          1400 GL5112               3BZ
151948000151948               151948               170213HB     1400+00000+HB0000000874+0000000874+000000000+000000124+0000000990+0000000008+I20000000000+0000000990+Z
151948001151948080-000133-A   151948006003000647019MINI VALENTINES CARD   0000002000+00000437+00000+0001T   00000437+0000001753          1400 GL5112               3BZ
151949000151949               151949               170213HB     1400+00000+HB0000007799+0000007799+000000000+000001095+0000008894+0000000000+I40000008894+0000000000+Z
151949001151949903-000613     151949006003000617173SWT LIPS DUMMY 10G     0000001000+00001490+00000+0001T   00001490+0000001804          1400 GL5150               3BZ
151949002151949083-000049     151949004891035200024CIG-LIGHTER DISPOSABLE 0000001000+00000437+00000+0001T   00000437+0000001804          1400 GL5315               3BZ
151949003151949089-000192-A   151949006001023901774KEY-CHAIN ACRYLIC      0000001000+00000876+00000+0001T   00000876+0000001804          1400 GL5205               3BZ
151949004151949007-000555     151949006001023848239MEMO-PAD MINI LOVE     0000001000+00000613+00000+0001T   00000613+0000001804          1400 GL5130               3BZ
151949005151949566-001118     151949006003000682171STICKERS CELL PHONE    0000001000+00001753+00000+0001T   00001753+0000001804          1400 GL5130               3BZ
151949006151949079-006525     151949006003000681938MASKING FABRIC 10PC    0000001000+00002630+00000+0001T   00002630+0000001804          1400 GL5130               3BZ
151950000151950               151950               170213HB     1400+00000+HB0000023234+0000023234+000000000+000003255+0000026489+0000000000+I40000026489+0000000000+Z
151950001151950567-011429     151950009780799352610BK READER BEGIN LEES   0000001000+00003507+00000+0001T   00004823+0008141807          1400 GL5757               3BZ
151950002151950567-011427     151950009780799352504BK READER BEGIN LEES   0000001000+00003507+00000+0001T   00004823+0008141807          1400 GL5757               3BZ
151950003151950567-011428     151950009780799352559BK READER BEGIN LEES   0000001000+00003507+00000+0001T   00004823+0008141807          1400 GL5757               3BZ
151950004151950567-011428     151950009780799352542BK READER BEGIN LEES   0000001000+00003507+00000+0001T   00004823+0008141807          1400 GL5757               3BZ
151950005151950077-000376-A   151950006003000669059GIFT-BAG 2-PACK JMB    0000001000+00003946+00000+0001T   00003946+0000001807          1400 GL5112               3BZ
151950006151950562-000010     151950006001023762528KID'S PLAY DOUGH       0000002000+00002630+00000+0001T   00002630+0000001807          1400 GL5755               3BZ
A17021300                                          09062497HBSLAVE 3                       GL53IC
M17021301                              IT DPT      HBATT.                                            LAST TILL SLIP NUMBER FOR SLAVE 3.              151950.                                         HB.
M17021391                              CASH        HBSLAVE 3                       Z-REPORT No.   620TOTAL (Sales - Refunds)           6038.19       CASH TO BE BANKED                 2066.90       DEBIT CARDS                          0.00       CREDIT CARDS                      3971.29       Z-READING                         6038.19       AIRTIME DEBIT CARD SALES             0.00       AIRTIME CARD SALES                   0.00       OVERS/UNDERS                         0.00       AIRTIME CASH SALES                   0.00       GIFT CARDS                           0.00       GIFT CARD CASH SALES                 0.00       T O T A L  CASH PAYOUTS              0.00                                                                                                                                                                                                                                                                                                                                                      Z
M17021392                              CASH        HBABSENT                                                                                                                                                                                          ANNUAL LEAVE                                                                                                                                                                                    DAY OFF                                                                                                                                                                                         COMMENTS                                                                                                                                                                                                                                                                                                                                                                                       Z
Y17021300                                          HB00000000534094+000074
ZHB17021321083 SLAVE 3      SALES DATA                     NEXT INVOICE NO.  151951 0620
X HB Slave 3 First invoice 151877 170213 Last invoice 151950 170213 Next invoice 151951 Total number of records 000000294 clbackup completed 21:08:31
