209828000209828               209828               170213HE     1400+00000+HE0000001753+0000001753+000000000+000000246+0000001990+0000000009+I20000000000+0000001990+Z
209828001209828077-000382     209828006003000247820GIFT-BAG MED 18X23CM   0000001000+00001753+00000+0001T   00001753+0000000918          1400 1IC112               1AZ
209829000209829               209829               170213HE     1400+00000+HE0000001490+0000001490+000000000+000000209+0000001690+0000000009+I20000000000+0000001690+Z
209829001209829004-078992     209829004905524102529EARPHONES MINI         0000001000+00001490+00000+0001T   00001490+0000000935          1400 LP3310               1AZ
209830000209830               209830               170213HE     1400+00000+HE0000002192+0000002192+000000000+000000307+0000002490+0000000009+I20000000000+0000002490+Z
209830001209830033-006004     209830006001023703316SEWING-KIT IN-POUCH    0000001000+00002192+00000+0001T   00002192+0000000951          1400 LP3200               1AZ
209831000209831               209831               170213HE     1400+00000+HE0000003979+0000003979+000000000+000000558+0000004530+0000000007+I20000000000+0000004530+Z
209831001209831077-000407     209831006003000145096G/BAG PP 19X26X8CM     0000001000+00001314+00000+0001T   00001314+0000000954          1400 LP3112               1AZ
209831002209831018-000129     209831006001023403353MUG OCC. LOVE V-SHAPE  0000001000+00002630+00000+0001T   00002630+0000000954          1400 LP3515               1AZ
209831003209831112-116038     209831006009681820246TCS CARRIER BAG MIDI   0000001000+00000035+00000+0001T   00000035+0000000954          1400 LP3090               1AZ
209832000209832               209832               170213HE     1400+00000+HE0000003507+0000003507+000000000+000000491+0000003990+0000000008+I20000000000+0000003990+Z
209832001209832079-000286     209832006001023797032FINGER-PAINT 4PCE      0000001000+00003507+00000+0001T   00003507+0000001018          1400 LP3130               1AZ
209833000209833               209833               170213HE     1400+00000+HE0000000876+0000000876+000000000+000000123+0000000990+0000000009+I20000000000+0000000990+Z
209833001209833077-000150-D   209833006003000054343GIFT-WRAP CELLPHANE CLR0000001000+00000876+00000+0001T   00000876+0000001020          1400 LP3112               1AZ
209834000209834               209834               170213HE     1400+00000+HE0000003507+0000003507+000000000+000000491+0000003990+0000000008+I20000000000+0000003990+Z
209834001209834261-000035     209834006003000550258GUN 4PC POLICE SET     0000001000+00003507+00000+0001T   00003507+0000001025          1400 LP3710               1AZ
209835000209835               209835               170213HE     1400+00000+HE0000000035+0000000035+000000000+000000005+0000000040+0000000000+I20000000000+0000000040+Z
209835001209835112-116038     209835006009681820246TCS CARRIER BAG MIDI   0000001000+00000035+00000+0001T   00000035+0000001025          1400 LP3090               1AZ
209836000209836               209836               170213HE     1400+00000+HE0000012716+0000012716+000000000+000001781+0000014490+0000000007+I20000000000+0000014490+Z
209836001209836107-004105     209836006002923010504BUCKET 9L OPEN         0000001000+00001314+00000+0001T   00001314+0000001057          1400 LP3210               1AZ
209836002209836104-000140     209836006002923019835WASTEPAPER BIN FLIP 24L0000001000+00011402+00000+0001T   00011402+0000001057          1400 LP3210               1AZ
209837000209837               209837               170213HE     1400+00000+HE0000002665+0000002665+000000000+000000374+0000003030+0000000009+I20000000000+0000003030+Z
209837001209837204-000059     209837006001023528162MEMO HOLDER APPS 18PC  0000001000+00002630+00000+0001T   00002630+0000001059          1400 LP3300               1AZ
209837002209837112-116038     209837006009681820246TCS CARRIER BAG MIDI   0000001000+00000035+00000+0001T   00000035+0000001059          1400 LP3090               1AZ
209838000209838               209838               170213HE     1400+00000+HE0000011749+0000011749+000000000+000001647+0000013390+0000000006+I20000000000+0000013390+Z
209838001209838304-001011     209838006001023806727FLWR ROSE RED W/BEAR   0000001000+00000613+00000+0001T   00000788+0006471142          1400 LP3510               1AZ
209838002209838041-093000     209838006003000320882B/GIFT SET 4PC B/RANGE 0000001000+00007016+00000+0001T   00007016+0000001142          1400 LP3200               1AZ
209838003209838018-000129     209838006001023403353MUG OCC. LOVE V-SHAPE  0000001000+00002630+00000+0001T   00002630+0000001142          1400 LP3515               1AZ
209838004209838077-000299     209838006003000395576G/BAG 32x25cm LRG LOVE 0000001000+00001490+00000+0001T   00001490+0000001142          1400 LP3112               1AZ
209839000209839               209839               170213HE     1400+00000+HE0000026961+0000026961+000000000+000003779+0000030740+0000000000+I40000030740+0000000000+Z
209839001209839105-008005     209839006002580009484STORAGE CONTAINER 7.5L 0000001000+00004385+00000+0001T   00004385+0000001147          1400 LP3210               1AZ
209839002209839140-001007     209839006001023617163FLY-STICK STAND 260x36 0000001000+00003069+00000+0001T   00003069+0000001147          1400 LP3830               1AZ
209839003209839077-000373     209839006003000395217G/BAG MED 18X23CM DESGN0000001000+00001753+00000+0001T   00001753+0000001147          1400 LP3112               1AZ
209839004209839079-006519     209839006003000542956A&C GLOW IN DARK PEN   0000001000+00001753+00000+0001T   00001753+0000001147          1400 LP3130               1AZ
209839005209839078-000026     209839006936198407090SUPERGLUE 3,0g GEL     0000001000+00001753+00000+0001T   00001753+0000001147          1400 LP3810               1AZ
209839006209839306-001135-A   209839006003000359110FIRSTAID SUPPORT HAND  0000002000+00001314+00000+0001T   00001753+0008171147          1400 LP3200               1AZ
209839007209839004-071268     209839006001023816979LCD MICROFIBRE CLEANER 0000001000+00001753+00000+0001T   00002630+0008191147          1400 LP3310               1AZ
209839008209839206-000630     209839006003000631919SPECTACLE CLEANING BRUS0000003000+00001227+00000+0001T   00001227+0000001147          1400 LP3321               1AZ
209839009209839036-000501     209839006003000417407HOOK HANGER CHROME     0000001000+00004385+00000+0001T   00004385+0000001147          1400 LP3212               1AZ
209839010209839158-000005     209839006001023594839CELLPHONE STAND 10.5cm 0000001000+00001753+00000+0001T   00002630+0008171147          1400 LP3300               1AZ
209839011209839112-116069     209839006009681820277TCS CARRIER BAG JUMBO  0000001000+00000048+00000+0001T   00000048+0000001147          1400 LP3090               1AZ
209840000209840               209840               170213HE     1400+00000+HE0000004420+0000004420+000000000+000000619+0000005030+0000000009+I20000000000+0000005030+Z
209840001209840368-000049     209840006003000536955PLUSH BEAR 15cm LOVE   0000001000+00004385+00000+0001T   00004385+0000001155          1400 LP3745               1AZ
209840002209840112-116038     209840006009681820246TCS CARRIER BAG MIDI   0000001000+00000035+00000+0001T   00000035+0000001155          1400 LP3090               1AZ
209841000209841               209841               170213HE     1400+00000+HE0000000437+0000000437+000000000+000000062+0000000490+0000000009+I20000000000+0000000490+Z
209841001209841007-000193     209841006009635831731BK JOTTER A4 72-PG F/M 0000001000+00000437+00000+0001T   00000437+0000001203          1400 LP3130               1AZ
209842000209842               209842               170213HE     1400+00000+HE0000009342+0000009342+000000000+000001309+0000010651+0000000000+I40000010651+0000000000+Z
209842001209842018-000127     209842006001023380289MUG OCC STRAIGHT LOVE  0000002000+00001578+00000+0001T   00001753+0006471320          1400 LP3515               1AZ
209842002209842018-019000     209842006003000557288MUG OCC. LOVE JUMBO    0000001000+00005262+00000+0001T   00005262+0000001320          1400 LP3515               1AZ
209842003209842112-116069     209842006009681820277TCS CARRIER BAG JUMBO  0000001000+00000048+00000+0001T   00000048+0000001320          1400 LP3090               1AZ
209842004209842077-000150-D   209842006003000054343GIFT-WRAP CELLPHANE CLR0000001000+00000876+00000+0001T   00000876+0000001320          1400 LP3112               1AZ
209843000209843               209843               170213HE     1400+00000+HE0000001313+0000001313+000000000+000000184+0000001490+0000000007+I20000000000+0000001490+Z
209843001209843077-000317     209843006001023609748GIFT-BAG 11X14CM E/D AN0000001000+00000613+00000+0001T   00000613+0000001327          1400 LP3112               1AZ
209843002209843018-000177     209843006001023797513MUG MINI LOVE ASSTD    0000001000+00000700+00000+0001T   00000700+0000001327          1400 LP3515               1AZ
209844000209844               209844               170213HE     1400+00000+HE0000007064+0000007064+000000000+000000990+0000008050+0000000004+I20000000000+0000008050+Z
209844001209844112-116069     209844006009681820277TCS CARRIER BAG JUMBO  0000001000+00000048+00000+0001T   00000048+0000001332          1400 LP3090               1AZ
209844002209844065-003639     209844006001023787620GUITAR ROCKER          0000001000+00007016+00000+0001T   00007016+0000001332          1400 LP3745               1AZ
209845000209845               209845               170213HE     1400+00000+HE0000004383+0000004383+000000000+000000615+0000004990+0000000008+I20000000000+0000004990+Z
209845001209845466-000200     209845006001023621665HULA-HOOP     ASSTD    0000001000+00001753+00000+0001T   00001753+0000001341          1400 LP3785               1AZ
209845002209845106-001125     209845006003000666270WATER BOTTLE 600ml     0000001000+00002630+00000+0001T   00002630+0000001341          1400 LP3210               1AZ
209846000209846               209846               170213HE     1400+00000+HE0000002630+0000002630+000000000+000000369+0000002990+0000000009+I20000000000+0000002990+Z
209846001209846031-005919     209846006003000580576P/FRAME PL PLAIN 13X18 0000001000+00002630+00000+0001T   00002630+0000001344          1400 LP3510               1AZ
209847000209847               209847               170213HE     1400+00000+HE0000001578+0000001578+000000000+000000221+0000001799+0000000000+I40000001799+0000000000+Z
209847001209847077-000303     209847006001023593757GIFT-BAG PAPER MED     0000001000+00001578+00000+0001T   00001578+0000001346          1400 LP3112               1AZ
209848000209848               209848               170213HE     1400+00000+HE0000015171+0000015171+000000000+000002126+0000017290+0000000007+I20000000000+0000017290+Z
209848001209848368-000111     209848006001023780812PLUSH BEAR/DOG 29CM    0000001000+00012279+00000+0001T   00012279+0000001351          1400 LP3745               1AZ
209848002209848077-000327     209848006001023677686GIFT-BAG 25X32CM E/D BA0000001000+00001490+00000+0001T   00001490+0000001351          1400 LP3112               1AZ
209848003209848304-001204     209848006001023737984FLOWER OCC. TEDDY/ROSES0000001000+00001402+00000+0001T   00001490+0006471351          1400 LP3510               1AZ
209849000209849               209849               170213HE     1400+00000+HE0000000048+0000000048+000000000+000000007+0000000050+0000000005+I20000000000+0000000050+Z
209849001209849112-116069     209849006009681820277TCS CARRIER BAG JUMBO  0000001000+00000048+00000+0001T   00000048+0000001352          1400 LP3090               1AZ
209850000209850               209850               170213HE     1400+00000+HE0000001490+0000001490+000000000+000000209+0000001690+0000000009+I20000000000+0000001690+Z
209850001209850077-000299     209850006003000395576G/BAG 32x25cm LRG LOVE 0000001000+00001490+00000+0001T   00001490+0000001354          1400 LP3112               1AZ
209851000209851               209851               170213HE     1400+00000+HE0000001753+0000001753+000000000+000000246+0000001990+0000000009+I20000000000+0000001990+Z
209851001209851077-000115     209851006001023834225WRAP METALLIC 700mmx1m 0000001000+00001753+00000+0001T   00001753+0000001355          1400 LP3112               1AZ
209852000209852               209852               170213HE     1400+00000+HE0000001314+0000001314+000000000+000000184+0000001490+0000000008+I20000000000+0000001490+Z
209852001209852077-000470     209852006003000330171G-BAG DESGN SML 11X14CM0000001000+00001314+00000+0001T   00001314+0000001357          1400 LP3112               1AZ
209853000209853               209853               170213HE     1400+00000+HE0000006138+0000006138+000000000+000000860+0000006998+0000000000+I40000006998+0000000000+Z
209853001209853002-000740     209853006001023763945GRATER 4-WAY WHITE     0000001000+00002192+00000+0001T   00002192+0000001414          1400 LP3300               1AZ
209853002209853002-000715     209853006001023806574CUTTING-BOARD 28x20cm  0000001000+00003946+00000+0001T   00003946+0000001414          1400 LP3300               1AZ
209854000209854               209854               170213HE     1400+00000+HE0000003542+0000003542+000000000+000000496+0000004030+0000000008+I20000000000+0000004030+Z
209854001209854018-000136     209854006001023659026MUG OCC LOVE W/PLUSH   0000001000+00003507+00000+0001T   00003507+0000001415          1400 LP3515               1AZ
209854002209854112-116038     209854006009681820246TCS CARRIER BAG MIDI   0000001000+00000035+00000+0001T   00000035+0000001415          1400 LP3090               1AZ
209855000209855               209855               170213HE     1400+00000+HE0000002630+0000002630+000000000+000000369+0000002990+0000000009+I20000000000+0000002990+Z
209855001209855106-001125     209855006003000666270WATER BOTTLE 600ml     0000001000+00002630+00000+0001T   00002630+0000001415          1400 LP3210               1AZ
209856000209856               209856               170213HE     1400+00000+HE0000008377+0000008377+000000000+000001174+0000009550+0000000001+I20000000000+0000009550+Z
209856001209856071-003011     209856006001023762825PEN STICKBALL X10 ASSTD0000001000+00001753+00000+0001T   00001753+0000001418          1400 LP3130               1AZ
209856002209856006-000789     209856006001023148612CROWN BOY              0000003000+00002192+00000+0001T   00002192+0000001418          1400 LP3131               1AZ
209856003209856112-116069     209856006009681820277TCS CARRIER BAG JUMBO  0000001000+00000048+00000+0001T   00000048+0000001418          1400 LP3090               1AZ
209857000209857               209857               170213HE     1400+00000+HE0000000613+0000000613+000000000+000000086+0000000690+0000000009+I20000000000+0000000690+Z
209857001209857077-000906     209857006003000410804G/WRAP 700mmx1m BIRTHDA0000001000-00001753+00000+0001T   00001753+0000001432          1400 LP31121IC            1 Z
209857002209857077-000906     209857006003000410804G/WRAP 700mmx1m BIRTHDA0000001000+00001753+00000+0001T   00001753+0000001432          1400 LP31121IC            1AZ
209857003209857304-001011     209857006001023806727FLWR ROSE RED W/BEAR   0000001000+00000613+00000+0001T   00000788+0006471432          1400 LP3510               1AZ
209858000209858               209858               170213HE     1400+00000+HE0000002192+0000002192+000000000+000000307+0000002490+0000000009+I20000000000+0000002490+Z
209858001209858077-000924     209858006003000414055G/WRAP 700mmx2m WEDDING0000001000+00002192+00000+0001T   00002192+0000001446          1400 LP3112               1AZ
209859000209859               209859               170213HE     1400+00000+HE0000004385+0000004385+000000000+000000614+0000004990+0000000009+I20000000000+0000004990+Z
209859001209859030-000031-A   209859006003000457588PLAQUE W/WORDS ASSTD   0000001000+00004385+00000+0001T   00004823+0006471501          1400 LP3505               1AZ
209860000209860               209860               170213HE     1400+00000+HE0000012763+0000012763+000000000+000001789+0000014550+0000000002+I20000000000+0000014550+Z
209860001209860041-093000     209860006003000320882B/GIFT SET 4PC B/RANGE 0000001000+00007016+00000+0001T   00007016+0000001516          1400 LP3200               1AZ
209860002209860304-001116     209860006003000426164F/BUNCH ROSES 12-HEAD  0000001000+00005262+00000+0001T   00005262+0000001516          1400 LP3510               1AZ
209860003209860080-000133-A   209860006003000647019MINI VALENTINES CARD   0000001000+00000437+00000+0001T   00000437+0000001516          1400 LP3112               1AZ
209860004209860112-116069     209860006009681820277TCS CARRIER BAG JUMBO  0000001000+00000048+00000+0001T   00000048+0000001516          1400 LP3090               1AZ
209861000209861               209861               170213HE     1400+00000+HE0000004679+0000004679+000000000+000000657+0000005330+0000000006+I20000000000+0000005330+Z
209861001209861077-000408     209861006003000145218G/BAG PP 15X21X7CM     0000001000+00000876+00000+0001T   00000876+0000001527          1400 LP3112               1AZ
209861002209861301-085002     209861006003000420704ORN OCC. LOVE BELL ASST0000001000+00001753+00000+0001T   00002630+0008121527          1400 LP3505               1AZ
209861003209861018-000127     209861006001023380289MUG OCC STRAIGHT LOVE  0000001000+00001578+00000+0001T   00001753+0006471527          1400 LP3515               1AZ
209861004209861080-000133-A   209861006003000647019MINI VALENTINES CARD   0000001000+00000437+00000+0001T   00000437+0000001527          1400 LP3112               1AZ
209861005209861112-116038     209861006009681820246TCS CARRIER BAG MIDI   0000001000+00000035+00000+0001T   00000035+0000001527          1400 LP3090               1AZ
209862000209862               209862               170213HE     1400+00000+HE0000005998+0000005998+000000000+000000840+0000006830+0000000008+I20000000000+0000006830+Z
209862001209862077-000303     209862006001023593757GIFT-BAG PAPER MED     0000001000+00001578+00000+0001T   00001578+0000001532          1400 LP3112               1AZ
209862002209862001-000175     209862006001023788108B/MUG GLS LOVE 380ML   0000001000+00004385+00000+0001T   00004385+0000001532          1400 LP3515               1AZ
209862003209862112-116038     209862006009681820246TCS CARRIER BAG MIDI   0000001000+00000035+00000+0001T   00000035+0000001532          1400 LP3090               1AZ
209863000209863               209863               170213HE     1400+00000+HE0000001578-0000001578-000000000+000000221-0000001800-0000000001+I20000000000+0000001800-Z
209863001209863018-000127     209863006001023380289MUG OCC STRAIGHT LOVE  0000001000-00001578+00000+0001T   00001753+0006471539          1400 LP35152IC            1 Z
209864000209864               209864               170213HE     1400+00000+HE0000001314+0000001314+000000000+000000184+0000001490+0000000008+I20000000000+0000001490+Z
209864001209864200-000066     209864006003000365975STRAWS 12PCE W/UMBRELLA0000001000+00001314+00000+0001T   00001314+0000001547          1400 LP3214               1AZ
209865000209865               209865               170213HE     1400+00000+HE0000004155+0000004155+000000000+000000583+0000004738+0000000000+I40000004738+0000000000+Z
209865001209865077-000452     209865006003000284986G/BAG METALLIC MED EMB 0000001000+00001490+00000+0001T   00001490+0000001603          1400 LP3112               1AZ
209865002209865304-000720     209865006001023843050F/BUNCH ROSE 6-HEAD AST0000001000+00002630+00000+0001T   00002630+0000001603          1400 LP3510               1AZ
209865003209865112-116038     209865006009681820246TCS CARRIER BAG MIDI   0000001000+00000035+00000+0001T   00000035+0000001603          1400 LP3090               1AZ
209866000209866               209866               170213HE     1400+00000+HE0000006226+0000006226+000000000+000000872+0000007090+0000000008+I20000000000+0000007090+Z
209866001209866007-000204     209866006009635835272EXAM-PAD 60SHT PUNCHED 0000001000+00000964+00000+0001T   00000964+0000001605          1400 LP3130               1AZ
209866002209866016-006524     209866006003000579358S/JAR GLS 750ml ASSTD  0000001000+00005262+00000+0001T   00005262+0000001605          1400 LP3300               1AZ
209867000209867               209867               170213HE     1400+00000+HE0000002630+0000002630+000000000+000000369+0000002990+0000000009+I20000000000+0000002990+Z
209867001209867159-000684     209867006001023776532BATH BODY-GLOVE 18cm   0000001000+00002630+00000+0001T   00002630+0000001625          1400 LP3200               1AZ
209868000209868               209868               170213HE     1400+00000+HE0000002366+0000002366+000000000+000000332+0000002690+0000000008+I20000000000+0000002690+Z
209868001209868077-000311     209868006001023608666GIFT-BAG 11X14CM GLOSS 0000001000+00000613+00000+0001T   00000613+0000001626          1400 LP3112               1AZ
209868002209868133-000381     209868006001023713674TABLE-CLOTH 132x178cm  0000001000+00001753+00000+0001T   00001753+0000001626          1400 LP3212               1AZ
209869000209869               209869               170213HE     1400+00000+HE0000011401+0000011401+000000000+000001597+0000012998+0000000000+I40000012998+0000000000+Z
209869001209869366-001101     209869006003000006991DRESS UP BOYS ASSTD    0000001000+00006139+00000+0001T   00006139+0000001630          1400 LP3131               1AZ
209869002209869158-000167     209869006003000569588WASTEPAPER-BASKET 26cm 0000001000+00005262+00000+0001T   00005262+0000001630          1400 LP3300               1AZ
209870000209870               209870               170213HE     1400+00000+HE0000001752+0000001752+000000000+000000246+0000001990+0000000008+I20000000000+0000001990+Z
209870001209870252-000013     209870006001023488107CURTN-HOOK R6 ACETYLx500000001000+00000876+00000+0001T   00000876+0000001631          1400 LP3810               1AZ
209870002209870252-000011     209870006001023475190CURTN-GLIDER ACETYL x500000001000+00000876+00000+0001T   00000876+0000001631          1400 LP3810               1AZ
209871000209871               209871               170213HE     1400+00000+HE0000002630+0000002630+000000000+000000369+0000002990+0000000009+I20000000000+0000002990+Z
209871001209871079-000601     209871006003000640379ART+CRAFT SHEETS METAL 0000001000+00002630+00000+0001T   00002630+0000001638          1400 LP3130               1AZ
209872000209872               209872               170213HE     1400+00000+HE0000005085+0000005085+000000000+000000712+0000005797+0000000000+I40000005797+0000000000+Z
209872001209872403-000033     209872006003000674053JEWELLERY HOLDER MTL   0000001000+00004385+00000+0001T   00004385+0000001641          1400 LP3510               1AZ
209872002209872903-000070     209872006001704001106SWT TOFFEE CREAMY 35g  0000001000+00000700+00000+0001T   00000700+0000001641          1400 LP3150               1AZ
209873000209873               209873               170213HE     1400+00000+HE0000002629+0000002629+000000000+000000369+0000002990+0000000008+I20000000000+0000002990+Z
209873001209873006-000107     209873006003000587872BALLOONS ITS BOY/GIRL  0000001000+00001753+00000+0001T   00001753+0000001643          1400 LP3131               1AZ
209873002209873028-000797     209873006001023812124SKEWERS 15cm 100PCE    0000001000+00000876+00000+0001T   00000876+0000001643          1400 LP3305               1AZ
209874000209874               209874               170213HE     1400+00000+HE0000001753+0000001753+000000000+000000246+0000001990+0000000009+I20000000000+0000001990+Z
209874001209874077-000382     209874006003000247820GIFT-BAG MED 18X23CM   0000001000+00001753+00000+0001T   00001753+0000001646          1400 LP3112               1AZ
209875000209875               209875               170213HE     1400+00000+HE0000001578+0000001578+000000000+000000221+0000001790+0000000009+I20000000000+0000001790+Z
209875001209875077-000303     209875006001023593757GIFT-BAG PAPER MED     0000001000+00001578+00000+0001T   00001578+0000001647          1400 LP3112               1AZ
209876000209876               209876               170213HE     1400+00000+HE0000000876+0000000876+000000000+000000123+0000000999+0000000000+I40000000999+0000000000+Z
209876001209876077-000150-D   209876006003000054343GIFT-WRAP CELLPHANE CLR0000001000+00000876+00000+0001T   00000876+0000001648          1400 LP3112               1AZ
209877000209877               209877               170213HE     1400+00000+HE0000003104+0000003104+000000000+000000435+0000003530+0000000009+I20000000000+0000003530+Z
209877001209877003-001001     209877006001023722553ORN GARDEN OWL 10.5cm  0000001000+00003069+00000+0001T   00003069+0000001651          1400 LP3505               1AZ
209877002209877112-116038     209877006009681820246TCS CARRIER BAG MIDI   0000001000+00000035+00000+0001T   00000035+0000001651          1400 LP3090               1AZ
209878000209878               209878               170213HE     1400+00000+HE0000000393+0000000393+000000000+000000056+0000000440+0000000009+I20000000000+0000000440+Z
209878001209878903-000183     209878006003000451043SWT LB HEART LOLLY     0000001000+00000393+00000+0001T   00000393+0000001652          1400 LP3150               1AZ
209879000209879               209879               170213HE     1400+00000+HE0000001752+0000001752+000000000+000000246+0000001990+0000000008+I20000000000+0000001990+Z
209879001209879078-000025     209879008887013700064SUPERGLUE 3g 1PCE CARD 0000002000+00000876+00000+0001T   00000876+0000001652          1400 LP3810               1AZ
209880000209880               209880               170213HE     1400+00000+HE0000003979+0000003979+000000000+000000558+0000004530+0000000007+I20000000000+0000004530+Z
209880001209880018-005009     209880006001023725608MUG W/PLUSH-BEAR LOVE  0000001000+00003507+00000+0001T   00003507+0000001653          1400 LP3515               1AZ
209880002209880080-000133-A   209880006003000647019MINI VALENTINES CARD   0000001000+00000437+00000+0001T   00000437+0000001653          1400 LP3112               1AZ
209880003209880112-116038     209880006009681820246TCS CARRIER BAG MIDI   0000001000+00000035+00000+0001T   00000035+0000001653          1400 LP3090               1AZ
209881000209881               209881               170213HE     1400+00000+HE0000005207+0000005207+000000000+000000730+0000005930+0000000007+I20000000000+0000005930+Z
209881001209881018-000170     209881006001023775528MUG OCC. LOVE 2PC MINI 0000001000+00002192+00000+0001T   00002192+0000001655          1400 LP3515               1AZ
209881002209881304-001204     209881006001023737984FLOWER OCC. TEDDY/ROSES0000001000+00001402+00000+0001T   00001490+0006471655          1400 LP3510               1AZ
209881003209881077-000303     209881006001023593757GIFT-BAG PAPER MED     0000001000+00001578+00000+0001T   00001578+0000001655          1400 LP3112               1AZ
209881004209881112-116038     209881006009681820246TCS CARRIER BAG MIDI   0000001000+00000035+00000+0001T   00000035+0000001655          1400 LP3090               1AZ
209882000209882               209882               170213HE     1400+00000+HE0000012978+0000012978+000000000+000001818+0000014790+0000000006+I20000000000+0000014790+Z
209882001209882301-085007     209882006003000673698ORN OCC. LOVE S/PLAQUE 0000001000+00007893+00000+0001T   00007893+0000001656          1400 LP3505               1AZ
209882002209882018-000130     209882006001023867537MUG OCC LOVE MINI+HEART0000001000+00003507+00000+0001T   00003507+0000001656          1400 LP3515               1AZ
209882003209882077-000303     209882006001023593757GIFT-BAG PAPER MED     0000001000+00001578+00000+0001T   00001578+0000001656          1400 LP3112               1AZ
209883000209883               209883               170213HE     1400+00000+HE0000005287+0000005287+000000000+000000745+0000006030+0000000002+I20000000000+0000006030+Z
209883001209883903-000183     209883006003000451043SWT LB HEART LOLLY     0000002000+00000393+00000+0001T   00000393+0000001658          1400 LP3150               1AZ
209883002209883903-000200     209883006009826020234SWT CHOC RP CHOCO 23G  0000004000+00000788+00000+0001T   00000788+0000001658          1400 LP3150               1AZ
209883003209883566-001012     209883006001023528070STICKERS GLOW IN DARK  0000001000+00001314+00000+0001T   00001314+0000001658          1400 LP3130               1AZ
209883004209883112-116038     209883006009681820246TCS CARRIER BAG MIDI   0000001000+00000035+00000+0001T   00000035+0000001658          1400 LP3090               1AZ
209884000209884               209884               170213HE     1400+00000+HE0000005030+0000005030+000000000+000000705+0000005730+0000000005+I20000000000+0000005730+Z
209884001209884903-000843     209884008693029031067SWT GUMMY JELAXY 80G   0000001000+00000964+00000+0001T   00000964+0000001659          1400 LP3150               1AZ
209884002209884903-004960     209884008410525221842SWT GUMMY STR/BERRY 50G0000001000+00000964+00000+0001T   00000964+0000001659          1400 LP3150               1AZ
209884003209884903-000123     209884006925925909280SWEET GS MINI MALLOWS  0000001000+00000876+00000+0001T   00000876+0000001659          1400 LP3150               1AZ
209884004209884903-000518     209884006001704012782SWT STRAWS S/BERRY 100g0000001000+00001227+00000+0001T   00001227+0000001659          1400 LP3150               1AZ
209884005209884903-000843     209884008693029031067SWT GUMMY JELAXY 80G   0000001000+00000964+00000+0001T   00000964+0000001659          1400 LP3150               1AZ
209884006209884112-116038     209884006009681820246TCS CARRIER BAG MIDI   0000001000+00000035+00000+0001T   00000035+0000001659          1400 LP3090               1AZ
209885000209885               209885               170213HE     1400+00000+HE0000012831+0000012831+000000000+000001799+0000014630+0000000000+I20000000000+0000014630+Z
209885001209885304-001011     209885006001023806727FLWR ROSE RED W/BEAR   0000001000+00000613+00000+0001T   00000788+0006471701          1400 LP3510               1AZ
209885002209885903-000095     209885006001704011495SWT SPECKLED-EGGS 100G 0000001000+00002104+00000+0001T   00002104+0000001701          1400 LP3150               1AZ
209885003209885903-000861     209885005010478430822SWT LOVE HEARTS SML    0000001000+00000876+00000+0001T   00000876+0000001701          1400 LP3150               1AZ
209885004209885903-000200     209885006009826020234SWT CHOC RP CHOCO 23G  0000001000+00000788+00000+0001T   00000788+0000001701          1400 LP3150               1AZ
209885005209885077-000303     209885006001023593757GIFT-BAG PAPER MED     0000001000+00001578+00000+0001T   00001578+0000001701          1400 LP3112               1AZ
209885006209885903-000848     209885008692806080076SWT SNACK BISCUIT 70g  0000002000+00000613+00000+0001T   00000613+0000001701          1400 LP3150               1AZ
209885007209885903-000849     209885008692806080083SWT SNACK BISCUIT 70g  0000002000+00000613+00000+0001T   00000613+0000001701          1400 LP3150               1AZ
209885008209885112-116038     209885006009681820246TCS CARRIER BAG MIDI   0000001000+00000035+00000+0001T   00000035+0000001701          1400 LP3090               1AZ
209885009209885162-010772     209885006001492107721#TAG LDS WRISTWEAR TURQ0000001000+00004385+00000+0001T   00004385+0000001701          1400 LP3160               1AZ
209886000209886               209886               170213HE     1400+00000+HE0000003944+0000003944+000000000+000000553+0000004490+0000000007+I20000000000+0000004490+Z
209886001209886361-003009     209886006003000210442DOLL BABY BENDABLE 3PCE0000001000+00002630+00000+0001T   00002630+0000001702          1400 LP3725               1AZ
209886002209886565-000892-A   209886006003000690725NOVELTY FUN BALL       0000001000+00001314+00000+0001T   00001753+0008141702          1400 LP3745               1AZ
209887000209887               209887               170213HE     1400+00000+HE0000007277+0000007277+000000000+000001019+0000008290+0000000006+I20000000000+0000008290+Z
209887001209887018-000170     209887006001023775528MUG OCC. LOVE 2PC MINI 0000001000+00002192+00000+0001T   00002192+0000001704          1400 LP3515               1AZ
209887002209887018-000136     209887006001023659026MUG OCC LOVE W/PLUSH   0000001000+00003507+00000+0001T   00003507+0000001704          1400 LP3515               1AZ
209887003209887301-006010     209887006001023861245ORN BEAR POLY W/JERSEY 0000001000+00002192+00000+0001T   00002192+0000001704          1400 LP3505               1AZ
209887004209887080-000124     209887006003000297733CARD & ENV VALENTINES  0000001000+00001578+00000+0001T   00001578+0000001704          1400 LP3112               1AZ
209887005209887301-006010     209887006001023861245ORN BEAR POLY W/JERSEY 0000001000-00002192+00000+0001T   00002192+0000001704          1400 LP35051IC            1 Z
209888000209888               209888               170213HE     1400+00000+HE0000000035+0000000035+000000000+000000005+0000000040+0000000000+I20000000000+0000000040+Z
209888001209888112-116038     209888006009681820246TCS CARRIER BAG MIDI   0000001000+00000035+00000+0001T   00000035+0000001705          1400 LP3090               1AZ
209889000209889               209889               170213HE     1400+00000+HE0000000613+0000000613+000000000+000000086+0000000690+0000000009+I20000000000+0000000690+Z
209889001209889077-000311     209889006001023608666GIFT-BAG 11X14CM GLOSS 0000001000+00000613+00000+0001T   00000613+0000001708          1400 LP3112               1AZ
209890000209890               209890               170213HE     1400+00000+HE0000006139+0000006139+000000000+000000860+0000006990+0000000009+I20000000000+0000006990+Z
209890001209890263-000176     209890006001023790446CAR PL RACER           0000001000+00006139+00000+0001T   00006139+0000001716          1400 LP3710               1AZ
209891000209891               209891               170213HE     1400+00000+HE0000001926+0000001926+000000000+000000270+0000002190+0000000006+I20000000000+0000002190+Z
209891001209891304-001502     209891006003000035533FLWR SATIN R/BUD 55CM  0000001000+00000613+00000+0001T   00000613+0000001719          1400 LP3510               1AZ
209891002209891018-000177     209891006001023797513MUG MINI LOVE ASSTD    0000001000+00000700+00000+0001T   00000700+0000001719          1400 LP3515               1AZ
209891003209891077-000311     209891006001023608666GIFT-BAG 11X14CM GLOSS 0000001000+00000613+00000+0001T   00000613+0000001719          1400 LP3112               1AZ
A17021300                                          09054621HESLAVE 1                       1IC1IC
A17021301                                          10010383HESLAVE 1                       LP31IC
A17021302                                          11002897HESLAVE 1                       LP31IC
A17021303                                          12461970HESLAVE 1                       1IC1IC
M17021391                              CASH        HESLAVE 1                       Z-REPORT No.   615TOTAL (Sales - Refunds)           3268.40       CASH TO BE BANKED                 2521.20       DEBIT CARDS                          0.00       CREDIT CARDS                       747.20       Z-READING                         3268.40       AIRTIME DEBIT CARD SALES             0.00       AIRTIME CARD SALES                   0.00       OVERS/UNDERS                         0.00       AIRTIME CASH SALES                   0.00       GIFT CARDS                           0.00       GIFT CARD CASH SALES                 0.00       T O T A L  CASH PAYOUTS              0.00                                                                                                                                                                                                                                                                                                                                                      Z
M17021392                              CASH        HEABSENT                                                                                                                                                                                          ANNUAL LEAVE                                                                                                                                                                                    DAY OFF                                                                                                                                                                                         COMMENTS                                                                                                                                                                                                                                                                                                                                                                                       Z
Y17021300                                          HE00000000292525+000063
ZHE17021319463 SLAVE 1      SALES DATA                     NEXT INVOICE NO.  209892 0615
X HE Slave 1 First invoice 209828 170213 Last invoice 209891 170213 Next invoice 209892 Total number of records 000000216 clbackup completed 19:46:18
