306035000306035               306035               170213HF     1400+00000+HF0000011447+0000011447+000000000+000001604+0000013051+0000000000+I40000013051+0000000000+Z
306035001306035112-116069     306035006009681820277TCS CARRIER BAG JUMBO  0000001000+00000048+00000+0001T   00000048+0000000916          1400 ZS6090               1AZ
306035002306035036-000500     306035006003000663903BASKET WIRE 39x27x13cm 0000001000+00005262+00000+0001T   00005262+0000000916          1400 ZS6212               1AZ
306035003306035036-005010     306035006002580008739COATHANGER KIDDIES PL  0000001000+00002630+00000+0001T   00002630+0000000916          1400 ZS6212               1AZ
306035004306035200-000012     306035006003000399536BAG 50PCE 165x146mm    0000001000+00003507+00000+0001T   00003507+0000000916          1400 ZS6214               1AZ
306036000306036               306036               170213HF     1400+00000+HF0000000964+0000000964+000000000+000000135+0000001090+0000000009+I20000000000+0000001090+Z
306036001306036150-000774     306036006005387116003UTILITY-BOX MEDIUM     0000001000+00000964+00000+0001T   00000964+0000000917          1400 ZS6810               1AZ
306037000306037               306037               170213HF     1400+00000+HF0000000876+0000000876+000000000+000000123+0000000990+0000000009+I20000000000+0000000990+Z
306037001306037077-000011-F   306037006001023808431TISSUE-WRAP BLUE/LILAC 0000001000+00000876+00000+0001T   00000876+0000000924          1400 ZS6112               1AZ
306038000306038               306038               170213HF     1400+00000+HF0000004119+0000004119+000000000+000000578+0000004697+0000000000+I40000004697+0000000000+Z
306038001306038077-000314     306038006003000181148GIFT-BAG 11X14CM MATT  0000001000+00000876+00000+0001T   00000876+0000000937          1400 ZS6112               1AZ
306038002306038089-000030     306038006003000575671K/CHAIN LOVE MTL ASSTD 0000001000+00001753+00000+0001T   00001753+0000000937          1400 ZS6205               1AZ
306038003306038089-001021     306038006003000112319KEY CHAIN MINI BIBLE   0000001000+00001490+00000+0001T   00001490+0000000937          1400 ZS6205               1AZ
306039000306039               306039               170213HF     1400+00000+HF0000012278+0000012278+000000000+000001720+0000013990+0000000008+I20000000000+0000013990+Z
306039001306039077-000314     306039006003000181148GIFT-BAG 11X14CM MATT  0000001000+00000876+00000+0001T   00000876+0000000939          1400 ZS6112               1AZ
306039002306039586-091720     306039006001492917207HEART WTCH & N/LACE SET0000001000+00011402+00000+0001T   00011402+0000000939          1400 ZS6160               1AZ
306040000306040               306040               170213HF     1400+00000+HF0000005260+0000005260+000000000+000000737+0000005990+0000000007+I20000000000+0000005990+Z
306040001306040018-000136     306040006001023659026MUG OCC LOVE W/PLUSH   0000001000+00003507+00000+0001T   00003507+0000000940          1400 ZS6515               1AZ
306040002306040077-000471     306040006003000330096G-BAG DESGN MED 18X23CM0000001000+00001753+00000+0001T   00001753+0000000940          1400 ZS6112               1AZ
306041000306041               306041               170213HF     1400+00000+HF0000021047+0000021047+000000000+000002949+0000023990+0000000006+I20000000000+0000023990+Z
306041001306041077-000270     306041006003000395453GIFT-BAG PPR JMB 33X45 0000001000+00002630+00000+0001T   00002630+0000000947          1400 ZS6112               1AZ
306041002306041368-000175     306041006003000270316PLUSH BEAR 4 ASSTD 18CM0000003000+00006139+00000+0001T   00006139+0000000947          1400 ZS6745               1AZ
306042000306042               306042               170213HF     1400+00000+HF0000023726+0000023726+000000000+000003324+0000027050+0000000000+I40000027050+0000000000+Z
306042001306042112-116069     306042006009681820277TCS CARRIER BAG JUMBO  0000001000+00000048+00000+0001T   00000048+0000000952          1400 ZS6090               1AZ
306042002306042072-020255     306042006003000451487PET DOG CHEW BONE PK-2 0000001000+00004385+00000+0001T   00004385+0000000952          1400 ZS6870               1AZ
306042003306042072-020285     306042006003000451364PET CAT TOY BALLS PK-4 0000001000+00002630+00000+0001T   00002630+0000000952          1400 ZS6870               1AZ
306042004306042072-020249     306042006003000451241PET BLANKET FLEECE     0000001000+00005262+00000+0001T   00005262+0000000952          1400 ZS6870               1AZ
306042005306042072-000329     306042006001023904706PET CAT COLLAR LINING  0000001000+00002630+00000+0001T   00002630+0000000952          1400 ZS6870               1AZ
306042006306042072-020242     306042006003000053728PET BED COTTON TEXTILE 0000001000+00008771+00000+0001T   00008771+0000000952          1400 ZS6870               1AZ
306043000306043               306043               170213HF     1400+00000+HF0000008200+0000008200+000000000+000001150+0000009350+0000000000+I40000009350+0000000000+Z
306043001306043077-000932     306043006003000409808G/WRAP 700mmx5m PATTERN0000001000+00003507+00000+0001T   00003507+0000000955          1400 ZS6112               1AZ
306043002306043027-000194     306043006001246602472MOP COMPLETE           0000001000+00002279+00000+0001T   00002279+0000000955          1400 ZS6212               1AZ
306043003306043200-000130     306043006001023645067DESSERT-SPOONS 10PCE   0000001000+00000613+00000+0001T   00000613+0000000955          1400 ZS6214               1AZ
306043004306043077-000377     306043006003000512904GIFT-BAG VALUE 2-PACK  0000001000+00001753+00000+0001T   00001753+0000000955          1400 ZS6112               1AZ
306043005306043112-116069     306043006009681820277TCS CARRIER BAG JUMBO  0000001000+00000048+00000+0001T   00000048+0000000955          1400 ZS6090               1AZ
306044000306044               306044               170213HF     1400+00000+HF0000003507+0000003507+000000000+000000491+0000003990+0000000008+I20000000000+0000003990+Z
306044001306044077-000932     306044006003000409808G/WRAP 700mmx5m PATTERN0000001000+00003507+00000+0001T   00003507+0000000956          1400 ZS6112               1AZ
306045000306045               306045               170213HF     1400+00000+HF0000003507+0000003507+000000000+000000491+0000003990+0000000008+I20000000000+0000003990+Z
306045001306045301-085004     306045006003000420469ORN LOVE PLAQUE 21X10CM0000001000+00003507+00000+0001T   00003946+0006470958          1400 ZS6505               1AZ
306046000306046               306046               170213HF     1400+00000+HF0000006136+0000006136+000000000+000000860+0000006990+0000000006+I20000000000+0000006990+Z
306046001306046018-000136     306046006001023659026MUG OCC LOVE W/PLUSH   0000001000+00003507+00000+0001T   00003507+0000000959          1400 ZS6515               1AZ
306046002306046077-000471     306046006003000330096G-BAG DESGN MED 18X23CM0000001000+00001753+00000+0001T   00001753+0000000959          1400 ZS6112               1AZ
306046003306046089-000192-A   306046006001023901774KEY-CHAIN ACRYLIC      0000001000+00000876+00000+0001T   00000876+0000000959          1400 ZS6205               1AZ
306047000306047               306047               170213HF     1400+00000+HF0000025033+0000025033+000000000+000003510+0000028543+0000000000+I40000028543+0000000000+Z
306047001306047002-000679     306047006003000426188K/TOOL SET NYLON 3PC   0000001000+00003507+00000+0001T   00003507+0000001002          1400 ZS6300               1AZ
306047002306047082-000115     306047006003000360604READING GLS STRNGHT:2.50000001000+00004385+00000+0001T   00004385+0000001002          1400 ZS6160               1AZ
306047003306047112-116069     306047006009681820277TCS CARRIER BAG JUMBO  0000001000+00000048+00000+0001T   00000048+0000001002          1400 ZS6090               1AZ
306047004306047056-335435     306047006003000275786CLOTH AUTO MICRO-FIBRE 0000001000+00001753+00000+0001T   00001753+0000001002          1400 ZS6860               1AZ
306047005306047142-000816     306047006001023477163GLOVES DISPOSE PACK-50 0000002000+00002630+00000+0001T   00002630+0000001002          1400 ZS6810               1AZ
306047006306047027-000092     306047006003000365739BLIND CLEANER MICROFIBR0000001000+00002630+00000+0001T   00002630+0000001002          1400 ZS6212               1AZ
306047007306047903-000211     306047006002099001238SWT GS MALLOW ICE CREAM0000001000+00001753+00000+0001T   00001753+0000001002          1400 ZS6150               1AZ
306047008306047027-000091     306047006003000343966WINDOW CLEANER 22CM    0000001000+00001753+00000+0001T   00001753+0000001002          1400 ZS6212               1AZ
306047009306047027-008814     306047006001023797155DUSTER POLYESTER 58cm  0000001000+00002192+00000+0001T   00002192+0000001002          1400 ZS6212               1AZ
306047010306047903-000521     306047006001704009652SWT GUMMY SOFT GUMS    0000002000+00000876+00000+0001T   00000876+0000001002          1400 ZS6150               1AZ
306048000306048               306048               170213HF     1400+00000+HF0000011619+0000011619+000000000+000001629+0000013240+0000000008+I20000000000+0000013240+Z
306048001306048112-116069     306048006009681820277TCS CARRIER BAG JUMBO  0000001000+00000048+00000+0001T   00000048+0000001034          1400 ZS6090               1AZ
306048002306048562-088356     306048006001023767219EVA MAT 27cm           0000001000+00006139+00000+0001T   00006139+0000001034          1400 ZS6755               1AZ
306048003306048077-000408     306048006003000145218G/BAG PP 15X21X7CM     0000003000+00000876+00000+0001T   00000876+0000001034          1400 ZS6112               1AZ
306048004306048077-000407     306048006003000145096G/BAG PP 19X26X8CM     0000001000+00001314+00000+0001T   00001314+0000001034          1400 ZS6112               1AZ
306048005306048034-078833     306048006001023857491SIGN BABY-ON-BOARD     0000001000+00001490+00000+0001T   00001490+0000001034          1400 ZS6215               1AZ
306049000306049               306049               170213HF     1400+00000+HF0000001093+0000001093+000000000+000000154+0000001247+0000000000+I40000001247+0000000000+Z
306049001306049903-000183     306049006003000451043SWT LB HEART LOLLY     0000001000+00000393+00000+0001T   00000393+0000001036          1400 ZS6150               1AZ
306049002306049018-000177     306049006001023797513MUG MINI LOVE ASSTD    0000001000+00000700+00000+0001T   00000700+0000001036          1400 ZS6515               1AZ
306050000306050               306050               170213HF     1400+00000+HF0000017570+0000017570+000000000+000002463+0000020033+0000000000+I40000020033+0000000000+Z
306050001306050112-116038     306050006009681820246TCS CARRIER BAG MIDI   0000001000+00000035+00000+0001T   00000035+0000001039          1400 ZS6090               1AZ
306050002306050072-020314     306050006003000605453PET TOY PUP VINYL CHICK0000001000+00003069+00000+0001T   00003069+0000001039          1400 ZS6870               1AZ
306050003306050072-020311     306050006003000494132PET DOG TOY VINYL BALL 0000001000+00003069+00000+0001T   00003069+0000001039          1400 ZS6870               1AZ
306050004306050072-020216     306050006001023775900PET CHEWS BARBI-ROLLS  0000002000+00001753+00000+0001T   00001753+0000001039          1400 ZS6870               1AZ
306050005306050072-020315     306050006003000623891PET TOY PUPPY RING 3in10000001000+00003069+00000+0001T   00003069+0000001039          1400 ZS6870               1AZ
306050006306050072-020261     306050006003000305131PET DOG-CHEW TYRE SMALL0000001000+00002192+00000+0001T   00002192+0000001039          1400 ZS6870               1AZ
306050007306050072-020309     306050006001023700995DOG-TOY DUMBELL F/BALL 0000001000+00002630+00000+0001T   00002630+0000001039          1400 ZS6870               1AZ
306051000306051               306051               170213HF     1400+00000+HF0000003331+0000003331+000000000+000000467+0000003798+0000000000+I40000003798+0000000000+Z
306051001306051206-000120     306051006003000628308PEELER CARROT SHARPENER0000001000+00001753+00000+0001T   00001753+0000001042          1400 ZS6321               1AZ
306051002306051018-000127     306051006001023380289MUG OCC STRAIGHT LOVE  0000001000+00001578+00000+0001T   00001753+0006471042          1400 ZS6515               1AZ
306052000306052               306052               170213HF     1400+00000+HF0000003243+0000003243+000000000+000000455+0000003690+0000000008+I20000000000+0000003690+Z
306052001306052251-000003     306052006003000266159TAPE D/S 18x300mm V/PCK0000001000+00002630+00000+0001T   00002630+0000001049          1400 ZS6810               1AZ
306052002306052083-000055     306052006003000003853LIGHTER ELCTRNC REFILBL0000001000+00000613+00000+0001T   00000613+0000001049          1400 ZS6315               1AZ
306053000306053               306053               170213HF     1400+00000+HF0000006045+0000006045+000000000+000000847+0000006890+0000000002+I20000000000+0000006890+Z
306053001306053018-000177     306053006001023797513MUG MINI LOVE ASSTD    0000002000+00000700+00000+0001T   00000700+0000001052          1400 ZS6515               1AZ
306053002306053077-000602     306053006003000395545GIFT-BAG MED 18X23CM   0000002000+00001227+00000+0001T   00001227+0000001052          1400 ZS6112               1AZ
306053003306053077-000323     306053006001023677563G/BAG 25X32CM E/DAY FLO0000001000+00001578+00000+0001T   00001578+0000001052          1400 ZS6112               1AZ
306053004306053304-001011     306053006001023806727FLWR ROSE RED W/BEAR   0000001000+00000613+00000+0001T   00000788+0006471052          1400 ZS6510               1AZ
306054000306054               306054               170213HF     1400+00000+HF0000014554+0000014554+000000000+000002040+0000016594+0000000000+I40000016594+0000000000+Z
306054001306054301-007015     306054006003000394166ORN MINI BLACKBOARD 8PC0000001000+00003069+00000+0001T   00003069+0000001103          1400 ZS6505               1AZ
306054002306054077-000005-D   306054006003000414567PAPER TISSUE 50x70cm   0000001000+00001753+00000+0001T   00001753+0000001103          1400 ZS6112               1AZ
306054003306054016-006505     306054006001023617576S/JAR GLS MINI CLIP    0000003000+00001490+00000+0001T   00001490+0000001103          1400 ZS6300               1AZ
306054004306054103-000474     306054006003000630363BAMBOO FLOWER BASKET   0000001000+00005262+00000+0001T   00005262+0000001103          1400 ZS6300               1AZ
306055000306055               306055               170213HF     1400+00000+HF0000003069+0000003069+000000000+000000430+0000003490+0000000009+I20000000000+0000003490+Z
306055001306055004-071200     306055006003000073399USB 2.0 CARD RDR/WRTR  0000001000+00003069+00000+0001T   00003069+0000001108          1400 ZS6310               1AZ
306056000306056               306056               170213HF     1400+00000+HF0000001753+0000001753+000000000+000000246+0000001990+0000000009+I20000000000+0000001990+Z
306056001306056206-000590     306056006003000633708BAG CLIPS LIPS 2PC     0000001000+00001753+00000+0001T   00001753+0000001110          1400 ZS6321               1AZ
306057000306057               306057               170213HF     1400+00000+HF0000004855+0000004855+000000000+000000681+0000005530+0000000006+I20000000000+0000005530+Z
306057001306057027-078282     306057006001023767837SCOURER 25g SPIRAL-BALL0000001000+00000613+00000+0001T   00000613+0000001121          1400 ZS6212               1AZ
306057002306057027-783000     306057006001023874641SCOURERS RAINBOW 5PCE  0000001000+00001753+00000+0001T   00001753+0000001121          1400 ZS6212               1AZ
306057003306057251-000041     306057006001023515889SEAL-TAPE BUFF 48mmx50m0000002000+00001227+00000+0001T   00001227+0000001121          1400 ZS6810               1AZ
306057004306057112-116038     306057006009681820246TCS CARRIER BAG MIDI   0000001000+00000035+00000+0001T   00000035+0000001121          1400 ZS6090               1AZ
306058000306058               306058               170213HF     1400+00000+HF0000008975+0000008975+000000000+000001259+0000010230+0000000004+I20000000000+0000010230+Z
306058001306058112-116038     306058006009681820246TCS CARRIER BAG MIDI   0000001000+00000035+00000+0001T   00000035+0000001128          1400 ZS6090               1AZ
306058002306058036-000605     306058006001023158611WASHING-PEGS WDN PCK-240000006000+00001490+00000+0001T   00001490+0000001128          1400 ZS6212               1AZ
306059000306059               306059               170213HF     1400+00000+HF0000016484+0000016484+000000000+000002310+0000018794+0000000000+I40000018794+0000000000+Z
306059001306059077-000380     306059006003000247585GIFT-BAG 33X45CM S/COL 0000001000+00002455+00000+0001T   00002455+0000001131          1400 ZS6112               1AZ
306059002306059019-000124     306059006003000329502PLANTER GALV ROUND SML 0000001000+00003507+00000+0001T   00004385+0008171131          1400 ZS6510               1AZ
306059003306059016-006509     306059006003000567355S/JAR GLS MINI LABEL   0000001000+00001753+00000+0001T   00002192+0008191131          1400 ZS6300               1AZ
306059004306059368-000152     306059006003000166886PLUSH BEAR 15cm        0000001000+00003946+00000+0001T   00005262+0008141131          1400 ZS6745               1AZ
306059005306059019-000126     306059006003000329571PLANTER GALV W/HANDLE  0000001000+00004823+00000+0001T   00004823+0000001131          1400 ZS6510               1AZ
306060000306060               306060               170213HF     1400+00000+HF0000004032+0000004032+000000000+000000565+0000004590+0000000007+I20000000000+0000004590+Z
306060001306060903-000510     306060006001704012621SWEET MS ZBDZ S/BERRY  0000001000+00001227+00000+0001T   00001227+0000001132          1400 ZS6150               1AZ
306060002306060903-000518     306060006001704012782SWT STRAWS S/BERRY 100g0000001000+00001227+00000+0001T   00001227+0000001132          1400 ZS6150               1AZ
306060003306060077-000303     306060006001023593757GIFT-BAG PAPER MED     0000001000+00001578+00000+0001T   00001578+0000001132          1400 ZS6112               1AZ
306061000306061               306061               170213HF     1400+00000+HF0000003506+0000003506+000000000+000000492+0000003990+0000000008+I20000000000+0000003990+Z
306061001306061006-000120     306061006001023346889BALLOONS 10PC MIX COL  0000001000+00001753+00000+0001T   00001753+0000001135          1400 ZS6131               1AZ
306061002306061039-000318     306061006003000406159B/DAY CANDLES SMALL NO 0000001000+00001753+00000+0001T   00001753+0000001135          1400 ZS6510               1AZ
306062000306062               306062               170213HF     1400+00000+HF0000014587+0000014587+000000000+000002046+0000016630+0000000003+I20000000000+0000016630+Z
306062001306062903-000619     306062006003000672455SWT LOLLY STR/BRRY 140G0000003000+00001753+00000+0001T   00001753+0000001138          1400 ZS6150               1AZ
306062002306062903-000151     306062006009803374411SWT SML RND R/BOW LOLLY0000001000+00000525+00000+0001T   00000525+0000001138          1400 ZS6150               1AZ
306062003306062368-000108     306062006001023751461PLUSH ANIMAL BALL ASSTD0000001000+00005262+00000+0001T   00005262+0000001138          1400 ZS6745               1AZ
306062004306062112-116038     306062006009681820246TCS CARRIER BAG MIDI   0000001000+00000035+00000+0001T   00000035+0000001138          1400 ZS6090               1AZ
306062005306062566-000362     306062006003000583065STICKER LETTER & NUMBER0000002000+00001753+00000+0001T   00001753+0000001138          1400 ZS6130               1AZ
306063000306063               306063               170213HF     1400+00000+HF0000001490+0000001490+000000000+000000209+0000001690+0000000009+I20000000000+0000001690+Z
306063001306063159-000114     306063006003000630004SHOWER CAP PVC ASSTD   0000001000+00001490+00000+0001T   00001490+0000001138          1400 ZS6200               1AZ
306064000306064               306064               170213HF     1400+00000+HF0000003594+0000003594+000000000+000000504+0000004090+0000000008+I20000000000+0000004090+Z
306064001306064080-000127     306064006003000424351VALENTINES DAY 36x24CM 0000001000+00002192+00000+0001T   00002192+0000001155          1400 ZS6112               1AZ
306064002306064304-001204     306064006001023737984FLOWER OCC. TEDDY/ROSES0000001000+00001402+00000+0001T   00001490+0006471155          1400 ZS6510               1AZ
306065000306065               306065               170213HF     1400+00000+HF0000001753+0000001753+000000000+000000246+0000001990+0000000009+I20000000000+0000001990+Z
306065001306065077-000290     306065006001023902023GIFT BOX 26x32x13cm    0000001000+00001753+00000+0001T   00001753+0000001157          1400 ZS6112               1AZ
306066000306066               306066               170213HF     1400+00000+HF0000005085+0000005085+000000000+000000712+0000005790+0000000007+I20000000000+0000005790+Z
306066001306066077-000303     306066006001023593757GIFT-BAG PAPER MED     0000001000+00001578+00000+0001T   00001578+0000001159          1400 ZS6112               1AZ
306066002306066018-005009     306066006001023725608MUG W/PLUSH-BEAR LOVE  0000001000+00003507+00000+0001T   00003507+0000001159          1400 ZS6515               1AZ
306067000306067               306067               170213HF     1400+00000+HF0000002192+0000002192+000000000+000000307+0000002490+0000000009+I20000000000+0000002490+Z
306067001306067046-000012-A   306067006003000208296BATTERIES H/POWER SZ:AA0000001000+00002192+00000+0001T   00002192+0000001159          1400 ZS6312               1AZ
306068000306068               306068               170213HF     1400+00000+HF0000003331+0000003331+000000000+000000467+0000003790+0000000008+I20000000000+0000003790+Z
306068001306068077-000303     306068006001023593757GIFT-BAG PAPER MED     0000001000+00001578+00000+0001T   00001578+0000001217          1400 ZS6112               1AZ
306068002306068301-085002     306068006003000420704ORN OCC. LOVE BELL ASST0000001000+00001753+00000+0001T   00002630+0008121217          1400 ZS6505               1AZ
306069000306069               306069               170213HF     1400+00000+HF0000002188+0000002188+000000000+000000308+0000002490+0000000006+I20000000000+0000002490+Z
306069001306069039-000319-3   306069006003000442621B/CANDLES LRG NUMBER-3 0000001000+00000876+00000+0001T   00000876+0000001218          1400 ZS6510               1AZ
306069002306069039-000319-1   306069006003000442386B/CANDLES LRG NUMBER-1 0000001000+00000876+00000+0001T   00000876+0000001218          1400 ZS6510               1AZ
306069003306069006-000171-H   306069006003000609574BALLOONS 1PC RED PRINT 0000002000+00000218+00000+0001T   00000218+0000001218          1400 ZS6131               1AZ
306070000306070               306070               170213HF     1400+00000+HF0000000035+0000000035+000000000+000000005+0000000040+0000000000+I20000000000+0000000040+Z
306070001306070112-116038     306070006009681820246TCS CARRIER BAG MIDI   0000001000+00000035+00000+0001T   00000035+0000001219          1400 ZS6090               1AZ
306071000306071               306071               170213HF     1400+00000+HF0000020171+0000020171+000000000+000002824+0000022995+0000000000+I40000022995+0000000000+Z
306071001306071567-075700     306071006003000339389BOOK NOVEL 3-PACK ASSTD0000001000+00013157+00000+0001T   00013157+0000001323          1400 ZS6757               1AZ
306071002306071567-011422     306071006003000641222BK COLOURING THERAPY   0000002000+00003507+00000+0001T   00003507+0000001323          1400 ZS6757               1AZ
306072000306072               306072               170213HF     1400+00000+HF0000001578+0000001578+000000000+000000221+0000001799+0000000000+I40000001799+0000000000+Z
306072001306072077-000303     306072006001023593757GIFT-BAG PAPER MED     0000001000+00001578+00000+0001T   00001578+0000001325          1400 ZS6112               1AZ
306073000306073               306073               170213HF     1400+00000+HF0000002630+0000002630+000000000+000000369+0000002990+0000000009+I20000000000+0000002990+Z
306073001306073077-000270     306073006003000395453GIFT-BAG PPR JMB 33X45 0000001000+00002630+00000+0001T   00002630+0000001327          1400 ZS6112               1AZ
306074000306074               306074               170213HF     1400+00000+HF0000004820+0000004820+000000000+000000676+0000005496+0000000000+I40000005496+0000000000+Z
306074001306074006-000093     306074006003000539932PARTY BANNER FLAGS ASST0000002000+00001753+00000+0001T   00001753+0000001328          1400 ZS6131               1AZ
306074002306074006-000166-H   306074006003000608096BALLOONS HELIUM 6PC WHT0000001000+00001314+00000+0001T   00001314+0000001328          1400 ZS6131               1AZ
306075000306075               306075               170213HF     1400+00000+HF0000000876+0000000876+000000000+000000123+0000000990+0000000009+I20000000000+0000000990+Z
306075001306075033-001364     306075006001023802088HAIR-CLIPS 65mm 24PCE  0000001000+00000876+00000+0001T   00000876+0000001329          1400 ZS6200               1AZ
306076000306076               306076               170213HF     1400+00000+HF0000005295+0000005295+000000000+000000743+0000006030+0000000008+I20000000000+0000006030+Z
306076001306076306-000001     306076006003000450152NAIL BRUSH SET 7/9/14cm0000001000+00002630+00000+0001T   00002630+0000001332          1400 ZS6200               1AZ
306076002306076306-000008     306076006001023991553TOOTH BRUSH ADULT W/CAP0000001000+00002630+00000+0001T   00002630+0000001332          1400 ZS6200               1AZ
306076003306076112-116038     306076006009681820246TCS CARRIER BAG MIDI   0000001000+00000035+00000+0001T   00000035+0000001332          1400 ZS6090               1AZ
306077000306077               306077               170213HF     1400+00000+HF0000000876+0000000876+000000000+000000123+0000000990+0000000009+I20000000000+0000000990+Z
306077001306077089-000192-A   306077006001023901774KEY-CHAIN ACRYLIC      0000001000+00000876+00000+0001T   00000876+0000001334          1400 ZS6205               1AZ
306078000306078               306078               170213HF     1400+00000+HF0000005259+0000005259+000000000+000000738+0000005997+0000000000+I40000005997+0000000000+Z
306078001306078019-071598     306078006001023693228PEBBLES GLS 250g WHITE 0000002000+00001753+00000+0001T   00001753+0000001335          1400 ZS6510               1AZ
306078002306078019-071595     306078006001023756428PEBBLES 250g SKY-BLUE  0000001000+00001753+00000+0001T   00001753+0000001335          1400 ZS6510               1AZ
306079000306079               306079               170213HF     1400+00000+HF0000008771+0000008771+000000000+000001228+0000009990+0000000009+I20000000000+0000009990+Z
306079001306079039-000799     306079006001023692382CANDLES TEALITE 100PCE 0000001000+00008771+00000+0001T   00008771+0000001336          1400 ZS6510               1AZ
306080000306080               306080               170213HF     1400+00000+HF0000002227+0000002227+000000000+000000312+0000002539+0000000000+I40000002539+0000000000+Z
306080001306080105-007000-B   306080006002580009750CONTAINER 3L ASSORTED  0000001000+00002192+00000+0001T   00002192+0000001339          1400 ZS6210               1AZ
306080002306080112-116038     306080006009681820246TCS CARRIER BAG MIDI   0000001000+00000035+00000+0001T   00000035+0000001339          1400 ZS6090               1AZ
306081000306081               306081               170213HF     1400+00000+HF0000008278+0000008278+000000000+000001160+0000009430+0000000008+I20000000000+0000009430+Z
306081001306081562-000002     306081006001023491015COUNTING-FRAME 30x20cm 0000001000+00007016+00000+0001T   00007016+0000001340          1400 ZS6755               1AZ
306081002306081071-081091     306081006001151010287STAED/GENKEM ALL-STICK 0000001000+00001227+00000+0001T   00001227+0000001340          1400 ZS6130               1AZ
306081003306081112-116038     306081006009681820246TCS CARRIER BAG MIDI   0000001000+00000035+00000+0001T   00000035+0000001340          1400 ZS6090               1AZ
306082000306082               306082               170213HF     1400+00000+HF0000001578+0000001578+000000000+000000221+0000001790+0000000009+I20000000000+0000001790+Z
306082001306082077-000303     306082006001023593757GIFT-BAG PAPER MED     0000001000+00001578+00000+0001T   00001578+0000001340          1400 ZS6112               1AZ
306083000306083               306083               170213HF     1400+00000+HF0000004855+0000004855+000000000+000000681+0000005536+0000000000+I40000005536+0000000000+Z
306083001306083200-003024     306083006001023657299REFUSE BAGS 20PCE BLACK0000001000+00001753+00000+0001T   00001753+0000001342          1400 ZS6214               1AZ
306083002306083112-116038     306083006009681820246TCS CARRIER BAG MIDI   0000001000+00000035+00000+0001T   00000035+0000001342          1400 ZS6090               1AZ
306083003306083106-007125     306083006003000057689MILK-SACHET-JUG 1,0L   0000001000+00001753+00000+0001T   00001753+0000001342          1400 ZS6210               1AZ
306083004306083012-000001-A   306083006003000697663MICROWAVES PLATE-COVER 0000001000+00001314+00000+0001T   00001314+0000001342          1400 ZS6300               1AZ
306084000306084               306084               170213HF     1400+00000+HF0000000876+0000000876+000000000+000000123+0000000990+0000000009+I20000000000+0000000990+Z
306084001306084077-000151     306084006008766114676GIFT-WRAP C/PHANE ASSTD0000001000+00000876+00000+0001T   00000876+0000001342          1400 ZS6112               1AZ
306085000306085               306085               170213HF     1400+00000+HF0000005260+0000005260+000000000+000000738+0000000000+0000000000+ 00000000000+0000000000+Z
306085001306085077-000270     306085006003000395453GIFT-BAG PPR JMB 33X45 0000001000+00002630+00000+0001T   00002630+000000              1400 ZS61121IC            1 Z
306085002306085362-000106     306085006003000608911MAKE-UP GIRL BEAUTY-SET0000001000+00002630+00000+0001T   00002630+000000              1400 ZS61601IC            1 Z
306086000306086               306086               170213HF     1400+00000+HF0000002630+0000002630+000000000+000000369+0000002990+0000000009+I20000000000+0000002990+Z
306086001306086077-000270     306086006003000395453GIFT-BAG PPR JMB 33X45 0000001000+00002630+00000+0001T   00002630+0000001344          1400 ZS6112               1AZ
306087000306087               306087               170213HF     1400+00000+HF0000020172+0000020172+000000000+000002825+0000022997+0000000000+E00000000000+0000000000+Z
306087001306087077-000270     306087006003000395453GIFT-BAG PPR JMB 33X45 0000001000+00002630+00000+0001T   00002630+000000              1400 ZS61121IC            1 Z
306087002306087361-000693     306087006003000654277DOLL MED 28CM FASHION  0000001000+00017542+00000+0001T   00017542+000000              1400 ZS67251IC            1 Z
306088000306088               306088               170213HF     1400+00000+HF0000002630+0000002630+000000000+000000369+0000002990+0000000009+I20000000000+0000002990+Z
306088001306088077-000270     306088006003000395453GIFT-BAG PPR JMB 33X45 0000001000+00002630+00000+0001T   00002630+0000001353          1400 ZS6112               1AZ
306089000306089               306089               170213HF     1400+00000+HF0000010568+0000010568+000000000+000001481+0000012049+0000000000+I40000012049+0000000000+Z
306089001306089080-000127     306089006003000424351VALENTINES DAY 36x24CM 0000002000+00002192+00000+0001T   00002192+0000001355          1400 ZS6112               1AZ
306089002306089112-116069     306089006009681820277TCS CARRIER BAG JUMBO  0000001000+00000048+00000+0001T   00000048+0000001355          1400 ZS6090               1AZ
306089003306089903-000211     306089006002099001238SWT GS MALLOW ICE CREAM0000001000+00001753+00000+0001T   00001753+0000001355          1400 ZS6150               1AZ
306089004306089089-000192-A   306089006001023901774KEY-CHAIN ACRYLIC      0000001000+00000876+00000+0001T   00000876+0000001355          1400 ZS6205               1AZ
306089005306089018-005009     306089006001023725608MUG W/PLUSH-BEAR LOVE  0000001000+00003507+00000+0001T   00003507+0000001355          1400 ZS6515               1AZ
306090000306090               306090               170213HF     1400+00000+HF0000017542+0000017542+000000000+000002456+0000019990+0000000008+I20000000000+0000019990+Z
306090001306090361-000693     306090006003000654277DOLL MED 28CM FASHION  0000001000+00017542+00000+0001T   00017542+0000001356          1400 ZS6725               1AZ
306091000306091               306091               170213HF     1400+00000+HF0000004031+0000004031+000000000+000000566+0000004590+0000000007+I20000000000+0000004590+Z
306091001306091903-000151     306091006009803374411SWT SML RND R/BOW LOLLY0000001000+00000525+00000+0001T   00000525+0000001401          1400 ZS6150               1AZ
306091002306091085-007001     306091006001023909329P/TOOL MINI 7in1       0000001000+00002630+00000+0001T   00002630+0000001401          1400 ZS6305               1AZ
306091003306091077-000314     306091006003000181148GIFT-BAG 11X14CM MATT  0000001000+00000876+00000+0001T   00000876+0000001401          1400 ZS6112               1AZ
306092000306092               306092               170213HF     1400+00000+HF0000004996+0000004996+000000000+000000701+0000005690+0000000007+I20000000000+0000005690+Z
306092001306092077-000452     306092006003000284986G/BAG METALLIC MED EMB 0000001000+00001490+00000+0001T   00001490+0000001402          1400 ZS6112               1AZ
306092002306092089-000030     306092006003000575671K/CHAIN LOVE MTL ASSTD 0000001000+00001753+00000+0001T   00001753+0000001402          1400 ZS6205               1AZ
306092003306092301-085002     306092006003000420704ORN OCC. LOVE BELL ASST0000001000+00001753+00000+0001T   00002630+0008121402          1400 ZS6505               1AZ
306093000306093               306093               170213HF     1400+00000+HF0000002629+0000002629+000000000+000000369+0000002990+0000000008+I20000000000+0000002990+Z
306093001306093077-000309     306093006001023608604GIFT-BAG 25X32CM GLOSS 0000001000+00001753+00000+0001T   00001753+0000001403          1400 ZS6112               1AZ
306093002306093077-000011-D   306093006001023808554TISSUE-WRAP WHITE 10PCE0000001000+00000876+00000+0001T   00000876+0000001403          1400 ZS6112               1AZ
306094000306094               306094               170213HF     1400+00000+HF0000007188+0000007188+000000000+000001007+0000008195+0000000000+I40000008195+0000000000+Z
306094001306094077-000452     306094006003000284986G/BAG METALLIC MED EMB 0000001000+00001490+00000+0001T   00001490+0000001405          1400 ZS6112               1AZ
306094002306094001-000175     306094006001023788108B/MUG GLS LOVE 380ML   0000001000+00004385+00000+0001T   00004385+0000001405          1400 ZS6515               1AZ
306094003306094018-000177     306094006001023797513MUG MINI LOVE ASSTD    0000001000+00000700+00000+0001T   00000700+0000001405          1400 ZS6515               1AZ
306094004306094304-001011     306094006001023806727FLWR ROSE RED W/BEAR   0000001000+00000613+00000+0001T   00000788+0006471405          1400 ZS6510               1AZ
306095000306095               306095               170213HF     1400+00000+HF0000033277+0000033277+000000000+000004662+0000037939+0000000000+I40000037939+0000000000+Z
306095001306095112-116069     306095006009681820277TCS CARRIER BAG JUMBO  0000001000+00000048+00000+0001T   00000048+0000001416          1400 ZS6090               1AZ
306095002306095041-092600     306095006003000114733B/GIFT SET DAISY NAILS 0000002000+00006139+00000+0001T   00006139+0000001416          1400 ZS6200               1AZ
306095003306095007-000166     306095006009685857316SPIRAL NOTES A6 100PG  0000004000+00000700+00000+0001T   00000700+0000001416          1400 ZS6130               1AZ
306095004306095030-000031-A   306095006003000457588PLAQUE W/WORDS ASSTD   0000001000+00004385+00000+0001T   00004823+0006471416          1400 ZS6505               1AZ
306095005306095018-030000     306095006003000421060MUG OCCASIONS LOVE 2PCE0000001000+00004385+00000+0001T   00004385+0000001416          1400 ZS6515               1AZ
306095006306095089-000030     306095006003000575671K/CHAIN LOVE MTL ASSTD 0000001000+00001753+00000+0001T   00001753+0000001416          1400 ZS6205               1AZ
306095007306095903-000619     306095006003000672455SWT LOLLY STR/BRRY 140G0000001000+00001753+00000+0001T   00001753+0000001416          1400 ZS6150               1AZ
306095008306095018-030000     306095006003000421060MUG OCCASIONS LOVE 2PCE0000001000+00004385+00000+0001T   00004385+0000001416          1400 ZS6515               1AZ
306095009306095077-000452     306095006003000284986G/BAG METALLIC MED EMB 0000001000+00001490+00000+0001T   00001490+0000001416          1400 ZS6112               1AZ
306096000306096               306096               170213HF     1400+00000+HF0000011402+0000011402+000000000+000001597+0000012990+0000000009+I20000000000+0000012990+Z
306096001306096586-091720     306096006001492917207HEART WTCH & N/LACE SET0000001000+00011402+00000+0001T   00011402+0000001417          1400 ZS6160               1AZ
306097000306097               306097               170213HF     1400+00000+HF0000002192+0000002192+000000000+000000307+0000002490+0000000009+I20000000000+0000002490+Z
306097001306097080-000127     306097006003000424351VALENTINES DAY 36x24CM 0000001000+00002192+00000+0001T   00002192+0000001417          1400 ZS6112               1AZ
306098000306098               306098               170213HF     1400+00000+HF0000003069+0000003069+000000000+000000430+0000003490+0000000009+I20000000000+0000003490+Z
306098001306098301-085008     306098006003000673933ORN OCC.LOVE TINSEL HRT0000001000+00003069+00000+0001T   00003069+0000001418          1400 ZS6505               1AZ
306099000306099               306099               170213HF     1400+00000+HF0000011487+0000011487+000000000+000001609+0000013090+0000000006+I20000000000+0000013090+Z
306099001306099368-000001     306099006003000097982Plush Bear 25cm        0000002000+00004385+00000+0001T   00004385+0000001420          1400 ZS6745               1AZ
306099002306099077-000299     306099006003000395576G/BAG 32x25cm LRG LOVE 0000001000+00001490+00000+0001T   00001490+0000001420          1400 ZS6112               1AZ
306099003306099077-000318     306099006001023609755GIFT-BAG 18X23CM E/D AN0000001000+00001227+00000+0001T   00001227+0000001420          1400 ZS6112               1AZ
306100000306100               306100               170213HF     1400+00000+HF0000003507+0000003507+000000000+000000491+0000003990+0000000008+I20000000000+0000003990+Z
306100001306100105-007800     306100006002923018913STORAGE BOX CLEAR 5.5L 0000001000+00003507+00000+0001T   00003507+0000001421          1400 ZS6210               1AZ
306101000306101               306101               170213HF     1400+00000+HF0000003329+0000003329+000000000+000000467+0000003790+0000000006+I20000000000+0000003790+Z
306101001306101018-000177     306101006001023797513MUG MINI LOVE ASSTD    0000001000+00000700+00000+0001T   00000700+0000001426          1400 ZS6515               1AZ
306101002306101903-000624     306101006003000671793SWEET LOLLY BLU/BRRY   0000001000+00001753+00000+0001T   00001753+0000001426          1400 ZS6150               1AZ
306101003306101903-000861     306101005010478430822SWT LOVE HEARTS SML    0000001000+00000876+00000+0001T   00000876+0000001426          1400 ZS6150               1AZ
306102000306102               306102               170213HF     1400+00000+HF0000014470+0000014470+000000000+000002027+0000016497+0000000000+I40000016497+0000000000+Z
306102001306102368-000175     306102006003000270316PLUSH BEAR 4 ASSTD 18CM0000002000+00006139+00000+0001T   00006139+0000001433          1400 ZS6745               1AZ
306102002306102566-000068     306102006003000418046POP UP LOVE 2 ASSTD    0000001000+00002192+00000+0001T   00002192+0000001433          1400 ZS6130               1AZ
306103000306103               306103               170213HF     1400+00000+HF0000000437+0000000437+000000000+000000062+0000000490+0000000009+I20000000000+0000000490+Z
306103001306103080-000133-A   306103006003000647019MINI VALENTINES CARD   0000001000+00000437+00000+0001T   00000437+0000001441          1400 ZS6112               1AZ
306104000306104               306104               170213HF     1400+00000+HF0000010291+0000010291+000000000+000001444+0000011730+0000000005+I20000000000+0000011730+Z
306104001306104006-006018-B   306104006003000008278PARTY-SPRAY HAIR NEON  0000002000+00002630+00000+0001T   00002630+0000001446          1400 ZS6131               1AZ
306104002306104006-000805     306104000013994092418STREAMERS 10-ROLLS     0000001000+00001490+00000+0001T   00001490+0000001446          1400 ZS6131               1AZ
306104003306104563-000317-K   306104006003000697885SERVIETTE 2PLY 33cm    0000001000+00001753+00000+0001T   00001753+0000001446          1400 ZS6214               1AZ
306104004306104006-000093     306104006003000539932PARTY BANNER FLAGS ASST0000001000+00001753+00000+0001T   00001753+0000001446          1400 ZS6131               1AZ
306104005306104112-116038     306104006009681820246TCS CARRIER BAG MIDI   0000001000+00000035+00000+0001T   00000035+0000001446          1400 ZS6090               1AZ
306105000306105               306105               170213HF     1400+00000+HF0000018639+0000018639+000000000+000002611+0000021250+0000000000+I40000021250+0000000000+Z
306105001306105031-000924     306105006001023669964P/FRAME COLLAGE PL     0000001000+00008771+00000+0001T   00008771+0000001448          1400 ZS6510               1AZ
306105002306105903-000095     306105006001704011495SWT SPECKLED-EGGS 100G 0000001000+00002104+00000+0001T   00002104+0000001448          1400 ZS6150               1AZ
306105003306105105-002010     306105006001246661738CONTAINER SET EASY 3PC 0000001000+00007016+00000+0001T   00007016+0000001448          1400 ZS6210               1AZ
306105004306105018-000177     306105006001023797513MUG MINI LOVE ASSTD    0000001000+00000700+00000+0001T   00000700+0000001448          1400 ZS6515               1AZ
306105005306105112-116069     306105006009681820277TCS CARRIER BAG JUMBO  0000001000+00000048+00000+0001T   00000048+0000001448          1400 ZS6090               1AZ
306106000306106               306106               170213HF     1400+00000+HF0000006186+0000006186+000000000+000000867+0000007050+0000000003+I20000000000+0000007050+Z
306106001306106368-000001     306106006003000097982Plush Bear 25cm        0000001000+00004385+00000+0001T   00004385+0000001449          1400 ZS6745               1AZ
306106002306106077-000333     306106006001023745316GIFT-BAG 25X32CM EVERYD0000001000+00001753+00000+0001T   00001753+0000001449          1400 ZS6112               1AZ
306106003306106112-116069     306106006009681820277TCS CARRIER BAG JUMBO  0000001000+00000048+00000+0001T   00000048+0000001449          1400 ZS6090               1AZ
306107000306107               306107               170213HF     1400+00000+HF0000002366+0000002366+000000000+000000332+0000002698+0000000000+I40000002698+0000000000+Z
306107001306107077-000299     306107006003000395576G/BAG 32x25cm LRG LOVE 0000001000+00001490+00000+0001T   00001490+0000001451          1400 ZS6112               1AZ
306107002306107077-000011-D   306107006001023808554TISSUE-WRAP WHITE 10PCE0000001000+00000876+00000+0001T   00000876+0000001451          1400 ZS6112               1AZ
306108000306108               306108               170213HF     1400+00000+HF0000001753+0000001753+000000000+000000246+0000001990+0000000009+I20000000000+0000001990+Z
306108001306108071-010481     306108006001023417220MAGNIFYING-GLASS 90mm-D0000001000+00001753+00000+0001T   00001753+0000001452          1400 ZS6130               1AZ
306109000306109               306109               170213HF     1400+00000+HF0000007629+0000007629+000000000+000001069+0000008690+0000000008+I20000000000+0000008690+Z
306109001306109077-000452     306109006003000284986G/BAG METALLIC MED EMB 0000001000+00001490+00000+0001T   00001490+0000001453          1400 ZS6112               1AZ
306109002306109018-050000     306109006003000412679MUG OCC LOVE TWIN BEAR 0000001000+00006139+00000+0001T   00006139+0000001453          1400 ZS6515               1AZ
306110000306110               306110               170213HF     1400+00000+HF0000002979+0000002979+000000000+000000418+0000003390+0000000007+I20000000000+0000003390+Z
306110001306110028-000796     306110006001023812094SKEWERS 25cm 50PCE 4mm 0000001000+00001490+00000+0001T   00001490+0000001454          1400 ZS6305               1AZ
306110002306110027-078281     306110006001023767806SCOURERS BRS 8g  PACK-30000001000+00000876+00000+0001T   00000876+0000001454          1400 ZS6212               1AZ
306110003306110027-078282     306110006001023767837SCOURER 25g SPIRAL-BALL0000001000+00000613+00000+0001T   00000613+0000001454          1400 ZS6212               1AZ
306111000306111               306111               170213HF     1400+00000+HF0000012050+0000012050+000000000+000001688+0000013738+0000000000+I40000013738+0000000000+Z
306111001306111586-091720     306111006001492917207HEART WTCH & N/LACE SET0000001000+00011402+00000+0001T   00011402+0000001457          1400 ZS6160               1AZ
306111002306111077-000311     306111006001023608666GIFT-BAG 11X14CM GLOSS 0000001000+00000613+00000+0001T   00000613+0000001457          1400 ZS6112               1AZ
306111003306111112-116038     306111006009681820246TCS CARRIER BAG MIDI   0000001000+00000035+00000+0001T   00000035+0000001457          1400 ZS6090               1AZ
306112000306112               306112               170213HF     1400+00000+HF0000000648+0000000648+000000000+000000091+0000000730+0000000009+I20000000000+0000000730+Z
306112001306112304-001011     306112006001023806727FLWR ROSE RED W/BEAR   0000001000+00000613+00000+0001T   00000788+0006471458          1400 ZS6510               1AZ
306112002306112112-116038     306112006009681820246TCS CARRIER BAG MIDI   0000001000+00000035+00000+0001T   00000035+0000001458          1400 ZS6090               1AZ
306113000306113               306113               170213HF     1400+00000+HF0000004384+0000004384+000000000+000000614+0000004990+0000000008+I20000000000+0000004990+Z
306113001306113080-000127     306113006003000424351VALENTINES DAY 36x24CM 0000002000+00002192+00000+0001T   00002192+0000001458          1400 ZS6112               1AZ
306114000306114               306114               170213HF     1400+00000+HF0000007892+0000007892+000000000+000001106+0000008990+0000000008+I20000000000+0000008990+Z
306114001306114077-000471     306114006003000330096G-BAG DESGN MED 18X23CM0000001000+00001753+00000+0001T   00001753+0000001504          1400 ZS6112               1AZ
306114002306114018-050000     306114006003000412679MUG OCC LOVE TWIN BEAR 0000001000+00006139+00000+0001T   00006139+0000001504          1400 ZS6515               1AZ
306115000306115               306115               170213HF     1400+00000+HF0000009152+0000009152+000000000+000001283+0000010430+0000000005+I20000000000+0000010430+Z
306115001306115112-116038     306115006009681820246TCS CARRIER BAG MIDI   0000001000+00000035+00000+0001T   00000035+0000001508          1400 ZS6090               1AZ
306115002306115403-000504     306115006003000310722M/BANK POLY INSPIRATION0000001000+00003507+00000+0001T   00004385+0008181508          1400 ZS6510               1AZ
306115003306115077-000318     306115006001023609755GIFT-BAG 18X23CM E/D AN0000001000+00001227+00000+0001T   00001227+0000001508          1400 ZS6112               1AZ
306115004306115080-000112     306115006003000252749CARD&ENVLP BDAY-MUSICAL0000001000+00001753+00000+0001T   00001753+0000001508          1400 ZS6112               1AZ
306115005306115031-086219-B   306115006001023808875P/FRAME 10x15cm CURVED 0000001000+00002630+00000+0001T   00002630+0000001508          1400 ZS6510               1AZ
306116000306116               306116               170213HF     1400+00000+HF0000008771+0000008771+000000000+000001228+0000009990+0000000009+I20000000000+0000009990+Z
306116001306116264-000927     306116000090159393009MAISTO MOTORBIKE 1:18  0000001000+00008771+00000+0001T   00008771+0000001508          1400 ZS6710               1AZ
306117000306117               306117               170213HF     1400+00000+HF0000011402+0000011402+000000000+000001597+0000012990+0000000009+I20000000000+0000012990+Z
306117001306117368-000181     306117006003000668052PLUSH BUNNY 27cm       0000001000+00011402+00000+0001T   00011402+0000001509          1400 ZS6745               1AZ
306118000306118               306118               170213HF     1400+00000+HF0000000876+0000000876+000000000+000000123+0000000990+0000000009+I20000000000+0000000990+Z
306118001306118903-000297     306118006001704002950SWT MS WILD BERRY 50G  0000001000+00000876+00000+0001T   00000876+0000001510          1400 ZS6150               1AZ
306119000306119               306119               170213HF     1400+00000+HF0000010082+0000010082+000000000+000001414+0000011490+0000000006+I20000000000+0000011490+Z
306119001306119039-000799     306119006001023692382CANDLES TEALITE 100PCE 0000001000+00008771+00000+0001T   00008771+0000001511          1400 ZS6510               1AZ
306119002306119080-000133-A   306119006003000647019MINI VALENTINES CARD   0000003000+00000437+00000+0001T   00000437+0000001511          1400 ZS6112               1AZ
306120000306120               306120               170213HF     1400+00000+HF0000003682+0000003682+000000000+000000516+0000004190+0000000008+I20000000000+0000004190+Z
306120001306120006-000210-H   306120006003000430055PINK/BLUE CUPS 230g 6PC0000001000+00001490+00000+0001T   00001490+0000001512          1400 ZS6131               1AZ
306120002306120033-005907     306120006003000433506SHOE LACES 4-PAIR SET  0000001000+00002192+00000+0001T   00002192+0000001512          1400 ZS6200               1AZ
306121000306121               306121               170213HF     1400+00000+HF0000004385+0000004385+000000000+000000614+0000004990+0000000009+I20000000000+0000004990+Z
306121001306121368-000001     306121006003000097982Plush Bear 25cm        0000001000+00004385+00000+0001T   00004385+0000001513          1400 ZS6745               1AZ
306122000306122               306122               170213HF     1400+00000+HF0000007014+0000007014+000000000+000000982+0000007990+0000000006+I20000000000+0000007990+Z
306122001306122262-000652     306122006003000615643DIE CAST SET 8PC RACER 0000002000+00003507+00000+0001T   00003507+0000001515          1400 ZS6710               1AZ
306123000306123               306123               170213HF     1400+00000+HF0000003945+0000003945+000000000+000000553+0000004490+0000000008+I20000000000+0000004490+Z
306123001306123080-000127     306123006003000424351VALENTINES DAY 36x24CM 0000001000+00002192+00000+0001T   00002192+0000001517          1400 ZS6112               1AZ
306123002306123077-000454     306123006003000285266G/BAG METALLIC LRG EMB 0000001000+00001753+00000+0001T   00001753+0000001517          1400 ZS6112               1AZ
306124000306124               306124               170213HF     1400+00000+HF0000004821+0000004821+000000000+000000675+0000005496+0000000000+I40000005496+0000000000+Z
306124001306124301-085004     306124006003000420469ORN LOVE PLAQUE 21X10CM0000001000+00003507+00000+0001T   00003946+0006471520          1400 ZS6505               1AZ
306124002306124077-000310     306124006001023608635GIFT-BAG 18X23CM GLOSS 0000001000+00001314+00000+0001T   00001314+0000001520          1400 ZS6112               1AZ
306125000306125               306125               170213HF     1400+00000+HF0000013009+0000013009+000000000+000001823+0000014830+0000000002+I20000000000+0000014830+Z
306125001306125018-005009     306125006001023725608MUG W/PLUSH-BEAR LOVE  0000001000+00003507+00000+0001T   00003507+0000001521          1400 ZS6515               1AZ
306125002306125565-000044     306125006003000128280BARREL OF SLIME 100g   0000001000+00000613+00000+0001T   00000613+0000001521          1400 ZS6745               1AZ
306125003306125001-000175     306125006001023788108B/MUG GLS LOVE 380ML   0000001000+00004385+00000+0001T   00004385+0000001521          1400 ZS6515               1AZ
306125004306125077-000310     306125006001023608635GIFT-BAG 18X23CM GLOSS 0000001000+00001314+00000+0001T   00001314+0000001521          1400 ZS6112               1AZ
306125005306125304-001204     306125006001023737984FLOWER OCC. TEDDY/ROSES0000001000+00001402+00000+0001T   00001490+0006471521          1400 ZS6510               1AZ
306125006306125077-000454     306125006003000285266G/BAG METALLIC LRG EMB 0000001000+00001753+00000+0001T   00001753+0000001521          1400 ZS6112               1AZ
306125007306125112-116038     306125006009681820246TCS CARRIER BAG MIDI   0000001000+00000035+00000+0001T   00000035+0000001521          1400 ZS6090               1AZ
306126000306126               306126               170213HF     1400+00000+HF0000001753+0000001753+000000000+000000246+0000001990+0000000009+I20000000000+0000001990+Z
306126001306126903-000911     306126006009802868454SWT ST GUM TAPE BARBIE 0000001000+00001753+00000+0001T   00001753+0000001522          1400 ZS6150               1AZ
306127000306127               306127               170213HF     1400+00000+HF0000005260+0000005260+000000000+000000738+0000005990+0000000008+I20000000000+0000005990+Z
306127001306127033-001365     306127006001023802118HAIR CLIPS 200PC ASSTD 0000002000+00002630+00000+0001T   00002630+0000001522          1400 ZS6200               1AZ
306128000306128               306128               170213HF     1400+00000+HF0000006138+0000006138+000000000+000000860+0000006998+0000000000+I40000006998+0000000000+Z
306128001306128030-000031-A   306128006003000457588PLAQUE W/WORDS ASSTD   0000001000+00004385+00000+0001T   00004823+0006471526          1400 ZS6505               1AZ
306128002306128903-000211     306128006002099001238SWT GS MALLOW ICE CREAM0000001000+00001753+00000+0001T   00001753+0000001526          1400 ZS6150               1AZ
306129000306129               306129               170213HF     1400+00000+HF0000017013+0000017013+000000000+000002383+0000019396+0000000000+I40000019396+0000000000+Z
306129001306129158-000167     306129006003000569588WASTEPAPER-BASKET 26cm 0000001000+00005262+00000+0001T   00005262+0000001527          1400 ZS6300               1AZ
306129002306129251-000040     306129006001023515865SEALTAPE CLEAR 48mmx50m0000001000+00001227+00000+0001T   00001227+0000001527          1400 ZS6810               1AZ
306129003306129159-000107     306129006001023640406SHOWER-CURTAIN 180cm   0000002000+00005262+00000+0001T   00006139+0008191527          1400 ZS6200               1AZ
306130000306130               306130               170213HF     1400+00000+HF0000003067+0000003067+000000000+000000430+0000003490+0000000007+I20000000000+0000003490+Z
306130001306130006-000120     306130006001023346889BALLOONS 10PC MIX COL  0000001000+00001753+00000+0001T   00001753+0000001528          1400 ZS6131               1AZ
306130002306130006-000166-H   306130006003000608096BALLOONS HELIUM 6PC WHT0000001000+00001314+00000+0001T   00001314+0000001528          1400 ZS6131               1AZ
306131000306131               306131               170213HF     1400+00000+HF0000001753+0000001753+000000000+000000246+0000001990+0000000009+I20000000000+0000001990+Z
306131001306131089-000019     306131006003000092291K/CHAIN MINI BOOT 13cm 0000001000+00001753+00000+0001T   00001753+0000001529          1400 ZS6205               1AZ
306132000306132               306132               170213HF     1400+00000+HF0000000035+0000000035+000000000+000000005+0000000040+0000000000+I20000000000+0000000040+Z
306132001306132112-116038     306132006009681820246TCS CARRIER BAG MIDI   0000001000+00000035+00000+0001T   00000035+0000001529          1400 ZS6090               1AZ
306133000306133               306133               170213HF     1400+00000+HF0000006752+0000006752+000000000+000000946+0000007698+0000000000+I40000007698+0000000000+Z
306133001306133018-019000     306133006003000557288MUG OCC. LOVE JUMBO    0000001000+00005262+00000+0001T   00005262+0000001532          1400 ZS6515               1AZ
306133002306133077-000452     306133006003000284986G/BAG METALLIC MED EMB 0000001000+00001490+00000+0001T   00001490+0000001532          1400 ZS6112               1AZ
306134000306134               306134               170213HF     1400+00000+HF0000006697+0000006697+000000000+000000940+0000007630+0000000007+I20000000000+0000007630+Z
306134001306134105-001101     306134006003000667659CONTAINER SET LITE 2PC 0000001000+00002630+00000+0001T   00002630+0000001533          1400 ZS6210               1AZ
306134002306134105-001150     306134006003000666287CONTAINER SET LITE 3PC 0000001000+00002630+00000+0001T   00002630+0000001533          1400 ZS6210               1AZ
306134003306134112-116038     306134006009681820246TCS CARRIER BAG MIDI   0000001000+00000035+00000+0001T   00000035+0000001533          1400 ZS6090               1AZ
306134004306134108-002020     306134006009654960245WINE GLS STYRENE 220ml 0000001000+00001402+00000+0001T   00001402+0000001533          1400 ZS6210               1AZ
306135000306135               306135               170213HF     1400+00000+HF0000009240+0000009240+000000000+000001295+0000010535+0000000000+I40000010535+0000000000+Z
306135001306135301-085004     306135006003000420469ORN LOVE PLAQUE 21X10CM0000001000+00003507+00000+0001T   00003946+0006471534          1400 ZS6505               1AZ
306135002306135566-000359     306135006003000582709STICKER BOOK LOVE SPARK0000001000+00002192+00000+0001T   00002192+0000001534          1400 ZS6130               1AZ
306135003306135564-000015     306135006003000140862BUBBLE TEST TUBE       0000002000+00001753+00000+0001T   00001753+0000001534          1400 ZS6131               1AZ
306135004306135112-116038     306135006009681820246TCS CARRIER BAG MIDI   0000001000+00000035+00000+0001T   00000035+0000001534          1400 ZS6090               1AZ
306136000306136               306136               170213HF     1400+00000+HF0000011437+0000011437+000000000+000001602+0000013030+0000000009+I20000000000+0000013030+Z
306136001306136368-000637     306136006001023874092PLUSH BEAR SLEEPING LOV0000001000+00011402+00000+0001T   00012279+0006471535          1400 ZS6745               1AZ
306136002306136112-116038     306136006009681820246TCS CARRIER BAG MIDI   0000001000+00000035+00000+0001T   00000035+0000001535          1400 ZS6090               1AZ
306137000306137               306137               170213HF     1400+00000+HF0000010642+0000010642+000000000+000001492+0000012130+0000000004+I20000000000+0000012130+Z
306137001306137079-105603     306137006003000230907ART+CRAFT STAMP ROUND  0000001000+00001578+00000+0001T   00001578+0000001537          1400 ZS6130               1AZ
306137002306137039-000319-1   306137006003000442386B/CANDLES LRG NUMBER-1 0000002000+00000876+00000+0001T   00000876+0000001537          1400 ZS6510               1AZ
306137003306137071-000677     306137006001023110282THUMB-TACKS            0000001000+00000876+00000+0001T   00000876+0000001537          1400 ZS6130               1AZ
306137004306137079-105609     306137006003000612697ART+CRAFT ALPHABET KIT 0000001000+00005262+00000+0001T   00005262+0000001537          1400 ZS6130               1AZ
306137005306137903-000087     306137006001704000161SWT SPECKLED-EGGS 50G  0000001000+00001139+00000+0001T   00001139+0000001537          1400 ZS6150               1AZ
306137006306137112-116038     306137006009681820246TCS CARRIER BAG MIDI   0000001000+00000035+00000+0001T   00000035+0000001537          1400 ZS6090               1AZ
306138000306138               306138               170213HF     1400+00000+HF0000012012+0000012012+000000000+000001683+0000013690+0000000005+I20000000000+0000013690+Z
306138001306138105-007500     306138006003000487189STORAGE BOX CLEAR 1.25L0000001000+00003507+00000+0001T   00003507+0000001538          1400 ZS6210               1AZ
306138002306138301-000815     306138006003000462339ORN FAIRY W/UNICORN 6X50000001000+00005262+00000+0001T   00005262+0000001538          1400 ZS6505               1AZ
306138003306138019-071606     306138006003000678891PEBBLES 500G 3MM WHITE.0000001000+00001490+00000+0001T   00001490+0000001538          1400 ZS6510               1AZ
306138004306138304-001140     306138006003000679010FLOWER MINI MOSS 40G   0000001000+00001753+00000+0001T   00001753+0000001538          1400 ZS6510               1AZ
306139000306139               306139               170213HF     1400+00000+HF0000011449+0000011449+000000000+000001604+0000013053+0000000000+I40000013053+0000000000+Z
306139001306139031-086302-C   306139006001023910332P/FRAME COLL. PL 3-HOLE0000001000+00008771+00000+0001T   00008771+0000001542          1400 ZS6510               1AZ
306139002306139077-000270     306139006003000395453GIFT-BAG PPR JMB 33X45 0000001000+00002630+00000+0001T   00002630+0000001542          1400 ZS6112               1AZ
306139003306139112-116069     306139006009681820277TCS CARRIER BAG JUMBO  0000001000+00000048+00000+0001T   00000048+0000001542          1400 ZS6090               1AZ
306140000306140               306140               170213HF     1400+00000+HF0000001490+0000001490+000000000+000000209+0000001690+0000000009+I20000000000+0000001690+Z
306140001306140089-001021     306140006003000112319KEY CHAIN MINI BIBLE   0000001000+00001490+00000+0001T   00001490+0000001601          1400 ZS6205               1AZ
306141000306141               306141               170213HF     1400+00000+HF0000001753+0000001753+000000000+000000246+0000001990+0000000009+I20000000000+0000001990+Z
306141001306141466-008889     306141006001023835376WHISTLE SPORTS+STRING  0000001000+00001753+00000+0001T   00001753+0000001602          1400 ZS6785               1AZ
306142000306142               306142               170213HF     1400+00000+HF0000002454+0000002454+000000000+000000344+0000002790+0000000008+I20000000000+0000002790+Z
306142001306142077-000322     306142006001023677532GIFT-BAG 18X23CM E/D FL0000002000+00001227+00000+0001T   00001227+0000001602          1400 ZS6112               1AZ
306143000306143               306143               170213HF     1400+00000+HF0000011959+0000011959+000000000+000001675+0000013634+0000000000+I40000013634+0000000000+Z
306143001306143018-019000     306143006003000557288MUG OCC. LOVE JUMBO    0000002000+00005262+00000+0001T   00005262+0000001605          1400 ZS6515               1AZ
306143002306143018-000177     306143006001023797513MUG MINI LOVE ASSTD    0000002000+00000700+00000+0001T   00000700+0000001605          1400 ZS6515               1AZ
306143003306143112-116038     306143006009681820246TCS CARRIER BAG MIDI   0000001000+00000035+00000+0001T   00000035+0000001605          1400 ZS6090               1AZ
306144000306144               306144               170213HF     1400+00000+HF0000007888+0000007888+000000000+000001106+0000008990+0000000004+I20000000000+0000008990+Z
306144001306144006-000167-C   306144006003000516971BALLOONS PINK METALLIC 0000001000+00001314+00000+0001T   00001314+0000001607          1400 ZS6131               1AZ
306144002306144006-000111     306144006003000519385BALLOONS LARGE 12PCE   0000002000+00002630+00000+0001T   00002630+0000001607          1400 ZS6131               1AZ
306144003306144006-000166-H   306144006003000608096BALLOONS HELIUM 6PC WHT0000001000+00001314+00000+0001T   00001314+0000001607          1400 ZS6131               1AZ
306145000306145               306145               170213HF     1400+00000+HF0000005262+0000005262+000000000+000000737+0000005990+0000000009+I20000000000+0000005990+Z
306145001306145018-019000     306145006003000557288MUG OCC. LOVE JUMBO    0000001000+00005262+00000+0001T   00005262+0000001608          1400 ZS6515               1AZ
306146000306146               306146               170213HF     1400+00000+HF0000005260+0000005260+000000000+000000738+0000005990+0000000008+I20000000000+0000005990+Z
306146001306146006-000111     306146006003000519385BALLOONS LARGE 12PCE   0000002000+00002630+00000+0001T   00002630+0000001609          1400 ZS6131               1AZ
306147000306147               306147               170213HF     1400+00000+HF0000001314+0000001314+000000000+000000184+0000001490+0000000008+I20000000000+0000001490+Z
306147001306147077-000310     306147006001023608635GIFT-BAG 18X23CM GLOSS 0000001000+00001314+00000+0001T   00001314+0000001609          1400 ZS6112               1AZ
306148000306148               306148               170213HF     1400+00000+HF0000001226+0000001226+000000000+000000172+0000001390+0000000008+I20000000000+0000001390+Z
306148001306148304-001011     306148006001023806727FLWR ROSE RED W/BEAR   0000002000+00000613+00000+0001T   00000788+0006471610          1400 ZS6510               1AZ
306149000306149               306149               170213HF     1400+00000+HF0000005258+0000005258+000000000+000000738+0000005990+0000000006+I20000000000+0000005990+Z
306149001306149007-000724     306149006003000225958NOTE MAGNETIC 60SHTS   0000001000+00001753+00000+0001T   00001753+0000001612          1400 ZS6130               1AZ
306149002306149567-014132     306149006003000560028BOOK COLOURING 24 PAGE 0000002000+00000876+00000+0001T   00000876+0000001612          1400 ZS6757               1AZ
306149003306149567-011402     306149009781614059769BOOK COLOURING&ACTIVITY0000001000+00001753+00000+0001T   00001753+0000001612          1400 ZS6757               1AZ
306150000306150               306150               170213HF     1400+00000+HF0000017972+0000017972+000000000+000002518+0000020490+0000000000+I40000020490+0000000000+Z
306150001306150018-000130     306150006001023867537MUG OCC LOVE MINI+HEART0000002000+00003507+00000+0001T   00003507+0000001615          1400 ZS6515               1AZ
306150002306150018-000136     306150006001023659026MUG OCC LOVE W/PLUSH   0000001000+00003507+00000+0001T   00003507+0000001615          1400 ZS6515               1AZ
306150003306150903-000619     306150006003000672455SWT LOLLY STR/BRRY 140G0000003000+00001753+00000+0001T   00001753+0000001615          1400 ZS6150               1AZ
306150004306150018-000170     306150006001023775528MUG OCC. LOVE 2PC MINI 0000001000+00002192+00000+0001T   00002192+0000001615          1400 ZS6515               1AZ
306151000306151               306151               170213HF     1400+00000+HF0000002013+0000002013+000000000+000000282+0000002290+0000000005+I20000000000+0000002290+Z
306151001306151018-000177     306151006001023797513MUG MINI LOVE ASSTD    0000002000+00000700+00000+0001T   00000700+0000001617          1400 ZS6515               1AZ
306151002306151077-000321     306151006001023677501GIFT-BAG 11X14CM E/D FL0000001000+00000613+00000+0001T   00000613+0000001617          1400 ZS6112               1AZ
306152000306152               306152               170213HF     1400+00000+HF0000004419+0000004419+000000000+000000619+0000005038+0000000000+I40000005038+0000000000+Z
306152001306152566-000068     306152006003000418046POP UP LOVE 2 ASSTD    0000002000+00002192+00000+0001T   00002192+0000001619          1400 ZS6130               1AZ
306152002306152112-116038     306152006009681820246TCS CARRIER BAG MIDI   0000001000+00000035+00000+0001T   00000035+0000001619          1400 ZS6090               1AZ
306153000306153               306153               170213HF     1400+00000+HF0000001753+0000001753+000000000+000000246+0000001990+0000000009+I20000000000+0000001990+Z
306153001306153089-000030     306153006003000575671K/CHAIN LOVE MTL ASSTD 0000001000+00001753+00000+0001T   00001753+0000001619          1400 ZS6205               1AZ
306154000306154               306154               170213HF     1400+00000+HF0000013157+0000013157+000000000+000001842+0000014990+0000000009+I20000000000+0000014990+Z
306154001306154029-000012     306154006001577033754BUCKET GALV 10L        0000001000+00013157+00000+0001T   00013157+0000001620          1400 ZS6510               1AZ
306155000306155               306155               170213HF     1400+00000+HF0000010083+0000010083+000000000+000001412+0000011495+0000000000+I40000011495+0000000000+Z
306155001306155007-000095     306155006003000530434ENVELOPES WHITE 20PK C60000001000+00002192+00000+0001T   00002192+0000001621          1400 ZS6130               1AZ
306155002306155007-000325     306155006009698066514PAPER A4 160GSM 25SHTS 0000001000+00003507+00000+0001T   00003507+0000001621          1400 ZS6130               1AZ
306155003306155200-000020     306155006925406841030BAG ZIPPERSEAL 25PC    0000001000+00002192+00000+0001T   00002192+0000001621          1400 ZS6214               1AZ
306155004306155200-000010     306155006925406841061BAG ZIPPERSEAL 35PC    0000001000+00002192+00000+0001T   00002192+0000001621          1400 ZS6214               1AZ
306156000306156               306156               170213HF     1400+00000+HF0000006345+0000006345+000000000+000000890+0000007230+0000000005+I20000000000+0000007230+Z
306156001306156079-013099     306156006003000081875ART+CRAFT EYES ASSTD   0000001000+00001753+00000+0001T   00001753+0000001636          1400 ZS6130               1AZ
306156002306156071-001231     306156006003000144990ERASER RETRACT 2PK     0000001000+00001753+00000+0001T   00001753+0000001636          1400 ZS6130               1AZ
306156003306156078-009100     306156006008741002349ALL-CLEAR GLUE 25ml CRD0000001000+00001314+00000+0001T   00001314+0000001636          1400 ZS6810               1AZ
306156004306156079-006494     306156006003000159864GLITTER GLUE 5PCE 11cm 0000001000+00001490+00000+0001T   00001490+0000001636          1400 ZS6130               1AZ
306156005306156112-116038     306156006009681820246TCS CARRIER BAG MIDI   0000001000+00000035+00000+0001T   00000035+0000001636          1400 ZS6090               1AZ
306157000306157               306157               170213HF     1400+00000+HF0000012940+0000012940+000000000+000001813+0000014750+0000000003+I20000000000+0000014750+Z
306157001306157039-000108     306157006001023524034TEA-LITE CANDLES 8PCE  0000001000+00001490+00000+0001T   00001490+0000001638          1400 ZS6510               1AZ
306157002306157040-000103     306157000694202201862C/HOLDER-SET 5PC W/TRAY0000001000+00011402+00000+0001T   00013157+0008191638          1400 ZS6510               1AZ
306157003306157112-116069     306157006009681820277TCS CARRIER BAG JUMBO  0000001000+00000048+00000+0001T   00000048+0000001638          1400 ZS6090               1AZ
306158000306158               306158               170213HF     1400+00000+HF0000005260+0000005260+000000000+000000737+0000005990+0000000007+I20000000000+0000005990+Z
306158001306158162-094208     306158006001492942087#TAG MULTIBEAD NK      0000001000+00001753+00000+0001T   00001753+0000001645          1400 ZS6160               1AZ
306158002306158162-093281     306158006001492932811#TAG STATEMENT STUDS   0000001000+00003507+00000+0001T   00003507+0000001645          1400 ZS6160               1AZ
306159000306159               306159               170213HF     1400+00000+HF0000004385+0000004385+000000000+000000614+0000004990+0000000009+I20000000000+0000004990+Z
306159001306159079-000261     306159006003000159727PAINT WATER COLOUR CAKE0000001000+00004385+00000+0001T   00004385+0000001645          1400 ZS6130               1AZ
306160000306160               306160               170213HF     1400+00000+HF0000003507+0000003507+000000000+000000491+0000003990+0000000008+I20000000000+0000003990+Z
306160001306160071-005667     306160006003000153060STAPLER SET MTL W/STPLS0000001000+00003507+00000+0001T   00003507+0000001646          1400 ZS6130               1AZ
306161000306161               306161               170213HF     1400+00000+HF0000001227+0000001227+000000000+000000172+0000001390+0000000009+I20000000000+0000001390+Z
306161001306161077-000322     306161006001023677532GIFT-BAG 18X23CM E/D FL0000001000+00001227+00000+0001T   00001227+0000001659          1400 ZS6112               1AZ
306162000306162               306162               170213HF     1400+00000+HF0000007629+0000007629+000000000+000001069+0000008698+0000000000+I40000008698+0000000000+Z
306162001306162018-050000     306162006003000412679MUG OCC LOVE TWIN BEAR 0000001000+00006139+00000+0001T   00006139+0000001701          1400 ZS6515               1AZ
306162002306162077-000299     306162006003000395576G/BAG 32x25cm LRG LOVE 0000001000+00001490+00000+0001T   00001490+0000001701          1400 ZS6112               1AZ
306163000306163               306163               170213HF     1400+00000+HF0000000525+0000000525+000000000+000000074+0000000590+0000000009+I20000000000+0000000590+Z
306163001306163002-021040     306163006001023812216PARTY-PICKS 100PCE     0000001000+00000525+00000+0001T   00000525+0000001701          1400 ZS6300               1AZ
306164000306164               306164               170213HF     1400+00000+HF0000004992+0000004992+000000000+000000700+0000005690+0000000002+I20000000000+0000005690+Z
306164001306164006-000166-C   306164006003000516377BALLOONS LRG 6PC PINK  0000001000+00001314+00000+0001T   00001314+0000001702          1400 ZS6131               1AZ
306164002306164006-001000     306164006003000093779HELIUM BALLOON FILL    0000006000+00000613+00000+0001T   00000613+0000001702          1400 ZS6131               1AZ
306165000306165               306165               170213HF     1400+00000+HF0000001314+0000001314+000000000+000000184+0000001490+0000000008+I20000000000+0000001490+Z
306165001306165077-000310     306165006001023608635GIFT-BAG 18X23CM GLOSS 0000001000+00001314+00000+0001T   00001314+0000001703          1400 ZS6112               1AZ
306166000306166               306166               170213HF     1400+00000+HF0000001578+0000001578+000000000+000000221+0000001790+0000000009+I20000000000+0000001790+Z
306166001306166077-000303     306166006001023593757GIFT-BAG PAPER MED     0000001000+00001578+00000+0001T   00001578+0000001722          1400 ZS6112               1AZ
306167000306167               306167               170213HF     1400+00000+HF0000001226+0000001226+000000000+000000172+0000001390+0000000008+I20000000000+0000001390+Z
306167001306167077-000321     306167006001023677501GIFT-BAG 11X14CM E/D FL0000002000+00000613+00000+0001T   00000613+0000001722          1400 ZS6112               1AZ
306168000306168               306168               170213HF     1400+00000+HF0000023729+0000023729+000000000+000003323+0000027052+0000000000+I40000027052+0000000000+Z
306168001306168203-005501     306168006003000381821DRINKING HELMET 4 2 CAN0000001000+00008771+00000+0001T   00010525+0008191724          1400 ZS6300               1AZ
306168002306168368-000614     306168006001023705808PLUSH LOVE 30cm        0000001000+00008771+00000+0001T   00008771+0000001724          1400 ZS6745               1AZ
306168003306168301-000013     306168006001023781604ORN SENTIMENT STONE 4-A0000001000+00006139+00000+0001T   00006139+0000001724          1400 ZS6505               1AZ
306168004306168112-116069     306168006009681820277TCS CARRIER BAG JUMBO  0000001000+00000048+00000+0001T   00000048+0000001724          1400 ZS6090               1AZ
306169000306169               306169               170213HF     1400+00000+HF0000008767+0000008767+000000000+000001229+0000009996+0000000000+I40000009996+0000000000+Z
306169001306169077-000299     306169006003000395576G/BAG 32x25cm LRG LOVE 0000001000+00001490+00000+0001T   00001490+0000001726          1400 ZS6112               1AZ
306169002306169089-060027     306169006003000245871KEY-CHAIN HEART 6X6cm  0000001000+00003069+00000+0001T   00003069+0000001726          1400 ZS6205               1AZ
306169003306169077-000303     306169006001023593757GIFT-BAG PAPER MED     0000001000+00001578+00000+0001T   00001578+0000001726          1400 ZS6112               1AZ
306169004306169563-000317-G   306169006001023776341SERVIETTES BRIGHT ASSTD0000001000+00002630+00000+0001T   00002630+0000001726          1400 ZS6214               1AZ
306170000306170               306170               170213HF     1400+00000+HF0000004857+0000004857+000000000+000000681+0000005530+0000000008+I20000000000+0000005530+Z
306170001306170080-000133     306170006003000535613CARD&ENV MINI ASTD DSGN0000001000+00000437+00000+0001T   00000437+0000001727          1400 ZS6112               1AZ
306170002306170031-080508     306170006001023802415P/FRAME PL 22X11CM LOVE0000001000+00004385+00000+0001T   00004385+0000001727          1400 ZS6510               1AZ
306170003306170112-116038     306170006009681820246TCS CARRIER BAG MIDI   0000001000+00000035+00000+0001T   00000035+0000001727          1400 ZS6090               1AZ
306171000306171               306171               170213HF     1400+00000+HF0000004207+0000004207+000000000+000000590+0000004790+0000000007+I20000000000+0000004790+Z
306171001306171018-000127     306171006001023380289MUG OCC STRAIGHT LOVE  0000002000+00001578+00000+0001T   00001753+0006471806          1400 ZS6515               1AZ
306171002306171007-000119     306171006002324004126BOOK COVER PL          0000001000+00001051+00000+0001T   00001051+0000001806          1400 ZS6130               1AZ
A17021300                                          12073768HFSLAVE 1                       ZS61IC
M17021391                              CASH        HFSLAVE 1                       Z-REPORT No.   562TOTAL (Sales - Refunds)          10310.04       CASH TO BE BANKED                 5715.40       DEBIT CARDS                          0.00       CREDIT CARDS                      4594.64       Z-READING                        10310.04       AIRTIME DEBIT CARD SALES             0.00       AIRTIME CARD SALES                   0.00       OVERS/UNDERS                         0.00       AIRTIME CASH SALES                   0.00       GIFT CARDS                           0.00       GIFT CARD CASH SALES                 0.00       T O T A L  CASH PAYOUTS              0.00                                                                                                                                                                                                                                                                                                                                                      Z
M17021392                              CASH        HFABSENT                                                                                                                                                                                          ANNUAL LEAVE                                                                                                                                                                                    DAY OFF                                                                                                                                                                                         COMMENTS                                                                                                                                                                                                                                                                                                                                                                                       Z
Y17021300                                          HF00000000904911+000135
ZHF17021319463 SLAVE 1      SALES DATA                     NEXT INVOICE NO.  306172 0562
F094140463-000501         1701140743030000021ICSLAVE 1
X HF Slave 1 First invoice 306035 170213 Last invoice 306171 170213 Next invoice 306172 Total number of records 000000471 clbackup completed 19:46:52
