401009000401009               401009               170213HF     1400+00000+HF0000008628+0000008628+000000000+000001209+0000009830+0000000007+I20000000000+0000009830+Z
401009001401009301-085007     401009006003000673698ORN OCC. LOVE S/PLAQUE 0000001000+00007893+00000+0001T   00007893+0000000900          1400 MD4505               2AZ
401009002401009112-116038     401009006009681820246TCS CARRIER BAG MIDI   0000001000+00000035+00000+0001T   00000035+0000000900          1400 MD4090               2AZ
401009003401009018-000177     401009006001023797513MUG MINI LOVE ASSTD    0000001000+00000700+00000+0001T   00000700+0000000900          1400 MD4515               2AZ
401010000401010               401010               170213HF     1400+00000+HF0000001753+0000001753+000000000+000000246+0000001990+0000000009+I20000000000+0000001990+Z
401010001401010566-000007     401010006001023761187S/BOOK SUPER VALUE     0000001000+00001753+00000+0001T   00001753+0000000950          1400 MD4130               2AZ
401011000401011               401011               170213HF     1400+00000+HF0000017536+0000017536+000000000+000002456+0000019990+0000000002+I20000000000+0000019990+Z
401011001401011016-006517     401011006003000351626S/JAR GLS CHECK 650ML  0000008000+00002192+00000+0001T   00002192+0000000955          1400 MD4300               2AZ
401012000401012               401012               170213HF     1400+00000+HF0000011449+0000011449+000000000+000001604+0000013050+0000000003+I20000000000+0000013050+Z
401012001401012002-250010     401012006001023621931KITCHEN-SCALE 2kg      0000001000+00008771+00000+0001T   00008771+0000000956          1400 MD4300               2AZ
401012002401012002-000717     401012006001023775184CHOPPING-MATS FLEX 2PCE0000001000+00002630+00000+0001T   00002630+0000000956          1400 MD4300               2AZ
401012003401012112-116069     401012006009681820277TCS CARRIER BAG JUMBO  0000001000+00000048+00000+0001T   00000048+0000000956          1400 MD4090               2AZ
401013000401013               401013               170213HF     1400+00000+HF0000009680+0000009680+000000000+000001357+0000011030+0000000007+I20000000000+0000011030+Z
401013001401013403-000502-A   401013006003000467099M/BANK TIN 8x12.5cm    0000001000+00002630+00000+0001T   00002630+0000001001          1400 MD4510               2AZ
401013002401013002-000047     401013006001023730107S/REST CER.28CM 2-ASSTD0000001000+00004385+00000+0001T   00004385+0000001001          1400 MD4300               2AZ
401013003401013403-000502-A   401013006003000467099M/BANK TIN 8x12.5cm    0000001000+00002630+00000+0001T   00002630+0000001001          1400 MD4510               2AZ
401013004401013112-116038     401013006009681820246TCS CARRIER BAG MIDI   0000001000+00000035+00000+0001T   00000035+0000001001          1400 MD4090               2AZ
401014000401014               401014               170213HF     1400+00000+HF0000004385+0000004385+000000000+000000614+0000004990+0000000009+I20000000000+0000004990+Z
401014001401014082-000105     401014006003000360369READING GLS STRNGHT:1.50000001000+00004385+00000+0001T   00004385+0000001002          1400 MD4160               2AZ
401015000401015               401015               170213HF     1400+00000+HF0000008817+0000008817+000000000+000001236+0000010053+0000000000+I40000010053+0000000000+Z
401015001401015031-000017     401015006003000411436P/FRAME COLLAGE 3-HOLE 0000001000+00007016+00000+0001T   00007016+0000001008          1400 MD4510               2AZ
401015002401015200-003024     401015006001023657299REFUSE BAGS 20PCE BLACK0000001000+00001753+00000+0001T   00001753+0000001008          1400 MD4214               2AZ
401015003401015112-116069     401015006009681820277TCS CARRIER BAG JUMBO  0000001000+00000048+00000+0001T   00000048+0000001008          1400 MD4090               2AZ
401016000401016               401016               170213HF     1400+00000+HF0000004433+0000004433+000000000+000000621+0000005050+0000000004+I20000000000+0000005050+Z
401016001401016104-000053     401016006003000011193BASKET PL 25X32X6cm    0000001000+00004385+00000+0001T   00004385+0000001011          1400 MD4210               2AZ
401016002401016112-116069     401016006009681820277TCS CARRIER BAG JUMBO  0000001000+00000048+00000+0001T   00000048+0000001011          1400 MD4090               2AZ
401017000401017               401017               170213HF     1400+00000+HF0000003069+0000003069+000000000+000000430+0000003499+0000000000+I40000003499+0000000000+Z
401017001401017089-060027     401017006003000245871KEY-CHAIN HEART 6X6cm  0000001000+00003069+00000+0001T   00003069+0000001015          1400 MD4205               2AZ
401018000401018               401018               170213HF     1400+00000+HF0000004556+0000004556+000000000+000000639+0000005190+0000000005+I20000000000+0000005190+Z
401018001401018903-000698     401018006002099007032SWT CANDY ECLAIRS 90g  0000001000+00001139+00000+0001T   00001139+0000001016          1400 MD4150               2AZ
401018002401018903-004950     401018006002580020304SWT APRICOT SURPRISE   0000001000+00001314+00000+0001T   00001314+0000001016          1400 MD4150               2AZ
401018003401018903-000699     401018006002099007018SWT CANDY FRUIT CHEWS  0000001000+00001139+00000+0001T   00001139+0000001016          1400 MD4150               2AZ
401018004401018903-004963     401018008410525221873SWT GUMMY SOUR COLA 50g0000001000+00000964+00000+0001T   00000964+0000001016          1400 MD4150               2AZ
401019000401019               401019               170213HF     1400+00000+HF0000004385+0000004385+000000000+000000614+0000004999+0000000000+I40000004999+0000000000+Z
401019001401019079-013052     401019000795229385143CHALK S/WALK 15PCS ASST0000001000+00004385+00000+0001T   00004385+0000001018          1400 MD4130               2AZ
401020000401020               401020               170213HF     1400+00000+HF0000003507+0000003507+000000000+000000491+0000003990+0000000008+I20000000000+0000003990+Z
401020001401020031-000902-A   401020006001023726254P/FRAME WDN OAK 6X9CM  0000001000+00003507+00000+0001T   00003507+0000001028          1400 MD4510               2AZ
401021000401021               401021               170213HF     1400+00000+HF0000003204+0000003204+000000000+000000449+0000003653+0000000000+I40000003653+0000000000+Z
401021001401021024-000036     401021006001023477002MEASURING-JUG 500ml    0000001000+00001578+00000+0001T   00001578+0000001031          1400 MD4300               2AZ
401021002401021024-000034     401021006001023495235MEASURING-JUG 1-CUP    0000001000+00001578+00000+0001T   00001578+0000001031          1400 MD4300               2AZ
401021003401021112-116069     401021006009681820277TCS CARRIER BAG JUMBO  0000001000+00000048+00000+0001T   00000048+0000001031          1400 MD4090               2AZ
401022000401022               401022               170213HF     1400+00000+HF0000013157+0000013157+000000000+000001842+0000014990+0000000009+I20000000000+0000014990+Z
401022001401022028-003602     401022006003000605224UMBRELLA-BEACH 200cm   0000001000+00013157+00000+0001T   00013157+0000001033          1400 MD4305               2AZ
401023000401023               401023               170213HF     1400+00000+HF0000001751+0000001751+000000000+000000246+0000001990+0000000007+I20000000000+0000001990+Z
401023001401023089-000098     401023006003000677443KEY CHAIN OPENER ASSTD 0000001000+00001314+00000+0001T   00001314+0000001039          1400 MD4205               2AZ
401023002401023083-000049     401023004891035200024CIG-LIGHTER DISPOSABLE 0000001000+00000437+00000+0001T   00000437+0000001039          1400 MD4315               2AZ
401024000401024               401024               170213HF     1400+00000+HF0000006132+0000006132+000000000+000000861+0000006990+0000000003+I20000000000+0000006990+Z
401024001401024077-000314     401024006003000181148GIFT-BAG 11X14CM MATT  0000007000+00000876+00000+0001T   00000876+0000001052          1400 MD4112               2AZ
401025000401025               401025               170213HF     1400+00000+HF0000007940+0000007940+000000000+000001113+0000009053+0000000000+I40000009053+0000000000+Z
401025001401025366-000125     401025006003000006786DRESSUP WINGS/WAND/BAND0000001000+00005262+00000+0001T   00005262+0000001212          1400 MD4131               2AZ
401025002401025366-000450     401025006003000653386DRESS UP HEADBAND ASSTD0000001000+00002630+00000+0001T   00002630+0000001212          1400 MD4131               2AZ
401025003401025112-116069     401025006009681820277TCS CARRIER BAG JUMBO  0000001000+00000048+00000+0001T   00000048+0000001212          1400 MD4090               2AZ
401026000401026               401026               170213HF     1400+00000+HF0000001402+0000001402+000000000+000000197+0000001590+0000000009+I20000000000+0000001590+Z
401026001401026105-000750     401026006003000190270CONTAINERS 4xMINI 150ml0000001000+00001402+00000+0001T   00001402+0000001214          1400 MD4210               2AZ
401027000401027               401027               170213HF     1400+00000+HF0000006268+0000006268+000000000+000000880+0000007148+0000000000+I40000007148+0000000000+Z
401027001401027077-000308     401027006001023595812GIFT-BAG 33X45CM E/DAY 0000001000+00001753+00000+0001T   00001753+0000001217          1400 MD4112               2AZ
401027002401027903-000087     401027006001704000161SWT SPECKLED-EGGS 50G  0000001000+00001139+00000+0001T   00001139+0000001217          1400 MD4150               2AZ
401027003401027903-000494     401027006001704009911SWT GUMMY TEENY TEDDIES0000001000+00000876+00000+0001T   00000876+0000001217          1400 MD4150               2AZ
401027004401027903-000221     401027006001704007382SWT EENY-MEENY-MOS 60G 0000001000+00000876+00000+0001T   00000876+0000001217          1400 MD4150               2AZ
401027005401027903-000126     401027006002099003591SWT ZILLIONS MINT 50G  0000001000+00000700+00000+0001T   00000700+0000001217          1400 MD4150               2AZ
401027006401027566-000200     401027006003000384174STICKER PUFFY NEON     0000001000+00000876+00000+0001T   00000876+0000001217          1400 MD4130               2AZ
401027007401027112-116069     401027006009681820277TCS CARRIER BAG JUMBO  0000001000+00000048+00000+0001T   00000048+0000001217          1400 MD4090               2AZ
401028000401028               401028               170213HF     1400+00000+HF0000006873+0000006873+000000000+000000963+0000007830+0000000006+I20000000000+0000007830+Z
401028001401028077-000303     401028006001023593757GIFT-BAG PAPER MED     0000001000+00001578+00000+0001T   00001578+0000001218          1400 MD4112               2AZ
401028002401028903-000619     401028006003000672455SWT LOLLY STR/BRRY 140G0000001000+00001753+00000+0001T   00001753+0000001218          1400 MD4150               2AZ
401028003401028031-005853     401028006003000442416P/FRAME WDN TWIN HEARTS0000001000+00003507+00000+0001T   00003507+0000001218          1400 MD4510               2AZ
401028004401028112-116038     401028006009681820246TCS CARRIER BAG MIDI   0000001000+00000035+00000+0001T   00000035+0000001218          1400 MD4090               2AZ
401029000401029               401029               170213HF     1400+00000+HF0000003507+0000003507+000000000+000000491+0000003990+0000000008+I20000000000+0000003990+Z
401029001401029105-001068     401029006003000629046CONTAINER CLIP LOCK    0000001000+00003507+00000+0001T   00003507+0000001228          1400 MD4210               2AZ
401030000401030               401030               170213HF     1400+00000+HF0000012278+0000012278+000000000+000001720+0000013990+0000000008+I20000000000+0000013990+Z
401030001401030586-091720     401030006001492917207HEART WTCH & N/LACE SET0000001000+00011402+00000+0001T   00011402+0000001231          1400 MD4160               2AZ
401030002401030077-000314     401030006003000181148GIFT-BAG 11X14CM MATT  0000001000+00000876+00000+0001T   00000876+0000001231          1400 MD4112               2AZ
401031000401031               401031               170213HF     1400+00000+HF0000008803+0000008803+000000000+000001233+0000010030+0000000006+I20000000000+0000010030+Z
401031001401031047-000505     401031006009636901976PLUG-ADAPTOR 2-PIN     0000001000+00000876+00000+0001T   00000876+0000001232          1400 MD4880               2AZ
401031002401031004-071204     401031006003000624904USB IN-CAR CHARGER 2.1A0000001000+00003507+00000+0001T   00003507+0000001232          1400 MD4310               2AZ
401031003401031368-000049     401031006003000536955PLUSH BEAR 15cm LOVE   0000001000+00004385+00000+0001T   00004385+0000001232          1400 MD4745               2AZ
401031004401031112-116038     401031006009681820246TCS CARRIER BAG MIDI   0000001000+00000035+00000+0001T   00000035+0000001232          1400 MD4090               2AZ
401032000401032               401032               170213HF     1400+00000+HF0000002192+0000002192+000000000+000000307+0000002499+0000000000+I40000002499+0000000000+Z
401032001401032566-000359     401032006003000582709STICKER BOOK LOVE SPARK0000001000+00002192+00000+0001T   00002192+0000001238          1400 MD4130               2AZ
401033000401033               401033               170213HF     1400+00000+HF0000002630+0000002630+000000000+000000369+0000002990+0000000009+I20000000000+0000002990+Z
401033001401033133-046632     401033006008766046632TABLE-CLOTH 132cm SQ   0000001000+00002630+00000+0001T   00002630+0000001240          1400 MD4212               2AZ
401034000401034               401034               170213HF     1400+00000+HF0000004204+0000004204+000000000+000000592+0000004790+0000000006+I20000000000+0000004790+Z
401034001401034007-000119     401034006002324004126BOOK COVER PL          0000004000+00001051+00000+0001T   00001051+0000001242          1400 MD4130               2AZ
401035000401035               401035               170213HF     1400+00000+HF0000015342+0000015342+000000000+000002152+0000017494+0000000000+I40000017494+0000000000+Z
401035001401035304-001601     401035006001023842374BRANCH CURVED 20PC 1.3m0000005000+00002630+00000+0001T   00002630+0000001246          1400 MD4510               2AZ
401035002401035304-001604     401035006001023842466BRANCH DRIED SPIRAL 10P0000001000+00002192+00000+0001T   00002192+0000001246          1400 MD4510               2AZ
401036000401036               401036               170213HF     1400+00000+HF0000002192+0000002192+000000000+000000307+0000002490+0000000009+I20000000000+0000002490+Z
401036001401036108-000999     401036006003000667185TUMBLER PL 8-PACK 200ML0000001000+00002192+00000+0001T   00002192+0000001247          1400 MD4210               2AZ
401037000401037               401037               170213HF     1400+00000+HF0000006173+0000006173+000000000+000000865+0000007030+0000000008+I20000000000+0000007030+Z
401037001401037038-092233     401037006003000328925TABLE-MAT N/SLIP ASST  0000002000+00003069+00000+0001T   00003507+0008191248          1400 MD4300               2AZ
401037002401037112-116038     401037006009681820246TCS CARRIER BAG MIDI   0000001000+00000035+00000+0001T   00000035+0000001248          1400 MD4090               2AZ
401038000401038               401038               170213HF     1400+00000+HF0000004420+0000004420+000000000+000000619+0000005030+0000000009+I20000000000+0000005030+Z
401038001401038263-091238     401038006003000298471VEHICLE MILITARY TRUCK 0000001000+00004385+00000+0001T   00004385+0000001249          1400 MD4710               2AZ
401038002401038112-116038     401038006009681820246TCS CARRIER BAG MIDI   0000001000+00000035+00000+0001T   00000035+0000001249          1400 MD4090               2AZ
401039000401039               401039               170213HF     1400+00000+HF0000001578+0000001578+000000000+000000221+0000001790+0000000009+I20000000000+0000001790+Z
401039001401039018-000127     401039006001023380289MUG OCC STRAIGHT LOVE  0000001000+00001578+00000+0001T   00001753+0006471253          1400 MD4515               2AZ
401040000401040               401040               170213HF     1400+00000+HF0000000035+0000000035+000000000+000000005+0000000040+0000000000+I20000000000+0000000040+Z
401040001401040112-116038     401040006009681820246TCS CARRIER BAG MIDI   0000001000+00000035+00000+0001T   00000035+0000001254          1400 MD4090               2AZ
401041000401041               401041               170213HF     1400+00000+HF0000002103+0000002103+000000000+000000295+0000002390+0000000008+I20000000000+0000002390+Z
401041001401041077-000299     401041006003000395576G/BAG 32x25cm LRG LOVE 0000001000+00001490+00000+0001T   00001490+0000001255          1400 MD4112               2AZ
401041002401041304-001011     401041006001023806727FLWR ROSE RED W/BEAR   0000001000+00000613+00000+0001T   00000788+0006471255          1400 MD4510               2AZ
401042000401042               401042               170213HF     1400+00000+HF0000004855+0000004855+000000000+000000682+0000005537+0000000000+I40000005537+0000000000+Z
401042001401042368-000040     401042006003000671786PLUSH ICONS 7.5cm      0000001000+00002630+00000+0001T   00002630+0000001257          1400 MD4745               2AZ
401042002401042903-000619     401042006003000672455SWT LOLLY STR/BRRY 140G0000001000+00001753+00000+0001T   00001753+0000001257          1400 MD4150               2AZ
401042003401042080-000133-A   401042006003000647019MINI VALENTINES CARD   0000001000+00000437+00000+0001T   00000437+0000001257          1400 MD4112               2AZ
401042004401042112-116038     401042006009681820246TCS CARRIER BAG MIDI   0000001000+00000035+00000+0001T   00000035+0000001257          1400 MD4090               2AZ
401043000401043               401043               170213HF     1400+00000+HF0000001578+0000001578+000000000+000000221+0000001790+0000000009+I20000000000+0000001790+Z
401043001401043077-000303     401043006001023593757GIFT-BAG PAPER MED     0000001000+00001578+00000+0001T   00001578+0000001304          1400 MD4112               2AZ
401044000401044               401044               170213HF     1400+00000+HF0000014517+0000014517+000000000+000002033+0000016550+0000000000+I20000000000+0000016550+Z
401044001401044368-000001     401044006003000097982Plush Bear 25cm        0000001000+00004385+00000+0001T   00004385+0000001308          1400 MD4745               2AZ
401044002401044001-000175     401044006001023788108B/MUG GLS LOVE 380ML   0000001000+00004385+00000+0001T   00004385+0000001308          1400 MD4515               2AZ
401044003401044077-000463     401044006003000321698G/BAG GLITTER MED20x28 0000001000+00002192+00000+0001T   00002192+0000001308          1400 MD4112               2AZ
401044004401044077-000465     401044006003000681570GIFT-BAG MTLC GLIT LRG 0000001000+00003507+00000+0001T   00003507+0000001308          1400 MD4112               2AZ
401044005401044112-116069     401044006009681820277TCS CARRIER BAG JUMBO  0000001000+00000048+00000+0001T   00000048+0000001308          1400 MD4090               2AZ
401045000401045               401045               170213HF     1400+00000+HF0000006360+0000006360+000000000+000000891+0000007250+0000000001+I20000000000+0000007250+Z
401045001401045304-001011     401045006001023806727FLWR ROSE RED W/BEAR   0000001000+00000613+00000+0001T   00000788+0006471311          1400 MD4510               2AZ
401045002401045018-005009     401045006001023725608MUG W/PLUSH-BEAR LOVE  0000001000+00003507+00000+0001T   00003507+0000001311          1400 MD4515               2AZ
401045003401045080-000127     401045006003000424351VALENTINES DAY 36x24CM 0000001000+00002192+00000+0001T   00002192+0000001311          1400 MD4112               2AZ
401045004401045112-116069     401045006009681820277TCS CARRIER BAG JUMBO  0000001000+00000048+00000+0001T   00000048+0000001311          1400 MD4090               2AZ
401046000401046               401046               170213HF     1400+00000+HF0000004155+0000004155+000000000+000000582+0000004730+0000000007+I20000000000+0000004730+Z
401046001401046304-001011     401046006001023806727FLWR ROSE RED W/BEAR   0000001000+00000613+00000+0001T   00000788+0006471312          1400 MD4510               2AZ
401046002401046018-005009     401046006001023725608MUG W/PLUSH-BEAR LOVE  0000001000+00003507+00000+0001T   00003507+0000001312          1400 MD4515               2AZ
401046003401046112-116038     401046006009681820246TCS CARRIER BAG MIDI   0000001000+00000035+00000+0001T   00000035+0000001312          1400 MD4090               2AZ
401047000401047               401047               170213HF     1400+00000+HF0000004155+0000004155+000000000+000000582+0000004730+0000000007+I20000000000+0000004730+Z
401047001401047304-001011     401047006001023806727FLWR ROSE RED W/BEAR   0000001000+00000613+00000+0001T   00000788+0006471313          1400 MD4510               2AZ
401047002401047018-005009     401047006001023725608MUG W/PLUSH-BEAR LOVE  0000001000+00003507+00000+0001T   00003507+0000001313          1400 MD4515               2AZ
401047003401047112-116038     401047006009681820246TCS CARRIER BAG MIDI   0000001000+00000035+00000+0001T   00000035+0000001313          1400 MD4090               2AZ
401048000401048               401048               170213HF     1400+00000+HF0000009450+0000009450+000000000+000001332+0000010780+0000000002+I20000000000+0000010780+Z
401048001401048903-000151     401048006009803374411SWT SML RND R/BOW LOLLY0000018000+00000525+00000+0001T   00000525+0000001318          1400 MD4150               2AZ
401049000401049               401049               170213HF     1400+00000+HF0000027670+0000027670+000000000+000003876+0000031540+0000000006+I20000000000+0000031540+Z
401049001401049006-000190     401049006003000685530BALLOONS LOVE 81x91cm  0000002000+00004385+00000+0001T   00004385+0000001321          1400 MD4131               2AZ
401049002401049301-085000     401049006003000674299 ORN OCC. LOVE HEARTS  0000003000+00002192+00000+0001T   00002192+0000001321          1400 MD4505               2AZ
401049003401049301-085008     401049006003000673933ORN OCC.LOVE TINSEL HRT0000004000+00003069+00000+0001T   00003069+0000001321          1400 MD4505               2AZ
401049004401049112-116069     401049006009681820277TCS CARRIER BAG JUMBO  0000001000+00000048+00000+0001T   00000048+0000001321          1400 MD4090               2AZ
401050000401050               401050               170213HF     1400+00000+HF0000006138+0000006138+000000000+000000860+0000006990+0000000008+I20000000000+0000006990+Z
401050001401050051-600671     401050006001023552730GARDEN-FENCE PL-CTD 5PC0000001000+00004385+00000+0001T   00004385+0000001328          1400 MD4820               2AZ
401050002401050072-020216     401050006001023775900PET CHEWS BARBI-ROLLS  0000001000+00001753+00000+0001T   00001753+0000001328          1400 MD4870               2AZ
401051000401051               401051               170213HF     1400+00000+HF0000005310+0000005310+000000000+000000744+0000006050+0000000004+I20000000000+0000006050+Z
401051001401051158-000167     401051006003000569588WASTEPAPER-BASKET 26cm 0000001000+00005262+00000+0001T   00005262+0000001329          1400 MD4300               2AZ
401051002401051112-116069     401051006009681820277TCS CARRIER BAG JUMBO  0000001000+00000048+00000+0001T   00000048+0000001329          1400 MD4090               2AZ
401052000401052               401052               170213HF     1400+00000+HF0000007035+0000007035+000000000+000000985+0000008020+0000000000+I20000000000+0000008020+Z
401052001401052261-000121     401052006001023341600GUN-CAPS 8-SHOT CARD-9 0000010000+00000700+00000+0001T   00000700+0000001349          1400 MD4710               2AZ
401052002401052112-116038     401052006009681820246TCS CARRIER BAG MIDI   0000001000+00000035+00000+0001T   00000035+0000001349          1400 MD4090               2AZ
401053000401053               401053               170213HF     1400+00000+HF0000008805+0000008805+000000000+000001233+0000010030+0000000008+I20000000000+0000010030+Z
401053001401053018-030000     401053006003000421060MUG OCCASIONS LOVE 2PCE0000002000+00004385+00000+0001T   00004385+0000001350          1400 MD4515               2AZ
401053002401053112-116038     401053006009681820246TCS CARRIER BAG MIDI   0000001000+00000035+00000+0001T   00000035+0000001350          1400 MD4090               2AZ
401054000401054               401054               170213HF     1400+00000+HF0000014064+0000014064+000000000+000001972+0000016036+0000000000+I40000016036+0000000000+Z
401054001401054082-098770     401054006001492987705SUNGLASS LADIES RECT   0000001000+00005262+00000+0001T   00005262+0000001353          1400 MD4160               2AZ
401054002401054082-096888     401054006001492968889#SUNGLASS BABY WAYFARER0000001000+00002630+00000+0001T   00002630+0000001353          1400 MD4160               2AZ
401054003401054089-000192-A   401054006001023901774KEY-CHAIN ACRYLIC      0000001000+00000876+00000+0001T   00000876+0000001353          1400 MD4205               2AZ
401054004401054079-001107     401054006003000380879ART+CRAFT SAND ART     0000001000+00002630+00000+0001T   00002630+0000001353          1400 MD4130               2AZ
401054005401054112-116038     401054006009681820246TCS CARRIER BAG MIDI   0000001000+00000035+00000+0001T   00000035+0000001353          1400 MD4090               2AZ
401054006401054082-094484     401054006001492944845#SUNGLASS GIRLS SPORT  0000001000+00002631+00000+0001T   00002631+0000001353          1400 MD4160               2AZ
401055000401055               401055               170213HF     1400+00000+HF0000004645+0000004645+000000000+000000652+0000005297+0000000000+I40000005297+0000000000+Z
401055001401055027-000194     401055006001246602472MOP COMPLETE           0000001000+00002279+00000+0001T   00002279+0000001354          1400 MD4212               2AZ
401055002401055027-078282     401055006001023767837SCOURER 25g SPIRAL-BALL0000001000+00000613+00000+0001T   00000613+0000001354          1400 MD4212               2AZ
401055003401055200-003026     401055006003000276448REFUSE BAGS 10PCE GREEN0000001000+00001753+00000+0001T   00001753+0000001354          1400 MD4214               2AZ
401056000401056               401056               170213HF     1400+00000+HF0000001314+0000001314+000000000+000000184+0000001490+0000000008+I20000000000+0000001490+Z
401056001401056077-000407     401056006003000145096G/BAG PP 19X26X8CM     0000001000+00001314+00000+0001T   00001314+0000001355          1400 MD4112               2AZ
401057000401057               401057               170213HF     1400+00000+HF0000002227+0000002227+000000000+000000312+0000002530+0000000009+I20000000000+0000002530+Z
401057001401057369-001010     401057006001023864222BATH VINYL DUCK 4PC    0000001000+00002192+00000+0001T   00002192+0000001408          1400 MD4745               2AZ
401057002401057112-116038     401057006009681820246TCS CARRIER BAG MIDI   0000001000+00000035+00000+0001T   00000035+0000001408          1400 MD4090               2AZ
401058000401058               401058               170213HF     1400+00000+HF0000001403-0000001403-000000000+000000197-0000001600-0000000000+I20000000000+0000001600-Z
401058001401058001-999907     401058000000000999907CLEANING-MATERIALS     0000001000-00001403+00000+0001T   00000000+0000001426          1400 MD49071IC            2 Z
401059000401059               401059               170213HF     1400+00000+HF0000021524+0000021524+000000000+000003020+0000024540+0000000004+I20000000000+0000024540+Z
401059001401059112-116069     401059006009681820277TCS CARRIER BAG JUMBO  0000001000+00000048+00000+0001T   00000048+0000001429          1400 MD4090               2AZ
401059002401059027-056186     401059006003000638215DISH BRUSH DUCK DESIGN 0000001000+00002630+00000+0001T   00002630+0000001429          1400 MD4212               2AZ
401059003401059088-000016     401059006003000525294AIR FRESHENER FRIDGE   0000001000+00001753+00000+0001T   00001753+0000001429          1400 MD4212               2AZ
401059004401059002-003733     401059006001023849182STRAINER D/FRY 20CM    0000001000+00003069+00000+0001T   00003069+0000001429          1400 MD4300               2AZ
401059005401059361-000114     401059006001023744074DOLL SML 15cm BENDABLE 0000003000+00001753+00000+0001T   00001753+0000001429          1400 MD4725               2AZ
401059006401059466-370086     401059006001023800664PADDLE BALL 2 ASSTD    0000002000+00001753+00000+0001T   00001753+0000001429          1400 MD4785               2AZ
401059007401059365-000001     401059006003000395262PLAY SET DOCTORS SET   0000003000+00001753+00000+0001T   00001753+0000001429          1400 MD4725               2AZ
401060000401060               401060               170213HF     1400+00000+HF0000001490+0000001490+000000000+000000209+0000001690+0000000009+I20000000000+0000001690+Z
401060001401060077-000399     401060006003000139514GIFT BAG 18X23CM E/DAY 0000001000+00001490+00000+0001T   00001490+0000001429          1400 MD4112               2AZ
401061000401061               401061               170213HF     1400+00000+HF0000007677+0000007677+000000000+000001076+0000008753+0000000000+I40000008753+0000000000+Z
401061001401061368-000023     401061006003000672264PLUSH BEAR 21.5cm      0000001000+00007016+00000+0001T   00007016+0000001432          1400 MD4745               2AZ
401061002401061304-001011     401061006001023806727FLWR ROSE RED W/BEAR   0000001000+00000613+00000+0001T   00000788+0006471432          1400 MD4510               2AZ
401061003401061112-116069     401061006009681820277TCS CARRIER BAG JUMBO  0000001000+00000048+00000+0001T   00000048+0000001432          1400 MD4090               2AZ
401062000401062               401062               170213HF     1400+00000+HF0000003944+0000003944+000000000+000000553+0000004490+0000000007+I20000000000+0000004490+Z
401062001401062018-005009     401062006001023725608MUG W/PLUSH-BEAR LOVE  0000001000+00003507+00000+0001T   00003507+0000001432          1400 MD4515               2AZ
401062002401062080-000133-A   401062006003000647019MINI VALENTINES CARD   0000001000+00000437+00000+0001T   00000437+0000001432          1400 MD4112               2AZ
401063000401063               401063               170213HF     1400+00000+HF0000004032+0000004032+000000000+000000565+0000004590+0000000007+I20000000000+0000004590+Z
401063001401063077-000011-D   401063006001023808554TISSUE-WRAP WHITE 10PCE0000001000+00000876+00000+0001T   00000876+0000001433          1400 MD4112               2AZ
401063002401063077-000315     401063006003000181186GIFT-BAG 20x28cm MATT  0000002000+00001578+00000+0001T   00001578+0000001433          1400 MD4112               2AZ
401064000401064               401064               170213HF     1400+00000+HF0000014078+0000014078+000000000+000001973+0000016051+0000000000+I40000016051+0000000000+Z
401064001401064082-098783     401064006001492987835SUNGLASS KIDS GIRLS    0000001000+00003946+00000+0001T   00003946+0000001439          1400 MD4160               2AZ
401064002401064082-007580     401064006003000698523SUNGLASS MENS DESIGNER 0000001000+00005262+00000+0001T   00005262+0000001439          1400 MD4160               2AZ
401064003401064362-001103     401064006001023793515JWLRY GRL ASS 2PC ASSTD0000001000+00001753+00000+0001T   00001753+0000001439          1400 MD4160               2AZ
401064004401064366-007932     401064006003000238057ACCESS CLOWN BOWTIE    0000001000+00003069+00000+0001T   00003069+0000001439          1400 MD4131               2AZ
401064005401064112-116069     401064006009681820277TCS CARRIER BAG JUMBO  0000001000+00000048+00000+0001T   00000048+0000001439          1400 MD4090               2AZ
401065000401065               401065               170213HF     1400+00000+HF0000008242+0000008242+000000000+000001155+0000009397+0000000000+I40000009397+0000000000+Z
401065001401065368-000171     401065006003000233250PLUSH BEAR 14cm        0000001000+00005262+00000+0001T   00005262+0000001508          1400 MD4745               2AZ
401065002401065903-000619     401065006003000672455SWT LOLLY STR/BRRY 140G0000001000+00001753+00000+0001T   00001753+0000001508          1400 MD4150               2AZ
401065003401065077-000318     401065006001023609755GIFT-BAG 18X23CM E/D AN0000001000+00001227+00000+0001T   00001227+0000001508          1400 MD4112               2AZ
401066000401066               401066               170213HF     1400+00000+HF0000001753+0000001753+000000000+000000246+0000001990+0000000009+I20000000000+0000001990+Z
401066001401066071-010481     401066006001023417220MAGNIFYING-GLASS 90mm-D0000001000+00001753+00000+0001T   00001753+0000001545          1400 MD4130               2AZ
401067000401067               401067               170213HF     1400+00000+HF0000004385+0000004385+000000000+000000614+0000004990+0000000009+I20000000000+0000004990+Z
401067001401067368-000001     401067006003000097982Plush Bear 25cm        0000001000+00004385+00000+0001T   00004385+0000001545          1400 MD4745               2AZ
401068000401068               401068               170213HF     1400+00000+HF0000007012+0000007012+000000000+000000984+0000007990+0000000006+I20000000000+0000007990+Z
401068001401068200-003024     401068006001023657299REFUSE BAGS 20PCE BLACK0000001000+00001753+00000+0001T   00001753+0000001548          1400 MD4214               2AZ
401068002401068903-000619     401068006003000672455SWT LOLLY STR/BRRY 140G0000003000+00001753+00000+0001T   00001753+0000001548          1400 MD4150               2AZ
401069000401069               401069               170213HF     1400+00000+HF0000002192+0000002192+000000000+000000307+0000002499+0000000000+I40000002499+0000000000+Z
401069001401069077-000463     401069006003000321698G/BAG GLITTER MED20x28 0000001000+00002192+00000+0001T   00002192+0000001549          1400 MD4112               2AZ
401070000401070               401070               170213HF     1400+00000+HF0000003946+0000003946+000000000+000000553+0000004490+0000000009+I20000000000+0000004490+Z
401070001401070031-000892     401070006001023817105P/FRAME COL 3-HOLE     0000001000+00003946+00000+0001T   00003946+0000001550          1400 MD4510               2AZ
401071000401071               401071               170213HF     1400+00000+HF0000004385+0000004385+000000000+000000614+0000004990+0000000009+I20000000000+0000004990+Z
401071001401071031-000903-A   401071006003000457113P/FRAME PL STRESSESD   0000001000+00004385+00000+0001T   00004385+0000001551          1400 MD4510               2AZ
401072000401072               401072               170213HF     1400+00000+HF0000006347+0000006347+000000000+000000890+0000007237+0000000000+I40000007237+0000000000+Z
401072001401072048-000859     401072006003000423422TORCH 9 LED PL 3XAAA   0000001000+00001753+00000+0001T   00001753+0000001553          1400 MD4305               2AZ
401072002401072046-000010-A   401072006003000438778BATTERIES SIZE:AAA 4PCE0000001000+00002367+00000+0001T   00002367+0000001553          1400 MD4312               2AZ
401072003401072028-085274     401072006001023641571BBQ LIGHTER         H&L0000001000+00002192+00000+0001T   00002192+0000001553          1400 MD4305               2AZ
401072004401072112-116038     401072006009681820246TCS CARRIER BAG MIDI   0000001000+00000035+00000+0001T   00000035+0000001553          1400 MD4090               2AZ
401073000401073               401073               170213HF     1400+00000+HF0000006134+0000006134+000000000+000000860+0000006994+0000000000+I40000006994+0000000000+Z
401073001401073080-000109     401073006003000237203CARD&ENVLPE BDAY-BRIGHT0000002000+00001753+00000+0001T   00001753+0000001554          1400 MD4112               2AZ
401073002401073077-000310     401073006001023608635GIFT-BAG 18X23CM GLOSS 0000002000+00001314+00000+0001T   00001314+0000001554          1400 MD4112               2AZ
401074000401074               401074               170213HF     1400+00000+HF0000004734+0000004734+000000000+000000663+0000005390+0000000007+I20000000000+0000005390+Z
401074001401074018-005009     401074006001023725608MUG W/PLUSH-BEAR LOVE  0000001000+00003507+00000+0001T   00003507+0000001555          1400 MD4515               2AZ
401074002401074077-000318     401074006001023609755GIFT-BAG 18X23CM E/D AN0000001000+00001227+00000+0001T   00001227+0000001555          1400 MD4112               2AZ
401075000401075               401075               170213HF     1400+00000+HF0000003507+0000003507+000000000+000000491+0000003990+0000000008+I20000000000+0000003990+Z
401075001401075018-005009     401075006001023725608MUG W/PLUSH-BEAR LOVE  0000001000+00003507+00000+0001T   00003507+0000001556          1400 MD4515               2AZ
401076000401076               401076               170213HF     1400+00000+HF0000004242+0000004242+000000000+000000594+0000004836+0000000000+I40000004836+0000000000+Z
401076001401076301-085004     401076006003000420469ORN LOVE PLAQUE 21X10CM0000001000+00003507+00000+0001T   00003946+0006471558          1400 MD4505               2AZ
401076002401076018-000177     401076006001023797513MUG MINI LOVE ASSTD    0000001000+00000700+00000+0001T   00000700+0000001558          1400 MD4515               2AZ
401076003401076112-116038     401076006009681820246TCS CARRIER BAG MIDI   0000001000+00000035+00000+0001T   00000035+0000001558          1400 MD4090               2AZ
401077000401077               401077               170213HF     1400+00000+HF0000007890+0000007890+000000000+000001106+0000008990+0000000006+I20000000000+0000008990+Z
401077001401077562-000052     401077006003000112333EDU EXCAVATION DIAMOND 0000001000+00003507+00000+0001T   00003507+0000001600          1400 MD4755               2AZ
401077002401077018-000108     401077006001023380265MUG NOVELTY ICON ASST  0000001000+00001753+00000+0001T   00001753+0000001600          1400 MD4515               2AZ
401077003401077027-009005     401077006001023713124D/BRUSH W/TOP BRISTLES 0000001000+00002630+00000+0001T   00002630+0000001600          1400 MD4212               2AZ
401078000401078               401078               170213HF     1400+00000+HF0000005432+0000005432+000000000+000000761+0000006193+0000000000+I40000006193+0000000000+Z
401078001401078077-000452     401078006003000284986G/BAG METALLIC MED EMB 0000001000+00001490+00000+0001T   00001490+0000001601          1400 MD4112               2AZ
401078002401078077-000310     401078006001023608635GIFT-BAG 18X23CM GLOSS 0000003000+00001314+00000+0001T   00001314+0000001601          1400 MD4112               2AZ
401079000401079               401079               170213HF     1400+00000+HF0000000035+0000000035+000000000+000000005+0000000040+0000000000+I20000000000+0000000040+Z
401079001401079112-116038     401079006009681820246TCS CARRIER BAG MIDI   0000001000+00000035+00000+0001T   00000035+0000001602          1400 MD4090               2AZ
401080000401080               401080               170213HF     1400+00000+HF0000001137+0000001137+000000000+000000160+0000001290+0000000007+I20000000000+0000001290+Z
401080001401080018-000177     401080006001023797513MUG MINI LOVE ASSTD    0000001000+00000700+00000+0001T   00000700+0000001603          1400 MD4515               2AZ
401080002401080080-000133-A   401080006003000647019MINI VALENTINES CARD   0000001000+00000437+00000+0001T   00000437+0000001603          1400 MD4112               2AZ
401081000401081               401081               170213HF     1400+00000+HF0000002454+0000002454+000000000+000000344+0000002790+0000000008+I20000000000+0000002790+Z
401081001401081071-001028     401081008887013700385MARKER WHT-RND YM-500  0000001000+00001578+00000+0001T   00001578+0000001604          1400 MD4130               2AZ
401081002401081567-014132     401081006003000560028BOOK COLOURING 24 PAGE 0000001000+00000876+00000+0001T   00000876+0000001604          1400 MD4757               2AZ
401082000401082               401082               170213HF     1400+00000+HF0000000035+0000000035+000000000+000000005+0000000040+0000000000+I20000000000+0000000040+Z
401082001401082112-116038     401082006009681820246TCS CARRIER BAG MIDI   0000001000+00000035+00000+0001T   00000035+0000001605          1400 MD4090               2AZ
401083000401083               401083               170213HF     1400+00000+HF0000004385+0000004385+000000000+000000614+0000004990+0000000009+I20000000000+0000004990+Z
401083001401083001-000175     401083006001023788108B/MUG GLS LOVE 380ML   0000001000+00004385+00000+0001T   00004385+0000001605          1400 MD4515               2AZ
401084000401084               401084               170213HF     1400+00000+HF0000001753+0000001753+000000000+000000246+0000001990+0000000009+I20000000000+0000001990+Z
401084001401084106-001105     401084006001023711564WATER-BOTTLE 500ml     0000001000+00001753+00000+0001T   00001753+0000001605          1400 MD4210               2AZ
401085000401085               401085               170213HF     1400+00000+HF0000001227+0000001227+000000000+000000172+0000001390+0000000009+I20000000000+0000001390+Z
401085001401085077-000245     401085006001023759214GIFT-RIBBON METALLICx2 0000001000+00001227+00000+0001T   00001227+0000001606          1400 MD4112               2AZ
401086000401086               401086               170213HF     1400+00000+HF0000019761+0000019761+000000000+000002770+0000022531+0000000000+I40000022531+0000000000+Z
401086001401086903-005000     401086006002580020007SWT CT MALLOW FISH 120g0000001000+00001314+00000+0001T   00001314+0000001610          1400 MD4150               2AZ
401086002401086264-000934     401086006001023670373MAISTO DINKY 11cm LAMBO0000001000+00007893+00000+0001T   00007893+0000001610          1400 MD4710               2AZ
401086003401086077-000471     401086006003000330096G-BAG DESGN MED 18X23CM0000001000+00001753+00000+0001T   00001753+0000001610          1400 MD4112               2AZ
401086004401086079-000012     401086006001023655332P/CRAYONS 12-COL LONG  0000001000+00001753+00000+0001T   00001753+0000001610          1400 MD4130               2AZ
401086005401086077-000471     401086006003000330096G-BAG DESGN MED 18X23CM0000001000+00001753+00000+0001T   00001753+0000001610          1400 MD4112               2AZ
401086006401086903-000211     401086006002099001238SWT GS MALLOW ICE CREAM0000001000+00001753+00000+0001T   00001753+0000001610          1400 MD4150               2AZ
401086007401086112-116038     401086006009681820246TCS CARRIER BAG MIDI   0000001000+00000035+00000+0001T   00000035+0000001610          1400 MD4090               2AZ
401086008401086018-000130     401086006001023867537MUG OCC LOVE MINI+HEART0000001000+00003507+00000+0001T   00003507+0000001610          1400 MD4515               2AZ
401087000401087               401087               170213HF     1400+00000+HF0000000876+0000000876+000000000+000000123+0000000990+0000000009+I20000000000+0000000990+Z
401087001401087077-000408     401087006003000145218G/BAG PP 15X21X7CM     0000001000+00000876+00000+0001T   00000876+0000001611          1400 MD4112               2AZ
401088000401088               401088               170213HF     1400+00000+HF0000011401+0000011401+000000000+000001597+0000012990+0000000008+I20000000000+0000012990+Z
401088001401088077-000270     401088006003000395453GIFT-BAG PPR JMB 33X45 0000001000+00002630+00000+0001T   00002630+0000001613          1400 MD4112               2AZ
401088002401088368-000012     401088006003000610464PLUSH BEAR 30cm SITTING0000001000+00008771+00000+0001T   00008771+0000001613          1400 MD4745               2AZ
401089000401089               401089               170213HF     1400+00000+HF0000000048+0000000048+000000000+000000007+0000000050+0000000005+I20000000000+0000000050+Z
401089001401089112-116069     401089006009681820277TCS CARRIER BAG JUMBO  0000001000+00000048+00000+0001T   00000048+0000001614          1400 MD4090               2AZ
401090000401090               401090               170213HF     1400+00000+HF0000002678+0000002678+000000000+000000376+0000003050+0000000004+I20000000000+0000003050+Z
401090001401090077-000270     401090006003000395453GIFT-BAG PPR JMB 33X45 0000001000+00002630+00000+0001T   00002630+0000001615          1400 MD4112               2AZ
401090002401090112-116069     401090006009681820277TCS CARRIER BAG JUMBO  0000001000+00000048+00000+0001T   00000048+0000001615          1400 MD4090               2AZ
401091000401091               401091               170213HF     1400+00000+HF0000011221+0000011221+000000000+000001573+0000012794+0000000000+I40000012794+0000000000+Z
401091001401091903-000710     401091006002099007056SWT REFRESHERS MINT    0000001000+00001139+00000+0001T   00001139+0000001617          1400 MD4150               2AZ
401091002401091018-050000     401091006003000412679MUG OCC LOVE TWIN BEAR 0000001000+00006139+00000+0001T   00006139+0000001617          1400 MD4515               2AZ
401091003401091077-000299     401091006003000395576G/BAG 32x25cm LRG LOVE 0000001000+00001490+00000+0001T   00001490+0000001617          1400 MD4112               2AZ
401091004401091903-000593     401091006003000563890SWT WATER GUN 15cm     0000001000+00001753+00000+0001T   00001753+0000001617          1400 MD4150               2AZ
401091005401091018-000177     401091006001023797513MUG MINI LOVE ASSTD    0000001000+00000700+00000+0001T   00000700+0000001617          1400 MD4515               2AZ
401092000401092               401092               170213HF     1400+00000+HF0000007016+0000007016+000000000+000000983+0000007990+0000000009+I20000000000+0000007990+Z
401092001401092366-000105     401092006001023866103DRESSUP WINGS AND SKIRT0000001000+00007016+00000+0001T   00007016+0000001618          1400 MD4131               2AZ
401093000401093               401093               170213HF     1400+00000+HF0000008817+0000008817+000000000+000001235+0000010050+0000000002+I20000000000+0000010050+Z
401093001401093031-005920     401093006003000580699P/FRAME PL PLAIN 20X25 0000001000+00003507+00000+0001T   00003507+0000001620          1400 MD4510               2AZ
401093002401093031-000858     401093006001023852175P/FRAME BROWN 20X25CM  0000001000+00005262+00000+0001T   00005262+0000001620          1400 MD4510               2AZ
401093003401093112-116069     401093006009681820277TCS CARRIER BAG JUMBO  0000001000+00000048+00000+0001T   00000048+0000001620          1400 MD4090               2AZ
401094000401094               401094               170213HF     1400+00000+HF0000006139+0000006139+000000000+000000860+0000006990+0000000009+I20000000000+0000006990+Z
401094001401094035-000001     401094006002596010566UMBRELLA LADIES W/MINI 0000001000+00006139+00000+0001T   00006139+0000001621          1400 MD4205               2AZ
401095000401095               401095               170213HF     1400+00000+HF0000001699+0000001699+000000000+000000239+0000001930+0000000008+I20000000000+0000001930+Z
401095001401095077-000322     401095006001023677532GIFT-BAG 18X23CM E/D FL0000001000+00001227+00000+0001T   00001227+0000001624          1400 MD4112               2AZ
401095002401095080-000133     401095006003000535613CARD&ENV MINI ASTD DSGN0000001000+00000437+00000+0001T   00000437+0000001624          1400 MD4112               2AZ
401095003401095112-116038     401095006009681820246TCS CARRIER BAG MIDI   0000001000+00000035+00000+0001T   00000035+0000001624          1400 MD4090               2AZ
401096000401096               401096               170213HF     1400+00000+HF0000004734+0000004734+000000000+000000663+0000005390+0000000007+I20000000000+0000005390+Z
401096001401096018-000130     401096006001023867537MUG OCC LOVE MINI+HEART0000001000+00003507+00000+0001T   00003507+0000001625          1400 MD4515               2AZ
401096002401096077-000322     401096006001023677532GIFT-BAG 18X23CM E/D FL0000001000+00001227+00000+0001T   00001227+0000001625          1400 MD4112               2AZ
401097000401097               401097               170213HF     1400+00000+HF0000000436+0000000436+000000000+000000062+0000000490+0000000008+I20000000000+0000000490+Z
401097001401097006-000171-C   401097006003000609178BALLOONS 1PC D/GRN PRNT0000001000+00000218+00000+0001T   00000218+0000001628          1400 MD4131               2AZ
401097002401097006-000171-D   401097006003000609291BALLOONS 1PC ORANGE PRN0000001000+00000218+00000+0001T   00000218+0000001628          1400 MD4131               2AZ
401098000401098               401098               170213HF     1400+00000+HF0000026307+0000026307+000000000+000003686+0000029990+0000000003+I20000000000+0000029990+Z
401098001401098264-015055     401098000090159150558ALL-STARS ELITE TRNS   0000001000+00017542+00000+0001T   00017542+0000001631          1400 MD4710               2AZ
401098002401098264-000921     401098000090159150442MAISTO CAR 3" FRESH    0000005000+00001753+00000+0001T   00001753+0000001631          1400 MD4710               2AZ
401099000401099               401099               170213HF     1400+00000+HF0000000035+0000000035+000000000+000000005+0000000040+0000000000+I20000000000+0000000040+Z
401099001401099112-116038     401099006009681820246TCS CARRIER BAG MIDI   0000001000+00000035+00000+0001T   00000035+0000001632          1400 MD4090               2AZ
401100000401100               401100               170213HF     1400+00000+HF0000012186+0000012186+000000000+000001708+0000013890+0000000004+I20000000000+0000013890+Z
401100001401100077-000240     401100006003000326259G/RIBBON 4PC PEARLIZED 0000001000+00001753+00000+0001T   00001753+0000001633          1400 MD4112               2AZ
401100002401100006-000165     401100006001023758392BALLOONS LRG BAG-OF-1000000001000+00008771+00000+0001T   00008771+0000001633          1400 MD4131               2AZ
401100003401100006-000172-A   401100006003000609765BALLOONS METALLIC PINK 0000002000+00000218+00000+0001T   00000218+0000001633          1400 MD4131               2AZ
401100004401100006-001000     401100006003000093779HELIUM BALLOON FILL    0000002000+00000613+00000+0001T   00000613+0000001633          1400 MD4131               2AZ
401101000401101               401101               170213HF     1400+00000+HF0000011737+0000011737+000000000+000001646+0000013380+0000000003+I20000000000+0000013380+Z
401101001401101006-000120     401101006001023346889BALLOONS 10PC MIX COL  0000001000+00001753+00000+0001T   00001753+0000001635          1400 MD4131               2AZ
401101002401101006-000167-C   401101006003000516971BALLOONS PINK METALLIC 0000001000+00001314+00000+0001T   00001314+0000001635          1400 MD4131               2AZ
401101003401101006-001000     401101006003000093779HELIUM BALLOON FILL    0000006000+00000613+00000+0001T   00000613+0000001635          1400 MD4131               2AZ
401101004401101006-000167-C   401101006003000516971BALLOONS PINK METALLIC 0000001000+00001314+00000+0001T   00001314+0000001635          1400 MD4131               2AZ
401101005401101006-001000     401101006003000093779HELIUM BALLOON FILL    0000006000+00000613+00000+0001T   00000613+0000001635          1400 MD4131               2AZ
401102000401102               401102               170213HF     1400+00000+HF0000004385+0000004385+000000000+000000614+0000004990+0000000009+I20000000000+0000004990+Z
401102001401102368-000001     401102006003000097982Plush Bear 25cm        0000001000+00004385+00000+0001T   00004385+0000001636          1400 MD4745               2AZ
401103000401103               401103               170213HF     1400+00000+HF0000003945+0000003945+000000000+000000553+0000004490+0000000008+I20000000000+0000004490+Z
401103001401103200-003024     401103006001023657299REFUSE BAGS 20PCE BLACK0000001000+00001753+00000+0001T   00001753+0000001636          1400 MD4214               2AZ
401103002401103200-000020     401103006925406841030BAG ZIPPERSEAL 25PC    0000001000+00002192+00000+0001T   00002192+0000001636          1400 MD4214               2AZ
401104000401104               401104               170213HF     1400+00000+HF0000007014+0000007014+000000000+000000982+0000007996+0000000000+I40000007996+0000000000+Z
401104001401104018-005009     401104006001023725608MUG W/PLUSH-BEAR LOVE  0000002000+00003507+00000+0001T   00003507+0000001638          1400 MD4515               2AZ
401105000401105               401105               170213HF     1400+00000+HF0000017706+0000017706+000000000+000002486+0000020190+0000000002+I20000000000+0000020190+Z
401105001401105079-009702-G   401105008427973060787PAPER SIRIO A2 FUSHIA  0000001000+00001051+00000+0001T   00001051+0000001642          1400 MD4130               2AZ
401105002401105079-009702-B   401105008427973059491PAPER SIRIO A2 WHITE   0000001000+00001051+00000+0001T   00001051+0000001642          1400 MD4130               2AZ
401105003401105112-116069     401105006009681820277TCS CARRIER BAG JUMBO  0000001000+00000048+00000+0001T   00000048+0000001642          1400 MD4090               2AZ
401105004401105079-013099     401105006003000081875ART+CRAFT EYES ASSTD   0000001000+00001753+00000+0001T   00001753+0000001642          1400 MD4130               2AZ
401105005401105006-000120     401105006001023346889BALLOONS 10PC MIX COL  0000003000+00001753+00000+0001T   00001753+0000001642          1400 MD4131               2AZ
401105006401105006-000092     401105006001023739650BANNER BIRTHDAY PAPER  0000001000+00001753+00000+0001T   00001753+0000001642          1400 MD4131               2AZ
401105007401105903-000670     401105006009803358008SWT SHERBET RED LIPS   0000001000+00000218+00000+0001T   00000218+0000001642          1400 MD4150               2AZ
401105008401105077-000009     401105006003000152377PAPER CREPE ALUM COL   0000001000+00003069+00000+0001T   00003069+0000001642          1400 MD4112               2AZ
401105009401105077-000011-F   401105006001023808431TISSUE-WRAP BLUE/LILAC 0000001000+00000876+00000+0001T   00000876+0000001642          1400 MD4112               2AZ
401105010401105306-000023     401105006001023606976COTTON-WOOL-BALLS 50PCE0000003000+00000876+00000+0001T   00000876+0000001642          1400 MD4200               2AZ
401106000401106               401106               170213HF     1400+00000+HF0000000613+0000000613+000000000+000000086+0000000690+0000000009+I20000000000+0000000690+Z
401106001401106077-000321     401106006001023677501GIFT-BAG 11X14CM E/D FL0000001000+00000613+00000+0001T   00000613+0000001642          1400 MD4112               2AZ
401107000401107               401107               170213HF     1400+00000+HF0000017542+0000017542+000000000+000002456+0000019998+0000000000+I40000019998+0000000000+Z
401107001401107368-000161     401107006003000167760PLUSH BEAR BABY ASSTD  0000001000+00017542+00000+0001T   00017542+0000001645          1400 MD4745               2AZ
401108000401108               401108               170213HF     1400+00000+HF0000004433+0000004433+000000000+000000621+0000005050+0000000004+I20000000000+0000005050+Z
401108001401108105-008005     401108006002580009484STORAGE CONTAINER 7.5L 0000001000+00004385+00000+0001T   00004385+0000001646          1400 MD4210               2AZ
401108002401108112-116069     401108006009681820277TCS CARRIER BAG JUMBO  0000001000+00000048+00000+0001T   00000048+0000001646          1400 MD4090               2AZ
401109000401109               401109               170213HF     1400+00000+HF0000004204+0000004204+000000000+000000592+0000004796+0000000000+I40000004796+0000000000+Z
401109001401109079-009702-B   401109008427973059491PAPER SIRIO A2 WHITE   0000001000+00001051+00000+0001T   00001051+0000001651          1400 MD4130               2AZ
401109002401109079-009702-E   401109008427973059439PAPER SIRIO A2 BLUE    0000001000+00001051+00000+0001T   00001051+0000001651          1400 MD4130               2AZ
401109003401109079-009702-F   401109008427973059392PAPER SIRIO A2 GREEN   0000001000+00001051+00000+0001T   00001051+0000001651          1400 MD4130               2AZ
401109004401109079-009702-A   401109008427973059408PAPER SIRIO A2 BLACK   0000001000+00001051+00000+0001T   00001051+0000001651          1400 MD4130               2AZ
401110000401110               401110               170213HF     1400+00000+HF0000014312+0000014312+000000000+000002007+0000016310+0000000009+I20000000000+0000016310+Z
401110001401110304-001011     401110006001023806727FLWR ROSE RED W/BEAR   0000014000+00000613+00000+0001T   00000788+0006471654          1400 MD4510               2AZ
401110002401110006-000167-C   401110006003000516971BALLOONS PINK METALLIC 0000001000+00001314+00000+0001T   00001314+0000001654          1400 MD4131               2AZ
401110003401110006-000166-H   401110006003000608096BALLOONS HELIUM 6PC WHT0000001000+00001314+00000+0001T   00001314+0000001654          1400 MD4131               2AZ
401110004401110006-000167-D   401110006003000517091BALLOONS PRPLE METALLIC0000001000+00001314+00000+0001T   00001314+0000001654          1400 MD4131               2AZ
401110005401110077-000240     401110006003000326259G/RIBBON 4PC PEARLIZED 0000001000+00001753+00000+0001T   00001753+0000001654          1400 MD4112               2AZ
401110006401110112-116038     401110006009681820246TCS CARRIER BAG MIDI   0000001000+00000035+00000+0001T   00000035+0000001654          1400 MD4090               2AZ
401111000401111               401111               170213HF     1400+00000+HF0000003155+0000003155+000000000+000000443+0000003590+0000000008+I20000000000+0000003590+Z
401111001401111304-001204     401111006001023737984FLOWER OCC. TEDDY/ROSES0000001000+00001402+00000+0001T   00001490+0006471655          1400 MD4510               2AZ
401111002401111565-000050     401111006001023906199SLIME BOMB DISPLAY BOX 0000001000+00001753+00000+0001T   00001753+0000001655          1400 MD4745               2AZ
401112000401112               401112               170213HF     1400+00000+HF0000005083+0000005083+000000000+000000713+0000005790+0000000006+I20000000000+0000005790+Z
401112001401112031-005853     401112006003000442416P/FRAME WDN TWIN HEARTS0000001000+00003507+00000+0001T   00003507+0000001656          1400 MD4510               2AZ
401112002401112077-000010-D   401112006001023123886CREPE-PAPER WHITE      0000002000+00000788+00000+0001T   00000788+0000001656          1400 MD4112               2AZ
401113000401113               401113               170213HF     1400+00000+HF0000000613+0000000613+000000000+000000086+0000000690+0000000009+I20000000000+0000000690+Z
401113001401113304-001011     401113006001023806727FLWR ROSE RED W/BEAR   0000001000+00000613+00000+0001T   00000788+0006471656          1400 MD4510               2AZ
401114000401114               401114               170213HF     1400+00000+HF0000010992+0000010992+000000000+000001542+0000012534+0000000000+I40000012534+0000000000+Z
401114001401114903-000619     401114006003000672455SWT LOLLY STR/BRRY 140G0000003000+00001753+00000+0001T   00001753+0000001659          1400 MD4150               2AZ
401114002401114903-000925     401114006009706300296SWT NOVELTY SURPRISE   0000001000+00001402+00000+0001T   00001402+0000001659          1400 MD4150               2AZ
401114003401114301-085008     401114006003000673933ORN OCC.LOVE TINSEL HRT0000001000+00003069+00000+0001T   00003069+0000001659          1400 MD4505               2AZ
401114004401114903-000499     401114006001704012492SWT CHOC MALLOWS 50g   0000001000+00001227+00000+0001T   00001227+0000001659          1400 MD4150               2AZ
401114005401114112-116038     401114006009681820246TCS CARRIER BAG MIDI   0000001000+00000035+00000+0001T   00000035+0000001659          1400 MD4090               2AZ
401115000401115               401115               170213HF     1400+00000+HF0000000613+0000000613+000000000+000000086+0000000690+0000000009+I20000000000+0000000690+Z
401115001401115304-001011     401115006001023806727FLWR ROSE RED W/BEAR   0000001000+00000613+00000+0001T   00000788+0006471700          1400 MD4510               2AZ
401116000401116               401116               170213HF     1400+00000+HF0000019728+0000019728+000000000+000002763+0000022491+0000000000+I40000022491+0000000000+Z
401116001401116077-000509     401116006003000082582GIFT-BAG SML 6PCE ORG P0000009000+00002192+00000+0001T   00002192+0000001701          1400 MD4112               2AZ
401117000401117               401117               170213HF     1400+00000+HF0000007926+0000007926+000000000+000001110+0000009036+0000000000+I40000009036+0000000000+Z
401117001401117024-091103     401117006003453014307BAKING-CUP MUFFIN 50PCE0000001000+00002192+00000+0001T   00002192+0000001703          1400 MD4300               2AZ
401117002401117001-000175     401117006001023788108B/MUG GLS LOVE 380ML   0000001000+00004385+00000+0001T   00004385+0000001703          1400 MD4515               2AZ
401117003401117077-000310     401117006001023608635GIFT-BAG 18X23CM GLOSS 0000001000+00001314+00000+0001T   00001314+0000001703          1400 MD4112               2AZ
401117004401117112-116038     401117006009681820246TCS CARRIER BAG MIDI   0000001000+00000035+00000+0001T   00000035+0000001703          1400 MD4090               2AZ
401118000401118               401118               170213HF     1400+00000+HF0000004420+0000004420+000000000+000000619+0000005030+0000000009+I20000000000+0000005030+Z
401118001401118368-000001     401118006003000097982Plush Bear 25cm        0000001000+00004385+00000+0001T   00004385+0000001704          1400 MD4745               2AZ
401118002401118112-116038     401118006009681820246TCS CARRIER BAG MIDI   0000001000+00000035+00000+0001T   00000035+0000001704          1400 MD4090               2AZ
401119000401119               401119               170213HF     1400+00000+HF0000003506+0000003506+000000000+000000492+0000003990+0000000008+I20000000000+0000003990+Z
401119001401119034-078800     401119006001023856555COOEY WET-WIPES 60PCE  0000002000+00001753+00000+0001T   00001753+0000001705          1400 MD4215               2AZ
401120000401120               401120               170213HF     1400+00000+HF0000008551+0000008551+000000000+000001199+0000009750+0000000000+I20000000000+0000009750+Z
401120001401120080-000127     401120006003000424351VALENTINES DAY 36x24CM 0000001000+00002192+00000+0001T   00002192+0000001707          1400 MD4112               2AZ
401120002401120018-005009     401120006001023725608MUG W/PLUSH-BEAR LOVE  0000001000+00003507+00000+0001T   00003507+0000001707          1400 MD4515               2AZ
401120003401120304-001204     401120006001023737984FLOWER OCC. TEDDY/ROSES0000002000+00001402+00000+0001T   00001490+0006471707          1400 MD4510               2AZ
401120004401120112-116069     401120006009681820277TCS CARRIER BAG JUMBO  0000001000+00000048+00000+0001T   00000048+0000001707          1400 MD4090               2AZ
401121000401121               401121               170213HF     1400+00000+HF0000002366+0000002366+000000000+000000332+0000002690+0000000008+I20000000000+0000002690+Z
401121001401121077-000299     401121006003000395576G/BAG 32x25cm LRG LOVE 0000001000+00001490+00000+0001T   00001490+0000001707          1400 MD4112               2AZ
401121002401121077-000011-D   401121006001023808554TISSUE-WRAP WHITE 10PCE0000001000+00000876+00000+0001T   00000876+0000001707          1400 MD4112               2AZ
401122000401122               401122               170213HF     1400+00000+HF0000004120+0000004120+000000000+000000578+0000004698+0000000000+I40000004698+0000000000+Z
401122001401122089-000184     401122006003000577323KEY CHAIN OWL POLY MINI0000001000+00003069+00000+0001T   00003069+0000001709          1400 MD4205               2AZ
401122002401122903-002850     401122000000087108262MENTOS ROLL FRUIT      0000001000+00001051+00000+0001T   00001051+0000001709          1400 MD4150               2AZ
401123000401123               401123               170213HF     1400+00000+HF0000001753+0000001753+000000000+000000246+0000001999+0000000000+I40000001999+0000000000+Z
401123001401123024-091102-A   401123006003000328314BAKING-CUP CUPCAKE 75PC0000001000+00001753+00000+0001T   00001753+0000001711          1400 MD4300               2AZ
401124000401124               401124               170213HF     1400+00000+HF0000013888+0000013888+000000000+000001946+0000015834+0000000000+I40000015834+0000000000+Z
401124001401124031-005853     401124006003000442416P/FRAME WDN TWIN HEARTS0000001000+00003507+00000+0001T   00003507+0000001714          1400 MD4510               2AZ
401124002401124072-020311     401124006003000494132PET DOG TOY VINYL BALL 0000001000+00003069+00000+0001T   00003069+0000001714          1400 MD4870               2AZ
401124003401124018-030000     401124006003000421060MUG OCCASIONS LOVE 2PCE0000001000+00004385+00000+0001T   00004385+0000001714          1400 MD4515               2AZ
401124004401124089-000004     401124006003000137749KEY CHAIN MTL CHARMS   0000001000+00001753+00000+0001T   00001753+0000001714          1400 MD4205               2AZ
401124005401124112-116038     401124006009681820246TCS CARRIER BAG MIDI   0000001000+00000035+00000+0001T   00000035+0000001714          1400 MD4090               2AZ
401124006401124903-000087     401124006001704000161SWT SPECKLED-EGGS 50G  0000001000+00001139+00000+0001T   00001139+0000001714          1400 MD4150               2AZ
401125000401125               401125               170213HF     1400+00000+HF0000009944+0000009944+000000000+000001393+0000011337+0000000000+I40000011337+0000000000+Z
401125001401125018-000170     401125006001023775528MUG OCC. LOVE 2PC MINI 0000001000+00002192+00000+0001T   00002192+0000001716          1400 MD4515               2AZ
401125002401125018-050000     401125006003000412679MUG OCC LOVE TWIN BEAR 0000001000+00006139+00000+0001T   00006139+0000001716          1400 MD4515               2AZ
401125003401125077-000303     401125006001023593757GIFT-BAG PAPER MED     0000001000+00001578+00000+0001T   00001578+0000001716          1400 MD4112               2AZ
401125004401125112-116038     401125006009681820246TCS CARRIER BAG MIDI   0000001000+00000035+00000+0001T   00000035+0000001716          1400 MD4090               2AZ
401126000401126               401126               170213HF     1400+00000+HF0000005700+0000005700+000000000+000000798+0000006490+0000000008+I20000000000+0000006490+Z
401126001401126046-002023-C   401126006001023698254BATTERIES ALKALN CARD-50000001000+00005700+00000+0001T   00005700+0000001717          1400 MD4312               2AZ
401127000401127               401127               170213HF     1400+00000+HF0000010130+0000010130+000000000+000001420+0000011550+0000000000+I20000000000+0000011550+Z
401127001401127071-005214     401127006003000152544CELLOTAPE SUPER REFILL 0000001000+00001490+00000+0001T   00001490+0000001718          1400 MD4130               2AZ
401127002401127079-000510     401127006001023509079CRAYONS WAX 12-COLOUR  0000001000+00002455+00000+0001T   00002455+0000001718          1400 MD4130               2AZ
401127003401127566-100009     401127006003000102914WED STIK EMBOSSED FOIL 0000001000+00002630+00000+0001T   00002630+0000001718          1400 MD4130               2AZ
401127004401127267-000233     401127006001023688576PUZZLE 48pc EDUCATIONAL0000001000+00003507+00000+0001T   00003507+0000001718          1400 MD4755               2AZ
401127005401127112-116069     401127006009681820277TCS CARRIER BAG JUMBO  0000001000+00000048+00000+0001T   00000048+0000001718          1400 MD4090               2AZ
401128000401128               401128               170213HF     1400+00000+HF0000003324+0000003324+000000000+000000468+0000003790+0000000002+I20000000000+0000003790+Z
401128001401128006-000171-H   401128006003000609574BALLOONS 1PC RED PRINT 0000002000+00000218+00000+0001T   00000218+0000001721          1400 MD4131               2AZ
401128002401128006-000171-A   401128006003000608935BALLOONS 1PC PINK PRNT 0000002000+00000218+00000+0001T   00000218+0000001721          1400 MD4131               2AZ
401128003401128006-001000     401128006003000093779HELIUM BALLOON FILL    0000004000+00000613+00000+0001T   00000613+0000001721          1400 MD4131               2AZ
401129000401129               401129               170213HF     1400+00000+HF0000007014+0000007014+000000000+000000982+0000007990+0000000006+I20000000000+0000007990+Z
401129001401129018-005009     401129006001023725608MUG W/PLUSH-BEAR LOVE  0000002000+00003507+00000+0001T   00003507+0000001721          1400 MD4515               2AZ
401130000401130               401130               170213HF     1400+00000+HF0000002453+0000002453+000000000+000000344+0000002790+0000000007+I20000000000+0000002790+Z
401130001401130077-000322     401130006001023677532GIFT-BAG 18X23CM E/D FL0000001000+00001227+00000+0001T   00001227+0000001722          1400 MD4112               2AZ
401130002401130304-001011     401130006001023806727FLWR ROSE RED W/BEAR   0000002000+00000613+00000+0001T   00000788+0006471722          1400 MD4510               2AZ
401131000401131               401131               170213HF     1400+00000+HF0000007541+0000007541+000000000+000001057+0000008590+0000000008+I20000000000+0000008590+Z
401131001401131304-001204     401131006001023737984FLOWER OCC. TEDDY/ROSES0000001000+00001402+00000+0001T   00001490+0006471723          1400 MD4510               2AZ
401131002401131035-000001     401131006002596010566UMBRELLA LADIES W/MINI 0000001000+00006139+00000+0001T   00006139+0000001723          1400 MD4205               2AZ
401132000401132               401132               170213HF     1400+00000+HF0000000035+0000000035+000000000+000000005+0000000040+0000000000+I20000000000+0000000040+Z
401132001401132112-116038     401132006009681820246TCS CARRIER BAG MIDI   0000001000+00000035+00000+0001T   00000035+0000001724          1400 MD4090               2AZ
401133000401133               401133               170213HF     1400+00000+HF0000016048+0000016048+000000000+000002248+0000018296+0000000000+I40000018296+0000000000+Z
401133001401133080-000127     401133006003000424351VALENTINES DAY 36x24CM 0000001000+00002192+00000+0001T   00002192+0000001726          1400 MD4112               2AZ
401133002401133566-000056     401133006003000661381STICKER DRESS UP GIRL  0000001000+00001753+00000+0001T   00001753+0000001726          1400 MD4130               2AZ
401133003401133030-004015     401133006003000467624PLAQUE WDN SIGN 30X20CM0000001000+00009648+00000+0001T   00009648+0000001726          1400 MD4505               2AZ
401133004401133077-000380     401133006003000247585GIFT-BAG 33X45CM S/COL 0000001000+00002455+00000+0001T   00002455+0000001726          1400 MD4112               2AZ
401134000401134               401134               170213HF     1400+00000+HF0000001490+0000001490+000000000+000000209+0000001690+0000000009+I20000000000+0000001690+Z
401134001401134077-000452     401134006003000284986G/BAG METALLIC MED EMB 0000001000+00001490+00000+0001T   00001490+0000001726          1400 MD4112               2AZ
401135000401135               401135               170213HF     1400+00000+HF0000001490+0000001490+000000000+000000209+0000001690+0000000009+I20000000000+0000001690+Z
401135001401135077-000452     401135006003000284986G/BAG METALLIC MED EMB 0000001000+00001490+00000+0001T   00001490+0000001727          1400 MD4112               2AZ
401136000401136               401136               170213HF     1400+00000+HF0000007013+0000007013+000000000+000000982+0000007995+0000000000+I40000007995+0000000000+Z
401136001401136004-071205     401136006003000073368USB 2.0 COMPUTER 4 HUB 0000001000+00003507+00000+0001T   00003507+0000001728          1400 MD4310               2AZ
401136002401136028-085274     401136006001023641571BBQ LIGHTER         H&L0000001000+00002192+00000+0001T   00002192+0000001728          1400 MD4305               2AZ
401136003401136012-000001-A   401136006003000697663MICROWAVES PLATE-COVER 0000001000+00001314+00000+0001T   00001314+0000001728          1400 MD4300               2AZ
401137000401137               401137               170213HF     1400+00000+HF0000009604+0000009604+000000000+000001346+0000010950+0000000000+I40000010950+0000000000+Z
401137001401137200-003024     401137006001023657299REFUSE BAGS 20PCE BLACK0000001000+00001753+00000+0001T   00001753+0000001730          1400 MD4214               2AZ
401137002401137071-081091     401137006001151010287STAED/GENKEM ALL-STICK 0000001000+00001227+00000+0001T   00001227+0000001730          1400 MD4130               2AZ
401137003401137056-005719     401137006001023820983CAR AIR-FRESHENER ASSTD0000001000+00002192+00000+0001T   00002192+0000001730          1400 MD4860               2AZ
401137004401137306-001621     401137006001023554475INNER SOLES 1 PAIR     0000002000+00002192+00000+0001T   00002192+0000001730          1400 MD4200               2AZ
401137005401137112-116069     401137006009681820277TCS CARRIER BAG JUMBO  0000001000+00000048+00000+0001T   00000048+0000001730          1400 MD4090               2AZ
401138000401138               401138               170213HF     1400+00000+HF0000007047+0000007047+000000000+000000989+0000008030+0000000006+I20000000000+0000008030+Z
401138001401138089-060027     401138006003000245871KEY-CHAIN HEART 6X6cm  0000001000+00003069+00000+0001T   00003069+0000001732          1400 MD4205               2AZ
401138002401138162-097717     401138006001492977171#TAG NEW SILVER E/PIERC0000001000+00001139+00000+0001T   00001139+0000001732          1400 MD4160               2AZ
401138003401138566-001501     401138006003000658398STICKER PAPER EMOTION  0000001000+00001753+00000+0001T   00001753+0000001732          1400 MD4130               2AZ
401138004401138079-009702-D   401138008427973059354PAPER SIRIO A2 RED COL 0000001000+00001051+00000+0001T   00001051+0000001732          1400 MD4130               2AZ
401138005401138112-116038     401138006009681820246TCS CARRIER BAG MIDI   0000001000+00000035+00000+0001T   00000035+0000001732          1400 MD4090               2AZ
401139000401139               401139               170213HF     1400+00000+HF0000025037+0000025037+000000000+000003507+0000028544+0000000000+I40000028544+0000000000+Z
401139001401139112-116069     401139006009681820277TCS CARRIER BAG JUMBO  0000001000+00000048+00000+0001T   00000048+0000001734          1400 MD4090               2AZ
401139002401139018-019000     401139006003000557288MUG OCC. LOVE JUMBO    0000001000+00005262+00000+0001T   00005262+0000001734          1400 MD4515               2AZ
401139003401139018-005009     401139006001023725608MUG W/PLUSH-BEAR LOVE  0000001000+00003507+00000+0001T   00003507+0000001734          1400 MD4515               2AZ
401139004401139080-000127     401139006003000424351VALENTINES DAY 36x24CM 0000001000+00002192+00000+0001T   00002192+0000001734          1400 MD4112               2AZ
401139005401139301-085007     401139006003000673698ORN OCC. LOVE S/PLAQUE 0000001000+00007893+00000+0001T   00007893+0000001734          1400 MD4505               2AZ
401139006401139077-000310     401139006001023608635GIFT-BAG 18X23CM GLOSS 0000002000+00001314+00000+0001T   00001314+0000001734          1400 MD4112               2AZ
401139007401139089-000200     401139006003000485840KEY CHAIN POLY LOVE IS 0000001000+00003507+00000+0001T   00004385+0008121734          1400 MD4205               2AZ
401140000401140               401140               170213HF     1400+00000+HF0000007454+0000007454+000000000+000001044+0000008498+0000000000+I40000008498+0000000000+Z
401140001401140304-001116     401140006003000426164F/BUNCH ROSES 12-HEAD  0000001000+00005262+00000+0001T   00005262+0000001737          1400 MD4510               2AZ
401140002401140563-000318-L   401140006003000407088SERVIETTES 33cm RED    0000001000+00002192+00000+0001T   00002192+0000001737          1400 MD4214               2AZ
401141000401141               401141               170213HF     1400+00000+HF0000007663+0000007663+000000000+000001074+0000008737+0000000000+I40000008737+0000000000+Z
401141001401141077-000384     401141006003000275243G/BAG HOT STMP 18x23CM 0000001000+00001490+00000+0001T   00001490+0000001739          1400 MD4112               2AZ
401141002401141369-001138     401141006003000555185VINYL 8.5cm THEMED DUCK0000001000+00001753+00000+0001T   00002630+0008141739          1400 MD4745               2AZ
401141003401141018-030000     401141006003000421060MUG OCCASIONS LOVE 2PCE0000001000+00004385+00000+0001T   00004385+0000001739          1400 MD4515               2AZ
401141004401141112-116038     401141006009681820246TCS CARRIER BAG MIDI   0000001000+00000035+00000+0001T   00000035+0000001739          1400 MD4090               2AZ
401142000401142               401142               170213HF     1400+00000+HF0000024991+0000024991+000000000+000003502+0000028493+0000000000+I40000028493+0000000000+Z
401142001401142206-000430     401142006003000619627MUG COLOUR CHANGING    0000001000+00006139+00000+0001T   00006139+0000001741          1400 MD4321               2AZ
401142002401142077-000920     401142006003000413812G/WRAP 700mmx2m BIRTHDA0000001000+00002192+00000+0001T   00002192+0000001741          1400 MD4112               2AZ
401142003401142206-000120     401142006003000628308PEELER CARROT SHARPENER0000001000+00001753+00000+0001T   00001753+0000001741          1400 MD4321               2AZ
401142004401142079-000012     401142006001023655332P/CRAYONS 12-COL LONG  0000001000+00001753+00000+0001T   00001753+0000001741          1400 MD4130               2AZ
401142005401142567-011492     401142000076645122148BK ACTIVITY 96P SCHOOL 0000001000+00002630+00000+0001T   00002630+0000001741          1400 MD4757               2AZ
401142006401142304-001116     401142006003000426164F/BUNCH ROSES 12-HEAD  0000002000+00005262+00000+0001T   00005262+0000001741          1400 MD4510               2AZ
401143000401143               401143               170213HF     1400+00000+HF0000005033+0000005033+000000000+000000705+0000005730+0000000008+I20000000000+0000005730+Z
401143001401143018-030000     401143006003000421060MUG OCCASIONS LOVE 2PCE0000001000+00004385+00000+0001T   00004385+0000001742          1400 MD4515               2AZ
401143002401143304-001011     401143006001023806727FLWR ROSE RED W/BEAR   0000001000+00000613+00000+0001T   00000788+0006471742          1400 MD4510               2AZ
401143003401143112-116038     401143006009681820246TCS CARRIER BAG MIDI   0000001000+00000035+00000+0001T   00000035+0000001742          1400 MD4090               2AZ
401144000401144               401144               170213HF     1400+00000+HF0000005469+0000005469+000000000+000000766+0000006235+0000000000+I40000006235+0000000000+Z
401144001401144304-001011     401144006001023806727FLWR ROSE RED W/BEAR   0000001000+00000613+00000+0001T   00000788+0006471744          1400 MD4510               2AZ
401144002401144077-000470     401144006003000330171G-BAG DESGN SML 11X14CM0000001000+00001314+00000+0001T   00001314+0000001744          1400 MD4112               2AZ
401144003401144089-000018     401144006003000176724KEY CHAIN INSPIRATION  0000001000+00003507+00000+0001T   00003507+0000001744          1400 MD4205               2AZ
401144004401144112-116038     401144006009681820246TCS CARRIER BAG MIDI   0000001000+00000035+00000+0001T   00000035+0000001744          1400 MD4090               2AZ
401145000401145               401145               170213HF     1400+00000+HF0000003507+0000003507+000000000+000000491+0000003990+0000000008+I20000000000+0000003990+Z
401145001401145007-000096     401145006001023855114ENVELOPES WHT    BOX-400000001000+00003507+00000+0001T   00003507+0000001745          1400 MD4130               2AZ
401146000401146               401146               170213HF     1400+00000+HF0000005262+0000005262+000000000+000000737+0000005990+0000000009+I20000000000+0000005990+Z
401146001401146007-000322     401146006009685858634PAPER A4 80GSM 100'S   0000001000+00005262+00000+0001T   00005262+0000001745          1400 MD4130               2AZ
401147000401147               401147               170213HF     1400+00000+HF0000002192+0000002192+000000000+000000307+0000002499+0000000000+I40000002499+0000000000+Z
401147001401147566-000359     401147006003000582709STICKER BOOK LOVE SPARK0000001000+00002192+00000+0001T   00002192+0000001749          1400 MD4130               2AZ
401148000401148               401148               170213HF     1400+00000+HF0000007016+0000007016+000000000+000000983+0000007999+0000000000+I40000007999+0000000000+Z
401148001401148562-006275     401148006001023836182EDU BOARD W/MARKER ASST0000001000+00007016+00000+0001T   00007016+0000001752          1400 MD4755               2AZ
401149000401149               401149               170213HF     1400+00000+HF0000002629+0000002629+000000000+000000369+0000002998+0000000000+I40000002998+0000000000+Z
401149001401149077-000011-C   401149006001023808523TISSUE 10xSHTS RED     0000001000+00000876+00000+0001T   00000876+0000001753          1400 MD4112               2AZ
401149002401149077-000299-A   401149006003000670888GIFT-BAG PAPER JMB LOVE0000001000+00001753+00000+0001T   00001753+0000001753          1400 MD4112               2AZ
401150000401150               401150               170213HF     1400+00000+HF0000003507+0000003507+000000000+000000491+0000003990+0000000008+I20000000000+0000003990+Z
401150001401150004-071204     401150006003000624904USB IN-CAR CHARGER 2.1A0000001000+00003507+00000+0001T   00003507+0000001758          1400 MD4310               2AZ
401151000401151               401151               170213HF     1400+00000+HF0000001753+0000001753+000000000+000000246+0000001990+0000000009+I20000000000+0000001990+Z
401151001401151037-000004     401151006001023763679ASHTRAY PL TUB 8X11CM  0000001000+00001753+00000+0001T   00002192+0008191800          1400 MD4515               2AZ
401152000401152               401152               170213HF     1400+00000+HF0000015569+0000015569+000000000+000002181+0000017750+0000000000+I20000000000+0000017750+Z
401152001401152112-116069     401152006009681820277TCS CARRIER BAG JUMBO  0000001000+00000048+00000+0001T   00000048+0000001802          1400 MD4090               2AZ
401152002401152001-091415     401152006003000329113W/GLS OCC. LOVE 2PC 2800000001000+00008771+00000+0001T   00009648+0006471802          1400 MD4515               2AZ
401152003401152018-005009     401152006001023725608MUG W/PLUSH-BEAR LOVE  0000001000+00003507+00000+0001T   00003507+0000001802          1400 MD4515               2AZ
401152004401152077-000299     401152006003000395576G/BAG 32x25cm LRG LOVE 0000001000+00001490+00000+0001T   00001490+0000001802          1400 MD4112               2AZ
401152005401152903-000619     401152006003000672455SWT LOLLY STR/BRRY 140G0000001000+00001753+00000+0001T   00001753+0000001802          1400 MD4150               2AZ
M17021391                              CASH        HFSLAVE 2                       Z-REPORT No.   576TOTAL (Sales - Refunds)          10739.66       CASH TO BE BANKED                 6478.50       DEBIT CARDS                          0.00       CREDIT CARDS                      4245.16       Z-READING                        10723.66       AIRTIME DEBIT CARD SALES             0.00       AIRTIME CARD SALES                   0.00       OVERS/UNDERS                         0.00       AIRTIME CASH SALES                   0.00       GIFT CARDS                           0.00       GIFT CARD CASH SALES                 0.00       CLEANING-MATERIALS                  16.00       T O T A L  CASH PAYOUTS             16.00                                                                                                                                                                                                                                                                                                      Z
M17021392                              CASH        HFABSENT                                                                                                                                                                                          ANNUAL LEAVE                                                                                                                                                                                    DAY OFF                                                                                                                                                                                         COMMENTS                                                                                                                                                                                                                                                                                                                                                                                       Z
Y17021300                                          HF00000000942506+000143
ZHF17021319463 SLAVE 2      SALES DATA                     NEXT INVOICE NO.  401153 0576
F094140463-000501         1701140744060000021ICSLAVE 2
X HF Slave 2 First invoice 401009 170213 Last invoice 401152 170213 Next invoice 401153 Total number of records 000000501 clbackup completed 19:46:53
