101008000101008               101008               170213HG     1400+00000+HG0000004997+0000004997+000000000+000000700+0000005697+0000000000+I40000005697+0000000000+Z
101008001101008077-000452     101008006003000284986G/BAG METALLIC MED EMB 0000001000+00001490+00000+0001T   00001490+0000000923          1400 NF6112               1BZ
101008002101008301-085004     101008006003000420469ORN LOVE PLAQUE 21X10CM0000001000+00003507+00000+0001T   00003946+0006470923          1400 NF6505               1BZ
101009000101009               101009               170213HG     1400+00000+HG0000000035+0000000035+000000000+000000005+0000000040+0000000000+I20000000000+0000000040+Z
101009001101009112-116038     101009006009681820246TCS CARRIER BAG MIDI   0000001000+00000035+00000+0001T   00000035+0000000924          1400 NF6090               1BZ
101010000101010               101010               170213HG     1400+00000+HG0000008768+0000008768+000000000+000001229+0000009990+0000000007+I20000000000+0000009990+Z
101010001101010903-000295     101010006001704002899SWT MS FRUITY RASCALS  0000001000+00000876+00000+0001T   00000876+0000000931          1400 NF6150               1BZ
101010002101010263-000803     101010006003000548286POLICE 12PC MINI CAR   0000001000+00007016+00000+0001T   00007016+0000000931          1400 NF6710               1BZ
101010003101010903-000221     101010006001704007382SWT EENY-MEENY-MOS 60G 0000001000+00000876+00000+0001T   00000876+0000000931          1400 NF6150               1BZ
101011000101011               101011               170213HG     1400+00000+HG0000003506+0000003506+000000000+000000492+0000003990+0000000008+I20000000000+0000003990+Z
101011001101011903-000611     101011006003000617326SWT SNAPPER 20cm       0000002000+00001753+00000+0001T   00001753+0000000932          1400 NF6150               1BZ
101012000101012               101012               170213HG     1400+00000+HG0000007016+0000007016+000000000+000000983+0000007999+0000000000+I40000007999+0000000000+Z
101012001101012560-000245     101012006001023622716RUBBER ANIMALS 10PC ASS0000001000+00007016+00000+0001T   00007016+0000001009          1400 NF6745               1BZ
101013000101013               101013               170213HG     1400+00000+HG0000001314+0000001314+000000000+000000184+0000001490+0000000008+I20000000000+0000001490+Z
101013001101013251-000001     101013006001023487681TAPE DBL-SIDE 18x1000mm0000001000+00001314+00000+0001T   00001314+0000001009          1400 NF6810               1BZ
101014000101014               101014               170213HG     1400+00000+HG0000008942+0000008942+000000000+000001254+0000010196+0000000000+I40000010196+0000000000+Z
101014001101014566-000036     101014006003000384051STICKERS MOTIVATION    0000001000+00001753+00000+0001T   00001753+0000001013          1400 NF6130               1CZ
101014002101014033-000140     101014006003000676972HAIR BRUSH BRIGHT      0000001000+00002630+00000+0001T   00002630+0000001013          1400 NF6200               1CZ
101014003101014089-060027     101014006003000245871KEY-CHAIN HEART 6X6cm  0000001000+00003069+00000+0001T   00003069+0000001013          1400 NF6205               1CZ
101014004101014032-000309     101014006001023477804MIRROR STANDING PL SML 0000001000+00001490+00000+0001T   00001490+0000001013          1400 NF6510               1CZ
101015000101015               101015               170213HG     1400+00000+HG0000008771+0000008771+000000000+000001228+0000009990+0000000009+I20000000000+0000009990+Z
101015001101015486-002307     101015006003000443086W/CLOCK QTZ PL ANTIQUE 0000001000+00008771+00000+0001T   00008771+0000001014          1400 NF6510               1BZ
101016000101016               101016               170213HG     1400+00000+HG0000001753+0000001753+000000000+000000246+0000001990+0000000009+I20000000000+0000001990+Z
101016001101016301-085006     101016006001023502940ORN LOVE MSG TUBE W/HRT0000001000+00001753+00000+0001T   00001753+0000001017          1400 NF6505               1BZ
101017000101017               101017               170213HG     1400+00000+HG0000003507+0000003507+000000000+000000491+0000003990+0000000008+I20000000000+0000003990+Z
101017001101017133-000017     101017006003000525171CLEANING-CLOTHS 5PCE   0000001000+00003507+00000+0001T   00003507+0000001020          1400 NF6212               1BZ
101018000101018               101018               170213HG     1400+00000+HG0000003507+0000003507+000000000+000000491+0000003990+0000000008+I20000000000+0000003990+Z
101018001101018566-000356     101018006003000582341STICKER ROOM WHITEBOARD0000001000+00003507+00000+0001T   00004385+0008151028          1400 NF6130               1BZ
101019000101019               101019               170213HG     1400+00000+HG0000012479+0000012479+000000000+000001752+0000014231+0000000000+I40000014231+0000000000+Z
101019001101019565-000041     101019006008766115642NOVELTY BALL ICON 5.5cm0000002000+00002630+00000+0001T   00002630+0000001221          1400 NF6745               1BZ
101019002101019077-000011-C   101019006001023808523TISSUE 10xSHTS RED     0000001000+00000876+00000+0001T   00000876+0000001221          1400 NF6112               1BZ
101019003101019077-000303     101019006001023593757GIFT-BAG PAPER MED     0000002000+00001578+00000+0001T   00001578+0000001221          1400 NF6112               1BZ
101019004101019112-116038     101019006009681820246TCS CARRIER BAG MIDI   0000001000+00000035+00000+0001T   00000035+0000001221          1400 NF6090               1BZ
101019005101019903-000200     101019006009826020234SWT CHOC RP CHOCO 23G  0000004000+00000788+00000+0001T   00000788+0000001221          1400 NF6150               1BZ
101020000101020               101020               170213HG     1400+00000+HG0000008097+0000008097+000000000+000001141+0000009230+0000000008+I20000000000+0000009230+Z
101020001101020903-000194     101020006009826020616SWT CHOC RP LOLLY 25G  0000001000+00001314+00000+0001T   00001314+0000001309          1400 NF6150               1BZ
101020002101020903-000155     101020006009803374435SWT LOLLY I LUV U HEART0000002000+00000525+00000+0001T   00000525+0000001309          1400 NF6150               1BZ
101020003101020903-000183     101020006003000451043SWT LB HEART LOLLY     0000005000+00000393+00000+0001T   00000393+0000001309          1400 NF6150               1BZ
101020004101020903-000087     101020006001704000161SWT SPECKLED-EGGS 50G  0000001000+00001139+00000+0001T   00001139+0000001309          1400 NF6150               1BZ
101020005101020083-000049     101020004891035200024CIG-LIGHTER DISPOSABLE 0000001000+00000437+00000+0001T   00000437+0000001309          1400 NF6315               1BZ
101020006101020566-000068     101020006003000418046POP UP LOVE 2 ASSTD    0000001000+00002192+00000+0001T   00002192+0000001309          1400 NF6130               1BZ
101021000101021               101021               170213HG     1400+00000+HG0000004385+0000004385+000000000+000000614+0000004990+0000000009+I20000000000+0000004990+Z
101021001101021369-001032     101021006001023796158BABY RATTLE SET 6PCE   0000001000+00004385+00000+0001T   00004385+0000001319          1400 NF6745               1CZ
101022000101022               101022               170213HG     1400+00000+HG0000001139+0000001139+000000000+000000160+0000001290+0000000009+I20000000000+0000001290+Z
101022001101022162-097716     101022006001492977164#TAG NEW GOLD E/PIERCE 0000001000+00001139+00000+0001T   00001139+0000001320          1400 NF6160               1BZ
101023000101023               101023               170213HG     1400+00000+HG0000007049+0000007049+000000000+000000987+0000008036+0000000000+I40000008036+0000000000+Z
101023001101023016-006498-B   101023006001023774767S/JAR GLS/MTL POLKA-DOT0000002000+00003507+00000+0001T   00003507+0000001322          1400 NF6300               1BZ
101023002101023112-116038     101023006009681820246TCS CARRIER BAG MIDI   0000001000+00000035+00000+0001T   00000035+0000001322          1400 NF6090               1BZ
101024000101024               101024               170213HG     1400+00000+HG0000003506+0000003506+000000000+000000492+0000003990+0000000008+I20000000000+0000003990+Z
101024001101024039-000114     101024006001023524058CANDLE T/LITE RED 3.5CM0000001000+00001753+00000+0001T   00001753+0000001327          1400 NF6510               1BZ
101024002101024006-000108     101024006003000587995BALLOONS 6PC RED/WHT   0000001000+00001753+00000+0001T   00001753+0000001327          1400 NF6131               1BZ
101025000101025               101025               170213HG     1400+00000+HG0000001753+0000001753+000000000+000000246+0000001990+0000000009+I20000000000+0000001990+Z
101025001101025039-000114     101025006001023524058CANDLE T/LITE RED 3.5CM0000001000+00001753+00000+0001T   00001753+0000001327          1400 NF6510               1CZ
101026000101026               101026               170213HG     1400+00000+HG0000007487+0000007487+000000000+000001050+0000008530+0000000007+I20000000000+0000008530+Z
101026001101026088-000008     101026006003000623181AIR FRESHENER GEL ASSTD0000001000+00002630+00000+0001T   00002630+0000001334          1400 NF6212               1BZ
101026002101026077-000373     101026006003000395217G/BAG MED 18X23CM DESGN0000001000+00001753+00000+0001T   00001753+0000001334          1400 NF6112               1BZ
101026003101026158-008328     101026006001023595713SOAP-DISH CHR OVAL     0000001000+00003069+00000+0001T   00003069+0000001334          1400 NF6300               1BZ
101026004101026112-116038     101026006009681820246TCS CARRIER BAG MIDI   0000001000+00000035+00000+0001T   00000035+0000001334          1400 NF6090               1BZ
101027000101027               101027               170213HG     1400+00000+HG0000001314+0000001314+000000000+000000184+0000001490+0000000008+I20000000000+0000001490+Z
101027001101027251-000001     101027006001023487681TAPE DBL-SIDE 18x1000mm0000001000+00001314+00000+0001T   00001314+0000001334          1400 NF6810               1BZ
101028000101028               101028               170213HG     1400+00000+HG0000011011+0000011011+000000000+000001542+0000012550+0000000003+I20000000000+0000012550+Z
101028001101028080-000127     101028006003000424351VALENTINES DAY 36x24CM 0000001000+00002192+00000+0001T   00002192+0000001342          1400 NF6112               1BZ
101028002101028001-091415     101028006003000329113W/GLS OCC. LOVE 2PC 2800000001000+00008771+00000+0001T   00009648+0006471342          1400 NF6515               1BZ
101028003101028112-116069     101028006009681820277TCS CARRIER BAG JUMBO  0000001000+00000048+00000+0001T   00000048+0000001342          1400 NF6090               1BZ
101029000101029               101029               170213HG     1400+00000+HG0000008065+0000008065+000000000+000001130+0000009195+0000000000+I40000009195+0000000000+Z
101029001101029464-000121     101029006003000640492PLAYING CARDS MINI     0000001000+00000700+00000+0001T   00000700+0000001644          1400 NF6785               1CZ
101029002101029077-000322     101029006001023677532GIFT-BAG 18X23CM E/D FL0000001000+00001227+00000+0001T   00001227+0000001644          1400 NF6112               1CZ
101029003101029304-001508     101029006003000036165FLWR ORCHID SPRAY 77CM 0000002000+00003069+00000+0001T   00003069+0000001644          1400 NF6510               1CZ
101030000101030               101030               170213HG     1400+00000+HG0000003069+0000003069+000000000+000000430+0000003490+0000000009+I20000000000+0000003490+Z
101030001101030089-060027     101030006003000245871KEY-CHAIN HEART 6X6cm  0000001000+00003069+00000+0001T   00003069+0000001646          1400 NF6205               1BZ
101031000101031               101031               170213HG     1400+00000+HG0000000437+0000000437+000000000+000000062+0000000490+0000000009+I20000000000+0000000490+Z
101031001101031080-000133-A   101031006003000647019MINI VALENTINES CARD   0000001000+00000437+00000+0001T   00000437+0000001646          1400 NF6112               1BZ
101032000101032               101032               170213HG     1400+00000+HG0000002630+0000002630+000000000+000000369+0000002999+0000000000+I40000002999+0000000000+Z
101032001101032077-000270     101032006003000395453GIFT-BAG PPR JMB 33X45 0000001000+00002630+00000+0001T   00002630+0000001648          1400 NF6112               1BZ
101033000101033               101033               170213HG     1400+00000+HG0000000836+0000000836+000000000+000000118+0000000950+0000000004+I20000000000+0000000950+Z
101033001101033112-116069     101033006009681820277TCS CARRIER BAG JUMBO  0000001000+00000048+00000+0001T   00000048+0000001649          1400 NF6090               1CZ
101033002101033903-000200     101033006009826020234SWT CHOC RP CHOCO 23G  0000001000+00000788+00000+0001T   00000788+0000001649          1400 NF6150               1CZ
101034000101034               101034               170213HG     1400+00000+HG0000002192+0000002192+000000000+000000307+0000002490+0000000009+I20000000000+0000002490+Z
101034001101034566-000068     101034006003000418046POP UP LOVE 2 ASSTD    0000001000+00002192+00000+0001T   00002192+0000001652          1400 NF6130               1CZ
101035000101035               101035               170213HG     1400+00000+HG0000001788+0000001788+000000000+000000251+0000002030+0000000009+I20000000000+0000002030+Z
101035001101035034-078800     101035006001023856555COOEY WET-WIPES 60PCE  0000001000+00001753+00000+0001T   00001753+0000001658          1400 NF6215               1BZ
101035002101035112-116038     101035006009681820246TCS CARRIER BAG MIDI   0000001000+00000035+00000+0001T   00000035+0000001658          1400 NF6090               1BZ
101036000101036               101036               170213HG     1400+00000+HG0000001490+0000001490+000000000+000000209+0000001690+0000000009+I20000000000+0000001690+Z
101036001101036077-000299     101036006003000395576G/BAG 32x25cm LRG LOVE 0000001000+00001490+00000+0001T   00001490+0000001702          1400 NF6112               1BZ
101037000101037               101037               170213HG     1400+00000+HG0000011434+0000011434+000000000+000001601+0000013035+0000000000+I40000013035+0000000000+Z
101037001101037162-010776     101037006001492107769#TAG LDS EARRINGS      0000001000+00004385+00000+0001T   00004385+0000001707          1400 NF6160               1BZ
101037002101037162-010777     101037006001492107776#TAG LDS EARRINGS      0000001000+00003507+00000+0001T   00003507+0000001707          1400 NF6160               1BZ
101037003101037162-010768     101037006001492107684#TAG LDS SQ HOOPS 2PK  0000001000+00003507+00000+0001T   00003507+0000001707          1400 NF6160               1BZ
101037004101037112-116038     101037006009681820246TCS CARRIER BAG MIDI   0000001000+00000035+00000+0001T   00000035+0000001707          1400 NF6090               1BZ
101038000101038               101038               170213HG     1400+00000+HG0000006171+0000006171+000000000+000000865+0000007030+0000000006+I20000000000+0000007030+Z
101038001101038018-000129     101038006001023403353MUG OCC. LOVE V-SHAPE  0000001000+00002630+00000+0001T   00002630+0000001712          1400 NF6515               1BZ
101038002101038080-000139     101038006003000611690CARD & ENV MINI SET 6PC0000001000+00002192+00000+0001T   00002192+0000001712          1400 NF6112               1BZ
101038003101038080-000114     101038006003000246472CARD&ENV LOVE-MUSICAL  0000001000+00001314+00000+0001T   00001753+0008151712          1400 NF6112               1BZ
101038004101038112-116038     101038006009681820246TCS CARRIER BAG MIDI   0000001000+00000035+00000+0001T   00000035+0000001712          1400 NF6090               1BZ
101039000101039               101039               170213HG     1400+00000+HG0000001753+0000001753+000000000+000000246+0000001990+0000000009+I20000000000+0000001990+Z
101039001101039200-003026     101039006003000276448REFUSE BAGS 10PCE GREEN0000001000+00001753+00000+0001T   00001753+0000001712          1400 NF6214               1BZ
101040000101040               101040               170213HG     1400+00000+HG0000007220+0000007220+000000000+000001014+0000008234+0000000000+I10000003834+0000004400+Z
101040001101040903-000483     101040006001704001410SWT LIQUOR SML SORT 60G0000001000+00000876+00000+0001T   00000876+0000001717          1400 NF6150               1AZ
101040002101040903-000095     101040006001704011495SWT SPECKLED-EGGS 100G 0000001000+00002104+00000+0001T   00002104+0000001717          1400 NF6150               1AZ
101040003101040903-000504     101040006001704012416SWT CHOC JELLY BEANS   0000001000+00001227+00000+0001T   00001227+0000001717          1400 NF6150               1AZ
101040004101040903-000215     101040006002099001214SWT GS MALLOW TWIST PAC0000001000+00001753+00000+0001T   00001753+0000001717          1400 NF6150               1AZ
101040005101040080-000133-A   101040006003000647019MINI VALENTINES CARD   0000001000+00000437+00000+0001T   00000437+0000001717          1400 NF6112               1AZ
101040006101040903-000200     101040006009826020234SWT CHOC RP CHOCO 23G  0000001000+00000788+00000+0001T   00000788+0000001717          1400 NF6150               1AZ
101040007101040112-116038     101040006009681820246TCS CARRIER BAG MIDI   0000001000+00000035+00000+0001T   00000035+0000001717          1400 NF6090               1AZ
101041000101041               101041               170213HG     1400+00000+HG0000004075+0000004075+000000000+000000571+0000004640+0000000006+I20000000000+0000004640+Z
101041001101041903-000099     101041006923431501646SWT CANDY GS WTCH B/LET0000001000+00000262+00000+0001T   00000262+0000001718          1400 NF6150               1BZ
101041002101041103-000016     101041006001023772145BASKET RECT.20x25x6cm  0000001000+00003507+00000+0001T   00003507+0000001718          1400 NF6300               1BZ
101041003101041007-000123     101041006003000533879BOOK COVER 450mmx1.5m  0000001000+00000306+00000+0001T   00000306+0000001718          1400 NF6130               1BZ
101042000101042               101042               170213HG     1400+00000+HG0000000393+0000000393+000000000+000000056+0000000440+0000000009+I20000000000+0000000440+Z
101042001101042903-000183     101042006003000451043SWT LB HEART LOLLY     0000001000+00000393+00000+0001T   00000393+0000001719          1400 NF6150               1BZ
101043000101043               101043               170213HG     1400+00000+HG0000005120+0000005120+000000000+000000717+0000005830+0000000007+I20000000000+0000005830+Z
101043001101043018-005009     101043006001023725608MUG W/PLUSH-BEAR LOVE  0000001000+00003507+00000+0001T   00003507+0000001720          1400 NF6515               1BZ
101043002101043077-000303     101043006001023593757GIFT-BAG PAPER MED     0000001000+00001578+00000+0001T   00001578+0000001720          1400 NF6112               1BZ
101043003101043112-116038     101043006009681820246TCS CARRIER BAG MIDI   0000001000+00000035+00000+0001T   00000035+0000001720          1400 NF6090               1BZ
101044000101044               101044               170213HG     1400+00000+HG0000001801+0000001801+000000000+000000253+0000002050+0000000004+I20000000000+0000002050+Z
101044001101044077-000290     101044006001023902023GIFT BOX 26x32x13cm    0000001000+00001753+00000+0001T   00001753+0000001720          1400 NF6112               1CZ
101044002101044112-116069     101044006009681820277TCS CARRIER BAG JUMBO  0000001000+00000048+00000+0001T   00000048+0000001720          1400 NF6090               1CZ
A17021300                                          09555838HGSLAVE 1                       NF62IC
A17021301                                          12561992HGSLAVE 1                       NF62IC
A17021302                                          16301926HGSLAVE 1                       NF62IC
M17021391                              CASH        HGSLAVE 1                       Z-REPORT No.   537TOTAL (Sales - Refunds)           1922.72       CASH TO BE BANKED                 1170.50       DEBIT CARDS                          0.00       CREDIT CARDS                       752.22       Z-READING                         1922.72       AIRTIME DEBIT CARD SALES             0.00       AIRTIME CARD SALES                   0.00       OVERS/UNDERS                         0.00       AIRTIME CASH SALES                   0.00       GIFT CARDS                           0.00       GIFT CARD CASH SALES                 0.00       T O T A L  CASH PAYOUTS              0.00                                                                                                                                                                                                                                                                                                                                                      Z
M17021392                              CASH        HGABSENT                                                                                                                                                                                          ANNUAL LEAVE                                                                                                                                                                                    DAY OFF                                                                                                                                                                                         COMMENTS                                                                                                                                                                                                                                                                                                                                                                                       Z
Y17021300                                          HG00000000168810+000037
ZHG17021319463 SLAVE 1      SALES DATA                     NEXT INVOICE NO.  101045 0537
X HG Slave 1 First invoice 101008 170213 Last invoice 101044 170213 Next invoice 101045 Total number of records 000000124 clbackup completed 19:46:57
