101378000101378               101378               170213HJ     1400+00000+HJ0000033395+0000033395+000000000+000004676+0000038071+0000000000+I40000038071+0000000000+Z
101378001101378112-116053     101378006006438002399TCS CARRIER BAG 38L    0000001000+00000069+00000+0001T   00000069+0000000844          1400 NA3090               1AZ
101378002101378031-000009     101378006003000306381P/FRAME COLLAGE HEARTS 0000001000+00013157+00000+0001T   00013157+0000000844          1400 NA3510               1AZ
101378003101378133-083230     101378006001023714305T/CLOTH 132x183cm OBLNG0000001000+00003507+00000+0001T   00003507+0000000844          1400 NA3212               1AZ
101378004101378030-000031-A   101378006003000457588PLAQUE W/WORDS ASSTD   0000002000+00004385+00000+0001T   00004823+0006470844          1400 NA3505               1AZ
101378005101378133-000017     101378006003000525171CLEANING-CLOTHS 5PCE   0000001000+00003507+00000+0001T   00003507+0000000844          1400 NA3212               1AZ
101378006101378018-030000     101378006003000421060MUG OCCASIONS LOVE 2PCE0000001000+00004385+00000+0001T   00004385+0000000844          1400 NA3515               1AZ
101379000101379               101379               170213HJ     1400+00000+HJ0000002630+0000002630+000000000+000000369+0000002990+0000000009+I20000000000+0000002990+Z
101379001101379006-006018     101379006001023735256PARTY-SPRAY HAIR ASSORT0000001000+00002630+00000+0001T   00002630+0000000845          1400 NA3131               1AZ
101380000101380               101380               170213HJ     1400+00000+HJ0000001050+0000001050+000000000+000000148+0000001190+0000000008+I20000000000+0000001190+Z
101380001101380903-000155     101380006009803374435SWT LOLLY I LUV U HEART0000002000+00000525+00000+0001T   00000525+0000000845          1400 NA3150               1AZ
101381000101381               101381               170213HJ     1400+00000+HJ0000006399+0000006399+000000000+000000897+0000007290+0000000006+I20000000000+0000007290+Z
101381001101381018-000136     101381006001023659026MUG OCC LOVE W/PLUSH   0000001000+00003507+00000+0001T   00003507+0000000847          1400 NA3515               1AZ
101381002101381304-001204     101381006001023737984FLOWER OCC. TEDDY/ROSES0000001000+00001402+00000+0001T   00001490+0006470847          1400 NA3510               1AZ
101381003101381077-000299     101381006003000395576G/BAG 32x25cm LRG LOVE 0000001000+00001490+00000+0001T   00001490+0000000847          1400 NA3112               1AZ
101382000101382               101382               170213HJ     1400+00000+HJ0000001753+0000001753+000000000+000000246+0000001990+0000000009+I20000000000+0000001990+Z
101382001101382039-001023     101382006003000466337CANDLE TEA-LITE METALIC0000001000+00001753+00000+0001T   00001753+0000000848          1400 NA3510               1AZ
101383000101383               101383               170213HJ     1400+00000+HJ0000008449+0000008449+000000000+000001186+0000009635+0000000000+I40000009635+0000000000+Z
101383001101383112-116038     101383006009681820246TCS CARRIER BAG MIDI   0000001000+00000035+00000+0001T   00000035+0000000850          1400 NA3090               1AZ
101383002101383105-000750     101383006003000190270CONTAINERS 4xMINI 150ml0000001000+00001402+00000+0001T   00001402+0000000850          1400 NA3210               1AZ
101383003101383088-000108     101383006001023765536POTPOURRI-OIL 10ml ASST0000002000+00001753+00000+0001T   00001753+0000000850          1400 NA3212               1AZ
101383004101383047-000507     101383006001023684479PLUG-ADAPTOR EURO TWIN 0000002000+00001753+00000+0001T   00001753+0000000850          1400 NA3880               1AZ
101384000101384               101384               170213HJ     1400+00000+HJ0000002192+0000002192+000000000+000000307+0000002499+0000000000+I40000002499+0000000000+Z
101384001101384206-000100     101384006003000628063TONGS ICE COLD FINGERS 0000001000+00002192+00000+0001T   00002192+0000000853          1400 NA3321               1AZ
101385000101385               101385               170213HJ     1400+00000+HJ0000021469+0000021469+000000000+000003007+0000024476+0000000000+I40000024476+0000000000+Z
101385001101385039-000799     101385006001023692382CANDLES TEALITE 100PCE 0000001000+00008771+00000+0001T   00008771+0000000859          1400 NA3510               1AZ
101385002101385040-000103     101385000694202201862C/HOLDER-SET 5PC W/TRAY0000001000+00011402+00000+0001T   00013157+0008190859          1400 NA3510               1AZ
101385003101385071-081091     101385006001151010287STAED/GENKEM ALL-STICK 0000001000+00001227+00000+0001T   00001227+0000000859          1400 NA3130               1AZ
101385004101385112-116053     101385006006438002399TCS CARRIER BAG 38L    0000001000+00000069+00000+0001T   00000069+0000000859          1400 NA3090               1AZ
101386000101386               101386               170213HJ     1400+00000+HJ0000003768+0000003768+000000000+000000529+0000004290+0000000007+I20000000000+0000004290+Z
101386001101386077-000471     101386006003000330096G-BAG DESGN MED 18X23CM0000001000+00001753+00000+0001T   00001753+0000000909          1400 NA3112               1AZ
101386002101386077-000299     101386006003000395576G/BAG 32x25cm LRG LOVE 0000001000+00001490+00000+0001T   00001490+0000000909          1400 NA3112               1AZ
101386003101386903-000155     101386006009803374435SWT LOLLY I LUV U HEART0000001000+00000525+00000+0001T   00000525+0000000909          1400 NA3150               1AZ
101387000101387               101387               170213HJ     1400+00000+HJ0000007712+0000007712+000000000+000001082+0000008790+0000000004+I20000000000+0000008790+Z
101387001101387083-000058     101387006003000400331LIGHTER JET CIGAR REFIL0000002000+00002630+00000+0001T   00002630+0000000912          1400 NA3315               1AZ
101387002101387083-000055     101387006003000003853LIGHTER ELCTRNC REFILBL0000004000+00000613+00000+0001T   00000613+0000000912          1400 NA3315               1AZ
101388000101388               101388               170213HJ     1400+00000+HJ0000003197+0000003197+000000000+000000449+0000003640+0000000006+I20000000000+0000003640+Z
101388001101388200-003024     101388006001023657299REFUSE BAGS 20PCE BLACK0000001000+00001753+00000+0001T   00001753+0000000917          1400 NA3214               1AZ
101388002101388306-000021     101388006001023169433EARBUDS 100PCE IN BAG  0000001000+00000613+00000+0001T   00000613+0000000917          1400 NA3200               1AZ
101388003101388007-000402     101388006009635830864EXERCISE-BOOK A4 72PGE 0000001000+00000525+00000+0001T   00000525+0000000917          1400 NA3130               1AZ
101388004101388079-009700-B   101388006003000547661PAPER SIRIO A4 WHITE   0000001000+00000306+00000+0001T   00000306+0000000917          1400 NA3130               1AZ
101389000101389               101389               170213HJ     1400+00000+HJ0000005262+0000005262+000000000+000000737+0000005990+0000000009+I20000000000+0000005990+Z
101389001101389304-001115     101389006001023738240FLOWER-BUNCH CARNATIONS0000001000+00005262+00000+0001T   00005262+0000000921          1400 NA3510               1AZ
101390000101390               101390               170213HJ     1400+00000+HJ0000004293+0000004293+000000000+000000603+0000004896+0000000000+I40000004896+0000000000+Z
101390001101390077-000010-C   101390006001023123879CREPE-PAPER RED        0000001000+00000788+00000+0001T   00000788+0000000925          1400 NA3112               1AZ
101390002101390903-000155     101390006009803374435SWT LOLLY I LUV U HEART0000001000+00000525+00000+0001T   00000525+0000000925          1400 NA3150               1AZ
101390003101390077-000384     101390006003000275243G/BAG HOT STMP 18x23CM 0000002000+00001490+00000+0001T   00001490+0000000925          1400 NA3112               1AZ
101391000101391               101391               170213HJ     1400+00000+HJ0000001752+0000001752+000000000+000000246+0000001990+0000000008+I20000000000+0000001990+Z
101391001101391077-000150-D   101391006003000054343GIFT-WRAP CELLPHANE CLR0000001000+00000876+00000+0001T   00000876+0000000946          1400 NA3112               1AZ
101391002101391077-000011-F   101391006001023808431TISSUE-WRAP BLUE/LILAC 0000001000+00000876+00000+0001T   00000876+0000000946          1400 NA3112               1AZ
101392000101392               101392               170213HJ     1400+00000+HJ0000057675+0000057675+000000000+000008083+0000065758+0000000000+I40000065758+0000000000+Z
101392001101392112-116053     101392006006438002399TCS CARRIER BAG 38L    0000001000+00000069+00000+0001T   00000069+0000000957          1400 NA3090               1AZ
101392002101392079-000261     101392006003000159727PAINT WATER COLOUR CAKE0000001000+00004385+00000+0001T   00004385+0000000957          1400 NA3130               1AZ
101392003101392079-014101     101392006001023908612ART+CRAFT SCOUBIDOUx50 0000001000+00003507+00000+0001T   00003507+0000000957          1400 NA3130               1AZ
101392004101392079-012210     101392006001023831958SPONGE PATTERN ROLLERS 0000001000+00001753+00000+0001T   00001753+0000000957          1400 NA3130               1AZ
101392005101392071-000873     101392006001023758743RUB-BANDS CLR BAG-100  0000001000+00001490+00000+0001T   00001490+0000000957          1400 NA3130               1AZ
101392006101392079-013102     101392006003000019601ART+CRAFT DIY PIPE-CLNR0000001000+00002192+00000+0001T   00002192+0000000957          1400 NA3130               1AZ
101392007101392562-000200     101392006001023732941PUSH-IN TRANSPORT      0000001000+00003507+00000+0001T   00003507+0000000957          1400 NA3755               1AZ
101392008101392562-000211     101392006001023851536PUSH-IN BOARD ALPHABET 0000001000+00005262+00000+0001T   00005262+0000000957          1400 NA3755               1AZ
101392009101392562-000212     101392006001023851567PUSH-IN BOARD NUMBERS  0000001000+00004385+00000+0001T   00004385+0000000957          1400 NA3755               1AZ
101392010101392562-000019     101392006001023800305EDU PLAY DOUGH BOXED   0000001000+00007893+00000+0001T   00008771+0008190957          1400 NA3755               1AZ
101392011101392019-071601     101392006001023771995RIVER-STONES 1kg WHITE 0000001000+00002630+00000+0001T   00002630+0000000957          1400 NA3510               1AZ
101392012101392019-071603     101392006001023772039RIVER-STONES 1kg PEACH 0000001000+00002630+00000+0001T   00002630+0000000957          1400 NA3510               1AZ
101392013101392019-071600     101392006001023771971RIVER-STONES 1kg MIXED 0000001000+00002630+00000+0001T   00002630+0000000957          1400 NA3510               1AZ
101392014101392079-000260     101392006001023886385PAINT TUBS WT BASE 4COL0000002000+00002630+00000+0001T   00002630+0000000957          1400 NA3130               1AZ
101392015101392079-013106     101392006003000081998ART+CRAFT PIPE-CLEANERS0000001000+00003069+00000+0001T   00003069+0000000957          1400 NA3130               1AZ
101392016101392079-000286     101392006001023797032FINGER-PAINT 4PCE      0000001000+00003507+00000+0001T   00003507+0000000957          1400 NA3130               1AZ
101392017101392079-006496     101392006003000160105GLITTER SHAKERS        0000002000+00001753+00000+0001T   00001753+0000000957          1400 NA3130               1AZ
101393000101393               101393               170213HJ     1400+00000+HJ0000001314+0000001314+000000000+000000184+0000001490+0000000008+I20000000000+0000001490+Z
101393001101393006-000166-E   101393006003000516612BALLOONS LRG 6PC GREEN 0000001000+00001314+00000+0001T   00001314+0000001007          1400 NA3131               1AZ
101394000101394               101394               170213HJ     1400+00000+HJ0000000069+0000000069+000000000+000000010+0000000070+0000000009+I20000000000+0000000070+Z
101394001101394112-116053     101394006006438002399TCS CARRIER BAG 38L    0000001000+00000069+00000+0001T   00000069+0000001011          1400 NA3090               1AZ
101395000101395               101395               170213HJ     1400+00000+HJ0000017205+0000017205+000000000+000002414+0000019619+0000000000+I40000019619+0000000000+Z
101395001101395112-116038     101395006009681820246TCS CARRIER BAG MIDI   0000001000+00000035+00000+0001T   00000035+0000001013          1400 NA3090               1AZ
101395002101395006-006018     101395006001023735256PARTY-SPRAY HAIR ASSORT0000001000+00002630+00000+0001T   00002630+0000001013          1400 NA3131               1AZ
101395003101395903-000844     101395005010478432567SWT CANDY DL LUV HEARTS0000004000+00001314+00000+0001T   00001314+0000001013          1400 NA3150               1AZ
101395004101395903-000155     101395006009803374435SWT LOLLY I LUV U HEART0000005000+00000525+00000+0001T   00000525+0000001013          1400 NA3150               1AZ
101395005101395018-000177     101395006001023797513MUG MINI LOVE ASSTD    0000002000+00000700+00000+0001T   00000700+0000001013          1400 NA3515               1AZ
101395006101395301-085006     101395006001023502940ORN LOVE MSG TUBE W/HRT0000003000+00001753+00000+0001T   00001753+0000001013          1400 NA3505               1AZ
101396000101396               101396               170213HJ     1400+00000+HJ0000000876+0000000876+000000000+000000123+0000000990+0000000009+I20000000000+0000000990+Z
101396001101396903-003080     101396005907029004673SWT SNACK STIX CHOC 50g0000001000+00000876+00000+0001T   00000876+0000001016          1400 NA3150               1AZ
101397000101397               101397               170213HJ     1400+00000+HJ0000000877+0000000877+000000000+000000123+0000000000+0000000000+ 00000000000+0000000000+Z
101397001101397077-000011-F   101397006001023808431TISSUE-WRAP BLUE/LILAC 0000001000-00000876+00000+0001T   00000876+000000              1400 NA31121IC            1 Z
101397002101397077-000011-X   101397006001023809827TISSUE-WRAP SILVER 10PC0000001000+00001753+00000+0001T   00001753+000000              1400 NA31121IC            1 Z
101398000101398               101398               170213HJ     1400+00000+HJ0000009678+0000009678+000000000+000001358+0000011030+0000000006+I20000000000+0000011030+Z
101398001101398006-000111     101398006003000519385BALLOONS LARGE 12PCE   0000003000+00002630+00000+0001T   00002630+0000001020          1400 NA3131               1AZ
101398002101398366-006104     101398006003000616930DRESS UP FACE PAINT    0000001000+00001753+00000+0001T   00001753+0000001020          1400 NA3131               1AZ
101398003101398112-116038     101398006009681820246TCS CARRIER BAG MIDI   0000001000+00000035+00000+0001T   00000035+0000001020          1400 NA3090               1AZ
101399000101399               101399               170213HJ     1400+00000+HJ0000000000+0000000000+000000000+000000000+0000000000+0000000000+I20000000000+0000000000+Z
101399001101399077-000011-F   101399006001023808431TISSUE-WRAP BLUE/LILAC 0000001000-00000876+00000+0001T   00000876+0000001021          1400 NA31121IC            1 Z
101399002101399077-000011-E   101399006001023808646TISSUE-WRAP PINK 10PCE 0000001000+00000876+00000+0001T   00000876+0000001021          1400 NA3112               1 Z
101400000101400               101400               170213HJ     1400+00000+HJ0000003541+0000003541+000000000+000000497+0000004030+0000000008+I20000000000+0000004030+Z
101400001101400112-116038     101400006009681820246TCS CARRIER BAG MIDI   0000001000+00000035+00000+0001T   00000035+0000001026          1400 NA3090               1AZ
101400002101400200-003024     101400006001023657299REFUSE BAGS 20PCE BLACK0000001000+00001753+00000+0001T   00001753+0000001026          1400 NA3214               1AZ
101400003101400089-000030     101400006003000575671K/CHAIN LOVE MTL ASSTD 0000001000+00001753+00000+0001T   00001753+0000001026          1400 NA3205               1AZ
101401000101401               101401               170213HJ     1400+00000+HJ0000019291+0000019291+000000000+000002703+0000021990+0000000004+I20000000000+0000021990+Z
101401001101401304-000720     101401006001023843050F/BUNCH ROSE 6-HEAD AST0000001000+00002630+00000+0001T   00002630+0000001030          1400 NA3510               1AZ
101401002101401304-001115     101401006001023738240FLOWER-BUNCH CARNATIONS0000001000+00005262+00000+0001T   00005262+0000001030          1400 NA3510               1AZ
101401003101401071-005060     101401006003000152186CELLOTAPE 2PACK INVSBLE0000001000+00003507+00000+0001T   00003507+0000001030          1400 NA3130               1AZ
101401004101401077-000270     101401006003000395453GIFT-BAG PPR JMB 33X45 0000001000+00002630+00000+0001T   00002630+0000001030          1400 NA3112               1AZ
101401005101401304-001116     101401006003000426164F/BUNCH ROSES 12-HEAD  0000001000+00005262+00000+0001T   00005262+0000001030          1400 NA3510               1AZ
101402000101402               101402               170213HJ     1400+00000+HJ0000001227+0000001227+000000000+000000172+0000001399+0000000000+I40000001399+0000000000+Z
101402001101402251-000041     101402006001023515889SEAL-TAPE BUFF 48mmx50m0000001000+00001227+00000+0001T   00001227+0000001035          1400 NA3810               1AZ
101403000101403               101403               170213HJ     1400+00000+HJ0000002192+0000002192+000000000+000000307+0000002490+0000000009+I20000000000+0000002490+Z
101403001101403051-002400     101403006001023616180TRIGGER-SPRAYER 900ml  0000001000+00002192+00000+0001T   00002192+0000001040          1400 NA3820               1AZ
101404000101404               101404               170213HJ     1400+00000+HJ0000005908+0000005908+000000000+000000829+0000006737+0000000000+I40000006737+0000000000+Z
101404001101404162-096646     101404006001492966465#TAG HOT DEALS KIDS HR 0000001000+00002630+00000+0001T   00002630+0000001046          1400 NA3160               1AZ
101404002101404083-000055     101404006003000003853LIGHTER ELCTRNC REFILBL0000001000+00000613+00000+0001T   00000613+0000001046          1400 NA3315               1AZ
101404003101404079-013032-D   101404006003000389643RIBBONS                0000001000+00002630+00000+0001T   00002630+0000001046          1400 NA3130               1AZ
101404004101404112-116038     101404006009681820246TCS CARRIER BAG MIDI   0000001000+00000035+00000+0001T   00000035+0000001046          1400 NA3090               1AZ
101405000101405               101405               170213HJ     1400+00000+HJ0000013157+0000013157+000000000+000001842+0000014990+0000000009+I20000000000+0000014990+Z
101405001101405586-096130     101405006001492961309WATCH LDS GIFT SQU     0000001000+00013157+00000+0001T   00013157+0000001055          1400 NA3160               1AZ
101406000101406               101406               170213HJ     1400+00000+HJ0000005260+0000005260+000000000+000000738+0000005990+0000000008+I20000000000+0000005990+Z
101406001101406015-002000     101406006001023640314BOWL S/STEEL MIXING 16c0000002000+00002630+00000+0001T   00002630+0000001058          1400 NA3515               1AZ
101407000101407               101407               170213HJ     1400+00000+HJ0000004119+0000004119+000000000+000000578+0000004690+0000000007+I20000000000+0000004690+Z
101407001101407039-001023     101407006003000466337CANDLE TEA-LITE METALIC0000001000+00001753+00000+0001T   00001753+0000001119          1400 NA3510               1AZ
101407002101407039-000114     101407006001023524058CANDLE T/LITE RED 3.5CM0000001000+00001753+00000+0001T   00001753+0000001119          1400 NA3510               1AZ
101407003101407083-000055     101407006003000003853LIGHTER ELCTRNC REFILBL0000001000+00000613+00000+0001T   00000613+0000001119          1400 NA3315               1AZ
101408000101408               101408               170213HJ     1400+00000+HJ0000007010+0000007010+000000000+000000983+0000007990+0000000003+I20000000000+0000007990+Z
101408001101408077-000316     101408006001023609731GIFT-BAG 25X32CM MATT  0000001000+00001753+00000+0001T   00001753+0000001120          1400 NA3112               1AZ
101408002101408077-000454     101408006003000285266G/BAG METALLIC LRG EMB 0000001000+00001753+00000+0001T   00001753+0000001120          1400 NA3112               1AZ
101408003101408903-000121     101408006002099001689SWT GS ZILLIONS SOURS  0000002000+00000700+00000+0001T   00000700+0000001120          1400 NA3150               1AZ
101408004101408903-000095     101408006001704011495SWT SPECKLED-EGGS 100G 0000001000+00002104+00000+0001T   00002104+0000001120          1400 NA3150               1AZ
101409000101409               101409               170213HJ     1400+00000+HJ0000015833+0000015833+000000000+000002217+0000018050+0000000000+I20000000000+0000018050+Z
101409001101409112-116069     101409006009681820277TCS CARRIER BAG JUMBO  0000001000+00000048+00000+0001T   00000048+0000001123          1400 NA3090               1AZ
101409002101409263-000147     101409006003000298556BIKE TRIGGER LAUNCHED  0000001000+00008771+00000+0001T   00008771+0000001123          1400 NA3710               1AZ
101409003101409024-000301     101409006001023820174SHAKER S/S FLOUR/SALT  0000002000+00003507+00000+0001T   00003507+0000001123          1400 NA3300               1AZ
101410000101410               101410               170213HJ     1400+00000+HJ0000002980+0000002980+000000000+000000418+0000003390+0000000008+I20000000000+0000003390+Z
101410001101410055-009254     101410006001023527073PICTURE-HOOK+PINS 5PCE 0000002000+00001490+00000+0001T   00001490+0000001130          1400 NA3810               1BZ
101411000101411               101411               170213HJ     1400+00000+HJ0000012215+0000012215+000000000+000001715+0000013930+0000000000+I40000013930+0000000000+Z
101411001101411903-000517     101411006001704012768SWT STRAWS FIZZY CHERRY0000002000+00001227+00000+0001T   00001227+0000001136          1400 NA3150               1BZ
101411002101411903-000895     101411006009680772256SWT MINI BOTZ S/BERRY  0000002000+00000788+00000+0001T   00000788+0000001136          1400 NA3150               1BZ
101411003101411162-096646     101411006001492966465#TAG HOT DEALS KIDS HR 0000001000+00002630+00000+0001T   00002630+0000001136          1400 NA3160               1BZ
101411004101411077-000303     101411006001023593757GIFT-BAG PAPER MED     0000003000+00001578+00000+0001T   00001578+0000001136          1400 NA3112               1BZ
101411005101411903-000183     101411006003000451043SWT LB HEART LOLLY     0000002000+00000393+00000+0001T   00000393+0000001136          1400 NA3150               1BZ
101411006101411112-116038     101411006009681820246TCS CARRIER BAG MIDI   0000001000+00000035+00000+0001T   00000035+0000001136          1400 NA3090               1BZ
101412000101412               101412               170213HJ     1400+00000+HJ0000004385+0000004385+000000000+000000614+0000004999+0000000000+I40000004999+0000000000+Z
101412001101412082-000115     101412006003000360604READING GLS STRNGHT:2.50000001000+00004385+00000+0001T   00004385+0000001145          1400 NA3160               1AZ
101413000101413               101413               170213HJ     1400+00000+HJ0000001050+0000001050+000000000+000000148+0000001190+0000000008+I20000000000+0000001190+Z
101413001101413903-000155     101413006009803374435SWT LOLLY I LUV U HEART0000002000+00000525+00000+0001T   00000525+0000001145          1400 NA3150               1AZ
101414000101414               101414               170213HJ     1400+00000+HJ0000001753+0000001753+000000000+000000246+0000001990+0000000009+I20000000000+0000001990+Z
101414001101414024-091100     101414006001023914224BAKING-CUPS PAPER 100PC0000001000+00001753+00000+0001T   00001753+0000001147          1400 NA3300               1CZ
101415000101415               101415               170213HJ     1400+00000+HJ0000002630+0000002630+000000000+000000369+0000002990+0000000009+I20000000000+0000002990+Z
101415001101415031-005821     101415006001023667786P/FRAME-GLS CLIP 21X30 0000001000+00002630+00000+0001T   00002630+0000001152          1400 NA3510               1BZ
101416000101416               101416               170213HJ     1400+00000+HJ0000007016+0000007016+000000000+000000983+0000007990+0000000009+I20000000000+0000007990+Z
101416001101416031-086301-C   101416006001023910240P/FRAME PL BRONZE 20X250000001000+00007016+00000+0001T   00007016+0000001200          1400 NA3510               1AZ
101417000101417               101417               170213HJ     1400+00000+HJ0000001968+0000001968+000000000+000000277+0000002240+0000000005+I20000000000+0000002240+Z
101417001101417903-000844     101417005010478432567SWT CANDY DL LUV HEARTS0000001000+00001314+00000+0001T   00001314+0000001308          1400 NA3150               1AZ
101417002101417903-000670     101417006009803358008SWT SHERBET RED LIPS   0000003000+00000218+00000+0001T   00000218+0000001308          1400 NA3150               1AZ
101418000101418               101418               170213HJ     1400+00000+HJ0000001753+0000001753+000000000+000000246+0000001990+0000000009+I20000000000+0000001990+Z
101418001101418106-001108     101418006003000467365WATER BOTTLE 580ml     0000001000+00001753+00000+0001T   00001753+0000001309          1400 NA3210               1AZ
101419000101419               101419               170213HJ     1400+00000+HJ0000001227+0000001227+000000000+000000172+0000001390+0000000009+I20000000000+0000001390+Z
101419001101419077-000245     101419006001023759214GIFT-RIBBON METALLICx2 0000001000+00001227+00000+0001T   00001227+0000001309          1400 NA3112               1AZ
101420000101420               101420               170213HJ     1400+00000+HJ0000005645+0000005645+000000000+000000791+0000006430+0000000006+I20000000000+0000006430+Z
101420001101420903-000120     101420006002099001665SWEET GS ZILLIONS 50g  0000001000+00000700+00000+0001T   00000700+0000001310          1400 NA3150               1AZ
101420002101420018-030000     101420006003000421060MUG OCCASIONS LOVE 2PCE0000001000+00004385+00000+0001T   00004385+0000001310          1400 NA3515               1AZ
101420003101420112-116038     101420006009681820246TCS CARRIER BAG MIDI   0000001000+00000035+00000+0001T   00000035+0000001310          1400 NA3090               1AZ
101420004101420903-000155     101420006009803374435SWT LOLLY I LUV U HEART0000001000+00000525+00000+0001T   00000525+0000001310          1400 NA3150               1AZ
101421000101421               101421               170213HJ     1400+00000+HJ0000004385+0000004385+000000000+000000614+0000004999+0000000000+I40000004999+0000000000+Z
101421001101421089-000017     101421006003000331147KEYCHAIN MOM POLY BOX  0000001000+00004385+00000+0001T   00004385+0000001349          1400 NA3205               1AZ
101422000101422               101422               170213HJ     1400+00000+HJ0000002540+0000002540+000000000+000000356+0000002890+0000000006+I20000000000+0000002890+Z
101422001101422903-000126     101422006002099003591SWT ZILLIONS MINT 50G  0000001000+00000700+00000+0001T   00000700+0000001406          1400 NA3150               1AZ
101422002101422903-000499     101422006001704012492SWT CHOC MALLOWS 50g   0000001000+00001227+00000+0001T   00001227+0000001406          1400 NA3150               1AZ
101422003101422903-000849     101422008692806080083SWT SNACK BISCUIT 70g  0000001000+00000613+00000+0001T   00000613+0000001406          1400 NA3150               1AZ
101423000101423               101423               170213HJ     1400+00000+HJ0000002539+0000002539+000000000+000000356+0000002895+0000000000+I40000002895+0000000000+Z
101423001101423903-000070     101423006001704001106SWT TOFFEE CREAMY 35g  0000001000+00000700+00000+0001T   00000700+0000001409          1400 NA3150               1AZ
101423002101423903-000071     101423006001704001120SWT TOFFEE LIQURICE 35g0000001000+00000700+00000+0001T   00000700+0000001409          1400 NA3150               1AZ
101423003101423903-000698     101423006002099007032SWT CANDY ECLAIRS 90g  0000001000+00001139+00000+0001T   00001139+0000001409          1400 NA3150               1AZ
101424000101424               101424               170213HJ     1400+00000+HJ0000005262+0000005262+000000000+000000737+0000005990+0000000009+I20000000000+0000005990+Z
101424001101424366-000125     101424006003000006786DRESSUP WINGS/WAND/BAND0000001000+00005262+00000+0001T   00005262+0000001411          1400 NA3131               1AZ
101425000101425               101425               170213HJ     1400+00000+HJ0000017538+0000017538+000000000+000002457+0000019990+0000000005+I20000000000+0000019990+Z
101425001101425077-000299     101425006003000395576G/BAG 32x25cm LRG LOVE 0000001000+00001490+00000+0001T   00001490+0000001414          1400 NA3112               1AZ
101425002101425368-000637     101425006001023874092PLUSH BEAR SLEEPING LOV0000001000+00011402+00000+0001T   00012279+0006471414          1400 NA3745               1AZ
101425003101425080-000124     101425006003000297733CARD & ENV VALENTINES  0000001000+00001578+00000+0001T   00001578+0000001414          1400 NA3112               1AZ
101425004101425903-000843     101425008693029031067SWT GUMMY JELAXY 80G   0000001000+00000964+00000+0001T   00000964+0000001414          1400 NA3150               1AZ
101425005101425903-000095     101425006001704011495SWT SPECKLED-EGGS 100G 0000001000+00002104+00000+0001T   00002104+0000001414          1400 NA3150               1AZ
101426000101426               101426               170213HJ     1400+00000+HJ0000006400+0000006400+000000000+000000897+0000007290+0000000007+I20000000000+0000007290+Z
101426001101426077-000303     101426006001023593757GIFT-BAG PAPER MED     0000001000+00001578+00000+0001T   00001578+0000001415          1400 NA3112               1AZ
101426002101426018-030000     101426006003000421060MUG OCCASIONS LOVE 2PCE0000001000+00004385+00000+0001T   00004385+0000001415          1400 NA3515               1AZ
101426003101426080-000133     101426006003000535613CARD&ENV MINI ASTD DSGN0000001000+00000437+00000+0001T   00000437+0000001415          1400 NA3112               1AZ
101427000101427               101427               170213HJ     1400+00000+HJ0000001753+0000001753+000000000+000000246+0000001990+0000000009+I20000000000+0000001990+Z
101427001101427565-000889     101427006003000626953NOVELTY SPACE BALLOONS 0000001000+00001753+00000+0001T   00001753+0000001415          1400 NA3745               1AZ
101428000101428               101428               170213HJ     1400+00000+HJ0000010872+0000010872+000000000+000001523+0000012390+0000000005+I20000000000+0000012390+Z
101428001101428077-000303     101428006001023593757GIFT-BAG PAPER MED     0000001000+00001578+00000+0001T   00001578+0000001417          1400 NA3112               1AZ
101428002101428368-000171     101428006003000233250PLUSH BEAR 14cm        0000001000+00005262+00000+0001T   00005262+0000001417          1400 NA3745               1AZ
101428003101428903-000155     101428006009803374435SWT LOLLY I LUV U HEART0000001000+00000525+00000+0001T   00000525+0000001417          1400 NA3150               1AZ
101428004101428306-000027     101428006009654960900COTTON WOOL PADS 2-PACK0000001000+00003507+00000+0001T   00003507+0000001417          1400 NA3200               1AZ
101429000101429               101429               170213HJ     1400+00000+HJ0000010379+0000010379+000000000+000001455+0000011830+0000000004+I20000000000+0000011830+Z
101429001101429304-001204     101429006001023737984FLOWER OCC. TEDDY/ROSES0000001000+00001402+00000+0001T   00001490+0006471426          1400 NA3510               1AZ
101429002101429018-030000     101429006003000421060MUG OCCASIONS LOVE 2PCE0000001000+00004385+00000+0001T   00004385+0000001426          1400 NA3515               1AZ
101429003101429018-005009     101429006001023725608MUG W/PLUSH-BEAR LOVE  0000001000+00003507+00000+0001T   00003507+0000001426          1400 NA3515               1AZ
101429004101429903-000155     101429006009803374435SWT LOLLY I LUV U HEART0000002000+00000525+00000+0001T   00000525+0000001426          1400 NA3150               1AZ
101429005101429112-116038     101429006009681820246TCS CARRIER BAG MIDI   0000001000+00000035+00000+0001T   00000035+0000001426          1400 NA3090               1AZ
101430000101430               101430               170213HJ     1400+00000+HJ0000001578+0000001578+000000000+000000221+0000001790+0000000009+I20000000000+0000001790+Z
101430001101430077-000303     101430006001023593757GIFT-BAG PAPER MED     0000001000+00001578+00000+0001T   00001578+0000001427          1400 NA3112               1AZ
101431000101431               101431               170213HJ     1400+00000+HJ0000003506+0000003506+000000000+000000492+0000003990+0000000008+I20000000000+0000003990+Z
101431001101431019-000103     101431006003000280957VASE GLASS BUD 14CM ASS0000002000+00001753+00000+0001T   00001753+0000001432          1400 NA3510               1AZ
101432000101432               101432               170213HJ     1400+00000+HJ0000001753+0000001753+000000000+000000246+0000001990+0000000009+I20000000000+0000001990+Z
101432001101432051-500115     101432006003000528059GARDEN KID SPRAY BOTTLE0000001000+00001753+00000+0001T   00001753+0000001432          1400 NA3820               1AZ
101433000101433               101433               170213HJ     1400+00000+HJ0000001490+0000001490+000000000+000000209+0000001690+0000000009+I20000000000+0000001690+Z
101433001101433077-000299     101433006003000395576G/BAG 32x25cm LRG LOVE 0000001000+00001490+00000+0001T   00001490+0000001433          1400 NA3112               1AZ
101434000101434               101434               170213HJ     1400+00000+HJ0000000048+0000000048+000000000+000000007+0000000050+0000000005+I20000000000+0000000050+Z
101434001101434112-116069     101434006009681820277TCS CARRIER BAG JUMBO  0000001000+00000048+00000+0001T   00000048+0000001433          1400 NA3090               1AZ
101435000101435               101435               170213HJ     1400+00000+HJ0000001227+0000001227+000000000+000000172+0000001390+0000000009+I20000000000+0000001390+Z
101435001101435077-000245     101435006001023759214GIFT-RIBBON METALLICx2 0000001000+00001227+00000+0001T   00001227+0000001434          1400 NA3112               1AZ
101436000101436               101436               170213HJ     1400+00000+HJ0000017141+0000017141+000000000+000002404+0000019540+0000000005+I20000000000+0000019540+Z
101436001101436112-116069     101436006009681820277TCS CARRIER BAG JUMBO  0000001000+00000048+00000+0001T   00000048+0000001436          1400 NA3090               1AZ
101436002101436366-000356     101436006003000006908DRESS UP WINGS FAIRY   0000001000+00004385+00000+0001T   00004385+0000001436          1400 NA3131               1AZ
101436003101436006-000220-A   101436006001023890849PARTY TABLE-CLOTH GIRL 0000001000+00002630+00000+0001T   00002630+0000001436          1400 NA3131               1AZ
101436004101436366-000300     101436006001023902955DRESSUP TIARA FEATHER  0000001000+00002630+00000+0001T   00002630+0000001436          1400 NA3131               1AZ
101436005101436200-000066     101436006003000365975STRAWS 12PCE W/UMBRELLA0000001000+00001314+00000+0001T   00001314+0000001436          1400 NA3214               1AZ
101436006101436006-000201-C   101436006003000601394PARTY GIRL PLATES/CUPS 0000002000+00001753+00000+0001T   00001753+0000001436          1400 NA3131               1AZ
101436007101436039-000323     101436006001023524171BIRTHDAY-CANDLES 24PCE 0000001000+00000876+00000+0001T   00000876+0000001436          1400 NA3510               1AZ
101436008101436006-000223     101436006001023891327PARTY EYE-MASK 6PCE    0000002000+00000876+00000+0001T   00000876+0000001436          1400 NA3131               1AZ
101437000101437               101437               170213HJ     1400+00000+HJ0000002804+0000002804+000000000+000000394+0000000000+0000000000+ 00000000000+0000000000+Z
101437001101437304-001204     101437006001023737984FLOWER OCC. TEDDY/ROSES0000002000+00001402+00000+0001T   00001490+000647              1400 NA35101IC            1 Z
101438000101438               101438               170213HJ     1400+00000+HJ0000004385+0000004385+000000000+000000614+0000004999+0000000000+I40000004999+0000000000+Z
101438001101438031-080508     101438006001023802415P/FRAME PL 22X11CM LOVE0000001000+00004385+00000+0001T   00004385+0000001440          1400 NA3510               1AZ
101439000101439               101439               170213HJ     1400+00000+HJ0000007502+0000007502+000000000+000001069+0000008571+0000000000+I40000008571+0000000000+Z
101439001101439112-116038     101439006009681820246TCS CARRIER BAG MIDI   0000001000+00000035+00000+0001T   00000035+0000001448          1400 NA3090               1AZ
101439002101439903-000183     101439006003000451043SWT LB HEART LOLLY     0000019000+00000393+00000+0001T   00000393+0000001448          1400 NA3150               1AZ
101440000101440               101440               170213HJ     1400+00000+HJ0000015956+0000015956+000000000+000002236+0000018192+0000000000+I40000018192+0000000000+Z
101440001101440075-000592     101440000678634480804B/PACK KIDS TKERBELL   0000001000+00001753+00000+0001T   00002630+0008121450          1400 NA3160               1AZ
101440002101440903-000095     101440006001704011495SWT SPECKLED-EGGS 100G 0000001000+00002104+00000+0001T   00002104+0000001450          1400 NA3150               1AZ
101440003101440903-000844     101440005010478432567SWT CANDY DL LUV HEARTS0000001000+00001314+00000+0001T   00001314+0000001450          1400 NA3150               1AZ
101440004101440903-000518     101440006001704012782SWT STRAWS S/BERRY 100g0000001000+00001227+00000+0001T   00001227+0000001450          1400 NA3150               1AZ
101440005101440903-004951     101440006002580020328SWT MALLOW MINI M/SHAKE0000001000+00001227+00000+0001T   00001227+0000001450          1400 NA3150               1AZ
101440006101440567-010395     101440006002242053466GENERIC AFRIKAANS READE0000001000+00002192+00000+0001T   00002192+0000001450          1400 NA3757               1AZ
101440007101440079-012263     101440006003000645602PAINT MINI PLATE SET   0000001000+00006139+00000+0001T   00006139+0000001450          1400 NA3130               1AZ
101441000101441               101441               170213HJ     1400+00000+HJ0000005293+0000005293+000000000+000000743+0000006036+0000000000+I40000006036+0000000000+Z
101441001101441077-000303     101441006001023593757GIFT-BAG PAPER MED     0000001000+00001578+00000+0001T   00001578+0000001452          1400 NA3112               1AZ
101441002101441018-000129     101441006001023403353MUG OCC. LOVE V-SHAPE  0000001000+00002630+00000+0001T   00002630+0000001452          1400 NA3515               1AZ
101441003101441903-000155     101441006009803374435SWT LOLLY I LUV U HEART0000002000+00000525+00000+0001T   00000525+0000001452          1400 NA3150               1AZ
101441004101441112-116038     101441006009681820246TCS CARRIER BAG MIDI   0000001000+00000035+00000+0001T   00000035+0000001452          1400 NA3090               1AZ
101442000101442               101442               170213HJ     1400+00000+HJ0000001753+0000001753+000000000+000000246+0000001990+0000000009+I20000000000+0000001990+Z
101442001101442080-000113     101442006003000237449CARD&ENVLPE - LOVE     0000001000+00001753+00000+0001T   00001753+0000001453          1400 NA3112               1AZ
101443000101443               101443               170213HJ     1400+00000+HJ0000011070+0000011070+000000000+000001555+0000012620+0000000005+I20000000000+0000012620+Z
101443001101443077-000151     101443006008766114676GIFT-WRAP C/PHANE ASSTD0000001000+00000876+00000+0001T   00000876+0000001458          1400 NA3112               1AZ
101443002101443018-000177     101443006001023797513MUG MINI LOVE ASSTD    0000003000+00000700+00000+0001T   00000700+0000001458          1400 NA3515               1AZ
101443003101443018-005009     101443006001023725608MUG W/PLUSH-BEAR LOVE  0000001000+00003507+00000+0001T   00003507+0000001458          1400 NA3515               1AZ
101443004101443077-000115     101443006001023834225WRAP METALLIC 700mmx1m 0000001000+00001753+00000+0001T   00001753+0000001458          1400 NA3112               1AZ
101443005101443077-000245     101443006001023759214GIFT-RIBBON METALLICx2 0000001000+00001227+00000+0001T   00001227+0000001458          1400 NA3112               1AZ
101443006101443112-116038     101443006009681820246TCS CARRIER BAG MIDI   0000001000+00000035+00000+0001T   00000035+0000001458          1400 NA3090               1AZ
101443007101443903-000183     101443006003000451043SWT LB HEART LOLLY     0000004000+00000393+00000+0001T   00000393+0000001458          1400 NA3150               1AZ
101444000101444               101444               170213HJ     1400+00000+HJ0000007927+0000007927+000000000+000001111+0000009038+0000000000+I40000009038+0000000000+Z
101444001101444024-091102-B   101444006003000111725BAKING-CUP MUFFIN 40PCE0000001000+00002630+00000+0001T   00002630+0000001506          1400 NA3300               1AZ
101444002101444024-000019     101444006001023822277HILLHOUSE ICING-SET    0000001000+00005262+00000+0001T   00005262+0000001506          1400 NA3300               1AZ
101444003101444112-116038     101444006009681820246TCS CARRIER BAG MIDI   0000001000+00000035+00000+0001T   00000035+0000001506          1400 NA3090               1AZ
101445000101445               101445               170213HJ     1400+00000+HJ0000002453+0000002453+000000000+000000344+0000002790+0000000007+I20000000000+0000002790+Z
101445001101445564-000012     101445006001023130075BUBBLE BOTTLE MAGIC    0000001000+00000700+00000+0001T   00000700+0000001652          1400 NA3131               1AZ
101445002101445903-000612     101445006003000617449SWT TRUMPET 20cm       0000001000+00001753+00000+0001T   00001753+0000001652          1400 NA3150               1AZ
101446000101446               101446               170213HJ     1400+00000+HJ0000007484+0000007484+000000000+000001049+0000008533+0000000000+I40000008533+0000000000+Z
101446001101446112-116038     101446006009681820246TCS CARRIER BAG MIDI   0000001000+00000035+00000+0001T   00000035+0000001654          1400 NA3090               1AZ
101446002101446018-005009     101446006001023725608MUG W/PLUSH-BEAR LOVE  0000001000+00003507+00000+0001T   00003507+0000001654          1400 NA3515               1AZ
101446003101446018-000177     101446006001023797513MUG MINI LOVE ASSTD    0000001000+00000700+00000+0001T   00000700+0000001654          1400 NA3515               1AZ
101446004101446565-000080     101446006003000643424NOVELTY BENDY          0000001000+00002192+00000+0001T   00002192+0000001654          1400 NA3745               1AZ
101446005101446903-000155     101446006009803374435SWT LOLLY I LUV U HEART0000002000+00000525+00000+0001T   00000525+0000001654          1400 NA3150               1AZ
101447000101447               101447               170213HJ     1400+00000+HJ0000006139+0000006139+000000000+000000860+0000006999+0000000000+I40000006999+0000000000+Z
101447001101447018-055000     101447006003000441457COFFEE PLUNGER PL 600ML0000001000+00006139+00000+0001T   00006139+0000001656          1400 NA3515               1AZ
101448000101448               101448               170213HJ     1400+00000+HJ0000009696+0000009696+000000000+000001358+0000011050+0000000004+I20000000000+0000011050+Z
101448001101448028-000026     101448006001023810847COOLER-BAG+POCKET NYLON0000001000+00009648+00000+0001T   00009648+0000001657          1400 NA3305               1AZ
101448002101448112-116069     101448006009681820277TCS CARRIER BAG JUMBO  0000001000+00000048+00000+0001T   00000048+0000001657          1400 NA3090               1AZ
101449000101449               101449               170213HJ     1400+00000+HJ0000019650+0000019650+000000000+000002800+0000022450+0000000000+I40000022450+0000000000+Z
101449001101449001-000001     101449006001023507266SHOT-GLASS 25ml        0000050000+00000393+00000+0001T   00000393+0000001709          1400 NA3515               1AZ
101450000101450               101450               170213HJ     1400+00000+HJ0000016357+0000016357+000000000+000002293+0000018650+0000000000+I20000000000+0000018650+Z
101450001101450112-116069     101450006009681820277TCS CARRIER BAG JUMBO  0000001000+00000048+00000+0001T   00000048+0000001721          1400 NA3090               1AZ
101450002101450903-000619     101450006003000672455SWT LOLLY STR/BRRY 140G0000001000+00001753+00000+0001T   00001753+0000001721          1400 NA3150               1AZ
101450003101450903-000155     101450006009803374435SWT LOLLY I LUV U HEART0000001000+00000525+00000+0001T   00000525+0000001721          1400 NA3150               1AZ
101450004101450027-000027     101450006003000439355DUSTPAN SET ASSTD      0000001000+00006139+00000+0001T   00006139+0000001721          1400 NA3212               1AZ
101450005101450200-003024     101450006001023657299REFUSE BAGS 20PCE BLACK0000001000+00001753+00000+0001T   00001753+0000001721          1400 NA3214               1AZ
101450006101450027-000029     101450006003000439676FLOOR-BROOM 1.2m ASSTD 0000001000+00006139+00000+0001T   00006139+0000001721          1400 NA3212               1AZ
M17021301                              GLADWIN     HJSLAVE 1 LAST TILL SLIP NO. 101450               THANKS MOKOPANE HJ
M17021391                              CASH        HJSLAVE 1                       Z-REPORT No.   556TOTAL (Sales - Refunds)           5862.01       CASH TO BE BANKED                 3014.70       DEBIT CARDS                          0.00       CREDIT CARDS                      2847.31       Z-READING                         5862.01       AIRTIME DEBIT CARD SALES             0.00       AIRTIME CARD SALES                   0.00       OVERS/UNDERS                         0.00       AIRTIME CASH SALES                   0.00       GIFT CARDS                           0.00       GIFT CARD CASH SALES                 0.00       T O T A L  CASH PAYOUTS              0.00                                                                                                                                                                                                                                                                                                                                                      Z
M17021392                              CASH        HJABSENT                                                                                                                                                                                          ANNUAL LEAVE                                                                                                                                                                                    DAY OFF                                                                                                                                                                                         COMMENTS                                                                                                                                                                                                                                                                                                                                                                                       Z
Y17021300                                          HJ00000000515250+000071
ZHJ17021319473 SLAVE 1      SALES DATA                     NEXT INVOICE NO.  101451 0556
X HJ Slave 1 First invoice 101378 170213 Last invoice 101450 170213 Next invoice 101451 Total number of records 000000276 clbackup completed 19:47:02
