114137000114137               114137               170213HK     1400+00000+HK0000001490+0000001490+000000000+000000209+0000001690+0000000009+I20000000000+0000001690+Z
114137001114137077-000342     114137006003000273942G/BAG PAPER LRG 25X32CM0000001000+00001490+00000+0001T   00001490+0000000902          1400 MY5112               2AZ
114138000114138               114138               170213HK     1400+00000+HK0000000437+0000000437+000000000+000000062+0000000490+0000000009+I20000000000+0000000490+Z
114138001114138083-000049     114138004891035200024CIG-LIGHTER DISPOSABLE 0000001000+00000437+00000+0001T   00000437+0000000913          1400 KJ6315               2AZ
114139000114139               114139               170213HK     1400+00000+HK0000024603+0000024603+000000000+000003447+0000028050+0000000000+I40000028050+0000000000+Z
114139001114139560-000245     114139006001023622716RUBBER ANIMALS 10PC ASS0000002000+00007016+00000+0001T   00007016+0000000926          1400 KJ6745               2AZ
114139002114139564-000015     114139006003000140862BUBBLE TEST TUBE       0000001000+00001753+00000+0001T   00001753+0000000926          1400 KJ6131               2AZ
114139003114139562-000743     114139006001023712318EDU BLOCKS SHAPE PL    0000001000+00004385+00000+0001T   00004385+0000000926          1400 KJ6755               2AZ
114139004114139562-000212     114139006001023851567PUSH-IN BOARD NUMBERS  0000001000+00004385+00000+0001T   00004385+0000000926          1400 KJ6755               2AZ
114139005114139112-116069     114139006009681820277TCS CARRIER BAG JUMBO  0000001000+00000048+00000+0001T   00000048+0000000926          1400 KJ6090               2AZ
114140000114140               114140               170213HK     1400+00000+HK0000002192+0000002192+000000000+000000307+0000002490+0000000009+I20000000000+0000002490+Z
114140001114140071-001346     114140006001023912985HIGHLIGHTERS 4PCE CARD 0000001000+00002192+00000+0001T   00002192+0000001021          1400 KJ6130               2AZ
114141000114141               114141               170213HK     1400+00000+HK0000005085+0000005085+000000000+000000712+0000005797+0000000000+I40000005797+0000000000+Z
114141001114141018-000127     114141006001023380289MUG OCC STRAIGHT LOVE  0000001000+00001578+00000+0001T   00001753+0006471142          1400 KJ6515               2AZ
114141002114141018-005009     114141006001023725608MUG W/PLUSH-BEAR LOVE  0000001000+00003507+00000+0001T   00003507+0000001142          1400 KJ6515               2AZ
114142000114142               114142               170213HK     1400+00000+HK0000001051+0000001051+000000000+000000148+0000001190+0000000009+I20000000000+0000001190+Z
114142001114142903-002891     114142008935001721376MENTOS GUM WINTERGREEN 0000001000+00001051+00000+0001T   00001051+0000001143          1400 KJ6150               2AZ
114143000114143               114143               170213HK     1400+00000+HK0000014959+0000014959+000000000+000002095+0000017054+0000000000+I40000017054+0000000000+Z
114143001114143031-007003     114143006003000462834P/FRAME WDN DIST. COLL.0000001000+00014911+00000+0001T   00014911+0000001144          1400 KJ6510               2AZ
114143002114143112-116069     114143006009681820277TCS CARRIER BAG JUMBO  0000001000+00000048+00000+0001T   00000048+0000001144          1400 KJ6090               2AZ
114144000114144               114144               170213HK     1400+00000+HK0000017147+0000017147+000000000+000002403+0000019550+0000000000+I20000000000+0000019550+Z
114144001114144306-007303     114144006003000532476MASSAGER (FOR HEAD)    0000001000+00002630+00000+0001T   00002630+0000001146          1400 KJ6200               2AZ
114144002114144159-000637     114144006001023735058BATH PUMICE STONE      0000001000+00000700+00000+0001T   00000700+0000001146          1400 KJ6200               2AZ
114144003114144041-092015     114144006003000384761BATH VINTAGE WIRE CADDY0000001000+00012279+00000+0001T   00012279+0000001146          1400 KJ6200               2AZ
114144004114144077-000327     114144006001023677686GIFT-BAG 25X32CM E/D BA0000001000+00001490+00000+0001T   00001490+0000001146          1400 KJ6112               2AZ
114144005114144112-116069     114144006009681820277TCS CARRIER BAG JUMBO  0000001000+00000048+00000+0001T   00000048+0000001146          1400 KJ6090               2AZ
114145000114145               114145               170213HK     1400+00000+HK0000007663+0000007663+000000000+000001075+0000008730+0000000008+I20000000000+0000008730+Z
114145001114145079-009700-D   114145006003000545711PAPER SIRIO A4 RED COL.0000001000+00000306+00000+0001T   00000306+0000001150          1400 KJ6130               2AZ
114145002114145077-000151     114145006008766114676GIFT-WRAP C/PHANE ASSTD0000001000+00000876+00000+0001T   00000876+0000001150          1400 KJ6112               2AZ
114145003114145077-000150-D   114145006003000054343GIFT-WRAP CELLPHANE CLR0000001000+00000876+00000+0001T   00000876+0000001150          1400 KJ6112               2AZ
114145004114145007-000555     114145006001023848239MEMO-PAD MINI LOVE     0000001000+00000613+00000+0001T   00000613+0000001150          1400 KJ6130               2AZ
114145005114145566-000200     114145006003000384174STICKER PUFFY NEON     0000001000+00000876+00000+0001T   00000876+0000001150          1400 KJ6130               2AZ
114145006114145007-000555     114145006001023848239MEMO-PAD MINI LOVE     0000002000+00000613+00000+0001T   00000613+0000001150          1400 KJ6130               2AZ
114145007114145018-000177     114145006001023797513MUG MINI LOVE ASSTD    0000001000+00000700+00000+0001T   00000700+0000001150          1400 KJ6515               2AZ
114145008114145903-000861     114145005010478430822SWT LOVE HEARTS SML    0000001000+00000876+00000+0001T   00000876+0000001150          1400 KJ6150               2AZ
114145009114145077-000310     114145006001023608635GIFT-BAG 18X23CM GLOSS 0000001000+00001314+00000+0001T   00001314+0000001150          1400 KJ6112               2AZ
114146000114146               114146               170213HK     1400+00000+HK0000006174+0000006174+000000000+000000865+0000007030+0000000009+I20000000000+0000007030+Z
114146001114146018-050000     114146006003000412679MUG OCC LOVE TWIN BEAR 0000001000+00006139+00000+0001T   00006139+0000001151          1400 KJ6515               2AZ
114146002114146112-116038     114146006009681820246TCS CARRIER BAG MIDI   0000001000+00000035+00000+0001T   00000035+0000001151          1400 KJ6090               2AZ
114147000114147               114147               170213HK     1400+00000+HK0000016784+0000016784+000000000+000002352+0000019136+0000000000+I40000019136+0000000000+Z
114147001114147562-000020     114147006003000600861EDU PLAY DOUGH 60g 4PC 0000002000+00003507+00000+0001T   00003507+0000001154          1400 KJ6755               2AZ
114147002114147006-005904     114147006001023823205P/FAVOUR SOCCER BALL 6P0000001000+00002630+00000+0001T   00002630+0000001154          1400 KJ6131               2AZ
114147003114147006-000203-A   114147006003453010965SNACK BOX 6PCE ASSTD   0000001000+00002630+00000+0001T   00002630+0000001154          1400 KJ6131               2AZ
114147004114147564-000012     114147006001023130075BUBBLE BOTTLE MAGIC    0000006000+00000700+00000+0001T   00000700+0000001154          1400 KJ6131               2AZ
114147005114147903-000099     114147006923431501646SWT CANDY GS WTCH B/LET0000001000+00000262+00000+0001T   00000262+0000001154          1400 KJ6150               2AZ
114147006114147112-116069     114147006009681820277TCS CARRIER BAG JUMBO  0000001000+00000048+00000+0001T   00000048+0000001154          1400 KJ6090               2AZ
114148000114148               114148               170213HK     1400+00000+HK0000011868+0000011868+000000000+000001663+0000013531+0000000000+I40000013531+0000000000+Z
114148001114148903-000843     114148008693029031067SWT GUMMY JELAXY 80G   0000004000+00000964+00000+0001T   00000964+0000001201          1400 KJ6150               2AZ
114148002114148077-000303     114148006001023593757GIFT-BAG PAPER MED     0000001000+00001578+00000+0001T   00001578+0000001201          1400 KJ6112               2AZ
114148003114148080-000113     114148006003000237449CARD&ENVLPE - LOVE     0000001000+00001753+00000+0001T   00001753+0000001201          1400 KJ6112               2AZ
114148004114148077-000303     114148006001023593757GIFT-BAG PAPER MED     0000001000+00001578+00000+0001T   00001578+0000001201          1400 KJ6112               2AZ
114148005114148903-000861     114148005010478430822SWT LOVE HEARTS SML    0000001000+00000876+00000+0001T   00000876+0000001201          1400 KJ6150               2AZ
114148006114148016-006517     114148006003000351626S/JAR GLS CHECK 650ML  0000001000+00002192+00000+0001T   00002192+0000001201          1400 KJ6300               2AZ
114148007114148112-116038     114148006009681820246TCS CARRIER BAG MIDI   0000001000+00000035+00000+0001T   00000035+0000001201          1400 KJ6090               2AZ
114149000114149               114149               170213HK     1400+00000+HK0000000876+0000000876+000000000+000000123+0000000990+0000000009+I20000000000+0000000990+Z
114149001114149089-000192-A   114149006001023901774KEY-CHAIN ACRYLIC      0000001000+00000876+00000+0001T   00000876+0000001222          1400 KJ6205               2AZ
114150000114150               114150               170213HK     1400+00000+HK0000003507+0000003507+000000000+000000491+0000003990+0000000008+I20000000000+0000003990+Z
114150001114150301-085004     114150006003000420469ORN LOVE PLAQUE 21X10CM0000001000+00003507+00000+0001T   00003946+0006471229          1400 KJ6505               2AZ
114151000114151               114151               170213HK     1400+00000+HK0000001490+0000001490+000000000+000000209+0000001699+0000000000+I40000001699+0000000000+Z
114151001114151106-001100-B   114151006005387194452FRIDGE BOTTLE ASSORTED 0000001000+00001490+00000+0001T   00001490+0000001239          1400 KJ6210               2AZ
114152000114152               114152               170213HK     1400+00000+HK0000028992+0000028992+000000000+000004060+0000033052+0000000000+I40000033052+0000000000+Z
114152001114152031-005924     114152006003000420889P/FRAME CERT PL ASTD A40000003000+00009648+00000+0001T   00009648+0000001241          1400 KJ6510               2AZ
114152002114152112-116069     114152006009681820277TCS CARRIER BAG JUMBO  0000001000+00000048+00000+0001T   00000048+0000001241          1400 KJ6090               2AZ
114153000114153               114153               170213HK     1400+00000+HK0000004857+0000004857+000000000+000000681+0000005538+0000000000+I40000005538+0000000000+Z
114153001114153002-000684     114153006001023693778K/TOOL TURNER H/HOUSE  0000001000+00002192+00000+0001T   00002192+0000001242          1400 KJ6300               2AZ
114153002114153037-000006     114153006003000171996ASHTRAY PL TUB GIANT   0000001000+00002630+00000+0001T   00003069+0008191242          1400 KJ6515               2AZ
114153003114153112-116038     114153006009681820246TCS CARRIER BAG MIDI   0000001000+00000035+00000+0001T   00000035+0000001242          1400 KJ6090               2AZ
114154000114154               114154               170213HK     1400+00000+HK0000004870+0000004870+000000000+000000683+0000005553+0000000000+I40000005553+0000000000+Z
114154001114154077-000270     114154006003000395453GIFT-BAG PPR JMB 33X45 0000001000+00002630+00000+0001T   00002630+0000001246          1400 KJ6112               2AZ
114154002114154080-000127     114154006003000424351VALENTINES DAY 36x24CM 0000001000+00002192+00000+0001T   00002192+0000001246          1400 KJ6112               2AZ
114154003114154112-116069     114154006009681820277TCS CARRIER BAG JUMBO  0000001000+00000048+00000+0001T   00000048+0000001246          1400 KJ6090               2AZ
114155000114155               114155               170213HK     1400+00000+HK0000001138+0000001138+000000000+000000160+0000001290+0000000008+I20000000000+0000001290+Z
114155001114155304-001011     114155006001023806727FLWR ROSE RED W/BEAR   0000001000+00000613+00000+0001T   00000788+0006471246          1400 KJ6510               2AZ
114155002114155903-000155     114155006009803374435SWT LOLLY I LUV U HEART0000001000+00000525+00000+0001T   00000525+0000001246          1400 KJ6150               2AZ
114156000114156               114156               170213HK     1400+00000+HK0000000700+0000000700+000000000+000000098+0000000790+0000000008+I20000000000+0000000790+Z
114156001114156018-000177     114156006001023797513MUG MINI LOVE ASSTD    0000001000+00000700+00000+0001T   00000700+0000001247          1400 KJ6515               2AZ
114157000114157               114157               170213HK     1400+00000+HK0000002630+0000002630+000000000+000000369+0000002990+0000000009+I20000000000+0000002990+Z
114157001114157267-000300     114157006003000162970PUZZLE BLOCKS ASSTD    0000001000+00002630+00000+0001T   00002630+0000001248          1400 KJ6755               2AZ
114158000114158               114158               170213HK     1400+00000+HK0000003243+0000003243+000000000+000000455+0000003698+0000000000+I40000003698+0000000000+Z
114158001114158079-006494     114158006003000159864GLITTER GLUE 5PCE 11cm 0000001000+00001490+00000+0001T   00001490+0000001249          1400 KJ6130               2AZ
114158002114158566-001228     114158006003000284153STICKERS CRYSTAL ASSTD 0000001000+00001753+00000+0001T   00001753+0000001249          1400 KJ6130               2AZ
114159000114159               114159               170213HK     1400+00000+HK0000001575+0000001575+000000000+000000222+0000001790+0000000007+I20000000000+0000001790+Z
114159001114159903-000155     114159006009803374435SWT LOLLY I LUV U HEART0000003000+00000525+00000+0001T   00000525+0000001250          1400 KJ6150               2AZ
114160000114160               114160               170213HK     1400+00000+HK0000001314+0000001314+000000000+000000184+0000001498+0000000000+I40000001498+0000000000+Z
114160001114160107-004105     114160006002923010504BUCKET 9L OPEN         0000001000+00001314+00000+0001T   00001314+0000001303          1400 KJ6210               2AZ
114161000114161               114161               170213HK     1400+00000+HK0000000613+0000000613+000000000+000000086+0000000690+0000000009+I20000000000+0000000690+Z
114161001114161083-000055     114161006003000003853LIGHTER ELCTRNC REFILBL0000001000+00000613+00000+0001T   00000613+0000001315          1400 KJ6315               2AZ
114162000114162               114162               170213HK     1400+00000+HK0000001753+0000001753+000000000+000000246+0000001990+0000000009+I20000000000+0000001990+Z
114162001114162065-006042     114162006001023712998MARACAS 2PCE CHA-CHA   0000001000+00001753+00000+0001T   00001753+0000001321          1400 KJ6745               2AZ
114163000114163               114163               170213HK     1400+00000+HK0000011449+0000011449+000000000+000001604+0000013053+0000000000+I40000013053+0000000000+Z
114163001114163077-000270     114163006003000395453GIFT-BAG PPR JMB 33X45 0000001000+00002630+00000+0001T   00002630+0000001323          1400 KJ6112               2AZ
114163002114163031-086302-C   114163006001023910332P/FRAME COLL. PL 3-HOLE0000001000+00008771+00000+0001T   00008771+0000001323          1400 KJ6510               2AZ
114163003114163112-116069     114163006009681820277TCS CARRIER BAG JUMBO  0000001000+00000048+00000+0001T   00000048+0000001323          1400 KJ6090               2AZ
114164000114164               114164               170213HK     1400+00000+HK0000005256+0000005256+000000000+000000738+0000005990+0000000004+I20000000000+0000005990+Z
114164001114164001-000168     114164008992787110268TUMBLER 340ml ZOMBI    0000006000+00000876+00000+0001T   00000876+0000001325          1400 KJ6515               2AZ
114165000114165               114165               170213HK     1400+00000+HK0000008814+0000008814+000000000+000001235+0000010040+0000000009+I20000000000+0000010040+Z
114165001114165077-000302     114165008010410010195GIFT-BAG 18X23CM E/D   0000002000+00000876+00000+0001T   00000876+0000001327          1400 KJ6112               2AZ
114165002114165018-000136     114165006001023659026MUG OCC LOVE W/PLUSH   0000002000+00003507+00000+0001T   00003507+0000001327          1400 KJ6515               2AZ
114165003114165112-116069     114165006009681820277TCS CARRIER BAG JUMBO  0000001000+00000048+00000+0001T   00000048+0000001327          1400 KJ6090               2AZ
114166000114166               114166               170213HK     1400+00000+HK0000000262+0000000262+000000000+000000037+0000000290+0000000009+I20000000000+0000000290+Z
114166001114166903-000216     114166006925925900966SWT MALLOW TWIST ERKO  0000001000+00000262+00000+0001T   00000262+0000001327          1400 KJ6150               2AZ
114167000114167               114167               170213HK     1400+00000+HK0000018729+0000018729+000000000+000002623+0000021352+0000000000+I40000021352+0000000000+Z
114167001114167019-000040     114167006001023673640VASE GLS 30CM CYLINDER 0000002000+00008771+00000+0001T   00008771+0000001336          1400 KJ6510               2AZ
114167002114167903-000087     114167006001704000161SWT SPECKLED-EGGS 50G  0000001000+00001139+00000+0001T   00001139+0000001336          1400 KJ6150               2AZ
114167003114167112-116069     114167006009681820277TCS CARRIER BAG JUMBO  0000001000+00000048+00000+0001T   00000048+0000001336          1400 KJ6090               2AZ
114168000114168               114168               170213HK     1400+00000+HK0000008371+0000008371+000000000+000001176+0000009540+0000000007+I20000000000+0000009540+Z
114168001114168077-000290     114168006001023902023GIFT BOX 26x32x13cm    0000001000+00001753+00000+0001T   00001753+0000001337          1400 KJ6112               2AZ
114168002114168903-000671     114168006009803358015SWT SHERBET BLUE LIPS  0000002000+00000218+00000+0001T   00000218+0000001337          1400 KJ6150               2AZ
114168003114168903-002853     114168000000087108019MENTOS ROLL MINT       0000001000+00001051+00000+0001T   00001051+0000001337          1400 KJ6150               2AZ
114168004114168903-000861     114168005010478430822SWT LOVE HEARTS SML    0000001000+00000876+00000+0001T   00000876+0000001337          1400 KJ6150               2AZ
114168005114168903-000111     114168006001704006378SWT LIQUORICE-TWISTS   0000002000+00001227+00000+0001T   00001227+0000001337          1400 KJ6150               2AZ
114168006114168903-000082     114168006001704014892SWT MINI WINE GUMS 100G0000001000+00001753+00000+0001T   00001753+0000001337          1400 KJ6150               2AZ
114168007114168112-116069     114168006009681820277TCS CARRIER BAG JUMBO  0000001000+00000048+00000+0001T   00000048+0000001337          1400 KJ6090               2AZ
114169000114169               114169               170213HK     1400+00000+HK0000002630+0000002630+000000000+000000369+0000002990+0000000009+I20000000000+0000002990+Z
114169001114169083-000058     114169006003000400331LIGHTER JET CIGAR REFIL0000001000+00002630+00000+0001T   00002630+0000001337          1400 KJ6315               2AZ
114170000114170               114170               170213HK     1400+00000+HK0000004031+0000004031+000000000+000000566+0000004590+0000000007+I20000000000+0000004590+Z
114170001114170065-003699     114170006001023690883FLUTE RECORDER PL      0000002000+00001490+00000+0001T   00001490+0000001337          1400 KJ6745               2AZ
114170002114170903-002851     114170000000087108538MENTOS ROLL STRAWBERRY 0000001000+00001051+00000+0001T   00001051+0000001337          1400 KJ6150               2AZ
114171000114171               114171               170213HK     1400+00000+HK0000004820+0000004820+000000000+000000676+0000005496+0000000000+I40000005496+0000000000+Z
114171001114171903-000843     114171008693029031067SWT GUMMY JELAXY 80G   0000001000+00000964+00000+0001T   00000964+0000001339          1400 KJ6150               2AZ
114171002114171077-000011-D   114171006001023808554TISSUE-WRAP WHITE 10PCE0000001000+00000876+00000+0001T   00000876+0000001339          1400 KJ6112               2AZ
114171003114171077-000452     114171006003000284986G/BAG METALLIC MED EMB 0000002000+00001490+00000+0001T   00001490+0000001339          1400 KJ6112               2AZ
114172000114172               114172               170213HK     1400+00000+HK0000000525+0000000525+000000000+000000074+0000000590+0000000009+I20000000000+0000000590+Z
114172001114172903-000155     114172006009803374435SWT LOLLY I LUV U HEART0000001000+00000525+00000+0001T   00000525+0000001339          1400 KJ6150               2AZ
114173000114173               114173               170213HK     1400+00000+HK0000000525+0000000525+000000000+000000074+0000000590+0000000009+I20000000000+0000000590+Z
114173001114173903-000155     114173006009803374435SWT LOLLY I LUV U HEART0000001000+00000525+00000+0001T   00000525+0000001340          1400 KJ6150               2AZ
114174000114174               114174               170213HK     1400+00000+HK0000002629+0000002629+000000000+000000369+0000002990+0000000008+I20000000000+0000002990+Z
114174001114174080-000133     114174006003000535613CARD&ENV MINI ASTD DSGN0000001000+00000437+00000+0001T   00000437+0000001342          1400 KJ6112               2AZ
114174002114174080-000127     114174006003000424351VALENTINES DAY 36x24CM 0000001000+00002192+00000+0001T   00002192+0000001342          1400 KJ6112               2AZ
114175000114175               114175               170213HK     1400+00000+HK0000001753+0000001753+000000000+000000246+0000001990+0000000009+I20000000000+0000001990+Z
114175001114175080-000100     114175006003000236114CARD & ENVELOPE BDAY   0000001000+00001753+00000+0001T   00001753+0000001344          1400 KJ6112               2AZ
114176000114176               114176               170213HK     1400+00000+HK0000032836+0000032836+000000000+000004600+0000037436+0000000000+I40000037436+0000000000+Z
114176001114176080-000127     114176006003000424351VALENTINES DAY 36x24CM 0000001000+00002192+00000+0001T   00002192+0000001430          1400 KJ6112               2AZ
114176002114176563-000318-L   114176006003000407088SERVIETTES 33cm RED    0000001000+00002192+00000+0001T   00002192+0000001430          1400 KJ6214               2AZ
114176003114176301-085007     114176006003000673698ORN OCC. LOVE S/PLAQUE 0000001000+00007893+00000+0001T   00007893+0000001430          1400 KJ6505               2AZ
114176004114176077-000312     114176006001023608697GIFT-BAG 10X35CM GLOSS 0000001000+00001314+00000+0001T   00001314+0000001430          1400 KJ6112               2AZ
114176005114176566-000200     114176006003000384174STICKER PUFFY NEON     0000003000+00000876+00000+0001T   00000876+0000001430          1400 KJ6130               2AZ
114176006114176077-000303     114176006001023593757GIFT-BAG PAPER MED     0000003000+00001578+00000+0001T   00001578+0000001430          1400 KJ6112               2AZ
114176007114176018-000136     114176006001023659026MUG OCC LOVE W/PLUSH   0000003000+00003507+00000+0001T   00003507+0000001430          1400 KJ6515               2AZ
114176008114176362-000307     114176006003000519750HAIR HEADBAND PRINTED  0000001000+00001314+00000+0001T   00001314+0000001430          1400 KJ6160               2AZ
114176009114176112-116069     114176006009681820277TCS CARRIER BAG JUMBO  0000001000+00000048+00000+0001T   00000048+0000001430          1400 KJ6090               2AZ
114177000114177               114177               170213HK     1400+00000+HK0000006258+0000006258+000000000+000000878+0000007130+0000000006+I20000000000+0000007130+Z
114177001114177006-000805     114177000013994092418STREAMERS 10-ROLLS     0000003000+00001490+00000+0001T   00001490+0000001451          1400 KJ6131               2AZ
114177002114177019-071598     114177006001023693228PEBBLES GLS 250g WHITE 0000001000+00001753+00000+0001T   00001753+0000001451          1400 KJ6510               2AZ
114177003114177112-116038     114177006009681820246TCS CARRIER BAG MIDI   0000001000+00000035+00000+0001T   00000035+0000001451          1400 KJ6090               2AZ
114178000114178               114178               170213HK     1400+00000+HK0000001400+0000001400+000000000+000000196+0000001590+0000000006+I20000000000+0000001590+Z
114178001114178261-000121     114178006001023341600GUN-CAPS 8-SHOT CARD-9 0000002000+00000700+00000+0001T   00000700+0000001454          1400 KJ6710               2AZ
114179000114179               114179               170213HK     1400+00000+HK0000002627+0000002627+000000000+000000369+0000002990+0000000006+I20000000000+0000002990+Z
114179001114179077-000011-D   114179006001023808554TISSUE-WRAP WHITE 10PCE0000001000+00000876+00000+0001T   00000876+0000001456          1400 KJ6112               2AZ
114179002114179077-000470     114179006003000330171G-BAG DESGN SML 11X14CM0000001000+00001314+00000+0001T   00001314+0000001456          1400 KJ6112               2AZ
114179003114179080-000133     114179006003000535613CARD&ENV MINI ASTD DSGN0000001000+00000437+00000+0001T   00000437+0000001456          1400 KJ6112               2AZ
114180000114180               114180               170213HK     1400+00000+HK0000012059+0000012059+000000000+000001690+0000013740+0000000009+I20000000000+0000013740+Z
114180001114180018-030000     114180006003000421060MUG OCCASIONS LOVE 2PCE0000001000+00004385+00000+0001T   00004385+0000001502          1400 KJ6515               2AZ
114180002114180016-006509     114180006003000567355S/JAR GLS MINI LABEL   0000001000+00001753+00000+0001T   00002192+0008191502          1400 KJ6300               2AZ
114180003114180039-000108     114180006001023524034TEA-LITE CANDLES 8PCE  0000001000+00001490+00000+0001T   00001490+0000001502          1400 KJ6510               2AZ
114180004114180078-000025     114180008887013700064SUPERGLUE 3g 1PCE CARD 0000001000+00000876+00000+0001T   00000876+0000001502          1400 KJ6810               2AZ
114180005114180007-000325     114180006009698066514PAPER A4 160GSM 25SHTS 0000001000+00003507+00000+0001T   00003507+0000001502          1400 KJ6130               2AZ
114180006114180112-116069     114180006009681820277TCS CARRIER BAG JUMBO  0000001000+00000048+00000+0001T   00000048+0000001502          1400 KJ6090               2AZ
114181000114181               114181               170213HK     1400+00000+HK0000002630+0000002630+000000000+000000369+0000002999+0000000000+I40000002999+0000000000+Z
114181001114181085-007038     114181006001024039896P/KNIFE 8cm-BLD PL/GRIP0000001000+00002630+00000+0001T   00002630+0000001504          1400 KJ6305               2AZ
114182000114182               114182               170213HK     1400+00000+HK0000002366+0000002366+000000000+000000332+0000002690+0000000008+I20000000000+0000002690+Z
114182001114182077-000011-E   114182006001023808646TISSUE-WRAP PINK 10PCE 0000001000+00000876+00000+0001T   00000876+0000001514          1400 KJ6112               2AZ
114182002114182077-000399     114182006003000139514GIFT BAG 18X23CM E/DAY 0000001000+00001490+00000+0001T   00001490+0000001514          1400 KJ6112               2AZ
114183000114183               114183               170213HK     1400+00000+HK0000012327+0000012327+000000000+000001727+0000014054+0000000000+I40000014054+0000000000+Z
114183001114183031-001008     114183006003000406494P/FRAME COLLAGE PLASTIC0000001000+00012279+00000+0001T   00012279+0000001515          1400 KJ6510               2AZ
114183002114183112-116069     114183006009681820277TCS CARRIER BAG JUMBO  0000001000+00000048+00000+0001T   00000048+0000001515          1400 KJ6090               2AZ
114184000114184               114184               170213HK     1400+00000+HK0000005033+0000005033+000000000+000000705+0000005738+0000000000+I40000005738+0000000000+Z
114184001114184304-001011     114184006001023806727FLWR ROSE RED W/BEAR   0000001000+00000613+00000+0001T   00000788+0006471525          1400 KJ6510               2AZ
114184002114184030-000031-A   114184006003000457588PLAQUE W/WORDS ASSTD   0000001000+00004385+00000+0001T   00004823+0006471525          1400 KJ6505               2AZ
114184003114184112-116038     114184006009681820246TCS CARRIER BAG MIDI   0000001000+00000035+00000+0001T   00000035+0000001525          1400 KJ6090               2AZ
114185000114185               114185               170213HK     1400+00000+HK0000003675+0000003675+000000000+000000518+0000004193+0000000000+I40000004193+0000000000+Z
114185001114185903-000155     114185006009803374435SWT LOLLY I LUV U HEART0000007000+00000525+00000+0001T   00000525+0000001528          1400 KJ6150               2AZ
114186000114186               114186               170213HK     1400+00000+HK0000002366+0000002366+000000000+000000332+0000002690+0000000008+I20000000000+0000002690+Z
114186001114186077-000299     114186006003000395576G/BAG 32x25cm LRG LOVE 0000001000+00001490+00000+0001T   00001490+0000001531          1400 KJ6112               2AZ
114186002114186077-000011-C   114186006001023808523TISSUE 10xSHTS RED     0000001000+00000876+00000+0001T   00000876+0000001531          1400 KJ6112               2AZ
114187000114187               114187               170213HK     1400+00000+HK0000011401+0000011401+000000000+000001597+0000012990+0000000008+I20000000000+0000012990+Z
114187001114187368-000012     114187006003000610464PLUSH BEAR 30cm SITTING0000001000+00008771+00000+0001T   00008771+0000001622          1400 KJ6745               2AZ
114187002114187077-000270     114187006003000395453GIFT-BAG PPR JMB 33X45 0000001000+00002630+00000+0001T   00002630+0000001622          1400 KJ6112               2AZ
114188000114188               114188               170213HK     1400+00000+HK0000059797+0000059797+000000000+000008394+0000068191+0000000000+I40000068191+0000000000+Z
114188001114188018-005007     114188006003000515516MUG OCC. LOVE W/HEARTS 0000001000+00006139+00000+0001T   00006139+0000001650          1400 KJ6515               2AZ
114188002114188304-001204     114188006001023737984FLOWER OCC. TEDDY/ROSES0000019000+00001402+00000+0001T   00001490+0006471650          1400 KJ6510               2AZ
114188003114188304-001011     114188006001023806727FLWR ROSE RED W/BEAR   0000044000+00000613+00000+0001T   00000788+0006471650          1400 KJ6510               2AZ
114188004114188112-116069     114188006009681820277TCS CARRIER BAG JUMBO  0000001000+00000048+00000+0001T   00000048+0000001650          1400 KJ6090               2AZ
114189000114189               114189               170213HK     1400+00000+HK0000012323+0000012323+000000000+000001727+0000014050+0000000000+I40000014050+0000000000+Z
114189001114189001-000175     114189006001023788108B/MUG GLS LOVE 380ML   0000001000+00004385+00000+0001T   00004385+0000001652          1400 KJ6515               2AZ
114189002114189006-000323-D   114189006003000126248CONFETTI H/BIRTHDAY 3PK0000001000+00002630+00000+0001T   00002630+0000001652          1400 KJ6131               2AZ
114189003114189564-000017     114189006003000654468BUBBLE NOVELTY WAND 29 0000001000+00003507+00000+0001T   00003507+0000001652          1400 KJ6131               2AZ
114189004114189006-000092     114189006001023739650BANNER BIRTHDAY PAPER  0000001000+00001753+00000+0001T   00001753+0000001652          1400 KJ6131               2AZ
114189005114189112-116069     114189006009681820277TCS CARRIER BAG JUMBO  0000001000+00000048+00000+0001T   00000048+0000001652          1400 KJ6090               2AZ
114190000114190               114190               170213HK     1400+00000+HK0000003417+0000003417+000000000+000000480+0000003890+0000000007+I20000000000+0000003890+Z
114190001114190903-000087     114190006001704000161SWT SPECKLED-EGGS 50G  0000003000+00001139+00000+0001T   00001139+0000001653          1400 KJ6150               2AZ
114191000114191               114191               170213HK     1400+00000+HK0000002192+0000002192+000000000+000000307+0000002490+0000000009+I20000000000+0000002490+Z
114191001114191080-000127     114191006003000424351VALENTINES DAY 36x24CM 0000001000+00002192+00000+0001T   00002192+0000001654          1400 KJ6112               2AZ
114192000114192               114192               170213HK     1400+00000+HK0000013155+0000013155+000000000+000001843+0000014998+0000000000+I40000014998+0000000000+Z
114192001114192077-000290     114192006001023902023GIFT BOX 26x32x13cm    0000001000+00001753+00000+0001T   00001753+0000001723          1400 KJ6112               2AZ
114192002114192368-000637     114192006001023874092PLUSH BEAR SLEEPING LOV0000001000+00011402+00000+0001T   00012279+0006471723          1400 KJ6745               2AZ
114193000114193               114193               170213HK     1400+00000+HK0000004242+0000004242+000000000+000000595+0000004830+0000000007+I20000000000+0000004830+Z
114193001114193077-000011-C   114193006001023808523TISSUE 10xSHTS RED     0000001000+00000876+00000+0001T   00000876+0000001724          1400 KJ6112               2AZ
114193002114193027-000409     114193006001023731012SCRUBBING-BRUSH 15,5cm 0000001000+00001753+00000+0001T   00001753+0000001724          1400 KJ6212               2AZ
114193003114193077-000303     114193006001023593757GIFT-BAG PAPER MED     0000001000+00001578+00000+0001T   00001578+0000001724          1400 KJ6112               2AZ
114193004114193112-116038     114193006009681820246TCS CARRIER BAG MIDI   0000001000+00000035+00000+0001T   00000035+0000001724          1400 KJ6090               2AZ
114194000114194               114194               170213HK     1400+00000+HK0000001613+0000001613+000000000+000000226+0000001830+0000000009+I20000000000+0000001830+Z
114194001114194028-000799     114194006001023812186SKEWERS BAMBOO 100PCE  0000001000+00001578+00000+0001T   00001578+0000001812          1400 KJ6305               2AZ
114194002114194112-116038     114194006009681820246TCS CARRIER BAG MIDI   0000001000+00000035+00000+0001T   00000035+0000001812          1400 KJ6090               2AZ
114195000114195               114195               170213HK     1400+00000+HK0000000000+0000000000+000000000+000000000+0000000000+0000000000+I20000000000+0000000000+Z
114195001114195077-000315     114195006003000181186GIFT-BAG 20x28cm MATT  0000001000-00001578+00000+0001T   00001578+0000001814          1400 KJ61122IC            2AZ
114195002114195077-000315     114195006003000181186GIFT-BAG 20x28cm MATT  0000001000+00001578+00000+0001T   00001578+0000001814          1400 KJ61122IC            2 Z
114196000114196               114196               170213HK     1400+00000+HK0000001750+0000001750+000000000+000000246+0000001990+0000000006+I20000000000+0000001990+Z
114196001114196903-000126     114196006002099003591SWT ZILLIONS MINT 50G  0000001000+00000700+00000+0001T   00000700+0000001815          1400 KJ6150               2AZ
114196002114196903-000151     114196006009803374411SWT SML RND R/BOW LOLLY0000002000+00000525+00000+0001T   00000525+0000001815          1400 KJ6150               2AZ
114197000114197               114197               170213HK     1400+00000+HK0000001314+0000001314+000000000+000000184+0000001490+0000000008+I20000000000+0000001490+Z
114197001114197077-000310     114197006001023608635GIFT-BAG 18X23CM GLOSS 0000001000+00001314+00000+0001T   00001314+0000001817          1400 KJ6112               2AZ
114198000114198               114198               170213HK     1400+00000+HK0000010834+0000010834+000000000+000001518+0000012350+0000000002+I20000000000+0000012350+Z
114198001114198112-116069     114198006009681820277TCS CARRIER BAG JUMBO  0000001000+00000048+00000+0001T   00000048+0000001823          1400 KJ6090               2AZ
114198002114198018-000170     114198006001023775528MUG OCC. LOVE 2PC MINI 0000001000+00002192+00000+0001T   00002192+0000001823          1400 KJ6515               2AZ
114198003114198077-000303     114198006001023593757GIFT-BAG PAPER MED     0000001000+00001578+00000+0001T   00001578+0000001823          1400 KJ6112               2AZ
114198004114198562-006275     114198006001023836182EDU BOARD W/MARKER ASST0000001000+00007016+00000+0001T   00007016+0000001823          1400 KJ6755               2AZ
114199000114199               114199               170213HK     1400+00000+HK0000005867-0000005867-000000000+000000823-0000006690-0000000000+I20000000000+0000006690-Z
114199001114199001-999906     114199000000000999906STATIONERY(PHOTOCOPIES)0000001000-00004552+00000+0001T   00000000+0000001914          1400 KJ69061IC            2 Z
114199002114199001-999906     114199000000000999906STATIONERY(PHOTOCOPIES)0000001000-00001315+00000+0001T   00000000+0000001914          1400 KJ69061IC            2 Z
A17021300                                          08584599HKSLAVE 2                       MY51IC
A17021301                                          15502063HKSLAVE 2                       KJ63IC
M17021302                              IT DEPT     HKATT;IT DEPT                                     RE;LAST CASH SLIP NO FOR                        SLAVE 2 114198                                  THANKS HK
M17021391                              CASH        HKSLAVE 2                       Z-REPORT No.   647TOTAL (Sales - Refunds)           5041.46       CASH TO BE BANKED                 1612.90       DEBIT CARDS                          0.00       CREDIT CARDS                      3361.66       Z-READING                         4974.56       AIRTIME DEBIT CARD SALES             0.00       AIRTIME CARD SALES                   0.00       OVERS/UNDERS                         0.00       AIRTIME CASH SALES                   0.00       GIFT CARDS                           0.00       GIFT CARD CASH SALES                 0.00       STATIONERY(PHOTOCOPIES)             66.90       T O T A L  CASH PAYOUTS             66.90                                                                                                                                                                                                                                                                                                      Z
M17021392                              CASH        HKABSENT                                                                                                                                                                                          ANNUAL LEAVE                                                                                                                                                                                    DAY OFF                                                                                                                                                                                         COMMENTS                                                                                                                                                                                                                                                                                                                                                                                       Z
Y17021300                                          HK00000000443998+000062
ZHK17021319473 SLAVE 2      SALES DATA                     NEXT INVOICE NO.  114200 0647
X HK Slave 2 First invoice 114137 170213 Last invoice 114199 170213 Next invoice 114200 Total number of records 000000227 clbackup completed 19:47:31
