134867000134867               134867               170213HK     1400+00000+HK0000160027+0000160027+000000000+000022434+0000182461+           I00000000000+0000000000+Z
134867001134867019-000080     134867006001023775740VASE GLS FLORIST BALL  0000001000+00008771+00000+0001T                                1400 1IC5101ICD             Z
134867002134867039-000330     134867006003000283002BDAY-CANDLES+HLDERS 24P0000001000+00003507+00000+0001T                                1400 1IC5101ICD             Z
134867003134867903-000211     134867006002099001238SWT GS MALLOW ICE CREAM0000001000+00001753+00000+0001T                                1400 1IC1501ICD             Z
134867004134867366-002803     134867006003000531875DRESS UP POMPOM 2PC SET0000001000+00003507+00000+0001T                                1400 1IC1311ICD             Z
134867005134867077-000301     134867008010410010188BAG LRG 25X32CM B/DAY  0000001000+00001753+00000+0001T                                1400 1IC1121ICD             Z
134867006134867105-007580     134867008696287301729STORAGE BOX CLEAR DEPO 0000001000+00006139+00000+0001T                                1400 1IC2101ICD             Z
134867007134867077-000250     134867006003000541997CONFETTI TABLE DECOR   0000001000+00001753+00000+0001T                                1400 1IC1121ICD             Z
134867008134867105-008005     134867006002580009484STORAGE CONTAINER 7.5L 0000001000+00004385+00000+0001T                                1400 1IC2101ICD             Z
134867009134867301-086009     134867006001023805454ORN SENT. PLATE ON STND0000002000+00007016+00000+0001T                                1400 1IC5051ICD             Z
134867010134867903-000614     134867006003000617333SWT PLIERS TWISTER 17cm0000002000+00001753+00000+0001T                                1400 1IC1501ICD             Z
134867011134867031-000849     134867006001023851932P/FRM COLLAGE 3-HOLE   0000001000+00004385+00000+0001T                                1400 1IC5101ICD             Z
134867012134867366-000301     134867006003000421077DRESSUP TIARA & EARRING0000001000+00003507+00000+0001T                                1400 1IC1311ICD             Z
134867013134867031-000860-A   134867006001023798176P/FRAME PL ANTIQUE-BLK 0000001000+00003507+00000+0001T                                1400 1IC5101ICD             Z
134867014134867071-000212     134867006009608641190CHALK WHITE 12PCE      0000001000+00000437+00000+0001T                                1400 1IC1301ICD             Z
134867015134867903-000095     134867006001704011495SWT SPECKLED-EGGS 100G 0000001000+00002104+00000+0001T                                1400 1IC1501ICD             Z
134867016134867903-000087     134867006001704000161SWT SPECKLED-EGGS 50G  0000003000+00001139+00000+0001T                                1400 1IC1501ICD             Z
134867017134867903-004950     134867006002580020304SWT APRICOT SURPRISE   0000001000+00001314+00000+0001T                                1400 1IC1501ICD             Z
134867018134867019-000070     134867006003000297474VASE GLS CLEAR BOTTLE  0000001000+00004385+00000+0001T                                1400 1IC5101ICD             Z
134867019134867019-000087     134867006001023797223VASE GLASS FOOTED ASSTD0000001000+00008771+00000+0001T                                1400 1IC5101ICD             Z
134867020134867079-012208     134867006001023801081ART + CRAFT SET STAMP  0000001000+00003507+00000+0001T                                1400 1IC1301ICD             Z
134867021134867019-000079     134867006001023775726VASE 30cm CRACK-DESIGN 0000001000+00012279+00000+0001T                                1400 1IC5101ICD             Z
134867022134867903-000090     134867006009826020821SWT GS CHOCO COINS 60g 0000007000+00002104+00000+0001T                                1400 1IC1501ICD             Z
134867023134867159-000043-H   134867006001023416629HOOKS ADHESIVE 3PCE SQR0000001000+00001139+00000+0001T                                1400 1IC2001ICD             Z
134867024134867039-000318     134867006003000406159B/DAY CANDLES SMALL NO 0000001000+00001753+00000+0001T                                1400 1IC5101ICD             Z
134867025134867089-000100     134867006003000565665K/CHAIN PET LOVERS     0000001000+00002630+00000+0001T                                1400 1IC2051ICD             Z
134867026134867565-000888     134867006003000607846NOVELTY MESH BALL      0000001000+00001753+00000+0001T                                1400 1IC7451ICD             Z
134867027134867071-001239     134867006001023762672ERASER PL ASSTD-COLOURS0000001000+00000876+00000+0001T                                1400 1IC1301ICD             Z
134867028134867079-000510     134867006001023509079CRAYONS WAX 12-COLOUR  0000001000+00002455+00000+0001T                                1400 1IC1301ICD             Z
134867029134867012-000005     134867006003000328963M/WVE POTATO COOKER    0000001000+00004385+00000+0001T                                1400 1IC3001ICD             Z
134867030134867009-001904     134867006001023897558MELAMINE PLATE 25cm    0000001000+00001753+00000+0001T                                1400 1IC2101ICD             Z
134867031134867039-000322     134867006001023524157B/CANDLES W/HOLDERS 24 0000001000+00001139+00000+0001T                                1400 1IC5101ICD             Z
134867032134867108-009020-B   134867006005387000067SALAD SML W/LID ASSTD-C0000003000+00001314+00000+0001T                                1400 1IC2101ICD             Z
134867033134867015-000200     134867006003000334223CAKE-STAND GLS 23x9cm  0000001000+00004385+00000+0001T                                1400 1IC5151ICD             Z
134867034134867009-001300     134867006003000135059MELAMINE MUG 250ml     0000001000+00001753+00000+0001T                                1400 1IC2101ICD             Z
134867035134867304-001512     134867006003000036202FLOWER S/FLOWER 65CM   0000002000+00001753+00000+0001T                                1400 1IC5101ICD             Z
134867036134867301-085006     134867006001023502940ORN LOVE MSG TUBE W/HRT0000001000+00001753+00000+0001T                                1400 1IC5051ICD             Z
134867037134867040-000207     134867006003000673636C/HOLDER GLS COL. 9CM  0000001000+00001753+00000+0001T                                1400 1IC5101ICD             Z
134867038134867006-000172-G   134867006003000610167BALLOONS METALLIC SILV 0000001000+00000218+00000+0001T                                1400 1IC1311ICD             Z
134867039134867006-001000     134867006003000093779HELIUM BALLOON FILL    0000001000+00000613+00000+0001T                                1400 1IC1311ICD             Z
134867040134867006-000172-G   134867006003000610167BALLOONS METALLIC SILV 0000001000+00000218+00000+0001T                                1400 1IC1311ICD             Z
134867041134867006-000172-H   134867006003000610211BALLOONS METALLIC RED  0000003000+00000218+00000+0001T                                1400 1IC1311ICD             Z
134867042134867006-001000     134867006003000093779HELIUM BALLOON FILL    0000003000+00000613+00000+0001T                                1400 1IC1311ICD             Z
134867043134867006-000170-B   134867006003000608300BALLOONS 1PC L/GREEN   0000002000+00000218+00000+0001T                                1400 1IC1311ICD             Z
134867044134867006-001000     134867006003000093779HELIUM BALLOON FILL    0000002000+00000613+00000+0001T                                1400 1IC1311ICD             Z
134867045134867006-000173-D   134867006003000636631BALLOONS 1PC BLUE      0000001000+00000218+00000+0001T                                1400 1IC1311ICD             Z
134867046134867006-001000     134867006003000093779HELIUM BALLOON FILL    0000001000+00000613+00000+0001T                                1400 1IC1311ICD             Z
134867047134867006-000170-K   134867006003000609284BALLOONS 1PC PURPLE    0000002000+00000218+00000+0001T                                1400 1IC1311ICD             Z
134867048134867006-001000     134867006003000093779HELIUM BALLOON FILL    0000002000+00000613+00000+0001T                                1400 1IC1311ICD             Z
134867049134867006-000172-A   134867006003000609765BALLOONS METALLIC PINK 0000001000+00000218+00000+0001T                                1400 1IC1311ICD             Z
134867050134867006-001000     134867006003000093779HELIUM BALLOON FILL    0000001000+00000613+00000+0001T                                1400 1IC1311ICD             Z
134867051134867006-000171-H   134867006003000609574BALLOONS 1PC RED PRINT 0000003000+00000218+00000+0001T                                1400 1IC1311ICD             Z
134867052134867006-001000     134867006003000093779HELIUM BALLOON FILL    0000003000+00000613+00000+0001T                                1400 1IC1311ICD             Z
134867053134867006-000170-L   134867006003000637614BALLOONS 1PC ROYAL BLUE0000001000+00000218+00000+0001T                                1400 1IC1311ICD             Z
134867054134867006-001000     134867006003000093779HELIUM BALLOON FILL    0000001000+00000613+00000+0001T                                1400 1IC1311ICD             Z
134867055134867077-000239     134867006003000160419GIFT-RIBBON ROLL PEARL 0000001000+00001753+00000+0001T                                1400 1IC1121ICD             Z
134868000134868               134868               170213HK     1400+00000+HK0000106101+0000106101+000000000+000014865+0000120966+           I90000000000+0000000000+Z
134868001134868159-000647     134868006001023995551BRISTLE-BRUSH WDN HNDLE0000001000+00004823+00000+0001T032446320000                    1400 1IC2001ICV             Z
134868002134868050-000880-Z   134868006003000528110PADLOCK COMBO BRS 4 WHL0000001000+00004385+00000+0001T032446320000                    1400 1IC8551ICV             Z
134868003134868024-000020     134868006003000108640ICING-SET PL S/S NOZZLE0000001000+00007455+00000+0001T032446320000                    1400 1IC3001ICV             Z
134868004134868049-004579     134868006002868010027DOORMAT COIR  40X60cm  0000001000-00012279+00000+0001T032446320000                    1400 1IC5101ICV             Z
134868005134868049-004579     134868006002868010027DOORMAT COIR  40X60cm  0000001000+00012279+00000+0001T032446320000                    1400 1IC5101ICV             Z
134868006134868486-002065     134868006003000057030C/ALARM QTZ PL SQUARE  0000001000+00006578+00000+0001T032446320000                    1400 1IC5101ICV             Z
134868007134868024-000019     134868006001023822277HILLHOUSE ICING-SET    0000001000+00005262+00000+0001T032446320000                    1400 1IC3001ICV             Z
134868008134868034-000830     134868006001023480750BABY-BOTTLE 250ml      0000001000+00002630+00000+0001T032446320000                    1400 1IC2151ICV             Z
134868009134868065-006067     134868006003000467266WDN TAMBOURINE 18cm    0000001000+00005262+00000+0001T032446320000                    1400 1IC7451ICV             Z
134868010134868065-006070     134868006003000465897WOODEN DRUM ASSTD DESGN0000001000+00006139+00000+0001T032446320000                    1400 1IC7451ICV             Z
134868011134868174-000174     134868006003000511105STORAGE BOX NON-WOVEN  0000001000+00001753+00000+0001T032446320000                    1400 1IC2051ICV             Z
134868012134868002-000652     134868006001023553188M/SPOON WDN 3PC H/HOUSE0000001000+00003069+00000+0001T032446320000                    1400 1IC3001ICV             Z
134868013134868075-000400     134868006003000675708HANDBAG ASST 50x37x17cm0000001000+00003946+00000+0001T032446320000                    1400 1IC1601ICV             Z
134868014134868046-002013-PK6 134868004897006174851BATTERY BUTTON AG13 6PC0000001000+00001753+00000+0001T032446320000                    1400 1IC3121ICV             Z
134868015134868585-000027     134868006003000088409C/PHN POUCH MAG. CLIP  0000002000+00001314+00000+0001T032446320000                    1400 1IC3101ICV             Z
134868016134868075-000326     134868006003000506972WALLET LEATHER-LOOK ASS0000001000+00004385+00000+0001T032446320000                    1400 1IC1601ICV             Z
134868017134868563-000317-B   134868006001023776174SERVIETTES PLN WHT PK400000001000+00001314+00000+0001T032446320000                    1400 1IC2141ICV             Z
134868018134868046-002023-C   134868006001023698254BATTERIES ALKALN CARD-50000001000+00005700+00000+0001T032446320000                    1400 1IC3121ICV             Z
134868019134868049-001820     134868006003000019311DOORMAT RUBBER MOULDED 0000001000+00007893+00000+0001T032446320000                    1400 1IC5101ICV             Z
134868020134868103-000473     134868006003000631087BAMBOO FLOWER BASKET   0000001000+00003946+00000+0001T032446320000                    1400 1IC3001ICV             Z
134868021134868079-006518     134868006003000647378ART+CRAFT FABRIC MARKER0000001000+00003069+00000+0001T032446320000                    1400 1IC1301ICV             Z
134868022134868565-000876     134868006003000305759NOVELTY FUNKY SUNGLASS 0000001000+00003507+00000+0001T032446320000                    1400 1IC7451ICV             Z
134868023134868077-000011-L   134868006001023808585P/TISSUE BRIGHT 10SHEET0000001000+00000876+00000+0001T032446320000                    1400 1IC1121ICV             Z
134868024134868174-000010     134868006001023462381W/MACHINE-BAG 25x40cm  0000003000+00001753+00000+0001T032446320000                    1400 1IC2051ICV             Z
134868025134868046-000014-A   134868004897006177708BATTERIES SIZE:AAA 8PCE0000001000+00001753+00000+0001T032446320000                    1400 1IC3121ICV             Z
134868026134868002-011118     134868006003000237807E/CUPS 4PC PL W/SPOONS 0000001000+00001314+00000+0001T032446320000                    1400 1IC3001ICV             Z
134868027134868261-003817     134868006001023536532GUN RIFLE WITH ROCKET  0000001000+00011402+00000+0001T032446320000                    1400 1IC7101ICV             Z
134869000134869               134869               170213HK     1400+00000+HK0000049537+0000049537+000000000+000006938+0000056475+           I00000000000+0000000000+Z
134869001134869077-000922     134869006003000413935G/WRAP 700mmx2m FLOWER 0000006000+00002192+00000+0001T                                1400 1IC1121ICD             Z
134869002134869077-000900     134869006003000410446G/WRAP 700mmx1m ANIMAL 0000001000+00001753+00000+0001T                                1400 1IC1121ICD             Z
134869003134869077-000924     134869006003000414055G/WRAP 700mmx2m WEDDING0000004000+00002192+00000+0001T                                1400 1IC1121ICD             Z
134869004134869077-000918     134869006003000413690G/WRAP 700mmx2m PATTERN0000002000+00002192+00000+0001T                                1400 1IC1121ICD             Z
134869005134869077-000926     134869006003000414178G/WRAP 700mmx2m LOVE   0000001000+00002192+00000+0001T                                1400 1IC1121ICD             Z
134869006134869077-000934     134869006003000409921G/WRAP 700mmx5m BIRTHDA0000002000+00003507+00000+0001T                                1400 1IC1121ICD             Z
134869007134869077-000116     134869006003000240777GIFT-WRAP 700mmx2m COL 0000001000+00001753+00000+0001T                                1400 1IC1121ICD             Z
134869008134869077-000932     134869006003000409808G/WRAP 700mmx5m PATTERN0000003000+00003507+00000+0001T                                1400 1IC1121ICD             Z
M17021304                              IT DEPT     HKATT;IT DEPT                                     DID USE SLAVE 4                                 THANKS HK
M17021391                              CASH        HKSLAVE 4                       Z-REPORT No.   508TOTAL (Sales - Refunds)              0.00       CASH TO BE BANKED                    0.00       DEBIT CARDS                          0.00       CREDIT CARDS                         0.00       Z-READING                            0.00       AIRTIME DEBIT CARD SALES             0.00       AIRTIME CARD SALES                   0.00       OVERS/UNDERS                         0.00       AIRTIME CASH SALES                   0.00       GIFT CARDS                           0.00       GIFT CARD CASH SALES                 0.00       T O T A L  CASH PAYOUTS              0.00                                                                                                                                                                                                                                                                                                                                                      Z
M17021392                              CASH        HKABSENT                                                                                                                                                                                          ANNUAL LEAVE                                                                                                                                                                                    DAY OFF                                                                                                                                                                                         COMMENTS                                                                                                                                                                                                                                                                                                                                                                                       Z
Y17021300                                          HK00000000000000+000000
ZHK17021408523 SLAVE 4      SALES DATA                     NEXT INVOICE NO.  134870 0508
L50106700355353-001-001       HK1702131141122ICKGOMOTSO MATLOU                                                                                                                                                                                                                                                                                                                                                                                                                                                                                                                                                                                                                                                                                                                                                                                                                                                                                                                                                                                      Z
L54888900355545-001-001       HK1702131148222ICKGOMOTSO MATLOU                                                                                                                                                                                                                                                                                                                                                                                                                                                                                                                                                                                                                                                                                                                                                                                                                                                                                                                                                                                      Z
L54893700355401-001-001       HK1702131146112ICKGOMOTSO MATLOU                                                                                                                                                                                                                                                                                                                                                                                                                                                                                                                                                                                                                                                                                                                                                                                                                                                                                                                                                                                      Z
L54898500338536-001-003       HK1702131140032ICKGOMOTSO MATLOU                                                                                                                                                                                                                                                                                                                                                                                                                                                                                                                                                                                                                                                                                                                                                                                                                                                                                                                                                                                      Z
L54898500338536-002-003       HK1702131149432ICKGOMOTSO MATLOU                                                                                                                                                                                                                                                                                                                                                                                                                                                                                                                                                                                                                                                                                                                                                                                                                                                                                                                                                                                      Z
L54898500338536-003-003       HK1702131200092ICKGOMOTSO MATLOU                                                                                                                                                                                                                                                                                                                                                                                                                                                                                                                                                                                                                                                                                                                                                                                                                                                                                                                                                                                      Z
L54908000355286-001-002       HK1702131145212ICKGOMOTSO MATLOU                                                                                                                                                                                                                                                                                                                                                                                                                                                                                                                                                                                                                                                                                                                                                                                                                                                                                                                                                                                      Z
L54908000355286-002-002       HK1702131200032ICKGOMOTSO MATLOU                                                                                                                                                                                                                                                                                                                                                                                                                                                                                                                                                                                                                                                                                                                                                                                                                                                                                                                                                                                      Z
L54912800358026-001-002       HK1702131208552ICKGOMOTSO MATLOU                                                                                                                                                                                                                                                                                                                                                                                                                                                                                                                                                                                                                                                                                                                                                                                                                                                                                                                                                                                      Z
L54912800358026-002-002       HK1702131200572ICKGOMOTSO MATLOU                                                                                                                                                                                                                                                                                                                                                                                                                                                                                                                                                                                                                                                                                                                                                                                                                                                                                                                                                                                      Z
L55350700338301-001-003       HK1702131157242ICKGOMOTSO MATLOU                                                                                                                                                                                                                                                                                                                                                                                                                                                                                                                                                                                                                                                                                                                                                                                                                                                                                                                                                                                      Z
L55350700338301-002-003       HK1702131144302ICKGOMOTSO MATLOU                                                                                                                                                                                                                                                                                                                                                                                                                                                                                                                                                                                                                                                                                                                                                                                                                                                                                                                                                                                      Z
L55350700338301-003-003       HK1702131146042ICKGOMOTSO MATLOU                                                                                                                                                                                                                                                                                                                                                                                                                                                                                                                                                                                                                                                                                                                                                                                                                                                                                                                                                                                      Z
L55455400338812-001-003       HK1702131204442ICKGOMOTSO MATLOU                                                                                                                                                                                                                                                                                                                                                                                                                                                                                                                                                                                                                                                                                                                                                                                                                                                                                                                                                                                      Z
L55455400338812-002-003       HK1702131157542ICKGOMOTSO MATLOU                                                                                                                                                                                                                                                                                                                                                                                                                                                                                                                                                                                                                                                                                                                                                                                                                                                                                                                                                                                      Z
L55455400338812-003-003       HK1702131207522ICKGOMOTSO MATLOU                                                                                                                                                                                                                                                                                                                                                                                                                                                                                                                                                                                                                                                                                                                                                                                                                                                                                                                                                                                      Z
L55477800337647-001-001       HK1702131158212ICKGOMOTSO MATLOU                                                                                                                                                                                                                                                                                                                                                                                                                                                                                                                                                                                                                                                                                                                                                                                                                                                                                                                                                                                      Z
L55495600337688-001-001       HK1702131143222ICKGOMOTSO MATLOU                                                                                                                                                                                                                                                                                                                                                                                                                                                                                                                                                                                                                                                                                                                                                                                                                                                                                                                                                                                      Z
L55499700338721-001-001       HK1702131205482ICKGOMOTSO MATLOU                                                                                                                                                                                                                                                                                                                                                                                                                                                                                                                                                                                                                                                                                                                                                                                                                                                                                                                                                                                      Z
L55503700338679-001-001       HK1702131145122ICKGOMOTSO MATLOU                                                                                                                                                                                                                                                                                                                                                                                                                                                                                                                                                                                                                                                                                                                                                                                                                                                                                                                                                                                      Z
L55507800339553-001-003       HK1702131154222ICKGOMOTSO MATLOU                                                                                                                                                                                                                                                                                                                                                                                                                                                                                                                                                                                                                                                                                                                                                                                                                                                                                                                                                                                      Z
L55507800339553-002-003       HK1702131155242ICKGOMOTSO MATLOU                                                                                                                                                                                                                                                                                                                                                                                                                                                                                                                                                                                                                                                                                                                                                                                                                                                                                                                                                                                      Z
L55507800339553-003-003       HK1702131147132ICKGOMOTSO MATLOU                                                                                                                                                                                                                                                                                                                                                                                                                                                                                                                                                                                                                                                                                                                                                                                                                                                                                                                                                                                      Z
L56406700342121-001-002       HK1702131140162ICKGOMOTSO MATLOU                                                                                                                                                                                                                                                                                                                                                                                                                                                                                                                                                                                                                                                                                                                                                                                                                                                                                                                                                                                      Z
L56406700342121-002-002       HK1702131149522ICKGOMOTSO MATLOU                                                                                                                                                                                                                                                                                                                                                                                                                                                                                                                                                                                                                                                                                                                                                                                                                                                                                                                                                                                      Z
L57300100359091-001-002       HK1702131205332ICKGOMOTSO MATLOU                                                                                                                                                                                                                                                                                                                                                                                                                                                                                                                                                                                                                                                                                                                                                                                                                                                                                                                                                                                      Z
L57300100359091-002-002       HK1702131156412ICKGOMOTSO MATLOU                                                                                                                                                                                                                                                                                                                                                                                                                                                                                                                                                                                                                                                                                                                                                                                                                                                                                                                                                                                      Z
L57374600354065-001-003       HK1702131155022ICKGOMOTSO MATLOU                                                                                                                                                                                                                                                                                                                                                                                                                                                                                                                                                                                                                                                                                                                                                                                                                                                                                                                                                                                      Z
L57374600354065-002-003       HK1702131157412ICKGOMOTSO MATLOU                                                                                                                                                                                                                                                                                                                                                                                                                                                                                                                                                                                                                                                                                                                                                                                                                                                                                                                                                                                      Z
L57374600354065-003-003       HK1702131206572ICKGOMOTSO MATLOU                                                                                                                                                                                                                                                                                                                                                                                                                                                                                                                                                                                                                                                                                                                                                                                                                                                                                                                                                                                      Z
L57571200360550-001-005       HK1702131206032ICKGOMOTSO MATLOU                                                                                                                                                                                                                                                                                                                                                                                                                                                                                                                                                                                                                                                                                                                                                                                                                                                                                                                                                                                      Z
L57571200360550-002-005       HK1702131157082ICKGOMOTSO MATLOU                                                                                                                                                                                                                                                                                                                                                                                                                                                                                                                                                                                                                                                                                                                                                                                                                                                                                                                                                                                      Z
L57571200360550-003-005       HK1702131156542ICKGOMOTSO MATLOU                                                                                                                                                                                                                                                                                                                                                                                                                                                                                                                                                                                                                                                                                                                                                                                                                                                                                                                                                                                      Z
L57571200360550-004-005       HK1702131158372ICKGOMOTSO MATLOU                                                                                                                                                                                                                                                                                                                                                                                                                                                                                                                                                                                                                                                                                                                                                                                                                                                                                                                                                                                      Z
L57571200360550-005-005       HK1702131143302ICKGOMOTSO MATLOU                                                                                                                                                                                                                                                                                                                                                                                                                                                                                                                                                                                                                                                                                                                                                                                                                                                                                                                                                                                      Z
L57819200355882-002-003       HK1702131159592ICKGOMOTSO MATLOU                                                                                                                                                                                                                                                                                                                                                                                                                                                                                                                                                                                                                                                                                                                                                                                                                                                                                                                                                                                      Z
L57819200355882-003-003       HK1702131204112ICKGOMOTSO MATLOU                                                                                                                                                                                                                                                                                                                                                                                                                                                                                                                                                                                                                                                                                                                                                                                                                                                                                                                                                                                      Z
L57824300358878-001-001       HK1702131158062ICKGOMOTSO MATLOU                                                                                                                                                                                                                                                                                                                                                                                                                                                                                                                                                                                                                                                                                                                                                                                                                                                                                                                                                                                      Z
L57829100356741-001-003       HK1702131217322ICKGOMOTSO MATLOU                                                                                                                                                                                                                                                                                                                                                                                                                                                                                                                                                                                                                                                                                                                                                                                                                                                                                                                                                                                      Z
L57829100356741-002-003       HK1702131144122ICKGOMOTSO MATLOU                                                                                                                                                                                                                                                                                                                                                                                                                                                                                                                                                                                                                                                                                                                                                                                                                                                                                                                                                                                      Z
L57829100356741-003-003       HK1702131144242ICKGOMOTSO MATLOU                                                                                                                                                                                                                                                                                                                                                                                                                                                                                                                                                                                                                                                                                                                                                                                                                                                                                                                                                                                      Z
L58229100356281-001-002       HK1702131206232ICKGOMOTSO MATLOU                                                                                                                                                                                                                                                                                                                                                                                                                                                                                                                                                                                                                                                                                                                                                                                                                                                                                                                                                                                      Z
L58229100356281-002-002       HK1702131208122ICKGOMOTSO MATLOU                                                                                                                                                                                                                                                                                                                                                                                                                                                                                                                                                                                                                                                                                                                                                                                                                                                                                                                                                                                      Z
L58239800354400-001-003       HK1702131205062ICKGOMOTSO MATLOU                                                                                                                                                                                                                                                                                                                                                                                                                                                                                                                                                                                                                                                                                                                                                                                                                                                                                                                                                                                      Z
L58239800354400-002-003       HK1702131141032ICKGOMOTSO MATLOU                                                                                                                                                                                                                                                                                                                                                                                                                                                                                                                                                                                                                                                                                                                                                                                                                                                                                                                                                                                      Z
L58239800354400-003-003       HK1702131208332ICKGOMOTSO MATLOU                                                                                                                                                                                                                                                                                                                                                                                                                                                                                                                                                                                                                                                                                                                                                                                                                                                                                                                                                                                      Z
L58292900356566-001-002       HK1702131159222ICKGOMOTSO MATLOU                                                                                                                                                                                                                                                                                                                                                                                                                                                                                                                                                                                                                                                                                                                                                                                                                                                                                                                                                                                      Z
L58292900356566-002-002       HK1702131140082ICKGOMOTSO MATLOU                                                                                                                                                                                                                                                                                                                                                                                                                                                                                                                                                                                                                                                                                                                                                                                                                                                                                                                                                                                      Z
L58297700356228-001-001       HK1702131142112ICKGOMOTSO MATLOU                                                                                                                                                                                                                                                                                                                                                                                                                                                                                                                                                                                                                                                                                                                                                                                                                                                                                                                                                                                      Z
L58302700356784-001-004       HK1702131207212ICKGOMOTSO MATLOU                                                                                                                                                                                                                                                                                                                                                                                                                                                                                                                                                                                                                                                                                                                                                                                                                                                                                                                                                                                      Z
L58302700356784-002-004       HK1702131148312ICKGOMOTSO MATLOU                                                                                                                                                                                                                                                                                                                                                                                                                                                                                                                                                                                                                                                                                                                                                                                                                                                                                                                                                                                      Z
L58302700356784-003-004       HK1702131204502ICKGOMOTSO MATLOU                                                                                                                                                                                                                                                                                                                                                                                                                                                                                                                                                                                                                                                                                                                                                                                                                                                                                                                                                                                      Z
L58302700356784-004-004       HK1702131159502ICKGOMOTSO MATLOU                                                                                                                                                                                                                                                                                                                                                                                                                                                                                                                                                                                                                                                                                                                                                                                                                                                                                                                                                                                      Z
L58384100354324-001-001       HK1702131147112ICKGOMOTSO MATLOU                                                                                                                                                                                                                                                                                                                                                                                                                                                                                                                                                                                                                                                                                                                                                                                                                                                                                                                                                                                      Z
L58394700353504-001-001       HK1702131155102ICKGOMOTSO MATLOU                                                                                                                                                                                                                                                                                                                                                                                                                                                                                                                                                                                                                                                                                                                                                                                                                                                                                                                                                                                      Z
L58421000359807-001-002       HK1702131156102ICKGOMOTSO MATLOU                                                                                                                                                                                                                                                                                                                                                                                                                                                                                                                                                                                                                                                                                                                                                                                                                                                                                                                                                                                      Z
L58421000359807-002-002       HK1702131142332ICKGOMOTSO MATLOU                                                                                                                                                                                                                                                                                                                                                                                                                                                                                                                                                                                                                                                                                                                                                                                                                                                                                                                                                                                      Z
L59309300360283-001-002       HK1702131142032ICKGOMOTSO MATLOU                                                                                                                                                                                                                                                                                                                                                                                                                                                                                                                                                                                                                                                                                                                                                                                                                                                                                                                                                                                      Z
L59309300360283-002-002       HK1702131140262ICKGOMOTSO MATLOU                                                                                                                                                                                                                                                                                                                                                                                                                                                                                                                                                                                                                                                                                                                                                                                                                                                                                                                                                                                      Z
V50106700000283-002-002       HK1702131140262ICKGOM               000000000000000170213000000   SLAVE 4     000000000000355353               01
V54888900000283-002-002       HK1702131140262ICKGOM               000000000000000170213000000   SLAVE 4     000000000000355545               01
V54893700000283-002-002       HK1702131140262ICKGOM               000000000000000170213000000   SLAVE 4     000000000000355401               01
V54898500000283-002-002       HK1702131140262ICKGOM               000000000000000170213000000   SLAVE 4     000000000000338536               03
V54908000000283-002-002       HK1702131140262ICKGOM               000000000000000170213000000   SLAVE 4     000000000000355286               02
V54912800000283-002-002       HK1702131140262ICKGOM               000000000000000170213000000   SLAVE 4     000000000000358026               02
V55350700000283-002-002       HK1702131140262ICKGOM               000000000000000170213000000   SLAVE 4     000000000000338301               03
V55455400000283-002-002       HK1702131140262ICKGOM               000000000000000170213000000   SLAVE 4     000000000000338812               03
V55477800000283-002-002       HK1702131140262ICKGOM               000000000000000170213000000   SLAVE 4     000000000000337647               01
V55495600000283-002-002       HK1702131140262ICKGOM               000000000000000170213000000   SLAVE 4     000000000000337688               01
V55499700000283-002-002       HK1702131140262ICKGOM               000000000000000170213000000   SLAVE 4     000000000000338721               01
V55503700000283-002-002       HK1702131140262ICKGOM               000000000000000170213000000   SLAVE 4     000000000000338679               01
V55507800000283-002-002       HK1702131140262ICKGOM               000000000000000170213000000   SLAVE 4     000000000000339553               03
V56406700000283-002-002       HK1702131140262ICKGOM               000000000000000170213000000   SLAVE 4     000000000000342121               02
V57300100000283-002-002       HK1702131140262ICKGOM               000000000000000170213000000   SLAVE 4     000000000000359091               02
V57374600000283-002-002       HK1702131140262ICKGOM               000000000000000170213000000   SLAVE 4     000000000000354065               03
V57571200000283-002-002       HK1702131140262ICKGOM               000000000000000170213000000   SLAVE 4     000000000000360550               05
V57819200000283-002-002       HK1702131140262ICKGOM               000000000000000170213000000   SLAVE 4     000000000000355882               03
V57824300000283-002-002       HK1702131140262ICKGOM               000000000000000170213000000   SLAVE 4     000000000000358878               01
V57829100000283-002-002       HK1702131140262ICKGOM               000000000000000170213000000   SLAVE 4     000000000000356741               03
V58229100000283-002-002       HK1702131140262ICKGOM               000000000000000170213000000   SLAVE 4     000000000000356281               02
V58239800000283-002-002       HK1702131140262ICKGOM               000000000000000170213000000   SLAVE 4     000000000000354400               03
V58292900000283-002-002       HK1702131140262ICKGOM               000000000000000170213000000   SLAVE 4     000000000000356566               02
V58297700000283-002-002       HK1702131140262ICKGOM               000000000000000170213000000   SLAVE 4     000000000000356228               01
V58302700000283-002-002       HK1702131140262ICKGOM               000000000000000170213000000   SLAVE 4     000000000000356784               04
V58384100000283-002-002       HK1702131140262ICKGOM               000000000000000170213000000   SLAVE 4     000000000000354324               01
V58394700000283-002-002       HK1702131140262ICKGOM               000000000000000170213000000   SLAVE 4     000000000000353504               01
V58421000000283-002-002       HK1702131140262ICKGOM               000000000000000170213000000   SLAVE 4     000000000000359807               02
V59309300000283-002-002       HK1702131140262ICKGOM               000000000000000170213000000   SLAVE 4     000000000000360283               02
X HK Slave 4 First invoice 134867 170213 Last invoice 134869 170213 Next invoice 134870 Total number of records 000000186 clbackup completed 08:52:10
