209867000209867               209867               170213HL     1400+00000+HL0000114034+0000114034+000000000+000015965+0000129999+0000000000+I40000129999+0000000000+Z
209867001209867496-028122     209867006941057400112INTEX POOL 305x76cm    0000001000+00114034+00000+0001T   00114034+0000000833          1400 IS7787               1AZ
209868000209868               209868               170213HL     1400+00000+HL0000000876+0000000876+000000000+000000123+0000000990+0000000009+I20000000000+0000000990+Z
209868001209868007-000235     209868006003000134434LABELS RECTANGULAR 60pc0000001000+00000876+00000+0001T   00000876+0000000842          1400 IS7130               1AZ
209869000209869               209869               170213HL     1400+00000+HL0000013986+0000013986+000000000+000001961+0000015940+0000000007+I20000000000+0000015940+Z
209869001209869079-009702-A   209869008427973059408PAPER SIRIO A2 BLACK   0000001000+00001051+00000+0001T   00001051+0000000852          1400 IS7130               1AZ
209869002209869162-096716     209869006001492967165#TAG KIDS ALICEBAND BOW0000001000+00003507+00000+0001T   00003507+0000000852          1400 IS7160               1AZ
209869003209869366-006104     209869006003000616930DRESS UP FACE PAINT    0000001000+00001753+00000+0001T   00001753+0000000852          1400 IS7131               1AZ
209869004209869266-000938     209869006001023186676SWORD+SCABBARD         0000001000+00002630+00000+0001T   00002630+0000000852          1400 IS7710               1AZ
209869005209869200-000065     209869006001023323675DRINKING-STRAWS 38PCE  0000001000+00000613+00000+0001T   00000613+0000000852          1400 IS7214               1AZ
209869006209869079-013102     209869006003000019601ART+CRAFT DIY PIPE-CLNR0000002000+00002192+00000+0001T   00002192+0000000852          1400 IS7130               1AZ
209869007209869112-116069     209869006009681820277TCS CARRIER BAG JUMBO  0000001000+00000048+00000+0001T   00000048+0000000852          1400 IS7090               1AZ
209870000209870               209870               170213HL     1400+00000+HL0000000876+0000000876+000000000+000000123+0000000990+0000000009+I20000000000+0000000990+Z
209870001209870033-005921-B   209870006001023678348SEWING-THREAD 200m BLK 0000001000+00000876+00000+0001T   00000876+0000000855          1400 IS7200               1AZ
209871000209871               209871               170213HL     1400+00000+HL0000004823+0000004823+000000000+000000676+0000005490+0000000009+I20000000000+0000005490+Z
209871001209871266-001020     209871006001023791689MASK & 2 SWORDS PL SET 0000001000+00004823+00000+0001T   00004823+0000000904          1400 IS7710               1AZ
209872000209872               209872               170213HL     1400+00000+HL0000010131+0000010131+000000000+000001420+0000011551+0000000000+I40000011551+0000000000+Z
209872001209872301-085001     209872006003000297610ORN WATERBALL LOVE ASST0000001000+00004823+00000+0001T   00004823+0000000928          1400 IS7505               1AZ
209872002209872083-000054     209872006001023729071LIGHTER REFILLABLE LED 0000001000+00001578+00000+0001T   00001578+0000000928          1400 IS7315               1AZ
209872003209872077-000299     209872006003000395576G/BAG 32x25cm LRG LOVE 0000001000+00001490+00000+0001T   00001490+0000000928          1400 IS7112               1AZ
209872004209872080-000127     209872006003000424351VALENTINES DAY 36x24CM 0000001000+00002192+00000+0001T   00002192+0000000928          1400 IS7112               1AZ
209872005209872112-116069     209872006009681820277TCS CARRIER BAG JUMBO  0000001000+00000048+00000+0001T   00000048+0000000928          1400 IS7090               1AZ
209873000209873               209873               170213HL     1400+00000+HL0000013809+0000013809+000000000+000001938+0000015747+0000000000+I40000015747+0000000000+Z
209873001209873306-000026     209873006003000207626COTTON WOOL ROLL 100G  0000001000+00002192+00000+0001T   00002192+0000000930          1400 IS7200               1AZ
209873002209873366-000450     209873006003000653386DRESS UP HEADBAND ASSTD0000001000+00002630+00000+0001T   00002630+0000000930          1400 IS7131               1AZ
209873003209873112-116069     209873006009681820277TCS CARRIER BAG JUMBO  0000001000+00000048+00000+0001T   00000048+0000000930          1400 IS7090               1AZ
209873004209873071-081103     209873006003000197002GLUE STICKS LIQUID 3PCE0000001000+00001753+00000+0001T   00001753+0000000930          1400 IS7130               1AZ
209873005209873903-000897     209873008692806325207SWT CHOC DBL MINI ROLL 0000001000+00000876+00000+0001T   00000876+0000000930          1400 IS7150               1AZ
209873006209873006-000120     209873006001023346889BALLOONS 10PC MIX COL  0000001000+00001753+00000+0001T   00001753+0000000930          1400 IS7131               1AZ
209873007209873903-002853     209873000000087108019MENTOS ROLL MINT       0000001000+00001051+00000+0001T   00001051+0000000930          1400 IS7150               1AZ
209873008209873006-000093     209873006003000539932PARTY BANNER FLAGS ASST0000001000+00001753+00000+0001T   00001753+0000000930          1400 IS7131               1AZ
209873009209873058-000068     209873006001023162984KNIFE ZENITH 20mm      0000001000+00001753+00000+0001T   00001753+0000000930          1400 IS7840               1AZ
209874000209874               209874               170213HL     1400+00000+HL0000007410+0000007410+000000000+000001040+0000008450+0000000000+I20000000000+0000008450+Z
209874001209874112-116069     209874006009681820277TCS CARRIER BAG JUMBO  0000001000+00000048+00000+0001T   00000048+0000000941          1400 IS7090               1AZ
209874002209874089-000021     209874006009697230923KEY CHAIN ID           0000001000+00000613+00000+0001T   00000613+0000000941          1400 IS7205               1AZ
209874003209874903-000211     209874006002099001238SWT GS MALLOW ICE CREAM0000002000+00001753+00000+0001T   00001753+0000000941          1400 IS7150               1AZ
209874004209874089-000030     209874006003000575671K/CHAIN LOVE MTL ASSTD 0000001000+00001753+00000+0001T   00001753+0000000941          1400 IS7205               1AZ
209874005209874077-000305     209874006003000395422GIFT-BAG WINE 10X35CM  0000001000+00001490+00000+0001T   00001490+0000000941          1400 IS7112               1AZ
209875000209875               209875               170213HL     1400+00000+HL0000001227+0000001227+000000000+000000172+0000001390+0000000009+I20000000000+0000001390+Z
209875001209875079-000010     209875006001023173409P/CRAYONS 12-COL SHORT 0000001000+00001227+00000+0001T   00001227+0000000942          1400 IS7130               1AZ
209876000209876               209876               170213HL     1400+00000+HL0000010521+0000010521+000000000+000001473+0000011994+0000000000+I40000011994+0000000000+Z
209876001209876567-075490     209876009780799376470BK NOVEL ROMANCE AFR   0000003000+00003507+00000+0001T   00003507+0000000954          1400 IS7757               1AZ
209877000209877               209877               170213HL     1400+00000+HL0000003507+0000003507+000000000+000000491+0000003990+0000000008+I20000000000+0000003990+Z
209877001209877567-010695     209877009781472346643BK COLOURING ASSTD     0000001000+00003507+00000+0001T   00003507+0000001044          1400 IS7757               1AZ
209878000209878               209878               170213HL     1400+00000+HL0000004645+0000004645+000000000+000000651+0000005290+0000000006+I20000000000+0000005290+Z
209878001209878903-000126     209878006002099003591SWT ZILLIONS MINT 50G  0000001000+00000700+00000+0001T   00000700+0000001049          1400 IS7150               1AZ
209878002209878362-002464     209878006003000167388HAIR EXT 30cm 6PCS COL 0000001000+00001753+00000+0001T   00001753+0000001049          1400 IS7160               1AZ
209878003209878108-001208     209878006003000667147ICE CREAM BOWLS 4-PACK 0000001000+00002192+00000+0001T   00002192+0000001049          1400 IS7210               1AZ
209879000209879               209879               170213HL     1400+00000+HL0000002630+0000002630+000000000+000000369+0000002990+0000000009+I20000000000+0000002990+Z
209879001209879088-000008     209879006003000623181AIR FRESHENER GEL ASSTD0000001000+00002630+00000+0001T   00002630+0000001101          1400 IS7212               1AZ
209880000209880               209880               170213HL     1400+00000+HL0000000876+0000000876+000000000+000000123+0000000990+0000000009+I20000000000+0000000990+Z
209880001209880077-000011-E   209880006001023808646TISSUE-WRAP PINK 10PCE 0000001000+00000876+00000+0001T   00000876+0000001101          1400 IS7112               1AZ
209881000209881               209881               170213HL     1400+00000+HL0000008771+0000008771+000000000+000001228+0000009999+0000000000+I40000009999+0000000000+Z
209881001209881264-000927     209881000090159393009MAISTO MOTORBIKE 1:18  0000001000+00008771+00000+0001T   00008771+0000001115          1400 IS7710               1AZ
209882000209882               209882               170213HL     1400+00000+HL0000001139+0000001139+000000000+000000160+0000001290+0000000009+I20000000000+0000001290+Z
209882001209882162-097716     209882006001492977164#TAG NEW GOLD E/PIERCE 0000001000+00001139+00000+0001T   00001139+0000001119          1400 IS7160               1AZ
209883000209883               209883               170213HL     1400+00000+HL0000001752+0000001752+000000000+000000246+0000000000+0000000000+ 00000000000+0000000000+Z
209883001209883903-000861     209883005010478430822SWT LOVE HEARTS SML    0000002000+00000876+00000+0001T   00000876+000000              1400 IS71502IC            1 Z
209884000209884               209884               170213HL     1400+00000+HL0000002185+0000002185+000000000+000000310+0000002490+0000000005+I20000000000+0000002490+Z
209884001209884903-000885     209884008690997017147SWT L/BIRD CHOC BISCUIT0000002000+00000437+00000+0001T   00000437+0000001122          1400 IS7150               1AZ
209884002209884080-000133-A   209884006003000647019MINI VALENTINES CARD   0000003000+00000437+00000+0001T   00000437+0000001122          1400 IS7112               1AZ
209885000209885               209885               170213HL     1400+00000+HL0000006138+0000006138+000000000+000000860+0000006998+0000000000+I40000006998+0000000000+Z
209885001209885075-000325     209885006003000285495WALLET CANVAS ASSTD    0000001000+00005262+00000+0001T   00005262+0000001123          1400 IS7160               1AZ
209885002209885033-005905-B   209885006001023727787S/LACES FLAT 90cm ASSTD0000001000+00000876+00000+0001T   00000876+0000001123          1400 IS7200               1AZ
209886000209886               209886               170213HL     1400+00000+HL0000004385+0000004385+000000000+000000614+0000004999+0000000000+I40000004999+0000000000+Z
209886001209886024-000003     209886006001023462206S/BURNER COVERS ASSTD  0000001000+00004385+00000+0001T   00004385+0000001125          1400 IS7300               1AZ
209887000209887               209887               170213HL     1400+00000+HL0000012627+0000012627+000000000+000001769+0000014390+0000000006+I20000000000+0000014390+Z
209887001209887174-000170     209887006003000575978STORAGE BASKET NON-WOVE0000001000+00004385+00000+0001T   00004385+0000001126          1400 IS7205               1AZ
209887002209887159-003625     209887006001023902061TOILET-BRUSH W/STD 40cm0000001000+00005262+00000+0001T   00005262+0000001126          1400 IS7200               1AZ
209887003209887036-000605     209887006001023158611WASHING-PEGS WDN PCK-240000002000+00001490+00000+0001T   00001490+0000001126          1400 IS7212               1AZ
209888000209888               209888               170213HL     1400+00000+HL0000008771+0000008771+000000000+000001228+0000009999+0000000000+I40000009999+0000000000+Z
209888001209888263-000169     209888006003000652716VEHICLE JEEP FRIC 2PCS 0000001000+00008771+00000+0001T   00008771+0000001128          1400 IS7710               1AZ
209889000209889               209889               170213HL     1400+00000+HL0000005295+0000005295+000000000+000000743+0000006030+0000000008+I20000000000+0000006030+Z
209889001209889006-006013     209889006001023735195PARTY-SPRAY STRING     0000002000+00002630+00000+0001T   00002630+0000001131          1400 IS7131               1AZ
209889002209889112-116038     209889006009681820246TCS CARRIER BAG MIDI   0000001000+00000035+00000+0001T   00000035+0000001131          1400 IS7090               1AZ
209890000209890               209890               170213HL     1400+00000+HL0000003554+0000003554+000000000+000000498+0000004050+0000000002+I20000000000+0000004050+Z
209890001209890903-000194     209890006009826020616SWT CHOC RP LOLLY 25G  0000001000+00001314+00000+0001T   00001314+0000001134          1400 IS7150               1AZ
209890002209890080-000127     209890006003000424351VALENTINES DAY 36x24CM 0000001000+00002192+00000+0001T   00002192+0000001134          1400 IS7112               1AZ
209890003209890112-116069     209890006009681820277TCS CARRIER BAG JUMBO  0000001000+00000048+00000+0001T   00000048+0000001134          1400 IS7090               1AZ
209891000209891               209891               170213HL     1400+00000+HL0000007891+0000007891+000000000+000001106+0000008990+0000000007+I20000000000+0000008990+Z
209891001209891089-000030     209891006003000575671K/CHAIN LOVE MTL ASSTD 0000001000+00001753+00000+0001T   00001753+0000001135          1400 IS7205               1AZ
209891002209891027-008219     209891006003000664306BROOM HOLDER 2PC SCREWS0000002000+00003069+00000+0001T   00003069+0000001135          1400 IS7212               1AZ
209892000209892               209892               170213HL     1400+00000+HL0000005821+0000005821+000000000+000000816+0000006630+0000000007+I20000000000+0000006630+Z
209892001209892266-001303     209892006001023560698MARBLES 25MM 10PC GOONS0000002000+00001578+00000+0001T   00001578+0000001137          1400 IS7710               1AZ
209892002209892466-000054     209892006001023831552BALLS HI-BOUNCE 3CM    0000001000+00002630+00000+0001T   00002630+0000001137          1400 IS7785               1AZ
209892003209892112-116038     209892006009681820246TCS CARRIER BAG MIDI   0000001000+00000035+00000+0001T   00000035+0000001137          1400 IS7090               1AZ
209893000209893               209893               170213HL     1400+00000+HL0000001179+0000001179+000000000+000000168+0000001340+0000000007+I20000000000+0000001340+Z
209893001209893903-000183     209893006003000451043SWT LB HEART LOLLY     0000003000+00000393+00000+0001T   00000393+0000001247          1400 IS7150               1AZ
209894000209894               209894               170213HL     1400+00000+HL0000001313+0000001313+000000000+000000185+0000001490+0000000008+I20000000000+0000001490+Z
209894001209894077-000151     209894006008766114676GIFT-WRAP C/PHANE ASSTD0000001000+00000876+00000+0001T   00000876+0000001248          1400 IS7112               1AZ
209894002209894080-000133-A   209894006003000647019MINI VALENTINES CARD   0000001000+00000437+00000+0001T   00000437+0000001248          1400 IS7112               1AZ
209895000209895               209895               170213HL     1400+00000+HL0000001227+0000001227+000000000+000000172+0000001390+0000000009+I20000000000+0000001390+Z
209895001209895031-005815     209895009320760100019P/FRAME-CLIP 10x15cm   0000001000+00001227+00000+0001T   00001227+0000001250          1400 IS7510               1AZ
209896000209896               209896               170213HL     1400+00000+HL0000003156+0000003156+000000000+000000442+0000003590+0000000008+I20000000000+0000003590+Z
209896001209896006-000327     209896006003000329687G/STICKS 3X20CM H/BANDS0000002000+00001578+00000+0001T   00001578+0000001251          1400 IS7131               1AZ
209897000209897               209897               170213HL     1400+00000+HL0000003554+0000003554+000000000+000000499+0000004053+0000000000+I40000004053+0000000000+Z
209897001209897077-000316     209897006001023609731GIFT-BAG 25X32CM MATT  0000001000+00001753+00000+0001T   00001753+0000001253          1400 IS7112               1AZ
209897002209897089-000030     209897006003000575671K/CHAIN LOVE MTL ASSTD 0000001000+00001753+00000+0001T   00001753+0000001253          1400 IS7205               1AZ
209897003209897112-116069     209897006009681820277TCS CARRIER BAG JUMBO  0000001000+00000048+00000+0001T   00000048+0000001253          1400 IS7090               1AZ
209898000209898               209898               170213HL     1400+00000+HL0000002192+0000002192+000000000+000000307+0000002490+0000000009+I20000000000+0000002490+Z
209898001209898080-000127     209898006003000424351VALENTINES DAY 36x24CM 0000001000+00002192+00000+0001T   00002192+0000001253          1400 IS7112               1AZ
209899000209899               209899               170213HL     1400+00000+HL0000010554+0000010554+000000000+000001480+0000012034+0000000000+I40000012034+0000000000+Z
209899001209899071-005060     209899006003000152186CELLOTAPE 2PACK INVSBLE0000001000+00003507+00000+0001T   00003507+0000001255          1400 IS7130               1AZ
209899002209899079-003007     209899006003000448487A/TUBE 75ML BROWN      0000001000+00001753+00000+0001T   00001753+0000001255          1400 IS7130               1AZ
209899003209899079-003011     209899006003000448968A/TUBE 75ML ORANGE     0000001000+00001753+00000+0001T   00001753+0000001255          1400 IS7130               1AZ
209899004209899079-003001     209899006003000448951A/TUBE 75ML BLACK      0000001000+00001753+00000+0001T   00001753+0000001255          1400 IS7130               1AZ
209899005209899079-003000     209899006003000448838A/TUBE 75ML WHITE      0000001000+00001753+00000+0001T   00001753+0000001255          1400 IS7130               1AZ
209899006209899112-116038     209899006009681820246TCS CARRIER BAG MIDI   0000001000+00000035+00000+0001T   00000035+0000001255          1400 IS7090               1AZ
209900000209900               209900               170213HL     1400+00000+HL0000000874+0000000874+000000000+000000124+0000000990+0000000008+I20000000000+0000000990+Z
209900001209900080-000133-A   209900006003000647019MINI VALENTINES CARD   0000002000+00000437+00000+0001T   00000437+0000001257          1400 IS7112               1AZ
209901000209901               209901               170213HL     1400+00000+HL0000003331+0000003331+000000000+000000467+0000003790+0000000008+I20000000000+0000003790+Z
209901001209901077-000303     209901006001023593757GIFT-BAG PAPER MED     0000001000+00001578+00000+0001T   00001578+0000001303          1400 IS7112               1AZ
209901002209901077-000309     209901006001023608604GIFT-BAG 25X32CM GLOSS 0000001000+00001753+00000+0001T   00001753+0000001303          1400 IS7112               1AZ
209902000209902               209902               170213HL     1400+00000+HL0000003507+0000003507+000000000+000000491+0000003998+0000000000+I40000003998+0000000000+Z
209902001209902106-007105     209902006001023857644JUG 1,8L FRIDGE-DOOR   0000001000+00003507+00000+0001T   00003507+0000001306          1400 IS7210               1AZ
209903000209903               209903               170213HL     1400+00000+HL0000008813+0000008813+000000000+000001237+0000010050+0000000000+I20000000000+0000010050+Z
209903001209903112-116069     209903006009681820277TCS CARRIER BAG JUMBO  0000001000+00000048+00000+0001T   00000048+0000001339          1400 IS7090               1AZ
209903002209903200-003024     209903006001023657299REFUSE BAGS 20PCE BLACK0000005000+00001753+00000+0001T   00001753+0000001339          1400 IS7214               1AZ
209904000209904               209904               170213HL     1400+00000+HL0000002192+0000002192+000000000+000000307+0000002490+0000000009+I20000000000+0000002490+Z
209904001209904565-000080     209904006003000643424NOVELTY BENDY          0000001000+00002192+00000+0001T   00002192+0000001347          1400 IS7745               1AZ
209905000209905               209905               170213HL     1400+00000+HL0000009208+0000009208+000000000+000001290+0000010498+0000000000+I40000010498+0000000000+Z
209905001209905366-007932     209905006003000238057ACCESS CLOWN BOWTIE    0000001000+00003069+00000+0001T   00003069+0000001406          1400 IS7131               1AZ
209905002209905261-003821     209905006003000398713GUN HAND COWBOY PLAYSET0000001000+00006139+00000+0001T   00006139+0000001406          1400 IS7710               1AZ
209906000209906               209906               170213HL     1400+00000+HL0000006400+0000006400+000000000+000000897+0000007297+0000000000+I40000007297+0000000000+Z
209906001209906006-000327     209906006003000329687G/STICKS 3X20CM H/BANDS0000001000+00001578+00000+0001T   00001578+0000001412          1400 IS7131               1AZ
209906002209906366-006104     209906006003000616930DRESS UP FACE PAINT    0000001000+00001753+00000+0001T   00001753+0000001412          1400 IS7131               1AZ
209906003209906366-007932     209906006003000238057ACCESS CLOWN BOWTIE    0000001000+00003069+00000+0001T   00003069+0000001412          1400 IS7131               1AZ
209907000209907               209907               170213HL     1400+00000+HL0000014034+0000014034+000000000+000001965+0000015999+0000000000+I40000015999+0000000000+Z
209907001209907105-009017     209907006002923006804STORAGE BOX FROSTED 55L0000001000+00014034+00000+0001T   00014034+0000001417          1400 IS7210               1AZ
209908000209908               209908               170213HL     1400+00000+HL0000018418+0000018418+000000000+000002580+0000020990+0000000008+I20000000000+0000020990+Z
209908001209908496-058426     209908000078257584260POOL CRYSTAL-BLU 147x330000001000+00012279+00000+0001T   00012279+0000001419          1400 IS7787               1AZ
209908002209908497-068614     209908000078257686148H/PUMP HIGH-O/PUT 36cm 0000001000+00006139+00000+0001T   00006139+0000001419          1400 IS7787               1AZ
209909000209909               209909               170213HL     1400+00000+HL0000010559+0000010559+000000000+000001479+0000012030+0000000008+I20000000000+0000012030+Z
209909001209909088-000107     209909006001023555823DIFFUSER SET FLOWER    0000001000+00004385+00000+0001T   00004385+0000001421          1400 IS7212               1AZ
209909002209909039-000798     209909006001023617774CANDLES TEALITE BOX-50 0000001000+00006139+00000+0001T   00006139+0000001421          1400 IS7510               1AZ
209909003209909112-116038     209909006009681820246TCS CARRIER BAG MIDI   0000001000+00000035+00000+0001T   00000035+0000001421          1400 IS7090               1AZ
209910000209910               209910               170213HL     1400+00000+HL0000002940+0000002940+000000000+000000413+0000003350+0000000003+I20000000000+0000003350+Z
209910001209910304-001204     209910006001023737984FLOWER OCC. TEDDY/ROSES0000001000+00001402+00000+0001T   00001490+0006471422          1400 IS7510               1AZ
209910002209910077-000299     209910006003000395576G/BAG 32x25cm LRG LOVE 0000001000+00001490+00000+0001T   00001490+0000001422          1400 IS7112               1AZ
209910003209910112-116069     209910006009681820277TCS CARRIER BAG JUMBO  0000001000+00000048+00000+0001T   00000048+0000001422          1400 IS7090               1AZ
209911000209911               209911               170213HL     1400+00000+HL0000002192+0000002192+000000000+000000307+0000002490+0000000009+I20000000000+0000002490+Z
209911001209911251-000002     209911006003000093991TAPE D-SIDED 24x1000mm 0000001000+00002192+00000+0001T   00002192+0000001423          1400 IS7810               1AZ
209912000209912               209912               170213HL     1400+00000+HL0000001753+0000001753+000000000+000000246+0000001990+0000000009+I20000000000+0000001990+Z
209912001209912077-000309     209912006001023608604GIFT-BAG 25X32CM GLOSS 0000001000+00001753+00000+0001T   00001753+0000001425          1400 IS7112               1AZ
209913000209913               209913               170213HL     1400+00000+HL0000017542+0000017542+000000000+000002456+0000019998+0000000000+I40000019998+0000000000+Z
209913001209913368-000665     209913006003000169016PLUSH BEAR 30cm        0000002000+00008771+00000+0001T   00008771+0000001428          1400 IS7745               1AZ
209914000209914               209914               170213HL     1400+00000+HL0000027937+0000027937+000000000+000003913+0000031850+0000000000+I40000031850+0000000000+Z
209914001209914018-000127     209914006001023380289MUG OCC STRAIGHT LOVE  0000001000+00001578+00000+0001T   00001753+0006471431          1400 IS7515               1AZ
209914002209914368-000665     209914006003000169016PLUSH BEAR 30cm        0000002000+00008771+00000+0001T   00008771+0000001431          1400 IS7745               1AZ
209914003209914306-001622     209914006003000450091INNER SOLES 1-PAIR     0000001000+00002630+00000+0001T   00002630+0000001431          1400 IS7200               1AZ
209914004209914368-000265     209914006001023750914PLUSH BEAR 23CM ASSTD C0000001000+00006139+00000+0001T   00006139+0000001431          1400 IS7745               1AZ
209914005209914112-116069     209914006009681820277TCS CARRIER BAG JUMBO  0000001000+00000048+00000+0001T   00000048+0000001431          1400 IS7090               1AZ
209915000209915               209915               170213HL     1400+00000+HL0000003507+0000003507+000000000+000000491+0000003998+0000000000+I40000003998+0000000000+Z
209915001209915031-000002-A   209915006003000247103P/FRAME LOVE 7.5X7.5CM 0000001000+00003507+00000+0001T   00003507+0000001432          1400 IS7510               1AZ
209916000209916               209916               170213HL     1400+00000+HL0000003506+0000003506+000000000+000000492+0000003990+0000000008+I20000000000+0000003990+Z
209916001209916104-000020     209916006916920023026BASKET 25x14x10cm      0000002000+00001753+00000+0001T   00001753+0000001434          1400 IS7210               1AZ
209917000209917               209917               170213HL     1400+00000+HL0000001578+0000001578+000000000+000000221+0000001790+0000000009+I20000000000+0000001790+Z
209917001209917077-000303     209917006001023593757GIFT-BAG PAPER MED     0000001000+00001578+00000+0001T   00001578+0000001435          1400 IS7112               1AZ
209918000209918               209918               170213HL     1400+00000+HL0000006836+0000006836+000000000+000000960+0000007790+0000000006+I20000000000+0000007790+Z
209918001209918304-001204     209918006001023737984FLOWER OCC. TEDDY/ROSES0000003000+00001402+00000+0001T   00001490+0006471438          1400 IS7510               1AZ
209918002209918903-000594     209918006003000564057SWT SWORD 18cm J/BEAN  0000001000+00002630+00000+0001T   00002630+0000001438          1400 IS7150               1AZ
209919000209919               209919               170213HL     1400+00000+HL0000004821+0000004821+000000000+000000675+0000005490+0000000006+I20000000000+0000005490+Z
209919001209919031-000002-A   209919006003000247103P/FRAME LOVE 7.5X7.5CM 0000001000+00003507+00000+0001T   00003507+0000001440          1400 IS7510               1AZ
209919002209919006-000166-F   209919006003000516735BALLOONS LRG 6PC PURPLE0000001000+00001314+00000+0001T   00001314+0000001440          1400 IS7131               1AZ
209920000209920               209920               170213HL     1400+00000+HL0000001753+0000001753+000000000+000000246+0000001990+0000000009+I20000000000+0000001990+Z
209920001209920047-001337-H   209920006001023429971INS-TAPE 20m BLACK     0000001000+00001753+00000+0001T   00001753+0000001441          1400 IS7880               1AZ
209921000209921               209921               170213HL     1400+00000+HL0000001753+0000001753+000000000+000000246+0000001990+0000000009+I20000000000+0000001990+Z
209921001209921080-000115     209921006003000237333CARD&ENVELOPE - BLANKS 0000001000+00001753+00000+0001T   00001753+0000001443          1400 IS7112               1AZ
209922000209922               209922               170213HL     1400+00000+HL0000008851+0000008851+000000000+000001243+0000010090+0000000004+I20000000000+0000010090+Z
209922001209922304-001011     209922006001023806727FLWR ROSE RED W/BEAR   0000001000+00000613+00000+0001T   00000788+0006471445          1400 IS7510               1AZ
209922002209922368-000040     209922006003000671786PLUSH ICONS 7.5cm      0000001000+00002630+00000+0001T   00002630+0000001445          1400 IS7745               1AZ
209922003209922077-000010-C   209922006001023123879CREPE-PAPER RED        0000001000+00000788+00000+0001T   00000788+0000001445          1400 IS7112               1AZ
209922004209922077-000299     209922006003000395576G/BAG 32x25cm LRG LOVE 0000001000+00001490+00000+0001T   00001490+0000001445          1400 IS7112               1AZ
209922005209922903-000916     209922006939495519077SWT LOLLY SLUSH DIP    0000002000+00001665+00000+0001T   00001665+0000001445          1400 IS7150               1AZ
209923000209923               209923               170213HL     1400+00000+HL0000011785+0000011785+000000000+000001652+0000013437+0000000000+I40000013437+0000000000+Z
209923001209923048-000827     209923006001023753069TORCH LED W/ZOOM LGE 2D0000001000+00007016+00000+0001T   00007016+0000001452          1400 IS7305               1AZ
209923002209923046-000015     209923006001023680839BATTERIES SIZE:D   2PCE0000002000+00002367+00000+0001T   00002367+0000001452          1400 IS7312               1AZ
209923003209923112-116038     209923006009681820246TCS CARRIER BAG MIDI   0000001000+00000035+00000+0001T   00000035+0000001452          1400 IS7090               1AZ
209924000209924               209924               170213HL     1400+00000+HL0000001085+0000001085+000000000+000000153+0000001230+0000000008+I20000000000+0000001230+Z
209924001209924304-001011     209924006001023806727FLWR ROSE RED W/BEAR   0000001000+00000613+00000+0001T   00000788+0006471453          1400 IS7510               1AZ
209924002209924083-000049     209924004891035200024CIG-LIGHTER DISPOSABLE 0000001000+00000437+00000+0001T   00000437+0000001453          1400 IS7315               1AZ
209924003209924112-116038     209924006009681820246TCS CARRIER BAG MIDI   0000001000+00000035+00000+0001T   00000035+0000001453          1400 IS7090               1AZ
209925000209925               209925               170213HL     1400+00000+HL0000001753+0000001753+000000000+000000246+0000001990+0000000009+I20000000000+0000001990+Z
209925001209925078-000480     209925006008741002332BOSTIK SHOE-REPAIR 25ml0000001000+00001753+00000+0001T   00001753+0000001454          1400 IS7810               1AZ
209926000209926               209926               170213HL     1400+00000+HL0000020994+0000020994+000000000+000002941+0000023930+0000000005+I20000000000+0000023930+Z
209926001209926112-116069     209926006009681820277TCS CARRIER BAG JUMBO  0000001000+00000048+00000+0001T   00000048+0000001456          1400 IS7090               1AZ
209926002209926261-008349     209926006001023787590CAP-GUN 8-SHOT         0000001000+00002192+00000+0001T   00002192+0000001456          1400 IS7710               1AZ
209926003209926261-000121     209926006001023341600GUN-CAPS 8-SHOT CARD-9 0000008000+00000700+00000+0001T   00000700+0000001456          1400 IS7710               1AZ
209926004209926261-000031     209926006003000549658GUN HAND CAP 8 SHOT    0000001000+00006139+00000+0001T   00006139+0000001456          1400 IS7710               1AZ
209926005209926266-008040     209926006001023787002FIGURINE 6PC & ACCESS. 0000001000+00004385+00000+0001T   00004385+0000001456          1400 IS7710               1AZ
209926006209926263-000130     209926006003000305742MOTORBIKE B/BACK 11CM  0000001000+00002630+00000+0001T   00002630+0000001456          1400 IS7710               1AZ
209927000209927               209927               170213HL     1400+00000+HL0000017403+0000017403+000000000+000002441+0000019840+0000000004+I20000000000+0000019840+Z
209927001209927903-000194     209927006009826020616SWT CHOC RP LOLLY 25G  0000001000+00001314+00000+0001T   00001314+0000001458          1400 IS7150               1AZ
209927002209927112-116069     209927006009681820277TCS CARRIER BAG JUMBO  0000001000+00000048+00000+0001T   00000048+0000001458          1400 IS7090               1AZ
209927003209927079-000289     209927006001023493217PAINT WTR COL CAKE 6COL0000001000+00001578+00000+0001T   00001578+0000001458          1400 IS7130               1AZ
209927004209927079-000282     209927006001023493309PAINT TUBS POSTER 12COL0000001000+00002630+00000+0001T   00002630+0000001458          1400 IS7130               1AZ
209927005209927079-003007     209927006003000448487A/TUBE 75ML BROWN      0000001000+00001753+00000+0001T   00001753+0000001458          1400 IS7130               1AZ
209927006209927079-003013     209927006003000633838PAINT ACRYLIC TUBE BRNZ0000001000+00002630+00000+0001T   00002630+0000001458          1400 IS7130               1AZ
209927007209927079-000275     209927006003000160488PAINT-BRUSHES 6PCE PRO 0000001000+00001753+00000+0001T   00001753+0000001458          1400 IS7130               1AZ
209927008209927080-000133-A   209927006003000647019MINI VALENTINES CARD   0000001000+00000437+00000+0001T   00000437+0000001458          1400 IS7112               1AZ
209927009209927079-014101     209927006001023908612ART+CRAFT SCOUBIDOUx50 0000001000+00003507+00000+0001T   00003507+0000001458          1400 IS7130               1AZ
209927010209927903-000215     209927006002099001214SWT GS MALLOW TWIST PAC0000001000+00001753+00000+0001T   00001753+0000001458          1400 IS7150               1AZ
209928000209928               209928               170213HL     1400+00000+HL0000002192+0000002192+000000000+000000307+0000002499+0000000000+I40000002499+0000000000+Z
209928001209928079-013102     209928006003000019601ART+CRAFT DIY PIPE-CLNR0000001000+00002192+00000+0001T   00002192+0000001502          1400 IS7130               1AZ
209929000209929               209929               170213HL     1400+00000+HL0000003506+0000003506+000000000+000000491+0000003990+0000000007+I20000000000+0000003990+Z
209929001209929903-000194     209929006009826020616SWT CHOC RP LOLLY 25G  0000001000+00001314+00000+0001T   00001314+0000001504          1400 IS7150               1AZ
209929002209929566-000359     209929006003000582709STICKER BOOK LOVE SPARK0000001000+00002192+00000+0001T   00002192+0000001504          1400 IS7130               1AZ
209930000209930               209930               170213HL     1400+00000+HL0000002630+0000002630+000000000+000000369+0000002990+0000000009+I20000000000+0000002990+Z
209930001209930304-001118     209930006001023786661FLWR IN-POT PINE 10cm  0000001000+00002630+00000+0001T   00002630+0000001506          1400 IS7510               1AZ
209931000209931               209931               170213HL     1400+00000+HL0000004241+0000004241+000000000+000000596+0000004830+0000000007+I20000000000+0000004830+Z
209931001209931304-001204     209931006001023737984FLOWER OCC. TEDDY/ROSES0000003000+00001402+00000+0001T   00001490+0006471508          1400 IS7510               1AZ
209931002209931112-116038     209931006009681820246TCS CARRIER BAG MIDI   0000001000+00000035+00000+0001T   00000035+0000001508          1400 IS7090               1AZ
209932000209932               209932               170213HL     1400+00000+HL0000016663+0000016663+000000000+000002334+0000018997+0000000000+I40000018997+0000000000+Z
209932001209932033-001399     209932006001023905512HAIR-PINS 100PCE       0000001000+00001753+00000+0001T   00001753+0000001511          1400 IS7200               1AZ
209932002209932046-000014-A   209932004897006177708BATTERIES SIZE:AAA 8PCE0000001000+00001753+00000+0001T   00001753+0000001511          1400 IS7312               1AZ
209932003209932029-000012     209932006001577033754BUCKET GALV 10L        0000001000+00013157+00000+0001T   00013157+0000001511          1400 IS7510               1AZ
209933000209933               209933               170213HL     1400+00000+HL0000004296+0000004296+000000000+000000602+0000004898+0000000000+I40000004898+0000000000+Z
209933001209933903-000095     209933006001704011495SWT SPECKLED-EGGS 100G 0000001000+00002104+00000+0001T   00002104+0000001512          1400 IS7150               1AZ
209933002209933077-000463     209933006003000321698G/BAG GLITTER MED20x28 0000001000+00002192+00000+0001T   00002192+0000001512          1400 IS7112               1AZ
209934000209934               209934               170213HL     1400+00000+HL0000006837+0000006837+000000000+000000958+0000007790+0000000005+I20000000000+0000007790+Z
209934001209934565-000014     209934006003000671915NOVELTY AIR BALLOON    0000001000+00002630+00000+0001T   00002630+0000001524          1400 IS7745               1AZ
209934002209934261-000121     209934006001023341600GUN-CAPS 8-SHOT CARD-9 0000001000+00000700+00000+0001T   00000700+0000001524          1400 IS7710               1AZ
209934003209934082-098795     209934006001492987958SUNGLASS KIDS BOYS WRAP0000001000+00003507+00000+0001T   00003507+0000001524          1400 IS7160               1AZ
209935000209935               209935               170213HL     1400+00000+HL0000014988+0000014988+000000000+000002103+0000017091+0000000000+I40000017091+0000000000+Z
209935001209935077-000270     209935006003000395453GIFT-BAG PPR JMB 33X45 0000001000+00002630+00000+0001T   00002630+0000001533          1400 IS7112               1AZ
209935002209935016-006509     209935006003000567355S/JAR GLS MINI LABEL   0000002000+00001753+00000+0001T   00002192+0008191533          1400 IS7300               1AZ
209935003209935080-000127     209935006003000424351VALENTINES DAY 36x24CM 0000001000+00002192+00000+0001T   00002192+0000001533          1400 IS7112               1AZ
209935004209935903-000698     209935006002099007032SWT CANDY ECLAIRS 90g  0000001000+00001139+00000+0001T   00001139+0000001533          1400 IS7150               1AZ
209935005209935903-000087     209935006001704000161SWT SPECKLED-EGGS 50G  0000002000+00001139+00000+0001T   00001139+0000001533          1400 IS7150               1AZ
209935006209935903-000698     209935006002099007032SWT CANDY ECLAIRS 90g  0000001000+00001139+00000+0001T   00001139+0000001533          1400 IS7150               1AZ
209935007209935903-000090     209935006009826020821SWT GS CHOCO COINS 60g 0000001000+00002104+00000+0001T   00002104+0000001533          1400 IS7150               1AZ
209936000209936               209936               170213HL     1400+00000+HL0000003067+0000003067+000000000+000000431+0000003490+0000000008+I20000000000+0000003490+Z
209936001209936080-000133-A   209936006003000647019MINI VALENTINES CARD   0000001000+00000437+00000+0001T   00000437+0000001534          1400 IS7112               1AZ
209936002209936206-000600     209936006003000631551TOILET PAPER SUDUKO    0000001000+00002630+00000+0001T   00002630+0000001534          1400 IS7321               1AZ
209937000209937               209937               170213HL     1400+00000+HL0000001314+0000001314+000000000+000000184+0000001490+0000000008+I20000000000+0000001490+Z
209937001209937077-000312     209937006001023608697GIFT-BAG 10X35CM GLOSS 0000001000+00001314+00000+0001T   00001314+0000001539          1400 IS7112               1AZ
209938000209938               209938               170213HL     1400+00000+HL0000002630+0000002630+000000000+000000369+0000002990+0000000009+I20000000000+0000002990+Z
209938001209938077-000270     209938006003000395453GIFT-BAG PPR JMB 33X45 0000001000+00002630+00000+0001T   00002630+0000001608          1400 IS7112               1AZ
209939000209939               209939               170213HL     1400+00000+HL0000012320+0000012320+000000000+000001729+0000014040+0000000009+I20000000000+0000014040+Z
209939001209939072-020353     209939006001023598097DOG/CAT-BOWL 17cm      0000002000+00001753+00000+0001T   00001753+0000001611          1400 IS7870               1AZ
209939002209939024-000213-A   209939006003000430840COOKIE-CUTTER PL 6PC   0000001000+00002630+00000+0001T   00002630+0000001611          1400 IS7300               1AZ
209939003209939903-003075     209939003800065783125SWT CHOC FAFL WAFER 52g0000001000+00000876+00000+0001T   00000876+0000001611          1400 IS7150               1AZ
209939004209939024-000007     209939006003000061846SPATULA LONG 32CM      0000001000+00002630+00000+0001T   00002630+0000001611          1400 IS7300               1AZ
209939005209939002-000717     209939006001023775184CHOPPING-MATS FLEX 2PCE0000001000+00002630+00000+0001T   00002630+0000001611          1400 IS7300               1AZ
209939006209939112-116069     209939006009681820277TCS CARRIER BAG JUMBO  0000001000+00000048+00000+0001T   00000048+0000001611          1400 IS7090               1AZ
209940000209940               209940               170213HL     1400+00000+HL0000012817+0000012817+000000000+000001804+0000014621+0000000000+I40000014621+0000000000+Z
209940001209940903-002901     209940005996071650655QUICK MILK 5 S/BERRY   0000001000+00001578+00000+0001T   00001578+0000001623          1400 IS7150               1AZ
209940002209940903-000844     209940005010478432567SWT CANDY DL LUV HEARTS0000003000+00001314+00000+0001T   00001314+0000001623          1400 IS7150               1AZ
209940003209940112-116038     209940006009681820246TCS CARRIER BAG MIDI   0000001000+00000035+00000+0001T   00000035+0000001623          1400 IS7090               1AZ
209940004209940903-000183     209940006003000451043SWT LB HEART LOLLY     0000004000+00000393+00000+0001T   00000393+0000001623          1400 IS7150               1AZ
209940005209940903-000095     209940006001704011495SWT SPECKLED-EGGS 100G 0000001000+00002104+00000+0001T   00002104+0000001623          1400 IS7150               1AZ
209940006209940903-000843     209940008693029031067SWT GUMMY JELAXY 80G   0000001000+00000964+00000+0001T   00000964+0000001623          1400 IS7150               1AZ
209940007209940080-000133     209940006003000535613CARD&ENV MINI ASTD DSGN0000001000+00000437+00000+0001T   00000437+0000001623          1400 IS7112               1AZ
209940008209940080-000133-A   209940006003000647019MINI VALENTINES CARD   0000004000+00000437+00000+0001T   00000437+0000001623          1400 IS7112               1AZ
209940009209940080-000133     209940006003000535613CARD&ENV MINI ASTD DSGN0000001000+00000437+00000+0001T   00000437+0000001623          1400 IS7112               1AZ
209941000209941               209941               170213HL     1400+00000+HL0000000874+0000000874+000000000+000000124+0000000990+0000000008+I20000000000+0000000990+Z
209941001209941083-000049     209941004891035200024CIG-LIGHTER DISPOSABLE 0000002000+00000437+00000+0001T   00000437+0000001624          1400 IS7315               1AZ
209942000209942               209942               170213HL     1400+00000+HL0000007893+0000007893+000000000+000001106+0000000000+0000000000+ 00000000000+0000000000+Z
209942001209942301-085007     209942006003000673698ORN OCC. LOVE S/PLAQUE 0000001000+00007893+00000+0001T   00007893+000000              1400 IS75051IC            1 Z
209943000209943               209943               170213HL     1400+00000+HL0000001753+0000001753+000000000+000000246+0000001990+0000000009+I20000000000+0000001990+Z
209943001209943565-000002     209943006003000308071NOVELTY GROWING ANIMALS0000001000+00001753+00000+0001T   00001753+0000001635          1400 IS7745               1AZ
209944000209944               209944               170213HL     1400+00000+HL0000014032+0000014032+000000000+000001966+0000015990+0000000008+I20000000000+0000015990+Z
209944001209944368-000637     209944006001023874092PLUSH BEAR SLEEPING LOV0000001000+00011402+00000+0001T   00012279+0006471638          1400 IS7745               1AZ
209944002209944077-000270     209944006003000395453GIFT-BAG PPR JMB 33X45 0000001000+00002630+00000+0001T   00002630+0000001638          1400 IS7112               1AZ
209945000209945               209945               170213HL     1400+00000+HL0000021047+0000021047+000000000+000002949+0000023996+0000000000+I40000023996+0000000000+Z
209945001209945366-001101     209945006003000006991DRESS UP BOYS ASSTD    0000001000+00006139+00000+0001T   00006139+0000001640          1400 IS7131               1AZ
209945002209945366-001112-C   209945006003000450404DRESSUP ANIMALS 7-9YRS 0000001000+00007016+00000+0001T   00008771+0008181640          1400 IS7131               1AZ
209945003209945366-001100     209945006003000031443DRESS UP HAT PIRATE    0000001000+00005262+00000+0001T   00005262+0000001640          1400 IS7131               1AZ
209945004209945006-006019     209945006001023908193PARTY-SPRAY GLITTER    0000001000+00002630+00000+0001T   00002630+0000001640          1400 IS7131               1AZ
209946000209946               209946               170213HL     1400+00000+HL0000014910+0000014910+000000000+000002088+0000016998+0000000000+I40000016998+0000000000+Z
209946001209946077-000904     209946006003000410682G/WRAP 700mmx1m PATTERN0000001000+00001753+00000+0001T   00001753+0000001644          1400 IS7112               1AZ
209946002209946263-000514     209946006003000391080TRUCK FRICTION 52CM    0000001000+00013157+00000+0001T   00013157+0000001644          1400 IS7710               1AZ
209947000209947               209947               170213HL     1400+00000+HL0000012278+0000012278+000000000+000001720+0000013990+0000000008+I20000000000+0000013990+Z
209947001209947072-000150     209947006003000093892PET DOG SHIRT BOY SMALL0000002000+00006139+00000+0001T   00006139+0000001650          1400 IS7870               1AZ
209948000209948               209948               170213HL     1400+00000+HL0000005262+0000005262+000000000+000000737+0000005990+0000000009+I20000000000+0000005990+Z
209948001209948366-002699     209948006003000536733DRESS UP HAT COWGIRL   0000001000+00005262+00000+0001T   00005262+0000001651          1400 IS7131               1AZ
209949000209949               209949               170213HL     1400+00000+HL0000010519+0000010519+000000000+000001475+0000011990+0000000004+I20000000000+0000011990+Z
209949001209949018-000136     209949006001023659026MUG OCC LOVE W/PLUSH   0000001000+00003507+00000+0001T   00003507+0000001658          1400 IS7515               1AZ
209949002209949089-000027     209949006003000254071KEY CHAIN MOM/DAD ASSTD0000002000+00001753+00000+0001T   00001753+0000001658          1400 IS7205               1AZ
209949003209949077-000467     209949006003000329991GIFT-BAG STAMP 18X23CM 0000001000+00001753+00000+0001T   00001753+0000001658          1400 IS7112               1AZ
209949004209949077-000373     209949006003000395217G/BAG MED 18X23CM DESGN0000001000+00001753+00000+0001T   00001753+0000001658          1400 IS7112               1AZ
209950000209950               209950               170213HL     1400+00000+HL0000014646+0000014646+000000000+000002051+0000016690+0000000007+I20000000000+0000016690+Z
209950001209950077-000299     209950006003000395576G/BAG 32x25cm LRG LOVE 0000001000+00001490+00000+0001T   00001490+0000001700          1400 IS7112               1AZ
209950002209950031-000001-A   209950006003000246908P/FRAME GLS LOVE 9X13cm0000001000+00004385+00000+0001T   00004385+0000001700          1400 IS7510               1AZ
209950003209950001-091415     209950006003000329113W/GLS OCC. LOVE 2PC 2800000001000+00008771+00000+0001T   00009648+0006471700          1400 IS7515               1AZ
209951000209951               209951               170213HL     1400+00000+HL0000000788+0000000788+000000000+000000111+0000000890+0000000009+I20000000000+0000000890+Z
209951001209951077-000383     209951006003000247943GIFT-BAG 11X14CM S/COL 0000001000+00000788+00000+0001T   00000788+0000001701          1400 IS7112               1AZ
209952000209952               209952               170213HL     1400+00000+HL0000006657+0000006657+000000000+000000934+0000007590+0000000001+I20000000000+0000007590+Z
209952001209952006-000120     209952006001023346889BALLOONS 10PC MIX COL  0000001000+00001753+00000+0001T   00001753+0000001706          1400 IS7131               1AZ
209952002209952006-001000     209952006003000093779HELIUM BALLOON FILL    0000008000+00000613+00000+0001T   00000613+0000001706          1400 IS7131               1AZ
209953000209953               209953               170213HL     1400+00000+HL0000006535+0000006535+000000000+000000916+0000007450+0000000001+I20000000000+0000007450+Z
209953001209953304-001204     209953006001023737984FLOWER OCC. TEDDY/ROSES0000001000+00001402+00000+0001T   00001490+0006471708          1400 IS7510               1AZ
209953002209953077-000303     209953006001023593757GIFT-BAG PAPER MED     0000001000+00001578+00000+0001T   00001578+0000001708          1400 IS7112               1AZ
209953003209953018-000136     209953006001023659026MUG OCC LOVE W/PLUSH   0000001000+00003507+00000+0001T   00003507+0000001708          1400 IS7515               1AZ
209953004209953112-116069     209953006009681820277TCS CARRIER BAG JUMBO  0000001000+00000048+00000+0001T   00000048+0000001708          1400 IS7090               1AZ
209954000209954               209954               170213HL     1400+00000+HL0000003507+0000003507+000000000+000000491+0000003990+0000000008+I20000000000+0000003990+Z
209954001209954018-005009     209954006001023725608MUG W/PLUSH-BEAR LOVE  0000001000+00003507+00000+0001T   00003507+0000001708          1400 IS7515               1AZ
209955000209955               209955               170213HL     1400+00000+HL0000001226+0000001226+000000000+000000172+0000000000+0000000000+ 00000000000+0000000000+Z
209955001209955006-001000     209955006003000093779HELIUM BALLOON FILL    0000002000+00000613+00000+0001T   00000613+000000              1400 IS71311IC            1 Z
209956000209956               209956               170213HL     1400+00000+HL0000007225+0000007225+000000000+000001013+0000008238+0000000000+I40000008238+0000000000+Z
209956001209956039-080945     209956006001023772053C/PILLAR ROUND WHITE   0000001000+00006139+00000+0001T   00006139+0000001718          1400 IS7510               1AZ
209956002209956039-000025     209956006003000286423CANDLE LONG 25CM DARK  0000001000+00001051+00000+0001T   00001051+0000001718          1400 IS7510               1AZ
209956003209956112-116038     209956006009681820246TCS CARRIER BAG MIDI   0000001000+00000035+00000+0001T   00000035+0000001718          1400 IS7090               1AZ
209957000209957               209957               170213HL     1400+00000+HL0000005393+0000005393+000000000+000000756+0000006149+0000000000+I40000006149+0000000000+Z
209957001209957903-000844     209957005010478432567SWT CANDY DL LUV HEARTS0000001000+00001314+00000+0001T   00001314+0000001724          1400 IS7150               1AZ
209957002209957018-000177     209957006001023797513MUG MINI LOVE ASSTD    0000001000+00000700+00000+0001T   00000700+0000001724          1400 IS7515               1AZ
209957003209957162-097717     209957006001492977171#TAG NEW SILVER E/PIERC0000001000+00001139+00000+0001T   00001139+0000001724          1400 IS7160               1AZ
209957004209957080-000127     209957006003000424351VALENTINES DAY 36x24CM 0000001000+00002192+00000+0001T   00002192+0000001724          1400 IS7112               1AZ
209957005209957112-116069     209957006009681820277TCS CARRIER BAG JUMBO  0000001000+00000048+00000+0001T   00000048+0000001724          1400 IS7090               1AZ
209958000209958               209958               170213HL     1400+00000+HL0000001227+0000001227+000000000+000000172+0000001390+0000000009+I20000000000+0000001390+Z
209958001209958002-021042     209958006001023621801TOOTHPICKS 250PCE      0000001000+00001227+00000+0001T   00001227+0000001724          1400 IS7300               1AZ
209959000209959               209959               170213HL     1400+00000+HL0000002450+0000002450+000000000+000000345+0000002790+0000000005+I20000000000+0000002790+Z
209959001209959018-000177     209959006001023797513MUG MINI LOVE ASSTD    0000001000+00000700+00000+0001T   00000700+0000001726          1400 IS7515               1AZ
209959002209959903-004962     209959008410525221880SWT FINI BLCK/RED 50g  0000001000+00000964+00000+0001T   00000964+0000001726          1400 IS7150               1AZ
209959003209959903-000183     209959006003000451043SWT LB HEART LOLLY     0000002000+00000393+00000+0001T   00000393+0000001726          1400 IS7150               1AZ
209960000209960               209960               170213HL     1400+00000+HL0000015605+0000015605+000000000+000002190+0000017795+0000000000+I40000017795+0000000000+Z
209960001209960366-002699     209960006003000536733DRESS UP HAT COWGIRL   0000001000+00005262+00000+0001T   00005262+0000001728          1400 IS7131               1AZ
209960002209960112-116069     209960006009681820277TCS CARRIER BAG JUMBO  0000001000+00000048+00000+0001T   00000048+0000001728          1400 IS7090               1AZ
209960003209960077-000303     209960006001023593757GIFT-BAG PAPER MED     0000002000+00001578+00000+0001T   00001578+0000001728          1400 IS7112               1AZ
209960004209960903-000619     209960006003000672455SWT LOLLY STR/BRRY 140G0000002000+00001753+00000+0001T   00001753+0000001728          1400 IS7150               1AZ
209960005209960903-000518     209960006001704012782SWT STRAWS S/BERRY 100g0000002000+00001227+00000+0001T   00001227+0000001728          1400 IS7150               1AZ
209960006209960903-000183     209960006003000451043SWT LB HEART LOLLY     0000003000+00000393+00000+0001T   00000393+0000001728          1400 IS7150               1AZ
209961000209961               209961               170213HL     1400+00000+HL0000002630+0000002630+000000000+000000369+0000002990+0000000009+I20000000000+0000002990+Z
209961001209961077-000251     209961006003000639106GIFT-DECOR RIBBON      0000001000+00002630+00000+0001T   00002630+0000001729          1400 IS7112               1AZ
209962000209962               209962               170213HL     1400+00000+HL0000011840+0000011840+000000000+000001660+0000013500+0000000000+I20000000000+0000013500+Z
209962001209962903-000095     209962006001704011495SWT SPECKLED-EGGS 100G 0000001000+00002104+00000+0001T   00002104+0000001730          1400 IS7150               1AZ
209962002209962089-000030     209962006003000575671K/CHAIN LOVE MTL ASSTD 0000001000+00001753+00000+0001T   00001753+0000001730          1400 IS7205               1AZ
209962003209962071-000012     209962006001177101006CHALK COLOUR 12PCE     0000001000+00000481+00000+0001T   00000481+0000001730          1400 IS7130               1AZ
209962004209962106-000899     209962006003000653287WTR BOTTLE 2L W/HANDLE 0000001000+00003069+00000+0001T   00003507+0008191730          1400 IS7210               1AZ
209962005209962368-000049     209962006003000536955PLUSH BEAR 15cm LOVE   0000001000+00004385+00000+0001T   00004385+0000001730          1400 IS7745               1AZ
209962006209962112-116069     209962006009681820277TCS CARRIER BAG JUMBO  0000001000+00000048+00000+0001T   00000048+0000001730          1400 IS7090               1AZ
209963000209963               209963               170213HL     1400+00000+HL0000000700+0000000700+000000000+000000098+0000000790+0000000008+I20000000000+0000000790+Z
209963001209963903-000070     209963006001704001106SWT TOFFEE CREAMY 35g  0000001000+00000700+00000+0001T   00000700+0000001730          1400 IS7150               1AZ
209964000209964               209964               170213HL     1400+00000+HL0000001051+0000001051+000000000+000000148+0000001190+0000000009+I20000000000+0000001190+Z
209964001209964079-009702-F   209964008427973059392PAPER SIRIO A2 GREEN   0000001000+00001051+00000+0001T   00001051+0000001733          1400 IS7130               1AZ
209965000209965               209965               170213HL     1400+00000+HL0000014694+0000014694+000000000+000002058+0000016750+0000000002+I20000000000+0000016750+Z
209965001209965077-000299     209965006003000395576G/BAG 32x25cm LRG LOVE 0000001000+00001490+00000+0001T   00001490+0000001746          1400 IS7112               1AZ
209965002209965001-091415     209965006003000329113W/GLS OCC. LOVE 2PC 2800000001000+00008771+00000+0001T   00009648+0006471746          1400 IS7515               1AZ
209965003209965031-080508     209965006001023802415P/FRAME PL 22X11CM LOVE0000001000+00004385+00000+0001T   00004385+0000001746          1400 IS7510               1AZ
209965004209965112-116069     209965006009681820277TCS CARRIER BAG JUMBO  0000001000+00000048+00000+0001T   00000048+0000001746          1400 IS7090               1AZ
209966000209966               209966               170213HL     1400+00000+HL0000001753+0000001753+000000000+000000246+0000001990+0000000009+I20000000000+0000001990+Z
209966001209966078-000030     209966006003000151141YAMAYO SUPERGLUE 8g    0000001000+00001753+00000+0001T   00001753+0000001747          1400 IS7810               1AZ
209967000209967               209967               170213HL     1400+00000+HL0000006783+0000006783+000000000+000000951+0000007734+0000000000+I40000007734+0000000000+Z
209967001209967077-000303     209967006001023593757GIFT-BAG PAPER MED     0000001000+00001578+00000+0001T   00001578+0000001758          1400 IS7112               1AZ
209967002209967080-000133-A   209967006003000647019MINI VALENTINES CARD   0000001000+00000437+00000+0001T   00000437+0000001758          1400 IS7112               1AZ
209967003209967018-005009     209967006001023725608MUG W/PLUSH-BEAR LOVE  0000001000+00003507+00000+0001T   00003507+0000001758          1400 IS7515               1AZ
209967004209967112-116038     209967006009681820246TCS CARRIER BAG MIDI   0000001000+00000035+00000+0001T   00000035+0000001758          1400 IS7090               1AZ
209967005209967565-000044     209967006003000128280BARREL OF SLIME 100g   0000002000+00000613+00000+0001T   00000613+0000001758          1400 IS7745               1AZ
209968000209968               209968               170213HL     1400+00000+HL0000002015+0000002015+000000000+000000283+0000002298+0000000000+I40000002298+0000000000+Z
209968001209968080-000133-A   209968006003000647019MINI VALENTINES CARD   0000001000+00000437+00000+0001T   00000437+0000001807          1400 IS7112               1AZ
209968002209968077-000303     209968006001023593757GIFT-BAG PAPER MED     0000001000+00001578+00000+0001T   00001578+0000001807          1400 IS7112               1AZ
A17021300                                          10405331HLSLAVE 1                       IS72IC
M17021391                              CASH        HLSLAVE 1                       Z-REPORT No.   557TOTAL (Sales - Refunds)           8752.82       CASH TO BE BANKED                 4095.20       DEBIT CARDS                          0.00       CREDIT CARDS                      4657.62       Z-READING                         8752.82       AIRTIME DEBIT CARD SALES             0.00       AIRTIME CARD SALES                   0.00       OVERS/UNDERS                         0.00       AIRTIME CASH SALES                   0.00       GIFT CARDS                           0.00       GIFT CARD CASH SALES                 0.00       T O T A L  CASH PAYOUTS              0.00                                                                                                                                                                                                                                                                                                                                                      Z
M17021392                              CASH        HLABSENT                                                                                                                                                                                          ANNUAL LEAVE                                                                                                                                                                                    DAY OFF                                                                                                                                                                                         COMMENTS                                                                                                                                                                                                                                                                                                                                                                                       Z
Y17021300                                          HL00000000768103+000099
ZHL17021319473 SLAVE 1      SALES DATA                     NEXT INVOICE NO.  209969 0557
X HL Slave 1 First invoice 209867 170213 Last invoice 209968 170213 Next invoice 209969 Total number of records 000000356 clbackup completed 19:47:26
