217816000217816               217816               170213HL     1400+00000+HL0000004385+0000004385+000000000+000000614+0000004990+0000000009+I20000000000+0000004990+Z
217816001217816079-000261     217816006003000159727PAINT WATER COLOUR CAKE0000001000+00004385+00000+0001T   00004385+0000000915          1400 AR5130               2AZ
217817000217817               217817               170213HL     1400+00000+HL0000012712+0000012712+000000000+000001783+0000014495+0000000000+I40000014495+0000000000+Z
217817001217817566-000068     217817006003000418046POP UP LOVE 2 ASSTD    0000001000+00002192+00000+0001T   00002192+0000000917          1400 AR5130               2AZ
217817002217817567-075466     217817009780263250879BK NOVEL ROMANCE       0000001000+00002630+00000+0001T   00002630+0000000917          1400 AR5757               2AZ
217817003217817567-075466     217817009780263912104BK NOVEL ROMANCE       0000002000+00002630+00000+0001T   00002630+0000000917          1400 AR5757               2AZ
217817004217817567-075466     217817009780263920482BK NOVEL ROMANCE       0000001000+00002630+00000+0001T   00002630+0000000917          1400 AR5757               2AZ
217818000217818               217818               170213HL     1400+00000+HL0000003507+0000003507+000000000+000000491+0000003990+0000000008+I20000000000+0000003990+Z
217818001217818018-000136     217818006001023659026MUG OCC LOVE W/PLUSH   0000001000+00003507+00000+0001T   00003507+0000000917          1400 AR5515               2AZ
217819000217819               217819               170213HL     1400+00000+HL0000013286+0000013286+000000000+000001861+0000015140+0000000007+I20000000000+0000015140+Z
217819001217819077-000303     217819006001023593757GIFT-BAG PAPER MED     0000001000+00001578+00000+0001T   00001578+0000000920          1400 AR5112               2AZ
217819002217819018-019000     217819006003000557288MUG OCC. LOVE JUMBO    0000001000+00005262+00000+0001T   00005262+0000000920          1400 AR5515               2AZ
217819003217819018-000177     217819006001023797513MUG MINI LOVE ASSTD    0000001000+00000700+00000+0001T   00000700+0000000920          1400 AR5515               2AZ
217819004217819079-013102     217819006003000019601ART+CRAFT DIY PIPE-CLNR0000002000+00002192+00000+0001T   00002192+0000000920          1400 AR5130               2AZ
217819005217819112-116069     217819006009681820277TCS CARRIER BAG JUMBO  0000001000+00000048+00000+0001T   00000048+0000000920          1400 AR5090               2AZ
217819006217819077-000470     217819006003000330171G-BAG DESGN SML 11X14CM0000001000+00001314+00000+0001T   00001314+0000000920          1400 AR5112               2AZ
217820000217820               217820               170213HL     1400+00000+HL0000007937+0000007937+000000000+000001114+0000009051+0000000000+I40000009051+0000000000+Z
217820001217820362-019285     217820006001023869456HAIR BAND SET ASS. CARD0000001000+00002630+00000+0001T   00002630+0000000923          1400 AR5160               2AZ
217820002217820033-000005     217820006001023511584SHEET+IRN-BOARD-BND 4PC0000001000+00002630+00000+0001T   00002630+0000000923          1400 AR5200               2AZ
217820003217820033-001364     217820006001023802088HAIR-CLIPS 65mm 24PCE  0000001000+00000876+00000+0001T   00000876+0000000923          1400 AR5200               2AZ
217820004217820006-000800     217820006001023902801HAT CABARET 14x18cm    0000001000+00001753+00000+0001T   00001753+0000000923          1400 AR5131               2AZ
217820005217820112-116069     217820006009681820277TCS CARRIER BAG JUMBO  0000001000+00000048+00000+0001T   00000048+0000000923          1400 AR5090               2AZ
217821000217821               217821               170213HL     1400+00000+HL0000005611+0000005611+000000000+000000786+0000006397+0000000000+I40000006397+0000000000+Z
217821001217821006-000190     217821006003000685530BALLOONS LOVE 81x91cm  0000001000+00004385+00000+0001T   00004385+0000000926          1400 AR5131               2AZ
217821002217821006-001000     217821006003000093779HELIUM BALLOON FILL    0000002000+00000613+00000+0001T   00000613+0000000926          1400 AR5131               2AZ
217822000217822               217822               170213HL     1400+00000+HL0000015480+0000015480+000000000+000002170+0000017650+0000000000+I20000000000+0000017650+Z
217822001217822031-080508     217822006001023802415P/FRAME PL 22X11CM LOVE0000001000+00004385+00000+0001T   00004385+0000001004          1400 AR5510               2AZ
217822002217822368-000001     217822006003000097982Plush Bear 25cm        0000001000+00004385+00000+0001T   00004385+0000001004          1400 AR5745               2AZ
217822003217822018-000129     217822006001023403353MUG OCC. LOVE V-SHAPE  0000001000+00002630+00000+0001T   00002630+0000001004          1400 AR5515               2AZ
217822004217822304-001204     217822006001023737984FLOWER OCC. TEDDY/ROSES0000001000+00001402+00000+0001T   00001490+0006471004          1400 AR5510               2AZ
217822005217822077-000270     217822006003000395453GIFT-BAG PPR JMB 33X45 0000001000+00002630+00000+0001T   00002630+0000001004          1400 AR5112               2AZ
217822006217822112-116069     217822006009681820277TCS CARRIER BAG JUMBO  0000001000+00000048+00000+0001T   00000048+0000001004          1400 AR5090               2AZ
217823000217823               217823               170213HL     1400+00000+HL0000016607+0000016607+000000000+000002327+0000018930+0000000004+I20000000000+0000018930+Z
217823001217823466-000605     217823003427000901125BALL SOC 2-PLY PANEL   0000001000+00007893+00000+0001T   00007893+0000001006          1400 AR5785               2AZ
217823002217823056-005719     217823006001023820983CAR AIR-FRESHENER ASSTD0000001000+00002192+00000+0001T   00002192+0000001006          1400 AR5860               2AZ
217823003217823089-000006     217823006003000094929KEY CHAIN HAND-BAG MTL 0000001000+00003507+00000+0001T   00003507+0000001006          1400 AR5205               2AZ
217823004217823089-000030     217823006003000575671K/CHAIN LOVE MTL ASSTD 0000001000+00001753+00000+0001T   00001753+0000001006          1400 AR5205               2AZ
217823005217823306-000510     217823006001024000469T/BRUSH ADULT CROSS    0000001000+00001227+00000+0001T   00001227+0000001006          1400 AR5200               2AZ
217823006217823112-116038     217823006009681820246TCS CARRIER BAG MIDI   0000001000+00000035+00000+0001T   00000035+0000001006          1400 AR5090               2AZ
217824000217824               217824               170213HL     1400+00000+HL0000000876+0000000876+000000000+000000123+0000000990+0000000009+I20000000000+0000000990+Z
217824001217824071-001012     217824006001023474445MARKERS BLACK ROUND    0000001000+00000876+00000+0001T   00000876+0000001018          1400 AR5130               2AZ
217825000217825               217825               170213HL     1400+00000+HL0000007013+0000007013+000000000+000000983+0000007990+0000000006+I20000000000+0000007990+Z
217825001217825200-003026     217825006003000276448REFUSE BAGS 10PCE GREEN0000002000+00001753+00000+0001T   00001753+0000001019          1400 AR5214               2AZ
217825002217825266-001026     217825006003000473618SWORD 52cm+35cm AXE    0000001000+00003507+00000+0001T   00003507+0000001019          1400 AR5710               2AZ
217826000217826               217826               170213HL     1400+00000+HL0000002365+0000002365+000000000+000000332+0000002690+0000000007+I20000000000+0000002690+Z
217826001217826306-000021-C   217826006003000567294EARBUDS 300PCE IN TUB  0000001000+00001753+00000+0001T   00001753+0000001039          1400 AR5200               2AZ
217826002217826306-000020     217826006001023743145POCKET-TISSUES 10PCE   0000002000+00000306+00000+0001T   00000306+0000001039          1400 AR5200               2AZ
217827000217827               217827               170213HL     1400+00000+HL0000023241+0000023241+000000000+000003255+0000026490+0000000006+I20000000000+0000026490+Z
217827001217827065-000015     217827006003000536474MICROPHNE & SUNGLASSESS0000001000+00005262+00000+0001T   00005262+0000001145          1400 AR5745               2AZ
217827002217827079-000282     217827006001023493309PAINT TUBS POSTER 12COL0000001000+00002630+00000+0001T   00002630+0000001145          1400 AR5130               2AZ
217827003217827065-005337     217827006001023619303KEYBOARD B/O 32-KEYS   0000001000+00013157+00000+0001T   00013157+0000001145          1400 AR5745               2AZ
217827004217827046-000012-A   217827006003000208296BATTERIES H/POWER SZ:AA0000001000+00002192+00000+0001T   00002192+0000001145          1400 AR5312               2AZ
217828000217828               217828               170213HL     1400+00000+HL0000001578+0000001578+000000000+000000221+0000001790+0000000009+I20000000000+0000001790+Z
217828001217828018-000127     217828006001023380289MUG OCC STRAIGHT LOVE  0000001000+00001578+00000+0001T   00001753+0006471146          1400 AR5515               2AZ
217829000217829               217829               170213HL     1400+00000+HL0000008817+0000008817+000000000+000001236+0000010050+0000000003+I20000000000+0000010050+Z
217829001217829080-000110     217829006003000237326CARD&ENVLPE BDAY-FUNNY 0000001000+00001753+00000+0001T   00001753+0000001149          1400 AR5112               2AZ
217829002217829065-003641     217829006003000396276DRUM CLICK SET         0000001000+00007016+00000+0001T   00007016+0000001149          1400 AR5745               2AZ
217829003217829112-116069     217829006009681820277TCS CARRIER BAG JUMBO  0000001000+00000048+00000+0001T   00000048+0000001149          1400 AR5090               2AZ
217830000217830               217830               170213HL     1400+00000+HL0000000964+0000000964+000000000+000000135+0000001090+0000000009+I20000000000+0000001090+Z
217830001217830039-000336     217830006001023169129B'DAY-CANDLES MAGIC 10P0000001000+00000964+00000+0001T   00000964+0000001149          1400 AR5510               2AZ
217831000217831               217831               170213HL     1400+00000+HL0000005557+0000005557+000000000+000000779+0000006336+0000000000+I40000006336+0000000000+Z
217831001217831071-003043     217831006003000143948PEN CALIGRAPHY SET 8PCE0000001000+00003507+00000+0001T   00003507+0000001151          1400 AR5130               2AZ
217831002217831007-010192     217831006009635830536BOOK H/COVER A5 192PAGE0000001000+00001139+00000+0001T   00001139+0000001151          1400 AR5130               2AZ
217831003217831007-000127     217831006009685853431BOOK H/COVER MEMO 144PG0000001000+00000876+00000+0001T   00000876+0000001151          1400 AR5130               2AZ
217831004217831112-116038     217831006009681820246TCS CARRIER BAG MIDI   0000001000+00000035+00000+0001T   00000035+0000001151          1400 AR5090               2AZ
217832000217832               217832               170213HL     1400+00000+HL0000001490+0000001490+000000000+000000209+0000001690+0000000009+I20000000000+0000001690+Z
217832001217832077-000299     217832006003000395576G/BAG 32x25cm LRG LOVE 0000001000+00001490+00000+0001T   00001490+0000001151          1400 AR5112               2AZ
217833000217833               217833               170213HL     1400+00000+HL0000002180+0000002180+000000000+000000310+0000002490+0000000000+I20000000000+0000002490+Z
217833001217833006-000171-G   217833006003000609529BALLOONS 1PC YELLOW PRN0000003000+00000218+00000+0001T   00000218+0000001153          1400 AR5131               2AZ
217833002217833006-000171-D   217833006003000609291BALLOONS 1PC ORANGE PRN0000003000+00000218+00000+0001T   00000218+0000001153          1400 AR5131               2AZ
217833003217833006-000171-C   217833006003000609178BALLOONS 1PC D/GRN PRNT0000004000+00000218+00000+0001T   00000218+0000001153          1400 AR5131               2AZ
217834000217834               217834               170213HL     1400+00000+HL0000014026+0000014026+000000000+000001966+0000015992+0000000000+I40000015992+0000000000+Z
217834001217834007-000235     217834006003000134434LABELS RECTANGULAR 60pc0000001000+00000876+00000+0001T   00000876+0000001155          1400 AR5130               2AZ
217834002217834079-000277     217834006003000160600PAINT-BRUSHES 15PCE    0000001000+00002630+00000+0001T   00002630+0000001155          1400 AR5130               2AZ
217834003217834567-014132     217834006003000560028BOOK COLOURING 24 PAGE 0000001000+00000876+00000+0001T   00000876+0000001155          1400 AR5757               2AZ
217834004217834267-000311     217834006003000610730PUZZLE WOOD TRAY ASSTD 0000001000+00003507+00000+0001T   00003507+0000001155          1400 AR5755               2AZ
217834005217834567-010760     217834009781906151614BOOK EDU ASSTD CAT 7   0000001000+00002630+00000+0001T   00003507+0008131155          1400 AR5757               2AZ
217834006217834077-000932     217834006003000409808G/WRAP 700mmx5m PATTERN0000001000+00003507+00000+0001T   00003507+0000001155          1400 AR5112               2AZ
217835000217835               217835               170213HL     1400+00000+HL0000010425+0000010425+000000000+000001460+0000011880+0000000005+I20000000000+0000011880+Z
217835001217835006-000167-C   217835006003000516971BALLOONS PINK METALLIC 0000001000+00001314+00000+0001T   00001314+0000001155          1400 AR5131               2AZ
217835002217835006-000166-D   217835006003000516490BALLOONS LRG 6PC RED   0000001000+00001314+00000+0001T   00001314+0000001155          1400 AR5131               2AZ
217835003217835006-000167-C   217835006003000516971BALLOONS PINK METALLIC 0000002000+00001314+00000+0001T   00001314+0000001155          1400 AR5131               2AZ
217835004217835006-000166-D   217835006003000516490BALLOONS LRG 6PC RED   0000003000+00001314+00000+0001T   00001314+0000001155          1400 AR5131               2AZ
217835005217835077-000245     217835006001023759214GIFT-RIBBON METALLICx2 0000001000+00001227+00000+0001T   00001227+0000001155          1400 AR5112               2AZ
217836000217836               217836               170213HL     1400+00000+HL0000006184+0000006184+000000000+000000867+0000007051+0000000000+I40000007051+0000000000+Z
217836001217836018-000129     217836006001023403353MUG OCC. LOVE V-SHAPE  0000001000+00002630+00000+0001T   00002630+0000001156          1400 AR5515               2AZ
217836002217836080-000127     217836006003000424351VALENTINES DAY 36x24CM 0000001000+00002192+00000+0001T   00002192+0000001156          1400 AR5112               2AZ
217836003217836112-116069     217836006009681820277TCS CARRIER BAG JUMBO  0000001000+00000048+00000+0001T   00000048+0000001156          1400 AR5090               2AZ
217836004217836903-000194     217836006009826020616SWT CHOC RP LOLLY 25G  0000001000+00001314+00000+0001T   00001314+0000001156          1400 AR5150               2AZ
217837000217837               217837               170213HL     1400+00000+HL0000004855+0000004855+000000000+000000681+0000005530+0000000006+I20000000000+0000005530+Z
217837001217837903-000194     217837006009826020616SWT CHOC RP LOLLY 25G  0000001000+00001314+00000+0001T   00001314+0000001157          1400 AR5150               2AZ
217837002217837566-000007     217837006001023761187S/BOOK SUPER VALUE     0000002000+00001753+00000+0001T   00001753+0000001157          1400 AR5130               2AZ
217837003217837112-116038     217837006009681820246TCS CARRIER BAG MIDI   0000001000+00000035+00000+0001T   00000035+0000001157          1400 AR5090               2AZ
217838000217838               217838               170213HL     1400+00000+HL0000011450+0000011450+000000000+000001604+0000013050+0000000004+I20000000000+0000013050+Z
217838001217838486-002320     217838006003000290932W/CLOCK QTZ PL W/LIFE  0000001000+00011402+00000+0001T   00011402+0000001158          1400 AR5510               2AZ
217838002217838112-116069     217838006009681820277TCS CARRIER BAG JUMBO  0000001000+00000048+00000+0001T   00000048+0000001158          1400 AR5090               2AZ
217839000217839               217839               170213HL     1400+00000+HL0000002408+0000002408+000000000+000000339+0000002740+0000000007+I20000000000+0000002740+Z
217839001217839083-000054     217839006001023729071LIGHTER REFILLABLE LED 0000001000+00001578+00000+0001T   00001578+0000001201          1400 AR5315               2AZ
217839002217839903-000183     217839006003000451043SWT LB HEART LOLLY     0000001000+00000393+00000+0001T   00000393+0000001201          1400 AR5150               2AZ
217839003217839080-000133-A   217839006003000647019MINI VALENTINES CARD   0000001000+00000437+00000+0001T   00000437+0000001201          1400 AR5112               2AZ
217840000217840               217840               170213HL     1400+00000+HL0000005698+0000005698+000000000+000000799+0000006490+0000000007+I20000000000+0000006490+Z
217840001217840077-000471     217840006003000330096G-BAG DESGN MED 18X23CM0000001000+00001753+00000+0001T   00001753+0000001203          1400 AR5112               2AZ
217840002217840018-000170     217840006001023775528MUG OCC. LOVE 2PC MINI 0000001000+00002192+00000+0001T   00002192+0000001203          1400 AR5515               2AZ
217840003217840080-000113     217840006003000237449CARD&ENVLPE - LOVE     0000001000+00001753+00000+0001T   00001753+0000001203          1400 AR5112               2AZ
217841000217841               217841               170213HL     1400+00000+HL0000008721+0000008721+000000000+000001223+0000009940+0000000004+I20000000000+0000009940+Z
217841001217841077-000299     217841006003000395576G/BAG 32x25cm LRG LOVE 0000001000+00001490+00000+0001T   00001490+0000001210          1400 AR5112               2AZ
217841002217841903-000183     217841006003000451043SWT LB HEART LOLLY     0000001000+00000393+00000+0001T   00000393+0000001210          1400 AR5150               2AZ
217841003217841903-000095     217841006001704011495SWT SPECKLED-EGGS 100G 0000001000+00002104+00000+0001T   00002104+0000001210          1400 AR5150               2AZ
217841004217841903-000517     217841006001704012768SWT STRAWS FIZZY CHERRY0000001000+00001227+00000+0001T   00001227+0000001210          1400 AR5150               2AZ
217841005217841028-002748     217841006001023500410BAR-B-Q FAN H&L        0000001000+00003507+00000+0001T   00003507+0000001210          1400 AR5305               2AZ
217842000217842               217842               170213HL     1400+00000+HL0000008365+0000008365+000000000+000001172+0000009537+0000000000+I40000009537+0000000000+Z
217842001217842047-005126     217842006001023451255CABLETIES 100/150/200mm0000001000+00002192+00000+0001T   00002192+0000001214          1400 AR5880               2AZ
217842002217842024-000039     217842006003000114030MEASURING-JUG PL 1,0L  0000001000+00003946+00000+0001T   00005262+0008121214          1400 AR5300               2AZ
217842003217842112-116038     217842006009681820246TCS CARRIER BAG MIDI   0000001000+00000035+00000+0001T   00000035+0000001214          1400 AR5090               2AZ
217842004217842080-000127     217842006003000424351VALENTINES DAY 36x24CM 0000001000+00002192+00000+0001T   00002192+0000001214          1400 AR5112               2AZ
217843000217843               217843               170213HL     1400+00000+HL0000001753+0000001753+000000000+000000246+0000001990+0000000009+I20000000000+0000001990+Z
217843001217843071-001102     217843006003000274598MARKER PERM MED 2PCE   0000001000+00001753+00000+0001T   00001753+0000001214          1400 AR5130               2AZ
217844000217844               217844               170213HL     1400+00000+HL0000007890+0000007890+000000000+000001107+0000008990+0000000007+I20000000000+0000008990+Z
217844001217844565-000014     217844006003000671915NOVELTY AIR BALLOON    0000001000+00002630+00000+0001T   00002630+0000001218          1400 AR5745               2AZ
217844002217844366-000300     217844006001023902955DRESSUP TIARA FEATHER  0000001000+00002630+00000+0001T   00002630+0000001218          1400 AR5131               2AZ
217844003217844366-006103     217844006001023786944DRESS UP FACE PAINT SET0000001000+00002630+00000+0001T   00002630+0000001218          1400 AR5131               2AZ
217845000217845               217845               170213HL     1400+00000+HL0000004385+0000004385+000000000+000000614+0000004990+0000000009+I20000000000+0000004990+Z
217845001217845206-000160     217845006003000628780CORN KERNELER          0000001000+00004385+00000+0001T   00004385+0000001218          1400 AR5321               2AZ
217846000217846               217846               170213HL     1400+00000+HL0000001261+0000001261+000000000+000000177+0000001430+0000000008+I20000000000+0000001430+Z
217846001217846304-001011     217846006001023806727FLWR ROSE RED W/BEAR   0000002000+00000613+00000+0001T   00000788+0006471231          1400 AR5510               2AZ
217846002217846112-116038     217846006009681820246TCS CARRIER BAG MIDI   0000001000+00000035+00000+0001T   00000035+0000001231          1400 AR5090               2AZ
217847000217847               217847               170213HL     1400+00000+HL0000024116+0000024116+000000000+000003377+0000027493+0000000000+I40000027493+0000000000+Z
217847001217847077-000324     217847006001023677594GIFT-BAG 33X45CM E/D FL0000001000+00001753+00000+0001T   00001753+0000001235          1400 AR5112               2AZ
217847002217847301-001125     217847000694202803950ORN FOUNTAIN TOWER     0000001000+00017542+00000+0001T   00017542+0000001235          1400 AR5505               2AZ
217847003217847031-000002-A   217847006003000247103P/FRAME LOVE 7.5X7.5CM 0000001000+00003507+00000+0001T   00003507+0000001235          1400 AR5510               2AZ
217847004217847046-000012     217847006904708013062BATTERIES AA  CARD-OF-40000001000+00001314+00000+0001T   00001314+0000001235          1400 AR5312               2AZ
217848000217848               217848               170213HL     1400+00000+HL0000001227+0000001227+000000000+000000172+0000001390+0000000009+I20000000000+0000001390+Z
217848001217848077-000245     217848006001023759214GIFT-RIBBON METALLICx2 0000001000+00001227+00000+0001T   00001227+0000001237          1400 AR5112               2AZ
217849000217849               217849               170213HL     1400+00000+HL0000014205+0000014205+000000000+000001991+0000016196+0000000000+I40000016196+0000000000+Z
217849001217849079-009702-B   217849008427973059491PAPER SIRIO A2 WHITE   0000001000+00001051+00000+0001T   00001051+0000001241          1400 AR5130               2AZ
217849002217849366-001101     217849006003000006991DRESS UP BOYS ASSTD    0000001000+00006139+00000+0001T   00006139+0000001241          1400 AR5131               2AZ
217849003217849366-002799     217849006003000648238DRESSUP S/ADH FACE HAIR0000001000+00001753+00000+0001T   00001753+0000001241          1400 AR5131               2AZ
217849004217849366-001100     217849006003000031443DRESS UP HAT PIRATE    0000001000+00005262+00000+0001T   00005262+0000001241          1400 AR5131               2AZ
217850000217850               217850               170213HL     1400+00000+HL0000016224+0000016224+000000000+000002273+0000018490+0000000007+I20000000000+0000018490+Z
217850001217850105-002013     217850006002580008494CONTAINER SET 18PCE    0000001000+00007016+00000+0001T   00007016+0000001242          1400 AR5210               2AZ
217850002217850403-000005     217850006001023801814JEWEL BOX PL W/DRAWER  0000001000+00007016+00000+0001T   00007016+0000001242          1400 AR5510               2AZ
217850003217850077-000309-A   217850006003000671007GIFT-BAG HOLOGRAM JMB  0000001000+00002192+00000+0001T   00002192+0000001242          1400 AR5112               2AZ
217851000217851               217851               170213HL     1400+00000+HL0000010348+0000010348+000000000+000001449+0000000000+0000000000+ 00000000000+0000000000+Z
217851001217851031-000001-A   217851006003000246908P/FRAME GLS LOVE 9X13cm0000002000+00004385+00000+0001T   00004385+000000              1400 AR55101IC            2 Z
217851002217851077-000303     217851006001023593757GIFT-BAG PAPER MED     0000001000+00001578+00000+0001T   00001578+000000              1400 AR51121IC            2 Z
217852000217852               217852               170213HL     1400+00000+HL0000008770+0000008770+000000000+000001228+0000009998+0000000000+I40000009998+0000000000+Z
217852001217852031-000001-A   217852006003000246908P/FRAME GLS LOVE 9X13cm0000002000+00004385+00000+0001T   00004385+0000001305          1400 AR5510               2AZ
217853000217853               217853               170213HL     1400+00000+HL0000001227+0000001227+000000000+000000172+0000000000+0000000000+ 00000000000+0000000000+Z
217853001217853077-000318     217853006001023609755GIFT-BAG 18X23CM E/D AN0000001000+00001227+00000+0001T   00001227+000000              1400 AR51122IC            2 Z
217854000217854               217854               170213HL     1400+00000+HL0000001227+0000001227+000000000+000000172+0000001390+0000000009+I20000000000+0000001390+Z
217854001217854077-000322     217854006001023677532GIFT-BAG 18X23CM E/D FL0000001000+00001227+00000+0001T   00001227+0000001316          1400 AR5112               2AZ
217855000217855               217855               170213HL     1400+00000+HL0000007047+0000007047+000000000+000000989+0000008030+0000000006+I20000000000+0000008030+Z
217855001217855037-050016     217855006001023674128ASHTRAY 9CM RND CLUB   0000004000+00001753+00000+0001T   00001753+0000001318          1400 AR5515               2AZ
217855002217855112-116038     217855006009681820246TCS CARRIER BAG MIDI   0000001000+00000035+00000+0001T   00000035+0000001318          1400 AR5090               2AZ
217856000217856               217856               170213HL     1400+00000+HL0000003505+0000003505+000000000+000000492+0000003990+0000000007+I20000000000+0000003990+Z
217856001217856077-000011-L   217856006001023808585P/TISSUE BRIGHT 10SHEET0000002000+00000876+00000+0001T   00000876+0000001318          1400 AR5112               2AZ
217856002217856077-000328     217856006003000668939GIFT-BAG PAPER JMB     0000001000+00001753+00000+0001T   00001753+0000001318          1400 AR5112               2AZ
217857000217857               217857               170213HL     1400+00000+HL0000024943+0000024943+000000000+000003498+0000028440+0000000001+I20000000000+0000028440+Z
217857001217857009-001302     217857006001023854544MELAMINE FLOWER PLATE  0000012000+00001490+00000+0001T   00001490+0000001320          1400 AR5210               2AZ
217857002217857036-000501     217857006003000417407HOOK HANGER CHROME     0000001000+00004385+00000+0001T   00004385+0000001320          1400 AR5212               2AZ
217857003217857159-000045     217857006003000467686HOOKS CHROME PLATED 6PC0000001000+00002630+00000+0001T   00002630+0000001320          1400 AR5200               2AZ
217857004217857112-116069     217857006009681820277TCS CARRIER BAG JUMBO  0000001000+00000048+00000+0001T   00000048+0000001320          1400 AR5090               2AZ
217858000217858               217858               170213HL     1400+00000+HL0000004433+0000004433+000000000+000000621+0000005050+0000000004+I20000000000+0000005050+Z
217858001217858031-000873-C   217858006003000673513P/FRAME WDN WHITE 20X250000001000+00004385+00000+0001T   00004385+0000001323          1400 AR5510               2AZ
217858002217858112-116069     217858006009681820277TCS CARRIER BAG JUMBO  0000001000+00000048+00000+0001T   00000048+0000001323          1400 AR5090               2AZ
217859000217859               217859               170213HL     1400+00000+HL0000008547+0000008547+000000000+000001199+0000009746+0000000000+I40000009746+0000000000+Z
217859001217859039-000319-6   217859006003000442980B/CANDLES LRG NUMBER-6 0000001000+00000876+00000+0001T   00000876+0000001328          1400 AR5510               2AZ
217859002217859006-000166-C   217859006003000516377BALLOONS LRG 6PC PINK  0000002000+00001314+00000+0001T   00001314+0000001328          1400 AR5131               2AZ
217859003217859903-000211     217859006002099001238SWT GS MALLOW ICE CREAM0000001000+00001753+00000+0001T   00001753+0000001328          1400 AR5150               2AZ
217859004217859006-000220-A   217859006001023890849PARTY TABLE-CLOTH GIRL 0000001000+00002630+00000+0001T   00002630+0000001328          1400 AR5131               2AZ
217859005217859079-009700-C   217859006003000545636PAPER SIRIO A4 VIOLET  0000002000+00000306+00000+0001T   00000306+0000001328          1400 AR5130               2AZ
217859006217859112-116069     217859006009681820277TCS CARRIER BAG JUMBO  0000001000+00000048+00000+0001T   00000048+0000001328          1400 AR5090               2AZ
217860000217860               217860               170213HL     1400+00000+HL0000003627+0000003627+000000000+000000509+0000004136+0000000000+I40000004136+0000000000+Z
217860001217860016-006505     217860006001023617576S/JAR GLS MINI CLIP    0000001000+00001490+00000+0001T   00001490+0000001330          1400 AR5300               2AZ
217860002217860903-000137     217860006002099004130SWEET GS JELLY BEAN 60G0000001000+00000788+00000+0001T   00000788+0000001330          1400 AR5150               2AZ
217860003217860903-000194     217860006009826020616SWT CHOC RP LOLLY 25G  0000001000+00001314+00000+0001T   00001314+0000001330          1400 AR5150               2AZ
217860004217860112-116038     217860006009681820246TCS CARRIER BAG MIDI   0000001000+00000035+00000+0001T   00000035+0000001330          1400 AR5090               2AZ
217861000217861               217861               170213HL     1400+00000+HL0000006956+0000006956+000000000+000000978+0000007930+0000000004+I20000000000+0000007930+Z
217861001217861903-000087     217861006001704000161SWT SPECKLED-EGGS 50G  0000001000+00001139+00000+0001T   00001139+0000001331          1400 AR5150               2AZ
217861002217861002-000094     217861006001023489753PIZZA-CUTTER           0000001000+00002630+00000+0001T   00002630+0000001331          1400 AR5300               2AZ
217861003217861204-000019     217861006003000677474MEMO HOLDERS THERMOMETE0000001000+00000876+00000+0001T   00000876+0000001331          1400 AR5300               2AZ
217861004217861002-000878     217861006001023770967STRAINER TEA WIRE 7cm  0000001000+00001490+00000+0001T   00001490+0000001331          1400 AR5300               2AZ
217861005217861903-000183     217861006003000451043SWT LB HEART LOLLY     0000002000+00000393+00000+0001T   00000393+0000001331          1400 AR5150               2AZ
217861006217861112-116038     217861006009681820246TCS CARRIER BAG MIDI   0000001000+00000035+00000+0001T   00000035+0000001331          1400 AR5090               2AZ
217862000217862               217862               170213HL     1400+00000+HL0000007048+0000007048+000000000+000000989+0000008030+0000000007+I20000000000+0000008030+Z
217862001217862566-000066     217862006003000283675STICKERS GLITTER 25PCS 0000001000+00001753+00000+0001T   00001753+0000001333          1400 AR5130               2AZ
217862002217862567-075466     217862006003000643189BK NOVEL ROMANCE       0000002000+00002630+00000+0001T   00002630+0000001333          1400 AR5757               2AZ
217862003217862112-116038     217862006009681820246TCS CARRIER BAG MIDI   0000001000+00000035+00000+0001T   00000035+0000001333          1400 AR5090               2AZ
217863000217863               217863               170213HL     1400+00000+HL0000002410+0000002410+000000000+000000338+0000002740+0000000008+I20000000000+0000002740+Z
217863001217863903-000671     217863006009803358015SWT SHERBET BLUE LIPS  0000001000+00000218+00000+0001T   00000218+0000001342          1400 AR5150               2AZ
217863002217863565-000080     217863006003000643424NOVELTY BENDY          0000001000+00002192+00000+0001T   00002192+0000001342          1400 AR5745               2AZ
217864000217864               217864               170213HL     1400+00000+HL0000003506+0000003506+000000000+000000492+0000003990+0000000008+I20000000000+0000003990+Z
217864001217864200-003024     217864006001023657299REFUSE BAGS 20PCE BLACK0000002000+00001753+00000+0001T   00001753+0000001351          1400 AR5214               2AZ
217865000217865               217865               170213HL     1400+00000+HL0000014642+0000014642+000000000+000002051+0000016690+0000000003+I20000000000+0000016690+Z
217865001217865263-001006     217865006001023827883CARS DELUXE P/BCK PACK60000001000+00003946+00000+0001T   00003946+0000001352          1400 AR5710               2AZ
217865002217865262-000602     217865006003000105038DIE CAST AUTO CARRIER  0000001000+00003507+00000+0001T   00003507+0000001352          1400 AR5710               2AZ
217865003217865071-000404     217865006001023676696P/SHARPENER WORLD-GLOBE0000001000+00002192+00000+0001T   00002192+0000001352          1400 AR5130               2AZ
217865004217865007-000566     217865006003000640898NOVELTY PHONE NOTE-PAD 0000001000+00001490+00000+0001T   00001490+0000001352          1400 AR5130               2AZ
217865005217865071-008236     217865006003000406753PENCIL-BAG 21x9x6.5cm  0000001000+00003507+00000+0001T   00003507+0000001352          1400 AR5130               2AZ
217866000217866               217866               170213HL     1400+00000+HL0000025881+0000025881+000000000+000003633+0000029510+0000000004+I20000000000+0000029510+Z
217866001217866077-000151     217866006008766114676GIFT-WRAP C/PHANE ASSTD0000020000+00000876+00000+0001T   00000876+0000001415          1400 AR5112               2AZ
217866002217866079-006500     217866006001023557186GLUE GLITTER 6/10 PCE  0000003000+00001753+00000+0001T   00001753+0000001415          1400 AR5130               2AZ
217866003217866112-116038     217866006009681820246TCS CARRIER BAG MIDI   0000001000+00000035+00000+0001T   00000035+0000001415          1400 AR5090               2AZ
217866004217866079-013032-J   217866006003000542710A&C DIY COLOUR P/FLOWER0000001000+00001753+00000+0001T   00001753+0000001415          1400 AR5130               2AZ
217866005217866903-000194     217866006009826020616SWT CHOC RP LOLLY 25G  0000001000+00001314+00000+0001T   00001314+0000001415          1400 AR5150               2AZ
217867000217867               217867               170213HL     1400+00000+HL0000003507+0000003507+000000000+000000491+0000003990+0000000008+I20000000000+0000003990+Z
217867001217867031-000002-A   217867006003000247103P/FRAME LOVE 7.5X7.5CM 0000001000+00003507+00000+0001T   00003507+0000001415          1400 AR5510               2AZ
217868000217868               217868               170213HL     1400+00000+HL0000010378+0000010378+000000000+000001455+0000011830+0000000003+I20000000000+0000011830+Z
217868001217868368-000049     217868006003000536955PLUSH BEAR 15cm LOVE   0000001000+00004385+00000+0001T   00004385+0000001430          1400 AR5745               2AZ
217868002217868903-003075     217868003800065783125SWT CHOC FAFL WAFER 52g0000001000+00000876+00000+0001T   00000876+0000001430          1400 AR5150               2AZ
217868003217868080-000133     217868006003000535613CARD&ENV MINI ASTD DSGN0000001000+00000437+00000+0001T   00000437+0000001430          1400 AR5112               2AZ
217868004217868903-000194     217868006009826020616SWT CHOC RP LOLLY 25G  0000001000+00001314+00000+0001T   00001314+0000001430          1400 AR5150               2AZ
217868005217868018-000127     217868006001023380289MUG OCC STRAIGHT LOVE  0000001000+00001578+00000+0001T   00001753+0006471430          1400 AR5515               2AZ
217868006217868903-000211     217868006002099001238SWT GS MALLOW ICE CREAM0000001000+00001753+00000+0001T   00001753+0000001430          1400 AR5150               2AZ
217868007217868112-116038     217868006009681820246TCS CARRIER BAG MIDI   0000001000+00000035+00000+0001T   00000035+0000001430          1400 AR5090               2AZ
217869000217869               217869               170213HL     1400+00000+HL0000012628+0000012628+000000000+000001769+0000014397+0000000000+I40000014397+0000000000+Z
217869001217869368-000614     217869006001023705808PLUSH LOVE 30cm        0000001000+00008771+00000+0001T   00008771+0000001450          1400 AR5745               2AZ
217869002217869077-000316     217869006001023609731GIFT-BAG 25X32CM MATT  0000001000+00001753+00000+0001T   00001753+0000001450          1400 AR5112               2AZ
217869003217869903-000057     217869006005929000173SWT GS NOVELTY GIANT AL0000001000+00002104+00000+0001T   00002104+0000001450          1400 AR5150               2AZ
217870000217870               217870               170213HL     1400+00000+HL0000000876+0000000876+000000000+000000123+0000000999+0000000000+I40000000999+0000000000+Z
217870001217870039-000319-2   217870006003000442508B/CANDLES LRG NUMBER-2 0000001000+00000876+00000+0001T   00000876+0000001517          1400 AR5510               2AZ
217871000217871               217871               170213HL     1400+00000+HL0000010993+0000010993+000000000+000001542+0000012530+0000000005+I20000000000+0000012530+Z
217871001217871079-000271     217871006003000160082PAINT-BRUSHES LRGE ART 0000001000+00003069+00000+0001T   00003069+0000001519          1400 AR5130               2AZ
217871002217871079-003007     217871006003000448487A/TUBE 75ML BROWN      0000001000+00001753+00000+0001T   00001753+0000001519          1400 AR5130               2AZ
217871003217871079-003013     217871006003000633838PAINT ACRYLIC TUBE BRNZ0000001000+00002630+00000+0001T   00002630+0000001519          1400 AR5130               2AZ
217871004217871079-003001     217871006003000448951A/TUBE 75ML BLACK      0000001000+00001753+00000+0001T   00001753+0000001519          1400 AR5130               2AZ
217871005217871079-003008     217871006003000448609A/TUBE 75ML GREY       0000001000+00001753+00000+0001T   00001753+0000001519          1400 AR5130               2AZ
217871006217871112-116038     217871006009681820246TCS CARRIER BAG MIDI   0000001000+00000035+00000+0001T   00000035+0000001519          1400 AR5090               2AZ
217872000217872               217872               170213HL     1400+00000+HL0000010261+0000010261+000000000+000001437+0000011690+0000000008+I20000000000+0000011690+Z
217872001217872107-004505     217872006003000677177STEP STOOL FOLDABLE    0000001000+00008771+00000+0001T   00008771+0000001520          1400 AR5210               2AZ
217872002217872565-004101     217872006003000548033BALL BOUNCING EGG      0000001000+00001490+00000+0001T   00001490+0000001520          1400 AR5745               2AZ
217873000217873               217873               170213HL     1400+00000+HL0000002839+0000002839+000000000+000000398+0000003230+0000000007+I20000000000+0000003230+Z
217873001217873077-000303     217873006001023593757GIFT-BAG PAPER MED     0000001000+00001578+00000+0001T   00001578+0000001521          1400 AR5112               2AZ
217873002217873304-001011     217873006001023806727FLWR ROSE RED W/BEAR   0000002000+00000613+00000+0001T   00000788+0006471521          1400 AR5510               2AZ
217873003217873112-116038     217873006009681820246TCS CARRIER BAG MIDI   0000001000+00000035+00000+0001T   00000035+0000001521          1400 AR5090               2AZ
217874000217874               217874               170213HL     1400+00000+HL0000000218+0000000218+000000000+000000031+0000000240+0000000009+I20000000000+0000000240+Z
217874001217874006-000171-G   217874006003000609529BALLOONS 1PC YELLOW PRN0000001000+00000218+00000+0001T   00000218+0000001522          1400 AR5131               2AZ
217875000217875               217875               170213HL     1400+00000+HL0000009819+0000009819+000000000+000001376+0000011190+0000000005+I20000000000+0000011190+Z
217875001217875304-001011     217875006001023806727FLWR ROSE RED W/BEAR   0000001000+00000613+00000+0001T   00000788+0006471523          1400 AR5510               2AZ
217875002217875301-086006     217875006003000498918ORN OCCASION LOVE 4ASTD0000001000+00005262+00000+0001T   00005262+0000001523          1400 AR5505               2AZ
217875003217875080-000113     217875006003000237449CARD&ENVLPE - LOVE     0000001000+00001753+00000+0001T   00001753+0000001523          1400 AR5112               2AZ
217875004217875077-000303     217875006001023593757GIFT-BAG PAPER MED     0000001000+00001578+00000+0001T   00001578+0000001523          1400 AR5112               2AZ
217875005217875006-001000     217875006003000093779HELIUM BALLOON FILL    0000001000+00000613+00000+0001T   00000613+0000001523          1400 AR5131               2AZ
217876000217876               217876               170213HL     1400+00000+HL0000000648+0000000648+000000000+000000091+0000000730+0000000009+I20000000000+0000000730+Z
217876001217876304-001011     217876006001023806727FLWR ROSE RED W/BEAR   0000001000+00000613+00000+0001T   00000788+0006471524          1400 AR5510               2AZ
217876002217876112-116038     217876006009681820246TCS CARRIER BAG MIDI   0000001000+00000035+00000+0001T   00000035+0000001524          1400 AR5090               2AZ
217877000217877               217877               170213HL     1400+00000+HL0000000876+0000000876+000000000+000000123+0000000999+0000000000+I40000000999+0000000000+Z
217877001217877077-000011-D   217877006001023808554TISSUE-WRAP WHITE 10PCE0000001000+00000876+00000+0001T   00000876+0000001527          1400 AR5112               2AZ
217878000217878               217878               170213HL     1400+00000+HL0000035468+0000035468+000000000+000004972+0000040440+0000000000+I40000040440+0000000000+Z
217878001217878072-020309     217878006001023700995DOG-TOY DUMBELL F/BALL 0000001000+00002630+00000+0001T   00002630+0000001531          1400 AR5870               2AZ
217878002217878007-000230     217878006001023995315LABELS STICK-ON STARS  0000001000+00001753+00000+0001T   00001753+0000001531          1400 AR5130               2AZ
217878003217878079-000271     217878006003000160082PAINT-BRUSHES LRGE ART 0000003000+00003069+00000+0001T   00003069+0000001531          1400 AR5130               2AZ
217878004217878079-006495     217878006003000159987GLITTER SHAKERS 6PK    0000001000+00002630+00000+0001T   00002630+0000001531          1400 AR5130               2AZ
217878005217878266-000604     217878006003000455607P/SET GLIDER LAUNCHER  0000001000+00003507+00000+0001T   00003507+0000001531          1400 AR5710               2AZ
217878006217878079-008998     217878006003000339686ART+CRAFT  CANVAS      0000001000+00002630+00000+0001T   00002630+0000001531          1400 AR5130               2AZ
217878007217878112-116069     217878006009681820277TCS CARRIER BAG JUMBO  0000001000+00000048+00000+0001T   00000048+0000001531          1400 AR5090               2AZ
217878008217878079-006495     217878006003000159987GLITTER SHAKERS 6PK    0000001000+00002630+00000+0001T   00002630+0000001531          1400 AR5130               2AZ
217878009217878079-013102     217878006003000019601ART+CRAFT DIY PIPE-CLNR0000003000+00002192+00000+0001T   00002192+0000001531          1400 AR5130               2AZ
217878010217878206-000630     217878006003000631919SPECTACLE CLEANING BRUS0000001000+00001227+00000+0001T   00001227+0000001531          1400 AR5321               2AZ
217878011217878079-000300     217878006001023902245PAINTSET LEARN TO PAINT0000001000+00002630+00000+0001T   00002630+0000001531          1400 AR5130               2AZ
217879000217879               217879               170213HL     1400+00000+HL0000005959+0000005959+000000000+000000836+0000006790+0000000005+I20000000000+0000006790+Z
217879001217879016-006509     217879006003000567355S/JAR GLS MINI LABEL   0000002000+00001753+00000+0001T   00002192+0008191532          1400 AR5300               2AZ
217879002217879018-000177     217879006001023797513MUG MINI LOVE ASSTD    0000001000+00000700+00000+0001T   00000700+0000001532          1400 AR5515               2AZ
217879003217879089-000030     217879006003000575671K/CHAIN LOVE MTL ASSTD 0000001000+00001753+00000+0001T   00001753+0000001532          1400 AR5205               2AZ
217880000217880               217880               170213HL     1400+00000+HL0000002192+0000002192+000000000+000000307+0000002490+0000000009+I20000000000+0000002490+Z
217880001217880018-000170     217880006001023775528MUG OCC. LOVE 2PC MINI 0000001000+00002192+00000+0001T   00002192+0000001534          1400 AR5515               2AZ
217881000217881               217881               170213HL     1400+00000+HL0000014552+0000014552+000000000+000002043+0000016595+0000000000+I40000016595+0000000000+Z
217881001217881304-001204     217881006001023737984FLOWER OCC. TEDDY/ROSES0000002000+00001402+00000+0001T   00001490+0006471543          1400 AR5510               2AZ
217881002217881301-085001     217881006003000297610ORN WATERBALL LOVE ASST0000001000+00004823+00000+0001T   00004823+0000001543          1400 AR5505               2AZ
217881003217881903-000194     217881006009826020616SWT CHOC RP LOLLY 25G  0000001000+00001314+00000+0001T   00001314+0000001543          1400 AR5150               2AZ
217881004217881566-000068     217881006003000418046POP UP LOVE 2 ASSTD    0000002000+00002192+00000+0001T   00002192+0000001543          1400 AR5130               2AZ
217881005217881903-000183     217881006003000451043SWT LB HEART LOLLY     0000003000+00000393+00000+0001T   00000393+0000001543          1400 AR5150               2AZ
217881006217881112-116069     217881006009681820277TCS CARRIER BAG JUMBO  0000001000+00000048+00000+0001T   00000048+0000001543          1400 AR5090               2AZ
217882000217882               217882               170213HL     1400+00000+HL0000003538+0000003538+000000000+000000497+0000004035+0000000000+I40000004035+0000000000+Z
217882001217882071-001019     217882006001023474513MARKER BLACK NAME-PEN  0000001000+00000876+00000+0001T   00000876+0000001544          1400 AR5130               2AZ
217882002217882071-000325     217882006009635844090RULER PLASTIC 30cm     0000001000+00000437+00000+0001T   00000437+0000001544          1400 AR5130               2AZ
217882003217882078-000025     217882008887013700064SUPERGLUE 3g 1PCE CARD 0000001000+00000876+00000+0001T   00000876+0000001544          1400 AR5810               2AZ
217882004217882903-000194     217882006009826020616SWT CHOC RP LOLLY 25G  0000001000+00001314+00000+0001T   00001314+0000001544          1400 AR5150               2AZ
217882005217882112-116038     217882006009681820246TCS CARRIER BAG MIDI   0000001000+00000035+00000+0001T   00000035+0000001544          1400 AR5090               2AZ
217883000217883               217883               170213HL     1400+00000+HL0000006170+0000006170+000000000+000000866+0000007030+0000000006+I20000000000+0000007030+Z
217883001217883366-006104     217883006003000616930DRESS UP FACE PAINT    0000001000+00001753+00000+0001T   00001753+0000001545          1400 AR5131               2AZ
217883002217883007-010496     217883006003000640652MARKER WHITEBOARD 4PCE 0000001000+00001753+00000+0001T   00001753+0000001545          1400 AR5130               2AZ
217883003217883071-001102     217883006003000274598MARKER PERM MED 2PCE   0000001000+00001753+00000+0001T   00001753+0000001545          1400 AR5130               2AZ
217883004217883071-003000     217883006003000543229PEN BALL PEN 3PCE MULTI0000001000+00000876+00000+0001T   00000876+0000001545          1400 AR5130               2AZ
217883005217883112-116038     217883006009681820246TCS CARRIER BAG MIDI   0000001000+00000035+00000+0001T   00000035+0000001545          1400 AR5090               2AZ
217884000217884               217884               170213HL     1400+00000+HL0000003507+0000003507+000000000+000000491+0000003990+0000000008+I20000000000+0000003990+Z
217884001217884018-005009     217884006001023725608MUG W/PLUSH-BEAR LOVE  0000001000+00003507+00000+0001T   00003507+0000001551          1400 AR5515               2AZ
217885000217885               217885               170213HL     1400+00000+HL0000002630+0000002630+000000000+000000369+0000002990+0000000009+I20000000000+0000002990+Z
217885001217885077-000270     217885006003000395453GIFT-BAG PPR JMB 33X45 0000001000+00002630+00000+0001T   00002630+0000001553          1400 AR5112               2AZ
217886000217886               217886               170213HL     1400+00000+HL0000031560+0000031560+000000000+000004420+0000000000+0000000000+ 00000000000+0000000000+Z
217886001217886018-000127     217886006001023380289MUG OCC STRAIGHT LOVE  0000020000+00001578+00000+0001T   00001753+000647              1400 AR55152IC            2 Z
217887000217887               217887               170213HL     1400+00000+HL0000001578+0000001578+000000000+000000221+0000001790+0000000009+I20000000000+0000001790+Z
217887001217887018-000127     217887006001023380289MUG OCC STRAIGHT LOVE  0000001000+00001578+00000+0001T   00001753+0006471602          1400 AR5515               2AZ
217888000217888               217888               170213HL     1400+00000+HL0000008770+0000008770+000000000+000001228+0000000000+0000000000+ 00000000000+0000000000+Z
217888001217888031-000870-A   217888006001023798626P/FRAME WOOD WHITE-PINE0000002000+00004385+00000+0001T   00004385+000000              1400 AR55102IC            2 Z
217889000217889               217889               170213HL     1400+00000+HL0000013056+0000013056+000000000+000001830+0000014886+0000000000+I40000014886+0000000000+Z
217889001217889150-000774     217889006005387000234UTILITY-BOX MEDIUM     0000009000+00000964+00000+0001T   00000964+0000001605          1400 AR5810               2AZ
217889002217889903-000295     217889006001704002899SWT MS FRUITY RASCALS  0000005000+00000876+00000+0001T   00000876+0000001605          1400 AR5150               2AZ
217890000217890               217890               170213HL     1400+00000+HL0000006139+0000006139+000000000+000000860+0000006990+0000000009+I20000000000+0000006990+Z
217890001217890366-000900     217890006003000006960DRESS UP WINGS BUG     0000001000+00006139+00000+0001T   00006139+0000001605          1400 AR5131               2AZ
217891000217891               217891               170213HL     1400+00000+HL0000003770+0000003770+000000000+000000528+0000004298+0000000000+I40000004298+0000000000+Z
217891001217891079-013032-C   217891006003000389520POLY SHAPES            0000001000+00001578+00000+0001T   00001578+0000001607          1400 AR5130               2AZ
217891002217891079-013102     217891006003000019601ART+CRAFT DIY PIPE-CLNR0000001000+00002192+00000+0001T   00002192+0000001607          1400 AR5130               2AZ
217892000217892               217892               170213HL     1400+00000+HL0000000613+0000000613+000000000+000000086+0000000690+0000000009+I20000000000+0000000690+Z
217892001217892304-001011     217892006001023806727FLWR ROSE RED W/BEAR   0000001000+00000613+00000+0001T   00000788+0006471608          1400 AR5510               2AZ
217893000217893               217893               170213HL     1400+00000+HL0000000613+0000000613+000000000+000000086+0000000690+0000000009+I20000000000+0000000690+Z
217893001217893304-001011     217893006001023806727FLWR ROSE RED W/BEAR   0000001000+00000613+00000+0001T   00000788+0006471609          1400 AR5510               2AZ
217894000217894               217894               170213HL     1400+00000+HL0000030255+0000030255+000000000+000004237+0000034492+0000000000+I40000034492+0000000000+Z
217894001217894562-058911     217894006001023705778EDU MAGNETIC UPPER CASE0000001000+00003507+00000+0001T   00003507+0000001625          1400 AR5755               2AZ
217894002217894562-059811     217894006003000158164EDU MAGNETIC NUMBERS   0000001000+00001753+00000+0001T   00001753+0000001625          1400 AR5755               2AZ
217894003217894105-009017     217894006002923006804STORAGE BOX FROSTED 55L0000001000+00014034+00000+0001T   00014034+0000001625          1400 AR5210               2AZ
217894004217894560-000785     217894006003000123919ANIMAL ASSTD 8PC 7cm   0000001000+00003507+00000+0001T   00003507+0000001625          1400 AR5745               2AZ
217894005217894560-000108     217894006003000548262ANIMALS DINOSAUR+ACC   0000001000+00005262+00000+0001T   00005262+0000001625          1400 AR5745               2AZ
217894006217894565-000887     217894006003000412334NOVELTY SILICONE TOY   0000001000+00002192+00000+0001T   00002192+0000001625          1400 AR5745               2AZ
217895000217895               217895               170213HL     1400+00000+HL0000005297+0000005297+000000000+000000742+0000006039+0000000000+I40000006039+0000000000+Z
217895001217895018-019000     217895006003000557288MUG OCC. LOVE JUMBO    0000001000+00005262+00000+0001T   00005262+0000001628          1400 AR5515               2AZ
217895002217895112-116038     217895006009681820246TCS CARRIER BAG MIDI   0000001000+00000035+00000+0001T   00000035+0000001628          1400 AR5090               2AZ
217896000217896               217896               170213HL     1400+00000+HL0000002804+0000002804+000000000+000000393+0000003190+0000000007+I20000000000+0000003190+Z
217896001217896077-000470     217896006003000330171G-BAG DESGN SML 11X14CM0000001000+00001314+00000+0001T   00001314+0000001628          1400 AR5112               2AZ
217896002217896077-000299     217896006003000395576G/BAG 32x25cm LRG LOVE 0000001000+00001490+00000+0001T   00001490+0000001628          1400 AR5112               2AZ
217897000217897               217897               170213HL     1400+00000+HL0000005260+0000005260+000000000+000000738+0000005990+0000000008+I20000000000+0000005990+Z
217897001217897019-071600     217897006001023771971RIVER-STONES 1kg MIXED 0000002000+00002630+00000+0001T   00002630+0000001628          1400 AR5510               2AZ
217898000217898               217898               170213HL     1400+00000+HL0000003944+0000003944+000000000+000000553+0000004490+0000000007+I20000000000+0000004490+Z
217898001217898018-005009     217898006001023725608MUG W/PLUSH-BEAR LOVE  0000001000+00003507+00000+0001T   00003507+0000001631          1400 AR5515               2AZ
217898002217898080-000133-A   217898006003000647019MINI VALENTINES CARD   0000001000+00000437+00000+0001T   00000437+0000001631          1400 AR5112               2AZ
217899000217899               217899               170213HL     1400+00000+HL0000023681+0000023681+000000000+000003317+0000026990+0000000008+I20000000000+0000026990+Z
217899001217899466-001012     217899006001023508157CRICKET-SET SIZE-3     0000001000+00011402+00000+0001T   00011402+0000001631          1400 AR5785               2AZ
217899002217899464-000302     217899006003000393831GAME TABLETOP SHOOTER  0000001000+00012279+00000+0001T   00012279+0000001631          1400 AR5785               2AZ
217900000217900               217900               170213HL     1400+00000+HL0000013182+0000013182+000000000+000001847+0000015020+0000000009+I20000000000+0000015020+Z
217900001217900040-000051     217900006001023799494C/HOLDER GLASS LANTERN 0000002000+00003069+00000+0001T   00003069+0000001700          1400 AR5510               2AZ
217900002217900089-000030     217900006003000575671K/CHAIN LOVE MTL ASSTD 0000001000+00001753+00000+0001T   00001753+0000001700          1400 AR5205               2AZ
217900003217900903-000194     217900006009826020616SWT CHOC RP LOLLY 25G  0000004000+00001314+00000+0001T   00001314+0000001700          1400 AR5150               2AZ
217900004217900112-116038     217900006009681820246TCS CARRIER BAG MIDI   0000001000+00000035+00000+0001T   00000035+0000001700          1400 AR5090               2AZ
217901000217901               217901               170213HL     1400+00000+HL0000002804+0000002804+000000000+000000394+0000003190+0000000008+I20000000000+0000003190+Z
217901001217901304-001204     217901006001023737984FLOWER OCC. TEDDY/ROSES0000002000+00001402+00000+0001T   00001490+0006471700          1400 AR5510               2AZ
217902000217902               217902               170213HL     1400+00000+HL0000001226+0000001226+000000000+000000172+0000001390+0000000008+I20000000000+0000001390+Z
217902001217902304-001011     217902006001023806727FLWR ROSE RED W/BEAR   0000002000+00000613+00000+0001T   00000788+0006471706          1400 AR5510               2AZ
217903000217903               217903               170213HL     1400+00000+HL0000012103+0000012103+000000000+000001696+0000013799+0000000000+I40000013799+0000000000+Z
217903001217903077-000303     217903006001023593757GIFT-BAG PAPER MED     0000001000+00001578+00000+0001T   00001578+0000001714          1400 AR5112               2AZ
217903002217903006-000190     217903006003000685530BALLOONS LOVE 81x91cm  0000001000+00004385+00000+0001T   00004385+0000001714          1400 AR5131               2AZ
217903003217903031-000002-A   217903006003000247103P/FRAME LOVE 7.5X7.5CM 0000001000+00003507+00000+0001T   00003507+0000001714          1400 AR5510               2AZ
217903004217903080-000127     217903006003000424351VALENTINES DAY 36x24CM 0000001000+00002192+00000+0001T   00002192+0000001714          1400 AR5112               2AZ
217903005217903903-000183     217903006003000451043SWT LB HEART LOLLY     0000001000+00000393+00000+0001T   00000393+0000001714          1400 AR5150               2AZ
217903006217903112-116069     217903006009681820277TCS CARRIER BAG JUMBO  0000001000+00000048+00000+0001T   00000048+0000001714          1400 AR5090               2AZ
217904000217904               217904               170213HL     1400+00000+HL0000013671+0000013671+000000000+000001920+0000015590+0000000001+I20000000000+0000015590+Z
217904001217904304-001204     217904006001023737984FLOWER OCC. TEDDY/ROSES0000006000+00001402+00000+0001T   00001490+0006471717          1400 AR5510               2AZ
217904002217904564-000015     217904006003000140862BUBBLE TEST TUBE       0000003000+00001753+00000+0001T   00001753+0000001717          1400 AR5131               2AZ
217905000217905               217905               170213HL     1400+00000+HL0000006570+0000006570+000000000+000000921+0000007490+0000000001+I20000000000+0000007490+Z
217905001217905903-000808     217905006009680772300SWT CHEWEEZ STRAWBERRY 0000002000+00000700+00000+0001T   00000700+0000001719          1400 AR5150               2AZ
217905002217905903-000861     217905005010478430822SWT LOVE HEARTS SML    0000001000+00000876+00000+0001T   00000876+0000001719          1400 AR5150               2AZ
217905003217905006-001000     217905006003000093779HELIUM BALLOON FILL    0000002000+00000613+00000+0001T   00000613+0000001719          1400 AR5131               2AZ
217905004217905080-000127     217905006003000424351VALENTINES DAY 36x24CM 0000001000+00002192+00000+0001T   00002192+0000001719          1400 AR5112               2AZ
217905005217905903-000861     217905005010478430822SWT LOVE HEARTS SML    0000001000+00000876+00000+0001T   00000876+0000001719          1400 AR5150               2AZ
217906000217906               217906               170213HL     1400+00000+HL0000005297+0000005297+000000000+000000742+0000006039+0000000000+I40000006039+0000000000+Z
217906001217906039-000500     217906006001023816450C/VOTIVE 8PC RAINBOW   0000001000+00005262+00000+0001T   00005262+0000001721          1400 AR5510               2AZ
217906002217906112-116038     217906006009681820246TCS CARRIER BAG MIDI   0000001000+00000035+00000+0001T   00000035+0000001721          1400 AR5090               2AZ
217907000217907               217907               170213HL     1400+00000+HL0000001753+0000001753+000000000+000000246+0000001990+0000000009+I20000000000+0000001990+Z
217907001217907079-003000     217907006003000448838A/TUBE 75ML WHITE      0000001000+00001753+00000+0001T   00001753+0000001737          1400 AR5130               2AZ
217908000217908               217908               170213HL     1400+00000+HL0000004296+0000004296+000000000+000000602+0000000000+0000000000+ 00000000000+0000000000+Z
217908001217908002-021042     217908006001023621801TOOTHPICKS 250PCE      0000001000+00001227+00000+0001T   00001227+000000              1400 AR53001IC            2 Z
217908002217908079-013106     217908006003000081998ART+CRAFT PIPE-CLEANERS0000001000+00003069+00000+0001T   00003069+000000              1400 AR51301IC            2 Z
217909000217909               217909               170213HL     1400+00000+HL0000003419+0000003419+000000000+000000479+0000003890+0000000008+I20000000000+0000003890+Z
217909001217909079-013102     217909006003000019601ART+CRAFT DIY PIPE-CLNR0000001000+00002192+00000+0001T   00002192+0000001746          1400 AR5130               2AZ
217909002217909002-021042     217909006001023621801TOOTHPICKS 250PCE      0000001000+00001227+00000+0001T   00001227+0000001746          1400 AR5300               2AZ
217910000217910               217910               170213HL     1400+00000+HL0000012671+0000012671+000000000+000001778+0000014440+0000000009+I20000000000+0000014440+Z
217910001217910077-000299     217910006003000395576G/BAG 32x25cm LRG LOVE 0000001000+00001490+00000+0001T   00001490+0000001747          1400 AR5112               2AZ
217910002217910301-085001     217910006003000297610ORN WATERBALL LOVE ASST0000001000+00004823+00000+0001T   00004823+0000001747          1400 AR5505               2AZ
217910003217910368-000001     217910006003000097982Plush Bear 25cm        0000001000+00004385+00000+0001T   00004385+0000001747          1400 AR5745               2AZ
217910004217910112-116069     217910006009681820277TCS CARRIER BAG JUMBO  0000001000+00000048+00000+0001T   00000048+0000001747          1400 AR5090               2AZ
217910005217910903-000183     217910006003000451043SWT LB HEART LOLLY     0000002000+00000393+00000+0001T   00000393+0000001747          1400 AR5150               2AZ
217910006217910903-000087     217910006001704000161SWT SPECKLED-EGGS 50G  0000001000+00001139+00000+0001T   00001139+0000001747          1400 AR5150               2AZ
217911000217911               217911               170213HL     1400+00000+HL0000018676+0000018676+000000000+000002618+0000021290+0000000004+I20000000000+0000021290+Z
217911001217911019-000051     217911006003000457304VASE GLS ASSORTED      0000001000+00006139+00000+0001T   00006139+0000001751          1400 AR5510               2AZ
217911002217911077-000270     217911006003000395453GIFT-BAG PPR JMB 33X45 0000001000+00002630+00000+0001T   00002630+0000001751          1400 AR5112               2AZ
217911003217911301-086006     217911006003000498918ORN OCCASION LOVE 4ASTD0000001000+00005262+00000+0001T   00005262+0000001751          1400 AR5505               2AZ
217911004217911304-001204     217911006001023737984FLOWER OCC. TEDDY/ROSES0000001000+00001402+00000+0001T   00001490+0006471751          1400 AR5510               2AZ
217911005217911304-001011     217911006001023806727FLWR ROSE RED W/BEAR   0000001000+00000613+00000+0001T   00000788+0006471751          1400 AR5510               2AZ
217911006217911304-001486     217911006003000035335FLWR BUNCH ROSE        0000001000+00002630+00000+0001T   00002630+0000001751          1400 AR5510               2AZ
M17021391                              CASH        HLSLAVE 2                       Z-REPORT No.   554TOTAL (Sales - Refunds)           8259.46       CASH TO BE BANKED                 5325.00       DEBIT CARDS                          0.00       CREDIT CARDS                      2934.46       Z-READING                         8259.46       AIRTIME DEBIT CARD SALES             0.00       AIRTIME CARD SALES                   0.00       OVERS/UNDERS                         0.00       AIRTIME CASH SALES                   0.00       GIFT CARDS                           0.00       GIFT CARD CASH SALES                 0.00       T O T A L  CASH PAYOUTS              0.00                                                                                                                                                                                                                                                                                                                                                      Z
M17021392                              CASH        HLABSENT                                                                                                                                                                                          ANNUAL LEAVE                                                                                                                                                                                    DAY OFF                                                                                                                                                                                         COMMENTS                                                                                                                                                                                                                                                                                                                                                                                       Z
Y17021300                                          HL00000000724782+000091
ZHL17021319473 SLAVE 2      SALES DATA                     NEXT INVOICE NO.  217912 0554
F094162463-000501         1701181007560000021ICSLAVE 2
R5794780000200501         1701181007560000021ICSLAV567-004954     0097806360491921702130000031ICSLAVE 2     170213172701                     00
R5794780000400501         1701181007560000021ICSLAV567-004957     0097806360490861702130000031ICSLAVE 2     170213172646                     00
R5794780000700501         1701181007560000021ICSLAV567-004961     0097806360490171702130000031ICSLAVE 2     170213172712                     00
R5794780001200501         1701181007560000021ICSLAV567-004976     0097806360490241702130000031ICSLAVE 2     170213172724                     00
R5794780001500501         1701181007560000021ICSLAV567-011520     0097817759546821702130000061ICSLAVE 2     170213172748                     00
R5794780001600501         1701181007560000021ICSLAV567-011521     0097817759547431702130000031ICSLAVE 2     170213172629                     00
R5794780001700501         1701181007560000021ICSLAV567-011522     0097817759547501702130000031ICSLAVE 2     170213172623                     00
X HL Slave 2 First invoice 217816 170213 Last invoice 217911 170213 Next invoice 217912 Total number of records 000000390 clbackup completed 19:47:28
