105598000105598               105598               170213HO     1400+00000+HO0000008800+0000008800+000000000+000001235+0000010030+0000000005+I20000000000+0000010030+Z
105598001105598028-000016     105598006001334007004ICE-BRICK CLEAR    400g0000004000+00001753+00000+0001T   00001753+0000000927          1400 JY5305               1AZ
105598002105598112-116038     105598006009681820246TCS CARRIER BAG MIDI   0000001000+00000035+00000+0001T   00000035+0000000927          1400 JY5090               1AZ
105598003105598034-078800     105598006001023856555COOEY WET-WIPES 60PCE  0000001000+00001753+00000+0001T   00001753+0000000927          1400 JY5215               1AZ
105599000105599               105599               170213HO     1400+00000+HO0000007927+0000007927+000000000+000001111+0000009038+0000000000+I40000009038+0000000000+Z
105599001105599048-000865     105599006003000371433TORCH KEY CHAIN 5LED   0000001000+00002630+00000+0001T   00002630+0000000953          1400 JY5305               1AZ
105599002105599263-000509     105599006001023790620DIY ASSEMBLY VEHICLE   0000001000+00005262+00000+0001T   00005262+0000000953          1400 JY5710               1AZ
105599003105599112-116038     105599006009681820246TCS CARRIER BAG MIDI   0000001000+00000035+00000+0001T   00000035+0000000953          1400 JY5090               1AZ
105600000105600               105600               170213HO     1400+00000+HO0000034292+0000034292+000000000+000004805+0000039090+0000000007+I20000000000+0000039090+Z
105600001105600486-002310     105600006003000093069W/CLOCK QTZ KIDS ASSTD 0000001000+00007016+00000+0001T   00007016+0000000957          1400 JY5510               1AZ
105600002105600108-009020-B   105600006005387000067SALAD SML W/LID ASSTD-C0000001000+00001314+00000+0001T   00001314+0000000957          1400 JY5210               1AZ
105600003105600105-001062     105600006003000629244CONTAINER CLIP LOCK    0000002000+00002192+00000+0001T   00002192+0000000957          1400 JY5210               1AZ
105600004105600032-000235     105600006001023468444MIRROR HAND 13X15CM    0000001000+00002630+00000+0001T   00002630+0000000957          1400 JY5510               1AZ
105600005105600046-000012     105600006904708013062BATTERIES AA  CARD-OF-40000001000+00001314+00000+0001T   00001314+0000000957          1400 JY5312               1AZ
105600006105600105-007515     105600006003000487547STORAGE BOX CLEAR 6L   0000001000+00008771+00000+0001T   00008771+0000000957          1400 JY5210               1AZ
105600007105600087-000103     105600006003000638185RAZOR LADIES 5PCE      0000001000+00002630+00000+0001T   00002630+0000000957          1400 JY5200               1AZ
105600008105600104-000031     105600006003000614950BASKET PL 27x18x12cm   0000001000+00002630+00000+0001T   00002630+0000000957          1400 JY5210               1AZ
105600009105600104-000051     105600006003000615193BASKET PL 36x24x13cm   0000001000+00003507+00000+0001T   00003507+0000000957          1400 JY5210               1AZ
105600010105600112-116069     105600006009681820277TCS CARRIER BAG JUMBO  0000002000+00000048+00000+0001T   00000048+0000000957          1400 JY5090               1AZ
105601000105601               105601               170213HO     1400+00000+HO0000012713+0000012713+000000000+000001781+0000014494+0000000000+I40000014494+0000000000+Z
105601001105601079-013032-I   105601006003000542550ART+CRAFT DIY EVA FOAM 0000001000+00001753+00000+0001T   00001753+0000000959          1400 JY5130               1AZ
105601002105601024-091103     105601006003453014307BAKING-CUP MUFFIN 50PCE0000002000+00002192+00000+0001T   00002192+0000000959          1400 JY5300               1AZ
105601003105601046-000012-A   105601006003000208296BATTERIES H/POWER SZ:AA0000001000+00002192+00000+0001T   00002192+0000000959          1400 JY5312               1AZ
105601004105601077-000916     105601006003000413577G/WRAP 700mmx2m BBY/KID0000001000+00002192+00000+0001T   00002192+0000000959          1400 JY5112               1AZ
105601005105601077-000914     105601006003000413454G/WRAP 700mmx2m ANIMAL 0000001000+00002192+00000+0001T   00002192+0000000959          1400 JY5112               1AZ
105602000105602               105602               170213HO     1400+00000+HO0000054420+0000054420+000000000+000007623+0000062043+0000000000+I40000062043+0000000000+Z
105602001105602003-000101     105602006001023438935ORN ANIMAL WELCOME 10CM0000001000+00003507+00000+0001T   00003507+0000001004          1400 JY5505               1AZ
105602002105602301-000009     105602006001023781406ORN POLY MSG IN PVC BOX0000001000+00005262+00000+0001T   00005262+0000001004          1400 JY5505               1AZ
105602003105602301-000830     105602006003000462216ORN STANDING ANGEL 13CM0000001000+00002630+00000+0001T   00002630+0000001004          1400 JY5505               1AZ
105602004105602301-000555     105602006003000456666ORN ANIMAL DOG WELCOME 0000001000+00006139+00000+0001T   00006139+0000001004          1400 JY5505               1AZ
105602005105602301-000827     105602006001023872692ORN FAIRY MINI IN-BAG  0000001000+00003946+00000+0001T   00003946+0000001004          1400 JY5505               1AZ
105602006105602301-000120     105602006003000456420ORN ANGEL BELL 10CM    0000001000+00005262+00000+0001T   00005262+0000001004          1400 JY5505               1AZ
105602007105602003-000200     105602006003000378166ORN ANGEL INSPIRATIONAL0000001000+00013157+00000+0001T   00013157+0000001004          1400 JY5505               1AZ
105602008105602003-008015     105602006001023764898ORN GNOME IN WHEEL 12CM0000001000+00005262+00000+0001T   00005262+0000001004          1400 JY5505               1AZ
105602009105602301-006010     105602006001023861245ORN BEAR POLY W/JERSEY 0000002000+00002192+00000+0001T   00002192+0000001004          1400 JY5505               1AZ
105602010105602003-002345     105602006003000378753ORN ANIMAL DUCK 16CM   0000001000+00004823+00000+0001T   00004823+0000001004          1400 JY5505               1AZ
105602011105602112-116069     105602006009681820277TCS CARRIER BAG JUMBO  0000001000+00000048+00000+0001T   00000048+0000001004          1400 JY5090               1AZ
105603000105603               105603               170213HO     1400+00000+HO0000002192+0000002192+000000000+000000307+0000002490+0000000009+I20000000000+0000002490+Z
105603001105603007-000046     105603006009635831366DISPLAY-BOOK PL A4 30PG0000001000+00002192+00000+0001T   00002192+0000001005          1400 JY5130               1AZ
105604000105604               105604               170213HO     1400+00000+HO0000008765+0000008765+000000000+000001230+0000009995+0000000000+I40000009995+0000000000+Z
105604001105604079-013099     105604006003000081875ART+CRAFT EYES ASSTD   0000005000+00001753+00000+0001T   00001753+0000001006          1400 JY5130               1AZ
105605000105605               105605               170213HO     1400+00000+HO0000072080+0000072080+000000000+000010101+0000082181+0000000000+I40000082181+0000000000+Z
105605001105605038-047250     105605006001023816009PLACE MAT ASSORTED     0000005000+00001753+00000+0001T   00001753+0000001011          1400 JY5300               1AZ
105605002105605016-009750     105605006001023888341CONDIMENTS OIL BOTTLES 0000003000+00003507+00000+0001T   00003507+0000001011          1400 JY5300               1AZ
105605003105605001-000004     105605006003000220748JUG GLS W/LID 1.5L RING0000001000+00006139+00000+0001T   00006139+0000001011          1400 JY5515               1AZ
105605004105605038-092232     105605006001023625830TABLE-MAT N/SLIP 32x55 0000001000+00001753+00000+0001T   00001753+0000001011          1400 JY5300               1AZ
105605005105605009-001506     105605006001023696090MELAMINE TRAY 39x29cm  0000001000+00004385+00000+0001T   00004385+0000001011          1400 JY5210               1AZ
105605006105605108-005015     105605006003000638710TRAY PL 40x29cm RECT   0000001000+00004385+00000+0001T   00004385+0000001011          1400 JY5210               1AZ
105605007105605112-116069     105605006009681820277TCS CARRIER BAG JUMBO  0000001000+00000048+00000+0001T   00000048+0000001011          1400 JY5090               1AZ
105605008105605002-000745     105605006001023158758GRATER 6-WAY HILLHOUSE 0000001000+00006139+00000+0001T   00006139+0000001011          1400 JY5300               1AZ
105605009105605002-000684     105605006001023693778K/TOOL TURNER H/HOUSE  0000001000+00002192+00000+0001T   00002192+0000001011          1400 JY5300               1AZ
105605010105605002-000685     105605006001023693785K/TOOL P/MASHER H/HOUSE0000001000+00002192+00000+0001T   00002192+0000001011          1400 JY5300               1AZ
105605011105605002-000681     105605006001023693747K/TOOL NYL SOLID-SPOON 0000001000+00002192+00000+0001T   00002192+0000001011          1400 JY5300               1AZ
105605012105605002-012271     105605006001023849120TONGS 23cm RUBBER-GRIP 0000001000+00003507+00000+0001T   00003507+0000001011          1400 JY5300               1AZ
105605013105605028-000916     105605006001023776969BBQ GRILL-CLEANER 37cm 0000001000+00002630+00000+0001T   00002630+0000001011          1400 JY5305               1AZ
105605014105605002-000650     105605006001023473578M/SPOON WDN 40cm H/HOUS0000001000+00002630+00000+0001T   00002630+0000001011          1400 JY5300               1AZ
105605015105605002-000801     105605006003000555994PEELER PL/MTL Y-SHAPE  0000001000+00001139+00000+0001T   00001139+0000001011          1400 JY5300               1AZ
105605016105605220-000040     105605006003000352548S/SPOONS S/S 2PC CLOUD 0000001000+00003507+00000+0001T   00003507+0000001011          1400 JY5300               1AZ
105605017105605002-000884     105605006001023769589CAN-OPENER BUTTERFLY   0000001000+00002630+00000+0001T   00002630+0000001011          1400 JY5300               1AZ
105605018105605002-000800     105605006001023770660PEELER MTL/PL WHITE    0000001000+00001139+00000+0001T   00001139+0000001011          1400 JY5300               1AZ
105605019105605002-000678-A   105605006003000426997K/TOOL SET 5PC UTENSILS0000001000+00006139+00000+0001T   00006139+0000001011          1400 JY5300               1AZ
105605020105605112-116069     105605006009681820277TCS CARRIER BAG JUMBO  0000001000+00000048+00000+0001T   00000048+0000001011          1400 JY5090               1AZ
105606000105606               105606               170213HO     1400+00000+HO0000017582+0000017582+000000000+000002466+0000020048+0000000000+I40000020048+0000000000+Z
105606001105606077-000358     105606006003000329977GIFT-BAG KIDS 25X32CM  0000001000+00001753+00000+0001T   00001753+0000001014          1400 JY5112               1AZ
105606002105606080-008102     105606006003000080724CARD&ENV MINI 6PK FOIL 0000002000+00001753+00000+0001T   00001753+0000001014          1400 JY5112               1AZ
105606003105606085-007001     105606006001023909329P/TOOL MINI 7in1       0000001000+00002630+00000+0001T   00002630+0000001014          1400 JY5305               1AZ
105606004105606077-000011-X   105606006001023809827TISSUE-WRAP SILVER 10PC0000002000+00001753+00000+0001T   00001753+0000001014          1400 JY5112               1AZ
105606005105606103-000071     105606006001023889713BASKET RECT 30X19X12cm 0000001000+00006139+00000+0001T   00006139+0000001014          1400 JY5300               1AZ
105606006105606112-116069     105606006009681820277TCS CARRIER BAG JUMBO  0000001000+00000048+00000+0001T   00000048+0000001014          1400 JY5090               1AZ
105607000105607               105607               170213HO     1400+00000+HO0000012278+0000012278+000000000+000001720+0000013990+0000000008+I20000000000+0000013990+Z
105607001105607463-000116     105607006003000608577SWIM-GOGGLES MIRRORED  0000001000+00007893+00000+0001T   00007893+0000001110          1400 JY5785               1AZ
105607002105607082-096628     105607006001492966281SUNGLASS LDS PLASTIC   0000001000+00004385+00000+0001T   00004385+0000001110          1400 JY5160               1AZ
105608000105608               105608               170213HO     1400+00000+HO0000007487+0000007487+000000000+000001049+0000008530+0000000006+I20000000000+0000008530+Z
105608001105608024-091103     105608006003453014307BAKING-CUP MUFFIN 50PCE0000001000+00002192+00000+0001T   00002192+0000001112          1400 JY5300               1AZ
105608002105608024-006874     105608006001023769978PASTRY-BRUSH SQ WHITE  0000001000+00001753+00000+0001T   00001753+0000001112          1400 JY5300               1AZ
105608003105608007-000108     105608006009698062097BK COVER ADJUSTABLE A4 0000001000+00003507+00000+0001T   00003507+0000001112          1400 JY5130               1AZ
105608004105608112-116038     105608006009681820246TCS CARRIER BAG MIDI   0000001000+00000035+00000+0001T   00000035+0000001112          1400 JY5090               1AZ
105609000105609               105609               170213HO     1400+00000+HO0000005308+0000005308+000000000+000000745+0000006053+0000000000+I40000006053+0000000000+Z
105609001105609567-075466     105609009780263253573BK NOVEL ROMANCE       0000001000+00002630+00000+0001T   00002630+0000001114          1400 JY5757               1AZ
105609002105609567-075466     105609006003000643189BK NOVEL ROMANCE       0000001000+00002630+00000+0001T   00002630+0000001114          1400 JY5757               1AZ
105609003105609112-116069     105609006009681820277TCS CARRIER BAG JUMBO  0000001000+00000048+00000+0001T   00000048+0000001114          1400 JY5090               1AZ
105610000105610               105610               170213HO     1400+00000+HO0000005082+0000005082+000000000+000000712+0000005790+0000000004+I20000000000+0000005790+Z
105610001105610464-000253     105610006001023341402GAME LUDO       POLYBAG0000001000+00001314+00000+0001T   00001314+0000001119          1400 JY5785               1AZ
105610002105610464-000238     105610006001023644039GAME SNAKES+LADDERS    0000001000+00001314+00000+0001T   00001314+0000001119          1400 JY5785               1AZ
105610003105610903-000517     105610006001704012768SWT STRAWS FIZZY CHERRY0000001000+00001227+00000+0001T   00001227+0000001119          1400 JY5150               1AZ
105610004105610903-000518     105610006001704012782SWT STRAWS S/BERRY 100g0000001000+00001227+00000+0001T   00001227+0000001119          1400 JY5150               1AZ
105611000105611               105611               170213HO     1400+00000+HO0000010963+0000010963+000000000+000001535+0000012490+0000000008+I20000000000+0000012490+Z
105611001105611001-091415     105611006003000329113W/GLS OCC. LOVE 2PC 2800000001000+00008771+00000+0001T   00009648+0006471121          1400 JY5515               1AZ
105611002105611200-000308     105611006003000577477FOOD TIES SILICONE 3PCE0000001000+00002192+00000+0001T   00002192+0000001121          1400 JY5214               1AZ
105612000105612               105612               170213HO     1400+00000+HO0000001578+0000001578+000000000+000000221+0000001790+0000000009+I20000000000+0000001790+Z
105612001105612077-000303     105612006001023593757GIFT-BAG PAPER MED     0000001000+00001578+00000+0001T   00001578+0000001125          1400 JY5112               1AZ
105613000105613               105613               170213HO     1400+00000+HO0000004385+0000004385+000000000+000000614+0000004990+0000000009+I20000000000+0000004990+Z
105613001105613019-000070     105613006003000297474VASE GLS CLEAR BOTTLE  0000001000+00004385+00000+0001T   00004385+0000001126          1400 JY5510               1AZ
105614000105614               105614               170213HO     1400+00000+HO0000001274+0000001274+000000000+000000179+0000001450+0000000003+I20000000000+0000001450+Z
105614001105614304-001011     105614006001023806727FLWR ROSE RED W/BEAR   0000002000+00000613+00000+0001T   00000788+0006471127          1400 JY5510               1AZ
105614002105614112-116069     105614006009681820277TCS CARRIER BAG JUMBO  0000001000+00000048+00000+0001T   00000048+0000001127          1400 JY5090               1AZ
105615000105615               105615               170213HO     1400+00000+HO0000001227+0000001227+000000000+000000172+0000001390+0000000009+I20000000000+0000001390+Z
105615001105615077-000319     105615006001023609779GIFT-BAG 18X23CM BIRTHD0000001000+00001227+00000+0001T   00001227+0000001133          1400 JY5112               1AZ
105616000105616               105616               170213HO     1400+00000+HO0000002192+0000002192+000000000+000000307+0000002490+0000000009+I20000000000+0000002490+Z
105616001105616028-085274     105616006001023641571BBQ LIGHTER         H&L0000001000+00002192+00000+0001T   00002192+0000001158          1400 JY5305               1AZ
105617000105617               105617               170213HO     1400+00000+HO0000006662+0000006662+000000000+000000933+0000007590+0000000005+I20000000000+0000007590+Z
105617001105617366-002195     105617006001023990549DRESS UP WINGS FEATHER 0000001000+00005262+00000+0001T   00005262+0000001207          1400 JY5131               1AZ
105617002105617903-000071     105617006001704001120SWT TOFFEE LIQURICE 35g0000002000+00000700+00000+0001T   00000700+0000001207          1400 JY5150               1AZ
105618000105618               105618               170213HO     1400+00000+HO0000005260+0000005260+000000000+000000738+0000005998+0000000000+I40000005998+0000000000+Z
105618001105618304-000720     105618006001023843050F/BUNCH ROSE 6-HEAD AST0000002000+00002630+00000+0001T   00002630+0000001218          1400 JY5510               1AZ
105619000105619               105619               170213HO     1400+00000+HO0000005304+0000005304+000000000+000000743+0000006047+0000000000+I40000006047+0000000000+Z
105619001105619018-000127     105619006001023380289MUG OCC STRAIGHT LOVE  0000002000+00001578+00000+0001T   00001753+0006471226          1400 JY5515               1AZ
105619002105619112-116069     105619006009681820277TCS CARRIER BAG JUMBO  0000001000+00000048+00000+0001T   00000048+0000001226          1400 JY5090               1AZ
105619003105619018-000177     105619006001023797513MUG MINI LOVE ASSTD    0000003000+00000700+00000+0001T   00000700+0000001226          1400 JY5515               1AZ
105620000105620               105620               170213HO     1400+00000+HO0000004431+0000004431+000000000+000000622+0000005053+0000000000+I40000005053+0000000000+Z
105620001105620077-000512     105620006003000590223GIFT-BAG DESIGNER LRG  0000001000+00002630+00000+0001T   00002630+0000001227          1400 JY5112               1AZ
105620002105620077-000330     105620006001023745408GIFT-BAG 18X23CM WEDGE 0000001000+00001753+00000+0001T   00001753+0000001227          1400 JY5112               1AZ
105620003105620112-116069     105620006009681820277TCS CARRIER BAG JUMBO  0000001000+00000048+00000+0001T   00000048+0000001227          1400 JY5090               1AZ
105621000105621               105621               170213HO     1400+00000+HO0000002541+0000002541+000000000+000000357+0000002890+0000000008+I20000000000+0000002890+Z
105621001105621903-000200     105621006009826020234SWT CHOC RP CHOCO 23G  0000001000+00000788+00000+0001T   00000788+0000001228          1400 JY5150               1AZ
105621002105621046-002013-PK6 105621004897006174851BATTERY BUTTON AG13 6PC0000001000+00001753+00000+0001T   00001753+0000001228          1400 JY5312               1AZ
105622000105622               105622               170213HO     1400+00000+HO0000007398+0000007398+000000000+000001038+0000008436+0000000000+I40000008436+0000000000+Z
105622001105622071-003004     105622006003000662821PEN BALL POINT 3PC BLUE0000001000+00000876+00000+0001T   00000876+0000001230          1400 JY5130               1AZ
105622002105622071-001362     105622006003000589258HIGHLIGHTER 4 PACK     0000001000+00002630+00000+0001T   00002630+0000001230          1400 JY5130               1AZ
105622003105622071-030014     105622006003000284085PEN NVLTY METALLIC 6PC 0000001000+00002630+00000+0001T   00002630+0000001230          1400 JY5130               1AZ
105622004105622071-081104-A   105622006003000326662GLUE-STICK 8g CRD-OF-3 0000001000+00001227+00000+0001T   00001227+0000001230          1400 JY5130               1AZ
105622005105622112-116038     105622006009681820246TCS CARRIER BAG MIDI   0000001000+00000035+00000+0001T   00000035+0000001230          1400 JY5090               1AZ
105623000105623               105623               170213HO     1400+00000+HO0000007799+0000007799+000000000+000001096+0000008895+0000000000+I40000008895+0000000000+Z
105623001105623565-000040     105623006008766115635NOVELTY ICON BEANIE    0000002000+00002630+00000+0001T   00002630+0000001232          1400 JY5745               1AZ
105623002105623903-000912     105623006009802868461SWT GUM TAPE HOT WHEELS0000001000+00001753+00000+0001T   00001753+0000001232          1400 JY5150               1AZ
105623003105623903-000183     105623006003000451043SWT LB HEART LOLLY     0000002000+00000393+00000+0001T   00000393+0000001232          1400 JY5150               1AZ
105624000105624               105624               170213HO     1400+00000+HO0000008989+0000008989+000000000+000001260+0000010249+0000000000+I40000010249+0000000000+Z
105624001105624071-005214     105624006003000152544CELLOTAPE SUPER REFILL 0000001000+00001490+00000+0001T   00001490+0000001234          1400 JY5130               1AZ
105624002105624031-000002-A   105624006003000247103P/FRAME LOVE 7.5X7.5CM 0000001000+00003507+00000+0001T   00003507+0000001234          1400 JY5510               1AZ
105624003105624077-000011-C   105624006001023808523TISSUE 10xSHTS RED     0000002000+00000876+00000+0001T   00000876+0000001234          1400 JY5112               1AZ
105624004105624080-000127     105624006003000424351VALENTINES DAY 36x24CM 0000001000+00002192+00000+0001T   00002192+0000001234          1400 JY5112               1AZ
105624005105624112-116069     105624006009681820277TCS CARRIER BAG JUMBO  0000001000+00000048+00000+0001T   00000048+0000001234          1400 JY5090               1AZ
105625000105625               105625               170213HO     1400+00000+HO0000003104+0000003104+000000000+000000435+0000003530+0000000009+I20000000000+0000003530+Z
105625001105625306-001680     105625006003000365081MANICURE NAIL ART KIT  0000001000+00003069+00000+0001T   00003069+0000001235          1400 JY5200               1AZ
105625002105625112-116038     105625006009681820246TCS CARRIER BAG MIDI   0000001000+00000035+00000+0001T   00000035+0000001235          1400 JY5090               1AZ
105626000105626               105626               170213HO     1400+00000+HO0000008627+0000008627+000000000+000001208+0000009830+0000000005+I20000000000+0000009830+Z
105626001105626301-085004     105626006003000420469ORN LOVE PLAQUE 21X10CM0000001000+00003507+00000+0001T   00003946+0006471239          1400 JY5505               1AZ
105626002105626018-000136     105626006001023659026MUG OCC LOVE W/PLUSH   0000001000+00003507+00000+0001T   00003507+0000001239          1400 JY5515               1AZ
105626003105626077-000303     105626006001023593757GIFT-BAG PAPER MED     0000001000+00001578+00000+0001T   00001578+0000001239          1400 JY5112               1AZ
105626004105626112-116038     105626006009681820246TCS CARRIER BAG MIDI   0000001000+00000035+00000+0001T   00000035+0000001239          1400 JY5090               1AZ
105627000105627               105627               170213HO     1400+00000+HO0000003768+0000003768+000000000+000000529+0000004297+0000000000+I40000004297+0000000000+Z
105627001105627903-000200     105627006009826020234SWT CHOC RP CHOCO 23G  0000002000+00000788+00000+0001T   00000788+0000001243          1400 JY5150               1AZ
105627002105627018-000170     105627006001023775528MUG OCC. LOVE 2PC MINI 0000001000+00002192+00000+0001T   00002192+0000001243          1400 JY5515               1AZ
105628000105628               105628               170213HO     1400+00000+HO0000013701+0000013701+000000000+000001926+0000015627+0000000000+I40000015627+0000000000+Z
105628001105628079-003009     105628006003000448722A/TUBE 75ML NATURAL    0000001000+00001753+00000+0001T   00001753+0000001245          1400 JY5130               1AZ
105628002105628079-003012     105628006003000447893A/TUBE 75ML VIOLET     0000001000+00001753+00000+0001T   00001753+0000001245          1400 JY5130               1AZ
105628003105628077-000303     105628006001023593757GIFT-BAG PAPER MED     0000001000+00001578+00000+0001T   00001578+0000001245          1400 JY5112               1AZ
105628004105628903-000200     105628006009826020234SWT CHOC RP CHOCO 23G  0000007000+00000788+00000+0001T   00000788+0000001245          1400 JY5150               1AZ
105628005105628079-006494     105628006003000159864GLITTER GLUE 5PCE 11cm 0000001000+00001490+00000+0001T   00001490+0000001245          1400 JY5130               1AZ
105628006105628112-116038     105628006009681820246TCS CARRIER BAG MIDI   0000001000+00000035+00000+0001T   00000035+0000001245          1400 JY5090               1AZ
105628007105628903-000200     105628006009826020234SWT CHOC RP CHOCO 23G  0000002000+00000788+00000+0001T   00000788+0000001245          1400 JY5150               1AZ
105629000105629               105629               170213HO     1400+00000+HO0000002630+0000002630+000000000+000000369+0000002990+0000000009+I20000000000+0000002990+Z
105629001105629306-001622     105629006003000450091INNER SOLES 1-PAIR     0000001000+00002630+00000+0001T   00002630+0000001246          1400 JY5200               1AZ
105630000105630               105630               170213HO     1400+00000+HO0000016999+0000016999+000000000+000002386+0000019385+0000000000+I40000019385+0000000000+Z
105630001105630046-000012-A   105630006003000208296BATTERIES H/POWER SZ:AA0000002000+00002192+00000+0001T   00002192+0000001249          1400 JY5312               1AZ
105630002105630079-105611     105630006003000249596ART+CRAFT INK PAD 1CLR 0000001000+00002630+00000+0001T   00002630+0000001249          1400 JY5130               1AZ
105630003105630079-012208     105630006001023801081ART + CRAFT SET STAMP  0000001000+00003507+00000+0001T   00003507+0000001249          1400 JY5130               1AZ
105630004105630077-000314     105630006003000181148GIFT-BAG 11X14CM MATT  0000001000+00000876+00000+0001T   00000876+0000001249          1400 JY5112               1AZ
105630005105630903-000183     105630006003000451043SWT LB HEART LOLLY     0000004000+00000393+00000+0001T   00000393+0000001249          1400 JY5150               1AZ
105630006105630080-000142     105630006003000662456CARD & ENV GIANT AFRI  0000001000+00002630+00000+0001T   00002630+0000001249          1400 JY5112               1AZ
105630007105630018-000177     105630006001023797513MUG MINI LOVE ASSTD    0000002000+00000700+00000+0001T   00000700+0000001249          1400 JY5515               1AZ
105631000105631               105631               170213HO     1400+00000+HO0000014239+0000014239+000000000+000001996+0000016230+0000000005+I20000000000+0000016230+Z
105631001105631304-001011     105631006001023806727FLWR ROSE RED W/BEAR   0000001000+00000613+00000+0001T   00000788+0006471256          1400 JY5510               1AZ
105631002105631039-000108     105631006001023524034TEA-LITE CANDLES 8PCE  0000001000+00001490+00000+0001T   00001490+0000001256          1400 JY5510               1AZ
105631003105631018-000129     105631006001023403353MUG OCC. LOVE V-SHAPE  0000001000+00002630+00000+0001T   00002630+0000001256          1400 JY5515               1AZ
105631004105631112-116038     105631006009681820246TCS CARRIER BAG MIDI   0000001000+00000035+00000+0001T   00000035+0000001256          1400 JY5090               1AZ
105631005105631301-085007     105631006003000673698ORN OCC. LOVE S/PLAQUE 0000001000+00007893+00000+0001T   00007893+0000001256          1400 JY5505               1AZ
105631006105631077-000303     105631006001023593757GIFT-BAG PAPER MED     0000001000+00001578+00000+0001T   00001578+0000001256          1400 JY5112               1AZ
105632000105632               105632               170213HO     1400+00000+HO0000000876+0000000876+000000000+000000123+0000000990+0000000009+I20000000000+0000000990+Z
105632001105632083-000295     105632006001023898562LIGHTER-GAS BUTANE 18ml0000001000+00000876+00000+0001T   00000876+0000001300          1400 JY5315               1AZ
105633000105633               105633               170213HO     1400+00000+HO0000010520+0000010520+000000000+000001476+0000011996+0000000000+I40000011996+0000000000+Z
105633001105633206-000450     105633006003000619863DRINKING JAR GLOBE     0000004000+00002630+00000+0001T   00002630+0000001307          1400 JY5321               1AZ
105634000105634               105634               170213HO     1400+00000+HO0000009329+0000009329+000000000+000001307+0000010636+0000000000+I10000009736+0000000900+Z
105634001105634567-013439     105634009781775785774EK KAN LEES ASSTD      0000001000+00003507+00000+0001T   00003507+0000001315          1400 JY5757               1AZ
105634002105634903-000925     105634006009706300296SWT NOVELTY SURPRISE   0000001000+00001402+00000+0001T   00001402+0000001315          1400 JY5150               1AZ
105634003105634362-000107     105634006003000608799MAKE-UP GIRL BEAUTY-SET0000001000+00004385+00000+0001T   00004385+0000001315          1400 JY5160               1AZ
105634004105634112-116038     105634006009681820246TCS CARRIER BAG MIDI   0000001000+00000035+00000+0001T   00000035+0000001315          1400 JY5090               1AZ
105635000105635               105635               170213HO     1400+00000+HO0000006121+0000006121+000000000+000000859+0000006980+0000000000+I20000000000+0000006980+Z
105635001105635018-000177     105635006001023797513MUG MINI LOVE ASSTD    0000001000+00000700+00000+0001T   00000700+0000001318          1400 JY5515               1AZ
105635002105635903-000517     105635006001704012768SWT STRAWS FIZZY CHERRY0000001000+00001227+00000+0001T   00001227+0000001318          1400 JY5150               1AZ
105635003105635903-000155     105635006009803374435SWT LOLLY I LUV U HEART0000001000+00000525+00000+0001T   00000525+0000001318          1400 JY5150               1AZ
105635004105635077-000311     105635006001023608666GIFT-BAG 11X14CM GLOSS 0000001000+00000613+00000+0001T   00000613+0000001318          1400 JY5112               1AZ
105635005105635903-000183     105635006003000451043SWT LB HEART LOLLY     0000001000+00000393+00000+0001T   00000393+0000001318          1400 JY5150               1AZ
105635006105635112-116038     105635006009681820246TCS CARRIER BAG MIDI   0000001000+00000035+00000+0001T   00000035+0000001318          1400 JY5090               1AZ
105635007105635903-000194     105635006009826020616SWT CHOC RP LOLLY 25G  0000002000+00001314+00000+0001T   00001314+0000001318          1400 JY5150               1AZ
105636000105636               105636               170213HO     1400+00000+HO0000003154+0000003154+000000000+000000443+0000003590+0000000007+I20000000000+0000003590+Z
105636001105636903-000155     105636006009803374435SWT LOLLY I LUV U HEART0000001000+00000525+00000+0001T   00000525+0000001323          1400 JY5150               1AZ
105636002105636039-000319-7   105636006003000443109B/CANDLES LRG NUMBER-7 0000001000+00000876+00000+0001T   00000876+0000001323          1400 JY5510               1AZ
105636003105636006-005902     105636006001023823175PARTY FAVOUR ASSTD 6PCE0000001000+00001753+00000+0001T   00001753+0000001323          1400 JY5131               1AZ
105637000105637               105637               170213HO     1400+00000+HO0000001753+0000001753+000000000+000000246+0000001999+0000000000+I40000001999+0000000000+Z
105637001105637016-006514     105637006003000295432S/JAR EMBOSSED 500ML   0000001000+00001753+00000+0001T   00001753+0000001333          1400 JY5300               1AZ
105638000105638               105638               170213HO     1400+00000+HO0000005262+0000005262+000000000+000000737+0000005990+0000000009+I20000000000+0000005990+Z
105638001105638263-000145     105638006001023708298MOTORBIKE PL           0000001000+00005262+00000+0001T   00005262+0000001335          1400 JY5710               1AZ
105639000105639               105639               170213HO     1400+00000+HO0000012455+0000012455+000000000+000001767+0000014220+0000000002+I20000000000+0000014220+Z
105639001105639566-000858     105639006001023760975STCKRS G/OUTLINE ASSTD 0000001000+00000788+00000+0001T   00000788+0000001337          1400 JY5130               1AZ
105639002105639903-000194     105639006009826020616SWT CHOC RP LOLLY 25G  0000002000+00001314+00000+0001T   00001314+0000001337          1400 JY5150               1AZ
105639003105639903-000183     105639006003000451043SWT LB HEART LOLLY     0000023000+00000393+00000+0001T   00000393+0000001337          1400 JY5150               1AZ
105640000105640               105640               170213HO     1400+00000+HO0000005310+0000005310+000000000+000000744+0000006054+0000000000+I40000006054+0000000000+Z
105640001105640263-000623     105640006001023905697VEHICLE HELICOPTER 30cm0000001000+00005262+00000+0001T   00005262+0000001339          1400 JY5710               1AZ
105640002105640112-116069     105640006009681820277TCS CARRIER BAG JUMBO  0000001000+00000048+00000+0001T   00000048+0000001339          1400 JY5090               1AZ
105641000105641               105641               170213HO     1400+00000+HO0000025462+0000025462+000000000+000003565+0000029027+0000000000+I40000029027+0000000000+Z
105641001105641567-011301     105641009781928231165BOOK READER AFR DISNEY 0000001000+00004385+00000+0001T   00004385+0000001342          1400 JY5757               1AZ
105641002105641567-013439     105641009781775785798EK KAN LEES ASSTD      0000001000+00003507+00000+0001T   00003507+0000001342          1400 JY5757               1AZ
105641003105641567-013439     105641009781775785767EK KAN LEES ASSTD      0000001000+00003507+00000+0001T   00003507+0000001342          1400 JY5757               1AZ
105641004105641567-013439     105641009781775785774EK KAN LEES ASSTD      0000001000+00003507+00000+0001T   00003507+0000001342          1400 JY5757               1AZ
105641005105641567-013439     105641009781775785750EK KAN LEES ASSTD      0000001000+00003507+00000+0001T   00003507+0000001342          1400 JY5757               1AZ
105641006105641567-013439     105641009781775785781EK KAN LEES ASSTD      0000001000+00003507+00000+0001T   00003507+0000001342          1400 JY5757               1AZ
105641007105641567-013439     105641009781775785590EK KAN LEES ASSTD      0000001000+00003507+00000+0001T   00003507+0000001342          1400 JY5757               1AZ
105641008105641112-116038     105641006009681820246TCS CARRIER BAG MIDI   0000001000+00000035+00000+0001T   00000035+0000001342          1400 JY5090               1AZ
105642000105642               105642               170213HO     1400+00000+HO0000009206+0000009206+000000000+000001289+0000010490+0000000005+I20000000000+0000010490+Z
105642001105642087-000102     105642006003000137466HAIR TRIMMER SET       0000001000+00003507+00000+0001T   00003507+0000001344          1400 JY5200               1AZ
105642002105642046-000012-A   105642006003000208296BATTERIES H/POWER SZ:AA0000001000+00002192+00000+0001T   00002192+0000001344          1400 JY5312               1AZ
105642003105642031-000002-A   105642006003000247103P/FRAME LOVE 7.5X7.5CM 0000001000+00003507+00000+0001T   00003507+0000001344          1400 JY5510               1AZ
105643000105643               105643               170213HO     1400+00000+HO0000000035+0000000035+000000000+000000005+0000000040+0000000000+I20000000000+0000000040+Z
105643001105643112-116038     105643006009681820246TCS CARRIER BAG MIDI   0000001000+00000035+00000+0001T   00000035+0000001345          1400 JY5090               1AZ
105644000105644               105644               170213HO     1400+00000+HO0000013538+0000013538+000000000+000001897+0000015430+0000000005+I20000000000+0000015430+Z
105644001105644562-000009     105644000730589212029PLAY MODELLING CARDED  0000003000+00002455+00000+0001T   00002455+0000001350          1400 JY5755               1AZ
105644002105644079-003020     105644006003000662944PAINT ACRYLIC SET TUBE 0000001000+00005262+00000+0001T   00005262+0000001350          1400 JY5130               1AZ
105644003105644083-000295     105644006001023898562LIGHTER-GAS BUTANE 18ml0000001000+00000876+00000+0001T   00000876+0000001350          1400 JY5315               1AZ
105644004105644112-116038     105644006009681820246TCS CARRIER BAG MIDI   0000001000+00000035+00000+0001T   00000035+0000001350          1400 JY5090               1AZ
105645000105645               105645               170213HO     1400+00000+HO0000013150+0000013150+000000000+000001844+0000014994+0000000000+I40000014994+0000000000+Z
105645001105645079-013101     105645006001023863706CRAFT SET DIY PIPE-CLNR0000001000+00002630+00000+0001T   00002630+0000001402          1400 JY5130               1AZ
105645002105645079-013099     105645006003000081875ART+CRAFT EYES ASSTD   0000001000+00001753+00000+0001T   00001753+0000001402          1400 JY5130               1AZ
105645003105645362-002467     105645006003000167623HAIR EXT LONG 61cm     0000001000+00003507+00000+0001T   00003507+0000001402          1400 JY5160               1AZ
105645004105645079-006525     105645006003000681938MASKING FABRIC 10PC    0000002000+00002630+00000+0001T   00002630+0000001402          1400 JY5130               1AZ
105646000105646               105646               170213HO     1400+00000+HO0000004420+0000004420+000000000+000000619+0000005030+0000000009+I20000000000+0000005030+Z
105646001105646368-000001     105646006003000097982Plush Bear 25cm        0000001000+00004385+00000+0001T   00004385+0000001403          1400 JY5745               1AZ
105646002105646112-116038     105646006009681820246TCS CARRIER BAG MIDI   0000001000+00000035+00000+0001T   00000035+0000001403          1400 JY5090               1AZ
105647000105647               105647               170213HO     1400+00000+HO0000007927+0000007927+000000000+000001111+0000009030+0000000008+I20000000000+0000009030+Z
105647001105647112-116038     105647006009681820246TCS CARRIER BAG MIDI   0000001000+00000035+00000+0001T   00000035+0000001406          1400 JY5090               1AZ
105647002105647562-088335     105647006003000425372EVA PUZZLE MAT MINI    0000001000+00001753+00000+0001T   00001753+0000001406          1400 JY5755               1AZ
105647003105647263-000284     105647006001023789969CAR PL FRICTION 24cm   0000001000+00006139+00000+0001T   00006139+0000001406          1400 JY5710               1AZ
105648000105648               105648               170213HO     1400+00000+HO0000001227+0000001227+000000000+000000172+0000001390+0000000009+I20000000000+0000001390+Z
105648001105648266-001304     105648006001023560711MARBLES MILKY BAG OF 450000001000+00001227+00000+0001T   00001227+0000001406          1400 JY5710               1AZ
105649000105649               105649               170213HO     1400+00000+HO0000003506+0000003506+000000000+000000492+0000003998+0000000000+I40000003998+0000000000+Z
105649001105649565-000056     105649006003000643325NOVELTY FINGER BEAMS   0000001000+00001753+00000+0001T   00001753+0000001409          1400 JY5745               1AZ
105649002105649565-000055     105649006003000028252NOVELTY B/O FINGR-BEAMS0000001000+00001753+00000+0001T   00001753+0000001409          1400 JY5745               1AZ
105650000105650               105650               170213HO     1400+00000+HO0000002630+0000002630+000000000+000000369+0000002990+0000000009+I20000000000+0000002990+Z
105650001105650077-000235     105650006003000160211GIFT-RIBBON ROLL METALC0000001000+00002630+00000+0001T   00002630+0000001410          1400 JY5112               1AZ
105651000105651               105651               170213HO     1400+00000+HO0000001753+0000001753+000000000+000000246+0000001990+0000000009+I20000000000+0000001990+Z
105651001105651903-000610     105651006003000610518SWEET JUMBO BUBBLE GUM 0000001000+00001753+00000+0001T   00001753+0000001410          1400 JY5150               1AZ
105652000105652               105652               170213HO     1400+00000+HO0000003943+0000003943+000000000+000000554+0000004497+0000000000+I40000004497+0000000000+Z
105652001105652077-000115     105652006001023834225WRAP METALLIC 700mmx1m 0000001000+00001753+00000+0001T   00001753+0000001412          1400 JY5112               1AZ
105652002105652077-000299-A   105652006003000670888GIFT-BAG PAPER JMB LOVE0000001000+00001753+00000+0001T   00001753+0000001412          1400 JY5112               1AZ
105652003105652080-000133-A   105652006003000647019MINI VALENTINES CARD   0000001000+00000437+00000+0001T   00000437+0000001412          1400 JY5112               1AZ
105653000105653               105653               170213HO     1400+00000+HO0000001753+0000001753+000000000+000000246+0000001990+0000000009+I20000000000+0000001990+Z
105653001105653077-000299-A   105653006003000670888GIFT-BAG PAPER JMB LOVE0000001000+00001753+00000+0001T   00001753+0000001413          1400 JY5112               1AZ
105654000105654               105654               170213HO     1400+00000+HO0000001578+0000001578+000000000+000000221+0000001790+0000000009+I20000000000+0000001790+Z
105654001105654018-000127     105654006001023380289MUG OCC STRAIGHT LOVE  0000001000+00001578+00000+0001T   00001753+0006471413          1400 JY5515               1AZ
105655000105655               105655               170213HO     1400+00000+HO0000003156+0000003156+000000000+000000442+0000003590+0000000008+I20000000000+0000003590+Z
105655001105655028-000799     105655006001023812186SKEWERS BAMBOO 100PCE  0000002000+00001578+00000+0001T   00001578+0000001414          1400 JY5305               1AZ
105656000105656               105656               170213HO     1400+00000+HO0000003507+0000003507+000000000+000000491+0000003990+0000000008+I20000000000+0000003990+Z
105656001105656018-000130     105656006001023867537MUG OCC LOVE MINI+HEART0000001000+00003507+00000+0001T   00003507+0000001536          1400 JY5515               1AZ
105657000105657               105657               170213HO     1400+00000+HO0000004997+0000004997+000000000+000000700+0000005690+0000000007+I20000000000+0000005690+Z
105657001105657077-000452     105657006003000284986G/BAG METALLIC MED EMB 0000001000+00001490+00000+0001T   00001490+0000001538          1400 JY5112               1AZ
105657002105657031-086102     105657006001023900722P/FRAME PL WORD-TOP 4AS0000001000+00003507+00000+0001T   00003507+0000001538          1400 JY5510               1AZ
105658000105658               105658               170213HO     1400+00000+HO0000001490+0000001490+000000000+000000209+0000001690+0000000009+I20000000000+0000001690+Z
105658001105658079-006494     105658006003000159864GLITTER GLUE 5PCE 11cm 0000001000+00001490+00000+0001T   00001490+0000001539          1400 JY5130               1AZ
105659000105659               105659               170213HO     1400+00000+HO0000009380+0000009380+000000000+000001316+0000010696+0000000000+I40000010696+0000000000+Z
105659001105659261-009924     105659006001023622204WATER-PISTOL SQUIRTER  0000003000+00002630+00000+0001T   00002630+0000001604          1400 JY5710               1AZ
105659002105659466-001801     105659006001023343482BALLS TABLE-TENNIS BOX60000001000+00001490+00000+0001T   00001490+0000001604          1400 JY5785               1AZ
105660000105660               105660               170213HO     1400+00000+HO0000002629+0000002629+000000000+000000369+0000002990+0000000008+I20000000000+0000002990+Z
105660001105660036-000011     105660006003000675890LINT REMOVER REFILL    0000001000+00000876+00000+0001T   00000876+0000001605          1400 JY5212               1AZ
105660002105660036-000010     105660006003000675777LINT REMOVER STICKY    0000001000+00001753+00000+0001T   00001753+0000001605          1400 JY5212               1AZ
105661000105661               105661               170213HO     1400+00000+HO0000009904+0000009904+000000000+000001389+0000011293+0000000000+I40000011293+0000000000+Z
105661001105661903-000848     105661008692806080076SWT SNACK BISCUIT 70g  0000001000+00000613+00000+0001T   00000613+0000001614          1400 JY5150               1AZ
105661002105661903-000155     105661006009803374435SWT LOLLY I LUV U HEART0000001000+00000525+00000+0001T   00000525+0000001614          1400 JY5150               1AZ
105661003105661080-000102     105661006003000236855CARD&ENVLP FEMALE AFR  0000001000+00001753+00000+0001T   00001753+0000001614          1400 JY5112               1AZ
105661004105661031-000020     105661006001023675293PICTURE-FRAME PL HEART 0000001000+00003507+00000+0001T   00003507+0000001614          1400 JY5510               1AZ
105661005105661077-000011-C   105661006001023808523TISSUE 10xSHTS RED     0000001000+00000876+00000+0001T   00000876+0000001614          1400 JY5112               1AZ
105661006105661031-000872-A   105661006001023798718P/FRAME PL BRONZE 10X150000001000+00002630+00000+0001T   00002630+0000001614          1400 JY5510               1AZ
105662000105662               105662               170213HO     1400+00000+HO0000001753+0000001753+000000000+000000246+0000001999+0000000000+I40000001999+0000000000+Z
105662001105662562-088335     105662006003000425372EVA PUZZLE MAT MINI    0000001000+00001753+00000+0001T   00001753+0000001616          1400 JY5755               1AZ
105663000105663               105663               170213HO     1400+00000+HO0000010558+0000010558+000000000+000001480+0000012030+0000000008+I20000000000+0000012030+Z
105663001105663301-085007     105663006003000673698ORN OCC. LOVE S/PLAQUE 0000001000+00007893+00000+0001T   00007893+0000001618          1400 JY5505               1AZ
105663002105663018-000129     105663006001023403353MUG OCC. LOVE V-SHAPE  0000001000+00002630+00000+0001T   00002630+0000001618          1400 JY5515               1AZ
105663003105663112-116038     105663006009681820246TCS CARRIER BAG MIDI   0000001000+00000035+00000+0001T   00000035+0000001618          1400 JY5090               1AZ
105664000105664               105664               170213HO     1400+00000+HO0000003945+0000003945+000000000+000000553+0000004498+0000000000+I40000004498+0000000000+Z
105664001105664079-013032     105664006003000389209SET LETTERS 2 ASSTD    0000001000+00001753+00000+0001T   00001753+0000001619          1400 JY5130               1AZ
105664002105664567-004957     105664009780636049086TYB G02 ENGLISH        0000001000+00002192+00000+0001T   00002192+0000001619          1400 JY5757               1AZ
105665000105665               105665               170213HO     1400+00000+HO0000004285+0000004285+000000000+000000601+0000004880+0000000006+I20000000000+0000004880+Z
105665001105665112-116038     105665006009681820246TCS CARRIER BAG MIDI   0000001000+00000035+00000+0001T   00000035+0000001620          1400 JY5090               1AZ
105665002105665200-003019     105665006003000510856REFUSE BAGS 10PC D/STRN0000001000+00001314+00000+0001T   00001753+0008171620          1400 JY5214               1AZ
105665003105665142-000812     105665006003000165421GLOVES LATEX 10PCE-5PRS0000001000+00002630+00000+0001T   00002630+0000001620          1400 JY5810               1AZ
105665004105665306-000020     105665006001023743145POCKET-TISSUES 10PCE   0000001000+00000306+00000+0001T   00000306+0000001620          1400 JY5200               1AZ
105666000105666               105666               170213HO     1400+00000+HO0000055005+0000055005+000000000+000007712+0000062717+0000000000+I40000062717+0000000000+Z
105666001105666903-000095     105666006001704011495SWT SPECKLED-EGGS 100G 0000003000+00002104+00000+0001T   00002104+0000001633          1400 JY5150               1AZ
105666002105666903-000843     105666008693029031067SWT GUMMY JELAXY 80G   0000001000+00000964+00000+0001T   00000964+0000001633          1400 JY5150               1AZ
105666003105666903-004951     105666006002580020328SWT MALLOW MINI M/SHAKE0000001000+00001227+00000+0001T   00001227+0000001633          1400 JY5150               1AZ
105666004105666903-000510     105666006001704012621SWEET MS ZBDZ S/BERRY  0000001000+00001227+00000+0001T   00001227+0000001633          1400 JY5150               1AZ
105666005105666903-004951     105666006002580020328SWT MALLOW MINI M/SHAKE0000003000+00001227+00000+0001T   00001227+0000001633          1400 JY5150               1AZ
105666006105666903-000843     105666008693029031067SWT GUMMY JELAXY 80G   0000004000+00000964+00000+0001T   00000964+0000001633          1400 JY5150               1AZ
105666007105666903-000120     105666006002099001665SWEET GS ZILLIONS 50g  0000003000+00000700+00000+0001T   00000700+0000001633          1400 JY5150               1AZ
105666008105666903-004951     105666006002580020328SWT MALLOW MINI M/SHAKE0000001000+00001227+00000+0001T   00001227+0000001633          1400 JY5150               1AZ
105666009105666018-000170     105666006001023775528MUG OCC. LOVE 2PC MINI 0000004000+00002192+00000+0001T   00002192+0000001633          1400 JY5515               1AZ
105666010105666301-085002     105666006003000420704ORN OCC. LOVE BELL ASST0000003000+00001753+00000+0001T   00002630+0008121633          1400 JY5505               1AZ
105666011105666016-006425     105666006001023998170S/JAR GLS CLIP W/RIBBON0000004000+00002630+00000+0001T   00002630+0000001633          1400 JY5300               1AZ
105666012105666016-006516     105666006003000351503S/JAR GLS CHECK 150ML  0000006000+00001490+00000+0001T   00001490+0000001633          1400 JY5300               1AZ
105666013105666903-003051     105666008024431008703SWT CHOCO PARTY 25G    0000001000+00000876+00000+0001T   00000876+0000001633          1400 JY5150               1AZ
105666014105666112-116069     105666006009681820277TCS CARRIER BAG JUMBO  0000001000+00000048+00000+0001T   00000048+0000001633          1400 JY5090               1AZ
105667000105667               105667               170213HO     1400+00000+HO0000002677+0000002677+000000000+000000376+0000003050+0000000003+I20000000000+0000003050+Z
105667001105667080-000127     105667006003000424351VALENTINES DAY 36x24CM 0000001000+00002192+00000+0001T   00002192+0000001647          1400 JY5112               1AZ
105667002105667080-000133-A   105667006003000647019MINI VALENTINES CARD   0000001000+00000437+00000+0001T   00000437+0000001647          1400 JY5112               1AZ
105667003105667112-116069     105667006009681820277TCS CARRIER BAG JUMBO  0000001000+00000048+00000+0001T   00000048+0000001647          1400 JY5090               1AZ
105668000105668               105668               170213HO     1400+00000+HO0000006434+0000006434+000000000+000000901+0000007330+0000000005+I20000000000+0000007330+Z
105668001105668077-000303     105668006001023593757GIFT-BAG PAPER MED     0000001000+00001578+00000+0001T   00001578+0000001648          1400 JY5112               1AZ
105668002105668903-005002     105668006002580020021SWT MALLOW SNAKE 120g  0000001000+00001314+00000+0001T   00001314+0000001648          1400 JY5150               1AZ
105668003105668018-000136     105668006001023659026MUG OCC LOVE W/PLUSH   0000001000+00003507+00000+0001T   00003507+0000001648          1400 JY5515               1AZ
105668004105668112-116038     105668006009681820246TCS CARRIER BAG MIDI   0000001000+00000035+00000+0001T   00000035+0000001648          1400 JY5090               1AZ
105669000105669               105669               170213HO     1400+00000+HO0000004383+0000004383+000000000+000000615+0000004990+0000000008+I20000000000+0000004990+Z
105669001105669071-002896     105669006003000144129CALCULATOR MINI 8 DIGIT0000001000+00002630+00000+0001T   00002630+0000001654          1400 JY5130               1AZ
105669002105669007-000192     105669006009635830062BOOK H/COVER A4 192PAGE0000001000+00001753+00000+0001T   00001753+0000001654          1400 JY5130               1AZ
105670000105670               105670               170213HO     1400+00000+HO0000005262+0000005262+000000000+000000737+0000005999+0000000000+I40000005999+0000000000+Z
105670001105670263-000623     105670006001023905697VEHICLE HELICOPTER 30cm0000001000+00005262+00000+0001T   00005262+0000001657          1400 JY5710               1AZ
105671000105671               105671               170213HO     1400+00000+HO0000003592+0000003592+000000000+000000504+0000004090+0000000006+I20000000000+0000004090+Z
105671001105671903-000155     105671006009803374435SWT LOLLY I LUV U HEART0000002000+00000525+00000+0001T   00000525+0000001658          1400 JY5150               1AZ
105671002105671903-000843     105671008693029031067SWT GUMMY JELAXY 80G   0000001000+00000964+00000+0001T   00000964+0000001658          1400 JY5150               1AZ
105671003105671028-000799     105671006001023812186SKEWERS BAMBOO 100PCE  0000001000+00001578+00000+0001T   00001578+0000001658          1400 JY5305               1AZ
105672000105672               105672               170213HO     1400+00000+HO0000002980+0000002980+000000000+000000418+0000003398+0000000000+I40000003398+0000000000+Z
105672001105672077-000399     105672006003000139514GIFT BAG 18X23CM E/DAY 0000002000+00001490+00000+0001T   00001490+0000001659          1400 JY5112               1AZ
105673000105673               105673               170213HO     1400+00000+HO0000003507+0000003507+000000000+000000491+0000003990+0000000008+I20000000000+0000003990+Z
105673001105673018-000136     105673006001023659026MUG OCC LOVE W/PLUSH   0000001000+00003507+00000+0001T   00003507+0000001700          1400 JY5515               1AZ
105674000105674               105674               170213HO     1400+00000+HO0000007014+0000007014+000000000+000000982+0000007996+0000000000+I40000007996+0000000000+Z
105674001105674018-000136     105674006001023659026MUG OCC LOVE W/PLUSH   0000002000+00003507+00000+0001T   00003507+0000001702          1400 JY5515               1AZ
105675000105675               105675               170213HO     1400+00000+HO0000004119+0000004119+000000000+000000578+0000004697+0000000000+I40000004697+0000000000+Z
105675001105675108-003023     105675006003000665471TUMBLER W/STRAW 550ml  0000001000+00002630+00000+0001T   00002630+0000001703          1400 JY5210               1AZ
105675002105675083-000055     105675006003000003853LIGHTER ELCTRNC REFILBL0000001000+00000613+00000+0001T   00000613+0000001703          1400 JY5315               1AZ
105675003105675083-000295     105675006001023898562LIGHTER-GAS BUTANE 18ml0000001000+00000876+00000+0001T   00000876+0000001703          1400 JY5315               1AZ
105676000105676               105676               170213HO     1400+00000+HO0000002192+0000002192+000000000+000000307+0000002490+0000000009+I20000000000+0000002490+Z
105676001105676030-004015     105676006003000467624PLAQUE WDN SIGN 30X20CM0000001000+00009648+00000+0001T   00009648+0000001706          1400 JY5505               1AZ
105676002105676080-000127     105676006003000424351VALENTINES DAY 36x24CM 0000001000+00002192+00000+0001T   00002192+0000001706          1400 JY5112               1AZ
105676003105676030-004015     105676006003000467624PLAQUE WDN SIGN 30X20CM0000001000-00009648+00000+0001T   00009648+0000001706          1400 JY55052IC            1 Z
105677000105677               105677               170213HO     1400+00000+HO0000010085+0000010085+000000000+000001412+0000011497+0000000000+I40000011497+0000000000+Z
105677001105677113-000011     105677006001023711793FLASK S/S 350ml        0000001000+00008771+00000+0001T   00008771+0000001710          1400 JY5305               1AZ
105677002105677077-000312     105677006001023608697GIFT-BAG 10X35CM GLOSS 0000001000+00001314+00000+0001T   00001314+0000001710          1400 JY5112               1AZ
105678000105678               105678               170213HO     1400+00000+HO0000006138+0000006138+000000000+000000860+0000006998+0000000000+I40000006998+0000000000+Z
105678001105678369-001032     105678006001023796158BABY RATTLE SET 6PCE   0000001000+00004385+00000+0001T   00004385+0000001712          1400 JY5745               1AZ
105678002105678077-000328     105678006003000668939GIFT-BAG PAPER JMB     0000001000+00001753+00000+0001T   00001753+0000001712          1400 JY5112               1AZ
105679000105679               105679               170213HO     1400+00000+HO0000008771+0000008771+000000000+000001228+0000009990+0000000009+I20000000000+0000009990+Z
105679001105679031-001015     105679006003000674862P/FRAME COLLAGE 6-HOLE 0000001000+00008771+00000+0001T   00008771+0000001712          1400 JY5510               1AZ
105680000105680               105680               170213HO     1400+00000+HO0000002364+0000002364+000000000+000000333+0000002690+0000000007+I20000000000+0000002690+Z
105680001105680079-006494     105680006003000159864GLITTER GLUE 5PCE 11cm 0000001000+00001490+00000+0001T   00001490+0000001713          1400 JY5130               1AZ
105680002105680080-000133-A   105680006003000647019MINI VALENTINES CARD   0000002000+00000437+00000+0001T   00000437+0000001713          1400 JY5112               1AZ
105681000105681               105681               170213HO     1400+00000+HO0000005643+0000005643+000000000+000000793+0000006430+0000000006+I20000000000+0000006430+Z
105681001105681039-000020     105681006003000285785CANDLE BASIC 25CM GOLD 0000002000+00001051+00000+0001T   00001051+0000001719          1400 JY5510               1AZ
105681002105681040-000922     105681006001023587817CANDLE-HOLDER GLS 18cm 0000002000+00001753+00000+0001T   00001753+0000001719          1400 JY5510               1AZ
105681003105681112-116038     105681006009681820246TCS CARRIER BAG MIDI   0000001000+00000035+00000+0001T   00000035+0000001719          1400 JY5090               1AZ
105682000105682               105682               170213HO     1400+00000+HO0000001402+0000001402+000000000+000000197+0000001590+0000000009+I20000000000+0000001590+Z
105682001105682304-001204     105682006001023737984FLOWER OCC. TEDDY/ROSES0000001000+00001402+00000+0001T   00001490+0006471719          1400 JY5510               1AZ
105683000105683               105683               170213HO     1400+00000+HO0000008804+0000008804+000000000+000001234+0000010030+0000000008+I20000000000+0000010030+Z
105683001105683403-000029     105683006003000246816JEWEL BOX POLY FAIRY   0000001000+00006139+00000+0001T   00006139+0000001721          1400 JY5510               1AZ
105683002105683162-096645     105683006001492966458#TAG HOT DEALS KIDS    0000001000+00002630+00000+0001T   00002630+0000001721          1400 JY5160               1AZ
105683003105683112-116038     105683006009681820246TCS CARRIER BAG MIDI   0000001000+00000035+00000+0001T   00000035+0000001721          1400 JY5090               1AZ
105684000105684               105684               170213HO     1400+00000+HO0000003506+0000003506+000000000+000000492+0000003990+0000000008+I20000000000+0000003990+Z
105684001105684006-000114     105684006003000671939BALLOONS W/BOMBS 100PCE0000001000+00001753+00000+0001T   00001753+0000001722          1400 JY5131               1AZ
105684002105684006-000120     105684006001023346889BALLOONS 10PC MIX COL  0000001000+00001753+00000+0001T   00001753+0000001722          1400 JY5131               1AZ
105685000105685               105685               170213HO     1400+00000+HO0000001490+0000001490+000000000+000000209+0000001699+0000000000+I40000001699+0000000000+Z
105685001105685077-000452     105685006003000284986G/BAG METALLIC MED EMB 0000001000+00001490+00000+0001T   00001490+0000001723          1400 JY5112               1AZ
105686000105686               105686               170213HO     1400+00000+HO0000004385+0000004385+000000000+000000614+0000004990+0000000009+I20000000000+0000004990+Z
105686001105686368-000001     105686006003000097982Plush Bear 25cm        0000001000+00004385+00000+0001T   00004385+0000001727          1400 JY5745               1AZ
105687000105687               105687               170213HO     1400+00000+HO0000000876+0000000876+000000000+000000123+0000000999+0000000000+I40000000999+0000000000+Z
105687001105687039-000323     105687006001023524171BIRTHDAY-CANDLES 24PCE 0000001000+00000876+00000+0001T   00000876+0000001728          1400 JY5510               1AZ
105688000105688               105688               170213HO     1400+00000+HO0000002630+0000002630+000000000+000000369+0000002990+0000000009+I20000000000+0000002990+Z
105688001105688018-000129     105688006001023403353MUG OCC. LOVE V-SHAPE  0000001000+00002630+00000+0001T   00002630+0000001729          1400 JY5515               1AZ
105689000105689               105689               170213HO     1400+00000+HO0000004384+0000004384+000000000+000000614+0000004990+0000000008+I20000000000+0000004990+Z
105689001105689563-000318-L   105689006003000407088SERVIETTES 33cm RED    0000002000+00002192+00000+0001T   00002192+0000001731          1400 JY5214               1AZ
105690000105690               105690               170213HO     1400+00000+HO0000003507+0000003507+000000000+000000491+0000003998+0000000000+I40000003998+0000000000+Z
105690001105690562-000052     105690006003000112333EDU EXCAVATION DIAMOND 0000001000+00003507+00000+0001T   00003507+0000001733          1400 JY5755               1AZ
M17021301                              IT          HOATT UIT DPT                                     LAST TILL SLIP ON SLAVE 1                       IS 105690                                       THANX JE
M17021391                              CASH        HOSLAVE 1                       Z-REPORT No.   613TOTAL (Sales - Refunds)           8475.34       CASH TO BE BANKED                 3389.10       DEBIT CARDS                          0.00       CREDIT CARDS                      5086.24       Z-READING                         8475.34       AIRTIME DEBIT CARD SALES             0.00       AIRTIME CARD SALES                   0.00       OVERS/UNDERS                         0.00       AIRTIME CASH SALES                   0.00       GIFT CARDS                           0.00       GIFT CARD CASH SALES                 0.00       T O T A L  CASH PAYOUTS              0.00                                                                                                                                                                                                                                                                                                                                                      Z
M17021392                              CASH        HOABSENT                                                                                                                                                                                          ANNUAL LEAVE                                                                                                                                                                                    DAY OFF                                                                                                                                                                                         COMMENTS                                                                                                                                                                                                                                                                                                                                                                                       Z
Y17021300                                          HO00000000753307+000093
ZHO17021319483 SLAVE 1      SALES DATA                     NEXT INVOICE NO.  105691 0613
X HO Slave 1 First invoice 105598 170213 Last invoice 105690 170213 Next invoice 105691 Total number of records 000000373 clbackup completed 19:48:07
