209166000209166               209166               170213HO     1400+00000+HO0000006578+0000006578+000000000+000000921+0000007490+0000000009+I20000000000+0000007490+Z
209166001209166047-000522-H   209166006003000465262EXT-CORD 3m 1x16A+1xSHK0000001000+00006578+00000+0001T   00006578+0000000852          1400 N20880               2AZ
209167000209167               209167               170213HO     1400+00000+HO0000001753+0000001753+000000000+000000246+0000001990+0000000009+I20000000000+0000001990+Z
209167001209167027-783000     209167006001023874641SCOURERS RAINBOW 5PCE  0000001000+00001753+00000+0001T   00001753+0000000859          1400 N20212               2AZ
209168000209168               209168               170213HO     1400+00000+HO0000005262+0000005262+000000000+000000737+0000005990+0000000009+I20000000000+0000005990+Z
209168001209168082-007580     209168006003000698523SUNGLASS MENS DESIGNER 0000001000+00005262+00000+0001T   00005262+0000000900          1400 N20160               2AZ
209169000209169               209169               170213HO     1400+00000+HO0000008769+0000008769+000000000+000001228+0000009990+0000000007+I20000000000+0000009990+Z
209169001209169261-003961     209169006003000550371GUN HAND COMBAT        0000001000+00003507+00000+0001T   00003507+0000000902          1400 N20710               2AZ
209169002209169263-000623     209169006001023905697VEHICLE HELICOPTER 30cm0000001000+00005262+00000+0001T   00005262+0000000902          1400 N20710               2AZ
209170000209170               209170               170213HO     1400+00000+HO0000017935+0000017935+000000000+000002514+0000020449+0000000000+I40000020449+0000000000+Z
209170001209170206-000630     209170006003000631919SPECTACLE CLEANING BRUS0000001000+00001227+00000+0001T   00001227+0000001040          1400 N20321               2AZ
209170002209170263-000415     209170006003000600571V/TOOLS PLASTIC ASSEMBL0000001000+00003507+00000+0001T   00003507+0000001040          1400 N20710               2AZ
209170003209170079-000293     209170006003000159673PAINT SET RAINBOW ASSTD0000001000+00007893+00000+0001T   00007893+0000001040          1400 N20130               2AZ
209170004209170567-011425     209170009781472362896BK COLOURING PLAYTIME  0000001000+00002630+00000+0001T   00002630+0000001040          1400 N20757               2AZ
209170005209170565-000081     209170006003000643493NOVELTY MUSICAL TUBE   0000001000+00002630+00000+0001T   00002630+0000001040          1400 N20745               2AZ
209170006209170112-116069     209170006009681820277TCS CARRIER BAG JUMBO  0000001000+00000048+00000+0001T   00000048+0000001040          1400 N20090               2AZ
209171000209171               209171               170213HO     1400+00000+HO0000003065+0000003065+000000000+000000430+0000003490+0000000005+I20000000000+0000003490+Z
209171001209171304-001011     209171006001023806727FLWR ROSE RED W/BEAR   0000005000+00000613+00000+0001T   00000788+0006471041          1400 N20510               2AZ
209172000209172               209172               170213HO     1400+00000+HO0000007367+0000007367+000000000+000001034+0000008400+0000000001+I20000000000+0000008400+Z
209172001209172077-000299-A   209172006003000670888GIFT-BAG PAPER JMB LOVE0000001000+00001753+00000+0001T   00001753+0000001043          1400 N20112               2AZ
209172002209172031-080508     209172006001023802415P/FRAME PL 22X11CM LOVE0000001000+00004385+00000+0001T   00004385+0000001043          1400 N20510               2AZ
209172003209172903-000200     209172006009826020234SWT CHOC RP CHOCO 23G  0000001000+00000788+00000+0001T   00000788+0000001043          1400 N20150               2AZ
209172004209172903-000183     209172006003000451043SWT LB HEART LOLLY     0000001000+00000393+00000+0001T   00000393+0000001043          1400 N20150               2AZ
209172005209172112-116069     209172006009681820277TCS CARRIER BAG JUMBO  0000001000+00000048+00000+0001T   00000048+0000001043          1400 N20090               2AZ
209173000209173               209173               170213HO     1400+00000+HO0000006138+0000006138+000000000+000000860+0000006990+0000000008+I20000000000+0000006990+Z
209173001209173368-000049     209173006003000536955PLUSH BEAR 15cm LOVE   0000001000+00004385+00000+0001T   00004385+0000001046          1400 N20745               2AZ
209173002209173080-000122     209173006003000237678CARD & ENVLPE -GET WELL0000001000+00001753+00000+0001T   00001753+0000001046          1400 N20112               2AZ
209174000209174               209174               170213HO     1400+00000+HO0000003156+0000003156+000000000+000000442+0000003590+0000000008+I20000000000+0000003590+Z
209174001209174018-000127     209174006001023380289MUG OCC STRAIGHT LOVE  0000002000+00001578+00000+0001T   00001753+0006471046          1400 N20515               2AZ
209175000209175               209175               170213HO     1400+00000+HO0000001490+0000001490+000000000+000000209+0000001690+0000000009+I20000000000+0000001690+Z
209175001209175079-006494     209175006003000159864GLITTER GLUE 5PCE 11cm 0000001000+00001490+00000+0001T   00001490+0000001047          1400 N20130               2AZ
209176000209176               209176               170213HO     1400+00000+HO0000007047+0000007047+000000000+000000988+0000008030+0000000005+I20000000000+0000008030+Z
209176001209176105-001000     209176006003000520275CONTAINER:CEREAL TO GO 0000001000+00003507+00000+0001T   00004823+0008161056          1400 N20210               2AZ
209176002209176105-001036     209176006003000621118CONTAINER W/VENT 350ml 0000002000+00000876+00000+0001T   00001490+0008161056          1400 N20210               2AZ
209176003209176065-006041     209176006001023712974TAMBOURINE 15cm P/BAND 0000001000+00001753+00000+0001T   00001753+0000001056          1400 N20745               2AZ
209176004209176112-116038     209176006009681820246TCS CARRIER BAG MIDI   0000001000+00000035+00000+0001T   00000035+0000001056          1400 N20090               2AZ
209177000209177               209177               170213HO     1400+00000+HO0000005260+0000005260+000000000+000000738+0000005990+0000000008+I20000000000+0000005990+Z
209177001209177027-056186     209177006003000638215DISH BRUSH DUCK DESIGN 0000001000+00002630+00000+0001T   00002630+0000001057          1400 N20212               2AZ
209177002209177159-000800     209177006001023167972BATHMAT ANTI-SLIP      0000001000+00002630+00000+0001T   00002630+0000001057          1400 N20200               2AZ
209178000209178               209178               170213HO     1400+00000+HO0000009640+0000009640+000000000+000001350+0000010990+0000000000+I20000000000+0000010990+Z
209178001209178200-000100     209178006001023764003CUPS 25PCE DISPOSABLE  0000005000+00001928+00000+0001T   00001928+0000001130          1400 N20214               2AZ
209179000209179               209179               170213HO     1400+00000+HO0000007015+0000007015+000000000+000000983+0000007990+0000000008+I20000000000+0000007990+Z
209179001209179104-000135     209179006001023846419WASTEBIN SWING-LID 28cm0000001000+00004385+00000+0001T   00004385+0000001131          1400 N20210               2AZ
209179002209179159-000038     209179006003000393954HOOKS HANGER S/S 2PCE  0000001000+00002630+00000+0001T   00002630+0000001131          1400 N20200               2AZ
209180000209180               209180               170213HO     1400+00000+HO0000004820+0000004820+000000000+000000675+0000005490+0000000005+I20000000000+0000005490+Z
209180001209180006-000166-H   209180006003000608096BALLOONS HELIUM 6PC WHT0000001000+00001314+00000+0001T   00001314+0000001149          1400 N20131               2AZ
209180002209180006-000166-C   209180006003000516377BALLOONS LRG 6PC PINK  0000001000+00001314+00000+0001T   00001314+0000001149          1400 N20131               2AZ
209180003209180080-000127     209180006003000424351VALENTINES DAY 36x24CM 0000001000+00002192+00000+0001T   00002192+0000001149          1400 N20112               2AZ
209181000209181               209181               170213HO     1400+00000+HO0000008592+0000008592+000000000+000001203+0000009795+0000000000+I40000009795+0000000000+Z
209181001209181031-000002-A   209181006003000247103P/FRAME LOVE 7.5X7.5CM 0000001000+00003507+00000+0001T   00003507+0000001317          1400 N20510               2AZ
209181002209181301-085004     209181006003000420469ORN LOVE PLAQUE 21X10CM0000001000+00003507+00000+0001T   00003946+0006471317          1400 N20505               2AZ
209181003209181077-000303     209181006001023593757GIFT-BAG PAPER MED     0000001000+00001578+00000+0001T   00001578+0000001317          1400 N20112               2AZ
209182000209182               209182               170213HO     1400+00000+HO0000003770+0000003770+000000000+000000528+0000004290+0000000008+I20000000000+0000004290+Z
209182001209182077-000303     209182006001023593757GIFT-BAG PAPER MED     0000001000+00001578+00000+0001T   00001578+0000001322          1400 N20112               2AZ
209182002209182080-000127     209182006003000424351VALENTINES DAY 36x24CM 0000001000+00002192+00000+0001T   00002192+0000001322          1400 N20112               2AZ
209183000209183               209183               170213HO     1400+00000+HO0000008506+0000008506+000000000+000001192+0000009690+0000000008+I20000000000+0000009690+Z
209183001209183203-000007     209183006001023762856COASTER-SET 4PCE ROUND 0000001000+00007016+00000+0001T   00008771+0008191322          1400 N20300               2AZ
209183002209183077-000452     209183006003000284986G/BAG METALLIC MED EMB 0000001000+00001490+00000+0001T   00001490+0000001322          1400 N20112               2AZ
209184000209184               209184               170213HO     1400+00000+HO0000053013+0000053013+000000000+000007430+0000060443+0000000000+I40000060443+0000000000+Z
209184001209184077-000270     209184006003000395453GIFT-BAG PPR JMB 33X45 0000001000+00002630+00000+0001T   00002630+0000001354          1400 N20112               2AZ
209184002209184368-000113     209184006001023780874PLUSH BLINGED LOVE 30cm0000001000+00012279+00000+0001T   00012279+0000001354          1400 N20745               2AZ
209184003209184040-000922     209184006001023587817CANDLE-HOLDER GLS 18cm 0000002000+00001753+00000+0001T   00001753+0000001354          1400 N20510               2AZ
209184004209184040-001013     209184006003000327966C/HOLDER SET 3PC W/TRAY0000001000+00014911+00000+0001T   00014911+0000001354          1400 N20510               2AZ
209184005209184018-000129     209184006001023403353MUG OCC. LOVE V-SHAPE  0000001000+00002630+00000+0001T   00002630+0000001354          1400 N20515               2AZ
209184006209184077-000011-E   209184006001023808646TISSUE-WRAP PINK 10PCE 0000001000+00000876+00000+0001T   00000876+0000001354          1400 N20112               2AZ
209184007209184001-091415     209184006003000329113W/GLS OCC. LOVE 2PC 2800000001000+00008771+00000+0001T   00009648+0006471354          1400 N20515               2AZ
209184008209184039-081008     209184006008766081008CANDLES 9PCE SCENTED   0000002000+00002630+00000+0001T   00002630+0000001354          1400 N20510               2AZ
209184009209184039-000026     209184006001023551610C/TAPERED 25CM M/RED   0000002000+00001051+00000+0001T   00001051+0000001354          1400 N20510               2AZ
209184010209184112-116069     209184006009681820277TCS CARRIER BAG JUMBO  0000001000+00000048+00000+0001T   00000048+0000001354          1400 N20090               2AZ
209185000209185               209185               170213HO     1400+00000+HO0000014079+0000014079+000000000+000001973+0000016052+0000000000+I40000016052+0000000000+Z
209185001209185108-003023     209185006003000665471TUMBLER W/STRAW 550ml  0000002000+00002630+00000+0001T   00002630+0000001402          1400 N20210               2AZ
209185002209185039-000799     209185006001023692382CANDLES TEALITE 100PCE 0000001000+00008771+00000+0001T   00008771+0000001402          1400 N20510               2AZ
209185003209185112-116069     209185006009681820277TCS CARRIER BAG JUMBO  0000001000+00000048+00000+0001T   00000048+0000001402          1400 N20090               2AZ
209186000209186               209186               170213HO     1400+00000+HO0000016253+0000016253+000000000+000002278+0000018530+0000000001+I20000000000+0000018530+Z
209186001209186112-116038     209186006009681820246TCS CARRIER BAG MIDI   0000001000+00000035+00000+0001T   00000035+0000001419          1400 N20090               2AZ
209186002209186079-006500     209186006001023557186GLUE GLITTER 6/10 PCE  0000001000+00001753+00000+0001T   00001753+0000001419          1400 N20130               2AZ
209186003209186079-013032     209186006003000389209SET LETTERS 2 ASSTD    0000001000+00001753+00000+0001T   00001753+0000001419          1400 N20130               2AZ
209186004209186079-014153     209186006003000253166ART+CRAFT DRAGON PK6   0000001000+00002630+00000+0001T   00002630+0000001419          1400 N20130               2AZ
209186005209186078-000025     209186008887013700064SUPERGLUE 3g 1PCE CARD 0000001000+00000876+00000+0001T   00000876+0000001419          1400 N20810               2AZ
209186006209186562-000020     209186006003000600861EDU PLAY DOUGH 60g 4PC 0000001000+00003507+00000+0001T   00003507+0000001419          1400 N20755               2AZ
209186007209186903-004950     209186006002580020304SWT APRICOT SURPRISE   0000001000+00001314+00000+0001T   00001314+0000001419          1400 N20150               2AZ
209186008209186065-001008     209186006001023673190XYLOPHONE 8-KEYS SHAPES0000001000+00004385+00000+0001T   00004385+0000001419          1400 N20745               2AZ
209187000209187               209187               170213HO     1400+00000+HO0000001753+0000001753+000000000+000000246+0000001990+0000000009+I20000000000+0000001990+Z
209187001209187903-000211     209187006002099001238SWT GS MALLOW ICE CREAM0000001000+00001753+00000+0001T   00001753+0000001420          1400 N20150               2AZ
209188000209188               209188               170213HO     1400+00000+HO0000001753+0000001753+000000000+000000246+0000001990+0000000009+I20000000000+0000001990+Z
209188001209188077-000308     209188006001023595812GIFT-BAG 33X45CM E/DAY 0000001000+00001753+00000+0001T   00001753+0000001427          1400 N20112               2AZ
209188002209188162-010777     209188006001492107776#TAG LDS EARRINGS      0000001000-00003507+00000+0001T   00003507+0000001427          1400 N201601IC            2 Z
209188003209188162-010777     209188006001492107776#TAG LDS EARRINGS      0000001000+00003507+00000+0001T   00003507+0000001427          1400 N201601IC            2AZ
209189000209189               209189               170213HO     1400+00000+HO0000002015+0000002015+000000000+000000283+0000002290+0000000008+I20000000000+0000002290+Z
209189001209189018-000127     209189006001023380289MUG OCC STRAIGHT LOVE  0000001000+00001578+00000+0001T   00001753+0006471433          1400 N20515               2AZ
209189002209189080-000133-A   209189006003000647019MINI VALENTINES CARD   0000001000+00000437+00000+0001T   00000437+0000001433          1400 N20112               2AZ
209190000209190               209190               170213HO     1400+00000+HO0000014068+0000014068+000000000+000001977+0000016040+0000000005+I20000000000+0000016040+Z
209190001209190304-001204     209190006001023737984FLOWER OCC. TEDDY/ROSES0000010000+00001402+00000+0001T   00001490+0006471435          1400 N20510               2AZ
209190002209190112-116069     209190006009681820277TCS CARRIER BAG JUMBO  0000001000+00000048+00000+0001T   00000048+0000001435          1400 N20090               2AZ
209191000209191               209191               170213HO     1400+00000+HO0000004821+0000004821+000000000+000000675+0000005490+0000000006+I20000000000+0000005490+Z
209191001209191046-000012     209191006904708013062BATTERIES AA  CARD-OF-40000001000+00001314+00000+0001T   00001314+0000001435          1400 N20312               2AZ
209191002209191567-011523     209191006003000667031BK COLOURING THERAPY   0000001000+00003507+00000+0001T   00003507+0000001435          1400 N20757               2AZ
209192000209192               209192               170213HO     1400+00000+HO0000106467+0000106467+000000000+000014915+0000121382+0000000000+I40000121382+0000000000+Z
209192001209192112-116069     209192006009681820277TCS CARRIER BAG JUMBO  0000001000+00000048+00000+0001T   00000048+0000001440          1400 N20090               2AZ
209192002209192027-000232     209192006003000621514WINDOW WASHER 1.4m     0000001000+00007893+00000+0001T   00007893+0000001440          1400 N20212               2AZ
209192003209192496-055503     209192000078257555031INTEX TOYS FUN BALLS   0000001000+00006139+00000+0001T   00006139+0000001440          1400 N20787               2AZ
209192004209192903-002900     209192005996071650648QUICK MILK 5 CHOCO 5PC 0000002000+00001578+00000+0001T   00001578+0000001440          1400 N20150               2AZ
209192005209192496-055501     209192000078257555017INTEX FUN RINGS        0000001000+00005262+00000+0001T   00005262+0000001440          1400 N20787               2AZ
209192006209192304-001169     209192006003000523894FLOWER FLOATING 28CM   0000003000+00005262+00000+0001T   00005262+0000001440          1400 N20510               2AZ
209192007209192304-001168     209192006003000407781FLWR FLOATING LOTUS ASS0000002000+00003507+00000+0001T   00003507+0000001440          1400 N20510               2AZ
209192008209192112-116069     209192006009681820277TCS CARRIER BAG JUMBO  0000001000+00000048+00000+0001T   00000048+0000001440          1400 N20090               2AZ
209192009209192903-000095     209192006001704011495SWT SPECKLED-EGGS 100G 0000001000+00002104+00000+0001T   00002104+0000001440          1400 N20150               2AZ
209192010209192024-000213     209192006001023458681COOKIE-CUTTER DONUT    0000001000+00006139+00000+0001T   00006139+0000001440          1400 N20300               2AZ
209192011209192567-011300     209192009781928231004BOOK EDU GENERIC SOUND 0000001000+00012279+00000+0001T   00012279+0000001440          1400 N20757               2AZ
209192012209192033-000003     209192006003000622429TINTING PROTECTIVE CAPE0000001000+00003069+00000+0001T   00003069+0000001440          1400 N20200               2AZ
209192013209192033-000123     209192006003000622382HAIR COMB STRAIGHTENING0000001000+00001753+00000+0001T   00001753+0000001440          1400 N20200               2AZ
209192014209192006-000093     209192006003000539932PARTY BANNER FLAGS ASST0000001000+00001753+00000+0001T   00001753+0000001440          1400 N20131               2AZ
209192015209192206-000370     209192006003000631315STRAW P/DRINKING GLASS 0000001000+00001753+00000+0001T   00001753+0000001440          1400 N20321               2AZ
209192016209192006-000165     209192006001023758392BALLOONS LRG BAG-OF-1000000002000+00008771+00000+0001T   00008771+0000001440          1400 N20131               2AZ
209192017209192366-002803     209192006003000531875DRESS UP POMPOM 2PC SET0000001000+00003507+00000+0001T   00003507+0000001440          1400 N20131               2AZ
209192018209192366-002195     209192006001023990549DRESS UP WINGS FEATHER 0000001000+00005262+00000+0001T   00005262+0000001440          1400 N20131               2AZ
209192019209192903-000120     209192006002099001665SWEET GS ZILLIONS 50g  0000001000+00000700+00000+0001T   00000700+0000001440          1400 N20150               2AZ
209192020209192162-096646     209192006001492966465#TAG HOT DEALS KIDS HR 0000002000+00002630+00000+0001T   00002630+0000001440          1400 N20160               2AZ
209193000209193               209193               170213HO     1400+00000+HO0000021086+0000021086+000000000+000002955+0000024040+0000000001+I20000000000+0000024040+Z
209193001209193112-116069     209193006009681820277TCS CARRIER BAG JUMBO  0000001000+00000048+00000+0001T   00000048+0000001443          1400 N20090               2AZ
209193002209193018-000130     209193006001023867537MUG OCC LOVE MINI+HEART0000002000+00003507+00000+0001T   00003507+0000001443          1400 N20515               2AZ
209193003209193079-006522     209193006001023149442ART+CRAFT GLUE ASSORTED0000001000+00001753+00000+0001T   00001753+0000001443          1400 N20130               2AZ
209193004209193079-013099     209193006003000081875ART+CRAFT EYES ASSTD   0000001000+00001753+00000+0001T   00001753+0000001443          1400 N20130               2AZ
209193005209193079-013032-B   209193006003000389445MIXED SHAPES           0000001000+00001753+00000+0001T   00001753+0000001443          1400 N20130               2AZ
209193006209193007-000324     20919300600968585864125 SHEETS BRIGHTS MARLI0000001000+00003507+00000+0001T   00003507+0000001443          1400 N20130               2AZ
209193007209193079-000344     209193006001023904010FELT-TIP PENS 12PCE    0000001000+00002630+00000+0001T   00002630+0000001443          1400 N20130               2AZ
209193008209193903-000194     209193006009826020616SWT CHOC RP LOLLY 25G  0000002000+00001314+00000+0001T   00001314+0000001443          1400 N20150               2AZ
209194000209194               209194               170213HO     1400+00000+HO0000005262+0000005262+000000000+000000737+0000005990+0000000009+I20000000000+0000005990+Z
209194001209194463-000115     209194006003000608454SWIM-GOGGLES IN CASE   0000001000+00005262+00000+0001T   00005262+0000001444          1400 N20785               2AZ
209195000209195               209195               170213HO     1400+00000+HO0000002630+0000002630+000000000+000000369+0000002990+0000000009+I20000000000+0000002990+Z
209195001209195077-000303     209195006001023593757GIFT-BAG PAPER MED     0000001000+00001578+00000+0001T   00001578+0000001445          1400 N20112               2AZ
209195002209195018-000129     209195006001023403353MUG OCC. LOVE V-SHAPE  0000001000+00002630+00000+0001T   00002630+0000001445          1400 N20515               2AZ
209195003209195077-000303     209195006001023593757GIFT-BAG PAPER MED     0000001000-00001578+00000+0001T   00001578+0000001445          1400 N201122IC            2 Z
209196000209196               209196               170213HO     1400+00000+HO0000002192+0000002192+000000000+000000307+0000002499+0000000000+I40000002499+0000000000+Z
209196001209196566-000068     209196006003000418046POP UP LOVE 2 ASSTD    0000001000+00002192+00000+0001T   00002192+0000001448          1400 N20130               2AZ
209197000209197               209197               170213HO     1400+00000+HO0000000000+0000000000+000000000+000000000+0000000000+0000000000+I20000000000+0000000000+Z
209197001209197200-003024     209197006001023657299REFUSE BAGS 20PCE BLACK0000002000+00001753+00000+0001T   00001753+0000001451          1400 N20214               2 Z
209197002209197567-010160     209197006003000484966BOOK TOP ASSTD CHILDREN0000001000+00006578+00000+0001T   00006578+0000001451          1400 N20757               2 Z
209197003209197077-000299     209197006003000395576G/BAG 32x25cm LRG LOVE 0000001000+00001490+00000+0001T   00001490+0000001451          1400 N20112               2 Z
209197004209197112-116069     209197006009681820277TCS CARRIER BAG JUMBO  0000002000-00000048+00000+0001T   00000048+0000001451          1400 N200902IC            2 Z
209197005209197567-010160     209197006003000484966BOOK TOP ASSTD CHILDREN0000001000-00006578+00000+0001T   00006578+0000001451          1400 N207572IC            2 Z
209197006209197200-003024     209197006001023657299REFUSE BAGS 20PCE BLACK0000002000-00001753+00000+0001T   00001753+0000001451          1400 N202142IC            2 Z
209197007209197077-000299     209197006003000395576G/BAG 32x25cm LRG LOVE 0000001000-00001490+00000+0001T   00001490+0000001451          1400 N201122IC            2 Z
209197008209197112-116069     209197006009681820277TCS CARRIER BAG JUMBO  0000002000+00000048+00000+0001T   00000048+0000001451          1400 N20090               2 Z
209198000209198               209198               170213HO     1400+00000+HO0000003507+0000003507+000000000+000000491+0000003998+0000000000+I40000003998+0000000000+Z
209198001209198018-000136     209198006001023659026MUG OCC LOVE W/PLUSH   0000001000+00003507+00000+0001T   00003507+0000001453          1400 N20515               2AZ
209199000209199               209199               170213HO     1400+00000+HO0000011483+0000011483+000000000+000001611+0000013094+0000000000+I40000013094+0000000000+Z
209199001209199567-011480     209199009781472379375BK PRINCESS AND THE PEA0000001000+00004385+00000+0001T   00004385+0000001456          1400 N20757               2AZ
209199002209199903-002850     209199000000087108262MENTOS ROLL FRUIT      0000002000+00001051+00000+0001T   00001051+0000001456          1400 N20150               2AZ
209199003209199200-003024     209199006001023657299REFUSE BAGS 20PCE BLACK0000002000+00001753+00000+0001T   00001753+0000001456          1400 N20214               2AZ
209199004209199077-000299     209199006003000395576G/BAG 32x25cm LRG LOVE 0000001000+00001490+00000+0001T   00001490+0000001456          1400 N20112               2AZ
209200000209200               209200               170213HO     1400+00000+HO0000005521+0000005521+000000000+000000774+0000006290+0000000005+I20000000000+0000006290+Z
209200001209200077-000010-R   209200006001023123916CREPE-PAPER CANARY-YELL0000001000+00000788+00000+0001T   00000788+0000001457          1400 N20112               2AZ
209200002209200018-000170     209200006001023775528MUG OCC. LOVE 2PC MINI 0000001000+00002192+00000+0001T   00002192+0000001457          1400 N20515               2AZ
209200003209200077-000318     209200006001023609755GIFT-BAG 18X23CM E/D AN0000001000+00001227+00000+0001T   00001227+0000001457          1400 N20112               2AZ
209200004209200903-000194     209200006009826020616SWT CHOC RP LOLLY 25G  0000001000+00001314+00000+0001T   00001314+0000001457          1400 N20150               2AZ
209201000209201               209201               170213HO     1400+00000+HO0000001313+0000001313+000000000+000000184+0000001490+0000000007+I20000000000+0000001490+Z
209201001209201018-000177     209201006001023797513MUG MINI LOVE ASSTD    0000001000+00000700+00000+0001T   00000700+0000001458          1400 N20515               2AZ
209201002209201077-000317     209201006001023609748GIFT-BAG 11X14CM E/D AN0000001000+00000613+00000+0001T   00000613+0000001458          1400 N20112               2AZ
209202000209202               209202               170213HO     1400+00000+HO0000002630+0000002630+000000000+000000369+0000002990+0000000009+I20000000000+0000002990+Z
209202001209202140-006008     209202006001023803214FLY-SWATTERS   SET-OF-40000001000+00002630+00000+0001T   00002630+0000001459          1400 N20830               2AZ
209203000209203               209203               170213HO     1400+00000+HO0000025042+0000025042+000000000+000003508+0000028550+0000000000+I20000000000+0000028550+Z
209203001209203158-000167     209203006003000569588WASTEPAPER-BASKET 26cm 0000001000+00005262+00000+0001T   00005262+0000001502          1400 N20300               2AZ
209203002209203263-000418     209203006003000599103VEHICLE FIRE ENGINE SET0000001000+00007893+00000+0001T   00007893+0000001502          1400 N20710               2AZ
209203003209203365-003053     209203006001023542250PLAY DOCTOR MEDICAL-CNT0000001000+00004385+00000+0001T   00004385+0000001502          1400 N20725               2AZ
209203004209203105-007000-B   209203006002580007374CONTAINER 3L ASSORTED  0000001000+00002192+00000+0001T   00002192+0000001502          1400 N20210               2AZ
209203005209203104-000505     209203006003000665952BASKET PL 3-DIVISION   0000001000+00005262+00000+0001T   00005262+0000001502          1400 N20210               2AZ
209203006209203112-116069     209203006009681820277TCS CARRIER BAG JUMBO  0000001000+00000048+00000+0001T   00000048+0000001502          1400 N20090               2AZ
209204000209204               209204               170213HO     1400+00000+HO0000008770+0000008770+000000000+000001228+0000009990+0000000008+I20000000000+0000009990+Z
209204001209204001-000175     209204006001023788108B/MUG GLS LOVE 380ML   0000002000+00004385+00000+0001T   00004385+0000001504          1400 N20515               2AZ
209205000209205               209205               170213HO     1400+00000+HO0000004208+0000004208+000000000+000000590+0000004798+0000000000+I40000004798+0000000000+Z
209205001209205565-000052     209205006003000615551NOVELTY PUTTY FARTS    0000001000+00001578+00000+0001T   00001578+0000001509          1400 N20745               2AZ
209205002209205564-000019     209205006003000654345BUBBLE NOVELTY MIX 4PCE0000001000+00002630+00000+0001T   00002630+0000001509          1400 N20131               2AZ
209206000209206               209206               170213HO     1400+00000+HO0000002980+0000002980+000000000+000000418+0000003390+0000000008+I20000000000+0000003390+Z
209206001209206564-000036     209206006001023708694BUBBLE W/PUZZLE        0000002000+00001490+00000+0001T   00001490+0000001515          1400 N20131               2AZ
209207000209207               209207               170213HO     1400+00000+HO0000013769+0000013769+000000000+000001929+0000015698+0000000000+I40000015698+0000000000+Z
209207001209207368-000113     209207006001023780874PLUSH BLINGED LOVE 30cm0000001000+00012279+00000+0001T   00012279+0000001519          1400 N20745               2AZ
209207002209207077-000299     209207006003000395576G/BAG 32x25cm LRG LOVE 0000001000+00001490+00000+0001T   00001490+0000001519          1400 N20112               2AZ
209208000209208               209208               170213HO     1400+00000+HO0000002630+0000002630+000000000+000000369+0000002999+0000000000+I40000002999+0000000000+Z
209208001209208567-011497     209208000814625012795BK COLOURING 96P GHOUL 0000001000+00002630+00000+0001T   00002630+0000001521          1400 N20757               2AZ
209209000209209               209209               170213HO     1400+00000+HO0000000700+0000000700+000000000+000000098+0000000790+0000000008+I20000000000+0000000790+Z
209209001209209018-000177     209209006001023797513MUG MINI LOVE ASSTD    0000001000+00000700+00000+0001T   00000700+0000001522          1400 N20515               2AZ
209210000209210               209210               170213HO     1400+00000+HO0000006401+0000006401+000000000+000000897+0000007290+0000000008+I20000000000+0000007290+Z
209210001209210366-001100     209210006003000031443DRESS UP HAT PIRATE    0000001000+00005262+00000+0001T   00005262+0000001542          1400 N20131               2AZ
209210002209210903-000087     209210006001704000161SWT SPECKLED-EGGS 50G  0000001000+00001139+00000+0001T   00001139+0000001542          1400 N20150               2AZ
209211000209211               209211               170213HO     1400+00000+HO0000004997+0000004997+000000000+000000701+0000005690+0000000008+I20000000000+0000005690+Z
209211001209211903-002853     209211000000087108019MENTOS ROLL MINT       0000001000+00001051+00000+0001T   00001051+0000001544          1400 N20150               2AZ
209211002209211039-000327     209211006001023775283B/CANDLES COLOUR-FLAME 0000001000+00003946+00000+0001T   00003946+0000001544          1400 N20510               2AZ
209212000209212               209212               170213HO     1400+00000+HO0000010955+0000010955+000000000+000001536+0000012490+0000000001+I20000000000+0000012490+Z
209212001209212903-002853     209212000000087108019MENTOS ROLL MINT       0000001000+00001051+00000+0001T   00001051+0000001544          1400 N20150               2AZ
209212002209212003-002363     209212006001023764775O/ANIMAL L/PAD 3-ASSTD 0000001000+00004385+00000+0001T   00004385+0000001544          1400 N20505               2AZ
209212003209212071-004200     209212006001023835901SAFETY SCISSOR         0000001000+00001753+00000+0001T   00001753+0000001544          1400 N20130               2AZ
209212004209212071-000677     209212006001023110282THUMB-TACKS            0000001000+00000876+00000+0001T   00000876+0000001544          1400 N20130               2AZ
209212005209212071-005214     209212006003000152544CELLOTAPE SUPER REFILL 0000001000+00001490+00000+0001T   00001490+0000001544          1400 N20130               2AZ
209212006209212903-000070     209212006001704001106SWT TOFFEE CREAMY 35g  0000002000+00000700+00000+0001T   00000700+0000001544          1400 N20150               2AZ
209213000209213               209213               170213HO     1400+00000+HO0000008943+0000008943+000000000+000001254+0000010197+0000000000+I40000010197+0000000000+Z
209213001209213304-001204     209213006001023737984FLOWER OCC. TEDDY/ROSES0000002000+00001402+00000+0001T   00001490+0006471550          1400 N20510               2AZ
209213002209213018-050000     209213006003000412679MUG OCC LOVE TWIN BEAR 0000001000+00006139+00000+0001T   00006139+0000001550          1400 N20515               2AZ
209214000209214               209214               170213HO     1400+00000+HO0000007014+0000007014+000000000+000000982+0000007990+0000000006+I20000000000+0000007990+Z
209214001209214200-000012     209214006003000399536BAG 50PCE 165x146mm    0000002000+00003507+00000+0001T   00003507+0000001551          1400 N20214               2AZ
209215000209215               209215               170213HO     1400+00000+HO0000008331+0000008331+000000000+000001167+0000009490+0000000008+I20000000000+0000009490+Z
209215001209215077-000926     209215006003000414178G/WRAP 700mmx2m LOVE   0000001000+00002192+00000+0001T   00002192+0000001556          1400 N20112               2AZ
209215002209215018-050000     209215006003000412679MUG OCC LOVE TWIN BEAR 0000001000+00006139+00000+0001T   00006139+0000001556          1400 N20515               2AZ
209216000209216               209216               170213HO     1400+00000+HO0000003330+0000003330+000000000+000000467+0000003790+0000000007+I20000000000+0000003790+Z
209216001209216039-000319-1   209216006003000442386B/CANDLES LRG NUMBER-1 0000001000+00000876+00000+0001T   00000876+0000001600          1400 N20510               2AZ
209216002209216200-000092     209216006003000576739PICNIC PAPER PLATES 23c0000002000+00001227+00000+0001T   00001227+0000001600          1400 N20214               2AZ
209217000209217               209217               170213HO     1400+00000+HO0000001753+0000001753+000000000+000000246+0000001990+0000000009+I20000000000+0000001990+Z
209217001209217034-078800     209217006001023856555COOEY WET-WIPES 60PCE  0000001000+00001753+00000+0001T   00001753+0000001601          1400 N20215               2AZ
209218000209218               209218               170213HO     1400+00000+HO0000000035+0000000035+000000000+000000005+0000000040+0000000000+I20000000000+0000000040+Z
209218001209218112-116038     209218006009681820246TCS CARRIER BAG MIDI   0000001000+00000035+00000+0001T   00000035+0000001601          1400 N20090               2AZ
209219000209219               209219               170213HO     1400+00000+HO0000001753+0000001753+000000000+000000246+0000001990+0000000009+I20000000000+0000001990+Z
209219001209219133-000018     209219006003000583218SWAB MICROFIBRE 30x30cm0000001000+00001753+00000+0001T   00001753+0000001629          1400 N20212               2AZ
209220000209220               209220               170213HO     1400+00000+HO0000013678+0000013678+000000000+000001916+0000015594+0000000000+I40000015594+0000000000+Z
209220001209220206-000630     209220006003000631919SPECTACLE CLEANING BRUS0000001000+00001227+00000+0001T   00001227+0000001631          1400 N20321               2AZ
209220002209220077-000011-C   209220006001023808523TISSUE 10xSHTS RED     0000001000+00000876+00000+0001T   00000876+0000001631          1400 N20112               2AZ
209220003209220001-091415     209220006003000329113W/GLS OCC. LOVE 2PC 2800000001000+00008771+00000+0001T   00009648+0006471631          1400 N20515               2AZ
209220004209220077-000299     209220006003000395576G/BAG 32x25cm LRG LOVE 0000001000+00001490+00000+0001T   00001490+0000001631          1400 N20112               2AZ
209220005209220903-000194     209220006009826020616SWT CHOC RP LOLLY 25G  0000001000+00001314+00000+0001T   00001314+0000001631          1400 N20150               2AZ
209221000209221               209221               170213HO     1400+00000+HO0000000437+0000000437+000000000+000000062+0000000490+0000000009+I20000000000+0000000490+Z
209221001209221080-000133-A   209221006003000647019MINI VALENTINES CARD   0000001000+00000437+00000+0001T   00000437+0000001633          1400 N20112               2AZ
209222000209222               209222               170213HO     1400+00000+HO0000002630+0000002630+000000000+000000369+0000002999+0000000000+I40000002999+0000000000+Z
209222001209222565-000040     209222006008766115635NOVELTY ICON BEANIE    0000001000+00002630+00000+0001T   00002630+0000001635          1400 N20745               2AZ
209223000209223               209223               170213HO     1400+00000+HO0000012538+0000012538+000000000+000001756+0000014294+0000000000+I40000014294+0000000000+Z
209223001209223031-000002-A   209223006003000247103P/FRAME LOVE 7.5X7.5CM 0000001000+00003507+00000+0001T   00003507+0000001640          1400 N20510               2AZ
209223002209223077-000303     209223006001023593757GIFT-BAG PAPER MED     0000001000+00001578+00000+0001T   00001578+0000001640          1400 N20112               2AZ
209223003209223368-000175     209223006003000270316PLUSH BEAR 4 ASSTD 18CM0000001000+00006139+00000+0001T   00006139+0000001640          1400 N20745               2AZ
209223004209223903-000194     209223006009826020616SWT CHOC RP LOLLY 25G  0000001000+00001314+00000+0001T   00001314+0000001640          1400 N20150               2AZ
209224000209224               209224               170213HO     1400+00000+HO0000007012+0000007012+000000000+000000984+0000007990+0000000006+I20000000000+0000007990+Z
209224001209224006-000120     209224006001023346889BALLOONS 10PC MIX COL  0000002000+00001753+00000+0001T   00001753+0000001641          1400 N20131               2AZ
209224002209224006-000324     209224006001023818393PARTY POPPER`S PCK-OF-60000001000+00001753+00000+0001T   00001753+0000001641          1400 N20131               2AZ
209224003209224006-000804     209224006003000574445STREAMERS 6-ROLLS 2.5cm0000001000+00001753+00000+0001T   00001753+0000001641          1400 N20131               2AZ
209225000209225               209225               170213HO     1400+00000+HO0000008008+0000008008+000000000+000001124+0000009130+0000000002+I20000000000+0000009130+Z
209225001209225024-091103-C   209225006003000596546CAKE BOX 2PC HLDS-6-C/C0000001000+00001314+00000+0001T   00001753+0008121642          1400 N20300               2AZ
209225002209225076-000017     209225006001811010022TWINE COTTON 50g-BALL  0000001000+00000876+00000+0001T   00000876+0000001642          1400 N20810               2AZ
209225003209225903-000155     209225006009803374435SWT LOLLY I LUV U HEART0000002000+00000525+00000+0001T   00000525+0000001642          1400 N20150               2AZ
209225004209225006-000109-A   209225006003000645435BALLOONS HELIUM 2PC    0000001000+00001753+00000+0001T   00001753+0000001642          1400 N20131               2AZ
209225005209225036-000605     209225006001023158611WASHING-PEGS WDN PCK-240000001000+00001490+00000+0001T   00001490+0000001642          1400 N20212               2AZ
209225006209225039-000108     209225006001023524034TEA-LITE CANDLES 8PCE  0000001000+00001490+00000+0001T   00001490+0000001642          1400 N20510               2AZ
209225007209225112-116038     209225006009681820246TCS CARRIER BAG MIDI   0000001000+00000035+00000+0001T   00000035+0000001642          1400 N20090               2AZ
209226000209226               209226               170213HO     1400+00000+HO0000015691+0000015691+000000000+000002202+0000017893+0000000000+I40000017893+0000000000+Z
209226001209226006-000788     209226006001023990228CROWN HAPPY BIRTHDAY   0000001000+00001490+00000+0001T   00001490+0000001645          1400 N20131               2AZ
209226002209226903-002851     209226000000087108538MENTOS ROLL STRAWBERRY 0000001000+00001051+00000+0001T   00001051+0000001645          1400 N20150               2AZ
209226003209226006-000203-A   209226006003453010965SNACK BOX 6PCE ASSTD   0000005000+00002630+00000+0001T   00002630+0000001645          1400 N20131               2AZ
209227000209227               209227               170213HO     1400+00000+HO0000006171+0000006171+000000000+000000866+0000007037+0000000000+I40000007037+0000000000+Z
209227001209227016-006710     209227006003000674725S/JAR GLS RHEA 425ml   0000002000+00002630+00000+0001T   00002630+0000001647          1400 N20300               2AZ
209227002209227077-000011-C   209227006001023808523TISSUE 10xSHTS RED     0000001000+00000876+00000+0001T   00000876+0000001647          1400 N20112               2AZ
209227003209227112-116038     209227006009681820246TCS CARRIER BAG MIDI   0000001000+00000035+00000+0001T   00000035+0000001647          1400 N20090               2AZ
209228000209228               209228               170213HO     1400+00000+HO0000005816+0000005816+000000000+000000815+0000006630+0000000001+I20000000000+0000006630+Z
209228001209228304-001011     209228006001023806727FLWR ROSE RED W/BEAR   0000003000+00000613+00000+0001T   00000788+0006471651          1400 N20510               2AZ
209228002209228903-000194     209228006009826020616SWT CHOC RP LOLLY 25G  0000003000+00001314+00000+0001T   00001314+0000001651          1400 N20150               2AZ
209228003209228112-116038     209228006009681820246TCS CARRIER BAG MIDI   0000001000+00000035+00000+0001T   00000035+0000001651          1400 N20090               2AZ
A17021300                                          15462487HOSLAVE 2                       N202IC
A17021301                                          16074568HOSLAVE 2                       N202IC
M17021304                              IT          HOATT IT DPT                                      LAST TILL SLIP ON SLAVE 2                       IS 209228                                       THANX HO
M17021391                              CASH        HOSLAVE 2                       Z-REPORT No.   619TOTAL (Sales - Refunds)           6491.51       CASH TO BE BANKED                 3099.30       DEBIT CARDS                          0.00       CREDIT CARDS                      3392.21       Z-READING                         6491.51       AIRTIME DEBIT CARD SALES             0.00       AIRTIME CARD SALES                   0.00       OVERS/UNDERS                         0.00       AIRTIME CASH SALES                   0.00       GIFT CARDS                           0.00       GIFT CARD CASH SALES                 0.00       T O T A L  CASH PAYOUTS              0.00                                                                                                                                                                                                                                                                                                                                                      Z
M17021392                              CASH        HOABSENT                                                                                                                                                                                          ANNUAL LEAVE                                                                                                                                                                                    DAY OFF                                                                                                                                                                                         COMMENTS                                                                                                                                                                                                                                                                                                                                                                                       Z
Y17021300                                          HO00000000586356+000063
ZHO17021319483 SLAVE 2      SALES DATA                     NEXT INVOICE NO.  209229 0619
X HO Slave 2 First invoice 209166 170213 Last invoice 209228 170213 Next invoice 209229 Total number of records 000000258 clbackup completed 19:48:09
