705181000705181               705181               170213HP     1400+00000+HP0000003506+0000003506+000000000+000000492+0000003990+0000000008+I20000000000+0000003990+Z
705181001705181024-091103-E   705181006003000596300CAKE BOX 2PC SQUARE    0000002000+00001753+00000+0001T   00001753+0000000907          1400 CH7300               1CZ
705182000705182               705182               170213HP     1400+00000+HP0000007893+0000007893+000000000+000001106+0000008990+0000000009+I20000000000+0000008990+Z
705182001705182262-000653     705182006008766060553DIE CAST SET AIRPORT   0000001000+00007893+00000+0001T   00007893+0000000911          1400 CH7710               1AZ
705183000705183               705183               170213HP     1400+00000+HP0000003156+0000003156+000000000+000000442+0000003590+0000000008+I20000000000+0000003590+Z
705183001705183251-000031     705183006001023515827MASKING-TAPE 24mmx40m  0000002000+00001578+00000+0001T   00001578+0000000912          1400 CH7810               1AZ
705184000705184               705184               170213HP     1400+00000+HP0000003507+0000003507+000000000+000000491+0000003990+0000000008+I20000000000+0000003990+Z
705184001705184028-002101     705184006002580009507CHAIR JUNIOR    ASSTD  0000001000+00003507+00000+0001T   00003507+0000000931          1400 CH7305               1CZ
705185000705185               705185               170213HP     1400+00000+HP0000008805+0000008805+000000000+000001233+0000010030+0000000008+I20000000000+0000010030+Z
705185001705185020-000141     705185006001023629524STEAK-KNIVES P.P.CARD-60000002000+00004385+00000+0001T   00004385+0000000932          1400 CH7300               1AZ
705185002705185112-116038     705185006009681820246TCS CARRIER BAG MIDI   0000001000+00000035+00000+0001T   00000035+0000000932          1400 CH7090               1AZ
705186000705186               705186               170213HP     1400+00000+HP0000026298+0000026298+000000000+000003688+0000029980+0000000006+I20000000000+0000029980+Z
705186001705186024-000071     705186006001023415653E/WHISK S/S & SILICONE 0000001000+00002630+00000+0001T   00002630+0000000940          1400 CH7300               1AZ
705186002705186028-000001-A   705186006001023612328BBQ MATCHES 60-STICKS  0000001000+00002630+00000+0001T   00002630+0000000940          1400 CH7305               1AZ
705186003705186083-000077     705186006003000092581LIGHTER LONG-REACH 18cm0000001000+00003507+00000+0001T   00003507+0000000940          1400 CH7315               1AZ
705186004705186038-092232     705186006001023625830TABLE-MAT N/SLIP 32x55 0000001000+00001753+00000+0001T   00001753+0000000940          1400 CH7300               1AZ
705186005705186027-009025     705186006003962000747DUSTPAN-SET PL         0000001000+00002630+00000+0001T   00002630+0000000940          1400 CH7212               1AZ
705186006705186174-000011     705186006001023523778W/MACHINE-BAG 50x40cm  0000002000+00001753+00000+0001T   00001753+0000000940          1400 CH72052IC            1AZ
705186007705186033-000005     705186006001023511584SHEET+IRN-BOARD-BND 4PC0000001000+00002630+00000+0001T   00002630+0000000940          1400 CH7200               1AZ
705186008705186088-000055     705186006003000623068TOILET FRESHENER CISTER0000001000+00001753+00000+0001T   00001753+0000000940          1400 CH7212               1AZ
705186009705186027-008817     705186006003000666393DUSTER MICROFIBRE      0000001000+00003507+00000+0001T   00003507+0000000940          1400 CH7212               1AZ
705186010705186083-000295     705186006001023898562LIGHTER-GAS BUTANE 18ml0000002000+00000876+00000+0001T   00000876+0000000940          1400 CH7315               1AZ
705187000705187               705187               170213HP     1400+00000+HP0000001578+0000001578+000000000+000000221+0000001790+0000000009+I20000000000+0000001790+Z
705187001705187077-000315     705187006003000181186GIFT-BAG 20x28cm MATT  0000001000+00001578+00000+0001T   00001578+0000000940          1400 CH7112               1CZ
705188000705188               705188               170213HP     1400+00000+HP0000007313+0000007313+000000000+000001025+0000008330+0000000008+I20000000000+0000008330+Z
705188001705188251-000030     705188006001023515803MASKING-TAPE 18mmx40m  0000001000+00001139+00000+0001T   00001139+0000000946          1400 CH7810               1AZ
705188002705188264-000922     705188000090159250012MAISTO CAR PULL-BACK   0000001000+00006139+00000+0001T   00007016+0008190946          1400 CH7710               1AZ
705188003705188112-116038     705188006009681820246TCS CARRIER BAG MIDI   0000001000+00000035+00000+0001T   00000035+0000000946          1400 CH7090               1AZ
705189000705189               705189               170213HP     1400+00000+HP0000004201+0000004201+000000000+000000590+0000004790+0000000001+I20000000000+0000004790+Z
705189001705189007-000123     705189006003000533879BOOK COVER 450mmx1.5m  0000008000+00000306+00000+0001T   00000306+0000000950          1400 CH7130               1CZ
705189002705189077-000240     705189006003000326259G/RIBBON 4PC PEARLIZED 0000001000+00001753+00000+0001T   00001753+0000000950          1400 CH7112               1CZ
705190000705190               705190               170213HP     1400+00000+HP0000002630+0000002630+000000000+000000369+0000002990+0000000009+I20000000000+0000002990+Z
705190001705190034-079076     705190006001023899651MEDICINE DROPPER+SPOON 0000001000+00002630+00000+0001T   00002630+0000001013          1400 CH7215               1CZ
705191000705191               705191               170213HP     1400+00000+HP0000003979+0000003979+000000000+000000558+0000004530+0000000007+I20000000000+0000004530+Z
705191001705191018-000136     705191006001023659026MUG OCC LOVE W/PLUSH   0000001000+00003507+00000+0001T   00003507+0000001019          1400 CH7515               1CZ
705191002705191112-116038     705191006009681820246TCS CARRIER BAG MIDI   0000001000+00000035+00000+0001T   00000035+0000001019          1400 CH7090               1CZ
705191003705191080-000133-A   705191006003000647019MINI VALENTINES CARD   0000001000+00000437+00000+0001T   00000437+0000001019          1400 CH7112               1CZ
705192000705192               705192               170213HP     1400+00000+HP0000023004+0000023004+000000000+000003224+0000026228+0000000000+I40000026228+0000000000+Z
705192001705192112-116038     705192006009681820246TCS CARRIER BAG MIDI   0000001000+00000035+00000+0001T   00000035+0000001033          1400 CH7090               1AZ
705192002705192079-000335     705192006003000670550THERAPY P/CRAYONS 30   0000001000+00007016+00000+0001T   00007016+0000001033          1400 CH7130               1AZ
705192003705192206-000245     705192006003000680818BOTTLE CLEANER PLASTIC 0000001000+00002192+00000+0001T   00002192+0000001033          1400 CH7321               1AZ
705192004705192206-000100     705192006003000628063TONGS ICE COLD FINGERS 0000001000+00002192+00000+0001T   00002192+0000001033          1400 CH7321               1AZ
705192005705192206-000180     705192006003000631223TEA INFUSER TEAMAN     0000001000+00004385+00000+0001T   00004385+0000001033          1400 CH7321               1AZ
705192006705192206-000530     705192006003000620821BIRTHDAY CANDLES 6PC   0000002000+00001139+00000+0001T   00001753+0008181033          1400 CH7321               1AZ
705192007705192566-000309     705192006003000523283STICKER CHALK-BOARD    0000001000+00001753+00000+0001T   00001753+0000001033          1400 CH7130               1AZ
705192008705192071-000305     705192006001023715340RULER/STENCILS         0000001000+00001753+00000+0001T   00001753+0000001033          1400 CH7130               1AZ
705192009705192903-000120     705192006002099001665SWEET GS ZILLIONS 50g  0000001000+00000700+00000+0001T   00000700+0000001033          1400 CH7150               1AZ
705192010705192903-000121     705192006002099001689SWT GS ZILLIONS SOURS  0000001000+00000700+00000+0001T   00000700+0000001033          1400 CH7150               1AZ
705193000705193               705193               170213HP     1400+00000+HP0000000876+0000000876+000000000+000000123+0000000990+0000000009+I20000000000+0000000990+Z
705193001705193071-003000     705193006003000543229PEN BALL PEN 3PCE MULTI0000001000+00000876+00000+0001T   00000876+0000001034          1400 CH7130               1CZ
705194000705194               705194               170213HP     1400+00000+HP0000001753+0000001753+000000000+000000246+0000001990+0000000009+I20000000000+0000001990+Z
705194001705194080-000113     705194006003000237449CARD&ENVLPE - LOVE     0000001000+00001753+00000+0001T   00001753+0000001055          1400 CH7112               1CZ
705195000705195               705195               170213HP     1400+00000+HP0000010508+0000010508+000000000+000001476+0000011980+0000000004+I20000000000+0000011980+Z
705195001705195080-000133     705195006003000535613CARD&ENV MINI ASTD DSGN0000003000+00000437+00000+0001T   00000437+0000001133          1400 CH7112               1AZ
705195002705195077-000011-X   705195006001023809827TISSUE-WRAP SILVER 10PC0000001000+00001753+00000+0001T   00001753+0000001133          1400 CH7112               1AZ
705195003705195077-000407     705195006003000145096G/BAG PP 19X26X8CM     0000005000+00001314+00000+0001T   00001314+0000001133          1400 CH7112               1AZ
705195004705195080-000133-A   705195006003000647019MINI VALENTINES CARD   0000002000+00000437+00000+0001T   00000437+0000001133          1400 CH7112               1AZ
705196000705196               705196               170213HP     1400+00000+HP0000002629+0000002629+000000000+000000369+0000002990+0000000008+I20000000000+0000002990+Z
705196001705196077-000290     705196006001023902023GIFT BOX 26x32x13cm    0000001000+00001753+00000+0001T   00001753+0000001140          1400 CH7112               1AZ
705196002705196077-000011-C   705196006001023808523TISSUE 10xSHTS RED     0000001000+00000876+00000+0001T   00000876+0000001140          1400 CH7112               1AZ
705197000705197               705197               170213HP     1400+00000+HP0000001753+0000001753+000000000+000000246+0000001990+0000000009+I20000000000+0000001990+Z
705197001705197089-000030     705197006003000575671K/CHAIN LOVE MTL ASSTD 0000001000+00001753+00000+0001T   00001753+0000001141          1400 CH7205               1CZ
705198000705198               705198               170213HP     1400+00000+HP0000003506+0000003506+000000000+000000492+0000003990+0000000008+I20000000000+0000003990+Z
705198001705198200-000307     705198006003000439041OVEN BASKET MESH TRAY  0000001000+00002630+00000+0001T   00003507+0008171144          1400 CH7214               1AZ
705198002705198077-000151     705198006008766114676GIFT-WRAP C/PHANE ASSTD0000001000+00000876+00000+0001T   00000876+0000001144          1400 CH7112               1AZ
705199000705199               705199               170213HP     1400+00000+HP0000003981+0000003981+000000000+000000558+0000004530+0000000009+I20000000000+0000004530+Z
705199001705199059-011605     705199006001023384072LANTERN 24cm ASSTD-CLRS0000001000+00003946+00000+0001T   00005262+0008191153          1400 CH7305               1CZ
705199002705199112-116038     705199006009681820246TCS CARRIER BAG MIDI   0000001000+00000035+00000+0001T   00000035+0000001153          1400 CH7090               1CZ
705200000705200               705200               170213HP     1400+00000+HP0000002192+0000002192+000000000+000000307+0000002499+0000000000+I40000002499+0000000000+Z
705200001705200080-000127     705200006003000424351VALENTINES DAY 36x24CM 0000001000+00002192+00000+0001T   00002192+0000001207          1400 CH7112               1CZ
705201000705201               705201               170213HP     1400+00000+HP0000020168+0000020168+000000000+000002827+0000022990+0000000005+I20000000000+0000022990+Z
705201001705201112-116069     705201006009681820277TCS CARRIER BAG JUMBO  0000001000+00000048+00000+0001T   00000048+0000001212          1400 CH7090               1CZ
705201002705201306-000021-C   705201006003000567294EARBUDS 300PCE IN TUB  0000001000+00001753+00000+0001T   00001753+0000001212          1400 CH7200               1CZ
705201003705201306-000524     705201006003000571215TOOTHBRUSH ADULT       0000002000+00001314+00000+0001T   00001314+0000001212          1400 CH7200               1CZ
705201004705201027-078343     705201006008766078343SCRUB-BRUSH IRON-SHAPE 0000001000+00001139+00000+0001T   00001578+0008191212          1400 CH7212               1CZ
705201005705201051-002400     705201006001023616180TRIGGER-SPRAYER 900ml  0000001000+00002192+00000+0001T   00002192+0000001212          1400 CH7820               1CZ
705201006705201903-000121     705201006002099001689SWT GS ZILLIONS SOURS  0000001000+00000700+00000+0001T   00000700+0000001212          1400 CH7150               1CZ
705201007705201903-000120     705201006002099001665SWEET GS ZILLIONS 50g  0000001000+00000700+00000+0001T   00000700+0000001212          1400 CH7150               1CZ
705201008705201003-009130     705201006003000673445ORN WELCOME STONE OVAL 0000001000+00005262+00000+0001T   00005262+0000001212          1400 CH7505               1CZ
705201009705201003-009110     705201006003000675395ORN SIGN INSPIRATIONAL 0000001000+00003069+00000+0001T   00003069+0000001212          1400 CH7505               1CZ
705201010705201200-003024     705201006001023657299REFUSE BAGS 20PCE BLACK0000001000+00001753+00000+0001T   00001753+0000001212          1400 CH7214               1CZ
705201011705201003-009105     705201006003000462810ORN VEG SIGN TERRACOTTA0000001000+00000876+00000+0001T   00001314+0008121212          1400 CH7505               1CZ
705201012705201112-116069     705201006009681820277TCS CARRIER BAG JUMBO  0000001000+00000048+00000+0001T   00000048+0000001212          1400 CH7090               1CZ
705202000705202               705202               170213HP     1400+00000+HP0000003978+0000003978+000000000+000000559+0000004530+0000000007+I20000000000+0000004530+Z
705202001705202018-000129     705202006001023403353MUG OCC. LOVE V-SHAPE  0000001000+00002630+00000+0001T   00002630+0000001218          1400 CH7515               1CZ
705202002705202080-000133-A   705202006003000647019MINI VALENTINES CARD   0000001000+00000437+00000+0001T   00000437+0000001218          1400 CH7112               1CZ
705202003705202077-000011-C   705202006001023808523TISSUE 10xSHTS RED     0000001000+00000876+00000+0001T   00000876+0000001218          1400 CH7112               1CZ
705202004705202112-116038     705202006009681820246TCS CARRIER BAG MIDI   0000001000+00000035+00000+0001T   00000035+0000001218          1400 CH7090               1CZ
705203000705203               705203               170213HP     1400+00000+HP0000005293+0000005293+000000000+000000743+0000006036+0000000000+I40000006036+0000000000+Z
705203001705203200-000104     705203006003000677412PICNIC CUPS PL 6PCE    0000001000+00002630+00000+0001T   00002630+0000001225          1400 CH7214               1CZ
705203002705203036-000606     705203006003000322213WASHING PEGS PACK 20   0000003000+00000876+00000+0001T   00001314+0008191225          1400 CH7212               1CZ
705203003705203112-116038     705203006009681820246TCS CARRIER BAG MIDI   0000001000+00000035+00000+0001T   00000035+0000001225          1400 CH7090               1CZ
705204000705204               705204               170213HP     1400+00000+HP0000001139+0000001139+000000000+000000160+0000001290+0000000009+I20000000000+0000001290+Z
705204001705204046-000014     705204006001023725387BATTERIES SIZE:AAA 4PCE0000001000+00001139+00000+0001T   00001139+0000001227          1400 CH7312               1CZ
705205000705205               705205               170213HP     1400+00000+HP0000004327+0000004327+000000000+000000608+0000004930+0000000005+I20000000000+0000004930+Z
705205001705205252-000011     705205006001023475190CURTN-GLIDER ACETYL x500000001000+00000876+00000+0001T   00000876+0000001244          1400 CH7810               1CZ
705205002705205252-000004     705205006001023473332CURTN-HOOK BRS R7 50PCE0000001000+00001490+00000+0001T   00001490+0000001244          1400 CH7810               1CZ
705205003705205252-000011     705205006001023475190CURTN-GLIDER ACETYL x500000001000+00000876+00000+0001T   00000876+0000001244          1400 CH7810               1CZ
705205004705205903-000155     705205006009803374435SWT LOLLY I LUV U HEART0000002000+00000525+00000+0001T   00000525+0000001244          1400 CH7150               1CZ
705205005705205112-116038     705205006009681820246TCS CARRIER BAG MIDI   0000001000+00000035+00000+0001T   00000035+0000001244          1400 CH7090               1CZ
705206000705206               705206               170213HP     1400+00000+HP0000005645+0000005645+000000000+000000791+0000006430+0000000006+I20000000000+0000006430+Z
705206001705206077-000303     705206006001023593757GIFT-BAG PAPER MED     0000001000+00001578+00000+0001T   00001578+0000001249          1400 CH7112               1CZ
705206002705206018-000136     705206006001023659026MUG OCC LOVE W/PLUSH   0000001000+00003507+00000+0001T   00003507+0000001249          1400 CH7515               1CZ
705206003705206903-000155     705206006009803374435SWT LOLLY I LUV U HEART0000001000+00000525+00000+0001T   00000525+0000001249          1400 CH7150               1CZ
705206004705206112-116038     705206006009681820246TCS CARRIER BAG MIDI   0000001000+00000035+00000+0001T   00000035+0000001249          1400 CH7090               1CZ
705207000705207               705207               170213HP     1400+00000+HP0000018992+0000018992+000000000+000002660+0000021652+0000000000+I40000021652+0000000000+Z
705207001705207301-001125     705207000694202803950ORN FOUNTAIN TOWER     0000001000+00017542+00000+0001T   00017542+0000001418          1400 CH7505               1CZ
705207002705207046-000011     705207004897006172994BATTERIES SIZE:AA  2PCE0000001000+00001402+00000+0001T   00001402+0000001418          1400 CH7312               1CZ
705207003705207112-116069     705207006009681820277TCS CARRIER BAG JUMBO  0000001000+00000048+00000+0001T   00000048+0000001418          1400 CH7090               1CZ
705208000705208               705208               170213HP     1400+00000+HP0000001139+0000001139+000000000+000000160+0000001290+0000000009+I20000000000+0000001290+Z
705208001705208903-000087     705208006001704000161SWT SPECKLED-EGGS 50G  0000001000+00001139+00000+0001T   00001139+0000001420          1400 CH7150               1CZ
705209000705209               705209               170213HP     1400+00000+HP0000001578+0000001578+000000000+000000221+0000001790+0000000009+I20000000000+0000001790+Z
705209001705209077-000303     705209006001023593757GIFT-BAG PAPER MED     0000001000+00001578+00000+0001T   00001578+0000001428          1400 CH7112               1CZ
705210000705210               705210               170213HP     1400+00000+HP0000001753+0000001753+000000000+000000246+0000001990+0000000009+I20000000000+0000001990+Z
705210001705210077-000455     705210006003000285389G/BAG METALLIC LRG SOL 0000001000+00001753+00000+0001T   00001753+0000001428          1400 CH7112               1CZ
705211000705211               705211               170213HP     1400+00000+HP0000001578+0000001578+000000000+000000221+0000001790+0000000009+I20000000000+0000001790+Z
705211001705211077-000303     705211006001023593757GIFT-BAG PAPER MED     0000001000+00001578+00000+0001T   00001578+0000001429          1400 CH7112               1CZ
705212000705212               705212               170213HP     1400+00000+HP0000001578+0000001578+000000000+000000221+0000001790+0000000009+I20000000000+0000001790+Z
705212001705212077-000303     705212006001023593757GIFT-BAG PAPER MED     0000001000+00001578+00000+0001T   00001578+0000001431          1400 CH7112               1CZ
705213000705213               705213               170213HP     1400+00000+HP0000012496+0000012496+000000000+000001753+0000014240+0000000009+I20000000000+0000014240+Z
705213001705213112-116069     705213006009681820277TCS CARRIER BAG JUMBO  0000001000+00000048+00000+0001T   00000048+0000001437          1400 CH7090               1CZ
705213002705213567-010548     705213006003000608218VALUE COLOURING BOOK 160000001000+00000613+00000+0001T   00000613+0000001437          1400 CH7757               1CZ
705213003705213562-000002     705213006001023491015COUNTING-FRAME 30x20cm 0000001000+00007016+00000+0001T   00007016+0000001437          1400 CH7755               1CZ
705213004705213071-000212     705213006009608641190CHALK WHITE 12PCE      0000001000+00000437+00000+0001T   00000437+0000001437          1400 CH7130               1CZ
705213005705213079-000512     705213006001023635853CRAYONS WAX 12-COLOUR  0000001000+00001490+00000+0001T   00001490+0000001437          1400 CH7130               1CZ
705213006705213903-000087     705213006001704000161SWT SPECKLED-EGGS 50G  0000001000+00001139+00000+0001T   00001139+0000001437          1400 CH7150               1CZ
705213007705213200-003024     705213006001023657299REFUSE BAGS 20PCE BLACK0000001000+00001753+00000+0001T   00001753+0000001437          1400 CH7214               1CZ
705214000705214               705214               170213HP     1400+00000+HP0000002630+0000002630+000000000+000000369+0000002990+0000000009+I20000000000+0000002990+Z
705214001705214106-001106     705214006003000667475WATER BOTTLE 700ML     0000001000+00002630+00000+0001T   00002630+0000001440          1400 CH7210               1CZ
705215000705215               705215               170213HP     1400+00000+HP0000001753+0000001753+000000000+000000246+0000001999+0000000000+I40000001999+0000000000+Z
705215001705215105-001021     705215006003000667062CONTAINER MICRO/FREEZER0000001000+00001753+00000+0001T   00002630+0008161442          1400 CH7210               1AZ
705216000705216               705216               170213HP     1400+00000+HP0000044731+0000044731+000000000+000006264+0000050990+0000000005+I20000000000+0000050990+Z
705216001705216490-049602     705216000078257496020FUN-BALLS 100PCE 6.5CM 0000001000+00015788+00000+0001T   00015788+0000001503          1400 CH7787               1CZ
705216002705216560-000776     705216006001023472939ANIMALS FARM/WILD 6PCE 0000001000+00013157+00000+0001T   00013157+0000001503          1400 CH7745               1CZ
705216003705216158-000167     705216006003000569588WASTEPAPER-BASKET 26cm 0000003000+00005262+00000+0001T   00005262+0000001503          1400 CH7300               1CZ
705217000705217               705217               170213HP     1400+00000+HP0000012764+0000012764+000000000+000001788+0000014552+0000000000+I40000014552+0000000000+Z
705217001705217080-000127     705217006003000424351VALENTINES DAY 36x24CM 0000001000+00002192+00000+0001T   00002192+0000001515          1400 CH7112               1CZ
705217002705217301-085003     705217006003000420827ORN OCCASION LOVE KEY  0000001000+00005262+00000+0001T   00005262+0000001515          1400 CH7505               1CZ
705217003705217018-019000     705217006003000557288MUG OCC. LOVE JUMBO    0000001000+00005262+00000+0001T   00005262+0000001515          1400 CH7515               1CZ
705217004705217112-116069     705217006009681820277TCS CARRIER BAG JUMBO  0000001000+00000048+00000+0001T   00000048+0000001515          1400 CH7090               1CZ
705218000705218               705218               170213HP     1400+00000+HP0000045256+0000045256+000000000+000006339+0000051590+0000000005+I20000000000+0000051590+Z
705218001705218105-007805     705218006002923018920STORAGE BOX CLEAR 9.5L 0000003000+00005262+00000+0001T   00005262+0000001527          1400 CH7210               1CZ
705218002705218112-116069     705218006009681820277TCS CARRIER BAG JUMBO  0000001000+00000048+00000+0001T   00000048+0000001527          1400 CH7090               1CZ
705218003705218072-020315     705218006003000623891PET TOY PUPPY RING 3in10000001000+00003069+00000+0001T   00003069+0000001527          1400 CH7870               1CZ
705218004705218105-008002     705218006002923015905CONTAINER FOODSAVER 8L 0000003000+00004385+00000+0001T   00004385+0000001527          1400 CH7210               1CZ
705218005705218112-116069     705218006009681820277TCS CARRIER BAG JUMBO  0000001000+00000048+00000+0001T   00000048+0000001527          1400 CH7090               1CZ
705218006705218200-003024     705218006001023657299REFUSE BAGS 20PCE BLACK0000001000+00001753+00000+0001T   00001753+0000001527          1400 CH7214               1CZ
705218007705218105-006955     705218006003000685325CONTAINER CLEAR BASE 8L0000003000+00003507+00000+0001T   00003507+0000001527          1400 CH7210               1CZ
705218008705218007-000235     705218006003000134434LABELS RECTANGULAR 60pc0000001000+00000876+00000+0001T   00000876+0000001527          1400 CH7130               1CZ
705219000705219               705219               170213HP     1400+00000+HP0000019344+0000019344+000000000+000002709+0000022050+0000000003+I20000000000+0000022050+Z
705219001705219073-000524     705219006003000669943COSMETIC-BAG SET 3PC   0000001000+00008771+00000+0001T   00008771+0000001530          1400 CH7200               1CZ
705219002705219079-012217     705219006003000289202ART+CRAFT PAINT YOUR   0000001000+00010525+00000+0001T   00012279+0008191530          1400 CH7130               1CZ
705219003705219112-116069     705219006009681820277TCS CARRIER BAG JUMBO  0000001000+00000048+00000+0001T   00000048+0000001530          1400 CH7090               1CZ
705220000705220               705220               170213HP     1400+00000+HP0000001490+0000001490+000000000+000000209+0000001699+0000000000+I40000001699+0000000000+Z
705220001705220034-078833     705220006001023857491SIGN BABY-ON-BOARD     0000001000+00001490+00000+0001T   00001490+0000001538          1400 CH7215               1CZ
705221000705221               705221               170213HP     1400+00000+HP0000001578+0000001578+000000000+000000221+0000001790+0000000009+I20000000000+0000001790+Z
705221001705221077-000315     705221006003000181186GIFT-BAG 20x28cm MATT  0000001000+00001578+00000+0001T   00001578+0000001538          1400 CH7112               1AZ
705222000705222               705222               170213HP     1400+00000+HP0000001613+0000001613+000000000+000000226+0000001830+0000000009+I20000000000+0000001830+Z
705222001705222077-000315     705222006003000181186GIFT-BAG 20x28cm MATT  0000001000+00001578+00000+0001T   00001578+0000001548          1400 CH7112               1CZ
705222002705222112-116038     705222006009681820246TCS CARRIER BAG MIDI   0000001000+00000035+00000+0001T   00000035+0000001548          1400 CH7090               1CZ
705223000705223               705223               170213HP     1400+00000+HP0000006751+0000006751+000000000+000000946+0000007690+0000000007+I20000000000+0000007690+Z
705223001705223077-000011-D   705223006001023808554TISSUE-WRAP WHITE 10PCE0000001000+00000876+00000+0001T   00000876+0000001550          1400 CH7112               1CZ
705223002705223403-000033     705223006003000674053JEWELLERY HOLDER MTL   0000001000+00004385+00000+0001T   00004385+0000001550          1400 CH7510               1CZ
705223003705223077-000299     705223006003000395576G/BAG 32x25cm LRG LOVE 0000001000+00001490+00000+0001T   00001490+0000001550          1400 CH7112               1CZ
705224000705224               705224               170213HP     1400+00000+HP0000008818+0000008818+000000000+000001235+0000010053+0000000000+I40000010053+0000000000+Z
705224001705224001-000175     705224006001023788108B/MUG GLS LOVE 380ML   0000002000+00004385+00000+0001T   00004385+0000001552          1400 CH7515               1CZ
705224002705224112-116069     705224006009681820277TCS CARRIER BAG JUMBO  0000001000+00000048+00000+0001T   00000048+0000001552          1400 CH7090               1CZ
705225000705225               705225               170213HP     1400+00000+HP0000001050+0000001050+000000000+000000148+0000001190+0000000008+I20000000000+0000001190+Z
705225001705225903-000155     705225006009803374435SWT LOLLY I LUV U HEART0000002000+00000525+00000+0001T   00000525+0000001552          1400 CH7150               1CZ
705226000705226               705226               170213HP     1400+00000+HP0000001575+0000001575+000000000+000000222+0000001790+0000000007+I20000000000+0000001790+Z
705226001705226903-000155     705226006009803374435SWT LOLLY I LUV U HEART0000003000+00000525+00000+0001T   00000525+0000001553          1400 CH7150               1CZ
705227000705227               705227               170213HP     1400+00000+HP0000003942+0000003942+000000000+000000552+0000004490+0000000004+I20000000000+0000004490+Z
705227001705227566-000992     705227006001023600639STICKERS GLOW-IN-DARK  0000003000+00001314+00000+0001T   00001314+0000001553          1400 CH7130               1CZ
705228000705228               705228               170213HP     1400+00000+HP0000001578+0000001578+000000000+000000221+0000001790+0000000009+I20000000000+0000001790+Z
705228001705228028-000799     705228006001023812186SKEWERS BAMBOO 100PCE  0000001000+00001578+00000+0001T   00001578+0000001554          1400 CH7305               1CZ
705229000705229               705229               170213HP     1400+00000+HP0000001314+0000001314+000000000+000000184+0000001490+0000000008+I20000000000+0000001490+Z
705229001705229075-000348     705229006003000099474PURSE SILICONE W/CLIP  0000001000+00001314+00000+0001T   00001753+0008121557          1400 CH7160               1CZ
705230000705230               705230               170213HP     1400+00000+HP0000012325+0000012325+000000000+000001726+0000014050+0000000001+I20000000000+0000014050+Z
705230001705230267-000219     705230006003000301997PUZZLE 100pc FUNNY CAR 0000002000+00004385+00000+0001T   00004385+0000001558          1400 CH7755               1CZ
705230002705230150-000776     705230006001023839756UTILITY/TOOL-BOX PL    0000001000+00003507+00000+0001T   00003507+0000001558          1400 CH7810               1CZ
705230003705230112-116069     705230006009681820277TCS CARRIER BAG JUMBO  0000001000+00000048+00000+0001T   00000048+0000001558          1400 CH7090               1CZ
705231000705231               705231               170213HP     1400+00000+HP0000007501+0000007501+000000000+000001051+0000008552+0000000000+I40000008552+0000000000+Z
705231001705231031-080508     705231006001023802415P/FRAME PL 22X11CM LOVE0000001000+00004385+00000+0001T   00004385+0000001600          1400 CH7510               1CZ
705231002705231080-000127     705231006003000424351VALENTINES DAY 36x24CM 0000001000+00002192+00000+0001T   00002192+0000001600          1400 CH7112               1CZ
705231003705231071-003000     705231006003000543229PEN BALL PEN 3PCE MULTI0000001000+00000876+00000+0001T   00000876+0000001600          1400 CH7130               1CZ
705231004705231112-116069     705231006009681820277TCS CARRIER BAG JUMBO  0000001000+00000048+00000+0001T   00000048+0000001600          1400 CH7090               1CZ
705232000705232               705232               170213HP     1400+00000+HP0000001525+0000001525+000000000+000000214+0000001739+0000000000+I40000001739+0000000000+Z
705232001705232077-000299     705232006003000395576G/BAG 32x25cm LRG LOVE 0000001000+00001490+00000+0001T   00001490+0000001602          1400 CH7112               1CZ
705232002705232112-116038     705232006009681820246TCS CARRIER BAG MIDI   0000001000+00000035+00000+0001T   00000035+0000001602          1400 CH7090               1CZ
705233000705233               705233               170213HP     1400+00000+HP0000003978+0000003978+000000000+000000559+0000004530+0000000007+I20000000000+0000004530+Z
705233001705233083-000049     705233004891035200024CIG-LIGHTER DISPOSABLE 0000001000+00000437+00000+0001T   00000437+0000001603          1400 CH7315               1CZ
705233002705233133-000079     705233006003000277193KITCHEN SWAB 30x30CM   0000001000+00000876+00000+0001T   00000876+0000001603          1400 CH7212               1CZ
705233003705233203-001247     705233006001023770813C/SCREW WAITER'S-FRIEND0000001000+00002630+00000+0001T   00002630+0000001603          1400 CH7300               1CZ
705233004705233112-116038     705233006009681820246TCS CARRIER BAG MIDI   0000001000+00000035+00000+0001T   00000035+0000001603          1400 CH7090               1CZ
705234000705234               705234               170213HP     1400+00000+HP0000003067+0000003067+000000000+000000431+0000003490+0000000008+I20000000000+0000003490+Z
705234001705234083-000049     705234004891035200024CIG-LIGHTER DISPOSABLE 0000001000+00000437+00000+0001T   00000437+0000001603          1400 CH7315               1CZ
705234002705234203-001247     705234006001023770813C/SCREW WAITER'S-FRIEND0000001000+00002630+00000+0001T   00002630+0000001603          1400 CH7300               1CZ
705235000705235               705235               170213HP     1400+00000+HP0000006187+0000006187+000000000+000000867+0000007050+0000000004+I20000000000+0000007050+Z
705235001705235017-000221     705235006003000238019P/ALBUM ADHESIVE 20PG  0000001000+00006139+00000+0001T   00006139+0000001604          1400 CH7510               1CZ
705235002705235112-116069     705235006009681820277TCS CARRIER BAG JUMBO  0000001000+00000048+00000+0001T   00000048+0000001604          1400 CH7090               1CZ
705236000705236               705236               170213HP     1400+00000+HP0000017578+0000017578+000000000+000002467+0000020040+0000000005+I20000000000+0000020040+Z
705236001705236006-000800     705236006001023902801HAT CABARET 14x18cm    0000010000+00001753+00000+0001T   00001753+0000001607          1400 CH71312IC            1CZ
705236002705236112-116069     705236006009681820277TCS CARRIER BAG JUMBO  0000001000+00000048+00000+0001T   00000048+0000001607          1400 CH7090               1CZ
705237000705237               705237               170213HP     1400+00000+HP0000008802+0000008802+000000000+000001233+0000010030+0000000005+I20000000000+0000010030+Z
705237001705237562-000020     705237006003000600861EDU PLAY DOUGH 60g 4PC 0000001000+00003507+00000+0001T   00003507+0000001612          1400 CH7755               1AZ
705237002705237079-013102     705237006003000019601ART+CRAFT DIY PIPE-CLNR0000002000+00002192+00000+0001T   00002192+0000001612          1400 CH7130               1AZ
705237003705237903-000481     705237006001704007481SWT MOO MILK-SHAKES 60G0000001000+00000876+00000+0001T   00000876+0000001612          1400 CH7150               1AZ
705237004705237112-116038     705237006009681820246TCS CARRIER BAG MIDI   0000001000+00000035+00000+0001T   00000035+0000001612          1400 CH7090               1AZ
705238000705238               705238               170213HP     1400+00000+HP0000003364+0000003364+000000000+000000472+0000003836+0000000000+I40000003836+0000000000+Z
705238001705238566-002000     705238000721129013206STICKERS CRYSTAL ASSTD 0000001000+00000700+00000+0001T   00000700+0000001619          1400 CH7130               1AZ
705238002705238566-000053     705238006003000284832S/BOOK C/BOARD STICKERS0000001000+00000876+00000+0001T   00001314+0008151619          1400 CH7130               1AZ
705238003705238566-000038     705238006003000100514TATTOO METALLIC 6 ASST 0000001000+00001753+00000+0001T   00001753+0000001619          1400 CH7130               1AZ
705238004705238112-116038     705238006009681820246TCS CARRIER BAG MIDI   0000001000+00000035+00000+0001T   00000035+0000001619          1400 CH7090               1AZ
705239000705239               705239               170213HP     1400+00000+HP0000003507+0000003507+000000000+000000491+0000003998+0000000000+I40000003998+0000000000+Z
705239001705239466-000106     705239006003000128112BALL PL 20CM BASKETBALL0000001000+00003507+00000+0001T   00003507+0000001622          1400 CH7785               1CZ
705240000705240               705240               170213HP     1400+00000+HP0000003585+0000003585+000000000+000000508+0000004090+0000000003+I20000000000+0000004090+Z
705240001705240903-000183     705240006003000451043SWT LB HEART LOLLY     0000006000+00000393+00000+0001T   00000393+0000001625          1400 CH7150               1CZ
705240002705240077-000245     705240006001023759214GIFT-RIBBON METALLICx2 0000001000+00001227+00000+0001T   00001227+0000001625          1400 CH7112               1CZ
705241000705241               705241               170213HP     1400+00000+HP0000003536+0000003536+000000000+000000497+0000004033+0000000000+I40000004033+0000000000+Z
705241001705241903-000011     705241006002099007315SWT MALLOW CHOC 15G    0000001000+00000437+00000+0001T   00000437+0000001629          1400 CH7150               1AZ
705241002705241903-000012     705241006002099007308SWT MALLOW S/BERRY     0000001000+00000437+00000+0001T   00000437+0000001629          1400 CH7150               1AZ
705241003705241007-000555     705241006001023848239MEMO-PAD MINI LOVE     0000001000+00000613+00000+0001T   00000613+0000001629          1400 CH7130               1AZ
705241004705241007-000537     705241000651728791017NOTE-PAD RND SMILE-FACE0000001000+00000700+00000+0001T   00000700+0000001629          1400 CH7130               1AZ
705241005705241903-004950     705241006002580020304SWT APRICOT SURPRISE   0000001000+00001314+00000+0001T   00001314+0000001629          1400 CH7150               1AZ
705241006705241112-116038     705241006009681820246TCS CARRIER BAG MIDI   0000001000+00000035+00000+0001T   00000035+0000001629          1400 CH7090               1AZ
705242000705242               705242               170213HP     1400+00000+HP0000000876+0000000876+000000000+000000123+0000000990+0000000009+I20000000000+0000000990+Z
705242001705242033-000128     705242006009654960214HAIR COMB PLASTIC 2PC  0000001000+00000876+00000+0001T   00000876+0000001633          1400 CH7200               1CZ
705243000705243               705243               170213HP     1400+00000+HP0000005259+0000005259+000000000+000000738+0000005990+0000000007+I20000000000+0000005990+Z
705243001705243080-000116     705243006003000253555CARD&ENVELOPE-HANDMADE 0000001000+00001753+00000+0001T   00001753+0000001636          1400 CH7112               1CZ
705243002705243080-000111     705243006003000252695CARD&ENVELPE - MUSICAL 0000001000+00001753+00000+0001T   00001753+0000001636          1400 CH7112               1CZ
705243003705243080-000100     705243006003000236114CARD & ENVELOPE BDAY   0000001000+00001753+00000+0001T   00001753+0000001636          1400 CH7112               1CZ
705244000705244               705244               170213HP     1400+00000+HP0000005043+0000005043+000000000+000000708+0000005751+0000000000+I40000005751+0000000000+Z
705244001705244903-000059     705244006002099001269SWT GS NOVELTY ALIEN VA0000001000+00001753+00000+0001T   00001753+0000001644          1400 CH7150               1AZ
705244002705244903-000155     705244006009803374435SWT LOLLY I LUV U HEART0000002000+00000525+00000+0001T   00000525+0000001644          1400 CH7150               1AZ
705244003705244080-000127     705244006003000424351VALENTINES DAY 36x24CM 0000001000+00002192+00000+0001T   00002192+0000001644          1400 CH7112               1AZ
705244004705244112-116069     705244006009681820277TCS CARRIER BAG JUMBO  0000001000+00000048+00000+0001T   00000048+0000001644          1400 CH7090               1AZ
705245000705245               705245               170213HP     1400+00000+HP0000000700+0000000700+000000000+000000098+0000000790+0000000008+I20000000000+0000000790+Z
705245001705245018-000177     705245006001023797513MUG MINI LOVE ASSTD    0000001000+00000700+00000+0001T   00000700+0000001644          1400 CH7515               1CZ
705246000705246               705246               170213HP     1400+00000+HP0000002664+0000002664+000000000+000000374+0000003030+0000000008+I20000000000+0000003030+Z
705246001705246077-000906     705246006003000410804G/WRAP 700mmx1m BIRTHDA0000001000+00001753+00000+0001T   00001753+0000001646          1400 CH7112               1CZ
705246002705246071-005213     705246006001023690371CELLOTAPE 12mmx33m     0000001000+00000876+00000+0001T   00000876+0000001646          1400 CH7130               1CZ
705246003705246112-116038     705246006009681820246TCS CARRIER BAG MIDI   0000001000+00000035+00000+0001T   00000035+0000001646          1400 CH7090               1CZ
705247000705247               705247               170213HP     1400+00000+HP0000003506+0000003506+000000000+000000492+0000003990+0000000008+I20000000000+0000003990+Z
705247001705247089-000220     705247006003000677368KEY CHAIN+PEN+KNIFE    0000001000+00003069+00000+0001T   00003069+0000001652          1400 CH7205               1CZ
705247002705247080-000133-A   705247006003000647019MINI VALENTINES CARD   0000001000+00000437+00000+0001T   00000437+0000001652          1400 CH7112               1CZ
705248000705248               705248               170213HP     1400+00000+HP0000009680+0000009680+000000000+000001357+0000011037+0000000000+I40000011037+0000000000+Z
705248001705248084-000369     705248006003000594467NAIL MANICURE SET 6PCE 0000001000+00006139+00000+0001T   00006139+0000001658          1400 CH7200               1CZ
705248002705248077-000467     705248006003000329991GIFT-BAG STAMP 18X23CM 0000002000+00001753+00000+0001T   00001753+0000001658          1400 CH7112               1CZ
705248003705248112-116038     705248006009681820246TCS CARRIER BAG MIDI   0000001000+00000035+00000+0001T   00000035+0000001658          1400 CH7090               1CZ
705249000705249               705249               170213HP     1400+00000+HP0000006048+0000006048+000000000+000000848+0000006896+0000000000+I40000006896+0000000000+Z
705249001705249039-000108     705249006001023524034TEA-LITE CANDLES 8PCE  0000001000+00001490+00000+0001T   00001490+0000001700          1400 CH7510               1AZ
705249002705249206-000630     705249006003000631919SPECTACLE CLEANING BRUS0000001000+00001227+00000+0001T   00001227+0000001700          1400 CH7321               1AZ
705249003705249028-000796-A   705249006001023897152SKEWERS BAMBOO 100P 4mm0000001000+00001753+00000+0001T   00001753+0000001700          1400 CH7305               1AZ
705249004705249077-000315     705249006003000181186GIFT-BAG 20x28cm MATT  0000001000+00001578+00000+0001T   00001578+0000001700          1400 CH7112               1AZ
705250000705250               705250               170213HP     1400+00000+HP0000002663+0000002663+000000000+000000374+0000003030+0000000007+I20000000000+0000003030+Z
705250001705250077-000151     705250006008766114676GIFT-WRAP C/PHANE ASSTD0000003000+00000876+00000+0001T   00000876+0000001701          1400 CH7112               1CZ
705250002705250112-116038     705250006009681820246TCS CARRIER BAG MIDI   0000001000+00000035+00000+0001T   00000035+0000001701          1400 CH7090               1CZ
705251000705251               705251               170213HP     1400+00000+HP0000003507+0000003507+000000000+000000491+0000003990+0000000008+I20000000000+0000003990+Z
705251001705251079-000013     705251006001023463890P/CRAYONS 24COL 18cm   0000001000+00003507+00000+0001T   00003507+0000001702          1400 CH7130               1CZ
705252000705252               705252               170213HP     1400+00000+HP0000001578+0000001578+000000000+000000221+0000001790+0000000009+I20000000000+0000001790+Z
705252001705252077-000315     705252006003000181186GIFT-BAG 20x28cm MATT  0000001000+00001578+00000+0001T   00001578+0000001703          1400 CH7112               1CZ
705253000705253               705253               170213HP     1400+00000+HP0000000876+0000000876+000000000+000000123+0000000990+0000000009+I20000000000+0000000990+Z
705253001705253366-007916     705253006001023419309MASK PL CHARACTER ASS  0000001000+00000876+00000+0001T   00000876+0000001710          1400 CH7131               1CZ
705254000705254               705254               170213HP     1400+00000+HP0000004855+0000004855+000000000+000000681+0000005530+0000000006+I20000000000+0000005530+Z
705254001705254089-000099     705254006003000677566KEY CHAIN MTL SPORT AST0000001000+00000876+00000+0001T   00000876+0000001735          1400 CH7205               1CZ
705254002705254031-000923     705254006001023669933P/FRAME BLK W/WORDS    0000001000+00003507+00000+0001T   00003507+0000001735          1400 CH7510               1CZ
705254003705254112-116038     705254006009681820246TCS CARRIER BAG MIDI   0000001000+00000035+00000+0001T   00000035+0000001735          1400 CH7090               1CZ
705254004705254080-000133-A   705254006003000647019MINI VALENTINES CARD   0000001000+00000437+00000+0001T   00000437+0000001735          1400 CH7112               1CZ
705255000705255               705255               170213HP     1400+00000+HP0000006398+0000006398+000000000+000000897+0000007290+0000000005+I20000000000+0000007290+Z
705255001705255077-000303     705255006001023593757GIFT-BAG PAPER MED     0000001000+00001578+00000+0001T   00001578+0000001736          1400 CH7112               1CZ
705255002705255077-000475     705255006003000640775GIFT-BAG DESIGNER MED  0000001000+00002630+00000+0001T   00002630+0000001736          1400 CH7112               1CZ
705255003705255903-005000     705255006002580020007SWT CT MALLOW FISH 120g0000001000+00001314+00000+0001T   00001314+0000001736          1400 CH7150               1CZ
705255004705255077-000011-D   705255006001023808554TISSUE-WRAP WHITE 10PCE0000001000+00000876+00000+0001T   00000876+0000001736          1400 CH7112               1CZ
705256000705256               705256               170213HP     1400+00000+HP0000005133+0000005133+000000000+000000719+0000005852+0000000000+I40000005852+0000000000+Z
705256001705256018-000136     705256006001023659026MUG OCC LOVE W/PLUSH   0000001000+00003507+00000+0001T   00003507+0000001740          1400 CH7515               1CZ
705256002705256077-000303     705256006001023593757GIFT-BAG PAPER MED     0000001000+00001578+00000+0001T   00001578+0000001740          1400 CH7112               1CZ
705256003705256112-116069     705256006009681820277TCS CARRIER BAG JUMBO  0000001000+00000048+00000+0001T   00000048+0000001740          1400 CH7090               1CZ
705257000705257               705257               170213HP     1400+00000+HP0000002192+0000002192+000000000+000000307+0000002499+0000000000+I40000002499+0000000000+Z
705257001705257080-000127     705257006003000424351VALENTINES DAY 36x24CM 0000001000+00002192+00000+0001T   00002192+0000001744          1400 CH7112               1AZ
705258000705258               705258               170213HP     1400+00000+HP0000008415+0000008415+000000000+000001179+0000009590+0000000004+I20000000000+0000009590+Z
705258001705258903-000155     705258006009803374435SWT LOLLY I LUV U HEART0000001000+00000525+00000+0001T   00000525+0000001755          1400 CH7150               1CZ
705258002705258037-000002     705258006001023994745ASHTRAY SPIN METAL 9cm 0000001000+00003507+00000+0001T   00003507+0000001755          1400 CH7515               1CZ
705258003705258089-000220     705258006003000677368KEY CHAIN+PEN+KNIFE    0000001000+00003069+00000+0001T   00003069+0000001755          1400 CH7205               1CZ
705258004705258077-000310     705258006001023608635GIFT-BAG 18X23CM GLOSS 0000001000+00001314+00000+0001T   00001314+0000001755          1400 CH7112               1CZ
705259000705259               705259               170213HP     1400+00000+HP0000013417+0000013417+000000000+000001880+0000015290+0000000007+I20000000000+0000015290+Z
705259001705259368-000637     705259006001023874092PLUSH BEAR SLEEPING LOV0000001000+00011402+00000+0001T   00012279+0006471756          1400 CH7745               1CZ
705259002705259903-000155     705259006009803374435SWT LOLLY I LUV U HEART0000001000+00000525+00000+0001T   00000525+0000001756          1400 CH7150               1CZ
705259003705259077-000299     705259006003000395576G/BAG 32x25cm LRG LOVE 0000001000+00001490+00000+0001T   00001490+0000001756          1400 CH7112               1CZ
705260000705260               705260               170213HP     1400+00000+HP0000004557+0000004557+000000000+000000639+0000005190+0000000006+I20000000000+0000005190+Z
705260001705260046-000012     705260006904708013062BATTERIES AA  CARD-OF-40000001000+00001314+00000+0001T   00001314+0000001758          1400 CH7312               1CZ
705260002705260159-080352     705260006916920733314HOOKS 3PCE             0000001000+00001490+00000+0001T   00001490+0000001758          1400 CH7200               1CZ
705260003705260159-000041     705260006001023767684HOOK-HANGER 2PCE S/S   0000001000+00001753+00000+0001T   00001753+0000001758          1400 CH7200               1CZ
B70518600                                          170213HP174-000011     09382527SLAVE 1     CH72IC0000003000+0000002000+0000000000000+
B70518601                                          170213HP083-000295     09384541SLAVE 1     CH72IC0000003000+0000002000+0000000000000+
B70523600                                          170213HP006-000800     16065832SLAVE 1     CH72IC0000012000+0000010000+0000000000000+
M17021391                              CASH        HPSLAVE 1                       Z-REPORT No.   615TOTAL (Sales - Refunds)           5938.71       CASH TO BE BANKED                 4549.60       DEBIT CARDS                          0.00       CREDIT CARDS                      1389.11       Z-READING                         5938.71       AIRTIME DEBIT CARD SALES             0.00       AIRTIME CARD SALES                   0.00       OVERS/UNDERS                         0.00       AIRTIME CASH SALES                   0.00       GIFT CARDS                           0.00       GIFT CARD CASH SALES                 0.00       T O T A L  CASH PAYOUTS              0.00                                                                                                                                                                                                                                                                                                                                                      Z
M17021392                              CASH        HPABSENT                                                                                                                                                                                          ANNUAL LEAVE                                                                                                                                                                                    DAY OFF                                                                                                                                                                                         COMMENTS                                                                                                                                                                                                                                                                                                                                                                                       Z
Y17021300                                          HP00000000521241+000080
ZHP17021319483 SLAVE 1      SALES DATA                     NEXT INVOICE NO.  705261 0615
X HP Slave 1 First invoice 705181 170213 Last invoice 705260 170213 Next invoice 705261 Total number of records 000000299 clbackup completed 19:48:04
