810165000810165               810165               170213HP     1400+00000+HP0000001753+0000001753+000000000+000000246+0000001990+0000000009+I20000000000+0000001990+Z
810165001810165080-000113     810165006003000237449CARD&ENVLPE - LOVE     0000001000+00001753+00000+0001T   00001753+0000001005          1400 RC6112               3AZ
810166000810166               810166               170213HP     1400+00000+HP0000001490+0000001490+000000000+000000209+0000001690+0000000009+I20000000000+0000001690+Z
810166001810166039-000108     810166006001023524034TEA-LITE CANDLES 8PCE  0000001000+00001490+00000+0001T   00001490+0000001037          1400 RC6510               3AZ
810167000810167               810167               170213HP     1400+00000+HP0000000876+0000000876+000000000+000000123+0000000990+0000000009+I20000000000+0000000990+Z
810167001810167071-003004     810167006003000662821PEN BALL POINT 3PC BLUE0000001000+00000876+00000+0001T   00000876+0000001044          1400 RC6130               3AZ
810168000810168               810168               170213HP     1400+00000+HP0000002630+0000002630+000000000+000000369+0000002990+0000000009+I20000000000+0000002990+Z
810168001810168304-001601     810168006001023842374BRANCH CURVED 20PC 1.3m0000001000+00002630+00000+0001T   00002630+0000001055          1400 RC6510               3AZ
810169000810169               810169               170213HP     1400+00000+HP0000001314+0000001314+000000000+000000184+0000001490+0000000008+I20000000000+0000001490+Z
810169001810169072-000235     810169006003000236183DOG-COLLAR REFLECTIVE  0000001000+00001314+00000+0001T   00001753+0008191055          1400 RC6870               3AZ
810170000810170               810170               170213HP     1400+00000+HP0000012497+0000012497+000000000+000001753+0000014250+0000000000+I40000014250+0000000000+Z
810170001810170112-116069     810170006009681820277TCS CARRIER BAG JUMBO  0000001000+00000048+00000+0001T   00000048+0000001100          1400 RC6090               3AZ
810170002810170306-000977     810170006003000559596FIRSTAID PLASTER 75PC  0000001000+00002630+00000+0001T   00002630+0000001100          1400 RC6200               3AZ
810170003810170903-000155     810170006009803374435SWT LOLLY I LUV U HEART0000002000+00000525+00000+0001T   00000525+0000001100          1400 RC6150               3AZ
810170004810170033-000001     810170006003000344321TINTING BOWL & BRUSHES 0000001000+00002630+00000+0001T   00002630+0000001100          1400 RC6200               3AZ
810170005810170031-000860-C   810170006001023798237P/FRAME PL ANTIQUE-BLK 0000001000+00006139+00000+0001T   00006139+0000001100          1400 RC6510               3AZ
810171000810171               810171               170213HP     1400+00000+HP0000005785+0000005785+000000000+000000812+0000006597+0000000000+I40000006597+0000000000+Z
810171001810171466-000400     810171006003000137497DART SET-OF-3          0000002000+00002630+00000+0001T   00002630+0000001106          1400 RC6785               3AZ
810171002810171903-000155     810171006009803374435SWT LOLLY I LUV U HEART0000001000+00000525+00000+0001T   00000525+0000001106          1400 RC6150               3AZ
810172000810172               810172               170213HP     1400+00000+HP0000006138+0000006138+000000000+000000860+0000006990+0000000008+I20000000000+0000006990+Z
810172001810172036-000013     810172006001246500860LINT REMOVER REFILLS   0000001000+00003946+00000+0001T   00003946+0000001106          1400 RC6212               3AZ
810172002810172071-001017     810172006001023892676MARKER DVD FINE+MED 3PC0000001000+00002192+00000+0001T   00002192+0000001106          1400 RC6130               3AZ
810173000810173               810173               170213HP     1400+00000+HP0000006171+0000006171+000000000+000000866+0000007030+0000000007+I20000000000+0000007030+Z
810173001810173039-000332     810173006001023900470CANDLES 8PCE+NUMBERS   0000001000+00002630+00000+0001T   00002630+0000001107          1400 RC6510               3AZ
810173002810173006-000124     810173006003000625888BALLOONS 10PC MIX COL  0000001000+00001753+00000+0001T   00001753+0000001107          1400 RC6131               3AZ
810173003810173077-000240     810173006003000326259G/RIBBON 4PC PEARLIZED 0000001000+00001753+00000+0001T   00001753+0000001107          1400 RC6112               3AZ
810173004810173112-116038     810173006009681820246TCS CARRIER BAG MIDI   0000001000+00000035+00000+0001T   00000035+0000001107          1400 RC6090               3AZ
810174000810174               810174               170213HP     1400+00000+HP0000003068+0000003068+000000000+000000430+0000003490+0000000008+I20000000000+0000003490+Z
810174001810174046-000012-A   810174006003000208296BATTERIES H/POWER SZ:AA0000001000+00002192+00000+0001T   00002192+0000001116          1400 RC6312               3AZ
810174002810174077-000150-D   810174006003000054343GIFT-WRAP CELLPHANE CLR0000001000+00000876+00000+0001T   00000876+0000001116          1400 RC6112               3AZ
810175000810175               810175               170213HP     1400+00000+HP0000010521+0000010521+000000000+000001475+0000011996+0000000000+I40000011996+0000000000+Z
810175001810175072-020312     810175006003000605330PET TOY PUP STARTER PCK0000001000+00002630+00000+0001T   00002630+0000001118          1400 RC6870               3AZ
810175002810175002-000686     810175006001023693792K/TOOL NYL SOUP LADLE  0000001000+00001753+00000+0001T   00001753+0000001118          1400 RC6300               3AZ
810175003810175072-020352     810175006003000561667DOG/CAT BOWL PL 19cm   0000002000+00003069+00000+0001T   00003069+0000001118          1400 RC6870               3AZ
810176000810176               810176               170213HP     1400+00000+HP0000002663+0000002663+000000000+000000374+0000003030+0000000007+I20000000000+0000003030+Z
810176001810176077-000151     810176006008766114676GIFT-WRAP C/PHANE ASSTD0000003000+00000876+00000+0001T   00000876+0000001120          1400 RC6112               3AZ
810176002810176112-116038     810176006009681820246TCS CARRIER BAG MIDI   0000001000+00000035+00000+0001T   00000035+0000001120          1400 RC6090               3AZ
810177000810177               810177               170213HP     1400+00000+HP0000001490+0000001490+000000000+000000209+0000001699+0000000000+I40000001699+0000000000+Z
810177001810177079-000807     810177006003000670277ART+CRAFT WOODEN STICKS0000001000+00001490+00000+0001T   00001490+0000001133          1400 RC6130               3AZ
810178000810178               810178               170213HP     1400+00000+HP0000039558+0000039558+000000000+000005541+0000045090+0000000009+I20000000000+0000045090+Z
810178001810178112-116069     810178006009681820277TCS CARRIER BAG JUMBO  0000001000+00000048+00000+0001T   00000048+0000001142          1400 RC6090               3AZ
810178002810178466-000106     810178006003000128112BALL PL 20CM BASKETBALL0000002000+00003507+00000+0001T   00003507+0000001142          1400 RC6785               3AZ
810178003810178112-116069     810178006009681820277TCS CARRIER BAG JUMBO  0000001000+00000048+00000+0001T   00000048+0000001142          1400 RC6090               3AZ
810178004810178466-000071     810178006003000670871BALL FOOTBALL NO.4     0000003000+00005262+00000+0001T   00005262+0000001142          1400 RC6785               3AZ
810178005810178466-000073     810178006003000669127BALL SOCCER MESH 15.2cm0000001000+00003507+00000+0001T   00003507+0000001142          1400 RC6785               3AZ
810178006810178466-000598     810178006001023751522BALL RUGBY SIZE-2      0000001000+00006139+00000+0001T   00006139+0000001142          1400 RC6785               3AZ
810178007810178466-000075     810178006003000669288BALL RUGBY MESH 27.9cm 0000001000+00007016+00000+0001T   00007016+0000001142          1400 RC6785               3AZ
810179000810179               810179               170213HP     1400+00000+HP0000001801+0000001801+000000000+000000253+0000002050+0000000004+I20000000000+0000002050+Z
810179001810179078-000480     810179006008741002332BOSTIK SHOE-REPAIR 25ml0000001000+00001753+00000+0001T   00001753+0000001143          1400 RC6810               3AZ
810179002810179112-116069     810179006009681820277TCS CARRIER BAG JUMBO  0000001000+00000048+00000+0001T   00000048+0000001143          1400 RC6090               3AZ
810180000810180               810180               170213HP     1400+00000+HP0000005261+0000005261+000000000+000000737+0000005990+0000000008+I20000000000+0000005990+Z
810180001810180006-005909     810180006003000081301PARTY FAVOUR STAR WAND 0000001000+00002192+00000+0001T   00002192+0000001156          1400 RC6131               3AZ
810180002810180366-000256     810180006001023918406DRESS UP TIARA&EARRINGS0000001000+00003069+00000+0001T   00003069+0000001156          1400 RC6131               3AZ
810181000810181               810181               170213HP     1400+00000+HP0000004383+0000004383+000000000+000000615+0000004990+0000000008+I20000000000+0000004990+Z
810181001810181903-000215     810181006002099001214SWT GS MALLOW TWIST PAC0000001000+00001753+00000+0001T   00001753+0000001159          1400 RC6150               3AZ
810181002810181075-000419     810181006003000675746BAG SHOPPER NON-WOVEN  0000001000+00002630+00000+0001T   00002630+0000001159          1400 RC6160               3AZ
810182000810182               810182               170213HP     1400+00000+HP0000019514+0000019514+000000000+000002735+0000022240+0000000009+I20000000000+0000022240+Z
810182001810182112-116069     810182006009681820277TCS CARRIER BAG JUMBO  0000001000+00000048+00000+0001T   00000048+0000001207          1400 RC6090               3AZ
810182002810182304-001204     810182006001023737984FLOWER OCC. TEDDY/ROSES0000002000+00001402+00000+0001T   00001490+0006471207          1400 RC6510               3AZ
810182003810182080-000127     810182006003000424351VALENTINES DAY 36x24CM 0000002000+00002192+00000+0001T   00002192+0000001207          1400 RC6112               3AZ
810182004810182368-000067     810182006003000667864PLUSH REINDEER 20cm    0000002000+00006139+00000+0001T   00006139+0000001207          1400 RC6745               3AZ
810183000810183               810183               170213HP     1400+00000+HP0000000525+0000000525+000000000+000000074+0000000590+0000000009+I20000000000+0000000590+Z
810183001810183007-000402     810183006009635830864EXERCISE-BOOK A4 72PGE 0000001000+00000525+00000+0001T   00000525+0000001210          1400 RC6130               3AZ
810184000810184               810184               170213HP     1400+00000+HP0000008819+0000008819+000000000+000001235+0000010050+0000000004+I20000000000+0000010050+Z
810184001810184001-091415     810184006003000329113W/GLS OCC. LOVE 2PC 2800000001000+00008771+00000+0001T   00009648+0006471211          1400 RC6515               3AZ
810184002810184112-116069     810184006009681820277TCS CARRIER BAG JUMBO  0000001000+00000048+00000+0001T   00000048+0000001211          1400 RC6090               3AZ
810185000810185               810185               170213HP     1400+00000+HP0000001490+0000001490+000000000+000000209+0000001690+0000000009+I20000000000+0000001690+Z
810185001810185077-000299     810185006003000395576G/BAG 32x25cm LRG LOVE 0000001000+00001490+00000+0001T   00001490+0000001212          1400 RC6112               3AZ
810186000810186               810186               170213HP     1400+00000+HP0000002678+0000002678+000000000+000000376+0000003050+0000000004+I20000000000+0000003050+Z
810186001810186077-000270     810186006003000395453GIFT-BAG PPR JMB 33X45 0000001000+00002630+00000+0001T   00002630+0000001219          1400 RC6112               3AZ
810186002810186112-116069     810186006009681820277TCS CARRIER BAG JUMBO  0000001000+00000048+00000+0001T   00000048+0000001219          1400 RC6090               3AZ
810187000810187               810187               170213HP     1400+00000+HP0000012323+0000012323+000000000+000001727+0000014050+0000000000+I20000000000+0000014050+Z
810187001810187112-116069     810187006009681820277TCS CARRIER BAG JUMBO  0000001000+00000048+00000+0001T   00000048+0000001220          1400 RC6090               3AZ
810187002810187562-000001     810187006009801541556MARLIN PLASTIC ABACUS  0000001000+00005262+00000+0001T   00005262+0000001220          1400 RC6755               3AZ
810187003810187567-011443     810187009781847506719BK PUZZLE WORDSEARCH   0000001000+00003507+00000+0001T   00003507+0000001220          1400 RC6757               3AZ
810187004810187007-000205     810187006002324000432FILE BINDER 2-RING A4  0000002000+00001753+00000+0001T   00001753+0000001220          1400 RC6130               3AZ
810188000810188               810188               170213HP     1400+00000+HP0000011182+0000011182+000000000+000001568+0000012750+0000000000+I20000000000+0000012750+Z
810188001810188112-116069     810188006009681820277TCS CARRIER BAG JUMBO  0000001000+00000048+00000+0001T   00000048+0000001229          1400 RC6090               3AZ
810188002810188089-060027     810188006003000245871KEY-CHAIN HEART 6X6cm  0000001000+00003069+00000+0001T   00003069+0000001229          1400 RC6205               3AZ
810188003810188368-000049     810188006003000536955PLUSH BEAR 15cm LOVE   0000001000+00004385+00000+0001T   00004385+0000001229          1400 RC6745               3AZ
810188004810188124-000001     810188000738380781690STORAGE TIN TISSUE     0000001000+00002630+00000+0001T   00003507+0008171229          1400 RC6300               3AZ
810188005810188903-000155     810188006009803374435SWT LOLLY I LUV U HEART0000002000+00000525+00000+0001T   00000525+0000001229          1400 RC6150               3AZ
810189000810189               810189               170213HP     1400+00000+HP0000002852+0000002852+000000000+000000400+0000003250+0000000002+I20000000000+0000003250+Z
810189001810189112-116069     810189006009681820277TCS CARRIER BAG JUMBO  0000001000+00000048+00000+0001T   00000048+0000001233          1400 RC6090               3AZ
810189002810189077-000310     810189006001023608635GIFT-BAG 18X23CM GLOSS 0000001000+00001314+00000+0001T   00001314+0000001233          1400 RC6112               3AZ
810189003810189077-000299     810189006003000395576G/BAG 32x25cm LRG LOVE 0000001000+00001490+00000+0001T   00001490+0000001233          1400 RC6112               3AZ
810190000810190               810190               170213HP     1400+00000+HP0000008770+0000008770+000000000+000001228+0000009990+0000000008+I20000000000+0000009990+Z
810190001810190107-004000     810190006001023889256BASIN PL OBLONG        0000002000+00004385+00000+0001T   00004385+0000001234          1400 RC6210               3AZ
810191000810191               810191               170213HP     1400+00000+HP0000001402+0000001402+000000000+000000197+0000001590+0000000009+I20000000000+0000001590+Z
810191001810191304-001204     810191006001023737984FLOWER OCC. TEDDY/ROSES0000001000+00001402+00000+0001T   00001490+0006471242          1400 RC6510               3AZ
810192000810192               810192               170213HP     1400+00000+HP0000025647+0000025647+000000000+000003592+0000029230+0000000009+I20000000000+0000029230+Z
810192001810192112-116069     810192006009681820277TCS CARRIER BAG JUMBO  0000001000+00000048+00000+0001T   00000048+0000001245          1400 RC6090               3AZ
810192002810192018-000130     810192006001023867537MUG OCC LOVE MINI+HEART0000005000+00003507+00000+0001T   00003507+0000001245          1400 RC6515               3AZ
810192003810192903-000155     810192006009803374435SWT LOLLY I LUV U HEART0000002000+00000525+00000+0001T   00000525+0000001245          1400 RC6150               3AZ
810192004810192301-085004     810192006003000420469ORN LOVE PLAQUE 21X10CM0000001000+00003507+00000+0001T   00003946+0006471245          1400 RC6505               3AZ
810192005810192018-000136     810192006001023659026MUG OCC LOVE W/PLUSH   0000001000+00003507+00000+0001T   00003507+0000001245          1400 RC6515               3AZ
810193000810193               810193               170213HP     1400+00000+HP0000007063+0000007063+000000000+000000990+0000008050+0000000003+I20000000000+0000008050+Z
810193001810193077-000309     810193006001023608604GIFT-BAG 25X32CM GLOSS 0000001000+00001753+00000+0001T   00001753+0000001250          1400 RC6112               3AZ
810193002810193263-000188     810193006001023790927CAR RACER 24cm         0000001000+00005262+00000+0001T   00005262+0000001250          1400 RC6710               3AZ
810193003810193112-116069     810193006009681820277TCS CARRIER BAG JUMBO  0000001000+00000048+00000+0001T   00000048+0000001250          1400 RC6090               3AZ
810194000810194               810194               170213HP     1400+00000+HP0000003506+0000003506+000000000+000000492+0000003990+0000000008+I20000000000+0000003990+Z
810194001810194027-056191     810194006916920933134DISH-BRUSH+HOOK RECT   0000002000+00001753+00000+0001T   00001753+0000001253          1400 RC6212               3AZ
810195000810195               810195               170213HP     1400+00000+HP0000001928+0000001928+000000000+000000270+0000002190+0000000008+I20000000000+0000002190+Z
810195001810195050-000361-Z   810195006001023535382PADLOCK IRON 20mm CARD 0000001000+00001928+00000+0001T   00001928+0000001255          1400 RC6855               3AZ
810196000810196               810196               170213HP     1400+00000+HP0000001490+0000001490+000000000+000000209+0000001699+0000000000+I40000001699+0000000000+Z
810196001810196077-000299     810196006003000395576G/BAG 32x25cm LRG LOVE 0000001000+00001490+00000+0001T   00001490+0000001306          1400 RC6112               3AZ
810197000810197               810197               170213HP     1400+00000+HP0000001227+0000001227+000000000+000000172+0000001390+0000000009+I20000000000+0000001390+Z
810197001810197306-001004     810197006003000560479BANDAGE CREPE 1 PIECE  0000001000+00001227+00000+0001T   00001227+0000001312          1400 RC6200               3AZ
810198000810198               810198               170213HP     1400+00000+HP0000010083+0000010083+000000000+000001412+0000011490+0000000005+I20000000000+0000011490+Z
810198001810198567-011429     810198009780799352610BK READER BEGIN LEES   0000001000-00003507+00000+0001T   00004823+0008141322          1400 RC67571IC            3 Z
810198002810198567-011429     810198009780799352597BK READER BEGIN LEES   0000001000-00003507+00000+0001T   00004823+0008141322          1400 RC67571IC            3 Z
810198003810198567-011428     810198009780799352542BK READER BEGIN LEES   0000001000+00003507+00000+0001T   00004823+0008141322          1400 RC6757               3AZ
810198004810198567-011428     810198009780799352573BK READER BEGIN LEES   0000001000+00003507+00000+0001T   00004823+0008141322          1400 RC6757               3AZ
810198005810198567-011428     810198009780799352559BK READER BEGIN LEES   0000001000+00003507+00000+0001T   00004823+0008141322          1400 RC6757               3AZ
810198006810198567-011428     810198009780799352566BK READER BEGIN LEES   0000001000+00003507+00000+0001T   00004823+0008141322          1400 RC6757               3AZ
810198007810198567-014135     810198006003000560264BOOK COLOURING 240P    0000001000+00003069+00000+0001T   00003507+0008191322          1400 RC6757               3AZ
810199000810199               810199               170213HP     1400+00000+HP0000001753+0000001753+000000000+000000246+0000001990+0000000009+I20000000000+0000001990+Z
810199001810199077-000382     810199006003000247820GIFT-BAG MED 18X23CM   0000001000+00001753+00000+0001T   00001753+0000001326          1400 RC6112               3AZ
810200000810200               810200               170213HP     1400+00000+HP0000002366+0000002366+000000000+000000332+0000002690+0000000008+I20000000000+0000002690+Z
810200001810200362-003000     810200006003000295258GIRL HEART NOTEBOOK    0000001000+00001753+00000+0001T   00002630+0008191328          1400 RC6160               3AZ
810200002810200077-000311     810200006001023608666GIFT-BAG 11X14CM GLOSS 0000001000+00000613+00000+0001T   00000613+0000001328          1400 RC6112               3AZ
810201000810201               810201               170213HP     1400+00000+HP0000002630+0000002630+000000000+000000369+0000002990+0000000009+I20000000000+0000002990+Z
810201001810201077-000235     810201006003000160211GIFT-RIBBON ROLL METALC0000001000+00002630+00000+0001T   00002630+0000001328          1400 RC6112               3AZ
810202000810202               810202               170213HP     1400+00000+HP0000006139+0000006139+000000000+000000860+0000006990+0000000009+I20000000000+0000006990+Z
810202001810202497-068614     810202000078257686148H/PUMP HIGH-O/PUT 36cm 0000001000+00006139+00000+0001T   00006139+0000001339          1400 RC6787               3AZ
810203000810203               810203               170213HP     1400+00000+HP0000001753+0000001753+000000000+000000246+0000001990+0000000009+I20000000000+0000001990+Z
810203001810203162-083941     810203006001492839417SS HEADBANDS           0000001000+00001753+00000+0001T   00001753+0000001341          1400 RC6160               3AZ
810204000810204               810204               170213HP     1400+00000+HP0000000700+0000000700+000000000+000000098+0000000790+0000000008+I20000000000+0000000790+Z
810204001810204007-000060     810204006003000589388ENVELOPE A5 18x23CM    0000002000+00000350+00000+0001T   00000350+0000001356          1400 RC6130               3AZ
810205000810205               810205               170213HP     1400+00000+HP0000004385+0000004385+000000000+000000614+0000004990+0000000009+I20000000000+0000004990+Z
810205001810205018-030000     810205006003000421060MUG OCCASIONS LOVE 2PCE0000001000+00004385+00000+0001T   00004385+0000001358          1400 RC6515               3AZ
810206000810206               810206               170213HP     1400+00000+HP0000002980+0000002980+000000000+000000418+0000003390+0000000008+I20000000000+0000003390+Z
810206001810206084-009407     810206006001023861726SCISSORS 13cm MTL PL-H 0000001000+00001753+00000+0001T   00001753+0000001400          1400 RC6200               3AZ
810206002810206071-081104-A   810206006003000326662GLUE-STICK 8g CRD-OF-3 0000001000+00001227+00000+0001T   00001227+0000001400          1400 RC6130               3AZ
M17021391                              CASH        HPSLAVE 3                       Z-REPORT No.   575TOTAL (Sales - Refunds)           2854.61       CASH TO BE BANKED                 2492.20       DEBIT CARDS                          0.00       CREDIT CARDS                       362.41       Z-READING                         2854.61       AIRTIME DEBIT CARD SALES             0.00       AIRTIME CARD SALES                   0.00       OVERS/UNDERS                         0.00       AIRTIME CASH SALES                   0.00       GIFT CARDS                           0.00       GIFT CARD CASH SALES                 0.00       T O T A L  CASH PAYOUTS              0.00                                                                                                                                                                                                                                                                                                                                                      Z
M17021392                              CASH        HPABSENT                                                                                                                                                                                          ANNUAL LEAVE                                                                                                                                                                                    DAY OFF                                                                                                                                                                                         COMMENTS                                                                                                                                                                                                                                                                                                                                                                                       Z
Y17021300                                          HP00000000257618+000042
ZHP17021319483 SLAVE 3      SALES DATA                     NEXT INVOICE NO.  810207 0575
X HP Slave 3 First invoice 810165 170213 Last invoice 810206 170213 Next invoice 810207 Total number of records 000000138 clbackup completed 19:48:09
