820899000820899               820899               170213HP     1400+00000+HP0000026304+0000026304+000000000+000003684+0000029988+           I90000000000+0000000000+Z
820899001820899261-008349     820899006001023787590CAP-GUN 8-SHOT         0000012000+00002192+00000+0001T063582320000                    1400 1IC7101ICV             Z
820900000820900               820900               170213HP     1400+00000+HP0000002630+0000002630+000000000+000000369+0000002999+           I90000000000+0000000000+Z
820900001820900019-071603     820900006001023772039RIVER-STONES 1kg PEACH 0000001000+00002630+00000+0001T023473610000                    1400 1IC5101ICV             Z
M17021391                              CASH        HPSLAVE 4                       Z-REPORT No.   504TOTAL (Sales - Refunds)              0.00       CASH TO BE BANKED                    0.00       DEBIT CARDS                          0.00       CREDIT CARDS                         0.00       Z-READING                            0.00       AIRTIME DEBIT CARD SALES             0.00       AIRTIME CARD SALES                   0.00       OVERS/UNDERS                         0.00       AIRTIME CASH SALES                   0.00       GIFT CARDS                           0.00       GIFT CARD CASH SALES                 0.00       T O T A L  CASH PAYOUTS              0.00                                                                                                                                                                                                                                                                                                                                                      Z
M17021392                              CASH        HPABSENT                                                                                                                                                                                          ANNUAL LEAVE                                                                                                                                                                                    DAY OFF                                                                                                                                                                                         COMMENTS                                                                                                                                                                                                                                                                                                                                                                                       Z
Y17021300                                          HP00000000000000+000000
ZHP17021319483 SLAVE 4      SALES DATA                     NEXT INVOICE NO.  820901 0504
L52964200353114-001-001       HP1702131337451ICMORABA WESSEL                                                                                                                                                                                                                                                                                                                                                                                                                                                                                                                                                                                                                                                                                                                                                                                                                                                                                                                                                                                        Z
L55550500350539-001-007       HP1702131311071ICMORABA WESSEL                                                                                                                                                                                                                                                                                                                                                                                                                                                                                                                                                                                                                                                                                                                                                                                                                                                                                                                                                                                        Z
L55550500350539-002-007       HP1702131310201ICMORABA WESSEL                                                                                                                                                                                                                                                                                                                                                                                                                                                                                                                                                                                                                                                                                                                                                                                                                                                                                                                                                                                        Z
L55550500350539-003-007       HP1702131309451ICMORABA WESSEL                                                                                                                                                                                                                                                                                                                                                                                                                                                                                                                                                                                                                                                                                                                                                                                                                                                                                                                                                                                        Z
L55550500350539-004-007       HP1702131310331ICMORABA WESSEL                                                                                                                                                                                                                                                                                                                                                                                                                                                                                                                                                                                                                                                                                                                                                                                                                                                                                                                                                                                        Z
L55550500350539-005-007       HP1702131309591ICMORABA WESSEL                                                                                                                                                                                                                                                                                                                                                                                                                                                                                                                                                                                                                                                                                                                                                                                                                                                                                                                                                                                        Z
L55550500350539-006-007       HP1702131310471ICMORABA WESSEL                                                                                                                                                                                                                                                                                                                                                                                                                                                                                                                                                                                                                                                                                                                                                                                                                                                                                                                                                                                        Z
L55550500350539-007-007       HP1702131309331ICMORABA WESSEL                                                                                                                                                                                                                                                                                                                                                                                                                                                                                                                                                                                                                                                                                                                                                                                                                                                                                                                                                                                        Z
L55640500357117-001-001       HP1702131305491ICMORABA WESSEL                                                                                                                                                                                                                                                                                                                                                                                                                                                                                                                                                                                                                                                                                                                                                                                                                                                                                                                                                                                        Z
L55646500356710-001-003       HP1702131243431ICMORABA WESSEL                                                                                                                                                                                                                                                                                                                                                                                                                                                                                                                                                                                                                                                                                                                                                                                                                                                                                                                                                                                        Z
L55646500356710-002-003       HP1702131243111ICMORABA WESSEL                                                                                                                                                                                                                                                                                                                                                                                                                                                                                                                                                                                                                                                                                                                                                                                                                                                                                                                                                                                        Z
L55646500356710-003-003       HP1702131239211ICMORABA WESSEL                                                                                                                                                                                                                                                                                                                                                                                                                                                                                                                                                                                                                                                                                                                                                                                                                                                                                                                                                                                        Z
L55649600356322-001-001       HP1702131330201ICMORABA WESSEL                                                                                                                                                                                                                                                                                                                                                                                                                                                                                                                                                                                                                                                                                                                                                                                                                                                                                                                                                                                        Z
L55700900358232-001-003       HP1702131353221ICMORABA WESSEL                                                                                                                                                                                                                                                                                                                                                                                                                                                                                                                                                                                                                                                                                                                                                                                                                                                                                                                                                                                        Z
L55700900358232-002-003       HP1702131352021ICMORABA WESSEL                                                                                                                                                                                                                                                                                                                                                                                                                                                                                                                                                                                                                                                                                                                                                                                                                                                                                                                                                                                        Z
L55700900358232-003-003       HP1702131352181ICMORABA WESSEL                                                                                                                                                                                                                                                                                                                                                                                                                                                                                                                                                                                                                                                                                                                                                                                                                                                                                                                                                                                        Z
L55723700358611-001-004       HP1702131252261ICMORABA WESSEL                                                                                                                                                                                                                                                                                                                                                                                                                                                                                                                                                                                                                                                                                                                                                                                                                                                                                                                                                                                        Z
L55723700358611-002-004       HP1702131253191ICMORABA WESSEL                                                                                                                                                                                                                                                                                                                                                                                                                                                                                                                                                                                                                                                                                                                                                                                                                                                                                                                                                                                        Z
L55723700358611-003-004       HP1702131252401ICMORABA WESSEL                                                                                                                                                                                                                                                                                                                                                                                                                                                                                                                                                                                                                                                                                                                                                                                                                                                                                                                                                                                        Z
L55723700358611-004-004       HP1702131252551ICMORABA WESSEL                                                                                                                                                                                                                                                                                                                                                                                                                                                                                                                                                                                                                                                                                                                                                                                                                                                                                                                                                                                        Z
L56300300348338-001-001       HP1702131328351ICMORABA WESSEL                                                                                                                                                                                                                                                                                                                                                                                                                                                                                                                                                                                                                                                                                                                                                                                                                                                                                                                                                                                        Z
L56361200357393-001-001       HP1702131326301ICMORABA WESSEL                                                                                                                                                                                                                                                                                                                                                                                                                                                                                                                                                                                                                                                                                                                                                                                                                                                                                                                                                                                        Z
L56876600357788-001-001       HP1702131318331ICMORABA WESSEL                                                                                                                                                                                                                                                                                                                                                                                                                                                                                                                                                                                                                                                                                                                                                                                                                                                                                                                                                                                        Z
L57412100358127-001-004       HP1702131344451ICMORABA WESSEL                                                                                                                                                                                                                                                                                                                                                                                                                                                                                                                                                                                                                                                                                                                                                                                                                                                                                                                                                                                        Z
L57412100358127-002-004       HP1702131344231ICMORABA WESSEL                                                                                                                                                                                                                                                                                                                                                                                                                                                                                                                                                                                                                                                                                                                                                                                                                                                                                                                                                                                        Z
L57412100358127-003-004       HP1702131343361ICMORABA WESSEL                                                                                                                                                                                                                                                                                                                                                                                                                                                                                                                                                                                                                                                                                                                                                                                                                                                                                                                                                                                        Z
L57412100358127-004-004       HP1702131344011ICMORABA WESSEL                                                                                                                                                                                                                                                                                                                                                                                                                                                                                                                                                                                                                                                                                                                                                                                                                                                                                                                                                                                        Z
L57449700357855-001-003       HP1702131339381ICMORABA WESSEL                                                                                                                                                                                                                                                                                                                                                                                                                                                                                                                                                                                                                                                                                                                                                                                                                                                                                                                                                                                        Z
L57449700357855-002-003       HP1702131338411ICMORABA WESSEL                                                                                                                                                                                                                                                                                                                                                                                                                                                                                                                                                                                                                                                                                                                                                                                                                                                                                                                                                                                        Z
L57449700357855-003-003       HP1702131339011ICMORABA WESSEL                                                                                                                                                                                                                                                                                                                                                                                                                                                                                                                                                                                                                                                                                                                                                                                                                                                                                                                                                                                        Z
L57675900357711-001-001       HP1702131241371ICMORABA WESSEL                                                                                                                                                                                                                                                                                                                                                                                                                                                                                                                                                                                                                                                                                                                                                                                                                                                                                                                                                                                        Z
L57696100357656-001-002       HP1702131335461ICMORABA WESSEL                                                                                                                                                                                                                                                                                                                                                                                                                                                                                                                                                                                                                                                                                                                                                                                                                                                                                                                                                                                        Z
L57696100357656-002-002       HP1702131335181ICMORABA WESSEL                                                                                                                                                                                                                                                                                                                                                                                                                                                                                                                                                                                                                                                                                                                                                                                                                                                                                                                                                                                        Z
L57702200358160-001-002       HP1702131336351ICMORABA WESSEL                                                                                                                                                                                                                                                                                                                                                                                                                                                                                                                                                                                                                                                                                                                                                                                                                                                                                                                                                                                        Z
L57702200358160-002-002       HP1702131337141ICMORABA WESSEL                                                                                                                                                                                                                                                                                                                                                                                                                                                                                                                                                                                                                                                                                                                                                                                                                                                                                                                                                                                        Z
L57713500357222-001-001       HP1702131308421ICMORABA WESSEL                                                                                                                                                                                                                                                                                                                                                                                                                                                                                                                                                                                                                                                                                                                                                                                                                                                                                                                                                                                        Z
L57750500347361-001-003       HP1702131240571ICMORABA WESSEL                                                                                                                                                                                                                                                                                                                                                                                                                                                                                                                                                                                                                                                                                                                                                                                                                                                                                                                                                                                        Z
L57750500347361-002-003       HP1702131240341ICMORABA WESSEL                                                                                                                                                                                                                                                                                                                                                                                                                                                                                                                                                                                                                                                                                                                                                                                                                                                                                                                                                                                        Z
L57750500347361-003-003       HP1702131240131ICMORABA WESSEL                                                                                                                                                                                                                                                                                                                                                                                                                                                                                                                                                                                                                                                                                                                                                                                                                                                                                                                                                                                        Z
L58183100347321-001-001       HP1702131305001ICMORABA WESSEL                                                                                                                                                                                                                                                                                                                                                                                                                                                                                                                                                                                                                                                                                                                                                                                                                                                                                                                                                                                        Z
L58231900356855-001-001       HP1702131306231ICMORABA WESSEL                                                                                                                                                                                                                                                                                                                                                                                                                                                                                                                                                                                                                                                                                                                                                                                                                                                                                                                                                                                        Z
L58242600358625-001-003       HP1702131342351ICMORABA WESSEL                                                                                                                                                                                                                                                                                                                                                                                                                                                                                                                                                                                                                                                                                                                                                                                                                                                                                                                                                                                        Z
L58242600358625-002-003       HP1702131342121ICMORABA WESSEL                                                                                                                                                                                                                                                                                                                                                                                                                                                                                                                                                                                                                                                                                                                                                                                                                                                                                                                                                                                        Z
L58242600358625-003-003       HP1702131340181ICMORABA WESSEL                                                                                                                                                                                                                                                                                                                                                                                                                                                                                                                                                                                                                                                                                                                                                                                                                                                                                                                                                                                        Z
L58316500356430-001-003       HP1702131246091ICMORABA WESSEL                                                                                                                                                                                                                                                                                                                                                                                                                                                                                                                                                                                                                                                                                                                                                                                                                                                                                                                                                                                        Z
L58316500356430-002-003       HP1702131244471ICMORABA WESSEL                                                                                                                                                                                                                                                                                                                                                                                                                                                                                                                                                                                                                                                                                                                                                                                                                                                                                                                                                                                        Z
L58316500356430-003-003       HP1702131245091ICMORABA WESSEL                                                                                                                                                                                                                                                                                                                                                                                                                                                                                                                                                                                                                                                                                                                                                                                                                                                                                                                                                                                        Z
L58329800354837-001-001       HP1702131308101ICMORABA WESSEL                                                                                                                                                                                                                                                                                                                                                                                                                                                                                                                                                                                                                                                                                                                                                                                                                                                                                                                                                                                        Z
L58388500354329-001-001       HP1702131327381ICMORABA WESSEL                                                                                                                                                                                                                                                                                                                                                                                                                                                                                                                                                                                                                                                                                                                                                                                                                                                                                                                                                                                        Z
L58398800353587-001-001       HP1702131312501ICMORABA WESSEL                                                                                                                                                                                                                                                                                                                                                                                                                                                                                                                                                                                                                                                                                                                                                                                                                                                                                                                                                                                        Z
L58427200360750-001-002       HP1702131247181ICMORABA WESSEL                                                                                                                                                                                                                                                                                                                                                                                                                                                                                                                                                                                                                                                                                                                                                                                                                                                                                                                                                                                        Z
L58427200360750-002-002       HP1702131247011ICMORABA WESSEL                                                                                                                                                                                                                                                                                                                                                                                                                                                                                                                                                                                                                                                                                                                                                                                                                                                                                                                                                                                        Z
L58442400358267-001-002       HP1702131248041ICMORABA WESSEL                                                                                                                                                                                                                                                                                                                                                                                                                                                                                                                                                                                                                                                                                                                                                                                                                                                                                                                                                                                        Z
L58442400358267-002-002       HP1702131247481ICMORABA WESSEL                                                                                                                                                                                                                                                                                                                                                                                                                                                                                                                                                                                                                                                                                                                                                                                                                                                                                                                                                                                        Z
T094201496-056475                                          1702130945220000022ICSLAVE 4
F094255369-001013         1701181006320000022ICSLAVE 4
T094442108-005005                                          1702130945390000052ICSLAVE 4
T094510108-005005                                          1702130945510000022ICSLAVE 4
T094511108-005005                                          1702130946070000032ICSLAVE 4
V5296420000005005                                                 0000000000000001702130000001ICSLAVE 4     170213180319353114N              01
V5555050000005005                                                 0000000000000001702130000001ICSLAVE 4     170213172532350539N              07
V5564050000005005                                                 0000000000000001702130000001ICSLAVE 4     170213160144357117N              01
V5564650000005005                                                 000000000000000170213000000   SLAVE 4     000000000000356710               03
V5564960000005005                                                 0000000000000001702130000001ICSLAVE 4     170213175707356322N              01
V5570090000005005                                                 0000000000000001702130000001ICSLAVE 4     170213143133358232Y              03
V5572370000005005                                                 0000000000000001702130000001ICSLAVE 4     170213162724358611N              04
V5630030000005005                                                 000000000000000170213000000   SLAVE 4     000000000000348338               01
V5636120000005005                                                 000000000000000170213000000   SLAVE 4     000000000000357393               01
V5687660000005005                                                 0000000000000001702130000001ICSLAVE 4     170213175053357788N              01
V5741210000005005                                                 000000000000000170213000000   SLAVE 4     000000000000358127               04
V5744970000005005                                                 000000000000000170213000000   SLAVE 4     000000000000357855               03
V5767590000005005                                                 0000000000000001702130000001ICSLAVE 4     170213145400357711N              01
V5769610000005005                                                 000000000000000170213000000   SLAVE 4     000000000000357656               02
V5770220000005005                                                 0000000000000001702130000001ICSLAVE 4     170213180848358160N              02
V5771350000005005                                                 0000000000000001702130000001ICSLAVE 4     170213173938357222N              01
V5775050000005005                                                 0000000000000001702130000001ICSLAVE 4     170213144248347361Y              03
R5794810000105005                                  567-004952     0097806360490791702130000032ICSLAVE 4     170213101545347361Y              00
R5794810000405005                                  567-004957     0097806360490861702130000032ICSLAVE 4     170213101559347361Y              00
R5794810000705005                                  567-004961     0097806360490171702130000032ICSLAVE 4     170213101350347361Y              00
R5794810000805005                                  567-004962     0097806360490931702130000032ICSLAVE 4     170213101619347361Y              00
R5794810001805005                                  567-013439     0097817757857741702130000122ICSLAVE 4     170213102040347361Y              00
V5818310000005005                                                 0000000000000001702130000001ICSLAVE 4     170213155108347321N              01
V5823190000005005                                                 0000000000000001702130000001ICSLAVE 4     170213160757356855N              01
V5824260000005005                                                 000000000000000170213000000   SLAVE 4     000000000000358625               03
V5831650000005005                                                 0000000000000001702130000001ICSLAVE 4     170213152338356430N              03
V5832980000005005                                                 0000000000000001702130000001ICSLAVE 4     170213173243354837N              01
V5838850000005005                                                 000000000000000170213000000   SLAVE 4     000000000000354329               01
V5839880000005005                                                 000000000000000170213000000   SLAVE 4     000000000000353587               01
V5842720000005005                                                 0000000000000001702130000001ICSLAVE 4     170213153500360750N              02
V5844240000005005                                                 0000000000000001702130000001ICSLAVE 4     170213154809358267N              02
X HP Slave 4 First invoice 820899 170213 Last invoice 820900 170213 Next invoice 820901 Total number of records 000000098 clbackup completed 19:48:12
