103191000103191               103191               170213HR     1400+00000+HR0000003507+0000003507+000000000+000000491+0000003998+0000000000+I40000003998+0000000000+Z
103191001103191567-011443     103191009781847506719BK PUZZLE WORDSEARCH   0000001000+00003507+00000+0001T   00003507+0000001214          1400 GU3757               1BZ
103192000103192               103192               170213HR     1400+00000+HR0000003945+0000003945+000000000+000000553+0000004490+0000000008+I20000000000+0000004490+Z
103192001103192566-000031     103192006003000283910STICKER BK TEACHER STIC0000001000+00002192+00000+0001T   00002192+0000001215          1400 GU3130               1BZ
103192002103192566-000007     103192006001023761187S/BOOK SUPER VALUE     0000001000+00001753+00000+0001T   00001753+0000001215          1400 GU3130               1BZ
103193000103193               103193               170213HR     1400+00000+HR0000050456+0000050456+000000000+000007071+0000057527+0000000000+I10000057487+0000000040+Z
103193001103193024-000069     103193006001023849571EGG-WHISK S/S 30cm     0000001000+00003069+00000+0001T   00003069+0000001219          1400 GU3300               1BZ
103193002103193024-000119-A   103193006003000407613N/STICK MINI TART LOSE 0000012000+00003946+00000+0001T   00003946+0000001219          1400 GU3300               1BZ
103193003103193112-116038     103193006009681820246TCS CARRIER BAG MIDI   0000001000+00000035+00000+0001T   00000035+0000001219          1400 GU3090               1BZ
103194000103194               103194               170213HR     1400+00000+HR0000001578+0000001578+000000000+000000221+0000001790+0000000009+I20000000000+0000001790+Z
103194001103194077-000303     103194006001023593757GIFT-BAG PAPER MED     0000001000+00001578+00000+0001T   00001578+0000001231          1400 GU3112               1BZ
103195000103195               103195               170213HR     1400+00000+HR0000008015+0000008015+000000000+000001123+0000009130+0000000008+I20000000000+0000009130+Z
103195001103195486-002065     103195006003000057030C/ALARM QTZ PL SQUARE  0000001000+00006578+00000+0001T   00006578+0000001233          1400 GU3510               1BZ
103195002103195046-000011     103195004897006172994BATTERIES SIZE:AA  2PCE0000001000+00001402+00000+0001T   00001402+0000001233          1400 GU3312               1BZ
103195003103195112-116038     103195006009681820246TCS CARRIER BAG MIDI   0000001000+00000035+00000+0001T   00000035+0000001233          1400 GU3090               1BZ
103196000103196               103196               170213HR     1400+00000+HR0000002630+0000002630+000000000+000000369+0000002990+0000000009+I20000000000+0000002990+Z
103196001103196369-001013     103196006003000500451BABY BATH VINYL DUCK   0000001000+00002630+00000+0001T   00002630+0000001234          1400 GU3745               1BZ
103197000103197               103197               170213HR     1400+00000+HR0000002313+0000002313+000000000+000000324+0000002630+0000000007+I20000000000+0000002630+Z
103197001103197018-000177     103197006001023797513MUG MINI LOVE ASSTD    0000001000+00000700+00000+0001T   00000700+0000001238          1400 GU3515               1BZ
103197002103197080-000124     103197006003000297733CARD & ENV VALENTINES  0000001000+00001578+00000+0001T   00001578+0000001238          1400 GU3112               1BZ
103197003103197112-116038     103197006009681820246TCS CARRIER BAG MIDI   0000001000+00000035+00000+0001T   00000035+0000001238          1400 GU3090               1BZ
103198000103198               103198               170213HR     1400+00000+HR0000002452+0000002452+000000000+000000344+0000002790+0000000006+I20000000000+0000002790+Z
103198001103198018-000177     103198006001023797513MUG MINI LOVE ASSTD    0000001000+00000700+00000+0001T   00000700+0000001241          1400 GU3515               1BZ
103198002103198903-000494     103198006001704009911SWT GUMMY TEENY TEDDIES0000001000+00000876+00000+0001T   00000876+0000001241          1400 GU3150               1BZ
103198003103198077-000011-C   103198006001023808523TISSUE 10xSHTS RED     0000001000+00000876+00000+0001T   00000876+0000001241          1400 GU3112               1BZ
103199000103199               103199               170213HR     1400+00000+HR0000000700+0000000700+000000000+000000098+0000000790+0000000008+I20000000000+0000000790+Z
103199001103199903-000126     103199006002099003591SWT ZILLIONS MINT 50G  0000001000+00000700+00000+0001T   00000700+0000001241          1400 GU3150               1BZ
103200000103200               103200               170213HR     1400+00000+HR0000005262+0000005262+000000000+000000737+0000005990+0000000009+I20000000000+0000005990+Z
103200001103200018-019000     103200006003000557288MUG OCC. LOVE JUMBO    0000001000+00005262+00000+0001T   00005262+0000001243          1400 GU3515               1BZ
103201000103201               103201               170213HR     1400+00000+HR0000001578+0000001578+000000000+000000221+0000001790+0000000009+I20000000000+0000001790+Z
103201001103201018-000127     103201006001023380289MUG OCC STRAIGHT LOVE  0000001000+00001578+00000+0001T   00001753+0006471246          1400 GU3515               1BZ
103202000103202               103202               170213HR     1400+00000+HR0000003505+0000003505+000000000+000000492+0000003990+0000000007+I20000000000+0000003990+Z
103202001103202016-006601     103202006001023446121S/JAR GLS MINI W/CLIP  0000001000+00001490+00000+0001T   00001490+0000001249          1400 GU3300               1BZ
103202002103202089-000192-A   103202006001023901774KEY-CHAIN ACRYLIC      0000001000+00000876+00000+0001T   00000876+0000001249          1400 GU3205               1BZ
103202003103202903-000087     103202006001704000161SWT SPECKLED-EGGS 50G  0000001000+00001139+00000+0001T   00001139+0000001249          1400 GU3150               1BZ
103203000103203               103203               170213HR     1400+00000+HR0000035084+0000035084+000000000+000004912+0000039996+0000000000+I40000039996+0000000000+Z
103203001103203072-020244     103203000694202207840PET BED COTTON 90x70cm 0000002000+00017542+00000+0001T   00017542+0000001257          1400 GU3870               1BZ
103204000103204               103204               170213HR     1400+00000+HR0000007889+0000007889+000000000+000001107+0000008990+0000000006+I20000000000+0000008990+Z
103204001103204206-000620     103204006003000631797BACK SCRATCHER EXTEND  0000001000+00002630+00000+0001T   00002630+0000001258          1400 GU3321               1BZ
103204002103204077-000240     103204006003000326259G/RIBBON 4PC PEARLIZED 0000001000+00001753+00000+0001T   00001753+0000001258          1400 GU3112               1BZ
103204003103204006-000108     103204006003000587995BALLOONS 6PC RED/WHT   0000001000+00001753+00000+0001T   00001753+0000001258          1400 GU3131               1BZ
103204004103204089-000004     103204006003000137749KEY CHAIN MTL CHARMS   0000001000+00001753+00000+0001T   00001753+0000001258          1400 GU3205               1BZ
103205000103205               103205               170213HR     1400+00000+HR0000002630+0000002630+000000000+000000369+0000002990+0000000009+I20000000000+0000002990+Z
103205001103205567-075466     103205009780263918601BK NOVEL ROMANCE       0000001000+00002630+00000+0001T   00002630+0000001258          1400 GU3757               1BZ
103206000103206               103206               170213HR     1400+00000+HR0000001753+0000001753+000000000+000000246+0000001990+0000000009+I20000000000+0000001990+Z
103206001103206006-000108     103206006003000587995BALLOONS 6PC RED/WHT   0000001000+00001753+00000+0001T   00001753+0000001300          1400 GU3131               1CZ
103207000103207               103207               170213HR     1400+00000+HR0000000350+0000000350+000000000+000000050+0000000400+0000000000+I20000000000+0000000400+Z
103207001103207039-000026     103207006001023551610C/TAPERED 25CM M/RED   0000002000+00001051+00000+0001T   00001051+0000001332          1400 GU3510               1BZ
103207002103207039-000027     103207006003000286546C/TAPERED 25CM M/ORANGE0000002000-00000876+00000+0001T   00000876+0000001332          1400 GU35102IC            1 Z
103208000103208               103208               170213HR     1400+00000+HR0000001613+0000001613+000000000+000000226+0000001830+0000000009+I20000000000+0000001830+Z
103208001103208018-000127     103208006001023380289MUG OCC STRAIGHT LOVE  0000001000+00001578+00000+0001T   00001753+0006471335          1400 GU3515               1BZ
103208002103208112-116038     103208006009681820246TCS CARRIER BAG MIDI   0000001000+00000035+00000+0001T   00000035+0000001335          1400 GU3090               1BZ
103209000103209               103209               170213HR     1400+00000+HR0000004120+0000004120+000000000+000000578+0000004690+0000000008+I20000000000+0000004690+Z
103209001103209304-000720     103209006001023843050F/BUNCH ROSE 6-HEAD AST0000001000+00002630+00000+0001T   00002630+0000001336          1400 GU3510               1BZ
103209002103209077-000305     103209006003000395422GIFT-BAG WINE 10X35CM  0000001000+00001490+00000+0001T   00001490+0000001336          1400 GU3112               1BZ
103210000103210               103210               170213HR     1400+00000+HR0000002630+0000002630+000000000+000000369+0000002999+0000000000+I40000002999+0000000000+Z
103210001103210162-096646     103210006001492966465#TAG HOT DEALS KIDS HR 0000001000+00002630+00000+0001T   00002630+0000001340          1400 GU3160               1BZ
103211000103211               103211               170213HR     1400+00000+HR0000001311+0000001311+000000000+000000186+0000001490+0000000007+I20000000000+0000001490+Z
103211001103211083-000049     103211004891035200024CIG-LIGHTER DISPOSABLE 0000003000+00000437+00000+0001T   00000437+0000001350          1400 GU3315               1BZ
103212000103212               103212               170213HR     1400+00000+HR0000003507+0000003507+000000000+000000491+0000003998+0000000000+I40000003998+0000000000+Z
103212001103212089-000018     103212006003000176724KEY CHAIN INSPIRATION  0000001000+00003507+00000+0001T   00003507+0000001352          1400 GU3205               1BZ
103213000103213               103213               170213HR     1400+00000+HR0000004857+0000004857+000000000+000000681+0000005530+0000000008+I20000000000+0000005530+Z
103213001103213006-000108     103213006003000587995BALLOONS 6PC RED/WHT   0000001000+00001753+00000+0001T   00001753+0000001356          1400 GU3131               1BZ
103213002103213301-085008     103213006003000673933ORN OCC.LOVE TINSEL HRT0000001000+00003069+00000+0001T   00003069+0000001356          1400 GU3505               1BZ
103213003103213112-116038     103213006009681820246TCS CARRIER BAG MIDI   0000001000+00000035+00000+0001T   00000035+0000001356          1400 GU3090               1BZ
103214000103214               103214               170213HR     1400+00000+HR0000003069+0000003069+000000000+000000430+0000003490+0000000009+I20000000000+0000003490+Z
103214001103214072-020311     103214006003000494132PET DOG TOY VINYL BALL 0000001000+00003069+00000+0001T   00003069+0000001412          1400 GU3870               1BZ
103215000103215               103215               170213HR     1400+00000+HR0000004383+0000004383+000000000+000000615+0000004998+0000000000+I40000004998+0000000000+Z
103215001103215046-002032-PK2 103215004897006175063BATTERIES CR-2032  2PCE0000001000+00001753+00000+0001T   00001753+0000001415          1400 GU3312               1BZ
103215002103215046-000011-A   103215006003000438891BATTERIES SIZE:AA  4PCE0000001000+00002630+00000+0001T   00002630+0000001415          1400 GU3312               1BZ
103216000103216               103216               170213HR     1400+00000+HR0000002015+0000002015+000000000+000000283+0000002290+0000000008+I20000000000+0000002290+Z
103216001103216204-000010     103216006001023888587M/HOLDR MAG CAT ASSTD-D0000001000+00001139+00000+0001T   00001578+0008131417          1400 GU3300               1BZ
103216002103216204-000009     103216006003000577200MEMO HOLDER CUPCAKE    0000001000+00000876+00000+0001T   00001490+0008131417          1400 GU3300               1BZ
103217000103217               103217               170213HR     1400+00000+HR0000001268+0000001268+000000000+000000179+0000001440+0000000007+I20000000000+0000001440+Z
103217001103217903-000151     103217006009803374411SWT SML RND R/BOW LOLLY0000001000+00000525+00000+0001T   00000525+0000001420          1400 GU3150               1BZ
103217002103217903-000183     103217006003000451043SWT LB HEART LOLLY     0000001000+00000393+00000+0001T   00000393+0000001420          1400 GU3150               1BZ
103217003103217903-000159     103217006003000417629SWT LB SMALL DUMMIE    0000001000+00000350+00000+0001T   00000350+0000001420          1400 GU3150               1BZ
103218000103218               103218               170213HR     1400+00000+HR0000009502+0000009502+000000000+000001332+0000010830+0000000004+I20000000000+0000010830+Z
103218001103218105-001031     103218000700371696627FOODSAVER 800ml        0000001000+00001314+00000+0001T   00001314+0000001434          1400 GU3210               1BZ
103218002103218079-013111     103218006003000683024CREATE A HAT SET       0000001000+00003946+00000+0001T   00003946+0000001434          1400 GU3130               1BZ
103218003103218079-006500     103218006001023557186GLUE GLITTER 6/10 PCE  0000001000+00001753+00000+0001T   00001753+0000001434          1400 GU3130               1BZ
103218004103218112-116038     103218006009681820246TCS CARRIER BAG MIDI   0000001000+00000035+00000+0001T   00000035+0000001434          1400 GU3090               1BZ
103218005103218903-000519     103218006001704012805SWT MS LIQ-O-GHETTI    0000002000+00001227+00000+0001T   00001227+0000001434          1400 GU3150               1BZ
103219000103219               103219               170213HR     1400+00000+HR0000002100+0000002100+000000000+000000294+0000002390+0000000004+I20000000000+0000002390+Z
103219001103219903-000070     103219006001704001106SWT TOFFEE CREAMY 35g  0000003000+00000700+00000+0001T   00000700+0000001434          1400 GU3150               1BZ
103220000103220               103220               170213HR     1400+00000+HR0000006139+0000006139+000000000+000000860+0000006990+0000000009+I20000000000+0000006990+Z
103220001103220018-050000     103220006003000412679MUG OCC LOVE TWIN BEAR 0000001000+00006139+00000+0001T   00006139+0000001435          1400 GU3515               1BZ
103221000103221               103221               170213HR     1400+00000+HR0000003542+0000003542+000000000+000000496+0000004030+0000000008+I20000000000+0000004030+Z
103221001103221018-005009     103221006001023725608MUG W/PLUSH-BEAR LOVE  0000001000+00003507+00000+0001T   00003507+0000001439          1400 GU3515               1BZ
103221002103221112-116038     103221006009681820246TCS CARRIER BAG MIDI   0000001000+00000035+00000+0001T   00000035+0000001439          1400 GU3090               1BZ
103222000103222               103222               170213HR     1400+00000+HR0000003506+0000003506+000000000+000000492+0000003998+0000000000+I40000003998+0000000000+Z
103222001103222006-000800     103222006001023902801HAT CABARET 14x18cm    0000001000+00001753+00000+0001T   00001753+0000001448          1400 GU3131               1BZ
103222002103222079-013032-B   103222006003000389445MIXED SHAPES           0000001000+00001753+00000+0001T   00001753+0000001448          1400 GU3130               1BZ
103223000103223               103223               170213HR     1400+00000+HR0000008771+0000008771+000000000+000001228+0000009990+0000000009+I20000000000+0000009990+Z
103223001103223586-098615     103223006001492986159WATCH KIDS EASY READ   0000001000+00008771+00000+0001T   00008771+0000001455          1400 GU3160               1BZ
103224000103224               103224               170213HR     1400+00000+HR0000003542+0000003542+000000000+000000496+0000004030+0000000008+I20000000000+0000004030+Z
103224001103224031-005853     103224006003000442416P/FRAME WDN TWIN HEARTS0000001000+00003507+00000+0001T   00003507+0000001501          1400 GU3510               1BZ
103224002103224112-116038     103224006009681820246TCS CARRIER BAG MIDI   0000001000+00000035+00000+0001T   00000035+0000001501          1400 GU3090               1BZ
103225000103225               103225               170213HR     1400+00000+HR0000008768+0000008768+000000000+000001228+0000009996+0000000000+I40000009996+0000000000+Z
103225001103225019-071597     103225006008766071597PEBBLES 250g CLEAR  BAG0000004000+00002192+00000+0001T   00002192+0000001503          1400 GU3510               1BZ
103226000103226               103226               170213HR     1400+00000+HR0000012279+0000012279+000000000+000001720+0000013990+0000000009+I20000000000+0000013990+Z
103226001103226368-000111     103226006001023780812PLUSH BEAR/DOG 29CM    0000001000+00012279+00000+0001T   00012279+0000001505          1400 GU3745               1BZ
103227000103227               103227               170213HR     1400+00000+HR0000008152+0000008152+000000000+000001143+0000009290+0000000005+I20000000000+0000009290+Z
103227001103227089-000004     103227006003000137749KEY CHAIN MTL CHARMS   0000001000+00001753+00000+0001T   00001753+0000001510          1400 GU3205               1BZ
103227002103227018-000130     103227006001023867537MUG OCC LOVE MINI+HEART0000001000+00003507+00000+0001T   00003507+0000001510          1400 GU3515               1BZ
103227003103227077-000305     103227006003000395422GIFT-BAG WINE 10X35CM  0000001000+00001490+00000+0001T   00001490+0000001510          1400 GU3112               1BZ
103227004103227304-001204     103227006001023737984FLOWER OCC. TEDDY/ROSES0000001000+00001402+00000+0001T   00001490+0006471510          1400 GU3510               1BZ
103228000103228               103228               170213HR     1400+00000+HR0000007220+0000007220+000000000+000001013+0000008233+0000000000+I40000008233+0000000000+Z
103228001103228903-000200     103228006009826020234SWT CHOC RP CHOCO 23G  0000002000+00000788+00000+0001T   00000788+0000001517          1400 GU3150               1BZ
103228002103228018-000127     103228006001023380289MUG OCC STRAIGHT LOVE  0000002000+00001578+00000+0001T   00001753+0006471517          1400 GU3515               1BZ
103228003103228903-000844     103228005010478432567SWT CANDY DL LUV HEARTS0000001000+00001314+00000+0001T   00001314+0000001517          1400 GU3150               1BZ
103228004103228903-000087     103228006001704000161SWT SPECKLED-EGGS 50G  0000001000+00001139+00000+0001T   00001139+0000001517          1400 GU3150               1BZ
103228005103228112-116038     103228006009681820246TCS CARRIER BAG MIDI   0000001000+00000035+00000+0001T   00000035+0000001517          1400 GU3090               1BZ
103229000103229               103229               170213HR     1400+00000+HR0000000876+0000000876+000000000+000000123+0000000990+0000000009+I20000000000+0000000990+Z
103229001103229361-003012     103229006001023667052DOLL MED 28cm BLOW MOUL0000001000+00000876+00000+0001T   00000876+0000001518          1400 GU3725               1BZ
103230000103230               103230               170213HR     1400+00000+HR0000002892+0000002892+000000000+000000406+0000003290+0000000008+I20000000000+0000003290+Z
103230001103230027-000091     103230006003000343966WINDOW CLEANER 22CM    0000001000+00001753+00000+0001T   00001753+0000001519          1400 GU3212               1BZ
103230002103230027-078343     103230006008766078343SCRUB-BRUSH IRON-SHAPE 0000001000+00001139+00000+0001T   00001578+0008191519          1400 GU3212               1BZ
103231000103231               103231               170213HR     1400+00000+HR0000005746+0000005746+000000000+000000806+0000006550+0000000002+I20000000000+0000006550+Z
103231001103231018-000129     103231006001023403353MUG OCC. LOVE V-SHAPE  0000001000+00002630+00000+0001T   00002630+0000001529          1400 GU3515               1BZ
103231002103231080-000124     103231006003000297733CARD & ENV VALENTINES  0000001000+00001578+00000+0001T   00001578+0000001529          1400 GU3112               1BZ
103231003103231077-000299     103231006003000395576G/BAG 32x25cm LRG LOVE 0000001000+00001490+00000+0001T   00001490+0000001529          1400 GU3112               1BZ
103231004103231112-116069     103231006009681820277TCS CARRIER BAG JUMBO  0000001000+00000048+00000+0001T   00000048+0000001529          1400 GU3090               1BZ
103232000103232               103232               170213HR     1400+00000+HR0000014625+0000014625+000000000+000002050+0000016670+0000000005+I20000000000+0000016670+Z
103232001103232304-001204     103232006001023737984FLOWER OCC. TEDDY/ROSES0000001000+00001402+00000+0001T   00001490+0006471531          1400 GU3510               1BZ
103232002103232304-000720     103232006001023843050F/BUNCH ROSE 6-HEAD AST0000001000+00002630+00000+0001T   00002630+0000001531          1400 GU3510               1BZ
103232003103232368-000012     103232006003000610464PLUSH BEAR 30cm SITTING0000001000+00008771+00000+0001T   00008771+0000001531          1400 GU3745               1BZ
103232004103232077-000309     103232006001023608604GIFT-BAG 25X32CM GLOSS 0000001000+00001753+00000+0001T   00001753+0000001531          1400 GU3112               1BZ
103232005103232112-116053     103232006006438002399TCS CARRIER BAG 38L    0000001000+00000069+00000+0001T   00000069+0000001531          1400 GU3090               1BZ
103233000103233               103233               170213HR     1400+00000+HR0000003190+0000003190+000000000+000000448+0000003630+0000000008+I20000000000+0000003630+Z
103233001103233077-000471     103233006003000330096G-BAG DESGN MED 18X23CM0000001000+00001753+00000+0001T   00001753+0000001532          1400 GU3112               1BZ
103233002103233304-001204     103233006001023737984FLOWER OCC. TEDDY/ROSES0000001000+00001402+00000+0001T   00001490+0006471532          1400 GU3510               1BZ
103233003103233112-116038     103233006009681820246TCS CARRIER BAG MIDI   0000001000+00000035+00000+0001T   00000035+0000001532          1400 GU3090               1BZ
103234000103234               103234               170213HR     1400+00000+HR0000006139+0000006139+000000000+000000860+0000006990+0000000009+I20000000000+0000006990+Z
103234001103234174-008021     103234006003000637973RAINCOAT PONCHO 102x1670000001000+00006139+00000+0001T   00006139+0000001536          1400 GU3205               1BZ
103235000103235               103235               170213HR     1400+00000+HR0000017053+0000017053+000000000+000002392+0000019445+0000000000+I40000019445+0000000000+Z
103235001103235018-000127     103235006001023380289MUG OCC STRAIGHT LOVE  0000003000+00001578+00000+0001T   00001753+0006471544          1400 GU3515               1BZ
103235002103235077-000351     103235006003000139033GIFT-BAG 18X23CM E/D P 0000004000+00001753+00000+0001T   00001753+0000001544          1400 GU3112               1BZ
103235003103235903-000624     103235006003000671793SWEET LOLLY BLU/BRRY   0000003000+00001753+00000+0001T   00001753+0000001544          1400 GU3150               1BZ
103235004103235112-116069     103235006009681820277TCS CARRIER BAG JUMBO  0000001000+00000048+00000+0001T   00000048+0000001544          1400 GU3090               1BZ
103236000103236               103236               170213HR     1400+00000+HR0000002630+0000002630+000000000+000000369+0000002990+0000000009+I20000000000+0000002990+Z
103236001103236027-000411     103236006003000622597SCRUBBING BRUSH 16cm   0000001000+00002630+00000+0001T   00002630+0000001547          1400 GU3212               1BZ
103237000103237               103237               170213HR     1400+00000+HR0000004385+0000004385+000000000+000000614+0000004990+0000000009+I20000000000+0000004990+Z
103237001103237018-030000     103237006003000421060MUG OCCASIONS LOVE 2PCE0000001000+00004385+00000+0001T   00004385+0000001556          1400 GU3515               1BZ
103238000103238               103238               170213HR     1400+00000+HR0000018284+0000018284+000000000+000002563+0000020840+0000000007+I20000000000+0000020840+Z
103238001103238018-000127     103238006001023380289MUG OCC STRAIGHT LOVE  0000001000+00001578+00000+0001T   00001753+0006471558          1400 GU3515               1BZ
103238002103238301-085007     103238006003000673698ORN OCC. LOVE S/PLAQUE 0000001000+00007893+00000+0001T   00007893+0000001558          1400 GU3505               1BZ
103238003103238077-000452     103238006003000284986G/BAG METALLIC MED EMB 0000001000+00001490+00000+0001T   00001490+0000001558          1400 GU3112               1BZ
103238004103238018-000130     103238006001023867537MUG OCC LOVE MINI+HEART0000001000+00003507+00000+0001T   00003507+0000001558          1400 GU3515               1BZ
103238005103238077-000452     103238006003000284986G/BAG METALLIC MED EMB 0000001000+00001490+00000+0001T   00001490+0000001558          1400 GU3112               1BZ
103238006103238903-000087     103238006001704000161SWT SPECKLED-EGGS 50G  0000002000+00001139+00000+0001T   00001139+0000001558          1400 GU3150               1BZ
103238007103238112-116069     103238006009681820277TCS CARRIER BAG JUMBO  0000001000+00000048+00000+0001T   00000048+0000001558          1400 GU3090               1BZ
103239000103239               103239               170213HR     1400+00000+HR0000005083+0000005083+000000000+000000713+0000005796+0000000000+I40000005796+0000000000+Z
103239001103239903-000920     103239000041396002155SWT CANDY STICK/TATT   0000001000+00000700+00000+0001T   00000700+0000001600          1400 GU3150               1BZ
103239002103239560-000107     103239006003000547906DOMESTIC 3PC MINI PETS 0000001000+00001753+00000+0001T   00001753+0000001600          1400 GU3745               1BZ
103239003103239071-001124     103239006001023802873MARKERS WHITEBOARD 3PCE0000001000+00002630+00000+0001T   00002630+0000001600          1400 GU3130               1BZ
103240000103240               103240               170213HR     1400+00000+HR0000003507+0000003507+000000000+000000491+0000003990+0000000008+I20000000000+0000003990+Z
103240001103240018-000136     103240006001023659026MUG OCC LOVE W/PLUSH   0000001000+00003507+00000+0001T   00003507+0000001600          1400 GU3515               1BZ
103241000103241               103241               170213HR     1400+00000+HR0000007014+0000007014+000000000+000000982+0000007990+0000000006+I20000000000+0000007990+Z
103241001103241018-005009     103241006001023725608MUG W/PLUSH-BEAR LOVE  0000002000+00003507+00000+0001T   00003507+0000001601          1400 GU3515               1BZ
103242000103242               103242               170213HR     1400+00000+HR0000008364+0000008364+000000000+000001172+0000009530+0000000006+I20000000000+0000009530+Z
103242001103242047-000507     103242006001023684479PLUG-ADAPTOR EURO TWIN 0000001000+00001753+00000+0001T   00001753+0000001608          1400 GU3880               1BZ
103242002103242033-000652     103242006003000364282HAIR BRUSH 24cm ASSTD  0000001000+00003507+00000+0001T   00003507+0000001608          1400 GU3200               1BZ
103242003103242033-000600     103242006003000365098HAIR-BRUSH 23cm VENT   0000001000+00003069+00000+0001T   00003069+0000001608          1400 GU3200               1BZ
103242004103242112-116038     103242006009681820246TCS CARRIER BAG MIDI   0000001000+00000035+00000+0001T   00000035+0000001608          1400 GU3090               1BZ
103243000103243               103243               170213HR     1400+00000+HR0000005875+0000005875+000000000+000000823+0000006690+0000000008+I20000000000+0000006690+Z
103243001103243039-000108     103243006001023524034TEA-LITE CANDLES 8PCE  0000001000+00001490+00000+0001T   00001490+0000001611          1400 GU3510               1BZ
103243002103243001-000175     103243006001023788108B/MUG GLS LOVE 380ML   0000001000+00004385+00000+0001T   00004385+0000001611          1400 GU3515               1BZ
103244000103244               103244               170213HR     1400+00000+HR0000001753+0000001753+000000000+000000246+0000001990+0000000009+I20000000000+0000001990+Z
103244001103244077-000324     103244006001023677594GIFT-BAG 33X45CM E/D FL0000001000+00001753+00000+0001T   00001753+0000001612          1400 GU3112               1BZ
103245000103245               103245               170213HR     1400+00000+HR0000001578+0000001578+000000000+000000221+0000001790+0000000009+I20000000000+0000001790+Z
103245001103245018-000127     103245006001023380289MUG OCC STRAIGHT LOVE  0000001000+00001578+00000+0001T   00001753+0006471612          1400 GU3515               1BZ
103246000103246               103246               170213HR     1400+00000+HR0000007832+0000007832+000000000+000001101+0000008933+0000000000+I40000008933+0000000000+Z
103246001103246903-000494     103246006001704009911SWT GUMMY TEENY TEDDIES0000001000+00000876+00000+0001T   00000876+0000001615          1400 GU3150               1BZ
103246002103246077-000475     103246006003000640775GIFT-BAG DESIGNER MED  0000001000+00002630+00000+0001T   00002630+0000001615          1400 GU3112               1BZ
103246003103246077-000010-D   103246006001023123886CREPE-PAPER WHITE      0000001000+00000788+00000+0001T   00000788+0000001615          1400 GU3112               1BZ
103246004103246018-000127     103246006001023380289MUG OCC STRAIGHT LOVE  0000001000+00001578+00000+0001T   00001753+0006471615          1400 GU3515               1BZ
103246005103246903-000183     103246006003000451043SWT LB HEART LOLLY     0000002000+00000393+00000+0001T   00000393+0000001615          1400 GU3150               1BZ
103246006103246112-116038     103246006009681820246TCS CARRIER BAG MIDI   0000001000+00000035+00000+0001T   00000035+0000001615          1400 GU3090               1BZ
103246007103246903-000087     103246006001704000161SWT SPECKLED-EGGS 50G  0000001000+00001139+00000+0001T   00001139+0000001615          1400 GU3150               1BZ
103247000103247               103247               170213HR     1400+00000+HR0000017668+0000017668+000000000+000002476+0000020144+0000000000+I40000020144+0000000000+Z
103247001103247105-001025-A   103247006009654960979CONTAINERS CLEAR 4PCE  0000004000+00001928+00000+0001T   00001928+0000001618          1400 GU3210               1BZ
103247002103247368-000175     103247006003000270316PLUSH BEAR 4 ASSTD 18CM0000001000+00006139+00000+0001T   00006139+0000001618          1400 GU3745               1BZ
103247003103247903-000907     103247006009802868324SWEET LASER BARBIE     0000001000+00002016+00000+0001T   00002016+0000001618          1400 GU3150               1BZ
103247004103247007-000192     103247006009635830062BOOK H/COVER A4 192PAGE0000001000+00001753+00000+0001T   00001753+0000001618          1400 GU3130               1BZ
103247005103247112-116069     103247006009681820277TCS CARRIER BAG JUMBO  0000001000+00000048+00000+0001T   00000048+0000001618          1400 GU3090               1BZ
103248000103248               103248               170213HR     1400+00000+HR0000018830+0000018830+000000000+000002645+0000021475+0000000000+I40000021475+0000000000+Z
103248001103248112-116038     103248006009681820246TCS CARRIER BAG MIDI   0000001000+00000035+00000+0001T   00000035+0000001625          1400 GU3090               1BZ
103248002103248565-000040     103248006008766115635NOVELTY ICON BEANIE    0000003000+00002630+00000+0001T   00002630+0000001625          1400 GU3745               1BZ
103248003103248903-000095     103248006001704011495SWT SPECKLED-EGGS 100G 0000003000+00002104+00000+0001T   00002104+0000001625          1400 GU3150               1BZ
103248004103248077-000311     103248006001023608666GIFT-BAG 11X14CM GLOSS 0000003000+00000613+00000+0001T   00000613+0000001625          1400 GU3112               1BZ
103248005103248903-000151     103248006009803374411SWT SML RND R/BOW LOLLY0000003000+00000525+00000+0001T   00000525+0000001625          1400 GU3150               1BZ
103248006103248903-000183     103248006003000451043SWT LB HEART LOLLY     0000003000+00000393+00000+0001T   00000393+0000001625          1400 GU3150               1BZ
103249000103249               103249               170213HR     1400+00000+HR0000001402+0000001402+000000000+000000197+0000000000+0000000000+ 00000000000+0000000000+Z
103249001103249304-001204     103249006001023737984FLOWER OCC. TEDDY/ROSES0000001000+00001402+00000+0001T   00001490+000647              1400 GU35102IC            1 Z
103250000103250               103250               170213HR     1400+00000+HR0000003191+0000003191+000000000+000000447+0000003630+0000000008+I20000000000+0000003630+Z
103250001103250018-000127     103250006001023380289MUG OCC STRAIGHT LOVE  0000002000+00001578+00000+0001T   00001753+0006471632          1400 GU3515               1BZ
103250002103250112-116038     103250006009681820246TCS CARRIER BAG MIDI   0000001000+00000035+00000+0001T   00000035+0000001632          1400 GU3090               1BZ
103251000103251               103251               170213HR     1400+00000+HR0000004734+0000004734+000000000+000000664+0000005390+0000000008+I20000000000+0000005390+Z
103251001103251018-000129     103251006001023403353MUG OCC. LOVE V-SHAPE  0000001000+00002630+00000+0001T   00002630+0000001634          1400 GU3515               1BZ
103251002103251903-000095     103251006001704011495SWT SPECKLED-EGGS 100G 0000001000+00002104+00000+0001T   00002104+0000001634          1400 GU3150               1BZ
103252000103252               103252               170213HR     1400+00000+HR0000011872+0000011872+000000000+000001663+0000013530+0000000005+I20000000000+0000013530+Z
103252001103252566-000359     103252006003000582709STICKER BOOK LOVE SPARK0000001000+00002192+00000+0001T   00002192+0000001636          1400 GU3130               1BZ
103252002103252566-000031     103252006003000283910STICKER BK TEACHER STIC0000003000+00002192+00000+0001T   00002192+0000001636          1400 GU3130               1BZ
103252003103252030-000040     103252006003000396450PLAQUE WDN HANGING HRTS0000001000+00003069+00000+0001T   00003069+0000001636          1400 GU3505               1BZ
103252004103252112-116038     103252006009681820246TCS CARRIER BAG MIDI   0000001000+00000035+00000+0001T   00000035+0000001636          1400 GU3090               1BZ
103253000103253               103253               170213HR     1400+00000+HR0000013191+0000013191+000000000+000001847+0000015030+0000000008+I20000000000+0000015030+Z
103253001103253112-116038     103253006009681820246TCS CARRIER BAG MIDI   0000001000+00000035+00000+0001T   00000035+0000001642          1400 GU3090               1BZ
103253002103253031-000001-A   103253006003000246908P/FRAME GLS LOVE 9X13cm0000001000+00004385+00000+0001T   00004385+0000001642          1400 GU3510               1BZ
103253003103253001-091415     103253006003000329113W/GLS OCC. LOVE 2PC 2800000001000+00008771+00000+0001T   00009648+0006471642          1400 GU3515               1BZ
103254000103254               103254               170213HR     1400+00000+HR0000008771+0000008771+000000000+000001228+0000009990+0000000009+I20000000000+0000009990+Z
103254001103254368-000614     103254006001023705808PLUSH LOVE 30cm        0000001000+00008771+00000+0001T   00008771+0000001643          1400 GU3745               1BZ
103255000103255               103255               170213HR     1400+00000+HR0000007890+0000007890+000000000+000001107+0000008990+0000000007+I20000000000+0000008990+Z
103255001103255019-071594     103255006003000505579PEBBLES GLS 250g RED   0000001000+00002630+00000+0001T   00002630+0000001644          1400 GU3510               1BZ
103255002103255304-000720     103255006001023843050F/BUNCH ROSE 6-HEAD AST0000001000+00002630+00000+0001T   00002630+0000001644          1400 GU3510               1BZ
103255003103255030-003700     103255006003000416790WALL DEC WDN ASTD WHT  0000001000+00002630+00000+0001T   00002630+0000001644          1400 GU3505               1BZ
103256000103256               103256               170213HR     1400+00000+HR0000001578+0000001578+000000000+000000221+0000001790+0000000009+I20000000000+0000001790+Z
103256001103256080-000124     103256006003000297733CARD & ENV VALENTINES  0000001000+00001578+00000+0001T   00001578+0000001645          1400 GU3112               1BZ
103257000103257               103257               170213HR     1400+00000+HR0000003946+0000003946+000000000+000000553+0000004490+0000000009+I20000000000+0000004490+Z
103257001103257002-012268     103257006001023555526TONGS NYLON 26CM LNG   0000001000+00003946+00000+0001T   00003946+0000001647          1400 GU3300               1BZ
103258000103258               103258               170213HR     1400+00000+HR0000013150+0000013150+000000000+000001843+0000014993+0000000000+I40000014993+0000000000+Z
103258001103258206-000390     103258006003000631438STRAW PL BUILD A STRAW 0000001000+00002630+00000+0001T   00002630+0000001649          1400 GU3321               1BZ
103258002103258206-000620     103258006003000631797BACK SCRATCHER EXTEND  0000001000+00002630+00000+0001T   00002630+0000001649          1400 GU3321               1BZ
103258003103258567-011348     103258009780709717614BK STICKER ANIMAL WORLD0000001000+00003507+00000+0001T   00003507+0000001649          1400 GU3757               1BZ
103258004103258560-000102     103258006001023746979ANIMALS FARM IN-TUBE   0000001000+00003507+00000+0001T   00003507+0000001649          1400 GU3745               1BZ
103258005103258038-047246     103258006001023873750PLACEMAT 44x28cm KIDS  0000001000+00000876+00000+0001T   00000876+0000001649          1400 GU3300               1BZ
103259000103259               103259               170213HR     1400+00000+HR0000000069+0000000069+000000000+000000010+0000000070+0000000009+I20000000000+0000000070+Z
103259001103259112-116053     103259006006438002399TCS CARRIER BAG 38L    0000001000+00000069+00000+0001T   00000069+0000001650          1400 GU3090               1BZ
103260000103260               103260               170213HR     1400+00000+HR0000006170+0000006170+000000000+000000865+0000007030+0000000005+I20000000000+0000007030+Z
103260001103260033-001400     103260006009654960474HAIR-CURLERS 10PCE SML 0000005000+00001227+00000+0001T   00001227+0000001653          1400 GU3200               1BZ
103260002103260112-116038     103260006009681820246TCS CARRIER BAG MIDI   0000001000+00000035+00000+0001T   00000035+0000001653          1400 GU3090               1BZ
103261000103261               103261               170213HR     1400+00000+HR0000008769+0000008769+000000000+000001229+0000009990+0000000008+I20000000000+0000009990+Z
103261001103261018-050000     103261006003000412679MUG OCC LOVE TWIN BEAR 0000001000+00006139+00000+0001T   00006139+0000001654          1400 GU3515               1BZ
103261002103261304-000720     103261006001023843050F/BUNCH ROSE 6-HEAD AST0000001000+00002630+00000+0001T   00002630+0000001654          1400 GU3510               1BZ
103262000103262               103262               170213HR     1400+00000+HR0000002290-0000000000+000000000+000000000+0000002290-0000000000+I20000000000+0000002290-Z
103262001103262001-999909     103262000000000999909STAFF-REFRESHMENTS     0000001000-00002290+00000+0001X   00000000+0000001656          0000 GU39091IC            1 Z
103263000103263               103263               170213HR     1400+00000+HR0000008802+0000008802+000000000+000001233+0000010030+0000000005+I20000000000+0000010030+Z
103263001103263007-000047     103263006009635833698FILE DISPLAY-BK A4 50PG0000001000+00003946+00000+0001T   00003946+0000001700          1400 GU3130               1BZ
103263002103263007-000044     103263006009635831489DISPLAY-BOOK A4 10-PAGE0000001000+00001314+00000+0001T   00001314+0000001700          1400 GU3130               1BZ
103263003103263007-000108     103263006009698062097BK COVER ADJUSTABLE A4 0000001000+00003507+00000+0001T   00003507+0000001700          1400 GU3130               1BZ
103263004103263112-116038     103263006009681820246TCS CARRIER BAG MIDI   0000001000+00000035+00000+0001T   00000035+0000001700          1400 GU3090               1BZ
103264000103264               103264               170213HR     1400+00000+HR0000001578+0000001578+000000000+000000221+0000001790+0000000009+I20000000000+0000001790+Z
103264001103264077-000315     103264006003000181186GIFT-BAG 20x28cm MATT  0000001000+00001578+00000+0001T   00001578+0000001700          1400 GU3112               1BZ
103265000103265               103265               170213HR     1400+00000+HR0000001314+0000001314+000000000+000000184+0000001490+0000000008+I20000000000+0000001490+Z
103265001103265077-000310     103265006001023608635GIFT-BAG 18X23CM GLOSS 0000001000+00001314+00000+0001T   00001314+0000001702          1400 GU3112               1BZ
103266000103266               103266               170213HR     1400+00000+HR0000001578+0000001578+000000000+000000221+0000001790+0000000009+I20000000000+0000001790+Z
103266001103266018-000127     103266006001023380289MUG OCC STRAIGHT LOVE  0000001000+00001578+00000+0001T   00001753+0006471705          1400 GU3515               1BZ
103267000103267               103267               170213HR     1400+00000+HR0000001578+0000001578+000000000+000000221+0000001790+0000000009+I20000000000+0000001790+Z
103267001103267018-000127     103267006001023380289MUG OCC STRAIGHT LOVE  0000001000+00001578+00000+0001T   00001753+0006471707          1400 GU3515               1BZ
103268000103268               103268               170213HR     1400+00000+HR0000002834+0000002834+000000000+000000401+0000003235+0000000000+I40000003235+0000000000+Z
103268001103268903-000519     103268006001704012805SWT MS LIQ-O-GHETTI    0000001000+00001227+00000+0001T   00001227+0000001711          1400 GU3150               1BZ
103268002103268903-000183     103268006003000451043SWT LB HEART LOLLY     0000004000+00000393+00000+0001T   00000393+0000001711          1400 GU3150               1BZ
103268003103268112-116038     103268006009681820246TCS CARRIER BAG MIDI   0000001000+00000035+00000+0001T   00000035+0000001711          1400 GU3090               1BZ
103269000103269               103269               170213HR     1400+00000+HR0000001965+0000001965+000000000+000000280+0000002240+0000000005+I20000000000+0000002240+Z
103269001103269903-000183     103269006003000451043SWT LB HEART LOLLY     0000005000+00000393+00000+0001T   00000393+0000001712          1400 GU3150               1BZ
103270000103270               103270               170213HR     1400+00000+HR0000007047+0000007047+000000000+000000989+0000008030+0000000006+I20000000000+0000008030+Z
103270001103270006-000208-H   103270006003000412945PINK/BLUE PLATES 23cm  0000001000+00001753+00000+0001T   00001753+0000001714          1400 GU3131               1BZ
103270002103270112-116038     103270006009681820246TCS CARRIER BAG MIDI   0000001000+00000035+00000+0001T   00000035+0000001714          1400 GU3090               1BZ
103270003103270006-000208-H   103270006003000412945PINK/BLUE PLATES 23cm  0000003000+00001753+00000+0001T   00001753+0000001714          1400 GU3131               1BZ
103271000103271               103271               170213HR     1400+00000+HR0000005262+0000005262+000000000+000000737+0000005999+0000000000+I40000005999+0000000000+Z
103271001103271103-000474     103271006003000630363BAMBOO FLOWER BASKET   0000001000+00005262+00000+0001T   00005262+0000001716          1400 GU3300               1BZ
103272000103272               103272               170213HR     1400+00000+HR0000003507+0000003507+000000000+000000491+0000003990+0000000008+I20000000000+0000003990+Z
103272001103272018-000136     103272006001023659026MUG OCC LOVE W/PLUSH   0000001000+00003507+00000+0001T   00003507+0000001717          1400 GU3515               1BZ
103273000103273               103273               170213HR     1400+00000+HR0000003942+0000003942+000000000+000000552+0000004490+0000000004+I20000000000+0000004490+Z
103273001103273903-000844     103273005010478432567SWT CANDY DL LUV HEARTS0000003000+00001314+00000+0001T   00001314+0000001718          1400 GU3150               1BZ
103274000103274               103274               170213HR     1400+00000+HR0000002628+0000002628+000000000+000000369+0000002990+0000000007+I20000000000+0000002990+Z
103274001103274903-000123     103274006925925909280SWEET GS MINI MALLOWS  0000003000+00000876+00000+0001T   00000876+0000001719          1400 GU3150               1BZ
103275000103275               103275               170213HR     1400+00000+HR0000002192+0000002192+000000000+000000307+0000002490+0000000009+I20000000000+0000002490+Z
103275001103275080-000127     103275006003000424351VALENTINES DAY 36x24CM 0000001000+00002192+00000+0001T   00002192+0000001720          1400 GU3112               1BZ
103276000103276               103276               170213HR     1400+00000+HR0000012314+0000012314+000000000+000001725+0000014030+0000000009+I20000000000+0000014030+Z
103276001103276368-000111     103276006001023780812PLUSH BEAR/DOG 29CM    0000001000+00012279+00000+0001T   00012279+0000001724          1400 GU3745               1BZ
103276002103276112-116038     103276006009681820246TCS CARRIER BAG MIDI   0000001000+00000035+00000+0001T   00000035+0000001724          1400 GU3090               1BZ
103277000103277               103277               170213HR     1400+00000+HR0000016090+0000016090+000000000+000002256+0000018346+0000000000+I40000018346+0000000000+Z
103277001103277112-116069     103277006009681820277TCS CARRIER BAG JUMBO  0000001000+00000048+00000+0001T   00000048+0000001727          1400 GU3090               1BZ
103277002103277018-050000     103277006003000412679MUG OCC LOVE TWIN BEAR 0000001000+00006139+00000+0001T   00006139+0000001727          1400 GU3515               1BZ
103277003103277903-000699     103277006002099007018SWT CANDY FRUIT CHEWS  0000001000+00001139+00000+0001T   00001139+0000001727          1400 GU3150               1BZ
103277004103277903-004950     103277006002580020304SWT APRICOT SURPRISE   0000001000+00001314+00000+0001T   00001314+0000001727          1400 GU3150               1BZ
103277005103277903-000698     103277006002099007032SWT CANDY ECLAIRS 90g  0000001000+00001139+00000+0001T   00001139+0000001727          1400 GU3150               1BZ
103277006103277903-002891     103277008935001721376MENTOS GUM WINTERGREEN 0000001000+00001051+00000+0001T   00001051+0000001727          1400 GU3150               1BZ
103277007103277031-000847     103277006001023851871P/FRAME TWIN 10X15CM   0000001000+00003507+00000+0001T   00003507+0000001727          1400 GU3510               1BZ
103277008103277077-000455     103277006003000285389G/BAG METALLIC LRG SOL 0000001000+00001753+00000+0001T   00001753+0000001727          1400 GU3112               1BZ
103278000103278               103278               170213HR     1400+00000+HR0000008771+0000008771+000000000+000001228+0000009990+0000000009+I20000000000+0000009990+Z
103278001103278368-000614     103278006001023705808PLUSH LOVE 30cm        0000001000+00008771+00000+0001T   00008771+0000001728          1400 GU3745               1BZ
103279000103279               103279               170213HR     1400+00000+HR0000002192+0000002192+000000000+000000307+0000002490+0000000009+I20000000000+0000002490+Z
103279001103279080-000127     103279006003000424351VALENTINES DAY 36x24CM 0000001000+00002192+00000+0001T   00002192+0000001728          1400 GU3112               1BZ
103280000103280               103280               170213HR     1400+00000+HR0000006138+0000006138+000000000+000000860+0000006998+0000000000+I40000006998+0000000000+Z
103280001103280018-030000     103280006003000421060MUG OCCASIONS LOVE 2PCE0000001000+00004385+00000+0001T   00004385+0000001730          1400 GU3515               1BZ
103280002103280077-000316     103280006001023609731GIFT-BAG 25X32CM MATT  0000001000+00001753+00000+0001T   00001753+0000001730          1400 GU3112               1BZ
103281000103281               103281               170213HR     1400+00000+HR0000003241+0000003241+000000000+000000455+0000003690+0000000006+I20000000000+0000003690+Z
103281001103281082-026204     103281006001023816443R/GLASSES STRINGS 2PCE 0000001000+00000876+00000+0001T   00000876+0000001731          1400 GU3160               1BZ
103281002103281903-000844     103281005010478432567SWT CANDY DL LUV HEARTS0000001000+00001314+00000+0001T   00001314+0000001731          1400 GU3150               1BZ
103281003103281903-002890     103281008935001721352MENTOS GUM PURE F/MINT 0000001000+00001051+00000+0001T   00001051+0000001731          1400 GU3150               1BZ
103282000103282               103282               170213HR     1400+00000+HR0000005262+0000005262+000000000+000000737+0000005999+0000000000+I40000005999+0000000000+Z
103282001103282264-000918     103282000090159150268MAISTO MDC ATV         0000001000+00005262+00000+0001T   00005262+0000001736          1400 GU3710               1BZ
103283000103283               103283               170213HR     1400+00000+HR0000007891+0000007891+000000000+000001106+0000008997+0000000000+I40000008997+0000000000+Z
103283001103283103-000071     103283006001023889713BASKET RECT 30X19X12cm 0000001000+00006139+00000+0001T   00006139+0000001738          1400 GU3300               1BZ
103283002103283077-000151     103283006008766114676GIFT-WRAP C/PHANE ASSTD0000001000+00000876+00000+0001T   00000876+0000001738          1400 GU3112               1BZ
103283003103283071-005213     103283006001023690371CELLOTAPE 12mmx33m     0000001000+00000876+00000+0001T   00000876+0000001738          1400 GU3130               1BZ
103284000103284               103284               170213HR     1400+00000+HR0000002630+0000002630+000000000+000000369+0000002990+0000000009+I20000000000+0000002990+Z
103284001103284262-000651     103284006001023754561DIE CAST SET 5PC RACER 0000001000+00002630+00000+0001T   00002630+0000001739          1400 GU3710               1BZ
103285000103285               103285               170213HR     1400+00000+HR0000006133+0000006133+000000000+000000859+0000006990+0000000002+I20000000000+0000006990+Z
103285001103285903-000920     103285000041396002155SWT CANDY STICK/TATT   0000002000+00000700+00000+0001T   00000700+0000001742          1400 GU3150               1BZ
103285002103285007-000555     103285006001023848239MEMO-PAD MINI LOVE     0000002000+00000613+00000+0001T   00000613+0000001742          1400 GU3130               1BZ
103285003103285031-000847     103285006001023851871P/FRAME TWIN 10X15CM   0000001000+00003507+00000+0001T   00003507+0000001742          1400 GU3510               1BZ
103286000103286               103286               170213HR     1400+00000+HR0000001753+0000001753+000000000+000000246+0000001990+0000000009+I20000000000+0000001990+Z
103286001103286089-000030     103286006003000575671K/CHAIN LOVE MTL ASSTD 0000001000+00001753+00000+0001T   00001753+0000001743          1400 GU3205               1BZ
103287000103287               103287               170213HR     1400+00000+HR0000001753+0000001753+000000000+000000246+0000001990+0000000009+I20000000000+0000001990+Z
103287001103287077-000011     103287006003000542352PAPER RAFFIA ASSTD COL 0000001000+00001753+00000+0001T   00001753+0000001748          1400 GU3112               1BZ
103288000103288               103288               170213HR     1400+00000+HR0000007891+0000007891+000000000+000001106+0000008990+0000000007+I20000000000+0000008990+Z
103288001103288018-030000     103288006003000421060MUG OCCASIONS LOVE 2PCE0000001000+00004385+00000+0001T   00004385+0000001749          1400 GU3515               1BZ
103288002103288077-000011-C   103288006001023808523TISSUE 10xSHTS RED     0000001000+00000876+00000+0001T   00000876+0000001749          1400 GU3112               1BZ
103288003103288077-000270     103288006003000395453GIFT-BAG PPR JMB 33X45 0000001000+00002630+00000+0001T   00002630+0000001749          1400 GU3112               1BZ
103289000103289               103289               170213HR     1400+00000+HR0000006520+0000006520+000000000+000000915+0000007435+0000000000+I40000007435+0000000000+Z
103289001103289018-000170     103289006001023775528MUG OCC. LOVE 2PC MINI 0000001000+00002192+00000+0001T   00002192+0000001752          1400 GU3515               1BZ
103289002103289903-000517     103289006001704012768SWT STRAWS FIZZY CHERRY0000001000+00001227+00000+0001T   00001227+0000001752          1400 GU3150               1BZ
103289003103289903-000698     103289006002099007032SWT CANDY ECLAIRS 90g  0000001000+00001139+00000+0001T   00001139+0000001752          1400 GU3150               1BZ
103289004103289903-002851     103289000000087108538MENTOS ROLL STRAWBERRY 0000001000+00001051+00000+0001T   00001051+0000001752          1400 GU3150               1BZ
103289005103289077-000011-C   103289006001023808523TISSUE 10xSHTS RED     0000001000+00000876+00000+0001T   00000876+0000001752          1400 GU3112               1BZ
103289006103289112-116038     103289006009681820246TCS CARRIER BAG MIDI   0000001000+00000035+00000+0001T   00000035+0000001752          1400 GU3090               1BZ
A17021300                                          16563862HRSLAVE 1                       GU31IC
A17021301                                          17442775HRSLAVE 1                       GU32IC
M17021391                              CASH        HRSLAVE 1                       Z-REPORT No.   487TOTAL (Sales - Refunds)           6897.08       CASH TO BE BANKED                 4039.20       DEBIT CARDS                          0.00       CREDIT CARDS                      2834.98       Z-READING                         6874.18       AIRTIME DEBIT CARD SALES             0.00       AIRTIME CARD SALES                   0.00       OVERS/UNDERS                         0.00       AIRTIME CASH SALES                   0.00       GIFT CARDS                           0.00       GIFT CARD CASH SALES                 0.00       STAFF-REFRESHMENTS                  22.90       T O T A L  CASH PAYOUTS             22.90                                                                                                                                                                                                                                                                                                      Z
M17021392                              CASH        HRABSENT                                                                                                                                                                                          ANNUAL LEAVE                                                                                                                                                                                    DAY OFF                                                                                                                                                                                         COMMENTS          STAFF-REFRESHMENTS R22.90                                                                                                                                                                                                                                                                                                                                                    Z
Y17021300                                          HR00020000607154+000097
ZHR17021321083 SLAVE 1      SALES DATA                     NEXT INVOICE NO.  103290 0487
X HR Slave 1 First invoice 103191 170213 Last invoice 103289 170213 Next invoice 103290 Total number of records 000000325 clbackup completed 21:08:34
