119388000119388               119388               170213HR     1400+00000+HR0000008812+0000008812+000000000+000001237+0000010049+0000000000+I40000010049+0000000000+Z
119388001119388112-116069     119388006009681820277TCS CARRIER BAG JUMBO  0000001000+00000048+00000+0001T   00000048+0000000923          1400 JU1090               2BZ
119388002119388088-000108     119388006001023765536POTPOURRI-OIL 10ml ASST0000002000+00001753+00000+0001T   00001753+0000000923          1400 JU1212               2BZ
119388003119388039-000319-1   119388006003000442386B/CANDLES LRG NUMBER-1 0000001000+00000876+00000+0001T   00000876+0000000923          1400 JU1510               2BZ
119388004119388039-000319-6   119388006003000442980B/CANDLES LRG NUMBER-6 0000001000+00000876+00000+0001T   00000876+0000000923          1400 JU1510               2BZ
119388005119388039-000320     119388006001023816153BIRTHDAY-CANDLES 13PCE 0000001000+00002630+00000+0001T   00002630+0000000923          1400 JU1510               2BZ
119388006119388071-005213     119388006001023690371CELLOTAPE 12mmx33m     0000001000+00000876+00000+0001T   00000876+0000000923          1400 JU1130               2BZ
119389000119389               119389               170213HR     1400+00000+HR0000002978+0000002978+000000000+000000419+0000003390+0000000007+I20000000000+0000003390+Z
119389001119389903-002851     119389000000087108538MENTOS ROLL STRAWBERRY 0000002000+00001051+00000+0001T   00001051+0000000924          1400 JU1150               2BZ
119389002119389077-000011-D   119389006001023808554TISSUE-WRAP WHITE 10PCE0000001000+00000876+00000+0001T   00000876+0000000924          1400 JU1112               2BZ
119390000119390               119390               170213HR     1400+00000+HR0000003507+0000003507+000000000+000000491+0000003990+0000000008+I20000000000+0000003990+Z
119390001119390133-000017     119390006003000525171CLEANING-CLOTHS 5PCE   0000001000+00003507+00000+0001T   00003507+0000000925          1400 JU1212               2BZ
119391000119391               119391               170213HR     1400+00000+HR0000012278+0000012278+000000000+000001720+0000013998+0000000000+I40000013998+0000000000+Z
119391001119391031-086280     119391006001023862969P/FRAME A4 AND COLLAGE 0000002000+00006139+00000+0001T   00006139+0000000932          1400 JU1510               2BZ
119392000119392               119392               170213HR     1400+00000+HR0000006003+0000006003+000000000+000000842+0000006840+0000000005+I20000000000+0000006840+Z
119392001119392027-056191     119392006916920933134DISH-BRUSH+HOOK RECT   0000001000+00001753+00000+0001T   00001753+0000000937          1400 JU1212               2BZ
119392002119392159-000150-B   119392006003000058440SOAP-BOX PL ASSORTED   0000001000+00000832+00000+0001T   00000832+0000000937          1400 JU1200               2BZ
119392003119392903-004950     119392006002580020304SWT APRICOT SURPRISE   0000001000+00001314+00000+0001T   00001314+0000000937          1400 JU1150               2BZ
119392004119392903-000095     119392006001704011495SWT SPECKLED-EGGS 100G 0000001000+00002104+00000+0001T   00002104+0000000937          1400 JU1150               2BZ
119393000119393               119393               170213HR     1400+00000+HR0000002454+0000002454+000000000+000000344+0000002790+0000000008+I20000000000+0000002790+Z
119393001119393077-000011-D   119393006001023808554TISSUE-WRAP WHITE 10PCE0000001000+00000876+00000+0001T   00000876+0000000937          1400 JU1112               2BZ
119393002119393077-000303     119393006001023593757GIFT-BAG PAPER MED     0000001000+00001578+00000+0001T   00001578+0000000937          1400 JU1112               2BZ
119394000119394               119394               170213HR     1400+00000+HR0000013200+0000013200+000000000+000001849+0000015040+0000000009+I20000000000+0000015040+Z
119394001119394112-116069     119394006009681820277TCS CARRIER BAG JUMBO  0000001000+00000048+00000+0001T   00000048+0000000943          1400 JU1090               2BZ
119394002119394566-000359     119394006003000582709STICKER BOOK LOVE SPARK0000003000+00002192+00000+0001T   00002192+0000000943          1400 JU1130               2BZ
119394003119394566-000068     119394006003000418046POP UP LOVE 2 ASSTD    0000003000+00002192+00000+0001T   00002192+0000000943          1400 JU1130               2BZ
119395000119395               119395               170213HR     1400+00000+HR0000003507+0000003507+000000000+000000491+0000003990+0000000008+I20000000000+0000003990+Z
119395001119395159-000643     119395006001023767028BACK-BRUSH ASSTD       0000001000+00003507+00000+0001T   00003507+0000000948          1400 JU1200               2BZ
119396000119396               119396               170213HR     1400+00000+HR0000001435+0000001435+000000000+000000201+0000001630+0000000006+I20000000000+0000001630+Z
119396001119396566-002000     119396000721129013206STICKERS CRYSTAL ASSTD 0000002000+00000700+00000+0001T   00000700+0000000954          1400 JU1130               2BZ
119396002119396112-116038     119396006009681820246TCS CARRIER BAG MIDI   0000001000+00000035+00000+0001T   00000035+0000000954          1400 JU1090               2BZ
119397000119397               119397               170213HR     1400+00000+HR0000001613+0000001613+000000000+000000226+0000001830+0000000009+I20000000000+0000001830+Z
119397001119397077-000303     119397006001023593757GIFT-BAG PAPER MED     0000001000+00001578+00000+0001T   00001578+0000000959          1400 JU1112               2BZ
119397002119397112-116038     119397006009681820246TCS CARRIER BAG MIDI   0000001000+00000035+00000+0001T   00000035+0000000959          1400 JU1090               2BZ
119398000119398               119398               170213HR     1400+00000+HR0000007974+0000007974+000000000+000001119+0000009090+0000000003+I20000000000+0000009090+Z
119398001119398077-000471     119398006003000330096G-BAG DESGN MED 18X23CM0000001000+00001753+00000+0001T   00001753+0000001004          1400 JU1112               2BZ
119398002119398006-000120     119398006001023346889BALLOONS 10PC MIX COL  0000001000+00001753+00000+0001T   00001753+0000001004          1400 JU1131               2BZ
119398003119398903-002900     119398005996071650648QUICK MILK 5 CHOCO 5PC 0000001000+00001578+00000+0001T   00001578+0000001004          1400 JU1150               2BZ
119398004119398903-000499     119398006001704012492SWT CHOC MALLOWS 50g   0000001000+00001227+00000+0001T   00001227+0000001004          1400 JU1150               2BZ
119398005119398903-000087     119398006001704000161SWT SPECKLED-EGGS 50G  0000001000+00001139+00000+0001T   00001139+0000001004          1400 JU1150               2BZ
119398006119398903-000216     119398006925925900966SWT MALLOW TWIST ERKO  0000002000+00000262+00000+0001T   00000262+0000001004          1400 JU1150               2BZ
119399000119399               119399               170213HR     1400+00000+HR0000010524+0000010524+000000000+000001474+0000011990+0000000008+I20000000000+0000011990+Z
119399001119399004-071270     119399006001023802156CD-DISCS WRITABLE 10PCE0000001000+00004385+00000+0001T   00004385+0000001006          1400 JU1310               2BZ
119399002119399004-071272     119399006001023855343DVD-DISC WRITABLE DR-100000001000+00006139+00000+0001T   00006139+0000001006          1400 JU1310               2BZ
119400000119400               119400               170213HR     1400+00000+HR0000026303+0000026303+000000000+000003689+0000029990+0000000002+I20000000000+0000029990+Z
119400001119400304-001605     119400006001023842497FLWR LILY SPRAY 53CM   0000001000+00002630+00000+0001T   00002630+0000001021          1400 JU1510               2BZ
119400002119400304-001126     119400006001023845047FLWR BUNCH GERBERA 31cm0000003000+00002630+00000+0001T   00002630+0000001021          1400 JU1510               2BZ
119400003119400304-000720     119400006001023843050F/BUNCH ROSE 6-HEAD AST0000002000+00002630+00000+0001T   00002630+0000001021          1400 JU1510               2BZ
119400004119400304-001114     119400006001023738219FLWR BUNCH ROSES/LILY  0000001000+00007893+00000+0001T   00007893+0000001021          1400 JU1510               2BZ
119400005119400304-003898     119400006001023712790S/FLOWER SPRAY 51CM ASS0000001000+00002630+00000+0001T   00002630+0000001021          1400 JU1510               2BZ
119401000119401               119401               170213HR     1400+00000+HR0000006139+0000006139+000000000+000000860+0000006990+0000000009+I20000000000+0000006990+Z
119401001119401082-096631     119401006001492966311SUNGLASS MEN MATAL ASST0000001000+00006139+00000+0001T   00006139+0000001022          1400 JU1160               2BZ
119402000119402               119402               170213HR     1400+00000+HR0000007539+0000007539+000000000+000001056+0000008590+0000000005+I20000000000+0000008590+Z
119402001119402046-000012-A   119402006003000208296BATTERIES H/POWER SZ:AA0000001000+00002192+00000+0001T   00002192+0000001032          1400 JU1312               2BZ
119402002119402048-000751     119402006001023849779CAMPING-LANTERN B/O    0000001000+00003507+00000+0001T   00003507+0000001032          1400 JU1305               2BZ
119402003119402903-004951     119402006002580020328SWT MALLOW MINI M/SHAKE0000001000+00001227+00000+0001T   00001227+0000001032          1400 JU1150               2BZ
119402004119402083-000055     119402006003000003853LIGHTER ELCTRNC REFILBL0000001000+00000613+00000+0001T   00000613+0000001032          1400 JU1315               2BZ
119403000119403               119403               170213HR     1400+00000+HR0000007499+0000007499+000000000+000001051+0000008550+0000000000+I20000000000+0000008550+Z
119403001119403112-116069     119403006009681820277TCS CARRIER BAG JUMBO  0000001000+00000048+00000+0001T   00000048+0000001033          1400 JU1090               2BZ
119403002119403071-000307     119403006003000535118RULER FLEXI 30cm       0000001000+00001490+00000+0001T   00001490+0000001033          1400 JU1130               2BZ
119403003119403077-000011-D   119403006001023808554TISSUE-WRAP WHITE 10PCE0000001000+00000876+00000+0001T   00000876+0000001033          1400 JU1112               2BZ
119403004119403018-005009     119403006001023725608MUG W/PLUSH-BEAR LOVE  0000001000+00003507+00000+0001T   00003507+0000001033          1400 JU1515               2BZ
119403005119403077-000315     119403006003000181186GIFT-BAG 20x28cm MATT  0000001000+00001578+00000+0001T   00001578+0000001033          1400 JU1112               2BZ
119404000119404               119404               170213HR     1400+00000+HR0000002630+0000002630+000000000+000000369+0000002990+0000000009+I20000000000+0000002990+Z
119404001119404162-096646     119404006001492966465#TAG HOT DEALS KIDS HR 0000001000+00002630+00000+0001T   00002630+0000001034          1400 JU1160               2BZ
119405000119405               119405               170213HR     1400+00000+HR0000016710+0000016710+000000000+000002342+0000019052+0000000000+I40000019052+0000000000+Z
119405001119405112-116069     119405006009681820277TCS CARRIER BAG JUMBO  0000001000+00000048+00000+0001T   00000048+0000001037          1400 JU1090               2BZ
119405002119405077-000309     119405006001023608604GIFT-BAG 25X32CM GLOSS 0000001000+00001753+00000+0001T   00001753+0000001037          1400 JU1112               2BZ
119405003119405077-000005-B   119405006003000326617PAPER TISSUE PATTERN   0000001000+00002630+00000+0001T   00002630+0000001037          1400 JU1112               2BZ
119405004119405019-000079     119405006001023775726VASE 30cm CRACK-DESIGN 0000001000+00012279+00000+0001T   00012279+0000001037          1400 JU1510               2BZ
119406000119406               119406               170213HR     1400+00000+HR0000025062+0000025062+000000000+000003512+0000028574+0000000000+I40000028574+0000000000+Z
119406001119406112-116053     119406006006438002399TCS CARRIER BAG 38L    0000001000+00000069+00000+0001T   00000069+0000001040          1400 JU1090               2BZ
119406002119406024-000162     119406006003000442485B/SET 3PC TRAY/LOAF/MUF0000001000+00012279+00000+0001T   00012279+0000001040          1400 JU1300               2BZ
119406003119406204-083002     119406006008766083002M/HOLD BUTTERFLIES 4PCE0000002000+00001753+00000+0001T   00001753+0000001040          1400 JU1300               2BZ
119406004119406024-000002     119406006001023741899S/BURNER-COVER SILV/BLK0000001000+00003946+00000+0001T   00004385+0008191040          1400 JU1300               2BZ
119406005119406024-000165-D   119406006003000674435N/STICK SQUARE PAN     0000001000+00005262+00000+0001T   00005262+0000001040          1400 JU1300               2BZ
119407000119407               119407               170213HR     1400+00000+HR0000001578+0000001578+000000000+000000221+0000001790+0000000009+I20000000000+0000001790+Z
119407001119407018-000127     119407006001023380289MUG OCC STRAIGHT LOVE  0000001000+00001578+00000+0001T   00001753+0006471043          1400 JU1515               2BZ
119408000119408               119408               170213HR     1400+00000+HR0000007064+0000007064+000000000+000000990+0000008054+0000000000+I40000008054+0000000000+Z
119408001119408016-006511     119408006003000673995S/JAR GLS CHALK W/LID  0000001000+00007016+00000+0001T   00007016+0000001046          1400 JU1300               2BZ
119408002119408112-116069     119408006009681820277TCS CARRIER BAG JUMBO  0000001000+00000048+00000+0001T   00000048+0000001046          1400 JU1090               2BZ
119409000119409               119409               170213HR     1400+00000+HR0000008771+0000008771+000000000+000001228+0000009990+0000000009+I20000000000+0000009990+Z
119409001119409039-000799     119409006001023692382CANDLES TEALITE 100PCE 0000001000+00008771+00000+0001T   00008771+0000001101          1400 JU1510               2BZ
119410000119410               119410               170213HR     1400+00000+HR0000014184+0000014184+000000000+000001988+0000016170+0000000002+I20000000000+0000016170+Z
119410001119410112-116053     119410006006438002399TCS CARRIER BAG 38L    0000001000+00000069+00000+0001T   00000069+0000001103          1400 JU1090               2BZ
119410002119410105-001005     119410006001023858214CONTAINERS MINI 6PCE   0000001000+00001402+00000+0001T   00001402+0000001103          1400 JU1210               2BZ
119410003119410267-000044     119410000047754666069PUZZLE LICENSED TRAY   0000001000+00003507+00000+0001T   00004385+0008141103          1400 JU1755               2BZ
119410004119410079-000273     119410006003000160327PAINT BRUSHES THICK    0000001000+00002630+00000+0001T   00002630+0000001103          1400 JU1130               2BZ
119410005119410034-091339     119410006003000568253BABY BIB 33x39cm 4ASSTD0000001000+00003507+00000+0001T   00003507+0000001103          1400 JU1215               2BZ
119410006119410034-091330     119410006003000664061COOEY BABY SHAMPOO CAP 0000001000+00003069+00000+0001T   00003069+0000001103          1400 JU1215               2BZ
119411000119411               119411               170213HR     1400+00000+HR0000001753+0000001753+000000000+000000246+0000001990+0000000009+I20000000000+0000001990+Z
119411001119411466-000200     119411006001023621665HULA-HOOP     ASSTD    0000001000+00001753+00000+0001T   00001753+0000001104          1400 JU1785               2BZ
119412000119412               119412               170213HR     1400+00000+HR0000001753+0000001753+000000000+000000246+0000001990+0000000009+I20000000000+0000001990+Z
119412001119412007-000192     119412006009635830062BOOK H/COVER A4 192PAGE0000001000+00001753+00000+0001T   00001753+0000001106          1400 JU1130               2BZ
119413000119413               119413               170213HR     1400+00000+HR0000006139+0000006139+000000000+000000860+0000006990+0000000009+I20000000000+0000006990+Z
119413001119413017-000221     119413006003000238019P/ALBUM ADHESIVE 20PG  0000001000+00006139+00000+0001T   00006139+0000001109          1400 JU1510               2BZ
119414000119414               119414               170213HR     1400+00000+HR0000007938+0000007938+000000000+000001114+0000009052+0000000000+I40000009052+0000000000+Z
119414001119414112-116069     119414006009681820277TCS CARRIER BAG JUMBO  0000001000+00000048+00000+0001T   00000048+0000001112          1400 JU1090               2BZ
119414002119414104-000032     119414006003000099696BASKET PL 34x25x8cm    0000002000+00002630+00000+0001T   00002630+0000001112          1400 JU1210               2BZ
119414003119414020-000620     119414006001023629722UTILITY-KNIFE 12cm-BLDE0000001000+00002630+00000+0001T   00002630+0000001112          1400 JU1300               2BZ
119415000119415               119415               170213HR     1400+00000+HR0000007540+0000007540+000000000+000001056+0000008590+0000000006+I20000000000+0000008590+Z
119415001119415301-085000     119415006003000674299 ORN OCC. LOVE HEARTS  0000003000+00002192+00000+0001T   00002192+0000001114          1400 JU1505               2BZ
119415002119415903-000843     119415008693029031067SWT GUMMY JELAXY 80G   0000001000+00000964+00000+0001T   00000964+0000001114          1400 JU1150               2BZ
119416000119416               119416               170213HR     1400+00000+HR0000002630+0000002630+000000000+000000369+0000002990+0000000009+I20000000000+0000002990+Z
119416001119416033-000126     119416006003000676736HAIR COMB BRIGHT 20cm  0000001000+00002630+00000+0001T   00002630+0000001114          1400 JU1200               2BZ
119417000119417               119417               170213HR     1400+00000+HR0000007014+0000007014+000000000+000000982+0000007996+0000000000+I40000007996+0000000000+Z
119417001119417031-000872-B   119417006001023798749P/FRAME PL BRONZA 13X180000002000+00003507+00000+0001T   00003507+0000001119          1400 JU1510               2BZ
119418000119418               119418               170213HR     1400+00000+HR0000001578+0000001578+000000000+000000221+0000001790+0000000009+I20000000000+0000001790+Z
119418001119418077-000303     119418006001023593757GIFT-BAG PAPER MED     0000001000+00001578+00000+0001T   00001578+0000001119          1400 JU1112               2BZ
119419000119419               119419               170213HR     1400+00000+HR0000006047+0000006047+000000000+000000848+0000006895+0000000000+I40000006895+0000000000+Z
119419001119419075-000571     119419006003000510023BAG KIDS T/STORY       0000001000+00001314+00000+0001T   00001753+0008121128          1400 JU1160               2BZ
119419002119419072-000232     119419006003000236060DOG-COL REFLCTV 35-51cm0000001000+00001753+00000+0001T   00001753+0000001128          1400 JU1870               2BZ
119419003119419033-001305     119419006003000667314HAIR PINS 4PC SNAP CLIP0000001000+00000788+00000+0001T   00000788+0000001128          1400 JU1200               2BZ
119419004119419362-000304     119419006003000654635HAIR HEADBAND SOFT 2PCE0000001000+00002192+00000+0001T   00002192+0000001128          1400 JU1160               2BZ
119420000119420               119420               170213HR     1400+00000+HR0000001314+0000001314+000000000+000000184+0000001490+0000000008+I20000000000+0000001490+Z
119420001119420077-000310     119420006001023608635GIFT-BAG 18X23CM GLOSS 0000001000+00001314+00000+0001T   00001314+0000001129          1400 JU1112               2BZ
119421000119421               119421               170213HR     1400+00000+HR0000004383+0000004383+000000000+000000615+0000004990+0000000008+I20000000000+0000004990+Z
119421001119421019-071594     119421006003000505579PEBBLES GLS 250g RED   0000001000+00002630+00000+0001T   00002630+0000001130          1400 JU1510               2BZ
119421002119421039-001023     119421006003000466337CANDLE TEA-LITE METALIC0000001000+00001753+00000+0001T   00001753+0000001130          1400 JU1510               2BZ
119422000119422               119422               170213HR     1400+00000+HR0000001400+0000001400+000000000+000000196+0000001596+0000000000+I40000001596+0000000000+Z
119422001119422564-000012     119422006001023130075BUBBLE BOTTLE MAGIC    0000002000+00000700+00000+0001T   00000700+0000001131          1400 JU1131               2BZ
119423000119423               119423               170213HR     1400+00000+HR0000002016+0000002016+000000000+000000283+0000002290+0000000009+I20000000000+0000002290+Z
119423001119423174-008025     119423006009654960399TRAVEL TUBS 4-PACK 30ml0000001000+00002016+00000+0001T   00002016+0000001132          1400 JU1205               2BZ
119424000119424               119424               170213HR     1400+00000+HR0000002192+0000002192+000000000+000000307+0000002490+0000000009+I20000000000+0000002490+Z
119424001119424018-000170     119424006001023775528MUG OCC. LOVE 2PC MINI 0000001000+00002192+00000+0001T   00002192+0000001132          1400 JU1515               2BZ
119425000119425               119425               170213HR     1400+00000+HR0000001753+0000001753+000000000+000000246+0000001990+0000000009+I20000000000+0000001990+Z
119425001119425046-000014-A   119425004897006177708BATTERIES SIZE:AAA 8PCE0000001000+00001753+00000+0001T   00001753+0000001134          1400 JU1312               2BZ
119426000119426               119426               170213HR     1400+00000+HR0000003068+0000003068+000000000+000000430+0000003490+0000000008+I20000000000+0000003490+Z
119426001119426077-000011-C   119426006001023808523TISSUE 10xSHTS RED     0000001000+00000876+00000+0001T   00000876+0000001139          1400 JU1112               2BZ
119426002119426077-000309-A   119426006003000671007GIFT-BAG HOLOGRAM JMB  0000001000+00002192+00000+0001T   00002192+0000001139          1400 JU1112               2BZ
119427000119427               119427               170213HR     1400+00000+HR0000001753+0000001753+000000000+000000246+0000001999+0000000000+I40000001999+0000000000+Z
119427001119427016-006509     119427006003000567355S/JAR GLS MINI LABEL   0000001000+00001753+00000+0001T   00002192+0008191140          1400 JU1300               2BZ
119428000119428               119428               170213HR     1400+00000+HR0000008286+0000008286+000000000+000001161+0000009440+0000000007+I20000000000+0000009440+Z
119428001119428112-116069     119428006009681820277TCS CARRIER BAG JUMBO  0000001000+00000048+00000+0001T   00000048+0000001142          1400 JU1090               2BZ
119428002119428206-000370     119428006003000631315STRAW P/DRINKING GLASS 0000001000+00001753+00000+0001T   00001753+0000001142          1400 JU1321               2BZ
119428003119428031-000848     119428006001023851901P/FRAME COLLAGE 2ASSTD 0000001000+00004385+00000+0001T   00004385+0000001142          1400 JU1510               2BZ
119428004119428018-000177     119428006001023797513MUG MINI LOVE ASSTD    0000003000+00000700+00000+0001T   00000700+0000001142          1400 JU1515               2BZ
119429000119429               119429               170213HR     1400+00000+HR0000007324+0000007324+000000000+000001027+0000008350+0000000001+I20000000000+0000008350+Z
119429001119429112-116069     119429006009681820277TCS CARRIER BAG JUMBO  0000001000+00000048+00000+0001T   00000048+0000001148          1400 JU1090               2BZ
119429002119429304-001011     119429006001023806727FLWR ROSE RED W/BEAR   0000001000+00000613+00000+0001T   00000788+0006471148          1400 JU1510               2BZ
119429003119429903-000200     119429006009826020234SWT CHOC RP CHOCO 23G  0000001000+00000788+00000+0001T   00000788+0000001148          1400 JU1150               2BZ
119429004119429368-000001     119429006003000097982Plush Bear 25cm        0000001000+00004385+00000+0001T   00004385+0000001148          1400 JU1745               2BZ
119429005119429077-000299     119429006003000395576G/BAG 32x25cm LRG LOVE 0000001000+00001490+00000+0001T   00001490+0000001148          1400 JU1112               2BZ
119430000119430               119430               170213HR     1400+00000+HR0000013157+0000013157+000000000+000001842+0000000000+0000000000+ 00000000000+0000000000+Z
119430001119430567-075700     119430006003000654802BOOK NOVEL 3-PACK ASSTD0000001000+00013157+00000+0001T   00013157+000000              1400 JU17572IC            2 Z
119431000119431               119431               170213HR     1400+00000+HR0000004647+0000004647+000000000+000000651+0000005290+0000000008+I20000000000+0000005290+Z
119431001119431089-060027     119431006003000245871KEY-CHAIN HEART 6X6cm  0000001000+00003069+00000+0001T   00003069+0000001151          1400 JU1205               2BZ
119431002119431077-000303     119431006001023593757GIFT-BAG PAPER MED     0000001000+00001578+00000+0001T   00001578+0000001151          1400 JU1112               2BZ
119432000119432               119432               170213HR     1400+00000+HR0000003507+0000003507+000000000+000000491+0000003998+0000000000+I40000003998+0000000000+Z
119432001119432018-005009     119432006001023725608MUG W/PLUSH-BEAR LOVE  0000001000+00003507+00000+0001T   00003507+0000001156          1400 JU1515               2BZ
119433000119433               119433               170213HR     1400+00000+HR0000003542+0000003542+000000000+000000496+0000004030+0000000008+I20000000000+0000004030+Z
119433001119433112-116038     119433006009681820246TCS CARRIER BAG MIDI   0000001000+00000035+00000+0001T   00000035+0000001202          1400 JU1090               2BZ
119433002119433018-000136     119433006001023659026MUG OCC LOVE W/PLUSH   0000001000+00003507+00000+0001T   00003507+0000001202          1400 JU1515               2BZ
119434000119434               119434               170213HR     1400+00000+HR0000002541+0000002541+000000000+000000356+0000002890+0000000007+I20000000000+0000002890+Z
119434001119434034-000329     119434006001023564290BOTTLE-BRUSHES WHT 2PCE0000001000+00001314+00000+0001T   00001314+0000001206          1400 JU1215               2BZ
119434002119434903-000499     119434006001704012492SWT CHOC MALLOWS 50g   0000001000+00001227+00000+0001T   00001227+0000001206          1400 JU1150               2BZ
119435000119435               119435               170213HR     1400+00000+HR0000007893+0000007893+000000000+000001106+0000008990+0000000009+I20000000000+0000008990+Z
119435001119435206-000480     119435006003000620227MOP SHOES CHENILLE 2PC 0000001000+00007893+00000+0001T   00007893+0000001305          1400 JU1321               2BZ
119436000119436               119436               170213HR     1400+00000+HR0000003770+0000003770+000000000+000000528+0000004298+0000000000+I40000004298+0000000000+Z
119436001119436077-000303     119436006001023593757GIFT-BAG PAPER MED     0000001000+00001578+00000+0001T   00001578+0000001309          1400 JU1112               2BZ
119436002119436077-000309-A   119436006003000671007GIFT-BAG HOLOGRAM JMB  0000001000+00002192+00000+0001T   00002192+0000001309          1400 JU1112               2BZ
119437000119437               119437               170213HR     1400+00000+HR0000013200+0000013200+000000000+000001849+0000015049+0000000000+I10000009549+0000005500+Z
119437001119437112-116069     119437006009681820277TCS CARRIER BAG JUMBO  0000001000+00000048+00000+0001T   00000048+0000001311          1400 JU1090               2BZ
119437002119437001-091415     119437006003000329113W/GLS OCC. LOVE 2PC 2800000001000+00008771+00000+0001T   00009648+0006471311          1400 JU1515               2BZ
119437003119437006-000166-D   119437006003000516490BALLOONS LRG 6PC RED   0000002000+00001314+00000+0001T   00001314+0000001311          1400 JU1131               2BZ
119437004119437040-000923     119437006001023587831CANDLE-HOLDER GLS 13.5 0000001000+00001753+00000+0001T   00001753+0000001311          1400 JU1510               2BZ
119438000119438               119438               170213HR     1400+00000+HR0000026520+0000026520+000000000+000003717+0000030237+0000000000+I40000030237+0000000000+Z
119438001119438112-116069     119438006009681820277TCS CARRIER BAG JUMBO  0000001000+00000048+00000+0001T   00000048+0000001314          1400 JU1090               2BZ
119438002119438030-000031-A   119438006003000457588PLAQUE W/WORDS ASSTD   0000001000+00004385+00000+0001T   00004823+0006471314          1400 JU1505               2BZ
119438003119438301-086006     119438006003000498918ORN OCCASION LOVE 4ASTD0000001000+00005262+00000+0001T   00005262+0000001314          1400 JU1505               2BZ
119438004119438903-000920     119438000041396002155SWT CANDY STICK/TATT   0000002000+00000700+00000+0001T   00000700+0000001314          1400 JU1150               2BZ
119438005119438903-000844     119438005010478432567SWT CANDY DL LUV HEARTS0000002000+00001314+00000+0001T   00001314+0000001314          1400 JU1150               2BZ
119438006119438903-000095     119438006001704011495SWT SPECKLED-EGGS 100G 0000001000+00002104+00000+0001T   00002104+0000001314          1400 JU1150               2BZ
119438007119438903-000619     119438006003000672455SWT LOLLY STR/BRRY 140G0000005000+00001753+00000+0001T   00001753+0000001314          1400 JU1150               2BZ
119438008119438903-000843     119438008693029031067SWT GUMMY JELAXY 80G   0000002000+00000964+00000+0001T   00000964+0000001314          1400 JU1150               2BZ
119439000119439               119439               170213HR     1400+00000+HR0000012586+0000012586+000000000+000001764+0000014350+0000000000+I20000000000+0000014350+Z
119439001119439112-116069     119439006009681820277TCS CARRIER BAG JUMBO  0000001000+00000048+00000+0001T   00000048+0000001315          1400 JU1090               2BZ
119439002119439001-091415     119439006003000329113W/GLS OCC. LOVE 2PC 2800000001000+00008771+00000+0001T   00009648+0006471315          1400 JU1515               2BZ
119439003119439903-000925     119439006009706300296SWT NOVELTY SURPRISE   0000001000+00001402+00000+0001T   00001402+0000001315          1400 JU1150               2BZ
119439004119439903-000844     119439005010478432567SWT CANDY DL LUV HEARTS0000001000+00001314+00000+0001T   00001314+0000001315          1400 JU1150               2BZ
119439005119439903-002891     119439008935001721376MENTOS GUM WINTERGREEN 0000001000+00001051+00000+0001T   00001051+0000001315          1400 JU1150               2BZ
119440000119440               119440               170213HR     1400+00000+HR0000001753+0000001753+000000000+000000246+0000001990+0000000009+I20000000000+0000001990+Z
119440001119440903-000611     119440006003000617326SWT SNAPPER 20cm       0000001000+00001753+00000+0001T   00001753+0000001316          1400 JU1150               2BZ
119441000119441               119441               170213HR     1400+00000+HR0000004241+0000004241+000000000+000000595+0000004830+0000000006+I20000000000+0000004830+Z
119441001119441039-000027     119441006003000286546C/TAPERED 25CM M/ORANGE0000002000+00000876+00000+0001T   00000876+0000001316          1400 JU1510               2BZ
119441002119441040-000213     119441006001023617736CANDLE-HOLDER DAISY    0000002000+00001227+00000+0001T   00001227+0000001316          1400 JU1510               2BZ
119441003119441112-116038     119441006009681820246TCS CARRIER BAG MIDI   0000001000+00000035+00000+0001T   00000035+0000001316          1400 JU1090               2BZ
119442000119442               119442               170213HR     1400+00000+HR0000006711+0000006711+000000000+000000940+0000007651+0000000000+I40000007651+0000000000+Z
119442001119442077-000303     119442006001023593757GIFT-BAG PAPER MED     0000001000+00001578+00000+0001T   00001578+0000001318          1400 JU1112               2BZ
119442002119442018-000177     119442006001023797513MUG MINI LOVE ASSTD    0000001000+00000700+00000+0001T   00000700+0000001318          1400 JU1515               2BZ
119442003119442368-000049     119442006003000536955PLUSH BEAR 15cm LOVE   0000001000+00004385+00000+0001T   00004385+0000001318          1400 JU1745               2BZ
119442004119442112-116069     119442006009681820277TCS CARRIER BAG JUMBO  0000001000+00000048+00000+0001T   00000048+0000001318          1400 JU1090               2BZ
119443000119443               119443               170213HR     1400+00000+HR0000004420+0000004420+000000000+000000619+0000005030+0000000009+I20000000000+0000005030+Z
119443001119443031-000903-A   119443006003000457113P/FRAME PL STRESSESD   0000001000+00004385+00000+0001T   00004385+0000001323          1400 JU1510               2BZ
119443002119443112-116038     119443006009681820246TCS CARRIER BAG MIDI   0000001000+00000035+00000+0001T   00000035+0000001323          1400 JU1090               2BZ
119444000119444               119444               170213HR     1400+00000+HR0000004694+0000004694+000000000+000000658+0000005350+0000000002+I20000000000+0000005350+Z
119444001119444077-000303     119444006001023593757GIFT-BAG PAPER MED     0000002000+00001578+00000+0001T   00001578+0000001324          1400 JU1112               2BZ
119444002119444077-000299     119444006003000395576G/BAG 32x25cm LRG LOVE 0000001000+00001490+00000+0001T   00001490+0000001324          1400 JU1112               2BZ
119444003119444112-116069     119444006009681820277TCS CARRIER BAG JUMBO  0000001000+00000048+00000+0001T   00000048+0000001324          1400 JU1090               2BZ
119445000119445               119445               170213HR     1400+00000+HR0000011396+0000011396+000000000+000001598+0000012994+0000000000+I40000012994+0000000000+Z
119445001119445077-000351     119445006003000139033GIFT-BAG 18X23CM E/D P 0000001000+00001753+00000+0001T   00001753+0000001325          1400 JU1112               2BZ
119445002119445089-000004     119445006003000137749KEY CHAIN MTL CHARMS   0000001000+00001753+00000+0001T   00001753+0000001325          1400 JU1205               2BZ
119445003119445018-030000     119445006003000421060MUG OCCASIONS LOVE 2PCE0000001000+00004385+00000+0001T   00004385+0000001325          1400 JU1515               2BZ
119445004119445903-000087     119445006001704000161SWT SPECKLED-EGGS 50G  0000002000+00001139+00000+0001T   00001139+0000001325          1400 JU1150               2BZ
119445005119445903-000499     119445006001704012492SWT CHOC MALLOWS 50g   0000001000+00001227+00000+0001T   00001227+0000001325          1400 JU1150               2BZ
119446000119446               119446               170213HR     1400+00000+HR0000003578+0000003578+000000000+000000506+0000004080+0000000004+I20000000000+0000004080+Z
119446001119446903-000200     119446006009826020234SWT CHOC RP CHOCO 23G  0000003000+00000788+00000+0001T   00000788+0000001329          1400 JU1150               2BZ
119446002119446903-000183     119446006003000451043SWT LB HEART LOLLY     0000003000+00000393+00000+0001T   00000393+0000001329          1400 JU1150               2BZ
119446003119446112-116038     119446006009681820246TCS CARRIER BAG MIDI   0000001000+00000035+00000+0001T   00000035+0000001329          1400 JU1090               2BZ
119447000119447               119447               170213HR     1400+00000+HR0000004120+0000004120+000000000+000000578+0000004690+0000000008+I20000000000+0000004690+Z
119447001119447046-000010-A   119447006003000438778BATTERIES SIZE:AAA 4PCE0000001000+00002367+00000+0001T   00002367+0000001329          1400 JU1312               2BZ
119447002119447077-000457     119447006003000285662G/BAG METALLIC JMB SOL 0000001000+00001753+00000+0001T   00001753+0000001329          1400 JU1112               2BZ
119448000119448               119448               170213HR     1400+00000+HR0000002192+0000002192+000000000+000000307+0000002490+0000000009+I20000000000+0000002490+Z
119448001119448563-000318-L   119448006003000407088SERVIETTES 33cm RED    0000001000+00002192+00000+0001T   00002192+0000001330          1400 JU1214               2BZ
119449000119449               119449               170213HR     1400+00000+HR0000004420+0000004420+000000000+000000619+0000005030+0000000009+I20000000000+0000005030+Z
119449001119449050-000365-Z   119449006001023475305PADLOCK IRON 50mm CARD 0000001000+00004385+00000+0001T   00004385+0000001332          1400 JU1855               2BZ
119449002119449112-116038     119449006009681820246TCS CARRIER BAG MIDI   0000001000+00000035+00000+0001T   00000035+0000001332          1400 JU1090               2BZ
119450000119450               119450               170213HR     1400+00000+HR0000001753+0000001753+000000000+000000246+0000001990+0000000009+I20000000000+0000001990+Z
119450001119450007-000551     119450006001023848079NOTE-PAD SHOP-LIST ASST0000001000+00001753+00000+0001T   00001753+0000001349          1400 JU1130               2BZ
119451000119451               119451               170213HR     1400+00000+HR0000004385+0000004385+000000000+000000614+0000004999+0000000000+I40000004999+0000000000+Z
119451001119451368-000001     119451006003000097982Plush Bear 25cm        0000001000+00004385+00000+0001T   00004385+0000001350          1400 JU1745               2BZ
119452000119452               119452               170213HR     1400+00000+HR0000008639+0000008639+000000000+000001211+0000009850+0000000000+I20000000000+0000009850+Z
119452001119452304-001011     119452006001023806727FLWR ROSE RED W/BEAR   0000001000+00000613+00000+0001T   00000788+0006471352          1400 JU1510               2BZ
119452002119452301-000016     119452006001023817556ORN SENTIMENT HEART ASS0000001000+00002630+00000+0001T   00002630+0000001352          1400 JU1505               2BZ
119452003119452077-000303     119452006001023593757GIFT-BAG PAPER MED     0000002000+00001578+00000+0001T   00001578+0000001352          1400 JU1112               2BZ
119452004119452566-000359     119452006003000582709STICKER BOOK LOVE SPARK0000001000+00002192+00000+0001T   00002192+0000001352          1400 JU1130               2BZ
119452005119452112-116069     119452006009681820277TCS CARRIER BAG JUMBO  0000001000+00000048+00000+0001T   00000048+0000001352          1400 JU1090               2BZ
119453000119453               119453               170213HR     1400+00000+HR0000001402+0000001402+000000000+000000197+0000001590+0000000009+I20000000000+0000001590+Z
119453001119453047-000153     119453006001023596475SOCKET-PROTECTORS 4PCE 0000001000+00001402+00000+0001T   00001402+0000001404          1400 JU1880               2BZ
119454000119454               119454               170213HR     1400+00000+HR0000001753+0000001753+000000000+000000246+0000001990+0000000009+I20000000000+0000001990+Z
119454001119454046-000014-A   119454004897006177708BATTERIES SIZE:AAA 8PCE0000001000+00001753+00000+0001T   00001753+0000001407          1400 JU1312               2BZ
119455000119455               119455               170213HR     1400+00000+HR0000001753+0000001753+000000000+000000246+0000001990+0000000009+I20000000000+0000001990+Z
119455001119455088-000108     119455006001023765536POTPOURRI-OIL 10ml ASST0000001000+00001753+00000+0001T   00001753+0000001408          1400 JU1212               2BZ
119456000119456               119456               170213HR     1400+00000+HR0000005307+0000005307+000000000+000000745+0000006050+0000000002+I20000000000+0000006050+Z
119456001119456112-116069     119456006009681820277TCS CARRIER BAG JUMBO  0000001000+00000048+00000+0001T   00000048+0000001421          1400 JU1090               2BZ
119456002119456088-000108     119456006001023765536POTPOURRI-OIL 10ml ASST0000001000+00001753+00000+0001T   00001753+0000001421          1400 JU1212               2BZ
119456003119456088-000084     119456006001023798060P/POURRI 120G ASSTD    0000002000+00001753+00000+0001T   00001753+0000001421          1400 JU1212               2BZ
119457000119457               119457               170213HR     1400+00000+HR0000000700+0000000700+000000000+000000098+0000000790+0000000008+I20000000000+0000000790+Z
119457001119457018-000177     119457006001023797513MUG MINI LOVE ASSTD    0000001000+00000700+00000+0001T   00000700+0000001443          1400 JU1515               2BZ
119458000119458               119458               170213HR     1400+00000+HR0000007394+0000007394+000000000+000001048+0000008440+0000000002+I20000000000+0000008440+Z
119458001119458112-116069     119458006009681820277TCS CARRIER BAG JUMBO  0000001000+00000048+00000+0001T   00000048+0000001448          1400 JU1090               2BZ
119458002119458006-006019     119458006001023908193PARTY-SPRAY GLITTER    0000001000+00002630+00000+0001T   00002630+0000001448          1400 JU1131               2BZ
119458003119458903-000183     119458006003000451043SWT LB HEART LOLLY     0000012000+00000393+00000+0001T   00000393+0000001448          1400 JU1150               2BZ
119459000119459               119459               170213HR     1400+00000+HR0000002980+0000002980+000000000+000000418+0000003390+0000000008+I20000000000+0000003390+Z
119459001119459077-000299     119459006003000395576G/BAG 32x25cm LRG LOVE 0000002000+00001490+00000+0001T   00001490+0000001448          1400 JU1112               2BZ
119460000119460               119460               170213HR     1400+00000+HR0000025501+0000025501+000000000+000003573+0000029074+0000000000+I40000029074+0000000000+Z
119460001119460112-116053     119460006006438002399TCS CARRIER BAG 38L    0000001000+00000069+00000+0001T   00000069+0000001510          1400 JU1090               2BZ
119460002119460464-009104     119460006001023620279GAME POOL-TABLE 25x42cm0000001000+00005262+00000+0001T   00005262+0000001510          1400 JU1785               2BZ
119460003119460466-006134     119460006001023647658GOLF-SET PL 3PCE       0000001000+00002630+00000+0001T   00002630+0000001510          1400 JU1785               2BZ
119460004119460037-000004     119460006001023763679ASHTRAY PL TUB 8X11CM  0000001000+00001753+00000+0001T   00002192+0008191510          1400 JU1515               2BZ
119460005119460368-006004     119460006003000671076PLUSH DOLPHIN          0000001000+00004385+00000+0001T   00004385+0000001510          1400 JU1745               2BZ
119460006119460368-000637     119460006001023874092PLUSH BEAR SLEEPING LOV0000001000+00011402+00000+0001T   00012279+0006471510          1400 JU1745               2BZ
119461000119461               119461               170213HR     1400+00000+HR0000003549+0000003549+000000000+000000501+0000004050+0000000000+I20000000000+0000004050+Z
119461001119461112-116069     119461006009681820277TCS CARRIER BAG JUMBO  0000001000+00000048+00000+0001T   00000048+0000001516          1400 JU1090               2BZ
119461002119461006-000800     119461006001023902801HAT CABARET 14x18cm    0000001000+00001753+00000+0001T   00001753+0000001516          1400 JU1131               2BZ
119461003119461903-000012     119461006002099007308SWT MALLOW S/BERRY     0000002000+00000437+00000+0001T   00000437+0000001516          1400 JU1150               2BZ
119461004119461903-000094     119461006923431501622SWT GS CANDY NECKLACE  0000002000+00000437+00000+0001T   00000437+0000001516          1400 JU1150               2BZ
119462000119462               119462               170213HR     1400+00000+HR0000015042+0000015042+000000000+000002107+0000017149+0000000000+I40000017149+0000000000+Z
119462001119462077-000303     119462006001023593757GIFT-BAG PAPER MED     0000002000+00001578+00000+0001T   00001578+0000001518          1400 JU1112               2BZ
119462002119462903-000844     119462005010478432567SWT CANDY DL LUV HEARTS0000001000+00001314+00000+0001T   00001314+0000001518          1400 JU1150               2BZ
119462003119462368-000265     119462006001023750914PLUSH BEAR 23CM ASSTD C0000001000+00006139+00000+0001T   00006139+0000001518          1400 JU1745               2BZ
119462004119462368-000049     119462006003000536955PLUSH BEAR 15cm LOVE   0000001000+00004385+00000+0001T   00004385+0000001518          1400 JU1745               2BZ
119462005119462112-116069     119462006009681820277TCS CARRIER BAG JUMBO  0000001000+00000048+00000+0001T   00000048+0000001518          1400 JU1090               2BZ
119463000119463               119463               170213HR     1400+00000+HR0000015350+0000015350+000000000+000002152+0000017502+0000000000+E00000000000+0000000000+Z
119463001119463112-116069     119463006009681820277TCS CARRIER BAG JUMBO  0000002000+00000048+00000+0001T   00000048+000000              1400 JU10902IC            2BZ
119463002119463368-000040     119463006003000671786PLUSH ICONS 7.5cm      0000001000+00002630+00000+0001T   00002630+000000              1400 JU17452IC            2BZ
119463003119463077-000299     119463006003000395576G/BAG 32x25cm LRG LOVE 0000001000+00001490+00000+0001T   00001490+000000              1400 JU11122IC            2BZ
119463004119463018-000136     119463006001023659026MUG OCC LOVE W/PLUSH   0000001000+00003507+00000+0001T   00003507+000000              1400 JU15152IC            2BZ
119463005119463077-000299     119463006003000395576G/BAG 32x25cm LRG LOVE 0000001000+00001490+00000+0001T   00001490+000000              1400 JU11122IC            2BZ
119463006119463368-000040     119463006003000671786PLUSH ICONS 7.5cm      0000001000+00002630+00000+0001T   00002630+000000              1400 JU17452IC            2BZ
119463007119463018-000130     119463006001023867537MUG OCC LOVE MINI+HEART0000001000+00003507+00000+0001T   00003507+000000              1400 JU15152IC            2BZ
119464000119464               119464               170213HR     1400+00000+HR0000006583+0000006583+000000000+000000923+0000007500+0000000006+I20000000000+0000007500+Z
119464001119464112-116069     119464006009681820277TCS CARRIER BAG JUMBO  0000002000+00000048+00000+0001T   00000048+0000001532          1400 JU1090               2BZ
119464002119464077-000299     119464006003000395576G/BAG 32x25cm LRG LOVE 0000002000+00001490+00000+0001T   00001490+0000001532          1400 JU1112               2BZ
119464003119464018-000130     119464006001023867537MUG OCC LOVE MINI+HEART0000001000+00003507+00000+0001T   00003507+0000001532          1400 JU1515               2BZ
119465000119465               119465               170213HR     1400+00000+HR0000049708+0000049708+000000000+000006962+0000056670+0000000000+I20000000000+0000056670+Z
119465001119465031-007003     119465006003000462834P/FRAME WDN DIST. COLL.0000003000+00014911+00000+0001T   00014911+0000001536          1400 JU1510               2BZ
119465002119465018-000177     119465006001023797513MUG MINI LOVE ASSTD    0000002000+00000700+00000+0001T   00000700+0000001536          1400 JU1515               2BZ
119465003119465903-000619     119465006003000672455SWT LOLLY STR/BRRY 140G0000002000+00001753+00000+0001T   00001753+0000001536          1400 JU1150               2BZ
119465004119465112-116053     119465006006438002399TCS CARRIER BAG 38L    0000001000+00000069+00000+0001T   00000069+0000001536          1400 JU1090               2BZ
119466000119466               119466               170213HR     1400+00000+HR0000001578+0000001578+000000000+000000221+0000001790+0000000009+I20000000000+0000001790+Z
119466001119466077-000315     119466006003000181186GIFT-BAG 20x28cm MATT  0000001000+00001578+00000+0001T   00001578+0000001537          1400 JU1112               2BZ
119467000119467               119467               170213HR     1400+00000+HR0000003506+0000003506+000000000+000000492+0000003998+0000000000+I40000003998+0000000000+Z
119467001119467077-000309     119467006001023608604GIFT-BAG 25X32CM GLOSS 0000002000+00001753+00000+0001T   00001753+0000001538          1400 JU1112               2BZ
119468000119468               119468               170213HR     1400+00000+HR0000055122+0000055122+000000000+000007724+0000062840+0000000006+I20000000000+0000062840+Z
119468001119468368-000637     119468006001023874092PLUSH BEAR SLEEPING LOV0000002000+00011402+00000+0001T   00012279+0006471553          1400 JU1745               2BZ
119468002119468018-019000     119468006003000557288MUG OCC. LOVE JUMBO    0000001000+00005262+00000+0001T   00005262+0000001553          1400 JU1515               2BZ
119468003119468018-030000     119468006003000421060MUG OCCASIONS LOVE 2PCE0000001000+00004385+00000+0001T   00004385+0000001553          1400 JU1515               2BZ
119468004119468039-809558     119468006003000344376CANDLE PILLAR 12CM 4AST0000001000+00006139+00000+0001T   00006139+0000001553          1400 JU1510               2BZ
119468005119468903-000619     119468006003000672455SWT LOLLY STR/BRRY 140G0000001000+00001753+00000+0001T   00001753+0000001553          1400 JU1150               2BZ
119468006119468903-000624     119468006003000671793SWEET LOLLY BLU/BRRY   0000001000+00001753+00000+0001T   00001753+0000001553          1400 JU1150               2BZ
119468007119468304-001011     119468006001023806727FLWR ROSE RED W/BEAR   0000001000+00000613+00000+0001T   00000788+0006471553          1400 JU1510               2BZ
119468008119468304-000720     119468006001023843050F/BUNCH ROSE 6-HEAD AST0000002000+00002630+00000+0001T   00002630+0000001553          1400 JU1510               2BZ
119468009119468368-000049     119468006003000536955PLUSH BEAR 15cm LOVE   0000001000+00004385+00000+0001T   00004385+0000001553          1400 JU1745               2BZ
119468010119468077-000270     119468006003000395453GIFT-BAG PPR JMB 33X45 0000001000+00002630+00000+0001T   00002630+0000001553          1400 JU1112               2BZ
119468011119468112-116053     119468006006438002399TCS CARRIER BAG 38L    0000002000+00000069+00000+0001T   00000069+0000001553          1400 JU1090               2BZ
119469000119469               119469               170213HR     1400+00000+HR0000002103+0000002103+000000000+000000295+0000002390+0000000008+I20000000000+0000002390+Z
119469001119469077-000322     119469006001023677532GIFT-BAG 18X23CM E/D FL0000001000+00001227+00000+0001T   00001227+0000001601          1400 JU1112               2BZ
119469002119469077-000011-L   119469006001023808585P/TISSUE BRIGHT 10SHEET0000001000+00000876+00000+0001T   00000876+0000001601          1400 JU1112               2BZ
119470000119470               119470               170213HR     1400+00000+HR0000004295+0000004295+000000000+000000602+0000004890+0000000007+I20000000000+0000004890+Z
119470001119470077-000315     119470006003000181186GIFT-BAG 20x28cm MATT  0000002000+00001578+00000+0001T   00001578+0000001607          1400 JU1112               2BZ
119470002119470903-000087     119470006001704000161SWT SPECKLED-EGGS 50G  0000001000+00001139+00000+0001T   00001139+0000001607          1400 JU1150               2BZ
119471000119471               119471               170213HR     1400+00000+HR0000008593+0000008593+000000000+000001204+0000009797+0000000000+I40000009797+0000000000+Z
119471001119471018-000177     119471006001023797513MUG MINI LOVE ASSTD    0000001000+00000700+00000+0001T   00000700+0000001619          1400 JU1515               2BZ
119471002119471301-085007     119471006003000673698ORN OCC. LOVE S/PLAQUE 0000001000+00007893+00000+0001T   00007893+0000001619          1400 JU1505               2BZ
119472000119472               119472               170213HR     1400+00000+HR0000003507+0000003507+000000000+000000491+0000003990+0000000008+I20000000000+0000003990+Z
119472001119472018-005009     119472006001023725608MUG W/PLUSH-BEAR LOVE  0000001000+00003507+00000+0001T   00003507+0000001619          1400 JU1515               2BZ
119473000119473               119473               170213HR     1400+00000+HR0000001753+0000001753+000000000+000000246+0000001999+0000000000+I40000001999+0000000000+Z
119473001119473133-000381     119473006001023713674TABLE-CLOTH 132x178cm  0000001000+00001753+00000+0001T   00001753+0000001629          1400 JU1212               2BZ
119474000119474               119474               170213HR     1400+00000+HR0000003507+0000003507+000000000+000000491+0000003990+0000000008+I20000000000+0000003990+Z
119474001119474018-000130     119474006001023867537MUG OCC LOVE MINI+HEART0000001000+00003507+00000+0001T   00003507+0000001636          1400 JU1515               2BZ
119475000119475               119475               170213HR     1400+00000+HR0000002146+0000002146+000000000+000000302+0000002448+0000000000+I40000002448+0000000000+Z
119475001119475903-000183     119475006003000451043SWT LB HEART LOLLY     0000001000+00000393+00000+0001T   00000393+0000001641          1400 JU1150               2BZ
119475002119475565-000043     119475006003000109562NOVELTY BALL FUNNY FACE0000001000+00001753+00000+0001T   00001753+0000001641          1400 JU1745               2BZ
119476000119476               119476               170213HR     1400+00000+HR0000002259+0000002259+000000000+000000317+0000002576+0000000000+I40000002576+0000000000+Z
119476001119476903-004952     119476006002580020052SWT FREAKY FACES 100G  0000001000+00001314+00000+0001T   00001314+0000001643          1400 JU1150               2BZ
119476002119476077-000011-C   119476006001023808523TISSUE 10xSHTS RED     0000001000+00000876+00000+0001T   00000876+0000001643          1400 JU1112               2BZ
119476003119476112-116053     119476006006438002399TCS CARRIER BAG 38L    0000001000+00000069+00000+0001T   00000069+0000001643          1400 JU1090               2BZ
119477000119477               119477               170213HR     1400+00000+HR0000016268+0000016268+000000000+000002280+0000018540+0000000008+I20000000000+0000018540+Z
119477001119477018-019000     119477006003000557288MUG OCC. LOVE JUMBO    0000002000+00005262+00000+0001T   00005262+0000001645          1400 JU1515               2BZ
119477002119477903-000844     119477005010478432567SWT CANDY DL LUV HEARTS0000001000+00001314+00000+0001T   00001314+0000001645          1400 JU1150               2BZ
119477003119477006-000120     119477006001023346889BALLOONS 10PC MIX COL  0000002000+00001753+00000+0001T   00001753+0000001645          1400 JU1131               2BZ
119477004119477903-000123     119477006925925909280SWEET GS MINI MALLOWS  0000001000+00000876+00000+0001T   00000876+0000001645          1400 JU1150               2BZ
119477005119477112-116069     119477006009681820277TCS CARRIER BAG JUMBO  0000001000+00000048+00000+0001T   00000048+0000001645          1400 JU1090               2BZ
119478000119478               119478               170213HR     1400+00000+HR0000001753+0000001753+000000000+000000246+0000001990+0000000009+I20000000000+0000001990+Z
119478001119478566-001501     119478006003000658398STICKER PAPER EMOTION  0000001000+00001753+00000+0001T   00001753+0000001646          1400 JU1130               2BZ
119479000119479               119479               170213HR     1400+00000+HR0000003506+0000003506+000000000+000000492+0000003990+0000000008+I20000000000+0000003990+Z
119479001119479007-000907     119479000079568263714TINKERBELL "FAIRIES"   0000001000+00001753+00000+0001T   00001753+0000001646          1400 JU1130               2BZ
119479002119479071-000305     119479006001023715340RULER/STENCILS         0000001000+00001753+00000+0001T   00001753+0000001646          1400 JU1130               2BZ
119480000119480               119480               170213HR     1400+00000+HR0000002630+0000002630+000000000+000000369+0000002990+0000000009+I20000000000+0000002990+Z
119480001119480077-000270     119480006003000395453GIFT-BAG PPR JMB 33X45 0000001000+00002630+00000+0001T   00002630+0000001647          1400 JU1112               2BZ
119481000119481               119481               170213HR     1400+00000+HR0000006139+0000006139+000000000+000000860+0000006990+0000000009+I20000000000+0000006990+Z
119481001119481018-050000     119481006003000412679MUG OCC LOVE TWIN BEAR 0000001000+00006139+00000+0001T   00006139+0000001648          1400 JU1515               2BZ
119482000119482               119482               170213HR     1400+00000+HR0000013654+0000013654+000000000+000001914+0000015568+0000000000+I40000015568+0000000000+Z
119482001119482566-001226     119482006001023672360STICKERS 3-D POP-UP    0000001000+00000613+00000+0001T   00000613+0000001652          1400 JU1130               2BZ
119482002119482566-002000     119482000721129013206STICKERS CRYSTAL ASSTD 0000001000+00000700+00000+0001T   00000700+0000001652          1400 JU1130               2BZ
119482003119482039-000319-2   119482006003000442508B/CANDLES LRG NUMBER-2 0000001000+00000876+00000+0001T   00000876+0000001652          1400 JU1510               2BZ
119482004119482006-000800     119482006001023902801HAT CABARET 14x18cm    0000002000+00001753+00000+0001T   00001753+0000001652          1400 JU1131               2BZ
119482005119482112-116053     119482006006438002399TCS CARRIER BAG 38L    0000001000+00000069+00000+0001T   00000069+0000001652          1400 JU1090               2BZ
119482006119482903-000521     119482006001704009652SWT GUMMY SOFT GUMS    0000001000+00000876+00000+0001T   00000876+0000001652          1400 JU1150               2BZ
119482007119482903-000616     119482006003000644827SWT HS SWORD 60cm      0000002000+00003507+00000+0001T   00003507+0000001652          1400 JU1150               2BZ
119483000119483               119483               170213HR     1400+00000+HR0000007124+0000007124+000000000+000001000+0000008124+0000000000+I40000008124+0000000000+Z
119483001119483112-116053     119483006006438002399TCS CARRIER BAG 38L    0000001000+00000069+00000+0001T   00000069+0000001655          1400 JU1090               2BZ
119483002119483466-000109     119483006003000612345BALL RAINBOW DESIGN    0000001000+00001753+00000+0001T   00001753+0000001655          1400 JU1785               2BZ
119483003119483206-000630     119483006003000631919SPECTACLE CLEANING BRUS0000001000+00001227+00000+0001T   00001227+0000001655          1400 JU1321               2BZ
119483004119483077-000009     119483006003000152377PAPER CREPE ALUM COL   0000001000+00003069+00000+0001T   00003069+0000001655          1400 JU1112               2BZ
119483005119483077-000311     119483006001023608666GIFT-BAG 11X14CM GLOSS 0000001000+00000613+00000+0001T   00000613+0000001655          1400 JU1112               2BZ
119483006119483903-000183     119483006003000451043SWT LB HEART LOLLY     0000001000+00000393+00000+0001T   00000393+0000001655          1400 JU1150               2BZ
119484000119484               119484               170213HR     1400+00000+HR0000012279+0000012279+000000000+000001720+0000013999+0000000000+I40000013999+0000000000+Z
119484001119484019-000079     119484006001023775726VASE 30cm CRACK-DESIGN 0000001000+00012279+00000+0001T   00012279+0000001656          1400 JU1510               2BZ
119485000119485               119485               170213HR     1400+00000+HR0000008984+0000008984+000000000+000001260+0000010240+0000000004+I20000000000+0000010240+Z
119485001119485112-116069     119485006009681820277TCS CARRIER BAG JUMBO  0000001000+00000048+00000+0001T   00000048+0000001657          1400 JU1090               2BZ
119485002119485903-000070     119485006001704001106SWT TOFFEE CREAMY 35g  0000002000+00000700+00000+0001T   00000700+0000001657          1400 JU1150               2BZ
119485003119485018-000177     119485006001023797513MUG MINI LOVE ASSTD    0000002000+00000700+00000+0001T   00000700+0000001657          1400 JU1515               2BZ
119485004119485006-000111     119485006003000519385BALLOONS LARGE 12PCE   0000001000+00002630+00000+0001T   00002630+0000001657          1400 JU1131               2BZ
119485005119485077-000011-C   119485006001023808523TISSUE 10xSHTS RED     0000001000+00000876+00000+0001T   00000876+0000001657          1400 JU1112               2BZ
119485006119485304-000720     119485006001023843050F/BUNCH ROSE 6-HEAD AST0000001000+00002630+00000+0001T   00002630+0000001657          1400 JU1510               2BZ
119486000119486               119486               170213HR     1400+00000+HR0000005997+0000005997+000000000+000000840+0000006837+0000000000+I40000006837+0000000000+Z
119486001119486903-000120     119486006002099001665SWEET GS ZILLIONS 50g  0000001000+00000700+00000+0001T   00000700+0000001715          1400 JU1150               2BZ
119486002119486018-019000     119486006003000557288MUG OCC. LOVE JUMBO    0000001000+00005262+00000+0001T   00005262+0000001715          1400 JU1515               2BZ
119486003119486112-116038     119486006009681820246TCS CARRIER BAG MIDI   0000001000+00000035+00000+0001T   00000035+0000001715          1400 JU1090               2BZ
119487000119487               119487               170213HR     1400+00000+HR0000004732+0000004732+000000000+000000664+0000005390+0000000006+I20000000000+0000005390+Z
119487001119487077-000010-D   119487006001023123886CREPE-PAPER WHITE      0000001000+00000788+00000+0001T   00000788+0000001716          1400 JU1112               2BZ
119487002119487077-000315     119487006003000181186GIFT-BAG 20x28cm MATT  0000002000+00001578+00000+0001T   00001578+0000001716          1400 JU1112               2BZ
119487003119487077-000010-D   119487006001023123886CREPE-PAPER WHITE      0000001000+00000788+00000+0001T   00000788+0000001716          1400 JU1112               2BZ
119488000119488               119488               170213HR     1400+00000+HR0000004385+0000004385+000000000+000000614+0000000000+0000000000+ 00000000000+0000000000+Z
119488001119488018-030000     119488006003000421060MUG OCCASIONS LOVE 2PCE0000001000+00004385+00000+0001T   00004385+000000              1400 JU15152IC            2 Z
119489000119489               119489               170213HR     1400+00000+HR0000001578+0000001578+000000000+000000221+0000001790+0000000009+I20000000000+0000001790+Z
119489001119489018-000127     119489006001023380289MUG OCC STRAIGHT LOVE  0000001000+00001578+00000+0001T   00001753+0006471737          1400 JU1515               2BZ
119490000119490               119490               170213HR     1400+00000+HR0000000048+0000000048+000000000+000000007+0000000050+0000000005+I20000000000+0000000050+Z
119490001119490112-116069     119490006009681820277TCS CARRIER BAG JUMBO  0000001000+00000048+00000+0001T   00000048+0000001738          1400 JU1090               2BZ
119491000119491               119491               170213HR     1400+00000+HR0000001753+0000001753+000000000+000000246+0000001990+0000000009+I20000000000+0000001990+Z
119491001119491006-000118     119491006001023730725BALLOONS 6PC TWISTER   0000001000+00001753+00000+0001T   00001753+0000001738          1400 JU1131               2BZ
M17021391                              CASH        HRSLAVE 2                       Z-REPORT No.   240TOTAL (Sales - Refunds)           8097.60       CASH TO BE BANKED                 5172.00       DEBIT CARDS                          0.00       CREDIT CARDS                      2925.60       Z-READING                         8097.60       AIRTIME DEBIT CARD SALES             0.00       AIRTIME CARD SALES                   0.00       OVERS/UNDERS                         0.00       AIRTIME CASH SALES                   0.00       GIFT CARDS                           0.00       GIFT CARD CASH SALES                 0.00       T O T A L  CASH PAYOUTS              0.00                                                                                                                                                                                                                                                                                                                                                      Z
M17021392                              CASH        HRABSENT                                                                                                                                                                                          ANNUAL LEAVE                                                                                                                                                                                    DAY OFF                                                                                                                                                                                         COMMENTS                                                                                                                                                                                                                                                                                                                                                                                       Z
Y17021300                                          HR00000000710639+000101
ZHR17021321083 SLAVE 2      SALES DATA                     NEXT INVOICE NO.  119492 0240
X HR Slave 2 First invoice 119388 170213 Last invoice 119491 170213 Next invoice 119492 Total number of records 000000377 clbackup completed 21:08:36
