305824000305824               305824               170213HT     1400+00000+HT0000008361+0000008361+000000000+000001172+0000009530+0000000003+I20000000000+0000009530+Z
305824001305824112-116038     305824006009681820246TCS CARRIER BAG MIDI   0000001000+00000035+00000+0001T   00000035+0000000908          1400 AG6090               1CZ
305824002305824007-000589     305824006001023810120NOTES DIARY+KEY 50PG   0000001000+00003507+00000+0001T   00003507+0000000908          1400 AG6130               1CZ
305824003305824159-000637     305824006001023735058BATH PUMICE STONE      0000001000+00000700+00000+0001T   00000700+0000000908          1400 AG6200               1CZ
305824004305824306-000529     305824006003000571338TOOTHBRUSH HOLDER 20cm 0000001000+00001753+00000+0001T   00001753+0000000908          1400 AG6200               1CZ
305824005305824306-000023     305824006001023606976COTTON-WOOL-BALLS 50PCE0000001000+00000876+00000+0001T   00000876+0000000908          1400 AG6200               1CZ
305824006305824159-000114     305824006001023507945SHOWER CAP PVC ASSTD   0000001000+00001490+00000+0001T   00001490+0000000908          1400 AG6200               1CZ
305825000305825               305825               170213HT     1400+00000+HT0000006137+0000006137+000000000+000000860+0000006990+0000000007+I20000000000+0000006990+Z
305825001305825142-063201     305825006001023112538GARDEN-GLOVES POLKA-DOT0000002000+00002192+00000+0001T   00002192+0000000940          1400 AG6810               1AZ
305825002305825047-000507     305825006001023684479PLUG-ADAPTOR EURO TWIN 0000001000+00001753+00000+0001T   00001753+0000000940          1400 AG6880               1AZ
305826000305826               305826               170213HT     1400+00000+HT0000010556+0000010556+000000000+000001478+0000012034+0000000000+I40000012034+0000000000+Z
305826001305826112-116038     305826006009681820246TCS CARRIER BAG MIDI   0000001000+00000035+00000+0001T   00000035+0000000958          1400 AG6090               1AZ
305826002305826018-000136     305826006001023659026MUG OCC LOVE W/PLUSH   0000001000+00003507+00000+0001T   00003507+0000000958          1400 AG6515               1AZ
305826003305826018-005009     305826006001023725608MUG W/PLUSH-BEAR LOVE  0000002000+00003507+00000+0001T   00003507+0000000958          1400 AG6515               1AZ
305827000305827               305827               170213HT     1400+00000+HT0000009382+0000009382+000000000+000001314+0000010690+0000000006+I20000000000+0000010690+Z
305827001305827368-000001     305827006003000097982Plush Bear 25cm        0000001000+00004385+00000+0001T   00004385+0000001005          1400 AG6745               1CZ
305827002305827077-000299     305827006003000395576G/BAG 32x25cm LRG LOVE 0000001000+00001490+00000+0001T   00001490+0000001005          1400 AG6112               1CZ
305827003305827018-005009     305827006001023725608MUG W/PLUSH-BEAR LOVE  0000001000+00003507+00000+0001T   00003507+0000001005          1400 AG6515               1CZ
305828000305828               305828               170213HT     1400+00000+HT0000008806+0000008806+000000000+000001233+0000010030+0000000009+I20000000000+0000010030+Z
305828001305828112-116038     305828006009681820246TCS CARRIER BAG MIDI   0000001000+00000035+00000+0001T   00000035+0000001015          1400 AG6090               1AZ
305828002305828001-091415     305828006003000329113W/GLS OCC. LOVE 2PC 2800000001000+00008771+00000+0001T   00009648+0006471015          1400 AG6515               1AZ
305829000305829               305829               170213HT     1400+00000+HT0000024069+0000024069+000000000+000003377+0000027440+0000000006+I20000000000+0000027440+Z
305829001305829112-116053     305829006006438002399TCS CARRIER BAG 38L    0000001000+00000069+00000+0001T   00000069+0000001028          1400 AG6090               1AZ
305829002305829079-006500     305829006001023557186GLUE GLITTER 6/10 PCE  0000002000+00001753+00000+0001T   00001753+0000001028          1400 AG6130               1AZ
305829003305829079-009700-D   305829006003000545711PAPER SIRIO A4 RED COL.0000020000+00000306+00000+0001T   00000306+0000001028          1400 AG6130               1AZ
305829004305829077-000011-C   305829006001023808523TISSUE 10xSHTS RED     0000002000+00000876+00000+0001T   00000876+0000001028          1400 AG6112               1AZ
305829005305829077-000311     305829006001023608666GIFT-BAG 11X14CM GLOSS 0000002000+00000613+00000+0001T   00000613+0000001028          1400 AG6112               1AZ
305829006305829077-000315     305829006003000181186GIFT-BAG 20x28cm MATT  0000002000+00001578+00000+0001T   00001578+0000001028          1400 AG6112               1AZ
305829007305829077-000323     305829006001023677563G/BAG 25X32CM E/DAY FLO0000001000+00001578+00000+0001T   00001578+0000001028          1400 AG6112               1AZ
305829008305829077-000324     305829006001023677594GIFT-BAG 33X45CM E/D FL0000002000+00001753+00000+0001T   00001753+0000001028          1400 AG6112               1AZ
305829009305829077-000323     305829006001023677563G/BAG 25X32CM E/DAY FLO0000002000+00001578+00000+0001T   00001578+0000001028          1400 AG6112               1AZ
305830000305830               305830               170213HT     1400+00000+HT0000001402+0000001402+000000000+000000197+0000001590+0000000009+I20000000000+0000001590+Z
305830001305830304-001204     305830006001023737984FLOWER OCC. TEDDY/ROSES0000001000+00001402+00000+0001T   00001490+0006471034          1400 AG6510               1CZ
305831000305831               305831               170213HT     1400+00000+HT0000014275+0000014275+000000000+000002001+0000016270+0000000006+I20000000000+0000016270+Z
305831001305831077-000472     305831006003000330133G-BAG DESGNR LRG 25X32 0000001000+00001753+00000+0001T   00001753+0000001051          1400 AG6112               1CZ
305831002305831368-000637     305831006001023874092PLUSH BEAR SLEEPING LOV0000001000+00011402+00000+0001T   00012279+0006471051          1400 AG6745               1CZ
305831003305831903-002891     305831008935001721376MENTOS GUM WINTERGREEN 0000001000+00001051+00000+0001T   00001051+0000001051          1400 AG6150               1CZ
305831004305831112-116053     305831006006438002399TCS CARRIER BAG 38L    0000001000+00000069+00000+0001T   00000069+0000001051          1400 AG6090               1CZ
305832000305832               305832               170213HT     1400+00000+HT0000004120+0000004120+000000000+000000577+0000004690+0000000007+I20000000000+0000004690+Z
305832001305832018-000136     305832006001023659026MUG OCC LOVE W/PLUSH   0000001000+00003507+00000+0001T   00003507+0000001052          1400 AG6515               1CZ
305832002305832304-001011     305832006001023806727FLWR ROSE RED W/BEAR   0000001000+00000613+00000+0001T   00000788+0006471052          1400 AG6510               1CZ
305833000305833               305833               170213HT     1400+00000+HT0000005262+0000005262+000000000+000000737+0000005990+0000000009+I20000000000+0000005990+Z
305833001305833304-001115     305833006001023738240FLOWER-BUNCH CARNATIONS0000001000+00005262+00000+0001T   00005262+0000001105          1400 AG6510               1AZ
305834000305834               305834               170213HT     1400+00000+HT0000000876+0000000876+000000000+000000123+0000000990+0000000009+I20000000000+0000000990+Z
305834001305834078-000025     305834008887013700064SUPERGLUE 3g 1PCE CARD 0000001000+00000876+00000+0001T   00000876+0000001106          1400 AG6810               1CZ
305835000305835               305835               170213HT     1400+00000+HT0000001753+0000001753+000000000+000000246+0000001990+0000000009+I20000000000+0000001990+Z
305835001305835007-000094     305835006003000659289ENVELOPES WHT 5PK C4   0000001000+00001753+00000+0001T   00001753+0000001106          1400 AG6130               1CZ
305836000305836               305836               170213HT     1400+00000+HT0000006130+0000006130+000000000+000000860+0000006990+0000000000+I40000006990+0000000000+Z
305836001305836006-001000     305836006003000093779HELIUM BALLOON FILL    0000010000+00000613+00000+0001T   00000613+0000001109          1400 AG6131               1CZ
305837000305837               305837               170213HT     1400+00000+HT0000001753+0000001753+000000000+000000246+0000001990+0000000009+I20000000000+0000001990+Z
305837001305837903-000211     305837006002099001238SWT GS MALLOW ICE CREAM0000001000+00001753+00000+0001T   00001753+0000001120          1400 AG6150               1AZ
305838000305838               305838               170213HT     1400+00000+HT0000073816+0000073816+000000000+000010342+0000084158+0000000000+I40000084158+0000000000+Z
305838001305838112-116053     305838006006438002399TCS CARRIER BAG 38L    0000001000+00000069+00000+0001T   00000069+0000001126          1400 AG6090               1CZ
305838002305838562-006275     305838006001023836182EDU BOARD W/MARKER ASST0000002000+00007016+00000+0001T   00007016+0000001126          1400 AG6755               1CZ
305838003305838079-003020     305838006003000662944PAINT ACRYLIC SET TUBE 0000002000+00005262+00000+0001T   00005262+0000001126          1400 AG6130               1CZ
305838004305838004-071211     305838006003000625130MOBILE SCREEN ENLARGER 0000001000+00004385+00000+0001T   00004385+0000001126          1400 AG6310               1CZ
305838005305838104-000035     305838006003000614752BASKET PL 29x10x31cm   0000001000+00003069+00000+0001T   00003069+0000001126          1400 AG6210               1CZ
305838006305838079-013105     305838006001023863997ART+CRAFT DIY HAND PUPP0000004000+00002630+00000+0001T   00002630+0000001126          1400 AG6130               1CZ
305838007305838077-000303     305838006001023593757GIFT-BAG PAPER MED     0000002000+00001578+00000+0001T   00001578+0000001126          1400 AG6112               1CZ
305838008305838368-000049     305838006003000536955PLUSH BEAR 15cm LOVE   0000002000+00004385+00000+0001T   00004385+0000001126          1400 AG6745               1CZ
305838009305838566-000356     305838006003000582341STICKER ROOM WHITEBOARD0000002000+00003507+00000+0001T   00004385+0008151126          1400 AG6130               1CZ
305838010305838203-005501     305838006003000381821DRINKING HELMET 4 2 CAN0000001000+00008771+00000+0001T   00010525+0008191126          1400 AG6300               1CZ
305838011305838903-000612     305838006003000617449SWT TRUMPET 20cm       0000002000+00001753+00000+0001T   00001753+0000001126          1400 AG6150               1CZ
305839000305839               305839               170213HT     1400+00000+HT0000006346+0000006346+000000000+000000889+0000007230+0000000005+I20000000000+0000007230+Z
305839001305839112-116038     305839006009681820246TCS CARRIER BAG MIDI   0000001000+00000035+00000+0001T   00000035+0000001208          1400 AG6090               1CZ
305839002305839903-000194     305839006009826020616SWT CHOC RP LOLLY 25G  0000001000+00001314+00000+0001T   00001314+0000001208          1400 AG6150               1CZ
305839003305839301-085004     305839006003000420469ORN LOVE PLAQUE 21X10CM0000001000+00003507+00000+0001T   00003946+0006471208          1400 AG6505               1CZ
305839004305839077-000452     305839006003000284986G/BAG METALLIC MED EMB 0000001000+00001490+00000+0001T   00001490+0000001208          1400 AG6112               1CZ
305840000305840               305840               170213HT     1400+00000+HT0000003546+0000003546+000000000+000000498+0000004040+0000000004+I20000000000+0000004040+Z
305840001305840903-000194     305840006009826020616SWT CHOC RP LOLLY 25G  0000002000+00001314+00000+0001T   00001314+0000001229          1400 AG6150               1AZ
305840002305840903-000183     305840006003000451043SWT LB HEART LOLLY     0000001000+00000393+00000+0001T   00000393+0000001229          1400 AG6150               1AZ
305840003305840903-000155     305840006009803374435SWT LOLLY I LUV U HEART0000001000+00000525+00000+0001T   00000525+0000001229          1400 AG6150               1AZ
305841000305841               305841               170213HT     1400+00000+HT0000005732+0000005732+000000000+000000805+0000006530+0000000007+I20000000000+0000006530+Z
305841001305841112-116038     305841006009681820246TCS CARRIER BAG MIDI   0000001000+00000035+00000+0001T   00000035+0000001239          1400 AG6090               1AZ
305841002305841200-000022     305841006003000399291BAG SLIDE LOCK 15PC    0000001000+00002630+00000+0001T   00002630+0000001239          1400 AG6214               1AZ
305841003305841007-000203     305841006009685850409FILE DISPLAY FLDR ASSTD0000001000+00000437+00000+0001T   00000437+0000001239          1400 AG6130               1AZ
305841004305841200-000023     305841006003000399413BAG SLIDE LOCK 10PC    0000001000+00002630+00000+0001T   00002630+0000001239          1400 AG6214               1AZ
305842000305842               305842               170213HT     1400+00000+HT0000039264+0000039264+000000000+000005503+0000044760+0000000007+I20000000000+0000044760+Z
305842001305842112-116053     305842006006438002399TCS CARRIER BAG 38L    0000001000+00000069+00000+0001T   00000069+0000001303          1400 AG6090               1CZ
305842002305842072-020297     305842006001023700919PET CAT SCRATCH PAD    0000001000+00004385+00000+0001T   00004385+0000001303          1400 AG6870               1CZ
305842003305842072-020352     305842006003000561667DOG/CAT BOWL PL 19cm   0000002000+00003069+00000+0001T   00003069+0000001303          1400 AG6870               1CZ
305842004305842306-000021-A   305842006001023891358EARBUDS COTTON 100PCE  0000001000+00000876+00000+0001T   00000876+0000001303          1400 AG6200               1CZ
305842005305842087-000103     305842006003000638185RAZOR LADIES 5PCE      0000001000+00002630+00000+0001T   00002630+0000001303          1400 AG6200               1CZ
305842006305842306-000529     305842006003000571338TOOTHBRUSH HOLDER 20cm 0000001000+00001753+00000+0001T   00001753+0000001303          1400 AG6200               1CZ
305842007305842072-000329     305842006001023904706PET CAT COLLAR LINING  0000001000+00002630+00000+0001T   00002630+0000001303          1400 AG6870               1CZ
305842008305842033-000124     305842006009654960597COMBS HANDLE + TAIL 2PC0000001000+00001051+00000+0001T   00001051+0000001303          1400 AG6200               1CZ
305842009305842072-020274     305842006001023858443LITTER-LINERS-BAGS 10PC0000001000+00002630+00000+0001T   00002630+0000001303          1400 AG6870               1CZ
305842010305842036-000350     305842006003000247776HANGER MTL (FOR SCARVES0000001000+00006139+00000+0001T   00006139+0000001303          1400 AG6212               1CZ
305842011305842089-000501     305842006003000622900KEY CHAIN LIGHT LASER  0000001000+00002192+00000+0001T   00002192+0000001303          1400 AG6205               1CZ
305842012305842072-020242     305842006003000053728PET BED COTTON TEXTILE 0000001000+00008771+00000+0001T   00008771+0000001303          1400 AG6870               1CZ
305843000305843               305843               170213HT     1400+00000+HT0000006575+0000006575+000000000+000000922+0000007497+0000000000+I40000007497+0000000000+Z
305843001305843079-000271     305843006003000160082PAINT-BRUSHES LRGE ART 0000001000+00003069+00000+0001T   00003069+0000001307          1400 AG6130               1CZ
305843002305843079-003002     305843006003000447886A/TUBE 75ML RED        0000001000+00001753+00000+0001T   00001753+0000001307          1400 AG6130               1CZ
305843003305843079-003001     305843006003000448951A/TUBE 75ML BLACK      0000001000+00001753+00000+0001T   00001753+0000001307          1400 AG6130               1CZ
305844000305844               305844               170213HT     1400+00000+HT0000011044+0000011044+000000000+000001547+0000012590+0000000001+I20000000000+0000012590+Z
305844001305844362-019269     305844006001023752659HAIR ACCESS SET CARDED 0000001000+00001753+00000+0001T   00001753+0000001309          1400 AG6160               1CZ
305844002305844566-000991     305844000721129013121STICKERS GLOW-IN-DARK  0000001000+00002192+00000+0001T   00002192+0000001309          1400 AG6130               1CZ
305844003305844362-003005     305844006003000295166HAIR H/BAND SET 2PCE   0000001000+00002192+00000+0001T   00002192+0000001309          1400 AG6160               1CZ
305844004305844362-019282     305844006003000258079H/ACCESS 16PC BEAD HNDL0000001000+00003507+00000+0001T   00003507+0000001309          1400 AG6160               1CZ
305844005305844564-000012     305844006001023130075BUBBLE BOTTLE MAGIC    0000002000+00000700+00000+0001T   00000700+0000001309          1400 AG6131               1CZ
305845000305845               305845               170213HT     1400+00000+HT0000010556+0000010556+000000000+000001480+0000012030+0000000006+I20000000000+0000012030+Z
305845001305845112-116038     305845006009681820246TCS CARRIER BAG MIDI   0000001000+00000035+00000+0001T   00000035+0000001310          1400 AG6090               1CZ
305845002305845365-000027     305845006001023786852P/SET TEA-SET PL 9PCS  0000001000+00003946+00000+0001T   00003946+0000001310          1400 AG6725               1CZ
305845003305845267-000180     305845006003000390519PZZL 24pc CARDED ASSTD 0000001000+00001753+00000+0001T   00001753+0000001310          1400 AG6755               1CZ
305845004305845267-000310     305845006003000163090PUZZLE WOOD TRAY ASSTD 0000001000+00001753+00000+0001T   00001753+0000001310          1400 AG6755               1CZ
305845005305845464-000107     305845000073854318089PLAY-CARDS 2nd (SINGLE)0000001000+00003069+00000+0001T   00003069+0000001310          1400 AG6785               1CZ
305846000305846               305846               170213HT     1400+00000+HT0000007135+0000007135+000000000+000001001+0000008130+0000000006+I20000000000+0000008130+Z
305846001305846112-116038     305846006009681820246TCS CARRIER BAG MIDI   0000001000+00000035+00000+0001T   00000035+0000001315          1400 AG6090               1AZ
305846002305846028-000795     305846006001023812063SKEWERS 10cm 100PCE 3mm0000001000+00000964+00000+0001T   00000964+0000001315          1400 AG6305               1AZ
305846003305846200-000069     305846006003000664429STRAWS DRINKING PAPER  0000001000+00001753+00000+0001T   00001753+0000001315          1400 AG6214               1AZ
305846004305846024-091102-A   305846006003000328314BAKING-CUP CUPCAKE 75PC0000001000+00001753+00000+0001T   00001753+0000001315          1400 AG6300               1AZ
305846005305846563-000317-G   305846006001023776341SERVIETTES BRIGHT ASSTD0000001000+00002630+00000+0001T   00002630+0000001315          1400 AG6214               1AZ
305847000305847               305847               170213HT     1400+00000+HT0000002630+0000002630+000000000+000000369+0000002990+0000000009+I20000000000+0000002990+Z
305847001305847492-055602     305847000078257556021SWIM-GOGGLES PLAY      0000001000+00002630+00000+0001T   00002630+0000001316          1400 AG6787               1CZ
305848000305848               305848               170213HT     1400+00000+HT0000001753+0000001753+000000000+000000246+0000001990+0000000009+I20000000000+0000001990+Z
305848001305848077-000467     305848006003000329991GIFT-BAG STAMP 18X23CM 0000001000+00001753+00000+0001T   00001753+0000001316          1400 AG6112               1CZ
305849000305849               305849               170213HT     1400+00000+HT0000000735+0000000735+000000000+000000103+0000000830+0000000008+I20000000000+0000000830+Z
305849001305849007-000128     305849006009635830475BOOK H/COVER A5 96-PAGE0000001000+00000700+00000+0001T   00000700+0000001317          1400 AG6130               1CZ
305849002305849112-116038     305849006009681820246TCS CARRIER BAG MIDI   0000001000+00000035+00000+0001T   00000035+0000001317          1400 AG6090               1CZ
305850000305850               305850               170213HT     1400+00000+HT0000006204+0000006204+000000000+000000871+0000007070+0000000005+I20000000000+0000007070+Z
305850001305850112-116053     305850006006438002399TCS CARRIER BAG 38L    0000001000+00000069+00000+0001T   00000069+0000001319          1400 AG6090               1BZ
305850002305850158-000002     305850006001023594792FRUIT-BASKET CHROME RND0000001000+00002630+00000+0001T   00002630+0000001319          1400 AG6300               1BZ
305850003305850077-000151     305850006008766114676GIFT-WRAP C/PHANE ASSTD0000002000+00000876+00000+0001T   00000876+0000001319          1400 AG6112               1BZ
305850004305850077-000324     305850006001023677594GIFT-BAG 33X45CM E/D FL0000001000+00001753+00000+0001T   00001753+0000001319          1400 AG6112               1BZ
305851000305851               305851               170213HT     1400+00000+HT0000012279+0000012279+000000000+000001720+0000013999+0000000000+I40000013999+0000000000+Z
305851001305851464-003002     305851006003000328550GAME THINK:CHESS KIDS  0000001000+00012279+00000+0001T   00012279+0000001321          1400 AG6785               1CZ
305852000305852               305852               170213HT     1400+00000+HT0000002630+0000002630+000000000+000000369+0000002990+0000000009+I20000000000+0000002990+Z
305852001305852105-001101     305852006003000667659CONTAINER SET LITE 2PC 0000001000+00002630+00000+0001T   00002630+0000001322          1400 AG6210               1CZ
305853000305853               305853               170213HT     1400+00000+HT0000002540+0000002540+000000000+000000356+0000002896+0000000000+I40000002896+0000000000+Z
305853001305853304-001011     305853006001023806727FLWR ROSE RED W/BEAR   0000002000+00000613+00000+0001T   00000788+0006471323          1400 AG6510               1AZ
305853002305853903-000194     305853006009826020616SWT CHOC RP LOLLY 25G  0000001000+00001314+00000+0001T   00001314+0000001323          1400 AG6150               1AZ
305854000305854               305854               170213HT     1400+00000+HT0000002190+0000002190+000000000+000000307+0000002490+0000000007+I20000000000+0000002490+Z
305854001305854002-021057     305854006001023812032T/PICKS UMBRELLAS 10PCE0000001000+00000876+00000+0001T   00000876+0000001325          1400 AG6300               1CZ
305854002305854200-000066     305854006003000365975STRAWS 12PCE W/UMBRELLA0000001000+00001314+00000+0001T   00001314+0000001325          1400 AG6214               1CZ
305855000305855               305855               170213HT     1400+00000+HT0000030543+0000030543+000000000+000004281+0000034824+0000000000+I40000034824+0000000000+Z
305855001305855112-116038     305855006009681820246TCS CARRIER BAG MIDI   0000001000+00000035+00000+0001T   00000035+0000001328          1400 AG6090               1AZ
305855002305855002-000721     305855006003000442119C/BOARD PL 43x27x0.6cm 0000001000+00008771+00000+0001T   00008771+0000001328          1400 AG6300               1AZ
305855003305855159-006347     305855006001023713193HOOKS SET-2 ASSTD BOX  0000002000+00003507+00000+0001T   00003507+0000001328          1400 AG6200               1AZ
305855004305855083-000055     305855006003000003853LIGHTER ELCTRNC REFILBL0000004000+00000613+00000+0001T   00000613+0000001328          1400 AG6315               1AZ
305855005305855037-000001     305855006001023490445ASHTRAY 14cm ASSTD     0000006000+00001753+00000+0001T   00001753+0000001328          1400 AG6515               1AZ
305855006305855037-050016     305855006001023674128ASHTRAY 9CM RND CLUB   0000001000+00001753+00000+0001T   00001753+0000001328          1400 AG6515               1AZ
305856000305856               305856               170213HT     1400+00000+HT0000007049+0000007049+000000000+000000988+0000008030+0000000007+I20000000000+0000008030+Z
305856001305856112-116038     305856006009681820246TCS CARRIER BAG MIDI   0000001000+00000035+00000+0001T   00000035+0000001329          1400 AG6090               1CZ
305856002305856077-000151     305856006008766114676GIFT-WRAP C/PHANE ASSTD0000001000+00000876+00000+0001T   00000876+0000001329          1400 AG6112               1CZ
305856003305856077-000150-D   305856006003000054343GIFT-WRAP CELLPHANE CLR0000001000+00000876+00000+0001T   00000876+0000001329          1400 AG6112               1CZ
305856004305856103-000245     305856006003000571550BASKET WOVEN RECT      0000001000+00005262+00000+0001T   00005262+0000001329          1400 AG6300               1CZ
305857000305857               305857               170213HT     1400+00000+HT0000001314+0000001314+000000000+000000184+0000001490+0000000008+I20000000000+0000001490+Z
305857001305857903-004950     305857006002580020304SWT APRICOT SURPRISE   0000001000+00001314+00000+0001T   00001314+0000001330          1400 AG6150               1CZ
305858000305858               305858               170213HT     1400+00000+HT0000045405+0000045405+000000000+000006362+0000051767+0000000000+I40000051767+0000000000+Z
305858001305858112-116053     305858006006438002399TCS CARRIER BAG 38L    0000001000+00000069+00000+0001T   00000069+0000001337          1400 AG6090               1AZ
305858002305858080-000134     305858006003000590988CARD & ENV GIANT BOY   0000001000+00002630+00000+0001T   00002630+0000001337          1400 AG6112               1AZ
305858003305858203-005006     305858006003000224616DRINKING GAME 5-IN-1   0000001000+00017542+00000+0001T   00017542+0000001337          1400 AG6300               1AZ
305858004305858206-000600     305858006003000631551TOILET PAPER SUDUKO    0000001000+00002630+00000+0001T   00002630+0000001337          1400 AG6321               1AZ
305858005305858047-000507     305858006001023684479PLUG-ADAPTOR EURO TWIN 0000001000+00001753+00000+0001T   00001753+0000001337          1400 AG6880               1AZ
305858006305858206-000620     305858006003000631797BACK SCRATCHER EXTEND  0000001000+00002630+00000+0001T   00002630+0000001337          1400 AG6321               1AZ
305858007305858206-000630     305858006003000631919SPECTACLE CLEANING BRUS0000001000+00001227+00000+0001T   00001227+0000001337          1400 AG6321               1AZ
305858008305858903-000594     305858006003000564057SWT SWORD 18cm J/BEAN  0000001000+00002630+00000+0001T   00002630+0000001337          1400 AG6150               1AZ
305858009305858263-000340     305858006003000652143VEHICLE JEEP 7.5cm     0000001000+00001314+00000+0001T   00001314+0000001337          1400 AG6710               1AZ
305858010305858105-009015     305858006003000467204STORAGE BOX 32L FROSTED0000001000+00011402+00000+0001T   00011402+0000001337          1400 AG6210               1AZ
305858011305858077-000348     305858006001023483287GIFT-BOWS 4,5cm 8PCE   0000001000+00001578+00000+0001T   00001578+0000001337          1400 AG6112               1AZ
305859000305859               305859               170213HT     1400+00000+HT0000003156+0000003156+000000000+000000442+0000003598+0000000000+I40000003598+0000000000+Z
305859001305859071-001028     305859008887013700385MARKER WHT-RND YM-500  0000002000+00001578+00000+0001T   00001578+0000001339          1400 AG6130               1CZ
305860000305860               305860               170213HT     1400+00000+HT0000001227+0000001227+000000000+000000172+0000001390+0000000009+I20000000000+0000001390+Z
305860001305860496-069632     305860000078257596324REPAIR-KIT (GLUE/PATCH)0000001000+00001227+00000+0001T   00001227+0000001400          1400 AG6787               1CZ
305861000305861               305861               170213HT     1400+00000+HT0000000876+0000000876+000000000+000000123+0000000990+0000000009+I20000000000+0000000990+Z
305861001305861071-003000     305861006003000543229PEN BALL PEN 3PCE MULTI0000001000+00000876+00000+0001T   00000876+0000001404          1400 AG6130               1CZ
305862000305862               305862               170213HT     1400+00000+HT0000003103+0000003103+000000000+000000435+0000003530+0000000008+I20000000000+0000003530+Z
305862001305862112-116038     305862006009681820246TCS CARRIER BAG MIDI   0000001000+00000035+00000+0001T   00000035+0000001410          1400 AG6090               1AZ
305862002305862077-000299     305862006003000395576G/BAG 32x25cm LRG LOVE 0000001000+00001490+00000+0001T   00001490+0000001410          1400 AG6112               1AZ
305862003305862018-000127     305862006001023380289MUG OCC STRAIGHT LOVE  0000001000+00001578+00000+0001T   00001753+0006471410          1400 AG6515               1AZ
305863000305863               305863               170213HT     1400+00000+HT0000005998+0000005998+000000000+000000840+0000006838+0000000000+I40000006838+0000000000+Z
305863001305863018-000127     305863006001023380289MUG OCC STRAIGHT LOVE  0000001000+00001578+00000+0001T   00001753+0006471413          1400 AG6515               1AZ
305863002305863368-000001     305863006003000097982Plush Bear 25cm        0000001000+00004385+00000+0001T   00004385+0000001413          1400 AG6745               1AZ
305863003305863112-116038     305863006009681820246TCS CARRIER BAG MIDI   0000001000+00000035+00000+0001T   00000035+0000001413          1400 AG6090               1AZ
305864000305864               305864               170213HT     1400+00000+HT0000001578+0000001578+000000000+000000221+0000001790+0000000009+I20000000000+0000001790+Z
305864001305864016-006515-A   305864006003000461707S/JAR GLS W/HANDLE 500 0000001000+00001578+00000+0001T   00001753+0008191424          1400 AG6300               1CZ
305865000305865               305865               170213HT     1400+00000+HT0000005259+0000005259+000000000+000000738+0000005990+0000000007+I20000000000+0000005990+Z
305865001305865077-000240     305865006003000326259G/RIBBON 4PC PEARLIZED 0000003000+00001753+00000+0001T   00001753+0000001426          1400 AG6112               1AZ
305866000305866               305866               170213HT     1400+00000+HT0000003541+0000003541+000000000+000000497+0000004030+0000000008+I20000000000+0000004030+Z
305866001305866112-116038     305866006009681820246TCS CARRIER BAG MIDI   0000001000+00000035+00000+0001T   00000035+0000001427          1400 AG6090               1CZ
305866002305866012-000001     305866006003000331048MICRO PLATE-COVER 26X6 0000002000+00001753+00000+0001T   00002192+0008191427          1400 AG6300               1CZ
305867000305867               305867               170213HT     1400+00000+HT0000001753+0000001753+000000000+000000246+0000001990+0000000009+I20000000000+0000001990+Z
305867001305867077-000290     305867006001023902023GIFT BOX 26x32x13cm    0000001000+00001753+00000+0001T   00001753+0000001450          1400 AG6112               1CZ
305868000305868               305868               170213HT     1400+00000+HT0000008327+0000008327+000000000+000001166+0000009490+0000000003+I20000000000+0000009490+Z
305868001305868018-005009     305868006001023725608MUG W/PLUSH-BEAR LOVE  0000001000+00003507+00000+0001T   00003507+0000001502          1400 AG6515               1CZ
305868002305868018-000136     305868006001023659026MUG OCC LOVE W/PLUSH   0000001000+00003507+00000+0001T   00003507+0000001502          1400 AG6515               1CZ
305868003305868304-001011     305868006001023806727FLWR ROSE RED W/BEAR   0000001000+00000613+00000+0001T   00000788+0006471502          1400 AG6510               1CZ
305868004305868564-000012     305868006001023130075BUBBLE BOTTLE MAGIC    0000001000+00000700+00000+0001T   00000700+0000001502          1400 AG6131               1CZ
305869000305869               305869               170213HT     1400+00000+HT0000005262+0000005262+000000000+000000737+0000005999+0000000000+I40000005999+0000000000+Z
305869001305869263-000623     305869006001023905697VEHICLE HELICOPTER 30cm0000001000+00005262+00000+0001T   00005262+0000001505          1400 AG6710               1CZ
305870000305870               305870               170213HT     1400+00000+HT0000021027+0000021027+000000000+000002946+0000023973+0000000000+I40000023973+0000000000+Z
305870001305870112-116053     305870006006438002399TCS CARRIER BAG 38L    0000001000+00000069+00000+0001T   00000069+0000001509          1400 AG6090               1CZ
305870002305870040-000503     305870006003000288632C/HOLDER FLOWER 27CM   0000001000+00011402+00000+0001T   00011402+0000001509          1400 AG6510               1CZ
305870003305870039-001020     305870006001023617798CANDLES FLOATING BOX-4 0000001000+00002455+00000+0001T   00002455+0000001509          1400 AG6510               1CZ
305870004305870077-000299     305870006003000395576G/BAG 32x25cm LRG LOVE 0000001000+00001490+00000+0001T   00001490+0000001509          1400 AG6112               1CZ
305870005305870304-001011     305870006001023806727FLWR ROSE RED W/BEAR   0000002000+00000613+00000+0001T   00000788+0006471509          1400 AG6510               1CZ
305870006305870019-000083     305870006001023797209V/GLASS CUT 3-ASST 20CM0000001000+00004385+00000+0001T   00006139+0008171509          1400 AG6510               1CZ
305871000305871               305871               170213HT     1400+00000+HT0000000876+0000000876+000000000+000000123+0000000990+0000000009+I20000000000+0000000990+Z
305871001305871077-000151     305871006008766114676GIFT-WRAP C/PHANE ASSTD0000001000+00000876+00000+0001T   00000876+0000001513          1400 AG6112               1CZ
305872000305872               305872               170213HT     1400+00000+HT0000005085+0000005085+000000000+000000712+0000005797+0000000000+I40000005797+0000000000+Z
305872001305872077-000303     305872006001023593757GIFT-BAG PAPER MED     0000001000+00001578+00000+0001T   00001578+0000001518          1400 AG6112               1CZ
305872002305872031-000844     305872006001023851789P/FRAME WDN WORDS 2ASS 0000001000+00003507+00000+0001T   00003507+0000001518          1400 AG6510               1CZ
305873000305873               305873               170213HT     1400+00000+HT0000002192+0000002192+000000000+000000307+0000002490+0000000009+I20000000000+0000002490+Z
305873001305873080-000127     305873006003000424351VALENTINES DAY 36x24CM 0000001000+00002192+00000+0001T   00002192+0000001518          1400 AG6112               1CZ
305874000305874               305874               170213HT     1400+00000+HT0000041025+0000041025+000000000+000005746+0000046770+0000000001+I20000000000+0000046770+Z
305874001305874112-116053     305874006006438002399TCS CARRIER BAG 38L    0000001000+00000069+00000+0001T   00000069+0000001521          1400 AG6090               1CZ
305874002305874031-000009     305874006003000306381P/FRAME COLLAGE HEARTS 0000001000+00013157+00000+0001T   00013157+0000001521          1400 AG6510               1CZ
305874003305874077-000299     305874006003000395576G/BAG 32x25cm LRG LOVE 0000001000+00001490+00000+0001T   00001490+0000001521          1400 AG6112               1CZ
305874004305874018-000136     305874006001023659026MUG OCC LOVE W/PLUSH   0000001000+00003507+00000+0001T   00003507+0000001521          1400 AG6515               1CZ
305874005305874077-000011-C   305874006001023808523TISSUE 10xSHTS RED     0000001000+00000876+00000+0001T   00000876+0000001521          1400 AG6112               1CZ
305874006305874088-000084     305874006001023798060P/POURRI 120G ASSTD    0000001000+00001753+00000+0001T   00001753+0000001521          1400 AG6212               1CZ
305874007305874001-091415     305874006003000329113W/GLS OCC. LOVE 2PC 2800000001000+00008771+00000+0001T   00009648+0006471521          1400 AG6515               1CZ
305874008305874040-000103     305874000694202201862C/HOLDER-SET 5PC W/TRAY0000001000+00011402+00000+0001T   00013157+0008191521          1400 AG6510               1CZ
305875000305875               305875               170213HT     1400+00000+HT0000009416+0000009416+000000000+000001319+0000010735+0000000000+I40000010735+0000000000+Z
305875001305875112-116038     305875006009681820246TCS CARRIER BAG MIDI   0000001000+00000035+00000+0001T   00000035+0000001525          1400 AG6090               1CZ
305875002305875018-030000     305875006003000421060MUG OCCASIONS LOVE 2PCE0000001000+00004385+00000+0001T   00004385+0000001525          1400 AG6515               1CZ
305875003305875077-000312     305875006001023608697GIFT-BAG 10X35CM GLOSS 0000001000+00001314+00000+0001T   00001314+0000001525          1400 AG6112               1CZ
305875004305875077-000303     305875006001023593757GIFT-BAG PAPER MED     0000001000+00001578+00000+0001T   00001578+0000001525          1400 AG6112               1CZ
305875005305875903-000095     305875006001704011495SWT SPECKLED-EGGS 100G 0000001000+00002104+00000+0001T   00002104+0000001525          1400 AG6150               1CZ
305876000305876               305876               170213HT     1400+00000+HT0000003278+0000003278+000000000+000000460+0000003730+0000000008+I20000000000+0000003730+Z
305876001305876077-000452     305876006003000284986G/BAG METALLIC MED EMB 0000001000+00001490+00000+0001T   00001490+0000001531          1400 AG6112               1CZ
305876002305876077-000472     305876006003000330133G-BAG DESGNR LRG 25X32 0000001000+00001753+00000+0001T   00001753+0000001531          1400 AG6112               1CZ
305876003305876112-116038     305876006009681820246TCS CARRIER BAG MIDI   0000001000+00000035+00000+0001T   00000035+0000001531          1400 AG6090               1CZ
305877000305877               305877               170213HT     1400+00000+HT0000001269+0000001269+000000000+000000179+0000001440+0000000008+I20000000000+0000001440+Z
305877001305877007-000127     305877006009685853431BOOK H/COVER MEMO 144PG0000001000+00000876+00000+0001T   00000876+0000001556          1400 AG6130               1CZ
305877002305877903-000183     305877006003000451043SWT LB HEART LOLLY     0000001000+00000393+00000+0001T   00000393+0000001556          1400 AG6150               1CZ
305878000305878               305878               170213HT     1400+00000+HT0000016659+0000016659+000000000+000002334+0000018990+0000000003+I20000000000+0000018990+Z
305878001305878301-000013     305878006001023781604ORN SENTIMENT STONE 4-A0000001000+00006139+00000+0001T   00006139+0000001557          1400 AG6505               1AZ
305878002305878301-000120     305878006003000456420ORN ANGEL BELL 10CM    0000001000+00005262+00000+0001T   00005262+0000001557          1400 AG6505               1AZ
305878003305878903-000194     305878006009826020616SWT CHOC RP LOLLY 25G  0000001000+00001314+00000+0001T   00001314+0000001557          1400 AG6150               1AZ
305878004305878162-096646     305878006001492966465#TAG HOT DEALS KIDS HR 0000001000+00002630+00000+0001T   00002630+0000001557          1400 AG6160               1AZ
305878005305878903-000844     305878005010478432567SWT CANDY DL LUV HEARTS0000001000+00001314+00000+0001T   00001314+0000001557          1400 AG6150               1AZ
305879000305879               305879               170213HT     1400+00000+HT0000001752+0000001752+000000000+000000246+0000001990+0000000008+I20000000000+0000001990+Z
305879001305879366-007916     305879006001023419309MASK PL CHARACTER ASS  0000002000+00000876+00000+0001T   00000876+0000001604          1400 AG6131               1CZ
305880000305880               305880               170213HT     1400+00000+HT0000016859+0000016859+000000000+000002366+0000019225+0000000000+I40000019225+0000000000+Z
305880001305880112-116038     305880006009681820246TCS CARRIER BAG MIDI   0000001000+00000035+00000+0001T   00000035+0000001619          1400 AG6090               1CZ
305880002305880007-000402     305880006009635830864EXERCISE-BOOK A4 72PGE 0000001000+00000525+00000+0001T   00000525+0000001619          1400 AG6130               1CZ
305880003305880077-000303     305880006001023593757GIFT-BAG PAPER MED     0000002000+00001578+00000+0001T   00001578+0000001619          1400 AG6112               1CZ
305880004305880007-000534     305880006001023847836NOTE-BOOK H/C ASSTD    0000001000+00002630+00000+0001T   00002630+0000001619          1400 AG6130               1CZ
305880005305880071-008241     305880006001023871886PENCIL-BAG 20x6cm ASSTD0000001000+00001753+00000+0001T   00001753+0000001619          1400 AG6130               1CZ
305880006305880903-000155     305880006009803374435SWT LOLLY I LUV U HEART0000003000+00000525+00000+0001T   00000525+0000001619          1400 AG6150               1CZ
305880007305880304-001011     305880006001023806727FLWR ROSE RED W/BEAR   0000003000+00000613+00000+0001T   00000788+0006471619          1400 AG6510               1CZ
305880008305880304-001204     305880006001023737984FLOWER OCC. TEDDY/ROSES0000002000+00001402+00000+0001T   00001490+0006471619          1400 AG6510               1CZ
305880009305880007-000104     305880006009685854865BK COVER BRWN KRFT ROLL0000001000+00000350+00000+0001T   00000350+0000001619          1400 AG6130               1CZ
305880010305880565-000887     305880006003000412334NOVELTY SILICONE TOY   0000001000+00002192+00000+0001T   00002192+0000001619          1400 AG6745               1CZ
305881000305881               305881               170213HT     1400+00000+HT0000007925+0000007925+000000000+000001112+0000009030+0000000007+I20000000000+0000009030+Z
305881001305881112-116038     305881006009681820246TCS CARRIER BAG MIDI   0000001000+00000035+00000+0001T   00000035+0000001620          1400 AG6090               1CZ
305881002305881072-020354     305881006001023649980DOG/CAT-BOWL LARGE     0000003000+00002630+00000+0001T   00002630+0000001620          1400 AG6870               1CZ
305882000305882               305882               170213HT     1400+00000+HT0000015379+0000015379+000000000+000002154+0000017530+0000000003+I20000000000+0000017530+Z
305882001305882112-116038     305882006009681820246TCS CARRIER BAG MIDI   0000001000+00000035+00000+0001T   00000035+0000001625          1400 AG6090               1AZ
305882002305882039-000635     305882006001023774521CANDLE VTV 4PC WHITE   0000003000+00002192+00000+0001T   00002192+0000001625          1400 AG6510               1AZ
305882003305882563-000318-L   305882006003000407088SERVIETTES 33cm RED    0000004000+00002192+00000+0001T   00002192+0000001625          1400 AG6214               1AZ
305883000305883               305883               170213HT     1400+00000+HT0000000911+0000000911+000000000+000000128+0000001030+0000000009+I20000000000+0000001030+Z
305883001305883077-000302     305883008010410010195GIFT-BAG 18X23CM E/D   0000001000+00000876+00000+0001T   00000876+0000001628          1400 AG6112               1CZ
305883002305883112-116038     305883006009681820246TCS CARRIER BAG MIDI   0000001000+00000035+00000+0001T   00000035+0000001628          1400 AG6090               1CZ
305884000305884               305884               170213HT     1400+00000+HT0000004061+0000004061+000000000+000000573+0000004630+0000000004+I20000000000+0000004630+Z
305884001305884077-000314     305884006003000181148GIFT-BAG 11X14CM MATT  0000001000+00000876+00000+0001T   00000876+0000001633          1400 AG6112               1CZ
305884002305884018-000127     305884006001023380289MUG OCC STRAIGHT LOVE  0000001000+00001578+00000+0001T   00001753+0006471633          1400 AG6515               1CZ
305884003305884112-116038     305884006009681820246TCS CARRIER BAG MIDI   0000001000+00000035+00000+0001T   00000035+0000001633          1400 AG6090               1CZ
305884004305884903-000183     305884006003000451043SWT LB HEART LOLLY     0000004000+00000393+00000+0001T   00000393+0000001633          1400 AG6150               1CZ
305885000305885               305885               170213HT     1400+00000+HT0000010079+0000010079+000000000+000001414+0000011493+0000000000+I40000011493+0000000000+Z
305885001305885200-003026     305885006003000276448REFUSE BAGS 10PCE GREEN0000001000+00001753+00000+0001T   00001753+0000001635          1400 AG6214               1AZ
305885002305885033-005991     305885006001023678546NEEDLES H/HOLD-REPAIR  0000001000+00000788+00000+0001T   00000788+0000001635          1400 AG6200               1AZ
305885003305885306-001690     305885006003000620937EYELASH CURLERS        0000001000+00001314+00000+0001T   00001753+0008171635          1400 AG6200               1AZ
305885004305885072-020311     305885006003000494132PET DOG TOY VINYL BALL 0000001000+00003069+00000+0001T   00003069+0000001635          1400 AG6870               1AZ
305885005305885027-001020     305885006001246602519BROOM FLOOR W/HANDLE   0000001000+00002279+00000+0001T   00002279+0000001635          1400 AG6212               1AZ
305885006305885903-000006     305885006923431571571SWEET GS SOUR BELT 50g 0000001000+00000876+00000+0001T   00000876+0000001635          1400 AG6150               1AZ
305886000305886               305886               170213HT     1400+00000+HT0000000787+0000000787+000000000+000000111+0000000898+0000000000+I40000000898+0000000000+Z
305886001305886903-000077     305886006939873501687SWT GS MAGIC ROCK FRUIT0000001000+00000525+00000+0001T   00000525+0000001639          1400 AG6150               1AZ
305886002305886903-000099     305886006923431501646SWT CANDY GS WTCH B/LET0000001000+00000262+00000+0001T   00000262+0000001639          1400 AG6150               1AZ
305887000305887               305887               170213HT     1400+00000+HT0000002630+0000002630+000000000+000000369+0000002999+0000000000+I40000002999+0000000000+Z
305887001305887083-000058     305887006003000400331LIGHTER JET CIGAR REFIL0000001000+00002630+00000+0001T   00002630+0000001642          1400 AG6315               1AZ
305888000305888               305888               170213HT     1400+00000+HT0000001753+0000001753+000000000+000000246+0000001990+0000000009+I20000000000+0000001990+Z
305888001305888077-000005-D   305888006003000414567PAPER TISSUE 50x70cm   0000001000+00001753+00000+0001T   00001753+0000001643          1400 AG6112               1CZ
305889000305889               305889               170213HT     1400+00000+HT0000014504+0000014504+000000000+000002032+0000016530+0000000006+I20000000000+0000016530+Z
305889001305889112-116038     305889006009681820246TCS CARRIER BAG MIDI   0000001000+00000035+00000+0001T   00000035+0000001644          1400 AG6090               1CZ
305889002305889001-091415     305889006003000329113W/GLS OCC. LOVE 2PC 2800000001000+00008771+00000+0001T   00009648+0006471644          1400 AG6515               1CZ
305889003305889088-000084     305889006001023798060P/POURRI 120G ASSTD    0000001000+00001753+00000+0001T   00001753+0000001644          1400 AG6212               1CZ
305889004305889039-000635     305889006001023774521CANDLE VTV 4PC WHITE   0000001000+00002192+00000+0001T   00002192+0000001644          1400 AG6510               1CZ
305889005305889077-000472     305889006003000330133G-BAG DESGNR LRG 25X32 0000001000+00001753+00000+0001T   00001753+0000001644          1400 AG6112               1CZ
305890000305890               305890               170213HT     1400+00000+HT0000000613+0000000613+000000000+000000086+0000000690+0000000009+I20000000000+0000000690+Z
305890001305890304-001011     305890006001023806727FLWR ROSE RED W/BEAR   0000001000+00000613+00000+0001T   00000788+0006471645          1400 AG6510               1CZ
305891000305891               305891               170213HT     1400+00000+HT0000001490+0000001490+000000000+000000209+0000001699+0000000000+I40000001699+0000000000+Z
305891001305891077-000304     305891006001023483232GIFT-BAG 25X32CM E/DAY 0000001000+00001490+00000+0001T   00001490+0000001648          1400 AG6112               1CZ
305892000305892               305892               170213HT     1400+00000+HT0000047869+0000047869+000000000+000006704+0000054573+0000000000+I40000054573+0000000000+Z
305892001305892112-116053     305892006006438002399TCS CARRIER BAG 38L    0000001000+00000069+00000+0001T   00000069+0000001703          1400 AG6090               1CZ
305892002305892265-000216     305892006001023681423CAR B/O RACING-SET 36PC0000001000+00021051+00000+0001T   00021051+0000001703          1400 AG6710               1CZ
305892003305892263-000501     305892006001023790804TRUCK+TRAILR CONVEYANCE0000001000+00017542+00000+0001T   00017542+0000001703          1400 AG6710               1CZ
305892004305892263-000145     305892006001023708298MOTORBIKE PL           0000001000+00005262+00000+0001T   00005262+0000001703          1400 AG6710               1CZ
305892005305892077-000920     305892006003000413812G/WRAP 700mmx2m BIRTHDA0000001000+00002192+00000+0001T   00002192+0000001703          1400 AG6112               1CZ
305892006305892077-000290     305892006001023902023GIFT BOX 26x32x13cm    0000001000+00001753+00000+0001T   00001753+0000001703          1400 AG6112               1CZ
305893000305893               305893               170213HT     1400+00000+HT0000005033+0000005033+000000000+000000705+0000005730+0000000008+I20000000000+0000005730+Z
305893001305893112-116038     305893006009681820246TCS CARRIER BAG MIDI   0000001000+00000035+00000+0001T   00000035+0000001704          1400 AG6090               1CZ
305893002305893306-000021     305893006001023169433EARBUDS 100PCE IN BAG  0000001000+00000613+00000+0001T   00000613+0000001704          1400 AG6200               1CZ
305893003305893032-000334     305893006003000352395MIRROR HAND PL 23X31CM 0000001000+00004385+00000+0001T   00004385+0000001704          1400 AG6510               1CZ
305894000305894               305894               170213HT     1400+00000+HT0000003629+0000003629+000000000+000000509+0000004138+0000000000+I40000004138+0000000000+Z
305894001305894112-116038     305894006009681820246TCS CARRIER BAG MIDI   0000001000+00000035+00000+0001T   00000035+0000001709          1400 AG6090               1CZ
305894002305894039-000336     305894006001023169129B'DAY-CANDLES MAGIC 10P0000001000+00000964+00000+0001T   00000964+0000001709          1400 AG6510               1CZ
305894003305894006-000203-A   305894006003453010965SNACK BOX 6PCE ASSTD   0000001000+00002630+00000+0001T   00002630+0000001709          1400 AG6131               1CZ
305895000305895               305895               170213HT     1400+00000+HT0000000700+0000000700+000000000+000000098+0000000790+0000000008+I20000000000+0000000790+Z
305895001305895018-000177     305895006001023797513MUG MINI LOVE ASSTD    0000001000+00000700+00000+0001T   00000700+0000001709          1400 AG6515               1CZ
305896000305896               305896               170213HT     1400+00000+HT0000021115+0000021115+000000000+000002959+0000024074+0000000000+I40000024074+0000000000+Z
305896001305896112-116053     305896006006438002399TCS CARRIER BAG 38L    0000001000+00000069+00000+0001T   00000069+0000001713          1400 AG6090               1CZ
305896002305896263-000417     305896006003000598984VEHICLES MONSTER FRICT.0000001000+00007016+00000+0001T   00007016+0000001713          1400 AG6710               1CZ
305896003305896079-000198     305896006003000542475ART+CRAFT SET 66PCE    0000001000+00008771+00000+0001T   00008771+0000001713          1400 AG6130               1CZ
305896004305896562-000010     305896006001023762528KID'S PLAY DOUGH       0000001000+00002630+00000+0001T   00002630+0000001713          1400 AG6755               1CZ
305896005305896903-003080     305896005907029004673SWT SNACK STIX CHOC 50g0000001000+00000876+00000+0001T   00000876+0000001713          1400 AG6150               1CZ
305896006305896903-000612     305896006003000617449SWT TRUMPET 20cm       0000001000+00001753+00000+0001T   00001753+0000001713          1400 AG6150               1CZ
305897000305897               305897               170213HT     1400+00000+HT0000033754+0000033754+000000000+000004732+0000038486+0000000000+I40000038486+0000000000+Z
305897001305897001-091415     305897006003000329113W/GLS OCC. LOVE 2PC 2800000001000+00008771+00000+0001T   00009648+0006471717          1400 AG6515               1CZ
305897002305897567-011482     305897000088908316003BK PUZZLE HELLO KITTY  0000001000+00003069+00000+0001T   00003069+0000001717          1400 AG6757               1CZ
305897003305897080-008102     305897006003000080724CARD&ENV MINI 6PK FOIL 0000003000+00001753+00000+0001T   00001753+0000001717          1400 AG6112               1CZ
305897004305897007-000226     305897006003000646876NOTEBOOK WITH ELASTIC  0000001000+00002630+00000+0001T   00002630+0000001717          1400 AG6130               1CZ
305897005305897077-000314     305897006003000181148GIFT-BAG 11X14CM MATT  0000001000+00000876+00000+0001T   00000876+0000001717          1400 AG6112               1CZ
305897006305897903-000155     305897006009803374435SWT LOLLY I LUV U HEART0000002000+00000525+00000+0001T   00000525+0000001717          1400 AG6150               1CZ
305897007305897007-000535     305897000651728790904NOTE-BOOK DRESS TEEN   0000001000+00001753+00000+0001T   00001753+0000001717          1400 AG6130               1CZ
305897008305897162-093291     305897006001492932910#TAG GOLD METAL NK     0000001000+00006139+00000+0001T   00006139+0000001717          1400 AG6160               1CZ
305897009305897077-000471     305897006003000330096G-BAG DESGN MED 18X23CM0000001000+00001753+00000+0001T   00001753+0000001717          1400 AG6112               1CZ
305897010305897077-000386     305897006003000275489G/BAG POP UP 18x23CM   0000001000+00001578+00000+0001T   00001578+0000001717          1400 AG6112               1CZ
305897011305897089-000192-A   305897006001023901774KEY-CHAIN ACRYLIC      0000001000+00000876+00000+0001T   00000876+0000001717          1400 AG6205               1CZ
305898000305898               305898               170213HT     1400+00000+HT0000001753+0000001753+000000000+000000246+0000001990+0000000009+I20000000000+0000001990+Z
305898001305898012-000001     305898006003000331048MICRO PLATE-COVER 26X6 0000001000+00001753+00000+0001T   00002192+0008191718          1400 AG6300               1CZ
305899000305899               305899               170213HT     1400+00000+HT0000003542+0000003542+000000000+000000496+0000004030+0000000008+I20000000000+0000004030+Z
305899001305899112-116038     305899006009681820246TCS CARRIER BAG MIDI   0000001000+00000035+00000+0001T   00000035+0000001718          1400 AG6090               1CZ
305899002305899018-000136     305899006001023659026MUG OCC LOVE W/PLUSH   0000001000+00003507+00000+0001T   00003507+0000001718          1400 AG6515               1CZ
305900000305900               305900               170213HT     1400+00000+HT0000001788+0000001788+000000000+000000251+0000002030+0000000009+I20000000000+0000002030+Z
305900001305900112-116038     305900006009681820246TCS CARRIER BAG MIDI   0000001000+00000035+00000+0001T   00000035+0000001721          1400 AG6090               1CZ
305900002305900012-000001     305900006003000331048MICRO PLATE-COVER 26X6 0000001000+00001753+00000+0001T   00002192+0008191721          1400 AG6300               1CZ
305900003305900089-000006     305900006003000094929KEY CHAIN HAND-BAG MTL 0000001000-00003507+00000+0001T   00003507+0000001721          1400 AG62052IC            1 Z
305900004305900089-000006     305900006003000094929KEY CHAIN HAND-BAG MTL 0000001000+00003507+00000+0001T   00003507+0000001721          1400 AG62052IC            1CZ
305901000305901               305901               170213HT     1400+00000+HT0000002630+0000002630+000000000+000000369+0000002990+0000000009+I20000000000+0000002990+Z
305901001305901089-000100     305901006003000565665K/CHAIN PET LOVERS     0000001000+00002630+00000+0001T   00002630+0000001723          1400 AG6205               1CZ
305902000305902               305902               170213HT     1400+00000+HT0000024882+0000024882+000000000+000003486+0000028360+0000000008+I20000000000+0000028360+Z
305902001305902112-116053     305902006006438002399TCS CARRIER BAG 38L    0000001000+00000069+00000+0001T   00000069+0000001729          1400 AG6090               1AZ
305902002305902001-091415     305902006003000329113W/GLS OCC. LOVE 2PC 2800000001000+00008771+00000+0001T   00009648+0006471729          1400 AG6515               1AZ
305902003305902301-085003     305902006003000420827ORN OCCASION LOVE KEY  0000001000+00005262+00000+0001T   00005262+0000001729          1400 AG6505               1AZ
305902004305902006-000111     305902006003000519385BALLOONS LARGE 12PCE   0000001000+00002630+00000+0001T   00002630+0000001729          1400 AG6131               1AZ
305902005305902018-000177     305902006001023797513MUG MINI LOVE ASSTD    0000001000+00000700+00000+0001T   00000700+0000001729          1400 AG6515               1AZ
305902006305902903-000194     305902006009826020616SWT CHOC RP LOLLY 25G  0000001000+00001314+00000+0001T   00001314+0000001729          1400 AG6150               1AZ
305902007305902080-000127     305902006003000424351VALENTINES DAY 36x24CM 0000001000+00002192+00000+0001T   00002192+0000001729          1400 AG6112               1AZ
305902008305902903-000194     305902006009826020616SWT CHOC RP LOLLY 25G  0000001000+00001314+00000+0001T   00001314+0000001729          1400 AG6150               1AZ
305902009305902304-001607     305902006001023842558F/BRANCH 4 ROSEBUDS    0000001000+00002630+00000+0001T   00002630+0000001729          1400 AG6510               1AZ
305903000305903               305903               170213HT     1400+00000+HT0000005120+0000005120+000000000+000000717+0000005830+0000000007+I20000000000+0000005830+Z
305903001305903301-085004     305903006003000420469ORN LOVE PLAQUE 21X10CM0000001000+00003507+00000+0001T   00003946+0006471730          1400 AG6505               1CZ
305903002305903077-000303     305903006001023593757GIFT-BAG PAPER MED     0000001000+00001578+00000+0001T   00001578+0000001730          1400 AG6112               1CZ
305903003305903112-116038     305903006009681820246TCS CARRIER BAG MIDI   0000001000+00000035+00000+0001T   00000035+0000001730          1400 AG6090               1CZ
305904000305904               305904               170213HT     1400+00000+HT0000013217+0000013217+000000000+000001852+0000015060+0000000009+I20000000000+0000015060+Z
305904001305904112-116053     305904006006438002399TCS CARRIER BAG 38L    0000001000+00000069+00000+0001T   00000069+0000001733          1400 AG6090               1CZ
305904002305904077-000472     305904006003000330133G-BAG DESGNR LRG 25X32 0000001000+00001753+00000+0001T   00001753+0000001733          1400 AG6112               1CZ
305904003305904080-000116     305904006003000253555CARD&ENVELOPE-HANDMADE 0000001000+00001753+00000+0001T   00001753+0000001733          1400 AG6112               1CZ
305904004305904018-000136     305904006001023659026MUG OCC LOVE W/PLUSH   0000001000+00003507+00000+0001T   00003507+0000001733          1400 AG6515               1CZ
305904005305904018-005009     305904006001023725608MUG W/PLUSH-BEAR LOVE  0000001000+00003507+00000+0001T   00003507+0000001733          1400 AG6515               1CZ
305904006305904077-000312     305904006001023608697GIFT-BAG 10X35CM GLOSS 0000002000+00001314+00000+0001T   00001314+0000001733          1400 AG6112               1CZ
305905000305905               305905               170213HT     1400+00000+HT0000006523+0000006523+000000000+000000914+0000007430+0000000007+I20000000000+0000007430+Z
305905001305905112-116038     305905006009681820246TCS CARRIER BAG MIDI   0000001000+00000035+00000+0001T   00000035+0000001734          1400 AG6090               1CZ
305905002305905077-000299     305905006003000395576G/BAG 32x25cm LRG LOVE 0000001000+00001490+00000+0001T   00001490+0000001734          1400 AG6112               1CZ
305905003305905077-000311     305905006001023608666GIFT-BAG 11X14CM GLOSS 0000001000+00000613+00000+0001T   00000613+0000001734          1400 AG6112               1CZ
305905004305905031-080508     305905006001023802415P/FRAME PL 22X11CM LOVE0000001000+00004385+00000+0001T   00004385+0000001734          1400 AG6510               1CZ
305906000305906               305906               170213HT     1400+00000+HT0000001753+0000001753+000000000+000000246+0000001990+0000000009+I20000000000+0000001990+Z
305906001305906267-000180     305906006003000390519PZZL 24pc CARDED ASSTD 0000001000+00001753+00000+0001T   00001753+0000001736          1400 AG6755               1CZ
305907000305907               305907               170213HT     1400+00000+HT0000000613+0000000613+000000000+000000086+0000000690+0000000009+I20000000000+0000000690+Z
305907001305907304-001011     305907006001023806727FLWR ROSE RED W/BEAR   0000001000+00000613+00000+0001T   00000788+0006471737          1400 AG6510               1CZ
305908000305908               305908               170213HT     1400+00000+HT0000011399+0000011399+000000000+000001598+0000012990+0000000007+I20000000000+0000012990+Z
305908001305908077-000381     305908006003000247707GIFT-BAG 25X32CM S/COL 0000001000+00001753+00000+0001T   00001753+0000001738          1400 AG6112               1CZ
305908002305908174-000308     305908006003000684939TRAVEL NECK-PILLOW FOAM0000001000+00007893+00000+0001T   00007893+0000001738          1400 AG6205               1CZ
305908003305908080-000107     305908006003000237081CARD&ENVELPE BDAY BOY  0000001000+00001753+00000+0001T   00001753+0000001738          1400 AG6112               1CZ
305909000305909               305909               170213HT     1400+00000+HT0000006610+0000006610+000000000+000000926+0000007530+0000000006+I20000000000+0000007530+Z
305909001305909112-116038     305909006009681820246TCS CARRIER BAG MIDI   0000001000+00000035+00000+0001T   00000035+0000001744          1400 AG6090               1CZ
305909002305909368-000049     305909006003000536955PLUSH BEAR 15cm LOVE   0000001000+00004385+00000+0001T   00004385+0000001744          1400 AG6745               1CZ
305909003305909077-000299     305909006003000395576G/BAG 32x25cm LRG LOVE 0000001000+00001490+00000+0001T   00001490+0000001744          1400 AG6112               1CZ
305909004305909903-000120     305909006002099001665SWEET GS ZILLIONS 50g  0000001000+00000700+00000+0001T   00000700+0000001744          1400 AG6150               1CZ
305910000305910               305910               170213HT     1400+00000+HT0000004418+0000004418+000000000+000000620+0000005030+0000000008+I20000000000+0000005030+Z
305910001305910112-116038     305910006009681820246TCS CARRIER BAG MIDI   0000001000+00000035+00000+0001T   00000035+0000001746          1400 AG6090               1CZ
305910002305910079-000514     305910009556341898321CRAYONS WAX 24-COLOUR  0000001000+00002630+00000+0001T   00002630+0000001746          1400 AG6130               1CZ
305910003305910079-000012     305910006001023655332P/CRAYONS 12-COL LONG  0000001000+00001753+00000+0001T   00001753+0000001746          1400 AG6130               1CZ
305911000305911               305911               170213HT     1400+00000+HT0000003068+0000003068+000000000+000000430+0000003498+0000000000+I40000003498+0000000000+Z
305911001305911046-000012-A   305911006003000208296BATTERIES H/POWER SZ:AA0000001000+00002192+00000+0001T   00002192+0000001805          1400 AG6312               1CZ
305911002305911366-007916     305911006001023419309MASK PL CHARACTER ASS  0000001000+00000876+00000+0001T   00000876+0000001805          1400 AG6131               1CZ
305912000305912               305912               170213HT     1400+00000+HT0000002455+0000002455+000000000+000000344+0000002790+0000000009+I20000000000+0000002790+Z
305912001305912562-000009     305912000730589212029PLAY MODELLING CARDED  0000001000+00002455+00000+0001T   00002455+0000001811          1400 AG6755               1CZ
M17021391                              CASH        HTSLAVE 1                       Z-REPORT No.   586TOTAL (Sales - Refunds)           9158.58       CASH TO BE BANKED                 4836.70       DEBIT CARDS                          0.00       CREDIT CARDS                      4321.88       Z-READING                         9158.58       AIRTIME DEBIT CARD SALES             0.00       AIRTIME CARD SALES                   0.00       OVERS/UNDERS                         0.00       AIRTIME CASH SALES                   0.00       GIFT CARDS                           0.00       GIFT CARD CASH SALES                 0.00       T O T A L  CASH PAYOUTS              0.00                                                                                                                                                                                                                                                                                                                                                      Z
M17021392                              CASH        HTABSENT                                                                                                                                                                                          ANNUAL LEAVE                                                                                                                                                                                    DAY OFF                                                                                                                                                                                         COMMENTS          305912                                                                                                                                                                                                                                                                                                                                                                       Z
Y17021300                                          HT00008900807196+000089
ZHT17021319493 SLAVE 1      SALES DATA                     NEXT INVOICE NO.  305913 0586
X HT Slave 1 First invoice 305824 170213 Last invoice 305912 170213 Next invoice 305913 Total number of records 000000384 clbackup completed 19:49:14
