133167000133167               133167               170213HU     1400+00000+HU0000002630+0000002630+000000000+000000369+0000002990+0000000009+I20000000000+0000002990+Z
133167001133167039-000100     13316700600300060614625CM WHITE CANDLE 6PC  0000001000+00002630+00000+0001T   00002630+0000000915          1400 JN15102IC            3BZ
133168000133168               133168               170213HU     1400+00000+HU0000003506+0000003506+000000000+000000492+0000003990+0000000008+I20000000000+0000003990+Z
133168001133168080-000123     133168006003000237722CARD&ENVELOPE-SYMPATHY 0000002000+00001753+00000+0001T   00001753+0000000920          1400 JN1112               3BZ
133169000133169               133169               170213HU     1400+00000+HU0000002630+0000002630+000000000+000000369+0000002990+0000000009+I20000000000+0000002990+Z
133169001133169082-026205     133169006001023816528R/GLASSES STRINGS 2PCE 0000001000+00002630+00000+0001T   00002630+0000000921          1400 JN1160               3BZ
133170000133170               133170               170213HU     1400+00000+HU0000004820+0000004820+000000000+000000675+0000005490+0000000005+I20000000000+0000005490+Z
133170001133170107-004105     133170006009703860984BUCKET 9L OPEN         0000002000+00001314+00000+0001T   00001314+0000000934          1400 JN1210               3BZ
133170002133170027-001400     133170006001246703209MOP CCOTTON HEAD 180g  0000001000+00002192+00000+0001T   00002192+0000000934          1400 JN1212               3BZ
133171000133171               133171               170213HU     1400+00000+HU0000006155+0000006155+000000000+000000865+0000007020+0000000000+I40000007020+0000000000+Z
133171001133171079-009700-A   133171006003000547746PAPER SIRIO A4 BLACK   0000020000+00000306+00000+0001T   00000306+0000000938          1400 JN1130               3BZ
133171002133171112-116038     133171006009681820246TCS CARRIER BAG MIDI   0000001000+00000035+00000+0001T   00000035+0000000938          1400 JN1090               3BZ
133172000133172               133172               170213HU     1400+00000+HU0000003857+0000003857+000000000+000000541+0000004390+0000000008+I20000000000+0000004390+Z
133172001133172071-081091     133172006001151010287STAED/GENKEM ALL-STICK 0000001000+00001227+00000+0001T   00001227+0000000939          1400 JN1130               3BZ
133172002133172304-001118     133172006001023786661FLWR IN-POT PINE 10cm  0000001000+00002630+00000+0001T   00002630+0000000939          1400 JN1510               3BZ
133173000133173               133173               170213HU     1400+00000+HU0000000035+0000000035+000000000+000000005+0000000040+0000000000+I20000000000+0000000040+Z
133173001133173112-116038     133173006009681820246TCS CARRIER BAG MIDI   0000001000+00000035+00000+0001T   00000035+0000000939          1400 JN1090               3BZ
133174000133174               133174               170213HU     1400+00000+HU0000001752+0000001752+000000000+000000246+0000001998+0000000000+I40000001998+0000000000+Z
133174001133174566-020154     133174000728502803607STICKERS PUFFY ASSTD   0000002000+00000876+00000+0001T   00000876+0000000947          1400 JN1130               3BZ
133175000133175               133175               170213HU     1400+00000+HU0000001538+0000001538+000000000+000000216+0000001750+0000000004+I20000000000+0000001750+Z
133175001133175077-000299     133175006003000395576G/BAG 32x25cm LRG LOVE 0000001000+00001490+00000+0001T   00001490+0000000948          1400 JN1112               3BZ
133175002133175112-116069     133175006009681820277TCS CARRIER BAG JUMBO  0000001000+00000048+00000+0001T   00000048+0000000948          1400 JN1090               3BZ
133176000133176               133176               170213HU     1400+00000+HU0000003946+0000003946+000000000+000000553+0000004490+0000000009+I20000000000+0000004490+Z
133176001133176493-058031     133176000078257580316INTEX B/BALL AQUARIUM  0000001000+00003946+00000+0001T   00003946+0000000948          1400 JN1787               3BZ
133177000133177               133177               170213HU     1400+00000+HU0000008503+0000008503+000000000+000001192+0000009695+0000000000+I40000009695+0000000000+Z
133177001133177077-000299     133177006003000395576G/BAG 32x25cm LRG LOVE 0000001000+00001490+00000+0001T   00001490+0000001000          1400 JN1112               3BZ
133177002133177018-000136     133177006001023659026MUG OCC LOVE W/PLUSH   0000001000+00003507+00000+0001T   00003507+0000001000          1400 JN1515               3BZ
133177003133177200-003026     133177006003000276448REFUSE BAGS 10PCE GREEN0000002000+00001753+00000+0001T   00001753+0000001000          1400 JN1214               3BZ
133178000133178               133178               170213HU     1400+00000+HU0000003069+0000003069+000000000+000000430+0000003490+0000000009+I20000000000+0000003490+Z
133178001133178464-009009     133178006003000647552FISHING DUCKS MAGNETIC 0000001000+00003069+00000+0001T   00003069+0000001005          1400 JN1785               3BZ
133179000133179               133179               170213HU     1400+00000+HU0000000613+0000000613+000000000+000000086+0000000690+0000000009+I20000000000+0000000690+Z
133179001133179077-000321     133179006001023677501GIFT-BAG 11X14CM E/D FL0000001000+00000613+00000+0001T   00000613+0000001008          1400 JN1112               3BZ
133180000133180               133180               170213HU     1400+00000+HU0000006961+0000006961+000000000+000000976+0000000000+0000000000+ 00000000000+0000000000+Z
133180001133180019-000070     133180006003000297474VASE GLS CLEAR BOTTLE  0000001000+00004385+00000+0001T   00004385+000000              1400 JN15102IC            3 Z
133180002133180016-006518     133180006003000351749S/JAR GLS CHECK 350ML  0000001000+00001753+00000+0001T   00001753+000000              1400 JN13002IC            3 Z
133180003133180112-116038     133180006009681820246TCS CARRIER BAG MIDI   0000001000+00000035+00000+0001T   00000035+000000              1400 JN10902IC            3 Z
133180004133180077-000010-C   133180006001023123879CREPE-PAPER RED        0000001000+00000788+00000+0001T   00000788+000000              1400 JN11122IC            3 Z
133181000133181               133181               170213HU     1400+00000+HU0000007014+0000007014+000000000+000000983+0000007990+0000000007+I20000000000+0000007990+Z
133181001133181077-000011-C   133181006001023808523TISSUE 10xSHTS RED     0000001000+00000876+00000+0001T   00000876+0000001023          1400 JN1112               3BZ
133181002133181019-000070     133181006003000297474VASE GLS CLEAR BOTTLE  0000001000+00004385+00000+0001T   00004385+0000001023          1400 JN1510               3BZ
133181003133181016-006518     133181006003000351749S/JAR GLS CHECK 350ML  0000001000+00001753+00000+0001T   00001753+0000001023          1400 JN1300               3BZ
133182000133182               133182               170213HU     1400+00000+HU0000010508+0000010508+000000000+000001475+0000011980+0000000003+I20000000000+0000011980+Z
133182001133182006-000166-H   133182006003000608096BALLOONS HELIUM 6PC WHT0000001000+00001314+00000+0001T   00001314+0000001024          1400 JN1131               3BZ
133182002133182301-085000     133182006003000674299 ORN OCC. LOVE HEARTS  0000001000+00002192+00000+0001T   00002192+0000001024          1400 JN1505               3BZ
133182003133182006-001000     133182006003000093779HELIUM BALLOON FILL    0000010000+00000613+00000+0001T   00000613+0000001024          1400 JN1131               3BZ
133182004133182006-000170-K   133182006003000609284BALLOONS 1PC PURPLE    0000004000+00000218+00000+0001T   00000218+0000001024          1400 JN1131               3BZ
133183000133183               133183               170213HU     1400+00000+HU0000013188+0000013188+000000000+000001848+0000015036+0000000000+I40000015036+0000000000+Z
133183001133183039-000799     133183006001023692382CANDLES TEALITE 100PCE 0000001000+00008771+00000+0001T   00008771+0000001027          1400 JN1510               3BZ
133183002133183089-000030     133183006003000575671K/CHAIN LOVE MTL ASSTD 0000002000+00001753+00000+0001T   00001753+0000001027          1400 JN1205               3BZ
133183003133183089-000192-A   133183006001023901774KEY-CHAIN ACRYLIC      0000001000+00000876+00000+0001T   00000876+0000001027          1400 JN1205               3BZ
133183004133183112-116038     133183006009681820246TCS CARRIER BAG MIDI   0000001000+00000035+00000+0001T   00000035+0000001027          1400 JN1090               3BZ
133184000133184               133184               170213HU     1400+00000+HU0000019272+0000019272+000000000+000002711+0000021980+0000000003+I20000000000+0000021980+Z
133184001133184079-009702-G   133184008427973060787PAPER SIRIO A2 FUSHIA  0000005000+00001051+00000+0001T   00001051+0000001030          1400 JN1130               3BZ
133184002133184079-009702-D   133184008427973059354PAPER SIRIO A2 RED COL 0000005000+00001051+00000+0001T   00001051+0000001030          1400 JN1130               3BZ
133184003133184079-009702-B   133184008427973059491PAPER SIRIO A2 WHITE   0000005000+00001051+00000+0001T   00001051+0000001030          1400 JN1130               3BZ
133184004133184007-000324     13318400600968585864125 SHEETS BRIGHTS MARLI0000001000+00003507+00000+0001T   00003507+0000001030          1400 JN1130               3BZ
133185000133185               133185               170213HU     1400+00000+HU0000001753+0000001753+000000000+000000246+0000001990+0000000009+I20000000000+0000001990+Z
133185001133185071-000006     133185006001023732613PENCIL REFILLABLE 6PK  0000001000+00001753+00000+0001T   00001753+0000001041          1400 JN1130               3BZ
133186000133186               133186               170213HU     1400+00000+HU0000008450+0000008450+000000000+000001186+0000009630+0000000006+I20000000000+0000009630+Z
133186001133186039-000023     133186006003000286188C/TAPERED 25CM M/PURPLE0000001000+00001051+00000+0001T   00001051+0000001051          1400 JN1510               3BZ
133186002133186039-000024     133186006003000286300C/TAPERED 25CM M/WHITE 0000001000+00001051+00000+0001T   00001051+0000001051          1400 JN1510               3BZ
133186003133186039-000023     133186006003000286188C/TAPERED 25CM M/PURPLE0000001000+00001051+00000+0001T   00001051+0000001051          1400 JN1510               3BZ
133186004133186133-000046     133186006003000366446POT-HOLDER-SET 3PCE    0000001000+00005262+00000+0001T   00005262+0000001051          1400 JN1212               3BZ
133186005133186112-116038     133186006009681820246TCS CARRIER BAG MIDI   0000001000+00000035+00000+0001T   00000035+0000001051          1400 JN1090               3BZ
133187000133187               133187               170213HU     1400+00000+HU0000002192+0000002192+000000000+000000307+0000002490+0000000009+I20000000000+0000002490+Z
133187001133187200-000200     133187006008766091144BAKING ALUM FOIL 2PCE  0000001000+00002192+00000+0001T   00002192+0000001053          1400 JN1214               3BZ
133188000133188               133188               170213HU     1400+00000+HU0000002192+0000002192+000000000+000000307+0000002490+0000000009+I20000000000+0000002490+Z
133188001133188200-000200     133188006008766091144BAKING ALUM FOIL 2PCE  0000001000+00002192+00000+0001T   00002192+0000001057          1400 JN1214               3BZ
133189000133189               133189               170213HU     1400+00000+HU0000000613+0000000613+000000000+000000086+0000000690+0000000009+I20000000000+0000000690+Z
133189001133189304-001011     133189006001023806727FLWR ROSE RED W/BEAR   0000001000+00000613+00000+0001T   00000788+0006471059          1400 JN1510               3BZ
133190000133190               133190               170213HU     1400+00000+HU0000006172+0000006172+000000000+000000865+0000007030+0000000007+I20000000000+0000007030+Z
133190001133190263-000130     133190006003000305742MOTORBIKE B/BACK 11CM  0000001000+00002630+00000+0001T   00002630+0000001112          1400 JN1710               3BZ
133190002133190466-000073     133190006003000669127BALL SOCCER MESH 15.2cm0000001000+00003507+00000+0001T   00003507+0000001112          1400 JN1785               3BZ
133190003133190112-116038     133190006009681820246TCS CARRIER BAG MIDI   0000001000+00000035+00000+0001T   00000035+0000001112          1400 JN1090               3BZ
133191000133191               133191               170213HU     1400+00000+HU0000024591+0000024591+000000000+000003445+0000028036+0000000000+I40000028036+0000000000+Z
133191001133191004-071272     133191006001023855343DVD-DISC WRITABLE DR-100000004000+00006139+00000+0001T   00006139+0000001114          1400 JN1310               3BZ
133191002133191112-116038     133191006009681820246TCS CARRIER BAG MIDI   0000001000+00000035+00000+0001T   00000035+0000001114          1400 JN1090               3BZ
133192000133192               133192               170213HU     1400+00000+HU0000003506+0000003506+000000000+000000492+0000003990+0000000008+I20000000000+0000003990+Z
133192001133192077-000251     133192006003000639106GIFT-DECOR RIBBON      0000001000+00002630+00000+0001T   00002630+0000001115          1400 JN1112               3BZ
133192002133192077-000912     133192006003000411160G/WRAP 700mx1m LOVE    0000001000+00000876+00000+0001T   00000876+0000001115          1400 JN1112               3BZ
133193000133193               133193               170213HU     1400+00000+HU0000003507+0000003507+000000000+000000491+0000003990+0000000008+I20000000000+0000003990+Z
133193001133193079-012208     133193006001023801081ART + CRAFT SET STAMP  0000001000+00003507+00000+0001T   00003507+0000001117          1400 JN1130               3BZ
133194000133194               133194               170213HU     1400+00000+HU0000000876+0000000876+000000000+000000123+0000000990+0000000009+I20000000000+0000000990+Z
133194001133194078-000025     133194008887013700064SUPERGLUE 3g 1PCE CARD 0000001000+00000876+00000+0001T   00000876+0000001119          1400 JN18102IC            3BZ
133195000133195               133195               170213HU     1400+00000+HU0000003506+0000003506+000000000+000000492+0000003998+0000000000+I40000003998+0000000000+Z
133195001133195200-003026     133195006003000276448REFUSE BAGS 10PCE GREEN0000002000+00001753+00000+0001T   00001753+0000001123          1400 JN1214               3BZ
133196000133196               133196               170213HU     1400+00000+HU0000001436+0000001436+000000000+000000202+0000001630+0000000008+I20000000000+0000001630+Z
133196001133196304-001011     133196006001023806727FLWR ROSE RED W/BEAR   0000001000+00000613+00000+0001T   00000788+0006471125          1400 JN1510               3BZ
133196002133196077-000383     133196006003000247943GIFT-BAG 11X14CM S/COL 0000001000+00000788+00000+0001T   00000788+0000001125          1400 JN1112               3BZ
133196003133196112-116038     133196006009681820246TCS CARRIER BAG MIDI   0000001000+00000035+00000+0001T   00000035+0000001125          1400 JN1090               3BZ
133197000133197               133197               170213HU     1400+00000+HU0000005734+0000005734+000000000+000000803+0000006537+0000000000+I40000006537+0000000000+Z
133197001133197007-000324     13319700600968585864125 SHEETS BRIGHTS MARLI0000001000+00003507+00000+0001T   00003507+0000001137          1400 JN1130               3BZ
133197002133197301-085000     133197006003000674299 ORN OCC. LOVE HEARTS  0000001000+00002192+00000+0001T   00002192+0000001137          1400 JN1505               3BZ
133197003133197112-116038     133197006009681820246TCS CARRIER BAG MIDI   0000001000+00000035+00000+0001T   00000035+0000001137          1400 JN1090               3BZ
133198000133198               133198               170213HU     1400+00000+HU0000004384+0000004384+000000000+000000614+0000004990+0000000008+I20000000000+0000004990+Z
133198001133198077-000918     133198006003000413690G/WRAP 700mmx2m PATTERN0000002000+00002192+00000+0001T   00002192+0000001137          1400 JN1112               3BZ
133199000133199               133199               170213HU     1400+00000+HU0000004854+0000004854+000000000+000000682+0000005536+0000000000+I40000005536+0000000000+Z
133199001133199033-001305     133199006003000667314HAIR PINS 4PC SNAP CLIP0000002000+00000788+00000+0001T   00000788+0000001141          1400 JN1200               3BZ
133199002133199306-000021     133199006001023169433EARBUDS 100PCE IN BAG  0000001000+00000613+00000+0001T   00000613+0000001141          1400 JN1200               3BZ
133199003133199467-000038     133199006003000654864BEACH-SET PL TRUCK 5PC 0000001000+00002630+00000+0001T   00002630+0000001141          1400 JN1785               3BZ
133199004133199112-116038     133199006009681820246TCS CARRIER BAG MIDI   0000001000+00000035+00000+0001T   00000035+0000001141          1400 JN1090               3BZ
133200000133200               133200               170213HU     1400+00000+HU0000001489+0000001489+000000000+000000209+0000001690+0000000008+I20000000000+0000001690+Z
133200001133200077-000011-C   133200006001023808523TISSUE 10xSHTS RED     0000001000+00000876+00000+0001T   00000876+0000001143          1400 JN1112               3BZ
133200002133200077-000311     133200006001023608666GIFT-BAG 11X14CM GLOSS 0000001000+00000613+00000+0001T   00000613+0000001143          1400 JN1112               3BZ
133201000133201               133201               170213HU     1400+00000+HU0000003507+0000003507+000000000+000000491+0000003990+0000000008+I20000000000+0000003990+Z
133201001133201003-009405     133201006001023753298ORN PLANTER-EDGE-CATCHE0000001000+00003507+00000+0001T   00003507+0000001154          1400 JN1505               3BZ
133202000133202               133202               170213HU     1400+00000+HU0000003507+0000003507+000000000+000000491+0000003990+0000000008+I20000000000+0000003990+Z
133202001133202048-000830     133202006001023821010TORCH PENLIGHT+2AA  BOX0000001000+00003507+00000+0001T   00004385+0008191155          1400 JN1305               3BZ
133203000133203               133203               170213HU     1400+00000+HU0000008771+0000008771+000000000+000001228+0000009990+0000000009+I20000000000+0000009990+Z
133203001133203039-000799     133203006001023692382CANDLES TEALITE 100PCE 0000001000+00008771+00000+0001T   00008771+0000001156          1400 JN1510               3BZ
133204000133204               133204               170213HU     1400+00000+HU0000001753+0000001753+000000000+000000246+0000001990+0000000009+I20000000000+0000001990+Z
133204001133204159-000041     133204006001023767684HOOK-HANGER 2PCE S/S   0000001000+00001753+00000+0001T   00001753+0000001202          1400 JN1200               3BZ
133205000133205               133205               170213HU     1400+00000+HU0000010692+0000010692+000000000+000001500+0000012190+0000000002+I20000000000+0000012190+Z
133205001133205903-000200     133205006009826020234SWT CHOC RP CHOCO 23G  0000001000+00000788+00000+0001T   00000788+0000001206          1400 JN1150               3BZ
133205002133205903-000698     133205006002099007032SWT CANDY ECLAIRS 90g  0000001000+00001139+00000+0001T   00001139+0000001206          1400 JN1150               3BZ
133205003133205007-000029     133205006003000577736PRICE FLASH 17x11cm    0000001000+00001753+00000+0001T   00001753+0000001206          1400 JN1130               3BZ
133205004133205007-000214     133205006001023809322STICKERS ALPHA    SET-50000001000+00001314+00000+0001T   00001314+0000001206          1400 JN1130               3BZ
133205005133205079-013099     133205006003000081875ART+CRAFT EYES ASSTD   0000001000+00001753+00000+0001T   00001753+0000001206          1400 JN1130               3BZ
133205006133205071-000672     133205006003000138975STATIONERY CLIPS PAPER 0000001000+00002192+00000+0001T   00002192+0000001206          1400 JN1130               3BZ
133205007133205079-013032-B   133205006003000389445MIXED SHAPES           0000001000+00001753+00000+0001T   00001753+0000001206          1400 JN1130               3BZ
133206000133206               133206               170213HU     1400+00000+HU0000003152+0000003152+000000000+000000442+0000003590+0000000004+I20000000000+0000003590+Z
133206001133206903-000071     133206006001704001120SWT TOFFEE LIQURICE 35g0000001000+00000700+00000+0001T   00000700+0000001258          1400 JN1150               3BZ
133206002133206266-001499     133206006001023624925TOP & STRING 2 PACK    0000001000+00000700+00000+0001T   00000700+0000001258          1400 JN1710               3BZ
133206003133206903-000123     133206006925925909280SWEET GS MINI MALLOWS  0000002000+00000876+00000+0001T   00000876+0000001258          1400 JN1150               3BZ
133207000133207               133207               170213HU     1400+00000+HU0000009195+0000009195+000000000+000001289+0000010480+0000000004+I20000000000+0000010480+Z
133207001133207018-005009     133207006001023725608MUG W/PLUSH-BEAR LOVE  0000001000+00003507+00000+0001T   00003507+0000001315          1400 JN1515               3BZ
133207002133207903-000211     133207006002099001238SWT GS MALLOW ICE CREAM0000001000+00001753+00000+0001T   00001753+0000001315          1400 JN1150               3BZ
133207003133207903-000183     133207006003000451043SWT LB HEART LOLLY     0000001000+00000393+00000+0001T   00000393+0000001315          1400 JN1150               3BZ
133207004133207018-005009     133207006001023725608MUG W/PLUSH-BEAR LOVE  0000001000+00003507+00000+0001T   00003507+0000001315          1400 JN1515               3BZ
133207005133207112-116038     133207006009681820246TCS CARRIER BAG MIDI   0000001000+00000035+00000+0001T   00000035+0000001315          1400 JN1090               3BZ
133208000133208               133208               170213HU     1400+00000+HU0000001753+0000001753+000000000+000000246+0000001990+0000000009+I20000000000+0000001990+Z
133208001133208046-000014-A   133208004897006177708BATTERIES SIZE:AAA 8PCE0000001000+00001753+00000+0001T   00001753+0000001414          1400 JN1312               3BZ
133209000133209               133209               170213HU     1400+00000+HU0000000613+0000000613+000000000+000000086+0000000690+0000000009+I20000000000+0000000690+Z
133209001133209304-001011     133209006001023806727FLWR ROSE RED W/BEAR   0000001000+00000613+00000+0001T   00000788+0006471414          1400 JN1510               3BZ
133210000133210               133210               170213HU     1400+00000+HU0000070609+0000070609+000000000+000009898+0000080507+0000000000+I40000080507+0000000000+Z
133210001133210304-000717     133210006001023712578FLWRS STAR 51CM     (F)0000010000+00001490+00000+0001T   00001490+0000001421          1400 JN1510               3BZ
133210002133210304-000720     133210006001023843050F/BUNCH ROSE 6-HEAD AST0000007000+00002630+00000+0001T   00002630+0000001421          1400 JN1510               3BZ
133210003133210304-001115     133210006001023738240FLOWER-BUNCH CARNATIONS0000002000+00005262+00000+0001T   00005262+0000001421          1400 JN1510               3BZ
133210004133210304-001119     133210006001023804426FLOWER DAISY BUSH ASST 0000002000+00005262+00000+0001T   00005262+0000001421          1400 JN1510               3BZ
133210005133210304-001116     133210006003000426164F/BUNCH ROSES 12-HEAD  0000002000+00005262+00000+0001T   00005262+0000001421          1400 JN1510               3BZ
133210006133210304-001011     133210006001023806727FLWR ROSE RED W/BEAR   0000002000+00000613+00000+0001T   00000788+0006471421          1400 JN1510               3BZ
133210007133210304-001167     133210006001023846099FLOWER LOTUS FLOATING  0000002000+00002192+00000+0001T   00002192+0000001421          1400 JN1510               3BZ
133210008133210112-116053     133210006006438002399TCS CARRIER BAG 38L    0000001000+00000069+00000+0001T   00000069+0000001421          1400 JN1090               3BZ
133210009133210112-116069     133210006009681820277TCS CARRIER BAG JUMBO  0000001000+00000048+00000+0001T   00000048+0000001421          1400 JN1090               3BZ
133211000133211               133211               170213HU     1400+00000+HU0000001753+0000001753+000000000+000000246+0000001999+0000000000+I40000001999+0000000000+Z
133211001133211200-003026     133211006003000276448REFUSE BAGS 10PCE GREEN0000001000+00001753+00000+0001T   00001753+0000001428          1400 JN1214               3BZ
133212000133212               133212               170213HU     1400+00000+HU0000014732+0000014732+000000000+000002064+0000016796+0000000000+I40000016796+0000000000+Z
133212001133212368-000111     133212006001023780812PLUSH BEAR/DOG 29CM    0000001000+00012279+00000+0001T   00012279+0000001430          1400 JN1745               3BZ
133212002133212077-000309     133212006001023608604GIFT-BAG 25X32CM GLOSS 0000001000+00001753+00000+0001T   00001753+0000001430          1400 JN1112               3BZ
133212003133212018-000177     133212006001023797513MUG MINI LOVE ASSTD    0000001000+00000700+00000+0001T   00000700+0000001430          1400 JN1515               3BZ
133213000133213               133213               170213HU     1400+00000+HU0000003507+0000003507+000000000+000000491+0000003990+0000000008+I20000000000+0000003990+Z
133213001133213018-000136     133213006001023659026MUG OCC LOVE W/PLUSH   0000001000+00003507+00000+0001T   00003507+0000001438          1400 JN1515               3BZ
133214000133214               133214               170213HU     1400+00000+HU0000010521+0000010521+000000000+000001474+0000011995+0000000000+I10000007995+0000004000+Z
133214001133214077-000115-B   133214006003000181025GIFT-WRAP PPR 700MMX2M 0000001000+00002630+00000+0001T   00002630+0000001439          1400 JN1112               3BZ
133214002133214018-000136     133214006001023659026MUG OCC LOVE W/PLUSH   0000001000+00003507+00000+0001T   00003507+0000001439          1400 JN1515               3BZ
133214003133214077-000926     133214006003000414178G/WRAP 700mmx2m LOVE   0000002000+00002192+00000+0001T   00002192+0000001439          1400 JN1112               3BZ
133215000133215               133215               170213HU     1400+00000+HU0000001753+0000001753+000000000+000000246+0000001990+0000000009+I20000000000+0000001990+Z
133215001133215088-000108     133215006001023765536POTPOURRI-OIL 10ml ASST0000001000+00001753+00000+0001T   00001753+0000001446          1400 JN1212               3BZ
133216000133216               133216               170213HU     1400+00000+HU0000000788+0000000788+000000000+000000111+0000000890+0000000009+I20000000000+0000000890+Z
133216001133216903-000892     133216008693029700420SWT NOVELTY CHOCO CREAM0000001000+00000788+00000+0001T   00000788+0000001447          1400 JN1150               3BZ
133217000133217               133217               170213HU     1400+00000+HU0000003069+0000003069+000000000+000000430+0000003490+0000000009+I20000000000+0000003490+Z
133217001133217072-020298     133217006003000561629DOG-TOY TUG-ROPE ASSTD 0000001000+00003069+00000+0001T   00003069+0000001449          1400 JN1870               3BZ
133218000133218               133218               170213HU     1400+00000+HU0000005259+0000005259+000000000+000000738+0000005997+0000000000+I40000005997+0000000000+Z
133218001133218566-000028     133218006003000265541STICKER BK ASSTD 250PCE0000002000+00001753+00000+0001T   00001753+0000001457          1400 JN1130               3BZ
133218002133218566-000036     133218006003000384051STICKERS MOTIVATION    0000001000+00001753+00000+0001T   00001753+0000001457          1400 JN1130               3BZ
133219000133219               133219               170213HU     1400+00000+HU0000005699+0000005699+000000000+000000798+0000006490+0000000007+I20000000000+0000006490+Z
133219001133219006-000166-H   133219006003000608096BALLOONS HELIUM 6PC WHT0000001000+00001314+00000+0001T   00001314+0000001458          1400 JN1131               3BZ
133219002133219006-000190     133219006003000685530BALLOONS LOVE 81x91cm  0000001000+00004385+00000+0001T   00004385+0000001458          1400 JN1131               3BZ
133220000133220               133220               170213HU     1400+00000+HU0000004384+0000004384+000000000+000000614+0000004990+0000000008+I20000000000+0000004990+Z
133220001133220366-002695     133220006003000222766DRESS UP HAT ROUND GLIT0000002000+00002192+00000+0001T   00002192+0000001458          1400 JN1131               3BZ
133221000133221               133221               170213HU     1400+00000+HU0000001400+0000001400+000000000+000000196+0000001596+0000000000+I40000001596+0000000000+Z
133221001133221018-000177     133221006001023797513MUG MINI LOVE ASSTD    0000002000+00000700+00000+0001T   00000700+0000001501          1400 JN1515               3BZ
133222000133222               133222               170213HU     1400+00000+HU0000006139+0000006139+000000000+000000860+0000006990+0000000009+I20000000000+0000006990+Z
133222001133222007-000323     133222006009697791042PAPER A4 80GSM 100'S   0000001000+00006139+00000+0001T   00006139+0000001502          1400 JN1130               3BZ
133223000133223               133223               170213HU     1400+00000+HU0000001753+0000001753+000000000+000000246+0000001999+0000000000+I40000001999+0000000000+Z
133223001133223051-002402     133223006001023518347TRIGGER-SPRAYER  500ml 0000001000+00001753+00000+0001T   00001753+0000001512          1400 JN1820               3BZ
133224000133224               133224               170213HU     1400+00000+HU0000004420+0000004420+000000000+000000619+0000005030+0000000009+I20000000000+0000005030+Z
133224001133224368-000049     133224006003000536955PLUSH BEAR 15cm LOVE   0000001000+00004385+00000+0001T   00004385+0000001515          1400 JN17452IC            3BZ
133224002133224112-116038     133224006009681820246TCS CARRIER BAG MIDI   0000001000+00000035+00000+0001T   00000035+0000001515          1400 JN1090               3BZ
133225000133225               133225               170213HU     1400+00000+HU0000014067+0000014067+000000000+000001971+0000016038+0000000000+I40000016038+0000000000+Z
133225001133225368-000021     133225006003000672141PLUSH DINOSAUR 27cm    0000002000+00007016+00000+0001T   00007016+0000001519          1400 JN1745               3BZ
133225002133225112-116038     133225006009681820246TCS CARRIER BAG MIDI   0000001000+00000035+00000+0001T   00000035+0000001519          1400 JN1090               3BZ
133226000133226               133226               170213HU     1400+00000+HU0000014064+0000014064+000000000+000001970+0000016030+0000000004+I20000000000+0000016030+Z
133226001133226362-019381     133226006001023869579HAIR BAND SET 100PCE   0000001000+00002630+00000+0001T   00002630+0000001523          1400 JN1160               3BZ
133226002133226263-000506     133226006001023790231CAR SET 3PK CONSTRUCT  0000001000+00003507+00000+0001T   00003507+0000001523          1400 JN1710               3BZ
133226003133226030-000031-A   133226006003000457588PLAQUE W/WORDS ASSTD   0000001000+00004385+00000+0001T   00004823+0006471523          1400 JN1505               3BZ
133226004133226033-000652     133226006003000364282HAIR BRUSH 24cm ASSTD  0000001000+00003507+00000+0001T   00003507+0000001523          1400 JN1200               3BZ
133226005133226112-116038     133226006009681820246TCS CARRIER BAG MIDI   0000001000+00000035+00000+0001T   00000035+0000001523          1400 JN1090               3BZ
133227000133227               133227               170213HU     1400+00000+HU0000009643+0000009643+000000000+000001353+0000010996+0000000000+I40000010996+0000000000+Z
133227001133227200-000035     133227006001023768810FOOD-BOWL-COVERS 5PCE  0000003000+00002630+00000+0001T   00002630+0000001525          1400 JN1214               3BZ
133227002133227369-001137     133227006003000555062VINYL 5.7cm THEMED DUCK0000001000+00001753+00000+0001T   00001753+0000001525          1400 JN1745               3BZ
133228000133228               133228               170213HU     1400+00000+HU0000006049+0000006049+000000000+000000848+0000006890+0000000007+I20000000000+0000006890+Z
133228001133228368-000001     133228006003000097982Plush Bear 25cm        0000001000+00004385+00000+0001T   00004385+0000001526          1400 JN1745               3BZ
133228002133228031-005815     133228009320760100019P/FRAME-CLIP 10x15cm   0000001000+00001227+00000+0001T   00001227+0000001526          1400 JN1510               3BZ
133228003133228080-000133     133228006003000535613CARD&ENV MINI ASTD DSGN0000001000+00000437+00000+0001T   00000437+0000001526          1400 JN1112               3BZ
133229000133229               133229               170213HU     1400+00000+HU0000007277+0000007277+000000000+000001019+0000008296+0000000000+I40000008296+0000000000+Z
133229001133229301-085000     133229006003000674299 ORN OCC. LOVE HEARTS  0000001000+00002192+00000+0001T   00002192+0000001527          1400 JN1505               3BZ
133229002133229301-085004     133229006003000420469ORN LOVE PLAQUE 21X10CM0000001000+00003507+00000+0001T   00003946+0006471527          1400 JN1505               3BZ
133229003133229077-000315     133229006003000181186GIFT-BAG 20x28cm MATT  0000001000+00001578+00000+0001T   00001578+0000001527          1400 JN1112               3BZ
133230000133230               133230               170213HU     1400+00000+HU0000006137+0000006137+000000000+000000860+0000006990+0000000007+I20000000000+0000006990+Z
133230001133230079-008998     133230006003000339686ART+CRAFT  CANVAS      0000001000+00002630+00000+0001T   00002630+0000001528          1400 JN1130               3BZ
133230002133230079-000116     133230006001023907592ART PAINT-BY-NUMB 12PCE0000001000+00003507+00000+0001T   00003507+0000001528          1400 JN1130               3BZ
133231000133231               133231               170213HU     1400+00000+HU0000000035+0000000035+000000000+000000005+0000000040+0000000000+I20000000000+0000000040+Z
133231001133231112-116038     133231006009681820246TCS CARRIER BAG MIDI   0000001000+00000035+00000+0001T   00000035+0000001529          1400 JN1090               3BZ
133232000133232               133232               170213HU     1400+00000+HU0000004383+0000004383+000000000+000000614+0000004990+0000000007+I20000000000+0000004990+Z
133232001133232071-005213     133232006001023690371CELLOTAPE 12mmx33m     0000001000+00000876+00000+0001T   00000876+0000001530          1400 JN1130               3BZ
133232002133232031-000923     133232006001023669933P/FRAME BLK W/WORDS    0000001000+00003507+00000+0001T   00003507+0000001530          1400 JN1510               3BZ
133233000133233               133233               170213HU     1400+00000+HU0000002630+0000002630+000000000+000000369+0000002999+0000000000+I40000002999+0000000000+Z
133233001133233106-008100     133233006001023764126MEASURING-SHAKER 500ml 0000001000+00002630+00000+0001T   00002630+0000001531          1400 JN1210               3BZ
133234000133234               133234               170213HU     1400+00000+HU0000007927+0000007927+000000000+000001110+0000009030+0000000007+I20000000000+0000009030+Z
133234001133234133-000017     133234006003000525171CLEANING-CLOTHS 5PCE   0000001000+00003507+00000+0001T   00003507+0000001532          1400 JN1212               3BZ
133234002133234133-000004     133234006001926055918D/CLOTH MICROFIBRE 2PCK0000001000+00004385+00000+0001T   00004385+0000001532          1400 JN1212               3BZ
133234003133234112-116038     133234006009681820246TCS CARRIER BAG MIDI   0000001000+00000035+00000+0001T   00000035+0000001532          1400 JN1090               3BZ
133235000133235               133235               170213HU     1400+00000+HU0000001788+0000001788+000000000+000000251+0000002030+0000000009+I20000000000+0000002030+Z
133235001133235077-000309     133235006001023608604GIFT-BAG 25X32CM GLOSS 0000001000+00001753+00000+0001T   00001753+0000001532          1400 JN1112               3BZ
133235002133235112-116038     133235006009681820246TCS CARRIER BAG MIDI   0000001000+00000035+00000+0001T   00000035+0000001532          1400 JN1090               3BZ
133236000133236               133236               170213HU     1400+00000+HU0000005699+0000005699+000000000+000000798+0000006497+0000000000+I40000006497+0000000000+Z
133236001133236077-000310     133236006001023608635GIFT-BAG 18X23CM GLOSS 0000001000+00001314+00000+0001T   00001314+0000001534          1400 JN1112               3BZ
133236002133236018-030000     133236006003000421060MUG OCCASIONS LOVE 2PCE0000001000+00004385+00000+0001T   00004385+0000001534          1400 JN1515               3BZ
133237000133237               133237               170213HU     1400+00000+HU0000003069+0000003069+000000000+000000430+0000003490+0000000009+I20000000000+0000003490+Z
133237001133237024-000212     133237006001023858030COOKIE-CUTTERS PL SMALL0000001000+00003069+00000+0001T   00003069+0000001534          1400 JN1300               3BZ
133238000133238               133238               170213HU     1400+00000+HU0000006308+0000006308+000000000+000000884+0000007190+0000000002+I20000000000+0000007190+Z
133238001133238071-000873     133238006001023758743RUB-BANDS CLR BAG-100  0000001000+00001490+00000+0001T   00001490+0000001535          1400 JN1130               3BZ
133238002133238077-000150-D   133238006003000054343GIFT-WRAP CELLPHANE CLR0000001000+00000876+00000+0001T   00000876+0000001535          1400 JN1112               3BZ
133238003133238563-000317-B   133238006001023776174SERVIETTES PLN WHT PK400000003000+00001314+00000+0001T   00001314+0000001535          1400 JN1214               3BZ
133239000133239               133239               170213HU     1400+00000+HU0000007663+0000007663+000000000+000001074+0000008737+0000000000+I40000008737+0000000000+Z
133239001133239301-086006     133239006003000498918ORN OCCASION LOVE 4ASTD0000001000+00005262+00000+0001T   00005262+0000001537          1400 JN1505               3BZ
133239002133239077-000305     133239006003000395422GIFT-BAG WINE 10X35CM  0000001000+00001490+00000+0001T   00001490+0000001537          1400 JN1112               3BZ
133239003133239077-000011-L   133239006001023808585P/TISSUE BRIGHT 10SHEET0000001000+00000876+00000+0001T   00000876+0000001537          1400 JN1112               3BZ
133239004133239112-116038     133239006009681820246TCS CARRIER BAG MIDI   0000001000+00000035+00000+0001T   00000035+0000001537          1400 JN1090               3BZ
133240000133240               133240               170213HU     1400+00000+HU0000017923+0000017923+000000000+000002511+0000020434+0000000000+I40000020434+0000000000+Z
133240001133240112-116038     133240006009681820246TCS CARRIER BAG MIDI   0000001000+00000035+00000+0001T   00000035+0000001539          1400 JN1090               3BZ
133240002133240903-000211     133240006002099001238SWT GS MALLOW ICE CREAM0000001000+00001753+00000+0001T   00001753+0000001539          1400 JN1150               3BZ
133240003133240903-000111     133240006001704006378SWT LIQUORICE-TWISTS   0000001000+00001227+00000+0001T   00001227+0000001539          1400 JN1150               3BZ
133240004133240903-000220     133240006001704007368SWT JELLY BEANS 60G    0000001000+00000876+00000+0001T   00000876+0000001539          1400 JN1150               3BZ
133240005133240016-006498-B   133240006001023774767S/JAR GLS/MTL POLKA-DOT0000001000+00003507+00000+0001T   00003507+0000001539          1400 JN1300               3BZ
133240006133240486-001014     133240006001023847386WALL-CLOCK PL 30CM     0000001000+00010525+00000+0001T   00010525+0000001539          1400 JN1510               3BZ
133241000133241               133241               170213HU     1400+00000+HU0000010525+0000010525+000000000+000001474+0000011999+0000000000+I40000011999+0000000000+Z
133241001133241266-000513     133241006001023865151PLAYSET TRANSFORMER    0000001000+00010525+00000+0001T   00010525+0000001540          1400 JN1710               3BZ
133242000133242               133242               170213HU     1400+00000+HU0000003682+0000003682+000000000+000000516+0000004190+0000000008+I20000000000+0000004190+Z
133242001133242051-002401     133242006001023523570TRIGGER-SPRAYER   300ml0000001000+00001490+00000+0001T   00001490+0000001543          1400 JN1820               3BZ
133242002133242051-002400     133242006001023616180TRIGGER-SPRAYER 900ml  0000001000+00002192+00000+0001T   00002192+0000001543          1400 JN1820               3BZ
133243000133243               133243               170213HU     1400+00000+HU0000006137+0000006137+000000000+000000860+0000006990+0000000007+I20000000000+0000006990+Z
133243001133243077-000475     133243006003000640775GIFT-BAG DESIGNER MED  0000001000+00002630+00000+0001T   00002630+0000001544          1400 JN1112               3BZ
133243002133243018-005009     133243006001023725608MUG W/PLUSH-BEAR LOVE  0000001000+00003507+00000+0001T   00003507+0000001544          1400 JN1515               3BZ
133244000133244               133244               170213HU     1400+00000+HU0000005262+0000005262+000000000+000000737+0000005990+0000000009+I20000000000+0000005990+Z
133244001133244301-086006     133244006003000498918ORN OCCASION LOVE 4ASTD0000001000+00005262+00000+0001T   00005262+0000001544          1400 JN1505               3BZ
133245000133245               133245               170213HU     1400+00000+HU0000000700+0000000700+000000000+000000098+0000000790+0000000008+I20000000000+0000000790+Z
133245001133245564-000012     133245006001023130075BUBBLE BOTTLE MAGIC    0000001000+00000700+00000+0001T   00000700+0000001545          1400 JN1131               3BZ
133246000133246               133246               170213HU     1400+00000+HU0000003855+0000003855+000000000+000000541+0000004390+0000000006+I20000000000+0000004390+Z
133246001133246077-000151     133246006008766114676GIFT-WRAP C/PHANE ASSTD0000002000+00000876+00000+0001T   00000876+0000001546          1400 JN1112               3BZ
133246002133246077-000011-C   133246006001023808523TISSUE 10xSHTS RED     0000001000+00000876+00000+0001T   00000876+0000001546          1400 JN1112               3BZ
133246003133246077-000245     133246006001023759214GIFT-RIBBON METALLICx2 0000001000+00001227+00000+0001T   00001227+0000001546          1400 JN1112               3BZ
133247000133247               133247               170213HU     1400+00000+HU0000000035+0000000035+000000000+000000005+0000000040+0000000000+I20000000000+0000000040+Z
133247001133247112-116038     133247006009681820246TCS CARRIER BAG MIDI   0000001000+00000035+00000+0001T   00000035+0000001547          1400 JN1090               3BZ
133248000133248               133248               170213HU     1400+00000+HU0000001753+0000001753+000000000+000000246+0000001999+0000000000+I40000001999+0000000000+Z
133248001133248006-000093     133248006003000539932PARTY BANNER FLAGS ASST0000001000+00001753+00000+0001T   00001753+0000001549          1400 JN1131               3BZ
133249000133249               133249               170213HU     1400+00000+HU0000007050+0000007050+000000000+000000988+0000008038+0000000000+I40000008038+0000000000+Z
133249001133249301-085002     133249006003000420704ORN OCC. LOVE BELL ASST0000001000+00001753+00000+0001T   00002630+0008121550          1400 JN1505               3BZ
133249002133249018-019000     133249006003000557288MUG OCC. LOVE JUMBO    0000001000+00005262+00000+0001T   00005262+0000001550          1400 JN1515               3BZ
133249003133249112-116038     133249006009681820246TCS CARRIER BAG MIDI   0000001000+00000035+00000+0001T   00000035+0000001550          1400 JN1090               3BZ
133250000133250               133250               170213HU     1400+00000+HU0000004120+0000004120+000000000+000000577+0000004690+0000000007+I20000000000+0000004690+Z
133250001133250018-000136     133250006001023659026MUG OCC LOVE W/PLUSH   0000001000+00003507+00000+0001T   00003507+0000001551          1400 JN1515               3BZ
133250002133250304-001011     133250006001023806727FLWR ROSE RED W/BEAR   0000001000+00000613+00000+0001T   00000788+0006471551          1400 JN1510               3BZ
133251000133251               133251               170213HU     1400+00000+HU0000003324+0000003324+000000000+000000468+0000003790+0000000002+I20000000000+0000003790+Z
133251001133251006-001000     133251006003000093779HELIUM BALLOON FILL    0000004000+00000613+00000+0001T   00000613+0000001552          1400 JN1131               3BZ
133251002133251006-000171-H   133251006003000609574BALLOONS 1PC RED PRINT 0000004000+00000218+00000+0001T   00000218+0000001552          1400 JN1131               3BZ
133252000133252               133252               170213HU     1400+00000+HU0000000613+0000000613+000000000+000000086+0000000690+0000000009+I20000000000+0000000690+Z
133252001133252304-001011     133252006001023806727FLWR ROSE RED W/BEAR   0000001000+00000613+00000+0001T   00000788+0006471552          1400 JN1510               3BZ
133253000133253               133253               170213HU     1400+00000+HU0000007660+0000007660+000000000+000001074+0000008734+0000000000+I40000008734+0000000000+Z
133253001133253903-003080     133253005907029004673SWT SNACK STIX CHOC 50g0000001000+00000876+00000+0001T   00000876+0000001554          1400 JN1150               3BZ
133253002133253301-000015     133253006001023479907ORN SENTIMENT STONE    0000001000+00004385+00000+0001T   00004385+0000001554          1400 JN1505               3BZ
133253003133253304-001011     133253006001023806727FLWR ROSE RED W/BEAR   0000001000+00000613+00000+0001T   00000788+0006471554          1400 JN1510               3BZ
133253004133253030-000010     133253006003000084395P/DOOR HANGER 2-ASSTD  0000001000+00001314+00000+0001T   00001490+0008181554          1400 JN1505               3BZ
133253005133253080-000133-A   133253006003000647019MINI VALENTINES CARD   0000001000+00000437+00000+0001T   00000437+0000001554          1400 JN1112               3BZ
133253006133253112-116038     133253006009681820246TCS CARRIER BAG MIDI   0000001000+00000035+00000+0001T   00000035+0000001554          1400 JN1090               3BZ
133254000133254               133254               170213HU     1400+00000+HU0000004385+0000004385+000000000+000000614+0000004990+0000000009+I20000000000+0000004990+Z
133254001133254071-010483     133254006001023912695MAGNIFY-GLASS F/FULL PG0000001000+00004385+00000+0001T   00004385+0000001555          1400 JN1130               3BZ
133255000133255               133255               170213HU     1400+00000+HU0000005611+0000005611+000000000+000000786+0000006390+0000000007+I20000000000+0000006390+Z
133255001133255006-000190     133255006003000685530BALLOONS LOVE 81x91cm  0000001000+00004385+00000+0001T   00004385+0000001556          1400 JN1131               3BZ
133255002133255006-001000     133255006003000093779HELIUM BALLOON FILL    0000002000+00000613+00000+0001T   00000613+0000001556          1400 JN1131               3BZ
133256000133256               133256               170213HU     1400+00000+HU0000026172+0000026172+000000000+000003670+0000029840+0000000002+I20000000000+0000029840+Z
133256001133256112-116069     133256006009681820277TCS CARRIER BAG JUMBO  0000001000+00000048+00000+0001T   00000048+0000001558          1400 JN1090               3BZ
133256002133256306-000021-C   133256006003000567294EARBUDS 300PCE IN TUB  0000002000+00001753+00000+0001T   00001753+0000001558          1400 JN1200               3BZ
133256003133256079-013052     133256000795229385143CHALK S/WALK 15PCS ASST0000001000+00004385+00000+0001T   00004385+0000001558          1400 JN1130               3BZ
133256004133256079-013102     133256006003000019601ART+CRAFT DIY PIPE-CLNR0000002000+00002192+00000+0001T   00002192+0000001558          1400 JN1130               3BZ
133256005133256007-000041     133256006003000120598INK & INK PAD          0000001000+00002630+00000+0001T   00002630+0000001558          1400 JN1130               3BZ
133256006133256079-013099     133256006003000081875ART+CRAFT EYES ASSTD   0000001000+00001753+00000+0001T   00001753+0000001558          1400 JN1130               3BZ
133256007133256077-000245     133256006001023759214GIFT-RIBBON METALLICx2 0000001000+00001227+00000+0001T   00001227+0000001558          1400 JN1112               3BZ
133256008133256077-000005-D   133256006003000414567PAPER TISSUE 50x70cm   0000001000+00001753+00000+0001T   00001753+0000001558          1400 JN1112               3BZ
133256009133256077-000011-D   133256006001023808554TISSUE-WRAP WHITE 10PCE0000001000+00000876+00000+0001T   00000876+0000001558          1400 JN1112               3BZ
133256010133256077-000245     133256006001023759214GIFT-RIBBON METALLICx2 0000001000+00001227+00000+0001T   00001227+0000001558          1400 JN1112               3BZ
133256011133256464-000110     133256006001023868824PLAYING-CARDS JUMBO    0000001000+00002630+00000+0001T   00002630+0000001558          1400 JN1785               3BZ
133256012133256077-000005-D   133256006003000414567PAPER TISSUE 50x70cm   0000001000+00001753+00000+0001T   00001753+0000001558          1400 JN1112               3BZ
133257000133257               133257               170213HU     1400+00000+HU0000002498+0000002498+000000000+000000350+0000002840+0000000008+I20000000000+0000002840+Z
133257001133257071-000672     133257006003000138975STATIONERY CLIPS PAPER 0000001000+00002192+00000+0001T   00002192+0000001559          1400 JN1130               3BZ
133257002133257079-009700-D   133257006003000545711PAPER SIRIO A4 RED COL.0000001000+00000306+00000+0001T   00000306+0000001559          1400 JN1130               3BZ
133258000133258               133258               170213HU     1400+00000+HU0000053931+0000053931+000000000+000007560+0000061491+0000000000+I40000061491+0000000000+Z
133258001133258112-116069     133258006009681820277TCS CARRIER BAG JUMBO  0000001000+00000048+00000+0001T   00000048+0000001602          1400 JN1090               3BZ
133258002133258027-009025     133258006003962000747DUSTPAN-SET PL         0000001000+00002630+00000+0001T   00002630+0000001602          1400 JN1212               3BZ
133258003133258024-000092     133258006003000426805MEASURING-SET 6PC      0000001000+00003946+00000+0001T   00003946+0000001602          1400 JN1300               3BZ
133258004133258903-000672     133258006009803358060SWT SHERBET W/STRAW    0000001000+00000174+00000+0001T   00000174+0000001602          1400 JN1150               3BZ
133258005133258133-000083     133258006003000450510DISH DRAINING MAT      0000001000+00005262+00000+0001T   00005262+0000001602          1400 JN1212               3BZ
133258006133258027-000092     133258006003000365739BLIND CLEANER MICROFIBR0000001000+00002630+00000+0001T   00002630+0000001602          1400 JN1212               3BZ
133258007133258903-000674     133258006009803358220SWT SHERBET W/LOLLY 4PK0000001000+00001314+00000+0001T   00001314+0000001602          1400 JN1150               3BZ
133258008133258903-000843     133258008693029031067SWT GUMMY JELAXY 80G   0000002000+00000964+00000+0001T   00000964+0000001602          1400 JN1150               3BZ
133258009133258019-071600     133258006001023771971RIVER-STONES 1kg MIXED 0000001000+00002630+00000+0001T   00002630+0000001602          1400 JN1510               3BZ
133258010133258150-004032-H   133258006003000645367BASIN-PLUG 2PCE BLACK  0000001000+00000876+00000+0001T   00000876+0000001602          1400 JN1810               3BZ
133258011133258077-000357     133258006003000139354GIFT-BAG 18X23CM B/DAY 0000001000+00001753+00000+0001T   00001753+0000001602          1400 JN1112               3BZ
133258012133258306-000001     133258006003000450152NAIL BRUSH SET 7/9/14cm0000001000+00002630+00000+0001T   00002630+0000001602          1400 JN1200               3BZ
133258013133258003-000250     133258006003000035045ORN DECOR NOVELTY GRASS0000002000+00001753+00000+0001T   00001753+0000001602          1400 JN1505               3BZ
133258014133258077-000299-A   133258006003000670888GIFT-BAG PAPER JMB LOVE0000003000+00001753+00000+0001T   00001753+0000001602          1400 JN1112               3BZ
133258015133258495-056822     133258000078257568222INTEX MEGA CHILL 89cm  0000001000+00019297+00000+0001T   00019297+0000001602          1400 JN1787               3BZ
133258016133258112-116069     133258006009681820277TCS CARRIER BAG JUMBO  0000001000+00000048+00000+0001T   00000048+0000001602          1400 JN1090               3BZ
133259000133259               133259               170213HU     1400+00000+HU0000015377+0000015377+000000000+000002157+0000000000+0000000000+ 00000000000+0000000000+Z
133259001133259304-000720     133259006001023843050F/BUNCH ROSE 6-HEAD AST0000005000+00002630+00000+0001T   00002630+000000              1400 JN15102IC            3 Z
133259002133259566-000359     133259006003000582709STICKER BOOK LOVE SPARK0000001000+00002192+00000+0001T   00002192+000000              1400 JN11302IC            3 Z
133259003133259112-116038     133259006009681820246TCS CARRIER BAG MIDI   0000001000+00000035+00000+0001T   00000035+000000              1400 JN10902IC            3 Z
133260000133260               133260               170213HU     1400+00000+HU0000012278+0000012278+000000000+000001720+0000013998+0000000000+I40000013998+0000000000+Z
133260001133260366-000105     133260006001023866103DRESSUP WINGS AND SKIRT0000001000+00007016+00000+0001T   00007016+0000001619          1400 JN1131               3BZ
133260002133260366-002195     133260006001023990549DRESS UP WINGS FEATHER 0000001000+00005262+00000+0001T   00005262+0000001619          1400 JN1131               3BZ
133261000133261               133261               170213HU     1400+00000+HU0000003069+0000003069+000000000+000000430+0000003490+0000000009+I20000000000+0000003490+Z
133261001133261024-000212     133261006001023858030COOKIE-CUTTERS PL SMALL0000001000+00003069+00000+0001T   00003069+0000001620          1400 JN1300               3BZ
133262000133262               133262               170213HU     1400+00000+HU0000010518+0000010518+000000000+000001473+0000011990+0000000001+I20000000000+0000011990+Z
133262001133262018-000136     133262006001023659026MUG OCC LOVE W/PLUSH   0000002000+00003507+00000+0001T   00003507+0000001625          1400 JN1515               3BZ
133262002133262018-000177     133262006001023797513MUG MINI LOVE ASSTD    0000001000+00000700+00000+0001T   00000700+0000001625          1400 JN1515               3BZ
133262003133262077-000384     133262006003000275243G/BAG HOT STMP 18x23CM 0000001000+00001490+00000+0001T   00001490+0000001625          1400 JN1112               3BZ
133262004133262077-000310     133262006001023608635GIFT-BAG 18X23CM GLOSS 0000001000+00001314+00000+0001T   00001314+0000001625          1400 JN1112               3BZ
133263000133263               133263               170213HU     1400+00000+HU0000009207+0000009207+000000000+000001290+0000010490+0000000007+I20000000000+0000010490+Z
133263001133263301-085007     133263006003000673698ORN OCC. LOVE S/PLAQUE 0000001000+00007893+00000+0001T   00007893+0000001625          1400 JN1505               3BZ
133263002133263006-000166-H   133263006003000608096BALLOONS HELIUM 6PC WHT0000001000+00001314+00000+0001T   00001314+0000001625          1400 JN1131               3BZ
133264000133264               133264               170213HU     1400+00000+HU0000001753+0000001753+000000000+000000246+0000001990+0000000009+I20000000000+0000001990+Z
133264001133264002-000883     133264006001023770394CAN-OPENER             0000001000+00001753+00000+0001T   00001753+0000001626          1400 JN1300               3BZ
133265000133265               133265               170213HU     1400+00000+HU0000000700+0000000700+000000000+000000098+0000000790+0000000008+I20000000000+0000000790+Z
133265001133265018-000177     133265006001023797513MUG MINI LOVE ASSTD    0000001000+00000700+00000+0001T   00000700+0000001627          1400 JN1515               3BZ
133266000133266               133266               170213HU     1400+00000+HU0000006522+0000006522+000000000+000000915+0000007430+0000000007+I20000000000+0000007430+Z
133266001133266304-000720     133266006001023843050F/BUNCH ROSE 6-HEAD AST0000002000+00002630+00000+0001T   00002630+0000001628          1400 JN1510               3BZ
133266002133266077-000245     133266006001023759214GIFT-RIBBON METALLICx2 0000001000+00001227+00000+0001T   00001227+0000001628          1400 JN1112               3BZ
133266003133266112-116038     133266006009681820246TCS CARRIER BAG MIDI   0000001000+00000035+00000+0001T   00000035+0000001628          1400 JN1090               3BZ
133267000133267               133267               170213HU     1400+00000+HU0000006139+0000006139+000000000+000000860+0000006990+0000000009+I20000000000+0000006990+Z
133267001133267365-000071     133267006001023542366PLAY-SET CD PLAYER B/O 0000001000+00006139+00000+0001T   00006139+0000001629          1400 JN1725               3BZ
133268000133268               133268               170213HU     1400+00000+HU0000004908+0000004908+000000000+000000689+0000005597+0000000000+I40000005597+0000000000+Z
133268001133268304-001204     133268006001023737984FLOWER OCC. TEDDY/ROSES0000001000+00001402+00000+0001T   00001490+0006471631          1400 JN1510               3BZ
133268002133268089-000030     133268006003000575671K/CHAIN LOVE MTL ASSTD 0000001000+00001753+00000+0001T   00001753+0000001631          1400 JN1205               3BZ
133268003133268903-000624     133268006003000671793SWEET LOLLY BLU/BRRY   0000001000+00001753+00000+0001T   00001753+0000001631          1400 JN1150               3BZ
133269000133269               133269               170213HU     1400+00000+HU0000001663+0000001663+000000000+000000234+0000001890+0000000007+I20000000000+0000001890+Z
133269001133269079-009702-D   133269008427973059354PAPER SIRIO A2 RED COL 0000001000+00001051+00000+0001T   00001051+0000001633          1400 JN1130               3BZ
133269002133269079-009700-M   133269006003000634101PAPER SIRIO A4 PINK COL0000001000+00000306+00000+0001T   00000306+0000001633          1400 JN1130               3BZ
133269003133269079-009700-B   133269006003000547661PAPER SIRIO A4 WHITE   0000001000+00000306+00000+0001T   00000306+0000001633          1400 JN1130               3BZ
133270000133270               133270               170213HU     1400+00000+HU0000006138+0000006138+000000000+000000860+0000006998+0000000000+I40000006998+0000000000+Z
133270001133270082-000110     133270006003000360482READING GLS STRENGHT:2 0000001000+00004385+00000+0001T   00004385+0000001635          1400 JN1160               3BZ
133270002133270084-078824     133270006003000385676NAIL FILES EMERY 24PC  0000001000+00001753+00000+0001T   00001753+0000001635          1400 JN1200               3BZ
133271000133271               133271               170213HU     1400+00000+HU0000001752+0000001752+000000000+000000246+0000001990+0000000008+I20000000000+0000001990+Z
133271001133271077-000151     133271006008766114676GIFT-WRAP C/PHANE ASSTD0000002000+00000876+00000+0001T   00000876+0000001636          1400 JN1112               3BZ
133272000133272               133272               170213HU     1400+00000+HU0000007893+0000007893+000000000+000001106+0000008999+0000000000+I40000008999+0000000000+Z
133272001133272301-085007     133272006003000673698ORN OCC. LOVE S/PLAQUE 0000001000+00007893+00000+0001T   00007893+0000001640          1400 JN1505               3BZ
133273000133273               133273               170213HU     1400+00000+HU0000012394+0000012394+000000000+000001739+0000014130+0000000003+I20000000000+0000014130+Z
133273001133273903-000087     133273006001704000161SWT SPECKLED-EGGS 50G  0000001000+00001139+00000+0001T   00001139+0000001642          1400 JN1150               3BZ
133273002133273903-000499     133273006001704012492SWT CHOC MALLOWS 50g   0000001000+00001227+00000+0001T   00001227+0000001642          1400 JN1150               3BZ
133273003133273903-000504     133273006001704012416SWT CHOC JELLY BEANS   0000001000+00001227+00000+0001T   00001227+0000001642          1400 JN1150               3BZ
133273004133273018-000129     133273006001023403353MUG OCC. LOVE V-SHAPE  0000001000+00002630+00000+0001T   00002630+0000001642          1400 JN1515               3BZ
133273005133273041-000300     133273006003000421862EVERYDAY BATH SET 3pc  0000001000+00005262+00000+0001T   00005262+0000001642          1400 JN1200               3BZ
133273006133273112-116038     133273006009681820246TCS CARRIER BAG MIDI   0000001000+00000035+00000+0001T   00000035+0000001642          1400 JN1090               3BZ
133273007133273080-000133-A   133273006003000647019MINI VALENTINES CARD   0000002000+00000437+00000+0001T   00000437+0000001642          1400 JN1112               3BZ
133274000133274               133274               170213HU     1400+00000+HU0000012102+0000012102+000000000+000001695+0000013797+0000000000+I40000013797+0000000000+Z
133274001133274077-000299-A   133274006003000670888GIFT-BAG PAPER JMB LOVE0000001000+00001753+00000+0001T   00001753+0000001644          1400 JN1112               3BZ
133274002133274368-000614     133274006001023705808PLUSH LOVE 30cm        0000001000+00008771+00000+0001T   00008771+0000001644          1400 JN1745               3BZ
133274003133274018-000127     133274006001023380289MUG OCC STRAIGHT LOVE  0000001000+00001578+00000+0001T   00001753+0006471644          1400 JN1515               3BZ
133275000133275               133275               170213HU     1400+00000+HU0000009119+0000009119+000000000+000001277+0000010390+0000000006+I20000000000+0000010390+Z
133275001133275567-011314     133275009781472399311BOOK ACTIVITY FROZEN   0000001000+00004385+00000+0001T   00004385+0000001647          1400 JN1757               3BZ
133275002133275077-000318     133275006001023609755GIFT-BAG 18X23CM E/D AN0000001000+00001227+00000+0001T   00001227+0000001647          1400 JN1112               3BZ
133275003133275018-000136     133275006001023659026MUG OCC LOVE W/PLUSH   0000001000+00003507+00000+0001T   00003507+0000001647          1400 JN1515               3BZ
133276000133276               133276               170213HU     1400+00000+HU0000001490+0000001490+000000000+000000209+0000001690+0000000009+I20000000000+0000001690+Z
133276001133276032-000309     133276006001023477804MIRROR STANDING PL SML 0000001000+00001490+00000+0001T   00001490+0000001647          1400 JN1510               3BZ
133277000133277               133277               170213HU     1400+00000+HU0000004417+0000004417+000000000+000000620+0000005030+0000000007+I20000000000+0000005030+Z
133277001133277105-001055     133277006003000219384LUNCH BOX 3-DIVISION   0000002000+00001753+00000+0001T   00002630+0008161649          1400 JN1210               3BZ
133277002133277105-001010     133277006002580007329LUNCH-BOX 1L  ASSTD    0000001000+00000876+00000+0001T   00000876+0000001649          1400 JN1210               3BZ
133277003133277112-116038     133277006009681820246TCS CARRIER BAG MIDI   0000001000+00000035+00000+0001T   00000035+0000001649          1400 JN1090               3BZ
133278000133278               133278               170213HU     1400+00000+HU0000003892+0000003892+000000000+000000546+0000004438+0000000000+I40000004438+0000000000+Z
133278001133278089-060027     133278006003000245871KEY-CHAIN HEART 6X6cm  0000001000+00003069+00000+0001T   00003069+0000001650          1400 JN1205               3BZ
133278002133278077-000383     133278006003000247943GIFT-BAG 11X14CM S/COL 0000001000+00000788+00000+0001T   00000788+0000001650          1400 JN1112               3BZ
133278003133278112-116038     133278006009681820246TCS CARRIER BAG MIDI   0000001000+00000035+00000+0001T   00000035+0000001650          1400 JN1090               3BZ
133279000133279               133279               170213HU     1400+00000+HU0000009683+0000009683+000000000+000001356+0000011039+0000000000+I40000011039+0000000000+Z
133279001133279030-004015     133279006003000467624PLAQUE WDN SIGN 30X20CM0000001000+00009648+00000+0001T   00009648+0000001652          1400 JN1505               3BZ
133279002133279112-116038     133279006009681820246TCS CARRIER BAG MIDI   0000001000+00000035+00000+0001T   00000035+0000001652          1400 JN1090               3BZ
133280000133280               133280               170213HU     1400+00000+HU0000030699+0000030699+000000000+000004298+0000034997+0000000000+I40000034997+0000000000+Z
133280001133280365-003060     133280006001023831255CASH-REGISTER B/O PL   0000001000+00017542+00000+0001T   00017542+0000001654          1400 JN1725               3BZ
133280002133280263-000514     133280006003000391080TRUCK FRICTION 52CM    0000001000+00013157+00000+0001T   00013157+0000001654          1400 JN1710               3BZ
133281000133281               133281               170213HU     1400+00000+HU0000006139+0000006139+000000000+000000860+0000006999+0000000000+I40000006999+0000000000+Z
133281001133281267-000904     133281006003000636099PUZZLE WOOD JIGSAW     0000001000+00006139+00000+0001T   00006139+0000001656          1400 JN1755               3BZ
133282000133282               133282               170213HU     1400+00000+HU0000014516+0000014516+000000000+000002034+0000016550+0000000000+I40000016550+0000000000+Z
133282001133282018-000129     133282006001023403353MUG OCC. LOVE V-SHAPE  0000001000+00002630+00000+0001T   00002630+0000001658          1400 JN1515               3BZ
133282002133282077-000299-A   133282006003000670888GIFT-BAG PAPER JMB LOVE0000001000+00001753+00000+0001T   00001753+0000001658          1400 JN1112               3BZ
133282003133282031-000924     133282006001023669964P/FRAME COLLAGE PL     0000001000+00008771+00000+0001T   00008771+0000001658          1400 JN1510               3BZ
133282004133282077-000310     133282006001023608635GIFT-BAG 18X23CM GLOSS 0000001000+00001314+00000+0001T   00001314+0000001658          1400 JN1112               3BZ
133282005133282112-116069     133282006009681820277TCS CARRIER BAG JUMBO  0000001000+00000048+00000+0001T   00000048+0000001658          1400 JN1090               3BZ
133283000133283               133283               170213HU     1400+00000+HU0000002628+0000002628+000000000+000000369+0000002990+0000000007+I20000000000+0000002990+Z
133283001133283077-000151     133283006008766114676GIFT-WRAP C/PHANE ASSTD0000003000+00000876+00000+0001T   00000876+0000001702          1400 JN1112               3BZ
133284000133284               133284               170213HU     1400+00000+HU0000009854+0000009854+000000000+000001381+0000011235+0000000000+I40000011235+0000000000+Z
133284001133284018-005009     133284006001023725608MUG W/PLUSH-BEAR LOVE  0000001000+00003507+00000+0001T   00003507+0000001705          1400 JN1515               3BZ
133284002133284112-116038     133284006009681820246TCS CARRIER BAG MIDI   0000001000+00000035+00000+0001T   00000035+0000001705          1400 JN1090               3BZ
133284003133284903-000090     133284006009826020821SWT GS CHOCO COINS 60g 0000003000+00002104+00000+0001T   00002104+0000001705          1400 JN1150               3BZ
133285000133285               133285               170213HU     1400+00000+HU0000001753+0000001753+000000000+000000246+0000001990+0000000009+I20000000000+0000001990+Z
133285001133285077-000357     133285006003000139354GIFT-BAG 18X23CM B/DAY 0000001000+00001753+00000+0001T   00001753+0000001705          1400 JN1112               3BZ
133286000133286               133286               170213HU     1400+00000+HU0000015605+0000015605+000000000+000002186+0000017791+0000000000+I40000017791+0000000000+Z
133286001133286077-000270     133286006003000395453GIFT-BAG PPR JMB 33X45 0000001000+00002630+00000+0001T   00002630+0000001708          1400 JN1112               3BZ
133286002133286080-000127     133286006003000424351VALENTINES DAY 36x24CM 0000001000+00002192+00000+0001T   00002192+0000001708          1400 JN1112               3BZ
133286003133286301-085004     133286006003000420469ORN LOVE PLAQUE 21X10CM0000001000+00003507+00000+0001T   00003946+0006471708          1400 JN1505               3BZ
133286004133286018-000177     133286006001023797513MUG MINI LOVE ASSTD    0000001000+00000700+00000+0001T   00000700+0000001708          1400 JN15152IC            3BZ
133286005133286089-060027     133286006003000245871KEY-CHAIN HEART 6X6cm  0000001000+00003069+00000+0001T   00003069+0000001708          1400 JN1205               3BZ
133286006133286018-005009     133286006001023725608MUG W/PLUSH-BEAR LOVE  0000001000+00003507+00000+0001T   00003507+0000001708          1400 JN1515               3BZ
133287000133287               133287               170213HU     1400+00000+HU0000002804+0000002804+000000000+000000393+0000003190+0000000007+I20000000000+0000003190+Z
133287001133287030-000010     133287006003000084395P/DOOR HANGER 2-ASSTD  0000001000+00001314+00000+0001T   00001490+0008181709          1400 JN1505               3BZ
133287002133287077-000384     133287006003000275243G/BAG HOT STMP 18x23CM 0000001000+00001490+00000+0001T   00001490+0000001709          1400 JN1112               3BZ
133288000133288               133288               170213HU     1400+00000+HU0000000437+0000000437+000000000+000000062+0000000490+0000000009+I20000000000+0000000490+Z
133288001133288080-000133-A   133288006003000647019MINI VALENTINES CARD   0000001000+00000437+00000+0001T   00000437+0000001709          1400 JN1112               3BZ
133289000133289               133289               170213HU     1400+00000+HU0000017743+0000017743+000000000+000002487+0000020230+0000000000+I20000000000+0000020230+Z
133289001133289566-000359     133289006003000582709STICKER BOOK LOVE SPARK0000002000+00002192+00000+0001T   00002192+0000001711          1400 JN1130               3BZ
133289002133289566-000535     133289006003000284719STICKER SPARKLE EMBOSS 0000001000+00001753+00000+0001T   00001753+0000001711          1400 JN1130               3BZ
133289003133289566-001234     133289006003000217793STICKERS LASER ASSTD   0000004000+00001578+00000+0001T   00001578+0000001711          1400 JN1130               3BZ
133289004133289566-000535     133289006003000284719STICKER SPARKLE EMBOSS 0000001000+00001753+00000+0001T   00001753+0000001711          1400 JN1130               3BZ
133289005133289903-000918     133289006009802868522SWEET GUM TAPE H/KITTY 0000001000+00001753+00000+0001T   00001753+0000001711          1400 JN1150               3BZ
133289006133289903-000912     133289006009802868461SWT GUM TAPE HOT WHEELS0000001000+00001753+00000+0001T   00001753+0000001711          1400 JN1150               3BZ
133289007133289112-116038     133289006009681820246TCS CARRIER BAG MIDI   0000001000+00000035+00000+0001T   00000035+0000001711          1400 JN1090               3BZ
133290000133290               133290               170213HU     1400+00000+HU0000003767+0000003767+000000000+000000528+0000004290+0000000005+I20000000000+0000004290+Z
133290001133290088-000103     133290006008766127102INCENSE 20PCE ASSTD    0000001000+00000700+00000+0001T   00000700+0000001714          1400 JN1212               3BZ
133290002133290077-000239     133290006003000160419GIFT-RIBBON ROLL PEARL 0000001000+00001753+00000+0001T   00001753+0000001714          1400 JN1112               3BZ
133290003133290030-000010     133290006003000084395P/DOOR HANGER 2-ASSTD  0000001000+00001314+00000+0001T   00001490+0008181714          1400 JN1505               3BZ
133291000133291               133291               170213HU     1400+00000+HU0000004205+0000004205+000000000+000000590+0000004790+0000000005+I20000000000+0000004790+Z
133291001133291018-000177     133291006001023797513MUG MINI LOVE ASSTD    0000001000+00000700+00000+0001T   00000700+0000001715          1400 JN1515               3BZ
133291002133291903-000897     133291008692806325207SWT CHOC DBL MINI ROLL 0000001000+00000876+00000+0001T   00000876+0000001715          1400 JN1150               3BZ
133291003133291080-000127     133291006003000424351VALENTINES DAY 36x24CM 0000001000+00002192+00000+0001T   00002192+0000001715          1400 JN1112               3BZ
133291004133291080-000133-A   133291006003000647019MINI VALENTINES CARD   0000001000+00000437+00000+0001T   00000437+0000001715          1400 JN1112               3BZ
133292000133292               133292               170213HU     1400+00000+HU0000012660+0000012660+000000000+000001775+0000014435+0000000000+I40000014435+0000000000+Z
133292001133292304-001205     133292006001023738011FLWR P/STER FERN SPRAY 0000012000+00000613+00000+0001T   00000613+0000001719          1400 JN1510               3BZ
133292002133292304-001206     133292006001023738301FLWR HOLLAND-IVY 56cm  0000004000+00001314+00000+0001T   00001314+0000001719          1400 JN1510               3BZ
133292003133292112-116069     133292006009681820277TCS CARRIER BAG JUMBO  0000001000+00000048+00000+0001T   00000048+0000001719          1400 JN1090               3BZ
133293000133293               133293               170213HU     1400+00000+HU0000006837+0000006837+000000000+000000958+0000007790+0000000005+I20000000000+0000007790+Z
133293001133293108-003023     133293006003000665471TUMBLER W/STRAW 550ml  0000001000+00002630+00000+0001T   00002630+0000001720          1400 JN1210               3BZ
133293002133293018-005009     133293006001023725608MUG W/PLUSH-BEAR LOVE  0000001000+00003507+00000+0001T   00003507+0000001720          1400 JN1515               3BZ
133293003133293018-000177     133293006001023797513MUG MINI LOVE ASSTD    0000001000+00000700+00000+0001T   00000700+0000001720          1400 JN1515               3BZ
133294000133294               133294               170213HU     1400+00000+HU0000017975+0000017975+000000000+000002518+0000020493+0000000000+I40000020493+0000000000+Z
133294001133294077-000309     133294006001023608604GIFT-BAG 25X32CM GLOSS 0000001000+00001753+00000+0001T   00001753+0000001732          1400 JN1112               3BZ
133294002133294018-000136     133294006001023659026MUG OCC LOVE W/PLUSH   0000001000+00003507+00000+0001T   00003507+0000001732          1400 JN1515               3BZ
133294003133294301-086006     133294006003000498918ORN OCCASION LOVE 4ASTD0000001000+00005262+00000+0001T   00005262+0000001732          1400 JN1505               3BZ
133294004133294368-000175     133294006003000270316PLUSH BEAR 4 ASSTD 18CM0000001000+00006139+00000+0001T   00006139+0000001732          1400 JN1745               3BZ
133294005133294077-000310     133294006001023608635GIFT-BAG 18X23CM GLOSS 0000001000+00001314+00000+0001T   00001314+0000001732          1400 JN1112               3BZ
133295000133295               133295               170213HU     1400+00000+HU0000000876+0000000876+000000000+000000123+0000000990+0000000009+I20000000000+0000000990+Z
133295001133295071-001019     133295006001023474513MARKER BLACK NAME-PEN  0000001000+00000876+00000+0001T   00000876+0000001732          1400 JN1130               3BZ
133296000133296               133296               170213HU     1400+00000+HU0000007927+0000007927+000000000+000001111+0000009030+0000000008+I20000000000+0000009030+Z
133296001133296108-003023     133296006003000665471TUMBLER W/STRAW 550ml  0000001000+00002630+00000+0001T   00002630+0000001733          1400 JN1210               3BZ
133296002133296565-004004     133296006001023744357NOVELTY INSCT COLLECTOR0000001000+00005262+00000+0001T   00005262+0000001733          1400 JN1745               3BZ
133296003133296112-116038     133296006009681820246TCS CARRIER BAG MIDI   0000001000+00000035+00000+0001T   00000035+0000001733          1400 JN1090               3BZ
133297000133297               133297               170213HU     1400+00000+HU0000001753+0000001753+000000000+000000246+0000001990+0000000009+I20000000000+0000001990+Z
133297001133297079-002000     133297006003000658152MODELLING CLAY         0000001000+00001753+00000+0001T   00001753+0000001742          1400 JN1130               3BZ
133298000133298               133298               170213HU     1400+00000+HU0000001490+0000001490+000000000+000000209+0000001690+0000000009+I20000000000+0000001690+Z
133298001133298077-000384     133298006003000275243G/BAG HOT STMP 18x23CM 0000001000+00001490+00000+0001T   00001490+0000001742          1400 JN1112               3BZ
133299000133299               133299               170213HU     1400+00000+HU0000006394-0000006394-000000000+000000896-0000007290-0000000000+I20000000000+0000007290-Z
133299001133299001-999906     133299000000000999906STATIONERY(PHOTOCOPIES)0000001000-00006394+00000+0001T   00000000+0000001751          1400 JN19062IC            3 Z
A17021300                                          11064178HUSLAVE 3                       JN12IC
A17021301                                          12032035HUSLAVE 3                       JN12IC
A17021302                                          12045668HUSLAVE 3                       JN12IC
A17021303                                          12293880HUSLAVE 3                       JN12IC
A17021304                                          17495652HUSLAVE 3                       JN12IC
A17021305                                          17523116HUSLAVE 3                       JN12IC
A17021306                                          17545586HUSLAVE 3                       JN12IC
B13316700                                          170213HU039-000100     09155132SLAVE 3     JN12IC0000002000+0000001000+0000000000000+
B13319400                                          170213HU078-000025     11190063SLAVE 3     JN12IC0000002000+0000001000+0000000000000+
B13322400                                          170213HU368-000049     15151676SLAVE 3     JN12IC0000002000+0000001000+0000000000000+
B13328600                                          170213HU018-000177     17072579SLAVE 3     JN12IC0000002000+0000001000+0000000000000+
M17021391                              CASH        HUSLAVE 3                       Z-REPORT No.   585TOTAL (Sales - Refunds)          10190.39       CASH TO BE BANKED                 4633.80       DEBIT CARDS                          0.00       CREDIT CARDS                      5483.69       Z-READING                        10117.49       AIRTIME DEBIT CARD SALES             0.00       AIRTIME CARD SALES                   0.00       OVERS/UNDERS                         0.00       AIRTIME CASH SALES                   0.00       GIFT CARDS                           0.00       GIFT CARD CASH SALES                 0.00       STATIONERY(PHOTOCOPIES)             72.90       T O T A L  CASH PAYOUTS             72.90                                                                                                                                                                                                                                                                                                      Z
M17021392                              CASH        HUABSENT                                                                                                                                                                                          ANNUAL LEAVE                                                                                                                                                                                    DAY OFF                                                                                                                                                                                         COMMENTS                                                                                                                                                                                                                                                                                                                                                                                       Z
Y17021300                                          HU00000000894300+000130
ZHU17021319493 SLAVE 3      SALES DATA                     NEXT INVOICE NO.  133300 0585
X HU Slave 3 First invoice 133167 170213 Last invoice 133299 170213 Next invoice 133300 Total number of records 000000474 clbackup completed 19:49:25
