110366000110366               110366               170213HW     1400+00000+HW0000027541+0000027541+000000000+000003856+0000031390+0000000007+I20000000000+0000031390+Z
110366001110366486-010001     110366006003000283323WALL-CLOCK QTZ 60CM RND0000001000+00026314+00000+0001T   00026314+0000000901          1400 YX9510               1AZ
110366002110366251-000040     110366006001023515865SEALTAPE CLEAR 48mmx50m0000001000+00001227+00000+0001T   00001227+0000000901          1400 YX9810               1AZ
110367000110367               110367               170213HW     1400+00000+HW0000018481+0000018481+000000000+000002590+0000021070+0000000001+I20000000000+0000021070+Z
110367001110367077-000299-A   110367006003000670888GIFT-BAG PAPER JMB LOVE0000001000+00001753+00000+0001T   00001753+0000000958          1400 YX9112               1AZ
110367002110367080-000127     110367006003000424351VALENTINES DAY 36x24CM 0000001000+00002192+00000+0001T   00002192+0000000958          1400 YX9112               1AZ
110367003110367301-085004     110367006003000420469ORN LOVE PLAQUE 21X10CM0000001000+00003507+00000+0001T   00003946+0006470958          1400 YX9505               1AZ
110367004110367031-000903-C   110367006003000457359P/FRAME PL CREAMY 20X250000001000+00007893+00000+0001T   00007893+0000000958          1400 YX9510               1AZ
110367005110367566-000451     110367006001023788443STICKERS GLITTER ASSTD 0000001000+00001314+00000+0001T   00001753+0008150958          1400 YX9130               1AZ
110367006110367077-000011-Y   110367006001023809858TISSUE-WRAP GOLD 10PCE 0000001000+00001753+00000+0001T   00001753+0000000958          1400 YX9112               1AZ
110367007110367112-116053     110367006006438002399TCS CARRIER BAG 38L    0000001000+00000069+00000+0001T   00000069+0000000958          1400 YX9090               1AZ
110368000110368               110368               170213HW     1400+00000+HW0000053499+0000053499+000000000+000007494+0000060993+0000000000+I40000060993+0000000000+Z
110368001110368107-004510     110368006002580008968STEP-STOOL PL          0000002000+00005262+00000+0001T   00005262+0000001024          1400 YX9210               1AZ
110368002110368562-088357     110368006001023873392EVA CARPET 56x56x0.9cm 0000002000+00012279+00000+0001T   00012279+0000001024          1400 YX9755               1AZ
110368003110368463-000366     110368006001023789136SWIM W/NOODLE 150cm    0000002000+00002630+00000+0001T   00002630+0000001024          1400 YX9785               1AZ
110368004110368467-096020     110368006001023679024BOOGIE-BOARD 66cm ASSTD0000001000+00013157+00000+0001T   00013157+0000001024          1400 YX9785               1AZ
110369000110369               110369               170213HW     1400+00000+HW0000003506+0000003506+000000000+000000492+0000003990+0000000008+I20000000000+0000003990+Z
110369001110369077-000457     110369006003000285662G/BAG METALLIC JMB SOL 0000001000+00001753+00000+0001T   00001753+0000001030          1400 YX9112               1AZ
110369002110369077-000299-A   110369006003000670888GIFT-BAG PAPER JMB LOVE0000001000+00001753+00000+0001T   00001753+0000001030          1400 YX9112               1AZ
110370000110370               110370               170213HW     1400+00000+HW0000001139+0000001139+000000000+000000160+0000001290+0000000009+I20000000000+0000001290+Z
110370001110370046-000014     110370006001023725387BATTERIES SIZE:AAA 4PCE0000001000+00001139+00000+0001T   00001139+0000001056          1400 YX9312               1AZ
110371000110371               110371               170213HW     1400+00000+HW0000006874+0000006874+000000000+000000963+0000007837+0000000000+I40000007837+0000000000+Z
110371001110371015-000110     110371006001023854889WHITEWARE MUG 350ML    0000002000+00002192+00000+0001T   00002192+0000001100          1400 YX9515               1AZ
110371002110371034-078805     110371006001023994097BABY W/WIPES 55PCE LACE0000001000+00002455+00000+0001T   00002455+0000001100          1400 YX9215               1AZ
110371003110371112-116038     110371006009681820246TCS CARRIER BAG MIDI   0000001000+00000035+00000+0001T   00000035+0000001100          1400 YX9090               1AZ
110372000110372               110372               170213HW     1400+00000+HW0000002892+0000002892+000000000+000000406+0000003290+0000000008+I20000000000+0000003290+Z
110372001110372565-000071     110372006003000643387NOVELTY WIND UP CHATTER0000001000+00001139+00000+0001T   00001139+0000001113          1400 YX9745               1AZ
110372002110372077-000011-Y   110372006001023809858TISSUE-WRAP GOLD 10PCE 0000001000+00001753+00000+0001T   00001753+0000001113          1400 YX9112               1AZ
110373000110373               110373               170213HW     1400+00000+HW0000003506+0000003506+000000000+000000492+0000003998+0000000000+I40000003998+0000000000+Z
110373001110373903-000593     110373006003000563890SWT WATER GUN 15cm     0000001000+00001753+00000+0001T   00001753+0000001118          1400 YX9150               1AZ
110373002110373903-000615     110373006003000617456SWT JET PLANE J/B 5G   0000001000+00001753+00000+0001T   00001753+0000001118          1400 YX9150               1AZ
110374000110374               110374               170213HW     1400+00000+HW0000000437+0000000437+000000000+000000062+0000000490+0000000009+I20000000000+0000000490+Z
110374001110374080-000133-A   110374006003000647019MINI VALENTINES CARD   0000001000+00000437+00000+0001T   00000437+0000001405          1400 YX9112               1AZ
110375000110375               110375               170213HW     1400+00000+HW0000010995+0000010995+000000000+000001541+0000012530+0000000006+I20000000000+0000012530+Z
110375001110375032-000336     110375006001023369109MIRROR HANGING MAGNETIC0000001000+00002192+00000+0001T   00002192+0000001416          1400 YX9510               1AZ
110375002110375002-220002     110375006001023677877F/COVER SQ 31cm WHT    0000001000+00002630+00000+0001T   00002630+0000001416          1400 YX9300               1AZ
110375003110375002-000117     110375006001023110879EGG POACHERS 2PC       0000002000+00003069+00000+0001T   00003069+0000001416          1400 YX9300               1AZ
110375004110375112-116038     110375006009681820246TCS CARRIER BAG MIDI   0000001000+00000035+00000+0001T   00000035+0000001416          1400 YX9090               1AZ
110376000110376               110376               170213HW     1400+00000+HW0000001753+0000001753+000000000+000000246+0000001990+0000000009+I20000000000+0000001990+Z
110376001110376018-000200     110376006001023816573M/DAILY V-SHAPE PSYCH  0000001000+00001753+00000+0001T   00001753+0000001439          1400 YX9515               1AZ
110377000110377               110377               170213HW     1400+00000+HW0000002663+0000002663+000000000+000000373+0000003030+0000000006+I20000000000+0000003030+Z
110377001110377903-000194     110377006009826020616SWT CHOC RP LOLLY 25G  0000002000+00001314+00000+0001T   00001314+0000001440          1400 YX9150               1AZ
110377002110377112-116038     110377006009681820246TCS CARRIER BAG MIDI   0000001000+00000035+00000+0001T   00000035+0000001440          1400 YX9090               1AZ
110378000110378               110378               170213HW     1400+00000+HW0000016341+0000016341+000000000+000002291+0000018632+0000000000+I40000018632+0000000000+Z
110378001110378003-009106     110378006003000456604ORN W/STONE W/BUG ASSTD0000001000+00007016+00000+0001T   00007016+0000001444          1400 YX9505               1AZ
110378002110378566-000028     110378006003000265541STICKER BK ASSTD 250PCE0000001000+00001753+00000+0001T   00001753+0000001444          1400 YX9130               1AZ
110378003110378089-000030     110378006003000575671K/CHAIN LOVE MTL ASSTD 0000001000+00001753+00000+0001T   00001753+0000001444          1400 YX9205               1AZ
110378004110378080-000124     110378006003000297733CARD & ENV VALENTINES  0000001000+00001578+00000+0001T   00001578+0000001444          1400 YX9112               1AZ
110378005110378080-000110     110378006003000237326CARD&ENVLPE BDAY-FUNNY 0000001000+00001753+00000+0001T   00001753+0000001444          1400 YX9112               1AZ
110378006110378077-000467     110378006003000329991GIFT-BAG STAMP 18X23CM 0000001000+00001753+00000+0001T   00001753+0000001444          1400 YX9112               1AZ
110378007110378903-000121     110378006002099001689SWT GS ZILLIONS SOURS  0000001000+00000700+00000+0001T   00000700+0000001444          1400 YX9150               1AZ
110378008110378112-116038     110378006009681820246TCS CARRIER BAG MIDI   0000001000+00000035+00000+0001T   00000035+0000001444          1400 YX9090               1AZ
110379000110379               110379               170213HW     1400+00000+HW0000008153+0000008153+000000000+000001142+0000009290+0000000005+I20000000000+0000009290+Z
110379001110379089-060027     110379006003000245871KEY-CHAIN HEART 6X6cm  0000001000+00003069+00000+0001T   00003069+0000001445          1400 YX9205               1AZ
110379002110379903-000194     110379006009826020616SWT CHOC RP LOLLY 25G  0000001000+00001314+00000+0001T   00001314+0000001445          1400 YX9150               1AZ
110379003110379080-000127     110379006003000424351VALENTINES DAY 36x24CM 0000001000+00002192+00000+0001T   00002192+0000001445          1400 YX9112               1AZ
110379004110379077-000303     110379006001023593757GIFT-BAG PAPER MED     0000001000+00001578+00000+0001T   00001578+0000001445          1400 YX9112               1AZ
110380000110380               110380               170213HW     1400+00000+HW0000002190+0000002190+000000000+000000308+0000002490+0000000008+I20000000000+0000002490+Z
110380001110380080-000133-A   110380006003000647019MINI VALENTINES CARD   0000001000+00000437+00000+0001T   00000437+0000001452          1400 YX9112               1AZ
110380002110380080-000104     110380006003000236978CARD&ENVLP MALE AFR    0000001000+00001753+00000+0001T   00001753+0000001452          1400 YX9112               1AZ
110381000110381               110381               170213HW     1400+00000+HW0000001753+0000001753+000000000+000000246+0000001990+0000000009+I20000000000+0000001990+Z
110381001110381080-000111     110381006003000252695CARD&ENVELPE - MUSICAL 0000001000+00001753+00000+0001T   00001753+0000001453          1400 YX9112               1AZ
110382000110382               110382               170213HW     1400+00000+HW0000016165+0000016165+000000000+000002267+0000018432+0000000000+I40000018432+0000000000+Z
110382001110382112-116038     110382006009681820246TCS CARRIER BAG MIDI   0000001000+00000035+00000+0001T   00000035+0000001455          1400 YX9090               1AZ
110382002110382204-000007     110382006003000427062M/HOLDER MAGN POLY LOVE0000001000+00002630+00000+0001T   00003507+0008131455          1400 YX9300               1AZ
110382003110382007-000588     110382006001023810090NOTES SHOPPING-LIST+RIB0000001000+00002630+00000+0001T   00002630+0000001455          1400 YX9130               1AZ
110382004110382079-006496     110382006003000160105GLITTER SHAKERS        0000001000+00001753+00000+0001T   00001753+0000001455          1400 YX9130               1AZ
110382005110382047-005127     110382006003000093861CABLETIES 100/150/200mm0000001000+00002192+00000+0001T   00002192+0000001455          1400 YX9880               1AZ
110382006110382204-000030     110382006003000683536MEMO HOLDER SAYINGS    0000001000+00003507+00000+0001T   00003507+0000001455          1400 YX9300               1AZ
110382007110382047-000504-H   110382006001023589958PLUG EURODAPTOR 2PIN HH0000001000+00001665+00000+0001T   00001665+0000001455          1400 YX9880               1AZ
110382008110382047-000507     110382006001023684479PLUG-ADAPTOR EURO TWIN 0000001000+00001753+00000+0001T   00001753+0000001455          1400 YX9880               1AZ
110383000110383               110383               170213HW     1400+00000+HW0000021428+0000021428+000000000+000003003+0000024431+0000000000+I40000024431+0000000000+Z
110383001110383112-116038     110383006009681820246TCS CARRIER BAG MIDI   0000001000+00000035+00000+0001T   00000035+0000001459          1400 YX9090               1AZ
110383002110383263-000412     110383006003000600335VEHICLE BOAT INFLATABLE0000002000+00004385+00000+0001T   00004385+0000001459          1400 YX9710               1AZ
110383003110383046-000012     110383006904708013062BATTERIES AA  CARD-OF-40000001000+00001314+00000+0001T   00001314+0000001459          1400 YX9312               1AZ
110383004110383565-000990     110383006001023673510NOVELTY STICKY SLAPPER 0000002000+00001490+00000+0001T   00001490+0000001459          1400 YX9745               1AZ
110383005110383565-000602     110383006003000643790NOVELTY NINJA'S 3PACK  0000001000+00002630+00000+0001T   00002630+0000001459          1400 YX9745               1AZ
110383006110383174-000313     110383006003000344086STORAGE BAG VACUUM SEAL0000001000+00003069+00000+0001T   00003069+0000001459          1400 YX9205               1AZ
110383007110383567-011902     110383006003000676040BK FOOD GOLDEN CLOUD   0000001000+00002630+00000+0001T   00002630+0000001459          1400 YX9757               1AZ
110384000110384               110384               170213HW     1400+00000+HW0000017399+0000017399+000000000+000002437+0000019830+0000000006+I20000000000+0000019830+Z
110384001110384077-000303     110384006001023593757GIFT-BAG PAPER MED     0000001000+00001578+00000+0001T   00001578+0000001500          1400 YX9112               1AZ
110384002110384018-030000     110384006003000421060MUG OCCASIONS LOVE 2PCE0000001000+00004385+00000+0001T   00004385+0000001500          1400 YX9515               1AZ
110384003110384562-000026     110384006001023910578KID'S DOUGH SET 9PCE   0000001000+00004385+00000+0001T   00004385+0000001500          1400 YX9755               1AZ
110384004110384562-000070     110384006003000600748EDU PLAY DOUGH 50g 8pc 0000001000+00007016+00000+0001T   00007016+0000001500          1400 YX9755               1AZ
110384005110384112-116038     110384006009681820246TCS CARRIER BAG MIDI   0000001000+00000035+00000+0001T   00000035+0000001500          1400 YX9090               1AZ
110385000110385               110385               170213HW     1400+00000+HW0000003506+0000003506+000000000+000000492+0000003990+0000000008+I20000000000+0000003990+Z
110385001110385007-000043     110385006009635831496DISPLAY-BOOK PL A4 20PG0000002000+00001753+00000+0001T   00001753+0000001501          1400 YX9130               1AZ
110386000110386               110386               170213HW     1400+00000+HW0000002630+0000002630+000000000+000000369+0000002990+0000000009+I20000000000+0000002990+Z
110386001110386018-000129     110386006001023403353MUG OCC. LOVE V-SHAPE  0000001000+00002630+00000+0001T   00002630+0000001509          1400 YX9515               1AZ
110387000110387               110387               170213HW     1400+00000+HW0000002630+0000002630+000000000+000000369+0000002999+0000000000+I40000002999+0000000000+Z
110387001110387018-000129     110387006001023403353MUG OCC. LOVE V-SHAPE  0000001000+00002630+00000+0001T   00002630+0000001510          1400 YX9515               1AZ
110388000110388               110388               170213HW     1400+00000+HW0000001753+0000001753+000000000+000000246+0000001990+0000000009+I20000000000+0000001990+Z
110388001110388088-000084     110388006001023798060P/POURRI 120G ASSTD    0000001000+00001753+00000+0001T   00001753+0000001514          1400 YX9212               1AZ
110389000110389               110389               170213HW     1400+00000+HW0000013642+0000013642+000000000+000001911+0000015550+0000000003+I20000000000+0000015550+Z
110389001110389080-000127     110389006003000424351VALENTINES DAY 36x24CM 0000001000+00002192+00000+0001T   00002192+0000001516          1400 YX9112               1AZ
110389002110389085-007050     110389006001023870803P/KNIFE 9cm-BLD S/S-HND0000001000+00011402+00000+0001T   00011402+0000001516          1400 YX9305               1AZ
110389003110389112-116069     110389006009681820277TCS CARRIER BAG JUMBO  0000001000+00000048+00000+0001T   00000048+0000001516          1400 YX9090               1AZ
110390000110390               110390               170213HW     1400+00000+HW0000004819+0000004819+000000000+000000677+0000000000+0000000000+ 00000000000+0000000000+Z
110390001110390903-000095     110390006001704011495SWT SPECKLED-EGGS 100G 0000001000+00002104+00000+0001T   00002104+000000              1400 YX91502IC            1 Z
110390002110390903-000155     110390006009803374435SWT LOLLY I LUV U HEART0000001000+00000525+00000+0001T   00000525+000000              1400 YX91502IC            1 Z
110390003110390903-000908     110390006009802868331SWT YOYO HOT WHEELS    0000001000+00001753+00000+0001T   00001753+000000              1400 YX91502IC            1 Z
110390004110390080-000133     110390006003000535613CARD&ENV MINI ASTD DSGN0000001000+00000437+00000+0001T   00000437+000000              1400 YX91122IC            1 Z
110391000110391               110391               170213HW     1400+00000+HW0000005607+0000005607+000000000+000000788+0000006395+0000000000+I40000006395+0000000000+Z
110391001110391080-000133-A   110391006003000647019MINI VALENTINES CARD   0000001000+00000437+00000+0001T   00000437+0000001526          1400 YX9112               1AZ
110391002110391903-000155     110391006009803374435SWT LOLLY I LUV U HEART0000001000+00000525+00000+0001T   00000525+0000001526          1400 YX9150               1AZ
110391003110391903-000095     110391006001704011495SWT SPECKLED-EGGS 100G 0000001000+00002104+00000+0001T   00002104+0000001526          1400 YX9150               1AZ
110391004110391903-000908     110391006009802868331SWT YOYO HOT WHEELS    0000001000+00001753+00000+0001T   00001753+0000001526          1400 YX9150               1AZ
110391005110391903-000200     110391006009826020234SWT CHOC RP CHOCO 23G  0000001000+00000788+00000+0001T   00000788+0000001526          1400 YX9150               1AZ
110392000110392               110392               170213HW     1400+00000+HW0000009731+0000009731+000000000+000001364+0000011095+0000000000+I40000011095+0000000000+Z
110392001110392903-000503     110392006001704006118SWT VAMPIRE FANGS 60G  0000002000+00000876+00000+0001T   00000876+0000001635          1400 YX9150               1AZ
110392002110392903-000095     110392006001704011495SWT SPECKLED-EGGS 100G 0000001000+00002104+00000+0001T   00002104+0000001635          1400 YX9150               1AZ
110392003110392031-080508     110392006001023802415P/FRAME PL 22X11CM LOVE0000001000+00004385+00000+0001T   00004385+0000001635          1400 YX9510               1AZ
110392004110392077-000299     110392006003000395576G/BAG 32x25cm LRG LOVE 0000001000+00001490+00000+0001T   00001490+0000001635          1400 YX9112               1AZ
110393000110393               110393               170213HW     1400+00000+HW0000000788+0000000788+000000000+000000111+0000000890+0000000009+I20000000000+0000000890+Z
110393001110393903-000200     110393006009826020234SWT CHOC RP CHOCO 23G  0000001000+00000788+00000+0001T   00000788+0000001637          1400 YX9150               1AZ
110394000110394               110394               170213HW     1400+00000+HW0000009835+0000009835+000000000+000001377+0000011212+0000000000+I40000011212+0000000000+Z
110394001110394564-000012     110394006001023130075BUBBLE BOTTLE MAGIC    0000014000+00000700+00000+0001T   00000700+0000001646          1400 YX9131               1AZ
110394002110394112-116038     110394006009681820246TCS CARRIER BAG MIDI   0000001000+00000035+00000+0001T   00000035+0000001646          1400 YX9090               1AZ
110395000110395               110395               170213HW     1400+00000+HW0000006312+0000006312+000000000+000000885+0000007197+0000000000+I40000007197+0000000000+Z
110395001110395903-000151     110395006009803374411SWT SML RND R/BOW LOLLY0000001000+00000525+00000+0001T   00000525+0000001648          1400 YX9150               1AZ
110395002110395903-000155     110395006009803374435SWT LOLLY I LUV U HEART0000001000+00000525+00000+0001T   00000525+0000001648          1400 YX9150               1AZ
110395003110395301-006020     110395006003000461493ORN OWL 8x6.5cm 4-ASSTD0000001000+00005262+00000+0001T   00005262+0000001648          1400 YX9505               1AZ
110396000110396               110396               170213HW     1400+00000+HW0000009555+0000009555+000000000+000001340+0000010890+0000000005+I20000000000+0000010890+Z
110396001110396368-000265     110396006001023750914PLUSH BEAR 23CM ASSTD C0000001000+00006139+00000+0001T   00006139+0000001649          1400 YX9745               1AZ
110396002110396903-000155     110396006009803374435SWT LOLLY I LUV U HEART0000002000+00000525+00000+0001T   00000525+0000001649          1400 YX9150               1AZ
110396003110396903-000200     110396006009826020234SWT CHOC RP CHOCO 23G  0000001000+00000788+00000+0001T   00000788+0000001649          1400 YX9150               1AZ
110396004110396077-000303     110396006001023593757GIFT-BAG PAPER MED     0000001000+00001578+00000+0001T   00001578+0000001649          1400 YX9112               1AZ
110397000110397               110397               170213HW     1400+00000+HW0000007664+0000007664+000000000+000001074+0000008738+0000000000+I40000008738+0000000000+Z
110397001110397018-050000     110397006003000412679MUG OCC LOVE TWIN BEAR 0000001000+00006139+00000+0001T   00006139+0000001650          1400 YX9515               1AZ
110397002110397077-000299     110397006003000395576G/BAG 32x25cm LRG LOVE 0000001000+00001490+00000+0001T   00001490+0000001650          1400 YX9112               1AZ
110397003110397112-116038     110397006009681820246TCS CARRIER BAG MIDI   0000001000+00000035+00000+0001T   00000035+0000001650          1400 YX9090               1AZ
110398000110398               110398               170213HW     1400+00000+HW0000012712+0000012712+000000000+000001782+0000014490+0000000004+I20000000000+0000014490+Z
110398001110398368-000175     110398006003000270316PLUSH BEAR 4 ASSTD 18CM0000001000+00006139+00000+0001T   00006139+0000001652          1400 YX9745               1AZ
110398002110398077-000011-R   110398006001023808462P/TISSUE DARK 10-SHEETS0000001000+00000876+00000+0001T   00000876+0000001652          1400 YX9112               1AZ
110398003110398004-071192     110398006003000528813USB CABLE 1.0m         0000001000+00002630+00000+0001T   00002630+0000001652          1400 YX9310               1AZ
110398004110398089-000030     110398006003000575671K/CHAIN LOVE MTL ASSTD 0000001000+00001753+00000+0001T   00001753+0000001652          1400 YX9205               1AZ
110398005110398077-000310     110398006001023608635GIFT-BAG 18X23CM GLOSS 0000001000+00001314+00000+0001T   00001314+0000001652          1400 YX9112               1AZ
110399000110399               110399               170213HW     1400+00000+HW0000006137+0000006137+000000000+000000860+0000006997+0000000000+I40000006997+0000000000+Z
110399001110399082-026204     110399006001023816443R/GLASSES STRINGS 2PCE 0000002000+00000876+00000+0001T   00000876+0000001653          1400 YX9160               1AZ
110399002110399082-000110     110399006003000360482READING GLS STRENGHT:2 0000001000+00004385+00000+0001T   00004385+0000001653          1400 YX9160               1AZ
110400000110400               110400               170213HW     1400+00000+HW0000004295+0000004295+000000000+000000602+0000004890+0000000007+I20000000000+0000004890+Z
110400001110400080-000116     110400006003000253555CARD&ENVELOPE-HANDMADE 0000001000+00001753+00000+0001T   00001753+0000001733          1400 YX9112               1AZ
110400002110400077-000303     110400006001023593757GIFT-BAG PAPER MED     0000001000+00001578+00000+0001T   00001578+0000001733          1400 YX9112               1AZ
110400003110400903-000843     110400008693029031067SWT GUMMY JELAXY 80G   0000001000+00000964+00000+0001T   00000964+0000001733          1400 YX9150               1AZ
110401000110401               110401               170213HW     1400+00000+HW0000002192+0000002192+000000000+000000307+0000002490+0000000009+I20000000000+0000002490+Z
110401001110401080-000139     110401006003000611690CARD & ENV MINI SET 6PC0000001000+00002192+00000+0001T   00002192+0000001733          1400 YX9112               1AZ
110402000110402               110402               170213HW     1400+00000+HW0000001227+0000001227+000000000+000000172+0000001390+0000000009+I20000000000+0000001390+Z
110402001110402031-005815     110402009320760100019P/FRAME-CLIP 10x15cm   0000001000+00001227+00000+0001T   00001227+0000001734          1400 YX9510               1AZ
110403000110403               110403               170213HW     1400+00000+HW0000000788+0000000788+000000000+000000111+0000000890+0000000009+I20000000000+0000000890+Z
110403001110403903-000200     110403006009826020234SWT CHOC RP CHOCO 23G  0000001000+00000788+00000+0001T   00000788+0000001736          1400 YX9150               1AZ
M17021391                              CASH        HWSLAVE 1                       Z-REPORT No.   584TOTAL (Sales - Refunds)           3620.76       CASH TO BE BANKED                 1731.20       DEBIT CARDS                          0.00       CREDIT CARDS                      1889.56       Z-READING                         3620.76       AIRTIME DEBIT CARD SALES             0.00       AIRTIME CARD SALES                   0.00       OVERS/UNDERS                         0.00       AIRTIME CASH SALES                   0.00       GIFT CARDS                           0.00       GIFT CARD CASH SALES                 0.00       T O T A L  CASH PAYOUTS              0.00                                                                                                                                                                                                                                                                                                                                                      Z
M17021392                              CASH        HWABSENT                                                                                                                                                                                          ANNUAL LEAVE                                                                                                                                                                                    DAY OFF                                                                                                                                                                                         COMMENTS                                                                                                                                                                                                                                                                                                                                                                                       Z
Y17021300                                          HW00000000317719+000037
ZHW17021319493 SLAVE 1      SALES DATA                     NEXT INVOICE NO.  110404 0584
X HW Slave 1 First invoice 110366 170213 Last invoice 110403 170213 Next invoice 110404 Total number of records 000000154 clbackup completed 19:49:42
