161196000161196               161196               170213HX     1400+00000+HX0000000876+0000000876+000000000+000000123+0000000990+0000000009+I20000000000+0000000990+Z
161196001161196071-003003     161196006003000144525PEN BALL PEN 3PCE BLACK0000001000+00000876+00000+0001T   00000876+0000000902          1400 YV4130               1AZ
161197000161197               161197               170213HX     1400+00000+HX0000050378+0000050378+000000000+000007057+0000057435+0000000000+I40000057435+0000000000+Z
161197001161197079-001000     161197006003000448470CANVAS A2 WOOD MOUNTED 0000001000+00007016+00000+0001T   00007016+0000000920          1400 YV4130               1AZ
161197002161197112-116069     161197006009681820277TCS CARRIER BAG JUMBO  0000001000+00000048+00000+0001T   00000048+0000000920          1400 YV4090               1AZ
161197003161197079-130010     161197006003000496624ART+CRAFT FOAM DOLLS   0000001000+00004385+00000+0001T   00004385+0000000920          1400 YV4130               1AZ
161197004161197266-008043     161197006003000474134BOYS FIG. P/SET 55pc   0000001000+00007016+00000+0001T   00007016+0000000920          1400 YV4710               1AZ
161197005161197007-000324     16119700600968585864125 SHEETS BRIGHTS MARLI0000001000+00003507+00000+0001T   00003507+0000000920          1400 YV4130               1AZ
161197006161197007-000325     161197006009698066514PAPER A4 160GSM 25SHTS 0000001000+00003507+00000+0001T   00003507+0000000920          1400 YV4130               1AZ
161197007161197071-081091     161197006001151010287STAED/GENKEM ALL-STICK 0000001000+00001227+00000+0001T   00001227+0000000920          1400 YV4130               1AZ
161197008161197200-000066     161197006003000365975STRAWS 12PCE W/UMBRELLA0000001000+00001314+00000+0001T   00001314+0000000920          1400 YV4214               1AZ
161197009161197072-000160     161197006003000094233PET DOG SHIRT GIRL SML 0000001000+00006139+00000+0001T   00006139+0000000920          1400 YV4870               1AZ
161197010161197077-000314     161197006003000181148GIFT-BAG 11X14CM MATT  0000001000+00000876+00000+0001T   00000876+0000000920          1400 YV4112               1AZ
161197011161197563-000318-G   161197006003000404360SERVIETTES 33cm PINK   0000001000+00002192+00000+0001T   00002192+0000000920          1400 YV4214               1AZ
161197012161197562-000020     161197006003000600861EDU PLAY DOUGH 60g 4PC 0000001000+00003507+00000+0001T   00003507+0000000920          1400 YV4755               1AZ
161197013161197174-008026     161197006009654960429TRAVEL BOTTLES 2-PACK  0000001000+00003069+00000+0001T   00003069+0000000920          1400 YV4205               1AZ
161197014161197306-000016     161197006001023887955T/BRUSH KIDDIES W/CAP  0000001000+00000876+00000+0001T   00000876+0000000920          1400 YV4200               1AZ
161197015161197084-000365     161197006001023731135MANICURE SET ASSORTED  0000001000+00002192+00000+0001T   00002192+0000000920          1400 YV4200               1AZ
161197016161197200-000111     161197006003000676668PICNIC CUPS DOME 300ml 0000001000+00003507+00000+0001T   00003507+0000000920          1400 YV4214               1AZ
161198000161198               161198               170213HX     1400+00000+HX0000001578+0000001578+000000000+000000221+0000001790+0000000009+I20000000000+0000001790+Z
161198001161198080-000124     161198006003000297733CARD & ENV VALENTINES  0000001000+00001578+00000+0001T   00001578+0000000921          1400 YV4112               1AZ
161199000161199               161199               170213HX     1400+00000+HX0000001051+0000001051+000000000+000000148+0000001190+0000000009+I20000000000+0000001190+Z
161199001161199903-002890     161199008935001721352MENTOS GUM PURE F/MINT 0000001000+00001051+00000+0001T   00001051+0000000957          1400 YV4150               1AZ
161200000161200               161200               170213HX     1400+00000+HX0000001314+0000001314+000000000+000000184+0000001490+0000000008+I20000000000+0000001490+Z
161200001161200080-000114     161200006003000246472CARD&ENV LOVE-MUSICAL  0000001000+00001314+00000+0001T   00001753+0008151002          1400 YV4112               1AZ
161201000161201               161201               170213HX     1400+00000+HX0000000911+0000000911+000000000+000000128+0000001030+0000000009+I20000000000+0000001030+Z
161201001161201077-000408     161201006003000145218G/BAG PP 15X21X7CM     0000001000+00000876+00000+0001T   00000876+0000001023          1400 YV4112               1AZ
161201002161201112-116038     161201006009681820246TCS CARRIER BAG MIDI   0000001000+00000035+00000+0001T   00000035+0000001023          1400 YV4090               1AZ
161202000161202               161202               170213HX     1400+00000+HX0000065850+0000065850+000000000+000009221+0000075070+0000000001+I20000000000+0000075070+Z
161202001161202112-116053     161202006006438002399TCS CARRIER BAG 38L    0000001000+00000069+00000+0001T   00000069+0000001026          1400 YV4090               1AZ
161202002161202072-020241     161202006946859290039PET CAVE 42x45x40cm    0000001000+00017542+00000+0001T   00017542+0000001026          1400 YV4870               1AZ
161202003161202072-000160     161202006003000094233PET DOG SHIRT GIRL SML 0000001000+00006139+00000+0001T   00006139+0000001026          1400 YV4870               1AZ
161202004161202369-061024     161202006008766061024SOFT BALLS W/BELL 4PC  0000001000+00010525+00000+0001T   00010525+0000001026          1400 YV4745               1AZ
161202005161202072-000600     161202006003000148431PET DOG HARNESS NYLON  0000001000+00005262+00000+0001T   00005262+0000001026          1400 YV4870               1AZ
161202006161202072-020362     161202006001023820471DOG/CAT BOWL PL+S/S DBL0000001000+00008771+00000+0001T   00008771+0000001026          1400 YV4870               1AZ
161202007161202072-020236     161202006003000624447PET DOG CARRY BAG      0000001000+00017542+00000+0001T   00017542+0000001026          1400 YV4870               1AZ
161203000161203               161203               170213HX     1400+00000+HX0000008806+0000008806+000000000+000001233+0000010030+0000000009+I20000000000+0000010030+Z
161203001161203039-000799     161203006001023692382CANDLES TEALITE 100PCE 0000001000+00008771+00000+0001T   00008771+0000001028          1400 YV4510               1AZ
161203002161203112-116038     161203006009681820246TCS CARRIER BAG MIDI   0000001000+00000035+00000+0001T   00000035+0000001028          1400 YV4090               1AZ
161204000161204               161204               170213HX     1400+00000+HX0000008504+0000008504+000000000+000001192+0000009690+0000000006+I20000000000+0000009690+Z
161204001161204018-000108     161204006001023380265MUG NOVELTY ICON ASST  0000001000+00001753+00000+0001T   00001753+0000001036          1400 YV4515               1AZ
161204002161204565-004101     161204006003000548033BALL BOUNCING EGG      0000001000+00001490+00000+0001T   00001490+0000001036          1400 YV4745               1AZ
161204003161204368-000049     161204006003000536955PLUSH BEAR 15cm LOVE   0000001000+00004385+00000+0001T   00004385+0000001036          1400 YV4745               1AZ
161204004161204077-000150-D   161204006003000054343GIFT-WRAP CELLPHANE CLR0000001000+00000876+00000+0001T   00000876+0000001036          1400 YV4112               1AZ
161205000161205               161205               170213HX     1400+00000+HX0000003507+0000003507+000000000+000000491+0000003990+0000000008+I20000000000+0000003990+Z
161205001161205072-020264     161205006001023602565PET DOG CLEAN-UP BAGS  0000001000+00003507+00000+0001T   00003507+0000001049          1400 YV4870               1AZ
161206000161206               161206               170213HX     1400+00000+HX0000003979+0000003979+000000000+000000558+0000004530+0000000007+I20000000000+0000004530+Z
161206001161206080-000114     161206006003000246472CARD&ENV LOVE-MUSICAL  0000001000+00001314+00000+0001T   00001753+0008151052          1400 YV4112               1AZ
161206002161206018-000129     161206006001023403353MUG OCC. LOVE V-SHAPE  0000001000+00002630+00000+0001T   00002630+0000001052          1400 YV4515               1AZ
161206003161206112-116038     161206006009681820246TCS CARRIER BAG MIDI   0000001000+00000035+00000+0001T   00000035+0000001052          1400 YV4090               1AZ
161207000161207               161207               170213HX     1400+00000+HX0000093685+0000093685+000000000+000013128+0000106810+0000000003+I20000000000+0000106810+Z
161207001161207112-116053     161207006006438002399TCS CARRIER BAG 38L    0000001000+00000069+00000+0001T   00000069+0000001107          1400 YV4090               1AZ
161207002161207018-005009     161207006001023725608MUG W/PLUSH-BEAR LOVE  0000015000+00003507+00000+0001T   00003507+0000001107          1400 YV4515               1AZ
161207003161207080-000114     161207006003000246472CARD&ENV LOVE-MUSICAL  0000003000+00001314+00000+0001T   00001753+0008151107          1400 YV4112               1AZ
161207004161207080-000124     161207006003000297733CARD & ENV VALENTINES  0000009000+00001578+00000+0001T   00001578+0000001107          1400 YV4112               1AZ
161207005161207080-000114     161207006003000246472CARD&ENV LOVE-MUSICAL  0000003000+00001314+00000+0001T   00001753+0008151107          1400 YV4112               1AZ
161207006161207077-000010-C   161207006001023123879CREPE-PAPER RED        0000007000+00000788+00000+0001T   00000788+0000001107          1400 YV4112               1AZ
161207007161207031-006544     161207006003000279401P/FRAME WDN DISTRESSED 0000001000+00007893+00000+0001T   00007893+0000001107          1400 YV4510               1AZ
161207008161207903-000200     161207006009826020234SWT CHOC RP CHOCO 23G  0000007000+00000788+00000+0001T   00000788+0000001107          1400 YV4150               1AZ
161208000161208               161208               170213HX     1400+00000+HX0000003067+0000003067+000000000+000000430+0000003490+0000000007+I20000000000+0000003490+Z
161208001161208089-000030     161208006003000575671K/CHAIN LOVE MTL ASSTD 0000001000+00001753+00000+0001T   00001753+0000001213          1400 YV4205               1AZ
161208002161208077-000310     161208006001023608635GIFT-BAG 18X23CM GLOSS 0000001000+00001314+00000+0001T   00001314+0000001213          1400 YV4112               1AZ
161209000161209               161209               170213HX     1400+00000+HX0000001314+0000001314+000000000+000000184+0000001490+0000000008+I20000000000+0000001490+Z
161209001161209159-000149     161209006003000010998SOAP-DISH FOUR-LEAF    0000001000+00001314+00000+0001T   00001314+0000001214          1400 YV4200               1AZ
161210000161210               161210               170213HX     1400+00000+HX0000001788+0000001788+000000000+000000251+0000002030+0000000009+I20000000000+0000002030+Z
161210001161210051-002407     161210006003000452491SPRAYER TRIGGER 550ml  0000001000+00001753+00000+0001T   00001753+0000001220          1400 YV4820               1AZ
161210002161210112-116038     161210006009681820246TCS CARRIER BAG MIDI   0000001000+00000035+00000+0001T   00000035+0000001220          1400 YV4090               1AZ
161211000161211               161211               170213HX     1400+00000+HX0000011825+0000011825+000000000+000001662+0000013480+0000000007+I20000000000+0000013480+Z
161211001161211903-000200     161211006009826020234SWT CHOC RP CHOCO 23G  0000009000+00000788+00000+0001T   00000788+0000001222          1400 YV4150               1AZ
161211002161211077-000245     161211006001023759214GIFT-RIBBON METALLICx2 0000001000+00001227+00000+0001T   00001227+0000001222          1400 YV4112               1AZ
161211003161211563-000318-L   161211006003000407088SERVIETTES 33cm RED    0000001000+00002192+00000+0001T   00002192+0000001222          1400 YV4214               1AZ
161211004161211077-000310     161211006001023608635GIFT-BAG 18X23CM GLOSS 0000001000+00001314+00000+0001T   00001314+0000001222          1400 YV4112               1AZ
161212000161212               161212               170213HX     1400+00000+HX0000004032+0000004032+000000000+000000566+0000004590+0000000008+I20000000000+0000004590+Z
161212001161212200-003026     161212006003000276448REFUSE BAGS 10PCE GREEN0000001000+00001753+00000+0001T   00001753+0000001224          1400 YV4214               1AZ
161212002161212027-000194     161212006001246602472MOP COMPLETE           0000001000+00002279+00000+0001T   00002279+0000001224          1400 YV4212               1AZ
161213000161213               161213               170213HX     1400+00000+HX0000001753+0000001753+000000000+000000246+0000001990+0000000009+I20000000000+0000001990+Z
161213001161213077-000299-A   161213006003000670888GIFT-BAG PAPER JMB LOVE0000001000+00001753+00000+0001T   00001753+0000001225          1400 YV4112               1AZ
161214000161214               161214               170213HX     1400+00000+HX0000005295+0000005295+000000000+000000743+0000006030+0000000008+I20000000000+0000006030+Z
161214001161214079-006495     161214006003000159987GLITTER SHAKERS 6PK    0000002000+00002630+00000+0001T   00002630+0000001232          1400 YV4130               1AZ
161214002161214112-116038     161214006009681820246TCS CARRIER BAG MIDI   0000001000+00000035+00000+0001T   00000035+0000001232          1400 YV4090               1AZ
161215000161215               161215               170213HX     1400+00000+HX0000014951+0000014951+000000000+000002098+0000017040+0000000009+I20000000000+0000017040+Z
161215001161215112-116069     161215006009681820277TCS CARRIER BAG JUMBO  0000001000+00000048+00000+0001T   00000048+0000001249          1400 YV4090               1AZ
161215002161215007-000205     161215006002324000432FILE BINDER 2-RING A4  0000001000+00001753+00000+0001T   00001753+0000001249          1400 YV4130               1AZ
161215003161215159-000684     161215006001023776532BATH BODY-GLOVE 18cm   0000002000+00002630+00000+0001T   00002630+0000001249          1400 YV4200               1AZ
161215004161215027-000092     161215006003000365739BLIND CLEANER MICROFIBR0000001000+00002630+00000+0001T   00002630+0000001249          1400 YV4212               1AZ
161215005161215027-001018     161215006003000622702BROOM COVER MICROFIBRE 0000002000+00002630+00000+0001T   00002630+0000001249          1400 YV4212               1AZ
161216000161216               161216               170213HX     1400+00000+HX0000006174+0000006174+000000000+000000865+0000007030+0000000009+I20000000000+0000007030+Z
161216001161216124-001300     161216006003000486861STORAGE TIN WASHING    0000001000+00006139+00000+0001T   00006139+0000001251          1400 YV4300               1AZ
161216002161216112-116038     161216006009681820246TCS CARRIER BAG MIDI   0000001000+00000035+00000+0001T   00000035+0000001251          1400 YV4090               1AZ
161217000161217               161217               170213HX     1400+00000+HX0000001753+0000001753+000000000+000000246+0000001990+0000000009+I20000000000+0000001990+Z
161217001161217077-000309     161217006001023608604GIFT-BAG 25X32CM GLOSS 0000001000+00001753+00000+0001T   00001753+0000001254          1400 YV4112               1AZ
161218000161218               161218               170213HX     1400+00000+HX0000020785+0000020785+000000000+000002912+0000023697+0000000000+I40000023697+0000000000+Z
161218001161218562-088354     161218006001023735980EVA MAT 26PC 30x30cm   0000001000+00016665+00000+0001T   00016665+0000001258          1400 YV4755               1AZ
161218002161218034-078833     161218006001023857491SIGN BABY-ON-BOARD     0000001000+00001490+00000+0001T   00001490+0000001258          1400 YV4215               1AZ
161218003161218056-065303     161218006001023821041SUN-SHIELD 2PCE ANIMAL 0000001000+00002630+00000+0001T   00002630+0000001258          1400 YV4860               1AZ
161219000161219               161219               170213HX     1400+00000+HX0000005260+0000005260+000000000+000000737+0000005997+0000000000+I40000005997+0000000000+Z
161219001161219133-000017     161219006003000525171CLEANING-CLOTHS 5PCE   0000001000+00003507+00000+0001T   00003507+0000001303          1400 YV4212               1AZ
161219002161219027-783000     161219006001023874641SCOURERS RAINBOW 5PCE  0000001000+00001753+00000+0001T   00001753+0000001303          1400 YV4212               1AZ
161220000161220               161220               170213HX     1400+00000+HX0000007488+0000007488+000000000+000001049+0000008537+0000000000+I40000008537+0000000000+Z
161220001161220039-000798     161220006001023617774CANDLES TEALITE BOX-50 0000001000+00006139+00000+0001T   00006139+0000001306          1400 YV4510               1AZ
161220002161220903-000194     161220006009826020616SWT CHOC RP LOLLY 25G  0000001000+00001314+00000+0001T   00001314+0000001306          1400 YV4150               1AZ
161220003161220112-116038     161220006009681820246TCS CARRIER BAG MIDI   0000001000+00000035+00000+0001T   00000035+0000001306          1400 YV4090               1AZ
161221000161221               161221               170213HX     1400+00000+HX0000000876+0000000876+000000000+000000123+0000000990+0000000009+I20000000000+0000000990+Z
161221001161221903-000482     161221006001704001397SWT SOFT-MINTS 60G     0000001000+00000876+00000+0001T   00000876+0000001314          1400 YV4150               1AZ
161222000161222               161222               170213HX     1400+00000+HX0000006574+0000006574+000000000+000000921+0000007495+0000000000+I40000007495+0000000000+Z
161222001161222080-000114     161222006003000246472CARD&ENV LOVE-MUSICAL  0000001000+00001314+00000+0001T   00001753+0008151325          1400 YV4112               1AZ
161222002161222004-071205     161222006003000073368USB 2.0 COMPUTER 4 HUB 0000001000+00003507+00000+0001T   00003507+0000001325          1400 YV4310               1AZ
161222003161222047-001337-H   161222006001023429971INS-TAPE 20m BLACK     0000001000+00001753+00000+0001T   00001753+0000001325          1400 YV4880               1AZ
161223000161223               161223               170213HX     1400+00000+HX0000008681+0000008681+000000000+000001237+0000009918+0000000000+I40000009918+0000000000+Z
161223001161223903-000183     161223006003000451043SWT LB HEART LOLLY     0000022000+00000393+00000+0001T   00000393+0000001335          1400 YV4150               1AZ
161223002161223112-116038     161223006009681820246TCS CARRIER BAG MIDI   0000001000+00000035+00000+0001T   00000035+0000001335          1400 YV4090               1AZ
161224000161224               161224               170213HX     1400+00000+HX0000008627+0000008627+000000000+000001209+0000009830+0000000006+I20000000000+0000009830+Z
161224001161224903-000504     161224006001704012416SWT CHOC JELLY BEANS   0000002000+00001227+00000+0001T   00001227+0000001346          1400 YV4150               1AZ
161224002161224031-005921     161224006001023667847P/FRAME PL PLAIN       0000001000+00004385+00000+0001T   00004385+0000001346          1400 YV4510               1AZ
161224003161224031-005820     161224006001023667816P/FRAME-CLIP 15X20CM   0000001000+00001753+00000+0001T   00001753+0000001346          1400 YV4510               1AZ
161224004161224112-116038     161224006009681820246TCS CARRIER BAG MIDI   0000001000+00000035+00000+0001T   00000035+0000001346          1400 YV4090               1AZ
161225000161225               161225               170213HX     1400+00000+HX0000005908+0000005908+000000000+000000828+0000006730+0000000006+I20000000000+0000006730+Z
161225001161225077-000303     161225006001023593757GIFT-BAG PAPER MED     0000001000+00001578+00000+0001T   00001578+0000001350          1400 YV4112               1AZ
161225002161225031-000002-A   161225006003000247103P/FRAME LOVE 7.5X7.5CM 0000001000+00003507+00000+0001T   00003507+0000001350          1400 YV4510               1AZ
161225003161225903-000200     161225006009826020234SWT CHOC RP CHOCO 23G  0000001000+00000788+00000+0001T   00000788+0000001350          1400 YV4150               1AZ
161225004161225112-116038     161225006009681820246TCS CARRIER BAG MIDI   0000001000+00000035+00000+0001T   00000035+0000001350          1400 YV4090               1AZ
161226000161226               161226               170213HX     1400+00000+HX0000004120+0000004120+000000000+000000578+0000004690+0000000008+I20000000000+0000004690+Z
161226001161226567-011915     161226009780799375503BK EDU WISKUNDE 7-8JAAR0000001000+00002630+00000+0001T   00002630+0000001354          1400 YV4757               1AZ
161226002161226567-014133     161226006003000560103BOOK COLOURING 48 PAGE 0000001000+00001490+00000+0001T   00001490+0000001354          1400 YV4757               1AZ
161227000161227               161227               170213HX     1400+00000+HX0000001753+0000001753+000000000+000000246+0000001990+0000000009+I20000000000+0000001990+Z
161227001161227079-000012     161227006001023655332P/CRAYONS 12-COL LONG  0000001000+00001753+00000+0001T   00001753+0000001358          1400 YV4130               1AZ
161228000161228               161228               170213HX     1400+00000+HX0000006139+0000006139+000000000+000000860+0000006990+0000000009+I20000000000+0000006990+Z
161228001161228035-000021     161228006002596020206UMBRELLA GENTS         0000001000+00006139+00000+0001T   00006139+0000001407          1400 YV4205               1AZ
161229000161229               161229               170213HX     1400+00000+HX0000005297+0000005297+000000000+000000742+0000006030+0000000009+I20000000000+0000006030+Z
161229001161229562-000211     161229006001023851536PUSH-IN BOARD ALPHABET 0000001000+00005262+00000+0001T   00005262+0000001408          1400 YV4755               1AZ
161229002161229112-116038     161229006009681820246TCS CARRIER BAG MIDI   0000001000+00000035+00000+0001T   00000035+0000001408          1400 YV4090               1AZ
161230000161230               161230               170213HX     1400+00000+HX0000000613+0000000613+000000000+000000086+0000000690+0000000009+I20000000000+0000000690+Z
161230001161230200-000065     161230006001023323675DRINKING-STRAWS 38PCE  0000001000+00000613+00000+0001T   00000613+0000001410          1400 YV4214               1AZ
161231000161231               161231               170213HX     1400+00000+HX0000005173+0000005173+000000000+000000725+0000005890+0000000008+I20000000000+0000005890+Z
161231001161231368-000049     161231006003000536955PLUSH BEAR 15cm LOVE   0000001000+00004385+00000+0001T   00004385+0000001411          1400 YV4745               1AZ
161231002161231903-000200     161231006009826020234SWT CHOC RP CHOCO 23G  0000001000+00000788+00000+0001T   00000788+0000001411          1400 YV4150               1AZ
161232000161232               161232               170213HX     1400+00000+HX0000005699+0000005699+000000000+000000798+0000006497+0000000000+I40000006497+0000000000+Z
161232001161232007-000095     161232006003000530434ENVELOPES WHITE 20PK C60000001000+00002192+00000+0001T   00002192+0000001414          1400 YV4130               1AZ
161232002161232566-000561     161232006003000068715S/BOOK PAPER CRAFT 12SH0000001000+00003507+00000+0001T   00003507+0000001414          1400 YV4130               1AZ
161233000161233               161233               170213HX     1400+00000+HX0000001753+0000001753+000000000+000000246+0000001990+0000000009+I20000000000+0000001990+Z
161233001161233077-000290     161233006001023902023GIFT BOX 26x32x13cm    0000001000+00001753+00000+0001T   00001753+0000001431          1400 YV4112               1AZ
161234000161234               161234               170213HX     1400+00000+HX0000003507+0000003507+000000000+000000491+0000003990+0000000008+I20000000000+0000003990+Z
161234001161234565-000876     161234006003000305759NOVELTY FUNKY SUNGLASS 0000001000+00003507+00000+0001T   00003507+0000001455          1400 YV4745               1AZ
161235000161235               161235               170213HX     1400+00000+HX0000013156+0000013156+000000000+000001842+0000014998+0000000000+I40000014998+0000000000+Z
161235001161235261-003906     161235006003000472376RIFLE 57cm +ACCESS 8PCE0000001000+00008771+00000+0001T   00008771+0000001457          1400 YV4710               1AZ
161235002161235261-003342     161235006001023484895GUN RIFLE ACTION-TEAM  0000001000+00004385+00000+0001T   00004385+0000001457          1400 YV4710               1AZ
161236000161236               161236               170213HX     1400+00000+HX0000002016+0000002016+000000000+000000283+0000002290+0000000009+I20000000000+0000002290+Z
161236001161236106-001118     161236006009654960320WATER BOTTLE PL 500ml  0000001000+00002016+00000+0001T   00002016+0000001458          1400 YV4210               1AZ
161237000161237               161237               170213HX     1400+00000+HX0000009820+0000009820+000000000+000001376+0000011190+0000000006+I20000000000+0000011190+Z
161237001161237565-000085     161237006003000643332NOVELTY BEEDZ 10g      0000004000+00002455+00000+0001T   00002455+0000001529          1400 YV4745               1AZ
161238000161238               161238               170213HX     1400+00000+HX0000001753+0000001753+000000000+000000246+0000001990+0000000009+I20000000000+0000001990+Z
161238001161238903-000211     161238006002099001238SWT GS MALLOW ICE CREAM0000001000+00001753+00000+0001T   00001753+0000001530          1400 YV4150               1AZ
161239000161239               161239               170213HX     1400+00000+HX0000017589+0000017589+000000000+000002464+0000020050+0000000003+I20000000000+0000020050+Z
161239001161239361-003370     161239006001023793676DOLL 29cm MOTHER+BABY  0000001000+00015788+00000+0001T   00015788+0000001539          1400 YV4725               1AZ
161239002161239903-000926     161239006914204004556SWT NOVELTY ST N/LACE  0000001000+00001753+00000+0001T   00001753+0000001539          1400 YV4150               1AZ
161239003161239112-116069     161239006009681820277TCS CARRIER BAG JUMBO  0000001000+00000048+00000+0001T   00000048+0000001539          1400 YV4090               1AZ
161240000161240               161240               170213HX     1400+00000+HX0000003945+0000003945+000000000+000000553+0000004490+0000000008+I20000000000+0000004490+Z
161240001161240077-000299-A   161240006003000670888GIFT-BAG PAPER JMB LOVE0000001000+00001753+00000+0001T   00001753+0000001549          1400 YV4112               1AZ
161240002161240077-000926     161240006003000414178G/WRAP 700mmx2m LOVE   0000001000+00002192+00000+0001T   00002192+0000001549          1400 YV4112               1AZ
161241000161241               161241               170213HX     1400+00000+HX0000003507+0000003507+000000000+000000491+0000003990+0000000008+I20000000000+0000003990+Z
161241001161241079-000286     161241006001023797032FINGER-PAINT 4PCE      0000001000+00003507+00000+0001T   00003507+0000001557          1400 YV4130               1AZ
161242000161242               161242               170213HX     1400+00000+HX0000011448+0000011448+000000000+000001604+0000013050+0000000002+I20000000000+0000013050+Z
161242001161242566-000997     161242006001023554086STICKERS TATTOOS BOOK  0000001000+00003507+00000+0001T   00003507+0000001623          1400 YV4130               1AZ
161242002161242562-000019     161242006001023800305EDU PLAY DOUGH BOXED   0000001000+00007893+00000+0001T   00008771+0008191623          1400 YV4755               1AZ
161242003161242112-116069     161242006009681820277TCS CARRIER BAG JUMBO  0000001000+00000048+00000+0001T   00000048+0000001623          1400 YV4090               1AZ
161243000161243               161243               170213HX     1400+00000+HX0000008802+0000008802+000000000+000001233+0000010035+0000000000+I40000010035+0000000000+Z
161243001161243112-116038     161243006009681820246TCS CARRIER BAG MIDI   0000001000+00000035+00000+0001T   00000035+0000001626          1400 YV4090               1AZ
161243002161243077-000357     161243006003000139354GIFT-BAG 18X23CM B/DAY 0000001000+00001753+00000+0001T   00001753+0000001626          1400 YV4112               1AZ
161243003161243018-005009     161243006001023725608MUG W/PLUSH-BEAR LOVE  0000001000+00003507+00000+0001T   00003507+0000001626          1400 YV4515               1AZ
161243004161243301-085004     161243006003000420469ORN LOVE PLAQUE 21X10CM0000001000+00003507+00000+0001T   00003946+0006471626          1400 YV4505               1AZ
161244000161244               161244               170213HX     1400+00000+HX0000000876+0000000876+000000000+000000123+0000000990+0000000009+I20000000000+0000000990+Z
161244001161244077-000408     161244006003000145218G/BAG PP 15X21X7CM     0000001000+00000876+00000+0001T   00000876+0000001627          1400 YV4112               1AZ
161245000161245               161245               170213HX     1400+00000+HX0000013615+0000013615+000000000+000001913+0000015528+0000000000+I40000015528+0000000000+Z
161245001161245112-116038     161245006009681820246TCS CARRIER BAG MIDI   0000001000+00000035+00000+0001T   00000035+0000001653          1400 YV4090               1AZ
161245002161245162-010778     161245006001492107783#TAG LDS H/BAND ANIMAL 0000001000+00002630+00000+0001T   00002630+0000001653          1400 YV4160               1AZ
161245003161245903-000138     161245006002099004314SWT GS WINE GUMS 60G   0000001000+00000788+00000+0001T   00000788+0000001653          1400 YV4150               1AZ
161245004161245903-005001     161245006002580020014SWT CT MALLOW MICE 120g0000001000+00001314+00000+0001T   00001314+0000001653          1400 YV4150               1AZ
161245005161245903-000200     161245006009826020234SWT CHOC RP CHOCO 23G  0000005000+00000788+00000+0001T   00000788+0000001653          1400 YV4150               1AZ
161245006161245903-000111     161245006001704006378SWT LIQUORICE-TWISTS   0000001000+00001227+00000+0001T   00001227+0000001653          1400 YV4150               1AZ
161245007161245903-002891     161245008935001721376MENTOS GUM WINTERGREEN 0000001000+00001051+00000+0001T   00001051+0000001653          1400 YV4150               1AZ
161245008161245565-000041     161245006008766115642NOVELTY BALL ICON 5.5cm0000001000+00002630+00000+0001T   00002630+0000001653          1400 YV4745               1AZ
161246000161246               161246               170213HX     1400+00000+HX0000003904+0000003904+000000000+000000548+0000004450+0000000002+I20000000000+0000004450+Z
161246001161246077-000299-A   161246006003000670888GIFT-BAG PAPER JMB LOVE0000001000+00001753+00000+0001T   00001753+0000001702          1400 YV4112               1AZ
161246002161246018-000127     161246006001023380289MUG OCC STRAIGHT LOVE  0000001000+00001578+00000+0001T   00001753+0006471702          1400 YV4515               1AZ
161246003161246903-000151     161246006009803374411SWT SML RND R/BOW LOLLY0000001000+00000525+00000+0001T   00000525+0000001702          1400 YV4150               1AZ
161246004161246112-116069     161246006009681820277TCS CARRIER BAG JUMBO  0000001000+00000048+00000+0001T   00000048+0000001702          1400 YV4090               1AZ
161247000161247               161247               170213HX     1400+00000+HX0000003506+0000003506+000000000+000000492+0000003990+0000000008+I20000000000+0000003990+Z
161247001161247077-000116     161247006003000240777GIFT-WRAP 700mmx2m COL 0000002000+00001753+00000+0001T   00001753+0000001703          1400 YV4112               1AZ
161248000161248               161248               170213HX     1400+00000+HX0000010546+0000010546+000000000+000001478+0000012024+0000000000+I40000012024+0000000000+Z
161248001161248112-116038     161248006009681820246TCS CARRIER BAG MIDI   0000001000+00000035+00000+0001T   00000035+0000001706          1400 YV4090               1AZ
161248002161248200-003024     161248006001023657299REFUSE BAGS 20PCE BLACK0000001000+00001753+00000+0001T   00001753+0000001706          1400 YV4214               1AZ
161248003161248903-000137     161248006002099004130SWEET GS JELLY BEAN 60G0000001000+00000788+00000+0001T   00000788+0000001706          1400 YV4150               1AZ
161248004161248903-000120     161248006002099001665SWEET GS ZILLIONS 50g  0000001000+00000700+00000+0001T   00000700+0000001706          1400 YV4150               1AZ
161248005161248903-000070     161248006001704001106SWT TOFFEE CREAMY 35g  0000001000+00000700+00000+0001T   00000700+0000001706          1400 YV4150               1AZ
161248006161248903-000194     161248006009826020616SWT CHOC RP LOLLY 25G  0000005000+00001314+00000+0001T   00001314+0000001706          1400 YV4150               1AZ
A17021300                                          09512280HXSLAVE 1                       YV42IC
M17021391                              CASH        HXSLAVE 1                       Z-REPORT No.   578TOTAL (Sales - Refunds)           5642.21       CASH TO BE BANKED                 3920.60       DEBIT CARDS                          0.00       CREDIT CARDS                      1721.61       Z-READING                         5642.21       AIRTIME DEBIT CARD SALES             0.00       AIRTIME CARD SALES                   0.00       OVERS/UNDERS                         0.00       AIRTIME CASH SALES                   0.00       GIFT CARDS                           0.00       GIFT CARD CASH SALES                 0.00       T O T A L  CASH PAYOUTS              0.00                                                                                                                                                                                                                                                                                                                                                      Z
M17021392                              CASH        HXABSENT                                                                                                                                                                                          ANNUAL LEAVE                                                                                                                                                                                    DAY OFF                                                                                                                                                                                         COMMENTS          LAST CASH TILL SLIP NO;161248                                                                                                                                                                                                                                                                                                                                                Z
Y17021300                                          HX00010700495127+000053
ZHX17021319493 SLAVE 1      SALES DATA                     NEXT INVOICE NO.  161249 0578
X HX Slave 1 First invoice 161196 170213 Last invoice 161248 170213 Next invoice 161249 Total number of records 000000200 clbackup completed 19:49:30
