170283000170283               170283               170213HX     1400+00000+HX0000018899+0000018899+000000000+000002649+0000021540+0000000008+I20000000000+0000021540+Z
170283001170283466-000200     170283006001023621665HULA-HOOP     ASSTD    0000002000+00001753+00000+0001T   00001753+0000000813          1400 RT6785               2AZ
170283002170283567-014135     170283006003000560264BOOK COLOURING 240P    0000001000+00003069+00000+0001T   00003507+0008190813          1400 RT6757               2AZ
170283003170283466-000515     170283006001023477408BALLS TENNIS BAG-OF-3  0000001000+00002630+00000+0001T   00002630+0000000813          1400 RT6785               2AZ
170283004170283267-000233     170283006001023688576PUZZLE 48pc EDUCATIONAL0000001000+00003507+00000+0001T   00003507+0000000813          1400 RT6755               2AZ
170283005170283261-003903     170283006001023827746GUN SET ARMY ASSTD     0000001000+00006139+00000+0001T   00006139+0000000813          1400 RT6710               2AZ
170283006170283112-116069     170283006009681820277TCS CARRIER BAG JUMBO  0000001000+00000048+00000+0001T   00000048+0000000813          1400 RT6090               2AZ
170284000170284               170284               170213HX     1400+00000+HX0000004822+0000004822+000000000+000000676+0000005490+0000000008+I20000000000+0000005490+Z
170284001170284031-000864-A   170284006001023798350P/FRAME MAHOGANY 10X15 0000001000+00003069+00000+0001T   00003069+0000000846          1400 RT6510               2AZ
170284002170284019-000103     170284006003000280957VASE GLASS BUD 14CM ASS0000001000+00001753+00000+0001T   00001753+0000000846          1400 RT6510               2AZ
170285000170285               170285               170213HX     1400+00000+HX0000016516+0000016516+000000000+000002315+0000018830+0000000001+I20000000000+0000018830+Z
170285001170285018-000129     170285006001023403353MUG OCC. LOVE V-SHAPE  0000002000+00002630+00000+0001T   00002630+0000000913          1400 RT6515               2AZ
170285002170285039-809558     170285006003000344376CANDLE PILLAR 12CM 4AST0000001000+00006139+00000+0001T   00006139+0000000913          1400 RT6510               2AZ
170285003170285077-000303     170285006001023593757GIFT-BAG PAPER MED     0000001000+00001578+00000+0001T   00001578+0000000913          1400 RT6112               2AZ
170285004170285077-000011-E   170285006001023808646TISSUE-WRAP PINK 10PCE 0000001000+00000876+00000+0001T   00000876+0000000913          1400 RT6112               2AZ
170285005170285903-005002     170285006002580020021SWT MALLOW SNAKE 120g  0000001000+00001314+00000+0001T   00001314+0000000913          1400 RT6150               2AZ
170285006170285903-005001     170285006002580020014SWT CT MALLOW MICE 120g0000001000+00001314+00000+0001T   00001314+0000000913          1400 RT6150               2AZ
170285007170285112-116038     170285006009681820246TCS CARRIER BAG MIDI   0000001000+00000035+00000+0001T   00000035+0000000913          1400 RT6090               2AZ
170286000170286               170286               170213HX     1400+00000+HX0000014911+0000014911+000000000+000002088+0000016990+0000000009+I20000000000+0000016990+Z
170286001170286031-001001     170286006003000253265P/FRAME COL FAM-TREE   0000001000+00014911+00000+0001T   00014911+0000000917          1400 RT6510               2AZ
170287000170287               170287               170213HX     1400+00000+HX0000003465+0000003465+000000000+000000487+0000003950+0000000002+I20000000000+0000003950+Z
170287001170287366-007600     170287006001023902184MASK THEATRICAL GLITTER0000001000+00001753+00000+0001T   00001753+0000000922          1400 RT6131               2AZ
170287002170287006-000812     170287006001023902832HAT CONE WITH TINSEL   0000001000+00000876+00000+0001T   00000876+0000000922          1400 RT6131               2AZ
170287003170287112-116069     170287006009681820277TCS CARRIER BAG JUMBO  0000001000+00000048+00000+0001T   00000048+0000000922          1400 RT6090               2AZ
170287004170287903-000138     170287006002099004314SWT GS WINE GUMS 60G   0000001000+00000788+00000+0001T   00000788+0000000922          1400 RT6150               2AZ
170288000170288               170288               170213HX     1400+00000+HX0000012304+0000012304+000000000+000001726+0000014030+0000000000+I20000000000+0000014030+Z
170288001170288206-000280     170288006003000632428COCKTAIL STIRRER 6PCS  0000002000+00002630+00000+0001T   00002630+0000000931          1400 RT6321               2AZ
170288002170288112-116038     170288006009681820246TCS CARRIER BAG MIDI   0000001000+00000035+00000+0001T   00000035+0000000931          1400 RT6090               2AZ
170288003170288200-000066     170288006003000365975STRAWS 12PCE W/UMBRELLA0000002000+00001314+00000+0001T   00001314+0000000931          1400 RT6214               2AZ
170288004170288002-021057     170288006001023812032T/PICKS UMBRELLAS 10PCE0000003000+00000876+00000+0001T   00000876+0000000931          1400 RT6300               2AZ
170288005170288039-000114     170288006001023524058CANDLE T/LITE RED 3.5CM0000001000+00001753+00000+0001T   00001753+0000000931          1400 RT6510               2AZ
170289000170289               170289               170213HX     1400+00000+HX0000007049+0000007049+000000000+000000988+0000008037+0000000000+I40000008037+0000000000+Z
170289001170289200-000060     170289006001023625762STRAWS 18cm FLEX 200PCE0000001000+00002455+00000+0001T   00002455+0000000933          1400 RT6214               2AZ
170289002170289079-130100     170289006003000542635A&C DIY COLOUR EYES 24P0000001000+00001490+00000+0001T   00001490+0000000933          1400 RT6130               2AZ
170289003170289079-013106     170289006003000081998ART+CRAFT PIPE-CLEANERS0000001000+00003069+00000+0001T   00003069+0000000933          1400 RT6130               2AZ
170289004170289112-116038     170289006009681820246TCS CARRIER BAG MIDI   0000001000+00000035+00000+0001T   00000035+0000000933          1400 RT6090               2AZ
170290000170290               170290               170213HX     1400+00000+HX0000015361+0000015361+000000000+000002151+0000017510+0000000002+I20000000000+0000017510+Z
170290001170290112-116038     170290006009681820246TCS CARRIER BAG MIDI   0000001000+00000035+00000+0001T   00000035+0000000934          1400 RT6090               2AZ
170290002170290006-000166-C   170290006003000516377BALLOONS LRG 6PC PINK  0000004000+00001314+00000+0001T   00001314+0000000934          1400 RT6131               2AZ
170290003170290006-000167-D   170290006003000517091BALLOONS PRPLE METALLIC0000005000+00001314+00000+0001T   00001314+0000000934          1400 RT6131               2AZ
170290004170290903-000070     170290006001704001106SWT TOFFEE CREAMY 35g  0000005000+00000700+00000+0001T   00000700+0000000934          1400 RT6150               2AZ
170291000170291               170291               170213HX     1400+00000+HX0000008770+0000008770+000000000+000001228+0000009990+0000000008+I20000000000+0000009990+Z
170291001170291104-000135     170291006001023846419WASTEBIN SWING-LID 28cm0000002000+00004385+00000+0001T   00004385+0000000935          1400 RT6210               2AZ
170292000170292               170292               170213HX     1400+00000+HX0000004679+0000004679+000000000+000000656+0000005335+0000000000+I40000005335+0000000000+Z
170292001170292112-116038     170292006009681820246TCS CARRIER BAG MIDI   0000001000+00000035+00000+0001T   00000035+0000000945          1400 RT6090               2AZ
170292002170292028-000795     170292006001023812063SKEWERS 10cm 100PCE 3mm0000003000+00000964+00000+0001T   00000964+0000000945          1400 RT6305               2AZ
170292003170292028-000797     170292006001023812124SKEWERS 15cm 100PCE    0000002000+00000876+00000+0001T   00000876+0000000945          1400 RT6305               2AZ
170293000170293               170293               170213HX     1400+00000+HX0000023287+0000023287+000000000+000003262+0000026549+0000000000+I40000026549+0000000000+Z
170293001170293112-116069     170293006009681820277TCS CARRIER BAG JUMBO  0000001000+00000048+00000+0001T   00000048+0000000948          1400 RT6090               2AZ
170293002170293104-000053     170293006003000011193BASKET PL 25X32X6cm    0000002000+00004385+00000+0001T   00004385+0000000948          1400 RT6210               2AZ
170293003170293369-001032     170293006001023796158BABY RATTLE SET 6PCE   0000001000+00004385+00000+0001T   00004385+0000000948          1400 RT6745               2AZ
170293004170293071-001238     170293000060107212485ERASERS  3PCE    CARDED0000001000+00000876+00000+0001T   00000876+0000000948          1400 RT6130               2AZ
170293005170293464-009009     170293006003000647552FISHING DUCKS MAGNETIC 0000001000+00003069+00000+0001T   00003069+0000000948          1400 RT6785               2AZ
170293006170293361-090308     170293006003000234936PONY W/DOLL SML 7cm    0000001000+00006139+00000+0001T   00006139+0000000948          1400 RT6725               2AZ
170294000170294               170294               170213HX     1400+00000+HX0000004385+0000004385+000000000+000000614+0000004990+0000000009+I20000000000+0000004990+Z
170294001170294369-001032     170294006001023796158BABY RATTLE SET 6PCE   0000001000+00004385+00000+0001T   00004385+0000001015          1400 RT6745               2AZ
170295000170295               170295               170213HX     1400+00000+HX0000005085+0000005085+000000000+000000712+0000005790+0000000007+I20000000000+0000005790+Z
170295001170295077-000303     170295006001023593757GIFT-BAG PAPER MED     0000001000+00001578+00000+0001T   00001578+0000001036          1400 RT6112               2AZ
170295002170295018-000136     170295006001023659026MUG OCC LOVE W/PLUSH   0000001000+00003507+00000+0001T   00003507+0000001036          1400 RT6515               2AZ
170296000170296               170296               170213HX     1400+00000+HX0000001578+0000001578+000000000+000000221+0000001790+0000000009+I20000000000+0000001790+Z
170296001170296078-013424     170296006008741000338CONTACT-ADHESIVE 50ml  0000001000+00001578+00000+0001T   00001578+0000001040          1400 RT6810               2AZ
170297000170297               170297               170213HX     1400+00000+HX0000001525+0000001525+000000000+000000214+0000001730+0000000009+I20000000000+0000001730+Z
170297001170297106-001100-B   170297006001023651693FRIDGE BOTTLE ASSORTED 0000001000+00001490+00000+0001T   00001490+0000001058          1400 RT6210               2AZ
170297002170297112-116038     170297006009681820246TCS CARRIER BAG MIDI   0000001000+00000035+00000+0001T   00000035+0000001058          1400 RT6090               2AZ
170298000170298               170298               170213HX     1400+00000+HX0000004385+0000004385+000000000+000000614+0000004990+0000000009+I20000000000+0000004990+Z
170298001170298368-000001     170298006003000097982Plush Bear 25cm        0000001000+00004385+00000+0001T   00004385+0000001107          1400 RT6745               2AZ
170299000170299               170299               170213HX     1400+00000+HX0000002192+0000002192+000000000+000000307+0000002490+0000000009+I20000000000+0000002490+Z
170299001170299032-000336     170299006001023369109MIRROR HANGING MAGNETIC0000001000+00002192+00000+0001T   00002192+0000001108          1400 RT65101IC            2AZ
170300000170300               170300               170213HX     1400+00000+HX0000008101+0000008101+000000000+000001135+0000009230+0000000006+I20000000000+0000009230+Z
170300001170300562-000020     170300006003000600861EDU PLAY DOUGH 60g 4PC 0000001000+00003507+00000+0001T   00003507+0000001118          1400 RT6755               2AZ
170300002170300019-071610     170300006001023904560PEBBLES WATER GEMS 10g 0000001000+00001490+00000+0001T   00001490+0000001118          1400 RT6510               2AZ
170300003170300079-013106     170300006003000081998ART+CRAFT PIPE-CLEANERS0000001000+00003069+00000+0001T   00003069+0000001118          1400 RT6130               2AZ
170300004170300112-116038     170300006009681820246TCS CARRIER BAG MIDI   0000001000+00000035+00000+0001T   00000035+0000001118          1400 RT6090               2AZ
170301000170301               170301               170213HX     1400+00000+HX0000013157+0000013157+000000000+000001842+0000014990+0000000009+I20000000000+0000014990+Z
170301001170301497-068615     170301000078257686155H/PUMP HIGH-O/PUT 48cm 0000001000+00013157+00000+0001T   00013157+0000001139          1400 RT6787               2AZ
170302000170302               170302               170213HX     1400+00000+HX0000002192+0000002192+000000000+000000307+0000002490+0000000009+I20000000000+0000002490+Z
170302001170302056-005719     170302006001023820983CAR AIR-FRESHENER ASSTD0000001000+00002192+00000+0001T   00002192+0000001144          1400 RT6860               2AZ
170303000170303               170303               170213HX     1400+00000+HX0000001314+0000001314+000000000+000000184+0000001490+0000000008+I20000000000+0000001490+Z
170303001170303077-000470     170303006003000330171G-BAG DESGN SML 11X14CM0000001000+00001314+00000+0001T   00001314+0000001145          1400 RT6112               2AZ
170304000170304               170304               170213HX     1400+00000+HX0000001139+0000001139+000000000+000000160+0000001299+0000000000+I40000001299+0000000000+Z
170304001170304903-000710     170304006002099007056SWT REFRESHERS MINT    0000001000+00001139+00000+0001T   00001139+0000001149          1400 RT6150               2AZ
170305000170305               170305               170213HX     1400+00000+HX0000007049+0000007049+000000000+000000987+0000008030+0000000006+I20000000000+0000008030+Z
170305001170305463-000128     170305006003000109500SWIM CAP SILICONE ASSTD0000002000+00003507+00000+0001T   00003507+0000001155          1400 RT6785               2AZ
170305002170305112-116038     170305006009681820246TCS CARRIER BAG MIDI   0000001000+00000035+00000+0001T   00000035+0000001155          1400 RT6090               2AZ
170306000170306               170306               170213HX     1400+00000+HX0000006255+0000006255+000000000+000000876+0000007130+0000000001+I20000000000+0000007130+Z
170306001170306903-000843     170306008693029031067SWT GUMMY JELAXY 80G   0000001000+00000964+00000+0001T   00000964+0000001325          1400 RT6150               2AZ
170306002170306903-000194     170306006009826020616SWT CHOC RP LOLLY 25G  0000004000+00001314+00000+0001T   00001314+0000001325          1400 RT6150               2AZ
170306003170306112-116038     170306006009681820246TCS CARRIER BAG MIDI   0000001000+00000035+00000+0001T   00000035+0000001325          1400 RT6090               2AZ
170307000170307               170307               170213HX     1400+00000+HX0000001314+0000001314+000000000+000000184+0000001490+0000000008+I20000000000+0000001490+Z
170307001170307080-000114     170307006003000246472CARD&ENV LOVE-MUSICAL  0000001000+00001314+00000+0001T   00001753+0008151334          1400 RT6112               2AZ
170308000170308               170308               170213HX     1400+00000+HX0000004417+0000004417+000000000+000000620+0000005030+0000000007+I20000000000+0000005030+Z
170308001170308047-000505     170308006009636901976PLUG-ADAPTOR 2-PIN     0000001000+00000876+00000+0001T   00000876+0000001336          1400 RT6880               2AZ
170308002170308903-000710     170308006002099007056SWT REFRESHERS MINT    0000001000+00001139+00000+0001T   00001139+0000001336          1400 RT6150               2AZ
170308003170308046-000015     170308006001023680839BATTERIES SIZE:D   2PCE0000001000+00002367+00000+0001T   00002367+0000001336          1400 RT6312               2AZ
170308004170308112-116038     170308006009681820246TCS CARRIER BAG MIDI   0000001000+00000035+00000+0001T   00000035+0000001336          1400 RT6090               2AZ
170309000170309               170309               170213HX     1400+00000+HX0000003541+0000003541+000000000+000000497+0000004030+0000000008+I20000000000+0000004030+Z
170309001170309562-088335     170309006003000425372EVA PUZZLE MAT MINI    0000002000+00001753+00000+0001T   00001753+0000001413          1400 RT6755               2AZ
170309002170309112-116038     170309006009681820246TCS CARRIER BAG MIDI   0000001000+00000035+00000+0001T   00000035+0000001413          1400 RT6090               2AZ
170310000170310               170310               170213HX     1400+00000+HX0000013711+0000013711+000000000+000001922+0000015633+0000000000+I40000015633+0000000000+Z
170310001170310112-116038     170310006009681820246TCS CARRIER BAG MIDI   0000001000+00000035+00000+0001T   00000035+0000001429          1400 RT6090               2AZ
170310002170310200-000065     170310006001023323675DRINKING-STRAWS 38PCE  0000001000+00000613+00000+0001T   00000613+0000001429          1400 RT6214               2AZ
170310003170310079-013101     170310006001023863706CRAFT SET DIY PIPE-CLNR0000001000+00002630+00000+0001T   00002630+0000001429          1400 RT6130               2AZ
170310004170310079-006522     170310006001023149442ART+CRAFT GLUE ASSORTED0000001000+00001753+00000+0001T   00001753+0000001429          1400 RT6130               2AZ
170310005170310562-000020     170310006003000600861EDU PLAY DOUGH 60g 4PC 0000001000+00003507+00000+0001T   00003507+0000001429          1400 RT6755               2AZ
170310006170310024-000092     170310006003000426805MEASURING-SET 6PC      0000001000+00003946+00000+0001T   00003946+0000001429          1400 RT6300               2AZ
170310007170310071-081091     170310006001151010287STAED/GENKEM ALL-STICK 0000001000+00001227+00000+0001T   00001227+0000001429          1400 RT6130               2AZ
170311000170311               170311               170213HX     1400+00000+HX0000001227+0000001227+000000000+000000172+0000001390+0000000009+I20000000000+0000001390+Z
170311001170311077-000245     170311006001023759214GIFT-RIBBON METALLICx2 0000001000+00001227+00000+0001T   00001227+0000001430          1400 RT6112               2AZ
170312000170312               170312               170213HX     1400+00000+HX0000002192+0000002192+000000000+000000307+0000002490+0000000009+I20000000000+0000002490+Z
170312001170312079-013102     170312006003000019601ART+CRAFT DIY PIPE-CLNR0000001000+00002192+00000+0001T   00002192+0000001500          1400 RT6130               2AZ
170313000170313               170313               170213HX     1400+00000+HX0000004207+0000004207+000000000+000000589+0000004790+0000000006+I20000000000+0000004790+Z
170313001170313564-000012     170313006001023130075BUBBLE BOTTLE MAGIC    0000001000+00000700+00000+0001T   00000700+0000001513          1400 RT6131               2AZ
170313002170313174-000314     170313006003000053575TRAVEL SEWING KIT      0000001000+00003507+00000+0001T   00003507+0000001513          1400 RT6205               2AZ
170314000170314               170314               170213HX     1400+00000+HX0000002015+0000002015+000000000+000000283+0000002290+0000000008+I20000000000+0000002290+Z
170314001170314033-005919     170314006003000154883SEWING THREAD 24cm ASST0000001000+00001490+00000+0001T   00001490+0000001514          1400 RT6200               2AZ
170314002170314002-021040     170314006001023812216PARTY-PICKS 100PCE     0000001000+00000525+00000+0001T   00000525+0000001514          1400 RT6300               2AZ
170315000170315               170315               170213HX     1400+00000+HX0000002629+0000002629+000000000+000000369+0000002990+0000000008+I20000000000+0000002990+Z
170315001170315903-000095     170315006001704011495SWT SPECKLED-EGGS 100G 0000001000+00002104+00000+0001T   00002104+0000001533          1400 RT6150               2AZ
170315002170315903-000151     170315006009803374411SWT SML RND R/BOW LOLLY0000001000+00000525+00000+0001T   00000525+0000001533          1400 RT6150               2AZ
170316000170316               170316               170213HX     1400+00000+HX0000006172+0000006172+000000000+000000865+0000007030+0000000007+I20000000000+0000007030+Z
170316001170316112-116038     170316006009681820246TCS CARRIER BAG MIDI   0000001000+00000035+00000+0001T   00000035+0000001538          1400 RT6090               2AZ
170316002170316041-093011     170316006003000385485BATH GIFT SET BUBBLE   0000001000+00003507+00000+0001T   00003507+0000001538          1400 RT6200               2AZ
170316003170316306-000957     170316006003000558995FIRSTAID PLASTER 8PC   0000001000+00002630+00000+0001T   00002630+0000001538          1400 RT6200               2AZ
170317000170317               170317               170213HX     1400+00000+HX0000003155+0000003155+000000000+000000443+0000003590+0000000008+I20000000000+0000003590+Z
170317001170317088-000084     170317006001023798060P/POURRI 120G ASSTD    0000001000+00001753+00000+0001T   00001753+0000001540          1400 RT6212               2AZ
170317002170317304-001204     170317006001023737984FLOWER OCC. TEDDY/ROSES0000001000+00001402+00000+0001T   00001490+0006471540          1400 RT6510               2AZ
170318000170318               170318               170213HX     1400+00000+HX0000003507+0000003507+000000000+000000491+0000003990+0000000008+I20000000000+0000003990+Z
170318001170318079-014101     170318006001023908612ART+CRAFT SCOUBIDOUx50 0000001000+00003507+00000+0001T   00003507+0000001544          1400 RT6130               2AZ
170319000170319               170319               170213HX     1400+00000+HX0000012499+0000012499+000000000+000001752+0000014250+0000000001+I20000000000+0000014250+Z
170319001170319368-000614     170319006001023705808PLUSH LOVE 30cm        0000001000+00008771+00000+0001T   00008771+0000001550          1400 RT6745               2AZ
170319002170319018-000108     170319006001023380265MUG NOVELTY ICON ASST  0000001000+00001753+00000+0001T   00001753+0000001550          1400 RT6515               2AZ
170319003170319007-000119     170319006002324004126BOOK COVER PL          0000001000+00001051+00000+0001T   00001051+0000001550          1400 RT6130               2AZ
170319004170319007-000407     170319006009635831717BK JOTTER A5 48-PG F/M 0000001000+00000174+00000+0001T   00000174+0000001550          1400 RT6130               2AZ
170319005170319077-000290     170319006001023902023GIFT BOX 26x32x13cm    0000001000+00001753+00000+0001T   00001753+0000001550          1400 RT6112               2AZ
170319006170319007-000119     170319006002324004126BOOK COVER PL          0000001000-00001051+00000+0001T   00001051+0000001550          1400 RT61301IC            2 Z
170319007170319112-116069     170319006009681820277TCS CARRIER BAG JUMBO  0000001000+00000048+00000+0001T   00000048+0000001550          1400 RT6090               2AZ
170320000170320               170320               170213HX     1400+00000+HX0000003506+0000003506+000000000+000000492+0000003990+0000000008+I20000000000+0000003990+Z
170320001170320362-000315     170320006003000096008HAIR HEADBAND FLOWERS  0000002000+00001753+00000+0001T   00001753+0000001554          1400 RT6160               2AZ
170321000170321               170321               170213HX     1400+00000+HX0000005120+0000005120+000000000+000000717+0000005830+0000000007+I20000000000+0000005830+Z
170321001170321077-000303     170321006001023593757GIFT-BAG PAPER MED     0000001000+00001578+00000+0001T   00001578+0000001600          1400 RT6112               2AZ
170321002170321018-000136     170321006001023659026MUG OCC LOVE W/PLUSH   0000001000+00003507+00000+0001T   00003507+0000001600          1400 RT6515               2AZ
170321003170321112-116038     170321006009681820246TCS CARRIER BAG MIDI   0000001000+00000035+00000+0001T   00000035+0000001600          1400 RT6090               2AZ
170322000170322               170322               170213HX     1400+00000+HX0000002192+0000002192+000000000+000000307+0000002490+0000000009+I20000000000+0000002490+Z
170322001170322079-013102     170322006003000019601ART+CRAFT DIY PIPE-CLNR0000001000+00002192+00000+0001T   00002192+0000001606          1400 RT6130               2AZ
170323000170323               170323               170213HX     1400+00000+HX0000017934+0000017934+000000000+000002513+0000020447+0000000000+I40000020447+0000000000+Z
170323001170323065-001009     170323006001023712851XYLOPHONE 23cm         0000001000+00010525+00000+0001T   00010525+0000001611          1400 RT6745               2AZ
170323002170323112-116069     170323006009681820277TCS CARRIER BAG JUMBO  0000001000+00000048+00000+0001T   00000048+0000001611          1400 RT6090               2AZ
170323003170323903-000211     170323006002099001238SWT GS MALLOW ICE CREAM0000001000+00001753+00000+0001T   00001753+0000001611          1400 RT6150               2AZ
170323004170323903-005000     170323006002580020007SWT CT MALLOW FISH 120g0000001000+00001314+00000+0001T   00001314+0000001611          1400 RT6150               2AZ
170323005170323903-000138     170323006002099004314SWT GS WINE GUMS 60G   0000001000+00000788+00000+0001T   00000788+0000001611          1400 RT6150               2AZ
170323006170323903-004950     170323006002580020304SWT APRICOT SURPRISE   0000001000+00001314+00000+0001T   00001314+0000001611          1400 RT6150               2AZ
170323007170323563-000318-G   170323006003000404360SERVIETTES 33cm PINK   0000001000+00002192+00000+0001T   00002192+0000001611          1400 RT6214               2AZ
170324000170324               170324               170213HX     1400+00000+HX0000002980+0000002980+000000000+000000418+0000003398+0000000000+I40000003398+0000000000+Z
170324001170324304-001204     170324006001023737984FLOWER OCC. TEDDY/ROSES0000001000+00001402+00000+0001T   00001490+0006471613          1400 RT6510               2AZ
170324002170324077-000303     170324006001023593757GIFT-BAG PAPER MED     0000001000+00001578+00000+0001T   00001578+0000001613          1400 RT6112               2AZ
170325000170325               170325               170213HX     1400+00000+HX0000006172+0000006172+000000000+000000865+0000007037+0000000000+I40000007037+0000000000+Z
170325001170325018-000129     170325006001023403353MUG OCC. LOVE V-SHAPE  0000001000+00002630+00000+0001T   00002630+0000001619          1400 RT6515               2AZ
170325002170325018-005009     170325006001023725608MUG W/PLUSH-BEAR LOVE  0000001000+00003507+00000+0001T   00003507+0000001619          1400 RT6515               2AZ
170325003170325112-116038     170325006009681820246TCS CARRIER BAG MIDI   0000001000+00000035+00000+0001T   00000035+0000001619          1400 RT6090               2AZ
170326000170326               170326               170213HX     1400+00000+HX0000001753+0000001753+000000000+000000246+0000001990+0000000009+I20000000000+0000001990+Z
170326001170326301-085002     170326006003000420704ORN OCC. LOVE BELL ASST0000001000+00001753+00000+0001T   00002630+0008121621          1400 RT6505               2AZ
170327000170327               170327               170213HX     1400+00000+HX0000006174+0000006174+000000000+000000865+0000007039+0000000000+I40000007039+0000000000+Z
170327001170327301-000300     170327006003000456840ORN INSPIRATIONAL CROSS0000001000+00006139+00000+0001T   00006139+0000001623          1400 RT6505               2AZ
170327002170327112-116038     170327006009681820246TCS CARRIER BAG MIDI   0000001000+00000035+00000+0001T   00000035+0000001623          1400 RT6090               2AZ
170328000170328               170328               170213HX     1400+00000+HX0000012014+0000012014+000000000+000001683+0000013690+0000000007+I20000000000+0000013690+Z
170328001170328077-000299     170328006003000395576G/BAG 32x25cm LRG LOVE 0000001000+00001490+00000+0001T   00001490+0000001628          1400 RT6112               2AZ
170328002170328031-006533     170328006001023995865P/FRAME 32X18CM 2-HOLE 0000001000+00005262+00000+0001T   00005262+0000001628          1400 RT6510               2AZ
170328003170328018-017000     170328006003000541850MUG OCC. MOM JUMBO ASST0000001000+00005262+00000+0001T   00005262+0000001628          1400 RT6515               2AZ
170329000170329               170329               170213HX     1400+00000+HX0000000876+0000000876+000000000+000000123+0000000990+0000000009+I20000000000+0000000990+Z
170329001170329077-000314     170329006003000181148GIFT-BAG 11X14CM MATT  0000001000+00000876+00000+0001T   00000876+0000001638          1400 RT6112               2AZ
170330000170330               170330               170213HX     1400+00000+HX0000012234+0000012234+000000000+000001716+0000013950+0000000000+I20000000000+0000013950+Z
170330001170330266-003012     170330006001023786128BOYS P/SET ARCHERY 4pc 0000001000+00002630+00000+0001T   00002630+0000001640          1400 RT6710               2AZ
170330002170330366-002195     170330006001023990549DRESS UP WINGS FEATHER 0000001000+00005262+00000+0001T   00005262+0000001640          1400 RT6131               2AZ
170330003170330077-000408     170330006003000145218G/BAG PP 15X21X7CM     0000001000+00000876+00000+0001T   00000876+0000001640          1400 RT6112               2AZ
170330004170330089-000191     170330006003000430185KEY CHAIN BEAR 10CM    0000001000+00002630+00000+0001T   00002630+0000001640          1400 RT6205               2AZ
170330005170330903-000200     170330006009826020234SWT CHOC RP CHOCO 23G  0000001000+00000788+00000+0001T   00000788+0000001640          1400 RT6150               2AZ
170330006170330112-116069     170330006009681820277TCS CARRIER BAG JUMBO  0000001000+00000048+00000+0001T   00000048+0000001640          1400 RT6090               2AZ
170331000170331               170331               170213HX     1400+00000+HX0000003506+0000003506+000000000+000000492+0000003990+0000000008+I20000000000+0000003990+Z
170331001170331903-000610     170331006003000610518SWEET JUMBO BUBBLE GUM 0000002000+00001753+00000+0001T   00001753+0000001642          1400 RT6150               2AZ
170332000170332               170332               170213HX     1400+00000+HX0000003946+0000003946+000000000+000000553+0000004490+0000000009+I20000000000+0000004490+Z
170332001170332036-000013     170332006001246500860LINT REMOVER REFILLS   0000001000+00003946+00000+0001T   00003946+0000001643          1400 RT6212               2AZ
170333000170333               170333               170213HX     1400+00000+HX0000000832+0000000832+000000000+000000117+0000000940+0000000009+I20000000000+0000000940+Z
170333001170333159-000150-B   170333006005387002009SOAP-BOX PL ASSORTED   0000001000+00000832+00000+0001T   00000832+0000001643          1400 RT6200               2AZ
170334000170334               170334               170213HX     1400+00000+HX0000000437+0000000437+000000000+000000062+0000000490+0000000009+I20000000000+0000000490+Z
170334001170334080-000133-A   170334006003000647019MINI VALENTINES CARD   0000001000+00000437+00000+0001T   00000437+0000001644          1400 RT6112               2AZ
170335000170335               170335               170213HX     1400+00000+HX0000006698+0000006698+000000000+000000938+0000007636+0000000000+I40000007636+0000000000+Z
170335001170335077-000303     170335006001023593757GIFT-BAG PAPER MED     0000002000+00001578+00000+0001T   00001578+0000001648          1400 RT6112               2AZ
170335002170335018-000136     170335006001023659026MUG OCC LOVE W/PLUSH   0000001000+00003507+00000+0001T   00003507+0000001648          1400 RT6515               2AZ
170335003170335112-116038     170335006009681820246TCS CARRIER BAG MIDI   0000001000+00000035+00000+0001T   00000035+0000001648          1400 RT6090               2AZ
170336000170336               170336               170213HX     1400+00000+HX0000006137+0000006137+000000000+000000860+0000006990+0000000007+I20000000000+0000006990+Z
170336001170336079-013101     170336006001023863706CRAFT SET DIY PIPE-CLNR0000001000+00002630+00000+0001T   00002630+0000001649          1400 RT6130               2AZ
170336002170336079-006498     170336006001023836151GLITTER SET 10PCE      0000001000+00003507+00000+0001T   00003507+0000001649          1400 RT6130               2AZ
A17021300                                          09164395HXSLAVE 2                       RT61IC
A17021301                                          09235696HXSLAVE 2                       RT61IC
A17021302                                          09511720HXSLAVE 2                       RT61IC
A17021303                                          11342085HXSLAVE 2                       RT62IC
A17021304                                          13550264HXSLAVE 2                       RT61IC
A17021305                                          16280045HXSLAVE 2                       RT61IC
B17029900                                          170213HX032-000336     11075655SLAVE 2     RT61IC0000002000+0000001000+0000000000000+
M17021391                              CASH        HXSLAVE 2                       Z-REPORT No.   577TOTAL (Sales - Refunds)           3890.70       CASH TO BE BANKED                 2866.40       DEBIT CARDS                          0.00       CREDIT CARDS                      1024.10       Z-READING                         3890.70       AIRTIME DEBIT CARD SALES             0.00       AIRTIME CARD SALES                   0.00       OVERS/UNDERS                         0.20-      AIRTIME CASH SALES                   0.00       GIFT CARDS                           0.00       GIFT CARD CASH SALES                 0.00       T O T A L  CASH PAYOUTS              0.00                                                                                                                                                                                                                                                                                                                                                      Z
M17021392                              CASH        HXABSENT                                                                                                                                                                                          ANNUAL LEAVE                                                                                                                                                                                    DAY OFF                                                                                                                                                                                         COMMENTS          LAST CASH TILL SLIP NO;170336                                                                                                                                                                                                                                                                                                                                                Z
Y17021300                                          HX00000000342568+000054
ZHX17021319493 SLAVE 2      SALES DATA                     NEXT INVOICE NO.  170337 0577
X HX Slave 2 First invoice 170283 170213 Last invoice 170336 170213 Next invoice 170337 Total number of records 000000203 clbackup completed 19:49:31
