315836000315836               315836               170213HY     1400+00000+HY0000017742+0000017742+000000000+000002488+0000020230+0000000000+I40000020230+0000000000+Z
315836001315836112-116038     315836006009681820246TCS CARRIER BAG MIDI   0000001000+00000035+00000+0001T   00000035+0000000932          1400 KD2090               1AZ
315836002315836903-000924     315836006942797400615SWT HOT WHEELS SPRAY   0000004000+00001578+00000+0001T   00001578+0000000932          1400 KD2150               1AZ
315836003315836903-000919     315836006009802868577SWEET NOVELTY LASER POP0000005000+00001753+00000+0001T   00001753+0000000932          1400 KD2150               1AZ
315836004315836903-000590     315836006003000563494SWT TOY REVOLVER 22cm  0000001000+00002630+00000+0001T   00002630+0000000932          1400 KD2150               1AZ
315837000315837               315837               170213HY     1400+00000+HY0000013900+0000013900+000000000+000001948+0000015848+0000000000+I40000015848+0000000000+Z
315837001315837112-116069     315837006009681820277TCS CARRIER BAG JUMBO  0000001000+00000048+00000+0001T   00000048+0000000938          1400 KD2090               1AZ
315837002315837018-000136     315837006001023659026MUG OCC LOVE W/PLUSH   0000001000+00003507+00000+0001T   00003507+0000000938          1400 KD2515               1AZ
315837003315837018-000130     315837006001023867537MUG OCC LOVE MINI+HEART0000001000+00003507+00000+0001T   00003507+0000000938          1400 KD2515               1AZ
315837004315837080-000133-A   315837006003000647019MINI VALENTINES CARD   0000001000+00000437+00000+0001T   00000437+0000000938          1400 KD2112               1AZ
315837005315837903-000087     315837006001704000161SWT SPECKLED-EGGS 50G  0000001000+00001139+00000+0001T   00001139+0000000938          1400 KD2150               1AZ
315837006315837018-019000     315837006003000557288MUG OCC. LOVE JUMBO    0000001000+00005262+00000+0001T   00005262+0000000938          1400 KD2515               1AZ
315838000315838               315838               170213HY     1400+00000+HY0000023987+0000023987+000000000+000003362+0000027349+0000000000+I40000027349+0000000000+Z
315838001315838040-000103     315838000694202201862C/HOLDER-SET 5PC W/TRAY0000001000+00011402+00000+0001T   00013157+0008190942          1400 KD2510               1AZ
315838002315838080-000127     315838006003000424351VALENTINES DAY 36x24CM 0000001000+00002192+00000+0001T   00002192+0000000942          1400 KD2112               1AZ
315838003315838077-000270     315838006003000395453GIFT-BAG PPR JMB 33X45 0000001000+00002630+00000+0001T   00002630+0000000942          1400 KD2112               1AZ
315838004315838018-050000     315838006003000412679MUG OCC LOVE TWIN BEAR 0000001000+00006139+00000+0001T   00006139+0000000942          1400 KD2515               1AZ
315838005315838112-116069     315838006009681820277TCS CARRIER BAG JUMBO  0000001000+00000048+00000+0001T   00000048+0000000942          1400 KD2090               1AZ
315838006315838077-000010-C   315838006001023123879CREPE-PAPER RED        0000002000+00000788+00000+0001T   00000788+0000000942          1400 KD2112               1AZ
315839000315839               315839               170213HY     1400+00000+HY0000015279+0000015279+000000000+000002144+0000017420+0000000003+I20000000000+0000017420+Z
315839001315839903-000200     315839006009826020234SWT CHOC RP CHOCO 23G  0000005000+00000788+00000+0001T   00000788+0000000944          1400 KD2150               1AZ
315839002315839903-000194     315839006009826020616SWT CHOC RP LOLLY 25G  0000003000+00001314+00000+0001T   00001314+0000000944          1400 KD2150               1AZ
315839003315839080-000133-A   315839006003000647019MINI VALENTINES CARD   0000001000+00000437+00000+0001T   00000437+0000000944          1400 KD2112               1AZ
315839004315839030-000031-A   315839006003000457588PLAQUE W/WORDS ASSTD   0000001000+00004385+00000+0001T   00004823+0006470944          1400 KD2505               1AZ
315839005315839077-000311     315839006001023608666GIFT-BAG 11X14CM GLOSS 0000002000+00000613+00000+0001T   00000613+0000000944          1400 KD2112               1AZ
315839006315839077-000310     315839006001023608635GIFT-BAG 18X23CM GLOSS 0000001000+00001314+00000+0001T   00001314+0000000944          1400 KD2112               1AZ
315839007315839112-116038     315839006009681820246TCS CARRIER BAG MIDI   0000001000+00000035+00000+0001T   00000035+0000000944          1400 KD2090               1AZ
315840000315840               315840               170213HY     1400+00000+HY0000009205+0000009205+000000000+000001289+0000010494+0000000000+I40000010494+0000000000+Z
315840001315840077-000310     315840006001023608635GIFT-BAG 18X23CM GLOSS 0000001000+00001314+00000+0001T   00001314+0000000955          1400 KD2112               1AZ
315840002315840031-000923     315840006001023669933P/FRAME BLK W/WORDS    0000001000+00003507+00000+0001T   00003507+0000000955          1400 KD2510               1AZ
315840003315840031-000868-A   315840006001023798534P/FRAME PL BLCK 10X15CM0000002000+00002192+00000+0001T   00002192+0000000955          1400 KD2510               1AZ
315841000315841               315841               170213HY     1400+00000+HY0000000876+0000000876+000000000+000000123+0000000990+0000000009+I20000000000+0000000990+Z
315841001315841077-000314     315841006003000181148GIFT-BAG 11X14CM MATT  0000001000+00000876+00000+0001T   00000876+0000000956          1400 KD2112               1AZ
315842000315842               315842               170213HY     1400+00000+HY0000001753+0000001753+000000000+000000246+0000001990+0000000009+I20000000000+0000001990+Z
315842001315842071-003879     315842006936198404198PENCIL HB BLU/WHITE 12s0000001000+00001753+00000+0001T   00002630+0008151001          1400 KD2130               1AZ
315843000315843               315843               170213HY     1400+00000+HY0000001752+0000001752+000000000+000000246+0000001998+0000000000+I40000001998+0000000000+Z
315843001315843007-000127     315843006009685853431BOOK H/COVER MEMO 144PG0000002000+00000876+00000+0001T   00000876+0000001019          1400 KD2130               1AZ
315844000315844               315844               170213HY     1400+00000+HY0000021340+0000021340+000000000+000002988+0000024320+0000000008+I20000000000+0000024320+Z
315844001315844001-091415     315844006003000329113W/GLS OCC. LOVE 2PC 2800000001000+00008771+00000+0001T   00009648+0006471040          1400 KD2515               1AZ
315844002315844077-000303     315844006001023593757GIFT-BAG PAPER MED     0000001000+00001578+00000+0001T   00001578+0000001040          1400 KD2112               1AZ
315844003315844104-000095     315844006003000614714BASKET PL 23x15x12cm   0000001000+00003507+00000+0001T   00003507+0000001040          1400 KD2210               1AZ
315844004315844903-000194     315844006009826020616SWT CHOC RP LOLLY 25G  0000003000+00001314+00000+0001T   00001314+0000001040          1400 KD2150               1AZ
315844005315844112-116038     315844006009681820246TCS CARRIER BAG MIDI   0000001000+00000035+00000+0001T   00000035+0000001040          1400 KD2090               1AZ
315844006315844003-000917     315844006001023861092ORN ANIMAL RABBIT 13.5 0000001000+00003507+00000+0001T   00003507+0000001040          1400 KD2505               1AZ
315845000315845               315845               170213HY     1400+00000+HY0000001753+0000001753+000000000+000000246+0000001999+0000000000+I40000001999+0000000000+Z
315845001315845080-000113     315845006003000237449CARD&ENVLPE - LOVE     0000001000+00001753+00000+0001T   00001753+0000001049          1400 KD2112               1AZ
315846000315846               315846               170213HY     1400+00000+HY0000000613+0000000613+000000000+000000086+0000000690+0000000009+I20000000000+0000000690+Z
315846001315846077-000311     315846006001023608666GIFT-BAG 11X14CM GLOSS 0000001000+00000613+00000+0001T   00000613+0000001049          1400 KD2112               1AZ
315847000315847               315847               170213HY     1400+00000+HY0000007500+0000007500+000000000+000001052+0000008552+0000000000+I40000008552+0000000000+Z
315847001315847080-000127     315847006003000424351VALENTINES DAY 36x24CM 0000001000+00002192+00000+0001T   00002192+0000001103          1400 KD2112               1AZ
315847002315847079-001002     315847006003000448715CANVAS A4 WOOD MOUNTED 0000001000+00002630+00000+0001T   00002630+0000001103          1400 KD2130               1AZ
315847003315847079-000260     315847006001023886385PAINT TUBS WT BASE 4COL0000001000+00002630+00000+0001T   00002630+0000001103          1400 KD2130               1AZ
315847004315847112-116069     315847006009681820277TCS CARRIER BAG JUMBO  0000001000+00000048+00000+0001T   00000048+0000001103          1400 KD2090               1AZ
315848000315848               315848               170213HY     1400+00000+HY0000003069+0000003069+000000000+000000430+0000003490+0000000009+I20000000000+0000003490+Z
315848001315848079-000271     315848006003000160082PAINT-BRUSHES LRGE ART 0000001000+00003069+00000+0001T   00003069+0000001104          1400 KD2130               1AZ
315849000315849               315849               170213HY     1400+00000+HY0000014942+0000014942+000000000+000002093+0000017030+0000000005+I20000000000+0000017030+Z
315849001315849073-000530     315849006003000629640COSMETIC BAG PVC       0000001000+00007893+00000+0001T   00007893+0000001142          1400 KD2200               1AZ
315849002315849262-000020     315849006003000644780DIE CAST SINGLE CAR    0000001000+00003507+00000+0001T   00003507+0000001142          1400 KD2710               1AZ
315849003315849261-000947     315849006001023832610GUN FRICTION           0000001000+00003507+00000+0001T   00003507+0000001142          1400 KD2710               1AZ
315849004315849112-116038     315849006009681820246TCS CARRIER BAG MIDI   0000001000+00000035+00000+0001T   00000035+0000001142          1400 KD2090               1AZ
315850000315850               315850               170213HY     1400+00000+HY0000007395+0000007395+000000000+000001037+0000008430+0000000002+I20000000000+0000008430+Z
315850001315850071-081091     315850006001151010287STAED/GENKEM ALL-STICK 0000001000+00001227+00000+0001T   00001227+0000001153          1400 KD2130               1AZ
315850002315850047-000505     315850006009636901976PLUG-ADAPTOR 2-PIN     0000002000+00000876+00000+0001T   00000876+0000001153          1400 KD2880               1AZ
315850003315850077-000239     315850006003000160419GIFT-RIBBON ROLL PEARL 0000001000+00001753+00000+0001T   00001753+0000001153          1400 KD2112               1AZ
315850004315850006-000166-D   315850006003000516490BALLOONS LRG 6PC RED   0000001000+00001314+00000+0001T   00001314+0000001153          1400 KD2131               1AZ
315850005315850006-000166-C   315850006003000516377BALLOONS LRG 6PC PINK  0000001000+00001314+00000+0001T   00001314+0000001153          1400 KD2131               1AZ
315850006315850112-116038     315850006009681820246TCS CARRIER BAG MIDI   0000001000+00000035+00000+0001T   00000035+0000001153          1400 KD2090               1AZ
315851000315851               315851               170213HY     1400+00000+HY0000000918+0000000918+000000000+000000129+0000001040+0000000007+I20000000000+0000001040+Z
315851001315851079-009700-G   315851006003000545957PAPER SIRIO A4 LIME COL0000003000+00000306+00000+0001T   00000306+0000001157          1400 KD2130               1AZ
315852000315852               315852               170213HY     1400+00000+HY0000006576+0000006576+000000000+000000921+0000007490+0000000007+I20000000000+0000007490+Z
315852001315852006-000190     315852006003000685530BALLOONS LOVE 81x91cm  0000001000+00004385+00000+0001T   00004385+0000001222          1400 KD2131               1AZ
315852002315852077-000315     315852006003000181186GIFT-BAG 20x28cm MATT  0000001000+00001578+00000+0001T   00001578+0000001222          1400 KD2112               1AZ
315852003315852006-001000     315852006003000093779HELIUM BALLOON FILL    0000001000+00000613+00000+0001T   00000613+0000001222          1400 KD2131               1AZ
315853000315853               315853               170213HY     1400+00000+HY0000011888+0000011888+000000000+000001665+0000013550+0000000003+I20000000000+0000013550+Z
315853001315853030-004015     315853006003000467624PLAQUE WDN SIGN 30X20CM0000001000+00009648+00000+0001T   00009648+0000001236          1400 KD2505               1AZ
315853002315853080-000127     315853006003000424351VALENTINES DAY 36x24CM 0000001000+00002192+00000+0001T   00002192+0000001236          1400 KD2112               1AZ
315853003315853112-116069     315853006009681820277TCS CARRIER BAG JUMBO  0000001000+00000048+00000+0001T   00000048+0000001236          1400 KD2090               1AZ
315854000315854               315854               170213HY     1400+00000+HY0000007008+0000007008+000000000+000000984+0000007992+0000000000+I40000007992+0000000000+Z
315854001315854903-000194     315854006009826020616SWT CHOC RP LOLLY 25G  0000002000+00001314+00000+0001T   00001314+0000001241          1400 KD2150               1AZ
315854002315854077-000299-A   315854006003000670888GIFT-BAG PAPER JMB LOVE0000002000+00001753+00000+0001T   00001753+0000001241          1400 KD2112               1AZ
315854003315854080-000133-A   315854006003000647019MINI VALENTINES CARD   0000002000+00000437+00000+0001T   00000437+0000001241          1400 KD2112               1AZ
315855000315855               315855               170213HY     1400+00000+HY0000003507+0000003507+000000000+000000491+0000003998+0000000000+I40000003998+0000000000+Z
315855001315855366-002803     315855006003000531875DRESS UP POMPOM 2PC SET0000001000+00003507+00000+0001T   00003507+0000001242          1400 KD2131               1AZ
315856000315856               315856               170213HY     1400+00000+HY0000007365+0000007365+000000000+000001032+0000008390+0000000007+I20000000000+0000008390+Z
315856001315856077-000311     315856006001023608666GIFT-BAG 11X14CM GLOSS 0000001000+00000613+00000+0001T   00000613+0000001243          1400 KD2112               1AZ
315856002315856301-085003     315856006003000420827ORN OCCASION LOVE KEY  0000001000+00005262+00000+0001T   00005262+0000001243          1400 KD2505               1AZ
315856003315856077-000299     315856006003000395576G/BAG 32x25cm LRG LOVE 0000001000+00001490+00000+0001T   00001490+0000001243          1400 KD2112               1AZ
315857000315857               315857               170213HY     1400+00000+HY0000010556+0000010556+000000000+000001478+0000012030+0000000004+I20000000000+0000012030+Z
315857001315857124-000005     315857006003000577057STORAGE TIN SQUARE     0000003000+00003507+00000+0001T   00003507+0000001251          1400 KD2300               1AZ
315857002315857112-116038     315857006009681820246TCS CARRIER BAG MIDI   0000001000+00000035+00000+0001T   00000035+0000001251          1400 KD2090               1AZ
315858000315858               315858               170213HY     1400+00000+HY0000006048+0000006048+000000000+000000848+0000006896+0000000000+I40000006896+0000000000+Z
315858001315858077-000010-C   315858006001023123879CREPE-PAPER RED        0000001000+00000788+00000+0001T   00000788+0000001254          1400 KD2112               1AZ
315858002315858077-000454     315858006003000285266G/BAG METALLIC LRG EMB 0000001000+00001753+00000+0001T   00001753+0000001254          1400 KD2112               1AZ
315858003315858031-005923     315858006003000040322P/FRAME CERT PL 21x29.70000001000+00003507+00000+0001T   00003507+0000001254          1400 KD2510               1AZ
315859000315859               315859               170213HY     1400+00000+HY0000003941+0000003941+000000000+000000552+0000004490+0000000003+I20000000000+0000004490+Z
315859001315859903-000194     315859006009826020616SWT CHOC RP LOLLY 25G  0000002000+00001314+00000+0001T   00001314+0000001313          1400 KD2150               1AZ
315859002315859018-000177     315859006001023797513MUG MINI LOVE ASSTD    0000001000+00000700+00000+0001T   00000700+0000001313          1400 KD2515               1AZ
315859003315859077-000311     315859006001023608666GIFT-BAG 11X14CM GLOSS 0000001000+00000613+00000+0001T   00000613+0000001313          1400 KD2112               1AZ
315860000315860               315860               170213HY     1400+00000+HY0000019430+0000019430+000000000+000002721+0000022151+0000000000+I40000022151+0000000000+Z
315860001315860564-000012     315860006001023130075BUBBLE BOTTLE MAGIC    0000024000+00000700+00000+0001T   00000700+0000001322          1400 KD2131               1AZ
315860002315860089-000191     315860006003000430185KEY CHAIN BEAR 10CM    0000001000+00002630+00000+0001T   00002630+0000001322          1400 KD2205               1AZ
315861000315861               315861               170213HY     1400+00000+HY0000003506+0000003506+000000000+000000492+0000003990+0000000008+I20000000000+0000003990+Z
315861001315861003-000250     315861006003000035045ORN DECOR NOVELTY GRASS0000002000+00001753+00000+0001T   00001753+0000001323          1400 KD2505               1AZ
315862000315862               315862               170213HY     1400+00000+HY0000008942+0000008942+000000000+000001253+0000010195+0000000000+I40000010195+0000000000+Z
315862001315862018-000127     315862006001023380289MUG OCC STRAIGHT LOVE  0000001000+00001578+00000+0001T   00001753+0006471334          1400 KD2515               1AZ
315862002315862030-000030-B   315862006003000249381PLAQUE GLASS MOM       0000001000+00003069+00000+0001T   00003069+0000001334          1400 KD2505               1AZ
315862003315862077-000310     315862006001023608635GIFT-BAG 18X23CM GLOSS 0000001000+00001314+00000+0001T   00001314+0000001334          1400 KD2112               1AZ
315862004315862077-000452     315862006003000284986G/BAG METALLIC MED EMB 0000001000+00001490+00000+0001T   00001490+0000001334          1400 KD2112               1AZ
315862005315862018-000127     315862006001023380289MUG OCC STRAIGHT LOVE  0000001000-00001578+00000+0001T   00001753+0006471334          1400 KD25151IC            1 Z
315862006315862030-000030-A   315862006003000249305PLAQUE GLASS LOVE      0000001000+00003069+00000+0001T   00003069+0000001334          1400 KD2505               1AZ
315863000315863               315863               170213HY     1400+00000+HY0000008632+0000008632+000000000+000001215+0000009840+0000000007+I20000000000+0000009840+Z
315863001315863022-002107     315863006002600025814MUG ENAMEL 8cm WHITE   0000006000+00001051+00000+0001T   00001051+0000001341          1400 KD2305               1AZ
315863002315863022-001324     315863006001023486493SOUP-PLATE 24cm PLAIN  0000002000+00001139+00000+0001T   00001139+0000001341          1400 KD2305               1AZ
315863003315863112-116069     315863006009681820277TCS CARRIER BAG JUMBO  0000001000+00000048+00000+0001T   00000048+0000001341          1400 KD2090               1AZ
315864000315864               315864               170213HY     1400+00000+HY0000002192+0000002192+000000000+000000307+0000002490+0000000009+I20000000000+0000002490+Z
315864001315864080-000127     315864006003000424351VALENTINES DAY 36x24CM 0000001000+00002192+00000+0001T   00002192+0000001357          1400 KD2112               1AZ
315865000315865               315865               170213HY     1400+00000+HY0000021096+0000021096+000000000+000002956+0000024052+0000000000+I40000024052+0000000000+Z
315865001315865361-003370     315865006001023793676DOLL 29cm MOTHER+BABY  0000001000+00015788+00000+0001T   00015788+0000001403          1400 KD2725               1AZ
315865002315865112-116069     315865006009681820277TCS CARRIER BAG JUMBO  0000001000+00000048+00000+0001T   00000048+0000001403          1400 KD2090               1AZ
315865003315865567-011495     315865000076645122032BK ACTIVITY 96P BIBLE  0000001000+00002630+00000+0001T   00002630+0000001403          1400 KD2757               1AZ
315865004315865567-011501     315865000076645122018BK ACTIVITY 96P BIBLE  0000001000+00002630+00000+0001T   00002630+0000001403          1400 KD2757               1AZ
315866000315866               315866               170213HY     1400+00000+HY0000007220+0000007220+000000000+000001014+0000008230+0000000004+I20000000000+0000008230+Z
315866001315866077-000010-C   315866006001023123879CREPE-PAPER RED        0000001000+00000788+00000+0001T   00000788+0000001409          1400 KD2112               1AZ
315866002315866077-000010-D   315866006001023123886CREPE-PAPER WHITE      0000001000+00000788+00000+0001T   00000788+0000001409          1400 KD2112               1AZ
315866003315866077-000010-C   315866006001023123879CREPE-PAPER RED        0000001000+00000788+00000+0001T   00000788+0000001409          1400 KD2112               1AZ
315866004315866563-000318-L   315866006003000407088SERVIETTES 33cm RED    0000001000+00002192+00000+0001T   00002192+0000001409          1400 KD2214               1AZ
315866005315866903-000482     315866006001704001397SWT SOFT-MINTS 60G     0000001000+00000876+00000+0001T   00000876+0000001409          1400 KD2150               1AZ
315866006315866903-000211     315866006002099001238SWT GS MALLOW ICE CREAM0000001000+00001753+00000+0001T   00001753+0000001409          1400 KD2150               1AZ
315866007315866112-116038     315866006009681820246TCS CARRIER BAG MIDI   0000001000+00000035+00000+0001T   00000035+0000001409          1400 KD2090               1AZ
315867000315867               315867               170213HY     1400+00000+HY0000001928+0000001928+000000000+000000270+0000002198+0000000000+I40000002198+0000000000+Z
315867001315867903-000843     315867008693029031067SWT GUMMY JELAXY 80G   0000002000+00000964+00000+0001T   00000964+0000001419          1400 KD2150               1AZ
315868000315868               315868               170213HY     1400+00000+HY0000007936+0000007936+000000000+000001113+0000009040+0000000009+I20000000000+0000009040+Z
315868001315868077-000299     315868006003000395576G/BAG 32x25cm LRG LOVE 0000002000+00001490+00000+0001T   00001490+0000001429          1400 KD2112               1AZ
315868002315868566-002000     315868000721129013206STICKERS CRYSTAL ASSTD 0000001000+00000700+00000+0001T   00000700+0000001429          1400 KD2130               1AZ
315868003315868018-000129     315868006001023403353MUG OCC. LOVE V-SHAPE  0000001000+00002630+00000+0001T   00002630+0000001429          1400 KD2515               1AZ
315868004315868018-000127     315868006001023380289MUG OCC STRAIGHT LOVE  0000001000+00001578+00000+0001T   00001753+0006471429          1400 KD2515               1AZ
315868005315868112-116069     315868006009681820277TCS CARRIER BAG JUMBO  0000001000+00000048+00000+0001T   00000048+0000001429          1400 KD2090               1AZ
315869000315869               315869               170213HY     1400+00000+HY0000014032+0000014032+000000000+000001966+0000015998+0000000000+I40000015998+0000000000+Z
315869001315869560-000301     315869006001023800275DINOSAUR VINYL 23cm    0000002000+00007016+00000+0001T   00007016+0000001430          1400 KD2745               1AZ
315870000315870               315870               170213HY     1400+00000+HY0000025920+0000025920+000000000+000003630+0000029550+0000000000+I40000029550+0000000000+Z
315870001315870080-000127     315870006003000424351VALENTINES DAY 36x24CM 0000001000+00002192+00000+0001T   00002192+0000001453          1400 KD2112               1AZ
315870002315870112-116069     315870006009681820277TCS CARRIER BAG JUMBO  0000001000+00000048+00000+0001T   00000048+0000001453          1400 KD2090               1AZ
315870003315870366-001100     315870006003000031443DRESS UP HAT PIRATE    0000001000+00005262+00000+0001T   00005262+0000001453          1400 KD2131               1AZ
315870004315870366-007601     315870006003000655472DRESS UP MASK THEATRICA0000001000+00000876+00000+0001T   00000876+0000001453          1400 KD2131               1AZ
315870005315870403-000032     315870006003000514731J/HOLDER HEART-SHAPE   0000001000+00017542+00000+0001T   00017542+0000001453          1400 KD2510               1AZ
315871000315871               315871               170213HY     1400+00000+HY0000001753+0000001753+000000000+000000246+0000001990+0000000009+I20000000000+0000001990+Z
315871001315871079-105601     315871006003000231171ART+CRAFT STAMP ASSTD  0000001000+00001753+00000+0001T   00001753+0000001453          1400 KD2130               1AZ
315872000315872               315872               170213HY     1400+00000+HY0000007574+0000007574+000000000+000001061+0000008630+0000000005+I20000000000+0000008630+Z
315872001315872018-000127     315872006001023380289MUG OCC STRAIGHT LOVE  0000002000+00001578+00000+0001T   00001753+0006471505          1400 KD2515               1AZ
315872002315872903-003080     315872005907029004673SWT SNACK STIX CHOC 50g0000001000+00000876+00000+0001T   00000876+0000001505          1400 KD2150               1AZ
315872003315872105-001000     315872006003000520275CONTAINER:CEREAL TO GO 0000001000+00003507+00000+0001T   00004823+0008161505          1400 KD2210               1AZ
315872004315872112-116038     315872006009681820246TCS CARRIER BAG MIDI   0000001000+00000035+00000+0001T   00000035+0000001505          1400 KD2090               1AZ
315873000315873               315873               170213HY     1400+00000+HY0000000876+0000000876+000000000+000000123+0000000990+0000000009+I20000000000+0000000990+Z
315873001315873903-000123     315873006925925909280SWEET GS MINI MALLOWS  0000001000+00000876+00000+0001T   00000876+0000001605          1400 KD2150               1AZ
315874000315874               315874               170213HY     1400+00000+HY0000009079+0000009079+000000000+000001272+0000010350+0000000001+I20000000000+0000010350+Z
315874001315874368-000151     315874006003000166725PLUSH BEAR 14cm        0000001000+00004385+00000+0001T   00004385+0000001607          1400 KD2745               1AZ
315874002315874903-000123     315874006925925909280SWEET GS MINI MALLOWS  0000001000+00000876+00000+0001T   00000876+0000001607          1400 KD2150               1AZ
315874003315874077-000315     315874006003000181186GIFT-BAG 20x28cm MATT  0000001000+00001578+00000+0001T   00001578+0000001607          1400 KD2112               1AZ
315874004315874080-000127     315874006003000424351VALENTINES DAY 36x24CM 0000001000+00002192+00000+0001T   00002192+0000001607          1400 KD2112               1AZ
315874005315874112-116069     315874006009681820277TCS CARRIER BAG JUMBO  0000001000+00000048+00000+0001T   00000048+0000001607          1400 KD2090               1AZ
315875000315875               315875               170213HY     1400+00000+HY0000003506+0000003506+000000000+000000492+0000003990+0000000008+I20000000000+0000003990+Z
315875001315875077-000382     315875006003000247820GIFT-BAG MED 18X23CM   0000002000+00001753+00000+0001T   00001753+0000001610          1400 KD2112               1AZ
315876000315876               315876               170213HY     1400+00000+HY0000004242+0000004242+000000000+000000595+0000004830+0000000007+I20000000000+0000004830+Z
315876001315876200-003024     315876006001023657299REFUSE BAGS 20PCE BLACK0000001000+00001753+00000+0001T   00001753+0000001621          1400 KD2214               1AZ
315876002315876018-000127     315876006001023380289MUG OCC STRAIGHT LOVE  0000001000+00001578+00000+0001T   00001753+0006471621          1400 KD2515               1AZ
315876003315876083-000295     315876006001023898562LIGHTER-GAS BUTANE 18ml0000001000+00000876+00000+0001T   00000876+0000001621          1400 KD2315               1AZ
315876004315876112-116038     315876006009681820246TCS CARRIER BAG MIDI   0000001000+00000035+00000+0001T   00000035+0000001621          1400 KD2090               1AZ
315877000315877               315877               170213HY     1400+00000+HY0000014908+0000014908+000000000+000002089+0000016990+0000000007+I20000000000+0000016990+Z
315877001315877077-000011-C   315877006001023808523TISSUE 10xSHTS RED     0000001000+00000876+00000+0001T   00000876+0000001627          1400 KD2112               1AZ
315877002315877368-000113     315877006001023780874PLUSH BLINGED LOVE 30cm0000001000+00012279+00000+0001T   00012279+0000001627          1400 KD2745               1AZ
315877003315877077-000299-A   315877006003000670888GIFT-BAG PAPER JMB LOVE0000001000+00001753+00000+0001T   00001753+0000001627          1400 KD2112               1AZ
315878000315878               315878               170213HY     1400+00000+HY0000001578+0000001578+000000000+000000221+0000001790+0000000009+I20000000000+0000001790+Z
315878001315878083-000054     315878006001023729071LIGHTER REFILLABLE LED 0000001000+00001578+00000+0001T   00001578+0000001627          1400 KD2315               1AZ
315879000315879               315879               170213HY     1400+00000+HY0000037174+0000037174+000000000+000005212+0000042386+0000000000+I40000042386+0000000000+Z
315879001315879077-000316     315879006001023609731GIFT-BAG 25X32CM MATT  0000001000+00001753+00000+0001T   00001753+0000001633          1400 KD2112               1AZ
315879002315879077-000315     315879006003000181186GIFT-BAG 20x28cm MATT  0000001000+00001578+00000+0001T   00001578+0000001633          1400 KD2112               1AZ
315879003315879077-000316     315879006001023609731GIFT-BAG 25X32CM MATT  0000001000+00001753+00000+0001T   00001753+0000001633          1400 KD2112               1AZ
315879004315879077-000382     315879006003000247820GIFT-BAG MED 18X23CM   0000002000+00001753+00000+0001T   00001753+0000001633          1400 KD2112               1AZ
315879005315879112-116069     315879006009681820277TCS CARRIER BAG JUMBO  0000001000+00000048+00000+0001T   00000048+0000001633          1400 KD2090               1AZ
315879006315879077-000010-C   315879006001023123879CREPE-PAPER RED        0000001000+00000788+00000+0001T   00000788+0000001633          1400 KD2112               1AZ
315879007315879368-000111     315879006001023780812PLUSH BEAR/DOG 29CM    0000001000+00012279+00000+0001T   00012279+0000001633          1400 KD2745               1AZ
315879008315879018-030000     315879006003000421060MUG OCCASIONS LOVE 2PCE0000002000+00004385+00000+0001T   00004385+0000001633          1400 KD2515               1AZ
315879009315879018-000177     315879006001023797513MUG MINI LOVE ASSTD    0000001000+00000700+00000+0001T   00000700+0000001633          1400 KD2515               1AZ
315879010315879077-000383     315879006003000247943GIFT-BAG 11X14CM S/COL 0000001000+00000788+00000+0001T   00000788+0000001633          1400 KD2112               1AZ
315879011315879903-000077     315879006939873501687SWT GS MAGIC ROCK FRUIT0000001000+00000525+00000+0001T   00000525+0000001633          1400 KD2150               1AZ
315879012315879903-000670     315879006009803358008SWT SHERBET RED LIPS   0000001000+00000218+00000+0001T   00000218+0000001633          1400 KD2150               1AZ
315879013315879903-000087     315879006001704000161SWT SPECKLED-EGGS 50G  0000002000+00001139+00000+0001T   00001139+0000001633          1400 KD2150               1AZ
315879014315879903-000844     315879005010478432567SWT CANDY DL LUV HEARTS0000001000+00001314+00000+0001T   00001314+0000001633          1400 KD2150               1AZ
315879015315879077-000011-D   315879006001023808554TISSUE-WRAP WHITE 10PCE0000001000+00000876+00000+0001T   00000876+0000001633          1400 KD2112               1AZ
315880000315880               315880               170213HY     1400+00000+HY0000012279+0000012279+000000000+000001720+0000013999+0000000000+I40000013999+0000000000+Z
315880001315880368-000113     315880006001023780874PLUSH BLINGED LOVE 30cm0000001000+00012279+00000+0001T   00012279+0000001635          1400 KD2745               1AZ
315881000315881               315881               170213HY     1400+00000+HY0000001402+0000001402+000000000+000000197+0000001590+0000000009+I20000000000+0000001590+Z
315881001315881304-001204     315881006001023737984FLOWER OCC. TEDDY/ROSES0000001000+00001402+00000+0001T   00001490+0006471638          1400 KD2510               1AZ
315882000315882               315882               170213HY     1400+00000+HY0000007892+0000007892+000000000+000001105+0000008997+0000000000+I40000008997+0000000000+Z
315882001315882104-000095     315882006003000614714BASKET PL 23x15x12cm   0000001000+00003507+00000+0001T   00003507+0000001640          1400 KD2210               1AZ
315882002315882051-600632     315882006001023868404PLANTER W/TRAY PL RECT 0000001000+00004385+00000+0001T   00004385+0000001640          1400 KD2820               1AZ
315883000315883               315883               170213HY     1400+00000+HY0000014075+0000014075+000000000+000001974+0000016049+0000000000+I40000016049+0000000000+Z
315883001315883112-116069     315883006009681820277TCS CARRIER BAG JUMBO  0000001000+00000048+00000+0001T   00000048+0000001642          1400 KD2090               1AZ
315883002315883036-007549     315883006003000275793COATHANGER SPACE SAVER 0000005000+00001753+00000+0001T   00001753+0000001642          1400 KD2212               1AZ
315883003315883174-000141     315883006003000367573STORAGE ORGANISER 30X100000001000+00005262+00000+0001T   00005262+0000001642          1400 KD2205               1AZ
315884000315884               315884               170213HY     1400+00000+HY0000023147+0000023147+000000000+000003243+0000026390+0000000000+I20000000000+0000026390+Z
315884001315884368-000113     315884006001023780874PLUSH BLINGED LOVE 30cm0000001000+00012279+00000+0001T   00012279+0000001645          1400 KD2745               1AZ
315884002315884077-000270     315884006003000395453GIFT-BAG PPR JMB 33X45 0000001000+00002630+00000+0001T   00002630+0000001645          1400 KD2112               1AZ
315884003315884077-000299     315884006003000395576G/BAG 32x25cm LRG LOVE 0000001000+00001490+00000+0001T   00001490+0000001645          1400 KD2112               1AZ
315884004315884018-000130     315884006001023867537MUG OCC LOVE MINI+HEART0000001000+00003507+00000+0001T   00003507+0000001645          1400 KD2515               1AZ
315884005315884903-000194     315884006009826020616SWT CHOC RP LOLLY 25G  0000002000+00001314+00000+0001T   00001314+0000001645          1400 KD2150               1AZ
315884006315884007-000555     315884006001023848239MEMO-PAD MINI LOVE     0000001000+00000613+00000+0001T   00000613+0000001645          1400 KD2130               1AZ
315885000315885               315885               170213HY     1400+00000+HY0000001753+0000001753+000000000+000000246+0000001990+0000000009+I20000000000+0000001990+Z
315885001315885206-000370     315885006003000631315STRAW P/DRINKING GLASS 0000001000+00001753+00000+0001T   00001753+0000001646          1400 KD2321               1AZ
315886000315886               315886               170213HY     1400+00000+HY0000012276+0000012276+000000000+000001720+0000013990+0000000006+I20000000000+0000013990+Z
315886001315886077-000150-D   315886006003000054343GIFT-WRAP CELLPHANE CLR0000002000+00000876+00000+0001T   00000876+0000001647          1400 KD2112               1AZ
315886002315886368-000265     315886006001023750914PLUSH BEAR 23CM ASSTD C0000001000+00006139+00000+0001T   00006139+0000001647          1400 KD2745               1AZ
315886003315886006-000190     315886006003000685530BALLOONS LOVE 81x91cm  0000001000+00004385+00000+0001T   00004385+0000001647          1400 KD2131               1AZ
315887000315887               315887               170213HY     1400+00000+HY0000001753+0000001753+000000000+000000246+0000001990+0000000009+I20000000000+0000001990+Z
315887001315887080-000105     315887006003000236237CARD & ENVELOPE BDAY   0000001000+00001753+00000+0001T   00001753+0000001648          1400 KD2112               1AZ
315888000315888               315888               170213HY     1400+00000+HY0000002192+0000002192+000000000+000000307+0000002490+0000000009+I20000000000+0000002490+Z
315888001315888077-000509     315888006003000082582GIFT-BAG SML 6PCE ORG P0000001000+00002192+00000+0001T   00002192+0000001650          1400 KD2112               1AZ
315889000315889               315889               170213HY     1400+00000+HY0000015786+0000015786+000000000+000002211+0000017997+0000000000+I40000017997+0000000000+Z
315889001315889368-000171     315889006003000233250PLUSH BEAR 14cm        0000003000+00005262+00000+0001T   00005262+0000001654          1400 KD2745               1AZ
315890000315890               315890               170213HY     1400+00000+HY0000003069+0000003069+000000000+000000430+0000003490+0000000009+I20000000000+0000003490+Z
315890001315890031-000004     315890006003000200948P/FRAME PL BABY 2ASST  0000001000+00003069+00000+0001T   00003069+0000001656          1400 KD2510               1AZ
315891000315891               315891               170213HY     1400+00000+HY0000003507+0000003507+000000000+000000491+0000003990+0000000008+I20000000000+0000003990+Z
315891001315891024-091106     315891006003000443130C/STAND PAPER 3-TIER   0000001000+00003507+00000+0001T   00003507+0000001658          1400 KD2300               1AZ
315892000315892               315892               170213HY     1400+00000+HY0000002630+0000002630+000000000+000000369+0000002990+0000000009+I20000000000+0000002990+Z
315892001315892566-000367     315892006003000645558STICKER WINDOW DECOR   0000001000+00002630+00000+0001T   00002630+0000001659          1400 KD2130               1AZ
315893000315893               315893               170213HY     1400+00000+HY0000000788+0000000788+000000000+000000111+0000000890+0000000009+I20000000000+0000000890+Z
315893001315893077-000010-C   315893006001023123879CREPE-PAPER RED        0000001000+00000788+00000+0001T   00000788+0000001711          1400 KD2112               1AZ
315894000315894               315894               170213HY     1400+00000+HY0000013152+0000013152+000000000+000001843+0000014995+0000000000+I40000014995+0000000000+Z
315894001315894162-097719     315894006001492977195#TAG NECKLACE          0000001000+00004385+00000+0001T   00004385+0000001713          1400 KD2160               1AZ
315894002315894162-096645     315894006001492966458#TAG HOT DEALS KIDS    0000001000+00002630+00000+0001T   00002630+0000001713          1400 KD2160               1AZ
315894003315894162-096854     315894006001492968544#TAG KIDS 6PK EARING   0000001000+00002630+00000+0001T   00002630+0000001713          1400 KD2160               1AZ
315894004315894162-097718     315894006001492977188#TAG CHARM BRACELET    0000001000+00003507+00000+0001T   00003507+0000001713          1400 KD2160               1AZ
315895000315895               315895               170213HY     1400+00000+HY0000003156+0000003156+000000000+000000442+0000003590+0000000008+I20000000000+0000003590+Z
315895001315895018-000127     315895006001023380289MUG OCC STRAIGHT LOVE  0000002000+00001578+00000+0001T   00001753+0006471715          1400 KD2515               1AZ
315896000315896               315896               170213HY     1400+00000+HY0000009992+0000009992+000000000+000001401+0000011390+0000000003+I20000000000+0000011390+Z
315896001315896903-003080     315896005907029004673SWT SNACK STIX CHOC 50g0000001000+00000876+00000+0001T   00000876+0000001718          1400 KD2150               1AZ
315896002315896567-011382     315896009780857262707BK STICKER PRINCESS    0000001000+00003507+00000+0001T   00003507+0000001718          1400 KD2757               1AZ
315896003315896077-000010-C   315896006001023123879CREPE-PAPER RED        0000001000+00000788+00000+0001T   00000788+0000001718          1400 KD2112               1AZ
315896004315896077-000011-D   315896006001023808554TISSUE-WRAP WHITE 10PCE0000001000+00000876+00000+0001T   00000876+0000001718          1400 KD2112               1AZ
315896005315896080-000127     315896006003000424351VALENTINES DAY 36x24CM 0000001000+00002192+00000+0001T   00002192+0000001718          1400 KD2112               1AZ
315896006315896077-000299-A   315896006003000670888GIFT-BAG PAPER JMB LOVE0000001000+00001753+00000+0001T   00001753+0000001718          1400 KD2112               1AZ
315897000315897               315897               170213HY     1400+00000+HY0000007011+0000007011+000000000+000000982+0000007990+0000000003+I20000000000+0000007990+Z
315897001315897077-000011-C   315897006001023808523TISSUE 10xSHTS RED     0000001000+00000876+00000+0001T   00000876+0000001719          1400 KD2112               1AZ
315897002315897903-000194     315897006009826020616SWT CHOC RP LOLLY 25G  0000001000+00001314+00000+0001T   00001314+0000001719          1400 KD2150               1AZ
315897003315897018-000130     315897006001023867537MUG OCC LOVE MINI+HEART0000001000+00003507+00000+0001T   00003507+0000001719          1400 KD2515               1AZ
315897004315897077-000310     315897006001023608635GIFT-BAG 18X23CM GLOSS 0000001000+00001314+00000+0001T   00001314+0000001719          1400 KD2112               1AZ
315898000315898               315898               170213HY     1400+00000+HY0000001400+0000001400+000000000+000000196+0000001590+0000000006+I20000000000+0000001590+Z
315898001315898903-000070     315898006001704001106SWT TOFFEE CREAMY 35g  0000002000+00000700+00000+0001T   00000700+0000001725          1400 KD2150               1AZ
315899000315899               315899               170213HY     1400+00000+HY0000003417+0000003417+000000000+000000480+0000003890+0000000007+I20000000000+0000003890+Z
315899001315899162-083941     315899006001492839417SS HEADBANDS           0000001000+00001753+00000+0001T   00001753+0000001727          1400 KD2160               1AZ
315899002315899077-000010-C   315899006001023123879CREPE-PAPER RED        0000001000+00000788+00000+0001T   00000788+0000001727          1400 KD2112               1AZ
315899003315899903-000494     315899006001704009911SWT GUMMY TEENY TEDDIES0000001000+00000876+00000+0001T   00000876+0000001727          1400 KD2150               1AZ
315900000315900               315900               170213HY     1400+00000+HY0000003243+0000003243+000000000+000000455+0000003690+0000000008+I20000000000+0000003690+Z
315900001315900903-000095     315900006001704011495SWT SPECKLED-EGGS 100G 0000001000+00002104+00000+0001T   00002104+0000001728          1400 KD2150               1AZ
315900002315900903-000709     315900006002099007070SWT QUENCHERS FRUIT    0000001000+00001139+00000+0001T   00001139+0000001728          1400 KD2150               1AZ
315901000315901               315901               170213HY     1400+00000+HY0000000876+0000000876+000000000+000000123+0000000990+0000000009+I20000000000+0000000990+Z
315901001315901077-000151     315901006008766114676GIFT-WRAP C/PHANE ASSTD0000001000+00000876+00000+0001T   00000876+0000001729          1400 KD2112               1AZ
315902000315902               315902               170213HY     1400+00000+HY0000001314+0000001314+000000000+000000184+0000001490+0000000008+I20000000000+0000001490+Z
315902001315902077-000310     315902006001023608635GIFT-BAG 18X23CM GLOSS 0000001000+00001314+00000+0001T   00001314+0000001730          1400 KD2112               1AZ
315903000315903               315903               170213HY     1400+00000+HY0000005960+0000005960+000000000+000000836+0000006790+0000000006+I20000000000+0000006790+Z
315903001315903056-065302     315903006001023759566CAR SUN-SHIELD ALM-FOIL0000002000+00002630+00000+0001T   00002630+0000001733          1400 KD2860               1AZ
315903002315903007-000166     315903006009685857316SPIRAL NOTES A6 100PG  0000001000+00000700+00000+0001T   00000700+0000001733          1400 KD2130               1AZ
315904000315904               315904               170213HY     1400+00000+HY0000017392+0000017392+000000000+000002437+0000019820+0000000009+I20000000000+0000019820+Z
315904001315904071-002887     315904006001023821935CALCULATOR DESKTOP 12DG0000001000+00005262+00000+0001T   00005262+0000001736          1400 KD2130               1AZ
315904002315904018-000177     315904006001023797513MUG MINI LOVE ASSTD    0000001000+00000700+00000+0001T   00000700+0000001736          1400 KD2515               1AZ
315904003315904071-000682     315904006003000196920ACCESSORIES DESKTOP ASS0000001000+00003507+00000+0001T   00003507+0000001736          1400 KD2130               1AZ
315904004315904077-000312     315904006001023608697GIFT-BAG 10X35CM GLOSS 0000001000+00001314+00000+0001T   00001314+0000001736          1400 KD2112               1AZ
315904005315904077-000311     315904006001023608666GIFT-BAG 11X14CM GLOSS 0000001000+00000613+00000+0001T   00000613+0000001736          1400 KD2112               1AZ
315904006315904112-116038     315904006009681820246TCS CARRIER BAG MIDI   0000001000+00000035+00000+0001T   00000035+0000001736          1400 KD2090               1AZ
315904007315904030-000031-A   315904006003000457588PLAQUE W/WORDS ASSTD   0000001000+00004385+00000+0001T   00004823+0006471736          1400 KD2505               1AZ
315904008315904903-000119     315904006001704007337SWT COCONUT-WHEEL      0000002000+00000788+00000+0001T   00000788+0000001736          1400 KD2150               1AZ
315905000315905               315905               170213HY     1400+00000+HY0000004294+0000004294+000000000+000000603+0000004890+0000000007+I20000000000+0000004890+Z
315905001315905077-000010-C   315905006001023123879CREPE-PAPER RED        0000001000+00000788+00000+0001T   00000788+0000001737          1400 KD2112               1AZ
315905002315905006-000120     315905006001023346889BALLOONS 10PC MIX COL  0000002000+00001753+00000+0001T   00001753+0000001737          1400 KD2131               1AZ
315906000315906               315906               170213HY     1400+00000+HY0000021484+0000021484+000000000+000003009+0000024490+0000000003+I20000000000+0000024490+Z
315906001315906018-017000     315906006003000541850MUG OCC. MOM JUMBO ASST0000001000+00005262+00000+0001T   00005262+0000001739          1400 KD2515               1AZ
315906002315906077-000310     315906006001023608635GIFT-BAG 18X23CM GLOSS 0000001000+00001314+00000+0001T   00001314+0000001739          1400 KD2112               1AZ
315906003315906018-005009     315906006001023725608MUG W/PLUSH-BEAR LOVE  0000001000+00003507+00000+0001T   00003507+0000001739          1400 KD2515               1AZ
315906004315906001-091415     315906006003000329113W/GLS OCC. LOVE 2PC 2800000001000+00008771+00000+0001T   00009648+0006471739          1400 KD2515               1AZ
315906005315906077-000270     315906006003000395453GIFT-BAG PPR JMB 33X45 0000001000+00002630+00000+0001T   00002630+0000001739          1400 KD2112               1AZ
315907000315907               315907               170213HY     1400+00000+HY0000006344+0000006344+000000000+000000891+0000007235+0000000000+I40000007235+0000000000+Z
315907001315907002-000684     315907006001023693778K/TOOL TURNER H/HOUSE  0000001000+00002192+00000+0001T   00002192+0000001743          1400 KD2300               1AZ
315907002315907903-000892     315907008693029700420SWT NOVELTY CHOCO CREAM0000003000+00000788+00000+0001T   00000788+0000001743          1400 KD2150               1AZ
315907003315907036-000063     315907006009654960436COATHANGERS VIRGIN 5PCE0000001000+00001753+00000+0001T   00001753+0000001743          1400 KD2212               1AZ
315907004315907112-116038     315907006009681820246TCS CARRIER BAG MIDI   0000001000+00000035+00000+0001T   00000035+0000001743          1400 KD2090               1AZ
M17021391                              CASH        HYSLAVE 1                       Z-REPORT No.   591TOTAL (Sales - Refunds)           6860.68       CASH TO BE BANKED                 3549.10       DEBIT CARDS                          0.00       CREDIT CARDS                      3311.58       Z-READING                         6860.68       AIRTIME DEBIT CARD SALES             0.00       AIRTIME CARD SALES                   0.00       OVERS/UNDERS                         0.00       AIRTIME CASH SALES                   0.00       GIFT CARDS                           0.00       GIFT CARD CASH SALES                 0.00       T O T A L  CASH PAYOUTS              0.00                                                                                                                                                                                                                                                                                                                                                      Z
M17021392                              CASH        HYABSENT                                                                                                                                                                                          ANNUAL LEAVE                                                                                                                                                                                    DAY OFF                                                                                                                                                                                         COMMENTS                                                                                                                                                                                                                                                                                                                                                                                       Z
Y17021300                                          HY00000000603599+000072
ZHY17021319493 SLAVE 1      SALES DATA                     NEXT INVOICE NO.  315908 0591
X HY Slave 1 First invoice 315836 170213 Last invoice 315907 170213 Next invoice 315908 Total number of records 000000289 clbackup completed 19:49:41
