234900000234900               234900               170213HZ     1400+00000+HZ0000030024+0000030024+000000000+000004212+0000034230+0000000006+I20000000000+0000034230+Z
234900001234900089-000027     234900006003000254071KEY CHAIN MOM/DAD ASSTD0000001000+00001753+00000+0001T   00001753+0000001036          1400 LS3205               3AZ
234900002234900077-000270     234900006003000395453GIFT-BAG PPR JMB 33X45 0000001000+00002630+00000+0001T   00002630+0000001036          1400 LS3112               3AZ
234900003234900018-005009     234900006001023725608MUG W/PLUSH-BEAR LOVE  0000001000+00003507+00000+0001T   00003507+0000001036          1400 LS3515               3AZ
234900004234900078-000026     234900006936198407090SUPERGLUE 3,0g GEL     0000001000+00001753+00000+0001T   00001753+0000001036          1400 LS3810               3AZ
234900005234900030-000031-A   234900006003000457588PLAQUE W/WORDS ASSTD   0000001000+00004385+00000+0001T   00004823+0006471036          1400 LS3505               3AZ
234900006234900001-091415     234900006003000329113W/GLS OCC. LOVE 2PC 2800000001000+00008771+00000+0001T   00009648+0006471036          1400 LS3515               3AZ
234900007234900304-000720     234900006001023843050F/BUNCH ROSE 6-HEAD AST0000002000+00002630+00000+0001T   00002630+0000001036          1400 LS3510               3AZ
234900008234900903-000183     234900006003000451043SWT LB HEART LOLLY     0000005000+00000393+00000+0001T   00000393+0000001036          1400 LS3150               3AZ
234901000234901               234901               170213HZ     1400+00000+HZ0000001139+0000001139+000000000+000000160+0000001290+0000000009+I20000000000+0000001290+Z
234901001234901903-000087     234901006001704000161SWT SPECKLED-EGGS 50G  0000001000+00001139+00000+0001T   00001139+0000001039          1400 LS3150               3AZ
234902000234902               234902               170213HZ     1400+00000+HZ0000005699+0000005699+000000000+000000799+0000006498+0000000000+I40000006498+0000000000+Z
234902001234902079-000358     234902006003000591046ART+CRAFT FELT-TIP PENS0000001000+00003069+00000+0001T   00003069+0000001040          1400 LS3130               3AZ
234902002234902079-013101     234902006001023863706CRAFT SET DIY PIPE-CLNR0000001000+00002630+00000+0001T   00002630+0000001040          1400 LS3130               3AZ
234903000234903               234903               170213HZ     1400+00000+HZ0000001753+0000001753+000000000+000000246+0000001990+0000000009+I20000000000+0000001990+Z
234903001234903466-000200     234903006001023621665HULA-HOOP     ASSTD    0000001000+00001753+00000+0001T   00001753+0000001044          1400 LS3785               3AZ
234904000234904               234904               170213HZ     1400+00000+HZ0000014162+0000014162+000000000+000001985+0000016147+0000000000+I40000016147+0000000000+Z
234904001234904567-075490     234904009780799373776BK NOVEL ROMANCE AFR   0000001000+00003507+00000+0001T   00003507+0000001047          1400 LS3757               3AZ
234904002234904077-000314     234904006003000181148GIFT-BAG 11X14CM MATT  0000001000+00000876+00000+0001T   00000876+0000001047          1400 LS3112               3AZ
234904003234904077-000011-C   234904006001023808523TISSUE 10xSHTS RED     0000001000+00000876+00000+0001T   00000876+0000001047          1400 LS3112               3AZ
234904004234904077-000303     234904006001023593757GIFT-BAG PAPER MED     0000002000+00001578+00000+0001T   00001578+0000001047          1400 LS3112               3AZ
234904005234904112-116069     234904006009681820277TCS CARRIER BAG JUMBO  0000001000+00000048+00000+0001T   00000048+0000001047          1400 LS3090               3AZ
234904006234904072-020322     234904006003000603701PET DOG TOY TUG-ROPE   0000001000+00003069+00000+0001T   00003069+0000001047          1400 LS3870               3AZ
234904007234904072-020300     234904006008632000430DOG-TOY TUG-A-BALL SML 0000001000+00002630+00000+0001T   00002630+0000001047          1400 LS3870               3AZ
234905000234905               234905               170213HZ     1400+00000+HZ0000003191+0000003191+000000000+000000447+0000003630+0000000008+I20000000000+0000003630+Z
234905001234905266-010101     234905006001023331885MARBLES 16mm 90 PC     0000001000+00001578+00000+0001T   00001578+0000001049          1400 LS3710               3AZ
234905002234905266-001307     234905006003000610570BOYS MARBLES 16mm 50PC 0000001000+00001578+00000+0001T   00001578+0000001049          1400 LS3710               3AZ
234905003234905112-116038     234905006009681820246TCS CARRIER BAG MIDI   0000001000+00000035+00000+0001T   00000035+0000001049          1400 LS3090               3AZ
234906000234906               234906               170213HZ     1400+00000+HZ0000065393+0000065393+000000000+000009166+0000074559+0000000000+I40000074559+0000000000+Z
234906001234906112-116069     234906006009681820277TCS CARRIER BAG JUMBO  0000001000+00000048+00000+0001T   00000048+0000001053          1400 LS3090               3AZ
234906002234906369-000200     234906006001023856982BABY EDU CUP STACKING  0000001000+00002630+00000+0001T   00002630+0000001053          1400 LS3745               3AZ
234906003234906563-000318-L   234906006003000407088SERVIETTES 33cm RED    0000001000+00002192+00000+0001T   00002192+0000001053          1400 LS3214               3AZ
234906004234906563-000317-A   234906006001023776167SERVIETTES 20PK PATTERN0000001000+00002630+00000+0001T   00002630+0000001053          1400 LS3214               3AZ
234906005234906018-000170     234906006001023775528MUG OCC. LOVE 2PC MINI 0000004000+00002192+00000+0001T   00002192+0000001053          1400 LS3515               3AZ
234906006234906567-011355     234906006003000638246BK STICKER DINOSAUR    0000001000+00003507+00000+0001T   00003507+0000001053          1400 LS3757               3AZ
234906007234906566-000356     234906006003000582341STICKER ROOM WHITEBOARD0000001000+00003507+00000+0001T   00004385+0008151053          1400 LS3130               3AZ
234906008234906306-000021-A   234906006001023891358EARBUDS COTTON 100PCE  0000001000+00000876+00000+0001T   00000876+0000001053          1400 LS3200               3AZ
234906009234906466-064838     234906006001023835031BALLS MASSAGE 8cm SET-30000001000+00001753+00000+0001T   00001753+0000001053          1400 LS3785               3AZ
234906010234906369-000235     234906006001023857194LEARNING-LINKS 12PCE   0000001000+00002630+00000+0001T   00002630+0000001053          1400 LS3745               3AZ
234906011234906306-000019     234906006001023734846TOOTHBRUSH W/DESIGN    0000001000+00000525+00000+0001T   00000525+0000001053          1400 LS3200               3AZ
234906012234906565-000017     234906006003000672516NOVELTY TONGUE SLING   0000001000+00001753+00000+0001T   00001753+0000001053          1400 LS3745               3AZ
234906013234906024-091103     234906006003453014307BAKING-CUP MUFFIN 50PCE0000001000+00002192+00000+0001T   00002192+0000001053          1400 LS3300               3AZ
234906014234906030-000031-A   234906006003000457588PLAQUE W/WORDS ASSTD   0000001000+00004385+00000+0001T   00004823+0006471053          1400 LS3505               3AZ
234906015234906567-010570     234906006002242057129BOOK READER AFR DISNEY 0000001000+00002630+00000+0001T   00002630+0000001053          1400 LS3757               3AZ
234906016234906567-011438     234906009780857260628BK ACTIVITY BOYS STICKE0000001000+00003507+00000+0001T   00003507+0000001053          1400 LS3757               3AZ
234906017234906566-000357     234906006003000582464STICKER ROOM DECOR LAMP0000002000+00003507+00000+0001T   00004385+0008151053          1400 LS3130               3AZ
234906018234906083-000055     234906006003000003853LIGHTER ELCTRNC REFILBL0000003000+00000613+00000+0001T   00000613+0000001053          1400 LS3315               3AZ
234906019234906112-116038     234906006009681820246TCS CARRIER BAG MIDI   0000001000+00000035+00000+0001T   00000035+0000001053          1400 LS3090               3AZ
234906020234906002-001686     234906006003000441587JUICER PL WITH MEASURIN0000001000+00003507+00000+0001T   00003507+0000001053          1400 LS3300               3AZ
234906021234906903-000095     234906006001704011495SWT SPECKLED-EGGS 100G 0000003000+00002104+00000+0001T   00002104+0000001053          1400 LS3150               3AZ
234906022234906903-002851     234906000000087108538MENTOS ROLL STRAWBERRY 0000003000+00001051+00000+0001T   00001051+0000001053          1400 LS3150               3AZ
234907000234907               234907               170213HZ     1400+00000+HZ0000000876+0000000876+000000000+000000123+0000000990+0000000009+I20000000000+0000000990+Z
234907001234907033-005931     234907006001023678447PINS ON-WHEEL PEARLIZED0000001000+00000876+00000+0001T   00000876+0000001100          1400 LS3200               3AZ
234908000234908               234908               170213HZ     1400+00000+HZ0000004032+0000004032+000000000+000000565+0000004597+0000000000+I40000004597+0000000000+Z
234908001234908203-007000     234908006001023886040SHOT-GLASS DISPOSABLE  0000001000+00003507+00000+0001T   00003507+0000001102          1400 LS3300               3AZ
234908002234908903-000155     234908006009803374435SWT LOLLY I LUV U HEART0000001000+00000525+00000+0001T   00000525+0000001102          1400 LS3150               3AZ
234909000234909               234909               170213HZ     1400+00000+HZ0000001753+0000001753+000000000+000000246+0000001990+0000000009+I20000000000+0000001990+Z
234909002234909566-000009     234909006003000180943STICKER-BOOK HOLOGRAM  0000001000+00001753+00000+0001T   00001753+0000001109          1400 LS3130               3AZ
234910000234910               234910               170213HZ     1400+00000+HZ0000007927+0000007927+000000000+000001110+0000009037+0000000000+I40000009037+0000000000+Z
234910001234910567-011344     234910006003000630714BK COLOURING THERAPY 640000001000+00003507+00000+0001T   00003507+0000001110          1400 LS3757               3AZ
234910002234910024-000003     234910006001023462206S/BURNER COVERS ASSTD  0000001000+00004385+00000+0001T   00004385+0000001110          1400 LS3300               3AZ
234910003234910112-116038     234910006009681820246TCS CARRIER BAG MIDI   0000001000+00000035+00000+0001T   00000035+0000001110          1400 LS3090               3AZ
234911000234911               234911               170213HZ     1400+00000+HZ0000003973+0000003973+000000000+000000561+0000004530+0000000004+I20000000000+0000004530+Z
234911001234911903-000151     234911006009803374411SWT SML RND R/BOW LOLLY0000002000+00000525+00000+0001T   00000525+0000001113          1400 LS3150               3AZ
234911002234911903-002850     234911000000087108262MENTOS ROLL FRUIT      0000002000+00001051+00000+0001T   00001051+0000001113          1400 LS3150               3AZ
234911003234911903-000183     234911006003000451043SWT LB HEART LOLLY     0000002000+00000393+00000+0001T   00000393+0000001113          1400 LS3150               3AZ
234911004234911112-116038     234911006009681820246TCS CARRIER BAG MIDI   0000001000+00000035+00000+0001T   00000035+0000001113          1400 LS3090               3AZ
234912000234912               234912               170213HZ     1400+00000+HZ0000003900+0000003900+000000000+000000547+0000004447+0000000000+I40000004447+0000000000+Z
234912001234912018-000136     234912006001023659026MUG OCC LOVE W/PLUSH   0000001000+00003507+00000+0001T   00003507+0000001114          1400 LS3515               3AZ
234912002234912903-000183     234912006003000451043SWT LB HEART LOLLY     0000001000+00000393+00000+0001T   00000393+0000001114          1400 LS3150               3AZ
234913000234913               234913               170213HZ     1400+00000+HZ0000009815+0000009815+000000000+000001378+0000011190+0000000003+I20000000000+0000011190+Z
234913001234913903-000094     234913006923431501622SWT GS CANDY NECKLACE  0000001000+00000437+00000+0001T   00000437+0000001132          1400 LS3150               3AZ
234913002234913903-000892     234913008693029700420SWT NOVELTY CHOCO CREAM0000001000+00000788+00000+0001T   00000788+0000001132          1400 LS3150               3AZ
234913003234913903-002851     234913000000087108538MENTOS ROLL STRAWBERRY 0000001000+00001051+00000+0001T   00001051+0000001132          1400 LS3150               3AZ
234913004234913903-000095     234913006001704011495SWT SPECKLED-EGGS 100G 0000001000+00002104+00000+0001T   00002104+0000001132          1400 LS3150               3AZ
234913005234913903-002850     234913000000087108262MENTOS ROLL FRUIT      0000001000+00001051+00000+0001T   00001051+0000001132          1400 LS3150               3AZ
234913006234913077-000309-A   234913006003000671007GIFT-BAG HOLOGRAM JMB  0000002000+00002192+00000+0001T   00002192+0000001132          1400 LS3112               3AZ
234914000234914               234914               170213HZ     1400+00000+HZ0000004385+0000004385+000000000+000000614+0000004990+0000000009+I20000000000+0000004990+Z
234914001234914031-086301-A   234914006001023910189P/FRAME PL BRONZE 10X150000001000+00004385+00000+0001T   00004385+0000001133          1400 LS3510               3AZ
234915000234915               234915               170213HZ     1400+00000+HZ0000002276+0000002276+000000000+000000319+0000002590+0000000005+I20000000000+0000002590+Z
234915001234915566-002000     234915000721129013206STICKERS CRYSTAL ASSTD 0000002000+00000700+00000+0001T   00000700+0000001146          1400 LS3130               3AZ
234915002234915566-000200     234915006003000384174STICKER PUFFY NEON     0000001000+00000876+00000+0001T   00000876+0000001146          1400 LS3130               3AZ
234916000234916               234916               170213HZ     1400+00000+HZ0000005260+0000005260+000000000+000000737+0000005990+0000000007+I20000000000+0000005990+Z
234916001234916079-000013     234916006001023463890P/CRAYONS 24COL 18cm   0000001000+00003507+00000+0001T   00003507+0000001147          1400 LS3130               3AZ
234916002234916007-000192     234916006009635830062BOOK H/COVER A4 192PAGE0000001000+00001753+00000+0001T   00001753+0000001147          1400 LS3130               3AZ
234917000234917               234917               170213HZ     1400+00000+HZ0000014515+0000014515+000000000+000002033+0000016548+0000000000+I40000016548+0000000000+Z
234917001234917112-116069     234917006009681820277TCS CARRIER BAG JUMBO  0000001000+00000048+00000+0001T   00000048+0000001150          1400 LS3090               3AZ
234917002234917466-000051     234917006001023800510WATER BOMB 4,5cm SET 6 0000001000+00003507+00000+0001T   00003507+0000001150          1400 LS3785               3AZ
234917003234917493-059050     234917000078257590506BEACH-BALL 61cm LIVELY 0000005000+00002192+00000+0001T   00002192+0000001150          1400 LS3787               3AZ
234918000234918               234918               170213HZ     1400+00000+HZ0000005307+0000005307+000000000+000000745+0000006050+0000000002+I20000000000+0000006050+Z
234918001234918038-001804     234918006001023766618DOILIES 27cm RND PKT-100000001000+00001753+00000+0001T   00001753+0000001151          1400 LS3300               3AZ
234918002234918112-116069     234918006009681820277TCS CARRIER BAG JUMBO  0000001000+00000048+00000+0001T   00000048+0000001151          1400 LS3090               3AZ
234918003234918079-003007     234918006003000448487A/TUBE 75ML BROWN      0000001000+00001753+00000+0001T   00001753+0000001151          1400 LS3130               3AZ
234918004234918071-003011     234918006001023762825PEN STICKBALL X10 ASSTD0000001000+00001753+00000+0001T   00001753+0000001151          1400 LS3130               3AZ
234919000234919               234919               170213HZ     1400+00000+HZ0000003506+0000003506+000000000+000000492+0000003990+0000000008+I20000000000+0000003990+Z
234919001234919206-000360     234919006003000631193CITRUS SPRAYER 3PC     0000001000+00001753+00000+0001T   00001753+0000001158          1400 LS3321               3AZ
234919002234919077-000471     234919006003000330096G-BAG DESGN MED 18X23CM0000001000+00001753+00000+0001T   00001753+0000001158          1400 LS3112               3AZ
234920000234920               234920               170213HZ     1400+00000+HZ0000011843+0000011843+000000000+000001660+0000013500+0000000003+I20000000000+0000013500+Z
234920001234920368-000637     234920006001023874092PLUSH BEAR SLEEPING LOV0000001000+00011402+00000+0001T   00012279+0006471159          1400 LS3745               3AZ
234920002234920903-000183     234920006003000451043SWT LB HEART LOLLY     0000001000+00000393+00000+0001T   00000393+0000001159          1400 LS3150               3AZ
234920003234920112-116069     234920006009681820277TCS CARRIER BAG JUMBO  0000001000+00000048+00000+0001T   00000048+0000001159          1400 LS3090               3AZ
234921000234921               234921               170213HZ     1400+00000+HZ0000019555+0000019555+000000000+000002740+0000022295+0000000000+I40000022295+0000000000+Z
234921001234921082-098789     234921006001492987897#SUNGLASS GIRLS OVAL   0000001000+00003946+00000+0001T   00003946+0000001203          1400 LS3160               3AZ
234921002234921251-000041     234921006001023515889SEAL-TAPE BUFF 48mmx50m0000002000+00001227+00000+0001T   00001227+0000001203          1400 LS3810               3AZ
234921003234921077-000328     234921006003000668939GIFT-BAG PAPER JMB     0000001000+00001753+00000+0001T   00001753+0000001203          1400 LS3112               3AZ
234921004234921368-000637     234921006001023874092PLUSH BEAR SLEEPING LOV0000001000+00011402+00000+0001T   00012279+0006471203          1400 LS3745               3AZ
234922000234922               234922               170213HZ     1400+00000+HZ0000003243+0000003243+000000000+000000455+0000003690+0000000008+I20000000000+0000003690+Z
234922001234922039-000108     234922006001023524034TEA-LITE CANDLES 8PCE  0000001000+00001490+00000+0001T   00001490+0000001340          1400 LS3510               3AZ
234922002234922079-006500     234922006001023557186GLUE GLITTER 6/10 PCE  0000001000+00001753+00000+0001T   00001753+0000001340          1400 LS3130               3AZ
234923000234923               234923               170213HZ     1400+00000+HZ0000004645+0000004645+000000000+000000651+0000005290+0000000006+I20000000000+0000005290+Z
234923001234923002-021040     234923006001023812216PARTY-PICKS 100PCE     0000001000+00000525+00000+0001T   00000525+0000001341          1400 LS3300               3AZ
234923002234923104-000027     234923006003000571284BASKET RECTANGULAR     0000001000+00003507+00000+0001T   00003507+0000001341          1400 LS3210               3AZ
234923003234923027-078282     234923006001023767837SCOURER 25g SPIRAL-BALL0000001000+00000613+00000+0001T   00000613+0000001341          1400 LS3212               3AZ
234924000234924               234924               170213HZ     1400+00000+HZ0000003506+0000003506+000000000+000000492+0000003990+0000000008+I20000000000+0000003990+Z
234924001234924077-000011-D   234924006001023808554TISSUE-WRAP WHITE 10PCE0000001000+00000876+00000+0001T   00000876+0000001455          1400 LS3112               3AZ
234924002234924077-000270     234924006003000395453GIFT-BAG PPR JMB 33X45 0000001000+00002630+00000+0001T   00002630+0000001455          1400 LS3112               3AZ
234925000234925               234925               170213HZ     1400+00000+HZ0000012275+0000012275+000000000+000001720+0000013990+0000000005+I20000000000+0000013990+Z
234925001234925030-000031-A   234925006003000457588PLAQUE W/WORDS ASSTD   0000001000+00004385+00000+0001T   00004823+0006471457          1400 LS3505               3AZ
234925002234925301-085004     234925006003000420469ORN LOVE PLAQUE 21X10CM0000001000+00003507+00000+0001T   00003946+0006471457          1400 LS3505               3AZ
234925003234925301-085002     234925006003000420704ORN OCC. LOVE BELL ASST0000001000+00001753+00000+0001T   00002630+0008121457          1400 LS3505               3AZ
234925004234925565-000041     234925006008766115642NOVELTY BALL ICON 5.5cm0000001000+00002630+00000+0001T   00002630+0000001457          1400 LS3745               3AZ
234926000234926               234926               170213HZ     1400+00000+HZ0000005611+0000005611+000000000+000000786+0000006390+0000000007+I20000000000+0000006390+Z
234926001234926006-000190     234926006003000685530BALLOONS LOVE 81x91cm  0000001000+00004385+00000+0001T   00004385+0000001530          1400 LS3131               3AZ
234926002234926006-001000     234926006003000093779HELIUM BALLOON FILL    0000002000+00000613+00000+0001T   00000613+0000001530          1400 LS3131               3AZ
234927000234927               234927               170213HZ     1400+00000+HZ0000014026+0000014026+000000000+000001966+0000015992+0000000000+I40000015992+0000000000+Z
234927001234927036-000063     234927006009654960436COATHANGERS VIRGIN 5PCE0000002000+00001753+00000+0001T   00001753+0000001532          1400 LS3212               3AZ
234927002234927027-009025     234927006003962000747DUSTPAN-SET PL         0000001000+00002630+00000+0001T   00002630+0000001532          1400 LS3212               3AZ
234927003234927077-000315     234927006003000181186GIFT-BAG 20x28cm MATT  0000005000+00001578+00000+0001T   00001578+0000001532          1400 LS3112               3AZ
234928000234928               234928               170213HZ     1400+00000+HZ0000008805+0000008805+000000000+000001233+0000010030+0000000008+I20000000000+0000010030+Z
234928001234928030-000031-A   234928006003000457588PLAQUE W/WORDS ASSTD   0000002000+00004385+00000+0001T   00004823+0006471555          1400 LS3505               3AZ
234928002234928112-116038     234928006009681820246TCS CARRIER BAG MIDI   0000001000+00000035+00000+0001T   00000035+0000001555          1400 LS3090               3AZ
234929000234929               234929               170213HZ     1400+00000+HZ0000000218+0000000218+000000000+000000031+0000000240+0000000009+I20000000000+0000000240+Z
234929001234929006-000171-E   234929006003000609406BALLOONS 1PC BLUE PRNT 0000001000+00000218+00000+0001T   00000218+0000001557          1400 LS3131               3AZ
234930000234930               234930               170213HZ     1400+00000+HZ0000004381+0000004381+000000000+000000614+0000004990+0000000005+I20000000000+0000004990+Z
234930001234930018-000100     234930006001023588098MUG DAILY TUBBY 340ML  0000002000+00001314+00000+0001T   00001753+0008171611          1400 LS3515               3AZ
234930002234930077-000240     234930006003000326259G/RIBBON 4PC PEARLIZED 0000001000+00001753+00000+0001T   00001753+0000001611          1400 LS3112               3AZ
234931000234931               234931               170213HZ     1400+00000+HZ0000007062+0000007062+000000000+000000989+0000008051+0000000000+I40000008051+0000000000+Z
234931001234931031-005923     234931006003000040322P/FRAME CERT PL 21x29.70000001000+00003507+00000+0001T   00003507+0000001613          1400 LS3510               3AZ
234931002234931031-086303-B   234931006003000322404P/FRM CHAMPAGNE 13X18CM0000001000+00003507+00000+0001T   00003507+0000001613          1400 LS3510               3AZ
234931003234931112-116069     234931006009681820277TCS CARRIER BAG JUMBO  0000001000+00000048+00000+0001T   00000048+0000001613          1400 LS3090               3AZ
234932000234932               234932               170213HZ     1400+00000+HZ0000001051+0000001051+000000000+000000148+0000001190+0000000009+I20000000000+0000001190+Z
234932001234932079-009702-D   234932008427973059354PAPER SIRIO A2 RED COL 0000001000+00001051+00000+0001T   00001051+0000001617          1400 LS3130               3AZ
234933000234933               234933               170213HZ     1400+00000+HZ0000006139+0000006139+000000000+000000860+0000006990+0000000009+I20000000000+0000006990+Z
234933001234933301-000013     234933006001023781604ORN SENTIMENT STONE 4-A0000001000+00006139+00000+0001T   00006139+0000001618          1400 LS3505               3AZ
234934000234934               234934               170213HZ     1400+00000+HZ0000010305+0000010305+000000000+000001445+0000011750+0000000000+I40000011750+0000000000+Z
234934001234934103-000474     234934006003000630363BAMBOO FLOWER BASKET   0000001000+00005262+00000+0001T   00005262+0000001620          1400 LS3300               3AZ
234934002234934077-000010-C   234934006001023123879CREPE-PAPER RED        0000001000+00000788+00000+0001T   00000788+0000001620          1400 LS3112               3AZ
234934003234934563-000318-L   234934006003000407088SERVIETTES 33cm RED    0000001000+00002192+00000+0001T   00002192+0000001620          1400 LS3214               3AZ
234934004234934112-116069     234934006009681820277TCS CARRIER BAG JUMBO  0000001000+00000048+00000+0001T   00000048+0000001620          1400 LS3090               3AZ
234934005234934903-000087     234934006001704000161SWT SPECKLED-EGGS 50G  0000001000+00001139+00000+0001T   00001139+0000001620          1400 LS3150               3AZ
234934006234934903-000123     234934006925925909280SWEET GS MINI MALLOWS  0000001000+00000876+00000+0001T   00000876+0000001620          1400 LS3150               3AZ
234935000234935               234935               170213HZ     1400+00000+HZ0000000876+0000000876+000000000+000000123+0000000990+0000000009+I20000000000+0000000990+Z
234935001234935903-000861     234935005010478430822SWT LOVE HEARTS SML    0000001000+00000876+00000+0001T   00000876+0000001620          1400 LS3150               3AZ
234936000234936               234936               170213HZ     1400+00000+HZ0000003507-0000003507-000000000+000000491-0000004000-0000000002+I20000000000+0000004000-Z
234936001234936079-000013     234936006001023463890P/CRAYONS 24COL 18cm   0000001000-00003507+00000+0001T   00003507+0000001626          1400 LS31301IC            3 Z
A17021300                                          09223435HZSLAVE 3                       LS31IC
C23490900                                          170213HZ566-000359     11085318SLAVE 3     LS31IC0000000000+0000000000+0010000001000+
M17021302                              IT          HZATT IT                                          FROM HZ VANDERBIJLPARK 2                        LAST SLIP SLAVE 3                               234936
M17021391                              CASH        HZSLAVE 3                       Z-REPORT No.   631TOTAL (Sales - Refunds)           3406.51       CASH TO BE BANKED                 1507.30       DEBIT CARDS                          0.00       CREDIT CARDS                      1899.21       Z-READING                         3406.51       AIRTIME DEBIT CARD SALES             0.00       AIRTIME CARD SALES                   0.00       OVERS/UNDERS                         0.00       AIRTIME CASH SALES                   0.00       GIFT CARDS                           0.00       GIFT CARD CASH SALES                 0.00       T O T A L  CASH PAYOUTS              0.00                                                                                                                                                                                                                                                                                                                                                      Z
M17021392                              CASH        HZABSENT                                                                                                                                                                                          ANNUAL LEAVE                                                                                                                                                                                    DAY OFF           PAULINA                                                                                                                                                                       COMMENTS                                                                                                                                                                                                                                                                                                                                                                                       Z
Y17021300                                          HZ00000000302427+000036
ZHZ17021319503 SLAVE 3      SALES DATA                     NEXT INVOICE NO.  234937 0631
X HZ Slave 3 First invoice 234900 170213 Last invoice 234936 170213 Next invoice 234937 Total number of records 000000162 clbackup completed 19:50:10
