108273000108273               108273               170213J1     1400+00000+J10000009679+0000009679+000000000+000001356+0000011035+0000000000+I40000011035+0000000000+Z
108273001108273903-000006     108273006923431571571SWEET GS SOUR BELT 50g 0000001000+00000876+00000+0001T   00000876+0000000901          1400 NR8150               1AZ
108273002108273566-000359     108273006003000582709STICKER BOOK LOVE SPARK0000004000+00002192+00000+0001T   00002192+0000000901          1400 NR8130               1AZ
108273003108273112-116038     108273006009681820246TCS CARRIER BAG MIDI   0000001000+00000035+00000+0001T   00000035+0000000901          1400 NR8090               1AZ
108274000108274               108274               170213J1     1400+00000+J10000006135+0000006135+000000000+000000861+0000006996+0000000000+I40000006996+0000000000+Z
108274001108274079-000260     108274006001023886385PAINT TUBS WT BASE 4COL0000001000+00002630+00000+0001T   00002630+0000000924          1400 NR8130               1AZ
108274002108274079-003002     108274006003000447886A/TUBE 75ML RED        0000001000+00001753+00000+0001T   00001753+0000000924          1400 NR8130               1AZ
108274003108274006-000223     108274006001023891327PARTY EYE-MASK 6PCE    0000002000+00000876+00000+0001T   00000876+0000000924          1400 NR8131               1AZ
108275000108275               108275               170213J1     1400+00000+J10000004385+0000004385+000000000+000000614+0000004999+0000000000+I40000004999+0000000000+Z
108275001108275082-000110     108275006003000360482READING GLS STRENGHT:2 0000001000+00004385+00000+0001T   00004385+0000001048          1400 NR8160               1AZ
108276000108276               108276               170213J1     1400+00000+J10000002577+0000002577+000000000+000000361+0000002930+0000000008+I20000000000+0000002930+Z
108276001108276007-000104     108276006009685854865BK COVER BRWN KRFT ROLL0000001000+00000350+00000+0001T   00000350+0000001119          1400 NR8130               1AZ
108276002108276024-000097     108276006001023770035MEASURING-SET 11PCE WHT0000001000+00002192+00000+0001T   00002192+0000001119          1400 NR8300               1AZ
108276003108276112-116038     108276006009681820246TCS CARRIER BAG MIDI   0000001000+00000035+00000+0001T   00000035+0000001119          1400 NR8090               1AZ
108277000108277               108277               170213J1     1400+00000+J10000005262+0000005262+000000000+000000737+0000005990+0000000009+I20000000000+0000005990+Z
108277001108277079-000334     108277006003000670437THERAPY P/CRAYONS 18   0000001000+00005262+00000+0001T   00005262+0000001130          1400 NR8130               1AZ
108278000108278               108278               170213J1     1400+00000+J10000001753+0000001753+000000000+000000246+0000001990+0000000009+I20000000000+0000001990+Z
108278001108278150-012228-H   108278006001023416773DOOR-STOPPERS SET-OF-2 0000001000+00001753+00000+0001T   00001753+0000001142          1400 NR8810               1AZ
108279000108279               108279               170213J1     1400+00000+J10000007834+0000007834+000000000+000001100+0000008930+0000000004+I20000000000+0000008930+Z
108279001108279566-000362     108279006003000583065STICKER LETTER & NUMBER0000001000+00001753+00000+0001T   00001753+0000001143          1400 NR8130               1AZ
108279002108279566-000352     108279006001023809261STICKERS LASER ASSTD   0000001000+00002192+00000+0001T   00002192+0000001143          1400 NR8130               1AZ
108279003108279301-085006     108279006001023502940ORN LOVE MSG TUBE W/HRT0000001000+00001753+00000+0001T   00001753+0000001143          1400 NR8505               1AZ
108279004108279903-000087     108279006001704000161SWT SPECKLED-EGGS 50G  0000001000+00001139+00000+0001T   00001139+0000001143          1400 NR8150               1AZ
108279005108279903-000151     108279006009803374411SWT SML RND R/BOW LOLLY0000001000+00000525+00000+0001T   00000525+0000001143          1400 NR8150               1AZ
108279006108279112-116038     108279006009681820246TCS CARRIER BAG MIDI   0000001000+00000035+00000+0001T   00000035+0000001143          1400 NR8090               1AZ
108279007108279080-000133-A   108279006003000647019MINI VALENTINES CARD   0000001000+00000437+00000+0001T   00000437+0000001143          1400 NR8112               1AZ
108280000108280               108280               170213J1     1400+00000+J10000008766+0000008766+000000000+000001228+0000009994+0000000000+I40000009994+0000000000+Z
108280001108280030-000040     108280006003000396375PLAQUE WDN HANGING HRTS0000002000+00003069+00000+0001T   00003069+0000001151          1400 NR8505               1AZ
108280002108280903-000844     108280005010478432567SWT CANDY DL LUV HEARTS0000002000+00001314+00000+0001T   00001314+0000001151          1400 NR8150               1AZ
108281000108281               108281               170213J1     1400+00000+J10000001314+0000001314+000000000+000000184+0000001490+0000000008+I20000000000+0000001490+Z
108281001108281369-001137-A   108281006003000097487BABY BATH VINYL THEMED 0000001000+00001314+00000+0001T   00001314+0000001151          1400 NR8745               1AZ
108282000108282               108282               170213J1     1400+00000+J10000004116+0000004116+000000000+000000579+0000004690+0000000005+I20000000000+0000004690+Z
108282001108282903-000123     108282006925925909280SWEET GS MINI MALLOWS  0000001000+00000876+00000+0001T   00000876+0000001152          1400 NR8150               1AZ
108282002108282200-003026     108282006003000276448REFUSE BAGS 10PCE GREEN0000001000+00001753+00000+0001T   00001753+0000001152          1400 NR8214               1AZ
108282003108282306-000021     108282006001023169433EARBUDS 100PCE IN BAG  0000001000+00000613+00000+0001T   00000613+0000001152          1400 NR8200               1AZ
108282004108282083-000049     108282004891035200024CIG-LIGHTER DISPOSABLE 0000002000+00000437+00000+0001T   00000437+0000001152          1400 NR8315               1AZ
108283000108283               108283               170213J1     1400+00000+J10000003678+0000003678+000000000+000000516+0000004190+0000000004+I20000000000+0000004190+Z
108283001108283304-001011     108283006001023806727FLWR ROSE RED W/BEAR   0000006000+00000613+00000+0001T   00000788+0006471153          1400 NR8510               1AZ
108284000108284               108284               170213J1     1400+00000+J10000013635+0000013635+000000000+000001911+0000015546+0000000000+I40000015546+0000000000+Z
108284001108284903-005001     108284006002580020014SWT CT MALLOW MICE 120g0000001000+00001314+00000+0001T   00001314+0000001204          1400 NR8150               1AZ
108284002108284903-004952     108284006002580020052SWT FREAKY FACES 100G  0000001000+00001314+00000+0001T   00001314+0000001204          1400 NR8150               1AZ
108284003108284369-000225     108284006001023857132BABY EDU BATHTIME 5PC  0000001000+00002630+00000+0001T   00002630+0000001204          1400 NR8745               1AZ
108284004108284466-000515     108284006001023477408BALLS TENNIS BAG-OF-3  0000001000+00002630+00000+0001T   00002630+0000001204          1400 NR8785               1AZ
108284005108284306-001621     108284006001023554475INNER SOLES 1 PAIR     0000001000+00002192+00000+0001T   00002192+0000001204          1400 NR8200               1AZ
108284006108284267-000233     108284006001023688576PUZZLE 48pc EDUCATIONAL0000001000+00003507+00000+0001T   00003507+0000001204          1400 NR8755               1AZ
108284007108284112-116069     108284006009681820277TCS CARRIER BAG JUMBO  0000001000+00000048+00000+0001T   00000048+0000001204          1400 NR8090               1AZ
108285000108285               108285               170213J1     1400+00000+J10000003028+0000003028+000000000+000000425+0000003453+0000000000+I40000003453+0000000000+Z
108285001108285077-000245     108285006001023759214GIFT-RIBBON METALLICx2 0000001000+00001227+00000+0001T   00001227+0000001208          1400 NR8112               1AZ
108285002108285077-000115     108285006001023834225WRAP METALLIC 700mmx1m 0000001000+00001753+00000+0001T   00001753+0000001208          1400 NR8112               1AZ
108285003108285112-116069     108285006009681820277TCS CARRIER BAG JUMBO  0000001000+00000048+00000+0001T   00000048+0000001208          1400 NR8090               1AZ
108286000108286               108286               170213J1     1400+00000+J10000014956+0000014956+000000000+000002095+0000017050+0000000001+I20000000000+0000017050+Z
108286001108286112-116069     108286006009681820277TCS CARRIER BAG JUMBO  0000001000+00000048+00000+0001T   00000048+0000001209          1400 NR8090               1AZ
108286002108286306-000021-A   108286006001023891358EARBUDS COTTON 100PCE  0000001000+00000876+00000+0001T   00000876+0000001209          1400 NR8200               1AZ
108286003108286368-000001     108286006003000097982Plush Bear 25cm        0000001000+00004385+00000+0001T   00004385+0000001209          1400 NR8745               1AZ
108286004108286301-085003     108286006003000420827ORN OCCASION LOVE KEY  0000001000+00005262+00000+0001T   00005262+0000001209          1400 NR8505               1AZ
108286005108286368-000001     108286006003000097982Plush Bear 25cm        0000001000+00004385+00000+0001T   00004385+0000001209          1400 NR8745               1AZ
108287000108287               108287               170213J1     1400+00000+J10000004385+0000004385+000000000+000000614+0000004990+0000000009+I20000000000+0000004990+Z
108287001108287082-000115     108287006003000360604READING GLS STRNGHT:2.50000001000+00004385+00000+0001T   00004385+0000001210          1400 NR8160               1AZ
108288000108288               108288               170213J1     1400+00000+J10000012273+0000012273+000000000+000001720+0000013993+0000000000+I40000013993+0000000000+Z
108288001108288113-000001     108288006003000088690TRAVEL MUG 400ml S/S   0000002000+00003507+00000+0001T   00003507+0000001225          1400 NR8305               1AZ
108288002108288028-000014     108288006001334001316ICE-BRICK SOLID MEDIUM 0000002000+00001753+00000+0001T   00001753+0000001225          1400 NR8305               1AZ
108288003108288028-000016     108288006001334007004ICE-BRICK CLEAR    400g0000001000+00001753+00000+0001T   00001753+0000001225          1400 NR8305               1AZ
108289000108289               108289               170213J1     1400+00000+J10000003945+0000003945+000000000+000000553+0000004490+0000000008+I20000000000+0000004490+Z
108289001108289200-003024     108289006001023657299REFUSE BAGS 20PCE BLACK0000001000+00001753+00000+0001T   00001753+0000001227          1400 NR8214               1AZ
108289002108289024-091103     108289006003453014307BAKING-CUP MUFFIN 50PCE0000001000+00002192+00000+0001T   00002192+0000001227          1400 NR8300               1AZ
108290000108290               108290               170213J1     1400+00000+J10000007486+0000007486+000000000+000001049+0000008530+0000000005+I20000000000+0000008530+Z
108290001108290089-000200     108290006003000485840KEY CHAIN POLY LOVE IS 0000001000+00003507+00000+0001T   00004385+0008121230          1400 NR8205               1AZ
108290002108290018-005009     108290006001023725608MUG W/PLUSH-BEAR LOVE  0000001000+00003507+00000+0001T   00003507+0000001230          1400 NR8515               1AZ
108290003108290112-116038     108290006009681820246TCS CARRIER BAG MIDI   0000001000+00000035+00000+0001T   00000035+0000001230          1400 NR8090               1AZ
108290004108290080-000133-A   108290006003000647019MINI VALENTINES CARD   0000001000+00000437+00000+0001T   00000437+0000001230          1400 NR8112               1AZ
108291000108291               108291               170213J1     1400+00000+J10000002630+0000002630+000000000+000000369+0000002990+0000000009+I20000000000+0000002990+Z
108291001108291108-003021     108291006003000343911MUG SUPER SIPPER 450ml 0000001000+00002630+00000+0001T   00002630+0000001238          1400 NR8210               1AZ
108292000108292               108292               170213J1     1400+00000+J10000007188+0000007188+000000000+000001008+0000008190+0000000006+I20000000000+0000008190+Z
108292001108292903-000295     108292006001704002899SWT MS FRUITY RASCALS  0000001000+00000876+00000+0001T   00000876+0000001241          1400 NR8150               1AZ
108292002108292903-000087     108292006001704000161SWT SPECKLED-EGGS 50G  0000001000+00001139+00000+0001T   00001139+0000001241          1400 NR8150               1AZ
108292003108292903-000200     108292006009826020234SWT CHOC RP CHOCO 23G  0000001000+00000788+00000+0001T   00000788+0000001241          1400 NR8150               1AZ
108292004108292031-000001-A   108292006003000246908P/FRAME GLS LOVE 9X13cm0000001000+00004385+00000+0001T   00004385+0000001241          1400 NR8510               1AZ
108293000108293               108293               170213J1     1400+00000+J10000009681+0000009681+000000000+000001356+0000011037+0000000000+I40000011037+0000000000+Z
108293001108293001-000175     108293006001023788108B/MUG GLS LOVE 380ML   0000001000+00004385+00000+0001T   00004385+0000001245          1400 NR8515               1AZ
108293002108293031-000001-A   108293006003000246908P/FRAME GLS LOVE 9X13cm0000001000+00004385+00000+0001T   00004385+0000001245          1400 NR8510               1AZ
108293003108293077-000151     108293006008766114676GIFT-WRAP C/PHANE ASSTD0000001000+00000876+00000+0001T   00000876+0000001245          1400 NR8112               1AZ
108293004108293112-116038     108293006009681820246TCS CARRIER BAG MIDI   0000001000+00000035+00000+0001T   00000035+0000001245          1400 NR8090               1AZ
108294000108294               108294               170213J1     1400+00000+J10000001753+0000001753+000000000+000000246+0000001990+0000000009+I20000000000+0000001990+Z
108294001108294077-000309     108294006001023608604GIFT-BAG 25X32CM GLOSS 0000001000+00001753+00000+0001T   00001753+0000001253          1400 NR8112               1AZ
108295000108295               108295               170213J1     1400+00000+J10000002628+0000002628+000000000+000000368+0000002990+0000000006+I20000000000+0000002990+Z
108295001108295903-000194     108295006009826020616SWT CHOC RP LOLLY 25G  0000002000+00001314+00000+0001T   00001314+0000001259          1400 NR8150               1AZ
108296000108296               108296               170213J1     1400+00000+J10000005960-0000005960-000000000+000000836-0000006800-0000000004+I20000000000+0000006800-Z
108296001108296046-000004     108296006001023606525BATTERY 9VOLT H/POWER  0000004000-00001490+00000+0001T   00001490+0000001301          1400 NR83122IC            1 Z
108297000108297               108297               170213J1     1400+00000+J10000001753+0000001753+000000000+000000246+0000001990+0000000009+I20000000000+0000001990+Z
108297001108297079-000275     108297006003000160488PAINT-BRUSHES 6PCE PRO 0000001000+00001753+00000+0001T   00001753+0000001404          1400 NR8130               1AZ
108298000108298               108298               170213J1     1400+00000+J10000006961+0000006961+000000000+000000976+0000007930+0000000007+I20000000000+0000007930+Z
108298001108298001-000175     108298006001023788108B/MUG GLS LOVE 380ML   0000001000+00004385+00000+0001T   00004385+0000001405          1400 NR8515               1AZ
108298002108298077-000010-D   108298006001023123886CREPE-PAPER WHITE      0000001000+00000788+00000+0001T   00000788+0000001405          1400 NR8112               1AZ
108298003108298077-000472     108298006003000330133G-BAG DESGNR LRG 25X32 0000001000+00001753+00000+0001T   00001753+0000001405          1400 NR8112               1AZ
108298004108298112-116038     108298006009681820246TCS CARRIER BAG MIDI   0000001000+00000035+00000+0001T   00000035+0000001405          1400 NR8090               1AZ
108299000108299               108299               170213J1     1400+00000+J10000001578+0000001578+000000000+000000221+0000001790+0000000009+I20000000000+0000001790+Z
108299001108299077-000315     108299006003000181186GIFT-BAG 20x28cm MATT  0000001000+00001578+00000+0001T   00001578+0000001407          1400 NR8112               1AZ
108300000108300               108300               170213J1     1400+00000+J10000007451+0000007451+000000000+000001045+0000008490+0000000006+I20000000000+0000008490+Z
108300001108300140-006004     108300006001023628077FLY-SWATTER RUBBER     0000001000+00001139+00000+0001T   00001139+0000001430          1400 NR8830               1AZ
108300002108300104-000187     108300006003000138586FRIDGE CONDIMENT CADDY 0000001000+00003069+00000+0001T   00003069+0000001430          1400 NR8210               1AZ
108300003108300133-000036     108300006003000133376CLOTHS M/PURPOSE PACK-20000001000+00001753+00000+0001T   00001753+0000001430          1400 NR8212               1AZ
108300004108300051-002401     108300006001023523570TRIGGER-SPRAYER   300ml0000001000+00001490+00000+0001T   00001490+0000001430          1400 NR8820               1AZ
108301000108301               108301               170213J1     1400+00000+J10000009502+0000009502+000000000+000001331+0000010833+0000000000+I40000010833+0000000000+Z
108301001108301077-000303     108301006001023593757GIFT-BAG PAPER MED     0000001000+00001578+00000+0001T   00001578+0000001437          1400 NR8112               1AZ
108301002108301018-019000     108301006003000557288MUG OCC. LOVE JUMBO    0000001000+00005262+00000+0001T   00005262+0000001437          1400 NR8515               1AZ
108301003108301304-001011     108301006001023806727FLWR ROSE RED W/BEAR   0000001000+00000613+00000+0001T   00000788+0006471437          1400 NR8510               1AZ
108301004108301903-000070     108301006001704001106SWT TOFFEE CREAMY 35g  0000001000+00000700+00000+0001T   00000700+0000001437          1400 NR8150               1AZ
108301005108301112-116038     108301006009681820246TCS CARRIER BAG MIDI   0000001000+00000035+00000+0001T   00000035+0000001437          1400 NR8090               1AZ
108301006108301903-000194     108301006009826020616SWT CHOC RP LOLLY 25G  0000001000+00001314+00000+0001T   00001314+0000001437          1400 NR8150               1AZ
108302000108302               108302               170213J1     1400+00000+J10000010205+0000010205+000000000+000001430+0000011630+0000000005+I20000000000+0000011630+Z
108302001108302077-000348     108302006001023483287GIFT-BOWS 4,5cm 8PCE   0000002000+00001578+00000+0001T   00001578+0000001439          1400 NR8112               1AZ
108302002108302006-000190     108302006003000685530BALLOONS LOVE 81x91cm  0000001000+00004385+00000+0001T   00004385+0000001439          1400 NR8131               1AZ
108302003108302566-000068     108302006003000418046POP UP LOVE 2 ASSTD    0000001000+00002192+00000+0001T   00002192+0000001439          1400 NR8130               1AZ
108302004108302112-116038     108302006009681820246TCS CARRIER BAG MIDI   0000001000+00000035+00000+0001T   00000035+0000001439          1400 NR8090               1AZ
108302005108302080-000133-A   108302006003000647019MINI VALENTINES CARD   0000001000+00000437+00000+0001T   00000437+0000001439          1400 NR8112               1AZ
108303000108303               108303               170213J1     1400+00000+J10000004432+0000004432+000000000+000000621+0000005050+0000000003+I20000000000+0000005050+Z
108303001108303200-000200     108303006008766091144BAKING ALUM FOIL 2PCE  0000002000+00002192+00000+0001T   00002192+0000001447          1400 NR8214               1AZ
108303002108303112-116069     108303006009681820277TCS CARRIER BAG JUMBO  0000001000+00000048+00000+0001T   00000048+0000001447          1400 NR8090               1AZ
108304000108304               108304               170213J1     1400+00000+J10000001578+0000001578+000000000+000000221+0000001790+0000000009+I20000000000+0000001790+Z
108304001108304077-000323     108304006001023677563G/BAG 25X32CM E/DAY FLO0000001000+00001578+00000+0001T   00001578+0000001448          1400 NR8112               1AZ
108305000108305               108305               170213J1     1400+00000+J10000002227+0000002227+000000000+000000312+0000002530+0000000009+I20000000000+0000002530+Z
108305001108305080-000127     108305006003000424351VALENTINES DAY 36x24CM 0000001000+00002192+00000+0001T   00002192+0000001511          1400 NR8112               1AZ
108305002108305112-116038     108305006009681820246TCS CARRIER BAG MIDI   0000001000+00000035+00000+0001T   00000035+0000001511          1400 NR8090               1AZ
108306000108306               108306               170213J1     1400+00000+J10000004119+0000004119+000000000+000000578+0000004697+0000000000+I40000004697+0000000000+Z
108306001108306566-000066     108306006003000283675STICKERS GLITTER 25PCS 0000001000+00001753+00000+0001T   00001753+0000001513          1400 NR8130               1AZ
108306002108306007-000555     108306006001023848239MEMO-PAD MINI LOVE     0000001000+00000613+00000+0001T   00000613+0000001513          1400 NR8130               1AZ
108306003108306566-000007     108306006001023761187S/BOOK SUPER VALUE     0000001000+00001753+00000+0001T   00001753+0000001513          1400 NR8130               1AZ
108307000108307               108307               170213J1     1400+00000+J10000003419+0000003419+000000000+000000479+0000003890+0000000008+I20000000000+0000003890+Z
108307001108307301-085000     108307006003000674299 ORN OCC. LOVE HEARTS  0000001000+00002192+00000+0001T   00002192+0000001513          1400 NR8505               1AZ
108307002108307077-000245     108307006001023759214GIFT-RIBBON METALLICx2 0000001000+00001227+00000+0001T   00001227+0000001513          1400 NR8112               1AZ
108308000108308               108308               170213J1     1400+00000+J10000002190+0000002190+000000000+000000308+0000002490+0000000008+I20000000000+0000002490+Z
108308001108308565-000043     108308006003000109562NOVELTY BALL FUNNY FACE0000001000+00001753+00000+0001T   00001753+0000001514          1400 NR8745               1AZ
108308002108308080-000133-A   108308006003000647019MINI VALENTINES CARD   0000001000+00000437+00000+0001T   00000437+0000001514          1400 NR8112               1AZ
108309000108309               108309               170213J1     1400+00000+J10000000911+0000000911+000000000+000000128+0000001030+0000000009+I20000000000+0000001030+Z
108309001108309903-000123     108309006925925909280SWEET GS MINI MALLOWS  0000001000+00000876+00000+0001T   00000876+0000001522          1400 NR8150               1AZ
108309002108309112-116038     108309006009681820246TCS CARRIER BAG MIDI   0000001000+00000035+00000+0001T   00000035+0000001522          1400 NR8090               1AZ
108310000108310               108310               170213J1     1400+00000+J10000007015+0000007015+000000000+000000983+0000007990+0000000008+I20000000000+0000007990+Z
108310001108310001-000175     108310006001023788108B/MUG GLS LOVE 380ML   0000001000+00004385+00000+0001T   00004385+0000001523          1400 NR8515               1AZ
108310002108310206-000620     108310006003000631797BACK SCRATCHER EXTEND  0000001000+00002630+00000+0001T   00002630+0000001523          1400 NR8321               1AZ
108311000108311               108311               170213J1     1400+00000+J10000004870+0000004870+000000000+000000683+0000005550+0000000003+I20000000000+0000005550+Z
108311001108311080-000127     108311006003000424351VALENTINES DAY 36x24CM 0000001000+00002192+00000+0001T   00002192+0000001524          1400 NR8112               1AZ
108311002108311071-001124     108311006001023802873MARKERS WHITEBOARD 3PCE0000001000+00002630+00000+0001T   00002630+0000001524          1400 NR8130               1AZ
108311003108311112-116069     108311006009681820277TCS CARRIER BAG JUMBO  0000001000+00000048+00000+0001T   00000048+0000001524          1400 NR8090               1AZ
108312000108312               108312               170213J1     1400+00000+J10000003945+0000003945+000000000+000000553+0000004498+0000000000+I40000004498+0000000000+Z
108312001108312903-000619     108312006003000672455SWT LOLLY STR/BRRY 140G0000001000+00001753+00000+0001T   00001753+0000001526          1400 NR8150               1AZ
108312002108312080-000127     108312006003000424351VALENTINES DAY 36x24CM 0000001000+00002192+00000+0001T   00002192+0000001526          1400 NR8112               1AZ
108313000108313               108313               170213J1     1400+00000+J10000019032+0000019032+000000000+000002665+0000021697+0000000000+I40000021697+0000000000+Z
108313001108313072-020241     108313006946859290039PET CAVE 42x45x40cm    0000001000+00017542+00000+0001T   00017542+0000001527          1400 NR8870               1AZ
108313002108313077-000299     108313006003000395576G/BAG 32x25cm LRG LOVE 0000001000+00001490+00000+0001T   00001490+0000001527          1400 NR8112               1AZ
108314000108314               108314               170213J1     1400+00000+J10000003540+0000003540+000000000+000000496+0000004036+0000000000+I40000004036+0000000000+Z
108314001108314304-001011     108314006001023806727FLWR ROSE RED W/BEAR   0000001000+00000613+00000+0001T   00000788+0006471530          1400 NR8510               1AZ
108314002108314018-000127     108314006001023380289MUG OCC STRAIGHT LOVE  0000001000+00001578+00000+0001T   00001753+0006471530          1400 NR8515               1AZ
108314003108314903-004950     108314006002580020304SWT APRICOT SURPRISE   0000001000+00001314+00000+0001T   00001314+0000001530          1400 NR8150               1AZ
108314004108314112-116038     108314006009681820246TCS CARRIER BAG MIDI   0000001000+00000035+00000+0001T   00000035+0000001530          1400 NR8090               1AZ
108315000108315               108315               170213J1     1400+00000+J10000035118+0000035118+000000000+000004917+0000040030+0000000005+I20000000000+0000040030+Z
108315001108315031-005923     108315006003000040322P/FRAME CERT PL 21x29.70000010000+00003507+00000+0001T   00003507+0000001533          1400 NR8510               1AZ
108315002108315112-116069     108315006009681820277TCS CARRIER BAG JUMBO  0000001000+00000048+00000+0001T   00000048+0000001533          1400 NR8090               1AZ
108316000108316               108316               170213J1     1400+00000+J10000001314+0000001314+000000000+000000184+0000001490+0000000008+I20000000000+0000001490+Z
108316001108316105-001031     108316000700371696627FOODSAVER 800ml        0000001000+00001314+00000+0001T   00001314+0000001533          1400 NR8210               1AZ
108317000108317               108317               170213J1     1400+00000+J10000008851+0000008851+000000000+000001243+0000010094+0000000000+I40000010094+0000000000+Z
108317001108317301-085001     108317006003000297610ORN WATERBALL LOVE ASST0000001000+00004823+00000+0001T   00004823+0000001535          1400 NR8505               1AZ
108317002108317903-000151     108317006009803374411SWT SML RND R/BOW LOLLY0000001000+00000525+00000+0001T   00000525+0000001535          1400 NR8150               1AZ
108317003108317903-000155     108317006009803374435SWT LOLLY I LUV U HEART0000001000+00000525+00000+0001T   00000525+0000001535          1400 NR8150               1AZ
108317004108317903-000200     108317006009826020234SWT CHOC RP CHOCO 23G  0000001000+00000788+00000+0001T   00000788+0000001535          1400 NR8150               1AZ
108317005108317104-000040     108317006001023846280BASKET HEART-SHAPED    0000001000+00001753+00000+0001T   00001753+0000001535          1400 NR8210               1AZ
108317006108317080-000133-A   108317006003000647019MINI VALENTINES CARD   0000001000+00000437+00000+0001T   00000437+0000001535          1400 NR8112               1AZ
108318000108318               108318               170213J1     1400+00000+J10000002192+0000002192+000000000+000000307+0000002490+0000000009+I20000000000+0000002490+Z
108318001108318566-000359     108318006003000582709STICKER BOOK LOVE SPARK0000001000+00002192+00000+0001T   00002192+0000001536          1400 NR8130               1AZ
108319000108319               108319               170213J1     1400+00000+J10000001838+0000001838+000000000+000000258+0000002090+0000000006+I20000000000+0000002090+Z
108319001108319362-004001     108319000613153010385PRINCESS ASSTD TRINKETS0000001000+00000700+00000+0001T   00000876+0008181537          1400 NR8160               1AZ
108319002108319903-000006     108319006923431571571SWEET GS SOUR BELT 50g 0000001000+00000876+00000+0001T   00000876+0000001537          1400 NR8150               1AZ
108319003108319903-000216     108319006925925900966SWT MALLOW TWIST ERKO  0000001000+00000262+00000+0001T   00000262+0000001537          1400 NR8150               1AZ
108320000108320               108320               170213J1     1400+00000+J10000009066+0000009066+000000000+000001270+0000010336+0000000000+I40000010336+0000000000+Z
108320001108320368-000701     108320006003000477432PLUSH DOG              0000001000+00006139+00000+0001T   00006139+0000001539          1400 NR8745               1AZ
108320002108320018-000127     108320006001023380289MUG OCC STRAIGHT LOVE  0000001000+00001578+00000+0001T   00001753+0006471539          1400 NR8515               1AZ
108320003108320903-000194     108320006009826020616SWT CHOC RP LOLLY 25G  0000001000+00001314+00000+0001T   00001314+0000001539          1400 NR8150               1AZ
108320004108320112-116038     108320006009681820246TCS CARRIER BAG MIDI   0000001000+00000035+00000+0001T   00000035+0000001539          1400 NR8090               1AZ
108321000108321               108321               170213J1     1400+00000+J10000006611+0000006611+000000000+000000926+0000007530+0000000007+I20000000000+0000007530+Z
108321001108321018-019000     108321006003000557288MUG OCC. LOVE JUMBO    0000001000+00005262+00000+0001T   00005262+0000001543          1400 NR8515               1AZ
108321002108321903-000194     108321006009826020616SWT CHOC RP LOLLY 25G  0000001000+00001314+00000+0001T   00001314+0000001543          1400 NR8150               1AZ
108321003108321112-116038     108321006009681820246TCS CARRIER BAG MIDI   0000001000+00000035+00000+0001T   00000035+0000001543          1400 NR8090               1AZ
108322000108322               108322               170213J1     1400+00000+J10000003507+0000003507+000000000+000000491+0000003990+0000000008+I20000000000+0000003990+Z
108322001108322018-005009     108322006001023725608MUG W/PLUSH-BEAR LOVE  0000001000+00003507+00000+0001T   00003507+0000001544          1400 NR8515               1AZ
108323000108323               108323               170213J1     1400+00000+J10000000613+0000000613+000000000+000000086+0000000690+0000000009+I20000000000+0000000690+Z
108323001108323304-001011     108323006001023806727FLWR ROSE RED W/BEAR   0000001000+00000613+00000+0001T   00000788+0006471544          1400 NR8510               1AZ
108324000108324               108324               170213J1     1400+00000+J10000001139+0000001139+000000000+000000160+0000001290+0000000009+I20000000000+0000001290+Z
108324001108324466-000517     108324006001023752017BALL TENNIS RED CRICKET0000001000+00001139+00000+0001T   00001139+0000001551          1400 NR8785               1AZ
108325000108325               108325               170213J1     1400+00000+J10000024587+0000024587+000000000+000003445+0000028032+0000000000+I40000028032+0000000000+Z
108325001108325564-001028     108325006001023708663BUBBLE CELEBRATION 6ml 0000008000+00003069+00000+0001T   00003069+0000001554          1400 NR8131               1AZ
108325002108325112-116038     108325006009681820246TCS CARRIER BAG MIDI   0000001000+00000035+00000+0001T   00000035+0000001554          1400 NR8090               1AZ
108326000108326               108326               170213J1     1400+00000+J10000003065+0000003065+000000000+000000430+0000003490+0000000005+I20000000000+0000003490+Z
108326001108326304-001011     108326006001023806727FLWR ROSE RED W/BEAR   0000005000+00000613+00000+0001T   00000788+0006471555          1400 NR8510               1AZ
108327000108327               108327               170213J1     1400+00000+J10000001753+0000001753+000000000+000000246+0000001990+0000000009+I20000000000+0000001990+Z
108327001108327903-000211     108327006002099001238SWT GS MALLOW ICE CREAM0000001000+00001753+00000+0001T   00001753+0000001555          1400 NR8150               1AZ
108328000108328               108328               170213J1     1400+00000+J10000000613+0000000613+000000000+000000086+0000000690+0000000009+I20000000000+0000000690+Z
108328001108328304-001011     108328006001023806727FLWR ROSE RED W/BEAR   0000001000+00000613+00000+0001T   00000788+0006471604          1400 NR8510               1AZ
108329000108329               108329               170213J1     1400+00000+J10000000876+0000000876+000000000+000000123+0000000990+0000000009+I20000000000+0000000990+Z
108329001108329077-000151     108329006008766114676GIFT-WRAP C/PHANE ASSTD0000001000+00000876+00000+0001T   00000876+0000001606          1400 NR8112               1AZ
108330000108330               108330               170213J1     1400+00000+J10000001753+0000001753+000000000+000000246+0000001990+0000000009+I20000000000+0000001990+Z
108330001108330027-056191     108330006916920933134DISH-BRUSH+HOOK RECT   0000001000+00001753+00000+0001T   00001753+0000001607          1400 NR8212               1AZ
108331000108331               108331               170213J1     1400+00000+J10000006139+0000006139+000000000+000000860+0000006990+0000000009+I20000000000+0000006990+Z
108331001108331368-000701     108331006003000477432PLUSH DOG              0000001000+00006139+00000+0001T   00006139+0000001608          1400 NR8745               1AZ
108332000108332               108332               170213J1     1400+00000+J10000018026+0000018026+000000000+000002525+0000020551+0000000000+I40000020551+0000000000+Z
108332002108332368-000111     108332006001023780812PLUSH BEAR/DOG 29CM    0000001000+00012279+00000+0001T   00012279+0000001614          1400 NR8745               1AZ
108332003108332368-000049     108332006003000536955PLUSH BEAR 15cm LOVE   0000001000+00004385+00000+0001T   00004385+0000001614          1400 NR8745               1AZ
108332004108332112-116069     108332006009681820277TCS CARRIER BAG JUMBO  0000001000+00000048+00000+0001T   00000048+0000001614          1400 NR8090               1AZ
108332005108332903-000194     108332006009826020616SWT CHOC RP LOLLY 25G  0000001000+00001314+00000+0001T   00001314+0000001614          1400 NR8150               1AZ
108333000108333               108333               170213J1     1400+00000+J10000001227+0000001227+000000000+000000172+0000001390+0000000009+I20000000000+0000001390+Z
108333001108333903-000518     108333006001704012782SWT STRAWS S/BERRY 100g0000001000+00001227+00000+0001T   00001227+0000001615          1400 NR8150               1AZ
108334000108334               108334               170213J1     1400+00000+J10000000876+0000000876+000000000+000000123+0000000990+0000000009+I20000000000+0000000990+Z
108334001108334077-000150-D   108334006003000054343GIFT-WRAP CELLPHANE CLR0000001000+00000876+00000+0001T   00000876+0000001616          1400 NR8112               1AZ
108335000108335               108335               170213J1     1400+00000+J10000002630+0000002630+000000000+000000369+0000002990+0000000009+I20000000000+0000002990+Z
108335001108335079-013101     108335006001023863706CRAFT SET DIY PIPE-CLNR0000001000+00002630+00000+0001T   00002630+0000001649          1400 NR8130               1AZ
108336000108336               108336               170213J1     1400+00000+J10000000700+0000000700+000000000+000000098+0000000798+0000000000+I40000000798+0000000000+Z
108336001108336464-000121     108336006003000640492PLAYING CARDS MINI     0000001000+00000700+00000+0001T   00000700+0000001651          1400 NR8785               1AZ
108337000108337               108337               170213J1     1400+00000+J10000001227+0000001227+000000000+000000172+0000001390+0000000009+I20000000000+0000001390+Z
108337001108337007-000160     108337006009685857286NOTE-BOOK A5 SHORTHAND 0000001000+00001227+00000+0001T   00001227+0000001654          1400 NR8130               1AZ
108338000108338               108338               170213J1     1400+00000+J10000003977+0000003977+000000000+000000558+0000004535+0000000000+I40000004535+0000000000+Z
108338001108338077-000310     108338006001023608635GIFT-BAG 18X23CM GLOSS 0000001000+00001314+00000+0001T   00001314+0000001657          1400 NR8112               1AZ
108338002108338077-000314     108338006003000181148GIFT-BAG 11X14CM MATT  0000003000+00000876+00000+0001T   00000876+0000001657          1400 NR8112               1AZ
108338003108338112-116038     108338006009681820246TCS CARRIER BAG MIDI   0000001000+00000035+00000+0001T   00000035+0000001657          1400 NR8090               1AZ
108339000108339               108339               170213J1     1400+00000+J10000004385+0000004385+000000000+000000614+0000004999+0000000000+I40000004999+0000000000+Z
108339001108339031-000001-A   108339006003000246908P/FRAME GLS LOVE 9X13cm0000001000+00004385+00000+0001T   00004385+0000001658          1400 NR8510               1AZ
108340000108340               108340               170213J1     1400+00000+J10000012275+0000012275+000000000+000001719+0000013994+0000000000+I40000013994+0000000000+Z
108340001108340368-000049     108340006003000536955PLUSH BEAR 15cm LOVE   0000001000+00004385+00000+0001T   00004385+0000001735          1400 NR8745               1AZ
108340002108340031-000002-A   108340006003000247103P/FRAME LOVE 7.5X7.5CM 0000001000+00003507+00000+0001T   00003507+0000001735          1400 NR8510               1AZ
108340003108340030-000040     108340006003000396375PLAQUE WDN HANGING HRTS0000001000+00003069+00000+0001T   00003069+0000001735          1400 NR8505               1AZ
108340004108340077-000470     108340006003000330171G-BAG DESGN SML 11X14CM0000001000+00001314+00000+0001T   00001314+0000001735          1400 NR8112               1AZ
A17021300                                          12114181J1SLAVE 1                       NR81IC
A17021301                                          16005703J1SLAVE 1                       NR81IC
C10833200                                          170213J1018-000130     16131412SLAVE 1     NR81IC0000000000+0000000000+0010000001000+
M17021301                              IT          J1ATT IT                                                                                                                                          LAST SLIP NO: FOR SLV1=108340                                     SLV2=209869                                                                                                                                                                                                                   THAN KYOU J1.
M17021391                              CASH        J1SLAVE 1                       Z-REPORT No.   638TOTAL (Sales - Refunds)           4354.33       CASH TO BE BANKED                 2192.80       DEBIT CARDS                          0.00       CREDIT CARDS                      2161.53       Z-READING                         4354.33       AIRTIME DEBIT CARD SALES             0.00       AIRTIME CARD SALES                   0.00       OVERS/UNDERS                         0.00       AIRTIME CASH SALES                   0.00       GIFT CARDS                           0.00       GIFT CARD CASH SALES                 0.00       T O T A L  CASH PAYOUTS              0.00                                                                                                                                                                                                                                                                                                                                                      Z
M17021392                              CASH        J1ABSENT                                                                                                                                                                                          ANNUAL LEAVE                                                                                                                                                                                    DAY OFF                                                                                                                                                                                         COMMENTS          Z-REPORT NO:638                                 Z-READING AMOUNT R4354.00                       XOLILE.                                                                                                                                                                                                                                                                      Z
Y17021300                                          J100006700388173+000067
ZJ117021319503 SLAVE 1      SALES DATA                     NEXT INVOICE NO.  108341 0638
X J1 Slave 1 First invoice 108273 170213 Last invoice 108340 170213 Next invoice 108341 Total number of records 000000236 clbackup completed 19:50:21
