209796000209796               209796               170213J1     1400+00000+J10000004870+0000004870+000000000+000000683+0000005550+0000000003+I20000000000+0000005550+Z
209796001209796006-000120     209796006001023346889BALLOONS 10PC MIX COL  0000001000+00001753+00000+0001T   00001753+0000000939          1400 HE3131               2AZ
209796002209796038-001805     209796006003000466405DOILIES PAPER 60PC 3ASS0000001000+00003069+00000+0001T   00003069+0000000939          1400 HE3300               2AZ
209796003209796112-116069     209796006009681820277TCS CARRIER BAG JUMBO  0000001000+00000048+00000+0001T   00000048+0000000939          1400 HE3090               2AZ
209797000209797               209797               170213J1     1400+00000+J10000005260+0000005260+000000000+000000738+0000005990+0000000008+I20000000000+0000005990+Z
209797001209797466-000061     209797006003000611188BALL WATER 15CM ASSTD  0000001000+00002630+00000+0001T   00002630+0000001002          1400 HE3785               2AZ
209797002209797466-000515     209797006001023477408BALLS TENNIS BAG-OF-3  0000001000+00002630+00000+0001T   00002630+0000001002          1400 HE3785               2AZ
209798000209798               209798               170213J1     1400+00000+J10000021096+0000021096+000000000+000002955+0000024050+0000000001+I20000000000+0000024050+Z
209798001209798105-008005     209798006002580009484STORAGE CONTAINER 7.5L 0000001000+00004385+00000+0001T   00004385+0000001007          1400 HE3210               2AZ
209798002209798041-007031     209798006003000178124H/GLO BUBBLE-BATH 480ml0000001000+00003069+00000+0001T   00003069+0000001007          1400 HE3200               2AZ
209798003209798073-000158     209798006003000683352COSMETIC BAG 18x10x3   0000001000+00002192+00000+0001T   00002192+0000001007          1400 HE3200               2AZ
209798004209798112-116069     209798006009681820277TCS CARRIER BAG JUMBO  0000001000+00000048+00000+0001T   00000048+0000001007          1400 HE3090               2AZ
209798005209798040-000103     209798000694202201862C/HOLDER-SET 5PC W/TRAY0000001000+00011402+00000+0001T   00013157+0008191007          1400 HE3510               2AZ
209799000209799               209799               170213J1     1400+00000+J10000006173+0000006173+000000000+000000865+0000007038+0000000000+I40000007038+0000000000+Z
209799001209799368-000001     209799006003000097982Plush Bear 25cm        0000001000+00004385+00000+0001T   00004385+0000001019          1400 HE3745               2AZ
209799002209799080-000113     209799006003000237449CARD&ENVLPE - LOVE     0000001000+00001753+00000+0001T   00001753+0000001019          1400 HE3112               2AZ
209799003209799112-116038     209799006009681820246TCS CARRIER BAG MIDI   0000001000+00000035+00000+0001T   00000035+0000001019          1400 HE3090               2AZ
209800000209800               209800               170213J1     1400+00000+J10000002192+0000002192+000000000+000000307+0000002490+0000000009+I20000000000+0000002490+Z
209800001209800077-000509     209800006003000082582GIFT-BAG SML 6PCE ORG P0000001000+00002192+00000+0001T   00002192+0000001026          1400 HE3112               2AZ
209801000209801               209801               170213J1     1400+00000+J10000001928+0000001928+000000000+000000270+0000002190+0000000008+I20000000000+0000002190+Z
209801001209801105-001025-A   209801006009654960979CONTAINERS CLEAR 4PCE  0000001000+00001928+00000+0001T   00001928+0000001037          1400 HE3210               2AZ
209802000209802               209802               170213J1     1400+00000+J10000002630+0000002630+000000000+000000369+0000002999+0000000000+I40000002999+0000000000+Z
209802001209802019-071601     209802006001023771995RIVER-STONES 1kg WHITE 0000001000+00002630+00000+0001T   00002630+0000001054          1400 HE3510               2AZ
209803000209803               209803               170213J1     1400+00000+J10000015817+0000015817+000000000+000002215+0000018032+0000000000+I40000018032+0000000000+Z
209803001209803077-000310     209803006001023608635GIFT-BAG 18X23CM GLOSS 0000002000+00001314+00000+0001T   00001314+0000001055          1400 HE3112               2AZ
209803002209803368-000049     209803006003000536955PLUSH BEAR 15cm LOVE   0000002000+00004385+00000+0001T   00004385+0000001055          1400 HE3745               2AZ
209803003209803566-000068     209803006003000418046POP UP LOVE 2 ASSTD    0000002000+00002192+00000+0001T   00002192+0000001055          1400 HE3130               2AZ
209803004209803112-116038     209803006009681820246TCS CARRIER BAG MIDI   0000001000+00000035+00000+0001T   00000035+0000001055          1400 HE3090               2AZ
209804000209804               209804               170213J1     1400+00000+J10000001753+0000001753+000000000+000000246+0000001990+0000000009+I20000000000+0000001990+Z
209804001209804080-000113     209804006003000237449CARD&ENVLPE - LOVE     0000001000+00001753+00000+0001T   00001753+0000001055          1400 HE3112               2AZ
209805000209805               209805               170213J1     1400+00000+J10000002804+0000002804+000000000+000000394+0000003190+0000000008+I20000000000+0000003190+Z
209805001209805108-002020     209805006009654960245WINE GLS STYRENE 220ml 0000002000+00001402+00000+0001T   00001402+0000001109          1400 HE3210               2AZ
209806000209806               209806               170213J1     1400+00000+J10000004381+0000004381+000000000+000000614+0000004990+0000000005+I20000000000+0000004990+Z
209806001209806200-003024     209806006001023657299REFUSE BAGS 20PCE BLACK0000001000+00001753+00000+0001T   00001753+0000001110          1400 HE3214               2AZ
209806002209806150-001234-1   209806005019190010015PLATE-HANGER P/C SIZE-10000002000+00001314+00000+0001T   00001314+0000001110          1400 HE3810               2AZ
209807000209807               209807               170213J1     1400+00000+J10000008638+0000008638+000000000+000001211+0000009840+0000000009+I20000000000+0000009840+Z
209807001209807903-004950     209807006002580020304SWT APRICOT SURPRISE   0000001000+00001314+00000+0001T   00001314+0000001155          1400 HE3150               2AZ
209807002209807046-000014     209807006001023725387BATTERIES SIZE:AAA 4PCE0000001000+00001139+00000+0001T   00001139+0000001155          1400 HE3312               2AZ
209807003209807072-020266     209807006003000400591PET PUPPY TRAINING PAD 0000001000+00003507+00000+0001T   00003507+0000001155          1400 HE3870               2AZ
209807004209807072-020276     209807006001023858474CAT LITTER-PAN PL      0000001000+00002630+00000+0001T   00002630+0000001155          1400 HE3870               2AZ
209807005209807112-116069     209807006009681820277TCS CARRIER BAG JUMBO  0000001000+00000048+00000+0001T   00000048+0000001155          1400 HE3090               2AZ
209808000209808               209808               170213J1     1400+00000+J10000003807+0000003807+000000000+000000536+0000004340+0000000003+I20000000000+0000004340+Z
209808001209808903-000844     209808005010478432567SWT CANDY DL LUV HEARTS0000002000+00001314+00000+0001T   00001314+0000001157          1400 HE3150               2AZ
209808002209808903-000183     209808006003000451043SWT LB HEART LOLLY     0000003000+00000393+00000+0001T   00000393+0000001157          1400 HE3150               2AZ
209809000209809               209809               170213J1     1400+00000+J10000004385+0000004385+000000000+000000614+0000004990+0000000009+I20000000000+0000004990+Z
209809001209809082-007587     209809006003000654338SUNGLASS DESIGNER ASST 0000001000+00004385+00000+0001T   00004385+0000001256          1400 HE3160               2AZ
209810000209810               209810               170213J1     1400+00000+J10000003329+0000003329+000000000+000000467+0000003790+0000000006+I20000000000+0000003790+Z
209810001209810903-000155     209810006009803374435SWT LOLLY I LUV U HEART0000001000+00000525+00000+0001T   00000525+0000001258          1400 HE3150               2AZ
209810002209810077-000299     209810006003000395576G/BAG 32x25cm LRG LOVE 0000001000+00001490+00000+0001T   00001490+0000001258          1400 HE3112               2AZ
209810003209810903-000194     209810006009826020616SWT CHOC RP LOLLY 25G  0000001000+00001314+00000+0001T   00001314+0000001258          1400 HE3150               2AZ
209811000209811               209811               170213J1     1400+00000+J10000002192+0000002192+000000000+000000307+0000002490+0000000009+I20000000000+0000002490+Z
209811001209811565-000887     209811006003000412334NOVELTY SILICONE TOY   0000001000+00002192+00000+0001T   00002192+0000001302          1400 HE3745               2AZ
209812000209812               209812               170213J1     1400+00000+J10000009470+0000009470+000000000+000001327+0000010797+0000000000+I40000010797+0000000000+Z
209812001209812018-019000     209812006003000557288MUG OCC. LOVE JUMBO    0000001000+00005262+00000+0001T   00005262+0000001304          1400 HE3515               2AZ
209812002209812903-000090     209812006009826020821SWT GS CHOCO COINS 60g 0000002000+00002104+00000+0001T   00002104+0000001304          1400 HE3150               2AZ
209813000209813               209813               170213J1     1400+00000+J10000003942+0000003942+000000000+000000552+0000004490+0000000004+I20000000000+0000004490+Z
209813001209813903-000194     209813006009826020616SWT CHOC RP LOLLY 25G  0000003000+00001314+00000+0001T   00001314+0000001304          1400 HE3150               2AZ
209814000209814               209814               170213J1     1400+00000+J10000009694+0000009694+000000000+000001358+0000011052+0000000000+I40000011052+0000000000+Z
209814001209814200-000200     209814006008766091144BAKING ALUM FOIL 2PCE  0000002000+00002192+00000+0001T   00002192+0000001306          1400 HE3214               2AZ
209814002209814027-008812     209814006003000465460DUSTER MICROFIBRE 58cm 0000001000+00005262+00000+0001T   00005262+0000001306          1400 HE3212               2AZ
209814003209814112-116069     209814006009681820277TCS CARRIER BAG JUMBO  0000001000+00000048+00000+0001T   00000048+0000001306          1400 HE3090               2AZ
209815000209815               209815               170213J1     1400+00000+J10000007933+0000007933+000000000+000001113+0000009046+0000000000+I40000009046+0000000000+Z
209815001209815080-000127     209815006003000424351VALENTINES DAY 36x24CM 0000001000+00002192+00000+0001T   00002192+0000001307          1400 HE3112               2AZ
209815002209815030-000007     209815006001023527325PLAQUE WDN B/BOARD ASST0000001000+00002630+00000+0001T   00002630+0000001307          1400 HE3505               2AZ
209815003209815077-000270     209815006003000395453GIFT-BAG PPR JMB 33X45 0000001000+00002630+00000+0001T   00002630+0000001307          1400 HE3112               2AZ
209815004209815071-000012     209815006001177101006CHALK COLOUR 12PCE     0000001000+00000481+00000+0001T   00000481+0000001307          1400 HE3130               2AZ
209816000209816               209816               170213J1     1400+00000+J10000004377+0000004377+000000000+000000617+0000004990+0000000004+I20000000000+0000004990+Z
209816001209816080-000133-A   209816006003000647019MINI VALENTINES CARD   0000003000+00000437+00000+0001T   00000437+0000001308          1400 HE3112               2AZ
209816002209816080-000133     209816006003000535613CARD&ENV MINI ASTD DSGN0000002000+00000437+00000+0001T   00000437+0000001308          1400 HE3112               2AZ
209816003209816566-000359     209816006003000582709STICKER BOOK LOVE SPARK0000001000+00002192+00000+0001T   00002192+0000001308          1400 HE3130               2AZ
209817000209817               209817               170213J1     1400+00000+J10000002191+0000002191+000000000+000000307+0000002498+0000000000+I40000002498+0000000000+Z
209817001209817080-000124     209817006003000297733CARD & ENV VALENTINES  0000001000+00001578+00000+0001T   00001578+0000001309          1400 HE3112               2AZ
209817002209817304-001011     209817006001023806727FLWR ROSE RED W/BEAR   0000001000+00000613+00000+0001T   00000788+0006471309          1400 HE3510               2AZ
209818000209818               209818               170213J1     1400+00000+J10000001753+0000001753+000000000+000000246+0000001990+0000000009+I20000000000+0000001990+Z
209818001209818362-003009     209818006003000295647HAIR BAND SET ASSORTED 0000001000+00001753+00000+0001T   00001753+0000001311          1400 HE3160               2AZ
209819000209819               209819               170213J1     1400+00000+J10000004385+0000004385+000000000+000000614+0000004999+0000000000+I40000004999+0000000000+Z
209819001209819082-000110     209819006003000360482READING GLS STRENGHT:2 0000001000+00004385+00000+0001T   00004385+0000001321          1400 HE3160               2AZ
209820000209820               209820               170213J1     1400+00000+J10000013638+0000013638+000000000+000001911+0000015549+0000000000+I40000015549+0000000000+Z
209820001209820031-000848     209820006001023851901P/FRAME COLLAGE 2ASSTD 0000001000+00004385+00000+0001T   00004385+0000001323          1400 HE3510               2AZ
209820002209820368-000049     209820006003000536955PLUSH BEAR 15cm LOVE   0000001000+00004385+00000+0001T   00004385+0000001323          1400 HE3745               2AZ
209820003209820030-000010     209820006003000084395P/DOOR HANGER 2-ASSTD  0000001000+00001314+00000+0001T   00001490+0008181323          1400 HE3505               2AZ
209820004209820104-000031     209820006003000614950BASKET PL 27x18x12cm   0000001000+00002630+00000+0001T   00002630+0000001323          1400 HE3210               2AZ
209820005209820112-116069     209820006009681820277TCS CARRIER BAG JUMBO  0000001000+00000048+00000+0001T   00000048+0000001323          1400 HE3090               2AZ
209820006209820077-000151     209820006008766114676GIFT-WRAP C/PHANE ASSTD0000001000+00000876+00000+0001T   00000876+0000001323          1400 HE3112               2AZ
209821000209821               209821               170213J1     1400+00000+J10000002366+0000002366+000000000+000000332+0000002698+0000000000+I40000002698+0000000000+Z
209821001209821077-000302     209821008010410010195GIFT-BAG 18X23CM E/D   0000001000+00000876+00000+0001T   00000876+0000001325          1400 HE3112               2AZ
209821002209821077-000327     209821006001023677686GIFT-BAG 25X32CM E/D BA0000001000+00001490+00000+0001T   00001490+0000001325          1400 HE3112               2AZ
209822000209822               209822               170213J1     1400+00000+J10000001314+0000001314+000000000+000000184+0000001490+0000000008+I20000000000+0000001490+Z
209822001209822903-005001     209822006002580020014SWT CT MALLOW MICE 120g0000001000+00001314+00000+0001T   00001314+0000001326          1400 HE3150               2AZ
209823000209823               209823               170213J1     1400+00000+J10000011450+0000011450+000000000+000001604+0000013050+0000000004+I20000000000+0000013050+Z
209823001209823040-000103     209823000694202201862C/HOLDER-SET 5PC W/TRAY0000001000+00011402+00000+0001T   00013157+0008191327          1400 HE3510               2AZ
209823002209823112-116069     209823006009681820277TCS CARRIER BAG JUMBO  0000001000+00000048+00000+0001T   00000048+0000001327          1400 HE3090               2AZ
209824000209824               209824               170213J1     1400+00000+J10000017542+0000017542+000000000+000002456+0000019990+0000000008+I20000000000+0000019990+Z
209824001209824072-020244     209824000694202207840PET BED COTTON 90x70cm 0000001000+00017542+00000+0001T   00017542+0000001329          1400 HE3870               2AZ
209825000209825               209825               170213J1     1400+00000+J10000001314+0000001314+000000000+000000184+0000001490+0000000008+I20000000000+0000001490+Z
209825001209825046-000012     209825006904708013062BATTERIES AA  CARD-OF-40000001000+00001314+00000+0001T   00001314+0000001330          1400 HE3312               2AZ
209826000209826               209826               170213J1     1400+00000+J10000003504+0000003504+000000000+000000492+0000003990+0000000006+I20000000000+0000003990+Z
209826001209826077-000150-D   209826006003000054343GIFT-WRAP CELLPHANE CLR0000002000+00000876+00000+0001T   00000876+0000001340          1400 HE3112               2AZ
209826002209826077-000151     209826006008766114676GIFT-WRAP C/PHANE ASSTD0000001000+00000876+00000+0001T   00000876+0000001340          1400 HE3112               2AZ
209826003209826077-000011-F   209826006001023808431TISSUE-WRAP BLUE/LILAC 0000001000+00000876+00000+0001T   00000876+0000001340          1400 HE3112               2AZ
209827000209827               209827               170213J1     1400+00000+J10000001753+0000001753+000000000+000000246+0000001999+0000000000+I40000001999+0000000000+Z
209827001209827077-000308     209827006001023595812GIFT-BAG 33X45CM E/DAY 0000001000+00001753+00000+0001T   00001753+0000001400          1400 HE3112               2AZ
209828000209828               209828               170213J1     1400+00000+J10000005697+0000005697+000000000+000000799+0000006490+0000000006+I20000000000+0000006490+Z
209828001209828079-000206     209828006003000639700PENCIL CRAYONS THERAPY 0000001000+00001753+00000+0001T   00001753+0000001401          1400 HE3130               2AZ
209828002209828080-000133-A   209828006003000647019MINI VALENTINES CARD   0000001000+00000437+00000+0001T   00000437+0000001401          1400 HE3112               2AZ
209828003209828567-011343     209828006003000630592BK COLOURING THERAPY   0000001000+00003507+00000+0001T   00003507+0000001401          1400 HE3757               2AZ
209829000209829               209829               170213J1     1400+00000+J10000002454+0000002454+000000000+000000344+0000002798+0000000000+I40000002798+0000000000+Z
209829001209829077-000314     209829006003000181148GIFT-BAG 11X14CM MATT  0000001000+00000876+00000+0001T   00000876+0000001402          1400 HE3112               2AZ
209829002209829077-000315     209829006003000181186GIFT-BAG 20x28cm MATT  0000001000+00001578+00000+0001T   00001578+0000001402          1400 HE3112               2AZ
209830000209830               209830               170213J1     1400+00000+J10000008771+0000008771+000000000+000001228+0000009999+0000000000+I40000009999+0000000000+Z
209830001209830027-000230     209830006001023606198MOP COMPLETE WONDERMOP 0000001000+00008771+00000+0001T   00008771+0000001415          1400 HE3212               2AZ
209831000209831               209831               170213J1     1400+00000+J10000002629+0000002629+000000000+000000369+0000002990+0000000008+I20000000000+0000002990+Z
209831001209831077-000351     209831006003000139033GIFT-BAG 18X23CM E/D P 0000001000+00001753+00000+0001T   00001753+0000001443          1400 1IC112               2AZ
209831002209831077-000302     209831008010410010195GIFT-BAG 18X23CM E/D   0000001000+00000876+00000+0001T   00000876+0000001443          1400 1IC112               2AZ
209832000209832               209832               170213J1     1400+00000+J10000018845+0000018845+000000000+000002644+0000021489+0000000000+I40000021489+0000000000+Z
209832001209832565-000990     209832006001023673510NOVELTY STICKY SLAPPER 0000003000+00001490+00000+0001T   00001490+0000001447          1400 1IC745               2AZ
209832002209832077-000005-D   209832006003000414567PAPER TISSUE 50x70cm   0000001000+00001753+00000+0001T   00001753+0000001447          1400 1IC112               2AZ
209832003209832565-000602     209832006003000643790NOVELTY NINJA'S 3PACK  0000001000+00002630+00000+0001T   00002630+0000001447          1400 1IC745               2AZ
209832004209832565-000084     209832006003000643431NOVELTY CATAPULT B/FLY 0000003000+00001753+00000+0001T   00001753+0000001447          1400 1IC745               2AZ
209832005209832071-005214     209832006003000152544CELLOTAPE SUPER REFILL 0000002000+00001490+00000+0001T   00001490+0000001447          1400 1IC130               2AZ
209832006209832565-000084     209832006003000643431NOVELTY CATAPULT B/FLY 0000001000+00001753+00000+0001T   00001753+0000001447          1400 1IC745               2AZ
209833000209833               209833               170213J1     1400+00000+J10000004420+0000004420+000000000+000000619+0000005039+0000000000+I40000005039+0000000000+Z
209833001209833368-000001     209833006003000097982Plush Bear 25cm        0000001000+00004385+00000+0001T   00004385+0000001449          1400 1IC745               2AZ
209833002209833112-116038     209833006009681820246TCS CARRIER BAG MIDI   0000001000+00000035+00000+0001T   00000035+0000001449          1400 1IC090               2AZ
209834000209834               209834               170213J1     1400+00000+J10000001578+0000001578+000000000+000000221+0000001790+0000000009+I20000000000+0000001790+Z
209834001209834077-000315     209834006003000181186GIFT-BAG 20x28cm MATT  0000001000+00001578+00000+0001T   00001578+0000001456          1400 1IC112               2AZ
209835000209835               209835               170213J1     1400+00000+J10000001753+0000001753+000000000+000000246+0000001990+0000000009+I20000000000+0000001990+Z
209835001209835084-006995     209835006003000092802NAIL CLIPPER 8cm TOE   0000001000+00001753+00000+0001T   00001753+0000001458          1400 1IC200               2AZ
209836000209836               209836               170213J1     1400+00000+J10000005722+0000005722+000000000+000000805+0000006520+0000000007+I20000000000+0000006520+Z
209836001209836071-003866     209836006003000590018PENCIL NOVELTY RULER   0000001000+00001314+00000+0001T   00001314+0000001500          1400 1IC130               2AZ
209836002209836007-000405     209836006009635830369EXERCISE-BOOK A5 72PAGE0000001000+00000262+00000+0001T   00000262+0000001500          1400 1IC130               2AZ
209836003209836903-000614     209836006003000617333SWT PLIERS TWISTER 17cm0000001000+00001753+00000+0001T   00001753+0000001500          1400 1IC150               2AZ
209836004209836007-000405     209836006009635830369EXERCISE-BOOK A5 72PAGE0000009000+00000262+00000+0001T   00000262+0000001500          1400 1IC130               2AZ
209836005209836112-116038     209836006009681820246TCS CARRIER BAG MIDI   0000001000+00000035+00000+0001T   00000035+0000001500          1400 1IC090               2AZ
209837000209837               209837               170213J1     1400+00000+J10000011519+0000011519+000000000+000001614+0000013133+0000000000+I40000013133+0000000000+Z
209837001209837466-000073     209837006003000669127BALL SOCCER MESH 15.2cm0000001000+00003507+00000+0001T   00003507+0000001504          1400 1IC785               2AZ
209837002209837903-000090     209837006009826020821SWT GS CHOCO COINS 60g 0000001000+00002104+00000+0001T   00002104+0000001504          1400 1IC150               2AZ
209837003209837264-000921     209837000090159150442MAISTO CAR 3" FRESH    0000001000+00001753+00000+0001T   00001753+0000001504          1400 1IC710               2AZ
209837004209837071-005060     209837006003000152186CELLOTAPE 2PACK INVSBLE0000001000+00003507+00000+0001T   00003507+0000001504          1400 1IC130               2AZ
209837005209837112-116038     209837006009681820246TCS CARRIER BAG MIDI   0000001000+00000035+00000+0001T   00000035+0000001504          1400 1IC090               2AZ
209837006209837083-000055     209837006003000003853LIGHTER ELCTRNC REFILBL0000001000+00000613+00000+0001T   00000613+0000001504          1400 1IC315               2AZ
209838000209838               209838               170213J1     1400+00000+J10000001402+0000001402+000000000+000000197+0000001599+0000000000+I40000001599+0000000000+Z
209838001209838027-009030     209838006002814400100DUSTPAN PL             0000001000+00001402+00000+0001T   00001402+0000001509          1400 1IC212               2AZ
209839000209839               209839               170213J1     1400+00000+J10000006139+0000006139+000000000+000000860+0000006990+0000000009+I20000000000+0000006990+Z
209839001209839264-000922     209839000090159250012MAISTO CAR PULL-BACK   0000001000+00006139+00000+0001T   00007016+0008191601          1400 1IC710               2AZ
209840000209840               209840               170213J1     1400+00000+J10000001402+0000001402+000000000+000000197+0000001590+0000000009+I20000000000+0000001590+Z
209840001209840304-001204     209840006001023737984FLOWER OCC. TEDDY/ROSES0000001000+00001402+00000+0001T   00001490+0006471618          1400 1IC510               2AZ
209841000209841               209841               170213J1     1400+00000+J10000005262+0000005262+000000000+000000737+0000005999+0000000000+I40000005999+0000000000+Z
209841001209841004-078988     209841006003000072521EARPHONES L-WEIGHT 1.1m0000001000+00005262+00000+0001T   00005262+0000001620          1400 1IC310               2AZ
209842000209842               209842               170213J1     1400+00000+J10000004385+0000004385+000000000+000000614+0000004990+0000000009+I20000000000+0000004990+Z
209842001209842105-008005     209842006002580009484STORAGE CONTAINER 7.5L 0000001000+00004385+00000+0001T   00004385+0000001620          1400 1IC210               2AZ
209843000209843               209843               170213J1     1400+00000+J10000011402-0000011402-000000000+000001597-0000013000-0000000001+I20000000000+0000013000-Z
209843001209843368-000637     209843006001023874092PLUSH BEAR SLEEPING LOV0000001000-00011402+00000+0001T   00012279+0006471622          1400 1IC7451IC            2 Z
209844000209844               209844               170213J1     1400+00000+J10000001400+0000001400+000000000+000000196+0000001590+0000000006+I20000000000+0000001590+Z
209844001209844018-000177     209844006001023797513MUG MINI LOVE ASSTD    0000002000+00000700+00000+0001T   00000700+0000001626          1400 1IC515               2AZ
209845000209845               209845               170213J1     1400+00000+J10000006172+0000006172+000000000+000000865+0000007030+0000000007+I20000000000+0000007030+Z
209845001209845304-001167     209845006001023846099FLOWER LOTUS FLOATING  0000002000+00002192+00000+0001T   00002192+0000001632          1400 1IC510               2AZ
209845002209845077-000239     209845006003000160419GIFT-RIBBON ROLL PEARL 0000001000+00001753+00000+0001T   00001753+0000001632          1400 1IC112               2AZ
209845003209845112-116038     209845006009681820246TCS CARRIER BAG MIDI   0000001000+00000035+00000+0001T   00000035+0000001632          1400 1IC090               2AZ
209846000209846               209846               170213J1     1400+00000+J10000001751+0000001751+000000000+000000246+0000001990+0000000007+I20000000000+0000001990+Z
209846001209846903-004950     209846006002580020304SWT APRICOT SURPRISE   0000001000+00001314+00000+0001T   00001314+0000001633          1400 1IC150               2AZ
209846002209846080-000133     209846006003000535613CARD&ENV MINI ASTD DSGN0000001000+00000437+00000+0001T   00000437+0000001633          1400 1IC112               2AZ
209847000209847               209847               170213J1     1400+00000+J10000001926+0000001926+000000000+000000271+0000002190+0000000007+I20000000000+0000002190+Z
209847001209847028-000797     209847006001023812124SKEWERS 15cm 100PCE    0000001000+00000876+00000+0001T   00000876+0000001638          1400 1IC305               2AZ
209847003209847903-000155     209847006009803374435SWT LOLLY I LUV U HEART0000002000+00000525+00000+0001T   00000525+0000001638          1400 1IC150               2AZ
209848000209848               209848               170213J1     1400+00000+J10000011485+0000011485+000000000+000001609+0000013094+0000000000+I40000013094+0000000000+Z
209848001209848080-000124     209848006003000297733CARD & ENV VALENTINES  0000002000+00001578+00000+0001T   00001578+0000001640          1400 1IC112               2AZ
209848002209848566-000068     209848006003000418046POP UP LOVE 2 ASSTD    0000002000+00002192+00000+0001T   00002192+0000001640          1400 1IC130               2AZ
209848003209848566-000359     209848006003000582709STICKER BOOK LOVE SPARK0000001000+00002192+00000+0001T   00002192+0000001640          1400 1IC130               2AZ
209848004209848566-001228     209848006003000284153STICKERS CRYSTAL ASSTD 0000001000+00001753+00000+0001T   00001753+0000001640          1400 1IC130               2AZ
209849000209849               209849               170213J1     1400+00000+J10000004385+0000004385+000000000+000000614+0000004990+0000000009+I20000000000+0000004990+Z
209849001209849368-000049     209849006003000536955PLUSH BEAR 15cm LOVE   0000001000+00004385+00000+0001T   00004385+0000001644          1400 1IC745               2AZ
209850000209850               209850               170213J1     1400+00000+J10000001226+0000001226+000000000+000000172+0000001398+0000000000+I40000001398+0000000000+Z
209850001209850304-001011     209850006001023806727FLWR ROSE RED W/BEAR   0000002000+00000613+00000+0001T   00000788+0006471650          1400 1IC510               2AZ
209851000209851               209851               170213J1     1400+00000+J10000003331+0000003331+000000000+000000467+0000003798+0000000000+I40000003798+0000000000+Z
209851001209851080-000110     209851006003000237326CARD&ENVLPE BDAY-FUNNY 0000001000+00001753+00000+0001T   00001753+0000001652          1400 1IC112               2AZ
209851002209851077-000323     209851006001023677563G/BAG 25X32CM E/DAY FLO0000001000+00001578+00000+0001T   00001578+0000001652          1400 1IC112               2AZ
209852000209852               209852               170213J1     1400+00000+J10000011344+0000011344+000000000+000001590+0000012934+0000000000+I40000012934+0000000000+Z
209852001209852077-000150-D   209852006003000054343GIFT-WRAP CELLPHANE CLR0000002000+00000876+00000+0001T   00000876+0000001655          1400 1IC112               2AZ
209852002209852301-085001     209852006003000297610ORN WATERBALL LOVE ASST0000001000+00004823+00000+0001T   00004823+0000001655          1400 1IC505               2AZ
209852003209852089-000200     209852006003000485840KEY CHAIN POLY LOVE IS 0000001000+00003507+00000+0001T   00004385+0008121655          1400 1IC205               2AZ
209852004209852077-000245     209852006001023759214GIFT-RIBBON METALLICx2 0000001000+00001227+00000+0001T   00001227+0000001655          1400 1IC112               2AZ
209852005209852112-116038     209852006009681820246TCS CARRIER BAG MIDI   0000001000+00000035+00000+0001T   00000035+0000001655          1400 1IC090               2AZ
209853000209853               209853               170213J1     1400+00000+J10000004823+0000004823+000000000+000000676+0000005490+0000000009+I20000000000+0000005490+Z
209853001209853301-085001     209853006003000297610ORN WATERBALL LOVE ASST0000001000+00004823+00000+0001T   00004823+0000001656          1400 1IC505               2AZ
209854000209854               209854               170213J1     1400+00000+J10000004734+0000004734+000000000+000000664+0000005398+0000000000+I40000005398+0000000000+Z
209854001209854464-000110     209854006001023868824PLAYING-CARDS JUMBO    0000001000+00002630+00000+0001T   00002630+0000001657          1400 1IC785               2AZ
209854002209854903-000095     209854006001704011495SWT SPECKLED-EGGS 100G 0000001000+00002104+00000+0001T   00002104+0000001657          1400 1IC150               2AZ
209855000209855               209855               170213J1     1400+00000+J10000002630+0000002630+000000000+000000369+0000002990+0000000009+I20000000000+0000002990+Z
209855001209855200-000003     209855006003000532360DISPOSABLE BAG 100PC   0000001000+00002630+00000+0001T   00002630+0000001702          1400 1IC214               2AZ
209856000209856               209856               170213J1     1400+00000+J10000002630+0000002630+000000000+000000369+0000002990+0000000009+I20000000000+0000002990+Z
209856001209856007-000602     209856006003000541270BOOK COVER 2M SOLID COL0000001000+00002630+00000+0001T   00002630+0000001704          1400 1IC130               2AZ
209857000209857               209857               170213J1     1400+00000+J10000007890+0000007890+000000000+000001107+0000008990+0000000007+I20000000000+0000008990+Z
209857001209857463-000140     209857006003000551804WATER BLASTER MEDIUM   0000003000+00002630+00000+0001T   00002630+0000001709          1400 1IC785               2AZ
209858000209858               209858               170213J1     1400+00000+J10000004385+0000004385+000000000+000000614+0000004999+0000000000+I40000004999+0000000000+Z
209858001209858368-000049     209858006003000536955PLUSH BEAR 15cm LOVE   0000001000+00004385+00000+0001T   00004385+0000001711          1400 1IC745               2AZ
209859000209859               209859               170213J1     1400+00000+J10000004385+0000004385+000000000+000000614+0000004990+0000000009+I20000000000+0000004990+Z
209859001209859368-000001     209859006003000097982Plush Bear 25cm        0000001000+00004385+00000+0001T   00004385+0000001712          1400 1IC745               2AZ
209860000209860               209860               170213J1     1400+00000+J10000022395+0000022395+000000000+000003139+0000025534+0000000000+I40000025534+0000000000+Z
209860001209860304-001011     209860006001023806727FLWR ROSE RED W/BEAR   0000003000+00000613+00000+0001T   00000788+0006471720          1400 1IC510               2AZ
209860002209860018-000127     209860006001023380289MUG OCC STRAIGHT LOVE  0000001000+00001578+00000+0001T   00001753+0006471720          1400 1IC515               2AZ
209860003209860368-000104     209860006001023751348PLUSH BEAR RUFFLED-LOOK0000001000+00006139+00000+0001T   00006139+0000001720          1400 1IC745               2AZ
209860004209860304-001011     209860006001023806727FLWR ROSE RED W/BEAR   0000001000+00000613+00000+0001T   00000788+0006471720          1400 1IC510               2AZ
209860005209860077-000302     209860008010410010195GIFT-BAG 18X23CM E/D   0000001000+00000876+00000+0001T   00000876+0000001720          1400 1IC112               2AZ
209860006209860368-000100     209860006001023474742PLUSH MD BEAR 12cm     0000001000+00002630+00000+0001T   00002630+0000001720          1400 1IC745               2AZ
209860007209860089-000150     209860006003000674268K/CHAIN PLUSH EMOTICON 0000001000+00001139+00000+0001T   00001139+0000001720          1400 1IC205               2AZ
209860008209860565-000085     209860006003000643332NOVELTY BEEDZ 10g      0000001000+00002455+00000+0001T   00002455+0000001720          1400 1IC745               2AZ
209860009209860565-000256     209860006003000609826NOVELTY GLOW SLIME     0000001000+00000700+00000+0001T   00000700+0000001720          1400 1IC745               2AZ
209860010209860018-000177     209860006001023797513MUG MINI LOVE ASSTD    0000004000+00000700+00000+0001T   00000700+0000001720          1400 1IC515               2AZ
209860011209860089-000020     209860006001023562272K/CHAIN MINI SHOE CROC 0000001000+00001578+00000+0001T   00001578+0000001720          1400 1IC205               2AZ
209860012209860112-116069     209860006009681820277TCS CARRIER BAG JUMBO  0000001000+00000048+00000+0001T   00000048+0000001720          1400 1IC090               2AZ
209861000209861               209861               170213J1     1400+00000+J10000004385+0000004385+000000000+000000614+0000004990+0000000009+I20000000000+0000004990+Z
209861001209861368-000001     209861006003000097982Plush Bear 25cm        0000001000+00004385+00000+0001T   00004385+0000001720          1400 1IC745               2AZ
209862000209862               209862               170213J1     1400+00000+J10000018638+0000018638+000000000+000002612+0000021250+0000000000+I40000021250+0000000000+Z
209862001209862016-005020     209862006003000505357STORAGE-BOTTLE GLS BOOT0000001000+00006139+00000+0001T   00006139+0000001729          1400 1IC300               2AZ
209862002209862304-001011     209862006001023806727FLWR ROSE RED W/BEAR   0000001000+00000613+00000+0001T   00000788+0006471729          1400 1IC510               2AZ
209862003209862018-005007     209862006003000515516MUG OCC. LOVE W/HEARTS 0000001000+00006139+00000+0001T   00006139+0000001729          1400 1IC515               2AZ
209862004209862304-001116     209862006003000426164F/BUNCH ROSES 12-HEAD  0000001000+00005262+00000+0001T   00005262+0000001729          1400 1IC510               2AZ
209862005209862112-116069     209862006009681820277TCS CARRIER BAG JUMBO  0000001000+00000048+00000+0001T   00000048+0000001729          1400 1IC090               2AZ
209862006209862080-000133     209862006003000535613CARD&ENV MINI ASTD DSGN0000001000+00000437+00000+0001T   00000437+0000001729          1400 1IC112               2AZ
209863000209863               209863               170213J1     1400+00000+J10000002191+0000002191+000000000+000000307+0000002490+0000000008+I20000000000+0000002490+Z
209863001209863369-001137-B   209863006003000626373BABY BATH VINYL DUCK   0000001000+00001578+00000+0001T   00001578+0000001730          1400 1IC745               2AZ
209863002209863304-001011     209863006001023806727FLWR ROSE RED W/BEAR   0000001000+00000613+00000+0001T   00000788+0006471730          1400 1IC510               2AZ
209864000209864               209864               170213J1     1400+00000+J10000001961+0000001961+000000000+000000275+0000002230+0000000006+I20000000000+0000002230+Z
209864001209864304-001011     209864006001023806727FLWR ROSE RED W/BEAR   0000002000+00000613+00000+0001T   00000788+0006471732          1400 1IC510               2AZ
209864002209864112-116038     209864006009681820246TCS CARRIER BAG MIDI   0000001000+00000035+00000+0001T   00000035+0000001732          1400 1IC090               2AZ
209864003209864018-000177     209864006001023797513MUG MINI LOVE ASSTD    0000001000+00000700+00000+0001T   00000700+0000001732          1400 1IC515               2AZ
209865000209865               209865               170213J1     1400+00000+J10000001576+0000001576+000000000+000000222+0000001790+0000000008+I20000000000+0000001790+Z
209865001209865903-000200     209865006009826020234SWT CHOC RP CHOCO 23G  0000002000+00000788+00000+0001T   00000788+0000001734          1400 1IC150               2AZ
209866000209866               209866               170213J1     1400+00000+J10000004383+0000004383+000000000+000000614+0000004997+0000000000+I40000004997+0000000000+Z
209866001209866018-000127     209866006001023380289MUG OCC STRAIGHT LOVE  0000001000+00001578+00000+0001T   00001753+0006471737          1400 1IC515               2AZ
209866002209866080-000124     209866006003000297733CARD & ENV VALENTINES  0000001000+00001578+00000+0001T   00001578+0000001737          1400 1IC112               2AZ
209866003209866077-000322     209866006001023677532GIFT-BAG 18X23CM E/D FL0000001000+00001227+00000+0001T   00001227+0000001737          1400 1IC112               2AZ
209867000209867               209867               170213J1     1400+00000+J10000011400+0000011400+000000000+000001597+0000012997+0000000000+I40000012997+0000000000+Z
209867001209867301-085003     209867006003000420827ORN OCCASION LOVE KEY  0000001000+00005262+00000+0001T   00005262+0000001741          1400 1IC505               2AZ
209867002209867368-000049     209867006003000536955PLUSH BEAR 15cm LOVE   0000001000+00004385+00000+0001T   00004385+0000001741          1400 1IC745               2AZ
209867003209867369-001138     209867006003000555185VINYL 8.5cm THEMED DUCK0000001000+00001753+00000+0001T   00002630+0008141741          1400 1IC745               2AZ
209868000209868               209868               170213J1     1400+00000+J10000003507+0000003507+000000000+000000491+0000003990+0000000008+I20000000000+0000003990+Z
209868001209868018-005009     209868006001023725608MUG W/PLUSH-BEAR LOVE  0000001000+00003507+00000+0001T   00003507+0000001744          1400 1IC515               2AZ
209869000209869               209869               170213J1     1400+00000+J10000001578+0000001578+000000000+000000221+0000001790+0000000009+I20000000000+0000001790+Z
209869001209869018-000127     209869006001023380289MUG OCC STRAIGHT LOVE  0000001000+00001578+00000+0001T   00001753+0006471752          1400 1IC515               2AZ
A17021300                                          12113513J1SLAVE 2                       HE31IC
C20984700                                          170213J1007-000322     16375305SLAVE 2     1IC1IC0000000000+0000000000+0020000001000+
M17021391                              CASH        J1SLAVE 2                       Z-REPORT No.   642TOTAL (Sales - Refunds)           4614.02       CASH TO BE BANKED                 2192.80       DEBIT CARDS                          0.00       CREDIT CARDS                      2161.53       Z-READING                         4614.02       AIRTIME DEBIT CARD SALES             0.00       AIRTIME CARD SALES                   0.00       OVERS/UNDERS                       259.69-      AIRTIME CASH SALES                   0.00       GIFT CARDS                           0.00       GIFT CARD CASH SALES                 0.00       T O T A L  CASH PAYOUTS              0.00                                                                                                                                                                                                                                                                                                                                                      Z
M17021392                              CASH        J1ABSENT                                                                                                                                                                                          ANNUAL LEAVE                                                                                                                                                                                    DAY OFF                                                                                                                                                                                         COMMENTS          Z-REPORT NO:639                                 Z-READING AMOUNT R4354.00                       PAT.                                                                                                                                                                                                                                                                         Z
Y17021300                                          J100006700416370+000073
ZJ117021319503 SLAVE 2      SALES DATA                     NEXT INVOICE NO.  209870 0642
X J1 Slave 2 First invoice 209796 170213 Last invoice 209869 170213 Next invoice 209870 Total number of records 000000247 clbackup completed 19:50:32
