156072000156072               156072               170213J2     1400+00000+J20000002630+0000002630+000000000+000000369+0000002999+0000000000+I40000002999+0000000000+Z
156072001156072027-009005     156072006001023713124D/BRUSH W/TOP BRISTLES 0000001000+00002630+00000+0001T   00002630+0000000907          1400 F52212               1AZ
156073000156073               156073               170213J2     1400+00000+J20000001753+0000001753+000000000+000000246+0000001990+0000000009+I20000000000+0000001990+Z
156073001156073071-003011     156073006001023762825PEN STICKBALL X10 ASSTD0000001000+00001753+00000+0001T   00001753+0000000913          1400 F52130               1AZ
156074000156074               156074               170213J2     1400+00000+J20000001753+0000001753+000000000+000000246+0000001990+0000000009+I20000000000+0000001990+Z
156074001156074077-000381     156074006003000247707GIFT-BAG 25X32CM S/COL 0000001000+00001753+00000+0001T   00001753+0000000918          1400 F52112               1AZ
156075000156075               156075               170213J2     1400+00000+J20000004820+0000004820+000000000+000000676+0000005490+0000000006+I20000000000+0000005490+Z
156075001156075046-000012     156075006904708013062BATTERIES AA  CARD-OF-40000001000+00001314+00000+0001T   00001314+0000000922          1400 F52312               1AZ
156075002156075046-000014-A   156075004897006177708BATTERIES SIZE:AAA 8PCE0000001000+00001753+00000+0001T   00001753+0000000922          1400 F52312               1AZ
156075003156075464-000114     156075006003000027057DICE 16MM CARD-OF-6    0000001000+00001753+00000+0001T   00001753+0000000922          1400 F52785               1AZ
156076000156076               156076               170213J2     1400+00000+J20000000035+0000000035+000000000+000000005+0000000040+0000000000+I20000000000+0000000040+Z
156076001156076112-116038     156076006009681820246TCS CARRIER BAG MIDI   0000001000+00000035+00000+0001T   00000035+0000000923          1400 F52090               1AZ
156077000156077               156077               170213J2     1400+00000+J20000005262+0000005262+000000000+000000737+0000005990+0000000009+I20000000000+0000005990+Z
156077001156077006-000098     156077006003000601325PARTY PHOTO BOOTH 20PC 0000001000+00005262+00000+0001T   00005262+0000000923          1400 F52131               1AZ
156078000156078               156078               170213J2     1400+00000+J20000027754+0000027754+000000000+000003890+0000031644+0000000000+I40000031644+0000000000+Z
156078001156078112-116069     156078006009681820277TCS CARRIER BAG JUMBO  0000001000+00000048+00000+0001T   00000048+0000000934          1400 F52090               1AZ
156078002156078494-059252     156078000078257592524TIRE-TUBE 91cm GIANT   0000001000+00005262+00000+0001T   00005262+0000000934          1400 F52787               1AZ
156078003156078495-059703     156078000078257597031LOUNGER AIR-MAT ECONO  0000002000+00003507+00000+0001T   00003507+0000000934          1400 F52787               1AZ
156078004156078133-046633     156078009300601747016TABLECLOTH VINYL ASSTD 0000001000+00006139+00000+0001T   00006139+0000000934          1400 F52212               1AZ
156078005156078007-000588     156078006001023810090NOTES SHOPPING-LIST+RIB0000001000+00002630+00000+0001T   00002630+0000000934          1400 F52130               1AZ
156078006156078071-001015     156078006001023910387MARKERS PERMANENT 3PK  0000001000+00001753+00000+0001T   00001753+0000000934          1400 F52130               1AZ
156078007156078108-005005     156078006003000667451TRAY PL 29x21cm RECT   0000001000+00001753+00000+0001T   00001753+0000000934          1400 F52210               1AZ
156078008156078903-000155     156078006009803374435SWT LOLLY I LUV U HEART0000001000+00000525+00000+0001T   00000525+0000000934          1400 F52150               1AZ
156078009156078200-000022     156078006003000399291BAG SLIDE LOCK 15PC    0000001000+00002630+00000+0001T   00002630+0000000934          1400 F52214               1AZ
156079000156079               156079               170213J2     1400+00000+J20000000876+0000000876+000000000+000000123+0000000990+0000000009+I20000000000+0000000990+Z
156079001156079077-000151     156079006008766114676GIFT-WRAP C/PHANE ASSTD0000001000+00000876+00000+0001T   00000876+0000000938          1400 F52112               1AZ
156080000156080               156080               170213J2     1400+00000+J20000000350+0000000350+000000000+000000049+0000000390+0000000009+I20000000000+0000000390+Z
156080001156080007-000104     156080006009685854865BK COVER BRWN KRFT ROLL0000001000+00000350+00000+0001T   00000350+0000000940          1400 F52130               1AZ
156081000156081               156081               170213J2     1400+00000+J20000014420+0000014420+000000000+000002021+0000016440+0000000001+I20000000000+0000016440+Z
156081001156081080-000127     156081006003000424351VALENTINES DAY 36x24CM 0000001000+00002192+00000+0001T   00002192+0000000941          1400 F52112               1AZ
156081002156081466-000058     156081006003000612574BALL GLOW IN DARK ALIEN0000001000+00002630+00000+0001T   00002630+0000000941          1400 F52785               1AZ
156081003156081565-000049     156081006003000548156NOVELTY SLIME "BOOGERS"0000002000+00001490+00000+0001T   00001490+0000000941          1400 F52745               1AZ
156081004156081002-000651     156081006003000467778TOASTER TONGS MAGNETIC 0000005000+00001314+00000+0001T   00001314+0000000941          1400 F52300               1AZ
156081005156081112-116069     156081006009681820277TCS CARRIER BAG JUMBO  0000001000+00000048+00000+0001T   00000048+0000000941          1400 F52090               1AZ
156082000156082               156082               170213J2     1400+00000+J20000004117+0000004117+000000000+000000577+0000004690+0000000004+I20000000000+0000004690+Z
156082001156082903-000220     156082006001704007368SWT JELLY BEANS 60G    0000001000+00000876+00000+0001T   00000876+0000000944          1400 F52150               1AZ
156082002156082903-000120     156082006002099001665SWEET GS ZILLIONS 50g  0000001000+00000700+00000+0001T   00000700+0000000944          1400 F52150               1AZ
156082003156082903-004951     156082006002580020328SWT MALLOW MINI M/SHAKE0000001000+00001227+00000+0001T   00001227+0000000944          1400 F52150               1AZ
156082004156082903-000844     156082005010478432567SWT CANDY DL LUV HEARTS0000001000+00001314+00000+0001T   00001314+0000000944          1400 F52150               1AZ
156083000156083               156083               170213J2     1400+00000+J20000002628+0000002628+000000000+000000368+0000002990+0000000006+I20000000000+0000002990+Z
156083001156083903-000844     156083005010478432567SWT CANDY DL LUV HEARTS0000002000+00001314+00000+0001T   00001314+0000000945          1400 F52150               1AZ
156084000156084               156084               170213J2     1400+00000+J20000002453+0000002453+000000000+000000344+0000002790+0000000007+I20000000000+0000002790+Z
156084001156084018-000177     156084006001023797513MUG MINI LOVE ASSTD    0000001000+00000700+00000+0001T   00000700+0000000959          1400 F52515               1AZ
156084002156084301-085002     156084006003000420704ORN OCC. LOVE BELL ASST0000001000+00001753+00000+0001T   00002630+0008120959          1400 F52505               1AZ
156085000156085               156085               170213J2     1400+00000+J20000002192+0000002192+000000000+000000307+0000002490+0000000009+I20000000000+0000002490+Z
156085001156085046-000012-A   156085006003000208296BATTERIES H/POWER SZ:AA0000001000+00002192+00000+0001T   00002192+0000001007          1400 F52312               1AZ
156086000156086               156086               170213J2     1400+00000+J20000028571+0000028571+000000000+000004003+0000032570+0000000004+I20000000000+0000032570+Z
156086001156086027-783000     156086006001023874641SCOURERS RAINBOW 5PCE  0000001000+00001753+00000+0001T   00001753+0000001012          1400 F52212               1AZ
156086002156086072-020312     156086006003000605330PET TOY PUP STARTER PCK0000001000+00002630+00000+0001T   00002630+0000001012          1400 F52870               1AZ
156086003156086046-000012-A   156086006003000208296BATTERIES H/POWER SZ:AA0000001000+00002192+00000+0001T   00002192+0000001012          1400 F52312               1AZ
156086004156086072-020243     156086006003000519583PET MAT QUILTED 80x58cm0000001000+00019297+00000+0001T   00019297+0000001012          1400 F52870               1AZ
156086005156086072-020366     156086006003000452927PET PLACE MAT ASSTD COL0000001000+00002630+00000+0001T   00002630+0000001012          1400 F52870               1AZ
156086006156086112-116053     156086006006438002399TCS CARRIER BAG 38L    0000001000+00000069+00000+0001T   00000069+0000001012          1400 F52090               1AZ
156087000156087               156087               170213J2     1400+00000+J20000008765+0000008765+000000000+000001230+0000009990+0000000005+I20000000000+0000009990+Z
156087001156087200-003024     156087006001023657299REFUSE BAGS 20PCE BLACK0000005000+00001753+00000+0001T   00001753+0000001013          1400 F52214               1AZ
156088000156088               156088               170213J2     1400+00000+J20000013534+0000013534+000000000+000001896+0000000000+0000000000+ 00000000000+0000000000+Z
156088001156088001-000175     156088006001023788108B/MUG GLS LOVE 380ML   0000001000+00004385+00000+0001T   00004385+000000              1400 F525152IC            1 Z
156088002156088072-020311     156088006003000494132PET DOG TOY VINYL BALL 0000001000+00003069+00000+0001T   00003069+000000              1400 F528702IC            1 Z
156088003156088903-000155     156088006009803374435SWT LOLLY I LUV U HEART0000001000+00000525+00000+0001T   00000525+000000              1400 F521502IC            1 Z
156088004156088018-000127     156088006001023380289MUG OCC STRAIGHT LOVE  0000001000+00001578+00000+0001T   00001753+000647              1400 F525152IC            1 Z
156088005156088903-000194     156088006009826020616SWT CHOC RP LOLLY 25G  0000003000+00001314+00000+0001T   00001314+000000              1400 F521502IC            1 Z
156088006156088112-116038     156088006009681820246TCS CARRIER BAG MIDI   0000001000+00000035+00000+0001T   00000035+000000              1400 F520902IC            1 Z
156089000156089               156089               170213J2     1400+00000+J20000006174+0000006174+000000000+000000865+0000007030+0000000009+I20000000000+0000007030+Z
156089001156089133-003245     156089006003000419074IRON BRD COVER 122x38cm0000001000+00006139+00000+0001T   00006139+0000001026          1400 F52212               1AZ
156089002156089112-116038     156089006009681820246TCS CARRIER BAG MIDI   0000001000+00000035+00000+0001T   00000035+0000001026          1400 F52090               1AZ
156090000156090               156090               170213J2     1400+00000+J20000002454+0000002454+000000000+000000344+0000002790+0000000008+I20000000000+0000002790+Z
156090001156090251-000040     156090006001023515865SEALTAPE CLEAR 48mmx50m0000002000+00001227+00000+0001T   00001227+0000001027          1400 F52810               1AZ
156091000156091               156091               170213J2     1400+00000+J20000011949+0000011949+000000000+000001677+0000013626+0000000000+I40000013626+0000000000+Z
156091001156091031-005821     156091006001023667786P/FRAME-GLS CLIP 21X30 0000001000+00002630+00000+0001T   00002630+0000001032          1400 F52510               1AZ
156091002156091077-000314     156091006003000181148GIFT-BAG 11X14CM MATT  0000001000+00000876+00000+0001T   00000876+0000001032          1400 F52112               1AZ
156091003156091903-000194     156091006009826020616SWT CHOC RP LOLLY 25G  0000004000+00001314+00000+0001T   00001314+0000001032          1400 F52150               1AZ
156091004156091903-000200     156091006009826020234SWT CHOC RP CHOCO 23G  0000004000+00000788+00000+0001T   00000788+0000001032          1400 F52150               1AZ
156091005156091112-116038     156091006009681820246TCS CARRIER BAG MIDI   0000001000+00000035+00000+0001T   00000035+0000001032          1400 F52090               1AZ
156092000156092               156092               170213J2     1400+00000+J20000013534+0000013534+000000000+000001896+0000015430+0000000000+I20000000000+0000015430+Z
156092001156092112-116038     156092006009681820246TCS CARRIER BAG MIDI   0000001000+00000035+00000+0001T   00000035+0000001033          1400 F52090               1AZ
156092002156092001-000175     156092006001023788108B/MUG GLS LOVE 380ML   0000001000+00004385+00000+0001T   00004385+0000001033          1400 F52515               1AZ
156092003156092072-020311     156092006003000494132PET DOG TOY VINYL BALL 0000001000+00003069+00000+0001T   00003069+0000001033          1400 F52870               1AZ
156092004156092018-000127     156092006001023380289MUG OCC STRAIGHT LOVE  0000001000+00001578+00000+0001T   00001753+0006471033          1400 F52515               1AZ
156092005156092903-000194     156092006009826020616SWT CHOC RP LOLLY 25G  0000003000+00001314+00000+0001T   00001314+0000001033          1400 F52150               1AZ
156092006156092903-000155     156092006009803374435SWT LOLLY I LUV U HEART0000001000+00000525+00000+0001T   00000525+0000001033          1400 F52150               1AZ
156093000156093               156093               170213J2     1400+00000+J20000024611+0000024611+000000000+000003454+0000028065+0000000000+I40000028065+0000000000+Z
156093001156093365-000001     156093006003000395262PLAY SET DOCTORS SET   0000014000+00001753+00000+0001T   00001753+0000001035          1400 F52725               1AZ
156093002156093112-116053     156093006006438002399TCS CARRIER BAG 38L    0000001000+00000069+00000+0001T   00000069+0000001035          1400 F52090               1AZ
156094000156094               156094               170213J2     1400+00000+J20000004822+0000004822+000000000+000000676+0000005490+0000000008+I20000000000+0000005490+Z
156094001156094089-060027     156094006003000245871KEY-CHAIN HEART 6X6cm  0000001000+00003069+00000+0001T   00003069+0000001042          1400 F52205               1AZ
156094002156094077-000309     156094006001023608604GIFT-BAG 25X32CM GLOSS 0000001000+00001753+00000+0001T   00001753+0000001042          1400 F52112               1AZ
156095000156095               156095               170213J2     1400+00000+J20000006138+0000006138+000000000+000000860+0000006998+0000000000+I40000006998+0000000000+Z
156095001156095089-060027     156095006003000245871KEY-CHAIN HEART 6X6cm  0000002000+00003069+00000+0001T   00003069+0000001059          1400 F52205               1AZ
156096000156096               156096               170213J2     1400+00000+J20000003156+0000003156+000000000+000000442+0000003590+0000000008+I20000000000+0000003590+Z
156096001156096903-002901     156096005996071650655QUICK MILK 5 S/BERRY   0000002000+00001578+00000+0001T   00001578+0000001100          1400 F52150               1AZ
156097000156097               156097               170213J2     1400+00000+J20000005782+0000005782+000000000+000000812+0000006590+0000000004+I20000000000+0000006590+Z
156097001156097077-000245     156097006001023759214GIFT-RIBBON METALLICx2 0000001000+00001227+00000+0001T   00001227+0000001102          1400 F52112               1AZ
156097002156097903-000155     156097006009803374435SWT LOLLY I LUV U HEART0000003000+00000525+00000+0001T   00000525+0000001102          1400 F52150               1AZ
156097003156097566-001234     156097006003000217793STICKERS LASER ASSTD   0000001000+00001578+00000+0001T   00001578+0000001102          1400 F52130               1AZ
156097004156097105-001005     156097006001023858214CONTAINERS MINI 6PCE   0000001000+00001402+00000+0001T   00001402+0000001102          1400 F52210               1AZ
156098000156098               156098               170213J2     1400+00000+J20000002192+0000002192+000000000+000000307+0000002490+0000000009+I20000000000+0000002490+Z
156098001156098007-000597     156098006009699511129MARLIN SLF ADHESIVE 2M 0000001000+00002192+00000+0001T   00002192+0000001110          1400 F52130               1AZ
156099000156099               156099               170213J2     1400+00000+J20000002630+0000002630+000000000+000000369+0000002990+0000000009+I20000000000+0000002990+Z
156099001156099071-003009     156099006001024011373PEN CLICK BALL+SFT GRIP0000001000+00002630+00000+0001T   00002630+0000001116          1400 F52130               1AZ
156100000156100               156100               170213J2     1400+00000+J20000010197+0000010197+000000000+000001433+0000011630+0000000000+I20000000000+0000011630+Z
156100001156100065-006041     156100006001023712974TAMBOURINE 15cm P/BAND 0000003000+00001753+00000+0001T   00001753+0000001117          1400 F52745               1AZ
156100002156100301-085002     156100006003000420704ORN OCC. LOVE BELL ASST0000001000+00001753+00000+0001T   00002630+0008121117          1400 F52505               1AZ
156100003156100903-000155     156100006009803374435SWT LOLLY I LUV U HEART0000006000+00000525+00000+0001T   00000525+0000001117          1400 F52150               1AZ
156100004156100112-116038     156100006009681820246TCS CARRIER BAG MIDI   0000001000+00000035+00000+0001T   00000035+0000001117          1400 F52090               1AZ
156101000156101               156101               170213J2     1400+00000+J20000004857+0000004857+000000000+000000681+0000005530+0000000008+I20000000000+0000005530+Z
156101001156101368-000049     156101006003000536955PLUSH BEAR 15cm LOVE   0000001000+00004385+00000+0001T   00004385+0000001121          1400 F52745               1AZ
156101002156101080-000133-A   156101006003000647019MINI VALENTINES CARD   0000001000+00000437+00000+0001T   00000437+0000001121          1400 F52112               1AZ
156101003156101112-116038     156101006009681820246TCS CARRIER BAG MIDI   0000001000+00000035+00000+0001T   00000035+0000001121          1400 F52090               1AZ
156102000156102               156102               170213J2     1400+00000+J20000006752+0000006752+000000000+000000946+0000007690+0000000008+I20000000000+0000007690+Z
156102001156102077-000305     156102006003000395422GIFT-BAG WINE 10X35CM  0000001000+00001490+00000+0001T   00001490+0000001122          1400 F52112               1AZ
156102002156102264-000918     156102000090159150268MAISTO MDC ATV         0000001000+00005262+00000+0001T   00005262+0000001122          1400 F52710               1AZ
156103000156103               156103               170213J2     1400+00000+J20000000700+0000000700+000000000+000000098+0000000790+0000000008+I20000000000+0000000790+Z
156103001156103018-000177     156103006001023797513MUG MINI LOVE ASSTD    0000001000+00000700+00000+0001T   00000700+0000001124          1400 F52515               1AZ
156104000156104               156104               170213J2     1400+00000+J20000006138+0000006138+000000000+000000860+0000006990+0000000008+I20000000000+0000006990+Z
156104001156104004-071270     156104006001023802156CD-DISCS WRITABLE 10PCE0000001000+00004385+00000+0001T   00004385+0000001127          1400 F52310               1AZ
156104002156104004-071309     156104006001023730862HOLDER DISC SINGLE PK-60000001000+00001753+00000+0001T   00001753+0000001127          1400 F52310               1AZ
156105000156105               156105               170213J2     1400+00000+J20000007661+0000007661+000000000+000001075+0000008736+0000000000+I40000008736+0000000000+Z
156105001156105027-000409     156105006001023731012SCRUBBING-BRUSH 15,5cm 0000001000+00001753+00000+0001T   00001753+0000001134          1400 F52212               1AZ
156105002156105071-005214     156105006003000152544CELLOTAPE SUPER REFILL 0000001000+00001490+00000+0001T   00001490+0000001134          1400 F52130               1AZ
156105003156105007-000723     156105006003000226078MEMO BOOK W/PEN 100SHTS0000001000+00001753+00000+0001T   00001753+0000001134          1400 F52130               1AZ
156105004156105563-000317-G   156105006001023776341SERVIETTES BRIGHT ASSTD0000001000+00002630+00000+0001T   00002630+0000001134          1400 F52214               1AZ
156105005156105112-116038     156105006009681820246TCS CARRIER BAG MIDI   0000001000+00000035+00000+0001T   00000035+0000001134          1400 F52090               1AZ
156106000156106               156106               170213J2     1400+00000+J20000015788+0000015788+000000000+000002211+0000017999+0000000000+I40000017999+0000000000+Z
156106001156106007-010502     156106006003000455270WIPE & CHALK 60X45CM   0000001000+00015788+00000+0001T   00015788+0000001141          1400 F52130               1AZ
156107000156107               156107               170213J2     1400+00000+J20000004557+0000004557+000000000+000000639+0000005196+0000000000+I40000005196+0000000000+Z
156107001156107903-000519     156107006001704012805SWT MS LIQ-O-GHETTI    0000001000+00001227+00000+0001T   00001227+0000001147          1400 F52150               1AZ
156107002156107903-000517     156107006001704012768SWT STRAWS FIZZY CHERRY0000001000+00001227+00000+0001T   00001227+0000001147          1400 F52150               1AZ
156107003156107903-000518     156107006001704012782SWT STRAWS S/BERRY 100g0000001000+00001227+00000+0001T   00001227+0000001147          1400 F52150               1AZ
156107004156107077-000150-D   156107006003000054343GIFT-WRAP CELLPHANE CLR0000001000+00000876+00000+0001T   00000876+0000001147          1400 F52112               1AZ
156108000156108               156108               170213J2     1400+00000+J20000016867+0000016867+000000000+000002363+0000019230+0000000000+I20000000000+0000019230+Z
156108001156108261-000121     156108006001023341600GUN-CAPS 8-SHOT CARD-9 0000004000+00000700+00000+0001T   00000700+0000001147          1400 F52710               1AZ
156108002156108261-008552     156108006001023832580CAP-GUN           ASSTD0000002000+00007016+00000+0001T   00007016+0000001147          1400 F52710               1AZ
156108003156108112-116038     156108006009681820246TCS CARRIER BAG MIDI   0000001000+00000035+00000+0001T   00000035+0000001147          1400 F52090               1AZ
156109000156109               156109               170213J2     1400+00000+J20000007674+0000007674+000000000+000001076+0000008750+0000000000+I20000000000+0000008750+Z
156109001156109112-116069     156109006009681820277TCS CARRIER BAG JUMBO  0000001000+00000048+00000+0001T   00000048+0000001149          1400 F52090               1AZ
156109002156109018-000136     156109006001023659026MUG OCC LOVE W/PLUSH   0000001000+00003507+00000+0001T   00003507+0000001149          1400 F52515               1AZ
156109003156109080-000127     156109006003000424351VALENTINES DAY 36x24CM 0000001000+00002192+00000+0001T   00002192+0000001149          1400 F52112               1AZ
156109004156109903-000155     156109006009803374435SWT LOLLY I LUV U HEART0000001000+00000525+00000+0001T   00000525+0000001149          1400 F52150               1AZ
156109005156109304-001204     156109006001023737984FLOWER OCC. TEDDY/ROSES0000001000+00001402+00000+0001T   00001490+0006471149          1400 F52510               1AZ
156110000156110               156110               170213J2     1400+00000+J20000006887+0000006887+000000000+000000965+0000007850+0000000002+I20000000000+0000007850+Z
156110001156110077-000926     156110006003000414178G/WRAP 700mmx2m LOVE   0000001000+00002192+00000+0001T   00002192+0000001155          1400 F52112               1AZ
156110002156110566-001234     156110006003000217793STICKERS LASER ASSTD   0000001000+00001578+00000+0001T   00001578+0000001155          1400 F52130               1AZ
156110003156110564-001028     156110006001023708663BUBBLE CELEBRATION 6ml 0000001000+00003069+00000+0001T   00003069+0000001155          1400 F52131               1AZ
156110004156110112-116069     156110006009681820277TCS CARRIER BAG JUMBO  0000001000+00000048+00000+0001T   00000048+0000001155          1400 F52090               1AZ
156111000156111               156111               170213J2     1400+00000+J20000002452+0000002452+000000000+000000345+0000002790+0000000007+I20000000000+0000002790+Z
156111001156111903-000155     156111006009803374435SWT LOLLY I LUV U HEART0000002000+00000525+00000+0001T   00000525+0000001157          1400 F52150               1AZ
156111002156111105-000750     156111006003000190270CONTAINERS 4xMINI 150ml0000001000+00001402+00000+0001T   00001402+0000001157          1400 F52210               1AZ
156112000156112               156112               170213J2     1400+00000+J20000000874+0000000874+000000000+000000124+0000000990+0000000008+I20000000000+0000000990+Z
156112001156112080-000133-A   156112006003000647019MINI VALENTINES CARD   0000002000+00000437+00000+0001T   00000437+0000001158          1400 F52112               1AZ
156113000156113               156113               170213J2     1400+00000+J20000002628+0000002628+000000000+000000368+0000002990+0000000006+I20000000000+0000002990+Z
156113001156113903-000194     156113006009826020616SWT CHOC RP LOLLY 25G  0000002000+00001314+00000+0001T   00001314+0000001159          1400 F52150               1AZ
156114000156114               156114               170213J2     1400+00000+J20000006138+0000006138+000000000+000000860+0000006998+0000000000+I40000006998+0000000000+Z
156114001156114464-000107     156114000073854318089PLAY-CARDS 2nd (SINGLE)0000002000+00003069+00000+0001T   00003069+0000001201          1400 F52785               1AZ
156115000156115               156115               170213J2     1400+00000+J20000004385+0000004385+000000000+000000614+0000004990+0000000009+I20000000000+0000004990+Z
156115001156115082-000120     156115006003000360727READING GLS STRENGTH:3 0000001000+00004385+00000+0001T   00004385+0000001202          1400 F52160               1AZ
156116000156116               156116               170213J2     1400+00000+J20000004385+0000004385+000000000+000000614+0000004990+0000000009+I20000000000+0000004990+Z
156116001156116006-000190     156116006003000685530BALLOONS LOVE 81x91cm  0000001000+00004385+00000+0001T   00004385+0000001203          1400 F52131               1AZ
156117000156117               156117               170213J2     1400+00000+J20000008365+0000008365+000000000+000001179+0000009540+0000000004+I20000000000+0000009540+Z
156117001156117080-000133-A   156117006003000647019MINI VALENTINES CARD   0000001000+00000437+00000+0001T   00000437+0000001205          1400 F52112               1AZ
156117002156117080-000133     156117006003000535613CARD&ENV MINI ASTD DSGN0000001000+00000437+00000+0001T   00000437+0000001205          1400 F52112               1AZ
156117003156117080-000133-A   156117006003000647019MINI VALENTINES CARD   0000002000+00000437+00000+0001T   00000437+0000001205          1400 F52112               1AZ
156117004156117080-000133     156117006003000535613CARD&ENV MINI ASTD DSGN0000001000+00000437+00000+0001T   00000437+0000001205          1400 F52112               1AZ
156117005156117080-000133-A   156117006003000647019MINI VALENTINES CARD   0000003000+00000437+00000+0001T   00000437+0000001205          1400 F52112               1AZ
156117006156117016-006509     156117006003000567355S/JAR GLS MINI LABEL   0000001000+00001753+00000+0001T   00002192+0008191205          1400 F52300               1AZ
156117007156117077-000150-D   156117006003000054343GIFT-WRAP CELLPHANE CLR0000001000+00000876+00000+0001T   00000876+0000001205          1400 F52112               1AZ
156117008156117080-000127     156117006003000424351VALENTINES DAY 36x24CM 0000001000+00002192+00000+0001T   00002192+0000001205          1400 F52112               1AZ
156117009156117112-116069     156117006009681820277TCS CARRIER BAG JUMBO  0000001000+00000048+00000+0001T   00000048+0000001205          1400 F52090               1AZ
156118000156118               156118               170213J2     1400+00000+J20000003942+0000003942+000000000+000000552+0000004490+0000000004+I20000000000+0000004490+Z
156118001156118903-000194     156118006009826020616SWT CHOC RP LOLLY 25G  0000003000+00001314+00000+0001T   00001314+0000001205          1400 F52150               1AZ
156119000156119               156119               170213J2     1400+00000+J20000009202+0000009202+000000000+000001291+0000010493+0000000000+I40000010493+0000000000+Z
156119001156119903-000482     156119006001704001397SWT SOFT-MINTS 60G     0000001000+00000876+00000+0001T   00000876+0000001207          1400 F52150               1AZ
156119002156119200-003024     156119006001023657299REFUSE BAGS 20PCE BLACK0000002000+00001753+00000+0001T   00001753+0000001207          1400 F52214               1AZ
156119003156119903-000194     156119006009826020616SWT CHOC RP LOLLY 25G  0000001000+00001314+00000+0001T   00001314+0000001207          1400 F52150               1AZ
156119004156119051-002407     156119006003000452491SPRAYER TRIGGER 550ml  0000001000+00001753+00000+0001T   00001753+0000001207          1400 F52820               1AZ
156119005156119200-003024     156119006001023657299REFUSE BAGS 20PCE BLACK0000001000+00001753+00000+0001T   00001753+0000001207          1400 F52214               1AZ
156120000156120               156120               170213J2     1400+00000+J20000001314+0000001314+000000000+000000184+0000001498+0000000000+I40000001498+0000000000+Z
156120001156120077-000310     156120006001023608635GIFT-BAG 18X23CM GLOSS 0000001000+00001314+00000+0001T   00001314+0000001211          1400 F52112               1AZ
156121000156121               156121               170213J2     1400+00000+J20000003506+0000003506+000000000+000000492+0000003998+0000000000+I40000003998+0000000000+Z
156121001156121903-000912     156121006009802868461SWT GUM TAPE HOT WHEELS0000002000+00001753+00000+0001T   00001753+0000001215          1400 F52150               1AZ
156122000156122               156122               170213J2     1400+00000+J20000001753+0000001753+000000000+000000246+0000001990+0000000009+I20000000000+0000001990+Z
156122001156122024-000038     156122006001023477026MEASURING-JUG 1L (4CUP)0000001000+00001753+00000+0001T   00001753+0000001218          1400 F52300               1AZ
156123000156123               156123               170213J2     1400+00000+J20000000876+0000000876+000000000+000000123+0000000990+0000000009+I20000000000+0000000990+Z
156123001156123076-000017     156123006001811010022TWINE COTTON 50g-BALL  0000001000+00000876+00000+0001T   00000876+0000001219          1400 F52810               1AZ
156124000156124               156124               170213J2     1400+00000+J20000003507+0000003507+000000000+000000491+0000003990+0000000008+I20000000000+0000003990+Z
156124001156124004-071203     156124006003000183555COMPUTOR LIGHT LED USB 0000001000+00003507+00000+0001T   00003507+0000001222          1400 F52310               1AZ
156125000156125               156125               170213J2     1400+00000+J20000021118+0000021118+000000000+000002958+0000024070+0000000006+I20000000000+0000024070+Z
156125001156125077-000456     156125006003000285549G/BAG METALLIC JMB EMB 0000001000+00002630+00000+0001T   00002630+0000001225          1400 F52112               1AZ
156125002156125030-004015     156125006003000467624PLAQUE WDN SIGN 30X20CM0000001000+00009648+00000+0001T   00009648+0000001225          1400 F52505               1AZ
156125003156125264-000927     156125000090159393009MAISTO MOTORBIKE 1:18  0000001000+00008771+00000+0001T   00008771+0000001225          1400 F52710               1AZ
156125004156125112-116053     156125006006438002399TCS CARRIER BAG 38L    0000001000+00000069+00000+0001T   00000069+0000001225          1400 F52090               1AZ
156126000156126               156126               170213J2     1400+00000+J20000002630+0000002630+000000000+000000369+0000002990+0000000009+I20000000000+0000002990+Z
156126001156126031-000868-B   156126006001023798565P/FRAME PL BLCK 13X18CM0000001000+00002630+00000+0001T   00002630+0000001226          1400 F52510               1AZ
156127000156127               156127               170213J2     1400+00000+J20000009954+0000009954+000000000+000001396+0000011350+0000000000+I40000011350+0000000000+Z
156127001156127036-000151     156127006001023810588COATHANGERS    PACK-10 0000001000+00002893+00000+0001T   00002893+0000001333          1400 F52212               1AZ
156127002156127036-000610     156127006001023627230WASHING-PEGS PL PACK-240000001000+00001753+00000+0001T   00001753+0000001333          1400 F52212               1AZ
156127003156127031-005923     156127006003000040322P/FRAME CERT PL 21x29.70000001000+00003507+00000+0001T   00003507+0000001333          1400 F52510               1AZ
156127004156127077-000309     156127006001023608604GIFT-BAG 25X32CM GLOSS 0000001000+00001753+00000+0001T   00001753+0000001333          1400 F52112               1AZ
156127005156127112-116069     156127006009681820277TCS CARRIER BAG JUMBO  0000001000+00000048+00000+0001T   00000048+0000001333          1400 F52090               1AZ
156128000156128               156128               170213J2     1400+00000+J20000007011+0000007011+000000000+000000984+0000007990+0000000005+I20000000000+0000007990+Z
156128001156128071-003011     156128006001023762825PEN STICKBALL X10 ASSTD0000001000+00001753+00000+0001T   00001753+0000001338          1400 F52130               1AZ
156128002156128031-000878-A   156128006001023798985P/FRAME 10x15cm PL-SLID0000002000+00000876+00000+0001T   00000876+0000001338          1400 F52510               1AZ
156128003156128080-000110     156128006003000237326CARD&ENVLPE BDAY-FUNNY 0000001000+00001753+00000+0001T   00001753+0000001338          1400 F52112               1AZ
156128004156128080-000107     156128006003000237081CARD&ENVELPE BDAY BOY  0000001000+00001753+00000+0001T   00001753+0000001338          1400 F52112               1AZ
156129000156129               156129               170213J2     1400+00000+J20000006139+0000006139+000000000+000000860+0000006999+0000000000+I40000006999+0000000000+Z
156129001156129041-007029     156129006003000178049H/GLO BUBBLE-BATH 2L   0000001000+00006139+00000+0001T   00006139+0000001340          1400 F52200               1AZ
156130000156130               156130               170213J2     1400+00000+J20000000876+0000000876+000000000+000000123+0000000990+0000000009+I20000000000+0000000990+Z
156130001156130071-005679     156130006003000151479PUNCH FILE 13X6.5CM    0000001000+00000876+00000+0001T   00001314+0008151341          1400 F52130               1AZ
156131000156131               156131               170213J2     1400+00000+J20000003069+0000003069+000000000+000000430+0000003490+0000000009+I20000000000+0000003490+Z
156131001156131089-060027     156131006003000245871KEY-CHAIN HEART 6X6cm  0000001000+00003069+00000+0001T   00003069+0000001500          1400 F52205               1AZ
156132000156132               156132               170213J2     1400+00000+J20000002630+0000002630+000000000+000000369+0000002990+0000000009+I20000000000+0000002990+Z
156132001156132466-072725     156132006001023622532YO-YO PL               0000001000+00002630+00000+0001T   00002630+0000001502          1400 F52785               1AZ
156133000156133               156133               170213J2     1400+00000+J20000003067+0000003067+000000000+000000430+0000003490+0000000007+I20000000000+0000003490+Z
156133001156133046-000012     156133006904708013062BATTERIES AA  CARD-OF-40000001000+00001314+00000+0001T   00001314+0000001511          1400 F52312               1AZ
156133002156133048-000859     156133006003000423422TORCH 9 LED PL 3XAAA   0000001000+00001753+00000+0001T   00001753+0000001511          1400 F52305               1AZ
156134000156134               156134               170213J2     1400+00000+J20000003506+0000003506+000000000+000000492+0000003998+0000000000+I40000003998+0000000000+Z
156134001156134031-005820     156134006001023667816P/FRAME-CLIP 15X20CM   0000002000+00001753+00000+0001T   00001753+0000001525          1400 F52510               1AZ
156135000156135               156135               170213J2     1400+00000+J20000014656-0000014656-000000000+000002053-0000016710-0000000001+I20000000000+0000016710-Z
156135001156135001-999910     156135000000000999910POSTAGE                0000001000-00008877+00000+0001T   00000000+0000001529          1400 F529101IC            1 Z
156135002156135001-999906     156135000000000999906STATIONERY(PHOTOCOPIES)0000001000-00002271+00000+0001T   00000000+0000001529          1400 F529061IC            1 Z
156135003156135001-999907     156135000000000999907CLEANING-MATERIALS     0000001000-00003508+00000+0001T   00000000+0000001529          1400 F529071IC            1 Z
156136000156136               156136               170213J2     1400+00000+J20000003504+0000003504+000000000+000000492+0000003996+0000000000+I40000003996+0000000000+Z
156136001156136304-001204     156136006001023737984FLOWER OCC. TEDDY/ROSES0000002000+00001402+00000+0001T   00001490+0006471531          1400 F52510               1AZ
156136002156136564-000012     156136006001023130075BUBBLE BOTTLE MAGIC    0000001000+00000700+00000+0001T   00000700+0000001531          1400 F52131               1AZ
156137000156137               156137               170213J2     1400+00000+J20000005256+0000005256+000000000+000000736+0000005992+0000000000+I40000005992+0000000000+Z
156137001156137903-000844     156137005010478432567SWT CANDY DL LUV HEARTS0000004000+00001314+00000+0001T   00001314+0000001532          1400 F52150               1AZ
156138000156138               156138               170213J2     1400+00000+J20000001490+0000001490+000000000+000000209+0000001690+0000000009+I20000000000+0000001690+Z
156138001156138077-000305     156138006003000395422GIFT-BAG WINE 10X35CM  0000001000+00001490+00000+0001T   00001490+0000001543          1400 F52112               1AZ
156139000156139               156139               170213J2     1400+00000+J20000006346+0000006346+000000000+000000890+0000007236+0000000000+I40000007236+0000000000+Z
156139001156139071-001015     156139006001023910387MARKERS PERMANENT 3PK  0000001000+00001753+00000+0001T   00001753+0000001556          1400 F52130               1AZ
156139002156139007-000324     15613900600968585864125 SHEETS BRIGHTS MARLI0000001000+00003507+00000+0001T   00003507+0000001556          1400 F52130               1AZ
156139003156139903-002853     156139000000087108019MENTOS ROLL MINT       0000001000+00001051+00000+0001T   00001051+0000001556          1400 F52150               1AZ
156139004156139112-116038     156139006009681820246TCS CARRIER BAG MIDI   0000001000+00000035+00000+0001T   00000035+0000001556          1400 F52090               1AZ
156140000156140               156140               170213J2     1400+00000+J20000006139+0000006139+000000000+000000860+0000006999+0000000000+I40000006999+0000000000+Z
156140001156140368-000175     156140006003000270316PLUSH BEAR 4 ASSTD 18CM0000001000+00006139+00000+0001T   00006139+0000001559          1400 F52745               1AZ
156141000156141               156141               170213J2     1400+00000+J20000001314+0000001314+000000000+000000184+0000001490+0000000008+I20000000000+0000001490+Z
156141001156141903-000844     156141005010478432567SWT CANDY DL LUV HEARTS0000001000+00001314+00000+0001T   00001314+0000001601          1400 F52150               1AZ
156142000156142               156142               170213J2     1400+00000+J20000009645+0000009645+000000000+000001352+0000010997+0000000000+I40000010997+0000000000+Z
156142001156142080-000115     156142006003000237333CARD&ENVELOPE - BLANKS 0000001000+00001753+00000+0001T   00001753+0000001604          1400 F52112               1AZ
156142002156142368-000104     156142006001023751348PLUSH BEAR RUFFLED-LOOK0000001000+00006139+00000+0001T   00006139+0000001604          1400 F52745               1AZ
156142003156142903-000059     156142006005929000395SWT GS NOVELTY ALIEN VA0000001000+00001753+00000+0001T   00001753+0000001604          1400 F52150               1AZ
156143000156143               156143               170213J2     1400+00000+J20000005962+0000005962+000000000+000000835+0000006790+0000000007+I20000000000+0000006790+Z
156143001156143563-000318-L   156143006003000407088SERVIETTES 33cm RED    0000001000+00002192+00000+0001T   00002192+0000001607          1400 F52214               1AZ
156143002156143566-001234     156143006003000217793STICKERS LASER ASSTD   0000001000+00001578+00000+0001T   00001578+0000001607          1400 F52130               1AZ
156143003156143563-000318-L   156143006003000407088SERVIETTES 33cm RED    0000001000+00002192+00000+0001T   00002192+0000001607          1400 F52214               1AZ
156144000156144               156144               170213J2     1400+00000+J20000008659+0000008659+000000000+000001220+0000009879+0000000000+I40000009879+0000000000+Z
156144001156144089-000030     156144006003000575671K/CHAIN LOVE MTL ASSTD 0000002000+00001753+00000+0001T   00001753+0000001614          1400 F52205               1AZ
156144002156144077-000314     156144006003000181148GIFT-BAG 11X14CM MATT  0000003000+00000876+00000+0001T   00000876+0000001614          1400 F52112               1AZ
156144003156144112-116038     156144006009681820246TCS CARRIER BAG MIDI   0000001000+00000035+00000+0001T   00000035+0000001614          1400 F52090               1AZ
156144004156144903-000183     156144006003000451043SWT LB HEART LOLLY     0000003000+00000393+00000+0001T   00000393+0000001614          1400 F52150               1AZ
156144005156144080-000133-A   156144006003000647019MINI VALENTINES CARD   0000003000+00000437+00000+0001T   00000437+0000001614          1400 F52112               1AZ
156145000156145               156145               170213J2     1400+00000+J20000030725+0000030725+000000000+000004305+0000035030+0000000000+I40000035030+0000000000+Z
156145001156145564-001028     156145006001023708663BUBBLE CELEBRATION 6ml 0000010000+00003069+00000+0001T   00003069+0000001657          1400 F521311IC            1AZ
156145002156145112-116038     156145006009681820246TCS CARRIER BAG MIDI   0000001000+00000035+00000+0001T   00000035+0000001657          1400 F52090               1AZ
156146000156146               156146               170213J2     1400+00000+J20000014896+0000014896+000000000+000002088+0000016984+0000000000+I40000016984+0000000000+Z
156146001156146903-000844     156146005010478432567SWT CANDY DL LUV HEARTS0000006000+00001314+00000+0001T   00001314+0000001659          1400 F52150               1AZ
156146002156146566-000535     156146006003000284719STICKER SPARKLE EMBOSS 0000002000+00001753+00000+0001T   00001753+0000001659          1400 F52130               1AZ
156146003156146566-000066     156146006003000283675STICKERS GLITTER 25PCS 0000002000+00001753+00000+0001T   00001753+0000001659          1400 F52130               1AZ
156147000156147               156147               170213J2     1400+00000+J20000003278+0000003278+000000000+000000460+0000003738+0000000000+I40000003738+0000000000+Z
156147001156147466-000515     156147006001023477408BALLS TENNIS BAG-OF-3  0000001000+00002630+00000+0001T   00002630+0000001709          1400 F52785               1AZ
156147002156147077-000311     156147006001023608666GIFT-BAG 11X14CM GLOSS 0000001000+00000613+00000+0001T   00000613+0000001709          1400 F52112               1AZ
156147003156147112-116038     156147006009681820246TCS CARRIER BAG MIDI   0000001000+00000035+00000+0001T   00000035+0000001709          1400 F52090               1AZ
156148000156148               156148               170213J2     1400+00000+J20000005731+0000005731+000000000+000000804+0000006530+0000000005+I20000000000+0000006530+Z
156148001156148071-000325     156148006009635844090RULER PLASTIC 30cm     0000001000+00000437+00000+0001T   00000437+0000001717          1400 F52130               1AZ
156148002156148007-000045     156148006009608640438DISPLAY-POCKETS A4 10PC0000002000+00000876+00000+0001T   00000876+0000001717          1400 F52130               1AZ
156148003156148007-000324     15614800600968585864125 SHEETS BRIGHTS MARLI0000001000+00003507+00000+0001T   00003507+0000001717          1400 F52130               1AZ
156148004156148112-116038     156148006009681820246TCS CARRIER BAG MIDI   0000001000+00000035+00000+0001T   00000035+0000001717          1400 F52090               1AZ
156149000156149               156149               170213J2     1400+00000+J20000000876+0000000876+000000000+000000123+0000000990+0000000009+I20000000000+0000000990+Z
156149001156149077-000302     156149008010410010195GIFT-BAG 18X23CM E/D   0000001000+00000876+00000+0001T   00000876+0000001726          1400 F52112               1AZ
156150000156150               156150               170213J2     1400+00000+J20000008592+0000008592+000000000+000001203+0000009795+0000000000+I40000009795+0000000000+Z
156150001156150001-000175     156150006001023788108B/MUG GLS LOVE 380ML   0000001000+00004385+00000+0001T   00004385+0000001731          1400 F52515               1AZ
156150002156150018-005009     156150006001023725608MUG W/PLUSH-BEAR LOVE  0000001000+00003507+00000+0001T   00003507+0000001731          1400 F52515               1AZ
156150003156150564-000012     156150006001023130075BUBBLE BOTTLE MAGIC    0000001000+00000700+00000+0001T   00000700+0000001731          1400 F52131               1AZ
156151000156151               156151               170213J2     1400+00000+J20000001753+0000001753+000000000+000000246+0000001990+0000000009+I20000000000+0000001990+Z
156151001156151079-013099     156151006003000081875ART+CRAFT EYES ASSTD   0000001000+00001753+00000+0001T   00001753+0000001731          1400 F52130               1AZ
156152000156152               156152               170213J2     1400+00000+J20000001314+0000001314+000000000+000000184+0000001490+0000000008+I20000000000+0000001490+Z
156152001156152077-000310     156152006001023608635GIFT-BAG 18X23CM GLOSS 0000001000+00001314+00000+0001T   00001314+0000001734          1400 F52112               1AZ
156153000156153               156153               170213J2     1400+00000+J20000001227+0000001227+000000000+000000172+0000001390+0000000009+I20000000000+0000001390+Z
156153001156153077-000245     156153006001023759214GIFT-RIBBON METALLICx2 0000001000+00001227+00000+0001T   00001227+0000001735          1400 F52112               1AZ
156154000156154               156154               170213J2     1400+00000+J20000004385+0000004385+000000000+000000614+0000004999+0000000000+I40000004999+0000000000+Z
156154001156154006-000190     156154006003000685530BALLOONS LOVE 81x91cm  0000001000+00004385+00000+0001T   00004385+0000001740          1400 F52131               1AZ
156155000156155               156155               170213J2     1400+00000+J20000003507+0000003507+000000000+000000491+0000003998+0000000000+I40000003998+0000000000+Z
156155001156155018-005009     156155006001023725608MUG W/PLUSH-BEAR LOVE  0000001000+00003507+00000+0001T   00003507+0000001742          1400 F52515               1AZ
156156000156156               156156               170213J2     1400+00000+J20000002453+0000002453+000000000+000000344+0000002790+0000000007+I20000000000+0000002790+Z
156156001156156018-000177     156156006001023797513MUG MINI LOVE ASSTD    0000001000+00000700+00000+0001T   00000700+0000001745          1400 F52515               1AZ
156156002156156903-000215     156156006002099001214SWT GS MALLOW TWIST PAC0000001000+00001753+00000+0001T   00001753+0000001745          1400 F52150               1AZ
156157000156157               156157               170213J2     1400+00000+J20000002192+0000002192+000000000+000000307+0000002490+0000000009+I20000000000+0000002490+Z
156157001156157024-091103     156157006003453014307BAKING-CUP MUFFIN 50PCE0000001000+00002192+00000+0001T   00002192+0000001747          1400 F52300               1AZ
156158000156158               156158               170213J2     1400+00000+J20000002628+0000002628+000000000+000000369+0000002990+0000000007+I20000000000+0000002990+Z
156158001156158077-000302     156158008010410010195GIFT-BAG 18X23CM E/D   0000003000+00000876+00000+0001T   00000876+0000001748          1400 F52112               1AZ
156159000156159               156159               170213J2     1400+00000+J20000004383+0000004383+000000000+000000615+0000004998+0000000000+I40000004998+0000000000+Z
156159001156159016-006518     156159006003000351749S/JAR GLS CHECK 350ML  0000001000+00001753+00000+0001T   00001753+0000001750          1400 F52300               1AZ
156159002156159006-006019     156159006001023908193PARTY-SPRAY GLITTER    0000001000+00002630+00000+0001T   00002630+0000001750          1400 F52131               1AZ
156160000156160               156160               170213J2     1400+00000+J20000003507+0000003507+000000000+000000491+0000003990+0000000008+I20000000000+0000003990+Z
156160001156160018-000130     156160006001023867537MUG OCC LOVE MINI+HEART0000001000+00003507+00000+0001T   00003507+0000001751          1400 F52515               1AZ
156161000156161               156161               170213J2     1400+00000+J20000008004+0000008004+000000000+000001123+0000009120+0000000007+I20000000000+0000009120+Z
156161001156161077-000321     156161006001023677501GIFT-BAG 11X14CM E/D FL0000013000+00000613+00000+0001T   00000613+0000001751          1400 F52112               1AZ
156161002156161112-116038     156161006009681820246TCS CARRIER BAG MIDI   0000001000+00000035+00000+0001T   00000035+0000001751          1400 F52090               1AZ
156162000156162               156162               170213J2     1400+00000+J20000015284+0000015284+000000000+000002142+0000017426+0000000000+I40000017426+0000000000+Z
156162001156162089-000150     156162006003000674268K/CHAIN PLUSH EMOTICON 0000001000+00001139+00000+0001T   00001139+0000001754          1400 F52205               1AZ
156162002156162089-000220     156162006003000677368KEY CHAIN+PEN+KNIFE    0000001000+00003069+00000+0001T   00003069+0000001754          1400 F52205               1AZ
156162003156162077-000314     156162006003000181148GIFT-BAG 11X14CM MATT  0000001000+00000876+00000+0001T   00000876+0000001754          1400 F52112               1AZ
156162004156162018-000177     156162006001023797513MUG MINI LOVE ASSTD    0000004000+00000700+00000+0001T   00000700+0000001754          1400 F52515               1AZ
156162005156162903-000499     156162006001704012492SWT CHOC MALLOWS 50g   0000001000+00001227+00000+0001T   00001227+0000001754          1400 F52150               1AZ
156162006156162089-000030     156162006003000575671K/CHAIN LOVE MTL ASSTD 0000001000+00001753+00000+0001T   00001753+0000001754          1400 F52205               1AZ
156162007156162031-080508     156162006001023802415P/FRAME PL 22X11CM LOVE0000001000+00004385+00000+0001T   00004385+0000001754          1400 F52510               1AZ
156162008156162112-116038     156162006009681820246TCS CARRIER BAG MIDI   0000001000+00000035+00000+0001T   00000035+0000001754          1400 F52090               1AZ
156163000156163               156163               170213J2     1400+00000+J20000001753+0000001753+000000000+000000246+0000001990+0000000009+I20000000000+0000001990+Z
156163001156163077-000309     156163006001023608604GIFT-BAG 25X32CM GLOSS 0000001000+00001753+00000+0001T   00001753+0000001754          1400 F52112               1AZ
156164000156164               156164               170213J2     1400+00000+J20000010521+0000010521+000000000+000001473+0000011994+0000000000+I40000011994+0000000000+Z
156164001156164018-005009     156164006001023725608MUG W/PLUSH-BEAR LOVE  0000003000+00003507+00000+0001T   00003507+0000001756          1400 F52515               1AZ
A17021300                                          10043918J2SLAVE 1                       F521IC
A17021301                                          10561063J2SLAVE 1                       F522IC
A17021302                                          13552960J2SLAVE 1                       F521IC
A17021303                                          15280468J2SLAVE 1                       F521IC
A17021304                                          15383282J2SLAVE 1                       F521IC
A17021305                                          15392975J2SLAVE 1                       F521IC
B15614500                                          170213J2564-001028     16541409SLAVE 1     F521IC0000020000+0000010000+0000000000000+
M17021303                              I.T         J2ATT I.T                                                                                         LAST SALE ON SLAVE 1                            156164                                          THANKS J2
M17021391                              CASH        J2SLAVE 1                       Z-REPORT No.   642TOTAL (Sales - Refunds)           6478.48       CASH TO BE BANKED                 3164.80       DEBIT CARDS                          0.00       CREDIT CARDS                      3146.58       Z-READING                         6311.38       AIRTIME DEBIT CARD SALES             0.00       AIRTIME CARD SALES                   0.00       OVERS/UNDERS                         0.00       AIRTIME CASH SALES                   0.00       GIFT CARDS                           0.00       GIFT CARD CASH SALES                 0.00       POSTAGE                            101.20       STATIONERY(PHOTOCOPIES)             25.89       CLEANING-MATERIALS                  40.00       ROUNDING                             0.01       T O T A L  CASH PAYOUTS            167.10                                                                                                                                                      Z
M17021392                              CASH        J2ABSENT                                                                                                                                                                                          ANNUAL LEAVE                                                                                                                                                                                    DAY OFF                                                                                                                                                                                         COMMENTS          Z READ NO 642                                   Z AMOUNT 6478                                   CASHIER LETHIWE                                                                                                                                                                                                                                                              Z
Y17021300                                          J200009100568550+000091
ZJ217021408233 SLAVE 1      SALES DATA                     NEXT INVOICE NO.  156165 0642
X J2 Slave 1 First invoice 156072 170213 Last invoice 156164 170213 Next invoice 156165 Total number of records 000000322 clbackup completed 08:23:10
