164751000164751               164751               170213J2     1400+00000+J20000003104+0000003104+000000000+000000435+0000003539+0000000000+I40000003539+0000000000+Z
164751001164751031-000864-A   164751006001023798350P/FRAME MAHOGANY 10X15 0000001000+00003069+00000+0001T   00003069+0000001234          1400 GR5510               2AZ
164751002164751112-116038     164751006009681820246TCS CARRIER BAG MIDI   0000001000+00000035+00000+0001T   00000035+0000001234          1400 GR5090               2AZ
164752000164752               164752               170213J2     1400+00000+J20000004385+0000004385+000000000+000000614+0000004990+0000000009+I20000000000+0000004990+Z
164752001164752031-000003     164752006003000201181P/FRME MIRROR FATHER   0000001000+00004385+00000+0001T   00004385+0000001235          1400 GR5510               2AZ
164753000164753               164753               170213J2     1400+00000+J20000002628+0000002628+000000000+000000368+0000002996+0000000000+I40000002996+0000000000+Z
164753001164753903-000194     164753006009826020616SWT CHOC RP LOLLY 25G  0000002000+00001314+00000+0001T   00001314+0000001236          1400 GR5150               2AZ
164754000164754               164754               170213J2     1400+00000+J20000009648+0000009648+000000000+000001351+0000010990+0000000009+I20000000000+0000010990+Z
164754001164754030-004015     164754006003000467624PLAQUE WDN SIGN 30X20CM0000001000+00009648+00000+0001T   00009648+0000001237          1400 GR5505               2AZ
164755000164755               164755               170213J2     1400+00000+J20000000035+0000000035+000000000+000000005+0000000040+0000000000+I20000000000+0000000040+Z
164755001164755112-116038     164755006009681820246TCS CARRIER BAG MIDI   0000001000+00000035+00000+0001T   00000035+0000001238          1400 GR5090               2AZ
164756000164756               164756               170213J2     1400+00000+J20000000700+0000000700+000000000+000000098+0000000790+0000000008+I20000000000+0000000790+Z
164756001164756564-000012     164756006001023130075BUBBLE BOTTLE MAGIC    0000001000+00000700+00000+0001T   00000700+0000001238          1400 GR5131               2AZ
164757000164757               164757               170213J2     1400+00000+J20000004385-0000004385-000000000+000000614-0000005000-0000000001+I20000000000+0000005000-Z
164757001164757006-000190     164757006003000685530BALLOONS LOVE 81x91cm  0000001000-00004385+00000+0001T   00004385+0000001239          1400 GR51312IC            2 Z
164758000164758               164758               170213J2     1400+00000+J20000010523+0000010523+000000000+000001475+0000011998+0000000000+I40000011998+0000000000+Z
164758001164758301-085007     164758006003000673698ORN OCC. LOVE S/PLAQUE 0000001000+00007893+00000+0001T   00007893+0000001241          1400 GR5505               2AZ
164758002164758077-000270     164758006003000395453GIFT-BAG PPR JMB 33X45 0000001000+00002630+00000+0001T   00002630+0000001241          1400 GR5112               2AZ
164759000164759               164759               170213J2     1400+00000+J20000002278+0000002278+000000000+000000320+0000002590+0000000008+I20000000000+0000002590+Z
164759001164759033-005991     164759006001023678546NEEDLES H/HOLD-REPAIR  0000001000+00000788+00000+0001T   00000788+0000001241          1400 GR5200               2AZ
164759002164759033-005919     164759006003000154883SEWING THREAD 24cm ASST0000001000+00001490+00000+0001T   00001490+0000001241          1400 GR5200               2AZ
164760000164760               164760               170213J2     1400+00000+J20000017540+0000017540+000000000+000002457+0000019990+0000000007+I20000000000+0000019990+Z
164760001164760039-000798     164760006001023617774CANDLES TEALITE BOX-50 0000002000+00006139+00000+0001T   00006139+0000001245          1400 GR5510               2AZ
164760002164760082-007580     164760006003000698523SUNGLASS MENS DESIGNER 0000001000+00005262+00000+0001T   00005262+0000001245          1400 GR5160               2AZ
164761000164761               164761               170213J2     1400+00000+J20000001578+0000001578+000000000+000000221+0000001799+0000000000+I40000001799+0000000000+Z
164761001164761018-000127     164761006001023380289MUG OCC STRAIGHT LOVE  0000001000+00001578+00000+0001T   00001753+0006471246          1400 GR5515               2AZ
164762000164762               164762               170213J2     1400+00000+J20000001226+0000001226+000000000+000000172+0000001390+0000000008+I20000000000+0000001390+Z
164762001164762083-000055     164762006003000003853LIGHTER ELCTRNC REFILBL0000002000+00000613+00000+0001T   00000613+0000001254          1400 GR5315               2AZ
164763000164763               164763               170213J2     1400+00000+J20000011826+0000011826+000000000+000001656+0000013480+0000000002+I20000000000+0000013480+Z
164763001164763903-000194     164763006009826020616SWT CHOC RP LOLLY 25G  0000009000+00001314+00000+0001T   00001314+0000001256          1400 GR5150               2AZ
164764000164764               164764               170213J2     1400+00000+J20000003942+0000003942+000000000+000000552+0000004490+0000000004+I20000000000+0000004490+Z
164764001164764903-000194     164764006009826020616SWT CHOC RP LOLLY 25G  0000003000+00001314+00000+0001T   00001314+0000001304          1400 GR5150               2AZ
164765000164765               164765               170213J2     1400+00000+J20000012232+0000012232+000000000+000001716+0000013948+0000000000+I40000013948+0000000000+Z
164765001164765077-000926     164765006003000414178G/WRAP 700mmx2m LOVE   0000001000+00002192+00000+0001T   00002192+0000001307          1400 GR5112               2AZ
164765002164765030-000031-A   164765006003000457588PLAQUE W/WORDS ASSTD   0000001000+00004385+00000+0001T   00004823+0006471307          1400 GR5505               2AZ
164765003164765159-000114     164765006003000630004SHOWER CAP PVC ASSTD   0000001000+00001490+00000+0001T   00001490+0000001307          1400 GR5200               2AZ
164765004164765566-000359     164765006003000582709STICKER BOOK LOVE SPARK0000001000+00002192+00000+0001T   00002192+0000001307          1400 GR5130               2AZ
164765005164765089-000150     164765006003000674268K/CHAIN PLUSH EMOTICON 0000001000+00001139+00000+0001T   00001139+0000001307          1400 GR5205               2AZ
164765006164765903-000183     164765006003000451043SWT LB HEART LOLLY     0000002000+00000393+00000+0001T   00000393+0000001307          1400 GR5150               2AZ
164765007164765112-116069     164765006009681820277TCS CARRIER BAG JUMBO  0000001000+00000048+00000+0001T   00000048+0000001307          1400 GR5090               2AZ
164766000164766               164766               170213J2     1400+00000+J20000015473+0000015473+000000000+000002169+0000017640+0000000002+I20000000000+0000017640+Z
164766001164766200-000100     164766006001023764003CUPS 25PCE DISPOSABLE  0000002000+00001928+00000+0001T   00001928+0000001321          1400 GR5214               2AZ
164766002164766006-000220-B   164766006001023890870PARTY TABLE-CLOTH BOY  0000002000+00002630+00000+0001T   00002630+0000001321          1400 GR5131               2AZ
164766003164766563-000317-B   164766006001023776174SERVIETTES PLN WHT PK400000002000+00001314+00000+0001T   00001314+0000001321          1400 GR5214               2AZ
164766004164766200-000092     164766006003000576739PICNIC PAPER PLATES 23c0000003000+00001227+00000+0001T   00001227+0000001321          1400 GR5214               2AZ
164766005164766112-116069     164766006009681820277TCS CARRIER BAG JUMBO  0000001000+00000048+00000+0001T   00000048+0000001321          1400 GR5090               2AZ
164767000164767               164767               170213J2     1400+00000+J20000003507+0000003507+000000000+000000491+0000003990+0000000008+I20000000000+0000003990+Z
164767001164767200-000011     164767006003000613489DISPOSABLE BAG ZIPER   0000001000+00003507+00000+0001T   00003507+0000001322          1400 GR5214               2AZ
164768000164768               164768               170213J2     1400+00000+J20000001753+0000001753+000000000+000000246+0000001990+0000000009+I20000000000+0000001990+Z
164768001164768903-000211     164768006002099001238SWT GS MALLOW ICE CREAM0000001000+00001753+00000+0001T   00001753+0000001331          1400 GR5150               2AZ
164769000164769               164769               170213J2     1400+00000+J20000006970+0000006970+000000000+000000979+0000007940+0000000009+I20000000000+0000007940+Z
164769001164769105-000750     164769006003000190270CONTAINERS 4xMINI 150ml0000002000+00001402+00000+0001T   00001402+0000001341          1400 GR5210               2AZ
164769002164769105-001005     164769006001023858214CONTAINERS MINI 6PCE   0000002000+00001402+00000+0001T   00001402+0000001341          1400 GR5210               2AZ
164769003164769034-000329     164769006001023564290BOTTLE-BRUSHES WHT 2PCE0000001000+00001314+00000+0001T   00001314+0000001341          1400 GR5215               2AZ
164769004164769112-116069     164769006009681820277TCS CARRIER BAG JUMBO  0000001000+00000048+00000+0001T   00000048+0000001341          1400 GR5090               2AZ
164770000164770               164770               170213J2     1400+00000+J20000000876+0000000876+000000000+000000123+0000000990+0000000009+I20000000000+0000000990+Z
164770001164770903-000481     164770006001704007481SWT MOO MILK-SHAKES 60G0000001000+00000876+00000+0001T   00000876+0000001342          1400 GR5150               2AZ
164771000164771               164771               170213J2     1400+00000+J20000001753+0000001753+000000000+000000246+0000001999+0000000000+I40000001999+0000000000+Z
164771001164771077-000316     164771006001023609731GIFT-BAG 25X32CM MATT  0000001000+00001753+00000+0001T   00001753+0000001351          1400 GR5112               2AZ
164772000164772               164772               170213J2     1400+00000+J20000004120+0000004120+000000000+000000578+0000004690+0000000008+I20000000000+0000004690+Z
164772001164772073-000157     164772006003000571734COSMETIC QUILTED BAG   0000001000+00002630+00000+0001T   00002630+0000001352          1400 GR5200               2AZ
164772002164772565-004101     164772006003000548033BALL BOUNCING EGG      0000001000+00001490+00000+0001T   00001490+0000001352          1400 GR5745               2AZ
164773000164773               164773               170213J2     1400+00000+J20000002278+0000002278+000000000+000000320+0000002590+0000000008+I20000000000+0000002590+Z
164773001164773033-005991     164773006001023678546NEEDLES H/HOLD-REPAIR  0000001000+00000788+00000+0001T   00000788+0000001352          1400 GR5200               2AZ
164773002164773033-005919     164773006003000154883SEWING THREAD 24cm ASST0000001000+00001490+00000+0001T   00001490+0000001352          1400 GR5200               2AZ
164774000164774               164774               170213J2     1400+00000+J20000007940+0000007940+000000000+000001113+0000009053+0000000000+I40000009053+0000000000+Z
164774001164774028-000916     164774006001023776969BBQ GRILL-CLEANER 37cm 0000001000+00002630+00000+0001T   00002630+0000001356          1400 GR5305               2AZ
164774002164774560-000100     164774006001023834904DRAGON 15cm            0000001000+00005262+00000+0001T   00005262+0000001356          1400 GR5745               2AZ
164774003164774112-116069     164774006009681820277TCS CARRIER BAG JUMBO  0000001000+00000048+00000+0001T   00000048+0000001356          1400 GR5090               2AZ
164775000164775               164775               170213J2     1400+00000+J20000008819+0000008819+000000000+000001235+0000010050+0000000004+I20000000000+0000010050+Z
164775001164775368-000614     164775006001023705808PLUSH LOVE 30cm        0000001000+00008771+00000+0001T   00008771+0000001401          1400 GR5745               2AZ
164775002164775112-116069     164775006009681820277TCS CARRIER BAG JUMBO  0000001000+00000048+00000+0001T   00000048+0000001401          1400 GR5090               2AZ
164776000164776               164776               170213J2     1400+00000+J20000004385+0000004385+000000000+000000614+0000004999+0000000000+I40000004999+0000000000+Z
164776001164776368-006004     164776006003000671076PLUSH DOLPHIN          0000001000+00004385+00000+0001T   00004385+0000001405          1400 GR5745               2AZ
164777000164777               164777               170213J2     1400+00000+J20000005698+0000005698+000000000+000000799+0000006490+0000000007+I20000000000+0000006490+Z
164777001164777159-000887     164777006001023730817HOOKS PL SUCTION 9PCE  0000001000+00002192+00000+0001T   00002192+0000001407          1400 GR5200               2AZ
164777002164777366-006104     164777006003000616930DRESS UP FACE PAINT    0000002000+00001753+00000+0001T   00001753+0000001407          1400 GR5131               2AZ
164778000164778               164778               170213J2     1400+00000+J20000001753+0000001753+000000000+000000246+0000001990+0000000009+I20000000000+0000001990+Z
164778001164778200-003024     164778006001023657299REFUSE BAGS 20PCE BLACK0000001000+00001753+00000+0001T   00001753+0000001414          1400 GR5214               2AZ
164779000164779               164779               170213J2     1400+00000+J20000000876+0000000876+000000000+000000123+0000000990+0000000009+I20000000000+0000000990+Z
164779001164779007-000045     164779006009608640438DISPLAY-POCKETS A4 10PC0000001000+00000876+00000+0001T   00000876+0000001416          1400 GR5130               2AZ
164780000164780               164780               170213J2     1400+00000+J20000000876+0000000876+000000000+000000123+0000000990+0000000009+I20000000000+0000000990+Z
164780001164780083-000295     164780006001023898562LIGHTER-GAS BUTANE 18ml0000001000+00000876+00000+0001T   00000876+0000001420          1400 GR5315               2AZ
164781000164781               164781               170213J2     1400+00000+J20000003507+0000003507+000000000+000000491+0000003990+0000000008+I20000000000+0000003990+Z
164781001164781562-000011     164781006001023782182PLAY DOUGH NEON TUBE   0000001000+00003507+00000+0001T   00003507+0000001421          1400 GR5755               2AZ
164782000164782               164782               170213J2     1400+00000+J20000002240+0000002240+000000000+000000314+0000002550+0000000004+I20000000000+0000002550+Z
164782001164782006-000789     164782006001023148612CROWN BOY              0000001000+00002192+00000+0001T   00002192+0000001424          1400 GR5131               2AZ
164782002164782112-116069     164782006009681820277TCS CARRIER BAG JUMBO  0000001000+00000048+00000+0001T   00000048+0000001424          1400 GR5090               2AZ
164783000164783               164783               170213J2     1400+00000+J20000002630+0000002630+000000000+000000369+0000002990+0000000009+I20000000000+0000002990+Z
164783001164783027-009005     164783006001023713124D/BRUSH W/TOP BRISTLES 0000001000+00002630+00000+0001T   00002630+0000001428          1400 GR5212               2AZ
164784000164784               164784               170213J2     1400+00000+J20000007454+0000007454+000000000+000001044+0000008498+0000000000+I40000008498+0000000000+Z
164784001164784018-019000     164784006003000557288MUG OCC. LOVE JUMBO    0000001000+00005262+00000+0001T   00005262+0000001434          1400 GR5515               2AZ
164784002164784080-000127     164784006003000424351VALENTINES DAY 36x24CM 0000001000+00002192+00000+0001T   00002192+0000001434          1400 GR5112               2AZ
164785000164785               164785               170213J2     1400+00000+J20000004206+0000004206+000000000+000000590+0000004790+0000000006+I20000000000+0000004790+Z
164785001164785012-000001     164785006003000331048MICRO PLATE-COVER 26X6 0000001000+00001753+00000+0001T   00002192+0008191435          1400 GR5300               2AZ
164785002164785565-000042     164785006003000252459NOVELTY STRESS BALL    0000001000+00001314+00000+0001T   00001314+0000001435          1400 GR5745               2AZ
164785003164785162-097716     164785006001492977164#TAG NEW GOLD E/PIERCE 0000001000+00001139+00000+0001T   00001139+0000001435          1400 GR5160               2AZ
164786000164786               164786               170213J2     1400+00000+J20000007274+0000007274+000000000+000001019+0000008290+0000000003+I20000000000+0000008290+Z
164786001164786903-002901     164786005996071650655QUICK MILK 5 S/BERRY   0000004000+00001578+00000+0001T   00001578+0000001438          1400 GR5150               2AZ
164786002164786903-000216     164786006925925900966SWT MALLOW TWIST ERKO  0000001000+00000262+00000+0001T   00000262+0000001438          1400 GR5150               2AZ
164786003164786903-000920     164786000041396002155SWT CANDY STICK/TATT   0000001000+00000700+00000+0001T   00000700+0000001438          1400 GR5150               2AZ
164787000164787               164787               170213J2     1400+00000+J20000009646+0000009646+000000000+000001352+0000010998+0000000000+I40000010998+0000000000+Z
164787001164787079-000282     164787006001023493309PAINT TUBS POSTER 12COL0000001000+00002630+00000+0001T   00002630+0000001445          1400 GR5130               2AZ
164787002164787079-000590     164787006003000543236SKETCH PAD & PAINT SET 0000001000+00007016+00000+0001T   00007016+0000001445          1400 GR5130               2AZ
164788000164788               164788               170213J2     1400+00000+J20000013006+0000013006+000000000+000001823+0000014829+0000000000+I40000014829+0000000000+Z
164788001164788566-000068     164788006003000418046POP UP LOVE 2 ASSTD    0000001000+00002192+00000+0001T   00002192+0000001448          1400 GR5130               2AZ
164788002164788566-001234     164788006003000217793STICKERS LASER ASSTD   0000001000+00001578+00000+0001T   00001578+0000001448          1400 GR5130               2AZ
164788003164788016-006518     164788006003000351749S/JAR GLS CHECK 350ML  0000003000+00001753+00000+0001T   00001753+0000001448          1400 GR5300               2AZ
164788004164788112-116038     164788006009681820246TCS CARRIER BAG MIDI   0000001000+00000035+00000+0001T   00000035+0000001448          1400 GR5090               2AZ
164788005164788903-000844     164788005010478432567SWT CANDY DL LUV HEARTS0000003000+00001314+00000+0001T   00001314+0000001448          1400 GR5150               2AZ
164789000164789               164789               170213J2     1400+00000+J20000006139+0000006139+000000000+000000860+0000006999+0000000000+I40000006999+0000000000+Z
164789001164789560-000229     164789006003000469468ANIMALS BIG EYES ASSTD 0000001000+00006139+00000+0001T   00006139+0000001449          1400 GR5745               2AZ
164790000164790               164790               170213J2     1400+00000+J20000005295+0000005295+000000000+000000743+0000006030+0000000008+I20000000000+0000006030+Z
164790001164790004-071192     164790006003000528813USB CABLE 1.0m         0000001000+00002630+00000+0001T   00002630+0000001449          1400 GR5310               2AZ
164790002164790004-071190     164790006003000528691USB CABLE EXT M/F 1.5m 0000001000+00002630+00000+0001T   00002630+0000001449          1400 GR5310               2AZ
164790003164790112-116038     164790006009681820246TCS CARRIER BAG MIDI   0000001000+00000035+00000+0001T   00000035+0000001449          1400 GR5090               2AZ
164791000164791               164791               170213J2     1400+00000+J20000005085+0000005085+000000000+000000712+0000005790+0000000007+I20000000000+0000005790+Z
164791001164791113-000001     164791006003000088690TRAVEL MUG 400ml S/S   0000001000+00003507+00000+0001T   00003507+0000001450          1400 GR5305               2AZ
164791002164791077-000323     164791006001023677563G/BAG 25X32CM E/DAY FLO0000001000+00001578+00000+0001T   00001578+0000001450          1400 GR5112               2AZ
164792000164792               164792               170213J2     1400+00000+J20000003541+0000003541+000000000+000000497+0000004030+0000000008+I20000000000+0000004030+Z
164792001164792016-006509     164792006003000567355S/JAR GLS MINI LABEL   0000002000+00001753+00000+0001T   00002192+0008191452          1400 GR5300               2AZ
164792002164792112-116038     164792006009681820246TCS CARRIER BAG MIDI   0000001000+00000035+00000+0001T   00000035+0000001452          1400 GR5090               2AZ
164793000164793               164793               170213J2     1400+00000+J20000001576+0000001576+000000000+000000222+0000001790+0000000008+I20000000000+0000001790+Z
164793001164793089-000150     164793006003000674268K/CHAIN PLUSH EMOTICON 0000001000+00001139+00000+0001T   00001139+0000001453          1400 GR5205               2AZ
164793002164793083-000049     164793004891035200024CIG-LIGHTER DISPOSABLE 0000001000+00000437+00000+0001T   00000437+0000001453          1400 GR5315               2AZ
164794000164794               164794               170213J2     1400+00000+J20000009233+0000009233+000000000+000001293+0000010526+0000000000+I40000010526+0000000000+Z
164794001164794903-000844     164794005010478432567SWT CANDY DL LUV HEARTS0000007000+00001314+00000+0001T   00001314+0000001500          1400 GR5150               2AZ
164794002164794112-116038     164794006009681820246TCS CARRIER BAG MIDI   0000001000+00000035+00000+0001T   00000035+0000001500          1400 GR5090               2AZ
164795000164795               164795               170213J2     1400+00000+J20000001490+0000001490+000000000+000000209+0000001690+0000000009+I20000000000+0000001690+Z
164795001164795046-000004     164795006001023606525BATTERY 9VOLT H/POWER  0000001000+00001490+00000+0001T   00001490+0000001500          1400 GR5312               2AZ
164796000164796               164796               170213J2     1400+00000+J20000001314+0000001314+000000000+000000184+0000001490+0000000008+I20000000000+0000001490+Z
164796001164796046-000012     164796006904708013062BATTERIES AA  CARD-OF-40000001000+00001314+00000+0001T   00001314+0000001500          1400 GR5312               2AZ
164797000164797               164797               170213J2     1400+00000+J20000006346+0000006346+000000000+000000890+0000007236+0000000000+I40000007236+0000000000+Z
164797001164797368-000049     164797006003000536955PLUSH BEAR 15cm LOVE   0000001000+00004385+00000+0001T   00004385+0000001534          1400 GR5745               2AZ
164797002164797077-000314     164797006003000181148GIFT-BAG 11X14CM MATT  0000001000+00000876+00000+0001T   00000876+0000001534          1400 GR5112               2AZ
164797003164797903-000151     164797006009803374411SWT SML RND R/BOW LOLLY0000002000+00000525+00000+0001T   00000525+0000001534          1400 GR5150               2AZ
164797004164797112-116038     164797006009681820246TCS CARRIER BAG MIDI   0000001000+00000035+00000+0001T   00000035+0000001534          1400 GR5090               2AZ
164798000164798               164798               170213J2     1400+00000+J20000003507+0000003507+000000000+000000491+0000003990+0000000008+I20000000000+0000003990+Z
164798001164798162-092945     164798006001492929453#TAG KIDS 6PK PURPLE   0000001000+00003507+00000+0001T   00003507+0000001537          1400 GR5160               2AZ
164799000164799               164799               170213J2     1400+00000+J20000000964+0000000964+000000000+000000135+0000001099+0000000000+I40000001099+0000000000+Z
164799001164799028-000795     164799006001023812063SKEWERS 10cm 100PCE 3mm0000001000+00000964+00000+0001T   00000964+0000001542          1400 GR5305               2AZ
164800000164800               164800               170213J2     1400+00000+J20000006926+0000006926+000000000+000000970+0000007890+0000000006+I20000000000+0000007890+Z
164800001164800077-000926     164800006003000414178G/WRAP 700mmx2m LOVE   0000001000+00002192+00000+0001T   00002192+0000001548          1400 GR5112               2AZ
164800002164800566-001234     164800006003000217793STICKERS LASER ASSTD   0000003000+00001578+00000+0001T   00001578+0000001548          1400 GR5130               2AZ
164801000164801               164801               170213J2     1400+00000+J20000002192+0000002192+000000000+000000307+0000002490+0000000009+I20000000000+0000002490+Z
164801001164801002-000684     164801006001023693778K/TOOL TURNER H/HOUSE  0000001000+00002192+00000+0001T   00002192+0000001603          1400 GR5300               2AZ
164802000164802               164802               170213J2     1400+00000+J20000003504+0000003504+000000000+000000491+0000003995+0000000000+I40000003995+0000000000+Z
164802001164802077-000151     164802006008766114676GIFT-WRAP C/PHANE ASSTD0000001000+00000876+00000+0001T   00000876+0000001608          1400 GR5112               2AZ
164802002164802903-000844     164802005010478432567SWT CANDY DL LUV HEARTS0000002000+00001314+00000+0001T   00001314+0000001608          1400 GR5150               2AZ
164803000164803               164803               170213J2     1400+00000+J20000012310+0000012310+000000000+000001725+0000014035+0000000000+I40000014035+0000000000+Z
164803001164803369-000200     164803006001023856982BABY EDU CUP STACKING  0000001000+00002630+00000+0001T   00002630+0000001618          1400 GR5745               2AZ
164803002164803369-001032     164803006001023796158BABY RATTLE SET 6PCE   0000001000+00004385+00000+0001T   00004385+0000001618          1400 GR5745               2AZ
164803003164803560-000102     164803006001023746979ANIMALS FARM IN-TUBE   0000001000+00003507+00000+0001T   00003507+0000001618          1400 GR5745               2AZ
164803004164803361-000114     164803006001023744074DOLL SML 15cm BENDABLE 0000001000+00001753+00000+0001T   00001753+0000001618          1400 GR5725               2AZ
164803005164803112-116038     164803006009681820246TCS CARRIER BAG MIDI   0000001000+00000035+00000+0001T   00000035+0000001618          1400 GR5090               2AZ
164804000164804               164804               170213J2     1400+00000+J20000002192+0000002192+000000000+000000307+0000002490+0000000009+I20000000000+0000002490+Z
164804001164804200-000020     164804006925406841030BAG ZIPPERSEAL 25PC    0000001000+00002192+00000+0001T   00002192+0000001619          1400 GR5214               2AZ
164805000164805               164805               170213J2     1400+00000+J20000000048+0000000048+000000000+000000007+0000000050+0000000005+I20000000000+0000000050+Z
164805001164805112-116069     164805006009681820277TCS CARRIER BAG JUMBO  0000001000+00000048+00000+0001T   00000048+0000001620          1400 GR5090               2AZ
164806000164806               164806               170213J2     1400+00000+J20000001402+0000001402+000000000+000000197+0000001590+0000000009+I20000000000+0000001590+Z
164806001164806304-001204     164806006001023737984FLOWER OCC. TEDDY/ROSES0000001000+00001402+00000+0001T   00001490+0006471622          1400 GR5510               2AZ
164807000164807               164807               170213J2     1400+00000+J20000003506+0000003506+000000000+000000492+0000003998+0000000000+I40000003998+0000000000+Z
164807001164807046-002032-PK2 164807004897006175063BATTERIES CR-2032  2PCE0000002000+00001753+00000+0001T   00001753+0000001626          1400 GR5312               2AZ
164808000164808               164808               170213J2     1400+00000+J20000001578+0000001578+000000000+000000221+0000001790+0000000009+I20000000000+0000001790+Z
164808001164808080-000124     164808006003000297733CARD & ENV VALENTINES  0000001000+00001578+00000+0001T   00001578+0000001629          1400 GR5112               2AZ
164809000164809               164809               170213J2     1400+00000+J20000008818+0000008818+000000000+000001235+0000010050+0000000003+I20000000000+0000010050+Z
164809001164809051-600636     164809006003000400324PLANTER WALL MOUNT PL  0000002000+00004385+00000+0001T   00004385+0000001630          1400 GR5820               2AZ
164809002164809112-116069     164809006009681820277TCS CARRIER BAG JUMBO  0000001000+00000048+00000+0001T   00000048+0000001630          1400 GR5090               2AZ
164810000164810               164810               170213J2     1400+00000+J20000001753+0000001753+000000000+000000246+0000001990+0000000009+I20000000000+0000001990+Z
164810001164810077-000316     164810006001023609731GIFT-BAG 25X32CM MATT  0000001000+00001753+00000+0001T   00001753+0000001635          1400 GR5112               2AZ
164811000164811               164811               170213J2     1400+00000+J20000004385+0000004385+000000000+000000614+0000004990+0000000009+I20000000000+0000004990+Z
164811001164811368-000001     164811006003000097982Plush Bear 25cm        0000001000+00004385+00000+0001T   00004385+0000001640          1400 GR5745               2AZ
164812000164812               164812               170213J2     1400+00000+J20000012701+0000012701+000000000+000001781+0000014480+0000000002+I20000000000+0000014480+Z
164812001164812001-000175     164812006001023788108B/MUG GLS LOVE 380ML   0000001000+00004385+00000+0001T   00004385+0000001642          1400 GR5515               2AZ
164812002164812903-000219     164812006925925911450SWT ERKO MALLOW CHOC   0000001000+00001753+00000+0001T   00001753+0000001642          1400 GR5150               2AZ
164812003164812903-000087     164812006001704000161SWT SPECKLED-EGGS 50G  0000001000+00001139+00000+0001T   00001139+0000001642          1400 GR5150               2AZ
164812004164812089-060027     164812006003000245871KEY-CHAIN HEART 6X6cm  0000001000+00003069+00000+0001T   00003069+0000001642          1400 GR5205               2AZ
164812005164812903-000183     164812006003000451043SWT LB HEART LOLLY     0000001000+00000393+00000+0001T   00000393+0000001642          1400 GR5150               2AZ
164812006164812112-116038     164812006009681820246TCS CARRIER BAG MIDI   0000001000+00000035+00000+0001T   00000035+0000001642          1400 GR5090               2AZ
164812007164812077-000310     164812006001023608635GIFT-BAG 18X23CM GLOSS 0000001000+00001314+00000+0001T   00001314+0000001642          1400 GR5112               2AZ
164812008164812077-000321     164812006001023677501GIFT-BAG 11X14CM E/D FL0000001000+00000613+00000+0001T   00000613+0000001642          1400 GR5112               2AZ
164813000164813               164813               170213J2     1400+00000+J20000001314+0000001314+000000000+000000184+0000001490+0000000008+I20000000000+0000001490+Z
164813001164813903-000844     164813005010478432567SWT CANDY DL LUV HEARTS0000001000+00001314+00000+0001T   00001314+0000001645          1400 GR5150               2AZ
164814000164814               164814               170213J2     1400+00000+J20000002192+0000002192+000000000+000000307+0000002499+0000000000+I40000002499+0000000000+Z
164814001164814566-000068     164814006003000418046POP UP LOVE 2 ASSTD    0000001000+00002192+00000+0001T   00002192+0000001647          1400 GR5130               2AZ
164815000164815               164815               170213J2     1400+00000+J20000009646+0000009646+000000000+000001352+0000010998+0000000000+I40000010998+0000000000+Z
164815001164815301-085001     164815006003000297610ORN WATERBALL LOVE ASST0000002000+00004823+00000+0001T   00004823+0000001648          1400 GR5505               2AZ
164816000164816               164816               170213J2     1400+00000+J20000001578+0000001578+000000000+000000221+0000001790+0000000009+I20000000000+0000001790+Z
164816001164816018-000127     164816006001023380289MUG OCC STRAIGHT LOVE  0000001000+00001578+00000+0001T   00001753+0006471649          1400 GR5515               2AZ
164817000164817               164817               170213J2     1400+00000+J20000001753+0000001753+000000000+000000246+0000001990+0000000009+I20000000000+0000001990+Z
164817001164817007-000192     164817006009635830062BOOK H/COVER A4 192PAGE0000001000+00001753+00000+0001T   00001753+0000001653          1400 GR5130               2AZ
164818000164818               164818               170213J2     1400+00000+J20000010130+0000010130+000000000+000001420+0000011550+0000000000+I40000011550+0000000000+Z
164818001164818051-600601     164818006003000266357GARDENING KNEE PAD ASST0000001000+00003507+00000+0001T   00003507+0000001656          1400 GR5820               2AZ
164818002164818072-020314     164818006003000605453PET TOY PUP VINYL CHICK0000001000+00003069+00000+0001T   00003069+0000001656          1400 GR5870               2AZ
164818003164818162-091746     164818006001492917467#TAG ANIMAL ALICEBAND  0000001000+00001753+00000+0001T   00002630+0008161656          1400 GR5160               2AZ
164818004164818162-093136     164818006001492931364#TAG FILIGREE SILV DROP0000001000+00001753+00000+0001T   00003507+0008161656          1400 GR5160               2AZ
164818005164818112-116069     164818006009681820277TCS CARRIER BAG JUMBO  0000001000+00000048+00000+0001T   00000048+0000001656          1400 GR5090               2AZ
164819000164819               164819               170213J2     1400+00000+J20000007893+0000007893+000000000+000001106+0000008999+0000000000+I40000008999+0000000000+Z
164819001164819082-000125     164819006003000646395READING GLASS TWIN 2   0000001000+00007893+00000+0001T   00007893+0000001700          1400 GR5160               2AZ
164820000164820               164820               170213J2     1400+00000+J20000006137+0000006137+000000000+000000860+0000006997+0000000000+I40000006997+0000000000+Z
164820001164820369-000200     164820006001023856982BABY EDU CUP STACKING  0000001000+00002630+00000+0001T   00002630+0000001702          1400 GR5745               2AZ
164820002164820562-000520     164820006003000112777EDU BLOCKS WDN ALPHABET0000001000+00003507+00000+0001T   00003507+0000001702          1400 GR5755               2AZ
164821000164821               164821               170213J2     1400+00000+J20000012741+0000012741+000000000+000001790+0000014531+0000000000+I40000014531+0000000000+Z
164821001164821301-085002     164821006003000420704ORN OCC. LOVE BELL ASST0000001000+00001753+00000+0001T   00002630+0008121713          1400 GR5505               2AZ
164821002164821089-060027     164821006003000245871KEY-CHAIN HEART 6X6cm  0000002000+00003069+00000+0001T   00003069+0000001713          1400 GR5205               2AZ
164821003164821206-000220     164821006003000631704EGG TIMER COLOUR-CHANGE0000001000+00002630+00000+0001T   00002630+0000001713          1400 GR5321               2AZ
164821004164821080-000133     164821006003000535613CARD&ENV MINI ASTD DSGN0000002000+00000437+00000+0001T   00000437+0000001713          1400 GR5112               2AZ
164821005164821080-000133-A   164821006003000647019MINI VALENTINES CARD   0000003000+00000437+00000+0001T   00000437+0000001713          1400 GR5112               2AZ
164821006164821112-116038     164821006009681820246TCS CARRIER BAG MIDI   0000001000+00000035+00000+0001T   00000035+0000001713          1400 GR5090               2AZ
A17021300                                          16014253J2SLAVE 2                       GR52IC
C16481900                                          170213J2082-000110     16593524SLAVE 2     GR51IC0000000000+0000000000+0020000001000+
M17021302                              I.T         J2ATT I.T                                                                                         LAST SALE ON SLAVE 2 164821                                                                     THANKS J2
M17021391                              CASH        J2SLAVE 2                       Z-REPORT No.   642TOTAL (Sales - Refunds)           4027.08       CASH TO BE BANKED                 2145.90       DEBIT CARDS                          0.00       CREDIT CARDS                      1881.18       Z-READING                         4027.08       AIRTIME DEBIT CARD SALES             0.00       AIRTIME CARD SALES                   0.00       OVERS/UNDERS                         0.00       AIRTIME CASH SALES                   0.00       GIFT CARDS                           0.00       GIFT CARD CASH SALES                 0.00       T O T A L  CASH PAYOUTS              0.00                                                                                                                                                                                                                                                                                                                                                      Z
M17021392                              CASH        J2ABSENT                                                                                                                                                                                          ANNUAL LEAVE                                                                                                                                                                                    DAY OFF                                                                                                                                                                                         COMMENTS          Z READ NO 642                                   Z AMOUNT 4027                                   CASHIER PATRICIA                                                                                                                                                                                                                                                             Z
Y17021300                                          J200007000357874+000070
ZJ217021408233 SLAVE 2      SALES DATA                     NEXT INVOICE NO.  164822 0642
X J2 Slave 2 First invoice 164751 170213 Last invoice 164821 170213 Next invoice 164822 Total number of records 000000216 clbackup completed 08:23:13
