107458000107458               107458               170213J3     1400+00000+J30000001753+0000001753+000000000+000000246+0000001990+0000000009+I20000000000+0000001990+Z
107458001107458077-000316     107458006001023609731GIFT-BAG 25X32CM MATT  0000001000+00001753+00000+0001T   00001753+0000000902          1400 FV4112               1AZ
107459000107459               107459               170213J3     1400+00000+J30000002227+0000002227+000000000+000000312+0000002530+0000000009+I20000000000+0000002530+Z
107459001107459015-000110     107459006001023854889WHITEWARE MUG 350ML    0000001000+00002192+00000+0001T   00002192+0000000918          1400 FV4515               1AZ
107459002107459112-116038     107459006009681820246TCS CARRIER BAG MIDI   0000001000+00000035+00000+0001T   00000035+0000000918          1400 FV4090               1AZ
107460000107460               107460               170213J3     1400+00000+J30000001837+0000001837+000000000+000000258+0000002090+0000000005+I20000000000+0000002090+Z
107460001107460018-000177     107460006001023797513MUG MINI LOVE ASSTD    0000002000+00000700+00000+0001T   00000700+0000000922          1400 FV4515               1AZ
107460002107460080-000133-A   107460006003000647019MINI VALENTINES CARD   0000001000+00000437+00000+0001T   00000437+0000000922          1400 FV4112               1AZ
107461000107461               107461               170213J3     1400+00000+J30000005260+0000005260+000000000+000000738+0000005990+0000000008+I20000000000+0000005990+Z
107461001107461077-000456     107461006003000285549G/BAG METALLIC JMB EMB 0000002000+00002630+00000+0001T   00002630+0000000923          1400 FV4112               1AZ
107462000107462               107462               170213J3     1400+00000+J30000002102+0000002102+000000000+000000295+0000002390+0000000007+I20000000000+0000002390+Z
107462001107462083-000055     107462006003000003853LIGHTER ELCTRNC REFILBL0000002000+00000613+00000+0001T   00000613+0000001051          1400 FV4315               1AZ
107462002107462077-000011-L   107462006001023808585P/TISSUE BRIGHT 10SHEET0000001000+00000876+00000+0001T   00000876+0000001051          1400 FV4112               1AZ
107463000107463               107463               170213J3     1400+00000+J30000000439+0000000439+000000000+000000061+0000000500+0000000000+I20000000000+0000000500+Z
107463001107463206-000350     107463006003000633265EGG MOULD SUNRISE      0000001000-00002630+00000+0001T   00002630+0000001102          1400 FV43211IC            1 Z
107463002107463028-000272     107463006001023465283EGG-RINGS 2PCE      H&L0000001000+00003069+00000+0001T   00003069+0000001102          1400 FV4305               1AZ
107464000107464               107464               170213J3     1400+00000+J30000002665+0000002665+000000000+000000374+0000003030+0000000009+I20000000000+0000003030+Z
107464001107464403-000502-A   107464006003000467099M/BANK TIN 8x12.5cm    0000001000+00002630+00000+0001T   00002630+0000001111          1400 FV4510               1AZ
107464002107464112-116038     107464006009681820246TCS CARRIER BAG MIDI   0000001000+00000035+00000+0001T   00000035+0000001111          1400 FV4090               1AZ
107465000107465               107465               170213J3     1400+00000+J30000004420+0000004420+000000000+000000619+0000005030+0000000009+I20000000000+0000005030+Z
107465001107465082-000110     107465006003000360482READING GLS STRENGHT:2 0000001000+00004385+00000+0001T   00004385+0000001112          1400 FV4160               1AZ
107465002107465112-116038     107465006009681820246TCS CARRIER BAG MIDI   0000001000+00000035+00000+0001T   00000035+0000001112          1400 FV4090               1AZ
107466000107466               107466               170213J3     1400+00000+J30000004385+0000004385+000000000+000000614+0000004990+0000000009+I20000000000+0000004990+Z
107466001107466082-000110     107466006003000360482READING GLS STRENGHT:2 0000001000+00004385+00000+0001T   00004385+0000001113          1400 FV4160               1AZ
107467000107467               107467               170213J3     1400+00000+J30000011622+0000011622+000000000+000001628+0000013250+0000000000+I40000013250+0000000000+Z
107467001107467564-000001     107467006003000140589BUBBLE B/O GUN PL      0000001000+00004385+00000+0001T   00004385+0000001123          1400 FV4131               1AZ
107467002107467562-000020     107467006001023800336EDU PLAY DOUGH 60g 4PC 0000001000+00003507+00000+0001T   00003507+0000001123          1400 FV4755               1AZ
107467003107467071-005214     107467006003000152544CELLOTAPE SUPER REFILL 0000001000+00001490+00000+0001T   00001490+0000001123          1400 FV4130               1AZ
107467004107467077-000922     107467006003000413935G/WRAP 700mmx2m FLOWER 0000001000+00002192+00000+0001T   00002192+0000001123          1400 FV4112               1AZ
107467005107467112-116069     107467006009681820277TCS CARRIER BAG JUMBO  0000001000+00000048+00000+0001T   00000048+0000001123          1400 FV4090               1AZ
107468000107468               107468               170213J3     1400+00000+J30000000876+0000000876+000000000+000000123+0000000990+0000000009+I20000000000+0000000990+Z
107468001107468082-026204     107468006001023816443R/GLASSES STRINGS 2PCE 0000001000+00000876+00000+0001T   00000876+0000001123          1400 FV4160               1AZ
107469000107469               107469               170213J3     1400+00000+J30000010205+0000010205+000000000+000001430+0000011630+0000000005+I20000000000+0000011630+Z
107469001107469071-003009     107469006001024011373PEN CLICK BALL+SFT GRIP0000001000+00002630+00000+0001T   00002630+0000001133          1400 FV4130               1AZ
107469002107469567-004976     107469009780636049024TYB G02 MATHS          0000001000+00002192+00000+0001T   00002192+0000001133          1400 FV4757               1AZ
107469003107469567-004961     107469009780636049017TYB G01 MATHS          0000001000+00002192+00000+0001T   00002192+0000001133          1400 FV4757               1AZ
107469004107469018-000127     107469006001023380289MUG OCC STRAIGHT LOVE  0000002000+00001578+00000+0001T   00001753+0006471133          1400 FV4515               1AZ
107469005107469112-116038     107469006009681820246TCS CARRIER BAG MIDI   0000001000+00000035+00000+0001T   00000035+0000001133          1400 FV4090               1AZ
107470000107470               107470               170213J3     1400+00000+J30000002628+0000002628+000000000+000000369+0000002997+0000000000+I40000002997+0000000000+Z
107470001107470077-000314     107470006003000181148GIFT-BAG 11X14CM MATT  0000003000+00000876+00000+0001T   00000876+0000001200          1400 FV4112               1AZ
107471000107471               107471               170213J3     1400+00000+J30000002630+0000002630+000000000+000000369+0000002999+0000000000+I40000002999+0000000000+Z
107471001107471028-000899     107471006001023509932BBQ-GRILL-CLEANER LONG 0000001000+00002630+00000+0001T   00002630+0000001201          1400 FV4305               1AZ
107472000107472               107472               170213J3     1400+00000+J30000001753+0000001753+000000000+000000246+0000001990+0000000009+I20000000000+0000001990+Z
107472001107472007-000192     107472006009635830062BOOK H/COVER A4 192PAGE0000001000+00001753+00000+0001T   00001753+0000001201          1400 FV4130               1AZ
107473000107473               107473               170213J3     1400+00000+J30000002454+0000002454+000000000+000000344+0000002790+0000000008+I20000000000+0000002790+Z
107473001107473251-000040     107473006001023515865SEALTAPE CLEAR 48mmx50m0000002000+00001227+00000+0001T   00001227+0000001202          1400 FV4810               1AZ
107474000107474               107474               170213J3     1400+00000+J30000009690+0000009690+000000000+000001359+0000011040+0000000009+I20000000000+0000011040+Z
107474001107474077-000151     107474006008766114676GIFT-WRAP C/PHANE ASSTD0000001000+00000876+00000+0001T   00000876+0000001220          1400 FV4112               1AZ
107474002107474368-000049     107474006003000536955PLUSH BEAR 15cm LOVE   0000001000+00004385+00000+0001T   00004385+0000001220          1400 FV4745               1AZ
107474003107474018-000136     107474006001023659026MUG OCC LOVE W/PLUSH   0000001000+00003507+00000+0001T   00003507+0000001220          1400 FV4515               1AZ
107474004107474080-000133-A   107474006003000647019MINI VALENTINES CARD   0000001000+00000437+00000+0001T   00000437+0000001220          1400 FV4112               1AZ
107474005107474112-116069     107474006009681820277TCS CARRIER BAG JUMBO  0000001000+00000048+00000+0001T   00000048+0000001220          1400 FV4090               1AZ
107474006107474080-000133-A   107474006003000647019MINI VALENTINES CARD   0000001000+00000437+00000+0001T   00000437+0000001220          1400 FV4112               1AZ
107475000107475               107475               170213J3     1400+00000+J30000009869+0000009869+000000000+000001383+0000011252+0000000000+I40000011252+0000000000+Z
107475001107475368-000614     107475006001023705808PLUSH LOVE 30cm        0000001000+00008771+00000+0001T   00008771+0000001229          1400 FV4745               1AZ
107475002107475080-000133-A   107475006003000647019MINI VALENTINES CARD   0000001000+00000437+00000+0001T   00000437+0000001229          1400 FV4112               1AZ
107475003107475304-001011     107475006001023806727FLWR ROSE RED W/BEAR   0000001000+00000613+00000+0001T   00000788+0006471229          1400 FV4510               1AZ
107475004107475112-116069     107475006009681820277TCS CARRIER BAG JUMBO  0000001000+00000048+00000+0001T   00000048+0000001229          1400 FV4090               1AZ
107476000107476               107476               170213J3     1400+00000+J30000001227+0000001227+000000000+000000172+0000001390+0000000009+I20000000000+0000001390+Z
107476001107476077-000245     107476006001023759214GIFT-RIBBON METALLICx2 0000001000+00001227+00000+0001T   00001227+0000001230          1400 FV4112               1AZ
107477000107477               107477               170213J3     1400+00000+J30000001179+0000001179+000000000+000000168+0000001340+0000000007+I20000000000+0000001340+Z
107477001107477903-000183     107477006003000451043SWT LB HEART LOLLY     0000003000+00000393+00000+0001T   00000393+0000001334          1400 FV4150               1AZ
107478000107478               107478               170213J3     1400+00000+J30000001753+0000001753+000000000+000000246+0000001990+0000000009+I20000000000+0000001990+Z
107478001107478077-000316     107478006001023609731GIFT-BAG 25X32CM MATT  0000001000+00001753+00000+0001T   00001753+0000001335          1400 FV4112               1AZ
107479000107479               107479               170213J3     1400+00000+J30000006050+0000006050+000000000+000000848+0000006898+0000000000+I40000006898+0000000000+Z
107479001107479018-019000     107479006003000557288MUG OCC. LOVE JUMBO    0000001000+00005262+00000+0001T   00005262+0000001337          1400 FV4515               1AZ
107479002107479077-000010-C   107479006001023123879CREPE-PAPER RED        0000001000+00000788+00000+0001T   00000788+0000001337          1400 FV4112               1AZ
107480000107480               107480               170213J3     1400+00000+J30000001490+0000001490+000000000+000000209+0000001690+0000000009+I20000000000+0000001690+Z
107480001107480002-000878     107480006001023770967STRAINER TEA WIRE 7cm  0000001000+00001490+00000+0001T   00001490+0000001340          1400 FV4300               1AZ
107481000107481               107481               170213J3     1400+00000+J30000002630+0000002630+000000000+000000369+0000002990+0000000009+I20000000000+0000002990+Z
107481001107481089-000100     107481006003000565665K/CHAIN PET LOVERS     0000001000+00002630+00000+0001T   00002630+0000001350          1400 FV4205               1AZ
107482000107482               107482               170213J3     1400+00000+J30000007927+0000007927+000000000+000001111+0000009030+0000000008+I20000000000+0000009030+Z
107482001107482018-050000     107482006003000412679MUG OCC LOVE TWIN BEAR 0000001000+00006139+00000+0001T   00006139+0000001352          1400 FV4515               1AZ
107482002107482077-000316     107482006001023609731GIFT-BAG 25X32CM MATT  0000001000+00001753+00000+0001T   00001753+0000001352          1400 FV4112               1AZ
107482003107482112-116038     107482006009681820246TCS CARRIER BAG MIDI   0000001000+00000035+00000+0001T   00000035+0000001352          1400 FV4090               1AZ
107483000107483               107483               170213J3     1400+00000+J30000013012+0000013012+000000000+000001823+0000014830+0000000005+I20000000000+0000014830+Z
107483001107483112-116038     107483006009681820246TCS CARRIER BAG MIDI   0000001000+00000035+00000+0001T   00000035+0000001353          1400 FV4090               1AZ
107483002107483079-000334     107483006003000670437THERAPY P/CRAYONS 18   0000001000+00005262+00000+0001T   00005262+0000001353          1400 FV4130               1AZ
107483003107483079-000013     107483006001023463890P/CRAYONS 24COL 18cm   0000001000+00003507+00000+0001T   00003507+0000001353          1400 FV4130               1AZ
107483004107483567-011306     107483006003000598434BOOK ACTIVITY TRACE    0000001000+00003069+00000+0001T   00003069+0000001353          1400 FV4757               1AZ
107483005107483903-000087     107483006001704000161SWT SPECKLED-EGGS 50G  0000001000+00001139+00000+0001T   00001139+0000001353          1400 FV4150               1AZ
107484000107484               107484               170213J3     1400+00000+J30000001313+0000001313+000000000+000000184+0000001490+0000000007+I20000000000+0000001490+Z
107484001107484077-000321     107484006001023677501GIFT-BAG 11X14CM E/D FL0000001000+00000613+00000+0001T   00000613+0000001358          1400 FV4112               1AZ
107484002107484018-000177     107484006001023797513MUG MINI LOVE ASSTD    0000001000+00000700+00000+0001T   00000700+0000001358          1400 FV4515               1AZ
107485000107485               107485               170213J3     1400+00000+J30000005734+0000005734+000000000+000000803+0000006537+0000000000+I40000006537+0000000000+Z
107485001107485079-013102     107485006003000019601ART+CRAFT DIY PIPE-CLNR0000001000+00002192+00000+0001T   00002192+0000001402          1400 FV4130               1AZ
107485002107485007-000324     10748500600968585864125 SHEETS BRIGHTS MARLI0000001000+00003507+00000+0001T   00003507+0000001402          1400 FV4130               1AZ
107485003107485112-116038     107485006009681820246TCS CARRIER BAG MIDI   0000001000+00000035+00000+0001T   00000035+0000001402          1400 FV4090               1AZ
107486000107486               107486               170213J3     1400+00000+J30000026797+0000026797+000000000+000003754+0000030551+0000000000+I40000030551+0000000000+Z
107486001107486112-116069     107486006009681820277TCS CARRIER BAG JUMBO  0000001000+00000048+00000+0001T   00000048+0000001406          1400 FV4090               1AZ
107486002107486368-000637     107486006001023874092PLUSH BEAR SLEEPING LOV0000001000+00011402+00000+0001T   00012279+0006471406          1400 FV4745               1AZ
107486003107486018-005007     107486006003000515516MUG OCC. LOVE W/HEARTS 0000001000+00006139+00000+0001T   00006139+0000001406          1400 FV4515               1AZ
107486004107486018-050000     107486006003000412679MUG OCC LOVE TWIN BEAR 0000001000+00006139+00000+0001T   00006139+0000001406          1400 FV4515               1AZ
107486005107486089-060027     107486006003000245871KEY-CHAIN HEART 6X6cm  0000001000+00003069+00000+0001T   00003069+0000001406          1400 FV4205               1AZ
107487000107487               107487               170213J3     1400+00000+J30000004385+0000004385+000000000+000000614+0000004990+0000000009+I20000000000+0000004990+Z
107487001107487082-000110     107487006003000360482READING GLS STRENGHT:2 0000001000+00004385+00000+0001T   00004385+0000001414          1400 FV4160               1AZ
107488000107488               107488               170213J3     1400+00000+J30000001139+0000001139+000000000+000000160+0000001290+0000000009+I20000000000+0000001290+Z
107488001107488002-000801     107488006003000555994PEELER PL/MTL Y-SHAPE  0000001000+00001139+00000+0001T   00001139+0000001415          1400 FV4300               1AZ
107489000107489               107489               170213J3     1400+00000+J30000004384+0000004384+000000000+000000614+0000004990+0000000008+I20000000000+0000004990+Z
107489001107489080-000127     107489006003000424351VALENTINES DAY 36x24CM 0000002000+00002192+00000+0001T   00002192+0000001417          1400 FV4112               1AZ
107490000107490               107490               170213J3     1400+00000+J30000001753+0000001753+000000000+000000246+0000001990+0000000009+I20000000000+0000001990+Z
107490001107490077-000309     107490006001023608604GIFT-BAG 25X32CM GLOSS 0000001000+00001753+00000+0001T   00001753+0000001419          1400 FV4112               1AZ
107491000107491               107491               170213J3     1400+00000+J30000008806+0000008806+000000000+000001233+0000010039+0000000000+I40000010039+0000000000+Z
107491001107491001-091415     107491006003000329113W/GLS OCC. LOVE 2PC 2800000001000+00008771+00000+0001T   00009648+0006471423          1400 FV4515               1AZ
107491002107491112-116038     107491006009681820246TCS CARRIER BAG MIDI   0000001000+00000035+00000+0001T   00000035+0000001423          1400 FV4090               1AZ
107492000107492               107492               170213J3     1400+00000+J30000000876+0000000876+000000000+000000123+0000000990+0000000009+I20000000000+0000000990+Z
107492001107492903-000221     107492006001704007382SWT EENY-MEENY-MOS 60G 0000001000+00000876+00000+0001T   00000876+0000001423          1400 FV4150               1AZ
107493000107493               107493               170213J3     1400+00000+J30000014068+0000014068+000000000+000001970+0000016038+0000000000+I40000016038+0000000000+Z
107493001107493019-000076     107493006001023757159V/GLASS 25CM C/DESIGN  0000001000+00008771+00000+0001T   00008771+0000001429          1400 FV4510               1AZ
107493002107493039-000500     107493006001023816450C/VOTIVE 8PC RAINBOW   0000001000+00005262+00000+0001T   00005262+0000001429          1400 FV4510               1AZ
107493003107493112-116038     107493006009681820246TCS CARRIER BAG MIDI   0000001000+00000035+00000+0001T   00000035+0000001429          1400 FV4090               1AZ
107494000107494               107494               170213J3     1400+00000+J30000002050+0000002050+000000000+000000288+0000002330+0000000008+I20000000000+0000002330+Z
107494001107494077-000245     107494006001023759214GIFT-RIBBON METALLICx2 0000001000+00001227+00000+0001T   00001227+0000001430          1400 FV4112               1AZ
107494002107494077-000010-C   107494006001023123879CREPE-PAPER RED        0000001000+00000788+00000+0001T   00000788+0000001430          1400 FV4112               1AZ
107494003107494112-116038     107494006009681820246TCS CARRIER BAG MIDI   0000001000+00000035+00000+0001T   00000035+0000001430          1400 FV4090               1AZ
107495000107495               107495               170213J3     1400+00000+J30000017567+0000017567+000000000+000002461+0000020020+0000000008+I20000000000+0000020020+Z
107495001107495018-019000     107495006003000557288MUG OCC. LOVE JUMBO    0000001000+00005262+00000+0001T   00005262+0000001431          1400 FV4515               1AZ
107495002107495492-055602     107495000078257556021SWIM-GOGGLES PLAY      0000001000+00002630+00000+0001T   00002630+0000001431          1400 FV4787               1AZ
107495003107495566-001234     107495006003000217793STICKERS LASER ASSTD   0000001000+00001578+00000+0001T   00001578+0000001431          1400 FV4130               1AZ
107495004107495018-000177     107495006001023797513MUG MINI LOVE ASSTD    0000004000+00000700+00000+0001T   00000700+0000001431          1400 FV4515               1AZ
107495005107495301-085003     107495006003000420827ORN OCCASION LOVE KEY  0000001000+00005262+00000+0001T   00005262+0000001431          1400 FV4505               1AZ
107495006107495112-116038     107495006009681820246TCS CARRIER BAG MIDI   0000001000+00000035+00000+0001T   00000035+0000001431          1400 FV4090               1AZ
107496000107496               107496               170213J3     1400+00000+J30000014518+0000014518+000000000+000002034+0000016552+0000000000+I40000016552+0000000000+Z
107496001107496106-009000     1074960060030006674062L DISPENSER+4-TUMBLERS0000001000+00007016+00000+0001T   00007016+0000001433          1400 FV4210               1AZ
107496002107496024-000003     107496006001023462206S/BURNER COVERS ASSTD  0000001000+00004385+00000+0001T   00004385+0000001433          1400 FV4300               1AZ
107496003107496206-000210     107496006003000631582TOOTHPICK HOLDER FLOWER0000001000+00003069+00000+0001T   00003069+0000001433          1400 FV4321               1AZ
107496004107496112-116069     107496006009681820277TCS CARRIER BAG JUMBO  0000001000+00000048+00000+0001T   00000048+0000001433          1400 FV4090               1AZ
107497000107497               107497               170213J3     1400+00000+J30000017530+0000017530+000000000+000002460+0000019990+0000000000+I40000019990+0000000000+Z
107497001107497366-002701     107497006001023903136DRESS UP HAWAII FLOWER 0000010000+00001753+00000+0001T   00001753+0000001434          1400 FV4131               1AZ
107498000107498               107498               170213J3     1400+00000+J30000003506+0000003506+000000000+000000492+0000003990+0000000008+I20000000000+0000003990+Z
107498001107498903-000123     107498006925925909280SWEET GS MINI MALLOWS  0000001000+00000876+00000+0001T   00000876+0000001434          1400 FV4150               1AZ
107498002107498018-000129     107498006001023403353MUG OCC. LOVE V-SHAPE  0000001000+00002630+00000+0001T   00002630+0000001434          1400 FV4515               1AZ
107499000107499               107499               170213J3     1400+00000+J30000006174+0000006174+000000000+000000865+0000007039+0000000000+I40000007039+0000000000+Z
107499001107499368-000175     107499006003000270316PLUSH BEAR 4 ASSTD 18CM0000001000+00006139+00000+0001T   00006139+0000001436          1400 FV4745               1AZ
107499002107499112-116038     107499006009681820246TCS CARRIER BAG MIDI   0000001000+00000035+00000+0001T   00000035+0000001436          1400 FV4090               1AZ
107500000107500               107500               170213J3     1400+00000+J30000001613+0000001613+000000000+000000226+0000001830+0000000009+I20000000000+0000001830+Z
107500001107500018-000127     107500006001023380289MUG OCC STRAIGHT LOVE  0000001000+00001578+00000+0001T   00001753+0006471437          1400 FV4515               1AZ
107500002107500112-116038     107500006009681820246TCS CARRIER BAG MIDI   0000001000+00000035+00000+0001T   00000035+0000001437          1400 FV4090               1AZ
107501000107501               107501               170213J3     1400+00000+J30000003542+0000003542+000000000+000000496+0000004030+0000000008+I20000000000+0000004030+Z
107501001107501018-005009     107501006001023725608MUG W/PLUSH-BEAR LOVE  0000001000+00003507+00000+0001T   00003507+0000001437          1400 FV4515               1AZ
107501002107501112-116038     107501006009681820246TCS CARRIER BAG MIDI   0000001000+00000035+00000+0001T   00000035+0000001437          1400 FV4090               1AZ
107502000107502               107502               170213J3     1400+00000+J30000004385+0000004385+000000000+000000614+0000004990+0000000009+I20000000000+0000004990+Z
107502001107502018-030000     107502006003000421060MUG OCCASIONS LOVE 2PCE0000001000+00004385+00000+0001T   00004385+0000001438          1400 FV4515               1AZ
107503000107503               107503               170213J3     1400+00000+J30000002630+0000002630+000000000+000000369+0000002990+0000000009+I20000000000+0000002990+Z
107503001107503072-020350     107503006001023598035PET DOG/CAT BOWL DOUBLE0000001000+00002630+00000+0001T   00002630+0000001442          1400 FV4870               1AZ
107504000107504               107504               170213J3     1400+00000+J30000032672+0000032672+000000000+000004576+0000037248+0000000000+I40000037248+0000000000+Z
107504001107504112-116069     107504006009681820277TCS CARRIER BAG JUMBO  0000001000+00000048+00000+0001T   00000048+0000001446          1400 FV4090               1AZ
107504002107504001-091415     107504006003000329113W/GLS OCC. LOVE 2PC 2800000001000+00008771+00000+0001T   00009648+0006471446          1400 FV4515               1AZ
107504003107504206-000430     107504006003000619627MUG COLOUR CHANGING    0000001000+00006139+00000+0001T   00006139+0000001446          1400 FV4321               1AZ
107504004107504206-000180     107504006003000631223TEA INFUSER TEAMAN     0000001000+00004385+00000+0001T   00004385+0000001446          1400 FV4321               1AZ
107504005107504368-000104     107504006001023751348PLUSH BEAR RUFFLED-LOOK0000001000+00006139+00000+0001T   00006139+0000001446          1400 FV4745               1AZ
107504006107504206-000630     107504006003000631919SPECTACLE CLEANING BRUS0000001000+00001227+00000+0001T   00001227+0000001446          1400 FV4321               1AZ
107504007107504206-000460     107504006003000619986BOOKMARK ZIPPER        0000001000+00004385+00000+0001T   00004385+0000001446          1400 FV4321               1AZ
107504008107504077-000323     107504006001023677563G/BAG 25X32CM E/DAY FLO0000001000+00001578+00000+0001T   00001578+0000001446          1400 FV4112               1AZ
107505000107505               107505               170213J3     1400+00000+J30000011834+0000011834+000000000+000001658+0000013492+0000000000+I40000013492+0000000000+Z
107505001107505368-000049     107505006003000536955PLUSH BEAR 15cm LOVE   0000001000+00004385+00000+0001T   00004385+0000001618          1400 FV4745               1AZ
107505002107505903-005007     107505006002580020311SWT MALLOW BEAR M/SHAKE0000001000+00001314+00000+0001T   00001314+0000001618          1400 FV4150               1AZ
107505003107505903-000123     107505006925925909280SWEET GS MINI MALLOWS  0000001000+00000876+00000+0001T   00000876+0000001618          1400 FV4150               1AZ
107505004107505077-000303     107505006001023593757GIFT-BAG PAPER MED     0000002000+00001578+00000+0001T   00001578+0000001618          1400 FV4112               1AZ
107505005107505077-000304     107505006001023483232GIFT-BAG 25X32CM E/DAY 0000001000+00001490+00000+0001T   00001490+0000001618          1400 FV4112               1AZ
107505006107505304-001011     107505006001023806727FLWR ROSE RED W/BEAR   0000001000+00000613+00000+0001T   00000788+0006471618          1400 FV4510               1AZ
107506000107506               107506               170213J3     1400+00000+J30000000437+0000000437+000000000+000000062+0000000490+0000000009+I20000000000+0000000490+Z
107506001107506080-000133-A   107506006003000647019MINI VALENTINES CARD   0000001000+00000437+00000+0001T   00000437+0000001619          1400 FV4112               1AZ
107507000107507               107507               170213J3     1400+00000+J30000000700+0000000700+000000000+000000098+0000000790+0000000008+I20000000000+0000000790+Z
107507001107507565-000256     107507006003000609826NOVELTY GLOW SLIME     0000001000+00000700+00000+0001T   00000700+0000001620          1400 FV4745               1AZ
107508000107508               107508               170213J3     1400+00000+J30000004381+0000004381+000000000+000000615+0000004996+0000000000+I40000004996+0000000000+Z
107508001107508006-000800     107508006001023902801HAT CABARET 14x18cm    0000001000+00001753+00000+0001T   00001753+0000001623          1400 FV4131               1AZ
107508002107508566-000200     107508006003000384174STICKER PUFFY NEON     0000001000+00000876+00000+0001T   00000876+0000001623          1400 FV4130               1AZ
107508003107508903-000861     107508005010478430822SWT LOVE HEARTS SML    0000002000+00000876+00000+0001T   00000876+0000001623          1400 FV4150               1AZ
107509000107509               107509               170213J3     1400+00000+J30000001578+0000001578+000000000+000000221+0000001790+0000000009+I20000000000+0000001790+Z
107509001107509251-000031     107509006001023515827MASKING-TAPE 24mmx40m  0000001000+00001578+00000+0001T   00001578+0000001624          1400 FV4810               1AZ
107510000107510               107510               170213J3     1400+00000+J30000003331+0000003331+000000000+000000467+0000003790+0000000008+I20000000000+0000003790+Z
107510001107510018-000127     107510006001023380289MUG OCC STRAIGHT LOVE  0000001000+00001578+00000+0001T   00001753+0006471625          1400 FV4515               1AZ
107510002107510006-000120     107510006001023346889BALLOONS 10PC MIX COL  0000001000+00001753+00000+0001T   00001753+0000001625          1400 FV4131               1AZ
107511000107511               107511               170213J3     1400+00000+J30000001753+0000001753+000000000+000000246+0000001999+0000000000+I40000001999+0000000000+Z
107511001107511079-013099     107511006003000081875ART+CRAFT EYES ASSTD   0000001000+00001753+00000+0001T   00001753+0000001626          1400 FV4130               1AZ
107512000107512               107512               170213J3     1400+00000+J30000001576+0000001576+000000000+000000222+0000001790+0000000008+I20000000000+0000001790+Z
107512001107512903-000200     107512006009826020234SWT CHOC RP CHOCO 23G  0000002000+00000788+00000+0001T   00000788+0000001633          1400 FV4150               1AZ
107513000107513               107513               170213J3     1400+00000+J30000004385+0000004385+000000000+000000614+0000004999+0000000000+I40000004999+0000000000+Z
107513001107513368-000049     107513006003000536955PLUSH BEAR 15cm LOVE   0000001000+00004385+00000+0001T   00004385+0000001634          1400 FV4745               1AZ
107514000107514               107514               170213J3     1400+00000+J30000001753+0000001753+000000000+000000246+0000001990+0000000009+I20000000000+0000001990+Z
107514001107514034-000318     107514006001023685834BABY-SOOTHER SILCON 2PC0000001000+00001753+00000+0001T   00001753+0000001637          1400 FV4215               1AZ
107515000107515               107515               170213J3     1400+00000+J30000010384+0000010384+000000000+000001454+0000011830+0000000008+I20000000000+0000011830+Z
107515001107515080-000124     107515006003000297733CARD & ENV VALENTINES  0000001000+00001578+00000+0001T   00001578+0000001653          1400 FV4112               1AZ
107515002107515001-091415     107515006003000329113W/GLS OCC. LOVE 2PC 2800000001000+00008771+00000+0001T   00009648+0006471653          1400 FV4515               1AZ
107515003107515112-116038     107515006009681820246TCS CARRIER BAG MIDI   0000001000+00000035+00000+0001T   00000035+0000001653          1400 FV4090               1AZ
107516000107516               107516               170213J3     1400+00000+J30000015786+0000015786+000000000+000002211+0000017997+0000000000+I40000017997+0000000000+Z
107516001107516077-000011-D   107516006001023808554TISSUE-WRAP WHITE 10PCE0000001000+00000876+00000+0001T   00000876+0000001731          1400 FV4112               1AZ
107516002107516031-001002     107516006003000253142P/FRAME COLLAGE 68X35CM0000001000+00013157+00000+0001T   00013157+0000001731          1400 FV4510               1AZ
107516003107516077-000457     107516006003000285662G/BAG METALLIC JMB SOL 0000001000+00001753+00000+0001T   00001753+0000001731          1400 FV4112               1AZ
107517000107517               107517               170213J3     1400+00000+J30000001490+0000001490+000000000+000000209+0000001690+0000000009+I20000000000+0000001690+Z
107517001107517016-006505     107517006001023617576S/JAR GLS MINI CLIP    0000001000+00001490+00000+0001T   00001490+0000001736          1400 FV4300               1AZ
107518000107518               107518               170213J3     1400+00000+J30000013625+0000013625+000000000+000001909+0000015530+0000000004+I20000000000+0000015530+Z
107518001107518027-008817     107518006003000666393DUSTER MICROFIBRE      0000001000+00003507+00000+0001T   00003507+0000001737          1400 FV4212               1AZ
107518002107518362-002464     107518006003000167388HAIR EXT 30cm 6PCS COL 0000001000+00001753+00000+0001T   00001753+0000001737          1400 FV4160               1AZ
107518003107518039-082103     107518006001023845788CANDLE FLOATING 6PC    0000001000+00004385+00000+0001T   00004385+0000001737          1400 FV4510               1AZ
107518004107518903-000123     107518006925925909280SWEET GS MINI MALLOWS  0000001000+00000876+00000+0001T   00000876+0000001737          1400 FV4150               1AZ
107518005107518079-000271     107518006003000160082PAINT-BRUSHES LRGE ART 0000001000+00003069+00000+0001T   00003069+0000001737          1400 FV4130               1AZ
107518006107518112-116038     107518006009681820246TCS CARRIER BAG MIDI   0000001000+00000035+00000+0001T   00000035+0000001737          1400 FV4090               1AZ
107519000107519               107519               170213J3     1400+00000+J30000000437+0000000437+000000000+000000062+0000000490+0000000009+I20000000000+0000000490+Z
107519001107519080-000133     107519006003000535613CARD&ENV MINI ASTD DSGN0000001000+00000437+00000+0001T   00000437+0000001740          1400 FV4112               1AZ
107520000107520               107520               170213J3     1400+00000+J30000001753+0000001753+000000000+000000246+0000001999+0000000000+I40000001999+0000000000+Z
107520001107520077-000115     107520006001023834225WRAP METALLIC 700mmx1m 0000001000+00001753+00000+0001T   00001753+0000001741          1400 FV4112               1AZ
107521000107521               107521               170213J3     1400+00000+J30000001753+0000001753+000000000+000000246+0000001999+0000000000+I40000001999+0000000000+Z
107521001107521046-002032-PK2 107521004897006175063BATTERIES CR-2032  2PCE0000001000+00001753+00000+0001T   00001753+0000001744          1400 FV4312               1AZ
107522000107522               107522               170213J3     1400+00000+J30000005280-0000005280-000000000+000000740-0000006020-0000000000+I20000000000+0000006020-Z
107522001107522001-999910     107522000000000999910POSTAGE                0000001000-00005280+00000+0001T   00000000+0000001747          1400 FV49101IC            1 Z
107523000107523               107523               170213J3     1400+00000+J30000008190-0000000000+000000000+000000000+0000008190-0000000000+I20000000000+0000008190-Z
107523001107523001-999913     107523000000000999913BUDGET - CAKE          0000001000-00008190+00000+0001X   00000000+0000001747          0000 FV49141IC            1 Z
107524000107524               107524               170213J3     1400+00000+J30000001314+0000001314+000000000+000000184+0000001490+0000000008+I20000000000+0000001490+Z
107524001107524566-000451     107524006001023788443STICKERS GLITTER ASSTD 0000001000+00001314+00000+0001T   00001753+0008151748          1400 FV4130               1AZ
107525000107525               107525               170213J3     1400+00000+J30000000874+0000000874+000000000+000000124+0000000990+0000000008+I20000000000+0000000990+Z
107525001107525080-000133-A   107525006003000647019MINI VALENTINES CARD   0000002000+00000437+00000+0001T   00000437+0000001750          1400 FV4112               1AZ
107526000107526               107526               170213J3     1400+00000+J30000007324+0000007324+000000000+000001028+0000008352+0000000000+I40000008352+0000000000+Z
107526001107526566-000367     107526006003000645558STICKER WINDOW DECOR   0000001000+00002630+00000+0001T   00002630+0000001752          1400 FV4130               1AZ
107526002107526565-000055     107526006003000028252NOVELTY B/O FINGR-BEAMS0000001000+00001753+00000+0001T   00001753+0000001752          1400 FV4745               1AZ
107526003107526048-000837     107526006003000373376TORCH RUBBER 3LED SML  0000001000+00002893+00000+0001T   00002893+0000001752          1400 FV4305               1AZ
107526004107526112-116069     107526006009681820277TCS CARRIER BAG JUMBO  0000001000+00000048+00000+0001T   00000048+0000001752          1400 FV4090               1AZ
107527000107527               107527               170213J3     1400+00000+J30000002454+0000002454+000000000+000000344+0000002790+0000000008+I20000000000+0000002790+Z
107527001107527251-000041     107527006001023515889SEAL-TAPE BUFF 48mmx50m0000001000+00001227+00000+0001T   00001227+0000001752          1400 FV4810               1AZ
107527002107527251-000040     107527006001023515865SEALTAPE CLEAR 48mmx50m0000001000+00001227+00000+0001T   00001227+0000001752          1400 FV4810               1AZ
107528000107528               107528               170213J3     1400+00000+J30000013552+0000013552+000000000+000001899+0000015451+0000000000+I40000015451+0000000000+Z
107528001107528079-000275     107528006003000160488PAINT-BRUSHES 6PCE PRO 0000001000+00001753+00000+0001T   00001753+0000001754          1400 FV4130               1AZ
107528002107528039-000322     107528006001023524157B/CANDLES W/HOLDERS 24 0000001000+00001139+00000+0001T   00001139+0000001754          1400 FV4510               1AZ
107528003107528024-000107     107528006001023422071MUFFIN-PAN 12-CUP      0000001000+00009648+00000+0001T   00009648+0000001754          1400 FV4300               1AZ
107528004107528112-116069     107528006009681820277TCS CARRIER BAG JUMBO  0000001000+00000048+00000+0001T   00000048+0000001754          1400 FV4090               1AZ
107528005107528903-004960     107528008410525221842SWT GUMMY STR/BERRY 50G0000001000+00000964+00000+0001T   00000964+0000001754          1400 FV4150               1AZ
107529000107529               107529               170213J3     1400+00000+J30000024556+0000024556+000000000+000003440+0000027990+0000000006+I20000000000+0000027990+Z
107529001107529030-000031-A   107529006003000457588PLAQUE W/WORDS ASSTD   0000001000+00004385+00000+0001T   00004823+0006471755          1400 FV4505               1AZ
107529002107529018-005007     107529006003000515516MUG OCC. LOVE W/HEARTS 0000001000+00006139+00000+0001T   00006139+0000001755          1400 FV4515               1AZ
107529003107529368-000637     107529006001023874092PLUSH BEAR SLEEPING LOV0000001000+00011402+00000+0001T   00012279+0006471755          1400 FV4745               1AZ
107529004107529077-000456     107529006003000285549G/BAG METALLIC JMB EMB 0000001000+00002630+00000+0001T   00002630+0000001755          1400 FV4112               1AZ
107530000107530               107530               170213J3     1400+00000+J30000020214+0000020214+000000000+000002832+0000023046+0000000000+I40000023046+0000000000+Z
107530001107530018-005009     107530006001023725608MUG W/PLUSH-BEAR LOVE  0000001000+00003507+00000+0001T   00003507+0000001757          1400 FV4515               1AZ
107530002107530001-091415     107530006003000329113W/GLS OCC. LOVE 2PC 2800000001000+00008771+00000+0001T   00009648+0006471757          1400 FV4515               1AZ
107530003107530301-085004     107530006003000420469ORN LOVE PLAQUE 21X10CM0000001000+00003507+00000+0001T   00003946+0006471757          1400 FV4505               1AZ
107530004107530080-000124     107530006003000297733CARD & ENV VALENTINES  0000001000+00001578+00000+0001T   00001578+0000001757          1400 FV4112               1AZ
107530005107530077-000302     107530008010410010195GIFT-BAG 18X23CM E/D   0000001000+00000876+00000+0001T   00000876+0000001757          1400 FV4112               1AZ
107530006107530077-000304     107530006001023483232GIFT-BAG 25X32CM E/DAY 0000001000+00001490+00000+0001T   00001490+0000001757          1400 FV4112               1AZ
107530007107530112-116069     107530006009681820277TCS CARRIER BAG JUMBO  0000001000+00000048+00000+0001T   00000048+0000001757          1400 FV4090               1AZ
107530008107530080-000133     107530006003000535613CARD&ENV MINI ASTD DSGN0000001000+00000437+00000+0001T   00000437+0000001757          1400 FV4112               1AZ
107531000107531               107531               170213J3     1400+00000+J30000012836+0000012836+000000000+000001799+0000014635+0000000000+I40000014635+0000000000+Z
107531001107531001-091415     107531006003000329113W/GLS OCC. LOVE 2PC 2800000001000+00008771+00000+0001T   00009648+0006471800          1400 FV4515               1AZ
107531002107531002-021040     107531006001023812216PARTY-PICKS 100PCE     0000002000+00000525+00000+0001T   00000525+0000001800          1400 FV4300               1AZ
107531003107531206-000630     107531006003000631919SPECTACLE CLEANING BRUS0000001000+00001227+00000+0001T   00001227+0000001800          1400 FV4321               1AZ
107531004107531077-000309     107531006001023608604GIFT-BAG 25X32CM GLOSS 0000001000+00001753+00000+0001T   00001753+0000001800          1400 FV4112               1AZ
107531005107531112-116038     107531006009681820246TCS CARRIER BAG MIDI   0000001000+00000035+00000+0001T   00000035+0000001800          1400 FV4090               1AZ
107532000107532               107532               170213J3     1400+00000+J30000001578+0000001578+000000000+000000221+0000001790+0000000009+I20000000000+0000001790+Z
107532001107532077-000303     107532006001023593757GIFT-BAG PAPER MED     0000001000+00001578+00000+0001T   00001578+0000001803          1400 FV4112               1AZ
A17021300                                          09170957J3SLAVE 1                       FV41IC
A17021301                                          13592366J3SLAVE 1                       FV43IC
M17021301                              IT          J3SLV 1 107532
M17021391                              CASH        J3SLAVE 1                       Z-REPORT No.   639TOTAL (Sales - Refunds)           5117.45       CASH TO BE BANKED                 2072.30       DEBIT CARDS                          0.00       CREDIT CARDS                      2903.55       Z-READING                         4975.35       AIRTIME DEBIT CARD SALES             0.00       AIRTIME CARD SALES                   0.00       OVERS/UNDERS                         0.50       AIRTIME CASH SALES                   0.00       GIFT CARDS                           0.00       GIFT CARD CASH SALES                 0.00       POSTAGE                             60.20       BUDGET - CAKE                       81.90       T O T A L  CASH PAYOUTS            142.10                                                                                                                                                                                                                                                      Z
M17021392                              CASH        J3ABSENT                                                                                                                                                                                          ANNUAL LEAVE                                                                                                                                                                                    DAY OFF                                                                                                                                                                                         COMMENTS          Z READ 5117.45                                                                                                                                                                                                                                                                                                                                                               Z
Y17021300                                          J300000000451813+000073
ZJ317021406043 SLAVE 1      SALES DATA                     NEXT INVOICE NO.  107533 0639
X J3 Slave 1 First invoice 107458 170213 Last invoice 107532 170213 Next invoice 107533 Total number of records 000000256 clbackup completed 06:04:22
