209377000209377               209377               170213J3     1400+00000+J30000000874+0000000874+000000000+000000124+0000000990+0000000008+I20000000000+0000000990+Z
209377001209377080-000133-A   209377006003000647019MINI VALENTINES CARD   0000002000+00000437+00000+0001T   00000437+0000000915          1400 TI5112               2AZ
209378000209378               209378               170213J3     1400+00000+J30000011402+0000011402+000000000+000001597+0000012990+0000000009+I20000000000+0000012990+Z
209378001209378497-059623     209378000078257596232OARS PL 121cm 3-SECTION0000001000+00011402+00000+0001T   00011402+0000000926          1400 TI5787               2AZ
209379000209379               209379               170213J3     1400+00000+J30000001613+0000001613+000000000+000000226+0000001839+0000000000+I40000001839+0000000000+Z
209379001209379018-000127     209379006001023380289MUG OCC STRAIGHT LOVE  0000001000+00001578+00000+0001T   00001753+0006470939          1400 TI5515               2AZ
209379002209379112-116038     209379006009681820246TCS CARRIER BAG MIDI   0000001000+00000035+00000+0001T   00000035+0000000939          1400 TI5090               2AZ
209380000209380               209380               170213J3     1400+00000+J30000001227+0000001227+000000000+000000172+0000001390+0000000009+I20000000000+0000001390+Z
209380001209380251-000040     209380006001023515865SEALTAPE CLEAR 48mmx50m0000001000+00001227+00000+0001T   00001227+0000000945          1400 TI5810               2AZ
209381000209381               209381               170213J3     1400+00000+J30000000876+0000000876+000000000+000000123+0000000990+0000000009+I20000000000+0000000990+Z
209381001209381033-005930     209381006001023678423PINS STRAIGHT 20g  CARD0000001000+00000876+00000+0001T   00000876+0000001011          1400 TI5200               2AZ
209382000209382               209382               170213J3     1400+00000+J30000004383+0000004383+000000000+000000615+0000004998+0000000000+I40000004998+0000000000+Z
209382001209382046-000011-A   209382006003000438891BATTERIES SIZE:AA  4PCE0000001000+00002630+00000+0001T   00002630+0000001015          1400 TI5312               2AZ
209382002209382046-002032-PK2 209382004897006175063BATTERIES CR-2032  2PCE0000001000+00001753+00000+0001T   00001753+0000001015          1400 TI5312               2AZ
209383000209383               209383               170213J3     1400+00000+J30000001227+0000001227+000000000+000000172+0000001399+0000000000+I40000001399+0000000000+Z
209383001209383077-000245     209383006001023759214GIFT-RIBBON METALLICx2 0000001000+00001227+00000+0001T   00001227+0000001028          1400 TI5112               2AZ
209384000209384               209384               170213J3     1400+00000+J30000002192+0000002192+000000000+000000307+0000002490+0000000009+I20000000000+0000002490+Z
209384001209384566-000359     209384006003000582709STICKER BOOK LOVE SPARK0000001000+00002192+00000+0001T   00002192+0000001035          1400 TI5130               2AZ
209385000209385               209385               170213J3     1400+00000+J30000008771+0000008771+000000000+000001228+0000009999+0000000000+I40000009999+0000000000+Z
209385001209385486-002307     209385006003000443086W/CLOCK QTZ PL ANTIQUE 0000001000+00008771+00000+0001T   00008771+0000001044          1400 TI5510               2AZ
209386000209386               209386               170213J3     1400+00000+J30000025032+0000025032+000000000+000003511+0000028543+0000000000+I40000028543+0000000000+Z
209386001209386082-000110     209386006003000360482READING GLS STRENGHT:2 0000001000+00004385+00000+0001T   00004385+0000001047          1400 TI5160               2AZ
209386002209386082-000105     209386006003000360369READING GLS STRNGHT:1.50000001000+00004385+00000+0001T   00004385+0000001047          1400 TI5160               2AZ
209386003209386200-003024     209386006001023657299REFUSE BAGS 20PCE BLACK0000002000+00001753+00000+0001T   00001753+0000001047          1400 TI5214               2AZ
209386004209386306-000024-A   209386006003000577309COTTON-WOOL-PADS 80PC  0000001000+00001753+00000+0001T   00001753+0000001047          1400 TI5200               2AZ
209386005209386072-000329     209386006001023904706PET CAT COLLAR LINING  0000001000+00002630+00000+0001T   00002630+0000001047          1400 TI5870               2AZ
209386006209386072-020308     209386006001023700971DOG-TOY FOOTBALL 11,5cm0000001000+00001753+00000+0001T   00001753+0000001047          1400 TI5870               2AZ
209386007209386159-080352     209386006916920733314HOOKS 3PCE             0000001000+00001490+00000+0001T   00001490+0000001047          1400 TI5200               2AZ
209386008209386140-006004     209386006001023628077FLY-SWATTER RUBBER     0000001000+00001139+00000+0001T   00001139+0000001047          1400 TI5830               2AZ
209386009209386036-000521     209386006003000338184HOOK-HANGER 8-HOOK     0000002000+00001753+00000+0001T   00001753+0000001047          1400 TI5212               2AZ
209386010209386112-116069     209386006009681820277TCS CARRIER BAG JUMBO  0000001000+00000048+00000+0001T   00000048+0000001047          1400 TI5090               2AZ
209386011209386080-000133     209386006003000535613CARD&ENV MINI ASTD DSGN0000001000+00000437+00000+0001T   00000437+0000001047          1400 TI5112               2AZ
209387000209387               209387               170213J3     1400+00000+J30000035555+0000035555+000000000+000004987+0000040540+0000000002+I20000000000+0000040540+Z
209387001209387112-116069     209387006009681820277TCS CARRIER BAG JUMBO  0000001000+00000048+00000+0001T   00000048+0000001054          1400 TI5090               2AZ
209387002209387150-000776     209387006001023839756UTILITY/TOOL-BOX PL    0000001000+00003507+00000+0001T   00003507+0000001054          1400 TI5810               2AZ
209387003209387200-000042     209387006001023868886BAG-SEALERS 10PCE      0000001000+00002630+00000+0001T   00002630+0000001054          1400 TI5214               2AZ
209387004209387002-021064     209387006001023822246TOOTHPICKS IN-HOLDER   0000001000+00001490+00000+0001T   00001490+0000001054          1400 TI5300               2AZ
209387005209387027-783000     209387006001023874641SCOURERS RAINBOW 5PCE  0000001000+00001753+00000+0001T   00001753+0000001054          1400 TI5212               2AZ
209387006209387036-000605     209387006001023158611WASHING-PEGS WDN PCK-240000001000+00001490+00000+0001T   00001490+0000001054          1400 TI5212               2AZ
209387007209387306-000993     209387006003000560110FIRSTAID PLASTER 75PC  0000001000+00002630+00000+0001T   00002630+0000001054          1400 TI5200               2AZ
209387008209387200-000080     209387005024418420439ICE-CUBE-MAKER 336PCE  0000002000+00001753+00000+0001T   00001753+0000001054          1400 TI5214               2AZ
209387009209387020-000141     209387006001023629524STEAK-KNIVES P.P.CARD-60000001000+00004385+00000+0001T   00004385+0000001054          1400 TI5300               2AZ
209387010209387084-009410     209387006001023477651SCISSORS 21cm PL-HANDLE0000001000+00002630+00000+0001T   00002630+0000001054          1400 TI5200               2AZ
209387011209387037-000004     209387006001023763679ASHTRAY PL TUB 8X11CM  0000002000+00001753+00000+0001T   00002192+0008191054          1400 TI5515               2AZ
209387012209387028-000400     209387006001023421661PLATE-HOLDERS 4PCE     0000001000+00001490+00000+0001T   00001490+0000001054          1400 TI5305               2AZ
209387013209387200-000092     209387006003000576739PICNIC PAPER PLATES 23c0000001000+00001227+00000+0001T   00001227+0000001054          1400 TI5214               2AZ
209387014209387024-000038     209387006001023477026MEASURING-JUG 1L (4CUP)0000001000+00001753+00000+0001T   00001753+0000001054          1400 TI5300               2AZ
209387015209387028-000899     209387006001023509932BBQ-GRILL-CLEANER LONG 0000001000+00002630+00000+0001T   00002630+0000001054          1400 TI5305               2AZ
209387016209387159-000150-B   209387006003000058440SOAP-BOX PL ASSORTED   0000001000+00000832+00000+0001T   00000832+0000001054          1400 TI5200               2AZ
209387017209387112-116069     209387006009681820277TCS CARRIER BAG JUMBO  0000001000+00000048+00000+0001T   00000048+0000001054          1400 TI5090               2AZ
209388000209388               209388               170213J3     1400+00000+J30000007050+0000007050+000000000+000000988+0000008030+0000000008+I20000000000+0000008030+Z
209388001209388304-001169     209388006003000523894FLOWER FLOATING 28CM   0000001000+00005262+00000+0001T   00005262+0000001157          1400 TI5510               2AZ
209388002209388104-000020     209388006916920023026BASKET 25x14x10cm      0000001000+00001753+00000+0001T   00001753+0000001157          1400 TI5210               2AZ
209388003209388112-116038     209388006009681820246TCS CARRIER BAG MIDI   0000001000+00000035+00000+0001T   00000035+0000001157          1400 TI5090               2AZ
209389000209389               209389               170213J3     1400+00000+J30000005734+0000005734+000000000+000000804+0000006538+0000000000+I40000006538+0000000000+Z
209389001209389018-019000     209389006003000557288MUG OCC. LOVE JUMBO    0000001000+00005262+00000+0001T   00005262+0000001214          1400 TI5515               2AZ
209389002209389112-116038     209389006009681820246TCS CARRIER BAG MIDI   0000001000+00000035+00000+0001T   00000035+0000001214          1400 TI5090               2AZ
209389003209389080-000133-A   209389006003000647019MINI VALENTINES CARD   0000001000+00000437+00000+0001T   00000437+0000001214          1400 TI5112               2AZ
209390000209390               209390               170213J3     1400+00000+J30000000876+0000000876+000000000+000000123+0000000990+0000000009+I20000000000+0000000990+Z
209390001209390089-000192-A   209390006001023901774KEY-CHAIN ACRYLIC      0000001000+00000876+00000+0001T   00000876+0000001218          1400 TI5205               2AZ
209391000209391               209391               170213J3     1400+00000+J30000002366+0000002366+000000000+000000332+0000002690+0000000008+I20000000000+0000002690+Z
209391001209391040-000208     209391006003000673599C/HOLDER GLS COL. 5.5CM0000001000+00000876+00000+0001T   00000876+0000001221          1400 TI5510               2AZ
209391002209391019-071611     209391006003000513642PEBBLES W/GEM 10g CLEAR0000001000+00001490+00000+0001T   00001490+0000001221          1400 TI5510               2AZ
209392000209392               209392               170213J3     1400+00000+J30000000867+0000000867+000000000+000000122+0000000980+0000000009+I20000000000+0000000980+Z
209392001209392159-000150-B   209392006003000058440SOAP-BOX PL ASSORTED   0000001000+00000832+00000+0001T   00000832+0000001245          1400 TI5200               2AZ
209392002209392112-116038     209392006009681820246TCS CARRIER BAG MIDI   0000001000+00000035+00000+0001T   00000035+0000001245          1400 TI5090               2AZ
209393000209393               209393               170213J3     1400+00000+J30000002630+0000002630+000000000+000000369+0000002990+0000000009+I20000000000+0000002990+Z
209393001209393206-000220     209393006003000631704EGG TIMER COLOUR-CHANGE0000001000+00002630+00000+0001T   00002630+0000001246          1400 TI5321               2AZ
209394000209394               209394               170213J3     1400+00000+J30000077221+0000077221+000000000+000010814+0000088035+0000000000+I40000088035+0000000000+Z
209394001209394112-116069     209394006009681820277TCS CARRIER BAG JUMBO  0000001000+00000048+00000+0001T   00000048+0000001251          1400 TI5090               2AZ
209394002209394072-020314     209394006003000605453PET TOY PUP VINYL CHICK0000001000+00003069+00000+0001T   00003069+0000001251          1400 TI5870               2AZ
209394003209394261-000121     209394006001023341600GUN-CAPS 8-SHOT CARD-9 0000003000+00000700+00000+0001T   00000700+0000001251          1400 TI5710               2AZ
209394004209394261-008552     209394006001023832580CAP-GUN           ASSTD0000001000+00007016+00000+0001T   00007016+0000001251          1400 TI5710               2AZ
209394005209394004-071206     209394006003000605156USB CABLE CHARGER      0000002000+00003507+00000+0001T   00003507+0000001251          1400 TI5310               2AZ
209394006209394004-079110     209394006003000624089USB POWER ADAPTOR 4PORT0000001000+00017542+00000+0001T   00017542+0000001251          1400 TI5310               2AZ
209394007209394040-001000     209394006003000552580C/HANDLE SET 5 CUPS    0000001000+00017542+00000+0001T   00017542+0000001251          1400 TI5510               2AZ
209394008209394301-001123     209394000694202803967ORN FOUNTAIN MEDITATION0000001000+00015788+00000+0001T   00015788+0000001251          1400 TI5505               2AZ
209394009209394046-002023-C   209394006001023698254BATTERIES ALKALN CARD-50000001000+00005700+00000+0001T   00005700+0000001251          1400 TI5312               2AZ
209394010209394046-000011     209394004897006172994BATTERIES SIZE:AA  2PCE0000001000+00001402+00000+0001T   00001402+0000001251          1400 TI5312               2AZ
209395000209395               209395               170213J3     1400+00000+J30000006139+0000006139+000000000+000000860+0000006990+0000000009+I20000000000+0000006990+Z
209395001209395567-075497     209395009780799369489BK NOVEL ROMANCE AFR   0000001000+00006139+00000+0001T   00006139+0000001253          1400 TI5757               2AZ
209396000209396               209396               170213J3     1400+00000+J30000003945+0000003945+000000000+000000553+0000004490+0000000008+I20000000000+0000004490+Z
209396001209396079-013099     209396006003000081875ART+CRAFT EYES ASSTD   0000001000+00001753+00000+0001T   00001753+0000001254          1400 TI5130               2AZ
209396002209396079-013102     209396006003000019601ART+CRAFT DIY PIPE-CLNR0000001000+00002192+00000+0001T   00002192+0000001254          1400 TI5130               2AZ
209397000209397               209397               170213J3     1400+00000+J30000007321+0000007321+000000000+000001028+0000008349+0000000000+I40000008349+0000000000+Z
209397001209397466-064834     209397006008766064834BALL W/SPIKES 20cm     0000001000+00001753+00000+0001T   00001753+0000001258          1400 TI5785               2AZ
209397002209397903-000211     209397006002099001238SWT GS MALLOW ICE CREAM0000001000+00001753+00000+0001T   00001753+0000001258          1400 TI5150               2AZ
209397003209397018-000127     209397006001023380289MUG OCC STRAIGHT LOVE  0000001000+00001578+00000+0001T   00001753+0006471258          1400 TI5515               2AZ
209397004209397077-000304     209397006001023483232GIFT-BAG 25X32CM E/DAY 0000001000+00001490+00000+0001T   00001490+0000001258          1400 TI5112               2AZ
209397005209397112-116069     209397006009681820277TCS CARRIER BAG JUMBO  0000001000+00000048+00000+0001T   00000048+0000001258          1400 TI5090               2AZ
209397006209397903-000099     209397006923431501646SWT CANDY GS WTCH B/LET0000001000+00000262+00000+0001T   00000262+0000001258          1400 TI5150               2AZ
209397007209397903-000094     209397006923431501622SWT GS CANDY NECKLACE  0000001000+00000437+00000+0001T   00000437+0000001258          1400 TI5150               2AZ
209398000209398               209398               170213J3     1400+00000+J30000002630+0000002630+000000000+000000369+0000002990+0000000009+I20000000000+0000002990+Z
209398001209398033-006003     209398006001023678584SEWING-KIT             0000001000+00002630+00000+0001T   00002630+0000001301          1400 TI5200               2AZ
209399000209399               209399               170213J3     1400+00000+J30000005248+0000005248+000000000+000000739+0000005980+0000000007+I20000000000+0000005980+Z
209399001209399903-000099     209399006923431501646SWT CANDY GS WTCH B/LET0000010000+00000262+00000+0001T   00000262+0000001304          1400 TI5150               2AZ
209399002209399566-000200     209399006003000384174STICKER PUFFY NEON     0000003000+00000876+00000+0001T   00000876+0000001304          1400 TI5130               2AZ
209400000209400               209400               170213J3     1400+00000+J30000002630+0000002630+000000000+000000369+0000002990+0000000009+I20000000000+0000002990+Z
209400001209400046-000011-A   209400006003000438891BATTERIES SIZE:AA  4PCE0000001000+00002630+00000+0001T   00002630+0000001305          1400 TI5312               2AZ
209401000209401               209401               170213J3     1400+00000+J30000002227+0000002227+000000000+000000312+0000002530+0000000009+I20000000000+0000002530+Z
209401001209401080-000127     209401006003000424351VALENTINES DAY 36x24CM 0000001000+00002192+00000+0001T   00002192+0000001306          1400 TI5112               2AZ
209401002209401112-116038     209401006009681820246TCS CARRIER BAG MIDI   0000001000+00000035+00000+0001T   00000035+0000001306          1400 TI5090               2AZ
209402000209402               209402               170213J3     1400+00000+J30000006692+0000006692+000000000+000000938+0000007630+0000000000+I40000007630+0000000000+Z
209402001209402301-085008     209402006003000673933ORN OCC.LOVE TINSEL HRT0000001000+00003069+00000+0001T   00003069+0000001310          1400 TI5505               2AZ
209402002209402077-000010-C   209402006001023123879CREPE-PAPER RED        0000001000+00000788+00000+0001T   00000788+0000001310          1400 TI5112               2AZ
209402003209402018-000177     209402006001023797513MUG MINI LOVE ASSTD    0000004000+00000700+00000+0001T   00000700+0000001310          1400 TI5515               2AZ
209402004209402112-116038     209402006009681820246TCS CARRIER BAG MIDI   0000001000+00000035+00000+0001T   00000035+0000001310          1400 TI5090               2AZ
209403000209403               209403               170213J3     1400+00000+J30000007892+0000007892+000000000+000001106+0000008998+0000000000+I40000008998+0000000000+Z
209403001209403018-050000     209403006003000412679MUG OCC LOVE TWIN BEAR 0000001000+00006139+00000+0001T   00006139+0000001312          1400 TI5515               2AZ
209403002209403077-000316     209403006001023609731GIFT-BAG 25X32CM MATT  0000001000+00001753+00000+0001T   00001753+0000001312          1400 TI5112               2AZ
209404000209404               209404               170213J3     1400+00000+J30000008366+0000008366+000000000+000001172+0000009530+0000000008+I20000000000+0000009530+Z
209404001209404018-050000     209404006003000412679MUG OCC LOVE TWIN BEAR 0000001000+00006139+00000+0001T   00006139+0000001313          1400 TI5515               2AZ
209404002209404077-000926     209404006003000414178G/WRAP 700mmx2m LOVE   0000001000+00002192+00000+0001T   00002192+0000001313          1400 TI5112               2AZ
209404003209404112-116038     209404006009681820246TCS CARRIER BAG MIDI   0000001000+00000035+00000+0001T   00000035+0000001313          1400 TI5090               2AZ
209405000209405               209405               170213J3     1400+00000+J30000001753+0000001753+000000000+000000246+0000001990+0000000009+I20000000000+0000001990+Z
209405001209405466-008889     209405006001023835376WHISTLE SPORTS+STRING  0000001000+00001753+00000+0001T   00001753+0000001313          1400 TI5785               2AZ
209406000209406               209406               170213J3     1400+00000+J30000013285+0000013285+000000000+000001862+0000015147+0000000000+I40000015147+0000000000+Z
209406001209406566-000359     209406006003000582709STICKER BOOK LOVE SPARK0000001000+00002192+00000+0001T   00002192+0000001321          1400 TI5130               2AZ
209406002209406112-116069     209406006009681820277TCS CARRIER BAG JUMBO  0000001000+00000048+00000+0001T   00000048+0000001321          1400 TI5090               2AZ
209406003209406133-083230     209406006001023714305T/CLOTH 132x183cm OBLNG0000002000+00003507+00000+0001T   00003507+0000001321          1400 TI5212               2AZ
209406004209406028-000400     209406006001023421661PLATE-HOLDERS 4PCE     0000002000+00001490+00000+0001T   00001490+0000001321          1400 TI5305               2AZ
209406005209406903-002850     209406000000087108262MENTOS ROLL FRUIT      0000001000+00001051+00000+0001T   00001051+0000001321          1400 TI5150               2AZ
209407000209407               209407               170213J3     1400+00000+J30000001490+0000001490+000000000+000000209+0000001690+0000000009+I20000000000+0000001690+Z
209407001209407079-006494     209407006003000159864GLITTER GLUE 5PCE 11cm 0000001000+00001490+00000+0001T   00001490+0000001324          1400 TI5130               2AZ
209408000209408               209408               170213J3     1400+00000+J30000005956+0000005956+000000000+000000837+0000006793+0000000000+I40000006793+0000000000+Z
209408001209408089-000150     209408006003000674268K/CHAIN PLUSH EMOTICON 0000001000+00001139+00000+0001T   00001139+0000001329          1400 TI5205               2AZ
209408002209408903-000200     209408006009826020234SWT CHOC RP CHOCO 23G  0000003000+00000788+00000+0001T   00000788+0000001329          1400 TI5150               2AZ
209408003209408903-000194     209408006009826020616SWT CHOC RP LOLLY 25G  0000001000+00001314+00000+0001T   00001314+0000001329          1400 TI5150               2AZ
209408004209408089-000150     209408006003000674268K/CHAIN PLUSH EMOTICON 0000001000+00001139+00000+0001T   00001139+0000001329          1400 TI5205               2AZ
209409000209409               209409               170213J3     1400+00000+J30000000876+0000000876+000000000+000000123+0000000990+0000000009+I20000000000+0000000990+Z
209409001209409077-000011-L   209409006001023808585P/TISSUE BRIGHT 10SHEET0000001000+00000876+00000+0001T   00000876+0000001330          1400 TI5112               2AZ
209410000209410               209410               170213J3     1400+00000+J30000003243+0000003243+000000000+000000455+0000003690+0000000008+I20000000000+0000003690+Z
209410001209410077-000311     209410006001023608666GIFT-BAG 11X14CM GLOSS 0000001000+00000613+00000+0001T   00000613+0000001333          1400 TI5112               2AZ
209410002209410079-013101     209410006001023863706CRAFT SET DIY PIPE-CLNR0000001000+00002630+00000+0001T   00002630+0000001333          1400 TI5130               2AZ
209411000209411               209411               170213J3     1400+00000+J30000003067+0000003067+000000000+000000431+0000003498+0000000000+I40000003498+0000000000+Z
209411001209411077-000456     209411006003000285549G/BAG METALLIC JMB EMB 0000001000+00002630+00000+0001T   00002630+0000001438          1400 TI5112               2AZ
209411002209411083-000049     209411004891035200024CIG-LIGHTER DISPOSABLE 0000001000+00000437+00000+0001T   00000437+0000001438          1400 TI5315               2AZ
209412000209412               209412               170213J3     1400+00000+J30000008108+0000008108+000000000+000001137+0000009240+0000000005+I20000000000+0000009240+Z
209412001209412018-000177     209412006001023797513MUG MINI LOVE ASSTD    0000004000+00000700+00000+0001T   00000700+0000001446          1400 TI5515               2AZ
209412002209412027-008813     209412006001023552334DUSTER RETRCTABLE 122cm0000002000+00002630+00000+0001T   00002630+0000001446          1400 TI5212               2AZ
209412003209412112-116069     209412006009681820277TCS CARRIER BAG JUMBO  0000001000+00000048+00000+0001T   00000048+0000001446          1400 TI5090               2AZ
209413000209413               209413               170213J3     1400+00000+J30000003507+0000003507+000000000+000000491+0000003990+0000000008+I20000000000+0000003990+Z
209413001209413018-005009     209413006001023725608MUG W/PLUSH-BEAR LOVE  0000001000+00003507+00000+0001T   00003507+0000001452          1400 TI5515               2AZ
209414000209414               209414               170213J3     1400+00000+J30000000700+0000000700+000000000+000000098+0000000790+0000000008+I20000000000+0000000790+Z
209414001209414018-000177     209414006001023797513MUG MINI LOVE ASSTD    0000001000+00000700+00000+0001T   00000700+0000001452          1400 TI5515               2AZ
209415000209415               209415               170213J3     1400+00000+J30000003542+0000003542+000000000+000000496+0000004038+0000000000+I40000004038+0000000000+Z
209415001209415031-005923     209415006003000040322P/FRAME CERT PL 21x29.70000001000+00003507+00000+0001T   00003507+0000001454          1400 TI5510               2AZ
209415002209415112-116038     209415006009681820246TCS CARRIER BAG MIDI   0000001000+00000035+00000+0001T   00000035+0000001454          1400 TI5090               2AZ
209416000209416               209416               170213J3     1400+00000+J30000002192+0000002192+000000000+000000307+0000002490+0000000009+I20000000000+0000002490+Z
209416001209416080-000127     209416006003000424351VALENTINES DAY 36x24CM 0000001000+00002192+00000+0001T   00002192+0000001454          1400 TI5112               2AZ
209417000209417               209417               170213J3     1400+00000+J30000006577+0000006577+000000000+000000921+0000007498+0000000000+I40000007498+0000000000+Z
209417001209417018-030000     209417006003000421060MUG OCCASIONS LOVE 2PCE0000001000+00004385+00000+0001T   00004385+0000001456          1400 TI5515               2AZ
209417002209417080-000127     209417006003000424351VALENTINES DAY 36x24CM 0000001000+00002192+00000+0001T   00002192+0000001456          1400 TI5112               2AZ
209418000209418               209418               170213J3     1400+00000+J30000007891+0000007891+000000000+000001106+0000008997+0000000000+I40000008997+0000000000+Z
209418001209418082-026204     209418006001023816443R/GLASSES STRINGS 2PCE 0000001000+00000876+00000+0001T   00000876+0000001459          1400 TI5160               2AZ
209418002209418082-000120     209418006003000360727READING GLS STRENGTH:3 0000001000+00004385+00000+0001T   00004385+0000001459          1400 TI5160               2AZ
209418003209418082-000388     209418006001023774385SPECT-CASE SPRING-CLOSE0000001000+00002630+00000+0001T   00002630+0000001459          1400 TI5160               2AZ
209419000209419               209419               170213J3     1400+00000+J30000003156+0000003156+000000000+000000442+0000003598+0000000000+I40000003598+0000000000+Z
209419001209419077-000303     209419006001023593757GIFT-BAG PAPER MED     0000002000+00001578+00000+0001T   00001578+0000001500          1400 TI5112               2AZ
209420000209420               209420               170213J3     1400+00000+J30000000437+0000000437+000000000+000000062+0000000490+0000000009+I20000000000+0000000490+Z
209420001209420080-000133-A   209420006003000647019MINI VALENTINES CARD   0000001000+00000437+00000+0001T   00000437+0000001500          1400 TI5112               2AZ
209421000209421               209421               170213J3     1400+00000+J30000003507+0000003507+000000000+000000491+0000003990+0000000008+I20000000000+0000003990+Z
209421001209421113-000001     209421006003000088690TRAVEL MUG 400ml S/S   0000001000+00003507+00000+0001T   00003507+0000001502          1400 TI5305               2AZ
209422000209422               209422               170213J3     1400+00000+J30000004382+0000004382+000000000+000000615+0000004997+0000000000+I40000004997+0000000000+Z
209422001209422006-006018     209422006001023735256PARTY-SPRAY HAIR ASSORT0000001000+00002630+00000+0001T   00002630+0000001504          1400 TI5131               2AZ
209422002209422903-000220     209422006001704007368SWT JELLY BEANS 60G    0000001000+00000876+00000+0001T   00000876+0000001504          1400 TI5150               2AZ
209422003209422903-000482     209422006001704001397SWT SOFT-MINTS 60G     0000001000+00000876+00000+0001T   00000876+0000001504          1400 TI5150               2AZ
209423000209423               209423               170213J3     1400+00000+J30000001613+0000001613+000000000+000000226+0000001830+0000000009+I20000000000+0000001830+Z
209423001209423018-000127     209423006001023380289MUG OCC STRAIGHT LOVE  0000001000+00001578+00000+0001T   00001753+0006471505          1400 TI5515               2AZ
209423002209423112-116038     209423006009681820246TCS CARRIER BAG MIDI   0000001000+00000035+00000+0001T   00000035+0000001505          1400 TI5090               2AZ
209424000209424               209424               170213J3     1400+00000+J30000010569+0000010569+000000000+000001482+0000012051+0000000000+I40000012051+0000000000+Z
209424001209424112-116069     209424006009681820277TCS CARRIER BAG JUMBO  0000001000+00000048+00000+0001T   00000048+0000001508          1400 TI5090               2AZ
209424002209424903-000211     209424006002099001238SWT GS MALLOW ICE CREAM0000002000+00001753+00000+0001T   00001753+0000001508          1400 TI5150               2AZ
209424003209424466-000515     209424006001023477408BALLS TENNIS BAG-OF-3  0000001000+00002630+00000+0001T   00002630+0000001508          1400 TI5785               2AZ
209424004209424368-000001     209424006003000097982Plush Bear 25cm        0000001000+00004385+00000+0001T   00004385+0000001508          1400 TI5745               2AZ
209425000209425               209425               170213J3     1400+00000+J30000001314+0000001314+000000000+000000184+0000001490+0000000008+I20000000000+0000001490+Z
209425001209425903-005007     209425006002580020311SWT MALLOW BEAR M/SHAKE0000001000+00001314+00000+0001T   00001314+0000001508          1400 TI5150               2AZ
209426000209426               209426               170213J3     1400+00000+J30000015384+0000015384+000000000+000002154+0000017530+0000000008+I20000000000+0000017530+Z
209426001209426018-000170     209426006001023775528MUG OCC. LOVE 2PC MINI 0000001000+00002192+00000+0001T   00002192+0000001512          1400 TI5515               2AZ
209426002209426112-116038     209426006009681820246TCS CARRIER BAG MIDI   0000001000+00000035+00000+0001T   00000035+0000001512          1400 TI5090               2AZ
209426003209426567-075700     209426006003000339389BOOK NOVEL 3-PACK ASSTD0000001000+00013157+00000+0001T   00013157+0000001512          1400 TI5757               2AZ
209427000209427               209427               170213J3     1400+00000+J30000003504+0000003504+000000000+000000493+0000003990+0000000007+I20000000000+0000003990+Z
209427001209427051-006100     209427006003000267170GARDEN KID TOOLSET 3PCE0000001000+00002630+00000+0001T   00002630+0000001515          1400 TI5820               2AZ
209427002209427083-000049     209427004891035200024CIG-LIGHTER DISPOSABLE 0000002000+00000437+00000+0001T   00000437+0000001515          1400 TI5315               2AZ
209428000209428               209428               170213J3     1400+00000+J30000007484+0000007484+000000000+000001050+0000008530+0000000004+I20000000000+0000008530+Z
209428001209428903-000123     209428006925925909280SWEET GS MINI MALLOWS  0000001000+00000876+00000+0001T   00000876+0000001519          1400 TI5150               2AZ
209428002209428903-000087     209428006001704000161SWT SPECKLED-EGGS 50G  0000001000+00001139+00000+0001T   00001139+0000001519          1400 TI5150               2AZ
209428003209428903-000095     209428006001704011495SWT SPECKLED-EGGS 100G 0000001000+00002104+00000+0001T   00002104+0000001519          1400 TI5150               2AZ
209428004209428016-006515-A   209428006003000461707S/JAR GLS W/HANDLE 500 0000001000+00001578+00000+0001T   00001753+0008191519          1400 TI5300               2AZ
209428005209428903-000123     209428006925925909280SWEET GS MINI MALLOWS  0000002000+00000876+00000+0001T   00000876+0000001519          1400 TI5150               2AZ
209428006209428112-116038     209428006009681820246TCS CARRIER BAG MIDI   0000001000+00000035+00000+0001T   00000035+0000001519          1400 TI5090               2AZ
209429000209429               209429               170213J3     1400+00000+J30000014951+0000014951+000000000+000002098+0000017040+0000000009+I20000000000+0000017040+Z
209429001209429112-116069     209429006009681820277TCS CARRIER BAG JUMBO  0000001000+00000048+00000+0001T   00000048+0000001520          1400 TI5090               2AZ
209429002209429079-001002     209429006003000448715CANVAS A4 WOOD MOUNTED 0000005000+00002630+00000+0001T   00002630+0000001520          1400 TI5130               2AZ
209429003209429079-003004     209429006003000448128TUBE 75ML LIGHT GREEN  0000001000+00001753+00000+0001T   00001753+0000001520          1400 TI5130               2AZ
209430000209430               209430               170213J3     1400+00000+J30000024502+0000024502+000000000+000003435+0000027937+0000000000+I40000027937+0000000000+Z
209430001209430903-000211     209430006002099001238SWT GS MALLOW ICE CREAM0000002000+00001753+00000+0001T   00001753+0000001523          1400 TI5150               2AZ
209430002209430112-116069     209430006009681820277TCS CARRIER BAG JUMBO  0000001000+00000048+00000+0001T   00000048+0000001523          1400 TI5090               2AZ
209430003209430903-000120     209430006002099001665SWEET GS ZILLIONS 50g  0000004000+00000700+00000+0001T   00000700+0000001523          1400 TI5150               2AZ
209430004209430903-000087     209430006001704000161SWT SPECKLED-EGGS 50G  0000004000+00001139+00000+0001T   00001139+0000001523          1400 TI5150               2AZ
209430005209430564-000001     209430006003000140589BUBBLE B/O GUN PL      0000002000+00004385+00000+0001T   00004385+0000001523          1400 TI5131               2AZ
209430006209430046-000012-A   209430006003000208296BATTERIES H/POWER SZ:AA0000001000+00002192+00000+0001T   00002192+0000001523          1400 TI5312               2AZ
209430007209430463-000366     209430006001023789136SWIM W/NOODLE 150cm    0000001000+00002630+00000+0001T   00002630+0000001523          1400 TI5785               2AZ
209431000209431               209431               170213J3     1400+00000+J30000002630+0000002630+000000000+000000369+0000002990+0000000009+I20000000000+0000002990+Z
209431001209431105-001100     209431006003000667536CONTAINER SET LITE 2PC 0000001000+00002630+00000+0001T   00002630+0000001525          1400 TI5210               2AZ
209432000209432               209432               170213J3     1400+00000+J30000001227+0000001227+000000000+000000172+0000001390+0000000009+I20000000000+0000001390+Z
209432001209432903-000510     209432006001704012621SWEET MS ZBDZ S/BERRY  0000001000+00001227+00000+0001T   00001227+0000001525          1400 TI5150               2AZ
209433000209433               209433               170213J3     1400+00000+J30000005120+0000005120+000000000+000000717+0000005830+0000000007+I20000000000+0000005830+Z
209433001209433018-030000     209433006003000421060MUG OCCASIONS LOVE 2PCE0000001000+00004385+00000+0001T   00004385+0000001534          1400 TI5515               2AZ
209433002209433112-116038     209433006009681820246TCS CARRIER BAG MIDI   0000001000+00000035+00000+0001T   00000035+0000001534          1400 TI5090               2AZ
209433003209433018-000177     209433006001023797513MUG MINI LOVE ASSTD    0000001000+00000700+00000+0001T   00000700+0000001534          1400 TI5515               2AZ
209434000209434               209434               170213J3     1400+00000+J30000002630+0000002630+000000000+000000369+0000002990+0000000009+I20000000000+0000002990+Z
209434001209434077-000456     209434006003000285549G/BAG METALLIC JMB EMB 0000001000+00002630+00000+0001T   00002630+0000001538          1400 TI5112               2AZ
209435000209435               209435               170213J3     1400+00000+J30000000876+0000000876+000000000+000000123+0000000990+0000000009+I20000000000+0000000990+Z
209435001209435077-000151     209435006008766114676GIFT-WRAP C/PHANE ASSTD0000001000+00000876+00000+0001T   00000876+0000001541          1400 TI5112               2AZ
209436000209436               209436               170213J3     1400+00000+J30000001489+0000001489+000000000+000000209+0000001690+0000000008+I20000000000+0000001690+Z
209436001209436077-000321     209436006001023677501GIFT-BAG 11X14CM E/D FL0000001000+00000613+00000+0001T   00000613+0000001545          1400 TI5112               2AZ
209436002209436077-000151     209436006008766114676GIFT-WRAP C/PHANE ASSTD0000001000+00000876+00000+0001T   00000876+0000001545          1400 TI5112               2AZ
209437000209437               209437               170213J3     1400+00000+J30000002752+0000002752+000000000+000000386+0000003138+0000000000+I40000003138+0000000000+Z
209437001209437080-000124     209437006003000297733CARD & ENV VALENTINES  0000001000+00001578+00000+0001T   00001578+0000001547          1400 TI5112               2AZ
209437002209437046-000014     209437006001023725387BATTERIES SIZE:AAA 4PCE0000001000+00001139+00000+0001T   00001139+0000001547          1400 TI5312               2AZ
209437003209437112-116038     209437006009681820246TCS CARRIER BAG MIDI   0000001000+00000035+00000+0001T   00000035+0000001547          1400 TI5090               2AZ
209438000209438               209438               170213J3     1400+00000+J30000000876+0000000876+000000000+000000123+0000000990+0000000009+I20000000000+0000000990+Z
209438001209438039-000323     209438006001023524171BIRTHDAY-CANDLES 24PCE 0000001000+00000876+00000+0001T   00000876+0000001552          1400 TI5510               2AZ
209439000209439               209439               170213J3     1400+00000+J30000004327+0000004327+000000000+000000606+0000004930+0000000003+I20000000000+0000004930+Z
209439001209439080-000127     209439006003000424351VALENTINES DAY 36x24CM 0000001000+00002192+00000+0001T   00002192+0000001559          1400 TI5112               2AZ
209439002209439018-000177     209439006001023797513MUG MINI LOVE ASSTD    0000003000+00000700+00000+0001T   00000700+0000001559          1400 TI5515               2AZ
209439003209439112-116038     209439006009681820246TCS CARRIER BAG MIDI   0000001000+00000035+00000+0001T   00000035+0000001559          1400 TI5090               2AZ
209440000209440               209440               170213J3     1400+00000+J30000007015+0000007015+000000000+000000983+0000007990+0000000008+I20000000000+0000007990+Z
209440001209440018-000170     209440006001023775528MUG OCC. LOVE 2PC MINI 0000001000+00002192+00000+0001T   00002192+0000001559          1400 TI5515               2AZ
209440002209440301-085001     209440006003000297610ORN WATERBALL LOVE ASST0000001000+00004823+00000+0001T   00004823+0000001559          1400 TI5505               2AZ
209441000209441               209441               170213J3     1400+00000+J30000000613+0000000613+000000000+000000086+0000000690+0000000009+I20000000000+0000000690+Z
209441001209441304-001011     209441006001023806727FLWR ROSE RED W/BEAR   0000001000+00000613+00000+0001T   00000788+0006471600          1400 TI5510               2AZ
209442000209442               209442               170213J3     1400+00000+J30000001578+0000001578+000000000+000000221+0000001790+0000000009+I20000000000+0000001790+Z
209442001209442018-000127     209442006001023380289MUG OCC STRAIGHT LOVE  0000001000+00001578+00000+0001T   00001753+0006471603          1400 TI5515               2AZ
209443000209443               209443               170213J3     1400+00000+J30000017666+0000017666+000000000+000002476+0000020142+0000000000+I40000020142+0000000000+Z
209443001209443112-116069     209443006009681820277TCS CARRIER BAG JUMBO  0000001000+00000048+00000+0001T   00000048+0000001607          1400 TI5090               2AZ
209443002209443018-000170     209443006001023775528MUG OCC. LOVE 2PC MINI 0000003000+00002192+00000+0001T   00002192+0000001607          1400 TI5515               2AZ
209443003209443077-000010-C   209443006001023123879CREPE-PAPER RED        0000001000+00000788+00000+0001T   00000788+0000001607          1400 TI5112               2AZ
209443004209443566-000359     209443006003000582709STICKER BOOK LOVE SPARK0000001000+00002192+00000+0001T   00002192+0000001607          1400 TI5130               2AZ
209443005209443566-000031     209443006003000283910STICKER BK TEACHER STIC0000001000+00002192+00000+0001T   00002192+0000001607          1400 TI5130               2AZ
209443006209443566-000950     209443006003000216048STICKERS 3 STYLES 100PC0000001000+00002192+00000+0001T   00002192+0000001607          1400 TI5130               2AZ
209443007209443077-000321     209443006001023677501GIFT-BAG 11X14CM E/D FL0000004000+00000613+00000+0001T   00000613+0000001607          1400 TI5112               2AZ
209443008209443077-000311     209443006001023608666GIFT-BAG 11X14CM GLOSS 0000002000+00000613+00000+0001T   00000613+0000001607          1400 TI5112               2AZ
209444000209444               209444               170213J3     1400+00000+J30000002630+0000002630+000000000+000000369+0000002999+0000000000+I40000002999+0000000000+Z
209444001209444206-000620     209444006003000631797BACK SCRATCHER EXTEND  0000001000+00002630+00000+0001T   00002630+0000001611          1400 TI5321               2AZ
209445000209445               209445               170213J3     1400+00000+J30000004120+0000004120+000000000+000000578+0000004690+0000000008+I20000000000+0000004690+Z
209445001209445046-000010     209445004897006172987BATTERIES AAA ALKLN 2PC0000001000+00001490+00000+0001T   00001490+0000001613          1400 TI5312               2AZ
209445002209445206-000620     209445006003000631797BACK SCRATCHER EXTEND  0000001000+00002630+00000+0001T   00002630+0000001613          1400 TI5321               2AZ
209446000209446               209446               170213J3     1400+00000+J30000003506+0000003506+000000000+000000492+0000003998+0000000000+I40000003998+0000000000+Z
209446001209446903-000123     209446006925925909280SWEET GS MINI MALLOWS  0000001000+00000876+00000+0001T   00000876+0000001616          1400 TI5150               2AZ
209446002209446104-000031     209446006003000614950BASKET PL 27x18x12cm   0000001000+00002630+00000+0001T   00002630+0000001616          1400 TI5210               2AZ
209447000209447               209447               170213J3     1400+00000+J30000006399+0000006399+000000000+000000897+0000007290+0000000006+I20000000000+0000007290+Z
209447001209447903-000123     209447006925925909280SWEET GS MINI MALLOWS  0000001000+00000876+00000+0001T   00000876+0000001617          1400 TI5150               2AZ
209447002209447047-002041     209447006002521079170PLUG-ADAPTOR 2x16A 2x5A0000001000+00003157+00000+0001T   00003157+0000001617          1400 TI5880               2AZ
209447003209447083-000055     209447006003000003853LIGHTER ELCTRNC REFILBL0000001000+00000613+00000+0001T   00000613+0000001617          1400 TI5315               2AZ
209447004209447077-000308     209447006001023595812GIFT-BAG 33X45CM E/DAY 0000001000+00001753+00000+0001T   00001753+0000001617          1400 TI5112               2AZ
209448000209448               209448               170213J3     1400+00000+J30000003145+0000003145+000000000+000000442+0000003580+0000000007+I20000000000+0000003580+Z
209448001209448566-000359     209448006003000582709STICKER BOOK LOVE SPARK0000001000+00002192+00000+0001T   00002192+0000001618          1400 TI5130               2AZ
209448002209448002-021040     209448006001023812216PARTY-PICKS 100PCE     0000001000+00000525+00000+0001T   00000525+0000001618          1400 TI5300               2AZ
209448003209448903-000183     209448006003000451043SWT LB HEART LOLLY     0000001000+00000393+00000+0001T   00000393+0000001618          1400 TI5150               2AZ
209448004209448112-116038     209448006009681820246TCS CARRIER BAG MIDI   0000001000+00000035+00000+0001T   00000035+0000001618          1400 TI5090               2AZ
209449000209449               209449               170213J3     1400+00000+J30000008364+0000008364+000000000+000001172+0000009536+0000000000+I40000009536+0000000000+Z
209449001209449077-000299     209449006003000395576G/BAG 32x25cm LRG LOVE 0000001000+00001490+00000+0001T   00001490+0000001622          1400 TI5112               2AZ
209449002209449018-050000     209449006003000412679MUG OCC LOVE TWIN BEAR 0000001000+00006139+00000+0001T   00006139+0000001622          1400 TI5515               2AZ
209449003209449112-116038     209449006009681820246TCS CARRIER BAG MIDI   0000001000+00000035+00000+0001T   00000035+0000001622          1400 TI5090               2AZ
209449004209449018-000177     209449006001023797513MUG MINI LOVE ASSTD    0000001000+00000700+00000+0001T   00000700+0000001622          1400 TI5515               2AZ
209450000209450               209450               170213J3     1400+00000+J30000018192+0000018192+000000000+000002553+0000020745+0000000000+I40000020745+0000000000+Z
209450001209450112-116069     209450006009681820277TCS CARRIER BAG JUMBO  0000001000+00000048+00000+0001T   00000048+0000001625          1400 TI5090               2AZ
209450002209450007-000196     209450006002324002375FILE LEVER ARCH A4     0000003000+00002630+00000+0001T   00002630+0000001625          1400 TI5130               2AZ
209450003209450007-000598     209450006009608642333MARLIN FILE DIVIDER 10 0000003000+00001753+00000+0001T   00001753+0000001625          1400 TI5130               2AZ
209450004209450252-000013     209450006001023488107CURTN-HOOK R6 ACETYLx500000001000+00000876+00000+0001T   00000876+0000001625          1400 TI5810               2AZ
209450005209450252-000006     209450006001023472519CURTN-RUNNERS N/WHL x500000001000+00001753+00000+0001T   00001753+0000001625          1400 TI5810               2AZ
209450006209450252-000013     209450006001023488107CURTN-HOOK R6 ACETYLx500000001000+00000876+00000+0001T   00000876+0000001625          1400 TI5810               2AZ
209450007209450016-006516     209450006003000351503S/JAR GLS CHECK 150ML  0000001000+00001490+00000+0001T   00001490+0000001625          1400 TI5300               2AZ
209451000209451               209451               170213J3     1400+00000+J30000012746+0000012746+000000000+000001786+0000014532+0000000000+I40000014532+0000000000+Z
209451001209451082-007584     209451006003000653973SUNGLASS DESIGNER ASST 0000001000+00004385+00000+0001T   00004385+0000001629          1400 TI5160               2AZ
209451002209451566-000451     209451006001023788443STICKERS GLITTER ASSTD 0000001000+00001314+00000+0001T   00001753+0008151629          1400 TI5130               2AZ
209451003209451079-006522     209451006001023149442ART+CRAFT GLUE ASSORTED0000001000+00001753+00000+0001T   00001753+0000001629          1400 TI5130               2AZ
209451004209451174-000314     209451006003000053575TRAVEL SEWING KIT      0000001000+00003507+00000+0001T   00003507+0000001629          1400 TI5205               2AZ
209451005209451112-116038     209451006009681820246TCS CARRIER BAG MIDI   0000001000+00000035+00000+0001T   00000035+0000001629          1400 TI5090               2AZ
209451006209451903-000503     209451006001704006118SWT VAMPIRE FANGS 60G  0000002000+00000876+00000+0001T   00000876+0000001629          1400 TI5150               2AZ
209452000209452               209452               170213J3     1400+00000+J30000002980+0000002980+000000000+000000418+0000003390+0000000008+I20000000000+0000003390+Z
209452001209452016-006516     209452006003000351503S/JAR GLS CHECK 150ML  0000002000+00001490+00000+0001T   00001490+0000001630          1400 TI5300               2AZ
209453000209453               209453               170213J3     1400+00000+J30000003069+0000003069+000000000+000000430+0000003499+0000000000+I40000003499+0000000000+Z
209453001209453072-000014     209453006003000451845PET DOG/CAT BRUSH 20cm 0000001000+00003069+00000+0001T   00003069+0000001631          1400 TI5870               2AZ
209454000209454               209454               170213J3     1400+00000+J30000005260+0000005260+000000000+000000738+0000005998+0000000000+I40000005998+0000000000+Z
209454001209454301-085001     209454006003000297610ORN WATERBALL LOVE ASST0000001000+00004823+00000+0001T   00004823+0000001634          1400 TI5505               2AZ
209454002209454080-000133-A   209454006003000647019MINI VALENTINES CARD   0000001000+00000437+00000+0001T   00000437+0000001634          1400 TI5112               2AZ
209455000209455               209455               170213J3     1400+00000+J30000001051+0000001051+000000000+000000148+0000001190+0000000009+I20000000000+0000001190+Z
209455001209455033-000124     209455006009654960597COMBS HANDLE + TAIL 2PC0000001000+00001051+00000+0001T   00001051+0000001635          1400 TI5200               2AZ
209456000209456               209456               170213J3     1400+00000+J30000005295+0000005295+000000000+000000742+0000006037+0000000000+I40000006037+0000000000+Z
209456001209456077-000316     209456006001023609731GIFT-BAG 25X32CM MATT  0000001000+00001753+00000+0001T   00001753+0000001638          1400 TI5112               2AZ
209456002209456018-005009     209456006001023725608MUG W/PLUSH-BEAR LOVE  0000001000+00003507+00000+0001T   00003507+0000001638          1400 TI5515               2AZ
209456003209456112-116038     209456006009681820246TCS CARRIER BAG MIDI   0000001000+00000035+00000+0001T   00000035+0000001638          1400 TI5090               2AZ
209457000209457               209457               170213J3     1400+00000+J30000001227+0000001227+000000000+000000172+0000001390+0000000009+I20000000000+0000001390+Z
209457001209457077-000245     209457006001023759214GIFT-RIBBON METALLICx2 0000001000+00001227+00000+0001T   00001227+0000001642          1400 TI5112               2AZ
209458000209458               209458               170213J3     1400+00000+J30000003539+0000003539+000000000+000000497+0000004030+0000000006+I20000000000+0000004030+Z
209458001209458077-000314     209458006003000181148GIFT-BAG 11X14CM MATT  0000004000+00000876+00000+0001T   00000876+0000001644          1400 TI5112               2AZ
209458002209458112-116038     209458006009681820246TCS CARRIER BAG MIDI   0000001000+00000035+00000+0001T   00000035+0000001644          1400 TI5090               2AZ
209459000209459               209459               170213J3     1400+00000+J30000010347+0000010347+000000000+000001450+0000011797+0000000000+I40000011797+0000000000+Z
209459001209459077-000315     209459006003000181186GIFT-BAG 20x28cm MATT  0000001000+00001578+00000+0001T   00001578+0000001647          1400 TI5112               2AZ
209459002209459206-000310     209459006003000632787BOTTLE-STOPPER SILICONE0000001000+00002630+00000+0001T   00002630+0000001647          1400 TI5321               2AZ
209459003209459206-000430     209459006003000619627MUG COLOUR CHANGING    0000001000+00006139+00000+0001T   00006139+0000001647          1400 TI5321               2AZ
209460000209460               209460               170213J3     1400+00000+J30000000525+0000000525+000000000+000000074+0000000599+0000000000+I40000000599+0000000000+Z
209460001209460903-000151     209460006009803374411SWT SML RND R/BOW LOLLY0000001000+00000525+00000+0001T   00000525+0000001650          1400 TI5150               2AZ
209461000209461               209461               170213J3     1400+00000+J30000004605+0000004605+000000000+000000647+0000005250+0000000002+I20000000000+0000005250+Z
209461001209461903-000200     209461006009826020234SWT CHOC RP CHOCO 23G  0000001000+00000788+00000+0001T   00000788+0000001651          1400 TI5150               2AZ
209461002209461903-000087     209461006001704000161SWT SPECKLED-EGGS 50G  0000001000+00001139+00000+0001T   00001139+0000001651          1400 TI5150               2AZ
209461003209461077-000456     209461006003000285549G/BAG METALLIC JMB EMB 0000001000+00002630+00000+0001T   00002630+0000001651          1400 TI5112               2AZ
209461004209461112-116069     209461006009681820277TCS CARRIER BAG JUMBO  0000001000+00000048+00000+0001T   00000048+0000001651          1400 TI5090               2AZ
209462000209462               209462               170213J3     1400+00000+J30000003068+0000003068+000000000+000000430+0000003490+0000000008+I20000000000+0000003490+Z
209462001209462366-007601     209462006003000655472DRESS UP MASK THEATRICA0000001000+00000876+00000+0001T   00000876+0000001652          1400 TI5131               2AZ
209462002209462006-000789     209462006001023148612CROWN BOY              0000001000+00002192+00000+0001T   00002192+0000001652          1400 TI5131               2AZ
209463000209463               209463               170213J3     1400+00000+J30000001490+0000001490+000000000+000000209+0000001690+0000000009+I20000000000+0000001690+Z
209463001209463071-005214     209463006003000152544CELLOTAPE SUPER REFILL 0000001000+00001490+00000+0001T   00001490+0000001653          1400 TI5130               2AZ
209464000209464               209464               170213J3     1400+00000+J30000009120+0000009120+000000000+000001278+0000010390+0000000008+I20000000000+0000010390+Z
209464001209464903-000518     209464006001704012782SWT STRAWS S/BERRY 100g0000001000+00001227+00000+0001T   00001227+0000001655          1400 TI5150               2AZ
209464002209464301-085007     209464006003000673698ORN OCC. LOVE S/PLAQUE 0000001000+00007893+00000+0001T   00007893+0000001655          1400 TI5505               2AZ
209465000209465               209465               170213J3     1400+00000+J30000006358+0000006358+000000000+000000892+0000007250+0000000000+I40000007250+0000000000+Z
209465001209465306-000023-A   209465006003000110148COTTON WOOL BALLS 50PCE0000001000+00000700+00000+0001T   00001314+0008171658          1400 TI5200               2AZ
209465002209465403-000502-A   209465006003000467099M/BANK TIN 8x12.5cm    0000001000+00002630+00000+0001T   00002630+0000001658          1400 TI5510               2AZ
209465003209465018-000108     209465006001023380265MUG NOVELTY ICON ASST  0000001000+00001753+00000+0001T   00001753+0000001658          1400 TI5515               2AZ
209465004209465200-000092     209465006003000576739PICNIC PAPER PLATES 23c0000001000+00001227+00000+0001T   00001227+0000001658          1400 TI5214               2AZ
209465005209465112-116069     209465006009681820277TCS CARRIER BAG JUMBO  0000001000+00000048+00000+0001T   00000048+0000001658          1400 TI5090               2AZ
209466000209466               209466               170213J3     1400+00000+J30000001753+0000001753+000000000+000000246+0000001990+0000000009+I20000000000+0000001990+Z
209466001209466016-006509     209466006003000567355S/JAR GLS MINI LABEL   0000001000+00001753+00000+0001T   00002192+0008191659          1400 TI5300               2AZ
209467000209467               209467               170213J3     1400+00000+J30000000876+0000000876+000000000+000000123+0000000990+0000000009+I20000000000+0000000990+Z
209467001209467071-001019     209467006001023474513MARKER BLACK NAME-PEN  0000001000+00000876+00000+0001T   00000876+0000001702          1400 TI5130               2AZ
209468000209468               209468               170213J3     1400+00000+J30000001752+0000001752+000000000+000000246+0000001990+0000000008+I20000000000+0000001990+Z
209468001209468078-000025     209468008887013700064SUPERGLUE 3g 1PCE CARD 0000002000+00000876+00000+0001T   00000876+0000001705          1400 TI5810               2AZ
209469000209469               209469               170213J3     1400+00000+J30000000613+0000000613+000000000+000000086+0000000690+0000000009+I20000000000+0000000690+Z
209469001209469200-000065     209469006001023323675DRINKING-STRAWS 38PCE  0000001000+00000613+00000+0001T   00000613+0000001710          1400 TI5214               2AZ
209470000209470               209470               170213J3     1400+00000+J30000003069+0000003069+000000000+000000430+0000003499+0000000000+I40000003499+0000000000+Z
209470001209470089-060027     209470006003000245871KEY-CHAIN HEART 6X6cm  0000001000+00003069+00000+0001T   00003069+0000001714          1400 TI5205               2AZ
209471000209471               209471               170213J3     1400+00000+J30000008253+0000008253+000000000+000001176+0000009420+0000000009+I20000000000+0000009420+Z
209471001209471903-000183     209471006003000451043SWT LB HEART LOLLY     0000021000+00000393+00000+0001T   00000393+0000001719          1400 TI5150               2AZ
209472000209472               209472               170213J3     1400+00000+J30000000700+0000000700+000000000+000000098+0000000790+0000000008+I20000000000+0000000790+Z
209472001209472018-000177     209472006001023797513MUG MINI LOVE ASSTD    0000001000+00000700+00000+0001T   00000700+0000001719          1400 TI5515               2AZ
209473000209473               209473               170213J3     1400+00000+J30000004207+0000004207+000000000+000000589+0000004790+0000000006+I20000000000+0000004790+Z
209473001209473018-005009     209473006001023725608MUG W/PLUSH-BEAR LOVE  0000001000+00003507+00000+0001T   00003507+0000001721          1400 TI5515               2AZ
209473002209473018-000177     209473006001023797513MUG MINI LOVE ASSTD    0000001000+00000700+00000+0001T   00000700+0000001721          1400 TI5515               2AZ
209474000209474               209474               170213J3     1400+00000+J30000002629+0000002629+000000000+000000369+0000002990+0000000008+I20000000000+0000002990+Z
209474001209474006-000812     209474006001023902832HAT CONE WITH TINSEL   0000001000+00000876+00000+0001T   00000876+0000001722          1400 TI5131               2AZ
209474002209474006-000800     209474006001023902801HAT CABARET 14x18cm    0000001000+00001753+00000+0001T   00001753+0000001722          1400 TI5131               2AZ
209475000209475               209475               170213J3     1400+00000+J30000003507+0000003507+000000000+000000491+0000003990+0000000008+I20000000000+0000003990+Z
209475001209475018-005009     209475006001023725608MUG W/PLUSH-BEAR LOVE  0000001000+00003507+00000+0001T   00003507+0000001722          1400 TI5515               2AZ
209476000209476               209476               170213J3     1400+00000+J30000003507+0000003507+000000000+000000491+0000003990+0000000008+I20000000000+0000003990+Z
209476001209476105-007400     209476006003000629435CONTAINER MINI 140ml   0000001000+00003507+00000+0001T   00003507+0000001723          1400 TI5210               2AZ
209477000209477               209477               170213J3     1400+00000+J30000003506+0000003506+000000000+000000492+0000003990+0000000008+I20000000000+0000003990+Z
209477001209477080-000107     209477006003000237081CARD&ENVELPE BDAY BOY  0000001000+00001753+00000+0001T   00001753+0000001741          1400 TI5112               2AZ
209477002209477080-000116     209477006003000253555CARD&ENVELOPE-HANDMADE 0000001000+00001753+00000+0001T   00001753+0000001741          1400 TI5112               2AZ
A17021300                                          09163761J3SLAVE 2                       TI51IC
A17021301                                          15204439J3SLAVE 2                       TI51IC
M17021301                              IT          J3SLV 2 209477
M17021391                              CASH        J3SLAVE 2                       Z-REPORT No.   626TOTAL (Sales - Refunds)           6792.51       CASH TO BE BANKED                 3046.30       DEBIT CARDS                          0.00       CREDIT CARDS                      3746.51       Z-READING                         6792.51       AIRTIME DEBIT CARD SALES             0.00       AIRTIME CARD SALES                   0.00       OVERS/UNDERS                         0.30       AIRTIME CASH SALES                   0.00       GIFT CARDS                           0.00       GIFT CARD CASH SALES                 0.00       T O T A L  CASH PAYOUTS              0.00                                                                                                                                                                                                                                                                                                                                                      Z
M17021392                              CASH        J3ABSENT                                                                                                                                                                                          ANNUAL LEAVE                                                                                                                                                                                    DAY OFF                                                                                                                                                                                         COMMENTS                                                          Z READ 6792.51                                                                                                                                                                                                                                                                                                               Z
Y17021300                                          J300000000596183+000101
ZJ317021406043 SLAVE 2      SALES DATA                     NEXT INVOICE NO.  209478 0626
X J3 Slave 2 First invoice 209377 170213 Last invoice 209477 170213 Next invoice 209478 Total number of records 000000359 clbackup completed 06:04:27
