113950000113950               113950               170213J4     1400+00000+J40000000877+0000000877+000000000+000000123+0000001000+0000000000+I20000000000+0000001000+Z
113950001113950079-003000     113950006003000448838A/TUBE 75ML WHITE      0000001000-00001753+00000+0001T   00001753+0000000912          1400 I541301IC            1 Z
113950002113950079-001002     113950006003000448715CANVAS A4 WOOD MOUNTED 0000001000+00002630+00000+0001T   00002630+0000000912          1400 I54130               1AZ
113951000113951               113951               170213J4     1400+00000+J40000001753+0000001753+000000000+000000246+0000001990+0000000009+I20000000000+0000001990+Z
113951001113951566-002004     113951006001023672421STICKERS CRYSTAL SHAPES0000001000+00001753+00000+0001T   00001753+0000000913          1400 I54130               1AZ
113952000113952               113952               170213J4     1400+00000+J40000001578+0000001578+000000000+000000221+0000001790+0000000009+I20000000000+0000001790+Z
113952001113952077-000303     113952006001023593757GIFT-BAG PAPER MED     0000001000+00001578+00000+0001T   00001578+0000000913          1400 I54112               1AZ
113953000113953               113953               170213J4     1400+00000+J40000005262+0000005262+000000000+000000737+0000005990+0000000009+I20000000000+0000005990+Z
113953001113953082-000122-A   113953006003000403561READING GLS STRENGTH:1 0000001000+00005262+00000+0001T   00005262+0000000915          1400 I54160               1AZ
113954000113954               113954               170213J4     1400+00000+J40000001752+0000001752+000000000+000000246+0000001990+0000000008+I20000000000+0000001990+Z
113954001113954077-000302     113954008010410010195GIFT-BAG 18X23CM E/D   0000002000+00000876+00000+0001T   00000876+0000000916          1400 I54112               1AZ
113955000113955               113955               170213J4     1400+00000+J40000001613+0000001613+000000000+000000226+0000001830+0000000009+I20000000000+0000001830+Z
113955001113955018-000127     113955006001023380289MUG OCC STRAIGHT LOVE  0000001000+00001578+00000+0001T   00001753+0006470925          1400 I54515               1AZ
113955002113955112-116038     113955006009681820246TCS CARRIER BAG MIDI   0000001000+00000035+00000+0001T   00000035+0000000925          1400 I54090               1AZ
113956000113956               113956               170213J4     1400+00000+J40000001753+0000001753+000000000+000000246+0000001990+0000000009+I20000000000+0000001990+Z
113956001113956080-000116     113956006003000253555CARD&ENVELOPE-HANDMADE 0000001000+00001753+00000+0001T   00001753+0000000926          1400 I54112               1AZ
113957000113957               113957               170213J4     1400+00000+J40000003945+0000003945+000000000+000000553+0000004490+0000000008+I20000000000+0000004490+Z
113957001113957200-003024     113957006001023657299REFUSE BAGS 20PCE BLACK0000001000+00001753+00000+0001T   00001753+0000000944          1400 I54214               1AZ
113957002113957047-005126     113957006001023451255CABLETIES 100/150/200mm0000001000+00002192+00000+0001T   00002192+0000000944          1400 I54880               1AZ
113958000113958               113958               170213J4     1400+00000+J40000001578+0000001578+000000000+000000221+0000001790+0000000009+I20000000000+0000001790+Z
113958001113958077-000303     113958006001023593757GIFT-BAG PAPER MED     0000001000+00001578+00000+0001T   00001578+0000000950          1400 I54112               1AZ
113959000113959               113959               170213J4     1400+00000+J40000002630+0000002630+000000000+000000369+0000002999+0000000000+I40000002999+0000000000+Z
113959001113959463-000366     113959006001023789136SWIM W/NOODLE 150cm    0000001000+00002630+00000+0001T   00002630+0000000953          1400 I54785               1AZ
113960000113960               113960               170213J4     1400+00000+J40000001227+0000001227+000000000+000000172+0000001390+0000000009+I20000000000+0000001390+Z
113960001113960251-000040     113960006001023515865SEALTAPE CLEAR 48mmx50m0000001000+00001227+00000+0001T   00001227+0000000958          1400 I54810               1AZ
113961000113961               113961               170213J4     1400+00000+J40000001753+0000001753+000000000+000000246+0000001990+0000000009+I20000000000+0000001990+Z
113961001113961024-000083     113961006001023770943SIEVE FLOUR 20cm MTL-RI0000001000+00001753+00000+0001T   00001753+0000001002          1400 I54300               1AZ
113962000113962               113962               170213J4     1400+00000+J40000008814+0000008814+000000000+000001237+0000010051+0000000000+I40000010051+0000000000+Z
113962001113962077-000011-C   113962006001023808523TISSUE 10xSHTS RED     0000001000+00000876+00000+0001T   00000876+0000001024          1400 I54112               1AZ
113962002113962566-000367     113962006003000645558STICKER WINDOW DECOR   0000003000+00002630+00000+0001T   00002630+0000001024          1400 I54130               1AZ
113962003113962112-116069     113962006009681820277TCS CARRIER BAG JUMBO  0000001000+00000048+00000+0001T   00000048+0000001024          1400 I54090               1AZ
113963000113963               113963               170213J4     1400+00000+J40000005262+0000005262+000000000+000000737+0000005990+0000000009+I20000000000+0000005990+Z
113963001113963463-000115     113963006003000608454SWIM-GOGGLES IN CASE   0000001000+00005262+00000+0001T   00005262+0000001043          1400 I54785               1AZ
113964000113964               113964               170213J4     1400+00000+J40000001490+0000001490+000000000+000000209+0000001699+0000000000+I40000001699+0000000000+Z
113964001113964077-000304     113964006001023483232GIFT-BAG 25X32CM E/DAY 0000001000+00001490+00000+0001T   00001490+0000001059          1400 I54112               1AZ
113965000113965               113965               170213J4     1400+00000+J40000008806+0000008806+000000000+000001233+0000010030+0000000009+I20000000000+0000010030+Z
113965001113965039-000799     113965006001023692382CANDLES TEALITE 100PCE 0000001000+00008771+00000+0001T   00008771+0000001104          1400 I54510               1AZ
113965002113965112-116038     113965006009681820246TCS CARRIER BAG MIDI   0000001000+00000035+00000+0001T   00000035+0000001104          1400 I54090               1AZ
113966000113966               113966               170213J4     1400+00000+J40000002628+0000002628+000000000+000000368+0000002996+0000000000+I40000002996+0000000000+Z
113966001113966030-000010     113966006003000084395P/DOOR HANGER 2-ASSTD  0000002000+00001314+00000+0001T   00001490+0008181106          1400 I54505               1AZ
113967000113967               113967               170213J4     1400+00000+J40000012279+0000012279+000000000+000001720+0000013999+0000000000+I40000013999+0000000000+Z
113967001113967261-003348     113967006003000398478GUN AIR BLASTER 27CM   0000001000+00012279+00000+0001T   00012279+0000001114          1400 I54710               1AZ
113968000113968               113968               170213J4     1400+00000+J40000003069+0000003069+000000000+000000430+0000003499+0000000000+I40000003499+0000000000+Z
113968001113968301-085008     113968006003000673933ORN OCC.LOVE TINSEL HRT0000001000+00003069+00000+0001T   00003069+0000001116          1400 I54505               1AZ
113969000113969               113969               170213J4     1400+00000+J40000002677+0000002677+000000000+000000376+0000003050+0000000003+I20000000000+0000003050+Z
113969001113969077-000316     113969006001023609731GIFT-BAG 25X32CM MATT  0000001000+00001753+00000+0001T   00001753+0000001134          1400 I54112               1AZ
113969002113969077-000011-C   113969006001023808523TISSUE 10xSHTS RED     0000001000+00000876+00000+0001T   00000876+0000001134          1400 I54112               1AZ
113969003113969112-116069     113969006009681820277TCS CARRIER BAG JUMBO  0000001000+00000048+00000+0001T   00000048+0000001134          1400 I54090               1AZ
113970000113970               113970               170213J4     1400+00000+J40000000613+0000000613+000000000+000000086+0000000690+0000000009+I20000000000+0000000690+Z
113970001113970304-001011     113970006001023806727FLWR ROSE RED W/BEAR   0000001000+00000613+00000+0001T   00000788+0006471136          1400 I54510               1AZ
113971000113971               113971               170213J4     1400+00000+J40000003507+0000003507+000000000+000000491+0000003998+0000000000+I40000003998+0000000000+Z
113971001113971071-001010     113971006001023893314MARKERS-METALIC 3PCE   0000001000+00003507+00000+0001T   00003507+0000001140          1400 I54130               1AZ
113972000113972               113972               170213J4     1400+00000+J40000001314+0000001314+000000000+000000184+0000001490+0000000008+I20000000000+0000001490+Z
113972001113972077-000470     113972006003000330171G-BAG DESGN SML 11X14CM0000001000+00001314+00000+0001T   00001314+0000001147          1400 I54112               1AZ
113973000113973               113973               170213J4     1400+00000+J40000023294+0000023294+000000000+000003268+0000026560+0000000002+I20000000000+0000026560+Z
113973001113973007-000555     113973006001023848239MEMO-PAD MINI LOVE     0000038000+00000613+00000+0001T   00000613+0000001150          1400 I54130               1AZ
113974000113974               113974               170213J4     1400+00000+J40000002015+0000002015+000000000+000000283+0000002290+0000000008+I20000000000+0000002290+Z
113974001113974079-000807     113974006003000670277ART+CRAFT WOODEN STICKS0000001000+00001490+00000+0001T   00001490+0000001153          1400 I54130               1AZ
113974002113974903-000155     113974006009803374435SWT LOLLY I LUV U HEART0000001000+00000525+00000+0001T   00000525+0000001153          1400 I54150               1AZ
113975000113975               113975               170213J4     1400+00000+J40000001312+0000001312+000000000+000000185+0000001490+0000000007+I20000000000+0000001490+Z
113975001113975903-000155     113975006009803374435SWT LOLLY I LUV U HEART0000002000+00000525+00000+0001T   00000525+0000001157          1400 I54150               1AZ
113975002113975903-000216     113975006925925900966SWT MALLOW TWIST ERKO  0000001000+00000262+00000+0001T   00000262+0000001157          1400 I54150               1AZ
113976000113976               113976               170213J4     1400+00000+J40000005835+0000005835+000000000+000000818+0000006653+0000000000+I40000006653+0000000000+Z
113976001113976368-000001     113976006003000097982Plush Bear 25cm        0000001000+00004385+00000+0001T   00004385+0000001204          1400 I54745               1AZ
113976002113976304-001204     113976006001023737984FLOWER OCC. TEDDY/ROSES0000001000+00001402+00000+0001T   00001490+0006471204          1400 I54510               1AZ
113976003113976112-116069     113976006009681820277TCS CARRIER BAG JUMBO  0000001000+00000048+00000+0001T   00000048+0000001204          1400 I54090               1AZ
113977000113977               113977               170213J4     1400+00000+J40000009505+0000009505+000000000+000001331+0000010830+0000000006+I20000000000+0000010830+Z
113977001113977368-000049     113977006003000536955PLUSH BEAR 15cm LOVE   0000002000+00004385+00000+0001T   00004385+0000001400          1400 I54745               1AZ
113977002113977018-000177     113977006001023797513MUG MINI LOVE ASSTD    0000001000+00000700+00000+0001T   00000700+0000001400          1400 I54515               1AZ
113977003113977112-116038     113977006009681820246TCS CARRIER BAG MIDI   0000001000+00000035+00000+0001T   00000035+0000001400          1400 I54090               1AZ
113978000113978               113978               170213J4     1400+00000+J40000001227+0000001227+000000000+000000172+0000001390+0000000009+I20000000000+0000001390+Z
113978001113978071-081091     113978006001151010287STAED/GENKEM ALL-STICK 0000001000+00001227+00000+0001T   00001227+0000001401          1400 I54130               1AZ
113979000113979               113979               170213J4     1400+00000+J40000012232+0000012232+000000000+000001715+0000013947+0000000000+I40000013947+0000000000+Z
113979001113979028-000797     113979006001023812124SKEWERS 15cm 100PCE    0000003000+00000876+00000+0001T   00000876+0000001404          1400 I54305               1AZ
113979002113979903-004950     113979006002580020304SWT APRICOT SURPRISE   0000001000+00001314+00000+0001T   00001314+0000001404          1400 I54150               1AZ
113979003113979079-000334     113979006003000670437THERAPY P/CRAYONS 18   0000001000+00005262+00000+0001T   00005262+0000001404          1400 I54130               1AZ
113979004113979077-000245     113979006001023759214GIFT-RIBBON METALLICx2 0000001000+00001227+00000+0001T   00001227+0000001404          1400 I54112               1AZ
113979005113979108-005005     113979006003000667451TRAY PL 29x21cm RECT   0000001000+00001753+00000+0001T   00001753+0000001404          1400 I54210               1AZ
113979006113979112-116069     113979006009681820277TCS CARRIER BAG JUMBO  0000001000+00000048+00000+0001T   00000048+0000001404          1400 I54090               1AZ
113980000113980               113980               170213J4     1400+00000+J40000008770+0000008770+000000000+000001228+0000009998+0000000000+I40000009998+0000000000+Z
113980001113980174-000173     113980006001023905307STORAGE-BOX COLLAPSIBLE0000002000+00004385+00000+0001T   00004385+0000001410          1400 I54205               1AZ
113981000113981               113981               170213J4     1400+00000+J40000001227+0000001227+000000000+000000172+0000001390+0000000009+I20000000000+0000001390+Z
113981001113981071-081091     113981006001151010287STAED/GENKEM ALL-STICK 0000001000+00001227+00000+0001T   00001227+0000001411          1400 I54130               1AZ
113982000113982               113982               170213J4     1400+00000+J40000001312+0000001312+000000000+000000185+0000001490+0000000007+I20000000000+0000001490+Z
113982001113982903-000482     113982006001704001397SWT SOFT-MINTS 60G     0000001000+00000876+00000+0001T   00000876+0000001431          1400 I54150               1AZ
113982002113982903-000671     113982006009803358015SWT SHERBET BLUE LIPS  0000001000+00000218+00000+0001T   00000218+0000001431          1400 I54150               1AZ
113982003113982903-000670     113982006009803358008SWT SHERBET RED LIPS   0000001000+00000218+00000+0001T   00000218+0000001431          1400 I54150               1AZ
113983000113983               113983               170213J4     1400+00000+J40000006534+0000006534+000000000+000000917+0000007451+0000000000+I40000007451+0000000000+Z
113983001113983077-000305     113983006003000395422GIFT-BAG WINE 10X35CM  0000002000+00001490+00000+0001T   00001490+0000001435          1400 I54112               1AZ
113983002113983206-000120     113983006003000628308PEELER CARROT SHARPENER0000001000+00001753+00000+0001T   00001753+0000001435          1400 I54321               1AZ
113983003113983039-001023     113983006003000466337CANDLE TEA-LITE METALIC0000001000+00001753+00000+0001T   00001753+0000001435          1400 I54510               1AZ
113983004113983112-116069     113983006009681820277TCS CARRIER BAG JUMBO  0000001000+00000048+00000+0001T   00000048+0000001435          1400 I54090               1AZ
113984000113984               113984               170213J4     1400+00000+J40000001753+0000001753+000000000+000000246+0000001990+0000000009+I20000000000+0000001990+Z
113984001113984072-020353     113984006001023598097DOG/CAT-BOWL 17cm      0000001000+00001753+00000+0001T   00001753+0000001436          1400 I54870               1AZ
113985000113985               113985               170213J4     1400+00000+J40000003156+0000003156+000000000+000000442+0000003590+0000000008+I20000000000+0000003590+Z
113985001113985077-000303     113985006001023593757GIFT-BAG PAPER MED     0000002000+00001578+00000+0001T   00001578+0000001437          1400 I54112               1AZ
113986000113986               113986               170213J4     1400+00000+J40000002630+0000002630+000000000+000000369+0000002990+0000000009+I20000000000+0000002990+Z
113986001113986566-000367     113986006003000645558STICKER WINDOW DECOR   0000001000+00002630+00000+0001T   00002630+0000001439          1400 I54130               1AZ
113987000113987               113987               170213J4     1400+00000+J40000014031+0000014031+000000000+000001966+0000015997+0000000000+I40000015997+0000000000+Z
113987001113987079-001003     113987006003000588640ART+CRAFT PAINT CANVAS 0000001000+00010525+00000+0001T   00010525+0000001448          1400 I54130               1AZ
113987002113987046-000002     113987006001023585202BATTERIES SIZE:C   2PCE0000002000+00001753+00000+0001T   00001753+0000001448          1400 I54312               1AZ
113988000113988               113988               170213J4     1400+00000+J40000005957+0000005957+000000000+000000836+0000006790+0000000003+I20000000000+0000006790+Z
113988001113988002-000800     113988006001023770660PEELER MTL/PL WHITE    0000001000+00001139+00000+0001T   00001139+0000001450          1400 I54300               1AZ
113988002113988002-021057     113988006001023812032T/PICKS UMBRELLAS 10PCE0000001000+00000876+00000+0001T   00000876+0000001450          1400 I54300               1AZ
113988003113988039-000108     113988006001023524034TEA-LITE CANDLES 8PCE  0000001000+00001490+00000+0001T   00001490+0000001450          1400 I54510               1AZ
113988004113988200-000065     113988006001023323675DRINKING-STRAWS 38PCE  0000001000+00000613+00000+0001T   00000613+0000001450          1400 I54214               1AZ
113988005113988903-000844     113988005010478432567SWT CANDY DL LUV HEARTS0000001000+00001314+00000+0001T   00001314+0000001450          1400 I54150               1AZ
113988006113988903-000155     113988006009803374435SWT LOLLY I LUV U HEART0000001000+00000525+00000+0001T   00000525+0000001450          1400 I54150               1AZ
113989000113989               113989               170213J4     1400+00000+J40000001490+0000001490+000000000+000000209+0000001690+0000000009+I20000000000+0000001690+Z
113989001113989077-000304     113989006001023483232GIFT-BAG 25X32CM E/DAY 0000001000+00001490+00000+0001T   00001490+0000001501          1400 I54112               1AZ
113990000113990               113990               170213J4     1400+00000+J40000009995-0000000000+000000000+000000000+0000010000-0000000005+I20000000000+0000010000-Z
113990001113990001-999913     113990000000000999913BUDGET - CAKE          0000001000-00009995+00000+0001X   00000000+0000001512          0000 I549141IC            1 Z
113991000113991               113991               170213J4     1400+00000+J40000002630+0000002630+000000000+000000369+0000002990+0000000009+I20000000000+0000002990+Z
113991001113991140-006008     113991006001023803214FLY-SWATTERS   SET-OF-40000001000+00002630+00000+0001T   00002630+0000001612          1400 I54830               1AZ
113992000113992               113992               170213J4     1400+00000+J40000009200-0000000000+000000000+000000000+0000009200-0000000000+I20000000000+0000009200-Z
113992001113992001-999901     113992000000000999901CASUAL WAGES           0000001000-00009200+00000+0001X  8408020995087 0500NSTHOL0000000000 I549011IC E          1 Z
113993000113993               113993               170213J4     1400+00000+J40000002363+0000002363+000000000+000000333+0000002690+0000000006+I20000000000+0000002690+Z
113993001113993903-000155     113993006009803374435SWT LOLLY I LUV U HEART0000003000+00000525+00000+0001T   00000525+0000001615          1400 I54150               1AZ
113993002113993903-000200     113993006009826020234SWT CHOC RP CHOCO 23G  0000001000+00000788+00000+0001T   00000788+0000001615          1400 I54150               1AZ
113994000113994               113994               170213J4     1400+00000+J40000003942+0000003942+000000000+000000552+0000004494+0000000000+I40000004494+0000000000+Z
113994001113994903-000194     113994006009826020616SWT CHOC RP LOLLY 25G  0000003000+00001314+00000+0001T   00001314+0000001704          1400 I54150               1AZ
113995000113995               113995               170213J4     1400+00000+J40000001788+0000001788+000000000+000000251+0000002030+0000000009+I20000000000+0000002030+Z
113995001113995080-000113     113995006003000237449CARD&ENVLPE - LOVE     0000001000+00001753+00000+0001T   00001753+0000001705          1400 I54112               1AZ
113995002113995112-116038     113995006009681820246TCS CARRIER BAG MIDI   0000001000+00000035+00000+0001T   00000035+0000001705          1400 I54090               1AZ
113996000113996               113996               170213J4     1400+00000+J40000006139+0000006139+000000000+000000860+0000006999+0000000000+I40000006999+0000000000+Z
113996001113996497-068614     113996000078257686148H/PUMP HIGH-O/PUT 36cm 0000001000+00006139+00000+0001T   00006139+0000001730          1400 I54787               1AZ
113997000113997               113997               170213J4     1400+00000+J40000001490+0000001490+000000000+000000209+0000001690+0000000009+I20000000000+0000001690+Z
113997001113997079-000512     113997006001023635853CRAYONS WAX 12-COLOUR  0000001000+00001490+00000+0001T   00001490+0000001740          1400 I54130               1AZ
113998000113998               113998               170213J4     1400+00000+J40000000876+0000000876+000000000+000000123+0000000990+0000000009+I20000000000+0000000990+Z
113998001113998903-000221     113998006001704007382SWT EENY-MEENY-MOS 60G 0000001000+00000876+00000+0001T   00000876+0000001744          1400 I54150               1AZ
113999000113999               113999               170213J4     1400+00000+J40000004120+0000004120+000000000+000000578+0000004690+0000000008+I20000000000+0000004690+Z
113999001113999018-000129     113999006001023403353MUG OCC. LOVE V-SHAPE  0000001000+00002630+00000+0001T   00002630+0000001755          1400 I54515               1AZ
113999002113999077-000305     113999006003000395422GIFT-BAG WINE 10X35CM  0000001000+00001490+00000+0001T   00001490+0000001755          1400 I54112               1AZ
114000000114000               114000               170213J4     1400+00000+J40000000876+0000000876+000000000+000000123+0000000990+0000000009+I20000000000+0000000990+Z
114000001114000039-000319-3   114000006003000442621B/CANDLES LRG NUMBER-3 0000001000+00000876+00000+0001T   00000876+0000001756          1400 I54510               1AZ
A17021300                                          09172868J4SLAVE 1                       I541IC
A17021301                                          17075468J4SLAVE 1                       I541IC
M17021391                              CASH        J4SLAVE 1                       Z-REPORT No.   625TOTAL (Sales - Refunds)           2308.30       CASH TO BE BANKED                 1068.50       DEBIT CARDS                          0.00       CREDIT CARDS                      1047.80       Z-READING                         2116.30       AIRTIME DEBIT CARD SALES             0.00       AIRTIME CARD SALES                   0.00       OVERS/UNDERS                         0.00       AIRTIME CASH SALES                   0.00       GIFT CARDS                           0.00       GIFT CARD CASH SALES                 0.00       BUDGET - CAKE                       99.95       CASUAL WAGES                        92.00       ROUNDING                             0.05       T O T A L  CASH PAYOUTS            192.00                                                                                                                                                                                                      Z
M17021392                              CASH        J4ABSENT                                                                                                                                                                                          ANNUAL LEAVE                                                                                                                                                                                    DAY OFF                                                                                                                                                                                         COMMENTS                                                                                                                                                                                                                                                                                                                                                                                       Z
Y17021300                                          J400000000204437+000049
ZJ417021319513 SLAVE 1      SALES DATA                     NEXT INVOICE NO.  114001 0625
X J4 Slave 1 First invoice 113950 170213 Last invoice 114000 170213 Next invoice 114001 Total number of records 000000141 clbackup completed 19:51:26
