128131000128131               128131               170213J4     1400+00000+J40000003507+0000003507+000000000+000000491+0000003990+0000000008+I20000000000+0000003990+Z
128131001128131200-000011     128131006003000613489DISPOSABLE BAG ZIPER   0000001000+00003507+00000+0001T   00003507+0000001205          1400 EO7214               2AZ
128132000128132               128132               170213J4     1400+00000+J40000008155+0000008155+000000000+000001142+0000009297+0000000000+I40000009297+0000000000+Z
128132001128132007-010505     128132006003000670406BLACKBOARD VINYL       0000001000+00004385+00000+0001T   00004385+0000001210          1400 EO7130               2AZ
128132002128132080-000124     128132006003000297733CARD & ENV VALENTINES  0000001000+00001578+00000+0001T   00001578+0000001210          1400 EO7112               2AZ
128132003128132018-000170     128132006001023775528MUG OCC. LOVE 2PC MINI 0000001000+00002192+00000+0001T   00002192+0000001210          1400 EO7515               2AZ
128133000128133               128133               170213J4     1400+00000+J40000003104+0000003104+000000000+000000435+0000003530+0000000009+I20000000000+0000003530+Z
128133001128133072-020314     128133006003000605453PET TOY PUP VINYL CHICK0000001000+00003069+00000+0001T   00003069+0000001218          1400 EO7870               2AZ
128133002128133112-116038     128133006009681820246TCS CARRIER BAG MIDI   0000001000+00000035+00000+0001T   00000035+0000001218          1400 EO7090               2AZ
128134000128134               128134               170213J4     1400+00000+J40000003506+0000003506+000000000+000000492+0000003990+0000000008+I20000000000+0000003990+Z
128134001128134080-000112     128134006003000252749CARD&ENVLP BDAY-MUSICAL0000002000+00001753+00000+0001T   00001753+0000001220          1400 EO7112               2AZ
128135000128135               128135               170213J4     1400+00000+J40000004822+0000004822+000000000+000000676+0000005498+0000000000+I40000005498+0000000000+Z
128135001128135562-088335     128135006003000425372EVA PUZZLE MAT MINI    0000001000+00001753+00000+0001T   00001753+0000001223          1400 EO7755               2AZ
128135002128135002-000652     128135006001023553188M/SPOON WDN 3PC H/HOUSE0000001000+00003069+00000+0001T   00003069+0000001223          1400 EO7300               2AZ
128136000128136               128136               170213J4     1400+00000+J40000001752+0000001752+000000000+000000246+0000001998+0000000000+I40000001998+0000000000+Z
128136001128136077-000302     128136008010410010195GIFT-BAG 18X23CM E/D   0000001000+00000876+00000+0001T   00000876+0000001225          1400 EO7112               2AZ
128136002128136306-000021-A   128136006001023891358EARBUDS COTTON 100PCE  0000001000+00000876+00000+0001T   00000876+0000001225          1400 EO7200               2AZ
128137000128137               128137               170213J4     1400+00000+J40000004420+0000004420+000000000+000000619+0000005030+0000000009+I20000000000+0000005030+Z
128137001128137368-000001     128137006003000097982Plush Bear 25cm        0000001000+00004385+00000+0001T   00004385+0000001230          1400 EO7745               2AZ
128137002128137112-116038     128137006009681820246TCS CARRIER BAG MIDI   0000001000+00000035+00000+0001T   00000035+0000001230          1400 EO7090               2AZ
128138000128138               128138               170213J4     1400+00000+J40000005908+0000005908+000000000+000000829+0000006730+0000000007+I20000000000+0000006730+Z
128138001128138112-116038     128138006009681820246TCS CARRIER BAG MIDI   0000001000+00000035+00000+0001T   00000035+0000001231          1400 EO7090               2AZ
128138002128138072-020305     128138006003000024261PET DOG ASST CANVAS TOY0000001000+00002630+00000+0001T   00002630+0000001231          1400 EO7870               2AZ
128138003128138072-020309     128138006001023700995DOG-TOY DUMBELL F/BALL 0000001000+00002630+00000+0001T   00002630+0000001231          1400 EO7870               2AZ
128138004128138304-001011     128138006001023806727FLWR ROSE RED W/BEAR   0000001000+00000613+00000+0001T   00000788+0006471231          1400 EO7510               2AZ
128139000128139               128139               170213J4     1400+00000+J40000002192+0000002192+000000000+000000307+0000002499+0000000000+I40000002499+0000000000+Z
128139001128139080-000127     128139006003000424351VALENTINES DAY 36x24CM 0000001000+00002192+00000+0001T   00002192+0000001239          1400 EO7112               2AZ
128140000128140               128140               170213J4     1400+00000+J40000007892+0000007892+000000000+000001106+0000008998+0000000000+I40000008998+0000000000+Z
128140001128140018-005007     128140006003000515516MUG OCC. LOVE W/HEARTS 0000001000+00006139+00000+0001T   00006139+0000001247          1400 EO7515               2AZ
128140002128140077-000316     128140006001023609731GIFT-BAG 25X32CM MATT  0000001000+00001753+00000+0001T   00001753+0000001247          1400 EO7112               2AZ
128141000128141               128141               170213J4     1400+00000+J40000006872+0000006872+000000000+000000963+0000007830+0000000005+I20000000000+0000007830+Z
128141001128141003-009202     128141006003000405725ORN STONE FLOWERPOT    0000001000+00002630+00000+0001T   00002630+0000001251          1400 EO7505               2AZ
128141002128141089-000018     128141006003000176724KEY CHAIN INSPIRATION  0000001000+00003507+00000+0001T   00003507+0000001251          1400 EO7205               2AZ
128141003128141112-116038     128141006009681820246TCS CARRIER BAG MIDI   0000001000+00000035+00000+0001T   00000035+0000001251          1400 EO7090               2AZ
128141004128141464-000121     128141006003000640492PLAYING CARDS MINI     0000001000+00000700+00000+0001T   00000700+0000001251          1400 EO7785               2AZ
128142000128142               128142               170213J4     1400+00000+J40000001753+0000001753+000000000+000000246+0000001990+0000000009+I20000000000+0000001990+Z
128142001128142200-003024     128142006001023657299REFUSE BAGS 20PCE BLACK0000001000+00001753+00000+0001T   00001753+0000001300          1400 EO7214               2AZ
128143000128143               128143               170213J4     1400+00000+J40000019242+0000019242+000000000+000002698+0000021940+0000000000+I40000021940+0000000000+Z
128143001128143112-116069     128143006009681820277TCS CARRIER BAG JUMBO  0000001000+00000048+00000+0001T   00000048+0000001302          1400 EO7090               2AZ
128143002128143301-085008     128143006003000673933ORN OCC.LOVE TINSEL HRT0000001000+00003069+00000+0001T   00003069+0000001302          1400 EO7505               2AZ
128143003128143077-000470     128143006003000330171G-BAG DESGN SML 11X14CM0000002000+00001314+00000+0001T   00001314+0000001302          1400 EO7112               2AZ
128143004128143077-000311     128143006001023608666GIFT-BAG 11X14CM GLOSS 0000001000+00000613+00000+0001T   00000613+0000001302          1400 EO7112               2AZ
128143005128143077-000011-C   128143006001023808523TISSUE 10xSHTS RED     0000001000+00000876+00000+0001T   00000876+0000001302          1400 EO7112               2AZ
128143006128143006-000124     128143006003000625888BALLOONS 10PC MIX COL  0000001000+00001753+00000+0001T   00001753+0000001302          1400 EO7131               2AZ
128143007128143089-060027     128143006003000245871KEY-CHAIN HEART 6X6cm  0000002000+00003069+00000+0001T   00003069+0000001302          1400 EO7205               2AZ
128143008128143030-000010     128143006003000084395P/DOOR HANGER 2-ASSTD  0000001000+00001314+00000+0001T   00001490+0008181302          1400 EO7505               2AZ
128143009128143903-000155     128143006009803374435SWT LOLLY I LUV U HEART0000002000+00000525+00000+0001T   00000525+0000001302          1400 EO7150               2AZ
128143010128143903-000081     128143006001704014076SWT F/PASTILLES 100G   0000001000+00001753+00000+0001T   00001753+0000001302          1400 EO7150               2AZ
128144000128144               128144               170213J4     1400+00000+J40000001314+0000001314+000000000+000000184+0000001490+0000000008+I20000000000+0000001490+Z
128144001128144903-000194     128144006009826020616SWT CHOC RP LOLLY 25G  0000001000+00001314+00000+0001T   00001314+0000001303          1400 EO7150               2AZ
128145000128145               128145               170213J4     1400+00000+J40000003541+0000003541+000000000+000000497+0000004030+0000000008+I20000000000+0000004030+Z
128145001128145080-000113     128145006003000237449CARD&ENVLPE - LOVE     0000001000+00001753+00000+0001T   00001753+0000001309          1400 EO7112               2AZ
128145002128145003-000250     128145006003000035045ORN DECOR NOVELTY GRASS0000001000+00001753+00000+0001T   00001753+0000001309          1400 EO7505               2AZ
128145003128145112-116038     128145006009681820246TCS CARRIER BAG MIDI   0000001000+00000035+00000+0001T   00000035+0000001309          1400 EO7090               2AZ
128146000128146               128146               170213J4     1400+00000+J40000001752+0000001752+000000000+000000246+0000001990+0000000008+I20000000000+0000001990+Z
128146001128146077-000314     128146006003000181148GIFT-BAG 11X14CM MATT  0000002000+00000876+00000+0001T   00000876+0000001311          1400 EO7112               2AZ
128147000128147               128147               170213J4     1400+00000+J40000003541+0000003541+000000000+000000497+0000004030+0000000008+I20000000000+0000004030+Z
128147001128147200-003024     128147006001023657299REFUSE BAGS 20PCE BLACK0000002000+00001753+00000+0001T   00001753+0000001315          1400 EO7214               2AZ
128147002128147112-116038     128147006009681820246TCS CARRIER BAG MIDI   0000001000+00000035+00000+0001T   00000035+0000001315          1400 EO7090               2AZ
128148000128148               128148               170213J4     1400+00000+J40000003542+0000003542+000000000+000000496+0000004030+0000000008+I20000000000+0000004030+Z
128148001128148031-000923     128148006001023669933P/FRAME BLK W/WORDS    0000001000+00003507+00000+0001T   00003507+0000001320          1400 EO7510               2AZ
128148002128148112-116038     128148006009681820246TCS CARRIER BAG MIDI   0000001000+00000035+00000+0001T   00000035+0000001320          1400 EO7090               2AZ
128149000128149               128149               170213J4     1400+00000+J40000022054+0000022054+000000000+000003090+0000025144+0000000000+I40000025144+0000000000+Z
128149001128149903-000200     128149006009826020234SWT CHOC RP CHOCO 23G  0000002000+00000788+00000+0001T   00000788+0000001335          1400 EO7150               2AZ
128149002128149112-116069     128149006009681820277TCS CARRIER BAG JUMBO  0000001000+00000048+00000+0001T   00000048+0000001335          1400 EO7090               2AZ
128149003128149001-000175     128149006001023788108B/MUG GLS LOVE 380ML   0000001000+00004385+00000+0001T   00004385+0000001335          1400 EO7515               2AZ
128149004128149018-050000     128149006003000412679MUG OCC LOVE TWIN BEAR 0000001000+00006139+00000+0001T   00006139+0000001335          1400 EO7515               2AZ
128149005128149018-000130     128149006001023867537MUG OCC LOVE MINI+HEART0000001000+00003507+00000+0001T   00003507+0000001335          1400 EO7515               2AZ
128149006128149301-085004     128149006003000420469ORN LOVE PLAQUE 21X10CM0000001000+00003507+00000+0001T   00003946+0006471335          1400 EO7505               2AZ
128149007128149018-000177     128149006001023797513MUG MINI LOVE ASSTD    0000001000+00000700+00000+0001T   00000700+0000001335          1400 EO7515               2AZ
128149008128149566-000359     128149006003000582709STICKER BOOK LOVE SPARK0000001000+00002192+00000+0001T   00002192+0000001335          1400 EO7130               2AZ
128150000128150               128150               170213J4     1400+00000+J40000001753+0000001753+000000000+000000246+0000001990+0000000009+I20000000000+0000001990+Z
128150001128150080-000101     128150006003000236732CARD&ENVLPE FEMALE     0000001000+00001753+00000+0001T   00001753+0000001335          1400 EO7112               2AZ
128151000128151               128151               170213J4     1400+00000+J40000010114+0000010114+000000000+000001419+0000011530+0000000003+I20000000000+0000011530+Z
128151001128151112-116038     128151006009681820246TCS CARRIER BAG MIDI   0000001000+00000035+00000+0001T   00000035+0000001337          1400 EO7090               2AZ
128151002128151028-000014     128151006001334001316ICE-BRICK SOLID MEDIUM 0000005000+00001753+00000+0001T   00001753+0000001337          1400 EO7305               2AZ
128151003128151464-000253     128151006001023341402GAME LUDO       POLYBAG0000001000+00001314+00000+0001T   00001314+0000001337          1400 EO7785               2AZ
128152000128152               128152               170213J4     1400+00000+J40000005998+0000005998+000000000+000000840+0000006830+0000000008+I20000000000+0000006830+Z
128152001128152566-001234     128152006003000217793STICKERS LASER ASSTD   0000001000+00001578+00000+0001T   00001578+0000001338          1400 EO7130               2AZ
128152002128152004-071270     128152006001023802156CD-DISCS WRITABLE 10PCE0000001000+00004385+00000+0001T   00004385+0000001338          1400 EO7310               2AZ
128152003128152112-116038     128152006009681820246TCS CARRIER BAG MIDI   0000001000+00000035+00000+0001T   00000035+0000001338          1400 EO7090               2AZ
128153000128153               128153               170213J4     1400+00000+J40000005309+0000005309+000000000+000000744+0000006050+0000000003+I20000000000+0000006050+Z
128153001128153301-085008     128153006003000673933ORN OCC.LOVE TINSEL HRT0000001000+00003069+00000+0001T   00003069+0000001340          1400 EO7505               2AZ
128153002128153563-000318-L   128153006003000407088SERVIETTES 33cm RED    0000001000+00002192+00000+0001T   00002192+0000001340          1400 EO7214               2AZ
128153003128153112-116069     128153006009681820277TCS CARRIER BAG JUMBO  0000001000+00000048+00000+0001T   00000048+0000001340          1400 EO7090               2AZ
128154000128154               128154               170213J4     1400+00000+J40000003243+0000003243+000000000+000000455+0000003690+0000000008+I20000000000+0000003690+Z
128154001128154071-001015     128154006001023910387MARKERS PERMANENT 3PK  0000001000+00001753+00000+0001T   00001753+0000001342          1400 EO7130               2AZ
128154002128154071-081100-A   128154006003000326426GLUE-STICK 25g 2pk     0000001000+00001490+00000+0001T   00001490+0000001342          1400 EO7130               2AZ
128155000128155               128155               170213J4     1400+00000+J40000002926+0000002926+000000000+000000411+0000003330+0000000007+I20000000000+0000003330+Z
128155001128155018-000127     128155006001023380289MUG OCC STRAIGHT LOVE  0000001000+00001578+00000+0001T   00001753+0006471346          1400 EO7515               2AZ
128155002128155080-000133-A   128155006003000647019MINI VALENTINES CARD   0000001000+00000437+00000+0001T   00000437+0000001346          1400 EO7112               2AZ
128155003128155077-000302     128155008010410010195GIFT-BAG 18X23CM E/D   0000001000+00000876+00000+0001T   00000876+0000001346          1400 EO7112               2AZ
128155004128155112-116038     128155006009681820246TCS CARRIER BAG MIDI   0000001000+00000035+00000+0001T   00000035+0000001346          1400 EO7090               2AZ
128156000128156               128156               170213J4     1400+00000+J40000006576+0000006576+000000000+000000921+0000007497+0000000000+I40000007497+0000000000+Z
128156001128156105-001031     128156000700371696627FOODSAVER 800ml        0000001000+00001314+00000+0001T   00001314+0000001347          1400 EO7210               2AZ
128156002128156106-001120     128156006922286920282W/BOTTLE ALUM 750ml    0000001000+00005262+00000+0001T   00005262+0000001347          1400 EO7210               2AZ
128157000128157               128157               170213J4     1400+00000+J40000000613+0000000613+000000000+000000086+0000000690+0000000009+I20000000000+0000000690+Z
128157001128157089-000021     128157006009697230923KEY CHAIN ID           0000001000+00000613+00000+0001T   00000613+0000001349          1400 EO7205               2AZ
128158000128158               128158               170213J4     1400+00000+J40000001314+0000001314+000000000+000000184+0000001490+0000000008+I20000000000+0000001490+Z
128158001128158046-000012     128158006904708013062BATTERIES AA  CARD-OF-40000001000+00001314+00000+0001T   00001314+0000001401          1400 EO7312               2AZ
128159000128159               128159               170213J4     1400+00000+J40000000437+0000000437+000000000+000000062+0000000490+0000000009+I20000000000+0000000490+Z
128159001128159083-000049     128159004891035200024CIG-LIGHTER DISPOSABLE 0000001000+00000437+00000+0001T   00000437+0000001517          1400 EO7315               2AZ
128160000128160               128160               170213J4     1400+00000+J40000006139+0000006139+000000000+000000860+0000006999+0000000000+I40000006999+0000000000+Z
128160001128160039-000798     128160006001023617774CANDLES TEALITE BOX-50 0000001000+00006139+00000+0001T   00006139+0000001518          1400 EO7510               2AZ
128161000128161               128161               170213J4     1400+00000+J40000010723+0000010723+000000000+000001506+0000012220+0000000009+I20000000000+0000012220+Z
128161001128161112-116038     128161006009681820246TCS CARRIER BAG MIDI   0000001000+00000035+00000+0001T   00000035+0000001523          1400 EO7090               2AZ
128161002128161304-001011     128161006001023806727FLWR ROSE RED W/BEAR   0000006000+00000613+00000+0001T   00000788+0006471523          1400 EO7510               2AZ
128161003128161304-001204     128161006001023737984FLOWER OCC. TEDDY/ROSES0000005000+00001402+00000+0001T   00001490+0006471523          1400 EO7510               2AZ
128162000128162               128162               170213J4     1400+00000+J40000000876+0000000876+000000000+000000123+0000000990+0000000009+I20000000000+0000000990+Z
128162001128162047-000505     128162006009636901976PLUG-ADAPTOR 2-PIN     0000001000+00000876+00000+0001T   00000876+0000001524          1400 EO7880               2AZ
128163000128163               128163               170213J4     1400+00000+J40000003191+0000003191+000000000+000000447+0000003630+0000000008+I20000000000+0000003630+Z
128163001128163018-000127     128163006001023380289MUG OCC STRAIGHT LOVE  0000002000+00001578+00000+0001T   00001753+0006471526          1400 EO7515               2AZ
128163002128163112-116038     128163006009681820246TCS CARRIER BAG MIDI   0000001000+00000035+00000+0001T   00000035+0000001526          1400 EO7090               2AZ
128164000128164               128164               170213J4     1400+00000+J40000001139+0000001139+000000000+000000160+0000001290+0000000009+I20000000000+0000001290+Z
128164001128164903-000087     128164006001704000161SWT SPECKLED-EGGS 50G  0000001000+00001139+00000+0001T   00001139+0000001527          1400 EO7150               2AZ
128165000128165               128165               170213J4     1400+00000+J40000004385+0000004385+000000000+000000614+0000004990+0000000009+I20000000000+0000004990+Z
128165001128165082-000120     128165006003000360727READING GLS STRENGTH:3 0000001000+00004385+00000+0001T   00004385+0000001532          1400 EO7160               2AZ
128166000128166               128166               170213J4     1400+00000+J40000001788+0000001788+000000000+000000251+0000002030+0000000009+I20000000000+0000002030+Z
128166001128166080-000113     128166006003000237449CARD&ENVLPE - LOVE     0000001000+00001753+00000+0001T   00001753+0000001533          1400 EO7112               2AZ
128166002128166112-116038     128166006009681820246TCS CARRIER BAG MIDI   0000001000+00000035+00000+0001T   00000035+0000001533          1400 EO7090               2AZ
128167000128167               128167               170213J4     1400+00000+J40000011258+0000011258+000000000+000001578+0000012830+0000000006+I20000000000+0000012830+Z
128167001128167112-116038     128167006009681820246TCS CARRIER BAG MIDI   0000001000+00000035+00000+0001T   00000035+0000001536          1400 EO7090               2AZ
128167002128167368-000001     128167006003000097982Plush Bear 25cm        0000001000+00004385+00000+0001T   00004385+0000001536          1400 EO7745               2AZ
128167003128167466-002096     128167006001023800398CATCHBALL VELCRO W/BALL0000001000+00005262+00000+0001T   00005262+0000001536          1400 EO7785               2AZ
128167004128167903-000200     128167006009826020234SWT CHOC RP CHOCO 23G  0000002000+00000788+00000+0001T   00000788+0000001536          1400 EO7150               2AZ
128168000128168               128168               170213J4     1400+00000+J40000012764+0000012764+000000000+000001788+0000014552+0000000000+I40000014552+0000000000+Z
128168001128168903-000194     128168006009826020616SWT CHOC RP LOLLY 25G  0000001000+00001314+00000+0001T   00001314+0000001543          1400 EO7150               2AZ
128168002128168368-000637     128168006001023874092PLUSH BEAR SLEEPING LOV0000001000+00011402+00000+0001T   00012279+0006471543          1400 EO7745               2AZ
128168003128168112-116069     128168006009681820277TCS CARRIER BAG JUMBO  0000001000+00000048+00000+0001T   00000048+0000001543          1400 EO7090               2AZ
128169000128169               128169               170213J4     1400+00000+J40000000613+0000000613+000000000+000000086+0000000690+0000000009+I20000000000+0000000690+Z
128169001128169077-000311     128169006001023608666GIFT-BAG 11X14CM GLOSS 0000001000+00000613+00000+0001T   00000613+0000001547          1400 EO7112               2AZ
128170000128170               128170               170213J4     1400+00000+J40000005260+0000005260+000000000+000000738+0000005990+0000000008+I20000000000+0000005990+Z
128170001128170463-000366     128170006001023789136SWIM W/NOODLE 150cm    0000002000+00002630+00000+0001T   00002630+0000001548          1400 EO7785               2AZ
128171000128171               128171               170213J4     1400+00000+J40000004384+0000004384+000000000+000000614+0000004990+0000000008+I20000000000+0000004990+Z
128171001128171200-000067     128171006003000330683STRAWS DRINKING 100PC  0000002000+00002192+00000+0001T   00002192+0000001549          1400 EO7214               2AZ
128172000128172               128172               170213J4     1400+00000+J40000003111+0000003111+000000000+000000437+0000003540+0000000008+I20000000000+0000003540+Z
128172001128172159-000150-B   128172006003000058440SOAP-BOX PL ASSORTED   0000001000+00000832+00000+0001T   00000832+0000001551          1400 EO7200               2AZ
128172002128172027-001020     128172006001246602519BROOM FLOOR W/HANDLE   0000001000+00002279+00000+0001T   00002279+0000001551          1400 EO7212               2AZ
128173000128173               128173               170213J4     1400+00000+J40000007927+0000007927+000000000+000001110+0000009037+0000000000+I40000009037+0000000000+Z
128173001128173018-000130     128173006001023867537MUG OCC LOVE MINI+HEART0000001000+00003507+00000+0001T   00003507+0000001558          1400 EO7515               2AZ
128173002128173368-000049     128173006003000536955PLUSH BEAR 15cm LOVE   0000001000+00004385+00000+0001T   00004385+0000001558          1400 EO7745               2AZ
128173003128173112-116038     128173006009681820246TCS CARRIER BAG MIDI   0000001000+00000035+00000+0001T   00000035+0000001558          1400 EO7090               2AZ
128174000128174               128174               170213J4     1400+00000+J40000003628+0000003628+000000000+000000509+0000004130+0000000007+I20000000000+0000004130+Z
128174001128174159-000114     128174006003000630004SHOWER CAP PVC ASSTD   0000002000+00001490+00000+0001T   00001490+0000001559          1400 EO7200               2AZ
128174002128174083-000055     128174006003000003853LIGHTER ELCTRNC REFILBL0000001000+00000613+00000+0001T   00000613+0000001559          1400 EO7315               2AZ
128174003128174112-116038     128174006009681820246TCS CARRIER BAG MIDI   0000001000+00000035+00000+0001T   00000035+0000001559          1400 EO7090               2AZ
128175000128175               128175               170213J4     1400+00000+J40000003803+0000003803+000000000+000000534+0000004330+0000000007+I20000000000+0000004330+Z
128175001128175083-000050     128175006001023898593LIGHTERS DISPOSABLE    0000001000+00000876+00000+0001T   00000876+0000001603          1400 EO7315               2AZ
128175002128175046-000014     128175006001023725387BATTERIES SIZE:AAA 4PCE0000001000+00001139+00000+0001T   00001139+0000001603          1400 EO7312               2AZ
128175003128175078-000480     128175006008741002332BOSTIK SHOE-REPAIR 25ml0000001000+00001753+00000+0001T   00001753+0000001603          1400 EO7810               2AZ
128175004128175112-116038     128175006009681820246TCS CARRIER BAG MIDI   0000001000+00000035+00000+0001T   00000035+0000001603          1400 EO7090               2AZ
128176000128176               128176               170213J4     1400+00000+J40000007049+0000007049+000000000+000000988+0000008030+0000000007+I20000000000+0000008030+Z
128176001128176567-004952     128176009780636049079TYB G01 ENGLISH        0000001000+00002192+00000+0001T   00002192+0000001605          1400 EO7757               2AZ
128176002128176567-004961     128176009780636049017TYB G01 MATHS          0000001000+00002192+00000+0001T   00002192+0000001605          1400 EO7757               2AZ
128176003128176567-011495     128176000076645122032BK ACTIVITY 96P BIBLE  0000001000+00002630+00000+0001T   00002630+0000001605          1400 EO7757               2AZ
128176004128176112-116038     128176006009681820246TCS CARRIER BAG MIDI   0000001000+00000035+00000+0001T   00000035+0000001605          1400 EO7090               2AZ
128177000128177               128177               170213J4     1400+00000+J40000000876+0000000876+000000000+000000123+0000000990+0000000009+I20000000000+0000000990+Z
128177001128177077-000302     128177008010410010195GIFT-BAG 18X23CM E/D   0000001000+00000876+00000+0001T   00000876+0000001606          1400 EO7112               2AZ
128178000128178               128178               170213J4     1400+00000+J40000001227+0000001227+000000000+000000172+0000001390+0000000009+I20000000000+0000001390+Z
128178001128178077-000322     128178006001023677532GIFT-BAG 18X23CM E/D FL0000001000+00001227+00000+0001T   00001227+0000001607          1400 EO7112               2AZ
128179000128179               128179               170213J4     1400+00000+J40000004384+0000004384+000000000+000000614+0000004990+0000000008+I20000000000+0000004990+Z
128179001128179200-000067     128179006003000330683STRAWS DRINKING 100PC  0000002000+00002192+00000+0001T   00002192+0000001608          1400 EO7214               2AZ
128180000128180               128180               170213J4     1400+00000+J40000004381+0000004381+000000000+000000614+0000004995+0000000000+I40000004995+0000000000+Z
128180001128180079-013032     128180006003000389209SET LETTERS 2 ASSTD    0000001000+00001753+00000+0001T   00001753+0000001613          1400 EO7130               2AZ
128180002128180903-000194     128180006009826020616SWT CHOC RP LOLLY 25G  0000002000+00001314+00000+0001T   00001314+0000001613          1400 EO7150               2AZ
128181000128181               128181               170213J4     1400+00000+J40000003416+0000003416+000000000+000000479+0000003895+0000000000+I40000003895+0000000000+Z
128181001128181903-000200     128181006009826020234SWT CHOC RP CHOCO 23G  0000001000+00000788+00000+0001T   00000788+0000001615          1400 EO7150               2AZ
128181002128181903-000194     128181006009826020616SWT CHOC RP LOLLY 25G  0000002000+00001314+00000+0001T   00001314+0000001615          1400 EO7150               2AZ
128182000128182               128182               170213J4     1400+00000+J40000012148+0000012148+000000000+000001702+0000013850+0000000000+I20000000000+0000013850+Z
128182001128182565-000255     128182006003000585168NOVELTY GLOW SLIME     0000001000+00002455+00000+0001T   00002455+0000001617          1400 EO7745               2AZ
128182002128182366-002803     128182006003000531875DRESS UP POMPOM 2PC SET0000001000+00003507+00000+0001T   00003507+0000001617          1400 EO7131               2AZ
128182003128182361-000114     128182006001023744074DOLL SML 15cm BENDABLE 0000001000+00001753+00000+0001T   00001753+0000001617          1400 EO7725               2AZ
128182004128182007-000653     128182006001023784469NOTE-BOOK SET+PEN+BAG  0000001000+00004385+00000+0001T   00004385+0000001617          1400 EO7130               2AZ
128182005128182112-116069     128182006009681820277TCS CARRIER BAG JUMBO  0000001000+00000048+00000+0001T   00000048+0000001617          1400 EO7090               2AZ
128183000128183               128183               170213J4     1400+00000+J40000009647+0000009647+000000000+000001351+0000010990+0000000008+I20000000000+0000010990+Z
128183001128183077-000151     128183006008766114676GIFT-WRAP C/PHANE ASSTD0000001000+00000876+00000+0001T   00000876+0000001618          1400 EO7112               2AZ
128183002128183039-000799     128183006001023692382CANDLES TEALITE 100PCE 0000001000+00008771+00000+0001T   00008771+0000001618          1400 EO7510               2AZ
128184000128184               128184               170213J4     1400+00000+J40000010296+0000010296+000000000+000001442+0000011738+0000000000+I40000011738+0000000000+Z
128184001128184019-000076     128184006001023757159V/GLASS 25CM C/DESIGN  0000001000+00008771+00000+0001T   00008771+0000001621          1400 EO7510               2AZ
128184002128184077-000305     128184006003000395422GIFT-BAG WINE 10X35CM  0000001000+00001490+00000+0001T   00001490+0000001621          1400 EO7112               2AZ
128184003128184112-116038     128184006009681820246TCS CARRIER BAG MIDI   0000001000+00000035+00000+0001T   00000035+0000001621          1400 EO7090               2AZ
128185000128185               128185               170213J4     1400+00000+J40000013593+0000013593+000000000+000001904+0000015497+0000000000+I40000015497+0000000000+Z
128185001128185080-000127     128185006003000424351VALENTINES DAY 36x24CM 0000001000+00002192+00000+0001T   00002192+0000001632          1400 EO7112               2AZ
128185002128185019-000404     128185006001023845955PLANTER STONE 17X14X13M0000001000+00002630+00000+0001T   00003069+0008171632          1400 EO7510               2AZ
128185003128185368-000614     128185006001023705808PLUSH LOVE 30cm        0000001000+00008771+00000+0001T   00008771+0000001632          1400 EO7745               2AZ
128186000128186               128186               170213J4     1400+00000+J40000000788+0000000788+000000000+000000111+0000000890+0000000009+I20000000000+0000000890+Z
128186001128186903-000200     128186006009826020234SWT CHOC RP CHOCO 23G  0000001000+00000788+00000+0001T   00000788+0000001636          1400 EO7150               2AZ
128187000128187               128187               170213J4     1400+00000+J40000007717+0000007717+000000000+000001081+0000008790+0000000008+I20000000000+0000008790+Z
128187001128187018-005007     128187006003000515516MUG OCC. LOVE W/HEARTS 0000001000+00006139+00000+0001T   00006139+0000001639          1400 EO7515               2AZ
128187002128187077-000323     128187006001023677563G/BAG 25X32CM E/DAY FLO0000001000+00001578+00000+0001T   00001578+0000001639          1400 EO7112               2AZ
128188000128188               128188               170213J4     1400+00000+J40000006139+0000006139+000000000+000000860+0000006990+0000000009+I20000000000+0000006990+Z
128188001128188039-000798     128188006001023617774CANDLES TEALITE BOX-50 0000001000+00006139+00000+0001T   00006139+0000001639          1400 EO7510               2AZ
128189000128189               128189               170213J4     1400+00000+J40000001753+0000001753+000000000+000000246+0000001990+0000000009+I20000000000+0000001990+Z
128189001128189007-000192     128189006009635830062BOOK H/COVER A4 192PAGE0000001000+00001753+00000+0001T   00001753+0000001640          1400 EO7130               2AZ
128190000128190               128190               170213J4     1400+00000+J40000003507+0000003507+000000000+000000491+0000003990+0000000008+I20000000000+0000003990+Z
128190001128190106-001110     128190006001023857880SPORTS-BOTTLES SET-OF-20000001000+00003507+00000+0001T   00003507+0000001640          1400 EO7210               2AZ
128191000128191               128191               170213J4     1400+00000+J40000002015+0000002015+000000000+000000283+0000002290+0000000008+I20000000000+0000002290+Z
128191001128191018-000127     128191006001023380289MUG OCC STRAIGHT LOVE  0000001000+00001578+00000+0001T   00001753+0006471642          1400 EO7515               2AZ
128191002128191080-000133-A   128191006003000647019MINI VALENTINES CARD   0000001000+00000437+00000+0001T   00000437+0000001642          1400 EO7112               2AZ
128192000128192               128192               170213J4     1400+00000+J40000003069+0000003069+000000000+000000430+0000003490+0000000009+I20000000000+0000003490+Z
128192001128192084-009417     128192006001023783493SCISSORS 21+14cm 2PCE  0000001000+00003069+00000+0001T   00003069+0000001642          1400 EO7200               2AZ
128193000128193               128193               170213J4     1400+00000+J40000003542+0000003542+000000000+000000496+0000004038+0000000000+I40000004038+0000000000+Z
128193001128193031-000002-A   128193006003000247103P/FRAME LOVE 7.5X7.5CM 0000001000+00003507+00000+0001T   00003507+0000001648          1400 EO7510               2AZ
128193002128193112-116038     128193006009681820246TCS CARRIER BAG MIDI   0000001000+00000035+00000+0001T   00000035+0000001648          1400 EO7090               2AZ
128194000128194               128194               170213J4     1400+00000+J40000002192+0000002192+000000000+000000307+0000002490+0000000009+I20000000000+0000002490+Z
128194001128194566-000352     128194006001023809261STICKERS LASER ASSTD   0000001000+00002192+00000+0001T   00002192+0000001649          1400 EO7130               2AZ
128195000128195               128195               170213J4     1400+00000+J40000036619+0000036619+000000000+000005130+0000041749+0000000000+I40000041749+0000000000+Z
128195001128195024-000107     128195006001023422071MUFFIN-PAN 12-CUP      0000001000+00009648+00000+0001T   00009648+0000001652          1400 EO7300               2AZ
128195002128195024-000122     128195006003000240746NON-STICK CUP CAKE PAN 0000002000+00011402+00000+0001T   00011402+0000001652          1400 EO7300               2AZ
128195003128195159-000114     128195006003000630004SHOWER CAP PVC ASSTD   0000002000+00001490+00000+0001T   00001490+0000001652          1400 EO7200               2AZ
128195004128195039-000322     128195006001023524157B/CANDLES W/HOLDERS 24 0000001000+00001139+00000+0001T   00001139+0000001652          1400 EO7510               2AZ
128195005128195112-116069     128195006009681820277TCS CARRIER BAG JUMBO  0000001000+00000048+00000+0001T   00000048+0000001652          1400 EO7090               2AZ
128196000128196               128196               170213J4     1400+00000+J40000005260+0000005260+000000000+000000738+0000005990+0000000008+I20000000000+0000005990+Z
128196001128196006-000111     128196006003000519385BALLOONS LARGE 12PCE   0000001000+00002630+00000+0001T   00002630+0000001652          1400 EO7131               2AZ
128196002128196006-000104     128196006001023990112BALLOONS 40PC AIR PUMP 0000001000+00002630+00000+0001T   00002630+0000001652          1400 EO7131               2AZ
128197000128197               128197               170213J4     1400+00000+J40000004385+0000004385+000000000+000000614+0000004990+0000000009+I20000000000+0000004990+Z
128197001128197368-006004     128197006003000671076PLUSH DOLPHIN          0000001000+00004385+00000+0001T   00004385+0000001653          1400 EO7745               2AZ
128198000128198               128198               170213J4     1400+00000+J40000003506+0000003506+000000000+000000492+0000003990+0000000008+I20000000000+0000003990+Z
128198001128198301-085006     128198006001023502940ORN LOVE MSG TUBE W/HRT0000002000+00001753+00000+0001T   00001753+0000001654          1400 EO7505               2AZ
128199000128199               128199               170213J4     1400+00000+J40000017224+0000017224+000000000+000002413+0000019630+0000000007+I20000000000+0000019630+Z
128199001128199079-000510     128199006001023509079CRAYONS WAX 12-COLOUR  0000002000+00002455+00000+0001T   00002455+0000001656          1400 EO7130               2AZ
128199002128199112-116038     128199006009681820246TCS CARRIER BAG MIDI   0000001000+00000035+00000+0001T   00000035+0000001656          1400 EO7090               2AZ
128199003128199019-000079     128199006001023775726VASE 30cm CRACK-DESIGN 0000001000+00012279+00000+0001T   00012279+0000001656          1400 EO7510               2AZ
128200000128200               128200               170213J4     1400+00000+J40000001578+0000001578+000000000+000000221+0000001790+0000000009+I20000000000+0000001790+Z
128200001128200077-000303     128200006001023593757GIFT-BAG PAPER MED     0000001000+00001578+00000+0001T   00001578+0000001703          1400 EO7112               2AZ
128201000128201               128201               170213J4     1400+00000+J40000011745+0000011745+000000000+000001646+0000013391+0000000000+I40000013391+0000000000+Z
128201001128201565-000071     128201006003000643387NOVELTY WIND UP CHATTER0000001000+00001139+00000+0001T   00001139+0000001719          1400 EO7745               2AZ
128201002128201006-000113     128201006003000671816BALLOONS WATER FILLER  0000001000+00003507+00000+0001T   00003507+0000001719          1400 EO7131               2AZ
128201003128201079-013099     128201006003000081875ART+CRAFT EYES ASSTD   0000001000+00001753+00000+0001T   00001753+0000001719          1400 EO7130               2AZ
128201004128201006-000851     128201006009645928445PARTY LUCKY-PACKET BOY 0000001000+00003946+00000+0001T   00003946+0000001719          1400 EO7131               2AZ
128201005128201903-000920     128201000041396002155SWT CANDY STICK/TATT   0000002000+00000700+00000+0001T   00000700+0000001719          1400 EO7150               2AZ
128202000128202               128202               170213J4     1400+00000+J40000001753+0000001753+000000000+000000246+0000001990+0000000009+I20000000000+0000001990+Z
128202001128202150-012228-H   128202006001023416773DOOR-STOPPERS SET-OF-2 0000001000+00001753+00000+0001T   00001753+0000001719          1400 EO7810               2AZ
128203000128203               128203               170213J4     1400+00000+J40000001753+0000001753+000000000+000000246+0000001990+0000000009+I20000000000+0000001990+Z
128203001128203220-009140     128203006001023706867ROSE PASTRY-FORKS 4PCE 0000001000+00001753+00000+0001T   00001753+0000001721          1400 EO7300               2AZ
128204000128204               128204               170213J4     1400+00000+J40000020745+0000020745+000000000+000002906+0000023650+0000000001+I20000000000+0000023650+Z
128204001128204046-000011     128204004897006172994BATTERIES SIZE:AA  2PCE0000001000+00001402+00000+0001T   00001402+0000001723          1400 EO7312               2AZ
128204002128204301-001125     128204000694202803950ORN FOUNTAIN TOWER     0000001000+00017542+00000+0001T   00017542+0000001723          1400 EO7505               2AZ
128204003128204080-000113     128204006003000237449CARD&ENVLPE - LOVE     0000001000+00001753+00000+0001T   00001753+0000001723          1400 EO7112               2AZ
128204005128204112-116069     128204006009681820277TCS CARRIER BAG JUMBO  0000001000+00000048+00000+0001T   00000048+0000001723          1400 EO7090               2AZ
128205000128205               128205               170213J4     1400+00000+J40000004385+0000004385+000000000+000000614+0000004990+0000000009+I20000000000+0000004990+Z
128205001128205082-000105     128205006003000360369READING GLS STRNGHT:1.50000001000+00004385+00000+0001T   00004385+0000001724          1400 EO7160               2AZ
128206000128206               128206               170213J4     1400+00000+J40000003418-0000003418-000000000+000000480-0000003898-0000000000+I40000003898-0000000000+Z
128206001128206903-000137     128206006002099004130SWEET GS JELLY BEAN 60G0000001000-00000788+00000+0001T   00000788+0000001731          1400 EO71503IC            2 Z
128206002128206006-006015     128206006001023882912PARTY SPRAY WHT SNOW   0000001000-00002630+00000+0001T   00002630+0000001731          1400 EO71313IC            2 Z
128207000128207               128207               170213J4     1400+00000+J40000003418-0000003418-000000000+000000480-0000003900-0000000002+I20000000000+0000003900-Z
128207001128207903-000137     128207006002099004130SWEET GS JELLY BEAN 60G0000001000-00000788+00000+0001T   00000788+0000001733          1400 EO71501IC            2 Z
128207002128207006-006015     128207006001023882912PARTY SPRAY WHT SNOW   0000001000-00002630+00000+0001T   00002630+0000001733          1400 EO71311IC            2 Z
128208000128208               128208               170213J4     1400+00000+J40000002630+0000002630+000000000+000000369+0000002990+0000000009+I20000000000+0000002990+Z
128208001128208077-000456     128208006003000285549G/BAG METALLIC JMB EMB 0000001000+00002630+00000+0001T   00002630+0000001735          1400 EO7112               2AZ
C12820400                                          170213J4112-116038     17224119SLAVE 2     EO73IC0000000000+0000000000+0040000001000+
M17021391                              CASH        J4SLAVE 2                       Z-REPORT No.   612TOTAL (Sales - Refunds)           4905.24       CASH TO BE BANKED                 3857.20       DEBIT CARDS                          0.00       CREDIT CARDS                      2048.60       Z-READING                         4905.24       AIRTIME DEBIT CARD SALES             0.00       AIRTIME CARD SALES                   0.00       OVERS/UNDERS                      1000.56       AIRTIME CASH SALES                   0.00       GIFT CARDS                           0.00       GIFT CARD CASH SALES                 0.00       T O T A L  CASH PAYOUTS              0.00                                                                                                                                                                                                                                                                                                                                                      Z
M17021392                              CASH        J4ABSENT                                                                                                                                                                                          ANNUAL LEAVE                                                                                                                                                                                    DAY OFF                                                                                                                                                                                         COMMENTS                                                                                                                                                                                                                                                                                                                                                                                       Z
Y17021300                                          J400000000437463+000076
ZJ417021319513 SLAVE 2      SALES DATA                     NEXT INVOICE NO.  128209 0612
X J4 Slave 2 First invoice 128131 170213 Last invoice 128208 170213 Next invoice 128209 Total number of records 000000255 clbackup completed 19:51:29
