112378000112378               112378               170213J5     1400+00000+J50000017583+0000017583+000000000+000002465+0000020048+0000000000+I40000020048+0000000000+Z
112378001112378030-000031-A   112378006003000457588PLAQUE W/WORDS ASSTD   0000001000+00004385+00000+0001T   00004823+0006470930          1400 HT8505               1AZ
112378002112378079-008998     112378006003000339686ART+CRAFT  CANVAS      0000002000+00002630+00000+0001T   00002630+0000000930          1400 HT8130               1AZ
112378003112378566-000362     112378006003000583065STICKER LETTER & NUMBER0000001000+00001753+00000+0001T   00001753+0000000930          1400 HT8130               1AZ
112378004112378071-000306     112378006001023715371STENCILS ART FUN SET   0000001000+00003507+00000+0001T   00003507+0000000930          1400 HT8130               1AZ
112378005112378112-116069     112378006009681820277TCS CARRIER BAG JUMBO  0000001000+00000048+00000+0001T   00000048+0000000930          1400 HT8090               1AZ
112378006112378079-000300     112378006001023902245PAINTSET LEARN TO PAINT0000001000+00002630+00000+0001T   00002630+0000000930          1400 HT8130               1AZ
112379000112379               112379               170213J5     1400+00000+J50000002192+0000002192+000000000+000000307+0000002490+0000000009+I20000000000+0000002490+Z
112379001112379018-000170     112379006001023775528MUG OCC. LOVE 2PC MINI 0000001000+00002192+00000+0001T   00002192+0000001012          1400 HT8515               1AZ
112380000112380               112380               170213J5     1400+00000+J50000026361+0000026361+000000000+000003691+0000030050+0000000002+I20000000000+0000030050+Z
112380001112380031-000924     112380006001023669964P/FRAME COLLAGE PL     0000003000+00008771+00000+0001T   00008771+0000001024          1400 HT8510               1AZ
112380002112380112-116069     112380006009681820277TCS CARRIER BAG JUMBO  0000001000+00000048+00000+0001T   00000048+0000001024          1400 HT8090               1AZ
112381000112381               112381               170213J5     1400+00000+J50000017799+0000017799+000000000+000002493+0000020290+0000000002+I20000000000+0000020290+Z
112381001112381018-000170     112381006001023775528MUG OCC. LOVE 2PC MINI 0000003000+00002192+00000+0001T   00002192+0000001031          1400 HT8515               1AZ
112381002112381304-001011     112381006001023806727FLWR ROSE RED W/BEAR   0000003000+00000613+00000+0001T   00000788+0006471031          1400 HT8510               1AZ
112381003112381031-000924     112381006001023669964P/FRAME COLLAGE PL     0000001000+00008771+00000+0001T   00008771+0000001031          1400 HT8510               1AZ
112381004112381304-001011     112381006001023806727FLWR ROSE RED W/BEAR   0000001000+00000613+00000+0001T   00000788+0006471031          1400 HT8510               1AZ
112382000112382               112382               170213J5     1400+00000+J50000003330+0000003330+000000000+000000467+0000003797+0000000000+I40000003797+0000000000+Z
112382001112382467-000006     112382006001023995483NET-BUTTERFLY 120cm    0000001000+00002630+00000+0001T   00002630+0000001047          1400 HT8785               1AZ
112382002112382007-000166     112382006009685857316SPIRAL NOTES A6 100PG  0000001000+00000700+00000+0001T   00000700+0000001047          1400 HT8130               1AZ
112383000112383               112383               170213J5     1400+00000+J50000010217+0000010217+000000000+000001433+0000011650+0000000000+I20000000000+0000011650+Z
112383001112383565-000055     112383006003000028252NOVELTY B/O FINGR-BEAMS0000002000+00001753+00000+0001T   00001753+0000001052          1400 HT8745               1AZ
112383002112383565-000085     112383006003000643332NOVELTY BEEDZ 10g      0000002000+00002455+00000+0001T   00002455+0000001052          1400 HT8745               1AZ
112383003112383079-006522     112383006001023149442ART+CRAFT GLUE ASSORTED0000001000+00001753+00000+0001T   00001753+0000001052          1400 HT8130               1AZ
112383004112383112-116069     112383006009681820277TCS CARRIER BAG JUMBO  0000001000+00000048+00000+0001T   00000048+0000001052          1400 HT8090               1AZ
112384000112384               112384               170213J5     1400+00000+J50000001753+0000001753+000000000+000000246+0000001990+0000000009+I20000000000+0000001990+Z
112384001112384200-003024     112384006001023657299REFUSE BAGS 20PCE BLACK0000001000+00001753+00000+0001T   00001753+0000001127          1400 J97214               1AZ
112385000112385               112385               170213J5     1400+00000+J50000003506+0000003506+000000000+000000492+0000003990+0000000008+I20000000000+0000003990+Z
112385001112385077-000471     112385006003000330096G-BAG DESGN MED 18X23CM0000002000+00001753+00000+0001T   00001753+0000001147          1400 J97112               1AZ
112386000112386               112386               170213J5     1400+00000+J50000001490+0000001490+000000000+000000209+0000001690+0000000009+I20000000000+0000001690+Z
112386001112386036-000605     112386006001023158611WASHING-PEGS WDN PCK-240000001000+00001490+00000+0001T   00001490+0000001158          1400 J97212               1AZ
112387000112387               112387               170213J5     1400+00000+J50000002192+0000002192+000000000+000000307+0000002490+0000000009+I20000000000+0000002490+Z
112387001112387080-000127     112387006003000424351VALENTINES DAY 36x24CM 0000001000+00002192+00000+0001T   00002192+0000001215          1400 J97112               1AZ
112388000112388               112388               170213J5     1400+00000+J50000003717+0000003717+000000000+000000521+0000004230+0000000008+I20000000000+0000004230+Z
112388001112388077-000311     112388006001023608666GIFT-BAG 11X14CM GLOSS 0000001000+00000613+00000+0001T   00000613+0000001232          1400 J97112               1AZ
112388002112388089-060027     112388006003000245871KEY-CHAIN HEART 6X6cm  0000001000+00003069+00000+0001T   00003069+0000001232          1400 J97205               1AZ
112388003112388112-116038     112388006009681820246TCS CARRIER BAG MIDI   0000001000+00000035+00000+0001T   00000035+0000001232          1400 J97090               1AZ
112389000112389               112389               170213J5     1400+00000+J50000001490+0000001490+000000000+000000209+0000001690+0000000009+I20000000000+0000001690+Z
112389001112389077-000399     112389006003000139514GIFT BAG 18X23CM E/DAY 0000001000+00001490+00000+0001T   00001490+0000001251          1400 J97112               1AZ
112390000112390               112390               170213J5     1400+00000+J50000000035+0000000035+000000000+000000005+0000000040+0000000000+I20000000000+0000000040+Z
112390001112390112-116038     112390006009681820246TCS CARRIER BAG MIDI   0000001000+00000035+00000+0001T   00000035+0000001252          1400 J97090               1AZ
112391000112391               112391               170213J5     1400+00000+J50000001753+0000001753+000000000+000000246+0000001990+0000000009+I20000000000+0000001990+Z
112391001112391077-000309     112391006001023608604GIFT-BAG 25X32CM GLOSS 0000001000+00001753+00000+0001T   00001753+0000001256          1400 J97112               1AZ
112392000112392               112392               170213J5     1400+00000+J50000001753+0000001753+000000000+000000246+0000001990+0000000009+I20000000000+0000001990+Z
112392001112392077-000309     112392006001023608604GIFT-BAG 25X32CM GLOSS 0000001000+00001753+00000+0001T   00001753+0000001324          1400 J97112               1AZ
112393000112393               112393               170213J5     1400+00000+J50000000437+0000000437+000000000+000000062+0000000490+0000000009+I20000000000+0000000490+Z
112393001112393083-000049     112393004891035200024CIG-LIGHTER DISPOSABLE 0000001000+00000437+00000+0001T   00000437+0000001335          1400 J97315               1AZ
112394000112394               112394               170213J5     1400+00000+J50000000876+0000000876+000000000+000000123+0000000990+0000000009+I20000000000+0000000990+Z
112394001112394078-000025     112394008887013700064SUPERGLUE 3g 1PCE CARD 0000001000+00000876+00000+0001T   00000876+0000001600          1400 J97810               1AZ
112395000112395               112395               170213J5     1400+00000+J50000011402-0000011402-000000000+000001597-0000013000-0000000001+I20000000000+0000013000-Z
112395001112395261-003817     112395006001023536532GUN RIFLE WITH ROCKET  0000001000-00011402+00000+0001T   00011402+0000001604          1400 J977102IC            1 Z
112396000112396               112396               170213J5     1400+00000+J50000007491+0000007491+000000000+000001053+0000008540+0000000004+I20000000000+0000008540+Z
112396001112396304-001011     112396006001023806727FLWR ROSE RED W/BEAR   0000007000+00000613+00000+0001T   00000788+0006471611          1400 J97510               1AZ
112396002112396903-000200     112396006009826020234SWT CHOC RP CHOCO 23G  0000004000+00000788+00000+0001T   00000788+0000001611          1400 J97150               1AZ
112396003112396112-116069     112396006009681820277TCS CARRIER BAG JUMBO  0000001000+00000048+00000+0001T   00000048+0000001611          1400 J97090               1AZ
112397000112397               112397               170213J5     1400+00000+J50000003500+0000003500+000000000+000000490+0000003990+0000000000+I20000000000+0000003990+Z
112397001112397018-000177     112397006001023797513MUG MINI LOVE ASSTD    0000005000+00000700+00000+0001T   00000700+0000001626          1400 J97515               1AZ
112398000112398               112398               170213J5     1400+00000+J50000005085+0000005085+000000000+000000712+0000005790+0000000007+I20000000000+0000005790+Z
112398001112398018-005009     112398006001023725608MUG W/PLUSH-BEAR LOVE  0000001000+00003507+00000+0001T   00003507+0000001632          1400 J97515               1AZ
112398002112398077-000303     112398006001023593757GIFT-BAG PAPER MED     0000001000+00001578+00000+0001T   00001578+0000001632          1400 J97112               1AZ
112399000112399               112399               170213J5     1400+00000+J50000007538+0000007538+000000000+000001057+0000008590+0000000005+I20000000000+0000008590+Z
112399001112399006-000850     112399006009645922856PARTY LUCKY-PACKET GIRL0000001000+00003946+00000+0001T   00003946+0000001633          1400 J97131               1AZ
112399002112399903-004951     112399006002580020328SWT MALLOW MINI M/SHAKE0000001000+00001227+00000+0001T   00001227+0000001633          1400 J97150               1AZ
112399003112399903-002852     112399000000087108040MENTOS ROLL SPEARMINT  0000001000+00001051+00000+0001T   00001051+0000001633          1400 J97150               1AZ
112399004112399903-000194     112399006009826020616SWT CHOC RP LOLLY 25G  0000001000+00001314+00000+0001T   00001314+0000001633          1400 J97150               1AZ
112400000112400               112400               170213J5     1400+00000+J50000001753+0000001753+000000000+000000246+0000001990+0000000009+I20000000000+0000001990+Z
112400001112400078-000470     112400006007347000018SHOE-CEMENT 70ml-TIN   0000001000+00001753+00000+0001T   00001753+0000001638          1400 J97810               1AZ
112401000112401               112401               170213J5     1400+00000+J50000000436+0000000436+000000000+000000062+0000000490+0000000008+I20000000000+0000000490+Z
112401001112401903-000670     112401006009803358008SWT SHERBET RED LIPS   0000002000+00000218+00000+0001T   00000218+0000001642          1400 J97150               1AZ
A17021300                                          09462418J5SLAVE 1                       HT82IC
A17021301                                          09543969J5SLAVE 1                       HT82IC
A17021302                                          11162873J5SLAVE 1                       HT82IC
A17021303                                          11205428J5SLAVE 1                       HT82IC
A17021304                                          12390809J5SLAVE 1                       J972IC
A17021305                                          12410234J5SLAVE 1                       J972IC
A17021306                                          12491969J5SLAVE 1                       J972IC
A17021307                                          14020220J5SLAVE 1                       J972IC
M17021301                              IT          J5SLV1              SLV2                          CA 1024.50        1339.90                       CR 238.45         1703.48                                                                       NHLANHLA J5                                     THANK YOU
M17021391                              CASH        J5SLAVE 1                       Z-REPORT No.   563TOTAL (Sales - Refunds)           1262.95       CASH TO BE BANKED                 1024.50       DEBIT CARDS                          0.00       CREDIT CARDS                       238.45       Z-READING                         1262.95       AIRTIME DEBIT CARD SALES             0.00       AIRTIME CARD SALES                   0.00       OVERS/UNDERS                         0.00       AIRTIME CASH SALES                   0.00       GIFT CARDS                           0.00       GIFT CARD CASH SALES                 0.00       T O T A L  CASH PAYOUTS              0.00                                                                                                                                                                                                                                                                                                                                                      Z
M17021392                              CASH        J5ABSENT                                                                                                                                                                                          ANNUAL LEAVE                                                                                                                                                                                    DAY OFF                                                                                                                                                                                         COMMENTS          Z READ TOTAL 1262.95                            SLAVE 1                                         BUHLE                                                                                                                                                                                                                                                                        Z
Y17021300                                          J500002300122287+000023
ZJ517021408073 SLAVE 1      SALES DATA                     NEXT INVOICE NO.  112402 0563
X J5 Slave 1 First invoice 112378 170213 Last invoice 112401 170213 Next invoice 112402 Total number of records 000000082 clbackup completed 08:07:51
