123707000123707               123707               170213J5     1400+00000+J50000004067+0000004067+000000000+000000570+0000004630+0000000007+I20000000000+0000004630+Z
123707001123707028-000797     123707006001023812124SKEWERS 15cm 100PCE    0000001000+00000876+00000+0001T   00000876+0000001024          1400 HR3305               2AZ
123707002123707028-000795     123707006001023812063SKEWERS 10cm 100PCE 3mm0000001000+00000964+00000+0001T   00000964+0000001024          1400 HR3305               2AZ
123707003123707301-085000     123707006003000674299 ORN OCC. LOVE HEARTS  0000001000+00002192+00000+0001T   00002192+0000001024          1400 HR3505               2AZ
123707004123707112-116038     123707006009681820246TCS CARRIER BAG MIDI   0000001000+00000035+00000+0001T   00000035+0000001024          1400 HR3090               2AZ
123708000123708               123708               170213J5     1400+00000+J50000001753+0000001753+000000000+000000246+0000001990+0000000009+I20000000000+0000001990+Z
123708001123708078-000470     123708006007347000018SHOE-CEMENT 70ml-TIN   0000001000+00001753+00000+0001T   00001753+0000001035          1400 HR3810               2AZ
123709000123709               123709               170213J5     1400+00000+J50000006136+0000006136+000000000+000000861+0000006990+0000000007+I20000000000+0000006990+Z
123709001123709083-000058     123709006003000400331LIGHTER JET CIGAR REFIL0000002000+00002630+00000+0001T   00002630+0000001042          1400 HR3315               2AZ
123709002123709083-000295     123709006001023898562LIGHTER-GAS BUTANE 18ml0000001000+00000876+00000+0001T   00000876+0000001042          1400 HR3315               2AZ
123710000123710               123710               170213J5     1400+00000+J50000006174+0000006174+000000000+000000865+0000007039+0000000000+I40000007039+0000000000+Z
123710001123710018-005007     123710006003000515516MUG OCC. LOVE W/HEARTS 0000001000+00006139+00000+0001T   00006139+0000001120          1400 HR3515               2AZ
123710002123710112-116038     123710006009681820246TCS CARRIER BAG MIDI   0000001000+00000035+00000+0001T   00000035+0000001120          1400 HR3090               2AZ
123711000123711               123711               170213J5     1400+00000+J50000005699+0000005699+000000000+000000799+0000006498+0000000000+I40000006498+0000000000+Z
123711001123711079-000344     123711006001023904010FELT-TIP PENS 12PCE    0000001000+00002630+00000+0001T   00002630+0000001121          1400 HR3130               2AZ
123711002123711030-000030-A   123711006003000249305PLAQUE GLASS LOVE      0000001000+00003069+00000+0001T   00003069+0000001121          1400 HR3505               2AZ
123712000123712               123712               170213J5     1400+00000+J50000014779+0000014779+000000000+000002071+0000016850+0000000000+I40000016850+0000000000+Z
123712001123712174-000140     123712006003000367450STORAGE ORGANISER 30X300000001000+00005700+00000+0001T   00005700+0000001123          1400 HR3205               2AZ
123712002123712080-000124     123712006003000297733CARD & ENV VALENTINES  0000001000+00001578+00000+0001T   00001578+0000001123          1400 HR3112               2AZ
123712003123712267-000500     123712006003000165926PUZZLE FELT CREATIONS  0000001000+00007016+00000+0001T   00008771+0008141123          1400 HR3755               2AZ
123712004123712112-116069     123712006009681820277TCS CARRIER BAG JUMBO  0000001000+00000048+00000+0001T   00000048+0000001123          1400 HR3090               2AZ
123712005123712080-000133-A   123712006003000647019MINI VALENTINES CARD   0000001000+00000437+00000+0001T   00000437+0000001123          1400 HR3112               2AZ
123713000123713               123713               170213J5     1400+00000+J50000003506+0000003506+000000000+000000492+0000003990+0000000008+I20000000000+0000003990+Z
123713001123713566-002004     123713006001023672421STICKERS CRYSTAL SHAPES0000002000+00001753+00000+0001T   00001753+0000001127          1400 HR3130               2AZ
123714000123714               123714               170213J5     1400+00000+J50000011402+0000011402+000000000+000001597+0000012990+0000000009+I20000000000+0000012990+Z
123714001123714048-000910     123714006946859290268TORCH BEND&EXTEND 3 LED0000001000+00011402+00000+0001T   00011402+0000001129          1400 HR3305               2AZ
123715000123715               123715               170213J5     1400+00000+J50000002364+0000002364+000000000+000000333+0000002697+0000000000+I40000002697+0000000000+Z
123715001123715903-000200     123715006009826020234SWT CHOC RP CHOCO 23G  0000003000+00000788+00000+0001T   00000788+0000001131          1400 HR3150               2AZ
123716000123716               123716               170213J5     1400+00000+J50000002192+0000002192+000000000+000000307+0000002490+0000000009+I20000000000+0000002490+Z
123716001123716077-000926     123716006003000414178G/WRAP 700mmx2m LOVE   0000001000+00002192+00000+0001T   00002192+0000001132          1400 HR3112               2AZ
123717000123717               123717               170213J5     1400+00000+J50000001314+0000001314+000000000+000000184+0000001490+0000000008+I20000000000+0000001490+Z
123717001123717077-000310     123717006001023608635GIFT-BAG 18X23CM GLOSS 0000001000+00001314+00000+0001T   00001314+0000001400          1400 HR3112               2AZ
123718000123718               123718               170213J5     1400+00000+J50000000613+0000000613+000000000+000000086+0000000690+0000000009+I20000000000+0000000690+Z
123718001123718083-000055     123718006003000003853LIGHTER ELCTRNC REFILBL0000001000+00000613+00000+0001T   00000613+0000001410          1400 HR3315               2AZ
123719000123719               123719               170213J5     1400+00000+J50000000700+0000000700+000000000+000000098+0000000790+0000000008+I20000000000+0000000790+Z
123719001123719018-000177     123719006001023797513MUG MINI LOVE ASSTD    0000001000+00000700+00000+0001T   00000700+0000001420          1400 HR3515               2AZ
123720000123720               123720               170213J5     1400+00000+J50000021096+0000021096+000000000+000002955+0000024051+0000000000+I40000024051+0000000000+Z
123720001123720150-000773     123720006001023681065TACKLE-BOX 18-SECTION  0000004000+00005262+00000+0001T   00005262+0000001422          1400 HR3810               2AZ
123720002123720112-116069     123720006009681820277TCS CARRIER BAG JUMBO  0000001000+00000048+00000+0001T   00000048+0000001422          1400 HR3090               2AZ
123721000123721               123721               170213J5     1400+00000+J50000001314+0000001314+000000000+000000184+0000001490+0000000008+I20000000000+0000001490+Z
123721001123721077-000312     123721006001023608697GIFT-BAG 10X35CM GLOSS 0000001000+00001314+00000+0001T   00001314+0000001437          1400 HR3112               2AZ
123722000123722               123722               170213J5     1400+00000+J50000000876+0000000876+000000000+000000123+0000000990+0000000009+I20000000000+0000000990+Z
123722001123722564-000030     123722006001023897022BUBBLE NOVELTY BOTTLE  0000001000+00000876+00000+0001T   00000876+0000001458          1400 HR3131               2AZ
123723000123723               123723               170213J5     1400+00000+J50000002893+0000002893+000000000+000000406+0000003290+0000000009+I20000000000+0000003290+Z
123723001123723036-000151     123723006001023810588COATHANGERS    PACK-10 0000001000+00002893+00000+0001T   00002893+0000001510          1400 HR3212               2AZ
123724000123724               123724               170213J5     1400+00000+J50000007488+0000007488+000000000+000001049+0000008530+0000000007+I20000000000+0000008530+Z
123724001123724077-000310     123724006001023608635GIFT-BAG 18X23CM GLOSS 0000001000+00001314+00000+0001T   00001314+0000001512          1400 HR3112               2AZ
123724002123724018-050000     123724006003000412679MUG OCC LOVE TWIN BEAR 0000001000+00006139+00000+0001T   00006139+0000001512          1400 HR3515               2AZ
123724003123724112-116038     123724006009681820246TCS CARRIER BAG MIDI   0000001000+00000035+00000+0001T   00000035+0000001512          1400 HR3090               2AZ
123725000123725               123725               170213J5     1400+00000+J50000010521+0000010521+000000000+000001475+0000011996+0000000000+I40000011996+0000000000+Z
123725001123725030-000039     123725006003000465873PLAQUE ORN SENTIMENT   0000001000+00003946+00000+0001T   00005262+0008121526          1400 HR3505               2AZ
123725002123725030-000040     123725006003000396375PLAQUE WDN HANGING HRTS0000001000+00003069+00000+0001T   00003069+0000001526          1400 HR3505               2AZ
123725003123725301-085006     123725006001023502940ORN LOVE MSG TUBE W/HRT0000001000+00001753+00000+0001T   00001753+0000001526          1400 HR3505               2AZ
123725004123725077-000381     123725006003000247707GIFT-BAG 25X32CM S/COL 0000001000+00001753+00000+0001T   00001753+0000001526          1400 HR3112               2AZ
123726000123726               123726               170213J5     1400+00000+J50000002630+0000002630+000000000+000000369+0000002990+0000000009+I20000000000+0000002990+Z
123726001123726016-002000     123726006003000674404S/BOTTLE GLS W/PL CAP  0000001000+00002630+00000+0001T   00002630+0000001527          1400 HR3300               2AZ
123727000123727               123727               170213J5     1400+00000+J50000001753+0000001753+000000000+000000246+0000001990+0000000009+I20000000000+0000001990+Z
123727001123727077-000520     123727006001023908254GIFT-BAG 25X32CM       0000001000+00001753+00000+0001T   00001753+0000001533          1400 HR3112               2AZ
123728000123728               123728               170213J5     1400+00000+J50000004823+0000004823+000000000+000000676+0000005499+0000000000+I40000005499+0000000000+Z
123728001123728046-000012-VP  123728006003000537914BATTERIES H/P SIZE:AA  0000001000+00004823+00000+0001T   00004823+0000001538          1400 HR3312               2AZ
123729000123729               123729               170213J5     1400+00000+J50000003507+0000003507+000000000+000000491+0000003990+0000000008+I20000000000+0000003990+Z
123729001123729082-098791     123729006001492987910SUNGLASS KIDS BOYS     0000001000+00003507+00000+0001T   00003507+0000001545          1400 HR3160               2AZ
123730000123730               123730               170213J5     1400+00000+J50000001753+0000001753+000000000+000000246+0000001990+0000000009+I20000000000+0000001990+Z
123730001123730264-000921     123730000090159150442MAISTO CAR 3" FRESH    0000001000+00001753+00000+0001T   00001753+0000001546          1400 HR3710               2AZ
123731000123731               123731               170213J5     1400+00000+J50000010522+0000010522+000000000+000001475+0000011997+0000000000+I40000011997+0000000000+Z
123731001123731463-000366     123731006001023789136SWIM W/NOODLE 150cm    0000001000+00002630+00000+0001T   00002630+0000001548          1400 HR3785               2AZ
123731002123731467-000005     123731006001023584472NET FISHING 45-50 SHORT0000001000+00001753+00000+0001T   00001753+0000001548          1400 HR3785               2AZ
123731003123731496-055504     123731000078257555048INTEX U/WTR PLAY STICKS0000001000+00006139+00000+0001T   00006139+0000001548          1400 HR3787               2AZ
123732000123732               123732               170213J5     1400+00000+J50000024558+0000024558+000000000+000003440+0000027998+0000000000+I40000027998+0000000000+Z
123732001123732562-088357     123732006001023873392EVA CARPET 56x56x0.9cm 0000002000+00012279+00000+0001T   00012279+0000001557          1400 HR3755               2AZ
123733000123733               123733               170213J5     1400+00000+J50000007892+0000007892+000000000+000001106+0000008990+0000000008+I20000000000+0000008990+Z
123733001123733304-000720     123733006001023843050F/BUNCH ROSE 6-HEAD AST0000001000+00002630+00000+0001T   00002630+0000001558          1400 HR3510               2AZ
123733002123733304-001116     123733006003000426164F/BUNCH ROSES 12-HEAD  0000001000+00005262+00000+0001T   00005262+0000001558          1400 HR3510               2AZ
123734000123734               123734               170213J5     1400+00000+J50000003507+0000003507+000000000+000000491+0000003990+0000000008+I20000000000+0000003990+Z
123734001123734018-000136     123734006001023659026MUG OCC LOVE W/PLUSH   0000001000+00003507+00000+0001T   00003507+0000001644          1400 HR3515               2AZ
123735000123735               123735               170213J5     1400+00000+J50000009506+0000009506+000000000+000001332+0000010838+0000000000+I40000010838+0000000000+Z
123735001123735301-085007     123735006003000673698ORN OCC. LOVE S/PLAQUE 0000001000+00007893+00000+0001T   00007893+0000001648          1400 HR3505               2AZ
123735002123735077-000315     123735006003000181186GIFT-BAG 20x28cm MATT  0000001000+00001578+00000+0001T   00001578+0000001648          1400 HR3112               2AZ
123735003123735112-116038     123735006009681820246TCS CARRIER BAG MIDI   0000001000+00000035+00000+0001T   00000035+0000001648          1400 HR3090               2AZ
123736000123736               123736               170213J5     1400+00000+J50000006611+0000006611+000000000+000000926+0000007537+0000000000+I40000007537+0000000000+Z
123736001123736018-000136     123736006001023659026MUG OCC LOVE W/PLUSH   0000001000+00003507+00000+0001T   00003507+0000001650          1400 HR3515               2AZ
123736002123736079-000358     123736006003000591046ART+CRAFT FELT-TIP PENS0000001000+00003069+00000+0001T   00003069+0000001650          1400 HR3130               2AZ
123736003123736112-116038     123736006009681820246TCS CARRIER BAG MIDI   0000001000+00000035+00000+0001T   00000035+0000001650          1400 HR3090               2AZ
123737000123737               123737               170213J5     1400+00000+J50000000700+0000000700+000000000+000000098+0000000790+0000000008+I20000000000+0000000790+Z
123737001123737564-000012     123737006001023130075BUBBLE BOTTLE MAGIC    0000001000+00000700+00000+0001T   00000700+0000001652          1400 HR3131               2AZ
123738000123738               123738               170213J5     1400+00000+J50000002191+0000002191+000000000+000000307+0000002490+0000000008+I20000000000+0000002490+Z
123738001123738018-000127     123738006001023380289MUG OCC STRAIGHT LOVE  0000001000+00001578+00000+0001T   00001753+0006471653          1400 HR3515               2AZ
123738002123738077-000311     123738006001023608666GIFT-BAG 11X14CM GLOSS 0000001000+00000613+00000+0001T   00000613+0000001653          1400 HR3112               2AZ
123739000123739               123739               170213J5     1400+00000+J50000023412+0000023412+000000000+000003280+0000026690+0000000002+I20000000000+0000026690+Z
123739001123739077-000309-A   123739006003000671007GIFT-BAG HOLOGRAM JMB  0000001000+00002192+00000+0001T   00002192+0000001658          1400 HR3112               2AZ
123739002123739018-000136     123739006001023659026MUG OCC LOVE W/PLUSH   0000001000+00003507+00000+0001T   00003507+0000001658          1400 HR3515               2AZ
123739003123739031-000002-A   123739006003000247103P/FRAME LOVE 7.5X7.5CM 0000001000+00003507+00000+0001T   00003507+0000001658          1400 HR3510               2AZ
123739004123739368-000637     123739006001023874092PLUSH BEAR SLEEPING LOV0000001000+00011402+00000+0001T   00012279+0006471658          1400 HR3745               2AZ
123739005123739304-001204     123739006001023737984FLOWER OCC. TEDDY/ROSES0000002000+00001402+00000+0001T   00001490+0006471658          1400 HR3510               2AZ
123740000123740               123740               170213J5     1400+00000+J50000007890+0000007890+000000000+000001107+0000008990+0000000007+I20000000000+0000008990+Z
123740001123740108-003023     123740006003000665471TUMBLER W/STRAW 550ml  0000003000+00002630+00000+0001T   00002630+0000001700          1400 HR3210               2AZ
123741000123741               123741               170213J5     1400+00000+J50000003507+0000003507+000000000+000000491+0000003990+0000000008+I20000000000+0000003990+Z
123741001123741018-000136     123741006001023659026MUG OCC LOVE W/PLUSH   0000001000+00003507+00000+0001T   00003507+0000001707          1400 HR3515               2AZ
123742000123742               123742               170213J5     1400+00000+J50000003507+0000003507+000000000+000000491+0000003990+0000000008+I20000000000+0000003990+Z
123742001123742018-005009     123742006001023725608MUG W/PLUSH-BEAR LOVE  0000001000+00003507+00000+0001T   00003507+0000001712          1400 HR3515               2AZ
123743000123743               123743               170213J5     1400+00000+J50000014471+0000014471+000000000+000002027+0000016498+0000000000+I40000016498+0000000000+Z
123743001123743368-000111     123743006001023780812PLUSH BEAR/DOG 29CM    0000001000+00012279+00000+0001T   00012279+0000001714          1400 HR3745               2AZ
123743002123743077-000309-A   123743006003000671007GIFT-BAG HOLOGRAM JMB  0000001000+00002192+00000+0001T   00002192+0000001714          1400 HR3112               2AZ
123744000123744               123744               170213J5     1400+00000+J50000004384+0000004384+000000000+000000614+0000004990+0000000008+I20000000000+0000004990+Z
123744001123744206-000245     123744006003000680818BOTTLE CLEANER PLASTIC 0000001000+00002192+00000+0001T   00002192+0000001719          1400 HR3321               2AZ
123744002123744369-001010     123744006001023864222BATH VINYL DUCK 4PC    0000001000+00002192+00000+0001T   00002192+0000001719          1400 HR3745               2AZ
123745000123745               123745               170213J5     1400+00000+J50000009470+0000009470+000000000+000001327+0000010797+0000000000+I40000010797+0000000000+Z
123745001123745301-085001     123745006003000297610ORN WATERBALL LOVE ASST0000001000+00004823+00000+0001T   00004823+0000001722          1400 HR3505               2AZ
123745002123745077-000303     123745006001023593757GIFT-BAG PAPER MED     0000001000+00001578+00000+0001T   00001578+0000001722          1400 HR3112               2AZ
123745003123745030-000030-A   123745006003000249305PLAQUE GLASS LOVE      0000001000+00003069+00000+0001T   00003069+0000001722          1400 HR3505               2AZ
123746000123746               123746               170213J5     1400+00000+J50000002455+0000002455+000000000+000000344+0000002790+0000000009+I20000000000+0000002790+Z
123746001123746077-000380     123746006003000247585GIFT-BAG 33X45CM S/COL 0000001000+00002455+00000+0001T   00002455+0000001746          1400 HR3112               2AZ
123747000123747               123747               170213J5     1400+00000+J50000008817+0000008817+000000000+000001236+0000010053+0000000000+I40000010053+0000000000+Z
123747001123747016-005020     123747006003000505357STORAGE-BOTTLE GLS BOOT0000001000+00006139+00000+0001T   00006139+0000001750          1400 HR3300               2AZ
123747002123747077-000456     123747006003000285549G/BAG METALLIC JMB EMB 0000001000+00002630+00000+0001T   00002630+0000001750          1400 HR3112               2AZ
123747003123747112-116069     123747006009681820277TCS CARRIER BAG JUMBO  0000001000+00000048+00000+0001T   00000048+0000001750          1400 HR3090               2AZ
123748000123748               123748               170213J5     1400+00000+J50000002630+0000002630+000000000+000000369+0000002990+0000000009+I20000000000+0000002990+Z
123748001123748006-000104     123748006001023990112BALLOONS 40PC AIR PUMP 0000001000+00002630+00000+0001T   00002630+0000001758          1400 HR3131               2AZ
123749000123749               123749               170213J5     1400+00000+J50000001753+0000001753+000000000+000000246+0000001990+0000000009+I20000000000+0000001990+Z
123749001123749491-059640     123749000078257596409INTEX:ARMBAND 3-6YRS   0000001000+00001753+00000+0001T   00001753+0000001759          1400 HR3787               2AZ
A17021300                                          09542940J5SLAVE 2                       HT82IC
A17021301                                          11163295J5SLAVE 2                       HR32IC
A17021302                                          11244246J5SLAVE 2                       HR32IC
A17021303                                          12391628J5SLAVE 2                       HR32IC
A17021304                                          12415082J5SLAVE 2                       HR32IC
A17021305                                          15492150J5SLAVE 2                       HR32IC
A17021306                                          16242339J5SLAVE 2                       HT82IC
A17021307                                          18003359J5SLAVE 2                       HR32IC
M17021391                              CASH        J5SLAVE 2                       Z-REPORT No.   561TOTAL (Sales - Refunds)           3043.38       CASH TO BE BANKED                 1339.90       DEBIT CARDS                          0.00       CREDIT CARDS                      1703.48       Z-READING                         3043.38       AIRTIME DEBIT CARD SALES             0.00       AIRTIME CARD SALES                   0.00       OVERS/UNDERS                         0.00       AIRTIME CASH SALES                   0.00       GIFT CARDS                           0.00       GIFT CARD CASH SALES                 0.00       T O T A L  CASH PAYOUTS              0.00                                                                                                                                                                                                                                                                                                                                                      Z
M17021392                              CASH        J5ABSENT                                                                                                                                                                                          ANNUAL LEAVE                                                                                                                                                                                    DAY OFF                                                                                                                                                                                         COMMENTS          Z READ TOTAL 3043.38                            SLAVE 2                                         NOMVULA                                                                                                                                                                                                                                                                      Z
Y17021300                                          J500004300267136+000043
ZJ517021408073 SLAVE 2      SALES DATA                     NEXT INVOICE NO.  123750 0561
X J5 Slave 2 First invoice 123707 170213 Last invoice 123749 170213 Next invoice 123750 Total number of records 000000132 clbackup completed 08:07:54
