102355000102355               102355               170213J6     1400+00000+J60000007047+0000007047+000000000+000000989+0000008036+0000000000+I40000008036+0000000000+Z
102355001102355071-003011     102355006001023762825PEN STICKBALL X10 ASSTD0000001000+00001753+00000+0001T   00001753+0000000935          1400 KL5130               1AZ
102355002102355079-013032     102355006003000389209SET LETTERS 2 ASSTD    0000001000+00001753+00000+0001T   00001753+0000000935          1400 KL5130               1AZ
102355003102355566-001228     102355006003000284153STICKERS CRYSTAL ASSTD 0000001000+00001753+00000+0001T   00001753+0000000935          1400 KL5130               1AZ
102355004102355566-000065     102355006003000217915STICKERS GLITTER ASSTD 0000001000+00001753+00000+0001T   00001753+0000000935          1400 KL5130               1AZ
102355005102355112-116038     102355006009681820246TCS CARRIER BAG MIDI   0000001000+00000035+00000+0001T   00000035+0000000935          1400 KL5090               1AZ
102356000102356               102356               170213J6     1400+00000+J60000022398+0000022398+000000000+000003136+0000025534+0000000000+I40000025534+0000000000+Z
102356001102356019-000048     102356006003000282111VASE GLS FOOTED MARTINI0000001000+00017542+00000+0001T   00017542+0000000940          1400 KL5510               1AZ
102356002102356033-000601     102356006003000365210HAIR-BRUSH 24CM BLK&WHT0000001000+00003507+00000+0001T   00003507+0000000940          1400 KL5200               1AZ
102356003102356566-000451     102356006001023788443STICKERS GLITTER ASSTD 0000001000+00001314+00000+0001T   00001753+0008150940          1400 KL5130               1AZ
102356004102356112-116038     102356006009681820246TCS CARRIER BAG MIDI   0000001000+00000035+00000+0001T   00000035+0000000940          1400 KL5090               1AZ
102357000102357               102357               170213J6     1400+00000+J60000024584+0000024584+000000000+000003444+0000028028+0000000000+I40000028028+0000000000+Z
102357001102357007-010504     102357006002923014960BLACKBOARD EASEL       0000001000+00007893+00000+0001T   00007893+0000000943          1400 KL5130               1AZ
102357002102357018-000127     102357006001023380289MUG OCC STRAIGHT LOVE  0000001000+00001578+00000+0001T   00001753+0006470943          1400 KL5515               1AZ
102357003102357018-000177     102357006001023797513MUG MINI LOVE ASSTD    0000010000+00000700+00000+0001T   00000700+0000000943          1400 KL5515               1AZ
102357004102357089-000017     102357006003000331147KEYCHAIN MOM POLY BOX  0000001000+00004385+00000+0001T   00004385+0000000943          1400 KL5205               1AZ
102357005102357903-000200     102357006009826020234SWT CHOC RP CHOCO 23G  0000001000+00000788+00000+0001T   00000788+0000000943          1400 KL5150               1AZ
102357006102357566-001234     102357006003000217793STICKERS LASER ASSTD   0000001000+00001578+00000+0001T   00001578+0000000943          1400 KL5130               1AZ
102357007102357566-000451     102357006001023788443STICKERS GLITTER ASSTD 0000001000+00001314+00000+0001T   00001753+0008150943          1400 KL5130               1AZ
102357008102357112-116069     102357006009681820277TCS CARRIER BAG JUMBO  0000001000+00000048+00000+0001T   00000048+0000000943          1400 KL5090               1AZ
102358000102358               102358               170213J6     1400+00000+J60000000918+0000000918+000000000+000000130+0000001040+0000000008+I20000000000+0000001040+Z
102358001102358071-000012     102358006001177101006CHALK COLOUR 12PCE     0000001000+00000481+00000+0001T   00000481+0000000944          1400 KL5130               1AZ
102358002102358071-000212     102358006009608641190CHALK WHITE 12PCE      0000001000+00000437+00000+0001T   00000437+0000000944          1400 KL5130               1AZ
102359000102359               102359               170213J6     1400+00000+J60000003366+0000003366+000000000+000000472+0000003830+0000000008+I20000000000+0000003830+Z
102359001102359034-078800     102359006001023856555COOEY WET-WIPES 60PCE  0000001000+00001753+00000+0001T   00001753+0000001021          1400 KL5215               1AZ
102359002102359077-000315     102359006003000181186GIFT-BAG 20x28cm MATT  0000001000+00001578+00000+0001T   00001578+0000001021          1400 KL5112               1AZ
102359003102359112-116038     102359006009681820246TCS CARRIER BAG MIDI   0000001000+00000035+00000+0001T   00000035+0000001021          1400 KL5090               1AZ
102360000102360               102360               170213J6     1400+00000+J60000001753+0000001753+000000000+000000246+0000001990+0000000009+I20000000000+0000001990+Z
102360001102360072-020353     102360006001023598097DOG/CAT-BOWL 17cm      0000001000+00001753+00000+0001T   00001753+0000001022          1400 KL5870               1AZ
102361000102361               102361               170213J6     1400+00000+J60000001314+0000001314+000000000+000000184+0000001490+0000000008+I20000000000+0000001490+Z
102361001102361077-000310     102361006001023608635GIFT-BAG 18X23CM GLOSS 0000001000+00001314+00000+0001T   00001314+0000001024          1400 KL5112               1AZ
102362000102362               102362               170213J6     1400+00000+J60000003678+0000003678+000000000+000000516+0000004190+0000000004+I20000000000+0000004190+Z
102362001102362903-000194     102362006009826020616SWT CHOC RP LOLLY 25G  0000002000+00001314+00000+0001T   00001314+0000001106          1400 KL5150               1AZ
102362002102362903-000151     102362006009803374411SWT SML RND R/BOW LOLLY0000001000+00000525+00000+0001T   00000525+0000001106          1400 KL5150               1AZ
102362003102362903-000155     102362006009803374435SWT LOLLY I LUV U HEART0000001000+00000525+00000+0001T   00000525+0000001106          1400 KL5150               1AZ
102363000102363               102363               170213J6     1400+00000+J60000003716+0000003716+000000000+000000522+0000004230+0000000008+I20000000000+0000004230+Z
102363001102363033-000124     102363006009654960597COMBS HANDLE + TAIL 2PC0000001000+00001051+00000+0001T   00001051+0000001126          1400 KL5200               1AZ
102363002102363084-000359     102363006003000642960NAIL MANICURE SET S/STE0000001000+00002630+00000+0001T   00002630+0000001126          1400 KL5200               1AZ
102363003102363112-116038     102363006009681820246TCS CARRIER BAG MIDI   0000001000+00000035+00000+0001T   00000035+0000001126          1400 KL5090               1AZ
102364000102364               102364               170213J6     1400+00000+J60000009235+0000009235+000000000+000001296+0000010530+0000000001+I20000000000+0000010530+Z
102364001102364018-005009     102364006001023725608MUG W/PLUSH-BEAR LOVE  0000001000+00003507+00000+0001T   00003507+0000001138          1400 KL5515               1AZ
102364002102364903-000671     102364006009803358015SWT SHERBET BLUE LIPS  0000001000+00000218+00000+0001T   00000218+0000001138          1400 KL5150               1AZ
102364003102364903-000077     102364006939873501687SWT GS MAGIC ROCK FRUIT0000001000+00000525+00000+0001T   00000525+0000001138          1400 KL5150               1AZ
102364004102364903-000090     102364006009826020821SWT GS CHOCO COINS 60g 0000001000+00002104+00000+0001T   00002104+0000001138          1400 KL5150               1AZ
102364005102364903-000670     102364006009803358008SWT SHERBET RED LIPS   0000001000+00000218+00000+0001T   00000218+0000001138          1400 KL5150               1AZ
102364006102364903-000151     102364006009803374411SWT SML RND R/BOW LOLLY0000001000+00000525+00000+0001T   00000525+0000001138          1400 KL5150               1AZ
102364007102364903-000159     102364006003000417629SWT LB SMALL DUMMIE    0000001000+00000350+00000+0001T   00000350+0000001138          1400 KL5150               1AZ
102364008102364112-116038     102364006009681820246TCS CARRIER BAG MIDI   0000001000+00000035+00000+0001T   00000035+0000001138          1400 KL5090               1AZ
102364009102364903-000059     102364006002099001269SWT GS NOVELTY ALIEN VA0000001000+00001753+00000+0001T   00001753+0000001138          1400 KL5150               1AZ
102365000102365               102365               170213J6     1400+00000+J60000002665+0000002665+000000000+000000374+0000003030+0000000009+I20000000000+0000003030+Z
102365001102365018-000129     102365006001023403353MUG OCC. LOVE V-SHAPE  0000001000+00002630+00000+0001T   00002630+0000001140          1400 KL5515               1AZ
102365002102365112-116038     102365006009681820246TCS CARRIER BAG MIDI   0000001000+00000035+00000+0001T   00000035+0000001140          1400 KL5090               1AZ
102366000102366               102366               170213J6     1400+00000+J60000016073+0000016073+000000000+000002253+0000018320+0000000006+I20000000000+0000018320+Z
102366001102366112-116038     102366006009681820246TCS CARRIER BAG MIDI   0000001000+00000035+00000+0001T   00000035+0000001146          1400 KL5090               1AZ
102366002102366206-000530     102366006003000620821BIRTHDAY CANDLES 6PC   0000001000+00001139+00000+0001T   00001753+0008181146          1400 KL5321               1AZ
102366003102366206-000520     102366006003000620708NOVELTY BIRTHDAY CANDLE0000001000+00001314+00000+0001T   00001753+0008181146          1400 KL5321               1AZ
102366004102366206-000540     102366006003000620944BIRTHDAY CANDLES BLOCKS0000001000+00001314+00000+0001T   00001753+0008181146          1400 KL5321               1AZ
102366005102366563-000318-L   102366006003000407088SERVIETTES 33cm RED    0000001000+00002192+00000+0001T   00002192+0000001146          1400 KL5214               1AZ
102366006102366024-091103     102366006003453014307BAKING-CUP MUFFIN 50PCE0000001000+00002192+00000+0001T   00002192+0000001146          1400 KL5300               1AZ
102366007102366903-000619     102366006003000672455SWT LOLLY STR/BRRY 140G0000003000+00001753+00000+0001T   00001753+0000001146          1400 KL5150               1AZ
102366008102366903-000194     102366006009826020616SWT CHOC RP LOLLY 25G  0000002000+00001314+00000+0001T   00001314+0000001146          1400 KL5150               1AZ
102367000102367               102367               170213J6     1400+00000+J60000003506+0000003506+000000000+000000492+0000003990+0000000008+I20000000000+0000003990+Z
102367001102367366-006104     102367006003000616930DRESS UP FACE PAINT    0000002000+00001753+00000+0001T   00001753+0000001157          1400 KL5131               1AZ
102368000102368               102368               170213J6     1400+00000+J60000009111+0000009111+000000000+000001279+0000010390+0000000000+I20000000000+0000010390+Z
102368001102368080-000124     102368006003000297733CARD & ENV VALENTINES  0000001000+00001578+00000+0001T   00001578+0000001203          1400 KL5112               1AZ
102368002102368301-085002     102368006003000420704ORN OCC. LOVE BELL ASST0000001000+00001753+00000+0001T   00002630+0008121203          1400 KL5505               1AZ
102368003102368903-000194     102368006009826020616SWT CHOC RP LOLLY 25G  0000002000+00001314+00000+0001T   00001314+0000001203          1400 KL5150               1AZ
102368004102368903-000200     102368006009826020234SWT CHOC RP CHOCO 23G  0000004000+00000788+00000+0001T   00000788+0000001203          1400 KL5150               1AZ
102369000102369               102369               170213J6     1400+00000+J60000007717+0000007717+000000000+000001081+0000008790+0000000008+I20000000000+0000008790+Z
102369001102369077-000315     102369006003000181186GIFT-BAG 20x28cm MATT  0000001000+00001578+00000+0001T   00001578+0000001205          1400 KL5112               1AZ
102369002102369018-050000     102369006003000412679MUG OCC LOVE TWIN BEAR 0000001000+00006139+00000+0001T   00006139+0000001205          1400 KL5515               1AZ
102370000102370               102370               170213J6     1400+00000+J60000003418+0000003418+000000000+000000480+0000003898+0000000000+I40000003898+0000000000+Z
102370001102370077-000010-Z   102370006001023157874CREPE-PAPER BLK/ORG/PUR0000001000+00000788+00000+0001T   00000788+0000001215          1400 KL5112               1AZ
102370002102370077-000005-B   102370006003000326617PAPER TISSUE PATTERN   0000001000+00002630+00000+0001T   00002630+0000001215          1400 KL5112               1AZ
102371000102371               102371               170213J6     1400+00000+J60000004418+0000004418+000000000+000000619+0000005037+0000000000+I40000005037+0000000000+Z
102371001102371077-000302     102371008010410010195GIFT-BAG 18X23CM E/D   0000001000+00000876+00000+0001T   00000876+0000001222          1400 KL5112               1AZ
102371002102371018-000136     102371006001023659026MUG OCC LOVE W/PLUSH   0000001000+00003507+00000+0001T   00003507+0000001222          1400 KL5515               1AZ
102371003102371112-116038     102371006009681820246TCS CARRIER BAG MIDI   0000001000+00000035+00000+0001T   00000035+0000001222          1400 KL5090               1AZ
102372000102372               102372               170213J6     1400+00000+J60000001576+0000001576+000000000+000000222+0000001790+0000000008+I20000000000+0000001790+Z
102372001102372903-000200     102372006009826020234SWT CHOC RP CHOCO 23G  0000002000+00000788+00000+0001T   00000788+0000001231          1400 KL5150               1AZ
102373000102373               102373               170213J6     1400+00000+J60000007442+0000007442+000000000+000001044+0000008486+0000000000+I40000008486+0000000000+Z
102373001102373903-000519     102373006001704012805SWT MS LIQ-O-GHETTI    0000001000+00001227+00000+0001T   00001227+0000001234          1400 KL5150               1AZ
102373002102373007-000614     102373006001023768667DIARY W/LOCK+PEN LOVE  0000001000+00005262+00000+0001T   00005262+0000001234          1400 KL5130               1AZ
102373003102373071-000212     102373006009608641190CHALK WHITE 12PCE      0000001000+00000437+00000+0001T   00000437+0000001234          1400 KL5130               1AZ
102373004102373071-000012     102373006001177101006CHALK COLOUR 12PCE     0000001000+00000481+00000+0001T   00000481+0000001234          1400 KL5130               1AZ
102373005102373112-116038     102373006009681820246TCS CARRIER BAG MIDI   0000001000+00000035+00000+0001T   00000035+0000001234          1400 KL5090               1AZ
102374000102374               102374               170213J6     1400+00000+J60000003506+0000003506+000000000+000000492+0000003990+0000000008+I20000000000+0000003990+Z
102374001102374083-000058     102374006003000400331LIGHTER JET CIGAR REFIL0000001000+00002630+00000+0001T   00002630+0000001234          1400 KL5315               1AZ
102374002102374083-000295     102374006001023898562LIGHTER-GAS BUTANE 18ml0000001000+00000876+00000+0001T   00000876+0000001234          1400 KL5315               1AZ
102375000102375               102375               170213J6     1400+00000+J60000003104+0000003104+000000000+000000435+0000003530+0000000009+I20000000000+0000003530+Z
102375001102375031-000921     102375006001023667755P/FRAME COLLAGE 4-HOLE 0000001000+00003069+00000+0001T   00003069+0000001239          1400 KL5510               1AZ
102375002102375112-116038     102375006009681820246TCS CARRIER BAG MIDI   0000001000+00000035+00000+0001T   00000035+0000001239          1400 KL5090               1AZ
102376000102376               102376               170213J6     1400+00000+J60000021080+0000021080+000000000+000002954+0000024030+0000000004+I20000000000+0000024030+Z
102376001102376112-116038     102376006009681820246TCS CARRIER BAG MIDI   0000001000+00000035+00000+0001T   00000035+0000001253          1400 KL5090               1AZ
102376002102376567-011359     102376009780709721925BK EDU FIRST WORS      0000001000+00006139+00000+0001T   00006139+0000001253          1400 KL5757               1AZ
102376003102376567-011360     102376009780709721932BK EDU FIRST NUMBERS   0000001000+00006139+00000+0001T   00006139+0000001253          1400 KL5757               1AZ
102376004102376567-011493     102376000076645122070BK COLOURING 96P SCHOOL0000001000+00002630+00000+0001T   00002630+0000001253          1400 KL5757               1AZ
102376005102376567-011362     102376009780709722878BK EDU MY FIRST COUNT  0000001000+00003507+00000+0001T   00003507+0000001253          1400 KL5757               1AZ
102376006102376071-003850     102376006001023893253PENCIL 5PCE RAINBOW WDN0000001000+00002630+00000+0001T   00002630+0000001253          1400 KL5130               1AZ
102377000102377               102377               170213J6     1400+00000+J60000005083+0000005083+000000000+000000713+0000005790+0000000006+I20000000000+0000005790+Z
102377001102377567-011343     102377006003000630592BK COLOURING THERAPY   0000001000+00003507+00000+0001T   00003507+0000001253          1400 KL5757               1AZ
102377002102377903-000200     102377006009826020234SWT CHOC RP CHOCO 23G  0000002000+00000788+00000+0001T   00000788+0000001253          1400 KL5150               1AZ
102378000102378               102378               170213J6     1400+00000+J60000003507+0000003507+000000000+000000491+0000003990+0000000008+I20000000000+0000003990+Z
102378001102378004-071206     102378006003000605156USB CABLE CHARGER      0000001000+00003507+00000+0001T   00003507+0000001255          1400 KL5310               1AZ
102379000102379               102379               170213J6     1400+00000+J60000034249+0000034249+000000000+000004797+0000039046+0000000000+I40000039046+0000000000+Z
102379001102379365-003115     102379006003000157525PLAY-SET IRON+BOARD+ACC0000001000+00016665+00000+0001T   00016665+0000001304          1400 KL5725               1AZ
102379002102379079-013102     102379006003000019601ART+CRAFT DIY PIPE-CLNR0000008000+00002192+00000+0001T   00002192+0000001304          1400 KL5130               1AZ
102379003102379112-116069     102379006009681820277TCS CARRIER BAG JUMBO  0000001000+00000048+00000+0001T   00000048+0000001304          1400 KL5090               1AZ
102380000102380               102380               170213J6     1400+00000+J60000001314+0000001314+000000000+000000184+0000001490+0000000008+I20000000000+0000001490+Z
102380001102380077-000310     102380006001023608635GIFT-BAG 18X23CM GLOSS 0000001000+00001314+00000+0001T   00001314+0000001322          1400 KL5112               1AZ
102381000102381               102381               170213J6     1400+00000+J60000012279+0000012279+000000000+000001720+0000013999+0000000000+I40000013999+0000000000+Z
102381001102381464-003002     102381006003000328550GAME THINK:CHESS KIDS  0000001000+00012279+00000+0001T   00012279+0000001429          1400 KL5785               1AZ
102382000102382               102382               170213J6     1400+00000+J60000006173+0000006173+000000000+000000865+0000007030+0000000008+I20000000000+0000007030+Z
102382001102382082-000105     102382006003000360369READING GLS STRNGHT:1.50000001000+00004385+00000+0001T   00004385+0000001449          1400 KL5160               1AZ
102382002102382006-000120     102382006001023346889BALLOONS 10PC MIX COL  0000001000+00001753+00000+0001T   00001753+0000001449          1400 KL5131               1AZ
102382003102382112-116038     102382006009681820246TCS CARRIER BAG MIDI   0000001000+00000035+00000+0001T   00000035+0000001449          1400 KL5090               1AZ
102383000102383               102383               170213J6     1400+00000+J60000001314+0000001314+000000000+000000184+0000001490+0000000008+I20000000000+0000001490+Z
102383001102383903-000844     102383005010478432567SWT CANDY DL LUV HEARTS0000001000+00001314+00000+0001T   00001314+0000001457          1400 KL5150               1AZ
102384000102384               102384               170213J6     1400+00000+J60000002630+0000002630+000000000+000000369+0000002999+0000000000+I40000002999+0000000000+Z
102384001102384077-000456     102384006003000285549G/BAG METALLIC JMB EMB 0000001000+00002630+00000+0001T   00002630+0000001458          1400 KL5112               1AZ
102385000102385               102385               170213J6     1400+00000+J60000001576+0000001576+000000000+000000222+0000001790+0000000008+I20000000000+0000001790+Z
102385001102385903-000200     102385006009826020234SWT CHOC RP CHOCO 23G  0000002000+00000788+00000+0001T   00000788+0000001508          1400 KL5150               1AZ
102386000102386               102386               170213J6     1400+00000+J60000004385+0000004385+000000000+000000614+0000004999+0000000000+I40000004999+0000000000+Z
102386001102386006-000190     102386006003000685530BALLOONS LOVE 81x91cm  0000001000+00004385+00000+0001T   00004385+0000001512          1400 KL5131               1AZ
102387000102387               102387               170213J6     1400+00000+J60000000788+0000000788+000000000+000000111+0000000890+0000000009+I20000000000+0000000890+Z
102387001102387903-000200     102387006009826020234SWT CHOC RP CHOCO 23G  0000001000+00000788+00000+0001T   00000788+0000001519          1400 KL5150               1AZ
102388000102388               102388               170213J6     1400+00000+J60000000700+0000000700+000000000+000000098+0000000790+0000000008+I20000000000+0000000790+Z
102388001102388018-000177     102388006001023797513MUG MINI LOVE ASSTD    0000001000+00000700+00000+0001T   00000700+0000001548          1400 KL5515               1AZ
102389000102389               102389               170213J6     1400+00000+J60000008326+0000008326+000000000+000001168+0000009490+0000000004+I20000000000+0000009490+Z
102389001102389206-000590     102389006003000633708BAG CLIPS LIPS 2PC     0000002000+00001753+00000+0001T   00001753+0000001552          1400 KL5321               1AZ
102389002102389077-000470     102389006003000330171G-BAG DESGN SML 11X14CM0000001000+00001314+00000+0001T   00001314+0000001552          1400 KL5112               1AZ
102389003102389903-000619     102389006003000672455SWT LOLLY STR/BRRY 140G0000002000+00001753+00000+0001T   00001753+0000001552          1400 KL5150               1AZ
102390000102390               102390               170213J6     1400+00000+J60000001578+0000001578+000000000+000000221+0000001790+0000000009+I20000000000+0000001790+Z
102390001102390018-000127     102390006001023380289MUG OCC STRAIGHT LOVE  0000001000+00001578+00000+0001T   00001753+0006471553          1400 KL5515               1AZ
102391000102391               102391               170213J6     1400+00000+J60000001753+0000001753+000000000+000000246+0000001990+0000000009+I20000000000+0000001990+Z
102391001102391903-000619     102391006003000672455SWT LOLLY STR/BRRY 140G0000001000+00001753+00000+0001T   00001753+0000001554          1400 KL5150               1AZ
102392000102392               102392               170213J6     1400+00000+J60000000035+0000000035+000000000+000000005+0000000040+0000000000+I20000000000+0000000040+Z
102392001102392112-116038     102392006009681820246TCS CARRIER BAG MIDI   0000001000+00000035+00000+0001T   00000035+0000001554          1400 KL5090               1AZ
102393000102393               102393               170213J6     1400+00000+J60000011435+0000011435+000000000+000001602+0000013037+0000000000+I40000013037+0000000000+Z
102393001102393903-000619     102393006003000672455SWT LOLLY STR/BRRY 140G0000001000+00001753+00000+0001T   00001753+0000001557          1400 KL5150               1AZ
102393002102393368-000049     102393006003000536955PLUSH BEAR 15cm LOVE   0000001000+00004385+00000+0001T   00004385+0000001557          1400 KL5745               1AZ
102393003102393018-019000     102393006003000557288MUG OCC. LOVE JUMBO    0000001000+00005262+00000+0001T   00005262+0000001557          1400 KL5515               1AZ
102393004102393112-116038     102393006009681820246TCS CARRIER BAG MIDI   0000001000+00000035+00000+0001T   00000035+0000001557          1400 KL5090               1AZ
102394000102394               102394               170213J6     1400+00000+J60000009241+0000009241+000000000+000001295+0000010536+0000000000+I40000010536+0000000000+Z
102394001102394112-116038     102394006009681820246TCS CARRIER BAG MIDI   0000001000+00000035+00000+0001T   00000035+0000001559          1400 KL5090               1AZ
102394002102394089-060027     102394006003000245871KEY-CHAIN HEART 6X6cm  0000001000+00003069+00000+0001T   00003069+0000001559          1400 KL5205               1AZ
102394003102394079-006498     102394006001023836151GLITTER SET 10PCE      0000001000+00003507+00000+0001T   00003507+0000001559          1400 KL5130               1AZ
102394004102394079-013101     102394006001023863706CRAFT SET DIY PIPE-CLNR0000001000+00002630+00000+0001T   00002630+0000001559          1400 KL5130               1AZ
102395000102395               102395               170213J6     1400+00000+J60000007924+0000007924+000000000+000001111+0000009030+0000000005+I20000000000+0000009030+Z
102395001102395077-000315     102395006003000181186GIFT-BAG 20x28cm MATT  0000001000+00001578+00000+0001T   00001578+0000001600          1400 KL5112               1AZ
102395002102395018-005009     102395006001023725608MUG W/PLUSH-BEAR LOVE  0000001000+00003507+00000+0001T   00003507+0000001600          1400 KL5515               1AZ
102395003102395304-001204     102395006001023737984FLOWER OCC. TEDDY/ROSES0000002000+00001402+00000+0001T   00001490+0006471600          1400 KL5510               1AZ
102395004102395112-116038     102395006009681820246TCS CARRIER BAG MIDI   0000001000+00000035+00000+0001T   00000035+0000001600          1400 KL5090               1AZ
102396000102396               102396               170213J6     1400+00000+J60000005295+0000005295+000000000+000000742+0000006030+0000000007+I20000000000+0000006030+Z
102396001102396112-116038     102396006009681820246TCS CARRIER BAG MIDI   0000001000+00000035+00000+0001T   00000035+0000001609          1400 KL5090               1AZ
102396002102396018-005009     102396006001023725608MUG W/PLUSH-BEAR LOVE  0000001000+00003507+00000+0001T   00003507+0000001609          1400 KL5515               1AZ
102396003102396007-000192     102396006009635830062BOOK H/COVER A4 192PAGE0000001000+00001753+00000+0001T   00001753+0000001609          1400 KL5130               1AZ
102397000102397               102397               170213J6     1400+00000+J60000000306+0000000306+000000000+000000043+0000000340+0000000009+I20000000000+0000000340+Z
102397001102397007-000123     102397006003000533879BOOK COVER 450mmx1.5m  0000001000+00000306+00000+0001T   00000306+0000001610          1400 KL5130               1AZ
102398000102398               102398               170213J6     1400+00000+J60000004385+0000004385+000000000+000000614+0000004990+0000000009+I20000000000+0000004990+Z
102398001102398368-000049     102398006003000536955PLUSH BEAR 15cm LOVE   0000001000+00004385+00000+0001T   00004385+0000001612          1400 KL5745               1AZ
102399000102399               102399               170213J6     1400+00000+J60000000700+0000000700+000000000+000000098+0000000790+0000000008+I20000000000+0000000790+Z
102399001102399564-000012     102399006001023130075BUBBLE BOTTLE MAGIC    0000001000+00000700+00000+0001T   00000700+0000001612          1400 KL5131               1AZ
102400000102400               102400               170213J6     1400+00000+J60000009941+0000009941+000000000+000001392+0000011333+0000000000+I40000011333+0000000000+Z
102400001102400071-003023     102400006001023836120BALLPENS 10PCE MINI GEL0000001000+00003507+00000+0001T   00003507+0000001614          1400 KL5130               1AZ
102400002102400007-000542     102400006001023847874NOTE-BOOK H/C SKETCHPAD0000001000+00003507+00000+0001T   00003507+0000001614          1400 KL5130               1AZ
102400003102400077-000315     102400006003000181186GIFT-BAG 20x28cm MATT  0000001000+00001578+00000+0001T   00001578+0000001614          1400 KL5112               1AZ
102400004102400903-000194     102400006009826020616SWT CHOC RP LOLLY 25G  0000001000+00001314+00000+0001T   00001314+0000001614          1400 KL5150               1AZ
102400005102400112-116038     102400006009681820246TCS CARRIER BAG MIDI   0000001000+00000035+00000+0001T   00000035+0000001614          1400 KL5090               1AZ
102401000102401               102401               170213J6     1400+00000+J60000003542+0000003542+000000000+000000496+0000004030+0000000008+I20000000000+0000004030+Z
102401001102401566-000317     102401006003000524204STICKER TAPE 2PCS      0000001000+00003507+00000+0001T   00003507+0000001654          1400 KL5130               1AZ
102401002102401112-116038     102401006009681820246TCS CARRIER BAG MIDI   0000001000+00000035+00000+0001T   00000035+0000001654          1400 KL5090               1AZ
102402000102402               102402               170213J6     1400+00000+J60000008806+0000008806+000000000+000001233+0000010039+0000000000+I40000010039+0000000000+Z
102402001102402368-000614     102402006001023705808PLUSH LOVE 30cm        0000001000+00008771+00000+0001T   00008771+0000001656          1400 KL5745               1AZ
102402002102402112-116038     102402006009681820246TCS CARRIER BAG MIDI   0000001000+00000035+00000+0001T   00000035+0000001656          1400 KL5090               1AZ
102403000102403               102403               170213J6     1400+00000+J60000009645+0000009645+000000000+000001351+0000010990+0000000006+I20000000000+0000010990+Z
102403001102403077-000309     102403006001023608604GIFT-BAG 25X32CM GLOSS 0000001000+00001753+00000+0001T   00001753+0000001704          1400 KL5112               1AZ
102403002102403018-000136     102403006001023659026MUG OCC LOVE W/PLUSH   0000001000+00003507+00000+0001T   00003507+0000001704          1400 KL5515               1AZ
102403003102403368-000001     102403006003000097982Plush Bear 25cm        0000001000+00004385+00000+0001T   00004385+0000001704          1400 KL5745               1AZ
102404000102404               102404               170213J6     1400+00000+J60000001314+0000001314+000000000+000000184+0000001490+0000000008+I20000000000+0000001490+Z
102404001102404077-000310     102404006001023608635GIFT-BAG 18X23CM GLOSS 0000001000+00001314+00000+0001T   00001314+0000001707          1400 KL5112               1AZ
102405000102405               102405               170213J6     1400+00000+J60000005250+0000005250+000000000+000000740+0000005990+0000000000+I20000000000+0000005990+Z
102405001102405903-000077     102405006939873501687SWT GS MAGIC ROCK FRUIT0000010000+00000525+00000+0001T   00000525+0000001708          1400 KL5150               1AZ
102406000102406               102406               170213J6     1400+00000+J60000040814+0000040814+000000000+000005725+0000046530+0000000009+I20000000000+0000046530+Z
102406001102406112-116069     102406006009681820277TCS CARRIER BAG JUMBO  0000001000+00000048+00000+0001T   00000048+0000001713          1400 KL5090               1AZ
102406002102406006-000106     102406006003000471331WATERBOMBS 150PCE 6-COL0000001000+00005262+00000+0001T   00005262+0000001713          1400 KL5131               1AZ
102406003102406306-001805     102406006003000275908HAND SANITIZER 2PCE    0000001000+00002630+00000+0001T   00002630+0000001713          1400 KL5200               1AZ
102406004102406206-000520     102406006003000620708NOVELTY BIRTHDAY CANDLE0000001000+00001314+00000+0001T   00001753+0008181713          1400 KL5321               1AZ
102406005102406006-006018     102406006001023735256PARTY-SPRAY HAIR ASSORT0000003000+00002630+00000+0001T   00002630+0000001713          1400 KL5131               1AZ
102406006102406006-006018-B   102406006003000008278PARTY-SPRAY HAIR NEON  0000002000+00002630+00000+0001T   00002630+0000001713          1400 KL5131               1AZ
102406007102406006-006018     102406006001023735256PARTY-SPRAY HAIR ASSORT0000002000+00002630+00000+0001T   00002630+0000001713          1400 KL5131               1AZ
102406008102406006-006019     102406006001023908193PARTY-SPRAY GLITTER    0000002000+00002630+00000+0001T   00002630+0000001713          1400 KL5131               1AZ
102406009102406006-006018     102406006001023735256PARTY-SPRAY HAIR ASSORT0000003000+00002630+00000+0001T   00002630+0000001713          1400 KL5131               1AZ
102407000102407               102407               170213J6     1400+00000+J60000002625+0000002625+000000000+000000370+0000002990+0000000005+I20000000000+0000002990+Z
102407001102407903-000077     102407006939873501687SWT GS MAGIC ROCK FRUIT0000005000+00000525+00000+0001T   00000525+0000001715          1400 KL5150               1AZ
102408000102408               102408               170213J6     1400+00000+J60000003507+0000003507+000000000+000000491+0000003998+0000000000+I40000003998+0000000000+Z
102408001102408071-005667     102408006003000153060STAPLER SET MTL W/STPLS0000001000+00003507+00000+0001T   00003507+0000001717          1400 KL5130               1AZ
102409000102409               102409               170213J6     1400+00000+J60000004384+0000004384+000000000+000000614+0000004990+0000000008+I20000000000+0000004990+Z
102409001102409046-000012-A   102409006003000208296BATTERIES H/POWER SZ:AA0000002000+00002192+00000+0001T   00002192+0000001717          1400 KL5312               1AZ
102410000102410               102410               170213J6     1400+00000+J60000004677+0000004677+000000000+000000658+0000005335+0000000000+I40000005335+0000000000+Z
102410001102410566-000359     102410006003000582709STICKER BOOK LOVE SPARK0000001000+00002192+00000+0001T   00002192+0000001720          1400 KL5130               1AZ
102410002102410080-000133     102410006003000535613CARD&ENV MINI ASTD DSGN0000002000+00000437+00000+0001T   00000437+0000001720          1400 KL5112               1AZ
102410003102410903-000200     102410006009826020234SWT CHOC RP CHOCO 23G  0000002000+00000788+00000+0001T   00000788+0000001720          1400 KL5150               1AZ
102410004102410112-116038     102410006009681820246TCS CARRIER BAG MIDI   0000001000+00000035+00000+0001T   00000035+0000001720          1400 KL5090               1AZ
102411000102411               102411               170213J6     1400+00000+J60000001753+0000001753+000000000+000000246+0000001990+0000000009+I20000000000+0000001990+Z
102411001102411200-003024     102411006001023657299REFUSE BAGS 20PCE BLACK0000001000+00001753+00000+0001T   00001753+0000001721          1400 KL5214               1AZ
102412000102412               102412               170213J6     1400+00000+J60000004420+0000004420+000000000+000000619+0000005039+0000000000+I40000005039+0000000000+Z
102412001102412112-116038     102412006009681820246TCS CARRIER BAG MIDI   0000001000+00000035+00000+0001T   00000035+0000001728          1400 KL5090               1AZ
102412002102412018-030000     102412006003000421060MUG OCCASIONS LOVE 2PCE0000001000+00004385+00000+0001T   00004385+0000001728          1400 KL5515               1AZ
102413000102413               102413               170213J6     1400+00000+J60000001613+0000001613+000000000+000000226+0000001830+0000000009+I20000000000+0000001830+Z
102413001102413018-000127     102413006001023380289MUG OCC STRAIGHT LOVE  0000001000+00001578+00000+0001T   00001753+0006471731          1400 KL5515               1AZ
102413002102413112-116038     102413006009681820246TCS CARRIER BAG MIDI   0000001000+00000035+00000+0001T   00000035+0000001731          1400 KL5090               1AZ
102414000102414               102414               170213J6     1400+00000+J60000000437+0000000437+000000000+000000062+0000000490+0000000009+I20000000000+0000000490+Z
102414001102414080-000133-A   102414006003000647019MINI VALENTINES CARD   0000001000+00000437+00000+0001T   00000437+0000001732          1400 KL5112               1AZ
102415000102415               102415               170213J6     1400+00000+J60000011446+0000011446+000000000+000001604+0000013050+0000000000+I20000000000+0000013050+Z
102415001102415112-116069     102415006009681820277TCS CARRIER BAG JUMBO  0000001000+00000048+00000+0001T   00000048+0000001733          1400 KL5090               1AZ
102415002102415200-003024     102415006001023657299REFUSE BAGS 20PCE BLACK0000001000+00001753+00000+0001T   00001753+0000001733          1400 KL5214               1AZ
102415003102415024-000003     102415006001023462206S/BURNER COVERS ASSTD  0000001000+00004385+00000+0001T   00004385+0000001733          1400 KL5300               1AZ
102415004102415024-000038     102415006001023477026MEASURING-JUG 1L (4CUP)0000001000+00001753+00000+0001T   00001753+0000001733          1400 KL5300               1AZ
102415005102415106-007105     102415006001023857644JUG 1,8L FRIDGE-DOOR   0000001000+00003507+00000+0001T   00003507+0000001733          1400 KL5210               1AZ
102416000102416               102416               170213J6     1400+00000+J60000009379+0000009379+000000000+000001315+0000010694+0000000000+I40000010694+0000000000+Z
102416001102416903-000619     102416006003000672455SWT LOLLY STR/BRRY 140G0000001000+00001753+00000+0001T   00001753+0000001736          1400 KL5150               1AZ
102416002102416080-000133     102416006003000535613CARD&ENV MINI ASTD DSGN0000001000+00000437+00000+0001T   00000437+0000001736          1400 KL5112               1AZ
102416003102416032-000309     102416006001023477804MIRROR STANDING PL SML 0000001000+00001490+00000+0001T   00001490+0000001736          1400 KL5510               1AZ
102416004102416368-000001     102416006003000097982Plush Bear 25cm        0000001000+00004385+00000+0001T   00004385+0000001736          1400 KL5745               1AZ
102416005102416077-000310     102416006001023608635GIFT-BAG 18X23CM GLOSS 0000001000+00001314+00000+0001T   00001314+0000001736          1400 KL5112               1AZ
102417000102417               102417               170213J6     1400+00000+J60000001402+0000001402+000000000+000000197+0000001590+0000000009+I20000000000+0000001590+Z
102417001102417304-001204     102417006001023737984FLOWER OCC. TEDDY/ROSES0000001000+00001402+00000+0001T   00001490+0006471736          1400 KL5510               1AZ
102418000102418               102418               170213J6     1400+00000+J60000001314+0000001314+000000000+000000184+0000001490+0000000008+I20000000000+0000001490+Z
102418001102418077-000470     102418006003000330171G-BAG DESGN SML 11X14CM0000001000+00001314+00000+0001T   00001314+0000001737          1400 KL5112               1AZ
102419000102419               102419               170213J6     1400+00000+J60000000876+0000000876+000000000+000000123+0000000990+0000000009+I20000000000+0000000990+Z
102419001102419077-000150-D   102419006003000054343GIFT-WRAP CELLPHANE CLR0000001000+00000876+00000+0001T   00000876+0000001740          1400 KL5112               1AZ
A17021300                                          17315126J6SLAVE 1                       KL51IC
M17021391                              CASH        J6SLAVE 1                       Z-REPORT No.   363TOTAL (Sales - Refunds)           4714.23       CASH TO BE BANKED                 2613.50       DEBIT CARDS                          0.00       CREDIT CARDS                      2100.73       Z-READING                         4714.23       AIRTIME DEBIT CARD SALES             0.00       AIRTIME CARD SALES                   0.00       OVERS/UNDERS                         0.00       AIRTIME CASH SALES                   0.00       GIFT CARDS                           0.00       GIFT CARD CASH SALES                 0.00       T O T A L  CASH PAYOUTS              0.00                                                                                                                                                                                                                                                                                                                                                      Z
M17021392                              CASH        J6ABSENT                                                                                                                                                                                          ANNUAL LEAVE                                                                                                                                                                                    DAY OFF                                                                                                                                                                                         COMMENTS          Z READ TOTAL R4714.23                           SLV 1                                                                                                                                                                                                                                                                                                                        Z
Y17021300                                          J600000000413746+000065
ZJ617021319513 SLAVE 1      SALES DATA                     NEXT INVOICE NO.  102420 0363
X J6 Slave 1 First invoice 102355 170213 Last invoice 102419 170213 Next invoice 102420 Total number of records 000000237 clbackup completed 19:51:54
