202347000202347               202347               170213J6     1400+00000+J60000002630+0000002630+000000000+000000369+0000002999+0000000000+I40000002999+0000000000+Z
202347001202347033-006003     202347006001023678584SEWING-KIT             0000001000+00002630+00000+0001T   00002630+0000000907          1400 JY7200               2AZ
202348000202348               202348               170213J6     1400+00000+J60000015815+0000015815+000000000+000002216+0000018031+0000000000+I40000018031+0000000000+Z
202348001202348112-116038     202348006009681820246TCS CARRIER BAG MIDI   0000001000+00000035+00000+0001T   00000035+0000000914          1400 JY7090               2AZ
202348002202348567-011437     202348009781847508683BK COLOURING GIRLS     0000001000+00003507+00000+0001T   00003507+0000000914          1400 JY7757               2AZ
202348003202348567-011353     202348009780709721703BK ACTIVITY FAIRIES    0000001000+00003507+00000+0001T   00003507+0000000914          1400 JY7757               2AZ
202348004202348567-011349     202348009780709713654BK STICKER FUN & COLOUR0000001000+00003507+00000+0001T   00003507+0000000914          1400 JY7757               2AZ
202348005202348567-014132     202348006003000560028BOOK COLOURING 24 PAGE 0000001000+00000876+00000+0001T   00000876+0000000914          1400 JY7757               2AZ
202348006202348361-000114     202348006001023744074DOLL SML 15cm BENDABLE 0000001000+00001753+00000+0001T   00001753+0000000914          1400 JY7725               2AZ
202348007202348079-000514     202348009556341898321CRAYONS WAX 24-COLOUR  0000001000+00002630+00000+0001T   00002630+0000000914          1400 JY7130               2AZ
202349000202349               202349               170213J6     1400+00000+J60000004420+0000004420+000000000+000000619+0000005030+0000000009+I20000000000+0000005030+Z
202349001202349368-000049     202349006003000536955PLUSH BEAR 15cm LOVE   0000001000+00004385+00000+0001T   00004385+0000000926          1400 JY7745               2AZ
202349002202349112-116038     202349006009681820246TCS CARRIER BAG MIDI   0000001000+00000035+00000+0001T   00000035+0000000926          1400 JY7090               2AZ
202350000202350               202350               170213J6     1400+00000+J60000002629+0000002629+000000000+000000369+0000002990+0000000008+I20000000000+0000002990+Z
202350001202350039-000319-1   202350006003000442386B/CANDLES LRG NUMBER-1 0000001000+00000876+00000+0001T   00000876+0000000931          1400 JY7510               2AZ
202350002202350006-000124     202350006003000625888BALLOONS 10PC MIX COL  0000001000+00001753+00000+0001T   00001753+0000000931          1400 JY7131               2AZ
202351000202351               202351               170213J6     1400+00000+J60000001753+0000001753+000000000+000000246+0000001990+0000000009+I20000000000+0000001990+Z
202351001202351200-003024     202351006001023657299REFUSE BAGS 20PCE BLACK0000001000+00001753+00000+0001T   00001753+0000000932          1400 JY7214               2AZ
202352000202352               202352               170213J6     1400+00000+J60000000876+0000000876+000000000+000000123+0000000990+0000000009+I20000000000+0000000990+Z
202352001202352078-000025     202352008887013700064SUPERGLUE 3g 1PCE CARD 0000001000+00000876+00000+0001T   00000876+0000000946          1400 JY7810               2AZ
202353000202353               202353               170213J6     1400+00000+J60000008771+0000008771+000000000+000001228+0000009990+0000000009+I20000000000+0000009990+Z
202353001202353001-091415     202353006003000329113W/GLS OCC. LOVE 2PC 2800000001000+00008771+00000+0001T   00009648+0006471105          1400 JY7515               2AZ
202354000202354               202354               170213J6     1400+00000+J60000003912-0000003912-000000000+000000548-0000004460-0000000000+I20000000000+0000004460-Z
202354001202354001-999910     202354000000000999910POSTAGE                0000001000-00003912+00000+0001T   00000000+0000001221          1400 JY79102IC            2 Z
202355000202355               202355               170213J6     1400+00000+J60000002543-0000002543-000000000+000000357-0000002900-0000000000+I20000000000+0000002900-Z
202355001202355001-999906     202355000000000999906STATIONERY(PHOTOCOPIES)0000001000-00002543+00000+0001T   00000000+0000001222          1400 JY79062IC            2 Z
202356000202356               202356               170213J6     1400+00000+J60000001226+0000001226+000000000+000000172+0000001398+0000000000+I40000001398+0000000000+Z
202356001202356083-000055     202356006003000003853LIGHTER ELCTRNC REFILBL0000002000+00000613+00000+0001T   00000613+0000001355          1400 JY7315               2AZ
202357000202357               202357               170213J6     1400+00000+J60000010382+0000010382+000000000+000001455+0000011837+0000000000+I40000011837+0000000000+Z
202357001202357112-116038     202357006009681820246TCS CARRIER BAG MIDI   0000001000+00000035+00000+0001T   00000035+0000001400          1400 JY7090               2AZ
202357002202357263-000160     202357006001023690975MOTORBIKE FRIC QUAD    0000001000+00007016+00000+0001T   00007016+0000001400          1400 JY7710               2AZ
202357003202357083-000054     202357006001023729071LIGHTER REFILLABLE LED 0000001000+00001578+00000+0001T   00001578+0000001400          1400 JY7315               2AZ
202357004202357903-000215     202357006002099001214SWT GS MALLOW TWIST PAC0000001000+00001753+00000+0001T   00001753+0000001400          1400 JY7150               2AZ
202358000202358               202358               170213J6     1400+00000+J60000001753+0000001753+000000000+000000246+0000001990+0000000009+I20000000000+0000001990+Z
202358001202358200-003024     202358006001023657299REFUSE BAGS 20PCE BLACK0000001000+00001753+00000+0001T   00001753+0000001410          1400 JY7214               2AZ
202359000202359               202359               170213J6     1400+00000+J60000000437+0000000437+000000000+000000062+0000000490+0000000009+I20000000000+0000000490+Z
202359001202359080-000133     202359006003000535613CARD&ENV MINI ASTD DSGN0000001000+00000437+00000+0001T   00000437+0000001411          1400 JY7112               2AZ
202360000202360               202360               170213J6     1400+00000+J60000003803+0000003803+000000000+000000534+0000004330+0000000007+I20000000000+0000004330+Z
202360001202360903-000200     202360006009826020234SWT CHOC RP CHOCO 23G  0000002000+00000788+00000+0001T   00000788+0000001419          1400 JY7150               2AZ
202360002202360018-000170     202360006001023775528MUG OCC. LOVE 2PC MINI 0000001000+00002192+00000+0001T   00002192+0000001419          1400 JY7515               2AZ
202360003202360112-116038     202360006009681820246TCS CARRIER BAG MIDI   0000001000+00000035+00000+0001T   00000035+0000001419          1400 JY7090               2AZ
202361000202361               202361               170213J6     1400+00000+J60000003507+0000003507+000000000+000000491+0000003990+0000000008+I20000000000+0000003990+Z
202361001202361004-071206     202361006003000605156USB CABLE CHARGER      0000001000+00003507+00000+0001T   00003507+0000001428          1400 JY7310               2AZ
202362000202362               202362               170213J6     1400+00000+J60000003542+0000003542+000000000+000000496+0000004030+0000000008+I20000000000+0000004030+Z
202362001202362018-000130     202362006001023867537MUG OCC LOVE MINI+HEART0000001000+00003507+00000+0001T   00003507+0000001430          1400 JY7515               2AZ
202362002202362112-116038     202362006009681820246TCS CARRIER BAG MIDI   0000001000+00000035+00000+0001T   00000035+0000001430          1400 JY7090               2AZ
202363000202363               202363               170213J6     1400+00000+J60000003331+0000003331+000000000+000000467+0000003790+0000000008+I20000000000+0000003790+Z
202363001202363078-013424     202363006008741000338CONTACT-ADHESIVE 50ml  0000001000+00001578+00000+0001T   00001578+0000001438          1400 JY7810               2AZ
202363002202363078-000470     202363006007347000018SHOE-CEMENT 70ml-TIN   0000001000+00001753+00000+0001T   00001753+0000001438          1400 JY7810               2AZ
202364000202364               202364               170213J6     1400+00000+J60000014778+0000014778+000000000+000002070+0000016840+0000000008+I20000000000+0000016840+Z
202364001202364112-116069     202364006009681820277TCS CARRIER BAG JUMBO  0000001000+00000048+00000+0001T   00000048+0000001440          1400 JY7090               2AZ
202364002202364077-000316     202364006001023609731GIFT-BAG 25X32CM MATT  0000001000+00001753+00000+0001T   00001753+0000001440          1400 JY7112               2AZ
202364003202364031-005920     202364006003000580699P/FRAME PL PLAIN 20X25 0000001000+00003507+00000+0001T   00003507+0000001440          1400 JY7510               2AZ
202364004202364018-000136     202364006001023659026MUG OCC LOVE W/PLUSH   0000001000+00003507+00000+0001T   00003507+0000001440          1400 JY7515               2AZ
202364005202364031-080508     202364006001023802415P/FRAME PL 22X11CM LOVE0000001000+00004385+00000+0001T   00004385+0000001440          1400 JY7510               2AZ
202364006202364080-000124     202364006003000297733CARD & ENV VALENTINES  0000001000+00001578+00000+0001T   00001578+0000001440          1400 JY7112               2AZ
202365000202365               202365               170213J6     1400+00000+J60000001753+0000001753+000000000+000000246+0000001990+0000000009+I20000000000+0000001990+Z
202365001202365301-085002     202365006003000420704ORN OCC. LOVE BELL ASST0000001000+00001753+00000+0001T   00002630+0008121441          1400 JY7505               2AZ
202366000202366               202366               170213J6     1400+00000+J60000001578+0000001578+000000000+000000221+0000001790+0000000009+I20000000000+0000001790+Z
202366001202366018-000127     202366006001023380289MUG OCC STRAIGHT LOVE  0000001000+00001578+00000+0001T   00001753+0006471443          1400 JY7515               2AZ
202367000202367               202367               170213J6     1400+00000+J60000001752+0000001752+000000000+000000246+0000001990+0000000008+I20000000000+0000001990+Z
202367001202367903-000482     202367006001704001397SWT SOFT-MINTS 60G     0000001000+00000876+00000+0001T   00000876+0000001503          1400 JY7150               2AZ
202367002202367903-000220     202367006001704007368SWT JELLY BEANS 60G    0000001000+00000876+00000+0001T   00000876+0000001503          1400 JY7150               2AZ
202368000202368               202368               170213J6     1400+00000+J60000003504+0000003504+000000000+000000492+0000003996+0000000000+I40000003996+0000000000+Z
202368001202368206-000590     202368006003000633708BAG CLIPS LIPS 2PC     0000001000+00001753+00000+0001T   00001753+0000001537          1400 JU6321               2AZ
202368002202368046-000012     202368006904708013062BATTERIES AA  CARD-OF-40000001000+00001314+00000+0001T   00001314+0000001537          1400 JU6312               2AZ
202368003202368080-000133-A   202368006003000647019MINI VALENTINES CARD   0000001000+00000437+00000+0001T   00000437+0000001537          1400 JU6112               2AZ
202369000202369               202369               170213J6     1400+00000+J60000003539+0000003539+000000000+000000497+0000004030+0000000006+I20000000000+0000004030+Z
202369001202369112-116038     202369006009681820246TCS CARRIER BAG MIDI   0000001000+00000035+00000+0001T   00000035+0000001540          1400 JU6090               2AZ
202369002202369080-000133-A   202369006003000647019MINI VALENTINES CARD   0000001000+00000437+00000+0001T   00000437+0000001540          1400 JU6112               2AZ
202369003202369080-000113     202369006003000237449CARD&ENVLPE - LOVE     0000001000+00001753+00000+0001T   00001753+0000001540          1400 JU6112               2AZ
202369004202369077-000310     202369006001023608635GIFT-BAG 18X23CM GLOSS 0000001000+00001314+00000+0001T   00001314+0000001540          1400 JU6112               2AZ
202370000202370               202370               170213J6     1400+00000+J60000007310+0000007310+000000000+000001025+0000008330+0000000005+I20000000000+0000008330+Z
202370001202370112-116038     202370006009681820246TCS CARRIER BAG MIDI   0000001000+00000035+00000+0001T   00000035+0000001547          1400 JU6090               2AZ
202370002202370565-000050     202370006001023906199SLIME BOMB DISPLAY BOX 0000001000+00001753+00000+0001T   00001753+0000001547          1400 JU6745               2AZ
202370003202370565-000256     202370006003000609826NOVELTY GLOW SLIME     0000001000+00000700+00000+0001T   00000700+0000001547          1400 JU6745               2AZ
202370004202370565-000888     202370006003000607846NOVELTY MESH BALL      0000001000+00001753+00000+0001T   00001753+0000001547          1400 JU6745               2AZ
202370005202370464-000107     202370000073854318089PLAY-CARDS 2nd (SINGLE)0000001000+00003069+00000+0001T   00003069+0000001547          1400 JU6785               2AZ
202371000202371               202371               170213J6     1400+00000+J60000000700+0000000700+000000000+000000098+0000000790+0000000008+I20000000000+0000000790+Z
202371001202371018-000177     202371006001023797513MUG MINI LOVE ASSTD    0000001000+00000700+00000+0001T   00000700+0000001554          1400 JU6515               2AZ
202372000202372               202372               170213J6     1400+00000+J60000004385+0000004385+000000000+000000614+0000004990+0000000009+I20000000000+0000004990+Z
202372001202372072-000606     202372006001023858566DOG-COLLAR+LEAD        0000001000+00004385+00000+0001T   00004385+0000001612          1400 JU6870               2AZ
202373000202373               202373               170213J6     1400+00000+J60000008767+0000008767+000000000+000001229+0000009990+0000000006+I20000000000+0000009990+Z
202373001202373079-014152     202373006003000253074ART+CRAFT PK50 ASSTD   0000001000+00003069+00000+0001T   00003069+0000001614          1400 JU6130               2AZ
202373002202373077-000239     202373006003000160419GIFT-RIBBON ROLL PEARL 0000001000+00001753+00000+0001T   00001753+0000001614          1400 JU6112               2AZ
202373003202373079-006522     202373006001023149442ART+CRAFT GLUE ASSORTED0000001000+00001753+00000+0001T   00001753+0000001614          1400 JU6130               2AZ
202373004202373077-000926     202373006003000414178G/WRAP 700mmx2m LOVE   0000001000+00002192+00000+0001T   00002192+0000001614          1400 JU6112               2AZ
202374000202374               202374               170213J6     1400+00000+J60000008535+0000008535+000000000+000001197+0000009732+0000000000+I40000009732+0000000000+Z
202374001202374112-116038     202374006009681820246TCS CARRIER BAG MIDI   0000001000+00000035+00000+0001T   00000035+0000001625          1400 JU6090               2AZ
202374002202374077-000310     202374006001023608635GIFT-BAG 18X23CM GLOSS 0000002000+00001314+00000+0001T   00001314+0000001625          1400 JU6112               2AZ
202374003202374018-000127     202374006001023380289MUG OCC STRAIGHT LOVE  0000001000+00001578+00000+0001T   00001753+0006471625          1400 JU6515               2AZ
202374004202374903-000200     202374006009826020234SWT CHOC RP CHOCO 23G  0000001000+00000788+00000+0001T   00000788+0000001625          1400 JU6150               2AZ
202374005202374206-000590     202374006003000633708BAG CLIPS LIPS 2PC     0000002000+00001753+00000+0001T   00001753+0000001625          1400 JU6321               2AZ
202375000202375               202375               170213J6     1400+00000+J60000006172+0000006172+000000000+000000865+0000007030+0000000007+I20000000000+0000007030+Z
202375001202375112-116038     202375006009681820246TCS CARRIER BAG MIDI   0000001000+00000035+00000+0001T   00000035+0000001627          1400 JU6090               2AZ
202375002202375031-000868-B   202375006001023798565P/FRAME PL BLCK 13X18CM0000001000+00002630+00000+0001T   00002630+0000001627          1400 JU6510               2AZ
202375003202375018-000136     202375006001023659026MUG OCC LOVE W/PLUSH   0000001000+00003507+00000+0001T   00003507+0000001627          1400 JU6515               2AZ
202376000202376               202376               170213J6     1400+00000+J60000001578+0000001578+000000000+000000221+0000001799+0000000000+I40000001799+0000000000+Z
202376001202376077-000315     202376006003000181186GIFT-BAG 20x28cm MATT  0000001000+00001578+00000+0001T   00001578+0000001629          1400 JU6112               2AZ
202377000202377               202377               170213J6     1400+00000+J60000001578+0000001578+000000000+000000221+0000001790+0000000009+I20000000000+0000001790+Z
202377001202377077-000315     202377006003000181186GIFT-BAG 20x28cm MATT  0000001000+00001578+00000+0001T   00001578+0000001640          1400 JU6112               2AZ
202378000202378               202378               170213J6     1400+00000+J60000001753+0000001753+000000000+000000246+0000001990+0000000009+I20000000000+0000001990+Z
202378001202378079-000012     202378006001023655332P/CRAYONS 12-COL LONG  0000001000+00001753+00000+0001T   00001753+0000001642          1400 JU6130               2AZ
202379000202379               202379               170213J6     1400+00000+J60000000437+0000000437+000000000+000000062+0000000490+0000000009+I20000000000+0000000490+Z
202379001202379080-000133-A   202379006003000647019MINI VALENTINES CARD   0000001000+00000437+00000+0001T   00000437+0000001645          1400 JU6112               2AZ
202380000202380               202380               170213J6     1400+00000+J60000000000+0000000000+000000000+000000000+0000000000+0000000000+I20000000000+0000000000+Z
202380001202380080-000133-A   202380006003000647019MINI VALENTINES CARD   0000001000-00000437+00000+0001T   00000437+0000001647          1400 JU61121IC            2 Z
202380002202380080-000133     202380006003000535613CARD&ENV MINI ASTD DSGN0000001000+00000437+00000+0001T   00000437+0000001647          1400 JU6112               2 Z
202381000202381               202381               170213J6     1400+00000+J60000006174+0000006174+000000000+000000865+0000007039+0000000000+I40000007039+0000000000+Z
202381001202381018-050000     202381006003000412679MUG OCC LOVE TWIN BEAR 0000001000+00006139+00000+0001T   00006139+0000001650          1400 JU6515               2AZ
202381002202381112-116038     202381006009681820246TCS CARRIER BAG MIDI   0000001000+00000035+00000+0001T   00000035+0000001650          1400 JU6090               2AZ
202382000202382               202382               170213J6     1400+00000+J60000002192+0000002192+000000000+000000307+0000002499+0000000000+I40000002499+0000000000+Z
202382001202382018-000170     202382006001023775528MUG OCC. LOVE 2PC MINI 0000001000+00002192+00000+0001T   00002192+0000001654          1400 JU6515               2AZ
202383000202383               202383               170213J6     1400+00000+J60000003102+0000003102+000000000+000000435+0000003537+0000000000+I40000003537+0000000000+Z
202383001202383565-000892-A   202383006003000690725NOVELTY FUN BALL       0000001000+00001314+00000+0001T   00001753+0008141717          1400 JU6745               2AZ
202383002202383200-003024     202383006001023657299REFUSE BAGS 20PCE BLACK0000001000+00001753+00000+0001T   00001753+0000001717          1400 JU6214               2AZ
202383003202383112-116038     202383006009681820246TCS CARRIER BAG MIDI   0000001000+00000035+00000+0001T   00000035+0000001717          1400 JU6090               2AZ
202384000202384               202384               170213J6     1400+00000+J60000001576+0000001576+000000000+000000221+0000001790+0000000007+I20000000000+0000001790+Z
202384001202384362-019375     202384006001023730664HAIR BAND SET 24PCE    0000001000+00000876+00000+0001T   00000876+0000001744          1400 JU6160               2AZ
202384002202384018-000177     202384006001023797513MUG MINI LOVE ASSTD    0000001000+00000700+00000+0001T   00000700+0000001744          1400 JU6515               2AZ
202385000202385               202385               170213J6     1400+00000+J60000001576+0000001576+000000000+000000221+0000001790+0000000007+I20000000000+0000001790+Z
202385001202385018-000177     202385006001023797513MUG MINI LOVE ASSTD    0000001000+00000700+00000+0001T   00000700+0000001745          1400 JU6515               2AZ
202385002202385362-019375     202385006001023730664HAIR BAND SET 24PCE    0000001000+00000876+00000+0001T   00000876+0000001745          1400 JU6160               2AZ
202386000202386               202386               170213J6     1400+00000+J60000002013+0000002013+000000000+000000284+0000002290+0000000007+I20000000000+0000002290+Z
202386001202386903-000200     202386006009826020234SWT CHOC RP CHOCO 23G  0000002000+00000788+00000+0001T   00000788+0000001746          1400 JU6150               2AZ
202386002202386080-000133-A   202386006003000647019MINI VALENTINES CARD   0000001000+00000437+00000+0001T   00000437+0000001746          1400 JU6112               2AZ
202387000202387               202387               170213J6     1400+00000+J60000002665+0000002665+000000000+000000374+0000003039+0000000000+I40000003039+0000000000+Z
202387001202387106-001125     202387006003000666270WATER BOTTLE 600ml     0000001000+00002630+00000+0001T   00002630+0000001747          1400 JU6210               2AZ
202387002202387112-116038     202387006009681820246TCS CARRIER BAG MIDI   0000001000+00000035+00000+0001T   00000035+0000001747          1400 JU6090               2AZ
202388000202388               202388               170213J6     1400+00000+J60000002192+0000002192+000000000+000000307+0000002490+0000000009+I20000000000+0000002490+Z
202388001202388080-000127     202388006003000424351VALENTINES DAY 36x24CM 0000001000+00002192+00000+0001T   00002192+0000001749          1400 JU6112               2AZ
202389000202389               202389               170213J6     1400+00000+J60000004822+0000004822+000000000+000000676+0000005498+0000000000+I40000005498+0000000000+Z
202389001202389368-000049     202389006003000536955PLUSH BEAR 15cm LOVE   0000001000+00004385+00000+0001T   00004385+0000001754          1400 JU6745               2AZ
202389002202389080-000133     202389006003000535613CARD&ENV MINI ASTD DSGN0000001000+00000437+00000+0001T   00000437+0000001754          1400 JU6112               2AZ
202390000202390               202390               170213J6     1400+00000+J60000001788+0000001788+000000000+000000251+0000002030+0000000009+I20000000000+0000002030+Z
202390001202390051-002407     202390006003000452491SPRAYER TRIGGER 550ml  0000001000+00001753+00000+0001T   00001753+0000001755          1400 JU6820               2AZ
202390002202390112-116038     202390006009681820246TCS CARRIER BAG MIDI   0000001000+00000035+00000+0001T   00000035+0000001755          1400 JU6090               2AZ
202391000202391               202391               170213J6     1400+00000+J60000000876+0000000876+000000000+000000123+0000000990+0000000009+I20000000000+0000000990+Z
202391001202391077-000314     202391006003000181148GIFT-BAG 11X14CM MATT  0000001000+00000876+00000+0001T   00000876+0000001756          1400 JU6112               2AZ
202392000202392               202392               170213J6     1400+00000+J60000008364+0000008364+000000000+000001173+0000009530+0000000007+I20000000000+0000009530+Z
202392001202392018-050000     202392006003000412679MUG OCC LOVE TWIN BEAR 0000001000+00006139+00000+0001T   00006139+0000001758          1400 JU6515               2AZ
202392002202392112-116038     202392006009681820246TCS CARRIER BAG MIDI   0000001000+00000035+00000+0001T   00000035+0000001758          1400 JU6090               2AZ
202392003202392903-000619     202392006003000672455SWT LOLLY STR/BRRY 140G0000001000+00001753+00000+0001T   00001753+0000001758          1400 JU6150               2AZ
202392004202392080-000133-A   202392006003000647019MINI VALENTINES CARD   0000001000+00000437+00000+0001T   00000437+0000001758          1400 JU6112               2AZ
202393000202393               202393               170213J6     1400+00000+J60000005295+0000005295+000000000+000000742+0000006037+0000000000+I40000006037+0000000000+Z
202393001202393112-116038     202393006009681820246TCS CARRIER BAG MIDI   0000001000+00000035+00000+0001T   00000035+0000001801          1400 JU6090               2AZ
202393002202393077-000309     202393006001023608604GIFT-BAG 25X32CM GLOSS 0000001000+00001753+00000+0001T   00001753+0000001801          1400 JU6112               2AZ
202393003202393018-000136     202393006001023659026MUG OCC LOVE W/PLUSH   0000001000+00003507+00000+0001T   00003507+0000001801          1400 JU6515               2AZ
A17021300                                          10352040J6SLAVE 2                       JY72IC
A17021301                                          11120669J6SLAVE 2                       JY72IC
A17021302                                          11161821J6SLAVE 2                       JY72IC
A17021303                                          14335288J6SLAVE 2                       JY71IC
M17021301                              CASH DEPT   J6ATT CASH DEPT                                                                                   BANKING SLV 1 R2613.50                          C CARD R2100.73                                 Z READ TOTAL R4714.23                                                                           BANKING SLV 2 R1152.00                          C CARD R774.41                                  Z READ TOTAL R2000.01                                                                           THANKS                                                                                          J6
M17021302                              IT DEPT     J6ATT IT DEPT                                                                                     LAST TILL SLIP NO.ON SLV 1 102419                                    SLV 2 202393                                                               THANKS                                                                                          J6
M17021391                              CASH        J6SLAVE 2                       Z-REPORT No.   363TOTAL (Sales - Refunds)           2000.01       CASH TO BE BANKED                 1152.00       DEBIT CARDS                          0.00       CREDIT CARDS                       774.41       Z-READING                         1926.41       AIRTIME DEBIT CARD SALES             0.00       AIRTIME CARD SALES                   0.00       OVERS/UNDERS                         0.00       AIRTIME CASH SALES                   0.00       GIFT CARDS                           0.00       GIFT CARD CASH SALES                 0.00       POSTAGE                             44.60       STATIONERY(PHOTOCOPIES)             29.00       T O T A L  CASH PAYOUTS             73.60                                                                                                                                                                                                                                                      Z
M17021392                              CASH        J6ABSENT                                                                                                                                                                                          ANNUAL LEAVE                                                                                                                                                                                    DAY OFF                                                                                                                                                                                         COMMENTS          Z READ TOTAL R2000.01                           SLV 2                                                                                                                                                                                                                                                                                                                        Z
Y17021300                                          J600000000176066+000045
ZJ617021319513 SLAVE 2      SALES DATA                     NEXT INVOICE NO.  202394 0363
X J6 Slave 2 First invoice 202347 170213 Last invoice 202393 170213 Next invoice 202394 Total number of records 000000158 clbackup completed 19:52:00
