104466000104466               104466               170213J7     1400+00000+J70000009777+0000009777+000000000+000001371+0000011140+0000000008+I20000000000+0000011140+Z
104466001104466077-000309     104466006001023608604GIFT-BAG 25X32CM GLOSS 0000001000+00001753+00000+0001T   00001753+0000000942          1400 FY3112               1AZ
104466002104466031-005853     104466006003000442416P/FRAME WDN TWIN HEARTS0000001000+00003507+00000+0001T   00003507+0000000942          1400 FY3510               1AZ
104466003104466007-000160     104466006009685857286NOTE-BOOK A5 SHORTHAND 0000002000+00001227+00000+0001T   00001227+0000000942          1400 FY3130               1AZ
104466004104466018-000127     104466006001023380289MUG OCC STRAIGHT LOVE  0000001000+00001578+00000+0001T   00001753+0006470942          1400 FY3515               1AZ
104466005104466112-116069     104466006009681820277TCS CARRIER BAG JUMBO  0000001000+00000048+00000+0001T   00000048+0000000942          1400 FY3090               1AZ
104466006104466080-000133-A   104466006003000647019MINI VALENTINES CARD   0000001000+00000437+00000+0001T   00000437+0000000942          1400 FY3112               1AZ
104467000104467               104467               170213J7     1400+00000+J70000001402+0000001402+000000000+000000197+0000001590+0000000009+I20000000000+0000001590+Z
104467001104467027-009030     104467006002814400100DUSTPAN PL             0000001000+00001402+00000+0001T   00001402+0000000947          1400 FY3212               1AZ
104468000104468               104468               170213J7     1400+00000+J70000003856+0000003856+000000000+000000541+0000004390+0000000007+I20000000000+0000004390+Z
104468001104468077-000314     104468006003000181148GIFT-BAG 11X14CM MATT  0000001000+00000876+00000+0001T   00000876+0000001015          1400 FY3112               1AZ
104468002104468077-000308     104468006001023595812GIFT-BAG 33X45CM E/DAY 0000001000+00001753+00000+0001T   00001753+0000001015          1400 FY3112               1AZ
104468003104468077-000318     104468006001023609755GIFT-BAG 18X23CM E/D AN0000001000+00001227+00000+0001T   00001227+0000001015          1400 FY3112               1AZ
104469000104469               104469               170213J7     1400+00000+J70000008760+0000008760+000000000+000001230+0000009990+0000000000+I20000000000+0000009990+Z
104469001104469089-000192-A   104469006001023901774KEY-CHAIN ACRYLIC      0000010000+00000876+00000+0001T   00000876+0000001118          1400 FY3205               1AZ
104470000104470               104470               170213J7     1400+00000+J70000009415+0000009415+000000000+000001319+0000010730+0000000004+I20000000000+0000010730+Z
104470001104470082-000105     104470006003000360369READING GLS STRNGHT:1.50000001000+00004385+00000+0001T   00004385+0000001240          1400 FY3160               1AZ
104470002104470080-000124     104470006003000297733CARD & ENV VALENTINES  0000001000+00001578+00000+0001T   00001578+0000001240          1400 FY3112               1AZ
104470003104470903-000220     104470006001704007368SWT JELLY BEANS 60G    0000001000+00000876+00000+0001T   00000876+0000001240          1400 FY3150               1AZ
104470004104470903-000111     104470006001704006378SWT LIQUORICE-TWISTS   0000001000+00001227+00000+0001T   00001227+0000001240          1400 FY3150               1AZ
104470005104470046-000012     104470006904708013062BATTERIES AA  CARD-OF-40000001000+00001314+00000+0001T   00001314+0000001240          1400 FY3312               1AZ
104470006104470112-116038     104470006009681820246TCS CARRIER BAG MIDI   0000001000+00000035+00000+0001T   00000035+0000001240          1400 FY3090               1AZ
104471000104471               104471               170213J7     1400+00000+J70000002192+0000002192+000000000+000000307+0000002490+0000000009+I20000000000+0000002490+Z
104471001104471024-091102     104471006003453000010BAKING-CUP PAPER 50PC  0000001000+00002192+00000+0001T   00002192+0000001241          1400 FY3300               1AZ
104472000104472               104472               170213J7     1400+00000+J70000001801+0000001801+000000000+000000253+0000002050+0000000004+I20000000000+0000002050+Z
104472001104472077-000472     104472006003000330133G-BAG DESGNR LRG 25X32 0000001000+00001753+00000+0001T   00001753+0000001255          1400 FY3112               1AZ
104472002104472112-116069     104472006009681820277TCS CARRIER BAG JUMBO  0000001000+00000048+00000+0001T   00000048+0000001255          1400 FY3090               1AZ
104473000104473               104473               170213J7     1400+00000+J70000011402+0000011402+000000000+000001597+0000012990+0000000009+I20000000000+0000012990+Z
104473001104473466-001012     104473006001023508157CRICKET-SET SIZE-3     0000001000+00011402+00000+0001T   00011402+0000001310          1400 FY3785               1AZ
104474000104474               104474               170213J7     1400+00000+J70000002103+0000002103+000000000+000000295+0000002390+0000000008+I20000000000+0000002390+Z
104474001104474007-000104     104474006009685854865BK COVER BRWN KRFT ROLL0000001000+00000350+00000+0001T   00000350+0000001322          1400 FY3130               1AZ
104474002104474566-000362     104474006003000583065STICKER LETTER & NUMBER0000001000+00001753+00000+0001T   00001753+0000001322          1400 FY3130               1AZ
104475000104475               104475               170213J7     1400+00000+J70000001490+0000001490+000000000+000000209+0000001690+0000000009+I20000000000+0000001690+Z
104475001104475031-000878-B   104475006001023799012P/FRAME 13x18cm PL-SLID0000001000+00001490+00000+0001T   00001490+0000001331          1400 FY3510               1AZ
104476000104476               104476               170213J7     1400+00000+J70000000437+0000000437+000000000+000000062+0000000490+0000000009+I20000000000+0000000490+Z
104476001104476080-000133-A   104476006003000647019MINI VALENTINES CARD   0000001000+00000437+00000+0001T   00000437+0000001331          1400 FY3112               1AZ
104477000104477               104477               170213J7     1400+00000+J70000002889+0000002889+000000000+000000406+0000003290+0000000005+I20000000000+0000003290+Z
104477001104477304-001011     104477006001023806727FLWR ROSE RED W/BEAR   0000001000+00000613+00000+0001T   00000788+0006471333          1400 FY3510               1AZ
104477002104477903-000155     104477006009803374435SWT LOLLY I LUV U HEART0000002000+00000525+00000+0001T   00000525+0000001333          1400 FY3150               1AZ
104477003104477304-001011     104477006001023806727FLWR ROSE RED W/BEAR   0000002000+00000613+00000+0001T   00000788+0006471333          1400 FY3510               1AZ
104478000104478               104478               170213J7     1400+00000+J70000004818+0000004818+000000000+000000677+0000005490+0000000005+I20000000000+0000005490+Z
104478001104478027-008817     104478006003000666393DUSTER MICROFIBRE      0000001000+00003507+00000+0001T   00003507+0000001336          1400 FY3212               1AZ
104478002104478080-000133     104478006003000535613CARD&ENV MINI ASTD DSGN0000003000+00000437+00000+0001T   00000437+0000001336          1400 FY3112               1AZ
104479000104479               104479               170213J7     1400+00000+J70000004384+0000004384+000000000+000000614+0000004990+0000000008+I20000000000+0000004990+Z
104479001104479077-000509     104479006003000082582GIFT-BAG SML 6PCE ORG P0000002000+00002192+00000+0001T   00002192+0000001336          1400 FY3112               1AZ
104480000104480               104480               170213J7     1400+00000+J70000001400+0000001400+000000000+000000196+0000001590+0000000006+I20000000000+0000001590+Z
104480001104480564-000012     104480006001023130075BUBBLE BOTTLE MAGIC    0000002000+00000700+00000+0001T   00000700+0000001338          1400 FY3131               1AZ
104481000104481               104481               170213J7     1400+00000+J70000003542+0000003542+000000000+000000496+0000004030+0000000008+I20000000000+0000004030+Z
104481001104481018-005009     104481006001023725608MUG W/PLUSH-BEAR LOVE  0000001000+00003507+00000+0001T   00003507+0000001407          1400 FY3515               1AZ
104481002104481112-116038     104481006009681820246TCS CARRIER BAG MIDI   0000001000+00000035+00000+0001T   00000035+0000001407          1400 FY3090               1AZ
104482000104482               104482               170213J7     1400+00000+J70000002279+0000002279+000000000+000000320+0000002599+0000000000+I40000002599+0000000000+Z
104482001104482027-000194     104482006001246602472MOP COMPLETE           0000001000+00002279+00000+0001T   00002279+0000001413          1400 FY3212               1AZ
104483000104483               104483               170213J7     1400+00000+J70000012276+0000012276+000000000+000001720+0000013990+0000000006+I20000000000+0000013990+Z
104483001104483048-000823     104483006003000063611TORCH DYNAMO 2LED 10cm 0000004000+00003069+00000+0001T   00003069+0000001417          1400 FY3305               1AZ
104484000104484               104484               170213J7     1400+00000+J70000004385+0000004385+000000000+000000614+0000004990+0000000009+I20000000000+0000004990+Z
104484001104484368-000001     104484006003000097982Plush Bear 25cm        0000001000+00004385+00000+0001T   00004385+0000001446          1400 FY3745               1AZ
104485000104485               104485               170213J7     1400+00000+J70000004379+0000004379+000000000+000000616+0000004990+0000000005+I20000000000+0000004990+Z
104485001104485077-000314     104485006003000181148GIFT-BAG 11X14CM MATT  0000002000+00000876+00000+0001T   00000876+0000001454          1400 FY3112               1AZ
104485002104485077-000239     104485006003000160419GIFT-RIBBON ROLL PEARL 0000001000+00001753+00000+0001T   00001753+0000001454          1400 FY3112               1AZ
104485003104485080-000133-A   104485006003000647019MINI VALENTINES CARD   0000002000+00000437+00000+0001T   00000437+0000001454          1400 FY3112               1AZ
104486000104486               104486               170213J7     1400+00000+J70000021928+0000021928+000000000+000003070+0000024990+0000000008+I20000000000+0000024990+Z
104486001104486466-000004     104486006003000469819PLAY-TENT POP-UP BOY   0000001000+00021928+00000+0001T   00021928+0000001501          1400 FY3785               1AZ
104487000104487               104487               170213J7     1400+00000+J70000004728+0000004728+000000000+000000664+0000005390+0000000002+I20000000000+0000005390+Z
104487001104487018-000177     104487006001023797513MUG MINI LOVE ASSTD    0000002000+00000700+00000+0001T   00000700+0000001503          1400 FY3515               1AZ
104487002104487080-000133-A   104487006003000647019MINI VALENTINES CARD   0000002000+00000437+00000+0001T   00000437+0000001503          1400 FY3112               1AZ
104487003104487077-000322     104487006001023677532GIFT-BAG 18X23CM E/D FL0000001000+00001227+00000+0001T   00001227+0000001503          1400 FY3112               1AZ
104487004104487077-000318     104487006001023609755GIFT-BAG 18X23CM E/D AN0000001000+00001227+00000+0001T   00001227+0000001503          1400 FY3112               1AZ
104488000104488               104488               170213J7     1400+00000+J70000010520+0000010520+000000000+000001473+0000011993+0000000000+I40000011993+0000000000+Z
104488002104488159-000643     104488006001023767028BACK-BRUSH ASSTD       0000001000+00003507+00000+0001T   00003507+0000001512          1400 FY3200               1AZ
104488003104488027-009027     104488006003000235803BROOM FLAT 1.2m HANDLE 0000001000+00004385+00000+0001T   00004385+0000001512          1400 FY3212               1AZ
104488004104488903-000194     104488006009826020616SWT CHOC RP LOLLY 25G  0000002000+00001314+00000+0001T   00001314+0000001512          1400 FY3150               1AZ
104489000104489               104489               170213J7     1400+00000+J70000001225+0000001225+000000000+000000172+0000001390+0000000007+I20000000000+0000001390+Z
104489001104489903-000155     104489006009803374435SWT LOLLY I LUV U HEART0000001000+00000525+00000+0001T   00000525+0000001513          1400 FY3150               1AZ
104489002104489903-000159     104489006003000417629SWT LB SMALL DUMMIE    0000002000+00000350+00000+0001T   00000350+0000001513          1400 FY3150               1AZ
104490000104490               104490               170213J7     1400+00000+J70000003942+0000003942+000000000+000000552+0000004494+0000000000+I40000004494+0000000000+Z
104490001104490903-000194     104490006009826020616SWT CHOC RP LOLLY 25G  0000003000+00001314+00000+0001T   00001314+0000001521          1400 FY3150               1AZ
104491000104491               104491               170213J7     1400+00000+J70000006139+0000006139+000000000+000000860+0000006990+0000000009+I20000000000+0000006990+Z
104491001104491368-000175     104491006003000270316PLUSH BEAR 4 ASSTD 18CM0000001000+00006139+00000+0001T   00006139+0000001522          1400 FY3745               1AZ
104492000104492               104492               170213J7     1400+00000+J70000053805+0000053805+000000000+000007537+0000061342+0000000000+I40000061342+0000000000+Z
104492001104492301-085000     104492006003000674299 ORN OCC. LOVE HEARTS  0000001000+00002192+00000+0001T   00002192+0000001526          1400 FY3505               1AZ
104492002104492566-000367     104492006003000645558STICKER WINDOW DECOR   0000001000+00002630+00000+0001T   00002630+0000001526          1400 FY3130               1AZ
104492003104492301-085001     104492006003000297610ORN WATERBALL LOVE ASST0000001000+00004823+00000+0001T   00004823+0000001526          1400 FY3505               1AZ
104492004104492031-000017     104492006003000411436P/FRAME COLLAGE 3-HOLE 0000001000+00007016+00000+0001T   00007016+0000001526          1400 FY3510               1AZ
104492005104492018-000170     104492006001023775528MUG OCC. LOVE 2PC MINI 0000001000+00002192+00000+0001T   00002192+0000001526          1400 FY3515               1AZ
104492006104492018-050000     104492006003000412679MUG OCC LOVE TWIN BEAR 0000001000+00006139+00000+0001T   00006139+0000001526          1400 FY3515               1AZ
104492007104492006-000190     104492006003000685530BALLOONS LOVE 81x91cm  0000001000+00004385+00000+0001T   00004385+0000001526          1400 FY3131               1AZ
104492008104492903-000194     104492006009826020616SWT CHOC RP LOLLY 25G  0000001000+00001314+00000+0001T   00001314+0000001526          1400 FY3150               1AZ
104492009104492031-080508     104492006001023802415P/FRAME PL 22X11CM LOVE0000001000+00004385+00000+0001T   00004385+0000001526          1400 FY3510               1AZ
104492010104492080-000127     104492006003000424351VALENTINES DAY 36x24CM 0000001000+00002192+00000+0001T   00002192+0000001526          1400 FY3112               1AZ
104492011104492112-116069     104492006009681820277TCS CARRIER BAG JUMBO  0000001000+00000048+00000+0001T   00000048+0000001526          1400 FY3090               1AZ
104492012104492080-000124     104492006003000297733CARD & ENV VALENTINES  0000001000+00001578+00000+0001T   00001578+0000001526          1400 FY3112               1AZ
104492013104492031-001001     104492006003000253265P/FRAME COL FAM-TREE   0000001000+00014911+00000+0001T   00014911+0000001526          1400 FY3510               1AZ
104493000104493               104493               170213J7     1400+00000+J70000005745+0000005745+000000000+000000806+0000006550+0000000001+I20000000000+0000006550+Z
104493001104493077-000309     104493006001023608604GIFT-BAG 25X32CM GLOSS 0000001000+00001753+00000+0001T   00001753+0000001529          1400 FY3112               1AZ
104493002104493301-085004     104493006003000420469ORN LOVE PLAQUE 21X10CM0000001000+00003507+00000+0001T   00003946+0006471529          1400 FY3505               1AZ
104493003104493112-116069     104493006009681820277TCS CARRIER BAG JUMBO  0000001000+00000048+00000+0001T   00000048+0000001529          1400 FY3090               1AZ
104493004104493080-000133-A   104493006003000647019MINI VALENTINES CARD   0000001000+00000437+00000+0001T   00000437+0000001529          1400 FY3112               1AZ
104494000104494               104494               170213J7     1400+00000+J70000001613+0000001613+000000000+000000226+0000001830+0000000009+I20000000000+0000001830+Z
104494001104494018-000127     104494006001023380289MUG OCC STRAIGHT LOVE  0000001000+00001578+00000+0001T   00001753+0006471605          1400 FY3515               1AZ
104494002104494112-116038     104494006009681820246TCS CARRIER BAG MIDI   0000001000+00000035+00000+0001T   00000035+0000001605          1400 FY3090               1AZ
104495000104495               104495               170213J7     1400+00000+J70000003942+0000003942+000000000+000000552+0000004490+0000000004+I20000000000+0000004490+Z
104495001104495007-000209     104495006001023582102NOTE STICKY FILE MARKER0000003000+00001314+00000+0001T   00001314+0000001607          1400 FY3130               1AZ
104496000104496               104496               170213J7     1400+00000+J70000009851+0000009851+000000000+000001382+0000011233+0000000000+I40000011233+0000000000+Z
104496001104496028-000797     104496006001023812124SKEWERS 15cm 100PCE    0000001000+00000876+00000+0001T   00000876+0000001611          1400 FY3305               1AZ
104496002104496150-001222     104496006001023495334PLATE-STAND TRANSPARENT0000006000+00001490+00000+0001T   00001490+0000001611          1400 FY3810               1AZ
104496003104496112-116038     104496006009681820246TCS CARRIER BAG MIDI   0000001000+00000035+00000+0001T   00000035+0000001611          1400 FY3090               1AZ
104497000104497               104497               170213J7     1400+00000+J70000005259+0000005259+000000000+000000738+0000005990+0000000007+I20000000000+0000005990+Z
104497001104497077-000351     104497006003000139033GIFT-BAG 18X23CM E/D P 0000003000+00001753+00000+0001T   00001753+0000001617          1400 FY3112               1AZ
104498000104498               104498               170213J7     1400+00000+J70000001753+0000001753+000000000+000000246+0000001999+0000000000+I40000001999+0000000000+Z
104498001104498079-003003     104498006003000448005A/TUBE 75ML DARK GREEN 0000001000+00001753+00000+0001T   00001753+0000001621          1400 FY3130               1AZ
104499000104499               104499               170213J7     1400+00000+J70000003507+0000003507+000000000+000000491+0000003990+0000000008+I20000000000+0000003990+Z
104499001104499018-005009     104499006001023725608MUG W/PLUSH-BEAR LOVE  0000001000+00003507+00000+0001T   00003507+0000001621          1400 FY3515               1AZ
104500000104500               104500               170213J7     1400+00000+J70000004383+0000004383+000000000+000000615+0000004990+0000000008+I20000000000+0000004990+Z
104500001104500077-000472     104500006003000330133G-BAG DESGNR LRG 25X32 0000001000+00001753+00000+0001T   00001753+0000001633          1400 FY3112               1AZ
104500002104500077-000456     104500006003000285549G/BAG METALLIC JMB EMB 0000001000+00002630+00000+0001T   00002630+0000001633          1400 FY3112               1AZ
104501000104501               104501               170213J7     1400+00000+J70000008329+0000008329+000000000+000001167+0000009496+0000000000+I40000009496+0000000000+Z
104501001104501018-000136     104501006001023659026MUG OCC LOVE W/PLUSH   0000001000+00003507+00000+0001T   00003507+0000001644          1400 FY3515               1AZ
104501002104501080-000127     104501006003000424351VALENTINES DAY 36x24CM 0000001000+00002192+00000+0001T   00002192+0000001644          1400 FY3112               1AZ
104501003104501077-000456     104501006003000285549G/BAG METALLIC JMB EMB 0000001000+00002630+00000+0001T   00002630+0000001644          1400 FY3112               1AZ
104502000104502               104502               170213J7     1400+00000+J70000006187+0000006187+000000000+000000867+0000007054+0000000000+I40000007054+0000000000+Z
104502001104502018-050000     104502006003000412679MUG OCC LOVE TWIN BEAR 0000001000+00006139+00000+0001T   00006139+0000001653          1400 FY3515               1AZ
104502002104502112-116069     104502006009681820277TCS CARRIER BAG JUMBO  0000001000+00000048+00000+0001T   00000048+0000001653          1400 FY3090               1AZ
104503000104503               104503               170213J7     1400+00000+J70000011436+0000011436+000000000+000001602+0000013038+0000000000+I40000013038+0000000000+Z
104503001104503206-000220     104503006003000631704EGG TIMER COLOUR-CHANGE0000001000+00002630+00000+0001T   00002630+0000001659          1400 FY3321               1AZ
104503002104503002-250010     104503006001023621931KITCHEN-SCALE 2kg      0000001000+00008771+00000+0001T   00008771+0000001659          1400 FY3300               1AZ
104503003104503112-116038     104503006009681820246TCS CARRIER BAG MIDI   0000001000+00000035+00000+0001T   00000035+0000001659          1400 FY3090               1AZ
104504000104504               104504               170213J7     1400+00000+J70000008768+0000008768+000000000+000001228+0000009990+0000000006+I20000000000+0000009990+Z
104504001104504301-085000     104504006003000674299 ORN OCC. LOVE HEARTS  0000004000+00002192+00000+0001T   00002192+0000001700          1400 FY3505               1AZ
104505000104505               104505               170213J7     1400+00000+J70000013375+0000013375+000000000+000001875+0000015250+0000000000+I20000000000+0000015250+Z
104505001104505079-001001     104505006003000448593CANVAS A3 WOOD MOUNTED 0000001000+00004385+00000+0001T   00004385+0000001714          1400 FY3130               1AZ
104505002104505079-006495     104505006003000159987GLITTER SHAKERS 6PK    0000001000+00002630+00000+0001T   00002630+0000001714          1400 FY3130               1AZ
104505003104505028-000796     104505006001023812094SKEWERS 25cm 50PCE 4mm 0000001000+00001490+00000+0001T   00001490+0000001714          1400 FY3305               1AZ
104505004104505079-003000     104505006003000448838A/TUBE 75ML WHITE      0000001000+00001753+00000+0001T   00001753+0000001714          1400 FY3130               1AZ
104505005104505079-013098     104505006003000197040ART+CRAFT SET DIY      0000001000+00003069+00000+0001T   00003069+0000001714          1400 FY3130               1AZ
104505006104505112-116069     104505006009681820277TCS CARRIER BAG JUMBO  0000001000+00000048+00000+0001T   00000048+0000001714          1400 FY3090               1AZ
104506000104506               104506               170213J7     1400+00000+J70000007892+0000007892+000000000+000001106+0000008990+0000000008+I20000000000+0000008990+Z
104506001104506018-050000     104506006003000412679MUG OCC LOVE TWIN BEAR 0000001000+00006139+00000+0001T   00006139+0000001732          1400 FY3515               1AZ
104506002104506077-000324     104506006001023677594GIFT-BAG 33X45CM E/D FL0000001000+00001753+00000+0001T   00001753+0000001732          1400 FY3112               1AZ
104507000104507               104507               170213J7     1400+00000+J70000003379+0000003379+000000000+000000474+0000003850+0000000003+I20000000000+0000003850+Z
104507001104507018-000127     104507006001023380289MUG OCC STRAIGHT LOVE  0000001000+00001578+00000+0001T   00001753+0006471740          1400 FY3515               1AZ
104507002104507077-000309     104507006001023608604GIFT-BAG 25X32CM GLOSS 0000001000+00001753+00000+0001T   00001753+0000001740          1400 FY3112               1AZ
104507003104507112-116069     104507006009681820277TCS CARRIER BAG JUMBO  0000001000+00000048+00000+0001T   00000048+0000001740          1400 FY3090               1AZ
104508000104508               104508               170213J7     1400+00000+J70000000524+0000000524+000000000+000000074+0000000590+0000000008+I20000000000+0000000590+Z
104508001104508903-000216     104508006925925900966SWT MALLOW TWIST ERKO  0000002000+00000262+00000+0001T   00000262+0000001746          1400 FY3150               1AZ
104509000104509               104509               170213J7     1400+00000+J70000000876+0000000876+000000000+000000123+0000000990+0000000009+I20000000000+0000000990+Z
104509001104509903-000123     104509006925925909280SWEET GS MINI MALLOWS  0000001000+00000876+00000+0001T   00000876+0000001747          1400 FY3150               1AZ
104510000104510               104510               170213J7     1400+00000+J70000001314+0000001314+000000000+000000184+0000001490+0000000008+I20000000000+0000001490+Z
104510001104510251-000001     104510006001023487681TAPE DBL-SIDE 18x1000mm0000001000+00001314+00000+0001T   00001314+0000001754          1400 FY3810               1AZ
104511000104511               104511               170213J7     1400+00000+J70000001753+0000001753+000000000+000000246+0000001990+0000000009+I20000000000+0000001990+Z
104511001104511051-002407     104511006003000452491SPRAYER TRIGGER 550ml  0000001000+00001753+00000+0001T   00001753+0000001755          1400 FY3820               1AZ
104512000104512               104512               170213J7     1400+00000+J70000011841+0000011841+000000000+000001658+0000013490+0000000009+I20000000000+0000013490+Z
104512001104512047-002042-H   104512006003000625291P/ADPT 1x16A 2x5A 2xUSB0000001000+00011841+00000+0001T   00011841+0000001758          1400 FY3880               1AZ
104513000104513               104513               170213J7     1400+00000+J70000001402+0000001402+000000000+000000197+0000001590+0000000009+I20000000000+0000001590+Z
104513001104513304-001204     104513006001023737984FLOWER OCC. TEDDY/ROSES0000001000+00001402+00000+0001T   00001490+0006471800          1400 FY3510               1AZ
A17021300                                          09122847J7SLAVE 1                       FY31IC
A17021301                                          09135596J7SLAVE 1                       FY31IC
A17021302                                          10572817J7SLAVE 1                       FY31IC
A17021303                                          15331187J7SLAVE 1                       FY31IC
C10448800                                          170213J7206-000100     15113386SLAVE 1     FY31IC0000000000+0000000000+0010000001000+
C10450100                                          170213J7903-000615     16360467SLAVE 1     FY31IC0000000000+0000000000+0010000001000+
M17021391                              CASH        J7SLAVE 1                       Z-REPORT No.   331TOTAL (Sales - Refunds)           3513.68       CASH TO BE BANKED                    0.00       DEBIT CARDS                          0.00       CREDIT CARDS                         0.00       Z-READING                         3513.68       AIRTIME DEBIT CARD SALES             0.00       AIRTIME CARD SALES                   0.00       OVERS/UNDERS                      3513.68-      AIRTIME CASH SALES                   0.00       GIFT CARDS                           0.00       GIFT CARD CASH SALES                 0.00       T O T A L  CASH PAYOUTS              0.00                                                                                                                                                                                                                                                                                                                                                      Z
M17021392                              CASH        J7ABSENT                                                                                                                                                                                          ANNUAL LEAVE                                                                                                                                                                                    DAY OFF                                                                                                                                                                                         COMMENTS                                                                                                                                                                                                                                                                                                                                                                                       Z
Y17021300                                          J700000000308403+000048
ZJ717021319523 SLAVE 1      SALES DATA                     NEXT INVOICE NO.  104514 0331
X J7 Slave 1 First invoice 104466 170213 Last invoice 104513 170213 Next invoice 104514 Total number of records 000000164 clbackup completed 19:52:08
