111383000111383               111383               170213J7     1400+00000+J70000007013+0000007013+000000000+000000984+0000007990+0000000007+I20000000000+0000007990+Z
111383001111383306-000981     111383006003000559718FIRSTAID PLASTER 1PC   0000001000+00001753+00000+0001T   00001753+0000000939          1400 IO7200               2AZ
111383002111383306-000977     111383006003000559596FIRSTAID PLASTER 75PC  0000001000+00002630+00000+0001T   00002630+0000000939          1400 IO7200               2AZ
111383003111383362-019285     111383006001023869456HAIR BAND SET ASS. CARD0000001000+00002630+00000+0001T   00002630+0000000939          1400 IO7160               2AZ
111384000111384               111384               170213J7     1400+00000+J70000001753+0000001753+000000000+000000246+0000001990+0000000009+I20000000000+0000001990+Z
111384001111384088-000108     111384006001023765536POTPOURRI-OIL 10ml ASST0000001000+00001753+00000+0001T   00001753+0000000941          1400 IO7212               2AZ
111385000111385               111385               170213J7     1400+00000+J70000004385+0000004385+000000000+000000614+0000004990+0000000009+I20000000000+0000004990+Z
111385001111385004-071270     111385006001023802156CD-DISCS WRITABLE 10PCE0000001000+00004385+00000+0001T   00004385+0000000955          1400 IO7310               2AZ
111386000111386               111386               170213J7     1400+00000+J70000010380+0000010380+000000000+000001454+0000011830+0000000004+I20000000000+0000011830+Z
111386001111386018-000136     111386006001023659026MUG OCC LOVE W/PLUSH   0000001000+00003507+00000+0001T   00003507+0000000957          1400 IO7515               2AZ
111386002111386112-116038     111386006009681820246TCS CARRIER BAG MIDI   0000001000+00000035+00000+0001T   00000035+0000000957          1400 IO7090               2AZ
111386003111386077-000301     111386008010410010188BAG LRG 25X32CM B/DAY  0000001000+00001753+00000+0001T   00001753+0000000957          1400 IO7112               2AZ
111386004111386018-000127     111386006001023380289MUG OCC STRAIGHT LOVE  0000001000+00001578+00000+0001T   00001753+0006470957          1400 IO7515               2AZ
111386005111386018-000136     111386006001023659026MUG OCC LOVE W/PLUSH   0000001000+00003507+00000+0001T   00003507+0000000957          1400 IO7515               2AZ
111387000111387               111387               170213J7     1400+00000+J70000005699+0000005699+000000000+000000798+0000006490+0000000007+I20000000000+0000006490+Z
111387001111387018-000130     111387006001023867537MUG OCC LOVE MINI+HEART0000001000+00003507+00000+0001T   00003507+0000000958          1400 IO7515               2AZ
111387002111387077-000309-A   111387006003000671007GIFT-BAG HOLOGRAM JMB  0000001000+00002192+00000+0001T   00002192+0000000958          1400 IO7112               2AZ
111388000111388               111388               170213J7     1400+00000+J70000000876+0000000876+000000000+000000123+0000000990+0000000009+I20000000000+0000000990+Z
111388001111388903-000482     111388006001704001397SWT SOFT-MINTS 60G     0000001000+00000876+00000+0001T   00000876+0000000959          1400 IO7150               2AZ
111389000111389               111389               170213J7     1400+00000+J70000011959+0000011959+000000000+000001676+0000013630+0000000005+I20000000000+0000013630+Z
111389001111389174-000304     111389006001023754349TRAVEL NECK-PILLOW     0000001000+00003507+00000+0001T   00003507+0000001019          1400 IO7205               2AZ
111389002111389174-000305     111389006003000105502TRAVEL NECK-PILLOW     0000001000+00007016+00000+0001T   00007016+0000001019          1400 IO7205               2AZ
111389003111389903-000861     111389005010478430822SWT LOVE HEARTS SML    0000001000+00000876+00000+0001T   00000876+0000001019          1400 IO7150               2AZ
111389004111389903-000155     111389006009803374435SWT LOLLY I LUV U HEART0000001000+00000525+00000+0001T   00000525+0000001019          1400 IO7150               2AZ
111389005111389112-116038     111389006009681820246TCS CARRIER BAG MIDI   0000001000+00000035+00000+0001T   00000035+0000001019          1400 IO7090               2AZ
111390000111390               111390               170213J7     1400+00000+J70000007892+0000007892+000000000+000001106+0000008990+0000000008+I20000000000+0000008990+Z
111390001111390002-000717     111390006001023775184CHOPPING-MATS FLEX 2PCE0000001000+00002630+00000+0001T   00002630+0000001023          1400 IO7300               2AZ
111390002111390133-000083     111390006003000450510DISH DRAINING MAT      0000001000+00005262+00000+0001T   00005262+0000001023          1400 IO7212               2AZ
111391000111391               111391               170213J7     1400+00000+J70000005260+0000005260+000000000+000000738+0000005990+0000000008+I20000000000+0000005990+Z
111391001111391009-001512     111391006001023737892MELAMINE P/PLATE 28cm  0000002000+00002630+00000+0001T   00002630+0000001024          1400 IO7210               2AZ
111392000111392               111392               170213J7     1400+00000+J70000003506+0000003506+000000000+000000492+0000003990+0000000008+I20000000000+0000003990+Z
111392001111392306-000993     111392006003000560110FIRSTAID PLASTER 75PC  0000001000+00002630+00000+0001T   00002630+0000001025          1400 IO7200               2AZ
111392002111392084-070005     111392006001023627902NAIL FILES 6PCE H/GLOW 0000001000+00000876+00000+0001T   00000876+0000001025          1400 IO7200               2AZ
111393000111393               111393               170213J7     1400+00000+J70000001313+0000001313+000000000+000000185+0000001490+0000000008+I20000000000+0000001490+Z
111393001111393077-000011-D   111393006001023808554TISSUE-WRAP WHITE 10PCE0000001000+00000876+00000+0001T   00000876+0000001029          1400 IO7112               2AZ
111393002111393080-000133-A   111393006003000647019MINI VALENTINES CARD   0000001000+00000437+00000+0001T   00000437+0000001029          1400 IO7112               2AZ
111394000111394               111394               170213J7     1400+00000+J70000001578+0000001578+000000000+000000221+0000001790+0000000009+I20000000000+0000001790+Z
111394001111394018-000127     111394006001023380289MUG OCC STRAIGHT LOVE  0000001000+00001578+00000+0001T   00001753+0006471034          1400 IO7515               2AZ
111395000111395               111395               170213J7     1400+00000+J70000002803+0000002803+000000000+000000394+0000003190+0000000007+I20000000000+0000003190+Z
111395001111395020-000015     111395006003000353118KITCHEN SCISSOR 3-ASSTD0000001000+00001753+00000+0001T   00001753+0000001041          1400 IO7300               2AZ
111395002111395002-021040     111395006001023812216PARTY-PICKS 100PCE     0000002000+00000525+00000+0001T   00000525+0000001041          1400 IO7300               2AZ
111396000111396               111396               170213J7     1400+00000+J70000015821+0000015821+000000000+000002217+0000018030+0000000008+I20000000000+0000018030+Z
111396001111396004-071209     111396006003000604678MOBILE IN CAR HOLDER   0000001000+00007893+00000+0001T   00007893+0000001104          1400 IO7310               2AZ
111396002111396004-010030     111396006003000131587HOLDER DISC 32 SLEEVE  0000001000+00007893+00000+0001T   00007893+0000001104          1400 IO7310               2AZ
111396003111396112-116038     111396006009681820246TCS CARRIER BAG MIDI   0000001000+00000035+00000+0001T   00000035+0000001104          1400 IO7090               2AZ
111397000111397               111397               170213J7     1400+00000+J70000001051+0000001051+000000000+000000148+0000001190+0000000009+I20000000000+0000001190+Z
111397001111397903-002851     111397000000087108538MENTOS ROLL STRAWBERRY 0000001000+00001051+00000+0001T   00001051+0000001137          1400 IO7150               2AZ
111398000111398               111398               170213J7     1400+00000+J70000020698+0000020698+000000000+000002898+0000023590+0000000006+I20000000000+0000023590+Z
111398001111398001-091415     111398006003000329113W/GLS OCC. LOVE 2PC 2800000002000+00008771+00000+0001T   00009648+0006471137          1400 IO7515               2AZ
111398002111398077-000315     111398006003000181186GIFT-BAG 20x28cm MATT  0000002000+00001578+00000+0001T   00001578+0000001137          1400 IO7112               2AZ
111399000111399               111399               170213J7     1400+00000+J70000001578+0000001578+000000000+000000221+0000001790+0000000009+I20000000000+0000001790+Z
111399001111399018-000127     111399006001023380289MUG OCC STRAIGHT LOVE  0000001000+00001578+00000+0001T   00001753+0006471217          1400 IO7515               2AZ
111400000111400               111400               170213J7     1400+00000+J70000037580+0000037580+000000000+000005265+0000042845+0000000000+I40000042845+0000000000+Z
111400001111400080-000127     111400006003000424351VALENTINES DAY 36x24CM 0000001000+00002192+00000+0001T   00002192+0000001226          1400 IO7112               2AZ
111400002111400031-080508     111400006001023802415P/FRAME PL 22X11CM LOVE0000001000+00004385+00000+0001T   00004385+0000001226          1400 IO7510               2AZ
111400003111400368-000614     111400006001023705808PLUSH LOVE 30cm        0000001000+00008771+00000+0001T   00008771+0000001226          1400 IO7745               2AZ
111400004111400018-019000     111400006003000557288MUG OCC. LOVE JUMBO    0000001000+00005262+00000+0001T   00005262+0000001226          1400 IO7515               2AZ
111400005111400903-000095     111400006001704011495SWT SPECKLED-EGGS 100G 0000004000+00002104+00000+0001T   00002104+0000001226          1400 IO7150               2AZ
111400006111400112-116069     111400006009681820277TCS CARRIER BAG JUMBO  0000001000+00000048+00000+0001T   00000048+0000001226          1400 IO7090               2AZ
111400007111400301-085007     111400006003000673698ORN OCC. LOVE S/PLAQUE 0000001000+00007893+00000+0001T   00007893+0000001226          1400 IO7505               2AZ
111400008111400304-001011     111400006001023806727FLWR ROSE RED W/BEAR   0000001000+00000613+00000+0001T   00000788+0006471226          1400 IO7510               2AZ
111401000111401               111401               170213J7     1400+00000+J70000001578+0000001578+000000000+000000221+0000001790+0000000009+I20000000000+0000001790+Z
111401001111401080-000124     111401006003000297733CARD & ENV VALENTINES  0000001000+00001578+00000+0001T   00001578+0000001253          1400 IO7112               2AZ
111402000111402               111402               170213J7     1400+00000+J70000001578+0000001578+000000000+000000221+0000001790+0000000009+I20000000000+0000001790+Z
111402001111402080-000124     111402006003000297733CARD & ENV VALENTINES  0000001000+00001578+00000+0001T   00001578+0000001301          1400 IO7112               2AZ
111403000111403               111403               170213J7     1400+00000+J70000006138+0000006138+000000000+000000860+0000006990+0000000008+I20000000000+0000006990+Z
111403001111403046-000012-A   111403006003000208296BATTERIES H/POWER SZ:AA0000001000+00002192+00000+0001T   00002192+0000001313          1400 IO7312               2AZ
111403002111403133-000008     111403006003000366453KITCHEN SWAB 3PCE CHECK0000001000+00003946+00000+0001T   00003946+0000001313          1400 IO7212               2AZ
111404000111404               111404               170213J7     1400+00000+J70000005611+0000005611+000000000+000000786+0000006397+0000000000+I40000006397+0000000000+Z
111404001111404018-030000     111404006003000421060MUG OCCASIONS LOVE 2PCE0000001000+00004385+00000+0001T   00004385+0000001314          1400 IO7515               2AZ
111404002111404304-001011     111404006001023806727FLWR ROSE RED W/BEAR   0000002000+00000613+00000+0001T   00000788+0006471314          1400 IO7510               2AZ
111405000111405               111405               170213J7     1400+00000+J70000005262+0000005262+000000000+000000737+0000005990+0000000009+I20000000000+0000005990+Z
111405001111405267-001998     111405008711147355350PUZZLE 300pc FAIRY-TALE0000001000+00005262+00000+0001T   00005262+0000001315          1400 IO7755               2AZ
111406000111406               111406               170213J7     1400+00000+J70000001314+0000001314+000000000+000000184+0000001490+0000000008+I20000000000+0000001490+Z
111406001111406077-000310     111406006001023608635GIFT-BAG 18X23CM GLOSS 0000001000+00001314+00000+0001T   00001314+0000001400          1400 IO7112               2AZ
111407000111407               111407               170213J7     1400+00000+J70000007893+0000007893+000000000+000001106+0000008990+0000000009+I20000000000+0000008990+Z
111407001111407301-085007     111407006003000673698ORN OCC. LOVE S/PLAQUE 0000001000+00007893+00000+0001T   00007893+0000001444          1400 IO7505               2AZ
111408000111408               111408               170213J7     1400+00000+J70000000876+0000000876+000000000+000000123+0000000990+0000000009+I20000000000+0000000990+Z
111408001111408306-000021-A   111408006001023891358EARBUDS COTTON 100PCE  0000001000+00000876+00000+0001T   00000876+0000001446          1400 IO7200               2AZ
111409000111409               111409               170213J7     1400+00000+J70000001490+0000001490+000000000+000000209+0000001690+0000000009+I20000000000+0000001690+Z
111409001111409079-000512     111409006001023635853CRAYONS WAX 12-COLOUR  0000001000+00001490+00000+0001T   00001490+0000001450          1400 IO7130               2AZ
111410000111410               111410               170213J7     1400+00000+J70000001139+0000001139+000000000+000000160+0000001290+0000000009+I20000000000+0000001290+Z
111410001111410027-078343     111410006008766078343SCRUB-BRUSH IRON-SHAPE 0000001000+00001139+00000+0001T   00001578+0008191503          1400 IO7212               2AZ
111411000111411               111411               170213J7     1400+00000+J70000007452+0000007452+000000000+000001045+0000008490+0000000007+I20000000000+0000008490+Z
111411001111411105-001100     111411006003000667536CONTAINER SET LITE 2PC 0000001000+00002630+00000+0001T   00002630+0000001514          1400 IO7210               2AZ
111411002111411105-001101     111411006003000667659CONTAINER SET LITE 2PC 0000001000+00002630+00000+0001T   00002630+0000001514          1400 IO7210               2AZ
111411003111411301-085000     111411006003000674299 ORN OCC. LOVE HEARTS  0000001000+00002192+00000+0001T   00002192+0000001514          1400 IO7505               2AZ
111412000111412               111412               170213J7     1400+00000+J70000002677+0000002677+000000000+000000376+0000003050+0000000003+I20000000000+0000003050+Z
111412001111412077-000011-D   111412006001023808554TISSUE-WRAP WHITE 10PCE0000001000+00000876+00000+0001T   00000876+0000001530          1400 IO7112               2AZ
111412002111412077-000316     111412006001023609731GIFT-BAG 25X32CM MATT  0000001000+00001753+00000+0001T   00001753+0000001530          1400 IO7112               2AZ
111412003111412112-116069     111412006009681820277TCS CARRIER BAG JUMBO  0000001000+00000048+00000+0001T   00000048+0000001530          1400 IO7090               2AZ
111413000111413               111413               170213J7     1400+00000+J70000004822+0000004822+000000000+000000676+0000005490+0000000008+I20000000000+0000005490+Z
111413001111413079-013032     111413006003000389209SET LETTERS 2 ASSTD    0000001000+00001753+00000+0001T   00001753+0000001540          1400 IO7130               2AZ
111413002111413079-013098     111413006003000197040ART+CRAFT SET DIY      0000001000+00003069+00000+0001T   00003069+0000001540          1400 IO7130               2AZ
111414000111414               111414               170213J7     1400+00000+J70000007365+0000007365+000000000+000001032+0000008390+0000000007+I20000000000+0000008390+Z
111414001111414001-000175     111414006001023788108B/MUG GLS LOVE 380ML   0000001000+00004385+00000+0001T   00004385+0000001548          1400 IO7515               2AZ
111414002111414903-000095     111414006001704011495SWT SPECKLED-EGGS 100G 0000001000+00002104+00000+0001T   00002104+0000001548          1400 IO7150               2AZ
111414003111414077-000302     111414008010410010195GIFT-BAG 18X23CM E/D   0000001000+00000876+00000+0001T   00000876+0000001548          1400 IO7112               2AZ
111415000111415               111415               170213J7     1400+00000+J70000006798+0000006798+000000000+000000954+0000007752+0000000000+I40000007752+0000000000+Z
111415001111415079-006494     111415006003000159864GLITTER GLUE 5PCE 11cm 0000001000+00001490+00000+0001T   00001490+0000001550          1400 IO7130               2AZ
111415002111415306-000965     111415006003000559237FIRSTAID PLASTER 30PC  0000001000+00002630+00000+0001T   00002630+0000001550          1400 IO7200               2AZ
111415003111415159-000117     111415006003000450398SHOWER CAP PVC ASSTD   0000001000+00002630+00000+0001T   00002630+0000001550          1400 IO7200               2AZ
111415004111415112-116069     111415006009681820277TCS CARRIER BAG JUMBO  0000001000+00000048+00000+0001T   00000048+0000001550          1400 IO7090               2AZ
111416000111416               111416               170213J7     1400+00000+J70000002892+0000002892+000000000+000000405+0000003297+0000000000+I40000003297+0000000000+Z
111416001111416080-000124     111416006003000297733CARD & ENV VALENTINES  0000001000+00001578+00000+0001T   00001578+0000001552          1400 IO7112               2AZ
111416002111416077-000310     111416006001023608635GIFT-BAG 18X23CM GLOSS 0000001000+00001314+00000+0001T   00001314+0000001552          1400 IO7112               2AZ
111417000111417               111417               170213J7     1400+00000+J70000003770+0000003770+000000000+000000528+0000004290+0000000008+I20000000000+0000004290+Z
111417001111417080-000127     111417006003000424351VALENTINES DAY 36x24CM 0000001000+00002192+00000+0001T   00002192+0000001555          1400 IO7112               2AZ
111417002111417018-000127     111417006001023380289MUG OCC STRAIGHT LOVE  0000001000+00001578+00000+0001T   00001753+0006471555          1400 IO7515               2AZ
111418000111418               111418               170213J7     1400+00000+J70000008771+0000008771+000000000+000001228+0000009999+0000000000+I40000009999+0000000000+Z
111418001111418030-005020     111418006003000456116PLAQUE WDN SIGN ASSORT 0000001000+00008771+00000+0001T   00008771+0000001601          1400 IO7505               2AZ
111419000111419               111419               170213J7     1400+00000+J70000005962-0000005962-000000000+000000835-0000006800-0000000003+I20000000000+0000006800-Z
111419001111419018-000127     111419006001023380289MUG OCC STRAIGHT LOVE  0000001000-00001578+00000+0001T   00001753+0006471642          1400 IO75151IC            2 Z
111419002111419080-000127     111419006003000424351VALENTINES DAY 36x24CM 0000002000-00002192+00000+0001T   00002192+0000001642          1400 IO71121IC            2 Z
111420000111420               111420               170213J7     1400+00000+J70000002630+0000002630+000000000+000000369+0000002990+0000000009+I20000000000+0000002990+Z
111420001111420002-000016     111420006001023760173CAPPUCCINO-FROTHER B/O 0000001000+00002630+00000+0001T   00002630+0000001644          1400 IO7300               2AZ
111421000111421               111421               170213J7     1400+00000+J70000007134+0000007134+000000000+000001001+0000008135+0000000000+I40000008135+0000000000+Z
111421001111421159-000114     111421006001023507945SHOWER CAP PVC ASSTD   0000001000+00001490+00000+0001T   00001490+0000001701          1400 IO7200               2AZ
111421002111421077-000011-D   111421006001023808554TISSUE-WRAP WHITE 10PCE0000001000+00000876+00000+0001T   00000876+0000001701          1400 IO7112               2AZ
111421003111421077-000314     111421006003000181148GIFT-BAG 11X14CM MATT  0000001000+00000876+00000+0001T   00000876+0000001701          1400 IO7112               2AZ
111421004111421077-000322     111421006001023677532GIFT-BAG 18X23CM E/D FL0000001000+00001227+00000+0001T   00001227+0000001701          1400 IO7112               2AZ
111421005111421565-000041     111421006008766115642NOVELTY BALL ICON 5.5cm0000001000+00002630+00000+0001T   00002630+0000001701          1400 IO7745               2AZ
111421006111421112-116038     111421006009681820246TCS CARRIER BAG MIDI   0000001000+00000035+00000+0001T   00000035+0000001701          1400 IO7090               2AZ
111422000111422               111422               170213J7     1400+00000+J70000020266+0000020266+000000000+000002839+0000023105+0000000000+I40000023105+0000000000+Z
111422001111422039-000500     111422006001023816450C/VOTIVE 8PC RAINBOW   0000001000+00005262+00000+0001T   00005262+0000001705          1400 IO7510               2AZ
111422002111422031-086219-C   111422006001023808905P/FRAME WDN A4 30X40CM 0000001000+00007016+00000+0001T   00007016+0000001705          1400 IO7510               2AZ
111422003111422039-080944     111422006001023758897C/PILLAR RND WHT 12X7CM0000001000+00004385+00000+0001T   00004385+0000001705          1400 IO7510               2AZ
111422004111422039-080942     111422006001023669872C/PILLAR RND WHT 10X7CM0000001000+00003507+00000+0001T   00003507+0000001705          1400 IO7510               2AZ
111422005111422112-116069     111422006009681820277TCS CARRIER BAG JUMBO  0000002000+00000048+00000+0001T   00000048+0000001705          1400 IO7090               2AZ
111423000111423               111423               170213J7     1400+00000+J70000001753+0000001753+000000000+000000246+0000001990+0000000009+I20000000000+0000001990+Z
111423001111423039-001023     111423006003000466337CANDLE TEA-LITE METALIC0000001000+00001753+00000+0001T   00001753+0000001724          1400 IO7510               2AZ
111424000111424               111424               170213J7     1400+00000+J70000015346+0000015346+000000000+000002150+0000017496+0000000000+I40000017496+0000000000+Z
111424001111424001-000175     111424006001023788108B/MUG GLS LOVE 380ML   0000001000+00004385+00000+0001T   00004385+0000001729          1400 IO7515               2AZ
111424002111424080-000133-A   111424006003000647019MINI VALENTINES CARD   0000001000+00000437+00000+0001T   00000437+0000001729          1400 IO7112               2AZ
111424003111424001-091415     111424006003000329113W/GLS OCC. LOVE 2PC 2800000001000+00008771+00000+0001T   00009648+0006471729          1400 IO7515               2AZ
111424004111424077-000381     111424006003000247707GIFT-BAG 25X32CM S/COL 0000001000+00001753+00000+0001T   00001753+0000001729          1400 IO7112               2AZ
111425000111425               111425               170213J7     1400+00000+J70000002663+0000002663+000000000+000000373+0000003030+0000000006+I20000000000+0000003030+Z
111425001111425077-000310     111425006001023608635GIFT-BAG 18X23CM GLOSS 0000002000+00001314+00000+0001T   00001314+0000001730          1400 IO7112               2AZ
111425002111425112-116038     111425006009681820246TCS CARRIER BAG MIDI   0000001000+00000035+00000+0001T   00000035+0000001730          1400 IO7090               2AZ
A17021300                                          09120220J7SLAVE 2                       IO71IC
A17021301                                          09210428J7SLAVE 2                       IO71IC
A17021302                                          09271226J7SLAVE 2                       IO71IC
A17021303                                          09331404J7SLAVE 2                       IO71IC
A17021304                                          09435274J7SLAVE 2                       IO71IC
M17021391                              CASH        J7SLAVE 2                       Z-REPORT No.   323TOTAL (Sales - Refunds)           2989.06       CASH TO BE BANKED                 1798.80       DEBIT CARDS                       1190.26       CREDIT CARDS                         0.00       Z-READING                         2989.06       AIRTIME DEBIT CARD SALES             0.00       AIRTIME CARD SALES                   0.00       OVERS/UNDERS                         0.00       AIRTIME CASH SALES                   0.00       GIFT CARDS                           0.00       GIFT CARD CASH SALES                 0.00       T O T A L  CASH PAYOUTS              0.00                                                                                                                                                                                                                                                                                                                                                      Z
M17021392                              CASH        J7ABSENT                                                                                                                                                                                          ANNUAL LEAVE                                                                                                                                                                                    DAY OFF                                                                                                                                                                                         COMMENTS                                                          Z-READ AMOUNT R1798.80                          CASHIER;THOLANI                                                                                                                                                                                                                                                              Z
Y17021300                                          J700010400268363+000042
ZJ717021319523 SLAVE 2      SALES DATA                     NEXT INVOICE NO.  111426 0323
X J7 Slave 2 First invoice 111383 170213 Last invoice 111425 170213 Next invoice 111426 Total number of records 000000148 clbackup completed 19:52:13
