119357000119357               119357               170213J8     1400+00000+J80000000876+0000000876+000000000+000000123+0000000990+0000000009+I20000000000+0000000990+Z
119357001119357028-000797     119357006001023812124SKEWERS 15cm 100PCE    0000001000+00000876+00000+0001T   00000876+0000000906          1400 KM7305               1AZ
119358000119358               119358               170213J8     1400+00000+J80000002980+0000002980+000000000+000000418+0000003390+0000000008+I20000000000+0000003390+Z
119358001119358106-001100-B   119358006001023651693FRIDGE BOTTLE ASSORTED 0000002000+00001490+00000+0001T   00001490+0000000933          1400 KM7210               1AZ
119359000119359               119359               170213J8     1400+00000+J80000006139+0000006139+000000000+000000860+0000006990+0000000009+I20000000000+0000006990+Z
119359001119359031-007009     119359006003000467822P/FRAME WDN CERTIFICATE0000001000+00006139+00000+0001T   00006139+0000001009          1400 KM7510               1AZ
119360000119360               119360               170213J8     1400+00000+J80000003506+0000003506+000000000+000000492+0000003998+0000000000+I40000003998+0000000000+Z
119360001119360466-000200     119360006001023621665HULA-HOOP     ASSTD    0000002000+00001753+00000+0001T   00001753+0000001050          1400 KM7785               1AZ
119361000119361               119361               170213J8     1400+00000+J80000009502+0000009502+000000000+000001333+0000010835+0000000000+I40000010835+0000000000+Z
119361001119361903-000200     119361006009826020234SWT CHOC RP CHOCO 23G  0000002000+00000788+00000+0001T   00000788+0000001053          1400 KM7150               1AZ
119361002119361007-000711     119361006003000227518NOTE-BK A5 WIRE 80SHTS 0000001000+00004385+00000+0001T   00004385+0000001053          1400 KM7130               1AZ
119361003119361464-000122     119361006003000638987PLAYING CARDS POKER 2PK0000001000+00001753+00000+0001T   00001753+0000001053          1400 KM7785               1AZ
119361004119361080-000113     119361006003000237449CARD&ENVLPE - LOVE     0000001000+00001753+00000+0001T   00001753+0000001053          1400 KM7112               1AZ
119361005119361112-116038     119361006009681820246TCS CARRIER BAG MIDI   0000001000+00000035+00000+0001T   00000035+0000001053          1400 KM7090               1AZ
119362000119362               119362               170213J8     1400+00000+J80000012274+0000012274+000000000+000001721+0000013990+0000000005+I20000000000+0000013990+Z
119362001119362366-000256     119362006001023918406DRESS UP TIARA&EARRINGS0000001000+00003069+00000+0001T   00003069+0000001105          1400 KM7131               1AZ
119362002119362263-001003     119362006001023789846CARS RACING SET-OF-2   0000002000+00002630+00000+0001T   00002630+0000001105          1400 KM7710               1AZ
119362003119362261-002267     119362006001023665126GUN 8-SHOT SUPER-CAP   0000001000+00001753+00000+0001T   00001753+0000001105          1400 KM7710               1AZ
119362004119362006-000789     119362006001023148612CROWN BOY              0000001000+00002192+00000+0001T   00002192+0000001105          1400 KM7131               1AZ
119363000119363               119363               170213J8     1400+00000+J80000003680+0000003680+000000000+000000516+0000004190+0000000006+I20000000000+0000004190+Z
119363001119363304-001011     119363006001023806727FLWR ROSE RED W/BEAR   0000001000+00000613+00000+0001T   00000788+0006471118          1400 KM7510               1AZ
119363002119363077-000310     119363006001023608635GIFT-BAG 18X23CM GLOSS 0000001000+00001314+00000+0001T   00001314+0000001118          1400 KM7112               1AZ
119363003119363080-000113     119363006003000237449CARD&ENVLPE - LOVE     0000001000+00001753+00000+0001T   00001753+0000001118          1400 KM7112               1AZ
119364000119364               119364               170213J8     1400+00000+J80000001788+0000001788+000000000+000000251+0000002030+0000000009+I20000000000+0000002030+Z
119364001119364039-000114     119364006001023524058CANDLE T/LITE RED 3.5CM0000001000+00001753+00000+0001T   00001753+0000001148          1400 KM7510               1AZ
119364002119364112-116038     119364006009681820246TCS CARRIER BAG MIDI   0000001000+00000035+00000+0001T   00000035+0000001148          1400 KM7090               1AZ
119365000119365               119365               170213J8     1400+00000+J80000001490+0000001490+000000000+000000209+0000001690+0000000009+I20000000000+0000001690+Z
119365001119365362-000306     119365006003000450039HAIR BAND SET 18PC     0000001000+00001490+00000+0001T   00001490+0000001320          1400 KM7160               1AZ
119366000119366               119366               170213J8     1400+00000+J80000001227+0000001227+000000000+000000172+0000001390+0000000009+I20000000000+0000001390+Z
119366001119366077-000322     119366006001023677532GIFT-BAG 18X23CM E/D FL0000001000+00001227+00000+0001T   00001227+0000001324          1400 KM7112               1AZ
119367000119367               119367               170213J8     1400+00000+J80000001753+0000001753+000000000+000000246+0000001990+0000000009+I20000000000+0000001990+Z
119367001119367133-000016     119367006003000240609DUSTERS ORANGE PACK-3  0000001000+00001753+00000+0001T   00001753+0000001334          1400 KM7212               1AZ
119368000119368               119368               170213J8     1400+00000+J80000003103+0000003103+000000000+000000435+0000003530+0000000008+I20000000000+0000003530+Z
119368001119368018-000127     119368006001023380289MUG OCC STRAIGHT LOVE  0000001000+00001578+00000+0001T   00001753+0006471355          1400 KM7515               1AZ
119368002119368077-000305     119368006003000395422GIFT-BAG WINE 10X35CM  0000001000+00001490+00000+0001T   00001490+0000001355          1400 KM7112               1AZ
119368003119368112-116038     119368006009681820246TCS CARRIER BAG MIDI   0000001000+00000035+00000+0001T   00000035+0000001355          1400 KM7090               1AZ
119369000119369               119369               170213J8     1400+00000+J80000001314+0000001314+000000000+000000184+0000001490+0000000008+I20000000000+0000001490+Z
119369001119369046-000012     119369006904708013062BATTERIES AA  CARD-OF-40000001000+00001314+00000+0001T   00001314+0000001356          1400 KM7312               1AZ
119370000119370               119370               170213J8     1400+00000+J80000001227+0000001227+000000000+000000172+0000001390+0000000009+I20000000000+0000001390+Z
119370001119370903-000519     119370006001704012805SWT MS LIQ-O-GHETTI    0000001000+00001227+00000+0001T   00001227+0000001405          1400 KM7150               1AZ
119371000119371               119371               170213J8     1400+00000+J80000000000+0000000000+000000000+000000000+0000000000+0000000000+I20000000000+0000000000+Z
119371001119371903-000519     119371006001704012805SWT MS LIQ-O-GHETTI    0000001000-00001227+00000+0001T   00001227+0000001413          1400 KM71501IC            1 Z
119371002119371903-000518     119371006001704012782SWT STRAWS S/BERRY 100g0000001000+00001227+00000+0001T   00001227+0000001413          1400 KM7150               1 Z
119372000119372               119372               170213J8     1400+00000+J80000002630+0000002630+000000000+000000369+0000002999+0000000000+I40000002999+0000000000+Z
119372001119372073-000157     119372006003000571734COSMETIC QUILTED BAG   0000001000+00002630+00000+0001T   00002630+0000001415          1400 KM7200               1AZ
119373000119373               119373               170213J8     1400+00000+J80000002630+0000002630+000000000+000000369+0000002990+0000000009+I20000000000+0000002990+Z
119373001119373007-000557     119373006003000379484DIARY GIRL W/LOCK 50PG 0000001000+00002630+00000+0001T   00002630+0000001417          1400 KM7130               1AZ
119374000119374               119374               170213J8     1400+00000+J80000001578+0000001578+000000000+000000221+0000001790+0000000009+I20000000000+0000001790+Z
119374001119374018-000127     119374006001023380289MUG OCC STRAIGHT LOVE  0000001000+00001578+00000+0001T   00001753+0006471417          1400 KM7515               1AZ
119375000119375               119375               170213J8     1400+00000+J80000006139+0000006139+000000000+000000860+0000006990+0000000009+I20000000000+0000006990+Z
119375001119375027-000029     119375006003000439676FLOOR-BROOM 1.2m ASSTD 0000001000+00006139+00000+0001T   00006139+0000001420          1400 KM7212               1AZ
119376000119376               119376               170213J8     1400+00000+J80000003507+0000003507+000000000+000000491+0000003998+0000000000+I40000003998+0000000000+Z
119376001119376301-085004     119376006003000420469ORN LOVE PLAQUE 21X10CM0000001000+00003507+00000+0001T   00003946+0006471444          1400 KM7505               1AZ
119377000119377               119377               170213J8     1400+00000+J80000000788+0000000788+000000000+000000111+0000000890+0000000009+I20000000000+0000000890+Z
119377001119377903-000200     119377006009826020234SWT CHOC RP CHOCO 23G  0000001000+00000788+00000+0001T   00000788+0000001446          1400 KM7150               1AZ
119378000119378               119378               170213J8     1400+00000+J80000001490+0000001490+000000000+000000209+0000001690+0000000009+I20000000000+0000001690+Z
119378001119378032-000309     119378006001023477804MIRROR STANDING PL SML 0000001000+00001490+00000+0001T   00001490+0000001511          1400 KM7510               1AZ
119379000119379               119379               170213J8     1400+00000+J80000003582+0000003582+000000000+000000503+0000004080+0000000005+I20000000000+0000004080+Z
119379001119379566-000307     119379006003000522361STICKER SPARKLE        0000001000+00000876+00000+0001T   00000876+0000001515          1400 KM7130               1AZ
119379002119379077-000116     119379006003000240777GIFT-WRAP 700mmx2m COL 0000001000+00001753+00000+0001T   00001753+0000001515          1400 KM7112               1AZ
119379003119379007-000123     119379006003000533879BOOK COVER 450mmx1.5m  0000003000+00000306+00000+0001T   00000306+0000001515          1400 KM7130               1AZ
119379004119379112-116038     119379006009681820246TCS CARRIER BAG MIDI   0000001000+00000035+00000+0001T   00000035+0000001515          1400 KM7090               1AZ
119380000119380               119380               170213J8     1400+00000+J80000003946+0000003946+000000000+000000553+0000004490+0000000009+I20000000000+0000004490+Z
119380001119380133-000008     119380006003000366453KITCHEN SWAB 3PCE CHECK0000001000+00003946+00000+0001T   00003946+0000001515          1400 KM7212               1AZ
119381000119381               119381               170213J8     1400+00000+J80000002980+0000002980+000000000+000000418+0000003390+0000000008+I20000000000+0000003390+Z
119381001119381080-000100     119381006003000236114CARD & ENVELOPE BDAY   0000001000+00001753+00000+0001T   00001753+0000001516          1400 KM7112               1AZ
119381002119381077-000319     119381006001023609779GIFT-BAG 18X23CM BIRTHD0000001000+00001227+00000+0001T   00001227+0000001516          1400 KM7112               1AZ
119382000119382               119382               170213J8     1400+00000+J80000002226+0000002226+000000000+000000312+0000002530+0000000008+I20000000000+0000002530+Z
119382001119382304-001011     119382006001023806727FLWR ROSE RED W/BEAR   0000001000+00000613+00000+0001T   00000788+0006471520          1400 KM7510               1AZ
119382002119382018-000127     119382006001023380289MUG OCC STRAIGHT LOVE  0000001000+00001578+00000+0001T   00001753+0006471520          1400 KM7515               1AZ
119382003119382112-116038     119382006009681820246TCS CARRIER BAG MIDI   0000001000+00000035+00000+0001T   00000035+0000001520          1400 KM7090               1AZ
119383000119383               119383               170213J8     1400+00000+J80000000306+0000000306+000000000+000000043+0000000340+0000000009+I20000000000+0000000340+Z
119383001119383007-000123     119383006003000533879BOOK COVER 450mmx1.5m  0000001000+00000306+00000+0001T   00000306+0000001520          1400 KM7130               1AZ
119384000119384               119384               170213J8     1400+00000+J80000003507+0000003507+000000000+000000491+0000003990+0000000008+I20000000000+0000003990+Z
119384001119384562-000011     119384006003000600984PLAY DOUGH NEON TUBE   0000001000+00003507+00000+0001T   00003507+0000001522          1400 KM7755               1AZ
119385000119385               119385               170213J8     1400+00000+J80000000788+0000000788+000000000+000000111+0000000890+0000000009+I20000000000+0000000890+Z
119385001119385903-000200     119385006009826020234SWT CHOC RP CHOCO 23G  0000001000+00000788+00000+0001T   00000788+0000001653          1400 KM7150               1AZ
119386000119386               119386               170213J8     1400+00000+J80000001401+0000001401+000000000+000000197+0000001590+0000000008+I20000000000+0000001590+Z
119386001119386304-001011     119386006001023806727FLWR ROSE RED W/BEAR   0000001000+00000613+00000+0001T   00000788+0006471653          1400 KM7510               1AZ
119386002119386903-000200     119386006009826020234SWT CHOC RP CHOCO 23G  0000001000+00000788+00000+0001T   00000788+0000001653          1400 KM7150               1AZ
119387000119387               119387               170213J8     1400+00000+J80000000613+0000000613+000000000+000000086+0000000690+0000000009+I20000000000+0000000690+Z
119387001119387304-001011     119387006001023806727FLWR ROSE RED W/BEAR   0000001000+00000613+00000+0001T   00000788+0006471657          1400 KM7510               1AZ
119388000119388               119388               170213J8     1400+00000+J80000001753+0000001753+000000000+000000246+0000001990+0000000009+I20000000000+0000001990+Z
119388001119388080-000113     119388006003000237449CARD&ENVLPE - LOVE     0000001000+00001753+00000+0001T   00001753+0000001700          1400 KM7112               1AZ
119389000119389               119389               170213J8     1400+00000+J80000012716+0000012716+000000000+000001781+0000014497+0000000000+I40000014497+0000000000+Z
119389003119389565-000892-A   119389006003000690725NOVELTY FUN BALL       0000001000+00001314+00000+0001T   00001753+0008141708          1400 KM7745               1AZ
119389004119389105-009015     119389006002923000031STORAGE BOX 32L FROSTED0000001000+00011402+00000+0001T   00011402+0000001708          1400 KM7210               1AZ
119390000119390               119390               170213J8     1400+00000+J80000001578+0000001578+000000000+000000221+0000001790+0000000009+I20000000000+0000001790+Z
119390001119390018-000127     119390006001023380289MUG OCC STRAIGHT LOVE  0000001000+00001578+00000+0001T   00001753+0006471711          1400 KM7515               1AZ
119391000119391               119391               170213J8     1400+00000+J80000004385+0000004385+000000000+000000614+0000004990+0000000009+I20000000000+0000004990+Z
119391001119391001-000175     119391006001023788108B/MUG GLS LOVE 380ML   0000001000+00004385+00000+0001T   00004385+0000001722          1400 KM7515               1AZ
119392000119392               119392               170213J8     1400+00000+J80000001490+0000001490+000000000+000000209+0000001699+0000000000+I40000001699+0000000000+Z
119392001119392077-000305     119392006003000395422GIFT-BAG WINE 10X35CM  0000001000+00001490+00000+0001T   00001490+0000001728          1400 KM7112               1AZ
119393000119393               119393               170213J8     1400+00000+J80000001488+0000001488+000000000+000000209+0000001690+0000000007+I20000000000+0000001690+Z
119393001119393018-000177     119393006001023797513MUG MINI LOVE ASSTD    0000001000+00000700+00000+0001T   00000700+0000001728          1400 KM7515               1AZ
119393002119393903-000200     119393006009826020234SWT CHOC RP CHOCO 23G  0000001000+00000788+00000+0001T   00000788+0000001728          1400 KM7150               1AZ
119394000119394               119394               170213J8     1400+00000+J80000001139+0000001139+000000000+000000160+0000001290+0000000009+I20000000000+0000001290+Z
119394001119394046-000014     119394006001023725387BATTERIES SIZE:AAA 4PCE0000001000+00001139+00000+0001T   00001139+0000001729          1400 KM7312               1AZ
119395000119395               119395               170213J8     1400+00000+J80000001753+0000001753+000000000+000000246+0000001990+0000000009+I20000000000+0000001990+Z
119395001119395047-000508     119395006009636901983PLG EURODAPTOR 3x5A-2PN0000001000+00001753+00000+0001T   00001753+0000001731          1400 KM7880               1AZ
119396000119396               119396               170213J8     1400+00000+J80000001753+0000001753+000000000+000000246+0000001990+0000000009+I20000000000+0000001990+Z
119396001119396007-000192     119396006009635830062BOOK H/COVER A4 192PAGE0000001000+00001753+00000+0001T   00001753+0000001737          1400 KM7130               1AZ
119397000119397               119397               170213J8     1400+00000+J80000007677+0000007677+000000000+000001076+0000008750+0000000003+I20000000000+0000008750+Z
119397001119397018-050000     119397006003000412679MUG OCC LOVE TWIN BEAR 0000001000+00006139+00000+0001T   00006139+0000001739          1400 KM7515               1AZ
119397002119397077-000399     119397006003000139514GIFT BAG 18X23CM E/DAY 0000001000+00001490+00000+0001T   00001490+0000001739          1400 KM7112               1AZ
119397003119397112-116069     119397006009681820277TCS CARRIER BAG JUMBO  0000001000+00000048+00000+0001T   00000048+0000001739          1400 KM7090               1AZ
119398000119398               119398               170213J8     1400+00000+J80000006139+0000006139+000000000+000000860+0000006990+0000000009+I20000000000+0000006990+Z
119398001119398018-050000     119398006003000412679MUG OCC LOVE TWIN BEAR 0000001000+00006139+00000+0001T   00006139+0000001739          1400 KM7515               1AZ
119399000119399               119399               170213J8     1400+00000+J80000002630+0000002630+000000000+000000369+0000002990+0000000009+I20000000000+0000002990+Z
119399001119399107-004110     119399006001023718624BUCKET 10L ASSTD       0000001000+00002630+00000+0001T   00002630+0000001740          1400 KM7210               1AZ
119400000119400               119400               170213J8     1400+00000+J80000007016+0000007016+000000000+000000983+0000007990+0000000009+I20000000000+0000007990+Z
119400001119400368-000023     119400006003000672264PLUSH BEAR 21.5cm      0000001000+00007016+00000+0001T   00007016+0000001741          1400 KM7745               1AZ
119401000119401               119401               170213J8     1400+00000+J80000001578+0000001578+000000000+000000221+0000001790+0000000009+I20000000000+0000001790+Z
119401001119401018-000127     119401006001023380289MUG OCC STRAIGHT LOVE  0000001000+00001578+00000+0001T   00001753+0006471756          1400 KM7515               1AZ
119402000119402               119402               170213J8     1400+00000+J80000004155+0000004155+000000000+000000582+0000004737+0000000000+I40000004737+0000000000+Z
119402001119402077-000311     119402006001023608666GIFT-BAG 11X14CM GLOSS 0000001000+00000613+00000+0001T   00000613+0000001758          1400 KM7112               1AZ
119402002119402018-005009     119402006001023725608MUG W/PLUSH-BEAR LOVE  0000001000+00003507+00000+0001T   00003507+0000001758          1400 KM7515               1AZ
119402003119402112-116038     119402006009681820246TCS CARRIER BAG MIDI   0000001000+00000035+00000+0001T   00000035+0000001758          1400 KM7090               1AZ
119403000119403               119403               170213J8     1400+00000+J80000004031+0000004031+000000000+000000566+0000004597+0000000000+I40000004597+0000000000+Z
119403001119403903-000200     119403006009826020234SWT CHOC RP CHOCO 23G  0000001000+00000788+00000+0001T   00000788+0000001800          1400 KM7150               1AZ
119403002119403040-000207     119403006003000673636C/HOLDER GLS COL. 9CM  0000001000+00001753+00000+0001T   00001753+0000001800          1400 KM7510               1AZ
119403003119403077-000305     119403006003000395422GIFT-BAG WINE 10X35CM  0000001000+00001490+00000+0001T   00001490+0000001800          1400 KM7112               1AZ
119404000119404               119404               170213J8     1400+00000+J80000003366+0000003366+000000000+000000472+0000003830+0000000008+I20000000000+0000003830+Z
119404001119404080-000124     119404006003000297733CARD & ENV VALENTINES  0000001000+00001578+00000+0001T   00001578+0000001801          1400 KM7112               1AZ
119404002119404039-000114     119404006001023524058CANDLE T/LITE RED 3.5CM0000001000+00001753+00000+0001T   00001753+0000001801          1400 KM7510               1AZ
119404003119404112-116038     119404006009681820246TCS CARRIER BAG MIDI   0000001000+00000035+00000+0001T   00000035+0000001801          1400 KM7090               1AZ
119405000119405               119405               170213J8     1400+00000+J80000014720-0000000000+000000000+000000000+0000014720-0000000000+I20000000000+0000014720-Z
119405001119405001-999901     119405000000000999901CASUAL WAGES           0000001000-00014720+00000+0001X  8109025299083 0800TT S D0000000000 KM79011IC EKE        1 Z
119406000119406               119406               170213J8     1400+00000+J80000000788+0000000788+000000000+000000111+0000000890+0000000009+I20000000000+0000000890+Z
119406001119406903-000200     119406006009826020234SWT CHOC RP CHOCO 23G  0000001000+00000788+00000+0001T   00000788+0000001804          1400 KM7150               1AZ
A17021300                                          09365563J8SLAVE 1                       KM71IC
A17021301                                          10021620J8SLAVE 1                       KM71IC
C11938900                                          170213J8105-007805     17063849SLAVE 1     KM71IC0000000000+0000000000+0010000001000+
C11938901                                          170213J8112-116069     17071516SLAVE 1     KM71IC0000000000+0000000000+0020000001000+
M17021391                              CASH        J8SLAVE 1                       Z-REPORT No.   255TOTAL (Sales - Refunds)           1757.20       CASH TO BE BANKED                 1136.40       DEBIT CARDS                          0.00       CREDIT CARDS                       473.60       Z-READING                         1610.00       AIRTIME DEBIT CARD SALES             0.00       AIRTIME CARD SALES                   0.00       OVERS/UNDERS                         0.00       AIRTIME CASH SALES                   0.00       GIFT CARDS                           0.00       GIFT CARD CASH SALES                 0.00       CASUAL WAGES                       147.20       T O T A L  CASH PAYOUTS            147.20                                                                                                                                                                                                                                                                                                      Z
M17021392                              CASH        J8ABSENT                                                                                                                                                                                          ANNUAL LEAVE                                                                                                                                                                                    DAY OFF                                                                                                                                                                                         COMMENTS          Z READ AMOUNT 1757                              Z READ NO 255                                   CASHIERNTOKOZO                                                                                                                                                                                                                                                               Z
Y17021300                                          J800004800155632+000049
ZJ817021407463 SLAVE 1      SALES DATA                     NEXT INVOICE NO.  119407 0255
X J8 Slave 1 First invoice 119357 170213 Last invoice 119406 170213 Next invoice 119407 Total number of records 000000138 clbackup completed 07:46:38
