128664000128664               128664               170213J8     1400+00000+J80000025760-0000000000+000000000+000000000+0000025760-0000000000+I20000000000+0000025760-Z
128664001128664001-999901     128664000000000999901CASUAL WAGES           0000001000-00025760+00000+0001X  8601080824086 1400NSHAND0000000000 KU49011IC U          2 Z
128665000128665               128665               170213J8     1400+00000+J80000001928+0000001928+000000000+000000270+0000002190+0000000008+I20000000000+0000002190+Z
128665001128665105-001078     128665000700371637750CONTAINER 1,1L CLIP LOC0000001000+00001928+00000+0001T   00001928+0000000934          1400 KU4210               2AZ
128666000128666               128666               170213J8     1400+00000+J80000000613+0000000613+000000000+000000086+0000000690+0000000009+I20000000000+0000000690+Z
128666001128666306-000021     128666006001023169433EARBUDS 100PCE IN BAG  0000001000+00000613+00000+0001T   00000613+0000001014          1400 KU4200               2AZ
128667000128667               128667               170213J8     1400+00000+J80000005262+0000005262+000000000+000000737+0000005990+0000000009+I20000000000+0000005990+Z
128667001128667105-007805     128667006002923018920STORAGE BOX CLEAR 9.5L 0000001000+00005262+00000+0001T   00005262+0000001015          1400 KU4210               2AZ
128668000128668               128668               170213J8     1400+00000+J80000030693+0000030693+000000000+000004301+0000034990+0000000004+I20000000000+0000034990+Z
128668001128668159-000117     128668006003000450398SHOWER CAP PVC ASSTD   0000001000+00002630+00000+0001T   00002630+0000001018          1400 KU4200               2AZ
128668002128668079-003015     128668006003000634071PAINT ACRYLIC 75ml GOLD0000002000+00002630+00000+0001T   00002630+0000001018          1400 KU4130               2AZ
128668003128668071-001012     128668006001023474445MARKERS BLACK ROUND    0000001000+00000876+00000+0001T   00000876+0000001018          1400 KU4130               2AZ
128668004128668105-009010     128668006002923011518STORAGE BOX 16L GLIDER 0000001000+00007893+00000+0001T   00007893+0000001018          1400 KU4210               2AZ
128668005128668105-009017     128668006003000582273STORAGE BOX FROSTED 55L0000001000+00014034+00000+0001T   00014034+0000001018          1400 KU4210               2AZ
128669000128669               128669               170213J8     1400+00000+J80000003713+0000003713+000000000+000000521+0000004230+0000000004+I20000000000+0000004230+Z
128669001128669112-116038     128669006009681820246TCS CARRIER BAG MIDI   0000001000+00000035+00000+0001T   00000035+0000001023          1400 KU4090               2AZ
128669002128669304-001011     128669006001023806727FLWR ROSE RED W/BEAR   0000006000+00000613+00000+0001T   00000788+0006471023          1400 KU4510               2AZ
128670000128670               128670               170213J8     1400+00000+J80000001753+0000001753+000000000+000000246+0000001990+0000000009+I20000000000+0000001990+Z
128670001128670080-000113     128670006003000237449CARD&ENVLPE - LOVE     0000001000+00001753+00000+0001T   00001753+0000001025          1400 KU4112               2AZ
128671000128671               128671               170213J8     1400+00000+J80000004385+0000004385+000000000+000000614+0000004990+0000000009+I20000000000+0000004990+Z
128671001128671105-008005     128671006002580009484STORAGE CONTAINER 7.5L 0000001000+00004385+00000+0001T   00004385+0000001026          1400 KU4210               2AZ
128672000128672               128672               170213J8     1400+00000+J80000000048+0000000048+000000000+000000007+0000000050+0000000005+I20000000000+0000000050+Z
128672001128672112-116069     128672006009681820277TCS CARRIER BAG JUMBO  0000001000+00000048+00000+0001T   00000048+0000001027          1400 KU4090               2AZ
128673000128673               128673               170213J8     1400+00000+J80000002541+0000002541+000000000+000000357+0000002890+0000000008+I20000000000+0000002890+Z
128673001128673080-000113     128673006003000237449CARD&ENVLPE - LOVE     0000001000+00001753+00000+0001T   00001753+0000001204          1400 KU4112               2AZ
128673002128673903-000200     128673006009826020234SWT CHOC RP CHOCO 23G  0000001000+00000788+00000+0001T   00000788+0000001204          1400 KU4150               2AZ
128674000128674               128674               170213J8     1400+00000+J80000003542+0000003542+000000000+000000496+0000004038+0000000000+I40000004038+0000000000+Z
128674001128674112-116038     128674006009681820246TCS CARRIER BAG MIDI   0000001000+00000035+00000+0001T   00000035+0000001210          1400 KU4090               2AZ
128674002128674562-000020     128674006003000600861EDU PLAY DOUGH 60g 4PC 0000001000+00003507+00000+0001T   00003507+0000001210          1400 KU4755               2AZ
128675000128675               128675               170213J8     1400+00000+J80000003069+0000003069+000000000+000000430+0000003499+0000000000+I40000003499+0000000000+Z
128675001128675089-060027     128675006003000245871KEY-CHAIN HEART 6X6cm  0000001000+00003069+00000+0001T   00003069+0000001222          1400 KU4205               2AZ
128676000128676               128676               170213J8     1400+00000+J80000002366+0000002366+000000000+000000332+0000002690+0000000008+I20000000000+0000002690+Z
128676001128676162-097716     128676006001492977164#TAG NEW GOLD E/PIERCE 0000001000+00001139+00000+0001T   00001139+0000001223          1400 KU4160               2AZ
128676002128676903-000518     128676006001704012782SWT STRAWS S/BERRY 100g0000001000+00001227+00000+0001T   00001227+0000001223          1400 KU4150               2AZ
128677000128677               128677               170213J8     1400+00000+J80000020125+0000020125+000000000+000002820+0000022945+0000000000+I40000022945+0000000000+Z
128677001128677112-116069     128677006009681820277TCS CARRIER BAG JUMBO  0000001000+00000048+00000+0001T   00000048+0000001225          1400 KU4090               2AZ
128677002128677106-007105     128677006001023857644JUG 1,8L FRIDGE-DOOR   0000001000+00003507+00000+0001T   00003507+0000001225          1400 KU4210               2AZ
128677003128677105-007015     128677006001023168221CONTAINER PL ROUND     0000001000+00003507+00000+0001T   00003507+0000001225          1400 KU4210               2AZ
128677004128677036-000610     128677006001023627230WASHING-PEGS PL PACK-240000002000+00001753+00000+0001T   00001753+0000001225          1400 KU4212               2AZ
128677005128677034-000329     128677006001023564290BOTTLE-BRUSHES WHT 2PCE0000001000+00001314+00000+0001T   00001314+0000001225          1400 KU4215               2AZ
128677006128677562-006275     128677006001023836182EDU BOARD W/MARKER ASST0000001000+00007016+00000+0001T   00007016+0000001225          1400 KU4755               2AZ
128677007128677903-000518     128677006001704012782SWT STRAWS S/BERRY 100g0000001000+00001227+00000+0001T   00001227+0000001225          1400 KU4150               2AZ
128678000128678               128678               170213J8     1400+00000+J80000005262+0000005262+000000000+000000737+0000005999+0000000000+I40000005999+0000000000+Z
128678001128678082-000122-E   128678006003000405473R/GLASS STRENGTH:3     0000001000+00005262+00000+0001T   00005262+0000001228          1400 KU4160               2AZ
128679000128679               128679               170213J8     1400+00000+J80000004385+0000004385+000000000+000000614+0000004990+0000000009+I20000000000+0000004990+Z
128679001128679027-009027     128679006003000235803BROOM FLAT 1.2m HANDLE 0000001000+00004385+00000+0001T   00004385+0000001234          1400 KU4212               2AZ
128680000128680               128680               170213J8     1400+00000+J80000006519+0000006519+000000000+000000914+0000007433+0000000000+I40000007433+0000000000+Z
128680001128680112-116038     128680006009681820246TCS CARRIER BAG MIDI   0000001000+00000035+00000+0001T   00000035+0000001242          1400 KU4090               2AZ
128680002128680564-000012     128680006001023130075BUBBLE BOTTLE MAGIC    0000002000+00000700+00000+0001T   00000700+0000001242          1400 KU4131               2AZ
128680003128680089-060027     128680006003000245871KEY-CHAIN HEART 6X6cm  0000001000+00003069+00000+0001T   00003069+0000001242          1400 KU4205               2AZ
128680004128680018-000127     128680006001023380289MUG OCC STRAIGHT LOVE  0000001000+00001578+00000+0001T   00001753+0006471242          1400 KU4515               2AZ
128680005128680080-000133     128680006003000535613CARD&ENV MINI ASTD DSGN0000001000+00000437+00000+0001T   00000437+0000001242          1400 KU4112               2AZ
128681000128681               128681               170213J8     1400+00000+J80000000437+0000000437+000000000+000000062+0000000490+0000000009+I20000000000+0000000490+Z
128681001128681080-000133     128681006003000535613CARD&ENV MINI ASTD DSGN0000001000+00000437+00000+0001T   00000437+0000001242          1400 KU4112               2AZ
128682000128682               128682               170213J8     1400+00000+J80000003507+0000003507+000000000+000000491+0000003990+0000000008+I20000000000+0000003990+Z
128682001128682089-000006     128682006003000094929KEY CHAIN HAND-BAG MTL 0000001000+00003507+00000+0001T   00003507+0000001254          1400 KU4205               2AZ
128683000128683               128683               170213J8     1400+00000+J80000001139+0000001139+000000000+000000160+0000001290+0000000009+I20000000000+0000001290+Z
128683001128683162-097716     128683006001492977164#TAG NEW GOLD E/PIERCE 0000001000+00001139+00000+0001T   00001139+0000001255          1400 KU4160               2AZ
128684000128684               128684               170213J8     1400+00000+J80000001261+0000001261+000000000+000000177+0000001430+0000000008+I20000000000+0000001430+Z
128684001128684112-116038     128684006009681820246TCS CARRIER BAG MIDI   0000001000+00000035+00000+0001T   00000035+0000001428          1400 KU4090               2AZ
128684002128684304-001011     128684006001023806727FLWR ROSE RED W/BEAR   0000002000+00000613+00000+0001T   00000788+0006471428          1400 KU4510               2AZ
128685000128685               128685               170213J8     1400+00000+J80000003542+0000003542+000000000+000000496+0000004030+0000000008+I20000000000+0000004030+Z
128685001128685018-005009     128685006001023725608MUG W/PLUSH-BEAR LOVE  0000001000+00003507+00000+0001T   00003507+0000001429          1400 KU4515               2AZ
128685002128685112-116038     128685006009681820246TCS CARRIER BAG MIDI   0000001000+00000035+00000+0001T   00000035+0000001429          1400 KU4090               2AZ
128686000128686               128686               170213J8     1400+00000+J80000000788+0000000788+000000000+000000111+0000000890+0000000009+I20000000000+0000000890+Z
128686001128686903-000200     128686006009826020234SWT CHOC RP CHOCO 23G  0000001000+00000788+00000+0001T   00000788+0000001430          1400 KU4150               2AZ
128687000128687               128687               170213J8     1400+00000+J80000009680+0000009680+000000000+000001357+0000011037+0000000000+I40000011037+0000000000+Z
128687002128687567-011497     128687000814625012795BK COLOURING 96P GHOUL 0000001000+00002630+00000+0001T   00002630+0000001437          1400 KU4757               2AZ
128687003128687567-011310     128687006003000593378BOOK ACTIVITY DOT      0000001000+00001753+00000+0001T   00001753+0000001437          1400 KU4757               2AZ
128687004128687112-116038     128687006009681820246TCS CARRIER BAG MIDI   0000001000+00000035+00000+0001T   00000035+0000001437          1400 KU4090               2AZ
128687005128687567-010161     128687009780000008516BOOK TOP ASSTD MILLS   0000001000+00005262+00000+0001T   00005262+0000001437          1400 KU4757               2AZ
128688000128688               128688               170213J8     1400+00000+J80000001578+0000001578+000000000+000000221+0000001790+0000000009+I20000000000+0000001790+Z
128688001128688018-000127     128688006001023380289MUG OCC STRAIGHT LOVE  0000001000+00001578+00000+0001T   00001753+0006471440          1400 KU4515               2AZ
128689000128689               128689               170213J8     1400+00000+J80000000876+0000000876+000000000+000000123+0000000990+0000000009+I20000000000+0000000990+Z
128689001128689105-001010     128689006002580007329LUNCH-BOX 1L  ASSTD    0000001000+00000876+00000+0001T   00000876+0000001458          1400 KU4210               2AZ
128690000128690               128690               170213J8     1400+00000+J80000003507+0000003507+000000000+000000491+0000003990+0000000008+I20000000000+0000003990+Z
128690001128690089-000010     128690006003000106523KEY CHAIN REFLECTOR 2PC0000001000+00003507+00000+0001T   00003507+0000001515          1400 KU4205               2AZ
128691000128691               128691               170213J8     1400+00000+J80000002401+0000002401+000000000+000000337+0000002730+0000000008+I20000000000+0000002730+Z
128691001128691112-116038     128691006009681820246TCS CARRIER BAG MIDI   0000001000+00000035+00000+0001T   00000035+0000001516          1400 KU4090               2AZ
128691002128691080-000113     128691006003000237449CARD&ENVLPE - LOVE     0000001000+00001753+00000+0001T   00001753+0000001516          1400 KU4112               2AZ
128691003128691304-001011     128691006001023806727FLWR ROSE RED W/BEAR   0000001000+00000613+00000+0001T   00000788+0006471516          1400 KU4510               2AZ
128692000128692               128692               170213J8     1400+00000+J80000001227+0000001227+000000000+000000172+0000001390+0000000009+I20000000000+0000001390+Z
128692001128692251-000041     128692006001023515889SEAL-TAPE BUFF 48mmx50m0000001000+00001227+00000+0001T   00001227+0000001526          1400 KU4810               2AZ
128693000128693               128693               170213J8     1400+00000+J80000004385+0000004385+000000000+000000614+0000004990+0000000009+I20000000000+0000004990+Z
128693001128693019-000070     128693006003000297474VASE GLS CLEAR BOTTLE  0000001000+00004385+00000+0001T   00004385+0000001528          1400 KU4510               2AZ
128694000128694               128694               170213J8     1400+00000+J80000002716+0000002716+000000000+000000381+0000003090+0000000007+I20000000000+0000003090+Z
128694001128694251-000040     128694006001023515865SEALTAPE CLEAR 48mmx50m0000001000+00001227+00000+0001T   00001227+0000001530          1400 KU4810               2AZ
128694002128694033-000106     128694006001023678027ELASTIC  6mmx3m  CARDED0000001000+00000876+00000+0001T   00000876+0000001530          1400 KU4200               2AZ
128694003128694083-000055     128694006003000003853LIGHTER ELCTRNC REFILBL0000001000+00000613+00000+0001T   00000613+0000001530          1400 KU4315               2AZ
128695000128695               128695               170213J8     1400+00000+J80000008771+0000008771+000000000+000001228+0000009990+0000000009+I20000000000+0000009990+Z
128695001128695004-071262     128695006003000234981COMPUTER MOUSE RUGBY 6 0000001000+00008771+00000+0001T   00008771+0000001531          1400 KU4310               2AZ
128696000128696               128696               170213J8     1400+00000+J80000001139+0000001139+000000000+000000160+0000001290+0000000009+I20000000000+0000001290+Z
128696001128696046-000014     128696006001023725387BATTERIES SIZE:AAA 4PCE0000001000+00001139+00000+0001T   00001139+0000001531          1400 KU4312               2AZ
128697000128697               128697               170213J8     1400+00000+J80000011711+0000011711+000000000+000001641+0000013350+0000000002+I20000000000+0000013350+Z
128697001128697112-116069     128697006009681820277TCS CARRIER BAG JUMBO  0000001000+00000048+00000+0001T   00000048+0000001535          1400 KU4090               2AZ
128697002128697105-008005     128697006002580009484STORAGE CONTAINER 7.5L 0000001000+00004385+00000+0001T   00004385+0000001535          1400 KU4210               2AZ
128697003128697004-079102     128697006003000605033USB POWER BANK 1200MAH 0000001000+00006139+00000+0001T   00006139+0000001535          1400 KU4310               2AZ
128697004128697046-000014     128697006001023725387BATTERIES SIZE:AAA 4PCE0000001000+00001139+00000+0001T   00001139+0000001535          1400 KU4312               2AZ
128698000128698               128698               170213J8     1400+00000+J80000003507+0000003507+000000000+000000491+0000003990+0000000008+I20000000000+0000003990+Z
128698001128698018-000130     128698006001023867537MUG OCC LOVE MINI+HEART0000001000+00003507+00000+0001T   00003507+0000001537          1400 KU4515               2AZ
128699000128699               128699               170213J8     1400+00000+J80000001753+0000001753+000000000+000000246+0000001990+0000000009+I20000000000+0000001990+Z
128699001128699903-000610     128699006003000610518SWEET JUMBO BUBBLE GUM 0000001000+00001753+00000+0001T   00001753+0000001538          1400 KU4150               2AZ
128700000128700               128700               170213J8     1400+00000+J80000001753+0000001753+000000000+000000246+0000001990+0000000009+I20000000000+0000001990+Z
128700001128700903-000612     128700006003000617449SWT TRUMPET 20cm       0000001000+00001753+00000+0001T   00001753+0000001541          1400 KU4150               2AZ
128701000128701               128701               170213J8     1400+00000+J80000001572+0000001572+000000000+000000224+0000001790+0000000006+I20000000000+0000001790+Z
128701001128701001-000001     128701006001023507266SHOT-GLASS 25ml        0000004000+00000393+00000+0001T   00000393+0000001550          1400 KU4515               2AZ
128702000128702               128702               170213J8     1400+00000+J80000001753+0000001753+000000000+000000246+0000001990+0000000009+I20000000000+0000001990+Z
128702001128702080-000100     128702006003000236114CARD & ENVELOPE BDAY   0000001000+00001753+00000+0001T   00001753+0000001552          1400 KU4112               2AZ
128703000128703               128703               170213J8     1400+00000+J80000006139+0000006139+000000000+000000860+0000006990+0000000009+I20000000000+0000006990+Z
128703001128703035-000021     128703006002596020206UMBRELLA GENTS         0000001000+00006139+00000+0001T   00006139+0000001552          1400 KU4205               2AZ
128704000128704               128704               170213J8     1400+00000+J80000002192+0000002192+000000000+000000307+0000002490+0000000009+I20000000000+0000002490+Z
128704001128704077-000926     128704006003000414178G/WRAP 700mmx2m LOVE   0000001000+00002192+00000+0001T   00002192+0000001559          1400 KU4112               2AZ
128705000128705               128705               170213J8     1400+00000+J80000010468+0000010468+000000000+000001468+0000011936+0000000000+I40000011936+0000000000+Z
128705001128705112-116038     128705006009681820246TCS CARRIER BAG MIDI   0000001000+00000035+00000+0001T   00000035+0000001613          1400 KU4090               2AZ
128705002128705018-050000     128705006003000412679MUG OCC LOVE TWIN BEAR 0000001000+00006139+00000+0001T   00006139+0000001613          1400 KU4515               2AZ
128705003128705080-000113     128705006003000237449CARD&ENVLPE - LOVE     0000001000+00001753+00000+0001T   00001753+0000001613          1400 KU4112               2AZ
128705004128705903-000200     128705006009826020234SWT CHOC RP CHOCO 23G  0000001000+00000788+00000+0001T   00000788+0000001613          1400 KU4150               2AZ
128705005128705077-000316     128705006001023609731GIFT-BAG 25X32CM MATT  0000001000+00001753+00000+0001T   00001753+0000001613          1400 KU4112               2AZ
128706000128706               128706               170213J8     1400+00000+J80000003541+0000003541+000000000+000000497+0000004038+0000000000+I40000004038+0000000000+Z
128706001128706080-000113     128706006003000237449CARD&ENVLPE - LOVE     0000001000+00001753+00000+0001T   00001753+0000001626          1400 KU4112               2AZ
128706002128706077-000351     128706006003000139033GIFT-BAG 18X23CM E/D P 0000001000+00001753+00000+0001T   00001753+0000001626          1400 KU4112               2AZ
128706003128706112-116038     128706006009681820246TCS CARRIER BAG MIDI   0000001000+00000035+00000+0001T   00000035+0000001626          1400 KU4090               2AZ
128707000128707               128707               170213J8     1400+00000+J80000003243+0000003243+000000000+000000455+0000003698+0000000000+I40000003698+0000000000+Z
128707001128707077-000399     128707006003000139514GIFT BAG 18X23CM E/DAY 0000001000+00001490+00000+0001T   00001490+0000001628          1400 KU4112               2AZ
128707002128707080-000113     128707006003000237449CARD&ENVLPE - LOVE     0000001000+00001753+00000+0001T   00001753+0000001628          1400 KU4112               2AZ
128708000128708               128708               170213J8     1400+00000+J80000000393+0000000393+000000000+000000056+0000000440+0000000009+I20000000000+0000000440+Z
128708001128708903-000183     128708006003000451043SWT LB HEART LOLLY     0000001000+00000393+00000+0001T   00000393+0000001633          1400 KU4150               2AZ
128709000128709               128709               170213J8     1400+00000+J80000002192+0000002192+000000000+000000307+0000002490+0000000009+I20000000000+0000002490+Z
128709001128709077-000920     128709006003000413812G/WRAP 700mmx2m BIRTHDA0000001000+00002192+00000+0001T   00002192+0000001645          1400 KU4112               2AZ
128710000128710               128710               170213J8     1400+00000+J80000001314+0000001314+000000000+000000184+0000001490+0000000008+I20000000000+0000001490+Z
128710001128710077-000310     128710006001023608635GIFT-BAG 18X23CM GLOSS 0000001000+00001314+00000+0001T   00001314+0000001650          1400 KU4112               2AZ
128711000128711               128711               170213J8     1400+00000+J80000004385+0000004385+000000000+000000614+0000004990+0000000009+I20000000000+0000004990+Z
128711001128711031-000848     128711006001023851901P/FRAME COLLAGE 2ASSTD 0000001000+00004385+00000+0001T   00004385+0000001659          1400 KU4510               2AZ
128712000128712               128712               170213J8     1400+00000+J80000001753+0000001753+000000000+000000246+0000001990+0000000009+I20000000000+0000001990+Z
128712001128712080-000117     128712006003000236350CARD & ENVELOPE THANK U0000001000+00001753+00000+0001T   00001753+0000001702          1400 KU4112               2AZ
128713000128713               128713               170213J8     1400+00000+J80000001578+0000001578+000000000+000000221+0000001790+0000000009+I20000000000+0000001790+Z
128713001128713018-000127     128713006001023380289MUG OCC STRAIGHT LOVE  0000001000+00001578+00000+0001T   00001753+0006471703          1400 KU4515               2AZ
128714000128714               128714               170213J8     1400+00000+J80000000700+0000000700+000000000+000000098+0000000790+0000000008+I20000000000+0000000790+Z
128714001128714018-000177     128714006001023797513MUG MINI LOVE ASSTD    0000001000+00000700+00000+0001T   00000700+0000001704          1400 KU4515               2AZ
128715000128715               128715               170213J8     1400+00000+J80000001753+0000001753+000000000+000000246+0000001990+0000000009+I20000000000+0000001990+Z
128715001128715080-000113     128715006003000237449CARD&ENVLPE - LOVE     0000001000+00001753+00000+0001T   00001753+0000001704          1400 KU4112               2AZ
128716000128716               128716               170213J8     1400+00000+J80000002192+0000002192+000000000+000000307+0000002490+0000000009+I20000000000+0000002490+Z
128716001128716077-000926     128716006003000414178G/WRAP 700mmx2m LOVE   0000001000+00002192+00000+0001T   00002192+0000001708          1400 KU4112               2AZ
128717000128717               128717               170213J8     1400+00000+J80000013155+0000013155+000000000+000001843+0000014998+0000000000+I40000014998+0000000000+Z
128717001128717077-000308     128717006001023595812GIFT-BAG 33X45CM E/DAY 0000001000+00001753+00000+0001T   00001753+0000001710          1400 KU4112               2AZ
128717002128717368-000637     128717006001023874092PLUSH BEAR SLEEPING LOV0000001000+00011402+00000+0001T   00012279+0006471710          1400 KU4745               2AZ
128718000128718               128718               170213J8     1400+00000+J80000003507+0000003507+000000000+000000491+0000003990+0000000008+I20000000000+0000003990+Z
128718001128718018-005009     128718006001023725608MUG W/PLUSH-BEAR LOVE  0000001000+00003507+00000+0001T   00003507+0000001711          1400 KU4515               2AZ
128719000128719               128719               170213J8     1400+00000+J80000012539+0000012539+000000000+000001757+0000014290+0000000006+I20000000000+0000014290+Z
128719001128719048-000859     128719006003000423422TORCH 9 LED PL 3XAAA   0000001000+00001753+00000+0001T   00001753+0000001715          1400 KU4305               2AZ
128719002128719046-000014     128719006001023725387BATTERIES SIZE:AAA 4PCE0000001000+00001139+00000+0001T   00001139+0000001715          1400 KU4312               2AZ
128719003128719106-001120     128719006922286920282W/BOTTLE ALUM 750ml    0000001000+00005262+00000+0001T   00005262+0000001715          1400 KU4210               2AZ
128719004128719106-005122     128719006003000594825ICE LOLLY MAKER LARGE  0000001000+00004385+00000+0001T   00004385+0000001715          1400 KU4210               2AZ
128720000128720               128720               170213J8     1400+00000+J80000001578+0000001578+000000000+000000221+0000001790+0000000009+I20000000000+0000001790+Z
128720001128720018-000127     128720006001023380289MUG OCC STRAIGHT LOVE  0000001000+00001578+00000+0001T   00001753+0006471719          1400 KU4515               2AZ
128721000128721               128721               170213J8     1400+00000+J80000008974+0000008974+000000000+000001258+0000010232+0000000000+I40000010232+0000000000+Z
128721001128721112-116038     128721006009681820246TCS CARRIER BAG MIDI   0000001000+00000035+00000+0001T   00000035+0000001723          1400 KU4090               2AZ
128721002128721018-005009     128721006001023725608MUG W/PLUSH-BEAR LOVE  0000001000+00003507+00000+0001T   00003507+0000001723          1400 KU4515               2AZ
128721003128721304-001204     128721006001023737984FLOWER OCC. TEDDY/ROSES0000002000+00001402+00000+0001T   00001490+0006471723          1400 KU4510               2AZ
128721004128721903-000194     128721006009826020616SWT CHOC RP LOLLY 25G  0000002000+00001314+00000+0001T   00001314+0000001723          1400 KU4150               2AZ
128722000128722               128722               170213J8     1400+00000+J80000004647-0000004647-000000000+000000651-0000005300-0000000002+I20000000000+0000005300-Z
128722001128722001-999907     128722000000000999907CLEANING-MATERIALS     0000001000-00004647+00000+0001T   00000000+0000001733          1400 KU49071IC            2 Z
A17021300                                          09364439J8SLAVE 2                       KU41IC
A17021301                                          10023400J8SLAVE 2                       KU41IC
A17021302                                          13250838J8SLAVE 2                       KU41IC
A17021303                                          16514007J8SLAVE 2                       KU41IC
A17021304                                          17310193J8SLAVE 2                       KU41IC
C12866500                                          170213J8105-001246     09335598SLAVE 2     KU41IC0000000000+0000000000+0010000001000+
C12868700                                          170213J8112-116038     14345798SLAVE 2     KU41IC0000000000+0000000000+0010000001000+
C12869200                                          170213J8077-000151     15201932SLAVE 2     KU41IC0000000000+0000000000+0010000001000+
C12869201                                          170213J8903-000194     15202793SLAVE 2     KU41IC0000000000+0000000000+0020000001000+
C12869202                                          170213J8018-000127     15203572SLAVE 2     KU41IC0000000000+0000000000+0030000001000+
C12872200                                          170213J8001-999907     17305796SLAVE 2     KU41IC0000000000+0000000000+0010000001000-
M17021391                              CASH        J8SLAVE 2                       Z-REPORT No.   253TOTAL (Sales - Refunds)           2810.23       CASH TO BE BANKED                 1501.10       DEBIT CARDS                          0.00       CREDIT CARDS                       998.53       Z-READING                         2499.63       AIRTIME DEBIT CARD SALES             0.00       AIRTIME CARD SALES                   0.00       OVERS/UNDERS                         0.00       AIRTIME CASH SALES                   0.00       GIFT CARDS                           0.00       GIFT CARD CASH SALES                 0.00       CASUAL WAGES                       257.60       CLEANING-MATERIALS                  52.98       ROUNDING                             0.02       T O T A L  CASH PAYOUTS            310.60                                                                                                                                                                                                      Z
M17021392                              CASH        J8ABSENT                                                                                                                                                                                          ANNUAL LEAVE                                                                                                                                                                                    DAY OFF                                                                                                                                                                                         COMMENTS          Z READ  AMOUNT 2810                             Z READ NO  253                                  CASHIER THOBANI                                                                                                                                                                                                                                                              Z
Y17021300                                          J800005700246803+000057
ZJ817021407463 SLAVE 2      SALES DATA                     NEXT INVOICE NO.  128723 0253
X J8 Slave 2 First invoice 128664 170213 Last invoice 128722 170213 Next invoice 128723 Total number of records 000000177 clbackup completed 07:46:43
