106505000106505               106505               170213JA     1400+00000+JA0000002630+0000002630+000000000+000000369+0000002990+0000000009+I20000000000+0000002990+Z
106505001106505306-001125-A   106505006003000359127FIRSTAID SUPPORT KNEE  0000001000+00002630+00000+0001T   00002630+0000000859          1400 DO5200               1AZ
106506000106506               106506               170213JA     1400+00000+JA0000013175+0000013175+000000000+000001851+0000015020+0000000006+I20000000000+0000015020+Z
106506001106506112-116038     106506006009681820246TCS CARRIER BAG MIDI   0000001000+00000035+00000+0001T   00000035+0000000937          1400 DO5090               1AZ
106506002106506007-000552     106506006001023848086NOTE-CASE 200 MEMO SHTS0000001000+00003069+00000+0001T   00003069+0000000937          1400 DO5130               1AZ
106506003106506903-000892     106506008693029700420SWT NOVELTY CHOCO CREAM0000004000+00000788+00000+0001T   00000788+0000000937          1400 DO5150               1AZ
106506004106506903-000862     106506005010478533912SWT DOUBLE DIP 19G     0000001000+00001139+00000+0001T   00001139+0000000937          1400 DO5150               1AZ
106506005106506077-000302     106506008010410010195GIFT-BAG 18X23CM E/D   0000003000+00000876+00000+0001T   00000876+0000000937          1400 DO5112               1AZ
106506006106506077-000303     106506006001023593757GIFT-BAG PAPER MED     0000001000+00001578+00000+0001T   00001578+0000000937          1400 DO5112               1AZ
106506007106506564-000012     106506006001023130075BUBBLE BOTTLE MAGIC    0000001000+00000700+00000+0001T   00000700+0000000937          1400 DO5131               1AZ
106506008106506080-000133     106506006003000535613CARD&ENV MINI ASTD DSGN0000002000+00000437+00000+0001T   00000437+0000000937          1400 DO5112               1AZ
106507000106507               106507               170213JA     1400+00000+JA0000009818+0000009818+000000000+000001377+0000011195+0000000000+I40000011195+0000000000+Z
106507001106507018-019000     106507006003000557288MUG OCC. LOVE JUMBO    0000001000+00005262+00000+0001T   00005262+0000001127          1400 DO5515               1AZ
106507002106507903-000517     106507006001704012768SWT STRAWS FIZZY CHERRY0000001000+00001227+00000+0001T   00001227+0000001127          1400 DO5150               1AZ
106507003106507077-000383     106507006003000247943GIFT-BAG 11X14CM S/COL 0000002000+00000788+00000+0001T   00000788+0000001127          1400 DO5112               1AZ
106507004106507077-000382     106507006003000247820GIFT-BAG MED 18X23CM   0000001000+00001753+00000+0001T   00001753+0000001127          1400 DO5112               1AZ
106508000106508               106508               170213JA     1400+00000+JA0000001261+0000001261+000000000+000000177+0000001430+0000000008+I20000000000+0000001430+Z
106508001106508304-001011     106508006001023806727FLWR ROSE RED W/BEAR   0000002000+00000613+00000+0001T   00000788+0006471128          1400 DO5510               1AZ
106508002106508112-116038     106508006009681820246TCS CARRIER BAG MIDI   0000001000+00000035+00000+0001T   00000035+0000001128          1400 DO5090               1AZ
106509000106509               106509               170213JA     1400+00000+JA0000001753+0000001753+000000000+000000246+0000001990+0000000009+I20000000000+0000001990+Z
106509001106509051-002402     106509006001023518347TRIGGER-SPRAYER  500ml 0000001000+00001753+00000+0001T   00001753+0000001209          1400 DO5820               1AZ
106510000106510               106510               170213JA     1400+00000+JA0000007061+0000007061+000000000+000000990+0000008050+0000000001+I20000000000+0000008050+Z
106510001106510018-000136     106510006001023659026MUG OCC LOVE W/PLUSH   0000001000+00003507+00000+0001T   00003507+0000001223          1400 DO5515               1AZ
106510002106510080-000101     106510006003000236732CARD&ENVLPE FEMALE     0000001000+00001753+00000+0001T   00001753+0000001223          1400 DO5112               1AZ
106510003106510077-000299-A   106510006003000670888GIFT-BAG PAPER JMB LOVE0000001000+00001753+00000+0001T   00001753+0000001223          1400 DO5112               1AZ
106510004106510112-116069     106510006009681820277TCS CARRIER BAG JUMBO  0000001000+00000048+00000+0001T   00000048+0000001223          1400 DO5090               1AZ
106511000106511               106511               170213JA     1400+00000+JA0000002979+0000002979+000000000+000000418+0000003390+0000000007+I20000000000+0000003390+Z
106511001106511266-001308     106511006001023686978MARBLES 45PC L/E       0000001000+00001227+00000+0001T   00001227+0000001224          1400 DO5710               1AZ
106511002106511031-000878-A   106511006001023798985P/FRAME 10x15cm PL-SLID0000002000+00000876+00000+0001T   00000876+0000001224          1400 DO5510               1AZ
106512000106512               106512               170213JA     1400+00000+JA0000010133+0000010133+000000000+000001419+0000011552+0000000000+I40000011552+0000000000+Z
106512001106512046-000012     106512006904708013062BATTERIES AA  CARD-OF-40000001000+00001314+00000+0001T   00001314+0000001227          1400 DO5312               1AZ
106512002106512486-002316     106512006003000335602WALL-CLOCK QTZ RND 30CM0000001000+00008771+00000+0001T   00008771+0000001227          1400 DO5510               1AZ
106512003106512112-116069     106512006009681820277TCS CARRIER BAG JUMBO  0000001000+00000048+00000+0001T   00000048+0000001227          1400 DO5090               1AZ
106513000106513               106513               170213JA     1400+00000+JA0000001139+0000001139+000000000+000000160+0000001290+0000000009+I20000000000+0000001290+Z
106513001106513071-004202     106513006001023417176SCISSORS-SCHOOL PL/MTL 0000001000+00001139+00000+0001T   00001139+0000001229          1400 DO5130               1AZ
106514000106514               106514               170213JA     1400+00000+JA0000003507+0000003507+000000000+000000491+0000003990+0000000008+I20000000000+0000003990+Z
106514001106514567-011348     106514009780709717607BK STICKER ANIMAL WORLD0000001000+00003507+00000+0001T   00003507+0000001230          1400 DO5757               1AZ
106515000106515               106515               170213JA     1400+00000+JA0000001753+0000001753+000000000+000000246+0000001990+0000000009+I20000000000+0000001990+Z
106515001106515071-010481     106515006001023417220MAGNIFYING-GLASS 90mm-D0000001000+00001753+00000+0001T   00001753+0000001232          1400 DO5130               1AZ
106516000106516               106516               170213JA     1400+00000+JA0000001753+0000001753+000000000+000000246+0000001990+0000000009+I20000000000+0000001990+Z
106516001106516200-003026     106516006003000276448REFUSE BAGS 10PCE GREEN0000001000+00001753+00000+0001T   00001753+0000001235          1400 DO5214               1AZ
106517000106517               106517               170213JA     1400+00000+JA0000006174+0000006174+000000000+000000865+0000007030+0000000009+I20000000000+0000007030+Z
106517001106517018-050000     106517006003000412679MUG OCC LOVE TWIN BEAR 0000001000+00006139+00000+0001T   00006139+0000001236          1400 DO5515               1AZ
106517002106517112-116038     106517006009681820246TCS CARRIER BAG MIDI   0000001000+00000035+00000+0001T   00000035+0000001236          1400 DO5090               1AZ
106518000106518               106518               170213JA     1400+00000+JA0000010555+0000010555+000000000+000001481+0000012030+0000000006+I20000000000+0000012030+Z
106518001106518112-116038     106518006009681820246TCS CARRIER BAG MIDI   0000001000+00000035+00000+0001T   00000035+0000001237          1400 DO5090               1AZ
106518002106518006-006018     106518006001023735256PARTY-SPRAY HAIR ASSORT0000004000+00002630+00000+0001T   00002630+0000001237          1400 DO5131               1AZ
106519000106519               106519               170213JA     1400+00000+JA0000008276+0000008276+000000000+000001159+0000009435+0000000000+I40000009435+0000000000+Z
106519001106519018-005009     106519006001023725608MUG W/PLUSH-BEAR LOVE  0000001000+00003507+00000+0001T   00003507+0000001239          1400 DO5515               1AZ
106519002106519018-000127     106519006001023380289MUG OCC STRAIGHT LOVE  0000001000+00001578+00000+0001T   00001753+0006471239          1400 DO5515               1AZ
106519003106519077-000303     106519006001023593757GIFT-BAG PAPER MED     0000002000+00001578+00000+0001T   00001578+0000001239          1400 DO5112               1AZ
106519004106519112-116038     106519006009681820246TCS CARRIER BAG MIDI   0000001000+00000035+00000+0001T   00000035+0000001239          1400 DO5090               1AZ
106520000106520               106520               170213JA     1400+00000+JA0000003507+0000003507+000000000+000000491+0000003990+0000000008+I20000000000+0000003990+Z
106520001106520040-100035     106520006001023871589OIL-BURNER-SET 3PCE    0000001000+00003507+00000+0001T   00003507+0000001240          1400 DO5510               1AZ
106521000106521               106521               170213JA     1400+00000+JA0000005908+0000005908+000000000+000000829+0000006730+0000000007+I20000000000+0000006730+Z
106521001106521019-071605     106521006003000675418PEBBLES R/STONES 500G  0000001000+00001490+00000+0001T   00001490+0000001242          1400 DO5510               1AZ
106521002106521019-071596     106521006001023733078PEBBLES GLS 250g ASSTD.0000001000+00001753+00000+0001T   00001753+0000001242          1400 DO5510               1AZ
106521003106521304-001118     106521006001023786661FLWR IN-POT PINE 10cm  0000001000+00002630+00000+0001T   00002630+0000001242          1400 DO5510               1AZ
106521004106521112-116038     106521006009681820246TCS CARRIER BAG MIDI   0000001000+00000035+00000+0001T   00000035+0000001242          1400 DO5090               1AZ
106522000106522               106522               170213JA     1400+00000+JA0000011402+0000011402+000000000+000001597+0000012990+0000000009+I20000000000+0000012990+Z
106522001106522586-012460     106522006001492124605WATCH LDS QUILTED BEIGE0000001000+00011402+00000+0001T   00011402+0000001247          1400 DO5160               1AZ
106523000106523               106523               170213JA     1400+00000+JA0000004822+0000004822+000000000+000000676+0000005498+0000000000+I40000005498+0000000000+Z
106523001106523077-000290     106523006001023902023GIFT BOX 26x32x13cm    0000001000+00001753+00000+0001T   00001753+0000001347          1400 DO5112               1AZ
106523002106523089-060027     106523006003000245871KEY-CHAIN HEART 6X6cm  0000001000+00003069+00000+0001T   00003069+0000001347          1400 DO5205               1AZ
106524000106524               106524               170213JA     1400+00000+JA0000007892+0000007892+000000000+000001106+0000008990+0000000008+I20000000000+0000008990+Z
106524001106524085-007002     106524006001023870650P/TOOL 10in1 SS W/POUCH0000001000+00007016+00000+0001T   00007016+0000001408          1400 DO5305               1AZ
106524002106524077-000314     106524006003000181148GIFT-BAG 11X14CM MATT  0000001000+00000876+00000+0001T   00000876+0000001408          1400 DO5112               1AZ
106525000106525               106525               170213JA     1400+00000+JA0000014030+0000014030+000000000+000001966+0000015990+0000000006+I20000000000+0000015990+Z
106525001106525586-095191     106525006001492951911WATCH KIDS DAISY ASSTD 0000001000+00008771+00000+0001T   00008771+0000001413          1400 DO5160               1AZ
106525002106525039-000323     106525006001023524171BIRTHDAY-CANDLES 24PCE 0000001000+00000876+00000+0001T   00000876+0000001413          1400 DO5510               1AZ
106525003106525903-000926     106525006914204004556SWT NOVELTY ST N/LACE  0000001000+00001753+00000+0001T   00001753+0000001413          1400 DO5150               1AZ
106525004106525024-000007     106525006003000061846SPATULA LONG 32CM      0000001000+00002630+00000+0001T   00002630+0000001413          1400 DO5300               1AZ
106526000106526               106526               170213JA     1400+00000+JA0000025650+0000025650+000000000+000003595+0000029245+0000000000+I40000029245+0000000000+Z
106526001106526112-116069     106526006009681820277TCS CARRIER BAG JUMBO  0000001000+00000048+00000+0001T   00000048+0000001418          1400 DO5090               1AZ
106526002106526368-000614     106526006001023705808PLUSH LOVE 30cm        0000001000+00008771+00000+0001T   00008771+0000001418          1400 DO5745               1AZ
106526003106526001-091415     106526006003000329113W/GLS OCC. LOVE 2PC 2800000001000+00008771+00000+0001T   00009648+0006471418          1400 DO5515               1AZ
106526004106526080-000124     106526006003000297733CARD & ENV VALENTINES  0000001000+00001578+00000+0001T   00001578+0000001418          1400 DO5112               1AZ
106526005106526084-009407     106526006001023861726SCISSORS 13cm MTL PL-H 0000001000+00001753+00000+0001T   00001753+0000001418          1400 DO5200               1AZ
106526006106526080-000142     106526006003000662456CARD & ENV GIANT AFRI  0000001000+00002630+00000+0001T   00002630+0000001418          1400 DO5112               1AZ
106526007106526077-000245     106526006001023759214GIFT-RIBBON METALLICx2 0000001000+00001227+00000+0001T   00001227+0000001418          1400 DO5112               1AZ
106526008106526006-000172-G   106526006003000610167BALLOONS METALLIC SILV 0000004000+00000218+00000+0001T   00000218+0000001418          1400 DO5131               1AZ
106527000106527               106527               170213JA     1400+00000+JA0000007016+0000007016+000000000+000000983+0000007990+0000000009+I20000000000+0000007990+Z
106527001106527039-000624     106527006003000054923C/SET 4PC PILLARS 5X8CM0000001000+00007016+00000+0001T   00007016+0000001424          1400 DO5510               1AZ
106528000106528               106528               170213JA     1400+00000+JA0000003542+0000003542+000000000+000000496+0000004030+0000000008+I20000000000+0000004030+Z
106528001106528018-005009     106528006001023725608MUG W/PLUSH-BEAR LOVE  0000001000+00003507+00000+0001T   00003507+0000001425          1400 DO5515               1AZ
106528002106528112-116038     106528006009681820246TCS CARRIER BAG MIDI   0000001000+00000035+00000+0001T   00000035+0000001425          1400 DO5090               1AZ
106529000106529               106529               170213JA     1400+00000+JA0000002015+0000002015+000000000+000000283+0000002290+0000000008+I20000000000+0000002290+Z
106529001106529077-000303     106529006001023593757GIFT-BAG PAPER MED     0000001000+00001578+00000+0001T   00001578+0000001429          1400 DO5112               1AZ
106529002106529080-000133-A   106529006003000647019MINI VALENTINES CARD   0000001000+00000437+00000+0001T   00000437+0000001429          1400 DO5112               1AZ
106530000106530               106530               170213JA     1400+00000+JA0000001613+0000001613+000000000+000000226+0000001839+0000000000+I40000001839+0000000000+Z
106530001106530018-000127     106530006001023380289MUG OCC STRAIGHT LOVE  0000001000+00001578+00000+0001T   00001753+0006471432          1400 DO5515               1AZ
106530002106530112-116038     106530006009681820246TCS CARRIER BAG MIDI   0000001000+00000035+00000+0001T   00000035+0000001432          1400 DO5090               1AZ
106531000106531               106531               170213JA     1400+00000+JA0000006447+0000006447+000000000+000000904+0000007351+0000000000+I40000007351+0000000000+Z
106531001106531112-116069     106531006009681820277TCS CARRIER BAG JUMBO  0000001000+00000048+00000+0001T   00000048+0000001435          1400 DO5090               1AZ
106531002106531071-081091     106531006001151010287STAED/GENKEM ALL-STICK 0000002000+00001227+00000+0001T   00001227+0000001435          1400 DO5130               1AZ
106531003106531566-000951     106531006003000217670STICKERS 3 STYLES ASSTD0000001000+00002192+00000+0001T   00002192+0000001435          1400 DO5130               1AZ
106531004106531124-002010     106531006001023907097BISCUIT TIN 20x13x7cm  0000001000+00001753+00000+0001T   00002630+0008171435          1400 DO5300               1AZ
106532000106532               106532               170213JA     1400+00000+JA0000001314+0000001314+000000000+000000184+0000001498+0000000000+I40000001498+0000000000+Z
106532001106532034-000329     106532006001023564290BOTTLE-BRUSHES WHT 2PCE0000001000+00001314+00000+0001T   00001314+0000001444          1400 DO5215               1AZ
106533000106533               106533               170213JA     1400+00000+JA0000002191+0000002191+000000000+000000307+0000002490+0000000008+I20000000000+0000002490+Z
106533001106533077-000303     106533006001023593757GIFT-BAG PAPER MED     0000001000+00001578+00000+0001T   00001578+0000001445          1400 DO5112               1AZ
106533002106533304-001011     106533006001023806727FLWR ROSE RED W/BEAR   0000001000+00000613+00000+0001T   00000788+0006471445          1400 DO5510               1AZ
106534000106534               106534               170213JA     1400+00000+JA0000006184+0000006184+000000000+000000867+0000007050+0000000001+I20000000000+0000007050+Z
106534001106534112-116069     106534006009681820277TCS CARRIER BAG JUMBO  0000001000+00000048+00000+0001T   00000048+0000001449          1400 DO5090               1AZ
106534002106534077-000299-A   106534006003000670888GIFT-BAG PAPER JMB LOVE0000001000+00001753+00000+0001T   00001753+0000001449          1400 DO5112               1AZ
106534003106534080-000127     106534006003000424351VALENTINES DAY 36x24CM 0000001000+00002192+00000+0001T   00002192+0000001449          1400 DO5112               1AZ
106534004106534304-001011     106534006001023806727FLWR ROSE RED W/BEAR   0000001000+00000613+00000+0001T   00000788+0006471449          1400 DO5510               1AZ
106534005106534018-000127     106534006001023380289MUG OCC STRAIGHT LOVE  0000001000+00001578+00000+0001T   00001753+0006471449          1400 DO5515               1AZ
106535000106535               106535               170213JA     1400+00000+JA0000005998+0000005998+000000000+000000840+0000006830+0000000008+I20000000000+0000006830+Z
106535001106535080-000124     106535006003000297733CARD & ENV VALENTINES  0000001000+00001578+00000+0001T   00001578+0000001452          1400 DO5112               1AZ
106535002106535031-080508     106535006001023802415P/FRAME PL 22X11CM LOVE0000001000+00004385+00000+0001T   00004385+0000001452          1400 DO5510               1AZ
106535003106535112-116038     106535006009681820246TCS CARRIER BAG MIDI   0000001000+00000035+00000+0001T   00000035+0000001452          1400 DO5090               1AZ
106536000106536               106536               170213JA     1400+00000+JA0000004420+0000004420+000000000+000000619+0000005030+0000000009+I20000000000+0000005030+Z
106536001106536031-000001-A   106536006003000246908P/FRAME GLS LOVE 9X13cm0000001000+00004385+00000+0001T   00004385+0000001455          1400 DO5510               1AZ
106536002106536112-116038     106536006009681820246TCS CARRIER BAG MIDI   0000001000+00000035+00000+0001T   00000035+0000001455          1400 DO5090               1AZ
106537000106537               106537               170213JA     1400+00000+JA0000001489+0000001489+000000000+000000209+0000001690+0000000008+I20000000000+0000001690+Z
106537001106537304-001011     106537006001023806727FLWR ROSE RED W/BEAR   0000001000+00000613+00000+0001T   00000788+0006471456          1400 DO5510               1AZ
106537002106537903-000503     106537006001704006118SWT VAMPIRE FANGS 60G  0000001000+00000876+00000+0001T   00000876+0000001456          1400 DO5150               1AZ
106538000106538               106538               170213JA     1400+00000+JA0000024604+0000024604+000000000+000003445+0000028049+0000000000+I40000028049+0000000000+Z
106538001106538368-000164     106538006003000119677PLUSH 16CM DOG ON LEAD 0000002000+00003507+00000+0001T   00004385+0008141500          1400 DO5745               1AZ
106538002106538368-000614     106538006001023705808PLUSH LOVE 30cm        0000002000+00008771+00000+0001T   00008771+0000001500          1400 DO5745               1AZ
106538003106538112-116069     106538006009681820277TCS CARRIER BAG JUMBO  0000001000+00000048+00000+0001T   00000048+0000001500          1400 DO5090               1AZ
106539000106539               106539               170213JA     1400+00000+JA0000003507+0000003507+000000000+000000491+0000003990+0000000008+I20000000000+0000003990+Z
106539001106539018-005009     106539006001023725608MUG W/PLUSH-BEAR LOVE  0000001000+00003507+00000+0001T   00003507+0000001501          1400 DO5515               1AZ
106540000106540               106540               170213JA     1400+00000+JA0000007408+0000007408+000000000+000001039+0000008440+0000000007+I20000000000+0000008440+Z
106540001106540024-091103-E   106540006003000596300CAKE BOX 2PC SQUARE    0000001000+00001753+00000+0001T   00001753+0000001505          1400 DO5300               1AZ
106540002106540200-003024     106540006001023657299REFUSE BAGS 20PCE BLACK0000001000+00001753+00000+0001T   00001753+0000001505          1400 DO5214               1AZ
106540003106540077-000311     106540006001023608666GIFT-BAG 11X14CM GLOSS 0000002000+00000613+00000+0001T   00000613+0000001505          1400 DO5112               1AZ
106540004106540077-000310     106540006001023608635GIFT-BAG 18X23CM GLOSS 0000002000+00001314+00000+0001T   00001314+0000001505          1400 DO5112               1AZ
106540005106540112-116069     106540006009681820277TCS CARRIER BAG JUMBO  0000001000+00000048+00000+0001T   00000048+0000001505          1400 DO5090               1AZ
106541000106541               106541               170213JA     1400+00000+JA0000003542+0000003542+000000000+000000496+0000004030+0000000008+I20000000000+0000004030+Z
106541001106541031-000002-A   106541006003000247103P/FRAME LOVE 7.5X7.5CM 0000001000+00003507+00000+0001T   00003507+0000001514          1400 DO5510               1AZ
106541002106541112-116038     106541006009681820246TCS CARRIER BAG MIDI   0000001000+00000035+00000+0001T   00000035+0000001514          1400 DO5090               1AZ
106542000106542               106542               170213JA     1400+00000+JA0000001753+0000001753+000000000+000000246+0000001990+0000000009+I20000000000+0000001990+Z
106542001106542306-001130-A   106542006003000359271FIRSTAID SUPPORT ANKLE 0000001000+00001753+00000+0001T   00001753+0000001518          1400 DO5200               1AZ
106543000106543               106543               170213JA     1400+00000+JA0000002892+0000002892+000000000+000000405+0000003290+0000000007+I20000000000+0000003290+Z
106543001106543030-000010     106543006003000084395P/DOOR HANGER 2-ASSTD  0000001000+00001314+00000+0001T   00001490+0008181520          1400 DO5505               1AZ
106543002106543080-000124     106543006003000297733CARD & ENV VALENTINES  0000001000+00001578+00000+0001T   00001578+0000001520          1400 DO5112               1AZ
106544000106544               106544               170213JA     1400+00000+JA0000000876+0000000876+000000000+000000123+0000000990+0000000009+I20000000000+0000000990+Z
106544001106544366-007917     106544006003000653621DRESS UP MASK ANIMALS  0000001000+00000876+00000+0001T   00000876+0000001523          1400 DO5131               1AZ
106545000106545               106545               170213JA     1400+00000+JA0000009694+0000009694+000000000+000001358+0000011050+0000000002+I20000000000+0000011050+Z
106545001106545018-000130     106545006001023867537MUG OCC LOVE MINI+HEART0000001000+00003507+00000+0001T   00003507+0000001533          1400 DO5515               1AZ
106545002106545018-050000     106545006003000412679MUG OCC LOVE TWIN BEAR 0000001000+00006139+00000+0001T   00006139+0000001533          1400 DO5515               1AZ
106545003106545112-116069     106545006009681820277TCS CARRIER BAG JUMBO  0000001000+00000048+00000+0001T   00000048+0000001533          1400 DO5090               1AZ
106546000106546               106546               170213JA     1400+00000+JA0000003943+0000003943+000000000+000000554+0000004490+0000000007+I20000000000+0000004490+Z
106546001106546104-000040     106546006001023846280BASKET HEART-SHAPED    0000002000+00001753+00000+0001T   00001753+0000001534          1400 DO5210               1AZ
106546002106546080-000133-A   106546006003000647019MINI VALENTINES CARD   0000001000+00000437+00000+0001T   00000437+0000001534          1400 DO5112               1AZ
106547000106547               106547               170213JA     1400+00000+JA0000001613+0000001613+000000000+000000226+0000001830+0000000009+I20000000000+0000001830+Z
106547001106547018-000127     106547006001023380289MUG OCC STRAIGHT LOVE  0000001000+00001578+00000+0001T   00001753+0006471536          1400 DO5515               1AZ
106547002106547112-116038     106547006009681820246TCS CARRIER BAG MIDI   0000001000+00000035+00000+0001T   00000035+0000001536          1400 DO5090               1AZ
106548000106548               106548               170213JA     1400+00000+JA0000012764+0000012764+000000000+000001788+0000014550+0000000002+I20000000000+0000014550+Z
106548001106548080-000127     106548006003000424351VALENTINES DAY 36x24CM 0000001000+00002192+00000+0001T   00002192+0000001537          1400 DO5112               1AZ
106548002106548106-000890     106548000876416080628WATER BOTTLE PL 700ml  0000002000+00005262+00000+0001T   00005262+0000001537          1400 DO5210               1AZ
106548003106548112-116069     106548006009681820277TCS CARRIER BAG JUMBO  0000001000+00000048+00000+0001T   00000048+0000001537          1400 DO5090               1AZ
106549000106549               106549               170213JA     1400+00000+JA0000001753+0000001753+000000000+000000246+0000001990+0000000009+I20000000000+0000001990+Z
106549001106549369-001138     106549006003000555185VINYL 8.5cm THEMED DUCK0000001000+00001753+00000+0001T   00002630+0008141546          1400 DO5745               1AZ
106550000106550               106550               170213JA     1400+00000+JA0000009208+0000009208+000000000+000001290+0000010490+0000000008+I20000000000+0000010490+Z
106550001106550039-809558     106550006003000344376CANDLE PILLAR 12CM 4AST0000001000+00006139+00000+0001T   00006139+0000001547          1400 DO5510               1AZ
106550002106550089-060027     106550006003000245871KEY-CHAIN HEART 6X6cm  0000001000+00003069+00000+0001T   00003069+0000001547          1400 DO5205               1AZ
106551000106551               106551               170213JA     1400+00000+JA0000006611+0000006611+000000000+000000926+0000007530+0000000007+I20000000000+0000007530+Z
106551001106551030-000040     106551006003000396375PLAQUE WDN HANGING HRTS0000001000+00003069+00000+0001T   00003069+0000001548          1400 DO5505               1AZ
106551002106551031-005853     106551006003000442416P/FRAME WDN TWIN HEARTS0000001000+00003507+00000+0001T   00003507+0000001548          1400 DO5510               1AZ
106551003106551112-116038     106551006009681820246TCS CARRIER BAG MIDI   0000001000+00000035+00000+0001T   00000035+0000001548          1400 DO5090               1AZ
106552000106552               106552               170213JA     1400+00000+JA0000000876+0000000876+000000000+000000123+0000000990+0000000009+I20000000000+0000000990+Z
106552001106552022-002108     106552006002600025159MUG 8cm PLAIN          0000001000+00000876+00000+0001T   00000876+0000001551          1400 DO5305               1AZ
106553000106553               106553               170213JA     1400+00000+JA0000014032+0000014032+000000000+000001966+0000015990+0000000008+I20000000000+0000015990+Z
106553001106553368-000113     106553006001023780874PLUSH BLINGED LOVE 30cm0000001000+00012279+00000+0001T   00012279+0000001554          1400 DO5745               1AZ
106553002106553077-000299-A   106553006003000670888GIFT-BAG PAPER JMB LOVE0000001000+00001753+00000+0001T   00001753+0000001554          1400 DO5112               1AZ
106554000106554               106554               170213JA     1400+00000+JA0000014643+0000014643+000000000+000002052+0000016690+0000000005+I20000000000+0000016690+Z
106554001106554007-000043     106554006009635831496DISPLAY-BOOK PL A4 20PG0000001000+00001753+00000+0001T   00001753+0000001555          1400 DO5130               1AZ
106554002106554007-000045     106554006009608640438DISPLAY-POCKETS A4 10PC0000001000+00000876+00000+0001T   00000876+0000001555          1400 DO5130               1AZ
106554003106554051-600632     106554006001023868404PLANTER W/TRAY PL RECT 0000001000+00004385+00000+0001T   00004385+0000001555          1400 DO5820               1AZ
106554004106554051-600630     106554006001023868374PLANTER W/TRAY PL RECT 0000001000+00003244+00000+0001T   00003244+0000001555          1400 DO5820               1AZ
106554005106554051-600632     106554006001023868404PLANTER W/TRAY PL RECT 0000001000+00004385+00000+0001T   00004385+0000001555          1400 DO5820               1AZ
106555000106555               106555               170213JA     1400+00000+JA0000001578+0000001578+000000000+000000221+0000001790+0000000009+I20000000000+0000001790+Z
106555001106555077-000303     106555006001023593757GIFT-BAG PAPER MED     0000001000+00001578+00000+0001T   00001578+0000001556          1400 DO5112               1AZ
106556000106556               106556               170213JA     1400+00000+JA0000002800+0000002800+000000000+000000392+0000003190+0000000002+I20000000000+0000003190+Z
106556001106556903-000071     106556006001704001120SWT TOFFEE LIQURICE 35g0000004000+00000700+00000+0001T   00000700+0000001557          1400 DO5150               1AZ
106557000106557               106557               170213JA     1400+00000+JA0000013706+0000013706+000000000+000001923+0000015629+0000000000+I40000015629+0000000000+Z
106557001106557112-116038     106557006009681820246TCS CARRIER BAG MIDI   0000001000+00000035+00000+0001T   00000035+0000001601          1400 DO5090               1AZ
106557002106557039-001023     106557006003000466337CANDLE TEA-LITE METALIC0000001000+00001753+00000+0001T   00001753+0000001601          1400 DO5510               1AZ
106557003106557039-000026     106557006001023551610C/TAPERED 25CM M/RED   0000002000+00001051+00000+0001T   00001051+0000001601          1400 DO5510               1AZ
106557004106557080-000124     106557006003000297733CARD & ENV VALENTINES  0000001000+00001578+00000+0001T   00001578+0000001601          1400 DO5112               1AZ
106557005106557563-000318-L   106557006003000407088SERVIETTES 33cm RED    0000001000+00002192+00000+0001T   00002192+0000001601          1400 DO5214               1AZ
106557006106557077-000303     106557006001023593757GIFT-BAG PAPER MED     0000001000+00001578+00000+0001T   00001578+0000001601          1400 DO5112               1AZ
106557007106557018-000127     106557006001023380289MUG OCC STRAIGHT LOVE  0000001000+00001578+00000+0001T   00001753+0006471601          1400 DO5515               1AZ
106557008106557903-000194     106557006009826020616SWT CHOC RP LOLLY 25G  0000001000+00001314+00000+0001T   00001314+0000001601          1400 DO5150               1AZ
106557009106557903-000200     106557006009826020234SWT CHOC RP CHOCO 23G  0000002000+00000788+00000+0001T   00000788+0000001601          1400 DO5150               1AZ
106558000106558               106558               170213JA     1400+00000+JA0000000876+0000000876+000000000+000000123+0000000990+0000000009+I20000000000+0000000990+Z
106558001106558071-000677     106558006001023110282THUMB-TACKS            0000001000+00000876+00000+0001T   00000876+0000001602          1400 DO5130               1AZ
106559000106559               106559               170213JA     1400+00000+JA0000004419+0000004419+000000000+000000619+0000005030+0000000008+I20000000000+0000005030+Z
106559001106559018-000170     106559006001023775528MUG OCC. LOVE 2PC MINI 0000002000+00002192+00000+0001T   00002192+0000001611          1400 DO5515               1AZ
106559002106559112-116038     106559006009681820246TCS CARRIER BAG MIDI   0000001000+00000035+00000+0001T   00000035+0000001611          1400 DO5090               1AZ
106560000106560               106560               170213JA     1400+00000+JA0000013378+0000013378+000000000+000001874+0000015250+0000000002+I20000000000+0000015250+Z
106560001106560030-000030-A   106560006003000249305PLAQUE GLASS LOVE      0000001000+00003069+00000+0001T   00003069+0000001613          1400 DO5505               1AZ
106560002106560001-091415     106560006003000329113W/GLS OCC. LOVE 2PC 2800000001000+00008771+00000+0001T   00009648+0006471613          1400 DO5515               1AZ
106560003106560077-000299     106560006003000395576G/BAG 32x25cm LRG LOVE 0000001000+00001490+00000+0001T   00001490+0000001613          1400 DO5112               1AZ
106560004106560112-116069     106560006009681820277TCS CARRIER BAG JUMBO  0000001000+00000048+00000+0001T   00000048+0000001613          1400 DO5090               1AZ
106561000106561               106561               170213JA     1400+00000+JA0000001526+0000001526+000000000+000000217+0000001740+0000000003+I20000000000+0000001740+Z
106561001106561006-000172-B   106561006003000609819BALLOONS METALLIC L/GRN0000001000+00000218+00000+0001T   00000218+0000001619          1400 DO5131               1AZ
106561002106561006-000171-C   106561006003000609178BALLOONS 1PC D/GRN PRNT0000001000+00000218+00000+0001T   00000218+0000001619          1400 DO5131               1AZ
106561003106561006-000172-A   106561006003000609765BALLOONS METALLIC PINK 0000001000+00000218+00000+0001T   00000218+0000001619          1400 DO5131               1AZ
106561004106561006-000170-K   106561006003000609284BALLOONS 1PC PURPLE    0000001000+00000218+00000+0001T   00000218+0000001619          1400 DO5131               1AZ
106561005106561006-000170-E   106561006003000608546BALLOONS 1PC BLUE      0000001000+00000218+00000+0001T   00000218+0000001619          1400 DO5131               1AZ
106561006106561006-000172-J   106561006003000610280BALLOONS METALLIC BLACK0000001000+00000218+00000+0001T   00000218+0000001619          1400 DO5131               1AZ
106561007106561006-000171-E   106561006003000609406BALLOONS 1PC BLUE PRNT 0000001000+00000218+00000+0001T   00000218+0000001619          1400 DO5131               1AZ
106562000106562               106562               170213JA     1400+00000+JA0000002665+0000002665+000000000+000000374+0000003030+0000000009+I20000000000+0000003030+Z
106562001106562304-000720     106562006001023843050F/BUNCH ROSE 6-HEAD AST0000001000+00002630+00000+0001T   00002630+0000001620          1400 DO5510               1AZ
106562002106562112-116038     106562006009681820246TCS CARRIER BAG MIDI   0000001000+00000035+00000+0001T   00000035+0000001620          1400 DO5090               1AZ
106563000106563               106563               170213JA     1400+00000+JA0000001490+0000001490+000000000+000000209+0000001690+0000000009+I20000000000+0000001690+Z
106563001106563077-000299     106563006003000395576G/BAG 32x25cm LRG LOVE 0000001000+00001490+00000+0001T   00001490+0000001621          1400 DO5112               1AZ
106564000106564               106564               170213JA     1400+00000+JA0000008505+0000008505+000000000+000001192+0000009690+0000000007+I20000000000+0000009690+Z
106564001106564077-000299     106564006003000395576G/BAG 32x25cm LRG LOVE 0000001000+00001490+00000+0001T   00001490+0000001623          1400 DO5112               1AZ
106564002106564301-085006     106564006001023502940ORN LOVE MSG TUBE W/HRT0000001000+00001753+00000+0001T   00001753+0000001623          1400 DO5505               1AZ
106564003106564016-006540     106564006003000579754S/JAR GLS COUNTER 2SIDE0000001000+00005262+00000+0001T   00005262+0000001623          1400 DO5300               1AZ
106565000106565               106565               170213JA     1400+00000+JA0000021972+0000021972+000000000+000003078+0000025050+0000000000+I40000025050+0000000000+Z
106565001106565112-116069     106565006009681820277TCS CARRIER BAG JUMBO  0000001000+00000048+00000+0001T   00000048+0000001626          1400 DO5090               1AZ
106565002106565018-030000     106565006003000421060MUG OCCASIONS LOVE 2PCE0000001000+00004385+00000+0001T   00004385+0000001626          1400 DO5515               1AZ
106565003106565368-000053     106565006003000633449PLUSH BEAR 15.5cm MUM  0000001000+00005262+00000+0001T   00005262+0000001626          1400 DO5745               1AZ
106565004106565080-000115     106565006003000237333CARD&ENVELOPE - BLANKS 0000001000+00001753+00000+0001T   00001753+0000001626          1400 DO5112               1AZ
106565005106565077-000299-A   106565006003000670888GIFT-BAG PAPER JMB LOVE0000001000+00001753+00000+0001T   00001753+0000001626          1400 DO5112               1AZ
106565006106565031-000924     106565006001023669964P/FRAME COLLAGE PL     0000001000+00008771+00000+0001T   00008771+0000001626          1400 DO5510               1AZ
106566000106566               106566               170213JA     1400+00000+JA0000007675+0000007675+000000000+000001076+0000008750+0000000001+I20000000000+0000008750+Z
106566001106566077-000299     106566006003000395576G/BAG 32x25cm LRG LOVE 0000001000+00001490+00000+0001T   00001490+0000001627          1400 DO5112               1AZ
106566002106566567-011439     106566009781847508690BK COLOURING BOYS      0000001000+00003507+00000+0001T   00003507+0000001627          1400 DO5757               1AZ
106566003106566018-000129     106566006001023403353MUG OCC. LOVE V-SHAPE  0000001000+00002630+00000+0001T   00002630+0000001627          1400 DO5515               1AZ
106566004106566112-116069     106566006009681820277TCS CARRIER BAG JUMBO  0000001000+00000048+00000+0001T   00000048+0000001627          1400 DO5090               1AZ
106567000106567               106567               170213JA     1400+00000+JA0000004823+0000004823+000000000+000000676+0000005490+0000000009+I20000000000+0000005490+Z
106567001106567301-085001     106567006003000297610ORN WATERBALL LOVE ASST0000001000+00004823+00000+0001T   00004823+0000001627          1400 DO5505               1AZ
106568000106568               106568               170213JA     1400+00000+JA0000004904+0000004904+000000000+000000688+0000005590+0000000002+I20000000000+0000005590+Z
106568001106568304-001011     106568006001023806727FLWR ROSE RED W/BEAR   0000008000+00000613+00000+0001T   00000788+0006471631          1400 DO5510               1AZ
106569000106569               106569               170213JA     1400+00000+JA0000002630+0000002630+000000000+000000369+0000002990+0000000009+I20000000000+0000002990+Z
106569001106569077-000270     106569006003000395453GIFT-BAG PPR JMB 33X45 0000001000+00002630+00000+0001T   00002630+0000001632          1400 DO5112               1AZ
106570000106570               106570               170213JA     1400+00000+JA0000002630+0000002630+000000000+000000369+0000002990+0000000009+I20000000000+0000002990+Z
106570001106570366-002101     106570006003000617715DRESS UP MASK LIGHT UP 0000001000+00002630+00000+0001T   00002630+0000001632          1400 DO5131               1AZ
106571000106571               106571               170213JA     1400+00000+JA0000002630+0000002630+000000000+000000369+0000002990+0000000009+I20000000000+0000002990+Z
106571001106571018-000129     106571006001023403353MUG OCC. LOVE V-SHAPE  0000001000+00002630+00000+0001T   00002630+0000001635          1400 DO5515               1AZ
106572000106572               106572               170213JA     1400+00000+JA0000007541+0000007541+000000000+000001057+0000008598+0000000000+I40000008598+0000000000+Z
106572001106572368-000175     106572006003000270316PLUSH BEAR 4 ASSTD 18CM0000001000+00006139+00000+0001T   00006139+0000001642          1400 DO5745               1AZ
106572002106572304-001204     106572006001023737984FLOWER OCC. TEDDY/ROSES0000001000+00001402+00000+0001T   00001490+0006471642          1400 DO5510               1AZ
106573000106573               106573               170213JA     1400+00000+JA0000001752+0000001752+000000000+000000246+0000001990+0000000008+I20000000000+0000001990+Z
106573001106573078-000025     106573008887013700064SUPERGLUE 3g 1PCE CARD 0000002000+00000876+00000+0001T   00000876+0000001642          1400 DO5810               1AZ
106574000106574               106574               170213JA     1400+00000+JA0000001578+0000001578+000000000+000000221+0000001790+0000000009+I20000000000+0000001790+Z
106574001106574080-000124     106574006003000297733CARD & ENV VALENTINES  0000001000+00001578+00000+0001T   00001578+0000001642          1400 DO5112               1AZ
106575000106575               106575               170213JA     1400+00000+JA0000003945+0000003945+000000000+000000553+0000004490+0000000008+I20000000000+0000004490+Z
106575001106575089-060027     106575006003000245871KEY-CHAIN HEART 6X6cm  0000001000+00003069+00000+0001T   00003069+0000001650          1400 DO5205               1AZ
106575002106575903-000482     106575006001704001397SWT SOFT-MINTS 60G     0000001000+00000876+00000+0001T   00000876+0000001650          1400 DO5150               1AZ
106576000106576               106576               170213JA     1400+00000+JA0000004822+0000004822+000000000+000000676+0000005490+0000000008+I20000000000+0000005490+Z
106576001106576089-060027     106576006003000245871KEY-CHAIN HEART 6X6cm  0000001000+00003069+00000+0001T   00003069+0000001652          1400 DO5205               1AZ
106576002106576080-000113     106576006003000237449CARD&ENVLPE - LOVE     0000001000+00001753+00000+0001T   00001753+0000001652          1400 DO5112               1AZ
106577000106577               106577               170213JA     1400+00000+JA0000001820-0000000000+000000000+000000000+0000001820-0000000000+I20000000000+0000001820-Z
106577001106577001-999909     106577000000000999909STAFF-REFRESHMENTS     0000001000-00001820+00000+0001X   00000000+0000001653          0000 DO59091IC            1 Z
106578000106578               106578               170213JA     1400+00000+JA0000003069+0000003069+000000000+000000430+0000003490+0000000009+I20000000000+0000003490+Z
106578001106578567-014135     106578006003000560264BOOK COLOURING 240P    0000001000+00003069+00000+0001T   00003507+0008191654          1400 DO5757               1AZ
106579000106579               106579               170213JA     1400+00000+JA0000002630+0000002630+000000000+000000369+0000002990+0000000009+I20000000000+0000002990+Z
106579001106579079-000282     106579006001023493309PAINT TUBS POSTER 12COL0000001000+00002630+00000+0001T   00002630+0000001700          1400 DO5130               1AZ
106580000106580               106580               170213JA     1400+00000+JA0000014160+0000014160+000000000+000001985+0000016140+0000000005+I20000000000+0000016140+Z
106580001106580112-116069     106580006009681820277TCS CARRIER BAG JUMBO  0000001000+00000048+00000+0001T   00000048+0000001701          1400 DO5090               1AZ
106580002106580018-030000     106580006003000421060MUG OCCASIONS LOVE 2PCE0000001000+00004385+00000+0001T   00004385+0000001701          1400 DO5515               1AZ
106580003106580903-003080     106580005907029004673SWT SNACK STIX CHOC 50g0000001000+00000876+00000+0001T   00000876+0000001701          1400 DO5150               1AZ
106580004106580903-000519     106580006001704012805SWT MS LIQ-O-GHETTI    0000001000+00001227+00000+0001T   00001227+0000001701          1400 DO5150               1AZ
106580005106580903-000120     106580006002099001665SWEET GS ZILLIONS 50g  0000001000+00000700+00000+0001T   00000700+0000001701          1400 DO5150               1AZ
106580006106580077-000311     106580006001023608666GIFT-BAG 11X14CM GLOSS 0000001000+00000613+00000+0001T   00000613+0000001701          1400 DO5112               1AZ
106580007106580903-000087     106580006001704000161SWT SPECKLED-EGGS 50G  0000001000+00001139+00000+0001T   00001139+0000001701          1400 DO5150               1AZ
106580008106580903-000518     106580006001704012782SWT STRAWS S/BERRY 100g0000001000+00001227+00000+0001T   00001227+0000001701          1400 DO5150               1AZ
106580009106580007-000230     106580006001023995315LABELS STICK-ON STARS  0000001000+00001753+00000+0001T   00001753+0000001701          1400 DO5130               1AZ
106580010106580566-000950     106580006003000216048STICKERS 3 STYLES 100PC0000001000+00002192+00000+0001T   00002192+0000001701          1400 DO5130               1AZ
106581000106581               106581               170213JA     1400+00000+JA0000001578+0000001578+000000000+000000221+0000001790+0000000009+I20000000000+0000001790+Z
106581001106581080-000124     106581006003000297733CARD & ENV VALENTINES  0000001000+00001578+00000+0001T   00001578+0000001702          1400 DO5112               1AZ
106582000106582               106582               170213JA     1400+00000+JA0000003507+0000003507+000000000+000000491+0000003990+0000000008+I20000000000+0000003990+Z
106582001106582018-000136     106582006001023659026MUG OCC LOVE W/PLUSH   0000001000+00003507+00000+0001T   00003507+0000001702          1400 DO5515               1AZ
106583000106583               106583               170213JA     1400+00000+JA0000001753+0000001753+000000000+000000246+0000001990+0000000009+I20000000000+0000001990+Z
106583001106583903-000918     106583006009802868522SWEET GUM TAPE H/KITTY 0000001000+00001753+00000+0001T   00001753+0000001704          1400 DO5150               1AZ
106584000106584               106584               170213JA     1400+00000+JA0000002629+0000002629+000000000+000000369+0000002998+0000000000+I40000002998+0000000000+Z
106584001106584077-000299     106584006003000395576G/BAG 32x25cm LRG LOVE 0000001000+00001490+00000+0001T   00001490+0000001705          1400 DO5112               1AZ
106584002106584903-000087     106584006001704000161SWT SPECKLED-EGGS 50G  0000001000+00001139+00000+0001T   00001139+0000001705          1400 DO5150               1AZ
106585000106585               106585               170213JA     1400+00000+JA0000019732+0000019732+000000000+000002764+0000022496+0000000000+I40000022496+0000000000+Z
106585001106585072-020237     106585006003000623402PET BED COTTON TEXTILE 0000001000+00017542+00000+0001T   00017542+0000001707          1400 DO5870               1AZ
106585002106585903-000918     106585006009802868522SWEET GUM TAPE H/KITTY 0000001000+00001753+00000+0001T   00001753+0000001707          1400 DO5150               1AZ
106585003106585080-000133-A   106585006003000647019MINI VALENTINES CARD   0000001000+00000437+00000+0001T   00000437+0000001707          1400 DO5112               1AZ
106586000106586               106586               170213JA     1400+00000+JA0000005260+0000005260+000000000+000000738+0000005998+0000000000+I40000005998+0000000000+Z
106586001106586077-000270     106586006003000395453GIFT-BAG PPR JMB 33X45 0000001000+00002630+00000+0001T   00002630+0000001709          1400 DO5112               1AZ
106586002106586018-000129     106586006001023403353MUG OCC. LOVE V-SHAPE  0000001000+00002630+00000+0001T   00002630+0000001709          1400 DO5515               1AZ
106587000106587               106587               170213JA     1400+00000+JA0000011048+0000011048+000000000+000001547+0000012590+0000000005+I20000000000+0000012590+Z
106587001106587077-000303     106587006001023593757GIFT-BAG PAPER MED     0000002000+00001578+00000+0001T   00001578+0000001711          1400 DO5112               1AZ
106587002106587018-030000     106587006003000421060MUG OCCASIONS LOVE 2PCE0000001000+00004385+00000+0001T   00004385+0000001711          1400 DO5515               1AZ
106587003106587018-005009     106587006001023725608MUG W/PLUSH-BEAR LOVE  0000001000+00003507+00000+0001T   00003507+0000001711          1400 DO5515               1AZ
106588000106588               106588               170213JA     1400+00000+JA0000005643+0000005643+000000000+000000793+0000006436+0000000000+I40000006436+0000000000+Z
106588001106588304-001204     106588006001023737984FLOWER OCC. TEDDY/ROSES0000004000+00001402+00000+0001T   00001490+0006471715          1400 DO5510               1AZ
106588002106588112-116038     106588006009681820246TCS CARRIER BAG MIDI   0000001000+00000035+00000+0001T   00000035+0000001715          1400 DO5090               1AZ
106589000106589               106589               170213JA     1400+00000+JA0000002326+0000002326+000000000+000000327+0000002650+0000000003+I20000000000+0000002650+Z
106589001106589304-001204     106589006001023737984FLOWER OCC. TEDDY/ROSES0000001000+00001402+00000+0001T   00001490+0006471716          1400 DO5510               1AZ
106589002106589077-000151     106589006008766114676GIFT-WRAP C/PHANE ASSTD0000001000+00000876+00000+0001T   00000876+0000001716          1400 DO5112               1AZ
106589003106589112-116069     106589006009681820277TCS CARRIER BAG JUMBO  0000001000+00000048+00000+0001T   00000048+0000001716          1400 DO5090               1AZ
106590000106590               106590               170213JA     1400+00000+JA0000005120+0000005120+000000000+000000717+0000005830+0000000007+I20000000000+0000005830+Z
106590001106590077-000303     106590006001023593757GIFT-BAG PAPER MED     0000001000+00001578+00000+0001T   00001578+0000001720          1400 DO5112               1DZ
106590002106590018-000136     106590006001023659026MUG OCC LOVE W/PLUSH   0000001000+00003507+00000+0001T   00003507+0000001720          1400 DO5515               1DZ
106590003106590112-116038     106590006009681820246TCS CARRIER BAG MIDI   0000001000+00000035+00000+0001T   00000035+0000001720          1400 DO5090               1DZ
106591000106591               106591               170213JA     1400+00000+JA0000002192+0000002192+000000000+000000307+0000002490+0000000009+I20000000000+0000002490+Z
106591001106591047-005126     106591006001023451255CABLETIES 100/150/200mm0000001000+00002192+00000+0001T   00002192+0000001721          1400 DO5880               1DZ
106592000106592               106592               170213JA     1400+00000+JA0000010213+0000010213+000000000+000001434+0000011640+0000000007+I20000000000+0000011640+Z
106592001106592112-116069     106592006009681820277TCS CARRIER BAG JUMBO  0000001000+00000048+00000+0001T   00000048+0000001725          1400 DO5090               1AZ
106592002106592077-000305     106592006003000395422GIFT-BAG WINE 10X35CM  0000001000+00001490+00000+0001T   00001490+0000001725          1400 DO5112               1AZ
106592003106592018-005009     106592006001023725608MUG W/PLUSH-BEAR LOVE  0000001000+00003507+00000+0001T   00003507+0000001725          1400 DO5515               1AZ
106592004106592304-001204     106592006001023737984FLOWER OCC. TEDDY/ROSES0000002000+00001402+00000+0001T   00001490+0006471725          1400 DO5510               1AZ
106592005106592077-000299     106592006003000395576G/BAG 32x25cm LRG LOVE 0000001000+00001490+00000+0001T   00001490+0000001725          1400 DO5112               1AZ
106592006106592080-000133-A   106592006003000647019MINI VALENTINES CARD   0000002000+00000437+00000+0001T   00000437+0000001725          1400 DO5112               1AZ
106593000106593               106593               170213JA     1400+00000+JA0000000874+0000000874+000000000+000000124+0000000990+0000000008+I20000000000+0000000990+Z
106593001106593007-000203     106593006009685850409FILE DISPLAY FLDR ASSTD0000002000+00000437+00000+0001T   00000437+0000001727          1400 DO5130               1AZ
106594000106594               106594               170213JA     1400+00000+JA0000004908+0000004908+000000000+000000688+0000005590+0000000006+I20000000000+0000005590+Z
106594001106594903-000518     106594006001704012782SWT STRAWS S/BERRY 100g0000002000+00001227+00000+0001T   00001227+0000001736          1400 DO5150               1AZ
106594002106594903-000517     106594006001704012768SWT STRAWS FIZZY CHERRY0000002000+00001227+00000+0001T   00001227+0000001736          1400 DO5150               1AZ
106595000106595               106595               170213JA     1400+00000+JA0000005908+0000005908+000000000+000000828+0000006730+0000000006+I20000000000+0000006730+Z
106595001106595031-005820     106595006001023667816P/FRAME-CLIP 15X20CM   0000001000+00001753+00000+0001T   00001753+0000001737          1400 DO5510               1AZ
106595002106595903-000848     106595008692806080076SWT SNACK BISCUIT 70g  0000001000+00000613+00000+0001T   00000613+0000001737          1400 DO5150               1AZ
106595003106595018-005009     106595006001023725608MUG W/PLUSH-BEAR LOVE  0000001000+00003507+00000+0001T   00003507+0000001737          1400 DO5515               1AZ
106595004106595112-116038     106595006009681820246TCS CARRIER BAG MIDI   0000001000+00000035+00000+0001T   00000035+0000001737          1400 DO5090               1AZ
106596000106596               106596               170213JA     1400+00000+JA0000018154+0000018154+000000000+000002543+0000020697+0000000000+I40000020697+0000000000+Z
106596001106596030-000031-A   106596006003000457588PLAQUE W/WORDS ASSTD   0000001000+00004385+00000+0001T   00004823+0006471740          1400 DO5505               1AZ
106596002106596368-000111     106596006001023780812PLUSH BEAR/DOG 29CM    0000001000+00012279+00000+0001T   00012279+0000001740          1400 DO5745               1AZ
106596003106596077-000299     106596006003000395576G/BAG 32x25cm LRG LOVE 0000001000+00001490+00000+0001T   00001490+0000001740          1400 DO5112               1AZ
106597000106597               106597               170213JA     1400+00000+JA0000004385+0000004385+000000000+000000614+0000004990+0000000009+I20000000000+0000004990+Z
106597001106597031-080508     106597006001023802415P/FRAME PL 22X11CM LOVE0000001000+00004385+00000+0001T   00004385+0000001741          1400 DO5510               1AZ
106598000106598               106598               170213JA     1400+00000+JA0000007015+0000007015+000000000+000000983+0000007990+0000000008+I20000000000+0000007990+Z
106598001106598174-000004     106598006003000583317SHOE BAG 9-POCKETS     0000001000+00005262+00000+0001T   00005262+0000001748          1400 DO5205               1AZ
106598002106598251-000032     106598006001023515841MASKING-TAPE 36mmx40m  0000001000+00001753+00000+0001T   00001753+0000001748          1400 DO5810               1AZ
106599000106599               106599               170213JA     1400+00000+JA0000000613+0000000613+000000000+000000086+0000000690+0000000009+I20000000000+0000000690+Z
106599001106599089-000021     106599006009697230923KEY CHAIN ID           0000001000+00000613+00000+0001T   00000613+0000001749          1400 DO5205               1AZ
106600000106600               106600               170213JA     1400+00000+JA0000007486+0000007486+000000000+000001049+0000008530+0000000005+I20000000000+0000008530+Z
106600001106600112-116038     106600006009681820246TCS CARRIER BAG MIDI   0000001000+00000035+00000+0001T   00000035+0000001755          1400 DO5090               1AZ
106600002106600018-000130     106600006001023867537MUG OCC LOVE MINI+HEART0000001000+00003507+00000+0001T   00003507+0000001755          1400 DO5515               1AZ
106600003106600018-000170     106600006001023775528MUG OCC. LOVE 2PC MINI 0000001000+00002192+00000+0001T   00002192+0000001755          1400 DO5515               1AZ
106600004106600077-000302     106600008010410010195GIFT-BAG 18X23CM E/D   0000002000+00000876+00000+0001T   00000876+0000001755          1400 DO5112               1AZ
106601000106601               106601               170213JA     1400+00000+JA0000005085+0000005085+000000000+000000712+0000005790+0000000007+I20000000000+0000005790+Z
106601002106601103-000472     106601006003000631049FLOWER BASKET W/HANDLE 0000001000+00003507+00000+0001T   00003507+0000001757          1400 DO5300               1AZ
106601003106601080-000124     106601006003000297733CARD & ENV VALENTINES  0000001000+00001578+00000+0001T   00001578+0000001757          1400 DO5112               1AZ
A17021300                                          09085665JASLAVE 1                       DO53IC
A17021301                                          10130341JASLAVE 1                       DO53IC
A17021302                                          15104302JASLAVE 1                       DO53IC
A17021303                                          15200891JASLAVE 1                       DO52IC
C10660100                                          170213JA080-000133-A   17572615SLAVE 1     DO52IC0000000000+0000000000+0010000001000+
M17021301                              IT          JAATT GLADWYN                                     LAST DOCKET 106601                              FROM PARYS JA                                                                                   THANX
M17021391                              CASH        JASLAVE 1                       Z-REPORT No.   634TOTAL (Sales - Refunds)           6610.24       CASH TO BE BANKED                 4456.40       DEBIT CARDS                          0.00       CREDIT CARDS                      2135.64       Z-READING                         6592.04       AIRTIME DEBIT CARD SALES             0.00       AIRTIME CARD SALES                   0.00       OVERS/UNDERS                         0.00       AIRTIME CASH SALES                   0.00       GIFT CARDS                           0.00       GIFT CARD CASH SALES                 0.00       STAFF-REFRESHMENTS                  18.20       T O T A L  CASH PAYOUTS             18.20                                                                                                                                                                                                                                                                                                      Z
M17021392                              CASH        JAABSENT                                                                                                                                                                                          ANNUAL LEAVE                                                                                                                                                                                    DAY OFF                                                                                                                                                                                         COMMENTS                                                                                                                                                                                                                                                                                                                                                                                       Z
Y17021300                                          JA00000000580259+000096
ZJA17021319523 SLAVE 1      SALES DATA                     NEXT INVOICE NO.  106602 0634
X JA Slave 1 First invoice 106505 170213 Last invoice 106601 170213 Next invoice 106602 Total number of records 000000346 clbackup completed 19:52:25
