114625000114625               114625               170213JA     1400+00000+JA0000007890+0000007890+000000000+000001107+0000008990+0000000007+I20000000000+0000008990+Z
114625001114625105-006004     114625006002580007763CANNISTER 3PCE    250ml0000003000+00002630+00000+0001T   00002630+0000000857          1400 AT5210               2AZ
114626000114626               114626               170213JA     1400+00000+JA0000003507+0000003507+000000000+000000491+0000003990+0000000008+I20000000000+0000003990+Z
114626001114626562-000011     114626006003000600984PLAY DOUGH NEON TUBE   0000001000+00003507+00000+0001T   00003507+0000000859          1400 AT5755               2AZ
114627000114627               114627               170213JA     1400+00000+JA0000004385+0000004385+000000000+000000614+0000004990+0000000009+I20000000000+0000004990+Z
114627001114627082-096628     114627006001492966281SUNGLASS LDS PLASTIC   0000001000+00004385+00000+0001T   00004385+0000000940          1400 AT5160               2AZ
114628000114628               114628               170213JA     1400+00000+JA0000001227+0000001227+000000000+000000172+0000001390+0000000009+I20000000000+0000001390+Z
114628001114628071-081091     114628006001151010287STAED/GENKEM ALL-STICK 0000001000+00001227+00000+0001T   00001227+0000001001          1400 AT5130               2AZ
114629000114629               114629               170213JA     1400+00000+JA0000013192+0000013192+000000000+000001847+0000015030+0000000009+I20000000000+0000015030+Z
114629001114629496-057100     114629000078257571000INTEX POOL BABY PLAY   0000001000+00013157+00000+0001T   00013157+0000001012          1400 AT5787               2AZ
114629002114629112-116038     114629006009681820246TCS CARRIER BAG MIDI   0000001000+00000035+00000+0001T   00000035+0000001012          1400 AT5090               2AZ
114630000114630               114630               170213JA     1400+00000+JA0000015788+0000015788+000000000+000002211+0000017990+0000000009+I20000000000+0000017990+Z
114630001114630490-049602     114630000078257496020FUN-BALLS 100PCE 6.5CM 0000001000+00015788+00000+0001T   00015788+0000001028          1400 AT5787               2AZ
114631000114631               114631               170213JA     1400+00000+JA0000007925+0000007925+000000000+000001111+0000009036+0000000000+I40000009036+0000000000+Z
114631001114631560-000104     114631006001023747037ANIMALS WILD IN-TUBE   0000001000+00003507+00000+0001T   00003507+0000001033          1400 AT5745               2AZ
114631002114631065-006041     114631006001023712974TAMBOURINE 15cm P/BAND 0000001000+00001753+00000+0001T   00001753+0000001033          1400 AT5745               2AZ
114631003114631365-008629     114631006001023494009PLAY C/PHONE B/O MUSIC 0000001000+00002630+00000+0001T   00002630+0000001033          1400 AT5725               2AZ
114631004114631112-116038     114631006009681820246TCS CARRIER BAG MIDI   0000001000+00000035+00000+0001T   00000035+0000001033          1400 AT5090               2AZ
114632000114632               114632               170213JA     1400+00000+JA0000005434+0000005434+000000000+000000762+0000006190+0000000006+I20000000000+0000006190+Z
114632001114632077-000303     114632006001023593757GIFT-BAG PAPER MED     0000002000+00001578+00000+0001T   00001578+0000001039          1400 AT5112               2AZ
114632002114632903-000087     114632006001704000161SWT SPECKLED-EGGS 50G  0000002000+00001139+00000+0001T   00001139+0000001039          1400 AT5150               2AZ
114633000114633               114633               170213JA     1400+00000+JA0000001445+0000001445+000000000+000000203+0000001640+0000000008+I20000000000+0000001640+Z
114633001114633006-000170-L   114633006003000637614BALLOONS 1PC ROYAL BLUE0000001000+00000218+00000+0001T   00000218+0000001045          1400 AT5131               2AZ
114633002114633903-000517     114633006001704012768SWT STRAWS FIZZY CHERRY0000001000+00001227+00000+0001T   00001227+0000001045          1400 AT5150               2AZ
114634000114634               114634               170213JA     1400+00000+JA0000001402+0000001402+000000000+000000197+0000001590+0000000009+I20000000000+0000001590+Z
114634001114634304-001204     114634006001023737984FLOWER OCC. TEDDY/ROSES0000001000+00001402+00000+0001T   00001490+0006471048          1400 AT5510               2AZ
114635000114635               114635               170213JA     1400+00000+JA0000000048+0000000048+000000000+000000007+0000000050+0000000005+I20000000000+0000000050+Z
114635001114635112-116069     114635006009681820277TCS CARRIER BAG JUMBO  0000001000+00000048+00000+0001T   00000048+0000001049          1400 AT5090               2AZ
114636000114636               114636               170213JA     1400+00000+JA0000001400+0000001400+000000000+000000196+0000001590+0000000006+I20000000000+0000001590+Z
114636001114636903-000126     114636006002099003591SWT ZILLIONS MINT 50G  0000001000+00000700+00000+0001T   00000700+0000001051          1400 AT5150               2AZ
114636002114636903-000121     114636006002099001689SWT GS ZILLIONS SOURS  0000001000+00000700+00000+0001T   00000700+0000001051          1400 AT5150               2AZ
114637000114637               114637               170213JA     1400+00000+JA0000000437+0000000437+000000000+000000062+0000000490+0000000009+I20000000000+0000000490+Z
114637001114637007-000203     114637006009685850409FILE DISPLAY FLDR ASSTD0000001000+00000437+00000+0001T   00000437+0000001100          1400 AT5130               2AZ
114638000114638               114638               170213JA     1400+00000+JA0000006139+0000006139+000000000+000000860+0000006999+0000000000+I40000006999+0000000000+Z
114638001114638031-086280     114638006001023862969P/FRAME A4 AND COLLAGE 0000001000+00006139+00000+0001T   00006139+0000001111          1400 AT5510               2AZ
114639000114639               114639               170213JA     1400+00000+JA0000009207+0000009207+000000000+000001290+0000010490+0000000007+I20000000000+0000010490+Z
114639001114639079-013032-J   114639006003000542710A&C DIY COLOUR P/FLOWER0000001000+00001753+00000+0001T   00001753+0000001112          1400 AT5130               2AZ
114639002114639003-009110     114639006003000675395ORN SIGN INSPIRATIONAL 0000001000+00003069+00000+0001T   00003069+0000001112          1400 AT5505               2AZ
114639003114639003-009200     114639006003000407675O/ANIMALS 3-ASS W/FLWER0000001000+00004385+00000+0001T   00004385+0000001112          1400 AT5505               2AZ
114640000114640               114640               170213JA     1400+00000+JA0000012360+0000012360+000000000+000001732+0000014092+0000000000+I40000014092+0000000000+Z
114640001114640039-000319-5   114640006003000442867B/CANDLES LRG NUMBER-5 0000001000+00000876+00000+0001T   00000876+0000001115          1400 AT5510               2AZ
114640002114640567-011416     114640009780755497829BK STICKER MINI ASSTD  0000001000+00001753+00000+0001T   00002630+0008141115          1400 AT5757               2AZ
114640003114640567-010159     114640006003000484881BOOK TOP ASSTD CHILDREN0000001000+00003507+00000+0001T   00003507+0000001115          1400 AT5757               2AZ
114640004114640077-000319     114640006001023609779GIFT-BAG 18X23CM BIRTHD0000001000+00001227+00000+0001T   00001227+0000001115          1400 AT5112               2AZ
114640005114640567-011443     114640009781847506719BK PUZZLE WORDSEARCH   0000001000+00003507+00000+0001T   00003507+0000001115          1400 AT5757               2AZ
114640006114640077-000327     114640006001023677686GIFT-BAG 25X32CM E/D BA0000001000+00001490+00000+0001T   00001490+0000001115          1400 AT5112               2AZ
114641000114641               114641               170213JA     1400+00000+JA0000008771+0000008771+000000000+000001228+0000009999+0000000000+I40000009999+0000000000+Z
114641001114641469-000301     114641006003000128167B/BLOCKS 22PC SMALL    0000001000+00008771+00000+0001T   00008771+0000001116          1400 AT5755               2AZ
114642000114642               114642               170213JA     1400+00000+JA0000002103+0000002103+000000000+000000295+0000002390+0000000008+I20000000000+0000002390+Z
114642001114642903-000087     114642006001704000161SWT SPECKLED-EGGS 50G  0000001000+00001139+00000+0001T   00001139+0000001123          1400 AT5150               2AZ
114642002114642903-004962     114642008410525221880SWT FINI BLCK/RED 50g  0000001000+00000964+00000+0001T   00000964+0000001123          1400 AT5150               2AZ
114643000114643               114643               170213JA     1400+00000+JA0000003507+0000003507+000000000+000000491+0000003990+0000000008+I20000000000+0000003990+Z
114643001114643002-001676     114643006001023110183SIMMER-PLATE WDN-HANDL 0000001000+00003507+00000+0001T   00003507+0000001124          1400 AT5300               2AZ
114644000114644               114644               170213JA     1400+00000+JA0000008184+0000008184+000000000+000001150+0000009334+0000000000+I40000009334+0000000000+Z
114644001114644080-000139     114644006003000611690CARD & ENV MINI SET 6PC0000001000+00002192+00000+0001T   00002192+0000001126          1400 AT5112               2AZ
114644002114644368-000049     114644006003000536955PLUSH BEAR 15cm LOVE   0000001000+00004385+00000+0001T   00004385+0000001126          1400 AT5745               2AZ
114644003114644903-000183     114644006003000451043SWT LB HEART LOLLY     0000004000+00000393+00000+0001T   00000393+0000001126          1400 AT5150               2AZ
114644004114644112-116038     114644006009681820246TCS CARRIER BAG MIDI   0000001000+00000035+00000+0001T   00000035+0000001126          1400 AT5090               2AZ
114645000114645               114645               170213JA     1400+00000+JA0000006516+0000006516+000000000+000000917+0000007433+0000000000+I40000007433+0000000000+Z
114645001114645903-000014     114645006003000691029SWT MIKE N IKE ORIG 23G0000002000+00001051+00000+0001T   00001051+0000001128          1400 AT5150               2AZ
114645002114645077-000383     114645006003000247943GIFT-BAG 11X14CM S/COL 0000004000+00000788+00000+0001T   00000788+0000001128          1400 AT5112               2AZ
114645003114645903-000518     114645006001704012782SWT STRAWS S/BERRY 100g0000001000+00001227+00000+0001T   00001227+0000001128          1400 AT5150               2AZ
114645004114645112-116038     114645006009681820246TCS CARRIER BAG MIDI   0000001000+00000035+00000+0001T   00000035+0000001128          1400 AT5090               2AZ
114646000114646               114646               170213JA     1400+00000+JA0000002927+0000002927+000000000+000000410+0000003337+0000000000+I40000003337+0000000000+Z
114646001114646077-000303     114646006001023593757GIFT-BAG PAPER MED     0000001000+00001578+00000+0001T   00001578+0000001130          1400 AT5112               2AZ
114646002114646903-000844     114646005010478432567SWT CANDY DL LUV HEARTS0000001000+00001314+00000+0001T   00001314+0000001130          1400 AT5150               2AZ
114646003114646112-116038     114646006009681820246TCS CARRIER BAG MIDI   0000001000+00000035+00000+0001T   00000035+0000001130          1400 AT5090               2AZ
114647000114647               114647               170213JA     1400+00000+JA0000001753+0000001753+000000000+000000246+0000001990+0000000009+I20000000000+0000001990+Z
114647002114647077-000299-A   114647006003000670888GIFT-BAG PAPER JMB LOVE0000001000+00001753+00000+0001T   00001753+0000001136          1400 AT5112               2AZ
114648000114648               114648               170213JA     1400+00000+JA0000019320+0000019320+000000000+000002710+0000022030+0000000000+I40000022030+0000000000+Z
114648001114648072-000014     114648006003000451845PET DOG/CAT BRUSH 20cm 0000001000+00003069+00000+0001T   00003069+0000001143          1400 AT5870               2AZ
114648002114648301-085006     114648006001023502940ORN LOVE MSG TUBE W/HRT0000004000+00001753+00000+0001T   00001753+0000001143          1400 AT5505               2AZ
114648003114648088-000008     114648006003000623181AIR FRESHENER GEL ASSTD0000002000+00002630+00000+0001T   00002630+0000001143          1400 AT5212               2AZ
114648004114648018-005009     114648006001023725608MUG W/PLUSH-BEAR LOVE  0000001000+00003507+00000+0001T   00003507+0000001143          1400 AT5515               2AZ
114648005114648080-000133-A   114648006003000647019MINI VALENTINES CARD   0000001000+00000437+00000+0001T   00000437+0000001143          1400 AT5112               2AZ
114648006114648112-116038     114648006009681820246TCS CARRIER BAG MIDI   0000001000+00000035+00000+0001T   00000035+0000001143          1400 AT5090               2AZ
114649000114649               114649               170213JA     1400+00000+JA0000007016+0000007016+000000000+000000983+0000007990+0000000009+I20000000000+0000007990+Z
114649001114649562-000049     114649006003000478040DOUGH B/DAY CAKE SET   0000001000+00007016+00000+0001T   00008771+0008141143          1400 AT5755               2AZ
114650000114650               114650               170213JA     1400+00000+JA0000004032+0000004032+000000000+000000565+0000004590+0000000007+I20000000000+0000004590+Z
114650001114650903-000517     114650006001704012768SWT STRAWS FIZZY CHERRY0000001000+00001227+00000+0001T   00001227+0000001144          1400 AT5150               2AZ
114650002114650903-000519     114650006001704012805SWT MS LIQ-O-GHETTI    0000001000+00001227+00000+0001T   00001227+0000001144          1400 AT5150               2AZ
114650003114650077-000303     114650006001023593757GIFT-BAG PAPER MED     0000001000+00001578+00000+0001T   00001578+0000001144          1400 AT5112               2AZ
114651000114651               114651               170213JA     1400+00000+JA0000010084+0000010084+000000000+000001412+0000011496+0000000000+I40000011496+0000000000+Z
114651001114651105-007800     114651006002923018913STORAGE BOX CLEAR 5.5L 0000001000+00003507+00000+0001T   00003507+0000001150          1400 AT5210               2AZ
114651002114651105-007052     114651006003000614639CEREAL STORER 3.6L     0000001000+00004385+00000+0001T   00004385+0000001150          1400 AT5210               2AZ
114651003114651077-000309-A   114651006003000671007GIFT-BAG HOLOGRAM JMB  0000001000+00002192+00000+0001T   00002192+0000001150          1400 AT5112               2AZ
114652000114652               114652               170213JA     1400+00000+JA0000012001+0000012001+000000000+000001686+0000013680+0000000007+I20000000000+0000013680+Z
114652001114652080-000142     114652006003000662456CARD & ENV GIANT AFRI  0000001000+00002630+00000+0001T   00002630+0000001207          1400 AT5112               2AZ
114652002114652006-000172-A   114652006003000609765BALLOONS METALLIC PINK 0000003000+00000218+00000+0001T   00000218+0000001207          1400 AT5131               2AZ
114652003114652006-001000     114652006003000093779HELIUM BALLOON FILL    0000004000+00000613+00000+0001T   00000613+0000001207          1400 AT5131               2AZ
114652004114652006-000172-A   114652006003000609765BALLOONS METALLIC PINK 0000001000+00000218+00000+0001T   00000218+0000001207          1400 AT5131               2AZ
114652005114652563-000317-G   114652006001023776341SERVIETTES BRIGHT ASSTD0000001000+00002630+00000+0001T   00002630+0000001207          1400 AT5214               2AZ
114652006114652006-000805     114652000013994092418STREAMERS 10-ROLLS     0000001000+00001490+00000+0001T   00001490+0000001207          1400 AT5131               2AZ
114652007114652077-000010-U   114652006001023168863CREPE-PAPER CERISE-PINK0000001000+00000788+00000+0001T   00000788+0000001207          1400 AT5112               2AZ
114652008114652039-000322     114652006001023524157B/CANDLES W/HOLDERS 24 0000001000+00001139+00000+0001T   00001139+0000001207          1400 AT5510               2AZ
114653000114653               114653               170213JA     1400+00000+JA0000002452-0000002452-000000000+000000344-0000002800-0000000004+I20000000000+0000002800-Z
114653001114653006-001000     114653006003000093779HELIUM BALLOON FILL    0000004000-00000613+00000+0001T   00000613+0000001211          1400 AT51312IC            2 Z
114654000114654               114654               170213JA     1400+00000+JA0000009868+0000009868+000000000+000001383+0000011251+0000000000+I40000011251+0000000000+Z
114654001114654018-000136     114654006001023659026MUG OCC LOVE W/PLUSH   0000001000+00003507+00000+0001T   00003507+0000001213          1400 AT5515               2AZ
114654002114654301-085001     114654006003000297610ORN WATERBALL LOVE ASST0000001000+00004823+00000+0001T   00004823+0000001213          1400 AT5505               2AZ
114654003114654077-000299     114654006003000395576G/BAG 32x25cm LRG LOVE 0000001000+00001490+00000+0001T   00001490+0000001213          1400 AT5112               2AZ
114654004114654112-116069     114654006009681820277TCS CARRIER BAG JUMBO  0000001000+00000048+00000+0001T   00000048+0000001213          1400 AT5090               2AZ
114655000114655               114655               170213JA     1400+00000+JA0000005259+0000005259+000000000+000000738+0000005990+0000000007+I20000000000+0000005990+Z
114655001114655079-006500     114655006001023557186GLUE GLITTER 6/10 PCE  0000003000+00001753+00000+0001T   00001753+0000001215          1400 AT5130               2AZ
114656000114656               114656               170213JA     1400+00000+JA0000001753+0000001753+000000000+000000246+0000001990+0000000009+I20000000000+0000001990+Z
114656001114656079-006500     114656006001023557186GLUE GLITTER 6/10 PCE  0000001000+00001753+00000+0001T   00001753+0000001216          1400 AT5130               2AZ
114657000114657               114657               170213JA     1400+00000+JA0000036274+0000036274+000000000+000005092+0000041360+0000000006+I20000000000+0000041360+Z
114657001114657486-010000     114657006003000283248C/WALL QTZ PL ANTIQUE  0000001000+00024560+00000+0001T   00024560+0000001249          1400 AT5510               2AZ
114657002114657903-000183     114657006003000451043SWT LB HEART LOLLY     0000013000+00000393+00000+0001T   00000393+0000001249          1400 AT5150               2AZ
114657003114657903-000844     114657005010478432567SWT CANDY DL LUV HEARTS0000004000+00001314+00000+0001T   00001314+0000001249          1400 AT5150               2AZ
114657004114657903-000194     114657006009826020616SWT CHOC RP LOLLY 25G  0000001000+00001314+00000+0001T   00001314+0000001249          1400 AT5150               2AZ
114657005114657112-116038     114657006009681820246TCS CARRIER BAG MIDI   0000001000+00000035+00000+0001T   00000035+0000001249          1400 AT5090               2AZ
114658000114658               114658               170213JA     1400+00000+JA0000006139+0000006139+000000000+000000860+0000006990+0000000009+I20000000000+0000006990+Z
114658001114658567-075470     114658009780007795352BK NOVEL CATEGORY B    0000001000+00006139+00000+0001T   00006139+0000001250          1400 AT5757               2AZ
114659000114659               114659               170213JA     1400+00000+JA0000018545+0000018545+000000000+000002599+0000021144+0000000000+I40000021144+0000000000+Z
114659001114659018-005009     114659006001023725608MUG W/PLUSH-BEAR LOVE  0000002000+00003507+00000+0001T   00003507+0000001256          1400 AT5515               2AZ
114659002114659018-030000     114659006003000421060MUG OCCASIONS LOVE 2PCE0000001000+00004385+00000+0001T   00004385+0000001256          1400 AT5515               2AZ
114659003114659080-000133-A   114659006003000647019MINI VALENTINES CARD   0000001000+00000437+00000+0001T   00000437+0000001256          1400 AT5112               2AZ
114659004114659080-000124     114659006003000297733CARD & ENV VALENTINES  0000001000+00001578+00000+0001T   00001578+0000001256          1400 AT5112               2AZ
114659005114659077-000303     114659006001023593757GIFT-BAG PAPER MED     0000002000+00001578+00000+0001T   00001578+0000001256          1400 AT5112               2AZ
114659006114659077-000299     114659006003000395576G/BAG 32x25cm LRG LOVE 0000001000+00001490+00000+0001T   00001490+0000001256          1400 AT5112               2AZ
114659007114659080-000133-A   114659006003000647019MINI VALENTINES CARD   0000001000+00000437+00000+0001T   00000437+0000001256          1400 AT5112               2AZ
114659008114659112-116069     114659006009681820277TCS CARRIER BAG JUMBO  0000001000+00000048+00000+0001T   00000048+0000001256          1400 AT5090               2AZ
114660000114660               114660               170213JA     1400+00000+JA0000001753+0000001753+000000000+000000246+0000001990+0000000009+I20000000000+0000001990+Z
114660001114660046-002032-PK2 114660004897006175063BATTERIES CR-2032  2PCE0000001000+00001753+00000+0001T   00001753+0000001258          1400 AT5312               2AZ
114661000114661               114661               170213JA     1400+00000+JA0000006139+0000006139+000000000+000000860+0000006990+0000000009+I20000000000+0000006990+Z
114661001114661035-000002     114661006002596010542UMBRELLA LADIES PRINTED0000001000+00006139+00000+0001T   00006139+0000001259          1400 AT5205               2AZ
114662000114662               114662               170213JA     1400+00000+JA0000001436+0000001436+000000000+000000202+0000001630+0000000008+I20000000000+0000001630+Z
114662001114662903-000151     114662006009803374411SWT SML RND R/BOW LOLLY0000001000+00000525+00000+0001T   00000525+0000001300          1400 AT5150               2AZ
114662002114662077-000408     114662006003000145218G/BAG PP 15X21X7CM     0000001000+00000876+00000+0001T   00000876+0000001300          1400 AT5112               2AZ
114662003114662112-116038     114662006009681820246TCS CARRIER BAG MIDI   0000001000+00000035+00000+0001T   00000035+0000001300          1400 AT5090               2AZ
114663000114663               114663               170213JA     1400+00000+JA0000002192+0000002192+000000000+000000307+0000002490+0000000009+I20000000000+0000002490+Z
114663001114663041-007001-B   114663006003000636983H/GLOW LIQUID LAVENDER 0000001000+00002192+00000+0001T   00002192+0000001305          1400 AT5200               2AZ
114664000114664               114664               170213JA     1400+00000+JA0000007489+0000007489+000000000+000001049+0000008530+0000000008+I20000000000+0000008530+Z
114664001114664006-000190     114664006003000685530BALLOONS LOVE 81x91cm  0000001000+00004385+00000+0001T   00004385+0000001306          1400 AT5131               2AZ
114664002114664301-085008     114664006003000673933ORN OCC.LOVE TINSEL HRT0000001000+00003069+00000+0001T   00003069+0000001306          1400 AT5505               2AZ
114664003114664112-116038     114664006009681820246TCS CARRIER BAG MIDI   0000001000+00000035+00000+0001T   00000035+0000001306          1400 AT5090               2AZ
114665000114665               114665               170213JA     1400+00000+JA0000002452+0000002452+000000000+000000345+0000002797+0000000000+I40000002797+0000000000+Z
114665001114665080-000133-A   114665006003000647019MINI VALENTINES CARD   0000002000+00000437+00000+0001T   00000437+0000001312          1400 AT5112               2AZ
114665002114665018-000127     114665006001023380289MUG OCC STRAIGHT LOVE  0000001000+00001578+00000+0001T   00001753+0006471312          1400 AT5515               2AZ
114666000114666               114666               170213JA     1400+00000+JA0000001139+0000001139+000000000+000000160+0000001290+0000000009+I20000000000+0000001290+Z
114666001114666903-000087     114666006001704000161SWT SPECKLED-EGGS 50G  0000001000+00001139+00000+0001T   00001139+0000001313          1400 AT5150               2AZ
114667000114667               114667               170213JA     1400+00000+JA0000003066+0000003066+000000000+000000431+0000003490+0000000007+I20000000000+0000003490+Z
114667001114667080-000139     114667006003000611690CARD & ENV MINI SET 6PC0000001000+00002192+00000+0001T   00002192+0000001313          1400 AT5112               2AZ
114667002114667080-000133-A   114667006003000647019MINI VALENTINES CARD   0000001000+00000437+00000+0001T   00000437+0000001313          1400 AT5112               2AZ
114667003114667080-000133     114667006003000535613CARD&ENV MINI ASTD DSGN0000001000+00000437+00000+0001T   00000437+0000001313          1400 AT5112               2AZ
114668000114668               114668               170213JA     1400+00000+JA0000003890+0000003890+000000000+000000547+0000004430+0000000007+I20000000000+0000004430+Z
114668001114668903-000211     114668006002099001238SWT GS MALLOW ICE CREAM0000001000+00001753+00000+0001T   00001753+0000001314          1400 AT5150               2AZ
114668002114668079-009702-G   114668008427973060787PAPER SIRIO A2 FUSHIA  0000002000+00001051+00000+0001T   00001051+0000001314          1400 AT5130               2AZ
114668003114668112-116038     114668006009681820246TCS CARRIER BAG MIDI   0000001000+00000035+00000+0001T   00000035+0000001314          1400 AT5090               2AZ
114669000114669               114669               170213JA     1400+00000+JA0000022309+0000022309+000000000+000003126+0000025430+0000000005+I20000000000+0000025430+Z
114669001114669301-001123     114669000694202803967ORN FOUNTAIN MEDITATION0000001000+00015788+00000+0001T   00015788+0000001318          1400 AT5505               2AZ
114669002114669006-000102     114669006001023806819BALLOONS W/BOMBS 50PCE 0000002000+00001490+00000+0001T   00001490+0000001318          1400 AT5131               2AZ
114669003114669047-000507     114669006001023684479PLUG-ADAPTOR EURO TWIN 0000002000+00001753+00000+0001T   00001753+0000001318          1400 AT5880               2AZ
114669004114669112-116038     114669006009681820246TCS CARRIER BAG MIDI   0000001000+00000035+00000+0001T   00000035+0000001318          1400 AT5090               2AZ
114670000114670               114670               170213JA     1400+00000+JA0000002225+0000002225+000000000+000000313+0000002530+0000000008+I20000000000+0000002530+Z
114670001114670077-000354     114670006003000139224GIFT-BAG 25X32CM H/MADE0000001000+00001753+00000+0001T   00001753+0000001327          1400 AT5112               2AZ
114670002114670112-116038     114670006009681820246TCS CARRIER BAG MIDI   0000001000+00000035+00000+0001T   00000035+0000001327          1400 AT5090               2AZ
114670003114670080-000133     114670006003000535613CARD&ENV MINI ASTD DSGN0000001000+00000437+00000+0001T   00000437+0000001327          1400 AT5112               2AZ
114671000114671               114671               170213JA     1400+00000+JA0000000876+0000000876+000000000+000000123+0000000990+0000000009+I20000000000+0000000990+Z
114671001114671077-000011-D   114671006001023808554TISSUE-WRAP WHITE 10PCE0000001000+00000876+00000+0001T   00000876+0000001327          1400 AT5112               2AZ
114672000114672               114672               170213JA     1400+00000+JA0000001313+0000001313+000000000+000000185+0000001490+0000000008+I20000000000+0000001490+Z
114672001114672078-000025     114672008887013700064SUPERGLUE 3g 1PCE CARD 0000001000+00000876+00000+0001T   00000876+0000001331          1400 AT5810               2AZ
114672002114672080-000133-A   114672006003000647019MINI VALENTINES CARD   0000001000+00000437+00000+0001T   00000437+0000001331          1400 AT5112               2AZ
114673000114673               114673               170213JA     1400+00000+JA0000012750+0000012750+000000000+000001786+0000014530+0000000006+I20000000000+0000014530+Z
114673001114673072-020261     114673006003000305131PET DOG-CHEW TYRE SMALL0000001000+00002192+00000+0001T   00002192+0000001334          1400 AT5870               2AZ
114673002114673072-020308     114673006001023700971DOG-TOY FOOTBALL 11,5cm0000001000+00001753+00000+0001T   00001753+0000001334          1400 AT5870               2AZ
114673003114673024-000118     114673006001023422316N/STICK C/PAN HEART    0000002000+00004385+00000+0001T   00004385+0000001334          1400 AT5300               2AZ
114673004114673112-116038     114673006009681820246TCS CARRIER BAG MIDI   0000001000+00000035+00000+0001T   00000035+0000001334          1400 AT5090               2AZ
114674000114674               114674               170213JA     1400+00000+JA0000006576+0000006576+000000000+000000921+0000007490+0000000007+I20000000000+0000007490+Z
114674001114674304-001116     114674006003000426164F/BUNCH ROSES 12-HEAD  0000001000+00005262+00000+0001T   00005262+0000001337          1400 AT5510               2AZ
114674002114674046-000012     114674006904708013062BATTERIES AA  CARD-OF-40000001000+00001314+00000+0001T   00001314+0000001337          1400 AT5312               2AZ
114675000114675               114675               170213JA     1400+00000+JA0000001613+0000001613+000000000+000000226+0000001830+0000000009+I20000000000+0000001830+Z
114675001114675018-000127     114675006001023380289MUG OCC STRAIGHT LOVE  0000001000+00001578+00000+0001T   00001753+0006471340          1400 AT5515               2AZ
114675002114675112-116038     114675006009681820246TCS CARRIER BAG MIDI   0000001000+00000035+00000+0001T   00000035+0000001340          1400 AT5090               2AZ
114676000114676               114676               170213JA     1400+00000+JA0000000613+0000000613+000000000+000000086+0000000690+0000000009+I20000000000+0000000690+Z
114676001114676304-001011     114676006001023806727FLWR ROSE RED W/BEAR   0000001000+00000613+00000+0001T   00000788+0006471340          1400 AT5510               2AZ
114677000114677               114677               170213JA     1400+00000+JA0000001227+0000001227+000000000+000000172+0000001390+0000000009+I20000000000+0000001390+Z
114677001114677903-000517     114677006001704012768SWT STRAWS FIZZY CHERRY0000001000+00001227+00000+0001T   00001227+0000001350          1400 AT5150               2AZ
114678000114678               114678               170213JA     1400+00000+JA0000003067+0000003067+000000000+000000430+0000003497+0000000000+I40000003497+0000000000+Z
114678001114678080-000113     114678006003000237449CARD&ENVLPE - LOVE     0000001000+00001753+00000+0001T   00001753+0000001353          1400 AT5112               2AZ
114678002114678077-000407     114678006003000145096G/BAG PP 19X26X8CM     0000001000+00001314+00000+0001T   00001314+0000001353          1400 AT5112               2AZ
114679000114679               114679               170213JA     1400+00000+JA0000001227+0000001227+000000000+000000172+0000001390+0000000009+I20000000000+0000001390+Z
114679001114679903-000510     114679006001704012621SWEET MS ZBDZ S/BERRY  0000001000+00001227+00000+0001T   00001227+0000001354          1400 AT5150               2AZ
114680000114680               114680               170213JA     1400+00000+JA0000002215+0000002215+000000000+000000315+0000002530+0000000000+I20000000000+0000002530+Z
114680001114680006-000171-H   114680006003000609574BALLOONS 1PC RED PRINT 0000010000+00000218+00000+0001T   00000218+0000001401          1400 AT5131               2AZ
114680002114680112-116038     114680006009681820246TCS CARRIER BAG MIDI   0000001000+00000035+00000+0001T   00000035+0000001401          1400 AT5090               2AZ
114681000114681               114681               170213JA     1400+00000+JA0000004418+0000004418+000000000+000000619+0000005037+0000000000+I40000005037+0000000000+Z
114681001114681077-000302     114681008010410010195GIFT-BAG 18X23CM E/D   0000001000+00000876+00000+0001T   00000876+0000001404          1400 AT5112               2DZ
114681002114681018-000130     114681006001023867537MUG OCC LOVE MINI+HEART0000001000+00003507+00000+0001T   00003507+0000001404          1400 AT5515               2DZ
114681003114681112-116038     114681006009681820246TCS CARRIER BAG MIDI   0000001000+00000035+00000+0001T   00000035+0000001404          1400 AT5090               2DZ
114682000114682               114682               170213JA     1400+00000+JA0000003507+0000003507+000000000+000000491+0000003998+0000000000+I40000003998+0000000000+Z
114682001114682159-000643     114682006001023767028BACK-BRUSH ASSTD       0000001000+00003507+00000+0001T   00003507+0000001427          1400 AT5200               2AZ
114683000114683               114683               170213JA     1400+00000+JA0000001524+0000001524+000000000+000000214+0000001730+0000000008+I20000000000+0000001730+Z
114683001114683306-000021     114683006001023169433EARBUDS 100PCE IN BAG  0000001000+00000613+00000+0001T   00000613+0000001428          1400 AT5200               2AZ
114683002114683084-070005     114683006001023627902NAIL FILES 6PCE H/GLOW 0000001000+00000876+00000+0001T   00000876+0000001428          1400 AT5200               2AZ
114683003114683112-116038     114683006009681820246TCS CARRIER BAG MIDI   0000001000+00000035+00000+0001T   00000035+0000001428          1400 AT5090               2AZ
114684000114684               114684               170213JA     1400+00000+JA0000004646+0000004646+000000000+000000651+0000005297+0000000000+I40000005297+0000000000+Z
114684001114684903-000087     114684006001704000161SWT SPECKLED-EGGS 50G  0000001000+00001139+00000+0001T   00001139+0000001438          1400 AT5150               2AZ
114684002114684031-000002-A   114684006003000247103P/FRAME LOVE 7.5X7.5CM 0000001000+00003507+00000+0001T   00003507+0000001438          1400 AT5510               2AZ
A17021300                                          10282996JASLAVE 2                       AT52IC
A17021301                                          11172398JASLAVE 2                       AT52IC
A17021302                                          13302662JASLAVE 2                       AT52IC
C11464700                                          170213JA077-000270     11360355SLAVE 2     AT51IC0000000000+0000000000+0010000001000+
M17021301                              IT          JAATT GLADWYN TROMP                               LAST DOCKET 114684                              PARYS                                           JEONETTE
M17021391                              CASH        JASLAVE 2                       Z-REPORT No.   626TOTAL (Sales - Refunds)           4022.17       CASH TO BE BANKED                 2554.40       DEBIT CARDS                          0.00       CREDIT CARDS                      1467.77       Z-READING                         4022.17       AIRTIME DEBIT CARD SALES             0.00       AIRTIME CARD SALES                   0.00       OVERS/UNDERS                         0.00       AIRTIME CASH SALES                   0.00       GIFT CARDS                           0.00       GIFT CARD CASH SALES                 0.00       T O T A L  CASH PAYOUTS              0.00                                                                                                                                                                                                                                                                                                                                                      Z
M17021392                              CASH        JAABSENT                                                                                                                                                                                          ANNUAL LEAVE                                                                                                                                                                                    DAY OFF                                                                                                                                                                                         COMMENTS                                                                                                                                                                                                                                                                                                                                                                                       Z
Y17021300                                          JA00000000355500+000059
ZJA17021319523 SLAVE 2      SALES DATA                     NEXT INVOICE NO.  114685 0626
X JA Slave 2 First invoice 114625 170213 Last invoice 114684 170213 Next invoice 114685 Total number of records 000000209 clbackup completed 19:52:27
