136210000136210               136210               170213JB     1400+00000+JB0000002192+0000002192+000000000+000000307+0000002490+0000000009+I20000000000+0000002490+Z
136210001136210159-000887     136210006001023730817HOOKS PL SUCTION 9PCE  0000001000+00002192+00000+0001T   00002192+0000000935          1400 BZ9200               1BZ
136211000136211               136211               170213JB     1400+00000+JB0000005817+0000005817+000000000+000000816+0000006630+0000000003+I20000000000+0000006630+Z
136211001136211018-000177     136211006001023797513MUG MINI LOVE ASSTD    0000002000+00000700+00000+0001T   00000700+0000000937          1400 BZ9515               1BZ
136211002136211089-000004     136211006003000137749KEY CHAIN MTL CHARMS   0000001000+00001753+00000+0001T   00001753+0000000937          1400 BZ9205               1BZ
136211003136211024-091102     136211006003453000010BAKING-CUP PAPER 50PC  0000001000+00002192+00000+0001T   00002192+0000000937          1400 BZ9300               1BZ
136211004136211112-116038     136211006003000534906TCS CARRIER BAG MIDI   0000001000+00000035+00000+0001T   00000035+0000000937          1400 BZ9090               1BZ
136211005136211080-000133     136211006003000535613CARD&ENV MINI ASTD DSGN0000001000+00000437+00000+0001T   00000437+0000000937          1400 BZ9112               1BZ
136212000136212               136212               170213JB     1400+00000+JB0000001490+0000001490+000000000+000000209+0000001690+0000000009+I20000000000+0000001690+Z
136212001136212077-000299     136212006003000395576G/BAG 32x25cm LRG LOVE 0000001000+00001490+00000+0001T   00001490+0000000938          1400 BZ9112               1BZ
136213000136213               136213               170213JB     1400+00000+JB0000006174+0000006174+000000000+000000865+0000007030+0000000009+I20000000000+0000007030+Z
136213001136213368-000175     136213006003000270316PLUSH BEAR 4 ASSTD 18CM0000001000+00006139+00000+0001T   00006139+0000001102          1400 BZ9745               1BZ
136213002136213112-116038     136213006003000534906TCS CARRIER BAG MIDI   0000001000+00000035+00000+0001T   00000035+0000001102          1400 BZ9090               1BZ
136214000136214               136214               170213JB     1400+00000+JB0000017542+0000017542+000000000+000002456+0000019998+0000000000+I40000019998+0000000000+Z
136214001136214031-007010     136214006003000467945P/FRAME WDN CERTIFICATE0000002000+00008771+00000+0001T   00008771+0000001104          1400 BZ9510               1CZ
136215000136215               136215               170213JB     1400+00000+JB0000001225+0000001225+000000000+000000173+0000001390+0000000008+I20000000000+0000001390+Z
136215001136215903-000201     136215006009826020371SWT CHOC HEART 30g     0000001000+00000788+00000+0001T   00000788+0000001210          1400 BZ9150               1BZ
136215002136215080-000133-A   136215006003000647019MINI VALENTINES CARD   0000001000+00000437+00000+0001T   00000437+0000001210          1400 BZ9112               1BZ
136216000136216               136216               170213JB     1400+00000+JB0000002102+0000002102+000000000+000000295+0000002390+0000000007+I20000000000+0000002390+Z
136216001136216033-005994     136216006001023789570SEWING-NEEDLES 16PCE   0000001000+00000613+00000+0001T   00000613+0000001216          1400 BZ9200               1CZ
136216002136216033-005930     136216006001023678423PINS STRAIGHT 20g  CARD0000001000+00000876+00000+0001T   00000876+0000001216          1400 BZ9200               1CZ
136216003136216033-005994     136216006001023789570SEWING-NEEDLES 16PCE   0000001000+00000613+00000+0001T   00000613+0000001216          1400 BZ9200               1CZ
136217000136217               136217               170213JB     1400+00000+JB0000000700+0000000700+000000000+000000098+0000000790+0000000008+I20000000000+0000000790+Z
136217001136217018-000177     136217006001023797513MUG MINI LOVE ASSTD    0000001000+00000700+00000+0001T   00000700+0000001217          1400 BZ9515               1DZ
136218000136218               136218               170213JB     1400+00000+JB0000020830+0000020830+000000000+000002919+0000023749+0000000000+I40000023749+0000000000+Z
136218001136218018-000130     136218006001023867537MUG OCC LOVE MINI+HEART0000001000+00003507+00000+0001T   00003507+0000001238          1400 BZ9515               1BZ
136218002136218301-085007     136218006003000673698ORN OCC. LOVE S/PLAQUE 0000001000+00007893+00000+0001T   00007893+0000001238          1400 BZ9505               1BZ
136218003136218077-000270     136218006003000395453GIFT-BAG PPR JMB 33X45 0000001000+00002630+00000+0001T   00002630+0000001238          1400 BZ9112               1BZ
136218004136218007-000614     136218006001023768667DIARY W/LOCK+PEN LOVE  0000001000+00005262+00000+0001T   00005262+0000001238          1400 BZ9130               1BZ
136218005136218077-000299     136218006003000395576G/BAG 32x25cm LRG LOVE 0000001000+00001490+00000+0001T   00001490+0000001238          1400 BZ9112               1BZ
136218006136218112-116069     136218006003000535064TCS CARRIER BAG JUMBO  0000001000+00000048+00000+0001T   00000048+0000001238          1400 BZ9090               1BZ
136219000136219               136219               170213JB     1400+00000+JB0000012314+0000012314+000000000+000001725+0000014039+0000000000+I40000014039+0000000000+Z
136219001136219112-116038     136219006003000534906TCS CARRIER BAG MIDI   0000001000+00000035+00000+0001T   00000035+0000001240          1400 BZ9090               1CZ
136219002136219019-000079     136219006001023775726VASE 30cm CRACK-DESIGN 0000001000+00012279+00000+0001T   00012279+0000001240          1400 BZ9510               1CZ
136220000136220               136220               170213JB     1400+00000+JB0000003331+0000003331+000000000+000000467+0000003798+0000000000+I40000003798+0000000000+Z
136220001136220080-000124     136220006003000297733CARD & ENV VALENTINES  0000001000+00001578+00000+0001T   00001578+0000001324          1400 BZ9112               1BZ
136220002136220089-000004     136220006003000137749KEY CHAIN MTL CHARMS   0000001000+00001753+00000+0001T   00001753+0000001324          1400 BZ9205               1BZ
136221000136221               136221               170213JB     1400+00000+JB0000001436+0000001436+000000000+000000202+0000001630+0000000008+I20000000000+0000001630+Z
136221001136221077-000311     136221006001023608666GIFT-BAG 11X14CM GLOSS 0000001000+00000613+00000+0001T   00000613+0000001614          1400 BZ9112               1BZ
136221002136221077-000010-F   136221006003453000461CREPE-PAPER BLUE       0000001000+00000788+00000+0001T   00000788+0000001614          1400 BZ9112               1BZ
136221003136221112-116038     136221006003000534906TCS CARRIER BAG MIDI   0000001000+00000035+00000+0001T   00000035+0000001614          1400 BZ9090               1BZ
136222000136222               136222               170213JB     1400+00000+JB0000002628+0000002628+000000000+000000369+0000002990+0000000007+I20000000000+0000002990+Z
136222001136222071-001012     136222006001023474445MARKERS BLACK ROUND    0000002000+00000876+00000+0001T   00000876+0000001615          1400 BZ9130               1BZ
136222002136222071-003000     136222006003000543229PEN BALL PEN 3PCE MULTI0000001000+00000876+00000+0001T   00000876+0000001615          1400 BZ9130               1BZ
136223000136223               136223               170213JB     1400+00000+JB0000008767+0000008767+000000000+000001228+0000009995+0000000000+I40000009995+0000000000+Z
136223001136223077-000465     136223006003000681570GIFT-BAG MTLC GLIT LRG 0000002000+00003507+00000+0001T   00003507+0000001633          1400 BZ9112               1BZ
136223002136223077-000455     136223006003000285389G/BAG METALLIC LRG SOL 0000001000+00001753+00000+0001T   00001753+0000001633          1400 BZ9112               1BZ
136224000136224               136224               170213JB     1400+00000+JB0000009242+0000009242+000000000+000001295+0000010537+0000000000+I40000010537+0000000000+Z
136224001136224077-000270     136224006003000395453GIFT-BAG PPR JMB 33X45 0000001000+00002630+00000+0001T   00002630+0000001636          1400 BZ9112               1BZ
136224002136224080-000127     136224006003000424351VALENTINES DAY 36x24CM 0000001000+00002192+00000+0001T   00002192+0000001636          1400 BZ9112               1BZ
136224003136224018-030000     136224006003000421060MUG OCCASIONS LOVE 2PCE0000001000+00004385+00000+0001T   00004385+0000001636          1400 BZ9515               1BZ
136224004136224112-116038     136224006003000534906TCS CARRIER BAG MIDI   0000001000+00000035+00000+0001T   00000035+0000001636          1400 BZ9090               1BZ
136225000136225               136225               170213JB     1400+00000+JB0000014373+0000014373+000000000+000002015+0000016388+0000000000+I40000016388+0000000000+Z
136225001136225077-000299     136225006003000395576G/BAG 32x25cm LRG LOVE 0000001000+00001490+00000+0001T   00001490+0000001640          1400 BZ9112               1BZ
136225002136225903-000844     136225005010478432567SWT CANDY DL LUV HEARTS0000001000+00001314+00000+0001T   00001314+0000001640          1400 BZ9150               1BZ
136225003136225903-002850     136225000000087108262MENTOS ROLL FRUIT      0000001000+00001051+00000+0001T   00001051+0000001640          1400 BZ9150               1BZ
136225004136225903-000807     136225006009680772317SWT CHEWEEZ APPLE 36g  0000001000+00000700+00000+0001T   00000700+0000001640          1400 BZ9150               1BZ
136225005136225018-030000     136225006003000421060MUG OCCASIONS LOVE 2PCE0000001000+00004385+00000+0001T   00004385+0000001640          1400 BZ9515               1BZ
136225006136225903-000518     136225006001704012782SWT STRAWS S/BERRY 100g0000002000+00001227+00000+0001T   00001227+0000001640          1400 BZ9150               1BZ
136225007136225903-004962     136225008410525221880SWT FINI BLCK/RED 50g  0000001000+00000964+00000+0001T   00000964+0000001640          1400 BZ9150               1BZ
136225008136225903-000087     136225006001704000161SWT SPECKLED-EGGS 50G  0000001000+00001139+00000+0001T   00001139+0000001640          1400 BZ9150               1BZ
136225009136225903-000482     136225006001704001397SWT SOFT-MINTS 60G     0000001000+00000876+00000+0001T   00000876+0000001640          1400 BZ9150               1BZ
136226000136226               136226               170213JB     1400+00000+JB0000001490+0000001490+000000000+000000209+0000001690+0000000009+I20000000000+0000001690+Z
136226001136226039-000108     136226006001023524034TEA-LITE CANDLES 8PCE  0000001000+00001490+00000+0001T   00001490+0000001655          1400 BZ9510               1BZ
136227000136227               136227               170213JB     1400+00000+JB0000006576+0000006576+000000000+000000921+0000007497+0000000000+I40000007497+0000000000+Z
136227001136227301-000105     136227006003000456062ORN NECKLACE ANGEL ASTD0000001000+00005262+00000+0001T   00005262+0000001759          1400 BZ9505               1BZ
136227002136227077-000470     136227006003000330171G-BAG DESGN SML 11X14CM0000001000+00001314+00000+0001T   00001314+0000001759          1400 BZ9112               1BZ
136228000136228               136228               170213JB     1400+00000+JB0000002192+0000002192+000000000+000000307+0000002490+0000000009+I20000000000+0000002490+Z
136228001136228080-000127     136228006003000424351VALENTINES DAY 36x24CM 0000001000+00002192+00000+0001T   00002192+0000001800          1400 BZ9112               1DZ
136229000136229               136229               170213JB     1400+00000+JB0000004294+0000004294+000000000+000000602+0000004896+0000000000+I40000004896+0000000000+Z
136229001136229077-000005-D   136229006003000414567PAPER TISSUE 50x70cm   0000001000+00001753+00000+0001T   00001753+0000001801          1400 BZ9112               1DZ
136229002136229077-000245     136229006001023759214GIFT-RIBBON METALLICx2 0000001000+00001227+00000+0001T   00001227+0000001801          1400 BZ9112               1DZ
136229003136229046-000012     136229006904708013062BATTERIES AA  CARD-OF-40000001000+00001314+00000+0001T   00001314+0000001801          1400 BZ9312               1DZ
136230000136230               136230               170213JB     1400+00000+JB0000004856+0000004856+000000000+000000680+0000005530+0000000006+I20000000000+0000005530+Z
136230001136230112-116038     136230006003000534906TCS CARRIER BAG MIDI   0000001000+00000035+00000+0001T   00000035+0000001851          1400 BZ9090               1DZ
136230002136230018-000136     136230006001023659026MUG OCC LOVE W/PLUSH   0000001000+00003507+00000+0001T   00003507+0000001851          1400 BZ9515               1DZ
136230003136230077-000310     136230006001023608635GIFT-BAG 18X23CM GLOSS 0000001000+00001314+00000+0001T   00001314+0000001851          1400 BZ9112               1DZ
136231000136231               136231               170213JB     1400+00000+JB0000001314+0000001314+000000000+000000184+0000001490+0000000008+I20000000000+0000001490+Z
136231001136231077-000310     136231006001023608635GIFT-BAG 18X23CM GLOSS 0000001000+00001314+00000+0001T   00001314+0000001855          1400 BZ9112               1BZ
A17021300                                          08302437JBSLAVE 1                       F522IC
A17021301                                          10591949JBSLAVE 1                       BZ92IC
A17021302                                          11070461JBSLAVE 1                       BZ92IC
A17021303                                          13291446JBSLAVE 1                       BZ92IC
M17021391                              CASH        JBSLAVE 1                       Z-REPORT No.   662TOTAL (Sales - Refunds)           1491.27       CASH TO BE BANKED                  382.30       DEBIT CARDS                          0.00       CREDIT CARDS                      1108.97       Z-READING                         1491.27       AIRTIME DEBIT CARD SALES             0.00       AIRTIME CARD SALES                   0.00       OVERS/UNDERS                         0.00       AIRTIME CASH SALES                   0.00       GIFT CARDS                           0.00       GIFT CARD CASH SALES                 0.00       T O T A L  CASH PAYOUTS              0.00                                                                                                                                                                                                                                                                                                                                                      Z
M17021392                              CASH        JBABSENT                                                                                                                                                                                          ANNUAL LEAVE                                                                                                                                                                                    DAY OFF                                                                                                                                                                                         COMMENTS                                                          Z-READING R1491.27                                                                                                                                                                                                                                                                                                           Z
Y17021300                                          JB00000000130885+000022
ZJB17021319523 SLAVE 1      SALES DATA                     NEXT INVOICE NO.  136232 0662
X JB Slave 1 First invoice 136210 170213 Last invoice 136231 170213 Next invoice 136232 Total number of records 000000087 clbackup completed 19:52:19
