149636000149636               149636               170213JB     1400+00000+JB0000007927+0000007927+000000000+000001110+0000009037+0000000000+I40000009037+0000000000+Z
149636001149636112-116038     149636006009681820246TCS CARRIER BAG MIDI   0000001000+00000035+00000+0001T   00000035+0000000905          1400 AB2090               2AZ
149636002149636031-080508     149636006001023802415P/FRAME PL 22X11CM LOVE0000001000+00004385+00000+0001T   00004385+0000000905          1400 AB2510               2AZ
149636003149636018-000136     149636006001023659026MUG OCC LOVE W/PLUSH   0000001000+00003507+00000+0001T   00003507+0000000905          1400 AB2515               2AZ
149637000149637               149637               170213JB     1400+00000+JB0000003542+0000003542+000000000+000000496+0000004030+0000000008+I20000000000+0000004030+Z
149637001149637112-116038     149637006009681820246TCS CARRIER BAG MIDI   0000001000+00000035+00000+0001T   00000035+0000000906          1400 AB2090               2AZ
149637002149637262-000616     149637006001023708991CARS MDC 8PCE CITY     0000001000+00003507+00000+0001T   00003507+0000000906          1400 AB2710               2AZ
149638000149638               149638               170213JB     1400+00000+JB0000007014+0000007014+000000000+000000982+0000007990+0000000006+I20000000000+0000007990+Z
149638001149638159-000643     149638006001023767028BACK-BRUSH ASSTD       0000002000+00003507+00000+0001T   00003507+0000000909          1400 AB2200               2AZ
149639000149639               149639               170213JB     1400+00000+JB0000009645+0000009645+000000000+000001352+0000010997+0000000000+I40000010997+0000000000+Z
149639001149639304-001601     149639006001023842374BRANCH CURVED 20PC 1.3m0000002000+00002630+00000+0001T   00002630+0000000935          1400 AB2510               2AZ
149639002149639082-007582     149639006003000465804SUNGLASSES EMPORIUM    0000001000+00004385+00000+0001T   00004385+0000000935          1400 AB2160               2AZ
149640000149640               149640               170213JB     1400+00000+JB0000014078+0000014078+000000000+000001973+0000016050+0000000001+I20000000000+0000016050+Z
149640001149640112-116069     149640006009681820277TCS CARRIER BAG JUMBO  0000001000+00000048+00000+0001T   00000048+0000000937          1400 AB2090               2AZ
149640002149640107-004500     149640006003000150557STEP STOOL PL          0000001000+00007016+00000+0001T   00007016+0000000937          1400 AB2210               2AZ
149640003149640903-000211     149640006002099001238SWT GS MALLOW ICE CREAM0000001000+00001753+00000+0001T   00001753+0000000937          1400 AB2150               2AZ
149640004149640903-000123     149640006925925909280SWEET GS MINI MALLOWS  0000001000+00000876+00000+0001T   00000876+0000000937          1400 AB2150               2AZ
149640005149640082-007582     149640006003000465804SUNGLASSES EMPORIUM    0000001000+00004385+00000+0001T   00004385+0000000937          1400 AB2160               2AZ
149641000149641               149641               170213JB     1400+00000+JB0000004823+0000004823+000000000+000000676+0000005490+0000000009+I20000000000+0000005490+Z
149641001149641301-085001     149641006003000297610ORN WATERBALL LOVE ASST0000001000+00004823+00000+0001T   00004823+0000000938          1400 AB2505               2AZ
149642000149642               149642               170213JB     1400+00000+JB0000000700+0000000700+000000000+000000098+0000000798+0000000000+I40000000798+0000000000+Z
149642001149642566-000062     149642006001023689641S/BOOK STICKER GLITTER 0000001000+00000700+00000+0001T   00000876+0008150954          1400 AB2130               2AZ
149643000149643               149643               170213JB     1400+00000+JB0000003069+0000003069+000000000+000000430+0000003490+0000000009+I20000000000+0000003490+Z
149643001149643033-000600     149643006003000365098HAIR-BRUSH 23cm VENT   0000001000+00003069+00000+0001T   00003069+0000000955          1400 AB2200               2AZ
149644000149644               149644               170213JB     1400+00000+JB0000002401+0000002401+000000000+000000337+0000002730+0000000008+I20000000000+0000002730+Z
149644001149644084-006995     149644006003000092802NAIL CLIPPER 8cm TOE   0000001000+00001753+00000+0001T   00001753+0000001000          1400 AB2200               2AZ
149644002149644033-005994     149644006001023789570SEWING-NEEDLES 16PCE   0000001000+00000613+00000+0001T   00000613+0000001000          1400 AB2200               2AZ
149644003149644112-116038     149644006009681820246TCS CARRIER BAG MIDI   0000001000+00000035+00000+0001T   00000035+0000001000          1400 AB2090               2AZ
149645000149645               149645               170213JB     1400+00000+JB0000000874+0000000874+000000000+000000124+0000000990+0000000008+I20000000000+0000000990+Z
149645001149645080-000133-A   149645006003000647019MINI VALENTINES CARD   0000002000+00000437+00000+0001T   00000437+0000001002          1400 AB2112               2AZ
149646000149646               149646               170213JB     1400+00000+JB0000001490+0000001490+000000000+000000209+0000001690+0000000009+I20000000000+0000001690+Z
149646001149646077-000299     149646006003000395576G/BAG 32x25cm LRG LOVE 0000001000+00001490+00000+0001T   00001490+0000001009          1400 AB2112               2AZ
149647000149647               149647               170213JB     1400+00000+JB0000003542+0000003542+000000000+000000496+0000004030+0000000008+I20000000000+0000004030+Z
149647001149647071-005667     149647006003000153060STAPLER SET MTL W/STPLS0000001000+00003507+00000+0001T   00003507+0000001010          1400 AB2130               2AZ
149647002149647112-116038     149647006009681820246TCS CARRIER BAG MIDI   0000001000+00000035+00000+0001T   00000035+0000001010          1400 AB2090               2AZ
149648000149648               149648               170213JB     1400+00000+JB0000000876+0000000876+000000000+000000123+0000000990+0000000009+I20000000000+0000000990+Z
149648001149648033-000128     149648006009654960214HAIR COMB PLASTIC 2PC  0000001000+00000876+00000+0001T   00000876+0000001011          1400 AB2200               2AZ
149649000149649               149649               170213JB     1400+00000+JB0000001756+0000001756+000000000+000000246+0000002000+0000000002+I20000000000+0000002000+Z
149649001149649031-005923     149649006003000040322P/FRAME CERT PL 21x29.70000002000-00003507+00000+0001T   00003507+0000001016          1400 AB25102IC            2 Z
149649002149649031-000868-D   149649006003000580330P/FRAME PL BLCK CERT.  0000002000+00004385+00000+0001T   00004385+0000001016          1400 AB2510               2AZ
149650000149650               149650               170213JB     1400+00000+JB0000003278+0000003278+000000000+000000460+0000003730+0000000008+I20000000000+0000003730+Z
149650001149650112-116038     149650006009681820246TCS CARRIER BAG MIDI   0000001000+00000035+00000+0001T   00000035+0000001025          1400 AB2090               2AZ
149650002149650108-001105-B   149650006005387000258MIXING-BOWL PLTNM/BLUE 0000001000+00002367+00000+0001T   00002367+0000001025          1400 AB2210               2AZ
149650003149650133-000079     149650006003000277193KITCHEN SWAB 30x30CM   0000001000+00000876+00000+0001T   00000876+0000001025          1400 AB2212               2AZ
149651000149651               149651               170213JB     1400+00000+JB0000005700+0000005700+000000000+000000798+0000006490+0000000008+I20000000000+0000006490+Z
149651001149651046-002023-C   149651006001023698254BATTERIES ALKALN CARD-50000001000+00005700+00000+0001T   00005700+0000001026          1400 AB2312               2AZ
149652000149652               149652               170213JB     1400+00000+JB0000001051+0000001051+000000000+000000148+0000001190+0000000009+I20000000000+0000001190+Z
149652001149652903-002890     149652008935001721352MENTOS GUM PURE F/MINT 0000001000+00001051+00000+0001T   00001051+0000001030          1400 AB2150               2AZ
149653000149653               149653               170213JB     1400+00000+JB0000005205+0000005205+000000000+000000731+0000005936+0000000000+I40000005936+0000000000+Z
149653001149653112-116038     149653006009681820246TCS CARRIER BAG MIDI   0000001000+00000035+00000+0001T   00000035+0000001042          1400 AB2090               2AZ
149653002149653080-000127     149653006003000424351VALENTINES DAY 36x24CM 0000002000+00002192+00000+0001T   00002192+0000001042          1400 AB2112               2AZ
149653003149653903-000183     149653006003000451043SWT LB HEART LOLLY     0000002000+00000393+00000+0001T   00000393+0000001042          1400 AB2150               2AZ
149654000149654               149654               170213JB     1400+00000+JB0000002278+0000002278+000000000+000000320+0000002598+0000000000+I40000002598+0000000000+Z
149654001149654046-000014     149654006001023725387BATTERIES SIZE:AAA 4PCE0000002000+00001139+00000+0001T   00001139+0000001044          1400 AB2312               2AZ
149655000149655               149655               170213JB     1400+00000+JB0000011609+0000011609+000000000+000001627+0000013236+0000000000+I40000013236+0000000000+Z
149655001149655112-116038     149655006009681820246TCS CARRIER BAG MIDI   0000001000+00000035+00000+0001T   00000035+0000001046          1400 AB2090               2AZ
149655002149655077-000299     149655006003000395576G/BAG 32x25cm LRG LOVE 0000001000+00001490+00000+0001T   00001490+0000001046          1400 AB2112               2AZ
149655003149655031-080508     149655006001023802415P/FRAME PL 22X11CM LOVE0000001000+00004385+00000+0001T   00004385+0000001046          1400 AB2510               2AZ
149655004149655565-000040     149655006008766115635NOVELTY ICON BEANIE    0000001000+00002630+00000+0001T   00002630+0000001046          1400 AB2745               2AZ
149655005149655089-060027     149655006003000245871KEY-CHAIN HEART 6X6cm  0000001000+00003069+00000+0001T   00003069+0000001046          1400 AB2205               2AZ
149656000149656               149656               170213JB     1400+00000+JB0000001051+0000001051+000000000+000000148+0000001190+0000000009+I20000000000+0000001190+Z
149656001149656079-009702-B   149656008427973059491PAPER SIRIO A2 WHITE   0000001000+00001051+00000+0001T   00001051+0000001047          1400 AB2130               2AZ
149657000149657               149657               170213JB     1400+00000+JB0000014770+0000014770+000000000+000002075+0000016840+0000000005+I20000000000+0000016840+Z
149657001149657112-116069     149657006009681820277TCS CARRIER BAG JUMBO  0000001000+00000048+00000+0001T   00000048+0000001050          1400 AB2090               2AZ
149657002149657088-000084     149657006001023798060P/POURRI 120G ASSTD    0000002000+00001753+00000+0001T   00001753+0000001050          1400 AB2212               2AZ
149657003149657039-000026     149657006001023551610C/TAPERED 25CM M/RED   0000004000+00001051+00000+0001T   00001051+0000001050          1400 AB2510               2AZ
149657004149657040-000923     149657006001023587831CANDLE-HOLDER GLS 13.5 0000004000+00001753+00000+0001T   00001753+0000001050          1400 AB2510               2AZ
149658000149658               149658               170213JB     1400+00000+JB0000017961+0000017961+000000000+000002517+0000020470+0000000008+I20000000000+0000020470+Z
149658001149658077-000311     149658006001023608666GIFT-BAG 11X14CM GLOSS 0000003000+00000613+00000+0001T   00000613+0000001052          1400 AB2112               2AZ
149658002149658019-071610     149658006001023904560PEBBLES WATER GEMS 10g 0000003000+00001490+00000+0001T   00001490+0000001052          1400 AB2510               2AZ
149658003149658018-000136     149658006001023659026MUG OCC LOVE W/PLUSH   0000001000+00003507+00000+0001T   00003507+0000001052          1400 AB2515               2AZ
149658004149658077-000381     149658006003000247707GIFT-BAG 25X32CM S/COL 0000001000+00001753+00000+0001T   00001753+0000001052          1400 AB2112               2AZ
149658005149658080-000127     149658006003000424351VALENTINES DAY 36x24CM 0000001000+00002192+00000+0001T   00002192+0000001052          1400 AB2112               2AZ
149658006149658018-000177     149658006001023797513MUG MINI LOVE ASSTD    0000006000+00000700+00000+0001T   00000700+0000001052          1400 AB2515               2AZ
149659000149659               149659               170213JB     1400+00000+JB0000006137+0000006137+000000000+000000860+0000006990+0000000007+I20000000000+0000006990+Z
149659001149659077-000270     149659006003000395453GIFT-BAG PPR JMB 33X45 0000001000+00002630+00000+0001T   00002630+0000001053          1400 AB2112               2AZ
149659002149659018-000136     149659006001023659026MUG OCC LOVE W/PLUSH   0000001000+00003507+00000+0001T   00003507+0000001053          1400 AB2515               2AZ
149660000149660               149660               170213JB     1400+00000+JB0000012674+0000012674+000000000+000001776+0000014450+0000000000+I20000000000+0000014450+Z
149660001149660112-116069     149660006009681820277TCS CARRIER BAG JUMBO  0000001000+00000048+00000+0001T   00000048+0000001054          1400 AB2090               2AZ
149660002149660077-000299     149660006003000395576G/BAG 32x25cm LRG LOVE 0000002000+00001490+00000+0001T   00001490+0000001054          1400 AB2112               2AZ
149660003149660018-005009     149660006001023725608MUG W/PLUSH-BEAR LOVE  0000001000+00003507+00000+0001T   00003507+0000001054          1400 AB2515               2AZ
149660004149660018-050000     149660006003000412679MUG OCC LOVE TWIN BEAR 0000001000+00006139+00000+0001T   00006139+0000001054          1400 AB2515               2AZ
149661000149661               149661               170213JB     1400+00000+JB0000001753+0000001753+000000000+000000246+0000001990+0000000009+I20000000000+0000001990+Z
149661001149661024-000038     149661006001023477026MEASURING-JUG 1L (4CUP)0000001000+00001753+00000+0001T   00001753+0000001056          1400 AB2300               2AZ
149662000149662               149662               170213JB     1400+00000+JB0000011437+0000011437+000000000+000001602+0000013030+0000000009+I20000000000+0000013030+Z
149662001149662112-116038     149662006009681820246TCS CARRIER BAG MIDI   0000001000+00000035+00000+0001T   00000035+0000001057          1400 AB2090               2AZ
149662002149662075-000417     149662006003000622849BAG LADIES DENIM ASSTD 0000001000+00011402+00000+0001T   00011402+0000001057          1400 AB2160               2AZ
149663000149663               149663               170213JB     1400+00000+JB0000010567+0000010567+000000000+000001481+0000012040+0000000008+I20000000000+0000012040+Z
149663001149663112-116069     149663006009681820277TCS CARRIER BAG JUMBO  0000001000+00000048+00000+0001T   00000048+0000001103          1400 AB2090               2AZ
149663002149663159-000102     149663006001023552891SHOWER-CADDY 48cm      0000001000+00003507+00000+0001T   00003507+0000001103          1400 AB2200               2AZ
149663003149663159-000114     149663006001023507945SHOWER CAP PVC ASSTD   0000001000+00001490+00000+0001T   00001490+0000001103          1400 AB2200               2AZ
149663004149663903-000920     149663000041396002155SWT CANDY STICK/TATT   0000001000+00000700+00000+0001T   00000700+0000001103          1400 AB2150               2AZ
149663005149663251-000006     149663006001023499158TAPE DBL-SIDED AUTO    0000001000+00001753+00000+0001T   00001753+0000001103          1400 AB2810               2AZ
149663006149663032-000340     149663006003000295883MIRROR SUCTION PL MAGN 0000001000+00003069+00000+0001T   00003069+0000001103          1400 AB2510               2AZ
149664000149664               149664               170213JB     1400+00000+JB0000003069+0000003069+000000000+000000430+0000003490+0000000009+I20000000000+0000003490+Z
149664001149664072-020315     149664006003000623891PET TOY PUPPY RING 3in10000001000+00003069+00000+0001T   00003069+0000001104          1400 AB2870               2AZ
149665000149665               149665               170213JB     1400+00000+JB0000008770-0000008770-000000000+000001228-0000010000-0000000002+I20000000000+0000010000-Z
149665001149665158-000050     149665006003000630097CUP HANGER CHROME HOOKS0000002000-00004385+00000+0001T   00004385+0000001109          1400 AB23002IC            2 Z
149666000149666               149666               170213JB     1400+00000+JB0000004681+0000004681+000000000+000000656+0000005337+0000000000+I40000005337+0000000000+Z
149666001149666112-116038     149666006009681820246TCS CARRIER BAG MIDI   0000001000+00000035+00000+0001T   00000035+0000001115          1400 AB2090               2AZ
149666002149666073-000521     149666006003000571697COSMETIC-BAG+ZIP RECT  0000001000+00003946+00000+0001T   00005262+0008121115          1400 AB2200               2AZ
149666003149666018-000177     149666006001023797513MUG MINI LOVE ASSTD    0000001000+00000700+00000+0001T   00000700+0000001115          1400 AB2515               2AZ
149667000149667               149667               170213JB     1400+00000+JB0000002364+0000002364+000000000+000000333+0000002690+0000000007+I20000000000+0000002690+Z
149667001149667077-000299     149667006003000395576G/BAG 32x25cm LRG LOVE 0000001000+00001490+00000+0001T   00001490+0000001115          1400 AB2112               2AZ
149667002149667083-000049     149667004891035200024CIG-LIGHTER DISPOSABLE 0000002000+00000437+00000+0001T   00000437+0000001115          1400 AB2315               2AZ
149668000149668               149668               170213JB     1400+00000+JB0000001578+0000001578+000000000+000000221+0000001790+0000000009+I20000000000+0000001790+Z
149668001149668024-000034     149668006001023495235MEASURING-JUG 1-CUP    0000001000+00001578+00000+0001T   00001578+0000001116          1400 AB2300               2AZ
149669000149669               149669               170213JB     1400+00000+JB0000016177+0000016177+000000000+000002270+0000018440+0000000007+I20000000000+0000018440+Z
149669001149669112-116069     149669006009681820277TCS CARRIER BAG JUMBO  0000001000+00000048+00000+0001T   00000048+0000001118          1400 AB2090               2AZ
149669002149669563-000317-C   149669006001023776204SERVIETTES 20PK  FLOWER0000001000+00002630+00000+0001T   00002630+0000001118          1400 AB2214               2AZ
149669003149669133-000010     149669006001023905215CLEANING CLOTHS 6PCE   0000001000+00001753+00000+0001T   00001753+0000001118          1400 AB2212               2AZ
149669004149669903-004951     149669006002580020328SWT MALLOW MINI M/SHAKE0000001000+00001227+00000+0001T   00001227+0000001118          1400 AB2150               2AZ
149669005149669103-000036     149669006001023585899BASKET RECT.16x12x6cm  0000001000+00001753+00000+0001T   00002367+0008161118          1400 AB2300               2AZ
149669006149669077-000151     149669006008766114676GIFT-WRAP C/PHANE ASSTD0000001000+00000876+00000+0001T   00000876+0000001118          1400 AB2112               2AZ
149669007149669304-003898     149669006001023712790S/FLOWER SPRAY 51CM ASS0000002000+00002630+00000+0001T   00002630+0000001118          1400 AB2510               2AZ
149669008149669304-001605     149669006001023842497FLWR LILY SPRAY 53CM   0000001000+00002630+00000+0001T   00002630+0000001118          1400 AB2510               2AZ
149670000149670               149670               170213JB     1400+00000+JB0000004067+0000004067+000000000+000000571+0000004638+0000000000+I40000004638+0000000000+Z
149670001149670050-000362-Z   149670006001023475275PADLOCK IRON 25mm CARD 0000002000+00002016+00000+0001T   00002016+0000001128          1400 AB2855               2AZ
149670002149670112-116038     149670006009681820246TCS CARRIER BAG MIDI   0000001000+00000035+00000+0001T   00000035+0000001128          1400 AB2090               2AZ
149671000149671               149671               170213JB     1400+00000+JB0000001753+0000001753+000000000+000000246+0000001990+0000000009+I20000000000+0000001990+Z
149671001149671080-000112     149671006003000252749CARD&ENVLP BDAY-MUSICAL0000001000+00001753+00000+0001T   00001753+0000001129          1400 AB2112               2AZ
149672000149672               149672               170213JB     1400+00000+JB0000001490+0000001490+000000000+000000209+0000001690+0000000009+I20000000000+0000001690+Z
149672001149672077-000299     149672006003000395576G/BAG 32x25cm LRG LOVE 0000001000+00001490+00000+0001T   00001490+0000001131          1400 AB2112               2AZ
149673000149673               149673               170213JB     1400+00000+JB0000015481+0000015481+000000000+000002169+0000017650+0000000000+I20000000000+0000017650+Z
149673001149673112-116069     149673006009681820277TCS CARRIER BAG JUMBO  0000001000+00000048+00000+0001T   00000048+0000001139          1400 AB2090               2AZ
149673002149673077-000270     149673006003000395453GIFT-BAG PPR JMB 33X45 0000001000+00002630+00000+0001T   00002630+0000001139          1400 AB2112               2AZ
149673003149673077-000315     149673006003000181186GIFT-BAG 20x28cm MATT  0000002000+00001578+00000+0001T   00001578+0000001139          1400 AB2112               2AZ
149673004149673031-080508     149673006001023802415P/FRAME PL 22X11CM LOVE0000001000+00004385+00000+0001T   00004385+0000001139          1400 AB2510               2AZ
149673005149673466-000589     149673006003000027538THROWING RINGSx5 SET   0000001000+00005262+00000+0001T   00005262+0000001139          1400 AB2785               2AZ
149674000149674               149674               170213JB     1400+00000+JB0000003507+0000003507+000000000+000000491+0000003990+0000000008+I20000000000+0000003990+Z
149674001149674200-000205     149674006008766127027BAKEPANS 36PCE (PIE)   0000001000+00003507+00000+0001T   00003507+0000001141          1400 AB2214               2AZ
149675000149675               149675               170213JB     1400+00000+JB0000004943+0000004943+000000000+000000694+0000005630+0000000007+I20000000000+0000005630+Z
149675001149675112-116038     149675006009681820246TCS CARRIER BAG MIDI   0000001000+00000035+00000+0001T   00000035+0000001144          1400 AB2090               2AZ
149675002149675159-000040     149675006001023767691HOOK-HANGER 4PC S/S    0000001000+00002630+00000+0001T   00002630+0000001144          1400 AB2200               2AZ
149675003149675903-000087     149675006001704000161SWT SPECKLED-EGGS 50G  0000001000+00001139+00000+0001T   00001139+0000001144          1400 AB2150               2AZ
149675004149675159-000445     149675006001023669728SOAP-BOX PL OVAL       0000001000+00001139+00000+0001T   00001139+0000001144          1400 AB2200               2AZ
149676000149676               149676               170213JB     1400+00000+JB0000001578+0000001578+000000000+000000221+0000001790+0000000009+I20000000000+0000001790+Z
149676001149676018-000127     149676006001023380289MUG OCC STRAIGHT LOVE  0000001000+00001578+00000+0001T   00001753+0006471153          1400 AB2515               2AZ
149677000149677               149677               170213JB     1400+00000+JB0000005262+0000005262+000000000+000000737+0000005990+0000000009+I20000000000+0000005990+Z
149677001149677266-001025     149677006003000108756BOYS TOYS SWORD 75cm   0000001000+00005262+00000+0001T   00005262+0000001154          1400 AB2710               2AZ
149678000149678               149678               170213JB     1400+00000+JB0000013813+0000013813+000000000+000001936+0000015749+0000000000+I40000015749+0000000000+Z
149678001149678112-116069     149678006009681820277TCS CARRIER BAG JUMBO  0000001000+00000048+00000+0001T   00000048+0000001156          1400 AB2090               2AZ
149678002149678080-000127     149678006003000424351VALENTINES DAY 36x24CM 0000001000+00002192+00000+0001T   00002192+0000001156          1400 AB2112               2AZ
149678003149678007-000614     149678006001023768667DIARY W/LOCK+PEN LOVE  0000001000+00005262+00000+0001T   00005262+0000001156          1400 AB2130               2AZ
149678004149678018-000136     149678006001023659026MUG OCC LOVE W/PLUSH   0000001000+00003507+00000+0001T   00003507+0000001156          1400 AB2515               2AZ
149678005149678304-001204     149678006001023737984FLOWER OCC. TEDDY/ROSES0000002000+00001402+00000+0001T   00001490+0006471156          1400 AB2510               2AZ
149679000149679               149679               170213JB     1400+00000+JB0000004591+0000004591+000000000+000000645+0000005230+0000000006+I20000000000+0000005230+Z
149679001149679112-116038     149679006009681820246TCS CARRIER BAG MIDI   0000001000+00000035+00000+0001T   00000035+0000001327          1400 AB2090               2AZ
149679002149679018-000127     149679006001023380289MUG OCC STRAIGHT LOVE  0000001000+00001578+00000+0001T   00001753+0006471327          1400 AB2515               2AZ
149679003149679080-000139     149679006003000611690CARD & ENV MINI SET 6PC0000001000+00002192+00000+0001T   00002192+0000001327          1400 AB2112               2AZ
149679004149679903-000183     149679006003000451043SWT LB HEART LOLLY     0000002000+00000393+00000+0001T   00000393+0000001327          1400 AB2150               2AZ
149680000149680               149680               170213JB     1400+00000+JB0000001752+0000001752+000000000+000000246+0000001998+0000000000+I40000001998+0000000000+Z
149680001149680077-000302     149680008010410010195GIFT-BAG 18X23CM E/D   0000002000+00000876+00000+0001T   00000876+0000001330          1400 AB2112               2AZ
149681000149681               149681               170213JB     1400+00000+JB0000001753+0000001753+000000000+000000246+0000001990+0000000009+I20000000000+0000001990+Z
149681001149681071-003011     149681006001023762825PEN STICKBALL X10 ASSTD0000001000+00001753+00000+0001T   00001753+0000001332          1400 AB2130               2AZ
149682000149682               149682               170213JB     1400+00000+JB0000004382+0000004382+000000000+000000615+0000004990+0000000007+I20000000000+0000004990+Z
149682001149682077-000512     149682006003000590223GIFT-BAG DESIGNER LRG  0000001000+00002630+00000+0001T   00002630+0000001333          1400 AB2112               2AZ
149682002149682903-000221     149682006001704007382SWT EENY-MEENY-MOS 60G 0000002000+00000876+00000+0001T   00000876+0000001333          1400 AB2150               2AZ
149683000149683               149683               170213JB     1400+00000+JB0000005295+0000005295+000000000+000000743+0000006030+0000000008+I20000000000+0000006030+Z
149683001149683112-116038     149683006009681820246TCS CARRIER BAG MIDI   0000001000+00000035+00000+0001T   00000035+0000001334          1400 AB2090               2AZ
149683002149683368-000040     149683006003000671786PLUSH ICONS 7.5cm      0000001000+00002630+00000+0001T   00002630+0000001334          1400 AB2745               2AZ
149683003149683018-000129     149683006001023403353MUG OCC. LOVE V-SHAPE  0000001000+00002630+00000+0001T   00002630+0000001334          1400 AB2515               2AZ
149684000149684               149684               170213JB     1400+00000+JB0000008414+0000008414+000000000+000001180+0000009590+0000000004+I20000000000+0000009590+Z
149684001149684071-003040     149684006003000543342PEN CLUTCH+LEAD 5pce   0000001000+00001753+00000+0001T   00001753+0000001336          1400 AB2130               2AZ
149684002149684071-000307     149684006003000535118RULER FLEXI 30cm       0000002000+00001490+00000+0001T   00001490+0000001336          1400 AB2130               2AZ
149684003149684007-000160     149684006009685857286NOTE-BOOK A5 SHORTHAND 0000003000+00001227+00000+0001T   00001227+0000001336          1400 AB2130               2AZ
149685000149685               149685               170213JB     1400+00000+JB0000008713+0000008713+000000000+000001222+0000009935+0000000000+I40000009935+0000000000+Z
149685001149685112-116038     149685006009681820246TCS CARRIER BAG MIDI   0000001000+00000035+00000+0001T   00000035+0000001353          1400 AB2090               2AZ
149685002149685077-000011-D   149685006001023808554TISSUE-WRAP WHITE 10PCE0000001000+00000876+00000+0001T   00000876+0000001353          1400 AB2112               2AZ
149685003149685563-000318-L   149685006003000407088SERVIETTES 33cm RED    0000001000+00002192+00000+0001T   00002192+0000001353          1400 AB2214               2AZ
149685004149685039-000796     149685006001023617750CANDLES TEALITE BOX-8  0000001000+00004385+00000+0001T   00004385+0000001353          1400 AB2510               2AZ
149685005149685039-000320     149685006001023816153BIRTHDAY-CANDLES 13PCE 0000001000+00002630+00000+0001T   00002630+0000001353          1400 AB2510               2AZ
149685006149685006-000094     149685006003000611089PARTY BANNER BBY SHOWER0000001000+00001490+00000+0001T   00001490+0000001353          1400 AB2131               2AZ
149685007149685039-000796     149685006001023617750CANDLES TEALITE BOX-8  0000001000-00004385+00000+0001T   00004385+0000001353          1400 AB25102IC            2 Z
149685008149685039-000108     149685006001023524034TEA-LITE CANDLES 8PCE  0000001000+00001490+00000+0001T   00001490+0000001353          1400 AB2510               2AZ
149686000149686               149686               170213JB     1400+00000+JB0000003542+0000003542+000000000+000000496+0000004038+0000000000+I40000004038+0000000000+Z
149686001149686112-116038     149686006009681820246TCS CARRIER BAG MIDI   0000001000+00000035+00000+0001T   00000035+0000001357          1400 AB2090               2AZ
149686002149686018-005009     149686006001023725608MUG W/PLUSH-BEAR LOVE  0000001000+00003507+00000+0001T   00003507+0000001357          1400 AB2515               2AZ
149687000149687               149687               170213JB     1400+00000+JB0000005084+0000005084+000000000+000000713+0000005790+0000000007+I20000000000+0000005790+Z
149687001149687077-000299-A   149687006003000670888GIFT-BAG PAPER JMB LOVE0000001000+00001753+00000+0001T   00001753+0000001358          1400 AB2112               2AZ
149687002149687077-000315     149687006003000181186GIFT-BAG 20x28cm MATT  0000001000+00001578+00000+0001T   00001578+0000001358          1400 AB2112               2AZ
149687003149687077-000455     149687006003000285389G/BAG METALLIC LRG SOL 0000001000+00001753+00000+0001T   00001753+0000001358          1400 AB2112               2AZ
149688000149688               149688               170213JB     1400+00000+JB0000017230+0000017230+000000000+000002416+0000019646+0000000000+I40000019646+0000000000+Z
149688001149688112-116069     149688006009681820277TCS CARRIER BAG JUMBO  0000001000+00000048+00000+0001T   00000048+0000001403          1400 AB2090               2AZ
149688002149688028-000799     149688006001023812186SKEWERS BAMBOO 100PCE  0000001000+00001578+00000+0001T   00001578+0000001403          1400 AB2305               2AZ
149688003149688077-000321     149688006001023677501GIFT-BAG 11X14CM E/D FL0000002000+00000613+00000+0001T   00000613+0000001403          1400 AB2112               2AZ
149688004149688306-000529     149688006003000571338TOOTHBRUSH HOLDER 20cm 0000001000+00001753+00000+0001T   00001753+0000001403          1400 AB2200               2AZ
149688005149688084-000369     149688006003000594467NAIL MANICURE SET 6PCE 0000001000+00006139+00000+0001T   00006139+0000001403          1400 AB2200               2AZ
149688006149688159-000636     149688006003000036035BATH PUMICE,BRUSH,FILE 0000001000+00001753+00000+0001T   00001753+0000001403          1400 AB2200               2AZ
149688007149688077-000151     149688006008766114676GIFT-WRAP C/PHANE ASSTD0000001000+00000876+00000+0001T   00000876+0000001403          1400 AB2112               2AZ
149688008149688018-000129     149688006001023403353MUG OCC. LOVE V-SHAPE  0000001000+00002630+00000+0001T   00002630+0000001403          1400 AB2515               2AZ
149688009149688306-000510     149688006001024000469T/BRUSH ADULT CROSS    0000001000+00001227+00000+0001T   00001227+0000001403          1400 AB2200               2AZ
149689000149689               149689               170213JB     1400+00000+JB0000021040+0000021040+000000000+000002949+0000023989+0000000000+I40000023989+0000000000+Z
149689001149689073-000527     149689006003000594122TOILETRY BAG MENS      0000001000+00006139+00000+0001T   00006139+0000001409          1400 AB2200               2AZ
149689002149689306-001720     149689006003000276257HAND SANITIZER WIPES   0000001000+00001753+00000+0001T   00001753+0000001409          1400 AB2200               2AZ
149689003149689251-000002     149689006003000093991TAPE D-SIDED 24x1000mm 0000001000+00002192+00000+0001T   00002192+0000001409          1400 AB2810               2AZ
149689004149689174-008032     149689006009654960603TRAVEL BOTTLES 50ml    0000001000+00001928+00000+0001T   00001928+0000001409          1400 AB2205               2AZ
149689005149689142-000814     149689006001023183910GLOVES RUBBER  MEDIUM  0000001000+00001753+00000+0001T   00001753+0000001409          1400 AB2810               2AZ
149689006149689174-000303     149689006003000053605TRAVEL NECK WALLET     0000001000+00003507+00000+0001T   00003507+0000001409          1400 AB2205               2AZ
149689007149689079-013032     149689006003000389209SET LETTERS 2 ASSTD    0000001000+00001753+00000+0001T   00001753+0000001409          1400 AB2130               2AZ
149689008149689903-000087     149689006001704000161SWT SPECKLED-EGGS 50G  0000001000+00001139+00000+0001T   00001139+0000001409          1400 AB2150               2AZ
149689009149689007-000033     149689006003000535231CARD HOLDER W/LANYARD  0000001000+00000876+00000+0001T   00000876+0000001409          1400 AB2130               2AZ
149690000149690               149690               170213JB     1400+00000+JB0000007012+0000007012+000000000+000000983+0000007990+0000000005+I20000000000+0000007990+Z
149690001149690006-000120     149690006001023346889BALLOONS 10PC MIX COL  0000001000+00001753+00000+0001T   00001753+0000001410          1400 AB2131               2AZ
149690002149690089-000192-A   149690006001023901774KEY-CHAIN ACRYLIC      0000002000+00000876+00000+0001T   00000876+0000001410          1400 AB2205               2AZ
149690003149690031-006228     149690006003000142293P/FRAME+PLAQUE 10X15CM 0000001000+00003507+00000+0001T   00003507+0000001410          1400 AB2510               2AZ
149691000149691               149691               170213JB     1400+00000+JB0000005085+0000005085+000000000+000000712+0000005790+0000000007+I20000000000+0000005790+Z
149691001149691077-000303     149691006001023593757GIFT-BAG PAPER MED     0000001000+00001578+00000+0001T   00001578+0000001416          1400 AB2112               2AZ
149691002149691031-005853     149691006003000442416P/FRAME WDN TWIN HEARTS0000001000+00003507+00000+0001T   00003507+0000001416          1400 AB2510               2AZ
149692000149692               149692               170213JB     1400+00000+JB0000012314+0000012314+000000000+000001725+0000014039+0000000000+I40000014039+0000000000+Z
149692001149692112-116038     149692006009681820246TCS CARRIER BAG MIDI   0000001000+00000035+00000+0001T   00000035+0000001420          1400 AB2090               2AZ
149692002149692368-000111     149692006001023780812PLUSH BEAR/DOG 29CM    0000001000+00012279+00000+0001T   00012279+0000001420          1400 AB2745               2AZ
149693000149693               149693               170213JB     1400+00000+JB0000006174+0000006174+000000000+000000865+0000007039+0000000000+I40000007039+0000000000+Z
149693001149693007-000323     149693006009697791042PAPER A4 80GSM 100'S   0000001000+00006139+00000+0001T   00006139+0000001421          1400 AB2130               2AZ
149693002149693112-116038     149693006009681820246TCS CARRIER BAG MIDI   0000001000+00000035+00000+0001T   00000035+0000001421          1400 AB2090               2AZ
149694000149694               149694               170213JB     1400+00000+JB0000000876+0000000876+000000000+000000123+0000000990+0000000009+I20000000000+0000000990+Z
149694001149694039-000319-1   149694006003000442386B/CANDLES LRG NUMBER-1 0000001000+00000876+00000+0001T   00000876+0000001424          1400 AB2510               2AZ
149695000149695               149695               170213JB     1400+00000+JB0000017047+0000017047+000000000+000002389+0000019436+0000000000+I40000019436+0000000000+Z
149695001149695071-081101-A   149695006003000326549GLUE-STICK 25g BLISTER 0000001000+00000788+00000+0001T   00000788+0000001431          1400 AB21302IC            2AZ
149695002149695080-000133-A   149695006003000647019MINI VALENTINES CARD   0000001000+00000437+00000+0001T   00000437+0000001431          1400 AB2112               2AZ
149695003149695031-000009     149695006003000306381P/FRAME COLLAGE HEARTS 0000001000+00013157+00000+0001T   00013157+0000001431          1400 AB2510               2AZ
149695004149695031-086219-B   149695006001023808875P/FRAME 10x15cm CURVED 0000001000+00002630+00000+0001T   00002630+0000001431          1400 AB2510               2AZ
149695005149695112-116038     149695006009681820246TCS CARRIER BAG MIDI   0000001000+00000035+00000+0001T   00000035+0000001431          1400 AB2090               2AZ
149696000149696               149696               170213JB     1400+00000+JB0000003102+0000003102+000000000+000000436+0000003538+0000000000+I40000003538+0000000000+Z
149696001149696112-116038     149696006009681820246TCS CARRIER BAG MIDI   0000001000+00000035+00000+0001T   00000035+0000001435          1400 AB2090               2AZ
149696002149696080-000133     149696006003000535613CARD&ENV MINI ASTD DSGN0000001000+00000437+00000+0001T   00000437+0000001435          1400 AB2112               2AZ
149696003149696031-086219-B   149696006001023808875P/FRAME 10x15cm CURVED 0000001000+00002630+00000+0001T   00002630+0000001435          1400 AB2510               2AZ
149697000149697               149697               170213JB     1400+00000+JB0000022793+0000022793+000000000+000003198+0000025991+0000000000+I40000025991+0000000000+Z
149697001149697104-000031     149697006003000614950BASKET PL 27x18x12cm   0000001000+00002630+00000+0001T   00002630+0000001437          1400 AB2210               2AZ
149697002149697206-000310     149697006003000632787BOTTLE-STOPPER SILICONE0000006000+00002630+00000+0001T   00002630+0000001437          1400 AB2321               2AZ
149697003149697002-000975     149697006003000658053KITCHEN-GADGET FUNNEL  0000001000+00001753+00000+0001T   00001753+0000001437          1400 AB2300               2AZ
149697004149697206-000110     149697006003000628186CHOPSTICKS PLASTIC KIDS0000001000+00002630+00000+0001T   00002630+0000001437          1400 AB2321               2AZ
149698000149698               149698               170213JB     1400+00000+JB0000003542+0000003542+000000000+000000496+0000004030+0000000008+I20000000000+0000004030+Z
149698001149698112-116038     149698006009681820246TCS CARRIER BAG MIDI   0000001000+00000035+00000+0001T   00000035+0000001440          1400 AB2090               2AZ
149698002149698018-000136     149698006001023659026MUG OCC LOVE W/PLUSH   0000001000+00003507+00000+0001T   00003507+0000001440          1400 AB2515               2AZ
149699000149699               149699               170213JB     1400+00000+JB0000001753+0000001753+000000000+000000246+0000001990+0000000009+I20000000000+0000001990+Z
149699001149699464-000122     149699006003000638987PLAYING CARDS POKER 2PK0000001000+00001753+00000+0001T   00001753+0000001446          1400 AB2785               2AZ
149700000149700               149700               170213JB     1400+00000+JB0000004417+0000004417+000000000+000000620+0000005030+0000000007+I20000000000+0000005030+Z
149700001149700112-116038     149700006009681820246TCS CARRIER BAG MIDI   0000001000+00000035+00000+0001T   00000035+0000001447          1400 AB2090               2AZ
149700002149700077-000011-Y   149700006001023809858TISSUE-WRAP GOLD 10PCE 0000002000+00001753+00000+0001T   00001753+0000001447          1400 AB2112               2AZ
149700003149700077-000011-D   149700006001023808554TISSUE-WRAP WHITE 10PCE0000001000+00000876+00000+0001T   00000876+0000001447          1400 AB2112               2AZ
149701000149701               149701               170213JB     1400+00000+JB0000037757+0000037757+000000000+000005289+0000043040+0000000006+I20000000000+0000043040+Z
149701001149701112-116069     149701006009681820277TCS CARRIER BAG JUMBO  0000001000+00000048+00000+0001T   00000048+0000001456          1400 AB2090               2AZ
149701002149701266-007799     149701006003000599967BOYS PLAYSET SET       0000002000+00012279+00000+0001T   00012279+0000001456          1400 AB2710               2AZ
149701003149701077-000270     149701006003000395453GIFT-BAG PPR JMB 33X45 0000001000+00002630+00000+0001T   00002630+0000001456          1400 AB2112               2AZ
149701004149701018-005009     149701006001023725608MUG W/PLUSH-BEAR LOVE  0000003000+00003507+00000+0001T   00003507+0000001456          1400 AB2515               2AZ
149702000149702               149702               170213JB     1400+00000+JB0000002015+0000002015+000000000+000000283+0000002290+0000000008+I20000000000+0000002290+Z
149702001149702046-000014     149702006001023725387BATTERIES SIZE:AAA 4PCE0000001000+00001139+00000+0001T   00001139+0000001501          1400 AB2312               2AZ
149702002149702078-000025     149702008887013700064SUPERGLUE 3g 1PCE CARD 0000001000+00000876+00000+0001T   00000876+0000001501          1400 AB2810               2AZ
149703000149703               149703               170213JB     1400+00000+JB0000001525+0000001525+000000000+000000214+0000001730+0000000009+I20000000000+0000001730+Z
149703001149703079-006494     149703006003000159864GLITTER GLUE 5PCE 11cm 0000001000+00001490+00000+0001T   00001490+0000001503          1400 AB2130               2AZ
149703002149703112-116038     149703006009681820246TCS CARRIER BAG MIDI   0000001000+00000035+00000+0001T   00000035+0000001503          1400 AB2090               2AZ
149704000149704               149704               170213JB     1400+00000+JB0000005905+0000005905+000000000+000000827+0000006732+0000000000+I40000006732+0000000000+Z
149704001149704112-116038     149704006009681820246TCS CARRIER BAG MIDI   0000001000+00000035+00000+0001T   00000035+0000001506          1400 AB2090               2AZ
149704002149704566-001234     149704006003000217793STICKERS LASER ASSTD   0000001000+00001578+00000+0001T   00001578+0000001506          1400 AB2130               2AZ
149704003149704566-000950     149704006003000216048STICKERS 3 STYLES 100PC0000001000+00002192+00000+0001T   00002192+0000001506          1400 AB2130               2AZ
149704004149704007-000537     149704000651728791017NOTE-PAD RND SMILE-FACE0000003000+00000700+00000+0001T   00000700+0000001506          1400 AB2130               2AZ
149705000149705               149705               170213JB     1400+00000+JB0000007047+0000007047+000000000+000000989+0000008030+0000000006+I20000000000+0000008030+Z
149705001149705112-116038     149705006009681820246TCS CARRIER BAG MIDI   0000001000+00000035+00000+0001T   00000035+0000001508          1400 AB20902IC            2AZ
149705002149705304-001512     149705006003000036202FLOWER S/FLOWER 65CM   0000004000+00001753+00000+0001T   00001753+0000001508          1400 AB2510               2AZ
149706000149706               149706               170213JB     1400+00000+JB0000006563+0000006563+000000000+000000921+0000007484+0000000000+I40000007484+0000000000+Z
149706001149706077-000467     149706006003000329991GIFT-BAG STAMP 18X23CM 0000001000+00001753+00000+0001T   00001753+0000001512          1400 AB2112               2AZ
149706002149706018-000130     149706006001023867537MUG OCC LOVE MINI+HEART0000001000+00003507+00000+0001T   00003507+0000001512          1400 AB2515               2AZ
149706003149706112-116038     149706006009681820246TCS CARRIER BAG MIDI   0000001000+00000035+00000+0001T   00000035+0000001512          1400 AB2090               2AZ
149706004149706080-000133-A   149706006003000647019MINI VALENTINES CARD   0000001000+00000437+00000+0001T   00000437+0000001512          1400 AB2112               2AZ
149706005149706006-000173-C   149706006003000636518BALLOONS 1PC PINK      0000001000+00000218+00000+0001T   00000218+0000001512          1400 AB2131               2AZ
149706006149706006-001000     149706006003000093779HELIUM BALLOON FILL    0000001000+00000613+00000+0001T   00000613+0000001512          1400 AB2131               2AZ
149707000149707               149707               170213JB     1400+00000+JB0000007676+0000007676+000000000+000001076+0000008750+0000000002+I20000000000+0000008750+Z
149707001149707112-116069     149707006009681820277TCS CARRIER BAG JUMBO  0000001000+00000048+00000+0001T   00000048+0000001522          1400 AB2090               2AZ
149707002149707079-001001     149707006003000448593CANVAS A3 WOOD MOUNTED 0000001000+00004385+00000+0001T   00004385+0000001522          1400 AB2130               2AZ
149707003149707079-006494     149707006003000159864GLITTER GLUE 5PCE 11cm 0000001000+00001490+00000+0001T   00001490+0000001522          1400 AB2130               2AZ
149707004149707079-003012     149707006003000447893A/TUBE 75ML VIOLET     0000001000+00001753+00000+0001T   00001753+0000001522          1400 AB2130               2AZ
149708000149708               149708               170213JB     1400+00000+JB0000012310+0000012310+000000000+000001726+0000014036+0000000000+I40000014036+0000000000+Z
149708001149708112-116038     149708006009681820246TCS CARRIER BAG MIDI   0000001000+00000035+00000+0001T   00000035+0000001524          1400 AB2090               2AZ
149708002149708065-006072     149708006003000466627WOODEN HARMONICA 12.7cm0000001000+00005262+00000+0001T   00005262+0000001524          1400 AB2745               2AZ
149708003149708159-002369     149708006001023999191TOOTHBRUSH HOLDER PL 3 0000002000+00002630+00000+0001T   00002630+0000001524          1400 AB2200               2AZ
149708004149708089-000230     149708006003000486083KEY CHAIN SILVER BAG   0000001000+00001753+00000+0001T   00002630+0008121524          1400 AB2205               2AZ
149709000149709               149709               170213JB     1400+00000+JB0000002192+0000002192+000000000+000000307+0000002490+0000000009+I20000000000+0000002490+Z
149709001149709366-002695     149709006003000222766DRESS UP HAT ROUND GLIT0000001000+00002192+00000+0001T   00002192+0000001528          1400 AB2131               2AZ
149710000149710               149710               170213JB     1400+00000+JB0000004066+0000004066+000000000+000000571+0000004630+0000000007+I20000000000+0000004630+Z
149710001149710251-000040     149710006001023515865SEALTAPE CLEAR 48mmx50m0000001000+00001227+00000+0001T   00001227+0000001530          1400 AB2810               2AZ
149710002149710252-000021     149710006001023475213CURTAIN WIRE+HOOKS+EYES0000001000+00001753+00000+0001T   00001753+0000001530          1400 AB2810               2AZ
149710003149710112-116038     149710006009681820246TCS CARRIER BAG MIDI   0000001000+00000035+00000+0001T   00000035+0000001530          1400 AB2090               2AZ
149710004149710079-009702-B   149710008427973059491PAPER SIRIO A2 WHITE   0000001000+00001051+00000+0001T   00001051+0000001530          1400 AB2130               2AZ
149711000149711               149711               170213JB     1400+00000+JB0000001753+0000001753+000000000+000000246+0000001990+0000000009+I20000000000+0000001990+Z
149711001149711077-000358     149711006003000329977GIFT-BAG KIDS 25X32CM  0000001000+00001753+00000+0001T   00001753+0000001531          1400 AB2112               2AZ
149712000149712               149712               170213JB     1400+00000+JB0000001753+0000001753+000000000+000000246+0000001990+0000000009+I20000000000+0000001990+Z
149712001149712016-006514     149712006003000295432S/JAR EMBOSSED 500ML   0000001000+00001753+00000+0001T   00001753+0000001532          1400 AB2300               2AZ
149713000149713               149713               170213JB     1400+00000+JB0000008819+0000008819+000000000+000001235+0000010054+0000000000+I10000009994+0000000060+Z
149713001149713112-116069     149713006009681820277TCS CARRIER BAG JUMBO  0000001000+00000048+00000+0001T   00000048+0000001537          1400 AB2090               2AZ
149713002149713031-000902-D   149713006003000462957P/FRAME PL INNER-RIDGES0000001000+00008771+00000+0001T   00008771+0000001537          1400 AB2510               2AZ
149714000149714               149714               170213JB     1400+00000+JB0000020473+0000020473+000000000+000002872+0000023345+0000000000+I40000023345+0000000000+Z
149714001149714112-116069     149714006009681820277TCS CARRIER BAG JUMBO  0000001000+00000048+00000+0001T   00000048+0000001544          1400 AB2090               2AZ
149714002149714903-002851     149714000000087108538MENTOS ROLL STRAWBERRY 0000001000+00001051+00000+0001T   00001051+0000001544          1400 AB2150               2AZ
149714003149714903-000619     149714006003000672455SWT LOLLY STR/BRRY 140G0000001000+00001753+00000+0001T   00001753+0000001544          1400 AB2150               2AZ
149714004149714903-000844     149714005010478432567SWT CANDY DL LUV HEARTS0000001000+00001314+00000+0001T   00001314+0000001544          1400 AB2150               2AZ
149714005149714903-000891     149714006009702258997SWT GUM BEECHIES MUSK  0000004000+00000788+00000+0001T   00000788+0000001544          1400 AB2150               2AZ
149714006149714075-000417     149714006003000622849BAG LADIES DENIM ASSTD 0000001000+00011402+00000+0001T   00011402+0000001544          1400 AB2160               2AZ
149714007149714903-000059     149714006002099001269SWT GS NOVELTY ALIEN VA0000001000+00001753+00000+0001T   00001753+0000001544          1400 AB2150               2AZ
149715000149715               149715               170213JB     1400+00000+JB0000011253+0000011253+000000000+000001578+0000012831+0000000000+I40000012831+0000000000+Z
149715001149715112-116038     149715006009681820246TCS CARRIER BAG MIDI   0000001000+00000035+00000+0001T   00000035+0000001559          1400 AB2090               2AZ
149715002149715077-000382     149715006003000247820GIFT-BAG MED 18X23CM   0000001000+00001753+00000+0001T   00001753+0000001559          1400 AB2112               2AZ
149715003149715077-000311     149715006001023608666GIFT-BAG 11X14CM GLOSS 0000001000+00000613+00000+0001T   00000613+0000001559          1400 AB2112               2AZ
149715004149715903-000619     149715006003000672455SWT LOLLY STR/BRRY 140G0000001000+00001753+00000+0001T   00001753+0000001559          1400 AB2150               2AZ
149715005149715903-002900     149715005996071650648QUICK MILK 5 CHOCO 5PC 0000001000+00001578+00000+0001T   00001578+0000001559          1400 AB2150               2AZ
149715006149715089-000033     149715006003000621217KEY CHAIN MOM POLY ASST0000001000+00001753+00000+0001T   00002630+0008121559          1400 AB2205               2AZ
149715007149715206-000630     149715006003000631919SPECTACLE CLEANING BRUS0000002000+00001227+00000+0001T   00001227+0000001559          1400 AB2321               2AZ
149715008149715903-005000     149715006002580020007SWT CT MALLOW FISH 120g0000001000+00001314+00000+0001T   00001314+0000001559          1400 AB2150               2AZ
149716000149716               149716               170213JB     1400+00000+JB0000002015+0000002015+000000000+000000283+0000002290+0000000008+I20000000000+0000002290+Z
149716001149716903-000087     149716006001704000161SWT SPECKLED-EGGS 50G  0000001000+00001139+00000+0001T   00001139+0000001559          1400 AB2150               2AZ
149716002149716903-000503     149716006001704006118SWT VAMPIRE FANGS 60G  0000001000+00000876+00000+0001T   00000876+0000001559          1400 AB2150               2AZ
149717000149717               149717               170213JB     1400+00000+JB0000004910+0000004910+000000000+000000688+0000005590+0000000008+I20000000000+0000005590+Z
149717001149717077-000380     149717006003000247585GIFT-BAG 33X45CM S/COL 0000002000+00002455+00000+0001T   00002455+0000001600          1400 AB2112               2AZ
149718000149718               149718               170213JB     1400+00000+JB0000007051+0000007051+000000000+000000988+0000008030+0000000009+I20000000000+0000008030+Z
149718001149718174-000305     149718006003000105502TRAVEL NECK-PILLOW     0000001000+00007016+00000+0001T   00007016+0000001601          1400 AB2205               2AZ
149718002149718112-116038     149718006009681820246TCS CARRIER BAG MIDI   0000001000+00000035+00000+0001T   00000035+0000001601          1400 AB2090               2AZ
149719000149719               149719               170213JB     1400+00000+JB0000002541+0000002541+000000000+000000357+0000002898+0000000000+I40000002898+0000000000+Z
149719001149719077-000299-A   149719006003000670888GIFT-BAG PAPER JMB LOVE0000001000+00001753+00000+0001T   00001753+0000001603          1400 AB2112               2AZ
149719002149719077-000010-C   149719006001023123879CREPE-PAPER RED        0000001000+00000788+00000+0001T   00000788+0000001603          1400 AB2112               2AZ
149720000149720               149720               170213JB     1400+00000+JB0000002576+0000002576+000000000+000000362+0000002930+0000000008+I20000000000+0000002930+Z
149720001149720112-116038     149720006009681820246TCS CARRIER BAG MIDI   0000001000+00000035+00000+0001T   00000035+0000001605          1400 AB2090               2AZ
149720002149720077-000005-D   149720006003000414567PAPER TISSUE 50x70cm   0000001000+00001753+00000+0001T   00001753+0000001605          1400 AB2112               2AZ
149720003149720077-000010-F   149720006003453000461CREPE-PAPER BLUE       0000001000+00000788+00000+0001T   00000788+0000001605          1400 AB2112               2AZ
149721000149721               149721               170213JB     1400+00000+JB0000016431+0000016431+000000000+000002302+0000018733+0000000000+I40000018733+0000000000+Z
149721001149721112-116038     149721006009681820246TCS CARRIER BAG MIDI   0000001000+00000035+00000+0001T   00000035+0000001607          1400 AB2090               2AZ
149721002149721368-000175     149721006003000270316PLUSH BEAR 4 ASSTD 18CM0000002000+00006139+00000+0001T   00006139+0000001607          1400 AB2745               2AZ
149721003149721077-000452     149721006003000284986G/BAG METALLIC MED EMB 0000001000+00001490+00000+0001T   00001490+0000001607          1400 AB2112               2AZ
149721004149721077-000310     149721006001023608635GIFT-BAG 18X23CM GLOSS 0000002000+00001314+00000+0001T   00001314+0000001607          1400 AB2112               2AZ
149722000149722               149722               170213JB     1400+00000+JB0000006515+0000006515+000000000+000000917+0000007430+0000000002+I20000000000+0000007430+Z
149722001149722077-000452     149722006003000284986G/BAG METALLIC MED EMB 0000002000+00001490+00000+0001T   00001490+0000001611          1400 AB2112               2AZ
149722002149722077-000314     149722006003000181148GIFT-BAG 11X14CM MATT  0000002000+00000876+00000+0001T   00000876+0000001611          1400 AB2112               2AZ
149722003149722112-116038     149722006009681820246TCS CARRIER BAG MIDI   0000001000+00000035+00000+0001T   00000035+0000001611          1400 AB2090               2AZ
149722004149722080-000133-A   149722006003000647019MINI VALENTINES CARD   0000004000+00000437+00000+0001T   00000437+0000001611          1400 AB2112               2AZ
149723000149723               149723               170213JB     1400+00000+JB0000003769+0000003769+000000000+000000529+0000004298+0000000000+I40000004298+0000000000+Z
149723001149723492-055602     149723000078257556021SWIM-GOGGLES PLAY      0000001000+00002630+00000+0001T   00002630+0000001613          1400 AB2787               2AZ
149723002149723903-000087     149723006001704000161SWT SPECKLED-EGGS 50G  0000001000+00001139+00000+0001T   00001139+0000001613          1400 AB2150               2AZ
149724000149724               149724               170213JB     1400+00000+JB0000003417+0000003417+000000000+000000480+0000003897+0000000000+I40000003897+0000000000+Z
149724001149724077-000327     149724006001023677686GIFT-BAG 25X32CM E/D BA0000001000+00001490+00000+0001T   00001490+0000001614          1400 AB2112               2AZ
149724002149724077-000011-R   149724006001023808462P/TISSUE DARK 10-SHEETS0000001000+00000876+00000+0001T   00000876+0000001614          1400 AB2112               2AZ
149724003149724903-002852     149724000000087108040MENTOS ROLL SPEARMINT  0000001000+00001051+00000+0001T   00001051+0000001614          1400 AB2150               2AZ
149725000149725               149725               170213JB     1400+00000+JB0000004433+0000004433+000000000+000000621+0000005050+0000000004+I20000000000+0000005050+Z
149725001149725261-003901     149725006001023707451GUN SET PL POLICE+ACCES0000001000+00004385+00000+0001T   00004385+0000001617          1400 AB2710               2AZ
149725002149725112-116069     149725006009681820277TCS CARRIER BAG JUMBO  0000001000+00000048+00000+0001T   00000048+0000001617          1400 AB2090               2AZ
149726000149726               149726               170213JB     1400+00000+JB0000008798+0000008798+000000000+000001234+0000010032+0000000000+I10000009992+0000000040+Z
149726001149726112-116038     149726006009681820246TCS CARRIER BAG MIDI   0000001000+00000035+00000+0001T   00000035+0000001620          1400 AB2090               2AZ
149726002149726133-000017     149726006003000525171CLEANING-CLOTHS 5PCE   0000001000+00003507+00000+0001T   00003507+0000001620          1400 AB2212               2AZ
149726003149726252-000011     149726006001023475190CURTN-GLIDER ACETYL x500000003000+00000876+00000+0001T   00000876+0000001620          1400 AB2810               2AZ
149726004149726252-000013     149726006001023488107CURTN-HOOK R6 ACETYLx500000003000+00000876+00000+0001T   00000876+0000001620          1400 AB2810               2AZ
149727000149727               149727               170213JB     1400+00000+JB0000002630+0000002630+000000000+000000369+0000002990+0000000009+I20000000000+0000002990+Z
149727001149727082-096892     149727006001492968926SUNGLASS KIDS OVAL     0000001000+00002630+00000+0001T   00002630+0000001621          1400 AB2160               2AZ
149728000149728               149728               170213JB     1400+00000+JB0000001753+0000001753+000000000+000000246+0000001990+0000000009+I20000000000+0000001990+Z
149728001149728046-002016-PK2 149728004897006175056BATTERIES CR-2016  2PCE0000001000+00001753+00000+0001T   00001753+0000001622          1400 AB2312               2AZ
149729000149729               149729               170213JB     1400+00000+JB0000002678+0000002678+000000000+000000376+0000003050+0000000004+I20000000000+0000003050+Z
149729001149729077-000270     149729006003000395453GIFT-BAG PPR JMB 33X45 0000001000+00002630+00000+0001T   00002630+0000001626          1400 AB2112               2AZ
149729002149729112-116069     149729006009681820277TCS CARRIER BAG JUMBO  0000001000+00000048+00000+0001T   00000048+0000001626          1400 AB2090               2AZ
149730000149730               149730               170213JB     1400+00000+JB0000001578+0000001578+000000000+000000221+0000001799+0000000000+I40000001799+0000000000+Z
149730001149730080-000124     149730006003000297733CARD & ENV VALENTINES  0000001000+00001578+00000+0001T   00001578+0000001628          1400 AB2112               2AZ
149731000149731               149731               170213JB     1400+00000+JB0000000876+0000000876+000000000+000000123+0000000990+0000000009+I20000000000+0000000990+Z
149731001149731077-000011-C   149731006001023808523TISSUE 10xSHTS RED     0000001000+00000876+00000+0001T   00000876+0000001628          1400 AB2112               2AZ
149732000149732               149732               170213JB     1400+00000+JB0000002050+0000002050+000000000+000000288+0000002330+0000000008+I20000000000+0000002330+Z
149732001149732018-000127     149732006001023380289MUG OCC STRAIGHT LOVE  0000001000+00001578+00000+0001T   00001753+0006471630          1400 AB2515               2AZ
149732002149732112-116038     149732006009681820246TCS CARRIER BAG MIDI   0000001000+00000035+00000+0001T   00000035+0000001630          1400 AB2090               2AZ
149732003149732080-000133     149732006003000535613CARD&ENV MINI ASTD DSGN0000001000+00000437+00000+0001T   00000437+0000001630          1400 AB2112               2AZ
149733000149733               149733               170213JB     1400+00000+JB0000027625+0000027625+000000000+000003870+0000031495+0000000000+I40000031495+0000000000+Z
149733001149733077-000299-A   149733006003000670888GIFT-BAG PAPER JMB LOVE0000001000+00001753+00000+0001T   00001753+0000001633          1400 AB2112               2AZ
149733002149733368-000012     149733006003000610464PLUSH BEAR 30cm SITTING0000001000+00008771+00000+0001T   00008771+0000001633          1400 AB2745               2AZ
149733003149733077-000270     149733006003000395453GIFT-BAG PPR JMB 33X45 0000001000+00002630+00000+0001T   00002630+0000001633          1400 AB2112               2AZ
149733004149733080-000127     149733006003000424351VALENTINES DAY 36x24CM 0000001000+00002192+00000+0001T   00002192+0000001633          1400 AB2112               2AZ
149733005149733368-000111     149733006001023780812PLUSH BEAR/DOG 29CM    0000001000+00012279+00000+0001T   00012279+0000001633          1400 AB2745               2AZ
149734000149734               149734               170213JB     1400+00000+JB0000018773+0000018773+000000000+000002630+0000021400+0000000003+I20000000000+0000021400+Z
149734001149734112-116069     149734006009681820277TCS CARRIER BAG JUMBO  0000001000+00000048+00000+0001T   00000048+0000001635          1400 AB2090               2AZ
149734002149734080-000127     149734006003000424351VALENTINES DAY 36x24CM 0000001000+00002192+00000+0001T   00002192+0000001635          1400 AB2112               2AZ
149734003149734104-000070     149734006003000684359BASKET PL 22x27cm LACE 0000001000+00003507+00000+0001T   00003507+0000001635          1400 AB2210               2AZ
149734004149734001-091415     149734006003000329113W/GLS OCC. LOVE 2PC 2800000001000+00008771+00000+0001T   00009648+0006471635          1400 AB2515               2AZ
149734005149734080-000124     149734006003000297733CARD & ENV VALENTINES  0000001000+00001578+00000+0001T   00001578+0000001635          1400 AB2112               2AZ
149734006149734077-000011-D   149734006001023808554TISSUE-WRAP WHITE 10PCE0000001000+00000876+00000+0001T   00000876+0000001635          1400 AB2112               2AZ
149734007149734112-116069     149734006009681820277TCS CARRIER BAG JUMBO  0000001000+00000048+00000+0001T   00000048+0000001635          1400 AB2090               2AZ
149734008149734077-000289     149734006001023901996GIFT BOX 20x25x11cm    0000001000+00001753+00000+0001T   00001753+0000001635          1400 AB2112               2AZ
149735000149735               149735               170213JB     1400+00000+JB0000028448+0000028448+000000000+000003986+0000032434+0000000000+I40000032434+0000000000+Z
149735001149735112-116069     149735006009681820277TCS CARRIER BAG JUMBO  0000001000+00000048+00000+0001T   00000048+0000001639          1400 AB2090               2AZ
149735002149735077-000011-D   149735006001023808554TISSUE-WRAP WHITE 10PCE0000001000+00000876+00000+0001T   00000876+0000001639          1400 AB2112               2AZ
149735003149735077-000452     149735006003000284986G/BAG METALLIC MED EMB 0000005000+00001490+00000+0001T   00001490+0000001639          1400 AB2112               2AZ
149735004149735018-005009     149735006001023725608MUG W/PLUSH-BEAR LOVE  0000005000+00003507+00000+0001T   00003507+0000001639          1400 AB2515               2AZ
149735005149735903-000120     149735006002099001665SWEET GS ZILLIONS 50g  0000002000+00000700+00000+0001T   00000700+0000001639          1400 AB2150               2AZ
149735006149735903-000087     149735006001704000161SWT SPECKLED-EGGS 50G  0000001000+00001139+00000+0001T   00001139+0000001639          1400 AB2150               2AZ
149736000149736               149736               170213JB     1400+00000+JB0000008819+0000008819+000000000+000001235+0000010050+0000000004+I20000000000+0000010050+Z
149736001149736486-002307     149736006003000443086W/CLOCK QTZ PL ANTIQUE 0000001000+00008771+00000+0001T   00008771+0000001639          1400 AB2510               2AZ
149736002149736112-116069     149736006009681820277TCS CARRIER BAG JUMBO  0000001000+00000048+00000+0001T   00000048+0000001639          1400 AB2090               2AZ
149737000149737               149737               170213JB     1400+00000+JB0000003418+0000003418+000000000+000000479+0000003890+0000000007+I20000000000+0000003890+Z
149737001149737028-000799     149737006001023812186SKEWERS BAMBOO 100PCE  0000001000+00001578+00000+0001T   00001578+0000001643          1400 AB2305               2AZ
149737002149737028-000795     149737006001023812063SKEWERS 10cm 100PCE 3mm0000001000+00000964+00000+0001T   00000964+0000001643          1400 AB2305               2AZ
149737003149737028-000797     149737006001023812124SKEWERS 15cm 100PCE    0000001000+00000876+00000+0001T   00000876+0000001643          1400 AB2305               2AZ
149738000149738               149738               170213JB     1400+00000+JB0000008806+0000008806+000000000+000001233+0000010030+0000000009+I20000000000+0000010030+Z
149738001149738039-000799     149738006001023692382CANDLES TEALITE 100PCE 0000001000+00008771+00000+0001T   00008771+0000001649          1400 AB2510               2AZ
149738002149738112-116038     149738006009681820246TCS CARRIER BAG MIDI   0000001000+00000035+00000+0001T   00000035+0000001649          1400 AB2090               2AZ
149739000149739               149739               170213JB     1400+00000+JB0000002629+0000002629+000000000+000000369+0000002998+0000000000+I40000002998+0000000000+Z
149739001149739077-000316     149739006001023609731GIFT-BAG 25X32CM MATT  0000001000+00001753+00000+0001T   00001753+0000001651          1400 AB2112               2AZ
149739002149739903-000503     149739006001704006118SWT VAMPIRE FANGS 60G  0000001000+00000876+00000+0001T   00000876+0000001651          1400 AB2150               2AZ
149740000149740               149740               170213JB     1400+00000+JB0000014690+0000014690+000000000+000002060+0000016750+0000000000+I20000000000+0000016750+Z
149740001149740112-116069     149740006009681820277TCS CARRIER BAG JUMBO  0000001000+00000048+00000+0001T   00000048+0000001655          1400 AB2090               2AZ
149740002149740162-096646     149740006001492966465#TAG HOT DEALS KIDS HR 0000001000+00002630+00000+0001T   00002630+0000001655          1400 AB2160               2AZ
149740003149740366-006103     149740006001023786944DRESS UP FACE PAINT SET0000001000+00002630+00000+0001T   00002630+0000001655          1400 AB2131               2AZ
149740004149740079-006496     149740006003000160105GLITTER SHAKERS        0000001000+00001753+00000+0001T   00001753+0000001655          1400 AB2130               2AZ
149740005149740079-006494     149740006003000159864GLITTER GLUE 5PCE 11cm 0000001000+00001490+00000+0001T   00001490+0000001655          1400 AB2130               2AZ
149740006149740366-000900     149740006003000006960DRESS UP WINGS BUG     0000001000+00006139+00000+0001T   00006139+0000001655          1400 AB2131               2AZ
149741000149741               149741               170213JB     1400+00000+JB0000014079+0000014079+000000000+000001972+0000016051+0000000000+I40000016051+0000000000+Z
149741001149741112-116069     149741006009681820277TCS CARRIER BAG JUMBO  0000001000+00000048+00000+0001T   00000048+0000001658          1400 AB2090               2AZ
149741002149741077-000299-A   149741006003000670888GIFT-BAG PAPER JMB LOVE0000001000+00001753+00000+0001T   00001753+0000001658          1400 AB2112               2AZ
149741003149741368-000614     149741006001023705808PLUSH LOVE 30cm        0000001000+00008771+00000+0001T   00008771+0000001658          1400 AB2745               2AZ
149741004149741018-000136     149741006001023659026MUG OCC LOVE W/PLUSH   0000001000+00003507+00000+0001T   00003507+0000001658          1400 AB2515               2AZ
149742000149742               149742               170213JB     1400+00000+JB0000004120+0000004120+000000000+000000578+0000004690+0000000008+I20000000000+0000004690+Z
149742001149742077-000115-B   149742006003000181025GIFT-WRAP PPR 700MMX2M 0000001000+00002630+00000+0001T   00002630+0000001659          1400 AB2112               2AZ
149742002149742071-005214     149742006003000152544CELLOTAPE SUPER REFILL 0000001000+00001490+00000+0001T   00001490+0000001659          1400 AB2130               2AZ
149743000149743               149743               170213JB     1400+00000+JB0000007928+0000007928+000000000+000001111+0000009039+0000000000+I40000009039+0000000000+Z
149743001149743301-085007     149743006003000673698ORN OCC. LOVE S/PLAQUE 0000001000+00007893+00000+0001T   00007893+0000001704          1400 AB2505               2AZ
149743002149743112-116038     149743006009681820246TCS CARRIER BAG MIDI   0000001000+00000035+00000+0001T   00000035+0000001704          1400 AB2090               2AZ
149744000149744               149744               170213JB     1400+00000+JB0000004823+0000004823+000000000+000000676+0000005490+0000000009+I20000000000+0000005490+Z
149744001149744024-000113     149744006001023422194C/PAN N/STICK 20X4.5CM 0000001000+00004823+00000+0001T   00004823+0000001705          1400 AB2300               2AZ
149745000149745               149745               170213JB     1400+00000+JB0000016182+0000016182+000000000+000002267+0000018449+0000000000+I40000018449+0000000000+Z
149745001149745112-116069     149745006009681820277TCS CARRIER BAG JUMBO  0000001000+00000048+00000+0001T   00000048+0000001707          1400 AB2090               2AZ
149745002149745031-000902-D   149745006003000462957P/FRAME PL INNER-RIDGES0000001000+00008771+00000+0001T   00008771+0000001707          1400 AB2510               2AZ
149745003149745039-000108     149745006001023524034TEA-LITE CANDLES 8PCE  0000001000+00001490+00000+0001T   00001490+0000001707          1400 AB2510               2AZ
149745004149745006-000120     149745006001023346889BALLOONS 10PC MIX COL  0000001000+00001753+00000+0001T   00001753+0000001707          1400 AB2131               2AZ
149745005149745077-000311     149745006001023608666GIFT-BAG 11X14CM GLOSS 0000001000+00000613+00000+0001T   00000613+0000001707          1400 AB2112               2AZ
149745006149745089-000018     149745006003000176724KEY CHAIN INSPIRATION  0000001000+00003507+00000+0001T   00003507+0000001707          1400 AB2205               2AZ
149746000149746               149746               170213JB     1400+00000+JB0000001314+0000001314+000000000+000000184+0000001490+0000000008+I20000000000+0000001490+Z
149746001149746077-000312     149746006001023608697GIFT-BAG 10X35CM GLOSS 0000001000+00001314+00000+0001T   00001314+0000001708          1400 AB2112               2AZ
149747000149747               149747               170213JB     1400+00000+JB0000002630+0000002630+000000000+000000369+0000002990+0000000009+I20000000000+0000002990+Z
149747001149747077-000270     149747006003000395453GIFT-BAG PPR JMB 33X45 0000001000+00002630+00000+0001T   00002630+0000001709          1400 AB2112               2AZ
149748000149748               149748               170213JB     1400+00000+JB0000001753+0000001753+000000000+000000246+0000001990+0000000009+I20000000000+0000001990+Z
149748001149748089-000004     149748006003000137749KEY CHAIN MTL CHARMS   0000001000+00001753+00000+0001T   00001753+0000001710          1400 AB2205               2AZ
149749000149749               149749               170213JB     1400+00000+JB0000019778+0000019778+000000000+000002771+0000022549+0000000000+I40000022549+0000000000+Z
149749001149749112-116069     149749006009681820277TCS CARRIER BAG JUMBO  0000001000+00000048+00000+0001T   00000048+0000001713          1400 AB2090               2AZ
149749002149749077-000299-A   149749006003000670888GIFT-BAG PAPER JMB LOVE0000001000+00001753+00000+0001T   00001753+0000001713          1400 AB2112               2AZ
149749003149749077-000011-D   149749006001023808554TISSUE-WRAP WHITE 10PCE0000001000+00000876+00000+0001T   00000876+0000001713          1400 AB2112               2AZ
149749004149749039-000799     149749006001023692382CANDLES TEALITE 100PCE 0000001000+00008771+00000+0001T   00008771+0000001713          1400 AB2510               2AZ
149749005149749206-000180     149749006003000631223TEA INFUSER TEAMAN     0000001000+00004385+00000+0001T   00004385+0000001713          1400 AB2321               2AZ
149749006149749206-000120     149749006003000628308PEELER CARROT SHARPENER0000001000+00001753+00000+0001T   00001753+0000001713          1400 AB2321               2AZ
149749007149749206-000150     149749006003000628667SLICER CUCUMBER        0000001000+00002192+00000+0001T   00002192+0000001713          1400 AB2321               2AZ
149750000149750               149750               170213JB     1400+00000+JB0000025741+0000025741+000000000+000003607+0000029348+0000000000+I40000029348+0000000000+Z
149750001149750112-116069     149750006009681820277TCS CARRIER BAG JUMBO  0000001000+00000048+00000+0001T   00000048+0000001719          1400 AB2090               2AZ
149750002149750077-000299-A   149750006003000670888GIFT-BAG PAPER JMB LOVE0000001000+00001753+00000+0001T   00001753+0000001719          1400 AB2112               2AZ
149750003149750077-000315     149750006003000181186GIFT-BAG 20x28cm MATT  0000002000+00001578+00000+0001T   00001578+0000001719          1400 AB2112               2AZ
149750004149750077-000005-B   149750006003000326617PAPER TISSUE PATTERN   0000001000+00002630+00000+0001T   00002630+0000001719          1400 AB2112               2AZ
149750005149750368-000104     149750006001023751348PLUSH BEAR RUFFLED-LOOK0000001000+00006139+00000+0001T   00006139+0000001719          1400 AB2745               2AZ
149750006149750368-000175     149750006003000270316PLUSH BEAR 4 ASSTD 18CM0000001000+00006139+00000+0001T   00006139+0000001719          1400 AB2745               2AZ
149750007149750050-000264-Z   149750006001023777072PADLOCK BRS 38mm CARDED0000001000+00005876+00000+0001T   00005876+0000001719          1400 AB2855               2AZ
149751000149751               149751               170213JB     1400+00000+JB0000001753+0000001753+000000000+000000246+0000001990+0000000009+I20000000000+0000001990+Z
149751001149751077-000299-A   149751006003000670888GIFT-BAG PAPER JMB LOVE0000001000+00001753+00000+0001T   00001753+0000001719          1400 AB2112               2AZ
149752000149752               149752               170213JB     1400+00000+JB0000001752+0000001752+000000000+000000246+0000001990+0000000008+I20000000000+0000001990+Z
149752001149752077-000314     149752006003000181148GIFT-BAG 11X14CM MATT  0000001000+00000876+00000+0001T   00000876+0000001758          1400 AB2112               2AZ
149752002149752077-000011-D   149752006001023808554TISSUE-WRAP WHITE 10PCE0000001000+00000876+00000+0001T   00000876+0000001758          1400 AB2112               2AZ
149753000149753               149753               170213JB     1400+00000+JB0000003155+0000003155+000000000+000000443+0000003590+0000000008+I20000000000+0000003590+Z
149753001149753039-001023     149753006003000466337CANDLE TEA-LITE METALIC0000001000+00001753+00000+0001T   00001753+0000001759          1400 AB2510               2AZ
149753002149753304-001204     149753006001023737984FLOWER OCC. TEDDY/ROSES0000001000+00001402+00000+0001T   00001490+0006471759          1400 AB2510               2AZ
149754000149754               149754               170213JB     1400+00000+JB0000002630+0000002630+000000000+000000369+0000002990+0000000009+I20000000000+0000002990+Z
149754001149754562-000010     149754006001023762528KID'S PLAY DOUGH       0000001000+00002630+00000+0001T   00002630+0000001815          1400 AB2755               2AZ
149755000149755               149755               170213JB     1400+00000+JB0000011040-0000000000+000000000+000000000+0000011040-0000000000+I20000000000+0000011040-Z
149755001149755001-999901     149755000000000999901CASUAL WAGES           0000001000-00011040+00000+0001X  9508140309082 0600MMOKON0000000000 AB29012IC E          2 Z
149756000149756               149756               170213JB     1400+00000+JB0000003507+0000003507+000000000+000000491+0000003990+0000000008+I20000000000+0000003990+Z
149756001149756018-000136     149756006001023659026MUG OCC LOVE W/PLUSH   0000001000+00003507+00000+0001T   00003507+0000001840          1400 AB2515               2AZ
149757000149757               149757               170213JB     1400+00000+JB0000000035+0000000035+000000000+000000005+0000000040+0000000000+I20000000000+0000000040+Z
149757001149757112-116038     149757006009681820246TCS CARRIER BAG MIDI   0000001000+00000035+00000+0001T   00000035+0000001841          1400 AB2090               2AZ
149758000149758               149758               170213JB     1400+00000+JB0000003542+0000003542+000000000+000000496+0000004030+0000000008+I20000000000+0000004030+Z
149758001149758112-116038     149758006009681820246TCS CARRIER BAG MIDI   0000001000+00000035+00000+0001T   00000035+0000001842          1400 AB2090               2AZ
149758002149758018-000136     149758006001023659026MUG OCC LOVE W/PLUSH   0000001000+00003507+00000+0001T   00003507+0000001842          1400 AB2515               2AZ
149759000149759               149759               170213JB     1400+00000+JB0000001227+0000001227+000000000+000000172+0000001390+0000000009+I20000000000+0000001390+Z
149759001149759077-000318     149759006001023609755GIFT-BAG 18X23CM E/D AN0000001000+00001227+00000+0001T   00001227+0000001844          1400 AB2112               2AZ
A17021300                                          11003616JBSLAVE 2                       AB22IC
A17021301                                          11071336JBSLAVE 2                       AB22IC
A17021302                                          12061718JBSLAVE 2                       AB22IC
A17021303                                          13490850JBSLAVE 2                       AB22IC
B14969500                                          170213JB071-081101-A   14292996SLAVE 2     AB22IC0000002000+0000001000+0000000000000+
B14970500                                          170213JB112-116038     15075452SLAVE 2     AB22IC0000002000+0000001000+0000000000000+
M17021391                              CASH        JBSLAVE 2                       Z-REPORT No.   652TOTAL (Sales - Refunds)           9553.37       CASH TO BE BANKED                 4679.20       DEBIT CARDS                          0.00       CREDIT CARDS                      4763.77       Z-READING                         9442.97       AIRTIME DEBIT CARD SALES             0.00       AIRTIME CARD SALES                   0.00       OVERS/UNDERS                         0.00       AIRTIME CASH SALES                   0.00       GIFT CARDS                           0.00       GIFT CARD CASH SALES                 0.00       CASUAL WAGES                       110.40       T O T A L  CASH PAYOUTS            110.40                                                                                                                                                                                                                                                                                                      Z
M17021392                              CASH        JBABSENT                                                                                                                                                                                          ANNUAL LEAVE                                                                                                                                                                                    DAY OFF                                                                                                                                                                                         COMMENTS                                                          Z-READING R9553.37                                                                                                                                                                                                                                                                                                           Z
Y17021300                                          JB00000000858566+000122
ZJB17021319523 SLAVE 2      SALES DATA                     NEXT INVOICE NO.  149760 0652
X JB Slave 2 First invoice 149636 170213 Last invoice 149759 170213 Next invoice 149760 Total number of records 000000478 clbackup completed 19:52:20
