213945000213945               213945               170213JC     1400+00000+JC0000016662+0000016662+000000000+000002333+0000018990+0000000005+I20000000000+0000018990+Z
213945001213945028-000030     213945006001023810908COOLER-BAG 6PACK       0000003000+00004385+00000+0001T   00004385+0000000918          1400 TT7305               1AZ
213945002213945028-000031     213945006003000270897COOLER-BAG THERMAL 6PK 0000001000+00003507+00000+0001T   00003507+0000000918          1400 TT7305               1AZ
213946000213946               213946               170213JC     1400+00000+JC0000007893+0000007893+000000000+000001106+0000008990+0000000009+I20000000000+0000008990+Z
213946001213946007-010504     213946006002923014960BLACKBOARD EASEL       0000001000+00007893+00000+0001T   00007893+0000000919          1400 TT7130               1AZ
213947000213947               213947               170213JC     1400+00000+JC0000002365+0000002365+000000000+000000332+0000002690+0000000007+I20000000000+0000002690+Z
213947001213947027-078282     213947006001023767837SCOURER 25g SPIRAL-BALL0000002000+00000613+00000+0001T   00000613+0000001338          1400 EO7212               1AZ
213947002213947140-006004     213947006001023628077FLY-SWATTER RUBBER     0000001000+00001139+00000+0001T   00001139+0000001338          1400 EO7830               1AZ
213948000213948               213948               170213JC     1400+00000+JC0000002676+0000002676+000000000+000000375+0000003050+0000000001+I20000000000+0000003050+Z
213948001213948107-004105     213948006002923010504BUCKET 9L OPEN         0000002000+00001314+00000+0001T   00001314+0000001339          1400 EO7210               1AZ
213948002213948112-116069     213948006003000535064TCS CARRIER BAG JUMBO  0000001000+00000048+00000+0001T   00000048+0000001339          1400 EO7090               1AZ
213949000213949               213949               170213JC     1400+00000+JC0000001490+0000001490+000000000+000000209+0000001690+0000000009+I20000000000+0000001690+Z
213949001213949039-000108     213949006001023524034TEA-LITE CANDLES 8PCE  0000001000+00001490+00000+0001T   00001490+0000001340          1400 EO7510               1AZ
213950000213950               213950               170213JC     1400+00000+JC0000006173+0000006173+000000000+000000865+0000007030+0000000008+I20000000000+0000007030+Z
213950001213950368-000049     213950006003000536955PLUSH BEAR 15cm LOVE   0000001000+00004385+00000+0001T   00004385+0000001341          1400 EO7745               1AZ
213950002213950150-012228-H   213950006001023416773DOOR-STOPPERS SET-OF-2 0000001000+00001753+00000+0001T   00001753+0000001341          1400 EO7810               1AZ
213950003213950112-116038     213950006003000534906TCS CARRIER BAG MIDI   0000001000+00000035+00000+0001T   00000035+0000001341          1400 EO7090               1AZ
213951000213951               213951               170213JC     1400+00000+JC0000002630+0000002630+000000000+000000369+0000002990+0000000009+I20000000000+0000002990+Z
213951001213951006-000111     213951006003000519385BALLOONS LARGE 12PCE   0000001000+00002630+00000+0001T   00002630+0000001343          1400 EO7131               1AZ
213952000213952               213952               170213JC     1400+00000+JC0000004385+0000004385+000000000+000000614+0000004990+0000000009+I20000000000+0000004990+Z
213952001213952006-000190     213952006003000685530BALLOONS LOVE 81x91cm  0000001000+00004385+00000+0001T   00004385+0000001343          1400 EO7131               1AZ
213953000213953               213953               170213JC     1400+00000+JC0000010524+0000010524+000000000+000001474+0000011998+0000000000+I40000011998+0000000000+Z
213953001213953077-000381     213953006003000247707GIFT-BAG 25X32CM S/COL 0000001000+00001753+00000+0001T   00001753+0000001346          1400 EO7112               1AZ
213953002213953469-000301     213953006003000128167B/BLOCKS 22PC SMALL    0000001000+00008771+00000+0001T   00008771+0000001346          1400 EO7755               1AZ
213954000213954               213954               170213JC     1400+00000+JC0000008814+0000008814+000000000+000001236+0000010050+0000000000+I40000010050+0000000000+Z
213954001213954903-000503     213954006001704006118SWT VAMPIRE FANGS 60G  0000001000+00000876+00000+0001T   00000876+0000001348          1400 EO7150               1AZ
213954002213954079-000280     213954006003000160723PAINT READYMIX 6PCE    0000001000+00002630+00000+0001T   00002630+0000001348          1400 EO7130               1AZ
213954003213954903-000215     213954006002099001214SWT GS MALLOW TWIST PAC0000001000+00001753+00000+0001T   00001753+0000001348          1400 EO7150               1AZ
213954004213954365-002999     213954006001023583734KITCHEN-SET W/ACCESS.  0000001000+00003507+00000+0001T   00003507+0000001348          1400 EO7725               1AZ
213954005213954112-116069     213954006003000535064TCS CARRIER BAG JUMBO  0000001000+00000048+00000+0001T   00000048+0000001348          1400 EO7090               1AZ
213955000213955               213955               170213JC     1400+00000+JC0000004385-0000004385-000000000+000000614-0000005000-0000000001+I20000000000+0000005000-Z
213955001213955027-009027     213955006003000235803BROOM FLAT 1.2m HANDLE 0000001000-00004385+00000+0001T   00004385+0000001350          1400 TT72122IC            1 Z
213956000213956               213956               170213JC     1400+00000+JC0000010518+0000010518+000000000+000001475+0000011993+0000000000+I40000011993+0000000000+Z
213956001213956903-000120     213956006002099001665SWEET GS ZILLIONS 50g  0000001000+00000700+00000+0001T   00000700+0000001351          1400 TT7150               1AZ
213956002213956903-002850     213956000000087108262MENTOS ROLL FRUIT      0000001000+00001051+00000+0001T   00001051+0000001351          1400 TT7150               1AZ
213956003213956133-000010-A   213956006001023997647CLEANING CLOTH ROLL 30 0000001000+00003507+00000+0001T   00003507+0000001351          1400 TT7212               1AZ
213956004213956206-000110     213956006003000628186CHOPSTICKS PLASTIC KIDS0000002000+00002630+00000+0001T   00002630+0000001351          1400 TT7321               1AZ
213957000213957               213957               170213JC     1400+00000+JC0000056128+0000056128+000000000+000007862+0000063990+0000000000+I40000063990+0000000000+Z
213957001213957105-009017     213957006002923012843STORAGE BOX FROSTED 55L0000003000+00014034+00000+0001T   00014034+0000001354          1400 TT7210               1AZ
213957002213957027-008815     213957006003000439799DUSTER 62cm RUBBER-GRIP0000001000+00004385+00000+0001T   00004385+0000001354          1400 TT7212               1AZ
213957003213957200-003024     213957006001023657299REFUSE BAGS 20PCE BLACK0000002000+00001753+00000+0001T   00001753+0000001354          1400 TT7214               1AZ
213957004213957133-000016     213957006003000240609DUSTERS ORANGE PACK-3  0000001000+00001753+00000+0001T   00001753+0000001354          1400 TT7212               1AZ
213957005213957903-000698     213957006002099007032SWT CANDY ECLAIRS 90g  0000001000+00001139+00000+0001T   00001139+0000001354          1400 TT7150               1AZ
213957006213957200-003021     213957006003000276370REFUSE BAGS 30xSCENTED 0000001000+00002630+00000+0001T   00002630+0000001354          1400 TT7214               1AZ
213957007213957565-000044     213957006003000128280BARREL OF SLIME 100g   0000001000+00000613+00000+0001T   00000613+0000001354          1400 TT7745               1AZ
213958000213958               213958               170213JC     1400+00000+JC0000002630+0000002630+000000000+000000369+0000002990+0000000009+I20000000000+0000002990+Z
213958001213958032-000235     213958006001023468444MIRROR HAND 13X15CM    0000001000+00002630+00000+0001T   00002630+0000001355          1400 TT7510               1AZ
213959000213959               213959               170213JC     1400+00000+JC0000003542+0000003542+000000000+000000496+0000004030+0000000008+I20000000000+0000004030+Z
213959001213959018-000136     213959006001023659026MUG OCC LOVE W/PLUSH   0000001000+00003507+00000+0001T   00003507+0000001410          1400 EO7515               1AZ
213959002213959112-116038     213959006003000534906TCS CARRIER BAG MIDI   0000001000+00000035+00000+0001T   00000035+0000001410          1400 EO7090               1AZ
213960000213960               213960               170213JC     1400+00000+JC0000003768+0000003768+000000000+000000529+0000004290+0000000007+I20000000000+0000004290+Z
213960001213960080-000133     213960006003000535613CARD&ENV MINI ASTD DSGN0000001000+00000437+00000+0001T   00000437+0000001415          1400 EO7112               1AZ
213960002213960362-003000     213960006003000295258GIRL HEART NOTEBOOK    0000001000+00001753+00000+0001T   00002630+0008191415          1400 EO7160               1AZ
213960003213960077-000303     213960006001023593757GIFT-BAG PAPER MED     0000001000+00001578+00000+0001T   00001578+0000001415          1400 EO7112               1AZ
213961000213961               213961               170213JC     1400+00000+JC0000004823+0000004823+000000000+000000676+0000005490+0000000009+I20000000000+0000005490+Z
213961001213961301-085001     213961006003000297610ORN WATERBALL LOVE ASST0000001000+00004823+00000+0001T   00004823+0000001422          1400 EO7505               1AZ
213962000213962               213962               170213JC     1400+00000+JC0000001532+0000001532+000000000+000000215+0000001740+0000000007+I20000000000+0000001740+Z
213962001213962304-001011     213962006001023806727FLWR ROSE RED W/BEAR   0000002000+00000613+00000+0001T   00000788+0006471424          1400 EO75102IC            1AZ
213962002213962306-000020     213962006001023743145POCKET-TISSUES 10PCE   0000001000+00000306+00000+0001T   00000306+0000001424          1400 EO7200               1AZ
213963000213963               213963               170213JC     1400+00000+JC0000021535+0000021535+000000000+000003016+0000024551+0000000000+I40000024551+0000000000+Z
213963001213963001-091415     213963006003000329113W/GLS OCC. LOVE 2PC 2800000001000+00008771+00000+0001T   00009648+0006471426          1400 EO7515               1AZ
213963002213963080-000116     213963006003000253555CARD&ENVELOPE-HANDMADE 0000001000+00001753+00000+0001T   00001753+0000001426          1400 EO7112               1AZ
213963003213963301-085000     213963006003000674299 ORN OCC. LOVE HEARTS  0000001000+00002192+00000+0001T   00002192+0000001426          1400 EO7505               1AZ
213963004213963039-000799     213963006001023692382CANDLES TEALITE 100PCE 0000001000+00008771+00000+0001T   00008771+0000001426          1400 EO7510               1AZ
213963005213963112-116069     213963006003000535064TCS CARRIER BAG JUMBO  0000001000+00000048+00000+0001T   00000048+0000001426          1400 EO7090               1AZ
213964000213964               213964               170213JC     1400+00000+JC0000001314+0000001314+000000000+000000184+0000001490+0000000008+I20000000000+0000001490+Z
213964001213964046-000012     213964006904708013062BATTERIES AA  CARD-OF-40000001000+00001314+00000+0001T   00001314+0000001426          1400 EO7312               1AZ
213965000213965               213965               170213JC     1400+00000+JC0000002630+0000002630+000000000+000000369+0000002990+0000000009+I20000000000+0000002990+Z
213965001213965200-003021     213965006003000276370REFUSE BAGS 30xSCENTED 0000001000+00002630+00000+0001T   00002630+0000001437          1400 EO7214               1AZ
213966000213966               213966               170213JC     1400+00000+JC0000005083+0000005083+000000000+000000713+0000005796+0000000000+I40000005796+0000000000+Z
213966001213966039-000330     213966006003000283002BDAY-CANDLES+HLDERS 24P0000001000+00003507+00000+0001T   00003507+0000001444          1400 EO7510               1AZ
213966002213966077-000383     213966006003000247943GIFT-BAG 11X14CM S/COL 0000002000+00000788+00000+0001T   00000788+0000001444          1400 EO7112               1AZ
213967000213967               213967               170213JC     1400+00000+JC0000003507+0000003507+000000000+000000491+0000003990+0000000008+I20000000000+0000003990+Z
213967001213967031-000002     213967006001023851338FRAME FRIENDS 7.5x7.5cm0000001000+00003507+00000+0001T   00003507+0000001448          1400 EO7510               1AZ
213968000213968               213968               170213JC     1400+00000+JC0000004432+0000004432+000000000+000000621+0000005050+0000000003+I20000000000+0000005050+Z
213968001213968080-000127     213968006003000424351VALENTINES DAY 36x24CM 0000002000+00002192+00000+0001T   00002192+0000001451          1400 EO7112               1AZ
213968002213968112-116069     213968006003000535064TCS CARRIER BAG JUMBO  0000001000+00000048+00000+0001T   00000048+0000001451          1400 EO7090               1AZ
213969000213969               213969               170213JC     1400+00000+JC0000004385+0000004385+000000000+000000614+0000004990+0000000009+I20000000000+0000004990+Z
213969001213969084-000309     213969006001023905277MANICURE-SET 8PCE G/BOX0000001000+00004385+00000+0001T   00004385+0000001452          1400 EO7200               1AZ
213970000213970               213970               170213JC     1400+00000+JC0000003104+0000003104+000000000+000000435+0000003530+0000000009+I20000000000+0000003530+Z
213970001213970106-005120     213970006001023897336ICE-LOLLY-MAKER 6PCE   0000001000+00003069+00000+0001T   00003069+0000001453          1400 EO7210               1AZ
213970002213970112-116038     213970006009681820246TCS CARRIER BAG MIDI   0000001000+00000035+00000+0001T   00000035+0000001453          1400 EO7090               1AZ
213971000213971               213971               170213JC     1400+00000+JC0000011707+0000011707+000000000+000001640+0000013347+0000000000+I40000013347+0000000000+Z
213971001213971007-000325     213971006009698066514PAPER A4 160GSM 25SHTS 0000001000+00003507+00000+0001T   00003507+0000001455          1400 EO7130               1AZ
213971002213971566-000068     213971006003000418046POP UP LOVE 2 ASSTD    0000001000+00002192+00000+0001T   00002192+0000001455          1400 EO7130               1AZ
213971003213971562-000020     213971006003000600861EDU PLAY DOUGH 60g 4PC 0000001000+00003507+00000+0001T   00003507+0000001455          1400 EO7755               1AZ
213971004213971007-000230     213971006001023995315LABELS STICK-ON STARS  0000001000+00001753+00000+0001T   00001753+0000001455          1400 EO7130               1AZ
213971005213971018-000177     213971006001023797513MUG MINI LOVE ASSTD    0000001000+00000700+00000+0001T   00000700+0000001455          1400 EO7515               1AZ
213971006213971112-116069     213971006009681820277TCS CARRIER BAG JUMBO  0000001000+00000048+00000+0001T   00000048+0000001455          1400 EO7090               1AZ
213972000213972               213972               170213JC     1400+00000+JC0000002102+0000002102+000000000+000000295+0000002390+0000000007+I20000000000+0000002390+Z
213972001213972565-000042     213972006003000252459NOVELTY STRESS BALL    0000001000+00001314+00000+0001T   00001314+0000001456          1400 EO7745               1AZ
213972002213972903-000138     213972006002099004314SWT GS WINE GUMS 60G   0000001000+00000788+00000+0001T   00000788+0000001456          1400 EO7150               1AZ
213973000213973               213973               170213JC     1400+00000+JC0000001490+0000001490+000000000+000000209+0000001690+0000000009+I20000000000+0000001690+Z
213973001213973077-000452     213973006003000284986G/BAG METALLIC MED EMB 0000001000+00001490+00000+0001T   00001490+0000001457          1400 EO7112               1AZ
213974000213974               213974               170213JC     1400+00000+JC0000003507+0000003507+000000000+000000491+0000003990+0000000008+I20000000000+0000003990+Z
213974001213974018-005009     213974006001023725608MUG W/PLUSH-BEAR LOVE  0000001000+00003507+00000+0001T   00003507+0000001457          1400 EO7515               1AZ
213975000213975               213975               170213JC     1400+00000+JC0000010380+0000010380+000000000+000001454+0000011834+0000000000+I40000011834+0000000000+Z
213975001213975077-000245     213975006001023759214GIFT-RIBBON METALLICx2 0000002000+00001227+00000+0001T   00001227+0000001500          1400 EO7112               1AZ
213975002213975301-085000     213975006003000674299 ORN OCC. LOVE HEARTS  0000002000+00002192+00000+0001T   00002192+0000001500          1400 EO7505               1AZ
213975003213975562-000020     213975006003000600861EDU PLAY DOUGH 60g 4PC 0000001000+00003507+00000+0001T   00003507+0000001500          1400 EO7755               1AZ
213975004213975112-116038     213975006009681820246TCS CARRIER BAG MIDI   0000001000+00000035+00000+0001T   00000035+0000001500          1400 EO7090               1AZ
213976000213976               213976               170213JC     1400+00000+JC0000000613+0000000613+000000000+000000086+0000000690+0000000009+I20000000000+0000000690+Z
213976001213976200-000065     213976006001023323675DRINKING-STRAWS 38PCE  0000001000+00000613+00000+0001T   00000613+0000001500          1400 EO7214               1AZ
213977000213977               213977               170213JC     1400+00000+JC0000001490+0000001490+000000000+000000209+0000001690+0000000009+I20000000000+0000001690+Z
213977001213977077-000299     213977006003000395576G/BAG 32x25cm LRG LOVE 0000001000+00001490+00000+0001T   00001490+0000001502          1400 EO7112               1AZ
213978000213978               213978               170213JC     1400+00000+JC0000001490+0000001490+000000000+000000209+0000001690+0000000009+I20000000000+0000001690+Z
213978001213978077-000304     213978006001023483232GIFT-BAG 25X32CM E/DAY 0000001000+00001490+00000+0001T   00001490+0000001503          1400 EO7112               1AZ
213979000213979               213979               170213JC     1400+00000+JC0000020649+0000020649+000000000+000002895+0000023544+0000000000+I40000023544+0000000000+Z
213979001213979903-005000     213979006002580020007SWT CT MALLOW FISH 120g0000001000+00001314+00000+0001T   00001314+0000001505          1400 EO7150               1AZ
213979002213979036-000151     213979006001023810588COATHANGERS    PACK-10 0000001000+00002893+00000+0001T   00002893+0000001505          1400 EO7212               1AZ
213979003213979087-000102     213979006003000137466HAIR TRIMMER SET       0000001000+00003507+00000+0001T   00003507+0000001505          1400 EO7200               1AZ
213979004213979105-000750     213979006003000190270CONTAINERS 4xMINI 150ml0000001000+00001402+00000+0001T   00001402+0000001505          1400 EO7210               1AZ
213979005213979046-000012     213979006904708013062BATTERIES AA  CARD-OF-40000001000+00001314+00000+0001T   00001314+0000001505          1400 EO7312               1AZ
213979006213979105-001005     213979006001023858214CONTAINERS MINI 6PCE   0000001000+00001402+00000+0001T   00001402+0000001505          1400 EO7210               1AZ
213979007213979261-003899     213979006003000398836GUN CROSSBOW SET 11PCE 0000001000+00006139+00000+0001T   00006139+0000001505          1400 EO7710               1AZ
213979008213979112-116069     213979006009681820277TCS CARRIER BAG JUMBO  0000001000+00000048+00000+0001T   00000048+0000001505          1400 EO7090               1AZ
213979009213979083-000058     213979006003000400331LIGHTER JET CIGAR REFIL0000001000+00002630+00000+0001T   00002630+0000001505          1400 EO7315               1AZ
213980000213980               213980               170213JC     1400+00000+JC0000001525+0000001525+000000000+000000214+0000001730+0000000009+I20000000000+0000001730+Z
213980001213980006-000788     213980006001023990228CROWN HAPPY BIRTHDAY   0000001000+00001490+00000+0001T   00001490+0000001739          1400 EO7131               1AZ
213980002213980112-116038     213980006003000534906TCS CARRIER BAG MIDI   0000001000+00000035+00000+0001T   00000035+0000001739          1400 EO7090               1AZ
213981000213981               213981               170213JC     1400+00000+JC0000014674+0000014674+000000000+000002056+0000016730+0000000000+I40000016730+0000000000+Z
213981001213981003-000049     213981006001023762290ORN ANIMAL BIRD CER.   0000001000+00003507+00000+0001T   00003507+0000001745          1400 EO7505               1AZ
213981002213981003-001001     213981006001023722553ORN GARDEN OWL 10.5cm  0000002000+00003069+00000+0001T   00003069+0000001745          1400 EO7505               1AZ
213981003213981077-000321     213981006001023677501GIFT-BAG 11X14CM E/D FL0000001000+00000613+00000+0001T   00000613+0000001745          1400 EO7112               1AZ
213981004213981089-000004     213981006003000137749KEY CHAIN MTL CHARMS   0000001000+00001753+00000+0001T   00001753+0000001745          1400 EO7205               1AZ
213981005213981112-116038     213981006003000534906TCS CARRIER BAG MIDI   0000001000+00000035+00000+0001T   00000035+0000001745          1400 EO7090               1AZ
213981006213981903-000194     213981006009826020616SWT CHOC RP LOLLY 25G  0000002000+00001314+00000+0001T   00001314+0000001745          1400 EO7150               1AZ
213982000213982               213982               170213JC     1400+00000+JC0000017590+0000017590+000000000+000002463+0000020050+0000000003+I20000000000+0000020050+Z
213982001213982368-000012     213982006003000610464PLUSH BEAR 30cm SITTING0000001000+00008771+00000+0001T   00008771+0000001747          1400 EO7745               1AZ
213982002213982368-000614     213982006001023705808PLUSH LOVE 30cm        0000001000+00008771+00000+0001T   00008771+0000001747          1400 EO7745               1AZ
213982003213982112-116069     213982006003000535064TCS CARRIER BAG JUMBO  0000001000+00000048+00000+0001T   00000048+0000001747          1400 EO7090               1AZ
213983000213983               213983               170213JC     1400+00000+JC0000001490+0000001490+000000000+000000209+0000001690+0000000009+I20000000000+0000001690+Z
213983001213983077-000304     213983006001023483232GIFT-BAG 25X32CM E/DAY 0000001000+00001490+00000+0001T   00001490+0000001749          1400 EO7112               1AZ
213984000213984               213984               170213JC     1400+00000+JC0000015347+0000015347+000000000+000002150+0000017497+0000000000+I40000017497+0000000000+Z
213984001213984018-000127     213984006001023380289MUG OCC STRAIGHT LOVE  0000001000+00001578+00000+0001T   00001753+0006471751          1400 EO7515               1AZ
213984002213984077-000304     213984006001023483232GIFT-BAG 25X32CM E/DAY 0000001000+00001490+00000+0001T   00001490+0000001751          1400 EO7112               1AZ
213984003213984368-000111     213984006001023780812PLUSH BEAR/DOG 29CM    0000001000+00012279+00000+0001T   00012279+0000001751          1400 EO7745               1AZ
213985000213985               213985               170213JC     1400+00000+JC0000000788+0000000788+000000000+000000111+0000000890+0000000009+I20000000000+0000000890+Z
213985001213985566-000858     213985006001023760975STCKRS G/OUTLINE ASSTD 0000001000+00000788+00000+0001T   00000788+0000001752          1400 EO7130               1AZ
213986000213986               213986               170213JC     1400+00000+JC0000012323+0000012323+000000000+000001726+0000014040+0000000009+I20000000000+0000014040+Z
213986001213986566-001012     213986006001023528070STICKERS GLOW IN DARK  0000001000+00001314+00000+0001T   00001314+0000001801          1400 EO7130               1AZ
213986002213986362-000307     213986006003000519750HAIR HEADBAND PRINTED  0000001000+00001314+00000+0001T   00001314+0000001801          1400 EO7160               1AZ
213986003213986365-003053     213986006001023542250PLAY DOCTOR MEDICAL-CNT0000001000+00004385+00000+0001T   00004385+0000001801          1400 EO7725               1AZ
213986004213986566-000320     213986006003000422890STICKERS R/DEC. NATURE 0000001000+00005262+00000+0001T   00005262+0000001801          1400 EO7130               1AZ
213986005213986112-116069     213986006003000535064TCS CARRIER BAG JUMBO  0000001000+00000048+00000+0001T   00000048+0000001801          1400 EO7090               1AZ
A17021300                                          10150567JCSLAVE 1                       TT72IC
A17021301                                          10425131JCSLAVE 1                       TT72IC
A17021302                                          14314336JCSLAVE 1                       EO72IC
B21396200                                          170213JC304-001011     14235174SLAVE 1     EO72IC0000006000+0000002000+0000000000000+
J17021301                        BONGILE NTSONTO   JC159-000150-B    SOAP-BOX PL ASSORTED    000024  018-000177      MUG MINI LOVE ASSTD     000024  104-000135      WASTEBIN SWING-LID 28cm 000012  027-009025      DUSTPAN-SET PL          000024  158-000167      WASTEPAPER-BASKET 26cm  000012  004-078992      EARPHONES MINI          000024  263-000509      DIY ASSEMBLY VEHICLE    000012  263-000147      BIKE TRIGGER LAUNCHED   000024  264-000928      MAISTO MOTORBIKE HARLEY 000012  264-015055      ALL-STARS ELITE TRNS    000012  263-000177      RACER PULL BACK         000006  264-000933      MAISTO CAR 1:33 SMART   000012  264-000925-403  BURAGO 1:43 STREET FIRE 000024  262-000415      DIE CAST TRANSPORTERS   000012  263-000284      CAR PL FRICTION 24cm    000012  262-000625      CAR MDC JEEP & TRAILER  000012  264-025205      MAISTO DINKY 4x4 REBELS 000012  004-071267      LCD CLEANING KIT+CLOTH  000012  048-000865      TORCH KEY CHAIN 5LED    000012  004-071262      COMPUTER MOUSE RUGBY 6  000006 Z
J17021302                        BONGILE NTSONTO   JC264-015151      MAISTO RACE LAUNCHER    000006  004-071204      USB IN-CAR CHARGER 2.1A 000006  004-071198      USB MULTISLOT CARD      000012  058-000064      KNIFE TRIMMING FOLDABLE 000006  048-000910      TORCH BEND&EXTEND 3 LED 000006  046-000010      BATTERIES AAA ALKLN 2PC 000024  046-000011      BATTERIES SIZE:AA  2PCE 000024  046-000007      BATTERIES D ALKALN 2PCE 000024  085-007002      P/TOOL 10in1 SS W/POUCH 000006  085-007021      P/KNIFE LED 16-FUNCTION 000006  046-000010-A    BATTERIES SIZE:AAA 4PCE 000012  085-007022      P/KNIFE S/S 10-FUNCTION 000006  361-000128      DOLL SML 22cm FAIRY     000012  361-000126      DOLL SML 10cm SET       000006  565-001965      NOVELTY BINOCULARS PL   000006  361-003370      DOLL 29cm MOTHER+BABY   000006  200-000067      STRAWS DRINKING 100PC   000036  200-000066      STRAWS 12PCE W/UMBRELLA 000036  006-000230      STRAW PARTY MOUSTACHE   000012  200-000069      STRAWS DRINKING PAPER   000012 Z
J17021303                        BONGILE NTSONTO   JC564-000038      BUBBLE SPRING 230ml     000012  200-000060      STRAWS 18cm FLEX 200PCE 000012  039-809558      CANDLE PILLAR 12CM 4AST 000024  564-000030      BUBBLE NOVELTY BOTTLE   000024  564-000015      BUBBLE TEST TUBE        000024  567-075700      BOOK NOVEL 3-PACK ASSTD 000006  567-010161      BOOK TOP ASSTD MILLS    000020  006-000327      G/STICKS 3X20CM H/BANDS 000012  567-075466      BK NOVEL ROMANCE        000050  567-010163      BOOK TOP ASSTD CHILDREN 000024  046-000030      BATTERY-TESTER (15V+9V) 000006  089-000004      KEY CHAIN MTL CHARMS    000024  089-000005      KEY CHAIN CARDS MTL     000024  089-000099      KEY CHAIN MTL SPORT AST 000024  089-000006      KEY CHAIN HAND-BAG MTL  000024  089-000028      K/CHAIN MTL RELIGIOUS   000012  200-000065      DRINKING-STRAWS 38PCE   000024  903-000925      SWT NOVELTY SURPRISE    000036  903-000926      SWT NOVELTY ST N/LACE   000012  903-000922      SWT ST NOVELTY CAR      000012 Z
J17021304                        BONGILE NTSONTO   JC903-000897      SWT CHOC DBL MINI ROLL  000036  903-000592      SWT CELLPHONE 12cm      000016  903-000083      SWT TUBE SPECKLED 115G  000024  903-000082      SWT MINI WINE GUMS 100G 000024  903-000918      SWEET GUM TAPE H/KITTY  000012  903-000921      SWT NOVELTY SLUSH PUPPY 000012  903-000885      SWT L/BIRD CHOC BISCUIT 000024  903-000892      SWT NOVELTY CHOCO CREAM 000024  903-000011      SWT MALLOW CHOC 15G     000024  261-003821      GUN HAND COWBOY PLAYSET 000024  072-000423      DOG-LEAD 5m RETRACTABLE 000012  003-009206      ORN W/PLAQUE 18.5X10CM  000012  072-020276      CAT LITTER-PAN PL       000012  072-020296      PET CATNIP MARLTONS     000006  051-500115      GARDEN KID SPRAY BOTTLE 000024  072-020316      PET TOY PUP TUG CHEWS   000012  072-020274      LITTER-LINERS-BAGS 10PC 000012  072-020264      PET DOG CLEAN-UP BAGS   000012  072-020311      PET DOG TOY VINYL BALL  000012  072-020300      DOG-TOY TUG-A-BALL SML  000012 Z
J17021305                        BONGILE NTSONTO   JC072-020256      PET DOG TOY W/ROPE      000012  047-009010      DOOR-WINDOW-ALARM B/O   000012  056-065303      SUN-SHIELD 2PCE ANIMAL  000006  072-020266      PET PUPPY TRAINING PAD  000024  051-600655      PLANTER W/TRAY 20x20x16 000012  072-020271      CAT LITTER-SCOOP 33cm   000012  072-000604      DOG-COLLAR 2.5x50cm LRG 000012  072-020305      PET DOG ASST CANVAS TOY 000012  368-000001      Plush Bear 25cm         000012  072-000610      DOG-LEAD REFLECTIVE     000006  072-020359      PET DOG/CAT BOWL SMALL  000012  038-092233      TABLE-MAT N/SLIP ASST   000012  150-003733      SINK STRAINER S/S 1PCE  000012  038-092232      TABLE-MAT N/SLIP 32x55  000012  159-000149      SOAP-DISH FOUR-LEAF     000012  072-020255      PET DOG CHEW BONE PK-2  000012  464-000106      PLAYING-CARDS (SINGLE)  000020  464-001701      DOMINOES IVORY DBL-SIX  000020  466-006125      HOCKEY SET W/BALL&PUCK  000006  266-001028      SWORD P/SET LIGHT&SOUND 000012 Z
J17021306                        BONGILE NTSONTO   JC261-003903      GUN SET ARMY ASSTD      000006  565-000055      NOVELTY B/O FINGR-BEAMS 000036  466-009008      CATCHBALL W/2 BALLS     000016  403-000502-A    M/BANK TIN 8x12.5cm     000012  104-000140      WASTEPAPER BIN FLIP 24L 000012  264-015055      ALL-STARS ELITE TRNS    000012  264-000934      MAISTO DINKY 11cm LAMBO 000036  105-001315      CONTAINER COLOUR RIM    000012  050-004107-Z    PADLOCK DISCUS S/S 70mm 000006  077-000011      PAPER RAFFIA ASSTD COL  000012  050-000261-Z    PADLOCK BRS 20mm CARDED 000012  050-000262-Z    PADLOCK BRS 25mm CARDED 000012  024-000208      COOKIE-CUTTER 3PC       000012  204-000059      MEMO HOLDER APPS 18PC   000012  204-000300      MEMO HOLDER SENTIMENT   000012  077-000475      GIFT-BAG DESIGNER MED   000012  041-000300      EVERYDAY BATH SET 3pc   000012  004-078982      HEADPHONES FOLDABLE COL 000006  088-000108      POTPOURRI-OIL 10ml ASST 000024  019-000225      VASE GLASS W/ROPE 19CM  000006 Z
M17021301                              GLADWIN     JCLENASIA JC                                      LAST TILL SLIP NO213986                         THANX
M17021391                              CASH        JCSLAVE 1                       Z-REPORT No.   631TOTAL (Sales - Refunds)           3478.70       CASH TO BE BANKED                 1365.40       DEBIT CARDS                          0.00       CREDIT CARDS                      2113.30       Z-READING                         3478.70       AIRTIME DEBIT CARD SALES             0.00       AIRTIME CARD SALES                   0.00       OVERS/UNDERS                         0.00       AIRTIME CASH SALES                   0.00       GIFT CARDS                           0.00       GIFT CARD CASH SALES                 0.00       T O T A L  CASH PAYOUTS              0.00                                                                                                                                                                                                                                                                                                                                                      Z
M17021392                              CASH        JCABSENT                                                                                                                                                                                          ANNUAL LEAVE                                                                                                                                                                                    DAY OFF                                                                                                                                                                                         COMMENTS                                                                                                                                                                                                                                                                                                                                                                                       Z
Y17021300                                          JC00000000309708+000041
ZJC17021319523 SLAVE 1      SALES DATA                     NEXT INVOICE NO.  213987 0631
X JC Slave 1 First invoice 213945 170213 Last invoice 213986 170213 Next invoice 213987 Total number of records 000000160 clbackup completed 19:52:50
