225184000225184               225184               170213JC     1400+00000+JC0000003507+0000003507+000000000+000000491+0000003990+0000000008+I20000000000+0000003990+Z
225184001225184018-000136     225184006001023659026MUG OCC LOVE W/PLUSH   0000001000+00003507+00000+0001T   00003507+0000000858          1400 NO5515               2AZ
225185000225185               225185               170213JC     1400+00000+JC0000003507+0000003507+000000000+000000491+0000003990+0000000008+I20000000000+0000003990+Z
225185001225185133-000017     225185006003000525171CLEANING-CLOTHS 5PCE   0000001000+00003507+00000+0001T   00003507+0000000902          1400 NO5212               2AZ
225186000225186               225186               170213JC     1400+00000+JC0000003507+0000003507+000000000+000000491+0000003990+0000000008+I20000000000+0000003990+Z
225186001225186079-006498     225186006001023836151GLITTER SET 10PCE      0000001000+00003507+00000+0001T   00003507+0000000910          1400 NO5130               2AZ
225187000225187               225187               170213JC     1400+00000+JC0000002630+0000002630+000000000+000000369+0000002990+0000000009+I20000000000+0000002990+Z
225187001225187077-000475     225187006003000640775GIFT-BAG DESIGNER MED  0000001000+00002630+00000+0001T   00002630+0000000922          1400 NO5112               2AZ
225188000225188               225188               170213JC     1400+00000+JC0000008768+0000008768+000000000+000001228+0000009990+0000000006+I20000000000+0000009990+Z
225188001225188200-000067     225188006003000330683STRAWS DRINKING 100PC  0000004000+00002192+00000+0001T   00002192+0000000951          1400 NO5214               2AZ
225189000225189               225189               170213JC     1400+00000+JC0000000525+0000000525+000000000+000000074+0000000590+0000000009+I20000000000+0000000590+Z
225189001225189027-000010-B   225189006009635020104SHOE-BRUSH BLACK       0000001000+00000525+00000+0001T   00000525+0000000954          1400 NO5212               2AZ
225190000225190               225190               170213JC     1400+00000+JC0000000613+0000000613+000000000+000000086+0000000690+0000000009+I20000000000+0000000690+Z
225190001225190077-000321     225190006001023677501GIFT-BAG 11X14CM E/D FL0000001000+00000613+00000+0001T   00000613+0000000958          1400 NO5112               2AZ
225191000225191               225191               170213JC     1400+00000+JC0000001753+0000001753+000000000+000000246+0000001990+0000000009+I20000000000+0000001990+Z
225191001225191080-000115     225191006003000237333CARD&ENVELOPE - BLANKS 0000001000+00001753+00000+0001T   00001753+0000000959          1400 NO5112               2AZ
225192000225192               225192               170213JC     1400+00000+JC0000007940+0000007940+000000000+000001112+0000009052+0000000000+I40000009052+0000000000+Z
225192001225192266-000750     225192006003000301461TOOL SET 23cm HELMET   0000001000+00004385+00000+0001T   00004385+0000001001          1400 NO5710               2AZ
225192002225192033-000602     225192006003000365333HAIR BRUSH 23CM BLK&WHT0000001000+00003507+00000+0001T   00003507+0000001001          1400 NO5200               2AZ
225192003225192112-116069     225192006009681820277TCS CARRIER BAG JUMBO  0000001000+00000048+00000+0001T   00000048+0000001001          1400 NO5090               2AZ
225193000225193               225193               170213JC     1400+00000+JC0000002665+0000002665+000000000+000000374+0000003030+0000000009+I20000000000+0000003030+Z
225193001225193018-000129     225193006001023403353MUG OCC. LOVE V-SHAPE  0000001000+00002630+00000+0001T   00002630+0000001003          1400 NO5515               2AZ
225193002225193112-116038     225193006009681820246TCS CARRIER BAG MIDI   0000001000+00000035+00000+0001T   00000035+0000001003          1400 NO5090               2AZ
225194000225194               225194               170213JC     1400+00000+JC0000005261+0000005261+000000000+000000737+0000005990+0000000008+I20000000000+0000005990+Z
225194001225194001-000175     225194006001023788108B/MUG GLS LOVE 380ML   0000001000+00004385+00000+0001T   00004385+0000001003          1400 NO5515               2AZ
225194002225194089-000192-A   225194006001023901774KEY-CHAIN ACRYLIC      0000001000+00000876+00000+0001T   00000876+0000001003          1400 NO5205               2AZ
225195000225195               225195               170213JC     1400+00000+JC0000004385+0000004385+000000000+000000614+0000004990+0000000009+I20000000000+0000004990+Z
225195001225195082-000120     225195006003000360727READING GLS STRENGTH:3 0000001000+00004385+00000+0001T   00004385+0000001014          1400 NO5160               2AZ
225196000225196               225196               170213JC     1400+00000+JC0000000876+0000000876+000000000+000000123+0000000990+0000000009+I20000000000+0000000990+Z
225196001225196071-003003     225196006003000144525PEN BALL PEN 3PCE BLACK0000001000+00000876+00000+0001T   00000876+0000001029          1400 NO5130               2AZ
225197000225197               225197               170213JC     1400+00000+JC0000005466+0000005466+000000000+000000767+0000006230+0000000003+I20000000000+0000006230+Z
225197001225197304-001011     225197006001023806727FLWR ROSE RED W/BEAR   0000006000+00000613+00000+0001T   00000788+0006471037          1400 NO5510               2AZ
225197002225197080-008102     225197006003000080724CARD&ENV MINI 6PK FOIL 0000001000+00001753+00000+0001T   00001753+0000001037          1400 NO5112               2AZ
225197003225197112-116038     225197006003000534906TCS CARRIER BAG MIDI   0000001000+00000035+00000+0001T   00000035+0000001037          1400 NO5090               2AZ
225198000225198               225198               170213JC     1400+00000+JC0000007014+0000007014+000000000+000000982+0000007990+0000000006+I20000000000+0000007990+Z
225198001225198071-000308     225198006001023914811CUTTER PAPER TRIM+BLADE0000001000+00003507+00000+0001T   00003507+0000001053          1400 NO5130               2AZ
225198002225198047-000014-A   225198006001023904072ADAPTOR 16AX5ARNDX5A2PN0000001000+00003507+00000+0001T   00003507+0000001053          1400 NO5880               2AZ
225199000225199               225199               170213JC     1400+00000+JC0000002630+0000002630+000000000+000000369+0000002990+0000000009+I20000000000+0000002990+Z
225199001225199466-000584     225199006001023628787SKIPPING-ROPE          0000001000+00002630+00000+0001T   00002630+0000001056          1400 NO5785               2AZ
225200000225200               225200               170213JC     1400+00000+JC0000019064+0000019064+000000000+000002671+0000021735+0000000000+I40000021735+0000000000+Z
225200001225200112-116069     225200006009681820277TCS CARRIER BAG JUMBO  0000001000+00000048+00000+0001T   00000048+0000001108          1400 NO5090               2AZ
225200002225200304-001011     225200006001023806727FLWR ROSE RED W/BEAR   0000004000+00000613+00000+0001T   00000788+0006471108          1400 NO5510               2AZ
225200003225200018-000130     225200006001023867537MUG OCC LOVE MINI+HEART0000002000+00003507+00000+0001T   00003507+0000001108          1400 NO5515               2AZ
225200004225200018-000177     225200006001023797513MUG MINI LOVE ASSTD    0000004000+00000700+00000+0001T   00000700+0000001108          1400 NO5515               2AZ
225200005225200304-001011     225200006001023806727FLWR ROSE RED W/BEAR   0000001000+00000613+00000+0001T   00000788+0006471108          1400 NO5510               2AZ
225200006225200007-000291     225200006003000590131REMINDER NOTES REFILL  0000001000+00003507+00000+0001T   00003507+0000001108          1400 NO5130               2AZ
225200007225200071-030012     225200006003000283842PEN NVLTY GLITTER 6PC  0000001000+00002630+00000+0001T   00002630+0000001108          1400 NO5130               2AZ
225201000225201               225201               170213JC     1400+00000+JC0000020657+0000020657+000000000+000002894+0000023550+0000000001+I20000000000+0000023550+Z
225201001225201024-000039     225201006003000114030MEASURING-JUG PL 1,0L  0000001000+00003946+00000+0001T   00005262+0008121110          1400 NO5300               2AZ
225201002225201158-003092     225201006003000621644PAPER TOWEL HOLDER CHR 0000001000+00005262+00000+0001T   00005262+0000001110          1400 NO5300               2AZ
225201003225201124-001300     225201006003000486861STORAGE TIN WASHING    0000001000+00006139+00000+0001T   00006139+0000001110          1400 NO5300               2AZ
225201004225201002-009894     225201006001023796646CUTTING-BOARD 30x40cm  0000001000+00005262+00000+0001T   00005262+0000001110          1400 NO5300               2AZ
225201005225201112-116069     225201006009681820277TCS CARRIER BAG JUMBO  0000001000+00000048+00000+0001T   00000048+0000001110          1400 NO5090               2AZ
225202000225202               225202               170213JC     1400+00000+JC0000005917+0000005917+000000000+000000830+0000006740+0000000007+I20000000000+0000006740+Z
225202001225202001-000175     225202006001023788108B/MUG GLS LOVE 380ML   0000001000+00004385+00000+0001T   00004385+0000001114          1400 NO5515               2AZ
225202002225202903-000087     225202006001704000161SWT SPECKLED-EGGS 50G  0000001000+00001139+00000+0001T   00001139+0000001114          1400 NO5150               2AZ
225202003225202903-000183     225202006003000451043SWT LB HEART LOLLY     0000001000+00000393+00000+0001T   00000393+0000001114          1400 NO5150               2AZ
225203000225203               225203               170213JC     1400+00000+JC0000000876+0000000876+000000000+000000123+0000000990+0000000009+I20000000000+0000000990+Z
225203001225203903-000897     225203008692806325207SWT CHOC DBL MINI ROLL 0000001000+00000876+00000+0001T   00000876+0000001117          1400 NO5150               2AZ
225204000225204               225204               170213JC     1400+00000+JC0000002584+0000002584+000000000+000000363+0000002940+0000000007+I20000000000+0000002940+Z
225204001225204006-000170-K   225204006003000609284BALLOONS 1PC PURPLE    0000001000+00000218+00000+0001T   00000218+0000001121          1400 NO5131               2AZ
225204002225204567-010945     225204009781849580823BOOK PUZZLE ASSTD CAT 50000001000+00001753+00000+0001T   00002630+0008131121          1400 NO5757               2AZ
225204003225204006-001000     225204006003000093779HELIUM BALLOON FILL    0000001000+00000613+00000+0001T   00000613+0000001121          1400 NO5131               2AZ
225205000225205               225205               170213JC     1400+00000+JC0000003507+0000003507+000000000+000000491+0000003990+0000000008+I20000000000+0000003990+Z
225205001225205072-020237     225205006003000623402PET BED COTTON TEXTILE 0000001000-00017542+00000+0001T   00017542+0000001123          1400 NO58702IC            2 Z
225205002225205072-020237     225205006003000623402PET BED COTTON TEXTILE 0000001000+00017542+00000+0001T   00017542+0000001123          1400 NO58702IC            2AZ
225205003225205301-085004     225205006003000420469ORN LOVE PLAQUE 21X10CM0000001000+00003507+00000+0001T   00003946+0006471123          1400 NO5505               2AZ
225206000225206               225206               170213JC     1400+00000+JC0000007622+0000007622+000000000+000001071+0000008693+0000000000+I40000008693+0000000000+Z
225206001225206564-000012     225206006001023130075BUBBLE BOTTLE MAGIC    0000001000+00000700+00000+0001T   00000700+0000001128          1400 NO5131               2AZ
225206002225206903-000183     225206006003000451043SWT LB HEART LOLLY     0000001000+00000393+00000+0001T   00000393+0000001128          1400 NO5150               2AZ
225206003225206492-055609     225206000078257556090EAR-PLUGS+NOSE-CLIP SET0000001000+00001753+00000+0001T   00001753+0000001128          1400 NO5787               2AZ
225206004225206492-055602     225206000078257556021SWIM-GOGGLES PLAY      0000001000+00002630+00000+0001T   00002630+0000001128          1400 NO5787               2AZ
225206005225206491-059640     225206000078257596409INTEX:ARMBAND 3-6YRS   0000001000+00001753+00000+0001T   00001753+0000001128          1400 NO5787               2AZ
225206006225206903-000183     225206006003000451043SWT LB HEART LOLLY     0000001000+00000393+00000+0001T   00000393+0000001128          1400 NO5150               2AZ
225207000225207               225207               170213JC     1400+00000+JC0000001578+0000001578+000000000+000000221+0000001790+0000000009+I20000000000+0000001790+Z
225207001225207077-000303     225207006001023593757GIFT-BAG PAPER MED     0000001000+00001578+00000+0001T   00001578+0000001135          1400 NO5112               2AZ
225208000225208               225208               170213JC     1400+00000+JC0000003423+0000003423+000000000+000000480+0000003900+0000000003+I20000000000+0000003900+Z
225208001225208038-000215     225208006003000621613PLACE-MAT RECT 30x40cm 0000004000+00003507+00000+0001T   00003507+0000001144          1400 NO5300               2AZ
225208002225208566-000317     225208006003000524204STICKER TAPE 2PCS      0000001000+00003507+00000+0001T   00003507+0000001144          1400 NO5130               2AZ
225208003225208112-116069     225208006003000535064TCS CARRIER BAG JUMBO  0000001000+00000048+00000+0001T   00000048+0000001144          1400 NO5090               2AZ
225208004225208038-000215     225208006003000621613PLACE-MAT RECT 30x40cm 0000004000-00003507+00000+0001T   00003507+0000001144          1400 NO53002IC            2 Z
225208005225208566-000317     225208006003000524204STICKER TAPE 2PCS      0000001000-00003507+00000+0001T   00003507+0000001144          1400 NO51302IC            2 Z
225208006225208174-000015     225208006003000559060LAUNDRY BAG LARGE 68x520000001000+00003069+00000+0001T   00003069+0000001144          1400 NO5205               2AZ
225208007225208306-000020     225208006001023743145POCKET-TISSUES 10PCE   0000001000+00000306+00000+0001T   00000306+0000001144          1400 NO5200               2AZ
225209000225209               225209               170213JC     1400+00000+JC0000010567+0000010567+000000000+000001482+0000012049+0000000000+I40000012049+0000000000+Z
225209001225209038-000205     225209006001926001205PLACE-MATS PVC ASSTD-C 0000004000+00001753+00000+0001T   00001753+0000001146          1400 NO5300               2AZ
225209002225209566-000317     225209006003000524204STICKER TAPE 2PCS      0000001000+00003507+00000+0001T   00003507+0000001146          1400 NO5130               2AZ
225209003225209112-116069     225209006003000535064TCS CARRIER BAG JUMBO  0000001000+00000048+00000+0001T   00000048+0000001146          1400 NO5090               2AZ
225210000225210               225210               170213JC     1400+00000+JC0000007717+0000007717+000000000+000001081+0000008790+0000000008+I20000000000+0000008790+Z
225210001225210368-000265     225210006001023750914PLUSH BEAR 23CM ASSTD C0000001000+00006139+00000+0001T   00006139+0000001149          1400 NO5745               2AZ
225210002225210080-000124     225210006003000297733CARD & ENV VALENTINES  0000001000+00001578+00000+0001T   00001578+0000001149          1400 NO5112               2AZ
225211000225211               225211               170213JC     1400+00000+JC0000006611+0000006611+000000000+000000926+0000007530+0000000007+I20000000000+0000007530+Z
225211001225211200-000067     225211006003000330683STRAWS DRINKING 100PC  0000003000+00002192+00000+0001T   00002192+0000001152          1400 NO5214               2AZ
225211002225211112-116038     225211006003000534906TCS CARRIER BAG MIDI   0000001000+00000035+00000+0001T   00000035+0000001152          1400 NO5090               2AZ
225212000225212               225212               170213JC     1400+00000+JC0000001139+0000001139+000000000+000000160+0000001290+0000000009+I20000000000+0000001290+Z
225212001225212903-000087     225212006001704000161SWT SPECKLED-EGGS 50G  0000001000+00001139+00000+0001T   00001139+0000001156          1400 NO5150               2AZ
225213000225213               225213               170213JC     1400+00000+JC0000005295+0000005295+000000000+000000742+0000006030+0000000007+I20000000000+0000006030+Z
225213001225213031-000923     225213006001023669933P/FRAME BLK W/WORDS    0000001000+00003507+00000+0001T   00003507+0000001205          1400 EO7510               2AZ
225213002225213080-000111     225213006003000252695CARD&ENVELPE - MUSICAL 0000001000+00001753+00000+0001T   00001753+0000001205          1400 EO7112               2AZ
225213003225213112-116038     225213006003000534906TCS CARRIER BAG MIDI   0000001000+00000035+00000+0001T   00000035+0000001205          1400 EO7090               2AZ
225214000225214               225214               170213JC     1400+00000+JC0000002192+0000002192+000000000+000000307+0000002490+0000000009+I20000000000+0000002490+Z
225214001225214071-007064     225214006003000533794P/CASE S/LINE SPACE CAS0000001000+00002192+00000+0001T   00002192+0000001212          1400 EO7130               2AZ
225215000225215               225215               170213JC     1400+00000+JC0000005259+0000005259+000000000+000000738+0000005990+0000000007+I20000000000+0000005990+Z
225215001225215369-000216     225215006003000610686BABY TOY EDU PLAY/LEARN0000002000+00001753+00000+0001T   00001753+0000001213          1400 EO7745               2AZ
225215002225215562-000216     225215006003000113880EDU PUSH-IN WDN BOARD  0000001000+00001753+00000+0001T   00001753+0000001213          1400 EO7755               2AZ
225216000225216               225216               170213JC     1400+00000+JC0000016528+0000016528+000000000+000002318+0000018840+0000000006+I20000000000+0000018840+Z
225216001225216261-003821     225216006003000398713GUN HAND COWBOY PLAYSET0000001000+00006139+00000+0001T   00006139+0000001215          1400 EO7710               2AZ
225216002225216112-116069     225216006003000535064TCS CARRIER BAG JUMBO  0000001000+00000048+00000+0001T   00000048+0000001215          1400 EO7090               2AZ
225216003225216466-000106     225216006003000128112BALL PL 20CM BASKETBALL0000001000+00003507+00000+0001T   00003507+0000001215          1400 EO7785               2AZ
225216004225216040-000213     225216006001023617736CANDLE-HOLDER DAISY    0000003000+00001227+00000+0001T   00001227+0000001215          1400 EO7510               2AZ
225216005225216039-000032     225216006003000287185C/TAPERED 25CM M/GREEN 0000003000+00001051+00000+0001T   00001051+0000001215          1400 EO7510               2AZ
225217000225217               225217               170213JC     1400+00000+JC0000003156+0000003156+000000000+000000445+0000003600+0000000001+I20000000000+0000003600+Z
225217001225217079-009702-B   225217008427973059491PAPER SIRIO A2 WHITE   0000001000+00001051+00000+0001T   00001051+0000001218          1400 EO7130               2AZ
225217002225217079-009702-C   225217008427973059309PAPER SIRIO A2 VIOLET  0000001000+00001051+00000+0001T   00001051+0000001218          1400 EO7130               2AZ
225217003225217903-000183     225217006003000451043SWT LB HEART LOLLY     0000001000+00000393+00000+0001T   00000393+0000001218          1400 EO7150               2AZ
225217004225217565-000044     225217006003000128280BARREL OF SLIME 100g   0000001000+00000613+00000+0001T   00000613+0000001218          1400 EO7745               2AZ
225217005225217112-116069     225217006003000535064TCS CARRIER BAG JUMBO  0000001000+00000048+00000+0001T   00000048+0000001218          1400 EO7090               2AZ
225218000225218               225218               170213JC     1400+00000+JC0000001753+0000001753+000000000+000000246+0000001990+0000000009+I20000000000+0000001990+Z
225218001225218071-005211     225218006003000152346CELLOTAPE MOUNTING TAPE0000001000+00001753+00000+0001T   00001753+0000001218          1400 EO7130               2AZ
225219000225219               225219               170213JC     1400+00000+JC0000008550+0000008550+000000000+000001200+0000009750+0000000000+I20000000000+0000009750+Z
225219001225219366-002694     225219006003000088997DRESS UP HAT COWBOY PL 0000001000+00001753+00000+0001T   00001753+0000001219          1400 EO7131               2AZ
225219002225219366-002799     225219006003000648238DRESSUP S/ADH FACE HAIR0000001000+00001753+00000+0001T   00001753+0000001219          1400 EO7131               2AZ
225219003225219006-000114     225219006003000671939BALLOONS W/BOMBS 100PCE0000001000+00001753+00000+0001T   00001753+0000001219          1400 EO7131               2AZ
225219004225219078-000026     225219006936198407090SUPERGLUE 3,0g GEL     0000001000+00001753+00000+0001T   00001753+0000001219          1400 EO7810               2AZ
225219005225219564-000036     225219006001023708694BUBBLE W/PUZZLE        0000001000+00001490+00000+0001T   00001490+0000001219          1400 EO7131               2AZ
225219006225219112-116069     225219006003000535064TCS CARRIER BAG JUMBO  0000001000+00000048+00000+0001T   00000048+0000001219          1400 EO7090               2AZ
225220000225220               225220               170213JC     1400+00000+JC0000001753+0000001753+000000000+000000246+0000001990+0000000009+I20000000000+0000001990+Z
225220001225220369-001034     225220006003000105632BABY RATTLE SINGLE ASST0000001000+00001753+00000+0001T   00001753+0000001219          1400 EO7745               2AZ
225221000225221               225221               170213JC     1400+00000+JC0000007893+0000007893+000000000+000001106+0000008990+0000000009+I20000000000+0000008990+Z
225221001225221082-000124     225221006003000646272READING GLASS TWIN 1.5 0000001000+00007893+00000+0001T   00007893+0000001220          1400 EO7160               2AZ
225222000225222               225222               170213JC     1400+00000+JC0000004385+0000004385+000000000+000000614+0000004990+0000000009+I20000000000+0000004990+Z
225222001225222027-009027     225222006003000235803BROOM FLAT 1.2m HANDLE 0000001000+00004385+00000+0001T   00004385+0000001222          1400 EO7212               2AZ
225223000225223               225223               170213JC     1400+00000+JC0000003554+0000003554+000000000+000000499+0000004053+0000000000+I40000004053+0000000000+Z
225223001225223077-000299-A   225223006003000670888GIFT-BAG PAPER JMB LOVE0000002000+00001753+00000+0001T   00001753+0000001225          1400 EO7112               2AZ
225223002225223112-116069     225223006003000535064TCS CARRIER BAG JUMBO  0000001000+00000048+00000+0001T   00000048+0000001225          1400 EO7090               2AZ
225224000225224               225224               170213JC     1400+00000+JC0000011402+0000011402+000000000+000001597+0000012999+0000000000+I40000012999+0000000000+Z
225224001225224368-000637     225224006001023874092PLUSH BEAR SLEEPING LOV0000001000+00011402+00000+0001T   00012279+0006471227          1400 NO5745               2AZ
225225000225225               225225               170213JC     1400+00000+JC0000002629+0000002629+000000000+000000369+0000002990+0000000008+I20000000000+0000002990+Z
225225001225225084-006996     225225006003000092833NAIL CLIPPER 6cm       0000001000+00001753+00000+0001T   00001753+0000001228          1400 NO5200               2AZ
225225002225225084-070005     225225006001023627902NAIL FILES 6PCE H/GLOW 0000001000+00000876+00000+0001T   00000876+0000001228          1400 NO5200               2AZ
225226000225226               225226               170213JC     1400+00000+JC0000001753+0000001753+000000000+000000246+0000001990+0000000009+I20000000000+0000001990+Z
225226001225226466-000109     225226006003000612345BALL RAINBOW DESIGN    0000001000+00001753+00000+0001T   00001753+0000001229          1400 NO5785               2AZ
225227000225227               225227               170213JC     1400+00000+JC0000001753+0000001753+000000000+000000246+0000001990+0000000009+I20000000000+0000001990+Z
225227001225227037-000004     225227006001023763679ASHTRAY PL TUB 8X11CM  0000001000+00001753+00000+0001T   00002192+0008191237          1400 EO7515               2AZ
225228000225228               225228               170213JC     1400+00000+JC0000005260+0000005260+000000000+000000738+0000005990+0000000008+I20000000000+0000005990+Z
225228001225228105-001315     225228006003000572854CONTAINER COLOUR RIM   0000002000+00002630+00000+0001T   00002630+0000001302          1400 EO7210               2AZ
225229000225229               225229               170213JC     1400+00000+JC0000004559+0000004559+000000000+000000639+0000005190+0000000008+I20000000000+0000005190+Z
225229001225229565-000255     225229006003000585168NOVELTY GLOW SLIME     0000001000+00002455+00000+0001T   00002455+0000001303          1400 EO7745               2AZ
225229002225229903-000090     225229006009826020821SWT GS CHOCO COINS 60g 0000001000+00002104+00000+0001T   00002104+0000001303          1400 EO7150               2AZ
225230000225230               225230               170213JC     1400+00000+JC0000005085+0000005085+000000000+000000712+0000005790+0000000007+I20000000000+0000005790+Z
225230001225230077-000303     225230006001023593757GIFT-BAG PAPER MED     0000001000+00001578+00000+0001T   00001578+0000001306          1400 EO7112               2AZ
225230002225230018-000136     225230006001023659026MUG OCC LOVE W/PLUSH   0000001000+00003507+00000+0001T   00003507+0000001306          1400 EO7515               2AZ
225231000225231               225231               170213JC     1400+00000+JC0000001753+0000001753+000000000+000000246+0000001990+0000000009+I20000000000+0000001990+Z
225231001225231046-000014-A   225231004897006177708BATTERIES SIZE:AAA 8PCE0000001000+00001753+00000+0001T   00001753+0000001308          1400 EO7312               2AZ
225232000225232               225232               170213JC     1400+00000+JC0000001227+0000001227+000000000+000000172+0000001390+0000000009+I20000000000+0000001390+Z
225232001225232077-000245     225232006001023759214GIFT-RIBBON METALLICx2 0000001000+00001227+00000+0001T   00001227+0000001314          1400 TT7112               2AZ
225233000225233               225233               170213JC     1400+00000+JC0000007793+0000007793+000000000+000001092+0000008880+0000000005+I20000000000+0000008880+Z
225233001225233079-009700-D   225233006003000545711PAPER SIRIO A4 RED COL.0000001000+00000306+00000+0001T   00000306+0000001321          1400 EO7130               2AZ
225233002225233079-006498     225233006001023836151GLITTER SET 10PCE      0000001000+00003507+00000+0001T   00003507+0000001321          1400 EO7130               2AZ
225233003225233566-000070     225233006003000283798STICKERS POP UP ASSTD  0000001000+00001753+00000+0001T   00001753+0000001321          1400 EO7130               2AZ
225233004225233566-000068     225233006003000418046POP UP LOVE 2 ASSTD    0000001000+00002192+00000+0001T   00002192+0000001321          1400 EO7130               2AZ
225233005225233112-116038     225233006003000534906TCS CARRIER BAG MIDI   0000001000+00000035+00000+0001T   00000035+0000001321          1400 EO7090               2AZ
225234000225234               225234               170213JC     1400+00000+JC0000036176+0000036176+000000000+000005068+0000041240+0000000004+I20000000000+0000041240+Z
225234001225234006-000190     225234006003000685530BALLOONS LOVE 81x91cm  0000001000+00004385+00000+0001T   00004385+0000001324          1400 EO7131               2AZ
225234002225234263-000501     225234006001023790804TRUCK+TRAILR CONVEYANCE0000001000+00017542+00000+0001T   00017542+0000001324          1400 EO7710               2AZ
225234003225234077-000270     225234006003000395453GIFT-BAG PPR JMB 33X45 0000001000+00002630+00000+0001T   00002630+0000001324          1400 EO7112               2AZ
225234004225234080-000114     225234006003000246472CARD&ENV LOVE-MUSICAL  0000002000+00001314+00000+0001T   00001753+0008151324          1400 EO7112               2AZ
225234005225234304-001204     225234006001023737984FLOWER OCC. TEDDY/ROSES0000002000+00001402+00000+0001T   00001490+0006471324          1400 EO7510               2AZ
225234006225234018-050000     225234006003000412679MUG OCC LOVE TWIN BEAR 0000001000+00006139+00000+0001T   00006139+0000001324          1400 EO7515               2AZ
225234007225234112-116069     225234006003000535064TCS CARRIER BAG JUMBO  0000001000+00000048+00000+0001T   00000048+0000001324          1400 EO7090               2AZ
225235000225235               225235               170213JC     1400+00000+JC0000005571+0000005571+000000000+000000781+0000006352+0000000000+I40000006352+0000000000+Z
225235001225235080-000127     225235006003000424351VALENTINES DAY 36x24CM 0000002000+00002192+00000+0001T   00002192+0000001326          1400 EO7112               2AZ
225235002225235903-000087     225235006001704000161SWT SPECKLED-EGGS 50G  0000001000+00001139+00000+0001T   00001139+0000001326          1400 EO7150               2AZ
225235003225235112-116069     225235006003000535064TCS CARRIER BAG JUMBO  0000001000+00000048+00000+0001T   00000048+0000001326          1400 EO7090               2AZ
225236000225236               225236               170213JC     1400+00000+JC0000002630+0000002630+000000000+000000369+0000002990+0000000009+I20000000000+0000002990+Z
225236001225236077-000270     225236006003000395453GIFT-BAG PPR JMB 33X45 0000001000+00002630+00000+0001T   00002630+0000001329          1400 EO7112               2AZ
225237000225237               225237               170213JC     1400+00000+JC0000003991+0000003991+000000000+000000560+0000004550+0000000001+I20000000000+0000004550+Z
225237001225237007-000166     225237006009685857316SPIRAL NOTES A6 100PG  0000001000+00000700+00000+0001T   00000700+0000001333          1400 EO7130               2AZ
225237002225237077-000327     225237006001023677686GIFT-BAG 25X32CM E/D BA0000001000+00001490+00000+0001T   00001490+0000001333          1400 EO7112               2AZ
225237003225237047-000507     225237006001023684479PLUG-ADAPTOR EURO TWIN 0000001000+00001753+00000+0001T   00001753+0000001333          1400 EO7880               2AZ
225237004225237112-116069     225237006003000535064TCS CARRIER BAG JUMBO  0000001000+00000048+00000+0001T   00000048+0000001333          1400 EO7090               2AZ
225238000225238               225238               170213JC     1400+00000+JC0000002192+0000002192+000000000+000000307+0000002490+0000000009+I20000000000+0000002490+Z
225238001225238051-002402     225238006001023518347TRIGGER-SPRAYER  500ml 0000001000-00001753+00000+0001T   00001753+0000001334          1400 EO78202IC            2 Z
225238002225238051-002402     225238006001023518347TRIGGER-SPRAYER  500ml 0000001000+00001753+00000+0001T   00001753+0000001334          1400 EO78202IC            2AZ
225238003225238105-001033     225238000700371696641CONTAINER FOODSAVER 1.60000001000+00002192+00000+0001T   00002192+0000001334          1400 EO7210               2AZ
225239000225239               225239               170213JC     1400+00000+JC0000006486+0000006486+000000000+000000910+0000007396+0000000000+I40000007396+0000000000+Z
225239001225239071-001102     225239006003000274598MARKER PERM MED 2PCE   0000001000+00001753+00000+0001T   00001753+0000001355          1400 EO7130               2AZ
225239002225239071-081091     225239006001151010287STAED/GENKEM ALL-STICK 0000001000+00001227+00000+0001T   00001227+0000001355          1400 EO7130               2AZ
225239003225239007-000029     225239006003000577736PRICE FLASH 17x11cm    0000002000+00001753+00000+0001T   00001753+0000001355          1400 EO7130               2AZ
225240000225240               225240               170213JC     1400+00000+JC0000010525+0000010525+000000000+000001474+0000011990+0000000009+I20000000000+0000011990+Z
225240001225240079-012217     225240006003000289202ART+CRAFT PAINT YOUR   0000001000+00010525+00000+0001T   00012279+0008191356          1400 EO7130               2AZ
225241000225241               225241               170213JC     1400+00000+JC0000001490+0000001490+000000000+000000209+0000001690+0000000009+I20000000000+0000001690+Z
225241001225241077-000299     225241006003000395576G/BAG 32x25cm LRG LOVE 0000001000+00001490+00000+0001T   00001490+0000001400          1400 EO7112               2AZ
225242000225242               225242               170213JC     1400+00000+JC0000015035+0000015035+000000000+000002108+0000017143+0000000000+I40000017143+0000000000+Z
225242001225242077-000303     225242006001023593757GIFT-BAG PAPER MED     0000001000+00001578+00000+0001T   00001578+0000001502          1400 NO5112               2AZ
225242002225242003-009110     225242006003000675395ORN SIGN INSPIRATIONAL 0000004000+00003069+00000+0001T   00003069+0000001502          1400 NO5505               2AZ
225242003225242903-000200     225242006009826020234SWT CHOC RP CHOCO 23G  0000001000+00000788+00000+0001T   00000788+0000001502          1400 NO5150               2AZ
225242004225242903-000183     225242006003000451043SWT LB HEART LOLLY     0000001000+00000393+00000+0001T   00000393+0000001502          1400 NO5150               2AZ
225243000225243               225243               170213JC     1400+00000+JC0000010995+0000010995+000000000+000001541+0000012536+0000000000+I40000012536+0000000000+Z
225243001225243071-001124     225243006001023802873MARKERS WHITEBOARD 3PCE0000001000+00002630+00000+0001T   00002630+0000001505          1400 NO5130               2AZ
225243002225243903-005000     225243006002580020007SWT CT MALLOW FISH 120g0000001000+00001314+00000+0001T   00001314+0000001505          1400 NO5150               2AZ
225243003225243562-006275     225243006001023836182EDU BOARD W/MARKER ASST0000001000+00007016+00000+0001T   00007016+0000001505          1400 NO5755               2AZ
225243004225243112-116038     225243006009681820246TCS CARRIER BAG MIDI   0000001000+00000035+00000+0001T   00000035+0000001505          1400 NO5090               2AZ
225244000225244               225244               170213JC     1400+00000+JC0000002630+0000002630+000000000+000000369+0000002990+0000000009+I20000000000+0000002990+Z
225244001225244077-000005-B   225244006003000326617PAPER TISSUE PATTERN   0000001000+00002630+00000+0001T   00002630+0000001506          1400 NO5112               2AZ
225245000225245               225245               170213JC     1400+00000+JC0000008627+0000008627+000000000+000001208+0000009830+0000000005+I20000000000+0000009830+Z
225245001225245018-000136     225245006001023659026MUG OCC LOVE W/PLUSH   0000002000+00003507+00000+0001T   00003507+0000001507          1400 NO5515               2AZ
225245002225245018-000127     225245006001023380289MUG OCC STRAIGHT LOVE  0000001000+00001578+00000+0001T   00001753+0006471507          1400 NO5515               2AZ
225245003225245112-116038     225245006009681820246TCS CARRIER BAG MIDI   0000001000+00000035+00000+0001T   00000035+0000001507          1400 NO5090               2AZ
225246000225246               225246               170213JC     1400+00000+JC0000003507+0000003507+000000000+000000491+0000003998+0000000000+I40000003998+0000000000+Z
225246001225246018-000136     225246006001023659026MUG OCC LOVE W/PLUSH   0000001000+00003507+00000+0001T   00003507+0000001509          1400 NO5515               2AZ
225247000225247               225247               170213JC     1400+00000+JC0000010200+0000010200+000000000+000001431+0000011631+0000000000+I40000011631+0000000000+Z
225247001225247112-116038     225247006009681820246TCS CARRIER BAG MIDI   0000001000+00000035+00000+0001T   00000035+0000001512          1400 NO5090               2AZ
225247002225247304-001011     225247006001023806727FLWR ROSE RED W/BEAR   0000003000+00000613+00000+0001T   00000788+0006471512          1400 NO5510               2AZ
225247003225247079-130100     225247006003000542635A&C DIY COLOUR EYES 24P0000001000+00001490+00000+0001T   00001490+0000001512          1400 NO5130               2AZ
225247004225247080-000113     225247006003000237449CARD&ENVLPE - LOVE     0000001000+00001753+00000+0001T   00001753+0000001512          1400 NO5112               2AZ
225247005225247007-000166     225247006009685857316SPIRAL NOTES A6 100PG  0000001000+00000700+00000+0001T   00000700+0000001512          1400 NO5130               2AZ
225247006225247007-000598     225247006009608642333MARLIN FILE DIVIDER 10 0000001000+00001753+00000+0001T   00001753+0000001512          1400 NO5130               2AZ
225247007225247079-013104     225247006001023863799CRAFT DIY HAND-BAG     0000001000+00002630+00000+0001T   00002630+0000001512          1400 NO5130               2AZ
225248000225248               225248               170213JC     1400+00000+JC0000001227+0000001227+000000000+000000172+0000001390+0000000009+I20000000000+0000001390+Z
225248001225248903-000517     225248006001704012768SWT STRAWS FIZZY CHERRY0000001000+00001227+00000+0001T   00001227+0000001512          1400 NO5150               2AZ
225249000225249               225249               170213JC     1400+00000+JC0000004385+0000004385+000000000+000000614+0000004990+0000000009+I20000000000+0000004990+Z
225249001225249103-000460     225249006003000630240BAMBOO FLOWER BASKET   0000001000+00004385+00000+0001T   00004385+0000001513          1400 NO5300               2AZ
225250000225250               225250               170213JC     1400+00000+JC0000001753+0000001753+000000000+000000246+0000001990+0000000009+I20000000000+0000001990+Z
225250001225250079-006522     225250006001023149442ART+CRAFT GLUE ASSORTED0000001000+00001753+00000+0001T   00001753+0000001515          1400 NO5130               2AZ
225251000225251               225251               170213JC     1400+00000+JC0000004385+0000004385+000000000+000000614+0000004990+0000000009+I20000000000+0000004990+Z
225251001225251004-078900     225251006003000061655MICROPHONE O/F SWT 21cm0000001000+00004385+00000+0001T   00004385+0000001515          1400 NO5310               2AZ
225252000225252               225252               170213JC     1400+00000+JC0000015395+0000015395+000000000+000002157+0000017552+0000000000+I40000017552+0000000000+Z
225252001225252368-000113     225252006001023780874PLUSH BLINGED LOVE 30cm0000001000+00012279+00000+0001T   00012279+0000001521          1400 NO5745               2AZ
225252002225252077-000304     225252006001023483232GIFT-BAG 25X32CM E/DAY 0000001000+00001490+00000+0001T   00001490+0000001521          1400 NO5112               2AZ
225252003225252077-000303     225252006001023593757GIFT-BAG PAPER MED     0000001000+00001578+00000+0001T   00001578+0000001521          1400 NO5112               2AZ
225252004225252112-116069     225252006009681820277TCS CARRIER BAG JUMBO  0000001000+00000048+00000+0001T   00000048+0000001521          1400 NO5090               2AZ
225253000225253               225253               170213JC     1400+00000+JC0000000876+0000000876+000000000+000000123+0000000990+0000000009+I20000000000+0000000990+Z
225253001225253033-005931     225253006001023678447PINS ON-WHEEL PEARLIZED0000001000+00000876+00000+0001T   00000876+0000001522          1400 NO5200               2AZ
225254000225254               225254               170213JC     1400+00000+JC0000000700+0000000700+000000000+000000098+0000000790+0000000008+I20000000000+0000000790+Z
225254001225254564-000012     225254006001023130075BUBBLE BOTTLE MAGIC    0000001000+00000700+00000+0001T   00000700+0000001522          1400 NO5131               2AZ
225255000225255               225255               170213JC     1400+00000+JC0000004385+0000004385+000000000+000000614+0000004990+0000000009+I20000000000+0000004990+Z
225255001225255031-080508     225255006001023802415P/FRAME PL 22X11CM LOVE0000001000+00004385+00000+0001T   00004385+0000001522          1400 NO5510               2AZ
225256000225256               225256               170213JC     1400+00000+JC0000002630+0000002630+000000000+000000369+0000002999+0000000000+I40000002999+0000000000+Z
225256001225256072-020366     225256006003000452927PET PLACE MAT ASSTD COL0000001000+00002630+00000+0001T   00002630+0000001524          1400 NO5870               2AZ
225257000225257               225257               170213JC     1400+00000+JC0000004420+0000004420+000000000+000000619+0000005030+0000000009+I20000000000+0000005030+Z
225257001225257031-000851     225257006001023851994P/FRAME COL 4-H 31X17CM0000001000+00004385+00000+0001T   00004385+0000001526          1400 NO5510               2AZ
225257002225257112-116038     225257006009681820246TCS CARRIER BAG MIDI   0000001000+00000035+00000+0001T   00000035+0000001526          1400 NO5090               2AZ
225258000225258               225258               170213JC     1400+00000+JC0000002627+0000002627+000000000+000000370+0000002990+0000000007+I20000000000+0000002990+Z
225258001225258077-000324     225258006001023677594GIFT-BAG 33X45CM E/D FL0000001000+00001753+00000+0001T   00001753+0000001532          1400 NO5112               2AZ
225258002225258080-000133     225258006003000535613CARD&ENV MINI ASTD DSGN0000002000+00000437+00000+0001T   00000437+0000001532          1400 NO5112               2AZ
225259000225259               225259               170213JC     1400+00000+JC0000001490+0000001490+000000000+000000209+0000001690+0000000009+I20000000000+0000001690+Z
225259001225259079-006494     225259006003000159864GLITTER GLUE 5PCE 11cm 0000001000+00001490+00000+0001T   00001490+0000001534          1400 NO5130               2AZ
225260000225260               225260               170213JC     1400+00000+JC0000005297+0000005297+000000000+000000742+0000006039+0000000000+I40000006039+0000000000+Z
225260001225260018-019000     225260006003000557288MUG OCC. LOVE JUMBO    0000001000+00005262+00000+0001T   00005262+0000001535          1400 NO5515               2AZ
225260002225260112-116038     225260006009681820246TCS CARRIER BAG MIDI   0000001000+00000035+00000+0001T   00000035+0000001535          1400 NO5090               2AZ
225261000225261               225261               170213JC     1400+00000+JC0000000437+0000000437+000000000+000000062+0000000490+0000000009+I20000000000+0000000490+Z
225261001225261080-000133     225261006003000535613CARD&ENV MINI ASTD DSGN0000001000+00000437+00000+0001T   00000437+0000001535          1400 NO5112               2AZ
225262000225262               225262               170213JC     1400+00000+JC0000014031+0000014031+000000000+000001965+0000015996+0000000000+I40000015996+0000000000+Z
225262001225262031-086102     225262006001023900722P/FRAME PL WORD-TOP 4AS0000001000+00003507+00000+0001T   00003507+0000001538          1400 NO5510               2AZ
225262002225262089-000017     225262006003000331147KEYCHAIN MOM POLY BOX  0000001000+00004385+00000+0001T   00004385+0000001538          1400 NO5205               2AZ
225262003225262018-050000     225262006003000412679MUG OCC LOVE TWIN BEAR 0000001000+00006139+00000+0001T   00006139+0000001538          1400 NO5515               2AZ
225263000225263               225263               170213JC     1400+00000+JC0000000876+0000000876+000000000+000000123+0000000990+0000000009+I20000000000+0000000990+Z
225263001225263903-000483     225263006001704001410SWT LIQUOR SML SORT 60G0000001000+00000876+00000+0001T   00000876+0000001539          1400 NO5150               2AZ
225264000225264               225264               170213JC     1400+00000+JC0000016897+0000016897+000000000+000002380+0000019270+0000000007+I20000000000+0000019270+Z
225264001225264112-116069     225264006009681820277TCS CARRIER BAG JUMBO  0000001000+00000048+00000+0001T   00000048+0000001541          1400 NO5090               2AZ
225264002225264007-000546     225264006001023847935NOTEBOOK 4PCE ASSTD DES0000001000+00002630+00000+0001T   00002630+0000001541          1400 NO5130               2AZ
225264003225264304-001011     225264006001023806727FLWR ROSE RED W/BEAR   0000005000+00000613+00000+0001T   00000788+0006471541          1400 NO5510               2AZ
225264004225264080-000133-A   225264006003000647019MINI VALENTINES CARD   0000009000+00000437+00000+0001T   00000437+0000001541          1400 NO5112               2AZ
225264005225264903-000183     225264006003000451043SWT LB HEART LOLLY     0000005000+00000393+00000+0001T   00000393+0000001541          1400 NO5150               2AZ
225264006225264903-000194     225264006009826020616SWT CHOC RP LOLLY 25G  0000004000+00001314+00000+0001T   00001314+0000001541          1400 NO5150               2AZ
225265000225265               225265               170213JC     1400+00000+JC0000003506+0000003506+000000000+000000492+0000003990+0000000008+I20000000000+0000003990+Z
225265001225265566-000070     225265006003000283798STICKERS POP UP ASSTD  0000001000+00001753+00000+0001T   00001753+0000001542          1400 NO5130               2AZ
225265002225265566-002004     225265006001023672421STICKERS CRYSTAL SHAPES0000001000+00001753+00000+0001T   00001753+0000001542          1400 NO5130               2AZ
225266000225266               225266               170213JC     1400+00000+JC0000003554+0000003554+000000000+000000499+0000004053+0000000000+I40000004053+0000000000+Z
225266001225266142-000810     225266006003000429844GLOVES LATEX PRNT CUFFS0000002000+00001753+00000+0001T   00001753+0000001544          1400 NO5810               2AZ
225266002225266112-116069     225266006003000535064TCS CARRIER BAG JUMBO  0000001000+00000048+00000+0001T   00000048+0000001544          1400 NO5090               2AZ
225267000225267               225267               170213JC     1400+00000+JC0000000437+0000000437+000000000+000000062+0000000490+0000000009+I20000000000+0000000490+Z
225267001225267083-000049     225267004891035200024CIG-LIGHTER DISPOSABLE 0000001000+00000437+00000+0001T   00000437+0000001545          1400 NO5315               2AZ
225268000225268               225268               170213JC     1400+00000+JC0000004385+0000004385+000000000+000000614+0000004990+0000000009+I20000000000+0000004990+Z
225268001225268261-004007     225268006001023707512GUNS DOUBLE WILD-WEST  0000001000+00004385+00000+0001T   00004385+0000001549          1400 NO5710               2AZ
225269000225269               225269               170213JC     1400+00000+JC0000002366+0000002366+000000000+000000332+0000002690+0000000008+I20000000000+0000002690+Z
225269001225269077-000311     225269006001023608666GIFT-BAG 11X14CM GLOSS 0000001000+00000613+00000+0001T   00000613+0000001553          1400 NO5112               2AZ
225269002225269077-000309     225269006001023608604GIFT-BAG 25X32CM GLOSS 0000001000+00001753+00000+0001T   00001753+0000001553          1400 NO5112               2AZ
225270000225270               225270               170213JC     1400+00000+JC0000007629+0000007629+000000000+000001069+0000008690+0000000008+I20000000000+0000008690+Z
225270001225270018-050000     225270006003000412679MUG OCC LOVE TWIN BEAR 0000001000+00006139+00000+0001T   00006139+0000001556          1400 NO5515               2AZ
225270002225270077-000304     225270006001023483232GIFT-BAG 25X32CM E/DAY 0000001000+00001490+00000+0001T   00001490+0000001556          1400 NO5112               2AZ
225271000225271               225271               170213JC     1400+00000+JC0000013409+0000013409+000000000+000001883+0000015290+0000000002+I20000000000+0000015290+Z
225271001225271206-000620     225271006003000631797BACK SCRATCHER EXTEND  0000001000+00002630+00000+0001T   00002630+0000001558          1400 NO5321               2AZ
225271002225271031-080508     225271006001023802415P/FRAME PL 22X11CM LOVE0000002000+00004385+00000+0001T   00004385+0000001558          1400 NO5510               2AZ
225271003225271903-000183     225271006003000451043SWT LB HEART LOLLY     0000004000+00000393+00000+0001T   00000393+0000001558          1400 NO5150               2AZ
225271004225271080-000133-A   225271006003000647019MINI VALENTINES CARD   0000001000+00000437+00000+0001T   00000437+0000001558          1400 NO5112               2AZ
225272000225272               225272               170213JC     1400+00000+JC0000001753+0000001753+000000000+000000246+0000001990+0000000009+I20000000000+0000001990+Z
225272001225272079-006500     225272006001023557186GLUE GLITTER 6/10 PCE  0000001000+00001753+00000+0001T   00001753+0000001559          1400 NO5130               2AZ
225273000225273               225273               170213JC     1400+00000+JC0000001490+0000001490+000000000+000000209+0000001690+0000000009+I20000000000+0000001690+Z
225273001225273039-000108     225273006001023524034TEA-LITE CANDLES 8PCE  0000001000+00001490+00000+0001T   00001490+0000001601          1400 NO5510               2AZ
225274000225274               225274               170213JC     1400+00000+JC0000016356+0000016356+000000000+000002293+0000018640+0000000009+I20000000000+0000018640+Z
225274001225274002-000801     225274006003000555994PEELER PL/MTL Y-SHAPE  0000002000+00001139+00000+0001T   00001139+0000001604          1400 NO5300               2AZ
225274002225274105-008005     225274006002580009484STORAGE CONTAINER 7.5L 0000001000+00004385+00000+0001T   00004385+0000001604          1400 NO5210               2AZ
225274003225274159-000117     225274006003000450398SHOWER CAP PVC ASSTD   0000001000+00002630+00000+0001T   00002630+0000001604          1400 NO5200               2AZ
225274004225274306-001619     225274006003000571451INNER SOLES 2-PAIR     0000001000+00002630+00000+0001T   00002630+0000001604          1400 NO5200               2AZ
225274005225274112-116069     225274006009681820277TCS CARRIER BAG JUMBO  0000001000+00000048+00000+0001T   00000048+0000001604          1400 NO5090               2AZ
225274006225274082-000100     225274006003000360246READING GLS STRENGHT:1 0000001000+00004385+00000+0001T   00004385+0000001604          1400 NO5160               2AZ
225275000225275               225275               170213JC     1400+00000+JC0000016710+0000016710+000000000+000002342+0000019052+0000000000+I40000019052+0000000000+Z
225275001225275083-000058     225275006003000400331LIGHTER JET CIGAR REFIL0000001000+00002630+00000+0001T   00002630+0000001608          1400 NO5315               2AZ
225275002225275077-000457     225275006003000285662G/BAG METALLIC JMB SOL 0000001000+00001753+00000+0001T   00001753+0000001608          1400 NO5112               2AZ
225275003225275368-000113     225275006001023780874PLUSH BLINGED LOVE 30cm0000001000+00012279+00000+0001T   00012279+0000001608          1400 NO5745               2AZ
225275004225275112-116069     225275006009681820277TCS CARRIER BAG JUMBO  0000001000+00000048+00000+0001T   00000048+0000001608          1400 NO5090               2AZ
225276000225276               225276               170213JC     1400+00000+JC0000007396+0000007396+000000000+000001038+0000008434+0000000000+I40000008434+0000000000+Z
225276001225276077-000349-B   225276006001023908315G/RIBBON 3ROLLS 12BOWS 0000001000+00002630+00000+0001T   00002630+0000001611          1400 NO5112               2AZ
225276002225276077-000011-L   225276006001023808585P/TISSUE BRIGHT 10SHEET0000001000+00000876+00000+0001T   00000876+0000001611          1400 NO5112               2AZ
225276003225276080-000103     225276006003000236961CARD&ENVLOPE BDAY-MALE 0000001000+00001753+00000+0001T   00001753+0000001611          1400 NO5112               2AZ
225276004225276006-000180     225276006003000610402BALLOONS BIRTHDAY ASSTD0000001000+00000876+00000+0001T   00000876+0000001611          1400 NO5131               2AZ
225276005225276006-001000     225276006003000093779HELIUM BALLOON FILL    0000002000+00000613+00000+0001T   00000613+0000001611          1400 NO5131               2AZ
225276006225276112-116038     225276006003000534906TCS CARRIER BAG MIDI   0000001000+00000035+00000+0001T   00000035+0000001611          1400 NO5090               2AZ
225277000225277               225277               170213JC     1400+00000+JC0000005259+0000005259+000000000+000000738+0000005990+0000000007+I20000000000+0000005990+Z
225277001225277366-004047     225277006001023834850DRESS UP ACCESS TEETH  0000001000+00001753+00000+0001T   00001753+0000001611          1400 NO5131               2AZ
225277002225277200-003024     225277006001023657299REFUSE BAGS 20PCE BLACK0000002000+00001753+00000+0001T   00001753+0000001611          1400 NO5214               2AZ
225278000225278               225278               170213JC     1400+00000+JC0000008771+0000008771+000000000+000001228+0000009990+0000000009+I20000000000+0000009990+Z
225278001225278368-000099     225278006001023680259PLUSH DOG 23cm ASSTD   0000001000+00008771+00000+0001T   00008771+0000001612          1400 NO5745               2AZ
225279000225279               225279               170213JC     1400+00000+JC0000003542+0000003542+000000000+000000496+0000004030+0000000008+I20000000000+0000004030+Z
225279001225279018-000136     225279006001023659026MUG OCC LOVE W/PLUSH   0000001000+00003507+00000+0001T   00003507+0000001612          1400 NO5515               2AZ
225279002225279112-116038     225279006003000534906TCS CARRIER BAG MIDI   0000001000+00000035+00000+0001T   00000035+0000001612          1400 NO5090               2AZ
225280000225280               225280               170213JC     1400+00000+JC0000003507+0000003507+000000000+000000491+0000003990+0000000008+I20000000000+0000003990+Z
225280001225280065-000239     225280006001023400956DRUM "BUM BUM BAND"19cm0000001000+00003507+00000+0001T   00003507+0000001616          1400 NO5745               2AZ
225281000225281               225281               170213JC     1400+00000+JC0000003942+0000003942+000000000+000000554+0000004496+0000000000+I40000004496+0000000000+Z
225281001225281566-000009     225281006003000180943STICKER-BOOK HOLOGRAM  0000001000+00001753+00000+0001T   00001753+0000001618          1400 NO5130               2AZ
225281002225281079-000275     225281006003000160488PAINT-BRUSHES 6PCE PRO 0000001000+00001753+00000+0001T   00001753+0000001618          1400 NO5130               2AZ
225281003225281006-000171-H   225281006003000609574BALLOONS 1PC RED PRINT 0000001000+00000218+00000+0001T   00000218+0000001618          1400 NO5131               2AZ
225281004225281006-000170-E   225281006003000608546BALLOONS 1PC BLUE      0000001000+00000218+00000+0001T   00000218+0000001618          1400 NO5131               2AZ
225282000225282               225282               170213JC     1400+00000+JC0000000613+0000000613+000000000+000000086+0000000690+0000000009+I20000000000+0000000690+Z
225282001225282083-000055     225282006003000003853LIGHTER ELCTRNC REFILBL0000001000+00000613+00000+0001T   00000613+0000001619          1400 NO5315               2AZ
225283000225283               225283               170213JC     1400+00000+JC0000003856+0000003856+000000000+000000541+0000004397+0000000000+I40000004397+0000000000+Z
225283001225283077-000299     225283006003000395576G/BAG 32x25cm LRG LOVE 0000002000+00001490+00000+0001T   00001490+0000001621          1400 NO5112               2AZ
225283002225283077-000011-D   225283006001023808554TISSUE-WRAP WHITE 10PCE0000001000+00000876+00000+0001T   00000876+0000001621          1400 NO5112               2AZ
225284000225284               225284               170213JC     1400+00000+JC0000019587+0000019587+000000000+000002746+0000022333+0000000000+I40000022333+0000000000+Z
225284001225284001-091415     225284006003000329113W/GLS OCC. LOVE 2PC 2800000001000+00008771+00000+0001T   00009648+0006471623          1400 NO5515               2AZ
225284002225284112-116038     225284006009681820246TCS CARRIER BAG MIDI   0000001000+00000035+00000+0001T   00000035+0000001623          1400 NO5090               2AZ
225284003225284050-000362-Z   225284006001023475275PADLOCK IRON 25mm CARD 0000001000+00002016+00000+0001T   00002016+0000001623          1400 NO5855               2AZ
225284004225284088-000084     225284006001023798060P/POURRI 120G ASSTD    0000002000+00001753+00000+0001T   00001753+0000001623          1400 NO5212               2AZ
225284005225284200-003024     225284006001023657299REFUSE BAGS 20PCE BLACK0000001000+00001753+00000+0001T   00001753+0000001623          1400 NO5214               2AZ
225284006225284903-000618     225284006003000672370SWT LOLLY RAINBOW GIANT0000002000+00001753+00000+0001T   00001753+0000001623          1400 NO5150               2AZ
225285000225285               225285               170213JC     1400+00000+JC0000017530+0000017530+000000000+000002460+0000019990+0000000000+I40000019990+0000000000+Z
225285001225285491-059640     225285000078257596409INTEX:ARMBAND 3-6YRS   0000010000+00001753+00000+0001T   00001753+0000001625          1400 NO5787               2AZ
225286000225286               225286               170213JC     1400+00000+JC0000001753+0000001753+000000000+000000246+0000001999+0000000000+I40000001999+0000000000+Z
225286001225286077-000906     225286006003000410804G/WRAP 700mmx1m BIRTHDA0000001000+00001753+00000+0001T   00001753+0000001627          1400 NO5112               2AZ
225287000225287               225287               170213JC     1400+00000+JC0000001578+0000001578+000000000+000000221+0000001790+0000000009+I20000000000+0000001790+Z
225287001225287077-000303     225287006001023593757GIFT-BAG PAPER MED     0000001000+00001578+00000+0001T   00001578+0000001627          1400 NO5112               2AZ
225288000225288               225288               170213JC     1400+00000+JC0000003506+0000003506+000000000+000000492+0000003990+0000000008+I20000000000+0000003990+Z
225288001225288077-000011-X   225288006001023809827TISSUE-WRAP SILVER 10PC0000001000+00001753+00000+0001T   00001753+0000001629          1400 NO5112               2AZ
225288002225288077-000381     225288006003000247707GIFT-BAG 25X32CM S/COL 0000001000+00001753+00000+0001T   00001753+0000001629          1400 NO5112               2AZ
225289000225289               225289               170213JC     1400+00000+JC0000002936+0000002936+000000000+000000412+0000003340+0000000008+I20000000000+0000003340+Z
225289001225289562-000808     225289006003000651573EDU PEG BOARD SML      0000001000+00002630+00000+0001T   00002630+0000001632          1400 NO5755               2AZ
225289002225289306-000020     225289006001023743145POCKET-TISSUES 10PCE   0000001000+00000306+00000+0001T   00000306+0000001632          1400 NO5200               2AZ
225290000225290               225290               170213JC     1400+00000+JC0000006750+0000006750+000000000+000000946+0000007690+0000000006+I20000000000+0000007690+Z
225290001225290084-006996     225290006003000092833NAIL CLIPPER 6cm       0000001000+00001753+00000+0001T   00001753+0000001632          1400 NO5200               2AZ
225290002225290084-070001     225290006001023630018NAIL FILE 12cm         0000001000+00001490+00000+0001T   00001490+0000001632          1400 NO5200               2AZ
225290003225290087-000102     225290006003000137466HAIR TRIMMER SET       0000001000+00003507+00000+0001T   00003507+0000001632          1400 NO5200               2AZ
225291000225291               225291               170213JC     1400+00000+JC0000003507+0000003507+000000000+000000491+0000003990+0000000008+I20000000000+0000003990+Z
225291001225291031-000923     225291006001023669933P/FRAME BLK W/WORDS    0000001000+00003507+00000+0001T   00003507+0000001634          1400 NO5510               2AZ
225292000225292               225292               170213JC     1400+00000+JC0000005260+0000005260+000000000+000000738+0000005990+0000000008+I20000000000+0000005990+Z
225292001225292266-003012     225292006001023786128BOYS P/SET ARCHERY 4pc 0000002000+00002630+00000+0001T   00002630+0000001636          1400 NO5710               2AZ
225293000225293               225293               170213JC     1400+00000+JC0000001578+0000001578+000000000+000000221+0000001790+0000000009+I20000000000+0000001790+Z
225293001225293264-000918     225293000090159150268MAISTO MDC ATV         0000001000+00005262+00000+0001T   00005262+0000001639          1400 NO5710               2AZ
225293002225293264-015494     225293000090159154945MAISTO DINKY MUSCLE CAR0000001000-00007893+00000+0001T   00007893+0000001639          1400 NO57102IC            2 Z
225293003225293264-015494     225293000090159154945MAISTO DINKY MUSCLE CAR0000001000+00007893+00000+0001T   00007893+0000001639          1400 NO57102IC            2AZ
225293004225293264-000918     225293000090159150268MAISTO MDC ATV         0000001000-00005262+00000+0001T   00005262+0000001639          1400 NO57102IC            2 Z
225293005225293077-000303     225293006001023593757GIFT-BAG PAPER MED     0000001000+00001578+00000+0001T   00001578+0000001639          1400 NO5112               2AZ
225294000225294               225294               170213JC     1400+00000+JC0000001578+0000001578+000000000+000000221+0000001790+0000000009+I20000000000+0000001790+Z
225294001225294018-000127     225294006001023380289MUG OCC STRAIGHT LOVE  0000001000+00001578+00000+0001T   00001753+0006471646          1400 NO5515               2AZ
225295000225295               225295               170213JC     1400+00000+JC0000006434+0000006434+000000000+000000901+0000007330+0000000005+I20000000000+0000007330+Z
225295001225295077-000303     225295006001023593757GIFT-BAG PAPER MED     0000001000+00001578+00000+0001T   00001578+0000001649          1400 NO5112               2AZ
225295002225295301-085004     225295006003000420469ORN LOVE PLAQUE 21X10CM0000001000+00003507+00000+0001T   00003946+0006471649          1400 NO5505               2AZ
225295003225295903-000194     225295006009826020616SWT CHOC RP LOLLY 25G  0000001000+00001314+00000+0001T   00001314+0000001649          1400 NO5150               2AZ
225295004225295112-116038     225295006009681820246TCS CARRIER BAG MIDI   0000001000+00000035+00000+0001T   00000035+0000001649          1400 NO5090               2AZ
225296000225296               225296               170213JC     1400+00000+JC0000004385+0000004385+000000000+000000614+0000004990+0000000009+I20000000000+0000004990+Z
225296001225296006-000190     225296006003000685530BALLOONS LOVE 81x91cm  0000001000+00004385+00000+0001T   00004385+0000001649          1400 NO5131               2AZ
225297000225297               225297               170213JC     1400+00000+JC0000007660+0000007660+000000000+000001075+0000008735+0000000000+I40000008735+0000000000+Z
225297001225297566-001500     225297006003000658275STICKER PUFFY EMOTION  0000001000+00001753+00000+0001T   00001753+0000001651          1400 NO5130               2AZ
225297002225297080-000133     225297006003000535613CARD&ENV MINI ASTD DSGN0000001000+00000437+00000+0001T   00000437+0000001651          1400 NO5112               2AZ
225297003225297566-001500     225297006003000658275STICKER PUFFY EMOTION  0000001000+00001753+00000+0001T   00001753+0000001651          1400 NO5130               2AZ
225297004225297031-000868-A   225297006001023798534P/FRAME PL BLCK 10X15CM0000001000+00002192+00000+0001T   00002192+0000001651          1400 NO5510               2AZ
225297005225297077-000304     225297006001023483232GIFT-BAG 25X32CM E/DAY 0000001000+00001490+00000+0001T   00001490+0000001651          1400 NO5112               2AZ
225297006225297112-116038     225297006009681820246TCS CARRIER BAG MIDI   0000001000+00000035+00000+0001T   00000035+0000001651          1400 NO5090               2AZ
225298000225298               225298               170213JC     1400+00000+JC0000010218+0000010218+000000000+000001431+0000011649+0000000000+I40000011649+0000000000+Z
225298001225298564-009019     225298006001023498519BUBBLE TOY GUN         0000002000+00004385+00000+0001T   00004385+0000001652          1400 NO5131               2AZ
225298002225298112-116069     225298006009681820277TCS CARRIER BAG JUMBO  0000001000+00000048+00000+0001T   00000048+0000001652          1400 NO5090               2AZ
225298003225298564-000012     225298006001023130075BUBBLE BOTTLE MAGIC    0000002000+00000700+00000+0001T   00000700+0000001652          1400 NO5131               2AZ
225299000225299               225299               170213JC     1400+00000+JC0000010085+0000010085+000000000+000001413+0000011490+0000000008+I20000000000+0000011490+Z
225299001225299301-085007     225299006003000673698ORN OCC. LOVE S/PLAQUE 0000001000+00007893+00000+0001T   00007893+0000001653          1400 NO5505               2AZ
225299002225299080-000127     225299006003000424351VALENTINES DAY 36x24CM 0000001000+00002192+00000+0001T   00002192+0000001653          1400 NO5112               2AZ
225300000225300               225300               170213JC     1400+00000+JC0000002180+0000002180+000000000+000000310+0000002490+0000000000+I20000000000+0000002490+Z
225300001225300006-000171-H   225300006003000609574BALLOONS 1PC RED PRINT 0000010000+00000218+00000+0001T   00000218+0000001654          1400 NO5131               2AZ
225301000225301               225301               170213JC     1400+00000+JC0000001578+0000001578+000000000+000000221+0000001790+0000000009+I20000000000+0000001790+Z
225301001225301077-000303     225301006001023593757GIFT-BAG PAPER MED     0000001000+00001578+00000+0001T   00001578+0000001655          1400 NO5112               2AZ
225302000225302               225302               170213JC     1400+00000+JC0000012279+0000012279+000000000+000001720+0000013990+0000000009+I20000000000+0000013990+Z
225302001225302368-000113     225302006001023780874PLUSH BLINGED LOVE 30cm0000001000+00012279+00000+0001T   00012279+0000001656          1400 NO5745               2AZ
225303000225303               225303               170213JC     1400+00000+JC0000012279+0000012279+000000000+000001720+0000013990+0000000009+I20000000000+0000013990+Z
225303001225303368-000113     225303006001023780874PLUSH BLINGED LOVE 30cm0000001000+00012279+00000+0001T   00012279+0000001656          1400 NO5745               2AZ
225304000225304               225304               170213JC     1400+00000+JC0000013151+0000013151+000000000+000001842+0000014993+0000000000+I40000014993+0000000000+Z
225304001225304018-005009     225304006001023725608MUG W/PLUSH-BEAR LOVE  0000001000+00003507+00000+0001T   00003507+0000001658          1400 NO5515               2AZ
225304002225304162-096856     225304006001492968568#TAG KIDS NECKLACE     0000001000+00002630+00000+0001T   00002630+0000001658          1400 NO5160               2AZ
225304003225304018-005009     225304006001023725608MUG W/PLUSH-BEAR LOVE  0000002000+00003507+00000+0001T   00003507+0000001658          1400 NO5515               2AZ
225305000225305               225305               170213JC     1400+00000+JC0000002192+0000002192+000000000+000000307+0000002490+0000000009+I20000000000+0000002490+Z
225305001225305080-000127     225305006003000424351VALENTINES DAY 36x24CM 0000001000+00002192+00000+0001T   00002192+0000001659          1400 NO5112               2AZ
225306000225306               225306               170213JC     1400+00000+JC0000002980+0000002980+000000000+000000418+0000003390+0000000008+I20000000000+0000003390+Z
225306001225306564-000036     225306006001023708694BUBBLE W/PUZZLE        0000002000+00001490+00000+0001T   00001490+0000001700          1400 NO5131               2AZ
225307000225307               225307               170213JC     1400+00000+JC0000002892+0000002892+000000000+000000406+0000003290+0000000008+I20000000000+0000003290+Z
225307001225307077-000299-A   225307006003000670888GIFT-BAG PAPER JMB LOVE0000001000+00001753+00000+0001T   00001753+0000001702          1400 NO5112               2AZ
225307002225307903-000087     225307006001704000161SWT SPECKLED-EGGS 50G  0000001000+00001139+00000+0001T   00001139+0000001702          1400 NO5150               2AZ
225308000225308               225308               170213JC     1400+00000+JC0000002630+0000002630+000000000+000000369+0000002990+0000000009+I20000000000+0000002990+Z
225308001225308077-000270     225308006003000395453GIFT-BAG PPR JMB 33X45 0000001000+00002630+00000+0001T   00002630+0000001702          1400 NO5112               2AZ
225309000225309               225309               170213JC     1400+00000+JC0000012451+0000012451+000000000+000001744+0000014195+0000000000+I40000014195+0000000000+Z
225309001225309304-001011     225309006001023806727FLWR ROSE RED W/BEAR   0000001000+00000613+00000+0001T   00000788+0006471705          1400 NO5510               2AZ
225309002225309080-000127     225309006003000424351VALENTINES DAY 36x24CM 0000001000+00002192+00000+0001T   00002192+0000001705          1400 NO5112               2AZ
225309003225309018-030000     225309006003000421060MUG OCCASIONS LOVE 2PCE0000001000+00004385+00000+0001T   00004385+0000001705          1400 NO5515               2AZ
225309004225309103-000781     225309006003000637867BAMBOO BASKET ROUND 23c0000001000+00004385+00000+0001T   00004385+0000001705          1400 NO5300               2AZ
225309005225309077-000150-D   225309006003000054343GIFT-WRAP CELLPHANE CLR0000001000+00000876+00000+0001T   00000876+0000001705          1400 NO5112               2AZ
225310000225310               225310               170213JC     1400+00000+JC0000004385+0000004385+000000000+000000614+0000004990+0000000009+I20000000000+0000004990+Z
225310001225310368-000049     225310006003000536955PLUSH BEAR 15cm LOVE   0000001000+00004385+00000+0001T   00004385+0000001705          1400 NO5745               2AZ
225311000225311               225311               170213JC     1400+00000+JC0000005558+0000005558+000000000+000000779+0000006337+0000000000+I40000006337+0000000000+Z
225311001225311077-000150-D   225311006003000054343GIFT-WRAP CELLPHANE CLR0000001000+00000876+00000+0001T   00000876+0000001707          1400 NO5112               2AZ
225311002225311080-000124     225311006003000297733CARD & ENV VALENTINES  0000001000+00001578+00000+0001T   00001578+0000001707          1400 NO5112               2AZ
225311003225311103-000072     225311006001023618238BASKET RECT 25x16x6cm  0000001000+00003069+00000+0001T   00003069+0000001707          1400 NO5300               2AZ
225311004225311112-116038     225311006003000534906TCS CARRIER BAG MIDI   0000001000+00000035+00000+0001T   00000035+0000001707          1400 NO5090               2AZ
225312000225312               225312               170213JC     1400+00000+JC0000000876+0000000876+000000000+000000123+0000000990+0000000009+I20000000000+0000000990+Z
225312001225312903-003075     225312003800065783125SWT CHOC FAFL WAFER 52g0000001000+00000876+00000+0001T   00000876+0000001708          1400 NO5150               2AZ
225313000225313               225313               170213JC     1400+00000+JC0000003506+0000003506+000000000+000000492+0000003990+0000000008+I20000000000+0000003990+Z
225313001225313077-000457     225313006003000285662G/BAG METALLIC JMB SOL 0000002000+00001753+00000+0001T   00001753+0000001709          1400 NO5112               2AZ
225314000225314               225314               170213JC     1400+00000+JC0000003507+0000003507+000000000+000000491+0000003990+0000000008+I20000000000+0000003990+Z
225314001225314018-000136     225314006001023659026MUG OCC LOVE W/PLUSH   0000001000+00003507+00000+0001T   00003507+0000001710          1400 NO5515               2AZ
225315000225315               225315               170213JC     1400+00000+JC0000009471+0000009471+000000000+000001327+0000010790+0000000008+I20000000000+0000010790+Z
225315001225315301-085007     225315006003000673698ORN OCC. LOVE S/PLAQUE 0000001000+00007893+00000+0001T   00007893+0000001710          1400 NO5505               2AZ
225315002225315077-000323     225315006001023677563G/BAG 25X32CM E/DAY FLO0000001000+00001578+00000+0001T   00001578+0000001710          1400 NO5112               2AZ
225316000225316               225316               170213JC     1400+00000+JC0000003507+0000003507+000000000+000000491+0000003990+0000000008+I20000000000+0000003990+Z
225316001225316018-000136     225316006001023659026MUG OCC LOVE W/PLUSH   0000001000+00003507+00000+0001T   00003507+0000001712          1400 NO5515               2AZ
225317000225317               225317               170213JC     1400+00000+JC0000011400+0000011400+000000000+000001597+0000012990+0000000007+I20000000000+0000012990+Z
225317001225317018-005009     225317006001023725608MUG W/PLUSH-BEAR LOVE  0000001000+00003507+00000+0001T   00003507+0000001714          1400 NO5515               2AZ
225317002225317301-085007     225317006003000673698ORN OCC. LOVE S/PLAQUE 0000001000+00007893+00000+0001T   00007893+0000001714          1400 NO5505               2AZ
225318000225318               225318               170213JC     1400+00000+JC0000013323+0000013323+000000000+000001868+0000015191+0000000000+I40000015191+0000000000+Z
225318001225318565-000044     225318006003000128280BARREL OF SLIME 100g   0000001000+00000613+00000+0001T   00000613+0000001717          1400 NO5745               2AZ
225318002225318162-092942     225318006001492929422#TAG KIDS BEADED WR&ER 0000001000+00003507+00000+0001T   00003507+0000001717          1400 NO5160               2AZ
225318003225318567-011488     225318000805219343531BK COLOURING 96P MINI  0000001000+00003507+00000+0001T   00003507+0000001717          1400 NO5757               2AZ
225318004225318567-011367     225318009781859979198BK ACTIVITY BIG PURPLE 0000001000+00002630+00000+0001T   00003507+0008141717          1400 NO5757               2AZ
225318005225318077-000011-D   225318006001023808554TISSUE-WRAP WHITE 10PCE0000001000+00000876+00000+0001T   00000876+0000001717          1400 NO5112               2AZ
225318006225318077-000011-X   225318006001023809827TISSUE-WRAP SILVER 10PC0000001000+00001753+00000+0001T   00001753+0000001717          1400 NO5112               2AZ
225318007225318080-000133     225318006003000535613CARD&ENV MINI ASTD DSGN0000001000+00000437+00000+0001T   00000437+0000001717          1400 NO5112               2AZ
225318008225318200-003026     225318006003000276448REFUSE BAGS 10PCE GREEN0000001000-00001753+00000+0001T   00001753+0000001717          1400 NO52142IC            2 Z
225318009225318200-003026     225318006003000276448REFUSE BAGS 10PCE GREEN0000001000+00001753+00000+0001T   00001753+0000001717          1400 NO52142IC            2AZ
225319000225319               225319               170213JC     1400+00000+JC0000060605+0000060605+000000000+000008489+0000069094+0000000000+I40000069094+0000000000+Z
225319001225319112-116069     225319006009681820277TCS CARRIER BAG JUMBO  0000001000+00000048+00000+0001T   00000048+0000001720          1400 NO5090               2AZ
225319002225319361-000113     225319006001023680204DOLL 30cm RAG          0000001000+00005262+00000+0001T   00005262+0000001720          1400 NO5725               2AZ
225319003225319365-003068     225319006003000242146PLAYSET TEA-SET BACK PK0000001000+00008771+00000+0001T   00008771+0000001720          1400 NO5725               2AZ
225319004225319124-001300     225319006003000486861STORAGE TIN WASHING    0000001000+00006139+00000+0001T   00006139+0000001720          1400 NO5300               2AZ
225319005225319567-011370     225319009781472330512BK STICKER DOC MCSTUFFI0000001000+00003507+00000+0001T   00003507+0000001720          1400 NO5757               2AZ
225319006225319567-010160     225319006003000484966BOOK TOP ASSTD CHILDREN0000001000+00006578+00000+0001T   00006578+0000001720          1400 NO5757               2AZ
225319007225319079-013111     225319006003000683024CREATE A HAT SET       0000001000+00003946+00000+0001T   00003946+0000001720          1400 NO5130               2AZ
225319008225319112-116069     225319006009681820277TCS CARRIER BAG JUMBO  0000001000+00000048+00000+0001T   00000048+0000001720          1400 NO5090               2AZ
225319009225319006-000120     225319006001023346889BALLOONS 10PC MIX COL  0000001000+00001753+00000+0001T   00001753+0000001720          1400 NO5131               2AZ
225319010225319200-003026     225319006003000276448REFUSE BAGS 10PCE GREEN0000001000+00001753+00000+0001T   00001753+0000001720          1400 NO5214               2AZ
225319011225319206-000520     225319006003000620708NOVELTY BIRTHDAY CANDLE0000001000+00001314+00000+0001T   00001753+0008181720          1400 NO5321               2AZ
225319012225319024-007001     225319006002580007688CAKE/BISCUIT-SERVER    0000001000+00003069+00000+0001T   00003069+0000001720          1400 NO5300               2AZ
225319013225319366-006110     225319006003000636075DRESS UP HAIR CHALK 6  0000001000+00004385+00000+0001T   00004385+0000001720          1400 NO5131               2AZ
225319014225319006-000097     225319006003000376612PARTY WIND SPINNER     0000001000+00003507+00000+0001T   00003507+0000001720          1400 NO5131               2AZ
225319015225319464-000342     225319006003000645961GAME TRICK STICK       0000001000+00010525+00000+0001T   00010525+0000001720          1400 NO5785               2AZ
225320000225320               225320               170213JC     1400+00000+JC0000012046+0000012046+000000000+000001689+0000013735+0000000000+I40000013735+0000000000+Z
225320001225320112-116038     225320006009681820246TCS CARRIER BAG MIDI   0000001000+00000035+00000+0001T   00000035+0000001722          1400 NO5090               2AZ
225320002225320027-000010-B   225320006009635020104SHOE-BRUSH BLACK       0000002000+00000525+00000+0001T   00000525+0000001722          1400 NO5212               2AZ
225320003225320047-000512-H   225320006001023657473EXT-CORD 3m DBL-J   H&H0000001000+00006578+00000+0001T   00006578+0000001722          1400 NO5880               2AZ
225320004225320031-006528     225320006001023670083FRAME 13x18cm FLOWERS  0000001000+00002630+00000+0001T   00002630+0000001722          1400 NO5510               2AZ
225320005225320047-000507     225320006001023684479PLUG-ADAPTOR EURO TWIN 0000001000+00001753+00000+0001T   00001753+0000001722          1400 NO5880               2AZ
225321000225321               225321               170213JC     1400+00000+JC0000006135+0000006135+000000000+000000861+0000006996+0000000000+I40000006996+0000000000+Z
225321001225321018-000129     225321006001023403353MUG OCC. LOVE V-SHAPE  0000001000+00002630+00000+0001T   00002630+0000001723          1400 NO5515               2AZ
225321002225321304-001011     225321006001023806727FLWR ROSE RED W/BEAR   0000001000+00000613+00000+0001T   00000788+0006471723          1400 NO5510               2AZ
225321003225321903-000087     225321006001704000161SWT SPECKLED-EGGS 50G  0000001000+00001139+00000+0001T   00001139+0000001723          1400 NO5150               2AZ
225321004225321903-000619     225321006003000672455SWT LOLLY STR/BRRY 140G0000001000+00001753+00000+0001T   00001753+0000001723          1400 NO5150               2AZ
225322000225322               225322               170213JC     1400+00000+JC0000000876+0000000876+000000000+000000123+0000000990+0000000009+I20000000000+0000000990+Z
225322001225322083-000050     225322006001023898593LIGHTERS DISPOSABLE    0000001000+00000876+00000+0001T   00000876+0000001724          1400 NO5315               2AZ
225323000225323               225323               170213JC     1400+00000+JC0000000613+0000000613+000000000+000000086+0000000690+0000000009+I20000000000+0000000690+Z
225323001225323304-001011     225323006001023806727FLWR ROSE RED W/BEAR   0000001000+00000613+00000+0001T   00000788+0006471724          1400 NO5510               2AZ
225324000225324               225324               170213JC     1400+00000+JC0000000613+0000000613+000000000+000000086+0000000690+0000000009+I20000000000+0000000690+Z
225324001225324304-001011     225324006001023806727FLWR ROSE RED W/BEAR   0000001000+00000613+00000+0001T   00000788+0006471724          1400 NO5510               2AZ
225325000225325               225325               170213JC     1400+00000+JC0000001578+0000001578+000000000+000000221+0000001790+0000000009+I20000000000+0000001790+Z
225325001225325018-000127     225325006001023380289MUG OCC STRAIGHT LOVE  0000001000+00001578+00000+0001T   00001753+0006471725          1400 NO5515               2AZ
225326000225326               225326               170213JC     1400+00000+JC0000000035+0000000035+000000000+000000005+0000000040+0000000000+I20000000000+0000000040+Z
225326001225326112-116038     225326006003000534906TCS CARRIER BAG MIDI   0000001000+00000035+00000+0001T   00000035+0000001725          1400 NO5090               2AZ
225327000225327               225327               170213JC     1400+00000+JC0000000876+0000000876+000000000+000000123+0000000990+0000000009+I20000000000+0000000990+Z
225327001225327903-000897     225327008692806325207SWT CHOC DBL MINI ROLL 0000001000+00000876+00000+0001T   00000876+0000001726          1400 NO5150               2AZ
225328000225328               225328               170213JC     1400+00000+JC0000001753+0000001753+000000000+000000246+0000001990+0000000009+I20000000000+0000001990+Z
225328001225328077-000381     225328006003000247707GIFT-BAG 25X32CM S/COL 0000001000+00001753+00000+0001T   00001753+0000001727          1400 NO5112               2AZ
225329000225329               225329               170213JC     1400+00000+JC0000001753+0000001753+000000000+000000246+0000001990+0000000009+I20000000000+0000001990+Z
225329001225329366-002799     225329006003000648238DRESSUP S/ADH FACE HAIR0000001000+00001753+00000+0001T   00001753+0000001729          1400 NO5131               2AZ
225330000225330               225330               170213JC     1400+00000+JC0000005032+0000005032+000000000+000000705+0000005730+0000000007+I20000000000+0000005730+Z
225330001225330077-000305     225330006003000395422GIFT-BAG WINE 10X35CM  0000001000+00001490+00000+0001T   00001490+0000001732          1400 NO5112               2AZ
225330002225330301-085004     225330006003000420469ORN LOVE PLAQUE 21X10CM0000001000+00003507+00000+0001T   00003946+0006471732          1400 NO5505               2AZ
225330003225330112-116038     225330006003000534906TCS CARRIER BAG MIDI   0000001000+00000035+00000+0001T   00000035+0000001732          1400 NO5090               2AZ
225331000225331               225331               170213JC     1400+00000+JC0000011839+0000011839+000000000+000001659+0000013498+0000000000+I40000013498+0000000000+Z
225331001225331368-000637     225331006001023874092PLUSH BEAR SLEEPING LOV0000001000+00011402+00000+0001T   00012279+0006471734          1400 NO5745               2AZ
225331002225331080-000133-A   225331006003000647019MINI VALENTINES CARD   0000001000+00000437+00000+0001T   00000437+0000001734          1400 NO5112               2AZ
225332000225332               225332               170213JC     1400+00000+JC0000001490+0000001490+000000000+000000209+0000001690+0000000009+I20000000000+0000001690+Z
225332001225332079-006494     225332006003000159864GLITTER GLUE 5PCE 11cm 0000001000+00001490+00000+0001T   00001490+0000001735          1400 NO5130               2AZ
A17021300                                          10123867JCSLAVE 2                       NO52IC
A17021301                                          10424489JCSLAVE 2                       NO52IC
A17021302                                          13294637JCSLAVE 2                       EO72IC
M17021301                              GLADWIN     JCLENASIA JC                                      LAST TILL SLIP NO 225332                        THANX
M17021391                              CASH        JCSLAVE 2                       Z-REPORT No.   641TOTAL (Sales - Refunds)          10206.30       CASH TO BE BANKED                 5912.30       DEBIT CARDS                          0.00       CREDIT CARDS                      4294.00       Z-READING                        10206.30       AIRTIME DEBIT CARD SALES             0.00       AIRTIME CARD SALES                   0.00       OVERS/UNDERS                         0.00       AIRTIME CASH SALES                   0.00       GIFT CARDS                           0.00       GIFT CARD CASH SALES                 0.00       T O T A L  CASH PAYOUTS              0.00                                                                                                                                                                                                                                                                                                                                                      Z
M17021392                              CASH        JCABSENT                                                                                                                                                                                          ANNUAL LEAVE                                                                                                                                                                                    DAY OFF                                                                                                                                                                                         COMMENTS                                                                                                                                                                                                                                                                                                                                                                                       Z
Y17021300                                          JC00000000947660+000149
ZJC17021319523 SLAVE 2      SALES DATA                     NEXT INVOICE NO.  225333 0641
X JC Slave 2 First invoice 225184 170213 Last invoice 225332 170213 Next invoice 225333 Total number of records 000000504 clbackup completed 19:52:50
