217774000217774               217774               170213JD     1400+00000+JD0000007714+0000007714+000000000+000001081+0000008790+0000000005+I20000000000+0000008790+Z
217774001217774566-000451     217774006001023788443STICKERS GLITTER ASSTD 0000001000+00001314+00000+0001T   00001753+0008150944          1400 GL3130               1BZ
217774002217774006-000124     217774006003000625888BALLOONS 10PC MIX COL  0000001000+00001753+00000+0001T   00001753+0000000944          1400 GL3131               1BZ
217774003217774006-000227     217774006003000328086PARTY BIRTHDAY BADGES  0000001000+00003069+00000+0001T   00003069+0000000944          1400 GL3131               1BZ
217774004217774018-000127     217774006001023380289MUG OCC STRAIGHT LOVE  0000001000+00001578+00000+0001T   00001753+0006470944          1400 GL3515               1BZ
217775000217775               217775               170213JD     1400+00000+JD0000001753+0000001753+000000000+000000246+0000001990+0000000009+I20000000000+0000001990+Z
217775001217775079-000275     217775006003000160488PAINT-BRUSHES 6PCE PRO 0000001000+00001753+00000+0001T   00001753+0000000945          1400 GL3130               1BZ
217776000217776               217776               170213JD     1400+00000+JD0000007016+0000007016+000000000+000000983+0000007999+0000000000+I40000007999+0000000000+Z
217776001217776041-093000     217776006003000320882B/GIFT SET 4PC B/RANGE 0000001000+00007016+00000+0001T   00007016+0000000947          1400 GL3200               1BZ
217777000217777               217777               170213JD     1400+00000+JD0000003506+0000003506+000000000+000000492+0000003990+0000000008+I20000000000+0000003990+Z
217777001217777051-002402     217777006001023518347TRIGGER-SPRAYER  500ml 0000002000+00001753+00000+0001T   00001753+0000001146          1400 GL3820               1BZ
217778000217778               217778               170213JD     1400+00000+JD0000013155+0000013155+000000000+000001842+0000014990+0000000007+I20000000000+0000014990+Z
217778001217778304-001117     217778006001023786630FLOWER CROSS 50CM      0000003000+00004385+00000+0001T   00004385+0000001150          1400 GL3510               1BZ
217779000217779               217779               170213JD     1400+00000+JD0000008771+0000008771+000000000+000001228+0000009990+0000000009+I20000000000+0000009990+Z
217779001217779304-001113     217779006001023738189F/BUNCH ANGEL-ROSE ASST0000001000-00004385+00000+0001T   00004385+0000001153          1400 GL35101IC            1 Z
217779002217779304-001113     217779006001023738189F/BUNCH ANGEL-ROSE ASST0000001000+00004385+00000+0001T   00004385+0000001153          1400 GL35101IC            1BZ
217779003217779019-000076     217779006001023757159V/GLASS 25CM C/DESIGN  0000001000+00008771+00000+0001T   00008771+0000001153          1400 GL3510               1BZ
217780000217780               217780               170213JD     1400+00000+JD0000002630+0000002630+000000000+000000369+0000002990+0000000009+I20000000000+0000002990+Z
217780001217780019-071603     217780006001023772039RIVER-STONES 1kg PEACH 0000001000+00002630+00000+0001T   00002630+0000001155          1400 GL3510               1BZ
217781000217781               217781               170213JD     1400+00000+JD0000060131+0000060131+000000000+000008429+0000068560+0000000000+I40000068560+0000000000+Z
217781001217781056-065301     217781006001023625861CAR SUN-SHIELD 114x66cm0000001000+00005262+00000+0001T   00005262+0000001203          1400 GL3860               1BZ
217781002217781105-001160     217781006003000666409CONTAINER SET LITE 6PC 0000001000+00001753+00000+0001T   00001753+0000001203          1400 GL3210               1BZ
217781003217781200-000208     217781006003000293728BAKING ALUM FOIL 5PCE  0000001000+00002630+00000+0001T   00002630+0000001203          1400 GL3214               1BZ
217781004217781200-000010     217781006925406841061BAG ZIPPERSEAL 35PC    0000001000+00002192+00000+0001T   00002192+0000001203          1400 GL3214               1BZ
217781005217781564-000017     217781006003000654468BUBBLE NOVELTY WAND 29 0000007000+00003507+00000+0001T   00003507+0000001203          1400 GL3131               1BZ
217781006217781369-001138-C   217781006003000587520BABY BATH VINYL G/MAN  0000001000+00002630+00000+0001T   00002630+0000001203          1400 GL3745               1BZ
217781007217781369-001138-B   217781006003000564972BABY BATH ROYAL DUCKS  0000001000+00002630+00000+0001T   00002630+0000001203          1400 GL3745               1BZ
217781008217781369-001138-C   217781006003000587520BABY BATH VINYL G/MAN  0000001000+00002630+00000+0001T   00002630+0000001203          1400 GL3745               1BZ
217781009217781369-001138-B   217781006003000564972BABY BATH ROYAL DUCKS  0000001000+00002630+00000+0001T   00002630+0000001203          1400 GL3745               1BZ
217781010217781565-000071     217781006003000643387NOVELTY WIND UP CHATTER0000001000+00001139+00000+0001T   00001139+0000001203          1400 GL3745               1BZ
217781011217781903-000844     217781005010478432567SWT CANDY DL LUV HEARTS0000004000+00001314+00000+0001T   00001314+0000001203          1400 GL3150               1BZ
217781012217781903-000155     217781006009803374435SWT LOLLY I LUV U HEART0000008000+00000525+00000+0001T   00000525+0000001203          1400 GL3150               1BZ
217781013217781369-001138-C   217781006003000587520BABY BATH VINYL G/MAN  0000001000+00002630+00000+0001T   00002630+0000001203          1400 GL3745               1BZ
217782000217782               217782               170213JD     1400+00000+JD0000006138+0000006138+000000000+000000860+0000006990+0000000008+I20000000000+0000006990+Z
217782001217782077-000314     217782006003000181148GIFT-BAG 11X14CM MATT  0000001000+00000876+00000+0001T   00000876+0000001204          1400 GL3112               1BZ
217782002217782301-000120     217782006003000456420ORN ANGEL BELL 10CM    0000001000+00005262+00000+0001T   00005262+0000001204          1400 GL3505               1BZ
217783000217783               217783               170213JD     1400+00000+JD0000002627+0000002627+000000000+000000370+0000002997+0000000000+I40000002997+0000000000+Z
217783001217783566-000037     217783006003000383948STICKER 3D GEL         0000001000+00001753+00000+0001T   00001753+0000001205          1400 GL3130               1BZ
217783002217783903-000885     217783008690997017147SWT L/BIRD CHOC BISCUIT0000002000+00000437+00000+0001T   00000437+0000001205          1400 GL3150               1BZ
217784000217784               217784               170213JD     1400+00000+JD0000006435+0000006435+000000000+000000906+0000007340+0000000001+I20000000000+0000007340+Z
217784001217784108-004000-B   217784006005387000289PLATE DINNER ASSTD CLR 0000003000+00000744+00000+0001T   00000744+0000001209          1400 GL3210               1BZ
217784002217784077-000150-D   217784006003000054343GIFT-WRAP CELLPHANE CLR0000003000+00000876+00000+0001T   00000876+0000001209          1400 GL3112               1BZ
217784003217784903-000155     217784006009803374435SWT LOLLY I LUV U HEART0000003000+00000525+00000+0001T   00000525+0000001209          1400 GL3150               1BZ
217785000217785               217785               170213JD     1400+00000+JD0000018006+0000018006+000000000+000002525+0000020531+0000000000+I40000020531+0000000000+Z
217785001217785112-116038     217785006009681820246TCS CARRIER BAG MIDI   0000001000+00000035+00000+0001T   00000035+0000001222          1400 GL3090               1BZ
217785002217785018-000130     217785006001023867537MUG OCC LOVE MINI+HEART0000001000+00003507+00000+0001T   00003507+0000001222          1400 GL3515               1BZ
217785003217785079-000207     217785006003000639120COLORING SECRET GARDEN 0000001000+00001753+00000+0001T   00001753+0000001222          1400 GL3130               1BZ
217785004217785301-002030     217785006001023861030ORN WATERBALL DOLPHINS 0000001000+00003069+00000+0001T   00003069+0000001222          1400 GL3505               1BZ
217785005217785204-000001     217785006003000575558M/HOLD BOTTLE OPENER   0000001000+00001753+00000+0001T   00001753+0000001222          1400 GL3300               1BZ
217785006217785203-000470     217785006003000329793BOTTLE-STOPPER/OPENER  0000001000+00002630+00000+0001T   00002630+0000001222          1400 GL3300               1BZ
217785007217785204-000002     217785006003000575794MEMO HOLDER CRYSTAL RND0000002000+00001753+00000+0001T   00001753+0000001222          1400 GL3300               1BZ
217785008217785301-085006     217785006001023502940ORN LOVE MSG TUBE W/HRT0000001000+00001753+00000+0001T   00001753+0000001222          1400 GL3505               1BZ
217786000217786               217786               170213JD     1400+00000+JD0000009238+0000009238+000000000+000001296+0000010534+0000000000+I40000010534+0000000000+Z
217786001217786112-116038     217786006009681820246TCS CARRIER BAG MIDI   0000001000+00000035+00000+0001T   00000035+0000001224          1400 GL3090               1BZ
217786002217786050-000887-Z   217786006001023821966PADLOCK COMB 10-DIGIT  0000001000+00004385+00000+0001T   00004385+0000001224          1400 GL3855               1BZ
217786003217786903-003080     217786005907029004673SWT SNACK STIX CHOC 50g0000001000+00000876+00000+0001T   00000876+0000001224          1400 GL3150               1BZ
217786004217786903-000892     217786008693029700420SWT NOVELTY CHOCO CREAM0000003000+00000788+00000+0001T   00000788+0000001224          1400 GL3150               1BZ
217786005217786903-002900     217786005996071650648QUICK MILK 5 CHOCO 5PC 0000001000+00001578+00000+0001T   00001578+0000001224          1400 GL3150               1BZ
217787000217787               217787               170213JD     1400+00000+JD0000002980+0000002980+000000000+000000418+0000003390+0000000008+I20000000000+0000003390+Z
217787001217787206-000630     217787006003000631919SPECTACLE CLEANING BRUS0000001000+00001227+00000+0001T   00001227+0000001224          1400 GL3321               1BZ
217787002217787366-006104     217787006003000616930DRESS UP FACE PAINT    0000001000+00001753+00000+0001T   00001753+0000001224          1400 GL3131               1BZ
217788000217788               217788               170213JD     1400+00000+JD0000001490+0000001490+000000000+000000209+0000001690+0000000009+I20000000000+0000001690+Z
217788001217788159-000114     217788006001023507945SHOWER CAP PVC ASSTD   0000001000+00001490+00000+0001T   00001490+0000001225          1400 GL3200               1BZ
217789000217789               217789               170213JD     1400+00000+JD0000011782+0000011782+000000000+000001653+0000013430+0000000005+I20000000000+0000013430+Z
217789001217789018-050000     217789006003000412679MUG OCC LOVE TWIN BEAR 0000001000+00006139+00000+0001T   00006139+0000001226          1400 GL3515               1BZ
217789002217789304-001204     217789006001023737984FLOWER OCC. TEDDY/ROSES0000004000+00001402+00000+0001T   00001490+0006471226          1400 GL3510               1BZ
217789003217789112-116038     217789006009681820246TCS CARRIER BAG MIDI   0000001000+00000035+00000+0001T   00000035+0000001226          1400 GL3090               1BZ
217790000217790               217790               170213JD     1400+00000+JD0000024045+0000024045+000000000+000003376+0000027421+0000000000+I40000027421+0000000000+Z
217790001217790112-116038     217790006009681820246TCS CARRIER BAG MIDI   0000001000+00000035+00000+0001T   00000035+0000001229          1400 GL3090               1BZ
217790002217790040-000922     217790006001023587817CANDLE-HOLDER GLS 18cm 0000002000+00001753+00000+0001T   00001753+0000001229          1400 GL3510               1BZ
217790003217790006-000166-D   217790006003000516490BALLOONS LRG 6PC RED   0000001000+00001314+00000+0001T   00001314+0000001229          1400 GL3131               1BZ
217790004217790206-000620     217790006003000631797BACK SCRATCHER EXTEND  0000001000+00002630+00000+0001T   00002630+0000001229          1400 GL3321               1BZ
217790005217790079-006496     217790006003000160105GLITTER SHAKERS        0000001000+00001753+00000+0001T   00001753+0000001229          1400 GL3130               1BZ
217790006217790206-000630     217790006003000631919SPECTACLE CLEANING BRUS0000001000+00001227+00000+0001T   00001227+0000001229          1400 GL3321               1BZ
217790007217790039-000026     217790006001023551610C/TAPERED 25CM M/RED   0000002000+00001051+00000+0001T   00001051+0000001229          1400 GL3510               1BZ
217790008217790019-071594     217790006003000505579PEBBLES GLS 250g RED   0000001000+00002630+00000+0001T   00002630+0000001229          1400 GL3510               1BZ
217790009217790006-000324     217790006001023818393PARTY POPPER`S PCK-OF-60000001000+00001753+00000+0001T   00001753+0000001229          1400 GL3131               1BZ
217790010217790903-000155     217790006009803374435SWT LOLLY I LUV U HEART0000006000+00000525+00000+0001T   00000525+0000001229          1400 GL3150               1BZ
217790011217790301-085006     217790006001023502940ORN LOVE MSG TUBE W/HRT0000001000+00001753+00000+0001T   00001753+0000001229          1400 GL3505               1BZ
217790012217790563-000318-L   217790006003000407088SERVIETTES 33cm RED    0000001000+00002192+00000+0001T   00002192+0000001229          1400 GL3214               1BZ
217791000217791               217791               170213JD     1400+00000+JD0000007016+0000007016+000000000+000000983+0000007999+0000000000+I40000007999+0000000000+Z
217791001217791079-000298     217791006003000647156PAINT SET FINGER PAINT 0000001000+00007016+00000+0001T   00007893+0008191231          1400 GL3130               1BZ
217792000217792               217792               170213JD     1400+00000+JD0000001753+0000001753+000000000+000000246+0000001990+0000000009+I20000000000+0000001990+Z
217792001217792077-000316     217792006001023609731GIFT-BAG 25X32CM MATT  0000001000+00001753+00000+0001T   00001753+0000001231          1400 GL3112               1BZ
217793000217793               217793               170213JD     1400+00000+JD0000005523+0000005523+000000000+000000775+0000006290+0000000008+I20000000000+0000006290+Z
217793001217793072-020366     217793006003000452927PET PLACE MAT ASSTD COL0000001000+00002630+00000+0001T   00002630+0000001232          1400 GL3870               1BZ
217793002217793036-000151     217793006001023810588COATHANGERS    PACK-10 0000001000+00002893+00000+0001T   00002893+0000001232          1400 GL3212               1BZ
217794000217794               217794               170213JD     1400+00000+JD0000005262+0000005262+000000000+000000737+0000005990+0000000009+I20000000000+0000005990+Z
217794001217794007-000614     217794006001023768667DIARY W/LOCK+PEN LOVE  0000001000+00005262+00000+0001T   00005262+0000001241          1400 GL3130               1BZ
217795000217795               217795               170213JD     1400+00000+JD0000036882+0000036882+000000000+000005167+0000042049+0000000000+I40000042049+0000000000+Z
217795001217795040-001010     217795006003000323388C/HLDR MTL ENTWINED    0000001000+00012279+00000+0001T   00012279+0000001245          1400 GL3510               1BZ
217795002217795039-000100     21779500600300060614625CM WHITE CANDLE 6PC  0000001000+00002630+00000+0001T   00002630+0000001245          1400 GL3510               1BZ
217795003217795031-001008     217795006003000406494P/FRAME COLLAGE PLASTIC0000001000+00012279+00000+0001T   00012279+0000001245          1400 GL3510               1BZ
217795004217795040-100010     217795006001023681676C/HOLDER VINTAGE ROUND 0000001000+00003507+00000+0001T   00003507+0000001245          1400 GL3510               1BZ
217795005217795039-080945     217795006001023772053C/PILLAR ROUND WHITE   0000001000+00006139+00000+0001T   00006139+0000001245          1400 GL3510               1BZ
217795006217795112-116069     217795006009681820277TCS CARRIER BAG JUMBO  0000001000+00000048+00000+0001T   00000048+0000001245          1400 GL3090               1BZ
217796000217796               217796               170213JD     1400+00000+JD0000014692+0000014692+000000000+000002059+0000016750+0000000001+I20000000000+0000016750+Z
217796001217796366-000125     217796006003000006786DRESSUP WINGS/WAND/BAND0000001000+00005262+00000+0001T   00005262+0000001246          1400 GL3131               1BZ
217796002217796366-002195     217796006001023990549DRESS UP WINGS FEATHER 0000001000+00005262+00000+0001T   00005262+0000001246          1400 GL3131               1BZ
217796003217796006-006019     217796006001023908193PARTY-SPRAY GLITTER    0000001000+00002630+00000+0001T   00002630+0000001246          1400 GL3131               1BZ
217796004217796565-004101     217796006003000548033BALL BOUNCING EGG      0000001000+00001490+00000+0001T   00001490+0000001246          1400 GL3745               1BZ
217796005217796112-116069     217796006009681820277TCS CARRIER BAG JUMBO  0000001000+00000048+00000+0001T   00000048+0000001246          1400 GL3090               1BZ
217797000217797               217797               170213JD     1400+00000+JD0000002193-0000002193-000000000+000000307-0000002500-0000000000+I20000000000+0000002500-Z
217797001217797301-085001     217797006003000297610ORN WATERBALL LOVE ASST0000001000-00004823+00000+0001T   00004823+0000001248          1400 GL35052IC            1 Z
217797002217797567-075466     217797009780263920772BK NOVEL ROMANCE       0000001000+00002630+00000+0001T   00002630+0000001248          1400 GL3757               1 Z
217798000217798               217798               170213JD     1400+00000+JD0000011570+0000011570+000000000+000001624+0000013194+0000000000+I40000013194+0000000000+Z
217798001217798366-000450     217798006003000653386DRESS UP HEADBAND ASSTD0000002000+00002630+00000+0001T   00002630+0000001252          1400 GL3131               1BZ
217798002217798077-000316     217798006001023609731GIFT-BAG 25X32CM MATT  0000001000+00001753+00000+0001T   00001753+0000001252          1400 GL3112               1BZ
217798003217798077-000309     217798006001023608604GIFT-BAG 25X32CM GLOSS 0000001000+00001753+00000+0001T   00001753+0000001252          1400 GL3112               1BZ
217798004217798077-000316     217798006001023609731GIFT-BAG 25X32CM MATT  0000001000+00001753+00000+0001T   00001753+0000001252          1400 GL3112               1BZ
217798005217798903-002890     217798008935001721352MENTOS GUM PURE F/MINT 0000001000+00001051+00000+0001T   00001051+0000001252          1400 GL3150               1BZ
217799000217799               217799               170213JD     1400+00000+JD0000007188+0000007188+000000000+000001008+0000008196+0000000000+I40000008196+0000000000+Z
217799001217799903-002890     217799008935001721352MENTOS GUM PURE F/MINT 0000001000+00001051+00000+0001T   00001051+0000001254          1400 GL3150               1BZ
217799002217799366-000151     217799006003000601561DRESS UP WEDDING HEN   0000001000+00003507+00000+0001T   00003507+0000001254          1400 GL3131               1BZ
217799003217799079-014153     217799006003000253166ART+CRAFT DRAGON PK6   0000001000+00002630+00000+0001T   00002630+0000001254          1400 GL3130               1BZ
217800000217800               217800               170213JD     1400+00000+JD0000003446+0000003446+000000000+000000485+0000003931+0000000000+I40000003931+0000000000+Z
217800001217800018-000177     217800006001023797513MUG MINI LOVE ASSTD    0000003000+00000700+00000+0001T   00000700+0000001256          1400 GL3515               1BZ
217800002217800080-000133-A   217800006003000647019MINI VALENTINES CARD   0000002000+00000437+00000+0001T   00000437+0000001256          1400 GL3112               1BZ
217800003217800112-116038     217800006009681820246TCS CARRIER BAG MIDI   0000001000+00000035+00000+0001T   00000035+0000001256          1400 GL3090               1BZ
217800004217800080-000133-A   217800006003000647019MINI VALENTINES CARD   0000001000+00000437+00000+0001T   00000437+0000001256          1400 GL3112               1BZ
217801000217801               217801               170213JD     1400+00000+JD0000011444+0000011444+000000000+000001605+0000013049+0000000000+I40000013049+0000000000+Z
217801001217801112-116069     217801006009681820277TCS CARRIER BAG JUMBO  0000001000+00000048+00000+0001T   00000048+0000001300          1400 GL3090               1BZ
217801002217801104-000180     217801006001023765758CUTLERY-TRAY PL        0000001000+00003507+00000+0001T   00003507+0000001300          1400 GL3210               1BZ
217801003217801133-000103     217801006003000060900PEG BAG ASSTD 29x29cm  0000001000+00002630+00000+0001T   00002630+0000001300          1400 GL3212               1BZ
217801004217801104-000040     217801006001023846280BASKET HEART-SHAPED    0000001000+00001753+00000+0001T   00001753+0000001300          1400 GL3210               1BZ
217801005217801104-000010     217801006001023507822BASKET 30x23cm RECT.   0000002000+00001753+00000+0001T   00001753+0000001300          1400 GL3210               1BZ
217802000217802               217802               170213JD     1400+00000+JD0000009327+0000009327+000000000+000001307+0000010634+0000000000+I40000010634+0000000000+Z
217802001217802112-116038     217802006009681820246TCS CARRIER BAG MIDI   0000001000+00000035+00000+0001T   00000035+0000001301          1400 GL3090               1BZ
217802002217802562-000020     217802006003000600861EDU PLAY DOUGH 60g 4PC 0000001000+00003507+00000+0001T   00003507+0000001301          1400 GL3755               1BZ
217802003217802365-005267     217802006001023584366P/SET KITCHEN BAKING PL0000001000+00003507+00000+0001T   00003507+0000001301          1400 GL3725               1BZ
217802004217802903-000087     217802006001704000161SWT SPECKLED-EGGS 50G  0000002000+00001139+00000+0001T   00001139+0000001301          1400 GL3150               1BZ
217803000217803               217803               170213JD     1400+00000+JD0000012978+0000012978+000000000+000001818+0000014796+0000000000+I40000014796+0000000000+Z
217803001217803368-000049     217803006003000536955PLUSH BEAR 15cm LOVE   0000001000+00004385+00000+0001T   00004385+0000001303          1400 GL3745               1BZ
217803002217803366-006103     217803006001023786944DRESS UP FACE PAINT SET0000001000+00002630+00000+0001T   00002630+0000001303          1400 GL3131               1BZ
217803003217803018-030000     217803006003000421060MUG OCCASIONS LOVE 2PCE0000001000+00004385+00000+0001T   00004385+0000001303          1400 GL3515               1BZ
217803004217803077-000303     217803006001023593757GIFT-BAG PAPER MED     0000001000+00001578+00000+0001T   00001578+0000001303          1400 GL3112               1BZ
217804000217804               217804               170213JD     1400+00000+JD0000003542+0000003542+000000000+000000496+0000004030+0000000008+I20000000000+0000004030+Z
217804001217804018-000136     217804006001023659026MUG OCC LOVE W/PLUSH   0000001000+00003507+00000+0001T   00003507+0000001304          1400 GL3515               1BZ
217804002217804112-116038     217804006009681820246TCS CARRIER BAG MIDI   0000001000+00000035+00000+0001T   00000035+0000001304          1400 GL3090               1BZ
217805000217805               217805               170213JD     1400+00000+JD0000013712+0000013712+000000000+000001922+0000015634+0000000000+I40000015634+0000000000+Z
217805001217805089-000098     217805006003000677443KEY CHAIN OPENER ASSTD 0000001000+00001314+00000+0001T   00001314+0000001311          1400 GL3205               1BZ
217805002217805200-003024     217805006001023657299REFUSE BAGS 20PCE BLACK0000001000+00001753+00000+0001T   00001753+0000001311          1400 GL3214               1BZ
217805003217805027-000852     217805006003000431007MOP TWIST HANDLE 1.3M  0000001000+00008771+00000+0001T   00008771+0000001311          1400 GL3212               1BZ
217805004217805105-000750     217805006003000190270CONTAINERS 4xMINI 150ml0000001000+00001402+00000+0001T   00001402+0000001311          1400 GL3210               1BZ
217805005217805080-000133     217805006003000535613CARD&ENV MINI ASTD DSGN0000001000+00000437+00000+0001T   00000437+0000001311          1400 GL3112               1BZ
217805006217805112-116038     217805006009681820246TCS CARRIER BAG MIDI   0000001000+00000035+00000+0001T   00000035+0000001311          1400 GL3090               1BZ
217806000217806               217806               170213JD     1400+00000+JD0000021953+0000021953+000000000+000003076+0000025029+0000000000+I40000025029+0000000000+Z
217806001217806112-116038     217806006009681820246TCS CARRIER BAG MIDI   0000001000+00000035+00000+0001T   00000035+0000001333          1400 GL3090               1BZ
217806002217806560-000202     217806006003000322008SNAKE PVC ASSTD        0000001000+00002630+00000+0001T   00002630+0000001333          1400 GL3745               1BZ
217806003217806560-000189     217806006003000592357ANIMALS SNAKE 78cm     0000001000+00003507+00000+0001T   00003507+0000001333          1400 GL3745               1BZ
217806004217806560-000202     217806006003000322008SNAKE PVC ASSTD        0000002000+00002630+00000+0001T   00002630+0000001333          1400 GL3745               1BZ
217806005217806560-000189     217806006003000592357ANIMALS SNAKE 78cm     0000003000+00003507+00000+0001T   00003507+0000001333          1400 GL3745               1BZ
217807000217807               217807               170213JD     1400+00000+JD0000022094+0000022094+000000000+000003097+0000025191+0000000000+I40000025191+0000000000+Z
217807001217807079-000017     217807006003000098347ART+CRAFT COLOUR ME    0000001000+00003507+00000+0001T   00003507+0000001335          1400 GL3130               1BZ
217807002217807903-000057     217807006005929000173SWT GS NOVELTY GIANT AL0000003000+00002104+00000+0001T   00002104+0000001335          1400 GL3150               1BZ
217807003217807366-007917     217807006003000653621DRESS UP MASK ANIMALS  0000001000+00000876+00000+0001T   00000876+0000001335          1400 GL3131               1BZ
217807004217807050-000889     217807006001023821102PADLOCK COMB RESETABLE 0000001000+00002630+00000+0001T   00002630+0000001335          1400 GL3855               1BZ
217807005217807565-000889     217807006003000626953NOVELTY SPACE BALLOONS 0000001000+00001753+00000+0001T   00001753+0000001335          1400 GL3745               1BZ
217807006217807079-000335     217807006003000670550THERAPY P/CRAYONS 30   0000001000+00007016+00000+0001T   00007016+0000001335          1400 GL3130               1BZ
217808000217808               217808               170213JD     1400+00000+JD0000003102+0000003102+000000000+000000435+0000003530+0000000007+I20000000000+0000003530+Z
217808001217808112-116038     217808006009681820246TCS CARRIER BAG MIDI   0000001000+00000035+00000+0001T   00000035+0000001336          1400 GL3090               1BZ
217808002217808200-003019     217808006003000510856REFUSE BAGS 10PC D/STRN0000001000+00001314+00000+0001T   00001753+0008171336          1400 GL3214               1BZ
217808003217808200-003026     217808006003000276448REFUSE BAGS 10PCE GREEN0000001000+00001753+00000+0001T   00001753+0000001336          1400 GL3214               1BZ
217809000217809               217809               170213JD     1400+00000+JD0000004467+0000004467+000000000+000000627+0000005090+0000000004+I20000000000+0000005090+Z
217809001217809083-000049     217809004891035200024CIG-LIGHTER DISPOSABLE 0000001000+00000437+00000+0001T   00000437+0000001337          1400 GL3315               1BZ
217809002217809018-000127     217809006001023380289MUG OCC STRAIGHT LOVE  0000001000+00001578+00000+0001T   00001753+0006471337          1400 GL3515               1BZ
217809003217809903-000070     217809006001704001106SWT TOFFEE CREAMY 35g  0000001000+00000700+00000+0001T   00000700+0000001337          1400 GL3150               1BZ
217809004217809077-000151     217809006008766114676GIFT-WRAP C/PHANE ASSTD0000002000+00000876+00000+0001T   00000876+0000001337          1400 GL3112               1BZ
217810000217810               217810               170213JD     1400+00000+JD0000010961+0000010961+000000000+000001536+0000012497+0000000000+I40000012497+0000000000+Z
217810001217810001-091415     217810006003000329113W/GLS OCC. LOVE 2PC 2800000001000+00008771+00000+0001T   00009648+0006471339          1400 GL3515               1BZ
217810002217810077-000316     217810006001023609731GIFT-BAG 25X32CM MATT  0000001000+00001753+00000+0001T   00001753+0000001339          1400 GL3112               1BZ
217810003217810080-000133-A   217810006003000647019MINI VALENTINES CARD   0000001000+00000437+00000+0001T   00000437+0000001339          1400 GL3112               1BZ
217811000217811               217811               170213JD     1400+00000+JD0000000525+0000000525+000000000+000000074+0000000590+0000000009+I20000000000+0000000590+Z
217811001217811903-000155     217811006009803374435SWT LOLLY I LUV U HEART0000001000+00000525+00000+0001T   00000525+0000001348          1400 GL3150               1BZ
217812000217812               217812               170213JD     1400+00000+JD0000002192+0000002192+000000000+000000307+0000002490+0000000009+I20000000000+0000002490+Z
217812001217812105-007000-B   217812006002580007374CONTAINER 3L ASSORTED  0000001000+00002192+00000+0001T   00002192+0000001355          1400 GL3210               1BZ
217813000217813               217813               170213JD     1400+00000+JD0000006139+0000006139+000000000+000000860+0000006990+0000000009+I20000000000+0000006990+Z
217813001217813007-000890-17  217813006003000645671CALENDAR 2017 ASSTD    0000001000+00006139+00000+0001T   00006139+0000001357          1400 GL3130               1BZ
217814000217814               217814               170213JD     1400+00000+JD0000014068+0000014068+000000000+000001970+0000016030+0000000008+I20000000000+0000016030+Z
217814001217814001-091415     217814006003000329113W/GLS OCC. LOVE 2PC 2800000001000+00008771+00000+0001T   00009648+0006471359          1400 GL3515               1BZ
217814002217814018-019000     217814006003000557288MUG OCC. LOVE JUMBO    0000001000+00005262+00000+0001T   00005262+0000001359          1400 GL3515               1BZ
217814003217814112-116038     217814006009681820246TCS CARRIER BAG MIDI   0000001000+00000035+00000+0001T   00000035+0000001359          1400 GL3090               1BZ
217815000217815               217815               170213JD     1400+00000+JD0000002630+0000002630+000000000+000000369+0000002990+0000000009+I20000000000+0000002990+Z
217815001217815304-000720     217815006001023843050F/BUNCH ROSE 6-HEAD AST0000001000+00002630+00000+0001T   00002630+0000001401          1400 GL3510               1BZ
217816000217816               217816               170213JD     1400+00000+JD0000009645+0000009645+000000000+000001352+0000010997+0000000000+I40000010997+0000000000+Z
217816001217816071-000677     217816006001023110282THUMB-TACKS            0000002000+00000876+00000+0001T   00000876+0000001403          1400 GL3130               1BZ
217816002217816301-085007     217816006003000673698ORN OCC. LOVE S/PLAQUE 0000001000+00007893+00000+0001T   00007893+0000001403          1400 GL3505               1BZ
217817000217817               217817               170213JD     1400+00000+JD0000009941+0000009941+000000000+000001393+0000011330+0000000004+I20000000000+0000011330+Z
217817001217817002-000097     217817006001023489784CAN-OPENER             0000001000+00006139+00000+0001T   00006139+0000001508          1400 GL3300               1BZ
217817002217817046-000014     217817006001023725387BATTERIES SIZE:AAA 4PCE0000001000+00001139+00000+0001T   00001139+0000001508          1400 GL3312               1BZ
217817003217817046-000012     217817006904708013062BATTERIES AA  CARD-OF-40000001000+00001314+00000+0001T   00001314+0000001508          1400 GL3312               1BZ
217817004217817022-001328     217817006003000667505PLATE ENAMEL 24CM WHITE0000001000+00001314+00000+0001T   00001314+0000001508          1400 GL3305               1BZ
217817005217817112-116038     217817006009681820246TCS CARRIER BAG MIDI   0000001000+00000035+00000+0001T   00000035+0000001508          1400 GL3090               1BZ
217818000217818               217818               170213JD     1400+00000+JD0000004384+0000004384+000000000+000000614+0000004990+0000000008+I20000000000+0000004990+Z
217818001217818566-000991     217818000721129013121STICKERS GLOW-IN-DARK  0000002000+00002192+00000+0001T   00002192+0000001529          1400 GL3130               1BZ
217819000217819               217819               170213JD     1400+00000+JD0000006174+0000006174+000000000+000000865+0000007039+0000000000+I40000007039+0000000000+Z
217819001217819018-005007     217819006003000515516MUG OCC. LOVE W/HEARTS 0000001000+00006139+00000+0001T   00006139+0000001531          1400 GL3515               1BZ
217819002217819112-116038     217819006009681820246TCS CARRIER BAG MIDI   0000001000+00000035+00000+0001T   00000035+0000001531          1400 GL3090               1BZ
217820000217820               217820               170213JD     1400+00000+JD0000020630+0000020630+000000000+000002894+0000023520+0000000004+I20000000000+0000023520+Z
217820001217820304-001011     217820006001023806727FLWR ROSE RED W/BEAR   0000030000+00000613+00000+0001T   00000788+0006471539          1400 GL3510               1BZ
217820002217820080-000127     217820006003000424351VALENTINES DAY 36x24CM 0000001000+00002192+00000+0001T   00002192+0000001539          1400 GL3112               1BZ
217820003217820112-116069     217820006009681820277TCS CARRIER BAG JUMBO  0000001000+00000048+00000+0001T   00000048+0000001539          1400 GL3090               1BZ
217821000217821               217821               170213JD     1400+00000+JD0000007890+0000007890+000000000+000001107+0000008997+0000000000+I40000008997+0000000000+Z
217821001217821140-006008     217821006001023803214FLY-SWATTERS   SET-OF-40000001000+00002630+00000+0001T   00002630+0000001549          1400 GL3830               1BZ
217821002217821027-008813     217821006001023552334DUSTER RETRCTABLE 122cm0000001000+00002630+00000+0001T   00002630+0000001549          1400 GL3212               1BZ
217821003217821027-009025     217821006003962000747DUSTPAN-SET PL         0000001000+00002630+00000+0001T   00002630+0000001549          1400 GL3212               1BZ
217822000217822               217822               170213JD     1400+00000+JD0000000874+0000000874+000000000+000000124+0000000990+0000000008+I20000000000+0000000990+Z
217822001217822080-000133-A   217822006003000647019MINI VALENTINES CARD   0000002000+00000437+00000+0001T   00000437+0000001549          1400 GL3112               1BZ
217823000217823               217823               170213JD     1400+00000+JD0000045198+0000045198+000000000+000006339+0000051537+0000000000+I40000051537+0000000000+Z
217823001217823112-116069     217823006009681820277TCS CARRIER BAG JUMBO  0000001000+00000048+00000+0001T   00000048+0000001553          1400 GL3090               1BZ
217823002217823007-000302     217823006009635830000BOOK H/COVER A4 96-PAGE0000004000+00001139+00000+0001T   00001139+0000001553          1400 GL3130               1BZ
217823003217823007-000324     21782300600968585864125 SHEETS BRIGHTS MARLI0000001000+00003507+00000+0001T   00003507+0000001553          1400 GL3130               1BZ
217823004217823007-000323     217823006009697791042PAPER A4 80GSM 100'S   0000001000+00006139+00000+0001T   00006139+0000001553          1400 GL3130               1BZ
217823005217823007-000302     217823006009635830000BOOK H/COVER A4 96-PAGE0000001000+00001139+00000+0001T   00001139+0000001553          1400 GL3130               1BZ
217823006217823366-006103     217823006001023786944DRESS UP FACE PAINT SET0000001000+00002630+00000+0001T   00002630+0000001553          1400 GL3131               1BZ
217823007217823079-013101     217823006001023863706CRAFT SET DIY PIPE-CLNR0000002000+00002630+00000+0001T   00002630+0000001553          1400 GL3130               1BZ
217823008217823018-019000     217823006003000557288MUG OCC. LOVE JUMBO    0000001000+00005262+00000+0001T   00005262+0000001553          1400 GL3515               1BZ
217823009217823080-000133-A   217823006003000647019MINI VALENTINES CARD   0000001000+00000437+00000+0001T   00000437+0000001553          1400 GL3112               1BZ
217823010217823368-000113     217823006001023780874PLUSH BLINGED LOVE 30cm0000001000+00012279+00000+0001T   00012279+0000001553          1400 GL3745               1BZ
217823011217823018-000129     217823006001023403353MUG OCC. LOVE V-SHAPE  0000001000+00002630+00000+0001T   00002630+0000001553          1400 GL3515               1BZ
217823012217823080-000133-A   217823006003000647019MINI VALENTINES CARD   0000003000+00000437+00000+0001T   00000437+0000001553          1400 GL3112               1BZ
217824000217824               217824               170213JD     1400+00000+JD0000001753+0000001753+000000000+000000246+0000001990+0000000009+I20000000000+0000001990+Z
217824001217824366-006104     217824006003000616930DRESS UP FACE PAINT    0000001000+00001753+00000+0001T   00001753+0000001600          1400 GL3131               1BZ
217825000217825               217825               170213JD     1400+00000+JD0000007892+0000007892+000000000+000001105+0000008997+0000000000+I40000008997+0000000000+Z
217825001217825018-000136     217825006001023659026MUG OCC LOVE W/PLUSH   0000001000+00003507+00000+0001T   00003507+0000001602          1400 GL3515               1BZ
217825002217825031-080508     217825006001023802415P/FRAME PL 22X11CM LOVE0000001000+00004385+00000+0001T   00004385+0000001602          1400 GL3510               1BZ
217826000217826               217826               170213JD     1400+00000+JD0000017404+0000017404+000000000+000002439+0000019840+0000000003+I20000000000+0000019840+Z
217826001217826077-000150-D   217826006003000054343GIFT-WRAP CELLPHANE CLR0000003000+00000876+00000+0001T   00000876+0000001605          1400 GL3112               1BZ
217826002217826018-000127     217826006001023380289MUG OCC STRAIGHT LOVE  0000006000+00001578+00000+0001T   00001753+0006471605          1400 GL3515               1BZ
217826003217826018-005009     217826006001023725608MUG W/PLUSH-BEAR LOVE  0000001000+00003507+00000+0001T   00003507+0000001605          1400 GL3515               1BZ
217826004217826077-000240     217826006003000326259G/RIBBON 4PC PEARLIZED 0000001000+00001753+00000+0001T   00001753+0000001605          1400 GL3112               1BZ
217826005217826112-116069     217826006009681820277TCS CARRIER BAG JUMBO  0000001000+00000048+00000+0001T   00000048+0000001605          1400 GL3090               1BZ
217827000217827               217827               170213JD     1400+00000+JD0000007014+0000007014+000000000+000000983+0000007990+0000000007+I20000000000+0000007990+Z
217827001217827567-075466     217827009780263253689BK NOVEL ROMANCE       0000001000+00002630+00000+0001T   00002630+0000001606          1400 GL3757               1BZ
217827002217827077-000509     217827006003000082582GIFT-BAG SML 6PCE ORG P0000002000+00002192+00000+0001T   00002192+0000001606          1400 GL3112               1BZ
217828000217828               217828               170213JD     1400+00000+JD0000002665+0000002665+000000000+000000374+0000003030+0000000009+I20000000000+0000003030+Z
217828001217828018-000129     217828006001023403353MUG OCC. LOVE V-SHAPE  0000001000+00002630+00000+0001T   00002630+0000001609          1400 GL3515               1BZ
217828002217828112-116038     217828006009681820246TCS CARRIER BAG MIDI   0000001000+00000035+00000+0001T   00000035+0000001609          1400 GL3090               1BZ
217829000217829               217829               170213JD     1400+00000+JD0000008770+0000008770+000000000+000001228+0000009990+0000000008+I20000000000+0000009990+Z
217829001217829103-000082     217829006001023710857BAMBOO BASKET 21x17x8cm0000002000+00004385+00000+0001T   00004385+0000001610          1400 GL3300               1BZ
217830000217830               217830               170213JD     1400+00000+JD0000005083+0000005083+000000000+000000713+0000005790+0000000006+I20000000000+0000005790+Z
217830001217830105-000750     217830006003000190270CONTAINERS 4xMINI 150ml0000001000+00001402+00000+0001T   00001402+0000001612          1400 GL3210               1BZ
217830002217830104-000010     217830006001023507822BASKET 30x23cm RECT.   0000001000+00001753+00000+0001T   00001753+0000001612          1400 GL3210               1BZ
217830003217830903-000843     217830008693029031067SWT GUMMY JELAXY 80G   0000002000+00000964+00000+0001T   00000964+0000001612          1400 GL3150               1BZ
217831000217831               217831               170213JD     1400+00000+JD0000000437+0000000437+000000000+000000062+0000000490+0000000009+I20000000000+0000000490+Z
217831001217831080-000133-A   217831006003000647019MINI VALENTINES CARD   0000001000+00000437+00000+0001T   00000437+0000001612          1400 GL3112               1BZ
217832000217832               217832               170213JD     1400+00000+JD0000001752+0000001752+000000000+000000246+0000001990+0000000008+I20000000000+0000001990+Z
217832001217832077-000314     217832006003000181148GIFT-BAG 11X14CM MATT  0000002000+00000876+00000+0001T   00000876+0000001613          1400 GL3112               1BZ
217833000217833               217833               170213JD     1400+00000+JD0000008771+0000008771+000000000+000001228+0000009999+0000000000+I40000009999+0000000000+Z
217833001217833001-091415     217833006003000329113W/GLS OCC. LOVE 2PC 2800000001000+00008771+00000+0001T   00009648+0006471614          1400 GL3515               1BZ
217834000217834               217834               170213JD     1400+00000+JD0000001753+0000001753+000000000+000000246+0000001990+0000000009+I20000000000+0000001990+Z
217834001217834007-000043     217834006009635831496DISPLAY-BOOK PL A4 20PG0000001000+00001753+00000+0001T   00001753+0000001615          1400 GL3130               1BZ
217835000217835               217835               170213JD     1400+00000+JD0000001400+0000001400+000000000+000000196+0000001590+0000000006+I20000000000+0000001590+Z
217835001217835018-000177     217835006001023797513MUG MINI LOVE ASSTD    0000002000+00000700+00000+0001T   00000700+0000001616          1400 GL3515               1BZ
217836000217836               217836               170213JD     1400+00000+JD0000010116+0000010116+000000000+000001417+0000011533+0000000000+I40000011533+0000000000+Z
217836001217836018-000136     217836006001023659026MUG OCC LOVE W/PLUSH   0000002000+00003507+00000+0001T   00003507+0000001618          1400 GL3515               1BZ
217836002217836112-116038     217836006009681820246TCS CARRIER BAG MIDI   0000001000+00000035+00000+0001T   00000035+0000001618          1400 GL3090               1BZ
217836003217836077-000310     217836006001023608635GIFT-BAG 18X23CM GLOSS 0000001000+00001314+00000+0001T   00001314+0000001618          1400 GL3112               1BZ
217836004217836077-000382     217836006003000247820GIFT-BAG MED 18X23CM   0000001000+00001753+00000+0001T   00001753+0000001618          1400 GL3112               1BZ
217837000217837               217837               170213JD     1400+00000+JD0000018018+0000018018+000000000+000002527+0000020545+0000000000+I40000020545+0000000000+Z
217837001217837046-000014-VP  217837006003000537952BATTERIES H/P SIZE:AAA 0000001000+00004121+00000+0001T   00004121+0000001620          1400 GL3312               1BZ
217837002217837366-007601     217837006003000655472DRESS UP MASK THEATRICA0000001000+00000876+00000+0001T   00000876+0000001620          1400 GL3131               1BZ
217837003217837366-007600     217837006001023902184MASK THEATRICAL GLITTER0000001000+00001753+00000+0001T   00001753+0000001620          1400 GL3131               1BZ
217837004217837366-007601     217837006003000655472DRESS UP MASK THEATRICA0000001000+00000876+00000+0001T   00000876+0000001620          1400 GL3131               1BZ
217837005217837301-085008     217837006003000673933ORN OCC.LOVE TINSEL HRT0000001000+00003069+00000+0001T   00003069+0000001620          1400 GL3505               1BZ
217837006217837366-007600     217837006001023902184MASK THEATRICAL GLITTER0000002000+00001753+00000+0001T   00001753+0000001620          1400 GL3131               1BZ
217837007217837006-000230     217837006003000573998STRAW PARTY MOUSTACHE  0000001000+00002630+00000+0001T   00002630+0000001620          1400 GL3131               1BZ
217837008217837002-021011     217837006003000661893CHOPSTICKS WOODEN 10 PC0000001000+00001139+00000+0001T   00001578+0008121620          1400 GL3300               1BZ
217837009217837112-116069     217837006009681820277TCS CARRIER BAG JUMBO  0000001000+00000048+00000+0001T   00000048+0000001620          1400 GL3090               1BZ
217838000217838               217838               170213JD     1400+00000+JD0000020565+0000020565+000000000+000002882+0000023447+0000000000+I40000023447+0000000000+Z
217838001217838112-116069     217838006009681820277TCS CARRIER BAG JUMBO  0000001000+00000048+00000+0001T   00000048+0000001623          1400 GL3090               1BZ
217838002217838077-000316     217838006001023609731GIFT-BAG 25X32CM MATT  0000001000+00001753+00000+0001T   00001753+0000001623          1400 GL3112               1BZ
217838003217838301-000828     217838006003000243945ORN FAIRY CANDLE 20cm  0000001000+00005262+00000+0001T   00005262+0000001623          1400 GL3505               1BZ
217838004217838301-086006     217838006003000498918ORN OCCASION LOVE 4ASTD0000001000+00005262+00000+0001T   00005262+0000001623          1400 GL3505               1BZ
217838005217838080-000133-A   217838006003000647019MINI VALENTINES CARD   0000001000+00000437+00000+0001T   00000437+0000001623          1400 GL3112               1BZ
217838006217838903-000519     217838006001704012805SWT MS LIQ-O-GHETTI    0000001000+00001227+00000+0001T   00001227+0000001623          1400 GL3150               1BZ
217838007217838007-000046     217838006009635831366DISPLAY-BOOK PL A4 30PG0000003000+00002192+00000+0001T   00002192+0000001623          1400 GL3130               1BZ
217839000217839               217839               170213JD     1400+00000+JD0000007888+0000007888+000000000+000001105+0000008990+0000000003+I20000000000+0000008990+Z
217839001217839079-013102     217839006003000019601ART+CRAFT DIY PIPE-CLNR0000002000+00002192+00000+0001T   00002192+0000001627          1400 GL3130               1BZ
217839002217839033-010720     217839006001023678645SAFETY-PINS 50PCE SMALL0000001000+00000876+00000+0001T   00000876+0000001627          1400 GL3200               1BZ
217839003217839006-000166-D   217839006003000516490BALLOONS LRG 6PC RED   0000001000+00001314+00000+0001T   00001314+0000001627          1400 GL3131               1BZ
217839004217839006-000166-H   217839006003000608096BALLOONS HELIUM 6PC WHT0000001000+00001314+00000+0001T   00001314+0000001627          1400 GL3131               1BZ
217840000217840               217840               170213JD     1400+00000+JD0000006174+0000006174+000000000+000000865+0000007030+0000000009+I20000000000+0000007030+Z
217840001217840039-809558     217840006003000344376CANDLE PILLAR 12CM 4AST0000001000+00006139+00000+0001T   00006139+0000001628          1400 GL3510               1BZ
217840002217840112-116038     217840006009681820246TCS CARRIER BAG MIDI   0000001000+00000035+00000+0001T   00000035+0000001628          1400 GL3090               1BZ
217841000217841               217841               170213JD     1400+00000+JD0000002630+0000002630+000000000+000000369+0000002990+0000000009+I20000000000+0000002990+Z
217841001217841051-006100     217841006003000267170GARDEN KID TOOLSET 3PCE0000001000+00002630+00000+0001T   00002630+0000001628          1400 GL3820               1BZ
217842000217842               217842               170213JD     1400+00000+JD0000002629+0000002629+000000000+000000369+0000002990+0000000008+I20000000000+0000002990+Z
217842001217842903-000482     217842006001704001397SWT SOFT-MINTS 60G     0000001000+00000876+00000+0001T   00000876+0000001629          1400 GL3150               1BZ
217842002217842088-000013     217842006001023797131AIR-FRESH GEL TWIST ASS0000001000+00001753+00000+0001T   00001753+0000001629          1400 GL3212               1BZ
217843000217843               217843               170213JD     1400+00000+JD0000010347+0000010347+000000000+000001449+0000011796+0000000000+I40000011796+0000000000+Z
217843001217843903-000120     217843006002099001665SWEET GS ZILLIONS 50g  0000001000+00000700+00000+0001T   00000700+0000001631          1400 GL3150               1BZ
217843002217843027-000230     217843006001023606198MOP COMPLETE WONDERMOP 0000001000+00008771+00000+0001T   00008771+0000001631          1400 GL3212               1BZ
217843003217843903-000673     217843006009803358237SWT SHERBET GRAPE 4PK  0000001000+00000876+00000+0001T   00000876+0000001631          1400 GL3150               1BZ
217844000217844               217844               170213JD     1400+00000+JD0000005698+0000005698+000000000+000000799+0000006490+0000000007+I20000000000+0000006490+Z
217844001217844006-005909     217844006003000081301PARTY FAVOUR STAR WAND 0000001000+00002192+00000+0001T   00002192+0000001632          1400 GL3131               1BZ
217844002217844079-006496     217844006003000160105GLITTER SHAKERS        0000002000+00001753+00000+0001T   00001753+0000001632          1400 GL3130               1BZ
217845000217845               217845               170213JD     1400+00000+JD0000000700+0000000700+000000000+000000098+0000000790+0000000008+I20000000000+0000000790+Z
217845001217845007-000166     217845006009685857316SPIRAL NOTES A6 100PG  0000001000+00000700+00000+0001T   00000700+0000001634          1400 GL3130               1BZ
217846000217846               217846               170213JD     1400+00000+JD0000002192+0000002192+000000000+000000307+0000002490+0000000009+I20000000000+0000002490+Z
217846001217846006-000789     217846006001023148612CROWN BOY              0000001000+00002192+00000+0001T   00002192+0000001638          1400 GL3131               1BZ
217847000217847               217847               170213JD     1400+00000+JD0000006574+0000006574+000000000+000000922+0000007496+0000000000+I40000007496+0000000000+Z
217847001217847007-000230     217847006001023995315LABELS STICK-ON STARS  0000001000+00001753+00000+0001T   00001753+0000001642          1400 GL3130               1BZ
217847002217847077-000316     217847006001023609731GIFT-BAG 25X32CM MATT  0000001000+00001753+00000+0001T   00001753+0000001642          1400 GL3112               1BZ
217847003217847366-002695     217847006003000222766DRESS UP HAT ROUND GLIT0000001000+00002192+00000+0001T   00002192+0000001642          1400 GL3131               1BZ
217847004217847077-000314     217847006003000181148GIFT-BAG 11X14CM MATT  0000001000+00000876+00000+0001T   00000876+0000001642          1400 GL3112               1BZ
217848000217848               217848               170213JD     1400+00000+JD0000000048+0000000048+000000000+000000007+0000000050+0000000005+I20000000000+0000000050+Z
217848001217848112-116069     217848006009681820277TCS CARRIER BAG JUMBO  0000001000+00000048+00000+0001T   00000048+0000001643          1400 GL3090               1BZ
217849000217849               217849               170213JD     1400+00000+JD0000001400+0000001400+000000000+000000196+0000001590+0000000006+I20000000000+0000001590+Z
217849001217849565-000256     217849006003000609826NOVELTY GLOW SLIME     0000002000+00000700+00000+0001T   00000700+0000001646          1400 GL3745               1BZ
217850000217850               217850               170213JD     1400+00000+JD0000037668+0000037668+000000000+000005275+0000042943+0000000000+I40000042943+0000000000+Z
217850001217850077-000270     217850006003000395453GIFT-BAG PPR JMB 33X45 0000001000+00002630+00000+0001T   00002630+0000001658          1400 GL3112               1BZ
217850002217850001-000175     217850006001023788108B/MUG GLS LOVE 380ML   0000001000+00004385+00000+0001T   00004385+0000001658          1400 GL3515               1BZ
217850003217850080-000127     217850006003000424351VALENTINES DAY 36x24CM 0000001000+00002192+00000+0001T   00002192+0000001658          1400 GL3112               1BZ
217850004217850001-091415     217850006003000329113W/GLS OCC. LOVE 2PC 2800000001000+00008771+00000+0001T   00009648+0006471658          1400 GL3515               1BZ
217850005217850203-000120     217850006003000566976BAR ACC. SET 5PC       0000001000+00017542+00000+0001T   00017542+0000001658          1400 GL3300               1BZ
217850006217850018-000177     217850006001023797513MUG MINI LOVE ASSTD    0000003000+00000700+00000+0001T   00000700+0000001658          1400 GL3515               1BZ
217850007217850112-116069     217850006009681820277TCS CARRIER BAG JUMBO  0000001000+00000048+00000+0001T   00000048+0000001658          1400 GL3090               1BZ
217851000217851               217851               170213JD     1400+00000+JD0000001753+0000001753+000000000+000000246+0000001999+0000000000+I40000001999+0000000000+Z
217851001217851366-006104     217851006003000616930DRESS UP FACE PAINT    0000001000+00001753+00000+0001T   00001753+0000001659          1400 GL3131               1BZ
217852000217852               217852               170213JD     1400+00000+JD0000008818+0000008818+000000000+000001235+0000010050+0000000003+I20000000000+0000010050+Z
217852001217852009-001506     217852006001023696090MELAMINE TRAY 39x29cm  0000002000+00004385+00000+0001T   00004385+0000001700          1400 GL3210               1BZ
217852002217852112-116069     217852006009681820277TCS CARRIER BAG JUMBO  0000001000+00000048+00000+0001T   00000048+0000001700          1400 GL3090               1BZ
217853000217853               217853               170213JD     1400+00000+JD0000005467+0000005467+000000000+000000768+0000006235+0000000000+I40000006235+0000000000+Z
217853001217853903-000087     217853006001704000161SWT SPECKLED-EGGS 50G  0000001000+00001139+00000+0001T   00001139+0000001701          1400 GL3150               1BZ
217853002217853903-000520     217853006001704009898SWT GUMMY MINI SOUR 60g0000001000+00000876+00000+0001T   00000876+0000001701          1400 GL3150               1BZ
217853003217853903-000892     217853008693029700420SWT NOVELTY CHOCO CREAM0000001000+00000788+00000+0001T   00000788+0000001701          1400 GL3150               1BZ
217853004217853037-000004     217853006001023763679ASHTRAY PL TUB 8X11CM  0000001000+00001753+00000+0001T   00002192+0008191701          1400 GL3515               1BZ
217853005217853366-007601     217853006003000655472DRESS UP MASK THEATRICA0000001000+00000876+00000+0001T   00000876+0000001701          1400 GL3131               1BZ
217853006217853112-116038     217853006009681820246TCS CARRIER BAG MIDI   0000001000+00000035+00000+0001T   00000035+0000001701          1400 GL3090               1BZ
217854000217854               217854               170213JD     1400+00000+JD0000005293+0000005293+000000000+000000743+0000006036+0000000000+I40000006036+0000000000+Z
217854001217854566-000200     217854006003000384174STICKER PUFFY NEON     0000003000+00000876+00000+0001T   00000876+0000001703          1400 GL3130               1BZ
217854002217854124-000001     217854000738380781690STORAGE TIN TISSUE     0000001000+00002630+00000+0001T   00003507+0008171703          1400 GL3300               1BZ
217854003217854112-116038     217854006009681820246TCS CARRIER BAG MIDI   0000001000+00000035+00000+0001T   00000035+0000001703          1400 GL3090               1BZ
217855000217855               217855               170213JD     1400+00000+JD0000005382+0000005382+000000000+000000755+0000006130+0000000007+I20000000000+0000006130+Z
217855001217855077-000299     217855006003000395576G/BAG 32x25cm LRG LOVE 0000001000+00001490+00000+0001T   00001490+0000001704          1400 GL3112               1BZ
217855002217855051-006100     217855006003000267170GARDEN KID TOOLSET 3PCE0000001000+00002630+00000+0001T   00002630+0000001704          1400 GL3820               1BZ
217855003217855071-081091     217855006001151010287STAED/GENKEM ALL-STICK 0000001000+00001227+00000+0001T   00001227+0000001704          1400 GL3130               1BZ
217855004217855112-116038     217855006009681820246TCS CARRIER BAG MIDI   0000001000+00000035+00000+0001T   00000035+0000001704          1400 GL3090               1BZ
217856000217856               217856               170213JD     1400+00000+JD0000002630+0000002630+000000000+000000369+0000002990+0000000009+I20000000000+0000002990+Z
217856001217856002-000717     217856006001023775184CHOPPING-MATS FLEX 2PCE0000001000+00002630+00000+0001T   00002630+0000001705          1400 GL3300               1BZ
217857000217857               217857               170213JD     1400+00000+JD0000003506+0000003506+000000000+000000492+0000003990+0000000008+I20000000000+0000003990+Z
217857001217857077-000381     217857006003000247707GIFT-BAG 25X32CM S/COL 0000001000+00001753+00000+0001T   00001753+0000001706          1400 GL3112               1BZ
217857002217857077-000309     217857006001023608604GIFT-BAG 25X32CM GLOSS 0000001000+00001753+00000+0001T   00001753+0000001706          1400 GL3112               1BZ
217858000217858               217858               170213JD     1400+00000+JD0000010378+0000010378+000000000+000001455+0000011833+0000000000+I40000011833+0000000000+Z
217858001217858018-000129     217858006001023403353MUG OCC. LOVE V-SHAPE  0000001000+00002630+00000+0001T   00002630+0000001713          1400 GL3515               1BZ
217858002217858903-004960     217858008410525221842SWT GUMMY STR/BERRY 50G0000001000+00000964+00000+0001T   00000964+0000001713          1400 GL3150               1BZ
217858003217858903-000071     217858006001704001120SWT TOFFEE LIQURICE 35g0000001000+00000700+00000+0001T   00000700+0000001713          1400 GL3150               1BZ
217858004217858903-000011     217858006002099007315SWT MALLOW CHOC 15G    0000001000+00000437+00000+0001T   00000437+0000001713          1400 GL3150               1BZ
217858005217858082-000110     217858006003000360482READING GLS STRENGHT:2 0000001000+00004385+00000+0001T   00004385+0000001713          1400 GL3160               1BZ
217858006217858903-000504     217858006001704012416SWT CHOC JELLY BEANS   0000001000+00001227+00000+0001T   00001227+0000001713          1400 GL3150               1BZ
217858007217858112-116038     217858006009681820246TCS CARRIER BAG MIDI   0000001000+00000035+00000+0001T   00000035+0000001713          1400 GL3090               1BZ
217859000217859               217859               170213JD     1400+00000+JD0000023938+0000023938+000000000+000003355+0000027293+0000000000+I40000027293+0000000000+Z
217859001217859018-000177     217859006001023797513MUG MINI LOVE ASSTD    0000001000+00000700+00000+0001T   00000700+0000001715          1400 GL3515               1BZ
217859002217859080-000133-A   217859006003000647019MINI VALENTINES CARD   0000001000+00000437+00000+0001T   00000437+0000001715          1400 GL3112               1BZ
217859003217859077-000381     217859006003000247707GIFT-BAG 25X32CM S/COL 0000001000+00001753+00000+0001T   00001753+0000001715          1400 GL3112               1BZ
217859004217859030-000038     217859006003000455706P/WALL CANVAS 20X20CM  0000003000+00007016+00000+0001T   00007016+0000001715          1400 GL3505               1BZ
217860000217860               217860               170213JD     1400+00000+JD0000005262+0000005262+000000000+000000737+0000005999+0000000000+I40000005999+0000000000+Z
217860001217860366-000125     217860006003000006786DRESSUP WINGS/WAND/BAND0000001000+00005262+00000+0001T   00005262+0000001717          1400 GL3131               1BZ
217861000217861               217861               170213JD     1400+00000+JD0000011357+0000011357+000000000+000001591+0000012940+0000000008+I20000000000+0000012940+Z
217861001217861566-001119     217861006001023672001STICKERS PUFFY LAPTOP  0000001000+00001314+00000+0001T   00001314+0000001719          1400 GL3130               1BZ
217861002217861031-007010     217861006003000467945P/FRAME WDN CERTIFICATE0000001000+00008771+00000+0001T   00008771+0000001719          1400 GL3510               1BZ
217861003217861079-009700-A   217861006003000547746PAPER SIRIO A4 BLACK   0000004000+00000306+00000+0001T   00000306+0000001719          1400 GL3130               1BZ
217861004217861112-116069     217861006009681820277TCS CARRIER BAG JUMBO  0000001000+00000048+00000+0001T   00000048+0000001719          1400 GL3090               1BZ
217862000217862               217862               170213JD     1400+00000+JD0000008769+0000008769+000000000+000001229+0000009998+0000000000+I40000009998+0000000000+Z
217862001217862018-050000     217862006003000412679MUG OCC LOVE TWIN BEAR 0000001000+00006139+00000+0001T   00006139+0000001721          1400 GL3515               1BZ
217862002217862077-000270     217862006003000395453GIFT-BAG PPR JMB 33X45 0000001000+00002630+00000+0001T   00002630+0000001721          1400 GL3112               1BZ
217863000217863               217863               170213JD     1400+00000+JD0000009499+0000009499+000000000+000001333+0000010830+0000000002+I20000000000+0000010830+Z
217863001217863112-116038     217863006009681820246TCS CARRIER BAG MIDI   0000001000+00000035+00000+0001T   00000035+0000001722          1400 GL3090               1BZ
217863002217863903-003080     217863005907029004673SWT SNACK STIX CHOC 50g0000006000+00000876+00000+0001T   00000876+0000001722          1400 GL3150               1BZ
217863003217863077-000115-B   217863006003000181025GIFT-WRAP PPR 700MMX2M 0000001000+00002630+00000+0001T   00002630+0000001722          1400 GL3112               1BZ
217863004217863077-000348     217863006001023483287GIFT-BOWS 4,5cm 8PCE   0000001000+00001578+00000+0001T   00001578+0000001722          1400 GL3112               1BZ
217864000217864               217864               170213JD     1400+00000+JD0000026860+0000026860+000000000+000003766+0000030626+0000000000+I40000030626+0000000000+Z
217864001217864018-000130     217864006001023867537MUG OCC LOVE MINI+HEART0000001000+00003507+00000+0001T   00003507+0000001730          1400 GL3515               1BZ
217864002217864018-030000     217864006003000421060MUG OCCASIONS LOVE 2PCE0000001000+00004385+00000+0001T   00004385+0000001730          1400 GL3515               1BZ
217864003217864077-000303     217864006001023593757GIFT-BAG PAPER MED     0000001000+00001578+00000+0001T   00001578+0000001730          1400 GL3112               1BZ
217864004217864112-116038     217864006009681820246TCS CARRIER BAG MIDI   0000001000+00000035+00000+0001T   00000035+0000001730          1400 GL3090               1BZ
217864005217864903-000892     217864008693029700420SWT NOVELTY CHOCO CREAM0000005000+00000788+00000+0001T   00000788+0000001730          1400 GL3150               1BZ
217864006217864001-000175     217864006001023788108B/MUG GLS LOVE 380ML   0000001000+00004385+00000+0001T   00004385+0000001730          1400 GL3515               1BZ
217864007217864080-000127     217864006003000424351VALENTINES DAY 36x24CM 0000001000+00002192+00000+0001T   00002192+0000001730          1400 GL3112               1BZ
217864008217864077-000303     217864006001023593757GIFT-BAG PAPER MED     0000001000+00001578+00000+0001T   00001578+0000001730          1400 GL3112               1BZ
217864009217864903-000592     217864006003000563777SWT CELLPHONE 12cm     0000002000+00002630+00000+0001T   00002630+0000001730          1400 GL3150               1BZ
217865000217865               217865               170213JD     1400+00000+JD0000004384+0000004384+000000000+000000614+0000004990+0000000008+I20000000000+0000004990+Z
217865001217865080-000127     217865006003000424351VALENTINES DAY 36x24CM 0000002000+00002192+00000+0001T   00002192+0000001732          1400 GL3112               1BZ
217866000217866               217866               170213JD     1400+00000+JD0000000437+0000000437+000000000+000000062+0000000490+0000000009+I20000000000+0000000490+Z
217866001217866080-000133-A   217866006003000647019MINI VALENTINES CARD   0000001000+00000437+00000+0001T   00000437+0000001732          1400 GL3112               1BZ
217867000217867               217867               170213JD     1400+00000+JD0000003504+0000003504+000000000+000000492+0000003990+0000000006+I20000000000+0000003990+Z
217867001217867077-000314     217867006003000181148GIFT-BAG 11X14CM MATT  0000002000+00000876+00000+0001T   00000876+0000001733          1400 GL3112               1BZ
217867002217867903-000861     217867005010478430822SWT LOVE HEARTS SML    0000002000+00000876+00000+0001T   00000876+0000001733          1400 GL3150               1BZ
217868000217868               217868               170213JD     1400+00000+JD0000016093+0000016093+000000000+000002256+0000018340+0000000009+I20000000000+0000018340+Z
217868001217868077-000303     217868006001023593757GIFT-BAG PAPER MED     0000001000+00001578+00000+0001T   00001578+0000001738          1400 GL3112               1BZ
217868002217868031-000864-A   217868006001023798350P/FRAME MAHOGANY 10X15 0000001000+00003069+00000+0001T   00003069+0000001738          1400 GL3510               1BZ
217868003217868019-000126     217868006003000329571PLANTER GALV W/HANDLE  0000002000+00004823+00000+0001T   00004823+0000001738          1400 GL3510               1BZ
217868004217868077-000151     217868006008766114676GIFT-WRAP C/PHANE ASSTD0000002000+00000876+00000+0001T   00000876+0000001738          1400 GL3112               1BZ
217868005217868112-116069     217868006009681820277TCS CARRIER BAG JUMBO  0000001000+00000048+00000+0001T   00000048+0000001738          1400 GL3090               1BZ
217869000217869               217869               170213JD     1400+00000+JD0000006873+0000006873+000000000+000000964+0000007837+0000000000+I40000007837+0000000000+Z
217869001217869266-003012     217869006001023786128BOYS P/SET ARCHERY 4pc 0000001000+00002630+00000+0001T   00002630+0000001739          1400 GL3710               1BZ
217869002217869903-000090     217869006009826020821SWT GS CHOCO COINS 60g 0000002000+00002104+00000+0001T   00002104+0000001739          1400 GL3150               1BZ
217869003217869112-116038     217869006009681820246TCS CARRIER BAG MIDI   0000001000+00000035+00000+0001T   00000035+0000001739          1400 GL3090               1BZ
217870000217870               217870               170213JD     1400+00000+JD0000003507+0000003507+000000000+000000491+0000003990+0000000008+I20000000000+0000003990+Z
217870001217870031-000860-A   217870006001023798176P/FRAME PL ANTIQUE-BLK 0000001000+00003507+00000+0001T   00003507+0000001740          1400 GL3510               1BZ
A17021300                                          07563146JDSLAVE 1                       GL31IC
A17021301                                          09311351JDSLAVE 1                       GL31IC
A17021302                                          09342855JDSLAVE 1                       GL31IC
A17021303                                          11230652JDSLAVE 1                       2IC2IC
M17021301                              IT          JDLAST SLIP NO FOR SLAVE 1 217870                 THANKS
M17021391                              CASH        JDSLAVE 1                       Z-REPORT No.   590TOTAL (Sales - Refunds)          10069.23       CASH TO BE BANKED                 3535.00       DEBIT CARDS                          0.00       CREDIT CARDS                      6534.23       Z-READING                        10069.23       AIRTIME DEBIT CARD SALES             0.00       AIRTIME CARD SALES                   0.00       OVERS/UNDERS                         0.00       AIRTIME CASH SALES                   0.00       GIFT CARDS                           0.00       GIFT CARD CASH SALES                 0.00       T O T A L  CASH PAYOUTS              0.00                                                                                                                                                                                                                                                                                                                                                      Z
M17021392                              CASH        JDABSENT                                                                                                                                                                                          ANNUAL LEAVE                                                                                                                                                                                    DAY OFF                                                                                                                                                                                         COMMENTS                                                                                                                                                                                                                                                                                                                                                                                       Z
Y17021300                                          JD00000000892685+000097
ZJD17021319523 SLAVE 1      SALES DATA                     NEXT INVOICE NO.  217871 0590
X JD Slave 1 First invoice 217774 170213 Last invoice 217870 170213 Next invoice 217871 Total number of records 000000410 clbackup completed 19:52:56
