225991000225991               225991               170213JD     1400+00000+JD0000008802+0000008802+000000000+000001234+0000010030+0000000006+I20000000000+0000010030+Z
225991001225991366-000450     225991006003000653386DRESS UP HEADBAND ASSTD0000002000+00002630+00000+0001T   00002630+0000000848          1400 HR1131               2AZ
225991002225991565-000876     225991006003000305759NOVELTY FUNKY SUNGLASS 0000001000+00003507+00000+0001T   00003507+0000000848          1400 HR1745               2AZ
225991003225991112-116038     225991006009681820246TCS CARRIER BAG MIDI   0000001000+00000035+00000+0001T   00000035+0000000848          1400 HR1090               2AZ
225992000225992               225992               170213JD     1400+00000+JD0000006569+0000006569+000000000+000000923+0000007492+0000000000+I40000007492+0000000000+Z
225992001225992366-007601     225992006003000655472DRESS UP MASK THEATRICA0000001000+00000876+00000+0001T   00000876+0000000850          1400 HR1131               2AZ
225992002225992903-000810     225992006009680772249SWT FROOTEEZ SOUR 50g  0000001000+00000876+00000+0001T   00000876+0000000850          1400 HR1150               2AZ
225992003225992104-000027     225992006003000571284BASKET RECTANGULAR     0000001000+00003507+00000+0001T   00003507+0000000850          1400 HR1210               2AZ
225992004225992903-000183     225992006003000451043SWT LB HEART LOLLY     0000002000+00000393+00000+0001T   00000393+0000000850          1400 HR1150               2AZ
225992005225992903-000099     225992006923431501646SWT CANDY GS WTCH B/LET0000002000+00000262+00000+0001T   00000262+0000000850          1400 HR1150               2AZ
225993000225993               225993               170213JD     1400+00000+JD0000003152+0000003152+000000000+000000444+0000003596+0000000000+I40000003596+0000000000+Z
225993001225993077-000010-D   225993006001023123886CREPE-PAPER WHITE      0000001000+00000788+00000+0001T   00000788+0000000904          1400 HR1112               2AZ
225993002225993077-000010-F   225993006003453000461CREPE-PAPER BLUE       0000002000+00000788+00000+0001T   00000788+0000000904          1400 HR1112               2AZ
225993003225993077-000010-D   225993006001023123886CREPE-PAPER WHITE      0000001000+00000788+00000+0001T   00000788+0000000904          1400 HR1112               2AZ
225994000225994               225994               170213JD     1400+00000+JD0000002630+0000002630+000000000+000000369+0000002990+0000000009+I20000000000+0000002990+Z
225994001225994563-000317-H   225994006001023776358SERVIETTE DOTS+STRIPES 0000001000+00002630+00000+0001T   00002630+0000000914          1400 HR1214               2AZ
225995000225995               225995               170213JD     1400+00000+JD0000007539+0000007539+000000000+000001057+0000008590+0000000006+I20000000000+0000008590+Z
225995001225995304-001204     225995006001023737984FLOWER OCC. TEDDY/ROSES0000001000+00001402+00000+0001T   00001490+0006470926          1400 HR1510               2AZ
225995002225995018-000136     225995006001023659026MUG OCC LOVE W/PLUSH   0000001000+00003507+00000+0001T   00003507+0000000926          1400 HR1515               2AZ
225995003225995077-000270     225995006003000395453GIFT-BAG PPR JMB 33X45 0000001000+00002630+00000+0001T   00002630+0000000926          1400 HR1112               2AZ
225996000225996               225996               170213JD     1400+00000+JD0000000048+0000000048+000000000+000000007+0000000050+0000000005+I20000000000+0000000050+Z
225996001225996112-116069     225996006009681820277TCS CARRIER BAG JUMBO  0000001000+00000048+00000+0001T   00000048+0000000927          1400 HR1090               2AZ
225997000225997               225997               170213JD     1400+00000+JD0000029575+0000029575+000000000+000004145+0000033720+0000000000+I20000000000+0000033720+Z
225997001225997079-001003     225997006003000588640ART+CRAFT PAINT CANVAS 0000001000+00010525+00000+0001T   00010525+0000000930          1400 HR1130               2AZ
225997002225997018-000136     225997006001023659026MUG OCC LOVE W/PLUSH   0000001000+00003507+00000+0001T   00003507+0000000930          1400 HR1515               2AZ
225997003225997071-001010     225997006001023893314MARKERS-METALIC 3PCE   0000001000+00003507+00000+0001T   00003507+0000000930          1400 HR1130               2AZ
225997004225997079-009700-B   225997006003000547661PAPER SIRIO A4 WHITE   0000022000+00000306+00000+0001T   00000306+0000000930          1400 HR1130               2AZ
225997005225997006-000166-H   225997006003000608096BALLOONS HELIUM 6PC WHT0000001000+00001314+00000+0001T   00001314+0000000930          1400 HR1131               2AZ
225997006225997006-000167-B   225997006003000516858BALLOONS BLUE METALLIC 0000002000+00001314+00000+0001T   00001314+0000000930          1400 HR1131               2AZ
225997007225997006-000166-H   225997006003000608096BALLOONS HELIUM 6PC WHT0000001000+00001314+00000+0001T   00001314+0000000930          1400 HR1131               2AZ
225997008225997112-116069     225997006009681820277TCS CARRIER BAG JUMBO  0000001000+00000048+00000+0001T   00000048+0000000930          1400 HR1090               2AZ
225998000225998               225998               170213JD     1400+00000+JD0000008627+0000008627+000000000+000001209+0000009830+0000000006+I20000000000+0000009830+Z
225998001225998001-000175     225998006001023788108B/MUG GLS LOVE 380ML   0000001000+00004385+00000+0001T   00004385+0000000933          1400 HR1515               2AZ
225998002225998105-000750     225998006003000190270CONTAINERS 4xMINI 150ml0000001000+00001402+00000+0001T   00001402+0000000933          1400 HR1210               2AZ
225998003225998077-000245     225998006001023759214GIFT-RIBBON METALLICx2 0000001000+00001227+00000+0001T   00001227+0000000933          1400 HR1112               2AZ
225998004225998077-000303     225998006001023593757GIFT-BAG PAPER MED     0000001000+00001578+00000+0001T   00001578+0000000933          1400 HR1112               2AZ
225998005225998112-116038     225998006009681820246TCS CARRIER BAG MIDI   0000001000+00000035+00000+0001T   00000035+0000000933          1400 HR1090               2AZ
225999000225999               225999               170213JD     1400+00000+JD0000028781+0000028781+000000000+000004047+0000032828+0000000000+I40000032828+0000000000+Z
225999001225999071-001346     225999006001023912985HIGHLIGHTERS 4PCE CARD 0000001000+00002192+00000+0001T   00002192+0000000944          1400 HR1130               2AZ
225999002225999071-001015     225999006001023910387MARKERS PERMANENT 3PK  0000001000+00001753+00000+0001T   00001753+0000000944          1400 HR1130               2AZ
225999003225999566-000858     225999006001023760975STCKRS G/OUTLINE ASSTD 0000001000+00000788+00000+0001T   00000788+0000000944          1400 HR1130               2AZ
225999004225999079-006500     225999006001023557186GLUE GLITTER 6/10 PCE  0000001000+00001753+00000+0001T   00001753+0000000944          1400 HR1130               2AZ
225999005225999566-000858     225999006001023760975STCKRS G/OUTLINE ASSTD 0000002000+00000788+00000+0001T   00000788+0000000944          1400 HR1130               2AZ
225999006225999079-006500     225999006001023557186GLUE GLITTER 6/10 PCE  0000001000+00001753+00000+0001T   00001753+0000000944          1400 HR1130               2AZ
225999007225999112-116069     225999006009681820277TCS CARRIER BAG JUMBO  0000001000+00000048+00000+0001T   00000048+0000000944          1400 HR1090               2AZ
225999008225999071-081103     225999006003000197002GLUE STICKS LIQUID 3PCE0000001000+00001753+00000+0001T   00001753+0000000944          1400 HR1130               2AZ
225999009225999079-009700-C   225999006003000545636PAPER SIRIO A4 VIOLET  0000002000+00000306+00000+0001T   00000306+0000000944          1400 HR1130               2AZ
225999010225999079-009702-A   225999008427973059408PAPER SIRIO A2 BLACK   0000002000+00001051+00000+0001T   00001051+0000000944          1400 HR1130               2AZ
225999011225999079-009702-G   225999008427973060787PAPER SIRIO A2 FUSHIA  0000004000+00001051+00000+0001T   00001051+0000000944          1400 HR1130               2AZ
225999012225999079-009702-D   225999008427973059354PAPER SIRIO A2 RED COL 0000005000+00001051+00000+0001T   00001051+0000000944          1400 HR1130               2AZ
225999013225999079-009702-F   225999008427973059392PAPER SIRIO A2 GREEN   0000003000+00001051+00000+0001T   00001051+0000000944          1400 HR1130               2AZ
225999014225999304-001011     225999006001023806727FLWR ROSE RED W/BEAR   0000003000+00000613+00000+0001T   00000788+0006470944          1400 HR1510               2AZ
226000000226000               226000               170213JD     1400+00000+JD0000018413+0000018413+000000000+000002581+0000020994+0000000000+I40000020994+0000000000+Z
226000001226000203-000115     226000006001023839985ICE BUCKET PL 26X32CM  0000001000+00004385+00000+0001T   00004385+0000000956          1400 HR1300               2AZ
226000002226000206-000620     226000006003000631797BACK SCRATCHER EXTEND  0000001000+00002630+00000+0001T   00002630+0000000956          1400 HR1321               2AZ
226000003226000072-000626     226000006003000691609DOG-LEAD REFLECTIVE    0000001000+00002630+00000+0001T   00002630+0000000956          1400 HR1870               2AZ
226000004226000051-600671     226000006001023552730GARDEN-FENCE PL-CTD 5PC0000001000+00004385+00000+0001T   00004385+0000000956          1400 HR1820               2AZ
226000005226000159-000800     226000006001023167972BATHMAT ANTI-SLIP      0000001000+00002630+00000+0001T   00002630+0000000956          1400 HR1200               2AZ
226000006226000088-000108     226000006001023765536POTPOURRI-OIL 10ml ASST0000001000+00001753+00000+0001T   00001753+0000000956          1400 HR1212               2AZ
226001000226001               226001               170213JD     1400+00000+JD0000013155+0000013155+000000000+000001843+0000014998+0000000000+I40000014998+0000000000+Z
226001001226001368-000637     226001006001023874092PLUSH BEAR SLEEPING LOV0000001000+00011402+00000+0001T   00012279+0006471003          1400 HR1745               2AZ
226001002226001077-000299-A   226001006003000670888GIFT-BAG PAPER JMB LOVE0000001000+00001753+00000+0001T   00001753+0000001003          1400 HR1112               2AZ
226002000226002               226002               170213JD     1400+00000+JD0000009692+0000009692+000000000+000001359+0000011050+0000000001+I20000000000+0000011050+Z
226002001226002072-020352     226002006003000561667DOG/CAT BOWL PL 19cm   0000002000+00003069+00000+0001T   00003069+0000001015          1400 HR1870               2AZ
226002002226002105-001255     226002006003000573110CONTAINER FROSTED 1400m0000002000+00001753+00000+0001T   00001753+0000001015          1400 HR1210               2AZ
226002003226002112-116069     226002006009681820277TCS CARRIER BAG JUMBO  0000001000+00000048+00000+0001T   00000048+0000001015          1400 HR1090               2AZ
226003000226003               226003               170213JD     1400+00000+JD0000003944+0000003944+000000000+000000553+0000004490+0000000007+I20000000000+0000004490+Z
226003001226003018-000129     226003006001023403353MUG OCC. LOVE V-SHAPE  0000001000+00002630+00000+0001T   00002630+0000001016          1400 HR1515               2AZ
226003002226003077-000310     226003006001023608635GIFT-BAG 18X23CM GLOSS 0000001000+00001314+00000+0001T   00001314+0000001016          1400 HR1112               2AZ
226004000226004               226004               170213JD     1400+00000+JD0000000262+0000000262+000000000+000000037+0000000290+0000000009+I20000000000+0000000290+Z
226004001226004007-000405     226004006009635830369EXERCISE-BOOK A5 72PAGE0000001000+00000262+00000+0001T   00000262+0000001017          1400 HR1130               2AZ
226005000226005               226005               170213JD     1400+00000+JD0000052653+0000052653+000000000+000007381+0000060034+0000000000+I40000060034+0000000000+Z
226005001226005903-003080     226005005907029004673SWT SNACK STIX CHOC 50g0000001000+00000876+00000+0001T   00000876+0000001019          1400 HR1150               2AZ
226005002226005366-007917     226005006003000653621DRESS UP MASK ANIMALS  0000001000+00000876+00000+0001T   00000876+0000001019          1400 HR1131               2AZ
226005003226005079-001001     226005006003000448593CANVAS A3 WOOD MOUNTED 0000005000+00004385+00000+0001T   00004385+0000001019          1400 HR1130               2AZ
226005004226005079-105310     226005006003000588947ART+CRAFT PAINT PALETTE0000002000+00002630+00000+0001T   00002630+0000001019          1400 HR1130               2AZ
226005005226005079-000275     226005006003000160488PAINT-BRUSHES 6PCE PRO 0000003000+00001753+00000+0001T   00001753+0000001019          1400 HR1130               2AZ
226005006226005079-000280     226005006003000160723PAINT READYMIX 6PCE    0000001000+00002630+00000+0001T   00002630+0000001019          1400 HR1130               2AZ
226005007226005112-116069     226005006009681820277TCS CARRIER BAG JUMBO  0000001000+00000048+00000+0001T   00000048+0000001019          1400 HR1090               2AZ
226005008226005079-000590     226005006003000543236SKETCH PAD & PAINT SET 0000001000+00007016+00000+0001T   00007016+0000001019          1400 HR1130               2AZ
226005009226005079-003009     226005006003000448722A/TUBE 75ML NATURAL    0000001000+00001753+00000+0001T   00001753+0000001019          1400 HR1130               2AZ
226005010226005079-003012     226005006003000447893A/TUBE 75ML VIOLET     0000001000+00001753+00000+0001T   00001753+0000001019          1400 HR1130               2AZ
226005011226005079-003011     226005006003000448968A/TUBE 75ML ORANGE     0000001000+00001753+00000+0001T   00001753+0000001019          1400 HR1130               2AZ
226005012226005903-000520     226005006001704009898SWT GUMMY MINI SOUR 60g0000004000+00000876+00000+0001T   00000876+0000001019          1400 HR1150               2AZ
226006000226006               226006               170213JD     1400+00000+JD0000022493+0000022493+000000000+000003152+0000025645+0000000000+I40000025645+0000000000+Z
226006001226006301-085007     226006006003000673698ORN OCC. LOVE S/PLAQUE 0000001000+00007893+00000+0001T   00007893+0000001028          1400 HR1505               2AZ
226006002226006018-000127     226006006001023380289MUG OCC STRAIGHT LOVE  0000001000+00001578+00000+0001T   00001753+0006471028          1400 HR1515               2AZ
226006003226006304-001204     226006006001023737984FLOWER OCC. TEDDY/ROSES0000001000+00001402+00000+0001T   00001490+0006471028          1400 HR1510               2AZ
226006004226006089-060027     226006006003000245871KEY-CHAIN HEART 6X6cm  0000001000+00003069+00000+0001T   00003069+0000001028          1400 HR1205               2AZ
226006005226006077-000311     226006006001023608666GIFT-BAG 11X14CM GLOSS 0000001000+00000613+00000+0001T   00000613+0000001028          1400 HR1112               2AZ
226006006226006077-000310     226006006001023608635GIFT-BAG 18X23CM GLOSS 0000001000+00001314+00000+0001T   00001314+0000001028          1400 HR1112               2AZ
226006007226006080-000127     226006006003000424351VALENTINES DAY 36x24CM 0000003000+00002192+00000+0001T   00002192+0000001028          1400 HR1112               2AZ
226006008226006112-116069     226006006009681820277TCS CARRIER BAG JUMBO  0000001000+00000048+00000+0001T   00000048+0000001028          1400 HR1090               2AZ
226007000226007               226007               170213JD     1400+00000+JD0000005948+0000005948+000000000+000000834+0000006780+0000000002+I20000000000+0000006780+Z
226007001226007071-001010     226007006001023893314MARKERS-METALIC 3PCE   0000001000+00003507+00000+0001T   00003507+0000001045          1400 HR1130               2AZ
226007002226007071-001019     226007006001023474513MARKER BLACK NAME-PEN  0000001000+00000876+00000+0001T   00000876+0000001045          1400 HR1130               2AZ
226007003226007079-009700-F   226007006003000545872PAPER SIRIO A4 TURQ COL0000001000+00000306+00000+0001T   00000306+0000001045          1400 HR1130               2AZ
226007004226007079-009700-J   226007006003000546190PAPER SIRIO A4 BLUE    0000001000+00000306+00000+0001T   00000306+0000001045          1400 HR1130               2AZ
226007005226007079-009700-B   226007006003000547661PAPER SIRIO A4 WHITE   0000001000+00000306+00000+0001T   00000306+0000001045          1400 HR1130               2AZ
226007006226007079-009700-A   226007006003000547746PAPER SIRIO A4 BLACK   0000001000+00000306+00000+0001T   00000306+0000001045          1400 HR1130               2AZ
226007007226007079-009700-K   226007006003000546275PAPER SIRIO A4 VANILLA 0000001000+00000306+00000+0001T   00000306+0000001045          1400 HR1130               2AZ
226007008226007112-116038     226007006009681820246TCS CARRIER BAG MIDI   0000001000+00000035+00000+0001T   00000035+0000001045          1400 HR1090               2AZ
226008000226008               226008               170213JD     1400+00000+JD0000011885+0000011885+000000000+000001666+0000013551+0000000000+I40000013551+0000000000+Z
226008001226008002-000884     226008006001023769589CAN-OPENER BUTTERFLY   0000001000+00002630+00000+0001T   00002630+0000001057          1400 HR1300               2AZ
226008002226008024-000083     226008006001023770943SIEVE FLOUR 20cm MTL-RI0000001000+00001753+00000+0001T   00001753+0000001057          1400 HR1300               2AZ
226008003226008024-000093-A   226008006003000430697MEASURING-CUPS ASSTD   0000001000+00004385+00000+0001T   00004385+0000001057          1400 HR1300               2AZ
226008004226008024-000040     226008006001023332509MEASURING-JUG 2.00L    0000001000+00003069+00000+0001T   00003069+0000001057          1400 HR1300               2AZ
226008005226008112-116069     226008006009681820277TCS CARRIER BAG JUMBO  0000001000+00000048+00000+0001T   00000048+0000001057          1400 HR1090               2AZ
226009000226009               226009               170213JD     1400+00000+JD0000015822+0000015822+000000000+000002221+0000018043+0000000000+I40000018043+0000000000+Z
226009001226009080-000133-A   226009006003000647019MINI VALENTINES CARD   0000004000+00000437+00000+0001T   00000437+0000001104          1400 HR1112               2AZ
226009002226009563-000317-H   226009006001023776358SERVIETTE DOTS+STRIPES 0000001000+00002630+00000+0001T   00002630+0000001104          1400 HR1214               2AZ
226009003226009080-000102     226009006003000236855CARD&ENVLP FEMALE AFR  0000001000+00001753+00000+0001T   00001753+0000001104          1400 HR1112               2AZ
226009004226009077-000011-L   226009006001023808585P/TISSUE BRIGHT 10SHEET0000001000+00000876+00000+0001T   00000876+0000001104          1400 HR1112               2AZ
226009005226009077-000399     226009006003000139514GIFT BAG 18X23CM E/DAY 0000001000+00001490+00000+0001T   00001490+0000001104          1400 HR1112               2AZ
226009006226009903-004960     226009008410525221842SWT GUMMY STR/BERRY 50G0000003000+00000964+00000+0001T   00000964+0000001104          1400 HR1150               2AZ
226009007226009368-000049     226009006003000536955PLUSH BEAR 15cm LOVE   0000001000+00004385+00000+0001T   00004385+0000001104          1400 HR1745               2AZ
226009008226009112-116069     226009006009681820277TCS CARRIER BAG JUMBO  0000001000+00000048+00000+0001T   00000048+0000001104          1400 HR1090               2AZ
226010000226010               226010               170213JD     1400+00000+JD0000006483+0000006483+000000000+000000910+0000007390+0000000003+I20000000000+0000007390+Z
226010001226010077-000245     226010006001023759214GIFT-RIBBON METALLICx2 0000001000+00001227+00000+0001T   00001227+0000001119          1400 HR1112               2AZ
226010002226010077-000151     226010006008766114676GIFT-WRAP C/PHANE ASSTD0000003000+00000876+00000+0001T   00000876+0000001119          1400 HR1112               2AZ
226010003226010077-000150-D   226010006003000054343GIFT-WRAP CELLPHANE CLR0000001000+00000876+00000+0001T   00000876+0000001119          1400 HR1112               2AZ
226010004226010077-000151     226010006008766114676GIFT-WRAP C/PHANE ASSTD0000001000+00000876+00000+0001T   00000876+0000001119          1400 HR1112               2AZ
226010005226010077-000150-D   226010006003000054343GIFT-WRAP CELLPHANE CLR0000001000+00000876+00000+0001T   00000876+0000001119          1400 HR1112               2AZ
226011000226011               226011               170213JD     1400+00000+JD0000007449+0000007449+000000000+000001046+0000008495+0000000000+I40000008495+0000000000+Z
226011001226011362-000316     226011006003000654994HAIR HEADBAND FASHION  0000001000+00002192+00000+0001T   00002192+0000001122          1400 HR1160               2AZ
226011002226011079-013032-H   226011006003000496501GLITTER PRINCESS ACC   0000001000+00002630+00000+0001T   00002630+0000001122          1400 HR1130               2AZ
226011003226011362-003004     226011006003000294961HAIR CLIPS             0000001000+00001753+00000+0001T   00001753+0000001122          1400 HR1160               2AZ
226011004226011080-000133-A   226011006003000647019MINI VALENTINES CARD   0000002000+00000437+00000+0001T   00000437+0000001122          1400 HR1112               2AZ
226012000226012               226012               170213JD     1400+00000+JD0000007015+0000007015+000000000+000000983+0000007990+0000000008+I20000000000+0000007990+Z
226012001226012007-000602     226012006003000541270BOOK COVER 2M SOLID COL0000001000+00002630+00000+0001T   00002630+0000001122          1400 HR1130               2AZ
226012002226012075-001003     226012006003000622689HAT LADIES VISOR STYLE 0000001000+00004385+00000+0001T   00004385+0000001122          1400 HR1160               2AZ
226013000226013               226013               170213JD     1400+00000+JD0000017542+0000017542+000000000+000002456+0000019990+0000000008+I20000000000+0000019990+Z
226013001226013019-000049     226013006001023673732V/GLASS FOOTED 17X25CM 0000001000+00017542+00000+0001T   00017542+0000001124          1400 HR1510               2AZ
226014000226014               226014               170213JD     1400+00000+JD0000030699+0000030699+000000000+000004299+0000034998+0000000000+I40000034998+0000000000+Z
226014001226014105-007525     226014006003000487707STORAGE BOX CLEAR 21L  0000001000+00016665+00000+0001T   00016665+0000001126          1400 HR1210               2AZ
226014002226014105-007560     226014008696287302559STORAGE BOX CLEAR 10L  0000001000+00014034+00000+0001T   00014034+0000001126          1400 HR1210               2AZ
226015000226015               226015               170213JD     1400+00000+JD0000002365+0000002365+000000000+000000332+0000002697+0000000000+I40000002697+0000000000+Z
226015001226015079-009702-D   226015008427973059354PAPER SIRIO A2 RED COL 0000001000+00001051+00000+0001T   00001051+0000001128          1400 HR1130               2AZ
226015002226015006-000166-D   226015006003000516490BALLOONS LRG 6PC RED   0000001000+00001314+00000+0001T   00001314+0000001128          1400 HR1131               2AZ
226016000226016               226016               170213JD     1400+00000+JD0000004235+0000004235+000000000+000000593+0000004828+0000000000+I40000004828+0000000000+Z
226016001226016903-000120     226016006002099001665SWEET GS ZILLIONS 50g  0000001000+00000700+00000+0001T   00000700+0000001130          1400 HR1150               2AZ
226016002226016018-000177     226016006001023797513MUG MINI LOVE ASSTD    0000005000+00000700+00000+0001T   00000700+0000001130          1400 HR1515               2AZ
226016003226016112-116038     226016006009681820246TCS CARRIER BAG MIDI   0000001000+00000035+00000+0001T   00000035+0000001130          1400 HR1090               2AZ
226017000226017               226017               170213JD     1400+00000+JD0000002453+0000002453+000000000+000000344+0000002790+0000000007+I20000000000+0000002790+Z
226017001226017027-000081     226017006001023760371SCOURING PADS 10PCE    0000001000+00001139+00000+0001T   00001139+0000001131          1400 HR1212               2AZ
226017002226017903-004952     226017006002580020052SWT FREAKY FACES 100G  0000001000+00001314+00000+0001T   00001314+0000001131          1400 HR1150               2AZ
226018000226018               226018               170213JD     1400+00000+JD0000003360+0000003360+000000000+000000475+0000003835+0000000000+I40000003835+0000000000+Z
226018001226018077-000240     226018006003000326259G/RIBBON 4PC PEARLIZED 0000001000+00001753+00000+0001T   00001753+0000001133          1400 HR1112               2AZ
226018002226018903-000183     226018006003000451043SWT LB HEART LOLLY     0000004000+00000393+00000+0001T   00000393+0000001133          1400 HR1150               2AZ
226018003226018112-116038     226018006009681820246TCS CARRIER BAG MIDI   0000001000+00000035+00000+0001T   00000035+0000001133          1400 HR1090               2AZ
226019000226019               226019               170213JD     1400+00000+JD0000000700+0000000700+000000000+000000098+0000000790+0000000008+I20000000000+0000000790+Z
226019001226019018-000177     226019006001023797513MUG MINI LOVE ASSTD    0000001000+00000700+00000+0001T   00000700+0000001139          1400 HR1515               2AZ
226020000226020               226020               170213JD     1400+00000+JD0000008771+0000008771+000000000+000001228+0000009990+0000000009+I20000000000+0000009990+Z
226020001226020007-010502     226020006003000455270WIPE & CHALK 60X45CM   0000001000-00015788+00000+0001T   00015788+0000001204          1400 HR11301IC            2 Z
226020002226020007-010502     226020006003000455270WIPE & CHALK 60X45CM   0000001000+00015788+00000+0001T   00015788+0000001204          1400 HR11301IC            2AZ
226020003226020007-010501     226020006003000455157WIPE & CHALK 45X35CM   0000001000+00008771+00000+0001T   00008771+0000001204          1400 HR1130               2AZ
226021000226021               226021               170213JD     1400+00000+JD0000003943+0000003943+000000000+000000553+0000004496+0000000000+I40000004496+0000000000+Z
226021001226021079-006494     226021006003000159864GLITTER GLUE 5PCE 11cm 0000001000+00001490+00000+0001T   00001490+0000001206          1400 HR1130               2AZ
226021002226021566-000037     226021006003000383948STICKER 3D GEL         0000001000+00001753+00000+0001T   00001753+0000001206          1400 HR1130               2AZ
226021003226021566-002000     226021000721129013206STICKERS CRYSTAL ASSTD 0000001000+00000700+00000+0001T   00000700+0000001206          1400 HR1130               2AZ
226022000226022               226022               170213JD     1400+00000+JD0000014936+0000014936+000000000+000002095+0000017031+0000000000+I40000017031+0000000000+Z
226022001226022301-085001     226022006003000297610ORN WATERBALL LOVE ASST0000001000+00004823+00000+0001T   00004823+0000001233          1400 HR1505               2AZ
226022002226022301-085006     226022006001023502940ORN LOVE MSG TUBE W/HRT0000001000+00001753+00000+0001T   00001753+0000001233          1400 HR1505               2AZ
226022003226022206-000630     226022006003000631919SPECTACLE CLEANING BRUS0000001000+00001227+00000+0001T   00001227+0000001233          1400 HR1321               2AZ
226022004226022030-083577     226022006003000632152THERMOMETER MAGNETIC   0000001000+00001753+00000+0001T   00001753+0000001233          1400 HR1505               2AZ
226022005226022301-006010     226022006001023861245ORN BEAR POLY W/JERSEY 0000001000+00002192+00000+0001T   00002192+0000001233          1400 HR1505               2AZ
226022006226022204-000020     226022006003000573264MEMO HOLDER WINE BOTTLS0000001000+00001578+00000+0001T   00001578+0000001233          1400 HR1300               2AZ
226022007226022903-000155     226022006009803374435SWT LOLLY I LUV U HEART0000003000+00000525+00000+0001T   00000525+0000001233          1400 HR1150               2AZ
226022008226022112-116038     226022006009681820246TCS CARRIER BAG MIDI   0000001000+00000035+00000+0001T   00000035+0000001233          1400 HR1090               2AZ
226023000226023               226023               170213JD     1400+00000+JD0000009417+0000009417+000000000+000001320+0000010730+0000000007+I20000000000+0000010730+Z
226023001226023088-000084     226023006001023798060P/POURRI 120G ASSTD    0000001000+00001753+00000+0001T   00001753+0000001307          1400 HR1212               2AZ
226023002226023018-050000     226023006003000412679MUG OCC LOVE TWIN BEAR 0000001000+00006139+00000+0001T   00006139+0000001307          1400 HR1515               2AZ
226023003226023039-000108     226023006001023524034TEA-LITE CANDLES 8PCE  0000001000+00001490+00000+0001T   00001490+0000001307          1400 HR1510               2AZ
226023004226023112-116038     226023006009681820246TCS CARRIER BAG MIDI   0000001000+00000035+00000+0001T   00000035+0000001307          1400 HR1090               2AZ
226024000226024               226024               170213JD     1400+00000+JD0000002192+0000002192+000000000+000000307+0000002499+0000000000+I40000002499+0000000000+Z
226024001226024018-000170     226024006001023775528MUG OCC. LOVE 2PC MINI 0000001000+00002192+00000+0001T   00002192+0000001308          1400 HR1515               2AZ
226025000226025               226025               170213JD     1400+00000+JD0000003592+0000003592+000000000+000000505+0000004090+0000000007+I20000000000+0000004090+Z
226025001226025079-009702-B   226025008427973059491PAPER SIRIO A2 WHITE   0000001000+00001051+00000+0001T   00001051+0000001326          1400 HR1130               2AZ
226025002226025007-000230     226025006001023995315LABELS STICK-ON STARS  0000001000+00001753+00000+0001T   00001753+0000001326          1400 HR1130               2AZ
226025003226025071-081101-A   226025006003000326549GLUE-STICK 25g BLISTER 0000001000+00000788+00000+0001T   00000788+0000001326          1400 HR1130               2AZ
226026000226026               226026               170213JD     1400+00000+JD0000000310+0000000310+000000000+000000044+0000000350+0000000004+I20000000000+0000000350+Z
226026001226026903-000099     226026006923431501646SWT CANDY GS WTCH B/LET0000001000+00000262+00000+0001T   00000262+0000001328          1400 HR1150               2AZ
226026002226026112-116069     226026006009681820277TCS CARRIER BAG JUMBO  0000001000+00000048+00000+0001T   00000048+0000001328          1400 HR1090               2AZ
226027000226027               226027               170213JD     1400+00000+JD0000001753+0000001753+000000000+000000246+0000001990+0000000009+I20000000000+0000001990+Z
226027001226027071-004200     226027006001023835901SAFETY SCISSOR         0000001000+00001753+00000+0001T   00001753+0000001338          1400 HR1130               2AZ
226028000226028               226028               170213JD     1400+00000+JD0000032918+0000032918+000000000+000004613+0000037531+0000000000+I40000037531+0000000000+Z
226028001226028563-000317-A   226028006001023776167SERVIETTES 20PK PATTERN0000001000+00002630+00000+0001T   00002630+0000001340          1400 HR1214               2AZ
226028002226028019-071597     226028006008766071597PEBBLES 250g CLEAR  BAG0000001000+00002192+00000+0001T   00002192+0000001340          1400 HR1510               2AZ
226028003226028019-071594     226028006003000505579PEBBLES GLS 250g RED   0000003000+00002630+00000+0001T   00002630+0000001340          1400 HR1510               2AZ
226028004226028566-000322     226028006003000423132STICKER R/DEC CHANDELIE0000001000+00005262+00000+0001T   00005262+0000001340          1400 HR1130               2AZ
226028005226028566-000323     226028006003000535958STICKER ROOM DEC TOWER 0000001000+00004385+00000+0001T   00004385+0000001340          1400 HR1130               2AZ
226028006226028566-000320     226028006003000422890STICKERS R/DEC. NATURE 0000002000+00005262+00000+0001T   00005262+0000001340          1400 HR1130               2AZ
226028007226028112-116038     226028006009681820246TCS CARRIER BAG MIDI   0000001000+00000035+00000+0001T   00000035+0000001340          1400 HR1090               2AZ
226029000226029               226029               170213JD     1400+00000+JD0000014466+0000014466+000000000+000002028+0000016494+0000000000+I40000016494+0000000000+Z
226029001226029016-002700     226029006003000639809BOTTLE GLS W/LID 25CM  0000001000+00002630+00000+0001T   00002630+0000001354          1400 HR1300               2AZ
226029002226029200-003026     226029006003000276448REFUSE BAGS 10PCE GREEN0000001000+00001753+00000+0001T   00001753+0000001354          1400 HR1214               2AZ
226029003226029150-000024     226029006001023435217BASIN-PLUG RUBBER/CHR  0000002000+00002104+00000+0001T   00002104+0000001354          1400 HR1810               2AZ
226029004226029036-000605     226029006001023158611WASHING-PEGS WDN PCK-240000001000+00001490+00000+0001T   00001490+0000001354          1400 HR1212               2AZ
226029005226029105-008005     226029006002580009484STORAGE CONTAINER 7.5L 0000001000+00004385+00000+0001T   00004385+0000001354          1400 HR1210               2AZ
226030000226030               226030               170213JD     1400+00000+JD0000003154+0000003154+000000000+000000442+0000003590+0000000006+I20000000000+0000003590+Z
226030001226030566-002000     226030000721129013206STICKERS CRYSTAL ASSTD 0000001000+00000700+00000+0001T   00000700+0000001402          1400 HR1130               2AZ
226030002226030496-069632     226030000078257596324REPAIR-KIT (GLUE/PATCH)0000002000+00001227+00000+0001T   00001227+0000001402          1400 HR1787               2AZ
226031000226031               226031               170213JD     1400+00000+JD0000009680+0000009680+000000000+000001357+0000011030+0000000007+I20000000000+0000011030+Z
226031001226031006-000812     226031006001023902832HAT CONE WITH TINSEL   0000001000+00000876+00000+0001T   00000876+0000001406          1400 HR1131               2AZ
226031002226031305-074101     226031006003000239665W/CHIMES BRZE/SILV TUBE0000001000+00007016+00000+0001T   00007016+0000001406          1400 HR1505               2AZ
226031003226031566-000037     226031006003000383948STICKER 3D GEL         0000001000+00001753+00000+0001T   00001753+0000001406          1400 HR1130               2AZ
226031004226031112-116038     226031006009681820246TCS CARRIER BAG MIDI   0000001000+00000035+00000+0001T   00000035+0000001406          1400 HR1090               2AZ
226032000226032               226032               170213JD     1400+00000+JD0000015302+0000015302+000000000+000002144+0000017446+0000000000+I40000017446+0000000000+Z
226032001226032006-000190     226032006003000685530BALLOONS LOVE 81x91cm  0000001000+00004385+00000+0001T   00004385+0000001411          1400 HR1131               2AZ
226032002226032018-000127     226032006001023380289MUG OCC STRAIGHT LOVE  0000001000+00001578+00000+0001T   00001753+0006471411          1400 HR1515               2AZ
226032003226032001-000175     226032006001023788108B/MUG GLS LOVE 380ML   0000001000+00004385+00000+0001T   00004385+0000001411          1400 HR1515               2AZ
226032004226032903-003080     226032005907029004673SWT SNACK STIX CHOC 50g0000001000+00000876+00000+0001T   00000876+0000001411          1400 HR1150               2AZ
226032005226032903-000121     226032006002099001689SWT GS ZILLIONS SOURS  0000001000+00000700+00000+0001T   00000700+0000001411          1400 HR1150               2AZ
226032006226032903-000843     226032008693029031067SWT GUMMY JELAXY 80G   0000001000+00000964+00000+0001T   00000964+0000001411          1400 HR1150               2AZ
226032007226032903-004951     226032006002580020328SWT MALLOW MINI M/SHAKE0000001000+00001227+00000+0001T   00001227+0000001411          1400 HR1150               2AZ
226032008226032903-000087     226032006001704000161SWT SPECKLED-EGGS 50G  0000001000+00001139+00000+0001T   00001139+0000001411          1400 HR1150               2AZ
226032009226032112-116069     226032006009681820277TCS CARRIER BAG JUMBO  0000001000+00000048+00000+0001T   00000048+0000001411          1400 HR1090               2AZ
226033000226033               226033               170213JD     1400+00000+JD0000000000+0000000000+000000000+000000000+0000000000+0000000000+I20000000000+0000000000+Z
226033001226033007-000614     226033006001023768667DIARY W/LOCK+PEN LOVE  0000001000-00005262+00000+0001T   00005262+0000001416          1400 HR11302IC            2 Z
226033002226033007-000614     226033006001023768667DIARY W/LOCK+PEN LOVE  0000001000+00005262+00000+0001T   00005262+0000001416          1400 HR11302IC            2 Z
226034000226034               226034               170213JD     1400+00000+JD0000005255+0000005255+000000000+000000739+0000005994+0000000000+I40000005994+0000000000+Z
226034001226034903-000151     226034006009803374411SWT SML RND R/BOW LOLLY0000005000+00000525+00000+0001T   00000525+0000001418          1400 HR1150               2AZ
226034002226034071-005669     226034006003000153268STAPLER MINI W/STAPLES 0000001000+00002630+00000+0001T   00002630+0000001418          1400 HR1130               2AZ
226035000226035               226035               170213JD     1400+00000+JD0000012313+0000012313+000000000+000001724+0000014037+0000000000+I40000014037+0000000000+Z
226035001226035031-000002-A   226035006003000247103P/FRAME LOVE 7.5X7.5CM 0000001000+00003507+00000+0001T   00003507+0000001420          1400 HR1510               2AZ
226035002226035001-091415     226035006003000329113W/GLS OCC. LOVE 2PC 2800000001000+00008771+00000+0001T   00009648+0006471420          1400 HR1515               2AZ
226035003226035112-116038     226035006009681820246TCS CARRIER BAG MIDI   0000001000+00000035+00000+0001T   00000035+0000001420          1400 HR1090               2AZ
226036000226036               226036               170213JD     1400+00000+JD0000012276+0000012276+000000000+000001721+0000013990+0000000007+I20000000000+0000013990+Z
226036001226036162-094832     226036006001492948324#TAG KIDS WRISTWEAR    0000001000+00002630+00000+0001T   00002630+0000001422          1400 HR1160               2AZ
226036002226036368-000127     226036006003000451029PLUSH DOG 14x7.5x12cm  0000001000+00007016+00000+0001T   00007016+0000001422          1400 HR1745               2AZ
226036003226036034-078839     226036006003000622320COOEY BABY FEEDING SET 0000001000+00002630+00000+0001T   00002630+0000001422          1400 HR1215               2AZ
226037000226037               226037               170213JD     1400+00000+JD0000003721+0000003721+000000000+000000523+0000004240+0000000004+I20000000000+0000004240+Z
226037001226037006-000166-D   226037006003000516490BALLOONS LRG 6PC RED   0000001000+00001314+00000+0001T   00001314+0000001423          1400 HR1131               2AZ
226037002226037079-003000     226037006003000448838A/TUBE 75ML WHITE      0000001000+00001753+00000+0001T   00001753+0000001423          1400 HR1130               2AZ
226037003226037006-000173-A   226037006003000636235BALLOONS HELIUM 1PC BLK0000003000+00000218+00000+0001T   00000218+0000001423          1400 HR1131               2AZ
226038000226038               226038               170213JD     1400+00000+JD0000015974+0000015974+000000000+000002245+0000018219+0000000000+I40000018219+0000000000+Z
226038001226038038-001800     226038006003000623303DOILIE PAPER HRT 24PC  0000002000+00003507+00000+0001T   00003507+0000001425          1400 HR1300               2AZ
226038002226038903-000155     226038006009803374435SWT LOLLY I LUV U HEART0000017000+00000525+00000+0001T   00000525+0000001425          1400 HR1150               2AZ
226038003226038112-116038     226038006009681820246TCS CARRIER BAG MIDI   0000001000+00000035+00000+0001T   00000035+0000001425          1400 HR1090               2AZ
226039000226039               226039               170213JD     1400+00000+JD0000014909+0000014909+000000000+000002088+0000016990+0000000007+I20000000000+0000016990+Z
226039001226039039-082103     226039006001023845788CANDLE FLOATING 6PC    0000002000+00004385+00000+0001T   00004385+0000001426          1400 HR1510               2AZ
226039002226039039-000798     226039006001023617774CANDLES TEALITE BOX-50 0000001000+00006139+00000+0001T   00006139+0000001426          1400 HR1510               2AZ
226040000226040               226040               170213JD     1400+00000+JD0000001753+0000001753+000000000+000000246+0000001990+0000000009+I20000000000+0000001990+Z
226040001226040366-006104     226040006003000616930DRESS UP FACE PAINT    0000001000+00001753+00000+0001T   00001753+0000001428          1400 HR1131               2AZ
226041000226041               226041               170213JD     1400+00000+JD0000001575+0000001575+000000000+000000222+0000001790+0000000007+I20000000000+0000001790+Z
226041001226041903-000155     226041006009803374435SWT LOLLY I LUV U HEART0000003000+00000525+00000+0001T   00000525+0000001430          1400 HR1150               2AZ
226042000226042               226042               170213JD     1400+00000+JD0000008313+0000008313+000000000+000001168+0000009481+0000000000+I40000009481+0000000000+Z
226042001226042903-000183     226042006003000451043SWT LB HEART LOLLY     0000001000+00000393+00000+0001T   00000393+0000001435          1400 HR1150               2AZ
226042002226042903-000155     226042006009803374435SWT LOLLY I LUV U HEART0000001000+00000525+00000+0001T   00000525+0000001435          1400 HR1150               2AZ
226042003226042903-000120     226042006002099001665SWEET GS ZILLIONS 50g  0000001000+00000700+00000+0001T   00000700+0000001435          1400 HR1150               2AZ
226042004226042903-002851     226042000000087108538MENTOS ROLL STRAWBERRY 0000001000+00001051+00000+0001T   00001051+0000001435          1400 HR1150               2AZ
226042005226042903-002852     226042000000087108040MENTOS ROLL SPEARMINT  0000001000+00001051+00000+0001T   00001051+0000001435          1400 HR1150               2AZ
226042006226042071-081091     226042006001151010287STAED/GENKEM ALL-STICK 0000001000+00001227+00000+0001T   00001227+0000001435          1400 HR1130               2AZ
226042007226042077-000115     226042006001023834225WRAP METALLIC 700mmx1m 0000001000+00001753+00000+0001T   00001753+0000001435          1400 HR1112               2AZ
226042008226042018-000127     226042006001023380289MUG OCC STRAIGHT LOVE  0000001000+00001578+00000+0001T   00001753+0006471435          1400 HR1515               2AZ
226042009226042112-116038     226042006009681820246TCS CARRIER BAG MIDI   0000001000+00000035+00000+0001T   00000035+0000001435          1400 HR1090               2AZ
226043000226043               226043               170213JD     1400+00000+JD0000001227+0000001227+000000000+000000172+0000001390+0000000009+I20000000000+0000001390+Z
226043001226043077-000245     226043006001023759214GIFT-RIBBON METALLICx2 0000001000+00001227+00000+0001T   00001227+0000001435          1400 HR1112               2AZ
226044000226044               226044               170213JD     1400+00000+JD0000007937+0000007937+000000000+000001113+0000009050+0000000000+I40000009050+0000000000+Z
226044001226044106-001107     226044006003000467242WATER BOTTLE 1L RUBBER 0000001000+00002630+00000+0001T   00002630+0000001437          1400 HR1210               2AZ
226044002226044006-000166-D   226044006003000516490BALLOONS LRG 6PC RED   0000001000+00001314+00000+0001T   00001314+0000001437          1400 HR1131               2AZ
226044003226044080-000127     226044006003000424351VALENTINES DAY 36x24CM 0000001000+00002192+00000+0001T   00002192+0000001437          1400 HR1112               2AZ
226044004226044077-000299-A   226044006003000670888GIFT-BAG PAPER JMB LOVE0000001000+00001753+00000+0001T   00001753+0000001437          1400 HR1112               2AZ
226044005226044112-116069     226044006009681820277TCS CARRIER BAG JUMBO  0000001000+00000048+00000+0001T   00000048+0000001437          1400 HR1090               2AZ
226045000226045               226045               170213JD     1400+00000+JD0000001578+0000001578+000000000+000000221+0000001790+0000000009+I20000000000+0000001790+Z
226045001226045077-000315     226045006003000181186GIFT-BAG 20x28cm MATT  0000001000+00001578+00000+0001T   00001578+0000001439          1400 HR1112               2AZ
226046000226046               226046               170213JD     1400+00000+JD0000002192+0000002192+000000000+000000307+0000002490+0000000009+I20000000000+0000002490+Z
226046001226046046-000012-A   226046006003000208296BATTERIES H/POWER SZ:AA0000001000+00002192+00000+0001T   00002192+0000001440          1400 HR1312               2AZ
226047000226047               226047               170213JD     1400+00000+JD0000000876+0000000876+000000000+000000123+0000000990+0000000009+I20000000000+0000000990+Z
226047001226047078-000025     226047008887013700064SUPERGLUE 3g 1PCE CARD 0000001000+00000876+00000+0001T   00000876+0000001442          1400 HR1810               2AZ
226048000226048               226048               170213JD     1400+00000+JD0000001139+0000001139+000000000+000000160+0000001290+0000000009+I20000000000+0000001290+Z
226048001226048007-000302     226048006009635830000BOOK H/COVER A4 96-PAGE0000001000+00001139+00000+0001T   00001139+0000001447          1400 HR1130               2AZ
226049000226049               226049               170213JD     1400+00000+JD0000023986+0000023986+000000000+000003361+0000027347+0000000000+I40000027347+0000000000+Z
226049001226049002-001068     226049006001023812001DISP. BOTTLES PL H/H   0000001000+00001753+00000+0001T   00001753+0000001449          1400 HR1300               2AZ
226049002226049002-000652     226049006001023553188M/SPOON WDN 3PC H/HOUSE0000001000+00003069+00000+0001T   00003069+0000001449          1400 HR1300               2AZ
226049003226049024-000065     226049006001023770424SPATULA SILICONE 25CM  0000001000+00003946+00000+0001T   00003946+0000001449          1400 HR1300               2AZ
226049004226049566-000506     226049006001023671455TATTOO BODY STICKER    0000001000+00001578+00000+0001T   00001578+0000001449          1400 HR1130               2AZ
226049005226049200-000208     226049006003000293728BAKING ALUM FOIL 5PCE  0000001000+00002630+00000+0001T   00002630+0000001449          1400 HR1214               2AZ
226049006226049200-000200     226049006008766091144BAKING ALUM FOIL 2PCE  0000001000+00002192+00000+0001T   00002192+0000001449          1400 HR1214               2AZ
226049007226049009-001506     226049006001023696090MELAMINE TRAY 39x29cm  0000002000+00004385+00000+0001T   00004385+0000001449          1400 HR1210               2AZ
226049008226049112-116069     226049006009681820277TCS CARRIER BAG JUMBO  0000001000+00000048+00000+0001T   00000048+0000001449          1400 HR1090               2AZ
226050000226050               226050               170213JD     1400+00000+JD0000002227+0000002227+000000000+000000312+0000002530+0000000009+I20000000000+0000002530+Z
226050001226050080-000127     226050006003000424351VALENTINES DAY 36x24CM 0000001000+00002192+00000+0001T   00002192+0000001454          1400 HR1112               2AZ
226050002226050112-116038     226050006003000534906TCS CARRIER BAG MIDI   0000001000+00000035+00000+0001T   00000035+0000001454          1400 HR1090               2AZ
226051000226051               226051               170213JD     1400+00000+JD0000002665+0000002665+000000000+000000374+0000003030+0000000009+I20000000000+0000003030+Z
226051001226051206-000600     226051006003000631551TOILET PAPER SUDUKO    0000001000+00002630+00000+0001T   00002630+0000001501          1400 HR1321               2AZ
226051002226051112-116038     226051006009681820246TCS CARRIER BAG MIDI   0000001000+00000035+00000+0001T   00000035+0000001501          1400 HR1090               2AZ
226052000226052               226052               170213JD     1400+00000+JD0000001578+0000001578+000000000+000000221+0000001790+0000000009+I20000000000+0000001790+Z
226052001226052566-001234     226052006003000217793STICKERS LASER ASSTD   0000001000+00001578+00000+0001T   00001578+0000001512          1400 HR1130               2AZ
226053000226053               226053               170213JD     1400+00000+JD0000012057+0000012057+000000000+000001691+0000013740+0000000008+I20000000000+0000013740+Z
226053001226053072-020346     226053006003000453047PET DRY TOWEL M/FIBRE  0000001000+00004385+00000+0001T   00004385+0000001550          1400 HR1870               2AZ
226053002226053105-001005     226053006001023858214CONTAINERS MINI 6PCE   0000001000+00001402+00000+0001T   00001402+0000001550          1400 HR1210               2AZ
226053003226053105-000750     226053006003000190270CONTAINERS 4xMINI 150ml0000001000+00001402+00000+0001T   00001402+0000001550          1400 HR1210               2AZ
226053004226053080-000127     226053006003000424351VALENTINES DAY 36x24CM 0000001000+00002192+00000+0001T   00002192+0000001550          1400 HR1112               2AZ
226053005226053108-001225     226053006003000010240SALAD BOWL MINI 380ML  0000003000+00000876+00000+0001T   00000876+0000001550          1400 HR1210               2AZ
226053006226053112-116069     226053006009681820277TCS CARRIER BAG JUMBO  0000001000+00000048+00000+0001T   00000048+0000001550          1400 HR1090               2AZ
226054000226054               226054               170213JD     1400+00000+JD0000010693+0000010693+000000000+000001499+0000012192+0000000000+I40000012192+0000000000+Z
226054001226054028-000030     226054006001023810908COOLER-BAG 6PACK       0000001000+00004385+00000+0001T   00004385+0000001553          1400 HR1305               2AZ
226054002226054903-003080     226054005907029004673SWT SNACK STIX CHOC 50g0000003000+00000876+00000+0001T   00000876+0000001553          1400 HR1150               2AZ
226054003226054903-004950     226054006002580020304SWT APRICOT SURPRISE   0000001000+00001314+00000+0001T   00001314+0000001553          1400 HR1150               2AZ
226054004226054903-000499     226054006001704012492SWT CHOC MALLOWS 50g   0000001000+00001227+00000+0001T   00001227+0000001553          1400 HR1150               2AZ
226054005226054903-000087     226054006001704000161SWT SPECKLED-EGGS 50G  0000001000+00001139+00000+0001T   00001139+0000001553          1400 HR1150               2AZ
226055000226055               226055               170213JD     1400+00000+JD0000004819+0000004819+000000000+000000676+0000005490+0000000005+I20000000000+0000005490+Z
226055001226055903-003080     226055005907029004673SWT SNACK STIX CHOC 50g0000002000+00000876+00000+0001T   00000876+0000001554          1400 HR1150               2AZ
226055002226055903-005007     226055006002580020311SWT MALLOW BEAR M/SHAKE0000001000+00001314+00000+0001T   00001314+0000001554          1400 HR1150               2AZ
226055003226055002-000804     226055006003000271306PEELER VEGETABLE H/HOUS0000001000+00001753+00000+0001T   00002630+0008121554          1400 HR1300               2AZ
226056000226056               226056               170213JD     1400+00000+JD0000001753+0000001753+000000000+000000246+0000001990+0000000009+I20000000000+0000001990+Z
226056001226056078-000470     226056006007347000018SHOE-CEMENT 70ml-TIN   0000001000+00001753+00000+0001T   00001753+0000001556          1400 HR1810               2AZ
226057000226057               226057               170213JD     1400+00000+JD0000005260+0000005260+000000000+000000737+0000005997+0000000000+I40000005997+0000000000+Z
226057001226057366-006104     226057006003000616930DRESS UP FACE PAINT    0000001000+00001753+00000+0001T   00001753+0000001559          1400 HR1131               2AZ
226057002226057567-011313     226057009780799358827DIERESTORIES AFR ASSTD 0000001000+00003507+00000+0001T   00003507+0000001559          1400 HR1757               2AZ
226058000226058               226058               170213JD     1400+00000+JD0000000876+0000000876+000000000+000000123+0000000990+0000000009+I20000000000+0000000990+Z
226058001226058366-007916     226058006001023419309MASK PL CHARACTER ASS  0000001000+00000876+00000+0001T   00000876+0000001559          1400 HR1131               2AZ
226059000226059               226059               170213JD     1400+00000+JD0000000876+0000000876+000000000+000000123+0000000990+0000000009+I20000000000+0000000990+Z
226059001226059366-007916     226059006001023419309MASK PL CHARACTER ASS  0000001000+00000876+00000+0001T   00000876+0000001559          1400 HR1131               2AZ
226060000226060               226060               170213JD     1400+00000+JD0000011136+0000011136+000000000+000001560+0000012696+0000000000+I40000012696+0000000000+Z
226060001226060077-000299     226060006003000395576G/BAG 32x25cm LRG LOVE 0000001000+00001490+00000+0001T   00001490+0000001618          1400 HR1112               2AZ
226060002226060031-000002-A   226060006003000247103P/FRAME LOVE 7.5X7.5CM 0000001000+00003507+00000+0001T   00003507+0000001618          1400 HR1510               2AZ
226060003226060018-050000     226060006003000412679MUG OCC LOVE TWIN BEAR 0000001000+00006139+00000+0001T   00006139+0000001618          1400 HR1515               2AZ
226061000226061               226061               170213JD     1400+00000+JD0000006576+0000006576+000000000+000000922+0000007498+0000000000+I40000007498+0000000000+Z
226061001226061301-000013     226061006001023781604ORN SENTIMENT STONE 4-A0000001000+00006139+00000+0001T   00006139+0000001643          1400 HR1505               2AZ
226061002226061080-000133-A   226061006003000647019MINI VALENTINES CARD   0000001000+00000437+00000+0001T   00000437+0000001643          1400 HR1112               2AZ
226062000226062               226062               170213JD     1400+00000+JD0000018417+0000018417+000000000+000002580+0000020997+0000000000+I40000020997+0000000000+Z
226062001226062031-007003     226062006003000462834P/FRAME WDN DIST. COLL.0000001000+00014911+00000+0001T   00014911+0000001721          1400 HR1510               2AZ
226062002226062077-000457     226062006003000285662G/BAG METALLIC JMB SOL 0000001000+00001753+00000+0001T   00001753+0000001721          1400 HR1112               2AZ
226062003226062080-000108     226062006003000237210CARD&ENVLPE BDAY-BOY   0000001000+00001753+00000+0001T   00001753+0000001721          1400 HR1112               2AZ
226063000226063               226063               170213JD     1400+00000+JD0000006139+0000006139+000000000+000000860+0000006990+0000000009+I20000000000+0000006990+Z
226063001226063368-000265     226063006001023750914PLUSH BEAR 23CM ASSTD C0000001000+00006139+00000+0001T   00006139+0000001722          1400 HR1745               2AZ
226064000226064               226064               170213JD     1400+00000+JD0000005085+0000005085+000000000+000000712+0000005797+0000000000+I40000005797+0000000000+Z
226064001226064018-005009     226064006001023725608MUG W/PLUSH-BEAR LOVE  0000001000+00003507+00000+0001T   00003507+0000001726          1400 HR1515               2AZ
226064002226064077-000303     226064006001023593757GIFT-BAG PAPER MED     0000001000+00001578+00000+0001T   00001578+0000001726          1400 HR1112               2AZ
226065000226065               226065               170213JD     1400+00000+JD0000019119+0000019119+000000000+000002677+0000021796+0000000000+I40000021796+0000000000+Z
226065001226065564-000012     226065006001023130075BUBBLE BOTTLE MAGIC    0000001000+00000700+00000+0001T   00000700+0000001729          1400 HR1131               2AZ
226065002226065028-002102     226065006002580009514TABLE KIDDIES          0000001000+00014034+00000+0001T   00014034+0000001729          1400 HR1305               2AZ
226065003226065051-500104     226065006003000399680GARDEN KIDS RAKE ASSTD 0000001000+00004385+00000+0001T   00004385+0000001729          1400 HR1820               2AZ
A17021300                                          09344900JDSLAVE 2                       HR13IC
A17021301                                          11543013JDSLAVE 2                       HR13IC
A17021302                                          11564497JDSLAVE 2                       HR13IC
A17021303                                          16002051JDSLAVE 2                       HR13IC
M17021301                              IT          JDLAST SLIP NO FOR SLAVE 2226065                  THANKS
M17021391                              CASH        JDSLAVE 2                       Z-REPORT No.   593TOTAL (Sales - Refunds)           7716.62       CASH TO BE BANKED                 2530.30       DEBIT CARDS                          0.00       CREDIT CARDS                      5186.32       Z-READING                         7716.62       AIRTIME DEBIT CARD SALES             0.00       AIRTIME CARD SALES                   0.00       OVERS/UNDERS                         0.00       AIRTIME CASH SALES                   0.00       GIFT CARDS                           0.00       GIFT CARD CASH SALES                 0.00       T O T A L  CASH PAYOUTS              0.00                                                                                                                                                                                                                                                                                                                                                      Z
M17021392                              CASH        JDABSENT                                                                                                                                                                                          ANNUAL LEAVE                                                                                                                                                                                    DAY OFF                                                                                                                                                                                         COMMENTS                                                                                                                                                                                                                                                                                                                                                                                       Z
Y17021300                                          JD00000000698075+000075
ZJD17021319523 SLAVE 2      SALES DATA                     NEXT INVOICE NO.  226066 0593
X JD Slave 2 First invoice 225991 170213 Last invoice 226065 170213 Next invoice 226066 Total number of records 000000344 clbackup completed 19:52:58
