124621000124621               124621               170213JE     1400+00000+JE0000001181+0000001181+000000000+000000167+0000001340+0000000008+I20000000000+0000001340+Z
124621001124621903-000183     124621006003000451043SWT LB HEART LOLLY     0000001000+00000393+00000+0001T   00000393+0000001002          1400 UH4150               2AZ
124621002124621903-000200     124621006009826020234SWT CHOC RP CHOCO 23G  0000001000+00000788+00000+0001T   00000788+0000001002          1400 UH4150               2AZ
124622000124622               124622               170213JE     1400+00000+JE0000003242+0000003242+000000000+000000455+0000003690+0000000007+I20000000000+0000003690+Z
124622001124622077-000011-D   124622006001023808554TISSUE-WRAP WHITE 10PCE0000001000+00000876+00000+0001T   00000876+0000001019          1400 UH4112               2AZ
124622002124622077-000351     124622006003000139033GIFT-BAG 18X23CM E/D P 0000001000+00001753+00000+0001T   00001753+0000001019          1400 UH4112               2AZ
124622003124622077-000321     124622006001023677501GIFT-BAG 11X14CM E/D FL0000001000+00000613+00000+0001T   00000613+0000001019          1400 UH4112               2AZ
124623000124623               124623               170213JE     1400+00000+JE0000001753+0000001753+000000000+000000246+0000001990+0000000009+I20000000000+0000001990+Z
124623001124623016-006509     124623006003000567355S/JAR GLS MINI LABEL   0000001000+00001753+00000+0001T   00002192+0008191054          1400 UH4300               2AZ
124624000124624               124624               170213JE     1400+00000+JE0000002628+0000002628+000000000+000000369+0000002997+0000000000+I40000002997+0000000000+Z
124624001124624077-000314     124624006003000181148GIFT-BAG 11X14CM MATT  0000003000+00000876+00000+0001T   00000876+0000001114          1400 UH4112               2AZ
124625000124625               124625               170213JE     1400+00000+JE0000004907+0000004907+000000000+000000689+0000005596+0000000000+I40000005596+0000000000+Z
124625001124625071-081112     124625006936198404945CORRECTION TAPE 10mx5mm0000001000+00001753+00000+0001T   00001753+0000001117          1400 UH4130               2AZ
124625002124625079-013032-C   124625006003000389520POLY SHAPES            0000001000+00001578+00000+0001T   00001578+0000001117          1400 UH4130               2AZ
124625003124625903-000200     124625006009826020234SWT CHOC RP CHOCO 23G  0000002000+00000788+00000+0001T   00000788+0000001117          1400 UH4150               2AZ
124626000124626               124626               170213JE     1400+00000+JE0000042135+0000042135+000000000+000005902+0000048037+0000000000+I40000048037+0000000000+Z
124626001124626112-116069     124626006009681820277TCS CARRIER BAG JUMBO  0000001000+00000048+00000+0001T   00000048+0000001123          1400 UH4090               2AZ
124626002124626065-006040     124626006003000118984BELL WDN HANDLE 19cm   0000004000+00003507+00000+0001T   00003507+0000001123          1400 UH4745               2AZ
124626003124626065-006041     124626006001023712974TAMBOURINE 15cm P/BAND 0000004000+00001753+00000+0001T   00001753+0000001123          1400 UH4745               2AZ
124626004124626065-006076     124626006003000466863WOODEN 2PC MARACAS 19cm0000004000+00004385+00000+0001T   00004385+0000001123          1400 UH4745               2AZ
124626005124626065-006040     124626006003000118984BELL WDN HANDLE 19cm   0000001000+00003507+00000+0001T   00003507+0000001123          1400 UH4745               2AZ
124627000124627               124627               170213JE     1400+00000+JE0000001490+0000001490+000000000+000000209+0000001690+0000000009+I20000000000+0000001690+Z
124627001124627071-005214     124627006003000152544CELLOTAPE SUPER REFILL 0000001000+00001490+00000+0001T   00001490+0000001124          1400 UH4130               2AZ
124628000124628               124628               170213JE     1400+00000+JE0000020960+0000020960+000000000+000002936+0000023896+0000000000+I40000023896+0000000000+Z
124628001124628369-004006     124628006001023826664BABY PLAY-GYM          0000001000+00017542+00000+0001T   00017542+0000001133          1400 UH4745               2AZ
124628002124628903-000200     124628006009826020234SWT CHOC RP CHOCO 23G  0000001000+00000788+00000+0001T   00000788+0000001133          1400 UH4150               2AZ
124628003124628304-000720     124628006001023843050F/BUNCH ROSE 6-HEAD AST0000001000+00002630+00000+0001T   00002630+0000001133          1400 UH4510               2AZ
124629000124629               124629               170213JE     1400+00000+JE0000028944+0000028944+000000000+000004054+0000032998+0000000000+I40000032998+0000000000+Z
124629001124629562-088354     124629006001023735980EVA MAT 26PC 30x30cm   0000001000+00016665+00000+0001T   00016665+0000001135          1400 UH4755               2AZ
124629002124629562-088357     124629006001023873392EVA CARPET 56x56x0.9cm 0000001000+00012279+00000+0001T   00012279+0000001135          1400 UH4755               2AZ
124630000124630               124630               170213JE     1400+00000+JE0000001313+0000001313+000000000+000000185+0000001490+0000000008+I20000000000+0000001490+Z
124630001124630077-000150-D   124630006003000054343GIFT-WRAP CELLPHANE CLR0000001000+00000876+00000+0001T   00000876+0000001210          1400 UH4112               2AZ
124630002124630080-000133-A   124630006003000647019MINI VALENTINES CARD   0000001000+00000437+00000+0001T   00000437+0000001210          1400 UH4112               2AZ
124631000124631               124631               170213JE     1400+00000+JE0000011067+0000011067+000000000+000001559+0000012626+0000000000+I40000012626+0000000000+Z
124631001124631903-000200     124631006009826020234SWT CHOC RP CHOCO 23G  0000014000+00000788+00000+0001T   00000788+0000001227          1400 UH4150               2AZ
124631002124631112-116038     124631006009681820246TCS CARRIER BAG MIDI   0000001000+00000035+00000+0001T   00000035+0000001227          1400 UH4090               2AZ
124632000124632               124632               170213JE     1400+00000+JE0000020034+0000020034+000000000+000002809+0000022843+0000000000+I40000022843+0000000000+Z
124632001124632077-000290     124632006001023902023GIFT BOX 26x32x13cm    0000001000+00001753+00000+0001T   00001753+0000001235          1400 UH4112               2AZ
124632002124632018-019000     124632006003000557288MUG OCC. LOVE JUMBO    0000001000+00005262+00000+0001T   00005262+0000001235          1400 UH4515               2AZ
124632003124632903-000295     124632006001704002899SWT MS FRUITY RASCALS  0000001000+00000876+00000+0001T   00000876+0000001235          1400 UH4150               2AZ
124632004124632080-000133-A   124632006003000647019MINI VALENTINES CARD   0000001000+00000437+00000+0001T   00000437+0000001235          1400 UH4112               2AZ
124632005124632565-000041     124632006008766115642NOVELTY BALL ICON 5.5cm0000001000+00002630+00000+0001T   00002630+0000001235          1400 UH4745               2AZ
124632006124632077-000011-C   124632006001023808523TISSUE 10xSHTS RED     0000001000+00000876+00000+0001T   00000876+0000001235          1400 UH4112               2AZ
124632007124632903-000194     124632006009826020616SWT CHOC RP LOLLY 25G  0000001000+00001314+00000+0001T   00001314+0000001235          1400 UH4150               2AZ
124632008124632007-000537     124632000651728791017NOTE-PAD RND SMILE-FACE0000001000+00000700+00000+0001T   00000700+0000001235          1400 UH4130               2AZ
124632009124632006-000190     124632006003000685530BALLOONS LOVE 81x91cm  0000001000+00004385+00000+0001T   00004385+0000001235          1400 UH4131               2AZ
124632010124632089-000030     124632006003000575671K/CHAIN LOVE MTL ASSTD 0000001000+00001753+00000+0001T   00001753+0000001235          1400 UH4205               2AZ
124632011124632112-116069     124632006009681820277TCS CARRIER BAG JUMBO  0000001000+00000048+00000+0001T   00000048+0000001235          1400 UH4090               2AZ
124633000124633               124633               170213JE     1400+00000+JE0000011838+0000011838+000000000+000001658+0000013496+0000000000+I40000013496+0000000000+Z
124633001124633046-000012     124633006904708013062BATTERIES AA  CARD-OF-40000001000+00001314+00000+0001T   00001314+0000001248          1400 UH4312               2AZ
124633002124633486-001012     124633006001023820907CLOCK ALARM SQR 10X12CM0000001000+00004385+00000+0001T   00004385+0000001248          1400 UH4510               2AZ
124633003124633084-000369     124633006003000594467NAIL MANICURE SET 6PCE 0000001000+00006139+00000+0001T   00006139+0000001248          1400 UH4200               2AZ
124634000124634               124634               170213JE     1400+00000+JE0000001753+0000001753+000000000+000000246+0000001990+0000000009+I20000000000+0000001990+Z
124634001124634200-003026     124634006003000276448REFUSE BAGS 10PCE GREEN0000001000+00001753+00000+0001T   00001753+0000001258          1400 UH4214               2AZ
124635000124635               124635               170213JE     1400+00000+JE0000001578+0000001578+000000000+000000221+0000001790+0000000009+I20000000000+0000001790+Z
124635001124635080-000124     124635006003000297733CARD & ENV VALENTINES  0000001000+00001578+00000+0001T   00001578+0000001341          1400 UH4112               2AZ
124636000124636               124636               170213JE     1400+00000+JE0000007013+0000007013+000000000+000000983+0000007996+0000000000+I40000007996+0000000000+Z
124636001124636065-000239     124636006001023400956DRUM "BUM BUM BAND"19cm0000001000+00003507+00000+0001T   00003507+0000001346          1400 UH4745               2AZ
124636002124636065-006041     124636006001023712974TAMBOURINE 15cm P/BAND 0000001000+00001753+00000+0001T   00001753+0000001346          1400 UH4745               2AZ
124636003124636065-006042     124636006001023712998MARACAS 2PCE CHA-CHA   0000001000+00001753+00000+0001T   00001753+0000001346          1400 UH4745               2AZ
124637000124637               124637               170213JE     1400+00000+JE0000020214+0000020214+000000000+000002834+0000023048+0000000000+I40000023048+0000000000+Z
124637001124637112-116069     124637006009681820277TCS CARRIER BAG JUMBO  0000001000+00000048+00000+0001T   00000048+0000001505          1400 UH4090               2AZ
124637002124637368-000049     124637006003000536955PLUSH BEAR 15cm LOVE   0000001000+00004385+00000+0001T   00004385+0000001505          1400 UH4745               2AZ
124637003124637006-000800     124637006001023902801HAT CABARET 14x18cm    0000002000+00001753+00000+0001T   00001753+0000001505          1400 UH4131               2AZ
124637004124637006-006013     124637006001023735195PARTY-SPRAY STRING     0000001000+00002630+00000+0001T   00002630+0000001505          1400 UH4131               2AZ
124637005124637366-000282     124637006003000611027DRESS UP SLEEVE TATTOO 0000001000+00001753+00000+0001T   00001753+0000001505          1400 UH4131               2AZ
124637006124637565-000040     124637006008766115635NOVELTY ICON BEANIE    0000001000+00002630+00000+0001T   00002630+0000001505          1400 UH4745               2AZ
124637007124637366-002195     124637006001023990549DRESS UP WINGS FEATHER 0000001000+00005262+00000+0001T   00005262+0000001505          1400 UH4131               2AZ
124638000124638               124638               170213JE     1400+00000+JE0000014813+0000014813+000000000+000002078+0000016890+0000000001+I20000000000+0000016890+Z
124638001124638077-000309     124638006001023608604GIFT-BAG 25X32CM GLOSS 0000001000+00001753+00000+0001T   00001753+0000001507          1400 UH4112               2AZ
124638002124638018-000136     124638006001023659026MUG OCC LOVE W/PLUSH   0000001000+00003507+00000+0001T   00003507+0000001507          1400 UH4515               2AZ
124638003124638002-021042     124638006001023621801TOOTHPICKS 250PCE      0000001000+00001227+00000+0001T   00001227+0000001507          1400 UH4300               2AZ
124638004124638039-081008     124638006008766081008CANDLES 9PCE SCENTED   0000002000+00002630+00000+0001T   00002630+0000001507          1400 UH4510               2AZ
124638005124638077-000011-C   124638006001023808523TISSUE 10xSHTS RED     0000001000+00000876+00000+0001T   00000876+0000001507          1400 UH4112               2AZ
124638006124638071-003011     124638006001023762825PEN STICKBALL X10 ASSTD0000001000+00001753+00000+0001T   00001753+0000001507          1400 UH4130               2AZ
124638007124638080-000133-A   124638006003000647019MINI VALENTINES CARD   0000001000+00000437+00000+0001T   00000437+0000001507          1400 UH4112               2AZ
124639000124639               124639               170213JE     1400+00000+JE0000001753+0000001753+000000000+000000246+0000001990+0000000009+I20000000000+0000001990+Z
124639001124639077-000116     124639006003000240777GIFT-WRAP 700mmx2m COL 0000001000+00001753+00000+0001T   00001753+0000001508          1400 UH4112               2AZ
124640000124640               124640               170213JE     1400+00000+JE0000008379+0000008379+000000000+000001174+0000009550+0000000003+I20000000000+0000009550+Z
124640001124640018-005007     124640006003000515516MUG OCC. LOVE W/HEARTS 0000001000+00006139+00000+0001T   00006139+0000001509          1400 UH4515               2AZ
124640002124640080-000127     124640006003000424351VALENTINES DAY 36x24CM 0000001000+00002192+00000+0001T   00002192+0000001509          1400 UH4112               2AZ
124640003124640112-116069     124640006009681820277TCS CARRIER BAG JUMBO  0000001000+00000048+00000+0001T   00000048+0000001509          1400 UH4090               2AZ
124641000124641               124641               170213JE     1400+00000+JE0000002192+0000002192+000000000+000000307+0000002490+0000000009+I20000000000+0000002490+Z
124641001124641080-000127     124641006003000424351VALENTINES DAY 36x24CM 0000001000+00002192+00000+0001T   00002192+0000001512          1400 UH4112               2AZ
124642000124642               124642               170213JE     1400+00000+JE0000005734+0000005734+000000000+000000803+0000006530+0000000007+I20000000000+0000006530+Z
124642001124642112-116038     124642006009681820246TCS CARRIER BAG MIDI   0000001000+00000035+00000+0001T   00000035+0000001514          1400 UH4090               2AZ
124642002124642077-000310     124642006001023608635GIFT-BAG 18X23CM GLOSS 0000001000+00001314+00000+0001T   00001314+0000001514          1400 UH4112               2AZ
124642003124642018-030000     124642006003000421060MUG OCCASIONS LOVE 2PCE0000001000+00004385+00000+0001T   00004385+0000001514          1400 UH4515               2AZ
124643000124643               124643               170213JE     1400+00000+JE0000002192+0000002192+000000000+000000307+0000002490+0000000009+I20000000000+0000002490+Z
124643001124643080-000127     124643006003000424351VALENTINES DAY 36x24CM 0000001000+00002192+00000+0001T   00002192+0000001518          1400 UH4112               2AZ
124644000124644               124644               170213JE     1400+00000+JE0000004208+0000004208+000000000+000000590+0000004798+0000000000+I40000004798+0000000000+Z
124644001124644903-000090     124644006009826020821SWT GS CHOCO COINS 60g 0000002000+00002104+00000+0001T   00002104+0000001525          1400 UH4150               2AZ
124645000124645               124645               170213JE     1400+00000+JE0000003087+0000003087+000000000+000000439+0000003526+0000000000+I40000003526+0000000000+Z
124645001124645903-000670     124645006009803358008SWT SHERBET RED LIPS   0000014000+00000218+00000+0001T   00000218+0000001528          1400 UH4150               2AZ
124645002124645112-116038     124645006009681820246TCS CARRIER BAG MIDI   0000001000+00000035+00000+0001T   00000035+0000001528          1400 UH4090               2AZ
124646000124646               124646               170213JE     1400+00000+JE0000012748+0000012748+000000000+000001787+0000014530+0000000005+I20000000000+0000014530+Z
124646001124646039-000100     12464600600300060614625CM WHITE CANDLE 6PC  0000002000+00002630+00000+0001T   00002630+0000001533          1400 UH4510               2AZ
124646002124646039-082103     124646006001023845788CANDLE FLOATING 6PC    0000001000+00004385+00000+0001T   00004385+0000001533          1400 UH4510               2AZ
124646003124646566-000359     124646006003000582709STICKER BOOK LOVE SPARK0000001000+00002192+00000+0001T   00002192+0000001533          1400 UH4130               2AZ
124646004124646112-116038     124646006009681820246TCS CARRIER BAG MIDI   0000001000+00000035+00000+0001T   00000035+0000001533          1400 UH4090               2AZ
124646005124646903-000123     124646006925925909280SWEET GS MINI MALLOWS  0000001000+00000876+00000+0001T   00000876+0000001533          1400 UH4150               2AZ
124647000124647               124647               170213JE     1400+00000+JE0000003592+0000003592+000000000+000000504+0000004090+0000000006+I20000000000+0000004090+Z
124647001124647304-001204     124647006001023737984FLOWER OCC. TEDDY/ROSES0000001000+00001402+00000+0001T   00001490+0006471536          1400 UH4510               2AZ
124647002124647077-000384     124647006003000275243G/BAG HOT STMP 18x23CM 0000001000+00001490+00000+0001T   00001490+0000001536          1400 UH4112               2AZ
124647003124647903-000126     124647006002099003591SWT ZILLIONS MINT 50G  0000001000+00000700+00000+0001T   00000700+0000001536          1400 UH4150               2AZ
124648000124648               124648               170213JE     1400+00000+JE0000006171+0000006171+000000000+000000865+0000007030+0000000006+I20000000000+0000007030+Z
124648001124648077-000011-C   124648006001023808523TISSUE 10xSHTS RED     0000001000+00000876+00000+0001T   00000876+0000001538          1400 UH4112               2AZ
124648002124648018-000136     124648006001023659026MUG OCC LOVE W/PLUSH   0000001000+00003507+00000+0001T   00003507+0000001538          1400 UH4515               2AZ
124648003124648077-000382     124648006003000247820GIFT-BAG MED 18X23CM   0000001000+00001753+00000+0001T   00001753+0000001538          1400 UH4112               2AZ
124648004124648112-116038     124648006009681820246TCS CARRIER BAG MIDI   0000001000+00000035+00000+0001T   00000035+0000001538          1400 UH4090               2AZ
124649000124649               124649               170213JE     1400+00000+JE0000004383+0000004383+000000000+000000615+0000004998+0000000000+I40000004998+0000000000+Z
124649001124649079-003015     124649006003000634071PAINT ACRYLIC 75ml GOLD0000001000+00002630+00000+0001T   00002630+0000001548          1400 UH4130               2AZ
124649002124649079-003007     124649006003000448487A/TUBE 75ML BROWN      0000001000+00001753+00000+0001T   00001753+0000001548          1400 UH4130               2AZ
124650000124650               124650               170213JE     1400+00000+JE0000004385+0000004385+000000000+000000614+0000004990+0000000009+I20000000000+0000004990+Z
124650001124650368-000049     124650006003000536955PLUSH BEAR 15cm LOVE   0000001000+00004385+00000+0001T   00004385+0000001555          1400 UH4745               2AZ
124651000124651               124651               170213JE     1400+00000+JE0000003507+0000003507+000000000+000000491+0000003990+0000000008+I20000000000+0000003990+Z
124651001124651562-000051     124651006003000308798EDU EXCAVATION KIT ASST0000001000+00003507+00000+0001T   00003507+0000001558          1400 UH4755               2AZ
124652000124652               124652               170213JE     1400+00000+JE0000017445+0000017445+000000000+000002445+0000019890+0000000000+I20000000000+0000019890+Z
124652001124652077-000309     124652006001023608604GIFT-BAG 25X32CM GLOSS 0000001000+00001753+00000+0001T   00001753+0000001605          1400 UH4112               2AZ
124652002124652088-000008     124652006003000623181AIR FRESHENER GEL ASSTD0000001000+00002630+00000+0001T   00002630+0000001605          1400 UH4212               2AZ
124652003124652368-000049     124652006003000536955PLUSH BEAR 15cm LOVE   0000001000+00004385+00000+0001T   00004385+0000001605          1400 UH4745               2AZ
124652004124652089-000030     124652006003000575671K/CHAIN LOVE MTL ASSTD 0000001000+00001753+00000+0001T   00001753+0000001605          1400 UH4205               2AZ
124652005124652089-001021     124652006003000112319KEY CHAIN MINI BIBLE   0000001000+00001490+00000+0001T   00001490+0000001605          1400 UH4205               2AZ
124652006124652903-000519     124652006001704012805SWT MS LIQ-O-GHETTI    0000001000+00001227+00000+0001T   00001227+0000001605          1400 UH4150               2AZ
124652007124652031-000844     124652006001023851789P/FRAME WDN WORDS 2ASS 0000001000+00003507+00000+0001T   00003507+0000001605          1400 UH4510               2AZ
124652008124652903-000121     124652006002099001689SWT GS ZILLIONS SOURS  0000001000+00000700+00000+0001T   00000700+0000001605          1400 UH4150               2AZ
124653000124653               124653               170213JE     1400+00000+JE0000007716+0000007716+000000000+000001081+0000008790+0000000007+I20000000000+0000008790+Z
124653001124653077-000289     124653006001023901996GIFT BOX 20x25x11cm    0000001000+00001753+00000+0001T   00001753+0000001606          1400 UH4112               2AZ
124653002124653368-000049     124653006003000536955PLUSH BEAR 15cm LOVE   0000001000+00004385+00000+0001T   00004385+0000001606          1400 UH4745               2AZ
124653003124653018-000127     124653006001023380289MUG OCC STRAIGHT LOVE  0000001000+00001578+00000+0001T   00001753+0006471606          1400 UH4515               2AZ
124654000124654               124654               170213JE     1400+00000+JE0000003856+0000003856+000000000+000000541+0000004397+0000000000+I40000004397+0000000000+Z
124654001124654200-003026     124654006003000276448REFUSE BAGS 10PCE GREEN0000001000+00001753+00000+0001T   00001753+0000001607          1400 UH4214               2AZ
124654002124654903-000517     124654006001704012768SWT STRAWS FIZZY CHERRY0000001000+00001227+00000+0001T   00001227+0000001607          1400 UH4150               2AZ
124654003124654903-000295     124654006001704002899SWT MS FRUITY RASCALS  0000001000+00000876+00000+0001T   00000876+0000001607          1400 UH4150               2AZ
124655000124655               124655               170213JE     1400+00000+JE0000009206+0000009206+000000000+000001290+0000010496+0000000000+I40000010496+0000000000+Z
124655001124655369-001137-A   124655006003000097487BABY BATH VINYL THEMED 0000001000+00001314+00000+0001T   00001314+0000001609          1400 UH4745               2AZ
124655002124655903-000624     124655006003000671793SWEET LOLLY BLU/BRRY   0000001000+00001753+00000+0001T   00001753+0000001609          1400 UH4150               2AZ
124655003124655560-000229     124655006003000469468ANIMALS BIG EYES ASSTD 0000001000+00006139+00000+0001T   00006139+0000001609          1400 UH4745               2AZ
124656000124656               124656               170213JE     1400+00000+JE0000020291+0000020291+000000000+000002843+0000023134+0000000000+I40000023134+0000000000+Z
124656001124656304-001116     124656006003000426164F/BUNCH ROSES 12-HEAD  0000001000+00005262+00000+0001T   00005262+0000001612          1400 UH4510               2AZ
124656002124656304-000717     124656006001023712578FLWRS STAR 51CM     (F)0000003000+00001490+00000+0001T   00001490+0000001612          1400 UH4510               2AZ
124656003124656304-001116     124656006003000426164F/BUNCH ROSES 12-HEAD  0000002000+00005262+00000+0001T   00005262+0000001612          1400 UH4510               2AZ
124656004124656112-116038     124656006009681820246TCS CARRIER BAG MIDI   0000001000+00000035+00000+0001T   00000035+0000001612          1400 UH4090               2AZ
124657000124657               124657               170213JE     1400+00000+JE0000006576+0000006576+000000000+000000922+0000007490+0000000008+I20000000000+0000007490+Z
124657001124657368-000175     124657006003000270316PLUSH BEAR 4 ASSTD 18CM0000001000+00006139+00000+0001T   00006139+0000001613          1400 UH4745               2AZ
124657002124657080-000133-A   124657006003000647019MINI VALENTINES CARD   0000001000+00000437+00000+0001T   00000437+0000001613          1400 UH4112               2AZ
124658000124658               124658               170213JE     1400+00000+JE0000006577+0000006577+000000000+000000921+0000007490+0000000008+I20000000000+0000007490+Z
124658001124658018-030000     124658006003000421060MUG OCCASIONS LOVE 2PCE0000001000+00004385+00000+0001T   00004385+0000001614          1400 UH4515               2AZ
124658002124658077-000918     124658006003000413690G/WRAP 700mmx2m PATTERN0000001000+00002192+00000+0001T   00002192+0000001614          1400 UH4112               2AZ
124659000124659               124659               170213JE     1400+00000+JE0000004384+0000004384+000000000+000000614+0000004998+0000000000+I40000004998+0000000000+Z
124659001124659080-000127     124659006003000424351VALENTINES DAY 36x24CM 0000002000+00002192+00000+0001T   00002192+0000001645          1400 UH4112               2AZ
124660000124660               124660               170213JE     1400+00000+JE0000010117+0000010117+000000000+000001419+0000011536+0000000000+I40000011536+0000000000+Z
124660001124660112-116038     124660006009681820246TCS CARRIER BAG MIDI   0000001000+00000035+00000+0001T   00000035+0000001653          1400 UH4090               2AZ
124660002124660080-000133-A   124660006003000647019MINI VALENTINES CARD   0000001000+00000437+00000+0001T   00000437+0000001653          1400 UH4112               2AZ
124660003124660077-000471     124660006003000330096G-BAG DESGN MED 18X23CM0000001000+00001753+00000+0001T   00001753+0000001653          1400 UH4112               2AZ
124660004124660903-000619     124660006003000672455SWT LOLLY STR/BRRY 140G0000001000+00001753+00000+0001T   00001753+0000001653          1400 UH4150               2AZ
124660005124660368-000175     124660006003000270316PLUSH BEAR 4 ASSTD 18CM0000001000+00006139+00000+0001T   00006139+0000001653          1400 UH4745               2AZ
124661000124661               124661               170213JE     1400+00000+JE0000007486+0000007486+000000000+000001049+0000008535+0000000000+I40000008535+0000000000+Z
124661001124661018-000136     124661006001023659026MUG OCC LOVE W/PLUSH   0000001000+00003507+00000+0001T   00003507+0000001656          1400 UH4515               2AZ
124661002124661089-000200     124661006003000485840KEY CHAIN POLY LOVE IS 0000001000+00003507+00000+0001T   00004385+0008121656          1400 UH4205               2AZ
124661003124661080-000133     124661006003000535613CARD&ENV MINI ASTD DSGN0000001000+00000437+00000+0001T   00000437+0000001656          1400 UH4112               2AZ
124661004124661112-116038     124661006009681820246TCS CARRIER BAG MIDI   0000001000+00000035+00000+0001T   00000035+0000001656          1400 UH4090               2AZ
124662000124662               124662               170213JE     1400+00000+JE0000004856+0000004856+000000000+000000680+0000005530+0000000006+I20000000000+0000005530+Z
124662001124662077-000407     124662006003000145096G/BAG PP 19X26X8CM     0000001000+00001314+00000+0001T   00001314+0000001657          1400 UH4112               2AZ
124662002124662018-005009     124662006001023725608MUG W/PLUSH-BEAR LOVE  0000001000+00003507+00000+0001T   00003507+0000001657          1400 UH4515               2AZ
124662003124662112-116038     124662006009681820246TCS CARRIER BAG MIDI   0000001000+00000035+00000+0001T   00000035+0000001657          1400 UH4090               2AZ
124663000124663               124663               170213JE     1400+00000+JE0000005699+0000005699+000000000+000000798+0000006497+0000000000+I40000006497+0000000000+Z
124663001124663080-000127     124663006003000424351VALENTINES DAY 36x24CM 0000001000+00002192+00000+0001T   00002192+0000001714          1400 UH4112               2AZ
124663002124663301-085004     124663006003000420469ORN LOVE PLAQUE 21X10CM0000001000+00003507+00000+0001T   00003946+0006471714          1400 UH4505               2AZ
124664000124664               124664               170213JE     1400+00000+JE0000001227+0000001227+000000000+000000172+0000001399+0000000000+I40000001399+0000000000+Z
124664001124664206-000630     124664006003000631919SPECTACLE CLEANING BRUS0000001000+00001227+00000+0001T   00001227+0000001716          1400 UH4321               2AZ
124665000124665               124665               170213JE     1400+00000+JE0000017536+0000017536+000000000+000002457+0000019993+0000000000+I40000019993+0000000000+Z
124665001124665051-500100     124665006003000399444GARDEN KIDS SPADE ASSTD0000001000+00004385+00000+0001T   00004385+0000001725          1400 UH4820               2AZ
124665002124665903-000071     124665006001704001120SWT TOFFEE LIQURICE 35g0000001000+00000700+00000+0001T   00000700+0000001725          1400 UH4150               2AZ
124665003124665018-019000     124665006003000557288MUG OCC. LOVE JUMBO    0000001000+00005262+00000+0001T   00005262+0000001725          1400 UH4515               2AZ
124665004124665368-000265     124665006001023750914PLUSH BEAR 23CM ASSTD C0000001000+00006139+00000+0001T   00006139+0000001725          1400 UH4745               2AZ
124665005124665903-000077     124665006939873501687SWT GS MAGIC ROCK FRUIT0000002000+00000525+00000+0001T   00000525+0000001725          1400 UH4150               2AZ
A17021300                                          09450092JESLAVE 2                       UH41IC
M17021301                              IT          JEATT:IT                                          LAST SLIP                                       124665                                          JE                                              THANKS
M17021391                              CASH        JESLAVE 2                       Z-REPORT No.   605TOTAL (Sales - Refunds)           4355.80       CASH TO BE BANKED                 1377.40       DEBIT CARDS                          0.00       CREDIT CARDS                      2978.40       Z-READING                         4355.80       AIRTIME DEBIT CARD SALES             0.00       AIRTIME CARD SALES                   0.00       OVERS/UNDERS                         0.00       AIRTIME CASH SALES                   0.00       GIFT CARDS                           0.00       GIFT CARD CASH SALES                 0.00       T O T A L  CASH PAYOUTS              0.00                                                                                                                                                                                                                                                                                                                                                      Z
M17021392                              CASH        JEABSENT                                                                                                                                                                                          ANNUAL LEAVE                                                                                                                                                                                    DAY OFF                                                                                                                                                                                         COMMENTS                                                                                                                                                                                                                                                                                                                                                                                       Z
Y17021300                                          JE00000000382166+000045
ZJE17021319523 SLAVE 2      SALES DATA                     NEXT INVOICE NO.  124666 0605
X JE Slave 2 First invoice 124621 170213 Last invoice 124665 170213 Next invoice 124666 Total number of records 000000183 clbackup completed 19:52:59
