130464000130464               130464               170213JE     1400+00000+JE0000002192+0000002192+000000000+000000307+0000002499+           I90000000000+0000000000+Z
130464001130464071-007064     130464006003000533794P/CASE S/LINE SPACE CAS0000001000+00002192+00000+0001T063428060000                    1400 1IC1301ICV             Z
M17021391                              CASH        JESLAVE 3                       Z-REPORT No.   346TOTAL (Sales - Refunds)              0.00       CASH TO BE BANKED                    0.00       DEBIT CARDS                          0.00       CREDIT CARDS                         0.00       Z-READING                            0.00       AIRTIME DEBIT CARD SALES             0.00       AIRTIME CARD SALES                   0.00       OVERS/UNDERS                         0.00       AIRTIME CASH SALES                   0.00       GIFT CARDS                           0.00       GIFT CARD CASH SALES                 0.00       T O T A L  CASH PAYOUTS              0.00                                                                                                                                                                                                                                                                                                                                                      Z
M17021392                              CASH        JEABSENT                                                                                                                                                                                          ANNUAL LEAVE                                                                                                                                                                                    DAY OFF                                                                                                                                                                                         COMMENTS                                                                                                                                                                                                                                                                                                                                                                                       Z
Y17021300                                          JE00000000000000+000000
ZJE17021319533 SLAVE 3      SALES DATA                     NEXT INVOICE NO.  130465 0346
L55646000357133-001-003       JE1702131439221ICNOMSA HLATSWAYO                                                                                                                                                                                                                                                                                                                                                                                                                                                                                                                                                                                                                                                                                                                                                                                                                                                                                                                                                                                      Z
L55646000357133-002-003       JE1702131441251ICNOMSA HLATSWAYO                                                                                                                                                                                                                                                                                                                                                                                                                                                                                                                                                                                                                                                                                                                                                                                                                                                                                                                                                                                      Z
L55646000357133-003-003       JE1702131440271ICNOMSA HLATSWAYO                                                                                                                                                                                                                                                                                                                                                                                                                                                                                                                                                                                                                                                                                                                                                                                                                                                                                                                                                                                      Z
L55649100356496-001-002       JE1702131439101ICNOMSA HLATSWAYO                                                                                                                                                                                                                                                                                                                                                                                                                                                                                                                                                                                                                                                                                                                                                                                                                                                                                                                                                                                      Z
L55649100356496-002-002       JE1702131443401ICNOMSA HLATSWAYO                                                                                                                                                                                                                                                                                                                                                                                                                                                                                                                                                                                                                                                                                                                                                                                                                                                                                                                                                                                      Z
L55652200356414-001-001       JE1702131441381ICNOMSA HLATSWAYO                                                                                                                                                                                                                                                                                                                                                                                                                                                                                                                                                                                                                                                                                                                                                                                                                                                                                                                                                                                      Z
L55707500353234-001-002       JE1702131439541ICNOMSA HLATSWAYO                                                                                                                                                                                                                                                                                                                                                                                                                                                                                                                                                                                                                                                                                                                                                                                                                                                                                                                                                                                      Z
L55707500353234-002-002       JE1702131440101ICNOMSA HLATSWAYO                                                                                                                                                                                                                                                                                                                                                                                                                                                                                                                                                                                                                                                                                                                                                                                                                                                                                                                                                                                      Z
L55723900359402-001-002       JE1702131439341ICNOMSA HLATSWAYO                                                                                                                                                                                                                                                                                                                                                                                                                                                                                                                                                                                                                                                                                                                                                                                                                                                                                                                                                                                      Z
L55723900359402-002-002       JE1702131444121ICNOMSA HLATSWAYO                                                                                                                                                                                                                                                                                                                                                                                                                                                                                                                                                                                                                                                                                                                                                                                                                                                                                                                                                                                      Z
L56356200357372-001-002       JE1702131441301ICNOMSA HLATSWAYO                                                                                                                                                                                                                                                                                                                                                                                                                                                                                                                                                                                                                                                                                                                                                                                                                                                                                                                                                                                      Z
L56356200357372-002-002       JE1702131440501ICNOMSA HLATSWAYO                                                                                                                                                                                                                                                                                                                                                                                                                                                                                                                                                                                                                                                                                                                                                                                                                                                                                                                                                                                      Z
L57406300354097-001-001       JE1702131440411ICNOMSA HLATSWAYO                                                                                                                                                                                                                                                                                                                                                                                                                                                                                                                                                                                                                                                                                                                                                                                                                                                                                                                                                                                      Z
L57443900353422-001-002       JE1702131442051ICNOMSA HLATSWAYO                                                                                                                                                                                                                                                                                                                                                                                                                                                                                                                                                                                                                                                                                                                                                                                                                                                                                                                                                                                      Z
L57443900353422-002-002       JE1702131442201ICNOMSA HLATSWAYO                                                                                                                                                                                                                                                                                                                                                                                                                                                                                                                                                                                                                                                                                                                                                                                                                                                                                                                                                                                      Z
L57768600353313-001-001       JE1702131439381ICNOMSA HLATSWAYO                                                                                                                                                                                                                                                                                                                                                                                                                                                                                                                                                                                                                                                                                                                                                                                                                                                                                                                                                                                      Z
L58227900358187-001-004       JE1702131439311ICNOMSA HLATSWAYO                                                                                                                                                                                                                                                                                                                                                                                                                                                                                                                                                                                                                                                                                                                                                                                                                                                                                                                                                                                      Z
L58227900358187-002-004       JE1702131439291ICNOMSA HLATSWAYO                                                                                                                                                                                                                                                                                                                                                                                                                                                                                                                                                                                                                                                                                                                                                                                                                                                                                                                                                                                      Z
L58227900358187-003-004       JE1702131439431ICNOMSA HLATSWAYO                                                                                                                                                                                                                                                                                                                                                                                                                                                                                                                                                                                                                                                                                                                                                                                                                                                                                                                                                                                      Z
L58227900358187-004-004       JE1702131443541ICNOMSA HLATSWAYO                                                                                                                                                                                                                                                                                                                                                                                                                                                                                                                                                                                                                                                                                                                                                                                                                                                                                                                                                                                      Z
L58238600354449-001-001       JE1702131443121ICNOMSA HLATSWAYO                                                                                                                                                                                                                                                                                                                                                                                                                                                                                                                                                                                                                                                                                                                                                                                                                                                                                                                                                                                      Z
L58317500359042-001-002       JE1702131442351ICNOMSA HLATSWAYO                                                                                                                                                                                                                                                                                                                                                                                                                                                                                                                                                                                                                                                                                                                                                                                                                                                                                                                                                                                      Z
L58317500359042-002-002       JE1702131439141ICNOMSA HLATSWAYO                                                                                                                                                                                                                                                                                                                                                                                                                                                                                                                                                                                                                                                                                                                                                                                                                                                                                                                                                                                      Z
L58330800354101-001-001       JE1702131443261ICNOMSA HLATSWAYO                                                                                                                                                                                                                                                                                                                                                                                                                                                                                                                                                                                                                                                                                                                                                                                                                                                                                                                                                                                      Z
L58385700355899-001-001       JE1702131441531ICNOMSA HLATSWAYO                                                                                                                                                                                                                                                                                                                                                                                                                                                                                                                                                                                                                                                                                                                                                                                                                                                                                                                                                                                      Z
L59304300360600-001-001       JE1702131442511ICNOMSA HLATSWAYO                                                                                                                                                                                                                                                                                                                                                                                                                                                                                                                                                                                                                                                                                                                                                                                                                                                                                                                                                                                      Z
V55646000000600-001-001       JE1702131442511ICNOMS               000000000000000170213000000   SLAVE 3     000000000000357133               03
V55649100000600-001-001       JE1702131442511ICNOMS               000000000000000170213000000   SLAVE 3     000000000000356496               02
V55652200000600-001-001       JE1702131442511ICNOMS               000000000000000170213000000   SLAVE 3     000000000000356414               01
V55707500000600-001-001       JE1702131442511ICNOMS               0000000000000001702130000001ICSLAVE 3     170213155936353234N              02
V55723900000600-001-001       JE1702131442511ICNOMS               000000000000000170213000000   SLAVE 3     000000000000359402               02
V56356200000600-001-001       JE1702131442511ICNOMS               000000000000000170213000000   SLAVE 3     000000000000357372               02
V57406300000600-001-001       JE1702131442511ICNOMS               000000000000000170213000000   SLAVE 3     000000000000354097               01
V57443900000600-001-001       JE1702131442511ICNOMS               000000000000000170213000000   SLAVE 3     000000000000353422               02
V57768600000600-001-001       JE1702131442511ICNOMS               000000000000000170213000000   SLAVE 3     000000000000353313               01
V58227900000600-001-001       JE1702131442511ICNOMS               0000000000000001702130000001ICSLAVE 3     170213151131358187N              04
V58238600000600-001-001       JE1702131442511ICNOMS               000000000000000170213000000   SLAVE 3     000000000000354449               01
V58317500000600-001-001       JE1702131442511ICNOMS               000000000000000170213000000   SLAVE 3     000000000000359042               02
V58330800000600-001-001       JE1702131442511ICNOMS               000000000000000170213000000   SLAVE 3     000000000000354101               01
V58385700000600-001-001       JE1702131442511ICNOMS               000000000000000170213000000   SLAVE 3     000000000000355899               01
V59304300000600-001-001       JE1702131442511ICNOMS               000000000000000170213000000   SLAVE 3     000000000000360600               01
X JE Slave 3 First invoice 130464 170213 Last invoice 130464 170213 Next invoice 130465 Total number of records 000000047 clbackup completed 19:53:00
