179786000179786               179786               170213JF     1400+00000+JF0000001578+0000001578+000000000+000000221+0000001790+0000000009+I20000000000+0000001790+Z
179786001179786077-000315     179786006003000181186GIFT-BAG 20x28cm MATT  0000001000+00001578+00000+0001T   00001578+0000000836          1400 K30112               1AZ
179787000179787               179787               170213JF     1400+00000+JF0000001753+0000001753+000000000+000000246+0000001990+0000000009+I20000000000+0000001990+Z
179787001179787080-000117     179787006003000236350CARD & ENVELOPE THANK U0000001000+00001753+00000+0001T   00001753+0000000843          1400 K30112               1AZ
179788000179788               179788               170213JF     1400+00000+JF0000005249+0000005249+000000000+000000736+0000005980+0000000005+I20000000000+0000005980+Z
179788001179788018-000136     179788006001023659026MUG OCC LOVE W/PLUSH   0000001000+00003507+00000+0001T   00003507+0000001011          1400 K30515               1AZ
179788002179788077-000310     179788006001023608635GIFT-BAG 18X23CM GLOSS 0000001000+00001314+00000+0001T   00001314+0000001011          1400 K30112               1AZ
179788003179788112-116038     179788006009681820246TCS CARRIER BAG MIDI   0000001000+00000035+00000+0001T   00000035+0000001011          1400 K30090               1AZ
179788004179788903-000183     179788006003000451043SWT LB HEART LOLLY     0000001000+00000393+00000+0001T   00000393+0000001011          1400 K30150               1AZ
179789000179789               179789               170213JF     1400+00000+JF0000005655+0000005655+000000000+000000793+0000006440+0000000008+I20000000000+0000006440+Z
179789001179789903-000183     179789006003000451043SWT LB HEART LOLLY     0000001000+00000393+00000+0001T   00000393+0000001012          1400 K30150               1AZ
179789002179789018-019000     179789006003000557288MUG OCC. LOVE JUMBO    0000001000+00005262+00000+0001T   00005262+0000001012          1400 K30515               1AZ
179790000179790               179790               170213JF     1400+00000+JF0000001226+0000001226+000000000+000000172+0000001390+0000000008+I20000000000+0000001390+Z
179790001179790304-001011     179790006001023806727FLWR ROSE RED W/BEAR   0000002000+00000613+00000+0001T   00000788+0006471013          1400 K30510               1AZ
179791000179791               179791               170213JF     1400+00000+JF0000001753+0000001753+000000000+000000246+0000001999+0000000000+I40000001999+0000000000+Z
179791001179791006-000324     179791006001023818393PARTY POPPER`S PCK-OF-60000001000+00001753+00000+0001T   00001753+0000001020          1400 K30131               1AZ
179792000179792               179792               170213JF     1400+00000+JF0000042702+0000042702+000000000+000005986+0000048688+0000000000+I40000048688+0000000000+Z
179792001179792469-006603     179792006003000390441B/BLOCKS 86PC TROLY BAG0000001000+00011402+00000+0001T   00011402+0000001028          1400 K30755               1AZ
179792002179792106-001110     179792006001023857880SPORTS-BOTTLES SET-OF-20000001000+00003507+00000+0001T   00003507+0000001028          1400 K30210               1AZ
179792003179792369-000200     179792006001023856982BABY EDU CUP STACKING  0000001000+00002630+00000+0001T   00002630+0000001028          1400 K30745               1AZ
179792004179792365-003056     179792006009635021453KIDDIES WOODEN BROOM   0000002000+00003069+00000+0001T   00003069+0000001028          1400 K30725               1AZ
179792005179792903-000200     179792006009826020234SWT CHOC RP CHOCO 23G  0000001000+00000788+00000+0001T   00000788+0000001028          1400 K30150               1AZ
179792006179792903-000183     179792006003000451043SWT LB HEART LOLLY     0000004000+00000393+00000+0001T   00000393+0000001028          1400 K30150               1AZ
179792007179792028-000040     179792006003000453016PICNIC BAG W/ALU HNDLES0000001000+00016665+00000+0001T   00016665+0000001028          1400 K30305               1AZ
179793000179793               179793               170213JF     1400+00000+JF0000003542+0000003542+000000000+000000496+0000004030+0000000008+I20000000000+0000004030+Z
179793001179793028-001999     179793006001023759535G/CHAIR-COVER 60x60x1100000001000+00003507+00000+0001T   00003507+0000001105          1400 K30305               1AZ
179793002179793112-116038     179793006009681820246TCS CARRIER BAG MIDI   0000001000+00000035+00000+0001T   00000035+0000001105          1400 K30090               1AZ
179794000179794               179794               170213JF     1400+00000+JF0000003150+0000003150+000000000+000000444+0000003590+0000000004+I20000000000+0000003590+Z
179794001179794903-000155     179794006009803374435SWT LOLLY I LUV U HEART0000006000+00000525+00000+0001T   00000525+0000001110          1400 K30150               1AZ
179795000179795               179795               170213JF     1400+00000+JF0000002665+0000002665+000000000+000000374+0000003039+0000000000+I40000003039+0000000000+Z
179795001179795105-003025     179795006001023594662CONTAINER RECT 28x19cm 0000001000+00002630+00000+0001T   00002630+0000001112          1400 K30210               1AZ
179795002179795112-116038     179795006009681820246TCS CARRIER BAG MIDI   0000001000+00000035+00000+0001T   00000035+0000001112          1400 K30090               1AZ
179796000179796               179796               170213JF     1400+00000+JF0000003900+0000003900+000000000+000000547+0000004447+0000000000+I40000004447+0000000000+Z
179796001179796016-006498-B   179796006001023774767S/JAR GLS/MTL POLKA-DOT0000001000+00003507+00000+0001T   00003507+0000001115          1400 K30300               1AZ
179796002179796903-000183     179796006003000451043SWT LB HEART LOLLY     0000001000+00000393+00000+0001T   00000393+0000001115          1400 K30150               1AZ
179797000179797               179797               170213JF     1400+00000+JF0000002927+0000002927+000000000+000000411+0000003330+0000000008+I20000000000+0000003330+Z
179797001179797079-000275     179797006003000160488PAINT-BRUSHES 6PCE PRO 0000001000+00001753+00000+0001T   00001753+0000001121          1400 K30130               1AZ
179797002179797027-078343     179797006008766078343SCRUB-BRUSH IRON-SHAPE 0000001000+00001139+00000+0001T   00001578+0008191121          1400 K30212               1AZ
179797003179797112-116038     179797006009681820246TCS CARRIER BAG MIDI   0000001000+00000035+00000+0001T   00000035+0000001121          1400 K30090               1AZ
179798000179798               179798               170213JF     1400+00000+JF0000005307+0000005307+000000000+000000745+0000006050+0000000002+I20000000000+0000006050+Z
179798001179798071-005678     179798006001023496294PUNCH 2 HOLE           0000001000+00002630+00000+0001T   00002630+0000001123          1400 K30130               1AZ
179798002179798007-000045     179798006009608640438DISPLAY-POCKETS A4 10PC0000001000+00000876+00000+0001T   00000876+0000001123          1400 K30130               1AZ
179798003179798007-000205     179798006002324000432FILE BINDER 2-RING A4  0000001000+00001753+00000+0001T   00001753+0000001123          1400 K30130               1AZ
179798004179798112-116069     179798006009681820277TCS CARRIER BAG JUMBO  0000001000+00000048+00000+0001T   00000048+0000001123          1400 K30090               1AZ
179799000179799               179799               170213JF     1400+00000+JF0000010394+0000010394+000000000+000001456+0000011850+0000000000+I40000011850+0000000000+Z
179799001179799106-000899     179799006003000653287WTR BOTTLE 2L W/HANDLE 0000001000+00003069+00000+0001T   00003507+0008191125          1400 K30210               1AZ
179799002179799112-116069     179799006009681820277TCS CARRIER BAG JUMBO  0000001000+00000048+00000+0001T   00000048+0000001125          1400 K30090               1AZ
179799003179799018-000127     179799006001023380289MUG OCC STRAIGHT LOVE  0000001000+00001578+00000+0001T   00001753+0006471125          1400 K30515               1AZ
179799004179799903-000194     179799006009826020616SWT CHOC RP LOLLY 25G  0000001000+00001314+00000+0001T   00001314+0000001125          1400 K30150               1AZ
179799005179799024-000118     179799006001023422316N/STICK C/PAN HEART    0000001000+00004385+00000+0001T   00004385+0000001125          1400 K30300               1AZ
179800000179800               179800               170213JF     1400+00000+JF0000012319+0000012319+000000000+000001726+0000014045+0000000000+I40000014045+0000000000+Z
179800001179800112-116069     179800006009681820277TCS CARRIER BAG JUMBO  0000001000+00000048+00000+0001T   00000048+0000001127          1400 K30090               1AZ
179800002179800039-000319-5   179800006003000442867B/CANDLES LRG NUMBER-5 0000001000+00000876+00000+0001T   00000876+0000001127          1400 K30510               1AZ
179800003179800039-000330     179800006003000283002BDAY-CANDLES+HLDERS 24P0000001000+00003507+00000+0001T   00003507+0000001127          1400 K30510               1AZ
179800004179800065-006042     179800006001023712998MARACAS 2PCE CHA-CHA   0000001000+00001753+00000+0001T   00001753+0000001127          1400 K30745               1AZ
179800005179800065-000053     179800006001023756879MUSICAL HAMMER         0000001000+00003507+00000+0001T   00003507+0000001127          1400 K30745               1AZ
179800006179800034-000329     179800006001023564290BOTTLE-BRUSHES WHT 2PCE0000002000+00001314+00000+0001T   00001314+0000001127          1400 K30215               1AZ
179801000179801               179801               170213JF     1400+00000+JF0000006838+0000006838+000000000+000000959+0000007790+0000000007+I20000000000+0000007790+Z
179801001179801565-000041     179801006008766115642NOVELTY BALL ICON 5.5cm0000002000+00002630+00000+0001T   00002630+0000001139          1400 K30745               1AZ
179801002179801077-000303     179801006001023593757GIFT-BAG PAPER MED     0000001000+00001578+00000+0001T   00001578+0000001139          1400 K30112               1AZ
179802000179802               179802               170213JF     1400+00000+JF0000003244+0000003244+000000000+000000455+0000003690+0000000009+I20000000000+0000003690+Z
179802001179802046-000400     179802006001023804983BATT ALKALINE 1.5Vx30PC0000001000+00003244+00000+0001T   00003244+0000001139          1400 K30312               1AZ
179803000179803               179803               170213JF     1400+00000+JF0000004168+0000004168+000000000+000000585+0000004750+0000000003+I20000000000+0000004750+Z
179803001179803108-001105-B   179803006005387000258MIXING-BOWL PLTNM/BLUE 0000001000+00002367+00000+0001T   00002367+0000001141          1400 K30210               1AZ
179803002179803107-002117     179803006002580008890BASIN PL 32cm(VIRGIN)4L0000001000+00001753+00000+0001T   00001753+0000001141          1400 K30210               1AZ
179803003179803112-116069     179803006009681820277TCS CARRIER BAG JUMBO  0000001000+00000048+00000+0001T   00000048+0000001141          1400 K30090               1AZ
179804000179804               179804               170213JF     1400+00000+JF0000005959+0000005959+000000000+000000836+0000006790+0000000005+I20000000000+0000006790+Z
179804001179804080-000133-A   179804006003000647019MINI VALENTINES CARD   0000002000+00000437+00000+0001T   00000437+0000001141          1400 K30112               1AZ
179804002179804018-000136     179804006001023659026MUG OCC LOVE W/PLUSH   0000001000+00003507+00000+0001T   00003507+0000001141          1400 K30515               1AZ
179804003179804018-000127     179804006001023380289MUG OCC STRAIGHT LOVE  0000001000+00001578+00000+0001T   00001753+0006471141          1400 K30515               1AZ
179805000179805               179805               170213JF     1400+00000+JF0000001753+0000001753+000000000+000000246+0000001990+0000000009+I20000000000+0000001990+Z
179805001179805466-000583     179805006001023156617SKIPPING-ROPE 224cm    0000001000+00001753+00000+0001T   00001753+0000001150          1400 K30785               1AZ
179806000179806               179806               170213JF     1400+00000+JF0000003507+0000003507+000000000+000000491+0000003990+0000000008+I20000000000+0000003990+Z
179806001179806018-005009     179806006001023725608MUG W/PLUSH-BEAR LOVE  0000001000+00003507+00000+0001T   00003507+0000001153          1400 K30515               1AZ
179807000179807               179807               170213JF     1400+00000+JF0000005306+0000005306+000000000+000000745+0000006051+0000000000+I40000006051+0000000000+Z
179807001179807077-000299-A   179807006003000670888GIFT-BAG PAPER JMB LOVE0000001000+00001753+00000+0001T   00001753+0000001202          1400 K30112               1AZ
179807002179807077-000309     179807006001023608604GIFT-BAG 25X32CM GLOSS 0000001000+00001753+00000+0001T   00001753+0000001202          1400 K30112               1AZ
179807003179807077-000011-D   179807006001023808554TISSUE-WRAP WHITE 10PCE0000001000+00000876+00000+0001T   00000876+0000001202          1400 K30112               1AZ
179807004179807077-000011-C   179807006001023808523TISSUE 10xSHTS RED     0000001000+00000876+00000+0001T   00000876+0000001202          1400 K30112               1AZ
179807005179807112-116069     179807006009681820277TCS CARRIER BAG JUMBO  0000001000+00000048+00000+0001T   00000048+0000001202          1400 K30090               1AZ
179808000179808               179808               170213JF     1400+00000+JF0000003067+0000003067+000000000+000000431+0000003498+0000000000+I40000003498+0000000000+Z
179808001179808206-000620     179808006003000631797BACK SCRATCHER EXTEND  0000001000+00002630+00000+0001T   00002630+0000001204          1400 K30321               1AZ
179808002179808080-000133-A   179808006003000647019MINI VALENTINES CARD   0000001000+00000437+00000+0001T   00000437+0000001204          1400 K30112               1AZ
179809000179809               179809               170213JF     1400+00000+JF0000009907+0000009907+000000000+000001390+0000011290+0000000007+I20000000000+0000011290+Z
179809001179809030-000030-A   179809006003000249305PLAQUE GLASS LOVE      0000001000+00003069+00000+0001T   00003069+0000001207          1400 K30505               1AZ
179809002179809018-005009     179809006001023725608MUG W/PLUSH-BEAR LOVE  0000001000+00003507+00000+0001T   00003507+0000001207          1400 K30515               1AZ
179809003179809903-004950     179809006002580020304SWT APRICOT SURPRISE   0000001000+00001314+00000+0001T   00001314+0000001207          1400 K30150               1AZ
179809004179809903-000709     179809006002099007070SWT QUENCHERS FRUIT    0000001000+00001139+00000+0001T   00001139+0000001207          1400 K30150               1AZ
179809005179809080-000133-A   179809006003000647019MINI VALENTINES CARD   0000001000+00000437+00000+0001T   00000437+0000001207          1400 K30112               1AZ
179809006179809112-116069     179809006009681820277TCS CARRIER BAG JUMBO  0000001000+00000048+00000+0001T   00000048+0000001207          1400 K30090               1AZ
179809007179809903-000183     179809006003000451043SWT LB HEART LOLLY     0000001000+00000393+00000+0001T   00000393+0000001207          1400 K30150               1AZ
179810000179810               179810               170213JF     1400+00000+JF0000001578+0000001578+000000000+000000221+0000001790+0000000009+I20000000000+0000001790+Z
179810001179810077-000303     179810006001023593757GIFT-BAG PAPER MED     0000001000+00001578+00000+0001T   00001578+0000001209          1400 K30112               1AZ
179811000179811               179811               170213JF     1400+00000+JF0000018410+0000018410+000000000+000002580+0000020990+0000000000+I40000020990+0000000000+Z
179811001179811079-000275     179811006003000160488PAINT-BRUSHES 6PCE PRO 0000001000+00001753+00000+0001T   00001753+0000001216          1400 K30130               1AZ
179811002179811079-013032-C   179811006003000389520POLY SHAPES            0000001000+00001578+00000+0001T   00001578+0000001216          1400 K30130               1AZ
179811003179811079-013102     179811006003000019601ART+CRAFT DIY PIPE-CLNR0000001000+00002192+00000+0001T   00002192+0000001216          1400 K30130               1AZ
179811004179811079-003002     179811006003000447886A/TUBE 75ML RED        0000001000+00001753+00000+0001T   00001753+0000001216          1400 K30130               1AZ
179811005179811080-000127     179811006003000424351VALENTINES DAY 36x24CM 0000001000+00002192+00000+0001T   00002192+0000001216          1400 K30112               1AZ
179811006179811077-000270     179811006003000395453GIFT-BAG PPR JMB 33X45 0000001000+00002630+00000+0001T   00002630+0000001216          1400 K30112               1AZ
179811007179811077-000303     179811006001023593757GIFT-BAG PAPER MED     0000002000+00001578+00000+0001T   00001578+0000001216          1400 K30112               1AZ
179811008179811077-000315     179811006003000181186GIFT-BAG 20x28cm MATT  0000002000+00001578+00000+0001T   00001578+0000001216          1400 K30112               1AZ
179812000179812               179812               170213JF     1400+00000+JF0000002980+0000002980+000000000+000000418+0000003398+0000000000+I40000003398+0000000000+Z
179812001179812077-000299     179812006003000395576G/BAG 32x25cm LRG LOVE 0000002000+00001490+00000+0001T   00001490+0000001223          1400 K30112               1AZ
179813000179813               179813               170213JF     1400+00000+JF0000012764+0000012764+000000000+000001788+0000014550+0000000002+I20000000000+0000014550+Z
179813001179813486-002320     179813006003000290932W/CLOCK QTZ PL W/LIFE  0000001000+00011402+00000+0001T   00011402+0000001228          1400 K30510               1AZ
179813002179813046-000012     179813006904708013062BATTERIES AA  CARD-OF-40000001000+00001314+00000+0001T   00001314+0000001228          1400 K30312               1AZ
179813003179813112-116069     179813006009681820277TCS CARRIER BAG JUMBO  0000001000+00000048+00000+0001T   00000048+0000001228          1400 K30090               1AZ
179814000179814               179814               170213JF     1400+00000+JF0000001788+0000001788+000000000+000000251+0000002039+0000000000+I40000002039+0000000000+Z
179814001179814105-001160     179814006003000666409CONTAINER SET LITE 6PC 0000001000+00001753+00000+0001T   00001753+0000001236          1400 K30210               1AZ
179814002179814112-116038     179814006009681820246TCS CARRIER BAG MIDI   0000001000+00000035+00000+0001T   00000035+0000001236          1400 K30090               1AZ
179815000179815               179815               170213JF     1400+00000+JF0000009470+0000009470+000000000+000001326+0000010790+0000000006+I20000000000+0000010790+Z
179815001179815024-000072     179815006001023849502EGG-WHISK SET-OF-3     0000001000+00003507+00000+0001T   00003507+0000001240          1400 K30300               1AZ
179815002179815024-000034     179815006001023495235MEASURING-JUG 1-CUP    0000001000+00001578+00000+0001T   00001578+0000001240          1400 K30300               1AZ
179815003179815082-000115     179815006003000360604READING GLS STRNGHT:2.50000001000+00004385+00000+0001T   00004385+0000001240          1400 K30160               1AZ
179816000179816               179816               170213JF     1400+00000+JF0000004385+0000004385+000000000+000000614+0000004999+0000000000+I40000004999+0000000000+Z
179816001179816031-005840     179816006001023481412P/FRAME-CLIP 30X40CM   0000001000+00004385+00000+0001T   00004385+0000001452          1400 K30510               1AZ
179817000179817               179817               170213JF     1400+00000+JF0000016177+0000016177+000000000+000002268+0000018440+0000000005+I20000000000+0000018440+Z
179817001179817104-000095     179817006003000614714BASKET PL 23x15x12cm   0000001000+00003507+00000+0001T   00003507+0000001454          1400 K30210               1AZ
179817002179817104-000025     179817006001023780287BASKET PL 28x17x11cm   0000001000+00003507+00000+0001T   00003507+0000001454          1400 K30210               1AZ
179817003179817006-000804     179817006003000574445STREAMERS 6-ROLLS 2.5cm0000001000+00001753+00000+0001T   00001753+0000001454          1400 K30131               1AZ
179817004179817304-001011     179817006001023806727FLWR ROSE RED W/BEAR   0000002000+00000613+00000+0001T   00000788+0006471454          1400 K30510               1AZ
179817005179817077-000150-D   179817006003000054343GIFT-WRAP CELLPHANE CLR0000001000+00000876+00000+0001T   00000876+0000001454          1400 K30112               1AZ
179817006179817084-000895     179817006003000576968NAIL FILES 4PC INCL    0000001000+00002630+00000+0001T   00002630+0000001454          1400 K30200               1AZ
179817007179817112-116069     179817006009681820277TCS CARRIER BAG JUMBO  0000001000+00000048+00000+0001T   00000048+0000001454          1400 K30090               1AZ
179817008179817077-000235     179817006003000160211GIFT-RIBBON ROLL METALC0000001000+00002630+00000+0001T   00002630+0000001454          1400 K30112               1AZ
179818000179818               179818               170213JF     1400+00000+JF0000002630+0000002630+000000000+000000369+0000002990+0000000009+I20000000000+0000002990+Z
179818001179818018-000129     179818006001023403353MUG OCC. LOVE V-SHAPE  0000001000+00002630+00000+0001T   00002630+0000001454          1400 K30515               1AZ
179819000179819               179819               170213JF     1400+00000+JF0000006752+0000006752+000000000+000000946+0000007690+0000000008+I20000000000+0000007690+Z
179819001179819366-002699     179819006003000536733DRESS UP HAT COWGIRL   0000001000+00005262+00000+0001T   00005262+0000001456          1400 K30131               1AZ
179819002179819071-000307     179819006003000535118RULER FLEXI 30cm       0000001000+00001490+00000+0001T   00001490+0000001456          1400 K30130               1AZ
179820000179820               179820               170213JF     1400+00000+JF0000004420+0000004420+000000000+000000619+0000005030+0000000009+I20000000000+0000005030+Z
179820001179820368-000001     179820006003000097982Plush Bear 25cm        0000001000+00004385+00000+0001T   00004385+0000001521          1400 K30745               1AZ
179820002179820112-116038     179820006009681820246TCS CARRIER BAG MIDI   0000001000+00000035+00000+0001T   00000035+0000001521          1400 K30090               1AZ
179821000179821               179821               170213JF     1400+00000+JF0000006574+0000006574+000000000+000000921+0000007490+0000000005+I20000000000+0000007490+Z
179821001179821018-000136     179821006001023659026MUG OCC LOVE W/PLUSH   0000001000+00003507+00000+0001T   00003507+0000001522          1400 K30515               1AZ
179821002179821080-000122     179821006003000237678CARD & ENVLPE -GET WELL0000001000+00001753+00000+0001T   00001753+0000001522          1400 K30112               1AZ
179821003179821077-000310     179821006001023608635GIFT-BAG 18X23CM GLOSS 0000001000+00001314+00000+0001T   00001314+0000001522          1400 K30112               1AZ
179822000179822               179822               170213JF     1400+00000+JF0000004432+0000004432+000000000+000000621+0000005053+0000000000+I40000005053+0000000000+Z
179822001179822301-085000     179822006003000674299 ORN OCC. LOVE HEARTS  0000002000+00002192+00000+0001T   00002192+0000001549          1400 K30505               1AZ
179822002179822112-116069     179822006009681820277TCS CARRIER BAG JUMBO  0000001000+00000048+00000+0001T   00000048+0000001549          1400 K30090               1AZ
179823000179823               179823               170213JF     1400+00000+JF0000016967+0000016967+000000000+000002378+0000019345+0000000000+I40000019345+0000000000+Z
179823001179823018-000136     179823006001023659026MUG OCC LOVE W/PLUSH   0000001000+00003507+00000+0001T   00003507+0000001552          1400 K30515               1AZ
179823002179823031-000923     179823006001023669933P/FRAME BLK W/WORDS    0000001000+00003507+00000+0001T   00003507+0000001552          1400 K30510               1AZ
179823003179823368-000049     179823006003000536955PLUSH BEAR 15cm LOVE   0000001000+00004385+00000+0001T   00004385+0000001552          1400 K30745               1AZ
179823004179823077-000299     179823006003000395576G/BAG 32x25cm LRG LOVE 0000001000+00001490+00000+0001T   00001490+0000001552          1400 K30112               1AZ
179823005179823077-000303     179823006001023593757GIFT-BAG PAPER MED     0000002000+00001578+00000+0001T   00001578+0000001552          1400 K30112               1AZ
179823006179823112-116069     179823006009681820277TCS CARRIER BAG JUMBO  0000001000+00000048+00000+0001T   00000048+0000001552          1400 K30090               1AZ
179823007179823080-000133-A   179823006003000647019MINI VALENTINES CARD   0000002000+00000437+00000+0001T   00000437+0000001552          1400 K30112               1AZ
179824000179824               179824               170213JF     1400+00000+JF0000000876+0000000876+000000000+000000123+0000000990+0000000009+I20000000000+0000000990+Z
179824001179824007-000045     179824006009608640438DISPLAY-POCKETS A4 10PC0000001000+00000876+00000+0001T   00000876+0000001552          1400 K30130               1AZ
179825000179825               179825               170213JF     1400+00000+JF0000001578+0000001578+000000000+000000221+0000001790+0000000009+I20000000000+0000001790+Z
179825001179825077-000303     179825006001023593757GIFT-BAG PAPER MED     0000001000+00001578+00000+0001T   00001578+0000001606          1400 K30112               1AZ
179826000179826               179826               170213JF     1400+00000+JF0000007893+0000007893+000000000+000001106+0000008990+0000000009+I20000000000+0000008990+Z
179826001179826368-000180     179826006003000667932PLUSH DUCK 19cm ASSTD  0000001000+00007893+00000+0001T   00007893+0000001607          1400 K30745               1AZ
179827000179827               179827               170213JF     1400+00000+JF0000004420+0000004420+000000000+000000619+0000005039+0000000000+I40000005039+0000000000+Z
179827001179827368-000049     179827006003000536955PLUSH BEAR 15cm LOVE   0000001000+00004385+00000+0001T   00004385+0000001618          1400 K30745               1AZ
179827002179827112-116038     179827006009681820246TCS CARRIER BAG MIDI   0000001000+00000035+00000+0001T   00000035+0000001618          1400 K30090               1AZ
179828000179828               179828               170213JF     1400+00000+JF0000004029+0000004029+000000000+000000567+0000004590+0000000006+I20000000000+0000004590+Z
179828001179828903-002851     179828000000087108538MENTOS ROLL STRAWBERRY 0000001000+00001051+00000+0001T   00001051+0000001619          1400 K30150               1AZ
179828002179828903-002892     179828008935001721338MENTOS JUICEBLAST BERRY0000001000+00001051+00000+0001T   00001051+0000001619          1400 K30150               1AZ
179828003179828077-000452     179828006003000284986G/BAG METALLIC MED EMB 0000001000+00001490+00000+0001T   00001490+0000001619          1400 K30112               1AZ
179828004179828080-000133-A   179828006003000647019MINI VALENTINES CARD   0000001000+00000437+00000+0001T   00000437+0000001619          1400 K30112               1AZ
179829000179829               179829               170213JF     1400+00000+JF0000001490+0000001490+000000000+000000209+0000001690+0000000009+I20000000000+0000001690+Z
179829001179829071-000873     179829006001023758743RUB-BANDS CLR BAG-100  0000001000+00001490+00000+0001T   00001490+0000001620          1400 K30130               1AZ
179830000179830               179830               170213JF     1400+00000+JF0000007620+0000007620+000000000+000001068+0000008688+0000000000+I40000008688+0000000000+Z
179830001179830261-000121     179830006001023341600GUN-CAPS 8-SHOT CARD-9 0000004000+00000700+00000+0001T   00000700+0000001627          1400 K30710               1AZ
179830002179830566-001228     179830006003000284153STICKERS CRYSTAL ASSTD 0000002000+00001753+00000+0001T   00001753+0000001627          1400 K30130               1AZ
179830003179830565-000892-A   179830006003000615797NOVELTY FUN BALL       0000001000+00001314+00000+0001T   00001753+0008141627          1400 K30745               1AZ
179831000179831               179831               170213JF     1400+00000+JF0000003507+0000003507+000000000+000000491+0000003998+0000000000+I40000003998+0000000000+Z
179831001179831007-000199     179831006002324001200FILE RING-BINDER A4    0000001000+00003507+00000+0001T   00003507+0000001633          1400 K30130               1AZ
179832000179832               179832               170213JF     1400+00000+JF0000005083+0000005083+000000000+000000713+0000005790+0000000006+I20000000000+0000005790+Z
179832001179832903-000155     179832006009803374435SWT LOLLY I LUV U HEART0000001000+00000525+00000+0001T   00000525+0000001634          1400 K30150               1AZ
179832002179832030-083576     179832006003000431236PLAQUE WDN GARDEN 12X8 0000001000+00002192+00000+0001T   00002192+0000001634          1400 K30505               1AZ
179832003179832077-000383     179832006003000247943GIFT-BAG 11X14CM S/COL 0000001000+00000788+00000+0001T   00000788+0000001634          1400 K30112               1AZ
179832004179832077-000303     179832006001023593757GIFT-BAG PAPER MED     0000001000+00001578+00000+0001T   00001578+0000001634          1400 K30112               1AZ
179833000179833               179833               170213JF     1400+00000+JF0000003067+0000003067+000000000+000000430+0000003490+0000000007+I20000000000+0000003490+Z
179833001179833024-091103-C   179833006003000596546CAKE BOX 2PC HLDS-6-C/C0000001000+00001314+00000+0001T   00001753+0008121635          1400 K30300               1AZ
179833002179833079-013032     179833006003000389209SET LETTERS 2 ASSTD    0000001000+00001753+00000+0001T   00001753+0000001635          1400 K30130               1AZ
179834000179834               179834               170213JF     1400+00000+JF0000005558+0000005558+000000000+000000779+0000006330+0000000007+I20000000000+0000006330+Z
179834001179834301-085001     179834006003000297610ORN WATERBALL LOVE ASST0000001000+00004823+00000+0001T   00004823+0000001637          1400 K30505               1AZ
179834002179834018-000177     179834006001023797513MUG MINI LOVE ASSTD    0000001000+00000700+00000+0001T   00000700+0000001637          1400 K30515               1AZ
179834003179834112-116038     179834006009681820246TCS CARRIER BAG MIDI   0000001000+00000035+00000+0001T   00000035+0000001637          1400 K30090               1AZ
179835000179835               179835               170213JF     1400+00000+JF0000001400+0000001400+000000000+000000196+0000001590+0000000006+I20000000000+0000001590+Z
179835001179835018-000177     179835006001023797513MUG MINI LOVE ASSTD    0000002000+00000700+00000+0001T   00000700+0000001638          1400 K30515               1AZ
179836000179836               179836               170213JF     1400+00000+JF0000007715+0000007715+000000000+000001081+0000008796+0000000000+I40000008796+0000000000+Z
179836001179836301-085001     179836006003000297610ORN WATERBALL LOVE ASST0000001000+00004823+00000+0001T   00004823+0000001639          1400 K30505               1AZ
179836002179836080-000127     179836006003000424351VALENTINES DAY 36x24CM 0000001000+00002192+00000+0001T   00002192+0000001639          1400 K30112               1AZ
179836003179836018-000177     179836006001023797513MUG MINI LOVE ASSTD    0000001000+00000700+00000+0001T   00000700+0000001639          1400 K30515               1AZ
179837000179837               179837               170213JF     1400+00000+JF0000003504+0000003504+000000000+000000492+0000003990+0000000006+I20000000000+0000003990+Z
179837001179837077-000011-C   179837006001023808523TISSUE 10xSHTS RED     0000002000+00000876+00000+0001T   00000876+0000001639          1400 K30112               1AZ
179837002179837077-000011-D   179837006001023808554TISSUE-WRAP WHITE 10PCE0000002000+00000876+00000+0001T   00000876+0000001639          1400 K30112               1AZ
179838000179838               179838               170213JF     1400+00000+JF0000003541+0000003541+000000000+000000497+0000004030+0000000008+I20000000000+0000004030+Z
179838001179838079-003002     179838006003000447886A/TUBE 75ML RED        0000002000+00001753+00000+0001T   00001753+0000001640          1400 K30130               1AZ
179838002179838112-116038     179838006009681820246TCS CARRIER BAG MIDI   0000001000+00000035+00000+0001T   00000035+0000001640          1400 K30090               1AZ
179839000179839               179839               170213JF     1400+00000+JF0000005045+0000005045+000000000+000000707+0000005752+0000000000+I40000005752+0000000000+Z
179839001179839018-005035     179839006003000150700MUG NOVELTY CER 3-HNDLE0000001000+00003507+00000+0001T   00003507+0000001646          1400 K30515               1AZ
179839002179839077-000299     179839006003000395576G/BAG 32x25cm LRG LOVE 0000001000+00001490+00000+0001T   00001490+0000001646          1400 K30112               1AZ
179839003179839112-116069     179839006009681820277TCS CARRIER BAG JUMBO  0000001000+00000048+00000+0001T   00000048+0000001646          1400 K30090               1AZ
179840000179840               179840               170213JF     1400+00000+JF0000001490+0000001490+000000000+000000209+0000001690+0000000009+I20000000000+0000001690+Z
179840001179840362-000306     179840006003000450039HAIR BAND SET 18PC     0000001000+00001490+00000+0001T   00001490+0000001646          1400 K30160               1AZ
179841000179841               179841               170213JF     1400+00000+JF0000000612+0000000612+000000000+000000086+0000000690+0000000008+I20000000000+0000000690+Z
179841001179841007-000123     179841006003000533879BOOK COVER 450mmx1.5m  0000002000+00000306+00000+0001T   00000306+0000001650          1400 K30130               1AZ
179842000179842               179842               170213JF     1400+00000+JF0000003507+0000003507+000000000+000000491+0000003990+0000000008+I20000000000+0000003990+Z
179842001179842018-005009     179842006001023725608MUG W/PLUSH-BEAR LOVE  0000001000+00003507+00000+0001T   00003507+0000001651          1400 K30515               1AZ
179843000179843               179843               170213JF     1400+00000+JF0000005700+0000005700+000000000+000000798+0000006498+0000000000+I40000006498+0000000000+Z
179843001179843046-002023-C   179843006001023698254BATTERIES ALKALN CARD-50000001000+00005700+00000+0001T   00005700+0000001653          1400 K30312               1AZ
179844000179844               179844               170213JF     1400+00000+JF0000005262+0000005262+000000000+000000737+0000005999+0000000000+I40000005999+0000000000+Z
179844001179844361-000504     179844006003000593323DOLL MED 29cm SET      0000001000+00005262+00000+0001T   00005262+0000001654          1400 K30725               1AZ
179845000179845               179845               170213JF     1400+00000+JF0000003593+0000003593+000000000+000000504+0000004097+0000000000+I40000004097+0000000000+Z
179845001179845077-000303     179845006001023593757GIFT-BAG PAPER MED     0000002000+00001578+00000+0001T   00001578+0000001655          1400 K30112               1AZ
179845002179845080-000133-A   179845006003000647019MINI VALENTINES CARD   0000001000+00000437+00000+0001T   00000437+0000001655          1400 K30112               1AZ
179846000179846               179846               170213JF     1400+00000+JF0000018110+0000018110+000000000+000002537+0000020647+0000000000+I40000020647+0000000000+Z
179846001179846080-000127     179846006003000424351VALENTINES DAY 36x24CM 0000001000+00002192+00000+0001T   00002192+0000001658          1400 K30112               1AZ
179846002179846006-000190     179846006003000685530BALLOONS LOVE 81x91cm  0000001000+00004385+00000+0001T   00004385+0000001658          1400 K30131               1AZ
179846003179846018-019000     179846006003000557288MUG OCC. LOVE JUMBO    0000001000+00005262+00000+0001T   00005262+0000001658          1400 K30515               1AZ
179846004179846077-000299     179846006003000395576G/BAG 32x25cm LRG LOVE 0000001000+00001490+00000+0001T   00001490+0000001658          1400 K30112               1AZ
179846005179846031-005853     179846006003000442416P/FRAME WDN TWIN HEARTS0000001000+00003507+00000+0001T   00003507+0000001658          1400 K30510               1AZ
179846006179846006-001000     179846006003000093779HELIUM BALLOON FILL    0000002000+00000613+00000+0001T   00000613+0000001658          1400 K30131               1AZ
179846007179846112-116069     179846006009681820277TCS CARRIER BAG JUMBO  0000001000+00000048+00000+0001T   00000048+0000001658          1400 K30090               1AZ
179847000179847               179847               170213JF     1400+00000+JF0000004384+0000004384+000000000+000000614+0000004990+0000000008+I20000000000+0000004990+Z
179847001179847080-000139     179847006003000611690CARD & ENV MINI SET 6PC0000002000+00002192+00000+0001T   00002192+0000001658          1400 K30112               1AZ
179848000179848               179848               170213JF     1400+00000+JF0000003069+0000003069+000000000+000000430+0000003490+0000000009+I20000000000+0000003490+Z
179848001179848030-000030-A   179848006003000249305PLAQUE GLASS LOVE      0000001000+00003069+00000+0001T   00003069+0000001702          1400 K30505               1AZ
179849000179849               179849               170213JF     1400+00000+JF0000006624+0000006624+000000000+000000928+0000007550+0000000002+I20000000000+0000007550+Z
179849001179849366-000400     179849006001023918468DRESS UP SHOES IN BOX  0000001000+00003507+00000+0001T   00003507+0000001703          1400 K30131               1AZ
179849002179849366-000256     179849006001023918406DRESS UP TIARA&EARRINGS0000001000+00003069+00000+0001T   00003069+0000001703          1400 K30131               1AZ
179849003179849112-116069     179849006009681820277TCS CARRIER BAG JUMBO  0000001000+00000048+00000+0001T   00000048+0000001703          1400 K30090               1AZ
179850000179850               179850               170213JF     1400+00000+JF0000014080+0000014080+000000000+000001973+0000016053+0000000000+I40000016053+0000000000+Z
179850001179850368-000113     179850006001023780874PLUSH BLINGED LOVE 30cm0000001000+00012279+00000+0001T   00012279+0000001705          1400 K30745               1AZ
179850002179850089-000030     179850006003000575671K/CHAIN LOVE MTL ASSTD 0000001000+00001753+00000+0001T   00001753+0000001705          1400 K30205               1AZ
179850003179850112-116069     179850006009681820277TCS CARRIER BAG JUMBO  0000001000+00000048+00000+0001T   00000048+0000001705          1400 K30090               1AZ
179851000179851               179851               170213JF     1400+00000+JF0000014053+0000014053+000000000+000001973+0000016020+0000000006+I20000000000+0000016020+Z
179851001179851903-000155     179851006009803374435SWT LOLLY I LUV U HEART0000004000+00000525+00000+0001T   00000525+0000001707          1400 K30150               1AZ
179851002179851562-000010     179851006001023762528KID'S PLAY DOUGH       0000001000+00002630+00000+0001T   00002630+0000001707          1400 K30755               1AZ
179851003179851903-000861     179851005010478430822SWT LOVE HEARTS SML    0000005000+00000876+00000+0001T   00000876+0000001707          1400 K30150               1AZ
179851004179851903-000499     179851006001704012492SWT CHOC MALLOWS 50g   0000003000+00001227+00000+0001T   00001227+0000001707          1400 K30150               1AZ
179851005179851903-000498     179851006001704013048SWT CHOC MIGHTY MALTS  0000001000+00001227+00000+0001T   00001227+0000001707          1400 K30150               1AZ
179851006179851112-116038     179851006009681820246TCS CARRIER BAG MIDI   0000001000+00000035+00000+0001T   00000035+0000001707          1400 K30090               1AZ
179852000179852               179852               170213JF     1400+00000+JF0000006520+0000006520+000000000+000000913+0000007433+0000000000+I40000007433+0000000000+Z
179852001179852077-000303     179852006001023593757GIFT-BAG PAPER MED     0000001000+00001578+00000+0001T   00001578+0000001708          1400 K30112               1AZ
179852002179852018-005009     179852006001023725608MUG W/PLUSH-BEAR LOVE  0000001000+00003507+00000+0001T   00003507+0000001708          1400 K30515               1AZ
179852003179852018-000177     179852006001023797513MUG MINI LOVE ASSTD    0000002000+00000700+00000+0001T   00000700+0000001708          1400 K30515               1AZ
179852004179852112-116038     179852006009681820246TCS CARRIER BAG MIDI   0000001000+00000035+00000+0001T   00000035+0000001708          1400 K30090               1AZ
179853000179853               179853               170213JF     1400+00000+JF0000001753+0000001753+000000000+000000246+0000001990+0000000009+I20000000000+0000001990+Z
179853001179853080-000106     179853006003000237098CARD&ENVLPE BDAY GIRL  0000001000+00001753+00000+0001T   00001753+0000001709          1400 K30112               1AZ
179854000179854               179854               170213JF     1400+00000+JF0000001753+0000001753+000000000+000000246+0000001990+0000000009+I20000000000+0000001990+Z
179854001179854304-001512     179854006003000036202FLOWER S/FLOWER 65CM   0000001000+00001753+00000+0001T   00001753+0000001710          1400 K30510               1AZ
179855000179855               179855               170213JF     1400+00000+JF0000007893+0000007893+000000000+000001106+0000008990+0000000009+I20000000000+0000008990+Z
179855001179855366-000200     179855006003000395682DRESS UP BOA,EARRINGS  0000001000+00007893+00000+0001T   00007893+0000001711          1400 K30131               1AZ
179856000179856               179856               170213JF     1400+00000+JF0000002630+0000002630+000000000+000000369+0000002990+0000000009+I20000000000+0000002990+Z
179856001179856268-000058     179856006001023865748KITE 72x102cm SINGLE   0000001000+00002630+00000+0001T   00002630+0000001712          1400 K30785               1AZ
179857000179857               179857               170213JF     1400+00000+JF0000001753+0000001753+000000000+000000246+0000001990+0000000009+I20000000000+0000001990+Z
179857001179857903-000618     179857006003000672370SWT LOLLY RAINBOW GIANT0000001000+00001753+00000+0001T   00001753+0000001712          1400 K30150               1AZ
179858000179858               179858               170213JF     1400+00000+JF0000003507+0000003507+000000000+000000491+0000003998+0000000000+I40000003998+0000000000+Z
179858001179858018-005009     179858006001023725608MUG W/PLUSH-BEAR LOVE  0000001000+00003507+00000+0001T   00003507+0000001714          1400 K30515               1AZ
179859000179859               179859               170213JF     1400+00000+JF0000012574+0000012574+000000000+000001761+0000014330+0000000005+I20000000000+0000014330+Z
179859001179859077-000303     179859006001023593757GIFT-BAG PAPER MED     0000001000+00001578+00000+0001T   00001578+0000001715          1400 K30112               1AZ
179859002179859089-000220     179859006003000677368KEY CHAIN+PEN+KNIFE    0000001000+00003069+00000+0001T   00003069+0000001715          1400 K30205               1AZ
179859003179859018-000136     179859006001023659026MUG OCC LOVE W/PLUSH   0000001000+00003507+00000+0001T   00003507+0000001715          1400 K30515               1AZ
179859004179859204-000008     179859006003000567652MEMO HLDR MOM POLY     0000001000+00004385+00000+0001T   00004385+0000001715          1400 K30300               1AZ
179859005179859112-116038     179859006009681820246TCS CARRIER BAG MIDI   0000001000+00000035+00000+0001T   00000035+0000001715          1400 K30090               1AZ
179860000179860               179860               170213JF     1400+00000+JF0000004154+0000004154+000000000+000000582+0000004730+0000000006+I20000000000+0000004730+Z
179860001179860079-013032-C   179860006003000389520POLY SHAPES            0000001000+00001578+00000+0001T   00001578+0000001716          1400 K30130               1AZ
179860002179860903-004950     179860006002580020304SWT APRICOT SURPRISE   0000001000+00001314+00000+0001T   00001314+0000001716          1400 K30150               1AZ
179860003179860903-000499     179860006001704012492SWT CHOC MALLOWS 50g   0000001000+00001227+00000+0001T   00001227+0000001716          1400 K30150               1AZ
179860004179860112-116038     179860006009681820246TCS CARRIER BAG MIDI   0000001000+00000035+00000+0001T   00000035+0000001716          1400 K30090               1AZ
179861000179861               179861               170213JF     1400+00000+JF0000005500+0000005500+000000000+000000772+0000006270+0000000002+I20000000000+0000006270+Z
179861001179861112-116038     179861006009681820246TCS CARRIER BAG MIDI   0000002000+00000035+00000+0001T   00000035+0000001718          1400 K30090               1AZ
179861002179861018-000127     179861006001023380289MUG OCC STRAIGHT LOVE  0000002000+00001578+00000+0001T   00001753+0006471718          1400 K30515               1AZ
179861003179861080-000133-A   179861006003000647019MINI VALENTINES CARD   0000002000+00000437+00000+0001T   00000437+0000001718          1400 K30112               1AZ
179861004179861903-000126     179861006002099003591SWT ZILLIONS MINT 50G  0000002000+00000700+00000+0001T   00000700+0000001718          1400 K30150               1AZ
179862000179862               179862               170213JF     1400+00000+JF0000007015+0000007015+000000000+000000983+0000007990+0000000008+I20000000000+0000007990+Z
179862001179862079-003020     179862006003000662944PAINT ACRYLIC SET TUBE 0000001000+00005262+00000+0001T   00005262+0000001719          1400 K30130               1AZ
179862002179862079-000275     179862006003000160488PAINT-BRUSHES 6PCE PRO 0000001000+00001753+00000+0001T   00001753+0000001719          1400 K30130               1AZ
179863000179863               179863               170213JF     1400+00000+JF0000007893+0000007893+000000000+000001106+0000008990+0000000009+I20000000000+0000008990+Z
179863001179863301-085007     179863006003000673698ORN OCC. LOVE S/PLAQUE 0000001000+00007893+00000+0001T   00007893+0000001720          1400 K30505               1AZ
179864000179864               179864               170213JF     1400+00000+JF0000005085+0000005085+000000000+000000712+0000005790+0000000007+I20000000000+0000005790+Z
179864001179864018-005009     179864006001023725608MUG W/PLUSH-BEAR LOVE  0000001000+00003507+00000+0001T   00003507+0000001720          1400 K30515               1AZ
179864002179864077-000315     179864006003000181186GIFT-BAG 20x28cm MATT  0000001000+00001578+00000+0001T   00001578+0000001720          1400 K30112               1AZ
179865000179865               179865               170213JF     1400+00000+JF0000015831+0000015831+000000000+000002219+0000018050+0000000000+I40000018050+0000000000+Z
179865001179865077-000011-D   179865006001023808554TISSUE-WRAP WHITE 10PCE0000001000+00000876+00000+0001T   00000876+0000001722          1400 K30112               1AZ
179865002179865018-000025     179865006003000095056MUG S/WARE V-SHAPE CER.0000001000+00002630+00000+0001T   00002630+0000001722          1400 K30515               1AZ
179865003179865368-000265     179865006001023750914PLUSH BEAR 23CM ASSTD C0000001000+00006139+00000+0001T   00006139+0000001722          1400 K30745               1AZ
179865004179865077-000381     179865006003000247707GIFT-BAG 25X32CM S/COL 0000001000+00001753+00000+0001T   00001753+0000001722          1400 K30112               1AZ
179865005179865403-000033     179865006003000674053JEWELLERY HOLDER MTL   0000001000+00004385+00000+0001T   00004385+0000001722          1400 K30510               1AZ
179865006179865112-116069     179865006009681820277TCS CARRIER BAG JUMBO  0000001000+00000048+00000+0001T   00000048+0000001722          1400 K30090               1AZ
179866000179866               179866               170213JF     1400+00000+JF0000003153+0000003153+000000000+000000442+0000003595+0000000000+I40000003595+0000000000+Z
179866001179866077-000289     179866006001023901996GIFT BOX 20x25x11cm    0000001000+00001753+00000+0001T   00001753+0000001727          1400 K30112               1AZ
179866002179866018-000177     179866006001023797513MUG MINI LOVE ASSTD    0000002000+00000700+00000+0001T   00000700+0000001727          1400 K30515               1AZ
179867000179867               179867               170213JF     1400+00000+JF0000013203+0000013203+000000000+000001850+0000015050+0000000003+I20000000000+0000015050+Z
179867001179867368-000637     179867006001023874092PLUSH BEAR SLEEPING LOV0000001000+00011402+00000+0001T   00012279+0006471728          1400 K30745               1AZ
179867002179867077-000116     179867006003000240777GIFT-WRAP 700mmx2m COL 0000001000+00001753+00000+0001T   00001753+0000001728          1400 K30112               1AZ
179867003179867112-116069     179867006009681820277TCS CARRIER BAG JUMBO  0000001000+00000048+00000+0001T   00000048+0000001728          1400 K30090               1AZ
179868000179868               179868               170213JF     1400+00000+JF0000002366+0000002366+000000000+000000332+0000002690+0000000008+I20000000000+0000002690+Z
179868001179868077-000010-C   179868006001023123879CREPE-PAPER RED        0000001000+00000788+00000+0001T   00000788+0000001731          1400 K30112               1AZ
179868002179868018-000127     179868006001023380289MUG OCC STRAIGHT LOVE  0000001000+00001578+00000+0001T   00001753+0006471731          1400 K30515               1AZ
179869000179869               179869               170213JF     1400+00000+JF0000001753+0000001753+000000000+000000246+0000001990+0000000009+I20000000000+0000001990+Z
179869001179869019-000103     179869006003000280957VASE GLASS BUD 14CM ASS0000001000+00001753+00000+0001T   00001753+0000001735          1400 K30510               1AZ
179870000179870               179870               170213JF     1400+00000+JF0000005835+0000005835+000000000+000000818+0000006650+0000000003+I20000000000+0000006650+Z
179870001179870368-000049     179870006003000536955PLUSH BEAR 15cm LOVE   0000001000+00004385+00000+0001T   00004385+0000001737          1400 K30745               1AZ
179870002179870304-001204     179870006001023737984FLOWER OCC. TEDDY/ROSES0000001000+00001402+00000+0001T   00001490+0006471737          1400 K30510               1AZ
179870003179870112-116069     179870006009681820277TCS CARRIER BAG JUMBO  0000001000+00000048+00000+0001T   00000048+0000001737          1400 K30090               1AZ
179871000179871               179871               170213JF     1400+00000+JF0000005961+0000005961+000000000+000000836+0000006797+0000000000+I40000006797+0000000000+Z
179871001179871018-000129     179871006001023403353MUG OCC. LOVE V-SHAPE  0000001000+00002630+00000+0001T   00002630+0000001739          1400 K30515               1AZ
179871002179871903-000619     179871006003000672455SWT LOLLY STR/BRRY 140G0000001000+00001753+00000+0001T   00001753+0000001739          1400 K30150               1AZ
179871003179871077-000303     179871006001023593757GIFT-BAG PAPER MED     0000001000+00001578+00000+0001T   00001578+0000001739          1400 K30112               1AZ
M17021302                              GLADWIN     JFATT:GLADWIN                                     LAST SLIP ON SLAVE 1                            179871                                          THANK YOU                                       ATLASVILLE(JF)
M17021391                              CASH        JFSLAVE 1                       Z-REPORT No.   653TOTAL (Sales - Refunds)           5926.51       CASH TO BE BANKED                 3177.70       DEBIT CARDS                          0.00       CREDIT CARDS                      2748.81       Z-READING                         5926.51       AIRTIME DEBIT CARD SALES             0.00       AIRTIME CARD SALES                   0.00       OVERS/UNDERS                         0.00       AIRTIME CASH SALES                   0.00       GIFT CARDS                           0.00       GIFT CARD CASH SALES                 0.00       T O T A L  CASH PAYOUTS              0.00                                                                                                                                                                                                                                                                                                                                                      Z
M17021392                              CASH        JFABSENT                                                                                                                                                                                          ANNUAL LEAVE                                                                                                                                                                                    DAY OFF                                                                                                                                                                                         COMMENTS          Z READING IS R5926.51                                                                                                                                                                                                                                                                                                                                                        Z
Y17021300                                          JF00000000520138+000086
ZJF17021319533 SLAVE 1      SALES DATA                     NEXT INVOICE NO.  179872 0653
X JF Slave 1 First invoice 179786 170213 Last invoice 179871 170213 Next invoice 179872 Total number of records 000000312 clbackup completed 19:53:33
