181864000181864               181864               170213JF     1400+00000+JF0000001578+0000001578+000000000+000000221+0000001790+0000000009+I20000000000+0000001790+Z
181864001181864018-000127     181864006001023380289MUG OCC STRAIGHT LOVE  0000001000+00001578+00000+0001T   00001753+0006470857          1400 PM8515               2BZ
181865000181865               181865               170213JF     1400+00000+JF0000002454+0000002454+000000000+000000344+0000002790+0000000008+I20000000000+0000002790+Z
181865001181865077-000011-C   181865006001023808523TISSUE 10xSHTS RED     0000001000+00000876+00000+0001T   00000876+0000000904          1400 PM8112               2BZ
181865002181865077-000303     181865006001023593757GIFT-BAG PAPER MED     0000001000+00001578+00000+0001T   00001578+0000000904          1400 PM8112               2BZ
181866000181866               181866               170213JF     1400+00000+JF0000005262+0000005262+000000000+000000737+0000005990+0000000009+I20000000000+0000005990+Z
181866001181866031-086303-C   181866006003000322527P/FRM CHAMPAGNE 20X25CM0000001000+00005262+00000+0001T   00005262+0000000909          1400 PM8510               2BZ
181867000181867               181867               170213JF     1400+00000+JF0000004420+0000004420+000000000+000000619+0000005030+0000000009+I20000000000+0000005030+Z
181867001181867024-000003     181867006001023462206S/BURNER COVERS ASSTD  0000001000+00004385+00000+0001T   00004385+0000000910          1400 PM8300               2BZ
181867002181867112-116038     181867006009681820246TCS CARRIER BAG MIDI   0000001000+00000035+00000+0001T   00000035+0000000910          1400 PM8090               2BZ
181868000181868               181868               170213JF     1400+00000+JF0000003507+0000003507+000000000+000000491+0000003990+0000000008+I20000000000+0000003990+Z
181868001181868140-001001     181868006001023599926ROACH-TRAPS 5PCE    BOX0000001000+00003507+00000+0001T   00003507+0000000917          1400 PM8830               2BZ
181869000181869               181869               170213JF     1400+00000+JF0000006174+0000006174+000000000+000000865+0000007030+0000000009+I20000000000+0000007030+Z
181869001181869112-116038     181869006009681820246TCS CARRIER BAG MIDI   0000001000+00000035+00000+0001T   00000035+0000000919          1400 PM8090               2BZ
181869002181869018-050000     181869006003000412679MUG OCC LOVE TWIN BEAR 0000001000+00006139+00000+0001T   00006139+0000000919          1400 PM8515               2BZ
181870000181870               181870               170213JF     1400+00000+JF0000000613+0000000613+000000000+000000086+0000000690+0000000009+I20000000000+0000000690+Z
181870001181870304-001011     181870006001023806727FLWR ROSE RED W/BEAR   0000001000+00000613+00000+0001T   00000788+0006470920          1400 PM8510               2BZ
181871000181871               181871               170213JF     1400+00000+JF0000001752+0000001752+000000000+000000246+0000001990+0000000008+I20000000000+0000001990+Z
181871001181871903-000006     181871006923431571571SWEET GS SOUR BELT 50g 0000001000+00000876+00000+0001T   00000876+0000000929          1400 PM8150               2BZ
181871002181871084-001598     181871006003000576609FOOT FILE PL 22cm      0000001000+00000876+00000+0001T   00000876+0000000929          1400 PM8200               2BZ
181872000181872               181872               170213JF     1400+00000+JF0000003506+0000003506+000000000+000000491+0000003990+0000000007+I20000000000+0000003990+Z
181872001181872566-000068     181872006003000418046POP UP LOVE 2 ASSTD    0000001000+00002192+00000+0001T   00002192+0000001012          1400 PM8130               2BZ
181872002181872566-000451     181872006001023788443STICKERS GLITTER ASSTD 0000001000+00001314+00000+0001T   00001753+0008151012          1400 PM8130               2BZ
181873000181873               181873               170213JF     1400+00000+JF0000013272+0000013272+000000000+000001861+0000015133+0000000000+I40000015133+0000000000+Z
181873001181873112-116038     181873006009681820246TCS CARRIER BAG MIDI   0000001000+00000035+00000+0001T   00000035+0000001014          1400 PM8090               2BZ
181873002181873206-000350     181873006003000633265EGG MOULD SUNRISE      0000001000+00002630+00000+0001T   00002630+0000001014          1400 PM8321               2BZ
181873003181873369-001138-D   181873006003000097623BABY BATH VINYL THEMED 0000001000+00002630+00000+0001T   00002630+0000001014          1400 PM8745               2BZ
181873004181873077-000452     181873006003000284986G/BAG METALLIC MED EMB 0000003000+00001490+00000+0001T   00001490+0000001014          1400 PM8112               2BZ
181873005181873018-005009     181873006001023725608MUG W/PLUSH-BEAR LOVE  0000001000+00003507+00000+0001T   00003507+0000001014          1400 PM8515               2BZ
181874000181874               181874               170213JF     1400+00000+JF0000004907+0000004907+000000000+000000689+0000005590+0000000006+I20000000000+0000005590+Z
181874001181874059-011605     181874006001023384072LANTERN 24cm ASSTD-CLRS0000001000-00003946+00000+0001T   00005262+0008191020          1400 PM83052IC            2 Z
181874002181874018-000127     181874006001023380289MUG OCC STRAIGHT LOVE  0000001000+00001578+00000+0001T   00001753+0006471020          1400 PM8515               2BZ
181874003181874140-006004     181874006001023628077FLY-SWATTER RUBBER     0000001000+00001139+00000+0001T   00001139+0000001020          1400 PM8830               2BZ
181874004181874206-000220     181874006003000631704EGG TIMER COLOUR-CHANGE0000001000+00002630+00000+0001T   00002630+0000001020          1400 PM8321               2BZ
181874005181874006-000800     181874006001023902801HAT CABARET 14x18cm    0000002000+00001753+00000+0001T   00001753+0000001020          1400 PM8131               2BZ
181875000181875               181875               170213JF     1400+00000+JF0000011402+0000011402+000000000+000001597+0000012999+0000000000+I40000012999+0000000000+Z
181875001181875003-009213     181875006003000483334O/INSECT STONE 22CM    0000001000+00011402+00000+0001T   00011402+0000001021          1400 PM8505               2BZ
181876000181876               181876               170213JF     1400+00000+JF0000001613+0000001613+000000000+000000226+0000001830+0000000009+I20000000000+0000001830+Z
181876001181876077-000315     181876006003000181186GIFT-BAG 20x28cm MATT  0000001000+00001578+00000+0001T   00001578+0000001024          1400 PM8112               2BZ
181876002181876112-116038     181876006009681820246TCS CARRIER BAG MIDI   0000001000+00000035+00000+0001T   00000035+0000001024          1400 PM8090               2BZ
181877000181877               181877               170213JF     1400+00000+JF0000007927+0000007927+000000000+000001111+0000009030+0000000008+I20000000000+0000009030+Z
181877001181877365-008629     181877006001023494009PLAY C/PHONE B/O MUSIC 0000001000+00002630+00000+0001T   00002630+0000001029          1400 PM8725               2BZ
181877002181877562-006274     181877006001023744432EDU SKETCH-BOARD       0000001000+00005262+00000+0001T   00005262+0000001029          1400 PM8755               2BZ
181877003181877112-116038     181877006009681820246TCS CARRIER BAG MIDI   0000001000+00000035+00000+0001T   00000035+0000001029          1400 PM8090               2BZ
181878000181878               181878               170213JF     1400+00000+JF0000010556+0000010556+000000000+000001478+0000012030+0000000004+I20000000000+0000012030+Z
181878001181878112-116038     181878006009681820246TCS CARRIER BAG MIDI   0000001000+00000035+00000+0001T   00000035+0000001040          1400 PM8090               2BZ
181878002181878560-000101     181878006001023548740ANIMALS OCEAN-IN-TUBE  0000002000+00003507+00000+0001T   00003507+0000001040          1400 PM8745               2BZ
181878003181878133-000010-A   181878006001023997647CLEANING CLOTH ROLL 30 0000001000+00003507+00000+0001T   00003507+0000001040          1400 PM8212               2BZ
181879000181879               181879               170213JF     1400+00000+JF0000006346+0000006346+000000000+000000890+0000007230+0000000006+I20000000000+0000007230+Z
181879001181879112-116038     181879006009681820246TCS CARRIER BAG MIDI   0000001000+00000035+00000+0001T   00000035+0000001042          1400 PM8090               2BZ
181879002181879089-060027     181879006003000245871KEY-CHAIN HEART 6X6cm  0000001000+00003069+00000+0001T   00003069+0000001042          1400 PM8205               2BZ
181879003181879903-000087     181879006001704000161SWT SPECKLED-EGGS 50G  0000001000+00001139+00000+0001T   00001139+0000001042          1400 PM8150               2BZ
181879004181879903-000123     181879006925925909280SWEET GS MINI MALLOWS  0000001000+00000876+00000+0001T   00000876+0000001042          1400 PM8150               2BZ
181879005181879903-000504     181879006001704012416SWT CHOC JELLY BEANS   0000001000+00001227+00000+0001T   00001227+0000001042          1400 PM8150               2BZ
181880000181880               181880               170213JF     1400+00000+JF0000001788+0000001788+000000000+000000251+0000002030+0000000009+I20000000000+0000002030+Z
181880001181880027-001010     181880006001023171481FEATHER-DUSTER PL-HNDLE0000001000+00001753+00000+0001T   00001753+0000001053          1400 PM8212               2BZ
181880002181880112-116038     181880006009681820246TCS CARRIER BAG MIDI   0000001000+00000035+00000+0001T   00000035+0000001053          1400 PM8090               2BZ
181881000181881               181881               170213JF     1400+00000+JF0000000613+0000000613+000000000+000000086+0000000690+0000000009+I20000000000+0000000690+Z
181881001181881304-001011     181881006001023806727FLWR ROSE RED W/BEAR   0000001000+00000613+00000+0001T   00000788+0006471054          1400 PM8510               2BZ
181882000181882               181882               170213JF     1400+00000+JF0000008771+0000008771+000000000+000001228+0000009990+0000000009+I20000000000+0000009990+Z
181882001181882001-091415     181882006003000329113W/GLS OCC. LOVE 2PC 2800000001000+00008771+00000+0001T   00009648+0006471253          1400 PM8515               2BZ
181883000181883               181883               170213JF     1400+00000+JF0000017410+0000017410+000000000+000002439+0000019840+0000000009+I20000000000+0000019840+Z
181883001181883112-116069     181883006009681820277TCS CARRIER BAG JUMBO  0000001000+00000048+00000+0001T   00000048+0000001309          1400 PM8090               2BZ
181883002181883368-000614     181883006001023705808PLUSH LOVE 30cm        0000001000+00008771+00000+0001T   00008771+0000001309          1400 PM8745               2BZ
181883003181883077-000299-A   181883006003000670888GIFT-BAG PAPER JMB LOVE0000001000+00001753+00000+0001T   00001753+0000001309          1400 PM8112               2BZ
181883004181883080-000127     181883006003000424351VALENTINES DAY 36x24CM 0000002000+00002192+00000+0001T   00002192+0000001309          1400 PM8112               2BZ
181883005181883018-000127     181883006001023380289MUG OCC STRAIGHT LOVE  0000001000+00001578+00000+0001T   00001753+0006471309          1400 PM8515               2BZ
181883006181883083-000295     181883006001023898562LIGHTER-GAS BUTANE 18ml0000001000+00000876+00000+0001T   00000876+0000001309          1400 PM8315               2BZ
181884000181884               181884               170213JF     1400+00000+JF0000015116+0000015116+000000000+000002118+0000017230+0000000004+I20000000000+0000017230+Z
181884001181884112-116038     181884006009681820246TCS CARRIER BAG MIDI   0000001000+00000035+00000+0001T   00000035+0000001313          1400 PM8090               2BZ
181884002181884566-000997     181884006001023554086STICKERS TATTOOS BOOK  0000001000+00003507+00000+0001T   00003507+0000001313          1400 PM8130               2BZ
181884003181884566-000359     181884006003000582709STICKER BOOK LOVE SPARK0000001000+00002192+00000+0001T   00002192+0000001313          1400 PM8130               2BZ
181884004181884007-000557     181884006003000379484DIARY GIRL W/LOCK 50PG 0000001000+00002630+00000+0001T   00002630+0000001313          1400 PM8130               2BZ
181884005181884077-000452     181884006003000284986G/BAG METALLIC MED EMB 0000001000+00001490+00000+0001T   00001490+0000001313          1400 PM8112               2BZ
181884006181884566-000047     181884006003000159093SCRAPBOOK 100xSHEETS   0000001000+00005262+00000+0001T   00005262+0000001313          1400 PM8130               2BZ
181885000181885               181885               170213JF     1400+00000+JF0000005031+0000005031+000000000+000000706+0000005730+0000000007+I20000000000+0000005730+Z
181885001181885112-116038     181885006009681820246TCS CARRIER BAG MIDI   0000001000+00000035+00000+0001T   00000035+0000001314          1400 PM8090               2BZ
181885002181885466-001801     181885006001023343482BALLS TABLE-TENNIS BOX60000001000+00001490+00000+0001T   00001490+0000001314          1400 PM8785               2BZ
181885003181885466-000400     181885006003000137497DART SET-OF-3          0000001000+00002630+00000+0001T   00002630+0000001314          1400 PM8785               2BZ
181885004181885076-000017     181885006001811010022TWINE COTTON 50g-BALL  0000001000+00000876+00000+0001T   00000876+0000001314          1400 PM8810               2BZ
181886000181886               181886               170213JF     1400+00000+JF0000002192+0000002192+000000000+000000307+0000002490+0000000009+I20000000000+0000002490+Z
181886001181886080-000127     181886006003000424351VALENTINES DAY 36x24CM 0000001000+00002192+00000+0001T   00002192+0000001317          1400 PM8112               2BZ
181887000181887               181887               170213JF     1400+00000+JF0000002192+0000002192+000000000+000000307+0000002499+0000000000+I40000002499+0000000000+Z
181887001181887080-000127     181887006003000424351VALENTINES DAY 36x24CM 0000001000+00002192+00000+0001T   00002192+0000001318          1400 PM8112               2BZ
181888000181888               181888               170213JF     1400+00000+JF0000003944+0000003944+000000000+000000553+0000004490+0000000007+I20000000000+0000004490+Z
181888001181888306-000004     181888006003000622177THOOTH DENTAL SOFT TIP 0000001000+00003507+00000+0001T   00004385+0008171327          1400 PM8200               2BZ
181888002181888083-000049     181888004891035200024CIG-LIGHTER DISPOSABLE 0000001000+00000437+00000+0001T   00000437+0000001327          1400 PM8315               2BZ
181889000181889               181889               170213JF     1400+00000+JF0000002192+0000002192+000000000+000000307+0000002490+0000000009+I20000000000+0000002490+Z
181889001181889565-000080     181889006003000643424NOVELTY BENDY          0000001000+00002192+00000+0001T   00002192+0000001336          1400 PM8745               2BZ
181890000181890               181890               170213JF     1400+00000+JF0000014031+0000014031+000000000+000001966+0000015990+0000000007+I20000000000+0000015990+Z
181890001181890079-000275     181890006003000160488PAINT-BRUSHES 6PCE PRO 0000001000+00001753+00000+0001T   00001753+0000001340          1400 PM8130               2BZ
181890002181890079-003020     181890006003000662944PAINT ACRYLIC SET TUBE 0000001000+00005262+00000+0001T   00005262+0000001340          1400 PM8130               2BZ
181890003181890079-001000     181890006003000448470CANVAS A2 WOOD MOUNTED 0000001000+00007016+00000+0001T   00007016+0000001340          1400 PM8130               2BZ
181891000181891               181891               170213JF     1400+00000+JF0000010525+0000010525+000000000+000001474+0000011999+0000000000+I40000011999+0000000000+Z
181891001181891079-001003     181891006003000588640ART+CRAFT PAINT CANVAS 0000001000+00010525+00000+0001T   00010525+0000001342          1400 PM8130               2BZ
181892000181892               181892               170213JF     1400+00000+JF0000008365+0000008365+000000000+000001172+0000009530+0000000007+I20000000000+0000009530+Z
181892001181892046-000012     181892006904708013062BATTERIES AA  CARD-OF-40000001000+00001314+00000+0001T   00001314+0000001345          1400 PM83122IC            2BZ
181892002181892486-001018     181892006001023847447CLOCK ALARM RECTANGULAR0000001000+00007016+00000+0001T   00007016+0000001345          1400 PM8510               2BZ
181892003181892112-116038     181892006009681820246TCS CARRIER BAG MIDI   0000001000+00000035+00000+0001T   00000035+0000001345          1400 PM8090               2BZ
181893000181893               181893               170213JF     1400+00000+JF0000002190+0000002190+000000000+000000308+0000002490+0000000008+I20000000000+0000002490+Z
181893001181893080-000133-A   181893006003000647019MINI VALENTINES CARD   0000001000+00000437+00000+0001T   00000437+0000001345          1400 PM8112               2BZ
181893002181893089-000030     181893006003000575671K/CHAIN LOVE MTL ASSTD 0000001000+00001753+00000+0001T   00001753+0000001345          1400 PM8205               2BZ
181894000181894               181894               170213JF     1400+00000+JF0000001314+0000001314+000000000+000000184+0000001490+0000000008+I20000000000+0000001490+Z
181894001181894903-000844     181894005010478432567SWT CANDY DL LUV HEARTS0000001000+00001314+00000+0001T   00001314+0000001346          1400 PM8150               2BZ
181895000181895               181895               170213JF     1400+00000+JF0000001578+0000001578+000000000+000000221+0000001790+0000000009+I20000000000+0000001790+Z
181895001181895077-000315     181895006003000181186GIFT-BAG 20x28cm MATT  0000001000+00001578+00000+0001T   00001578+0000001347          1400 PM8112               2BZ
181896000181896               181896               170213JF     1400+00000+JF0000005262+0000005262+000000000+000000737+0000005990+0000000009+I20000000000+0000005990+Z
181896001181896006-000345     181896006003000677726GLOW STICKS 50x19.5cm  0000001000+00005262+00000+0001T   00005262+0000001350          1400 PM8131               2BZ
181897000181897               181897               170213JF     1400+00000+JF0000002188+0000002188+000000000+000000308+0000002490+0000000006+I20000000000+0000002490+Z
181897001181897080-000133-A   181897006003000647019MINI VALENTINES CARD   0000002000+00000437+00000+0001T   00000437+0000001353          1400 PM8112               2BZ
181897002181897903-000194     181897006009826020616SWT CHOC RP LOLLY 25G  0000001000+00001314+00000+0001T   00001314+0000001353          1400 PM8150               2BZ
181898000181898               181898               170213JF     1400+00000+JF0000001525+0000001525+000000000+000000214+0000001730+0000000009+I20000000000+0000001730+Z
181898001181898077-000299     181898006003000395576G/BAG 32x25cm LRG LOVE 0000001000+00001490+00000+0001T   00001490+0000001359          1400 PM8112               2BZ
181898002181898112-116038     181898006009681820246TCS CARRIER BAG MIDI   0000001000+00000035+00000+0001T   00000035+0000001359          1400 PM8090               2BZ
181899000181899               181899               170213JF     1400+00000+JF0000017296+0000017296+000000000+000002428+0000019724+0000000000+I40000019724+0000000000+Z
181899001181899077-000011     181899006003000542352PAPER RAFFIA ASSTD COL 0000002000+00001753+00000+0001T   00001753+0000001409          1400 PM8112               2BZ
181899002181899466-001801     181899006001023343482BALLS TABLE-TENNIS BOX60000001000+00001490+00000+0001T   00001490+0000001409          1400 PM8785               2BZ
181899003181899077-000151     181899006008766114676GIFT-WRAP C/PHANE ASSTD0000003000+00000876+00000+0001T   00000876+0000001409          1400 PM8112               2BZ
181899004181899077-000150-D   181899006003000054343GIFT-WRAP CELLPHANE CLR0000001000+00000876+00000+0001T   00000876+0000001409          1400 PM8112               2BZ
181899005181899077-000151     181899006008766114676GIFT-WRAP C/PHANE ASSTD0000008000+00000876+00000+0001T   00000876+0000001409          1400 PM8112               2BZ
181899006181899112-116038     181899006009681820246TCS CARRIER BAG MIDI   0000001000+00000035+00000+0001T   00000035+0000001409          1400 PM8090               2BZ
181899007181899037-000004     181899006001023763679ASHTRAY PL TUB 8X11CM  0000001000+00001753+00000+0001T   00002192+0008191409          1400 PM8515               2BZ
181900000181900               181900               170213JF     1400+00000+JF0000008940+0000008940+000000000+000001253+0000010193+0000000000+I40000010193+0000000000+Z
181900001181900304-001011     181900006001023806727FLWR ROSE RED W/BEAR   0000001000+00000613+00000+0001T   00000788+0006471411          1400 PM8510               2BZ
181900002181900301-085004     181900006003000420469ORN LOVE PLAQUE 21X10CM0000001000+00003507+00000+0001T   00003946+0006471411          1400 PM8505               2BZ
181900003181900007-000597     181900006009699511129MARLIN SLF ADHESIVE 2M 0000001000+00002192+00000+0001T   00002192+0000001411          1400 PM8130               2BZ
181900004181900077-000150-D   181900006003000054343GIFT-WRAP CELLPHANE CLR0000003000+00000876+00000+0001T   00000876+0000001411          1400 PM8112               2BZ
181901000181901               181901               170213JF     1400+00000+JF0000003506+0000003506+000000000+000000492+0000003998+0000000000+I40000003998+0000000000+Z
181901001181901200-003024     181901006001023657299REFUSE BAGS 20PCE BLACK0000001000+00001753+00000+0001T   00001753+0000001415          1400 PM8214               2BZ
181901002181901079-006500     181901006001023557186GLUE GLITTER 6/10 PCE  0000001000+00001753+00000+0001T   00001753+0000001415          1400 PM8130               2BZ
181902000181902               181902               170213JF     1400+00000+JF0000001490+0000001490+000000000+000000209+0000001699+0000000000+I40000001699+0000000000+Z
181902001181902028-000796     181902006001023812094SKEWERS 25cm 50PCE 4mm 0000001000+00001490+00000+0001T   00001490+0000001417          1400 PM8305               2BZ
181903000181903               181903               170213JF     1400+00000+JF0000008804+0000008804+000000000+000001233+0000010037+0000000000+I40000010037+0000000000+Z
181903001181903112-116038     181903006009681820246TCS CARRIER BAG MIDI   0000001000+00000035+00000+0001T   00000035+0000001418          1400 PM8090               2BZ
181903002181903031-000856     181903006001023852113P/FRAME PL BROWN 10X15 0000001000+00003507+00000+0001T   00003507+0000001418          1400 PM8510               2BZ
181903003181903041-000300     181903006003000421862EVERYDAY BATH SET 3pc  0000001000+00005262+00000+0001T   00005262+0000001418          1400 PM8200               2BZ
181904000181904               181904               170213JF     1400+00000+JF0000006048+0000006048+000000000+000000848+0000006890+0000000006+I20000000000+0000006890+Z
181904001181904903-000137     181904006002099004130SWEET GS JELLY BEAN 60G0000001000+00000788+00000+0001T   00000788+0000001419          1400 PM8150               2BZ
181904002181904903-004950     181904006002580020304SWT APRICOT SURPRISE   0000001000+00001314+00000+0001T   00001314+0000001419          1400 PM8150               2BZ
181904003181904159-000103     181904006001023890214SHOWER CADDY PL-COATED 0000001000+00003946+00000+0001T   00003946+0000001419          1400 PM8200               2BZ
181905000181905               181905               170213JF     1400+00000+JF0000006139+0000006139+000000000+000000860+0000006999+0000000000+I40000006999+0000000000+Z
181905001181905004-079102     181905006003000605033USB POWER BANK 1200MAH 0000001000+00006139+00000+0001T   00006139+0000001423          1400 PM8310               2BZ
181906000181906               181906               170213JF     1400+00000+JF0000009506+0000009506+000000000+000001332+0000010830+0000000008+I20000000000+0000010830+Z
181906001181906301-085007     181906006003000673698ORN OCC. LOVE S/PLAQUE 0000001000+00007893+00000+0001T   00007893+0000001425          1400 PM8505               2BZ
181906002181906080-000124     181906006003000297733CARD & ENV VALENTINES  0000001000+00001578+00000+0001T   00001578+0000001425          1400 PM8112               2BZ
181906003181906112-116038     181906006009681820246TCS CARRIER BAG MIDI   0000001000+00000035+00000+0001T   00000035+0000001425          1400 PM8090               2BZ
181907000181907               181907               170213JF     1400+00000+JF0000001753+0000001753+000000000+000000246+0000001990+0000000009+I20000000000+0000001990+Z
181907001181907078-000026     181907006936198407090SUPERGLUE 3,0g GEL     0000001000+00001753+00000+0001T   00001753+0000001435          1400 PM8810               2BZ
181908000181908               181908               170213JF     1400+00000+JF0000001753+0000001753+000000000+000000246+0000001990+0000000009+I20000000000+0000001990+Z
181908001181908077-000299-A   181908006003000670888GIFT-BAG PAPER JMB LOVE0000001000+00001753+00000+0001T   00001753+0000001435          1400 PM8112               2BZ
181909000181909               181909               170213JF     1400+00000+JF0000000048+0000000048+000000000+000000007+0000000050+0000000005+I20000000000+0000000050+Z
181909001181909112-116069     181909006009681820277TCS CARRIER BAG JUMBO  0000001000+00000048+00000+0001T   00000048+0000001436          1400 PM8090               2BZ
181910000181910               181910               170213JF     1400+00000+JF0000001753+0000001753+000000000+000000246+0000001990+0000000009+I20000000000+0000001990+Z
181910001181910369-001138     181910006003000555185VINYL 8.5cm THEMED DUCK0000001000+00001753+00000+0001T   00002630+0008141437          1400 PM8745               2BZ
181911000181911               181911               170213JF     1400+00000+JF0000001753+0000001753+000000000+000000246+0000001990+0000000009+I20000000000+0000001990+Z
181911001181911077-000455     181911006003000285389G/BAG METALLIC LRG SOL 0000001000+00001753+00000+0001T   00001753+0000001444          1400 PM8112               2BZ
181912000181912               181912               170213JF     1400+00000+JF0000013409+0000013409+000000000+000001901+0000015310+0000000000+I20000000000+0000015310+Z
181912001181912903-000183     181912006003000451043SWT LB HEART LOLLY     0000024000+00000393+00000+0001T   00000393+0000001448          1400 PM8150               2BZ
181912002181912903-000194     181912006009826020616SWT CHOC RP LOLLY 25G  0000003000+00001314+00000+0001T   00001314+0000001448          1400 PM8150               2BZ
181912003181912112-116038     181912006009681820246TCS CARRIER BAG MIDI   0000001000+00000035+00000+0001T   00000035+0000001448          1400 PM8090               2BZ
181913000181913               181913               170213JF     1400+00000+JF0000011402+0000011402+000000000+000001597+0000012990+0000000009+I20000000000+0000012990+Z
181913001181913368-000637     181913006001023874092PLUSH BEAR SLEEPING LOV0000001000+00011402+00000+0001T   00012279+0006471452          1400 PM8745               2BZ
181914000181914               181914               170213JF     1400+00000+JF0000005786+0000005786+000000000+000000811+0000006590+0000000007+I20000000000+0000006590+Z
181914001181914566-000303     181914006003000445592STCKRS FOIL SPARKLE ASS0000001000+00001402+00000+0001T   00001402+0000001453          1400 PM8130               2BZ
181914002181914301-085000     181914006003000674299 ORN OCC. LOVE HEARTS  0000001000+00002192+00000+0001T   00002192+0000001453          1400 PM8505               2BZ
181914003181914566-000359     181914006003000582709STICKER BOOK LOVE SPARK0000001000+00002192+00000+0001T   00002192+0000001453          1400 PM8130               2BZ
181915000181915               181915               170213JF     1400+00000+JF0000014030+0000014030+000000000+000001966+0000015990+0000000006+I20000000000+0000015990+Z
181915001181915003-008010     181915006001023711373ORN FIG. FARMER ASST   0000002000+00005262+00000+0001T   00005262+0000001456          1400 PM8505               2BZ
181915002181915080-000113     181915006003000237449CARD&ENVLPE - LOVE     0000001000+00001753+00000+0001T   00001753+0000001456          1400 PM8112               2BZ
181915003181915051-600653     181915006003000267774PLANT SEED TRAY 60CUP  0000001000+00001753+00000+0001T   00001753+0000001456          1400 PM88202IC            2BZ
181916000181916               181916               170213JF     1400+00000+JF0000012935+0000012935+000000000+000001812+0000014740+0000000007+I20000000000+0000014740+Z
181916001181916112-116069     181916006009681820277TCS CARRIER BAG JUMBO  0000001000+00000048+00000+0001T   00000048+0000001458          1400 PM8090               2BZ
181916002181916018-000136     181916006001023659026MUG OCC LOVE W/PLUSH   0000002000+00003507+00000+0001T   00003507+0000001458          1400 PM8515               2BZ
181916003181916077-000011-D   181916006001023808554TISSUE-WRAP WHITE 10PCE0000001000+00000876+00000+0001T   00000876+0000001458          1400 PM8112               2BZ
181916004181916301-085004     181916006003000420469ORN LOVE PLAQUE 21X10CM0000001000+00003507+00000+0001T   00003946+0006471458          1400 PM8505               2BZ
181916005181916077-000299     181916006003000395576G/BAG 32x25cm LRG LOVE 0000001000+00001490+00000+0001T   00001490+0000001458          1400 PM8112               2BZ
181917000181917               181917               170213JF     1400+00000+JF0000017588+0000017588+000000000+000002463+0000020051+0000000000+I40000020051+0000000000+Z
181917001181917112-116069     181917006009681820277TCS CARRIER BAG JUMBO  0000001000+00000048+00000+0001T   00000048+0000001501          1400 PM8090               2BZ
181917002181917368-000049     181917006003000536955PLUSH BEAR 15cm LOVE   0000004000+00004385+00000+0001T   00004385+0000001501          1400 PM8745               2BZ
181918000181918               181918               170213JF     1400+00000+JF0000001314+0000001314+000000000+000000184+0000001490+0000000008+I20000000000+0000001490+Z
181918001181918077-000310     181918006001023608635GIFT-BAG 18X23CM GLOSS 0000001000+00001314+00000+0001T   00001314+0000001502          1400 PM8112               2BZ
181919000181919               181919               170213JF     1400+00000+JF0000027480+0000027480+000000000+000003857+0000031330+0000000007+I20000000000+0000031330+Z
181919001181919112-116069     181919006009681820277TCS CARRIER BAG JUMBO  0000001000+00000048+00000+0001T   00000048+0000001505          1400 PM8090               2BZ
181919002181919206-000590     181919006003000633708BAG CLIPS LIPS 2PC     0000001000+00001753+00000+0001T   00001753+0000001505          1400 PM8321               2BZ
181919003181919002-000325     181919006001023844514SALAD-SERVERS 2PC CLEAR0000001000+00001753+00000+0001T   00001753+0000001505          1400 PM8300               2BZ
181919004181919006-006019     181919006001023908193PARTY-SPRAY GLITTER    0000001000+00002630+00000+0001T   00002630+0000001505          1400 PM8131               2BZ
181919005181919051-600706     181919006003000604197S/GARDEN LIGHT 35cm PL 0000003000+00002367+00000+0001T   00002630+0008191505          1400 PM8820               2BZ
181919006181919077-000115-B   181919006003000181025GIFT-WRAP PPR 700MMX2M 0000003000+00002630+00000+0001T   00002630+0000001505          1400 PM8112               2BZ
181919007181919903-000155     181919006009803374435SWT LOLLY I LUV U HEART0000005000+00000525+00000+0001T   00000525+0000001505          1400 PM8150               2BZ
181919008181919046-000010     181919004897006172987BATTERIES AAA ALKLN 2PC0000001000+00001490+00000+0001T   00001490+0000001505          1400 PM8312               2BZ
181919009181919033-010720     181919006001023678645SAFETY-PINS 50PCE SMALL0000001000+00000876+00000+0001T   00000876+0000001505          1400 PM8200               2BZ
181919010181919903-004950     181919006002580020304SWT APRICOT SURPRISE   0000001000+00001314+00000+0001T   00001314+0000001505          1400 PM8150               2BZ
181920000181920               181920               170213JF     1400+00000+JF0000007713+0000007713+000000000+000001082+0000008795+0000000000+I40000008795+0000000000+Z
181920001181920036-000521     181920006003000338184HOOK-HANGER 8-HOOK     0000001000+00001753+00000+0001T   00001753+0000001508          1400 PM8212               2BZ
181920002181920033-005920-A   181920006001023678249SEWING-THREAD 100m WHT 0000001000+00000700+00000+0001T   00000700+0000001508          1400 PM8200               2BZ
181920003181920159-000045     181920006003000467686HOOKS CHROME PLATED 6PC0000001000+00002630+00000+0001T   00002630+0000001508          1400 PM8200               2BZ
181920004181920036-000314     181920006003000513123COATHANGER FLOCKED 3PCE0000001000+00002630+00000+0001T   00003069+0008161508          1400 PM8212               2BZ
181921000181921               181921               170213JF     1400+00000+JF0000002892+0000002892+000000000+000000406+0000003290+0000000008+I20000000000+0000003290+Z
181921001181921079-006494     181921006003000159864GLITTER GLUE 5PCE 11cm 0000001000+00001490+00000+0001T   00001490+0000001508          1400 PM8130               2BZ
181921002181921566-000303     181921006003000445592STCKRS FOIL SPARKLE ASS0000001000+00001402+00000+0001T   00001402+0000001508          1400 PM8130               2BZ
181922000181922               181922               170213JF     1400+00000+JF0000005085+0000005085+000000000+000000712+0000005797+0000000000+I40000005797+0000000000+Z
181922001181922368-000049     181922006003000536955PLUSH BEAR 15cm LOVE   0000001000+00004385+00000+0001T   00004385+0000001510          1400 PM8745               2BZ
181922002181922018-000177     181922006001023797513MUG MINI LOVE ASSTD    0000001000+00000700+00000+0001T   00000700+0000001510          1400 PM8515               2BZ
181923000181923               181923               170213JF     1400+00000+JF0000005260+0000005260+000000000+000000738+0000005990+0000000008+I20000000000+0000005990+Z
181923001181923162-010779     181923006001492107790#TAG LDS ALICEBAND     0000001000+00002630+00000+0001T   00002630+0000001515          1400 PM8160               2BZ
181923002181923079-013032-D   181923006003000389643RIBBONS                0000001000+00002630+00000+0001T   00002630+0000001515          1400 PM8130               2BZ
181924000181924               181924               170213JF     1400+00000+JF0000001801+0000001801+000000000+000000253+0000002050+0000000004+I20000000000+0000002050+Z
181924001181924466-000103     181924006001023642134BALL 20cm ASSTD        0000001000+00001753+00000+0001T   00001753+0000001517          1400 PM8785               2BZ
181924002181924112-116069     181924006009681820277TCS CARRIER BAG JUMBO  0000001000+00000048+00000+0001T   00000048+0000001517          1400 PM8090               2BZ
181925000181925               181925               170213JF     1400+00000+JF0000003768+0000003768+000000000+000000529+0000004290+0000000007+I20000000000+0000004290+Z
181925001181925304-001142     181925006003000679256FLWR MINI SUCCULENT 7CM0000001000+00001490+00000+0001T   00001490+0000001517          1400 PM8510               2BZ
181925002181925304-001141     181925006003000679133FLOWER MINI SUCCULENT  0000002000+00001139+00000+0001T   00001139+0000001517          1400 PM8510               2BZ
181926000181926               181926               170213JF     1400+00000+JF0000011431+0000011431+000000000+000001603+0000013034+0000000000+I40000013034+0000000000+Z
181926001181926304-001126     181926006001023845047FLWR BUNCH GERBERA 31cm0000001000+00002630+00000+0001T   00002630+0000001520          1400 PM8510               2BZ
181926002181926019-071597     181926006008766071597PEBBLES 250g CLEAR  BAG0000001000+00002192+00000+0001T   00002192+0000001520          1400 PM8510               2BZ
181926003181926019-071595     181926006001023756428PEBBLES 250g SKY-BLUE  0000001000+00001753+00000+0001T   00001753+0000001520          1400 PM8510               2BZ
181926004181926072-020311     181926006003000494132PET DOG TOY VINYL BALL 0000001000+00003069+00000+0001T   00003069+0000001520          1400 PM8870               2BZ
181926005181926112-116038     181926006009681820246TCS CARRIER BAG MIDI   0000001000+00000035+00000+0001T   00000035+0000001520          1400 PM8090               2BZ
181926006181926903-000297     181926006001704002950SWT MS WILD BERRY 50G  0000001000+00000876+00000+0001T   00000876+0000001520          1400 PM8150               2BZ
181926007181926903-000295     181926006001704002899SWT MS FRUITY RASCALS  0000001000+00000876+00000+0001T   00000876+0000001520          1400 PM8150               2BZ
181927000181927               181927               170213JF     1400+00000+JF0000015169+0000015169+000000000+000002126+0000017290+0000000005+I20000000000+0000017290+Z
181927001181927586-096177     181927006001492961774WATCH LADIES RND SILVER0000001000+00008771+00000+0001T   00008771+0000001521          1400 PM8160               2BZ
181927002181927077-000240     181927006003000326259G/RIBBON 4PC PEARLIZED 0000001000+00001753+00000+0001T   00001753+0000001521          1400 PM8112               2BZ
181927003181927200-000003     181927006003000532360DISPOSABLE BAG 100PC   0000001000+00002630+00000+0001T   00002630+0000001521          1400 PM8214               2BZ
181927004181927071-000874     181927006003000010110RUB-BANDS PLN BAG-30   0000001000+00000525+00000+0001T   00000525+0000001521          1400 PM8130               2BZ
181927005181927034-078833     181927006001023857491SIGN BABY-ON-BOARD     0000001000+00001490+00000+0001T   00001490+0000001521          1400 PM8215               2BZ
181928000181928               181928               170213JF     1400+00000+JF0000002839+0000002839+000000000+000000398+0000003230+0000000007+I20000000000+0000003230+Z
181928001181928112-116038     181928006009681820246TCS CARRIER BAG MIDI   0000001000+00000035+00000+0001T   00000035+0000001527          1400 PM8090               2BZ
181928002181928565-000044     181928006003000128280BARREL OF SLIME 100g   0000002000+00000613+00000+0001T   00000613+0000001527          1400 PM8745               2BZ
181928003181928018-000127     181928006001023380289MUG OCC STRAIGHT LOVE  0000001000+00001578+00000+0001T   00001753+0006471527          1400 PM8515               2BZ
181929000181929               181929               170213JF     1400+00000+JF0000011252+0000011252+000000000+000001578+0000012830+0000000000+I20000000000+0000012830+Z
181929001181929112-116038     181929006009681820246TCS CARRIER BAG MIDI   0000001000+00000035+00000+0001T   00000035+0000001531          1400 PM8090               2BZ
181929002181929566-001108     181929000721129017341NAIL-JEWELLERY ASSTD   0000007000+00000876+00000+0001T   00000876+0000001531          1400 PM8130               2BZ
181929003181929566-001234     181929006003000217793STICKERS LASER ASSTD   0000001000+00001578+00000+0001T   00001578+0000001531          1400 PM8130               2BZ
181929004181929018-000136     181929006001023659026MUG OCC LOVE W/PLUSH   0000001000+00003507+00000+0001T   00003507+0000001531          1400 PM8515               2BZ
181930000181930               181930               170213JF     1400+00000+JF0000000876+0000000876+000000000+000000123+0000000990+0000000009+I20000000000+0000000990+Z
181930001181930084-070005     181930006001023627902NAIL FILES 6PCE H/GLOW 0000001000+00000876+00000+0001T   00000876+0000001531          1400 PM8200               2BZ
181931000181931               181931               170213JF     1400+00000+JF0000005470+0000005470+000000000+000000767+0000006230+0000000007+I20000000000+0000006230+Z
181931001181931112-116038     181931006009681820246TCS CARRIER BAG MIDI   0000001000+00000035+00000+0001T   00000035+0000001534          1400 PM8090               2BZ
181931002181931159-000114     181931006001023507945SHOWER CAP PVC ASSTD   0000001000+00001490+00000+0001T   00001490+0000001534          1400 PM8200               2BZ
181931003181931306-000024-A   181931006003000577309COTTON-WOOL-PADS 80PC  0000001000+00001753+00000+0001T   00001753+0000001534          1400 PM8200               2BZ
181931004181931306-000026     181931006003000207626COTTON WOOL ROLL 100G  0000001000+00002192+00000+0001T   00002192+0000001534          1400 PM8200               2BZ
181932000181932               181932               170213JF     1400+00000+JF0000001753+0000001753+000000000+000000246+0000001990+0000000009+I20000000000+0000001990+Z
181932001181932037-000004     181932006001023763679ASHTRAY PL TUB 8X11CM  0000001000+00001753+00000+0001T   00002192+0008191535          1400 PM8515               2BZ
181933000181933               181933               170213JF     1400+00000+JF0000004733+0000004733+000000000+000000664+0000005390+0000000007+I20000000000+0000005390+Z
181933001181933903-000095     181933006001704011495SWT SPECKLED-EGGS 100G 0000001000+00002104+00000+0001T   00002104+0000001538          1400 PM8150               2BZ
181933002181933903-000494     181933006001704009911SWT GUMMY TEENY TEDDIES0000001000+00000876+00000+0001T   00000876+0000001538          1400 PM8150               2BZ
181933003181933206-000120     181933006003000628308PEELER CARROT SHARPENER0000001000+00001753+00000+0001T   00001753+0000001538          1400 PM8321               2BZ
181934000181934               181934               170213JF     1400+00000+JF0000000436+0000000436+000000000+000000062+0000000490+0000000008+I20000000000+0000000490+Z
181934001181934006-000172-A   181934006003000609765BALLOONS METALLIC PINK 0000002000+00000218+00000+0001T   00000218+0000001540          1400 PM8131               2BZ
181935000181935               181935               170213JF     1400+00000+JF0000000788+0000000788+000000000+000000111+0000000890+0000000009+I20000000000+0000000890+Z
181935001181935077-000383     181935006003000247943GIFT-BAG 11X14CM S/COL 0000001000+00000788+00000+0001T   00000788+0000001544          1400 PM8112               2BZ
181936000181936               181936               170213JF     1400+00000+JF0000002404+0000002404+000000000+000000339+0000002740+0000000003+I20000000000+0000002740+Z
181936001181936006-000166-H   181936006003000608096BALLOONS HELIUM 6PC WHT0000001000+00001314+00000+0001T   00001314+0000001546          1400 PM8131               2BZ
181936002181936006-000171-H   181936006003000609574BALLOONS 1PC RED PRINT 0000003000+00000218+00000+0001T   00000218+0000001546          1400 PM8131               2BZ
181936003181936006-000172-H   181936006003000610211BALLOONS METALLIC RED  0000002000+00000218+00000+0001T   00000218+0000001546          1400 PM8131               2BZ
181937000181937               181937               170213JF     1400+00000+JF0000015568+0000015568+000000000+000002182+0000017750+0000000000+I40000017750+0000000000+Z
181937001181937112-116069     181937006009681820277TCS CARRIER BAG JUMBO  0000001000+00000048+00000+0001T   00000048+0000001549          1400 PM8090               2BZ
181937002181937301-085001     181937006003000297610ORN WATERBALL LOVE ASST0000001000+00004823+00000+0001T   00004823+0000001549          1400 PM8505               2BZ
181937003181937018-000170     181937006001023775528MUG OCC. LOVE 2PC MINI 0000001000+00002192+00000+0001T   00002192+0000001549          1400 PM8515               2BZ
181937004181937077-000314     181937006003000181148GIFT-BAG 11X14CM MATT  0000001000+00000876+00000+0001T   00000876+0000001549          1400 PM8112               2BZ
181937005181937077-000452     181937006003000284986G/BAG METALLIC MED EMB 0000001000+00001490+00000+0001T   00001490+0000001549          1400 PM8112               2BZ
181937006181937018-050000     181937006003000412679MUG OCC LOVE TWIN BEAR 0000001000+00006139+00000+0001T   00006139+0000001549          1400 PM8515               2BZ
181938000181938               181938               170213JF     1400+00000+JF0000009680+0000009680+000000000+000001356+0000011036+0000000000+I40000011036+0000000000+Z
181938001181938204-000019     181938006003000677474MEMO HOLDERS THERMOMETE0000001000+00000876+00000+0001T   00000876+0000001551          1400 PM8300               2BZ
181938002181938105-001076     181938006003000279166CONTAINER CLIP LOCK 2L 0000001000+00005262+00000+0001T   00005262+0000001551          1400 PM8210               2BZ
181938003181938105-001068     181938006003000629046CONTAINER CLIP LOCK    0000001000+00003507+00000+0001T   00003507+0000001551          1400 PM8210               2BZ
181938004181938112-116038     181938006009681820246TCS CARRIER BAG MIDI   0000001000+00000035+00000+0001T   00000035+0000001551          1400 PM8090               2BZ
181939000181939               181939               170213JF     1400+00000+JF0000000874+0000000874+000000000+000000124+0000000990+0000000008+I20000000000+0000000990+Z
181939001181939080-000133-A   181939006003000647019MINI VALENTINES CARD   0000002000+00000437+00000+0001T   00000437+0000001551          1400 PM8112               2BZ
181940000181940               181940               170213JF     1400+00000+JF0000006612+0000006612+000000000+000000926+0000007538+0000000000+I40000007538+0000000000+Z
181940001181940368-000049     181940006003000536955PLUSH BEAR 15cm LOVE   0000001000+00004385+00000+0001T   00004385+0000001554          1400 PM8745               2BZ
181940002181940080-000127     181940006003000424351VALENTINES DAY 36x24CM 0000001000+00002192+00000+0001T   00002192+0000001554          1400 PM8112               2BZ
181940003181940112-116038     181940006009681820246TCS CARRIER BAG MIDI   0000001000+00000035+00000+0001T   00000035+0000001554          1400 PM8090               2BZ
181941000181941               181941               170213JF     1400+00000+JF0000001490+0000001490+000000000+000000209+0000001690+0000000009+I20000000000+0000001690+Z
181941001181941077-000299     181941006003000395576G/BAG 32x25cm LRG LOVE 0000001000+00001490+00000+0001T   00001490+0000001555          1400 PM8112               2BZ
181942000181942               181942               170213JF     1400+00000+JF0000011696+0000011696+000000000+000001640+0000013336+0000000000+I40000013336+0000000000+Z
181942001181942077-000305     181942006003000395422GIFT-BAG WINE 10X35CM  0000001000+00001490+00000+0001T   00001490+0000001604          1400 PM8112               2BZ
181942002181942077-000472     181942006003000330133G-BAG DESGNR LRG 25X32 0000001000+00001753+00000+0001T   00001753+0000001604          1400 PM8112               2BZ
181942003181942566-000303     181942006003000445592STCKRS FOIL SPARKLE ASS0000001000+00001402+00000+0001T   00001402+0000001604          1400 PM8130               2BZ
181942004181942040-000226     181942006001023845405C/HLDR MTL STAND W/GLS 0000001000+00007016+00000+0001T   00007016+0000001604          1400 PM8510               2BZ
181942005181942112-116038     181942006009681820246TCS CARRIER BAG MIDI   0000001000+00000035+00000+0001T   00000035+0000001604          1400 PM8090               2BZ
181943000181943               181943               170213JF     1400+00000+JF0000005262+0000005262+000000000+000000737+0000005990+0000000009+I20000000000+0000005990+Z
181943001181943266-001025     181943006003000108756BOYS TOYS SWORD 75cm   0000001000+00005262+00000+0001T   00005262+0000001605          1400 PM8710               2BZ
181944000181944               181944               170213JF     1400+00000+JF0000015830+0000015830+000000000+000002219+0000018049+0000000000+I40000018049+0000000000+Z
181944001181944304-001204     181944006001023737984FLOWER OCC. TEDDY/ROSES0000001000+00001402+00000+0001T   00001490+0006471609          1400 PM8510               2BZ
181944002181944077-000270     181944006003000395453GIFT-BAG PPR JMB 33X45 0000001000+00002630+00000+0001T   00002630+0000001609          1400 PM8112               2BZ
181944003181944018-050000     181944006003000412679MUG OCC LOVE TWIN BEAR 0000001000+00006139+00000+0001T   00006139+0000001609          1400 PM8515               2BZ
181944004181944006-000190     181944006003000685530BALLOONS LOVE 81x91cm  0000001000+00004385+00000+0001T   00004385+0000001609          1400 PM8131               2BZ
181944005181944006-001000     181944006003000093779HELIUM BALLOON FILL    0000002000+00000613+00000+0001T   00000613+0000001609          1400 PM8131               2BZ
181944006181944112-116069     181944006009681820277TCS CARRIER BAG JUMBO  0000001000+00000048+00000+0001T   00000048+0000001609          1400 PM8090               2BZ
181945000181945               181945               170213JF     1400+00000+JF0000011837+0000011837+000000000+000001659+0000013496+0000000000+I40000013496+0000000000+Z
181945001181945007-000095     181945006003000530434ENVELOPES WHITE 20PK C60000001000+00002192+00000+0001T   00002192+0000001610          1400 PM8130               2BZ
181945002181945007-000323     181945006009697791042PAPER A4 80GSM 100'S   0000001000+00006139+00000+0001T   00006139+0000001610          1400 PM8130               2BZ
181945003181945564-000025     181945006003000617104BUBBLE NOVELTY         0000002000+00001753+00000+0001T   00001753+0000001610          1400 PM8131               2BZ
181946000181946               181946               170213JF     1400+00000+JF0000003156+0000003156+000000000+000000442+0000003590+0000000008+I20000000000+0000003590+Z
181946001181946077-000303     181946006001023593757GIFT-BAG PAPER MED     0000001000+00001578+00000+0001T   00001578+0000001613          1400 PM8112               2BZ
181946002181946077-000315     181946006003000181186GIFT-BAG 20x28cm MATT  0000001000+00001578+00000+0001T   00001578+0000001613          1400 PM8112               2BZ
181947000181947               181947               170213JF     1400+00000+JF0000004383+0000004383+000000000+000000615+0000004990+0000000008+I20000000000+0000004990+Z
181947001181947027-056188     181947006003000570539DISH BRUSH LADY SHAPE  0000001000+00002630+00000+0001T   00002630+0000001614          1400 PM8212               2BZ
181947002181947079-000341     181947006920705495519FELT-TIP PENS 12PCE    0000001000+00001753+00000+0001T   00001753+0000001614          1400 PM8130               2BZ
181948000181948               181948               170213JF     1400+00000+JF0000001490+0000001490+000000000+000000209+0000001690+0000000009+I20000000000+0000001690+Z
181948001181948077-000299     181948006003000395576G/BAG 32x25cm LRG LOVE 0000001000+00001490+00000+0001T   00001490+0000001618          1400 PM8112               2BZ
181949000181949               181949               170213JF     1400+00000+JF0000010560+0000010560+000000000+000001479+0000012039+0000000000+I40000012039+0000000000+Z
181949001181949112-116038     181949006009681820246TCS CARRIER BAG MIDI   0000001000+00000035+00000+0001T   00000035+0000001624          1400 PM8090               2BZ
181949002181949368-000005     181949006003000616862PLUSH MONSTER 24cm     0000001000+00010525+00000+0001T   00010525+0000001624          1400 PM8745               2BZ
181950000181950               181950               170213JF     1400+00000+JF0000004155+0000004155+000000000+000000583+0000004730+0000000008+I20000000000+0000004730+Z
181950001181950112-116038     181950006009681820246TCS CARRIER BAG MIDI   0000001000+00000035+00000+0001T   00000035+0000001626          1400 PM8090               2BZ
181950002181950089-060027     181950006003000245871KEY-CHAIN HEART 6X6cm  0000001000+00003069+00000+0001T   00003069+0000001626          1400 PM8205               2BZ
181950003181950079-009702-B   181950008427973059491PAPER SIRIO A2 WHITE   0000001000+00001051+00000+0001T   00001051+0000001626          1400 PM8130               2BZ
181951000181951               181951               170213JF     1400+00000+JF0000000876+0000000876+000000000+000000123+0000000990+0000000009+I20000000000+0000000990+Z
181951001181951077-000314     181951006003000181148GIFT-BAG 11X14CM MATT  0000001000+00000876+00000+0001T   00000876+0000001626          1400 PM8112               2BZ
A17021300                                          08552473JFSLAVE 2                       K302IC
A17021301                                          09405262JFSLAVE 2                       PM82IC
A17021302                                          13510918JFSLAVE 2                       PM82IC
B18189200                                          170213JF046-000012     13442642SLAVE 2     PM82IC0000600000+0000001000+0000000000000+
B18191500                                          170213JF051-600653     14555159SLAVE 2     PM82IC0000160000+0000001000+0000000000000+
M17021302                              GLADWIN     JFATT:GLADWIN                                     LAST SLIP ON SLAVE 2                            181951                                          THANK YOU                                       ATLASVILLE(JF)
M17021391                              CASH        JFSLAVE 2                       Z-REPORT No.   648TOTAL (Sales - Refunds)           6282.01       CASH TO BE BANKED                 3920.00       DEBIT CARDS                          0.00       CREDIT CARDS                      2362.01       Z-READING                         6282.01       AIRTIME DEBIT CARD SALES             0.00       AIRTIME CARD SALES                   0.00       OVERS/UNDERS                         0.00       AIRTIME CASH SALES                   0.00       GIFT CARDS                           0.00       GIFT CARD CASH SALES                 0.00       T O T A L  CASH PAYOUTS              0.00                                                                                                                                                                                                                                                                                                                                                      Z
M17021392                              CASH        JFABSENT                                                                                                                                                                                          ANNUAL LEAVE                                                                                                                                                                                    DAY OFF                                                                                                                                                                                         COMMENTS          Z READING IS R6282.01                                                                                                                                                                                                                                                                                                                                                        Z
Y17021300                                          JF00000000555334+000088
ZJF17021319533 SLAVE 2      SALES DATA                     NEXT INVOICE NO.  181952 0648
X JF Slave 2 First invoice 181864 170213 Last invoice 181951 170213 Next invoice 181952 Total number of records 000000322 clbackup completed 19:53:36
