190642000190642               190642               170213JF     1400+00000+JF0000001753+0000001753+000000000+000000246+0000001999+           I90000000000+0000000000+Z
190642001190642466-064834     190642006008766064834BALL W/SPIKES 20cm     0000001000+00001753+00000+0001T063534870000                    1400 2IC7852ICV             Z
190643000190643               190643               170213JF     1400+00000+JF0000006139+0000006139+000000000+000000860+0000006999+           I90000000000+0000000000+Z
190643001190643018-050000     190643006003000412679MUG OCC LOVE TWIN BEAR 0000001000+00006139+00000+0001T023438370000                    1400 2IC5152ICV             Z
M17021301                              SHIEHAAM    JFATT:SHIEHAAM                                    ON THE 12/02/17                                 CASH BANKING R4197.90                           CARDS R4402.17                                  Z READING IS R8692.07                           UNDERS SLAVE 2 R1                               THANK YOU                                       ATLASVILLE(JF)
M17021391                              CASH        JFSLAVE 3                       Z-REPORT No.   475TOTAL (Sales - Refunds)              0.00       CASH TO BE BANKED                    0.00       DEBIT CARDS                          0.00       CREDIT CARDS                         0.00       Z-READING                            0.00       AIRTIME DEBIT CARD SALES             0.00       AIRTIME CARD SALES                   0.00       OVERS/UNDERS                         0.00       AIRTIME CASH SALES                   0.00       GIFT CARDS                           0.00       GIFT CARD CASH SALES                 0.00       T O T A L  CASH PAYOUTS              0.00                                                                                                                                                                                                                                                                                                                                                      Z
M17021392                              CASH        JFABSENT                                                                                                                                                                                          ANNUAL LEAVE                                                                                                                                                                                    DAY OFF                                                                                                                                                                                         COMMENTS                                                                                                                                                                                                                                                                                                                                                                                       Z
Y17021300                                          JF00000000000000+000000
ZJF17021319533 SLAVE 3      SALES DATA                     NEXT INVOICE NO.  190644 0475
L53645200352327-001-006       JF1702131208362ICEUGINIA MASHABA                                                                                                                                                                                                                                                                                                                                                                                                                                                                                                                                                                                                                                                                                                                                                                                                                                                                                                                                                                                      Z
L53645200352327-002-006       JF1702131208392ICEUGINIA MASHABA                                                                                                                                                                                                                                                                                                                                                                                                                                                                                                                                                                                                                                                                                                                                                                                                                                                                                                                                                                                      Z
L53645200352327-003-006       JF1702131208382ICEUGINIA MASHABA                                                                                                                                                                                                                                                                                                                                                                                                                                                                                                                                                                                                                                                                                                                                                                                                                                                                                                                                                                                      Z
L53645200352327-004-006       JF1702131208302ICEUGINIA MASHABA                                                                                                                                                                                                                                                                                                                                                                                                                                                                                                                                                                                                                                                                                                                                                                                                                                                                                                                                                                                      Z
L53645200352327-005-006       JF1702131208282ICEUGINIA MASHABA                                                                                                                                                                                                                                                                                                                                                                                                                                                                                                                                                                                                                                                                                                                                                                                                                                                                                                                                                                                      Z
L53645200352327-006-006       JF1702131208332ICEUGINIA MASHABA                                                                                                                                                                                                                                                                                                                                                                                                                                                                                                                                                                                                                                                                                                                                                                                                                                                                                                                                                                                      Z
L54766600353989-001-004       JF1702131211582ICEUGINIA MASHABA                                                                                                                                                                                                                                                                                                                                                                                                                                                                                                                                                                                                                                                                                                                                                                                                                                                                                                                                                                                      Z
L54766600353989-002-004       JF1702131211552ICEUGINIA MASHABA                                                                                                                                                                                                                                                                                                                                                                                                                                                                                                                                                                                                                                                                                                                                                                                                                                                                                                                                                                                      Z
L54766600353989-003-004       JF1702131212022ICEUGINIA MASHABA                                                                                                                                                                                                                                                                                                                                                                                                                                                                                                                                                                                                                                                                                                                                                                                                                                                                                                                                                                                      Z
L54766600353989-004-004       JF1702131212142ICEUGINIA MASHABA                                                                                                                                                                                                                                                                                                                                                                                                                                                                                                                                                                                                                                                                                                                                                                                                                                                                                                                                                                                      Z
L55071600348016-001-001       JF1702131209002ICEUGINIA MASHABA                                                                                                                                                                                                                                                                                                                                                                                                                                                                                                                                                                                                                                                                                                                                                                                                                                                                                                                                                                                      Z
L55647900357071-001-003       JF1702131211442ICEUGINIA MASHABA                                                                                                                                                                                                                                                                                                                                                                                                                                                                                                                                                                                                                                                                                                                                                                                                                                                                                                                                                                                      Z
L55647900357071-002-003       JF1702131211472ICEUGINIA MASHABA                                                                                                                                                                                                                                                                                                                                                                                                                                                                                                                                                                                                                                                                                                                                                                                                                                                                                                                                                                                      Z
L55647900357071-003-003       JF1702131211402ICEUGINIA MASHABA                                                                                                                                                                                                                                                                                                                                                                                                                                                                                                                                                                                                                                                                                                                                                                                                                                                                                                                                                                                      Z
L55660300349544-001-002       JF1702131207012ICEUGINIA MASHABA                                                                                                                                                                                                                                                                                                                                                                                                                                                                                                                                                                                                                                                                                                                                                                                                                                                                                                                                                                                      Z
L55660300349544-002-002       JF1702131206122ICEUGINIA MASHABA                                                                                                                                                                                                                                                                                                                                                                                                                                                                                                                                                                                                                                                                                                                                                                                                                                                                                                                                                                                      Z
L55709500353265-001-002       JF1702131206552ICEUGINIA MASHABA                                                                                                                                                                                                                                                                                                                                                                                                                                                                                                                                                                                                                                                                                                                                                                                                                                                                                                                                                                                      Z
L55709500353265-002-002       JF1702131206142ICEUGINIA MASHABA                                                                                                                                                                                                                                                                                                                                                                                                                                                                                                                                                                                                                                                                                                                                                                                                                                                                                                                                                                                      Z
L56245200353975-001-004       JF1702131211292ICEUGINIA MASHABA                                                                                                                                                                                                                                                                                                                                                                                                                                                                                                                                                                                                                                                                                                                                                                                                                                                                                                                                                                                      Z
L56245200353975-002-004       JF1702131211312ICEUGINIA MASHABA                                                                                                                                                                                                                                                                                                                                                                                                                                                                                                                                                                                                                                                                                                                                                                                                                                                                                                                                                                                      Z
L56245200353975-003-004       JF1702131211242ICEUGINIA MASHABA                                                                                                                                                                                                                                                                                                                                                                                                                                                                                                                                                                                                                                                                                                                                                                                                                                                                                                                                                                                      Z
L56245200353975-004-004       JF1702131211262ICEUGINIA MASHABA                                                                                                                                                                                                                                                                                                                                                                                                                                                                                                                                                                                                                                                                                                                                                                                                                                                                                                                                                                                      Z
L56873900358744-001-001       JF1702131208532ICEUGINIA MASHABA                                                                                                                                                                                                                                                                                                                                                                                                                                                                                                                                                                                                                                                                                                                                                                                                                                                                                                                                                                                      Z
L57016300352423-001-002       JF1702131207102ICEUGINIA MASHABA                                                                                                                                                                                                                                                                                                                                                                                                                                                                                                                                                                                                                                                                                                                                                                                                                                                                                                                                                                                      Z
L57016300352423-002-002       JF1702131207132ICEUGINIA MASHABA                                                                                                                                                                                                                                                                                                                                                                                                                                                                                                                                                                                                                                                                                                                                                                                                                                                                                                                                                                                      Z
L57020900353795-001-003       JF1702131210322ICEUGINIA MASHABA                                                                                                                                                                                                                                                                                                                                                                                                                                                                                                                                                                                                                                                                                                                                                                                                                                                                                                                                                                                      Z
L57020900353795-002-003       JF1702131211122ICEUGINIA MASHABA                                                                                                                                                                                                                                                                                                                                                                                                                                                                                                                                                                                                                                                                                                                                                                                                                                                                                                                                                                                      Z
L57020900353795-003-003       JF1702131210002ICEUGINIA MASHABA                                                                                                                                                                                                                                                                                                                                                                                                                                                                                                                                                                                                                                                                                                                                                                                                                                                                                                                                                                                      Z
L57185700356774-001-001       JF1702131208222ICEUGINIA MASHABA                                                                                                                                                                                                                                                                                                                                                                                                                                                                                                                                                                                                                                                                                                                                                                                                                                                                                                                                                                                      Z
L57407200354072-001-002       JF1702131207152ICEUGINIA MASHABA                                                                                                                                                                                                                                                                                                                                                                                                                                                                                                                                                                                                                                                                                                                                                                                                                                                                                                                                                                                      Z
L57407200354072-002-002       JF1702131207192ICEUGINIA MASHABA                                                                                                                                                                                                                                                                                                                                                                                                                                                                                                                                                                                                                                                                                                                                                                                                                                                                                                                                                                                      Z
L57411400350429-001-003       JF1702131207452ICEUGINIA MASHABA                                                                                                                                                                                                                                                                                                                                                                                                                                                                                                                                                                                                                                                                                                                                                                                                                                                                                                                                                                                      Z
L57411400350429-002-003       JF1702131207482ICEUGINIA MASHABA                                                                                                                                                                                                                                                                                                                                                                                                                                                                                                                                                                                                                                                                                                                                                                                                                                                                                                                                                                                      Z
L57411400350429-003-003       JF1702131207382ICEUGINIA MASHABA                                                                                                                                                                                                                                                                                                                                                                                                                                                                                                                                                                                                                                                                                                                                                                                                                                                                                                                                                                                      Z
L57419700350066-001-002       JF1702131206052ICEUGINIA MASHABA                                                                                                                                                                                                                                                                                                                                                                                                                                                                                                                                                                                                                                                                                                                                                                                                                                                                                                                                                                                      Z
L57419700350066-002-002       JF1702131206082ICEUGINIA MASHABA                                                                                                                                                                                                                                                                                                                                                                                                                                                                                                                                                                                                                                                                                                                                                                                                                                                                                                                                                                                      Z
L57444800353335-001-001       JF1702131208202ICEUGINIA MASHABA                                                                                                                                                                                                                                                                                                                                                                                                                                                                                                                                                                                                                                                                                                                                                                                                                                                                                                                                                                                      Z
L57688400358167-001-001       JF1702131208172ICEUGINIA MASHABA                                                                                                                                                                                                                                                                                                                                                                                                                                                                                                                                                                                                                                                                                                                                                                                                                                                                                                                                                                                      Z
L57875100359158-001-001       JF1702131208552ICEUGINIA MASHABA                                                                                                                                                                                                                                                                                                                                                                                                                                                                                                                                                                                                                                                                                                                                                                                                                                                                                                                                                                                      Z
L58232100357224-001-003       JF1702131210102ICEUGINIA MASHABA                                                                                                                                                                                                                                                                                                                                                                                                                                                                                                                                                                                                                                                                                                                                                                                                                                                                                                                                                                                      Z
L58232100357224-002-003       JF1702131210132ICEUGINIA MASHABA                                                                                                                                                                                                                                                                                                                                                                                                                                                                                                                                                                                                                                                                                                                                                                                                                                                                                                                                                                                      Z
L58232100357224-003-003       JF1702131210162ICEUGINIA MASHABA                                                                                                                                                                                                                                                                                                                                                                                                                                                                                                                                                                                                                                                                                                                                                                                                                                                                                                                                                                                      Z
L58242800358464-001-002       JF1702131206012ICEUGINIA MASHABA                                                                                                                                                                                                                                                                                                                                                                                                                                                                                                                                                                                                                                                                                                                                                                                                                                                                                                                                                                                      Z
L58242800358464-002-002       JF1702131205582ICEUGINIA MASHABA                                                                                                                                                                                                                                                                                                                                                                                                                                                                                                                                                                                                                                                                                                                                                                                                                                                                                                                                                                                      Z
L58316700357007-001-002       JF1702131207272ICEUGINIA MASHABA                                                                                                                                                                                                                                                                                                                                                                                                                                                                                                                                                                                                                                                                                                                                                                                                                                                                                                                                                                                      Z
L58316700357007-002-002       JF1702131207232ICEUGINIA MASHABA                                                                                                                                                                                                                                                                                                                                                                                                                                                                                                                                                                                                                                                                                                                                                                                                                                                                                                                                                                                      Z
L58383600354469-001-001       JF1702131208242ICEUGINIA MASHABA                                                                                                                                                                                                                                                                                                                                                                                                                                                                                                                                                                                                                                                                                                                                                                                                                                                                                                                                                                                      Z
L58428500358304-001-002       JF1702131208462ICEUGINIA MASHABA                                                                                                                                                                                                                                                                                                                                                                                                                                                                                                                                                                                                                                                                                                                                                                                                                                                                                                                                                                                      Z
L58428500358304-002-002       JF1702131208432ICEUGINIA MASHABA                                                                                                                                                                                                                                                                                                                                                                                                                                                                                                                                                                                                                                                                                                                                                                                                                                                                                                                                                                                      Z
L58447700358395-001-001       JF1702131208572ICEUGINIA MASHABA                                                                                                                                                                                                                                                                                                                                                                                                                                                                                                                                                                                                                                                                                                                                                                                                                                                                                                                                                                                      Z
T094839018-000177                                          1702130913450000242ICSLAVE 3
T094840018-000177                                          1702130914040000152ICSLAVE 3
T094871018-000177                                          1702130914160000062ICSLAVE 3
T094897018-000177                                          1702130914310000262ICSLAVE 3
V5364520000000177                                                 0000000000000001702130000002ICSLAVE 3     170213161646352327N              06
V5476660000000177                                                 0000000000000001702130000002ICSLAVE 3     170213161801353989Y              04
V5507160000000177                                                 0000000000000001702130000002ICSLAVE 3     170213162202348016Y              01
V5564790000000177                                                 0000000000000001702130000002ICSLAVE 3     170213161816357071N              03
V5566030000000177                                                 0000000000000001702130000002ICSLAVE 3     170213161925349544N              02
V5570950000000177                                                 0000000000000001702130000002ICSLAVE 3     170213161942353265Y              02
V5624520000000177                                                 0000000000000001702130000002ICSLAVE 3     170213162038353975N              04
V5687390000000177                                                 0000000000000001702130000002ICSLAVE 3     170213162148358744Y              01
V5701630000000177                                                 0000000000000001702130000002ICSLAVE 3     170213162005352423N              02
V5702090000000177                                                 0000000000000001702130000002ICSLAVE 3     170213162053353795Y              03
V5718570000000177                                                 0000000000000001702130000002ICSLAVE 3     170213161716356774Y              01
V5740720000000177                                                 0000000000000001702130000002ICSLAVE 3     170213162023354072Y              02
V5741140000000177                                                 0000000000000001702130000002ICSLAVE 3     170213162126350429Y              03
V5741970000000177                                                 0000000000000001702130000002ICSLAVE 3     170213161831350066N              02
V5744480000000177                                                 0000000000000001702130000002ICSLAVE 3     170213161729353335N              01
V5768840000000177                                                 0000000000000001702130000002ICSLAVE 3     170213161743358167N              01
V5787510000000177                                                 0000000000000001702130000002ICSLAVE 3     170213162232359158N              01
V5823210000000177                                                 0000000000000001702130000002ICSLAVE 3     170213162326357224N              03
V5824280000000177                                                 0000000000000001702130000002ICSLAVE 3     170213161909358464Y              02
V5831670000000177                                                 0000000000000001702130000002ICSLAVE 3     170213162110357007Y              02
V5838360000000177                                                 0000000000000001702130000002ICSLAVE 3     170213161703354469N              01
V5842850000000177                                                 0000000000000001702130000002ICSLAVE 3     170213161632358304Y              02
V5844770000000177                                                 0000000000000001702130000002ICSLAVE 3     170213162216358395N              01
X JF Slave 3 First invoice 190642 170213 Last invoice 190643 170213 Next invoice 190644 Total number of records 000000086 clbackup completed 19:53:39
