207140000207140               207140               170213JG     1400+00000+JG0000003153+0000003153+000000000+000000442+0000003590+0000000005+I20000000000+0000003590+Z
207140001207140077-000312     207140006001023608697GIFT-BAG 10X35CM GLOSS 0000001000+00001314+00000+0001T   00001314+0000000900          1400 KS8112               1AZ
207140002207140903-000126     207140006002099003591SWT ZILLIONS MINT 50G  0000001000+00000700+00000+0001T   00000700+0000000900          1400 KS8150               1AZ
207140003207140903-000710     207140006002099007056SWT REFRESHERS MINT    0000001000+00001139+00000+0001T   00001139+0000000900          1400 KS8150               1AZ
207141000207141               207141               170213JG     1400+00000+JG0000008370+0000008370+000000000+000001174+0000009540+0000000004+I20000000000+0000009540+Z
207141001207141079-003004     207141006003000448128TUBE 75ML LIGHT GREEN  0000001000+00001753+00000+0001T   00001753+0000000922          1400 KS8130               1BZ
207141002207141079-003002     207141006003000447886A/TUBE 75ML RED        0000001000+00001753+00000+0001T   00001753+0000000922          1400 KS8130               1BZ
207141003207141071-000012     207141006001177101006CHALK COLOUR 12PCE     0000001000+00000481+00000+0001T   00000481+0000000922          1400 KS8130               1BZ
207141004207141077-000011-R   207141006001023808462P/TISSUE DARK 10-SHEETS0000001000+00000876+00000+0001T   00000876+0000000922          1400 KS8112               1BZ
207141005207141007-000324     20714100600968585864125 SHEETS BRIGHTS MARLI0000001000+00003507+00000+0001T   00003507+0000000922          1400 KS8130               1BZ
207142000207142               207142               170213JG     1400+00000+JG0000012324+0000012324+000000000+000001726+0000014050+0000000000+I20000000000+0000014050+Z
207142001207142112-116069     207142006009681820277TCS CARRIER BAG JUMBO  0000001000+00000048+00000+0001T   00000048+0000000923          1400 KS8090               1BZ
207142002207142368-000001     207142006003000097982Plush Bear 25cm        0000001000+00004385+00000+0001T   00004385+0000000923          1400 KS8745               1BZ
207142003207142301-085004     207142006003000420469ORN LOVE PLAQUE 21X10CM0000001000+00003507+00000+0001T   00003946+0006470923          1400 KS8505               1BZ
207142004207142080-000127     207142006003000424351VALENTINES DAY 36x24CM 0000002000+00002192+00000+0001T   00002192+0000000923          1400 KS8112               1BZ
207143000207143               207143               170213JG     1400+00000+JG0000003191+0000003191+000000000+000000447+0000003630+0000000008+I20000000000+0000003630+Z
207143001207143018-000127     207143006001023380289MUG OCC STRAIGHT LOVE  0000002000+00001578+00000+0001T   00001753+0006470927          1400 KS8515               1AZ
207143002207143112-116038     207143006003000534906TCS CARRIER BAG MIDI   0000001000+00000035+00000+0001T   00000035+0000000927          1400 KS8090               1AZ
207144000207144               207144               170213JG     1400+00000+JG0000003506+0000003506+000000000+000000492+0000003990+0000000008+I20000000000+0000003990+Z
207144001207144200-003024     207144006001023657299REFUSE BAGS 20PCE BLACK0000002000+00001753+00000+0001T   00001753+0000000931          1400 KS8214               1AZ
207145000207145               207145               170213JG     1400+00000+JG0000017410+0000017410+000000000+000002440+0000019850+0000000000+I40000019850+0000000000+Z
207145001207145112-116069     207145006003000535064TCS CARRIER BAG JUMBO  0000001000+00000048+00000+0001T   00000048+0000000936          1400 KS8090               1AZ
207145002207145079-012217     207145006003000289202ART+CRAFT PAINT YOUR   0000001000+00010525+00000+0001T   00012279+0008190936          1400 KS8130               1AZ
207145003207145200-000010     207145006925406841061BAG ZIPPERSEAL 35PC    0000001000+00002192+00000+0001T   00002192+0000000936          1400 KS8214               1AZ
207145004207145565-000002     207145006003000308071NOVELTY GROWING ANIMALS0000001000+00001753+00000+0001T   00001753+0000000936          1400 KS8745               1AZ
207145005207145361-000127     207145006003000602216DOLL SML 15cm MERMAID  0000001000+00001753+00000+0001T   00001753+0000000936          1400 KS8725               1AZ
207145006207145039-000322     207145006001023524157B/CANDLES W/HOLDERS 24 0000001000+00001139+00000+0001T   00001139+0000000936          1400 KS8510               1AZ
207146000207146               207146               170213JG     1400+00000+JG0000003946+0000003946+000000000+000000553+0000004490+0000000009+I20000000000+0000004490+Z
207146001207146002-000460     207146006001023770219K/TOOL-RACK 6-PRONG    0000001000+00003946+00000+0001T   00003946+0000000939          1400 KS8300               1AZ
207147000207147               207147               170213JG     1400+00000+JG0000001214+0000001214+000000000+000000173+0000001380+0000000007+I20000000000+0000001380+Z
207147001207147903-000183     207147006003000451043SWT LB HEART LOLLY     0000003000+00000393+00000+0001T   00000393+0000000956          1400 KS8150               1AZ
207147002207147112-116038     207147006003000534906TCS CARRIER BAG MIDI   0000001000+00000035+00000+0001T   00000035+0000000956          1400 KS8090               1AZ
207148000207148               207148               170213JG     1400+00000+JG0000001753+0000001753+000000000+000000246+0000001990+0000000009+I20000000000+0000001990+Z
207148001207148004-078985     207148006003000093267EARPHONES MINI ASST COL0000001000+00001753+00000+0001T   00001753+0000001000          1400 KS8310               1AZ
207149000207149               207149               170213JG     1400+00000+JG0000001753+0000001753+000000000+000000246+0000001990+0000000009+I20000000000+0000001990+Z
207149001207149142-000814     207149006001023183910GLOVES RUBBER  MEDIUM  0000001000+00001753+00000+0001T   00001753+0000001001          1400 KS8810               1AZ
207150000207150               207150               170213JG     1400+00000+JG0000000000+0000000000+000000000+000000000+0000000000+0000000000+I20000000000+0000000000+Z
207150001207150567-010685     207150000088908494138BK COLOURING ASSTD     0000001000-00001753+00000+0001T   00002630+0008131004          1400 KS87572IC            1 Z
207150002207150567-010685     207150000088908494138BK COLOURING ASSTD     0000001000+00001753+00000+0001T   00002630+0008131004          1400 KS87572IC            1 Z
207151000207151               207151               170213JG     1400+00000+JG0000003506+0000003506+000000000+000000492+0000003990+0000000008+I20000000000+0000003990+Z
207151001207151133-000036     207151006003000133376CLOTHS M/PURPOSE PACK-20000001000+00001753+00000+0001T   00001753+0000001015          1400 UK7212               1BZ
207151002207151133-000010     207151006001023905215CLEANING CLOTHS 6PCE   0000001000+00001753+00000+0001T   00001753+0000001015          1400 UK7212               1BZ
207152000207152               207152               170213JG     1400+00000+JG0000005259+0000005259+000000000+000000738+0000005990+0000000007+I20000000000+0000005990+Z
207152001207152563-000317-K   207152006003000697885SERVIETTE 2PLY 33cm    0000003000+00001753+00000+0001T   00001753+0000001017          1400 UK7214               1BZ
207153000207153               207153               170213JG     1400+00000+JG0000006139+0000006139+000000000+000000860+0000006999+0000000000+I40000006999+0000000000+Z
207153001207153036-000350     207153006003000247776HANGER MTL (FOR SCARVES0000001000+00006139+00000+0001T   00006139+0000001018          1400 UK7212               1BZ
207154000207154               207154               170213JG     1400+00000+JG0000008102+0000008102+000000000+000001135+0000009230+0000000007+I20000000000+0000009230+Z
207154001207154107-004510     207154006002580008968STEP-STOOL PL          0000001000+00005262+00000+0001T   00005262+0000001019          1400 UK7210               1BZ
207154002207154002-000685     207154006001023693785K/TOOL P/MASHER H/HOUSE0000001000+00002192+00000+0001T   00002192+0000001019          1400 UK7300               1BZ
207154003207154083-000055     207154006003000003853LIGHTER ELCTRNC REFILBL0000001000+00000613+00000+0001T   00000613+0000001019          1400 UK7315               1BZ
207154004207154112-116038     207154006009681820246TCS CARRIER BAG MIDI   0000001000+00000035+00000+0001T   00000035+0000001019          1400 UK7090               1BZ
207155000207155               207155               170213JG     1400+00000+JG0000013443+0000013443+000000000+000001885+0000015320+0000000008+I20000000000+0000015320+Z
207155001207155112-116038     207155006009681820246TCS CARRIER BAG MIDI   0000001000+00000035+00000+0001T   00000035+0000001046          1400 KS8090               1AZ
207155002207155077-000299     207155006003000395576G/BAG 32x25cm LRG LOVE 0000002000+00001490+00000+0001T   00001490+0000001046          1400 KS8112               1AZ
207155003207155018-000136     207155006001023659026MUG OCC LOVE W/PLUSH   0000002000+00003507+00000+0001T   00003507+0000001046          1400 KS8515               1AZ
207155004207155903-000183     207155006003000451043SWT LB HEART LOLLY     0000002000+00000393+00000+0001T   00000393+0000001046          1400 KS8150               1AZ
207155005207155903-000194     207155006009826020616SWT CHOC RP LOLLY 25G  0000002000+00001314+00000+0001T   00001314+0000001046          1400 KS8150               1AZ
207156000207156               207156               170213JG     1400+00000+JG0000004205+0000004205+000000000+000000590+0000004790+0000000005+I20000000000+0000004790+Z
207156001207156103-000040     207156006001023723130BASKET SQ 15X15X10cm   0000001000+00002192+00000+0001T   00002192+0000001050          1400 KS8300               1AZ
207156002207156080-000133     207156006003000535613CARD&ENV MINI ASTD DSGN0000001000+00000437+00000+0001T   00000437+0000001050          1400 KS8112               1AZ
207156003207156903-000861     207156005010478430822SWT LOVE HEARTS SML    0000001000+00000876+00000+0001T   00000876+0000001050          1400 KS8150               1AZ
207156004207156018-000177     207156006001023797513MUG MINI LOVE ASSTD    0000001000+00000700+00000+0001T   00000700+0000001050          1400 KS8515               1AZ
207157000207157               207157               170213JG     1400+00000+JG0000007452+0000007452+000000000+000001045+0000008497+0000000000+I40000008497+0000000000+Z
207157001207157029-000009     207157006001023809575BUCKET GALV  2L        0000001000+00004385+00000+0001T   00004385+0000001100          1400 KS8510               1AZ
207157002207157039-000332     207157006001023900470CANDLES 8PCE+NUMBERS   0000001000+00002630+00000+0001T   00002630+0000001100          1400 KS8510               1AZ
207157003207157083-000049     207157004891035200024CIG-LIGHTER DISPOSABLE 0000001000+00000437+00000+0001T   00000437+0000001100          1400 KS8315               1AZ
207158000207158               207158               170213JG     1400+00000+JG0000003506+0000003506+000000000+000000492+0000003990+0000000008+I20000000000+0000003990+Z
207158001207158032-000235     207158006001023468444MIRROR HAND 13X15CM    0000001000+00002630+00000+0001T   00002630+0000001101          1400 KS8510               1AZ
207158002207158033-000106     207158006001023678027ELASTIC  6mmx3m  CARDED0000001000+00000876+00000+0001T   00000876+0000001101          1400 KS8200               1AZ
207159000207159               207159               170213JG     1400+00000+JG0000001753+0000001753+000000000+000000246+0000001990+0000000009+I20000000000+0000001990+Z
207159001207159106-007125     207159006003000057689MILK-SACHET-JUG 1,0L   0000001000+00001753+00000+0001T   00001753+0000001102          1400 KS8210               1AZ
207160000207160               207160               170213JG     1400+00000+JG0000002192+0000002192+000000000+000000307+0000002490+0000000009+I20000000000+0000002490+Z
207160001207160080-000139     207160006003000611690CARD & ENV MINI SET 6PC0000001000+00002192+00000+0001T   00002192+0000001108          1400 KS8112               1AZ
207161000207161               207161               170213JG     1400+00000+JG0000002630+0000002630+000000000+000000369+0000002990+0000000009+I20000000000+0000002990+Z
207161001207161104-000032     207161006003000099696BASKET PL 34x25x8cm    0000001000+00002630+00000+0001T   00002630+0000001111          1400 KS8210               1AZ
207162000207162               207162               170213JG     1400+00000+JG0000003507+0000003507+000000000+000000491+0000003990+0000000008+I20000000000+0000003990+Z
207162001207162463-000128     207162006003000109500SWIM CAP SILICONE ASSTD0000001000+00003507+00000+0001T   00003507+0000001117          1400 KS8785               1AZ
207163000207163               207163               170213JG     1400+00000+JG0000024513+0000024513+000000000+000003435+0000027948+0000000000+I40000027948+0000000000+Z
207163001207163112-116069     207163006003000535064TCS CARRIER BAG JUMBO  0000001000+00000048+00000+0001T   00000048+0000001120          1400 KS8090               1AZ
207163002207163001-000430     207163006003000662128BEER-TUMBLER GLASS     0000001000+00010525+00000+0001T   00010525+0000001120          1400 KS8515               1AZ
207163003207163203-006005     207163006003000364671ICE BALL 18-PC IN PVC  0000001000+00003069+00000+0001T   00003069+0000001120          1400 KS8300               1AZ
207163004207163080-000124     207163006003000297733CARD & ENV VALENTINES  0000001000+00001578+00000+0001T   00001578+0000001120          1400 KS8112               1AZ
207163005207163206-000630     207163006003000631919SPECTACLE CLEANING BRUS0000001000+00001227+00000+0001T   00001227+0000001120          1400 KS8321               1AZ
207163006207163083-000049     207163004891035200024CIG-LIGHTER DISPOSABLE 0000001000+00000437+00000+0001T   00000437+0000001120          1400 KS8315               1AZ
207163007207163039-080945     207163006001023772053C/PILLAR ROUND WHITE   0000001000+00006139+00000+0001T   00006139+0000001120          1400 KS8510               1AZ
207163008207163077-000299     207163006003000395576G/BAG 32x25cm LRG LOVE 0000001000+00001490+00000+0001T   00001490+0000001120          1400 KS8112               1AZ
207164000207164               207164               170213JG     1400+00000+JG0000001753+0000001753+000000000+000000246+0000001990+0000000009+I20000000000+0000001990+Z
207164001207164077-000290     207164006001023902023GIFT BOX 26x32x13cm    0000001000+00001753+00000+0001T   00001753+0000001133          1400 KS8112               1BZ
207165000207165               207165               170213JG     1400+00000+JG0000001572+0000001572+000000000+000000224+0000001796+0000000000+I40000001796+0000000000+Z
207165001207165903-000183     207165006003000451043SWT LB HEART LOLLY     0000004000+00000393+00000+0001T   00000393+0000001135          1400 KS8150               1BZ
207166000207166               207166               170213JG     1400+00000+JG0000000035+0000000035+000000000+000000005+0000000040+0000000000+I20000000000+0000000040+Z
207166001207166112-116038     207166006009681820246TCS CARRIER BAG MIDI   0000001000+00000035+00000+0001T   00000035+0000001136          1400 KS8090               1BZ
207167000207167               207167               170213JG     1400+00000+JG0000001753+0000001753+000000000+000000246+0000001990+0000000009+I20000000000+0000001990+Z
207167001207167016-006509     207167006003000567355S/JAR GLS MINI LABEL   0000001000+00001753+00000+0001T   00002192+0008191136          1400 KS8300               1BZ
207168000207168               207168               170213JG     1400+00000+JG0000001753+0000001753+000000000+000000246+0000001990+0000000009+I20000000000+0000001990+Z
207168001207168200-003024     207168006001023657299REFUSE BAGS 20PCE BLACK0000001000+00001753+00000+0001T   00001753+0000001141          1400 KS8214               1AZ
207169000207169               207169               170213JG     1400+00000+JG0000001572+0000001572+000000000+000000224+0000001790+0000000006+I20000000000+0000001790+Z
207169001207169903-000183     207169006003000451043SWT LB HEART LOLLY     0000004000+00000393+00000+0001T   00000393+0000001144          1400 KS8150               1AZ
207170000207170               207170               170213JG     1400+00000+JG0000010168+0000010168+000000000+000001426+0000011590+0000000004+I20000000000+0000011590+Z
207170001207170159-000653     207170006001023688859BATH-SPONGE MESH W/ROPE0000001000+00001753+00000+0001T   00001753+0000001152          1400 KS8200               1BZ
207170002207170036-000063     207170006009654960436COATHANGERS VIRGIN 5PCE0000001000+00001753+00000+0001T   00001753+0000001152          1400 KS8212               1BZ
207170003207170028-000016     207170006001334007004ICE-BRICK CLEAR    400g0000001000+00001753+00000+0001T   00001753+0000001152          1400 KS8305               1BZ
207170004207170560-000700     207170006001023865830GROWING ANIMALS ASSTD  0000002000+00001578+00000+0001T   00001578+0000001152          1400 KS8745               1BZ
207170005207170071-008229     207170006003000216017PENCIL-BAG ASTD COL A5 0000001000+00001753+00000+0001T   00001753+0000001152          1400 KS8130               1BZ
207171000207171               207171               170213JG     1400+00000+JG0000001578+0000001578+000000000+000000221+0000001790+0000000009+I20000000000+0000001790+Z
207171001207171077-000303     207171006001023593757GIFT-BAG PAPER MED     0000001000+00001578+00000+0001T   00001578+0000001156          1400 KS8112               1BZ
207172000207172               207172               170213JG     1400+00000+JG0000006138+0000006138+000000000+000000860+0000006990+0000000008+I20000000000+0000006990+Z
207172001207172082-007587     207172006003000654338SUNGLASS DESIGNER ASST 0000001000+00004385+00000+0001T   00004385+0000001158          1400 KS8160               1BZ
207172002207172466-008889     207172006001023835376WHISTLE SPORTS+STRING  0000001000+00001753+00000+0001T   00001753+0000001158          1400 KS8785               1BZ
207173000207173               207173               170213JG     1400+00000+JG0000004242+0000004242+000000000+000000595+0000004837+0000000000+I40000004837+0000000000+Z
207173001207173261-002267     207173006001023665126GUN 8-SHOT SUPER-CAP   0000001000+00001753+00000+0001T   00001753+0000001159          1400 KS8710               1BZ
207173002207173078-000025     207173008887013700064SUPERGLUE 3g 1PCE CARD 0000001000+00000876+00000+0001T   00000876+0000001159          1400 KS8810               1BZ
207173003207173112-116038     207173006009681820246TCS CARRIER BAG MIDI   0000001000+00000035+00000+0001T   00000035+0000001159          1400 KS8090               1BZ
207173004207173077-000303     207173006001023593757GIFT-BAG PAPER MED     0000001000+00001578+00000+0001T   00001578+0000001159          1400 KS8112               1BZ
207174000207174               207174               170213JG     1400+00000+JG0000003946+0000003946+000000000+000000553+0000004490+0000000009+I20000000000+0000004490+Z
207174001207174016-002010     207174006003000674480S/BOTTLE GLS W/CAP 1L  0000001000+00003946+00000+0001T   00003946+0000001203          1400 KS8300               1BZ
207175000207175               207175               170213JG     1400+00000+JG0000032044+0000032044+000000000+000004492+0000036536+0000000000+I40000036536+0000000000+Z
207175001207175079-000017     207175006003000098347ART+CRAFT COLOUR ME    0000001000+00003507+00000+0001T   00003507+0000001207          1400 KS8130               1BZ
207175002207175112-116069     207175006009681820277TCS CARRIER BAG JUMBO  0000001000+00000048+00000+0001T   00000048+0000001207          1400 KS8090               1BZ
207175003207175106-000890     207175000876416080628WATER BOTTLE PL 700ml  0000002000+00005262+00000+0001T   00005262+0000001207          1400 KS8210               1BZ
207175004207175200-003026     207175006003000276448REFUSE BAGS 10PCE GREEN0000001000+00001753+00000+0001T   00001753+0000001207          1400 KS8214               1BZ
207175005207175079-013032-D   207175006003000389643RIBBONS                0000001000+00002630+00000+0001T   00002630+0000001207          1400 KS8130               1BZ
207175006207175079-006494     207175006003000159864GLITTER GLUE 5PCE 11cm 0000001000+00001490+00000+0001T   00001490+0000001207          1400 KS8130               1BZ
207175007207175159-000043-H   207175006001023416629HOOKS ADHESIVE 3PCE SQR0000001000+00001139+00000+0001T   00001139+0000001207          1400 KS8200               1BZ
207175008207175079-013032-J   207175006003000542710A&C DIY COLOUR P/FLOWER0000001000+00001753+00000+0001T   00001753+0000001207          1400 KS8130               1BZ
207175009207175077-000317     207175006001023609748GIFT-BAG 11X14CM E/D AN0000001000+00000613+00000+0001T   00000613+0000001207          1400 KS8112               1BZ
207175010207175077-000321     207175006001023677501GIFT-BAG 11X14CM E/D FL0000001000+00000613+00000+0001T   00000613+0000001207          1400 KS8112               1BZ
207175011207175079-014152     207175006003000253074ART+CRAFT PK50 ASSTD   0000001000+00003069+00000+0001T   00003069+0000001207          1400 KS8130               1BZ
207175012207175464-000121     207175006003000640492PLAYING CARDS MINI     0000002000+00000700+00000+0001T   00000700+0000001207          1400 KS8785               1BZ
207175013207175903-000861     207175005010478430822SWT LOVE HEARTS SML    0000002000+00000876+00000+0001T   00000876+0000001207          1400 KS8150               1BZ
207175014207175079-013099     207175006003000081875ART+CRAFT EYES ASSTD   0000001000+00001753+00000+0001T   00001753+0000001207          1400 KS8130               1BZ
207176000207176               207176               170213JG     1400+00000+JG0000005297+0000005297+000000000+000000742+0000006039+0000000000+I40000006039+0000000000+Z
207176001207176366-002195     207176006001023990549DRESS UP WINGS FEATHER 0000001000+00005262+00000+0001T   00005262+0000001208          1400 KS8131               1BZ
207176002207176112-116038     207176006003000534906TCS CARRIER BAG MIDI   0000001000+00000035+00000+0001T   00000035+0000001208          1400 KS8090               1BZ
207177000207177               207177               170213JG     1400+00000+JG0000001753+0000001753+000000000+000000246+0000001990+0000000009+I20000000000+0000001990+Z
207177001207177079-000275     207177006003000160488PAINT-BRUSHES 6PCE PRO 0000001000+00001753+00000+0001T   00001753+0000001217          1400 KS8130               1BZ
207178000207178               207178               170213JG     1400+00000+JG0000001788+0000001788+000000000+000000251+0000002030+0000000009+I20000000000+0000002030+Z
207178001207178105-001021     207178006003000667062CONTAINER MICRO/FREEZER0000001000+00001753+00000+0001T   00002630+0008161232          1400 KS8210               1BZ
207178002207178112-116038     207178006003000534906TCS CARRIER BAG MIDI   0000001000+00000035+00000+0001T   00000035+0000001232          1400 KS8090               1BZ
207179000207179               207179               170213JG     1400+00000+JG0000001489+0000001489+000000000+000000209+0000001690+0000000008+I20000000000+0000001690+Z
207179001207179903-000087     207179006001704000161SWT SPECKLED-EGGS 50G  0000001000+00001139+00000+0001T   00001139+0000001233          1400 KS8150               1BZ
207179002207179903-000159     207179006003000417629SWT LB SMALL DUMMIE    0000001000+00000350+00000+0001T   00000350+0000001233          1400 KS8150               1BZ
207180000207180               207180               170213JG     1400+00000+JG0000002893+0000002893+000000000+000000406+0000003290+0000000009+I20000000000+0000003290+Z
207180001207180036-000151     207180006001023810588COATHANGERS    PACK-10 0000001000+00002893+00000+0001T   00002893+0000001233          1400 KS8212               1BZ
207181000207181               207181               170213JG     1400+00000+JG0000005558+0000005558+000000000+000000779+0000006337+0000000000+I40000006337+0000000000+Z
207181001207181204-000100     207181006003000621989MEMO HOLDER SPEECH 3PCE0000001000+00003069+00000+0001T   00003069+0000001235          1400 KS8300               1BZ
207181002207181018-000127     207181006001023380289MUG OCC STRAIGHT LOVE  0000001000+00001578+00000+0001T   00001753+0006471235          1400 KS8515               1BZ
207181003207181089-000192-A   207181006001023901774KEY-CHAIN ACRYLIC      0000001000+00000876+00000+0001T   00000876+0000001235          1400 KS8205               1BZ
207181004207181112-116038     207181006003000534906TCS CARRIER BAG MIDI   0000001000+00000035+00000+0001T   00000035+0000001235          1400 KS8090               1BZ
207182000207182               207182               170213JG     1400+00000+JG0000003856+0000003856+000000000+000000541+0000004390+0000000007+I20000000000+0000004390+Z
207182001207182077-000011-C   207182006001023808523TISSUE 10xSHTS RED     0000001000+00000876+00000+0001T   00000876+0000001236          1400 KS8112               1BZ
207182002207182077-000299     207182006003000395576G/BAG 32x25cm LRG LOVE 0000002000+00001490+00000+0001T   00001490+0000001236          1400 KS8112               1BZ
207183000207183               207183               170213JG     1400+00000+JG0000001752+0000001752+000000000+000000246+0000001990+0000000008+I20000000000+0000001990+Z
207183001207183071-081091     207183006001151010287STAED/GENKEM ALL-STICK 0000001000+00001227+00000+0001T   00001227+0000001236          1400 KS8130               1BZ
207183002207183071-000874     207183006003000010110RUB-BANDS PLN BAG-30   0000001000+00000525+00000+0001T   00000525+0000001236          1400 KS8130               1BZ
207184000207184               207184               170213JG     1400+00000+JG0000000437+0000000437+000000000+000000062+0000000490+0000000009+I20000000000+0000000490+Z
207184001207184903-000094     207184006923431501622SWT GS CANDY NECKLACE  0000001000+00000437+00000+0001T   00000437+0000001237          1400 KS8150               1BZ
207185000207185               207185               170213JG     1400+00000+JG0000001753+0000001753+000000000+000000246+0000001999+0000000000+I40000001999+0000000000+Z
207185001207185046-002013-PK6 207185004897006174851BATTERY BUTTON AG13 6PC0000001000+00001753+00000+0001T   00001753+0000001240          1400 KS8312               1BZ
207186000207186               207186               170213JG     1400+00000+JG0000001753+0000001753+000000000+000000246+0000001990+0000000009+I20000000000+0000001990+Z
207186001207186077-000309     207186006001023608604GIFT-BAG 25X32CM GLOSS 0000001000+00001753+00000+0001T   00001753+0000001242          1400 KS8112               1BZ
207187000207187               207187               170213JG     1400+00000+JG0000001787+0000001787+000000000+000000251+0000002030+0000000008+I20000000000+0000002030+Z
207187001207187304-001011     207187006001023806727FLWR ROSE RED W/BEAR   0000001000+00000613+00000+0001T   00000788+0006471249          1400 KS8510               1BZ
207187002207187903-000087     207187006001704000161SWT SPECKLED-EGGS 50G  0000001000+00001139+00000+0001T   00001139+0000001249          1400 KS8150               1BZ
207187003207187112-116038     207187006003000534906TCS CARRIER BAG MIDI   0000001000+00000035+00000+0001T   00000035+0000001249          1400 KS8090               1BZ
207188000207188               207188               170213JG     1400+00000+JG0000007012+0000007012+000000000+000000984+0000007996+0000000000+I40000007996+0000000000+Z
207188001207188565-000888     207188006003000607846NOVELTY MESH BALL      0000004000+00001753+00000+0001T   00001753+0000001420          1400 KS8745               1AZ
207189000207189               207189               170213JG     1400+00000+JG0000003504+0000003504+000000000+000000492+0000003996+0000000000+I40000003996+0000000000+Z
207189001207189077-000150-D   207189006003000054343GIFT-WRAP CELLPHANE CLR0000004000+00000876+00000+0001T   00000876+0000001426          1400 KS8112               1AZ
207190000207190               207190               170213JG     1400+00000+JG0000005963+0000005963+000000000+000000835+0000006798+0000000000+I40000006798+0000000000+Z
207190001207190077-000303     207190006001023593757GIFT-BAG PAPER MED     0000001000+00001578+00000+0001T   00001578+0000001427          1400 KS8112               1AZ
207190002207190368-000001     207190006003000097982Plush Bear 25cm        0000001000+00004385+00000+0001T   00004385+0000001427          1400 KS8745               1AZ
207191000207191               207191               170213JG     1400+00000+JG0000004383+0000004383+000000000+000000614+0000004990+0000000007+I20000000000+0000004990+Z
207191001207191071-003043     207191006003000143948PEN CALIGRAPHY SET 8PCE0000001000+00003507+00000+0001T   00003507+0000001428          1400 KS8130               1AZ
207191002207191083-000295     207191006001023898562LIGHTER-GAS BUTANE 18ml0000001000+00000876+00000+0001T   00000876+0000001428          1400 KS8315               1AZ
207192000207192               207192               170213JG     1400+00000+JG0000020952+0000020952+000000000+000002937+0000023889+0000000000+I40000023889+0000000000+Z
207192001207192467-000006     207192006001023995483NET-BUTTERFLY 120cm    0000001000+00002630+00000+0001T   00002630+0000001512          1400 KS8785               1AZ
207192002207192304-001168     207192006003000407781FLWR FLOATING LOTUS ASS0000001000+00003507+00000+0001T   00003507+0000001512          1400 KS8510               1AZ
207192003207192304-001167     207192006001023846099FLOWER LOTUS FLOATING  0000004000+00002192+00000+0001T   00002192+0000001512          1400 KS8510               1AZ
207192004207192304-001141     207192006003000679133FLOWER MINI SUCCULENT  0000003000+00001139+00000+0001T   00001139+0000001512          1400 KS8510               1AZ
207192005207192071-030013     207192006003000283965PEN NVLTY NEON GEL 6PC 0000001000+00002630+00000+0001T   00002630+0000001512          1400 KS8130               1AZ
207193000207193               207193               170213JG     1400+00000+JG0000019334+0000019334+000000000+000002711+0000022040+0000000005+I20000000000+0000022040+Z
207193001207193112-116069     207193006009681820277TCS CARRIER BAG JUMBO  0000001000+00000048+00000+0001T   00000048+0000001518          1400 KS8090               1AZ
207193002207193366-000256     207193006001023918406DRESS UP TIARA&EARRINGS0000002000+00003069+00000+0001T   00003069+0000001518          1400 KS8131               1AZ
207193003207193366-000300     207193006001023902955DRESSUP TIARA FEATHER  0000004000+00002630+00000+0001T   00002630+0000001518          1400 KS8131               1AZ
207193004207193006-000166-D   207193006003000516490BALLOONS LRG 6PC RED   0000002000+00001314+00000+0001T   00001314+0000001518          1400 KS8131               1AZ
207194000207194               207194               170213JG     1400+00000+JG0000001753+0000001753+000000000+000000246+0000001990+0000000009+I20000000000+0000001990+Z
207194001207194077-000116     207194006003000240777GIFT-WRAP 700mmx2m COL 0000001000+00001753+00000+0001T   00001753+0000001518          1400 KS8112               1AZ
207195000207195               207195               170213JG     1400+00000+JG0000006784+0000006784+000000000+000000951+0000007735+0000000000+I40000007735+0000000000+Z
207195001207195031-005921     207195006001023667847P/FRAME PL PLAIN       0000001000+00004385+00000+0001T   00004385+0000001520          1400 KS8510               1AZ
207195002207195903-000137     207195006002099004130SWEET GS JELLY BEAN 60G0000001000+00000788+00000+0001T   00000788+0000001520          1400 KS8150               1AZ
207195003207195903-000120     207195006002099001665SWEET GS ZILLIONS 50g  0000001000+00000700+00000+0001T   00000700+0000001520          1400 KS8150               1AZ
207195004207195903-000295     207195006001704002899SWT MS FRUITY RASCALS  0000001000+00000876+00000+0001T   00000876+0000001520          1400 KS8150               1AZ
207195005207195112-116038     207195006003000534906TCS CARRIER BAG MIDI   0000001000+00000035+00000+0001T   00000035+0000001520          1400 KS8090               1AZ
207196000207196               207196               170213JG     1400+00000+JG0000000613+0000000613+000000000+000000086+0000000690+0000000009+I20000000000+0000000690+Z
207196001207196304-001011     207196006001023806727FLWR ROSE RED W/BEAR   0000001000+00000613+00000+0001T   00000788+0006471527          1400 KS8510               1AZ
207197000207197               207197               170213JG     1400+00000+JG0000013899+0000013899+000000000+000001949+0000015848+0000000000+I40000015848+0000000000+Z
207197001207197112-116069     207197006003000535064TCS CARRIER BAG JUMBO  0000001000+00000048+00000+0001T   00000048+0000001529          1400 KS8090               1AZ
207197002207197018-019000     207197006003000557288MUG OCC. LOVE JUMBO    0000001000+00005262+00000+0001T   00005262+0000001529          1400 KS8515               1AZ
207197003207197003-000250     207197006003000035045ORN DECOR NOVELTY GRASS0000001000+00001753+00000+0001T   00001753+0000001529          1400 KS8505               1AZ
207197004207197077-000011-C   207197006001023808523TISSUE 10xSHTS RED     0000001000+00000876+00000+0001T   00000876+0000001529          1400 KS8112               1AZ
207197005207197077-000358     207197006003000329977GIFT-BAG KIDS 25X32CM  0000002000+00001753+00000+0001T   00001753+0000001529          1400 KS8112               1AZ
207197006207197077-000322     207197006001023677532GIFT-BAG 18X23CM E/D FL0000001000+00001227+00000+0001T   00001227+0000001529          1400 KS8112               1AZ
207197007207197903-000517     207197006001704012768SWT STRAWS FIZZY CHERRY0000001000+00001227+00000+0001T   00001227+0000001529          1400 KS8150               1AZ
207198000207198               207198               170213JG     1400+00000+JG0000004822-0000004822-000000000+000000676-0000005500-0000000002+I20000000000+0000005500-Z
207198001207198007-000095     207198006003000530434ENVELOPES WHITE 20PK C60000001000-00002192+00000+0001T   00002192+0000001531          1400 KS81302IC            1 Z
207198002207198071-000013     207198006003000535354BOARD DUSTER           0000001000-00002630+00000+0001T   00002630+0000001531          1400 KS81302IC            1 Z
207199000207199               207199               170213JG     1400+00000+JG0000005467+0000005467+000000000+000000767+0000006234+0000000000+I40000006234+0000000000+Z
207199001207199112-116038     207199006003000534906TCS CARRIER BAG MIDI   0000001000+00000035+00000+0001T   00000035+0000001533          1400 KS8090               1AZ
207199002207199159-000043-H   207199006001023416629HOOKS ADHESIVE 3PCE SQR0000001000+00001139+00000+0001T   00001139+0000001533          1400 KS8200               1AZ
207199003207199078-009100     207199006008741002349ALL-CLEAR GLUE 25ml CRD0000001000+00001314+00000+0001T   00001314+0000001533          1400 KS8810               1AZ
207199004207199903-000215     207199006002099001214SWT GS MALLOW TWIST PAC0000001000+00001753+00000+0001T   00001753+0000001533          1400 KS8150               1AZ
207199005207199304-001011     207199006001023806727FLWR ROSE RED W/BEAR   0000002000+00000613+00000+0001T   00000788+0006471533          1400 KS8510               1AZ
207200000207200               207200               170213JG     1400+00000+JG0000000700+0000000700+000000000+000000098+0000000790+0000000008+I20000000000+0000000790+Z
207200001207200018-000177     207200006001023797513MUG MINI LOVE ASSTD    0000001000+00000700+00000+0001T   00000700+0000001533          1400 KS8515               1AZ
207201000207201               207201               170213JG     1400+00000+JG0000005084+0000005084+000000000+000000713+0000005797+0000000000+I40000005797+0000000000+Z
207201001207201077-000303     207201006001023593757GIFT-BAG PAPER MED     0000001000+00001578+00000+0001T   00001578+0000001534          1400 KS8112               1AZ
207201002207201077-000011-C   207201006001023808523TISSUE 10xSHTS RED     0000001000+00000876+00000+0001T   00000876+0000001534          1400 KS8112               1AZ
207201003207201104-000031     207201006003000614950BASKET PL 27x18x12cm   0000001000+00002630+00000+0001T   00002630+0000001534          1400 KS8210               1AZ
207202000207202               207202               170213JG     1400+00000+JG0000002190+0000002190+000000000+000000308+0000002490+0000000008+I20000000000+0000002490+Z
207202001207202077-000299-A   207202006003000670888GIFT-BAG PAPER JMB LOVE0000001000+00001753+00000+0001T   00001753+0000001535          1400 KS8112               1AZ
207202002207202080-000133-A   207202006003000647019MINI VALENTINES CARD   0000001000+00000437+00000+0001T   00000437+0000001535          1400 KS8112               1AZ
207203000207203               207203               170213JG     1400+00000+JG0000001490+0000001490+000000000+000000209+0000001699+0000000000+I40000001699+0000000000+Z
207203001207203046-000004     207203006001023606525BATTERY 9VOLT H/POWER  0000001000+00001490+00000+0001T   00001490+0000001536          1400 KS8312               1AZ
207204000207204               207204               170213JG     1400+00000+JG0000000613+0000000613+000000000+000000086+0000000690+0000000009+I20000000000+0000000690+Z
207204001207204304-001011     207204006001023806727FLWR ROSE RED W/BEAR   0000001000+00000613+00000+0001T   00000788+0006471537          1400 KS8510               1AZ
207205000207205               207205               170213JG     1400+00000+JG0000013549+0000013549+000000000+000001898+0000015447+0000000000+I40000015447+0000000000+Z
207205001207205077-000270     207205006003000395453GIFT-BAG PPR JMB 33X45 0000001000+00002630+00000+0001T   00002630+0000001538          1400 KS8112               1AZ
207205002207205261-000121     207205006001023341600GUN-CAPS 8-SHOT CARD-9 0000003000+00000700+00000+0001T   00000700+0000001538          1400 KS8710               1AZ
207205003207205264-000927     207205000090159393009MAISTO MOTORBIKE 1:18  0000001000+00008771+00000+0001T   00008771+0000001538          1400 KS8710               1AZ
207205004207205112-116069     207205006003000535064TCS CARRIER BAG JUMBO  0000001000+00000048+00000+0001T   00000048+0000001538          1400 KS8090               1AZ
207206000207206               207206               170213JG     1400+00000+JG0000004385+0000004385+000000000+000000614+0000004999+0000000000+I40000004999+0000000000+Z
207206001207206001-000175     207206006001023788108B/MUG GLS LOVE 380ML   0000001000+00004385+00000+0001T   00004385+0000001540          1400 KS8515               1AZ
207207000207207               207207               170213JG     1400+00000+JG0000025841+0000025841+000000000+000003624+0000029465+0000000000+I40000029465+0000000000+Z
207207001207207077-000322     207207006001023677532GIFT-BAG 18X23CM E/D FL0000001000+00001227+00000+0001T   00001227+0000001544          1400 KS8112               1AZ
207207002207207368-000001     207207006003000097982Plush Bear 25cm        0000001000+00004385+00000+0001T   00004385+0000001544          1400 KS8745               1AZ
207207003207207304-001011     207207006001023806727FLWR ROSE RED W/BEAR   0000033000+00000613+00000+0001T   00000788+0006471544          1400 KS8510               1AZ
207208000207208               207208               170213JG     1400+00000+JG0000006398+0000006398+000000000+000000898+0000007290+0000000006+I20000000000+0000007290+Z
207208001207208006-000120     207208006001023346889BALLOONS 10PC MIX COL  0000001000+00001753+00000+0001T   00001753+0000001544          1400 KS8131               1AZ
207208002207208566-001234     207208006003000217793STICKERS LASER ASSTD   0000001000+00001578+00000+0001T   00001578+0000001544          1400 KS8130               1AZ
207208003207208019-071594     207208006003000505579PEBBLES GLS 250g RED   0000001000+00002630+00000+0001T   00002630+0000001544          1400 KS8510               1AZ
207208004207208080-000133-A   207208006003000647019MINI VALENTINES CARD   0000001000+00000437+00000+0001T   00000437+0000001544          1400 KS8112               1AZ
207209000207209               207209               170213JG     1400+00000+JG0000001578+0000001578+000000000+000000221+0000001790+0000000009+I20000000000+0000001790+Z
207209001207209028-000799     207209006001023812186SKEWERS BAMBOO 100PCE  0000001000+00001578+00000+0001T   00001578+0000001544          1400 KS8305               1AZ
207210000207210               207210               170213JG     1400+00000+JG0000023189+0000023189+000000000+000003249+0000026438+0000000000+I40000026438+0000000000+Z
207210001207210077-000303     207210006001023593757GIFT-BAG PAPER MED     0000003000+00001578+00000+0001T   00001578+0000001546          1400 KS8112               1AZ
207210002207210112-116069     207210006003000535064TCS CARRIER BAG JUMBO  0000001000+00000048+00000+0001T   00000048+0000001546          1400 KS8090               1AZ
207210003207210368-000637     207210006001023874092PLUSH BEAR SLEEPING LOV0000001000+00011402+00000+0001T   00012279+0006471546          1400 KS8745               1AZ
207210004207210304-001011     207210006001023806727FLWR ROSE RED W/BEAR   0000004000+00000613+00000+0001T   00000788+0006471546          1400 KS8510               1AZ
207210005207210018-000177     207210006001023797513MUG MINI LOVE ASSTD    0000004000+00000700+00000+0001T   00000700+0000001546          1400 KS8515               1AZ
207210006207210077-000316     207210006001023609731GIFT-BAG 25X32CM MATT  0000001000+00001753+00000+0001T   00001753+0000001546          1400 KS8112               1AZ
207211000207211               207211               170213JG     1400+00000+JG0000002629+0000002629+000000000+000000369+0000002990+0000000008+I20000000000+0000002990+Z
207211001207211080-000127     207211006003000424351VALENTINES DAY 36x24CM 0000001000+00002192+00000+0001T   00002192+0000001547          1400 KS8112               1AZ
207211002207211080-000133-A   207211006003000647019MINI VALENTINES CARD   0000001000+00000437+00000+0001T   00000437+0000001547          1400 KS8112               1AZ
207212000207212               207212               170213JG     1400+00000+JG0000007887+0000007887+000000000+000001106+0000008990+0000000003+I20000000000+0000008990+Z
207212001207212007-000535     207212000651728790904NOTE-BOOK DRESS TEEN   0000001000+00001753+00000+0001T   00001753+0000001549          1400 KS8130               1AZ
207212002207212006-000166-F   207212006003000516735BALLOONS LRG 6PC PURPLE0000001000+00001314+00000+0001T   00001314+0000001549          1400 KS8131               1AZ
207212003207212006-000166-C   207212006003000516377BALLOONS LRG 6PC PINK  0000001000+00001314+00000+0001T   00001314+0000001549          1400 KS8131               1AZ
207212004207212006-000093     207212006003000539932PARTY BANNER FLAGS ASST0000002000+00001753+00000+0001T   00001753+0000001549          1400 KS8131               1AZ
207213000207213               207213               170213JG     1400+00000+JG0000010870+0000010870+000000000+000001524+0000012390+0000000004+I20000000000+0000012390+Z
207213001207213563-000318-L   207213006003000407088SERVIETTES 33cm RED    0000004000+00002192+00000+0001T   00002192+0000001554          1400 KS8214               1AZ
207213002207213039-000026     207213006001023551610C/TAPERED 25CM M/RED   0000002000+00001051+00000+0001T   00001051+0000001554          1400 KS8510               1AZ
207214000207214               207214               170213JG     1400+00000+JG0000001578+0000001578+000000000+000000221+0000001790+0000000009+I20000000000+0000001790+Z
207214001207214077-000303     207214006001023593757GIFT-BAG PAPER MED     0000001000+00001578+00000+0001T   00001578+0000001557          1400 KS8112               1AZ
207215000207215               207215               170213JG     1400+00000+JG0000000035+0000000035+000000000+000000005+0000000040+0000000000+I20000000000+0000000040+Z
207215001207215112-116038     207215006003000534906TCS CARRIER BAG MIDI   0000001000+00000035+00000+0001T   00000035+0000001557          1400 KS8090               1AZ
207216000207216               207216               170213JG     1400+00000+JG0000005697+0000005697+000000000+000000799+0000006496+0000000000+I40000006496+0000000000+Z
207216001207216072-020298     207216006003000561629DOG-TOY TUG-ROPE ASSTD 0000001000+00003069+00000+0001T   00003069+0000001559          1400 KS8870               1AZ
207216002207216306-001024     207216006001023901910FIRST AID COOL/WARM GEL0000001000+00002192+00000+0001T   00002192+0000001559          1400 KS8200               1AZ
207216003207216006-000170-A   207216006003000608065BALLOONS 1PC PINK      0000001000+00000218+00000+0001T   00000218+0000001559          1400 KS8131               1AZ
207216004207216006-000170-E   207216006003000608546BALLOONS 1PC BLUE      0000001000+00000218+00000+0001T   00000218+0000001559          1400 KS8131               1AZ
207217000207217               207217               170213JG     1400+00000+JG0000017590+0000017590+000000000+000002463+0000020050+0000000003+I20000000000+0000020050+Z
207217001207217368-000012     207217006003000610464PLUSH BEAR 30cm SITTING0000002000+00008771+00000+0001T   00008771+0000001602          1400 KS8745               1AZ
207217002207217112-116069     207217006009681820277TCS CARRIER BAG JUMBO  0000001000+00000048+00000+0001T   00000048+0000001602          1400 KS8090               1AZ
207218000207218               207218               170213JG     1400+00000+JG0000001314+0000001314+000000000+000000184+0000001490+0000000008+I20000000000+0000001490+Z
207218001207218077-000312     207218006001023608697GIFT-BAG 10X35CM GLOSS 0000001000+00001314+00000+0001T   00001314+0000001603          1400 KS8112               1AZ
207219000207219               207219               170213JG     1400+00000+JG0000003542+0000003542+000000000+000000496+0000004038+0000000000+I40000004038+0000000000+Z
207219001207219018-005009     207219006001023725608MUG W/PLUSH-BEAR LOVE  0000001000+00003507+00000+0001T   00003507+0000001606          1400 KS8515               1AZ
207219002207219112-116038     207219006003000534906TCS CARRIER BAG MIDI   0000001000+00000035+00000+0001T   00000035+0000001606          1400 KS8090               1AZ
207220000207220               207220               170213JG     1400+00000+JG0000002630+0000002630+000000000+000000369+0000002990+0000000009+I20000000000+0000002990+Z
207220001207220077-000270     207220006003000395453GIFT-BAG PPR JMB 33X45 0000001000+00002630+00000+0001T   00002630+0000001607          1400 KS8112               1AZ
207221000207221               207221               170213JG     1400+00000+JG0000006751+0000006751+000000000+000000946+0000007690+0000000007+I20000000000+0000007690+Z
207221001207221077-000382     207221006003000247820GIFT-BAG MED 18X23CM   0000001000+00001753+00000+0001T   00001753+0000001608          1400 KS8112               1AZ
207221002207221077-000321     207221006001023677501GIFT-BAG 11X14CM E/D FL0000001000+00000613+00000+0001T   00000613+0000001608          1400 KS8112               1AZ
207221003207221368-000151     207221006003000166725PLUSH BEAR 14cm        0000001000+00004385+00000+0001T   00004385+0000001608          1400 KS8745               1AZ
207222000207222               207222               170213JG     1400+00000+JG0000002630+0000002630+000000000+000000369+0000002990+0000000009+I20000000000+0000002990+Z
207222001207222077-000270     207222006003000395453GIFT-BAG PPR JMB 33X45 0000001000+00002630+00000+0001T   00002630+0000001608          1400 KS8112               1AZ
207223000207223               207223               170213JG     1400+00000+JG0000003542+0000003542+000000000+000000496+0000004038+0000000000+I40000004038+0000000000+Z
207223001207223018-000136     207223006001023659026MUG OCC LOVE W/PLUSH   0000001000+00003507+00000+0001T   00003507+0000001610          1400 KS8515               1AZ
207223002207223112-116038     207223006003000534906TCS CARRIER BAG MIDI   0000001000+00000035+00000+0001T   00000035+0000001610          1400 KS8090               1AZ
207224000207224               207224               170213JG     1400+00000+JG0000003100+0000003100+000000000+000000436+0000003530+0000000006+I20000000000+0000003530+Z
207224001207224903-000087     207224006001704000161SWT SPECKLED-EGGS 50G  0000001000+00001139+00000+0001T   00001139+0000001611          1400 KS8150               1AZ
207224002207224306-000019     207224006001023734846TOOTHBRUSH W/DESIGN    0000002000+00000525+00000+0001T   00000525+0000001611          1400 KS8200               1AZ
207224003207224071-001012     207224006001023474445MARKERS BLACK ROUND    0000001000+00000876+00000+0001T   00000876+0000001611          1400 KS8130               1AZ
207224004207224112-116038     207224006003000534906TCS CARRIER BAG MIDI   0000001000+00000035+00000+0001T   00000035+0000001611          1400 KS8090               1AZ
207225000207225               207225               170213JG     1400+00000+JG0000005260+0000005260+000000000+000000738+0000005990+0000000008+I20000000000+0000005990+Z
207225001207225567-075699     207225006003000641277BK NOVEL CATEGORY A    0000002000+00002630+00000+0001T   00003069+0008191611          1400 KS8757               1AZ
207226000207226               207226               170213JG     1400+00000+JG0000002192+0000002192+000000000+000000307+0000002490+0000000009+I20000000000+0000002490+Z
207226001207226566-000031     207226006003000283910STICKER BK TEACHER STIC0000001000+00002192+00000+0001T   00002192+0000001612          1400 KS8130               1AZ
207227000207227               207227               170213JG     1400+00000+JG0000004416+0000004416+000000000+000000620+0000005036+0000000000+I40000005036+0000000000+Z
207227001207227080-000133-A   207227006003000647019MINI VALENTINES CARD   0000001000+00000437+00000+0001T   00000437+0000001614          1400 KS8112               1AZ
207227002207227077-000310     207227006001023608635GIFT-BAG 18X23CM GLOSS 0000001000+00001314+00000+0001T   00001314+0000001614          1400 KS8112               1AZ
207227003207227031-086100     207227006001023900661P/FRAME GLS FILM 10X15 0000001000+00002630+00000+0001T   00002630+0000001614          1400 KS8510               1AZ
207227004207227112-116038     207227006003000534906TCS CARRIER BAG MIDI   0000001000+00000035+00000+0001T   00000035+0000001614          1400 KS8090               1AZ
207228000207228               207228               170213JG     1400+00000+JG0000003059+0000003059+000000000+000000434+0000003490+0000000003+I20000000000+0000003490+Z
207228001207228080-000133-A   207228006003000647019MINI VALENTINES CARD   0000007000+00000437+00000+0001T   00000437+0000001614          1400 KS8112               1AZ
207229000207229               207229               170213JG     1400+00000+JG0000003944+0000003944+000000000+000000553+0000004490+0000000007+I20000000000+0000004490+Z
207229001207229077-000932     207229006003000409808G/WRAP 700mmx5m PATTERN0000001000+00003507+00000+0001T   00003507+0000001615          1400 KS8112               1AZ
207229002207229080-000133-A   207229006003000647019MINI VALENTINES CARD   0000001000+00000437+00000+0001T   00000437+0000001615          1400 KS8112               1AZ
207230000207230               207230               170213JG     1400+00000+JG0000018990+0000018990+000000000+000002661+0000021651+0000000000+I40000021651+0000000000+Z
207230001207230088-000084     207230006001023798060P/POURRI 120G ASSTD    0000001000+00001753+00000+0001T   00001753+0000001617          1400 KS8212               1AZ
207230002207230001-091415     207230006003000329113W/GLS OCC. LOVE 2PC 2800000001000+00008771+00000+0001T   00009648+0006471617          1400 KS8515               1AZ
207230003207230304-001204     207230006001023737984FLOWER OCC. TEDDY/ROSES0000001000+00001402+00000+0001T   00001490+0006471617          1400 KS8510               1AZ
207230004207230039-000624     207230006003000054923C/SET 4PC PILLARS 5X8CM0000001000+00007016+00000+0001T   00007016+0000001617          1400 KS8510               1AZ
207230005207230112-116069     207230006003000535064TCS CARRIER BAG JUMBO  0000001000+00000048+00000+0001T   00000048+0000001617          1400 KS8090               1AZ
207231000207231               207231               170213JG     1400+00000+JG0000001753+0000001753+000000000+000000246+0000001999+0000000000+I40000001999+0000000000+Z
207231001207231306-001130-A   207231006003000359271FIRSTAID SUPPORT ANKLE 0000001000+00001753+00000+0001T   00001753+0000001619          1400 KS8200               1AZ
207232000207232               207232               170213JG     1400+00000+JG0000028108+0000028108+000000000+000003939+0000032047+0000000000+I40000032047+0000000000+Z
207232001207232112-116069     207232006003000535064TCS CARRIER BAG JUMBO  0000001000+00000048+00000+0001T   00000048+0000001622          1400 KS8090               1AZ
207232002207232072-020366     207232006003000452927PET PLACE MAT ASSTD COL0000002000+00002630+00000+0001T   00002630+0000001622          1400 KS8870               1AZ
207232003207232072-000606     207232006001023858566DOG-COLLAR+LEAD        0000001000+00004385+00000+0001T   00004385+0000001622          1400 KS8870               1AZ
207232004207232072-020249     207232006003000451241PET BLANKET FLEECE     0000002000+00005262+00000+0001T   00005262+0000001622          1400 KS8870               1AZ
207232005207232072-000620     207232006001023604415PET DOG LEAD 15mmx1.2M 0000001000+00004385+00000+0001L   00004385+0000001622          1400 KS8870               1AZ
207232006207232072-020353     207232006001023598097DOG/CAT-BOWL 17cm      0000002000+00001753+00000+0001T   00001753+0000001622          1400 KS8870               1AZ
207233000207233               207233               170213JG     1400+00000+JG0000004383+0000004383+000000000+000000615+0000004998+0000000000+I40000004998+0000000000+Z
207233001207233077-000270     207233006003000395453GIFT-BAG PPR JMB 33X45 0000001000+00002630+00000+0001T   00002630+0000001623          1400 KS8112               1AZ
207233002207233077-000308     207233006001023595812GIFT-BAG 33X45CM E/DAY 0000001000+00001753+00000+0001T   00001753+0000001623          1400 KS8112               1AZ
207234000207234               207234               170213JG     1400+00000+JG0000009233+0000009233+000000000+000001293+0000010520+0000000006+I20000000000+0000010520+Z
207234001207234903-000194     207234006009826020616SWT CHOC RP LOLLY 25G  0000004000+00001314+00000+0001T   00001314+0000001625          1400 KS8150               1AZ
207234002207234112-116038     207234006003000534906TCS CARRIER BAG MIDI   0000001000+00000035+00000+0001T   00000035+0000001625          1400 KS8090               1AZ
207234003207234903-000194     207234006009826020616SWT CHOC RP LOLLY 25G  0000003000+00001314+00000+0001T   00001314+0000001625          1400 KS8150               1AZ
207235000207235               207235               170213JG     1400+00000+JG0000016292+0000016292+000000000+000002285+0000018577+0000000000+I40000018577+0000000000+Z
207235001207235006-000166-H   207235006003000608096BALLOONS HELIUM 6PC WHT0000001000+00001314+00000+0001T   00001314+0000001627          1400 KS8131               1AZ
207235002207235006-000166-D   207235006003000516490BALLOONS LRG 6PC RED   0000001000+00001314+00000+0001T   00001314+0000001627          1400 KS8131               1AZ
207235003207235006-001000     207235006003000093779HELIUM BALLOON FILL    0000018000+00000613+00000+0001T   00000613+0000001627          1400 KS8131               1AZ
207235004207235566-000308     207235006003000522521STICKER TAPE 3PCS      0000001000+00002630+00000+0001T   00002630+0000001627          1400 KS8130               1AZ
207236000207236               207236               170213JG     1400+00000+JG0000004120+0000004120+000000000+000000578+0000004690+0000000008+I20000000000+0000004690+Z
207236001207236039-081008     207236006008766081008CANDLES 9PCE SCENTED   0000001000+00002630+00000+0001T   00002630+0000001630          1400 KS8510               1AZ
207236002207236039-000108     207236006001023524034TEA-LITE CANDLES 8PCE  0000001000+00001490+00000+0001T   00001490+0000001630          1400 KS8510               1AZ
207237000207237               207237               170213JG     1400+00000+JG0000000437+0000000437+000000000+000000062+0000000490+0000000009+I20000000000+0000000490+Z
207237001207237083-000049     207237004891035200024CIG-LIGHTER DISPOSABLE 0000001000+00000437+00000+0001T   00000437+0000001631          1400 KS8315               1AZ
207238000207238               207238               170213JG     1400+00000+JG0000003505+0000003505+000000000+000000492+0000003997+0000000000+I40000003997+0000000000+Z
207238001207238903-000709     207238006002099007070SWT QUENCHERS FRUIT    0000001000+00001139+00000+0001T   00001139+0000001633          1400 KS8150               1AZ
207238002207238903-000138     207238006002099004314SWT GS WINE GUMS 60G   0000001000+00000788+00000+0001T   00000788+0000001633          1400 KS8150               1AZ
207238003207238080-000124     207238006003000297733CARD & ENV VALENTINES  0000001000+00001578+00000+0001T   00001578+0000001633          1400 KS8112               1AZ
207239000207239               207239               170213JG     1400+00000+JG0000007049+0000007049+000000000+000000987+0000008030+0000000006+I20000000000+0000008030+Z
207239001207239301-085004     207239006003000420469ORN LOVE PLAQUE 21X10CM0000001000+00003507+00000+0001T   00003946+0006471634          1400 KS8505               1AZ
207239002207239018-000136     207239006001023659026MUG OCC LOVE W/PLUSH   0000001000+00003507+00000+0001T   00003507+0000001634          1400 KS8515               1AZ
207239003207239112-116038     207239006003000534906TCS CARRIER BAG MIDI   0000001000+00000035+00000+0001T   00000035+0000001634          1400 KS8090               1AZ
207240000207240               207240               170213JG     1400+00000+JG0000007803+0000007803+000000000+000001093+0000008896+0000000000+I40000008896+0000000000+Z
207240001207240080-000127     207240006003000424351VALENTINES DAY 36x24CM 0000001000+00002192+00000+0001T   00002192+0000001648          1400 KS8112               1AZ
207240002207240006-000190     207240006003000685530BALLOONS LOVE 81x91cm  0000001000+00004385+00000+0001T   00004385+0000001648          1400 KS8131               1AZ
207240003207240006-001000     207240006003000093779HELIUM BALLOON FILL    0000002000+00000613+00000+0001T   00000613+0000001648          1400 KS8131               1AZ
207241000207241               207241               170213JG     1400+00000+JG0000011082+0000011082+000000000+000001553+0000012635+0000000000+I40000012635+0000000000+Z
207241001207241112-116038     207241006003000534906TCS CARRIER BAG MIDI   0000001000+00000035+00000+0001T   00000035+0000001650          1400 KS8090               1AZ
207241002207241018-019000     207241006003000557288MUG OCC. LOVE JUMBO    0000001000+00005262+00000+0001T   00005262+0000001650          1400 KS8515               1AZ
207241003207241903-000087     207241006001704000161SWT SPECKLED-EGGS 50G  0000001000+00001139+00000+0001T   00001139+0000001650          1400 KS8150               1AZ
207241004207241903-000698     207241006002099007032SWT CANDY ECLAIRS 90g  0000001000+00001139+00000+0001T   00001139+0000001650          1400 KS8150               1AZ
207241005207241018-000136     207241006001023659026MUG OCC LOVE W/PLUSH   0000001000+00003507+00000+0001T   00003507+0000001650          1400 KS8515               1AZ
207242000207242               207242               170213JG     1400+00000+JG0000002540+0000002540+000000000+000000357+0000002890+0000000007+I20000000000+0000002890+Z
207242001207242077-000150-D   207242006003000054343GIFT-WRAP CELLPHANE CLR0000002000+00000876+00000+0001T   00000876+0000001651          1400 KS8112               1AZ
207242002207242077-000010-C   207242006001023123879CREPE-PAPER RED        0000001000+00000788+00000+0001T   00000788+0000001651          1400 KS8112               1AZ
207243000207243               207243               170213JG     1400+00000+JG0000008771+0000008771+000000000+000001228+0000009999+0000000000+I40000009999+0000000000+Z
207243001207243001-091415     207243006003000329113W/GLS OCC. LOVE 2PC 2800000001000+00008771+00000+0001T   00009648+0006471658          1400 KS8515               1AZ
207244000207244               207244               170213JG     1400+00000+JG0000051321+0000051321+000000000+000007200+0000058521+0000000000+I40000058521+0000000000+Z
207244001207244112-116069     207244006003000535064TCS CARRIER BAG JUMBO  0000001000+00000048+00000+0001T   00000048+0000001702          1400 KS8090               1AZ
207244002207244040-000170     207244006001023774613C/HOLDER GLASS CUP 6CM 0000004000+00002630+00000+0001T   00002630+0000001702          1400 KS8510               1AZ
207244003207244077-000303     207244006001023593757GIFT-BAG PAPER MED     0000004000+00001578+00000+0001T   00001578+0000001702          1400 KS8112               1AZ
207244004207244077-000299-A   207244006003000670888GIFT-BAG PAPER JMB LOVE0000001000+00001753+00000+0001T   00001753+0000001702          1400 KS8112               1AZ
207244005207244038-047250     207244006001023816009PLACE MAT ASSORTED     0000004000+00001753+00000+0001T   00001753+0000001702          1400 KS8300               1AZ
207244006207244077-000010-C   207244006001023123879CREPE-PAPER RED        0000002000+00000788+00000+0001T   00000788+0000001702          1400 KS8112               1AZ
207244007207244369-001138     207244006003000555185VINYL 8.5cm THEMED DUCK0000001000+00001753+00000+0001T   00002630+0008141702          1400 KS8745               1AZ
207244008207244563-000318-L   207244006003000407088SERVIETTES 33cm RED    0000001000+00002192+00000+0001T   00002192+0000001702          1400 KS8214               1AZ
207244009207244203-008282     207244006003000597703WINE GLS PL 2PC CHAMP. 0000003000+00001753+00000+0001T   00002630+0008171702          1400 KS8300               1AZ
207244010207244018-000177     207244006001023797513MUG MINI LOVE ASSTD    0000004000+00000700+00000+0001T   00000700+0000001702          1400 KS8515               1AZ
207244011207244039-082852     207244006008766082852C/SET 4PC MINI PILLARS 0000001000+00005262+00000+0001T   00005262+0000001702          1400 KS8510               1AZ
207244012207244019-071594     207244006003000505579PEBBLES GLS 250g RED   0000001000+00002630+00000+0001T   00002630+0000001702          1400 KS8510               1AZ
207244013207244039-000026     207244006001023551610C/TAPERED 25CM M/RED   0000002000+00001051+00000+0001T   00001051+0000001702          1400 KS8510               1AZ
207244014207244039-000024     207244006003000286300C/TAPERED 25CM M/WHITE 0000002000+00001051+00000+0001T   00001051+0000001702          1400 KS8510               1AZ
207245000207245               207245               170213JG     1400+00000+JG0000001753+0000001753+000000000+000000246+0000001990+0000000009+I20000000000+0000001990+Z
207245001207245077-000299-A   207245006003000670888GIFT-BAG PAPER JMB LOVE0000001000+00001753+00000+0001T   00001753+0000001703          1400 KS8112               1AZ
207246000207246               207246               170213JG     1400+00000+JG0000003331+0000003331+000000000+000000467+0000003798+0000000000+I40000003798+0000000000+Z
207246001207246046-000014     207246006001023725387BATTERIES SIZE:AAA 4PCE0000001000+00001139+00000+0001T   00001139+0000001704          1400 KS8312               1AZ
207246002207246046-000012-A   207246006003000208296BATTERIES H/POWER SZ:AA0000001000+00002192+00000+0001T   00002192+0000001704          1400 KS8312               1AZ
207247000207247               207247               170213JG     1400+00000+JG0000001753+0000001753+000000000+000000246+0000001999+0000000000+I40000001999+0000000000+Z
207247001207247077-000299-A   207247006003000670888GIFT-BAG PAPER JMB LOVE0000001000+00001753+00000+0001T   00001753+0000001705          1400 KS8112               1AZ
207248000207248               207248               170213JG     1400+00000+JG0000001753+0000001753+000000000+000000246+0000001990+0000000009+I20000000000+0000001990+Z
207248001207248077-000299-A   207248006003000670888GIFT-BAG PAPER JMB LOVE0000001000+00001753+00000+0001T   00001753+0000001705          1400 KS8112               1AZ
207249000207249               207249               170213JG     1400+00000+JG0000001490+0000001490+000000000+000000209+0000001690+0000000009+I20000000000+0000001690+Z
207249001207249031-000878-B   207249006001023799012P/FRAME 13x18cm PL-SLID0000001000+00001490+00000+0001T   00001490+0000001706          1400 KS8510               1AZ
207250000207250               207250               170213JG     1400+00000+JG0000002629+0000002629+000000000+000000369+0000002998+0000000000+I40000002998+0000000000+Z
207250001207250016-006509     207250006003000567355S/JAR GLS MINI LABEL   0000001000+00001753+00000+0001T   00002192+0008191707          1400 KS8300               1AZ
207250002207250903-000897     207250008692806325207SWT CHOC DBL MINI ROLL 0000001000+00000876+00000+0001T   00000876+0000001707          1400 KS8150               1AZ
207251000207251               207251               170213JG     1400+00000+JG0000001753+0000001753+000000000+000000246+0000001990+0000000009+I20000000000+0000001990+Z
207251001207251006-000240     207251006003000460595PARTY INVITES 12PC     0000001000+00001753+00000+0001T   00001753+0000001708          1400 KS8131               1AZ
207252000207252               207252               170213JG     1400+00000+JG0000000613+0000000613+000000000+000000086+0000000690+0000000009+I20000000000+0000000690+Z
207252001207252089-000021     207252006009697230923KEY CHAIN ID           0000001000+00000613+00000+0001T   00000613+0000001733          1400 KS8205               1AZ
207253000207253               207253               170213JG     1400+00000+JG0000012314+0000012314+000000000+000001725+0000014039+0000000000+I40000014039+0000000000+Z
207253001207253368-000111     207253006001023780812PLUSH BEAR/DOG 29CM    0000001000+00012279+00000+0001T   00012279+0000001737          1400 KS8745               1AZ
207253002207253112-116038     207253006003000534906TCS CARRIER BAG MIDI   0000001000+00000035+00000+0001T   00000035+0000001737          1400 KS8090               1AZ
207254000207254               207254               170213JG     1400+00000+JG0000012279+0000012279+000000000+000001720+0000013999+0000000000+I40000013999+0000000000+Z
207254001207254368-000111     207254006001023780812PLUSH BEAR/DOG 29CM    0000001000+00012279+00000+0001T   00012279+0000001738          1400 KS8745               1AZ
207255000207255               207255               170213JG     1400+00000+JG0000002012+0000002012+000000000+000000284+0000002290+0000000006+I20000000000+0000002290+Z
207255001207255304-001011     207255006001023806727FLWR ROSE RED W/BEAR   0000002000+00000613+00000+0001T   00000788+0006471739          1400 KS8510               1AZ
207255002207255903-000183     207255006003000451043SWT LB HEART LOLLY     0000002000+00000393+00000+0001T   00000393+0000001739          1400 KS8150               1AZ
207256000207256               207256               170213JG     1400+00000+JG0000009242+0000009242+000000000+000001295+0000010530+0000000007+I20000000000+0000010530+Z
207256001207256038-092233     207256006003000328925TABLE-MAT N/SLIP ASST  0000003000+00003069+00000+0001T   00003507+0008191740          1400 KS8300               1AZ
207256002207256112-116038     207256006003000534906TCS CARRIER BAG MIDI   0000001000+00000035+00000+0001T   00000035+0000001740          1400 KS8090               1AZ
207257000207257               207257               170213JG     1400+00000+JG0000006783+0000006783+000000000+000000952+0000007735+0000000000+I40000007735+0000000000+Z
207257001207257112-116038     207257006003000534906TCS CARRIER BAG MIDI   0000001000+00000035+00000+0001T   00000035+0000001742          1400 KS8090               1AZ
207257002207257103-000461     207257006001023795229FLOWER BASKET 26cm-DIA 0000001000+00002630+00000+0001T   00002630+0000001742          1400 KS8300               1AZ
207257003207257077-000010-C   207257006001023123879CREPE-PAPER RED        0000001000+00000788+00000+0001T   00000788+0000001742          1400 KS8112               1AZ
207257004207257903-000504     207257006001704012416SWT CHOC JELLY BEANS   0000001000+00001227+00000+0001T   00001227+0000001742          1400 KS8150               1AZ
207257005207257903-000498     207257006001704013048SWT CHOC MIGHTY MALTS  0000001000+00001227+00000+0001T   00001227+0000001742          1400 KS8150               1AZ
207257006207257077-000151     207257006008766114676GIFT-WRAP C/PHANE ASSTD0000001000+00000876+00000+0001T   00000876+0000001742          1400 KS8112               1AZ
207258000207258               207258               170213JG     1400+00000+JG0000001753+0000001753+000000000+000000246+0000001999+0000000000+I40000001999+0000000000+Z
207258001207258079-000572     207258006003000533633ART+CRAFT O/PASTEL 12PC0000001000+00001753+00000+0001T   00001753+0000001743          1400 KS8130               1AZ
207259000207259               207259               170213JG     1400+00000+JG0000007062+0000007062+000000000+000000989+0000008050+0000000001+I20000000000+0000008050+Z
207259001207259112-116069     207259006009681820277TCS CARRIER BAG JUMBO  0000001000+00000048+00000+0001T   00000048+0000001744          1400 KS8090               1AZ
207259002207259031-005923     207259006003000040322P/FRAME CERT PL 21x29.70000002000+00003507+00000+0001T   00003507+0000001744          1400 KS8510               1AZ
A17021300                                          17252742JGSLAVE 1                       KS82IC
M17021301                              IT          JGATT IT                                          LAST DOC FOR SLAVE 1 IS 207259                  THANK YOU                                       PARKRAND JG
M17021391                              CASH        JGSLAVE 1                       Z-REPORT No.   502TOTAL (Sales - Refunds)           8431.44       CASH TO BE BANKED                 3264.70       DEBIT CARDS                          0.00       CREDIT CARDS                      5166.74       Z-READING                         8431.44       AIRTIME DEBIT CARD SALES             0.00       AIRTIME CARD SALES                   0.00       OVERS/UNDERS                         0.00       AIRTIME CASH SALES                   0.00       GIFT CARDS                           0.00       GIFT CARD CASH SALES                 0.00       T O T A L  CASH PAYOUTS              0.00                                                                                                                                                                                                                                                                                                                                                      Z
M17021392                              CASH        JGABSENT                                                                                                                                                                                          ANNUAL LEAVE                                                                                                                                                                                    DAY OFF                                                                                                                                                                                         COMMENTS          0.10C UNDER                                                                                                                                                                                                                                                                                                                                                                  Z
Y17021300                                          JG00000000746504+000119
ZJG17021319543 SLAVE 1      SALES DATA                     NEXT INVOICE NO.  207260 0503
X JG Slave 1 First invoice 207140 170213 Last invoice 207259 170213 Next invoice 207260 Total number of records 000000426 clbackup completed 19:54:03
