216728000216728               216728               170213JG     1400+00000+JG0000001753+0000001753+000000000+000000246+0000001990+0000000009+I20000000000+0000001990+Z
216728001216728051-002407     216728006003000452491SPRAYER TRIGGER 550ml  0000001000+00001753+00000+0001T   00001753+0000001024          1400 UK7820               2BZ
216729000216729               216729               170213JG     1400+00000+JG0000001753+0000001753+000000000+000000246+0000001990+0000000009+I20000000000+0000001990+Z
216729001216729046-002013-PK6 216729004897006174851BATTERY BUTTON AG13 6PC0000001000+00001753+00000+0001T   00001753+0000001025          1400 UK7312               2BZ
216730000216730               216730               170213JG     1400+00000+JG0000009952+0000009952+000000000+000001397+0000011340+0000000009+I20000000000+0000011340+Z
216730001216730112-116069     216730006009681820277TCS CARRIER BAG JUMBO  0000001000+00000048+00000+0001T   00000048+0000001131          1400 UK7090               2BZ
216730002216730002-000717     216730006001023775184CHOPPING-MATS FLEX 2PCE0000001000+00002630+00000+0001T   00002630+0000001131          1400 UK7300               2BZ
216730003216730174-000010     216730006001023462381W/MACHINE-BAG 25x40cm  0000001000+00001753+00000+0001T   00001753+0000001131          1400 UK7205               2BZ
216730004216730002-001216     216730006001023202888BASTER ALUM HILLHOUSE  0000001000+00002630+00000+0001T   00003069+0008121131          1400 UK7300               2BZ
216730005216730002-000015     216730006003000555604CAPPUCCINO STENCILS 12P0000001000+00001753+00000+0001T   00001753+0000001131          1400 UK7300               2BZ
216730006216730002-000879     216730006001023770004STRAINER TEA 7cm H/H   0000001000+00000350+00000+0001T   00000350+0000001131          1400 UK7300               2BZ
216730007216730903-000137     216730006002099004130SWEET GS JELLY BEAN 60G0000001000+00000788+00000+0001T   00000788+0000001131          1400 UK7150               2BZ
216731000216731               216731               170213JG     1400+00000+JG0000011402+0000011402+000000000+000001597+0000012999+0000000000+I40000012999+0000000000+Z
216731001216731261-003902     216731006001023707475GUN SET+ACCESSORIES    0000001000+00011402+00000+0001T   00011402+0000001300          1400 UK7710               2BZ
216732000216732               216732               170213JG     1400+00000+JG0000003946+0000003946+000000000+000000553+0000004490+0000000009+I20000000000+0000004490+Z
216732001216732036-000013     216732006001246500860LINT REMOVER REFILLS   0000001000+00003946+00000+0001T   00003946+0000001306          1400 UK7212               2BZ
216733000216733               216733               170213JG     1400+00000+JG0000000876+0000000876+000000000+000000123+0000000990+0000000009+I20000000000+0000000990+Z
216733001216733071-001019     216733006001023474513MARKER BLACK NAME-PEN  0000001000+00000876+00000+0001T   00000876+0000001309          1400 UK7130               2AZ
216734000216734               216734               170213JG     1400+00000+JG0000015815+0000015815+000000000+000002215+0000018030+0000000000+I20000000000+0000018030+Z
216734001216734112-116038     216734006009681820246TCS CARRIER BAG MIDI   0000001000+00000035+00000+0001T   00000035+0000001312          1400 UK7090               2AZ
216734002216734106-003115     216734006002689011357ICE CUBE-TRAYS 2PCE WHT0000010000+00001578+00000+0001T   00001578+0000001312          1400 UK7210               2AZ
216735000216735               216735               170213JG     1400+00000+JG0000000874+0000000874+000000000+000000124+0000000990+0000000008+I20000000000+0000000990+Z
216735001216735080-000133-A   216735006003000647019MINI VALENTINES CARD   0000002000+00000437+00000+0001T   00000437+0000001312          1400 UK7112               2AZ
216736000216736               216736               170213JG     1400+00000+JG0000002630+0000002630+000000000+000000369+0000002990+0000000009+I20000000000+0000002990+Z
216736001216736079-000123     216736006003000589746ART+CRAFT ENGRAVING ART0000001000+00002630+00000+0001T   00002630+0000001313          1400 UK7130               2AZ
216737000216737               216737               170213JG     1400+00000+JG0000001227+0000001227+000000000+000000172+0000001390+0000000009+I20000000000+0000001390+Z
216737001216737079-000010     216737006001023173409P/CRAYONS 12-COL SHORT 0000001000+00001227+00000+0001T   00001227+0000001313          1400 UK7130               2AZ
216738000216738               216738               170213JG     1400+00000+JG0000011341+0000011341+000000000+000001590+0000012930+0000000001+I20000000000+0000012930+Z
216738001216738112-116038     216738006003000534906TCS CARRIER BAG MIDI   0000001000+00000035+00000+0001T   00000035+0000001314          1400 UK7090               2AZ
216738002216738080-000139     216738006003000611690CARD & ENV MINI SET 6PC0000001000+00002192+00000+0001T   00002192+0000001314          1400 UK7112               2AZ
216738003216738072-020280     216738006001023526526CAT JINGLE-BALLS 6PCE  0000001000+00002192+00000+0001T   00002192+0000001314          1400 UK7870               2AZ
216738004216738903-000120     216738006002099001665SWEET GS ZILLIONS 50g  0000001000+00000700+00000+0001T   00000700+0000001314          1400 UK7150               2AZ
216738005216738903-000519     216738006001704012805SWT MS LIQ-O-GHETTI    0000002000+00001227+00000+0001T   00001227+0000001314          1400 UK7150               2AZ
216738006216738903-000709     216738006002099007070SWT QUENCHERS FRUIT    0000001000+00001139+00000+0001T   00001139+0000001314          1400 UK7150               2AZ
216738007216738903-000087     216738006001704000161SWT SPECKLED-EGGS 50G  0000001000+00001139+00000+0001T   00001139+0000001314          1400 UK7150               2AZ
216738008216738077-000305     216738006003000395422GIFT-BAG WINE 10X35CM  0000001000+00001490+00000+0001T   00001490+0000001314          1400 UK7112               2AZ
216739000216739               216739               170213JG     1400+00000+JG0000003507+0000003507+000000000+000000491+0000003990+0000000008+I20000000000+0000003990+Z
216739001216739566-000997     216739006001023554086STICKERS TATTOOS BOOK  0000001000+00003507+00000+0001T   00003507+0000001326          1400 UK7130               2BZ
216740000216740               216740               170213JG     1400+00000+JG0000001401+0000001401+000000000+000000197+0000001598+0000000000+I40000001598+0000000000+Z
216740001216740903-000843     216740008693029031067SWT GUMMY JELAXY 80G   0000001000+00000964+00000+0001T   00000964+0000001336          1400 UK7150               2AZ
216740002216740080-000133-A   216740006003000647019MINI VALENTINES CARD   0000001000+00000437+00000+0001T   00000437+0000001336          1400 UK7112               2AZ
216741000216741               216741               170213JG     1400+00000+JG0000010112+0000010112+000000000+000001420+0000011532+0000000000+I40000011532+0000000000+Z
216741001216741077-000380     216741006003000247585GIFT-BAG 33X45CM S/COL 0000001000+00002455+00000+0001T   00002455+0000001340          1400 UK7112               2AZ
216741002216741071-001019     216741006001023474513MARKER BLACK NAME-PEN  0000001000+00000876+00000+0001T   00000876+0000001340          1400 UK7130               2AZ
216741003216741077-000011-C   216741006001023808523TISSUE 10xSHTS RED     0000001000+00000876+00000+0001T   00000876+0000001340          1400 UK7112               2AZ
216741004216741077-000383     216741006003000247943GIFT-BAG 11X14CM S/COL 0000003000+00000788+00000+0001T   00000788+0000001340          1400 UK7112               2AZ
216741005216741077-000382     216741006003000247820GIFT-BAG MED 18X23CM   0000002000+00001753+00000+0001T   00001753+0000001340          1400 UK71121IC            2AZ
216741006216741112-116038     216741006009681820246TCS CARRIER BAG MIDI   0000001000+00000035+00000+0001T   00000035+0000001340          1400 UK7090               2AZ
216742000216742               216742               170213JG     1400+00000+JG0000001578+0000001578+000000000+000000221+0000001790+0000000009+I20000000000+0000001790+Z
216742001216742077-000315     216742006003000181186GIFT-BAG 20x28cm MATT  0000001000+00001578+00000+0001T   00001578+0000001343          1400 UK7112               2AZ
216743000216743               216743               170213JG     1400+00000+JG0000006138+0000006138+000000000+000000860+0000006998+0000000000+I40000006998+0000000000+Z
216743001216743077-000316     216743006001023609731GIFT-BAG 25X32CM MATT  0000001000+00001753+00000+0001T   00001753+0000001357          1400 UK7112               2BZ
216743002216743031-080508     216743006001023802415P/FRAME PL 22X11CM LOVE0000001000+00004385+00000+0001T   00004385+0000001357          1400 UK7510               2BZ
216744000216744               216744               170213JG     1400+00000+JG0000007893+0000007893+000000000+000001106+0000008990+0000000009+I20000000000+0000008990+Z
216744001216744466-000607     216744006003000027620BALL VOLLEYBALL 19cm   0000001000+00007893+00000+0001T   00007893+0000001404          1400 UK7785               2BZ
216745000216745               216745               170213JG     1400+00000+JG0000002665+0000002665+000000000+000000374+0000003030+0000000009+I20000000000+0000003030+Z
216745001216745200-000003     216745006003000532360DISPOSABLE BAG 100PC   0000001000+00002630+00000+0001T   00002630+0000001406          1400 UK7214               2AZ
216745002216745112-116038     216745006003000534906TCS CARRIER BAG MIDI   0000001000+00000035+00000+0001T   00000035+0000001406          1400 UK7090               2AZ
216746000216746               216746               170213JG     1400+00000+JG0000000437+0000000437+000000000+000000062+0000000490+0000000009+I20000000000+0000000490+Z
216746001216746080-000133-A   216746006003000647019MINI VALENTINES CARD   0000001000+00000437+00000+0001T   00000437+0000001406          1400 UK7112               2AZ
216747000216747               216747               170213JG     1400+00000+JG0000012921+0000012921+000000000+000001813+0000014730+0000000004+I20000000000+0000014730+Z
216747001216747112-116038     216747006003000534906TCS CARRIER BAG MIDI   0000001000+00000035+00000+0001T   00000035+0000001409          1400 UK7090               2AZ
216747002216747206-000430     216747006003000619627MUG COLOUR CHANGING    0000001000+00006139+00000+0001T   00006139+0000001409          1400 UK7321               2AZ
216747003216747108-003023     216747006003000665471TUMBLER W/STRAW 550ml  0000001000+00002630+00000+0001T   00002630+0000001409          1400 UK7210               2AZ
216747004216747565-000041     216747006008766115642NOVELTY BALL ICON 5.5cm0000001000+00002630+00000+0001T   00002630+0000001409          1400 UK7745               2AZ
216747005216747007-000555     216747006001023848239MEMO-PAD MINI LOVE     0000001000+00000613+00000+0001T   00000613+0000001409          1400 UK7130               2AZ
216747006216747080-000133-A   216747006003000647019MINI VALENTINES CARD   0000002000+00000437+00000+0001T   00000437+0000001409          1400 UK7112               2AZ
216748000216748               216748               170213JG     1400+00000+JG0000003099+0000003099+000000000+000000435+0000003530+0000000004+I20000000000+0000003530+Z
216748001216748077-000311     216748006001023608666GIFT-BAG 11X14CM GLOSS 0000001000+00000613+00000+0001T   00000613+0000001411          1400 UK7112               2AZ
216748002216748018-000177     216748006001023797513MUG MINI LOVE ASSTD    0000001000+00000700+00000+0001T   00000700+0000001411          1400 UK7515               2AZ
216748003216748903-000194     216748006009826020616SWT CHOC RP LOLLY 25G  0000001000+00001314+00000+0001T   00001314+0000001411          1400 UK7150               2AZ
216748004216748080-000133-A   216748006003000647019MINI VALENTINES CARD   0000001000+00000437+00000+0001T   00000437+0000001411          1400 UK7112               2AZ
216748005216748112-116038     216748006003000534906TCS CARRIER BAG MIDI   0000001000+00000035+00000+0001T   00000035+0000001411          1400 UK7090               2AZ
216749000216749               216749               170213JG     1400+00000+JG0000023282+0000023282+000000000+000003264+0000026546+0000000000+I40000026546+0000000000+Z
216749001216749112-116069     216749006009681820277TCS CARRIER BAG JUMBO  0000001000+00000048+00000+0001T   00000048+0000001414          1400 UK7090               2BZ
216749002216749567-011913     216749009780799375466BK EDU VOORSPRONG AFR  0000001000+00002630+00000+0001T   00002630+0000001414          1400 UK7757               2BZ
216749003216749366-000200     216749006003000395682DRESS UP BOA,EARRINGS  0000001000+00007893+00000+0001T   00007893+0000001414          1400 UK7131               2BZ
216749004216749362-002467     216749006003000167623HAIR EXT LONG 61cm     0000001000+00003507+00000+0001T   00003507+0000001414          1400 UK7160               2BZ
216749005216749046-001616-PK2 216749004897006178378BATTERY LITHIUM CR-16160000001000+00000876+00000+0001T   00000876+0000001414          1400 UK7312               2BZ
216749006216749046-001620-PK2 216749004897006178408BATTERY LITHIUM CR-16200000001000+00000876+00000+0001T   00000876+0000001414          1400 UK7312               2BZ
216749007216749046-002025-PK2 216749004897006174868BATTERIES CR-2025  2PCE0000001000+00001753+00000+0001T   00001753+0000001414          1400 UK7312               2BZ
216749008216749366-000256     216749006001023918406DRESS UP TIARA&EARRINGS0000001000+00003069+00000+0001T   00003069+0000001414          1400 UK7131               2BZ
216749009216749362-001052     216749006001023915078NAIL TEEN ART SET 5PCE 0000001000+00002630+00000+0001T   00002630+0000001414          1400 UK7160               2BZ
216750000216750               216750               170213JG     1400+00000+JG0000003945+0000003945+000000000+000000553+0000004490+0000000008+I20000000000+0000004490+Z
216750001216750039-000326     216750006001023775252B/CANDLES 25PC CAND+HOL0000001000+00002192+00000+0001T   00002192+0000001422          1400 KS8510               2AZ
216750002216750039-000318     216750006003000406159B/DAY CANDLES SMALL NO 0000001000+00001753+00000+0001T   00001753+0000001422          1400 KS8510               2AZ
216751000216751               216751               170213JG     1400+00000+JG0000016272+0000016272+000000000+000002280+0000018550+0000000002+I20000000000+0000018550+Z
216751001216751368-000637     216751006001023874092PLUSH BEAR SLEEPING LOV0000001000+00011402+00000+0001T   00012279+0006471423          1400 KS8745               2AZ
216751002216751112-116069     216751006003000535064TCS CARRIER BAG JUMBO  0000001000+00000048+00000+0001T   00000048+0000001423          1400 KS8090               2AZ
216751003216751003-009110     216751006003000675395ORN SIGN INSPIRATIONAL 0000001000+00003069+00000+0001T   00003069+0000001423          1400 KS8505               2AZ
216751004216751016-000850     216751006001023587770STORAGE-BOTTLE W/CLIP  0000001000+00001753+00000+0001T   00001753+0000001423          1400 KS8300               2AZ
216752000216752               216752               170213JG     1400+00000+JG0000015728+0000015728+000000000+000002205+0000017930+0000000003+I20000000000+0000017930+Z
216752001216752264-015494     216752000090159154945MAISTO DINKY MUSCLE CAR0000001000+00007893+00000+0001T   00007893+0000001425          1400 KS8710               2BZ
216752002216752077-000303     216752006001023593757GIFT-BAG PAPER MED     0000001000+00001578+00000+0001T   00001578+0000001425          1400 KS8112               2BZ
216752003216752080-000124     216752006003000297733CARD & ENV VALENTINES  0000001000+00001578+00000+0001T   00001578+0000001425          1400 KS8112               2BZ
216752004216752018-000127     216752006001023380289MUG OCC STRAIGHT LOVE  0000001000+00001578+00000+0001T   00001753+0006471425          1400 KS8515               2BZ
216752005216752903-002851     216752000000087108538MENTOS ROLL STRAWBERRY 0000001000+00001051+00000+0001T   00001051+0000001425          1400 KS8150               2BZ
216752006216752903-000138     216752006002099004314SWT GS WINE GUMS 60G   0000001000+00000788+00000+0001T   00000788+0000001425          1400 KS8150               2BZ
216752007216752903-000510     216752006001704012621SWEET MS ZBDZ S/BERRY  0000001000+00001227+00000+0001T   00001227+0000001425          1400 KS8150               2BZ
216752008216752112-116038     216752006003000534906TCS CARRIER BAG MIDI   0000001000+00000035+00000+0001T   00000035+0000001425          1400 KS8090               2BZ
216753000216753               216753               170213JG     1400+00000+JG0000001574+0000001574+000000000+000000223+0000001790+0000000007+I20000000000+0000001790+Z
216753001216753077-000383     216753006003000247943GIFT-BAG 11X14CM S/COL 0000001000+00000788+00000+0001T   00000788+0000001425          1400 KS8112               2BZ
216753002216753903-000183     216753006003000451043SWT LB HEART LOLLY     0000002000+00000393+00000+0001T   00000393+0000001425          1400 KS8150               2BZ
216754000216754               216754               170213JG     1400+00000+JG0000009206+0000009206+000000000+000001289+0000010495+0000000000+I40000010495+0000000000+Z
216754001216754031-000025     216754006003000427185P/FRAME PL MOMMY       0000001000+00003507+00000+0001T   00003507+0000001427          1400 KS8510               2BZ
216754002216754031-005853     216754006003000442416P/FRAME WDN TWIN HEARTS0000001000+00003507+00000+0001T   00003507+0000001427          1400 KS8510               2BZ
216754003216754080-000127     216754006003000424351VALENTINES DAY 36x24CM 0000001000+00002192+00000+0001T   00002192+0000001427          1400 KS8112               2BZ
216755000216755               216755               170213JG     1400+00000+JG0000005469+0000005469+000000000+000000767+0000006230+0000000006+I20000000000+0000006230+Z
216755001216755366-007916     216755006001023419309MASK PL CHARACTER ASS  0000001000+00000876+00000+0001T   00000876+0000001430          1400 UK7131               2BZ
216755002216755306-000021     216755006001023169433EARBUDS 100PCE IN BAG  0000001000+00000613+00000+0001T   00000613+0000001430          1400 UK7200               2BZ
216755003216755306-000024-A   216755006003000577309COTTON-WOOL-PADS 80PC  0000001000+00001753+00000+0001T   00001753+0000001430          1400 UK7200               2BZ
216755004216755033-000782     216755006001023905482COSMETIC SPONGES 12PC  0000001000+00002192+00000+0001T   00002192+0000001430          1400 UK7200               2BZ
216755005216755112-116038     216755006009681820246TCS CARRIER BAG MIDI   0000001000+00000035+00000+0001T   00000035+0000001430          1400 UK7090               2BZ
216756000216756               216756               170213JG     1400+00000+JG0000008771+0000008771+000000000+000001228+0000009990+0000000009+I20000000000+0000009990+Z
216756001216756368-000614     216756006001023705808PLUSH LOVE 30cm        0000001000+00008771+00000+0001T   00008771+0000001431          1400 UK7745               2BZ
216757000216757               216757               170213JG     1400+00000+JG0000001839+0000001839+000000000+000000258+0000002090+0000000007+I20000000000+0000002090+Z
216757001216757304-001011     216757006001023806727FLWR ROSE RED W/BEAR   0000003000+00000613+00000+0001T   00000788+0006471433          1400 UK7510               2BZ
216758000216758               216758               170213JG     1400+00000+JG0000005734+0000005734+000000000+000000804+0000006530+0000000008+I20000000000+0000006530+Z
216758001216758019-000126     216758006003000329571PLANTER GALV W/HANDLE  0000001000+00004823+00000+0001T   00004823+0000001434          1400 UK7510               2BZ
216758002216758077-000151     216758006008766114676GIFT-WRAP C/PHANE ASSTD0000001000+00000876+00000+0001T   00000876+0000001434          1400 UK7112               2BZ
216758003216758112-116038     216758006009681820246TCS CARRIER BAG MIDI   0000001000+00000035+00000+0001T   00000035+0000001434          1400 UK7090               2BZ
216759000216759               216759               170213JG     1400+00000+JG0000003506+0000003506+000000000+000000492+0000003990+0000000008+I20000000000+0000003990+Z
216759001216759077-000906     216759006003000410804G/WRAP 700mmx1m BIRTHDA0000001000+00001753+00000+0001T   00001753+0000001435          1400 UK7112               2BZ
216759002216759077-000116     216759006003000240777GIFT-WRAP 700mmx2m COL 0000001000+00001753+00000+0001T   00001753+0000001435          1400 UK7112               2BZ
216760000216760               216760               170213JG     1400+00000+JG0000010522+0000010522+000000000+000001475+0000011997+0000000000+I40000011997+0000000000+Z
216760001216760903-000610     216760006003000610518SWEET JUMBO BUBBLE GUM 0000001000+00001753+00000+0001T   00001753+0000001437          1400 UK7150               2BZ
216760002216760077-000270     216760006003000395453GIFT-BAG PPR JMB 33X45 0000001000+00002630+00000+0001T   00002630+0000001437          1400 UK7112               2BZ
216760003216760018-050000     216760006003000412679MUG OCC LOVE TWIN BEAR 0000001000+00006139+00000+0001T   00006139+0000001437          1400 UK7515               2BZ
216761000216761               216761               170213JG     1400+00000+JG0000007012+0000007012+000000000+000000984+0000007990+0000000006+I20000000000+0000007990+Z
216761001216761080-000133     216761006003000535613CARD&ENV MINI ASTD DSGN0000001000+00000437+00000+0001T   00000437+0000001438          1400 UK7112               2BZ
216761002216761486-000010     216761006001023544254WALL-CLOCK ROUND 25cm  0000001000+00006139+00000+0001T   00006139+0000001438          1400 UK7510               2BZ
216761003216761006-000170-G   216761006003000608553BALLOONS 1PC YELLOW    0000001000+00000218+00000+0001T   00000218+0000001438          1400 UK7131               2BZ
216761004216761006-000170-B   216761006003000608300BALLOONS 1PC L/GREEN   0000001000+00000218+00000+0001T   00000218+0000001438          1400 UK7131               2BZ
216762000216762               216762               170213JG     1400+00000+JG0000011258+0000011258+000000000+000001577+0000012835+0000000000+I40000012835+0000000000+Z
216762001216762080-000113     216762006003000237449CARD&ENVLPE - LOVE     0000001000+00001753+00000+0001T   00001753+0000001440          1400 UK7112               2BZ
216762002216762077-000303     216762006001023593757GIFT-BAG PAPER MED     0000001000+00001578+00000+0001T   00001578+0000001440          1400 UK7112               2BZ
216762003216762001-000175     216762006001023788108B/MUG GLS LOVE 380ML   0000001000+00004385+00000+0001T   00004385+0000001440          1400 UK7515               2BZ
216762004216762567-075490     216762009780799365078BK NOVEL ROMANCE AFR   0000001000+00003507+00000+0001T   00003507+0000001440          1400 UK7757               2BZ
216762005216762112-116038     216762006009681820246TCS CARRIER BAG MIDI   0000001000+00000035+00000+0001T   00000035+0000001440          1400 UK7090               2BZ
216763000216763               216763               170213JG     1400+00000+JG0000002630+0000002630+000000000+000000369+0000002990+0000000009+I20000000000+0000002990+Z
216763001216763466-000584     216763006001023628787SKIPPING-ROPE          0000001000+00002630+00000+0001T   00002630+0000001445          1400 KS8785               2AZ
216764000216764               216764               170213JG     1400+00000+JG0000001753+0000001753+000000000+000000246+0000001990+0000000009+I20000000000+0000001990+Z
216764001216764077-000457     216764006003000285662G/BAG METALLIC JMB SOL 0000001000+00001753+00000+0001T   00001753+0000001446          1400 KS8112               2BZ
216765000216765               216765               170213JG     1400+00000+JG0000004120+0000004120+000000000+000000577+0000004697+0000000000+I40000004697+0000000000+Z
216765001216765304-001011     216765006001023806727FLWR ROSE RED W/BEAR   0000001000+00000613+00000+0001T   00000788+0006471448          1400 KS8510               2BZ
216765002216765301-085004     216765006003000420469ORN LOVE PLAQUE 21X10CM0000001000+00003507+00000+0001T   00003946+0006471448          1400 KS8505               2BZ
216766000216766               216766               170213JG     1400+00000+JG0000007016+0000007016+000000000+000000983+0000007990+0000000009+I20000000000+0000007990+Z
216766001216766368-000021     216766006003000672141PLUSH DINOSAUR 27cm    0000001000+00007016+00000+0001T   00007016+0000001450          1400 KS8745               2AZ
216767000216767               216767               170213JG     1400+00000+JG0000001402+0000001402+000000000+000000197+0000001599+0000000000+I40000001599+0000000000+Z
216767001216767304-001204     216767006001023737984FLOWER OCC. TEDDY/ROSES0000001000+00001402+00000+0001T   00001490+0006471452          1400 KS8510               2AZ
216768000216768               216768               170213JG     1400+00000+JG0000002844+0000002844+000000000+000000401+0000003240+0000000005+I20000000000+0000003240+Z
216768001216768362-003000     216768006003000295258GIRL HEART NOTEBOOK    0000001000+00001753+00000+0001T   00002630+0008191453          1400 KS8160               2AZ
216768002216768080-000133-A   216768006003000647019MINI VALENTINES CARD   0000001000+00000437+00000+0001T   00000437+0000001453          1400 KS8112               2AZ
216768003216768006-000172-A   216768006003000609765BALLOONS METALLIC PINK 0000003000+00000218+00000+0001T   00000218+0000001453          1400 KS8131               2AZ
216769000216769               216769               170213JG     1400+00000+JG0000011792+0000011792+000000000+000001655+0000013447+0000000000+I40000013447+0000000000+Z
216769001216769112-116069     216769006009681820277TCS CARRIER BAG JUMBO  0000001000+00000048+00000+0001T   00000048+0000001457          1400 KS8090               2AZ
216769002216769077-000457     216769006003000285662G/BAG METALLIC JMB SOL 0000001000+00001753+00000+0001T   00001753+0000001457          1400 KS8112               2AZ
216769003216769263-000413     216769006003000600458VEHICLE RACER PULL BACK0000001000+00001490+00000+0001T   00001490+0000001457          1400 KS8710               2AZ
216769004216769903-002853     216769000000087108019MENTOS ROLL MINT       0000001000+00001051+00000+0001T   00001051+0000001457          1400 KS8150               2AZ
216769005216769306-000540     216769006003000165780T/BRUSH+GUM PROTECTION 0000001000+00001490+00000+0001T   00001490+0000001457          1400 KS8200               2AZ
216769006216769261-009920     216769006001023583451GUN PISTOL SQUIRTER    0000001000+00001227+00000+0001T   00001227+0000001457          1400 KS8710               2AZ
216769007216769077-000010-F   216769006003453000461CREPE-PAPER BLUE       0000001000+00000788+00000+0001T   00000788+0000001457          1400 KS8112               2AZ
216769008216769903-000624     216769006003000671793SWEET LOLLY BLU/BRRY   0000001000+00001753+00000+0001T   00001753+0000001457          1400 KS8150               2AZ
216769009216769080-000127     216769006003000424351VALENTINES DAY 36x24CM 0000001000+00002192+00000+0001T   00002192+0000001457          1400 KS8112               2AZ
216770000216770               216770               170213JG     1400+00000+JG0000001490+0000001490+000000000+000000209+0000001690+0000000009+I20000000000+0000001690+Z
216770001216770077-000452     216770006003000284986G/BAG METALLIC MED EMB 0000001000+00001490+00000+0001T   00001490+0000001458          1400 KS8112               2AZ
216771000216771               216771               170213JG     1400+00000+JG0000002192+0000002192+000000000+000000307+0000002490+0000000009+I20000000000+0000002490+Z
216771001216771080-000127     216771006003000424351VALENTINES DAY 36x24CM 0000001000+00002192+00000+0001T   00002192+0000001459          1400 KS8112               2BZ
216772000216772               216772               170213JG     1400+00000+JG0000013986+0000013986+000000000+000001960+0000015940+0000000006+I20000000000+0000015940+Z
216772001216772006-000173-B   216772006003000636358BALLOONS HELIUM 1PC WHT0000001000+00000218+00000+0001T   00000218+0000001502          1400 UK7131               2AZ
216772002216772006-000173-C   216772006003000636518BALLOONS 1PC PINK      0000001000+00000218+00000+0001T   00000218+0000001502          1400 UK7131               2AZ
216772003216772006-001000     216772006003000093779HELIUM BALLOON FILL    0000002000+00000613+00000+0001T   00000613+0000001502          1400 UK7131               2AZ
216772004216772112-116069     216772006009681820277TCS CARRIER BAG JUMBO  0000001000+00000048+00000+0001T   00000048+0000001502          1400 UK7090               2AZ
216772005216772368-000001     216772006003000097982Plush Bear 25cm        0000001000+00004385+00000+0001T   00004385+0000001502          1400 UK7745               2AZ
216772006216772018-005009     216772006001023725608MUG W/PLUSH-BEAR LOVE  0000001000+00003507+00000+0001T   00003507+0000001502          1400 UK7515               2AZ
216772007216772080-000127     216772006003000424351VALENTINES DAY 36x24CM 0000002000+00002192+00000+0001T   00002192+0000001502          1400 UK7112               2AZ
216773000216773               216773               170213JG     1400+00000+JG0000009327+0000009327+000000000+000001307+0000010634+0000000000+I40000010634+0000000000+Z
216773001216773903-000087     216773006001704000161SWT SPECKLED-EGGS 50G  0000001000+00001139+00000+0001T   00001139+0000001504          1400 UK7150               2AZ
216773002216773046-000014     216773006001023725387BATTERIES SIZE:AAA 4PCE0000001000+00001139+00000+0001T   00001139+0000001504          1400 UK7312               2AZ
216773003216773072-020266     216773006003000400591PET PUPPY TRAINING PAD 0000002000+00003507+00000+0001T   00003507+0000001504          1400 UK7870               2AZ
216773004216773112-116038     216773006009681820246TCS CARRIER BAG MIDI   0000001000+00000035+00000+0001T   00000035+0000001504          1400 UK7090               2AZ
216774000216774               216774               170213JG     1400+00000+JG0000005611+0000005611+000000000+000000786+0000006390+0000000007+I20000000000+0000006390+Z
216774001216774006-001000     216774006003000093779HELIUM BALLOON FILL    0000002000+00000613+00000+0001T   00000613+0000001505          1400 UK7131               2BZ
216774002216774006-000190     216774006003000685530BALLOONS LOVE 81x91cm  0000001000+00004385+00000+0001T   00004385+0000001505          1400 UK7131               2BZ
216775000216775               216775               170213JG     1400+00000+JG0000012748+0000012748+000000000+000001787+0000014530+0000000005+I20000000000+0000014530+Z
216775001216775080-000133     216775006003000535613CARD&ENV MINI ASTD DSGN0000001000+00000437+00000+0001T   00000437+0000001506          1400 UK7112               2BZ
216775002216775077-000467     216775006003000329991GIFT-BAG STAMP 18X23CM 0000001000+00001753+00000+0001T   00001753+0000001506          1400 UK7112               2BZ
216775003216775039-080941     216775006001023669841CANDLE PILLAR WHT 7X7CM0000001000+00003507+00000+0001T   00003507+0000001506          1400 UK7510               2BZ
216775004216775040-000226     216775006001023845405C/HLDR MTL STAND W/GLS 0000001000+00007016+00000+0001T   00007016+0000001506          1400 UK7510               2BZ
216775005216775112-116038     216775006009681820246TCS CARRIER BAG MIDI   0000001000+00000035+00000+0001T   00000035+0000001506          1400 UK7090               2BZ
216776000216776               216776               170213JG     1400+00000+JG0000006139-0000006139-000000000+000000860-0000007000-0000000001+I20000000000+0000007000-Z
216776001216776486-000010     216776006001023544254WALL-CLOCK ROUND 25cm  0000001000-00006139+00000+0001T   00006139+0000001512          1400 UK75102IC            2 Z
216777000216777               216777               170213JG     1400+00000+JG0000001139+0000001139+000000000+000000160+0000001290+0000000009+I20000000000+0000001290+Z
216777001216777162-097717     216777006001492977171#TAG NEW SILVER E/PIERC0000001000+00001139+00000+0001T   00001139+0000001519          1400 UK7160               2CZ
216778000216778               216778               170213JG     1400+00000+JG0000004418+0000004418+000000000+000000620+0000005030+0000000008+I20000000000+0000005030+Z
216778001216778077-000382     216778006003000247820GIFT-BAG MED 18X23CM   0000001000+00001753+00000+0001T   00001753+0000001520          1400 UK7112               2BZ
216778002216778018-000129     216778006001023403353MUG OCC. LOVE V-SHAPE  0000001000+00002630+00000+0001T   00002630+0000001520          1400 UK7515               2BZ
216778003216778112-116038     216778006009681820246TCS CARRIER BAG MIDI   0000001000+00000035+00000+0001T   00000035+0000001520          1400 UK7090               2BZ
216779000216779               216779               170213JG     1400+00000+JG0000002452+0000002452+000000000+000000344+0000002790+0000000006+I20000000000+0000002790+Z
216779001216779006-001000     216779006003000093779HELIUM BALLOON FILL    0000004000+00000613+00000+0001T   00000613+0000001545          1400 UK7131               2BZ
216780000216780               216780               170213JG     1400+00000+JG0000006749+0000006749+000000000+000000947+0000007690+0000000006+I20000000000+0000007690+Z
216780001216780077-000010-C   216780006001023123879CREPE-PAPER RED        0000003000+00000788+00000+0001T   00000788+0000001546          1400 UK7112               2BZ
216780002216780466-006126     216780006001023800633BASKETABALL-GAME+BALL  0000001000+00004385+00000+0001T   00004385+0000001546          1400 UK7785               2BZ
216781000216781               216781               170213JG     1400+00000+JG0000001578+0000001578+000000000+000000221+0000001790+0000000009+I20000000000+0000001790+Z
216781001216781077-000303     216781006001023593757GIFT-BAG PAPER MED     0000001000+00001578+00000+0001T   00001578+0000001546          1400 UK7112               2BZ
216782000216782               216782               170213JG     1400+00000+JG0000003507+0000003507+000000000+000000491+0000003998+0000000000+I40000003998+0000000000+Z
216782001216782031-000002-A   216782006003000247103P/FRAME LOVE 7.5X7.5CM 0000001000+00003507+00000+0001T   00003507+0000001608          1400 UK7510               2BZ
216783000216783               216783               170213JG     1400+00000+JG0000009645+0000009645+000000000+000001352+0000010990+0000000007+I20000000000+0000010990+Z
216783001216783004-072001     216783006003000452378CABLE-TIDY REUSE COL-C 0000002000+00001753+00000+0001T   00001753+0000001627          1400 UK7310               2BZ
216783002216783040-000222     216783006001023845344C/HOLD BUTTERFLY 14CM  0000001000+00006139+00000+0001T   00006139+0000001627          1400 UK7510               2BZ
216784000216784               216784               170213JG     1400+00000+JG0000003507+0000003507+000000000+000000491+0000003998+0000000000+I40000003998+0000000000+Z
216784001216784018-000130     216784006001023867537MUG OCC LOVE MINI+HEART0000001000+00003507+00000+0001T   00003507+0000001629          1400 UK7515               2BZ
216785000216785               216785               170213JG     1400+00000+JG0000003945+0000003945+000000000+000000553+0000004498+0000000000+I40000004498+0000000000+Z
216785001216785566-000065     216785006003000217915STICKERS GLITTER ASSTD 0000001000+00001753+00000+0001T   00001753+0000001630          1400 UK7130               2BZ
216785002216785566-000667     216785006003000658039STICKER FOIL EMBOSSED  0000001000+00002192+00000+0001T   00002192+0000001630          1400 UK7130               2BZ
216786000216786               216786               170213JG     1400+00000+JG0000034448+0000034448+000000000+000004835+0000039283+0000000000+I40000039283+0000000000+Z
216786001216786089-000004     216786006003000137749KEY CHAIN MTL CHARMS   0000004000+00001753+00000+0001T   00001753+0000001634          1400 UK7205               2BZ
216786002216786112-116069     216786006009681820277TCS CARRIER BAG JUMBO  0000001000+00000048+00000+0001T   00000048+0000001634          1400 UK7090               2BZ
216786003216786075-000417     216786006003000622849BAG LADIES DENIM ASSTD 0000001000+00011402+00000+0001T   00011402+0000001634          1400 UK7160               2BZ
216786004216786106-001110     216786006001023857880SPORTS-BOTTLES SET-OF-20000003000+00003507+00000+0001T   00003507+0000001634          1400 UK7210               2BZ
216786005216786903-000843     216786008693029031067SWT GUMMY JELAXY 80G   0000002000+00000964+00000+0001T   00000964+0000001634          1400 UK7150               2BZ
216786006216786903-000183     216786006003000451043SWT LB HEART LOLLY     0000009000+00000393+00000+0001T   00000393+0000001634          1400 UK7150               2BZ
216787000216787               216787               170213JG     1400+00000+JG0000004732+0000004732+000000000+000000663+0000005390+0000000005+I20000000000+0000005390+Z
216787001216787903-004950     216787006002580020304SWT APRICOT SURPRISE   0000001000+00001314+00000+0001T   00001314+0000001635          1400 UK7150               2BZ
216787002216787903-004952     216787006002580020052SWT FREAKY FACES 100G  0000001000+00001314+00000+0001T   00001314+0000001635          1400 UK7150               2BZ
216787003216787903-000095     216787006001704011495SWT SPECKLED-EGGS 100G 0000001000+00002104+00000+0001T   00002104+0000001635          1400 UK7150               2BZ
216788000216788               216788               170213JG     1400+00000+JG0000014995+0000014995+000000000+000002103+0000017098+0000000000+I40000017098+0000000000+Z
216788001216788019-000285     216788006001023889829VASE CERAMIC 25CM ASSTD0000001000+00005262+00000+0001T   00005262+0000001637          1400 UK7510               2BZ
216788002216788006-000788     216788006001023990228CROWN HAPPY BIRTHDAY   0000001000+00001490+00000+0001T   00001490+0000001637          1400 UK7131               2BZ
216788003216788903-000095     216788006001704011495SWT SPECKLED-EGGS 100G 0000001000+00002104+00000+0001T   00002104+0000001637          1400 UK7150               2BZ
216788004216788080-000100     216788006003000236114CARD & ENVELOPE BDAY   0000001000+00001753+00000+0001T   00001753+0000001637          1400 UK7112               2BZ
216788005216788039-000318     216788006003000406159B/DAY CANDLES SMALL NO 0000001000+00001753+00000+0001T   00001753+0000001637          1400 UK7510               2BZ
216788006216788006-000090     216788006001023538505BANNER HAPPY-BIRTHDAY  0000001000+00002192+00000+0001T   00002192+0000001637          1400 UK7131               2BZ
216788007216788903-000183     216788006003000451043SWT LB HEART LOLLY     0000001000+00000393+00000+0001T   00000393+0000001637          1400 UK7150               2BZ
216788008216788112-116069     216788006009681820277TCS CARRIER BAG JUMBO  0000001000+00000048+00000+0001T   00000048+0000001637          1400 UK7090               2BZ
216789000216789               216789               170213JG     1400+00000+JG0000009382+0000009382+000000000+000001315+0000010690+0000000007+I20000000000+0000010690+Z
216789001216789301-085007     216789006003000673698ORN OCC. LOVE S/PLAQUE 0000001000+00007893+00000+0001T   00007893+0000001638          1400 UK7505               2BZ
216789002216789077-000011-C   216789006001023808523TISSUE 10xSHTS RED     0000001000+00000876+00000+0001T   00000876+0000001638          1400 UK7112               2BZ
216789003216789304-001011     216789006001023806727FLWR ROSE RED W/BEAR   0000001000+00000613+00000+0001T   00000788+0006471638          1400 UK7510               2BZ
216790000216790               216790               170213JG     1400+00000+JG0000001490+0000001490+000000000+000000209+0000001690+0000000009+I20000000000+0000001690+Z
216790001216790006-000102     216790006001023806819BALLOONS W/BOMBS 50PCE 0000001000+00001490+00000+0001T   00001490+0000001638          1400 UK7131               2BZ
216791000216791               216791               170213JG     1400+00000+JG0000021049+0000021049+000000000+000002948+0000023997+0000000000+I40000023997+0000000000+Z
216791001216791085-007050     216791006001023870803P/KNIFE 9cm-BLD S/S-HND0000001000+00011402+00000+0001T   00011402+0000001640          1400 UK7305               2BZ
216791002216791565-004004     216791006001023744357NOVELTY INSCT COLLECTOR0000001000+00005262+00000+0001T   00005262+0000001640          1400 UK7745               2BZ
216791003216791079-001001     216791006003000448593CANVAS A3 WOOD MOUNTED 0000001000+00004385+00000+0001T   00004385+0000001640          1400 UK7130               2BZ
216792000216792               216792               170213JG     1400+00000+JG0000004330+0000004330+000000000+000000607+0000004930+0000000007+I20000000000+0000004930+Z
216792001216792903-000892     216792008693029700420SWT NOVELTY CHOCO CREAM0000001000+00000788+00000+0001T   00000788+0000001641          1400 UK7150               2BZ
216792002216792007-000324     21679200600968585864125 SHEETS BRIGHTS MARLI0000001000+00003507+00000+0001T   00003507+0000001641          1400 UK7130               2BZ
216792003216792112-116038     216792006009681820246TCS CARRIER BAG MIDI   0000001000+00000035+00000+0001T   00000035+0000001641          1400 UK7090               2BZ
216793000216793               216793               170213JG     1400+00000+JG0000020169+0000020169+000000000+000002826+0000022995+0000000000+I40000022995+0000000000+Z
216793001216793368-000113     216793006001023780874PLUSH BLINGED LOVE 30cm0000001000+00012279+00000+0001T   00012279+0000001647          1400 UK7745               2BZ
216793002216793077-000299-A   216793006003000670888GIFT-BAG PAPER JMB LOVE0000001000+00001753+00000+0001T   00001753+0000001647          1400 UK7112               2BZ
216793003216793018-000130     216793006001023867537MUG OCC LOVE MINI+HEART0000001000+00003507+00000+0001T   00003507+0000001647          1400 UK7515               2BZ
216793004216793206-000390     216793006003000631438STRAW PL BUILD A STRAW 0000001000+00002630+00000+0001T   00002630+0000001647          1400 UK7321               2BZ
216794000216794               216794               170213JG     1400+00000+JG0000001400+0000001400+000000000+000000196+0000001590+0000000006+I20000000000+0000001590+Z
216794001216794564-000012     216794006001023130075BUBBLE BOTTLE MAGIC    0000002000+00000700+00000+0001T   00000700+0000001647          1400 UK7131               2BZ
216795000216795               216795               170213JG     1400+00000+JG0000014077+0000014077+000000000+000001972+0000016049+0000000000+I40000016049+0000000000+Z
216795001216795112-116069     216795006009681820277TCS CARRIER BAG JUMBO  0000001000+00000048+00000+0001T   00000048+0000001650          1400 UK7090               2BZ
216795002216795077-000299-A   216795006003000670888GIFT-BAG PAPER JMB LOVE0000001000+00001753+00000+0001T   00001753+0000001650          1400 UK7112               2BZ
216795003216795018-005009     216795006001023725608MUG W/PLUSH-BEAR LOVE  0000002000+00003507+00000+0001T   00003507+0000001650          1400 UK7515               2BZ
216795004216795018-019000     216795006003000557288MUG OCC. LOVE JUMBO    0000001000+00005262+00000+0001T   00005262+0000001650          1400 UK7515               2BZ
216796000216796               216796               170213JG     1400+00000+JG0000014054+0000014054+000000000+000001974+0000016028+0000000000+I40000016028+0000000000+Z
216796001216796080-000133     216796006003000535613CARD&ENV MINI ASTD DSGN0000002000+00000437+00000+0001T   00000437+0000001651          1400 UK7112               2BZ
216796002216796080-000133-A   216796006003000647019MINI VALENTINES CARD   0000001000+00000437+00000+0001T   00000437+0000001651          1400 UK7112               2BZ
216796003216796080-000133     216796006003000535613CARD&ENV MINI ASTD DSGN0000001000+00000437+00000+0001T   00000437+0000001651          1400 UK7112               2BZ
216796004216796077-000310     216796006001023608635GIFT-BAG 18X23CM GLOSS 0000002000+00001314+00000+0001T   00001314+0000001651          1400 UK7112               2BZ
216796005216796077-000316     216796006001023609731GIFT-BAG 25X32CM MATT  0000001000+00001753+00000+0001T   00001753+0000001651          1400 UK7112               2BZ
216796006216796368-000040     216796006003000671786PLUSH ICONS 7.5cm      0000003000+00002630+00000+0001T   00002630+0000001651          1400 UK7745               2BZ
216796007216796112-116038     216796006009681820246TCS CARRIER BAG MIDI   0000001000+00000035+00000+0001T   00000035+0000001651          1400 UK7090               2BZ
216797000216797               216797               170213JG     1400+00000+JG0000003507+0000003507+000000000+000000491+0000003990+0000000008+I20000000000+0000003990+Z
216797001216797018-000136     216797006001023659026MUG OCC LOVE W/PLUSH   0000001000+00003507+00000+0001T   00003507+0000001652          1400 UK7515               2BZ
216798000216798               216798               170213JG     1400+00000+JG0000007717+0000007717+000000000+000001081+0000008790+0000000008+I20000000000+0000008790+Z
216798001216798077-000303     216798006001023593757GIFT-BAG PAPER MED     0000001000+00001578+00000+0001T   00001578+0000001652          1400 UK7112               2BZ
216798002216798039-080960     216798006003000333998CANDLE PILLAR BALL 10CM0000001000+00006139+00000+0001T   00006139+0000001652          1400 UK7510               2BZ
216799000216799               216799               170213JG     1400+00000+JG0000003554+0000003554+000000000+000000499+0000004050+0000000003+I20000000000+0000004050+Z
216799001216799077-000299-A   216799006003000670888GIFT-BAG PAPER JMB LOVE0000002000+00001753+00000+0001T   00001753+0000001653          1400 UK7112               2BZ
216799002216799112-116069     216799006009681820277TCS CARRIER BAG JUMBO  0000001000+00000048+00000+0001T   00000048+0000001653          1400 UK7090               2BZ
216800000216800               216800               170213JG     1400+00000+JG0000002804+0000002804+000000000+000000394+0000003198+0000000000+I40000003198+0000000000+Z
216800001216800304-001204     216800006001023737984FLOWER OCC. TEDDY/ROSES0000002000+00001402+00000+0001T   00001490+0006471657          1400 UK7510               2BZ
216801000216801               216801               170213JG     1400+00000+JG0000014105+0000014105+000000000+000001976+0000016081+0000000000+I40000016081+0000000000+Z
216801001216801079-009702-G   216801008427973060787PAPER SIRIO A2 FUSHIA  0000001000+00001051+00000+0001T   00001051+0000001701          1400 UK7130               2BZ
216801002216801566-000064     216801006001023689702STICKERS GLITTER BORDER0000001000+00003507+00000+0001T   00003507+0000001701          1400 UK7130               2BZ
216801003216801112-116038     216801006009681820246TCS CARRIER BAG MIDI   0000001000+00000035+00000+0001T   00000035+0000001701          1400 UK7090               2BZ
216801004216801079-000801     216801006003000539642ART+CRAFT COLOUR       0000001000+00003507+00000+0001T   00003507+0000001701          1400 UK7130               2BZ
216801005216801566-000068     216801006003000418046POP UP LOVE 2 ASSTD    0000001000+00002192+00000+0001T   00002192+0000001701          1400 UK7130               2BZ
216801006216801079-006498     216801006001023836151GLITTER SET 10PCE      0000001000+00003507+00000+0001T   00003507+0000001701          1400 UK7130               2BZ
216801007216801079-009700-A   216801006003000547746PAPER SIRIO A4 BLACK   0000001000+00000306+00000+0001T   00000306+0000001701          1400 UK7130               2BZ
216802000216802               216802               170213JG     1400+00000+JG0000006169+0000006169+000000000+000000866+0000007035+0000000000+I40000007035+0000000000+Z
216802001216802036-000606     216802006003000322213WASHING PEGS PACK 20   0000002000+00000876+00000+0001T   00001314+0008191703          1400 UK7212               2BZ
216802002216802142-000815     216802006001023183903GLOVES RUBBER LARGE    0000001000+00001753+00000+0001T   00001753+0000001703          1400 UK7810               2BZ
216802003216802306-000021-D   216802006003000622108COTTON EARBUDS COSMETIC0000001000+00000876+00000+0001T   00001139+0008171703          1400 UK7200               2BZ
216802004216802077-000457     216802006003000285662G/BAG METALLIC JMB SOL 0000001000+00001753+00000+0001T   00001753+0000001703          1400 UK7112               2BZ
216802005216802112-116038     216802006003000534906TCS CARRIER BAG MIDI   0000001000+00000035+00000+0001T   00000035+0000001703          1400 UK7090               2BZ
216803000216803               216803               170213JG     1400+00000+JG0000001753+0000001753+000000000+000000246+0000001999+0000000000+I40000001999+0000000000+Z
216803001216803046-002013-PK6 216803004897006174851BATTERY BUTTON AG13 6PC0000001000+00001753+00000+0001T   00001753+0000001705          1400 UK7312               2BZ
216804000216804               216804               170213JG     1400+00000+JG0000013415+0000013415+000000000+000001880+0000015295+0000000000+I40000015295+0000000000+Z
216804001216804304-001204     216804006001023737984FLOWER OCC. TEDDY/ROSES0000001000+00001402+00000+0001T   00001490+0006471708          1400 UK7510               2BZ
216804002216804466-000620     216804006003000537617BALL SPORT SET 5.5CM   0000001000+00003946+00000+0001T   00003946+0000001708          1400 UK7785               2BZ
216804003216804200-000002     216804006925406821049BAG FLIP TOP 80PCE     0000001000+00002192+00000+0001T   00002192+0000001708          1400 UK7214               2BZ
216804004216804304-001204     216804006001023737984FLOWER OCC. TEDDY/ROSES0000001000+00001402+00000+0001T   00001490+0006471708          1400 UK7510               2BZ
216804005216804466-000615     216804006003000535828BALL SOC MINI HOLOGRAM 0000001000+00005262+00000+0001T   00005262+0000001708          1400 UK7785               2BZ
216804006216804304-001011     216804006001023806727FLWR ROSE RED W/BEAR   0000001000+00000613+00000+0001T   00000788+0006471708          1400 UK7510               2BZ
216804007216804304-001204     216804006001023737984FLOWER OCC. TEDDY/ROSES0000001000-00001402+00000+0001T   00001490+0006471708          1400 UK75102IC            2 Z
216805000216805               216805               170213JG     1400+00000+JG0000054421+0000054421+000000000+000007622+0000062043+0000000000+I40000062043+0000000000+Z
216805001216805112-116069     216805006009681820277TCS CARRIER BAG JUMBO  0000001000+00000048+00000+0001T   00000048+0000001712          1400 UK7090               2BZ
216805002216805077-000465     216805006003000681570GIFT-BAG MTLC GLIT LRG 0000001000+00003507+00000+0001T   00003507+0000001712          1400 UK7112               2BZ
216805003216805024-000170     216805006003000120642SILICONE CAKE-PAN RND  0000002000+00007455+00000+0001T   00007455+0000001712          1400 UK7300               2BZ
216805004216805048-000830     216805006001023821010TORCH PENLIGHT+2AA  BOX0000001000+00003507+00000+0001T   00004385+0008191712          1400 UK7305               2BZ
216805005216805077-000906     216805006003000410804G/WRAP 700mmx1m BIRTHDA0000001000+00001753+00000+0001T   00001753+0000001712          1400 UK7112               2BZ
216805006216805077-000011-F   216805006001023808431TISSUE-WRAP BLUE/LILAC 0000001000+00000876+00000+0001T   00000876+0000001712          1400 UK7112               2BZ
216805007216805077-000354     216805006003000139224GIFT-BAG 25X32CM H/MADE0000001000+00001753+00000+0001T   00001753+0000001712          1400 UK7112               2BZ
216805008216805263-001681     216805006001023658609FARM-SET F/WHEEL TRACT 0000001000+00008771+00000+0001T   00008771+0000001712          1400 UK7710               2BZ
216805009216805264-000927     216805000090159393009MAISTO MOTORBIKE 1:18  0000001000+00008771+00000+0001T   00008771+0000001712          1400 UK7710               2BZ
216805010216805466-001021     216805005014294062007CRICKET-SET SIZE 1     0000001000+00010525+00000+0001T   00010525+0000001712          1400 UK7785               2BZ
216806000216806               216806               170213JG     1400+00000+JG0000004382+0000004382+000000000+000000615+0000004990+0000000007+I20000000000+0000004990+Z
216806001216806566-002004     216806006001023672421STICKERS CRYSTAL SHAPES0000002000+00001753+00000+0001T   00001753+0000001712          1400 UK7130               2BZ
216806002216806031-000878-A   216806006001023798985P/FRAME 10x15cm PL-SLID0000001000+00000876+00000+0001T   00000876+0000001712          1400 UK7510               2BZ
216807000216807               216807               170213JG     1400+00000+JG0000012326+0000012326+000000000+000001726+0000014052+0000000000+I40000014052+0000000000+Z
216807001216807018-000136     216807006001023659026MUG OCC LOVE W/PLUSH   0000001000+00003507+00000+0001T   00003507+0000001713          1400 UK7515               2BZ
216807002216807031-086302-C   216807006001023910332P/FRAME COLL. PL 3-HOLE0000001000+00008771+00000+0001T   00008771+0000001713          1400 UK7510               2BZ
216807003216807112-116069     216807006009681820277TCS CARRIER BAG JUMBO  0000001000+00000048+00000+0001T   00000048+0000001713          1400 UK7090               2BZ
216808000216808               216808               170213JG     1400+00000+JG0000007489+0000007489+000000000+000001049+0000008538+0000000000+I40000008538+0000000000+Z
216808001216808566-000068     216808006003000418046POP UP LOVE 2 ASSTD    0000001000+00002192+00000+0001T   00002192+0000001714          1400 UK7130               2BZ
216808002216808361-003015     216808006003000543168DOLLS 14CM MERMAIDS 4PC0000001000+00005262+00000+0001T   00005262+0000001714          1400 UK7725               2BZ
216808003216808112-116038     216808006003000534906TCS CARRIER BAG MIDI   0000001000+00000035+00000+0001T   00000035+0000001714          1400 UK7090               2BZ
216809000216809               216809               170213JG     1400+00000+JG0000004385+0000004385+000000000+000000614+0000004990+0000000009+I20000000000+0000004990+Z
216809001216809004-071270     216809006001023802156CD-DISCS WRITABLE 10PCE0000001000+00004385+00000+0001T   00004385+0000001715          1400 UK7310               2BZ
216810000216810               216810               170213JG     1400+00000+JG0000008328+0000008328+000000000+000001166+0000009494+0000000000+I40000009494+0000000000+Z
216810001216810046-002023-C   216810006001023698254BATTERIES ALKALN CARD-50000001000+00005700+00000+0001T   00005700+0000001716          1400 UK7312               2BZ
216810002216810077-000407     216810006003000145096G/BAG PP 19X26X8CM     0000002000+00001314+00000+0001T   00001314+0000001716          1400 UK7112               2BZ
216811000216811               216811               170213JG     1400+00000+JG0000004385+0000004385+000000000+000000614+0000004990+0000000009+I20000000000+0000004990+Z
216811001216811031-086301-A   216811006001023910189P/FRAME PL BRONZE 10X150000001000+00004385+00000+0001T   00004385+0000001717          1400 UK7510               2BZ
216812000216812               216812               170213JG     1400+00000+JG0000005872+0000005872+000000000+000000824+0000006690+0000000006+I20000000000+0000006690+Z
216812001216812304-001011     216812006001023806727FLWR ROSE RED W/BEAR   0000001000+00000613+00000+0001T   00000788+0006471718          1400 UK7510               2BZ
216812002216812903-000912     216812006009802868461SWT GUM TAPE HOT WHEELS0000001000+00001753+00000+0001T   00001753+0000001718          1400 UK7150               2BZ
216812003216812361-000114     216812006001023744074DOLL SML 15cm BENDABLE 0000001000+00001753+00000+0001T   00001753+0000001718          1400 UK7725               2BZ
216812004216812903-000911     216812006009802868454SWT ST GUM TAPE BARBIE 0000001000+00001753+00000+0001T   00001753+0000001718          1400 UK7150               2BZ
216813000216813               216813               170213JG     1400+00000+JG0000001137+0000001137+000000000+000000160+0000001290+0000000007+I20000000000+0000001290+Z
216813001216813018-000177     216813006001023797513MUG MINI LOVE ASSTD    0000001000+00000700+00000+0001T   00000700+0000001720          1400 UK7515               2BZ
216813002216813080-000133-A   216813006003000647019MINI VALENTINES CARD   0000001000+00000437+00000+0001T   00000437+0000001720          1400 UK7112               2BZ
216814000216814               216814               170213JG     1400+00000+JG0000002227+0000002227+000000000+000000312+0000002530+0000000009+I20000000000+0000002530+Z
216814001216814306-001621     216814006001023554475INNER SOLES 1 PAIR     0000001000+00002192+00000+0001T   00002192+0000001720          1400 UK7200               2BZ
216814002216814112-116038     216814006003000534906TCS CARRIER BAG MIDI   0000001000+00000035+00000+0001T   00000035+0000001720          1400 UK7090               2BZ
216815000216815               216815               170213JG     1400+00000+JG0000008806+0000008806+000000000+000001233+0000010030+0000000009+I20000000000+0000010030+Z
216815001216815031-000902-D   216815006003000462957P/FRAME PL INNER-RIDGES0000001000+00008771+00000+0001T   00008771+0000001721          1400 UK7510               2BZ
216815002216815112-116038     216815006009681820246TCS CARRIER BAG MIDI   0000001000+00000035+00000+0001T   00000035+0000001721          1400 UK7090               2BZ
216816000216816               216816               170213JG     1400+00000+JG0000009681+0000009681+000000000+000001356+0000011030+0000000007+I20000000000+0000011030+Z
216816001216816018-050000     216816006003000412679MUG OCC LOVE TWIN BEAR 0000001000+00006139+00000+0001T   00006139+0000001723          1400 UK7515               2BZ
216816002216816018-000136     216816006001023659026MUG OCC LOVE W/PLUSH   0000001000+00003507+00000+0001T   00003507+0000001723          1400 UK7515               2BZ
216816003216816112-116038     216816006009681820246TCS CARRIER BAG MIDI   0000001000+00000035+00000+0001T   00000035+0000001723          1400 UK7090               2BZ
216817000216817               216817               170213JG     1400+00000+JG0000001607+0000001607+000000000+000000229+0000001830+0000000006+I20000000000+0000001830+Z
216817001216817903-000183     216817006003000451043SWT LB HEART LOLLY     0000004000+00000393+00000+0001T   00000393+0000001724          1400 UK7150               2BZ
216817002216817112-116038     216817006009681820246TCS CARRIER BAG MIDI   0000001000+00000035+00000+0001T   00000035+0000001724          1400 UK7090               2BZ
216818000216818               216818               170213JG     1400+00000+JG0000002804+0000002804+000000000+000000394+0000003198+0000000000+I40000003198+0000000000+Z
216818001216818304-001204     216818006001023737984FLOWER OCC. TEDDY/ROSES0000002000+00001402+00000+0001T   00001490+0006471727          1400 UK7510               2BZ
216819000216819               216819               170213JG     1400+00000+JG0000003013+0000003013+000000000+000000424+0000003430+0000000007+I20000000000+0000003430+Z
216819001216819304-001204     216819006001023737984FLOWER OCC. TEDDY/ROSES0000001000+00001402+00000+0001T   00001490+0006471728          1400 UK7510               2BZ
216819002216819080-000133-A   216819006003000647019MINI VALENTINES CARD   0000001000+00000437+00000+0001T   00000437+0000001728          1400 UK7112               2BZ
216819003216819112-116038     216819006003000534906TCS CARRIER BAG MIDI   0000001000+00000035+00000+0001T   00000035+0000001728          1400 UK7090               2BZ
216819004216819903-000087     216819006001704000161SWT SPECKLED-EGGS 50G  0000001000+00001139+00000+0001T   00001139+0000001728          1400 UK7150               2BZ
216820000216820               216820               170213JG     1400+00000+JG0000015788+0000015788+000000000+000002211+0000017999+0000000000+I40000017999+0000000000+Z
216820001216820028-000025     216820006003000422395COOLER BAG 39x20x27cm  0000001000+00015788+00000+0001T   00015788+0000001730          1400 UK7305               2CZ
216821000216821               216821               170213JG     1400+00000+JG0000005635+0000005635+000000000+000000789+0000006424+0000000000+I40000006424+0000000000+Z
216821001216821018-000177     216821006001023797513MUG MINI LOVE ASSTD    0000008000+00000700+00000+0001T   00000700+0000001732          1400 UK7515               2BZ
216821002216821112-116038     216821006009681820246TCS CARRIER BAG MIDI   0000001000+00000035+00000+0001T   00000035+0000001732          1400 UK7090               2BZ
216822000216822               216822               170213JG     1400+00000+JG0000005522+0000005522+000000000+000000775+0000006297+0000000000+I40000006297+0000000000+Z
216822001216822007-000602     216822006003000541270BOOK COVER 2M SOLID COL0000001000+00002630+00000+0001T   00002630+0000001733          1400 UK7130               2BZ
216822002216822903-000709     216822006002099007070SWT QUENCHERS FRUIT    0000001000+00001139+00000+0001T   00001139+0000001733          1400 UK7150               2BZ
216822003216822036-000063     216822006009654960436COATHANGERS VIRGIN 5PCE0000001000+00001753+00000+0001T   00001753+0000001733          1400 UK7212               2BZ
216823000216823               216823               170213JG     1400+00000+JG0000006610+0000006610+000000000+000000927+0000007530+0000000007+I20000000000+0000007530+Z
216823001216823368-000001     216823006003000097982Plush Bear 25cm        0000001000+00004385+00000+0001T   00004385+0000001734          1400 UK7745               2BZ
216823002216823080-000133-A   216823006003000647019MINI VALENTINES CARD   0000001000+00000437+00000+0001T   00000437+0000001734          1400 UK7112               2BZ
216823003216823903-000610     216823006003000610518SWEET JUMBO BUBBLE GUM 0000001000+00001753+00000+0001T   00001753+0000001734          1400 UK7150               2BZ
216823004216823112-116038     216823006003000534906TCS CARRIER BAG MIDI   0000001000+00000035+00000+0001T   00000035+0000001734          1400 UK7090               2BZ
216824000216824               216824               170213JG     1400+00000+JG0000008771+0000008771+000000000+000001228+0000009990+0000000009+I20000000000+0000009990+Z
216824001216824001-091415     216824006003000329113W/GLS OCC. LOVE 2PC 2800000001000+00008771+00000+0001T   00009648+0006471735          1400 UK7515               2BZ
216825000216825               216825               170213JG     1400+00000+JG0000002192+0000002192+000000000+000000307+0000002490+0000000009+I20000000000+0000002490+Z
216825001216825018-000170     216825006001023775528MUG OCC. LOVE 2PC MINI 0000001000+00002192+00000+0001T   00002192+0000001735          1400 UK7515               2BZ
216826000216826               216826               170213JG     1400+00000+JG0000001753+0000001753+000000000+000000246+0000001999+0000000000+I40000001999+0000000000+Z
216826001216826077-000299-A   216826006003000670888GIFT-BAG PAPER JMB LOVE0000001000+00001753+00000+0001T   00001753+0000001737          1400 UK7112               2BZ
216827000216827               216827               170213JG     1400+00000+JG0000003942+0000003942+000000000+000000552+0000004490+0000000004+I20000000000+0000004490+Z
216827001216827046-000012     216827006904708013062BATTERIES AA  CARD-OF-40000001000+00001314+00000+0001T   00001314+0000001737          1400 UK7312               2BZ
216827002216827006-000166-H   216827006003000608096BALLOONS HELIUM 6PC WHT0000001000+00001314+00000+0001T   00001314+0000001737          1400 UK7131               2BZ
216827003216827006-000166-D   216827006003000516490BALLOONS LRG 6PC RED   0000001000+00001314+00000+0001T   00001314+0000001737          1400 UK7131               2BZ
216828000216828               216828               170213JG     1400+00000+JG0000006784+0000006784+000000000+000000951+0000007730+0000000005+I20000000000+0000007730+Z
216828001216828031-000847     216828006001023851871P/FRAME TWIN 10X15CM   0000001000+00003507+00000+0001T   00003507+0000001742          1400 UK7510               2BZ
216828002216828031-000878-B   216828006001023799012P/FRAME 13x18cm PL-SLID0000001000+00001490+00000+0001T   00001490+0000001742          1400 UK7510               2BZ
216828003216828077-000151     216828006008766114676GIFT-WRAP C/PHANE ASSTD0000001000+00000876+00000+0001T   00000876+0000001742          1400 UK7112               2BZ
216828004216828903-003050     216828008024431008239SWT CHOC CONE H/NUT 25G0000001000+00000876+00000+0001T   00000876+0000001742          1400 UK7150               2BZ
216828005216828112-116038     216828006003000534906TCS CARRIER BAG MIDI   0000001000+00000035+00000+0001T   00000035+0000001742          1400 UK7090               2BZ
216829000216829               216829               170213JG     1400+00000+JG0000001753+0000001753+000000000+000000246+0000001990+0000000009+I20000000000+0000001990+Z
216829001216829077-000290     216829006001023902023GIFT BOX 26x32x13cm    0000001000+00001753+00000+0001T   00001753+0000001742          1400 UK7112               2BZ
216830000216830               216830               170213JG     1400+00000+JG0000014374+0000014374+000000000+000002015+0000016389+0000000000+I40000016389+0000000000+Z
216830001216830089-000098     216830006003000677443KEY CHAIN OPENER ASSTD 0000002000+00001314+00000+0001T   00001314+0000001745          1400 UK7205               2BZ
216830002216830304-001204     216830006001023737984FLOWER OCC. TEDDY/ROSES0000002000+00001402+00000+0001T   00001490+0006471745          1400 UK7510               2BZ
216830003216830018-000127     216830006001023380289MUG OCC STRAIGHT LOVE  0000004000+00001578+00000+0001T   00001753+0006471745          1400 UK7515               2BZ
216830004216830030-000007     216830006001023527325PLAQUE WDN B/BOARD ASST0000001000+00002630+00000+0001T   00002630+0000001745          1400 UK7505               2BZ
216831000216831               216831               170213JG     1400+00000+JG0000000000+0000000000+000000000+000000000+0000000000+0000000000+I20000000000+0000000000+Z
216831001216831001-999814     216831000000000999814STAFF OVERTIME         0000001000-00000000+00000+0001T  8402130106081 08001ICS  0000000000 UK79131IC            2 Z
216832000216832               216832               170213JG     1400+00000+JG0000014909+0000014909+000000000+000002088+0000016997+0000000000+I40000016997+0000000000+Z
216832001216832264-000927     216832000090159393009MAISTO MOTORBIKE 1:18  0000001000+00008771+00000+0001T   00008771+0000001747          1400 UK7710               2BZ
216832002216832031-086301-A   216832006001023910189P/FRAME PL BRONZE 10X150000001000+00004385+00000+0001T   00004385+0000001747          1400 UK7510               2BZ
216832003216832077-000316     216832006001023609731GIFT-BAG 25X32CM MATT  0000001000+00001753+00000+0001T   00001753+0000001747          1400 UK7112               2BZ
216833000216833               216833               170213JG     1400+00000+JG0000000000+0000000000+000000000+000000000+0000000000+0000000000+I20000000000+0000000000+Z
216833001216833001-999814     216833000000000999814STAFF OVERTIME         0000001000-00000000+00000+0001T  9305260314087 0800UK7S  0000000000 UK79131IC            2 Z
216834000216834               216834               170213JG     1400+00000+JG0000000000+0000000000+000000000+000000000+0000000000+0000000000+I20000000000+0000000000+Z
216834001216834001-999814     216834000000000999814STAFF OVERTIME         0000001000-00000000+00000+0001T  7310200605083 0800KS8S  0000000000 UK79131IC            2 Z
216835000216835               216835               170213JG     1400+00000+JG0000010989+0000010989+000000000+000001543+0000012532+0000000000+I40000012532+0000000000+Z
216835001216835080-000133-A   216835006003000647019MINI VALENTINES CARD   0000001000+00000437+00000+0001T   00000437+0000001751          1400 UK7112               2AZ
216835002216835080-000133     216835006003000535613CARD&ENV MINI ASTD DSGN0000002000+00000437+00000+0001T   00000437+0000001751          1400 UK7112               2AZ
216835003216835077-000011-C   216835006001023808523TISSUE 10xSHTS RED     0000001000+00000876+00000+0001T   00000876+0000001751          1400 UK7112               2AZ
216835004216835206-000610     216835006003000631674BOMB SHOTS PL 10PC     0000001000+00003507+00000+0001T   00003507+0000001751          1400 UK7321               2AZ
216835005216835108-003023     216835006003000665471TUMBLER W/STRAW 550ml  0000002000+00002630+00000+0001T   00002630+0000001751          1400 UK7210               2AZ
216835006216835112-116038     216835006009681820246TCS CARRIER BAG MIDI   0000001000+00000035+00000+0001T   00000035+0000001751          1400 UK7090               2AZ
216836000216836               216836               170213JG     1400+00000+JG0000004385+0000004385+000000000+000000614+0000004990+0000000009+I20000000000+0000004990+Z
216836001216836368-000001     216836006003000097982Plush Bear 25cm        0000001000+00004385+00000+0001T   00004385+0000001754          1400 UK7745               2BZ
216837000216837               216837               170213JG     1400+00000+JG0000008771+0000008771+000000000+000001228+0000009999+0000000000+I40000009999+0000000000+Z
216837001216837368-000665     216837006003000169016PLUSH BEAR 30cm        0000001000+00008771+00000+0001T   00008771+0000001759          1400 UK7745               2CZ
216838000216838               216838               170213JG     1400+00000+JG0000000000+0000000000+000000000+000000000+0000000000+0000000000+I20000000000+0000000000+Z
216838001216838001-999814     216838000000000999814STAFF OVERTIME         0000001000-00000000+00000+0001T  8110120330088 08002ICS  0000000000 UK79132IC            2 Z
216839000216839               216839               170213JG     1400+00000+JG0000007275+0000007275+000000000+000001021+0000008296+0000000000+I40000008296+0000000000+Z
216839001216839079-009702-D   216839008427973059354PAPER SIRIO A2 RED COL 0000002000+00001051+00000+0001T   00001051+0000001804          1400 UK7130               2CZ
216839002216839903-000095     216839006001704011495SWT SPECKLED-EGGS 100G 0000001000+00002104+00000+0001T   00002104+0000001804          1400 UK7150               2CZ
216839003216839366-000256     216839006001023918406DRESS UP TIARA&EARRINGS0000001000+00003069+00000+0001T   00003069+0000001804          1400 UK7131               2CZ
A17021300                                          14414711JGSLAVE 2                       UK72IC
A17021301                                          15130139JGSLAVE 2                       UK72IC
B21674100                                          170213JG077-000382     13390683SLAVE 2     UK71IC0000003000+0000002000+0000000000000+
M17021301                              IT          JGATT IT                                          LAST DOC FOR SLAVE 2 IS 216839                  THANK YOU                                       PARKRAND JG
M17021391                              CASH        JGSLAVE 2                       Z-REPORT No.   635TOTAL (Sales - Refunds)           8964.06       CASH TO BE BANKED                 3852.20       DEBIT CARDS                          0.00       CREDIT CARDS                      5111.86       Z-READING                         8964.06       AIRTIME DEBIT CARD SALES             0.00       AIRTIME CARD SALES                   0.00       OVERS/UNDERS                         0.00       AIRTIME CASH SALES                   0.00       GIFT CARDS                           0.00       GIFT CARD CASH SALES                 0.00       T O T A L  CASH PAYOUTS              0.00                                                                                                                                                                                                                                                                                                                                                      Z
M17021392                              CASH        JGABSENT                                                                                                                                                                                          ANNUAL LEAVE                                                                                                                                                                                    DAY OFF                                                                                                                                                                                         COMMENTS                                                                                                                                                                                                                                                                                                                                                                                       Z
Y17021300                                          JG00000000794157+000107
ZJG17021319543 SLAVE 2      SALES DATA                     NEXT INVOICE NO.  216840 0635
X JG Slave 2 First invoice 216728 170213 Last invoice 216839 170213 Next invoice 216840 Total number of records 000000432 clbackup completed 19:54:05
