171706000171706               171706               170213JH     1400+00000+JH0000013642+0000013642+000000000+000001911+0000015550+0000000003+I20000000000+0000015550+Z
171706001171706046-000012-VP  171706006003000537914BATTERIES H/P SIZE:AA  0000001000+00004823+00000+0001T   00004823+0000000922          1400 WS6312               1AZ
171706002171706267-000255     171706006001023892393PUZZLE 1000pc LANDSCAPE0000001000+00008771+00000+0001T   00008771+0000000922          1400 WS6755               1AZ
171706003171706112-116069     171706006009681820277TCS CARRIER BAG JUMBO  0000001000+00000048+00000+0001T   00000048+0000000922          1400 WS6090               1AZ
171707000171707               171707               170213JH     1400+00000+JH0000001314+0000001314+000000000+000000184+0000001490+0000000008+I20000000000+0000001490+Z
171707001171707046-000012     171707006904708013062BATTERIES AA  CARD-OF-40000001000+00001314+00000+0001T   00001314+0000001044          1400 WS6312               1AZ
171708000171708               171708               170213JH     1400+00000+JH0000005435+0000005435+000000000+000000762+0000006197+0000000000+I40000006197+0000000000+Z
171708001171708018-000170     171708006001023775528MUG OCC. LOVE 2PC MINI 0000001000+00002192+00000+0001T   00002192+0000001052          1400 WS6515               1AZ
171708002171708466-000514     171708006001023196620BALLS TENNIS COLR BAG-30000001000+00002630+00000+0001T   00002630+0000001052          1400 WS6785               1AZ
171708003171708304-001011     171708006001023806727FLWR ROSE RED W/BEAR   0000001000+00000613+00000+0001T   00000788+0006471052          1400 WS6510               1AZ
171709000171709               171709               170213JH     1400+00000+JH0000009117+0000009117+000000000+000001278+0000010395+0000000000+I40000010395+0000000000+Z
171709001171709903-000090     171709006009826020821SWT GS CHOCO COINS 60g 0000001000+00002104+00000+0001T   00002104+0000001106          1400 WS6150               1AZ
171709002171709262-000651     171709006001023754561DIE CAST SET 5PC RACER 0000001000+00002630+00000+0001T   00002630+0000001106          1400 WS6710               1AZ
171709003171709080-000124     171709006003000297733CARD & ENV VALENTINES  0000001000+00001578+00000+0001T   00001578+0000001106          1400 WS6112               1AZ
171709004171709566-001234     171709006003000217793STICKERS LASER ASSTD   0000001000+00001578+00000+0001T   00001578+0000001106          1400 WS6130               1AZ
171709005171709496-069632     171709000078257596324REPAIR-KIT (GLUE/PATCH)0000001000+00001227+00000+0001T   00001227+0000001106          1400 WS6787               1AZ
171710000171710               171710               170213JH     1400+00000+JH0000052310+0000052310+000000000+000007328+0000059630+0000000008+I20000000000+0000059630+Z
171710001171710112-116069     171710006009681820277TCS CARRIER BAG JUMBO  0000001000+00000048+00000+0001T   00000048+0000001114          1400 WS6090               1AZ
171710002171710564-000001     171710006003000140589BUBBLE B/O GUN PL      0000002000+00004385+00000+0001T   00004385+0000001114          1400 WS6131               1AZ
171710003171710565-000892-A   171710006003000690725NOVELTY FUN BALL       0000002000+00001314+00000+0001T   00001753+0008141114          1400 WS6745               1AZ
171710004171710560-000020     171710006003000653270ANIMALS ASSTD SET      0000001000+00006139+00000+0001T   00006139+0000001114          1400 WS6745               1AZ
171710005171710106-000890     171710000876416080628WATER BOTTLE PL 700ml  0000002000+00005262+00000+0001T   00005262+0000001114          1400 WS6210               1AZ
171710006171710027-056186     171710006003000638215DISH BRUSH DUCK DESIGN 0000001000+00002630+00000+0001T   00002630+0000001114          1400 WS6212               1AZ
171710007171710002-000117     171710006001023110879EGG POACHERS 2PC       0000002000+00003069+00000+0001T   00003069+0000001114          1400 WS6300               1AZ
171710008171710560-000020     171710006003000653270ANIMALS ASSTD SET      0000001000+00006139+00000+0001T   00006139+0000001114          1400 WS6745               1AZ
171710009171710267-006055     171710000047754288506PUZZLE LICENSED FROZEN 0000001000+00003507+00000+0001T   00003507+0000001114          1400 WS6755               1AZ
171710010171710267-006052     171710000047754164862PUZZLE LICENSED MINIONS0000001000+00004385+00000+0001T   00004385+0000001114          1400 WS6755               1AZ
171710011171710046-000011     171710004897006172994BATTERIES SIZE:AA  2PCE0000001000+00001402+00000+0001T   00001402+0000001114          1400 WS6312               1AZ
171711000171711               171711               170213JH     1400+00000+JH0000005262+0000005262+000000000+000000737+0000005999+0000000000+I40000005999+0000000000+Z
171711001171711301-085003     171711006003000420827ORN OCCASION LOVE KEY  0000001000+00005262+00000+0001T   00005262+0000001125          1400 WS6505               1AZ
171712000171712               171712               170213JH     1400+00000+JH0000005118+0000005118+000000000+000000718+0000005830+0000000006+I20000000000+0000005830+Z
171712001171712251-000030     171712006001023515803MASKING-TAPE 18mmx40m  0000001000+00001139+00000+0001T   00001139+0000001147          1400 WS6810               1AZ
171712002171712071-081104-A   171712006003000326662GLUE-STICK 8g CRD-OF-3 0000001000+00001227+00000+0001T   00001227+0000001147          1400 WS6130               1AZ
171712003171712079-006494     171712006003000159864GLITTER GLUE 5PCE 11cm 0000001000+00001490+00000+0001T   00001490+0000001147          1400 WS6130               1AZ
171712004171712251-000041     171712006001023515889SEAL-TAPE BUFF 48mmx50m0000001000+00001227+00000+0001T   00001227+0000001147          1400 WS6810               1AZ
171712005171712112-116038     171712006009681820246TCS CARRIER BAG MIDI   0000001000+00000035+00000+0001T   00000035+0000001147          1400 WS6090               1AZ
171713000171713               171713               170213JH     1400+00000+JH0000005262+0000005262+000000000+000000737+0000005990+0000000009+I20000000000+0000005990+Z
171713001171713368-000183     171713006003000668175PLUSH BEAR 15cm        0000001000+00005262+00000+0001T   00005262+0000001148          1400 WS6745               1AZ
171714000171714               171714               170213JH     1400+00000+JH0000001314+0000001314+000000000+000000184+0000001490+0000000008+I20000000000+0000001490+Z
171714001171714903-000194     171714006009826020616SWT CHOC RP LOLLY 25G  0000001000+00001314+00000+0001T   00001314+0000001214          1400 WS6150               1AZ
171715000171715               171715               170213JH     1400+00000+JH0000011137+0000011137+000000000+000001560+0000012690+0000000007+I20000000000+0000012690+Z
171715001171715077-000299     171715006003000395576G/BAG 32x25cm LRG LOVE 0000001000+00001490+00000+0001T   00001490+0000001215          1400 WS6112               1AZ
171715002171715031-000001-A   171715006003000246908P/FRAME GLS LOVE 9X13cm0000001000+00004385+00000+0001T   00004385+0000001215          1400 WS6510               1AZ
171715003171715301-085003     171715006003000420827ORN OCCASION LOVE KEY  0000001000+00005262+00000+0001T   00005262+0000001215          1400 WS6505               1AZ
171716000171716               171716               170213JH     1400+00000+JH0000015659+0000015659+000000000+000002193+0000017850+0000000002+I20000000000+0000017850+Z
171716001171716368-000001     171716006003000097982Plush Bear 25cm        0000001000+00004385+00000+0001T   00004385+0000001232          1400 WS6745               1AZ
171716002171716001-091415     171716006003000329113W/GLS OCC. LOVE 2PC 2800000001000+00008771+00000+0001T   00009648+0006471232          1400 WS6515               1AZ
171716003171716077-000380     171716006003000247585GIFT-BAG 33X45CM S/COL 0000001000+00002455+00000+0001T   00002455+0000001232          1400 WS6112               1AZ
171716004171716112-116069     171716006009681820277TCS CARRIER BAG JUMBO  0000001000+00000048+00000+0001T   00000048+0000001232          1400 WS6090               1AZ
171717000171717               171717               170213JH     1400+00000+JH0000010434+0000010434+000000000+000001462+0000011896+0000000000+I40000011896+0000000000+Z
171717001171717036-000500     171717006003000663903BASKET WIRE 39x27x13cm 0000001000+00005262+00000+0001T   00005262+0000001244          1400 WS6212               1AZ
171717002171717087-000107     171717006001023684202RAZOR LADIES/GENTS 3-BL0000001000+00001227+00000+0001T   00001227+0000001244          1400 WS6200               1AZ
171717003171717106-003130     171717006001023625755ICE CUBE TRAY 21-CUBE  0000001000+00002192+00000+0001T   00002192+0000001244          1400 WS6210               1AZ
171717004171717306-000006     171717006001023776440DENTAL FLOSS PICKS 50PC0000001000+00001753+00000+0001T   00001753+0000001244          1400 WS6200               1AZ
171718000171718               171718               170213JH     1400+00000+JH0000006489+0000006489+000000000+000000909+0000007398+0000000000+I40000007398+0000000000+Z
171718001171718006-000190     171718006003000685530BALLOONS LOVE 81x91cm  0000001000+00004385+00000+0001T   00004385+0000001247          1400 WS6131               1AZ
171718002171718903-000090     171718006009826020821SWT GS CHOCO COINS 60g 0000001000+00002104+00000+0001T   00002104+0000001247          1400 WS6150               1AZ
171719000171719               171719               170213JH     1400+00000+JH0000003156+0000003156+000000000+000000442+0000003590+0000000008+I20000000000+0000003590+Z
171719001171719077-000303     171719006001023593757GIFT-BAG PAPER MED     0000002000+00001578+00000+0001T   00001578+0000001249          1400 WS6112               1AZ
171720000171720               171720               170213JH     1400+00000+JH0000008625+0000008625+000000000+000001209+0000009834+0000000000+I40000009834+0000000000+Z
171720001171720903-000200     171720006009826020234SWT CHOC RP CHOCO 23G  0000002000+00000788+00000+0001T   00000788+0000001251          1400 WS6150               1AZ
171720002171720031-005853     171720006003000442416P/FRAME WDN TWIN HEARTS0000001000+00003507+00000+0001T   00003507+0000001251          1400 WS6510               1AZ
171720003171720031-000844     171720006001023851789P/FRAME WDN WORDS 2ASS 0000001000+00003507+00000+0001T   00003507+0000001251          1400 WS6510               1AZ
171720004171720112-116038     171720006009681820246TCS CARRIER BAG MIDI   0000001000+00000035+00000+0001T   00000035+0000001251          1400 WS6090               1AZ
171721000171721               171721               170213JH     1400+00000+JH0000003069+0000003069+000000000+000000430+0000003490+0000000009+I20000000000+0000003490+Z
171721001171721567-014135     171721006003000560264BOOK COLOURING 240P    0000001000+00003069+00000+0001T   00003507+0008191308          1400 WS6757               1AZ
171722000171722               171722               170213JH     1400+00000+JH0000003022+0000003022+000000000+000000425+0000003440+0000000007+I20000000000+0000003440+Z
171722001171722304-001204     171722006001023737984FLOWER OCC. TEDDY/ROSES0000001000+00001402+00000+0001T   00001490+0006471321          1400 WS6510               1AZ
171722002171722903-000111     171722006001704006378SWT LIQUORICE-TWISTS   0000001000+00001227+00000+0001T   00001227+0000001321          1400 WS6150               1AZ
171722003171722903-000183     171722006003000451043SWT LB HEART LOLLY     0000001000+00000393+00000+0001T   00000393+0000001321          1400 WS6150               1AZ
171723000171723               171723               170213JH     1400+00000+JH0000003364+0000003364+000000000+000000473+0000003837+0000000000+I40000003837+0000000000+Z
171723001171723077-000010-C   171723006001023123879CREPE-PAPER RED        0000001000+00000788+00000+0001T   00000788+0000001326          1400 WS6112               1AZ
171723002171723077-000377     171723006003000512904GIFT-BAG VALUE 2-PACK  0000001000+00001753+00000+0001T   00001753+0000001326          1400 WS6112               1AZ
171723003171723077-000010-C   171723006001023123879CREPE-PAPER RED        0000001000+00000788+00000+0001T   00000788+0000001326          1400 WS6112               1AZ
171723004171723112-116038     171723006009681820246TCS CARRIER BAG MIDI   0000001000+00000035+00000+0001T   00000035+0000001326          1400 WS6090               1AZ
171724000171724               171724               170213JH     1400+00000+JH0000013447+0000013447+000000000+000001884+0000015331+0000000000+I40000015331+0000000000+Z
171724001171724133-000010-B   171724006003000577422CLEANING CLOTH ROLL 25 0000002000+00003507+00000+0001T   00003507+0000001339          1400 WS6212               1AZ
171724002171724071-000873     171724006001023758743RUB-BANDS CLR BAG-100  0000001000+00001490+00000+0001T   00001490+0000001339          1400 WS6130               1AZ
171724003171724112-116038     171724006009681820246TCS CARRIER BAG MIDI   0000001000+00000035+00000+0001T   00000035+0000001339          1400 WS6090               1AZ
171724004171724251-000040     171724006001023515865SEALTAPE CLEAR 48mmx50m0000002000+00001227+00000+0001T   00001227+0000001339          1400 WS6810               1AZ
171724005171724251-000041     171724006001023515889SEAL-TAPE BUFF 48mmx50m0000001000+00001227+00000+0001T   00001227+0000001339          1400 WS6810               1AZ
171724006171724251-000040     171724006001023515865SEALTAPE CLEAR 48mmx50m0000001000+00001227+00000+0001T   00001227+0000001339          1400 WS6810               1AZ
171725000171725               171725               170213JH     1400+00000+JH0000002186+0000002186+000000000+000000308+0000002490+0000000004+I20000000000+0000002490+Z
171725001171725018-000177     171725006001023797513MUG MINI LOVE ASSTD    0000002000+00000700+00000+0001T   00000700+0000001341          1400 WS6515               1AZ
171725002171725903-000183     171725006003000451043SWT LB HEART LOLLY     0000002000+00000393+00000+0001T   00000393+0000001341          1400 WS6150               1AZ
171726000171726               171726               170213JH     1400+00000+JH0000010831+0000010831+000000000+000001519+0000012350+0000000000+I40000012350+0000000000+Z
171726001171726018-000127     171726006001023380289MUG OCC STRAIGHT LOVE  0000001000+00001578+00000+0001T   00001753+0006471344          1400 WS6515               1AZ
171726002171726027-009025     171726006003962000747DUSTPAN-SET PL         0000001000+00002630+00000+0001T   00002630+0000001344          1400 WS6212               1AZ
171726003171726027-009032     171726006001246775107DUSTPAN JUMBO          0000001000+00003069+00000+0001T   00003069+0000001344          1400 WS6212               1AZ
171726004171726159-000653     171726006001023688859BATH-SPONGE MESH W/ROPE0000002000+00001753+00000+0001T   00001753+0000001344          1400 WS6200               1AZ
171726005171726112-116069     171726006009681820277TCS CARRIER BAG JUMBO  0000001000+00000048+00000+0001T   00000048+0000001344          1400 WS6090               1AZ
171727000171727               171727               170213JH     1400+00000+JH0000001753+0000001753+000000000+000000246+0000001990+0000000009+I20000000000+0000001990+Z
171727001171727077-000299-A   171727006003000670888GIFT-BAG PAPER JMB LOVE0000001000+00001753+00000+0001T   00001753+0000001348          1400 WS6112               1AZ
171728000171728               171728               170213JH     1400+00000+JH0000000393+0000000393+000000000+000000056+0000000000+0000000000+ 00000000000+0000000000+Z
171728001171728001-000001     171728006001023507266SHOT-GLASS 25ml        0000001000+00000393+00000+0001T   00000393+000000              1400 WS65152IC            1 Z
171729000171729               171729               170213JH     1400+00000+JH0000003507+0000003507+000000000+000000491+0000003990+0000000008+I20000000000+0000003990+Z
171729001171729203-007000     171729006001023886040SHOT-GLASS DISPOSABLE  0000001000+00003507+00000+0001T   00003507+0000001511          1400 WS6300               1AZ
171730000171730               171730               170213JH     1400+00000+JH0000002630+0000002630+000000000+000000369+0000002990+0000000009+I20000000000+0000002990+Z
171730001171730077-000251     171730006003000639106GIFT-DECOR RIBBON      0000001000+00002630+00000+0001T   00002630+0000001512          1400 WS6112               1AZ
171731000171731               171731               170213JH     1400+00000+JH0000021096+0000021096+000000000+000002955+0000024050+0000000001+I20000000000+0000024050+Z
171731001171731301-085001     171731006003000297610ORN WATERBALL LOVE ASST0000001000+00004823+00000+0001T   00004823+0000001514          1400 WS6505               1AZ
171731002171731301-085003     171731006003000420827ORN OCCASION LOVE KEY  0000001000+00005262+00000+0001T   00005262+0000001514          1400 WS6505               1AZ
171731003171731080-000127     171731006003000424351VALENTINES DAY 36x24CM 0000001000+00002192+00000+0001T   00002192+0000001514          1400 WS6112               1AZ
171731004171731030-004090     171731006003000674503P/WALL MDF 30X40CM     0000001000+00008771+00000+0001T   00008771+0000001514          1400 WS6505               1AZ
171731005171731112-116069     171731006009681820277TCS CARRIER BAG JUMBO  0000001000+00000048+00000+0001T   00000048+0000001514          1400 WS6090               1AZ
171732000171732               171732               170213JH     1400+00000+JH0000027208+0000027208+000000000+000003812+0000031020+0000000000+I40000031020+0000000000+Z
171732001171732016-006518     171732006003000351749S/JAR GLS CHECK 350ML  0000002000+00001753+00000+0001T   00001753+0000001516          1400 WS6300               1AZ
171732002171732567-011422     171732006003000641222BK COLOURING THERAPY   0000002000+00003507+00000+0001T   00003507+0000001516          1400 WS6757               1AZ
171732003171732089-060027     171732006003000245871KEY-CHAIN HEART 6X6cm  0000002000+00003069+00000+0001T   00003069+0000001516          1400 WS6205               1AZ
171732004171732903-000503     171732006001704006118SWT VAMPIRE FANGS 60G  0000002000+00000876+00000+0001T   00000876+0000001516          1400 WS6150               1AZ
171732005171732903-000844     171732005010478432567SWT CANDY DL LUV HEARTS0000004000+00001314+00000+0001T   00001314+0000001516          1400 WS6150               1AZ
171732006171732567-075490     171732009780799377576BK NOVEL ROMANCE AFR   0000001000+00003507+00000+0001T   00003507+0000001516          1400 WS6757               1AZ
171732007171732112-116038     171732006009681820246TCS CARRIER BAG MIDI   0000001000+00000035+00000+0001T   00000035+0000001516          1400 WS6090               1AZ
171733000171733               171733               170213JH     1400+00000+JH0000004821+0000004821+000000000+000000675+0000005490+0000000006+I20000000000+0000005490+Z
171733001171733031-000844     171733006001023851789P/FRAME WDN WORDS 2ASS 0000001000+00003507+00000+0001T   00003507+0000001533          1400 WS6510               1AZ
171733002171733903-000194     171733006009826020616SWT CHOC RP LOLLY 25G  0000001000+00001314+00000+0001T   00001314+0000001533          1400 WS6150               1AZ
171734000171734               171734               170213JH     1400+00000+JH0000002628+0000002628+000000000+000000368+0000002990+0000000006+I20000000000+0000002990+Z
171734001171734006-000166-H   171734006003000608096BALLOONS HELIUM 6PC WHT0000002000+00001314+00000+0001T   00001314+0000001534          1400 WS6131               1AZ
171735000171735               171735               170213JH     1400+00000+JH0000002805+0000002805+000000000+000000393+0000003190+0000000008+I20000000000+0000003190+Z
171735001171735077-000463     171735006003000321698G/BAG GLITTER MED20x28 0000001000+00002192+00000+0001T   00002192+0000001603          1400 WS6112               1AZ
171735002171735304-001011     171735006001023806727FLWR ROSE RED W/BEAR   0000001000+00000613+00000+0001T   00000788+0006471603          1400 WS6510               1AZ
171736000171736               171736               170213JH     1400+00000+JH0000008452+0000008452+000000000+000001184+0000009636+0000000000+I40000009636+0000000000+Z
171736001171736301-000300     171736006003000456840ORN INSPIRATIONAL CROSS0000001000+00006139+00000+0001T   00006139+0000001703          1400 WS6505               1AZ
171736002171736018-000177     171736006001023797513MUG MINI LOVE ASSTD    0000001000+00000700+00000+0001T   00000700+0000001703          1400 WS6515               1AZ
171736003171736077-000303     171736006001023593757GIFT-BAG PAPER MED     0000001000+00001578+00000+0001T   00001578+0000001703          1400 WS6112               1AZ
171736004171736112-116038     171736006009681820246TCS CARRIER BAG MIDI   0000001000+00000035+00000+0001T   00000035+0000001703          1400 WS6090               1AZ
171737000171737               171737               170213JH     1400+00000+JH0000001314+0000001314+000000000+000000184+0000001490+0000000008+I20000000000+0000001490+Z
171737001171737077-000310     171737006001023608635GIFT-BAG 18X23CM GLOSS 0000001000+00001314+00000+0001T   00001314+0000001711          1400 WS6112               1AZ
171738000171738               171738               170213JH     1400+00000+JH0000000613+0000000613+000000000+000000086+0000000690+0000000009+I20000000000+0000000690+Z
171738001171738304-001011     171738006001023806727FLWR ROSE RED W/BEAR   0000001000+00000613+00000+0001T   00000788+0006471711          1400 WS6510               1AZ
171739000171739               171739               170213JH     1400+00000+JH0000007940+0000007940+000000000+000001113+0000009053+0000000000+I40000009053+0000000000+Z
171739001171739368-000175     171739006003000270316PLUSH BEAR 4 ASSTD 18CM0000001000+00006139+00000+0001T   00006139+0000001715          1400 WS6745               1AZ
171739002171739018-000108     171739006001023380265MUG NOVELTY ICON ASST  0000001000+00001753+00000+0001T   00001753+0000001715          1400 WS6515               1AZ
171739003171739112-116069     171739006009681820277TCS CARRIER BAG JUMBO  0000001000+00000048+00000+0001T   00000048+0000001715          1400 WS6090               1AZ
171740000171740               171740               170213JH     1400+00000+JH0000003067+0000003067+000000000+000000430+0000003490+0000000007+I20000000000+0000003490+Z
171740001171740077-000322     171740006001023677532GIFT-BAG 18X23CM E/D FL0000002000+00001227+00000+0001T   00001227+0000001717          1400 WS6112               1AZ
171740002171740077-000317     171740006001023609748GIFT-BAG 11X14CM E/D AN0000001000+00000613+00000+0001T   00000613+0000001717          1400 WS6112               1AZ
171741000171741               171741               170213JH     1400+00000+JH0000001753+0000001753+000000000+000000246+0000001990+0000000009+I20000000000+0000001990+Z
171741001171741077-000358     171741006003000329977GIFT-BAG KIDS 25X32CM  0000001000+00001753+00000+0001T   00001753+0000001720          1400 WS6112               1AZ
171742000171742               171742               170213JH     1400+00000+JH0000002630+0000002630+000000000+000000369+0000000000+0000000000+ 00000000000+0000000000+Z
171742001171742077-000270     171742006003000395453GIFT-BAG PPR JMB 33X45 0000001000+00002630+00000+0001T   00002630+000000              1400 WS61121IC            1 Z
171743000171743               171743               170213JH     1400+00000+JH0000000612+0000000612+000000000+000000086+0000000690+0000000008+I20000000000+0000000690+Z
171743001171743079-009700-B   171743006003000547661PAPER SIRIO A4 WHITE   0000001000+00000306+00000+0001T   00000306+0000001729          1400 WS6130               1AZ
171743002171743079-009700-D   171743006003000545711PAPER SIRIO A4 RED COL.0000001000+00000306+00000+0001T   00000306+0000001729          1400 WS6130               1AZ
171744000171744               171744               170213JH     1400+00000+JH0000002278+0000002278+000000000+000000320+0000002590+0000000008+I20000000000+0000002590+Z
171744001171744077-000305     171744006003000395422GIFT-BAG WINE 10X35CM  0000001000+00001490+00000+0001T   00001490+0000001734          1400 WS6112               1AZ
171744002171744077-000010-Z   171744006001023157874CREPE-PAPER BLK/ORG/PUR0000001000+00000788+00000+0001T   00000788+0000001734          1400 WS6112               1AZ
171745000171745               171745               170213JH     1400+00000+JH0000014728+0000014728+000000000+000002064+0000016790+0000000002+I20000000000+0000016790+Z
171745001171745077-000471     171745006003000330096G-BAG DESGN MED 18X23CM0000001000+00001753+00000+0001T   00001753+0000001740          1400 WS6112               1AZ
171745002171745077-000303     171745006001023593757GIFT-BAG PAPER MED     0000001000+00001578+00000+0001T   00001578+0000001740          1400 WS6112               1AZ
171745003171745306-001660     171745006003000620579NAIL DRYING MACHINE    0000001000+00007016+00000+0001T   00007016+0000001740          1400 WS6200               1AZ
171745004171745006-000166-C   171745006003000516377BALLOONS LRG 6PC PINK  0000001000+00001314+00000+0001T   00001314+0000001740          1400 WS6131               1AZ
171745005171745362-003002     171745006003000295494GIRL ORGANZA BAG ACC   0000001000+00001314+00000+0001T   00001753+0008181740          1400 WS6160               1AZ
171745006171745361-000114     171745006001023744074DOLL SML 15cm BENDABLE 0000001000+00001753+00000+0001T   00001753+0000001740          1400 WS6725               1AZ
171746000171746               171746               170213JH     1400+00000+JH0000001753+0000001753+000000000+000000246+0000001990+0000000009+I20000000000+0000001990+Z
171746001171746903-000918     171746006009802868522SWEET GUM TAPE H/KITTY 0000001000+00001753+00000+0001T   00001753+0000001742          1400 WS6150               1AZ
171747000171747               171747               170213JH     1400+00000+JH0000005262+0000005262+000000000+000000737+0000005999+0000000000+I40000005999+0000000000+Z
171747001171747266-001025     171747006003000108756BOYS TOYS SWORD 75cm   0000001000+00005262+00000+0001T   00005262+0000001743          1400 WS6710               1AZ
171748000171748               171748               170213JH     1400+00000+JH0000015428+0000015428+000000000+000002164+0000017592+0000000000+I40000017592+0000000000+Z
171748001171748903-000200     171748006009826020234SWT CHOC RP CHOCO 23G  0000003000+00000788+00000+0001T   00000788+0000001746          1400 WS6150               1AZ
171748002171748264-000922     171748000090159250012MAISTO CAR PULL-BACK   0000001000+00006139+00000+0001T   00007016+0008191746          1400 WS6710               1AZ
171748003171748903-000912     171748006009802868461SWT GUM TAPE HOT WHEELS0000001000+00001753+00000+0001T   00001753+0000001746          1400 WS6150               1AZ
171748004171748006-000327     171748006003000329687G/STICKS 3X20CM H/BANDS0000001000+00001578+00000+0001T   00001578+0000001746          1400 WS6131               1AZ
171748005171748903-000090     171748006009826020821SWT GS CHOCO COINS 60g 0000001000+00002104+00000+0001T   00002104+0000001746          1400 WS6150               1AZ
171748006171748002-000878     171748006001023770967STRAINER TEA WIRE 7cm  0000001000+00001490+00000+0001T   00001490+0000001746          1400 WS6300               1AZ
171749000171749               171749               170213JH     1400+00000+JH0000006048+0000006048+000000000+000000848+0000006896+0000000000+I40000006896+0000000000+Z
171749001171749018-005009     171749006001023725608MUG W/PLUSH-BEAR LOVE  0000001000+00003507+00000+0001T   00003507+0000001749          1400 WS6515               1AZ
171749002171749077-000010-C   171749006001023123879CREPE-PAPER RED        0000001000+00000788+00000+0001T   00000788+0000001749          1400 WS6112               1AZ
171749003171749006-000119     171749006001023730756BALLOONS 12PC MIX COLS 0000001000+00001753+00000+0001T   00001753+0000001749          1400 WS6131               1AZ
171750000171750               171750               170213JH     1400+00000+JH0000020334+0000020334+000000000+000002852+0000023186+0000000000+I40000023186+0000000000+Z
171750001171750018-005007     171750006003000515516MUG OCC. LOVE W/HEARTS 0000001000+00006139+00000+0001T   00006139+0000001751          1400 WS6515               1AZ
171750002171750903-000194     171750006009826020616SWT CHOC RP LOLLY 25G  0000003000+00001314+00000+0001T   00001314+0000001751          1400 WS6150               1AZ
171750003171750903-000200     171750006009826020234SWT CHOC RP CHOCO 23G  0000003000+00000788+00000+0001T   00000788+0000001751          1400 WS6150               1AZ
171750004171750077-000270     171750006003000395453GIFT-BAG PPR JMB 33X45 0000001000+00002630+00000+0001T   00002630+0000001751          1400 WS6112               1AZ
171750005171750077-000358     171750006003000329977GIFT-BAG KIDS 25X32CM  0000003000+00001753+00000+0001T   00001753+0000001751          1400 WS6112               1AZ
A17021300                                          16582032JHSLAVE 1                       WS61IC
M17021391                              CASH        JHSLAVE 1                       Z-REPORT No.   587TOTAL (Sales - Refunds)           3945.59       CASH TO BE BANKED                 2079.40       DEBIT CARDS                          0.00       CREDIT CARDS                      1866.19       Z-READING                         3945.59       AIRTIME DEBIT CARD SALES             0.00       AIRTIME CARD SALES                   0.00       OVERS/UNDERS                         0.00       AIRTIME CASH SALES                   0.00       GIFT CARDS                           0.00       GIFT CARD CASH SALES                 0.00       T O T A L  CASH PAYOUTS              0.00                                                                                                                                                                                                                                                                                                                                                      Z
M17021392                              CASH        JHABSENT                                                                                                                                                                                          ANNUAL LEAVE                                                                                                                                                                                    DAY OFF                                                                                                                                                                                         COMMENTS                                                                                                                                                                                                                                                                                                                                                                                       Z
Y17021300                                          JH00000000346223+000043
ZJH17021318173 SLAVE 1      SALES DATA                     NEXT INVOICE NO.  171751 0587
X JH Slave 1 First invoice 171706 170213 Last invoice 171750 170213 Next invoice 171751 Total number of records 000000180 clbackup completed 18:17:33
