187200000187200               187200               170213JH     1400+00000+JH0000007014+0000007014+000000000+000000982+0000007990+0000000006+I20000000000+0000007990+Z
187200001187200004-071204     187200006003000624904USB IN-CAR CHARGER 2.1A0000001000+00003507+00000+0001T   00003507+0000000855          1400 GH1310               2AZ
187200002187200263-000415     187200006003000600571V/TOOLS PLASTIC ASSEMBL0000001000+00003507+00000+0001T   00003507+0000000855          1400 GH1710               2AZ
187201000187201               187201               170213JH     1400+00000+JH0000015439+0000015439+000000000+000002179+0000017618+0000000000+I40000017618+0000000000+Z
187201001187201071-081091     187201006001151010287STAED/GENKEM ALL-STICK 0000001000+00001227+00000+0001T   00001227+0000000905          1400 GH1130               2AZ
187201002187201079-013032-H   187201006003000496501GLITTER PRINCESS ACC   0000001000+00002630+00000+0001T   00002630+0000000905          1400 GH1130               2AZ
187201003187201079-000351     187201006001023836090FELT-TIP PENS 8PCE     0000001000+00003244+00000+0001T   00003244+0000000905          1400 GH1130               2AZ
187201004187201903-000094     187201006923431501622SWT GS CANDY NECKLACE  0000019000+00000437+00000+0001T   00000437+0000000905          1400 GH1150               2AZ
187201005187201112-116038     187201006009681820246TCS CARRIER BAG MIDI   0000001000+00000035+00000+0001T   00000035+0000000905          1400 GH1090               2AZ
187202000187202               187202               170213JH     1400+00000+JH0000004385+0000004385+000000000+000000614+0000004990+0000000009+I20000000000+0000004990+Z
187202001187202469-000801     187202006003000652402BUILDING BLOCKS AGE BAG0000001000+00004385+00000+0001T   00004385+0000000906          1400 GH1755               2AZ
187203000187203               187203               170213JH     1400+00000+JH0000035961+0000035961+000000000+000005036+0000040990+0000000007+I20000000000+0000040990+Z
187203001187203075-000417     187203006003000622849BAG LADIES DENIM ASSTD 0000002000+00011402+00000+0001T   00011402+0000000936          1400 GH1160               2AZ
187203002187203464-000123     187203006003000646081GAME POKER PLAY SET    0000001000+00013157+00000+0001T   00013157+0000000936          1400 GH1785               2AZ
187204000187204               187204               170213JH     1400+00000+JH0000002630+0000002630+000000000+000000369+0000002990+0000000009+I20000000000+0000002990+Z
187204001187204200-000035     187204006001023768810FOOD-BOWL-COVERS 5PCE  0000001000+00002630+00000+0001T   00002630+0000000942          1400 GH1214               2AZ
187205000187205               187205               170213JH     1400+00000+JH0000003946+0000003946+000000000+000000553+0000004499+0000000000+I40000004499+0000000000+Z
187205001187205159-000103     187205006001023890214SHOWER CADDY PL-COATED 0000001000+00003946+00000+0001T   00003946+0000001000          1400 GH1200               2AZ
187206000187206               187206               170213JH     1400+00000+JH0000003330+0000003330+000000000+000000467+0000003790+0000000007+I20000000000+0000003790+Z
187206001187206251-000003     187206006003000266159TAPE D/S 18x300mm V/PCK0000001000+00002630+00000+0001T   00002630+0000001001          1400 GH1810               2AZ
187206002187206564-000012     187206006001023130075BUBBLE BOTTLE MAGIC    0000001000+00000700+00000+0001T   00000700+0000001001          1400 GH1131               2AZ
187207000187207               187207               170213JH     1400+00000+JH0000005260+0000005260+000000000+000000738+0000005990+0000000008+I20000000000+0000005990+Z
187207001187207105-001150     187207006003000666287CONTAINER SET LITE 3PC 0000002000+00002630+00000+0001T   00002630+0000001020          1400 GH1210               2AZ
187208000187208               187208               170213JH     1400+00000+JH0000042574+0000042574+000000000+000005962+0000048536+0000000000+I40000048536+0000000000+Z
187208001187208112-116069     187208006009681820277TCS CARRIER BAG JUMBO  0000001000+00000048+00000+0001T   00000048+0000001029          1400 GH1090               2AZ
187208002187208079-013102     187208006003000019601ART+CRAFT DIY PIPE-CLNR0000001000+00002192+00000+0001T   00002192+0000001029          1400 GH1130               2AZ
187208003187208567-075490     187208009780799376449BK NOVEL ROMANCE AFR   0000001000+00003507+00000+0001T   00003507+0000001029          1400 GH1757               2AZ
187208004187208567-075490     187208009780799376951BK NOVEL ROMANCE AFR   0000001000+00003507+00000+0001T   00003507+0000001029          1400 GH1757               2AZ
187208005187208567-075490     187208009780799376296BK NOVEL ROMANCE AFR   0000001000+00003507+00000+0001T   00003507+0000001029          1400 GH1757               2AZ
187208006187208567-075490     187208009780799377088BK NOVEL ROMANCE AFR   0000001000+00003507+00000+0001T   00003507+0000001029          1400 GH1757               2AZ
187208007187208567-075490     187208009780799377583BK NOVEL ROMANCE AFR   0000001000+00003507+00000+0001T   00003507+0000001029          1400 GH1757               2AZ
187208008187208567-075490     187208009780799377576BK NOVEL ROMANCE AFR   0000001000+00003507+00000+0001T   00003507+0000001029          1400 GH1757               2AZ
187208009187208567-075490     187208009780799376920BK NOVEL ROMANCE AFR   0000001000+00003507+00000+0001T   00003507+0000001029          1400 GH1757               2AZ
187208010187208567-075490     187208009780799377071BK NOVEL ROMANCE AFR   0000001000+00003507+00000+0001T   00003507+0000001029          1400 GH1757               2AZ
187208011187208567-075497     187208009780799381658BK NOVEL ROMANCE AFR   0000001000+00006139+00000+0001T   00006139+0000001029          1400 GH1757               2AZ
187208012187208567-075497     187208009780799381665BK NOVEL ROMANCE AFR   0000001000+00006139+00000+0001T   00006139+0000001029          1400 GH1757               2AZ
187209000187209               187209               170213JH     1400+00000+JH0000015429+0000015429+000000000+000002162+0000017591+0000000000+I40000017591+0000000000+Z
187209001187209077-000303     187209006001023593757GIFT-BAG PAPER MED     0000001000+00001578+00000+0001T   00001578+0000001419          1400 GH1112               2AZ
187209002187209018-000136     187209006001023659026MUG OCC LOVE W/PLUSH   0000001000+00003507+00000+0001T   00003507+0000001419          1400 GH1515               2AZ
187209003187209077-000303     187209006001023593757GIFT-BAG PAPER MED     0000001000+00001578+00000+0001T   00001578+0000001419          1400 GH1112               2AZ
187209004187209301-085006     187209006001023502940ORN LOVE MSG TUBE W/HRT0000003000+00001753+00000+0001T   00001753+0000001419          1400 GH1505               2AZ
187209005187209031-005853     187209006003000442416P/FRAME WDN TWIN HEARTS0000001000+00003507+00000+0001T   00003507+0000001419          1400 GH1510               2AZ
187210000187210               187210               170213JH     1400+00000+JH0000007277+0000007277+000000000+000001019+0000008290+0000000006+I20000000000+0000008290+Z
187210001187210018-030000     187210006003000421060MUG OCCASIONS LOVE 2PCE0000001000+00004385+00000+0001T   00004385+0000001419          1400 GH1515               2AZ
187210002187210903-000194     187210006009826020616SWT CHOC RP LOLLY 25G  0000001000+00001314+00000+0001T   00001314+0000001419          1400 GH1150               2AZ
187210003187210077-000303     187210006001023593757GIFT-BAG PAPER MED     0000001000+00001578+00000+0001T   00001578+0000001419          1400 GH1112               2AZ
187211000187211               187211               170213JH     1400+00000+JH0000002454+0000002454+000000000+000000344+0000002790+0000000008+I20000000000+0000002790+Z
187211001187211903-003080     187211005907029004673SWT SNACK STIX CHOC 50g0000001000+00000876+00000+0001T   00000876+0000001431          1400 GH1150               2AZ
187211002187211077-000303     187211006001023593757GIFT-BAG PAPER MED     0000001000+00001578+00000+0001T   00001578+0000001431          1400 GH1112               2AZ
187212000187212               187212               170213JH     1400+00000+JH0000008328+0000008328+000000000+000001166+0000009490+0000000004+I20000000000+0000009490+Z
187212001187212018-000136     187212006001023659026MUG OCC LOVE W/PLUSH   0000001000+00003507+00000+0001T   00003507+0000001433          1400 GH1515               2AZ
187212002187212077-000310     187212006001023608635GIFT-BAG 18X23CM GLOSS 0000001000+00001314+00000+0001T   00001314+0000001433          1400 GH1112               2AZ
187212003187212031-000002-A   187212006003000247103P/FRAME LOVE 7.5X7.5CM 0000001000+00003507+00000+0001T   00003507+0000001433          1400 GH1510               2AZ
187213000187213               187213               170213JH     1400+00000+JH0000001753+0000001753+000000000+000000246+0000001999+0000000000+I40000001999+0000000000+Z
187213001187213027-783000     187213006001023874641SCOURERS RAINBOW 5PCE  0000001000+00001753+00000+0001T   00001753+0000001455          1400 GH1212               2AZ
187214000187214               187214               170213JH     1400+00000+JH0000016711+0000016711+000000000+000002340+0000019051+0000000000+I40000019051+0000000000+Z
187214001187214112-116069     187214006009681820277TCS CARRIER BAG JUMBO  0000001000+00000048+00000+0001T   00000048+0000001458          1400 GH1090               2AZ
187214002187214024-000118     187214006001023422316N/STICK C/PAN HEART    0000001000+00004385+00000+0001T   00004385+0000001458          1400 GH1300               2AZ
187214003187214001-091415     187214006003000329113W/GLS OCC. LOVE 2PC 2800000001000+00008771+00000+0001T   00009648+0006471458          1400 GH1515               2AZ
187214004187214031-000002-A   187214006003000247103P/FRAME LOVE 7.5X7.5CM 0000001000+00003507+00000+0001T   00003507+0000001458          1400 GH1510               2AZ
187215000187215               187215               170213JH     1400+00000+JH0000004385+0000004385+000000000+000000614+0000004990+0000000009+I20000000000+0000004990+Z
187215001187215024-000118     187215006001023422316N/STICK C/PAN HEART    0000001000+00004385+00000+0001T   00004385+0000001458          1400 GH1300               2AZ
187216000187216               187216               170213JH     1400+00000+JH0000006139+0000006139+000000000+000000860+0000006990+0000000009+I20000000000+0000006990+Z
187216001187216039-809558     187216006003000344376CANDLE PILLAR 12CM 4AST0000001000+00006139+00000+0001T   00006139+0000001549          1400 GH1510               2AZ
187217000187217               187217               170213JH     1400+00000+JH0000006863+0000006863+000000000+000000965+0000007820+0000000008+I20000000000+0000007820+Z
187217001187217077-000010-C   187217006001023123879CREPE-PAPER RED        0000001000+00000788+00000+0001T   00000788+0000001554          1400 GH1112               2AZ
187217002187217077-000948     187217006003000542154G/WARP SHRINK BAG      0000003000+00000700+00000+0001T   00000876+0008151554          1400 GH1112               2AZ
187217003187217903-000200     187217006009826020234SWT CHOC RP CHOCO 23G  0000005000+00000788+00000+0001T   00000788+0000001554          1400 GH1150               2AZ
187217004187217112-116038     187217006009681820246TCS CARRIER BAG MIDI   0000001000+00000035+00000+0001T   00000035+0000001554          1400 GH1090               2AZ
187218000187218               187218               170213JH     1400+00000+JH0000007062+0000007062+000000000+000000989+0000008051+0000000000+I40000008051+0000000000+Z
187218001187218018-000136     187218006001023659026MUG OCC LOVE W/PLUSH   0000002000+00003507+00000+0001T   00003507+0000001555          1400 GH1515               2AZ
187218002187218112-116069     187218006009681820277TCS CARRIER BAG JUMBO  0000001000+00000048+00000+0001T   00000048+0000001555          1400 GH1090               2AZ
187219000187219               187219               170213JH     1400+00000+JH0000004433+0000004433+000000000+000000621+0000005054+0000000000+I40000005054+0000000000+Z
187219001187219018-030000     187219006003000421060MUG OCCASIONS LOVE 2PCE0000001000+00004385+00000+0001T   00004385+0000001557          1400 GH1515               2AZ
187219002187219112-116069     187219006009681820277TCS CARRIER BAG JUMBO  0000001000+00000048+00000+0001T   00000048+0000001557          1400 GH1090               2AZ
187220000187220               187220               170213JH     1400+00000+JH0000008771+0000008771+000000000+000001228+0000009990+0000000009+I20000000000+0000009990+Z
187220001187220001-091415     187220006003000329113W/GLS OCC. LOVE 2PC 2800000001000+00008771+00000+0001T   00009648+0006471557          1400 GH1515               2AZ
187221000187221               187221               170213JH     1400+00000+JH0000005219+0000005219+000000000+000000732+0000005951+0000000000+I40000005951+0000000000+Z
187221001187221027-000082     187221006001023760258SCOURERS ROUND   PACK-60000001000+00001227+00000+0001T   00001227+0000001559          1400 GH1212               2AZ
187221002187221251-000041     187221006001023515889SEAL-TAPE BUFF 48mmx50m0000002000+00001227+00000+0001T   00001227+0000001559          1400 GH1810               2AZ
187221003187221027-783002     187221006001023874658SCOURERS FOAM PACK OF 30000001000+00001490+00000+0001T   00001490+0000001559          1400 GH1212               2AZ
187221004187221112-116069     187221006009681820277TCS CARRIER BAG JUMBO  0000001000+00000048+00000+0001T   00000048+0000001559          1400 GH1090               2AZ
187222000187222               187222               170213JH     1400+00000+JH0000004995+0000004995+000000000+000000701+0000005690+0000000006+I20000000000+0000005690+Z
187222001187222002-000037     187222006001023887467SANDWICH-CUTTER PL ASST0000001000+00001314+00000+0001T   00001314+0000001559          1400 GH1300               2AZ
187222002187222903-002891     187222008935001721376MENTOS GUM WINTERGREEN 0000001000+00001051+00000+0001T   00001051+0000001559          1400 GH1150               2AZ
187222003187222200-000307     187222006003000439041OVEN BASKET MESH TRAY  0000001000+00002630+00000+0001T   00003507+0008171559          1400 GH1214               2AZ
187223000187223               187223               170213JH     1400+00000+JH0000010732+0000010732+000000000+000001511+0000012240+0000000003+I20000000000+0000012240+Z
187223001187223903-000503     187223006001704006118SWT VAMPIRE FANGS 60G  0000001000+00000876+00000+0001T   00000876+0000001615          1400 GH1150               2AZ
187223002187223112-116069     187223006009681820277TCS CARRIER BAG JUMBO  0000001000+00000048+00000+0001T   00000048+0000001615          1400 GH1090               2AZ
187223003187223024-000212     187223006001023858030COOKIE-CUTTERS PL SMALL0000001000+00003069+00000+0001T   00003069+0000001615          1400 GH1300               2AZ
187223004187223024-091100     187223006001023914224BAKING-CUPS PAPER 100PC0000001000+00001753+00000+0001T   00001753+0000001615          1400 GH1300               2AZ
187223005187223903-000503     187223006001704006118SWT VAMPIRE FANGS 60G  0000001000+00000876+00000+0001T   00000876+0000001615          1400 GH1150               2AZ
187223006187223903-000519     187223006001704012805SWT MS LIQ-O-GHETTI    0000001000+00001227+00000+0001T   00001227+0000001615          1400 GH1150               2AZ
187223007187223903-000155     187223006009803374435SWT LOLLY I LUV U HEART0000001000+00000525+00000+0001T   00000525+0000001615          1400 GH1150               2AZ
187223008187223903-000183     187223006003000451043SWT LB HEART LOLLY     0000006000+00000393+00000+0001T   00000393+0000001615          1400 GH1150               2AZ
187224000187224               187224               170213JH     1400+00000+JH0000016651+0000016651+000000000+000002336+0000018980+0000000007+I20000000000+0000018980+Z
187224001187224018-005009     187224006001023725608MUG W/PLUSH-BEAR LOVE  0000002000+00003507+00000+0001T   00003507+0000001624          1400 GH1515               2AZ
187224002187224018-000127     187224006001023380289MUG OCC STRAIGHT LOVE  0000001000+00001578+00000+0001T   00001753+0006471624          1400 GH1515               2AZ
187224003187224903-000183     187224006003000451043SWT LB HEART LOLLY     0000004000+00000393+00000+0001T   00000393+0000001624          1400 GH1150               2AZ
187224004187224077-000303     187224006001023593757GIFT-BAG PAPER MED     0000003000+00001578+00000+0001T   00001578+0000001624          1400 GH1112               2AZ
187224005187224089-000033     187224006003000621217KEY CHAIN MOM POLY ASST0000001000+00001753+00000+0001T   00002630+0008121624          1400 GH1205               2AZ
187225000187225               187225               170213JH     1400+00000+JH0000041500-0000000000+000000000+000000000+0000041500-0000000000+I20000000000+0000041500-Z
187225001187225001-999912     187225000000000999912STOCKTAKES             0000001000-00041500+00000+0001X   00000000+0000001625          0000 GH19121IC            2 Z
187226000187226               187226               170213JH     1400+00000+JH0000001578+0000001578+000000000+000000221+0000001790+0000000009+I20000000000+0000001790+Z
187226001187226077-000303     187226006001023593757GIFT-BAG PAPER MED     0000001000+00001578+00000+0001T   00001578+0000001625          1400 GH1112               2AZ
187227000187227               187227               170213JH     1400+00000+JH0000001753+0000001753+000000000+000000246+0000001990+0000000009+I20000000000+0000001990+Z
187227001187227264-000921     187227000090159150442MAISTO CAR 3" FRESH    0000001000+00001753+00000+0001T   00001753+0000001648          1400 GH1710               2AZ
187228000187228               187228               170213JH     1400+00000+JH0000000048+0000000048+000000000+000000007+0000000050+0000000005+I20000000000+0000000050+Z
187228001187228112-116069     187228006009681820277TCS CARRIER BAG JUMBO  0000001000+00000048+00000+0001T   00000048+0000001649          1400 GH1090               2AZ
187229000187229               187229               170213JH     1400+00000+JH0000002412+0000002412+000000000+000000340+0000002750+0000000002+I20000000000+0000002750+Z
187229001187229903-000200     187229006009826020234SWT CHOC RP CHOCO 23G  0000003000+00000788+00000+0001T   00000788+0000001658          1400 GH1150               2AZ
187229002187229112-116069     187229006009681820277TCS CARRIER BAG JUMBO  0000001000+00000048+00000+0001T   00000048+0000001658          1400 GH1090               2AZ
187230000187230               187230               170213JH     1400+00000+JH0000003416+0000003416+000000000+000000481+0000003890+0000000007+I20000000000+0000003890+Z
187230001187230203-000470     187230006003000329793BOTTLE-STOPPER/OPENER  0000001000+00002630+00000+0001T   00002630+0000001701          1400 GH1300               2AZ
187230002187230903-000183     187230006003000451043SWT LB HEART LOLLY     0000002000+00000393+00000+0001T   00000393+0000001701          1400 GH1150               2AZ
A17021300                                          16153333JHSLAVE 2                       GH12IC
A17021301                                          16260174JHSLAVE 2                       GH11IC
M17021391                              CASH        JHSLAVE 2                       Z-REPORT No.   585TOTAL (Sales - Refunds)           2928.30       CASH TO BE BANKED                 1229.80       DEBIT CARDS                          0.00       CREDIT CARDS                      1283.50       Z-READING                         2513.30       AIRTIME DEBIT CARD SALES             0.00       AIRTIME CARD SALES                   0.00       OVERS/UNDERS                         0.00       AIRTIME CASH SALES                   0.00       GIFT CARDS                           0.00       GIFT CARD CASH SALES                 0.00       STOCKTAKES                         415.00       T O T A L  CASH PAYOUTS            415.00                                                                                                                                                                                                                                                                                                      Z
M17021392                              CASH        JHABSENT                                                                                                                                                                                          ANNUAL LEAVE                                                                                                                                                                                    DAY OFF                                                                                                                                                                                         COMMENTS                                                                                                                                                                                                                                                                                                                                                                                       Z
Y17021300                                          JH00000000256948+000030
ZJH17021318173 SLAVE 2      SALES DATA                     NEXT INVOICE NO.  187231 0585
X JH Slave 2 First invoice 187200 170213 Last invoice 187230 170213 Next invoice 187231 Total number of records 000000121 clbackup completed 18:17:36
