199793000199793               199793               170213JK     1400+00000+JK0000007394+0000007394+000000000+000001037+0000008430+0000000001+I20000000000+0000008430+Z
199793001199793261-002267     199793006001023665126GUN 8-SHOT SUPER-CAP   0000003000+00001753+00000+0001T   00001753+0000001016          1400 DT5710               1AZ
199793002199793112-116038     199793006009681820246TCS CARRIER BAG MIDI   0000001000+00000035+00000+0001T   00000035+0000001016          1400 DT5090               1AZ
199793003199793261-000121     199793006001023341600GUN-CAPS 8-SHOT CARD-9 0000003000+00000700+00000+0001T   00000700+0000001016          1400 DT5710               1AZ
199794000199794               199794               170213JK     1400+00000+JK0000005291+0000005291+000000000+000000743+0000006034+0000000000+I40000006034+0000000000+Z
199794001199794112-116038     199794006009681820246TCS CARRIER BAG MIDI   0000001000+00000035+00000+0001T   00000035+0000001050          1400 DT5090               1AZ
199794002199794200-000125     199794006001023459749CUTLERY-SET 10PCE   H&L0000006000+00000876+00000+0001T   00000876+0000001050          1400 DT5214               1AZ
199795000199795               199795               170213JK     1400+00000+JK0000001753+0000001753+000000000+000000246+0000001990+0000000009+I20000000000+0000001990+Z
199795001199795566-002004     199795006001023672421STICKERS CRYSTAL SHAPES0000001000+00001753+00000+0001T   00001753+0000001050          1400 DT5130               1AZ
199796000199796               199796               170213JK     1400+00000+JK0000023196+0000023196+000000000+000003249+0000026445+0000000000+I40000026445+0000000000+Z
199796001199796112-116069     199796006009681820277TCS CARRIER BAG JUMBO  0000001000+00000048+00000+0001T   00000048+0000001101          1400 DT5090               1CZ
199796002199796018-019000     199796006003000557288MUG OCC. LOVE JUMBO    0000002000+00005262+00000+0001T   00005262+0000001101          1400 DT5515               1CZ
199796003199796018-000127     199796006001023380289MUG OCC STRAIGHT LOVE  0000008000+00001578+00000+0001T   00001753+0006471101          1400 DT5515               1CZ
199797000199797               199797               170213JK     1400+00000+JK0000006135+0000006135+000000000+000000859+0000006994+0000000000+I40000006994+0000000000+Z
199797001199797105-001037     199797006003000615438CONTAINER W/VENT 700ml 0000001000+00001314+00000+0001T   00001753+0008161132          1400 DT5210               1AZ
199797002199797028-000031     199797006003000270897COOLER-BAG THERMAL 6PK 0000001000+00003507+00000+0001T   00003507+0000001132          1400 DT5305               1AZ
199797003199797903-004952     199797006002580020052SWT FREAKY FACES 100G  0000001000+00001314+00000+0001T   00001314+0000001132          1400 DT5150               1AZ
199798000199798               199798               170213JK     1400+00000+JK0000003506+0000003506+000000000+000000492+0000003998+0000000000+I40000003998+0000000000+Z
199798001199798077-000150-D   199798006003000054343GIFT-WRAP CELLPHANE CLR0000001000+00000876+00000+0001T   00000876+0000001153          1400 DT5112               1AZ
199798002199798103-000060     199798006001023795489BAMBOO BASKET RECT     0000001000+00002630+00000+0001T   00002630+0000001153          1400 DT5300               1AZ
199799000199799               199799               170213JK     1400+00000+JK0000007016+0000007016+000000000+000000983+0000007999+0000000000+I40000007999+0000000000+Z
199799001199799496-057104     199799000078257571048INTEX POOL BABY RAINBOW0000001000+00007016+00000+0001T   00007016+0000001259          1400 DT5787               1AZ
199800000199800               199800               170213JK     1400+00000+JK0000004418+0000004418+000000000+000000620+0000005030+0000000008+I20000000000+0000005030+Z
199800001199800002-220002     199800006001023677877F/COVER SQ 31cm WHT    0000001000+00002630+00000+0001T   00002630+0000001307          1400 DT5300               1AZ
199800002199800174-000011     199800006001023523778W/MACHINE-BAG 50x40cm  0000001000+00001753+00000+0001T   00001753+0000001307          1400 DT5205               1AZ
199800003199800112-116038     199800006009681820246TCS CARRIER BAG MIDI   0000001000+00000035+00000+0001T   00000035+0000001307          1400 DT5090               1AZ
199801000199801               199801               170213JK     1400+00000+JK0000009690+0000009690+000000000+000001360+0000011050+0000000000+I40000011050+0000000000+Z
199801001199801112-116069     199801006009681820277TCS CARRIER BAG JUMBO  0000001000+00000048+00000+0001T   00000048+0000001309          1400 DT5090               1AZ
199801002199801009-001455     199801006001023696038MELAMINE PLATE 25cm    0000001000+00001753+00000+0001T   00001753+0000001309          1400 DT5210               1AZ
199801003199801009-001451     199801006001023695970MELAMINE S/BOWL 15cm   0000001000+00001753+00000+0001T   00001753+0000001309          1400 DT5210               1AZ
199801004199801133-000081     199801006003000277315DISH CLOTH 40x70cm     0000001000+00002630+00000+0001T   00002630+0000001309          1400 DT5212               1AZ
199801005199801071-001102     199801006003000274598MARKER PERM MED 2PCE   0000001000+00001753+00000+0001T   00001753+0000001309          1400 DT5130               1AZ
199801006199801903-000211     199801006002099001238SWT GS MALLOW ICE CREAM0000001000+00001753+00000+0001T   00001753+0000001309          1400 DT5150               1AZ
199802000199802               199802               170213JK     1400+00000+JK0000012145+0000012145+000000000+000001703+0000013848+0000000000+I40000013848+0000000000+Z
199802001199802112-116069     199802006009681820277TCS CARRIER BAG JUMBO  0000001000+00000048+00000+0001T   00000048+0000001342          1400 DT5090               1AZ
199802002199802080-000127     199802006003000424351VALENTINES DAY 36x24CM 0000001000+00002192+00000+0001T   00002192+0000001342          1400 DT5112               1AZ
199802003199802206-000450     199802006003000619863DRINKING JAR GLOBE     0000001000+00002630+00000+0001T   00002630+0000001342          1400 DT5321               1AZ
199802004199802007-000597     199802006009699511129MARLIN SLF ADHESIVE 2M 0000001000+00002192+00000+0001T   00002192+0000001342          1400 DT5130               1AZ
199802005199802206-000620     199802006003000631797BACK SCRATCHER EXTEND  0000001000+00002630+00000+0001T   00002630+0000001342          1400 DT5321               1AZ
199802006199802206-000135     199802006003000680450T/BAG HLDR SILICONE    0000001000+00001753+00000+0001T   00001753+0000001342          1400 DT5321               1AZ
199802007199802464-000121     199802006003000640492PLAYING CARDS MINI     0000001000+00000700+00000+0001T   00000700+0000001342          1400 DT5785               1AZ
199803000199803               199803               170213JK     1400+00000+JK0000003507+0000003507+000000000+000000491+0000003990+0000000008+I20000000000+0000003990+Z
199803001199803031-005853     199803006003000442416P/FRAME WDN TWIN HEARTS0000001000+00003507+00000+0001T   00003507+0000001343          1400 DT5510               1AZ
199804000199804               199804               170213JK     1400+00000+JK0000008100+0000008100+000000000+000001135+0000009235+0000000000+I40000009235+0000000000+Z
199804001199804077-000303     199804006001023593757GIFT-BAG PAPER MED     0000001000+00001578+00000+0001T   00001578+0000001404          1400 DT5112               1AZ
199804002199804903-000095     199804006001704011495SWT SPECKLED-EGGS 100G 0000001000+00002104+00000+0001T   00002104+0000001404          1400 DT5150               1AZ
199804003199804030-000010     199804006003000084395P/DOOR HANGER 2-ASSTD  0000001000+00001314+00000+0001T   00001490+0008181404          1400 DT5505               1AZ
199804004199804030-000030-A   199804006003000249305PLAQUE GLASS LOVE      0000001000+00003069+00000+0001T   00003069+0000001404          1400 DT5505               1AZ
199804005199804112-116038     199804006009681820246TCS CARRIER BAG MIDI   0000001000+00000035+00000+0001T   00000035+0000001404          1400 DT5090               1AZ
199805000199805               199805               170213JK     1400+00000+JK0000007488+0000007488+000000000+000001049+0000008530+0000000007+I20000000000+0000008530+Z
199805001199805018-050000     199805006003000412679MUG OCC LOVE TWIN BEAR 0000001000+00006139+00000+0001T   00006139+0000001440          1400 DT5515               1AZ
199805002199805030-000010     199805006003000084395P/DOOR HANGER 2-ASSTD  0000001000+00001314+00000+0001T   00001490+0008181440          1400 DT5505               1AZ
199805003199805565-000040     199805006008766115635NOVELTY ICON BEANIE    0000001000-00002630+00000+0001T   00002630+0000001440          1400 DT57451IC            1 Z
199805004199805565-000040     199805006008766115635NOVELTY ICON BEANIE    0000001000+00002630+00000+0001T   00002630+0000001440          1400 DT57451IC            1AZ
199805005199805112-116038     199805006009681820246TCS CARRIER BAG MIDI   0000001000+00000035+00000+0001T   00000035+0000001440          1400 DT5090               1AZ
199806000199806               199806               170213JK     1400+00000+JK0000007714+0000007714+000000000+000001081+0000008790+0000000005+I20000000000+0000008790+Z
199806001199806030-000030-A   199806006003000249305PLAQUE GLASS LOVE      0000001000+00003069+00000+0001T   00003069+0000001442          1400 DT5505               1AZ
199806002199806030-000010     199806006003000084395P/DOOR HANGER 2-ASSTD  0000001000+00001314+00000+0001T   00001490+0008181442          1400 DT5505               1AZ
199806003199806903-000087     199806006001704000161SWT SPECKLED-EGGS 50G  0000001000+00001139+00000+0001T   00001139+0000001442          1400 DT5150               1AZ
199806004199806089-000501     199806006003000622900KEY CHAIN LIGHT LASER  0000001000+00002192+00000+0001T   00002192+0000001442          1400 DT5205               1AZ
199807000199807               199807               170213JK     1400+00000+JK0000001139+0000001139+000000000+000000160+0000001290+0000000009+I20000000000+0000001290+Z
199807001199807903-000087     199807006001704000161SWT SPECKLED-EGGS 50G  0000001000+00001139+00000+0001T   00001139+0000001442          1400 DT5150               1AZ
199808000199808               199808               170213JK     1400+00000+JK0000013278+0000013278+000000000+000001864+0000015142+0000000000+I40000015142+0000000000+Z
199808001199808112-116069     199808006009681820277TCS CARRIER BAG JUMBO  0000001000+00000048+00000+0001T   00000048+0000001446          1400 DT5090               1AZ
199808002199808903-003080     199808005907029004673SWT SNACK STIX CHOC 50g0000003000+00000876+00000+0001T   00000876+0000001446          1400 DT5150               1AZ
199808003199808007-000724     199808006003000225958NOTE MAGNETIC 60SHTS   0000001000+00001753+00000+0001T   00001753+0000001446          1400 DT5130               1AZ
199808004199808903-000510     199808006001704012621SWEET MS ZBDZ S/BERRY  0000001000+00001227+00000+0001T   00001227+0000001446          1400 DT5150               1AZ
199808005199808007-000211     199808006003000005796STATIONERY N/PAD 3PCK  0000001000+00001578+00000+0001T   00001578+0000001446          1400 DT5130               1AZ
199808006199808007-000029     199808006003000577736PRICE FLASH 17x11cm    0000001000+00001753+00000+0001T   00001753+0000001446          1400 DT5130               1AZ
199808007199808304-001011     199808006001023806727FLWR ROSE RED W/BEAR   0000001000+00000613+00000+0001T   00000788+0006471446          1400 DT5510               1AZ
199808008199808079-009700-K   199808006003000546275PAPER SIRIO A4 VANILLA 0000002000+00000306+00000+0001T   00000306+0000001446          1400 DT5130               1AZ
199808009199808079-009702-F   199808008427973059392PAPER SIRIO A2 GREEN   0000001000+00001051+00000+0001T   00001051+0000001446          1400 DT5130               1AZ
199808010199808903-000297     199808006001704002950SWT MS WILD BERRY 50G  0000001000+00000876+00000+0001T   00000876+0000001446          1400 DT5150               1AZ
199808011199808903-000087     199808006001704000161SWT SPECKLED-EGGS 50G  0000001000+00001139+00000+0001T   00001139+0000001446          1400 DT5150               1AZ
199809000199809               199809               170213JK     1400+00000+JK0000003769+0000003769+000000000+000000528+0000004297+0000000000+I40000004297+0000000000+Z
199809001199809564-000012     199809006001023130075BUBBLE BOTTLE MAGIC    0000001000+00000700+00000+0001T   00000700+0000001448          1400 DT5131               1AZ
199809002199809079-013098     199809006003000197040ART+CRAFT SET DIY      0000001000+00003069+00000+0001T   00003069+0000001448          1400 DT5130               1AZ
199810000199810               199810               170213JK     1400+00000+JK0000018900+0000018900+000000000+000002647+0000021547+0000000000+I40000021547+0000000000+Z
199810001199810112-116069     199810006009681820277TCS CARRIER BAG JUMBO  0000001000+00000048+00000+0001T   00000048+0000001450          1400 DT5090               1AZ
199810002199810030-000031-A   199810006003000457588PLAQUE W/WORDS ASSTD   0000001000+00004385+00000+0001T   00004823+0006471450          1400 DT5505               1AZ
199810003199810206-000320     199810006003000632909BOTTLE STOPPER+MARKERS 0000001000+00005262+00000+0001T   00005262+0000001450          1400 DT5321               1AZ
199810004199810006-000166-F   199810006003000516735BALLOONS LRG 6PC PURPLE0000001000+00001314+00000+0001T   00001314+0000001450          1400 DT5131               1AZ
199810005199810006-000167-C   199810006003000516971BALLOONS PINK METALLIC 0000001000+00001314+00000+0001T   00001314+0000001450          1400 DT5131               1AZ
199810006199810206-000410     199810006003000619382SOUP LADLE SEAMONSTER  0000001000+00004385+00000+0001T   00004385+0000001450          1400 DT5321               1AZ
199810007199810077-000916     199810006003000413577G/WRAP 700mmx2m BBY/KID0000001000+00002192+00000+0001T   00002192+0000001450          1400 DT5112               1AZ
199811000199811               199811               170213JK     1400+00000+JK0000014951+0000014951+000000000+000002098+0000017049+0000000000+I40000017049+0000000000+Z
199811001199811112-116069     199811006009681820277TCS CARRIER BAG JUMBO  0000001000+00000048+00000+0001T   00000048+0000001452          1400 DT5090               1AZ
199811002199811103-000060     199811006001023795489BAMBOO BASKET RECT     0000005000+00002630+00000+0001T   00002630+0000001452          1400 DT5300               1AZ
199811003199811306-000002     199811006003000365852NAIL BRUSHES 3PC ASTD  0000001000+00001753+00000+0001T   00001753+0000001452          1400 DT5200               1AZ
199812000199812               199812               170213JK     1400+00000+JK0000012712+0000012712+000000000+000001782+0000014494+0000000000+I40000014494+0000000000+Z
199812001199812079-000335     199812006003000670550THERAPY P/CRAYONS 30   0000001000+00007016+00000+0001T   00007016+0000001454          1400 DT5130               1AZ
199812002199812159-000114     199812006001023507945SHOWER CAP PVC ASSTD   0000001000+00001490+00000+0001T   00001490+0000001454          1400 DT5200               1AZ
199812003199812903-000520     199812006001704009898SWT GUMMY MINI SOUR 60g0000001000+00000876+00000+0001T   00000876+0000001454          1400 DT5150               1AZ
199812004199812562-000010     199812006001023762528KID'S PLAY DOUGH       0000001000+00002630+00000+0001T   00002630+0000001454          1400 DT5755               1AZ
199812005199812306-000023-A   199812006003000110148COTTON WOOL BALLS 50PCE0000001000+00000700+00000+0001T   00001314+0008171454          1400 DT5200               1AZ
199813000199813               199813               170213JK     1400+00000+JK0000020124+0000020124+000000000+000002821+0000022945+0000000000+I40000022945+0000000000+Z
199813001199813080-000127     199813006003000424351VALENTINES DAY 36x24CM 0000001000+00002192+00000+0001T   00002192+0000001459          1400 DT5112               1AZ
199813002199813112-116069     199813006009681820277TCS CARRIER BAG JUMBO  0000001000+00000048+00000+0001T   00000048+0000001459          1400 DT5090               1AZ
199813003199813304-001204     199813006001023737984FLOWER OCC. TEDDY/ROSES0000001000+00001402+00000+0001T   00001490+0006471459          1400 DT5510               1AZ
199813004199813206-000120     199813006003000628308PEELER CARROT SHARPENER0000001000+00001753+00000+0001T   00001753+0000001459          1400 DT5321               1AZ
199813005199813368-000101     199813006003000449859PLUSH CAT 17cm KITTY   0000001000+00005262+00000+0001T   00005262+0000001459          1400 DT5745               1AZ
199813006199813031-005853     199813006003000442416P/FRAME WDN TWIN HEARTS0000001000+00003507+00000+0001T   00003507+0000001459          1400 DT5510               1AZ
199813007199813030-000031-A   199813006003000457588PLAQUE W/WORDS ASSTD   0000001000+00004385+00000+0001T   00004823+0006471459          1400 DT5505               1AZ
199813008199813903-000155     199813006009803374435SWT LOLLY I LUV U HEART0000003000+00000525+00000+0001T   00000525+0000001459          1400 DT5150               1AZ
199814000199814               199814               170213JK     1400+00000+JK0000003506+0000003506+000000000+000000492+0000003990+0000000008+I20000000000+0000003990+Z
199814001199814080-000116     199814006003000253555CARD&ENVELOPE-HANDMADE 0000001000+00001753+00000+0001T   00001753+0000001507          1400 DT5112               1CZ
199814002199814080-000103     199814006003000236961CARD&ENVLOPE BDAY-MALE 0000001000+00001753+00000+0001T   00001753+0000001507          1400 DT5112               1CZ
199815000199815               199815               170213JK     1400+00000+JK0000010725+0000010725+000000000+000001504+0000012229+0000000000+I40000012229+0000000000+Z
199815001199815112-116038     199815006009681820246TCS CARRIER BAG MIDI   0000001000+00000035+00000+0001T   00000035+0000001607          1400 DT5090               1AZ
199815002199815077-000512     199815006003000590223GIFT-BAG DESIGNER LRG  0000001000+00002630+00000+0001T   00002630+0000001607          1400 DT5112               1AZ
199815003199815566-000359     199815006003000582709STICKER BOOK LOVE SPARK0000002000+00002192+00000+0001T   00002192+0000001607          1400 DT5130               1AZ
199815004199815903-000155     199815006009803374435SWT LOLLY I LUV U HEART0000002000+00000525+00000+0001T   00000525+0000001607          1400 DT5150               1AZ
199815005199815007-000555     199815006001023848239MEMO-PAD MINI LOVE     0000002000+00000613+00000+0001T   00000613+0000001607          1400 DT5130               1AZ
199815006199815018-000177     199815006001023797513MUG MINI LOVE ASSTD    0000002000+00000700+00000+0001T   00000700+0000001607          1400 DT5515               1AZ
199816000199816               199816               170213JK     1400+00000+JK0000010905+0000010905+000000000+000001528+0000012430+0000000003+I20000000000+0000012430+Z
199816001199816112-116038     199816006009681820246TCS CARRIER BAG MIDI   0000001000+00000035+00000+0001T   00000035+0000001609          1400 DT5090               1AZ
199816002199816566-000068     199816006003000418046POP UP LOVE 2 ASSTD    0000001000+00002192+00000+0001T   00002192+0000001609          1400 DT5130               1AZ
199816003199816566-000359     199816006003000582709STICKER BOOK LOVE SPARK0000001000+00002192+00000+0001T   00002192+0000001609          1400 DT5130               1AZ
199816004199816077-000245     199816006001023759214GIFT-RIBBON METALLICx2 0000001000+00001227+00000+0001T   00001227+0000001609          1400 DT5112               1AZ
199816005199816031-000002-A   199816006003000247103P/FRAME LOVE 7.5X7.5CM 0000001000+00003507+00000+0001T   00003507+0000001609          1400 DT5510               1AZ
199816006199816077-000151     199816006008766114676GIFT-WRAP C/PHANE ASSTD0000002000+00000876+00000+0001T   00000876+0000001609          1400 DT5112               1AZ
199817000199817               199817               170213JK     1400+00000+JK0000008366+0000008366+000000000+000001172+0000009530+0000000008+I20000000000+0000009530+Z
199817001199817301-085003     199817006003000420827ORN OCCASION LOVE KEY  0000001000+00005262+00000+0001T   00005262+0000001610          1400 DT5505               1AZ
199817002199817030-000030-A   199817006003000249305PLAQUE GLASS LOVE      0000001000+00003069+00000+0001T   00003069+0000001610          1400 DT5505               1AZ
199817003199817112-116038     199817006009681820246TCS CARRIER BAG MIDI   0000001000+00000035+00000+0001T   00000035+0000001610          1400 DT5090               1AZ
199818000199818               199818               170213JK     1400+00000+JK0000003945+0000003945+000000000+000000553+0000004498+0000000000+I40000004498+0000000000+Z
199818001199818566-000865     199818006001023788412STICKER ASSTD          0000001000+00001753+00000+0001T   00001753+0000001615          1400 DT5130               1AZ
199818002199818566-000068     199818006003000418046POP UP LOVE 2 ASSTD    0000001000+00002192+00000+0001T   00002192+0000001615          1400 DT5130               1AZ
199819000199819               199819               170213JK     1400+00000+JK0000003855+0000003855+000000000+000000542+0000004397+0000000000+I40000004397+0000000000+Z
199819001199819079-009702-D   199819008427973059354PAPER SIRIO A2 RED COL 0000002000+00001051+00000+0001T   00001051+0000001617          1400 DT5130               1AZ
199819002199819084-009411     199819006001023629968SCISSORS 17cm PL-HANDLE0000001000+00001753+00000+0001T   00001753+0000001617          1400 DT5200               1AZ
199820000199820               199820               170213JK     1400+00000+JK0000059355+0000059355+000000000+000008319+0000067674+0000000000+I40000067674+0000000000+Z
199820001199820206-000540     199820006003000620944BIRTHDAY CANDLES BLOCKS0000005000+00001314+00000+0001T   00001753+0008181625          1400 DT5321               1AZ
199820002199820077-000314     199820006003000181148GIFT-BAG 11X14CM MATT  0000002000+00000876+00000+0001T   00000876+0000001625          1400 DT5112               1AZ
199820003199820264-000933     199820000090159211037MAISTO CAR 1:33 SMART  0000003000+00007893+00000+0001T   00007893+0000001625          1400 DT5710               1AZ
199820004199820077-000314     199820006003000181148GIFT-BAG 11X14CM MATT  0000003000+00000876+00000+0001T   00000876+0000001625          1400 DT5112               1AZ
199820005199820565-004101     199820006003000548033BALL BOUNCING EGG      0000006000+00001490+00000+0001T   00001490+0000001625          1400 DT5745               1AZ
199820006199820264-000934     199820006001023670373MAISTO DINKY 11cm LAMBO0000002000+00007893+00000+0001T   00007893+0000001625          1400 DT5710               1AZ
199821000199821               199821               170213JK     1400+00000+JK0000015832+0000015832+000000000+000002219+0000018050+0000000001+I20000000000+0000018050+Z
199821001199821368-000637     199821006001023874092PLUSH BEAR SLEEPING LOV0000001000+00011402+00000+0001T   00012279+0006471626          1400 DT5745               1AZ
199821002199821304-001204     199821006001023737984FLOWER OCC. TEDDY/ROSES0000001000+00001402+00000+0001T   00001490+0006471626          1400 DT5510               1AZ
199821003199821077-000299     199821006003000395576G/BAG 32x25cm LRG LOVE 0000002000+00001490+00000+0001T   00001490+0000001626          1400 DT5112               1AZ
199821004199821112-116069     199821006009681820277TCS CARRIER BAG JUMBO  0000001000+00000048+00000+0001T   00000048+0000001626          1400 DT5090               1AZ
199822000199822               199822               170213JK     1400+00000+JK0000002192+0000002192+000000000+000000307+0000002490+0000000009+I20000000000+0000002490+Z
199822001199822006-000789     199822006001023148612CROWN BOY              0000001000+00002192+00000+0001T   00002192+0000001629          1400 DT5131               1AZ
199823000199823               199823               170213JK     1400+00000+JK0000000725+0000000725+000000000+000000102+0000000820+0000000007+I20000000000+0000000820+Z
199823001199823006-001000-NA  199823006003000714087HELIUM BALLOON FILL    0000001000+00000725+00000+0001T   00000725+0000001632          1400 DT5131               1AZ
199824000199824               199824               170213JK     1400+00000+JK0000000439+0000000439+000000000+000000061+0000000500+0000000000+I20000000000+0000000500+Z
199824001199824159-000106     199824006003000685141SHOWER CURTAIN 180x180 0000001000-00004823+00000+0001T   00004823+0000001636          1400 DT52001IC            1 Z
199824002199824159-000107     199824006001023640406SHOWER-CURTAIN 180cm   0000001000+00005262+00000+0001T   00006139+0008191636          1400 DT5200               1AZ
199825000199825               199825               170213JK     1400+00000+JK0000008771+0000008771+000000000+000001228+0000009990+0000000009+I20000000000+0000009990+Z
199825001199825001-091415     199825006003000329113W/GLS OCC. LOVE 2PC 2800000001000+00008771+00000+0001T   00009648+0006471637          1400 DT5515               1AZ
199826000199826               199826               170213JK     1400+00000+JK0000000437+0000000437+000000000+000000062+0000000490+0000000009+I20000000000+0000000490+Z
199826001199826080-000133-A   199826006003000647019MINI VALENTINES CARD   0000001000+00000437+00000+0001T   00000437+0000001637          1400 DT5112               1AZ
199827000199827               199827               170213JK     1400+00000+JK0000006313+0000006313+000000000+000000885+0000007190+0000000008+I20000000000+0000007190+Z
199827001199827077-000299     199827006003000395576G/BAG 32x25cm LRG LOVE 0000001000+00001490+00000+0001T   00001490+0000001637          1400 DT5112               1AZ
199827002199827301-085001     199827006003000297610ORN WATERBALL LOVE ASST0000001000+00004823+00000+0001T   00004823+0000001637          1400 DT5505               1AZ
199828000199828               199828               170213JK     1400+00000+JK0000001576+0000001576+000000000+000000222+0000001790+0000000008+I20000000000+0000001790+Z
199828001199828903-000892     199828008693029700420SWT NOVELTY CHOCO CREAM0000002000+00000788+00000+0001T   00000788+0000001640          1400 DT5150               1AZ
199829000199829               199829               170213JK     1400+00000+JK0000001314+0000001314+000000000+000000184+0000001498+0000000000+I40000001498+0000000000+Z
199829001199829078-009100     199829006008741002349ALL-CLEAR GLUE 25ml CRD0000001000+00001314+00000+0001T   00001314+0000001641          1400 DT5810               1AZ
199830000199830               199830               170213JK     1400+00000+JK0000013885+0000013885+000000000+000001946+0000015831+0000000000+I40000015831+0000000000+Z
199830001199830304-001204     199830006001023737984FLOWER OCC. TEDDY/ROSES0000001000+00001402+00000+0001T   00001490+0006471644          1400 DT5510               1AZ
199830002199830018-000177     199830006001023797513MUG MINI LOVE ASSTD    0000001000+00000700+00000+0001T   00000700+0000001644          1400 DT5515               1AZ
199830003199830301-085004     199830006003000420469ORN LOVE PLAQUE 21X10CM0000001000+00003507+00000+0001T   00003946+0006471644          1400 DT5505               1AZ
199830004199830903-000095     199830006001704011495SWT SPECKLED-EGGS 100G 0000001000+00002104+00000+0001T   00002104+0000001644          1400 DT5150               1AZ
199830005199830301-085001     199830006003000297610ORN WATERBALL LOVE ASST0000001000+00004823+00000+0001T   00004823+0000001644          1400 DT5505               1AZ
199830006199830030-000010     199830006003000084395P/DOOR HANGER 2-ASSTD  0000001000+00001314+00000+0001T   00001490+0008181644          1400 DT5505               1AZ
199830007199830112-116038     199830006009681820246TCS CARRIER BAG MIDI   0000001000+00000035+00000+0001T   00000035+0000001644          1400 DT5090               1AZ
199831000199831               199831               170213JK     1400+00000+JK0000001753+0000001753+000000000+000000246+0000001999+0000000000+I40000001999+0000000000+Z
199831001199831077-000351     199831006003000139033GIFT-BAG 18X23CM E/D P 0000001000+00001753+00000+0001T   00001753+0000001646          1400 DT5112               1AZ
199832000199832               199832               170213JK     1400+00000+JK0000027743+0000027743+000000000+000003893+0000031636+0000000000+I40000031636+0000000000+Z
199832001199832112-116069     199832006009681820277TCS CARRIER BAG JUMBO  0000001000+00000048+00000+0001T   00000048+0000001649          1400 DT5090               1AZ
199832002199832903-000151     199832006009803374411SWT SML RND R/BOW LOLLY0000001000+00000525+00000+0001T   00000525+0000001649          1400 DT5150               1AZ
199832003199832007-000226     199832006003000646876NOTEBOOK WITH ELASTIC  0000002000+00002630+00000+0001T   00002630+0000001649          1400 DT5130               1AZ
199832004199832027-000082     199832006001023760258SCOURERS ROUND   PACK-60000001000+00001227+00000+0001T   00001227+0000001649          1400 DT5212               1AZ
199832005199832903-000151     199832006009803374411SWT SML RND R/BOW LOLLY0000001000+00000525+00000+0001T   00000525+0000001649          1400 DT5150               1AZ
199832006199832077-000235     199832006003000160211GIFT-RIBBON ROLL METALC0000001000+00002630+00000+0001T   00002630+0000001649          1400 DT5112               1AZ
199832007199832133-000009     199832006003000060726KITCHEN SWAB 3PC M/FIBR0000001000+00003507+00000+0001T   00003507+0000001649          1400 DT5212               1AZ
199832008199832903-005003     199832006002580020106SWT DINKY DUMMIES 5PK  0000001000+00001490+00000+0001T   00001490+0000001649          1400 DT5150               1AZ
199832009199832903-000221     199832006001704007382SWT EENY-MEENY-MOS 60G 0000001000+00000876+00000+0001T   00000876+0000001649          1400 DT5150               1AZ
199832010199832903-002851     199832000000087108538MENTOS ROLL STRAWBERRY 0000001000+00001051+00000+0001T   00001051+0000001649          1400 DT5150               1AZ
199832011199832903-000087     199832006001704000161SWT SPECKLED-EGGS 50G  0000002000+00001139+00000+0001T   00001139+0000001649          1400 DT5150               1AZ
199832012199832903-000699     199832006002099007018SWT CANDY FRUIT CHEWS  0000001000+00001139+00000+0001T   00001139+0000001649          1400 DT5150               1AZ
199832013199832903-002851     199832000000087108538MENTOS ROLL STRAWBERRY 0000001000+00001051+00000+0001T   00001051+0000001649          1400 DT5150               1AZ
199832014199832903-000481     199832006001704007481SWT MOO MILK-SHAKES 60G0000001000+00000876+00000+0001T   00000876+0000001649          1400 DT5150               1AZ
199832015199832903-000215     199832006002099001214SWT GS MALLOW TWIST PAC0000001000+00001753+00000+0001T   00001753+0000001649          1400 DT5150               1AZ
199832016199832079-014101     199832006001023908612ART+CRAFT SCOUBIDOUx50 0000001000+00003507+00000+0001T   00003507+0000001649          1400 DT5130               1AZ
199833000199833               199833               170213JK     1400+00000+JK0000012327+0000012327+000000000+000001727+0000014050+0000000004+I20000000000+0000014050+Z
199833001199833112-116069     199833006009681820277TCS CARRIER BAG JUMBO  0000001000+00000048+00000+0001T   00000048+0000001650          1400 DT5090               1AZ
199833002199833368-000113     199833006001023780874PLUSH BLINGED LOVE 30cm0000001000+00012279+00000+0001T   00012279+0000001650          1400 DT5745               1AZ
199834000199834               199834               170213JK     1400+00000+JK0000007324+0000007324+000000000+000001026+0000008350+0000000000+I40000008350+0000000000+Z
199834001199834903-000843     199834008693029031067SWT GUMMY JELAXY 80G   0000001000+00000964+00000+0001T   00000964+0000001653          1400 DT5150               1AZ
199834002199834018-000127     199834006001023380289MUG OCC STRAIGHT LOVE  0000001000+00001578+00000+0001T   00001753+0006471653          1400 DT5515               1AZ
199834003199834903-000519     199834006001704012805SWT MS LIQ-O-GHETTI    0000001000+00001227+00000+0001T   00001227+0000001653          1400 DT5150               1AZ
199834004199834036-000515     199834006001023817402HOOK-HANGER PL-CTD 10HK0000001000+00003507+00000+0001T   00003507+0000001653          1400 DT5212               1AZ
199834005199834112-116069     199834006009681820277TCS CARRIER BAG JUMBO  0000001000+00000048+00000+0001T   00000048+0000001653          1400 DT5090               1AZ
199835000199835               199835               170213JK     1400+00000+JK0000003992+0000003992+000000000+000000560+0000004552+0000000000+I40000004552+0000000000+Z
199835001199835565-000893     199835006003000643516NOVELTY FLASHING BALL  0000001000+00002630+00000+0001T   00002630+0000001655          1400 DT5745               1AZ
199835002199835077-000312     199835006001023608697GIFT-BAG 10X35CM GLOSS 0000001000+00001314+00000+0001T   00001314+0000001655          1400 DT5112               1AZ
199835003199835112-116069     199835006009681820277TCS CARRIER BAG JUMBO  0000001000+00000048+00000+0001T   00000048+0000001655          1400 DT5090               1AZ
199836000199836               199836               170213JK     1400+00000+JK0000004119+0000004119+000000000+000000578+0000004690+0000000007+I20000000000+0000004690+Z
199836001199836077-000382     199836006003000247820GIFT-BAG MED 18X23CM   0000001000+00001753+00000+0001T   00001753+0000001655          1400 DT5112               1AZ
199836002199836016-006509     199836006003000567355S/JAR GLS MINI LABEL   0000001000+00001753+00000+0001T   00002192+0008191655          1400 DT5300               1AZ
199836003199836585-000005     199836006003000164059C/PHONE CHARM ASSTD    0000001000+00000613+00000+0001T   00000613+0000001655          1400 DT5310               1AZ
199837000199837               199837               170213JK     1400+00000+JK0000005875+0000005875+000000000+000000823+0000006698+0000000000+I40000006698+0000000000+Z
199837001199837072-020253     199837006001023535696PET DOG TOY RUBBER BONE0000001000+00004385+00000+0001T   00004385+0000001701          1400 DT5870               1AZ
199837002199837077-000452     199837006003000284986G/BAG METALLIC MED EMB 0000001000+00001490+00000+0001T   00001490+0000001701          1400 DT5112               1AZ
199838000199838               199838               170213JK     1400+00000+JK0000001314+0000001314+000000000+000000184+0000001490+0000000008+I20000000000+0000001490+Z
199838001199838077-000470     199838006003000330171G-BAG DESGN SML 11X14CM0000001000+00001314+00000+0001T   00001314+0000001707          1400 DT5112               1AZ
199839000199839               199839               170213JK     1400+00000+JK0000003153+0000003153+000000000+000000442+0000003590+0000000005+I20000000000+0000003590+Z
199839001199839077-000472     199839006003000330133G-BAG DESGNR LRG 25X32 0000001000+00001753+00000+0001T   00001753+0000001709          1400 DT5112               1CZ
199839002199839018-000177     199839006001023797513MUG MINI LOVE ASSTD    0000002000+00000700+00000+0001T   00000700+0000001709          1400 DT5515               1CZ
199840000199840               199840               170213JK     1400+00000+JK0000001753+0000001753+000000000+000000246+0000001990+0000000009+I20000000000+0000001990+Z
199840001199840080-000101     199840006003000236732CARD&ENVLPE FEMALE     0000001000+00001753+00000+0001T   00001753+0000001710          1400 DT5112               1AZ
199841000199841               199841               170213JK     1400+00000+JK0000001490+0000001490+000000000+000000209+0000001699+0000000000+I40000001699+0000000000+Z
199841001199841077-000299     199841006003000395576G/BAG 32x25cm LRG LOVE 0000001000+00001490+00000+0001T   00001490+0000001716          1400 DT5112               1AZ
199842000199842               199842               170213JK     1400+00000+JK0000010117+0000010117+000000000+000001419+0000011536+0000000000+I40000011536+0000000000+Z
199842001199842019-000404     199842006001023845955PLANTER STONE 17X14X13M0000001000+00002630+00000+0001T   00003069+0008171723          1400 DT5510               1AZ
199842002199842304-000720     199842006001023843050F/BUNCH ROSE 6-HEAD AST0000002000+00002630+00000+0001T   00002630+0000001723          1400 DT5510               1AZ
199842003199842039-000635     199842006001023774521CANDLE VTV 4PC WHITE   0000001000+00002192+00000+0001T   00002192+0000001723          1400 DT5510               1AZ
199842004199842112-116038     199842006009681820246TCS CARRIER BAG MIDI   0000001000+00000035+00000+0001T   00000035+0000001723          1400 DT5090               1AZ
199843000199843               199843               170213JK     1400+00000+JK0000017503+0000017503+000000000+000002455+0000019950+0000000008+I20000000000+0000019950+Z
199843001199843006-000190     199843006003000685530BALLOONS LOVE 81x91cm  0000001000+00004385+00000+0001T   00004385+0000001726          1400 DT5131               1AZ
199843002199843006-001000-NA  199843006003000714087HELIUM BALLOON FILL    0000001000+00000725+00000+0001T   00000725+0000001726          1400 DT5131               1AZ
199843003199843048-071504     199843006003000225057TOUCH-LIGHT BAR TYPE   0000001000+00004385+00000+0001T   00004385+0000001726          1400 DT5305               1AZ
199843004199843080-000133-A   199843006003000647019MINI VALENTINES CARD   0000001000+00000437+00000+0001T   00000437+0000001726          1400 DT5112               1AZ
199843005199843903-000895     199843006009680772256SWT MINI BOTZ S/BERRY  0000002000+00000788+00000+0001T   00000788+0000001726          1400 DT5150               1AZ
199843006199843903-000519     199843006001704012805SWT MS LIQ-O-GHETTI    0000002000+00001227+00000+0001T   00001227+0000001726          1400 DT5150               1AZ
199843007199843027-056188     199843006003000570539DISH BRUSH LADY SHAPE  0000001000+00002630+00000+0001T   00002630+0000001726          1400 DT5212               1AZ
199843008199843903-000841     199843009243178623706SWT CANDY TIPSEE FRUIT 0000001000+00000876+00000+0001T   00000876+0000001726          1400 DT5150               1AZ
199843009199843112-116038     199843006009681820246TCS CARRIER BAG MIDI   0000001000+00000035+00000+0001T   00000035+0000001726          1400 DT5090               1AZ
199844000199844               199844               170213JK     1400+00000+JK0000010044+0000010044+000000000+000001408+0000011452+0000000000+I40000011452+0000000000+Z
199844001199844133-003245     199844006003000419074IRON BRD COVER 122x38cm0000001000+00006139+00000+0001T   00006139+0000001731          1400 DT5212               1AZ
199844002199844106-001099     199844006003000653447WATER BOTTLE 650ml     0000001000+00002630+00000+0001T   00002630+0000001731          1400 DT5210               1AZ
199844003199844112-116069     199844006009681820277TCS CARRIER BAG JUMBO  0000001000+00000048+00000+0001T   00000048+0000001731          1400 DT5090               1AZ
199844004199844903-004951     199844006002580020328SWT MALLOW MINI M/SHAKE0000001000+00001227+00000+0001T   00001227+0000001731          1400 DT5150               1AZ
199845000199845               199845               170213JK     1400+00000+JK0000002453+0000002453+000000000+000000344+0000002790+0000000007+I20000000000+0000002790+Z
199845001199845018-000177     199845006001023797513MUG MINI LOVE ASSTD    0000001000+00000700+00000+0001T   00000700+0000001732          1400 DT5515               1CZ
199845002199845089-000019     199845006003000092291K/CHAIN MINI BOOT 13cm 0000001000+00001753+00000+0001T   00001753+0000001732          1400 DT5205               1CZ
199846000199846               199846               170213JK     1400+00000+JK0000008814+0000008814+000000000+000001237+0000010051+0000000000+I40000010051+0000000000+Z
199846001199846112-116069     199846006009681820277TCS CARRIER BAG JUMBO  0000001000+00000048+00000+0001T   00000048+0000001735          1400 DT5090               1AZ
199846002199846133-000111     199846006001023842732OVEN-MITTEN 19x30cm    0000002000+00002630+00000+0001T   00002630+0000001735          1400 DT5212               1AZ
199846003199846080-000133-A   199846006003000647019MINI VALENTINES CARD   0000001000+00000437+00000+0001T   00000437+0000001735          1400 DT5112               1AZ
199846004199846038-092233     199846006003000328925TABLE-MAT N/SLIP ASST  0000001000+00003069+00000+0001T   00003507+0008191735          1400 DT5300               1AZ
199847000199847               199847               170213JK     1400+00000+JK0000007891+0000007891+000000000+000001105+0000008996+0000000000+I40000008996+0000000000+Z
199847001199847301-085004     199847006003000420469ORN LOVE PLAQUE 21X10CM0000001000+00003507+00000+0001T   00003946+0006471736          1400 DT5505               1AZ
199847002199847566-000359     199847006003000582709STICKER BOOK LOVE SPARK0000001000+00002192+00000+0001T   00002192+0000001736          1400 DT5130               1AZ
199847003199847077-000309-A   199847006003000671007GIFT-BAG HOLOGRAM JMB  0000001000+00002192+00000+0001T   00002192+0000001736          1400 DT5112               1AZ
199848000199848               199848               170213JK     1400+00000+JK0000004206+0000004206+000000000+000000589+0000004795+0000000000+I40000004795+0000000000+Z
199848001199848903-000194     199848006009826020616SWT CHOC RP LOLLY 25G  0000001000+00001314+00000+0001T   00001314+0000001740          1400 DT5150               1CZ
199848002199848018-000127     199848006001023380289MUG OCC STRAIGHT LOVE  0000001000+00001578+00000+0001T   00001753+0006471740          1400 DT5515               1CZ
199848003199848077-000310     199848006001023608635GIFT-BAG 18X23CM GLOSS 0000001000+00001314+00000+0001T   00001314+0000001740          1400 DT5112               1CZ
199849000199849               199849               170213JK     1400+00000+JK0000007049+0000007049+000000000+000000987+0000008036+0000000000+I40000008036+0000000000+Z
199849001199849018-005009     199849006001023725608MUG W/PLUSH-BEAR LOVE  0000002000+00003507+00000+0001T   00003507+0000001742          1400 DT5515               1AZ
199849002199849112-116038     199849006009681820246TCS CARRIER BAG MIDI   0000001000+00000035+00000+0001T   00000035+0000001742          1400 DT5090               1AZ
199850000199850               199850               170213JK     1400+00000+JK0000004555+0000004555+000000000+000000639+0000005194+0000000000+I40000005194+0000000000+Z
199850001199850077-000150-D   199850006003000054343GIFT-WRAP CELLPHANE CLR0000001000+00000876+00000+0001T   00000876+0000001744          1400 DT5112               1AZ
199850002199850077-000151     199850006008766114676GIFT-WRAP C/PHANE ASSTD0000002000+00000876+00000+0001T   00000876+0000001744          1400 DT5112               1AZ
199850003199850077-000245     199850006001023759214GIFT-RIBBON METALLICx2 0000001000+00001227+00000+0001T   00001227+0000001744          1400 DT5112               1AZ
199850004199850903-000120     199850006002099001665SWEET GS ZILLIONS 50g  0000001000+00000700+00000+0001T   00000700+0000001744          1400 DT5150               1AZ
199851000199851               199851               170213JK     1400+00000+JK0000013059+0000013059+000000000+000001830+0000014889+0000000000+I40000014889+0000000000+Z
199851001199851077-000245     199851006001023759214GIFT-RIBBON METALLICx2 0000001000+00001227+00000+0001T   00001227+0000001747          1400 DT5112               1CZ
199851002199851903-000194     199851006009826020616SWT CHOC RP LOLLY 25G  0000003000+00001314+00000+0001T   00001314+0000001747          1400 DT5150               1CZ
199851003199851018-000136     199851006001023659026MUG OCC LOVE W/PLUSH   0000001000+00003507+00000+0001T   00003507+0000001747          1400 DT5515               1CZ
199851004199851018-000129     199851006001023403353MUG OCC. LOVE V-SHAPE  0000001000+00002630+00000+0001T   00002630+0000001747          1400 DT5515               1CZ
199851005199851077-000115     199851006001023834225WRAP METALLIC 700mmx1m 0000001000+00001753+00000+0001T   00001753+0000001747          1400 DT5112               1CZ
199852000199852               199852               170213JK     1400+00000+JK0000000035+0000000035+000000000+000000005+0000000040+0000000000+I20000000000+0000000040+Z
199852001199852112-116038     199852006009681820246TCS CARRIER BAG MIDI   0000001000+00000035+00000+0001T   00000035+0000001748          1400 DT5090               1CZ
M17021391                              CASH        JKSLAVE 1                       Z-REPORT No.   613TOTAL (Sales - Refunds)           5709.97       CASH TO BE BANKED                 1539.10       DEBIT CARDS                          0.00       CREDIT CARDS                      4170.87       Z-READING                         5709.97       AIRTIME DEBIT CARD SALES             0.00       AIRTIME CARD SALES                   0.00       OVERS/UNDERS                         0.00       AIRTIME CASH SALES                   0.00       GIFT CARDS                           0.00       GIFT CARD CASH SALES                 0.00       T O T A L  CASH PAYOUTS              0.00                                                                                                                                                                                                                                                                                                                                                      Z
M17021392                              CASH        JKABSENT                                                                                                                                                                                          ANNUAL LEAVE                                                                                                                                                                                    DAY OFF                                                                                                                                                                                         COMMENTS                                                                                                                                                                                                                                                                                                                                                                                       Z
Y17021300                                          JK00000000508389+000060
ZJK17021319543 SLAVE 1      SALES DATA                     NEXT INVOICE NO.  199853 0613
X JK Slave 1 First invoice 199793 170213 Last invoice 199852 170213 Next invoice 199853 Total number of records 000000273 clbackup completed 19:54:14
