206721000206721               206721               170213JK     1400+00000+JK0000002452+0000002452+000000000+000000344+0000002790+0000000006+I20000000000+0000002790+Z
206721001206721903-000087     206721006001704000161SWT SPECKLED-EGGS 50G  0000001000+00001139+00000+0001T   00001139+0000000935          1400 DK5150               2AZ
206721002206721033-005994     206721006001023789570SEWING-NEEDLES 16PCE   0000001000+00000613+00000+0001T   00000613+0000000935          1400 DK5200               2AZ
206721003206721033-005920-A   206721006001023678249SEWING-THREAD 100m WHT 0000001000+00000700+00000+0001T   00000700+0000000935          1400 DK5200               2AZ
206722000206722               206722               170213JK     1400+00000+JK0000003769+0000003769+000000000+000000529+0000004290+0000000008+I20000000000+0000004290+Z
206722001206722903-000699     206722006002099007018SWT CANDY FRUIT CHEWS  0000001000+00001139+00000+0001T   00001139+0000000945          1400 DK5150               2AZ
206722002206722006-000220-A   206722006001023890849PARTY TABLE-CLOTH GIRL 0000001000+00002630+00000+0001T   00002630+0000000945          1400 DK5131               2AZ
206723000206723               206723               170213JK     1400+00000+JK0000013811+0000013811+000000000+000001937+0000015740+0000000008+I20000000000+0000015740+Z
206723001206723031-005918     206723006003000580453P/FRAME PL PLAIN 10X15 0000001000+00002630+00000+0001T   00002630+0000000953          1400 DK5510               2CZ
206723002206723031-000864-B   206723006001023798381P/FRAME MAHOGANY 13X18 0000001000+00003507+00000+0001T   00003507+0000000953          1400 DK5510               2CZ
206723003206723031-005919     206723006003000580576P/FRAME PL PLAIN 13X18 0000002000+00002630+00000+0001T   00002630+0000000953          1400 DK5510               2CZ
206723004206723031-000878-A   206723006001023798985P/FRAME 10x15cm PL-SLID0000001000+00000876+00000+0001T   00000876+0000000953          1400 DK5510               2CZ
206723005206723031-000878-B   206723006001023799012P/FRAME 13x18cm PL-SLID0000001000+00001490+00000+0001T   00001490+0000000953          1400 DK5510               2CZ
206723006206723112-116069     206723006009681820277TCS CARRIER BAG JUMBO  0000001000+00000048+00000+0001T   00000048+0000000953          1400 DK5090               2CZ
206724000206724               206724               170213JK     1400+00000+JK0000007276+0000007276+000000000+000001020+0000008296+0000000000+I40000008296+0000000000+Z
206724001206724903-002850     206724000000087108262MENTOS ROLL FRUIT      0000001000+00001051+00000+0001T   00001051+0000000958          1400 DK5150               2AZ
206724002206724031-000864-A   206724006001023798350P/FRAME MAHOGANY 10X15 0000001000+00003069+00000+0001T   00003069+0000000958          1400 DK5510               2AZ
206724003206724077-000303     206724006001023593757GIFT-BAG PAPER MED     0000002000+00001578+00000+0001T   00001578+0000000958          1400 DK5112               2AZ
206725000206725               206725               170213JK     1400+00000+JK0000025481+0000025481+000000000+000003569+0000029050+0000000000+I40000029050+0000000000+Z
206725001206725089-060027     206725006003000245871KEY-CHAIN HEART 6X6cm  0000001000+00003069+00000+0001T   00003069+0000001016          1400 DK5205               2AZ
206725002206725203-005505     206725006003000441570S/GLS PL 3PC LIQUEUR   0000001000+00002192+00000+0001T   00002192+0000001016          1400 DK5300               2AZ
206725003206725039-000504     206725006001023816290CANDLE VTV 4PC METALLIC0000001000+00002630+00000+0001T   00002630+0000001016          1400 DK5510               2AZ
206725004206725001-091415     206725006003000329113W/GLS OCC. LOVE 2PC 2800000001000+00008771+00000+0001T   00009648+0006471016          1400 DK5515               2AZ
206725005206725019-000015     206725006003000673537VASE GLS W/STND P/SHAPE0000001000+00008771+00000+0001T   00008771+0000001016          1400 DK5510               2AZ
206725006206725112-116069     206725006009681820277TCS CARRIER BAG JUMBO  0000001000+00000048+00000+0001T   00000048+0000001016          1400 DK5090               2AZ
206726000206726               206726               170213JK     1400+00000+JK0000010348+0000010348+000000000+000001449+0000011790+0000000007+I20000000000+0000011790+Z
206726001206726368-000001     206726006003000097982Plush Bear 25cm        0000001000+00004385+00000+0001T   00004385+0000001028          1400 DK5745               2AZ
206726002206726030-000031-A   206726006003000457588PLAQUE W/WORDS ASSTD   0000001000+00004385+00000+0001T   00004823+0006471028          1400 DK5505               2AZ
206726003206726083-000054     206726006001023729071LIGHTER REFILLABLE LED 0000001000+00001578+00000+0001T   00001578+0000001028          1400 DK5315               2AZ
206727000206727               206727               170213JK     1400+00000+JK0000004383+0000004383+000000000+000000615+0000004990+0000000008+I20000000000+0000004990+Z
206727001206727903-000211     206727006002099001238SWT GS MALLOW ICE CREAM0000001000+00001753+00000+0001T   00001753+0000001033          1400 DK5150               2AZ
206727002206727369-001138-D   206727006003000097623BABY BATH VINYL THEMED 0000001000+00002630+00000+0001T   00002630+0000001033          1400 DK5745               2AZ
206728000206728               206728               170213JK     1400+00000+JK0000004383+0000004383+000000000+000000614+0000004990+0000000007+I20000000000+0000004990+Z
206728001206728039-000323     206728006001023524171BIRTHDAY-CANDLES 24PCE 0000001000+00000876+00000+0001T   00000876+0000001033          1400 DK5510               2AZ
206728002206728006-000097     206728006003000376612PARTY WIND SPINNER     0000001000+00003507+00000+0001T   00003507+0000001033          1400 DK5131               2AZ
206729000206729               206729               170213JK     1400+00000+JK0000002630+0000002630+000000000+000000369+0000002990+0000000009+I20000000000+0000002990+Z
206729001206729077-000270     206729006003000395453GIFT-BAG PPR JMB 33X45 0000001000+00002630+00000+0001T   00002630+0000001039          1400 DK5112               2AZ
206730000206730               206730               170213JK     1400+00000+JK0000014683+0000014683+000000000+000002062+0000016745+0000000000+I40000016745+0000000000+Z
206730001206730065-006041     206730006001023712974TAMBOURINE 15cm P/BAND 0000004000+00001753+00000+0001T   00001753+0000001048          1400 DK5745               2AZ
206730002206730112-116069     206730006009681820277TCS CARRIER BAG JUMBO  0000001000+00000048+00000+0001T   00000048+0000001048          1400 DK5090               2AZ
206730003206730566-000858     206730006001023760975STCKRS G/OUTLINE ASSTD 0000002000+00000788+00000+0001T   00000788+0000001048          1400 DK5130               2AZ
206730004206730566-002004     206730006001023672421STICKERS CRYSTAL SHAPES0000002000+00001753+00000+0001T   00001753+0000001048          1400 DK5130               2AZ
206730005206730566-000858     206730006001023760975STCKRS G/OUTLINE ASSTD 0000001000+00000788+00000+0001T   00000788+0000001048          1400 DK5130               2AZ
206730006206730566-000066     206730006003000283675STICKERS GLITTER 25PCS 0000001000+00001753+00000+0001T   00001753+0000001048          1400 DK5130               2AZ
206731000206731               206731               170213JK     1400+00000+JK0000010610+0000010610+000000000+000001486+0000012090+0000000006+I20000000000+0000012090+Z
206731001206731089-060027     206731006003000245871KEY-CHAIN HEART 6X6cm  0000001000+00003069+00000+0001T   00003069+0000001054          1400 DK5205               2AZ
206731002206731077-000303     206731006001023593757GIFT-BAG PAPER MED     0000001000+00001578+00000+0001T   00001578+0000001054          1400 DK5112               2AZ
206731003206731080-000124     206731006003000297733CARD & ENV VALENTINES  0000001000+00001578+00000+0001T   00001578+0000001054          1400 DK5112               2AZ
206731004206731001-000175     206731006001023788108B/MUG GLS LOVE 380ML   0000001000+00004385+00000+0001T   00004385+0000001054          1400 DK5515               2AZ
206732000206732               206732               170213JK     1400+00000+JK0000010261+0000010261+000000000+000001437+0000011690+0000000008+I20000000000+0000011690+Z
206732001206732077-000299     206732006003000395576G/BAG 32x25cm LRG LOVE 0000001000+00001490+00000+0001T   00001490+0000001056          1400 DK5112               2AZ
206732002206732368-000665     206732006003000169016PLUSH BEAR 30cm        0000001000+00008771+00000+0001T   00008771+0000001056          1400 DK5745               2AZ
206733000206733               206733               170213JK     1400+00000+JK0000003069+0000003069+000000000+000000430+0000003499+0000000000+I40000003499+0000000000+Z
206733001206733106-000899     206733006003000653287WTR BOTTLE 2L W/HANDLE 0000001000+00003069+00000+0001T   00003507+0008191102          1400 DK5210               2AZ
206734000206734               206734               170213JK     1400+00000+JK0000001402+0000001402+000000000+000000197+0000001590+0000000009+I20000000000+0000001590+Z
206734001206734304-001204     206734006001023737984FLOWER OCC. TEDDY/ROSES0000001000+00001402+00000+0001T   00001490+0006471103          1400 DK5510               2AZ
206735000206735               206735               170213JK     1400+00000+JK0000003418+0000003418+000000000+000000480+0000003898+0000000000+I40000003898+0000000000+Z
206735001206735565-000040     206735006008766115635NOVELTY ICON BEANIE    0000001000+00002630+00000+0001T   00002630+0000001106          1400 DK5745               2AZ
206735002206735077-000383     206735006003000247943GIFT-BAG 11X14CM S/COL 0000001000+00000788+00000+0001T   00000788+0000001106          1400 DK5112               2AZ
206736000206736               206736               170213JK     1400+00000+JK0000035128+0000035128+000000000+000004921+0000040049+0000000000+I40000040049+0000000000+Z
206736001206736486-002321     206736006003000384624WALL-CLOCK QTZ 33CM    0000001000+00007016+00000+0001T   00007016+0000001115          1400 DK5510               2AZ
206736002206736080-000114     206736006003000246472CARD&ENV LOVE-MUSICAL  0000001000+00001314+00000+0001T   00001753+0008151115          1400 DK5112               2AZ
206736003206736031-001008     206736006003000406494P/FRAME COLLAGE PLASTIC0000001000+00012279+00000+0001T   00012279+0000001115          1400 DK5510               2AZ
206736004206736368-000113     206736006001023780874PLUSH BLINGED LOVE 30cm0000001000+00012279+00000+0001T   00012279+0000001115          1400 DK5745               2AZ
206736005206736077-000309-A   206736006003000671007GIFT-BAG HOLOGRAM JMB  0000001000+00002192+00000+0001T   00002192+0000001115          1400 DK5112               2AZ
206736006206736112-116069     206736006009681820277TCS CARRIER BAG JUMBO  0000001000+00000048+00000+0001T   00000048+0000001115          1400 DK5090               2AZ
206737000206737               206737               170213JK     1400+00000+JK0000023720+0000023720+000000000+000003325+0000027045+0000000000+I40000027045+0000000000+Z
206737001206737046-000012-VP  206737006003000537914BATTERIES H/P SIZE:AA  0000001000+00004823+00000+0001T   00004823+0000001129          1400 DK5312               2AZ
206737002206737079-006500     206737006001023557186GLUE GLITTER 6/10 PCE  0000001000+00001753+00000+0001T   00001753+0000001129          1400 DK5130               2AZ
206737003206737072-020311     206737006003000494132PET DOG TOY VINYL BALL 0000001000+00003069+00000+0001T   00003069+0000001129          1400 DK5870               2AZ
206737004206737071-081104-A   206737006003000326662GLUE-STICK 8g CRD-OF-3 0000001000+00001227+00000+0001T   00001227+0000001129          1400 DK5130               2AZ
206737005206737566-000064     206737006001023689702STICKERS GLITTER BORDER0000001000+00003507+00000+0001T   00003507+0000001129          1400 DK5130               2AZ
206737006206737566-100009     206737006003000102914WED STIK EMBOSSED FOIL 0000001000+00002630+00000+0001T   00002630+0000001129          1400 DK5130               2AZ
206737007206737007-000551     206737006001023848079NOTE-PAD SHOP-LIST ASST0000001000+00001753+00000+0001T   00001753+0000001129          1400 DK5130               2AZ
206737008206737112-116069     206737006009681820277TCS CARRIER BAG JUMBO  0000001000+00000048+00000+0001T   00000048+0000001129          1400 DK5090               2AZ
206737009206737466-000599     206737006001023630339BALL AMERICAN F/BALL   0000001000+00004385+00000+0001T   00004385+0000001129          1400 DK5785               2AZ
206737010206737903-000077     206737006939873501687SWT GS MAGIC ROCK FRUIT0000001000+00000525+00000+0001T   00000525+0000001129          1400 DK5150               2AZ
206738000206738               206738               170213JK     1400+00000+JK0000021398+0000021398+000000000+000002996+0000024394+0000000000+I40000024394+0000000000+Z
206738001206738105-001078     206738000700371637750CONTAINER 1,1L CLIP LOC0000002000+00001928+00000+0001T   00001928+0000001131          1400 DK5210               2AZ
206738002206738072-020244     206738000694202207840PET BED COTTON 90x70cm 0000001000+00017542+00000+0001T   00017542+0000001131          1400 DK5870               2AZ
206739000206739               206739               170213JK     1400+00000+JK0000000788+0000000788+000000000+000000111+0000000890+0000000009+I20000000000+0000000890+Z
206739001206739033-005991     206739006001023678546NEEDLES H/HOLD-REPAIR  0000001000+00000788+00000+0001T   00000788+0000001134          1400 DK5200               2AZ
206740000206740               206740               170213JK     1400+00000+JK0000007454+0000007454+000000000+000001044+0000008490+0000000008+I20000000000+0000008490+Z
206740001206740024-000212     206740006001023858030COOKIE-CUTTERS PL SMALL0000001000+00003069+00000+0001T   00003069+0000001144          1400 DK5300               2AZ
206740002206740368-006004     206740006003000671076PLUSH DOLPHIN          0000001000+00004385+00000+0001T   00004385+0000001144          1400 DK5745               2AZ
206741000206741               206741               170213JK     1400+00000+JK0000010394+0000010394+000000000+000001457+0000011851+0000000000+I40000011851+0000000000+Z
206741001206741903-000297     206741006001704002950SWT MS WILD BERRY 50G  0000002000+00000876+00000+0001T   00000876+0000001146          1400 DK5150               2AZ
206741002206741266-001303     206741006001023560698MARBLES 25MM 10PC GOONS0000001000+00001578+00000+0001T   00001578+0000001146          1400 DK5710               2AZ
206741003206741112-116069     206741006009681820277TCS CARRIER BAG JUMBO  0000001000+00000048+00000+0001T   00000048+0000001146          1400 DK5090               2AZ
206741004206741562-006275     206741006001023836182EDU BOARD W/MARKER ASST0000001000+00007016+00000+0001T   00007016+0000001146          1400 DK5755               2AZ
206742000206742               206742               170213JK     1400+00000+JK0000003067+0000003067+000000000+000000430+0000003490+0000000007+I20000000000+0000003490+Z
206742001206742077-000312     206742006001023608697GIFT-BAG 10X35CM GLOSS 0000001000+00001314+00000+0001T   00001314+0000001146          1400 DK5112               2AZ
206742002206742077-000309     206742006001023608604GIFT-BAG 25X32CM GLOSS 0000001000+00001753+00000+0001T   00001753+0000001146          1400 DK5112               2AZ
206743000206743               206743               170213JK     1400+00000+JK0000024066+0000024066+000000000+000003374+0000027440+0000000000+I40000027440+0000000000+Z
206743001206743077-000270     206743006003000395453GIFT-BAG PPR JMB 33X45 0000002000+00002630+00000+0001T   00002630+0000001150          1400 DK5112               2AZ
206743002206743304-001204     206743006001023737984FLOWER OCC. TEDDY/ROSES0000002000+00001402+00000+0001T   00001490+0006471150          1400 DK5510               2AZ
206743003206743112-116069     206743006009681820277TCS CARRIER BAG JUMBO  0000001000+00000048+00000+0001T   00000048+0000001150          1400 DK5090               2AZ
206743004206743080-000127     206743006003000424351VALENTINES DAY 36x24CM 0000003000+00002192+00000+0001T   00002192+0000001150          1400 DK5112               2AZ
206743005206743071-005214     206743006003000152544CELLOTAPE SUPER REFILL 0000001000+00001490+00000+0001T   00001490+0000001150          1400 DK5130               2AZ
206743006206743903-000912     206743006009802868461SWT GUM TAPE HOT WHEELS0000001000+00001753+00000+0001T   00001753+0000001150          1400 DK5150               2AZ
206743007206743567-011422     206743006003000641222BK COLOURING THERAPY   0000001000+00003507+00000+0001T   00003507+0000001150          1400 DK5757               2AZ
206743008206743903-000194     206743006009826020616SWT CHOC RP LOLLY 25G  0000002000+00001314+00000+0001T   00001314+0000001150          1400 DK5150               2AZ
206744000206744               206744               170213JK     1400+00000+JK0000000874+0000000874+000000000+000000124+0000000990+0000000008+I20000000000+0000000990+Z
206744001206744071-000212     206744006009608641190CHALK WHITE 12PCE      0000002000+00000437+00000+0001T   00000437+0000001151          1400 DK5130               2AZ
206745000206745               206745               170213JK     1400+00000+JK0000004208+0000004208+000000000+000000590+0000004798+0000000000+I40000004798+0000000000+Z
206745001206745562-000009     206745000730589212029PLAY MODELLING CARDED  0000001000+00002455+00000+0001T   00002455+0000001153          1400 DK5755               2CZ
206745002206745562-000017     206745006001023682154EDU BEAN BAG ASSTD     0000001000+00001753+00000+0001T   00001753+0000001153          1400 DK5755               2CZ
206746000206746               206746               170213JK     1400+00000+JK0000002630+0000002630+000000000+000000369+0000002990+0000000009+I20000000000+0000002990+Z
206746001206746072-020285     206746006003000451364PET CAT TOY BALLS PK-4 0000001000+00002630+00000+0001T   00002630+0000001153          1400 DK5870               2AZ
206747000206747               206747               170213JK     1400+00000+JK0000006138+0000006138+000000000+000000860+0000006990+0000000008+I20000000000+0000006990+Z
206747001206747004-071309     206747006001023730862HOLDER DISC SINGLE PK-60000001000+00001753+00000+0001T   00001753+0000001157          1400 DK5310               2AZ
206747002206747004-071270     206747006001023802156CD-DISCS WRITABLE 10PCE0000001000+00004385+00000+0001T   00004385+0000001157          1400 DK5310               2AZ
206748000206748               206748               170213JK     1400+00000+JK0000001839+0000001839+000000000+000000258+0000002090+0000000007+I20000000000+0000002090+Z
206748001206748304-001011     206748006001023806727FLWR ROSE RED W/BEAR   0000003000+00000613+00000+0001T   00000788+0006471159          1400 DK5510               2AZ
206749000206749               206749               170213JK     1400+00000+JK0000011046+0000011046+000000000+000001549+0000012595+0000000000+I40000012595+0000000000+Z
206749001206749077-000011-E   206749006001023808646TISSUE-WRAP PINK 10PCE 0000001000+00000876+00000+0001T   00000876+0000001201          1400 DK5112               2AZ
206749002206749077-000011-Y   206749006001023809858TISSUE-WRAP GOLD 10PCE 0000001000+00001753+00000+0001T   00001753+0000001201          1400 DK5112               2AZ
206749003206749077-000005-D   206749006003000414567PAPER TISSUE 50x70cm   0000001000+00001753+00000+0001T   00001753+0000001201          1400 DK5112               2AZ
206749004206749027-009027     206749006003000235803BROOM FLAT 1.2m HANDLE 0000001000+00004385+00000+0001T   00004385+0000001201          1400 DK5212               2AZ
206749005206749027-001020     206749006001246602519BROOM FLOOR W/HANDLE   0000001000+00002279+00000+0001T   00002279+0000001201          1400 DK5212               2AZ
206750000206750               206750               170213JK     1400+00000+JK0000001663+0000001663+000000000+000000234+0000001897+0000000000+I40000001897+0000000000+Z
206750001206750077-000311     206750006001023608666GIFT-BAG 11X14CM GLOSS 0000001000+00000613+00000+0001T   00000613+0000001206          1400 DK5112               2AZ
206750002206750304-001011     206750006001023806727FLWR ROSE RED W/BEAR   0000001000+00000613+00000+0001T   00000788+0006471206          1400 DK5510               2AZ
206750003206750080-000133-A   206750006003000647019MINI VALENTINES CARD   0000001000+00000437+00000+0001T   00000437+0000001206          1400 DK5112               2AZ
206751000206751               206751               170213JK     1400+00000+JK0000012005+0000012005+000000000+000001684+0000013680+0000000009+I20000000000+0000013680+Z
206751001206751304-001011     206751006001023806727FLWR ROSE RED W/BEAR   0000002000+00000613+00000+0001T   00000788+0006471209          1400 DK5510               2AZ
206751002206751903-000519     206751006001704012805SWT MS LIQ-O-GHETTI    0000001000+00001227+00000+0001T   00001227+0000001209          1400 DK5150               2AZ
206751003206751089-000501     206751006003000622900KEY CHAIN LIGHT LASER  0000001000+00002192+00000+0001T   00002192+0000001209          1400 DK5205               2AZ
206751004206751903-000077     206751006939873501687SWT GS MAGIC ROCK FRUIT0000002000+00000525+00000+0001T   00000525+0000001209          1400 DK5150               2AZ
206751005206751903-000672     206751006009803358060SWT SHERBET W/STRAW    0000001000-00000174+00000+0001T   00000174+0000001209          1400 DK51501IC            2 Z
206751006206751903-000673     206751006009803358237SWT SHERBET GRAPE 4PK  0000001000+00000876+00000+0001T   00000876+0000001209          1400 DK5150               2AZ
206751007206751077-000310     206751006001023608635GIFT-BAG 18X23CM GLOSS 0000001000+00001314+00000+0001T   00001314+0000001209          1400 DK5112               2AZ
206751008206751077-000318     206751006001023609755GIFT-BAG 18X23CM E/D AN0000001000+00001227+00000+0001T   00001227+0000001209          1400 DK5112               2AZ
206751009206751565-004013     206751006003000574933NOVELTY CAMERA 3 ASTD  0000001000+00002630+00000+0001T   00002630+0000001209          1400 DK5745               2AZ
206751010206751080-000133-A   206751006003000647019MINI VALENTINES CARD   0000001000+00000437+00000+0001T   00000437+0000001209          1400 DK5112               2AZ
206752000206752               206752               170213JK     1400+00000+JK0000048497+0000048497+000000000+000006799+0000055296+0000000000+I40000055296+0000000000+Z
206752001206752368-000637     206752006001023874092PLUSH BEAR SLEEPING LOV0000003000+00011402+00000+0001T   00012279+0006471213          1400 DK5745               2AZ
206752002206752903-000211     206752006002099001238SWT GS MALLOW ICE CREAM0000003000+00001753+00000+0001T   00001753+0000001213          1400 DK5150               2AZ
206752003206752903-000510     206752006001704012621SWEET MS ZBDZ S/BERRY  0000001000+00001227+00000+0001T   00001227+0000001213          1400 DK5150               2AZ
206752004206752566-000359     206752006003000582709STICKER BOOK LOVE SPARK0000001000+00002192+00000+0001T   00002192+0000001213          1400 DK5130               2AZ
206752005206752112-116069     206752006009681820277TCS CARRIER BAG JUMBO  0000002000+00000048+00000+0001T   00000048+0000001213          1400 DK5090               2AZ
206752006206752304-001204     206752006001023737984FLOWER OCC. TEDDY/ROSES0000003000+00001402+00000+0001T   00001490+0006471213          1400 DK5510               2AZ
206752007206752080-000133-A   206752006003000647019MINI VALENTINES CARD   0000003000+00000437+00000+0001T   00000437+0000001213          1400 DK5112               2AZ
206753000206753               206753               170213JK     1400+00000+JK0000005259+0000005259+000000000+000000738+0000005990+0000000007+I20000000000+0000005990+Z
206753001206753077-000011     206753006003000542352PAPER RAFFIA ASSTD COL 0000003000+00001753+00000+0001T   00001753+0000001219          1400 DK5112               2AZ
206754000206754               206754               170213JK     1400+00000+JK0000010397+0000010397+000000000+000001456+0000011853+0000000000+I40000011853+0000000000+Z
206754001206754080-000124     206754006003000297733CARD & ENV VALENTINES  0000001000+00001578+00000+0001T   00001578+0000001221          1400 DK5112               2AZ
206754002206754031-086302-C   206754006001023910332P/FRAME COLL. PL 3-HOLE0000001000+00008771+00000+0001T   00008771+0000001221          1400 DK5510               2AZ
206754003206754112-116069     206754006009681820277TCS CARRIER BAG JUMBO  0000001000+00000048+00000+0001T   00000048+0000001221          1400 DK5090               2AZ
206755000206755               206755               170213JK     1400+00000+JK0000003855+0000003855+000000000+000000541+0000004390+0000000006+I20000000000+0000004390+Z
206755001206755071-081101-A   206755006003000326549GLUE-STICK 25g BLISTER 0000001000+00000788+00000+0001T   00000788+0000001221          1400 DK5130               2AZ
206755002206755200-003026     206755006003000276448REFUSE BAGS 10PCE GREEN0000001000+00001753+00000+0001T   00001753+0000001221          1400 DK5214               2AZ
206755003206755903-004950     206755006002580020304SWT APRICOT SURPRISE   0000001000+00001314+00000+0001T   00001314+0000001221          1400 DK5150               2AZ
206756000206756               206756               170213JK     1400+00000+JK0000000035+0000000035+000000000+000000005+0000000040+0000000000+I20000000000+0000000040+Z
206756001206756112-116038     206756006009681820246TCS CARRIER BAG MIDI   0000001000+00000035+00000+0001T   00000035+0000001229          1400 DK5090               2AZ
206757000206757               206757               170213JK     1400+00000+JK0000009471+0000009471+000000000+000001327+0000010798+0000000000+I40000010798+0000000000+Z
206757001206757077-000303     206757006001023593757GIFT-BAG PAPER MED     0000001000+00001578+00000+0001T   00001578+0000001232          1400 DK5112               2AZ
206757002206757301-085007     206757006003000673698ORN OCC. LOVE S/PLAQUE 0000001000+00007893+00000+0001T   00007893+0000001232          1400 DK5505               2AZ
206758000206758               206758               170213JK     1400+00000+JK0000010571+0000010571+000000000+000001482+0000012053+0000000000+I40000012053+0000000000+Z
206758001206758004-071209     206758006003000604678MOBILE IN CAR HOLDER   0000001000+00007893+00000+0001T   00007893+0000001234          1400 DK5310               2AZ
206758002206758403-000509     206758006001023699664MONEY-BANK PL. PIGGY   0000001000+00002630+00000+0001T   00002630+0000001234          1400 DK5510               2AZ
206758003206758112-116069     206758006009681820277TCS CARRIER BAG JUMBO  0000001000+00000048+00000+0001T   00000048+0000001234          1400 DK5090               2AZ
206759000206759               206759               170213JK     1400+00000+JK0000003506+0000003506+000000000+000000492+0000003990+0000000008+I20000000000+0000003990+Z
206759001206759080-000111     206759006003000252695CARD&ENVELPE - MUSICAL 0000001000+00001753+00000+0001T   00001753+0000001240          1400 DK5112               2AZ
206759002206759080-000101     206759006003000236732CARD&ENVLPE FEMALE     0000001000+00001753+00000+0001T   00001753+0000001240          1400 DK5112               2AZ
206760000206760               206760               170213JK     1400+00000+JK0000000437+0000000437+000000000+000000062+0000000490+0000000009+I20000000000+0000000490+Z
206760001206760080-000133-A   206760006003000647019MINI VALENTINES CARD   0000001000+00000437+00000+0001T   00000437+0000001248          1400 DK5112               2AZ
206761000206761               206761               170213JK     1400+00000+JK0000021974+0000021974+000000000+000003077+0000025051+0000000000+I40000025051+0000000000+Z
206761001206761567-011437     206761009781847508683BK COLOURING GIRLS     0000001000+00003507+00000+0001T   00003507+0000001251          1400 DK5757               2AZ
206761002206761065-006072     206761006003000466627WOODEN HARMONICA 12.7cm0000001000+00005262+00000+0001T   00005262+0000001251          1400 DK5745               2AZ
206761003206761466-000500     206761006003000589470SWING PLASTIC          0000001000+00013157+00000+0001T   00017542+0008151251          1400 DK5785               2AZ
206761004206761112-116069     206761006009681820277TCS CARRIER BAG JUMBO  0000001000+00000048+00000+0001T   00000048+0000001251          1400 DK5090               2AZ
206762000206762               206762               170213JK     1400+00000+JK0000003506+0000003506+000000000+000000492+0000003990+0000000008+I20000000000+0000003990+Z
206762001206762051-002406     206762006003000139415SPRAY PL TRIGGER 700ml 0000001000+00001753+00000+0001T   00001753+0000001252          1400 DK5820               2AZ
206762002206762104-000020     206762006916920023026BASKET 25x14x10cm      0000001000+00001753+00000+0001T   00001753+0000001252          1400 DK5210               2AZ
206763000206763               206763               170213JK     1400+00000+JK0000018899+0000018899+000000000+000002649+0000021548+0000000000+I40000021548+0000000000+Z
206763001206763079-014152     206763006003000253074ART+CRAFT PK50 ASSTD   0000005000+00003069+00000+0001T   00003069+0000001256          1400 DK5130               2AZ
206763002206763079-006522     206763006001023149442ART+CRAFT GLUE ASSORTED0000002000+00001753+00000+0001T   00001753+0000001256          1400 DK5130               2AZ
206763003206763112-116069     206763006009681820277TCS CARRIER BAG JUMBO  0000001000+00000048+00000+0001T   00000048+0000001256          1400 DK5090               2AZ
206764000206764               206764               170213JK     1400+00000+JK0000009645+0000009645+000000000+000001352+0000010990+0000000007+I20000000000+0000010990+Z
206764001206764077-000115-B   206764006003000181025GIFT-WRAP PPR 700MMX2M 0000002000+00002630+00000+0001T   00002630+0000001258          1400 DK5112               2AZ
206764002206764107-004000     206764006001023889256BASIN PL OBLONG        0000001000+00004385+00000+0001T   00004385+0000001258          1400 DK5210               2AZ
206765000206765               206765               170213JK     1400+00000+JK0000000613+0000000613+000000000+000000086+0000000690+0000000009+I20000000000+0000000690+Z
206765001206765304-001011     206765006001023806727FLWR ROSE RED W/BEAR   0000001000+00000613+00000+0001T   00000788+0006471304          1400 DK5510               2AZ
206766000206766               206766               170213JK     1400+00000+JK0000012489+0000012489+000000000+000001754+0000014243+0000000000+I40000014243+0000000000+Z
206766001206766304-001204     206766006001023737984FLOWER OCC. TEDDY/ROSES0000002000+00001402+00000+0001T   00001490+0006471307          1400 DK5510               2AZ
206766002206766080-000133-A   206766006003000647019MINI VALENTINES CARD   0000003000+00000437+00000+0001T   00000437+0000001307          1400 DK5112               2AZ
206766003206766077-000310     206766006001023608635GIFT-BAG 18X23CM GLOSS 0000001000+00001314+00000+0001T   00001314+0000001307          1400 DK5112               2AZ
206766004206766077-000314     206766006003000181148GIFT-BAG 11X14CM MATT  0000002000+00000876+00000+0001T   00000876+0000001307          1400 DK5112               2AZ
206766005206766567-011422     206766006003000641222BK COLOURING THERAPY   0000001000+00003507+00000+0001T   00003507+0000001307          1400 DK5757               2AZ
206766006206766079-000206     206766006003000639700PENCIL CRAYONS THERAPY 0000001000+00001753+00000+0001T   00001753+0000001307          1400 DK5130               2AZ
206766007206766112-116069     206766006009681820277TCS CARRIER BAG JUMBO  0000001000+00000048+00000+0001T   00000048+0000001307          1400 DK5090               2AZ
206767000206767               206767               170213JK     1400+00000+JK0000009255+0000009255+000000000+000001297+0000010552+0000000000+I40000010552+0000000000+Z
206767001206767039-000100     20676700600300060614625CM WHITE CANDLE 6PC  0000001000+00002630+00000+0001T   00002630+0000001311          1400 DK5510               2AZ
206767002206767368-000049     206767006003000536955PLUSH BEAR 15cm LOVE   0000001000+00004385+00000+0001T   00004385+0000001311          1400 DK5745               2AZ
206767003206767080-000127     206767006003000424351VALENTINES DAY 36x24CM 0000001000+00002192+00000+0001T   00002192+0000001311          1400 DK5112               2AZ
206767004206767112-116069     206767006009681820277TCS CARRIER BAG JUMBO  0000001000+00000048+00000+0001T   00000048+0000001311          1400 DK5090               2AZ
206768000206768               206768               170213JK     1400+00000+JK0000008766+0000008766+000000000+000001229+0000009990+0000000005+I20000000000+0000009990+Z
206768001206768071-001010     206768006001023893314MARKERS-METALIC 3PCE   0000001000+00003507+00000+0001T   00003507+0000001320          1400 DK5130               2AZ
206768002206768072-000228     206768006003000235940DOG-COL REFLCTV 25-40cm0000003000+00001753+00000+0001T   00001753+0000001320          1400 DK5870               2AZ
206769000206769               206769               170213JK     1400+00000+JK0000001227+0000001227+000000000+000000172+0000001390+0000000009+I20000000000+0000001390+Z
206769001206769002-000970     206769006001023770578FUNNELS 3PCE WHITE     0000001000+00001227+00000+0001T   00001227+0000001321          1400 DK5300               2AZ
206770000206770               206770               170213JK     1400+00000+JK0000005962+0000005962+000000000+000000835+0000006797+0000000000+I40000006797+0000000000+Z
206770001206770567-011523     206770006003000667031BK COLOURING THERAPY   0000001000+00003507+00000+0001T   00003507+0000001329          1400 DK5757               2AZ
206770002206770562-000009     206770000730589212029PLAY MODELLING CARDED  0000001000+00002455+00000+0001T   00002455+0000001329          1400 DK5755               2AZ
206771000206771               206771               170213JK     1400+00000+JK0000003069+0000003069+000000000+000000430+0000003499+0000000000+I40000003499+0000000000+Z
206771001206771039-080959     206771006003000048922CANDLE PILLAR BALL 8CM 0000001000+00003069+00000+0001T   00003069+0000001333          1400 DK5510               2AZ
206772000206772               206772               170213JK     1400+00000+JK0000000613+0000000613+000000000+000000086+0000000690+0000000009+I20000000000+0000000690+Z
206772001206772077-000311     206772006001023608666GIFT-BAG 11X14CM GLOSS 0000001000+00000613+00000+0001T   00000613+0000001338          1400 DK5112               2AZ
206773000206773               206773               170213JK     1400+00000+JK0000002630+0000002630+000000000+000000369+0000002990+0000000009+I20000000000+0000002990+Z
206773001206773031-000868-B   206773006001023798565P/FRAME PL BLCK 13X18CM0000001000+00002630+00000+0001T   00002630+0000001344          1400 DK5510               2AZ
206774000206774               206774               170213JK     1400+00000+JK0000010961+0000010961+000000000+000001536+0000012497+0000000000+I40000012497+0000000000+Z
206774001206774018-019000     206774006003000557288MUG OCC. LOVE JUMBO    0000001000+00005262+00000+0001T   00005262+0000001351          1400 DK5515               2AZ
206774002206774030-000030-A   206774006003000249305PLAQUE GLASS LOVE      0000001000+00003069+00000+0001T   00003069+0000001351          1400 DK5505               2AZ
206774003206774077-000270     206774006003000395453GIFT-BAG PPR JMB 33X45 0000001000+00002630+00000+0001T   00002630+0000001351          1400 DK5112               2AZ
206775000206775               206775               170213JK     1400+00000+JK0000002630+0000002630+000000000+000000369+0000002990+0000000009+I20000000000+0000002990+Z
206775001206775162-096646     206775006001492966465#TAG HOT DEALS KIDS HR 0000001000+00002630+00000+0001T   00002630+0000001353          1400 DK5160               2AZ
206776000206776               206776               170213JK     1400+00000+JK0000010572+0000010572+000000000+000001481+0000012053+0000000000+I40000012053+0000000000+Z
206776001206776019-000084     206776006001023797247VASE GLASS GEOMETRIC   0000001000+00006139+00000+0001T   00006139+0000001355          1400 DK5510               2AZ
206776002206776018-030000     206776006003000421060MUG OCCASIONS LOVE 2PCE0000001000+00004385+00000+0001T   00004385+0000001355          1400 DK5515               2AZ
206776003206776112-116069     206776006009681820277TCS CARRIER BAG JUMBO  0000001000+00000048+00000+0001T   00000048+0000001355          1400 DK5090               2AZ
206777000206777               206777               170213JK     1400+00000+JK0000001578+0000001578+000000000+000000221+0000001790+0000000009+I20000000000+0000001790+Z
206777001206777078-013424     206777006008741000338CONTACT-ADHESIVE 50ml  0000001000+00001578+00000+0001T   00001578+0000001356          1400 DK5810               2AZ
206778000206778               206778               170213JK     1400+00000+JK0000008771+0000008771+000000000+000001228+0000009990+0000000009+I20000000000+0000009990+Z
206778001206778466-000593     206778006003000027569SPORT SOCCER-SET       0000001000+00008771+00000+0001T   00008771+0000001356          1400 DK5785               2AZ
206779000206779               206779               170213JK     1400+00000+JK0000005260+0000005260+000000000+000000738+0000005990+0000000008+I20000000000+0000005990+Z
206779001206779080-000133-A   206779006003000647019MINI VALENTINES CARD   0000001000+00000437+00000+0001T   00000437+0000001357          1400 DK5112               2AZ
206779002206779301-085001     206779006003000297610ORN WATERBALL LOVE ASST0000001000+00004823+00000+0001T   00004823+0000001357          1400 DK5505               2AZ
206780000206780               206780               170213JK     1400+00000+JK0000002630+0000002630+000000000+000000369+0000002990+0000000009+I20000000000+0000002990+Z
206780001206780079-000282     206780006001023493309PAINT TUBS POSTER 12COL0000001000+00002630+00000+0001T   00002630+0000001358          1400 DK5130               2AZ
206781000206781               206781               170213JK     1400+00000+JK0000021306+0000021306+000000000+000002984+0000024290+0000000000+I40000024290+0000000000+Z
206781001206781566-001234     206781006003000217793STICKERS LASER ASSTD   0000001000+00001578+00000+0001T   00001578+0000001401          1400 DK5130               2AZ
206781002206781077-000300     206781006001023483249GIFT BOX OCCASIONS HEXG0000009000+00002192+00000+0001T   00002192+0000001401          1400 DK5112               2AZ
206782000206782               206782               170213JK     1400+00000+JK0000001578+0000001578+000000000+000000221+0000001799+0000000000+I40000001799+0000000000+Z
206782001206782018-000127     206782006001023380289MUG OCC STRAIGHT LOVE  0000001000+00001578+00000+0001T   00001753+0006471403          1400 DK5515               2AZ
206783000206783               206783               170213JK     1400+00000+JK0000002628+0000002628+000000000+000000369+0000002997+0000000000+I40000002997+0000000000+Z
206783001206783077-000150-D   206783006003000054343GIFT-WRAP CELLPHANE CLR0000003000+00000876+00000+0001T   00000876+0000001404          1400 DK5112               2AZ
206784000206784               206784               170213JK     1400+00000+JK0000002852+0000002852+000000000+000000401+0000003253+0000000000+I40000003253+0000000000+Z
206784001206784304-001204     206784006001023737984FLOWER OCC. TEDDY/ROSES0000002000+00001402+00000+0001T   00001490+0006471415          1400 DK5510               2AZ
206784002206784112-116069     206784006009681820277TCS CARRIER BAG JUMBO  0000001000+00000048+00000+0001T   00000048+0000001415          1400 DK5090               2AZ
206785000206785               206785               170213JK     1400+00000+JK0000014911+0000014911+000000000+000002088+0000016999+0000000000+I40000016999+0000000000+Z
206785001206785368-000004     206785006003000098378PLUSH UNICORN 30cm     0000001000+00014911+00000+0001T   00014911+0000001421          1400 DK5745               2AZ
206786000206786               206786               170213JK     1400+00000+JK0000009642+0000009642+000000000+000001351+0000010993+0000000000+I40000010993+0000000000+Z
206786001206786072-020297     206786006001023700919PET CAT SCRATCH PAD    0000001000+00004385+00000+0001T   00004385+0000001425          1400 DK5870               2AZ
206786002206786083-000055     206786006003000003853LIGHTER ELCTRNC REFILBL0000001000+00000613+00000+0001T   00000613+0000001425          1400 DK5315               2AZ
206786003206786072-020276     206786006001023858474CAT LITTER-PAN PL      0000001000+00002630+00000+0001T   00002630+0000001425          1400 DK5870               2AZ
206786004206786022-001328     206786006003000667505PLATE ENAMEL 24CM WHITE0000001000+00001314+00000+0001T   00001314+0000001425          1400 DK5305               2AZ
206786005206786564-000012     206786006001023130075BUBBLE BOTTLE MAGIC    0000001000+00000700+00000+0001T   00000700+0000001425          1400 DK5131               2AZ
206787000206787               206787               170213JK     1400+00000+JK0000001753+0000001753+000000000+000000246+0000001990+0000000009+I20000000000+0000001990+Z
206787001206787565-000055     206787006003000028252NOVELTY B/O FINGR-BEAMS0000001000+00001753+00000+0001T   00001753+0000001426          1400 DK5745               2AZ
206788000206788               206788               170213JK     1400+00000+JK0000004385+0000004385+000000000+000000614+0000004990+0000000009+I20000000000+0000004990+Z
206788001206788031-080508     206788006001023802415P/FRAME PL 22X11CM LOVE0000001000+00004385+00000+0001T   00004385+0000001427          1400 DK5510               2AZ
206789000206789               206789               170213JK     1400+00000+JK0000001313+0000001313+000000000+000000184+0000001490+0000000007+I20000000000+0000001490+Z
206789001206789077-000321     206789006001023677501GIFT-BAG 11X14CM E/D FL0000001000+00000613+00000+0001T   00000613+0000001427          1400 DK5112               2AZ
206789002206789362-003012     206789006003000295319JEWELL. GIRL ACCES SET 0000001000+00000700+00000+0001T   00000876+0008181427          1400 DK5160               2AZ
206790000206790               206790               170213JK     1400+00000+JK0000002892+0000002892+000000000+000000405+0000003290+0000000007+I20000000000+0000003290+Z
206790001206790080-000127     206790006003000424351VALENTINES DAY 36x24CM 0000001000+00002192+00000+0001T   00002192+0000001429          1400 DK5112               2AZ
206790002206790903-000126     206790006002099003591SWT ZILLIONS MINT 50G  0000001000+00000700+00000+0001T   00000700+0000001429          1400 DK5150               2AZ
206791000206791               206791               170213JK     1400+00000+JK0000017539+0000017539+000000000+000002457+0000019990+0000000006+I20000000000+0000019990+Z
206791001206791077-000456     206791006003000285549G/BAG METALLIC JMB EMB 0000001000+00002630+00000+0001T   00002630+0000001449          1400 DK5112               2AZ
206791002206791031-000025     206791006003000427185P/FRAME PL MOMMY       0000001000+00003507+00000+0001T   00003507+0000001449          1400 DK5510               2AZ
206791003206791040-000103     206791000694202201862C/HOLDER-SET 5PC W/TRAY0000001000+00011402+00000+0001T   00013157+0008191449          1400 DK5510               2AZ
206792000206792               206792               170213JK     1400+00000+JK0000009691+0000009691+000000000+000001358+0000011040+0000000009+I20000000000+0000011040+Z
206792001206792079-013102     206792006003000019601ART+CRAFT DIY PIPE-CLNR0000001000+00002192+00000+0001T   00002192+0000001451          1400 DK5130               2AZ
206792002206792566-001012     206792006001023528070STICKERS GLOW IN DARK  0000001000+00001314+00000+0001T   00001314+0000001451          1400 DK5130               2AZ
206792003206792566-000367     206792006003000645558STICKER WINDOW DECOR   0000001000+00002630+00000+0001T   00002630+0000001451          1400 DK5130               2AZ
206792004206792079-000600     206792006003000160990ART-SHEETS FOAM ASSTD-C0000001000+00003507+00000+0001T   00003507+0000001451          1400 DK5130               2AZ
206792005206792112-116069     206792006009681820277TCS CARRIER BAG JUMBO  0000001000+00000048+00000+0001T   00000048+0000001451          1400 DK5090               2AZ
206793000206793               206793               170213JK     1400+00000+JK0000003242+0000003242+000000000+000000455+0000003690+0000000007+I20000000000+0000003690+Z
206793001206793080-000127     206793006003000424351VALENTINES DAY 36x24CM 0000001000+00002192+00000+0001T   00002192+0000001453          1400 DK5112               2AZ
206793002206793903-000155     206793006009803374435SWT LOLLY I LUV U HEART0000002000+00000525+00000+0001T   00000525+0000001453          1400 DK5150               2AZ
206794000206794               206794               170213JK     1400+00000+JK0000014462+0000014462+000000000+000002029+0000016491+0000000000+I40000016491+0000000000+Z
206794001206794034-000329     206794006001023564290BOTTLE-BRUSHES WHT 2PCE0000001000+00001314+00000+0001T   00001314+0000001456          1400 DK5215               2AZ
206794002206794251-000052     206794006001023627933PROTECT-PAD FELT 16PCE 0000002000+00001753+00000+0001T   00001753+0000001456          1400 DK5810               2AZ
206794003206794251-000071     206794006003000451890PROTECTION-PADS BLK ADH0000001000+00001753+00000+0001T   00001753+0000001456          1400 DK5810               2AZ
206794004206794251-000073     206794006003000452132PROTECTION-PADS BLK ADH0000001000+00001753+00000+0001T   00001753+0000001456          1400 DK5810               2AZ
206794005206794251-000074     206794006003000452255PROTECTION-PADS BLK ADH0000001000+00001753+00000+0001T   00001753+0000001456          1400 DK5810               2AZ
206794006206794027-000420     206794006001023435873SCRUB-BRUSH 15x5x10cm  0000001000+00002630+00000+0001T   00002630+0000001456          1400 DK5212               2AZ
206794007206794133-000016     206794006003000240609DUSTERS ORANGE PACK-3  0000001000+00001753+00000+0001T   00001753+0000001456          1400 DK5212               2AZ
206795000206795               206795               170213JK     1400+00000+JK0000003507+0000003507+000000000+000000491+0000003990+0000000008+I20000000000+0000003990+Z
206795001206795018-000136     206795006001023659026MUG OCC LOVE W/PLUSH   0000001000+00003507+00000+0001T   00003507+0000001459          1400 DK5515               2AZ
206796000206796               206796               170213JK     1400+00000+JK0000004512+0000004512+000000000+000000633+0000005140+0000000005+I20000000000+0000005140+Z
206796001206796028-000799     206796006001023812186SKEWERS BAMBOO 100PCE  0000001000+00001578+00000+0001T   00001578+0000001501          1400 DK5305               2AZ
206796002206796077-000150-D   206796006003000054343GIFT-WRAP CELLPHANE CLR0000002000+00000876+00000+0001T   00000876+0000001501          1400 DK5112               2AZ
206796003206796077-000151     206796006008766114676GIFT-WRAP C/PHANE ASSTD0000001000+00000876+00000+0001T   00000876+0000001501          1400 DK5112               2AZ
206796004206796079-009700-B   206796006003000547661PAPER SIRIO A4 WHITE   0000001000+00000306+00000+0001T   00000306+0000001501          1400 DK5130               2AZ
206797000206797               206797               170213JK     1400+00000+JK0000003506+0000003506+000000000+000000492+0000003998+0000000000+I40000003998+0000000000+Z
206797001206797080-000103     206797006003000236961CARD&ENVLOPE BDAY-MALE 0000001000+00001753+00000+0001T   00001753+0000001503          1400 DK5112               2AZ
206797002206797903-000211     206797006002099001238SWT GS MALLOW ICE CREAM0000001000+00001753+00000+0001T   00001753+0000001503          1400 DK5150               2AZ
206798000206798               206798               170213JK     1400+00000+JK0000008770+0000008770+000000000+000001228+0000009998+0000000000+I40000009998+0000000000+Z
206798001206798079-000261     206798006003000159727PAINT WATER COLOUR CAKE0000001000+00004385+00000+0001T   00004385+0000001512          1400 DK5130               2AZ
206798002206798079-013052     206798000795229385143CHALK S/WALK 15PCS ASST0000001000+00004385+00000+0001T   00004385+0000001512          1400 DK5130               2AZ
206799000206799               206799               170213JK     1400+00000+JK0000004385+0000004385+000000000+000000614+0000004999+0000000000+I40000004999+0000000000+Z
206799001206799004-010013     206799006001023667717HOLDER DISC 24 DIVISION0000001000+00004385+00000+0001T   00004385+0000001515          1400 DK5310               2CZ
206800000206800               206800               170213JK     1400+00000+JK0000001402+0000001402+000000000+000000197+0000001590+0000000009+I20000000000+0000001590+Z
206800001206800105-001005     206800006001023858214CONTAINERS MINI 6PCE   0000001000+00001402+00000+0001T   00001402+0000001516          1400 DK5210               2AZ
206801000206801               206801               170213JK     1400+00000+JK0000001490+0000001490+000000000+000000209+0000001690+0000000009+I20000000000+0000001690+Z
206801001206801565-004101     206801006003000548033BALL BOUNCING EGG      0000001000+00001490+00000+0001T   00001490+0000001516          1400 DK5745               2AZ
206802000206802               206802               170213JK     1400+00000+JK0000004558+0000004558+000000000+000000639+0000005190+0000000007+I20000000000+0000005190+Z
206802001206802077-000315     206802006003000181186GIFT-BAG 20x28cm MATT  0000001000+00001578+00000+0001T   00001578+0000001520          1400 DK5112               2AZ
206802002206802077-000452     206802006003000284986G/BAG METALLIC MED EMB 0000001000+00001490+00000+0001T   00001490+0000001520          1400 DK5112               2AZ
206802003206802565-004101     206802006003000548033BALL BOUNCING EGG      0000001000+00001490+00000+0001T   00001490+0000001520          1400 DK5745               2AZ
206803000206803               206803               170213JK     1400+00000+JK0000001753+0000001753+000000000+000000246+0000001990+0000000009+I20000000000+0000001990+Z
206803001206803077-000381     206803006003000247707GIFT-BAG 25X32CM S/COL 0000001000+00001753+00000+0001T   00001753+0000001521          1400 DK5112               2AZ
206804000206804               206804               170213JK     1400+00000+JK0000001753+0000001753+000000000+000000246+0000001990+0000000009+I20000000000+0000001990+Z
206804001206804071-010481     206804006001023417220MAGNIFYING-GLASS 90mm-D0000001000+00001753+00000+0001T   00001753+0000001523          1400 DK5130               2AZ
206805000206805               206805               170213JK     1400+00000+JK0000003506+0000003506+000000000+000000491+0000003990+0000000007+I20000000000+0000003990+Z
206805001206805301-006010     206805006001023861245ORN BEAR POLY W/JERSEY 0000001000+00002192+00000+0001T   00002192+0000001524          1400 DK5505               2AZ
206805002206805046-000012     206805006904708013062BATTERIES AA  CARD-OF-40000001000+00001314+00000+0001T   00001314+0000001524          1400 DK5312               2AZ
206806000206806               206806               170213JK     1400+00000+JK0000015472+0000015472+000000000+000002167+0000017639+0000000000+I40000017639+0000000000+Z
206806001206806077-000116     206806006003000240777GIFT-WRAP 700mmx2m COL 0000001000+00001753+00000+0001T   00001753+0000001527          1400 DK5112               2AZ
206806002206806031-007010     206806006003000467945P/FRAME WDN CERTIFICATE0000001000+00008771+00000+0001T   00008771+0000001527          1400 DK5510               2AZ
206806003206806903-000159     206806006003000417629SWT LB SMALL DUMMIE    0000014000+00000350+00000+0001T   00000350+0000001527          1400 DK5150               2AZ
206806004206806112-116069     206806006009681820277TCS CARRIER BAG JUMBO  0000001000+00000048+00000+0001T   00000048+0000001527          1400 DK5090               2AZ
206807000206807               206807               170213JK     1400+00000+JK0000003068+0000003068+000000000+000000430+0000003490+0000000008+I20000000000+0000003490+Z
206807001206807903-000481     206807006001704007481SWT MOO MILK-SHAKES 60G0000001000+00000876+00000+0001T   00000876+0000001527          1400 DK5150               2AZ
206807002206807071-001017     206807006001023892676MARKER DVD FINE+MED 3PC0000001000+00002192+00000+0001T   00002192+0000001527          1400 DK5130               2AZ
206808000206808               206808               170213JK     1400+00000+JK0000010246+0000010246+000000000+000001440+0000011686+0000000000+I40000011686+0000000000+Z
206808001206808304-001011     206808006001023806727FLWR ROSE RED W/BEAR   0000001000+00000613+00000+0001T   00000788+0006471529          1400 DK5510               2AZ
206808002206808007-000058     206808006003000589777A3 DESIGN PORTFOLIO    0000001000+00003507+00000+0001T   00004385+0008141529          1400 DK5130               2AZ
206808003206808903-000841     206808009243178623706SWT CANDY TIPSEE FRUIT 0000001000+00000876+00000+0001T   00000876+0000001529          1400 DK5150               2AZ
206808004206808903-000155     206808006009803374435SWT LOLLY I LUV U HEART0000010000+00000525+00000+0001T   00000525+0000001529          1400 DK5150               2AZ
206809000206809               206809               170213JK     1400+00000+JK0000011011+0000011011+000000000+000001542+0000012550+0000000003+I20000000000+0000012550+Z
206809001206809071-001017     206809006001023892676MARKER DVD FINE+MED 3PC0000001000+00002192+00000+0001T   00002192+0000001530          1400 DK5130               2AZ
206809002206809112-116069     206809006009681820277TCS CARRIER BAG JUMBO  0000001000+00000048+00000+0001T   00000048+0000001530          1400 DK5090               2AZ
206809003206809001-091415     206809006003000329113W/GLS OCC. LOVE 2PC 2800000001000+00008771+00000+0001T   00009648+0006471530          1400 DK5515               2AZ
206810000206810               206810               170213JK     1400+00000+JK0000007541+0000007541+000000000+000001056+0000008597+0000000000+I40000008597+0000000000+Z
206810001206810031-000874-B   206810006001023798831P/FRAME WDN P/BOX 13X180000001000+00004385+00000+0001T   00004385+0000001535          1400 DK5510               2AZ
206810002206810077-000303     206810006001023593757GIFT-BAG PAPER MED     0000001000+00001578+00000+0001T   00001578+0000001535          1400 DK5112               2AZ
206810003206810080-000124     206810006003000297733CARD & ENV VALENTINES  0000001000+00001578+00000+0001T   00001578+0000001535          1400 DK5112               2AZ
206811000206811               206811               170213JK     1400+00000+JK0000003154+0000003154+000000000+000000443+0000003597+0000000000+I40000003597+0000000000+Z
206811001206811903-000057     206811006005929000173SWT GS NOVELTY GIANT AL0000001000+00002104+00000+0001T   00002104+0000001538          1400 DK5150               2AZ
206811002206811903-000077     206811006939873501687SWT GS MAGIC ROCK FRUIT0000002000+00000525+00000+0001T   00000525+0000001538          1400 DK5150               2AZ
206812000206812               206812               170213JK     1400+00000+JK0000008769+0000008769+000000000+000001229+0000009990+0000000008+I20000000000+0000009990+Z
206812001206812562-000070     206812006003000600748EDU PLAY DOUGH 50g 8pc 0000001000+00007016+00000+0001T   00007016+0000001542          1400 DK5755               2AZ
206812002206812047-000508     206812006009636901983PLG EURODAPTOR 3x5A-2PN0000001000+00001753+00000+0001T   00001753+0000001542          1400 DK5880               2AZ
206813000206813               206813               170213JK     1400+00000+JK0000006444+0000006444+000000000+000000905+0000007340+0000000009+I20000000000+0000007340+Z
206813001206813264-000921     206813000090159150442MAISTO CAR 3" FRESH    0000001000+00001753+00000+0001T   00001753+0000001543          1400 DK5710               2AZ
206813002206813304-001011     206813006001023806727FLWR ROSE RED W/BEAR   0000002000+00000613+00000+0001T   00000788+0006471543          1400 DK5510               2AZ
206813003206813903-000087     206813006001704000161SWT SPECKLED-EGGS 50G  0000003000+00001139+00000+0001T   00001139+0000001543          1400 DK5150               2AZ
206813004206813112-116069     206813006009681820277TCS CARRIER BAG JUMBO  0000001000+00000048+00000+0001T   00000048+0000001543          1400 DK5090               2AZ
206814000206814               206814               170213JK     1400+00000+JK0000028888+0000028888+000000000+000004046+0000032930+0000000004+I20000000000+0000032930+Z
206814001206814112-116069     206814006009681820277TCS CARRIER BAG JUMBO  0000001000+00000048+00000+0001T   00000048+0000001550          1400 DK5090               2AZ
206814002206814304-001011     206814006001023806727FLWR ROSE RED W/BEAR   0000007000+00000613+00000+0001T   00000788+0006471550          1400 DK5510               2AZ
206814003206814018-005009     206814006001023725608MUG W/PLUSH-BEAR LOVE  0000007000+00003507+00000+0001T   00003507+0000001550          1400 DK5515               2AZ
206815000206815               206815               170213JK     1400+00000+JK0000009322+0000009322+000000000+000001309+0000010631+0000000000+I40000010631+0000000000+Z
206815001206815089-000501     206815006003000622900KEY CHAIN LIGHT LASER  0000001000+00002192+00000+0001T   00002192+0000001555          1400 DK5205               2AZ
206815002206815056-005752     206815006003000491674CAR AIR-FRESH FISH ASST0000001000+00001753+00000+0001T   00001753+0000001555          1400 DK5860               2AZ
206815003206815046-000012-A   206815006003000208296BATTERIES H/POWER SZ:AA0000001000+00002192+00000+0001T   00002192+0000001555          1400 DK5312               2AZ
206815004206815903-000077     206815006939873501687SWT GS MAGIC ROCK FRUIT0000006000+00000525+00000+0001T   00000525+0000001555          1400 DK5150               2AZ
206815005206815112-116038     206815006009681820246TCS CARRIER BAG MIDI   0000001000+00000035+00000+0001T   00000035+0000001555          1400 DK5090               2AZ
206816000206816               206816               170213JK     1400+00000+JK0000014118+0000014118+000000000+000001978+0000016090+0000000006+I20000000000+0000016090+Z
206816001206816368-000012     206816006003000610464PLUSH BEAR 30cm SITTING0000001000+00008771+00000+0001T   00008771+0000001559          1400 DK5745               2AZ
206816002206816903-000155     206816006009803374435SWT LOLLY I LUV U HEART0000001000+00000525+00000+0001T   00000525+0000001559          1400 DK5150               2AZ
206816003206816030-000031-A   206816006003000457588PLAQUE W/WORDS ASSTD   0000001000+00004385+00000+0001T   00004823+0006471559          1400 DK5505               2AZ
206816004206816080-000133-A   206816006003000647019MINI VALENTINES CARD   0000001000+00000437+00000+0001T   00000437+0000001559          1400 DK5112               2AZ
206817000206817               206817               170213JK     1400+00000+JK0000006625+0000006625+000000000+000000928+0000007553+0000000000+I40000007553+0000000000+Z
206817001206817001-000175     206817006001023788108B/MUG GLS LOVE 380ML   0000001000+00004385+00000+0001T   00004385+0000001604          1400 DK5515               2AZ
206817002206817080-000127     206817006003000424351VALENTINES DAY 36x24CM 0000001000+00002192+00000+0001T   00002192+0000001604          1400 DK5112               2AZ
206817003206817112-116069     206817006009681820277TCS CARRIER BAG JUMBO  0000001000+00000048+00000+0001T   00000048+0000001604          1400 DK5090               2AZ
206818000206818               206818               170213JK     1400+00000+JK0000006096+0000006096+000000000+000000854+0000006950+0000000000+I40000006950+0000000000+Z
206818001206818903-004950     206818006002580020304SWT APRICOT SURPRISE   0000001000+00001314+00000+0001T   00001314+0000001607          1400 DK5150               2AZ
206818002206818018-000127     206818006001023380289MUG OCC STRAIGHT LOVE  0000003000+00001578+00000+0001T   00001753+0006471607          1400 DK5515               2AZ
206818003206818112-116069     206818006009681820277TCS CARRIER BAG JUMBO  0000001000+00000048+00000+0001T   00000048+0000001607          1400 DK5090               2AZ
206819000206819               206819               170213JK     1400+00000+JK0000001753+0000001753+000000000+000000246+0000001990+0000000009+I20000000000+0000001990+Z
206819001206819078-000026     206819006936198407090SUPERGLUE 3,0g GEL     0000001000+00001753+00000+0001T   00001753+0000001607          1400 DK5810               2AZ
206820000206820               206820               170213JK     1400+00000+JK0000003331+0000003331+000000000+000000467+0000003798+0000000000+I40000003798+0000000000+Z
206820001206820084-006995     206820006003000092802NAIL CLIPPER 8cm TOE   0000001000+00001753+00000+0001T   00001753+0000001608          1400 DK5200               2AZ
206820002206820083-000054     206820006001023729071LIGHTER REFILLABLE LED 0000001000+00001578+00000+0001T   00001578+0000001608          1400 DK5315               2AZ
206821000206821               206821               170213JK     1400+00000+JK0000014072+0000014072+000000000+000001975+0000016040+0000000007+I20000000000+0000016040+Z
206821001206821080-000101     206821006003000236732CARD&ENVLPE FEMALE     0000001000+00001753+00000+0001T   00001753+0000001609          1400 DK5112               2AZ
206821002206821080-000100     206821006003000236114CARD & ENVELOPE BDAY   0000001000+00001753+00000+0001T   00001753+0000001609          1400 DK5112               2AZ
206821003206821080-000111     206821006003000252695CARD&ENVELPE - MUSICAL 0000001000+00001753+00000+0001T   00001753+0000001609          1400 DK5112               2AZ
206821004206821080-000100     206821006003000236114CARD & ENVELOPE BDAY   0000001000+00001753+00000+0001T   00001753+0000001609          1400 DK5112               2AZ
206821005206821080-000101     206821006003000236732CARD&ENVLPE FEMALE     0000001000+00001753+00000+0001T   00001753+0000001609          1400 DK5112               2AZ
206821006206821077-000382     206821006003000247820GIFT-BAG MED 18X23CM   0000001000+00001753+00000+0001T   00001753+0000001609          1400 DK5112               2AZ
206821007206821077-000455     206821006003000285389G/BAG METALLIC LRG SOL 0000002000+00001753+00000+0001T   00001753+0000001609          1400 DK5112               2AZ
206821008206821112-116069     206821006009681820277TCS CARRIER BAG JUMBO  0000001000+00000048+00000+0001T   00000048+0000001609          1400 DK5090               2AZ
206822000206822               206822               170213JK     1400+00000+JK0000011970+0000011970+000000000+000001679+0000013649+0000000000+I40000013649+0000000000+Z
206822001206822018-019000     206822006003000557288MUG OCC. LOVE JUMBO    0000001000+00005262+00000+0001T   00005262+0000001612          1400 DK5515               2AZ
206822002206822304-001204     206822006001023737984FLOWER OCC. TEDDY/ROSES0000003000+00001402+00000+0001T   00001490+0006471612          1400 DK5510               2AZ
206822003206822112-116069     206822006009681820277TCS CARRIER BAG JUMBO  0000001000+00000048+00000+0001T   00000048+0000001612          1400 DK5090               2AZ
206822004206822903-004951     206822006002580020328SWT MALLOW MINI M/SHAKE0000002000+00001227+00000+0001T   00001227+0000001612          1400 DK5150               2AZ
206823000206823               206823               170213JK     1400+00000+JK0000010850+0000010850+000000000+000001521+0000012370+0000000001+I20000000000+0000012370+Z
206823001206823006-000190     206823006003000685530BALLOONS LOVE 81x91cm  0000001000+00004385+00000+0001T   00004385+0000001619          1400 DK5131               2AZ
206823002206823080-000127     206823006003000424351VALENTINES DAY 36x24CM 0000001000-00002192+00000+0001T   00002192+0000001619          1400 DK51122IC            2 Z
206823003206823080-000127     206823006003000424351VALENTINES DAY 36x24CM 0000001000+00002192+00000+0001T   00002192+0000001619          1400 DK51122IC            2AZ
206823004206823006-001000-NA  206823006003000714087HELIUM BALLOON FILL    0000001000+00000725+00000+0001T   00000725+0000001619          1400 DK5131               2AZ
206823005206823050-000880-Z   206823006003000528110PADLOCK COMBO BRS 4 WHL0000001000+00004385+00000+0001T   00004385+0000001619          1400 DK5855               2AZ
206823006206823080-000133-A   206823006003000647019MINI VALENTINES CARD   0000001000+00000437+00000+0001T   00000437+0000001619          1400 DK5112               2AZ
206823007206823079-009700-D   206823006003000545711PAPER SIRIO A4 RED COL.0000003000+00000306+00000+0001T   00000306+0000001619          1400 DK5130               2AZ
206824000206824               206824               170213JK     1400+00000+JK0000001753+0000001753+000000000+000000246+0000001990+0000000009+I20000000000+0000001990+Z
206824001206824007-000043     206824006009635831496DISPLAY-BOOK PL A4 20PG0000001000+00001753+00000+0001T   00001753+0000001620          1400 DK5130               2AZ
206825000206825               206825               170213JK     1400+00000+JK0000005873+0000005873+000000000+000000824+0000006690+0000000007+I20000000000+0000006690+Z
206825001206825079-013099     206825006003000081875ART+CRAFT EYES ASSTD   0000001000+00001753+00000+0001T   00001753+0000001622          1400 DK5130               2AZ
206825002206825079-014152     206825006003000253074ART+CRAFT PK50 ASSTD   0000001000+00003069+00000+0001T   00003069+0000001622          1400 DK5130               2AZ
206825003206825079-009702-D   206825008427973059354PAPER SIRIO A2 RED COL 0000001000+00001051+00000+0001T   00001051+0000001622          1400 DK5130               2AZ
206826000206826               206826               170213JK     1400+00000+JK0000002630+0000002630+000000000+000000369+0000002999+0000000000+I40000002999+0000000000+Z
206826001206826033-000001     206826006003000344321TINTING BOWL & BRUSHES 0000001000+00002630+00000+0001T   00002630+0000001623          1400 DK5200               2AZ
206827000206827               206827               170213JK     1400+00000+JK0000009424+0000009424+000000000+000001323+0000010747+0000000000+I40000010747+0000000000+Z
206827001206827112-116069     206827006009681820277TCS CARRIER BAG JUMBO  0000001000+00000048+00000+0001T   00000048+0000001637          1400 DK5090               2AZ
206827002206827077-000239     206827006003000160419GIFT-RIBBON ROLL PEARL 0000001000+00001753+00000+0001T   00001753+0000001637          1400 DK5112               2AZ
206827003206827077-000011-C   206827006001023808523TISSUE 10xSHTS RED     0000001000+00000876+00000+0001T   00000876+0000001637          1400 DK5112               2AZ
206827004206827077-000011-D   206827006001023808554TISSUE-WRAP WHITE 10PCE0000001000+00000876+00000+0001T   00000876+0000001637          1400 DK5112               2AZ
206827005206827077-000010-D   206827006001023123886CREPE-PAPER WHITE      0000001000+00000788+00000+0001T   00000788+0000001637          1400 DK5112               2AZ
206827006206827071-005213     206827006001023690371CELLOTAPE 12mmx33m     0000001000+00000876+00000+0001T   00000876+0000001637          1400 DK5130               2AZ
206827007206827089-000027     206827006003000254071KEY CHAIN MOM/DAD ASSTD0000001000+00001753+00000+0001T   00001753+0000001637          1400 DK5205               2AZ
206827008206827903-000517     206827006001704012768SWT STRAWS FIZZY CHERRY0000001000+00001227+00000+0001T   00001227+0000001637          1400 DK5150               2AZ
206827009206827903-000519     206827006001704012805SWT MS LIQ-O-GHETTI    0000001000+00001227+00000+0001T   00001227+0000001637          1400 DK5150               2AZ
206828000206828               206828               170213JK     1400+00000+JK0000010430+0000010430+000000000+000001463+0000011893+0000000000+I40000011893+0000000000+Z
206828001206828071-001002     206828006003000217540PENCIL-SHARPNER DOUBLE 0000001000+00001578+00000+0001T   00001578+0000001647          1400 DK5130               2AZ
206828002206828079-009702-D   206828008427973059354PAPER SIRIO A2 RED COL 0000003000+00001051+00000+0001T   00001051+0000001647          1400 DK5130               2AZ
206828003206828566-000068     206828006003000418046POP UP LOVE 2 ASSTD    0000001000+00002192+00000+0001T   00002192+0000001647          1400 DK5130               2AZ
206828004206828007-000325     206828006009698066514PAPER A4 160GSM 25SHTS 0000001000+00003507+00000+0001T   00003507+0000001647          1400 DK5130               2AZ
206829000206829               206829               170213JK     1400+00000+JK0000005110+0000005110+000000000+000000716+0000005826+0000000000+I40000005826+0000000000+Z
206829001206829006-000190     206829006003000685530BALLOONS LOVE 81x91cm  0000001000+00004385+00000+0001T   00004385+0000001653          1400 DK5131               2AZ
206829002206829006-001000-NA  206829006003000714087HELIUM BALLOON FILL    0000001000+00000725+00000+0001T   00000725+0000001653          1400 DK5131               2AZ
206830000206830               206830               170213JK     1400+00000+JK0000051792+0000051792+000000000+000007254+0000059046+0000000000+I40000059046+0000000000+Z
206830001206830112-116069     206830006009681820277TCS CARRIER BAG JUMBO  0000001000+00000048+00000+0001T   00000048+0000001658          1400 DK5090               2AZ
206830002206830301-085008     206830006003000673933ORN OCC.LOVE TINSEL HRT0000001000+00003069+00000+0001T   00003069+0000001658          1400 DK5505               2AZ
206830003206830567-075700     206830006003000339389BOOK NOVEL 3-PACK ASSTD0000001000+00013157+00000+0001T   00013157+0000001658          1400 DK5757               2AZ
206830004206830203-007000     206830006001023886040SHOT-GLASS DISPOSABLE  0000001000+00003507+00000+0001T   00003507+0000001658          1400 DK5300               2AZ
206830005206830036-000014     206830006001246500822LINT REMOVER 40x SHEET 0000001000+00003946+00000+0001T   00003946+0000001658          1400 DK5212               2AZ
206830006206830030-004015     206830006003000467624PLAQUE WDN SIGN 30X20CM0000001000+00009648+00000+0001T   00009648+0000001658          1400 DK5505               2AZ
206830007206830030-000031-A   206830006003000457588PLAQUE W/WORDS ASSTD   0000001000+00004385+00000+0001T   00004823+0006471658          1400 DK5505               2AZ
206830008206830301-085007     206830006003000673698ORN OCC. LOVE S/PLAQUE 0000001000+00007893+00000+0001T   00007893+0000001658          1400 DK5505               2AZ
206830009206830567-075470     206830006003000643264BK NOVEL CATEGORY B    0000001000+00006139+00000+0001T   00006139+0000001658          1400 DK5757               2AZ
206831000206831               206831               170213JK     1400+00000+JK0000003542+0000003542+000000000+000000496+0000004038+0000000000+I40000004038+0000000000+Z
206831001206831018-000136     206831006001023659026MUG OCC LOVE W/PLUSH   0000001000+00003507+00000+0001T   00003507+0000001700          1400 DK5515               2AZ
206831002206831112-116038     206831006009681820246TCS CARRIER BAG MIDI   0000001000+00000035+00000+0001T   00000035+0000001700          1400 DK5090               2AZ
206832000206832               206832               170213JK     1400+00000+JK0000022803+0000022803+000000000+000003193+0000025996+0000000000+I40000025996+0000000000+Z
206832001206832403-000032     206832006003000514731J/HOLDER HEART-SHAPE   0000001000+00017542+00000+0001T   00017542+0000001702          1400 DK5510               2AZ
206832002206832080-000127     206832006003000424351VALENTINES DAY 36x24CM 0000001000+00002192+00000+0001T   00002192+0000001702          1400 DK5112               2AZ
206832003206832072-020311     206832006003000494132PET DOG TOY VINYL BALL 0000001000+00003069+00000+0001T   00003069+0000001702          1400 DK5870               2AZ
206833000206833               206833               170213JK     1400+00000+JK0000005260+0000005260+000000000+000000738+0000005998+0000000000+I40000005998+0000000000+Z
206833001206833106-001125     206833006003000666270WATER BOTTLE 600ml     0000001000+00002630+00000+0001T   00002630+0000001703          1400 DK5210               2AZ
206833002206833018-000129     206833006001023403353MUG OCC. LOVE V-SHAPE  0000001000+00002630+00000+0001T   00002630+0000001703          1400 DK5515               2AZ
206834000206834               206834               170213JK     1400+00000+JK0000005040+0000005040+000000000+000000708+0000005740+0000000008+I20000000000+0000005740+Z
206834001206834018-000119     206834006003000336074MUG DAILY STRAIGHT     0000001000+00001314+00000+0001T   00001753+0008171708          1400 DK5515               2AZ
206834002206834018-000108     206834006001023380265MUG NOVELTY ICON ASST  0000001000+00001753+00000+0001T   00001753+0000001708          1400 DK5515               2AZ
206834003206834112-116069     206834006009681820277TCS CARRIER BAG JUMBO  0000001000+00000048+00000+0001T   00000048+0000001708          1400 DK5090               2AZ
206834004206834903-000077     206834006939873501687SWT GS MAGIC ROCK FRUIT0000001000+00000525+00000+0001T   00000525+0000001708          1400 DK5150               2AZ
206834005206834903-000099     206834006923431501646SWT CANDY GS WTCH B/LET0000001000+00000262+00000+0001T   00000262+0000001708          1400 DK5150               2AZ
206834006206834903-000483     206834006001704001410SWT LIQUOR SML SORT 60G0000001000+00000876+00000+0001T   00000876+0000001708          1400 DK5150               2AZ
206834007206834903-000216     206834006925925900966SWT MALLOW TWIST ERKO  0000001000+00000262+00000+0001T   00000262+0000001708          1400 DK5150               2AZ
206835000206835               206835               170213JK     1400+00000+JK0000015744+0000015744+000000000+000002205+0000017949+0000000000+I40000017949+0000000000+Z
206835001206835112-116069     206835006009681820277TCS CARRIER BAG JUMBO  0000001000+00000048+00000+0001T   00000048+0000001711          1400 DK5090               2CZ
206835002206835133-000017     206835006003000525171CLEANING-CLOTHS 5PCE   0000001000+00003507+00000+0001T   00003507+0000001711          1400 DK5212               2CZ
206835003206835027-000082     206835006001023760258SCOURERS ROUND   PACK-60000001000+00001227+00000+0001T   00001227+0000001711          1400 DK5212               2CZ
206835004206835159-000801     206835006001023999832BATHMAT 36x59cm ASST   0000001000+00005700+00000+0001T   00005700+0000001711          1400 DK5200               2CZ
206835005206835105-007805     206835006002923018920STORAGE BOX CLEAR 9.5L 0000001000+00005262+00000+0001T   00005262+0000001711          1400 DK5210               2CZ
206836000206836               206836               170213JK     1400+00000+JK0000002630+0000002630+000000000+000000369+0000002999+0000000000+I40000002999+0000000000+Z
206836001206836077-000456     206836006003000285549G/BAG METALLIC JMB EMB 0000001000+00002630+00000+0001T   00002630+0000001712          1400 DK5112               2AZ
206837000206837               206837               170213JK     1400+00000+JK0000004383+0000004383+000000000+000000615+0000004990+0000000008+I20000000000+0000004990+Z
206837001206837200-003021     206837006003000276370REFUSE BAGS 30xSCENTED 0000001000+00002630+00000+0001T   00002630+0000001714          1400 DK5214               2AZ
206837002206837007-000724     206837006003000225958NOTE MAGNETIC 60SHTS   0000001000+00001753+00000+0001T   00001753+0000001714          1400 DK5130               2AZ
206838000206838               206838               170213JK     1400+00000+JK0000001753+0000001753+000000000+000000246+0000001990+0000000009+I20000000000+0000001990+Z
206838001206838071-000006     206838006001023732613PENCIL REFILLABLE 6PK  0000001000+00001753+00000+0001T   00001753+0000001719          1400 DK5130               2AZ
206839000206839               206839               170213JK     1400+00000+JK0000008199+0000008199+000000000+000001151+0000009350+0000000000+I40000009350+0000000000+Z
206839001206839027-078282     206839006001023767837SCOURER 25g SPIRAL-BALL0000001000+00000613+00000+0001T   00000613+0000001736          1400 DK5212               2AZ
206839002206839024-000002     206839006001023741899S/BURNER-COVER SILV/BLK0000001000+00003946+00000+0001T   00004385+0008191736          1400 DK5300               2AZ
206839003206839089-000033     206839006003000621217KEY CHAIN MOM POLY ASST0000001000+00001753+00000+0001T   00002630+0008121736          1400 DK5205               2AZ
206839004206839080-000133-A   206839006003000647019MINI VALENTINES CARD   0000001000+00000437+00000+0001T   00000437+0000001736          1400 DK5112               2AZ
206839005206839304-001204     206839006001023737984FLOWER OCC. TEDDY/ROSES0000001000+00001402+00000+0001T   00001490+0006471736          1400 DK5510               2AZ
206839006206839112-116069     206839006009681820277TCS CARRIER BAG JUMBO  0000001000+00000048+00000+0001T   00000048+0000001736          1400 DK5090               2AZ
206840000206840               206840               170213JK     1400+00000+JK0000003507+0000003507+000000000+000000491+0000003990+0000000008+I20000000000+0000003990+Z
206840001206840562-000052     206840006003000112333EDU EXCAVATION DIAMOND 0000001000+00003507+00000+0001T   00003507+0000001741          1400 DK5755               2CZ
206841000206841               206841               170213JK     1400+00000+JK0000003155+0000003155+000000000+000000443+0000003598+0000000000+I40000003598+0000000000+Z
206841001206841903-000926     206841006914204004556SWT NOVELTY ST N/LACE  0000001000+00001753+00000+0001T   00001753+0000001743          1400 DK5150               2AZ
206841002206841903-000925     206841006009706300296SWT NOVELTY SURPRISE   0000001000+00001402+00000+0001T   00001402+0000001743          1400 DK5150               2AZ
206842000206842               206842               170213JK     1400+00000+JK0000002192+0000002192+000000000+000000307+0000002499+0000000000+I40000002499+0000000000+Z
206842001206842080-000127     206842006003000424351VALENTINES DAY 36x24CM 0000001000+00002192+00000+0001T   00002192+0000001745          1400 DK5112               2AZ
206843000206843               206843               170213JK     1400+00000+JK0000001753+0000001753+000000000+000000246+0000001999+0000000000+I40000001999+0000000000+Z
206843001206843251-000070     206843006003000451777PROTECTION-PADS BLK ADH0000001000+00001753+00000+0001T   00001753+0000001747          1400 DK5810               2AZ
206844000206844               206844               170213JK     1400+00000+JK0000003155+0000003155+000000000+000000443+0000003598+0000000000+I40000003598+0000000000+Z
206844001206844077-000309     206844006001023608604GIFT-BAG 25X32CM GLOSS 0000001000+00001753+00000+0001T   00001753+0000001748          1400 DK5112               2AZ
206844002206844304-001204     206844006001023737984FLOWER OCC. TEDDY/ROSES0000001000+00001402+00000+0001T   00001490+0006471748          1400 DK5510               2AZ
206845000206845               206845               170213JK     1400+00000+JK0000007927+0000007927+000000000+000001110+0000009037+0000000000+I40000009037+0000000000+Z
206845001206845018-005009     206845006001023725608MUG W/PLUSH-BEAR LOVE  0000001000+00003507+00000+0001T   00003507+0000001750          1400 DK5515               2AZ
206845002206845018-030000     206845006003000421060MUG OCCASIONS LOVE 2PCE0000001000+00004385+00000+0001T   00004385+0000001750          1400 DK5515               2AZ
206845003206845112-116038     206845006009681820246TCS CARRIER BAG MIDI   0000001000+00000035+00000+0001T   00000035+0000001750          1400 DK5090               2AZ
206846000206846               206846               170213JK     1400+00000+JK0000005871+0000005871+000000000+000000824+0000006695+0000000000+I40000006695+0000000000+Z
206846001206846077-000303     206846006001023593757GIFT-BAG PAPER MED     0000001000+00001578+00000+0001T   00001578+0000001752          1400 DK5112               2AZ
206846002206846071-081091     206846006001151010287STAED/GENKEM ALL-STICK 0000001000+00001227+00000+0001T   00001227+0000001752          1400 DK5130               2AZ
206846003206846080-000133-A   206846006003000647019MINI VALENTINES CARD   0000001000+00000437+00000+0001T   00000437+0000001752          1400 DK5112               2AZ
206846004206846071-001012     206846006001023474445MARKERS BLACK ROUND    0000001000+00000876+00000+0001T   00000876+0000001752          1400 DK5130               2AZ
206846005206846007-000029     206846006003000577736PRICE FLASH 17x11cm    0000001000+00001753+00000+0001T   00001753+0000001752          1400 DK5130               2AZ
206847000206847               206847               170213JK     1400+00000+JK0000001753+0000001753+000000000+000000246+0000001990+0000000009+I20000000000+0000001990+Z
206847001206847007-000205     206847006002324000432FILE BINDER 2-RING A4  0000001000+00001753+00000+0001T   00001753+0000001752          1400 DK5130               2AZ
206848000206848               206848               170213JK     1400+00000+JK0000002889+0000002889+000000000+000000406+0000003295+0000000000+I40000003295+0000000000+Z
206848001206848903-000920     206848000041396002155SWT CANDY STICK/TATT   0000001000+00000700+00000+0001T   00000700+0000001754          1400 DK5150               2AZ
206848002206848077-000011-F   206848006001023808431TISSUE-WRAP BLUE/LILAC 0000001000+00000876+00000+0001T   00000876+0000001754          1400 DK5112               2AZ
206848003206848903-000885     206848008690997017147SWT L/BIRD CHOC BISCUIT0000001000+00000437+00000+0001T   00000437+0000001754          1400 DK5150               2AZ
206848004206848903-000295     206848006001704002899SWT MS FRUITY RASCALS  0000001000+00000876+00000+0001T   00000876+0000001754          1400 DK5150               2AZ
206849000206849               206849               170213JK     1400+00000+JK0000001314+0000001314+000000000+000000184+0000001490+0000000008+I20000000000+0000001490+Z
206849001206849306-001135-A   206849006003000359110FIRSTAID SUPPORT HAND  0000001000+00001314+00000+0001T   00001753+0008171755          1400 DK5200               2AZ
206850000206850               206850               170213JK     1400+00000+JK0000014032+0000014032+000000000+000001966+0000015990+0000000008+I20000000000+0000015990+Z
206850001206850368-000111     206850006001023780812PLUSH BEAR/DOG 29CM    0000001000+00012279+00000+0001T   00012279+0000001755          1400 DK5745               2AZ
206850002206850077-000472     206850006003000330133G-BAG DESGNR LRG 25X32 0000001000+00001753+00000+0001T   00001753+0000001755          1400 DK5112               2AZ
206851000206851               206851               170213JK     1400+00000+JK0000002364+0000002364+000000000+000000333+0000002690+0000000007+I20000000000+0000002690+Z
206851001206851018-000127     206851006001023380289MUG OCC STRAIGHT LOVE  0000001000+00001578+00000+0001T   00001753+0006471757          1400 DK5515               2AZ
206851002206851903-000183     206851006003000451043SWT LB HEART LOLLY     0000002000+00000393+00000+0001T   00000393+0000001757          1400 DK5150               2AZ
206852000206852               206852               170213JK     1400+00000+JK0000004381+0000004381+000000000+000000615+0000004996+0000000000+I40000004996+0000000000+Z
206852001206852080-000133-A   206852006003000647019MINI VALENTINES CARD   0000002000+00000437+00000+0001T   00000437+0000001758          1400 DK5112               2AZ
206852002206852024-000168-E   206852006003000675272T/PLATE ROUND CAKE PAN 0000001000+00003507+00000+0001T   00003507+0000001758          1400 DK5300               2AZ
206853000206853               206853               170213JK     1400+00000+JK0000000035+0000000035+000000000+000000005+0000000040+0000000000+I20000000000+0000000040+Z
206853001206853112-116038     206853006009681820246TCS CARRIER BAG MIDI   0000001000+00000035+00000+0001T   00000035+0000001759          1400 DK5090               2AZ
A17021300                                          10295513JKSLAVE 2                       DK52IC
M17021391                              CASH        JKSLAVE 2                       Z-REPORT No.   606TOTAL (Sales - Refunds)          11946.42       CASH TO BE BANKED                 4143.70       DEBIT CARDS                          0.00       CREDIT CARDS                      7802.72       Z-READING                        11946.42       AIRTIME DEBIT CARD SALES             0.00       AIRTIME CARD SALES                   0.00       OVERS/UNDERS                         0.00       AIRTIME CASH SALES                   0.00       GIFT CARDS                           0.00       GIFT CARD CASH SALES                 0.00       T O T A L  CASH PAYOUTS              0.00                                                                                                                                                                                                                                                                                                                                                      Z
M17021392                              CASH        JKABSENT                                                                                                                                                                                          ANNUAL LEAVE                                                                                                                                                                                    DAY OFF                                                                                                                                                                                         COMMENTS                                                                                                                                                                                                                                                                                                                                                                                       Z
Y17021300                                          JK00000001050598+000133
ZJK17021319543 SLAVE 2      SALES DATA                     NEXT INVOICE NO.  206854 0606
X JK Slave 2 First invoice 206721 170213 Last invoice 206853 170213 Next invoice 206854 Total number of records 000000512 clbackup completed 19:54:16
