143564000143564               143564               170213JL     1400+00000+JL0000004759+0000004759+000000000+000000673+0000005432+0000000000+I40000005432+0000000000+Z
143564001143564903-000200     143564006009826020234SWT CHOC RP CHOCO 23G  0000004000+00000788+00000+0001T   00000788+0000000915          1400 OJ5150               1AZ
143564002143564903-000183     143564006003000451043SWT LB HEART LOLLY     0000004000+00000393+00000+0001T   00000393+0000000915          1400 OJ5150               1AZ
143564003143564112-116038     143564006009681820246TCS CARRIER BAG MIDI   0000001000+00000035+00000+0001T   00000035+0000000915          1400 OJ5090               1AZ
143565000143565               143565               170213JL     1400+00000+JL0000026796+0000026796+000000000+000003752+0000030548+0000000000+I40000030548+0000000000+Z
143565001143565072-020242     143565000694202201794PET BED COTTON TEXTILE 0000001000+00008771+00000+0001T   00008771+0000000922          1400 OJ5870               1AZ
143565002143565072-020257     143565006001023598110DOG-CHEW SHOE 13cm     0000001000+00002192+00000+0001T   00002192+0000000922          1400 OJ5870               1AZ
143565003143565072-020259     143565006001023602664DOG-CHEW BONE 10cm 2PCE0000001000+00003507+00000+0001T   00003507+0000000922          1400 OJ5870               1AZ
143565004143565072-020362     143565006001023820471DOG/CAT BOWL PL+S/S DBL0000001000+00008771+00000+0001T   00008771+0000000922          1400 OJ5870               1AZ
143565005143565077-000934     143565006003000409921G/WRAP 700mmx5m BIRTHDA0000001000+00003507+00000+0001T   00003507+0000000922          1400 OJ5112               1AZ
143565006143565112-116069     143565006009681820277TCS CARRIER BAG JUMBO  0000001000+00000048+00000+0001T   00000048+0000000922          1400 OJ5090               1AZ
143566000143566               143566               170213JL     1400+00000+JL0000002192+0000002192+000000000+000000307+0000002490+0000000009+I20000000000+0000002490+Z
143566001143566077-000463     143566006003000321698G/BAG GLITTER MED20x28 0000001000+00002192+00000+0001T   00002192+0000000922          1400 OJ5112               1AZ
143567000143567               143567               170213JL     1400+00000+JL0000007015+0000007015+000000000+000000983+0000007990+0000000008+I20000000000+0000007990+Z
143567001143567077-000330     143567006001023745408GIFT-BAG 18X23CM WEDGE 0000001000+00001753+00000+0001T   00001753+0000000923          1400 OJ5112               1AZ
143567002143567041-000300     143567006003000421862EVERYDAY BATH SET 3pc  0000001000+00005262+00000+0001T   00005262+0000000923          1400 OJ5200               1AZ
143568000143568               143568               170213JL     1400+00000+JL0000003945+0000003945+000000000+000000553+0000004490+0000000008+I20000000000+0000004490+Z
143568001143568071-001346     143568006001023912985HIGHLIGHTERS 4PCE CARD 0000001000+00002192+00000+0001T   00002192+0000000923          1400 OJ5130               1AZ
143568002143568007-000205     143568006002324000432FILE BINDER 2-RING A4  0000001000+00001753+00000+0001T   00001753+0000000923          1400 OJ5130               1AZ
143569000143569               143569               170213JL     1400+00000+JL0000013457+0000013457+000000000+000001915+0000015372+0000000000+I40000015372+0000000000+Z
143569001143569903-000183     143569006003000451043SWT LB HEART LOLLY     0000031000+00000393+00000+0001T   00000393+0000000932          1400 OJ5150               1AZ
143569002143569304-001011     143569006001023806727FLWR ROSE RED W/BEAR   0000002000+00000613+00000+0001T   00000788+0006470932          1400 OJ5510               1AZ
143569003143569112-116069     143569006009681820277TCS CARRIER BAG JUMBO  0000001000+00000048+00000+0001T   00000048+0000000932          1400 OJ5090               1AZ
143570000143570               143570               170213JL     1400+00000+JL0000019778+0000019778+000000000+000002771+0000022540+0000000009+I20000000000+0000022540+Z
143570001143570001-091415     143570006003000329113W/GLS OCC. LOVE 2PC 2800000001000+00008771+00000+0001T   00009648+0006470941          1400 OJ5515               1AZ
143570002143570301-085004     143570006003000420469ORN LOVE PLAQUE 21X10CM0000001000+00003507+00000+0001T   00003946+0006470941          1400 OJ5505               1AZ
143570003143570566-000068     143570006003000418046POP UP LOVE 2 ASSTD    0000001000+00002192+00000+0001T   00002192+0000000941          1400 OJ5130               1AZ
143570004143570566-000367     143570006003000645558STICKER WINDOW DECOR   0000001000+00002630+00000+0001T   00002630+0000000941          1400 OJ5130               1AZ
143570005143570077-000270     143570006003000395453GIFT-BAG PPR JMB 33X45 0000001000+00002630+00000+0001T   00002630+0000000941          1400 OJ5112               1AZ
143570006143570112-116069     143570006009681820277TCS CARRIER BAG JUMBO  0000001000+00000048+00000+0001T   00000048+0000000941          1400 OJ5090               1AZ
143571000143571               143571               170213JL     1400+00000+JL0000002630+0000002630+000000000+000000369+0000002990+0000000009+I20000000000+0000002990+Z
143571001143571046-002330-PK2 143571004897006178347BATTERY LITHIUM CR-23300000001000+00002630+00000+0001T   00002630+0000000941          1400 OJ5312               1AZ
143572000143572               143572               170213JL     1400+00000+JL0000014953+0000014953+000000000+000002097+0000017050+0000000000+I20000000000+0000017050+Z
143572001143572036-000151     143572006001023810588COATHANGERS    PACK-10 0000001000+00002893+00000+0001T   00002893+0000000945          1400 OJ5212               1AZ
143572002143572306-001660     143572006003000620579NAIL DRYING MACHINE    0000001000+00007016+00000+0001T   00007016+0000000945          1400 OJ5200               1AZ
143572003143572150-003733     143572006003000561735SINK STRAINER S/S 1PCE 0000001000+00001490+00000+0001T   00001490+0000000945          1400 OJ5810               1AZ
143572004143572306-000001     143572006003000450152NAIL BRUSH SET 7/9/14cm0000001000+00002630+00000+0001T   00002630+0000000945          1400 OJ5200               1AZ
143572005143572077-000150-D   143572006003000054343GIFT-WRAP CELLPHANE CLR0000001000+00000876+00000+0001T   00000876+0000000945          1400 OJ5112               1AZ
143572006143572112-116069     143572006009681820277TCS CARRIER BAG JUMBO  0000001000+00000048+00000+0001T   00000048+0000000945          1400 OJ5090               1AZ
143573000143573               143573               170213JL     1400+00000+JL0000005259+0000005259+000000000+000000738+0000005990+0000000007+I20000000000+0000005990+Z
143573001143573088-000108     143573006001023765536POTPOURRI-OIL 10ml ASST0000003000+00001753+00000+0001T   00001753+0000000949          1400 OJ5212               1AZ
143574000143574               143574               170213JL     1400+00000+JL0000001753+0000001753+000000000+000000246+0000001990+0000000009+I20000000000+0000001990+Z
143574001143574080-000115     143574006003000237333CARD&ENVELOPE - BLANKS 0000001000+00001753+00000+0001T   00001753+0000000950          1400 OJ5112               1AZ
143575000143575               143575               170213JL     1400+00000+JL0000006483+0000006483+000000000+000000911+0000007390+0000000004+I20000000000+0000007390+Z
143575001143575567-011357     143575006003000638406BK STICKER & ACTIVITY  0000001000+00002630+00000+0001T   00003507+0008140953          1400 OJ5757               1AZ
143575002143575080-000101     143575006003000236732CARD&ENVLPE FEMALE     0000001000+00001753+00000+0001T   00001753+0000000953          1400 OJ5112               1AZ
143575003143575903-000155     143575006009803374435SWT LOLLY I LUV U HEART0000004000+00000525+00000+0001T   00000525+0000000953          1400 OJ5150               1AZ
143576000143576               143576               170213JL     1400+00000+JL0000009075+0000009075+000000000+000001271+0000010346+0000000000+I40000010346+0000000000+Z
143576001143576567-000422     143576009780710515872BK EDU BATH EVA        0000001000+00004385+00000+0001T   00004385+0000000956          1400 OJ5757               1AZ
143576002143576566-000991     143576000721129013121STICKERS GLOW-IN-DARK  0000001000+00002192+00000+0001T   00002192+0000000956          1400 OJ5130               1AZ
143576003143576566-000031     143576006003000283910STICKER BK TEACHER STIC0000001000+00002192+00000+0001T   00002192+0000000956          1400 OJ5130               1AZ
143576004143576079-009700-G   143576006003000545957PAPER SIRIO A4 LIME COL0000001000+00000306+00000+0001T   00000306+0000000956          1400 OJ5130               1AZ
143577000143577               143577               170213JL     1400+00000+JL0000008771+0000008771+000000000+000001228+0000009990+0000000009+I20000000000+0000009990+Z
143577001143577031-001011     143577006003000579099P/FRAME COLLAGE WAVE   0000001000+00008771+00000+0001T   00008771+0000000958          1400 OJ5510               1AZ
143578000143578               143578               170213JL     1400+00000+JL0000001314+0000001314+000000000+000000184+0000001490+0000000008+I20000000000+0000001490+Z
143578001143578046-000012     143578006904708013062BATTERIES AA  CARD-OF-40000001000+00001314+00000+0001T   00001314+0000000959          1400 OJ5312               1AZ
143579000143579               143579               170213JL     1400+00000+JL0000002628+0000002628+000000000+000000369+0000002990+0000000007+I20000000000+0000002990+Z
143579001143579077-000311     143579006001023608666GIFT-BAG 11X14CM GLOSS 0000001000+00000613+00000+0001T   00000613+0000001010          1400 OJ5112               1AZ
143579002143579080-000133-A   143579006003000647019MINI VALENTINES CARD   0000001000+00000437+00000+0001T   00000437+0000001010          1400 OJ5112               1AZ
143579003143579077-000315     143579006003000181186GIFT-BAG 20x28cm MATT  0000001000+00001578+00000+0001T   00001578+0000001010          1400 OJ5112               1AZ
143580000143580               143580               170213JL     1400+00000+JL0000017542+0000017542+000000000+000002456+0000019998+0000000000+I40000019998+0000000000+Z
143580001143580567-011925     143580009780755498383BK RELIGIOUS CHIDREN'S 0000001000+00017542+00000+0001T   00017542+0000001036          1400 OJ5757               1AZ
143581000143581               143581               170213JL     1400+00000+JL0000001753+0000001753+000000000+000000246+0000001990+0000000009+I20000000000+0000001990+Z
143581001143581466-000103     143581000681070950312BALL 20cm ASSTD        0000001000+00001753+00000+0001T   00001753+0000001132          1400 OJ5785               1AZ
143582000143582               143582               170213JL     1400+00000+JL0000002630+0000002630+000000000+000000369+0000002990+0000000009+I20000000000+0000002990+Z
143582001143582077-000270     143582006003000395453GIFT-BAG PPR JMB 33X45 0000001000+00002630+00000+0001T   00002630+0000001136          1400 OJ5112               1AZ
143583000143583               143583               170213JL     1400+00000+JL0000005307+0000005307+000000000+000000745+0000006052+0000000000+I40000006052+0000000000+Z
143583001143583077-000301     143583008010410010188BAG LRG 25X32CM B/DAY  0000001000+00001753+00000+0001T   00001753+0000001145          1400 OJ5112               1AZ
143583002143583080-000106     143583006003000237098CARD&ENVLPE BDAY GIRL  0000001000+00001753+00000+0001T   00001753+0000001145          1400 OJ5112               1AZ
143583003143583080-000100     143583006003000236114CARD & ENVELOPE BDAY   0000001000+00001753+00000+0001T   00001753+0000001145          1400 OJ5112               1AZ
143583004143583112-116069     143583006009681820277TCS CARRIER BAG JUMBO  0000001000+00000048+00000+0001T   00000048+0000001145          1400 OJ5090               1AZ
143584000143584               143584               170213JL     1400+00000+JL0000003507+0000003507+000000000+000000491+0000003998+0000000000+I40000003998+0000000000+Z
143584001143584567-011343     143584006003000630592BK COLOURING THERAPY   0000001000+00003507+00000+0001T   00003507+0000001210          1400 OJ5757               1AZ
143585000143585               143585               170213JL     1400+00000+JL0000005259+0000005259+000000000+000000738+0000005990+0000000007+I20000000000+0000005990+Z
143585001143585566-000037     143585006003000383948STICKER 3D GEL         0000003000+00001753+00000+0001T   00001753+0000001213          1400 OJ5130               1AZ
143586000143586               143586               170213JL     1400+00000+JL0000007016+0000007016+000000000+000000983+0000007990+0000000009+I20000000000+0000007990+Z
143586001143586266-008043     143586006003000474134BOYS FIG. P/SET 55pc   0000001000+00007016+00000+0001T   00007016+0000001215          1400 OJ5710               1AZ
143587000143587               143587               170213JL     1400+00000+JL0000001753+0000001753+000000000+000000246+0000001990+0000000009+I20000000000+0000001990+Z
143587001143587565-000056     143587006003000643325NOVELTY FINGER BEAMS   0000001000+00001753+00000+0001T   00001753+0000001215          1400 OJ5745               1AZ
143588000143588               143588               170213JL     1400+00000+JL0000001839+0000001839+000000000+000000258+0000002090+0000000007+I20000000000+0000002090+Z
143588001143588006-001000     143588006003000093779HELIUM BALLOON FILL    0000003000+00000613+00000+0001T   00000613+0000001220          1400 OJ5131               1AZ
143589000143589               143589               170213JL     1400+00000+JL0000003243+0000003243+000000000+000000455+0000003690+0000000008+I20000000000+0000003690+Z
143589001143589072-000232     143589006003000236060DOG-COL REFLCTV 35-51cm0000001000+00001753+00000+0001T   00001753+0000001222          1400 OJ5870               1AZ
143589002143589039-000108     143589006001023524034TEA-LITE CANDLES 8PCE  0000001000+00001490+00000+0001T   00001490+0000001222          1400 OJ5510               1AZ
143590000143590               143590               170213JL     1400+00000+JL0000009556+0000009556+000000000+000001339+0000010895+0000000000+I40000010895+0000000000+Z
143590001143590077-000315     143590006003000181186GIFT-BAG 20x28cm MATT  0000001000+00001578+00000+0001T   00001578+0000001224          1400 OJ5112               1AZ
143590002143590018-050000     143590006003000412679MUG OCC LOVE TWIN BEAR 0000001000+00006139+00000+0001T   00006139+0000001224          1400 OJ5515               1AZ
143590003143590903-000087     143590006001704000161SWT SPECKLED-EGGS 50G  0000001000+00001139+00000+0001T   00001139+0000001224          1400 OJ5150               1AZ
143590004143590018-000177     143590006001023797513MUG MINI LOVE ASSTD    0000001000+00000700+00000+0001T   00000700+0000001224          1400 OJ5515               1AZ
143591000143591               143591               170213JL     1400+00000+JL0000000876+0000000876+000000000+000000123+0000000990+0000000009+I20000000000+0000000990+Z
143591001143591007-000127     143591006009685853431BOOK H/COVER MEMO 144PG0000001000+00000876+00000+0001T   00000876+0000001225          1400 OJ5130               1AZ
143592000143592               143592               170213JL     1400+00000+JL0000005259+0000005259+000000000+000000738+0000005990+0000000007+I20000000000+0000005990+Z
143592001143592080-000500     143592006001023846211CARD&ENV 6PK GLITTER   0000001000+00001753+00000+0001T   00001753+0000001227          1400 OJ5112               1AZ
143592002143592080-000500     143592000013994117524CARD&ENV 6PK GLITTER   0000001000+00001753+00000+0001T   00001753+0000001227          1400 OJ5112               1AZ
143592003143592080-008102     143592006003000080724CARD&ENV MINI 6PK FOIL 0000001000+00001753+00000+0001T   00001753+0000001227          1400 OJ5112               1AZ
143593000143593               143593               170213JL     1400+00000+JL0000000964+0000000964+000000000+000000135+0000001090+0000000009+I20000000000+0000001090+Z
143593001143593028-000795     143593006001023812063SKEWERS 10cm 100PCE 3mm0000001000+00000964+00000+0001T   00000964+0000001229          1400 OJ5305               1AZ
143594000143594               143594               170213JL     1400+00000+JL0000000700+0000000700+000000000+000000098+0000000790+0000000008+I20000000000+0000000790+Z
143594001143594033-010721     143594006001023678669SAFETY-PINS 20PCE ASSTD0000001000+00000700+00000+0001T   00000700+0000001230          1400 OJ5200               1AZ
143595000143595               143595               170213JL     1400+00000+JL0000005786+0000005786+000000000+000000811+0000006590+0000000007+I20000000000+0000006590+Z
143595001143595903-000087     143595006001704000161SWT SPECKLED-EGGS 50G  0000001000+00001139+00000+0001T   00001139+0000001231          1400 OJ5150               1AZ
143595002143595077-000009     143595006003000152377PAPER CREPE ALUM COL   0000001000+00003069+00000+0001T   00003069+0000001231          1400 OJ5112               1AZ
143595003143595077-000315     143595006003000181186GIFT-BAG 20x28cm MATT  0000001000+00001578+00000+0001T   00001578+0000001231          1400 OJ5112               1AZ
143596000143596               143596               170213JL     1400+00000+JL0000002313+0000002313+000000000+000000325+0000002630+0000000008+I20000000000+0000002630+Z
143596001143596018-000139     143596006003000547227MUG S/WARE SLANTED SHPE0000001000+00001753+00000+0001T   00002630+0008171235          1400 OJ5515               1AZ
143596002143596903-000155     143596006009803374435SWT LOLLY I LUV U HEART0000001000+00000525+00000+0001T   00000525+0000001235          1400 OJ5150               1AZ
143596003143596112-116038     143596006009681820246TCS CARRIER BAG MIDI   0000001000+00000035+00000+0001T   00000035+0000001235          1400 OJ5090               1AZ
143597000143597               143597               170213JL     1400+00000+JL0000001695+0000001695+000000000+000000240+0000001930+0000000005+I20000000000+0000001930+Z
143597001143597071-000325     143597006009635844090RULER PLASTIC 30cm     0000002000+00000437+00000+0001T   00000437+0000001238          1400 OJ5130               1AZ
143597002143597007-000405     143597006009635830369EXERCISE-BOOK A5 72PAGE0000003000+00000262+00000+0001T   00000262+0000001238          1400 OJ5130               1AZ
143597003143597112-116038     143597006009681820246TCS CARRIER BAG MIDI   0000001000+00000035+00000+0001T   00000035+0000001238          1400 OJ5090               1AZ
143598000143598               143598               170213JL     1400+00000+JL0000010525+0000010525+000000000+000001474+0000011999+0000000000+I40000011999+0000000000+Z
143598001143598361-003371     143598006003000404759DOLL FAMILY+POOL 31cm  0000001000+00010525+00000+0001T   00010525+0000001244          1400 OJ5725               1AZ
143599000143599               143599               170213JL     1400+00000+JL0000007014+0000007014+000000000+000000982+0000007990+0000000006+I20000000000+0000007990+Z
143599001143599082-098794     143599006001492987941SUNGLASS KIDS BOYS WRAP0000001000+00003507+00000+0001T   00003507+0000001252          1400 OJ5160               1AZ
143599002143599082-098775     143599006001492987750SUNGLASS KIDS GIRLS    0000001000+00003507+00000+0001T   00003507+0000001252          1400 OJ5160               1AZ
143600000143600               143600               170213JL     1400+00000+JL0000025467+0000025467+000000000+000003566+0000029033+0000000000+I40000029033+0000000000+Z
143600001143600002-000679     143600006003000426188K/TOOL SET NYLON 3PC   0000003000+00003507+00000+0001T   00003507+0000001254          1400 OJ5300               1AZ
143600002143600031-001001     143600006003000253265P/FRAME COL FAM-TREE   0000001000+00014911+00000+0001T   00014911+0000001254          1400 OJ5510               1AZ
143600003143600112-116038     143600006009681820246TCS CARRIER BAG MIDI   0000001000+00000035+00000+0001T   00000035+0000001254          1400 OJ5090               1AZ
143601000143601               143601               170213JL     1400+00000+JL0000007893+0000007893+000000000+000001106+0000008990+0000000009+I20000000000+0000008990+Z
143601001143601071-002884     143601006003000639229CALCULATOR 12 DIGIT    0000001000+00007893+00000+0001T   00007893+0000001429          1400 OJ5130               1AZ
143602000143602               143602               170213JL     1400+00000+JL0000000876+0000000876+000000000+000000123+0000000990+0000000009+I20000000000+0000000990+Z
143602001143602089-000192-A   143602006001023901774KEY-CHAIN ACRYLIC      0000001000+00000876+00000+0001T   00000876+0000001430          1400 OJ5205               1AZ
143603000143603               143603               170213JL     1400+00000+JL0000001753+0000001753+000000000+000000246+0000001990+0000000009+I20000000000+0000001990+Z
143603001143603080-000122     143603006003000237678CARD & ENVLPE -GET WELL0000001000+00001753+00000+0001T   00001753+0000001430          1400 OJ5112               1AZ
143604000143604               143604               170213JL     1400+00000+JL0000006660+0000006660+000000000+000000933+0000007590+0000000003+I20000000000+0000007590+Z
143604001143604077-000310     143604006001023608635GIFT-BAG 18X23CM GLOSS 0000001000+00001314+00000+0001T   00001314+0000001456          1400 OJ5112               1AZ
143604002143604903-000194     143604006009826020616SWT CHOC RP LOLLY 25G  0000001000+00001314+00000+0001T   00001314+0000001456          1400 OJ5150               1AZ
143604003143604903-000155     143604006009803374435SWT LOLLY I LUV U HEART0000001000+00000525+00000+0001T   00000525+0000001456          1400 OJ5150               1AZ
143604004143604018-000136     143604006001023659026MUG OCC LOVE W/PLUSH   0000001000+00003507+00000+0001T   00003507+0000001456          1400 OJ5515               1AZ
143605000143605               143605               170213JL     1400+00000+JL0000000306+0000000306+000000000+000000043+0000000340+0000000009+I20000000000+0000000340+Z
143605001143605007-000123     143605006003000533879BOOK COVER 450mmx1.5m  0000001000+00000306+00000+0001T   00000306+0000001516          1400 OJ5130               1AZ
143606000143606               143606               170213JL     1400+00000+JL0000008757+0000008757+000000000+000001233+0000009990+0000000000+I20000000000+0000009990+Z
143606001143606304-001011     143606006001023806727FLWR ROSE RED W/BEAR   0000007000+00000613+00000+0001T   00000788+0006471519          1400 OJ5510               1AZ
143606002143606903-000087     143606006001704000161SWT SPECKLED-EGGS 50G  0000001000+00001139+00000+0001T   00001139+0000001519          1400 OJ5150               1AZ
143606003143606903-000155     143606006009803374435SWT LOLLY I LUV U HEART0000004000+00000525+00000+0001T   00000525+0000001519          1400 OJ5150               1AZ
143606004143606903-000183     143606006003000451043SWT LB HEART LOLLY     0000003000+00000393+00000+0001T   00000393+0000001519          1400 OJ5150               1AZ
143606005143606112-116069     143606006009681820277TCS CARRIER BAG JUMBO  0000001000+00000048+00000+0001T   00000048+0000001519          1400 OJ5090               1AZ
143607000143607               143607               170213JL     1400+00000+JL0000005291+0000005291+000000000+000000743+0000006030+0000000004+I20000000000+0000006030+Z
143607001143607018-000177     143607006001023797513MUG MINI LOVE ASSTD    0000001000+00000700+00000+0001T   00000700+0000001556          1400 OJ5515               1AZ
143607002143607002-000800     143607006001023770660PEELER MTL/PL WHITE    0000001000+00001139+00000+0001T   00001139+0000001556          1400 OJ5300               1AZ
143607003143607903-000087     143607006001704000161SWT SPECKLED-EGGS 50G  0000001000+00001139+00000+0001T   00001139+0000001556          1400 OJ5150               1AZ
143607004143607903-000710     143607006002099007056SWT REFRESHERS MINT    0000001000+00001139+00000+0001T   00001139+0000001556          1400 OJ5150               1AZ
143607005143607903-000709     143607006002099007070SWT QUENCHERS FRUIT    0000001000+00001139+00000+0001T   00001139+0000001556          1400 OJ5150               1AZ
143607006143607112-116038     143607006009681820246TCS CARRIER BAG MIDI   0000001000+00000035+00000+0001T   00000035+0000001556          1400 OJ5090               1AZ
143608000143608               143608               170213JL     1400+00000+JL0000001402+0000001402+000000000+000000197+0000001590+0000000009+I20000000000+0000001590+Z
143608001143608304-001204     143608006001023737984FLOWER OCC. TEDDY/ROSES0000001000+00001402+00000+0001T   00001490+0006471558          1400 OJ5510               1AZ
143609000143609               143609               170213JL     1400+00000+JL0000095213+0000095213+000000000+000013336+0000108549+0000000000+I40000108549+0000000000+Z
143609001143609018-000129     143609006001023403353MUG OCC. LOVE V-SHAPE  0000007000+00002630+00000+0001T   00002630+0000001611          1400 OJ5515               1AZ
143609002143609018-005009     143609006001023725608MUG W/PLUSH-BEAR LOVE  0000018000+00003507+00000+0001T   00003507+0000001611          1400 OJ5515               1AZ
143609003143609018-000127     143609006001023380289MUG OCC STRAIGHT LOVE  0000002000+00001578+00000+0001T   00001753+0006471611          1400 OJ5515               1AZ
143609004143609018-000136     143609006001023659026MUG OCC LOVE W/PLUSH   0000003000+00003507+00000+0001T   00003507+0000001611          1400 OJ5515               1AZ
143610000143610               143610               170213JL     1400+00000+JL0000007940+0000007940+000000000+000001113+0000009053+0000000000+I40000009053+0000000000+Z
143610001143610301-001127     143610006946859290169ORN FOUNTAIN CAS/W.FALL0000001000+00006139+00000+0001T   00006139+0000001613          1400 OJ55052IC            1AZ
143610002143610077-000354     143610006003000139224GIFT-BAG 25X32CM H/MADE0000001000+00001753+00000+0001T   00001753+0000001613          1400 OJ5112               1AZ
143610003143610112-116069     143610006009681820277TCS CARRIER BAG JUMBO  0000001000+00000048+00000+0001T   00000048+0000001613          1400 OJ5090               1AZ
143611000143611               143611               170213JL     1400+00000+JL0000002980+0000002980+000000000+000000418+0000003390+0000000008+I20000000000+0000003390+Z
143611001143611077-000322     143611006001023677532GIFT-BAG 18X23CM E/D FL0000001000+00001227+00000+0001T   00001227+0000001613          1400 OJ5112               1AZ
143611002143611077-000471     143611006003000330096G-BAG DESGN MED 18X23CM0000001000+00001753+00000+0001T   00001753+0000001613          1400 OJ5112               1AZ
143612000143612               143612               170213JL     1400+00000+JL0000018847+0000018847+000000000+000002642+0000021489+0000000000+I40000021489+0000000000+Z
143612001143612077-000407     143612006003000145096G/BAG PP 19X26X8CM     0000001000+00001314+00000+0001T   00001314+0000001618          1400 OJ5112               1AZ
143612002143612018-030000     143612006003000421060MUG OCCASIONS LOVE 2PCE0000001000+00004385+00000+0001T   00004385+0000001618          1400 OJ5515               1AZ
143612003143612089-000099     143612006003000677566KEY CHAIN MTL SPORT AST0000001000+00000876+00000+0001T   00000876+0000001618          1400 OJ5205               1AZ
143612004143612089-000092     143612006003000457649K/CHAIN BOTTLE OPENER  0000001000+00003507+00000+0001T   00003507+0000001618          1400 OJ5205               1AZ
143612005143612089-000004     143612006003000137749KEY CHAIN MTL CHARMS   0000005000+00001753+00000+0001T   00001753+0000001618          1400 OJ5205               1AZ
143613000143613               143613               170213JL     1400+00000+JL0000014729+0000014729+000000000+000002066+0000016795+0000000000+I40000016795+0000000000+Z
143613001143613466-000056     143613006001023839053BALLS 35mm   SET-OF-3  0000004000+00003244+00000+0001T   00003244+0000001620          1400 OJ5785               1AZ
143613002143613369-001138     143613006003000555185VINYL 8.5cm THEMED DUCK0000001000+00001753+00000+0001T   00002630+0008141620          1400 OJ5745               1AZ
143614000143614               143614               170213JL     1400+00000+JL0000006137+0000006137+000000000+000000860+0000006990+0000000007+I20000000000+0000006990+Z
143614001143614159-000818     143614006001023759320BATHTUB-PILLOW ASSTD SH0000001000+00002630+00000+0001T   00002630+0000001621          1400 OJ5200               1AZ
143614002143614567-075490     143614009780799377101BK NOVEL ROMANCE AFR   0000001000+00003507+00000+0001T   00003507+0000001621          1400 OJ5757               1AZ
143615000143615               143615               170213JL     1400+00000+JL0000003507+0000003507+000000000+000000491+0000003998+0000000000+I40000003998+0000000000+Z
143615001143615018-000136     143615006001023659026MUG OCC LOVE W/PLUSH   0000001000+00003507+00000+0001T   00003507+0000001622          1400 OJ5515               1AZ
143616000143616               143616               170213JL     1400+00000+JL0000001490+0000001490+000000000+000000209+0000001690+0000000009+I20000000000+0000001690+Z
143616001143616077-000299     143616006003000395576G/BAG 32x25cm LRG LOVE 0000001000+00001490+00000+0001T   00001490+0000001636          1400 OJ5112               1AZ
143617000143617               143617               170213JL     1400+00000+JL0000002366+0000002366+000000000+000000332+0000002690+0000000008+I20000000000+0000002690+Z
143617001143617301-085006     143617006001023502940ORN LOVE MSG TUBE W/HRT0000001000+00001753+00000+0001T   00001753+0000001637          1400 OJ5505               1AZ
143617002143617007-000555     143617006001023848239MEMO-PAD MINI LOVE     0000001000+00000613+00000+0001T   00000613+0000001637          1400 OJ5130               1AZ
143618000143618               143618               170213JL     1400+00000+JL0000001753+0000001753+000000000+000000246+0000001990+0000000009+I20000000000+0000001990+Z
143618001143618078-000026     143618006936198407090SUPERGLUE 3,0g GEL     0000001000+00001753+00000+0001T   00001753+0000001638          1400 OJ5810               1AZ
143619000143619               143619               170213JL     1400+00000+JL0000004385+0000004385+000000000+000000614+0000004999+0000000000+I40000004999+0000000000+Z
143619001143619009-001506     143619006001023696090MELAMINE TRAY 39x29cm  0000001000+00004385+00000+0001T   00004385+0000001639          1400 OJ5210               1AZ
143620000143620               143620               170213JL     1400+00000+JL0000003507+0000003507+000000000+000000491+0000003990+0000000008+I20000000000+0000003990+Z
143620001143620031-086102     143620006001023900722P/FRAME PL WORD-TOP 4AS0000001000+00003507+00000+0001T   00003507+0000001640          1400 OJ5510               1AZ
143621000143621               143621               170213JL     1400+00000+JL0000003890+0000003890+000000000+000000545+0000004430+0000000005+I20000000000+0000004430+Z
143621001143621077-000245     143621006001023759214GIFT-RIBBON METALLICx2 0000001000+00001227+00000+0001T   00001227+0000001642          1400 OJ5112               1AZ
143621002143621006-000166-D   143621006003000516490BALLOONS LRG 6PC RED   0000002000+00001314+00000+0001T   00001314+0000001642          1400 OJ5131               1AZ
143621003143621112-116038     143621006009681820246TCS CARRIER BAG MIDI   0000001000+00000035+00000+0001T   00000035+0000001642          1400 OJ5090               1AZ
143622000143622               143622               170213JL     1400+00000+JL0000000613+0000000613+000000000+000000086+0000000690+0000000009+I20000000000+0000000690+Z
143622001143622304-001011     143622006001023806727FLWR ROSE RED W/BEAR   0000001000+00000613+00000+0001T   00000788+0006471645          1400 OJ5510               1AZ
143623000143623               143623               170213JL     1400+00000+JL0000017969+0000017969+000000000+000002521+0000020490+0000000000+I20000000000+0000020490+Z
143623001143623080-000123     143623006003000237722CARD&ENVELOPE-SYMPATHY 0000001000+00001753+00000+0001T   00001753+0000001653          1400 OJ5112               1AZ
143623002143623080-000102     143623006003000236855CARD&ENVLP FEMALE AFR  0000001000+00001753+00000+0001T   00001753+0000001653          1400 OJ5112               1AZ
143623003143623080-000115     143623006003000237333CARD&ENVELOPE - BLANKS 0000001000+00001753+00000+0001T   00001753+0000001653          1400 OJ5112               1AZ
143623004143623080-000116     143623006003000253555CARD&ENVELOPE-HANDMADE 0000001000+00001753+00000+0001T   00001753+0000001653          1400 OJ5112               1AZ
143623005143623080-000122     143623006003000237678CARD & ENVLPE -GET WELL0000001000+00001753+00000+0001T   00001753+0000001653          1400 OJ5112               1AZ
143623006143623080-000109     143623006003000237203CARD&ENVLPE BDAY-BRIGHT0000001000+00001753+00000+0001T   00001753+0000001653          1400 OJ5112               1AZ
143623007143623080-000122     143623006003000237678CARD & ENVLPE -GET WELL0000001000+00001753+00000+0001T   00001753+0000001653          1400 OJ5112               1AZ
143623008143623080-000123     143623006003000237722CARD&ENVELOPE-SYMPATHY 0000002000+00001753+00000+0001T   00001753+0000001653          1400 OJ5112               1AZ
143623009143623563-000318-L   143623006003000407088SERVIETTES 33cm RED    0000001000+00002192+00000+0001T   00002192+0000001653          1400 OJ5214               1AZ
143624000143624               143624               170213JL     1400+00000+JL0000010656+0000010656+000000000+000001493+0000012140+0000000009+I20000000000+0000012140+Z
143624001143624077-000299     143624006003000395576G/BAG 32x25cm LRG LOVE 0000001000+00001490+00000+0001T   00001490+0000001654          1400 OJ5112               1AZ
143624002143624018-000130     143624006001023867537MUG OCC LOVE MINI+HEART0000001000+00003507+00000+0001T   00003507+0000001654          1400 OJ5515               1AZ
143624003143624018-030000     143624006003000421060MUG OCCASIONS LOVE 2PCE0000001000+00004385+00000+0001T   00004385+0000001654          1400 OJ5515               1AZ
143624004143624112-116069     143624006009681820277TCS CARRIER BAG JUMBO  0000001000+00000048+00000+0001T   00000048+0000001654          1400 OJ5090               1AZ
143624005143624304-001011     143624006001023806727FLWR ROSE RED W/BEAR   0000002000+00000613+00000+0001T   00000788+0006471654          1400 OJ5510               1AZ
143625000143625               143625               170213JL     1400+00000+JL0000008940+0000008940+000000000+000001255+0000010190+0000000005+I20000000000+0000010190+Z
143625001143625077-000245     143625006001023759214GIFT-RIBBON METALLICx2 0000001000+00001227+00000+0001T   00001227+0000001704          1400 OJ5112               1AZ
143625002143625006-000166-D   143625006003000516490BALLOONS LRG 6PC RED   0000001000+00001314+00000+0001T   00001314+0000001704          1400 OJ5131               1AZ
143625003143625006-000166-H   143625006003000608096BALLOONS HELIUM 6PC WHT0000001000+00001314+00000+0001T   00001314+0000001704          1400 OJ5131               1AZ
143625004143625077-000270     143625006003000395453GIFT-BAG PPR JMB 33X45 0000001000+00002630+00000+0001T   00002630+0000001704          1400 OJ5112               1AZ
143625005143625077-000289     143625006001023901996GIFT BOX 20x25x11cm    0000001000+00001753+00000+0001T   00001753+0000001704          1400 OJ5112               1AZ
143625006143625006-000172-G   143625006003000610167BALLOONS METALLIC SILV 0000001000+00000218+00000+0001T   00000218+0000001704          1400 OJ5131               1AZ
143625007143625006-000172-J   143625006003000610280BALLOONS METALLIC BLACK0000001000+00000218+00000+0001T   00000218+0000001704          1400 OJ5131               1AZ
143625008143625006-000171-H   143625006003000609574BALLOONS 1PC RED PRINT 0000001000+00000218+00000+0001T   00000218+0000001704          1400 OJ5131               1AZ
143625009143625112-116069     143625006009681820277TCS CARRIER BAG JUMBO  0000001000+00000048+00000+0001T   00000048+0000001704          1400 OJ5090               1AZ
143626000143626               143626               170213JL     1400+00000+JL0000002192+0000002192+000000000+000000307+0000002490+0000000009+I20000000000+0000002490+Z
143626001143626046-000012-A   143626006003000208296BATTERIES H/POWER SZ:AA0000001000+00002192+00000+0001T   00002192+0000001706          1400 OJ5312               1AZ
143627000143627               143627               170213JL     1400+00000+JL0000004385+0000004385+000000000+000000614+0000004999+0000000000+I40000004999+0000000000+Z
143627001143627082-000115     143627006003000360604READING GLS STRNGHT:2.50000001000+00004385+00000+0001T   00004385+0000001709          1400 OJ5160               1AZ
143628000143628               143628               170213JL     1400+00000+JL0000012011+0000012011+000000000+000001682+0000013693+0000000000+I40000013693+0000000000+Z
143628001143628077-000407     143628006003000145096G/BAG PP 19X26X8CM     0000002000+00001314+00000+0001T   00001314+0000001711          1400 OJ5112               1AZ
143628002143628077-000311     143628006001023608666GIFT-BAG 11X14CM GLOSS 0000001000+00000613+00000+0001T   00000613+0000001711          1400 OJ5112               1AZ
143628003143628368-000049     143628006003000536955PLUSH BEAR 15cm LOVE   0000002000+00004385+00000+0001T   00004385+0000001711          1400 OJ5745               1AZ
143629000143629               143629               170213JL     1400+00000+JL0000000876+0000000876+000000000+000000123+0000000990+0000000009+I20000000000+0000000990+Z
143629001143629077-000314     143629006003000181148GIFT-BAG 11X14CM MATT  0000001000+00000876+00000+0001T   00000876+0000001721          1400 OJ5112               1AZ
143630000143630               143630               170213JL     1400+00000+JL0000005875+0000005875+000000000+000000823+0000006698+0000000000+I40000006698+0000000000+Z
143630001143630301-000015     143630006001023479907ORN SENTIMENT STONE    0000001000+00004385+00000+0001T   00004385+0000001723          1400 OJ5505               1AZ
143630002143630077-000299     143630006003000395576G/BAG 32x25cm LRG LOVE 0000001000+00001490+00000+0001T   00001490+0000001723          1400 OJ5112               1AZ
143631000143631               143631               170213JL     1400+00000+JL0000000876+0000000876+000000000+000000123+0000000990+0000000009+I20000000000+0000000990+Z
143631001143631077-000314     143631006003000181148GIFT-BAG 11X14CM MATT  0000001000+00000876+00000+0001T   00000876+0000001724          1400 OJ5112               1AZ
143632000143632               143632               170213JL     1400+00000+JL0000002630+0000002630+000000000+000000369+0000002990+0000000009+I20000000000+0000002990+Z
143632001143632077-000512     143632006003000590223GIFT-BAG DESIGNER LRG  0000001000+00002630+00000+0001T   00002630+0000001725          1400 OJ5112               1AZ
143633000143633               143633               170213JL     1400+00000+JL0000001576+0000001576+000000000+000000222+0000001790+0000000008+I20000000000+0000001790+Z
143633001143633077-000010-D   143633006001023123886CREPE-PAPER WHITE      0000001000+00000788+00000+0001T   00000788+0000001726          1400 OJ5112               1AZ
143633002143633077-000010-U   143633006001023168863CREPE-PAPER CERISE-PINK0000001000+00000788+00000+0001T   00000788+0000001726          1400 OJ5112               1AZ
143634000143634               143634               170213JL     1400+00000+JL0000004385+0000004385+000000000+000000614+0000004999+0000000000+I40000004999+0000000000+Z
143634001143634366-000154     143634006003000601929DRESS UP BRACES COL ASS0000001000+00004385+00000+0001T   00004385+0000001728          1400 OJ5131               1AZ
143635000143635               143635               170213JL     1400+00000+JL0000001578+0000001578+000000000+000000221+0000001799+0000000000+I40000001799+0000000000+Z
143635001143635080-000124     143635006003000297733CARD & ENV VALENTINES  0000001000+00001578+00000+0001T   00001578+0000001730          1400 OJ5112               1AZ
A17021300                                          10044731JLSLAVE 1                       OJ53IC
A17021301                                          10394794JLSLAVE 1                       OJ53IC
B14361000                                          170213JL301-001127     16115176SLAVE 1     OJ52IC0000002000+0000001000+0000000000000+
M17021301                              IT          JLATT:IT                                          LAST TILL SLIP NUM SLAVE 1                      WAS 143635                                      THANKS                                          JL
M17021391                              CASH        JLSLAVE 1                       Z-REPORT No.   331TOTAL (Sales - Refunds)           5983.04       CASH TO BE BANKED                 2575.60       DEBIT CARDS                          0.00       CREDIT CARDS                      3407.44       Z-READING                         5983.04       AIRTIME DEBIT CARD SALES             0.00       AIRTIME CARD SALES                   0.00       OVERS/UNDERS                         0.00       AIRTIME CASH SALES                   0.00       GIFT CARDS                           0.00       GIFT CARD CASH SALES                 0.00       T O T A L  CASH PAYOUTS              0.00                                                                                                                                                                                                                                                                                                                                                      Z
M17021392                              CASH        JLABSENT                                                                                                                                                                                          ANNUAL LEAVE                                                                                                                                                                                    DAY OFF                                                                                                                                                                                         COMMENTS                                                                                                                                                                                                                                                                                                                                                                                       Z
Y17021300                                          JL00000000525056+000072
ZJL17021321103 SLAVE 1      SALES DATA                     NEXT INVOICE NO.  143636 0331
X JL Slave 1 First invoice 143564 170213 Last invoice 143635 170213 Next invoice 143636 Total number of records 000000249 clbackup completed 21:10:09
