157008000157008               157008               170213JL     1400+00000+JL0000015392+0000015392+000000000+000002157+0000017549+0000000000+I40000017549+0000000000+Z
157008001157008112-116069     157008006009681820277TCS CARRIER BAG JUMBO  0000001000+00000048+00000+0001T   00000048+0000000925          1400 TM2090               2AZ
157008002157008001-091415     157008006003000329113W/GLS OCC. LOVE 2PC 2800000001000+00008771+00000+0001T   00009648+0006470925          1400 TM2515               2AZ
157008003157008077-000373     157008006003000395217G/BAG MED 18X23CM DESGN0000001000+00001753+00000+0001T   00001753+0000000925          1400 TM2112               2AZ
157008004157008077-000407     157008006003000145096G/BAG PP 19X26X8CM     0000001000+00001314+00000+0001T   00001314+0000000925          1400 TM2112               2AZ
157008005157008566-000299     157008006003000682386STICKER LABEL C/BOARD  0000001000+00001753+00000+0001T   00001753+0000000925          1400 TM2130               2AZ
157008006157008077-000309     157008006001023608604GIFT-BAG 25X32CM GLOSS 0000001000+00001753+00000+0001T   00001753+0000000925          1400 TM2112               2AZ
157009000157009               157009               170213JL     1400+00000+JL0000004030+0000004030+000000000+000000566+0000004590+0000000006+I20000000000+0000004590+Z
157009001157009304-001011     157009006001023806727FLWR ROSE RED W/BEAR   0000001000+00000613+00000+0001T   00000788+0006470926          1400 TM2510               2AZ
157009002157009304-001204     157009006001023737984FLOWER OCC. TEDDY/ROSES0000001000+00001402+00000+0001T   00001490+0006470926          1400 TM2510               2AZ
157009003157009304-001011     157009006001023806727FLWR ROSE RED W/BEAR   0000001000+00000613+00000+0001T   00000788+0006470926          1400 TM2510               2AZ
157009004157009304-001204     157009006001023737984FLOWER OCC. TEDDY/ROSES0000001000+00001402+00000+0001T   00001490+0006470926          1400 TM2510               2AZ
157010000157010               157010               170213JL     1400+00000+JL0000005433+0000005433+000000000+000000763+0000006190+0000000006+I20000000000+0000006190+Z
157010001157010077-000011-F   157010006001023808431TISSUE-WRAP BLUE/LILAC 0000001000+00000876+00000+0001T   00000876+0000001024          1400 TM2112               2AZ
157010002157010077-000381     157010006003000247707GIFT-BAG 25X32CM S/COL 0000001000+00001753+00000+0001T   00001753+0000001024          1400 TM2112               2AZ
157010003157010108-002020     157010006009654960245WINE GLS STYRENE 220ml 0000002000+00001402+00000+0001T   00001402+0000001024          1400 TM2210               2AZ
157011000157011               157011               170213JL     1400+00000+JL0000004204+0000004204+000000000+000000592+0000004790+0000000006+I20000000000+0000004790+Z
157011001157011079-009702-B   157011008427973059491PAPER SIRIO A2 WHITE   0000004000+00001051+00000+0001T   00001051+0000001028          1400 TM2130               2AZ
157012000157012               157012               170213JL     1400+00000+JL0000002630+0000002630+000000000+000000369+0000002999+0000000000+I40000002999+0000000000+Z
157012001157012071-008231     157012006001023811332PENCIL-BAG 20cm        0000001000+00002630+00000+0001T   00002630+0000001032          1400 TM2130               2AZ
157013000157013               157013               170213JL     1400+00000+JL0000022493+0000022493+000000000+000003151+0000025644+0000000000+I40000025644+0000000000+Z
157013001157013112-116069     157013006009681820277TCS CARRIER BAG JUMBO  0000001000+00000048+00000+0001T   00000048+0000001034          1400 TM2090               2AZ
157013002157013200-000093     157013006003000582020PICNIC BOWLS PL 15PC   0000001000+00003069+00000+0001T   00003069+0000001034          1400 TM2214               2AZ
157013003157013200-000091     157013006003000499762PICNIC PLATES PL 12PCE 0000001000+00003507+00000+0001T   00003507+0000001034          1400 TM2214               2AZ
157013004157013200-000168     157013006003000577026PICNIC PLATTERS 8-PACK 0000001000+00003069+00000+0001T   00003069+0000001034          1400 TM2214               2AZ
157013005157013903-000120     157013006002099001665SWEET GS ZILLIONS 50g  0000002000+00000700+00000+0001T   00000700+0000001034          1400 TM2150               2AZ
157013006157013200-000105     157013006003000199693PICNIC CUPS PL 40PCE   0000001000+00003507+00000+0001T   00003507+0000001034          1400 TM2214               2AZ
157013007157013035-000023     157013006001023898944UMBRELLA WITH PL COVER 0000001000+00007893+00000+0001T   00007893+0000001034          1400 TM2205               2AZ
157014000157014               157014               170213JL     1400+00000+JL0000003507+0000003507+000000000+000000491+0000003998+0000000000+I40000003998+0000000000+Z
157014001157014301-085004     157014006003000420469ORN LOVE PLAQUE 21X10CM0000001000+00003507+00000+0001T   00003946+0006471035          1400 TM2505               2AZ
157015000157015               157015               170213JL     1400+00000+JL0000004907+0000004907+000000000+000000689+0000005590+0000000006+I20000000000+0000005590+Z
157015001157015033-005991     157015006001023678546NEEDLES H/HOLD-REPAIR  0000001000+00000788+00000+0001T   00000788+0000001045          1400 TM2200               2AZ
157015002157015140-006004     157015006001023628077FLY-SWATTER RUBBER     0000001000+00001139+00000+0001T   00001139+0000001045          1400 TM2830               2AZ
157015003157015150-003733     157015006003000561735SINK STRAINER S/S 1PCE 0000002000+00001490+00000+0001T   00001490+0000001045          1400 TM2810               2AZ
157016000157016               157016               170213JL     1400+00000+JL0000003507+0000003507+000000000+000000491+0000003990+0000000008+I20000000000+0000003990+Z
157016001157016036-021493     157016006001023998996HANGERS PL 2x5TIER 37cm0000001000+00003507+00000+0001T   00003507+0000001050          1400 TM2212               2AZ
157017000157017               157017               170213JL     1400+00000+JL0000007016+0000007016+000000000+000000983+0000007990+0000000009+I20000000000+0000007990+Z
157017001157017305-074101     157017006003000239665W/CHIMES BRZE/SILV TUBE0000001000+00007016+00000+0001T   00007016+0000001101          1400 TM2505               2AZ
157018000157018               157018               170213JL     1400+00000+JL0000003628+0000003628+000000000+000000509+0000004130+0000000007+I20000000000+0000004130+Z
157018001157018903-000087     157018006001704000161SWT SPECKLED-EGGS 50G  0000001000+00001139+00000+0001T   00001139+0000001104          1400 TM2150               2AZ
157018002157018018-000127     157018006001023380289MUG OCC STRAIGHT LOVE  0000001000+00001578+00000+0001T   00001753+0006471104          1400 TM2515               2AZ
157018003157018077-000151     157018006008766114676GIFT-WRAP C/PHANE ASSTD0000001000+00000876+00000+0001T   00000876+0000001104          1400 TM2112               2AZ
157018004157018112-116038     157018006009681820246TCS CARRIER BAG MIDI   0000001000+00000035+00000+0001T   00000035+0000001104          1400 TM2090               2AZ
157019000157019               157019               170213JL     1400+00000+JL0000021080+0000021080+000000000+000002953+0000024033+0000000000+I40000024033+0000000000+Z
157019001157019112-116038     157019006009681820246TCS CARRIER BAG MIDI   0000001000+00000035+00000+0001T   00000035+0000001111          1400 TM2090               2AZ
157019002157019018-005009     157019006001023725608MUG W/PLUSH-BEAR LOVE  0000001000+00003507+00000+0001T   00003507+0000001111          1400 TM2515               2AZ
157019003157019071-002877     157019006003000143726LASER POINTER PEN      0000002000+00005262+00000+0001T   00005262+0000001111          1400 TM2130               2AZ
157019004157019004-000014     157019006003000257737CAMERA TRIPOD W/LEGS   0000001000+00002630+00000+0001T   00002630+0000001111          1400 TM2310               2AZ
157019005157019565-000080     157019006003000643424NOVELTY BENDY          0000002000+00002192+00000+0001T   00002192+0000001111          1400 TM2745               2AZ
157020000157020               157020               170213JL     1400+00000+JL0000002366+0000002366+000000000+000000332+0000002690+0000000008+I20000000000+0000002690+Z
157020001157020089-000192-A   157020006001023901774KEY-CHAIN ACRYLIC      0000001000+00000876+00000+0001T   00000876+0000001123          1400 TM2205               2AZ
157020002157020089-001021     157020006003000112319KEY CHAIN MINI BIBLE   0000001000+00001490+00000+0001T   00001490+0000001123          1400 TM2205               2AZ
157021000157021               157021               170213JL     1400+00000+JL0000012279+0000012279+000000000+000001720+0000013990+0000000009+I20000000000+0000013990+Z
157021001157021496-056508     157021000078257565085INTEX POOL-GAME        0000001000+00012279+00000+0001T   00012279+0000001126          1400 TM2787               2AZ
157022000157022               157022               170213JL     1400+00000+JL0000001227+0000001227+000000000+000000172+0000001390+0000000009+I20000000000+0000001390+Z
157022001157022903-000519     157022006001704012805SWT MS LIQ-O-GHETTI    0000001000+00001227+00000+0001T   00001227+0000001126          1400 TM2150               2AZ
157023000157023               157023               170213JL     1400+00000+JL0000003946+0000003946+000000000+000000553+0000004499+0000000000+I40000004499+0000000000+Z
157023001157023106-001119     157023006003000449972WATER BOTTLE ALUM 750ml0000001000+00003946+00000+0001T   00005262+0008171132          1400 TM2210               2AZ
157024000157024               157024               170213JL     1400+00000+JL0000006137+0000006137+000000000+000000860+0000006990+0000000007+I20000000000+0000006990+Z
157024001157024301-085000     157024006003000674299 ORN OCC. LOVE HEARTS  0000002000+00002192+00000+0001T   00002192+0000001132          1400 TM2505               2AZ
157024002157024051-002402     157024006001023518347TRIGGER-SPRAYER  500ml 0000001000+00001753+00000+0001T   00001753+0000001132          1400 TM2820               2AZ
157025000157025               157025               170213JL     1400+00000+JL0000023533+0000023533+000000000+000003298+0000026830+0000000001+I20000000000+0000026830+Z
157025001157025082-000122-E   157025006003000405473R/GLASS STRENGTH:3     0000001000+00005262+00000+0001T   00005262+0000001137          1400 TM2160               2AZ
157025002157025072-000326     157025006003000451722PET CAT COLLAR 31x1cm  0000001000+00002630+00000+0001T   00002630+0000001137          1400 TM2870               2AZ
157025003157025046-000014     157025006001023725387BATTERIES SIZE:AAA 4PCE0000001000+00001139+00000+0001T   00001139+0000001137          1400 TM2312               2AZ
157025004157025072-020216     157025006001023775900PET CHEWS BARBI-ROLLS  0000001000+00001753+00000+0001T   00001753+0000001137          1400 TM2870               2AZ
157025005157025072-020255     157025006003000451487PET DOG CHEW BONE PK-2 0000001000+00004385+00000+0001T   00004385+0000001137          1400 TM2870               2AZ
157025006157025072-000326     157025006003000451722PET CAT COLLAR 31x1cm  0000001000+00002630+00000+0001T   00002630+0000001137          1400 TM2870               2AZ
157025007157025072-020261     157025006003000305131PET DOG-CHEW TYRE SMALL0000001000+00002192+00000+0001T   00002192+0000001137          1400 TM2870               2AZ
157025008157025072-020254     157025006001023775962PET DOG CHEW BALL 6cm  0000001000+00003507+00000+0001T   00003507+0000001137          1400 TM2870               2AZ
157025009157025112-116038     157025006009681820246TCS CARRIER BAG MIDI   0000001000+00000035+00000+0001T   00000035+0000001137          1400 TM2090               2AZ
157026000157026               157026               170213JL     1400+00000+JL0000004384+0000004384+000000000+000000614+0000004990+0000000008+I20000000000+0000004990+Z
157026001157026106-003130     157026006001023625755ICE CUBE TRAY 21-CUBE  0000002000+00002192+00000+0001T   00002192+0000001138          1400 TM2210               2AZ
157027000157027               157027               170213JL     1400+00000+JL0000004380+0000004380+000000000+000000615+0000004990+0000000005+I20000000000+0000004990+Z
157027001157027252-000013     157027006001023488107CURTN-HOOK R6 ACETYLx500000005000+00000876+00000+0001T   00000876+0000001149          1400 TM2810               2AZ
157028000157028               157028               170213JL     1400+00000+JL0000006925+0000006925+000000000+000000971+0000007896+0000000000+I40000007896+0000000000+Z
157028001157028566-000304     1570280060030004440453-D POP-UP ROUND       0000002000+00002455+00000+0001T   00002455+0000001151          1400 TM2130               2AZ
157028002157028077-000303     157028006001023593757GIFT-BAG PAPER MED     0000001000+00001578+00000+0001T   00001578+0000001151          1400 TM2112               2AZ
157028003157028080-000133-A   157028006003000647019MINI VALENTINES CARD   0000001000+00000437+00000+0001T   00000437+0000001151          1400 TM2112               2AZ
157029000157029               157029               170213JL     1400+00000+JL0000011450+0000011450+000000000+000001604+0000013054+0000000000+I40000013054+0000000000+Z
157029001157029112-116069     157029006009681820277TCS CARRIER BAG JUMBO  0000001000+00000048+00000+0001T   00000048+0000001155          1400 TM2090               2AZ
157029002157029368-000637     157029006001023874092PLUSH BEAR SLEEPING LOV0000001000+00011402+00000+0001T   00012279+0006471155          1400 TM2745               2AZ
157030000157030               157030               170213JL     1400+00000+JL0000002927+0000002927+000000000+000000410+0000003330+0000000007+I20000000000+0000003330+Z
157030001157030078-009100     157030006008741002349ALL-CLEAR GLUE 25ml CRD0000001000+00001314+00000+0001T   00001314+0000001301          1400 TM2810               2AZ
157030002157030028-000799     157030006001023812186SKEWERS BAMBOO 100PCE  0000001000+00001578+00000+0001T   00001578+0000001301          1400 TM2305               2AZ
157030003157030112-116038     157030006009681820246TCS CARRIER BAG MIDI   0000001000+00000035+00000+0001T   00000035+0000001301          1400 TM2090               2AZ
157031000157031               157031               170213JL     1400+00000+JL0000014074+0000014074+000000000+000001973+0000016047+0000000000+I40000016047+0000000000+Z
157031001157031001-000175     157031006001023788108B/MUG GLS LOVE 380ML   0000001000+00004385+00000+0001T   00004385+0000001307          1400 TM2515               2AZ
157031002157031016-001000     157031006001023901439STORAGE-JAR GLS W/STRAW0000001000+00003069+00000+0001T   00003069+0000001307          1400 TM2300               2AZ
157031003157031077-000314     157031006003000181148GIFT-BAG 11X14CM MATT  0000002000+00000876+00000+0001T   00000876+0000001307          1400 TM2112               2AZ
157031004157031077-000310     157031006001023608635GIFT-BAG 18X23CM GLOSS 0000001000+00001314+00000+0001T   00001314+0000001307          1400 TM2112               2AZ
157031005157031016-001000     157031006001023901439STORAGE-JAR GLS W/STRAW0000001000+00003069+00000+0001T   00003069+0000001307          1400 TM2300               2AZ
157031006157031112-116069     157031006009681820277TCS CARRIER BAG JUMBO  0000001000+00000048+00000+0001T   00000048+0000001307          1400 TM2090               2AZ
157031007157031080-000133-A   157031006003000647019MINI VALENTINES CARD   0000001000+00000437+00000+0001T   00000437+0000001307          1400 TM2112               2AZ
157032000157032               157032               170213JL     1400+00000+JL0000006222+0000006222+000000000+000000873+0000007090+0000000005+I20000000000+0000007090+Z
157032001157032077-000309     157032006001023608604GIFT-BAG 25X32CM GLOSS 0000001000+00001753+00000+0001T   00001753+0000001312          1400 TM2112               2AZ
157032002157032565-000041     157032006008766115642NOVELTY BALL ICON 5.5cm0000001000+00002630+00000+0001T   00002630+0000001312          1400 TM2745               2AZ
157032003157032903-000087     157032006001704000161SWT SPECKLED-EGGS 50G  0000001000+00001139+00000+0001T   00001139+0000001312          1400 TM2150               2AZ
157032004157032903-000120     157032006002099001665SWEET GS ZILLIONS 50g  0000001000+00000700+00000+0001T   00000700+0000001312          1400 TM2150               2AZ
157033000157033               157033               170213JL     1400+00000+JL0000004418+0000004418+000000000+000000619+0000005030+0000000007+I20000000000+0000005030+Z
157033001157033077-000151     157033006008766114676GIFT-WRAP C/PHANE ASSTD0000001000+00000876+00000+0001T   00000876+0000001318          1400 TM2112               2AZ
157033002157033018-005009     157033006001023725608MUG W/PLUSH-BEAR LOVE  0000001000+00003507+00000+0001T   00003507+0000001318          1400 TM2515               2AZ
157033003157033112-116038     157033006009681820246TCS CARRIER BAG MIDI   0000001000+00000035+00000+0001T   00000035+0000001318          1400 TM2090               2AZ
157034000157034               157034               170213JL     1400+00000+JL0000003628+0000003628+000000000+000000509+0000004130+0000000007+I20000000000+0000004130+Z
157034001157034077-000151     157034006008766114676GIFT-WRAP C/PHANE ASSTD0000001000+00000876+00000+0001T   00000876+0000001320          1400 TM2112               2AZ
157034002157034018-000127     157034006001023380289MUG OCC STRAIGHT LOVE  0000001000+00001578+00000+0001T   00001753+0006471320          1400 TM2515               2AZ
157034003157034903-000087     157034006001704000161SWT SPECKLED-EGGS 50G  0000001000+00001139+00000+0001T   00001139+0000001320          1400 TM2150               2AZ
157034004157034112-116038     157034006009681820246TCS CARRIER BAG MIDI   0000001000+00000035+00000+0001T   00000035+0000001320          1400 TM2090               2AZ
157035000157035               157035               170213JL     1400+00000+JL0000036354+0000036354+000000000+000005093+0000041440+0000000007+I20000000000+0000041440+Z
157035001157035133-000009     157035006003000060726KITCHEN SWAB 3PC M/FIBR0000001000+00003507+00000+0001T   00003507+0000001322          1400 TM2212               2AZ
157035002157035133-000018     157035006003000583218SWAB MICROFIBRE 30x30cm0000001000+00001753+00000+0001T   00001753+0000001322          1400 TM2212               2AZ
157035003157035077-000011-D   157035006001023808554TISSUE-WRAP WHITE 10PCE0000001000+00000876+00000+0001T   00000876+0000001322          1400 TM2112               2AZ
157035004157035002-000970     157035006001023770578FUNNELS 3PCE WHITE     0000001000+00001227+00000+0001T   00001227+0000001322          1400 TM2300               2AZ
157035005157035012-000001     157035006003000331048MICRO PLATE-COVER 26X6 0000001000+00001753+00000+0001T   00002192+0008191322          1400 TM2300               2AZ
157035006157035105-001038     157035006003000615315CONTAINER W/VENT 1450ml0000001000+00002630+00000+0001T   00003507+0008161322          1400 TM2210               2AZ
157035007157035022-010600     157035006001023733115ROASTER 26cm OVL 1st-GR0000001000+00024560+00000+0001T   00024560+0000001322          1400 TM2305               2AZ
157035008157035112-116069     157035006009681820277TCS CARRIER BAG JUMBO  0000001000+00000048+00000+0001T   00000048+0000001322          1400 TM2090               2AZ
157036000157036               157036               170213JL     1400+00000+JL0000004242+0000004242+000000000+000000594+0000004830+0000000006+I20000000000+0000004830+Z
157036001157036018-005009     157036006001023725608MUG W/PLUSH-BEAR LOVE  0000001000+00003507+00000+0001T   00003507+0000001327          1400 TM2515               2AZ
157036002157036018-000177     157036006001023797513MUG MINI LOVE ASSTD    0000001000+00000700+00000+0001T   00000700+0000001327          1400 TM2515               2AZ
157036003157036112-116038     157036006009681820246TCS CARRIER BAG MIDI   0000001000+00000035+00000+0001T   00000035+0000001327          1400 TM2090               2AZ
157037000157037               157037               170213JL     1400+00000+JL0000001620+0000001620+000000000+000000228+0000001840+0000000008+I20000000000+0000001840+Z
157037001157037105-000750     157037006003000190270CONTAINERS 4xMINI 150ml0000001000+00001402+00000+0001T   00001402+0000001328          1400 TM2210               2AZ
157037002157037006-000172-H   157037006003000610211BALLOONS METALLIC RED  0000001000+00000218+00000+0001T   00000218+0000001328          1400 TM2131               2AZ
157038000157038               157038               170213JL     1400+00000+JL0000004992+0000004992+000000000+000000702+0000005690+0000000004+I20000000000+0000005690+Z
157038001157038903-000861     157038005010478430822SWT LOVE HEARTS SML    0000003000+00000876+00000+0001T   00000876+0000001333          1400 TM2150               2AZ
157038002157038903-000200     157038006009826020234SWT CHOC RP CHOCO 23G  0000003000+00000788+00000+0001T   00000788+0000001333          1400 TM2150               2AZ
157039000157039               157039               170213JL     1400+00000+JL0000002630+0000002630+000000000+000000369+0000002990+0000000009+I20000000000+0000002990+Z
157039001157039006-000111     157039006003000519385BALLOONS LARGE 12PCE   0000001000+00002630+00000+0001T   00002630+0000001335          1400 TM2131               2AZ
157040000157040               157040               170213JL     1400+00000+JL0000006883+0000006883+000000000+000000966+0000007840+0000000009+I20000000000+0000007840+Z
157040001157040077-000315     157040006003000181186GIFT-BAG 20x28cm MATT  0000001000+00001578+00000+0001T   00001578+0000001337          1400 TM2112               2AZ
157040002157040077-000299-A   157040006003000670888GIFT-BAG PAPER JMB LOVE0000001000+00001753+00000+0001T   00001753+0000001337          1400 TM2112               2AZ
157040003157040077-000011-L   157040006001023808585P/TISSUE BRIGHT 10SHEET0000001000+00000876+00000+0001T   00000876+0000001337          1400 TM2112               2AZ
157040004157040077-000011-D   157040006001023808554TISSUE-WRAP WHITE 10PCE0000001000+00000876+00000+0001T   00000876+0000001337          1400 TM2112               2AZ
157040005157040077-000011-R   157040006001023808462P/TISSUE DARK 10-SHEETS0000001000+00000876+00000+0001T   00000876+0000001337          1400 TM2112               2AZ
157040006157040077-000011-L   157040006001023808585P/TISSUE BRIGHT 10SHEET0000001000+00000876+00000+0001T   00000876+0000001337          1400 TM2112               2AZ
157040007157040112-116069     157040006009681820277TCS CARRIER BAG JUMBO  0000001000+00000048+00000+0001T   00000048+0000001337          1400 TM2090               2AZ
157041000157041               157041               170213JL     1400+00000+JL0000002839+0000002839+000000000+000000399+0000003230+0000000008+I20000000000+0000003230+Z
157041001157041079-009702-A   157041008427973059408PAPER SIRIO A2 BLACK   0000001000+00001051+00000+0001T   00001051+0000001342          1400 TM2130               2AZ
157041002157041566-001500     157041006003000658275STICKER PUFFY EMOTION  0000001000+00001753+00000+0001T   00001753+0000001342          1400 TM2130               2AZ
157041003157041112-116038     157041006009681820246TCS CARRIER BAG MIDI   0000001000+00000035+00000+0001T   00000035+0000001342          1400 TM2090               2AZ
157042000157042               157042               170213JL     1400+00000+JL0000002630+0000002630+000000000+000000369+0000002990+0000000009+I20000000000+0000002990+Z
157042001157042024-000093-B   157042006003000430819MEASURING-SPOONS ASSTD 0000001000+00002630+00000+0001T   00002630+0000001350          1400 TM2300               2AZ
157043000157043               157043               170213JL     1400+00000+JL0000004383+0000004383+000000000+000000615+0000004990+0000000008+I20000000000+0000004990+Z
157043001157043079-000275     157043006003000160488PAINT-BRUSHES 6PCE PRO 0000001000+00001753+00000+0001T   00001753+0000001351          1400 TM2130               2AZ
157043002157043079-000273     157043006003000160327PAINT BRUSHES THICK    0000001000+00002630+00000+0001T   00002630+0000001351          1400 TM2130               2AZ
157044000157044               157044               170213JL     1400+00000+JL0000003946+0000003946+000000000+000000553+0000004490+0000000009+I20000000000+0000004490+Z
157044001157044007-000047     157044006009635833698FILE DISPLAY-BK A4 50PG0000001000+00003946+00000+0001T   00003946+0000001357          1400 TM2130               2AZ
157045000157045               157045               170213JL     1400+00000+JL0000001226+0000001226+000000000+000000172+0000001390+0000000008+I20000000000+0000001390+Z
157045001157045903-000848     157045008692806080076SWT SNACK BISCUIT 70g  0000001000+00000613+00000+0001T   00000613+0000001416          1400 TM2150               2AZ
157045002157045903-000849     157045008692806080083SWT SNACK BISCUIT 70g  0000001000+00000613+00000+0001T   00000613+0000001416          1400 TM2150               2AZ
157046000157046               157046               170213JL     1400+00000+JL0000001753+0000001753+000000000+000000246+0000001990+0000000009+I20000000000+0000001990+Z
157046001157046077-000011-X   157046006001023809827TISSUE-WRAP SILVER 10PC0000001000+00001753+00000+0001T   00001753+0000001423          1400 TM2112               2AZ
157047000157047               157047               170213JL     1400+00000+JL0000024637+0000024637+000000000+000003452+0000028080+0000000009+I20000000000+0000028080+Z
157047001157047361-090307     157047000026676675601PONY 11CM W/DOLL SML   0000001000+00002630+00000+0001T   00002630+0000001427          1400 TM2725               2AZ
157047002157047369-000100     157047006003000596256BABY BATH TOY SURFER   0000001000+00003507+00000+0001T   00003507+0000001427          1400 TM2745               2AZ
157047003157047031-086102     157047006001023900722P/FRAME PL WORD-TOP 4AS0000001000+00003507+00000+0001T   00003507+0000001427          1400 TM2510               2AZ
157047004157047077-000315     157047006003000181186GIFT-BAG 20x28cm MATT  0000001000+00001578+00000+0001T   00001578+0000001427          1400 TM2112               2AZ
157047005157047301-086007     157047006003000426706ORN OCC DAD WDN LETTERS0000001000+00004385+00000+0001T   00004385+0000001427          1400 TM2505               2AZ
157047006157047077-000315     157047006003000181186GIFT-BAG 20x28cm MATT  0000001000+00001578+00000+0001T   00001578+0000001427          1400 TM2112               2AZ
157047007157047030-000007     157047006001023527325PLAQUE WDN B/BOARD ASST0000001000+00002630+00000+0001T   00002630+0000001427          1400 TM2505               2AZ
157047008157047077-000463     157047006003000321698G/BAG GLITTER MED20x28 0000001000+00002192+00000+0001T   00002192+0000001427          1400 TM2112               2AZ
157047009157047565-000893     157047006003000643516NOVELTY FLASHING BALL  0000001000+00002630+00000+0001T   00002630+0000001427          1400 TM2745               2AZ
157048000157048               157048               170213JL     1400+00000+JL0000003943+0000003943+000000000+000000553+0000004490+0000000006+I20000000000+0000004490+Z
157048001157048018-000177     157048006001023797513MUG MINI LOVE ASSTD    0000001000+00000700+00000+0001T   00000700+0000001428          1400 TM2515               2AZ
157048002157048077-000321     157048006001023677501GIFT-BAG 11X14CM E/D FL0000001000+00000613+00000+0001T   00000613+0000001428          1400 TM2112               2AZ
157048003157048565-000041     157048006008766115642NOVELTY BALL ICON 5.5cm0000001000+00002630+00000+0001T   00002630+0000001428          1400 TM2745               2AZ
157049000157049               157049               170213JL     1400+00000+JL0000052697+0000052697+000000000+000007388+0000060085+0000000000+I40000060085+0000000000+Z
157049001157049304-001011     157049006001023806727FLWR ROSE RED W/BEAR   0000001000+00000613+00000+0001T   00000788+0006471432          1400 TM2510               2AZ
157049002157049003-009106     157049006003000456604ORN W/STONE W/BUG ASSTD0000001000+00007016+00000+0001T   00007016+0000001432          1400 TM2505               2AZ
157049003157049903-000012     157049006002099007308SWT MALLOW S/BERRY     0000003000+00000437+00000+0001T   00000437+0000001432          1400 TM2150               2AZ
157049004157049301-085004     157049006003000420469ORN LOVE PLAQUE 21X10CM0000001000+00003507+00000+0001T   00003946+0006471432          1400 TM2505               2AZ
157049005157049566-000068     157049006003000418046POP UP LOVE 2 ASSTD    0000001000+00002192+00000+0001T   00002192+0000001432          1400 TM2130               2AZ
157049006157049030-000031-A   157049006003000457588PLAQUE W/WORDS ASSTD   0000001000+00004385+00000+0001T   00004823+0006471432          1400 TM2505               2AZ
157049007157049903-000844     157049005010478432567SWT CANDY DL LUV HEARTS0000003000+00001314+00000+0001T   00001314+0000001432          1400 TM2150               2AZ
157049008157049051-600706     157049006003000604197S/GARDEN LIGHT 35cm PL 0000005000+00002367+00000+0001T   00002630+0008191432          1400 TM2820               2AZ
157049009157049124-002023     157049006003000367252BISCUIT TIN HEART SHAPE0000001000+00002630+00000+0001T   00003507+0008171432          1400 TM2300               2AZ
157049010157049368-000049     157049006003000536955PLUSH BEAR 15cm LOVE   0000001000+00004385+00000+0001T   00004385+0000001432          1400 TM2745               2AZ
157049011157049565-000071     157049006003000643387NOVELTY WIND UP CHATTER0000001000+00001139+00000+0001T   00001139+0000001432          1400 TM2745               2AZ
157049012157049368-000040     157049006003000671786PLUSH ICONS 7.5cm      0000001000+00002630+00000+0001T   00002630+0000001432          1400 TM2745               2AZ
157049013157049040-001006     157049006003000323029C/HLDR-SET 4PC GLS-CUP 0000001000+00007016+00000+0001T   00008771+0008171432          1400 TM2510               2AZ
157049014157049112-116069     157049006009681820277TCS CARRIER BAG JUMBO  0000002000+00000048+00000+0001T   00000048+0000001432          1400 TM2090               2AZ
157050000157050               157050               170213JL     1400+00000+JL0000004419+0000004419+000000000+000000619+0000005030+0000000008+I20000000000+0000005030+Z
157050001157050301-085000     157050006003000674299 ORN OCC. LOVE HEARTS  0000002000+00002192+00000+0001T   00002192+0000001434          1400 TM2505               2AZ
157050002157050112-116038     157050006009681820246TCS CARRIER BAG MIDI   0000001000+00000035+00000+0001T   00000035+0000001434          1400 TM2090               2AZ
157051000157051               157051               170213JL     1400+00000+JL0000002630+0000002630+000000000+000000369+0000002990+0000000009+I20000000000+0000002990+Z
157051001157051466-000515     157051006001023477408BALLS TENNIS BAG-OF-3  0000001000+00002630+00000+0001T   00002630+0000001444          1400 TM2785               2AZ
157052000157052               157052               170213JL     1400+00000+JL0000010559+0000010559+000000000+000001479+0000012030+0000000008+I20000000000+0000012030+Z
157052001157052006-000804     157052006003000574445STREAMERS 6-ROLLS 2.5cm0000001000+00001753+00000+0001T   00001753+0000001449          1400 TM2131               2AZ
157052002157052006-000165     157052006001023758392BALLOONS LRG BAG-OF-1000000001000+00008771+00000+0001T   00008771+0000001449          1400 TM2131               2AZ
157052003157052112-116038     157052006009681820246TCS CARRIER BAG MIDI   0000001000+00000035+00000+0001T   00000035+0000001449          1400 TM2090               2AZ
157053000157053               157053               170213JL     1400+00000+JL0000001578+0000001578+000000000+000000221+0000001790+0000000009+I20000000000+0000001790+Z
157053001157053077-000303     157053006001023593757GIFT-BAG PAPER MED     0000001000+00001578+00000+0001T   00001578+0000001450          1400 TM2112               2AZ
157054000157054               157054               170213JL     1400+00000+JL0000001874+0000001874+000000000+000000263+0000002130+0000000007+I20000000000+0000002130+Z
157054001157054304-001011     157054006001023806727FLWR ROSE RED W/BEAR   0000003000+00000613+00000+0001T   00000788+0006471452          1400 TM2510               2AZ
157054002157054112-116038     157054006009681820246TCS CARRIER BAG MIDI   0000001000+00000035+00000+0001T   00000035+0000001452          1400 TM2090               2AZ
157055000157055               157055               170213JL     1400+00000+JL0000004905+0000004905+000000000+000000688+0000005590+0000000003+I20000000000+0000005590+Z
157055001157055304-001011     157055006001023806727FLWR ROSE RED W/BEAR   0000004000+00000613+00000+0001T   00000788+0006471454          1400 TM2510               2AZ
157055002157055018-000177     157055006001023797513MUG MINI LOVE ASSTD    0000001000+00000700+00000+0001T   00000700+0000001454          1400 TM2515               2AZ
157055003157055903-000619     157055006003000672455SWT LOLLY STR/BRRY 140G0000001000+00001753+00000+0001T   00001753+0000001454          1400 TM2150               2AZ
157056000157056               157056               170213JL     1400+00000+JL0000008989+0000008989+000000000+000001261+0000010250+0000000000+I40000010250+0000000000+Z
157056001157056079-000280     157056006003000160723PAINT READYMIX 6PCE    0000001000+00002630+00000+0001T   00002630+0000001504          1400 TM2130               2AZ
157056002157056079-009702-D   157056008427973059354PAPER SIRIO A2 RED COL 0000001000+00001051+00000+0001T   00001051+0000001504          1400 TM2130               2AZ
157056003157056079-000275     157056006003000160488PAINT-BRUSHES 6PCE PRO 0000001000+00001753+00000+0001T   00001753+0000001504          1400 TM2130               2AZ
157056004157056016-006508     157056006003000181537S/JAR GLASS 10X12CM    0000001000+00003507+00000+0001T   00003507+0000001504          1400 TM2300               2AZ
157056005157056112-116069     157056006009681820277TCS CARRIER BAG JUMBO  0000001000+00000048+00000+0001T   00000048+0000001504          1400 TM2090               2AZ
157057000157057               157057               170213JL     1400+00000+JL0000002366+0000002366+000000000+000000332+0000002690+0000000008+I20000000000+0000002690+Z
157057001157057080-000100     157057006003000236114CARD & ENVELOPE BDAY   0000001000+00001753+00000+0001T   00001753+0000001512          1400 TM2112               2AZ
157057002157057306-000021     157057006001023169433EARBUDS 100PCE IN BAG  0000001000+00000613+00000+0001T   00000613+0000001512          1400 TM2200               2AZ
157058000157058               157058               170213JL     1400+00000+JL0000008189+0000008189+000000000+000001147+0000009330+0000000006+I20000000000+0000009330+Z
157058001157058304-001011     157058006001023806727FLWR ROSE RED W/BEAR   0000001000+00000613+00000+0001T   00000788+0006471514          1400 TM2510               2AZ
157058002157058077-000303     157058006001023593757GIFT-BAG PAPER MED     0000002000+00001578+00000+0001T   00001578+0000001514          1400 TM2112               2AZ
157058003157058368-000049     157058006003000536955PLUSH BEAR 15cm LOVE   0000001000+00004385+00000+0001T   00004385+0000001514          1400 TM2745               2AZ
157058004157058112-116038     157058006009681820246TCS CARRIER BAG MIDI   0000001000+00000035+00000+0001T   00000035+0000001514          1400 TM2090               2AZ
157059000157059               157059               170213JL     1400+00000+JL0000002628+0000002628+000000000+000000368+0000002990+0000000006+I20000000000+0000002990+Z
157059001157059006-000166-H   157059006003000608096BALLOONS HELIUM 6PC WHT0000001000+00001314+00000+0001T   00001314+0000001516          1400 TM2131               2AZ
157059002157059006-000166-D   157059006003000516490BALLOONS LRG 6PC RED   0000001000+00001314+00000+0001T   00001314+0000001516          1400 TM2131               2AZ
157060000157060               157060               170213JL     1400+00000+JL0000011574+0000011574+000000000+000001621+0000013190+0000000005+I20000000000+0000013190+Z
157060001157060077-000303     157060006001023593757GIFT-BAG PAPER MED     0000001000+00001578+00000+0001T   00001578+0000001521          1400 TM2112               2AZ
157060002157060368-000049     157060006003000536955PLUSH BEAR 15cm LOVE   0000001000+00004385+00000+0001T   00004385+0000001521          1400 TM2745               2AZ
157060003157060006-000190     157060006003000685530BALLOONS LOVE 81x91cm  0000001000+00004385+00000+0001T   00004385+0000001521          1400 TM2131               2AZ
157060004157060006-001000     157060006003000093779HELIUM BALLOON FILL    0000002000+00000613+00000+0001T   00000613+0000001521          1400 TM2131               2AZ
157061000157061               157061               170213JL     1400+00000+JL0000004385+0000004385+000000000+000000614+0000004999+0000000000+I40000004999+0000000000+Z
157061001157061368-000049     157061006003000536955PLUSH BEAR 15cm LOVE   0000001000+00004385+00000+0001T   00004385+0000001524          1400 TM2745               2AZ
157062000157062               157062               170213JL     1400+00000+JL0000002103+0000002103+000000000+000000295+0000002398+0000000000+I40000002398+0000000000+Z
157062001157062077-000245     157062006001023759214GIFT-RIBBON METALLICx2 0000001000+00001227+00000+0001T   00001227+0000001530          1400 TM2112               2AZ
157062002157062077-000151     157062006008766114676GIFT-WRAP C/PHANE ASSTD0000001000+00000876+00000+0001T   00000876+0000001530          1400 TM2112               2AZ
157063000157063               157063               170213JL     1400+00000+JL0000017590+0000017590+000000000+000002463+0000020053+0000000000+I40000020053+0000000000+Z
157063001157063267-000255     157063006001023892393PUZZLE 1000pc LANDSCAPE0000001000+00008771+00000+0001T   00008771+0000001534          1400 TM2755               2AZ
157063002157063267-000257     157063006003000308866PUZZLE 1500pc 87x57cm  0000001000+00008771+00000+0001T   00008771+0000001534          1400 TM2755               2AZ
157063003157063112-116069     157063006009681820277TCS CARRIER BAG JUMBO  0000001000+00000048+00000+0001T   00000048+0000001534          1400 TM2090               2AZ
157064000157064               157064               170213JL     1400+00000+JL0000004385+0000004385+000000000+000000614+0000004990+0000000009+I20000000000+0000004990+Z
157064001157064362-000107     157064006003000608799MAKE-UP GIRL BEAUTY-SET0000001000+00004385+00000+0001T   00004385+0000001534          1400 TM2160               2AZ
157065000157065               157065               170213JL     1400+00000+JL0000001490+0000001490+000000000+000000209+0000001690+0000000009+I20000000000+0000001690+Z
157065001157065007-000566     157065006003000640898NOVELTY PHONE NOTE-PAD 0000001000+00001490+00000+0001T   00001490+0000001535          1400 TM2130               2AZ
157066000157066               157066               170213JL     1400+00000+JL0000001753+0000001753+000000000+000000246+0000001990+0000000009+I20000000000+0000001990+Z
157066001157066007-000723     157066006003000226078MEMO BOOK W/PEN 100SHTS0000001000+00001753+00000+0001T   00001753+0000001537          1400 TM2130               2AZ
157067000157067               157067               170213JL     1400+00000+JL0000014430+0000014430+000000000+000002021+0000016450+0000000001+I20000000000+0000016450+Z
157067001157067006-000190     157067006003000685530BALLOONS LOVE 81x91cm  0000001000+00004385+00000+0001T   00004385+0000001539          1400 TM2131               2AZ
157067002157067031-086302-C   157067006001023910332P/FRAME COLL. PL 3-HOLE0000001000+00008771+00000+0001T   00008771+0000001539          1400 TM2510               2AZ
157067003157067112-116069     157067006009681820277TCS CARRIER BAG JUMBO  0000001000+00000048+00000+0001T   00000048+0000001539          1400 TM2090               2AZ
157067004157067006-001000     157067006003000093779HELIUM BALLOON FILL    0000002000+00000613+00000+0001T   00000613+0000001539          1400 TM2131               2AZ
157068000157068               157068               170213JL     1400+00000+JL0000002452+0000002452+000000000+000000344+0000002790+0000000006+I20000000000+0000002790+Z
157068001157068083-000055     157068006003000003853LIGHTER ELCTRNC REFILBL0000004000+00000613+00000+0001T   00000613+0000001540          1400 TM2315               2AZ
157069000157069               157069               170213JL     1400+00000+JL0000012046+0000012046+000000000+000001689+0000013735+0000000000+I40000013735+0000000000+Z
157069001157069079-006522     157069006001023149442ART+CRAFT GLUE ASSORTED0000001000+00001753+00000+0001T   00001753+0000001542          1400 TM2130               2AZ
157069002157069055-009254     157069006001023527073PICTURE-HOOK+PINS 5PCE 0000001000+00001490+00000+0001T   00001490+0000001542          1400 TM2810               2AZ
157069003157069079-013032-B   157069006003000389445MIXED SHAPES           0000002000+00001753+00000+0001T   00001753+0000001542          1400 TM2130               2AZ
157069004157069566-000047     157069006003000159093SCRAPBOOK 100xSHEETS   0000001000+00005262+00000+0001T   00005262+0000001542          1400 TM2130               2AZ
157069005157069112-116038     157069006009681820246TCS CARRIER BAG MIDI   0000001000+00000035+00000+0001T   00000035+0000001542          1400 TM2090               2AZ
157070000157070               157070               170213JL     1400+00000+JL0000003507+0000003507+000000000+000000491+0000003990+0000000008+I20000000000+0000003990+Z
157070001157070046-000005     157070004897006174844BATTERY 9VOLT ALKALINE 0000001000+00003507+00000+0001T   00003507+0000001545          1400 TM2312               2AZ
157071000157071               157071               170213JL     1400+00000+JL0000017935+0000017935+000000000+000002514+0000020449+0000000000+I40000020449+0000000000+Z
157071001157071018-030000     157071006003000421060MUG OCCASIONS LOVE 2PCE0000001000+00004385+00000+0001T   00004385+0000001608          1400 TM25152IC            2AZ
157071002157071018-000130     157071006001023867537MUG OCC LOVE MINI+HEART0000001000+00003507+00000+0001T   00003507+0000001608          1400 TM25152IC            2AZ
157071003157071077-000270     157071006003000395453GIFT-BAG PPR JMB 33X45 0000001000+00002630+00000+0001T   00002630+0000001608          1400 TM2112               2AZ
157071004157071368-000637     157071006001023874092PLUSH BEAR SLEEPING LOV0000001000+00011402+00000+0001T   00012279+0006471608          1400 TM2745               2AZ
157071005157071112-116069     157071006009681820277TCS CARRIER BAG JUMBO  0000001000+00000048+00000+0001T   00000048+0000001608          1400 TM2090               2AZ
157071006157071077-000270     157071006003000395453GIFT-BAG PPR JMB 33X45 0000001000-00002630+00000+0001T   00002630+0000001608          1400 TM21122IC            2 Z
157071007157071018-030000     157071006003000421060MUG OCCASIONS LOVE 2PCE0000001000-00004385+00000+0001T   00004385+0000001608          1400 TM25152IC            2 Z
157071008157071018-000130     157071006001023867537MUG OCC LOVE MINI+HEART0000001000-00003507+00000+0001T   00003507+0000001608          1400 TM25152IC            2 Z
157071009157071304-001011     157071006001023806727FLWR ROSE RED W/BEAR   0000002000+00000613+00000+0001T   00000788+0006471608          1400 TM2510               2AZ
157071010157071903-000619     157071006003000672455SWT LOLLY STR/BRRY 140G0000002000+00001753+00000+0001T   00001753+0000001608          1400 TM2150               2AZ
157071011157071077-000457     157071006003000285662G/BAG METALLIC JMB SOL 0000001000+00001753+00000+0001T   00001753+0000001608          1400 TM2112               2AZ
157072000157072               157072               170213JL     1400+00000+JL0000002630+0000002630+000000000+000000369+0000002990+0000000009+I20000000000+0000002990+Z
157072001157072071-001124     157072006001023802873MARKERS WHITEBOARD 3PCE0000001000+00002630+00000+0001T   00002630+0000001609          1400 TM2130               2AZ
157073000157073               157073               170213JL     1400+00000+JL0000001490+0000001490+000000000+000000209+0000001690+0000000009+I20000000000+0000001690+Z
157073001157073077-000299     157073006003000395576G/BAG 32x25cm LRG LOVE 0000001000+00001490+00000+0001T   00001490+0000001609          1400 TM2112               2AZ
157074000157074               157074               170213JL     1400+00000+JL0000016354+0000016354+000000000+000002292+0000018640+0000000006+I20000000000+0000018640+Z
157074001157074077-000303     157074006001023593757GIFT-BAG PAPER MED     0000001000+00001578+00000+0001T   00001578+0000001612          1400 TM2112               2AZ
157074002157074080-000133-A   157074006003000647019MINI VALENTINES CARD   0000002000+00000437+00000+0001T   00000437+0000001612          1400 TM2112               2AZ
157074003157074018-000136     157074006001023659026MUG OCC LOVE W/PLUSH   0000001000+00003507+00000+0001T   00003507+0000001612          1400 TM2515               2AZ
157074004157074077-000303     157074006001023593757GIFT-BAG PAPER MED     0000001000+00001578+00000+0001T   00001578+0000001612          1400 TM2112               2AZ
157074005157074018-019000     157074006003000557288MUG OCC. LOVE JUMBO    0000001000+00005262+00000+0001T   00005262+0000001612          1400 TM2515               2AZ
157074006157074112-116069     157074006009681820277TCS CARRIER BAG JUMBO  0000001000+00000048+00000+0001T   00000048+0000001612          1400 TM2090               2AZ
157074007157074018-000130     157074006001023867537MUG OCC LOVE MINI+HEART0000001000+00003507+00000+0001T   00003507+0000001612          1400 TM2515               2AZ
157075000157075               157075               170213JL     1400+00000+JL0000003242+0000003242+000000000+000000455+0000003697+0000000000+I40000003697+0000000000+Z
157075001157075077-000358     157075006003000329977GIFT-BAG KIDS 25X32CM  0000001000+00001753+00000+0001T   00001753+0000001613          1400 TM2112               2AZ
157075002157075083-000295     157075006001023898562LIGHTER-GAS BUTANE 18ml0000001000+00000876+00000+0001T   00000876+0000001613          1400 TM2315               2AZ
157075003157075083-000055     157075006003000003853LIGHTER ELCTRNC REFILBL0000001000+00000613+00000+0001T   00000613+0000001613          1400 TM2315               2AZ
157076000157076               157076               170213JL     1400+00000+JL0000006959+0000006959+000000000+000000976+0000007935+0000000000+I40000007935+0000000000+Z
157076001157076146-000460     157076006003000528837SPRINKLER PYRAMID PL   0000001000+00001314+00000+0001T   00001314+0000001614          1400 TM2820               2AZ
157076002157076051-600706     157076006003000604197S/GARDEN LIGHT 35cm PL 0000002000+00002367+00000+0001T   00002630+0008191614          1400 TM2820               2AZ
157076003157076089-000192-A   157076006001023901774KEY-CHAIN ACRYLIC      0000001000+00000876+00000+0001T   00000876+0000001614          1400 TM2205               2AZ
157076004157076112-116038     157076006009681820246TCS CARRIER BAG MIDI   0000001000+00000035+00000+0001T   00000035+0000001614          1400 TM2090               2AZ
157077000157077               157077               170213JL     1400+00000+JL0000038525+0000038525+000000000+000005404+0000043929+0000000000+I40000043929+0000000000+Z
157077001157077112-116069     157077006009681820277TCS CARRIER BAG JUMBO  0000001000+00000048+00000+0001T   00000048+0000001619          1400 TM2090               2AZ
157077002157077903-000624     157077006003000671793SWEET LOLLY BLU/BRRY   0000001000+00001753+00000+0001T   00001753+0000001619          1400 TM2150               2AZ
157077003157077903-000619     157077006003000672455SWT LOLLY STR/BRRY 140G0000001000+00001753+00000+0001T   00001753+0000001619          1400 TM2150               2AZ
157077004157077903-000624     157077006003000671793SWEET LOLLY BLU/BRRY   0000001000+00001753+00000+0001T   00001753+0000001619          1400 TM2150               2AZ
157077005157077089-000098     157077006003000677443KEY CHAIN OPENER ASSTD 0000001000+00001314+00000+0001T   00001314+0000001619          1400 TM2205               2AZ
157077006157077034-091339     157077006003000568253BABY BIB 33x39cm 4ASSTD0000001000+00003507+00000+0001T   00003507+0000001619          1400 TM2215               2AZ
157077007157077077-000011-D   157077006001023808554TISSUE-WRAP WHITE 10PCE0000001000+00000876+00000+0001T   00000876+0000001619          1400 TM2112               2AZ
157077008157077306-000024-A   157077006003000577309COTTON-WOOL-PADS 80PC  0000001000+00001753+00000+0001T   00001753+0000001619          1400 TM2200               2AZ
157077009157077024-000083     157077006001023770943SIEVE FLOUR 20cm MTL-RI0000001000+00001753+00000+0001T   00001753+0000001619          1400 TM2300               2AZ
157077010157077024-000097     157077006001023770035MEASURING-SET 11PCE WHT0000001000+00002192+00000+0001T   00002192+0000001619          1400 TM2300               2AZ
157077011157077079-105611     157077006003000249596ART+CRAFT INK PAD 1CLR 0000001000+00002630+00000+0001T   00002630+0000001619          1400 TM2130               2AZ
157077012157077077-000011     157077006003000542352PAPER RAFFIA ASSTD COL 0000001000+00001753+00000+0001T   00001753+0000001619          1400 TM2112               2AZ
157077013157077562-000216     157077006003000113880EDU PUSH-IN WDN BOARD  0000001000+00001753+00000+0001T   00001753+0000001619          1400 TM2755               2AZ
157077014157077306-000993     157077006003000560110FIRSTAID PLASTER 75PC  0000001000+00002630+00000+0001T   00002630+0000001619          1400 TM2200               2AZ
157077015157077030-000010     157077006003000084395P/DOOR HANGER 2-ASSTD  0000001000+00001314+00000+0001T   00001490+0008181619          1400 TM2505               2AZ
157077016157077566-000012     157077000721129023502S/BOOK H/MADE BORDERS  0000001000+00000613+00000+0001T   00000613+0000001619          1400 TM2130               2AZ
157077017157077562-000216     157077006003000113880EDU PUSH-IN WDN BOARD  0000001000+00001753+00000+0001T   00001753+0000001619          1400 TM2755               2AZ
157077018157077002-220002     157077006001023677877F/COVER SQ 31cm WHT    0000001000+00002630+00000+0001T   00002630+0000001619          1400 TM2300               2AZ
157077019157077089-001021     157077006003000112319KEY CHAIN MINI BIBLE   0000001000+00001490+00000+0001T   00001490+0000001619          1400 TM2205               2AZ
157077020157077089-000098     157077006003000677443KEY CHAIN OPENER ASSTD 0000001000+00001314+00000+0001T   00001314+0000001619          1400 TM2205               2AZ
157077021157077083-000049     157077004891035200024CIG-LIGHTER DISPOSABLE 0000001000+00000437+00000+0001T   00000437+0000001619          1400 TM2315               2AZ
157077022157077079-105601     157077006003000231171ART+CRAFT STAMP ASSTD  0000001000+00001753+00000+0001T   00001753+0000001619          1400 TM2130               2AZ
157077023157077077-000381     157077006003000247707GIFT-BAG 25X32CM S/COL 0000001000+00001753+00000+0001T   00001753+0000001619          1400 TM2112               2AZ
157078000157078               157078               170213JL     1400+00000+JL0000006084+0000006084+000000000+000000853+0000006937+0000000000+I40000006937+0000000000+Z
157078001157078903-000095     157078006001704011495SWT SPECKLED-EGGS 100G 0000001000+00002104+00000+0001T   00002104+0000001622          1400 TM2150               2AZ
157078002157078032-000336     157078006001023369109MIRROR HANGING MAGNETIC0000001000+00002192+00000+0001T   00002192+0000001622          1400 TM2510               2AZ
157078003157078133-000036     157078006003000133376CLOTHS M/PURPOSE PACK-20000001000+00001753+00000+0001T   00001753+0000001622          1400 TM2212               2AZ
157078004157078112-116038     157078006009681820246TCS CARRIER BAG MIDI   0000001000+00000035+00000+0001T   00000035+0000001622          1400 TM2090               2AZ
157079000157079               157079               170213JL     1400+00000+JL0000001578+0000001578+000000000+000000221+0000001790+0000000009+I20000000000+0000001790+Z
157079001157079077-000323     157079006001023677563G/BAG 25X32CM E/DAY FLO0000001000+00001578+00000+0001T   00001578+0000001624          1400 TM2112               2AZ
157080000157080               157080               170213JL     1400+00000+JL0000005033+0000005033+000000000+000000705+0000005730+0000000008+I20000000000+0000005730+Z
157080001157080368-000049     157080006003000536955PLUSH BEAR 15cm LOVE   0000001000+00004385+00000+0001T   00004385+0000001625          1400 TM2745               2AZ
157080002157080077-000311     157080006001023608666GIFT-BAG 11X14CM GLOSS 0000001000+00000613+00000+0001T   00000613+0000001625          1400 TM2112               2AZ
157080003157080112-116038     157080006009681820246TCS CARRIER BAG MIDI   0000001000+00000035+00000+0001T   00000035+0000001625          1400 TM2090               2AZ
157081000157081               157081               170213JL     1400+00000+JL0000001753+0000001753+000000000+000000246+0000001990+0000000009+I20000000000+0000001990+Z
157081001157081077-000309     157081006001023608604GIFT-BAG 25X32CM GLOSS 0000001000+00001753+00000+0001T   00001753+0000001627          1400 TM2112               2AZ
157082000157082               157082               170213JL     1400+00000+JL0000003542+0000003542+000000000+000000496+0000004030+0000000008+I20000000000+0000004030+Z
157082001157082018-000136     157082006001023659026MUG OCC LOVE W/PLUSH   0000001000+00003507+00000+0001T   00003507+0000001634          1400 TM2515               2AZ
157082002157082112-116038     157082006009681820246TCS CARRIER BAG MIDI   0000001000+00000035+00000+0001T   00000035+0000001634          1400 TM2090               2AZ
157083000157083               157083               170213JL     1400+00000+JL0000001788+0000001788+000000000+000000251+0000002030+0000000009+I20000000000+0000002030+Z
157083001157083108-005005     157083006003000667451TRAY PL 29x21cm RECT   0000001000+00001753+00000+0001T   00001753+0000001635          1400 TM2210               2AZ
157083002157083112-116038     157083006009681820246TCS CARRIER BAG MIDI   0000001000+00000035+00000+0001T   00000035+0000001635          1400 TM2090               2AZ
157084000157084               157084               170213JL     1400+00000+JL0000010261+0000010261+000000000+000001437+0000011690+0000000008+I20000000000+0000011690+Z
157084001157084077-000299     157084006003000395576G/BAG 32x25cm LRG LOVE 0000001000+00001490+00000+0001T   00001490+0000001639          1400 TM2112               2AZ
157084002157084001-091415     157084006003000329113W/GLS OCC. LOVE 2PC 2800000001000+00008771+00000+0001T   00009648+0006471639          1400 TM2515               2AZ
157085000157085               157085               170213JL     1400+00000+JL0000004821+0000004821+000000000+000000675+0000005490+0000000006+I20000000000+0000005490+Z
157085001157085077-000407     157085006003000145096G/BAG PP 19X26X8CM     0000001000+00001314+00000+0001T   00001314+0000001640          1400 TM2112               2AZ
157085002157085018-000136     157085006001023659026MUG OCC LOVE W/PLUSH   0000001000+00003507+00000+0001T   00003507+0000001640          1400 TM2515               2AZ
157086000157086               157086               170213JL     1400+00000+JL0000004587+0000004587+000000000+000000646+0000005233+0000000000+I40000005233+0000000000+Z
157086001157086006-000166-C   157086006003000516377BALLOONS LRG 6PC PINK  0000001000+00001314+00000+0001T   00001314+0000001644          1400 TM2131               2AZ
157086002157086903-000200     157086006009826020234SWT CHOC RP CHOCO 23G  0000003000+00000788+00000+0001T   00000788+0000001644          1400 TM2150               2AZ
157086003157086112-116038     157086006009681820246TCS CARRIER BAG MIDI   0000001000+00000035+00000+0001T   00000035+0000001644          1400 TM2090               2AZ
157086004157086080-000133-A   157086006003000647019MINI VALENTINES CARD   0000002000+00000437+00000+0001T   00000437+0000001644          1400 TM2112               2AZ
157087000157087               157087               170213JL     1400+00000+JL0000001314+0000001314+000000000+000000184+0000001490+0000000008+I20000000000+0000001490+Z
157087001157087903-000194     157087006009826020616SWT CHOC RP LOLLY 25G  0000001000+00001314+00000+0001T   00001314+0000001646          1400 TM2150               2AZ
157088000157088               157088               170213JL     1400+00000+JL0000009555+0000009555+000000000+000001339+0000010894+0000000000+I40000010894+0000000000+Z
157088001157088018-000136     157088006001023659026MUG OCC LOVE W/PLUSH   0000001000+00003507+00000+0001T   00003507+0000001651          1400 TM2515               2AZ
157088002157088903-000200     157088006009826020234SWT CHOC RP CHOCO 23G  0000001000+00000788+00000+0001T   00000788+0000001651          1400 TM2150               2AZ
157088003157088030-000030-A   157088006003000249305PLAQUE GLASS LOVE      0000001000+00003069+00000+0001T   00003069+0000001651          1400 TM2505               2AZ
157088004157088077-000303     157088006001023593757GIFT-BAG PAPER MED     0000001000+00001578+00000+0001T   00001578+0000001651          1400 TM2112               2AZ
157088005157088304-001116     157088006003000426164F/BUNCH ROSES 12-HEAD  0000001000-00005262+00000+0001T   00005262+0000001651          1400 TM25103IC            2AZ
157088006157088304-001011     157088006001023806727FLWR ROSE RED W/BEAR   0000001000+00000613+00000+0001T   00000788+0006471651          1400 TM2510               2AZ
157088007157088304-001116     157088006003000426164F/BUNCH ROSES 12-HEAD  0000001000+00005262+00000+0001T   00005262+0000001651          1400 TM2510               2AZ
157089000157089               157089               170213JL     1400+00000+JL0000010558+0000010558+000000000+000001479+0000012037+0000000000+I40000012037+0000000000+Z
157089001157089046-000012-A   157089006003000208296BATTERIES H/POWER SZ:AA0000002000+00002192+00000+0001T   00002192+0000001654          1400 TM2312               2AZ
157089002157089368-000265     157089006001023750914PLUSH BEAR 23CM ASSTD C0000001000+00006139+00000+0001T   00006139+0000001654          1400 TM2745               2AZ
157089003157089112-116038     157089006009681820246TCS CARRIER BAG MIDI   0000001000+00000035+00000+0001T   00000035+0000001654          1400 TM2090               2AZ
157090000157090               157090               170213JL     1400+00000+JL0000003946+0000003946+000000000+000000553+0000004490+0000000009+I20000000000+0000004490+Z
157090001157090024-000002     157090006001023741899S/BURNER-COVER SILV/BLK0000001000+00003946+00000+0001T   00004385+0008191655          1400 TM2300               2AZ
157091000157091               157091               170213JL     1400+00000+JL0000000437+0000000437+000000000+000000062+0000000490+0000000009+I20000000000+0000000490+Z
157091001157091080-000133-A   157091006003000647019MINI VALENTINES CARD   0000001000+00000437+00000+0001T   00000437+0000001656          1400 TM2112               2AZ
157092000157092               157092               170213JL     1400+00000+JL0000003554+0000003554+000000000+000000498+0000004052+0000000000+I40000004052+0000000000+Z
157092001157092006-000166-D   157092006003000516490BALLOONS LRG 6PC RED   0000001000+00001314+00000+0001T   00001314+0000001658          1400 TM2131               2AZ
157092002157092080-000127     157092006003000424351VALENTINES DAY 36x24CM 0000001000+00002192+00000+0001T   00002192+0000001658          1400 TM2112               2AZ
157092003157092112-116069     157092006009681820277TCS CARRIER BAG JUMBO  0000001000+00000048+00000+0001T   00000048+0000001658          1400 TM2090               2AZ
157093000157093               157093               170213JL     1400+00000+JL0000004342+0000004342+000000000+000000610+0000004950+0000000002+I20000000000+0000004950+Z
157093001157093079-009702-D   157093008427973059354PAPER SIRIO A2 RED COL 0000002000+00001051+00000+0001T   00001051+0000001704          1400 TM2130               2AZ
157093002157093080-000127     157093006003000424351VALENTINES DAY 36x24CM 0000001000+00002192+00000+0001T   00002192+0000001704          1400 TM2112               2AZ
157093003157093112-116069     157093006009681820277TCS CARRIER BAG JUMBO  0000001000+00000048+00000+0001T   00000048+0000001704          1400 TM2090               2AZ
157094000157094               157094               170213JL     1400+00000+JL0000005871+0000005871+000000000+000000823+0000006690+0000000004+I20000000000+0000006690+Z
157094001157094018-000177     157094006001023797513MUG MINI LOVE ASSTD    0000001000+00000700+00000+0001T   00000700+0000001705          1400 TM2515               2AZ
157094002157094903-000200     157094006009826020234SWT CHOC RP CHOCO 23G  0000001000+00000788+00000+0001T   00000788+0000001705          1400 TM2150               2AZ
157094003157094301-085004     157094006003000420469ORN LOVE PLAQUE 21X10CM0000001000+00003507+00000+0001T   00003946+0006471705          1400 TM2505               2AZ
157094004157094077-000302     157094008010410010195GIFT-BAG 18X23CM E/D   0000001000+00000876+00000+0001T   00000876+0000001705          1400 TM2112               2AZ
157095000157095               157095               170213JL     1400+00000+JL0000002278+0000002278+000000000+000000320+0000002590+0000000008+I20000000000+0000002590+Z
157095001157095077-000383     157095006003000247943GIFT-BAG 11X14CM S/COL 0000001000+00000788+00000+0001T   00000788+0000001710          1400 TM2112               2AZ
157095002157095159-000114     157095006001023507945SHOWER CAP PVC ASSTD   0000001000+00001490+00000+0001T   00001490+0000001710          1400 TM2200               2AZ
157096000157096               157096               170213JL     1400+00000+JL0000001314+0000001314+000000000+000000184+0000001490+0000000008+I20000000000+0000001490+Z
157096001157096567-011401     157096009781453000564BK COLOURING BABY ANIMA0000001000+00001314+00000+0001T   00001314+0000001711          1400 TM2757               2AZ
157097000157097               157097               170213JL     1400+00000+JL0000001963+0000001963+000000000+000000275+0000002238+0000000000+I40000002238+0000000000+Z
157097001157097112-116038     157097006009681820246TCS CARRIER BAG MIDI   0000001000+00000035+00000+0001T   00000035+0000001713          1400 TM2090               2AZ
157097002157097007-000204     157097006009635835272EXAM-PAD 60SHT PUNCHED 0000002000+00000964+00000+0001T   00000964+0000001713          1400 TM2130               2AZ
157098000157098               157098               170213JL     1400+00000+JL0000002190+0000002190+000000000+000000308+0000002498+0000000000+I40000002498+0000000000+Z
157098001157098080-000133-A   157098006003000647019MINI VALENTINES CARD   0000001000+00000437+00000+0001T   00000437+0000001716          1400 TM2112               2AZ
157098002157098077-000309     157098006001023608604GIFT-BAG 25X32CM GLOSS 0000001000+00001753+00000+0001T   00001753+0000001716          1400 TM2112               2AZ
157099000157099               157099               170213JL     1400+00000+JL0000006363+0000006363+000000000+000000902+0000007260+0000000005+I20000000000+0000007260+Z
157099001157099006-000172-H   157099006003000610211BALLOONS METALLIC RED  0000023000+00000218+00000+0001T   00000218+0000001718          1400 TM2131               2AZ
157099002157099006-000166-D   157099006003000516490BALLOONS LRG 6PC RED   0000001000+00001314+00000+0001T   00001314+0000001718          1400 TM2131               2AZ
157099003157099112-116038     157099006009681820246TCS CARRIER BAG MIDI   0000001000+00000035+00000+0001T   00000035+0000001718          1400 TM2090               2AZ
157100000157100               157100               170213JL     1400+00000+JL0000003506+0000003506+000000000+000000492+0000003990+0000000008+I20000000000+0000003990+Z
157100001157100077-000358     157100006003000329977GIFT-BAG KIDS 25X32CM  0000002000+00001753+00000+0001T   00001753+0000001719          1400 TM2112               2AZ
157101000157101               157101               170213JL     1400+00000+JL0000004856+0000004856+000000000+000000681+0000005530+0000000007+I20000000000+0000005530+Z
157101001157101089-000005     157101006003000094806KEY CHAIN CARDS MTL    0000001000+00003069+00000+0001T   00003069+0000001723          1400 TM2205               2AZ
157101002157101903-000521     157101006001704009652SWT GUMMY SOFT GUMS    0000001000+00000876+00000+0001T   00000876+0000001723          1400 TM2150               2AZ
157101003157101903-000494     157101006001704009911SWT GUMMY TEENY TEDDIES0000001000+00000876+00000+0001T   00000876+0000001723          1400 TM2150               2AZ
157101004157101112-116038     157101006009681820246TCS CARRIER BAG MIDI   0000001000+00000035+00000+0001T   00000035+0000001723          1400 TM2090               2AZ
157102000157102               157102               170213JL     1400+00000+JL0000004120+0000004120+000000000+000000578+0000004690+0000000008+I20000000000+0000004690+Z
157102001157102077-000299     157102006003000395576G/BAG 32x25cm LRG LOVE 0000001000+00001490+00000+0001T   00001490+0000001732          1400 TM2112               2AZ
157102002157102073-000157     157102006003000571734COSMETIC QUILTED BAG   0000001000+00002630+00000+0001T   00002630+0000001732          1400 TM2200               2AZ
157103000157103               157103               170213JL     1400+00000+JL0000001314+0000001314+000000000+000000184+0000001490+0000000008+I20000000000+0000001490+Z
157103001157103006-000166-D   157103006003000516490BALLOONS LRG 6PC RED   0000001000+00001314+00000+0001T   00001314+0000001736          1400 TM2131               2AZ
157104000157104               157104               170213JL     1400+00000+JL0000001753+0000001753+000000000+000000246+0000001990+0000000009+I20000000000+0000001990+Z
157104001157104006-000120     157104006001023346889BALLOONS 10PC MIX COL  0000001000+00001753+00000+0001T   00001753+0000001737          1400 TM2131               2AZ
157105000157105               157105               170213JL     1400+00000+JL0000002192+0000002192+000000000+000000307+0000002490+0000000009+I20000000000+0000002490+Z
157105001157105366-002695     157105006003000222766DRESS UP HAT ROUND GLIT0000001000+00002192+00000+0001T   00002192+0000001739          1400 TM2131               2AZ
157106000157106               157106               170213JL     1400+00000+JL0000006925+0000006925+000000000+000000971+0000007890+0000000006+I20000000000+0000007890+Z
157106001157106368-000001     157106006003000097982Plush Bear 25cm        0000001000+00004385+00000+0001T   00004385+0000001740          1400 TM2745               2AZ
157106002157106304-001011     157106006001023806727FLWR ROSE RED W/BEAR   0000001000+00000613+00000+0001T   00000788+0006471740          1400 TM2510               2AZ
157106003157106080-000133     157106006003000535613CARD&ENV MINI ASTD DSGN0000001000+00000437+00000+0001T   00000437+0000001740          1400 TM2112               2AZ
157106004157106077-000299     157106006003000395576G/BAG 32x25cm LRG LOVE 0000001000+00001490+00000+0001T   00001490+0000001740          1400 TM2112               2AZ
157107000157107               157107               170213JL     1400+00000+JL0000007049+0000007049+000000000+000000987+0000008030+0000000006+I20000000000+0000008030+Z
157107001157107018-000136     157107006001023659026MUG OCC LOVE W/PLUSH   0000002000+00003507+00000+0001T   00003507+0000001743          1400 TM2515               2AZ
157107002157107112-116038     157107006009681820246TCS CARRIER BAG MIDI   0000001000+00000035+00000+0001T   00000035+0000001743          1400 TM2090               2AZ
157108000157108               157108               170213JL     1400+00000+JL0000003506+0000003506+000000000+000000492+0000003990+0000000008+I20000000000+0000003990+Z
157108001157108046-002013-PK6 157108004897006174851BATTERY BUTTON AG13 6PC0000001000+00001753+00000+0001T   00001753+0000001744          1400 TM2312               2AZ
157108002157108046-002032-PK2 157108004897006175063BATTERIES CR-2032  2PCE0000001000+00001753+00000+0001T   00001753+0000001744          1400 TM2312               2AZ
157109000157109               157109               170213JL     1400+00000+JL0000006174+0000006174+000000000+000000865+0000007030+0000000009+I20000000000+0000007030+Z
157109001157109018-050000     157109006003000412679MUG OCC LOVE TWIN BEAR 0000001000+00006139+00000+0001T   00006139+0000001748          1400 TM2515               2AZ
157109002157109112-116038     157109006009681820246TCS CARRIER BAG MIDI   0000001000+00000035+00000+0001T   00000035+0000001748          1400 TM2090               2AZ
157110000157110               157110               170213JL     1400+00000+JL0000005262+0000005262+000000000+000000737+0000005990+0000000009+I20000000000+0000005990+Z
157110001157110018-019000     157110006003000557288MUG OCC. LOVE JUMBO    0000001000+00005262+00000+0001T   00005262+0000001749          1400 TM2515               2AZ
157111000157111               157111               170213JL     1400+00000+JL0000000613+0000000613+000000000+000000086+0000000690+0000000009+I20000000000+0000000690+Z
157111001157111304-001011     157111006001023806727FLWR ROSE RED W/BEAR   0000001000+00000613+00000+0001T   00000788+0006471749          1400 TM2510               2AZ
157112000157112               157112               170213JL     1400+00000+JL0000003506+0000003506+000000000+000000492+0000003998+0000000000+I40000003998+0000000000+Z
157112001157112079-013032-B   157112006003000389445MIXED SHAPES           0000001000+00001753+00000+0001T   00001753+0000001757          1400 TM2130               2AZ
157112002157112566-000040     157112006003000142316SCRAPBOOK 12xDESIGN AST0000001000+00001753+00000+0001T   00002630+0008151757          1400 TM2130               2AZ
157113000157113               157113               170213JL     1400+00000+JL0000009208+0000009208+000000000+000001290+0000010490+0000000008+I20000000000+0000010490+Z
157113001157113001-091415     157113006003000329113W/GLS OCC. LOVE 2PC 2800000001000+00008771+00000+0001T   00009648+0006471800          1400 TM2515               2AZ
157113002157113080-000133-A   157113006003000647019MINI VALENTINES CARD   0000001000+00000437+00000+0001T   00000437+0000001800          1400 TM2112               2AZ
A17021300                                          16101723JLSLAVE 2                       TM23IC
B15707100                                          170213JL018-030000     16005821SLAVE 2     TM22IC0000002000+0000001000+0000000000000+
B15707101                                          170213JL018-000130     16010744SLAVE 2     TM22IC0000002000+0000001000+0000000000000+
M17021301                              IT          JLATT:IT                                          LAST TILL SLIP NUM SLAVE 2                      WAS 157113                                      THANKS                                          JL
M17021391                              CASH        JLSLAVE 2                       Z-REPORT No.   648TOTAL (Sales - Refunds)           8256.06       CASH TO BE BANKED                 4744.70       DEBIT CARDS                          0.00       CREDIT CARDS                      3511.36       Z-READING                         8256.06       AIRTIME DEBIT CARD SALES             0.00       AIRTIME CARD SALES                   0.00       OVERS/UNDERS                         0.00       AIRTIME CASH SALES                   0.00       GIFT CARDS                           0.00       GIFT CARD CASH SALES                 0.00       T O T A L  CASH PAYOUTS              0.00                                                                                                                                                                                                                                                                                                                                                      Z
M17021392                              CASH        JLABSENT                                                                                                                                                                                          ANNUAL LEAVE                                                                                                                                                                                    DAY OFF                                                                                                                                                                                         COMMENTS                                                                                                                                                                                                                                                                                                                                                                                       Z
Y17021300                                          JL00000000740385+000106
ZJL17021321103 SLAVE 2      SALES DATA                     NEXT INVOICE NO.  157114 0648
F094728261-004007         1702040932450000082ICSLAVE 2
F094728366-002694         1702040932450000032ICSLAVE 2
F094844140-001001         1702110753230000101ICSLAVE 2
X JL Slave 2 First invoice 157008 170213 Last invoice 157113 170213 Next invoice 157114 Total number of records 000000436 clbackup completed 21:10:11
