161007000161007               161007               170213JL     1400+00000+JL0000000000+0000000000+000000000+000000000+0000000000+            00000000000+0000000000+Z
M17021301                              IT          JLATT: IT                                         SLAVE 3                                         NOT USED                                        THANX JL
M17021391                              CASH        JLSLAVE 3                       Z-REPORT No.   599TOTAL (Sales - Refunds)              0.00       CASH TO BE BANKED                    0.00       DEBIT CARDS                          0.00       CREDIT CARDS                         0.00       Z-READING                            0.00       AIRTIME DEBIT CARD SALES             0.00       AIRTIME CARD SALES                   0.00       OVERS/UNDERS                         0.00       AIRTIME CASH SALES                   0.00       GIFT CARDS                           0.00       GIFT CARD CASH SALES                 0.00       T O T A L  CASH PAYOUTS              0.00                                                                                                                                                                                                                                                                                                                                                      Z
M17021392                              CASH        JLABSENT                                                                                                                                                                                          ANNUAL LEAVE                                                                                                                                                                                    DAY OFF                                                                                                                                                                                         COMMENTS                                                                                                                                                                                                                                                                                                                                                                                       Z
Y17021300                                          JL00000000000000+000000
ZJL17021321103 SLAVE 3      SALES DATA                     NEXT INVOICE NO.  161008 0599
L50109100354399-001-003       JL1702131135001ICKEKANA LINDA                                                                                                                                                                                                                                                                                                                                                                                                                                                                                                                                                                                                                                                                                                                                                                                                                                                                                                                                                                                         Z
L50109100354399-002-003       JL1702131128381ICKEKANA LINDA                                                                                                                                                                                                                                                                                                                                                                                                                                                                                                                                                                                                                                                                                                                                                                                                                                                                                                                                                                                         Z
L50109100354399-003-003       JL1702131134521ICKEKANA LINDA                                                                                                                                                                                                                                                                                                                                                                                                                                                                                                                                                                                                                                                                                                                                                                                                                                                                                                                                                                                         Z
L54893100355863-001-002       JL1702131135281ICKEKANA LINDA                                                                                                                                                                                                                                                                                                                                                                                                                                                                                                                                                                                                                                                                                                                                                                                                                                                                                                                                                                                         Z
L54893100355863-002-002       JL1702131135161ICKEKANA LINDA                                                                                                                                                                                                                                                                                                                                                                                                                                                                                                                                                                                                                                                                                                                                                                                                                                                                                                                                                                                         Z
L54907400354669-001-002       JL1702131136141ICKEKANA LINDA                                                                                                                                                                                                                                                                                                                                                                                                                                                                                                                                                                                                                                                                                                                                                                                                                                                                                                                                                                                         Z
L54907400354669-002-002       JL1702131134461ICKEKANA LINDA                                                                                                                                                                                                                                                                                                                                                                                                                                                                                                                                                                                                                                                                                                                                                                                                                                                                                                                                                                                         Z
L54945600355413-001-001       JL1702131137251ICKEKANA LINDA                                                                                                                                                                                                                                                                                                                                                                                                                                                                                                                                                                                                                                                                                                                                                                                                                                                                                                                                                                                         Z
L55338600347371-001-002       JL1702131129411ICKEKANA LINDA                                                                                                                                                                                                                                                                                                                                                                                                                                                                                                                                                                                                                                                                                                                                                                                                                                                                                                                                                                                         Z
L55338600347371-002-002       JL1702131129551ICKEKANA LINDA                                                                                                                                                                                                                                                                                                                                                                                                                                                                                                                                                                                                                                                                                                                                                                                                                                                                                                                                                                                         Z
L56322800352471-001-002       JL1702131130071ICKEKANA LINDA                                                                                                                                                                                                                                                                                                                                                                                                                                                                                                                                                                                                                                                                                                                                                                                                                                                                                                                                                                                         Z
L56322800352471-002-002       JL1702131130111ICKEKANA LINDA                                                                                                                                                                                                                                                                                                                                                                                                                                                                                                                                                                                                                                                                                                                                                                                                                                                                                                                                                                                         Z
L57297700358635-001-001       JL1702131137271ICKEKANA LINDA                                                                                                                                                                                                                                                                                                                                                                                                                                                                                                                                                                                                                                                                                                                                                                                                                                                                                                                                                                                         Z
L57372300354342-001-002       JL1702131129131ICKEKANA LINDA                                                                                                                                                                                                                                                                                                                                                                                                                                                                                                                                                                                                                                                                                                                                                                                                                                                                                                                                                                                         Z
L57372300354342-002-002       JL1702131129391ICKEKANA LINDA                                                                                                                                                                                                                                                                                                                                                                                                                                                                                                                                                                                                                                                                                                                                                                                                                                                                                                                                                                                         Z
L57820800356521-001-003       JL1702131134371ICKEKANA LINDA                                                                                                                                                                                                                                                                                                                                                                                                                                                                                                                                                                                                                                                                                                                                                                                                                                                                                                                                                                                         Z
L57820800356521-002-003       JL1702131135581ICKEKANA LINDA                                                                                                                                                                                                                                                                                                                                                                                                                                                                                                                                                                                                                                                                                                                                                                                                                                                                                                                                                                                         Z
L57820800356521-003-003       JL1702131135371ICKEKANA LINDA                                                                                                                                                                                                                                                                                                                                                                                                                                                                                                                                                                                                                                                                                                                                                                                                                                                                                                                                                                                         Z
L57825900357430-001-001       JL1702131137341ICKEKANA LINDA                                                                                                                                                                                                                                                                                                                                                                                                                                                                                                                                                                                                                                                                                                                                                                                                                                                                                                                                                                                         Z
L58229000357864-001-002       JL1702131136351ICKEKANA LINDA                                                                                                                                                                                                                                                                                                                                                                                                                                                                                                                                                                                                                                                                                                                                                                                                                                                                                                                                                                                         Z
L58229000357864-002-002       JL1702131136531ICKEKANA LINDA                                                                                                                                                                                                                                                                                                                                                                                                                                                                                                                                                                                                                                                                                                                                                                                                                                                                                                                                                                                         Z
L58239700354368-001-002       JL1702131132141ICKEKANA LINDA                                                                                                                                                                                                                                                                                                                                                                                                                                                                                                                                                                                                                                                                                                                                                                                                                                                                                                                                                                                         Z
L58239700354368-002-002       JL1702131128581ICKEKANA LINDA                                                                                                                                                                                                                                                                                                                                                                                                                                                                                                                                                                                                                                                                                                                                                                                                                                                                                                                                                                                         Z
L58305000355231-001-002       JL1702131137071ICKEKANA LINDA                                                                                                                                                                                                                                                                                                                                                                                                                                                                                                                                                                                                                                                                                                                                                                                                                                                                                                                                                                                         Z
L58305000355231-002-002       JL1702131137101ICKEKANA LINDA                                                                                                                                                                                                                                                                                                                                                                                                                                                                                                                                                                                                                                                                                                                                                                                                                                                                                                                                                                                         Z
L58390100354335-001-001       JL1702131137311ICKEKANA LINDA                                                                                                                                                                                                                                                                                                                                                                                                                                                                                                                                                                                                                                                                                                                                                                                                                                                                                                                                                                                         Z
L58400300353677-001-001       JL1702131137411ICKEKANA LINDA                                                                                                                                                                                                                                                                                                                                                                                                                                                                                                                                                                                                                                                                                                                                                                                                                                                                                                                                                                                         Z
L59310500360422-001-001       JL1702131136381ICKEKANA LINDA                                                                                                                                                                                                                                                                                                                                                                                                                                                                                                                                                                                                                                                                                                                                                                                                                                                                                                                                                                                         Z
V50109100000422-001-001       JL1702131136381ICKEKA               0000000000000001702130000001ICSLAVE 3     170213171903354399N              03
V54893100000422-001-001       JL1702131136381ICKEKA               000000000000000170213000000   SLAVE 3     000000000000355863               02
V54907400000422-001-001       JL1702131136381ICKEKA               0000000000000001702130000001ICSLAVE 3     170213171953354669N              02
V54945600000422-001-001       JL1702131136381ICKEKA               0000000000000001702130000001ICSLAVE 3     170213171135355413N              01
V55338600000422-001-001       JL1702131136381ICKEKA               000000000000000170213000000   SLAVE 3     000000000000347371               02
V56322800000422-001-001       JL1702131136381ICKEKA               000000000000000170213000000   SLAVE 3     000000000000352471               02
V57297700000422-001-001       JL1702131136381ICKEKA               0000000000000001702130000001ICSLAVE 3     170213171107358635N              01
V57372300000422-001-001       JL1702131136381ICKEKA               0000000000000001702130000001ICSLAVE 3     170213170715354342N              02
V57820800000422-001-001       JL1702131136381ICKEKA               000000000000000170213000000   SLAVE 3     000000000000356521               03
V57825900000422-001-001       JL1702131136381ICKEKA               0000000000000001702130000001ICSLAVE 3     170213171025357430N              01
V58229000000422-001-001       JL1702131136381ICKEKA               0000000000000001702130000001ICSLAVE 3     170213172110357864N              02
V58239700000422-001-001       JL1702131136381ICKEKA               0000000000000001702130000001ICSLAVE 3     170213171653354368N              02
V58305000000422-001-001       JL1702131136381ICKEKA               0000000000000001702130000001ICSLAVE 3     170213171229355231N              02
V58390100000422-001-001       JL1702131136381ICKEKA               0000000000000001702130000001ICSLAVE 3     170213170828354335N              01
V58400300000422-001-001       JL1702131136381ICKEKA               0000000000000001702130000001ICSLAVE 3     170213172038353677N              01
V59310500000422-001-001       JL1702131136381ICKEKA               0000000000000001702130000001ICSLAVE 3     170213170913360422N              01
X JL Slave 3 First invoice 161007 170213 Last invoice 161007 170213 Next invoice 161008 Total number of records 000000050 clbackup completed 21:10:13
