109394000109394               109394               170213JM     1400+00000+JM0000017357+0000017357+000000000+000002432+0000019780+0000000009+I20000000000+0000019780+Z
109394001109394301-085000     109394006003000674299 ORN OCC. LOVE HEARTS  0000001000+00002192+00000+0001T   00002192+0000000846          1400 RM6505               1AZ
109394002109394001-000175     109394006001023788108B/MUG GLS LOVE 380ML   0000001000+00004385+00000+0001T   00004385+0000000846          1400 RM6515               1AZ
109394003109394018-000127     109394006001023380289MUG OCC STRAIGHT LOVE  0000001000+00001578+00000+0001T   00001753+0006470846          1400 RM6515               1AZ
109394004109394018-019000     109394006003000557288MUG OCC. LOVE JUMBO    0000001000+00005262+00000+0001T   00005262+0000000846          1400 RM6515               1AZ
109394005109394903-003080     109394005907029004673SWT SNACK STIX CHOC 50g0000001000+00000876+00000+0001T   00000876+0000000846          1400 RM6150               1AZ
109394006109394018-000177     109394006001023797513MUG MINI LOVE ASSTD    0000001000+00000700+00000+0001T   00000700+0000000846          1400 RM6515               1AZ
109394007109394903-000194     109394006009826020616SWT CHOC RP LOLLY 25G  0000001000+00001314+00000+0001T   00001314+0000000846          1400 RM6150               1AZ
109394008109394903-000155     109394006009803374435SWT LOLLY I LUV U HEART0000002000+00000525+00000+0001T   00000525+0000000846          1400 RM6150               1AZ
109395000109395               109395               170213JM     1400+00000+JM0000000876+0000000876+000000000+000000123+0000000990+0000000009+I20000000000+0000000990+Z
109395001109395077-000150-D   109395006003000054343GIFT-WRAP CELLPHANE CLR0000001000+00000876+00000+0001T   00000876+0000000848          1400 RM6112               1AZ
109396000109396               109396               170213JM     1400+00000+JM0000010084+0000010084+000000000+000001413+0000011497+0000000000+I40000011497+0000000000+Z
109396001109396072-000600     109396006003000148431PET DOG HARNESS NYLON  0000001000+00005262+00000+0001T   00005262+0000000918          1400 RM6870               1AZ
109396002109396072-000234     109396006003000691487DOG-COLLAR REFLECTIVE  0000001000+00002192+00000+0001T   00002192+0000000918          1400 RM6870               1AZ
109396003109396072-020354     109396006001023649980DOG/CAT-BOWL LARGE     0000001000+00002630+00000+0001T   00002630+0000000918          1400 RM6870               1AZ
109397000109397               109397               170213JM     1400+00000+JM0000015834+0000015834+000000000+000002218+0000018050+0000000002+I20000000000+0000018050+Z
109397001109397368-000111     109397006001023780812PLUSH BEAR/DOG 29CM    0000001000+00012279+00000+0001T   00012279+0000000918          1400 RM6745               1AZ
109397002109397018-005009     109397006001023725608MUG W/PLUSH-BEAR LOVE  0000001000+00003507+00000+0001T   00003507+0000000918          1400 RM6515               1AZ
109397003109397112-116069     109397006009681820277TCS CARRIER BAG JUMBO  0000001000+00000048+00000+0001T   00000048+0000000918          1400 RM6090               1AZ
109398000109398               109398               170213JM     1400+00000+JM0000006169+0000006169+000000000+000000866+0000007035+0000000000+I40000007035+0000000000+Z
109398001109398077-000235     109398006003000160211GIFT-RIBBON ROLL METALC0000001000+00002630+00000+0001T   00002630+0000001005          1400 RM6112               1AZ
109398002109398077-000150-D   109398006003000054343GIFT-WRAP CELLPHANE CLR0000004000+00000876+00000+0001T   00000876+0000001005          1400 RM6112               1AZ
109398003109398112-116038     109398006009681820246TCS CARRIER BAG MIDI   0000001000+00000035+00000+0001T   00000035+0000001005          1400 RM6090               1AZ
109399000109399               109399               170213JM     1400+00000+JM0000014908+0000014908+000000000+000002088+0000016990+0000000006+I20000000000+0000016990+Z
109399001109399079-000342     109399006001023913326FELT-TIP PENS 24PCE    0000001000+00003507+00000+0001T   00003507+0000001034          1400 RM6130               1AZ
109399002109399079-000334     109399006003000670437THERAPY P/CRAYONS 18   0000001000+00005262+00000+0001T   00005262+0000001034          1400 RM6130               1AZ
109399003109399567-011423     109399006003000641345BK COLOURING THERAPY A50000001000+00006139+00000+0001T   00006139+0000001034          1400 RM6757               1AZ
109400000109400               109400               170213JM     1400+00000+JM0000005262+0000005262+000000000+000000737+0000005990+0000000009+I20000000000+0000005990+Z
109400001109400056-065300     109400006001023625854CAR SUNSHIELD ALUM FOIL0000001000+00005262+00000+0001L   00005262+0000001044          1400 RM6860               1AZ
109401000109401               109401               170213JM     1400+00000+JM0000009503+0000009503+000000000+000001331+0000010834+0000000000+I40000010834+0000000000+Z
109401001109401112-116038     109401006009681820246TCS CARRIER BAG MIDI   0000001000+00000035+00000+0001T   00000035+0000001048          1400 RM6090               1AZ
109401002109401018-000170     109401006001023775528MUG OCC. LOVE 2PC MINI 0000003000+00002192+00000+0001T   00002192+0000001048          1400 RM6515               1AZ
109401003109401903-000843     109401008693029031067SWT GUMMY JELAXY 80G   0000003000+00000964+00000+0001T   00000964+0000001048          1400 RM6150               1AZ
109402000109402               109402               170213JM     1400+00000+JM0000003682+0000003682+000000000+000000516+0000004190+0000000008+I20000000000+0000004190+Z
109402001109402079-013102     109402006003000019601ART+CRAFT DIY PIPE-CLNR0000001000+00002192+00000+0001T   00002192+0000001109          1400 RM6130               1AZ
109402002109402084-070000     109402006001023629982TWEEZER CHROME H/GLOW  0000001000+00001490+00000+0001T   00001490+0000001109          1400 RM6200               1AZ
109403000109403               109403               170213JM     1400+00000+JM0000003507+0000003507+000000000+000000491+0000003990+0000000008+I20000000000+0000003990+Z
109403001109403036-000515     109403006001023817402HOOK-HANGER PL-CTD 10HK0000001000+00003507+00000+0001T   00003507+0000001112          1400 RM6212               1AZ
109404000109404               109404               170213JM     1400+00000+JM0000000613+0000000613+000000000+000000086+0000000690+0000000009+I20000000000+0000000690+Z
109404001109404200-000130     109404006001023645067DESSERT-SPOONS 10PCE   0000001000+00000613+00000+0001T   00000613+0000001113          1400 RM6214               1AZ
109405000109405               109405               170213JM     1400+00000+JM0000005696+0000005696+000000000+000000800+0000006490+0000000006+I20000000000+0000006490+Z
109405001109405077-000354     109405006003000139224GIFT-BAG 25X32CM H/MADE0000001000+00001753+00000+0001T   00001753+0000001125          1400 RM6112               1AZ
109405002109405077-000299-A   109405006003000670888GIFT-BAG PAPER JMB LOVE0000001000+00001753+00000+0001T   00001753+0000001125          1400 RM6112               1AZ
109405003109405080-000102     109405006003000236855CARD&ENVLP FEMALE AFR  0000001000+00001753+00000+0001T   00001753+0000001125          1400 RM6112               1AZ
109405004109405080-000133-A   109405006003000647019MINI VALENTINES CARD   0000001000+00000437+00000+0001T   00000437+0000001125          1400 RM6112               1AZ
109406000109406               109406               170213JM     1400+00000+JM0000007973+0000007973+000000000+000001120+0000009093+0000000000+I40000009093+0000000000+Z
109406001109406077-000382     109406006003000247820GIFT-BAG MED 18X23CM   0000002000+00001753+00000+0001T   00001753+0000001127          1400 RM6112               1AZ
109406002109406903-000843     109406008693029031067SWT GUMMY JELAXY 80G   0000001000+00000964+00000+0001T   00000964+0000001127          1400 RM6150               1AZ
109406003109406080-000133-A   109406006003000647019MINI VALENTINES CARD   0000002000+00000437+00000+0001T   00000437+0000001127          1400 RM6112               1AZ
109406004109406071-000212     109406006009608641190CHALK WHITE 12PCE      0000001000+00000437+00000+0001T   00000437+0000001127          1400 RM6130               1AZ
109406005109406016-006517     109406006003000351626S/JAR GLS CHECK 650ML  0000001000+00002192+00000+0001T   00002192+0000001127          1400 RM6300               1AZ
109407000109407               109407               170213JM     1400+00000+JM0000000700+0000000700+000000000+000000098+0000000790+0000000008+I20000000000+0000000790+Z
109407001109407018-000177     109407006001023797513MUG MINI LOVE ASSTD    0000001000+00000700+00000+0001T   00000700+0000001127          1400 RM6515               1AZ
109408000109408               109408               170213JM     1400+00000+JM0000013984+0000013984+000000000+000001962+0000015940+0000000006+I20000000000+0000015940+Z
109408001109408112-116069     109408006009681820277TCS CARRIER BAG JUMBO  0000001000+00000048+00000+0001T   00000048+0000001128          1400 RM6090               1AZ
109408002109408080-000127     109408006003000424351VALENTINES DAY 36x24CM 0000002000+00002192+00000+0001T   00002192+0000001128          1400 RM6112               1AZ
109408003109408077-000010-C   109408006001023123879CREPE-PAPER RED        0000002000+00000788+00000+0001T   00000788+0000001128          1400 RM6112               1AZ
109408004109408077-000010-R   109408006001023123916CREPE-PAPER CANARY-YELL0000001000+00000788+00000+0001T   00000788+0000001128          1400 RM6112               1AZ
109408005109408030-000030-A   109408006003000249305PLAQUE GLASS LOVE      0000001000+00003069+00000+0001T   00003069+0000001128          1400 RM6505               1AZ
109408006109408206-000590     109408006003000633708BAG CLIPS LIPS 2PC     0000001000+00001753+00000+0001T   00001753+0000001128          1400 RM6321               1AZ
109408007109408251-000040     109408006001023515865SEALTAPE CLEAR 48mmx50m0000001000+00001227+00000+0001T   00001227+0000001128          1400 RM6810               1AZ
109408008109408903-000710     109408006002099007056SWT REFRESHERS MINT    0000001000+00001139+00000+0001T   00001139+0000001128          1400 RM6150               1AZ
109409000109409               109409               170213JM     1400+00000+JM0000001402+0000001402+000000000+000000197+0000001590+0000000009+I20000000000+0000001590+Z
109409001109409027-009030     109409006002814400100DUSTPAN PL             0000001000+00001402+00000+0001T   00001402+0000001131          1400 RM6212               1AZ
109410000109410               109410               170213JM     1400+00000+JM0000005783+0000005783+000000000+000000811+0000006590+0000000004+I20000000000+0000006590+Z
109410001109410206-000390     109410006003000631438STRAW PL BUILD A STRAW 0000001000+00002630+00000+0001T   00002630+0000001133          1400 RM6321               1AZ
109410002109410206-000590     109410006003000633708BAG CLIPS LIPS 2PC     0000001000+00001753+00000+0001T   00001753+0000001133          1400 RM6321               1AZ
109410003109410018-000177     109410006001023797513MUG MINI LOVE ASSTD    0000002000+00000700+00000+0001T   00000700+0000001133          1400 RM6515               1AZ
109411000109411               109411               170213JM     1400+00000+JM0000006926+0000006926+000000000+000000970+0000007896+0000000000+I40000007896+0000000000+Z
109411001109411077-000245     109411006001023759214GIFT-RIBBON METALLICx2 0000001000+00001227+00000+0001T   00001227+0000001144          1400 RM6112               1AZ
109411002109411566-000359     109411006003000582709STICKER BOOK LOVE SPARK0000001000+00002192+00000+0001T   00002192+0000001144          1400 RM6130               1AZ
109411003109411071-001010     109411006001023893314MARKERS-METALIC 3PCE   0000001000+00003507+00000+0001T   00003507+0000001144          1400 RM6130               1AZ
109412000109412               109412               170213JM     1400+00000+JM0000000000+0000000000+000000000+000000000+0000000000+0000000000+I20000000000+0000000000+Z
109412001109412200-003024     109412006001023657299REFUSE BAGS 20PCE BLACK0000001000-00001753+00000+0001T   00001753+0000001148          1400 RM62142IC            1 Z
109412002109412200-003024     109412006001023657299REFUSE BAGS 20PCE BLACK0000001000+00001753+00000+0001T   00001753+0000001148          1400 RM62142IC            1 Z
109413000109413               109413               170213JM     1400+00000+JM0000003542+0000003542+000000000+000000496+0000004038+0000000000+I40000004038+0000000000+Z
109413001109413018-000136     109413006001023659026MUG OCC LOVE W/PLUSH   0000001000+00003507+00000+0001T   00003507+0000001157          1400 RM6515               1AZ
109413002109413112-116038     109413006009681820246TCS CARRIER BAG MIDI   0000001000+00000035+00000+0001T   00000035+0000001157          1400 RM6090               1AZ
109414000109414               109414               170213JM     1400+00000+JM0000009818+0000009818+000000000+000001375+0000011193+0000000000+I40000011193+0000000000+Z
109414001109414150-000776     109414006001023839756UTILITY/TOOL-BOX PL    0000001000+00003507+00000+0001T   00003507+0000001304          1400 RM6810               1AZ
109414002109414077-000299     109414006003000395576G/BAG 32x25cm LRG LOVE 0000001000+00001490+00000+0001T   00001490+0000001304          1400 RM6112               1AZ
109414003109414903-004950     109414006002580020304SWT APRICOT SURPRISE   0000001000+00001314+00000+0001T   00001314+0000001304          1400 RM6150               1AZ
109414004109414004-071206     109414006003000605156USB CABLE CHARGER      0000001000+00003507+00000+0001T   00003507+0000001304          1400 RM6310               1AZ
109415000109415               109415               170213JM     1400+00000+JM0000070188+0000070188+000000000+000009827+0000080015+0000000000+I40000080015+0000000000+Z
109415001109415466-000106     109415006003000128112BALL PL 20CM BASKETBALL0000020000+00003507+00000+0001T   00003507+0000001311          1400 RM6785               1AZ
109415002109415112-116069     109415006009681820277TCS CARRIER BAG JUMBO  0000001000+00000048+00000+0001T   00000048+0000001311          1400 RM6090               1AZ
109416000109416               109416               170213JM     1400+00000+JM0000004385+0000004385+000000000+000000614+0000004990+0000000009+I20000000000+0000004990+Z
109416001109416001-000175     109416006001023788108B/MUG GLS LOVE 380ML   0000001000+00004385+00000+0001T   00004385+0000001313          1400 RM6515               1AZ
109417000109417               109417               170213JM     1400+00000+JM0000005260+0000005260+000000000+000000738+0000005998+0000000000+I40000005998+0000000000+Z
109417001109417006-000220-A   109417006001023890849PARTY TABLE-CLOTH GIRL 0000002000+00002630+00000+0001T   00002630+0000001315          1400 RM6131               1AZ
109418000109418               109418               170213JM     1400+00000+JM0000016661+0000016661+000000000+000002335+0000018990+0000000006+I20000000000+0000018990+Z
109418001109418567-011916     109418009780799375510BK EDU WISKUNDE 8-9JAAR0000001000+00002630+00000+0001T   00002630+0000001315          1400 RM6757               1AZ
109418002109418567-011914     109418009780799375497BK VOORSPRONG WISKUNDE 0000001000+00002630+00000+0001T   00002630+0000001315          1400 RM6757               1AZ
109418003109418267-000903     109418006003000636013PUZZLE WOOD JIGSAW 3PGS0000001000+00005262+00000+0001T   00005262+0000001315          1400 RM6755               1AZ
109418004109418567-075497     109418009780799369519BK NOVEL ROMANCE AFR   0000001000+00006139+00000+0001T   00006139+0000001315          1400 RM6757               1AZ
109419000109419               109419               170213JM     1400+00000+JM0000001313+0000001313+000000000+000000184+0000001490+0000000007+I20000000000+0000001490+Z
109419001109419033-005994     109419006001023789570SEWING-NEEDLES 16PCE   0000001000+00000613+00000+0001T   00000613+0000001317          1400 RM6200               1AZ
109419002109419033-005920-A   109419006001023678249SEWING-THREAD 100m WHT 0000001000+00000700+00000+0001T   00000700+0000001317          1400 RM6200               1AZ
109420000109420               109420               170213JM     1400+00000+JM0000015834+0000015834+000000000+000002218+0000018052+0000000000+I40000018052+0000000000+Z
109420001109420112-116069     109420006009681820277TCS CARRIER BAG JUMBO  0000001000+00000048+00000+0001T   00000048+0000001321          1400 RM6090               1AZ
109420002109420368-000113     109420006001023780874PLUSH BLINGED LOVE 30cm0000001000+00012279+00000+0001T   00012279+0000001321          1400 RM6745               1AZ
109420003109420301-085004     109420006003000420469ORN LOVE PLAQUE 21X10CM0000001000+00003507+00000+0001T   00003946+0006471321          1400 RM6505               1AZ
109421000109421               109421               170213JM     1400+00000+JM0000000525+0000000525+000000000+000000074+0000000590+0000000009+I20000000000+0000000590+Z
109421001109421903-000155     109421006009803374435SWT LOLLY I LUV U HEART0000001000+00000525+00000+0001T   00000525+0000001322          1400 RM6150               1AZ
109422000109422               109422               170213JM     1400+00000+JM0000001753+0000001753+000000000+000000246+0000001990+0000000009+I20000000000+0000001990+Z
109422001109422051-002402     109422006001023518347TRIGGER-SPRAYER  500ml 0000001000+00001753+00000+0001T   00001753+0000001323          1400 RM6820               1AZ
109423000109423               109423               170213JM     1400+00000+JM0000002628+0000002628+000000000+000000369+0000002990+0000000007+I20000000000+0000002990+Z
109423001109423071-000677     109423006001023110282THUMB-TACKS            0000003000+00000876+00000+0001T   00000876+0000001325          1400 RM6130               1AZ
109424000109424               109424               170213JM     1400+00000+JM0000022310+0000022310+000000000+000003130+0000025440+0000000000+I40000025440+0000000000+Z
109424001109424112-116069     109424006009681820277TCS CARRIER BAG JUMBO  0000001000+00000048+00000+0001T   00000048+0000001329          1400 RM6090               1AZ
109424002109424001-000175     109424006001023788108B/MUG GLS LOVE 380ML   0000001000+00004385+00000+0001T   00004385+0000001329          1400 RM6515               1AZ
109424003109424018-000177     109424006001023797513MUG MINI LOVE ASSTD    0000002000+00000700+00000+0001T   00000700+0000001329          1400 RM6515               1AZ
109424004109424039-000108     109424006001023524034TEA-LITE CANDLES 8PCE  0000001000+00001490+00000+0001T   00001490+0000001329          1400 RM6510               1AZ
109424005109424040-000923     109424006001023587831CANDLE-HOLDER GLS 13.5 0000003000+00001753+00000+0001T   00001753+0000001329          1400 RM6510               1AZ
109424006109424027-783000     109424006001023874641SCOURERS RAINBOW 5PCE  0000001000+00001753+00000+0001T   00001753+0000001329          1400 RM6212               1AZ
109424007109424039-000026     109424006001023551610C/TAPERED 25CM M/RED   0000003000+00001051+00000+0001T   00001051+0000001329          1400 RM6510               1AZ
109424008109424030-000030-C   109424006003000249466PLAQUE GLASS DAD       0000001000+00003069+00000+0001T   00003069+0000001329          1400 RM6505               1AZ
109424009109424077-000115     109424006001023834225WRAP METALLIC 700mmx1m 0000001000+00001753+00000+0001T   00001753+0000001329          1400 RM6112               1AZ
109425000109425               109425               170213JM     1400+00000+JM0000003507+0000003507+000000000+000000491+0000003990+0000000008+I20000000000+0000003990+Z
109425001109425366-006105     109425006003000617050DRESS UP FACE PAINT    0000001000+00003507+00000+0001T   00003507+0000001333          1400 RM6131               1AZ
109426000109426               109426               170213JM     1400+00000+JM0000010573+0000010573+000000000+000001481+0000012054+0000000000+I40000012054+0000000000+Z
109426001109426030-004080     109426006003000657780PLAQUE WOODEN SIGN     0000001000+00010525+00000+0001T   00010525+0000001335          1400 RM6505               1AZ
109426002109426112-116069     109426006009681820277TCS CARRIER BAG JUMBO  0000001000+00000048+00000+0001T   00000048+0000001335          1400 RM6090               1AZ
109427000109427               109427               170213JM     1400+00000+JM0000002980+0000002980+000000000+000000418+0000003390+0000000008+I20000000000+0000003390+Z
109427001109427140-001004     109427006001023880932FLY-RIBBONS 4PCE PL    0000002000+00001490+00000+0001T   00001490+0000001343          1400 RM6830               1AZ
109428000109428               109428               170213JM     1400+00000+JM0000002892+0000002892+000000000+000000406+0000003290+0000000008+I20000000000+0000003290+Z
109428001109428903-000087     109428006001704000161SWT SPECKLED-EGGS 50G  0000001000+00001139+00000+0001T   00001139+0000001403          1400 RM6150               1AZ
109428002109428903-000619     109428006003000672455SWT LOLLY STR/BRRY 140G0000001000+00001753+00000+0001T   00001753+0000001403          1400 RM6150               1AZ
109429000109429               109429               170213JM     1400+00000+JM0000002628+0000002628+000000000+000000369+0000002990+0000000007+I20000000000+0000002990+Z
109429001109429007-000045     109429006009608640438DISPLAY-POCKETS A4 10PC0000003000+00000876+00000+0001T   00000876+0000001412          1400 RM6130               1AZ
109430000109430               109430               170213JM     1400+00000+JM0000005699+0000005699+000000000+000000798+0000006490+0000000007+I20000000000+0000006490+Z
109430001109430080-000127     109430006003000424351VALENTINES DAY 36x24CM 0000001000+00002192+00000+0001T   00002192+0000001421          1400 RM6112               1AZ
109430002109430018-005009     109430006001023725608MUG W/PLUSH-BEAR LOVE  0000001000+00003507+00000+0001T   00003507+0000001421          1400 RM6515               1AZ
109431000109431               109431               170213JM     1400+00000+JM0000017620+0000017620+000000000+000002477+0000020090+0000000007+I20000000000+0000020090+Z
109431001109431112-116038     109431006009681820246TCS CARRIER BAG MIDI   0000001000+00000035+00000+0001T   00000035+0000001424          1400 RM6090               1AZ
109431002109431903-000155     109431006009803374435SWT LOLLY I LUV U HEART0000012000+00000525+00000+0001T   00000525+0000001424          1400 RM6150               1AZ
109431003109431018-000177     109431006001023797513MUG MINI LOVE ASSTD    0000010000+00000700+00000+0001T   00000700+0000001424          1400 RM6515               1AZ
109431004109431903-000120     109431006002099001665SWEET GS ZILLIONS 50g  0000003000+00000700+00000+0001T   00000700+0000001424          1400 RM6150               1AZ
109431005109431903-000885     109431008690997017147SWT L/BIRD CHOC BISCUIT0000005000+00000437+00000+0001T   00000437+0000001424          1400 RM6150               1AZ
109432000109432               109432               170213JM     1400+00000+JM0000005434+0000005434+000000000+000000762+0000006190+0000000006+I20000000000+0000006190+Z
109432001109432566-000359     109432006003000582709STICKER BOOK LOVE SPARK0000001000+00002192+00000+0001T   00002192+0000001425          1400 RM6130               1AZ
109432002109432077-000311     109432006001023608666GIFT-BAG 11X14CM GLOSS 0000001000+00000613+00000+0001T   00000613+0000001425          1400 RM6112               1AZ
109432003109432903-000211     109432006002099001238SWT GS MALLOW ICE CREAM0000001000+00001753+00000+0001T   00001753+0000001425          1400 RM6150               1AZ
109432004109432903-000221     109432006001704007382SWT EENY-MEENY-MOS 60G 0000001000+00000876+00000+0001T   00000876+0000001425          1400 RM6150               1AZ
109433000109433               109433               170213JM     1400+00000+JM0000001314+0000001314+000000000+000000184+0000001490+0000000008+I20000000000+0000001490+Z
109433001109433046-000012     109433006904708013062BATTERIES AA  CARD-OF-40000001000+00001314+00000+0001T   00001314+0000001426          1400 RM6312               1AZ
109434000109434               109434               170213JM     1400+00000+JM0000006662+0000006662+000000000+000000934+0000007590+0000000006+I20000000000+0000007590+Z
109434001109434077-000305     109434006003000395422GIFT-BAG WINE 10X35CM  0000003000+00001490+00000+0001T   00001490+0000001427          1400 RM6112               1AZ
109434002109434251-000002     109434006003000093991TAPE D-SIDED 24x1000mm 0000001000+00002192+00000+0001T   00002192+0000001427          1400 RM6810               1AZ
109435000109435               109435               170213JM     1400+00000+JM0000013155+0000013155+000000000+000001842+0000014990+0000000007+I20000000000+0000014990+Z
109435001109435304-001117     109435006001023786630FLOWER CROSS 50CM      0000003000+00004385+00000+0001T   00004385+0000001439          1400 RM6510               1AZ
109436000109436               109436               170213JM     1400+00000+JM0000011795+0000011795+000000000+000001653+0000013448+0000000000+I40000013448+0000000000+Z
109436001109436903-000183     109436006003000451043SWT LB HEART LOLLY     0000001000+00000393+00000+0001T   00000393+0000001442          1400 RM6150               1AZ
109436002109436368-000637     109436006001023874092PLUSH BEAR SLEEPING LOV0000001000+00011402+00000+0001T   00012279+0006471442          1400 RM6745               1AZ
109437000109437               109437               170213JM     1400+00000+JM0000001575+0000001575+000000000+000000222+0000001797+0000000000+I40000001797+0000000000+Z
109437001109437903-000155     109437006009803374435SWT LOLLY I LUV U HEART0000003000+00000525+00000+0001T   00000525+0000001443          1400 RM6150               1AZ
109438000109438               109438               170213JM     1400+00000+JM0000001227+0000001227+000000000+000000172+0000001390+0000000009+I20000000000+0000001390+Z
109438001109438077-000245     109438006001023759214GIFT-RIBBON METALLICx2 0000001000+00001227+00000+0001T   00001227+0000001444          1400 RM6112               1AZ
109439000109439               109439               170213JM     1400+00000+JM0000006524+0000006524+000000000+000000914+0000007430+0000000008+I20000000000+0000007430+Z
109439001109439206-000630     109439006003000631919SPECTACLE CLEANING BRUS0000001000+00001227+00000+0001T   00001227+0000001448          1400 RM6321               1AZ
109439002109439018-019000     109439006003000557288MUG OCC. LOVE JUMBO    0000001000+00005262+00000+0001T   00005262+0000001448          1400 RM6515               1AZ
109439003109439112-116038     109439006009681820246TCS CARRIER BAG MIDI   0000001000+00000035+00000+0001T   00000035+0000001448          1400 RM6090               1AZ
109440000109440               109440               170213JM     1400+00000+JM0000005289+0000005289+000000000+000000744+0000006033+0000000000+I40000006033+0000000000+Z
109440001109440080-000133-A   109440006003000647019MINI VALENTINES CARD   0000003000+00000437+00000+0001T   00000437+0000001450          1400 RM6112               1AZ
109440002109440112-116038     109440006009681820246TCS CARRIER BAG MIDI   0000001000+00000035+00000+0001T   00000035+0000001450          1400 RM6090               1AZ
109440003109440038-047245     109440006001023637444PLACE-MAT DESIGNS ASSTD0000001000+00000876+00000+0001T   00000876+0000001450          1400 RM6300               1AZ
109440004109440566-000451     109440006001023788443STICKERS GLITTER ASSTD 0000001000+00001314+00000+0001T   00001753+0008151450          1400 RM6130               1AZ
109440005109440079-013099     109440006003000081875ART+CRAFT EYES ASSTD   0000001000+00001753+00000+0001T   00001753+0000001450          1400 RM6130               1AZ
109441000109441               109441               170213JM     1400+00000+JM0000003467+0000003467+000000000+000000486+0000003953+0000000000+I40000003953+0000000000+Z
109441001109441903-000517     109441006001704012768SWT STRAWS FIZZY CHERRY0000001000+00001227+00000+0001T   00001227+0000001452          1400 RM6150               1AZ
109441002109441080-000127     109441006003000424351VALENTINES DAY 36x24CM 0000001000+00002192+00000+0001T   00002192+0000001452          1400 RM6112               1AZ
109441003109441112-116069     109441006009681820277TCS CARRIER BAG JUMBO  0000001000+00000048+00000+0001T   00000048+0000001452          1400 RM6090               1AZ
109442000109442               109442               170213JM     1400+00000+JM0000010525+0000010525+000000000+000001474+0000011999+0000000000+I40000011999+0000000000+Z
109442001109442368-000005     109442006003000616862PLUSH MONSTER 24cm     0000001000+00010525+00000+0001T   00010525+0000001458          1400 RM6745               1AZ
109443000109443               109443               170213JM     1400+00000+JM0000014515+0000014515+000000000+000002034+0000016549+0000000000+I40000016549+0000000000+Z
109443001109443112-116069     109443006009681820277TCS CARRIER BAG JUMBO  0000001000+00000048+00000+0001T   00000048+0000001500          1400 RM6090               1AZ
109443002109443263-000623     109443006001023905697VEHICLE HELICOPTER 30cm0000001000+00005262+00000+0001T   00005262+0000001500          1400 RM6710               1AZ
109443003109443079-013099     109443006003000081875ART+CRAFT EYES ASSTD   0000001000+00001753+00000+0001T   00001753+0000001500          1400 RM6130               1AZ
109443004109443079-013032-G   109443006003000496389FOAM BUTTERFLIES       0000001000+00002192+00000+0001T   00002192+0000001500          1400 RM6130               1AZ
109443005109443566-000667     109443006003000658039STICKER FOIL EMBOSSED  0000001000+00002192+00000+0001T   00002192+0000001500          1400 RM6130               1AZ
109443006109443566-000027     109443006003000215843STICKERS FOIL ASSTD    0000001000+00000876+00000+0001T   00000876+0000001500          1400 RM6130               1AZ
109443007109443077-000920     109443006003000413812G/WRAP 700mmx2m BIRTHDA0000001000+00002192+00000+0001T   00002192+0000001500          1400 RM6112               1AZ
109444000109444               109444               170213JM     1400+00000+JM0000017847+0000017847+000000000+000002501+0000020348+0000000000+I40000020348+0000000000+Z
109444001109444112-116069     109444006009681820277TCS CARRIER BAG JUMBO  0000001000+00000048+00000+0001T   00000048+0000001502          1400 RM6090               1AZ
109444002109444366-000125     109444006003000006786DRESSUP WINGS/WAND/BAND0000001000+00005262+00000+0001T   00005262+0000001502          1400 RM6131               1AZ
109444003109444365-003048     109444006001023589354PLAY BEAUTY COSMETIC   0000001000+00004385+00000+0001T   00004385+0000001502          1400 RM6725               1AZ
109444004109444903-000095     109444006001704011495SWT SPECKLED-EGGS 100G 0000001000+00002104+00000+0001T   00002104+0000001502          1400 RM6150               1AZ
109444005109444560-000302     109444006001023834874DINOSAUR ASSTD DESIGNS 0000001000+00003507+00000+0001T   00003507+0000001502          1400 RM6745               1AZ
109444006109444046-000014-A   109444004897006177708BATTERIES SIZE:AAA 8PCE0000001000+00001753+00000+0001T   00001753+0000001502          1400 RM6312               1AZ
109444007109444903-000892     109444008693029700420SWT NOVELTY CHOCO CREAM0000001000+00000788+00000+0001T   00000788+0000001502          1400 RM6150               1AZ
109445000109445               109445               170213JM     1400+00000+JM0000003946+0000003946+000000000+000000553+0000004499+0000000000+I40000004499+0000000000+Z
109445001109445024-000018     109445006001023610232CAKE-DEC S/S NOZZLE    0000001000+00003946+00000+0001T   00003946+0000001505          1400 RM6300               1AZ
109446000109446               109446               170213JM     1400+00000+JM0000001575+0000001575+000000000+000000222+0000001790+0000000007+I20000000000+0000001790+Z
109446001109446903-000155     109446006009803374435SWT LOLLY I LUV U HEART0000003000+00000525+00000+0001T   00000525+0000001508          1400 RM6150               1AZ
109447000109447               109447               170213JM     1400+00000+JM0000011871+0000011871+000000000+000001663+0000013534+0000000000+I40000013534+0000000000+Z
109447001109447018-000136     109447006001023659026MUG OCC LOVE W/PLUSH   0000002000+00003507+00000+0001T   00003507+0000001521          1400 RM6515               1AZ
109447002109447112-116038     109447006009681820246TCS CARRIER BAG MIDI   0000001000+00000035+00000+0001T   00000035+0000001521          1400 RM6090               1AZ
109447003109447368-000049     109447006003000536955PLUSH BEAR 15cm LOVE   0000001000+00004385+00000+0001T   00004385+0000001521          1400 RM6745               1AZ
109447004109447080-000133-A   109447006003000647019MINI VALENTINES CARD   0000001000+00000437+00000+0001T   00000437+0000001521          1400 RM6112               1AZ
109448000109448               109448               170213JM     1400+00000+JM0000004646+0000004646+000000000+000000651+0000005290+0000000007+I20000000000+0000005290+Z
109448001109448077-000303     109448006001023593757GIFT-BAG PAPER MED     0000001000+00001578+00000+0001T   00001578+0000001521          1400 RM6112               1AZ
109448002109448077-000011-C   109448006001023808523TISSUE 10xSHTS RED     0000001000+00000876+00000+0001T   00000876+0000001521          1400 RM6112               1AZ
109448003109448018-000170     109448006001023775528MUG OCC. LOVE 2PC MINI 0000001000+00002192+00000+0001T   00002192+0000001521          1400 RM6515               1AZ
109449000109449               109449               170213JM     1400+00000+JM0000003506+0000003506+000000000+000000492+0000003990+0000000008+I20000000000+0000003990+Z
109449001109449080-000113     109449006003000237449CARD&ENVLPE - LOVE     0000001000+00001753+00000+0001T   00001753+0000001522          1400 RM6112               1AZ
109449002109449080-000115     109449006003000237333CARD&ENVELOPE - BLANKS 0000001000+00001753+00000+0001T   00001753+0000001522          1400 RM6112               1AZ
109450000109450               109450               170213JM     1400+00000+JM0000010739+0000010739+000000000+000001508+0000012247+0000000000+I40000012247+0000000000+Z
109450001109450112-116069     109450006009681820277TCS CARRIER BAG JUMBO  0000001000+00000048+00000+0001T   00000048+0000001529          1400 RM6090               1AZ
109450002109450080-000116     109450006003000253555CARD&ENVELOPE-HANDMADE 0000001000+00001753+00000+0001T   00001753+0000001529          1400 RM6112               1AZ
109450003109450080-000103     109450006003000236961CARD&ENVLOPE BDAY-MALE 0000001000+00001753+00000+0001T   00001753+0000001529          1400 RM6112               1AZ
109450004109450080-000108     109450006003000237210CARD&ENVLPE BDAY-BOY   0000001000+00001753+00000+0001T   00001753+0000001529          1400 RM6112               1AZ
109450005109450039-000323     109450006001023524171BIRTHDAY-CANDLES 24PCE 0000001000+00000876+00000+0001T   00000876+0000001529          1400 RM6510               1AZ
109450006109450080-000133-A   109450006003000647019MINI VALENTINES CARD   0000001000+00000437+00000+0001T   00000437+0000001529          1400 RM6112               1AZ
109450007109450079-003005     109450006003000448241A/TUBE 75ML BLUE       0000001000+00001753+00000+0001T   00001753+0000001529          1400 RM6130               1AZ
109450008109450079-003000     109450006003000448838A/TUBE 75ML WHITE      0000001000+00001753+00000+0001T   00001753+0000001529          1400 RM6130               1AZ
109450009109450083-000055     109450006003000003853LIGHTER ELCTRNC REFILBL0000001000+00000613+00000+0001T   00000613+0000001529          1400 RM6315               1AZ
109451000109451               109451               170213JM     1400+00000+JM0000002541+0000002541+000000000+000000356+0000002897+0000000000+I40000002897+0000000000+Z
109451001109451002-021042     109451006001023621801TOOTHPICKS 250PCE      0000001000+00001227+00000+0001T   00001227+0000001538          1400 RM6300               1AZ
109451002109451903-004952     109451006002580020052SWT FREAKY FACES 100G  0000001000+00001314+00000+0001T   00001314+0000001538          1400 RM6150               1AZ
109452000109452               109452               170213JM     1400+00000+JM0000006611+0000006611+000000000+000000926+0000007537+0000000000+I40000007537+0000000000+Z
109452001109452018-000136     109452006001023659026MUG OCC LOVE W/PLUSH   0000001000+00003507+00000+0001T   00003507+0000001542          1400 RM6515               1AZ
109452002109452030-000030-A   109452006003000249305PLAQUE GLASS LOVE      0000001000+00003069+00000+0001T   00003069+0000001542          1400 RM6505               1AZ
109452003109452112-116038     109452006009681820246TCS CARRIER BAG MIDI   0000001000+00000035+00000+0001T   00000035+0000001542          1400 RM6090               1AZ
109453000109453               109453               170213JM     1400+00000+JM0000004385+0000004385+000000000+000000614+0000004999+0000000000+I40000004999+0000000000+Z
109453001109453029-000009     109453006001023809575BUCKET GALV  2L        0000001000+00004385+00000+0001T   00004385+0000001543          1400 RM6510               1AZ
109454000109454               109454               170213JM     1400+00000+JM0000003506+0000003506+000000000+000000492+0000003990+0000000008+I20000000000+0000003990+Z
109454001109454046-000002     109454006001023585202BATTERIES SIZE:C   2PCE0000002000+00001753+00000+0001T   00001753+0000001544          1400 RM6312               1AZ
109455000109455               109455               170213JM     1400+00000+JM0000003853+0000003853+000000000+000000542+0000004390+0000000005+I20000000000+0000004390+Z
109455001109455903-000619     109455006003000672455SWT LOLLY STR/BRRY 140G0000001000+00001753+00000+0001T   00001753+0000001546          1400 RM6150               1AZ
109455002109455903-000151     109455006009803374411SWT SML RND R/BOW LOLLY0000004000+00000525+00000+0001T   00000525+0000001546          1400 RM6150               1AZ
109456000109456               109456               170213JM     1400+00000+JM0000019409+0000019409+000000000+000002720+0000022129+0000000000+I40000022129+0000000000+Z
109456001109456112-116038     109456006009681820246TCS CARRIER BAG MIDI   0000001000+00000035+00000+0001T   00000035+0000001550          1400 RM6090               1AZ
109456002109456133-000017     109456006003000525171CLEANING-CLOTHS 5PCE   0000002000+00003507+00000+0001T   00003507+0000001550          1400 RM6212               1AZ
109456003109456567-000422     109456009780710515872BK EDU BATH EVA        0000001000+00004385+00000+0001T   00004385+0000001550          1400 RM6757               1AZ
109456004109456267-000300     109456006003000162970PUZZLE BLOCKS ASSTD    0000001000+00002630+00000+0001T   00002630+0000001550          1400 RM6755               1AZ
109456005109456903-000087     109456006001704000161SWT SPECKLED-EGGS 50G  0000001000+00001139+00000+0001T   00001139+0000001550          1400 RM6150               1AZ
109456006109456903-000121     109456006002099001689SWT GS ZILLIONS SOURS  0000001000+00000700+00000+0001T   00000700+0000001550          1400 RM6150               1AZ
109456007109456027-783000     109456006001023874641SCOURERS RAINBOW 5PCE  0000002000+00001753+00000+0001T   00001753+0000001550          1400 RM6212               1AZ
109457000109457               109457               170213JM     1400+00000+JM0000001443+0000001443+000000000+000000204+0000001640+0000000007+I20000000000+0000001640+Z
109457001109457903-000155     109457006009803374435SWT LOLLY I LUV U HEART0000002000+00000525+00000+0001T   00000525+0000001550          1400 RM6150               1AZ
109457002109457903-000183     109457006003000451043SWT LB HEART LOLLY     0000001000+00000393+00000+0001T   00000393+0000001550          1400 RM6150               1AZ
109458000109458               109458               170213JM     1400+00000+JM0000014341+0000014341+000000000+000002010+0000016350+0000000001+I20000000000+0000016350+Z
109458001109458112-116069     109458006009681820277TCS CARRIER BAG JUMBO  0000001000+00000048+00000+0001T   00000048+0000001551          1400 RM6090               1AZ
109458002109458080-000127     109458006003000424351VALENTINES DAY 36x24CM 0000001000+00002192+00000+0001T   00002192+0000001551          1400 RM6112               1AZ
109458003109458077-000270     109458006003000395453GIFT-BAG PPR JMB 33X45 0000001000+00002630+00000+0001T   00002630+0000001551          1400 RM6112               1AZ
109458004109458301-085007     109458006003000673698ORN OCC. LOVE S/PLAQUE 0000001000+00007893+00000+0001T   00007893+0000001551          1400 RM6505               1AZ
109458005109458018-000127     109458006001023380289MUG OCC STRAIGHT LOVE  0000001000+00001578+00000+0001T   00001753+0006471551          1400 RM6515               1AZ
109459000109459               109459               170213JM     1400+00000+JM0000004383+0000004383+000000000+000000615+0000004990+0000000008+I20000000000+0000004990+Z
109459001109459903-000610     109459006003000610518SWEET JUMBO BUBBLE GUM 0000001000+00001753+00000+0001T   00001753+0000001552          1400 RM6150               1AZ
109459002109459085-007001     109459006001023909329P/TOOL MINI 7in1       0000001000+00002630+00000+0001T   00002630+0000001552          1400 RM6305               1AZ
109460000109460               109460               170213JM     1400+00000+JM0000003507+0000003507+000000000+000000491+0000003998+0000000000+I40000003998+0000000000+Z
109460001109460567-011344     109460006003000630714BK COLOURING THERAPY 640000001000+00003507+00000+0001T   00003507+0000001553          1400 RM6757               1AZ
109461000109461               109461               170213JM     1400+00000+JM0000004384+0000004384+000000000+000000614+0000004990+0000000008+I20000000000+0000004990+Z
109461001109461050-000363-Z   109461006001023475282PADLOCK IRON 32mm CARD 0000002000+00002192+00000+0001T   00002192+0000001556          1400 RM6855               1AZ
109462000109462               109462               170213JM     1400+00000+JM0000009779+0000009779+000000000+000001371+0000011150+0000000000+I40000011150+0000000000+Z
109462001109462112-116069     109462006009681820277TCS CARRIER BAG JUMBO  0000001000+00000048+00000+0001T   00000048+0000001559          1400 RM6090               1AZ
109462002109462200-000092     109462006003000576739PICNIC PAPER PLATES 23c0000001000+00001227+00000+0001T   00001227+0000001559          1400 RM6214               1AZ
109462003109462030-000031-A   109462006003000457588PLAQUE W/WORDS ASSTD   0000001000+00004385+00000+0001T   00004823+0006471559          1400 RM6505               1AZ
109462004109462009-001455     109462006001023696038MELAMINE PLATE 25cm    0000001000+00001753+00000+0001T   00001753+0000001559          1400 RM6210               1AZ
109462005109462038-047246     109462006001023873750PLACEMAT 44x28cm KIDS  0000001000+00000876+00000+0001T   00000876+0000001559          1400 RM6300               1AZ
109462006109462009-001453     109462006003000531400MELAMINE TUMBLER 10cm  0000001000+00001490+00000+0001T   00001490+0000001559          1400 RM6210               1AZ
109463000109463               109463               170213JM     1400+00000+JM0000003507+0000003507+000000000+000000491+0000003990+0000000008+I20000000000+0000003990+Z
109463001109463366-006105     109463006003000617050DRESS UP FACE PAINT    0000001000+00003507+00000+0001T   00003507+0000001559          1400 RM6131               1AZ
109464000109464               109464               170213JM     1400+00000+JM0000000876+0000000876+000000000+000000123+0000000990+0000000009+I20000000000+0000000990+Z
109464001109464083-000295     109464006001023898562LIGHTER-GAS BUTANE 18ml0000001000+00000876+00000+0001T   00000876+0000001601          1400 RM6315               1AZ
109465000109465               109465               170213JM     1400+00000+JM0000009030+0000009030+000000000+000001266+0000010290+0000000006+I20000000000+0000010290+Z
109465001109465077-000922     109465006003000413935G/WRAP 700mmx2m FLOWER 0000001000+00002192+00000+0001T   00002192+0000001602          1400 RM6112               1AZ
109465002109465903-000090     109465006009826020821SWT GS CHOCO COINS 60g 0000002000+00002104+00000+0001T   00002104+0000001602          1400 RM6150               1AZ
109465003109465072-020354     109465006001023649980DOG/CAT-BOWL LARGE     0000001000+00002630+00000+0001T   00002630+0000001602          1400 RM6870               1AZ
109466000109466               109466               170213JM     1400+00000+JM0000026356+0000026356+000000000+000003691+0000030047+0000000000+I40000030047+0000000000+Z
109466001109466112-116069     109466006009681820277TCS CARRIER BAG JUMBO  0000001000+00000048+00000+0001T   00000048+0000001605          1400 RM6090               1AZ
109466002109466031-000860-C   109466006001023798237P/FRAME PL ANTIQUE-BLK 0000001000+00006139+00000+0001T   00006139+0000001605          1400 RM6510               1AZ
109466003109466031-000873-C   109466006003000673513P/FRAME WDN WHITE 20X250000001000+00004385+00000+0001T   00004385+0000001605          1400 RM6510               1AZ
109466004109466031-000870-A   109466006001023798626P/FRAME WOOD WHITE-PINE0000002000+00004385+00000+0001T   00004385+0000001605          1400 RM6510               1AZ
109466005109466031-000860-A   109466006001023798176P/FRAME PL ANTIQUE-BLK 0000002000+00003507+00000+0001T   00003507+0000001605          1400 RM6510               1AZ
109467000109467               109467               170213JM     1400+00000+JM0000035108+0000035108+000000000+000004927+0000040035+0000000000+I40000040035+0000000000+Z
109467001109467112-116069     109467006009681820277TCS CARRIER BAG JUMBO  0000001000+00000048+00000+0001T   00000048+0000001607          1400 RM6090               1AZ
109467002109467077-000382     109467006003000247820GIFT-BAG MED 18X23CM   0000020000+00001753+00000+0001T   00001753+0000001607          1400 RM6112               1AZ
109468000109468               109468               170213JM     1400+00000+JM0000009946+0000009946+000000000+000001395+0000011341+0000000000+I40000011341+0000000000+Z
109468001109468031-000902-B   109468006001023726285P/FRAME WDN OAK 10X15CM0000001000+00003946+00000+0001T   00003946+0000001610          1400 RM6510               1AZ
109468002109468362-002467     109468006003000167623HAIR EXT LONG 61cm     0000001000+00003507+00000+0001T   00003507+0000001610          1400 RM6160               1AZ
109468003109468006-000172-H   109468006003000610211BALLOONS METALLIC RED  0000002000+00000218+00000+0001T   00000218+0000001610          1400 RM6131               1AZ
109468004109468006-000173-A   109468006003000636235BALLOONS HELIUM 1PC BLK0000001000+00000218+00000+0001T   00000218+0000001610          1400 RM6131               1AZ
109468005109468006-001000     109468006003000093779HELIUM BALLOON FILL    0000003000+00000613+00000+0001T   00000613+0000001610          1400 RM6131               1AZ
109469000109469               109469               170213JM     1400+00000+JM0000012496+0000012496+000000000+000001752+0000014248+0000000000+I40000014248+0000000000+Z
109469001109469112-116069     109469006009681820277TCS CARRIER BAG JUMBO  0000001000+00000048+00000+0001T   00000048+0000001612          1400 RM6090               1AZ
109469002109469018-030000     109469006003000421060MUG OCCASIONS LOVE 2PCE0000001000+00004385+00000+0001T   00004385+0000001612          1400 RM6515               1AZ
109469003109469077-000310     109469006001023608635GIFT-BAG 18X23CM GLOSS 0000001000+00001314+00000+0001T   00001314+0000001612          1400 RM6112               1AZ
109469004109469077-000452     109469006003000284986G/BAG METALLIC MED EMB 0000001000+00001490+00000+0001T   00001490+0000001612          1400 RM6112               1AZ
109469005109469082-000100     109469006003000360246READING GLS STRENGHT:1 0000001000+00004385+00000+0001T   00004385+0000001612          1400 RM6160               1AZ
109469006109469080-000133-A   109469006003000647019MINI VALENTINES CARD   0000002000+00000437+00000+0001T   00000437+0000001612          1400 RM6112               1AZ
109470000109470               109470               170213JM     1400+00000+JM0000001050+0000001050+000000000+000000148+0000001190+0000000008+I20000000000+0000001190+Z
109470001109470903-000155     109470006009803374435SWT LOLLY I LUV U HEART0000002000+00000525+00000+0001T   00000525+0000001612          1400 RM6150               1AZ
109471000109471               109471               170213JM     1400+00000+JM0000052605+0000052605+000000000+000007365+0000059970+0000000000+I40000059970+0000000000+Z
109471001109471566-000064     109471006001023689702STICKERS GLITTER BORDER0000015000+00003507+00000+0001T   00003507+0000001614          1400 RM6130               1AZ
109472000109472               109472               170213JM     1400+00000+JM0000001752+0000001752+000000000+000000246+0000001990+0000000008+I20000000000+0000001990+Z
109472001109472077-000408     109472006003000145218G/BAG PP 15X21X7CM     0000001000+00000876+00000+0001T   00000876+0000001614          1400 RM6112               1AZ
109472002109472306-000023     109472006001023606976COTTON-WOOL-BALLS 50PCE0000001000+00000876+00000+0001T   00000876+0000001614          1400 RM6200               1AZ
109473000109473               109473               170213JM     1400+00000+JM0000004823+0000004823+000000000+000000676+0000005499+0000000000+I40000005499+0000000000+Z
109473001109473029-000009     109473006001023809575BUCKET GALV  2L        0000001000-00004385+00000+0001T   00004385+0000001622          1400 RM65101IC            1 Z
109473002109473019-071600     109473006001023771971RIVER-STONES 1kg MIXED 0000001000+00002630+00000+0001T   00002630+0000001622          1400 RM6510               1AZ
109473003109473019-000132     109473006003000456376VASE GLASS W/ROPE 10X120000001000+00006578+00000+0001T   00006578+0000001622          1400 RM6510               1AZ
109474000109474               109474               170213JM     1400+00000+JM0000001836+0000001836+000000000+000000260+0000002090+0000000006+I20000000000+0000002090+Z
109474001109474002-021040     109474006001023812216PARTY-PICKS 100PCE     0000001000+00000525+00000+0001T   00000525+0000001623          1400 RM6300               1AZ
109474002109474080-000133-A   109474006003000647019MINI VALENTINES CARD   0000003000+00000437+00000+0001T   00000437+0000001623          1400 RM6112               1AZ
109475000109475               109475               170213JM     1400+00000+JM0000002192+0000002192+000000000+000000307+0000002490+0000000009+I20000000000+0000002490+Z
109475001109475566-000068     109475006003000418046POP UP LOVE 2 ASSTD    0000001000+00002192+00000+0001T   00002192+0000001624          1400 RM6130               1AZ
109476000109476               109476               170213JM     1400+00000+JM0000016962+0000016962+000000000+000002380+0000019340+0000000002+I20000000000+0000019340+Z
109476001109476112-116069     109476006009681820277TCS CARRIER BAG JUMBO  0000001000+00000048+00000+0001T   00000048+0000001625          1400 RM6090               1AZ
109476002109476006-000159     109476006003000653430BALLOONS 6PC SCREAMER  0000001000+00002630+00000+0001T   00002630+0000001625          1400 RM6131               1AZ
109476003109476006-000800     109476006001023902801HAT CABARET 14x18cm    0000001000+00001753+00000+0001T   00001753+0000001625          1400 RM6131               1AZ
109476004109476564-000025     109476006003000617104BUBBLE NOVELTY         0000001000+00001753+00000+0001T   00001753+0000001625          1400 RM6131               1AZ
109476005109476039-000319-6   109476006003000442980B/CANDLES LRG NUMBER-6 0000001000+00000876+00000+0001T   00000876+0000001625          1400 RM6510               1AZ
109476006109476006-000167-F   109476006003000517411BALLOONS SILV METALLIC 0000001000+00001314+00000+0001T   00001314+0000001625          1400 RM6131               1AZ
109476007109476006-000166-G   109476006003000607976BALLOONS HELIUM 6PC BLK0000001000+00001314+00000+0001T   00001314+0000001625          1400 RM6131               1AZ
109476008109476077-000245     109476006001023759214GIFT-RIBBON METALLICx2 0000001000+00001227+00000+0001T   00001227+0000001625          1400 RM6112               1AZ
109476009109476077-000115-B   109476006003000181025GIFT-WRAP PPR 700MMX2M 0000001000+00002630+00000+0001T   00002630+0000001625          1400 RM6112               1AZ
109476010109476903-000087     109476006001704000161SWT SPECKLED-EGGS 50G  0000003000+00001139+00000+0001T   00001139+0000001625          1400 RM6150               1AZ
109477000109477               109477               170213JM     1400+00000+JM0000002192+0000002192+000000000+000000307+0000002490+0000000009+I20000000000+0000002490+Z
109477001109477105-001033     109477000700371696641CONTAINER FOODSAVER 1.60000001000+00002192+00000+0001T   00002192+0000001626          1400 RM6210               1AZ
109478000109478               109478               170213JM     1400+00000+JM0000018409+0000018409+000000000+000002582+0000020991+0000000000+I40000020991+0000000000+Z
109478001109478019-000131     109478006003000456253PLANT. T/PLATE 10X12.5 0000003000+00002630+00000+0001T   00002630+0000001650          1400 RM6510               1AZ
109478002109478019-000127     109478006003000337316PLANTER GALV RND MED AS0000001000+00005262+00000+0001T   00005262+0000001650          1400 RM6510               1AZ
109478003109478088-000084     109478006001023798060P/POURRI 120G ASSTD    0000001000+00001753+00000+0001T   00001753+0000001650          1400 RM6212               1AZ
109478004109478006-000328     109478006003000476633G/STICK GLASSES 20cm   0000004000+00000876+00000+0001T   00000876+0000001650          1400 RM6131               1AZ
109479000109479               109479               170213JM     1400+00000+JM0000018013+0000018013+000000000+000002531+0000020544+0000000000+I40000020544+0000000000+Z
109479001109479112-116069     109479006009681820277TCS CARRIER BAG JUMBO  0000001000+00000048+00000+0001T   00000048+0000001652          1400 RM6090               1AZ
109479002109479108-003023     109479006003000665471TUMBLER W/STRAW 550ml  0000006000+00002630+00000+0001T   00002630+0000001652          1400 RM6210               1AZ
109479003109479903-000012     109479006002099007308SWT MALLOW S/BERRY     0000005000+00000437+00000+0001T   00000437+0000001652          1400 RM6150               1AZ
109480000109480               109480               170213JM     1400+00000+JM0000043405+0000043405+000000000+000006082+0000049487+0000000000+I40000049487+0000000000+Z
109480001109480031-001004     109480006003000334643P/FRAME CERTIFICATE 4PC0000001000+00015788+00000+0001T   00015788+0000001654          1400 RM6510               1AZ
109480002109480107-002117     109480006002580008890BASIN PL 32cm(VIRGIN)4L0000004000+00001753+00000+0001T   00001753+0000001654          1400 RM6210               1AZ
109480003109480006-000106     109480006003000471331WATERBOMBS 150PCE 6-COL0000002000+00005262+00000+0001T   00005262+0000001654          1400 RM6131               1AZ
109480004109480200-000093     109480006003000582020PICNIC BOWLS PL 15PC   0000001000+00003069+00000+0001T   00003069+0000001654          1400 RM6214               1AZ
109480005109480024-091100     109480006001023914224BAKING-CUPS PAPER 100PC0000001000+00001753+00000+0001T   00001753+0000001654          1400 RM6300               1AZ
109480006109480076-000017     109480006001811010022TWINE COTTON 50g-BALL  0000002000+00000876+00000+0001T   00000876+0000001654          1400 RM6810               1AZ
109480007109480203-007000     109480006001023886040SHOT-GLASS DISPOSABLE  0000001000+00003507+00000+0001T   00003507+0000001654          1400 RM6300               1AZ
109481000109481               109481               170213JM     1400+00000+JM0000002366+0000002366+000000000+000000332+0000002690+0000000008+I20000000000+0000002690+Z
109481001109481077-000311     109481006001023608666GIFT-BAG 11X14CM GLOSS 0000001000+00000613+00000+0001T   00000613+0000001654          1400 RM6112               1AZ
109481002109481903-000619     109481006003000672455SWT LOLLY STR/BRRY 140G0000001000+00001753+00000+0001T   00001753+0000001654          1400 RM6150               1AZ
109482000109482               109482               170213JM     1400+00000+JM0000002630+0000002630+000000000+000000369+0000002990+0000000009+I20000000000+0000002990+Z
109482001109482159-000045     109482006003000467686HOOKS CHROME PLATED 6PC0000001000+00002630+00000+0001T   00002630+0000001655          1400 RM6200               1AZ
109483000109483               109483               170213JM     1400+00000+JM0000010963+0000010963+000000000+000001535+0000012498+0000000000+I40000012498+0000000000+Z
109483001109483080-000127     109483006003000424351VALENTINES DAY 36x24CM 0000001000+00002192+00000+0001T   00002192+0000001657          1400 RM6112               1AZ
109483002109483368-000614     109483006001023705808PLUSH LOVE 30cm        0000001000+00008771+00000+0001T   00008771+0000001657          1400 RM6745               1AZ
109484000109484               109484               170213JM     1400+00000+JM0000002454+0000002454+000000000+000000344+0000002798+0000000000+I40000002798+0000000000+Z
109484001109484018-000127     109484006001023380289MUG OCC STRAIGHT LOVE  0000001000+00001578+00000+0001T   00001753+0006471658          1400 RM6515               1AZ
109484002109484162-087876     109484006001492878768#TAG 2PK HEADBANDS     0000001000+00000876+00000+0001T   00001753+0008161658          1400 RM6160               1AZ
109485000109485               109485               170213JM     1400+00000+JM0000000000+0000000000+000000000+000000000+0000000000+0000000000+ 00000000000+0000000000+Z
109486000109486               109486               170213JM     1400+00000+JM0000018416+0000018416+000000000+000002579+0000020995+0000000000+I40000020995+0000000000+Z
109486001109486077-000011-D   109486006001023808554TISSUE-WRAP WHITE 10PCE0000001000+00000876+00000+0001T   00000876+0000001701          1400 RM6112               1AZ
109486002109486103-000781     109486006003000637867BAMBOO BASKET ROUND 23c0000004000+00004385+00000+0001T   00004385+0000001701          1400 RM6300               1AZ
109487000109487               109487               170213JM     1400+00000+JM0000010569+0000010569+000000000+000001480+0000012049+0000000000+I40000012049+0000000000+Z
109487001109487031-005853     109487006003000442416P/FRAME WDN TWIN HEARTS0000001000+00003507+00000+0001T   00003507+0000001703          1400 RM6510               1AZ
109487002109487018-005009     109487006001023725608MUG W/PLUSH-BEAR LOVE  0000002000+00003507+00000+0001T   00003507+0000001703          1400 RM6515               1AZ
109487003109487112-116069     109487006009681820277TCS CARRIER BAG JUMBO  0000001000+00000048+00000+0001T   00000048+0000001703          1400 RM6090               1AZ
109488000109488               109488               170213JM     1400+00000+JM0000002630+0000002630+000000000+000000369+0000002990+0000000009+I20000000000+0000002990+Z
109488001109488079-006497     109488006003000160228GLITTER SET 6PCE+GLUE  0000001000+00002630+00000+0001T   00002630+0000001703          1400 RM6130               1AZ
109489000109489               109489               170213JM     1400+00000+JM0000014031+0000014031+000000000+000001965+0000015996+0000000000+I40000015996+0000000000+Z
109489001109489031-005853     109489006003000442416P/FRAME WDN TWIN HEARTS0000001000+00003507+00000+0001T   00003507+0000001704          1400 RM6510               1AZ
109489002109489001-091415     109489006003000329113W/GLS OCC. LOVE 2PC 2800000001000+00008771+00000+0001T   00009648+0006471704          1400 RM6515               1AZ
109489003109489077-000299-A   109489006003000670888GIFT-BAG PAPER JMB LOVE0000001000+00001753+00000+0001T   00001753+0000001704          1400 RM6112               1AZ
109490000109490               109490               170213JM     1400+00000+JM0000014032+0000014032+000000000+000001966+0000015990+0000000008+I20000000000+0000015990+Z
109490001109490077-000270     109490006003000395453GIFT-BAG PPR JMB 33X45 0000001000+00002630+00000+0001T   00002630+0000001705          1400 RM6112               1AZ
109490002109490368-000637     109490006001023874092PLUSH BEAR SLEEPING LOV0000001000+00011402+00000+0001T   00012279+0006471705          1400 RM6745               1AZ
109491000109491               109491               170213JM     1400+00000+JM0000002630+0000002630+000000000+000000369+0000002999+0000000000+I40000002999+0000000000+Z
109491001109491466-000584     109491006001023628787SKIPPING-ROPE          0000001000+00002630+00000+0001T   00002630+0000001706          1400 RM6785               1AZ
109492000109492               109492               170213JM     1400+00000+JM0000004385+0000004385+000000000+000000614+0000004990+0000000009+I20000000000+0000004990+Z
109492001109492030-000031-A   109492006003000457588PLAQUE W/WORDS ASSTD   0000001000+00004385+00000+0001T   00004823+0006471707          1400 RM6505               1AZ
109493000109493               109493               170213JM     1400+00000+JM0000002192+0000002192+000000000+000000307+0000002490+0000000009+I20000000000+0000002490+Z
109493001109493566-000359     109493006003000582709STICKER BOOK LOVE SPARK0000001000+00002192+00000+0001T   00002192+0000001708          1400 RM6130               1AZ
109494000109494               109494               170213JM     1400+00000+JM0000008201+0000008201+000000000+000001150+0000009351+0000000000+I40000009351+0000000000+Z
109494001109494018-000170     109494006001023775528MUG OCC. LOVE 2PC MINI 0000001000+00002192+00000+0001T   00002192+0000001711          1400 RM6515               1AZ
109494002109494903-000211     109494006002099001238SWT GS MALLOW ICE CREAM0000001000+00001753+00000+0001T   00001753+0000001711          1400 RM6150               1AZ
109494003109494903-000095     109494006001704011495SWT SPECKLED-EGGS 100G 0000002000+00002104+00000+0001T   00002104+0000001711          1400 RM6150               1AZ
109494004109494112-116069     109494006009681820277TCS CARRIER BAG JUMBO  0000001000+00000048+00000+0001T   00000048+0000001711          1400 RM6090               1AZ
109495000109495               109495               170213JM     1400+00000+JM0000001753+0000001753+000000000+000000246+0000001990+0000000009+I20000000000+0000001990+Z
109495001109495077-000290     109495006001023902023GIFT BOX 26x32x13cm    0000001000+00001753+00000+0001T   00001753+0000001713          1400 RM6112               1AZ
109496000109496               109496               170213JM     1400+00000+JM0000001314+0000001314+000000000+000000184+0000001498+0000000000+I40000001498+0000000000+Z
109496001109496107-004105     109496006002923010504BUCKET 9L OPEN         0000001000+00001314+00000+0001T   00001314+0000001719          1400 RM6210               1AZ
109497000109497               109497               170213JM     1400+00000+JM0000000876+0000000876+000000000+000000123+0000000990+0000000009+I20000000000+0000000990+Z
109497001109497047-000505     109497006009636901976PLUG-ADAPTOR 2-PIN     0000001000+00000876+00000+0001T   00000876+0000001720          1400 RM6880               1AZ
109498000109498               109498               170213JM     1400+00000+JM0000006662+0000006662+000000000+000000934+0000007596+0000000000+I40000007596+0000000000+Z
109498001109498077-000303     109498006001023593757GIFT-BAG PAPER MED     0000002000+00001578+00000+0001T   00001578+0000001724          1400 RM6112               1AZ
109498002109498077-000299-A   109498006003000670888GIFT-BAG PAPER JMB LOVE0000002000+00001753+00000+0001T   00001753+0000001724          1400 RM6112               1AZ
109499000109499               109499               170213JM     1400+00000+JM0000005310+0000005310+000000000+000000744+0000006050+0000000004+I20000000000+0000006050+Z
109499001109499464-009011     109499006003000647675FISHING WITH TWO RODS  0000001000+00005262+00000+0001T   00005262+0000001725          1400 RM6785               1AZ
109499002109499112-116069     109499006009681820277TCS CARRIER BAG JUMBO  0000001000+00000048+00000+0001T   00000048+0000001725          1400 RM6090               1AZ
109500000109500               109500               170213JM     1400+00000+JM0000006576+0000006576+000000000+000000921+0000007497+0000000000+I40000007497+0000000000+Z
109500001109500077-000407     109500006003000145096G/BAG PP 19X26X8CM     0000001000+00001314+00000+0001T   00001314+0000001727          1400 RM6112               1AZ
109500002109500007-000614     109500006001023768667DIARY W/LOCK+PEN LOVE  0000001000+00005262+00000+0001T   00005262+0000001727          1400 RM6130               1AZ
109501000109501               109501               170213JM     1400+00000+JM0000000048+0000000048+000000000+000000007+0000000050+0000000005+I20000000000+0000000050+Z
109501001109501112-116069     109501006009681820277TCS CARRIER BAG JUMBO  0000001000+00000048+00000+0001T   00000048+0000001728          1400 RM6090               1AZ
109502000109502               109502               170213JM     1400+00000+JM0000003507+0000003507+000000000+000000491+0000003990+0000000008+I20000000000+0000003990+Z
109502001109502018-000136     109502006001023659026MUG OCC LOVE W/PLUSH   0000001000+00003507+00000+0001T   00003507+0000001728          1400 RM6515               1AZ
109503000109503               109503               170213JM     1400+00000+JM0000010569+0000010569+000000000+000001480+0000012040+0000000009+I20000000000+0000012040+Z
109503001109503112-116069     109503006009681820277TCS CARRIER BAG JUMBO  0000001000+00000048+00000+0001T   00000048+0000001731          1400 RM6090               1AZ
109503002109503018-000136     109503006001023659026MUG OCC LOVE W/PLUSH   0000003000+00003507+00000+0001T   00003507+0000001731          1400 RM6515               1AZ
109504000109504               109504               170213JM     1400+00000+JM0000001753+0000001753+000000000+000000246+0000001990+0000000009+I20000000000+0000001990+Z
109504001109504077-000011     109504006003000542352PAPER RAFFIA ASSTD COL 0000001000+00001753+00000+0001T   00001753+0000001732          1400 RM6112               1AZ
109505000109505               109505               170213JM     1400+00000+JM0000007046+0000007046+000000000+000000988+0000008034+0000000000+I40000008034+0000000000+Z
109505001109505112-116038     109505006009681820246TCS CARRIER BAG MIDI   0000001000+00000035+00000+0001T   00000035+0000001733          1400 RM6090               1AZ
109505002109505077-000310     109505006001023608635GIFT-BAG 18X23CM GLOSS 0000001000+00001314+00000+0001T   00001314+0000001733          1400 RM6112               1AZ
109505003109505077-000407     109505006003000145096G/BAG PP 19X26X8CM     0000001000+00001314+00000+0001T   00001314+0000001733          1400 RM6112               1AZ
109505004109505065-006041     109505006001023712974TAMBOURINE 15cm P/BAND 0000001000+00001753+00000+0001T   00001753+0000001733          1400 RM6745               1AZ
109505005109505369-000200     109505006001023856982BABY EDU CUP STACKING  0000001000+00002630+00000+0001T   00002630+0000001733          1400 RM6745               1AZ
109506000109506               109506               170213JM     1400+00000+JM0000011046+0000011046+000000000+000001548+0000012594+0000000000+I40000012594+0000000000+Z
109506001109506108-001208     109506006003000667147ICE CREAM BOWLS 4-PACK 0000004000+00002192+00000+0001T   00002192+0000001734          1400 RM6210               1AZ
109506002109506903-000087     109506006001704000161SWT SPECKLED-EGGS 50G  0000002000+00001139+00000+0001T   00001139+0000001734          1400 RM6150               1AZ
A17021300                                          16281608JMSLAVE 1                       RM61IC
A17021301                                          17163134JMSLAVE 1                       RM62IC
A17021302                                          17212747JMSLAVE 1                       RM62IC
M17021301                              IT          JMATT IT                                          LAST TILL SLIP NUMBER FOR SLAVE 1               IS 109506                                       THANKS                                          JM
M17021391                              CASH        JMSLAVE 1                       Z-REPORT No.   604TOTAL (Sales - Refunds)          10902.79       CASH TO BE BANKED                 3639.50       DEBIT CARDS                          0.00       CREDIT CARDS                      7263.29       Z-READING                        10902.79       AIRTIME DEBIT CARD SALES             0.00       AIRTIME CARD SALES                   0.00       OVERS/UNDERS                         0.00       AIRTIME CASH SALES                   0.00       GIFT CARDS                           0.00       GIFT CARD CASH SALES                 0.00       T O T A L  CASH PAYOUTS              0.00                                                                                                                                                                                                                                                                                                                                                      Z
M17021392                              CASH        JMABSENT                                                                                                                                                                                          ANNUAL LEAVE                                                                                                                                                                                    DAY OFF                                                                                                                                                                                         COMMENTS                                                                                                                                                                                                                                                                                                                                                                                       Z
Y17021300                                          JM00000000962784+000112
ZJM17021321103 SLAVE 1      SALES DATA                     NEXT INVOICE NO.  109507 0604
X JM Slave 1 First invoice 109394 170213 Last invoice 109506 170213 Next invoice 109507 Total number of records 000000417 clbackup completed 21:10:03
