200020000200020               200020               170213JM     1400+00000+JM0000007277+0000007277+000000000+000001020+0000008297+0000000000+I40000008297+0000000000+Z
200020001200020108-001208     200020006003000667147ICE CREAM BOWLS 4-PACK 0000001000+00002192+00000+0001T   00002192+0000000934          1400 CM6210               2AZ
200020002200020079-000510     200020006001023509079CRAYONS WAX 12-COLOUR  0000001000+00002455+00000+0001T   00002455+0000000934          1400 CM6130               2AZ
200020003200020567-011380     200020009781408190135BK STICKER ENCHANTED   0000001000+00002630+00000+0001T   00003507+0008140934          1400 CM6757               2AZ
200021000200021               200021               170213JM     1400+00000+JM0000023681+0000023681+000000000+000003316+0000026997+0000000000+I40000026997+0000000000+Z
200021001200021031-080509     200021006001023802446P/FRAME COLLAGE 10X15CM0000001000+00006139+00000+0001T   00006139+0000001010          1400 CM6510               2AZ
200021002200021031-001011     200021006003000579099P/FRAME COLLAGE WAVE   0000002000+00008771+00000+0001T   00008771+0000001010          1400 CM6510               2AZ
200022000200022               200022               170213JM     1400+00000+JM0000003944+0000003944+000000000+000000553+0000004490+0000000007+I20000000000+0000004490+Z
200022001200022200-000035     200022006001023768810FOOD-BOWL-COVERS 5PCE  0000001000+00002630+00000+0001T   00002630+0000001116          1400 CM6214               2AZ
200022002200022046-000012     200022006904708013062BATTERIES AA  CARD-OF-40000001000+00001314+00000+0001T   00001314+0000001116          1400 CM6312               2AZ
200023000200023               200023               170213JM     1400+00000+JM0000002625+0000002625+000000000+000000370+0000002990+0000000005+I20000000000+0000002990+Z
200023001200023903-000155     200023006009803374435SWT LOLLY I LUV U HEART0000005000+00000525+00000+0001T   00000525+0000001117          1400 CM6150               2AZ
200024000200024               200024               170213JM     1400+00000+JM0000001753+0000001753+000000000+000000246+0000001990+0000000009+I20000000000+0000001990+Z
200024001200024046-002013-PK6 200024004897006174851BATTERY BUTTON AG13 6PC0000001000+00001753+00000+0001T   00001753+0000001118          1400 CM6312               2AZ
200025000200025               200025               170213JM     1400+00000+JM0000006991-0000006991-000000000+000000979-0000007970-0000000000+I20000000000+0000007970-Z
200025001200025001-999907     200025000000000999907CLEANING-MATERIALS     0000001000-00006991+00000+0001T   00000000+0000001150          1400 CM69071IC            2 Z
200026000200026               200026               170213JM     1400+00000+JM0000004243+0000004243+000000000+000000595+0000004838+0000000000+I40000004838+0000000000+Z
200026001200026206-000620     200026006003000631797BACK SCRATCHER EXTEND  0000001000+00002630+00000+0001T   00002630+0000001151          1400 CM6321               2AZ
200026002200026018-000127     200026006001023380289MUG OCC STRAIGHT LOVE  0000001000+00001578+00000+0001T   00001753+0006471151          1400 CM6515               2AZ
200026003200026112-116038     200026006009681820246TCS CARRIER BAG MIDI   0000001000+00000035+00000+0001T   00000035+0000001151          1400 CM6090               2AZ
200027000200027               200027               170213JM     1400+00000+JM0000012892+0000012892+000000000+000001806+0000014690+0000000008+I20000000000+0000014690+Z
200027001200027077-000342     200027006003000273942G/BAG PAPER LRG 25X32CM0000001000+00001490+00000+0001T   00001490+0000001153          1400 CM6112               2AZ
200027002200027469-006603     200027006003000390441B/BLOCKS 86PC TROLY BAG0000001000+00011402+00000+0001T   00011402+0000001153          1400 CM6755               2AZ
200028000200028               200028               170213JM     1400+00000+JM0000015496+0000015496+000000000+000002173+0000017669+0000000000+I40000017669+0000000000+Z
200028001200028112-116053     200028006006438002399TCS CARRIER BAG 38L    0000001000+00000069+00000+0001T   00000069+0000001206          1400 CM6090               2AZ
200028002200028251-000002     200028006003000093991TAPE D-SIDED 24x1000mm 0000001000+00002192+00000+0001T   00002192+0000001206          1400 CM6810               2AZ
200028003200028306-000024-A   200028006003000577309COTTON-WOOL-PADS 80PC  0000001000+00001753+00000+0001T   00001753+0000001206          1400 CM6200               2AZ
200028004200028027-009025     200028006003962000747DUSTPAN-SET PL         0000001000+00002630+00000+0001T   00002630+0000001206          1400 CM6212               2AZ
200028005200028252-000021     200028006001023475213CURTAIN WIRE+HOOKS+EYES0000001000+00001753+00000+0001T   00001753+0000001206          1400 CM6810               2AZ
200028006200028036-000605     200028006001023158611WASHING-PEGS WDN PCK-240000001000+00001490+00000+0001T   00001490+0000001206          1400 CM6212               2AZ
200028007200028105-001024-A   200028006009654960986CONTAINERS CLEAR 3PCE  0000001000+00001928+00000+0001T   00001928+0000001206          1400 CM6210               2AZ
200028008200028105-001078     200028000700371637750CONTAINER 1,1L CLIP LOC0000001000+00001928+00000+0001T   00001928+0000001206          1400 CM6210               2AZ
200028009200028142-000814     200028006001023183910GLOVES RUBBER  MEDIUM  0000001000+00001753+00000+0001T   00001753+0000001206          1400 CM6810               2AZ
200029000200029               200029               170213JM     1400+00000+JM0000056096+0000056096+000000000+000007862+0000063958+0000000000+I40000063958+0000000000+Z
200029001200029112-116053     200029006006438002399TCS CARRIER BAG 38L    0000001000+00000069+00000+0001T   00000069+0000001210          1400 CM6090               2AZ
200029002200029007-000526     200029006001023637994STATIONERY GIRL FLOWER 0000001000+00007016+00000+0001T   00007016+0000001210          1400 CM6130               2AZ
200029003200029080-000124     200029006003000297733CARD & ENV VALENTINES  0000001000+00001578+00000+0001T   00001578+0000001210          1400 CM6112               2AZ
200029004200029017-000200     200029006003000238965PRINTED ASSTD 100-PHOTO0000001000+00003507+00000+0001T   00003507+0000001210          1400 CM6510               2AZ
200029005200029903-000155     200029006009803374435SWT LOLLY I LUV U HEART0000001000+00000525+00000+0001T   00000525+0000001210          1400 CM6150               2AZ
200029006200029007-000657     200029006003000081905STATIONERY SET GIRL    0000001000+00005262+00000+0001T   00005262+0000001210          1400 CM6130               2AZ
200029007200029306-001660     200029006003000620579NAIL DRYING MACHINE    0000001000+00007016+00000+0001T   00007016+0000001210          1400 CM6200               2AZ
200029008200029306-001680     200029006003000365081MANICURE NAIL ART KIT  0000001000+00003069+00000+0001T   00003069+0000001210          1400 CM6200               2AZ
200029009200029031-000002     200029006001023851338FRAME FRIENDS 7.5x7.5cm0000001000+00003507+00000+0001T   00003507+0000001210          1400 CM6510               2AZ
200029010200029071-003023     200029006001023836120BALLPENS 10PCE MINI GEL0000001000+00003507+00000+0001T   00003507+0000001210          1400 CM6130               2AZ
200029011200029903-000155     200029006009803374435SWT LOLLY I LUV U HEART0000001000+00000525+00000+0001T   00000525+0000001210          1400 CM6150               2AZ
200029012200029566-000054     200029006003000085781S/BOOK ALBUM+ACCESORIES0000001000+00010525+00000+0001T   00010525+0000001210          1400 CM6130               2AZ
200029013200029080-000133     200029006003000535613CARD&ENV MINI ASTD DSGN0000003000+00000437+00000+0001T   00000437+0000001210          1400 CM6112               2AZ
200029014200029030-000030-A   200029006003000249305PLAQUE GLASS LOVE      0000001000+00003069+00000+0001T   00003069+0000001210          1400 CM6505               2AZ
200029015200029071-003850     200029006001023893253PENCIL 5PCE RAINBOW WDN0000001000+00002630+00000+0001T   00002630+0000001210          1400 CM6130               2AZ
200029016200029077-000115     200029006001023834225WRAP METALLIC 700mmx1m 0000001000+00001753+00000+0001T   00001753+0000001210          1400 CM6112               2AZ
200029017200029903-000499     200029006001704012492SWT CHOC MALLOWS 50g   0000001000+00001227+00000+0001T   00001227+0000001210          1400 CM6150               2AZ
200030000200030               200030               170213JM     1400+00000+JM0000026282+0000026282+000000000+000003682+0000029960+0000000004+I20000000000+0000029960+Z
200030001200030566-000028     200030006003000265541STICKER BK ASSTD 250PCE0000001000+00001753+00000+0001T   00001753+0000001212          1400 CM6130               2AZ
200030002200030112-116053     200030006006438002399TCS CARRIER BAG 38L    0000001000+00000069+00000+0001T   00000069+0000001212          1400 CM6090               2AZ
200030003200030562-000020     200030006003000600861EDU PLAY DOUGH 60g 4PC 0000002000+00003507+00000+0001T   00003507+0000001212          1400 CM6755               2AZ
200030004200030365-005267     200030006001023584366P/SET KITCHEN BAKING PL0000002000+00003507+00000+0001T   00003507+0000001212          1400 CM6725               2AZ
200030005200030361-009103     200030006001023706607DOLL BOTTLES 10cm 2PCE 0000001000+00002192+00000+0001T   00002192+0000001212          1400 CM6725               2AZ
200030006200030159-000654     200030006003000294770BATH-SPONGE MESH PK3   0000001000+00002630+00000+0001T   00002630+0000001212          1400 CM6200               2AZ
200030007200030306-000019     200030006001023734846TOOTHBRUSH W/DESIGN    0000001000+00000525+00000+0001T   00000525+0000001212          1400 CM6200               2AZ
200030008200030369-001137-B   200030006003000626373BABY BATH VINYL DUCK   0000001000+00001578+00000+0001T   00001578+0000001212          1400 CM6745               2AZ
200030009200030107-002106     200030006003000507115BASIN W/HANDLE/ICE BCKT0000001000+00003507+00000+0001T   00003507+0000001212          1400 CM6210               2AZ
200031000200031               200031               170213JM     1400+00000+JM0000003330+0000003330+000000000+000000467+0000003790+0000000007+I20000000000+0000003790+Z
200031001200031077-000011-C   200031006001023808523TISSUE 10xSHTS RED     0000001000+00000876+00000+0001T   00000876+0000001213          1400 CM6112               2AZ
200031002200031077-000011-D   200031006001023808554TISSUE-WRAP WHITE 10PCE0000001000+00000876+00000+0001T   00000876+0000001213          1400 CM6112               2AZ
200031003200031071-001002     200031006003000217540PENCIL-SHARPNER DOUBLE 0000001000+00001578+00000+0001T   00001578+0000001213          1400 CM6130               2AZ
200032000200032               200032               170213JM     1400+00000+JM0000007015+0000007015+000000000+000000983+0000007998+0000000000+I40000007998+0000000000+Z
200032001200032082-000120     200032006003000360727READING GLS STRENGTH:3 0000001000+00004385+00000+0001T   00004385+0000001215          1400 CM6160               2AZ
200032002200032077-000270     200032006003000395453GIFT-BAG PPR JMB 33X45 0000001000+00002630+00000+0001T   00002630+0000001215          1400 CM6112               2AZ
200033000200033               200033               170213JM     1400+00000+JM0000004385+0000004385+000000000+000000614+0000004999+0000000000+I40000004999+0000000000+Z
200033001200033082-007586     200033006003000654291SUNGLASS DESIGNER ASST 0000001000+00004385+00000+0001T   00004385+0000001217          1400 CM6160               2AZ
200034000200034               200034               170213JM     1400+00000+JM0000061451+0000061451+000000000+000008624+0000070075+0000000000+I40000070075+0000000000+Z
200034001200034112-116069     200034006009681820277TCS CARRIER BAG JUMBO  0000001000+00000048+00000+0001T   00000048+0000001225          1400 CM6090               2AZ
200034002200034019-071599     200034006001023693242PEBBLES GLS 250g BLACK 0000010000+00001753+00000+0001T   00001753+0000001225          1400 CM6510               2AZ
200034003200034019-071595     200034006001023756428PEBBLES 250g SKY-BLUE  0000010000+00001753+00000+0001T   00001753+0000001225          1400 CM6510               2AZ
200034004200034112-116069     200034006009681820277TCS CARRIER BAG JUMBO  0000001000+00000048+00000+0001T   00000048+0000001225          1400 CM6090               2AZ
200034005200034019-071598     200034006001023693228PEBBLES GLS 250g WHITE 0000010000+00001753+00000+0001T   00001753+0000001225          1400 CM6510               2AZ
200034006200034019-071596     200034006001023733078PEBBLES GLS 250g ASSTD.0000005000+00001753+00000+0001T   00001753+0000001225          1400 CM6510               2AZ
200035000200035               200035               170213JM     1400+00000+JM0000001490+0000001490+000000000+000000209+0000001690+0000000009+I20000000000+0000001690+Z
200035001200035493-059010     200035000078257590100BEACH-BALL COLOR-PANELS0000001000+00001490+00000+0001T   00001490+0000001226          1400 CM6787               2AZ
200036000200036               200036               170213JM     1400+00000+JM0000000700+0000000700+000000000+000000098+0000000790+0000000008+I20000000000+0000000790+Z
200036001200036018-000177     200036006001023797513MUG MINI LOVE ASSTD    0000001000+00000700+00000+0001T   00000700+0000001227          1400 CM6515               2AZ
200037000200037               200037               170213JM     1400+00000+JM0000011258+0000011258+000000000+000001578+0000012836+0000000000+I40000012836+0000000000+Z
200037001200037079-000510     200037006001023509079CRAYONS WAX 12-COLOUR  0000001000+00002455+00000+0001T   00002455+0000001233          1400 CM6130               2AZ
200037002200037265-001646     200037006001023755902BATTERY OPERATED CAR   0000001000+00004385+00000+0001T   00004385+0000001233          1400 CM6710               2AZ
200037003200037567-011310     200037006003000593378BOOK ACTIVITY DOT      0000001000+00001753+00000+0001T   00001753+0000001233          1400 CM6757               2AZ
200037004200037567-011387     200037009781405374125BK RELIGIOUS STICKER   0000001000+00002630+00000+0001T   00003507+0008141233          1400 CM6757               2AZ
200037005200037112-116038     200037006009681820246TCS CARRIER BAG MIDI   0000001000+00000035+00000+0001T   00000035+0000001233          1400 CM6090               2AZ
200038000200038               200038               170213JM     1400+00000+JM0000002192+0000002192+000000000+000000307+0000002499+0000000000+I40000002499+0000000000+Z
200038001200038046-000012-A   200038006003000208296BATTERIES H/POWER SZ:AA0000001000+00002192+00000+0001T   00002192+0000001237          1400 CM6312               2AZ
200039000200039               200039               170213JM     1400+00000+JM0000007706+0000007706+000000000+000001084+0000008790+0000000000+I40000008790+0000000000+Z
200039001200039071-003011     200039006001023762825PEN STICKBALL X10 ASSTD0000001000+00001753+00000+0001T   00001753+0000001239          1400 CM6130               2AZ
200039002200039007-000043     200039006009635831496DISPLAY-BOOK PL A4 20PG0000001000+00001753+00000+0001T   00001753+0000001239          1400 CM6130               2AZ
200039003200039007-000402     200039006009635830864EXERCISE-BOOK A4 72PGE 0000008000+00000525+00000+0001T   00000525+0000001239          1400 CM6130               2AZ
200040000200040               200040               170213JM     1400+00000+JM0000004385+0000004385+000000000+000000614+0000004990+0000000009+I20000000000+0000004990+Z
200040001200040486-001012     200040006001023820907CLOCK ALARM SQR 10X12CM0000001000+00004385+00000+0001T   00004385+0000001240          1400 CM6510               2AZ
200041000200041               200041               170213JM     1400+00000+JM0000024560+0000024560+000000000+000003439+0000027999+0000000000+I40000027999+0000000000+Z
200041001200041031-001013     200041006003000674749P/FRAME COLLAGE WDN    0000001000+00024560+00000+0001T   00024560+0000001252          1400 CM6510               2AZ
200042000200042               200042               170213JM     1400+00000+JM0000004385+0000004385+000000000+000000614+0000004999+0000000000+I40000004999+0000000000+Z
200042001200042031-000870-A   200042006001023798626P/FRAME WOOD WHITE-PINE0000001000+00004385+00000+0001T   00004385+0000001254          1400 CM6510               2AZ
200043000200043               200043               170213JM     1400+00000+JM0000009325+0000009325+000000000+000001308+0000010630+0000000003+I20000000000+0000010630+Z
200043001200043039-000322     200043006001023524157B/CANDLES W/HOLDERS 24 0000001000+00001139+00000+0001T   00001139+0000001259          1400 CM6510               2AZ
200043002200043039-000319-1   200043006003000442386B/CANDLES LRG NUMBER-1 0000001000+00000876+00000+0001T   00000876+0000001259          1400 CM6510               2AZ
200043003200043039-000319-4   200043006003000442744B/CANDLES LRG NUMBER-4 0000001000+00000876+00000+0001T   00000876+0000001259          1400 CM6510               2AZ
200043004200043089-060027     200043006003000245871KEY-CHAIN HEART 6X6cm  0000001000+00003069+00000+0001T   00003069+0000001259          1400 CM6205               2AZ
200043005200043077-000011-D   200043006001023808554TISSUE-WRAP WHITE 10PCE0000002000+00000876+00000+0001T   00000876+0000001259          1400 CM6112               2AZ
200043006200043018-000127     200043006001023380289MUG OCC STRAIGHT LOVE  0000001000+00001578+00000+0001T   00001753+0006471259          1400 CM6515               2AZ
200043007200043112-116038     200043006009681820246TCS CARRIER BAG MIDI   0000001000+00000035+00000+0001T   00000035+0000001259          1400 CM6090               2AZ
200044000200044               200044               170213JM     1400+00000+JM0000021529+0000021529+000000000+000003018+0000024547+0000000000+I40000024547+0000000000+Z
200044001200044004-071206     200044006003000605156USB CABLE CHARGER      0000001000+00003507+00000+0001T   00003507+0000001304          1400 CM6310               2AZ
200044002200044112-116069     200044006009681820277TCS CARRIER BAG JUMBO  0000001000+00000048+00000+0001T   00000048+0000001304          1400 CM6090               2AZ
200044003200044046-002013-PK6 200044004897006174851BATTERY BUTTON AG13 6PC0000001000+00001753+00000+0001T   00001753+0000001304          1400 CM6312               2AZ
200044004200044159-000670     200044006003000577187BATH SPONGE MESH BACK  0000001000+00001753+00000+0001T   00002630+0008131304          1400 CM6200               2AZ
200044005200044159-000103     200044006001023890214SHOWER CADDY PL-COATED 0000001000+00003946+00000+0001T   00003946+0000001304          1400 CM6200               2AZ
200044006200044084-091594     200044006003000620692FOOT FILE/GRATER       0000001000+00004823+00000+0001T   00004823+0000001304          1400 CM6200               2AZ
200044007200044024-000092     200044006003000426805MEASURING-SET 6PC      0000001000+00003946+00000+0001T   00003946+0000001304          1400 CM6300               2AZ
200044008200044078-000026     200044006936198407090SUPERGLUE 3,0g GEL     0000001000+00001753+00000+0001T   00001753+0000001304          1400 CM6810               2AZ
200045000200045               200045               170213JM     1400+00000+JM0000020989+0000020989+000000000+000002941+0000023930+0000000000+I20000000000+0000023930+Z
200045001200045112-116038     200045006009681820246TCS CARRIER BAG MIDI   0000001000+00000035+00000+0001T   00000035+0000001444          1400 CM6090               2AZ
200045002200045031-080508     200045006001023802415P/FRAME PL 22X11CM LOVE0000001000+00004385+00000+0001T   00004385+0000001444          1400 CM6510               2AZ
200045003200045106-008100     200045006001023764126MEASURING-SHAKER 500ml 0000001000+00002630+00000+0001T   00002630+0000001444          1400 CM6210               2AZ
200045004200045024-000069     200045006001023849571EGG-WHISK S/S 30cm     0000001000+00003069+00000+0001T   00003069+0000001444          1400 CM6300               2AZ
200045005200045306-000977     200045006003000559596FIRSTAID PLASTER 75PC  0000001000+00002630+00000+0001T   00002630+0000001444          1400 CM6200               2AZ
200045006200045206-000630     200045006003000631919SPECTACLE CLEANING BRUS0000001000+00001227+00000+0001T   00001227+0000001444          1400 CM6321               2AZ
200045007200045089-000187     200045006003000594245KEY CHAIN PVC DUCK 3.5 0000001000+00001314+00000+0001T   00001314+0000001444          1400 CM6205               2AZ
200045008200045032-000236     200045006001023731647MIRROR PL STANDING OVAL0000001000+00003507+00000+0001T   00003507+0000001444          1400 CM6510               2AZ
200045009200045080-000127     200045006003000424351VALENTINES DAY 36x24CM 0000001000+00002192+00000+0001T   00002192+0000001444          1400 CM6112               2AZ
200046000200046               200046               170213JM     1400+00000+JM0000014141+0000014141+000000000+000001984+0000016125+0000000000+I40000016125+0000000000+Z
200046001200046150-000770     200046006005387000128UTILITY BOX MEGA       0000001000+00003244+00000+0001T   00003244+0000001450          1400 CM6810               2AZ
200046002200046903-005002     200046006002580020021SWT MALLOW SNAKE 120g  0000001000+00001314+00000+0001T   00001314+0000001450          1400 CM6150               2AZ
200046003200046112-116038     200046006009681820246TCS CARRIER BAG MIDI   0000001000+00000035+00000+0001T   00000035+0000001450          1400 CM6090               2AZ
200046004200046903-000137     200046006002099004130SWEET GS JELLY BEAN 60G0000001000+00000788+00000+0001T   00000788+0000001450          1400 CM6150               2AZ
200046005200046903-000520     200046006001704009898SWT GUMMY MINI SOUR 60g0000002000+00000876+00000+0001T   00000876+0000001450          1400 CM6150               2AZ
200046006200046903-000220     200046006001704007368SWT JELLY BEANS 60G    0000001000+00000876+00000+0001T   00000876+0000001450          1400 CM6150               2AZ
200046007200046903-005000     200046006002580020007SWT CT MALLOW FISH 120g0000001000+00001314+00000+0001T   00001314+0000001450          1400 CM6150               2AZ
200046008200046903-000123     200046006925925909280SWEET GS MINI MALLOWS  0000001000+00000876+00000+0001T   00000876+0000001450          1400 CM6150               2AZ
200046009200046903-000844     200046005010478432567SWT CANDY DL LUV HEARTS0000001000+00001314+00000+0001T   00001314+0000001450          1400 CM6150               2AZ
200046010200046566-000200     200046006003000384174STICKER PUFFY NEON     0000001000+00000876+00000+0001T   00000876+0000001450          1400 CM6130               2AZ
200046011200046566-002009     200046000721129023939STICKERS CRYSTAL  ASSTD0000001000+00000876+00000+0001T   00000876+0000001450          1400 CM6130               2AZ
200046012200046566-000200     200046006003000384174STICKER PUFFY NEON     0000001000+00000876+00000+0001T   00000876+0000001450          1400 CM6130               2AZ
200047000200047               200047               170213JM     1400+00000+JM0000003068+0000003068+000000000+000000431+0000003490+0000000009+I20000000000+0000003490+Z
200047001200047079-006494     200047006003000159864GLITTER GLUE 5PCE 11cm 0000001000+00001490+00000+0001T   00001490+0000001500          1400 CM6130               2AZ
200047002200047079-009700-B   200047006003000547661PAPER SIRIO A4 WHITE   0000005000+00000306+00000+0001T   00000306+0000001500          1400 CM6130               2AZ
200047003200047112-116069     200047006009681820277TCS CARRIER BAG JUMBO  0000001000+00000048+00000+0001T   00000048+0000001500          1400 CM6090               2AZ
200048000200048               200048               170213JM     1400+00000+JM0000008052+0000008052+000000000+000001131+0000009183+0000000000+I40000009183+0000000000+Z
200048001200048112-116038     200048006009681820246TCS CARRIER BAG MIDI   0000001000+00000035+00000+0001T   00000035+0000001502          1400 CM6090               2AZ
200048002200048903-000183     200048006003000451043SWT LB HEART LOLLY     0000003000+00000393+00000+0001T   00000393+0000001502          1400 CM6150               2AZ
200048003200048301-085004     200048006003000420469ORN LOVE PLAQUE 21X10CM0000001000+00003507+00000+0001T   00003946+0006471502          1400 CM6505               2AZ
200048004200048083-000054     200048006001023729071LIGHTER REFILLABLE LED 0000001000+00001578+00000+0001T   00001578+0000001502          1400 CM6315               2AZ
200048005200048566-001501     200048006003000658398STICKER PAPER EMOTION  0000001000+00001753+00000+0001T   00001753+0000001502          1400 CM6130               2AZ
200049000200049               200049               170213JM     1400+00000+JM0000005257+0000005257+000000000+000000738+0000005995+0000000000+I40000005995+0000000000+Z
200049001200049903-000155     200049006009803374435SWT LOLLY I LUV U HEART0000001000+00000525+00000+0001T   00000525+0000001504          1400 CM6150               2AZ
200049002200049903-002853     200049000000087108019MENTOS ROLL MINT       0000001000+00001051+00000+0001T   00001051+0000001504          1400 CM6150               2AZ
200049003200049007-000555     200049006001023848239MEMO-PAD MINI LOVE     0000001000+00000613+00000+0001T   00000613+0000001504          1400 CM6130               2AZ
200049004200049162-087876     200049006001492878768#TAG 2PK HEADBANDS     0000001000+00000876+00000+0001T   00001753+0008161504          1400 CM6160               2AZ
200049005200049566-000359     200049006003000582709STICKER BOOK LOVE SPARK0000001000+00002192+00000+0001T   00002192+0000001504          1400 CM6130               2AZ
200050000200050               200050               170213JM     1400+00000+JM0000001928+0000001928+000000000+000000270+0000002190+0000000008+I20000000000+0000002190+Z
200050001200050105-001025-A   200050006009654960979CONTAINERS CLEAR 4PCE  0000001000+00001928+00000+0001T   00001928+0000001505          1400 CM6210               2AZ
200051000200051               200051               170213JM     1400+00000+JM0000006187+0000006187+000000000+000000867+0000007050+0000000004+I20000000000+0000007050+Z
200051001200051018-050000     200051006003000412679MUG OCC LOVE TWIN BEAR 0000001000+00006139+00000+0001T   00006139+0000001506          1400 CM6515               2AZ
200051002200051112-116069     200051006009681820277TCS CARRIER BAG JUMBO  0000001000+00000048+00000+0001T   00000048+0000001506          1400 CM6090               2AZ
200052000200052               200052               170213JM     1400+00000+JM0000003506+0000003506+000000000+000000492+0000003990+0000000008+I20000000000+0000003990+Z
200052001200052006-000124     200052006003000625888BALLOONS 10PC MIX COL  0000001000+00001753+00000+0001T   00001753+0000001508          1400 CM6131               2AZ
200052002200052006-000092     200052006001023739650BANNER BIRTHDAY PAPER  0000001000+00001753+00000+0001T   00001753+0000001508          1400 CM6131               2AZ
200053000200053               200053               170213JM     1400+00000+JM0000002192+0000002192+000000000+000000307+0000002490+0000000009+I20000000000+0000002490+Z
200053001200053033-005907     200053006003000433506SHOE LACES 4-PAIR SET  0000001000+00002192+00000+0001T   00002192+0000001509          1400 CM6200               2AZ
200054000200054               200054               170213JM     1400+00000+JM0000008813+0000008813+000000000+000001236+0000010049+0000000000+I40000010049+0000000000+Z
200054001200054112-116069     200054006009681820277TCS CARRIER BAG JUMBO  0000001000+00000048+00000+0001T   00000048+0000001512          1400 CM6090               2AZ
200054002200054104-000040     200054006001023846280BASKET HEART-SHAPED    0000001000+00001753+00000+0001T   00001753+0000001512          1400 CM6210               2AZ
200054003200054369-000200     200054006001023856982BABY EDU CUP STACKING  0000001000+00002630+00000+0001T   00002630+0000001512          1400 CM6745               2AZ
200054004200054079-000512     200054006001023635853CRAYONS WAX 12-COLOUR  0000001000+00001490+00000+0001T   00001490+0000001512          1400 CM6130               2AZ
200054005200054007-000128     200054006009635830475BOOK H/COVER A5 96-PAGE0000001000+00000700+00000+0001T   00000700+0000001512          1400 CM6130               2AZ
200054006200054079-013102     200054006003000019601ART+CRAFT DIY PIPE-CLNR0000001000+00002192+00000+0001T   00002192+0000001512          1400 CM6130               2AZ
200055000200055               200055               170213JM     1400+00000+JM0000007047+0000007047+000000000+000000989+0000008030+0000000006+I20000000000+0000008030+Z
200055001200055174-000175     200055006001023730985LAUNDRY-BAG FOLD-AWAY  0000001000+00002630+00000+0001T   00002630+0000001513          1400 CM6205               2AZ
200055002200055006-000093     200055006003000539932PARTY BANNER FLAGS ASST0000002000+00001753+00000+0001T   00001753+0000001513          1400 CM6131               2AZ
200055003200055039-000319-1   200055006003000442386B/CANDLES LRG NUMBER-1 0000001000+00000876+00000+0001T   00000876+0000001513          1400 CM6510               2AZ
200055004200055112-116038     200055006009681820246TCS CARRIER BAG MIDI   0000001000+00000035+00000+0001T   00000035+0000001513          1400 CM6090               2AZ
200056000200056               200056               170213JM     1400+00000+JM0000001400+0000001400+000000000+000000196+0000001590+0000000006+I20000000000+0000001590+Z
200056001200056261-000121     200056006001023341600GUN-CAPS 8-SHOT CARD-9 0000002000+00000700+00000+0001T   00000700+0000001516          1400 CM6710               2AZ
200057000200057               200057               170213JM     1400+00000+JM0000011084+0000011084+000000000+000001557+0000012641+0000000000+I40000012641+0000000000+Z
200057001200057112-116069     200057006009681820277TCS CARRIER BAG JUMBO  0000001000+00000048+00000+0001T   00000048+0000001520          1400 CM6090               2AZ
200057002200057174-008028     200057006009654960825TRAVEL JARS 4-PACK     0000001000+00001928+00000+0001T   00001928+0000001520          1400 CM6205               2AZ
200057003200057056-005752     200057006003000491674CAR AIR-FRESH FISH ASST0000001000+00001753+00000+0001T   00001753+0000001520          1400 CM6860               2AZ
200057004200057206-000630     200057006003000631919SPECTACLE CLEANING BRUS0000001000+00001227+00000+0001T   00001227+0000001520          1400 CM6321               2AZ
200057005200057903-000155     200057006009803374435SWT LOLLY I LUV U HEART0000008000+00000525+00000+0001T   00000525+0000001520          1400 CM6150               2AZ
200057006200057174-008032     200057006009654960603TRAVEL BOTTLES 50ml    0000001000+00001928+00000+0001T   00001928+0000001520          1400 CM6205               2AZ
200058000200058               200058               170213JM     1400+00000+JM0000003945+0000003945+000000000+000000553+0000004490+0000000008+I20000000000+0000004490+Z
200058001200058072-020303     200058006008632000492DOG-TOY DENTAL-BONE    0000001000+00002192+00000+0001T   00002192+0000001521          1400 CM6870               2AZ
200058002200058903-000215     200058006002099001214SWT GS MALLOW TWIST PAC0000001000+00001753+00000+0001T   00001753+0000001521          1400 CM6150               2AZ
200059000200059               200059               170213JM     1400+00000+JM0000004384+0000004384+000000000+000000614+0000004998+0000000000+I40000004998+0000000000+Z
200059001200059301-085000     200059006003000674299 ORN OCC. LOVE HEARTS  0000001000+00002192+00000+0001T   00002192+0000001522          1400 CM6505               2AZ
200059002200059080-000127     200059006003000424351VALENTINES DAY 36x24CM 0000001000+00002192+00000+0001T   00002192+0000001522          1400 CM6112               2AZ
200060000200060               200060               170213JM     1400+00000+JM0000000876+0000000876+000000000+000000123+0000000990+0000000009+I20000000000+0000000990+Z
200060001200060083-000050     200060006001023898593LIGHTERS DISPOSABLE    0000001000+00000876+00000+0001T   00000876+0000001522          1400 CM6315               2AZ
200061000200061               200061               170213JM     1400+00000+JM0000013984+0000013984+000000000+000001962+0000015946+0000000000+I40000015946+0000000000+Z
200061001200061112-116069     200061006009681820277TCS CARRIER BAG JUMBO  0000001000+00000048+00000+0001T   00000048+0000001525          1400 CM6090               2AZ
200061002200061140-006004     200061006001023628077FLY-SWATTER RUBBER     0000001000+00001139+00000+0001T   00001139+0000001525          1400 CM6830               2AZ
200061003200061133-000010-A   200061006001023997647CLEANING CLOTH ROLL 30 0000001000+00003507+00000+0001T   00003507+0000001525          1400 CM6212               2AZ
200061004200061200-003026     200061006003000276448REFUSE BAGS 10PCE GREEN0000004000+00001753+00000+0001T   00001753+0000001525          1400 CM6214               2AZ
200061005200061903-000087     200061006001704000161SWT SPECKLED-EGGS 50G  0000002000+00001139+00000+0001T   00001139+0000001525          1400 CM6150               2AZ
200062000200062               200062               170213JM     1400+00000+JM0000001613+0000001613+000000000+000000226+0000001839+0000000000+I40000001839+0000000000+Z
200062001200062018-030000     200062006003000421060MUG OCCASIONS LOVE 2PCE0000001000-00004385+00000+0001T   00004385+0000001528          1400 CM65151IC            2 Z
200062002200062018-030000     200062006003000421060MUG OCCASIONS LOVE 2PCE0000001000+00004385+00000+0001T   00004385+0000001528          1400 CM65151IC            2AZ
200062003200062018-000127     200062006001023380289MUG OCC STRAIGHT LOVE  0000001000+00001578+00000+0001T   00001753+0006471528          1400 CM6515               2AZ
200062004200062112-116038     200062006009681820246TCS CARRIER BAG MIDI   0000001000+00000035+00000+0001T   00000035+0000001528          1400 CM6090               2AZ
200063000200063               200063               170213JM     1400+00000+JM0000016880+0000016880+000000000+000002365+0000019245+0000000000+I40000019245+0000000000+Z
200063001200063112-116069     200063006009681820277TCS CARRIER BAG JUMBO  0000001000+00000048+00000+0001T   00000048+0000001530          1400 CM6090               2AZ
200063002200063903-003080     200063005907029004673SWT SNACK STIX CHOC 50g0000001000+00000876+00000+0001T   00000876+0000001530          1400 CM6150               2AZ
200063003200063567-010395     200063006002242053466GENERIC AFRIKAANS READE0000001000+00002192+00000+0001T   00002192+0000001530          1400 CM6757               2AZ
200063004200063083-000055     200063006003000003853LIGHTER ELCTRNC REFILBL0000001000+00000613+00000+0001T   00000613+0000001530          1400 CM6315               2AZ
200063005200063567-011915     200063009780799375503BK EDU WISKUNDE 7-8JAAR0000001000+00002630+00000+0001T   00002630+0000001530          1400 CM6757               2AZ
200063006200063567-011312     200063006003000593842BOOK READER PLAKKERPRET0000002000+00003507+00000+0001T   00004385+0008141530          1400 CM6757               2AZ
200063007200063028-000031     200063006003000270897COOLER-BAG THERMAL 6PK 0000001000+00003507+00000+0001T   00003507+0000001530          1400 CM6305               2AZ
200064000200064               200064               170213JM     1400+00000+JM0000005085+0000005085+000000000+000000712+0000005797+0000000000+I40000005797+0000000000+Z
200064001200064018-000130     200064006001023867537MUG OCC LOVE MINI+HEART0000001000+00003507+00000+0001T   00003507+0000001531          1400 CM6515               2AZ
200064002200064077-000303     200064006001023593757GIFT-BAG PAPER MED     0000001000+00001578+00000+0001T   00001578+0000001531          1400 CM6112               2AZ
200065000200065               200065               170213JM     1400+00000+JM0000010082+0000010082+000000000+000001413+0000011495+0000000000+I40000011495+0000000000+Z
200065001200065563-000318-J   200065006003000404728SERVIETTES 33cm YELLOW 0000001000+00002192+00000+0001T   00002192+0000001532          1400 CM6214               2AZ
200065002200065563-000318-F   200065006003000404247SERVIETTES 33cm ORANGE 0000001000+00001753+00000+0001T   00001753+0000001532          1400 CM6214               2AZ
200065003200065563-000318-L   200065006003000407088SERVIETTES 33cm RED    0000001000+00002192+00000+0001T   00002192+0000001532          1400 CM6214               2AZ
200065004200065563-000318-F   200065006003000404247SERVIETTES 33cm ORANGE 0000001000+00001753+00000+0001T   00001753+0000001532          1400 CM6214               2AZ
200065005200065563-000318-J   200065006003000404728SERVIETTES 33cm YELLOW 0000001000+00002192+00000+0001T   00002192+0000001532          1400 CM6214               2AZ
200066000200066               200066               170213JM     1400+00000+JM0000013415+0000013415+000000000+000001880+0000015290+0000000005+I20000000000+0000015290+Z
200066001200066080-000127     200066006003000424351VALENTINES DAY 36x24CM 0000002000+00002192+00000+0001T   00002192+0000001533          1400 CM6112               2AZ
200066002200066903-000698     200066006002099007032SWT CANDY ECLAIRS 90g  0000001000+00001139+00000+0001T   00001139+0000001533          1400 CM6150               2AZ
200066003200066018-050000     200066006003000412679MUG OCC LOVE TWIN BEAR 0000001000+00006139+00000+0001T   00006139+0000001533          1400 CM6515               2AZ
200066004200066077-000290     200066006001023902023GIFT BOX 26x32x13cm    0000001000+00001753+00000+0001T   00001753+0000001533          1400 CM6112               2AZ
200067000200067               200067               170213JM     1400+00000+JM0000016291+0000016291+000000000+000002283+0000018574+0000000000+I40000018574+0000000000+Z
200067001200067112-116053     200067006006438002399TCS CARRIER BAG 38L    0000001000+00000069+00000+0001T   00000069+0000001536          1400 CM6090               2AZ
200067002200067174-000173     200067006001023905307STORAGE-BOX COLLAPSIBLE0000002000+00004385+00000+0001T   00004385+0000001536          1400 CM6205               2AZ
200067003200067007-000050     200067006001023528285DISPLAY-ENVELOPE A4    0000001000+00001753+00000+0001T   00001753+0000001536          1400 CM6130               2AZ
200067004200067105-007805     200067006002923018920STORAGE BOX CLEAR 9.5L 0000001000+00005262+00000+0001T   00005262+0000001536          1400 CM6210               2AZ
200067005200067080-000133     200067006003000535613CARD&ENV MINI ASTD DSGN0000001000+00000437+00000+0001T   00000437+0000001536          1400 CM6112               2AZ
200068000200068               200068               170213JM     1400+00000+JM0000001753+0000001753+000000000+000000246+0000001990+0000000009+I20000000000+0000001990+Z
200068001200068084-000889     200068006003000293674NAIL FILE EMERY 18CM   0000001000+00001753+00000+0001T   00001753+0000001537          1400 CM6200               2AZ
200069000200069               200069               170213JM     1400+00000+JM0000000700+0000000700+000000000+000000098+0000000790+0000000008+I20000000000+0000000790+Z
200069001200069007-000166     200069006009685857316SPIRAL NOTES A6 100PG  0000001000+00000700+00000+0001T   00000700+0000001537          1400 CM6130               2AZ
200070000200070               200070               170213JM     1400+00000+JM0000002630+0000002630+000000000+000000369+0000002990+0000000009+I20000000000+0000002990+Z
200070001200070076-000030-H   200070006001023429544WASHING-LINE 30m    H&H0000001000+00002630+00000+0001T   00002630+0000001538          1400 CM6810               2AZ
200071000200071               200071               170213JM     1400+00000+JM0000001752+0000001752+000000000+000000246+0000001990+0000000008+I20000000000+0000001990+Z
200071001200071566-000200     200071006003000384174STICKER PUFFY NEON     0000002000+00000876+00000+0001T   00000876+0000001538          1400 CM6130               2AZ
200072000200072               200072               170213JM     1400+00000+JM0000001576+0000001576+000000000+000000222+0000001790+0000000008+I20000000000+0000001790+Z
200072001200072071-081101-A   200072006003000326549GLUE-STICK 25g BLISTER 0000002000+00000788+00000+0001T   00000788+0000001539          1400 CM6130               2AZ
200073000200073               200073               170213JM     1400+00000+JM0000001570-0000001570-000000000+000000220-0000001790-0000000000+I20000000000+0000001790-Z
200073001200073001-999906     200073000000000999906STATIONERY(PHOTOCOPIES)0000001000-00001570+00000+0001T   00000000+0000001540          1400 CM69061IC            2 Z
200074000200074               200074               170213JM     1400+00000+JM0000003067+0000003067+000000000+000000430+0000003497+0000000000+I40000003497+0000000000+Z
200074001200074077-000310     200074006001023608635GIFT-BAG 18X23CM GLOSS 0000001000+00001314+00000+0001T   00001314+0000001550          1400 CM6112               2AZ
200074002200074077-000472     200074006003000330133G-BAG DESGNR LRG 25X32 0000001000+00001753+00000+0001T   00001753+0000001550          1400 CM6112               2AZ
200075000200075               200075               170213JM     1400+00000+JM0000006575+0000006575+000000000+000000921+0000007490+0000000006+I20000000000+0000007490+Z
200075001200075079-013032-C   200075006003000389520POLY SHAPES            0000001000+00001578+00000+0001T   00001578+0000001600          1400 CM6130               2AZ
200075002200075200-000065     200075006001023323675DRINKING-STRAWS 38PCE  0000001000+00000613+00000+0001T   00000613+0000001600          1400 CM6214               2AZ
200075003200075079-013102     200075006003000019601ART+CRAFT DIY PIPE-CLNR0000002000+00002192+00000+0001T   00002192+0000001600          1400 CM6130               2AZ
200076000200076               200076               170213JM     1400+00000+JM0000010258+0000010258+000000000+000001437+0000011695+0000000000+I40000011695+0000000000+Z
200076001200076903-000510     200076006001704012621SWEET MS ZBDZ S/BERRY  0000001000+00001227+00000+0001T   00001227+0000001605          1400 CM6150               2AZ
200076002200076018-000127     200076006001023380289MUG OCC STRAIGHT LOVE  0000001000+00001578+00000+0001T   00001753+0006471605          1400 CM6515               2AZ
200076003200076903-000123     200076006925925909280SWEET GS MINI MALLOWS  0000001000+00000876+00000+0001T   00000876+0000001605          1400 CM6150               2AZ
200076004200076050-000880-TS  200076006003000688098PADLOCK COMBO BRS 4 WHL0000001000+00004385+00000+0001T   00004385+0000001605          1400 CM6855               2AZ
200076005200076080-000127     200076006003000424351VALENTINES DAY 36x24CM 0000001000+00002192+00000+0001T   00002192+0000001605          1400 CM6112               2AZ
200077000200077               200077               170213JM     1400+00000+JM0000005259+0000005259+000000000+000000738+0000005997+0000000000+I40000005997+0000000000+Z
200077001200077306-001720     200077006003000276257HAND SANITIZER WIPES   0000001000+00001753+00000+0001T   00001753+0000001606          1400 CM6200               2AZ
200077002200077006-000120     200077006001023346889BALLOONS 10PC MIX COL  0000002000+00001753+00000+0001T   00001753+0000001606          1400 CM6131               2AZ
200078000200078               200078               170213JM     1400+00000+JM0000001753+0000001753+000000000+000000246+0000001990+0000000009+I20000000000+0000001990+Z
200078001200078072-020353     200078006001023598097DOG/CAT-BOWL 17cm      0000001000+00001753+00000+0001T   00001753+0000001607          1400 CM6870               2AZ
200079000200079               200079               170213JM     1400+00000+JM0000002192+0000002192+000000000+000000307+0000002490+0000000009+I20000000000+0000002490+Z
200079001200079079-013102     200079006003000019601ART+CRAFT DIY PIPE-CLNR0000001000+00002192+00000+0001T   00002192+0000001608          1400 CM6130               2AZ
200080000200080               200080               170213JM     1400+00000+JM0000008359+0000008359+000000000+000001174+0000009533+0000000000+I40000009533+0000000000+Z
200080001200080080-000133-A   200080006003000647019MINI VALENTINES CARD   0000003000+00000437+00000+0001T   00000437+0000001615          1400 CM6112               2AZ
200080002200080007-000581     200080006001023710154NOTE-BOOK SET ASSTD    0000001000+00002630+00000+0001T   00002630+0000001615          1400 CM6130               2AZ
200080003200080048-000870     200080006003000525287LANTERN B/LIGHT MINI   0000001000+00003507+00000+0001T   00003507+0000001615          1400 CM6305               2AZ
200080004200080077-000011-C   200080006001023808523TISSUE 10xSHTS RED     0000001000+00000876+00000+0001T   00000876+0000001615          1400 CM6112               2AZ
200080005200080112-116038     200080006009681820246TCS CARRIER BAG MIDI   0000001000+00000035+00000+0001T   00000035+0000001615          1400 CM6090               2AZ
200081000200081               200081               170213JM     1400+00000+JM0000006397+0000006397+000000000+000000898+0000007295+0000000000+I40000007295+0000000000+Z
200081001200081078-000025     200081008887013700064SUPERGLUE 3g 1PCE CARD 0000002000+00000876+00000+0001T   00000876+0000001618          1400 CM6810               2AZ
200081002200081159-000041     200081006001023767684HOOK-HANGER 2PCE S/S   0000002000+00001753+00000+0001T   00001753+0000001618          1400 CM6200               2AZ
200081003200081159-000043-H   200081006001023416629HOOKS ADHESIVE 3PCE SQR0000001000+00001139+00000+0001T   00001139+0000001618          1400 CM6200               2AZ
200082000200082               200082               170213JM     1400+00000+JM0000003366+0000003366+000000000+000000472+0000003830+0000000008+I20000000000+0000003830+Z
200082001200082018-000127     200082006001023380289MUG OCC STRAIGHT LOVE  0000001000+00001578+00000+0001T   00001753+0006471622          1400 CM6515               2AZ
200082002200082366-007600     200082006001023902184MASK THEATRICAL GLITTER0000001000+00001753+00000+0001T   00001753+0000001622          1400 CM6131               2AZ
200082003200082112-116038     200082006009681820246TCS CARRIER BAG MIDI   0000001000+00000035+00000+0001T   00000035+0000001622          1400 CM6090               2AZ
200083000200083               200083               170213JM     1400+00000+JM0000025846+0000025846+000000000+000003623+0000029469+0000000000+I40000029469+0000000000+Z
200083001200083112-116053     200083006006438002399TCS CARRIER BAG 38L    0000001000+00000069+00000+0001T   00000069+0000001625          1400 CM6090               2AZ
200083002200083077-000011-X   200083006001023809827TISSUE-WRAP SILVER 10PC0000001000+00001753+00000+0001T   00001753+0000001625          1400 CM6112               2AZ
200083003200083077-000301     200083008010410010188BAG LRG 25X32CM B/DAY  0000001000+00001753+00000+0001T   00001753+0000001625          1400 CM6112               2AZ
200083004200083038-001800     200083006003000623303DOILIE PAPER HRT 24PC  0000001000+00003507+00000+0001T   00003507+0000001625          1400 CM6300               2AZ
200083005200083368-000111     200083006001023780812PLUSH BEAR/DOG 29CM    0000001000+00012279+00000+0001T   00012279+0000001625          1400 CM6745               2AZ
200083006200083077-000299     200083006003000395576G/BAG 32x25cm LRG LOVE 0000003000+00001490+00000+0001T   00001490+0000001625          1400 CM6112               2AZ
200083007200083077-000245     200083006001023759214GIFT-RIBBON METALLICx2 0000001000+00001227+00000+0001T   00001227+0000001625          1400 CM6112               2AZ
200083008200083079-009702-D   200083008427973059354PAPER SIRIO A2 RED COL 0000001000+00001051+00000+0001T   00001051+0000001625          1400 CM6130               2AZ
200083009200083077-000245     200083006001023759214GIFT-RIBBON METALLICx2 0000001000+00001227+00000+0001T   00001227+0000001625          1400 CM6112               2AZ
200083010200083077-000299     200083006003000395576G/BAG 32x25cm LRG LOVE 0000001000-00001490+00000+0001T   00001490+0000001625          1400 CM61121IC            2 Z
200084000200084               200084               170213JM     1400+00000+JM0000005258+0000005258+000000000+000000738+0000005990+0000000006+I20000000000+0000005990+Z
200084001200084078-000026     200084006936198407090SUPERGLUE 3,0g GEL     0000002000+00001753+00000+0001T   00001753+0000001626          1400 CM6810               2AZ
200084002200084078-000025     200084008887013700064SUPERGLUE 3g 1PCE CARD 0000002000+00000876+00000+0001T   00000876+0000001626          1400 CM6810               2AZ
200085000200085               200085               170213JM     1400+00000+JM0000002624+0000002624+000000000+000000371+0000002990+0000000005+I20000000000+0000002990+Z
200085001200085903-000885     200085008690997017147SWT L/BIRD CHOC BISCUIT0000004000+00000437+00000+0001T   00000437+0000001627          1400 CM6150               2AZ
200085002200085077-000151     200085006008766114676GIFT-WRAP C/PHANE ASSTD0000001000+00000876+00000+0001T   00000876+0000001627          1400 CM6112               2AZ
200086000200086               200086               170213JM     1400+00000+JM0000006572+0000006572+000000000+000000923+0000007495+0000000000+I40000007495+0000000000+Z
200086001200086200-003026     200086006003000276448REFUSE BAGS 10PCE GREEN0000001000+00001753+00000+0001T   00001753+0000001632          1400 CM6214               2AZ
200086002200086903-000709     200086006002099007070SWT QUENCHERS FRUIT    0000001000+00001139+00000+0001T   00001139+0000001632          1400 CM6150               2AZ
200086003200086903-000077     200086006939873501687SWT GS MAGIC ROCK FRUIT0000002000+00000525+00000+0001T   00000525+0000001632          1400 CM6150               2AZ
200086004200086073-000157     200086006003000571734COSMETIC QUILTED BAG   0000001000+00002630+00000+0001T   00002630+0000001632          1400 CM6200               2AZ
200087000200087               200087               170213JM     1400+00000+JM0000001227+0000001227+000000000+000000172+0000001390+0000000009+I20000000000+0000001390+Z
200087001200087200-000092     200087006003000576739PICNIC PAPER PLATES 23c0000001000+00001227+00000+0001T   00001227+0000001633          1400 CM6214               2AZ
200088000200088               200088               170213JM     1400+00000+JM0000002192+0000002192+000000000+000000307+0000002499+0000000000+I40000002499+0000000000+Z
200088001200088306-000026     200088006003000207626COTTON WOOL ROLL 100G  0000001000+00002192+00000+0001T   00002192+0000001634          1400 CM6200               2AZ
200089000200089               200089               170213JM     1400+00000+JM0000001490+0000001490+000000000+000000209+0000001690+0000000009+I20000000000+0000001690+Z
200089001200089079-000512     200089006001023635853CRAYONS WAX 12-COLOUR  0000001000+00001490+00000+0001T   00001490+0000001635          1400 CM6130               2AZ
200090000200090               200090               170213JM     1400+00000+JM0000005262+0000005262+000000000+000000737+0000005990+0000000009+I20000000000+0000005990+Z
200090001200090267-000246     200090006003000656219PUZZLE JIGSAW GO CART  0000001000+00005262+00000+0001T   00005262+0000001640          1400 CM6755               2AZ
200091000200091               200091               170213JM     1400+00000+JM0000001753+0000001753+000000000+000000246+0000001990+0000000009+I20000000000+0000001990+Z
200091001200091037-000004     200091006001023763679ASHTRAY PL TUB 8X11CM  0000001000+00001753+00000+0001T   00002192+0008191640          1400 CM6515               2AZ
200092000200092               200092               170213JM     1400+00000+JM0000004420+0000004420+000000000+000000619+0000005030+0000000009+I20000000000+0000005030+Z
200092001200092018-030000     200092006003000421060MUG OCCASIONS LOVE 2PCE0000001000+00004385+00000+0001T   00004385+0000001642          1400 CM6515               2AZ
200092002200092112-116038     200092006009681820246TCS CARRIER BAG MIDI   0000001000+00000035+00000+0001T   00000035+0000001642          1400 CM6090               2AZ
200093000200093               200093               170213JM     1400+00000+JM0000013639+0000013639+000000000+000001910+0000015549+0000000000+I40000015549+0000000000+Z
200093001200093080-000127     200093006003000424351VALENTINES DAY 36x24CM 0000001000+00002192+00000+0001T   00002192+0000001645          1400 CM6112               2AZ
200093002200093018-005009     200093006001023725608MUG W/PLUSH-BEAR LOVE  0000002000+00003507+00000+0001T   00003507+0000001645          1400 CM6515               2AZ
200093003200093368-000001     200093006003000097982Plush Bear 25cm        0000001000+00004385+00000+0001T   00004385+0000001645          1400 CM6745               2AZ
200093004200093112-116069     200093006009681820277TCS CARRIER BAG JUMBO  0000001000+00000048+00000+0001T   00000048+0000001645          1400 CM6090               2AZ
200094000200094               200094               170213JM     1400+00000+JM0000004995+0000004995+000000000+000000701+0000005696+0000000000+I40000005696+0000000000+Z
200094001200094903-003080     200094005907029004673SWT SNACK STIX CHOC 50g0000001000+00000876+00000+0001T   00000876+0000001646          1400 CM6150               2AZ
200094002200094071-001002     200094006003000217540PENCIL-SHARPNER DOUBLE 0000001000+00001578+00000+0001T   00001578+0000001646          1400 CM6130               2AZ
200094003200094071-081101-A   200094006003000326549GLUE-STICK 25g BLISTER 0000001000+00000788+00000+0001T   00000788+0000001646          1400 CM6130               2AZ
200094004200094071-081112     200094006936198404945CORRECTION TAPE 10mx5mm0000001000+00001753+00000+0001T   00001753+0000001646          1400 CM6130               2AZ
200095000200095               200095               170213JM     1400+00000+JM0000006139+0000006139+000000000+000000860+0000006990+0000000009+I20000000000+0000006990+Z
200095001200095039-000798     200095006001023617774CANDLES TEALITE BOX-50 0000001000+00006139+00000+0001T   00006139+0000001646          1400 CM6510               2AZ
200096000200096               200096               170213JM     1400+00000+JM0000030112+0000030112+000000000+000004223+0000034335+0000000000+I40000034335+0000000000+Z
200096001200096112-116069     200096006009681820277TCS CARRIER BAG JUMBO  0000001000+00000048+00000+0001T   00000048+0000001650          1400 CM6090               2AZ
200096002200096903-000510     200096006001704012621SWEET MS ZBDZ S/BERRY  0000003000+00001227+00000+0001T   00001227+0000001650          1400 CM6150               2AZ
200096003200096040-000237     200096006001023901200C/HLDR MTL W/GLS ASSTD 0000002000+00003946+00000+0001T   00003946+0000001650          1400 CM6510               2AZ
200096004200096077-000452     200096006003000284986G/BAG METALLIC MED EMB 0000002000+00001490+00000+0001T   00001490+0000001650          1400 CM6112               2AZ
200096005200096077-000310     200096006001023608635GIFT-BAG 18X23CM GLOSS 0000002000+00001314+00000+0001T   00001314+0000001650          1400 CM6112               2AZ
200096006200096039-080959     200096006003000048922CANDLE PILLAR BALL 8CM 0000001000+00003069+00000+0001T   00003069+0000001650          1400 CM6510               2AZ
200096007200096903-000892     200096008693029700420SWT NOVELTY CHOCO CREAM0000003000+00000788+00000+0001T   00000788+0000001650          1400 CM6150               2AZ
200096008200096162-097716     200096006001492977164#TAG NEW GOLD E/PIERCE 0000001000+00001139+00000+0001T   00001139+0000001650          1400 CM6160               2AZ
200096009200096079-001006     200096006003000677979ART+CRAFT STENCIL      0000003000+00001227+00000+0001T   00001227+0000001650          1400 CM6130               2AZ
200096010200096567-075699     200096006003000428168BK NOVEL CATEGORY A    0000001000+00002630+00000+0001T   00003069+0008191650          1400 CM6757               2AZ
200097000200097               200097               170213JM     1400+00000+JM0000021704+0000021704+000000000+000003043+0000024747+0000000000+I40000024747+0000000000+Z
200097001200097112-116069     200097006009681820277TCS CARRIER BAG JUMBO  0000001000+00000048+00000+0001T   00000048+0000001652          1400 CM6090               2AZ
200097002200097077-000304     200097006001023483232GIFT-BAG 25X32CM E/DAY 0000001000+00001490+00000+0001T   00001490+0000001652          1400 CM6112               2AZ
200097003200097079-014101     200097006001023908612ART+CRAFT SCOUBIDOUx50 0000001000+00003507+00000+0001T   00003507+0000001652          1400 CM6130               2AZ
200097004200097206-000390     200097006003000631438STRAW PL BUILD A STRAW 0000001000+00002630+00000+0001T   00002630+0000001652          1400 CM6321               2AZ
200097005200097206-000620     200097006003000631797BACK SCRATCHER EXTEND  0000002000+00002630+00000+0001T   00002630+0000001652          1400 CM6321               2AZ
200097006200097206-000390     200097006003000631438STRAW PL BUILD A STRAW 0000001000+00002630+00000+0001T   00002630+0000001652          1400 CM6321               2AZ
200097007200097018-050000     200097006003000412679MUG OCC LOVE TWIN BEAR 0000001000+00006139+00000+0001T   00006139+0000001652          1400 CM6515               2AZ
200098000200098               200098               170213JM     1400+00000+JM0000003944+0000003944+000000000+000000553+0000004490+0000000007+I20000000000+0000004490+Z
200098001200098078-009100     200098006008741002349ALL-CLEAR GLUE 25ml CRD0000001000+00001314+00000+0001T   00001314+0000001653          1400 CM6810               2AZ
200098002200098306-000993     200098006003000560110FIRSTAID PLASTER 75PC  0000001000+00002630+00000+0001T   00002630+0000001653          1400 CM6200               2AZ
200099000200099               200099               170213JM     1400+00000+JM0000006958+0000006958+000000000+000000976+0000007934+0000000000+I40000007934+0000000000+Z
200099001200099903-000510     200099006001704012621SWEET MS ZBDZ S/BERRY  0000001000+00001227+00000+0001T   00001227+0000001655          1400 CM6150               2AZ
200099002200099080-000133-A   200099006003000647019MINI VALENTINES CARD   0000001000+00000437+00000+0001T   00000437+0000001655          1400 CM6112               2AZ
200099003200099903-003050     200099008024431008239SWT CHOC CONE H/NUT 25G0000001000+00000876+00000+0001T   00000876+0000001655          1400 CM6150               2AZ
200099004200099301-085004     200099006003000420469ORN LOVE PLAQUE 21X10CM0000001000+00003507+00000+0001T   00003946+0006471655          1400 CM6505               2AZ
200099005200099112-116038     200099006009681820246TCS CARRIER BAG MIDI   0000001000+00000035+00000+0001T   00000035+0000001655          1400 CM6090               2AZ
200099006200099903-000295     200099006001704002899SWT MS FRUITY RASCALS  0000001000+00000876+00000+0001T   00000876+0000001655          1400 CM6150               2AZ
200100000200100               200100               170213JM     1400+00000+JM0000005294+0000005294+000000000+000000743+0000006030+0000000007+I20000000000+0000006030+Z
200100001200100200-003026     200100006003000276448REFUSE BAGS 10PCE GREEN0000003000+00001753+00000+0001T   00001753+0000001656          1400 CM6214               2AZ
200100002200100112-116038     200100006009681820246TCS CARRIER BAG MIDI   0000001000+00000035+00000+0001T   00000035+0000001656          1400 CM6090               2AZ
200101000200101               200101               170213JM     1400+00000+JM0000012764+0000012764+000000000+000001788+0000014550+0000000002+I20000000000+0000014550+Z
200101001200101024-000019     200101006001023822277HILLHOUSE ICING-SET    0000002000+00005262+00000+0001T   00005262+0000001657          1400 CM6300               2AZ
200101002200101200-000200     200101006008766091144BAKING ALUM FOIL 2PCE  0000001000+00002192+00000+0001T   00002192+0000001657          1400 CM6214               2AZ
200101003200101112-116069     200101006009681820277TCS CARRIER BAG JUMBO  0000001000+00000048+00000+0001T   00000048+0000001657          1400 CM6090               2AZ
200102000200102               200102               170213JM     1400+00000+JM0000010464+0000010464+000000000+000001468+0000011930+0000000002+I20000000000+0000011930+Z
200102001200102079-000512     200102006001023635853CRAYONS WAX 12-COLOUR  0000002000+00001490+00000+0001T   00001490+0000001658          1400 CM6130               2AZ
200102002200102071-003009     200102006001024011373PEN CLICK BALL+SFT GRIP0000001000+00002630+00000+0001T   00002630+0000001658          1400 CM6130               2AZ
200102003200102306-000973     200102006003000559473FIRSTAID PLASTER 30PC  0000001000+00001753+00000+0001T   00001753+0000001658          1400 CM6200               2AZ
200102004200102112-116038     200102006009681820246TCS CARRIER BAG MIDI   0000001000+00000035+00000+0001T   00000035+0000001658          1400 CM6090               2AZ
200102005200102006-000167-B   200102006003000516858BALLOONS BLUE METALLIC 0000001000+00001314+00000+0001T   00001314+0000001658          1400 CM6131               2AZ
200102006200102903-003075     200102003800065783125SWT CHOC FAFL WAFER 52g0000002000+00000876+00000+0001T   00000876+0000001658          1400 CM6150               2AZ
200103000200103               200103               170213JM     1400+00000+JM0000007130+0000007130+000000000+000001001+0000008131+0000000000+I40000008131+0000000000+Z
200103001200103112-116038     200103006009681820246TCS CARRIER BAG MIDI   0000001000+00000035+00000+0001T   00000035+0000001700          1400 CM6090               2AZ
200103002200103903-000087     200103006001704000161SWT SPECKLED-EGGS 50G  0000002000+00001139+00000+0001T   00001139+0000001700          1400 CM6150               2AZ
200103003200103903-000503     200103006001704006118SWT VAMPIRE FANGS 60G  0000002000+00000876+00000+0001T   00000876+0000001700          1400 CM6150               2AZ
200103004200103200-000130     200103006001023645067DESSERT-SPOONS 10PCE   0000005000+00000613+00000+0001T   00000613+0000001700          1400 CM6214               2AZ
200104000200104               200104               170213JM     1400+00000+JM0000006886+0000006886+000000000+000000965+0000007851+0000000000+I40000007851+0000000000+Z
200104001200104464-000103     200104006001023830852GAME 9999 IN 1         0000001000-00004385+00000+0001T   00004385+0000001703          1400 CM67851IC            2 Z
200104002200104464-000103     200104006001023830852GAME 9999 IN 1         0000001000+00004385+00000+0001T   00004385+0000001703          1400 CM67851IC            2AZ
200104003200104466-000103     200104000681070950312BALL 20cm ASSTD        0000001000+00001753+00000+0001T   00001753+0000001703          1400 CM6785               2AZ
200104004200104079-000289     200104006001023493217PAINT WTR COL CAKE 6COL0000001000+00001578+00000+0001T   00001578+0000001703          1400 CM6130               2AZ
200104005200104079-000286     200104006001023797032FINGER-PAINT 4PCE      0000001000+00003507+00000+0001T   00003507+0000001703          1400 CM6130               2AZ
200104006200104112-116069     200104006009681820277TCS CARRIER BAG JUMBO  0000001000+00000048+00000+0001T   00000048+0000001703          1400 CM6090               2AZ
200105000200105               200105               170213JM     1400+00000+JM0000002541+0000002541+000000000+000000356+0000002890+0000000007+I20000000000+0000002890+Z
200105001200105903-000517     200105006001704012768SWT STRAWS FIZZY CHERRY0000001000+00001227+00000+0001T   00001227+0000001704          1400 CM6150               2AZ
200105002200105903-004952     200105006002580020052SWT FREAKY FACES 100G  0000001000+00001314+00000+0001T   00001314+0000001704          1400 CM6150               2AZ
200106000200106               200106               170213JM     1400+00000+JM0000007663+0000007663+000000000+000001074+0000008730+0000000007+I20000000000+0000008730+Z
200106001200106112-116038     200106006009681820246TCS CARRIER BAG MIDI   0000001000+00000035+00000+0001T   00000035+0000001705          1400 CM6090               2AZ
200106002200106301-000110     200106006003000456185ORN POLY ANGEL W/BALL  0000001000+00005262+00000+0001T   00005262+0000001705          1400 CM6505               2AZ
200106003200106301-000100     200106006003000378531ORN SENTIMENT STONE 3AS0000001000+00001753+00000+0001T   00001753+0000001705          1400 CM6505               2AZ
200106004200106007-000555     200106006001023848239MEMO-PAD MINI LOVE     0000001000+00000613+00000+0001T   00000613+0000001705          1400 CM6130               2AZ
200107000200107               200107               170213JM     1400+00000+JM0000003191+0000003191+000000000+000000447+0000003638+0000000000+I40000003638+0000000000+Z
200107001200107018-000127     200107006001023380289MUG OCC STRAIGHT LOVE  0000002000+00001578+00000+0001T   00001753+0006471707          1400 CM6515               2AZ
200107002200107112-116038     200107006009681820246TCS CARRIER BAG MIDI   0000001000+00000035+00000+0001T   00000035+0000001707          1400 CM6090               2AZ
200108000200108               200108               170213JM     1400+00000+JM0000014797+0000014797+000000000+000002074+0000016871+0000000000+I40000016871+0000000000+Z
200108001200108112-116053     200108006006438002399TCS CARRIER BAG 38L    0000001000+00000069+00000+0001T   00000069+0000001711          1400 CM6090               2AZ
200108002200108306-000993     200108006003000560110FIRSTAID PLASTER 75PC  0000001000+00002630+00000+0001T   00002630+0000001711          1400 CM6200               2AZ
200108003200108073-000152     200108006003000683390COSMETIC BAG 18X9X5    0000001000+00001490+00000+0001T   00001490+0000001711          1400 CM6200               2AZ
200108004200108903-000126     200108006002099003591SWT ZILLIONS MINT 50G  0000002000+00000700+00000+0001T   00000700+0000001711          1400 CM6150               2AZ
200108005200108159-000103     200108006001023890214SHOWER CADDY PL-COATED 0000001000+00003946+00000+0001T   00003946+0000001711          1400 CM6200               2AZ
200108006200108104-000190     200108006001246040342DISH DRAINER PL ASSTD  0000001000+00005262+00000+0001T   00005262+0000001711          1400 CM6210               2AZ
A17021300                                          08380728JMSLAVE 2                       AA52IC
A17021301                                          11360945JMSLAVE 2                       CM61IC
M17021301                              IT          JMATT GLADWYN                                     LAST TILL SLIP                                  NUMBER FOR SLAVE 2                              IS 200108                                       THANX                                           JM
M17021391                              CASH        JMSLAVE 2                       Z-REPORT No.   603TOTAL (Sales - Refunds)           8761.90       CASH TO BE BANKED                 2458.10       DEBIT CARDS                          0.00       CREDIT CARDS                      6206.20       Z-READING                         8664.30       AIRTIME DEBIT CARD SALES             0.00       AIRTIME CARD SALES                   0.00       OVERS/UNDERS                         0.00       AIRTIME CASH SALES                   0.00       GIFT CARDS                           0.00       GIFT CARD CASH SALES                 0.00       CLEANING-MATERIALS                  79.70       STATIONERY(PHOTOCOPIES)             17.90       T O T A L  CASH PAYOUTS             97.60                                                                                                                                                                                                                                                      Z
M17021392                              CASH        JMABSENT                                                                                                                                                                                          ANNUAL LEAVE                                                                                                                                                                                    DAY OFF                                                                                                                                                                                         COMMENTS                                                                                                                                                                                                                                                                                                                                                                                       Z
Y17021300                                          JM00000000778981+000087
ZJM17021321103 SLAVE 2      SALES DATA                     NEXT INVOICE NO.  200109 0603
X JM Slave 2 First invoice 200020 170213 Last invoice 200108 170213 Next invoice 200109 Total number of records 000000406 clbackup completed 21:10:06
