301961000301961               301961               170213JM     1400+00000+JM0000004943+0000004943+000000000+000000693+0000005630+0000000006+I20000000000+0000005630+Z
301961001301961112-116038     301961006009681820246TCS CARRIER BAG MIDI   0000001000+00000035+00000+0001T   00000035+0000000848          1400 AA5090               3AZ
301961002301961362-000302     301961006003000095469HAIR CLIP LRG GIRLS    0000002000+00001578+00000+0001T   00001578+0000000848          1400 AA5160               3AZ
301961003301961006-000328     301961006003000476633G/STICK GLASSES 20cm   0000002000+00000876+00000+0001T   00000876+0000000848          1400 AA5131               3AZ
301962000301962               301962               170213JM     1400+00000+JM0000005084+0000005084+000000000+000000713+0000005790+0000000007+I20000000000+0000005790+Z
301962001301962369-001138     301962006003000555185VINYL 8.5cm THEMED DUCK0000002000+00001753+00000+0001T   00002630+0008140849          1400 AA5745               3AZ
301962002301962083-000054     301962006001023729071LIGHTER REFILLABLE LED 0000001000+00001578+00000+0001T   00001578+0000000849          1400 AA5315               3AZ
301963000301963               301963               170213JM     1400+00000+JM0000007783+0000007783+000000000+000001092+0000008875+0000000000+I40000008875+0000000000+Z
301963001301963112-116053     301963006006438002399TCS CARRIER BAG 38L    0000001000+00000069+00000+0001T   00000069+0000000854          1400 AA5090               3AZ
301963002301963105-001024-A   301963006009654960986CONTAINERS CLEAR 3PCE  0000001000+00001928+00000+0001T   00001928+0000000854          1400 AA5210               3AZ
301963003301963036-000151     301963006001023810588COATHANGERS    PACK-10 0000002000+00002893+00000+0001T   00002893+0000000854          1400 AA5212               3AZ
301964000301964               301964               170213JM     1400+00000+JM0000001753+0000001753+000000000+000000246+0000001999+0000000000+I40000001999+0000000000+Z
301964001301964084-006995     301964006003000092802NAIL CLIPPER 8cm TOE   0000001000+00001753+00000+0001T   00001753+0000000855          1400 AA5200               3AZ
301965000301965               301965               170213JM     1400+00000+JM0000000525+0000000525+000000000+000000074+0000000590+0000000009+I20000000000+0000000590+Z
301965001301965903-000155     301965006009803374435SWT LOLLY I LUV U HEART0000001000+00000525+00000+0001T   00000525+0000000949          1400 AA5150               3AZ
301966000301966               301966               170213JM     1400+00000+JM0000000437+0000000437+000000000+000000062+0000000490+0000000009+I20000000000+0000000490+Z
301966001301966080-000133-A   301966006003000647019MINI VALENTINES CARD   0000001000+00000437+00000+0001T   00000437+0000000949          1400 AA5112               3AZ
301967000301967               301967               170213JM     1400+00000+JM0000004590+0000004590+000000000+000000644+0000005234+0000000000+I40000005234+0000000000+Z
301967001301967903-000087     301967006001704000161SWT SPECKLED-EGGS 50G  0000001000+00001139+00000+0001T   00001139+0000000953          1400 AA5150               3AZ
301967002301967112-116038     301967006009681820246TCS CARRIER BAG MIDI   0000001000+00000035+00000+0001T   00000035+0000000953          1400 AA5090               3AZ
301967003301967903-000120     301967006002099001665SWEET GS ZILLIONS 50g  0000001000+00000700+00000+0001T   00000700+0000000953          1400 AA5150               3AZ
301967004301967903-000297     301967006001704002950SWT MS WILD BERRY 50G  0000001000+00000876+00000+0001T   00000876+0000000953          1400 AA5150               3AZ
301967005301967077-000311     301967006001023608666GIFT-BAG 11X14CM GLOSS 0000001000+00000613+00000+0001T   00000613+0000000953          1400 AA5112               3AZ
301967006301967071-081104-A   301967006003000326662GLUE-STICK 8g CRD-OF-3 0000001000+00001227+00000+0001T   00001227+0000000953          1400 AA5130               3AZ
301968000301968               301968               170213JM     1400+00000+JM0000003188+0000003188+000000000+000000447+0000003635+0000000000+I40000003635+0000000000+Z
301968001301968112-116038     301968006009681820246TCS CARRIER BAG MIDI   0000001000+00000035+00000+0001T   00000035+0000000955          1400 AA5090               3AZ
301968002301968200-003024     301968006001023657299REFUSE BAGS 20PCE BLACK0000001000+00001753+00000+0001T   00001753+0000000955          1400 AA5214               3AZ
301968003301968903-000120     301968006002099001665SWEET GS ZILLIONS 50g  0000002000+00000700+00000+0001T   00000700+0000000955          1400 AA5150               3AZ
301969000301969               301969               170213JM     1400+00000+JM0000001753+0000001753+000000000+000000246+0000001990+0000000009+I20000000000+0000001990+Z
301969001301969079-013099     301969006003000081875ART+CRAFT EYES ASSTD   0000001000+00001753+00000+0001T   00001753+0000000956          1400 AA5130               3AZ
301970000301970               301970               170213JM     1400+00000+JM0000005262+0000005262+000000000+000000737+0000005999+0000000000+I40000005999+0000000000+Z
301970001301970024-000165-D   301970006003000674435N/STICK SQUARE PAN     0000001000+00005262+00000+0001T   00005262+0000001009          1400 AA5300               3AZ
301971000301971               301971               170213JM     1400+00000+JM0000017146+0000017146+000000000+000002402+0000019548+0000000000+I40000019548+0000000000+Z
301971001301971112-116069     301971006009681820277TCS CARRIER BAG JUMBO  0000001000+00000048+00000+0001T   00000048+0000001012          1400 AA5090               3AZ
301971002301971034-078800     301971006001023856555COOEY WET-WIPES 60PCE  0000001000+00001753+00000+0001T   00001753+0000001012          1400 AA5215               3AZ
301971003301971159-000801     301971006001023999832BATHMAT 36x59cm ASST   0000001000+00005700+00000+0001T   00005700+0000001012          1400 AA5200               3AZ
301971004301971567-011343     301971006003000630592BK COLOURING THERAPY   0000001000+00003507+00000+0001T   00003507+0000001012          1400 AA5757               3AZ
301971005301971079-000334     301971006003000670437THERAPY P/CRAYONS 18   0000001000+00005262+00000+0001T   00005262+0000001012          1400 AA5130               3AZ
301971006301971077-000151     301971006008766114676GIFT-WRAP C/PHANE ASSTD0000001000+00000876+00000+0001T   00000876+0000001012          1400 AA5112               3AZ
301972000301972               301972               170213JM     1400+00000+JM0000001753+0000001753+000000000+000000246+0000001990+0000000009+I20000000000+0000001990+Z
301972001301972006-000120     301972006001023346889BALLOONS 10PC MIX COL  0000001000+00001753+00000+0001T   00001753+0000001018          1400 AA5131               3AZ
301973000301973               301973               170213JM     1400+00000+JM0000004385+0000004385+000000000+000000614+0000004990+0000000009+I20000000000+0000004990+Z
301973001301973082-000110     301973006003000360482READING GLS STRENGHT:2 0000001000+00004385+00000+0001T   00004385+0000001023          1400 AA5160               3AZ
301974000301974               301974               170213JM     1400+00000+JM0000006134+0000006134+000000000+000000861+0000006995+0000000000+I40000006995+0000000000+Z
301974001301974903-000861     301974005010478430822SWT LOVE HEARTS SML    0000004000+00000876+00000+0001T   00000876+0000001027          1400 AA5150               3AZ
301974002301974089-000145     301974006003000576616K/CHAIN LIGHT W/COMPASS0000001000+00002630+00000+0001T   00003069+0008121027          1400 AA5205               3AZ
301975000301975               301975               170213JM     1400+00000+JM0000008356+0000008356+000000000+000001174+0000009530+0000000000+I20000000000+0000009530+Z
301975001301975112-116038     301975006009681820246TCS CARRIER BAG MIDI   0000001000+00000035+00000+0001T   00000035+0000001030          1400 AA5090               3AZ
301975002301975018-000136     301975006001023659026MUG OCC LOVE W/PLUSH   0000001000+00003507+00000+0001T   00003507+0000001030          1400 AA5515               3AZ
301975003301975071-081091     301975006001151010287STAED/GENKEM ALL-STICK 0000001000+00001227+00000+0001T   00001227+0000001030          1400 AA5130               3AZ
301975004301975903-000155     301975006009803374435SWT LOLLY I LUV U HEART0000006000+00000525+00000+0001T   00000525+0000001030          1400 AA5150               3AZ
301975005301975080-000133-A   301975006003000647019MINI VALENTINES CARD   0000001000+00000437+00000+0001T   00000437+0000001030          1400 AA5112               3AZ
301976000301976               301976               170213JM     1400+00000+JM0000024068+0000024068+000000000+000003376+0000027444+0000000000+I40000027444+0000000000+Z
301976001301976112-116069     301976006009681820277TCS CARRIER BAG JUMBO  0000001000+00000048+00000+0001T   00000048+0000001034          1400 AA5090               3AZ
301976002301976006-000200-D   301976006003000095773PARTY BOY 12PCE SET    0000001000+00002630+00000+0001T   00002630+0000001034          1400 AA5131               3AZ
301976003301976006-000201-C   301976006003000601394PARTY GIRL PLATES/CUPS 0000001000+00001753+00000+0001T   00001753+0000001034          1400 AA5131               3AZ
301976004301976565-000889     301976006003000626953NOVELTY SPACE BALLOONS 0000001000+00001753+00000+0001T   00001753+0000001034          1400 AA5745               3AZ
301976005301976007-000614     301976006001023768667DIARY W/LOCK+PEN LOVE  0000001000+00005262+00000+0001T   00005262+0000001034          1400 AA5130               3AZ
301976006301976266-000503     301976006001023791740TRANSFORMER WARRIOR 8cm0000002000+00001753+00000+0001T   00001753+0000001034          1400 AA5710               3AZ
301976007301976362-002464     301976006003000167388HAIR EXT 30cm 6PCS COL 0000001000+00001753+00000+0001T   00001753+0000001034          1400 AA5160               3AZ
301976008301976039-000318     301976006003000406159B/DAY CANDLES SMALL NO 0000001000+00001753+00000+0001T   00001753+0000001034          1400 AA5510               3AZ
301976009301976006-000120     301976006001023346889BALLOONS 10PC MIX COL  0000001000+00001753+00000+0001T   00001753+0000001034          1400 AA5131               3AZ
301976010301976077-000322     301976006001023677532GIFT-BAG 18X23CM E/D FL0000001000+00001227+00000+0001T   00001227+0000001034          1400 AA5112               3AZ
301976011301976566-000345     301976006001023994837STICKER ALBUM+STICKERS 0000001000+00002630+00000+0001T   00002630+0000001034          1400 AA5130               3AZ
301977000301977               301977               170213JM     1400+00000+JM0000013155+0000013155+000000000+000001843+0000014990+0000000008+I20000000000+0000014990+Z
301977001301977304-001114     301977006001023738219FLWR BUNCH ROSES/LILY  0000001000+00007893+00000+0001T   00007893+0000001038          1400 AA5510               3AZ
301977002301977304-001116     301977006003000426164F/BUNCH ROSES 12-HEAD  0000001000+00005262+00000+0001T   00005262+0000001038          1400 AA5510               3AZ
301978000301978               301978               170213JM     1400+00000+JM0000010523+0000010523+000000000+000001474+0000011997+0000000000+I40000011997+0000000000+Z
301978001301978103-000072     301978006001023618238BASKET RECT 25x16x6cm  0000002000+00003069+00000+0001T   00003069+0000001047          1400 AA5300               3AZ
301978002301978103-000781     301978006001023795427BAMBOO BASKET ROUND 23c0000001000+00004385+00000+0001T   00004385+0000001047          1400 AA5300               3AZ
301979000301979               301979               170213JM     1400+00000+JM0000003244+0000003244+000000000+000000455+0000003690+0000000009+I20000000000+0000003690+Z
301979001301979046-000400     301979006001023804983BATT ALKALINE 1.5Vx30PC0000001000+00003244+00000+0001T   00003244+0000001048          1400 AA5312               3AZ
301980000301980               301980               170213JM     1400+00000+JM0000014164+0000014164+000000000+000001986+0000016150+0000000000+I40000016150+0000000000+Z
301980001301980112-116069     301980006009681820277TCS CARRIER BAG JUMBO  0000001000+00000048+00000+0001T   00000048+0000001053          1400 AA5090               3AZ
301980002301980006-000800     301980006001023902801HAT CABARET 14x18cm    0000001000+00001753+00000+0001T   00001753+0000001053          1400 AA5131               3AZ
301980003301980366-002006     301980006001023902696DRESS UP WIGS PARTY ASS0000001000+00007016+00000+0001T   00007016+0000001053          1400 AA5131               3AZ
301980004301980366-007932     301980006003000238057ACCESS CLOWN BOWTIE    0000001000+00003069+00000+0001T   00003069+0000001053          1400 AA5131               3AZ
301980005301980903-000710     301980006002099007056SWT REFRESHERS MINT    0000001000+00001139+00000+0001T   00001139+0000001053          1400 AA5150               3AZ
301980006301980903-000709     301980006002099007070SWT QUENCHERS FRUIT    0000001000+00001139+00000+0001T   00001139+0000001053          1400 AA5150               3AZ
301981000301981               301981               170213JM     1400+00000+JM0000002450+0000002450+000000000+000000344+0000002790+0000000004+I20000000000+0000002790+Z
301981001301981018-000177     301981006001023797513MUG MINI LOVE ASSTD    0000002000+00000700+00000+0001T   00000700+0000001054          1400 AA5515               3AZ
301981002301981903-000155     301981006009803374435SWT LOLLY I LUV U HEART0000002000+00000525+00000+0001T   00000525+0000001054          1400 AA5150               3AZ
301982000301982               301982               170213JM     1400+00000+JM0000000876+0000000876+000000000+000000123+0000000990+0000000009+I20000000000+0000000990+Z
301982001301982071-005213     301982006001023690371CELLOTAPE 12mmx33m     0000001000+00000876+00000+0001T   00000876+0000001057          1400 AA5130               3AZ
301983000301983               301983               170213JM     1400+00000+JM0000007892+0000007892+000000000+000001105+0000008990+0000000007+I20000000000+0000008990+Z
301983001301983301-085004     301983006003000420469ORN LOVE PLAQUE 21X10CM0000001000+00003507+00000+0001T   00003946+0006471120          1400 AA5505               3AZ
301983002301983031-080508     301983006001023802415P/FRAME PL 22X11CM LOVE0000001000+00004385+00000+0001T   00004385+0000001120          1400 AA5510               3AZ
301984000301984               301984               170213JM     1400+00000+JM0000005731+0000005731+000000000+000000803+0000006530+0000000004+I20000000000+0000006530+Z
301984001301984112-116038     301984006009681820246TCS CARRIER BAG MIDI   0000001000+00000035+00000+0001T   00000035+0000001129          1400 AA5090               3AZ
301984002301984077-000948     301984006003000542154G/WARP SHRINK BAG      0000001000+00000700+00000+0001T   00000876+0008151129          1400 AA5112               3AZ
301984003301984018-000177     301984006001023797513MUG MINI LOVE ASSTD    0000001000+00000700+00000+0001T   00000700+0000001129          1400 AA5515               3AZ
301984004301984077-000245     301984006001023759214GIFT-RIBBON METALLICx2 0000001000+00001227+00000+0001T   00001227+0000001129          1400 AA5112               3AZ
301984005301984103-000072     301984006001023618238BASKET RECT 25x16x6cm  0000001000+00003069+00000+0001T   00003069+0000001129          1400 AA5300               3AZ
301985000301985               301985               170213JM     1400+00000+JM0000005262+0000005262+000000000+000000737+0000005999+0000000000+I40000005999+0000000000+Z
301985001301985305-074052     301985006001023776747W/CHIMES ACRYLIC B-FLY 0000001000+00005262+00000+0001T   00005262+0000001150          1400 AA5505               3AZ
301986000301986               301986               170213JM     1400+00000+JM0000014957+0000014957+000000000+000002096+0000017050+0000000003+I20000000000+0000017050+Z
301986001301986112-116069     301986006009681820277TCS CARRIER BAG JUMBO  0000001000+00000048+00000+0001T   00000048+0000001213          1400 AA5090               3AZ
301986002301986368-000113     301986006001023780874PLUSH BLINGED LOVE 30cm0000001000+00012279+00000+0001T   00012279+0000001213          1400 AA5745               3AZ
301986003301986018-000129     301986006001023403353MUG OCC. LOVE V-SHAPE  0000001000+00002630+00000+0001T   00002630+0000001213          1400 AA5515               3AZ
301987000301987               301987               170213JM     1400+00000+JM0000006576+0000006576+000000000+000000922+0000007490+0000000008+I20000000000+0000007490+Z
301987001301987080-000133-A   301987006003000647019MINI VALENTINES CARD   0000001000+00000437+00000+0001T   00000437+0000001214          1400 AA5112               3AZ
301987002301987105-007580     301987006003000486038STORAGE BOX CLEAR DEPO 0000001000+00006139+00000+0001T   00007893+0008171214          1400 AA5210               3AZ
301988000301988               301988               170213JM     1400+00000+JM0000008765+0000008765+000000000+000001230+0000009990+0000000005+I20000000000+0000009990+Z
301988001301988200-003024     301988006001023657299REFUSE BAGS 20PCE BLACK0000003000+00001753+00000+0001T   00001753+0000001231          1400 AA5214               3AZ
301988002301988200-003026     301988006003000276448REFUSE BAGS 10PCE GREEN0000002000+00001753+00000+0001T   00001753+0000001231          1400 AA5214               3AZ
301989000301989               301989               170213JM     1400+00000+JM0000010555+0000010555+000000000+000001481+0000012030+0000000006+I20000000000+0000012030+Z
301989001301989112-116038     301989006009681820246TCS CARRIER BAG MIDI   0000001000+00000035+00000+0001T   00000035+0000001232          1400 AA5090               3AZ
301989002301989039-000504     301989006001023816290CANDLE VTV 4PC METALLIC0000004000+00002630+00000+0001T   00002630+0000001232          1400 AA5510               3AZ
301990000301990               301990               170213JM     1400+00000+JM0000001051+0000001051+000000000+000000148+0000001190+0000000009+I20000000000+0000001190+Z
301990001301990903-002853     301990000000087108019MENTOS ROLL MINT       0000001000+00001051+00000+0001T   00001051+0000001235          1400 AA5150               3AZ
301991000301991               301991               170213JM     1400+00000+JM0000005960+0000005960+000000000+000000836+0000006790+0000000006+I20000000000+0000006790+Z
301991001301991903-000519     301991006001704012805SWT MS LIQ-O-GHETTI    0000002000+00001227+00000+0001T   00001227+0000001236          1400 AA5150               3AZ
301991002301991006-000120     301991006001023346889BALLOONS 10PC MIX COL  0000001000+00001753+00000+0001T   00001753+0000001236          1400 AA5131               3AZ
301991003301991077-000299-A   301991006003000670888GIFT-BAG PAPER JMB LOVE0000001000+00001753+00000+0001T   00001753+0000001236          1400 AA5112               3AZ
301992000301992               301992               170213JM     1400+00000+JM0000008991+0000008991+000000000+000001260+0000010251+0000000000+I40000010251+0000000000+Z
301992001301992024-000165-E   301992006003000674558N/STICK BAKING TRAY    0000001000+00005262+00000+0001T   00005262+0000001312          1400 AA5300               3AZ
301992002301992112-116069     301992006009681820277TCS CARRIER BAG JUMBO  0000001000+00000048+00000+0001T   00000048+0000001312          1400 AA5090               3AZ
301992003301992903-000518     301992006001704012782SWT STRAWS S/BERRY 100g0000003000+00001227+00000+0001T   00001227+0000001312          1400 AA5150               3AZ
301993000301993               301993               170213JM     1400+00000+JM0000001753+0000001753+000000000+000000246+0000001990+0000000009+I20000000000+0000001990+Z
301993001301993080-000102     301993006003000236855CARD&ENVLP FEMALE AFR  0000001000+00001753+00000+0001T   00001753+0000001313          1400 AA5112               3AZ
301994000301994               301994               170213JM     1400+00000+JM0000006567+0000006567+000000000+000000924+0000007490+0000000001+I20000000000+0000007490+Z
301994001301994566-000858     301994006001023760975STCKRS G/OUTLINE ASSTD 0000002000+00000788+00000+0001T   00000788+0000001335          1400 AA5130               3AZ
301994002301994077-000245     301994006001023759214GIFT-RIBBON METALLICx2 0000001000+00001227+00000+0001T   00001227+0000001335          1400 AA5112               3AZ
301994003301994077-000240     301994006003000326259G/RIBBON 4PC PEARLIZED 0000001000+00001753+00000+0001T   00001753+0000001335          1400 AA5112               3AZ
301994004301994903-000120     301994006002099001665SWEET GS ZILLIONS 50g  0000001000+00000700+00000+0001T   00000700+0000001335          1400 AA5150               3AZ
301994005301994080-000133-A   301994006003000647019MINI VALENTINES CARD   0000003000+00000437+00000+0001T   00000437+0000001335          1400 AA5112               3AZ
301995000301995               301995               170213JM     1400+00000+JM0000002104+0000002104+000000000+000000295+0000002390+0000000009+I20000000000+0000002390+Z
301995001301995903-000095     301995006001704011495SWT SPECKLED-EGGS 100G 0000001000+00002104+00000+0001T   00002104+0000001338          1400 AA5150               3AZ
301996000301996               301996               170213JM     1400+00000+JM0000011071+0000011071+000000000+000001555+0000012620+0000000006+I20000000000+0000012620+Z
301996001301996077-000310     301996006001023608635GIFT-BAG 18X23CM GLOSS 0000002000+00001314+00000+0001T   00001314+0000001343          1400 AA5112               3AZ
301996002301996018-000139     301996006003000547227MUG S/WARE SLANTED SHPE0000002000+00001753+00000+0001T   00002630+0008171343          1400 AA5515               3AZ
301996003301996903-004962     301996008410525221880SWT FINI BLCK/RED 50g  0000002000+00000964+00000+0001T   00000964+0000001343          1400 AA5150               3AZ
301996004301996903-000671     301996006009803358015SWT SHERBET BLUE LIPS  0000002000+00000218+00000+0001T   00000218+0000001343          1400 AA5150               3AZ
301996005301996903-000670     301996006009803358008SWT SHERBET RED LIPS   0000002000+00000218+00000+0001T   00000218+0000001343          1400 AA5150               3AZ
301996006301996903-002853     301996000000087108019MENTOS ROLL MINT       0000001000+00001051+00000+0001T   00001051+0000001343          1400 AA5150               3AZ
301996007301996903-002851     301996000000087108538MENTOS ROLL STRAWBERRY 0000001000+00001051+00000+0001T   00001051+0000001343          1400 AA5150               3AZ
301996008301996112-116038     301996006009681820246TCS CARRIER BAG MIDI   0000001000+00000035+00000+0001T   00000035+0000001343          1400 AA5090               3AZ
301997000301997               301997               170213JM     1400+00000+JM0000001314+0000001314+000000000+000000184+0000001490+0000000008+I20000000000+0000001490+Z
301997001301997006-000170-E   301997006003000608546BALLOONS 1PC BLUE      0000001000-00000218+00000+0001T   00000218+0000001352          1400 AA51311IC            3 Z
301997002301997006-000170-E   301997006003000608546BALLOONS 1PC BLUE      0000001000+00000218+00000+0001T   00000218+0000001352          1400 AA51311IC            3AZ
301997003301997496-059631     301997000078257596317REPAIR-PATCHES   CARDED0000001000+00001314+00000+0001T   00001314+0000001352          1400 AA5787               3AZ
301998000301998               301998               170213JM     1400+00000+JM0000002135+0000002135+000000000+000000301+0000002430+0000000006+I20000000000+0000002430+Z
301998001301998112-116038     301998006009681820246TCS CARRIER BAG MIDI   0000001000+00000035+00000+0001T   00000035+0000001356          1400 AA5090               3AZ
301998002301998903-000155     301998006009803374435SWT LOLLY I LUV U HEART0000004000+00000525+00000+0001T   00000525+0000001356          1400 AA5150               3AZ
301999000301999               301999               170213JM     1400+00000+JM0000002921+0000002921+000000000+000000413+0000003334+0000000000+I40000003334+0000000000+Z
301999001301999112-116038     301999006009681820246TCS CARRIER BAG MIDI   0000001000+00000035+00000+0001T   00000035+0000001359          1400 AA5090               3AZ
301999002301999080-000133-A   301999006003000647019MINI VALENTINES CARD   0000003000+00000437+00000+0001T   00000437+0000001359          1400 AA5112               3AZ
301999003301999903-000155     301999006009803374435SWT LOLLY I LUV U HEART0000003000+00000525+00000+0001T   00000525+0000001359          1400 AA5150               3AZ
302000000302000               302000               170213JM     1400+00000+JM0000005261+0000005261+000000000+000000737+0000005998+0000000000+I40000005998+0000000000+Z
302000001302000301-085000     302000006003000674299 ORN OCC. LOVE HEARTS  0000001000+00002192+00000+0001T   00002192+0000001403          1400 AA5505               3AZ
302000002302000301-085008     302000006003000673933ORN OCC.LOVE TINSEL HRT0000001000+00003069+00000+0001T   00003069+0000001403          1400 AA5505               3AZ
302001000302001               302001               170213JM     1400+00000+JM0000002892+0000002892+000000000+000000406+0000003290+0000000008+I20000000000+0000003290+Z
302001001302001220-005003     302001006003000566150ELOFF TEASPOONS 4PC    0000001000+00001753+00000+0001T   00001753+0000001407          1400 AA5300               3AZ
302001002302001159-000043-H   302001006001023416629HOOKS ADHESIVE 3PCE SQR0000001000+00001139+00000+0001T   00001139+0000001407          1400 AA5200               3AZ
302002000302002               302002               170213JM     1400+00000+JM0000004385+0000004385+000000000+000000614+0000004990+0000000009+I20000000000+0000004990+Z
302002001302002031-000868-D   302002006003000580330P/FRAME PL BLCK CERT.  0000001000+00004385+00000+0001T   00004385+0000001424          1400 AA5510               3AZ
302003000302003               302003               170213JM     1400+00000+JM0000008816+0000008816+000000000+000001235+0000010051+0000000000+I40000010051+0000000000+Z
302003001302003080-000127     302003006003000424351VALENTINES DAY 36x24CM 0000001000+00002192+00000+0001T   00002192+0000001427          1400 AA5112               3AZ
302003002302003018-019000     302003006003000557288MUG OCC. LOVE JUMBO    0000001000+00005262+00000+0001T   00005262+0000001427          1400 AA5515               3AZ
302003003302003077-000310     302003006001023608635GIFT-BAG 18X23CM GLOSS 0000001000+00001314+00000+0001T   00001314+0000001427          1400 AA5112               3AZ
302003004302003112-116069     302003006009681820277TCS CARRIER BAG JUMBO  0000001000+00000048+00000+0001T   00000048+0000001427          1400 AA5090               3AZ
302004000302004               302004               170213JM     1400+00000+JM0000003678+0000003678+000000000+000000518+0000004190+0000000006+I20000000000+0000004190+Z
302004001302004304-001204     302004006001023737984FLOWER OCC. TEDDY/ROSES0000002000+00001402+00000+0001T   00001490+0006471430          1400 AA5510               3AZ
302004002302004080-000133-A   302004006003000647019MINI VALENTINES CARD   0000002000+00000437+00000+0001T   00000437+0000001430          1400 AA5112               3AZ
302005000302005               302005               170213JM     1400+00000+JM0000001227+0000001227+000000000+000000172+0000001390+0000000009+I20000000000+0000001390+Z
302005001302005200-000092     302005006003000576739PICNIC PAPER PLATES 23c0000001000+00001227+00000+0001T   00001227+0000001438          1400 AA5214               3AZ
A17021300                                          08383459JMSLAVE 3                       AA52IC
A17021301                                          14423476JMSLAVE 3                       AA51IC
M17021301                              IT          JMATT GLADWYN                                     LAST TILL SLIP                                  NUMBER FOR SLAVE 3                              IS 302005                                       THANX                                           JM
M17021391                              CASH        JMSLAVE 3                       Z-REPORT No.   291TOTAL (Sales - Refunds)           3092.99       CASH TO BE BANKED                 1657.90       DEBIT CARDS                          0.00       CREDIT CARDS                      1435.09       Z-READING                         3092.99       AIRTIME DEBIT CARD SALES             0.00       AIRTIME CARD SALES                   0.00       OVERS/UNDERS                         0.00       AIRTIME CASH SALES                   0.00       GIFT CARDS                           0.00       GIFT CARD CASH SALES                 0.00       T O T A L  CASH PAYOUTS              0.00                                                                                                                                                                                                                                                                                                                                                      Z
M17021392                              CASH        JMABSENT                                                                                                                                                                                          ANNUAL LEAVE                                                                                                                                                                                    DAY OFF                                                                                                                                                                                         COMMENTS                                                                                                                                                                                                                                                                                                                                                                                       Z
Y17021300                                          JM00000000271654+000045
ZJM17021321103 SLAVE 3      SALES DATA                     NEXT INVOICE NO.  302006 0291
X JM Slave 3 First invoice 301961 170213 Last invoice 302005 170213 Next invoice 302006 Total number of records 000000173 clbackup completed 21:10:12
