122175000122175               122175               170213JO     1400+00000+JO0000022744+0000022744+000000000+000003186+0000025930+0000000000+I20000000000+0000025930+Z
122175001122175088-000082     122175006001023798008P/POURRI SACHETS 5x10ml0000001000+00002630+00000+0001T   00002630+0000000907          1400 LA8212               1AZ
122175002122175362-019282     122175006003000258079H/ACCESS 16PC BEAD HNDL0000001000+00003507+00000+0001T   00003507+0000000907          1400 LA8160               1AZ
122175003122175088-000107     122175006001023555823DIFFUSER SET FLOWER    0000001000+00004385+00000+0001T   00004385+0000000907          1400 LA8212               1AZ
122175004122175159-003600     122175006001023606174TOILET-BRUSH W/STAND PL0000001000+00004385+00000+0001T   00004385+0000000907          1400 LA8200               1AZ
122175005122175112-116038     122175006009681820246TCS CARRIER BAG MIDI   0000001000+00000035+00000+0001T   00000035+0000000907          1400 LA8090               1AZ
122175006122175903-000200     122175006009826020234SWT CHOC RP CHOCO 23G  0000001000+00000788+00000+0001T   00000788+0000000907          1400 LA8150               1AZ
122175007122175567-011312     122175006003000593842BOOK READER PLAKKERPRET0000002000+00003507+00000+0001T   00004385+0008140907          1400 LA8757               1AZ
122176000122176               122176               170213JO     1400+00000+JO0000004385+0000004385+000000000+000000614+0000004990+0000000009+I20000000000+0000004990+Z
122176001122176082-000120     122176006003000360727READING GLS STRENGTH:3 0000001000+00004385+00000+0001T   00004385+0000000916          1400 LA8160               1AZ
122177000122177               122177               170213JO     1400+00000+JO0000002665+0000002665+000000000+000000374+0000003030+0000000009+I20000000000+0000003030+Z
122177001122177072-020320     122177006003000603343PET DOG TOY TUG-ROPE   0000001000+00002630+00000+0001T   00002630+0000000917          1400 LA8870               1AZ
122177002122177112-116038     122177006009681820246TCS CARRIER BAG MIDI   0000001000+00000035+00000+0001T   00000035+0000000917          1400 LA8090               1AZ
122178000122178               122178               170213JO     1400+00000+JO0000009470+0000009470+000000000+000001327+0000010790+0000000007+I20000000000+0000010790+Z
122178001122178007-000890-17  122178006003000645671CALENDAR 2017 ASSTD    0000001000+00006139+00000+0001T   00006139+0000000948          1400 LA8130               1AZ
122178002122178077-000386     122178006003000275489G/BAG POP UP 18x23CM   0000001000+00001578+00000+0001T   00001578+0000000948          1400 LA8112               1AZ
122178003122178080-000119     122178006003000237432CARD & ENVELOPE-BABY   0000001000+00001753+00000+0001T   00001753+0000000948          1400 LA8112               1AZ
122179000122179               122179               170213JO     1400+00000+JO0000004385+0000004385+000000000+000000614+0000004999+0000000000+I40000004999+0000000000+Z
122179001122179031-000870-A   122179006001023798626P/FRAME WOOD WHITE-PINE0000001000+00004385+00000+0001T   00004385+0000001014          1400 LA8510               1AZ
122180000122180               122180               170213JO     1400+00000+JO0000005506+0000005506+000000000+000000775+0000006281+0000000000+I40000006281+0000000000+Z
122180001122180006-000166-H   122180006003000608096BALLOONS HELIUM 6PC WHT0000002000+00001314+00000+0001T   00001314+0000001103          1400 LA8131               1AZ
122180002122180903-000504     122180006001704012416SWT CHOC JELLY BEANS   0000001000+00001227+00000+0001T   00001227+0000001103          1400 LA8150               1AZ
122180003122180080-000133     122180006003000535613CARD&ENV MINI ASTD DSGN0000001000+00000437+00000+0001T   00000437+0000001103          1400 LA8112               1AZ
122180004122180903-000183     122180006003000451043SWT LB HEART LOLLY     0000003000+00000393+00000+0001T   00000393+0000001103          1400 LA8150               1AZ
122180005122180112-116038     122180006009681820246TCS CARRIER BAG MIDI   0000001000+00000035+00000+0001T   00000035+0000001103          1400 LA8090               1AZ
122181000122181               122181               170213JO     1400+00000+JO0000007222+0000007222+000000000+000001013+0000008235+0000000000+I40000008235+0000000000+Z
122181001122181018-000136     122181006001023659026MUG OCC LOVE W/PLUSH   0000001000+00003507+00000+0001T   00003507+0000001109          1400 LA8515               1AZ
122181002122181080-000113     122181006003000237449CARD&ENVLPE - LOVE     0000001000+00001753+00000+0001T   00001753+0000001109          1400 LA8112               1AZ
122181003122181077-000299     122181006003000395576G/BAG 32x25cm LRG LOVE 0000001000+00001490+00000+0001T   00001490+0000001109          1400 LA8112               1AZ
122181004122181080-000133     122181006003000535613CARD&ENV MINI ASTD DSGN0000001000+00000437+00000+0001T   00000437+0000001109          1400 LA8112               1AZ
122181005122181112-116038     122181006009681820246TCS CARRIER BAG MIDI   0000001000+00000035+00000+0001T   00000035+0000001109          1400 LA8090               1AZ
122182000122182               122182               170213JO     1400+00000+JO0000002366+0000002366+000000000+000000332+0000002690+0000000008+I20000000000+0000002690+Z
122182001122182077-000010-D   122182006001023123886CREPE-PAPER WHITE      0000001000+00000788+00000+0001T   00000788+0000001115          1400 LA8112               1AZ
122182002122182077-000303     122182006001023593757GIFT-BAG PAPER MED     0000001000+00001578+00000+0001T   00001578+0000001115          1400 LA8112               1AZ
122183000122183               122183               170213JO     1400+00000+JO0000004505+0000004505+000000000+000000631+0000005130+0000000006+I20000000000+0000005130+Z
122183001122183018-000127     122183006001023380289MUG OCC STRAIGHT LOVE  0000001000+00001578+00000+0001T   00001753+0006471122          1400 LA8515               1AZ
122183002122183077-000303     122183006001023593757GIFT-BAG PAPER MED     0000001000+00001578+00000+0001T   00001578+0000001122          1400 LA8112               1AZ
122183003122183903-000194     122183006009826020616SWT CHOC RP LOLLY 25G  0000001000+00001314+00000+0001T   00001314+0000001122          1400 LA8150               1AZ
122183004122183112-116038     122183006009681820246TCS CARRIER BAG MIDI   0000001000+00000035+00000+0001T   00000035+0000001122          1400 LA8090               1AZ
122184000122184               122184               170213JO     1400+00000+JO0000009384+0000009384+000000000+000001314+0000010690+0000000008+I20000000000+0000010690+Z
122184001122184368-000012     122184006003000610464PLUSH BEAR 30cm SITTING0000001000+00008771+00000+0001T   00008771+0000001127          1400 LA8745               1AZ
122184002122184304-001011     122184006001023806727FLWR ROSE RED W/BEAR   0000001000+00000613+00000+0001T   00000788+0006471127          1400 LA8510               1AZ
122185000122185               122185               170213JO     1400+00000+JO0000000035+0000000035+000000000+000000005+0000000040+0000000000+I20000000000+0000000040+Z
122185001122185112-116038     122185006009681820246TCS CARRIER BAG MIDI   0000001000+00000035+00000+0001T   00000035+0000001128          1400 LA8090               1AZ
122186000122186               122186               170213JO     1400+00000+JO0000008374+0000008374+000000000+000001174+0000009540+0000000008+I20000000000+0000009540+Z
122186001122186007-010504     122186006002923014960BLACKBOARD EASEL       0000001000+00007893+00000+0001T   00007893+0000001146          1400 LA8130               1AZ
122186002122186071-000012     122186006001177101006CHALK COLOUR 12PCE     0000001000+00000481+00000+0001T   00000481+0000001146          1400 LA8130               1AZ
122187000122187               122187               170213JO     1400+00000+JO0000007975+0000007975+000000000+000001120+0000009095+0000000000+I40000009095+0000000000+Z
122187001122187079-009702-B   122187008427973059491PAPER SIRIO A2 WHITE   0000002000+00001051+00000+0001T   00001051+0000001202          1400 LA8130               1AZ
122187002122187306-007303     122187006003000532476MASSAGER (FOR HEAD)    0000001000+00002630+00000+0001T   00002630+0000001202          1400 LA8200               1AZ
122187003122187079-006494     122187006003000159864GLITTER GLUE 5PCE 11cm 0000001000+00001490+00000+0001T   00001490+0000001202          1400 LA8130               1AZ
122187004122187079-006522     122187006001023149442ART+CRAFT GLUE ASSORTED0000001000+00001753+00000+0001T   00001753+0000001202          1400 LA8130               1AZ
122188000122188               122188               170213JO     1400+00000+JO0000001753+0000001753+000000000+000000246+0000001990+0000000009+I20000000000+0000001990+Z
122188001122188491-059640     122188000078257596409INTEX:ARMBAND 3-6YRS   0000001000+00001753+00000+0001T   00001753+0000001204          1400 LA8787               1AZ
122189000122189               122189               170213JO     1400+00000+JO0000010745+0000010745+000000000+000001505+0000012250+0000000000+I20000000000+0000012250+Z
122189001122189018-000136     122189006001023659026MUG OCC LOVE W/PLUSH   0000001000+00003507+00000+0001T   00003507+0000001212          1400 LA8515               1AZ
122189002122189304-001011     122189006001023806727FLWR ROSE RED W/BEAR   0000001000+00000613+00000+0001T   00000788+0006471212          1400 LA8510               1AZ
122189003122189006-000190     122189006003000685530BALLOONS LOVE 81x91cm  0000001000+00004385+00000+0001T   00004385+0000001212          1400 LA8131               1AZ
122189004122189080-000127     122189006003000424351VALENTINES DAY 36x24CM 0000001000+00002192+00000+0001T   00002192+0000001212          1400 LA8112               1AZ
122189005122189112-116069     122189006009681820277TCS CARRIER BAG JUMBO  0000001000+00000048+00000+0001T   00000048+0000001212          1400 LA8090               1AZ
122190000122190               122190               170213JO     1400+00000+JO0000001576+0000001576+000000000+000000222+0000001798+0000000000+I40000001798+0000000000+Z
122190001122190077-000010-C   122190006001023123879CREPE-PAPER RED        0000002000+00000788+00000+0001T   00000788+0000001229          1400 LA8112               1AZ
122191000122191               122191               170213JO     1400+00000+JO0000005258+0000005258+000000000+000000737+0000005995+0000000000+I40000005995+0000000000+Z
122191001122191077-000303     122191006001023593757GIFT-BAG PAPER MED     0000002000+00001578+00000+0001T   00001578+0000001231          1400 LA8112               1AZ
122191002122191077-000311     122191006001023608666GIFT-BAG 11X14CM GLOSS 0000002000+00000613+00000+0001T   00000613+0000001231          1400 LA8112               1AZ
122191003122191077-000011-D   122191006001023808554TISSUE-WRAP WHITE 10PCE0000001000+00000876+00000+0001T   00000876+0000001231          1400 LA8112               1AZ
122192000122192               122192               170213JO     1400+00000+JO0000001753+0000001753+000000000+000000246+0000001999+0000000000+I40000001999+0000000000+Z
122192001122192077-000299-A   122192006003000670888GIFT-BAG PAPER JMB LOVE0000001000+00001753+00000+0001T   00001753+0000001233          1400 LA8112               1AZ
122193000122193               122193               170213JO     1400+00000+JO0000002630+0000002630+000000000+000000369+0000002990+0000000009+I20000000000+0000002990+Z
122193001122193567-011913     122193009780799375466BK EDU VOORSPRONG AFR  0000001000+00002630+00000+0001T   00002630+0000001234          1400 LA8757               1AZ
122194000122194               122194               170213JO     1400+00000+JO0000023078+0000023078+000000000+000003240+0000026318+0000000000+I40000026318+0000000000+Z
122194001122194071-000672     122194006003000138975STATIONERY CLIPS PAPER 0000001000+00002192+00000+0001T   00002192+0000001247          1400 LA8130               1AZ
122194002122194071-003853     122194006001023715579PENCIL BASIC HB 12PCE  0000004000+00001753+00000+0001T   00001753+0000001247          1400 LA8130               1AZ
122194003122194084-009411     122194006001023629968SCISSORS 17cm PL-HANDLE0000001000+00001753+00000+0001T   00001753+0000001247          1400 LA8200               1AZ
122194004122194071-081110     122194006936198405454CORRECTION FLUID PEN   0000001000+00001490+00000+0001T   00001490+0000001247          1400 LA8130               1AZ
122194005122194071-000873     122194006001023758743RUB-BANDS CLR BAG-100  0000001000+00001490+00000+0001T   00001490+0000001247          1400 LA8130               1AZ
122194006122194006-000166-D   122194006003000516490BALLOONS LRG 6PC RED   0000002000+00001314+00000+0001T   00001314+0000001247          1400 LA8131               1AZ
122194007122194903-000155     122194006009803374435SWT LOLLY I LUV U HEART0000009000+00000525+00000+0001T   00000525+0000001247          1400 LA8150               1AZ
122194008122194112-116038     122194006009681820246TCS CARRIER BAG MIDI   0000001000+00000035+00000+0001T   00000035+0000001247          1400 LA8090               1AZ
122194009122194369-001138     122194006003000555185VINYL 8.5cm THEMED DUCK0000001000+00001753+00000+0001T   00002630+0008141247          1400 LA8745               1AZ
122195000122195               122195               170213JO     1400+00000+JO0000003069+0000003069+000000000+000000430+0000003490+0000000009+I20000000000+0000003490+Z
122195001122195267-000202     122195006003000339808PUZZLE 48pc DINOSAUR   0000001000+00003069+00000+0001T   00003069+0000001252          1400 LA8755               1AZ
122196000122196               122196               170213JO     1400+00000+JO0000014939+0000014939+000000000+000002093+0000017030+0000000002+I20000000000+0000017030+Z
122196001122196089-060027     122196006003000245871KEY-CHAIN HEART 6X6cm  0000002000+00003069+00000+0001T   00003069+0000001300          1400 LA8205               1AZ
122196002122196033-000601     122196006003000365210HAIR-BRUSH 24CM BLK&WHT0000002000+00003507+00000+0001T   00003507+0000001300          1400 LA8200               1AZ
122196003122196077-000302     122196008010410010195GIFT-BAG 18X23CM E/D   0000002000+00000876+00000+0001T   00000876+0000001300          1400 LA8112               1AZ
122196004122196112-116038     122196006009681820246TCS CARRIER BAG MIDI   0000001000+00000035+00000+0001T   00000035+0000001300          1400 LA8090               1AZ
122197000122197               122197               170213JO     1400+00000+JO0000001314+0000001314+000000000+000000184+0000001490+0000000008+I20000000000+0000001490+Z
122197001122197105-001031     122197000700371696627FOODSAVER 800ml        0000001000+00001314+00000+0001T   00001314+0000001307          1400 LA8210               1AZ
122198000122198               122198               170213JO     1400+00000+JO0000003067+0000003067+000000000+000000430+0000003490+0000000007+I20000000000+0000003490+Z
122198001122198077-000470     122198006003000330171G-BAG DESGN SML 11X14CM0000001000+00001314+00000+0001T   00001314+0000001308          1400 LA8112               1AZ
122198002122198080-000101     122198006003000236732CARD&ENVLPE FEMALE     0000001000+00001753+00000+0001T   00001753+0000001308          1400 LA8112               1AZ
122199000122199               122199               170213JO     1400+00000+JO0000017747+0000017747+000000000+000002486+0000020233+0000000000+I40000020233+0000000000+Z
122199001122199079-000510     122199006001023509079CRAYONS WAX 12-COLOUR  0000001000+00002455+00000+0001T   00002455+0000001313          1400 LA8130               1AZ
122199002122199079-014101     122199006001023908612ART+CRAFT SCOUBIDOUx50 0000001000+00003507+00000+0001T   00003507+0000001313          1400 LA8130               1AZ
122199003122199007-000230     122199006001023995315LABELS STICK-ON STARS  0000001000+00001753+00000+0001T   00001753+0000001313          1400 LA8130               1AZ
122199004122199071-081104-A   122199006003000326662GLUE-STICK 8g CRD-OF-3 0000001000+00001227+00000+0001T   00001227+0000001313          1400 LA8130               1AZ
122199005122199079-130010     122199006003000496624ART+CRAFT FOAM DOLLS   0000002000+00004385+00000+0001T   00004385+0000001313          1400 LA8130               1AZ
122199006122199112-116038     122199006009681820246TCS CARRIER BAG MIDI   0000001000+00000035+00000+0001T   00000035+0000001313          1400 LA8090               1AZ
122200000122200               122200               170213JO     1400+00000+JO0000005747+0000005747+000000000+000000805+0000006550+0000000002+I20000000000+0000006550+Z
122200001122200051-600671     122200006001023552730GARDEN-FENCE PL-CTD 5PC0000001000+00004385+00000+0001T   00004385+0000001320          1400 LA8820               1AZ
122200002122200104-000205     122200006003000512645STORAGE TRAY 22x15x5cm 0000001000+00001314+00000+0001T   00001753+0008161320          1400 LA8210               1AZ
122200003122200112-116069     122200006009681820277TCS CARRIER BAG JUMBO  0000001000+00000048+00000+0001T   00000048+0000001320          1400 LA8090               1AZ
122201000122201               122201               170213JO     1400+00000+JO0000013189+0000013189+000000000+000001848+0000015037+0000000000+I40000015037+0000000000+Z
122201001122201007-000557     122201006003000379484DIARY GIRL W/LOCK 50PG 0000001000+00002630+00000+0001T   00002630+0000001323          1400 LA8130               1AZ
122201002122201464-000258     122201006003000523795GAME SNAKES+LADDERS    0000001000+00005262+00000+0001T   00005262+0000001323          1400 LA8785               1AZ
122201003122201112-116038     122201006009681820246TCS CARRIER BAG MIDI   0000001000+00000035+00000+0001T   00000035+0000001323          1400 LA8090               1AZ
122201004122201035-000013     122201006001023450180UMBRELLA KIDDIES 34cm  0000001000+00005262+00000+0001T   00005262+0000001323          1400 LA8205               1AZ
122202000122202               122202               170213JO     1400+00000+JO0000010558+0000010558+000000000+000001479+0000012037+0000000000+I40000012037+0000000000+Z
122202001122202112-116038     122202006009681820246TCS CARRIER BAG MIDI   0000001000+00000035+00000+0001T   00000035+0000001341          1400 LA8090               1AZ
122202002122202080-000113     122202006003000237449CARD&ENVLPE - LOVE     0000001000+00001753+00000+0001T   00001753+0000001341          1400 LA8112               1AZ
122202003122202031-086102     122202006001023900722P/FRAME PL WORD-TOP 4AS0000001000+00003507+00000+0001T   00003507+0000001341          1400 LA8510               1AZ
122202004122202041-093000     122202006003000320882B/GIFT SET 4PC B/RANGE 0000001000+00007016+00000+0001T   00007016+0000001341          1400 LA8200               1AZ
122202005122202080-000113     122202006003000237449CARD&ENVLPE - LOVE     0000001000-00001753+00000+0001T   00001753+0000001341          1400 LA81121IC            1 Z
122203000122203               122203               170213JO     1400+00000+JO0000001753+0000001753+000000000+000000246+0000001990+0000000009+I20000000000+0000001990+Z
122203001122203080-000113     122203006003000237449CARD&ENVLPE - LOVE     0000001000+00001753+00000+0001T   00001753+0000001341          1400 LA8112               1AZ
122204000122204               122204               170213JO     1400+00000+JO0000006257+0000006257+000000000+000000878+0000007130+0000000005+I20000000000+0000007130+Z
122204001122204112-116038     122204006009681820246TCS CARRIER BAG MIDI   0000001000+00000035+00000+0001T   00000035+0000001342          1400 LA8090               1AZ
122204002122204007-000204     122204006009635835272EXAM-PAD 60SHT PUNCHED 0000001000+00000964+00000+0001T   00000964+0000001342          1400 LA8130               1AZ
122204003122204567-014133     122204006003000560103BOOK COLOURING 48 PAGE 0000001000+00001490+00000+0001T   00001490+0000001342          1400 LA8757               1AZ
122204004122204007-010192     122204006009635830536BOOK H/COVER A5 192PAGE0000001000+00001139+00000+0001T   00001139+0000001342          1400 LA8130               1AZ
122204005122204071-005213     122204006001023690371CELLOTAPE 12mmx33m     0000001000+00000876+00000+0001T   00000876+0000001342          1400 LA8130               1AZ
122204006122204071-004200     122204006001023835901SAFETY SCISSOR         0000001000+00001753+00000+0001T   00001753+0000001342          1400 LA8130               1AZ
122205000122205               122205               170213JO     1400+00000+JO0000001578+0000001578+000000000+000000221+0000001790+0000000009+I20000000000+0000001790+Z
122205001122205018-000127     122205006001023380289MUG OCC STRAIGHT LOVE  0000001000+00001578+00000+0001T   00001753+0006471356          1400 LA8515               1AZ
122206000122206               122206               170213JO     1400+00000+JO0000005732+0000005732+000000000+000000803+0000006530+0000000005+I20000000000+0000006530+Z
122206001122206018-000177     122206006001023797513MUG MINI LOVE ASSTD    0000001000+00000700+00000+0001T   00000700+0000001357          1400 LA8515               1AZ
122206002122206031-086102     122206006001023900722P/FRAME PL WORD-TOP 4AS0000001000+00003507+00000+0001T   00003507+0000001357          1400 LA8510               1AZ
122206003122206077-000299     122206006003000395576G/BAG 32x25cm LRG LOVE 0000001000+00001490+00000+0001T   00001490+0000001357          1400 LA8112               1AZ
122206004122206112-116038     122206006009681820246TCS CARRIER BAG MIDI   0000001000+00000035+00000+0001T   00000035+0000001357          1400 LA8090               1AZ
122207000122207               122207               170213JO     1400+00000+JO0000002192+0000002192+000000000+000000307+0000002490+0000000009+I20000000000+0000002490+Z
122207001122207077-000926     122207006003000414178G/WRAP 700mmx2m LOVE   0000001000+00002192+00000+0001T   00002192+0000001358          1400 LA8112               1AZ
122208000122208               122208               170213JO     1400+00000+JO0000002453+0000002453+000000000+000000344+0000002790+0000000007+I20000000000+0000002790+Z
122208001122208903-000087     122208006001704000161SWT SPECKLED-EGGS 50G  0000001000+00001139+00000+0001T   00001139+0000001359          1400 LA8150               1AZ
122208002122208903-000194     122208006009826020616SWT CHOC RP LOLLY 25G  0000001000+00001314+00000+0001T   00001314+0000001359          1400 LA8150               1AZ
122209000122209               122209               170213JO     1400+00000+JO0000000613+0000000613+000000000+000000086+0000000690+0000000009+I20000000000+0000000690+Z
122209001122209077-000311     122209006001023608666GIFT-BAG 11X14CM GLOSS 0000001000+00000613+00000+0001T   00000613+0000001503          1400 LA8112               1AZ
122210000122210               122210               170213JO     1400+00000+JO0000001578+0000001578+000000000+000000221+0000001790+0000000009+I20000000000+0000001790+Z
122210001122210077-000303     122210006001023593757GIFT-BAG PAPER MED     0000001000+00001578+00000+0001T   00001578+0000001510          1400 LA8112               1AZ
122211000122211               122211               170213JO     1400+00000+JO0000003946+0000003946+000000000+000000553+0000004490+0000000009+I20000000000+0000004490+Z
122211001122211007-000047     122211006009635833698FILE DISPLAY-BK A4 50PG0000001000+00003946+00000+0001T   00003946+0000001511          1400 LA8130               1AZ
122212000122212               122212               170213JO     1400+00000+JO0000000613+0000000613+000000000+000000086+0000000690+0000000009+I20000000000+0000000690+Z
122212001122212077-000311     122212006001023608666GIFT-BAG 11X14CM GLOSS 0000001000+00000613+00000+0001T   00000613+0000001512          1400 LA8112               1AZ
122213000122213               122213               170213JO     1400+00000+JO0000001227+0000001227+000000000+000000172+0000001390+0000000009+I20000000000+0000001390+Z
122213001122213903-000499     122213006001704012492SWT CHOC MALLOWS 50g   0000001000+00001227+00000+0001T   00001227+0000001513          1400 LA8150               1AZ
122214000122214               122214               170213JO     1400+00000+JO0000002366+0000002366+000000000+000000332+0000002690+0000000008+I20000000000+0000002690+Z
122214001122214077-000303     122214006001023593757GIFT-BAG PAPER MED     0000001000+00001578+00000+0001T   00001578+0000001519          1400 LA8112               1AZ
122214002122214077-000010-D   122214006001023123886CREPE-PAPER WHITE      0000001000+00000788+00000+0001T   00000788+0000001519          1400 LA8112               1AZ
122215000122215               122215               170213JO     1400+00000+JO0000001753+0000001753+000000000+000000246+0000001990+0000000009+I20000000000+0000001990+Z
122215001122215080-000113     122215006003000237449CARD&ENVLPE - LOVE     0000001000+00001753+00000+0001T   00001753+0000001522          1400 LA8112               1AZ
122216000122216               122216               170213JO     1400+00000+JO0000008819+0000008819+000000000+000001235+0000010050+0000000004+I20000000000+0000010050+Z
122216001122216031-086302-C   122216006001023910332P/FRAME COLL. PL 3-HOLE0000001000+00008771+00000+0001T   00008771+0000001532          1400 LA8510               1AZ
122216002122216112-116069     122216006009681820277TCS CARRIER BAG JUMBO  0000001000+00000048+00000+0001T   00000048+0000001532          1400 LA8090               1AZ
122217000122217               122217               170213JO     1400+00000+JO0000002630+0000002630+000000000+000000369+0000002990+0000000009+I20000000000+0000002990+Z
122217001122217159-000684     122217006001023776532BATH BODY-GLOVE 18cm   0000001000+00002630+00000+0001T   00002630+0000001540          1400 LA8200               1AZ
122218000122218               122218               170213JO     1400+00000+JO0000003542+0000003542+000000000+000000496+0000004030+0000000008+I20000000000+0000004030+Z
122218001122218018-000136     122218006001023659026MUG OCC LOVE W/PLUSH   0000001000+00003507+00000+0001T   00003507+0000001542          1400 LA8515               1AZ
122218002122218112-116038     122218006009681820246TCS CARRIER BAG MIDI   0000001000+00000035+00000+0001T   00000035+0000001542          1400 LA8090               1AZ
122219000122219               122219               170213JO     1400+00000+JO0000003379+0000003379+000000000+000000474+0000003853+0000000000+I40000003853+0000000000+Z
122219001122219077-000380     122219006003000247585GIFT-BAG 33X45CM S/COL 0000001000+00002455+00000+0001T   00002455+0000001548          1400 LA8112               1AZ
122219002122219903-000482     122219006001704001397SWT SOFT-MINTS 60G     0000001000+00000876+00000+0001T   00000876+0000001548          1400 LA8150               1AZ
122219003122219112-116069     122219006009681820277TCS CARRIER BAG JUMBO  0000001000+00000048+00000+0001T   00000048+0000001548          1400 LA8090               1AZ
122220000122220               122220               170213JO     1400+00000+JO0000002629+0000002629+000000000+000000369+0000002990+0000000008+I20000000000+0000002990+Z
122220001122220089-000099     122220006003000677566KEY CHAIN MTL SPORT AST0000001000+00000876+00000+0001T   00000876+0000001548          1400 LA8205               1AZ
122220002122220089-000004     122220006003000137749KEY CHAIN MTL CHARMS   0000001000+00001753+00000+0001T   00001753+0000001548          1400 LA8205               1AZ
122221000122221               122221               170213JO     1400+00000+JO0000001578+0000001578+000000000+000000221+0000001790+0000000009+I20000000000+0000001790+Z
122221001122221077-000303     122221006001023593757GIFT-BAG PAPER MED     0000001000+00001578+00000+0001T   00001578+0000001558          1400 LA8112               1AZ
122222000122222               122222               170213JO     1400+00000+JO0000001753+0000001753+000000000+000000246+0000001990+0000000009+I20000000000+0000001990+Z
122222001122222089-000184     122222006003000577323KEY CHAIN OWL POLY MINI0000001000+00003069+00000+0001T   00003069+0000001600          1400 LA8205               1AZ
122222002122222080-000113     122222006003000237449CARD&ENVLPE - LOVE     0000001000+00001753+00000+0001T   00001753+0000001600          1400 LA8112               1AZ
122222003122222089-000184     122222006003000577323KEY CHAIN OWL POLY MINI0000001000-00003069+00000+0001T   00003069+0000001600          1400 LA82051IC            1 Z
122223000122223               122223               170213JO     1400+00000+JO0000001753+0000001753+000000000+000000246+0000001990+0000000009+I20000000000+0000001990+Z
122223001122223301-085006     122223006001023502940ORN LOVE MSG TUBE W/HRT0000001000+00001753+00000+0001T   00001753+0000001604          1400 LA8505               1AZ
122224000122224               122224               170213JO     1400+00000+JO0000010082+0000010082+000000000+000001413+0000011490+0000000005+I20000000000+0000011490+Z
122224001122224080-000133     122224006003000535613CARD&ENV MINI ASTD DSGN0000001000+00000437+00000+0001T   00000437+0000001609          1400 LA8112               1AZ
122224002122224124-000005     122224006003000577057STORAGE TIN SQUARE     0000001000+00003507+00000+0001T   00003507+0000001609          1400 LA8300               1AZ
122224003122224077-000351     122224006003000139033GIFT-BAG 18X23CM E/D P 0000001000+00001753+00000+0001T   00001753+0000001609          1400 LA8112               1AZ
122224004122224368-000049     122224006003000536955PLUSH BEAR 15cm LOVE   0000001000+00004385+00000+0001T   00004385+0000001609          1400 LA8745               1AZ
122225000122225               122225               170213JO     1400+00000+JO0000003242+0000003242+000000000+000000455+0000003690+0000000007+I20000000000+0000003690+Z
122225001122225018-000127     122225006001023380289MUG OCC STRAIGHT LOVE  0000001000+00001578+00000+0001T   00001753+0006471615          1400 LA8515               1AZ
122225002122225077-000408     122225006003000145218G/BAG PP 15X21X7CM     0000001000+00000876+00000+0001T   00000876+0000001615          1400 LA8112               1AZ
122225003122225077-000010-D   122225006001023123886CREPE-PAPER WHITE      0000001000+00000788+00000+0001T   00000788+0000001615          1400 LA8112               1AZ
122226000122226               122226               170213JO     1400+00000+JO0000004644+0000004644+000000000+000000652+0000005296+0000000000+I40000005296+0000000000+Z
122226001122226077-000010-Z   122226006001023157874CREPE-PAPER BLK/ORG/PUR0000001000+00000788+00000+0001T   00000788+0000001618          1400 LA8112               1AZ
122226002122226077-000010-D   122226006001023123886CREPE-PAPER WHITE      0000001000+00000788+00000+0001T   00000788+0000001618          1400 LA8112               1AZ
122226003122226077-000305     122226006003000395422GIFT-BAG WINE 10X35CM  0000001000+00001490+00000+0001T   00001490+0000001618          1400 LA8112               1AZ
122226004122226077-000315     122226006003000181186GIFT-BAG 20x28cm MATT  0000001000+00001578+00000+0001T   00001578+0000001618          1400 LA8112               1AZ
122227000122227               122227               170213JO     1400+00000+JO0000004119+0000004119+000000000+000000578+0000004690+0000000007+I20000000000+0000004690+Z
122227001122227076-000017     122227006001811010022TWINE COTTON 50g-BALL  0000001000+00000876+00000+0001T   00000876+0000001619          1400 LA8810               1AZ
122227002122227039-000108     122227006001023524034TEA-LITE CANDLES 8PCE  0000001000+00001490+00000+0001T   00001490+0000001619          1400 LA8510               1AZ
122227003122227039-000114     122227006001023524058CANDLE T/LITE RED 3.5CM0000001000+00001753+00000+0001T   00001753+0000001619          1400 LA8510               1AZ
122228000122228               122228               170213JO     1400+00000+JO0000003716+0000003716+000000000+000000522+0000004230+0000000008+I20000000000+0000004230+Z
122228001122228366-002101     122228006003000617715DRESS UP MASK LIGHT UP 0000001000+00002630+00000+0001T   00002630+0000001620          1400 LA8131               1AZ
122228002122228112-116038     122228006009681820246TCS CARRIER BAG MIDI   0000001000+00000035+00000+0001T   00000035+0000001620          1400 LA8090               1AZ
122228003122228079-009702-D   122228008427973059354PAPER SIRIO A2 RED COL 0000001000+00001051+00000+0001T   00001051+0000001620          1400 LA8130               1AZ
122229000122229               122229               170213JO     1400+00000+JO0000030035+0000030035+000000000+000004207+0000034240+0000000002+I20000000000+0000034240+Z
122229001122229112-116069     122229006009681820277TCS CARRIER BAG JUMBO  0000001000+00000048+00000+0001T   00000048+0000001625          1400 LA8090               1AZ
122229002122229368-000049     122229006003000536955PLUSH BEAR 15cm LOVE   0000001000+00004385+00000+0001T   00004385+0000001625          1400 LA8745               1AZ
122229003122229368-000152     122229006003000166886PLUSH BEAR 15cm        0000001000+00003946+00000+0001T   00005262+0008141625          1400 LA8745               1AZ
122229004122229018-000136     122229006001023659026MUG OCC LOVE W/PLUSH   0000001000+00003507+00000+0001T   00003507+0000001625          1400 LA8515               1AZ
122229005122229080-000139     122229006003000611690CARD & ENV MINI SET 6PC0000001000+00002192+00000+0001T   00002192+0000001625          1400 LA8112               1AZ
122229006122229077-000303     122229006001023593757GIFT-BAG PAPER MED     0000003000+00001578+00000+0001T   00001578+0000001625          1400 LA8112               1AZ
122229007122229018-000170     122229006001023775528MUG OCC. LOVE 2PC MINI 0000001000+00002192+00000+0001T   00002192+0000001625          1400 LA8515               1AZ
122229008122229018-005009     122229006001023725608MUG W/PLUSH-BEAR LOVE  0000001000+00003507+00000+0001T   00003507+0000001625          1400 LA8515               1AZ
122229009122229018-000127     122229006001023380289MUG OCC STRAIGHT LOVE  0000001000+00001578+00000+0001T   00001753+0006471625          1400 LA8515               1AZ
122229010122229082-098787     122229006001492987873SUNGLASS KIDS FOIL     0000001000+00003946+00000+0001T   00003946+0000001625          1400 LA81602IC            1AZ
122230000122230               122230               170213JO     1400+00000+JO0000008153+0000008153+000000000+000001142+0000009290+0000000005+I20000000000+0000009290+Z
122230001122230018-000136     122230006001023659026MUG OCC LOVE W/PLUSH   0000001000+00003507+00000+0001T   00003507+0000001626          1400 LA8515               1AZ
122230002122230018-005009     122230006001023725608MUG W/PLUSH-BEAR LOVE  0000001000+00003507+00000+0001T   00003507+0000001626          1400 LA8515               1AZ
122230003122230903-000087     122230006001704000161SWT SPECKLED-EGGS 50G  0000001000+00001139+00000+0001T   00001139+0000001626          1400 LA8150               1AZ
122231000122231               122231               170213JO     1400+00000+JO0000013156+0000013156+000000000+000001842+0000014998+0000000000+I40000014998+0000000000+Z
122231001122231001-091415     122231006003000329113W/GLS OCC. LOVE 2PC 2800000001000+00008771+00000+0001T   00009648+0006471628          1400 LA8515               1AZ
122231002122231368-000001     122231006003000097982Plush Bear 25cm        0000001000+00004385+00000+0001T   00004385+0000001628          1400 LA8745               1AZ
122232000122232               122232               170213JO     1400+00000+JO0000006139+0000006139+000000000+000000860+0000006990+0000000009+I20000000000+0000006990+Z
122232001122232264-000922     122232000090159250012MAISTO CAR PULL-BACK   0000001000+00006139+00000+0001T   00007016+0008191628          1400 LA8710               1AZ
122233000122233               122233               170213JO     1400+00000+JO0000004997+0000004997+000000000+000000700+0000005690+0000000007+I20000000000+0000005690+Z
122233001122233018-000136     122233006001023659026MUG OCC LOVE W/PLUSH   0000001000+00003507+00000+0001T   00003507+0000001629          1400 LA8515               1AZ
122233002122233077-000299     122233006003000395576G/BAG 32x25cm LRG LOVE 0000001000+00001490+00000+0001T   00001490+0000001629          1400 LA8112               1AZ
122234000122234               122234               170213JO     1400+00000+JO0000001490+0000001490+000000000+000000209+0000001690+0000000009+I20000000000+0000001690+Z
122234001122234159-080352     122234006916920733314HOOKS 3PCE             0000001000+00001490+00000+0001T   00001490+0000001630          1400 LA8200               1AZ
122235000122235               122235               170213JO     1400+00000+JO0000013680+0000013680+000000000+000001917+0000015590+0000000007+I20000000000+0000015590+Z
122235001122235261-003902     122235006001023707475GUN SET+ACCESSORIES    0000001000+00011402+00000+0001T   00011402+0000001633          1400 LA8710               1AZ
122235002122235903-000087     122235006001704000161SWT SPECKLED-EGGS 50G  0000002000+00001139+00000+0001T   00001139+0000001633          1400 LA8150               1AZ
122236000122236               122236               170213JO     1400+00000+JO0000007919+0000007919+000000000+000001109+0000009020+0000000008+I20000000000+0000009020+Z
122236001122236006-000166-G   122236006003000607976BALLOONS HELIUM 6PC BLK0000003000+00001314+00000+0001T   00001314+0000001635          1400 LA8131               1AZ
122236002122236006-000166-H   122236006003000608096BALLOONS HELIUM 6PC WHT0000003000+00001314+00000+0001T   00001314+0000001635          1400 LA8131               1AZ
122236003122236112-116038     122236006009681820246TCS CARRIER BAG MIDI   0000001000+00000035+00000+0001T   00000035+0000001635          1400 LA8090               1AZ
122237000122237               122237               170213JO     1400+00000+JO0000008771+0000008771+000000000+000001228+0000009999+0000000000+I40000009999+0000000000+Z
122237001122237001-091415     122237006003000329113W/GLS OCC. LOVE 2PC 2800000001000+00008771+00000+0001T   00009648+0006471642          1400 LA8515               1AZ
122238000122238               122238               170213JO     1400+00000+JO0000003366+0000003366+000000000+000000472+0000003830+0000000008+I20000000000+0000003830+Z
122238001122238077-000357     122238006003000139354GIFT-BAG 18X23CM B/DAY 0000001000+00001753+00000+0001T   00001753+0000001644          1400 LA8112               1AZ
122238002122238018-000127     122238006001023380289MUG OCC STRAIGHT LOVE  0000001000+00001578+00000+0001T   00001753+0006471644          1400 LA8515               1AZ
122238003122238112-116038     122238006009681820246TCS CARRIER BAG MIDI   0000001000+00000035+00000+0001T   00000035+0000001644          1400 LA8090               1AZ
122239000122239               122239               170213JO     1400+00000+JO0000003542+0000003542+000000000+000000496+0000004030+0000000008+I20000000000+0000004030+Z
122239001122239018-000136     122239006001023659026MUG OCC LOVE W/PLUSH   0000001000+00003507+00000+0001T   00003507+0000001649          1400 LA8515               1AZ
122239002122239112-116038     122239006009681820246TCS CARRIER BAG MIDI   0000001000+00000035+00000+0001T   00000035+0000001649          1400 LA8090               1AZ
122240000122240               122240               170213JO     1400+00000+JO0000001753+0000001753+000000000+000000246+0000001990+0000000009+I20000000000+0000001990+Z
122240001122240077-000299-A   122240006003000670888GIFT-BAG PAPER JMB LOVE0000001000+00001753+00000+0001T   00001753+0000001653          1400 LA8112               1AZ
122241000122241               122241               170213JO     1400+00000+JO0000002630+0000002630+000000000+000000369+0000002990+0000000009+I20000000000+0000002990+Z
122241001122241562-000010     122241006001023762528KID'S PLAY DOUGH       0000001000+00002630+00000+0001T   00002630+0000001655          1400 LA8755               1AZ
122242000122242               122242               170213JO     1400+00000+JO0000002192+0000002192+000000000+000000307+0000002490+0000000009+I20000000000+0000002490+Z
122242001122242566-000359     122242006003000582709STICKER BOOK LOVE SPARK0000001000+00002192+00000+0001T   00002192+0000001658          1400 LA8130               1AZ
122243000122243               122243               170213JO     1400+00000+JO0000003542+0000003542+000000000+000000496+0000004030+0000000008+I20000000000+0000004030+Z
122243001122243018-005009     122243006001023725608MUG W/PLUSH-BEAR LOVE  0000001000+00003507+00000+0001T   00003507+0000001703          1400 LA8515               1AZ
122243002122243112-116038     122243006009681820246TCS CARRIER BAG MIDI   0000001000+00000035+00000+0001T   00000035+0000001703          1400 LA8090               1AZ
122244000122244               122244               170213JO     1400+00000+JO0000001349+0000001349+000000000+000000189+0000001530+0000000008+I20000000000+0000001530+Z
122244001122244018-000119     122244006003000336074MUG DAILY STRAIGHT     0000001000+00001314+00000+0001T   00001753+0008171710          1400 LA8515               1AZ
122244002122244112-116038     122244006009681820246TCS CARRIER BAG MIDI   0000001000+00000035+00000+0001T   00000035+0000001710          1400 LA8090               1AZ
122245000122245               122245               170213JO     1400+00000+JO0000009943+0000009943+000000000+000001393+0000011336+0000000000+I40000011336+0000000000+Z
122245001122245077-000303     122245006001023593757GIFT-BAG PAPER MED     0000001000+00001578+00000+0001T   00001578+0000001713          1400 LA8112               1AZ
122245002122245301-085001     122245006003000297610ORN WATERBALL LOVE ASST0000001000+00004823+00000+0001T   00004823+0000001713          1400 LA8505               1AZ
122245003122245018-005009     122245006001023725608MUG W/PLUSH-BEAR LOVE  0000001000+00003507+00000+0001T   00003507+0000001713          1400 LA8515               1AZ
122245004122245112-116038     122245006009681820246TCS CARRIER BAG MIDI   0000001000+00000035+00000+0001T   00000035+0000001713          1400 LA8090               1AZ
122246000122246               122246               170213JO     1400+00000+JO0000003946+0000003946+000000000+000000553+0000004490+0000000009+I20000000000+0000004490+Z
122246001122246031-000902-B   122246006001023726285P/FRAME WDN OAK 10X15CM0000001000+00003946+00000+0001T   00003946+0000001722          1400 LA8510               1AZ
122247000122247               122247               170213JO     1400+00000+JO0000004206+0000004206+000000000+000000590+0000004790+0000000006+I20000000000+0000004790+Z
122247001122247077-000333     122247006001023745316GIFT-BAG 25X32CM EVERYD0000001000+00001753+00000+0001T   00001753+0000001732          1400 LA8112               1AZ
122247002122247039-000114     122247006001023524058CANDLE T/LITE RED 3.5CM0000001000+00001753+00000+0001T   00001753+0000001732          1400 LA8510               1AZ
122247003122247080-000121     122247006003000237555CARD&ENVLPE-ANNIVERSARY0000001000+00000700+00000+0001T   00000876+0008151732          1400 LA8112               1AZ
122248000122248               122248               170213JO     1400+00000+JO0000001227+0000001227+000000000+000000172+0000001390+0000000009+I20000000000+0000001390+Z
122248001122248903-000517     122248006001704012768SWT STRAWS FIZZY CHERRY0000001000+00001227+00000+0001T   00001227+0000001733          1400 LA8150               1AZ
A17021300                                          12503807JOSLAVE 1                       1IC1IC
A17021301                                          13251245JOSLAVE 1                       LA81IC
A17021302                                          13253159JOSLAVE 1                       LA81IC
A17021303                                          17272183JOSLAVE 1                       JA72IC
B12222900                                          170213JO082-098787     16242072SLAVE 1     LA82IC0000004000+0000001000+0000000000000+
M17021301                              SHIEHAAM    JOBANKING FOR JO ON 13/02/17                      CASH                                            SLAVE 1       R3225.60                          SLAVE 2       R2875.20                          C.CARDS                                         SLAVE 1       R1575.09                          SLAVE 2       R2240.47                          PAY OUTS                                        CASUAL WAGES  R63.20
M17021302                              FARIED      JOLAST TILL SLIPS FOR JO                          SLAVE 1   122248                                SLAVE 2   131896                                SLAVE 3   NO TRADE
M17021391                              CASH        JOSLAVE 1                       Z-REPORT No.   551TOTAL (Sales - Refunds)           4800.69       CASH TO BE BANKED                 3225.60       DEBIT CARDS                          0.00       CREDIT CARDS                      1575.09       Z-READING                         4800.69       AIRTIME DEBIT CARD SALES             0.00       AIRTIME CARD SALES                   0.00       OVERS/UNDERS                         0.00       AIRTIME CASH SALES                   0.00       GIFT CARDS                           0.00       GIFT CARD CASH SALES                 0.00       T O T A L  CASH PAYOUTS              0.00                                                                                                                                                                                                                                                                                                                                                      Z
M17021392                              CASH        JOABSENT                                                                                                                                                                                          ANNUAL LEAVE                                                                                                                                                                                    DAY OFF                                                                                                                                                                                         COMMENTS                                                                                                                                                                                                                                                                                                                                                                                       Z
Y17021300                                          JO00000000426244+000074
ZJO17021321103 SLAVE 1      SALES DATA                     NEXT INVOICE NO.  122249 0551
X JO Slave 1 First invoice 122175 170213 Last invoice 122248 170213 Next invoice 122249 Total number of records 000000272 clbackup completed 21:10:10
