310549000310549               310549               170213JP     1400+00000+JP0000004822+0000004822+000000000+000000676+0000005490+0000000008+I20000000000+0000005490+Z
310549001310549080-000139     310549006003000611690CARD & ENV MINI SET 6PC0000001000+00002192+00000+0001T   00002192+0000000917          1400 DL4112               1AZ
310549002310549077-000201     310549006003000152612GIFT-BOX WEDDING PVC   0000001000+00002630+00000+0001T   00002630+0000000917          1400 DL4112               1AZ
310550000310550               310550               170213JP     1400+00000+JP0000003507+0000003507+000000000+000000491+0000003998+0000000000+I40000003998+0000000000+Z
310550001310550031-005920     310550006003000580699P/FRAME PL PLAIN 20X25 0000001000+00003507+00000+0001T   00003507+0000001022          1400 DL4510               1AZ
310551000310551               310551               170213JP     1400+00000+JP0000010525+0000010525+000000000+000001474+0000011999+0000000000+I40000011999+0000000000+Z
310551001310551079-001003     310551006003000588640ART+CRAFT PAINT CANVAS 0000001000+00010525+00000+0001T   00010525+0000001024          1400 DL4130               1AZ
310552000310552               310552               170213JP     1400+00000+JP0000006312+0000006312+000000000+000000884+0000007196+0000000000+I40000007196+0000000000+Z
310552001310552007-000211     310552006003000005796STATIONERY N/PAD 3PCK  0000004000+00001578+00000+0001T   00001578+0000001025          1400 DL4130               1AZ
310553000310553               310553               170213JP     1400+00000+JP0000001401+0000001401+000000000+000000197+0000001590+0000000008+I20000000000+0000001590+Z
310553001310553903-000481     310553006001704007481SWT MOO MILK-SHAKES 60G0000001000+00000876+00000+0001T   00000876+0000001051          1400 DL4150               1AZ
310553002310553903-000151     310553006009803374411SWT SML RND R/BOW LOLLY0000001000+00000525+00000+0001T   00000525+0000001051          1400 DL4150               1AZ
310554000310554               310554               170213JP     1400+00000+JP0000001226+0000001226+000000000+000000172+0000001390+0000000008+I20000000000+0000001390+Z
310554001310554304-001011     310554006001023806727FLWR ROSE RED W/BEAR   0000002000+00000613+00000+0001T   00000788+0006471101          1400 DL4510               1AZ
310555000310555               310555               170213JP     1400+00000+JP0000003946+0000003946+000000000+000000553+0000004499+0000000000+I40000004499+0000000000+Z
310555001310555024-000092     310555006003000426805MEASURING-SET 6PC      0000001000+00003946+00000+0001T   00003946+0000001114          1400 DL4300               1AZ
310556000310556               310556               170213JP     1400+00000+JP0000007675+0000007675+000000000+000001075+0000008750+0000000000+I40000008750+0000000000+Z
310556001310556018-005009     310556006001023725608MUG W/PLUSH-BEAR LOVE  0000002000+00003507+00000+0001T   00003507+0000001117          1400 DL4515               1AZ
310556002310556077-000311     310556006001023608666GIFT-BAG 11X14CM GLOSS 0000001000+00000613+00000+0001T   00000613+0000001117          1400 DL4112               1AZ
310556003310556112-116069     310556006009681820277TCS CARRIER BAG JUMBO  0000001000+00000048+00000+0001T   00000048+0000001117          1400 DL4090               1AZ
310557000310557               310557               170213JP     1400+00000+JP0000002629+0000002629+000000000+000000369+0000002990+0000000008+I20000000000+0000002990+Z
310557001310557077-000328     310557006003000668939GIFT-BAG PAPER JMB     0000001000+00001753+00000+0001T   00001753+0000001118          1400 DL4112               1AZ
310557002310557077-000151     310557006008766114676GIFT-WRAP C/PHANE ASSTD0000001000+00000876+00000+0001T   00000876+0000001118          1400 DL4112               1AZ
310558000310558               310558               170213JP     1400+00000+JP0000007890+0000007890+000000000+000001105+0000008995+0000000000+I40000008995+0000000000+Z
310558001310558018-005009     310558006001023725608MUG W/PLUSH-BEAR LOVE  0000002000+00003507+00000+0001T   00003507+0000001126          1400 DL4515               1AZ
310558002310558903-000482     310558006001704001397SWT SOFT-MINTS 60G     0000001000+00000876+00000+0001T   00000876+0000001126          1400 DL4150               1AZ
310559000310559               310559               170213JP     1400+00000+JP0000017760+0000017760+000000000+000002489+0000020240+0000000009+I20000000000+0000020240+Z
310559001310559112-116069     310559006009681820277TCS CARRIER BAG JUMBO  0000001000+00000048+00000+0001T   00000048+0000001128          1400 DL4090               1AZ
310559002310559031-000001-A   310559006003000246908P/FRAME GLS LOVE 9X13cm0000001000+00004385+00000+0001T   00004385+0000001128          1400 DL4510               1AZ
310559003310559018-005007     310559006003000515516MUG OCC. LOVE W/HEARTS 0000001000+00006139+00000+0001T   00006139+0000001128          1400 DL4515               1AZ
310559004310559903-000095     310559006001704011495SWT SPECKLED-EGGS 100G 0000003000+00002104+00000+0001T   00002104+0000001128          1400 DL4150               1AZ
310559005310559903-000897     310559008692806325207SWT CHOC DBL MINI ROLL 0000001000+00000876+00000+0001T   00000876+0000001128          1400 DL4150               1AZ
310560000310560               310560               170213JP     1400+00000+JP0000011137+0000011137+000000000+000001560+0000012690+0000000007+I20000000000+0000012690+Z
310560001310560089-001021     310560006003000112319KEY CHAIN MINI BIBLE   0000001000+00001490+00000+0001T   00001490+0000001129          1400 DL4205               1AZ
310560002310560031-086301-B   310560006001023910219P/FRAME PL BRONZE 13X180000001000+00005262+00000+0001T   00005262+0000001129          1400 DL4510               1AZ
310560003310560031-086301-A   310560006001023910189P/FRAME PL BRONZE 10X150000001000+00004385+00000+0001T   00004385+0000001129          1400 DL4510               1AZ
310561000310561               310561               170213JP     1400+00000+JP0000008807+0000008807+000000000+000001237+0000010044+0000000000+I40000010044+0000000000+Z
310561001310561112-116069     310561006009681820277TCS CARRIER BAG JUMBO  0000001000+00000048+00000+0001T   00000048+0000001157          1400 DL4090               1AZ
310561002310561077-000010-C   310561006001023123879CREPE-PAPER RED        0000002000+00000788+00000+0001T   00000788+0000001157          1400 DL4112               1AZ
310561003310561077-000011-C   310561006001023808523TISSUE 10xSHTS RED     0000001000+00000876+00000+0001T   00000876+0000001157          1400 DL4112               1AZ
310561004310561564-000012     310561006001023130075BUBBLE BOTTLE MAGIC    0000001000+00000700+00000+0001T   00000700+0000001157          1400 DL4131               1AZ
310561005310561077-000324     310561006001023677594GIFT-BAG 33X45CM E/D FL0000001000+00001753+00000+0001T   00001753+0000001157          1400 DL4112               1AZ
310561006310561079-009702-D   310561008427973059354PAPER SIRIO A2 RED COL 0000001000+00001051+00000+0001T   00001051+0000001157          1400 DL4130               1AZ
310561007310561077-000245     310561006001023759214GIFT-RIBBON METALLICx2 0000001000+00001227+00000+0001T   00001227+0000001157          1400 DL4112               1AZ
310561008310561564-000030     310561006001023897022BUBBLE NOVELTY BOTTLE  0000001000+00000876+00000+0001T   00000876+0000001157          1400 DL4131               1AZ
310561009310561564-000012     310561006001023130075BUBBLE BOTTLE MAGIC    0000001000+00000700+00000+0001T   00000700+0000001157          1400 DL4131               1AZ
310562000310562               310562               170213JP     1400+00000+JP0000029423+0000029423+000000000+000004125+0000033548+0000000000+I40000033548+0000000000+Z
310562001310562112-116069     310562006009681820277TCS CARRIER BAG JUMBO  0000001000+00000048+00000+0001T   00000048+0000001203          1400 DL4090               1AZ
310562002310562079-000293     310562006003000159673PAINT SET RAINBOW ASSTD0000001000+00007893+00000+0001T   00007893+0000001203          1400 DL4130               1AZ
310562003310562079-001002     310562006003000448715CANVAS A4 WOOD MOUNTED 0000003000+00002630+00000+0001T   00002630+0000001203          1400 DL4130               1AZ
310562004310562079-000293     310562006003000159673PAINT SET RAINBOW ASSTD0000001000+00007893+00000+0001T   00007893+0000001203          1400 DL4130               1AZ
310562005310562079-000271     310562006003000160082PAINT-BRUSHES LRGE ART 0000001000+00003069+00000+0001T   00003069+0000001203          1400 DL4130               1AZ
310562006310562079-000282     310562006001023493309PAINT TUBS POSTER 12COL0000001000+00002630+00000+0001T   00002630+0000001203          1400 DL4130               1AZ
310563000310563               310563               170213JP     1400+00000+JP0000002630+0000002630+000000000+000000369+0000002990+0000000009+I20000000000+0000002990+Z
310563001310563006-000111     310563006003000519385BALLOONS LARGE 12PCE   0000001000+00002630+00000+0001T   00002630+0000001203          1400 DL4131               1AZ
310564000310564               310564               170213JP     1400+00000+JP0000011399+0000011399+000000000+000001598+0000012990+0000000007+I20000000000+0000012990+Z
310564001310564047-000502-H   310564006001023780041PLUG 2x2PIN EURO       0000001000+00001753+00000+0001T   00001753+0000001210          1400 DL4880               1AZ
310564002310564034-078810     310564006001023856838DIAPER DISPOSE-BAGSx1000000001000+00002630+00000+0001T   00002630+0000001210          1400 DL4215               1AZ
310564003310564105-007550     310564006003000485635STORAGE BOX CLEAR NICHE0000001000+00007016+00000+0001T   00007016+0000001210          1400 DL4210               1AZ
310565000310565               310565               170213JP     1400+00000+JP0000002630+0000002630+000000000+000000369+0000002990+0000000009+I20000000000+0000002990+Z
310565001310565466-072725     310565006001023622532YO-YO PL               0000001000+00002630+00000+0001T   00002630+0000001217          1400 DL4785               1AZ
310566000310566               310566               170213JP     1400+00000+JP0000017012+0000017012+000000000+000002383+0000019395+0000000000+I40000019395+0000000000+Z
310566001310566077-000319     310566006001023609779GIFT-BAG 18X23CM BIRTHD0000001000+00001227+00000+0001T   00001227+0000001219          1400 DL4112               1AZ
310566002310566089-000030     310566006003000575671K/CHAIN LOVE MTL ASSTD 0000001000+00001753+00000+0001T   00001753+0000001219          1400 DL4205               1AZ
310566003310566004-071205     310566006003000073368USB 2.0 COMPUTER 4 HUB 0000001000+00003507+00000+0001T   00003507+0000001219          1400 DL4310               1AZ
310566004310566085-007012     310566006001023909411P/TOOL 14in1 SS W/POUCH0000001000+00010525+00000+0001T   00010525+0000001219          1400 DL4305               1AZ
310567000310567               310567               170213JP     1400+00000+JP0000005262+0000005262+000000000+000000737+0000005999+0000000000+I40000005999+0000000000+Z
310567001310567024-000165-B   310567006003000674190N/STICK ROUND PIE PAN  0000001000+00005262+00000+0001T   00005262+0000001220          1400 DL4300               1AZ
310568000310568               310568               170213JP     1400+00000+JP0000006577+0000006577+000000000+000000921+0000007490+0000000008+I20000000000+0000007490+Z
310568001310568080-000127     310568006003000424351VALENTINES DAY 36x24CM 0000001000+00002192+00000+0001T   00002192+0000001227          1400 DL4112               1AZ
310568002310568024-000118     310568006001023422316N/STICK C/PAN HEART    0000001000+00004385+00000+0001T   00004385+0000001227          1400 DL4300               1AZ
310569000310569               310569               170213JP     1400+00000+JP0000003541+0000003541+000000000+000000497+0000004030+0000000008+I20000000000+0000004030+Z
310569001310569206-000135     310569006003000680450T/BAG HLDR SILICONE    0000001000+00001753+00000+0001T   00001753+0000001231          1400 DL4321               1AZ
310569002310569206-000360     310569006003000631193CITRUS SPRAYER 3PC     0000001000+00001753+00000+0001T   00001753+0000001231          1400 DL4321               1AZ
310569003310569112-116038     310569006009681820246TCS CARRIER BAG MIDI   0000001000+00000035+00000+0001T   00000035+0000001231          1400 DL4090               1AZ
310570000310570               310570               170213JP     1400+00000+JP0000002453+0000002453+000000000+000000344+0000002790+0000000007+I20000000000+0000002790+Z
310570001310570903-000087     310570006001704000161SWT SPECKLED-EGGS 50G  0000001000+00001139+00000+0001T   00001139+0000001234          1400 DL4150               1AZ
310570002310570903-000844     310570005010478432567SWT CANDY DL LUV HEARTS0000001000+00001314+00000+0001T   00001314+0000001234          1400 DL4150               1AZ
310571000310571               310571               170213JP     1400+00000+JP0000006795+0000006795+000000000+000000953+0000007740+0000000008+I20000000000+0000007740+Z
310571001310571071-001012     310571006001023474445MARKERS BLACK ROUND    0000001000+00000876+00000+0001T   00000876+0000001237          1400 DL4130               1AZ
310571002310571039-000635     310571006001023774521CANDLE VTV 4PC WHITE   0000001000+00002192+00000+0001T   00002192+0000001237          1400 DL4510               1AZ
310571003310571903-000844     310571005010478432567SWT CANDY DL LUV HEARTS0000001000+00001314+00000+0001T   00001314+0000001237          1400 DL4150               1AZ
310571004310571007-000205     310571006002324000432FILE BINDER 2-RING A4  0000001000+00001753+00000+0001T   00001753+0000001237          1400 DL4130               1AZ
310571005310571079-009700-E   310571006003000545797PAPER SIRIO A4 GREY    0000002000+00000306+00000+0001T   00000306+0000001237          1400 DL4130               1AZ
310571006310571112-116069     310571006009681820277TCS CARRIER BAG JUMBO  0000001000+00000048+00000+0001T   00000048+0000001237          1400 DL4090               1AZ
310572000310572               310572               170213JP     1400+00000+JP0000032404+0000032404+000000000+000004539+0000036943+0000000000+I40000036943+0000000000+Z
310572001310572065-005337     310572006001023619303KEYBOARD B/O 32-KEYS   0000001000+00013157+00000+0001T   00013157+0000001243          1400 DL4745               1AZ
310572002310572079-000286     310572006001023797032FINGER-PAINT 4PCE      0000001000+00003507+00000+0001T   00003507+0000001243          1400 DL4130               1AZ
310572003310572079-000344     310572006001023904010FELT-TIP PENS 12PCE    0000001000+00002630+00000+0001T   00002630+0000001243          1400 DL4130               1AZ
310572004310572082-098778     310572006001492987781SUNGLASS KIDS OVAL     0000001000+00003507+00000+0001T   00003507+0000001243          1400 DL4160               1AZ
310572005310572007-000145     310572006009635833087BK EXERCISE 72PG A4    0000001000+00000525+00000+0001T   00000525+0000001243          1400 DL4130               1AZ
310572006310572562-002004     310572006003000229017EDU THINK WHOSE BABY   0000001000+00007016+00000+0001T   00007016+0000001243          1400 DL4755               1AZ
310572007310572564-000012     310572006001023130075BUBBLE BOTTLE MAGIC    0000001000+00000700+00000+0001T   00000700+0000001243          1400 DL4131               1AZ
310572008310572112-116069     310572006009681820277TCS CARRIER BAG JUMBO  0000001000+00000048+00000+0001T   00000048+0000001243          1400 DL4090               1AZ
310572009310572046-000012     310572006904708013062BATTERIES AA  CARD-OF-40000001000+00001314+00000+0001T   00001314+0000001243          1400 DL4312               1AZ
310573000310573               310573               170213JP     1400+00000+JP0000019297+0000019297+000000000+000002702+0000021999+0000000000+I40000021999+0000000000+Z
310573001310573466-000806     310573006003000537303BOXING STAND WITH BALL 0000001000+00019297+00000+0001T   00019297+0000001244          1400 DL4785               1AZ
310574000310574               310574               170213JP     1400+00000+JP0000001664+0000001664+000000000+000000234+0000001890+0000000008+I20000000000+0000001890+Z
310574001310574077-000010-D   310574006001023123886CREPE-PAPER WHITE      0000001000+00000788+00000+0001T   00000788+0000001249          1400 DL4112               1AZ
310574002310574077-000011-C   310574006001023808523TISSUE 10xSHTS RED     0000001000+00000876+00000+0001T   00000876+0000001249          1400 DL4112               1AZ
310575000310575               310575               170213JP     1400+00000+JP0000014776+0000014776+000000000+000002072+0000016840+0000000008+I20000000000+0000016840+Z
310575001310575072-020274     310575006001023858443LITTER-LINERS-BAGS 10PC0000003000+00002630+00000+0001T   00002630+0000001250          1400 DL4870               1AZ
310575002310575903-000087     310575006001704000161SWT SPECKLED-EGGS 50G  0000001000+00001139+00000+0001T   00001139+0000001250          1400 DL4150               1AZ
310575003310575072-020266     310575006003000400591PET PUPPY TRAINING PAD 0000001000+00003507+00000+0001T   00003507+0000001250          1400 DL4870               1AZ
310575004310575200-000020     310575006925406841030BAG ZIPPERSEAL 25PC    0000001000+00002192+00000+0001T   00002192+0000001250          1400 DL4214               1AZ
310575005310575112-116069     310575006009681820277TCS CARRIER BAG JUMBO  0000001000+00000048+00000+0001T   00000048+0000001250          1400 DL4090               1AZ
310576000310576               310576               170213JP     1400+00000+JP0000003507+0000003507+000000000+000000491+0000003990+0000000008+I20000000000+0000003990+Z
310576001310576077-000932     310576006003000409808G/WRAP 700mmx5m PATTERN0000001000+00003507+00000+0001T   00003507+0000001252          1400 DL4112               1AZ
310577000310577               310577               170213JP     1400+00000+JP0000021482+0000021482+000000000+000003010+0000024492+0000000000+I40000024492+0000000000+Z
310577001310577566-000322     310577006003000423132STICKER R/DEC CHANDELIE0000001000+00005262+00000+0001T   00005262+0000001255          1400 DL4130               1AZ
310577002310577174-000140     310577006003000367450STORAGE ORGANISER 30X300000001000+00005700+00000+0001T   00005700+0000001255          1400 DL4205               1AZ
310577003310577088-000080     310577006003000622863DRAWER LINERS SCENTED  0000001000+00005262+00000+0001T   00005262+0000001255          1400 DL4212               1AZ
310577004310577033-010720     310577006001023678645SAFETY-PINS 50PCE SMALL0000001000+00000876+00000+0001T   00000876+0000001255          1400 DL4200               1AZ
310577005310577027-001018     310577006003000622702BROOM COVER MICROFIBRE 0000001000+00002630+00000+0001T   00002630+0000001255          1400 DL4212               1AZ
310577006310577903-000483     310577006001704001410SWT LIQUOR SML SORT 60G0000001000+00000876+00000+0001T   00000876+0000001255          1400 DL4150               1AZ
310577007310577903-000521     310577006001704009652SWT GUMMY SOFT GUMS    0000001000+00000876+00000+0001T   00000876+0000001255          1400 DL4150               1AZ
310578000310578               310578               170213JP     1400+00000+JP0000000876+0000000876+000000000+000000123+0000000990+0000000009+I20000000000+0000000990+Z
310578001310578077-000011-E   310578006001023808646TISSUE-WRAP PINK 10PCE 0000001000+00000876+00000+0001T   00000876+0000001255          1400 DL4112               1AZ
310579000310579               310579               170213JP     1400+00000+JP0000009339+0000009339+000000000+000001311+0000010650+0000000000+I40000010650+0000000000+Z
310579001310579159-002369     310579006001023999191TOOTHBRUSH HOLDER PL 3 0000001000+00002630+00000+0001T   00002630+0000001258          1400 DL4200               1AZ
310579002310579039-000108     310579006001023524034TEA-LITE CANDLES 8PCE  0000001000+00001490+00000+0001T   00001490+0000001258          1400 DL4510               1AZ
310579003310579027-000081     310579006001023760371SCOURING PADS 10PCE    0000001000+00001139+00000+0001T   00001139+0000001258          1400 DL4212               1AZ
310579004310579027-783008     310579006001246334595SCOURERS FOAM MAGIC    0000001000+00001402+00000+0001T   00001402+0000001258          1400 DL4212               1AZ
310579005310579088-000014     310579006001023994776AIR-FRESHENER GEL 3PCE 0000001000+00002630+00000+0001T   00002630+0000001258          1400 DL4212               1AZ
310579006310579112-116069     310579006009681820277TCS CARRIER BAG JUMBO  0000001000+00000048+00000+0001T   00000048+0000001258          1400 DL4090               1AZ
310580000310580               310580               170213JP     1400+00000+JP0000010872+0000010872+000000000+000001524+0000012390+0000000006+I20000000000+0000012390+Z
310580001310580089-023424     310580006001023759740K/CHAIN W/BELT HOOK 28 0000001000+00002630+00000+0001T   00002630+0000001300          1400 DL4205               1AZ
310580002310580018-019000     310580006003000557288MUG OCC. LOVE JUMBO    0000001000+00005262+00000+0001T   00005262+0000001300          1400 DL4515               1AZ
310580003310580903-000613     310580006003000617173SWT LIPS DUMMY 10G     0000002000+00001490+00000+0001T   00001490+0000001300          1400 DL4150               1AZ
310581000310581               310581               170213JP     1400+00000+JP0000005262+0000005262+000000000+000000737+0000005999+0000000000+I40000005999+0000000000+Z
310581001310581366-001100     310581006003000031443DRESS UP HAT PIRATE    0000001000+00005262+00000+0001T   00005262+0000001303          1400 DL4131               1AZ
310582000310582               310582               170213JP     1400+00000+JP0000007938+0000007938+000000000+000001114+0000009052+0000000000+I40000009052+0000000000+Z
310582001310582006-000203-A   310582006003453010965SNACK BOX 6PCE ASSTD   0000003000+00002630+00000+0001T   00002630+0000001310          1400 DL4131               1AZ
310582002310582112-116069     310582006009681820277TCS CARRIER BAG JUMBO  0000001000+00000048+00000+0001T   00000048+0000001310          1400 DL4090               1AZ
310583000310583               310583               170213JP     1400+00000+JP0000004518+0000004518+000000000+000000633+0000005151+0000000000+I40000005151+0000000000+Z
310583001310583018-000119     310583006003000336074MUG DAILY STRAIGHT     0000001000+00001314+00000+0001T   00001753+0008171326          1400 DL4515               1AZ
310583002310583018-000127     310583006001023380289MUG OCC STRAIGHT LOVE  0000002000+00001578+00000+0001T   00001753+0006471326          1400 DL4515               1AZ
310583003310583112-116069     310583006009681820277TCS CARRIER BAG JUMBO  0000001000+00000048+00000+0001T   00000048+0000001326          1400 DL4090               1AZ
310584000310584               310584               170213JP     1400+00000+JP0000004908+0000004908+000000000+000000691+0000005599+0000000000+I40000005599+0000000000+Z
310584001310584071-081101-A   310584006003000326549GLUE-STICK 25g BLISTER 0000002000+00000788+00000+0001T   00000788+0000001330          1400 DL4130               1AZ
310584002310584206-000220     310584006003000631704EGG TIMER COLOUR-CHANGE0000001000+00002630+00000+0001T   00002630+0000001330          1400 DL4321               1AZ
310584003310584903-000671     310584006009803358015SWT SHERBET BLUE LIPS  0000003000+00000218+00000+0001T   00000218+0000001330          1400 DL4150               1AZ
310584004310584112-116069     310584006009681820277TCS CARRIER BAG JUMBO  0000001000+00000048+00000+0001T   00000048+0000001330          1400 DL4090               1AZ
310585000310585               310585               170213JP     1400+00000+JP0000003626+0000003626+000000000+000000510+0000004136+0000000000+I40000004136+0000000000+Z
310585001310585089-000030     310585006003000575671K/CHAIN LOVE MTL ASSTD 0000001000+00001753+00000+0001T   00001753+0000001335          1400 DL4205               1AZ
310585002310585903-000843     310585008693029031067SWT GUMMY JELAXY 80G   0000001000+00000964+00000+0001T   00000964+0000001335          1400 DL4150               1AZ
310585003310585080-000133-A   310585006003000647019MINI VALENTINES CARD   0000002000+00000437+00000+0001T   00000437+0000001335          1400 DL4112               1AZ
310585004310585112-116038     310585006009681820246TCS CARRIER BAG MIDI   0000001000+00000035+00000+0001T   00000035+0000001335          1400 DL4090               1AZ
310586000310586               310586               170213JP     1400+00000+JP0000012057+0000012057+000000000+000001690+0000013747+0000000000+I40000013747+0000000000+Z
310586001310586018-000136     310586006001023659026MUG OCC LOVE W/PLUSH   0000001000+00003507+00000+0001T   00003507+0000001443          1400 DL4515               1AZ
310586002310586018-000170     310586006001023775528MUG OCC. LOVE 2PC MINI 0000001000+00002192+00000+0001T   00002192+0000001443          1400 DL4515               1AZ
310586003310586031-005853     310586006003000442416P/FRAME WDN TWIN HEARTS0000001000+00003507+00000+0001T   00003507+0000001443          1400 DL4510               1AZ
310586004310586077-000011-C   310586006001023808523TISSUE 10xSHTS RED     0000001000+00000876+00000+0001T   00000876+0000001443          1400 DL4112               1AZ
310586005310586077-000299     310586006003000395576G/BAG 32x25cm LRG LOVE 0000001000+00001490+00000+0001T   00001490+0000001443          1400 DL4112               1AZ
310586006310586112-116069     310586006009681820277TCS CARRIER BAG JUMBO  0000001000+00000048+00000+0001T   00000048+0000001443          1400 DL4090               1AZ
310586007310586080-000133-A   310586006003000647019MINI VALENTINES CARD   0000001000+00000437+00000+0001T   00000437+0000001443          1400 DL4112               1AZ
310587000310587               310587               170213JP     1400+00000+JP0000002452+0000002452+000000000+000000344+0000002790+0000000006+I20000000000+0000002790+Z
310587001310587006-001000     310587006003000093779HELIUM BALLOON FILL    0000004000+00000613+00000+0001T   00000613+0000001513          1400 DL4131               1AZ
310588000310588               310588               170213JP     1400+00000+JP0000003506+0000003506+000000000+000000492+0000003990+0000000008+I20000000000+0000003990+Z
310588001310588903-000610     310588006003000610518SWEET JUMBO BUBBLE GUM 0000002000+00001753+00000+0001T   00001753+0000001514          1400 DL4150               1AZ
310589000310589               310589               170213JP     1400+00000+JP0000002630+0000002630+000000000+000000369+0000002990+0000000009+I20000000000+0000002990+Z
310589001310589079-000254     310589006002923016407ART APRON ASSTD        0000001000+00002630+00000+0001T   00002630+0000001517          1400 DL4130               1AZ
310590000310590               310590               170213JP     1400+00000+JP0000012491+0000012491+000000000+000001753+0000014244+0000000000+I40000014244+0000000000+Z
310590001310590077-000245     310590006001023759214GIFT-RIBBON METALLICx2 0000001000+00001227+00000+0001T   00001227+0000001519          1400 DL4112               1AZ
310590002310590903-000123     310590006925925909280SWEET GS MINI MALLOWS  0000003000+00000876+00000+0001T   00000876+0000001519          1400 DL4150               1AZ
310590003310590112-116069     310590006009681820277TCS CARRIER BAG JUMBO  0000001000+00000048+00000+0001T   00000048+0000001519          1400 DL4090               1AZ
310590004310590903-000095     310590006001704011495SWT SPECKLED-EGGS 100G 0000002000+00002104+00000+0001T   00002104+0000001519          1400 DL4150               1AZ
310590005310590903-000123     310590006925925909280SWEET GS MINI MALLOWS  0000001000+00000876+00000+0001T   00000876+0000001519          1400 DL4150               1AZ
310590006310590903-000520     310590006001704009898SWT GUMMY MINI SOUR 60g0000004000+00000876+00000+0001T   00000876+0000001519          1400 DL4150               1AZ
310591000310591               310591               170213JP     1400+00000+JP0000000437+0000000437+000000000+000000062+0000000490+0000000009+I20000000000+0000000490+Z
310591001310591083-000049     310591004891035200024CIG-LIGHTER DISPOSABLE 0000001000+00000437+00000+0001T   00000437+0000001519          1400 DL4315               1AZ
310592000310592               310592               170213JP     1400+00000+JP0000003191+0000003191+000000000+000000447+0000003630+0000000008+I20000000000+0000003630+Z
310592001310592018-000127     310592006001023380289MUG OCC STRAIGHT LOVE  0000001000+00001578+00000+0001T   00001753+0006471520          1400 DL4515               1AZ
310592002310592080-000124     310592006003000297733CARD & ENV VALENTINES  0000001000+00001578+00000+0001T   00001578+0000001520          1400 DL4112               1AZ
310592003310592112-116038     310592006009681820246TCS CARRIER BAG MIDI   0000001000+00000035+00000+0001T   00000035+0000001520          1400 DL4090               1AZ
310593000310593               310593               170213JP     1400+00000+JP0000002630+0000002630+000000000+000000369+0000002990+0000000009+I20000000000+0000002990+Z
310593001310593486-000001     310593006001023507969ALARM-CLOCK SQ ASS     0000001000+00002630+00000+0001T   00002630+0000001521          1400 DL4510               1AZ
310594000310594               310594               170213JP     1400+00000+JP0000001753+0000001753+000000000+000000246+0000001990+0000000009+I20000000000+0000001990+Z
310594001310594301-085002     310594006003000420704ORN OCC. LOVE BELL ASST0000001000+00001753+00000+0001T   00002630+0008121530          1400 DL4505               1AZ
310595000310595               310595               170213JP     1400+00000+JP0000039597+0000039597+000000000+000005547+0000045140+0000000004+I20000000000+0000045140+Z
310595001310595112-116069     310595006009681820277TCS CARRIER BAG JUMBO  0000001000+00000048+00000+0001T   00000048+0000001533          1400 DL4090               1AZ
310595002310595077-000270     310595006003000395453GIFT-BAG PPR JMB 33X45 0000001000+00002630+00000+0001T   00002630+0000001533          1400 DL4112               1AZ
310595003310595077-000299     310595006003000395576G/BAG 32x25cm LRG LOVE 0000001000+00001490+00000+0001T   00001490+0000001533          1400 DL4112               1AZ
310595004310595077-000452     310595006003000284986G/BAG METALLIC MED EMB 0000002000+00001490+00000+0001T   00001490+0000001533          1400 DL4112               1AZ
310595005310595018-000136     310595006001023659026MUG OCC LOVE W/PLUSH   0000001000+00003507+00000+0001T   00003507+0000001533          1400 DL4515               1AZ
310595006310595018-030000     310595006003000421060MUG OCCASIONS LOVE 2PCE0000001000+00004385+00000+0001T   00004385+0000001533          1400 DL4515               1AZ
310595007310595071-001363     310595006003000196968HIGHLIGHTER 8PACK      0000001000+00005262+00000+0001T   00005262+0000001533          1400 DL4130               1AZ
310595008310595030-000031     310595006001023721662P/GLASS DAD W/BADGE ASS0000001000+00005262+00000+0001T   00005262+0000001533          1400 DL4505               1AZ
310595009310595018-019000     310595006003000557288MUG OCC. LOVE JUMBO    0000001000+00005262+00000+0001T   00005262+0000001533          1400 DL4515               1AZ
310595010310595368-000614     310595006001023705808PLUSH LOVE 30cm        0000001000+00008771+00000+0001T   00008771+0000001533          1400 DL4745               1AZ
310596000310596               310596               170213JP     1400+00000+JP0000007060+0000007060+000000000+000000991+0000008050+0000000001+I20000000000+0000008050+Z
310596001310596007-000724     310596006003000225958NOTE MAGNETIC 60SHTS   0000001000+00001753+00000+0001T   00001753+0000001536          1400 DL4130               1AZ
310596002310596080-000133-A   310596006003000647019MINI VALENTINES CARD   0000001000+00000437+00000+0001T   00000437+0000001536          1400 DL4112               1AZ
310596003310596077-000299-A   310596006003000670888GIFT-BAG PAPER JMB LOVE0000001000+00001753+00000+0001T   00001753+0000001536          1400 DL4112               1AZ
310596004310596106-000899     310596006003000653287WTR BOTTLE 2L W/HANDLE 0000001000+00003069+00000+0001T   00003507+0008191536          1400 DL4210               1AZ
310596005310596112-116069     310596006009681820277TCS CARRIER BAG JUMBO  0000001000+00000048+00000+0001T   00000048+0000001536          1400 DL4090               1AZ
310597000310597               310597               170213JP     1400+00000+JP0000001839+0000001839+000000000+000000258+0000002090+0000000007+I20000000000+0000002090+Z
310597001310597903-000087     310597006001704000161SWT SPECKLED-EGGS 50G  0000001000+00001139+00000+0001T   00001139+0000001537          1400 DL4150               1AZ
310597002310597903-000120     310597006002099001665SWEET GS ZILLIONS 50g  0000001000+00000700+00000+0001T   00000700+0000001537          1400 DL4150               1AZ
310598000310598               310598               170213JP     1400+00000+JP0000002804+0000002804+000000000+000000394+0000003190+0000000008+I20000000000+0000003190+Z
310598001310598108-002020     310598006009654960245WINE GLS STYRENE 220ml 0000002000+00001402+00000+0001T   00001402+0000001538          1400 DL4210               1AZ
310599000310599               310599               170213JP     1400+00000+JP0000009031+0000009031+000000000+000001265+0000010296+0000000000+I40000010296+0000000000+Z
310599001310599200-000060     310599006001023625762STRAWS 18cm FLEX 200PCE0000001000+00002455+00000+0001T   00002455+0000001540          1400 DL4214               1AZ
310599002310599108-000999     310599006003000667185TUMBLER PL 8-PACK 200ML0000003000+00002192+00000+0001T   00002192+0000001540          1400 DL4210               1AZ
310600000310600               310600               170213JP     1400+00000+JP0000019252+0000019252+000000000+000002698+0000021950+0000000000+I40000021950+0000000000+Z
310600001310600112-116069     310600006009681820277TCS CARRIER BAG JUMBO  0000001000+00000048+00000+0001T   00000048+0000001544          1400 DL4090               1AZ
310600002310600562-088355-A   310600006001023873262EVA MAT NUMBERS 10PC   0000001000+00007016+00000+0001T   00007016+0000001544          1400 DL4755               1AZ
310600003310600031-086301-C   310600006001023910240P/FRAME PL BRONZE 20X250000001000+00007016+00000+0001T   00007016+0000001544          1400 DL4510               1AZ
310600004310600150-000770     310600006005387000128UTILITY BOX MEGA       0000001000+00003244+00000+0001T   00003244+0000001544          1400 DL4810               1AZ
310600005310600150-000774     310600006005387116003UTILITY-BOX MEDIUM     0000002000+00000964+00000+0001T   00000964+0000001544          1400 DL4810               1AZ
310601000310601               310601               170213JP     1400+00000+JP0000022852+0000022852+000000000+000003201+0000026050+0000000003+I20000000000+0000026050+Z
310601001310601031-080508     310601006001023802415P/FRAME PL 22X11CM LOVE0000001000+00004385+00000+0001T   00004385+0000001548          1400 DL4510               1AZ
310601002310601368-000637     310601006001023874092PLUSH BEAR SLEEPING LOV0000002000+00011402+00000+0001T   00012279+0006471548          1400 DL4745               1AZ
310601003310601112-116069     310601006009681820277TCS CARRIER BAG JUMBO  0000001000+00000048+00000+0001T   00000048+0000001548          1400 DL4090               1AZ
310601004310601031-080508     310601006001023802415P/FRAME PL 22X11CM LOVE0000001000-00004385+00000+0001T   00004385+0000001548          1400 DL45101IC            1 Z
310602000310602               310602               170213JP     1400+00000+JP0000011449+0000011449+000000000+000001604+0000013053+0000000000+I40000013053+0000000000+Z
310602001310602366-001101     310602006003000006991DRESS UP BOYS ASSTD    0000001000+00006139+00000+0001T   00006139+0000001559          1400 DL4131               1AZ
310602002310602366-001100     310602006003000031443DRESS UP HAT PIRATE    0000001000+00005262+00000+0001T   00005262+0000001559          1400 DL4131               1AZ
310602003310602112-116069     310602006009681820277TCS CARRIER BAG JUMBO  0000001000+00000048+00000+0001T   00000048+0000001559          1400 DL4090               1AZ
310603000310603               310603               170213JP     1400+00000+JP0000013369+0000013369+000000000+000001877+0000015246+0000000000+I40000015246+0000000000+Z
310603001310603366-007601     310603006003000655472DRESS UP MASK THEATRICA0000003000+00000876+00000+0001T   00000876+0000001615          1400 DL4131               1AZ
310603002310603903-000090     310603006009826020821SWT GS CHOCO COINS 60g 0000002000+00002104+00000+0001T   00002104+0000001615          1400 DL4150               1AZ
310603003310603079-000359     310603006003000639823FELT-TIP PENS THERAPY  0000001000+00002630+00000+0001T   00002630+0000001615          1400 DL4130               1AZ
310603004310603079-009702-D   310603008427973059354PAPER SIRIO A2 RED COL 0000002000+00001051+00000+0001T   00001051+0000001615          1400 DL4130               1AZ
310603005310603112-116069     310603006009681820277TCS CARRIER BAG JUMBO  0000001000+00000048+00000+0001T   00000048+0000001615          1400 DL4090               1AZ
310603006310603071-001102     310603006003000274598MARKER PERM MED 2PCE   0000001000+00001753+00000+0001T   00001753+0000001615          1400 DL4130               1AZ
310604000310604               310604               170213JP     1400+00000+JP0000037223+0000037223+000000000+000005216+0000042439+0000000000+I40000042439+0000000000+Z
310604001310604112-116069     310604006009681820277TCS CARRIER BAG JUMBO  0000001000+00000048+00000+0001T   00000048+0000001622          1400 DL4090               1AZ
310604002310604016-006502     310604006003000618545S/JAR GLS HERMETICO    0000002000+00006139+00000+0001T   00006139+0000001622          1400 DL4300               1AZ
310604003310604368-000152     310604006003000166886PLUSH BEAR 15cm        0000004000+00003946+00000+0001T   00005262+0008141622          1400 DL4745               1AZ
310604004310604566-000317     310604006003000524204STICKER TAPE 2PCS      0000001000+00003507+00000+0001T   00003507+0000001622          1400 DL4130               1AZ
310604005310604079-013099     310604006003000081875ART+CRAFT EYES ASSTD   0000001000+00001753+00000+0001T   00001753+0000001622          1400 DL4130               1AZ
310604006310604007-000723     310604006003000226078MEMO BOOK W/PEN 100SHTS0000001000+00001753+00000+0001T   00001753+0000001622          1400 DL4130               1AZ
310604007310604007-000537     310604000651728791017NOTE-PAD RND SMILE-FACE0000001000+00000700+00000+0001T   00000700+0000001622          1400 DL4130               1AZ
310604008310604903-000071     310604006001704001120SWT TOFFEE LIQURICE 35g0000002000+00000700+00000+0001T   00000700+0000001622          1400 DL4150               1AZ
310605000310605               310605               170213JP     1400+00000+JP0000007833+0000007833+000000000+000001099+0000008932+0000000000+I40000008932+0000000000+Z
310605001310605112-116038     310605006009681820246TCS CARRIER BAG MIDI   0000001000+00000035+00000+0001T   00000035+0000001624          1400 DL4090               1AZ
310605002310605007-000192     310605006009635830062BOOK H/COVER A4 192PAGE0000001000+00001753+00000+0001T   00001753+0000001624          1400 DL4130               1AZ
310605003310605071-001346     310605006001023912985HIGHLIGHTERS 4PCE CARD 0000001000+00002192+00000+0001T   00002192+0000001624          1400 DL4130               1AZ
310605004310605077-000383     310605006003000247943GIFT-BAG 11X14CM S/COL 0000001000+00000788+00000+0001T   00000788+0000001624          1400 DL4112               1AZ
310605005310605077-000311     310605006001023608666GIFT-BAG 11X14CM GLOSS 0000002000+00000613+00000+0001T   00000613+0000001624          1400 DL4112               1AZ
310605006310605007-000555     310605006001023848239MEMO-PAD MINI LOVE     0000003000+00000613+00000+0001T   00000613+0000001624          1400 DL4130               1AZ
310606000310606               310606               170213JP     1400+00000+JP0000000437+0000000437+000000000+000000062+0000000490+0000000009+I20000000000+0000000490+Z
310606001310606080-000133-A   310606006003000647019MINI VALENTINES CARD   0000001000+00000437+00000+0001T   00000437+0000001625          1400 DL4112               1AZ
310607000310607               310607               170213JP     1400+00000+JP0000005262+0000005262+000000000+000000737+0000005990+0000000009+I20000000000+0000005990+Z
310607001310607018-019000     310607006003000557288MUG OCC. LOVE JUMBO    0000001000+00005262+00000+0001T   00005262+0000001634          1400 DL4515               1AZ
310608000310608               310608               170213JP     1400+00000+JP0000007016+0000007016+000000000+000000983+0000007999+0000000000+I40000007999+0000000000+Z
310608001310608366-002006     310608006001023902696DRESS UP WIGS PARTY ASS0000001000+00007016+00000+0001T   00007016+0000001636          1400 DL4131               1AZ
310609000310609               310609               170213JP     1400+00000+JP0000000876+0000000876+000000000+000000123+0000000990+0000000009+I20000000000+0000000990+Z
310609001310609903-000494     310609006001704009911SWT GUMMY TEENY TEDDIES0000001000+00000876+00000+0001T   00000876+0000001636          1400 DL4150               1AZ
310610000310610               310610               170213JP     1400+00000+JP0000007893+0000007893+000000000+000001106+0000008999+0000000000+I40000008999+0000000000+Z
310610001310610366-000901     310610006003000563807DRESS UP WINGS B/FLY   0000001000+00007893+00000+0001T   00007893+0000001645          1400 DL4131               1AZ
310611000310611               310611               170213JP     1400+00000+JP0000022323+0000022323+000000000+000003127+0000025450+0000000000+I40000025450+0000000000+Z
310611001310611112-116069     310611006009681820277TCS CARRIER BAG JUMBO  0000001000+00000048+00000+0001T   00000048+0000001647          1400 DL4090               1AZ
310611002310611466-009004     310611006001023189288BEACH-BAT-SET W/BALL   0000002000+00005262+00000+0001T   00005262+0000001647          1400 DL4785               1AZ
310611003310611496-059421     310611000078257594214POOL 122cm STARFISH    0000001000+00008771+00000+0001T   00008771+0000001647          1400 DL4787               1AZ
310611004310611493-059010     310611000078257590100BEACH-BALL COLOR-PANELS0000002000+00001490+00000+0001T   00001490+0000001647          1400 DL4787               1AZ
310612000310612               310612               170213JP     1400+00000+JP0000001313+0000001313+000000000+000000185+0000001498+0000000000+I40000001498+0000000000+Z
310612001310612002-021040     310612006001023812216PARTY-PICKS 100PCE     0000001000+00000525+00000+0001T   00000525+0000001653          1400 DL4300               1AZ
310612002310612077-000010-C   310612006001023123879CREPE-PAPER RED        0000001000+00000788+00000+0001T   00000788+0000001653          1400 DL4112               1AZ
310613000310613               310613               170213JP     1400+00000+JP0000013194+0000013194+000000000+000001853+0000015040+0000000007+I20000000000+0000015040+Z
310613001310613565-000882     310613006001023801050SUNGLASSES KID COOL-SHD0000005000+00000437+00000+0001T   00000437+0000001655          1400 DL4745               1AZ
310613002310613565-000045     310613006003000295890NOVELTY HEADS 8PCE     0000001000+00002630+00000+0001T   00002630+0000001655          1400 DL4745               1AZ
310613003310613077-000509     310613006003000082582GIFT-BAG SML 6PCE ORG P0000001000+00002192+00000+0001T   00002192+0000001655          1400 DL4112               1AZ
310613004310613304-001124     310613006003000534289FLOWER BUNCH ROSE/MUM  0000001000+00006139+00000+0001T   00006139+0000001655          1400 DL4510               1AZ
310613005310613112-116069     310613006009681820277TCS CARRIER BAG JUMBO  0000001000+00000048+00000+0001T   00000048+0000001655          1400 DL4090               1AZ
310614000310614               310614               170213JP     1400+00000+JP0000000876+0000000876+000000000+000000123+0000000999+0000000000+I40000000999+0000000000+Z
310614001310614071-003004     310614006003000662821PEN BALL POINT 3PC BLUE0000001000+00000876+00000+0001T   00000876+0000001656          1400 DL4130               1AZ
310615000310615               310615               170213JP     1400+00000+JP0000008765+0000008765+000000000+000001230+0000009995+0000000000+I40000009995+0000000000+Z
310615001310615903-000619     310615006003000672455SWT LOLLY STR/BRRY 140G0000002000+00001753+00000+0001T   00001753+0000001701          1400 DL4150               1AZ
310615002310615077-000011-C   310615006001023808523TISSUE 10xSHTS RED     0000001000+00000876+00000+0001T   00000876+0000001701          1400 DL4112               1AZ
310615003310615080-000113     310615006003000237449CARD&ENVLPE - LOVE     0000001000+00001753+00000+0001T   00001753+0000001701          1400 DL4112               1AZ
310615004310615077-000270     310615006003000395453GIFT-BAG PPR JMB 33X45 0000001000+00002630+00000+0001T   00002630+0000001701          1400 DL4112               1AZ
310616000310616               310616               170213JP     1400+00000+JP0000006139+0000006139+000000000+000000860+0000006999+0000000000+I40000006999+0000000000+Z
310616001310616368-000265     310616006001023750914PLUSH BEAR 23CM ASSTD C0000001000+00006139+00000+0001T   00006139+0000001702          1400 DL4745               1AZ
310617000310617               310617               170213JP     1400+00000+JP0000022789+0000022789+000000000+000003198+0000025987+0000000000+I40000025987+0000000000+Z
310617001310617077-000011-Y   310617006001023809858TISSUE-WRAP GOLD 10PCE 0000002000+00001753+00000+0001T   00001753+0000001711          1400 DL4112               1AZ
310617002310617077-000290     310617006001023902023GIFT BOX 26x32x13cm    0000011000+00001753+00000+0001T   00001753+0000001711          1400 DL4112               1AZ
310618000310618               310618               170213JP     1400+00000+JP0000001753+0000001753+000000000+000000246+0000001999+0000000000+I40000001999+0000000000+Z
310618001310618306-000006     310618006001023776440DENTAL FLOSS PICKS 50PC0000001000+00001753+00000+0001T   00001753+0000001712          1400 DL4200               1AZ
310619000310619               310619               170213JP     1400+00000+JP0000004385+0000004385+000000000+000000614+0000004999+0000000000+I40000004999+0000000000+Z
310619001310619304-001117     310619006001023786630FLOWER CROSS 50CM      0000001000+00004385+00000+0001T   00004385+0000001713          1400 DL4510               1AZ
310620000310620               310620               170213JP     1400+00000+JP0000005783+0000005783+000000000+000000811+0000006594+0000000000+I40000006594+0000000000+Z
310620001310620903-000520     310620006001704009898SWT GUMMY MINI SOUR 60g0000001000+00000876+00000+0001T   00000876+0000001726          1400 DL4150               1AZ
310620002310620903-000844     310620005010478432567SWT CANDY DL LUV HEARTS0000001000+00001314+00000+0001T   00001314+0000001726          1400 DL4150               1AZ
310620003310620903-000698     310620006002099007032SWT CANDY ECLAIRS 90g  0000001000+00001139+00000+0001T   00001139+0000001726          1400 DL4150               1AZ
310620004310620903-000517     310620006001704012768SWT STRAWS FIZZY CHERRY0000001000+00001227+00000+0001T   00001227+0000001726          1400 DL4150               1AZ
310620005310620903-000518     310620006001704012782SWT STRAWS S/BERRY 100g0000001000+00001227+00000+0001T   00001227+0000001726          1400 DL4150               1AZ
310621000310621               310621               170213JP     1400+00000+JP0000017799+0000017799+000000000+000002495+0000020294+0000000000+I40000020294+0000000000+Z
310621001310621903-000151     310621006009803374411SWT SML RND R/BOW LOLLY0000003000+00000525+00000+0001T   00000525+0000001733          1400 DL4150               1AZ
310621002310621080-000127     310621006003000424351VALENTINES DAY 36x24CM 0000001000+00002192+00000+0001T   00002192+0000001733          1400 DL4112               1AZ
310621003310621077-000299-A   310621006003000670888GIFT-BAG PAPER JMB LOVE0000001000+00001753+00000+0001T   00001753+0000001733          1400 DL4112               1AZ
310621004310621368-000111     310621006001023780812PLUSH BEAR/DOG 29CM    0000001000+00012279+00000+0001T   00012279+0000001733          1400 DL4745               1AZ
310622000310622               310622               170213JP     1400+00000+JP0000015390+0000015390+000000000+000002157+0000017540+0000000007+I20000000000+0000017540+Z
310622001310622033-010721     310622006001023678669SAFETY-PINS 20PCE ASSTD0000001000+00000700+00000+0001T   00000700+0000001748          1400 DL4200               1AZ
310622002310622266-003012     310622006001023786128BOYS P/SET ARCHERY 4pc 0000001000+00002630+00000+0001T   00002630+0000001748          1400 DL4710               1AZ
310622003310622366-002195     310622006001023990549DRESS UP WINGS FEATHER 0000001000+00005262+00000+0001T   00005262+0000001748          1400 DL4131               1AZ
310622004310622079-014152     310622006003000253074ART+CRAFT PK50 ASSTD   0000001000+00003069+00000+0001T   00003069+0000001748          1400 DL4130               1AZ
310622005310622112-116069     310622006009681820277TCS CARRIER BAG JUMBO  0000001000+00000048+00000+0001T   00000048+0000001748          1400 DL4090               1AZ
310622006310622903-000518     310622006001704012782SWT STRAWS S/BERRY 100g0000002000+00001227+00000+0001T   00001227+0000001748          1400 DL4150               1AZ
310622007310622903-000517     310622006001704012768SWT STRAWS FIZZY CHERRY0000001000+00001227+00000+0001T   00001227+0000001748          1400 DL4150               1AZ
310623000310623               310623               170213JP     1400+00000+JP0000013628+0000013628+000000000+000001909+0000015537+0000000000+I40000015537+0000000000+Z
310623001310623077-000235     310623006003000160211GIFT-RIBBON ROLL METALC0000001000+00002630+00000+0001T   00002630+0000001752          1400 DL4112               1AZ
310623002310623006-000090     310623006001023538505BANNER HAPPY-BIRTHDAY  0000001000+00002192+00000+0001T   00002192+0000001752          1400 DL4131               1AZ
310623003310623006-000165     310623006001023758392BALLOONS LRG BAG-OF-1000000001000+00008771+00000+0001T   00008771+0000001752          1400 DL4131               1AZ
310623004310623112-116038     310623006009681820246TCS CARRIER BAG MIDI   0000001000+00000035+00000+0001T   00000035+0000001752          1400 DL4090               1AZ
310624000310624               310624               170213JP     1400+00000+JP0000002630+0000002630+000000000+000000369+0000002990+0000000009+I20000000000+0000002990+Z
310624001310624077-000349-B   310624006001023908315G/RIBBON 3ROLLS 12BOWS 0000001000+00002630+00000+0001T   00002630+0000001753          1400 DL4112               1AZ
310625000310625               310625               170213JP     1400+00000+JP0000001753+0000001753+000000000+000000246+0000001990+0000000009+I20000000000+0000001990+Z
310625001310625565-000017     310625006003000672516NOVELTY TONGUE SLING   0000001000+00001753+00000+0001T   00001753+0000001757          1400 DL4745               1AZ
M17021301                              IT DPT      JPATT:GLADWYN FROM JP                             LAST TILL SLIP NO FOR SLAVE  1                  310625
M17021391                              CASH        JPSLAVE 1                       Z-REPORT No.   590TOTAL (Sales - Refunds)           7856.30       CASH TO BE BANKED                 2699.30       DEBIT CARDS                          0.00       CREDIT CARDS                      5157.00       Z-READING                         7856.30       AIRTIME DEBIT CARD SALES             0.00       AIRTIME CARD SALES                   0.00       OVERS/UNDERS                         0.00       AIRTIME CASH SALES                   0.00       GIFT CARDS                           0.00       GIFT CARD CASH SALES                 0.00       T O T A L  CASH PAYOUTS              0.00                                                                                                                                                                                                                                                                                                                                                      Z
M17021392                              CASH        JPABSENT                                                                                                                                                                                          ANNUAL LEAVE                                                                                                                                                                                    DAY OFF                                                                                                                                                                                         COMMENTS                                                                                                                                                                                                                                                                                                                                                                                       Z
Y17021300                                          JP00000000693673+000077
ZJP17021319543 SLAVE 1      SALES DATA                     NEXT INVOICE NO.  310626 0590
X JP Slave 1 First invoice 310549 170213 Last invoice 310625 170213 Next invoice 310626 Total number of records 000000315 clbackup completed 19:54:44
