321932000321932               321932               170213JP     1400+00000+JP0000002190+0000002190+000000000+000000307+0000002497+0000000000+I40000002497+0000000000+Z
321932001321932033-005905-B   321932006001023727787S/LACES FLAT 90cm ASSTD0000001000+00000876+00000+0001T   00000876+0000000914          1400 SP5200               2AZ
321932002321932033-005906-B   321932006001023727848S/LACES RND 90cm ASSTD 0000001000+00001314+00000+0001T   00001314+0000000914          1400 SP5200               2AZ
321933000321933               321933               170213JP     1400+00000+JP0000001753+0000001753+000000000+000000246+0000001990+0000000009+I20000000000+0000001990+Z
321933001321933200-003024     321933006001023657299REFUSE BAGS 20PCE BLACK0000001000+00001753+00000+0001T   00001753+0000000915          1400 SP5214               2AZ
321934000321934               321934               170213JP     1400+00000+JP0000056359+0000056359+000000000+000007893+0000064252+0000000000+I40000064252+0000000000+Z
321934001321934496-056483     321934000078257564835POOL F/CENTER 262x175cm0000001000+00041753+00000+0001T   00041753+0000000918          1400 SP5787               2AZ
321934002321934112-116069     321934006009681820277TCS CARRIER BAG JUMBO  0000001000+00000048+00000+0001T   00000048+0000000918          1400 SP5090               2AZ
321934003321934047-000513-H   321934006001023427496EXT-CORD 5M JANUS 10A  0000001000+00007893+00000+0001T   00007893+0000000918          1400 SP5880               2AZ
321934004321934047-000006-H   321934006001023704054M/PLUG 3x16A+3x5A+CARD 0000001000+00006665+00000+0001T   00006665+0000000918          1400 SP5880               2AZ
321935000321935               321935               170213JP     1400+00000+JP0000002630+0000002630+000000000+000000369+0000002990+0000000009+I20000000000+0000002990+Z
321935001321935567-075699     321935006003000641277BK NOVEL CATEGORY A    0000001000+00002630+00000+0001T   00003069+0008190929          1400 SP5757               2AZ
321936000321936               321936               170213JP     1400+00000+JP0000009428+0000009428+000000000+000001322+0000010750+0000000000+I40000010750+0000000000+Z
321936001321936079-000275     321936006003000160488PAINT-BRUSHES 6PCE PRO 0000001000+00001753+00000+0001T   00001753+0000000955          1400 SP5130               2AZ
321936002321936079-006494     321936006003000159864GLITTER GLUE 5PCE 11cm 0000001000+00001490+00000+0001T   00001490+0000000955          1400 SP5130               2AZ
321936003321936079-000286     321936006001023797032FINGER-PAINT 4PCE      0000001000+00003507+00000+0001T   00003507+0000000955          1400 SP5130               2AZ
321936004321936079-000260     321936006001023886385PAINT TUBS WT BASE 4COL0000001000+00002630+00000+0001T   00002630+0000000955          1400 SP5130               2AZ
321936005321936112-116069     321936006009681820277TCS CARRIER BAG JUMBO  0000001000+00000048+00000+0001T   00000048+0000000955          1400 SP5090               2AZ
321937000321937               321937               170213JP     1400+00000+JP0000020742+0000020742+000000000+000002905+0000023647+0000000000+I40000023647+0000000000+Z
321937001321937031-080508     321937006001023802415P/FRAME PL 22X11CM LOVE0000001000+00004385+00000+0001T   00004385+0000001000          1400 SP5510               2AZ
321937002321937112-116069     321937006009681820277TCS CARRIER BAG JUMBO  0000001000+00000048+00000+0001T   00000048+0000001000          1400 SP5090               2AZ
321937003321937077-000299     321937006003000395576G/BAG 32x25cm LRG LOVE 0000001000+00001490+00000+0001T   00001490+0000001000          1400 SP5112               2AZ
321937004321937077-000319     321937006001023609779GIFT-BAG 18X23CM BIRTHD0000001000+00001227+00000+0001T   00001227+0000001000          1400 SP5112               2AZ
321937005321937368-000614     321937006001023705808PLUSH LOVE 30cm        0000001000+00008771+00000+0001T   00008771+0000001000          1400 SP5745               2AZ
321937006321937018-000136     321937006001023659026MUG OCC LOVE W/PLUSH   0000001000+00003507+00000+0001T   00003507+0000001000          1400 SP5515               2AZ
321937007321937903-000844     321937005010478432567SWT CANDY DL LUV HEARTS0000001000+00001314+00000+0001T   00001314+0000001000          1400 SP5150               2AZ
321938000321938               321938               170213JP     1400+00000+JP0000007452+0000007452+000000000+000001045+0000008497+0000000000+I40000008497+0000000000+Z
321938001321938071-001017     321938006001023892676MARKER DVD FINE+MED 3PC0000001000+00002192+00000+0001T   00002192+0000001001          1400 SP5130               2AZ
321938002321938566-000367     321938006003000645558STICKER WINDOW DECOR   0000002000+00002630+00000+0001T   00002630+0000001001          1400 SP5130               2AZ
321939000321939               321939               170213JP     1400+00000+JP0000056894+0000056894+000000000+000007973+0000064867+0000000000+I40000064867+0000000000+Z
321939001321939079-130010     321939006003000496624ART+CRAFT FOAM DOLLS   0000002000+00004385+00000+0001T   00004385+0000001005          1400 SP5130               2AZ
321939002321939071-004202     321939006001023417176SCISSORS-SCHOOL PL/MTL 0000002000+00001139+00000+0001T   00001139+0000001005          1400 SP5130               2AZ
321939003321939079-014152     321939006003000253074ART+CRAFT PK50 ASSTD   0000002000+00003069+00000+0001T   00003069+0000001005          1400 SP5130               2AZ
321939004321939079-000017     321939006003000098347ART+CRAFT COLOUR ME    0000002000+00003507+00000+0001T   00003507+0000001005          1400 SP5130               2AZ
321939005321939079-000334     321939006003000670437THERAPY P/CRAYONS 18   0000001000+00005262+00000+0001T   00005262+0000001005          1400 SP5130               2AZ
321939006321939071-001002     321939006003000217540PENCIL-SHARPNER DOUBLE 0000001000+00001578+00000+0001T   00001578+0000001005          1400 SP5130               2AZ
321939007321939586-010755     321939006001492107554WATCH LDS HOT DEAL ASST0000001000+00008771+00000+0001T   00008771+0000001005          1400 SP5160               2AZ
321939008321939079-006522     321939006001023149442ART+CRAFT GLUE ASSORTED0000001000+00001753+00000+0001T   00001753+0000001005          1400 SP5130               2AZ
321939009321939079-000359     321939006003000639823FELT-TIP PENS THERAPY  0000001000+00002630+00000+0001T   00002630+0000001005          1400 SP5130               2AZ
321939010321939079-013101     321939006001023863706CRAFT SET DIY PIPE-CLNR0000001000+00002630+00000+0001T   00002630+0000001005          1400 SP5130               2AZ
321939011321939079-000514     321939009556341898321CRAYONS WAX 24-COLOUR  0000001000+00002630+00000+0001T   00002630+0000001005          1400 SP5130               2AZ
321939012321939108-001030     321939006006862000923TUMBLERS PASTEL SET-6  0000002000+00001578+00000+0001T   00001578+0000001005          1400 SP5210               2AZ
321939013321939079-009700-M   321939006003000634101PAPER SIRIO A4 PINK COL0000014000+00000306+00000+0001T   00000306+0000001005          1400 SP5130               2AZ
321940000321940               321940               170213JP     1400+00000+JP0000021961+0000021961+000000000+000003078+0000025039+0000000000+I40000025039+0000000000+Z
321940001321940112-116069     321940006009681820277TCS CARRIER BAG JUMBO  0000001000+00000048+00000+0001T   00000048+0000001007          1400 SP5090               2AZ
321940002321940200-000106     321940006003000510290PICNIC CUPS PAPER 250ml0000003000+00003507+00000+0001T   00003507+0000001007          1400 SP5214               2AZ
321940003321940077-000011-C   321940006001023808523TISSUE 10xSHTS RED     0000003000+00000876+00000+0001T   00000876+0000001007          1400 SP5112               2AZ
321940004321940079-000359     321940006003000639823FELT-TIP PENS THERAPY  0000001000+00002630+00000+0001T   00002630+0000001007          1400 SP5130               2AZ
321940005321940903-000844     321940005010478432567SWT CANDY DL LUV HEARTS0000002000+00001314+00000+0001T   00001314+0000001007          1400 SP5150               2AZ
321940006321940077-000239     321940006003000160419GIFT-RIBBON ROLL PEARL 0000002000+00001753+00000+0001T   00001753+0000001007          1400 SP5112               2AZ
321941000321941               321941               170213JP     1400+00000+JP0000017934+0000017934+000000000+000002514+0000020448+0000000000+I40000020448+0000000000+Z
321941001321941112-116069     321941006009681820277TCS CARRIER BAG JUMBO  0000001000+00000048+00000+0001T   00000048+0000001010          1400 SP5090               2AZ
321941002321941071-009836     321941006001023591067BACK-TO-SCHOOL SET     0000001000+00001490+00000+0001T   00001490+0000001010          1400 SP5130               2AZ
321941003321941079-000512     321941006001023635853CRAYONS WAX 12-COLOUR  0000001000+00001490+00000+0001T   00001490+0000001010          1400 SP5130               2AZ
321941004321941079-000341     321941006920705495519FELT-TIP PENS 12PCE    0000001000+00001753+00000+0001T   00001753+0000001010          1400 SP5130               2AZ
321941005321941079-000573     321941006003000670024OIL PASTELS JUMBO 12PCE0000001000+00002630+00000+0001T   00002630+0000001010          1400 SP5130               2AZ
321941006321941079-000013     321941006001023463890P/CRAYONS 24COL 18cm   0000001000+00003507+00000+0001T   00003507+0000001010          1400 SP5130               2AZ
321941007321941567-011908     321941006003000676361BK PROMO CLEARANCE ASST0000001000+00007016+00000+0001T   00007016+0000001010          1400 SP5757               2AZ
321942000321942               321942               170213JP     1400+00000+JP0000012689+0000012689+000000000+000001785+0000014470+0000000004+I20000000000+0000014470+Z
321942001321942006-001000     321942006003000093779HELIUM BALLOON FILL    0000002000+00000613+00000+0001T   00000613+0000001028          1400 SP5131               2AZ
321942002321942903-000200     321942006009826020234SWT CHOC RP CHOCO 23G  0000002000+00000788+00000+0001T   00000788+0000001028          1400 SP5150               2AZ
321942003321942903-000843     321942008693029031067SWT GUMMY JELAXY 80G   0000001000+00000964+00000+0001T   00000964+0000001028          1400 SP5150               2AZ
321942004321942006-000172-H   321942006003000610211BALLOONS METALLIC RED  0000005000+00000218+00000+0001T   00000218+0000001028          1400 SP5131               2AZ
321942005321942006-001000     321942006003000093779HELIUM BALLOON FILL    0000006000+00000613+00000+0001T   00000613+0000001028          1400 SP5131               2AZ
321942006321942006-000172-H   321942006003000610211BALLOONS METALLIC RED  0000005000+00000218+00000+0001T   00000218+0000001028          1400 SP5131               2AZ
321942007321942006-001000     321942006003000093779HELIUM BALLOON FILL    0000005000+00000613+00000+0001T   00000613+0000001028          1400 SP5131               2AZ
321943000321943               321943               170213JP     1400+00000+JP0000017590+0000017590+000000000+000002463+0000020053+0000000000+I40000020053+0000000000+Z
321943001321943403-000032     321943006003000514731J/HOLDER HEART-SHAPE   0000001000+00017542+00000+0001T   00017542+0000001043          1400 SP5510               2AZ
321943002321943112-116069     321943006009681820277TCS CARRIER BAG JUMBO  0000001000+00000048+00000+0001T   00000048+0000001043          1400 SP5090               2AZ
321944000321944               321944               170213JP     1400+00000+JP0000003156+0000003156+000000000+000000442+0000003598+0000000000+I40000003598+0000000000+Z
321944001321944018-000127     321944006001023380289MUG OCC STRAIGHT LOVE  0000001000+00001578+00000+0001T   00001753+0006471044          1400 SP5515               2AZ
321944002321944077-000303     321944006001023593757GIFT-BAG PAPER MED     0000001000+00001578+00000+0001T   00001578+0000001044          1400 SP5112               2AZ
321945000321945               321945               170213JP     1400+00000+JP0000001753+0000001753+000000000+000000246+0000001999+0000000000+I40000001999+0000000000+Z
321945001321945071-001102     321945006003000274598MARKER PERM MED 2PCE   0000001000+00001753+00000+0001T   00001753+0000001049          1400 SP5130               2AZ
321946000321946               321946               170213JP     1400+00000+JP0000009779+0000009779+000000000+000001370+0000011140+0000000009+I20000000000+0000011140+Z
321946001321946077-000934     321946006003000409921G/WRAP 700mmx5m BIRTHDA0000002000+00003507+00000+0001T   00003507+0000001101          1400 SP5112               2AZ
321946002321946071-005214     321946006003000152544CELLOTAPE SUPER REFILL 0000001000+00001490+00000+0001T   00001490+0000001101          1400 SP5130               2AZ
321946003321946077-000245     321946006001023759214GIFT-RIBBON METALLICx2 0000001000+00001227+00000+0001T   00001227+0000001101          1400 SP5112               2AZ
321946004321946112-116069     321946006009681820277TCS CARRIER BAG JUMBO  0000001000+00000048+00000+0001T   00000048+0000001101          1400 SP5090               2AZ
321947000321947               321947               170213JP     1400+00000+JP0000006358+0000006358+000000000+000000893+0000007251+0000000000+I40000007251+0000000000+Z
321947001321947251-000052     321947006001023627933PROTECT-PAD FELT 16PCE 0000001000+00001753+00000+0001T   00001753+0000001137          1400 SP5810               2AZ
321947002321947051-002401     321947006001023523570TRIGGER-SPRAYER   300ml0000001000+00001490+00000+0001T   00001490+0000001137          1400 SP5820               2AZ
321947003321947051-005576     321947006001023534026GARDEN-FORK 240mm      0000001000+00002630+00000+0001T   00002630+0000001137          1400 SP5820               2AZ
321947004321947112-116069     321947006009681820277TCS CARRIER BAG JUMBO  0000001000+00000048+00000+0001T   00000048+0000001137          1400 SP5090               2AZ
321947005321947083-000049     321947004891035200024CIG-LIGHTER DISPOSABLE 0000001000+00000437+00000+0001T   00000437+0000001137          1400 SP5315               2AZ
321948000321948               321948               170213JP     1400+00000+JP0000015522+0000015522+000000000+000002175+0000017697+0000000000+I40000017697+0000000000+Z
321948001321948368-000111     321948006001023780812PLUSH BEAR/DOG 29CM    0000001000+00012279+00000+0001T   00012279+0000001142          1400 SP5745               2AZ
321948002321948077-000299     321948006003000395576G/BAG 32x25cm LRG LOVE 0000001000+00001490+00000+0001T   00001490+0000001142          1400 SP5112               2AZ
321948003321948903-000619     321948006003000672455SWT LOLLY STR/BRRY 140G0000001000+00001753+00000+0001T   00001753+0000001142          1400 SP5150               2AZ
321949000321949               321949               170213JP     1400+00000+JP0000013816+0000013816+000000000+000001936+0000015752+0000000000+I40000015752+0000000000+Z
321949001321949264-015151     321949000090159151517MAISTO RACE LAUNCHER   0000001000+00007016+00000+0001T   00008771+0008131143          1400 SP5710               2AZ
321949002321949466-001801     321949006001023343482BALLS TABLE-TENNIS BOX60000001000+00001490+00000+0001T   00001490+0000001143          1400 SP5785               2AZ
321949003321949562-006274     321949006001023744432EDU SKETCH-BOARD       0000001000+00005262+00000+0001T   00005262+0000001143          1400 SP5755               2AZ
321949004321949112-116069     321949006009681820277TCS CARRIER BAG JUMBO  0000001000+00000048+00000+0001T   00000048+0000001143          1400 SP5090               2AZ
321950000321950               321950               170213JP     1400+00000+JP0000014161+0000014161+000000000+000001986+0000016147+0000000000+I40000016147+0000000000+Z
321950001321950903-000499     321950006001704012492SWT CHOC MALLOWS 50g   0000001000+00001227+00000+0001T   00001227+0000001157          1400 SP5150               2AZ
321950002321950903-000082     321950006001704014892SWT MINI WINE GUMS 100G0000001000+00001753+00000+0001T   00001753+0000001157          1400 SP5150               2AZ
321950003321950112-116069     321950006009681820277TCS CARRIER BAG JUMBO  0000001000+00000048+00000+0001T   00000048+0000001157          1400 SP5090               2AZ
321950004321950903-000087     321950006001704000161SWT SPECKLED-EGGS 50G  0000001000+00001139+00000+0001T   00001139+0000001157          1400 SP5150               2AZ
321950005321950304-001011     321950006001023806727FLWR ROSE RED W/BEAR   0000002000+00000613+00000+0001T   00000788+0006471157          1400 SP5510               2AZ
321950006321950903-000221     321950006001704007382SWT EENY-MEENY-MOS 60G 0000001000+00000876+00000+0001T   00000876+0000001157          1400 SP5150               2AZ
321950007321950006-000203-A   321950006003453010965SNACK BOX 6PCE ASSTD   0000001000+00002630+00000+0001T   00002630+0000001157          1400 SP5131               2AZ
321950008321950018-019000     321950006003000557288MUG OCC. LOVE JUMBO    0000001000+00005262+00000+0001T   00005262+0000001157          1400 SP5515               2AZ
321951000321951               321951               170213JP     1400+00000+JP0000000048+0000000048+000000000+000000007+0000000050+0000000005+I20000000000+0000000050+Z
321951001321951112-116069     321951006009681820277TCS CARRIER BAG JUMBO  0000001000+00000048+00000+0001T   00000048+0000001208          1400 SP5090               2AZ
321952000321952               321952               170213JP     1400+00000+JP0000000876+0000000876+000000000+000000123+0000000990+0000000009+I20000000000+0000000990+Z
321952001321952001-000390     321952006001023679741TUMBLER GLS 2400ml WHIS0000001000+00000876+00000+0001T   00000876+0000001213          1400 SP5515               2AZ
321953000321953               321953               170213JP     1400+00000+JP0000015478+0000015478+000000000+000002169+0000017647+0000000000+I40000017647+0000000000+Z
321953001321953079-013032-D   321953006003000389643RIBBONS                0000001000+00002630+00000+0001T   00002630+0000001221          1400 SP5130               2AZ
321953002321953002-021040     321953006001023812216PARTY-PICKS 100PCE     0000001000+00000525+00000+0001T   00000525+0000001221          1400 SP5300               2AZ
321953003321953566-000359     321953006003000582709STICKER BOOK LOVE SPARK0000001000+00002192+00000+0001T   00002192+0000001221          1400 SP5130               2AZ
321953004321953018-000170     321953006001023775528MUG OCC. LOVE 2PC MINI 0000003000+00002192+00000+0001T   00002192+0000001221          1400 SP5515               2AZ
321953005321953007-000324     32195300600968585864125 SHEETS BRIGHTS MARLI0000001000+00003507+00000+0001T   00003507+0000001221          1400 SP5130               2AZ
321953006321953112-116069     321953006009681820277TCS CARRIER BAG JUMBO  0000001000+00000048+00000+0001T   00000048+0000001221          1400 SP5090               2AZ
321954000321954               321954               170213JP     1400+00000+JP0000002628+0000002628+000000000+000000368+0000002990+0000000006+I20000000000+0000002990+Z
321954001321954105-001019     321954006002638007585LUNCH BOX 1LT          0000002000+00001314+00000+0001T   00001314+0000001221          1400 SP5210               2AZ
321955000321955               321955               170213JP     1400+00000+JP0000002190+0000002190+000000000+000000308+0000002490+0000000008+I20000000000+0000002490+Z
321955001321955077-000309     321955006001023608604GIFT-BAG 25X32CM GLOSS 0000001000+00001753+00000+0001T   00001753+0000001316          1400 SP5112               2AZ
321955002321955083-000049     321955004891035200024CIG-LIGHTER DISPOSABLE 0000001000+00000437+00000+0001T   00000437+0000001316          1400 SP5315               2AZ
321956000321956               321956               170213JP     1400+00000+JP0000003507+0000003507+000000000+000000491+0000003990+0000000008+I20000000000+0000003990+Z
321956001321956018-000136     321956006001023659026MUG OCC LOVE W/PLUSH   0000001000+00003507+00000+0001T   00003507+0000001320          1400 SP5515               2AZ
321957000321957               321957               170213JP     1400+00000+JP0000004769+0000004769+000000000+000000669+0000005438+0000000000+I40000005438+0000000000+Z
321957001321957562-000504     321957006001023619327EDU CUBE RUBIX         0000001000+00002630+00000+0001T   00002630+0000001322          1400 SP5755               2AZ
321957002321957903-000095     321957006001704011495SWT SPECKLED-EGGS 100G 0000001000+00002104+00000+0001T   00002104+0000001322          1400 SP5150               2AZ
321957003321957112-116038     321957006009681820246TCS CARRIER BAG MIDI   0000001000+00000035+00000+0001T   00000035+0000001322          1400 SP5090               2AZ
321958000321958               321958               170213JP     1400+00000+JP0000001490+0000001490+000000000+000000209+0000001690+0000000009+I20000000000+0000001690+Z
321958001321958077-000299     321958006003000395576G/BAG 32x25cm LRG LOVE 0000001000+00001490+00000+0001T   00001490+0000001330          1400 SP5112               2AZ
321959000321959               321959               170213JP     1400+00000+JP0000001753+0000001753+000000000+000000246+0000001990+0000000009+I20000000000+0000001990+Z
321959001321959078-000030     321959006003000151141YAMAYO SUPERGLUE 8g    0000001000+00001753+00000+0001T   00001753+0000001343          1400 SP5810               2AZ
321960000321960               321960               170213JP     1400+00000+JP0000007134+0000007134+000000000+000000999+0000008133+0000000000+I40000008133+0000000000+Z
321960001321960903-000808     321960006009680772300SWT CHEWEEZ STRAWBERRY 0000001000+00000700+00000+0001T   00000700+0000001346          1400 SP5150               2AZ
321960002321960018-000170     321960006001023775528MUG OCC. LOVE 2PC MINI 0000001000+00002192+00000+0001T   00002192+0000001346          1400 SP5515               2AZ
321960003321960362-002467     321960006003000167623HAIR EXT LONG 61cm     0000001000+00003507+00000+0001T   00003507+0000001346          1400 SP5160               2AZ
321960004321960903-000807     321960006009680772317SWT CHEWEEZ APPLE 36g  0000001000+00000700+00000+0001T   00000700+0000001346          1400 SP5150               2AZ
321960005321960112-116038     321960006009681820246TCS CARRIER BAG MIDI   0000001000+00000035+00000+0001T   00000035+0000001346          1400 SP5090               2AZ
321961000321961               321961               170213JP     1400+00000+JP0000013286+0000013286+000000000+000001863+0000015149+0000000000+I40000015149+0000000000+Z
321961001321961080-000118     321961006003000237562CARD&ENVLPE-CONGRATS   0000001000+00001753+00000+0001T   00001753+0000001356          1400 SP5112               2AZ
321961002321961077-000452     321961006003000284986G/BAG METALLIC MED EMB 0000001000+00001490+00000+0001T   00001490+0000001356          1400 SP5112               2AZ
321961003321961077-000010-C   321961006001023123879CREPE-PAPER RED        0000001000+00000788+00000+0001T   00000788+0000001356          1400 SP5112               2AZ
321961004321961080-000127     321961006003000424351VALENTINES DAY 36x24CM 0000001000+00002192+00000+0001T   00002192+0000001356          1400 SP5112               2AZ
321961005321961080-000109     321961006003000237203CARD&ENVLPE BDAY-BRIGHT0000001000+00001753+00000+0001T   00001753+0000001356          1400 SP5112               2AZ
321961006321961018-019000     321961006003000557288MUG OCC. LOVE JUMBO    0000001000+00005262+00000+0001T   00005262+0000001356          1400 SP5515               2AZ
321961007321961112-116069     321961006009681820277TCS CARRIER BAG JUMBO  0000001000+00000048+00000+0001T   00000048+0000001356          1400 SP5090               2AZ
321962000321962               321962               170213JP     1400+00000+JP0000008679+0000008679+000000000+000001217+0000009896+0000000000+I40000009896+0000000000+Z
321962001321962304-001204     321962006001023737984FLOWER OCC. TEDDY/ROSES0000001000+00001402+00000+0001T   00001490+0006471401          1400 SP5510               2AZ
321962002321962033-005994     321962006001023789570SEWING-NEEDLES 16PCE   0000001000+00000613+00000+0001T   00000613+0000001401          1400 SP5200               2AZ
321962003321962174-000141     321962006003000367573STORAGE ORGANISER 30X100000001000+00005262+00000+0001T   00005262+0000001401          1400 SP5205               2AZ
321962004321962304-001204     321962006001023737984FLOWER OCC. TEDDY/ROSES0000001000+00001402+00000+0001T   00001490+0006471401          1400 SP5510               2AZ
321963000321963               321963               170213JP     1400+00000+JP0000024604+0000024604+000000000+000003447+0000028051+0000000000+I40000028051+0000000000+Z
321963001321963368-000265     321963006001023750914PLUSH BEAR 23CM ASSTD C0000004000+00006139+00000+0001T   00006139+0000001405          1400 SP5745               2AZ
321963002321963112-116069     321963006009681820277TCS CARRIER BAG JUMBO  0000001000+00000048+00000+0001T   00000048+0000001405          1400 SP5090               2AZ
321964000321964               321964               170213JP     1400+00000+JP0000002225+0000002225+000000000+000000312+0000002530+0000000007+I20000000000+0000002530+Z
321964001321964033-000106     321964006001023678027ELASTIC  6mmx3m  CARDED0000001000+00000876+00000+0001T   00000876+0000001406          1400 SP5200               2AZ
321964002321964105-001031     321964000700371696627FOODSAVER 800ml        0000001000+00001314+00000+0001T   00001314+0000001406          1400 SP5210               2AZ
321964003321964112-116038     321964006009681820246TCS CARRIER BAG MIDI   0000001000+00000035+00000+0001T   00000035+0000001406          1400 SP5090               2AZ
321965000321965               321965               170213JP     1400+00000+JP0000004470+0000004470+000000000+000000627+0000005097+0000000000+I40000005097+0000000000+Z
321965001321965039-000108     321965006001023524034TEA-LITE CANDLES 8PCE  0000003000+00001490+00000+0001T   00001490+0000001407          1400 SP5510               2AZ
321966000321966               321966               170213JP     1400+00000+JP0000001753+0000001753+000000000+000000246+0000001990+0000000009+I20000000000+0000001990+Z
321966001321966024-000083     321966006001023770943SIEVE FLOUR 20cm MTL-RI0000001000+00001753+00000+0001T   00001753+0000001409          1400 SP5300               2AZ
321967000321967               321967               170213JP     1400+00000+JP0000001753+0000001753+000000000+000000246+0000001999+0000000000+I40000001999+0000000000+Z
321967001321967077-000324     321967006001023677594GIFT-BAG 33X45CM E/D FL0000001000+00001753+00000+0001T   00001753+0000001411          1400 SP5112               2AZ
321968000321968               321968               170213JP     1400+00000+JP0000014078+0000014078+000000000+000001973+0000016051+0000000000+I40000016051+0000000000+Z
321968001321968366-004047     321968006001023834850DRESS UP ACCESS TEETH  0000001000+00001753+00000+0001T   00001753+0000001413          1400 SP5131               2AZ
321968002321968366-000901     321968006003000563807DRESS UP WINGS B/FLY   0000001000+00007893+00000+0001T   00007893+0000001413          1400 SP5131               2AZ
321968003321968079-013102     321968006003000019601ART+CRAFT DIY PIPE-CLNR0000001000+00002192+00000+0001T   00002192+0000001413          1400 SP5130               2AZ
321968004321968366-000303     321968006003000110476DRESS UP WAND 35cm     0000001000+00002192+00000+0001T   00002192+0000001413          1400 SP5131               2AZ
321968005321968112-116069     321968006009681820277TCS CARRIER BAG JUMBO  0000001000+00000048+00000+0001T   00000048+0000001413          1400 SP5090               2AZ
321969000321969               321969               170213JP     1400+00000+JP0000005435+0000005435+000000000+000000762+0000006190+0000000007+I20000000000+0000006190+Z
321969001321969077-000251     321969006003000639106GIFT-DECOR RIBBON      0000001000+00002630+00000+0001T   00002630+0000001414          1400 SP5112               2AZ
321969002321969566-000068     321969006003000418046POP UP LOVE 2 ASSTD    0000001000+00002192+00000+0001T   00002192+0000001414          1400 SP5130               2AZ
321969003321969077-000321     321969006001023677501GIFT-BAG 11X14CM E/D FL0000001000+00000613+00000+0001T   00000613+0000001414          1400 SP5112               2AZ
321970000321970               321970               170213JP     1400+00000+JP0000010521+0000010521+000000000+000001475+0000011996+0000000000+I40000011996+0000000000+Z
321970001321970464-009011     321970006003000647675FISHING WITH TWO RODS  0000001000+00005262+00000+0001T   00005262+0000001417          1400 SP5785               2AZ
321970002321970016-009616     3219700060030004416932PC GLS SHAKERS 3-ASSTD0000003000+00001753+00000+0001T   00001753+0000001417          1400 SP5300               2AZ
321971000321971               321971               170213JP     1400+00000+JP0000014030+0000014030+000000000+000001966+0000015996+0000000000+I40000015996+0000000000+Z
321971001321971018-000129     321971006001023403353MUG OCC. LOVE V-SHAPE  0000002000+00002630+00000+0001T   00002630+0000001420          1400 SP5515               2AZ
321971002321971104-000030     321971006001023803481BASKET PL 28x20x12cm   0000002000+00004385+00000+0001T   00004385+0000001420          1400 SP5210               2AZ
321972000321972               321972               170213JP     1400+00000+JP0000000876+0000000876+000000000+000000123+0000000990+0000000009+I20000000000+0000000990+Z
321972001321972039-000319-8   321972006003000443222B/CANDLES LRG NUMBER-8 0000001000+00000876+00000+0001T   00000876+0000001420          1400 SP5510               2AZ
321973000321973               321973               170213JP     1400+00000+JP0000007049+0000007049+000000000+000000987+0000008036+0000000000+I40000008036+0000000000+Z
321973001321973007-000325     321973006009698066514PAPER A4 160GSM 25SHTS 0000001000+00003507+00000+0001T   00003507+0000001422          1400 SP5130               2AZ
321973002321973007-000324     32197300600968585864125 SHEETS BRIGHTS MARLI0000001000+00003507+00000+0001T   00003507+0000001422          1400 SP5130               2AZ
321973003321973112-116038     321973006009681820246TCS CARRIER BAG MIDI   0000001000+00000035+00000+0001T   00000035+0000001422          1400 SP5090               2AZ
321974000321974               321974               170213JP     1400+00000+JP0000005261+0000005261+000000000+000000737+0000005998+0000000000+I40000005998+0000000000+Z
321974001321974002-000706     321974006001023111456SPATTER-PREVENTOR 28cm 0000001000+00004385+00000+0001T   00004385+0000001427          1400 SP5300               2AZ
321974002321974039-000323     321974006001023524171BIRTHDAY-CANDLES 24PCE 0000001000+00000876+00000+0001T   00000876+0000001427          1400 SP5510               2AZ
321975000321975               321975               170213JP     1400+00000+JP0000019588+0000019588+000000000+000002749+0000022337+0000000000+I40000022337+0000000000+Z
321975001321975903-000087     321975006001704000161SWT SPECKLED-EGGS 50G  0000002000+00001139+00000+0001T   00001139+0000001437          1400 SP5150               2AZ
321975002321975903-000709     321975006002099007070SWT QUENCHERS FRUIT    0000001000+00001139+00000+0001T   00001139+0000001437          1400 SP5150               2AZ
321975003321975903-004950     321975006002580020304SWT APRICOT SURPRISE   0000001000+00001314+00000+0001T   00001314+0000001437          1400 SP5150               2AZ
321975004321975903-000710     321975006002099007056SWT REFRESHERS MINT    0000001000+00001139+00000+0001T   00001139+0000001437          1400 SP5150               2AZ
321975005321975903-000843     321975008693029031067SWT GUMMY JELAXY 80G   0000001000+00000964+00000+0001T   00000964+0000001437          1400 SP5150               2AZ
321975006321975903-000504     321975006001704012416SWT CHOC JELLY BEANS   0000001000+00001227+00000+0001T   00001227+0000001437          1400 SP5150               2AZ
321975007321975903-000709     321975006002099007070SWT QUENCHERS FRUIT    0000001000+00001139+00000+0001T   00001139+0000001437          1400 SP5150               2AZ
321975008321975903-000087     321975006001704000161SWT SPECKLED-EGGS 50G  0000001000+00001139+00000+0001T   00001139+0000001437          1400 SP5150               2AZ
321975009321975080-000124     321975006003000297733CARD & ENV VALENTINES  0000001000+00001578+00000+0001T   00001578+0000001437          1400 SP5112               2AZ
321975010321975903-000844     321975005010478432567SWT CANDY DL LUV HEARTS0000001000+00001314+00000+0001T   00001314+0000001437          1400 SP5150               2AZ
321975011321975903-000861     321975005010478430822SWT LOVE HEARTS SML    0000001000+00000876+00000+0001T   00000876+0000001437          1400 SP5150               2AZ
321975012321975903-003051     321975008024431008703SWT CHOCO PARTY 25G    0000001000+00000876+00000+0001T   00000876+0000001437          1400 SP5150               2AZ
321975013321975903-003050     321975008024431008239SWT CHOC CONE H/NUT 25G0000001000+00000876+00000+0001T   00000876+0000001437          1400 SP5150               2AZ
321975014321975903-002850     321975000000087108262MENTOS ROLL FRUIT      0000001000+00001051+00000+0001T   00001051+0000001437          1400 SP5150               2AZ
321975015321975103-000060     321975006001023795489BAMBOO BASKET RECT     0000001000+00002630+00000+0001T   00002630+0000001437          1400 SP5300               2AZ
321975016321975112-116069     321975006009681820277TCS CARRIER BAG JUMBO  0000001000+00000048+00000+0001T   00000048+0000001437          1400 SP5090               2AZ
321976000321976               321976               170213JP     1400+00000+JP0000014078+0000014078+000000000+000001973+0000016051+0000000000+I40000016051+0000000000+Z
321976001321976039-000798     321976006001023617774CANDLES TEALITE BOX-50 0000001000+00006139+00000+0001T   00006139+0000001442          1400 SP5510               2AZ
321976002321976039-080959     321976006003000048922CANDLE PILLAR BALL 8CM 0000002000+00003069+00000+0001T   00003069+0000001442          1400 SP5510               2AZ
321976003321976024-006874     321976006001023769978PASTRY-BRUSH SQ WHITE  0000001000+00001753+00000+0001T   00001753+0000001442          1400 SP5300               2AZ
321976004321976112-116069     321976006009681820277TCS CARRIER BAG JUMBO  0000001000+00000048+00000+0001T   00000048+0000001442          1400 SP5090               2AZ
321977000321977               321977               170213JP     1400+00000+JP0000012713+0000012713+000000000+000001782+0000014495+0000000000+I40000014495+0000000000+Z
321977001321977077-000299-A   321977006003000670888GIFT-BAG PAPER JMB LOVE0000001000+00001753+00000+0001T   00001753+0000001500          1400 SP5112               2AZ
321977002321977031-086302-C   321977006001023910332P/FRAME COLL. PL 3-HOLE0000001000+00008771+00000+0001T   00008771+0000001500          1400 SP5510               2AZ
321977003321977007-000555     321977006001023848239MEMO-PAD MINI LOVE     0000001000+00000613+00000+0001T   00000613+0000001500          1400 SP5130               2AZ
321977004321977077-000010-C   321977006001023123879CREPE-PAPER RED        0000002000+00000788+00000+0001T   00000788+0000001500          1400 SP5112               2AZ
321978000321978               321978               170213JP     1400+00000+JP0000008766+0000008766+000000000+000001230+0000009996+0000000000+I40000009996+0000000000+Z
321978001321978085-007038     321978006001024039896P/KNIFE 8cm-BLD PL/GRIP0000001000+00002630+00000+0001T   00002630+0000001501          1400 SP5305               2AZ
321978002321978077-000316     321978006001023609731GIFT-BAG 25X32CM MATT  0000001000+00001753+00000+0001T   00001753+0000001501          1400 SP5112               2AZ
321978003321978077-000456     321978006003000285549G/BAG METALLIC JMB EMB 0000001000+00002630+00000+0001T   00002630+0000001501          1400 SP5112               2AZ
321978004321978077-000455     321978006003000285389G/BAG METALLIC LRG SOL 0000001000+00001753+00000+0001T   00001753+0000001501          1400 SP5112               2AZ
321979000321979               321979               170213JP     1400+00000+JP0000005734+0000005734+000000000+000000804+0000006538+0000000000+I40000006538+0000000000+Z
321979001321979031-000874-A   321979006001023798800P/FRAME WDN P/BOX 10X150000001000+00003946+00000+0001T   00003946+0000001508          1400 SP5510               2AZ
321979002321979112-116038     321979006009681820246TCS CARRIER BAG MIDI   0000001000+00000035+00000+0001T   00000035+0000001508          1400 SP5090               2AZ
321979003321979903-000619     321979006003000672455SWT LOLLY STR/BRRY 140G0000001000+00001753+00000+0001T   00001753+0000001508          1400 SP5150               2AZ
321980000321980               321980               170213JP     1400+00000+JP0000034254+0000034254+000000000+000004798+0000039050+0000000002+I20000000000+0000039050+Z
321980001321980112-116069     321980006009681820277TCS CARRIER BAG JUMBO  0000001000+00000048+00000+0001T   00000048+0000001510          1400 SP5090               2AZ
321980002321980368-000637     321980006001023874092PLUSH BEAR SLEEPING LOV0000003000+00011402+00000+0001T   00012279+0006471510          1400 SP5745               2AZ
321981000321981               321981               170213JP     1400+00000+JP0000002630+0000002630+000000000+000000369+0000002990+0000000009+I20000000000+0000002990+Z
321981001321981466-000515     321981006001023477408BALLS TENNIS BAG-OF-3  0000001000+00002630+00000+0001T   00002630+0000001520          1400 SP5785               2AZ
321982000321982               321982               170213JP     1400+00000+JP0000004822+0000004822+000000000+000000676+0000005490+0000000008+I20000000000+0000005490+Z
321982001321982077-000270     321982006003000395453GIFT-BAG PPR JMB 33X45 0000001000+00002630+00000+0001T   00002630+0000001522          1400 SP5112               2AZ
321982002321982080-000127     321982006003000424351VALENTINES DAY 36x24CM 0000001000+00002192+00000+0001T   00002192+0000001522          1400 SP5112               2AZ
321983000321983               321983               170213JP     1400+00000+JP0000001753+0000001753+000000000+000000246+0000001990+0000000009+I20000000000+0000001990+Z
321983001321983079-006522     321983006001023149442ART+CRAFT GLUE ASSORTED0000001000+00001753+00000+0001T   00001753+0000001523          1400 SP5130               2AZ
321984000321984               321984               170213JP     1400+00000+JP0000001051+0000001051+000000000+000000148+0000001190+0000000009+I20000000000+0000001190+Z
321984001321984079-009702-A   321984008427973059408PAPER SIRIO A2 BLACK   0000001000+00001051+00000+0001T   00001051+0000001524          1400 SP5130               2AZ
321985000321985               321985               170213JP     1400+00000+JP0000004419+0000004419+000000000+000000619+0000005038+0000000000+I40000005038+0000000000+Z
321985001321985566-000068     321985006003000418046POP UP LOVE 2 ASSTD    0000002000+00002192+00000+0001T   00002192+0000001525          1400 SP5130               2AZ
321985002321985112-116038     321985006009681820246TCS CARRIER BAG MIDI   0000001000+00000035+00000+0001T   00000035+0000001525          1400 SP5090               2AZ
321986000321986               321986               170213JP     1400+00000+JP0000021745+0000021745+000000000+000003047+0000024792+0000000000+I40000024792+0000000000+Z
321986001321986031-000860-B   321986006001023798206P/FRAME PL ANTIQUE-BLK 0000002000+00004385+00000+0001T   00004385+0000001536          1400 SP5510               2AZ
321986002321986206-000350     321986006003000633265EGG MOULD SUNRISE      0000002000+00002630+00000+0001T   00002630+0000001536          1400 SP5321               2AZ
321986003321986206-000630     321986006003000631919SPECTACLE CLEANING BRUS0000002000+00001227+00000+0001T   00001227+0000001536          1400 SP5321               2AZ
321986004321986206-000210     321986006003000631582TOOTHPICK HOLDER FLOWER0000001000+00003069+00000+0001T   00003069+0000001536          1400 SP5321               2AZ
321986005321986206-000100     321986006003000628063TONGS ICE COLD FINGERS 0000001000+00002192+00000+0001T   00002192+0000001536          1400 SP5321               2AZ
321987000321987               321987               170213JP     1400+00000+JP0000003993+0000003993+000000000+000000560+0000004550+0000000003+I20000000000+0000004550+Z
321987001321987080-000120     321987006003000236473CARD & ENVELOPE WEDDING0000001000+00001753+00000+0001T   00001753+0000001537          1400 SP5112               2AZ
321987002321987080-000127     321987006003000424351VALENTINES DAY 36x24CM 0000001000+00002192+00000+0001T   00002192+0000001537          1400 SP5112               2AZ
321987003321987112-116069     321987006009681820277TCS CARRIER BAG JUMBO  0000001000+00000048+00000+0001T   00000048+0000001537          1400 SP5090               2AZ
321988000321988               321988               170213JP     1400+00000+JP0000000788+0000000788+000000000+000000111+0000000890+0000000009+I20000000000+0000000890+Z
321988001321988077-000010-C   321988006001023123879CREPE-PAPER RED        0000001000+00000788+00000+0001T   00000788+0000001540          1400 SP5112               2AZ
321989000321989               321989               170213JP     1400+00000+JP0000001753+0000001753+000000000+000000246+0000001990+0000000009+I20000000000+0000001990+Z
321989001321989567-010620     321989009780710519856BK ACTIVITY ASSTD      0000001000+00001753+00000+0001T   00002630+0008131541          1400 SP5757               2AZ
321990000321990               321990               170213JP     1400+00000+JP0000011619+0000011619+000000000+000001628+0000013240+0000000007+I20000000000+0000013240+Z
321990001321990018-000136     321990006001023659026MUG OCC LOVE W/PLUSH   0000001000+00003507+00000+0001T   00003507+0000001542          1400 SP5515               2AZ
321990002321990304-001011     321990006001023806727FLWR ROSE RED W/BEAR   0000002000+00000613+00000+0001T   00000788+0006471542          1400 SP5510               2AZ
321990003321990077-000348     321990006001023483287GIFT-BOWS 4,5cm 8PCE   0000001000+00001578+00000+0001T   00001578+0000001542          1400 SP5112               2AZ
321990004321990903-000215     321990006002099001214SWT GS MALLOW TWIST PAC0000001000+00001753+00000+0001T   00001753+0000001542          1400 SP5150               2AZ
321990005321990031-005853     321990006003000442416P/FRAME WDN TWIN HEARTS0000001000+00003507+00000+0001T   00003507+0000001542          1400 SP5510               2AZ
321990006321990112-116069     321990006009681820277TCS CARRIER BAG JUMBO  0000001000+00000048+00000+0001T   00000048+0000001542          1400 SP5090               2AZ
321991000321991               321991               170213JP     1400+00000+JP0000014369+0000014369+000000000+000002014+0000016380+0000000003+I20000000000+0000016380+Z
321991001321991006-000166-H   321991006003000608096BALLOONS HELIUM 6PC WHT0000002000+00001314+00000+0001T   00001314+0000001545          1400 SP5131               2AZ
321991002321991031-080508     321991006001023802415P/FRAME PL 22X11CM LOVE0000001000+00004385+00000+0001T   00004385+0000001545          1400 SP5510               2AZ
321991003321991006-000166-C   321991006003000516377BALLOONS LRG 6PC PINK  0000001000+00001314+00000+0001T   00001314+0000001545          1400 SP5131               2AZ
321991004321991006-000166-H   321991006003000608096BALLOONS HELIUM 6PC WHT0000001000-00001314+00000+0001T   00001314+0000001545          1400 SP51311IC            2 Z
321991005321991006-001000     321991006003000093779HELIUM BALLOON FILL    0000012000+00000613+00000+0001T   00000613+0000001545          1400 SP5131               2AZ
321992000321992               321992               170213JP     1400+00000+JP0000015038+0000015038+000000000+000002108+0000017146+0000000000+I40000017146+0000000000+Z
321992001321992072-020310     321992006001023701015PET TOY MINI TENNIS BAL0000001000+00003507+00000+0001T   00003507+0000001550          1400 SP5870               2AZ
321992002321992362-003004     321992006003000294961HAIR CLIPS             0000001000+00001753+00000+0001T   00001753+0000001550          1400 SP5160               2AZ
321992003321992362-003003     321992006003000295616HAIR BAND SET 6PCE     0000001000+00001753+00000+0001T   00001753+0000001550          1400 SP5160               2AZ
321992004321992362-001045     321992006001023843449MAKE-UP TEEN GIFT SET  0000001000+00005262+00000+0001T   00005262+0000001550          1400 SP5160               2AZ
321992005321992077-000302     321992008010410010195GIFT-BAG 18X23CM E/D   0000001000+00000876+00000+0001T   00000876+0000001550          1400 SP5112               2AZ
321992006321992565-000044     321992006003000128280BARREL OF SLIME 100g   0000003000+00000613+00000+0001T   00000613+0000001550          1400 SP5745               2AZ
321992007321992112-116069     321992006009681820277TCS CARRIER BAG JUMBO  0000001000+00000048+00000+0001T   00000048+0000001550          1400 SP5090               2AZ
321993000321993               321993               170213JP     1400+00000+JP0000013182+0000013182+000000000+000001849+0000015030+0000000001+I20000000000+0000015030+Z
321993001321993018-000170     321993006001023775528MUG OCC. LOVE 2PC MINI 0000001000+00002192+00000+0001T   00002192+0000001551          1400 SP5515               2AZ
321993002321993031-005853     321993006003000442416P/FRAME WDN TWIN HEARTS0000001000+00003507+00000+0001T   00003507+0000001551          1400 SP5510               2AZ
321993003321993040-000170     321993006001023774613C/HOLDER GLASS CUP 6CM 0000002000+00002630+00000+0001T   00002630+0000001551          1400 SP5510               2AZ
321993004321993565-000042     321993006003000252459NOVELTY STRESS BALL    0000001000+00001314+00000+0001T   00001314+0000001551          1400 SP5745               2AZ
321993005321993112-116038     321993006009681820246TCS CARRIER BAG MIDI   0000001000+00000035+00000+0001T   00000035+0000001551          1400 SP5090               2AZ
321993006321993083-000049     321993004891035200024CIG-LIGHTER DISPOSABLE 0000002000+00000437+00000+0001T   00000437+0000001551          1400 SP5315               2AZ
321994000321994               321994               170213JP     1400+00000+JP0000001753+0000001753+000000000+000000246+0000001990+0000000009+I20000000000+0000001990+Z
321994001321994078-000030     321994006003000151141YAMAYO SUPERGLUE 8g    0000001000+00001753+00000+0001T   00001753+0000001552          1400 SP5810               2AZ
321995000321995               321995               170213JP     1400+00000+JP0000006139+0000006139+000000000+000000860+0000006990+0000000009+I20000000000+0000006990+Z
321995001321995368-000175     321995006003000270316PLUSH BEAR 4 ASSTD 18CM0000001000+00006139+00000+0001T   00006139+0000001557          1400 SP5745               2AZ
321996000321996               321996               170213JP     1400+00000+JP0000002104+0000002104+000000000+000000295+0000002390+0000000009+I20000000000+0000002390+Z
321996001321996903-000095     321996006001704011495SWT SPECKLED-EGGS 100G 0000001000+00002104+00000+0001T   00002104+0000001558          1400 SP5150               2AZ
321997000321997               321997               170213JP     1400+00000+JP0000002662+0000002662+000000000+000000374+0000003036+0000000000+I40000003036+0000000000+Z
321997001321997077-000010-C   321997006001023123879CREPE-PAPER RED        0000001000+00000788+00000+0001T   00000788+0000001602          1400 SP5112               2AZ
321997002321997077-000310     321997006001023608635GIFT-BAG 18X23CM GLOSS 0000001000+00001314+00000+0001T   00001314+0000001602          1400 SP5112               2AZ
321997003321997112-116038     321997006009681820246TCS CARRIER BAG MIDI   0000001000+00000035+00000+0001T   00000035+0000001602          1400 SP5090               2AZ
321997004321997007-000145     321997006009635833087BK EXERCISE 72PG A4    0000001000+00000525+00000+0001T   00000525+0000001602          1400 SP5130               2AZ
321998000321998               321998               170213JP     1400+00000+JP0000007978+0000007978+000000000+000001118+0000009096+0000000000+I40000009096+0000000000+Z
321998001321998077-000303     321998006001023593757GIFT-BAG PAPER MED     0000001000+00001578+00000+0001T   00001578+0000001616          1400 SP5112               2AZ
321998002321998368-000049     321998006003000536955PLUSH BEAR 15cm LOVE   0000001000+00004385+00000+0001T   00004385+0000001616          1400 SP5745               2AZ
321998003321998903-000709     321998006002099007070SWT QUENCHERS FRUIT    0000001000+00001139+00000+0001T   00001139+0000001616          1400 SP5150               2AZ
321998004321998077-000011-C   321998006001023808523TISSUE 10xSHTS RED     0000001000+00000876+00000+0001T   00000876+0000001616          1400 SP5112               2AZ
321999000321999               321999               170213JP     1400+00000+JP0000001752+0000001752+000000000+000000246+0000001998+0000000000+I40000001998+0000000000+Z
321999001321999077-000151     321999006008766114676GIFT-WRAP C/PHANE ASSTD0000002000+00000876+00000+0001T   00000876+0000001623          1400 SP5112               2AZ
322000000322000               322000               170213JP     1400+00000+JP0000001753+0000001753+000000000+000000246+0000001999+0000000000+I40000001999+0000000000+Z
322000001322000006-000800     322000006001023902801HAT CABARET 14x18cm    0000001000+00001753+00000+0001T   00001753+0000001638          1400 SP5131               2AZ
322001000322001               322001               170213JP     1400+00000+JP0000013548+0000013548+000000000+000001900+0000015440+0000000008+I20000000000+0000015440+Z
322001001322001903-000095     322001006001704011495SWT SPECKLED-EGGS 100G 0000001000+00002104+00000+0001T   00002104+0000001640          1400 SP5150               2AZ
322001002322001264-000921     322001000090159150442MAISTO CAR 3" FRESH    0000002000+00001753+00000+0001T   00001753+0000001640          1400 SP5710               2AZ
322001003322001151-000620     322001006001023653345WIRE-BRUSH-SET SML 3PCE0000001000+00001753+00000+0001T   00001753+0000001640          1400 SP5810               2AZ
322001004322001104-000135     322001006001023846419WASTEBIN SWING-LID 28cm0000001000+00004385+00000+0001T   00004385+0000001640          1400 SP5210               2AZ
322001005322001903-000221     322001006001704007382SWT EENY-MEENY-MOS 60G 0000002000+00000876+00000+0001T   00000876+0000001640          1400 SP5150               2AZ
322001006322001112-116069     322001006009681820277TCS CARRIER BAG JUMBO  0000001000+00000048+00000+0001T   00000048+0000001640          1400 SP5090               2AZ
322002000322002               322002               170213JP     1400+00000+JP0000007936+0000007936+000000000+000001114+0000009050+0000000000+I40000009050+0000000000+Z
322002001322002018-000200     322002006001023816573M/DAILY V-SHAPE PSYCH  0000004000+00001753+00000+0001T   00001753+0000001644          1400 SP5515               2AZ
322002002322002112-116069     322002006009681820277TCS CARRIER BAG JUMBO  0000001000+00000048+00000+0001T   00000048+0000001644          1400 SP5090               2AZ
322002003322002071-005213     322002006001023690371CELLOTAPE 12mmx33m     0000001000+00000876+00000+0001T   00000876+0000001644          1400 SP5130               2AZ
322003000322003               322003               170213JP     1400+00000+JP0000015867+0000015867+000000000+000002226+0000018093+0000000000+I40000018093+0000000000+Z
322003001322003903-000619     322003006003000672455SWT LOLLY STR/BRRY 140G0000001000+00001753+00000+0001T   00001753+0000001646          1400 SP5150               2AZ
322003002322003903-000843     322003008693029031067SWT GUMMY JELAXY 80G   0000001000+00000964+00000+0001T   00000964+0000001646          1400 SP5150               2AZ
322003003322003368-000040     322003006003000671786PLUSH ICONS 7.5cm      0000001000+00002630+00000+0001T   00002630+0000001646          1400 SP5745               2AZ
322003004322003565-000041     322003006008766115642NOVELTY BALL ICON 5.5cm0000002000+00002630+00000+0001T   00002630+0000001646          1400 SP5745               2AZ
322003005322003368-000040     322003006003000671786PLUSH ICONS 7.5cm      0000001000+00002630+00000+0001T   00002630+0000001646          1400 SP5745               2AZ
322003006322003565-000010     322003006001023865984ROBOT ARM PL 30CM      0000001000+00002630+00000+0001T   00002630+0000001646          1400 SP5745               2AZ
322004000322004               322004               170213JP     1400+00000+JP0000008902+0000008902+000000000+000001248+0000010150+0000000000+I20000000000+0000010150+Z
322004001322004112-116069     322004006009681820277TCS CARRIER BAG JUMBO  0000001000+00000048+00000+0001T   00000048+0000001647          1400 SP5090               2AZ
322004002322004077-000239     322004006003000160419GIFT-RIBBON ROLL PEARL 0000001000+00001753+00000+0001T   00001753+0000001647          1400 SP5112               2AZ
322004003322004903-000518     322004006001704012782SWT STRAWS S/BERRY 100g0000001000+00001227+00000+0001T   00001227+0000001647          1400 SP5150               2AZ
322004004322004039-000500     322004006001023816450C/VOTIVE 8PC RAINBOW   0000001000+00005262+00000+0001T   00005262+0000001647          1400 SP5510               2AZ
322004005322004079-009700-E   322004006003000545797PAPER SIRIO A4 GREY    0000002000+00000306+00000+0001T   00000306+0000001647          1400 SP5130               2AZ
322005000322005               322005               170213JP     1400+00000+JP0000002630+0000002630+000000000+000000369+0000002999+0000000000+I40000002999+0000000000+Z
322005001322005077-000349-B   322005006001023908315G/RIBBON 3ROLLS 12BOWS 0000001000+00002630+00000+0001T   00002630+0000001653          1400 SP5112               2AZ
322006000322006               322006               170213JP     1400+00000+JP0000020035+0000020035+000000000+000002810+0000022845+0000000000+I40000022845+0000000000+Z
322006001322006112-116069     322006006009681820277TCS CARRIER BAG JUMBO  0000001000+00000048+00000+0001T   00000048+0000001655          1400 SP5090               2AZ
322006002322006567-011915     322006009780799375503BK EDU WISKUNDE 7-8JAAR0000001000+00002630+00000+0001T   00002630+0000001655          1400 SP5757               2AZ
322006003322006567-011911     322006009780799375442BK EDU VOORSPRONG AFR  0000001000+00002630+00000+0001T   00002630+0000001655          1400 SP5757               2AZ
322006004322006567-011912     322006009780799375459BK EDU VOORSPRONG AFR  0000001000+00002630+00000+0001T   00002630+0000001655          1400 SP5757               2AZ
322006005322006567-011913     322006009780799375466BK EDU VOORSPRONG AFR  0000001000+00002630+00000+0001T   00002630+0000001655          1400 SP5757               2AZ
322006006322006077-000327     322006006001023677686GIFT-BAG 25X32CM E/D BA0000002000+00001490+00000+0001T   00001490+0000001655          1400 SP5112               2AZ
322006007322006077-000328     322006006003000668939GIFT-BAG PAPER JMB     0000001000+00001753+00000+0001T   00001753+0000001655          1400 SP5112               2AZ
322006008322006106-003115     322006006002689011357ICE CUBE-TRAYS 2PCE WHT0000003000+00001578+00000+0001T   00001578+0000001655          1400 SP5210               2AZ
322007000322007               322007               170213JP     1400+00000+JP0000003507+0000003507+000000000+000000491+0000003990+0000000008+I20000000000+0000003990+Z
322007001322007018-000136     322007006001023659026MUG OCC LOVE W/PLUSH   0000001000+00003507+00000+0001T   00003507+0000001705          1400 SP5515               2AZ
322008000322008               322008               170213JP     1400+00000+JP0000006487+0000006487+000000000+000000909+0000007396+0000000000+I40000007396+0000000000+Z
322008001322008077-000010-C   322008006001023123879CREPE-PAPER RED        0000001000+00000788+00000+0001T   00000788+0000001707          1400 SP5112               2AZ
322008002322008563-000318-L   322008006003000407088SERVIETTES 33cm RED    0000001000+00002192+00000+0001T   00002192+0000001707          1400 SP5214               2AZ
322008003322008089-000092     322008006003000457649K/CHAIN BOTTLE OPENER  0000001000+00003507+00000+0001T   00003507+0000001707          1400 SP5205               2AZ
322009000322009               322009               170213JP     1400+00000+JP0000004820+0000004820+000000000+000000676+0000005490+0000000006+I20000000000+0000005490+Z
322009001322009088-000052     322009006001023760401T/FRESHENER CISTERN BLK0000003000+00000876+00000+0001T   00000876+0000001708          1400 SP5212               2AZ
322009002322009028-085274     322009006001023641571BBQ LIGHTER         H&L0000001000+00002192+00000+0001T   00002192+0000001708          1400 SP5305               2AZ
322010000322010               322010               170213JP     1400+00000+JP0000010421+0000010421+000000000+000001462+0000011880+0000000003+I20000000000+0000011880+Z
322010001322010006-001000     322010006003000093779HELIUM BALLOON FILL    0000017000+00000613+00000+0001T   00000613+0000001713          1400 SP5131               2AZ
322011000322011               322011               170213JP     1400+00000+JP0000003946+0000003946+000000000+000000553+0000004490+0000000009+I20000000000+0000004490+Z
322011001322011082-098784     322011006001492987842SUNGLASS KIDS GIRLS    0000001000+00003946+00000+0001T   00003946+0000001713          1400 SP5160               2AZ
322012000322012               322012               170213JP     1400+00000+JP0000006185+0000006185+000000000+000000867+0000007052+0000000000+I40000007052+0000000000+Z
322012001322012018-000136     322012006001023659026MUG OCC LOVE W/PLUSH   0000001000+00003507+00000+0001T   00003507+0000001716          1400 SP5515               2AZ
322012002322012106-001125     322012006003000666270WATER BOTTLE 600ml     0000001000+00002630+00000+0001T   00002630+0000001716          1400 SP5210               2AZ
322012003322012112-116069     322012006009681820277TCS CARRIER BAG JUMBO  0000001000+00000048+00000+0001T   00000048+0000001716          1400 SP5090               2AZ
322013000322013               322013               170213JP     1400+00000+JP0000007278+0000007278+000000000+000001020+0000008290+0000000008+I20000000000+0000008290+Z
322013001322013018-005007     322013006003000515516MUG OCC. LOVE W/HEARTS 0000001000+00006139+00000+0001T   00006139+0000001716          1400 SP5515               2AZ
322013002322013903-000698     322013006002099007032SWT CANDY ECLAIRS 90g  0000001000+00001139+00000+0001T   00001139+0000001716          1400 SP5150               2AZ
322014000322014               322014               170213JP     1400+00000+JP0000004385+0000004385+000000000+000000614+0000004990+0000000009+I20000000000+0000004990+Z
322014001322014050-000887-TS  322014006003000688210PADLOCK COMBO 35mm 8DIG0000001000+00004385+00000+0001T   00004385+0000001718          1400 SP5855               2AZ
322015000322015               322015               170213JP     1400+00000+JP0000006138+0000006138+000000000+000000860+0000006998+0000000000+I40000006998+0000000000+Z
322015001322015018-030000     322015006003000421060MUG OCCASIONS LOVE 2PCE0000001000+00004385+00000+0001T   00004385+0000001720          1400 SP5515               2AZ
322015002322015080-000113     322015006003000237449CARD&ENVLPE - LOVE     0000001000+00001753+00000+0001T   00001753+0000001720          1400 SP5112               2AZ
322016000322016               322016               170213JP     1400+00000+JP0000001753+0000001753+000000000+000000246+0000001999+0000000000+I40000001999+0000000000+Z
322016001322016077-000382     322016006003000247820GIFT-BAG MED 18X23CM   0000001000+00001753+00000+0001T   00001753+0000001725          1400 SP5112               2AZ
322017000322017               322017               170213JP     1400+00000+JP0000001753+0000001753+000000000+000000246+0000001999+0000000000+I40000001999+0000000000+Z
322017001322017016-009616     3220170060030004416932PC GLS SHAKERS 3-ASSTD0000001000+00001753+00000+0001T   00001753+0000001726          1400 SP5300               2AZ
322018000322018               322018               170213JP     1400+00000+JP0000006871+0000006871+000000000+000000963+0000007834+0000000000+I40000007834+0000000000+Z
322018001322018018-000127     322018006001023380289MUG OCC STRAIGHT LOVE  0000001000+00001578+00000+0001T   00001753+0006471728          1400 SP5515               2AZ
322018002322018018-000129     322018006001023403353MUG OCC. LOVE V-SHAPE  0000001000+00002630+00000+0001T   00002630+0000001728          1400 SP5515               2AZ
322018003322018006-000166-C   322018006003000516377BALLOONS LRG 6PC PINK  0000001000+00001314+00000+0001T   00001314+0000001728          1400 SP5131               2AZ
322018004322018006-000166-H   322018006003000608096BALLOONS HELIUM 6PC WHT0000001000+00001314+00000+0001T   00001314+0000001728          1400 SP5131               2AZ
322018005322018112-116038     322018006009681820246TCS CARRIER BAG MIDI   0000001000+00000035+00000+0001T   00000035+0000001728          1400 SP5090               2AZ
322019000322019               322019               170213JP     1400+00000+JP0000002453+0000002453+000000000+000000344+0000002790+0000000007+I20000000000+0000002790+Z
322019001322019261-000121     322019006001023341600GUN-CAPS 8-SHOT CARD-9 0000001000+00000700+00000+0001T   00000700+0000001733          1400 SP5710               2AZ
322019002322019261-002267     322019006001023665126GUN 8-SHOT SUPER-CAP   0000001000+00001753+00000+0001T   00001753+0000001733          1400 SP5710               2AZ
322020000322020               322020               170213JP     1400+00000+JP0000003507+0000003507+000000000+000000491+0000003990+0000000008+I20000000000+0000003990+Z
322020001322020050-000263-Z   322020006001023777041PADLOCK BRS 32mm CARDED0000001000+00003507+00000+0001T   00003507+0000001733          1400 SP5855               2AZ
322021000322021               322021               170213JP     1400+00000+JP0000005118+0000005118+000000000+000000717+0000005830+0000000005+I20000000000+0000005830+Z
322021001322021077-000314     322021006003000181148GIFT-BAG 11X14CM MATT  0000001000+00000876+00000+0001T   00000876+0000001736          1400 SP5112               2AZ
322021002322021018-000130     322021006001023867537MUG OCC LOVE MINI+HEART0000001000+00003507+00000+0001T   00003507+0000001736          1400 SP5515               2AZ
322021003322021564-000012     322021006001023130075BUBBLE BOTTLE MAGIC    0000001000+00000700+00000+0001T   00000700+0000001736          1400 SP5131               2AZ
322021004322021112-116038     322021006009681820246TCS CARRIER BAG MIDI   0000001000+00000035+00000+0001T   00000035+0000001736          1400 SP5090               2AZ
322022000322022               322022               170213JP     1400+00000+JP0000013016+0000013016+000000000+000001826+0000014842+0000000000+I40000014842+0000000000+Z
322022001322022077-000303     322022006001023593757GIFT-BAG PAPER MED     0000001000+00001578+00000+0001T   00001578+0000001742          1400 SP5112               2AZ
322022002322022903-000843     322022008693029031067SWT GUMMY JELAXY 80G   0000001000+00000964+00000+0001T   00000964+0000001742          1400 SP5150               2AZ
322022003322022112-116069     322022006009681820277TCS CARRIER BAG JUMBO  0000001000+00000048+00000+0001T   00000048+0000001742          1400 SP5090               2AZ
322022004322022903-000810     322022006009680772249SWT FROOTEEZ SOUR 50g  0000001000+00000876+00000+0001T   00000876+0000001742          1400 SP5150               2AZ
322022005322022903-002850     322022000000087108262MENTOS ROLL FRUIT      0000001000+00001051+00000+0001T   00001051+0000001742          1400 SP5150               2AZ
322022006322022903-004952     322022006002580020052SWT FREAKY FACES 100G  0000002000+00001314+00000+0001T   00001314+0000001742          1400 SP5150               2AZ
322022007322022903-002850     322022000000087108262MENTOS ROLL FRUIT      0000001000+00001051+00000+0001T   00001051+0000001742          1400 SP5150               2AZ
322022008322022903-000844     322022005010478432567SWT CANDY DL LUV HEARTS0000001000+00001314+00000+0001T   00001314+0000001742          1400 SP5150               2AZ
322022009322022903-000081     322022006001704014076SWT F/PASTILLES 100G   0000001000+00001753+00000+0001T   00001753+0000001742          1400 SP5150               2AZ
322022010322022105-007013     322022006003000010875CONTAINER CLEAR 500ml  0000001000+00001753+00000+0001T   00002630+0008171742          1400 SP5210               2AZ
322023000322023               322023               170213JP     1400+00000+JP0000006139+0000006139+000000000+000000860+0000006999+0000000000+I40000006999+0000000000+Z
322023001322023035-000001     322023006002596010566UMBRELLA LADIES W/MINI 0000001000+00006139+00000+0001T   00006139+0000001743          1400 SP5205               2AZ
322024000322024               322024               170213JP     1400+00000+JP0000014693+0000014693+000000000+000002059+0000016752+0000000000+I40000016752+0000000000+Z
322024001322024077-000299     322024006003000395576G/BAG 32x25cm LRG LOVE 0000001000+00001490+00000+0001T   00001490+0000001746          1400 SP5112               2AZ
322024002322024562-002007     322024006003000228188LEARNING EDU ALPHABET  0000001000+00007016+00000+0001T   00007016+0000001746          1400 SP5755               2AZ
322024003322024566-000316     322024006003000521821STICKERS MIRRORS HOME  0000001000+00006139+00000+0001T   00006139+0000001746          1400 SP5130               2AZ
322024004322024112-116069     322024006009681820277TCS CARRIER BAG JUMBO  0000001000+00000048+00000+0001T   00000048+0000001746          1400 SP5090               2AZ
322025000322025               322025               170213JP     1400+00000+JP0000001402+0000001402+000000000+000000197+0000001599+0000000000+I40000001599+0000000000+Z
322025001322025304-001204     322025006001023737984FLOWER OCC. TEDDY/ROSES0000001000+00001402+00000+0001T   00001490+0006471748          1400 SP5510               2AZ
M17021301                              IT DPT      JPATT:GLADWYN FROM JP                             LAST TILL SLIP NO FOR SLAVE 2                   322025
M17021391                              CASH        JPSLAVE 2                       Z-REPORT No.   589TOTAL (Sales - Refunds)           9589.30       CASH TO BE BANKED                 2479.70       DEBIT CARDS                          0.00       CREDIT CARDS                      7109.60       Z-READING                         9589.30       AIRTIME DEBIT CARD SALES             0.00       AIRTIME CARD SALES                   0.00       OVERS/UNDERS                         0.00       AIRTIME CASH SALES                   0.00       GIFT CARDS                           0.00       GIFT CARD CASH SALES                 0.00       T O T A L  CASH PAYOUTS              0.00                                                                                                                                                                                                                                                                                                                                                      Z
M17021392                              CASH        JPABSENT                                                                                                                                                                                          ANNUAL LEAVE                                                                                                                                                                                    DAY OFF                                                                                                                                                                                         COMMENTS                                                                                                                                                                                                                                                                                                                                                                                       Z
Y17021300                                          JP00000000842600+000094
ZJP17021319543 SLAVE 2      SALES DATA                     NEXT INVOICE NO.  322026 0589
X JP Slave 2 First invoice 321932 170213 Last invoice 322025 170213 Next invoice 322026 Total number of records 000000404 clbackup completed 19:54:45
