115439000115439               115439               170213JR     1400+00000+JR0000005260+0000005260+000000000+000000738+0000005998+0000000000+I40000005998+0000000000+Z
115439001115439079-000201     115439006003000161430P/CRAYONS THERAPY 10PCE0000001000+00002630+00000+0001T   00002630+0000000912          1400 SJ3130               1AZ
115439002115439566-000006     115439006001023671189STICKER-BOOK DRESS-UP  0000001000+00002630+00000+0001T   00002630+0000000912          1400 SJ3130               1AZ
115440000115440               115440               170213JR     1400+00000+JR0000004385+0000004385+000000000+000000614+0000004999+0000000000+I40000004999+0000000000+Z
115440001115440047-002035-H   115440006001023586087P/ADAPTOR 3-WAY-2PIN   0000001000+00004385+00000+0001T   00004385+0000000913          1400 SJ3880               1AZ
115441000115441               115441               170213JR     1400+00000+JR0000007663+0000007663+000000000+000001074+0000008730+0000000007+I20000000000+0000008730+Z
115441001115441301-085001     115441006003000297610ORN WATERBALL LOVE ASST0000001000+00004823+00000+0001T   00004823+0000000944          1400 SJ3505               1DZ
115441002115441304-001011     115441006001023806727FLWR ROSE RED W/BEAR   0000001000+00000613+00000+0001T   00000788+0006470944          1400 SJ3510               1DZ
115441003115441018-000170     115441006001023775528MUG OCC. LOVE 2PC MINI 0000001000+00002192+00000+0001T   00002192+0000000944          1400 SJ3515               1DZ
115441004115441112-116038     115441006009681820246TCS CARRIER BAG MIDI   0000001000+00000035+00000+0001T   00000035+0000000944          1400 SJ3090               1DZ
115442000115442               115442               170213JR     1400+00000+JR0000006139+0000006139+000000000+000000860+0000006999+0000000000+I40000006999+0000000000+Z
115442001115442368-000175     115442006003000270316PLUSH BEAR 4 ASSTD 18CM0000001000+00006139+00000+0001T   00006139+0000001034          1400 SJ3745               1AZ
115443000115443               115443               170213JR     1400+00000+JR0000000035+0000000035+000000000+000000005+0000000040+0000000000+I20000000000+0000000040+Z
115443001115443112-116038     115443006009681820246TCS CARRIER BAG MIDI   0000001000+00000035+00000+0001T   00000035+0000001036          1400 SJ3090               1AZ
115444000115444               115444               170213JR     1400+00000+JR0000000612+0000000612+000000000+000000086+0000000690+0000000008+I20000000000+0000000690+Z
115444001115444079-009700-D   115444006003000545711PAPER SIRIO A4 RED COL.0000001000+00000306+00000+0001T   00000306+0000001038          1400 SJ3130               1DZ
115444002115444079-009700-E   115444006003000545797PAPER SIRIO A4 GREY    0000001000+00000306+00000+0001T   00000306+0000001038          1400 SJ3130               1DZ
115445000115445               115445               170213JR     1400+00000+JR0000012270+0000012270+000000000+000001720+0000013990+0000000000+I40000013990+0000000000+Z
115445001115445031-005815     115445009320760100019P/FRAME-CLIP 10x15cm   0000010000+00001227+00000+0001T   00001227+0000001057          1400 SJ3510               1AZ
115446000115446               115446               170213JR     1400+00000+JR0000005262+0000005262+000000000+000000737+0000005990+0000000009+I20000000000+0000005990+Z
115446001115446007-000657     115446006003000081905STATIONERY SET GIRL    0000001000+00005262+00000+0001T   00005262+0000001104          1400 SJ3130               1AZ
115447000115447               115447               170213JR     1400+00000+JR0000012007+0000012007+000000000+000001685+0000013692+0000000000+I40000013692+0000000000+Z
115447001115447034-000712     115447006003000638550COOEY SIPPER CUPS 3PCE 0000002000+00002192+00000+0001T   00002192+0000001108          1400 SJ3215               1AZ
115447002115447560-000107     115447006003000547906DOMESTIC 3PC MINI PETS 0000001000+00001753+00000+0001T   00001753+0000001108          1400 SJ3745               1AZ
115447003115447903-000094     115447006923431501622SWT GS CANDY NECKLACE  0000002000+00000437+00000+0001T   00000437+0000001108          1400 SJ3150               1AZ
115447004115447903-000591     115447006003000563616SWEET ANIMAL 24cm      0000001000+00002630+00000+0001T   00002630+0000001108          1400 SJ3150               1AZ
115447005115447263-000010     115447006003000551293VEHICLE ANIMAL WORLD 3p0000001000+00001753+00000+0001T   00001753+0000001108          1400 SJ3710               1AZ
115447006115447565-000044     115447006003000128280BARREL OF SLIME 100g   0000001000+00000613+00000+0001T   00000613+0000001108          1400 SJ3745               1AZ
115448000115448               115448               170213JR     1400+00000+JR0000000876+0000000876+000000000+000000123+0000000999+0000000000+I40000000999+0000000000+Z
115448001115448001-000168     115448006001023679680TUMBLER 340ml ZOMBI    0000001000+00000876+00000+0001T   00000876+0000001110          1400 SJ3515               1AZ
115449000115449               115449               170213JR     1400+00000+JR0000012087+0000012087+000000000+000001695+0000013782+0000000000+I40000013782+0000000000+Z
115449001115449301-085004     115449006003000420469ORN LOVE PLAQUE 21X10CM0000001000+00003507+00000+0001T   00003946+0006471156          1400 SJ3505               1AZ
115449002115449563-000318-L   115449006003000407088SERVIETTES 33cm RED    0000001000+00002192+00000+0001T   00002192+0000001156          1400 SJ3214               1AZ
115449003115449903-000670     115449006009803358008SWT SHERBET RED LIPS   0000001000+00000218+00000+0001T   00000218+0000001156          1400 SJ3150               1AZ
115449004115449903-003051     115449008024431008703SWT CHOCO PARTY 25G    0000001000+00000876+00000+0001T   00000876+0000001156          1400 SJ3150               1AZ
115449005115449103-000250     115449006003000571673BASKET WOVEN 29x23x6cm 0000001000+00004823+00000+0001T   00004823+0000001156          1400 SJ3300               1AZ
115449006115449006-000172-H   115449006003000610211BALLOONS METALLIC RED  0000002000+00000218+00000+0001T   00000218+0000001156          1400 SJ3131               1AZ
115449007115449112-116038     115449006009681820246TCS CARRIER BAG MIDI   0000001000+00000035+00000+0001T   00000035+0000001156          1400 SJ3090               1AZ
115450000115450               115450               170213JR     1400+00000+JR0000009193+0000009193+000000000+000001290+0000010483+0000000000+I40000010483+0000000000+Z
115450001115450903-003051     115450008024431008703SWT CHOCO PARTY 25G    0000001000+00000876+00000+0001T   00000876+0000001201          1400 SJ3150               1AZ
115450002115450903-000670     115450006009803358008SWT SHERBET RED LIPS   0000001000+00000218+00000+0001T   00000218+0000001201          1400 SJ3150               1AZ
115450003115450304-001011     115450006001023806727FLWR ROSE RED W/BEAR   0000001000+00000613+00000+0001T   00000788+0006471201          1400 SJ3510               1AZ
115450004115450006-000172-A   115450006003000609765BALLOONS METALLIC PINK 0000002000+00000218+00000+0001T   00000218+0000001201          1400 SJ3131               1AZ
115450005115450103-000461     115450006001023795229FLOWER BASKET 26cm-DIA 0000001000+00002630+00000+0001T   00002630+0000001201          1400 SJ3300               1AZ
115450006115450112-116038     115450006009681820246TCS CARRIER BAG MIDI   0000001000+00000035+00000+0001T   00000035+0000001201          1400 SJ3090               1AZ
115450007115450001-000175     115450006001023788108B/MUG GLS LOVE 380ML   0000001000+00004385+00000+0001T   00004385+0000001201          1400 SJ3515               1AZ
115451000115451               115451               170213JR     1400+00000+JR0000011089+0000011089+000000000+000001557+0000012640+0000000006+I20000000000+0000012640+Z
115451001115451112-116069     115451006009681820277TCS CARRIER BAG JUMBO  0000001000+00000048+00000+0001T   00000048+0000001204          1400 SJ3090               1AZ
115451002115451077-000303     115451006001023593757GIFT-BAG PAPER MED     0000002000+00001578+00000+0001T   00001578+0000001204          1400 SJ3112               1AZ
115451003115451077-000011-D   115451006001023808554TISSUE-WRAP WHITE 10PCE0000001000+00000876+00000+0001T   00000876+0000001204          1400 SJ3112               1AZ
115451004115451304-001011     115451006001023806727FLWR ROSE RED W/BEAR   0000001000+00000613+00000+0001T   00000788+0006471204          1400 SJ3510               1AZ
115451005115451077-000926     115451006003000414178G/WRAP 700mmx2m LOVE   0000001000+00002192+00000+0001T   00002192+0000001204          1400 SJ3112               1AZ
115451006115451079-009702-D   115451006003000546671PAPER SIRIO A2 RED COL 0000002000+00001051+00000+0001T   00001051+0000001204          1400 SJ3130               1AZ
115451007115451079-009702-B   115451006003000546510PAPER SIRIO A2 WHITE   0000002000+00001051+00000+0001T   00001051+0000001204          1400 SJ3130               1AZ
115452000115452               115452               170213JR     1400+00000+JR0000012278-0000012278-000000000+000001720-0000014000-0000000002+I20000000000+0000014000-Z
115452001115452072-000604     115452006003000452682DOG-COLLAR 2.5x50cm LRG0000001000-00006139+00000+0001T   00006139+0000001210          1400 SJ38701IC            1 Z
115452002115452072-000604     115452006003000452682DOG-COLLAR 2.5x50cm LRG0000001000-00006139+00000+0001T   00006139+0000001210          1400 SJ38701IC            1 Z
115453000115453               115453               170213JR     1400+00000+JR0000006569+0000006569+000000000+000000923+0000007490+0000000002+I20000000000+0000007490+Z
115453001115453033-005921-B   115453006001023678348SEWING-THREAD 200m BLK 0000001000+00000876+00000+0001T   00000876+0000001212          1400 SJ3200               1AZ
115453002115453007-000209     115453006001023582102NOTE STICKY FILE MARKER0000001000+00001314+00000+0001T   00001314+0000001212          1400 SJ3130               1AZ
115453003115453033-005931     115453006001023678447PINS ON-WHEEL PEARLIZED0000001000+00000876+00000+0001T   00000876+0000001212          1400 SJ3200               1AZ
115453004115453566-000007     115453006001023761187S/BOOK SUPER VALUE     0000001000+00001753+00000+0001T   00001753+0000001212          1400 SJ3130               1AZ
115453005115453903-000012     115453006002099007308SWT MALLOW S/BERRY     0000002000+00000437+00000+0001T   00000437+0000001212          1400 SJ3150               1AZ
115453006115453077-000150-D   115453006003000054343GIFT-WRAP CELLPHANE CLR0000001000+00000876+00000+0001T   00000876+0000001212          1400 SJ3112               1AZ
115454000115454               115454               170213JR     1400+00000+JR0000008815+0000008815+000000000+000001235+0000010050+0000000000+I20000000000+0000010050+Z
115454001115454018-005009     115454006001023725608MUG W/PLUSH-BEAR LOVE  0000002000+00003507+00000+0001T   00003507+0000001214          1400 SJ3515               1CZ
115454002115454077-000299-A   115454006003000670888GIFT-BAG PAPER JMB LOVE0000001000+00001753+00000+0001T   00001753+0000001214          1400 SJ3112               1CZ
115454003115454112-116069     115454006009681820277TCS CARRIER BAG JUMBO  0000001000+00000048+00000+0001T   00000048+0000001214          1400 SJ3090               1CZ
115455000115455               115455               170213JR     1400+00000+JR0000044502+0000044502+000000000+000006236+0000050738+0000000000+I40000050738+0000000000+Z
115455001115455112-116069     115455006009681820277TCS CARRIER BAG JUMBO  0000001000+00000048+00000+0001T   00000048+0000001218          1400 SJ3090               1AZ
115455002115455562-058925     115455006003000599998EDU B/O TOY TABLET     0000001000+00011402+00000+0001T   00011402+0000001218          1400 SJ3755               1AZ
115455003115455034-078839     115455006003000622320COOEY BABY FEEDING SET 0000001000+00002630+00000+0001T   00002630+0000001218          1400 SJ3215               1AZ
115455004115455079-000344     115455006001023904010FELT-TIP PENS 12PCE    0000001000+00002630+00000+0001T   00002630+0000001218          1400 SJ3130               1AZ
115455005115455564-000012     115455006001023130075BUBBLE BOTTLE MAGIC    0000002000+00000700+00000+0001T   00000700+0000001218          1400 SJ3131               1AZ
115455006115455007-000204     115455006009635835272EXAM-PAD 60SHT PUNCHED 0000001000+00000964+00000+0001T   00000964+0000001218          1400 SJ3130               1AZ
115455007115455564-000012     115455006001023130075BUBBLE BOTTLE MAGIC    0000001000+00000700+00000+0001T   00000700+0000001218          1400 SJ3131               1AZ
115455008115455903-000510     115455006001704012621SWEET MS ZBDZ S/BERRY  0000001000+00001227+00000+0001T   00001227+0000001218          1400 SJ3150               1AZ
115455009115455903-000220     115455006001704007368SWT JELLY BEANS 60G    0000001000+00000876+00000+0001T   00000876+0000001218          1400 SJ3150               1AZ
115455010115455903-000087     115455006001704000161SWT SPECKLED-EGGS 50G  0000001000+00001139+00000+0001T   00001139+0000001218          1400 SJ3150               1AZ
115455011115455496-059416     115455000078257594160POOL BABY CRYSTAL-BLUE 0000001000+00007893+00000+0001T   00007893+0000001218          1400 SJ3787               1AZ
115455012115455304-001116     115455006003000426164F/BUNCH ROSES 12-HEAD  0000002000+00005262+00000+0001T   00005262+0000001218          1400 SJ3510               1AZ
115455013115455016-006513     115455006003000295739S/JAR GLS EMBOSS. 950ML0000001000+00003069+00000+0001T   00003069+0000001218          1400 SJ3300               1AZ
115456000115456               115456               170213JR     1400+00000+JR0000005523+0000005523+000000000+000000774+0000006290+0000000007+I20000000000+0000006290+Z
115456001115456077-000348     115456006001023483287GIFT-BOWS 4,5cm 8PCE   0000001000+00001578+00000+0001T   00001578+0000001219          1400 SJ3112               1DZ
115456002115456566-000031     115456006003000283910STICKER BK TEACHER STIC0000001000+00002192+00000+0001T   00002192+0000001219          1400 SJ3130               1DZ
115456003115456566-000007     115456006001023761187S/BOOK SUPER VALUE     0000001000+00001753+00000+0001T   00001753+0000001219          1400 SJ3130               1DZ
115457000115457               115457               170213JR     1400+00000+JR0000001753+0000001753+000000000+000000246+0000001990+0000000009+I20000000000+0000001990+Z
115457001115457077-000299-A   115457006003000670888GIFT-BAG PAPER JMB LOVE0000001000+00001753+00000+0001T   00001753+0000001220          1400 SJ3112               1AZ
115458000115458               115458               170213JR     1400+00000+JR0000005820+0000005820+000000000+000000816+0000006636+0000000000+I40000006636+0000000000+Z
115458001115458039-000114     115458006001023524058CANDLE T/LITE RED 3.5CM0000001000+00001753+00000+0001T   00001753+0000001224          1400 SJ3510               1DZ
115458002115458306-000019     115458006001023734846TOOTHBRUSH W/DESIGN    0000001000+00000525+00000+0001T   00000525+0000001224          1400 SJ3200               1DZ
115458003115458031-000847     115458006001023851871P/FRAME TWIN 10X15CM   0000001000+00003507+00000+0001T   00003507+0000001224          1400 SJ3510               1DZ
115458004115458112-116038     115458006009681820246TCS CARRIER BAG MIDI   0000001000+00000035+00000+0001T   00000035+0000001224          1400 SJ3090               1DZ
115459000115459               115459               170213JR     1400+00000+JR0000001578+0000001578+000000000+000000221+0000001799+0000000000+I40000001799+0000000000+Z
115459001115459080-000124     115459006003000297733CARD & ENV VALENTINES  0000001000+00001578+00000+0001T   00001578+0000001225          1400 SJ3112               1AZ
115460000115460               115460               170213JR     1400+00000+JR0000004385+0000004385+000000000+000000614+0000004990+0000000009+I20000000000+0000004990+Z
115460001115460206-000160     115460006003000628780CORN KERNELER          0000001000+00004385+00000+0001T   00004385+0000001232          1400 SJ3321               1DZ
115461000115461               115461               170213JR     1400+00000+JR0000008974+0000008974+000000000+000001260+0000010230+0000000004+I20000000000+0000010230+Z
115461001115461112-116038     115461006009681820246TCS CARRIER BAG MIDI   0000001000+00000035+00000+0001T   00000035+0000001236          1400 SJ3090               1AZ
115461002115461200-003026     115461006003000276448REFUSE BAGS 10PCE GREEN0000001000+00001753+00000+0001T   00001753+0000001236          1400 SJ3214               1AZ
115461003115461200-003024     115461006001023657299REFUSE BAGS 20PCE BLACK0000001000+00001753+00000+0001T   00001753+0000001236          1400 SJ3214               1AZ
115461004115461079-000206     115461006003000639700PENCIL CRAYONS THERAPY 0000001000+00001753+00000+0001T   00001753+0000001236          1400 SJ3130               1AZ
115461005115461078-000025     115461008887013700064SUPERGLUE 3g 1PCE CARD 0000001000+00000876+00000+0001T   00000876+0000001236          1400 SJ3810               1AZ
115461006115461133-000016     115461006003000240609DUSTERS ORANGE PACK-3  0000001000+00001753+00000+0001T   00001753+0000001236          1400 SJ3212               1AZ
115461007115461903-002850     115461000000087108262MENTOS ROLL FRUIT      0000001000+00001051+00000+0001T   00001051+0000001236          1400 SJ3150               1AZ
115462000115462               115462               170213JR     1400+00000+JR0000002454+0000002454+000000000+000000344+0000002798+0000000000+I40000002798+0000000000+Z
115462001115462077-000314     115462006003000181148GIFT-BAG 11X14CM MATT  0000001000+00000876+00000+0001T   00000876+0000001238          1400 SJ3112               1AZ
115462002115462080-000124     115462006003000297733CARD & ENV VALENTINES  0000001000+00001578+00000+0001T   00001578+0000001238          1400 SJ3112               1AZ
115463000115463               115463               170213JR     1400+00000+JR0000001578+0000001578+000000000+000000221+0000001790+0000000009+I20000000000+0000001790+Z
115463001115463077-000303     115463006001023593757GIFT-BAG PAPER MED     0000001000+00001578+00000+0001T   00001578+0000001242          1400 SJ3112               1AZ
115464000115464               115464               170213JR     1400+00000+JR0000008364+0000008364+000000000+000001172+0000009536+0000000000+I40000009536+0000000000+Z
115464001115464251-000002     115464006003000093991TAPE D-SIDED 24x1000mm 0000001000+00002192+00000+0001T   00002192+0000001245          1400 SJ3810               1AZ
115464002115464112-116038     115464006009681820246TCS CARRIER BAG MIDI   0000001000+00000035+00000+0001T   00000035+0000001245          1400 SJ3090               1AZ
115464003115464050-000889-TS  115464006003000687664PADLOCK COMBO RESETTABL0000001000+00002630+00000+0001T   00002630+0000001245          1400 SJ3855               1AZ
115464004115464204-000105     115464006001023722119MEMO-HOLDER WORDS 101PC0000001000+00003507+00000+0001T   00003507+0000001245          1400 SJ3300               1AZ
115465000115465               115465               170213JR     1400+00000+JR0000004646+0000004646+000000000+000000651+0000005290+0000000007+I20000000000+0000005290+Z
115465001115465082-098798     115465006001492987989SUNGLASS KIDS BOYS     0000001000+00003946+00000+0001T   00003946+0000001245          1400 SJ3160               1CZ
115465002115465362-004001     115465000613153010385PRINCESS ASSTD TRINKETS0000001000+00000700+00000+0001T   00000876+0008181245          1400 SJ3160               1CZ
115466000115466               115466               170213JR     1400+00000+JR0000004415+0000004415+000000000+000000620+0000005030+0000000005+I20000000000+0000005030+Z
115466001115466007-000045     115466006009608640438DISPLAY-POCKETS A4 10PC0000005000+00000876+00000+0001T   00000876+0000001250          1400 SJ3130               1AZ
115466002115466112-116038     115466006009681820246TCS CARRIER BAG MIDI   0000001000+00000035+00000+0001T   00000035+0000001250          1400 SJ3090               1AZ
115467000115467               115467               170213JR     1400+00000+JR0000019510+0000019510+000000000+000002733+0000022243+0000000000+I40000022243+0000000000+Z
115467001115467031-000923     115467006001023669933P/FRAME BLK W/WORDS    0000001000+00003507+00000+0001T   00003507+0000001253          1400 SJ3510               1AZ
115467002115467105-001031     115467000700371696627FOODSAVER 800ml        0000001000+00001314+00000+0001T   00001314+0000001253          1400 SJ3210               1AZ
115467003115467105-001032     115467000700371696634CONTAINER FOODSAVER 1.20000001000+00001753+00000+0001T   00001753+0000001253          1400 SJ3210               1AZ
115467004115467031-080508     115467006001023802415P/FRAME PL 22X11CM LOVE0000001000+00004385+00000+0001T   00004385+0000001253          1400 SJ3510               1AZ
115467005115467077-000315     115467006003000181186GIFT-BAG 20x28cm MATT  0000001000+00001578+00000+0001T   00001578+0000001253          1400 SJ3112               1AZ
115467006115467031-000923     115467006001023669933P/FRAME BLK W/WORDS    0000001000+00003507+00000+0001T   00003507+0000001253          1400 SJ3510               1AZ
115467007115467077-000310     115467006001023608635GIFT-BAG 18X23CM GLOSS 0000001000+00001314+00000+0001T   00001314+0000001253          1400 SJ3112               1AZ
115467008115467112-116069     115467006009681820277TCS CARRIER BAG JUMBO  0000001000+00000048+00000+0001T   00000048+0000001253          1400 SJ3090               1AZ
115467009115467903-000095     115467006001704011495SWT SPECKLED-EGGS 100G 0000001000+00002104+00000+0001T   00002104+0000001253          1400 SJ3150               1AZ
115468000115468               115468               170213JR     1400+00000+JR0000002541+0000002541+000000000+000000357+0000002898+0000000000+I40000002898+0000000000+Z
115468001115468077-000010-C   115468006001023123879CREPE-PAPER RED        0000001000+00000788+00000+0001T   00000788+0000001255          1400 SJ3112               1CZ
115468002115468079-006522     115468006001023149442ART+CRAFT GLUE ASSORTED0000001000+00001753+00000+0001T   00001753+0000001255          1400 SJ3130               1CZ
115469000115469               115469               170213JR     1400+00000+JR0000002455+0000002455+000000000+000000344+0000002790+0000000009+I20000000000+0000002790+Z
115469001115469077-000380     115469006003000247585GIFT-BAG 33X45CM S/COL 0000001000+00002455+00000+0001T   00002455+0000001256          1400 SJ3112               1CZ
115470000115470               115470               170213JR     1400+00000+JR0000007836+0000007836+000000000+000001099+0000008935+0000000000+I40000008935+0000000000+Z
115470001115470159-000041     115470006001023767684HOOK-HANGER 2PCE S/S   0000001000+00001753+00000+0001T   00001753+0000001301          1400 SJ3200               1AZ
115470002115470079-006494     115470006003000159864GLITTER GLUE 5PCE 11cm 0000001000+00001490+00000+0001T   00001490+0000001301          1400 SJ3130               1AZ
115470003115470007-000324     11547000600968585864125 SHEETS BRIGHTS MARLI0000001000+00003507+00000+0001T   00003507+0000001301          1400 SJ3130               1AZ
115470004115470112-116038     115470006009681820246TCS CARRIER BAG MIDI   0000001000+00000035+00000+0001T   00000035+0000001301          1400 SJ3090               1AZ
115470005115470079-009702-A   115470008427973059408PAPER SIRIO A2 BLACK   0000001000+00001051+00000+0001T   00001051+0000001301          1400 SJ3130               1AZ
115471000115471               115471               170213JR     1400+00000+JR0000003507+0000003507+000000000+000000491+0000003990+0000000008+I20000000000+0000003990+Z
115471001115471562-000020     115471006003000600861EDU PLAY DOUGH 60g 4PC 0000001000+00003507+00000+0001T   00003507+0000001418          1400 SJ3755               1AZ
115472000115472               115472               170213JR     1400+00000+JR0000001753+0000001753+000000000+000000246+0000001990+0000000009+I20000000000+0000001990+Z
115472001115472077-000299-A   115472006003000670888GIFT-BAG PAPER JMB LOVE0000001000+00001753+00000+0001T   00001753+0000001419          1400 SJ3112               1DZ
115473000115473               115473               170213JR     1400+00000+JR0000008275+0000008275+000000000+000001159+0000009430+0000000004+I20000000000+0000009430+Z
115473001115473304-001011     115473006001023806727FLWR ROSE RED W/BEAR   0000001000+00000613+00000+0001T   00000788+0006471427          1400 SJ3510               1AZ
115473002115473082-098954     115473006001492989549SUNGLASS KIDS ASSORTED 0000001000+00003507+00000+0001T   00003507+0000001427          1400 SJ3160               1AZ
115473003115473077-000321     115473006001023677501GIFT-BAG 11X14CM E/D FL0000001000+00000613+00000+0001T   00000613+0000001427          1400 SJ3112               1AZ
115473004115473112-116038     115473006009681820246TCS CARRIER BAG MIDI   0000001000+00000035+00000+0001T   00000035+0000001427          1400 SJ3090               1AZ
115473005115473162-010790     115473006001492107905#TAG KIDS WRIST WEAR   0000001000+00003507+00000+0001T   00003507+0000001427          1400 SJ3160               1AZ
115474000115474               115474               170213JR     1400+00000+JR0000010028+0000010028+000000000+000001406+0000011434+0000000000+I40000011434+0000000000+Z
115474001115474301-085002     115474006003000420704ORN OCC. LOVE BELL ASST0000001000+00001753+00000+0001T   00002630+0008121430          1400 SJ3505               1AZ
115474002115474077-000303     115474006001023593757GIFT-BAG PAPER MED     0000001000+00001578+00000+0001T   00001578+0000001430          1400 SJ3112               1AZ
115474003115474082-000340     115474006003000649037LENS CLOTH MOIST 30PC  0000001000+00002630+00000+0001T   00002630+0000001430          1400 SJ3160               1AZ
115474004115474206-000630     115474006003000631919SPECTACLE CLEANING BRUS0000002000+00001227+00000+0001T   00001227+0000001430          1400 SJ3321               1AZ
115474005115474080-000124     115474006003000297733CARD & ENV VALENTINES  0000001000+00001578+00000+0001T   00001578+0000001430          1400 SJ3112               1AZ
115474006115474112-116038     115474006009681820246TCS CARRIER BAG MIDI   0000001000+00000035+00000+0001T   00000035+0000001430          1400 SJ3090               1AZ
115475000115475               115475               170213JR     1400+00000+JR0000003681+0000003681+000000000+000000516+0000004190+0000000007+I20000000000+0000004190+Z
115475001115475077-000245     115475006001023759214GIFT-RIBBON METALLICx2 0000003000+00001227+00000+0001T   00001227+0000001432          1400 SJ3112               1AZ
115476000115476               115476               170213JR     1400+00000+JR0000000613+0000000613+000000000+000000086+0000000690+0000000009+I20000000000+0000000690+Z
115476001115476304-001011     115476006001023806727FLWR ROSE RED W/BEAR   0000001000+00000613+00000+0001T   00000788+0006471445          1400 SJ3510               1AZ
115477000115477               115477               170213JR     1400+00000+JR0000007014+0000007014+000000000+000000982+0000007990+0000000006+I20000000000+0000007990+Z
115477001115477301-085004     115477006003000420469ORN LOVE PLAQUE 21X10CM0000001000+00003507+00000+0001T   00003946+0006471520          1400 SJ3505               1AZ
115477002115477018-000136     115477006001023659026MUG OCC LOVE W/PLUSH   0000001000+00003507+00000+0001T   00003507+0000001520          1400 SJ3515               1AZ
115478000115478               115478               170213JR     1400+00000+JR0000003541+0000003541+000000000+000000497+0000004038+0000000000+I40000004038+0000000000+Z
115478001115478200-003024     115478006001023657299REFUSE BAGS 20PCE BLACK0000001000+00001753+00000+0001T   00001753+0000001522          1400 SJ3214               1AZ
115478002115478200-003026     115478006003000276448REFUSE BAGS 10PCE GREEN0000001000+00001753+00000+0001T   00001753+0000001522          1400 SJ3214               1AZ
115478003115478112-116038     115478006009681820246TCS CARRIER BAG MIDI   0000001000+00000035+00000+0001T   00000035+0000001522          1400 SJ3090               1AZ
115479000115479               115479               170213JR     1400+00000+JR0000006137+0000006137+000000000+000000860+0000006990+0000000007+I20000000000+0000006990+Z
115479001115479204-000059     115479006001023528162MEMO HOLDER APPS 18PC  0000001000+00002630+00000+0001T   00002630+0000001541          1400 SJ3300               1AZ
115479002115479204-000030     115479006003000683536MEMO HOLDER SAYINGS    0000001000+00003507+00000+0001T   00003507+0000001541          1400 SJ3300               1AZ
115480000115480               115480               170213JR     1400+00000+JR0000013153+0000013153+000000000+000001842+0000014995+0000000000+I40000014995+0000000000+Z
115480001115480366-001101     115480006003000006991DRESS UP BOYS ASSTD    0000001000+00006139+00000+0001T   00006139+0000001544          1400 SJ3131               1AZ
115480002115480567-010159     115480006003000484881BOOK TOP ASSTD CHILDREN0000002000+00003507+00000+0001T   00003507+0000001544          1400 SJ3757               1AZ
115481000115481               115481               170213JR     1400+00000+JR0000002835+0000002835+000000000+000000397+0000003230+0000000002+I20000000000+0000003230+Z
115481001115481564-000012     115481006001023130075BUBBLE BOTTLE MAGIC    0000004000+00000700+00000+0001T   00000700+0000001549          1400 SJ3131               1AZ
115481002115481112-116038     115481006009681820246TCS CARRIER BAG MIDI   0000001000+00000035+00000+0001T   00000035+0000001549          1400 SJ3090               1AZ
115482000115482               115482               170213JR     1400+00000+JR0000007747+0000007747+000000000+000001087+0000008834+0000000000+I40000008834+0000000000+Z
115482001115482018-000139     115482006003000547227MUG S/WARE SLANTED SHPE0000001000+00001753+00000+0001T   00002630+0008171552          1400 SJ3515               1AZ
115482002115482903-000499     115482006001704012492SWT CHOC MALLOWS 50g   0000001000+00001227+00000+0001T   00001227+0000001552          1400 SJ3150               1AZ
115482003115482903-000295     115482006001704002899SWT MS FRUITY RASCALS  0000001000+00000876+00000+0001T   00000876+0000001552          1400 SJ3150               1AZ
115482004115482018-000139     115482006003000547227MUG S/WARE SLANTED SHPE0000001000+00001753+00000+0001T   00002630+0008171552          1400 SJ3515               1AZ
115482005115482903-000499     115482006001704012492SWT CHOC MALLOWS 50g   0000001000+00001227+00000+0001T   00001227+0000001552          1400 SJ3150               1AZ
115482006115482903-000295     115482006001704002899SWT MS FRUITY RASCALS  0000001000+00000876+00000+0001T   00000876+0000001552          1400 SJ3150               1AZ
115482007115482112-116038     115482006009681820246TCS CARRIER BAG MIDI   0000001000+00000035+00000+0001T   00000035+0000001552          1400 SJ3090               1AZ
115483000115483               115483               170213JR     1400+00000+JR0000003945+0000003945+000000000+000000553+0000004498+0000000000+I40000004498+0000000000+Z
115483001115483024-091103     115483006003453014307BAKING-CUP MUFFIN 50PCE0000001000+00002192+00000+0001T   00002192+0000001558          1400 SJ3300               1CZ
115483002115483024-091100     115483006001023914224BAKING-CUPS PAPER 100PC0000001000+00001753+00000+0001T   00001753+0000001558          1400 SJ3300               1CZ
115484000115484               115484               170213JR     1400+00000+JR0000014067+0000014067+000000000+000001971+0000016038+0000000000+I40000016038+0000000000+Z
115484001115484368-000637     115484006001023874092PLUSH BEAR SLEEPING LOV0000001000+00011402+00000+0001T   00012279+0006471603          1400 SJ3745               1AZ
115484002115484077-000235     115484006003000160211GIFT-RIBBON ROLL METALC0000001000+00002630+00000+0001T   00002630+0000001603          1400 SJ3112               1AZ
115484003115484112-116038     115484006009681820246TCS CARRIER BAG MIDI   0000001000+00000035+00000+0001T   00000035+0000001603          1400 SJ3090               1AZ
115485000115485               115485               170213JR     1400+00000+JR0000000876+0000000876+000000000+000000123+0000000990+0000000009+I20000000000+0000000990+Z
115485001115485083-000295     115485006001023898562LIGHTER-GAS BUTANE 18ml0000001000+00000876+00000+0001T   00000876+0000001603          1400 SJ3315               1AZ
115486000115486               115486               170213JR     1400+00000+JR0000003507+0000003507+000000000+000000491+0000003998+0000000000+I40000003998+0000000000+Z
115486001115486002-000738     115486006001023770189GRATER 3-WAY PYRAMID   0000001000+00003507+00000+0001T   00003507+0000001605          1400 SJ3300               1AZ
115487000115487               115487               170213JR     1400+00000+JR0000006837+0000006837+000000000+000000958+0000007795+0000000000+I40000007795+0000000000+Z
115487001115487007-000211     115487006003000005796STATIONERY N/PAD 3PCK  0000001000+00001578+00000+0001T   00001578+0000001624          1400 SJ3130               1DZ
115487002115487103-000090     115487006001023795786WOVEN HEART SHAPED     0000001000+00003507+00000+0001T   00003507+0000001624          1400 SJ3300               1DZ
115487003115487077-000151     115487006008766114676GIFT-WRAP C/PHANE ASSTD0000001000+00000876+00000+0001T   00000876+0000001624          1400 SJ3112               1DZ
115487004115487071-005213     115487006001023690371CELLOTAPE 12mmx33m     0000001000+00000876+00000+0001T   00000876+0000001624          1400 SJ3130               1DZ
115488000115488               115488               170213JR     1400+00000+JR0000003100+0000003100+000000000+000000435+0000003530+0000000005+I20000000000+0000003530+Z
115488001115488304-001011     115488006001023806727FLWR ROSE RED W/BEAR   0000005000+00000613+00000+0001T   00000788+0006471712          1400 SJ3510               1DZ
115488002115488112-116038     115488006009681820246TCS CARRIER BAG MIDI   0000001000+00000035+00000+0001T   00000035+0000001712          1400 SJ3090               1DZ
M17021391                              CASH        JRSLAVE 1                       Z-REPORT No.   653TOTAL (Sales - Refunds)           3612.05       CASH TO BE BANKED                 1130.50       DEBIT CARDS                          0.00       CREDIT CARDS                      2481.55       Z-READING                         3612.05       AIRTIME DEBIT CARD SALES             0.00       AIRTIME CARD SALES                   0.00       OVERS/UNDERS                         0.00       AIRTIME CASH SALES                   0.00       GIFT CARDS                           0.00       GIFT CARD CASH SALES                 0.00       T O T A L  CASH PAYOUTS              0.00                                                                                                                                                                                                                                                                                                                                                      Z
M17021392                              CASH        JRABSENT                                                                                                                                                                                          ANNUAL LEAVE                                                                                                                                                                                    DAY OFF                                                                                                           THANK YO JR                                                                   COMMENTS                                                                                                                                                                                                                                                                                                                                                                                       Z
Y17021300                                          JR00000000329212+000049
ZJR17021319553 SLAVE 1      SALES DATA                     NEXT INVOICE NO.  115489 0653
X JR Slave 1 First invoice 115439 170213 Last invoice 115488 170213 Next invoice 115489 Total number of records 000000210 clbackup completed 19:55:08
