123193000123193               123193               170213JR     1400+00000+JR0000000876+0000000876+000000000+000000123+0000000999+0000000000+I40000000999+0000000000+Z
123193001123193033-010720     123193006001023678645SAFETY-PINS 50PCE SMALL0000001000+00000876+00000+0001T   00000876+0000000903          1400 TH9200               2CZ
123194000123194               123194               170213JR     1400+00000+JR0000003507+0000003507+000000000+000000491+0000003990+0000000008+I20000000000+0000003990+Z
123194001123194039-000330     123194006003000283002BDAY-CANDLES+HLDERS 24P0000001000+00003507+00000+0001T   00003507+0000000933          1400 TH9510               2CZ
123195000123195               123195               170213JR     1400+00000+JR0000004385+0000004385+000000000+000000614+0000004990+0000000009+I20000000000+0000004990+Z
123195001123195047-002040-H   123195006003000219117P/ADAPTOR 3x16A 3x5A   0000001000+00004385+00000+0001T   00004385+0000000934          1400 TH9880               2CZ
123196000123196               123196               170213JR     1400+00000+JR0000012313+0000012313+000000000+000001725+0000014038+0000000000+I40000014038+0000000000+Z
123196001123196072-000604     123196006003000452682DOG-COLLAR 2.5x50cm LRG0000002000+00006139+00000+0001T   00006139+0000000940          1400 TH9870               2AZ
123196002123196112-116038     123196006009681820246TCS CARRIER BAG MIDI   0000001000+00000035+00000+0001T   00000035+0000000940          1400 TH9090               2AZ
123197000123197               123197               170213JR     1400+00000+JR0000032030+0000032030+000000000+000004488+0000036518+0000000000+I40000036518+0000000000+Z
123197001123197112-116038     123197006009681820246TCS CARRIER BAG MIDI   0000001000+00000035+00000+0001T   00000035+0000000952          1400 TH9090               2AZ
123197002123197560-000113     123197006001023664464GOLD-FISH 4PC          0000001000+00003507+00000+0001T   00003507+0000000952          1400 TH9745               2AZ
123197003123197079-006496     123197006003000160105GLITTER SHAKERS        0000001000+00001753+00000+0001T   00001753+0000000952          1400 TH9130               2AZ
123197004123197466-000051     123197006001023800510WATER BOMB 4,5cm SET 6 0000001000+00003507+00000+0001T   00003507+0000000952          1400 TH9785               2AZ
123197005123197174-008032     123197006009654960603TRAVEL BOTTLES 50ml    0000001000+00001928+00000+0001T   00001928+0000000952          1400 TH9205               2AZ
123197006123197079-013032-C   123197006003000389520POLY SHAPES            0000001000+00001578+00000+0001T   00001578+0000000952          1400 TH9130               2AZ
123197007123197174-008026     123197006009654960429TRAVEL BOTTLES 2-PACK  0000001000+00003069+00000+0001T   00003069+0000000952          1400 TH9205               2AZ
123197008123197077-000470     123197006003000330171G-BAG DESGN SML 11X14CM0000002000+00001314+00000+0001T   00001314+0000000952          1400 TH9112               2AZ
123197009123197174-008028     123197006009654960825TRAVEL JARS 4-PACK     0000001000+00001928+00000+0001T   00001928+0000000952          1400 TH9205               2AZ
123197010123197019-071597     123197006008766071597PEBBLES 250g CLEAR  BAG0000002000+00002192+00000+0001T   00002192+0000000952          1400 TH9510               2AZ
123197011123197079-006496     123197006003000160105GLITTER SHAKERS        0000001000+00001753+00000+0001T   00001753+0000000952          1400 TH9130               2AZ
123197012123197019-071611     123197006003000513642PEBBLES W/GEM 10g CLEAR0000004000+00001490+00000+0001T   00001490+0000000952          1400 TH9510               2AZ
123198000123198               123198               170213JR     1400+00000+JR0000002630+0000002630+000000000+000000369+0000002990+0000000009+I20000000000+0000002990+Z
123198001123198033-001500     123198006003000575763BRA CLIPS 10-PACK      0000001000+00002630+00000+0001T   00002630+0000000952          1400 TH9200               2AZ
123199000123199               123199               170213JR     1400+00000+JR0000008328+0000008328+000000000+000001168+0000009496+0000000000+I40000009496+0000000000+Z
123199001123199033-001500     123199006003000575763BRA CLIPS 10-PACK      0000001000+00002630+00000+0001T   00002630+0000000955          1400 TH9200               2AZ
123199002123199566-000007     123199006001023761187S/BOOK SUPER VALUE     0000001000+00001753+00000+0001T   00001753+0000000955          1400 TH9130               2AZ
123199003123199566-000036     123199006003000384051STICKERS MOTIVATION    0000001000+00001753+00000+0001T   00001753+0000000955          1400 TH9130               2AZ
123199004123199566-000031     123199006003000283910STICKER BK TEACHER STIC0000001000+00002192+00000+0001T   00002192+0000000955          1400 TH9130               2AZ
123200000123200               123200               170213JR     1400+00000+JR0000006139+0000006139+000000000+000000860+0000006999+0000000000+I40000006999+0000000000+Z
123200001123200486-001004     123200006001023800039ALARM 3-FUNCTN  7x4.5cm0000001000+00006139+00000+0001T   00006139+0000001003          1400 TH9510               2AZ
123201000123201               123201               170213JR     1400+00000+JR0000001311+0000001311+000000000+000000186+0000001490+0000000007+I20000000000+0000001490+Z
123201001123201083-000049     123201004891035200024CIG-LIGHTER DISPOSABLE 0000003000+00000437+00000+0001T   00000437+0000001005          1400 TH9315               2AZ
123202000123202               123202               170213JR     1400+00000+JR0000001314+0000001314+000000000+000000184+0000001498+0000000000+I40000001498+0000000000+Z
123202001123202006-000166-D   123202006003000516490BALLOONS LRG 6PC RED   0000001000+00001314+00000+0001T   00001314+0000001007          1400 TH9131               2AZ
123203000123203               123203               170213JR     1400+00000+JR0000001314+0000001314+000000000+000000184+0000001490+0000000008+I20000000000+0000001490+Z
123203001123203046-000012     123203006904708013062BATTERIES AA  CARD-OF-40000001000+00001314+00000+0001T   00001314+0000001012          1400 TH9312               2CZ
123204000123204               123204               170213JR     1400+00000+JR0000009937+0000009937+000000000+000001392+0000011329+0000000000+I40000011329+0000000000+Z
123204001123204112-116038     123204006009681820246TCS CARRIER BAG MIDI   0000001000+00000035+00000+0001T   00000035+0000001014          1400 TH9090               2AZ
123204002123204007-000561     123204006003000589128NOVELTY NOTEBOOK       0000001000+00003507+00000+0001T   00003507+0000001014          1400 TH9130               2AZ
123204003123204077-000010-C   123204006001023123879CREPE-PAPER RED        0000001000+00000788+00000+0001T   00000788+0000001014          1400 TH9112               2AZ
123204004123204031-000844     123204006001023851789P/FRAME WDN WORDS 2ASS 0000001000+00003507+00000+0001T   00003507+0000001014          1400 TH9510               2AZ
123204005123204018-000177     123204006001023797513MUG MINI LOVE ASSTD    0000003000+00000700+00000+0001T   00000700+0000001014          1400 TH9515               2AZ
123205000123205               123205               170213JR     1400+00000+JR0000007892+0000007892+000000000+000001106+0000008990+0000000008+I20000000000+0000008990+Z
123205001123205562-000205     123205006001023806987EDU TRAIN 37cm         0000001000+00007016+00000+0001T   00007016+0000001029          1400 TH9755               2AZ
123205002123205567-014132     123205006003000560028BOOK COLOURING 24 PAGE 0000001000+00000876+00000+0001T   00000876+0000001029          1400 TH9757               2AZ
123206000123206               123206               170213JR     1400+00000+JR0000021778+0000021778+000000000+000003053+0000024830+0000000001+I20000000000+0000024830+Z
123206001123206301-085007     123206006003000673698ORN OCC. LOVE S/PLAQUE 0000001000+00007893+00000+0001T   00007893+0000001033          1400 TH9505               2AZ
123206002123206301-085001     123206006003000297610ORN WATERBALL LOVE ASST0000002000+00004823+00000+0001T   00004823+0000001033          1400 TH9505               2AZ
123206003123206112-116038     123206006009681820246TCS CARRIER BAG MIDI   0000001000+00000035+00000+0001T   00000035+0000001033          1400 TH9090               2AZ
123206004123206903-000844     123206005010478432567SWT CANDY DL LUV HEARTS0000002000+00001314+00000+0001T   00001314+0000001033          1400 TH9150               2AZ
123206005123206903-000201     123206006009826020371SWT CHOC HEART 30g     0000001000+00000788+00000+0001T   00000788+0000001033          1400 TH9150               2AZ
123206006123206903-000200     123206006009826020234SWT CHOC RP CHOCO 23G  0000001000+00000788+00000+0001T   00000788+0000001033          1400 TH9150               2AZ
123207000123207               123207               170213JR     1400+00000+JR0000002980+0000002980+000000000+000000418+0000003390+0000000008+I20000000000+0000003390+Z
123207001123207079-003007     123207006003000448487A/TUBE 75ML BROWN      0000001000+00001753+00000+0001T   00001753+0000001042          1400 TH9130               2AZ
123207002123207071-081091     123207006001151010287STAED/GENKEM ALL-STICK 0000001000+00001227+00000+0001T   00001227+0000001042          1400 TH9130               2AZ
123208000123208               123208               170213JR     1400+00000+JR0000002367+0000002367+000000000+000000332+0000002699+0000000000+I40000002699+0000000000+Z
123208001123208108-001105-B   123208006005387000258MIXING-BOWL PLTNM/BLUE 0000001000+00002367+00000+0001T   00002367+0000001044          1400 TH9210               2AZ
123209000123209               123209               170213JR     1400+00000+JR0000009502+0000009502+000000000+000001331+0000010830+0000000003+I20000000000+0000010830+Z
123209001123209112-116038     123209006009681820246TCS CARRIER BAG MIDI   0000001000+00000035+00000+0001T   00000035+0000001053          1400 TH9090               2AZ
123209002123209564-000012     123209006001023130075BUBBLE BOTTLE MAGIC    0000001000+00000700+00000+0001T   00000700+0000001053          1400 TH9131               2AZ
123209003123209065-006041     123209006001023712974TAMBOURINE 15cm P/BAND 0000001000+00001753+00000+0001T   00001753+0000001053          1400 TH9745               2AZ
123209004123209065-000053     123209006001023756879MUSICAL HAMMER         0000001000+00003507+00000+0001T   00003507+0000001053          1400 TH9745               2AZ
123209005123209065-006040     123209006003000118984BELL WDN HANDLE 19cm   0000001000+00003507+00000+0001T   00003507+0000001053          1400 TH9745               2AZ
123210000123210               123210               170213JR     1400+00000+JR0000008329+0000008329+000000000+000001167+0000009496+0000000000+I40000009496+0000000000+Z
123210001123210018-000136     123210006001023659026MUG OCC LOVE W/PLUSH   0000001000+00003507+00000+0001T   00003507+0000001055          1400 TH9515               2AZ
123210002123210031-086303-A   123210006003000322206P/FRM CHAMPAGNE 10X15CM0000001000+00003069+00000+0001T   00003069+0000001055          1400 TH9510               2AZ
123210003123210077-000299-A   123210006003000670888GIFT-BAG PAPER JMB LOVE0000001000+00001753+00000+0001T   00001753+0000001055          1400 TH9112               2AZ
123211000123211               123211               170213JR     1400+00000+JR0000011779+0000011779+000000000+000001653+0000013430+0000000002+I20000000000+0000013430+Z
123211001123211112-116038     123211006009681820246TCS CARRIER BAG MIDI   0000001000+00000035+00000+0001T   00000035+0000001124          1400 TH9090               2AZ
123211002123211567-014132     123211006003000560028BOOK COLOURING 24 PAGE 0000002000+00000876+00000+0001T   00000876+0000001124          1400 TH9757               2AZ
123211003123211566-000344     123211006001023994806STICKER ALBUM+STICKERS 0000002000+00001753+00000+0001T   00001753+0000001124          1400 TH9130               2AZ
123211004123211565-000990     123211006001023673510NOVELTY STICKY SLAPPER 0000002000+00001490+00000+0001T   00001490+0000001124          1400 TH9745               2AZ
123211005123211362-003003     123211006003000295616HAIR BAND SET 6PCE     0000001000+00001753+00000+0001T   00001753+0000001124          1400 TH9160               2AZ
123211006123211369-001138     123211006003000555185VINYL 8.5cm THEMED DUCK0000001000+00001753+00000+0001T   00002630+0008141124          1400 TH9745               2AZ
123212000123212               123212               170213JR     1400+00000+JR0000005697+0000005697+000000000+000000799+0000006496+0000000000+I40000006496+0000000000+Z
123212001123212077-000452     123212006003000284986G/BAG METALLIC MED EMB 0000001000+00001490+00000+0001T   00001490+0000001130          1400 TH9112               2CZ
123212002123212030-000030-A   123212006003000249305PLAQUE GLASS LOVE      0000001000+00003069+00000+0001T   00003069+0000001130          1400 TH9505               2CZ
123212003123212304-001308-A   123212006003000442041FLWR HEART SHAPED 38CM 0000001000+00000525+00000+0001T   00000525+0000001130          1400 TH9510               2CZ
123212004123212304-001011     123212006001023806727FLWR ROSE RED W/BEAR   0000001000+00000613+00000+0001T   00000788+0006471130          1400 TH9510               2CZ
123213000123213               123213               170213JR     1400+00000+JR0000003507+0000003507+000000000+000000491+0000003998+0000000000+I40000003998+0000000000+Z
123213001123213369-000035     123213006001023795885EDU STACKING-SET ASSTD 0000001000+00003507+00000+0001T   00003507+0000001133          1400 TH9745               2AZ
123214000123214               123214               170213JR     1400+00000+JR0000002190+0000002190+000000000+000000307+0000002497+0000000000+I40000002497+0000000000+Z
123214001123214077-000010-C   123214006001023123879CREPE-PAPER RED        0000001000+00000788+00000+0001T   00000788+0000001137          1400 TH9112               2AZ
123214002123214077-000299     123214006003000395576G/BAG 32x25cm LRG LOVE 0000001000+00001490+00000+0001T   00001490+0000001137          1400 TH9112               2AZ
123214003123214077-000010-C   123214006001023123879CREPE-PAPER RED        0000001000-00000788+00000+0001T   00000788+0000001137          1400 TH91121IC            2 Z
123214004123214903-000126     123214006002099003591SWT ZILLIONS MINT 50G  0000001000+00000700+00000+0001T   00000700+0000001137          1400 TH9150               2AZ
123215000123215               123215               170213JR     1400+00000+JR0000007064+0000007064+000000000+000000990+0000008050+0000000004+I20000000000+0000008050+Z
123215001123215174-000305     123215006003000105502TRAVEL NECK-PILLOW     0000001000+00007016+00000+0001T   00007016+0000001138          1400 TH9205               2AZ
123215002123215112-116069     123215006009681820277TCS CARRIER BAG JUMBO  0000001000+00000048+00000+0001T   00000048+0000001138          1400 TH9090               2AZ
123216000123216               123216               170213JR     1400+00000+JR0000012279+0000012279+000000000+000001720+0000013990+0000000009+I20000000000+0000013990+Z
123216001123216368-000113     123216006001023780874PLUSH BLINGED LOVE 30cm0000001000+00012279+00000+0001T   00012279+0000001139          1400 TH9745               2AZ
123217000123217               123217               170213JR     1400+00000+JR0000092673+0000092673+000000000+000012986+0000105659+0000000000+I40000105659+0000000000+Z
123217001123217036-000405     123217006001023630247CLOTHES DRYER PL 18-PEG0000001000+00004385+00000+0001T   00004385+0000001155          1400 TH9212               2AZ
123217002123217133-061111     123217006001023775092TOWEL MAGIC ALL-PURPOSE0000001000+00002630+00000+0001T   00002630+0000001155          1400 TH9212               2AZ
123217003123217562-002004     123217006003000229017EDU THINK WHOSE BABY   0000001000+00007016+00000+0001T   00007016+0000001155          1400 TH9755               2AZ
123217004123217267-001998     123217008711147355350PUZZLE 300pc FAIRY-TALE0000001000+00005262+00000+0001T   00005262+0000001155          1400 TH9755               2AZ
123217005123217087-000102     123217006003000137466HAIR TRIMMER SET       0000001000+00003507+00000+0001T   00003507+0000001155          1400 TH9200               2AZ
123217006123217079-014004     123217006003000080045ART+CRAFT JEWELRY ASSTD0000001000+00003507+00000+0001T   00003507+0000001155          1400 TH9130               2AZ
123217007123217306-007303     123217006003000532476MASSAGER (FOR HEAD)    0000001000+00002630+00000+0001T   00002630+0000001155          1400 TH9200               2AZ
123217008123217002-021064     123217006001023822246TOOTHPICKS IN-HOLDER   0000001000+00001490+00000+0001T   00001490+0000001155          1400 TH9300               2AZ
123217009123217002-021042     123217006001023621801TOOTHPICKS 250PCE      0000001000+00001227+00000+0001T   00001227+0000001155          1400 TH9300               2AZ
123217010123217562-002008     123217006003000228300EDU THINK SIMPLE SUMS  0000001000+00007016+00000+0001T   00007016+0000001155          1400 TH9755               2AZ
123217011123217036-000606     123217006003000322213WASHING PEGS PACK 20   0000001000+00000876+00000+0001T   00001314+0008191155          1400 TH9212               2AZ
123217012123217565-000889     123217006003000626953NOVELTY SPACE BALLOONS 0000001000+00001753+00000+0001T   00001753+0000001155          1400 TH9745               2AZ
123217013123217204-000105     123217006001023722119MEMO-HOLDER WORDS 101PC0000001000+00003507+00000+0001T   00003507+0000001155          1400 TH9300               2AZ
123217014123217200-000042     123217006001023868886BAG-SEALERS 10PCE      0000001000+00002630+00000+0001T   00002630+0000001155          1400 TH9214               2AZ
123217015123217306-001001     123217006003000519804FIRSTAID PLASTER FABRIC0000001000+00002630+00000+0001T   00002630+0000001155          1400 TH9200               2AZ
123217016123217306-000977     123217006003000559596FIRSTAID PLASTER 75PC  0000001000+00002630+00000+0001T   00002630+0000001155          1400 TH9200               2AZ
123217017123217071-003043     123217006003000143948PEN CALIGRAPHY SET 8PCE0000001000+00003507+00000+0001T   00003507+0000001155          1400 TH9130               2AZ
123217018123217036-000606     123217006003000322213WASHING PEGS PACK 20   0000001000+00000876+00000+0001T   00001314+0008191155          1400 TH9212               2AZ
123217019123217079-013098     123217006003000197040ART+CRAFT SET DIY      0000001000+00003069+00000+0001T   00003069+0000001155          1400 TH9130               2AZ
123217020123217036-000402     123217006003000572250CLOTHES DRYER WITH PEGS0000001000+00002630+00000+0001T   00002630+0000001155          1400 TH9212               2AZ
123217021123217562-002009     123217006003000228423EDU SPELLING PUZZLES   0000001000+00007016+00000+0001T   00007016+0000001155          1400 TH9755               2AZ
123217022123217301-085004     123217006003000420469ORN LOVE PLAQUE 21X10CM0000001000+00003507+00000+0001T   00003946+0006471155          1400 TH9505               2AZ
123217023123217018-000136     123217006001023659026MUG OCC LOVE W/PLUSH   0000001000+00003507+00000+0001T   00003507+0000001155          1400 TH9515               2AZ
123217024123217565-004101     123217006003000548033BALL BOUNCING EGG      0000001000+00001490+00000+0001T   00001490+0000001155          1400 TH9745               2AZ
123217025123217077-000299-A   123217006003000670888GIFT-BAG PAPER JMB LOVE0000001000+00001753+00000+0001T   00001753+0000001155          1400 TH9112               2AZ
123217026123217018-005009     123217006001023725608MUG W/PLUSH-BEAR LOVE  0000001000+00003507+00000+0001T   00003507+0000001155          1400 TH9515               2AZ
123217027123217080-000127     123217006003000424351VALENTINES DAY 36x24CM 0000001000+00002192+00000+0001T   00002192+0000001155          1400 TH9112               2AZ
123217028123217018-000130     123217006001023867537MUG OCC LOVE MINI+HEART0000001000+00003507+00000+0001T   00003507+0000001155          1400 TH9515               2AZ
123217029123217903-000194     123217006009826020616SWT CHOC RP LOLLY 25G  0000002000+00001314+00000+0001T   00001314+0000001155          1400 TH9150               2AZ
123217030123217903-000200     123217006009826020234SWT CHOC RP CHOCO 23G  0000001000+00000788+00000+0001T   00000788+0000001155          1400 TH9150               2AZ
123218000123218               123218               170213JR     1400+00000+JR0000001753+0000001753+000000000+000000246+0000001999+0000000000+I40000001999+0000000000+Z
123218001123218200-003024     123218006001023657299REFUSE BAGS 20PCE BLACK0000001000+00001753+00000+0001T   00001753+0000001157          1400 TH9214               2AZ
123219000123219               123219               170213JR     1400+00000+JR0000011608+0000011608+000000000+000001628+0000013236+0000000000+I40000013236+0000000000+Z
123219001123219106-000901     123219006003000538058WATER BOTTLE 600ml     0000001000+00006139+00000+0001T   00006139+0000001200          1400 TH9210               2AZ
123219002123219903-002853     123219000000087108019MENTOS ROLL MINT       0000001000+00001051+00000+0001T   00001051+0000001200          1400 TH9150               2AZ
123219003123219036-005010     123219006002580008739COATHANGER KIDDIES PL  0000001000+00002630+00000+0001T   00002630+0000001200          1400 TH9212               2AZ
123219004123219903-000612     123219006003000617449SWT TRUMPET 20cm       0000001000+00001753+00000+0001T   00001753+0000001200          1400 TH9150               2AZ
123219005123219112-116038     123219006009681820246TCS CARRIER BAG MIDI   0000001000+00000035+00000+0001T   00000035+0000001200          1400 TH9090               2AZ
123220000123220               123220               170213JR     1400+00000+JR0000002891+0000002891+000000000+000000406+0000003290+0000000007+I20000000000+0000003290+Z
123220001123220903-004962     123220008410525221880SWT FINI BLCK/RED 50g  0000001000+00000964+00000+0001T   00000964+0000001204          1400 TH9150               2AZ
123220002123220007-000235     123220006003000134434LABELS RECTANGULAR 60pc0000001000+00000876+00000+0001T   00000876+0000001204          1400 TH9130               2AZ
123220003123220903-000015     123220006003000690947SWT MIKE N IKE B/BLAST 0000001000+00001051+00000+0001T   00001051+0000001204          1400 TH9150               2AZ
123221000123221               123221               170213JR     1400+00000+JR0000008064+0000008064+000000000+000001131+0000009195+0000000000+I40000009195+0000000000+Z
123221001123221903-000517     123221006001704012768SWT STRAWS FIZZY CHERRY0000003000+00001227+00000+0001T   00001227+0000001206          1400 TH9150               2AZ
123221002123221206-000220     123221006003000631704EGG TIMER COLOUR-CHANGE0000001000+00002630+00000+0001T   00002630+0000001206          1400 TH9321               2AZ
123221003123221079-013032     123221006003000389209SET LETTERS 2 ASSTD    0000001000+00001753+00000+0001T   00001753+0000001206          1400 TH9130               2AZ
123222000123222               123222               170213JR     1400+00000+JR0000004998+0000004998+000000000+000000700+0000005690+0000000008+I20000000000+0000005690+Z
123222001123222018-030000     123222006003000421060MUG OCCASIONS LOVE 2PCE0000001000+00004385+00000+0001T   00004385+0000001303          1400 TH9515               2AZ
123222002123222304-001011     123222006001023806727FLWR ROSE RED W/BEAR   0000001000+00000613+00000+0001T   00000788+0006471303          1400 TH9510               2AZ
123223000123223               123223               170213JR     1400+00000+JR0000014501+0000014501+000000000+000002032+0000016533+0000000000+I40000016533+0000000000+Z
123223001123223112-116038     123223006009681820246TCS CARRIER BAG MIDI   0000001000+00000035+00000+0001T   00000035+0000001308          1400 TH9090               2CZ
123223002123223079-000195     123223006003000161485P/CRAYONS RETRCTBLEx10 0000002000+00003507+00000+0001T   00003507+0000001308          1400 TH9130               2CZ
123223003123223567-004952     123223009780636049079TYB G01 ENGLISH        0000001000+00002192+00000+0001T   00002192+0000001308          1400 TH9757               2CZ
123223004123223567-011493     123223000076645122063BK COLOURING 96P SCHOOL0000001000+00002630+00000+0001T   00002630+0000001308          1400 TH9757               2CZ
123223005123223567-011446     123223009780857266187BK COLOURING EARLY LEAR0000001000+00003507+00000+0001T   00003507+0000001308          1400 TH9757               2CZ
123223006123223567-011501     123223000076645122018BK ACTIVITY 96P BIBLE  0000001000+00002630+00000+0001T   00002630+0000001308          1400 TH9757               2CZ
123223007123223079-000195     123223006003000161485P/CRAYONS RETRCTBLEx10 0000001000-00003507+00000+0001T   00003507+0000001308          1400 TH91301IC            2 Z
123224000123224               123224               170213JR     1400+00000+JR0000003069+0000003069+000000000+000000430+0000003490+0000000009+I20000000000+0000003490+Z
123224001123224030-000030-A   123224006003000249305PLAQUE GLASS LOVE      0000001000+00003069+00000+0001T   00003069+0000001309          1400 TH9505               2CZ
123225000123225               123225               170213JR     1400+00000+JR0000015347+0000015347+000000000+000002149+0000017496+0000000000+I40000017496+0000000000+Z
123225001123225006-000190     123225006003000685530BALLOONS LOVE 81x91cm  0000003000+00004385+00000+0001T   00004385+0000001312          1400 TH9131               2AZ
123225002123225080-000127     123225006003000424351VALENTINES DAY 36x24CM 0000001000+00002192+00000+0001T   00002192+0000001312          1400 TH9112               2AZ
123226000123226               123226               170213JR     1400+00000+JR0000003506+0000003506+000000000+000000492+0000003990+0000000008+I20000000000+0000003990+Z
123226001123226080-000113     123226006003000237449CARD&ENVLPE - LOVE     0000001000+00001753+00000+0001T   00001753+0000001314          1400 TH9112               2CZ
123226002123226077-000115     123226006001023834225WRAP METALLIC 700mmx1m 0000001000+00001753+00000+0001T   00001753+0000001314          1400 TH9112               2CZ
123227000123227               123227               170213JR     1400+00000+JR0000002976+0000002976+000000000+000000418+0000003394+0000000000+I40000003394+0000000000+Z
123227001123227089-000192-A   123227006001023901774KEY-CHAIN ACRYLIC      0000001000+00000876+00000+0001T   00000876+0000001316          1400 TH9205               2AZ
123227002123227362-019375     123227006001023730664HAIR BAND SET 24PCE    0000001000+00000876+00000+0001T   00000876+0000001316          1400 TH9160               2AZ
123227003123227362-004001     123227000613153010385PRINCESS ASSTD TRINKETS0000001000+00000700+00000+0001T   00000876+0008181316          1400 TH9160               2AZ
123227004123227903-000099     123227006923431501646SWT CANDY GS WTCH B/LET0000002000+00000262+00000+0001T   00000262+0000001316          1400 TH9150               2AZ
123228000123228               123228               170213JR     1400+00000+JR0000009411+0000009411+000000000+000001321+0000010732+0000000000+I40000010732+0000000000+Z
123228001123228089-060027     123228006003000245871KEY-CHAIN HEART 6X6cm  0000002000+00003069+00000+0001T   00003069+0000001324          1400 TH9205               2AZ
123228002123228903-000183     123228006003000451043SWT LB HEART LOLLY     0000002000+00000393+00000+0001T   00000393+0000001324          1400 TH9150               2AZ
123228003123228077-000311     123228006001023608666GIFT-BAG 11X14CM GLOSS 0000002000+00000613+00000+0001T   00000613+0000001324          1400 TH9112               2AZ
123228004123228304-001011     123228006001023806727FLWR ROSE RED W/BEAR   0000002000+00000613+00000+0001T   00000788+0006471324          1400 TH9510               2AZ
123228005123228112-116038     123228006009681820246TCS CARRIER BAG MIDI   0000001000+00000035+00000+0001T   00000035+0000001324          1400 TH9090               2AZ
123229000123229               123229               170213JR     1400+00000+JR0000002937+0000002937+000000000+000000412+0000003349+0000000000+I40000003349+0000000000+Z
123229001123229112-116069     123229006009681820277TCS CARRIER BAG JUMBO  0000001000+00000048+00000+0001T   00000048+0000001325          1400 TH9090               2AZ
123229002123229200-000065     123229006001023323675DRINKING-STRAWS 38PCE  0000001000+00000613+00000+0001T   00000613+0000001325          1400 TH9214               2AZ
123229003123229038-047246     123229006001023873750PLACEMAT 44x28cm KIDS  0000001000+00000876+00000+0001T   00000876+0000001325          1400 TH9300               2AZ
123229004123229018-000177     123229006001023797513MUG MINI LOVE ASSTD    0000001000+00000700+00000+0001T   00000700+0000001325          1400 TH9515               2AZ
123229005123229564-000012     123229006001023130075BUBBLE BOTTLE MAGIC    0000001000+00000700+00000+0001T   00000700+0000001325          1400 TH9131               2AZ
123230000123230               123230               170213JR     1400+00000+JR0000014911+0000014911+000000000+000002088+0000016999+0000000000+I40000016999+0000000000+Z
123230001123230031-001001     123230006003000253265P/FRAME COL FAM-TREE   0000001000+00014911+00000+0001T   00014911+0000001327          1400 TH9510               2CZ
123231000123231               123231               170213JR     1400+00000+JR0000002401+0000002401+000000000+000000337+0000002730+0000000008+I20000000000+0000002730+Z
123231001123231304-001011     123231006001023806727FLWR ROSE RED W/BEAR   0000001000+00000613+00000+0001T   00000788+0006471328          1400 TH9510               2CZ
123231002123231903-000619     123231006003000672455SWT LOLLY STR/BRRY 140G0000001000+00001753+00000+0001T   00001753+0000001328          1400 TH9150               2CZ
123231003123231112-116038     123231006009681820246TCS CARRIER BAG MIDI   0000001000+00000035+00000+0001T   00000035+0000001328          1400 TH9090               2CZ
123232000123232               123232               170213JR     1400+00000+JR0000021683+0000021683+000000000+000003042+0000024725+0000000000+I40000024725+0000000000+Z
123232001123232112-116038     123232006009681820246TCS CARRIER BAG MIDI   0000001000+00000035+00000+0001T   00000035+0000001331          1400 TH9090               2AZ
123232002123232304-001142     123232006003000679256FLWR MINI SUCCULENT 7CM0000001000+00001490+00000+0001T   00001490+0000001331          1400 TH9510               2AZ
123232003123232304-001141     123232006003000679133FLOWER MINI SUCCULENT  0000002000+00001139+00000+0001T   00001139+0000001331          1400 TH9510               2AZ
123232004123232304-001142     123232006003000679256FLWR MINI SUCCULENT 7CM0000004000+00001490+00000+0001T   00001490+0000001331          1400 TH9510               2AZ
123232005123232304-001141     123232006003000679133FLOWER MINI SUCCULENT  0000001000+00001139+00000+0001T   00001139+0000001331          1400 TH9510               2AZ
123232006123232304-001142     123232006003000679256FLWR MINI SUCCULENT 7CM0000003000+00001490+00000+0001T   00001490+0000001331          1400 TH9510               2AZ
123232007123232304-001141     123232006003000679133FLOWER MINI SUCCULENT  0000001000+00001139+00000+0001T   00001139+0000001331          1400 TH9510               2AZ
123232008123232304-001142     123232006003000679256FLWR MINI SUCCULENT 7CM0000002000+00001490+00000+0001T   00001490+0000001331          1400 TH9510               2AZ
123232009123232566-000068     123232006003000418046POP UP LOVE 2 ASSTD    0000001000+00002192+00000+0001T   00002192+0000001331          1400 TH9130               2AZ
123233000123233               123233               170213JR     1400+00000+JR0000006173+0000006173+000000000+000000865+0000007038+0000000000+I40000007038+0000000000+Z
123233001123233200-000093     123233006003000582020PICNIC BOWLS PL 15PC   0000002000+00003069+00000+0001T   00003069+0000001333          1400 TH9214               2AZ
123233002123233112-116038     123233006009681820246TCS CARRIER BAG MIDI   0000001000+00000035+00000+0001T   00000035+0000001333          1400 TH9090               2AZ
123234000123234               123234               170213JR     1400+00000+JR0000005957+0000005957+000000000+000000836+0000006790+0000000003+I20000000000+0000006790+Z
123234001123234079-009702-G   123234008427973060787PAPER SIRIO A2 FUSHIA  0000001000+00001051+00000+0001T   00001051+0000001335          1400 TH9130               2AZ
123234002123234079-009702-D   123234008427973059354PAPER SIRIO A2 RED COL 0000001000+00001051+00000+0001T   00001051+0000001335          1400 TH9130               2AZ
123234003123234077-000245     123234006001023759214GIFT-RIBBON METALLICx2 0000001000+00001227+00000+0001T   00001227+0000001335          1400 TH9112               2AZ
123234004123234006-000166-D   123234006003000516490BALLOONS LRG 6PC RED   0000002000+00001314+00000+0001T   00001314+0000001335          1400 TH9131               2AZ
123235000123235               123235               170213JR     1400+00000+JR0000002978+0000002978+000000000+000000419+0000003390+0000000007+I20000000000+0000003390+Z
123235001123235077-000300     123235006001023483249GIFT BOX OCCASIONS HEXG0000001000+00002192+00000+0001T   00002192+0000001341          1400 TH9112               2AZ
123235002123235903-000183     123235006003000451043SWT LB HEART LOLLY     0000002000+00000393+00000+0001T   00000393+0000001341          1400 TH9150               2AZ
123236000123236               123236               170213JR     1400+00000+JR0000001925+0000001925+000000000+000000271+0000002196+0000000000+I40000002196+0000000000+Z
123236001123236564-000012     123236006001023130075BUBBLE BOTTLE MAGIC    0000001000+00000700+00000+0001T   00000700+0000001346          1400 TH9131               2CZ
123236002123236080-000133     123236006003000535613CARD&ENV MINI ASTD DSGN0000001000+00000437+00000+0001T   00000437+0000001346          1400 TH9112               2CZ
123236003123236077-000010-C   123236006001023123879CREPE-PAPER RED        0000001000+00000788+00000+0001T   00000788+0000001346          1400 TH9112               2CZ
123237000123237               123237               170213JR     1400+00000+JR0000021920+0000021920+000000000+000003071+0000024991+0000000000+I40000024991+0000000000+Z
123237001123237024-000039     123237006003000114030MEASURING-JUG PL 1,0L  0000001000+00003946+00000+0001T   00005262+0008121348          1400 TH9300               2AZ
123237002123237079-000336     123237006003000670758SUPER FINE MARKER PENS 0000001000+00005262+00000+0001T   00005262+0000001348          1400 TH9130               2AZ
123237003123237046-000012-A   123237006003000208296BATTERIES H/POWER SZ:AA0000001000+00002192+00000+0001T   00002192+0000001348          1400 TH9312               2AZ
123237004123237079-000342     123237006001023913326FELT-TIP PENS 24PCE    0000001000+00003507+00000+0001T   00003507+0000001348          1400 TH9130               2AZ
123237005123237567-011523     123237006003000667031BK COLOURING THERAPY   0000001000+00003507+00000+0001T   00003507+0000001348          1400 TH9757               2AZ
123237006123237080-000120     123237006003000236473CARD & ENVELOPE WEDDING0000001000+00001753+00000+0001T   00001753+0000001348          1400 TH9112               2AZ
123237007123237079-000207     123237006003000639120COLORING SECRET GARDEN 0000001000+00001753+00000+0001T   00001753+0000001348          1400 TH9130               2AZ
123238000123238               123238               170213JR     1400+00000+JR0000004120+0000004120+000000000+000000578+0000004690+0000000008+I20000000000+0000004690+Z
123238001123238082-093381     123238006001492933818SUNGLASS OVERSIZED SWAN0000001000+00002630+00000+0001T   00005262+0008161351          1400 TH9160               2CZ
123238002123238567-011484     123238006003000663491BK COLOURING 96P HELLO 0000001000-00003507+00000+0001T   00003507+0000001351          1400 TH97571IC            2 Z
123238003123238567-011484     123238006003000663491BK COLOURING 96P HELLO 0000001000+00003507+00000+0001T   00003507+0000001351          1400 TH97571IC            2CZ
123238004123238567-014133     123238006003000560103BOOK COLOURING 48 PAGE 0000001000+00001490+00000+0001T   00001490+0000001351          1400 TH9757               2CZ
123239000123239               123239               170213JR     1400+00000+JR0000003156+0000003156+000000000+000000442+0000003598+0000000000+I40000003598+0000000000+Z
123239001123239077-000303     123239006001023593757GIFT-BAG PAPER MED     0000002000+00001578+00000+0001T   00001578+0000001357          1400 TH9112               2CZ
123240000123240               123240               170213JR     1400+00000+JR0000005784+0000005784+000000000+000000812+0000006596+0000000000+I40000006596+0000000000+Z
123240001123240040-000923     123240006001023587831CANDLE-HOLDER GLS 13.5 0000001000+00001753+00000+0001T   00001753+0000001359          1400 TH9510               2AZ
123240002123240039-000108     123240006001023524034TEA-LITE CANDLES 8PCE  0000002000+00001490+00000+0001T   00001490+0000001359          1400 TH9510               2AZ
123240003123240039-000029     123240006003000286829C/TAPERED 25CM M/PINK  0000001000+00001051+00000+0001T   00001051+0000001359          1400 TH9510               2AZ
123241000123241               123241               170213JR     1400+00000+JR0000000788+0000000788+000000000+000000111+0000000890+0000000009+I20000000000+0000000890+Z
123241001123241031-080508     123241006001023802415P/FRAME PL 22X11CM LOVE0000001000-00004385+00000+0001T   00004385+0000001400          1400 TH95101IC            2 Z
123241002123241077-000010-C   123241006001023123879CREPE-PAPER RED        0000001000+00000788+00000+0001T   00000788+0000001400          1400 TH9112               2CZ
123241003123241031-080508     123241006001023802415P/FRAME PL 22X11CM LOVE0000001000+00004385+00000+0001T   00004385+0000001400          1400 TH9510               2CZ
123242000123242               123242               170213JR     1400+00000+JR0000020871+0000020871+000000000+000002924+0000023790+0000000005+I20000000000+0000023790+Z
123242001123242018-050000     123242006003000412679MUG OCC LOVE TWIN BEAR 0000001000+00006139+00000+0001T   00006139+0000001408          1400 TH9515               2AZ
123242002123242362-001026     123242006001023829191MAKE-UP TEEN LIP-GLOSS 0000001000+00005262+00000+0001T   00005262+0000001408          1400 TH9160               2AZ
123242003123242080-000127     123242006003000424351VALENTINES DAY 36x24CM 0000001000+00002192+00000+0001T   00002192+0000001408          1400 TH9112               2AZ
123242004123242368-000175     123242006003000270316PLUSH BEAR 4 ASSTD 18CM0000001000+00006139+00000+0001T   00006139+0000001408          1400 TH9745               2AZ
123242005123242903-000087     123242006001704000161SWT SPECKLED-EGGS 50G  0000001000+00001139+00000+0001T   00001139+0000001408          1400 TH9150               2AZ
123243000123243               123243               170213JR     1400+00000+JR0000002892+0000002892+000000000+000000406+0000003298+0000000000+I40000003298+0000000000+Z
123243001123243903-000087     123243006001704000161SWT SPECKLED-EGGS 50G  0000001000+00001139+00000+0001T   00001139+0000001412          1400 TH9150               2AZ
123243002123243077-000454     123243006003000285266G/BAG METALLIC LRG EMB 0000001000+00001753+00000+0001T   00001753+0000001412          1400 TH9112               2AZ
123244000123244               123244               170213JR     1400+00000+JR0000012536+0000012536+000000000+000001758+0000014294+0000000000+I40000014294+0000000000+Z
123244001123244466-000109     123244006003000612345BALL RAINBOW DESIGN    0000001000+00001753+00000+0001T   00001753+0000001430          1400 TH9785               2CZ
123244002123244034-078805     123244006001023994097BABY W/WIPES 55PCE LACE0000001000+00002455+00000+0001T   00002455+0000001430          1400 TH9215               2CZ
123244003123244079-003005     123244006003000448241A/TUBE 75ML BLUE       0000001000+00001753+00000+0001T   00001753+0000001430          1400 TH9130               2CZ
123244004123244079-003007     123244006003000448487A/TUBE 75ML BROWN      0000001000+00001753+00000+0001T   00001753+0000001430          1400 TH9130               2CZ
123244005123244079-003003     123244006003000448005A/TUBE 75ML DARK GREEN 0000001000+00001753+00000+0001T   00001753+0000001430          1400 TH9130               2CZ
123244006123244072-020352     123244006003000561667DOG/CAT BOWL PL 19cm   0000001000+00003069+00000+0001T   00003069+0000001430          1400 TH9870               2CZ
123245000123245               123245               170213JR     1400+00000+JR0000001490+0000001490+000000000+000000209+0000001690+0000000009+I20000000000+0000001690+Z
123245001123245071-005214     123245006003000152544CELLOTAPE SUPER REFILL 0000001000+00001490+00000+0001T   00001490+0000001434          1400 TH9130               2CZ
123246000123246               123246               170213JR     1400+00000+JR0000001748+0000001748+000000000+000000248+0000001990+0000000006+I20000000000+0000001990+Z
123246001123246080-000133-A   123246006003000647019MINI VALENTINES CARD   0000004000+00000437+00000+0001T   00000437+0000001438          1400 TH9112               2AZ
123247000123247               123247               170213JR     1400+00000+JR0000000788+0000000788+000000000+000000111+0000000890+0000000009+I20000000000+0000000890+Z
123247001123247903-000892     123247008693029700420SWT NOVELTY CHOCO CREAM0000001000+00000788+00000+0001T   00000788+0000001438          1400 TH9150               2AZ
123248000123248               123248               170213JR     1400+00000+JR0000000613+0000000613+000000000+000000086+0000000690+0000000009+I20000000000+0000000690+Z
123248001123248304-001011     123248006001023806727FLWR ROSE RED W/BEAR   0000001000+00000613+00000+0001T   00000788+0006471441          1400 TH9510               2CZ
123249000123249               123249               170213JR     1400+00000+JR0000126304+0000126304+000000000+000017688+0000143990+0000000002+I20000000000+0000143990+Z
123249001123249031-001004     123249006003000334643P/FRAME CERTIFICATE 4PC0000008000+00015788+00000+0001T   00015788+0000001443          1400 TH9510               2AZ
123250000123250               123250               170213JR     1400+00000+JR0000005908+0000005908+000000000+000000829+0000006730+0000000007+I20000000000+0000006730+Z
123250001123250077-000289     123250006001023901996GIFT BOX 20x25x11cm    0000001000+00001753+00000+0001T   00001753+0000001444          1400 TH9112               2AZ
123250002123250006-000805     123250000013994092418STREAMERS 10-ROLLS     0000001000+00001490+00000+0001T   00001490+0000001444          1400 TH9131               2AZ
123250003123250006-000111     123250006003000519385BALLOONS LARGE 12PCE   0000001000+00002630+00000+0001T   00002630+0000001444          1400 TH9131               2AZ
123250004123250112-116038     123250006009681820246TCS CARRIER BAG MIDI   0000001000+00000035+00000+0001T   00000035+0000001444          1400 TH9090               2AZ
123251000123251               123251               170213JR     1400+00000+JR0000003243+0000003243+000000000+000000455+0000003690+0000000008+I20000000000+0000003690+Z
123251001123251077-000304     123251006001023483232GIFT-BAG 25X32CM E/DAY 0000001000+00001490+00000+0001T   00001490+0000001447          1400 TH9112               2AZ
123251002123251077-000299-A   123251006003000670888GIFT-BAG PAPER JMB LOVE0000001000+00001753+00000+0001T   00001753+0000001447          1400 TH9112               2AZ
123252000123252               123252               170213JR     1400+00000+JR0000010643+0000010643+000000000+000001491+0000012134+0000000000+I40000012134+0000000000+Z
123252001123252071-009832     123252006003000152674STATIONERY SET 4PCE    0000001000+00005262+00000+0001T   00005262+0000001450          1400 TH9130               2CZ
123252002123252301-085004     123252006003000420469ORN LOVE PLAQUE 21X10CM0000001000+00003507+00000+0001T   00003946+0006471450          1400 TH9505               2CZ
123252003123252304-001011     123252006001023806727FLWR ROSE RED W/BEAR   0000003000+00000613+00000+0001T   00000788+0006471450          1400 TH9510               2CZ
123252004123252112-116038     123252006009681820246TCS CARRIER BAG MIDI   0000001000+00000035+00000+0001T   00000035+0000001450          1400 TH9090               2CZ
123253000123253               123253               170213JR     1400+00000+JR0000001314+0000001314+000000000+000000184+0000001490+0000000008+I20000000000+0000001490+Z
123253001123253903-004950     123253006002580020304SWT APRICOT SURPRISE   0000001000+00001314+00000+0001T   00001314+0000001459          1400 TH9150               2AZ
123254000123254               123254               170213JR     1400+00000+JR0000033740+0000033740+000000000+000004728+0000038468+0000000000+I40000038468+0000000000+Z
123254001123254304-001011     123254006001023806727FLWR ROSE RED W/BEAR   0000015000+00000613+00000+0001T   00000788+0006471506          1400 TH9510               2AZ
123254002123254006-000167-F   123254006003000517411BALLOONS SILV METALLIC 0000002000+00001314+00000+0001T   00001314+0000001506          1400 TH9131               2AZ
123254003123254006-000166-D   123254006003000516490BALLOONS LRG 6PC RED   0000002000+00001314+00000+0001T   00001314+0000001506          1400 TH9131               2AZ
123254004123254006-000167-F   123254006003000517411BALLOONS SILV METALLIC 0000001000+00001314+00000+0001T   00001314+0000001506          1400 TH9131               2AZ
123254005123254006-000166-D   123254006003000516490BALLOONS LRG 6PC RED   0000001000+00001314+00000+0001T   00001314+0000001506          1400 TH9131               2AZ
123254006123254301-085008     123254006003000673933ORN OCC.LOVE TINSEL HRT0000004000+00003069+00000+0001T   00003069+0000001506          1400 TH9505               2AZ
123254007123254031-080508     123254006001023802415P/FRAME PL 22X11CM LOVE0000001000+00004385+00000+0001T   00004385+0000001506          1400 TH9510               2AZ
123255000123255               123255               170213JR     1400+00000+JR0000004420+0000004420+000000000+000000619+0000005030+0000000009+I20000000000+0000005030+Z
123255001123255112-116038     123255006009681820246TCS CARRIER BAG MIDI   0000001000+00000035+00000+0001T   00000035+0000001507          1400 TH9090               2CZ
123255002123255031-080508     123255006001023802415P/FRAME PL 22X11CM LOVE0000001000+00004385+00000+0001T   00004385+0000001507          1400 TH9510               2CZ
123256000123256               123256               170213JR     1400+00000+JR0000009255+0000009255+000000000+000001297+0000010552+0000000000+I40000010552+0000000000+Z
123256001123256006-000800     123256006001023902801HAT CABARET 14x18cm    0000001000+00001753+00000+0001T   00001753+0000001512          1400 TH9131               2AZ
123256002123256112-116069     123256006009681820277TCS CARRIER BAG JUMBO  0000001000+00000048+00000+0001T   00000048+0000001512          1400 TH9090               2AZ
123256003123256006-000789     123256006001023148612CROWN BOY              0000001000+00002192+00000+0001T   00002192+0000001512          1400 TH9131               2AZ
123256004123256006-000098     123256006003000601325PARTY PHOTO BOOTH 20PC 0000001000+00005262+00000+0001T   00005262+0000001512          1400 TH9131               2AZ
123257000123257               123257               170213JR     1400+00000+JR0000010698+0000010698+000000000+000001499+0000012197+0000000000+I40000012197+0000000000+Z
123257001123257019-000040     123257006001023673640VASE GLS 30CM CYLINDER 0000001000+00008771+00000+0001T   00008771+0000001515          1400 TH9510               2AZ
123257002123257077-000299     123257006003000395576G/BAG 32x25cm LRG LOVE 0000001000+00001490+00000+0001T   00001490+0000001515          1400 TH9112               2AZ
123257003123257080-000133-A   123257006003000647019MINI VALENTINES CARD   0000001000+00000437+00000+0001T   00000437+0000001515          1400 TH9112               2AZ
123258000123258               123258               170213JR     1400+00000+JR0000009243+0000009243+000000000+000001295+0000010538+0000000000+I40000010538+0000000000+Z
123258001123258001-091415     123258006003000329113W/GLS OCC. LOVE 2PC 2800000001000+00008771+00000+0001T   00009648+0006471517          1400 TH9515               2AZ
123258002123258080-000133-A   123258006003000647019MINI VALENTINES CARD   0000001000+00000437+00000+0001T   00000437+0000001517          1400 TH9112               2AZ
123258003123258112-116038     123258006009681820246TCS CARRIER BAG MIDI   0000001000+00000035+00000+0001T   00000035+0000001517          1400 TH9090               2AZ
123259000123259               123259               170213JR     1400+00000+JR0000000000+0000000000+000000000+000000000+0000000000+0000000000+I20000000000+0000000000+Z
123259001123259903-000082     123259006001704014892SWT MINI WINE GUMS 100G0000001000-00001753+00000+0001T   00001753+0000001521          1400 TH91501IC            2 Z
123259002123259903-003075     123259003800065783125SWT CHOC FAFL WAFER 52g0000001000-00000876+00000+0001T   00000876+0000001521          1400 TH91501IC            2 Z
123259003123259903-000082     123259006001704014892SWT MINI WINE GUMS 100G0000001000+00001753+00000+0001T   00001753+0000001521          1400 TH9150               2 Z
123259004123259903-003075     123259003800065783125SWT CHOC FAFL WAFER 52g0000001000+00000876+00000+0001T   00000876+0000001521          1400 TH9150               2 Z
123260000123260               123260               170213JR     1400+00000+JR0000057342+0000057342+000000000+000008039+0000065381+0000000000+I40000065381+0000000000+Z
123260001123260112-116069     123260006009681820277TCS CARRIER BAG JUMBO  0000001000+00000048+00000+0001T   00000048+0000001527          1400 TH9090               2AZ
123260002123260562-006275     123260006001023836182EDU BOARD W/MARKER ASST0000001000+00007016+00000+0001T   00007016+0000001527          1400 TH9755               2AZ
123260003123260104-000053     123260006003000011193BASKET PL 25X32X6cm    0000001000+00004385+00000+0001T   00004385+0000001527          1400 TH9210               2AZ
123260004123260200-000029     123260006003000593668DISPOSABLE ROLL BAKING 0000001000+00002630+00000+0001T   00002630+0000001527          1400 TH9214               2AZ
123260005123260200-000002     123260006925406821049BAG FLIP TOP 80PCE     0000001000+00002192+00000+0001T   00002192+0000001527          1400 TH9214               2AZ
123260006123260020-006202     123260006001023629845KNIFE-SET UTILITY ASSTD0000001000+00002630+00000+0001T   00002630+0000001527          1400 TH9300               2AZ
123260007123260200-000012     123260006003000399536BAG 50PCE 165x146mm    0000001000+00003507+00000+0001T   00003507+0000001527          1400 TH9214               2AZ
123260008123260200-000011     123260006003000613489DISPOSABLE BAG ZIPER   0000001000+00003507+00000+0001T   00003507+0000001527          1400 TH9214               2AZ
123260009123260159-000038     123260006003000393954HOOKS HANGER S/S 2PCE  0000001000+00002630+00000+0001T   00002630+0000001527          1400 TH9200               2AZ
123260010123260105-001033     123260000700371696641CONTAINER FOODSAVER 1.60000001000+00002192+00000+0001T   00002192+0000001527          1400 TH9210               2AZ
123260011123260105-001032     123260000700371696634CONTAINER FOODSAVER 1.20000001000+00001753+00000+0001T   00001753+0000001527          1400 TH9210               2AZ
123260012123260105-001067     123260006003000631032CONTAINER CLIP LOCK    0000001000+00001753+00000+0001T   00001753+0000001527          1400 TH9210               2AZ
123260013123260112-116069     123260006009681820277TCS CARRIER BAG JUMBO  0000001000+00000048+00000+0001T   00000048+0000001527          1400 TH9090               2AZ
123260014123260105-000605     123260006005387000517STORAGE CONTAINRS 250ml0000001000+00003771+00000+0001T   00003771+0000001527          1400 TH9210               2AZ
123260015123260105-001032     123260000700371696634CONTAINER FOODSAVER 1.20000001000+00001753+00000+0001T   00001753+0000001527          1400 TH9210               2AZ
123260016123260036-000500     123260006003000663903BASKET WIRE 39x27x13cm 0000001000+00005262+00000+0001T   00005262+0000001527          1400 TH9212               2AZ
123260017123260080-000113     123260006003000237449CARD&ENVLPE - LOVE     0000001000+00001753+00000+0001T   00001753+0000001527          1400 TH9112               2AZ
123260018123260077-000150-D   123260006003000054343GIFT-WRAP CELLPHANE CLR0000012000+00000876+00000+0001T   00000876+0000001527          1400 TH9112               2AZ
123261000123261               123261               170213JR     1400+00000+JR0000009031+0000009031+000000000+000001266+0000010290+0000000007+I20000000000+0000010290+Z
123261001123261077-000299     123261006003000395576G/BAG 32x25cm LRG LOVE 0000001000+00001490+00000+0001T   00001490+0000001535          1400 TH9112               2CZ
123261002123261018-050000     123261006003000412679MUG OCC LOVE TWIN BEAR 0000001000+00006139+00000+0001T   00006139+0000001535          1400 TH9515               2CZ
123261003123261304-001204     123261006001023737984FLOWER OCC. TEDDY/ROSES0000001000+00001402+00000+0001T   00001490+0006471535          1400 TH9510               2CZ
123262000123262               123262               170213JR     1400+00000+JR0000001139+0000001139+000000000+000000160+0000001290+0000000009+I20000000000+0000001290+Z
123262001123262162-097717     123262006001492977171#TAG NEW SILVER E/PIERC0000001000+00001139+00000+0001T   00001139+0000001540          1400 TH9160               2AZ
123263000123263               123263               170213JR     1400+00000+JR0000007481+0000007481+000000000+000001048+0000008520+0000000009+I20000000000+0000008520+Z
123263001123263006-000167-F   123263006003000517411BALLOONS SILV METALLIC 0000002000+00001314+00000+0001T   00001314+0000001546          1400 TH9131               2CZ
123263002123263006-000166-D   123263006003000516490BALLOONS LRG 6PC RED   0000003000+00001314+00000+0001T   00001314+0000001546          1400 TH9131               2CZ
123263003123263076-000017     123263006001811010022TWINE COTTON 50g-BALL  0000001000+00000876+00000+0001T   00000876+0000001546          1400 TH9810               2CZ
123263004123263112-116038     123263006009681820246TCS CARRIER BAG MIDI   0000001000+00000035+00000+0001T   00000035+0000001546          1400 TH9090               2CZ
123264000123264               123264               170213JR     1400+00000+JR0000031702+0000031702+000000000+000004441+0000036143+0000000000+I40000036143+0000000000+Z
123264001123264112-116069     123264006009681820277TCS CARRIER BAG JUMBO  0000001000+00000048+00000+0001T   00000048+0000001551          1400 TH9090               2AZ
123264002123264079-011526     123264006003000408375GLITTER & SAND ART     0000001000+00003507+00000+0001T   00003507+0000001551          1400 TH9130               2AZ
123264003123264030-000031-A   123264006003000457588PLAQUE W/WORDS ASSTD   0000001000+00004385+00000+0001T   00004823+0006471551          1400 TH9505               2AZ
123264004123264903-000077     123264006939873501687SWT GS MAGIC ROCK FRUIT0000001000+00000525+00000+0001T   00000525+0000001551          1400 TH9150               2AZ
123264005123264301-000013     123264006001023781604ORN SENTIMENT STONE 4-A0000001000+00006139+00000+0001T   00006139+0000001551          1400 TH9505               2AZ
123264006123264301-000015     123264006001023479907ORN SENTIMENT STONE    0000001000+00004385+00000+0001T   00004385+0000001551          1400 TH9505               2AZ
123264007123264019-000104     123264006003000658176VASE GLASSBUD 16CM     0000001000+00003507+00000+0001T   00003507+0000001551          1400 TH9510               2AZ
123264008123264019-000500-A   123264006003000245161VASE CER INSPIRATIONS  0000001000+00003507+00000+0001T   00003507+0000001551          1400 TH9510               2AZ
123264009123264368-000040     123264006003000671786PLUSH ICONS 7.5cm      0000001000+00002630+00000+0001T   00002630+0000001551          1400 TH9745               2AZ
123264010123264108-001023     123264006003000594580YARD GLASS PL 700ml    0000001000+00003069+00000+0001T   00003069+0000001551          1400 TH9210               2AZ
123265000123265               123265               170213JR     1400+00000+JR0000008806+0000008806+000000000+000001233+0000010039+0000000000+I40000010039+0000000000+Z
123265001123265368-000614     123265006001023705808PLUSH LOVE 30cm        0000001000+00008771+00000+0001T   00008771+0000001605          1400 TH9745               2AZ
123265002123265112-116038     123265006009681820246TCS CARRIER BAG MIDI   0000001000+00000035+00000+0001T   00000035+0000001605          1400 TH9090               2AZ
123266000123266               123266               170213JR     1400+00000+JR0000007016+0000007016+000000000+000000983+0000007999+0000000000+I40000007999+0000000000+Z
123266001123266562-002007     123266006003000228188LEARNING EDU ALPHABET  0000001000+00007016+00000+0001T   00007016+0000001607          1400 TH9755               2AZ
123267000123267               123267               170213JR     1400+00000+JR0000002628+0000002628+000000000+000000369+0000002990+0000000007+I20000000000+0000002990+Z
123267001123267304-001011     123267006001023806727FLWR ROSE RED W/BEAR   0000001000+00000613+00000+0001T   00000788+0006471608          1400 TH9510               2AZ
123267002123267304-001308-A   123267006003000442041FLWR HEART SHAPED 38CM 0000001000+00000525+00000+0001T   00000525+0000001608          1400 TH9510               2AZ
123267003123267077-000299     123267006003000395576G/BAG 32x25cm LRG LOVE 0000001000+00001490+00000+0001T   00001490+0000001608          1400 TH9112               2AZ
123268000123268               123268               170213JR     1400+00000+JR0000002541+0000002541+000000000+000000357+0000002890+0000000008+I20000000000+0000002890+Z
123268001123268306-000540     123268006003000165780T/BRUSH+GUM PROTECTION 0000001000+00001490+00000+0001T   00001490+0000001608          1400 TH9200               2AZ
123268002123268033-000124     123268006009654960597COMBS HANDLE + TAIL 2PC0000001000+00001051+00000+0001T   00001051+0000001608          1400 TH9200               2AZ
123269000123269               123269               170213JR     1400+00000+JR0000002541+0000002541+000000000+000000357+0000002890+0000000008+I20000000000+0000002890+Z
123269001123269079-006522     123269006001023149442ART+CRAFT GLUE ASSORTED0000001000+00001753+00000+0001T   00001753+0000001610          1400 TH9130               2CZ
123269002123269077-000010-C   123269006001023123879CREPE-PAPER RED        0000001000+00000788+00000+0001T   00000788+0000001610          1400 TH9112               2CZ
123270000123270               123270               170213JR     1400+00000+JR0000042596+0000042596+000000000+000005973+0000048569+0000000000+I40000048569+0000000000+Z
123270001123270112-116038     123270006009681820246TCS CARRIER BAG MIDI   0000001000+00000035+00000+0001T   00000035+0000001614          1400 TH9090               2AZ
123270002123270304-001011     123270006001023806727FLWR ROSE RED W/BEAR   0000007000+00000613+00000+0001T   00000788+0006471614          1400 TH9510               2AZ
123270003123270039-082106     123270006001023847348C/VOTIVE 8PC VANILLA   0000006000+00005262+00000+0001T   00005262+0000001614          1400 TH9510               2AZ
123270004123270077-000011-D   123270006001023808554TISSUE-WRAP WHITE 10PCE0000001000+00000876+00000+0001T   00000876+0000001614          1400 TH9112               2AZ
123270005123270077-000005-B   123270006003000326617PAPER TISSUE PATTERN   0000001000+00002630+00000+0001T   00002630+0000001614          1400 TH9112               2AZ
123270006123270077-000245     123270006001023759214GIFT-RIBBON METALLICx2 0000001000+00001227+00000+0001T   00001227+0000001614          1400 TH9112               2AZ
123270007123270903-000183     123270006003000451043SWT LB HEART LOLLY     0000005000+00000393+00000+0001T   00000393+0000001614          1400 TH9150               2AZ
123271000123271               123271               170213JR     1400+00000+JR0000009646+0000009646+000000000+000001351+0000010990+0000000007+I20000000000+0000010990+Z
123271001123271018-000130     123271006001023867537MUG OCC LOVE MINI+HEART0000001000+00003507+00000+0001T   00003507+0000001616          1400 TH9515               2CZ
123271002123271019-000084     123271006001023797247VASE GLASS GEOMETRIC   0000001000+00006139+00000+0001T   00006139+0000001616          1400 TH9510               2CZ
123272000123272               123272               170213JR     1400+00000+JR0000001838+0000001838+000000000+000000258+0000002090+0000000006+I20000000000+0000002090+Z
123272001123272018-000177     123272006001023797513MUG MINI LOVE ASSTD    0000001000+00000700+00000+0001T   00000700+0000001617          1400 TH9515               2AZ
123272002123272903-000151     123272006009803374411SWT SML RND R/BOW LOLLY0000001000+00000525+00000+0001T   00000525+0000001617          1400 TH9150               2AZ
123272003123272304-001011     123272006001023806727FLWR ROSE RED W/BEAR   0000001000+00000613+00000+0001T   00000788+0006471617          1400 TH9510               2AZ
123273000123273               123273               170213JR     1400+00000+JR0000008771-0000008771-000000000+000001228-0000010000-0000000001+I20000000000+0000010000-Z
123273001123273019-000040     123273006001023673640VASE GLS 30CM CYLINDER 0000001000-00008771+00000+0001T   00008771+0000001618          1400 TH95101IC            2 Z
123274000123274               123274               170213JR     1400+00000+JR0000000613+0000000613+000000000+000000086+0000000690+0000000009+I20000000000+0000000690+Z
123274001123274077-000321     123274006001023677501GIFT-BAG 11X14CM E/D FL0000001000+00000613+00000+0001T   00000613+0000001619          1400 TH9112               2AZ
123275000123275               123275               170213JR     1400+00000+JR0000014904+0000014904+000000000+000002089+0000016990+0000000003+I20000000000+0000016990+Z
123275001123275206-000210     123275006003000631582TOOTHPICK HOLDER FLOWER0000001000+00003069+00000+0001T   00003069+0000001620          1400 TH9321               2AZ
123275002123275369-001137     123275006003000555062VINYL 5.7cm THEMED DUCK0000001000+00001753+00000+0001T   00001753+0000001620          1400 TH9745               2AZ
123275003123275080-000127     123275006003000424351VALENTINES DAY 36x24CM 0000001000+00002192+00000+0001T   00002192+0000001620          1400 TH9112               2AZ
123275004123275206-000620     123275006003000631797BACK SCRATCHER EXTEND  0000001000+00002630+00000+0001T   00002630+0000001620          1400 TH9321               2AZ
123275005123275039-000114     123275006001023524058CANDLE T/LITE RED 3.5CM0000001000+00001753+00000+0001T   00001753+0000001620          1400 TH9510               2AZ
123275006123275082-098777     123275006001492987774SUNGLASS KIDS OVAL     0000001000+00003507+00000+0001T   00003507+0000001620          1400 TH9160               2AZ
123276000123276               123276               170213JR     1400+00000+JR0000003507-0000003507-000000000+000000491-0000004000-0000000002+I20000000000+0000004000-Z
123276001123276002-000738     123276006001023770189GRATER 3-WAY PYRAMID   0000001000-00003507+00000+0001T   00003507+0000001624          1400 TH93001IC            2 Z
123277000123277               123277               170213JR     1400+00000+JR0000000876+0000000876+000000000+000000123+0000000990+0000000009+I20000000000+0000000990+Z
123277001123277077-000011-D   123277006001023808554TISSUE-WRAP WHITE 10PCE0000001000+00000876+00000+0001T   00000876+0000001627          1400 TH9112               2AZ
123278000123278               123278               170213JR     1400+00000+JR0000002628+0000002628+000000000+000000368+0000002990+0000000006+I20000000000+0000002990+Z
123278001123278006-000166-D   123278006003000516490BALLOONS LRG 6PC RED   0000002000+00001314+00000+0001T   00001314+0000001636          1400 TH9131               2AZ
123279000123279               123279               170213JR     1400+00000+JR0000007015+0000007015+000000000+000000983+0000007998+0000000000+I40000007998+0000000000+Z
123279001123279200-003024     123279006001023657299REFUSE BAGS 20PCE BLACK0000001000+00001753+00000+0001T   00001753+0000001641          1400 TH9214               2CZ
123279002123279104-000190     123279006004779016334DISH DRAINER PL ASSTD  0000001000+00005262+00000+0001T   00005262+0000001641          1400 TH9210               2CZ
123280000123280               123280               170213JR     1400+00000+JR0000007451+0000007451+000000000+000001044+0000008490+0000000005+I20000000000+0000008490+Z
123280001123280071-000677     123280006001023110282THUMB-TACKS            0000001000+00000876+00000+0001T   00000876+0000001642          1400 TH9130               2CZ
123280002123280082-007586     123280006003000654291SUNGLASS DESIGNER ASST 0000001000+00004385+00000+0001T   00004385+0000001642          1400 TH9160               2CZ
123280003123280903-005001     123280006002580020014SWT CT MALLOW MICE 120g0000001000+00001314+00000+0001T   00001314+0000001642          1400 TH9150               2CZ
123280004123280903-000520     123280006001704009898SWT GUMMY MINI SOUR 60g0000001000+00000876+00000+0001T   00000876+0000001642          1400 TH9150               2CZ
123281000123281               123281               170213JR     1400+00000+JR0000005295+0000005295+000000000+000000742+0000006030+0000000007+I20000000000+0000006030+Z
123281001123281089-060027     123281006003000245871KEY-CHAIN HEART 6X6cm  0000001000+00003069+00000+0001T   00003069+0000001644          1400 TH9205               2AZ
123281002123281077-000311     123281006001023608666GIFT-BAG 11X14CM GLOSS 0000001000+00000613+00000+0001T   00000613+0000001644          1400 TH9112               2AZ
123281003123281077-000303     123281006001023593757GIFT-BAG PAPER MED     0000001000+00001578+00000+0001T   00001578+0000001644          1400 TH9112               2AZ
123281004123281112-116038     123281006009681820246TCS CARRIER BAG MIDI   0000001000+00000035+00000+0001T   00000035+0000001644          1400 TH9090               2AZ
123282000123282               123282               170213JR     1400+00000+JR0000002622+0000002622+000000000+000000372+0000002990+0000000004+I20000000000+0000002990+Z
123282001123282080-000133-A   123282006003000647019MINI VALENTINES CARD   0000006000+00000437+00000+0001T   00000437+0000001645          1400 TH9112               2CZ
123283000123283               123283               170213JR     1400+00000+JR0000002192+0000002192+000000000+000000307+0000002490+0000000009+I20000000000+0000002490+Z
123283001123283159-000887     123283006001023730817HOOKS PL SUCTION 9PCE  0000001000+00002192+00000+0001T   00002192+0000001646          1400 TH9200               2AZ
123284000123284               123284               170213JR     1400+00000+JR0000003101+0000003101+000000000+000000436+0000003530+0000000007+I20000000000+0000003530+Z
123284001123284080-000133     123284006003000535613CARD&ENV MINI ASTD DSGN0000001000+00000437+00000+0001T   00000437+0000001647          1400 TH9112               2AZ
123284002123284089-000027     123284006003000254071KEY CHAIN MOM/DAD ASSTD0000001000+00001753+00000+0001T   00001753+0000001647          1400 TH9205               2AZ
123284003123284077-000314     123284006003000181148GIFT-BAG 11X14CM MATT  0000001000+00000876+00000+0001T   00000876+0000001647          1400 TH9112               2AZ
123284004123284112-116038     123284006009681820246TCS CARRIER BAG MIDI   0000001000+00000035+00000+0001T   00000035+0000001647          1400 TH9090               2AZ
123285000123285               123285               170213JR     1400+00000+JR0000003239+0000003239+000000000+000000456+0000003690+0000000005+I20000000000+0000003690+Z
123285001123285080-000133     123285006003000535613CARD&ENV MINI ASTD DSGN0000001000+00000437+00000+0001T   00000437+0000001648          1400 TH9112               2AZ
123285002123285077-000311     123285006001023608666GIFT-BAG 11X14CM GLOSS 0000002000+00000613+00000+0001T   00000613+0000001648          1400 TH9112               2AZ
123285003123285080-000133-A   123285006003000647019MINI VALENTINES CARD   0000001000+00000437+00000+0001T   00000437+0000001648          1400 TH9112               2AZ
123285004123285903-000087     123285006001704000161SWT SPECKLED-EGGS 50G  0000001000+00001139+00000+0001T   00001139+0000001648          1400 TH9150               2AZ
123286000123286               123286               170213JR     1400+00000+JR0000002192+0000002192+000000000+000000307+0000002490+0000000009+I20000000000+0000002490+Z
123286001123286080-000127     123286006003000424351VALENTINES DAY 36x24CM 0000001000+00002192+00000+0001T   00002192+0000001649          1400 TH9112               2AZ
123287000123287               123287               170213JR     1400+00000+JR0000002630+0000002630+000000000+000000369+0000002990+0000000009+I20000000000+0000002990+Z
123287001123287006-000323-A   123287006001023739452CONFETTI SLVR/GLD 3PACK0000001000+00002630+00000+0001T   00002630+0000001653          1400 TH9131               2AZ
123288000123288               123288               170213JR     1400+00000+JR0000018093+0000018093+000000000+000002541+0000020634+0000000000+I40000020634+0000000000+Z
123288001123288112-116069     123288006009681820277TCS CARRIER BAG JUMBO  0000001000+00000048+00000+0001T   00000048+0000001656          1400 TH9090               2CZ
123288002123288107-004105     123288006002923010504BUCKET 9L OPEN         0000003000+00001314+00000+0001T   00001314+0000001656          1400 TH9210               2CZ
123288003123288007-000203     123288006009685850409FILE DISPLAY FLDR ASSTD0000006000+00000437+00000+0001T   00000437+0000001656          1400 TH9130               2CZ
123288004123288007-000045     123288006009608640438DISPLAY-POCKETS A4 10PC0000002000+00000876+00000+0001T   00000876+0000001656          1400 TH9130               2CZ
123288005123288159-000114     123288006001023507945SHOWER CAP PVC ASSTD   0000001000+00001490+00000+0001T   00001490+0000001656          1400 TH9200               2CZ
123288006123288251-000002     123288006003000093991TAPE D-SIDED 24x1000mm 0000001000+00002192+00000+0001T   00002192+0000001656          1400 TH9810               2CZ
123288007123288027-077605     123288006001023997678STEELWOOL PADS 12PC 72g0000001000+00001753+00000+0001T   00001753+0000001656          1400 TH9212               2CZ
123288008123288007-000208     123288006001023582096NOTE-PAD S/STICK 100'S 0000002000+00001490+00000+0001T   00001490+0000001656          1400 TH9130               2CZ
123288009123288107-004105     123288006002923010504BUCKET 9L OPEN         0000001000+00001314+00000+0001T   00001314+0000001656          1400 TH9210               2CZ
123289000123289               123289               170213JR     1400+00000+JR0000002455+0000002455+000000000+000000344+0000002790+0000000009+I20000000000+0000002790+Z
123289001123289562-000009     123289000730589212029PLAY MODELLING CARDED  0000001000+00002455+00000+0001T   00002455+0000001657          1400 TH9755               2CZ
123290000123290               123290               170213JR     1400+00000+JR0000003506+0000003506+000000000+000000492+0000003998+0000000000+I40000003998+0000000000+Z
123290001123290566-000028     123290006003000265541STICKER BK ASSTD 250PCE0000002000+00001753+00000+0001T   00001753+0000001659          1400 TH9130               2AZ
123291000123291               123291               170213JR     1400+00000+JR0000001751+0000001751+000000000+000000246+0000001990+0000000007+I20000000000+0000001990+Z
123291001123291903-000099     123291006923431501646SWT CANDY GS WTCH B/LET0000002000+00000262+00000+0001T   00000262+0000001700          1400 TH9150               2CZ
123291002123291077-000322     123291006001023677532GIFT-BAG 18X23CM E/D FL0000001000+00001227+00000+0001T   00001227+0000001700          1400 TH9112               2CZ
123292000123292               123292               170213JR     1400+00000+JR0000002453+0000002453+000000000+000000344+0000002790+0000000007+I20000000000+0000002790+Z
123292001123292077-000310     123292006001023608635GIFT-BAG 18X23CM GLOSS 0000001000+00001314+00000+0001T   00001314+0000001706          1400 TH9112               2CZ
123292002123292903-000087     123292006001704000161SWT SPECKLED-EGGS 50G  0000001000+00001139+00000+0001T   00001139+0000001706          1400 TH9150               2CZ
123293000123293               123293               170213JR     1400+00000+JR0000017587+0000017587+000000000+000002464+0000020051+0000000000+I40000020051+0000000000+Z
123293001123293077-000472     123293006003000330133G-BAG DESGNR LRG 25X32 0000001000+00001753+00000+0001T   00001753+0000001712          1400 TH9112               2AZ
123293002123293112-116069     123293006009681820277TCS CARRIER BAG JUMBO  0000001000+00000048+00000+0001T   00000048+0000001712          1400 TH9090               2AZ
123293003123293368-000113     123293006001023780874PLUSH BLINGED LOVE 30cm0000001000+00012279+00000+0001T   00012279+0000001712          1400 TH9745               2AZ
123293004123293486-000003     123293006001023702395CLOCK QTZ ROUND        0000001000+00003507+00000+0001T   00003507+0000001712          1400 TH9510               2AZ
123294000123294               123294               170213JR     1400+00000+JR0000002278+0000002278+000000000+000000320+0000002590+0000000008+I20000000000+0000002590+Z
123294001123294077-000299     123294006003000395576G/BAG 32x25cm LRG LOVE 0000001000+00001490+00000+0001T   00001490+0000001716          1400 TH9112               2AZ
123294002123294077-000010-C   123294006001023123879CREPE-PAPER RED        0000001000+00000788+00000+0001T   00000788+0000001716          1400 TH9112               2AZ
123295000123295               123295               170213JR     1400+00000+JR0000003507+0000003507+000000000+000000491+0000003990+0000000008+I20000000000+0000003990+Z
123295001123295018-005009     123295006001023725608MUG W/PLUSH-BEAR LOVE  0000001000+00003507+00000+0001T   00003507+0000001720          1400 TH9515               2AZ
123296000123296               123296               170213JR     1400+00000+JR0000006170+0000006170+000000000+000000866+0000007036+0000000000+I40000007036+0000000000+Z
123296001123296006-000804     123296006003000574445STREAMERS 6-ROLLS 2.5cm0000002000+00001753+00000+0001T   00001753+0000001723          1400 TH9131               2AZ
123296002123296903-000087     123296006001704000161SWT SPECKLED-EGGS 50G  0000001000+00001139+00000+0001T   00001139+0000001723          1400 TH9150               2AZ
123296003123296006-000805     123296000013994092418STREAMERS 10-ROLLS     0000001000+00001490+00000+0001T   00001490+0000001723          1400 TH9131               2AZ
123296004123296112-116038     123296006009681820246TCS CARRIER BAG MIDI   0000001000+00000035+00000+0001T   00000035+0000001723          1400 TH9090               2AZ
123297000123297               123297               170213JR     1400+00000+JR0000001490+0000001490+000000000+000000209+0000001699+0000000000+I40000001699+0000000000+Z
123297001123297077-000305     123297006003000395422GIFT-BAG WINE 10X35CM  0000001000+00001490+00000+0001T   00001490+0000001725          1400 TH9112               2AZ
123298000123298               123298               170213JR     1400+00000+JR0000004385+0000004385+000000000+000000614+0000004999+0000000000+I40000004999+0000000000+Z
123298001123298047-002040-H   123298006003000219117P/ADAPTOR 3x16A 3x5A   0000001000+00004385+00000+0001T   00004385+0000001727          1400 TH9880               2AZ
123299000123299               123299               170213JR     1400+00000+JR0000001490+0000001490+000000000+000000209+0000001690+0000000009+I20000000000+0000001690+Z
123299001123299077-000299     123299006003000395576G/BAG 32x25cm LRG LOVE 0000001000+00001490+00000+0001T   00001490+0000001727          1400 TH9112               2CZ
123300000123300               123300               170213JR     1400+00000+JR0000009193+0000009193+000000000+000001290+0000010480+0000000003+I20000000000+0000010480+Z
123300001123300304-001011     123300006001023806727FLWR ROSE RED W/BEAR   0000001000+00000613+00000+0001T   00000788+0006471730          1400 TH9510               2CZ
123300002123300082-000100     123300006003000360246READING GLS STRENGHT:1 0000001000+00004385+00000+0001T   00004385+0000001730          1400 TH9160               2CZ
123300003123300103-000060     123300006001023795489BAMBOO BASKET RECT     0000001000+00002630+00000+0001T   00002630+0000001730          1400 TH9300               2CZ
123300004123300006-000171-G   123300006003000609529BALLOONS 1PC YELLOW PRN0000001000+00000218+00000+0001T   00000218+0000001730          1400 TH9131               2CZ
123300005123300006-000171-E   123300006003000609406BALLOONS 1PC BLUE PRNT 0000001000+00000218+00000+0001T   00000218+0000001730          1400 TH9131               2CZ
123300006123300006-000171-C   123300006003000609178BALLOONS 1PC D/GRN PRNT0000001000+00000218+00000+0001T   00000218+0000001730          1400 TH9131               2CZ
123300007123300112-116038     123300006009681820246TCS CARRIER BAG MIDI   0000001000+00000035+00000+0001T   00000035+0000001730          1400 TH9090               2CZ
123300008123300077-000150-D   123300006003000054343GIFT-WRAP CELLPHANE CLR0000001000+00000876+00000+0001T   00000876+0000001730          1400 TH9112               2CZ
123301000123301               123301               170213JR     1400+00000+JR0000004383+0000004383+000000000+000000615+0000004998+0000000000+I40000004998+0000000000+Z
123301001123301006-000104     123301006001023990112BALLOONS 40PC AIR PUMP 0000001000+00002630+00000+0001T   00002630+0000001733          1400 TH9131               2CZ
123301002123301366-002694     123301006003000088997DRESS UP HAT COWBOY PL 0000001000+00001753+00000+0001T   00001753+0000001733          1400 TH9131               2CZ
123302000123302               123302               170213JR     1400+00000+JR0000003507+0000003507+000000000+000000491+0000003990+0000000008+I20000000000+0000003990+Z
123302001123302562-000020     123302006003000600861EDU PLAY DOUGH 60g 4PC 0000001000+00003507+00000+0001T   00003507+0000001734          1400 TH9755               2CZ
123303000123303               123303               170213JR     1400+00000+JR0000006778+0000006778+000000000+000000951+0000007720+0000000009+I20000000000+0000007720+Z
123303001123303112-116038     123303006009681820246TCS CARRIER BAG MIDI   0000001000+00000035+00000+0001T   00000035+0000001737          1400 TH9090               2AZ
123303002123303304-001011     123303006001023806727FLWR ROSE RED W/BEAR   0000011000+00000613+00000+0001T   00000788+0006471737          1400 TH9510               2AZ
123304000123304               123304               170213JR     1400+00000+JR0000016924+0000016924+000000000+000002371+0000019295+0000000000+I40000019295+0000000000+Z
123304001123304001-091415     123304006003000329113W/GLS OCC. LOVE 2PC 2800000001000+00008771+00000+0001T   00009648+0006471743          1400 TH9515               2AZ
123304002123304077-000315     123304006003000181186GIFT-BAG 20x28cm MATT  0000001000+00001578+00000+0001T   00001578+0000001743          1400 TH9112               2AZ
123304003123304077-000309-A   123304006003000671007GIFT-BAG HOLOGRAM JMB  0000001000+00002192+00000+0001T   00002192+0000001743          1400 TH9112               2AZ
123304004123304077-000011-Y   123304006001023809858TISSUE-WRAP GOLD 10PCE 0000001000+00001753+00000+0001T   00001753+0000001743          1400 TH9112               2AZ
123304005123304368-000040     123304006003000671786PLUSH ICONS 7.5cm      0000001000+00002630+00000+0001T   00002630+0000001743          1400 TH9745               2AZ
123305000123305               123305               170213JR     1400+00000+JR0000022831+0000022831+000000000+000003199+0000026030+0000000000+I40000026030+0000000000+Z
123305001123305112-116038     123305006009681820246TCS CARRIER BAG MIDI   0000001000+00000035+00000+0001T   00000035+0000001746          1400 TH9090               2AZ
123305002123305001-091415     123305006003000329113W/GLS OCC. LOVE 2PC 2800000001000+00008771+00000+0001T   00009648+0006471746          1400 TH9515               2AZ
123305003123305566-000006     123305006001023671189STICKER-BOOK DRESS-UP  0000001000+00002630+00000+0001T   00002630+0000001746          1400 TH9130               2AZ
123305004123305301-085004     123305006003000420469ORN LOVE PLAQUE 21X10CM0000001000+00003507+00000+0001T   00003946+0006471746          1400 TH9505               2AZ
123305005123305077-000240     123305006003000326259G/RIBBON 4PC PEARLIZED 0000001000+00001753+00000+0001T   00001753+0000001746          1400 TH9112               2AZ
123305006123305077-000011-E   123305006001023808646TISSUE-WRAP PINK 10PCE 0000001000+00000876+00000+0001T   00000876+0000001746          1400 TH9112               2AZ
123305007123305077-000011-L   123305006001023808585P/TISSUE BRIGHT 10SHEET0000001000+00000876+00000+0001T   00000876+0000001746          1400 TH9112               2AZ
123305008123305071-005060     123305006003000152186CELLOTAPE 2PACK INVSBLE0000001000+00003507+00000+0001T   00003507+0000001746          1400 TH9130               2AZ
123305009123305903-000861     123305005010478430822SWT LOVE HEARTS SML    0000001000+00000876+00000+0001T   00000876+0000001746          1400 TH9150               2AZ
123306000123306               123306               170213JR     1400+00000+JR0000007747+0000007747+000000000+000001086+0000008830+0000000003+I20000000000+0000008830+Z
123306001123306018-000136     123306006001023659026MUG OCC LOVE W/PLUSH   0000001000+00003507+00000+0001T   00003507+0000001750          1400 TH9515               2AZ
123306002123306362-101402     123306006001023915894H/BAND SET 12PACK ASSTD0000001000+00001753+00000+0001T   00001753+0000001750          1400 TH9160               2AZ
123306003123306304-001011     123306006001023806727FLWR ROSE RED W/BEAR   0000004000+00000613+00000+0001T   00000788+0006471750          1400 TH9510               2AZ
123306004123306112-116038     123306006009681820246TCS CARRIER BAG MIDI   0000001000+00000035+00000+0001T   00000035+0000001750          1400 TH9090               2AZ
123307000123307               123307               170213JR     1400+00000+JR0000007397+0000007397+000000000+000001037+0000008434+0000000000+I40000008434+0000000000+Z
123307001123307077-000452     123307006003000284986G/BAG METALLIC MED EMB 0000001000+00001490+00000+0001T   00001490+0000001752          1400 TH9112               2CZ
123307002123307304-001011     123307006001023806727FLWR ROSE RED W/BEAR   0000001000+00000613+00000+0001T   00000788+0006471752          1400 TH9510               2CZ
123307003123307039-000114     123307006001023524058CANDLE T/LITE RED 3.5CM0000001000+00001753+00000+0001T   00001753+0000001752          1400 TH9510               2CZ
123307004123307563-000317-B   123307006001023776174SERVIETTES PLN WHT PK400000001000+00001314+00000+0001T   00001314+0000001752          1400 TH9214               2CZ
123307005123307563-000318-L   123307006003000407088SERVIETTES 33cm RED    0000001000+00002192+00000+0001T   00002192+0000001752          1400 TH9214               2CZ
123307006123307112-116038     123307006009681820246TCS CARRIER BAG MIDI   0000001000+00000035+00000+0001T   00000035+0000001752          1400 TH9090               2CZ
123308000123308               123308               170213JR     1400+00000+JR0000012311+0000012311+000000000+000001725+0000014036+0000000000+I40000014036+0000000000+Z
123308001123308077-000472     123308006003000330133G-BAG DESGNR LRG 25X32 0000001000+00001753+00000+0001T   00001753+0000001754          1400 TH9112               2AZ
123308002123308079-000335     123308006003000670550THERAPY P/CRAYONS 30   0000001000+00007016+00000+0001T   00007016+0000001754          1400 TH9130               2AZ
123308003123308567-011344     123308006003000630714BK COLOURING THERAPY 640000001000+00003507+00000+0001T   00003507+0000001754          1400 TH9757               2AZ
123308004123308112-116038     123308006009681820246TCS CARRIER BAG MIDI   0000001000+00000035+00000+0001T   00000035+0000001754          1400 TH9090               2AZ
123309000123309               123309               170213JR     1400+00000+JR0000007890+0000007890+000000000+000001107+0000008990+0000000007+I20000000000+0000008990+Z
123309001123309016-006425     123309006001023998170S/JAR GLS CLIP W/RIBBON0000003000+00002630+00000+0001T   00002630+0000001754          1400 TH9300               2AZ
123310000123310               123310               170213JR     1400+00000+JR0000002980+0000002980+000000000+000000418+0000003398+0000000000+I40000003398+0000000000+Z
123310001123310089-001021     123310006003000112319KEY CHAIN MINI BIBLE   0000002000+00001490+00000+0001T   00001490+0000001756          1400 TH9205               2AZ
123311000123311               123311               170213JR     1400+00000+JR0000016177+0000016177+000000000+000002269+0000018446+0000000000+I40000018446+0000000000+Z
123311001123311112-116069     123311006009681820277TCS CARRIER BAG JUMBO  0000001000+00000048+00000+0001T   00000048+0000001758          1400 TH9090               2AZ
123311002123311007-000058     123311006003000589777A3 DESIGN PORTFOLIO    0000001000+00003507+00000+0001T   00004385+0008141758          1400 TH9130               2AZ
123311003123311079-009702-A   123311008427973059408PAPER SIRIO A2 BLACK   0000001000+00001051+00000+0001T   00001051+0000001758          1400 TH9130               2AZ
123311004123311105-001101     123311006003000667659CONTAINER SET LITE 2PC 0000001000+00002630+00000+0001T   00002630+0000001758          1400 TH9210               2AZ
123311005123311105-001100     123311006003000667536CONTAINER SET LITE 2PC 0000001000+00002630+00000+0001T   00002630+0000001758          1400 TH9210               2AZ
123311006123311566-000009     123311006003000180943STICKER-BOOK HOLOGRAM  0000001000+00001753+00000+0001T   00001753+0000001758          1400 TH9130               2AZ
123311007123311200-000020     123311006925406841030BAG ZIPPERSEAL 25PC    0000001000+00002192+00000+0001T   00002192+0000001758          1400 TH9214               2AZ
123311008123311903-000518     123311006001704012782SWT STRAWS S/BERRY 100g0000001000+00001227+00000+0001T   00001227+0000001758          1400 TH9150               2AZ
123311009123311903-000898     123311006922516801503SWT POPPING CANDY      0000001000+00001139+00000+0001T   00001139+0000001758          1400 TH9150               2AZ
123312000123312               123312               170213JR     1400+00000+JR0000006171+0000006171+000000000+000000865+0000007030+0000000006+I20000000000+0000007030+Z
123312001123312162-097715     123312006001492977157#TAG NEW COLOUR E/PIERC0000001000+00001139+00000+0001T   00001139+0000001759          1400 TH9160               2CZ
123312002123312018-000136     123312006001023659026MUG OCC LOVE W/PLUSH   0000001000+00003507+00000+0001T   00003507+0000001759          1400 TH9515               2CZ
123312003123312077-000299     123312006003000395576G/BAG 32x25cm LRG LOVE 0000001000+00001490+00000+0001T   00001490+0000001759          1400 TH9112               2CZ
123312004123312112-116038     123312006009681820246TCS CARRIER BAG MIDI   0000001000+00000035+00000+0001T   00000035+0000001759          1400 TH9090               2CZ
123313000123313               123313               170213JR     1400+00000+JR0000011135+0000011135+000000000+000001561+0000012696+0000000000+I40000012696+0000000000+Z
123313001123313077-000299-A   123313006003000670888GIFT-BAG PAPER JMB LOVE0000001000+00001753+00000+0001T   00001753+0000001801          1400 TH9112               2AZ
123313002123313306-001660     123313006003000620579NAIL DRYING MACHINE    0000001000+00007016+00000+0001T   00007016+0000001801          1400 TH9200               2AZ
123313003123313077-000011-E   123313006001023808646TISSUE-WRAP PINK 10PCE 0000001000+00000876+00000+0001T   00000876+0000001801          1400 TH9112               2AZ
123313004123313077-000299     123313006003000395576G/BAG 32x25cm LRG LOVE 0000001000+00001490+00000+0001T   00001490+0000001801          1400 TH9112               2AZ
123314000123314               123314               170213JR     1400+00000+JR0000010116+0000010116+000000000+000001418+0000011534+0000000000+I40000011534+0000000000+Z
123314001123314077-000299     123314006003000395576G/BAG 32x25cm LRG LOVE 0000001000+00001490+00000+0001T   00001490+0000001803          1400 TH9112               2CZ
123314002123314368-000265     123314006001023750914PLUSH BEAR 23CM ASSTD C0000001000+00006139+00000+0001T   00006139+0000001803          1400 TH9745               2CZ
123314003123314112-116038     123314006009681820246TCS CARRIER BAG MIDI   0000001000+00000035+00000+0001T   00000035+0000001803          1400 TH9090               2CZ
123314004123314304-001011     123314006001023806727FLWR ROSE RED W/BEAR   0000004000+00000613+00000+0001T   00000788+0006471803          1400 TH9510               2CZ
123315000123315               123315               170213JR     1400+00000+JR0000001490+0000001490+000000000+000000209+0000001690+0000000009+I20000000000+0000001690+Z
123315001123315079-000807     123315006003000670277ART+CRAFT WOODEN STICKS0000001000+00001490+00000+0001T   00001490+0000001804          1400 TH9130               2AZ
123316000123316               123316               170213JR     1400+00000+JR0000007926+0000007926+000000000+000001111+0000009030+0000000007+I20000000000+0000009030+Z
123316001123316080-000113     123316006003000237449CARD&ENVLPE - LOVE     0000001000+00001753+00000+0001T   00001753+0000001805          1400 TH9112               2CZ
123316002123316031-080508     123316006001023802415P/FRAME PL 22X11CM LOVE0000001000+00004385+00000+0001T   00004385+0000001805          1400 TH9510               2CZ
123316003123316077-000316     123316006001023609731GIFT-BAG 25X32CM MATT  0000001000+00001753+00000+0001T   00001753+0000001805          1400 TH9112               2CZ
123316004123316112-116038     123316006009681820246TCS CARRIER BAG MIDI   0000001000+00000035+00000+0001T   00000035+0000001805          1400 TH9090               2CZ
123317000123317               123317               170213JR     1400+00000+JR0000004155+0000004155+000000000+000000582+0000004730+0000000007+I20000000000+0000004730+Z
123317001123317304-001011     123317006001023806727FLWR ROSE RED W/BEAR   0000001000+00000613+00000+0001T   00000788+0006471807          1400 TH9510               2CZ
123317002123317018-005009     123317006001023725608MUG W/PLUSH-BEAR LOVE  0000001000+00003507+00000+0001T   00003507+0000001807          1400 TH9515               2CZ
123317003123317112-116038     123317006009681820246TCS CARRIER BAG MIDI   0000001000+00000035+00000+0001T   00000035+0000001807          1400 TH9090               2CZ
123318000123318               123318               170213JR     1400+00000+JR0000011040-0000000000+000000000+000000000+0000011040-0000000000+I20000000000+0000011040-Z
123318001123318001-999901     123318000000000999901CASUAL WAGES           0000001000-00011040+00000+0001X  9201021545087 0600CMADIB0000000000 1IC9011IC OGO        2 Z
M17021391                              CASH        JRSLAVE 2                       Z-REPORT No.   648TOTAL (Sales - Refunds)          13127.23       CASH TO BE BANKED                 4730.00       DEBIT CARDS                          0.00       CREDIT CARDS                      8286.93       Z-READING                        13016.83       AIRTIME DEBIT CARD SALES             0.00       AIRTIME CARD SALES                   0.00       OVERS/UNDERS                         0.10       AIRTIME CASH SALES                   0.00       GIFT CARDS                           0.00       GIFT CARD CASH SALES                 0.00       CASUAL WAGES                       110.40       T O T A L  CASH PAYOUTS            110.40                                                                                                                                                                                                                                                                                                      Z
M17021392                              CASH        JRABSENT                                                                                                                                                                                          ANNUAL LEAVE                                                                                                                                                                                    DAY OFF                                                                                                                                                                                         COMMENTS          THANK YOU JR                                                                                                                                                                                                                                                                                                                                                                 Z
Y17021300                                          JR00000001178841+000123
ZJR17021319553 SLAVE 2      SALES DATA                     NEXT INVOICE NO.  123319 0648
T094251006-000108                                          1702131117510000071ICSLAVE 2
T094251006-000166-G                                        1702131117510000021ICSLAVE 2
T094251006-000167-F                                        1702131117510000101ICSLAVE 2
T094251006-000172-G                                        1702131117510000201ICSLAVE 2
T094251006-000172-H                                        1702131117510000201ICSLAVE 2
T094251006-000172-J                                        1702131117510000201ICSLAVE 2
X JR Slave 2 First invoice 123193 170213 Last invoice 123318 170213 Next invoice 123319 Total number of records 000000561 clbackup completed 19:55:10
