137557000137557               137557               170213JR     1400+00000+JR0000000876+0000000876+000000000+000000123+0000000990+0000000009+I20000000000+0000000990+Z
137557001137557903-000220     137557006001704007368SWT JELLY BEANS 60G    0000001000+00000876+00000+0001T   00000876+0000001109          1400 1IC150               3CZ
137558000137558               137558               170213JR     1400+00000+JR0000011710+0000011710+000000000+000001641+0000013351+0000000000+I40000013351+0000000000+Z
137558001137558071-081091     137558006001151010287STAED/GENKEM ALL-STICK 0000001000+00001227+00000+0001T   00001227+0000001137          1400 1IC130               3CZ
137558002137558266-000750     137558006003000301461TOOL SET 23cm HELMET   0000001000+00004385+00000+0001T   00004385+0000001137          1400 1IC710               3CZ
137558003137558077-000010-C   137558006001023123879CREPE-PAPER RED        0000001000+00000788+00000+0001T   00000788+0000001137          1400 1IC112               3CZ
137558004137558018-000129-A   137558006003000441396MUG CERAMIC JUMBO      0000001000+00005262+00000+0001T   00005262+0000001137          1400 1IC515               3CZ
137558005137558112-116069     137558006009681820277TCS CARRIER BAG JUMBO  0000001000+00000048+00000+0001T   00000048+0000001137          1400 1IC090               3CZ
137559000137559               137559               170213JR     1400+00000+JR0000019508+0000019508+000000000+000002734+0000022242+0000000000+I40000022242+0000000000+Z
137559001137559112-116069     137559006009681820277TCS CARRIER BAG JUMBO  0000001000+00000048+00000+0001T   00000048+0000001141          1400 1IC090               3CZ
137559002137559105-001310     137559006003000572731CONTAINER COLOUR SQUARE0000001000+00003507+00000+0001T   00003507+0000001141          1400 1IC210               3CZ
137559003137559304-001011     137559006001023806727FLWR ROSE RED W/BEAR   0000003000+00000613+00000+0001T   00000788+0006471141          1400 1IC510               3CZ
137559004137559903-000926     137559006914204004556SWT NOVELTY ST N/LACE  0000001000+00001753+00000+0001T   00001753+0000001141          1400 1IC150               3CZ
137559005137559566-000068     137559006003000418046POP UP LOVE 2 ASSTD    0000002000+00002192+00000+0001T   00002192+0000001141          1400 1IC130               3CZ
137559006137559105-001078     137559000700371637750CONTAINER 1,1L CLIP LOC0000001000+00001928+00000+0001T   00001928+0000001141          1400 1IC210               3CZ
137559007137559903-000926     137559006914204004556SWT NOVELTY ST N/LACE  0000001000+00001753+00000+0001T   00001753+0000001141          1400 1IC150               3CZ
137559008137559903-000090     137559006009826020821SWT GS CHOCO COINS 60g 0000001000+00002104+00000+0001T   00002104+0000001141          1400 1IC150               3CZ
137559009137559018-000170     137559006001023775528MUG OCC. LOVE 2PC MINI 0000001000+00002192+00000+0001T   00002192+0000001141          1400 1IC515               3CZ
137560000137560               137560               170213JR     1400+00000+JR0000001753+0000001753+000000000+000000246+0000001990+0000000009+I20000000000+0000001990+Z
137560001137560080-000113     137560006003000237449CARD&ENVLPE - LOVE     0000001000+00001753+00000+0001T   00001753+0000001142          1400 1IC112               3CZ
137561000137561               137561               170213JR     1400+00000+JR0000011306+0000011306+000000000+000001585+0000012891+0000000000+I40000012891+0000000000+Z
137561001137561903-000517     137561006001704012768SWT STRAWS FIZZY CHERRY0000001000+00001227+00000+0001T   00001227+0000001205          1400 1IC150               3CZ
137561002137561466-000040     137561006003000574742BALL WATER BOUNCING    0000001000+00004385+00000+0001T   00004385+0000001205          1400 1IC785               3CZ
137561003137561903-000077     137561006939873501687SWT GS MAGIC ROCK FRUIT0000001000+00000525+00000+0001T   00000525+0000001205          1400 1IC150               3CZ
137561004137561903-000844     137561005010478432567SWT CANDY DL LUV HEARTS0000001000+00001314+00000+0001T   00001314+0000001205          1400 1IC150               3CZ
137561005137561071-005213     137561006001023690371CELLOTAPE 12mmx33m     0000001000+00000876+00000+0001T   00000876+0000001205          1400 1IC130               3CZ
137561006137561007-000555     137561006001023848239MEMO-PAD MINI LOVE     0000001000+00000613+00000+0001T   00000613+0000001205          1400 1IC130               3CZ
137561007137561079-000807     137561006003000670277ART+CRAFT WOODEN STICKS0000001000+00001490+00000+0001T   00001490+0000001205          1400 1IC130               3CZ
137561008137561071-001019     137561006001023474513MARKER BLACK NAME-PEN  0000001000+00000876+00000+0001T   00000876+0000001205          1400 1IC130               3CZ
137562000137562               137562               170213JR     1400+00000+JR0000002805+0000002805+000000000+000000393+0000003198+0000000000+I40000003198+0000000000+Z
137562001137562077-000245     137562006001023759214GIFT-RIBBON METALLICx2 0000001000+00001227+00000+0001T   00001227+0000001208          1400 1IC112               3CZ
137562002137562077-000303     137562006001023593757GIFT-BAG PAPER MED     0000001000+00001578+00000+0001T   00001578+0000001208          1400 1IC112               3CZ
137563000137563               137563               170213JR     1400+00000+JR0000001872+0000001872+000000000+000000263+0000002130+0000000005+I20000000000+0000002130+Z
137563001137563018-000177     137563006001023797513MUG MINI LOVE ASSTD    0000002000+00000700+00000+0001T   00000700+0000001212          1400 1IC515               3CZ
137563002137563080-000133-A   137563006003000647019MINI VALENTINES CARD   0000001000+00000437+00000+0001T   00000437+0000001212          1400 1IC112               3CZ
137563003137563112-116038     137563006009681820246TCS CARRIER BAG MIDI   0000001000+00000035+00000+0001T   00000035+0000001212          1400 1IC090               3CZ
137564000137564               137564               170213JR     1400+00000+JR0000006839+0000006839+000000000+000000958+0000007797+0000000000+I40000007797+0000000000+Z
137564001137564567-075470     137564009780007795352BK NOVEL CATEGORY B    0000001000+00006139+00000+0001T   00006139+0000001213          1400 1IC757               3CZ
137564002137564903-000126     137564006002099003591SWT ZILLIONS MINT 50G  0000001000+00000700+00000+0001T   00000700+0000001213          1400 1IC150               3CZ
137565000137565               137565               170213JR     1400+00000+JR0000127731+0000127731+000000000+000017908+0000145639+0000000000+I40000145639+0000000000+Z
137565001137565565-000256     137565006003000609826NOVELTY GLOW SLIME     0000001000+00000700+00000+0001T   00000700+0000001224          1400 1IC745               3CZ
137565002137565112-116069     137565006009681820277TCS CARRIER BAG JUMBO  0000002000+00000048+00000+0001T   00000048+0000001224          1400 1IC090               3CZ
137565003137565565-000256     137565006003000609826NOVELTY GLOW SLIME     0000014000+00000700+00000+0001T   00000700+0000001224          1400 1IC745               3CZ
137565004137565565-000735     137565006003000615674NOVELTY PUTTY BOUNCING 0000015000+00000700+00000+0001T   00000700+0000001224          1400 1IC745               3CZ
137565005137565565-000256     137565006003000609826NOVELTY GLOW SLIME     0000001000+00000700+00000+0001T   00000700+0000001224          1400 1IC745               3CZ
137565006137565466-000589     137565006003000027538THROWING RINGSx5 SET   0000001000+00005262+00000+0001T   00005262+0000001224          1400 1IC785               3CZ
137565007137565903-000519     137565006001704012805SWT MS LIQ-O-GHETTI    0000001000+00001227+00000+0001T   00001227+0000001224          1400 1IC150               3CZ
137565008137565563-000317-H   137565006001023776358SERVIETTE DOTS+STRIPES 0000002000+00002630+00000+0001T   00002630+0000001224          1400 1IC214               3CZ
137565009137565036-000610     137565006001023627230WASHING-PEGS PL PACK-240000001000+00001753+00000+0001T   00001753+0000001224          1400 1IC212               3CZ
137565010137565024-000093-A   137565006003000430697MEASURING-CUPS ASSTD   0000001000+00004385+00000+0001T   00004385+0000001224          1400 1IC300               3CZ
137565011137565200-000091     137565006003000499762PICNIC PLATES PL 12PCE 0000002000+00003507+00000+0001T   00003507+0000001224          1400 1IC214               3CZ
137565012137565565-000256     137565006003000609826NOVELTY GLOW SLIME     0000001000+00000700+00000+0001T   00000700+0000001224          1400 1IC745               3CZ
137565013137565565-000735     137565006003000615674NOVELTY PUTTY BOUNCING 0000001000+00000700+00000+0001T   00000700+0000001224          1400 1IC745               3CZ
137565014137565200-000130     137565006001023645067DESSERT-SPOONS 10PCE   0000001000+00000613+00000+0001T   00000613+0000001224          1400 1IC214               3CZ
137565015137565200-000061     137565006003000506996STRAWS DRINKING CURLY  0000004000+00001490+00000+0001T   00001490+0000001224          1400 1IC214               3CZ
137565016137565565-000045     137565006003000295890NOVELTY HEADS 8PCE     0000002000+00002630+00000+0001T   00002630+0000001224          1400 1IC745               3CZ
137565017137565071-001239     137565006001023762672ERASER PL ASSTD-COLOURS0000003000+00000876+00000+0001T   00000876+0000001224          1400 1IC130               3CZ
137565018137565079-006496     137565006003000160105GLITTER SHAKERS        0000002000+00001753+00000+0001T   00001753+0000001224          1400 1IC130               3CZ
137565019137565007-000537     137565000651728791017NOTE-PAD RND SMILE-FACE0000016000+00000700+00000+0001T   00000700+0000001224          1400 1IC130               3CZ
137565020137565071-081104-A   137565006003000326662GLUE-STICK 8g CRD-OF-3 0000001000+00001227+00000+0001T   00001227+0000001224          1400 1IC130               3CZ
137565021137565072-020211     137565006001023775801PET CHEWS ROLLER-ROLL  0000002000+00001753+00000+0001T   00001753+0000001224          1400 1IC870               3CZ
137565022137565266-001303     137565006001023560698MARBLES 25MM 10PC GOONS0000002000+00001578+00000+0001T   00001578+0000001224          1400 1IC710               3CZ
137565023137565266-001305     137565006001023560735MARBLES 45MM 3PC PLANET0000001000+00001578+00000+0001T   00001578+0000001224          1400 1IC710               3CZ
137565024137565078-009100     137565006008741002349ALL-CLEAR GLUE 25ml CRD0000001000+00001314+00000+0001T   00001314+0000001224          1400 1IC810               3CZ
137565025137565106-005120     137565006001023897336ICE-LOLLY-MAKER 6PCE   0000001000+00003069+00000+0001T   00003069+0000001224          1400 1IC210               3CZ
137565026137565071-081091     137565006001151010287STAED/GENKEM ALL-STICK 0000001000+00001227+00000+0001T   00001227+0000001224          1400 1IC130               3CZ
137565027137565006-000113     137565006003000671816BALLOONS WATER FILLER  0000002000+00003507+00000+0001T   00003507+0000001224          1400 1IC131               3CZ
137565028137565566-000308     137565006003000522521STICKER TAPE 3PCS      0000001000+00002630+00000+0001T   00002630+0000001224          1400 1IC130               3CZ
137565029137565079-013097     137565006003000081639ART+CRAFT FELT ANIMALS 0000001000+00003507+00000+0001T   00003507+0000001224          1400 1IC130               3CZ
137565030137565079-130010     137565006003000496624ART+CRAFT FOAM DOLLS   0000001000+00004385+00000+0001T   00004385+0000001224          1400 1IC130               3CZ
137565031137565566-000047     137565006003000159093SCRAPBOOK 100xSHEETS   0000001000+00005262+00000+0001T   00005262+0000001224          1400 1IC130               3CZ
137565032137565903-000099     137565006923431501646SWT CANDY GS WTCH B/LET0000016000+00000262+00000+0001T   00000262+0000001224          1400 1IC150               3CZ
137565033137565903-000151     137565006009803374411SWT SML RND R/BOW LOLLY0000016000+00000525+00000+0001T   00000525+0000001224          1400 1IC150               3CZ
137566000137566               137566               170213JR     1400+00000+JR0000013547+0000013547+000000000+000001900+0000015447+0000000000+I40000015447+0000000000+Z
137566001137566566-000004-A   137566006001023614629STICKER BOOK VELVET    0000004000+00001139+00000+0001T   00001578+0008151227          1400 1IC130               3CZ
137566002137566007-000324     13756600600968585864125 SHEETS BRIGHTS MARLI0000001000+00003507+00000+0001T   00003507+0000001227          1400 1IC130               3CZ
137566003137566029-000009     137566006001023809575BUCKET GALV  2L        0000001000+00004385+00000+0001T   00004385+0000001227          1400 1IC510               3CZ
137566004137566903-000014     137566006003000691029SWT MIKE N IKE ORIG 23G0000001000+00001051+00000+0001T   00001051+0000001227          1400 1IC150               3CZ
137566005137566112-116069     137566006009681820277TCS CARRIER BAG JUMBO  0000001000+00000048+00000+0001T   00000048+0000001227          1400 1IC090               3CZ
137567000137567               137567               170213JR     1400+00000+JR0000017542+0000017542+000000000+000002456+0000019998+0000000000+I40000019998+0000000000+Z
137567001137567072-020244     137567000694202207840PET BED COTTON 90x70cm 0000001000+00017542+00000+0001T   00017542+0000001239          1400 1IC870               3CZ
137568000137568               137568               170213JR     1400+00000+JR0000005262+0000005262+000000000+000000737+0000005990+0000000009+I20000000000+0000005990+Z
137568001137568082-007580     137568006003000698523SUNGLASS MENS DESIGNER 0000001000+00005262+00000+0001T   00005262+0000001240          1400 1IC160               3CZ
137569000137569               137569               170213JR     1400+00000+JR0000010075+0000010075+000000000+000001414+0000011489+0000000000+I40000011489+0000000000+Z
137569001137569077-000310     137569006001023608635GIFT-BAG 18X23CM GLOSS 0000002000+00001314+00000+0001T   00001314+0000001242          1400 1IC112               3CZ
137569002137569903-000898     137569006922516801503SWT POPPING CANDY      0000001000+00001139+00000+0001T   00001139+0000001242          1400 1IC150               3CZ
137569003137569903-000862     137569005010478533912SWT DOUBLE DIP 19G     0000001000+00001139+00000+0001T   00001139+0000001242          1400 1IC150               3CZ
137569004137569903-000670     137569006009803358008SWT SHERBET RED LIPS   0000002000+00000218+00000+0001T   00000218+0000001242          1400 1IC150               3CZ
137569005137569903-000519     137569006001704012805SWT MS LIQ-O-GHETTI    0000001000+00001227+00000+0001T   00001227+0000001242          1400 1IC150               3CZ
137569006137569903-000912     137569006009802868461SWT GUM TAPE HOT WHEELS0000001000+00001753+00000+0001T   00001753+0000001242          1400 1IC150               3CZ
137569007137569018-000139     137569006003000547227MUG S/WARE SLANTED SHPE0000001000+00001753+00000+0001T   00002630+0008171242          1400 1IC515               3CZ
137570000137570               137570               170213JR     1400+00000+JR0000007062+0000007062+000000000+000000990+0000008052+0000000000+I40000008052+0000000000+Z
137570001137570112-116069     137570006009681820277TCS CARRIER BAG JUMBO  0000001000+00000048+00000+0001T   00000048+0000001244          1400 1IC090               3CZ
137570002137570077-000150-D   137570006003000054343GIFT-WRAP CELLPHANE CLR0000001000+00000876+00000+0001T   00000876+0000001244          1400 1IC112               3CZ
137570003137570077-000011-D   137570006001023808554TISSUE-WRAP WHITE 10PCE0000001000+00000876+00000+0001T   00000876+0000001244          1400 1IC112               3CZ
137570004137570103-000245     137570006003000571550BASKET WOVEN RECT      0000001000+00005262+00000+0001T   00005262+0000001244          1400 1IC300               3CZ
137571000137571               137571               170213JR     1400+00000+JR0000005699+0000005699+000000000+000000799+0000006498+0000000000+I40000006498+0000000000+Z
137571001137571106-005120     137571006001023897336ICE-LOLLY-MAKER 6PCE   0000001000+00003069+00000+0001T   00003069+0000001246          1400 1IC210               3CZ
137571002137571105-001315     137571006003000572854CONTAINER COLOUR RIM   0000001000+00002630+00000+0001T   00002630+0000001246          1400 1IC210               3CZ
137572000137572               137572               170213JR     1400+00000+JR0000005120+0000005120+000000000+000000717+0000005837+0000000000+I40000005837+0000000000+Z
137572001137572112-116038     137572006009681820246TCS CARRIER BAG MIDI   0000001000+00000035+00000+0001T   00000035+0000001247          1400 1IC090               3CZ
137572002137572018-000136     137572006001023659026MUG OCC LOVE W/PLUSH   0000001000+00003507+00000+0001T   00003507+0000001247          1400 1IC515               3CZ
137572003137572077-000303     137572006001023593757GIFT-BAG PAPER MED     0000001000+00001578+00000+0001T   00001578+0000001247          1400 1IC112               3CZ
137573000137573               137573               170213JR     1400+00000+JR0000018112+0000018112+000000000+000002538+0000020650+0000000000+I40000020650+0000000000+Z
137573001137573112-116069     137573006009681820277TCS CARRIER BAG JUMBO  0000001000+00000048+00000+0001T   00000048+0000001254          1400 1IC090               3CZ
137573002137573024-000109     137573006001023902337MINI-CUP PAN 12CUP     0000001000+00007016+00000+0001T   00007016+0000001254          1400 1IC300               3CZ
137573003137573024-000123     137573006001023902368N/STICK 6 L/PAN MINI   0000001000+00007016+00000+0001T   00008771+0008121254          1400 1IC300               3CZ
137573004137573077-000303     137573006001023593757GIFT-BAG PAPER MED     0000001000+00001578+00000+0001T   00001578+0000001254          1400 1IC112               3CZ
137573005137573903-000519     137573006001704012805SWT MS LIQ-O-GHETTI    0000001000+00001227+00000+0001T   00001227+0000001254          1400 1IC150               3CZ
137573006137573903-000510     137573006001704012621SWEET MS ZBDZ S/BERRY  0000001000+00001227+00000+0001T   00001227+0000001254          1400 1IC150               3CZ
137574000137574               137574               170213JR     1400+00000+JR0000005262+0000005262+000000000+000000737+0000005999+0000000000+I40000005999+0000000000+Z
137574001137574366-002195     137574006001023990549DRESS UP WINGS FEATHER 0000001000+00005262+00000+0001T   00005262+0000001255          1400 1IC131               3CZ
137575000137575               137575               170213JR     1400+00000+JR0000002630+0000002630+000000000+000000369+0000002999+0000000000+I40000002999+0000000000+Z
137575001137575079-001107     137575006003000380879ART+CRAFT SAND ART     0000001000+00002630+00000+0001T   00002630+0000001300          1400 1IC130               3CZ
137576000137576               137576               170213JR     1400+00000+JR0000000000+0000000000+000000000+000000000+0000000000+0000000000+I20000000000+0000000000+Z
137576001137576018-030000     137576006003000421060MUG OCCASIONS LOVE 2PCE0000001000+00004385+00000+0001T   00004385+0000001302          1400 1IC515               3 Z
137576002137576368-000040     137576006003000671786PLUSH ICONS 7.5cm      0000001000+00002630+00000+0001T   00002630+0000001302          1400 1IC745               3 Z
137576003137576018-030000     137576006003000421060MUG OCCASIONS LOVE 2PCE0000001000-00004385+00000+0001T   00004385+0000001302          1400 1IC5151IC            3 Z
137576004137576368-000040     137576006003000671786PLUSH ICONS 7.5cm      0000001000-00002630+00000+0001T   00002630+0000001302          1400 1IC7451IC            3 Z
137577000137577               137577               170213JR     1400+00000+JR0000003331+0000003331+000000000+000000467+0000003798+0000000000+I40000003798+0000000000+Z
137577001137577080-000100     137577006003000236114CARD & ENVELOPE BDAY   0000001000+00001753+00000+0001T   00001753+0000001304          1400 1IC112               3CZ
137577002137577077-000315     137577006003000181186GIFT-BAG 20x28cm MATT  0000001000+00001578+00000+0001T   00001578+0000001304          1400 1IC112               3CZ
137578000137578               137578               170213JR     1400+00000+JR0000009646+0000009646+000000000+000001351+0000010997+0000000000+I40000010997+0000000000+Z
137578001137578362-002467     137578006003000167623HAIR EXT LONG 61cm     0000001000+00003507+00000+0001T   00003507+0000001311          1400 1IC160               3CZ
137578002137578366-001101     137578006003000006991DRESS UP BOYS ASSTD    0000001000+00006139+00000+0001T   00006139+0000001311          1400 1IC131               3CZ
137579000137579               137579               170213JR     1400+00000+JR0000000874+0000000874+000000000+000000124+0000000990+0000000008+I20000000000+0000000990+Z
137579001137579080-000133-A   137579006003000647019MINI VALENTINES CARD   0000002000+00000437+00000+0001T   00000437+0000001314          1400 1IC112               3CZ
137580000137580               137580               170213JR     1400+00000+JR0000007971+0000007971+000000000+000001118+0000009080+0000000009+I20000000000+0000009080+Z
137580001137580006-000109-A   137580006003000645435BALLOONS HELIUM 2PC    0000001000+00001753+00000+0001T   00001753+0000001316          1400 1IC131               3CZ
137580002137580006-000166-D   137580006003000516490BALLOONS LRG 6PC RED   0000001000+00001314+00000+0001T   00001314+0000001316          1400 1IC131               3CZ
137580003137580006-001000     137580006003000093779HELIUM BALLOON FILL    0000008000+00000613+00000+0001T   00000613+0000001316          1400 1IC131               3CZ
137581000137581               137581               170213JR     1400+00000+JR0000010690+0000010690+000000000+000001502+0000012192+0000000000+I40000012192+0000000000+Z
137581001137581368-000049     137581006003000536955PLUSH BEAR 15cm LOVE   0000001000+00004385+00000+0001T   00004385+0000001321          1400 1IC745               3AZ
137581002137581077-000383     137581006003000247943GIFT-BAG 11X14CM S/COL 0000002000+00000788+00000+0001T   00000788+0000001321          1400 1IC1121IC            3AZ
137581003137581089-060027     137581006003000245871KEY-CHAIN HEART 6X6cm  0000001000+00003069+00000+0001T   00003069+0000001321          1400 1IC205               3AZ
137581004137581080-000133-A   137581006003000647019MINI VALENTINES CARD   0000002000+00000437+00000+0001T   00000437+0000001321          1400 1IC112               3AZ
137581005137581903-000183     137581006003000451043SWT LB HEART LOLLY     0000002000+00000393+00000+0001T   00000393+0000001321          1400 1IC150               3AZ
137582000137582               137582               170213JR     1400+00000+JR0000016972+0000016972+000000000+000002378+0000019350+0000000000+I20000000000+0000019350+Z
137582001137582112-116069     137582006009681820277TCS CARRIER BAG JUMBO  0000001000+00000048+00000+0001T   00000048+0000001339          1400 1IC090               3CZ
137582002137582077-000303     137582006001023593757GIFT-BAG PAPER MED     0000001000+00001578+00000+0001T   00001578+0000001339          1400 1IC112               3CZ
137582003137582080-000100     137582006003000236114CARD & ENVELOPE BDAY   0000001000+00001753+00000+0001T   00001753+0000001339          1400 1IC112               3CZ
137582004137582080-000133-A   137582006003000647019MINI VALENTINES CARD   0000001000+00000437+00000+0001T   00000437+0000001339          1400 1IC112               3CZ
137582005137582001-000175     137582006001023788108B/MUG GLS LOVE 380ML   0000001000+00004385+00000+0001T   00004385+0000001339          1400 1IC515               3CZ
137582006137582019-000047-A   137582006001023749048VASE GLASS 30CM CLEAR  0000001000+00008771+00000+0001T   00008771+0000001339          1400 1IC510               3CZ
137583000137583               137583               170213JR     1400+00000+JR0000002227+0000002227+000000000+000000312+0000002530+0000000009+I20000000000+0000002530+Z
137583001137583018-000170     137583006001023775528MUG OCC. LOVE 2PC MINI 0000001000+00002192+00000+0001T   00002192+0000001358          1400 1IC515               3CZ
137583002137583112-116038     137583006009681820246TCS CARRIER BAG MIDI   0000001000+00000035+00000+0001T   00000035+0000001358          1400 1IC090               3CZ
137584000137584               137584               170213JR     1400+00000+JR0000021958+0000021958+000000000+000003080+0000025038+0000000000+I40000025038+0000000000+Z
137584001137584112-116069     137584006009681820277TCS CARRIER BAG JUMBO  0000001000+00000048+00000+0001T   00000048+0000001403          1400 1IC090               3CZ
137584002137584016-006425     137584006001023998170S/JAR GLS CLIP W/RIBBON0000004000+00002630+00000+0001T   00002630+0000001403          1400 1IC300               3CZ
137584003137584077-000011-E   137584006001023808646TISSUE-WRAP PINK 10PCE 0000001000+00000876+00000+0001T   00000876+0000001403          1400 1IC112               3CZ
137584004137584077-000321     137584006001023677501GIFT-BAG 11X14CM E/D FL0000002000+00000613+00000+0001T   00000613+0000001403          1400 1IC112               3CZ
137584005137584077-000317     137584006001023609748GIFT-BAG 11X14CM E/D AN0000002000+00000613+00000+0001T   00000613+0000001403          1400 1IC112               3CZ
137584006137584018-000170     137584006001023775528MUG OCC. LOVE 2PC MINI 0000002000+00002192+00000+0001T   00002192+0000001403          1400 1IC515               3CZ
137584007137584077-000321     137584006001023677501GIFT-BAG 11X14CM E/D FL0000004000+00000613+00000+0001T   00000613+0000001403          1400 1IC112               3CZ
137584008137584304-001011     137584006001023806727FLWR ROSE RED W/BEAR   0000002000+00000613+00000+0001T   00000788+0006471403          1400 1IC510               3CZ
137585000137585               137585               170213JR     1400+00000+JR0000013150+0000013150+000000000+000001844+0000014994+0000000000+I40000014994+0000000000+Z
137585001137585366-002690     137585006001023902894DRESS UP HAT SPORTS    0000001000+00006139+00000+0001T   00006139+0000001508          1400 1IC131               3CZ
137585002137585366-001101     137585006003000006991DRESS UP BOYS ASSTD    0000001000+00006139+00000+0001T   00006139+0000001508          1400 1IC131               3CZ
137585003137585006-000170-L   137585006003000637614BALLOONS 1PC ROYAL BLUE0000002000+00000218+00000+0001T   00000218+0000001508          1400 1IC131               3CZ
137585004137585006-000171-D   137585006003000609291BALLOONS 1PC ORANGE PRN0000002000+00000218+00000+0001T   00000218+0000001508          1400 1IC131               3CZ
137586000137586               137586               170213JR     1400+00000+JR0000007924+0000007924+000000000+000001111+0000009035+0000000000+I40000009035+0000000000+Z
137586001137586903-000295     137586006001704002899SWT MS FRUITY RASCALS  0000001000+00000876+00000+0001T   00000876+0000001657          1400 1IC150               3CZ
137586002137586007-000325     137586006009698066514PAPER A4 160GSM 25SHTS 0000001000+00003507+00000+0001T   00003507+0000001657          1400 1IC130               3CZ
137586003137586007-000094     137586006003000659289ENVELOPES WHT 5PK C4   0000002000+00001753+00000+0001T   00001753+0000001657          1400 1IC130               3CZ
137586004137586112-116038     137586006009681820246TCS CARRIER BAG MIDI   0000001000+00000035+00000+0001T   00000035+0000001657          1400 1IC090               3CZ
137587000137587               137587               170213JR     1400+00000+JR0000009254+0000009254+000000000+000001296+0000010550+0000000000+I20000000000+0000010550+Z
137587001137587107-004105     137587006002923010504BUCKET 9L OPEN         0000001000+00001314+00000+0001T   00001314+0000001732          1400 1IC210               3CZ
137587002137587104-000180     137587006001023765758CUTLERY-TRAY PL        0000001000+00003507+00000+0001T   00003507+0000001732          1400 1IC210               3CZ
137587003137587105-002030     137587006001023587923CONTAINERS 3PCE O/STAND0000001000+00004385+00000+0001T   00004385+0000001732          1400 1IC210               3CZ
137587004137587112-116069     137587006009681820277TCS CARRIER BAG JUMBO  0000001000+00000048+00000+0001T   00000048+0000001732          1400 1IC090               3CZ
137588000137588               137588               170213JR     1400+00000+JR0000018536+0000018536+000000000+000002598+0000021134+0000000000+I40000021134+0000000000+Z
137588001137588162-096641     137588006001492966410#TAG EARRINGS PEARL    0000001000+00000876+00000+0001T   00001753+0008161736          1400 1IC160               3AZ
137588002137588162-010770     137588006001492107707#TAG NECKLACE&EARRINGS 0000001000+00006139+00000+0001T   00006139+0000001736          1400 1IC160               3AZ
137588003137588050-004107-Z   137588006001023812629PADLOCK DISCUS S/S 70mm0000001000+00007893+00000+0001T   00007893+0000001736          1400 1IC855               3AZ
137588004137588251-000041     137588006001023515889SEAL-TAPE BUFF 48mmx50m0000001000+00001227+00000+0001T   00001227+0000001736          1400 1IC810               3AZ
137588005137588200-003024     137588006001023657299REFUSE BAGS 20PCE BLACK0000001000+00001753+00000+0001T   00001753+0000001736          1400 1IC214               3AZ
137588006137588077-000321     137588006001023677501GIFT-BAG 11X14CM E/D FL0000001000+00000613+00000+0001T   00000613+0000001736          1400 1IC112               3AZ
137588007137588112-116038     137588006009681820246TCS CARRIER BAG MIDI   0000001000+00000035+00000+0001T   00000035+0000001736          1400 1IC090               3AZ
137589000137589               137589               170213JR     1400+00000+JR0000021834+0000021834+000000000+000003060+0000024894+0000000000+I40000024894+0000000000+Z
137589001137589104-000140     137589006002923019835WASTEPAPER BIN FLIP 24L0000001000+00011402+00000+0001T   00011402+0000001737          1400 1IC210               3CZ
137589002137589036-000151     137589006001023810588COATHANGERS    PACK-10 0000002000+00002893+00000+0001T   00002893+0000001737          1400 1IC212               3CZ
137589003137589133-000017     137589006003000525171CLEANING-CLOTHS 5PCE   0000001000+00003507+00000+0001T   00003507+0000001737          1400 1IC212               3CZ
137589004137589027-000081     137589006001023760371SCOURING PADS 10PCE    0000001000+00001139+00000+0001T   00001139+0000001737          1400 1IC212               3CZ
A17021300                                          09104737JRSLAVE 3                       1IC1IC
B13758100                                          170213JR077-000383     13201607SLAVE 3     1IC1IC0000003000+0000002000+0000000000000+
B13758101                                          170213JR080-000133-A   13203521SLAVE 3     1IC1IC0000003000+0000002000+0000000000000+
B13758102                                          170213JR903-000183     13204674SLAVE 3     1IC1IC0000003000+0000002000+0000000000000+
M17021391                              CASH        JRSLAVE 3                       Z-REPORT No.   644TOTAL (Sales - Refunds)           4777.69       CASH TO BE BANKED                    1.00       DEBIT CARDS                          0.00       CREDIT CARDS                         0.00       Z-READING                         4777.69       AIRTIME DEBIT CARD SALES             0.00       AIRTIME CARD SALES                   0.00       OVERS/UNDERS                      4776.69-      AIRTIME CASH SALES                   0.00       GIFT CARDS                           0.00       GIFT CARD CASH SALES                 0.00       T O T A L  CASH PAYOUTS              0.00                                                                                                                                                                                                                                                                                                                                                      Z
M17021392                              CASH        JRABSENT                                                                                                                                                                                          ANNUAL LEAVE                                                                                                                                                                                    DAY OFF                                                                                                                                                                                         COMMENTS                                                                                                                                                                                                                                                                                                                                                                                       Z
Y17021300                                          JR00000000426093+000033
ZJR17021319553 SLAVE 3      SALES DATA                     NEXT INVOICE NO.  137590 0644
X JR Slave 3 First invoice 137557 170213 Last invoice 137589 170213 Next invoice 137590 Total number of records 000000192 clbackup completed 19:55:14
