121502000121502               121502               170213JS     1400+00000+JS0000001753+0000001753+000000000+000000246+0000001990+0000000009+I20000000000+0000001990+Z
121502001121502080-000104     121502006003000236978CARD&ENVLP MALE AFR    0000001000+00001753+00000+0001T   00001753+0000000901          1400 KS3112               2AZ
121503000121503               121503               170213JS     1400+00000+JS0000017934+0000017934+000000000+000002514+0000020448+0000000000+I40000020448+0000000000+Z
121503001121503082-000100     121503006003000360246READING GLS STRENGHT:1 0000001000+00004385+00000+0001T   00004385+0000000918          1400 KS3160               2AZ
121503002121503112-116069     121503006009681820277TCS CARRIER BAG JUMBO  0000001000+00000048+00000+0001T   00000048+0000000918          1400 KS3090               2AZ
121503003121503082-000122-A   121503006003000403561READING GLS STRENGTH:1 0000001000+00005262+00000+0001T   00005262+0000000918          1400 KS3160               2AZ
121503004121503082-000100     121503006003000360246READING GLS STRENGHT:1 0000001000+00004385+00000+0001T   00004385+0000000918          1400 KS3160               2AZ
121503005121503903-000200     121503006009826020234SWT CHOC RP CHOCO 23G  0000001000+00000788+00000+0001T   00000788+0000000918          1400 KS3150               2AZ
121503006121503903-002890     121503008935001721352MENTOS GUM PURE F/MINT 0000001000+00001051+00000+0001T   00001051+0000000918          1400 KS3150               2AZ
121503007121503903-000087     121503006001704000161SWT SPECKLED-EGGS 50G  0000001000+00001139+00000+0001T   00001139+0000000918          1400 KS3150               2AZ
121503008121503903-000494     121503006001704009911SWT GUMMY TEENY TEDDIES0000001000+00000876+00000+0001T   00000876+0000000918          1400 KS3150               2AZ
121504000121504               121504               170213JS     1400+00000+JS0000008819+0000008819+000000000+000001235+0000010050+0000000004+I20000000000+0000010050+Z
121504001121504469-003002     121504006001023878595BUILDING METAL VEHICLES0000001000+00008771+00000+0001T   00008771+0000001007          1400 KS3755               2AZ
121504002121504112-116069     121504006009681820277TCS CARRIER BAG JUMBO  0000001000+00000048+00000+0001T   00000048+0000001007          1400 KS3090               2AZ
121505000121505               121505               170213JS     1400+00000+JS0000004383+0000004383+000000000+000000614+0000004997+0000000000+I40000004997+0000000000+Z
121505001121505089-060027     121505006003000245871KEY-CHAIN HEART 6X6cm  0000001000+00003069+00000+0001T   00003069+0000001014          1400 KS3205               2AZ
121505002121505080-000114     121505006003000246472CARD&ENV LOVE-MUSICAL  0000001000+00001314+00000+0001T   00001753+0008151014          1400 KS3112               2AZ
121506000121506               121506               170213JS     1400+00000+JS0000022804+0000022804+000000000+000003194+0000025998+0000000000+I40000025998+0000000000+Z
121506001121506586-010753     121506006001492107530WATCH LDS MTL ASSTD    0000002000+00011402+00000+0001T   00011402+0000001029          1400 KS3160               2AZ
121507000121507               121507               170213JS     1400+00000+JS0000003554+0000003554+000000000+000000499+0000004053+0000000000+I40000004053+0000000000+Z
121507001121507491-059640     121507000078257596409INTEX:ARMBAND 3-6YRS   0000001000+00001753+00000+0001T   00001753+0000001039          1400 KS3787               2AZ
121507002121507491-059642     121507000078257596423INTEX ARMBAND 6-12YRS  0000001000+00001753+00000+0001T   00001753+0000001039          1400 KS3787               2AZ
121507003121507112-116069     121507006009681820277TCS CARRIER BAG JUMBO  0000001000+00000048+00000+0001T   00000048+0000001039          1400 KS3090               2AZ
121508000121508               121508               170213JS     1400+00000+JS0000002454+0000002454+000000000+000000344+0000002790+0000000008+I20000000000+0000002790+Z
121508001121508077-000319     121508006001023609779GIFT-BAG 18X23CM BIRTHD0000002000+00001227+00000+0001T   00001227+0000001042          1400 KS3112               2AZ
121509000121509               121509               170213JS     1400+00000+JS0000007453+0000007453+000000000+000001044+0000008497+0000000000+I40000008497+0000000000+Z
121509001121509038-001805     121509006003000466405DOILIES PAPER 60PC 3ASS0000001000+00003069+00000+0001T   00003069+0000001046          1400 KS3300               2AZ
121509002121509108-001208     121509006003000667147ICE CREAM BOWLS 4-PACK 0000001000+00002192+00000+0001T   00002192+0000001046          1400 KS3210               2AZ
121509003121509002-001700     121509006003000333707ONION-KEEPER PL        0000001000+00002192+00000+0001T   00002192+0000001046          1400 KS3300               2AZ
121510000121510               121510               170213JS     1400+00000+JS0000001753+0000001753+000000000+000000246+0000001990+0000000009+I20000000000+0000001990+Z
121510001121510133-000012     121510006001023561084CLEANING-CLOTH GREEN   0000001000+00001753+00000+0001T   00001753+0000001047          1400 KS3212               2AZ
121511000121511               121511               170213JS     1400+00000+JS0000000612+0000000612+000000000+000000086+0000000690+0000000008+I20000000000+0000000690+Z
121511001121511079-009700-D   121511006003000545711PAPER SIRIO A4 RED COL.0000001000+00000306+00000+0001T   00000306+0000001048          1400 KS3130               2AZ
121511002121511079-009700-B   121511006003000547661PAPER SIRIO A4 WHITE   0000001000+00000306+00000+0001T   00000306+0000001048          1400 KS3130               2AZ
121512000121512               121512               170213JS     1400+00000+JS0000002100+0000002100+000000000+000000294+0000002390+0000000004+I20000000000+0000002390+Z
121512001121512564-000012     121512006001023130075BUBBLE BOTTLE MAGIC    0000003000+00000700+00000+0001T   00000700+0000001049          1400 KS3131               2AZ
121513000121513               121513               170213JS     1400+00000+JS0000002630+0000002630+000000000+000000369+0000002990+0000000009+I20000000000+0000002990+Z
121513001121513079-105310     121513006003000588947ART+CRAFT PAINT PALETTE0000001000+00002630+00000+0001T   00002630+0000001127          1400 KS3130               2AZ
121514000121514               121514               170213JS     1400+00000+JS0000003028+0000003028+000000000+000000425+0000003450+0000000003+I20000000000+0000003450+Z
121514001121514112-116069     121514006009681820277TCS CARRIER BAG JUMBO  0000001000+00000048+00000+0001T   00000048+0000001130          1400 KS3090               2AZ
121514002121514106-001100-B   121514006001023651693FRIDGE BOTTLE ASSORTED 0000002000+00001490+00000+0001T   00001490+0000001130          1400 KS3210               2AZ
121515000121515               121515               170213JS     1400+00000+JS0000005260+0000005260+000000000+000000738+0000005998+0000000000+I40000005998+0000000000+Z
121515001121515019-071600     121515006001023771971RIVER-STONES 1kg MIXED 0000002000+00002630+00000+0001T   00002630+0000001132          1400 KS3510               2AZ
121516000121516               121516               170213JS     1400+00000+JS0000001753+0000001753+000000000+000000246+0000001990+0000000009+I20000000000+0000001990+Z
121516001121516200-003024     121516006001023657299REFUSE BAGS 20PCE BLACK0000001000+00001753+00000+0001T   00001753+0000001147          1400 KS3214               2AZ
121517000121517               121517               170213JS     1400+00000+JS0000004433+0000004433+000000000+000000621+0000005050+0000000004+I20000000000+0000005050+Z
121517001121517263-000015     121517006003000656097VEHICLES LAUNCH & GO   0000001000+00004385+00000+0001T   00004385+0000001148          1400 KS3710               2AZ
121517002121517112-116069     121517006009681820277TCS CARRIER BAG JUMBO  0000001000+00000048+00000+0001T   00000048+0000001148          1400 KS3090               2AZ
121518000121518               121518               170213JS     1400+00000+JS0000003945+0000003945+000000000+000000553+0000004490+0000000008+I20000000000+0000004490+Z
121518001121518200-000002     121518006925406821049BAG FLIP TOP 80PCE     0000001000+00002192+00000+0001T   00002192+0000001159          1400 KS3214               2AZ
121518002121518007-000230     121518006001023995315LABELS STICK-ON STARS  0000001000+00001753+00000+0001T   00001753+0000001159          1400 KS3130               2AZ
121519000121519               121519               170213JS     1400+00000+JS0000003905+0000003905+000000000+000000547+0000004452+0000000000+I40000004452+0000000000+Z
121519001121519562-058911     121519006001023705778EDU MAGNETIC UPPER CASE0000001000+00003507+00000+0001T   00003507+0000001229          1400 KS3755               2AZ
121519002121519007-000104     121519006009685854865BK COVER BRWN KRFT ROLL0000001000+00000350+00000+0001T   00000350+0000001229          1400 KS3130               2AZ
121519003121519112-116069     121519006009681820277TCS CARRIER BAG JUMBO  0000001000+00000048+00000+0001T   00000048+0000001229          1400 KS3090               2AZ
121520000121520               121520               170213JS     1400+00000+JS0000014032+0000014032+000000000+000001966+0000015998+0000000000+I40000015998+0000000000+Z
121520001121520264-000922     121520000090159250012MAISTO CAR PULL-BACK   0000001000+00006139+00000+0001T   00007016+0008191230          1400 KS3710               2AZ
121520002121520082-000126     121520006003000646517READING GLASS TWIN 2.5 0000001000+00007893+00000+0001T   00007893+0000001230          1400 KS3160               2AZ
121521000121521               121521               170213JS     1400+00000+JS0000005698+0000005698+000000000+000000799+0000006490+0000000007+I20000000000+0000006490+Z
121521001121521566-000359     121521006003000582709STICKER BOOK LOVE SPARK0000001000+00002192+00000+0001T   00002192+0000001232          1400 KS3130               2AZ
121521002121521077-000011-X   121521006001023809827TISSUE-WRAP SILVER 10PC0000001000+00001753+00000+0001T   00001753+0000001232          1400 KS3112               2AZ
121521003121521566-002004     121521006001023672421STICKERS CRYSTAL SHAPES0000001000+00001753+00000+0001T   00001753+0000001232          1400 KS3130               2AZ
121522000121522               121522               170213JS     1400+00000+JS0000001490+0000001490+000000000+000000209+0000001690+0000000009+I20000000000+0000001690+Z
121522001121522077-000452     121522006003000284986G/BAG METALLIC MED EMB 0000001000+00001490+00000+0001T   00001490+0000001237          1400 KS3112               2AZ
121523000121523               121523               170213JS     1400+00000+JS0000005044+0000005044+000000000+000000708+0000005752+0000000000+I40000005752+0000000000+Z
121523001121523007-000206     121523006009635830215X/PAD 80-SHEETS PUNCHED0000001000+00001227+00000+0001T   00001227+0000001242          1400 KS3130               2AZ
121523002121523112-116069     121523006009681820277TCS CARRIER BAG JUMBO  0000001000+00000048+00000+0001T   00000048+0000001242          1400 KS3090               2AZ
121523003121523071-001362     121523006003000589258HIGHLIGHTER 4 PACK     0000001000+00002630+00000+0001T   00002630+0000001242          1400 KS3130               2AZ
121523004121523903-000087     121523006001704000161SWT SPECKLED-EGGS 50G  0000001000+00001139+00000+0001T   00001139+0000001242          1400 KS3150               2AZ
121524000121524               121524               170213JS     1400+00000+JS0000006662+0000006662+000000000+000000934+0000007590+0000000006+I20000000000+0000007590+Z
121524001121524046-000011     121524004897006172994BATTERIES SIZE:AA  2PCE0000001000+00001402+00000+0001T   00001402+0000001243          1400 KS3312               2AZ
121524002121524486-002083     121524006001023740403A/CLOCK QTZ PL SQR     0000001000+00003507+00000+0001T   00003507+0000001243          1400 KS3510               2AZ
121524003121524036-000063     121524006009654960436COATHANGERS VIRGIN 5PCE0000001000+00001753+00000+0001T   00001753+0000001243          1400 KS3212               2AZ
121525000121525               121525               170213JS     1400+00000+JS0000020035+0000020035+000000000+000002809+0000022844+0000000000+I40000022844+0000000000+Z
121525001121525112-116069     121525006009681820277TCS CARRIER BAG JUMBO  0000001000+00000048+00000+0001T   00000048+0000001246          1400 KS3090               2AZ
121525002121525104-000030     121525006001023803481BASKET PL 28x20x12cm   0000001000+00004385+00000+0001T   00004385+0000001246          1400 KS3210               2AZ
121525003121525077-000010-C   121525006001023123879CREPE-PAPER RED        0000001000+00000788+00000+0001T   00000788+0000001246          1400 KS3112               2AZ
121525004121525077-000251     121525006003000639106GIFT-DECOR RIBBON      0000001000+00002630+00000+0001T   00002630+0000001246          1400 KS3112               2AZ
121525005121525304-001011     121525006001023806727FLWR ROSE RED W/BEAR   0000002000+00000613+00000+0001T   00000788+0006471246          1400 KS3510               2AZ
121525006121525267-000200     121525006001023892379PUZZLE 24pc CARTOON    0000001000+00002192+00000+0001T   00002192+0000001246          1400 KS3755               2AZ
121525007121525566-000065     121525006003000217915STICKERS GLITTER ASSTD 0000002000+00001753+00000+0001T   00001753+0000001246          1400 KS3130               2AZ
121525008121525071-005213     121525006001023690371CELLOTAPE 12mmx33m     0000001000+00000876+00000+0001T   00000876+0000001246          1400 KS3130               2AZ
121525009121525566-000950     121525006003000216048STICKERS 3 STYLES 100PC0000001000+00002192+00000+0001T   00002192+0000001246          1400 KS3130               2AZ
121525010121525077-000926     121525006003000414178G/WRAP 700mmx2m LOVE   0000001000+00002192+00000+0001T   00002192+0000001246          1400 KS3112               2AZ
121526000121526               121526               170213JS     1400+00000+JS0000013549+0000013549+000000000+000001900+0000015449+0000000000+I40000015449+0000000000+Z
121526001121526112-116069     121526006009681820277TCS CARRIER BAG JUMBO  0000001000+00000048+00000+0001T   00000048+0000001247          1400 KS3090               2AZ
121526002121526903-000220     121526006001704007368SWT JELLY BEANS 60G    0000001000+00000876+00000+0001T   00000876+0000001247          1400 KS3150               2AZ
121526003121526082-000124     121526006003000646272READING GLASS TWIN 1.5 0000001000+00007893+00000+0001T   00007893+0000001247          1400 KS3160               2AZ
121526004121526077-000319     121526006001023609779GIFT-BAG 18X23CM BIRTHD0000001000+00001227+00000+0001T   00001227+0000001247          1400 KS3112               2AZ
121526005121526903-002853     121526000000087108019MENTOS ROLL MINT       0000001000+00001051+00000+0001T   00001051+0000001247          1400 KS3150               2AZ
121526006121526077-000322     121526006001023677532GIFT-BAG 18X23CM E/D FL0000002000+00001227+00000+0001T   00001227+0000001247          1400 KS3112               2AZ
121527000121527               121527               170213JS     1400+00000+JS0000004691+0000004691+000000000+000000659+0000005350+0000000000+I20000000000+0000005350+Z
121527001121527306-000021     121527006001023169433EARBUDS 100PCE IN BAG  0000002000+00000613+00000+0001T   00000613+0000001248          1400 KS3200               2AZ
121527002121527033-001363     121527006001023802057HAIR-CLIPS 50mm 48PCE  0000003000+00001139+00000+0001T   00001139+0000001248          1400 KS3200               2AZ
121527003121527112-116069     121527006009681820277TCS CARRIER BAG JUMBO  0000001000+00000048+00000+0001T   00000048+0000001248          1400 KS3090               2AZ
121528000121528               121528               170213JS     1400+00000+JS0000001753+0000001753+000000000+000000246+0000001999+0000000000+I40000001999+0000000000+Z
121528001121528080-000103     121528006003000236961CARD&ENVLOPE BDAY-MALE 0000001000+00001753+00000+0001T   00001753+0000001250          1400 KS3112               2AZ
121529000121529               121529               170213JS     1400+00000+JS0000028022+0000028022+000000000+000003926+0000031948+0000000000+I40000031948+0000000000+Z
121529001121529019-000080     121529006001023775740VASE GLS FLORIST BALL  0000001000+00008771+00000+0001T   00008771+0000001252          1400 KS3510               2AZ
121529002121529112-116069     121529006009681820277TCS CARRIER BAG JUMBO  0000001000+00000048+00000+0001T   00000048+0000001252          1400 KS3090               2AZ
121529003121529560-000229     121529006003000469468ANIMALS BIG EYES ASSTD 0000001000+00006139+00000+0001T   00006139+0000001252          1400 KS3745               2AZ
121529004121529903-000619     121529006003000672455SWT LOLLY STR/BRRY 140G0000001000+00001753+00000+0001T   00001753+0000001252          1400 KS3150               2AZ
121529005121529019-071611     121529006003000513642PEBBLES W/GEM 10g CLEAR0000001000+00001490+00000+0001T   00001490+0000001252          1400 KS3510               2AZ
121529006121529903-000518     121529006001704012782SWT STRAWS S/BERRY 100g0000001000+00001227+00000+0001T   00001227+0000001252          1400 KS3150               2AZ
121529007121529565-000008     121529006003000548828NOVELTY B/O ROBOT FISH 0000001000+00006139+00000+0001T   00006139+0000001252          1400 KS3745               2AZ
121529008121529565-000085     121529006003000643332NOVELTY BEEDZ 10g      0000001000+00002455+00000+0001T   00002455+0000001252          1400 KS3745               2AZ
121530000121530               121530               170213JS     1400+00000+JS0000002192+0000002192+000000000+000000307+0000002490+0000000009+I20000000000+0000002490+Z
121530001121530080-000127     121530006003000424351VALENTINES DAY 36x24CM 0000001000+00002192+00000+0001T   00002192+0000001257          1400 KS3112               2AZ
121531000121531               121531               170213JS     1400+00000+JS0000035124+0000035124+000000000+000004922+0000040046+0000000000+I40000040046+0000000000+Z
121531001121531112-116069     121531006009681820277TCS CARRIER BAG JUMBO  0000001000+00000048+00000+0001T   00000048+0000001259          1400 KS3090               2AZ
121531002121531024-000107     121531006001023422071MUFFIN-PAN 12-CUP      0000001000+00009648+00000+0001T   00009648+0000001259          1400 KS3300               2AZ
121531003121531024-000109     121531006001023902337MINI-CUP PAN 12CUP     0000001000+00007016+00000+0001T   00007016+0000001259          1400 KS3300               2AZ
121531004121531038-047246     121531006001023873750PLACEMAT 44x28cm KIDS  0000001000+00000876+00000+0001T   00000876+0000001259          1400 KS3300               2AZ
121531005121531002-000717     121531006001023775184CHOPPING-MATS FLEX 2PCE0000001000+00002630+00000+0001T   00002630+0000001259          1400 KS3300               2AZ
121531006121531159-000040     121531006001023767691HOOK-HANGER 4PC S/S    0000001000+00002630+00000+0001T   00002630+0000001259          1400 KS3200               2AZ
121531007121531087-000102     121531006003000137466HAIR TRIMMER SET       0000001000+00003507+00000+0001T   00003507+0000001259          1400 KS3200               2AZ
121531008121531002-003725     121531006001023849557COLANDER S/S 24x10cm   0000001000+00006139+00000+0001T   00006139+0000001259          1400 KS3300               2AZ
121531009121531015-002000     121531006001023640314BOWL S/STEEL MIXING 16c0000001000+00002630+00000+0001T   00002630+0000001259          1400 KS3515               2AZ
121532000121532               121532               170213JS     1400+00000+JS0000002102+0000002102+000000000+000000296+0000002398+0000000000+I40000002398+0000000000+Z
121532001121532079-009702-D   121532008427973059354PAPER SIRIO A2 RED COL 0000001000+00001051+00000+0001T   00001051+0000001301          1400 KS3130               2AZ
121532002121532903-002853     121532000000087108019MENTOS ROLL MINT       0000001000+00001051+00000+0001T   00001051+0000001301          1400 KS3150               2AZ
121533000121533               121533               170213JS     1400+00000+JS0000001227+0000001227+000000000+000000172+0000001390+0000000009+I20000000000+0000001390+Z
121533001121533206-000630     121533006003000631919SPECTACLE CLEANING BRUS0000001000+00001227+00000+0001T   00001227+0000001301          1400 KS3321               2AZ
121534000121534               121534               170213JS     1400+00000+JS0000010211+0000010211+000000000+000001431+0000011642+0000000000+I40000011642+0000000000+Z
121534001121534266-001307     121534006003000610570BOYS MARBLES 16mm 50PC 0000001000+00001578+00000+0001T   00001578+0000001304          1400 KS3710               2AZ
121534002121534266-001309     121534006001023686992BOYS MARBLES 16mm 50PC 0000001000+00001578+00000+0001T   00001578+0000001304          1400 KS3710               2AZ
121534003121534112-116069     121534006009681820277TCS CARRIER BAG JUMBO  0000001000+00000048+00000+0001T   00000048+0000001304          1400 KS3090               2AZ
121534004121534903-000194     121534006009826020616SWT CHOC RP LOLLY 25G  0000005000+00001314+00000+0001T   00001314+0000001304          1400 KS3150               2AZ
121534005121534080-000133-A   121534006003000647019MINI VALENTINES CARD   0000001000+00000437+00000+0001T   00000437+0000001304          1400 KS3112               2AZ
121535000121535               121535               170213JS     1400+00000+JS0000001227+0000001227+000000000+000000172+0000001390+0000000009+I20000000000+0000001390+Z
121535001121535200-000092     121535006003000576739PICNIC PAPER PLATES 23c0000001000+00001227+00000+0001T   00001227+0000001305          1400 KS3214               2AZ
121536000121536               121536               170213JS     1400+00000+JS0000008376+0000008376+000000000+000001175+0000009551+0000000000+I40000009551+0000000000+Z
121536001121536038-001804     121536006001023766618DOILIES 27cm RND PKT-100000001000+00001753+00000+0001T   00001753+0000001312          1400 KS3300               2AZ
121536002121536077-000011-D   121536006001023808554TISSUE-WRAP WHITE 10PCE0000001000+00000876+00000+0001T   00000876+0000001312          1400 KS3112               2AZ
121536003121536563-000317-H   121536006001023776358SERVIETTE DOTS+STRIPES 0000001000+00002630+00000+0001T   00002630+0000001312          1400 KS3214               2AZ
121536004121536200-000095     121536006001023802231PICNIC PLATES 10PC     0000001000+00003069+00000+0001T   00003069+0000001312          1400 KS3214               2AZ
121536005121536112-116069     121536006009681820277TCS CARRIER BAG JUMBO  0000001000+00000048+00000+0001T   00000048+0000001312          1400 KS3090               2AZ
121537000121537               121537               170213JS     1400+00000+JS0000005308+0000005308+000000000+000000745+0000006053+0000000000+I40000006053+0000000000+Z
121537001121537492-055602     121537000078257556021SWIM-GOGGLES PLAY      0000002000+00002630+00000+0001T   00002630+0000001316          1400 KS3787               2AZ
121537002121537112-116069     121537006009681820277TCS CARRIER BAG JUMBO  0000001000+00000048+00000+0001T   00000048+0000001316          1400 KS3090               2AZ
121538000121538               121538               170213JS     1400+00000+JS0000004778+0000004778+000000000+000000670+0000005440+0000000008+I20000000000+0000005440+Z
121538001121538112-116069     121538006009681820277TCS CARRIER BAG JUMBO  0000001000+00000048+00000+0001T   00000048+0000001333          1400 KS3090               2AZ
121538002121538079-013032-D   121538006003000389643RIBBONS                0000001000+00002630+00000+0001T   00002630+0000001333          1400 KS3130               2AZ
121538003121538007-000537     121538000651728791017NOTE-PAD RND SMILE-FACE0000003000+00000700+00000+0001T   00000700+0000001333          1400 KS3130               2AZ
121539000121539               121539               170213JS     1400+00000+JS0000005260+0000005260+000000000+000000738+0000005990+0000000008+I20000000000+0000005990+Z
121539001121539566-000306     121539006003000397754WALL DECAL 2-ASSTD     0000002000+00002630+00000+0001T   00002630+0000001334          1400 KS3130               2AZ
121540000121540               121540               170213JS     1400+00000+JS0000007103+0000007103+000000000+000000996+0000008099+0000000000+I40000008099+0000000000+Z
121540001121540079-000601     121540006003000640379ART+CRAFT SHEETS METAL 0000001000+00002630+00000+0001T   00002630+0000001338          1400 KS3130               2AZ
121540002121540112-116069     121540006009681820277TCS CARRIER BAG JUMBO  0000001000+00000048+00000+0001T   00000048+0000001338          1400 KS3090               2AZ
121540003121540079-009700-D   121540006003000545711PAPER SIRIO A4 RED COL.0000002000+00000306+00000+0001T   00000306+0000001338          1400 KS3130               2AZ
121540004121540079-009700-A   121540006003000547746PAPER SIRIO A4 BLACK   0000001000+00000306+00000+0001T   00000306+0000001338          1400 KS3130               2AZ
121540005121540565-000876     121540006003000305759NOVELTY FUNKY SUNGLASS 0000001000+00003507+00000+0001T   00003507+0000001338          1400 KS3745               2AZ
121541000121541               121541               170213JS     1400+00000+JS0000005744+0000005744+000000000+000000806+0000006550+0000000000+I40000006550+0000000000+Z
121541001121541112-116069     121541006009681820277TCS CARRIER BAG JUMBO  0000001000+00000048+00000+0001T   00000048+0000001342          1400 KS3090               2AZ
121541002121541047-000507     121541006001023684479PLUG-ADAPTOR EURO TWIN 0000001000+00001753+00000+0001T   00001753+0000001342          1400 KS3880               2AZ
121541003121541004-071217     121541006003000443017C/PHONE CHARGER HOLDER 0000001000+00000876+00000+0001T   00000876+0000001342          1400 KS3310               2AZ
121541004121541047-000508     121541006009636901983PLG EURODAPTOR 3x5A-2PN0000001000+00001753+00000+0001T   00001753+0000001342          1400 KS3880               2AZ
121541005121541080-000114     121541006003000246472CARD&ENV LOVE-MUSICAL  0000001000+00001314+00000+0001T   00001753+0008151342          1400 KS3112               2AZ
121542000121542               121542               170213JS     1400+00000+JS0000008770+0000008770+000000000+000001228+0000009990+0000000008+I20000000000+0000009990+Z
121542001121542267-000182     121542006003000390274PUZZLE 24pc ASSTD      0000002000+00004385+00000+0001T   00004385+0000001352          1400 KS3755               2AZ
121543000121543               121543               170213JS     1400+00000+JS0000004948+0000004948+000000000+000000693+0000005640+0000000001+I20000000000+0000005640+Z
121543001121543112-116069     121543006009681820277TCS CARRIER BAG JUMBO  0000001000+00000048+00000+0001T   00000048+0000001353          1400 KS3090               2AZ
121543002121543018-000177     121543006001023797513MUG MINI LOVE ASSTD    0000007000+00000700+00000+0001T   00000700+0000001353          1400 KS3515               2AZ
121544000121544               121544               170213JS     1400+00000+JS0000001314+0000001314+000000000+000000184+0000001490+0000000008+I20000000000+0000001490+Z
121544001121544080-000114     121544006003000246472CARD&ENV LOVE-MUSICAL  0000001000+00001314+00000+0001T   00001753+0008151354          1400 KS3112               2AZ
121545000121545               121545               170213JS     1400+00000+JS0000007325+0000007325+000000000+000001026+0000008350+0000000001+I20000000000+0000008350+Z
121545001121545112-116069     121545006009681820277TCS CARRIER BAG JUMBO  0000001000+00000048+00000+0001T   00000048+0000001413          1400 KS3090               2AZ
121545002121545065-006040     121545006003000118984BELL WDN HANDLE 19cm   0000001000+00003507+00000+0001T   00003507+0000001413          1400 KS3745               2AZ
121545003121545566-000359     121545006003000582709STICKER BOOK LOVE SPARK0000001000+00002192+00000+0001T   00002192+0000001413          1400 KS3130               2AZ
121545004121545077-000303     121545006001023593757GIFT-BAG PAPER MED     0000001000+00001578+00000+0001T   00001578+0000001413          1400 KS3112               2AZ
121546000121546               121546               170213JS     1400+00000+JS0000023813+0000023813+000000000+000003336+0000027149+0000000000+I40000027149+0000000000+Z
121546001121546112-116069     121546006009681820277TCS CARRIER BAG JUMBO  0000001000+00000048+00000+0001T   00000048+0000001416          1400 KS3090               2AZ
121546002121546077-000299     121546006003000395576G/BAG 32x25cm LRG LOVE 0000001000+00001490+00000+0001T   00001490+0000001416          1400 KS3112               2AZ
121546003121546077-000315     121546006003000181186GIFT-BAG 20x28cm MATT  0000001000+00001578+00000+0001T   00001578+0000001416          1400 KS3112               2AZ
121546004121546077-000303     121546006001023593757GIFT-BAG PAPER MED     0000002000+00001578+00000+0001T   00001578+0000001416          1400 KS3112               2AZ
121546005121546368-000265     121546006001023750914PLUSH BEAR 23CM ASSTD C0000001000+00006139+00000+0001T   00006139+0000001416          1400 KS3745               2AZ
121546006121546368-000637     121546006001023874092PLUSH BEAR SLEEPING LOV0000001000+00011402+00000+0001T   00012279+0006471416          1400 KS3745               2AZ
121547000121547               121547               170213JS     1400+00000+JS0000001578+0000001578+000000000+000000221+0000001799+0000000000+I40000001799+0000000000+Z
121547001121547077-000315     121547006003000181186GIFT-BAG 20x28cm MATT  0000001000+00001578+00000+0001T   00001578+0000001417          1400 KS3112               2AZ
121548000121548               121548               170213JS     1400+00000+JS0000006915+0000006915+000000000+000000972+0000007887+0000000000+I40000007887+0000000000+Z
121548001121548079-009702-G   121548008427973060787PAPER SIRIO A2 FUSHIA  0000001000+00001051+00000+0001T   00001051+0000001430          1400 KS3130               2AZ
121548002121548079-009702-D   121548008427973059354PAPER SIRIO A2 RED COL 0000001000+00001051+00000+0001T   00001051+0000001430          1400 KS3130               2AZ
121548003121548079-009700-I   121548006003000546114PAPER SIRIO A4 LILAC   0000005000+00000306+00000+0001T   00000306+0000001430          1400 KS3130               2AZ
121548004121548079-009700-D   121548006003000545711PAPER SIRIO A4 RED COL.0000005000+00000306+00000+0001T   00000306+0000001430          1400 KS3130               2AZ
121548005121548077-000240     121548006003000326259G/RIBBON 4PC PEARLIZED 0000001000+00001753+00000+0001T   00001753+0000001430          1400 KS3112               2AZ
121549000121549               121549               170213JS     1400+00000+JS0000001753+0000001753+000000000+000000246+0000001990+0000000009+I20000000000+0000001990+Z
121549001121549080-000113     121549006003000237449CARD&ENVLPE - LOVE     0000001000+00001753+00000+0001T   00001753+0000001431          1400 KS3112               2AZ
121550000121550               121550               170213JS     1400+00000+JS0000006225+0000006225+000000000+000000872+0000007090+0000000007+I20000000000+0000007090+Z
121550001121550903-000924     121550006942797400615SWT HOT WHEELS SPRAY   0000001000+00001578+00000+0001T   00001578+0000001432          1400 KS3150               2AZ
121550002121550089-000220     121550006003000677368KEY CHAIN+PEN+KNIFE    0000001000+00003069+00000+0001T   00003069+0000001432          1400 KS3205               2AZ
121550003121550077-000315     121550006003000181186GIFT-BAG 20x28cm MATT  0000001000+00001578+00000+0001T   00001578+0000001432          1400 KS3112               2AZ
121551000121551               121551               170213JS     1400+00000+JS0000030742+0000030742+000000000+000004307+0000035040+0000000009+I20000000000+0000035040+Z
121551001121551463-000366     121551006001023789136SWIM W/NOODLE 150cm    0000003000+00002630+00000+0001T   00002630+0000001437          1400 KS3785               2AZ
121551002121551112-116069     121551006009681820277TCS CARRIER BAG JUMBO  0000001000+00000048+00000+0001T   00000048+0000001437          1400 KS3090               2AZ
121551003121551497-058330     121551000078257583300BOAT EXPLORER 200      0000001000+00017542+00000+0001T   00017542+0000001437          1400 KS3787               2AZ
121551004121551494-059258     121551000078257592586INTEX TUBE 76cm        0000001000+00005262+00000+0001T   00005262+0000001437          1400 KS3787               2AZ
121552000121552               121552               170213JS     1400+00000+JS0000012150+0000012150+000000000+000001702+0000013852+0000000000+I40000013852+0000000000+Z
121552001121552018-000127     121552006001023380289MUG OCC STRAIGHT LOVE  0000001000+00001578+00000+0001T   00001753+0006471439          1400 KS3515               2AZ
121552002121552112-116069     121552006009681820277TCS CARRIER BAG JUMBO  0000001000+00000048+00000+0001T   00000048+0000001439          1400 KS3090               2AZ
121552003121552077-000309     121552006001023608604GIFT-BAG 25X32CM GLOSS 0000001000+00001753+00000+0001T   00001753+0000001439          1400 KS3112               2AZ
121552004121552368-000012     121552006003000610464PLUSH BEAR 30cm SITTING0000001000+00008771+00000+0001T   00008771+0000001439          1400 KS3745               2AZ
121553000121553               121553               170213JS     1400+00000+JS0000001578+0000001578+000000000+000000221+0000001790+0000000009+I20000000000+0000001790+Z
121553001121553077-000303     121553006001023593757GIFT-BAG PAPER MED     0000001000+00001578+00000+0001T   00001578+0000001440          1400 KS3112               2AZ
121554000121554               121554               170213JS     1400+00000+JS0000010304+0000010304+000000000+000001445+0000011749+0000000000+I40000011749+0000000000+Z
121554001121554006-000104     121554006001023990112BALLOONS 40PC AIR PUMP 0000002000+00002630+00000+0001T   00002630+0000001442          1400 KS3131               2AZ
121554002121554112-116069     121554006009681820277TCS CARRIER BAG JUMBO  0000001000+00000048+00000+0001T   00000048+0000001442          1400 KS3090               2AZ
121554003121554080-000127     121554006003000424351VALENTINES DAY 36x24CM 0000001000+00002192+00000+0001T   00002192+0000001442          1400 KS3112               2AZ
121554004121554080-000124     121554006003000297733CARD & ENV VALENTINES  0000001000+00001578+00000+0001T   00001578+0000001442          1400 KS3112               2AZ
121554005121554565-000044     121554006003000128280BARREL OF SLIME 100g   0000002000+00000613+00000+0001T   00000613+0000001442          1400 KS3745               2AZ
121555000121555               121555               170213JS     1400+00000+JS0000005260+0000005260+000000000+000000738+0000005990+0000000008+I20000000000+0000005990+Z
121555001121555368-000040     121555006003000671786PLUSH ICONS 7.5cm      0000002000+00002630+00000+0001T   00002630+0000001443          1400 KS3745               2AZ
121556000121556               121556               170213JS     1400+00000+JS0000003331+0000003331+000000000+000000467+0000003790+0000000008+I20000000000+0000003790+Z
121556001121556077-000303     121556006001023593757GIFT-BAG PAPER MED     0000001000+00001578+00000+0001T   00001578+0000001445          1400 KS3112               2AZ
121556002121556080-000105     121556006003000236237CARD & ENVELOPE BDAY   0000001000+00001753+00000+0001T   00001753+0000001445          1400 KS3112               2AZ
121557000121557               121557               170213JS     1400+00000+JS0000033369+0000033369+000000000+000004675+0000038044+0000000000+I40000038044+0000000000+Z
121557001121557560-000106     121557006001023747099FROG FOAM BEADS 10cm   0000001000+00003507+00000+0001T   00003507+0000001454          1400 KS3745               2AZ
121557002121557038-047246     121557006001023873750PLACEMAT 44x28cm KIDS  0000001000+00000876+00000+0001T   00000876+0000001454          1400 KS3300               2AZ
121557003121557560-000250     121557006001023831040ANIMALS STRETCHABLE    0000001000+00004385+00000+0001T   00004385+0000001454          1400 KS3745               2AZ
121557004121557038-047243     121557006003000532353PLACE-MAT WITH COASTERS0000001000+00006139+00000+0001T   00006139+0000001454          1400 KS3300               2AZ
121557005121557200-000012     121557006003000399536BAG 50PCE 165x146mm    0000001000+00003507+00000+0001T   00003507+0000001454          1400 KS3214               2AZ
121557006121557491-059640     121557000078257596409INTEX:ARMBAND 3-6YRS   0000001000+00001753+00000+0001T   00001753+0000001454          1400 KS3787               2AZ
121557007121557560-000229     121557006003000469468ANIMALS BIG EYES ASSTD 0000002000+00006139+00000+0001T   00006139+0000001454          1400 KS3745               2AZ
121557008121557038-047246     121557006001023873750PLACEMAT 44x28cm KIDS  0000001000+00000876+00000+0001T   00000876+0000001454          1400 KS3300               2AZ
121557009121557112-116069     121557006009681820277TCS CARRIER BAG JUMBO  0000001000+00000048+00000+0001T   00000048+0000001454          1400 KS3090               2AZ
121558000121558               121558               170213JS     1400+00000+JS0000002192+0000002192+000000000+000000307+0000002490+0000000009+I20000000000+0000002490+Z
121558001121558566-000359     121558006003000582709STICKER BOOK LOVE SPARK0000001000+00002192+00000+0001T   00002192+0000001454          1400 KS3130               2AZ
121559000121559               121559               170213JS     1400+00000+JS0000000876+0000000876+000000000+000000123+0000000990+0000000009+I20000000000+0000000990+Z
121559001121559033-006001     121559006001023135933SEWING-KIT TRAVELLING  0000001000+00000876+00000+0001T   00000876+0000001455          1400 KS3200               2AZ
121560000121560               121560               170213JS     1400+00000+JS0000008819+0000008819+000000000+000001235+0000010054+0000000000+I40000010054+0000000000+Z
121560001121560105-007515     121560008696287301545STORAGE BOX CLEAR 6L   0000001000+00008771+00000+0001T   00008771+0000001500          1400 KS3210               2AZ
121560002121560112-116069     121560006009681820277TCS CARRIER BAG JUMBO  0000001000+00000048+00000+0001T   00000048+0000001500          1400 KS3090               2AZ
121561000121561               121561               170213JS     1400+00000+JS0000006137+0000006137+000000000+000000860+0000006990+0000000007+I20000000000+0000006990+Z
121561001121561560-000300     121561006001023714879DINOSAURS 12PC         0000001000+00003507+00000+0001T   00003507+0000001502          1400 KS3745               2AZ
121561002121561466-000054     121561006001023831552BALLS HI-BOUNCE 3CM    0000001000+00002630+00000+0001T   00002630+0000001502          1400 KS3785               2AZ
121562000121562               121562               170213JS     1400+00000+JS0000010828+0000010828+000000000+000001519+0000012347+0000000000+I40000012347+0000000000+Z
121562001121562083-000055     121562006003000003853LIGHTER ELCTRNC REFILBL0000002000+00000613+00000+0001T   00000613+0000001505          1400 KS3315               2AZ
121562002121562018-000129     121562006001023403353MUG OCC. LOVE V-SHAPE  0000002000+00002630+00000+0001T   00002630+0000001505          1400 KS3515               2AZ
121562003121562006-000166-F   121562006003000516735BALLOONS LRG 6PC PURPLE0000001000+00001314+00000+0001T   00001314+0000001505          1400 KS3131               2AZ
121562004121562112-116069     121562006009681820277TCS CARRIER BAG JUMBO  0000001000+00000048+00000+0001T   00000048+0000001505          1400 KS3090               2AZ
121562005121562565-004101     121562006003000548033BALL BOUNCING EGG      0000002000+00001490+00000+0001T   00001490+0000001505          1400 KS3745               2AZ
121563000121563               121563               170213JS     1400+00000+JS0000007016+0000007016+000000000+000000983+0000007999+0000000000+I40000007999+0000000000+Z
121563001121563072-020269     121563006009652253585PET POOP-SCOOP-SPADE   0000001000+00007016+00000+0001T   00007016+0000001508          1400 KS3870               2AZ
121564000121564               121564               170213JS     1400+00000+JS0000008505+0000008505+000000000+000001192+0000009690+0000000007+I20000000000+0000009690+Z
121564001121564018-005007     121564006003000515516MUG OCC. LOVE W/HEARTS 0000001000+00006139+00000+0001T   00006139+0000001522          1400 KS3515               2AZ
121564002121564077-000299     121564006003000395576G/BAG 32x25cm LRG LOVE 0000001000+00001490+00000+0001T   00001490+0000001522          1400 KS3112               2AZ
121564003121564089-000099     121564006003000677566KEY CHAIN MTL SPORT AST0000001000+00000876+00000+0001T   00000876+0000001522          1400 KS3205               2AZ
121565000121565               121565               170213JS     1400+00000+JS0000004208+0000004208+000000000+000000590+0000004790+0000000008+I20000000000+0000004790+Z
121565001121565016-006515-A   121565006003000461707S/JAR GLS W/HANDLE 500 0000001000+00001578+00000+0001T   00001753+0008191523          1400 KS3300               2AZ
121565002121565220-005001     121565006003000565917ELOFF TABLE FORKS 4PC  0000001000+00002630+00000+0001T   00002630+0000001523          1400 KS3300               2AZ
121566000121566               121566               170213JS     1400+00000+JS0000010082+0000010082+000000000+000001413+0000011495+0000000000+I40000011495+0000000000+Z
121566001121566077-000509     121566006003000082582GIFT-BAG SML 6PCE ORG P0000003000+00002192+00000+0001T   00002192+0000001524          1400 KS3112               2AZ
121566002121566079-006496     121566006003000160105GLITTER SHAKERS        0000001000+00001753+00000+0001T   00001753+0000001524          1400 KS3130               2AZ
121566003121566077-000351     121566006003000139033GIFT-BAG 18X23CM E/D P 0000001000+00001753+00000+0001T   00001753+0000001524          1400 KS3112               2AZ
121567000121567               121567               170213JS     1400+00000+JS0000003507+0000003507+000000000+000000491+0000003990+0000000008+I20000000000+0000003990+Z
121567001121567089-000006     121567006003000094929KEY CHAIN HAND-BAG MTL 0000001000+00003507+00000+0001T   00003507+0000001525          1400 KS3205               2AZ
121568000121568               121568               170213JS     1400+00000+JS0000002192+0000002192+000000000+000000307+0000002490+0000000009+I20000000000+0000002490+Z
121568001121568024-091103     121568006003453014307BAKING-CUP MUFFIN 50PCE0000001000+00002192+00000+0001T   00002192+0000001530          1400 KS3300               2AZ
121569000121569               121569               170213JS     1400+00000+JS0000015655+0000015655+000000000+000002194+0000017849+0000000000+I40000017849+0000000000+Z
121569001121569006-000165     121569006001023758392BALLOONS LRG BAG-OF-1000000001000+00008771+00000+0001T   00008771+0000001532          1400 KS3131               2AZ
121569002121569077-000240     121569006003000326259G/RIBBON 4PC PEARLIZED 0000001000+00001753+00000+0001T   00001753+0000001532          1400 KS3112               2AZ
121569003121569039-000108     121569006001023524034TEA-LITE CANDLES 8PCE  0000003000+00001490+00000+0001T   00001490+0000001532          1400 KS3510               2AZ
121569004121569083-000055     121569006003000003853LIGHTER ELCTRNC REFILBL0000001000+00000613+00000+0001T   00000613+0000001532          1400 KS3315               2AZ
121569005121569112-116069     121569006009681820277TCS CARRIER BAG JUMBO  0000001000+00000048+00000+0001T   00000048+0000001532          1400 KS3090               2AZ
121570000121570               121570               170213JS     1400+00000+JS0000016002+0000016002+000000000+000002244+0000018246+0000000000+I40000018246+0000000000+Z
121570001121570077-000376-A   121570006003000669059GIFT-BAG 2-PACK JMB    0000001000+00003946+00000+0001T   00003946+0000001536          1400 KS3112               2AZ
121570002121570903-000885     121570008690997017147SWT L/BIRD CHOC BISCUIT0000001000+00000437+00000+0001T   00000437+0000001536          1400 KS3150               2AZ
121570003121570903-000015     121570006003000690947SWT MIKE N IKE B/BLAST 0000001000+00001051+00000+0001T   00001051+0000001536          1400 KS3150               2AZ
121570004121570034-078823     121570006001023856869FACE CLOTHS PACK-5     0000001000+00002630+00000+0001T   00002630+0000001536          1400 KS3215               2AZ
121570005121570034-078821     121570006003000621668BABY HANGERS PL 3PC    0000002000+00003507+00000+0001T   00003507+0000001536          1400 KS3215               2AZ
121570006121570077-000011-C   121570006001023808523TISSUE 10xSHTS RED     0000001000+00000876+00000+0001T   00000876+0000001536          1400 KS3112               2AZ
121570007121570112-116069     121570006009681820277TCS CARRIER BAG JUMBO  0000001000+00000048+00000+0001T   00000048+0000001536          1400 KS3090               2AZ
121570008121570077-000011-C   121570006001023808523TISSUE 10xSHTS RED     0000001000-00000876+00000+0001T   00000876+0000001536          1400 KS31122IC            2 Z
121570009121570077-000011-C   121570006001023808523TISSUE 10xSHTS RED     0000001000+00000876+00000+0001T   00000876+0000001536          1400 KS31122IC            2AZ
121571000121571               121571               170213JS     1400+00000+JS0000003331+0000003331+000000000+000000467+0000003790+0000000008+I20000000000+0000003790+Z
121571001121571077-000303     121571006001023593757GIFT-BAG PAPER MED     0000001000+00001578+00000+0001T   00001578+0000001619          1400 KS3112               2AZ
121571002121571071-005211     121571006003000152346CELLOTAPE MOUNTING TAPE0000001000+00001753+00000+0001T   00001753+0000001619          1400 KS3130               2AZ
121572000121572               121572               170213JS     1400+00000+JS0000010206+0000010206+000000000+000001437+0000011640+0000000003+I20000000000+0000011640+Z
121572001121572112-116069     121572006009681820277TCS CARRIER BAG JUMBO  0000001000+00000048+00000+0001T   00000048+0000001622          1400 KS3090               2AZ
121572002121572567-075490     121572009780799373752BK NOVEL ROMANCE AFR   0000002000+00003507+00000+0001T   00003507+0000001622          1400 KS3757               2AZ
121572003121572903-000183     121572006003000451043SWT LB HEART LOLLY     0000008000+00000393+00000+0001T   00000393+0000001622          1400 KS3150               2AZ
121573000121573               121573               170213JS     1400+00000+JS0000003992+0000003992+000000000+000000560+0000004552+0000000000+I40000004552+0000000000+Z
121573001121573018-000136     121573006001023659026MUG OCC LOVE W/PLUSH   0000001000+00003507+00000+0001T   00003507+0000001624          1400 KS3515               2AZ
121573002121573080-000133     121573006003000535613CARD&ENV MINI ASTD DSGN0000001000+00000437+00000+0001T   00000437+0000001624          1400 KS3112               2AZ
121573003121573112-116069     121573006009681820277TCS CARRIER BAG JUMBO  0000001000+00000048+00000+0001T   00000048+0000001624          1400 KS3090               2AZ
121574000121574               121574               170213JS     1400+00000+JS0000008638+0000008638+000000000+000001211+0000009840+0000000009+I20000000000+0000009840+Z
121574001121574112-116069     121574006009681820277TCS CARRIER BAG JUMBO  0000001000+00000048+00000+0001T   00000048+0000001625          1400 KS3090               2AZ
121574002121574564-000012     121574006001023130075BUBBLE BOTTLE MAGIC    0000001000+00000700+00000+0001T   00000700+0000001625          1400 KS3131               2AZ
121574003121574079-003014     121574006003000633951PAINT ACRYLIC 75ml SILV0000001000+00002630+00000+0001T   00002630+0000001625          1400 KS3130               2AZ
121574004121574079-003002     121574006003000447886A/TUBE 75ML RED        0000001000+00001753+00000+0001T   00001753+0000001625          1400 KS3130               2AZ
121574005121574079-006498     121574006001023836151GLITTER SET 10PCE      0000001000+00003507+00000+0001T   00003507+0000001625          1400 KS3130               2AZ
121575000121575               121575               170213JS     1400+00000+JS0000001450+0000001450+000000000+000000204+0000001650+0000000004+I20000000000+0000001650+Z
121575001121575027-009030     121575006002814400100DUSTPAN PL             0000001000+00001402+00000+0001T   00001402+0000001626          1400 KS3212               2AZ
121575002121575112-116069     121575006009681820277TCS CARRIER BAG JUMBO  0000001000+00000048+00000+0001T   00000048+0000001626          1400 KS3090               2AZ
121576000121576               121576               170213JS     1400+00000+JS0000005962+0000005962+000000000+000000835+0000006790+0000000007+I20000000000+0000006790+Z
121576001121576018-019000     121576006003000557288MUG OCC. LOVE JUMBO    0000001000+00005262+00000+0001T   00005262+0000001628          1400 KS3515               2AZ
121576002121576018-000177     121576006001023797513MUG MINI LOVE ASSTD    0000001000+00000700+00000+0001T   00000700+0000001628          1400 KS3515               2AZ
121577000121577               121577               170213JS     1400+00000+JS0000002502+0000002502+000000000+000000351+0000002850+0000000003+I20000000000+0000002850+Z
121577001121577112-116069     121577006009681820277TCS CARRIER BAG JUMBO  0000001000+00000048+00000+0001T   00000048+0000001630          1400 KS3090               2AZ
121577002121577024-091103     121577006003453014307BAKING-CUP MUFFIN 50PCE0000001000+00002192+00000+0001T   00002192+0000001630          1400 KS3300               2AZ
121577003121577903-000216     121577006925925900966SWT MALLOW TWIST ERKO  0000001000+00000262+00000+0001T   00000262+0000001630          1400 KS3150               2AZ
121578000121578               121578               170213JS     1400+00000+JS0000007673+0000007673+000000000+000001075+0000008740+0000000008+I20000000000+0000008740+Z
121578001121578112-116069     121578006009681820277TCS CARRIER BAG JUMBO  0000001000+00000048+00000+0001T   00000048+0000001631          1400 KS3090               2AZ
121578002121578006-000096     121578006003000610969BANNER CELEBRATION     0000001000+00001490+00000+0001T   00001490+0000001631          1400 KS3131               2AZ
121578003121578006-000166-G   121578006003000607976BALLOONS HELIUM 6PC BLK0000001000+00001314+00000+0001T   00001314+0000001631          1400 KS3131               2AZ
121578004121578566-000317     121578006003000524204STICKER TAPE 2PCS      0000001000+00003507+00000+0001T   00003507+0000001631          1400 KS3130               2AZ
121578005121578006-000167-E   121578006003000517213BALLOONS GOLD METALLIC 0000001000+00001314+00000+0001T   00001314+0000001631          1400 KS3131               2AZ
121579000121579               121579               170213JS     1400+00000+JS0000007062+0000007062+000000000+000000989+0000008050+0000000001+I20000000000+0000008050+Z
121579001121579562-000011     121579006003000600984PLAY DOUGH NEON TUBE   0000002000+00003507+00000+0001T   00003507+0000001632          1400 KS3755               2AZ
121579002121579112-116069     121579006009681820277TCS CARRIER BAG JUMBO  0000001000+00000048+00000+0001T   00000048+0000001632          1400 KS3090               2AZ
121580000121580               121580               170213JS     1400+00000+JS0000026355+0000026355+000000000+000003693+0000030048+0000000000+I40000030048+0000000000+Z
121580001121580112-116069     121580006009681820277TCS CARRIER BAG JUMBO  0000001000+00000048+00000+0001T   00000048+0000001634          1400 KS3090               2AZ
121580002121580009-001506     121580006001023696090MELAMINE TRAY 39x29cm  0000001000+00004385+00000+0001T   00004385+0000001634          1400 KS3210               2AZ
121580003121580567-011301     121580009781928231165BOOK READER AFR DISNEY 0000002000+00004385+00000+0001T   00004385+0000001634          1400 KS3757               2AZ
121580004121580365-008629     121580006001023494009PLAY C/PHONE B/O MUSIC 0000001000+00002630+00000+0001T   00002630+0000001634          1400 KS3725               2AZ
121580005121580361-009105     121580006001023832016DOLLS FEEDING SET 3PC  0000001000+00002630+00000+0001T   00002630+0000001634          1400 KS3725               2AZ
121580006121580365-003055     121580006001023832313KITCHEN-SET PL COOKING 0000001000+00006139+00000+0001T   00006139+0000001634          1400 KS3725               2AZ
121580007121580036-000615     121580006003000218769WASH-PEGS PL PCK-24    0000001000+00001753+00000+0001T   00001753+0000001634          1400 KS3212               2AZ
121581000121581               121581               170213JS     1400+00000+JS0000005921+0000005921+000000000+000000830+0000006751+0000000000+I40000006751+0000000000+Z
121581001121581112-116069     121581006009681820277TCS CARRIER BAG JUMBO  0000001000+00000048+00000+0001T   00000048+0000001636          1400 KS3090               2AZ
121581002121581077-000303     121581006001023593757GIFT-BAG PAPER MED     0000001000+00001578+00000+0001T   00001578+0000001636          1400 KS3112               2AZ
121581003121581077-000011-D   121581006001023808554TISSUE-WRAP WHITE 10PCE0000001000+00000876+00000+0001T   00000876+0000001636          1400 KS3112               2AZ
121581004121581903-000518     121581006001704012782SWT STRAWS S/BERRY 100g0000001000+00001227+00000+0001T   00001227+0000001636          1400 KS3150               2AZ
121581005121581565-000887     121581006003000412334NOVELTY SILICONE TOY   0000001000+00002192+00000+0001T   00002192+0000001636          1400 KS3745               2AZ
121582000121582               121582               170213JS     1400+00000+JS0000004383+0000004383+000000000+000000615+0000004990+0000000008+I20000000000+0000004990+Z
121582001121582200-003021     121582006003000276370REFUSE BAGS 30xSCENTED 0000001000+00002630+00000+0001T   00002630+0000001636          1400 KS3214               2AZ
121582002121582200-003026     121582006003000276448REFUSE BAGS 10PCE GREEN0000001000+00001753+00000+0001T   00001753+0000001636          1400 KS3214               2AZ
121583000121583               121583               170213JS     1400+00000+JS0000006137+0000006137+000000000+000000860+0000006997+0000000000+I40000006997+0000000000+Z
121583001121583567-011503     121583000814625015253BK COLOURING 96P GUARDI0000001000+00003507+00000+0001T   00003507+0000001639          1400 KS3757               2AZ
121583002121583567-075699     121583006003000428168BK NOVEL CATEGORY A    0000001000+00002630+00000+0001T   00003069+0008191639          1400 KS3757               2AZ
121584000121584               121584               170213JS     1400+00000+JS0000006139+0000006139+000000000+000000860+0000006999+0000000000+I40000006999+0000000000+Z
121584001121584497-068614     121584000078257686148H/PUMP HIGH-O/PUT 36cm 0000001000+00006139+00000+0001T   00006139+0000001640          1400 KS3787               2AZ
121585000121585               121585               170213JS     1400+00000+JS0000012099+0000012099+000000000+000001696+0000013795+0000000000+I40000013795+0000000000+Z
121585001121585903-000861     121585005010478430822SWT LOVE HEARTS SML    0000002000+00000876+00000+0001T   00000876+0000001642          1400 KS3150               2AZ
121585002121585028-000799     121585006001023812186SKEWERS BAMBOO 100PCE  0000001000+00001578+00000+0001T   00001578+0000001642          1400 KS3305               2AZ
121585003121585036-000063     121585006009654960436COATHANGERS VIRGIN 5PCE0000001000+00001753+00000+0001T   00001753+0000001642          1400 KS3212               2AZ
121585004121585305-074101     121585006003000239665W/CHIMES BRZE/SILV TUBE0000001000+00007016+00000+0001T   00007016+0000001642          1400 KS3505               2AZ
121586000121586               121586               170213JS     1400+00000+JS0000012150+0000012150+000000000+000001702+0000013852+0000000000+I40000013852+0000000000+Z
121586001121586112-116069     121586006009681820277TCS CARRIER BAG JUMBO  0000001000+00000048+00000+0001T   00000048+0000001645          1400 KS3090               2AZ
121586002121586206-000270     121586006003000632305ICE TRAY SILICONE      0000001000+00006139+00000+0001T   00006139+0000001645          1400 KS3321               2AZ
121586003121586077-000315     121586006003000181186GIFT-BAG 20x28cm MATT  0000001000+00001578+00000+0001T   00001578+0000001645          1400 KS3112               2AZ
121586004121586206-000180     121586006003000631223TEA INFUSER TEAMAN     0000001000+00004385+00000+0001T   00004385+0000001645          1400 KS3321               2AZ
121587000121587               121587               170213JS     1400+00000+JS0000007714+0000007714+000000000+000001082+0000008796+0000000000+I40000008796+0000000000+Z
121587001121587903-000518     121587006001704012782SWT STRAWS S/BERRY 100g0000002000+00001227+00000+0001T   00001227+0000001650          1400 KS3150               2AZ
121587002121587565-000040     121587006008766115635NOVELTY ICON BEANIE    0000002000+00002630+00000+0001T   00002630+0000001650          1400 KS3745               2AZ
121588000121588               121588               170213JS     1400+00000+JS0000005262+0000005262+000000000+000000737+0000005999+0000000000+I40000005999+0000000000+Z
121588001121588362-000103     121588006003000412303MAKE-UP CELLPHONE P/SET0000001000+00005262+00000+0001T   00005262+0000001654          1400 KS3160               2AZ
121589000121589               121589               170213JS     1400+00000+JS0000022833+0000022833+000000000+000003200+0000026033+0000000000+I40000026033+0000000000+Z
121589001121589112-116038     121589006009681820246TCS CARRIER BAG MIDI   0000001000+00000035+00000+0001T   00000035+0000001659          1400 KS3090               2AZ
121589002121589036-000500     121589006003000663903BASKET WIRE 39x27x13cm 0000001000+00005262+00000+0001T   00005262+0000001659          1400 KS3212               2AZ
121589003121589051-006100     121589006003000267170GARDEN KID TOOLSET 3PCE0000001000+00002630+00000+0001T   00002630+0000001659          1400 KS3820               2AZ
121589004121589034-078836     121589006003000622122COOEY FEEDING BOWLS 3PC0000002000+00003069+00000+0001T   00003069+0000001659          1400 KS3215               2AZ
121589005121589051-006100     121589006003000267170GARDEN KID TOOLSET 3PCE0000001000+00002630+00000+0001T   00002630+0000001659          1400 KS3820               2AZ
121589006121589034-078836     121589006003000622122COOEY FEEDING BOWLS 3PC0000001000+00003069+00000+0001T   00003069+0000001659          1400 KS3215               2AZ
121589007121589072-020315     121589006003000623891PET TOY PUPPY RING 3in10000001000+00003069+00000+0001T   00003069+0000001659          1400 KS3870               2AZ
121590000121590               121590               170213JS     1400+00000+JS0000022361+0000022361+000000000+000003133+0000025494+0000000000+I40000025494+0000000000+Z
121590001121590565-004101     121590006003000548033BALL BOUNCING EGG      0000002000+00001490+00000+0001T   00001490+0000001700          1400 KS3745               2AZ
121590002121590077-000303     121590006001023593757GIFT-BAG PAPER MED     0000001000+00001578+00000+0001T   00001578+0000001700          1400 KS3112               2AZ
121590003121590079-000201     121590006003000161430P/CRAYONS THERAPY 10PCE0000001000+00002630+00000+0001T   00002630+0000001700          1400 KS3130               2AZ
121590004121590903-000087     121590006001704000161SWT SPECKLED-EGGS 50G  0000001000+00001139+00000+0001T   00001139+0000001700          1400 KS3150               2AZ
121590005121590072-020290     121590006003000624010PET CAT TOY ACTIVITY   0000001000+00014034+00000+0001T   00014034+0000001700          1400 KS3870               2AZ
121591000121591               121591               170213JS     1400+00000+JS0000015784+0000015784+000000000+000002212+0000017996+0000000000+I40000017996+0000000000+Z
121591001121591018-005007     121591006003000515516MUG OCC. LOVE W/HEARTS 0000002000+00006139+00000+0001T   00006139+0000001716          1400 KS3515               2AZ
121591002121591077-000309     121591006001023608604GIFT-BAG 25X32CM GLOSS 0000002000+00001753+00000+0001T   00001753+0000001716          1400 KS3112               2AZ
121592000121592               121592               170213JS     1400+00000+JS0000006139+0000006139+000000000+000000860+0000006999+0000000000+I40000006999+0000000000+Z
121592001121592368-000175     121592006003000270316PLUSH BEAR 4 ASSTD 18CM0000001000+00006139+00000+0001T   00006139+0000001717          1400 KS3745               2AZ
121593000121593               121593               170213JS     1400+00000+JS0000004420+0000004420+000000000+000000619+0000005030+0000000009+I20000000000+0000005030+Z
121593001121593001-000175     121593006001023788108B/MUG GLS LOVE 380ML   0000001000+00004385+00000+0001T   00004385+0000001734          1400 KS3515               2AZ
121593002121593112-116038     121593006009681820246TCS CARRIER BAG MIDI   0000001000+00000035+00000+0001T   00000035+0000001734          1400 KS3090               2AZ
121594000121594               121594               170213JS     1400+00000+JS0000003592+0000003592+000000000+000000503+0000004090+0000000005+I20000000000+0000004090+Z
121594001121594018-000170     121594006001023775528MUG OCC. LOVE 2PC MINI 0000001000+00002192+00000+0001T   00002192+0000001735          1400 KS3515               2AZ
121594002121594018-000177     121594006001023797513MUG MINI LOVE ASSTD    0000002000+00000700+00000+0001T   00000700+0000001735          1400 KS3515               2AZ
121595000121595               121595               170213JS     1400+00000+JS0000005244+0000005244+000000000+000000744+0000005988+0000000000+I40000005988+0000000000+Z
121595001121595080-000133     121595006003000535613CARD&ENV MINI ASTD DSGN0000012000+00000437+00000+0001T   00000437+0000001739          1400 KS3112               2AZ
121596000121596               121596               170213JS     1400+00000+JS0000001314+0000001314+000000000+000000184+0000001498+0000000000+I40000001498+0000000000+Z
121596001121596006-000166-D   121596006003000516490BALLOONS LRG 6PC RED   0000001000+00001314+00000+0001T   00001314+0000001742          1400 KS3131               2AZ
121597000121597               121597               170213JS     1400+00000+JS0000002630+0000002630+000000000+000000369+0000002990+0000000009+I20000000000+0000002990+Z
121597001121597077-000270     121597006003000395453GIFT-BAG PPR JMB 33X45 0000001000+00002630+00000+0001T   00002630+0000001743          1400 KS3112               2AZ
121598000121598               121598               170213JS     1400+00000+JS0000020112+0000020112+000000000+000002819+0000022930+0000000001+I20000000000+0000022930+Z
121598001121598112-116038     121598006009681820246TCS CARRIER BAG MIDI   0000001000+00000035+00000+0001T   00000035+0000001746          1400 KS3090               2AZ
121598002121598567-014132     121598006003000560028BOOK COLOURING 24 PAGE 0000001000+00000876+00000+0001T   00000876+0000001746          1400 KS3757               2AZ
121598003121598562-000199     121598006001023732910PUSH-IN BOARD WDN ASSTD0000001000+00005262+00000+0001T   00005262+0000001746          1400 KS3755               2AZ
121598004121598007-000145     121598006009635833087BK EXERCISE 72PG A4    0000001000+00000525+00000+0001T   00000525+0000001746          1400 KS3130               2AZ
121598005121598562-000002     121598006001023491015COUNTING-FRAME 30x20cm 0000001000+00007016+00000+0001T   00007016+0000001746          1400 KS3755               2AZ
121598006121598079-013032-F   121598006003000496266FOAM NUMBERS           0000001000+00002192+00000+0001T   00002192+0000001746          1400 KS3130               2AZ
121598007121598071-003853     121598006001023715579PENCIL BASIC HB 12PCE  0000001000+00001753+00000+0001T   00001753+0000001746          1400 KS3130               2AZ
121598008121598079-013032     121598006003000389209SET LETTERS 2 ASSTD    0000001000+00001753+00000+0001T   00001753+0000001746          1400 KS3130               2AZ
121598009121598564-000012     121598006001023130075BUBBLE BOTTLE MAGIC    0000001000+00000700+00000+0001T   00000700+0000001746          1400 KS3131               2AZ
121599000121599               121599               170213JS     1400+00000+JS0000001313+0000001313+000000000+000000185+0000001490+0000000008+I20000000000+0000001490+Z
121599001121599077-000314     121599006003000181148GIFT-BAG 11X14CM MATT  0000001000+00000876+00000+0001T   00000876+0000001747          1400 KS3112               2AZ
121599002121599083-000049     121599004891035200024CIG-LIGHTER DISPOSABLE 0000001000+00000437+00000+0001T   00000437+0000001747          1400 KS3315               2AZ
121600000121600               121600               170213JS     1400+00000+JS0000002630+0000002630+000000000+000000369+0000002990+0000000009+I20000000000+0000002990+Z
121600001121600002-000884     121600006001023769589CAN-OPENER BUTTERFLY   0000001000+00002630+00000+0001T   00002630+0000001747          1400 KS3300               2AZ
121601000121601               121601               170213JS     1400+00000+JS0000014720-0000000000+000000000+000000000+0000014720-0000000000+I20000000000+0000014720-Z
121601001121601001-999901     121601000000000999901CASUAL WAGES           0000001000-00014720+00000+0001X  9312160753083 0800RMASIL0000000000 KS39013IC ELA        2 Z
121602000121602               121602               170213JS     1400+00000+JS0000011402+0000011402+000000000+000001597+0000012990+0000000009+I20000000000+0000012990+Z
121602001121602035-000030     121602006002596030229UMBRELLA GOLF 16-RIB   0000001000+00011402+00000+0001T   00011402+0000001750          1400 KS3205               2AZ
A17021300                                          12374048JSSLAVE 2                       KS33IC
A17021301                                          16224015JSSLAVE 2                       KS33IC
M17021301                              IT          JSATT:IT                                          LAST SLIP ON SLAVE 2                            121602                                          THANKS
M17021391                              CASH        JSSLAVE 2                       Z-REPORT No.   598TOTAL (Sales - Refunds)           9121.69       CASH TO BE BANKED                 2844.10       DEBIT CARDS                          0.00       CREDIT CARDS                      6130.39       Z-READING                         8974.49       AIRTIME DEBIT CARD SALES             0.00       AIRTIME CARD SALES                   0.00       OVERS/UNDERS                         0.00       AIRTIME CASH SALES                   0.00       GIFT CARDS                           0.00       GIFT CARD CASH SALES                 0.00       CASUAL WAGES                       147.20       T O T A L  CASH PAYOUTS            147.20                                                                                                                                                                                                                                                                                                      Z
M17021392                              CASH        JSABSENT                                                                                                                                                                                          ANNUAL LEAVE                                                                                                                                                                                    DAY OFF                                                                                                                                                                                         COMMENTS                                                                                                                                                                                                                                                                                                                                                                                       Z
Y17021300                                          JS00000000801221+000100
ZJS17021319553 SLAVE 2      SALES DATA                     NEXT INVOICE NO.  121603 0598
X JS Slave 2 First invoice 121502 170213 Last invoice 121602 170213 Next invoice 121603 Total number of records 000000403 clbackup completed 19:55:41
