132322000132322               132322               170213JS     1400+00000+JS0000012623+0000012623+000000000+000001771+0000014394+0000000000+I40000014394+0000000000+Z
132322001132322071-081091     132322006001151010287STAED/GENKEM ALL-STICK 0000001000+00001227+00000+0001T   00001227+0000001003          1400 LK6130               3AZ
132322002132322566-000038     132322006003000100514TATTOO METALLIC 6 ASST 0000002000+00001753+00000+0001T   00001753+0000001003          1400 LK6130               3AZ
132322003132322007-000718     132322006003000226672NOTE MAGNETIC WKLY PLNR0000001000+00002630+00000+0001T   00002630+0000001003          1400 LK6130               3AZ
132322004132322006-000803     132322006003000653676STREAMERS SET 3ROLLS   0000001000+00002630+00000+0001T   00002630+0000001003          1400 LK6131               3AZ
132322005132322566-000306     132322006003000397754WALL DECAL 2-ASSTD     0000001000+00002630+00000+0001T   00002630+0000001003          1400 LK6130               3AZ
132323000132323               132323               170213JS     1400+00000+JS0000001753+0000001753+000000000+000000246+0000001999+0000000000+I40000001999+0000000000+Z
132323001132323106-001105     132323006001023711564WATER-BOTTLE 500ml     0000001000+00001753+00000+0001T   00001753+0000001006          1400 LK6210               3AZ
132324000132324               132324               170213JS     1400+00000+JS0000005308+0000005308+000000000+000000745+0000006050+0000000003+I20000000000+0000006050+Z
132324001132324019-071600     132324006001023771971RIVER-STONES 1kg MIXED 0000001000+00002630+00000+0001T   00002630+0000001007          1400 LK6510               3AZ
132324002132324019-071603     132324006001023772039RIVER-STONES 1kg PEACH 0000001000+00002630+00000+0001T   00002630+0000001007          1400 LK6510               3AZ
132324003132324112-116069     132324006009681820277TCS CARRIER BAG JUMBO  0000001000+00000048+00000+0001T   00000048+0000001007          1400 LK6090               3AZ
132325000132325               132325               170213JS     1400+00000+JS0000002630+0000002630+000000000+000000369+0000002990+0000000009+I20000000000+0000002990+Z
132325001132325079-013101     132325006001023863706CRAFT SET DIY PIPE-CLNR0000001000+00002630+00000+0001T   00002630+0000001016          1400 LK6130               3AZ
132326000132326               132326               170213JS     1400+00000+JS0000002630+0000002630+000000000+000000369+0000002990+0000000009+I20000000000+0000002990+Z
132326001132326071-001124     132326006001023802873MARKERS WHITEBOARD 3PCE0000001000+00002630+00000+0001T   00002630+0000001016          1400 LK6130               3AZ
132327000132327               132327               170213JS     1400+00000+JS0000006481+0000006481+000000000+000000908+0000007389+0000000000+I40000007389+0000000000+Z
132327001132327304-001011     132327006001023806727FLWR ROSE RED W/BEAR   0000003000+00000613+00000+0001T   00000788+0006471027          1400 LK6510               3AZ
132327002132327903-000194     132327006009826020616SWT CHOC RP LOLLY 25G  0000003000+00001314+00000+0001T   00001314+0000001027          1400 LK6150               3AZ
132327003132327018-000177     132327006001023797513MUG MINI LOVE ASSTD    0000001000+00000700+00000+0001T   00000700+0000001027          1400 LK6515               3AZ
132328000132328               132328               170213JS     1400+00000+JS0000001227+0000001227+000000000+000000172+0000001399+0000000000+I40000001399+0000000000+Z
132328001132328007-000160     132328006009685857286NOTE-BOOK A5 SHORTHAND 0000001000+00001227+00000+0001T   00001227+0000001029          1400 LK6130               3AZ
132329000132329               132329               170213JS     1400+00000+JS0000010383+0000010383+000000000+000001457+0000011840+0000000000+I40000011840+0000000000+Z
132329001132329082-098774     132329006001492987743SUNGLASS KIDS GIRLS    0000001000+00003507+00000+0001T   00003507+0000001032          1400 LK6160               3AZ
132329002132329112-116069     132329006009681820277TCS CARRIER BAG JUMBO  0000001000+00000048+00000+0001T   00000048+0000001032          1400 LK6090               3AZ
132329003132329903-000070     132329006001704001106SWT TOFFEE CREAMY 35g  0000004000+00000700+00000+0001T   00000700+0000001032          1400 LK6150               3AZ
132329004132329903-000896     132329006009680772270SWT BITZ BL/CURRANT 50G0000001000+00000788+00000+0001T   00000788+0000001032          1400 LK6150               3AZ
132329005132329903-000809     132329006009680772232SWT CANDY FROOTEEZ 50g 0000001000+00000876+00000+0001T   00000876+0000001032          1400 LK6150               3AZ
132329006132329903-000896     132329006009680772270SWT BITZ BL/CURRANT 50G0000003000+00000788+00000+0001T   00000788+0000001032          1400 LK6150               3AZ
132330000132330               132330               170213JS     1400+00000+JS0000007889+0000007889+000000000+000001107+0000008990+0000000006+I20000000000+0000008990+Z
132330001132330206-000600     132330006003000631551TOILET PAPER SUDUKO    0000001000+00002630+00000+0001T   00002630+0000001317          1400 LK6321               3AZ
132330002132330077-000011-X   132330006001023809827TISSUE-WRAP SILVER 10PC0000001000+00001753+00000+0001T   00001753+0000001317          1400 LK6112               3AZ
132330003132330077-000011-C   132330006001023808523TISSUE 10xSHTS RED     0000001000+00000876+00000+0001T   00000876+0000001317          1400 LK6112               3AZ
132330004132330077-000251     132330006003000639106GIFT-DECOR RIBBON      0000001000+00002630+00000+0001T   00002630+0000001317          1400 LK6112               3AZ
132331000132331               132331               170213JS     1400+00000+JS0000007014+0000007014+000000000+000000983+0000007990+0000000007+I20000000000+0000007990+Z
132331001132331077-000314     132331006003000181148GIFT-BAG 11X14CM MATT  0000002000+00000876+00000+0001T   00000876+0000001320          1400 LK6112               3AZ
132331002132331368-000171     132331006003000233250PLUSH BEAR 14cm        0000001000+00005262+00000+0001T   00005262+0000001320          1400 LK6745               3AZ
132332000132332               132332               170213JS     1400+00000+JS0000003815+0000003815+000000000+000000535+0000004350+0000000000+I20000000000+0000004350+Z
132332001132332080-000114     132332006003000246472CARD&ENV LOVE-MUSICAL  0000001000+00001314+00000+0001T   00001753+0008151322          1400 LK6112               3AZ
132332002132332006-000119     132332006001023730756BALLOONS 12PC MIX COLS 0000001000+00001753+00000+0001T   00001753+0000001322          1400 LK6131               3AZ
132332003132332564-000012     132332006001023130075BUBBLE BOTTLE MAGIC    0000001000+00000700+00000+0001T   00000700+0000001322          1400 LK6131               3AZ
132332004132332112-116069     132332006009681820277TCS CARRIER BAG JUMBO  0000001000+00000048+00000+0001T   00000048+0000001322          1400 LK6090               3AZ
132333000132333               132333               170213JS     1400+00000+JS0000001753+0000001753+000000000+000000246+0000001990+0000000009+I20000000000+0000001990+Z
132333001132333077-000299-A   132333006003000670888GIFT-BAG PAPER JMB LOVE0000001000+00001753+00000+0001T   00001753+0000001324          1400 LK6112               3AZ
132334000132334               132334               170213JS     1400+00000+JS0000000048+0000000048+000000000+000000007+0000000050+0000000005+I20000000000+0000000050+Z
132334001132334112-116069     132334006009681820277TCS CARRIER BAG JUMBO  0000001000+00000048+00000+0001T   00000048+0000001324          1400 LK6090               3AZ
132335000132335               132335               170213JS     1400+00000+JS0000008331+0000008331+000000000+000001167+0000009498+0000000000+I40000009498+0000000000+Z
132335001132335082-000386     132335006001023718211SPEC-CASE ZIP-OPENING  0000001000+00003946+00000+0001T   00003946+0000001326          1400 LK6160               3AZ
132335002132335082-000100     132335006003000360246READING GLS STRENGHT:1 0000001000+00004385+00000+0001T   00004385+0000001326          1400 LK6160               3AZ
132336000132336               132336               170213JS     1400+00000+JS0000003992+0000003992+000000000+000000560+0000004550+0000000002+I20000000000+0000004550+Z
132336001132336077-000011-C   132336006001023808523TISSUE 10xSHTS RED     0000001000+00000876+00000+0001T   00000876+0000001327          1400 LK6112               3AZ
132336002132336077-000299     132336006003000395576G/BAG 32x25cm LRG LOVE 0000001000+00001490+00000+0001T   00001490+0000001327          1400 LK6112               3AZ
132336003132336077-000303     132336006001023593757GIFT-BAG PAPER MED     0000001000+00001578+00000+0001T   00001578+0000001327          1400 LK6112               3AZ
132336004132336112-116069     132336006009681820277TCS CARRIER BAG JUMBO  0000001000+00000048+00000+0001T   00000048+0000001327          1400 LK6090               3AZ
132337000132337               132337               170213JS     1400+00000+JS0000005699+0000005699+000000000+000000798+0000006490+0000000007+I20000000000+0000006490+Z
132337001132337006-000190     132337006003000685530BALLOONS LOVE 81x91cm  0000001000+00004385+00000+0001T   00004385+0000001340          1400 LK6131               3AZ
132337002132337006-000166-D   132337006003000516490BALLOONS LRG 6PC RED   0000001000+00001314+00000+0001T   00001314+0000001340          1400 LK6131               3AZ
132338000132338               132338               170213JS     1400+00000+JS0000000700+0000000700+000000000+000000098+0000000790+0000000008+I20000000000+0000000790+Z
132338001132338018-000177     132338006001023797513MUG MINI LOVE ASSTD    0000001000+00000700+00000+0001T   00000700+0000001344          1400 LK6515               3AZ
132339000132339               132339               170213JS     1400+00000+JS0000002628+0000002628+000000000+000000369+0000002990+0000000007+I20000000000+0000002990+Z
132339001132339033-010720     132339006001023678645SAFETY-PINS 50PCE SMALL0000003000+00000876+00000+0001T   00000876+0000001357          1400 LK6200               3AZ
132340000132340               132340               170213JS     1400+00000+JS0000031562+0000031562+000000000+000004425+0000035987+0000000000+I40000035987+0000000000+Z
132340001132340105-008005     132340006002580009484STORAGE CONTAINER 7.5L 0000002000+00004385+00000+0001T   00004385+0000001400          1400 LK6210               3AZ
132340002132340903-000211     132340006002099001238SWT GS MALLOW ICE CREAM0000001000+00001753+00000+0001T   00001753+0000001400          1400 LK6150               3AZ
132340003132340056-005752     132340006003000491674CAR AIR-FRESH FISH ASST0000001000+00001753+00000+0001T   00001753+0000001400          1400 LK6860               3AZ
132340004132340151-000620     132340006001023653345WIRE-BRUSH-SET SML 3PCE0000001000+00001753+00000+0001T   00001753+0000001400          1400 LK6810               3AZ
132340005132340078-000026     132340006936198407090SUPERGLUE 3,0g GEL     0000001000+00001753+00000+0001T   00001753+0000001400          1400 LK6810               3AZ
132340006132340056-005752     132340006003000491674CAR AIR-FRESH FISH ASST0000001000+00001753+00000+0001T   00001753+0000001400          1400 LK6860               3AZ
132340007132340009-001710     132340006001023807793MELAMINE TRAY 36x25cm  0000004000+00002630+00000+0001T   00002630+0000001400          1400 LK6210               3AZ
132340008132340108-005007     132340006002580009392TRAY PL 40cm ROUND     0000001000+00003507+00000+0001T   00003507+0000001400          1400 LK6210               3AZ
132341000132341               132341               170213JS     1400+00000+JS0000031608+0000031608+000000000+000004435+0000036043+0000000000+I40000036043+0000000000+Z
132341001132341112-116069     132341006009681820277TCS CARRIER BAG JUMBO  0000001000+00000048+00000+0001T   00000048+0000001404          1400 LK6090               3AZ
132341002132341006-006018     132341006001023735256PARTY-SPRAY HAIR ASSORT0000012000+00002630+00000+0001T   00002630+0000001404          1400 LK6131               3AZ
132342000132342               132342               170213JS     1400+00000+JS0000003156+0000003156+000000000+000000442+0000003590+0000000008+I20000000000+0000003590+Z
132342001132342018-000127     132342006001023380289MUG OCC STRAIGHT LOVE  0000002000+00001578+00000+0001T   00001753+0006471405          1400 LK6515               3AZ
132343000132343               132343               170213JS     1400+00000+JS0000003507+0000003507+000000000+000000491+0000003998+0000000000+I40000003998+0000000000+Z
132343001132343007-000291     132343006003000590131REMINDER NOTES REFILL  0000001000+00003507+00000+0001T   00003507+0000001406          1400 LK6130               3AZ
132344000132344               132344               170213JS     1400+00000+JS0000009646+0000009646+000000000+000001351+0000010990+0000000007+I20000000000+0000010990+Z
132344001132344105-007510     132344006003000487424STORAGE BOX CLEAR 3.75L0000001000+00006139+00000+0001T   00006139+0000001408          1400 LK6210               3AZ
132344002132344028-085275     132344006003000092611BBQ LIGHTER FLEXIBLE   0000001000+00003507+00000+0001T   00003507+0000001408          1400 LK6305               3AZ
132345000132345               132345               170213JS     1400+00000+JS0000014953+0000014953+000000000+000002095+0000017040+0000000008+I20000000000+0000017040+Z
132345001132345903-000482     132345006001704001397SWT SOFT-MINTS 60G     0000001000+00000876+00000+0001T   00000876+0000001449          1400 LK6150               3AZ
132345002132345077-000299     132345006003000395576G/BAG 32x25cm LRG LOVE 0000001000+00001490+00000+0001T   00001490+0000001449          1400 LK6112               3AZ
132345003132345301-085004     132345006003000420469ORN LOVE PLAQUE 21X10CM0000001000+00003507+00000+0001T   00003946+0006471449          1400 LK6505               3AZ
132345004132345301-085003     132345006003000420827ORN OCCASION LOVE KEY  0000001000+00005262+00000+0001T   00005262+0000001449          1400 LK6505               3AZ
132345005132345566-000359     132345006003000582709STICKER BOOK LOVE SPARK0000001000+00002192+00000+0001T   00002192+0000001449          1400 LK6130               3AZ
132345006132345080-000124     132345006003000297733CARD & ENV VALENTINES  0000001000+00001578+00000+0001T   00001578+0000001449          1400 LK6112               3AZ
132345007132345112-116069     132345006009681820277TCS CARRIER BAG JUMBO  0000001000+00000048+00000+0001T   00000048+0000001449          1400 LK6090               3AZ
132346000132346               132346               170213JS     1400+00000+JS0000001801+0000001801+000000000+000000253+0000002050+0000000004+I20000000000+0000002050+Z
132346001132346366-002694     132346006003000088997DRESS UP HAT COWBOY PL 0000001000+00001753+00000+0001T   00001753+0000001450          1400 LK6131               3AZ
132346002132346112-116069     132346006009681820277TCS CARRIER BAG JUMBO  0000001000+00000048+00000+0001T   00000048+0000001450          1400 LK6090               3AZ
132347000132347               132347               170213JS     1400+00000+JS0000002278+0000002278+000000000+000000320+0000002590+0000000008+I20000000000+0000002590+Z
132347001132347077-000010-C   132347006001023123879CREPE-PAPER RED        0000001000+00000788+00000+0001T   00000788+0000001451          1400 LK6112               3AZ
132347002132347077-000299     132347006003000395576G/BAG 32x25cm LRG LOVE 0000001000+00001490+00000+0001T   00001490+0000001451          1400 LK6112               3AZ
132348000132348               132348               170213JS     1400+00000+JS0000010518+0000010518+000000000+000001476+0000011990+0000000004+I20000000000+0000011990+Z
132348001132348071-003879     132348006936198404198PENCIL HB BLU/WHITE 12s0000006000+00001753+00000+0001T   00002630+0008151505          1400 LK6130               3AZ
132349000132349               132349               170213JS     1400+00000+JS0000001490+0000001490+000000000+000000209+0000001690+0000000009+I20000000000+0000001690+Z
132349001132349077-000299     132349006003000395576G/BAG 32x25cm LRG LOVE 0000001000+00001490+00000+0001T   00001490+0000001506          1400 LK6112               3AZ
132350000132350               132350               170213JS     1400+00000+JS0000003153+0000003153+000000000+000000442+0000003595+0000000000+I40000003595+0000000000+Z
132350001132350007-000537     132350000651728791017NOTE-PAD RND SMILE-FACE0000001000+00000700+00000+0001T   00000700+0000001509          1400 LK6130               3AZ
132350002132350089-000033     132350006003000621217KEY CHAIN MOM POLY ASST0000001000+00001753+00000+0001T   00002630+0008121509          1400 LK6205               3AZ
132350003132350018-000177     132350006001023797513MUG MINI LOVE ASSTD    0000001000+00000700+00000+0001T   00000700+0000001509          1400 LK6515               3AZ
132351000132351               132351               170213JS     1400+00000+JS0000002630+0000002630+000000000+000000369+0000002990+0000000009+I20000000000+0000002990+Z
132351001132351083-000058     132351006003000400331LIGHTER JET CIGAR REFIL0000001000+00002630+00000+0001T   00002630+0000001509          1400 LK6315               3AZ
132352000132352               132352               170213JS     1400+00000+JS0000073961+0000073961+000000000+000010360+0000084321+0000000000+I40000084321+0000000000+Z
132352001132352089-000030     132352006003000575671K/CHAIN LOVE MTL ASSTD 0000002000+00001753+00000+0001T   00001753+0000001516          1400 LK6205               3AZ
132352002132352007-000104     132352006009685854865BK COVER BRWN KRFT ROLL0000007000+00000350+00000+0001T   00000350+0000001516          1400 LK6130               3AZ
132352003132352031-000924     132352006001023669964P/FRAME COLLAGE PL     0000001000+00008771+00000+0001T   00008771+0000001516          1400 LK6510               3AZ
132352004132352112-116069     132352006009681820277TCS CARRIER BAG JUMBO  0000001000+00000048+00000+0001T   00000048+0000001516          1400 LK6090               3AZ
132352005132352077-000240     132352006003000326259G/RIBBON 4PC PEARLIZED 0000001000+00001753+00000+0001T   00001753+0000001516          1400 LK6112               3AZ
132352006132352018-000136     132352006001023659026MUG OCC LOVE W/PLUSH   0000002000+00003507+00000+0001T   00003507+0000001516          1400 LK6515               3AZ
132352007132352030-000030-A   132352006003000249305PLAQUE GLASS LOVE      0000001000+00003069+00000+0001T   00003069+0000001516          1400 LK6505               3AZ
132352008132352031-000002-A   132352006003000247103P/FRAME LOVE 7.5X7.5CM 0000001000+00003507+00000+0001T   00003507+0000001516          1400 LK6510               3AZ
132352009132352301-085004     132352006003000420469ORN LOVE PLAQUE 21X10CM0000001000+00003507+00000+0001T   00003946+0006471516          1400 LK6505               3AZ
132352010132352018-005007     132352006003000515516MUG OCC. LOVE W/HEARTS 0000001000+00006139+00000+0001T   00006139+0000001516          1400 LK6515               3AZ
132352011132352018-030000     132352006003000421060MUG OCCASIONS LOVE 2PCE0000001000+00004385+00000+0001T   00004385+0000001516          1400 LK6515               3AZ
132352012132352018-000170     132352006001023775528MUG OCC. LOVE 2PC MINI 0000001000+00002192+00000+0001T   00002192+0000001516          1400 LK6515               3AZ
132352013132352039-000635     132352006001023774521CANDLE VTV 4PC WHITE   0000001000+00002192+00000+0001T   00002192+0000001516          1400 LK6510               3AZ
132352014132352018-030000     132352006003000421060MUG OCCASIONS LOVE 2PCE0000001000+00004385+00000+0001T   00004385+0000001516          1400 LK6515               3AZ
132352015132352018-000170     132352006001023775528MUG OCC. LOVE 2PC MINI 0000001000+00002192+00000+0001T   00002192+0000001516          1400 LK6515               3AZ
132352016132352018-000129     132352006001023403353MUG OCC. LOVE V-SHAPE  0000001000+00002630+00000+0001T   00002630+0000001516          1400 LK6515               3AZ
132352017132352368-000001     132352006003000097982Plush Bear 25cm        0000002000+00004385+00000+0001T   00004385+0000001516          1400 LK6745               3AZ
132352018132352089-060027     132352006003000245871KEY-CHAIN HEART 6X6cm  0000001000+00003069+00000+0001T   00003069+0000001516          1400 LK6205               3AZ
132352019132352018-000177     132352006001023797513MUG MINI LOVE ASSTD    0000001000+00000700+00000+0001T   00000700+0000001516          1400 LK6515               3AZ
132352020132352018-000127     132352006001023380289MUG OCC STRAIGHT LOVE  0000001000+00001578+00000+0001T   00001753+0006471516          1400 LK6515               3AZ
132352021132352903-000095     132352006001704011495SWT SPECKLED-EGGS 100G 0000001000+00002104+00000+0001T   00002104+0000001516          1400 LK6150               3AZ
132353000132353               132353               170213JS     1400+00000+JS0000002192+0000002192+000000000+000000307+0000002490+0000000009+I20000000000+0000002490+Z
132353001132353080-000127     132353006003000424351VALENTINES DAY 36x24CM 0000001000+00002192+00000+0001T   00002192+0000001516          1400 LK6112               3AZ
132354000132354               132354               170213JS     1400+00000+JS0000002192+0000002192+000000000+000000307+0000002490+0000000009+I20000000000+0000002490+Z
132354001132354089-000225     132354006003000622290KEY CHAIN RELIGIOUS    0000001000+00002192+00000+0001T   00002192+0000001517          1400 LK6205               3AZ
132355000132355               132355               170213JS     1400+00000+JS0000002980+0000002980+000000000+000000418+0000003390+0000000008+I20000000000+0000003390+Z
132355001132355039-000108     132355006001023524034TEA-LITE CANDLES 8PCE  0000002000+00001490+00000+0001T   00001490+0000001518          1400 LK6510               3AZ
132356000132356               132356               170213JS     1400+00000+JS0000002630+0000002630+000000000+000000369+0000002990+0000000009+I20000000000+0000002990+Z
132356001132356200-000030     132356006923029860018ROLL PL WRAP 30cmx30m  0000001000+00002630+00000+0001T   00002630+0000001519          1400 LK6214               3AZ
132357000132357               132357               170213JS     1400+00000+JS0000003555+0000003555+000000000+000000498+0000004053+0000000000+I40000004053+0000000000+Z
132357001132357301-085004     132357006003000420469ORN LOVE PLAQUE 21X10CM0000001000+00003507+00000+0001T   00003946+0006471521          1400 LK6505               3AZ
132357002132357112-116069     132357006009681820277TCS CARRIER BAG JUMBO  0000001000+00000048+00000+0001T   00000048+0000001521          1400 LK6090               3AZ
132358000132358               132358               170213JS     1400+00000+JS0000003417+0000003417+000000000+000000480+0000003890+0000000007+I20000000000+0000003890+Z
132358001132358079-009702-D   132358008427973059354PAPER SIRIO A2 RED COL 0000001000+00001051+00000+0001T   00001051+0000001521          1400 LK6130               3AZ
132358002132358079-006494     132358006003000159864GLITTER GLUE 5PCE 11cm 0000001000+00001490+00000+0001T   00001490+0000001521          1400 LK6130               3AZ
132358003132358071-001012     132358006001023474445MARKERS BLACK ROUND    0000001000+00000876+00000+0001T   00000876+0000001521          1400 LK6130               3AZ
132359000132359               132359               170213JS     1400+00000+JS0000016824+0000016824+000000000+000002358+0000019182+0000000000+I40000019182+0000000000+Z
132359001132359077-000011-D   132359006001023808554TISSUE-WRAP WHITE 10PCE0000002000+00000876+00000+0001T   00000876+0000001524          1400 LK6112               3AZ
132359002132359077-000299     132359006003000395576G/BAG 32x25cm LRG LOVE 0000001000+00001490+00000+0001T   00001490+0000001524          1400 LK6112               3AZ
132359003132359018-005009     132359006001023725608MUG W/PLUSH-BEAR LOVE  0000001000+00003507+00000+0001T   00003507+0000001524          1400 LK6515               3AZ
132359004132359903-000194     132359006009826020616SWT CHOC RP LOLLY 25G  0000004000+00001314+00000+0001T   00001314+0000001524          1400 LK6150               3AZ
132359005132359089-000027     132359006003000254071KEY CHAIN MOM/DAD ASSTD0000001000+00001753+00000+0001T   00001753+0000001524          1400 LK6205               3AZ
132359006132359903-000481     132359006001704007481SWT MOO MILK-SHAKES 60G0000001000+00000876+00000+0001T   00000876+0000001524          1400 LK6150               3AZ
132359007132359077-000299     132359006003000395576G/BAG 32x25cm LRG LOVE 0000001000+00001490+00000+0001T   00001490+0000001524          1400 LK6112               3AZ
132359008132359564-000012     132359006001023130075BUBBLE BOTTLE MAGIC    0000001000+00000700+00000+0001T   00000700+0000001524          1400 LK6131               3AZ
132360000132360               132360               170213JS     1400+00000+JS0000004606+0000004606+000000000+000000646+0000005250+0000000002+I20000000000+0000005250+Z
132360001132360304-001011     132360006001023806727FLWR ROSE RED W/BEAR   0000001000+00000613+00000+0001T   00000788+0006471524          1400 LK6510               3AZ
132360002132360088-000104     132360006001023765444INCENSE SET ASSTD FRAG 0000001000+00002192+00000+0001T   00002192+0000001524          1400 LK6212               3AZ
132360003132360080-000112     132360006003000252749CARD&ENVLP BDAY-MUSICAL0000001000+00001753+00000+0001T   00001753+0000001524          1400 LK6112               3AZ
132360004132360112-116069     132360006009681820277TCS CARRIER BAG JUMBO  0000001000+00000048+00000+0001T   00000048+0000001524          1400 LK6090               3AZ
132361000132361               132361               170213JS     1400+00000+JS0000006187+0000006187+000000000+000000867+0000007050+0000000004+I20000000000+0000007050+Z
132361001132361018-050000     132361006003000412679MUG OCC LOVE TWIN BEAR 0000001000+00006139+00000+0001T   00006139+0000001528          1400 LK6515               3AZ
132361002132361112-116069     132361006009681820277TCS CARRIER BAG JUMBO  0000001000+00000048+00000+0001T   00000048+0000001528          1400 LK6090               3AZ
132362000132362               132362               170213JS     1400+00000+JS0000004433+0000004433+000000000+000000621+0000005050+0000000004+I20000000000+0000005050+Z
132362001132362018-030000     132362006003000421060MUG OCCASIONS LOVE 2PCE0000001000+00004385+00000+0001T   00004385+0000001529          1400 LK6515               3AZ
132362002132362112-116069     132362006009681820277TCS CARRIER BAG JUMBO  0000001000+00000048+00000+0001T   00000048+0000001529          1400 LK6090               3AZ
132363000132363               132363               170213JS     1400+00000+JS0000007540+0000007540+000000000+000001056+0000008590+0000000006+I20000000000+0000008590+Z
132363001132363007-000614     132363006001023768667DIARY W/LOCK+PEN LOVE  0000001000+00005262+00000+0001T   00005262+0000001534          1400 LK6130               3AZ
132363002132363018-000177     132363006001023797513MUG MINI LOVE ASSTD    0000001000+00000700+00000+0001T   00000700+0000001534          1400 LK6515               3AZ
132363003132363077-000303     132363006001023593757GIFT-BAG PAPER MED     0000001000+00001578+00000+0001T   00001578+0000001534          1400 LK6112               3AZ
132364000132364               132364               170213JS     1400+00000+JS0000010518+0000010518+000000000+000001476+0000011994+0000000000+I40000011994+0000000000+Z
132364001132364080-000106     132364006003000237098CARD&ENVLPE BDAY GIRL  0000001000+00001753+00000+0001T   00001753+0000001535          1400 LK6112               3AZ
132364002132364080-000107     132364006003000237081CARD&ENVELPE BDAY BOY  0000001000+00001753+00000+0001T   00001753+0000001535          1400 LK6112               3AZ
132364003132364080-000103     132364006003000236961CARD&ENVLOPE BDAY-MALE 0000001000+00001753+00000+0001T   00001753+0000001535          1400 LK6112               3AZ
132364004132364080-000109     132364006003000237203CARD&ENVLPE BDAY-BRIGHT0000001000+00001753+00000+0001T   00001753+0000001535          1400 LK6112               3AZ
132364005132364080-000120     132364006003000236473CARD & ENVELOPE WEDDING0000001000+00001753+00000+0001T   00001753+0000001535          1400 LK6112               3AZ
132364006132364080-000104     132364006003000236978CARD&ENVLP MALE AFR    0000001000+00001753+00000+0001T   00001753+0000001535          1400 LK6112               3AZ
132365000132365               132365               170213JS     1400+00000+JS0000016222+0000016222+000000000+000002273+0000018495+0000000000+I40000018495+0000000000+Z
132365001132365077-000309     132365006001023608604GIFT-BAG 25X32CM GLOSS 0000001000+00001753+00000+0001T   00001753+0000001537          1400 LK6112               3AZ
132365002132365368-000637     132365006001023874092PLUSH BEAR SLEEPING LOV0000001000+00011402+00000+0001T   00012279+0006471537          1400 LK6745               3AZ
132365003132365080-000104     132365006003000236978CARD&ENVLP MALE AFR    0000001000+00001753+00000+0001T   00001753+0000001537          1400 LK6112               3AZ
132365004132365077-000407     132365006003000145096G/BAG PP 19X26X8CM     0000001000+00001314+00000+0001T   00001314+0000001537          1400 LK6112               3AZ
132366000132366               132366               170213JS     1400+00000+JS0000000876+0000000876+000000000+000000123+0000000990+0000000009+I20000000000+0000000990+Z
132366001132366077-000011-C   132366006001023808523TISSUE 10xSHTS RED     0000001000+00000876+00000+0001T   00000876+0000001538          1400 LK6112               3AZ
132367000132367               132367               170213JS     1400+00000+JS0000001578+0000001578+000000000+000000221+0000001790+0000000009+I20000000000+0000001790+Z
132367001132367071-001028     132367008887013700385MARKER WHT-RND YM-500  0000001000+00001578+00000+0001T   00001578+0000001538          1400 LK6130               3AZ
132368000132368               132368               170213JS     1400+00000+JS0000023334+0000023334+000000000+000003269+0000026603+0000000000+I40000026603+0000000000+Z
132368001132368105-007052     132368006003000614639CEREAL STORER 3.6L     0000001000+00004385+00000+0001T   00004385+0000001541          1400 LK6210               3AZ
132368002132368024-007001     132368006002580007688CAKE/BISCUIT-SERVER    0000001000+00003069+00000+0001T   00003069+0000001541          1400 LK6300               3AZ
132368003132368105-007052     132368006003000614639CEREAL STORER 3.6L     0000002000+00004385+00000+0001T   00004385+0000001541          1400 LK6210               3AZ
132368004132368024-007001     132368006002580007688CAKE/BISCUIT-SERVER    0000001000+00003069+00000+0001T   00003069+0000001541          1400 LK6300               3AZ
132368005132368105-001033     132368000700371696641CONTAINER FOODSAVER 1.60000001000+00002192+00000+0001T   00002192+0000001541          1400 LK6210               3AZ
132368006132368105-001032     132368000700371696634CONTAINER FOODSAVER 1.20000001000+00001753+00000+0001T   00001753+0000001541          1400 LK6210               3AZ
132368007132368112-116069     132368006009681820277TCS CARRIER BAG JUMBO  0000002000+00000048+00000+0001T   00000048+0000001541          1400 LK6090               3AZ
132369000132369               132369               170213JS     1400+00000+JS0000016007+0000016007+000000000+000002244+0000018251+0000000000+I40000018251+0000000000+Z
132369001132369301-085007     132369006003000673698ORN OCC. LOVE S/PLAQUE 0000001000+00007893+00000+0001T   00007893+0000001543          1400 LK6505               3AZ
132369002132369301-085001     132369006003000297610ORN WATERBALL LOVE ASST0000001000+00004823+00000+0001T   00004823+0000001543          1400 LK6505               3AZ
132369003132369903-000215     132369006002099001214SWT GS MALLOW TWIST PAC0000001000+00001753+00000+0001T   00001753+0000001543          1400 LK6150               3AZ
132369004132369077-000299     132369006003000395576G/BAG 32x25cm LRG LOVE 0000001000+00001490+00000+0001T   00001490+0000001543          1400 LK6112               3AZ
132369005132369112-116069     132369006009681820277TCS CARRIER BAG JUMBO  0000001000+00000048+00000+0001T   00000048+0000001543          1400 LK6090               3AZ
132370000132370               132370               170213JS     1400+00000+JS0000014287+0000014287+000000000+000002004+0000016291+0000000000+I40000016291+0000000000+Z
132370001132370903-000183     132370006003000451043SWT LB HEART LOLLY     0000002000+00000393+00000+0001T   00000393+0000001545          1400 LK6150               3AZ
132370002132370079-013032-D   132370006003000389643RIBBONS                0000002000+00002630+00000+0001T   00002630+0000001545          1400 LK6130               3AZ
132370003132370073-000519     132370006001023871763COSMETIC-BG CYLINDRICAL0000002000+00003507+00000+0001T   00003507+0000001545          1400 LK6200               3AZ
132370004132370033-000013     132370006001023567215PILL-REMINDER PL       0000001000+00001227+00000+0001T   00001227+0000001545          1400 LK6200               3AZ
132371000132371               132371               170213JS     1400+00000+JS0000003069+0000003069+000000000+000000430+0000003499+0000000000+I40000003499+0000000000+Z
132371001132371133-000001     132371006003000329342CLEANING CLOTHS 3-PK   0000001000+00003069+00000+0001T   00003069+0000001547          1400 LK6212               3AZ
132372000132372               132372               170213JS     1400+00000+JS0000002628+0000002628+000000000+000000368+0000002990+0000000006+I20000000000+0000002990+Z
132372001132372565-000892-A   132372006003000690725NOVELTY FUN BALL       0000002000+00001314+00000+0001T   00001753+0008141547          1400 LK6745               3AZ
132373000132373               132373               170213JS     1400+00000+JS0000012279+0000012279+000000000+000001720+0000013990+0000000009+I20000000000+0000013990+Z
132373001132373263-000302     132373006003000403738JEEP PL W/ROOF TOP RAFT0000001000+00012279+00000+0001T   00012279+0000001547          1400 LK6710               3AZ
132374000132374               132374               170213JS     1400+00000+JS0000002240+0000002240+000000000+000000314+0000002550+0000000004+I20000000000+0000002550+Z
132374001132374105-001033     132374000700371696641CONTAINER FOODSAVER 1.60000001000+00002192+00000+0001T   00002192+0000001549          1400 LK6210               3AZ
132374002132374112-116069     132374006009681820277TCS CARRIER BAG JUMBO  0000001000+00000048+00000+0001T   00000048+0000001549          1400 LK6090               3AZ
132375000132375               132375               170213JS     1400+00000+JS0000007412+0000007412+000000000+000001039+0000008451+0000000000+I40000008451+0000000000+Z
132375001132375077-000005-B   132375006003000326617PAPER TISSUE PATTERN   0000001000+00002630+00000+0001T   00002630+0000001557          1400 LK6112               3AZ
132375002132375077-000315     132375006003000181186GIFT-BAG 20x28cm MATT  0000003000+00001578+00000+0001T   00001578+0000001557          1400 LK6112               3AZ
132375003132375112-116069     132375006009681820277TCS CARRIER BAG JUMBO  0000001000+00000048+00000+0001T   00000048+0000001557          1400 LK6090               3AZ
132376000132376               132376               170213JS     1400+00000+JS0000001753+0000001753+000000000+000000246+0000001990+0000000009+I20000000000+0000001990+Z
132376001132376200-003024     132376006001023657299REFUSE BAGS 20PCE BLACK0000001000+00001753+00000+0001T   00001753+0000001557          1400 LK6214               3AZ
132377000132377               132377               170213JS     1400+00000+JS0000002630+0000002630+000000000+000000369+0000002990+0000000009+I20000000000+0000002990+Z
132377001132377007-000718     132377006003000226672NOTE MAGNETIC WKLY PLNR0000001000+00002630+00000+0001T   00002630+0000001558          1400 LK6130               3AZ
132378000132378               132378               170213JS     1400+00000+JS0000000525+0000000525+000000000+000000074+0000000590+0000000009+I20000000000+0000000590+Z
132378001132378002-021040     132378006001023812216PARTY-PICKS 100PCE     0000001000+00000525+00000+0001T   00000525+0000001603          1400 LK6300               3AZ
132379000132379               132379               170213JS     1400+00000+JS0000003069+0000003069+000000000+000000430+0000003490+0000000009+I20000000000+0000003490+Z
132379001132379077-000376     132379006003000444427GIFT-BAG 25X32CM 2PK   0000001000+00003069+00000+0001T   00003069+0000001605          1400 LK6112               3AZ
132380000132380               132380               170213JS     1400+00000+JS0000001753+0000001753+000000000+000000246+0000001990+0000000009+I20000000000+0000001990+Z
132380001132380366-002460     132380006003000166794S/FASION CROCHET 1.9m  0000001000+00001753+00000+0001T   00001753+0000001606          1400 LK6131               3AZ
132381000132381               132381               170213JS     1400+00000+JS0000001490+0000001490+000000000+000000209+0000001690+0000000009+I20000000000+0000001690+Z
132381001132381077-000305     132381006003000395422GIFT-BAG WINE 10X35CM  0000001000+00001490+00000+0001T   00001490+0000001609          1400 LK6112               3AZ
132382000132382               132382               170213JS     1400+00000+JS0000000926+0000000926+000000000+000000130+0000001050+0000000006+I20000000000+0000001050+Z
132382001132382080-000114     132382006003000246472CARD&ENV LOVE-MUSICAL  0000001000-00001314+00000+0001T   00001753+0008151614          1400 LK61122IC            3 Z
132382002132382080-000127     132382006003000424351VALENTINES DAY 36x24CM 0000001000+00002192+00000+0001T   00002192+0000001614          1400 LK6112               3AZ
132382003132382112-116069     132382006009681820277TCS CARRIER BAG JUMBO  0000001000+00000048+00000+0001T   00000048+0000001614          1400 LK6090               3AZ
132383000132383               132383               170213JS     1400+00000+JS0000004066+0000004066+000000000+000000570+0000004630+0000000006+I20000000000+0000004630+Z
132383001132383077-000299     132383006003000395576G/BAG 32x25cm LRG LOVE 0000001000+00001490+00000+0001T   00001490+0000001701          1400 LK6112               3AZ
132383002132383903-004951     132383006002580020328SWT MALLOW MINI M/SHAKE0000001000+00001227+00000+0001T   00001227+0000001701          1400 LK6150               3AZ
132383003132383903-004950     132383006002580020304SWT APRICOT SURPRISE   0000001000+00001314+00000+0001T   00001314+0000001701          1400 LK6150               3AZ
132383004132383112-116038     132383006009681820246TCS CARRIER BAG MIDI   0000001000+00000035+00000+0001T   00000035+0000001701          1400 LK6090               3AZ
132384000132384               132384               170213JS     1400+00000+JS0000003243+0000003243+000000000+000000455+0000003698+0000000000+I40000003698+0000000000+Z
132384001132384077-000011-X   132384006001023809827TISSUE-WRAP SILVER 10PC0000001000+00001753+00000+0001T   00001753+0000001704          1400 LK6112               3AZ
132384002132384077-000452     132384006003000284986G/BAG METALLIC MED EMB 0000001000+00001490+00000+0001T   00001490+0000001704          1400 LK6112               3AZ
132385000132385               132385               170213JS     1400+00000+JS0000000613+0000000613+000000000+000000086+0000000690+0000000009+I20000000000+0000000690+Z
132385001132385304-001011     132385006001023806727FLWR ROSE RED W/BEAR   0000001000+00000613+00000+0001T   00000788+0006471705          1400 LK6510               3AZ
132386000132386               132386               170213JS     1400+00000+JS0000006139+0000006139+000000000+000000860+0000006990+0000000009+I20000000000+0000006990+Z
132386001132386368-000265     132386006001023750914PLUSH BEAR 23CM ASSTD C0000001000+00006139+00000+0001T   00006139+0000001706          1400 LK6745               3AZ
132387000132387               132387               170213JS     1400+00000+JS0000011961+0000011961+000000000+000001675+0000013636+0000000000+I40000013636+0000000000+Z
132387001132387018-030000     132387006003000421060MUG OCCASIONS LOVE 2PCE0000002000+00004385+00000+0001T   00004385+0000001709          1400 LK6515               3AZ
132387002132387077-000303     132387006001023593757GIFT-BAG PAPER MED     0000002000+00001578+00000+0001T   00001578+0000001709          1400 LK6112               3AZ
132387003132387112-116038     132387006009681820246TCS CARRIER BAG MIDI   0000001000+00000035+00000+0001T   00000035+0000001709          1400 LK6090               3AZ
132388000132388               132388               170213JS     1400+00000+JS0000026969+0000026969+000000000+000003778+0000030747+0000000000+I40000030747+0000000000+Z
132388001132388004-078988     132388006003000072521EARPHONES L-WEIGHT 1.1m0000001000+00005262+00000+0001T   00005262+0000001714          1400 LK6310               3AZ
132388002132388007-000206     132388006009635830215X/PAD 80-SHEETS PUNCHED0000001000+00001227+00000+0001T   00001227+0000001714          1400 LK6130               3AZ
132388003132388007-000204     132388006009635835272EXAM-PAD 60SHT PUNCHED 0000003000+00000964+00000+0001T   00000964+0000001714          1400 LK6130               3AZ
132388004132388466-000584     132388006001023628787SKIPPING-ROPE          0000001000+00002630+00000+0001T   00002630+0000001714          1400 LK6785               3AZ
132388005132388158-008937     132388006003000571642TOILET ROLL HOLDER     0000001000+00004385+00000+0001T   00004385+0000001714          1400 LK6300               3AZ
132388006132388112-116069     132388006009681820277TCS CARRIER BAG JUMBO  0000001000+00000048+00000+0001T   00000048+0000001714          1400 LK6090               3AZ
132388007132388466-001021     132388005014294062007CRICKET-SET SIZE 1     0000001000+00010525+00000+0001T   00010525+0000001714          1400 LK6785               3AZ
132389000132389               132389               170213JS     1400+00000+JS0000018417+0000018417+000000000+000002580+0000020990+0000000007+I20000000000+0000020990+Z
132389001132389567-075497     132389009780799371895BK NOVEL ROMANCE AFR   0000001000+00006139+00000+0001T   00006139+0000001714          1400 LK6757               3AZ
132389002132389567-075497     132389009780799381665BK NOVEL ROMANCE AFR   0000001000+00006139+00000+0001T   00006139+0000001714          1400 LK6757               3AZ
132389003132389567-075497     132389009780799371864BK NOVEL ROMANCE AFR   0000001000+00006139+00000+0001T   00006139+0000001714          1400 LK6757               3AZ
132390000132390               132390               170213JS     1400+00000+JS0000003542+0000003542+000000000+000000496+0000004030+0000000008+I20000000000+0000004030+Z
132390001132390567-075490     132390009780799376449BK NOVEL ROMANCE AFR   0000001000+00003507+00000+0001T   00003507+0000001715          1400 LK6757               3AZ
132390002132390112-116038     132390006009681820246TCS CARRIER BAG MIDI   0000001000+00000035+00000+0001T   00000035+0000001715          1400 LK6090               3AZ
132391000132391               132391               170213JS     1400+00000+JS0000008464+0000008464+000000000+000001186+0000009650+0000000000+I40000009650+0000000000+Z
132391001132391112-116069     132391006009681820277TCS CARRIER BAG JUMBO  0000001000+00000048+00000+0001T   00000048+0000001717          1400 LK6090               3AZ
132391002132391077-000299     132391006003000395576G/BAG 32x25cm LRG LOVE 0000001000+00001490+00000+0001T   00001490+0000001717          1400 LK6112               3AZ
132391003132391903-000510     132391006001704012621SWEET MS ZBDZ S/BERRY  0000001000+00001227+00000+0001T   00001227+0000001717          1400 LK6150               3AZ
132391004132391018-000130     132391006001023867537MUG OCC LOVE MINI+HEART0000001000+00003507+00000+0001T   00003507+0000001717          1400 LK6515               3AZ
132391005132391080-000127     132391006003000424351VALENTINES DAY 36x24CM 0000001000+00002192+00000+0001T   00002192+0000001717          1400 LK6112               3AZ
132392000132392               132392               170213JS     1400+00000+JS0000005262+0000005262+000000000+000000737+0000005990+0000000009+I20000000000+0000005990+Z
132392001132392018-019000     132392006003000557288MUG OCC. LOVE JUMBO    0000001000+00005262+00000+0001T   00005262+0000001718          1400 LK6515               3AZ
132393000132393               132393               170213JS     1400+00000+JS0000016444+0000016444+000000000+000002304+0000018748+0000000000+I40000018748+0000000000+Z
132393001132393077-000299     132393006003000395576G/BAG 32x25cm LRG LOVE 0000001000+00001490+00000+0001T   00001490+0000001720          1400 LK6112               3AZ
132393002132393018-000136     132393006001023659026MUG OCC LOVE W/PLUSH   0000001000+00003507+00000+0001T   00003507+0000001720          1400 LK6515               3AZ
132393003132393007-000657     132393006003000081905STATIONERY SET GIRL    0000001000+00005262+00000+0001T   00005262+0000001720          1400 LK6130               3AZ
132393004132393566-000359     132393006003000582709STICKER BOOK LOVE SPARK0000001000+00002192+00000+0001T   00002192+0000001720          1400 LK6130               3AZ
132393005132393080-000127     132393006003000424351VALENTINES DAY 36x24CM 0000001000+00002192+00000+0001T   00002192+0000001720          1400 LK6112               3AZ
132393006132393112-116069     132393006009681820277TCS CARRIER BAG JUMBO  0000001000+00000048+00000+0001T   00000048+0000001720          1400 LK6090               3AZ
132393007132393903-000619     132393006003000672455SWT LOLLY STR/BRRY 140G0000001000+00001753+00000+0001T   00001753+0000001720          1400 LK6150               3AZ
132394000132394               132394               170213JS     1400+00000+JS0000002192+0000002192+000000000+000000307+0000002490+0000000009+I20000000000+0000002490+Z
132394001132394077-000926     132394006003000414178G/WRAP 700mmx2m LOVE   0000001000+00002192+00000+0001T   00002192+0000001721          1400 LK6112               3AZ
132395000132395               132395               170213JS     1400+00000+JS0000001753+0000001753+000000000+000000246+0000001990+0000000009+I20000000000+0000001990+Z
132395001132395903-000926     132395006914204004556SWT NOVELTY ST N/LACE  0000001000+00001753+00000+0001T   00001753+0000001723          1400 LK6150               3AZ
132396000132396               132396               170213JS     1400+00000+JS0000001400+0000001400+000000000+000000196+0000001590+0000000006+I20000000000+0000001590+Z
132396001132396564-000012     132396006001023130075BUBBLE BOTTLE MAGIC    0000002000+00000700+00000+0001T   00000700+0000001723          1400 LK6131               3AZ
132397000132397               132397               170213JS     1400+00000+JS0000006139+0000006139+000000000+000000860+0000006990+0000000009+I20000000000+0000006990+Z
132397001132397039-000798     132397006001023617774CANDLES TEALITE BOX-50 0000001000+00006139+00000+0001T   00006139+0000001724          1400 LK6510               3AZ
132398000132398               132398               170213JS     1400+00000+JS0000009681+0000009681+000000000+000001356+0000011037+0000000000+I40000011037+0000000000+Z
132398001132398560-000243     132398006001023622655ANIMALS OCEAN PLAY SET 0000001000+00006139+00000+0001T   00006139+0000001732          1400 LK6745               3AZ
132398002132398560-000116     132398006003000592111ANIMALS FUNNY ANIMALS  0000001000+00003507+00000+0001T   00003507+0000001732          1400 LK6745               3AZ
132398003132398112-116038     132398006009681820246TCS CARRIER BAG MIDI   0000001000+00000035+00000+0001T   00000035+0000001732          1400 LK6090               3AZ
132399000132399               132399               170213JS     1400+00000+JS0000013155+0000013155+000000000+000001843+0000014998+0000000000+I40000014998+0000000000+Z
132399001132399903-000619     132399006003000672455SWT LOLLY STR/BRRY 140G0000001000+00001753+00000+0001T   00001753+0000001734          1400 LK6150               3AZ
132399002132399368-000637     132399006001023874092PLUSH BEAR SLEEPING LOV0000001000+00011402+00000+0001T   00012279+0006471734          1400 LK6745               3AZ
132400000132400               132400               170213JS     1400+00000+JS0000003331+0000003331+000000000+000000467+0000003790+0000000008+I20000000000+0000003790+Z
132400001132400077-000315     132400006003000181186GIFT-BAG 20x28cm MATT  0000001000+00001578+00000+0001T   00001578+0000001734          1400 LK6112               3AZ
132400002132400039-001023     132400006003000466337CANDLE TEA-LITE METALIC0000001000+00001753+00000+0001T   00001753+0000001734          1400 LK6510               3AZ
132401000132401               132401               170213JS     1400+00000+JS0000000035+0000000035+000000000+000000005+0000000040+0000000000+I20000000000+0000000040+Z
132401001132401112-116038     132401006009681820246TCS CARRIER BAG MIDI   0000001000+00000035+00000+0001T   00000035+0000001735          1400 LK6090               3AZ
132402000132402               132402               170213JS     1400+00000+JS0000001788+0000001788+000000000+000000251+0000002030+0000000009+I20000000000+0000002030+Z
132402001132402200-003024     132402006001023657299REFUSE BAGS 20PCE BLACK0000001000+00001753+00000+0001T   00001753+0000001737          1400 LK6214               3AZ
132402002132402112-116038     132402006009681820246TCS CARRIER BAG MIDI   0000001000+00000035+00000+0001T   00000035+0000001737          1400 LK6090               3AZ
A17021300                                          09035071JSSLAVE 3                       LK63IC
M17021301                              IT          JSATT;IT                                          LAST CASH SLIP ON SLAVE 3                       IS 132402                                       THANX JS
M17021391                              CASH        JSSLAVE 3                       Z-REPORT No.   579TOTAL (Sales - Refunds)           6824.76       CASH TO BE BANKED                 2426.80       DEBIT CARDS                          0.00       CREDIT CARDS                      4397.96       Z-READING                         6824.76       AIRTIME DEBIT CARD SALES             0.00       AIRTIME CARD SALES                   0.00       OVERS/UNDERS                         0.00       AIRTIME CASH SALES                   0.00       GIFT CARDS                           0.00       GIFT CARD CASH SALES                 0.00       T O T A L  CASH PAYOUTS              0.00                                                                                                                                                                                                                                                                                                                                                      Z
M17021392                              CASH        JSABSENT                                                                                                                                                                                          ANNUAL LEAVE                                                                                                                                                                                    DAY OFF                                                                                                                                                                                         COMMENTS                                                                                                                                                                                                                                                                                                                                                                                       Z
Y17021300                                          JS00000000600227+000081
ZJS17021319553 SLAVE 3      SALES DATA                     NEXT INVOICE NO.  132403 0579
X JS Slave 3 First invoice 132322 170213 Last invoice 132402 170213 Next invoice 132403 Total number of records 000000305 clbackup completed 19:55:44
