104432000104432               104432               170213JT     1400+00000+JT0000007014+0000007014+000000000+000000982+0000007996+0000000000+I40000007996+0000000000+Z
104432001104432496-029007     104432000078257290079FILTER CARTRIDGE       0000002000+00003507+00000+0001T   00003507+0000000859          1400 AR7787               1AZ
104433000104433               104433               170213JT     1400+00000+JT0000004821+0000004821+000000000+000000675+0000005490+0000000006+I20000000000+0000005490+Z
104433001104433077-000310     104433006001023608635GIFT-BAG 18X23CM GLOSS 0000001000+00001314+00000+0001T   00001314+0000000956          1400 AR7112               1AZ
104433002104433301-085004     104433006003000420469ORN LOVE PLAQUE 21X10CM0000001000+00003507+00000+0001T   00003946+0006470956          1400 AR7505               1AZ
104434000104434               104434               170213JT     1400+00000+JT0000000000+0000000000+000000000+000000000+0000000000+0000000000+I20000000000+0000000000+Z
104434001104434080-000114     104434006003000246472CARD&ENV LOVE-MUSICAL  0000001000-00001314+00000+0001T   00001753+0008150959          1400 AR71123IC            1 Z
104434002104434080-000114     104434006003000246472CARD&ENV LOVE-MUSICAL  0000001000+00001314+00000+0001T   00001753+0008150959          1400 AR71123IC            1 Z
104435000104435               104435               170213JT     1400+00000+JT0000019297+0000019297+000000000+000002702+0000021990+0000000009+I20000000000+0000021990+Z
104435001104435072-020243     104435006003000519583PET MAT QUILTED 80x58cm0000001000+00019297+00000+0001T   00019297+0000001009          1400 AR7870               1AZ
104436000104436               104436               170213JT     1400+00000+JT0000002192+0000002192+000000000+000000307+0000002499+0000000000+I40000002499+0000000000+Z
104436001104436566-000359     104436006003000582709STICKER BOOK LOVE SPARK0000001000+00002192+00000+0001T   00002192+0000001011          1400 AR7130               1AZ
104437000104437               104437               170213JT     1400+00000+JT0000001926+0000001926+000000000+000000270+0000002190+0000000006+I20000000000+0000002190+Z
104437001104437033-010721     104437006001023678669SAFETY-PINS 20PCE ASSTD0000001000+00000700+00000+0001T   00000700+0000001038          1400 AR7200               1AZ
104437002104437083-000055     104437006003000003853LIGHTER ELCTRNC REFILBL0000002000+00000613+00000+0001T   00000613+0000001038          1400 AR7315               1AZ
104438000104438               104438               170213JT     1400+00000+JT0000003506+0000003506+000000000+000000492+0000003990+0000000008+I20000000000+0000003990+Z
104438001104438006-000240     104438006003000460595PARTY INVITES 12PC     0000002000+00001753+00000+0001T   00001753+0000001044          1400 AR7131               1AZ
104439000104439               104439               170213JT     1400+00000+JT0000024200+0000024200+000000000+000003390+0000027590+0000000000+I20000000000+0000027590+Z
104439001104439464-000667     104439006003000394791GAME BOWLING           0000001000+00017542+00000+0001T   00017542+0000001059          1400 AR7785               1AZ
104439002104439046-000015     104439006001023680839BATTERIES SIZE:D   2PCE0000001000+00002367+00000+0001T   00002367+0000001059          1400 AR7312               1AZ
104439003104439083-000055     104439006003000003853LIGHTER ELCTRNC REFILBL0000007000+00000613+00000+0001T   00000613+0000001059          1400 AR7315               1AZ
104440000104440               104440               170213JT     1400+00000+JT0000004821+0000004821+000000000+000000675+0000005490+0000000006+I20000000000+0000005490+Z
104440001104440079-000269     104440006003000159963PAINT-BRUSHES SPONGETIP0000001000+00003507+00000+0001T   00003507+0000001150          1400 AR7130               1AZ
104440002104440089-000098     104440006003000677443KEY CHAIN OPENER ASSTD 0000001000+00001314+00000+0001T   00001314+0000001150          1400 AR7205               1AZ
104441000104441               104441               170213JT     1400+00000+JT0000022008+0000022008+000000000+000003088+0000025096+0000000000+I40000025096+0000000000+Z
104441001104441031-000868-B   104441006001023798565P/FRAME PL BLCK 13X18CM0000001000+00002630+00000+0001T   00002630+0000001156          1400 AR7510               1AZ
104441002104441031-005919     104441006003000580576P/FRAME PL PLAIN 13X18 0000002000+00002630+00000+0001T   00002630+0000001156          1400 AR7510               1AZ
104441003104441031-000868-B   104441006001023798565P/FRAME PL BLCK 13X18CM0000001000+00002630+00000+0001T   00002630+0000001156          1400 AR7510               1AZ
104441004104441112-116069     104441006009681820277TCS CARRIER BAG JUMBO  0000001000+00000048+00000+0001T   00000048+0000001156          1400 AR7090               1AZ
104441005104441369-000215     104441006001023857071BABY EDU BATHTIME BOATS0000002000+00002630+00000+0001T   00002630+0000001156          1400 AR7745               1AZ
104441006104441466-064834     104441006008766064834BALL W/SPIKES 20cm     0000001000+00001753+00000+0001T   00001753+0000001156          1400 AR7785               1AZ
104441007104441071-001239     104441006001023762672ERASER PL ASSTD-COLOURS0000002000+00000876+00000+0001T   00000876+0000001156          1400 AR7130               1AZ
104441008104441071-081091     104441006001151010287STAED/GENKEM ALL-STICK 0000001000+00001227+00000+0001T   00001227+0000001156          1400 AR7130               1AZ
104441009104441564-000012     104441006001023130075BUBBLE BOTTLE MAGIC    0000002000+00000700+00000+0001T   00000700+0000001156          1400 AR7131               1AZ
104441010104441112-116069     104441006009681820277TCS CARRIER BAG JUMBO  0000001000+00000048+00000+0001T   00000048+0000001156          1400 AR7090               1AZ
104442000104442               104442               170213JT     1400+00000+JT0000001226+0000001226+000000000+000000172+0000001390+0000000008+I20000000000+0000001390+Z
104442001104442083-000055     104442006003000003853LIGHTER ELCTRNC REFILBL0000002000+00000613+00000+0001T   00000613+0000001200          1400 AR7315               1AZ
104443000104443               104443               170213JT     1400+00000+JT0000025563+0000025563+000000000+000003584+0000029147+0000000000+I40000029147+0000000000+Z
104443001104443463-000366     104443006001023789136SWIM W/NOODLE 150cm    0000004000+00002630+00000+0001T   00002630+0000001206          1400 AR7785               1AZ
104443002104443466-000620     104443006003000537617BALL SPORT SET 5.5CM   0000001000+00003946+00000+0001T   00003946+0000001206          1400 AR7785               1AZ
104443003104443071-004202     104443006001023417176SCISSORS-SCHOOL PL/MTL 0000002000+00001139+00000+0001T   00001139+0000001206          1400 AR7130               1AZ
104443004104443006-000165     104443006001023758392BALLOONS LRG BAG-OF-1000000001000+00008771+00000+0001T   00008771+0000001206          1400 AR7131               1AZ
104443005104443112-116069     104443006009681820277TCS CARRIER BAG JUMBO  0000001000+00000048+00000+0001T   00000048+0000001206          1400 AR7090               1AZ
104444000104444               104444               170213JT     1400+00000+JT0000001050+0000001050+000000000+000000148+0000001190+0000000008+I20000000000+0000001190+Z
104444001104444001-000165     104444006003000658657TUMBLER GLASS 240ML    0000002000+00000525+00000+0001T   00000525+0000001206          1400 AR7515               1AZ
104445000104445               104445               170213JT     1400+00000+JT0000001575+0000001575+000000000+000000222+0000001790+0000000007+I20000000000+0000001790+Z
104445001104445071-000874     104445006003000010110RUB-BANDS PLN BAG-30   0000003000+00000525+00000+0001T   00000525+0000001210          1400 AR7130               1AZ
104446000104446               104446               170213JT     1400+00000+JT0000000874+0000000874+000000000+000000124+0000000990+0000000008+I20000000000+0000000990+Z
104446001104446083-000049     104446004891035200024CIG-LIGHTER DISPOSABLE 0000002000+00000437+00000+0001T   00000437+0000001215          1400 AR7315               1AZ
104447000104447               104447               170213JT     1400+00000+JT0000005700+0000005700+000000000+000000798+0000006498+0000000000+I40000006498+0000000000+Z
104447001104447159-000801     104447006001023999832BATHMAT 36x59cm ASST   0000001000+00005700+00000+0001T   00005700+0000001220          1400 AR7200               1AZ
104448000104448               104448               170213JT     1400+00000+JT0000005260+0000005260+000000000+000000738+0000005990+0000000008+I20000000000+0000005990+Z
104448001104448071-001362     104448006003000589258HIGHLIGHTER 4 PACK     0000001000+00002630+00000+0001T   00002630+0000001223          1400 AR7130               1AZ
104448002104448071-008231     104448006001023811332PENCIL-BAG 20cm        0000001000+00002630+00000+0001T   00002630+0000001223          1400 AR71303IC            1AZ
104449000104449               104449               170213JT     1400+00000+JT0000004385+0000004385+000000000+000000614+0000004999+0000000000+I40000004999+0000000000+Z
104449001104449079-130010     104449006003000496624ART+CRAFT FOAM DOLLS   0000001000+00004385+00000+0001T   00004385+0000001225          1400 AR7130               1AZ
104450000104450               104450               170213JT     1400+00000+JT0000004781+0000004781+000000000+000000671+0000005452+0000000000+I40000005452+0000000000+Z
104450001104450200-003024     104450006001023657299REFUSE BAGS 20PCE BLACK0000001000+00001753+00000+0001T   00001753+0000001231          1400 AR7214               1AZ
104450002104450007-000724     104450006003000225958NOTE MAGNETIC 60SHTS   0000001000+00001753+00000+0001T   00001753+0000001231          1400 AR7130               1AZ
104450003104450903-000518     104450006001704012782SWT STRAWS S/BERRY 100g0000001000+00001227+00000+0001T   00001227+0000001231          1400 AR7150               1AZ
104450004104450112-116069     104450006009681820277TCS CARRIER BAG JUMBO  0000001000+00000048+00000+0001T   00000048+0000001231          1400 AR7090               1AZ
104451000104451               104451               170213JT     1400+00000+JT0000024555+0000024555+000000000+000003440+0000027995+0000000000+I10000017995+0000010000+Z
104451001104451586-012460     104451006001492124605WATCH LDS QUILTED BEIGE0000001000+00011402+00000+0001T   00011402+0000001234          1400 AR7160               1AZ
104451002104451077-000509     104451006003000082582GIFT-BAG SML 6PCE ORG P0000002000+00002192+00000+0001T   00002192+0000001234          1400 AR7112               1AZ
104451003104451566-000028     104451006003000265541STICKER BK ASSTD 250PCE0000001000+00001753+00000+0001T   00001753+0000001234          1400 AR7130               1AZ
104451004104451174-000305     104451006003000105502TRAVEL NECK-PILLOW     0000001000+00007016+00000+0001T   00007016+0000001234          1400 AR7205               1AZ
104452000104452               104452               170213JT     1400+00000+JT0000003904+0000003904+000000000+000000547+0000004451+0000000000+I40000004451+0000000000+Z
104452001104452105-001078     104452000700371637750CONTAINER 1,1L CLIP LOC0000002000+00001928+00000+0001T   00001928+0000001235          1400 AR7210               1AZ
104452002104452112-116069     104452006009681820277TCS CARRIER BAG JUMBO  0000001000+00000048+00000+0001T   00000048+0000001235          1400 AR7090               1AZ
104453000104453               104453               170213JT     1400+00000+JT0000001578+0000001578+000000000+000000221+0000001790+0000000009+I20000000000+0000001790+Z
104453001104453083-000054     104453006001023729071LIGHTER REFILLABLE LED 0000001000+00001578+00000+0001T   00001578+0000001236          1400 AR7315               1AZ
104454000104454               104454               170213JT     1400+00000+JT0000010519+0000010519+000000000+000001475+0000011994+0000000000+I40000011994+0000000000+Z
104454001104454105-007800     104454006002923018913STORAGE BOX CLEAR 5.5L 0000001000+00003507+00000+0001T   00003507+0000001239          1400 AR7210               1AZ
104454002104454027-783000     104454006001023874641SCOURERS RAINBOW 5PCE  0000001000+00001753+00000+0001T   00001753+0000001239          1400 AR7212               1AZ
104454003104454200-003024     104454006001023657299REFUSE BAGS 20PCE BLACK0000003000+00001753+00000+0001T   00001753+0000001239          1400 AR7214               1AZ
104455000104455               104455               170213JT     1400+00000+JT0000004997+0000004997+000000000+000000700+0000005697+0000000000+I40000005697+0000000000+Z
104455001104455018-000136     104455006001023659026MUG OCC LOVE W/PLUSH   0000001000+00003507+00000+0001T   00003507+0000001253          1400 AR7515               1AZ
104455002104455077-000299     104455006003000395576G/BAG 32x25cm LRG LOVE 0000001000+00001490+00000+0001T   00001490+0000001253          1400 AR7112               1AZ
104456000104456               104456               170213JT     1400+00000+JT0000004997+0000004997+000000000+000000700+0000005697+0000000000+I40000005697+0000000000+Z
104456001104456362-101406     104456006003000229741BEAD PLASTIC DIY SET   0000001000+00003507+00000+0001T   00003507+0000001302          1400 AR7160               1AZ
104456002104456077-000304     104456006001023483232GIFT-BAG 25X32CM E/DAY 0000001000+00001490+00000+0001T   00001490+0000001302          1400 AR7112               1AZ
104457000104457               104457               170213JT     1400+00000+JT0000019158+0000019158+000000000+000002685+0000021840+0000000003+I20000000000+0000021840+Z
104457001104457112-116069     104457006009681820277TCS CARRIER BAG JUMBO  0000001000+00000048+00000+0001T   00000048+0000001304          1400 AR7090               1AZ
104457002104457077-000115-B   104457006003000181025GIFT-WRAP PPR 700MMX2M 0000001000+00002630+00000+0001T   00002630+0000001304          1400 AR7112               1AZ
104457003104457567-011130     104457009780710506689BOOK STICKER ASSTD     0000002000+00001314+00000+0001T   00001753+0008131304          1400 AR7757               1AZ
104457004104457142-000810     104457006003000429721GLOVES LATEX PRNT CUFFS0000001000+00001753+00000+0001T   00001753+0000001304          1400 AR7810               1AZ
104457005104457079-000334     104457006003000670437THERAPY P/CRAYONS 18   0000001000+00005262+00000+0001T   00005262+0000001304          1400 AR7130               1AZ
104457006104457567-011343     104457006003000630592BK COLOURING THERAPY   0000001000+00003507+00000+0001T   00003507+0000001304          1400 AR7757               1AZ
104457007104457018-000177     104457006001023797513MUG MINI LOVE ASSTD    0000001000+00000700+00000+0001T   00000700+0000001304          1400 AR7515               1AZ
104457008104457077-000235     104457006003000160211GIFT-RIBBON ROLL METALC0000001000+00002630+00000+0001T   00002630+0000001304          1400 AR7112               1AZ
104458000104458               104458               170213JT     1400+00000+JT0000019066+0000019066+000000000+000002675+0000021741+0000000000+I40000021741+0000000000+Z
104458001104458071-003051     104458006003000217304PEN ASST               0000001000+00000788+00000+0001T   00001139+0008151309          1400 AR7130               1AZ
104458002104458112-116069     104458006009681820277TCS CARRIER BAG JUMBO  0000001000+00000048+00000+0001T   00000048+0000001309          1400 AR7090               1AZ
104458003104458007-000145     104458006009635833087BK EXERCISE 72PG A4    0000001000+00000525+00000+0001T   00000525+0000001309          1400 AR7130               1AZ
104458004104458566-000344     104458006001023994806STICKER ALBUM+STICKERS 0000001000+00001753+00000+0001T   00001753+0000001309          1400 AR7130               1AZ
104458005104458566-000065     104458006003000217915STICKERS GLITTER ASSTD 0000001000+00001753+00000+0001T   00001753+0000001309          1400 AR7130               1AZ
104458006104458566-000070     104458006003000283798STICKERS POP UP ASSTD  0000001000+00001753+00000+0001T   00001753+0000001309          1400 AR7130               1AZ
104458007104458566-000007     104458006001023761187S/BOOK SUPER VALUE     0000001000+00001753+00000+0001T   00001753+0000001309          1400 AR7130               1AZ
104458008104458566-000056     104458006003000661381STICKER DRESS UP GIRL  0000001000+00001753+00000+0001T   00001753+0000001309          1400 AR7130               1AZ
104458009104458079-006496     104458006003000160105GLITTER SHAKERS        0000001000+00001753+00000+0001T   00001753+0000001309          1400 AR7130               1AZ
104458010104458006-000102     104458006001023806819BALLOONS W/BOMBS 50PCE 0000001000+00001490+00000+0001T   00001490+0000001309          1400 AR7131               1AZ
104458011104458162-010793     104458006001492107936#TAG KIDS CLIPS        0000001000+00003507+00000+0001T   00003507+0000001309          1400 AR7160               1AZ
104458012104458018-000177     104458006001023797513MUG MINI LOVE ASSTD    0000001000+00000700+00000+0001T   00000700+0000001309          1400 AR7515               1AZ
104458013104458051-002401     104458006001023523570TRIGGER-SPRAYER   300ml0000001000+00001490+00000+0001T   00001490+0000001309          1400 AR7820               1AZ
104459000104459               104459               170213JT     1400+00000+JT0000001139+0000001139+000000000+000000160+0000001290+0000000009+I20000000000+0000001290+Z
104459001104459206-000530     104459006003000620821BIRTHDAY CANDLES 6PC   0000001000+00001139+00000+0001T   00001753+0008181329          1400 AR7321               1AZ
104460000104460               104460               170213JT     1400+00000+JT0000003555+0000003555+000000000+000000498+0000004050+0000000003+I20000000000+0000004050+Z
104460001104460018-000136     104460006001023659026MUG OCC LOVE W/PLUSH   0000001000+00003507+00000+0001T   00003507+0000001333          1400 AR7515               1AZ
104460002104460112-116069     104460006009681820277TCS CARRIER BAG JUMBO  0000001000+00000048+00000+0001T   00000048+0000001333          1400 AR7090               1AZ
104461000104461               104461               170213JT     1400+00000+JT0000005170+0000005170+000000000+000000726+0000005890+0000000006+I20000000000+0000005890+Z
104461001104461903-000087     104461006001704000161SWT SPECKLED-EGGS 50G  0000003000+00001139+00000+0001T   00001139+0000001335          1400 AR7150               1AZ
104461002104461251-000070     104461006003000451777PROTECTION-PADS BLK ADH0000001000+00001753+00000+0001T   00001753+0000001335          1400 AR7810               1AZ
104462000104462               104462               170213JT     1400+00000+JT0000012715+0000012715+000000000+000001781+0000014496+0000000000+I40000014496+0000000000+Z
104462001104462206-000100     104462006003000628063TONGS ICE COLD FINGERS 0000001000+00002192+00000+0001T   00002192+0000001429          1400 AR7321               1AZ
104462002104462031-007001     104462006003000462599P/FRAME WDN DISTRESSED 0000001000+00007016+00000+0001T   00007016+0000001429          1400 AR7510               1AZ
104462003104462031-000873-B   104462006003000673391P/FRAME WDN WHITE 13X180000001000+00003507+00000+0001T   00003507+0000001429          1400 AR7510               1AZ
104463000104463               104463               170213JT     1400+00000+JT0000121901+0000121901+000000000+000017091+0000138992+0000000000+I40000138992+0000000000+Z
104463001104463077-000327     104463006001023677686GIFT-BAG 25X32CM E/D BA0000001000+00001490+00000+0001T   00001490+0000001500          1400 AR7112               1AZ
104463002104463077-000304     104463006001023483232GIFT-BAG 25X32CM E/DAY 0000017000+00001490+00000+0001T   00001490+0000001500          1400 AR7112               1AZ
104463003104463077-000327     104463006001023677686GIFT-BAG 25X32CM E/D BA0000004000+00001490+00000+0001T   00001490+0000001500          1400 AR7112               1AZ
104463004104463112-116069     104463006009681820277TCS CARRIER BAG JUMBO  0000001000+00000048+00000+0001T   00000048+0000001500          1400 AR7090               1AZ
104463005104463366-002694     104463006003000088997DRESS UP HAT COWBOY PL 0000008000+00001753+00000+0001T   00001753+0000001500          1400 AR7131               1AZ
104463006104463112-116069     104463006009681820277TCS CARRIER BAG JUMBO  0000002000+00000048+00000+0001T   00000048+0000001500          1400 AR7090               1AZ
104463007104463565-000859     104463006001023691361SUNGLASSES GIANT       0000005000+00001753+00000+0001T   00001753+0000001500          1400 AR7745               1AZ
104463008104463565-000876     104463006003000305759NOVELTY FUNKY SUNGLASS 0000002000+00003507+00000+0001T   00003507+0000001500          1400 AR7745               1AZ
104463009104463366-000151     104463006003000601561DRESS UP WEDDING HEN   0000002000+00003507+00000+0001T   00003507+0000001500          1400 AR7131               1AZ
104463010104463366-002803     104463006003000531875DRESS UP POMPOM 2PC SET0000002000+00003507+00000+0001T   00003507+0000001500          1400 AR7131               1AZ
104463011104463464-000123     104463006003000646081GAME POKER PLAY SET    0000001000+00013157+00000+0001T   00013157+0000001500          1400 AR7785               1AZ
104463012104463366-002690     104463006001023902894DRESS UP HAT SPORTS    0000001000+00006139+00000+0001T   00006139+0000001500          1400 AR7131               1AZ
104463013104463366-007600     104463006001023902184MASK THEATRICAL GLITTER0000001000+00001753+00000+0001T   00001753+0000001500          1400 AR7131               1AZ
104463014104463366-000450     104463006003000653386DRESS UP HEADBAND ASSTD0000001000+00002630+00000+0001T   00002630+0000001500          1400 AR7131               1AZ
104463015104463366-007600     104463006001023902184MASK THEATRICAL GLITTER0000002000+00001753+00000+0001T   00001753+0000001500          1400 AR7131               1AZ
104463016104463565-004101     104463006003000548033BALL BOUNCING EGG      0000001000+00001490+00000+0001T   00001490+0000001500          1400 AR7745               1AZ
104463017104463564-000012     104463006001023130075BUBBLE BOTTLE MAGIC    0000006000+00000700+00000+0001T   00000700+0000001500          1400 AR7131               1AZ
104463018104463466-000200     104463006001023621665HULA-HOOP     ASSTD    0000004000+00001753+00000+0001T   00001753+0000001500          1400 AR7785               1AZ
104463019104463080-000111     104463006003000252695CARD&ENVELPE - MUSICAL 0000003000+00001753+00000+0001T   00001753+0000001500          1400 AR7112               1AZ
104464000104464               104464               170213JT     1400+00000+JT0000008502+0000008502+000000000+000001193+0000009690+0000000005+I20000000000+0000009690+Z
104464001104464077-000115     104464006001023834225WRAP METALLIC 700mmx1m 0000002000+00001753+00000+0001T   00001753+0000001504          1400 AR7112               1AZ
104464002104464084-009407     104464006001023861726SCISSORS 13cm MTL PL-H 0000001000+00001753+00000+0001T   00001753+0000001504          1400 AR7200               1AZ
104464003104464084-009411     104464006001023629968SCISSORS 17cm PL-HANDLE0000001000+00001753+00000+0001T   00001753+0000001504          1400 AR7200               1AZ
104464004104464071-005214     104464006003000152544CELLOTAPE SUPER REFILL 0000001000+00001490+00000+0001T   00001490+0000001504          1400 AR7130               1AZ
104465000104465               104465               170213JT     1400+00000+JT0000003592+0000003592+000000000+000000503+0000004090+0000000005+I20000000000+0000004090+Z
104465001104465261-008349     104465006001023787590CAP-GUN 8-SHOT         0000001000+00002192+00000+0001T   00002192+0000001512          1400 AR7710               1AZ
104465002104465261-000121     104465006001023341600GUN-CAPS 8-SHOT CARD-9 0000002000+00000700+00000+0001T   00000700+0000001512          1400 AR7710               1AZ
104466000104466               104466               170213JT     1400+00000+JT0000004868+0000004868+000000000+000000682+0000005550+0000000000+I20000000000+0000005550+Z
104466001104466088-000104     104466006001023765444INCENSE SET ASSTD FRAG 0000001000+00002192+00000+0001T   00002192+0000001646          1400 AR7212               1AZ
104466002104466006-000167-B   104466006003000516858BALLOONS BLUE METALLIC 0000001000+00001314+00000+0001T   00001314+0000001646          1400 AR7131               1AZ
104466003104466006-000167-D   104466006003000517091BALLOONS PRPLE METALLIC0000001000+00001314+00000+0001T   00001314+0000001646          1400 AR7131               1AZ
104466004104466112-116069     104466006009681820277TCS CARRIER BAG JUMBO  0000001000+00000048+00000+0001T   00000048+0000001646          1400 AR7090               1AZ
104467000104467               104467               170213JT     1400+00000+JT0000007062+0000007062+000000000+000000989+0000008050+0000000001+I20000000000+0000008050+Z
104467001104467562-000052     104467006003000112333EDU EXCAVATION DIAMOND 0000001000+00003507+00000+0001T   00003507+0000001647          1400 AR7755               1AZ
104467002104467562-000051     104467006003000308798EDU EXCAVATION KIT ASST0000001000+00003507+00000+0001T   00003507+0000001647          1400 AR7755               1AZ
104467003104467112-116069     104467006009681820277TCS CARRIER BAG JUMBO  0000001000+00000048+00000+0001T   00000048+0000001647          1400 AR7090               1AZ
104468000104468               104468               170213JT     1400+00000+JT0000006750+0000006750+000000000+000000946+0000007690+0000000006+I20000000000+0000007690+Z
104468001104468018-005009     104468006001023725608MUG W/PLUSH-BEAR LOVE  0000001000+00003507+00000+0001T   00003507+0000001648          1400 AR7515               1AZ
104468002104468007-000724     104468006003000225958NOTE MAGNETIC 60SHTS   0000001000+00001753+00000+0001T   00001753+0000001648          1400 AR7130               1AZ
104468003104468077-000299     104468006003000395576G/BAG 32x25cm LRG LOVE 0000001000+00001490+00000+0001T   00001490+0000001648          1400 AR7112               1AZ
104469000104469               104469               170213JT     1400+00000+JT0000003507+0000003507+000000000+000000491+0000003998+0000000000+I40000003998+0000000000+Z
104469001104469108-003022     104469006003000598830TUMBLER W/STRAW & SCREW0000001000+00003507+00000+0001T   00003507+0000001650          1400 AR7210               1AZ
104470000104470               104470               170213JT     1400+00000+JT0000010307+0000010307+000000000+000001444+0000011750+0000000001+I20000000000+0000011750+Z
104470001104470361-003015     104470006003000543168DOLLS 14CM MERMAIDS 4PC0000001000+00005262+00000+0001T   00005262+0000001651          1400 AR7725               1AZ
104470002104470464-009010     104470006001023800756FISHING-GAME MAG +ROD  0000001000+00003507+00000+0001T   00003507+0000001651          1400 AR7785               1AZ
104470003104470565-004101     104470006003000548033BALL BOUNCING EGG      0000001000+00001490+00000+0001T   00001490+0000001651          1400 AR7745               1AZ
104470004104470112-116069     104470006009681820277TCS CARRIER BAG JUMBO  0000001000+00000048+00000+0001T   00000048+0000001651          1400 AR7090               1AZ
104471000104471               104471               170213JT     1400+00000+JT0000001753+0000001753+000000000+000000246+0000001990+0000000009+I20000000000+0000001990+Z
104471001104471200-003024     104471006001023657299REFUSE BAGS 20PCE BLACK0000001000+00001753+00000+0001T   00001753+0000001651          1400 AR7214               1AZ
104472000104472               104472               170213JT     1400+00000+JT0000013203+0000013203+000000000+000001849+0000015052+0000000000+I40000015052+0000000000+Z
104472001104472031-000844     104472006001023851789P/FRAME WDN WORDS 2ASS 0000001000+00003507+00000+0001T   00003507+0000001653          1400 AR7510               1AZ
104472002104472030-004015     104472006003000467624PLAQUE WDN SIGN 30X20CM0000001000+00009648+00000+0001T   00009648+0000001653          1400 AR7505               1AZ
104472003104472112-116069     104472006009681820277TCS CARRIER BAG JUMBO  0000001000+00000048+00000+0001T   00000048+0000001653          1400 AR7090               1AZ
104473000104473               104473               170213JT     1400+00000+JT0000001751+0000001751+000000000+000000246+0000001990+0000000007+I20000000000+0000001990+Z
104473001104473007-000209     104473006001023582102NOTE STICKY FILE MARKER0000001000+00001314+00000+0001T   00001314+0000001710          1400 AR7130               1AZ
104473002104473083-000049     104473004891035200024CIG-LIGHTER DISPOSABLE 0000001000+00000437+00000+0001T   00000437+0000001710          1400 AR7315               1AZ
104474000104474               104474               170213JT     1400+00000+JT0000032448+0000032448+000000000+000004547+0000036995+0000000000+I40000036995+0000000000+Z
104474001104474304-000720     104474006001023843050F/BUNCH ROSE 6-HEAD AST0000002000+00002630+00000+0001T   00002630+0000001720          1400 AR7510               1AZ
104474002104474368-000113     104474006001023780874PLUSH BLINGED LOVE 30cm0000002000+00012279+00000+0001T   00012279+0000001720          1400 AR7745               1AZ
104474003104474077-000270     104474006003000395453GIFT-BAG PPR JMB 33X45 0000001000+00002630+00000+0001T   00002630+0000001720          1400 AR7112               1AZ
104475000104475               104475               170213JT     1400+00000+JT0000002980+0000002980+000000000+000000418+0000003390+0000000008+I20000000000+0000003390+Z
104475001104475079-000802     104475006001023528902ART+CRAFT STICKS 100PCE0000001000+00002455+00000+0001T   00002455+0000001756          1400 AR7130               1AZ
104475002104475903-000155     104475006009803374435SWT LOLLY I LUV U HEART0000001000+00000525+00000+0001T   00000525+0000001756          1400 AR7150               1AZ
104476000104476               104476               170213JT     1400+00000+JT0000002630+0000002630+000000000+000000369+0000002990+0000000009+I20000000000+0000002990+Z
104476001104476368-000100     104476006001023474742PLUSH MD BEAR 12cm     0000001000+00002630+00000+0001T   00002630+0000001757          1400 AR7745               1AZ
104477000104477               104477               170213JT     1400+00000+JT0000014740-0000000000+000000000+000000000+0000014740-0000000000+I20000000000+0000014740-Z
104477001104477001-999901     104477000000000999901CASUAL WAGES           0000001000-00014740+00000+0001X  8712220577086 0800AJIMAN0000000000 AR79011IC A          1 Z
A17021300                                          08580138JTSLAVE 1                       AR73IC
A17021301                                          09003821JTSLAVE 1                       AR73IC
A17021302                                          09072727JTSLAVE 1                       AR73IC
A17021303                                          09353688JTSLAVE 1                       AR73IC
A17021304                                          10200105JTSLAVE 1                       AR71IC
B10444800                                          170213JT071-008231     12231592SLAVE 1     AR73IC0000002000+0000001000+0000000000000+
M17021391                              CASH        JTSLAVE 1                       Z-REPORT No.   666TOTAL (Sales - Refunds)           5389.25       CASH TO BE BANKED                 1653.90       DEBIT CARDS                          0.00       CREDIT CARDS                      3587.95       Z-READING                         5241.85       AIRTIME DEBIT CARD SALES             0.00       AIRTIME CARD SALES                   0.00       OVERS/UNDERS                         0.00       AIRTIME CASH SALES                   0.00       GIFT CARDS                           0.00       GIFT CARD CASH SALES                 0.00       CASUAL WAGES                       147.40       T O T A L  CASH PAYOUTS            147.40                                                                                                                                                                                                                                                                                                      Z
M17021392                              CASH        JTABSENT                                                                                                                                                                                          ANNUAL LEAVE                                                                                                                                                                                    DAY OFF                                                                                                                                                                                         COMMENTS                                                                                                                                                                                                                                                                                                                                                                                       Z
Y17021300                                          JT00000000474120+000045
ZJT17021319553 SLAVE 1      SALES DATA                     NEXT INVOICE NO.  104478 0666
X JT Slave 1 First invoice 104432 170213 Last invoice 104477 170213 Next invoice 104478 Total number of records 000000194 clbackup completed 19:55:37
