202187000202187               202187               170213JT     1400+00000+JT0000000000+0000000000+000000000+000000000+0000000000+0000000000+I20000000000+0000000000+Z
202187001202187049-001820     202187006003000019311DOORMAT RUBBER MOULDED 0000001000-00007893+00000+0001T   00007893+0000000915          1400 WY65101IC            2 Z
202187002202187049-001820     202187006003000019311DOORMAT RUBBER MOULDED 0000001000+00007893+00000+0001T   00007893+0000000915          1400 WY65101IC            2 Z
202188000202188               202188               170213JT     1400+00000+JT0000018987+0000018987+000000000+000002661+0000021648+0000000000+I40000021648+0000000000+Z
202188001202188007-000552     202188006001023848086NOTE-CASE 200 MEMO SHTS0000002000+00003069+00000+0001T   00003069+0000000922          1400 WY6130               2AZ
202188002202188566-001228     202188006003000284153STICKERS CRYSTAL ASSTD 0000001000+00001753+00000+0001T   00001753+0000000922          1400 WY6130               2AZ
202188003202188566-001234     202188006003000217793STICKERS LASER ASSTD   0000002000+00001578+00000+0001T   00001578+0000000922          1400 WY6130               2AZ
202188004202188368-000152     202188006003000166886PLUSH BEAR 15cm        0000002000+00003946+00000+0001T   00005262+0008140922          1400 WY6745               2AZ
202188005202188112-116069     202188006009681820277TCS CARRIER BAG JUMBO  0000001000+00000048+00000+0001T   00000048+0000000922          1400 WY6090               2AZ
202189000202189               202189               170213JT     1400+00000+JT0000018616+0000018616+000000000+000002613+0000021229+0000000000+I40000021229+0000000000+Z
202189001202189105-001005     202189006001023858214CONTAINERS MINI 6PCE   0000002000+00001402+00000+0001T   00001402+0000000929          1400 WY6210               2AZ
202189002202189566-000344     202189006001023994806STICKER ALBUM+STICKERS 0000009000+00001753+00000+0001T   00001753+0000000929          1400 WY6130               2AZ
202189003202189112-116038     202189006009681820246TCS CARRIER BAG MIDI   0000001000+00000035+00000+0001T   00000035+0000000929          1400 WY6090               2AZ
202190000202190               202190               170213JT     1400+00000+JT0000005259+0000005259+000000000+000000738+0000005997+0000000000+I40000005997+0000000000+Z
202190001202190079-013032-A   202190006003000389322SEA WORLD STICKERS     0000001000+00001753+00000+0001T   00001753+0000000932          1400 WY6130               2AZ
202190002202190566-000344     202190006001023994806STICKER ALBUM+STICKERS 0000002000+00001753+00000+0001T   00001753+0000000932          1400 WY6130               2AZ
202191000202191               202191               170213JT     1400+00000+JT0000001490+0000001490+000000000+000000209+0000001690+0000000009+I20000000000+0000001690+Z
202191001202191077-000327     202191006001023677686GIFT-BAG 25X32CM E/D BA0000001000+00001490+00000+0001T   00001490+0000000946          1400 WY6112               2AZ
202192000202192               202192               170213JT     1400+00000+JT0000003028+0000003028+000000000+000000425+0000003450+0000000003+I20000000000+0000003450+Z
202192001202192077-000010-C   202192006001023123879CREPE-PAPER RED        0000001000+00000788+00000+0001T   00000788+0000000948          1400 WY6112               2AZ
202192002202192080-000127     202192006003000424351VALENTINES DAY 36x24CM 0000001000+00002192+00000+0001T   00002192+0000000948          1400 WY6112               2AZ
202192003202192112-116069     202192006009681820277TCS CARRIER BAG JUMBO  0000001000+00000048+00000+0001T   00000048+0000000948          1400 WY6090               2AZ
202193000202193               202193               170213JT     1400+00000+JT0000002630+0000002630+000000000+000000369+0000002999+0000000000+I40000002999+0000000000+Z
202193001202193251-000003     202193006003000266159TAPE D/S 18x300mm V/PCK0000001000+00002630+00000+0001T   00002630+0000000954          1400 WY6810               2AZ
202194000202194               202194               170213JT     1400+00000+JT0000004383+0000004383+000000000+000000615+0000004998+0000000000+I40000004998+0000000000+Z
202194001202194072-020302     202194006001023858818PET-DOG STICK/RING 24cm0000001000+00002630+00000+0001T   00002630+0000000957          1400 WY6870               2AZ
202194002202194072-020353     202194006001023598097DOG/CAT-BOWL 17cm      0000001000+00001753+00000+0001T   00001753+0000000957          1400 WY6870               2AZ
202195000202195               202195               170213JT     1400+00000+JT0000008770+0000008770+000000000+000001228+0000009998+0000000000+I40000009998+0000000000+Z
202195001202195174-000173     202195006001023905307STORAGE-BOX COLLAPSIBLE0000002000+00004385+00000+0001T   00004385+0000001000          1400 WY6205               2AZ
202196000202196               202196               170213JT     1400+00000+JT0000002103+0000002103+000000000+000000295+0000002390+0000000008+I20000000000+0000002390+Z
202196001202196031-000878-A   202196006001023798985P/FRAME 10x15cm PL-SLID0000001000+00000876+00000+0001T   00000876+0000001004          1400 WY6510               2AZ
202196002202196031-005815     202196009320760100019P/FRAME-CLIP 10x15cm   0000001000+00001227+00000+0001T   00001227+0000001004          1400 WY6510               2AZ
202197000202197               202197               170213JT     1400+00000+JT0000003507+0000003507+000000000+000000491+0000003990+0000000008+I20000000000+0000003990+Z
202197001202197162-010768     202197006001492107684#TAG LDS SQ HOOPS 2PK  0000001000+00003507+00000+0001T   00003507+0000001017          1400 WY6160               2AZ
202198000202198               202198               170213JT     1400+00000+JT0000002665+0000002665+000000000+000000374+0000003039+0000000000+I40000003039+0000000000+Z
202198001202198002-000016     202198006001023760173CAPPUCCINO-FROTHER B/O 0000001000+00002630+00000+0001T   00002630+0000001021          1400 WY6300               2AZ
202198002202198112-116038     202198006009681820246TCS CARRIER BAG MIDI   0000001000+00000035+00000+0001T   00000035+0000001021          1400 WY6090               2AZ
202199000202199               202199               170213JT     1400+00000+JT0000005699+0000005699+000000000+000000799+0000006498+0000000000+I40000006498+0000000000+Z
202199001202199365-003056     202199006009635021453KIDDIES WOODEN BROOM   0000001000+00003069+00000+0001T   00003069+0000001037          1400 WY6725               2AZ
202199002202199466-006134     202199006001023647658GOLF-SET PL 3PCE       0000001000+00002630+00000+0001T   00002630+0000001037          1400 WY6785               2AZ
202200000202200               202200               170213JT     1400+00000+JT0000001051+0000001051+000000000+000000148+0000001190+0000000009+I20000000000+0000001190+Z
202200001202200079-009702-D   202200008427973059354PAPER SIRIO A2 RED COL 0000001000+00001051+00000+0001T   00001051+0000001040          1400 WY6130               2AZ
202201000202201               202201               170213JT     1400+00000+JT0000014907+0000014907+000000000+000002088+0000016995+0000000000+I40000016995+0000000000+Z
202201001202201079-014004     202201006003000080045ART+CRAFT JEWELRY ASSTD0000002000+00003507+00000+0001T   00003507+0000001055          1400 WY6130               2AZ
202201002202201466-002097     202201006003000646203DODGEBALL W/VELCRO VEST0000001000+00007893+00000+0001T   00007893+0000001055          1400 WY6785               2AZ
202202000202202               202202               170213JT     1400+00000+JT0000007187+0000007187+000000000+000001008+0000008195+0000000000+I40000008195+0000000000+Z
202202001202202368-000040     202202006003000671786PLUSH ICONS 7.5cm      0000002000+00002630+00000+0001T   00002630+0000001057          1400 WY6745               2AZ
202202002202202077-000318     202202006001023609755GIFT-BAG 18X23CM E/D AN0000001000+00001227+00000+0001T   00001227+0000001057          1400 WY6112               2AZ
202202003202202018-000177     202202006001023797513MUG MINI LOVE ASSTD    0000001000+00000700+00000+0001T   00000700+0000001057          1400 WY6515               2AZ
202203000202203               202203               170213JT     1400+00000+JT0000008378+0000008378+000000000+000001174+0000009552+0000000000+I40000009552+0000000000+Z
202203001202203486-002317     202203006001023847539W/CLOCK QTZ PL ASSTD   0000001000+00007016+00000+0001T   00008771+0008181123          1400 WY6510               2AZ
202203002202203046-000012     202203006904708013062BATTERIES AA  CARD-OF-40000001000+00001314+00000+0001T   00001314+0000001123          1400 WY6312               2AZ
202203003202203112-116069     202203006009681820277TCS CARRIER BAG JUMBO  0000001000+00000048+00000+0001T   00000048+0000001123          1400 WY6090               2AZ
202204000202204               202204               170213JT     1400+00000+JT0000001575+0000001575+000000000+000000222+0000001790+0000000007+I20000000000+0000001790+Z
202204001202204903-000077     202204006939873501687SWT GS MAGIC ROCK FRUIT0000003000+00000525+00000+0001T   00000525+0000001127          1400 WY6150               2AZ
202205000202205               202205               170213JT     1400+00000+JT0000002630+0000002630+000000000+000000369+0000002990+0000000009+I20000000000+0000002990+Z
202205001202205079-000270     202205006001023886071ARTIST APRON-SET 3PCE  0000001000+00002630+00000+0001T   00002630+0000001128          1400 WY6130               2AZ
202206000202206               202206               170213JT     1400+00000+JT0000009254+0000009254+000000000+000001296+0000010550+0000000000+I40000010550+0000000000+Z
202206001202206200-000105     202206006003000199693PICNIC CUPS PL 40PCE   0000002000+00003507+00000+0001T   00003507+0000001131          1400 WY6214               2AZ
202206002202206200-000200     202206006008766091144BAKING ALUM FOIL 2PCE  0000001000+00002192+00000+0001T   00002192+0000001131          1400 WY6214               2AZ
202206003202206112-116069     202206006009681820277TCS CARRIER BAG JUMBO  0000001000+00000048+00000+0001T   00000048+0000001131          1400 WY6090               2AZ
202207000202207               202207               170213JT     1400+00000+JT0000010553+0000010553+000000000+000001481+0000012034+0000000000+I40000012034+0000000000+Z
202207001202207206-000135     202207006003000680450T/BAG HLDR SILICONE    0000006000+00001753+00000+0001T   00001753+0000001145          1400 WY6321               2AZ
202207002202207112-116038     202207006009681820246TCS CARRIER BAG MIDI   0000001000+00000035+00000+0001T   00000035+0000001145          1400 WY6090               2AZ
202208000202208               202208               170213JT     1400+00000+JT0000001753+0000001753+000000000+000000246+0000001990+0000000009+I20000000000+0000001990+Z
202208001202208200-003026     202208006003000276448REFUSE BAGS 10PCE GREEN0000001000+00001753+00000+0001T   00001753+0000001145          1400 WY6214               2AZ
202209000202209               202209               170213JT     1400+00000+JT0000001753+0000001753+000000000+000000246+0000001999+0000000000+I40000001999+0000000000+Z
202209001202209200-003024     202209006001023657299REFUSE BAGS 20PCE BLACK0000001000+00001753+00000+0001T   00001753+0000001154          1400 WY6214               2AZ
202210000202210               202210               170213JT     1400+00000+JT0000004822+0000004822+000000000+000000676+0000005498+0000000000+I40000005498+0000000000+Z
202210001202210159-000103     202210006001023890214SHOWER CADDY PL-COATED 0000001000+00003946+00000+0001T   00003946+0000001155          1400 WY6200               2AZ
202210002202210089-000192-A   202210006001023901774KEY-CHAIN ACRYLIC      0000001000+00000876+00000+0001T   00000876+0000001155          1400 WY6205               2AZ
202211000202211               202211               170213JT     1400+00000+JT0000004385+0000004385+000000000+000000614+0000004990+0000000009+I20000000000+0000004990+Z
202211001202211082-007584     202211006003000653973SUNGLASS DESIGNER ASST 0000001000+00004385+00000+0001T   00004385+0000001201          1400 WY6160               2AZ
202212000202212               202212               170213JT     1400+00000+JT0000003945+0000003945+000000000+000000553+0000004498+0000000000+I40000004498+0000000000+Z
202212001202212566-000951     202212006003000217670STICKERS 3 STYLES ASSTD0000001000+00002192+00000+0001T   00002192+0000001219          1400 WY6130               2AZ
202212002202212566-000055     202212006003000661268STICKER DRESS UP GIRL  0000001000+00001753+00000+0001T   00001753+0000001219          1400 WY6130               2AZ
202213000202213               202213               170213JT     1400+00000+JT0000020607+0000020607+000000000+000002887+0000023490+0000000004+I20000000000+0000023490+Z
202213001202213106-001119     202213006003000449972WATER BOTTLE ALUM 750ml0000001000+00003946+00000+0001T   00005262+0008171220          1400 WY6210               2AZ
202213002202213466-002096     202213006001023800398CATCHBALL VELCRO W/BALL0000001000+00005262+00000+0001T   00005262+0000001220          1400 WY6785               2AZ
202213003202213071-003043     202213006003000143948PEN CALIGRAPHY SET 8PCE0000001000+00003507+00000+0001T   00003507+0000001220          1400 WY6130               2AZ
202213004202213079-003020     202213006003000662944PAINT ACRYLIC SET TUBE 0000001000+00005262+00000+0001T   00005262+0000001220          1400 WY6130               2AZ
202213005202213079-000020     202213006003000590889PENCIL DOUBLE ENDED    0000001000+00002630+00000+0001T   00002630+0000001220          1400 WY6130               2AZ
202214000202214               202214               170213JT     1400+00000+JT0000029902+0000029902+000000000+000004190+0000034092+0000000000+I40000034092+0000000000+Z
202214001202214024-000113     202214006001023422194C/PAN N/STICK 20X4.5CM 0000002000+00004823+00000+0001T   00004823+0000001222          1400 WY6300               2AZ
202214002202214002-000741     202214006001023124777GRATER MINI W/CONTAINER0000001000+00001490+00000+0001T   00001490+0000001222          1400 WY6300               2AZ
202214003202214466-006135     202214006001023669049GOLF-SET PLASTIC       0000001000+00008771+00000+0001T   00008771+0000001222          1400 WY6785               2AZ
202214004202214024-000113     202214006001023422194C/PAN N/STICK 20X4.5CM 0000001000+00004823+00000+0001T   00004823+0000001222          1400 WY6300               2AZ
202214005202214150-003733     202214006003000561735SINK STRAINER S/S 1PCE 0000002000+00001490+00000+0001T   00001490+0000001222          1400 WY6810               2AZ
202214006202214566-000352     202214006001023809261STICKERS LASER ASSTD   0000001000+00002192+00000+0001T   00002192+0000001222          1400 WY6130               2AZ
202215000202215               202215               170213JT     1400+00000+JT0000019945+0000019945+000000000+000002797+0000022742+0000000000+I40000022742+0000000000+Z
202215001202215368-000175     202215006003000270316PLUSH BEAR 4 ASSTD 18CM0000001000+00006139+00000+0001T   00006139+0000001224          1400 WY6745               2AZ
202215002202215077-000303     202215006001023593757GIFT-BAG PAPER MED     0000001000+00001578+00000+0001T   00001578+0000001224          1400 WY6112               2AZ
202215003202215903-000194     202215006009826020616SWT CHOC RP LOLLY 25G  0000001000+00001314+00000+0001T   00001314+0000001224          1400 WY6150               2AZ
202215004202215565-000043     202215006003000109562NOVELTY BALL FUNNY FACE0000001000+00001753+00000+0001T   00001753+0000001224          1400 WY6745               2AZ
202215005202215903-000518     202215006001704012782SWT STRAWS S/BERRY 100g0000001000+00001227+00000+0001T   00001227+0000001224          1400 WY6150               2AZ
202215006202215206-000620     202215006003000631797BACK SCRATCHER EXTEND  0000001000+00002630+00000+0001T   00002630+0000001224          1400 WY6321               2AZ
202215007202215112-116069     202215006009681820277TCS CARRIER BAG JUMBO  0000001000+00000048+00000+0001T   00000048+0000001224          1400 WY6090               2AZ
202215008202215903-000295     202215006001704002899SWT MS FRUITY RASCALS  0000006000+00000876+00000+0001T   00000876+0000001224          1400 WY6150               2AZ
202216000202216               202216               170213JT     1400+00000+JT0000011402+0000011402+000000000+000001597+0000012999+0000000000+I40000012999+0000000000+Z
202216001202216024-000122     202216006003000240746NON-STICK CUP CAKE PAN 0000001000+00011402+00000+0001T   00011402+0000001243          1400 WY6300               2AZ
202217000202217               202217               170213JT     1400+00000+JT0000009204+0000009204+000000000+000001291+0000010495+0000000000+I40000010495+0000000000+Z
202217001202217566-000535     202217006003000284719STICKER SPARKLE EMBOSS 0000004000+00001753+00000+0001T   00001753+0000001308          1400 WY6130               2AZ
202217002202217566-000352     202217006001023809261STICKERS LASER ASSTD   0000001000+00002192+00000+0001T   00002192+0000001308          1400 WY6130               2AZ
202218000202218               202218               170213JT     1400+00000+JT0000006139+0000006139+000000000+000000860+0000006990+0000000009+I20000000000+0000006990+Z
202218001202218018-050000     202218006003000412679MUG OCC LOVE TWIN BEAR 0000001000+00006139+00000+0001T   00006139+0000001309          1400 WY6515               2AZ
202219000202219               202219               170213JT     1400+00000+JT0000003069-0000003069-000000000+000000430-0000003500-0000000001+I20000000000+0000003500-Z
202219001202219002-000885     202219006001023172655CAN-OPENER 3-ASST COL  0000001000-00003069+00000+0001T   00003069+0000001311          1400 AR73003IC            2 Z
202220000202220               202220               170213JT     1400+00000+JT0000007941+0000007941+000000000+000001113+0000009054+0000000000+I40000009054+0000000000+Z
202220001202220304-001114     202220006001023738219FLWR BUNCH ROSES/LILY  0000001000+00007893+00000+0001T   00007893+0000001321          1400 WY6510               2AZ
202220002202220112-116069     202220006009681820277TCS CARRIER BAG JUMBO  0000001000+00000048+00000+0001T   00000048+0000001321          1400 WY6090               2AZ
202221000202221               202221               170213JT     1400+00000+JT0000006618+0000006618+000000000+000000929+0000007547+0000000000+I40000007547+0000000000+Z
202221001202221077-000457     202221006003000285662G/BAG METALLIC JMB SOL 0000001000+00001753+00000+0001T   00001753+0000001325          1400 WY6112               2AZ
202221002202221077-000302     202221008010410010195GIFT-BAG 18X23CM E/D   0000002000+00000876+00000+0001T   00000876+0000001325          1400 WY6112               2AZ
202221003202221903-000844     202221005010478432567SWT CANDY DL LUV HEARTS0000001000+00001314+00000+0001T   00001314+0000001325          1400 WY6150               2AZ
202221004202221903-000070     202221006001704001106SWT TOFFEE CREAMY 35g  0000001000+00000700+00000+0001T   00000700+0000001325          1400 WY6150               2AZ
202221005202221903-002892     202221008935001721338MENTOS JUICEBLAST BERRY0000001000+00001051+00000+0001T   00001051+0000001325          1400 WY6150               2AZ
202221006202221112-116069     202221006009681820277TCS CARRIER BAG JUMBO  0000001000+00000048+00000+0001T   00000048+0000001325          1400 WY6090               2AZ
202222000202222               202222               170213JT     1400+00000+JT0000001450+0000001450+000000000+000000204+0000001650+0000000004+I20000000000+0000001650+Z
202222001202222107-002100     202222006002638001354BASIN PL 36cm          0000001000+00001402+00000+0001T   00001402+0000001326          1400 WY6210               2AZ
202222002202222112-116069     202222006009681820277TCS CARRIER BAG JUMBO  0000001000+00000048+00000+0001T   00000048+0000001326          1400 WY6090               2AZ
202223000202223               202223               170213JT     1400+00000+JT0000001314+0000001314+000000000+000000184+0000001490+0000000008+I20000000000+0000001490+Z
202223001202223080-000114     202223006003000246472CARD&ENV LOVE-MUSICAL  0000001000+00001314+00000+0001T   00001753+0008151328          1400 WY6112               2AZ
202224000202224               202224               170213JT     1400+00000+JT0000001578+0000001578+000000000+000000221+0000001790+0000000009+I20000000000+0000001790+Z
202224001202224077-000303     202224006001023593757GIFT-BAG PAPER MED     0000001000+00001578+00000+0001T   00001578+0000001349          1400 WY6112               2AZ
202225000202225               202225               170213JT     1400+00000+JT0000005085+0000005085+000000000+000000712+0000005797+0000000000+I40000005797+0000000000+Z
202225001202225018-000136     202225006001023659026MUG OCC LOVE W/PLUSH   0000001000+00003507+00000+0001T   00003507+0000001400          1400 WY6515               2AZ
202225002202225077-000303     202225006001023593757GIFT-BAG PAPER MED     0000001000+00001578+00000+0001T   00001578+0000001400          1400 WY6112               2AZ
202226000202226               202226               170213JT     1400+00000+JT0000001525+0000001525+000000000+000000214+0000001730+0000000009+I20000000000+0000001730+Z
202226001202226077-000452     202226006003000284986G/BAG METALLIC MED EMB 0000001000+00001490+00000+0001T   00001490+0000001405          1400 WY6112               2AZ
202226002202226112-116038     202226006009681820246TCS CARRIER BAG MIDI   0000001000+00000035+00000+0001T   00000035+0000001405          1400 WY6090               2AZ
202227000202227               202227               170213JT     1400+00000+JT0000010082+0000010082+000000000+000001413+0000011490+0000000005+I20000000000+0000011490+Z
202227001202227001-000175     202227006001023788108B/MUG GLS LOVE 380ML   0000001000+00004385+00000+0001T   00004385+0000001438          1400 WY6515               2AZ
202227002202227077-000310     202227006001023608635GIFT-BAG 18X23CM GLOSS 0000001000+00001314+00000+0001T   00001314+0000001438          1400 WY6112               2AZ
202227003202227039-000026     202227006001023551610C/TAPERED 25CM M/RED   0000001000+00001051+00000+0001T   00001051+0000001438          1400 WY6510               2AZ
202227004202227077-000115     202227006001023834225WRAP METALLIC 700mmx1m 0000001000+00001753+00000+0001T   00001753+0000001438          1400 WY6112               2AZ
202227005202227077-000235     202227006003000160211GIFT-RIBBON ROLL METALC0000001000+00002630+00000+0001T   00002630+0000001438          1400 WY6112               2AZ
202227006202227039-000026     202227006001023551610C/TAPERED 25CM M/RED   0000001000-00001051+00000+0001T   00001051+0000001438          1400 WY65103IC            2 Z
202228000202228               202228               170213JT     1400+00000+JT0000003503+0000003503+000000000+000000493+0000003996+0000000000+I40000003996+0000000000+Z
202228001202228077-000011-D   202228006001023808554TISSUE-WRAP WHITE 10PCE0000001000+00000876+00000+0001T   00000876+0000001452          1400 WY6112               2AZ
202228002202228080-000133-A   202228006003000647019MINI VALENTINES CARD   0000002000+00000437+00000+0001T   00000437+0000001452          1400 WY6112               2AZ
202228003202228077-000309     202228006001023608604GIFT-BAG 25X32CM GLOSS 0000001000+00001753+00000+0001T   00001753+0000001452          1400 WY6112               2AZ
202229000202229               202229               170213JT     1400+00000+JT0000001753+0000001753+000000000+000000246+0000001990+0000000009+I20000000000+0000001990+Z
202229001202229080-000113     202229006003000237449CARD&ENVLPE - LOVE     0000001000+00001753+00000+0001T   00001753+0000001453          1400 WY6112               2AZ
202230000202230               202230               170213JT     1400+00000+JT0000001490+0000001490+000000000+000000209+0000001690+0000000009+I20000000000+0000001690+Z
202230001202230077-000299     202230006003000395576G/BAG 32x25cm LRG LOVE 0000001000+00001490+00000+0001T   00001490+0000001453          1400 WY6112               2AZ
202231000202231               202231               170213JT     1400+00000+JT0000000000+0000000000+000000000+000000000+0000000000+0000000000+I20000000000+0000000000+Z
202231001202231018-005009     202231006001023725608MUG W/PLUSH-BEAR LOVE  0000001000-00003507+00000+0001T   00003507+0000001455          1400 WY65153IC            2 Z
202231002202231018-005009     202231006001023725608MUG W/PLUSH-BEAR LOVE  0000001000+00003507+00000+0001T   00003507+0000001455          1400 WY65153IC            2 Z
202232000202232               202232               170213JT     1400+00000+JT0000000002-0000000002-000000000+000000001-0000000010-0000000007+I20000000000+0000000010-Z
202232001202232267-000410     202232005011874004624PUZZLE 4-IN-1 MINI ASST0000001000-00007016+00000+0001T   00007016+0000001455          1400 WY67551IC            2 Z
202232002202232267-006055     202232000047754288506PUZZLE LICENSED FROZEN 0000001000+00003507+00000+0001T   00003507+0000001455          1400 WY6755               2 Z
202232003202232018-005009     202232006001023725608MUG W/PLUSH-BEAR LOVE  0000001000+00003507+00000+0001T   00003507+0000001455          1400 WY6515               2 Z
202233000202233               202233               170213JT     1400+00000+JT0000020516+0000020516+000000000+000002876+0000023392+0000000000+I40000023392+0000000000+Z
202233001202233071-081103     202233006003000197002GLUE STICKS LIQUID 3PCE0000001000+00001753+00000+0001T   00001753+0000001500          1400 WY6130               2AZ
202233002202233261-003899     202233006003000398836GUN CROSSBOW SET 11PCE 0000001000+00006139+00000+0001T   00006139+0000001500          1400 WY6710               2AZ
202233003202233007-000893-17  202233006003000646449DIARY A5 PAGE 2017     0000001000+00006139+00000+0001T   00006139+0000001500          1400 WY6130               2AZ
202233004202233071-081091     202233006001151010287STAED/GENKEM ALL-STICK 0000001000+00001227+00000+0001T   00001227+0000001500          1400 WY6130               2AZ
202233005202233105-001010     202233006002580007329LUNCH-BOX 1L  ASSTD    0000002000+00000876+00000+0001T   00000876+0000001500          1400 WY6210               2AZ
202233006202233077-000011-D   202233006001023808554TISSUE-WRAP WHITE 10PCE0000001000+00000876+00000+0001T   00000876+0000001500          1400 WY6112               2AZ
202233007202233007-000534     202233006001023847836NOTE-BOOK H/C ASSTD    0000001000+00002630+00000+0001T   00002630+0000001500          1400 WY6130               2AZ
202234000202234               202234               170213JT     1400+00000+JT0000005032+0000005032+000000000+000000705+0000005730+0000000007+I20000000000+0000005730+Z
202234001202234077-000399     202234006003000139514GIFT BAG 18X23CM E/DAY 0000001000+00001490+00000+0001T   00001490+0000001503          1400 WY6112               2AZ
202234002202234018-000136     202234006001023659026MUG OCC LOVE W/PLUSH   0000001000+00003507+00000+0001T   00003507+0000001503          1400 WY6515               2AZ
202234003202234112-116038     202234006009681820246TCS CARRIER BAG MIDI   0000001000+00000035+00000+0001T   00000035+0000001503          1400 WY6090               2AZ
202235000202235               202235               170213JT     1400+00000+JT0000000700+0000000700+000000000+000000098+0000000790+0000000008+I20000000000+0000000790+Z
202235001202235018-000177     202235006001023797513MUG MINI LOVE ASSTD    0000001000+00000700+00000+0001T   00000700+0000001503          1400 WY6515               2AZ
202236000202236               202236               170213JT     1400+00000+JT0000003507+0000003507+000000000+000000491+0000003998+0000000000+I40000003998+0000000000+Z
202236001202236004-071206     202236006003000605156USB CABLE CHARGER      0000001000+00003507+00000+0001T   00003507+0000001552          1400 WY6310               2AZ
202237000202237               202237               170213JT     1400+00000+JT0000004385+0000004385+000000000+000000614+0000004999+0000000000+I40000004999+0000000000+Z
202237001202237001-000175     202237006001023788108B/MUG GLS LOVE 380ML   0000001000+00004385+00000+0001T   00004385+0000001553          1400 WY6515               2AZ
202238000202238               202238               170213JT     1400+00000+JT0000001753+0000001753+000000000+000000246+0000001999+0000000000+I40000001999+0000000000+Z
202238001202238301-085002     202238006003000420704ORN OCC. LOVE BELL ASST0000001000+00001753+00000+0001T   00002630+0008121604          1400 WY6505               2AZ
202239000202239               202239               170213JT     1400+00000+JT0000001490+0000001490+000000000+000000209+0000001690+0000000009+I20000000000+0000001690+Z
202239001202239077-000299     202239006003000395576G/BAG 32x25cm LRG LOVE 0000001000+00001490+00000+0001T   00001490+0000001605          1400 WY6112               2AZ
202240000202240               202240               170213JT     1400+00000+JT0000007715+0000007715+000000000+000001082+0000008790+0000000007+I20000000000+0000008790+Z
202240001202240079-000344     202240006001023904010FELT-TIP PENS 12PCE    0000001000+00002630+00000+0001T   00002630+0000001605          1400 WY6130               2AZ
202240002202240079-000020     202240006003000590889PENCIL DOUBLE ENDED    0000001000+00002630+00000+0001T   00002630+0000001605          1400 WY6130               2AZ
202240003202240079-000510     202240006001023509079CRAYONS WAX 12-COLOUR  0000001000+00002455+00000+0001T   00002455+0000001605          1400 WY6130               2AZ
202241000202241               202241               170213JT     1400+00000+JT0000000876+0000000876+000000000+000000123+0000000990+0000000009+I20000000000+0000000990+Z
202241001202241039-000319-3   202241006003000442621B/CANDLES LRG NUMBER-3 0000001000+00000876+00000+0001T   00000876+0000001616          1400 WY6510               2AZ
202242000202242               202242               170213JT     1400+00000+JT0000013154+0000013154+000000000+000001842+0000014996+0000000000+I40000014996+0000000000+Z
202242001202242016-009604     202242006001023519559SHAKERS 2PC COW-DESIGNS0000001000+00003507+00000+0001T   00003507+0000001620          1400 WY6300               2AZ
202242002202242016-006500     202242006003000618460S/JAR GLS HERMETICO    0000001000+00004385+00000+0001T   00004385+0000001620          1400 WY6300               2AZ
202242003202242158-000167     202242006003000569588WASTEPAPER-BASKET 26cm 0000001000+00005262+00000+0001T   00005262+0000001620          1400 WY6300               2AZ
202243000202243               202243               170213JT     1400+00000+JT0000003980+0000003980+000000000+000000558+0000004538+0000000000+I40000004538+0000000000+Z
202243001202243050-000363-Z   202243006001023475282PADLOCK IRON 32mm CARD 0000001000+00002192+00000+0001T   00002192+0000001626          1400 WY6855               2AZ
202243002202243007-000551     202243006001023848079NOTE-PAD SHOP-LIST ASST0000001000+00001753+00000+0001T   00001753+0000001626          1400 WY6130               2AZ
202243003202243112-116038     202243006009681820246TCS CARRIER BAG MIDI   0000001000+00000035+00000+0001T   00000035+0000001626          1400 WY6090               2AZ
202244000202244               202244               170213JT     1400+00000+JT0000008771+0000008771+000000000+000001228+0000009999+0000000000+I40000009999+0000000000+Z
202244001202244001-091415     202244006003000329113W/GLS OCC. LOVE 2PC 2800000001000+00008771+00000+0001T   00009648+0006471631          1400 WY6515               2AZ
202245000202245               202245               170213JT     1400+00000+JT0000003507+0000003507+000000000+000000491+0000003990+0000000008+I20000000000+0000003990+Z
202245001202245031-000002     202245006001023851338FRAME FRIENDS 7.5x7.5cm0000001000+00003507+00000+0001T   00003507+0000001632          1400 WY6510               2AZ
202246000202246               202246               170213JT     1400+00000+JT0000002628+0000002628+000000000+000000369+0000002990+0000000007+I20000000000+0000002990+Z
202246001202246108-004035     202246006001023669469PLATE PS 20cm-DIAMETER 0000002000+00000876+00000+0001T   00000876+0000001731          1400 WY6210               2AZ
202246002202246004-071216     202246006003000239900MOBILE PHONE CHARM ASST0000001000+00000876+00000+0001T   00000876+0000001731          1400 WY6310               2AZ
202247000202247               202247               170213JT     1400+00000+JT0000001050+0000001050+000000000+000000148+0000001190+0000000008+I20000000000+0000001190+Z
202247001202247903-000151     202247006009803374411SWT SML RND R/BOW LOLLY0000002000+00000525+00000+0001T   00000525+0000001736          1400 WY6150               2AZ
A17021300                                          09361779JTSLAVE 2                       WY63IC
A17021301                                          10183253JTSLAVE 2                       WY61IC
M17021391                              CASH        JTSLAVE 2                       Z-REPORT No.   641TOTAL (Sales - Refunds)           4158.00       CASH TO BE BANKED                  994.30       DEBIT CARDS                          0.00       CREDIT CARDS                      3163.70       Z-READING                         4158.00       AIRTIME DEBIT CARD SALES             0.00       AIRTIME CARD SALES                   0.00       OVERS/UNDERS                         0.00       AIRTIME CASH SALES                   0.00       GIFT CARDS                           0.00       GIFT CARD CASH SALES                 0.00       T O T A L  CASH PAYOUTS              0.00                                                                                                                                                                                                                                                                                                                                                      Z
M17021392                              CASH        JTABSENT                                                                                                                                                                                          ANNUAL LEAVE                                                                                                                                                                                    DAY OFF                                                                                                                                                                                         COMMENTS                                                                                                                                                                                                                                                                                                                                                                                       Z
Y17021300                                          JT00000000387397+000060
ZJT17021319553 SLAVE 2      SALES DATA                     NEXT INVOICE NO.  202248 0641
X JT Slave 2 First invoice 202187 170213 Last invoice 202247 170213 Next invoice 202248 Total number of records 000000203 clbackup completed 19:55:33
