309674000309674               309674               170213JT     1400+00000+JT0000026824+0000026824+000000000+000003763+0000030587+0000000000+I40000030587+0000000000+Z
309674001309674079-006496     309674006003000160105GLITTER SHAKERS        0000003000+00001753+00000+0001T   00001753+0000000920          1400 SB3130               3AZ
309674002309674079-009702-B   309674008427973059491PAPER SIRIO A2 WHITE   0000001000+00001051+00000+0001T   00001051+0000000920          1400 SB3130               3AZ
309674003309674079-006495     309674006003000159987GLITTER SHAKERS 6PK    0000002000+00002630+00000+0001T   00002630+0000000920          1400 SB3130               3AZ
309674004309674112-116069     309674006009681820277TCS CARRIER BAG JUMBO  0000001000+00000048+00000+0001T   00000048+0000000920          1400 SB3090               3AZ
309674005309674368-000614     309674006001023705808PLUSH LOVE 30cm        0000001000+00008771+00000+0001T   00008771+0000000920          1400 SB3745               3AZ
309674006309674077-000011-C   309674006001023808523TISSUE 10xSHTS RED     0000001000+00000876+00000+0001T   00000876+0000000920          1400 SB3112               3AZ
309674007309674071-081091     309674006001151010287STAED/GENKEM ALL-STICK 0000001000+00001227+00000+0001T   00001227+0000000920          1400 SB3130               3AZ
309674008309674079-009700-C   309674006003000545636PAPER SIRIO A4 VIOLET  0000003000+00000306+00000+0001T   00000306+0000000920          1400 SB3130               3AZ
309674009309674079-009700-L   309674006003000546350PAPER SIRIO A4 YELLOW  0000001000+00000306+00000+0001T   00000306+0000000920          1400 SB3130               3AZ
309674010309674079-009700-I   309674006003000546114PAPER SIRIO A4 LILAC   0000001000+00000306+00000+0001T   00000306+0000000920          1400 SB3130               3AZ
309674011309674079-009700-F   309674006003000545872PAPER SIRIO A4 TURQ COL0000001000+00000306+00000+0001T   00000306+0000000920          1400 SB3130               3AZ
309674012309674079-009700-D   309674006003000545711PAPER SIRIO A4 RED COL.0000001000+00000306+00000+0001T   00000306+0000000920          1400 SB3130               3AZ
309674013309674077-000309     309674006001023608604GIFT-BAG 25X32CM GLOSS 0000001000+00001753+00000+0001T   00001753+0000000920          1400 SB3112               3AZ
309674014309674080-000133-A   309674006003000647019MINI VALENTINES CARD   0000001000+00000437+00000+0001T   00000437+0000000920          1400 SB3112               3AZ
309675000309675               309675               170213JT     1400+00000+JT0000004646+0000004646+000000000+000000651+0000005290+0000000007+I20000000000+0000005290+Z
309675001309675251-000041     309675006001023515889SEAL-TAPE BUFF 48mmx50m0000002000+00001227+00000+0001T   00001227+0000001043          1400 SB3810               3AZ
309675002309675033-006004     309675006001023703316SEWING-KIT IN-POUCH    0000001000+00002192+00000+0001T   00002192+0000001043          1400 SB3200               3AZ
309676000309676               309676               170213JT     1400+00000+JT0000004734+0000004734+000000000+000000663+0000005390+0000000007+I20000000000+0000005390+Z
309676001309676077-000318     309676006001023609755GIFT-BAG 18X23CM E/D AN0000001000+00001227+00000+0001T   00001227+0000001048          1400 SB3112               3AZ
309676002309676018-000136     309676006001023659026MUG OCC LOVE W/PLUSH   0000001000+00003507+00000+0001T   00003507+0000001048          1400 SB3515               3AZ
309677000309677               309677               170213JT     1400+00000+JT0000007276+0000007276+000000000+000001020+0000008290+0000000006+I20000000000+0000008290+Z
309677001309677565-000043     309677006003000109562NOVELTY BALL FUNNY FACE0000002000+00001753+00000+0001T   00001753+0000001051          1400 SB3745               3AZ
309677002309677566-000359     309677006003000582709STICKER BOOK LOVE SPARK0000001000+00002192+00000+0001T   00002192+0000001051          1400 SB3130               3AZ
309677003309677077-000303     309677006001023593757GIFT-BAG PAPER MED     0000001000+00001578+00000+0001T   00001578+0000001051          1400 SB3112               3AZ
309678000309678               309678               170213JT     1400+00000+JT0000004383+0000004383+000000000+000000615+0000004990+0000000008+I20000000000+0000004990+Z
309678001309678088-000084     309678006001023798060P/POURRI 120G ASSTD    0000001000+00001753+00000+0001T   00001753+0000001052          1400 SB3212               3AZ
309678002309678039-000504     309678006001023816290CANDLE VTV 4PC METALLIC0000001000+00002630+00000+0001T   00002630+0000001052          1400 SB3510               3AZ
309679000309679               309679               170213JT     1400+00000+JT0000000437+0000000437+000000000+000000062+0000000490+0000000009+I20000000000+0000000490+Z
309679001309679080-000133-A   309679006003000647019MINI VALENTINES CARD   0000001000+00000437+00000+0001T   00000437+0000001052          1400 SB3112               3AZ
309680000309680               309680               170213JT     1400+00000+JT0000013157-0000013157-000000000+000001842-0000015000-0000000001+I20000000000+0000015000-Z
309680001309680361-001190     309680006003000617685DOLL 19cm HOVER FAIRY  0000001000-00013157+00000+0001T   00013157+0000001055          1400 SB37253IC            3 Z
309681000309681               309681               170213JT     1400+00000+JT0000000613+0000000613+000000000+000000086+0000000690+0000000009+I20000000000+0000000690+Z
309681001309681200-000065     309681006001023323675DRINKING-STRAWS 38PCE  0000001000+00000613+00000+0001T   00000613+0000001055          1400 SB3214               3AZ
309682000309682               309682               170213JT     1400+00000+JT0000001753+0000001753+000000000+000000246+0000001990+0000000009+I20000000000+0000001990+Z
309682001309682080-000111     309682006003000252695CARD&ENVELPE - MUSICAL 0000001000+00001753+00000+0001T   00001753+0000001058          1400 SB3112               3AZ
309683000309683               309683               170213JT     1400+00000+JT0000002192+0000002192+000000000+000000307+0000002490+0000000009+I20000000000+0000002490+Z
309683001309683080-000127     309683006003000424351VALENTINES DAY 36x24CM 0000001000+00002192+00000+0001T   00002192+0000001101          1400 SB3112               3AZ
309684000309684               309684               170213JT     1400+00000+JT0000003243+0000003243+000000000+000000455+0000003690+0000000008+I20000000000+0000003690+Z
309684001309684079-000275     309684006003000160488PAINT-BRUSHES 6PCE PRO 0000001000+00001753+00000+0001T   00001753+0000001106          1400 SB3130               3AZ
309684002309684079-000512     309684006001023635853CRAYONS WAX 12-COLOUR  0000001000+00001490+00000+0001T   00001490+0000001106          1400 SB3130               3AZ
309685000309685               309685               170213JT     1400+00000+JT0000001753+0000001753+000000000+000000246+0000001990+0000000009+I20000000000+0000001990+Z
309685001309685200-003024     309685006001023657299REFUSE BAGS 20PCE BLACK0000001000+00001753+00000+0001T   00001753+0000001120          1400 SB3214               3AZ
309686000309686               309686               170213JT     1400+00000+JT0000033403+0000033403+000000000+000004680+0000038080+0000000003+I20000000000+0000038080+Z
309686001309686107-004510     309686006002580008968STEP-STOOL PL          0000001000+00005262+00000+0001T   00005262+0000001122          1400 SB3210               3AZ
309686002309686112-116069     309686006009681820277TCS CARRIER BAG JUMBO  0000001000+00000048+00000+0001T   00000048+0000001122          1400 SB3090               3AZ
309686003309686080-000127     309686006003000424351VALENTINES DAY 36x24CM 0000001000+00002192+00000+0001T   00002192+0000001122          1400 SB3112               3AZ
309686004309686031-000874-A   309686006001023798800P/FRAME WDN P/BOX 10X150000002000+00003946+00000+0001T   00003946+0000001122          1400 SB3510               3AZ
309686005309686031-000874-C   309686006001023798862P/FRAME WDN P/BOX 20X250000002000+00005700+00000+0001T   00005700+0000001122          1400 SB3510               3AZ
309686006309686079-000280     309686006003000160723PAINT READYMIX 6PCE    0000001000+00002630+00000+0001T   00002630+0000001122          1400 SB3130               3AZ
309686007309686566-000460     309686000721129024011STICKERS RUB-ON TRANSFR0000001000+00001314+00000+0001T   00001753+0008151122          1400 SB3130               3AZ
309686008309686079-001002     309686006003000448715CANVAS A4 WOOD MOUNTED 0000001000+00002630+00000+0001T   00002630+0000001122          1400 SB3130               3AZ
309686009309686112-116038     309686006009681820246TCS CARRIER BAG MIDI   0000001000+00000035+00000+0001T   00000035+0000001122          1400 SB3090               3AZ
309687000309687               309687               170213JT     1400+00000+JT0000004383+0000004383+000000000+000000615+0000004998+0000000000+I40000004998+0000000000+Z
309687001309687469-000012     309687006003000303335BUILDING BLOCKS RACERS 0000001000+00002630+00000+0001T   00002630+0000001126          1400 SB3755               3AZ
309687002309687566-000344     309687006001023994806STICKER ALBUM+STICKERS 0000001000+00001753+00000+0001T   00001753+0000001126          1400 SB3130               3AZ
309688000309688               309688               170213JT     1400+00000+JT0000033702+0000033702+000000000+000004729+0000038431+0000000000+I40000038431+0000000000+Z
309688001309688112-116069     309688006009681820277TCS CARRIER BAG JUMBO  0000001000+00000048+00000+0001T   00000048+0000001130          1400 SB3090               3AZ
309688002309688493-059010     309688000078257590100BEACH-BALL COLOR-PANELS0000022000+00001490+00000+0001T   00001490+0000001130          1400 SB3787               3AZ
309688003309688903-000885     309688008690997017147SWT L/BIRD CHOC BISCUIT0000002000+00000437+00000+0001T   00000437+0000001130          1400 SB3150               3AZ
309689000309689               309689               170213JT     1400+00000+JT0000011884+0000011884+000000000+000001666+0000013550+0000000000+I20000000000+0000013550+Z
309689001309689112-116069     309689006009681820277TCS CARRIER BAG JUMBO  0000001000+00000048+00000+0001T   00000048+0000001135          1400 SB3090               3AZ
309689002309689071-002999-A   309689006003000611577PEN STICKBALL 10PCE ASS0000001000+00001753+00000+0001T   00001753+0000001135          1400 SB3130               3AZ
309689003309689036-000610     309689006001023627230WASHING-PEGS PL PACK-240000001000+00001753+00000+0001T   00001753+0000001135          1400 SB3212               3AZ
309689004309689036-000400     309689006001023886132CLOTHES-DRYER PL 8-PEG 0000001000+00002192+00000+0001T   00002192+0000001135          1400 SB3212               3AZ
309689005309689004-071308     309689006001023640833HOLDER DISC ASSTC-C PK50000001000+00001753+00000+0001T   00002630+0008191135          1400 SB3310               3AZ
309689006309689159-003600     309689006001023606174TOILET-BRUSH W/STAND PL0000001000+00004385+00000+0001T   00004385+0000001135          1400 SB3200               3AZ
309690000309690               309690               170213JT     1400+00000+JT0000008799+0000008799+000000000+000001234+0000010033+0000000000+I40000010033+0000000000+Z
309690001309690080-000133     309690006003000535613CARD&ENV MINI ASTD DSGN0000002000+00000437+00000+0001T   00000437+0000001139          1400 SB3112               3AZ
309690002309690018-000136     309690006001023659026MUG OCC LOVE W/PLUSH   0000002000+00003507+00000+0001T   00003507+0000001139          1400 SB3515               3AZ
309690003309690077-000011-C   309690006001023808523TISSUE 10xSHTS RED     0000001000+00000876+00000+0001T   00000876+0000001139          1400 SB3112               3AZ
309690004309690112-116038     309690006009681820246TCS CARRIER BAG MIDI   0000001000+00000035+00000+0001T   00000035+0000001139          1400 SB3090               3AZ
309691000309691               309691               170213JT     1400+00000+JT0000003506+0000003506+000000000+000000491+0000003990+0000000007+I20000000000+0000003990+Z
309691001309691007-000214     309691006001023809322STICKERS ALPHA    SET-50000001000+00001314+00000+0001T   00001314+0000001142          1400 SB3130               3AZ
309691002309691031-000868-A   309691006001023798534P/FRAME PL BLCK 10X15CM0000001000+00002192+00000+0001T   00002192+0000001142          1400 SB3510               3AZ
309692000309692               309692               170213JT     1400+00000+JT0000000035+0000000035+000000000+000000005+0000000040+0000000000+I20000000000+0000000040+Z
309692001309692112-116038     309692006009681820246TCS CARRIER BAG MIDI   0000001000+00000035+00000+0001T   00000035+0000001143          1400 SB3090               3AZ
309693000309693               309693               170213JT     1400+00000+JT0000000000+0000000000+000000000+000000000+0000000000+0000000000+I20000000000+0000000000+Z
309693001309693077-000010-C   309693006001023123879CREPE-PAPER RED        0000001000-00000788+00000+0001T   00000788+0000001148          1400 SB31123IC            3 Z
309693002309693077-000010-C   309693006001023123879CREPE-PAPER RED        0000001000+00000788+00000+0001T   00000788+0000001148          1400 SB31123IC            3 Z
309694000309694               309694               170213JT     1400+00000+JT0000000876+0000000876+000000000+000000123+0000000990+0000000009+I20000000000+0000000990+Z
309694001309694077-000011-C   309694006001023808523TISSUE 10xSHTS RED     0000001000+00000876+00000+0001T   00000876+0000001148          1400 SB3112               3AZ
309695000309695               309695               170213JT     1400+00000+JT0000007488+0000007488+000000000+000001049+0000008530+0000000007+I20000000000+0000008530+Z
309695001309695031-000874-A   309695006001023798800P/FRAME WDN P/BOX 10X150000001000+00003946+00000+0001T   00003946+0000001149          1400 SB3510               3AZ
309695002309695031-000902-A   309695006001023726254P/FRAME WDN OAK 6X9CM  0000001000+00003507+00000+0001T   00003507+0000001149          1400 SB3510               3AZ
309695003309695112-116038     309695006009681820246TCS CARRIER BAG MIDI   0000001000+00000035+00000+0001T   00000035+0000001149          1400 SB3090               3AZ
309696000309696               309696               170213JT     1400+00000+JT0000011959+0000011959+000000000+000001676+0000013635+0000000000+I40000013635+0000000000+Z
309696001309696368-000152     309696006003000166886PLUSH BEAR 15cm        0000001000+00003946+00000+0001T   00005262+0008141155          1400 SB3745               3AZ
309696002309696077-000321     309696006001023677501GIFT-BAG 11X14CM E/D FL0000001000+00000613+00000+0001T   00000613+0000001155          1400 SB3112               3AZ
309696003309696077-000318     309696006001023609755GIFT-BAG 18X23CM E/D AN0000001000+00001227+00000+0001T   00001227+0000001155          1400 SB3112               3AZ
309696004309696031-000864-A   309696006001023798350P/FRAME MAHOGANY 10X15 0000001000+00003069+00000+0001T   00003069+0000001155          1400 SB3510               3AZ
309696005309696112-116038     309696006009681820246TCS CARRIER BAG MIDI   0000001000+00000035+00000+0001T   00000035+0000001155          1400 SB3090               3AZ
309696006309696016-006530     309696006003000456208S/JAR GLS COUNTER 2SIDE0000001000+00003069+00000+0001T   00003069+0000001155          1400 SB3300               3AZ
309697000309697               309697               170213JT     1400+00000+JT0000009692+0000009692+000000000+000001359+0000011051+0000000000+I40000011051+0000000000+Z
309697001309697112-116069     309697006009681820277TCS CARRIER BAG JUMBO  0000001000+00000048+00000+0001T   00000048+0000001201          1400 SB3090               3AZ
309697002309697018-019000     309697006003000557288MUG OCC. LOVE JUMBO    0000001000+00005262+00000+0001T   00005262+0000001201          1400 SB3515               3AZ
309697003309697039-000319-1   309697006003000442386B/CANDLES LRG NUMBER-1 0000001000+00000876+00000+0001T   00000876+0000001201          1400 SB3510               3AZ
309697004309697039-000319-8   309697006003000443222B/CANDLES LRG NUMBER-8 0000001000+00000876+00000+0001T   00000876+0000001201          1400 SB3510               3AZ
309697005309697080-000135     309697006003000591107CARD & ENV GIANT GIRL  0000001000+00002630+00000+0001T   00002630+0000001201          1400 SB3112               3AZ
309698000309698               309698               170213JT     1400+00000+JT0000001753+0000001753+000000000+000000246+0000001990+0000000009+I20000000000+0000001990+Z
309698001309698077-000328     309698006003000668939GIFT-BAG PAPER JMB     0000001000+00001753+00000+0001T   00001753+0000001203          1400 SB3112               3AZ
309699000309699               309699               170213JT     1400+00000+JT0000001139+0000001139+000000000+000000160+0000001290+0000000009+I20000000000+0000001290+Z
309699001309699046-000014     309699006001023725387BATTERIES SIZE:AAA 4PCE0000001000+00001139+00000+0001T   00001139+0000001204          1400 SB3312               3AZ
309700000309700               309700               170213JT     1400+00000+JT0000004420+0000004420+000000000+000000619+0000005030+0000000009+I20000000000+0000005030+Z
309700001309700031-000001-A   309700006003000246908P/FRAME GLS LOVE 9X13cm0000001000+00004385+00000+0001T   00004385+0000001232          1400 SB3510               3AZ
309700002309700112-116038     309700006009681820246TCS CARRIER BAG MIDI   0000001000+00000035+00000+0001T   00000035+0000001232          1400 SB3090               3AZ
309701000309701               309701               170213JT     1400+00000+JT0000000350+0000000350+000000000+000000049+0000000390+0000000009+I20000000000+0000000390+Z
309701001309701007-000167     309701006009685857347SPIRAL NOTES A7 72PG   0000001000+00000350+00000+0001T   00000350+0000001233          1400 SB3130               3AZ
309702000309702               309702               170213JT     1400+00000+JT0000014032+0000014032+000000000+000001966+0000015990+0000000008+I20000000000+0000015990+Z
309702001309702368-000637     309702006001023874092PLUSH BEAR SLEEPING LOV0000001000+00011402+00000+0001T   00012279+0006471234          1400 SB3745               3AZ
309702002309702077-000270     309702006003000395453GIFT-BAG PPR JMB 33X45 0000001000+00002630+00000+0001T   00002630+0000001234          1400 SB3112               3AZ
309703000309703               309703               170213JT     1400+00000+JT0000005734+0000005734+000000000+000000804+0000006538+0000000000+I40000006538+0000000000+Z
309703001309703018-000022     309703006001023648082MUG N/BONE 320ML BARREL0000001000+00002630+00000+0001T   00002630+0000001237          1400 SB3515               3AZ
309703002309703031-000864-A   309703006001023798350P/FRAME MAHOGANY 10X15 0000001000+00003069+00000+0001T   00003069+0000001237          1400 SB3510               3AZ
309703003309703112-116038     309703006009681820246TCS CARRIER BAG MIDI   0000001000+00000035+00000+0001T   00000035+0000001237          1400 SB3090               3AZ
309704000309704               309704               170213JT     1400+00000+JT0000001578+0000001578+000000000+000000221+0000001790+0000000009+I20000000000+0000001790+Z
309704001309704077-000303     309704006001023593757GIFT-BAG PAPER MED     0000001000+00001578+00000+0001T   00001578+0000001246          1400 SB3112               3AZ
309705000309705               309705               170213JT     1400+00000+JT0000008816+0000008816+000000000+000001236+0000010050+0000000002+I20000000000+0000010050+Z
309705001309705080-000136     309705006003000589036CARD & ENV GIANT MALE  0000001000+00002630+00000+0001T   00002630+0000001248          1400 SB3112               3AZ
309705002309705001-000175     309705006001023788108B/MUG GLS LOVE 380ML   0000001000+00004385+00000+0001T   00004385+0000001248          1400 SB3515               3AZ
309705003309705077-000382     309705006003000247820GIFT-BAG MED 18X23CM   0000001000+00001753+00000+0001T   00001753+0000001248          1400 SB3112               3AZ
309705004309705112-116069     309705006009681820277TCS CARRIER BAG JUMBO  0000001000+00000048+00000+0001T   00000048+0000001248          1400 SB3090               3AZ
309706000309706               309706               170213JT     1400+00000+JT0000000876+0000000876+000000000+000000123+0000000990+0000000009+I20000000000+0000000990+Z
309706001309706033-005930     309706006001023678423PINS STRAIGHT 20g  CARD0000001000+00000876+00000+0001T   00000876+0000001250          1400 SB3200               3AZ
309707000309707               309707               170213JT     1400+00000+JT0000002630+0000002630+000000000+000000369+0000002990+0000000009+I20000000000+0000002990+Z
309707001309707077-000512     309707006003000590223GIFT-BAG DESIGNER LRG  0000001000+00002630+00000+0001T   00002630+0000001250          1400 SB3112               3AZ
309708000309708               309708               170213JT     1400+00000+JT0000006398+0000006398+000000000+000000897+0000007290+0000000005+I20000000000+0000007290+Z
309708001309708077-000310     309708006001023608635GIFT-BAG 18X23CM GLOSS 0000001000+00001314+00000+0001T   00001314+0000001258          1400 SB3112               3AZ
309708002309708077-000315     309708006003000181186GIFT-BAG 20x28cm MATT  0000001000+00001578+00000+0001T   00001578+0000001258          1400 SB3112               3AZ
309708003309708077-000316     309708006001023609731GIFT-BAG 25X32CM MATT  0000002000+00001753+00000+0001T   00001753+0000001258          1400 SB3112               3AZ
309709000309709               309709               170213JT     1400+00000+JT0000001401+0000001401+000000000+000000197+0000001590+0000000008+I20000000000+0000001590+Z
309709001309709903-000297     309709006001704002950SWT MS WILD BERRY 50G  0000001000+00000876+00000+0001T   00000876+0000001259          1400 SB3150               3AZ
309709002309709903-000155     309709006009803374435SWT LOLLY I LUV U HEART0000001000+00000525+00000+0001T   00000525+0000001259          1400 SB3150               3AZ
309710000309710               309710               170213JT     1400+00000+JT0000001578+0000001578+000000000+000000221+0000001790+0000000009+I20000000000+0000001790+Z
309710001309710024-000034     309710006001023495235MEASURING-JUG 1-CUP    0000001000+00001578+00000+0001T   00001578+0000001302          1400 SB3300               3AZ
309711000309711               309711               170213JT     1400+00000+JT0000005262+0000005262+000000000+000000737+0000005990+0000000009+I20000000000+0000005990+Z
309711001309711301-085003     309711006003000420827ORN OCCASION LOVE KEY  0000001000+00005262+00000+0001T   00005262+0000001308          1400 SB3505               3AZ
309712000309712               309712               170213JT     1400+00000+JT0000005343+0000005343+000000000+000000749+0000006092+0000000000+I40000006092+0000000000+Z
309712001309712564-000012     309712006001023130075BUBBLE BOTTLE MAGIC    0000003000+00000700+00000+0001T   00000700+0000001309          1400 SB3131               3AZ
309712002309712034-078833     309712006001023857491SIGN BABY-ON-BOARD     0000001000+00001490+00000+0001T   00001490+0000001309          1400 SB3215               3AZ
309712003309712565-000043     309712006003000109562NOVELTY BALL FUNNY FACE0000001000+00001753+00000+0001T   00001753+0000001309          1400 SB3745               3AZ
309713000309713               309713               170213JT     1400+00000+JT0000002192+0000002192+000000000+000000307+0000002490+0000000009+I20000000000+0000002490+Z
309713001309713105-001027     309713006003000364916LUNCH BOX W/CLIPS 2-DIV0000001000+00002192+00000+0001T   00002192+0000001329          1400 SB3210               3AZ
309714000309714               309714               170213JT     1400+00000+JT0000001051+0000001051+000000000+000000148+0000001190+0000000009+I20000000000+0000001190+Z
309714001309714903-002891     309714008935001721376MENTOS GUM WINTERGREEN 0000001000+00001051+00000+0001T   00001051+0000001329          1400 SB3150               3AZ
309715000309715               309715               170213JT     1400+00000+JT0000001753+0000001753+000000000+000000246+0000001990+0000000009+I20000000000+0000001990+Z
309715001309715071-002999-A   309715006003000611577PEN STICKBALL 10PCE ASS0000001000+00001753+00000+0001T   00001753+0000001330          1400 SB3130               3AZ
309716000309716               309716               170213JT     1400+00000+JT0000001753+0000001753+000000000+000000246+0000001990+0000000009+I20000000000+0000001990+Z
309716001309716077-000328     309716006003000668939GIFT-BAG PAPER JMB     0000001000+00001753+00000+0001T   00001753+0000001335          1400 SB3112               3AZ
309717000309717               309717               170213JT     1400+00000+JT0000007765+0000007765+000000000+000001088+0000008850+0000000003+I20000000000+0000008850+Z
309717001309717112-116069     309717006009681820277TCS CARRIER BAG JUMBO  0000001000+00000048+00000+0001T   00000048+0000001339          1400 SB3090               3AZ
309717002309717018-050000     309717006003000412679MUG OCC LOVE TWIN BEAR 0000001000+00006139+00000+0001T   00006139+0000001339          1400 SB3515               3AZ
309717003309717077-000303     309717006001023593757GIFT-BAG PAPER MED     0000001000+00001578+00000+0001T   00001578+0000001339          1400 SB3112               3AZ
309718000309718               309718               170213JT     1400+00000+JT0000020036+0000020036+000000000+000002807+0000022843+0000000000+I40000022843+0000000000+Z
309718001309718112-116069     309718006009681820277TCS CARRIER BAG JUMBO  0000001000+00000048+00000+0001T   00000048+0000001341          1400 SB3090               3AZ
309718002309718495-059703     309718000078257597031LOUNGER AIR-MAT ECONO  0000004000+00003507+00000+0001T   00003507+0000001341          1400 SB3787               3AZ
309718003309718493-059010     309718000078257590100BEACH-BALL COLOR-PANELS0000004000+00001490+00000+0001T   00001490+0000001341          1400 SB3787               3AZ
309719000309719               309719               170213JT     1400+00000+JT0000005963+0000005963+000000000+000000835+0000006790+0000000008+I20000000000+0000006790+Z
309719001309719001-000175     309719006001023788108B/MUG GLS LOVE 380ML   0000001000+00004385+00000+0001T   00004385+0000001347          1400 SB3515               3AZ
309719002309719077-000303     309719006001023593757GIFT-BAG PAPER MED     0000001000+00001578+00000+0001T   00001578+0000001347          1400 SB3112               3AZ
309720000309720               309720               170213JT     1400+00000+JT0000002192+0000002192+000000000+000000307+0000002490+0000000009+I20000000000+0000002490+Z
309720001309720080-000127     309720006003000424351VALENTINES DAY 36x24CM 0000001000+00002192+00000+0001T   00002192+0000001353          1400 SB3112               3AZ
309721000309721               309721               170213JT     1400+00000+JT0000021094+0000021094+000000000+000002956+0000024050+0000000000+I40000024050+0000000000+Z
309721001309721001-091415     309721006003000329113W/GLS OCC. LOVE 2PC 2800000001000+00008771+00000+0001T   00009648+0006471356          1400 SB3515               3AZ
309721002309721031-007009     309721006003000467822P/FRAME WDN CERTIFICATE0000001000+00006139+00000+0001T   00006139+0000001356          1400 SB3510               3AZ
309721003309721112-116069     309721006009681820277TCS CARRIER BAG JUMBO  0000001000+00000048+00000+0001T   00000048+0000001356          1400 SB3090               3AZ
309721004309721200-003024     309721006001023657299REFUSE BAGS 20PCE BLACK0000002000+00001753+00000+0001T   00001753+0000001356          1400 SB3214               3AZ
309721005309721027-009025     309721006003962000747DUSTPAN-SET PL         0000001000+00002630+00000+0001T   00002630+0000001356          1400 SB3212               3AZ
309722000309722               309722               170213JT     1400+00000+JT0000003542+0000003542+000000000+000000496+0000004030+0000000008+I20000000000+0000004030+Z
309722001309722031-000923     309722006001023669933P/FRAME BLK W/WORDS    0000001000+00003507+00000+0001T   00003507+0000001356          1400 SB3510               3AZ
309722002309722112-116038     309722006009681820246TCS CARRIER BAG MIDI   0000001000+00000035+00000+0001T   00000035+0000001356          1400 SB3090               3AZ
309723000309723               309723               170213JT     1400+00000+JT0000005259+0000005259+000000000+000000738+0000005997+0000000000+I40000005997+0000000000+Z
309723001309723031-005820     309723006001023667816P/FRAME-CLIP 15X20CM   0000003000+00001753+00000+0001T   00001753+0000001358          1400 SB3510               3AZ
309724000309724               309724               170213JT     1400+00000+JT0000011402-0000011402-000000000+000001597-0000013000-0000000001+I20000000000+0000013000-Z
309724001309724586-012460     309724006001492124605WATCH LDS QUILTED BEIGE0000001000-00011402+00000+0001T   00011402+0000001401          1400 SB31603IC            3 Z
309725000309725               309725               170213JT     1400+00000+JT0000006137+0000006137+000000000+000000860+0000006990+0000000007+I20000000000+0000006990+Z
309725001309725004-071206     309725006003000605156USB CABLE CHARGER      0000001000+00003507+00000+0001T   00003507+0000001404          1400 SB3310               3AZ
309725002309725159-000038     309725006003000393954HOOKS HANGER S/S 2PCE  0000001000+00002630+00000+0001T   00002630+0000001404          1400 SB3200               3AZ
309726000309726               309726               170213JT     1400+00000+JT0000002630+0000002630+000000000+000000369+0000002990+0000000009+I20000000000+0000002990+Z
309726001309726007-000714     309726006003000227150NOTE-BK A6 WIRO 80SHTS 0000001000+00002630+00000+0001T   00002630+0000001404          1400 SB3130               3AZ
309727000309727               309727               170213JT     1400+00000+JT0000001927+0000001927+000000000+000000271+0000002190+0000000008+I20000000000+0000002190+Z
309727001309727903-002891     309727008935001721376MENTOS GUM WINTERGREEN 0000001000+00001051+00000+0001T   00001051+0000001405          1400 SB3150               3AZ
309727002309727077-000150-D   309727006003000054343GIFT-WRAP CELLPHANE CLR0000001000+00000876+00000+0001T   00000876+0000001405          1400 SB3112               3AZ
309728000309728               309728               170213JT     1400+00000+JT0000001490+0000001490+000000000+000000209+0000001690+0000000009+I20000000000+0000001690+Z
309728001309728565-004101     309728006003000548033BALL BOUNCING EGG      0000001000+00001490+00000+0001T   00001490+0000001406          1400 SB3745               3AZ
309729000309729               309729               170213JT     1400+00000+JT0000001753+0000001753+000000000+000000246+0000001990+0000000009+I20000000000+0000001990+Z
309729001309729200-003024     309729006001023657299REFUSE BAGS 20PCE BLACK0000001000+00001753+00000+0001T   00001753+0000001409          1400 SB3214               3AZ
309730000309730               309730               170213JT     1400+00000+JT0000012313+0000012313+000000000+000001725+0000014038+0000000000+I40000014038+0000000000+Z
309730001309730039-000798     309730006001023617774CANDLES TEALITE BOX-50 0000002000+00006139+00000+0001T   00006139+0000001411          1400 SB3510               3AZ
309730002309730112-116038     309730006009681820246TCS CARRIER BAG MIDI   0000001000+00000035+00000+0001T   00000035+0000001411          1400 SB3090               3AZ
309731000309731               309731               170213JT     1400+00000+JT0000048753+0000048753+000000000+000006833+0000055586+0000000000+I40000055586+0000000000+Z
309731001309731112-116069     309731006009681820277TCS CARRIER BAG JUMBO  0000001000+00000048+00000+0001T   00000048+0000001424          1400 SB3090               3AZ
309731002309731366-002699     309731006003000536733DRESS UP HAT COWGIRL   0000001000+00005262+00000+0001T   00005262+0000001424          1400 SB3131               3AZ
309731003309731079-014101     309731006001023908612ART+CRAFT SCOUBIDOUx50 0000001000+00003507+00000+0001T   00003507+0000001424          1400 SB3130               3AZ
309731004309731203-006502     309731006003000257454DRINK STIRRERS ASSTD   0000002000+00002630+00000+0001T   00002630+0000001424          1400 SB3300               3AZ
309731005309731079-014101     309731006001023908612ART+CRAFT SCOUBIDOUx50 0000001000+00003507+00000+0001T   00003507+0000001424          1400 SB3130               3AZ
309731006309731079-013106     309731006003000081998ART+CRAFT PIPE-CLEANERS0000001000+00003069+00000+0001T   00003069+0000001424          1400 SB3130               3AZ
309731007309731078-009100     309731006008741002349ALL-CLEAR GLUE 25ml CRD0000002000+00001314+00000+0001T   00001314+0000001424          1400 SB3810               3AZ
309731008309731078-000025     309731008887013700064SUPERGLUE 3g 1PCE CARD 0000002000+00000876+00000+0001T   00000876+0000001424          1400 SB3810               3AZ
309731009309731204-083002     309731006008766083002M/HOLD BUTTERFLIES 4PCE0000002000+00001753+00000+0001T   00001753+0000001424          1400 SB3300               3AZ
309731010309731002-021057     309731006001023812032T/PICKS UMBRELLAS 10PCE0000002000+00000876+00000+0001T   00000876+0000001424          1400 SB3300               3AZ
309731011309731006-005909     309731006003000081301PARTY FAVOUR STAR WAND 0000001000+00002192+00000+0001T   00002192+0000001424          1400 SB3131               3AZ
309731012309731566-000344     309731006001023994806STICKER ALBUM+STICKERS 0000002000+00001753+00000+0001T   00001753+0000001424          1400 SB3130               3AZ
309731013309731366-002695     309731006003000222766DRESS UP HAT ROUND GLIT0000001000+00002192+00000+0001T   00002192+0000001424          1400 SB3131               3AZ
309731014309731112-116069     309731006009681820277TCS CARRIER BAG JUMBO  0000001000+00000048+00000+0001T   00000048+0000001424          1400 SB3090               3AZ
309731015309731464-009011     309731006003000647675FISHING WITH TWO RODS  0000002000+00005262+00000+0001T   00005262+0000001424          1400 SB3785               3AZ
309732000309732               309732               170213JT     1400+00000+JT0000003892+0000003892+000000000+000000546+0000004430+0000000008+I20000000000+0000004430+Z
309732001309732071-081091     309732006001151010287STAED/GENKEM ALL-STICK 0000001000+00001227+00000+0001T   00001227+0000001424          1400 SB3130               3AZ
309732002309732031-005919     309732006003000580576P/FRAME PL PLAIN 13X18 0000001000+00002630+00000+0001T   00002630+0000001424          1400 SB3510               3AZ
309732003309732112-116038     309732006009681820246TCS CARRIER BAG MIDI   0000001000+00000035+00000+0001T   00000035+0000001424          1400 SB3090               3AZ
309733000309733               309733               170213JT     1400+00000+JT0000003156+0000003156+000000000+000000442+0000003598+0000000000+I40000003598+0000000000+Z
309733001309733077-000303     309733006001023593757GIFT-BAG PAPER MED     0000002000+00001578+00000+0001T   00001578+0000001425          1400 SB3112               3AZ
309734000309734               309734               170213JT     1400+00000+JT0000006610+0000006610+000000000+000000926+0000007536+0000000000+I40000007536+0000000000+Z
309734001309734007-000127     309734006009685853431BOOK H/COVER MEMO 144PG0000001000+00000876+00000+0001T   00000876+0000001428          1400 SB3130               3AZ
309734002309734071-000196     309734006003000379392PEN MULTI-COLOUR 2PK   0000001000+00002192+00000+0001T   00002192+0000001428          1400 SB3130               3AZ
309734003309734004-071267     309734006001023907875LCD CLEANING KIT+CLOTH 0000001000+00003507+00000+0001T   00003507+0000001428          1400 SB3310               3AZ
309734004309734112-116038     309734006009681820246TCS CARRIER BAG MIDI   0000001000+00000035+00000+0001T   00000035+0000001428          1400 SB3090               3AZ
309735000309735               309735               170213JT     1400+00000+JT0000001314+0000001314+000000000+000000184+0000001490+0000000008+I20000000000+0000001490+Z
309735001309735046-000012     309735006904708013062BATTERIES AA  CARD-OF-40000001000+00001314+00000+0001T   00001314+0000001428          1400 SB3312               3AZ
309736000309736               309736               170213JT     1400+00000+JT0000010085+0000010085+000000000+000001413+0000011498+0000000000+I40000011498+0000000000+Z
309736001309736264-015061     309736000090159150619MAISTO TAILWINDS ASSTD 0000001000+00006139+00000+0001T   00006139+0000001430          1400 SB3710               3AZ
309736002309736361-003007     309736006003000210367DOLL 29CM DOCTOR NURSE 0000001000+00003946+00000+0001T   00003946+0000001430          1400 SB3725               3AZ
309737000309737               309737               170213JT     1400+00000+JT0000003507+0000003507+000000000+000000491+0000003990+0000000008+I20000000000+0000003990+Z
309737001309737105-007800     309737006002923018913STORAGE BOX CLEAR 5.5L 0000001000+00003507+00000+0001T   00003507+0000001430          1400 SB3210               3AZ
309738000309738               309738               170213JT     1400+00000+JT0000000437+0000000437+000000000+000000062+0000000490+0000000009+I20000000000+0000000490+Z
309738001309738080-000133     309738006003000535613CARD&ENV MINI ASTD DSGN0000001000+00000437+00000+0001T   00000437+0000001431          1400 SB3112               3AZ
309739000309739               309739               170213JT     1400+00000+JT0000002630+0000002630+000000000+000000369+0000002990+0000000009+I20000000000+0000002990+Z
309739001309739077-000235     309739006003000160211GIFT-RIBBON ROLL METALC0000001000+00002630+00000+0001T   00002630+0000001432          1400 SB3112               3AZ
309740000309740               309740               170213JT     1400+00000+JT0000025218+0000025218+000000000+000003533+0000028751+0000000000+I40000028751+0000000000+Z
309740001309740112-116069     309740006009681820277TCS CARRIER BAG JUMBO  0000001000+00000048+00000+0001T   00000048+0000001436          1400 SB3090               3AZ
309740002309740077-000304     309740006001023483232GIFT-BAG 25X32CM E/DAY 0000001000+00001490+00000+0001T   00001490+0000001436          1400 SB3112               3AZ
309740003309740267-000410     309740005011874004624PUZZLE 4-IN-1 MINI ASST0000001000+00007016+00000+0001T   00007016+0000001436          1400 SB3755               3AZ
309740004309740368-000183     309740006003000668175PLUSH BEAR 15cm        0000001000+00005262+00000+0001T   00005262+0000001436          1400 SB3745               3AZ
309740005309740368-000637     309740006001023874092PLUSH BEAR SLEEPING LOV0000001000+00011402+00000+0001T   00012279+0006471436          1400 SB3745               3AZ
309741000309741               309741               170213JT     1400+00000+JT0000003507+0000003507+000000000+000000491+0000003998+0000000000+I40000003998+0000000000+Z
309741001309741133-000017     309741006003000525171CLEANING-CLOTHS 5PCE   0000001000+00003507+00000+0001T   00003507+0000001439          1400 SB3212               3AZ
309742000309742               309742               170213JT     1400+00000+JT0000003278+0000003278+000000000+000000460+0000003730+0000000008+I20000000000+0000003730+Z
309742001309742140-001004     309742006001023880932FLY-RIBBONS 4PCE PL    0000001000+00001490+00000+0001T   00001490+0000001440          1400 SB3830               3AZ
309742002309742036-000610     309742006001023627230WASHING-PEGS PL PACK-240000001000+00001753+00000+0001T   00001753+0000001440          1400 SB3212               3AZ
309742003309742112-116038     309742006009681820246TCS CARRIER BAG MIDI   0000001000+00000035+00000+0001T   00000035+0000001440          1400 SB3090               3AZ
309743000309743               309743               170213JT     1400+00000+JT0000003240+0000003240+000000000+000000454+0000003694+0000000000+I40000003694+0000000000+Z
309743001309743007-000555     309743006001023848239MEMO-PAD MINI LOVE     0000002000+00000613+00000+0001T   00000613+0000001444          1400 SB3130               3AZ
309743002309743007-000537     309743000651728791017NOTE-PAD RND SMILE-FACE0000001000+00000700+00000+0001T   00000700+0000001444          1400 SB3130               3AZ
309743003309743007-000209     309743006001023582102NOTE STICKY FILE MARKER0000001000+00001314+00000+0001T   00001314+0000001444          1400 SB3130               3AZ
309744000309744               309744               170213JT     1400+00000+JT0000034679+0000034679+000000000+000004861+0000039540+0000000000+I40000039540+0000000000+Z
309744001309744112-116069     309744006009681820277TCS CARRIER BAG JUMBO  0000001000+00000048+00000+0001T   00000048+0000001449          1400 SB3090               3AZ
309744002309744564-001028     309744006001023708663BUBBLE CELEBRATION 6ml 0000005000+00003069+00000+0001T   00003069+0000001449          1400 SB3131               3AZ
309744003309744564-000019     309744006003000654345BUBBLE NOVELTY MIX 4PCE0000001000+00002630+00000+0001T   00002630+0000001449          1400 SB3131               3AZ
309744004309744079-006500     309744006001023557186GLUE GLITTER 6/10 PCE  0000001000+00001753+00000+0001T   00001753+0000001449          1400 SB3130               3AZ
309744005309744079-013032-D   309744006003000389643RIBBONS                0000001000+00002630+00000+0001T   00002630+0000001449          1400 SB3130               3AZ
309744006309744079-000600     309744006003000160990ART-SHEETS FOAM ASSTD-C0000002000+00003507+00000+0001T   00003507+0000001449          1400 SB3130               3AZ
309744007309744079-013099     309744006003000081875ART+CRAFT EYES ASSTD   0000002000+00001753+00000+0001T   00001753+0000001449          1400 SB3130               3AZ
309744008309744078-000470     309744006007347000018SHOE-CEMENT 70ml-TIN   0000001000+00001753+00000+0001T   00001753+0000001449          1400 SB3810               3AZ
309745000309745               309745               170213JT     1400+00000+JT0000008329+0000008329+000000000+000001168+0000009497+0000000000+I40000009497+0000000000+Z
309745001309745080-000133     309745006003000535613CARD&ENV MINI ASTD DSGN0000001000+00000437+00000+0001T   00000437+0000001451          1400 SB3112               3AZ
309745002309745077-000351     309745006003000139033GIFT-BAG 18X23CM E/D P 0000001000+00001753+00000+0001T   00001753+0000001451          1400 SB3112               3AZ
309745003309745368-000265     309745006001023750914PLUSH BEAR 23CM ASSTD C0000001000+00006139+00000+0001T   00006139+0000001451          1400 SB3745               3AZ
309746000309746               309746               170213JT     1400+00000+JT0000029155+0000029155+000000000+000004088+0000033243+0000000000+I40000033243+0000000000+Z
309746001309746112-116069     309746006009681820277TCS CARRIER BAG JUMBO  0000001000+00000048+00000+0001T   00000048+0000001455          1400 SB3090               3AZ
309746002309746903-000211     309746006002099001238SWT GS MALLOW ICE CREAM0000001000+00001753+00000+0001T   00001753+0000001455          1400 SB3150               3AZ
309746003309746079-000335     309746006003000670550THERAPY P/CRAYONS 30   0000001000+00007016+00000+0001T   00007016+0000001455          1400 SB3130               3AZ
309746004309746079-006500     309746006001023557186GLUE GLITTER 6/10 PCE  0000002000+00001753+00000+0001T   00001753+0000001455          1400 SB3130               3AZ
309746005309746563-000318-G   309746006003000404360SERVIETTES 33cm PINK   0000001000+00002192+00000+0001T   00002192+0000001455          1400 SB3214               3AZ
309746006309746006-000220-A   309746006001023890849PARTY TABLE-CLOTH GIRL 0000001000+00002630+00000+0001T   00002630+0000001455          1400 SB3131               3AZ
309746007309746566-000359     309746006003000582709STICKER BOOK LOVE SPARK0000001000+00002192+00000+0001T   00002192+0000001455          1400 SB3130               3AZ
309746008309746039-000108     309746006001023524034TEA-LITE CANDLES 8PCE  0000001000+00001490+00000+0001T   00001490+0000001455          1400 SB3510               3AZ
309746009309746019-071599     309746006001023693242PEBBLES GLS 250g BLACK 0000001000+00001753+00000+0001T   00001753+0000001455          1400 SB3510               3AZ
309746010309746019-071594     309746006003000505579PEBBLES GLS 250g RED   0000001000+00002630+00000+0001T   00002630+0000001455          1400 SB3510               3AZ
309746011309746019-071595     309746006001023756428PEBBLES 250g SKY-BLUE  0000001000+00001753+00000+0001T   00001753+0000001455          1400 SB3510               3AZ
309746012309746019-071597     309746006008766071597PEBBLES 250g CLEAR  BAG0000001000+00002192+00000+0001T   00002192+0000001455          1400 SB3510               3AZ
309747000309747               309747               170213JT     1400+00000+JT0000002892+0000002892+000000000+000000406+0000003298+0000000000+I40000003298+0000000000+Z
309747001309747071-001012     309747006001023474445MARKERS BLACK ROUND    0000001000+00000876+00000+0001T   00000876+0000001457          1400 SB3130               3AZ
309747002309747174-008025     309747006009654960399TRAVEL TUBS 4-PACK 30ml0000001000+00002016+00000+0001T   00002016+0000001457          1400 SB3205               3AZ
309748000309748               309748               170213JT     1400+00000+JT0000005521+0000005521+000000000+000000774+0000006295+0000000000+I40000006295+0000000000+Z
309748001309748077-000321     309748006001023677501GIFT-BAG 11X14CM E/D FL0000004000+00000613+00000+0001T   00000613+0000001500          1400 SB3112               3AZ
309748002309748007-000552     309748006001023848086NOTE-CASE 200 MEMO SHTS0000001000+00003069+00000+0001T   00003069+0000001500          1400 SB3130               3AZ
309749000309749               309749               170213JT     1400+00000+JT0000001752+0000001752+000000000+000000246+0000001990+0000000008+I20000000000+0000001990+Z
309749001309749077-000314     309749006003000181148GIFT-BAG 11X14CM MATT  0000002000+00000876+00000+0001T   00000876+0000001500          1400 SB3112               3AZ
309750000309750               309750               170213JT     1400+00000+JT0000001753+0000001753+000000000+000000246+0000001990+0000000009+I20000000000+0000001990+Z
309750001309750106-007125     309750006003000057689MILK-SACHET-JUG 1,0L   0000001000+00001753+00000+0001T   00001753+0000001503          1400 SB3210               3AZ
309751000309751               309751               170213JT     1400+00000+JT0000003542+0000003542+000000000+000000496+0000004038+0000000000+I40000004038+0000000000+Z
309751001309751031-000873-B   309751006003000673391P/FRAME WDN WHITE 13X180000001000+00003507+00000+0001T   00003507+0000001516          1400 SB3510               3AZ
309751002309751112-116038     309751006009681820246TCS CARRIER BAG MIDI   0000001000+00000035+00000+0001T   00000035+0000001516          1400 SB3090               3AZ
309752000309752               309752               170213JT     1400+00000+JT0000012321+0000012321+000000000+000001729+0000014050+0000000000+I40000014050+0000000000+Z
309752001309752077-000382     309752006003000247820GIFT-BAG MED 18X23CM   0000001000+00001753+00000+0001T   00001753+0000001518          1400 SB3112               3AZ
309752002309752112-116069     309752006009681820277TCS CARRIER BAG JUMBO  0000001000+00000048+00000+0001T   00000048+0000001518          1400 SB3090               3AZ
309752003309752079-001002     309752006003000448715CANVAS A4 WOOD MOUNTED 0000004000+00002630+00000+0001T   00002630+0000001518          1400 SB3130               3AZ
309753000309753               309753               170213JT     1400+00000+JT0000006139+0000006139+000000000+000000860+0000006999+0000000000+I40000006999+0000000000+Z
309753001309753018-050000     309753006003000412679MUG OCC LOVE TWIN BEAR 0000001000+00006139+00000+0001T   00006139+0000001520          1400 SB3515               3AZ
309754000309754               309754               170213JT     1400+00000+JT0000001753+0000001753+000000000+000000246+0000001990+0000000009+I20000000000+0000001990+Z
309754001309754080-000113     309754006003000237449CARD&ENVLPE - LOVE     0000001000+00001753+00000+0001T   00001753+0000001520          1400 SB3112               3AZ
309755000309755               309755               170213JT     1400+00000+JT0000002630+0000002630+000000000+000000369+0000002990+0000000009+I20000000000+0000002990+Z
309755001309755080-000136     309755006003000589036CARD & ENV GIANT MALE  0000001000+00002630+00000+0001T   00002630+0000001523          1400 SB3112               3AZ
309756000309756               309756               170213JT     1400+00000+JT0000007049+0000007049+000000000+000000987+0000008030+0000000006+I20000000000+0000008030+Z
309756001309756301-085004     309756006003000420469ORN LOVE PLAQUE 21X10CM0000001000+00003507+00000+0001T   00003946+0006471526          1400 SB3505               3AZ
309756002309756030-004015     309756006003000467624PLAQUE WDN SIGN 30X20CM0000001000-00009648+00000+0001T   00009648+0000001526          1400 SB35051IC            3 Z
309756003309756030-004015     309756006003000467624PLAQUE WDN SIGN 30X20CM0000001000+00009648+00000+0001T   00009648+0000001526          1400 SB35051IC            3AZ
309756004309756031-000923     309756006001023669933P/FRAME BLK W/WORDS    0000001000+00003507+00000+0001T   00003507+0000001526          1400 SB3510               3AZ
309756005309756112-116038     309756006009681820246TCS CARRIER BAG MIDI   0000001000+00000035+00000+0001T   00000035+0000001526          1400 SB3090               3AZ
309757000309757               309757               170213JT     1400+00000+JT0000021076+0000021076+000000000+000002954+0000024030+0000000000+I40000024030+0000000000+Z
309757001309757112-116038     309757006009681820246TCS CARRIER BAG MIDI   0000001000+00000035+00000+0001T   00000035+0000001539          1400 SB3090               3AZ
309757002309757262-000651     309757006001023754561DIE CAST SET 5PC RACER 0000004000+00002630+00000+0001T   00002630+0000001539          1400 SB3710               3AZ
309757003309757077-000932     309757006003000409808G/WRAP 700mmx5m PATTERN0000003000+00003507+00000+0001T   00003507+0000001539          1400 SB3112               3AZ
309758000309758               309758               170213JT     1400+00000+JT0000002102+0000002102+000000000+000000296+0000002390+0000000008+I20000000000+0000002390+Z
309758001309758039-000024     309758006003000286300C/TAPERED 25CM M/WHITE 0000001000+00001051+00000+0001T   00001051+0000001540          1400 SB3510               3AZ
309758002309758039-000032     309758006003000287185C/TAPERED 25CM M/GREEN 0000001000+00001051+00000+0001T   00001051+0000001540          1400 SB3510               3AZ
309759000309759               309759               170213JT     1400+00000+JT0000005522+0000005522+000000000+000000774+0000006290+0000000006+I20000000000+0000006290+Z
309759001309759071-000674     309759006003000541430STAT. PAPER FASTNER 80P0000001000+00003507+00000+0001T   00003507+0000001545          1400 SB3130               3AZ
309759002309759071-005214     309759006003000152544CELLOTAPE SUPER REFILL 0000001000+00001490+00000+0001T   00001490+0000001545          1400 SB3130               3AZ
309759003309759071-000874     309759006003000010110RUB-BANDS PLN BAG-30   0000001000+00000525+00000+0001T   00000525+0000001545          1400 SB3130               3AZ
309760000309760               309760               170213JT     1400+00000+JT0000010524+0000010524+000000000+000001474+0000011998+0000000000+I40000011998+0000000000+Z
309760001309760077-000299-A   309760006003000670888GIFT-BAG PAPER JMB LOVE0000001000+00001753+00000+0001T   00001753+0000001548          1400 SB3112               3AZ
309760002309760368-000099     309760006001023680259PLUSH DOG 23cm ASSTD   0000001000+00008771+00000+0001T   00008771+0000001548          1400 SB3745               3AZ
309761000309761               309761               170213JT     1400+00000+JT0000015644+0000015644+000000000+000002191+0000017830+0000000005+I20000000000+0000017830+Z
309761001309761301-085003     309761006003000420827ORN OCCASION LOVE KEY  0000002000+00005262+00000+0001T   00005262+0000001549          1400 SB3505               3AZ
309761002309761112-116038     309761006009681820246TCS CARRIER BAG MIDI   0000001000+00000035+00000+0001T   00000035+0000001549          1400 SB3090               3AZ
309761003309761018-000130     309761006001023867537MUG OCC LOVE MINI+HEART0000001000+00003507+00000+0001T   00003507+0000001549          1400 SB3515               3AZ
309761004309761077-000303     309761006001023593757GIFT-BAG PAPER MED     0000001000+00001578+00000+0001T   00001578+0000001549          1400 SB3112               3AZ
309762000309762               309762               170213JT     1400+00000+JT0000013187+0000013187+000000000+000001847+0000015034+0000000000+I40000015034+0000000000+Z
309762001309762368-000265     309762006001023750914PLUSH BEAR 23CM ASSTD C0000001000+00006139+00000+0001T   00006139+0000001551          1400 SB3745               3AZ
309762002309762903-000194     309762006009826020616SWT CHOC RP LOLLY 25G  0000002000+00001314+00000+0001T   00001314+0000001551          1400 SB3150               3AZ
309762003309762112-116038     309762006009681820246TCS CARRIER BAG MIDI   0000001000+00000035+00000+0001T   00000035+0000001551          1400 SB3090               3AZ
309762004309762006-000190     309762006003000685530BALLOONS LOVE 81x91cm  0000001000+00004385+00000+0001T   00004385+0000001551          1400 SB3131               3AZ
309763000309763               309763               170213JT     1400+00000+JT0000012327+0000012327+000000000+000001727+0000014050+0000000004+I20000000000+0000014050+Z
309763001309763368-000113     309763006001023780874PLUSH BLINGED LOVE 30cm0000001000+00012279+00000+0001T   00012279+0000001552          1400 SB3745               3AZ
309763002309763112-116069     309763006009681820277TCS CARRIER BAG JUMBO  0000001000+00000048+00000+0001T   00000048+0000001552          1400 SB3090               3AZ
309764000309764               309764               170213JT     1400+00000+JT0000002192+0000002192+000000000+000000307+0000002499+0000000000+I40000002499+0000000000+Z
309764001309764006-000090     309764006001023538505BANNER HAPPY-BIRTHDAY  0000001000+00002192+00000+0001T   00002192+0000001554          1400 SB3131               3AZ
309765000309765               309765               170213JT     1400+00000+JT0000010569+0000010569+000000000+000001482+0000012051+0000000000+I40000012051+0000000000+Z
309765001309765018-050000     309765006003000412679MUG OCC LOVE TWIN BEAR 0000001000+00006139+00000+0001T   00006139+0000001557          1400 SB3515               3AZ
309765002309765112-116069     309765006009681820277TCS CARRIER BAG JUMBO  0000001000+00000048+00000+0001T   00000048+0000001557          1400 SB3090               3AZ
309765003309765083-000049     309765004891035200024CIG-LIGHTER DISPOSABLE 0000001000+00000437+00000+0001T   00000437+0000001557          1400 SB3315               3AZ
309765004309765080-000127     309765006003000424351VALENTINES DAY 36x24CM 0000001000+00002192+00000+0001T   00002192+0000001557          1400 SB3112               3AZ
309765005309765077-000299-A   309765006003000670888GIFT-BAG PAPER JMB LOVE0000001000+00001753+00000+0001T   00001753+0000001557          1400 SB3112               3AZ
309766000309766               309766               170213JT     1400+00000+JT0000004814+0000004814+000000000+000000678+0000005492+0000000000+I40000005492+0000000000+Z
309766001309766903-000094     309766006923431501622SWT GS CANDY NECKLACE  0000002000+00000437+00000+0001T   00000437+0000001559          1400 SB3150               3AZ
309766002309766903-000671     309766006009803358015SWT SHERBET BLUE LIPS  0000001000+00000218+00000+0001T   00000218+0000001559          1400 SB3150               3AZ
309766003309766903-000670     309766006009803358008SWT SHERBET RED LIPS   0000001000+00000218+00000+0001T   00000218+0000001559          1400 SB3150               3AZ
309766004309766903-000099     309766006923431501646SWT CANDY GS WTCH B/LET0000002000+00000262+00000+0001T   00000262+0000001559          1400 SB3150               3AZ
309766005309766077-000318     309766006001023609755GIFT-BAG 18X23CM E/D AN0000001000+00001227+00000+0001T   00001227+0000001559          1400 SB3112               3AZ
309766006309766077-000354     309766006003000139224GIFT-BAG 25X32CM H/MADE0000001000+00001753+00000+0001T   00001753+0000001559          1400 SB3112               3AZ
309767000309767               309767               170213JT     1400+00000+JT0000010957+0000010957+000000000+000001537+0000012494+0000000000+I40000012494+0000000000+Z
309767001309767105-001101     309767006003000667659CONTAINER SET LITE 2PC 0000001000+00002630+00000+0001T   00002630+0000001600          1400 SB3210               3AZ
309767002309767027-783000     309767006001023874641SCOURERS RAINBOW 5PCE  0000001000+00001753+00000+0001T   00001753+0000001600          1400 SB3212               3AZ
309767003309767200-000020     309767006925406841030BAG ZIPPERSEAL 25PC    0000001000+00002192+00000+0001T   00002192+0000001600          1400 SB3214               3AZ
309767004309767027-078281     309767006001023767806SCOURERS BRS 8g  PACK-30000001000+00000876+00000+0001T   00000876+0000001600          1400 SB3212               3AZ
309767005309767200-003024     309767006001023657299REFUSE BAGS 20PCE BLACK0000001000+00001753+00000+0001T   00001753+0000001600          1400 SB3214               3AZ
309767006309767007-000551     309767006001023848079NOTE-PAD SHOP-LIST ASST0000001000+00001753+00000+0001T   00001753+0000001600          1400 SB3130               3AZ
309768000309768               309768               170213JT     1400+00000+JT0000008771+0000008771+000000000+000001228+0000009990+0000000009+I20000000000+0000009990+Z
309768001309768001-091415     309768006003000329113W/GLS OCC. LOVE 2PC 2800000001000+00008771+00000+0001T   00009648+0006471601          1400 SB3515               3AZ
309769000309769               309769               170213JT     1400+00000+JT0000004420+0000004420+000000000+000000619+0000005039+0000000000+I40000005039+0000000000+Z
309769001309769031-005921     309769006001023667847P/FRAME PL PLAIN       0000001000+00004385+00000+0001T   00004385+0000001609          1400 SB3510               3AZ
309769002309769112-116038     309769006009681820246TCS CARRIER BAG MIDI   0000001000+00000035+00000+0001T   00000035+0000001609          1400 SB3090               3AZ
309770000309770               309770               170213JT     1400+00000+JT0000001576+0000001576+000000000+000000221+0000001790+0000000007+I20000000000+0000001790+Z
309770001309770033-010720     309770006001023678645SAFETY-PINS 50PCE SMALL0000001000+00000876+00000+0001T   00000876+0000001610          1400 SB3200               3AZ
309770002309770033-010721     309770006001023678669SAFETY-PINS 20PCE ASSTD0000001000+00000700+00000+0001T   00000700+0000001610          1400 SB3200               3AZ
309771000309771               309771               170213JT     1400+00000+JT0000006576+0000006576+000000000+000000921+0000007490+0000000007+I20000000000+0000007490+Z
309771001309771565-000042     309771006003000252459NOVELTY STRESS BALL    0000001000+00001314+00000+0001T   00001314+0000001611          1400 SB3745               3AZ
309771002309771018-019000     309771006003000557288MUG OCC. LOVE JUMBO    0000001000+00005262+00000+0001T   00005262+0000001611          1400 SB3515               3AZ
309772000309772               309772               170213JT     1400+00000+JT0000008771+0000008771+000000000+000001228+0000009990+0000000009+I20000000000+0000009990+Z
309772001309772031-000924     309772006001023669964P/FRAME COLLAGE PL     0000001000+00008771+00000+0001T   00008771+0000001612          1400 SB3510               3AZ
309773000309773               309773               170213JT     1400+00000+JT0000019343+0000019343+000000000+000002710+0000022053+0000000000+I40000022053+0000000000+Z
309773001309773112-116069     309773006009681820277TCS CARRIER BAG JUMBO  0000001000+00000048+00000+0001T   00000048+0000001615          1400 SB3090               3AZ
309773002309773003-000142     309773006001023725578ORN SIGN HANGING ASST  0000001000+00007016+00000+0001T   00007016+0000001615          1400 SB3505               3AZ
309773003309773047-000514-H   309773006001023427502EXT-CORD 10m DBL-J  H&H0000001000+00012279+00000+0001T   00012279+0000001615          1400 SB3880               3AZ
309774000309774               309774               170213JT     1400+00000+JT0000033537+0000033537+000000000+000004700+0000038237+0000000000+I40000038237+0000000000+Z
309774001309774112-116069     309774006009681820277TCS CARRIER BAG JUMBO  0000001000+00000048+00000+0001T   00000048+0000001618          1400 SB3090               3AZ
309774002309774565-000040     309774006008766115635NOVELTY ICON BEANIE    0000004000+00002630+00000+0001T   00002630+0000001618          1400 SB3745               3AZ
309774003309774903-000011     309774006002099007315SWT MALLOW CHOC 15G    0000001000+00000437+00000+0001T   00000437+0000001618          1400 SB3150               3AZ
309774004309774031-000002     309774006001023851338FRAME FRIENDS 7.5x7.5cm0000004000+00003507+00000+0001T   00003507+0000001618          1400 SB3510               3AZ
309774005309774007-000566     309774006003000640898NOVELTY PHONE NOTE-PAD 0000001000+00001490+00000+0001T   00001490+0000001618          1400 SB3130               3AZ
309774006309774031-000002     309774006001023851338FRAME FRIENDS 7.5x7.5cm0000002000+00003507+00000+0001T   00003507+0000001618          1400 SB3510               3AZ
309775000309775               309775               170213JT     1400+00000+JT0000002630+0000002630+000000000+000000369+0000002990+0000000009+I20000000000+0000002990+Z
309775001309775077-000270     309775006003000395453GIFT-BAG PPR JMB 33X45 0000001000+00002630+00000+0001T   00002630+0000001619          1400 SB3112               3AZ
309776000309776               309776               170213JT     1400+00000+JT0000003681+0000003681+000000000+000000516+0000004190+0000000007+I20000000000+0000004190+Z
309776001309776306-001720     309776006003000276257HAND SANITIZER WIPES   0000001000+00001753+00000+0001T   00001753+0000001626          1400 SB3200               3AZ
309776002309776174-008024     309776006009654960368TRAVEL BOTTLES 2-PACK  0000001000+00001928+00000+0001T   00001928+0000001626          1400 SB3205               3AZ
309777000309777               309777               170213JT     1400+00000+JT0000001227+0000001227+000000000+000000172+0000001390+0000000009+I20000000000+0000001390+Z
309777001309777077-000322     309777006001023677532GIFT-BAG 18X23CM E/D FL0000001000+00001227+00000+0001T   00001227+0000001627          1400 SB3112               3AZ
309778000309778               309778               170213JT     1400+00000+JT0000009413+0000009413+000000000+000001321+0000010730+0000000004+I20000000000+0000010730+Z
309778001309778112-116038     309778006009681820246TCS CARRIER BAG MIDI   0000001000+00000035+00000+0001T   00000035+0000001630          1400 SB3090               3AZ
309778002309778007-000535     309778000651728790904NOTE-BOOK DRESS TEEN   0000001000+00001753+00000+0001T   00001753+0000001630          1400 SB3130               3AZ
309778003309778566-001226     309778006001023672360STICKERS 3-D POP-UP    0000001000+00000613+00000+0001T   00000613+0000001630          1400 SB3130               3AZ
309778004309778007-000535     309778000651728790904NOTE-BOOK DRESS TEEN   0000003000+00001753+00000+0001T   00001753+0000001630          1400 SB3130               3AZ
309778005309778071-002999-A   309778006003000611577PEN STICKBALL 10PCE ASS0000001000+00001753+00000+0001T   00001753+0000001630          1400 SB3130               3AZ
309779000309779               309779               170213JT     1400+00000+JT0000021040+0000021040+000000000+000002952+0000023992+0000000000+I40000023992+0000000000+Z
309779001309779072-020354     309779006001023649980DOG/CAT-BOWL LARGE     0000004000+00002630+00000+0001T   00002630+0000001633          1400 SB3870               3AZ
309779002309779072-020366     309779006003000452927PET PLACE MAT ASSTD COL0000004000+00002630+00000+0001T   00002630+0000001633          1400 SB3870               3AZ
309780000309780               309780               170213JT     1400+00000+JT0000001051+0000001051+000000000+000000148+0000001190+0000000009+I20000000000+0000001190+Z
309780001309780079-009702-E   309780008427973059439PAPER SIRIO A2 BLUE    0000001000+00001051+00000+0001T   00001051+0000001636          1400 SB3130               3AZ
309781000309781               309781               170213JT     1400+00000+JT0000010120+0000010120+000000000+000001418+0000011538+0000000000+I40000011538+0000000000+Z
309781001309781112-116038     309781006009681820246TCS CARRIER BAG MIDI   0000001000+00000035+00000+0001T   00000035+0000001638          1400 SB3090               3AZ
309781002309781082-098783     309781006001492987835SUNGLASS KIDS GIRLS    0000001000+00003946+00000+0001T   00003946+0000001638          1400 SB3160               3AZ
309781003309781368-000265     309781006001023750914PLUSH BEAR 23CM ASSTD C0000001000+00006139+00000+0001T   00006139+0000001638          1400 SB3745               3AZ
309782000309782               309782               170213JT     1400+00000+JT0000003507+0000003507+000000000+000000491+0000003998+0000000000+I40000003998+0000000000+Z
309782001309782004-071206     309782006003000605156USB CABLE CHARGER      0000001000+00003507+00000+0001T   00003507+0000001640          1400 SB3310               3AZ
309783000309783               309783               170213JT     1400+00000+JT0000001578+0000001578+000000000+000000221+0000001790+0000000009+I20000000000+0000001790+Z
309783001309783077-000303     309783006001023593757GIFT-BAG PAPER MED     0000001000+00001578+00000+0001T   00001578+0000001640          1400 SB3112               3AZ
309784000309784               309784               170213JT     1400+00000+JT0000006174+0000006174+000000000+000000865+0000007039+0000000000+I40000007039+0000000000+Z
309784001309784368-000175     309784006003000270316PLUSH BEAR 4 ASSTD 18CM0000001000+00006139+00000+0001T   00006139+0000001643          1400 SB3745               3AZ
309784002309784112-116038     309784006009681820246TCS CARRIER BAG MIDI   0000001000+00000035+00000+0001T   00000035+0000001643          1400 SB3090               3AZ
309785000309785               309785               170213JT     1400+00000+JT0000002630+0000002630+000000000+000000369+0000002990+0000000009+I20000000000+0000002990+Z
309785001309785018-000129     309785006001023403353MUG OCC. LOVE V-SHAPE  0000001000+00002630+00000+0001T   00002630+0000001643          1400 SB3515               3AZ
309786000309786               309786               170213JT     1400+00000+JT0000002192+0000002192+000000000+000000307+0000002490+0000000009+I20000000000+0000002490+Z
309786001309786466-000020     309786006001023167941FRISBEE 25cm           0000001000+00002192+00000+0001T   00002192+0000001644          1400 SB3785               3AZ
309787000309787               309787               170213JT     1400+00000+JT0000004997+0000004997+000000000+000000700+0000005697+0000000000+I40000005697+0000000000+Z
309787001309787077-000384     309787006003000275243G/BAG HOT STMP 18x23CM 0000001000+00001490+00000+0001T   00001490+0000001649          1400 SB3112               3AZ
309787002309787200-000012     309787006003000399536BAG 50PCE 165x146mm    0000001000+00003507+00000+0001T   00003507+0000001649          1400 SB3214               3AZ
309788000309788               309788               170213JT     1400+00000+JT0000046396+0000046396+000000000+000006500+0000052896+0000000000+I40000052896+0000000000+Z
309788001309788112-116069     309788006009681820277TCS CARRIER BAG JUMBO  0000001000+00000048+00000+0001T   00000048+0000001652          1400 SB3090               3AZ
309788002309788159-000107     309788006001023640406SHOWER-CURTAIN 180cm   0000004000+00005262+00000+0001T   00006139+0008191652          1400 SB3200               3AZ
309788003309788077-000303     309788006001023593757GIFT-BAG PAPER MED     0000003000+00001578+00000+0001T   00001578+0000001652          1400 SB3112               3AZ
309788004309788562-006274     309788006001023744432EDU SKETCH-BOARD       0000001000+00005262+00000+0001T   00005262+0000001652          1400 SB3755               3AZ
309788005309788071-081104-A   309788006003000326662GLUE-STICK 8g CRD-OF-3 0000001000+00001227+00000+0001T   00001227+0000001652          1400 SB3130               3AZ
309788006309788112-116069     309788006009681820277TCS CARRIER BAG JUMBO  0000001000+00000048+00000+0001T   00000048+0000001652          1400 SB3090               3AZ
309788007309788037-000006     309788006003000171996ASHTRAY PL TUB GIANT   0000002000+00002630+00000+0001T   00003069+0008191652          1400 SB3515               3AZ
309788008309788018-005009     309788006001023725608MUG W/PLUSH-BEAR LOVE  0000001000+00003507+00000+0001T   00003507+0000001652          1400 SB3515               3AZ
309788009309788018-019000     309788006003000557288MUG OCC. LOVE JUMBO    0000001000+00005262+00000+0001T   00005262+0000001652          1400 SB3515               3AZ
309789000309789               309789               170213JT     1400+00000+JT0000003066+0000003066+000000000+000000430+0000003496+0000000000+I40000003496+0000000000+Z
309789001309789006-000167-E   309789006003000517213BALLOONS GOLD METALLIC 0000001000+00001314+00000+0001T   00001314+0000001653          1400 SB3131               3AZ
309789002309789039-000319-8   309789006003000443222B/CANDLES LRG NUMBER-8 0000001000+00000876+00000+0001T   00000876+0000001653          1400 SB3510               3AZ
309789003309789039-000319-1   309789006003000442386B/CANDLES LRG NUMBER-1 0000001000+00000876+00000+0001T   00000876+0000001653          1400 SB3510               3AZ
309790000309790               309790               170213JT     1400+00000+JT0000008763+0000008763+000000000+000001229+0000009990+0000000002+I20000000000+0000009990+Z
309790001309790903-005007     309790006002580020311SWT MALLOW BEAR M/SHAKE0000001000+00001314+00000+0001T   00001314+0000001654          1400 SB3150               3AZ
309790002309790306-000973     309790006003000559473FIRSTAID PLASTER 30PC  0000001000+00001753+00000+0001T   00001753+0000001654          1400 SB3200               3AZ
309790003309790002-021060     309790006001023359438TOOTHPICKS 50PC WRAP   0000001000+00001227+00000+0001T   00001227+0000001654          1400 SB3300               3AZ
309790004309790077-000321     309790006001023677501GIFT-BAG 11X14CM E/D FL0000003000+00000613+00000+0001T   00000613+0000001654          1400 SB3112               3AZ
309790005309790027-056188     309790006003000570539DISH BRUSH LADY SHAPE  0000001000+00002630+00000+0001T   00002630+0000001654          1400 SB3212               3AZ
309791000309791               309791               170213JT     1400+00000+JT0000001578+0000001578+000000000+000000221+0000001790+0000000009+I20000000000+0000001790+Z
309791001309791077-000303     309791006001023593757GIFT-BAG PAPER MED     0000001000+00001578+00000+0001T   00001578+0000001701          1400 SB3112               3AZ
309792000309792               309792               170213JT     1400+00000+JT0000002630+0000002630+000000000+000000369+0000002990+0000000009+I20000000000+0000002990+Z
309792001309792492-055602     309792000078257556021SWIM-GOGGLES PLAY      0000001000+00002630+00000+0001T   00002630+0000001704          1400 SB3787               3AZ
309793000309793               309793               170213JT     1400+00000+JT0000012937+0000012937+000000000+000001813+0000014750+0000000000+I40000014750+0000000000+Z
309793001309793112-116069     309793006009681820277TCS CARRIER BAG JUMBO  0000001000+00000048+00000+0001T   00000048+0000001709          1400 SB3090               3AZ
309793002309793368-000265     309793006001023750914PLUSH BEAR 23CM ASSTD C0000001000+00006139+00000+0001T   00006139+0000001709          1400 SB3745               3AZ
309793003309793077-000399     309793006003000139514GIFT BAG 18X23CM E/DAY 0000001000+00001490+00000+0001T   00001490+0000001709          1400 SB3112               3AZ
309793004309793079-000206     309793006003000639700PENCIL CRAYONS THERAPY 0000001000+00001753+00000+0001T   00001753+0000001709          1400 SB3130               3AZ
309793005309793567-011343     309793006003000630592BK COLOURING THERAPY   0000001000+00003507+00000+0001T   00003507+0000001709          1400 SB3757               3AZ
309794000309794               309794               170213JT     1400+00000+JT0000005260+0000005260+000000000+000000737+0000005990+0000000007+I20000000000+0000005990+Z
309794001309794077-000308     309794006001023595812GIFT-BAG 33X45CM E/DAY 0000001000+00001753+00000+0001T   00001753+0000001710          1400 SB3112               3AZ
309794002309794077-000932     309794006003000409808G/WRAP 700mmx5m PATTERN0000001000+00003507+00000+0001T   00003507+0000001710          1400 SB3112               3AZ
309795000309795               309795               170213JT     1400+00000+JT0000001753+0000001753+000000000+000000246+0000001999+0000000000+I40000001999+0000000000+Z
309795001309795080-000111     309795006003000252695CARD&ENVELPE - MUSICAL 0000001000+00001753+00000+0001T   00001753+0000001712          1400 SB3112               3AZ
309796000309796               309796               170213JT     1400+00000+JT0000001753+0000001753+000000000+000000246+0000001990+0000000009+I20000000000+0000001990+Z
309796001309796200-003024     309796006001023657299REFUSE BAGS 20PCE BLACK0000001000+00001753+00000+0001T   00001753+0000001715          1400 SB3214               3AZ
309797000309797               309797               170213JT     1400+00000+JT0000006174+0000006174+000000000+000000865+0000007039+0000000000+I40000007039+0000000000+Z
309797001309797039-000798     309797006001023617774CANDLES TEALITE BOX-50 0000001000+00006139+00000+0001T   00006139+0000001717          1400 SB3510               3AZ
309797002309797112-116038     309797006009681820246TCS CARRIER BAG MIDI   0000001000+00000035+00000+0001T   00000035+0000001717          1400 SB3090               3AZ
309798000309798               309798               170213JT     1400+00000+JT0000003103+0000003103+000000000+000000435+0000003538+0000000000+I40000003538+0000000000+Z
309798001309798112-116038     309798006009681820246TCS CARRIER BAG MIDI   0000001000+00000035+00000+0001T   00000035+0000001718          1400 SB3090               3AZ
309798002309798037-000008     309798006003000171750ASHTRAY TIN TUB 10X7.5 0000001000+00002192+00000+0001T   00002192+0000001718          1400 SB3515               3AZ
309798003309798089-000192-A   309798006001023901774KEY-CHAIN ACRYLIC      0000001000+00000876+00000+0001T   00000876+0000001718          1400 SB3205               3AZ
309799000309799               309799               170213JT     1400+00000+JT0000004385+0000004385+000000000+000000614+0000004999+0000000000+I40000004999+0000000000+Z
309799001309799266-000207     309799006001023708823GLIDER JET LAUNCHER    0000001000+00004385+00000+0001T   00004385+0000001719          1400 SB3710               3AZ
309800000309800               309800               170213JT     1400+00000+JT0000004420+0000004420+000000000+000000619+0000005039+0000000000+I40000005039+0000000000+Z
309800001309800001-000175     309800006001023788108B/MUG GLS LOVE 380ML   0000001000+00004385+00000+0001T   00004385+0000001722          1400 SB3515               3AZ
309800002309800112-116038     309800006009681820246TCS CARRIER BAG MIDI   0000001000+00000035+00000+0001T   00000035+0000001722          1400 SB3090               3AZ
309801000309801               309801               170213JT     1400+00000+JT0000001389+0000001389+000000000+000000196+0000001585+0000000000+I40000001585+0000000000+Z
309801001309801018-000177     309801006001023797513MUG MINI LOVE ASSTD    0000001000+00000700+00000+0001T   00000700+0000001724          1400 SB3515               3AZ
309801002309801903-000670     309801006009803358008SWT SHERBET RED LIPS   0000003000+00000218+00000+0001T   00000218+0000001724          1400 SB3150               3AZ
309801003309801112-116038     309801006009681820246TCS CARRIER BAG MIDI   0000001000+00000035+00000+0001T   00000035+0000001724          1400 SB3090               3AZ
309802000309802               309802               170213JT     1400+00000+JT0000008592+0000008592+000000000+000001203+0000009795+0000000000+I40000009795+0000000000+Z
309802001309802018-000130     309802006001023867537MUG OCC LOVE MINI+HEART0000001000+00003507+00000+0001T   00003507+0000001726          1400 SB3515               3AZ
309802002309802301-085004     309802006003000420469ORN LOVE PLAQUE 21X10CM0000001000+00003507+00000+0001T   00003946+0006471726          1400 SB3505               3AZ
309802003309802077-000303     309802006001023593757GIFT-BAG PAPER MED     0000001000+00001578+00000+0001T   00001578+0000001726          1400 SB3112               3AZ
309803000309803               309803               170213JT     1400+00000+JT0000001573+0000001573+000000000+000000222+0000001790+0000000005+I20000000000+0000001790+Z
309803001309803018-000177     309803006001023797513MUG MINI LOVE ASSTD    0000001000+00000700+00000+0001T   00000700+0000001728          1400 SB3515               3AZ
309803002309803006-000170-A   309803006003000608065BALLOONS 1PC PINK      0000001000+00000218+00000+0001T   00000218+0000001728          1400 SB3131               3AZ
309803003309803080-000133-A   309803006003000647019MINI VALENTINES CARD   0000001000+00000437+00000+0001T   00000437+0000001728          1400 SB3112               3AZ
309803004309803006-000172-D   309803006003000609932METALLIC GOLD          0000001000+00000218+00000+0001T   00000218+0000001728          1400 SB3131               3AZ
309804000309804               309804               170213JT     1400+00000+JT0000001578+0000001578+000000000+000000221+0000001790+0000000009+I20000000000+0000001790+Z
309804001309804077-000315     309804006003000181186GIFT-BAG 20x28cm MATT  0000001000+00001578+00000+0001T   00001578+0000001729          1400 SB3112               3AZ
309805000309805               309805               170213JT     1400+00000+JT0000019296-0000019296-000000000+000002702-0000022000-0000000002+I20000000000+0000022000-Z
309805001309805031-086301-C   309805006001023910240P/FRAME PL BRONZE 20X250000001000-00005262+00000+0001T   00007016+0000001731          1400 SB35101IC            3 Z
309805002309805031-001000     309805006003000253210P/FRAME CERTIFICATE    0000001000-00014034+00000+0001T   00014034+0000001731          1400 SB35101IC            3 Z
309806000309806               309806               170213JT     1400+00000+JT0000008153+0000008153+000000000+000001142+0000009290+0000000005+I20000000000+0000009290+Z
309806001309806004-071267     309806006001023907875LCD CLEANING KIT+CLOTH 0000001000+00003507+00000+0001T   00003507+0000001734          1400 SB3310               3AZ
309806002309806083-000305     309806006440024423302CIG-LIGHTER-GAS   300ml0000001000+00003507+00000+0001T   00003507+0000001734          1400 SB3315               3AZ
309806003309806903-000087     309806006001704000161SWT SPECKLED-EGGS 50G  0000001000+00001139+00000+0001T   00001139+0000001734          1400 SB3150               3AZ
309807000309807               309807               170213JT     1400+00000+JT0000001314+0000001314+000000000+000000184+0000001498+0000000000+I40000001498+0000000000+Z
309807001309807903-000844     309807005010478432567SWT CANDY DL LUV HEARTS0000001000+00001314+00000+0001T   00001314+0000001736          1400 SB3150               3AZ
309808000309808               309808               170213JT     1400+00000+JT0000001402+0000001402+000000000+000000197+0000001590+0000000009+I20000000000+0000001590+Z
309808001309808027-009030     309808006002814400100DUSTPAN PL             0000001000+00001402+00000+0001T   00001402+0000001736          1400 SB3212               3AZ
309809000309809               309809               170213JT     1400+00000+JT0000000874+0000000874+000000000+000000124+0000000990+0000000008+I20000000000+0000000990+Z
309809001309809083-000049     309809004891035200024CIG-LIGHTER DISPOSABLE 0000002000+00000437+00000+0001T   00000437+0000001739          1400 SB3315               3AZ
309810000309810               309810               170213JT     1400+00000+JT0000022495+0000022495+000000000+000003152+0000025647+0000000000+I40000025647+0000000000+Z
309810001309810112-116069     309810006009681820277TCS CARRIER BAG JUMBO  0000001000+00000048+00000+0001T   00000048+0000001744          1400 SB3090               3AZ
309810002309810079-013032-C   309810006003000389520POLY SHAPES            0000001000+00001578+00000+0001T   00001578+0000001744          1400 SB3130               3AZ
309810003309810079-011526     309810006003000408375GLITTER & SAND ART     0000001000+00003507+00000+0001T   00003507+0000001744          1400 SB3130               3AZ
309810004309810079-001002     309810006003000448715CANVAS A4 WOOD MOUNTED 0000002000+00002630+00000+0001T   00002630+0000001744          1400 SB3130               3AZ
309810005309810566-000070     309810006003000283798STICKERS POP UP ASSTD  0000001000+00001753+00000+0001T   00001753+0000001744          1400 SB3130               3AZ
309810006309810566-001234     309810006003000217793STICKERS LASER ASSTD   0000001000+00001578+00000+0001T   00001578+0000001744          1400 SB3130               3AZ
309810007309810031-000925     309810006001023669995P/FRAME WDN WHITE W/WRD0000001000+00008771+00000+0001T   00008771+0000001744          1400 SB3510               3AZ
309811000309811               309811               170213JT     1400+00000+JT0000003156+0000003156+000000000+000000442+0000003590+0000000008+I20000000000+0000003590+Z
309811001309811077-000315     309811006003000181186GIFT-BAG 20x28cm MATT  0000002000+00001578+00000+0001T   00001578+0000001744          1400 SB3112               3AZ
309812000309812               309812               170213JT     1400+00000+JT0000000613+0000000613+000000000+000000086+0000000690+0000000009+I20000000000+0000000690+Z
309812001309812077-000311     309812006001023608666GIFT-BAG 11X14CM GLOSS 0000001000+00000613+00000+0001T   00000613+0000001745          1400 SB3112               3AZ
309813000309813               309813               170213JT     1400+00000+JT0000003191+0000003191+000000000+000000447+0000003638+0000000000+I40000003638+0000000000+Z
309813001309813077-000315     309813006003000181186GIFT-BAG 20x28cm MATT  0000002000+00001578+00000+0001T   00001578+0000001749          1400 SB3112               3AZ
309813002309813112-116038     309813006009681820246TCS CARRIER BAG MIDI   0000001000+00000035+00000+0001T   00000035+0000001749          1400 SB3090               3AZ
309814000309814               309814               170213JT     1400+00000+JT0000003506+0000003506+000000000+000000492+0000003990+0000000008+I20000000000+0000003990+Z
309814001309814903-000211     309814006002099001238SWT GS MALLOW ICE CREAM0000002000+00001753+00000+0001T   00001753+0000001751          1400 SB3150               3AZ
309815000309815               309815               170213JT     1400+00000+JT0000004207+0000004207+000000000+000000590+0000004790+0000000007+I20000000000+0000004790+Z
309815001309815006-000805     309815000013994092418STREAMERS 10-ROLLS     0000002000+00001490+00000+0001T   00001490+0000001752          1400 SB3131               3AZ
309815002309815077-000245     309815006001023759214GIFT-RIBBON METALLICx2 0000001000+00001227+00000+0001T   00001227+0000001752          1400 SB3112               3AZ
309816000309816               309816               170213JT     1400+00000+JT0000004420+0000004420+000000000+000000619+0000005030+0000000009+I20000000000+0000005030+Z
309816001309816562-000743     309816006001023712318EDU BLOCKS SHAPE PL    0000001000+00004385+00000+0001T   00004385+0000001801          1400 SB3755               3AZ
309816002309816112-116038     309816006009681820246TCS CARRIER BAG MIDI   0000001000+00000035+00000+0001T   00000035+0000001801          1400 SB3090               3AZ
309817000309817               309817               170213JT     1400+00000+JT0000007016+0000007016+000000000+000000983+0000007990+0000000009+I20000000000+0000007990+Z
309817001309817024-000109     309817006001023902337MINI-CUP PAN 12CUP     0000001000+00007016+00000+0001T   00007016+0000001802          1400 SB3300               3AZ
309818000309818               309818               170213JT     1400+00000+JT0000004420+0000004420+000000000+000000619+0000005030+0000000009+I20000000000+0000005030+Z
309818001309818403-000508     309818006001023691309M-BANK PIGGY W/HAMMER  0000001000+00004385+00000+0001T   00004385+0000001805          1400 SB3510               3AZ
309818002309818112-116038     309818006009681820246TCS CARRIER BAG MIDI   0000001000+00000035+00000+0001T   00000035+0000001805          1400 SB3090               3AZ
309819000309819               309819               170213JT     1400+00000+JT0000005959+0000005959+000000000+000000836+0000006795+0000000000+I40000006795+0000000000+Z
309819001309819077-000358     309819006003000329977GIFT-BAG KIDS 25X32CM  0000001000+00001753+00000+0001T   00001753+0000001806          1400 SB3112               3AZ
309819002309819903-000297     309819006001704002950SWT MS WILD BERRY 50G  0000002000+00000876+00000+0001T   00000876+0000001806          1400 SB3150               3AZ
309819003309819903-000510     309819006001704012621SWEET MS ZBDZ S/BERRY  0000002000+00001227+00000+0001T   00001227+0000001806          1400 SB3150               3AZ
309820000309820               309820               170213JT     1400+00000+JT0000001753+0000001753+000000000+000000246+0000001990+0000000009+I20000000000+0000001990+Z
309820001309820077-000382     309820006003000247820GIFT-BAG MED 18X23CM   0000001000+00001753+00000+0001T   00001753+0000001807          1400 SB3112               3AZ
A17021300                                          08410160JTSLAVE 3                       SB31IC
A17021301                                          09003054JTSLAVE 3                       SB33IC
A17021302                                          09340092JTSLAVE 3                       SB33IC
A17021303                                          10175697JTSLAVE 3                       SB33IC
A17021304                                          11312274JTSLAVE 3                       SB33IC
A17021305                                          15331058JTSLAVE 3                       SB31IC
M17021391                              CASH        JTSLAVE 3                       Z-REPORT No.   642TOTAL (Sales - Refunds)          11201.29       CASH TO BE BANKED                 3563.10       DEBIT CARDS                          0.00       CREDIT CARDS                      7638.19       Z-READING                        11201.29       AIRTIME DEBIT CARD SALES             0.00       AIRTIME CARD SALES                   0.00       OVERS/UNDERS                         0.00       AIRTIME CASH SALES                   0.00       GIFT CARDS                           0.00       GIFT CARD CASH SALES                 0.00       T O T A L  CASH PAYOUTS              0.00                                                                                                                                                                                                                                                                                                                                                      Z
M17021392                              CASH        JTABSENT                                                                                                                                                                                          ANNUAL LEAVE                                                                                                                                                                                    DAY OFF                                                                                                                                                                                         COMMENTS                                                                                                                                                                                                                                                                                                                                                                                       Z
Y17021300                                          JT00000001037296+000144
ZJT17021319553 SLAVE 3      SALES DATA                     NEXT INVOICE NO.  309821 0642
X JT Slave 3 First invoice 309674 170213 Last invoice 309820 170213 Next invoice 309821 Total number of records 000000529 clbackup completed 19:55:41
