114813000114813               114813               170213JU     1400+00000+JU0000000000+0000000000+000000000+000000000+0000000000+0000000000+ 00000000000+0000000000+Z
114814000114814               114814               170213JU     1400+00000+JU0000018903+0000018903+000000000+000002649+0000021552+0000000000+I40000021552+0000000000+Z
114814001114814112-116069     114814006009681820277TCS CARRIER BAG JUMBO  0000001000+00000048+00000+0001T   00000048+0000000945          1400 GB5090               1DZ
114814002114814080-000133-A   114814006003000647019MINI VALENTINES CARD   0000001000+00000437+00000+0001T   00000437+0000000945          1400 GB5112               1DZ
114814003114814368-000111     114814006001023780812PLUSH BEAR/DOG 29CM    0000001000+00012279+00000+0001T   00012279+0000000945          1400 GB5745               1DZ
114814004114814368-000104     114814006001023751348PLUSH BEAR RUFFLED-LOOK0000001000+00006139+00000+0001T   00006139+0000000945          1400 GB5745               1DZ
114815000114815               114815               170213JU     1400+00000+JU0000005260+0000005260+000000000+000000738+0000005990+0000000008+I20000000000+0000005990+Z
114815001114815200-000003     114815006003000532360DISPOSABLE BAG 100PC   0000002000+00002630+00000+0001T   00002630+0000000953          1400 GB5214               1DZ
114816000114816               114816               170213JU     1400+00000+JU0000001753+0000001753+000000000+000000246+0000001999+0000000000+I40000001999+0000000000+Z
114816001114816080-000113     114816006003000237449CARD&ENVLPE - LOVE     0000001000+00001753+00000+0001T   00001753+0000000956          1400 GB5112               1DZ
114817000114817               114817               170213JU     1400+00000+JU0000002892+0000002892+000000000+000000405+0000003290+0000000007+I20000000000+0000003290+Z
114817001114817077-000920     114817006003000413812G/WRAP 700mmx2m BIRTHDA0000001000+00002192+00000+0001T   00002192+0000000959          1400 GB5112               1DZ
114817002114817564-000012     114817006001023130075BUBBLE BOTTLE MAGIC    0000001000+00000700+00000+0001T   00000700+0000000959          1400 GB5131               1DZ
114818000114818               114818               170213JU     1400+00000+JU0000000874+0000000874+000000000+000000124+0000000990+0000000008+I20000000000+0000000990+Z
114818001114818080-000133-A   114818006003000647019MINI VALENTINES CARD   0000002000+00000437+00000+0001T   00000437+0000001000          1400 GB5112               1DZ
114819000114819               114819               170213JU     1400+00000+JU0000001752+0000001752+000000000+000000246+0000001990+0000000008+I20000000000+0000001990+Z
114819001114819039-000319-0   114819006003000441273B/CANDLES LRG NUMBER-0 0000001000+00000876+00000+0001T   00000876+0000001019          1400 GB5510               1DZ
114819002114819039-000319-5   114819006003000442867B/CANDLES LRG NUMBER-5 0000001000+00000876+00000+0001T   00000876+0000001019          1400 GB5510               1DZ
114820000114820               114820               170213JU     1400+00000+JU0000006139+0000006139+000000000+000000860+0000006990+0000000009+I20000000000+0000006990+Z
114820001114820018-050000     114820006003000412679MUG OCC LOVE TWIN BEAR 0000001000+00006139+00000+0001T   00006139+0000001030          1400 GB5515               1DZ
114821000114821               114821               170213JU     1400+00000+JU0000004383+0000004383+000000000+000000615+0000004990+0000000008+I20000000000+0000004990+Z
114821001114821046-002013-PK6 114821004897006174851BATTERY BUTTON AG13 6PC0000001000+00001753+00000+0001T   00001753+0000001157          1400 GB5312               1DZ
114821002114821077-000270     114821006003000395453GIFT-BAG PPR JMB 33X45 0000001000+00002630+00000+0001T   00002630+0000001157          1400 GB5112               1DZ
114822000114822               114822               170213JU     1400+00000+JU0000000788+0000000788+000000000+000000111+0000000899+0000000000+I40000000899+0000000000+Z
114822001114822077-000010-D   114822006001023123886CREPE-PAPER WHITE      0000001000+00000788+00000+0001T   00000788+0000001159          1400 GB5112               1DZ
114823000114823               114823               170213JU     1400+00000+JU0000011401+0000011401+000000000+000001597+0000012998+0000000000+I40000012998+0000000000+Z
114823001114823586-011941     114823006001492119410WATCH KIDS RAINBOW ASST0000001000+00008771+00000+0001T   00008771+0000001202          1400 GB5160               1DZ
114823002114823106-001099     114823006003000653447WATER BOTTLE 650ml     0000001000+00002630+00000+0001T   00002630+0000001202          1400 GB5210               1DZ
114824000114824               114824               170213JU     1400+00000+JU0000007060+0000007060+000000000+000000991+0000008050+0000000001+I20000000000+0000008050+Z
114824001114824112-116069     114824006009681820277TCS CARRIER BAG JUMBO  0000001000+00000048+00000+0001T   00000048+0000001203          1400 GB5090               1DZ
114824002114824007-000205     114824006002324000432FILE BINDER 2-RING A4  0000004000+00001753+00000+0001T   00001753+0000001203          1400 GB5130               1DZ
114825000114825               114825               170213JU     1400+00000+JU0000003628+0000003628+000000000+000000509+0000004137+0000000000+I40000004137+0000000000+Z
114825001114825077-000303     114825006001023593757GIFT-BAG PAPER MED     0000001000+00001578+00000+0001T   00001578+0000001205          1400 GB5112               1DZ
114825002114825083-000049     114825004891035200024CIG-LIGHTER DISPOSABLE 0000001000+00000437+00000+0001T   00000437+0000001205          1400 GB5315               1DZ
114825003114825018-000127     114825006001023380289MUG OCC STRAIGHT LOVE  0000001000+00001578+00000+0001T   00001753+0006471205          1400 GB5515               1DZ
114825004114825112-116038     114825006009681820246TCS CARRIER BAG MIDI   0000001000+00000035+00000+0001T   00000035+0000001205          1400 GB5090               1DZ
114826000114826               114826               170213JU     1400+00000+JU0000003156+0000003156+000000000+000000442+0000003590+0000000008+I20000000000+0000003590+Z
114826001114826077-000303     114826006001023593757GIFT-BAG PAPER MED     0000002000+00001578+00000+0001T   00001578+0000001206          1400 GB5112               1DZ
114827000114827               114827               170213JU     1400+00000+JU0000010085+0000010085+000000000+000001412+0000011497+0000000000+I40000011497+0000000000+Z
114827001114827368-000614     114827006001023705808PLUSH LOVE 30cm        0000001000+00008771+00000+0001T   00008771+0000001208          1400 GB5745               1DZ
114827002114827903-000844     114827005010478432567SWT CANDY DL LUV HEARTS0000001000+00001314+00000+0001T   00001314+0000001208          1400 GB5150               1DZ
114828000114828               114828               170213JU     1400+00000+JU0000030125+0000030125+000000000+000004222+0000034347+0000000000+I40000034347+0000000000+Z
114828001114828112-116069     114828006009681820277TCS CARRIER BAG JUMBO  0000001000+00000048+00000+0001T   00000048+0000001213          1400 GB5090               1DZ
114828002114828077-000452     114828006003000284986G/BAG METALLIC MED EMB 0000002000+00001490+00000+0001T   00001490+0000001213          1400 GB5112               1DZ
114828003114828368-000175     114828006003000270316PLUSH BEAR 4 ASSTD 18CM0000002000+00006139+00000+0001T   00006139+0000001213          1400 GB5745               1DZ
114828004114828361-003005     114828006003000397570DOLL 29CM:BONNIE PET   0000001000+00010525+00000+0001T   00010525+0000001213          1400 GB5725               1DZ
114828005114828077-000304     114828006001023483232GIFT-BAG 25X32CM E/DAY 0000001000+00001490+00000+0001T   00001490+0000001213          1400 GB5112               1DZ
114828006114828304-001204     114828006001023737984FLOWER OCC. TEDDY/ROSES0000002000+00001402+00000+0001T   00001490+0006471213          1400 GB5510               1DZ
114829000114829               114829               170213JU     1400+00000+JU0000006138+0000006138+000000000+000000860+0000006990+0000000008+I20000000000+0000006990+Z
114829001114829018-030000     114829006003000421060MUG OCCASIONS LOVE 2PCE0000001000+00004385+00000+0001T   00004385+0000001213          1400 GB5515               1DZ
114829002114829077-000382     114829006003000247820GIFT-BAG MED 18X23CM   0000001000+00001753+00000+0001T   00001753+0000001213          1400 GB5112               1DZ
114830000114830               114830               170213JU     1400+00000+JU0000002630+0000002630+000000000+000000369+0000002999+0000000000+I40000002999+0000000000+Z
114830001114830077-000235     114830006003000160211GIFT-RIBBON ROLL METALC0000001000+00002630+00000+0001T   00002630+0000001216          1400 GB5112               1DZ
114831000114831               114831               170213JU     1400+00000+JU0000020479+0000020479+000000000+000002870+0000023349+0000000000+I40000023349+0000000000+Z
114831001114831077-000270     114831006003000395453GIFT-BAG PPR JMB 33X45 0000001000+00002630+00000+0001T   00002630+0000001220          1400 GB5112               1DZ
114831002114831031-001008     114831006003000406494P/FRAME COLLAGE PLASTIC0000001000+00012279+00000+0001T   00012279+0000001220          1400 GB5510               1DZ
114831003114831018-000127     114831006001023380289MUG OCC STRAIGHT LOVE  0000001000+00001578+00000+0001T   00001753+0006471220          1400 GB5515               1DZ
114831004114831080-000133-A   114831006003000647019MINI VALENTINES CARD   0000001000+00000437+00000+0001T   00000437+0000001220          1400 GB5112               1DZ
114831005114831031-005853     114831006003000442416P/FRAME WDN TWIN HEARTS0000001000+00003507+00000+0001T   00003507+0000001220          1400 GB5510               1DZ
114831006114831112-116069     114831006009681820277TCS CARRIER BAG JUMBO  0000001000+00000048+00000+0001T   00000048+0000001220          1400 GB5090               1DZ
114832000114832               114832               170213JU     1400+00000+JU0000002454+0000002454+000000000+000000344+0000002790+0000000008+I20000000000+0000002790+Z
114832001114832077-000011-C   114832006001023808523TISSUE 10xSHTS RED     0000001000+00000876+00000+0001T   00000876+0000001223          1400 GB5112               1DZ
114832002114832077-000303     114832006001023593757GIFT-BAG PAPER MED     0000001000+00001578+00000+0001T   00001578+0000001223          1400 GB5112               1DZ
114833000114833               114833               170213JU     1400+00000+JU0000008627+0000008627+000000000+000001208+0000009835+0000000000+I40000009835+0000000000+Z
114833001114833031-000002-A   114833006003000247103P/FRAME LOVE 7.5X7.5CM 0000001000+00003507+00000+0001T   00003507+0000001228          1400 GB5510               1DZ
114833002114833018-000136     114833006001023659026MUG OCC LOVE W/PLUSH   0000001000+00003507+00000+0001T   00003507+0000001228          1400 GB5515               1DZ
114833003114833077-000303     114833006001023593757GIFT-BAG PAPER MED     0000001000+00001578+00000+0001T   00001578+0000001228          1400 GB5112               1DZ
114833004114833112-116038     114833006009681820246TCS CARRIER BAG MIDI   0000001000+00000035+00000+0001T   00000035+0000001228          1400 GB5090               1DZ
114834000114834               114834               170213JU     1400+00000+JU0000003542+0000003542+000000000+000000496+0000004030+0000000008+I20000000000+0000004030+Z
114834001114834018-000136     114834006001023659026MUG OCC LOVE W/PLUSH   0000001000+00003507+00000+0001T   00003507+0000001229          1400 GB5515               1DZ
114834002114834112-116038     114834006009681820246TCS CARRIER BAG MIDI   0000001000+00000035+00000+0001T   00000035+0000001229          1400 GB5090               1DZ
114835000114835               114835               170213JU     1400+00000+JU0000004732+0000004732+000000000+000000665+0000005390+0000000007+I20000000000+0000005390+Z
114835001114835079-009702-D   114835008427973059354PAPER SIRIO A2 RED COL 0000001000+00001051+00000+0001T   00001051+0000001236          1400 GB5130               1DZ
114835002114835079-009702-B   114835008427973059491PAPER SIRIO A2 WHITE   0000001000+00001051+00000+0001T   00001051+0000001236          1400 GB5130               1DZ
114835003114835006-006018     114835006001023735256PARTY-SPRAY HAIR ASSORT0000001000+00002630+00000+0001T   00002630+0000001236          1400 GB5131               1DZ
114836000114836               114836               170213JU     1400+00000+JU0000013157+0000013157+000000000+000001842+0000014990+0000000009+I20000000000+0000014990+Z
114836001114836031-001012     114836006003000675104P/FRAME WDN COLLAGE    0000001000+00013157+00000+0001T   00013157+0000001242          1400 GB5510               1DZ
114837000114837               114837               170213JU     1400+00000+JU0000019151+0000019151+000000000+000002687+0000021830+0000000008+I20000000000+0000021830+Z
114837001114837304-001204     114837006001023737984FLOWER OCC. TEDDY/ROSES0000002000+00001402+00000+0001T   00001490+0006471252          1400 GB5510               1DZ
114837002114837077-000310     114837006001023608635GIFT-BAG 18X23CM GLOSS 0000002000+00001314+00000+0001T   00001314+0000001252          1400 GB5112               1DZ
114837003114837018-005009     114837006001023725608MUG W/PLUSH-BEAR LOVE  0000003000+00003507+00000+0001T   00003507+0000001252          1400 GB5515               1DZ
114837004114837112-116069     114837006009681820277TCS CARRIER BAG JUMBO  0000001000+00000048+00000+0001T   00000048+0000001252          1400 GB5090               1DZ
114837005114837080-000133-A   114837006003000647019MINI VALENTINES CARD   0000004000+00000437+00000+0001T   00000437+0000001252          1400 GB5112               1DZ
114837006114837304-001204     114837006001023737984FLOWER OCC. TEDDY/ROSES0000001000+00001402+00000+0001T   00001490+0006471252          1400 GB5510               1DZ
114838000114838               114838               170213JU     1400+00000+JU0000003507+0000003507+000000000+000000491+0000003990+0000000008+I20000000000+0000003990+Z
114838001114838065-006040     114838006003000118984BELL WDN HANDLE 19cm   0000001000+00003507+00000+0001T   00003507+0000001300          1400 GB5745               1DZ
114839000114839               114839               170213JU     1400+00000+JU0000001753+0000001753+000000000+000000246+0000001990+0000000009+I20000000000+0000001990+Z
114839001114839077-000308     114839006001023595812GIFT-BAG 33X45CM E/DAY 0000001000+00001753+00000+0001T   00001753+0000001301          1400 GB5112               1DZ
114840000114840               114840               170213JU     1400+00000+JU0000002716+0000002716+000000000+000000381+0000003090+0000000007+I20000000000+0000003090+Z
114840001114840077-000311     114840006001023608666GIFT-BAG 11X14CM GLOSS 0000002000+00000613+00000+0001T   00000613+0000001302          1400 GB5112               1DZ
114840002114840077-000452     114840006003000284986G/BAG METALLIC MED EMB 0000001000+00001490+00000+0001T   00001490+0000001302          1400 GB5112               1DZ
114841000114841               114841               170213JU     1400+00000+JU0000027926+0000027926+000000000+000003915+0000031841+0000000000+I40000031841+0000000000+Z
114841001114841112-116069     114841006009681820277TCS CARRIER BAG JUMBO  0000001000+00000048+00000+0001T   00000048+0000001305          1400 GB5090               1DZ
114841002114841018-000127     114841006001023380289MUG OCC STRAIGHT LOVE  0000002000+00001578+00000+0001T   00001753+0006471305          1400 GB5515               1DZ
114841003114841903-000095     114841006001704011495SWT SPECKLED-EGGS 100G 0000001000+00002104+00000+0001T   00002104+0000001305          1400 GB5150               1DZ
114841004114841903-000295     114841006001704002899SWT MS FRUITY RASCALS  0000001000+00000876+00000+0001T   00000876+0000001305          1400 GB5150               1DZ
114841005114841903-000095     114841006001704011495SWT SPECKLED-EGGS 100G 0000001000+00002104+00000+0001T   00002104+0000001305          1400 GB5150               1DZ
114841006114841903-000137     114841006002099004130SWEET GS JELLY BEAN 60G0000002000+00000788+00000+0001T   00000788+0000001305          1400 GB5150               1DZ
114841007114841903-000295     114841006001704002899SWT MS FRUITY RASCALS  0000001000+00000876+00000+0001T   00000876+0000001305          1400 GB5150               1DZ
114841008114841903-000499     114841006001704012492SWT CHOC MALLOWS 50g   0000001000+00001227+00000+0001T   00001227+0000001305          1400 GB5150               1DZ
114841009114841903-000504     114841006001704012416SWT CHOC JELLY BEANS   0000001000+00001227+00000+0001T   00001227+0000001305          1400 GB5150               1DZ
114841010114841903-000499     114841006001704012492SWT CHOC MALLOWS 50g   0000001000+00001227+00000+0001T   00001227+0000001305          1400 GB5150               1DZ
114841011114841903-000504     114841006001704012416SWT CHOC JELLY BEANS   0000001000+00001227+00000+0001T   00001227+0000001305          1400 GB5150               1DZ
114841012114841368-000175     114841006003000270316PLUSH BEAR 4 ASSTD 18CM0000001000+00006139+00000+0001T   00006139+0000001305          1400 GB5745               1DZ
114841013114841368-000175     114841006003000270316PLUSH BEAR 4 ASSTD 18CM0000001000+00006139+00000+0001T   00006139+0000001305          1400 GB5745               1DZ
114842000114842               114842               170213JU     1400+00000+JU0000002367+0000002367+000000000+000000332+0000002690+0000000009+I20000000000+0000002690+Z
114842001114842046-000010-A   114842006003000438778BATTERIES SIZE:AAA 4PCE0000001000+00002367+00000+0001T   00002367+0000001306          1400 GB5312               1DZ
114843000114843               114843               170213JU     1400+00000+JU0000005484+0000005484+000000000+000000769+0000006250+0000000003+I20000000000+0000006250+Z
114843001114843017-000251     114843006003000242689P/ALBUM 36-PHOTO PLAIN 0000001000+00003946+00000+0001T   00003946+0000001306          1400 GB5510               1DZ
114843002114843077-000452     114843006003000284986G/BAG METALLIC MED EMB 0000001000+00001490+00000+0001T   00001490+0000001306          1400 GB5112               1DZ
114843003114843112-116069     114843006009681820277TCS CARRIER BAG JUMBO  0000001000+00000048+00000+0001T   00000048+0000001306          1400 GB5090               1DZ
114844000114844               114844               170213JU     1400+00000+JU0000003943+0000003943+000000000+000000553+0000004490+0000000006+I20000000000+0000004490+Z
114844001114844107-004105     114844006002923010504BUCKET 9L OPEN         0000001000+00001314+00000+0001T   00001314+0000001405          1400 GB5210               1DZ
114844002114844106-007125     114844006003000057689MILK-SACHET-JUG 1,0L   0000001000+00001753+00000+0001T   00001753+0000001405          1400 GB5210               1DZ
114844003114844133-000079     114844006003000277193KITCHEN SWAB 30x30CM   0000001000+00000876+00000+0001T   00000876+0000001405          1400 GB5212               1DZ
114845000114845               114845               170213JU     1400+00000+JU0000014032+0000014032+000000000+000001966+0000015998+0000000000+I40000015998+0000000000+Z
114845001114845562-002007     114845006003000228188LEARNING EDU ALPHABET  0000001000+00007016+00000+0001T   00007016+0000001408          1400 GB5755               1DZ
114845002114845562-002003     114845006003000228898EDU LEARN TO COUNT     0000001000+00007016+00000+0001T   00007016+0000001408          1400 GB5755               1DZ
114846000114846               114846               170213JU     1400+00000+JU0000004416+0000004416+000000000+000000619+0000005030+0000000005+I20000000000+0000005030+Z
114846001114846079-006496     114846006003000160105GLITTER SHAKERS        0000001000+00001753+00000+0001T   00001753+0000001409          1400 GB5130               1DZ
114846002114846006-000166-D   114846006003000516490BALLOONS LRG 6PC RED   0000002000+00001314+00000+0001T   00001314+0000001409          1400 GB5131               1DZ
114846003114846112-116038     114846006009681820246TCS CARRIER BAG MIDI   0000001000+00000035+00000+0001T   00000035+0000001409          1400 GB5090               1DZ
114847000114847               114847               170213JU     1400+00000+JU0000002802+0000002802+000000000+000000394+0000003190+0000000006+I20000000000+0000003190+Z
114847001114847903-002851     114847000000087108538MENTOS ROLL STRAWBERRY 0000002000+00001051+00000+0001T   00001051+0000001412          1400 GB5150               1DZ
114847002114847903-000070     114847006001704001106SWT TOFFEE CREAMY 35g  0000001000+00000700+00000+0001T   00000700+0000001412          1400 GB5150               1DZ
114848000114848               114848               170213JU     1400+00000+JU0000002104+0000002104+000000000+000000295+0000002390+0000000009+I20000000000+0000002390+Z
114848001114848903-000095     114848006001704011495SWT SPECKLED-EGGS 100G 0000001000+00002104+00000+0001T   00002104+0000001413          1400 GB5150               1DZ
114849000114849               114849               170213JU     1400+00000+JU0000002630+0000002630+000000000+000000369+0000002990+0000000009+I20000000000+0000002990+Z
114849001114849466-000515     114849006001023477408BALLS TENNIS BAG-OF-3  0000001000+00002630+00000+0001T   00002630+0000001417          1400 GB5785               1DZ
114850000114850               114850               170213JU     1400+00000+JU0000000000+0000000000+000000000+000000000+0000000000+0000000000+I20000000000+0000000000+Z
114850001114850080-000113     114850006003000237449CARD&ENVLPE - LOVE     0000001000-00001753+00000+0001T   00001753+0000001425          1400 GB51121IC            1DZ
114850002114850080-000113     114850006003000237449CARD&ENVLPE - LOVE     0000001000+00001753+00000+0001T   00001753+0000001425          1400 GB51121IC            1 Z
114851000114851               114851               170213JU     1400+00000+JU0000022236+0000022236+000000000+000003114+0000025350+0000000000+I20000000000+0000025350+Z
114851001114851022-010610     114851006001023733177ROASTER 20cm RND 1st-GR0000001000+00017542+00000+0001T   00017542+0000001427          1400 GB5305               1DZ
114851002114851051-002400     114851006001023616180TRIGGER-SPRAYER 900ml  0000001000+00002192+00000+0001T   00002192+0000001427          1400 GB5820               1DZ
114851003114851077-000318     114851006001023609755GIFT-BAG 18X23CM E/D AN0000002000+00001227+00000+0001T   00001227+0000001427          1400 GB5112               1DZ
114851004114851112-116069     114851006009681820277TCS CARRIER BAG JUMBO  0000001000+00000048+00000+0001T   00000048+0000001427          1400 GB5090               1DZ
114852000114852               114852               170213JU     1400+00000+JU0000021096+0000021096+000000000+000002956+0000024052+0000000000+I40000024052+0000000000+Z
114852001114852112-116069     114852006009681820277TCS CARRIER BAG JUMBO  0000001000+00000048+00000+0001T   00000048+0000001429          1400 GB5090               1DZ
114852002114852369-000202     114852006003000636938BABY EDU PLAY/LEARN    0000001000+00007893+00000+0001T   00007893+0000001429          1400 GB5745               1DZ
114852003114852560-000301     114852006001023800275DINOSAUR VINYL 23cm    0000001000+00007016+00000+0001T   00007016+0000001429          1400 GB5745               1DZ
114852004114852560-000229     114852006003000469468ANIMALS BIG EYES ASSTD 0000001000+00006139+00000+0001T   00006139+0000001429          1400 GB5745               1DZ
114853000114853               114853               170213JU     1400+00000+JU0000000000+0000000000+000000000+000000000+0000000000+0000000000+I20000000000+0000000000+Z
114853001114853077-000289     114853006001023901996GIFT BOX 20x25x11cm    0000001000+00001753+00000+0001T   00001753+0000001432          1400 GB5112               1 Z
114853002114853368-000175     114853006003000270316PLUSH BEAR 4 ASSTD 18CM0000001000-00006139+00000+0001T   00006139+0000001432          1400 GB57451IC            1 Z
114853003114853077-000289     114853006001023901996GIFT BOX 20x25x11cm    0000001000-00001753+00000+0001T   00001753+0000001432          1400 GB51121IC            1 Z
114853004114853368-000175     114853006003000270316PLUSH BEAR 4 ASSTD 18CM0000001000+00006139+00000+0001T   00006139+0000001432          1400 GB5745               1 Z
114854000114854               114854               170213JU     1400+00000+JU0000006138+0000006138+000000000+000000860+0000006998+0000000000+I40000006998+0000000000+Z
114854001114854368-000001     114854006003000097982Plush Bear 25cm        0000001000+00004385+00000+0001T   00004385+0000001433          1400 GB5745               1DZ
114854002114854077-000290     114854006001023902023GIFT BOX 26x32x13cm    0000001000+00001753+00000+0001T   00001753+0000001433          1400 GB5112               1DZ
114855000114855               114855               170213JU     1400+00000+JU0000002014+0000002014+000000000+000000283+0000002290+0000000007+I20000000000+0000002290+Z
114855001114855077-000317     114855006001023609748GIFT-BAG 11X14CM E/D AN0000001000+00000613+00000+0001T   00000613+0000001434          1400 GB5112               1DZ
114855002114855077-000321     114855006001023677501GIFT-BAG 11X14CM E/D FL0000001000+00000613+00000+0001T   00000613+0000001434          1400 GB5112               1DZ
114855003114855077-000383     114855006003000247943GIFT-BAG 11X14CM S/COL 0000001000+00000788+00000+0001T   00000788+0000001434          1400 GB5112               1DZ
114856000114856               114856               170213JU     1400+00000+JU0000008066+0000008066+000000000+000001130+0000009190+0000000006+I20000000000+0000009190+Z
114856001114856301-085008     114856006003000673933ORN OCC.LOVE TINSEL HRT0000001000+00003069+00000+0001T   00003069+0000001435          1400 GB5505               1DZ
114856002114856018-005009     114856006001023725608MUG W/PLUSH-BEAR LOVE  0000001000+00003507+00000+0001T   00003507+0000001435          1400 GB5515               1DZ
114856003114856077-000299     114856006003000395576G/BAG 32x25cm LRG LOVE 0000001000+00001490+00000+0001T   00001490+0000001435          1400 GB5112               1DZ
114857000114857               114857               170213JU     1400+00000+JU0000004420+0000004420+000000000+000000619+0000005030+0000000009+I20000000000+0000005030+Z
114857001114857112-116038     114857006009681820246TCS CARRIER BAG MIDI   0000001000+00000035+00000+0001T   00000035+0000001439          1400 GB5090               1DZ
114857002114857031-080508     114857006001023802415P/FRAME PL 22X11CM LOVE0000001000+00004385+00000+0001T   00004385+0000001439          1400 GB5510               1DZ
114858000114858               114858               170213JU     1400+00000+JU0000008769+0000008769+000000000+000001228+0000009990+0000000007+I20000000000+0000009990+Z
114858001114858464-009011     114858006003000647675FISHING WITH TWO RODS  0000001000+00005262+00000+0001T   00005262+0000001441          1400 GB5785               1DZ
114858002114858560-000106     114858006001023747099FROG FOAM BEADS 10cm   0000001000+00003507+00000+0001T   00003507+0000001441          1400 GB5745               1DZ
114859000114859               114859               170213JU     1400+00000+JU0000004383+0000004383+000000000+000000615+0000004990+0000000008+I20000000000+0000004990+Z
114859001114859106-001125     114859006003000666270WATER BOTTLE 600ml     0000001000+00002630+00000+0001T   00002630+0000001443          1400 GB5210               1DZ
114859002114859089-000030     114859006003000575671K/CHAIN LOVE MTL ASSTD 0000001000+00001753+00000+0001T   00001753+0000001443          1400 GB5205               1DZ
114860000114860               114860               170213JU     1400+00000+JU0000007013+0000007013+000000000+000000983+0000007996+0000000000+I40000007996+0000000000+Z
114860001114860015-000103     114860006001023821775WHITEWARE SOUP-BOWL    0000002000+00001753+00000+0001T   00001753+0000001447          1400 GB5515               1DZ
114860002114860009-001810     114860006003000569076MELAMINE TRAY RECT     0000001000+00003507+00000+0001T   00003507+0000001447          1400 GB5210               1DZ
114861000114861               114861               170213JU     1400+00000+JU0000002630+0000002630+000000000+000000369+0000002990+0000000009+I20000000000+0000002990+Z
114861001114861077-000005-B   114861006003000326617PAPER TISSUE PATTERN   0000001000+00002630+00000+0001T   00002630+0000001447          1400 GB5112               1DZ
114862000114862               114862               170213JU     1400+00000+JU0000001227+0000001227+000000000+000000172+0000001390+0000000009+I20000000000+0000001390+Z
114862001114862077-000322     114862006001023677532GIFT-BAG 18X23CM E/D FL0000001000+00001227+00000+0001T   00001227+0000001448          1400 GB5112               1DZ
114863000114863               114863               170213JU     1400+00000+JU0000004383+0000004383+000000000+000000615+0000004990+0000000008+I20000000000+0000004990+Z
114863001114863306-001618     114863006003000571574INNER SOLES 2-PAIR KIDS0000001000+00002630+00000+0001T   00002630+0000001451          1400 GB5200               1DZ
114863002114863079-000341     114863006920705495519FELT-TIP PENS 12PCE    0000001000+00001753+00000+0001T   00001753+0000001451          1400 GB5130               1DZ
114864000114864               114864               170213JU     1400+00000+JU0000023670+0000023670+000000000+000003321+0000026991+0000000000+I40000026991+0000000000+Z
114864001114864051-600672     114864006003000523658GARDEN-FENCE PL 60x28cm0000009000+00002630+00000+0001T   00002630+0000001454          1400 GB5820               1DZ
114865000114865               114865               170213JU     1400+00000+JU0000022137+0000022137+000000000+000003105+0000025242+0000000000+I40000025242+0000000000+Z
114865001114865112-116069     114865006009681820277TCS CARRIER BAG JUMBO  0000001000+00000048+00000+0001T   00000048+0000001456          1400 GB5090               1DZ
114865002114865903-000510     114865006001704012621SWEET MS ZBDZ S/BERRY  0000001000+00001227+00000+0001T   00001227+0000001456          1400 GB5150               1DZ
114865003114865903-000519     114865006001704012805SWT MS LIQ-O-GHETTI    0000001000+00001227+00000+0001T   00001227+0000001456          1400 GB5150               1DZ
114865004114865903-000510     114865006001704012621SWEET MS ZBDZ S/BERRY  0000002000+00001227+00000+0001T   00001227+0000001456          1400 GB5150               1DZ
114865005114865024-000018     114865006001023610232CAKE-DEC S/S NOZZLE    0000001000+00003946+00000+0001T   00003946+0000001456          1400 GB5300               1DZ
114865006114865077-000299     114865006003000395576G/BAG 32x25cm LRG LOVE 0000001000+00001490+00000+0001T   00001490+0000001456          1400 GB5112               1DZ
114865007114865077-000322     114865006001023677532GIFT-BAG 18X23CM E/D FL0000001000+00001227+00000+0001T   00001227+0000001456          1400 GB5112               1DZ
114865008114865566-000007     114865006001023761187S/BOOK SUPER VALUE     0000002000+00001753+00000+0001T   00001753+0000001456          1400 GB5130               1DZ
114865009114865016-006509     114865006003000567355S/JAR GLS MINI LABEL   0000004000+00001753+00000+0001T   00002192+0008191456          1400 GB5300               1DZ
114866000114866               114866               170213JU     1400+00000+JU0000005259+0000005259+000000000+000000738+0000005997+0000000000+I40000005997+0000000000+Z
114866001114866466-000200     114866006001023621665HULA-HOOP     ASSTD    0000002000+00001753+00000+0001T   00001753+0000001458          1400 GB5785               1DZ
114866002114866366-004047     114866006001023834850DRESS UP ACCESS TEETH  0000001000+00001753+00000+0001T   00001753+0000001458          1400 GB5131               1DZ
114867000114867               114867               170213JU     1400+00000+JU0000001753+0000001753+000000000+000000246+0000001999+0000000000+I40000001999+0000000000+Z
114867001114867366-004047     114867006001023834850DRESS UP ACCESS TEETH  0000001000+00001753+00000+0001T   00001753+0000001459          1400 GB5131               1DZ
114868000114868               114868               170213JU     1400+00000+JU0000002717+0000002717+000000000+000000381+0000003090+0000000008+I20000000000+0000003090+Z
114868001114868903-000155     114868006009803374435SWT LOLLY I LUV U HEART0000001000+00000525+00000+0001T   00000525+0000001504          1400 GB5150               1DZ
114868002114868565-000080     114868006003000643424NOVELTY BENDY          0000001000+00002192+00000+0001T   00002192+0000001504          1400 GB5745               1DZ
114869000114869               114869               170213JU     1400+00000+JU0000005307+0000005307+000000000+000000745+0000006050+0000000002+I20000000000+0000006050+Z
114869001114869084-009410     114869006001023477651SCISSORS 21cm PL-HANDLE0000001000+00002630+00000+0001T   00002630+0000001505          1400 GB5200               1DZ
114869002114869007-000045     114869006009608640438DISPLAY-POCKETS A4 10PC0000001000+00000876+00000+0001T   00000876+0000001505          1400 GB5130               1DZ
114869003114869007-000598     114869006009608642333MARLIN FILE DIVIDER 10 0000001000+00001753+00000+0001T   00001753+0000001505          1400 GB5130               1DZ
114869004114869112-116069     114869006009681820277TCS CARRIER BAG JUMBO  0000001000+00000048+00000+0001T   00000048+0000001505          1400 GB5090               1DZ
114870000114870               114870               170213JU     1400+00000+JU0000005308+0000005308+000000000+000000744+0000006050+0000000002+I20000000000+0000006050+Z
114870001114870031-086303-B   114870006003000322404P/FRM CHAMPAGNE 13X18CM0000001000+00003507+00000+0001T   00003507+0000001506          1400 GB5510               1DZ
114870002114870077-000289     114870006001023901996GIFT BOX 20x25x11cm    0000001000+00001753+00000+0001T   00001753+0000001506          1400 GB5112               1DZ
114870003114870112-116069     114870006009681820277TCS CARRIER BAG JUMBO  0000001000+00000048+00000+0001T   00000048+0000001506          1400 GB5090               1DZ
114871000114871               114871               170213JU     1400+00000+JU0000003507+0000003507+000000000+000000491+0000003990+0000000008+I20000000000+0000003990+Z
114871001114871031-005853     114871006003000442416P/FRAME WDN TWIN HEARTS0000001000+00003507+00000+0001T   00003507+0000001508          1400 GB5510               1DZ
114872000114872               114872               170213JU     1400+00000+JU0000000437+0000000437+000000000+000000062+0000000490+0000000009+I20000000000+0000000490+Z
114872001114872080-000133-A   114872006003000647019MINI VALENTINES CARD   0000001000+00000437+00000+0001T   00000437+0000001509          1400 GB5112               1DZ
114873000114873               114873               170213JU     1400+00000+JU0000012279+0000012279+000000000+000001720+0000013990+0000000009+I20000000000+0000013990+Z
114873001114873368-000111     114873006001023780812PLUSH BEAR/DOG 29CM    0000001000+00012279+00000+0001T   00012279+0000001509          1400 GB5745               1DZ
114874000114874               114874               170213JU     1400+00000+JU0000005262+0000005262+000000000+000000737+0000005999+0000000000+I40000005999+0000000000+Z
114874001114874106-000890     114874000876416080628WATER BOTTLE PL 700ml  0000001000+00005262+00000+0001T   00005262+0000001512          1400 GB5210               1DZ
114875000114875               114875               170213JU     1400+00000+JU0000002630+0000002630+000000000+000000369+0000002990+0000000009+I20000000000+0000002990+Z
114875001114875031-005918     114875006003000580453P/FRAME PL PLAIN 10X15 0000001000+00002630+00000+0001T   00002630+0000001513          1400 GB5510               1DZ
114876000114876               114876               170213JU     1400+00000+JU0000006664+0000006664+000000000+000000934+0000007590+0000000008+I20000000000+0000007590+Z
114876001114876032-000334     114876006003000352395MIRROR HAND PL 23X31CM 0000001000+00004385+00000+0001T   00004385+0000001519          1400 GB5510               1DZ
114876002114876027-001020     114876006001246602519BROOM FLOOR W/HANDLE   0000001000+00002279+00000+0001T   00002279+0000001519          1400 GB5212               1DZ
114877000114877               114877               170213JU     1400+00000+JU0000002630+0000002630+000000000+000000369+0000002990+0000000009+I20000000000+0000002990+Z
114877001114877085-007038     114877006001024039896P/KNIFE 8cm-BLD PL/GRIP0000001000+00002630+00000+0001T   00002630+0000001524          1400 GB5305               1DZ
114878000114878               114878               170213JU     1400+00000+JU0000011429+0000011429+000000000+000001603+0000013030+0000000002+I20000000000+0000013030+Z
114878001114878204-000002     114878006003000575794MEMO HOLDER CRYSTAL RND0000002000+00001753+00000+0001T   00001753+0000001528          1400 GB5300               1DZ
114878002114878206-000620     114878006003000631797BACK SCRATCHER EXTEND  0000001000+00002630+00000+0001T   00002630+0000001528          1400 GB5321               1DZ
114878003114878030-004070     114878006003000674381P/WDN SIGN 12X20CM ASS 0000001000+00003507+00000+0001T   00003507+0000001528          1400 GB5505               1DZ
114878004114878077-000310     114878006001023608635GIFT-BAG 18X23CM GLOSS 0000001000+00001314+00000+0001T   00001314+0000001528          1400 GB5112               1DZ
114878005114878112-116038     114878006009681820246TCS CARRIER BAG MIDI   0000001000+00000035+00000+0001T   00000035+0000001528          1400 GB5090               1DZ
114878006114878080-000133     114878006003000535613CARD&ENV MINI ASTD DSGN0000001000+00000437+00000+0001T   00000437+0000001528          1400 GB5112               1DZ
114879000114879               114879               170213JU     1400+00000+JU0000005260+0000005260+000000000+000000737+0000005997+0000000000+I40000005997+0000000000+Z
114879001114879080-000113     114879006003000237449CARD&ENVLPE - LOVE     0000001000+00001753+00000+0001T   00001753+0000001529          1400 GB5112               1DZ
114879002114879018-000136     114879006001023659026MUG OCC LOVE W/PLUSH   0000001000+00003507+00000+0001T   00003507+0000001529          1400 GB5515               1DZ
114880000114880               114880               170213JU     1400+00000+JU0000001753+0000001753+000000000+000000246+0000001990+0000000009+I20000000000+0000001990+Z
114880001114880306-000006     114880006001023776440DENTAL FLOSS PICKS 50PC0000001000+00001753+00000+0001T   00001753+0000001530          1400 GB5200               1DZ
114881000114881               114881               170213JU     1400+00000+JU0000002630+0000002630+000000000+000000369+0000002990+0000000009+I20000000000+0000002990+Z
114881001114881903-000599     114881006003000608119SWEET BALLOONPUMP 18cm 0000001000+00002630+00000+0001T   00002630+0000001535          1400 GB5150               1DZ
114882000114882               114882               170213JU     1400+00000+JU0000012587+0000012587+000000000+000001764+0000014350+0000000001+I20000000000+0000014350+Z
114882001114882368-000265     114882006001023750914PLUSH BEAR 23CM ASSTD C0000001000+00006139+00000+0001T   00006139+0000001536          1400 GB5745               1DZ
114882002114882206-000620     114882006003000631797BACK SCRATCHER EXTEND  0000001000+00002630+00000+0001T   00002630+0000001536          1400 GB5321               1DZ
114882003114882077-000463     114882006003000321698G/BAG GLITTER MED20x28 0000001000+00002192+00000+0001T   00002192+0000001536          1400 GB5112               1DZ
114882004114882077-000315     114882006003000181186GIFT-BAG 20x28cm MATT  0000001000+00001578+00000+0001T   00001578+0000001536          1400 GB5112               1DZ
114882005114882112-116069     114882006009681820277TCS CARRIER BAG JUMBO  0000001000+00000048+00000+0001T   00000048+0000001536          1400 GB5090               1DZ
114883000114883               114883               170213JU     1400+00000+JU0000002677+0000002677+000000000+000000376+0000003053+0000000000+I40000003053+0000000000+Z
114883001114883112-116069     114883006009681820277TCS CARRIER BAG JUMBO  0000001000+00000048+00000+0001T   00000048+0000001541          1400 GB5090               1DZ
114883002114883006-000240     114883006003000460595PARTY INVITES 12PC     0000001000+00001753+00000+0001T   00001753+0000001541          1400 GB5131               1DZ
114883003114883007-000045     114883006009608640438DISPLAY-POCKETS A4 10PC0000001000+00000876+00000+0001T   00000876+0000001541          1400 GB5130               1DZ
114884000114884               114884               170213JU     1400+00000+JU0000004383+0000004383+000000000+000000615+0000004998+0000000000+I40000004998+0000000000+Z
114884001114884077-000381     114884006003000247707GIFT-BAG 25X32CM S/COL 0000001000+00001753+00000+0001T   00001753+0000001542          1400 GB5112               1DZ
114884002114884077-000005-B   114884006003000326617PAPER TISSUE PATTERN   0000001000+00002630+00000+0001T   00002630+0000001542          1400 GB5112               1DZ
114885000114885               114885               170213JU     1400+00000+JU0000007892+0000007892+000000000+000001106+0000008990+0000000008+I20000000000+0000008990+Z
114885001114885018-050000     114885006003000412679MUG OCC LOVE TWIN BEAR 0000001000+00006139+00000+0001T   00006139+0000001545          1400 GB5515               1DZ
114885002114885077-000455     114885006003000285389G/BAG METALLIC LRG SOL 0000001000+00001753+00000+0001T   00001753+0000001545          1400 GB5112               1DZ
114886000114886               114886               170213JU     1400+00000+JU0000007012+0000007012+000000000+000000983+0000007995+0000000000+I40000007995+0000000000+Z
114886001114886039-000319-0   114886006003000441273B/CANDLES LRG NUMBER-0 0000001000+00000876+00000+0001T   00000876+0000001546          1400 GB5510               1DZ
114886002114886006-000124     114886006003000625888BALLOONS 10PC MIX COL  0000001000+00001753+00000+0001T   00001753+0000001546          1400 GB5131               1DZ
114886003114886039-000319-3   114886006003000442621B/CANDLES LRG NUMBER-3 0000001000+00000876+00000+0001T   00000876+0000001546          1400 GB5510               1DZ
114886004114886018-005009     114886006001023725608MUG W/PLUSH-BEAR LOVE  0000001000+00003507+00000+0001T   00003507+0000001546          1400 GB5515               1DZ
114887000114887               114887               170213JU     1400+00000+JU0000002629+0000002629+000000000+000000369+0000002998+0000000000+I40000002998+0000000000+Z
114887001114887077-000011-E   114887006001023808646TISSUE-WRAP PINK 10PCE 0000001000+00000876+00000+0001T   00000876+0000001548          1400 GB5112               1DZ
114887002114887077-000908     114887006003000410927G/WRAP 700mmx1m FLOWER 0000001000+00001753+00000+0001T   00001753+0000001548          1400 GB5112               1DZ
114888000114888               114888               170213JU     1400+00000+JU0000004385+0000004385+000000000+000000614+0000004999+0000000000+I40000004999+0000000000+Z
114888001114888077-000466     114888006003000681693GIFT-BAG MTLC GLIT JMB 0000001000+00004385+00000+0001T   00004385+0000001549          1400 GB5112               1DZ
114889000114889               114889               170213JU     1400+00000+JU0000006174+0000006174+000000000+000000865+0000007039+0000000000+I40000007039+0000000000+Z
114889001114889466-001641     114889006001023835406TABLE-TENNIS-SET       0000001000+00006139+00000+0001T   00006139+0000001553          1400 GB5785               1DZ
114889002114889112-116038     114889006009681820246TCS CARRIER BAG MIDI   0000001000+00000035+00000+0001T   00000035+0000001553          1400 GB5090               1DZ
114890000114890               114890               170213JU     1400+00000+JU0000005262+0000005262+000000000+000000737+0000005999+0000000000+I40000005999+0000000000+Z
114890001114890366-002195     114890006001023990549DRESS UP WINGS FEATHER 0000001000+00005262+00000+0001T   00005262+0000001556          1400 GB5131               1DZ
114891000114891               114891               170213JU     1400+00000+JU0000007922+0000007922+000000000+000001110+0000009030+0000000002+I20000000000+0000009030+Z
114891001114891077-000314     114891006003000181148GIFT-BAG 11X14CM MATT  0000001000+00000876+00000+0001T   00000876+0000001558          1400 GB5112               1DZ
114891002114891077-000011-F   114891006001023808431TISSUE-WRAP BLUE/LILAC 0000001000+00000876+00000+0001T   00000876+0000001558          1400 GB5112               1DZ
114891003114891031-000002-A   114891006003000247103P/FRAME LOVE 7.5X7.5CM 0000001000+00003507+00000+0001T   00003507+0000001558          1400 GB5510               1DZ
114891004114891077-000310     114891006001023608635GIFT-BAG 18X23CM GLOSS 0000002000+00001314+00000+0001T   00001314+0000001558          1400 GB5112               1DZ
114891005114891112-116038     114891006009681820246TCS CARRIER BAG MIDI   0000001000+00000035+00000+0001T   00000035+0000001558          1400 GB5090               1DZ
114892000114892               114892               170213JU     1400+00000+JU0000003331+0000003331+000000000+000000467+0000003790+0000000008+I20000000000+0000003790+Z
114892001114892089-000030     114892006003000575671K/CHAIN LOVE MTL ASSTD 0000001000+00001753+00000+0001T   00001753+0000001558          1400 GB5205               1DZ
114892002114892077-000315     114892006003000181186GIFT-BAG 20x28cm MATT  0000001000+00001578+00000+0001T   00001578+0000001558          1400 GB5112               1DZ
114893000114893               114893               170213JU     1400+00000+JU0000016705+0000016705+000000000+000002342+0000019047+0000000000+I40000019047+0000000000+Z
114893001114893112-116069     114893006009681820277TCS CARRIER BAG JUMBO  0000001000+00000048+00000+0001T   00000048+0000001600          1400 GB5090               1DZ
114893002114893466-000515     114893006001023477408BALLS TENNIS BAG-OF-3  0000001000+00002630+00000+0001T   00002630+0000001600          1400 GB5785               1DZ
114893003114893079-011524     114893006003000408139ART+CRFT FINGER PUPPETS0000001000+00004385+00000+0001T   00004385+0000001600          1400 GB5130               1DZ
114893004114893079-000807     114893006003000670277ART+CRAFT WOODEN STICKS0000001000+00001490+00000+0001T   00001490+0000001600          1400 GB5130               1DZ
114893005114893566-000039     114893006003000142194STICKERS POP-UP  SHAKER0000001000+00001314+00000+0001T   00001753+0008151600          1400 GB5130               1DZ
114893006114893566-000304     1148930060030004440453-D POP-UP ROUND       0000001000+00002455+00000+0001T   00002455+0000001600          1400 GB5130               1DZ
114893007114893566-000004     114893006003000062270STICKER BOOK ABC/BORDER0000001000+00002630+00000+0001T   00002630+0000001600          1400 GB5130               1DZ
114893008114893566-000007     114893006001023761187S/BOOK SUPER VALUE     0000001000+00001753+00000+0001T   00001753+0000001600          1400 GB5130               1DZ
114894000114894               114894               170213JU     1400+00000+JU0000013592+0000013592+000000000+000001904+0000015496+0000000000+I40000015496+0000000000+Z
114894001114894018-030000     114894006003000421060MUG OCCASIONS LOVE 2PCE0000001000+00004385+00000+0001T   00004385+0000001604          1400 GB5515               1DZ
114894002114894031-000860-B   114894006001023798206P/FRAME PL ANTIQUE-BLK 0000001000+00004385+00000+0001T   00004385+0000001604          1400 GB5510               1DZ
114894003114894077-000270     114894006003000395453GIFT-BAG PPR JMB 33X45 0000001000+00002630+00000+0001T   00002630+0000001604          1400 GB5112               1DZ
114894004114894080-000127     114894006003000424351VALENTINES DAY 36x24CM 0000001000+00002192+00000+0001T   00002192+0000001604          1400 GB5112               1DZ
114895000114895               114895               170213JU     1400+00000+JU0000019771+0000019771+000000000+000002773+0000022540+0000000004+I20000000000+0000022540+Z
114895001114895112-116069     114895006009681820277TCS CARRIER BAG JUMBO  0000001000+00000048+00000+0001T   00000048+0000001606          1400 GB5090               1DZ
114895002114895140-005093     114895006003000331338INSECT-KILL RAQT-SHAPED0000001000+00005262+00000+0001T   00005262+0000001606          1400 GB5830               1DZ
114895003114895027-783000     114895006001023874641SCOURERS RAINBOW 5PCE  0000001000+00001753+00000+0001T   00001753+0000001606          1400 GB5212               1DZ
114895004114895903-000521     114895006001704009652SWT GUMMY SOFT GUMS    0000002000+00000876+00000+0001T   00000876+0000001606          1400 GB5150               1DZ
114895005114895251-000006     114895006001023499158TAPE DBL-SIDED AUTO    0000001000+00001753+00000+0001T   00001753+0000001606          1400 GB5810               1DZ
114895006114895050-000364-Z   114895006001023777133PADLOCK IRON 38mm CARD 0000001000+00002630+00000+0001T   00002630+0000001606          1400 GB5855               1DZ
114895007114895251-000003     114895006003000266159TAPE D/S 18x300mm V/PCK0000001000+00002630+00000+0001T   00002630+0000001606          1400 GB5810               1DZ
114895008114895027-078281     114895006001023767806SCOURERS BRS 8g  PACK-30000001000+00000876+00000+0001T   00000876+0000001606          1400 GB5212               1DZ
114895009114895027-077605     114895006001023997678STEELWOOL PADS 12PC 72g0000001000+00001753+00000+0001T   00001753+0000001606          1400 GB5212               1DZ
114895010114895046-000012     114895006904708013062BATTERIES AA  CARD-OF-40000001000+00001314+00000+0001T   00001314+0000001606          1400 GB5312               1DZ
114896000114896               114896               170213JU     1400+00000+JU0000021440+0000021440+000000000+000003007+0000024447+0000000000+I40000024447+0000000000+Z
114896001114896112-116069     114896006009681820277TCS CARRIER BAG JUMBO  0000001000+00000048+00000+0001T   00000048+0000001609          1400 GB5090               1DZ
114896002114896040-000923     114896006001023587831CANDLE-HOLDER GLS 13.5 0000002000+00001753+00000+0001T   00001753+0000001609          1400 GB5510               1DZ
114896003114896007-000614     114896006001023768667DIARY W/LOCK+PEN LOVE  0000002000+00005262+00000+0001T   00005262+0000001609          1400 GB5130               1DZ
114896004114896039-000026     114896006001023551610C/TAPERED 25CM M/RED   0000002000+00001051+00000+0001T   00001051+0000001609          1400 GB5510               1DZ
114896005114896304-001200     114896006003000427239FLOWER HYDRANGEA 66CM  0000001000+00002630+00000+0001T   00002630+0000001609          1400 GB5510               1DZ
114896006114896304-003898     114896006001023712790S/FLOWER SPRAY 51CM ASS0000001000+00002630+00000+0001T   00002630+0000001609          1400 GB5510               1DZ
114897000114897               114897               170213JU     1400+00000+JU0000001753+0000001753+000000000+000000246+0000001990+0000000009+I20000000000+0000001990+Z
114897001114897051-002402     114897006001023518347TRIGGER-SPRAYER  500ml 0000001000+00001753+00000+0001T   00001753+0000001610          1400 GB5820               1DZ
114898000114898               114898               170213JU     1400+00000+JU0000007925+0000007925+000000000+000001112+0000009030+0000000007+I20000000000+0000009030+Z
114898001114898040-000171     114898006001023774644C/HOLDER GLASS CUP ASST0000002000+00002630+00000+0001T   00002630+0000001626          1400 UJ2510               1BZ
114898002114898077-000270     114898006003000395453GIFT-BAG PPR JMB 33X45 0000001000+00002630+00000+0001T   00002630+0000001626          1400 UJ2112               1BZ
114898003114898112-116038     114898006009681820246TCS CARRIER BAG MIDI   0000001000+00000035+00000+0001T   00000035+0000001626          1400 UJ2090               1BZ
114899000114899               114899               170213JU     1400+00000+JU0000003592+0000003592+000000000+000000504+0000004090+0000000006+I20000000000+0000004090+Z
114899001114899903-000087     114899006001704000161SWT SPECKLED-EGGS 50G  0000001000+00001139+00000+0001T   00001139+0000001627          1400 UJ2150               1BZ
114899002114899071-003000     114899006003000543229PEN BALL PEN 3PCE MULTI0000001000+00000876+00000+0001T   00000876+0000001627          1400 UJ2130               1BZ
114899003114899007-000167     114899006009685857347SPIRAL NOTES A7 72PG   0000001000+00000350+00000+0001T   00000350+0000001627          1400 UJ2130               1BZ
114899004114899071-081091     114899006001151010287STAED/GENKEM ALL-STICK 0000001000+00001227+00000+0001T   00001227+0000001627          1400 UJ2130               1BZ
114900000114900               114900               170213JU     1400+00000+JU0000006610+0000006610+000000000+000000927+0000007530+0000000007+I20000000000+0000007530+Z
114900001114900018-030000     114900006003000421060MUG OCCASIONS LOVE 2PCE0000001000+00004385+00000+0001T   00004385+0000001651          1400 UJ2515               1BZ
114900002114900080-000133-A   114900006003000647019MINI VALENTINES CARD   0000001000+00000437+00000+0001T   00000437+0000001651          1400 UJ2112               1BZ
114900003114900077-000382     114900006003000247820GIFT-BAG MED 18X23CM   0000001000+00001753+00000+0001T   00001753+0000001651          1400 UJ2112               1BZ
114900004114900112-116038     114900006009681820246TCS CARRIER BAG MIDI   0000001000+00000035+00000+0001T   00000035+0000001651          1400 UJ2090               1BZ
114901000114901               114901               170213JU     1400+00000+JU0000003507+0000003507+000000000+000000491+0000003998+0000000000+I40000003998+0000000000+Z
114901001114901106-001110     114901006001023857880SPORTS-BOTTLES SET-OF-20000001000+00003507+00000+0001T   00003507+0000001652          1400 UJ2210               1BZ
114902000114902               114902               170213JU     1400+00000+JU0000010524+0000010524+000000000+000001474+0000011990+0000000008+I20000000000+0000011990+Z
114902001114902077-000299-A   114902006003000670888GIFT-BAG PAPER JMB LOVE0000001000+00001753+00000+0001T   00001753+0000001705          1400 SH5112               1BZ
114902002114902368-000614     114902006001023705808PLUSH LOVE 30cm        0000001000+00008771+00000+0001T   00008771+0000001705          1400 SH5745               1BZ
114903000114903               114903               170213JU     1400+00000+JU0000000048+0000000048+000000000+000000007+0000000050+0000000005+I20000000000+0000000050+Z
114903001114903112-116069     114903006009681820277TCS CARRIER BAG JUMBO  0000001000+00000048+00000+0001T   00000048+0000001705          1400 SH5090               1BZ
114904000114904               114904               170213JU     1400+00000+JU0000001314+0000001314+000000000+000000184+0000001498+0000000000+I40000001498+0000000000+Z
114904001114904077-000407     114904006003000145096G/BAG PP 19X26X8CM     0000001000+00001314+00000+0001T   00001314+0000001707          1400 SH5112               1BZ
114905000114905               114905               170213JU     1400+00000+JU0000041788+0000041788+000000000+000005855+0000047640+0000000003+I20000000000+0000047640+Z
114905001114905024-000107     114905006001023422071MUFFIN-PAN 12-CUP      0000001000+00009648+00000+0001T   00009648+0000001708          1400 SH5300               1BZ
114905002114905018-005009     114905006001023725608MUG W/PLUSH-BEAR LOVE  0000001000+00003507+00000+0001T   00003507+0000001708          1400 SH5515               1BZ
114905003114905306-000977     114905006003000559596FIRSTAID PLASTER 75PC  0000001000+00002630+00000+0001T   00002630+0000001708          1400 SH5200               1BZ
114905004114905306-001056     114905006001023899835FIRST AID KIT 91PCE    0000001000+00012279+00000+0001T   00012279+0000001708          1400 SH5200               1BZ
114905005114905492-055602     114905000078257556021SWIM-GOGGLES PLAY      0000001000+00002630+00000+0001T   00002630+0000001708          1400 SH5787               1BZ
114905006114905079-011526     114905006003000408375GLITTER & SAND ART     0000002000+00003507+00000+0001T   00003507+0000001708          1400 SH5130               1BZ
114905007114905565-000014     114905006003000671915NOVELTY AIR BALLOON    0000001000+00002630+00000+0001T   00002630+0000001708          1400 SH5745               1BZ
114905008114905105-000750     114905006003000190270CONTAINERS 4xMINI 150ml0000001000+00001402+00000+0001T   00001402+0000001708          1400 SH5210               1BZ
114905009114905112-116069     114905006009681820277TCS CARRIER BAG JUMBO  0000001000+00000048+00000+0001T   00000048+0000001708          1400 SH5090               1BZ
114906000114906               114906               170213JU     1400+00000+JU0000002803+0000002803+000000000+000000394+0000003190+0000000007+I20000000000+0000003190+Z
114906001114906077-000011-D   114906006001023808554TISSUE-WRAP WHITE 10PCE0000001000+00000876+00000+0001T   00000876+0000001710          1400 SH5112               1BZ
114906002114906077-000305     114906006003000395422GIFT-BAG WINE 10X35CM  0000001000+00001490+00000+0001T   00001490+0000001710          1400 SH5112               1BZ
114906003114906080-000133-A   114906006003000647019MINI VALENTINES CARD   0000001000+00000437+00000+0001T   00000437+0000001710          1400 SH5112               1BZ
114907000114907               114907               170213JU     1400+00000+JU0000003946+0000003946+000000000+000000553+0000004490+0000000009+I20000000000+0000004490+Z
114907001114907079-013111     114907006003000683024CREATE A HAT SET       0000001000+00003946+00000+0001T   00003946+0000001716          1400 SH5130               1BZ
114908000114908               114908               170213JU     1400+00000+JU0000005699+0000005699+000000000+000000799+0000006490+0000000008+I20000000000+0000006490+Z
114908001114908566-000322     114908006003000423132STICKER R/DEC CHANDELIE0000001000+00005262+00000+0001T   00005262+0000001717          1400 SH5130               1BZ
114908002114908080-000133     114908006003000535613CARD&ENV MINI ASTD DSGN0000001000+00000437+00000+0001T   00000437+0000001717          1400 SH5112               1BZ
114909000114909               114909               170213JU     1400+00000+JU0000007047+0000007047+000000000+000000989+0000008036+0000000000+I40000008036+0000000000+Z
114909001114909028-000016     114909006001334007004ICE-BRICK CLEAR    400g0000004000+00001753+00000+0001T   00001753+0000001719          1400 SH5305               1BZ
114909002114909112-116038     114909006009681820246TCS CARRIER BAG MIDI   0000001000+00000035+00000+0001T   00000035+0000001719          1400 SH5090               1BZ
114910000114910               114910               170213JU     1400+00000+JU0000004385+0000004385+000000000+000000614+0000004999+0000000000+I40000004999+0000000000+Z
114910001114910006-000190     114910006003000685530BALLOONS LOVE 81x91cm  0000001000+00004385+00000+0001T   00004385+0000001730          1400 GB5131               1DZ
114911000114911               114911               170213JU     1400+00000+JU0000011399+0000011399+000000000+000001598+0000012990+0000000007+I20000000000+0000012990+Z
114911001114911080-000105     114911006003000236237CARD & ENVELOPE BDAY   0000001000+00001753+00000+0001T   00001753+0000001730          1400 GB5112               1DZ
114911002114911030-005000     114911006003000455874P/WDN SIGN 23X23CM 4-AS0000001000+00007893+00000+0001T   00007893+0000001730          1400 GB5505               1DZ
114911003114911077-000381     114911006003000247707GIFT-BAG 25X32CM S/COL 0000001000+00001753+00000+0001T   00001753+0000001730          1400 GB5112               1DZ
114912000114912               114912               170213JU     1400+00000+JU0000001314+0000001314+000000000+000000184+0000001490+0000000008+I20000000000+0000001490+Z
114912001114912006-000166-D   114912006003000516490BALLOONS LRG 6PC RED   0000001000+00001314+00000+0001T   00001314+0000001732          1400 GB5131               1DZ
114913000114913               114913               170213JU     1400+00000+JU0000000876+0000000876+000000000+000000123+0000000990+0000000009+I20000000000+0000000990+Z
114913001114913366-007916     114913006001023419309MASK PL CHARACTER ASS  0000001000+00000876+00000+0001T   00000876+0000001733          1400 GB5131               1DZ
114914000114914               114914               170213JU     1400+00000+JU0000007927+0000007927+000000000+000001111+0000009030+0000000008+I20000000000+0000009030+Z
114914001114914019-000051     114914006003000457304VASE GLS ASSORTED      0000001000+00006139+00000+0001T   00006139+0000001746          1400 GB5510               1DZ
114914002114914200-003026     114914006003000276448REFUSE BAGS 10PCE GREEN0000001000+00001753+00000+0001T   00001753+0000001746          1400 GB5214               1DZ
114914003114914112-116038     114914006009681820246TCS CARRIER BAG MIDI   0000001000+00000035+00000+0001T   00000035+0000001746          1400 GB5090               1DZ
114915000114915               114915               170213JU     1400+00000+JU0000015160+0000015160+000000000+000002126+0000017280+0000000006+I20000000000+0000017280+Z
114915001114915112-116069     114915006009681820277TCS CARRIER BAG JUMBO  0000001000+00000048+00000+0001T   00000048+0000001748          1400 GB5090               1DZ
114915002114915088-000084     114915006001023798060P/POURRI 120G ASSTD    0000001000+00001753+00000+0001T   00001753+0000001748          1400 GB5212               1DZ
114915003114915103-000074     114915006001023691682BASKET BAMBOO 33x21x4cm0000001000+00005262+00000+0001T   00005262+0000001748          1400 GB5300               1DZ
114915004114915079-009700-I   114915006003000546114PAPER SIRIO A4 LILAC   0000005000+00000306+00000+0001T   00000306+0000001748          1400 GB5130               1DZ
114915005114915079-009700-H   114915006003000546039PAPER SIRIO A4 EARTH   0000005000+00000306+00000+0001T   00000306+0000001748          1400 GB5130               1DZ
114915006114915079-009700-A   114915006003000547746PAPER SIRIO A4 BLACK   0000005000+00000306+00000+0001T   00000306+0000001748          1400 GB5130               1DZ
114915007114915007-000324     11491500600968585864125 SHEETS BRIGHTS MARLI0000001000+00003507+00000+0001T   00003507+0000001748          1400 GB5130               1DZ
114916000114916               114916               170213JU     1400+00000+JU0000004503+0000004503+000000000+000000632+0000005135+0000000000+I40000005135+0000000000+Z
114916001114916077-000317     114916006001023609748GIFT-BAG 11X14CM E/D AN0000001000+00000613+00000+0001T   00000613+0000001750          1400 GB5112               1DZ
114916002114916077-000310     114916006001023608635GIFT-BAG 18X23CM GLOSS 0000001000+00001314+00000+0001T   00001314+0000001750          1400 GB5112               1DZ
114916003114916077-000358     114916006003000329977GIFT-BAG KIDS 25X32CM  0000001000+00001753+00000+0001T   00001753+0000001750          1400 GB5112               1DZ
114916004114916077-000383     114916006003000247943GIFT-BAG 11X14CM S/COL 0000001000+00000788+00000+0001T   00000788+0000001750          1400 GB5112               1DZ
114916005114916112-116038     114916006009681820246TCS CARRIER BAG MIDI   0000001000+00000035+00000+0001T   00000035+0000001750          1400 GB5090               1DZ
114917000114917               114917               170213JU     1400+00000+JU0000000437+0000000437+000000000+000000062+0000000490+0000000009+I20000000000+0000000490+Z
114917001114917080-000133-A   114917006003000647019MINI VALENTINES CARD   0000001000+00000437+00000+0001T   00000437+0000001752          1400 GB5112               1DZ
114918000114918               114918               170213JU     1400+00000+JU0000003506+0000003506+000000000+000000492+0000003990+0000000008+I20000000000+0000003990+Z
114918001114918366-004047     114918006001023834850DRESS UP ACCESS TEETH  0000002000+00001753+00000+0001T   00001753+0000001752          1400 GB5131               1DZ
114919000114919               114919               170213JU     1400+00000+JU0000002192+0000002192+000000000+000000307+0000002490+0000000009+I20000000000+0000002490+Z
114919001114919080-000127     114919006003000424351VALENTINES DAY 36x24CM 0000001000+00002192+00000+0001T   00002192+0000001753          1400 GB5112               1DZ
114920000114920               114920               170213JU     1400+00000+JU0000001314+0000001314+000000000+000000184+0000001490+0000000008+I20000000000+0000001490+Z
114920001114920077-000310     114920006001023608635GIFT-BAG 18X23CM GLOSS 0000001000+00001314+00000+0001T   00001314+0000001754          1400 GB5112               1DZ
114921000114921               114921               170213JU     1400+00000+JU0000009996+0000009996+000000000+000001401+0000011397+0000000000+I40000011397+0000000000+Z
114921001114921361-009104     114921006001023619365DOLL ACCESSORY STROLLER0000001000+00007016+00000+0001T   00007016+0000001757          1400 GB5725               1DZ
114921002114921006-000788     114921006001023990228CROWN HAPPY BIRTHDAY   0000001000+00001490+00000+0001T   00001490+0000001757          1400 GB5131               1DZ
114921003114921028-000796     114921006001023812094SKEWERS 25cm 50PCE 4mm 0000001000+00001490+00000+0001T   00001490+0000001757          1400 GB5305               1DZ
114922000114922               114922               170213JU     1400+00000+JU0000001490+0000001490+000000000+000000209+0000001690+0000000009+I20000000000+0000001690+Z
114922001114922077-000305     114922006003000395422GIFT-BAG WINE 10X35CM  0000001000+00001490+00000+0001T   00001490+0000001759          1400 GB5112               1DZ
A17021300                                          08550106JUSLAVE 1                       2IC2IC
A17021301                                          10242824JUSLAVE 1                       GB51IC
M17021391                              CASH        JUSLAVE 1                       Z-REPORT No.   616TOTAL (Sales - Refunds)           8804.26       CASH TO BE BANKED                 4665.70       DEBIT CARDS                          0.00       CREDIT CARDS                      4138.56       Z-READING                         8804.26       AIRTIME DEBIT CARD SALES             0.00       AIRTIME CARD SALES                   0.00       OVERS/UNDERS                         0.00       AIRTIME CASH SALES                   0.00       GIFT CARDS                           0.00       GIFT CARD CASH SALES                 0.00       T O T A L  CASH PAYOUTS              0.00                                                                                                                                                                                                                                                                                                                                                      Z
M17021392                              CASH        JUABSENT                                                                                                                                                                                          ANNUAL LEAVE                                                                                                                                                                                    DAY OFF                                                                                                                                                                                         COMMENTS                                                                                                                                                                                                                                                                                                                                                                                       Z
Y17021300                                          JU00000000782258+000109
ZJU17021319553 SLAVE 1      SALES DATA                     NEXT INVOICE NO.  114923 0616
X JU Slave 1 First invoice 114813 170213 Last invoice 114922 170213 Next invoice 114923 Total number of records 000000402 clbackup completed 19:55:37
