113070000113070               113070               170213JV     1400+00000+JV0000002454+0000002454+000000000+000000344+0000002790+0000000008+I20000000000+0000002790+Z
113070001113070251-000040     113070006001023515865SEALTAPE CLEAR 48mmx50m0000001000+00001227+00000+0001T   00001227+0000000935          1400 YM6810               2AZ
113070002113070251-000041     113070006001023515889SEAL-TAPE BUFF 48mmx50m0000001000+00001227+00000+0001T   00001227+0000000935          1400 YM6810               2AZ
113071000113071               113071               170213JV     1400+00000+JV0000010042+0000010042+000000000+000001408+0000011450+0000000000+I20000000000+0000011450+Z
113071001113071077-000303     113071006001023593757GIFT-BAG PAPER MED     0000001000+00001578+00000+0001T   00001578+0000000944          1400 YM6112               2AZ
113071002113071903-000087     113071006001704000161SWT SPECKLED-EGGS 50G  0000002000+00001139+00000+0001T   00001139+0000000944          1400 YM6150               2AZ
113071003113071016-002709     113071006001023655257S/BOTTLE GLS W/LID 31CM0000002000+00003069+00000+0001T   00003069+0000000944          1400 YM6300               2AZ
113071004113071112-116069     113071006009681820277TCS CARRIER BAG JUMBO  0000001000+00000048+00000+0001T   00000048+0000000944          1400 YM6090               2AZ
113072000113072               113072               170213JV     1400+00000+JV0000003065+0000003065+000000000+000000430+0000003490+0000000005+I20000000000+0000003490+Z
113072001113072083-000055     113072006003000003853LIGHTER ELCTRNC REFILBL0000005000+00000613+00000+0001T   00000613+0000000946          1400 YM6315               2AZ
113073000113073               113073               170213JV     1400+00000+JV0000020603+0000020603+000000000+000002889+0000023492+0000000000+I40000023492+0000000000+Z
113073001113073024-000212-A   113073006003000420155C/CUTTER SET ASSTD     0000001000+00002630+00000+0001T   00002630+0000000956          1400 YM6300               2AZ
113073002113073304-000720     113073006001023843050F/BUNCH ROSE 6-HEAD AST0000001000+00002630+00000+0001T   00002630+0000000956          1400 YM6510               2AZ
113073003113073079-000358     113073006003000591046ART+CRAFT FELT-TIP PENS0000001000+00003069+00000+0001T   00003069+0000000956          1400 YM6130               2AZ
113073004113073079-003010     113073006003000448845A/TUBE 75ML YELLOW     0000001000+00001753+00000+0001T   00001753+0000000956          1400 YM6130               2AZ
113073005113073079-003012     113073006003000447893A/TUBE 75ML VIOLET     0000001000+00001753+00000+0001T   00001753+0000000956          1400 YM6130               2AZ
113073006113073079-003002     113073006003000447886A/TUBE 75ML RED        0000001000+00001753+00000+0001T   00001753+0000000956          1400 YM6130               2AZ
113073007113073079-003003     113073006003000448005A/TUBE 75ML DARK GREEN 0000001000+00001753+00000+0001T   00001753+0000000956          1400 YM6130               2AZ
113073008113073103-000474     113073006003000630363BAMBOO FLOWER BASKET   0000001000+00005262+00000+0001T   00005262+0000000956          1400 YM6300               2AZ
113074000113074               113074               170213JV     1400+00000+JV0000011094+0000011094+000000000+000001557+0000012651+0000000000+I40000012651+0000000000+Z
113074001113074306-001618     113074006003000571574INNER SOLES 2-PAIR KIDS0000002000+00002630+00000+0001T   00002630+0000001001          1400 YM6200               2AZ
113074002113074036-000151     113074006001023810588COATHANGERS    PACK-10 0000002000+00002893+00000+0001T   00002893+0000001001          1400 YM6212               2AZ
113074003113074112-116069     113074006009681820277TCS CARRIER BAG JUMBO  0000001000+00000048+00000+0001T   00000048+0000001001          1400 YM6090               2AZ
113075000113075               113075               170213JV     1400+00000+JV0000006139+0000006139+000000000+000000860+0000006999+0000000000+I40000006999+0000000000+Z
113075001113075124-001300     113075006003000486861STORAGE TIN WASHING    0000001000+00006139+00000+0001T   00006139+0000001003          1400 YM6300               2AZ
113076000113076               113076               170213JV     1400+00000+JV0000001578+0000001578+000000000+000000221+0000001790+0000000009+I20000000000+0000001790+Z
113076001113076251-000031     113076006001023515827MASKING-TAPE 24mmx40m  0000001000+00001578+00000+0001T   00001578+0000001007          1400 YM6810               2AZ
113077000113077               113077               170213JV     1400+00000+JV0000000613+0000000613+000000000+000000086+0000000690+0000000009+I20000000000+0000000690+Z
113077001113077083-000055     113077006003000003853LIGHTER ELCTRNC REFILBL0000001000+00000613+00000+0001T   00000613+0000001009          1400 YM6315               2AZ
113078000113078               113078               170213JV     1400+00000+JV0000002838+0000002838+000000000+000000399+0000003230+0000000007+I20000000000+0000003230+Z
113078001113078306-000019     113078006001023734846TOOTHBRUSH W/DESIGN    0000002000+00000525+00000+0001T   00000525+0000001019          1400 YM6200               2AZ
113078002113078016-006518     113078006003000351749S/JAR GLS CHECK 350ML  0000001000+00001753+00000+0001T   00001753+0000001019          1400 YM6300               2AZ
113078003113078112-116038     113078006009681820246TCS CARRIER BAG MIDI   0000001000+00000035+00000+0001T   00000035+0000001019          1400 YM6090               2AZ
113079000113079               113079               170213JV     1400+00000+JV0000008771+0000008771+000000000+000001228+0000009990+0000000009+I20000000000+0000009990+Z
113079001113079072-020259     113079006001023602664DOG-CHEW BONE 10cm 2PCE0000001000-00003507+00000+0001T   00003507+0000001028          1400 YM68701IC            2 Z
113079002113079072-020259     113079006001023602664DOG-CHEW BONE 10cm 2PCE0000001000+00003507+00000+0001T   00003507+0000001028          1400 YM68701IC            2AZ
113079003113079072-020242     113079006003000053728PET BED COTTON TEXTILE 0000001000+00008771+00000+0001T   00008771+0000001028          1400 YM6870               2AZ
113080000113080               113080               170213JV     1400+00000+JV0000001753-0000001753-000000000+000000246-0000002000-0000000001+I20000000000+0000002000-Z
113080001113080016-006518     113080006003000351749S/JAR GLS CHECK 350ML  0000001000-00001753+00000+0001T   00001753+0000001038          1400 YM63001IC            2 Z
113081000113081               113081               170213JV     1400+00000+JV0000014905+0000014905+000000000+000002089+0000016994+0000000000+I40000016994+0000000000+Z
113081001113081903-000610     113081006003000610518SWEET JUMBO BUBBLE GUM 0000001000+00001753+00000+0001T   00001753+0000001040          1400 YM6150               2AZ
113081002113081077-000906     113081006003000410804G/WRAP 700mmx1m BIRTHDA0000001000+00001753+00000+0001T   00001753+0000001040          1400 YM6112               2AZ
113081003113081071-008236     113081006003000406753PENCIL-BAG 21x9x6.5cm  0000001000+00003507+00000+0001T   00003507+0000001040          1400 YM6130               2AZ
113081004113081079-000012     113081006001023655332P/CRAYONS 12-COL LONG  0000001000+00001753+00000+0001T   00001753+0000001040          1400 YM6130               2AZ
113081005113081567-011424     113081006003000641468BK COLOURING THERAPY A40000001000+00006139+00000+0001T   00006139+0000001040          1400 YM6757               2AZ
113082000113082               113082               170213JV     1400+00000+JV0000004204+0000004204+000000000+000000592+0000004790+0000000006+I20000000000+0000004790+Z
113082001113082039-000026     113082006001023551610C/TAPERED 25CM M/RED   0000004000+00001051+00000+0001T   00001051+0000001043          1400 YM6510               2AZ
113083000113083               113083               170213JV     1400+00000+JV0000005308+0000005308+000000000+000000744+0000006052+0000000000+I40000006052+0000000000+Z
113083001113083077-000289     113083006001023901996GIFT BOX 20x25x11cm    0000001000+00001753+00000+0001T   00001753+0000001045          1400 YM6112               2AZ
113083002113083018-005009     113083006001023725608MUG W/PLUSH-BEAR LOVE  0000001000+00003507+00000+0001T   00003507+0000001045          1400 YM6515               2AZ
113083003113083112-116069     113083006009681820277TCS CARRIER BAG JUMBO  0000001000+00000048+00000+0001T   00000048+0000001045          1400 YM6090               2AZ
113084000113084               113084               170213JV     1400+00000+JV0000001227+0000001227+000000000+000000172+0000001390+0000000009+I20000000000+0000001390+Z
113084001113084007-000206     113084006009635830215X/PAD 80-SHEETS PUNCHED0000001000+00001227+00000+0001T   00001227+0000001045          1400 YM6130               2AZ
113085000113085               113085               170213JV     1400+00000+JV0000034595+0000034595+000000000+000004848+0000039440+0000000003+I20000000000+0000039440+Z
113085001113085112-116069     113085006009681820277TCS CARRIER BAG JUMBO  0000001000+00000048+00000+0001T   00000048+0000001047          1400 YM6090               2AZ
113085002113085079-000335     113085006003000670550THERAPY P/CRAYONS 30   0000001000+00007016+00000+0001T   00007016+0000001047          1400 YM6130               2AZ
113085003113085567-011424     113085006003000641468BK COLOURING THERAPY A40000001000+00006139+00000+0001T   00006139+0000001047          1400 YM6757               2AZ
113085004113085565-000049     113085006003000548156NOVELTY SLIME "BOOGERS"0000002000+00001490+00000+0001T   00001490+0000001047          1400 YM6745               2AZ
113085005113085565-000045     113085006003000295890NOVELTY HEADS 8PCE     0000002000+00002630+00000+0001T   00002630+0000001047          1400 YM6745               2AZ
113085006113085466-000051     113085006001023800510WATER BOMB 4,5cm SET 6 0000002000+00003507+00000+0001T   00003507+0000001047          1400 YM6785               2AZ
113085007113085564-001028     113085006001023708663BUBBLE CELEBRATION 6ml 0000002000+00003069+00000+0001T   00003069+0000001047          1400 YM6131               2AZ
113086000113086               113086               170213JV     1400+00000+JV0000007015+0000007015+000000000+000000983+0000007998+0000000000+I40000007998+0000000000+Z
113086001113086206-000620     113086006003000631797BACK SCRATCHER EXTEND  0000001000+00002630+00000+0001T   00002630+0000001048          1400 YM6321               2AZ
113086002113086174-000173     113086006001023905307STORAGE-BOX COLLAPSIBLE0000001000+00004385+00000+0001T   00004385+0000001048          1400 YM6205               2AZ
113087000113087               113087               170213JV     1400+00000+JV0000002630+0000002630+000000000+000000369+0000002990+0000000009+I20000000000+0000002990+Z
113087001113087159-000038     113087006003000393954HOOKS HANGER S/S 2PCE  0000001000+00002630+00000+0001T   00002630+0000001106          1400 YM62002IC            2AZ
113088000113088               113088               170213JV     1400+00000+JV0000013187+0000013187+000000000+000001847+0000015030+0000000004+I20000000000+0000015030+Z
113088001113088089-000220     113088006003000677368KEY CHAIN+PEN+KNIFE    0000002000+00003069+00000+0001T   00003069+0000001107          1400 YM6205               2AZ
113088002113088031-000844     113088006001023851789P/FRAME WDN WORDS 2ASS 0000001000+00003507+00000+0001T   00003507+0000001107          1400 YM6510               2AZ
113088003113088031-005853     113088006003000442416P/FRAME WDN TWIN HEARTS0000001000+00003507+00000+0001T   00003507+0000001107          1400 YM6510               2AZ
113088004113088112-116038     113088006009681820246TCS CARRIER BAG MIDI   0000001000+00000035+00000+0001T   00000035+0000001107          1400 YM6090               2AZ
113089000113089               113089               170213JV     1400+00000+JV0000005873+0000005873+000000000+000000823+0000006690+0000000006+I20000000000+0000006690+Z
113089001113089301-085004     113089006003000420469ORN LOVE PLAQUE 21X10CM0000001000+00003507+00000+0001T   00003946+0006471111          1400 YM6505               2AZ
113089002113089304-001011     113089006001023806727FLWR ROSE RED W/BEAR   0000001000+00000613+00000+0001T   00000788+0006471111          1400 YM6510               2AZ
113089003113089077-000290     113089006001023902023GIFT BOX 26x32x13cm    0000001000+00001753+00000+0001T   00001753+0000001111          1400 YM6112               2AZ
113090000113090               113090               170213JV     1400+00000+JV0000004822+0000004822+000000000+000000676+0000005490+0000000008+I20000000000+0000005490+Z
113090001113090089-000501     113090006003000622900KEY CHAIN LIGHT LASER  0000001000+00002192+00000+0001T   00002192+0000001111          1400 YM6205               2AZ
113090002113090463-000366     113090006001023789136SWIM W/NOODLE 150cm    0000001000+00002630+00000+0001T   00002630+0000001111          1400 YM6785               2AZ
113091000113091               113091               170213JV     1400+00000+JV0000004417+0000004417+000000000+000000620+0000005030+0000000007+I20000000000+0000005030+Z
113091001113091200-003024     113091006001023657299REFUSE BAGS 20PCE BLACK0000001000+00001753+00000+0001T   00001753+0000001114          1400 YM6214               2AZ
113091002113091077-000011-C   113091006001023808523TISSUE 10xSHTS RED     0000001000+00000876+00000+0001T   00000876+0000001114          1400 YM6112               2AZ
113091003113091080-008102     113091006003000080724CARD&ENV MINI 6PK FOIL 0000001000+00001753+00000+0001T   00001753+0000001114          1400 YM6112               2AZ
113091004113091112-116038     113091006009681820246TCS CARRIER BAG MIDI   0000001000+00000035+00000+0001T   00000035+0000001114          1400 YM6090               2AZ
113092000113092               113092               170213JV     1400+00000+JV0000025917+0000025917+000000000+000003631+0000029548+0000000000+I40000029548+0000000000+Z
113092001113092016-006501     113092006003000618507S/JAR GLS HERMETICO    0000002000+00005262+00000+0001T   00005262+0000001126          1400 YM6300               2AZ
113092002113092301-002060     113092006001023722584ORN SEA TREASURE CHEST 0000001000+00003946+00000+0001T   00003946+0000001126          1400 YM6505               2AZ
113092003113092368-000021     113092006003000672141PLUSH DINOSAUR 27cm    0000001000+00007016+00000+0001T   00007016+0000001126          1400 YM6745               2AZ
113092004113092037-000002     113092006001023994745ASHTRAY SPIN METAL 9cm 0000001000+00003507+00000+0001T   00003507+0000001126          1400 YM6515               2AZ
113092005113092089-000192-A   113092006001023901774KEY-CHAIN ACRYLIC      0000001000+00000876+00000+0001T   00000876+0000001126          1400 YM6205               2AZ
113092006113092112-116069     113092006009681820277TCS CARRIER BAG JUMBO  0000001000+00000048+00000+0001T   00000048+0000001126          1400 YM6090               2AZ
113093000113093               113093               170213JV     1400+00000+JV0000029812+0000029812+000000000+000004180+0000033990+0000000002+I20000000000+0000033990+Z
113093001113093077-000270     113093006003000395453GIFT-BAG PPR JMB 33X45 0000007000+00002630+00000+0001T   00002630+0000001128          1400 YM6112               2AZ
113093002113093368-000637     113093006001023874092PLUSH BEAR SLEEPING LOV0000001000+00011402+00000+0001T   00012279+0006471128          1400 YM6745               2AZ
113094000113094               113094               170213JV     1400+00000+JV0000001753+0000001753+000000000+000000246+0000001990+0000000009+I20000000000+0000001990+Z
113094001113094046-002032-PK2 113094004897006175063BATTERIES CR-2032  2PCE0000001000+00001753+00000+0001T   00001753+0000001135          1400 YM6312               2AZ
113095000113095               113095               170213JV     1400+00000+JV0000005297+0000005297+000000000+000000742+0000006039+0000000000+I40000006039+0000000000+Z
113095001113095018-019000     113095006003000557288MUG OCC. LOVE JUMBO    0000001000+00005262+00000+0001T   00005262+0000001140          1400 YM6515               2AZ
113095002113095112-116038     113095006009681820246TCS CARRIER BAG MIDI   0000001000+00000035+00000+0001T   00000035+0000001140          1400 YM6090               2AZ
113096000113096               113096               170213JV     1400+00000+JV0000023983+0000023983+000000000+000003360+0000027340+0000000003+I20000000000+0000027340+Z
113096001113096304-001204     113096006001023737984FLOWER OCC. TEDDY/ROSES0000001000+00001402+00000+0001T   00001490+0006471142          1400 YM6510               2AZ
113096002113096077-000010-C   113096006001023123879CREPE-PAPER RED        0000001000+00000788+00000+0001T   00000788+0000001142          1400 YM6112               2AZ
113096003113096018-000130     113096006001023867537MUG OCC LOVE MINI+HEART0000001000+00003507+00000+0001T   00003507+0000001142          1400 YM6515               2AZ
113096004113096077-000299     113096006003000395576G/BAG 32x25cm LRG LOVE 0000001000+00001490+00000+0001T   00001490+0000001142          1400 YM6112               2AZ
113096005113096018-000130     113096006001023867537MUG OCC LOVE MINI+HEART0000001000+00003507+00000+0001T   00003507+0000001142          1400 YM6515               2AZ
113096006113096018-000136     113096006001023659026MUG OCC LOVE W/PLUSH   0000001000+00003507+00000+0001T   00003507+0000001142          1400 YM6515               2AZ
113096007113096001-091415     113096006003000329113W/GLS OCC. LOVE 2PC 2800000001000+00008771+00000+0001T   00009648+0006471142          1400 YM6515               2AZ
113096008113096077-000303     113096006001023593757GIFT-BAG PAPER MED     0000001000+00001578+00000+0001T   00001578+0000001142          1400 YM6112               2AZ
113096009113096018-000136     113096006001023659026MUG OCC LOVE W/PLUSH   0000001000-00003507+00000+0001T   00003507+0000001142          1400 YM65152IC            2 Z
113096010113096080-000127     113096006003000424351VALENTINES DAY 36x24CM 0000001000+00002192+00000+0001T   00002192+0000001142          1400 YM6112               2AZ
113096011113096564-000012     113096006001023130075BUBBLE BOTTLE MAGIC    0000001000+00000700+00000+0001T   00000700+0000001142          1400 YM6131               2AZ
113096012113096112-116069     113096006009681820277TCS CARRIER BAG JUMBO  0000001000+00000048+00000+0001T   00000048+0000001142          1400 YM6090               2AZ
113097000113097               113097               170213JV     1400+00000+JV0000020171+0000020171+000000000+000002826+0000022990+0000000007+I20000000000+0000022990+Z
113097001113097035-000001     113097006002596010566UMBRELLA LADIES W/MINI 0000001000+00006139+00000+0001T   00006139+0000001146          1400 YM6205               2AZ
113097002113097035-000021     113097006002596020206UMBRELLA GENTS         0000001000+00006139+00000+0001T   00006139+0000001146          1400 YM6205               2AZ
113097003113097105-007585     113097006003000486151STORAGE BOX CLEAR DEPO 0000001000+00007893+00000+0001T   00010525+0008171146          1400 YM6210               2AZ
113098000113098               113098               170213JV     1400+00000+JV0000003946+0000003946+000000000+000000553+0000004490+0000000009+I20000000000+0000004490+Z
113098001113098007-000047     113098006009635833698FILE DISPLAY-BK A4 50PG0000001000+00003946+00000+0001T   00003946+0000001148          1400 YM6130               2AZ
113099000113099               113099               170213JV     1400+00000+JV0000004207+0000004207+000000000+000000590+0000004797+0000000000+I40000004797+0000000000+Z
113099001113099903-000123     113099006925925909280SWEET GS MINI MALLOWS  0000001000+00000876+00000+0001T   00000876+0000001201          1400 YM6150               2AZ
113099002113099079-013102     113099006003000019601ART+CRAFT DIY PIPE-CLNR0000001000+00002192+00000+0001T   00002192+0000001201          1400 YM6130               2AZ
113099003113099565-000071     113099006003000643387NOVELTY WIND UP CHATTER0000001000+00001139+00000+0001T   00001139+0000001201          1400 YM6745               2AZ
113100000113100               113100               170213JV     1400+00000+JV0000002628+0000002628+000000000+000000368+0000002990+0000000006+I20000000000+0000002990+Z
113100001113100055-009054     113100006001023471994CUP-HOOKS BRS 30mm H&H 0000002000+00001314+00000+0001T   00001314+0000001240          1400 YM6810               2AZ
113101000113101               113101               170213JV     1400+00000+JV0000008768+0000008768+000000000+000001229+0000009997+0000000000+I40000009997+0000000000+Z
113101001113101078-000026     113101006936198407090SUPERGLUE 3,0g GEL     0000001000+00001753+00000+0001T   00001753+0000001258          1400 YM6810               2AZ
113101002113101031-005840     113101006001023481412P/FRAME-CLIP 30X40CM   0000001000+00004385+00000+0001T   00004385+0000001258          1400 YM6510               2AZ
113101003113101031-005821     113101006001023667786P/FRAME-GLS CLIP 21X30 0000001000+00002630+00000+0001T   00002630+0000001258          1400 YM6510               2AZ
113102000113102               113102               170213JV     1400+00000+JV0000006311+0000006311+000000000+000000885+0000007190+0000000006+I20000000000+0000007190+Z
113102001113102018-000170     113102006001023775528MUG OCC. LOVE 2PC MINI 0000001000+00002192+00000+0001T   00002192+0000001259          1400 YM6515               2AZ
113102002113102304-001011     113102006001023806727FLWR ROSE RED W/BEAR   0000001000+00000613+00000+0001T   00000788+0006471259          1400 YM6510               2AZ
113102003113102565-000002     113102006003000308071NOVELTY GROWING ANIMALS0000001000+00001753+00000+0001T   00001753+0000001259          1400 YM6745               2AZ
113102004113102903-000215     113102006002099001214SWT GS MALLOW TWIST PAC0000001000+00001753+00000+0001T   00001753+0000001259          1400 YM6150               2AZ
113103000113103               113103               170213JV     1400+00000+JV0000001578+0000001578+000000000+000000221+0000001790+0000000009+I20000000000+0000001790+Z
113103001113103560-000700     113103006001023865830GROWING ANIMALS ASSTD  0000001000+00001578+00000+0001T   00001578+0000001300          1400 YM6745               2AZ
113104000113104               113104               170213JV     1400+00000+JV0000010083+0000010083+000000000+000001412+0000011490+0000000005+I20000000000+0000011490+Z
113104001113104018-000130     113104006001023867537MUG OCC LOVE MINI+HEART0000001000+00003507+00000+0001T   00003507+0000001301          1400 YM6515               2AZ
113104002113104031-086102     113104006001023900722P/FRAME PL WORD-TOP 4AS0000001000+00003507+00000+0001T   00003507+0000001301          1400 YM6510               2AZ
113104003113104089-000005     113104006003000094806KEY CHAIN CARDS MTL    0000001000+00003069+00000+0001T   00003069+0000001301          1400 YM6205               2AZ
113105000113105               113105               170213JV     1400+00000+JV0000013807+0000013807+000000000+000001937+0000015744+0000000000+I40000015744+0000000000+Z
113105001113105159-000103     113105006001023890214SHOWER CADDY PL-COATED 0000001000+00003946+00000+0001T   00003946+0000001304          1400 YM6200               2AZ
113105002113105903-000698     113105006002099007032SWT CANDY ECLAIRS 90g  0000001000+00001139+00000+0001T   00001139+0000001304          1400 YM6150               2AZ
113105003113105903-000699     113105006002099007018SWT CANDY FRUIT CHEWS  0000001000+00001139+00000+0001T   00001139+0000001304          1400 YM6150               2AZ
113105004113105903-000120     113105006002099001665SWEET GS ZILLIONS 50g  0000001000+00000700+00000+0001T   00000700+0000001304          1400 YM6150               2AZ
113105005113105903-000123     113105006925925909280SWEET GS MINI MALLOWS  0000001000+00000876+00000+0001T   00000876+0000001304          1400 YM6150               2AZ
113105006113105903-000843     113105008693029031067SWT GUMMY JELAXY 80G   0000001000+00000964+00000+0001T   00000964+0000001304          1400 YM6150               2AZ
113105007113105903-000081     113105006001704014076SWT F/PASTILLES 100G   0000001000+00001753+00000+0001T   00001753+0000001304          1400 YM6150               2AZ
113105008113105105-007016     113105006003000685059CONTAINER ROUND CLR    0000001000+00002192+00000+0001T   00002192+0000001304          1400 YM6210               2AZ
113105009113105903-000155     113105006009803374435SWT LOLLY I LUV U HEART0000002000+00000525+00000+0001T   00000525+0000001304          1400 YM6150               2AZ
113105010113105112-116069     113105006009681820277TCS CARRIER BAG JUMBO  0000001000+00000048+00000+0001T   00000048+0000001304          1400 YM6090               2AZ
113106000113106               113106               170213JV     1400+00000+JV0000012188+0000012188+000000000+000001708+0000013896+0000000000+I40000013896+0000000000+Z
113106001113106903-000520     113106006001704009898SWT GUMMY MINI SOUR 60g0000001000+00000876+00000+0001T   00000876+0000001307          1400 YM6150               2AZ
113106002113106903-000137     113106006002099004130SWEET GS JELLY BEAN 60G0000001000+00000788+00000+0001T   00000788+0000001307          1400 YM6150               2AZ
113106003113106077-000309     113106006001023608604GIFT-BAG 25X32CM GLOSS 0000001000+00001753+00000+0001T   00001753+0000001307          1400 YM6112               2AZ
113106004113106031-000924     113106006001023669964P/FRAME COLLAGE PL     0000001000+00008771+00000+0001T   00008771+0000001307          1400 YM6510               2AZ
113107000113107               113107               170213JV     1400+00000+JV0000014950+0000014950+000000000+000002095+0000017045+0000000000+I40000017045+0000000000+Z
113107001113107200-003019     113107006003000510856REFUSE BAGS 10PC D/STRN0000001000+00001314+00000+0001T   00001753+0008171309          1400 YM6214               2AZ
113107002113107306-000030     113107006003000567416C/WOOL COS. SET PP CASE0000001000+00003507+00000+0001T   00003507+0000001309          1400 YM6200               2AZ
113107003113107002-000698-B   113107006003000292295K/GADGET SPOON 41.5CM  0000001000+00002192+00000+0001T   00002192+0000001309          1400 YM6300               2AZ
113107004113107048-000755     113107006003000041282LANTERN PIVOT B/O 12LED0000001000+00004385+00000+0001T   00004385+0000001309          1400 YM6305               2AZ
113107005113107033-010720     113107006001023678645SAFETY-PINS 50PCE SMALL0000004000+00000876+00000+0001T   00000876+0000001309          1400 YM6200               2AZ
113107006113107112-116069     113107006009681820277TCS CARRIER BAG JUMBO  0000001000+00000048+00000+0001T   00000048+0000001309          1400 YM6090               2AZ
113108000113108               113108               170213JV     1400+00000+JV0000001750+0000001750+000000000+000000247+0000001990+0000000007+I20000000000+0000001990+Z
113108001113108032-000136     113108006001023328182M/STANDING STAND. ROUND0000001000-00006139+00000+0001T   00006139+0000001329          1400 YM65102IC            2 Z
113108002113108034-078800     113108006001023856555COOEY WET-WIPES 60PCE  0000001000+00001753+00000+0001T   00001753+0000001329          1400 YM6215               2AZ
113108003113108369-001034     113108006003000105632BABY RATTLE SINGLE ASST0000001000+00001753+00000+0001T   00001753+0000001329          1400 YM6745               2AZ
113108004113108034-000830     113108006001023480750BABY-BOTTLE 250ml      0000001000+00002630+00000+0001T   00002630+0000001329          1400 YM6215               2AZ
113108005113108034-000713     113108006001023899507COOEY TUMBLER NON-SPILL0000001000+00001753+00000+0001T   00002630+0008151329          1400 YM6215               2AZ
113109000113109               113109               170213JV     1400+00000+JV0000016487+0000016487+000000000+000002310+0000018790+0000000007+I20000000000+0000018790+Z
113109001113109368-000156     113109006003000167241PLUSH BUG 20cm ASST-COL0000002000+00007016+00000+0001T   00007016+0000001330          1400 YM6745               2AZ
113109002113109562-000009     113109000490810407180PLAY MODELLING CARDED  0000001000+00002455+00000+0001T   00002455+0000001330          1400 YM6755               2AZ
113110000113110               113110               170213JV     1400+00000+JV0000000876+0000000876+000000000+000000123+0000000990+0000000009+I20000000000+0000000990+Z
113110001113110077-000151     113110006008766114676GIFT-WRAP C/PHANE ASSTD0000001000+00000876+00000+0001T   00000876+0000001330          1400 YM6112               2AZ
113111000113111               113111               170213JV     1400+00000+JV0000005783+0000005783+000000000+000000811+0000006590+0000000004+I20000000000+0000006590+Z
113111001113111220-005006     113111006003000566396ELOFF SODA SPOONS 4PC  0000001000+00002630+00000+0001T   00002630+0000001331          1400 YM6300               2AZ
113111002113111903-000070     113111006001704001106SWT TOFFEE CREAMY 35g  0000002000+00000700+00000+0001T   00000700+0000001331          1400 YM6150               2AZ
113111003113111133-000381     113111006001023713674TABLE-CLOTH 132x178cm  0000001000+00001753+00000+0001T   00001753+0000001331          1400 YM6212               2AZ
113112000113112               113112               170213JV     1400+00000+JV0000007717+0000007717+000000000+000001081+0000008798+0000000000+I40000008798+0000000000+Z
113112001113112077-000315     113112006003000181186GIFT-BAG 20x28cm MATT  0000001000+00001578+00000+0001T   00001578+0000001337          1400 YM6112               2AZ
113112002113112368-000175     113112006003000270316PLUSH BEAR 4 ASSTD 18CM0000001000+00006139+00000+0001T   00006139+0000001337          1400 YM6745               2AZ
113113000113113               113113               170213JV     1400+00000+JV0000001968+0000001968+000000000+000000278+0000002240+0000000006+I20000000000+0000002240+Z
113113001113113903-000151     113113006009803374411SWT SML RND R/BOW LOLLY0000001000+00000525+00000+0001T   00000525+0000001339          1400 YM6150               2AZ
113113002113113903-000155     113113006009803374435SWT LOLLY I LUV U HEART0000002000+00000525+00000+0001T   00000525+0000001339          1400 YM6150               2AZ
113113003113113903-000183     113113006003000451043SWT LB HEART LOLLY     0000001000+00000393+00000+0001T   00000393+0000001339          1400 YM6150               2AZ
113114000113114               113114               170213JV     1400+00000+JV0000007014+0000007014+000000000+000000982+0000007990+0000000006+I20000000000+0000007990+Z
113114001113114263-000177     113114006001023826824RACER PULL BACK        0000002000+00003507+00000+0001T   00003507+0000001340          1400 YM6710               2AZ
113115000113115               113115               170213JV     1400+00000+JV0000004998+0000004998+000000000+000000700+0000005690+0000000008+I20000000000+0000005690+Z
113115001113115077-000311     113115006001023608666GIFT-BAG 11X14CM GLOSS 0000001000+00000613+00000+0001T   00000613+0000001341          1400 YM6112               2AZ
113115002113115031-000868-D   113115006003000580330P/FRAME PL BLCK CERT.  0000001000+00004385+00000+0001T   00004385+0000001341          1400 YM6510               2AZ
113116000113116               113116               170213JV     1400+00000+JV0000024071+0000024071+000000000+000003374+0000027445+0000000000+I40000027445+0000000000+Z
113116001113116031-005853     113116006003000442416P/FRAME WDN TWIN HEARTS0000001000+00003507+00000+0001T   00003507+0000001349          1400 YM6510               2AZ
113116002113116304-001204     113116006001023737984FLOWER OCC. TEDDY/ROSES0000002000+00001402+00000+0001T   00001490+0006471349          1400 YM6510               2AZ
113116003113116077-000358     113116006003000329977GIFT-BAG KIDS 25X32CM  0000001000+00001753+00000+0001T   00001753+0000001349          1400 YM6112               2AZ
113116004113116368-000049     113116006003000536955PLUSH BEAR 15cm LOVE   0000001000+00004385+00000+0001T   00004385+0000001349          1400 YM6745               2AZ
113116005113116077-000299     113116006003000395576G/BAG 32x25cm LRG LOVE 0000001000+00001490+00000+0001T   00001490+0000001349          1400 YM6112               2AZ
113116006113116206-000450     113116006003000619863DRINKING JAR GLOBE     0000001000+00002630+00000+0001T   00002630+0000001349          1400 YM6321               2AZ
113116007113116072-020249     113116006003000451241PET BLANKET FLEECE     0000001000+00005262+00000+0001T   00005262+0000001349          1400 YM6870               2AZ
113116008113116112-116069     113116006009681820277TCS CARRIER BAG JUMBO  0000001000+00000048+00000+0001T   00000048+0000001349          1400 YM6090               2AZ
113116009113116080-000127     113116006003000424351VALENTINES DAY 36x24CM 0000001000+00002192+00000+0001T   00002192+0000001349          1400 YM6112               2AZ
113117000113117               113117               170213JV     1400+00000+JV0000015740+0000015740+000000000+000002206+0000017946+0000000000+I40000017946+0000000000+Z
113117001113117080-000127     113117006003000424351VALENTINES DAY 36x24CM 0000001000+00002192+00000+0001T   00002192+0000001352          1400 YM6112               2AZ
113117002113117077-000010-C   113117006001023123879CREPE-PAPER RED        0000001000+00000788+00000+0001T   00000788+0000001352          1400 YM6112               2AZ
113117003113117077-000310     113117006001023608635GIFT-BAG 18X23CM GLOSS 0000001000+00001314+00000+0001T   00001314+0000001352          1400 YM6112               2AZ
113117004113117362-003000     113117006003000295258GIRL HEART NOTEBOOK    0000001000+00001753+00000+0001T   00002630+0008191352          1400 YM6160               2AZ
113117005113117073-000519     113117006001023871763COSMETIC-BG CYLINDRICAL0000001000+00003507+00000+0001T   00003507+0000001352          1400 YM6200               2AZ
113117006113117203-006005     113117006003000364671ICE BALL 18-PC IN PVC  0000002000+00003069+00000+0001T   00003069+0000001352          1400 YM6300               2AZ
113117007113117112-116069     113117006009681820277TCS CARRIER BAG JUMBO  0000001000+00000048+00000+0001T   00000048+0000001352          1400 YM6090               2AZ
113118000113118               113118               170213JV     1400+00000+JV0000001753+0000001753+000000000+000000246+0000001990+0000000009+I20000000000+0000001990+Z
113118001113118027-000917     113118006001023367433DUSTPAN-SET MINI 21x16 0000001000+00001753+00000+0001T   00001753+0000001352          1400 YM6212               2AZ
113119000113119               113119               170213JV     1400+00000+JV0000001753+0000001753+000000000+000000246+0000001990+0000000009+I20000000000+0000001990+Z
113119001113119036-000610     113119006001023627230WASHING-PEGS PL PACK-240000001000+00001753+00000+0001T   00001753+0000001406          1400 YM6212               2AZ
113120000113120               113120               170213JV     1400+00000+JV0000017100+0000017100+000000000+000002396+0000019490+0000000006+I20000000000+0000019490+Z
113120001113120079-000336     113120006003000670758SUPER FINE MARKER PENS 0000001000+00005262+00000+0001T   00005262+0000001408          1400 YM6130               2AZ
113120002113120080-000133     113120006003000535613CARD&ENV MINI ASTD DSGN0000001000+00000437+00000+0001T   00000437+0000001408          1400 YM6112               2AZ
113120003113120077-000235     113120006003000160211GIFT-RIBBON ROLL METALC0000001000+00002630+00000+0001T   00002630+0000001408          1400 YM6112               2AZ
113120004113120031-007010     113120006003000467945P/FRAME WDN CERTIFICATE0000001000+00008771+00000+0001T   00008771+0000001408          1400 YM6510               2AZ
113121000113121               113121               170213JV     1400+00000+JV0000004822+0000004822+000000000+000000676+0000005490+0000000008+I20000000000+0000005490+Z
113121001113121200-003024     113121006001023657299REFUSE BAGS 20PCE BLACK0000001000+00001753+00000+0001T   00001753+0000001413          1400 YM6214               2AZ
113121002113121007-000552     113121006001023848086NOTE-CASE 200 MEMO SHTS0000001000+00003069+00000+0001T   00003069+0000001413          1400 YM6130               2AZ
113121003113121566-000308     113121006003000522521STICKER TAPE 3PCS      0000001000-00002630+00000+0001T   00002630+0000001413          1400 YM61302IC            2 Z
113121004113121566-000308     113121006003000522521STICKER TAPE 3PCS      0000001000+00002630+00000+0001T   00002630+0000001413          1400 YM61302IC            2AZ
113122000113122               113122               170213JV     1400+00000+JV0000015571+0000015571+000000000+000002181+0000017750+0000000002+I20000000000+0000017750+Z
113122001113122304-001011     113122006001023806727FLWR ROSE RED W/BEAR   0000001000+00000613+00000+0001T   00000788+0006471425          1400 YM6510               2AZ
113122002113122001-091415     113122006003000329113W/GLS OCC. LOVE 2PC 2800000001000+00008771+00000+0001T   00009648+0006471425          1400 YM6515               2AZ
113122003113122018-050000     113122006003000412679MUG OCC LOVE TWIN BEAR 0000001000+00006139+00000+0001T   00006139+0000001425          1400 YM6515               2AZ
113122004113122112-116069     113122006009681820277TCS CARRIER BAG JUMBO  0000001000+00000048+00000+0001T   00000048+0000001425          1400 YM6090               2AZ
113123000113123               113123               170213JV     1400+00000+JV0000004206+0000004206+000000000+000000591+0000004797+0000000000+I40000004797+0000000000+Z
113123001113123304-001204     113123006001023737984FLOWER OCC. TEDDY/ROSES0000003000+00001402+00000+0001T   00001490+0006471426          1400 YM6510               2AZ
113124000113124               113124               170213JV     1400+00000+JV0000007453+0000007453+000000000+000001044+0000008490+0000000007+I20000000000+0000008490+Z
113124001113124071-001102     113124006003000274598MARKER PERM MED 2PCE   0000001000+00001753+00000+0001T   00001753+0000001427          1400 YM6130               2AZ
113124002113124075-000412     113124006001023855299SHOPPER-BASKET PL      0000001000+00005700+00000+0001T   00005700+0000001427          1400 YM6160               2AZ
113125000113125               113125               170213JV     1400+00000+JV0000012892+0000012892+000000000+000001806+0000014698+0000000000+I40000014698+0000000000+Z
113125001113125065-003699     113125006001023690883FLUTE RECORDER PL      0000001000+00001490+00000+0001T   00001490+0000001429          1400 YM6745               2AZ
113125002113125586-010655     113125006001492106557WATCH KIDS CUFF ASSTD  0000001000+00011402+00000+0001T   00011402+0000001429          1400 YM6160               2AZ
113126000113126               113126               170213JV     1400+00000+JV0000002366+0000002366+000000000+000000332+0000002698+0000000000+I40000002698+0000000000+Z
113126001113126002-000015     113126006003000555604CAPPUCCINO STENCILS 12P0000001000+00001753+00000+0001T   00001753+0000001434          1400 YM6300               2AZ
113126002113126304-001011     113126006001023806727FLWR ROSE RED W/BEAR   0000001000+00000613+00000+0001T   00000788+0006471434          1400 YM6510               2AZ
113127000113127               113127               170213JV     1400+00000+JV0000011048+0000011048+000000000+000001548+0000012590+0000000006+I20000000000+0000012590+Z
113127001113127567-011423     113127006003000641345BK COLOURING THERAPY A50000001000+00006139+00000+0001T   00006139+0000001437          1400 YM6757               2AZ
113127002113127077-000463     113127006003000321698G/BAG GLITTER MED20x28 0000001000+00002192+00000+0001T   00002192+0000001437          1400 YM6112               2AZ
113127003113127077-000315     113127006003000181186GIFT-BAG 20x28cm MATT  0000001000+00001578+00000+0001T   00001578+0000001437          1400 YM6112               2AZ
113127004113127565-000071     113127006003000643387NOVELTY WIND UP CHATTER0000001000+00001139+00000+0001T   00001139+0000001437          1400 YM6745               2AZ
113128000113128               113128               170213JV     1400+00000+JV0000009692+0000009692+000000000+000001359+0000011051+0000000000+I40000011051+0000000000+Z
113128001113128077-000309     113128006001023608604GIFT-BAG 25X32CM GLOSS 0000001000+00001753+00000+0001T   00001753+0000001442          1400 YM6112               2AZ
113128002113128077-000455     113128006003000285389G/BAG METALLIC LRG SOL 0000001000+00001753+00000+0001T   00001753+0000001442          1400 YM6112               2AZ
113128003113128089-000220     113128006003000677368KEY CHAIN+PEN+KNIFE    0000001000+00003069+00000+0001T   00003069+0000001442          1400 YM6205               2AZ
113128004113128089-060027     113128006003000245871KEY-CHAIN HEART 6X6cm  0000001000+00003069+00000+0001T   00003069+0000001442          1400 YM6205               2AZ
113128005113128112-116069     113128006009681820277TCS CARRIER BAG JUMBO  0000001000+00000048+00000+0001T   00000048+0000001442          1400 YM6090               2AZ
113129000113129               113129               170213JV     1400+00000+JV0000004117+0000004117+000000000+000000578+0000004695+0000000000+I40000004695+0000000000+Z
113129001113129007-000167     113129006009685857347SPIRAL NOTES A7 72PG   0000002000+00000350+00000+0001T   00000350+0000001445          1400 YM6130               2AZ
113129002113129077-000245     113129006001023759214GIFT-RIBBON METALLICx2 0000001000+00001227+00000+0001T   00001227+0000001445          1400 YM6112               2AZ
113129003113129077-000381     113129006003000247707GIFT-BAG 25X32CM S/COL 0000001000+00001753+00000+0001T   00001753+0000001445          1400 YM6112               2AZ
113129004113129080-000133-A   113129006003000647019MINI VALENTINES CARD   0000001000+00000437+00000+0001T   00000437+0000001445          1400 YM6112               2AZ
113130000113130               113130               170213JV     1400+00000+JV0000012321+0000012321+000000000+000001727+0000014040+0000000008+I20000000000+0000014040+Z
113130001113130079-000341     113130006920705495519FELT-TIP PENS 12PCE    0000001000+00001753+00000+0001T   00001753+0000001449          1400 YM6130               2AZ
113130002113130567-011422     113130006003000641222BK COLOURING THERAPY   0000001000+00003507+00000+0001T   00003507+0000001449          1400 YM6757               2AZ
113130003113130077-000310     113130006001023608635GIFT-BAG 18X23CM GLOSS 0000001000+00001314+00000+0001T   00001314+0000001449          1400 YM6112               2AZ
113130004113130077-000382     113130006003000247820GIFT-BAG MED 18X23CM   0000001000+00001753+00000+0001T   00001753+0000001449          1400 YM6112               2AZ
113130005113130024-000002     113130006001023741899S/BURNER-COVER SILV/BLK0000001000+00003946+00000+0001T   00004385+0008191449          1400 YM6300               2AZ
113130006113130112-116069     113130006009681820277TCS CARRIER BAG JUMBO  0000001000+00000048+00000+0001T   00000048+0000001449          1400 YM6090               2AZ
113131000113131               113131               170213JV     1400+00000+JV0000004208+0000004208+000000000+000000590+0000004798+0000000000+I40000004798+0000000000+Z
113131001113131078-000020     113131008887013700071YAMAYO CONTACT-CEMENT  0000001000+00001753+00000+0001T   00001753+0000001451          1400 YM6810               2AZ
113131002113131079-000802     113131006001023528902ART+CRAFT STICKS 100PCE0000001000+00002455+00000+0001T   00002455+0000001451          1400 YM6130               2AZ
113132000113132               113132               170213JV     1400+00000+JV0000009904+0000009904+000000000+000001388+0000011290+0000000002+I20000000000+0000011290+Z
113132001113132006-000166-D   113132006003000516490BALLOONS LRG 6PC RED   0000001000+00001314+00000+0001T   00001314+0000001454          1400 YM6131               2AZ
113132002113132006-000190     113132006003000685530BALLOONS LOVE 81x91cm  0000001000+00004385+00000+0001T   00004385+0000001454          1400 YM6131               2AZ
113132003113132088-000084     113132006001023798060P/POURRI 120G ASSTD    0000001000+00001753+00000+0001T   00001753+0000001454          1400 YM6212               2AZ
113132004113132006-001000     113132006003000093779HELIUM BALLOON FILL    0000004000+00000613+00000+0001T   00000613+0000001454          1400 YM6131               2AZ
113133000113133               113133               170213JV     1400+00000+JV0000010462+0000010462+000000000+000001465+0000011927+0000000000+I40000011927+0000000000+Z
113133001113133079-014101     113133006001023908612ART+CRAFT SCOUBIDOUx50 0000002000+00003507+00000+0001T   00003507+0000001457          1400 YM6130               2AZ
113133002113133018-000177     113133006001023797513MUG MINI LOVE ASSTD    0000004000+00000700+00000+0001T   00000700+0000001457          1400 YM6515               2AZ
113133003113133112-116038     113133006009681820246TCS CARRIER BAG MIDI   0000001000+00000035+00000+0001T   00000035+0000001457          1400 YM6090               2AZ
113133004113133565-000044     113133006003000128280BARREL OF SLIME 100g   0000001000+00000613+00000+0001T   00000613+0000001457          1400 YM6745               2AZ
113134000113134               113134               170213JV     1400+00000+JV0000005378+0000005378+000000000+000000755+0000006133+0000000000+I40000006133+0000000000+Z
113134001113134077-000311     113134006001023608666GIFT-BAG 11X14CM GLOSS 0000001000+00000613+00000+0001T   00000613+0000001458          1400 YM6112               2AZ
113134002113134077-000010-C   113134006001023123879CREPE-PAPER RED        0000001000+00000788+00000+0001T   00000788+0000001458          1400 YM6112               2AZ
113134003113134903-000844     113134005010478432567SWT CANDY DL LUV HEARTS0000001000+00001314+00000+0001T   00001314+0000001458          1400 YM6150               2AZ
113134004113134903-000861     113134005010478430822SWT LOVE HEARTS SML    0000003000+00000876+00000+0001T   00000876+0000001458          1400 YM6150               2AZ
113134005113134112-116038     113134006009681820246TCS CARRIER BAG MIDI   0000001000+00000035+00000+0001T   00000035+0000001458          1400 YM6090               2AZ
113135000113135               113135               170213JV     1400+00000+JV0000021485+0000021485+000000000+000003008+0000024493+0000000000+I40000024493+0000000000+Z
113135001113135031-000874-C   113135006001023798862P/FRAME WDN P/BOX 20X250000003000+00005700+00000+0001T   00005700+0000001508          1400 YM6510               2AZ
113135002113135031-000874-B   113135006001023798831P/FRAME WDN P/BOX 13X180000001000+00004385+00000+0001T   00004385+0000001508          1400 YM6510               2AZ
113136000113136               113136               170213JV     1400+00000+JV0000002628+0000002628+000000000+000000368+0000002990+0000000006+I20000000000+0000002990+Z
113136001113136006-000166-H   113136006003000608096BALLOONS HELIUM 6PC WHT0000001000+00001314+00000+0001T   00001314+0000001509          1400 YM6131               2AZ
113136002113136006-000166-D   113136006003000516490BALLOONS LRG 6PC RED   0000001000+00001314+00000+0001T   00001314+0000001509          1400 YM6131               2AZ
113137000113137               113137               170213JV     1400+00000+JV0000008771+0000008771+000000000+000001228+0000009990+0000000009+I20000000000+0000009990+Z
113137001113137001-091415     113137006003000329113W/GLS OCC. LOVE 2PC 2800000001000+00008771+00000+0001T   00009648+0006471512          1400 YM6515               2AZ
113138000113138               113138               170213JV     1400+00000+JV0000003244+0000003244+000000000+000000455+0000003690+0000000009+I20000000000+0000003690+Z
113138001113138046-000400     113138006001023804983BATT ALKALINE 1.5Vx30PC0000001000+00003244+00000+0001T   00003244+0000001519          1400 YM6312               2AZ
113139000113139               113139               170213JV     1400+00000+JV0000014077+0000014077+000000000+000001972+0000016049+0000000000+I40000016049+0000000000+Z
113139001113139368-000175     113139006003000270316PLUSH BEAR 4 ASSTD 18CM0000001000+00006139+00000+0001T   00006139+0000001522          1400 YM6745               2AZ
113139002113139077-000310     113139006001023608635GIFT-BAG 18X23CM GLOSS 0000002000+00001314+00000+0001T   00001314+0000001522          1400 YM6112               2AZ
113139003113139368-000053     113139006003000633449PLUSH BEAR 15.5cm MUM  0000001000+00005262+00000+0001T   00005262+0000001522          1400 YM6745               2AZ
113139004113139112-116069     113139006009681820277TCS CARRIER BAG JUMBO  0000001000+00000048+00000+0001T   00000048+0000001522          1400 YM6090               2AZ
113140000113140               113140               170213JV     1400+00000+JV0000006487+0000006487+000000000+000000909+0000007396+0000000000+I40000007396+0000000000+Z
113140001113140077-000303     113140006001023593757GIFT-BAG PAPER MED     0000001000+00001578+00000+0001T   00001578+0000001524          1400 YM6112               2AZ
113140002113140304-001204     113140006001023737984FLOWER OCC. TEDDY/ROSES0000001000+00001402+00000+0001T   00001490+0006471524          1400 YM6510               2AZ
113140003113140031-005853     113140006003000442416P/FRAME WDN TWIN HEARTS0000001000+00003507+00000+0001T   00003507+0000001524          1400 YM6510               2AZ
113141000113141               113141               170213JV     1400+00000+JV0000003243+0000003243+000000000+000000455+0000003698+0000000000+I40000003698+0000000000+Z
113141001113141084-006995     113141006003000092802NAIL CLIPPER 8cm TOE   0000001000+00001753+00000+0001T   00001753+0000001528          1400 YM6200               2AZ
113141002113141084-070001     113141006001023630018NAIL FILE 12cm         0000001000+00001490+00000+0001T   00001490+0000001528          1400 YM6200               2AZ
113142000113142               113142               170213JV     1400+00000+JV0000002630+0000002630+000000000+000000369+0000002999+0000000000+I40000002999+0000000000+Z
113142001113142304-001126     113142006001023845047FLWR BUNCH GERBERA 31cm0000001000+00002630+00000+0001T   00002630+0000001529          1400 YM6510               2AZ
113143000113143               113143               170213JV     1400+00000+JV0000031795+0000031795+000000000+000004460+0000036250+0000000005+I20000000000+0000036250+Z
113143001113143565-000002     113143006003000308071NOVELTY GROWING ANIMALS0000002000+00001753+00000+0001T   00001753+0000001532          1400 YM6745               2AZ
113143002113143565-000735     113143006003000615674NOVELTY PUTTY BOUNCING 0000006000+00000700+00000+0001T   00000700+0000001532          1400 YM6745               2AZ
113143003113143366-004050     113143006003000308330DRESS UP TEEN BADGES   0000003000+00001490+00000+0001T   00001490+0000001532          1400 YM6131               2AZ
113143004113143007-000555     113143006001023848239MEMO-PAD MINI LOVE     0000004000+00000613+00000+0001T   00000613+0000001532          1400 YM6130               2AZ
113143005113143362-003003     113143006003000295616HAIR BAND SET 6PCE     0000001000+00001753+00000+0001T   00001753+0000001532          1400 YM6160               2AZ
113143006113143903-000183     113143006003000451043SWT LB HEART LOLLY     0000003000+00000393+00000+0001T   00000393+0000001532          1400 YM6150               2AZ
113143007113143565-000256     113143006003000609826NOVELTY GLOW SLIME     0000004000+00000700+00000+0001T   00000700+0000001532          1400 YM6745               2AZ
113143008113143566-000359     113143006003000582709STICKER BOOK LOVE SPARK0000001000+00002192+00000+0001T   00002192+0000001532          1400 YM6130               2AZ
113143009113143077-000010-C   113143006001023123879CREPE-PAPER RED        0000001000+00000788+00000+0001T   00000788+0000001532          1400 YM6112               2AZ
113143010113143566-000068     113143006003000418046POP UP LOVE 2 ASSTD    0000001000+00002192+00000+0001T   00002192+0000001532          1400 YM6130               2AZ
113143011113143077-000151     113143006008766114676GIFT-WRAP C/PHANE ASSTD0000001000+00000876+00000+0001T   00000876+0000001532          1400 YM6112               2AZ
113143012113143112-116069     113143006009681820277TCS CARRIER BAG JUMBO  0000001000+00000048+00000+0001T   00000048+0000001532          1400 YM6090               2AZ
113143013113143007-000555     113143006001023848239MEMO-PAD MINI LOVE     0000003000+00000613+00000+0001T   00000613+0000001532          1400 YM6130               2AZ
113143014113143564-000012     113143006001023130075BUBBLE BOTTLE MAGIC    0000005000+00000700+00000+0001T   00000700+0000001532          1400 YM6131               2AZ
113144000113144               113144               170213JV     1400+00000+JV0000002100+0000002100+000000000+000000294+0000002390+0000000004+I20000000000+0000002390+Z
113144001113144464-000121     113144006003000640492PLAYING CARDS MINI     0000003000+00000700+00000+0001T   00000700+0000001533          1400 YM6785               2AZ
113145000113145               113145               170213JV     1400+00000+JV0000005524+0000005524+000000000+000000774+0000006298+0000000000+I40000006298+0000000000+Z
113145001113145560-000022     113145006003000651511ANIMALS CROC 29.5cm    0000001000+00004385+00000+0001T   00004385+0000001534          1400 YM6745               2AZ
113145002113145565-000071     113145006003000643387NOVELTY WIND UP CHATTER0000001000+00001139+00000+0001T   00001139+0000001534          1400 YM6745               2AZ
113146000113146               113146               170213JV     1400+00000+JV0000012324+0000012324+000000000+000001726+0000014050+0000000000+I40000014050+0000000000+Z
113146001113146018-005009     113146006001023725608MUG W/PLUSH-BEAR LOVE  0000001000+00003507+00000+0001T   00003507+0000001537          1400 YM6515               2AZ
113146002113146301-085004     113146006003000420469ORN LOVE PLAQUE 21X10CM0000001000+00003507+00000+0001T   00003946+0006471537          1400 YM6505               2AZ
113146003113146103-000245     113146006003000571550BASKET WOVEN RECT      0000001000+00005262+00000+0001T   00005262+0000001537          1400 YM6300               2AZ
113146004113146112-116069     113146006009681820277TCS CARRIER BAG JUMBO  0000001000+00000048+00000+0001T   00000048+0000001537          1400 YM6090               2AZ
113147000113147               113147               170213JV     1400+00000+JV0000000700+0000000700+000000000+000000098+0000000790+0000000008+I20000000000+0000000790+Z
113147001113147464-000121     113147006003000640492PLAYING CARDS MINI     0000001000+00000700+00000+0001T   00000700+0000001537          1400 YM6785               2AZ
113148000113148               113148               170213JV     1400+00000+JV0000006692+0000006692+000000000+000000939+0000007630+0000000001+I20000000000+0000007630+Z
113148001113148046-001216-PK2 113148004897006178460BATTERY LITHIUM CR-12160000001000+00000876+00000+0001T   00000876+0000001538          1400 YM6312               2AZ
113148002113148077-000245     113148006001023759214GIFT-RIBBON METALLICx2 0000001000+00001227+00000+0001T   00001227+0000001538          1400 YM6112               2AZ
113148003113148077-000011-C   113148006001023808523TISSUE 10xSHTS RED     0000001000+00000876+00000+0001T   00000876+0000001538          1400 YM6112               2AZ
113148004113148566-000062     113148006001023689641S/BOOK STICKER GLITTER 0000002000+00000700+00000+0001T   00000876+0008151538          1400 YM6130               2AZ
113148005113148077-000150-D   113148006003000054343GIFT-WRAP CELLPHANE CLR0000001000+00000876+00000+0001T   00000876+0000001538          1400 YM6112               2AZ
113148006113148105-001005     113148006001023858214CONTAINERS MINI 6PCE   0000001000+00001402+00000+0001T   00001402+0000001538          1400 YM6210               2AZ
113148007113148112-116038     113148006009681820246TCS CARRIER BAG MIDI   0000001000+00000035+00000+0001T   00000035+0000001538          1400 YM6090               2AZ
113149000113149               113149               170213JV     1400+00000+JV0000009888+0000009888+000000000+000001385+0000011273+0000000000+I40000011273+0000000000+Z
113149001113149071-081101-A   113149006003000326549GLUE-STICK 25g BLISTER 0000001000+00000788+00000+0001T   00000788+0000001539          1400 YM6130               2AZ
113149002113149007-000166     113149006009685857316SPIRAL NOTES A6 100PG  0000013000+00000700+00000+0001T   00000700+0000001539          1400 YM6130               2AZ
113150000113150               113150               170213JV     1400+00000+JV0000002367+0000002367+000000000+000000332+0000002699+0000000000+I40000002699+0000000000+Z
113150001113150150-000775     113150006001023129253UTILITY-BOX LARGE      0000001000+00002367+00000+0001T   00002367+0000001542          1400 YM6810               2AZ
113151000113151               113151               170213JV     1400+00000+JV0000001490+0000001490+000000000+000000209+0000001690+0000000009+I20000000000+0000001690+Z
113151001113151077-000299     113151006003000395576G/BAG 32x25cm LRG LOVE 0000001000+00001490+00000+0001T   00001490+0000001542          1400 YM6112               2AZ
113152000113152               113152               170213JV     1400+00000+JV0000000700+0000000700+000000000+000000098+0000000798+0000000000+I40000000798+0000000000+Z
113152001113152566-002000     113152000721129013206STICKERS CRYSTAL ASSTD 0000001000+00000700+00000+0001T   00000700+0000001543          1400 YM6130               2AZ
113153000113153               113153               170213JV     1400+00000+JV0000006174+0000006174+000000000+000000865+0000007039+0000000000+I40000007039+0000000000+Z
113153001113153018-005007     113153006003000515516MUG OCC. LOVE W/HEARTS 0000001000+00006139+00000+0001T   00006139+0000001546          1400 YM6515               2AZ
113153002113153112-116038     113153006009681820246TCS CARRIER BAG MIDI   0000001000+00000035+00000+0001T   00000035+0000001546          1400 YM6090               2AZ
113154000113154               113154               170213JV     1400+00000+JV0000003099+0000003099+000000000+000000437+0000003536+0000000000+I40000003536+0000000000+Z
113154001113154080-000133     113154006003000535613CARD&ENV MINI ASTD DSGN0000001000+00000437+00000+0001T   00000437+0000001547          1400 YM6112               2AZ
113154002113154080-000133-A   113154006003000647019MINI VALENTINES CARD   0000001000+00000437+00000+0001T   00000437+0000001547          1400 YM6112               2AZ
113154003113154080-000133     113154006003000535613CARD&ENV MINI ASTD DSGN0000001000+00000437+00000+0001T   00000437+0000001547          1400 YM6112               2AZ
113154004113154077-000358     113154006003000329977GIFT-BAG KIDS 25X32CM  0000001000+00001753+00000+0001T   00001753+0000001547          1400 YM6112               2AZ
113154005113154112-116038     113154006009681820246TCS CARRIER BAG MIDI   0000001000+00000035+00000+0001T   00000035+0000001547          1400 YM6090               2AZ
113155000113155               113155               170213JV     1400+00000+JV0000008243+0000008243+000000000+000001155+0000009390+0000000008+I20000000000+0000009390+Z
113155001113155065-003639     113155006001023787620GUITAR ROCKER          0000001000+00007016+00000+0001T   00007016+0000001547          1400 YM6745               2AZ
113155002113155077-000322     113155006001023677532GIFT-BAG 18X23CM E/D FL0000001000+00001227+00000+0001T   00001227+0000001547          1400 YM6112               2AZ
113156000113156               113156               170213JV     1400+00000+JV0000004385+0000004385+000000000+000000614+0000004990+0000000009+I20000000000+0000004990+Z
113156001113156031-080508     113156006001023802415P/FRAME PL 22X11CM LOVE0000001000+00004385+00000+0001T   00004385+0000001548          1400 YM6510               2AZ
113157000113157               113157               170213JV     1400+00000+JV0000008806+0000008806+000000000+000001233+0000010030+0000000009+I20000000000+0000010030+Z
113157001113157001-091415     113157006003000329113W/GLS OCC. LOVE 2PC 2800000001000+00008771+00000+0001T   00009648+0006471549          1400 YM6515               2AZ
113157002113157112-116038     113157006009681820246TCS CARRIER BAG MIDI   0000001000+00000035+00000+0001T   00000035+0000001549          1400 YM6090               2AZ
113158000113158               113158               170213JV     1400+00000+JV0000002192+0000002192+000000000+000000307+0000002490+0000000009+I20000000000+0000002490+Z
113158001113158018-000170     113158006001023775528MUG OCC. LOVE 2PC MINI 0000001000+00002192+00000+0001T   00002192+0000001549          1400 YM6515               2AZ
113159000113159               113159               170213JV     1400+00000+JV0000003069+0000003069+000000000+000000430+0000003490+0000000009+I20000000000+0000003490+Z
113159001113159072-000014     113159006003000451845PET DOG/CAT BRUSH 20cm 0000001000+00003069+00000+0001T   00003069+0000001549          1400 YM6870               2AZ
113160000113160               113160               170213JV     1400+00000+JV0000009341+0000009341+000000000+000001310+0000010650+0000000001+I20000000000+0000010650+Z
113160001113160080-000127     113160006003000424351VALENTINES DAY 36x24CM 0000001000+00002192+00000+0001T   00002192+0000001550          1400 YM6112               2AZ
113160002113160018-019000     113160006003000557288MUG OCC. LOVE JUMBO    0000001000+00005262+00000+0001T   00005262+0000001550          1400 YM6515               2AZ
113160003113160903-000138     113160006002099004314SWT GS WINE GUMS 60G   0000001000+00000788+00000+0001T   00000788+0000001550          1400 YM6150               2AZ
113160004113160903-002850     113160000000087108262MENTOS ROLL FRUIT      0000001000+00001051+00000+0001T   00001051+0000001550          1400 YM6150               2AZ
113160005113160112-116069     113160006009681820277TCS CARRIER BAG JUMBO  0000001000+00000048+00000+0001T   00000048+0000001550          1400 YM6090               2AZ
113161000113161               113161               170213JV     1400+00000+JV0000003068+0000003068+000000000+000000430+0000003490+0000000008+I20000000000+0000003490+Z
113161001113161024-091103     113161006003453014307BAKING-CUP MUFFIN 50PCE0000001000+00002192+00000+0001T   00002192+0000001551          1400 YM6300               2AZ
113161002113161071-005213     113161006001023690371CELLOTAPE 12mmx33m     0000001000+00000876+00000+0001T   00000876+0000001551          1400 YM6130               2AZ
113162000113162               113162               170213JV     1400+00000+JV0000004822+0000004822+000000000+000000676+0000005498+0000000000+I40000005498+0000000000+Z
113162001113162080-000127     113162006003000424351VALENTINES DAY 36x24CM 0000001000+00002192+00000+0001T   00002192+0000001553          1400 YM6112               2AZ
113162002113162077-000270     113162006003000395453GIFT-BAG PPR JMB 33X45 0000001000+00002630+00000+0001T   00002630+0000001553          1400 YM6112               2AZ
113163000113163               113163               170213JV     1400+00000+JV0000006139+0000006139+000000000+000000860+0000006999+0000000000+I40000006999+0000000000+Z
113163001113163103-000071     113163006001023889713BASKET RECT 30X19X12cm 0000001000+00006139+00000+0001T   00006139+0000001554          1400 YM6300               2AZ
113164000113164               113164               170213JV     1400+00000+JV0000021925+0000021925+000000000+000003070+0000024990+0000000005+I20000000000+0000024990+Z
113164001113164031-080508     113164006001023802415P/FRAME PL 22X11CM LOVE0000005000+00004385+00000+0001T   00004385+0000001556          1400 YM6510               2AZ
113165000113165               113165               170213JV     1400+00000+JV0000002630+0000002630+000000000+000000369+0000002990+0000000009+I20000000000+0000002990+Z
113165001113165159-000035     113165006003000420759HOOKS W/HANGER 2PC S/S 0000001000+00002630+00000+0001T   00003069+0008131556          1400 YM6200               2AZ
113166000113166               113166               170213JV     1400+00000+JV0000002628+0000002628+000000000+000000368+0000002990+0000000006+I20000000000+0000002990+Z
113166001113166006-000166-D   113166006003000516490BALLOONS LRG 6PC RED   0000002000+00001314+00000+0001T   00001314+0000001558          1400 YM6131               2AZ
113167000113167               113167               170213JV     1400+00000+JV0000019678+0000019678+000000000+000002757+0000022435+0000000000+I40000022435+0000000000+Z
113167001113167082-000388     113167006001023774385SPECT-CASE SPRING-CLOSE0000001000+00002630+00000+0001T   00002630+0000001600          1400 YM6160               2AZ
113167002113167082-000122-D   113167006003000405596R/GLASS STRENGTH:2.5   0000001000+00005262+00000+0001T   00005262+0000001600          1400 YM6160               2AZ
113167003113167077-000318     113167006001023609755GIFT-BAG 18X23CM E/D AN0000001000+00001227+00000+0001T   00001227+0000001600          1400 YM6112               2AZ
113167004113167082-000115     113167006003000360604READING GLS STRNGHT:2.50000001000+00004385+00000+0001T   00004385+0000001600          1400 YM6160               2AZ
113167005113167368-000265     113167006001023750914PLUSH BEAR 23CM ASSTD C0000001000+00006139+00000+0001T   00006139+0000001600          1400 YM6745               2AZ
113167006113167112-116038     113167006009681820246TCS CARRIER BAG MIDI   0000001000+00000035+00000+0001T   00000035+0000001600          1400 YM6090               2AZ
113168000113168               113168               170213JV     1400+00000+JV0000001227+0000001227+000000000+000000172+0000001390+0000000009+I20000000000+0000001390+Z
113168001113168077-000245     113168006001023759214GIFT-RIBBON METALLICx2 0000001000+00001227+00000+0001T   00001227+0000001601          1400 YM6112               2AZ
113169000113169               113169               170213JV     1400+00000+JV0000002803+0000002803+000000000+000000394+0000003190+0000000007+I20000000000+0000003190+Z
113169001113169903-000155     113169006009803374435SWT LOLLY I LUV U HEART0000002000+00000525+00000+0001T   00000525+0000001603          1400 YM6150               2AZ
113169002113169566-000007     113169006001023761187S/BOOK SUPER VALUE     0000001000+00001753+00000+0001T   00001753+0000001603          1400 YM6130               2AZ
113170000113170               113170               170213JV     1400+00000+JV0000005258+0000005258+000000000+000000737+0000005995+0000000000+I40000005995+0000000000+Z
113170001113170077-000150-D   113170006003000054343GIFT-WRAP CELLPHANE CLR0000002000+00000876+00000+0001T   00000876+0000001606          1400 YM6112               2AZ
113170002113170077-000310     113170006001023608635GIFT-BAG 18X23CM GLOSS 0000001000+00001314+00000+0001T   00001314+0000001606          1400 YM6112               2AZ
113170003113170080-000127     113170006003000424351VALENTINES DAY 36x24CM 0000001000+00002192+00000+0001T   00002192+0000001606          1400 YM6112               2AZ
113171000113171               113171               170213JV     1400+00000+JV0000010392+0000010392+000000000+000001457+0000011849+0000000000+I40000011849+0000000000+Z
113171001113171903-000843     113171008693029031067SWT GUMMY JELAXY 80G   0000003000+00000964+00000+0001T   00000964+0000001608          1400 YM6150               2AZ
113171002113171016-006425     113171006001023998170S/JAR GLS CLIP W/RIBBON0000001000+00002630+00000+0001T   00002630+0000001608          1400 YM6300               2AZ
113171003113171566-000359     113171006003000582709STICKER BOOK LOVE SPARK0000001000+00002192+00000+0001T   00002192+0000001608          1400 YM6130               2AZ
113171004113171566-000367     113171006003000645558STICKER WINDOW DECOR   0000001000+00002630+00000+0001T   00002630+0000001608          1400 YM6130               2AZ
113171005113171112-116069     113171006009681820277TCS CARRIER BAG JUMBO  0000001000+00000048+00000+0001T   00000048+0000001608          1400 YM6090               2AZ
113172000113172               113172               170213JV     1400+00000+JV0000002630+0000002630+000000000+000000369+0000002990+0000000009+I20000000000+0000002990+Z
113172001113172079-000282     113172006001023493309PAINT TUBS POSTER 12COL0000001000+00002630+00000+0001T   00002630+0000001608          1400 YM6130               2AZ
113173000113173               113173               170213JV     1400+00000+JV0000003242+0000003242+000000000+000000455+0000003690+0000000007+I20000000000+0000003690+Z
113173001113173567-075466     113173009780263253405BK NOVEL ROMANCE       0000001000+00002630+00000+0001T   00002630+0000001609          1400 YM6757               2AZ
113173002113173079-009700-D   113173006003000545711PAPER SIRIO A4 RED COL.0000002000+00000306+00000+0001T   00000306+0000001609          1400 YM6130               2AZ
113174000113174               113174               170213JV     1400+00000+JV0000003857+0000003857+000000000+000000541+0000004390+0000000008+I20000000000+0000004390+Z
113174001113174104-000031     113174006003000614950BASKET PL 27x18x12cm   0000001000+00002630+00000+0001T   00002630+0000001611          1400 YM6210               2AZ
113174002113174077-000245     113174006001023759214GIFT-RIBBON METALLICx2 0000001000+00001227+00000+0001T   00001227+0000001611          1400 YM6112               2AZ
113175000113175               113175               170213JV     1400+00000+JV0000014596+0000014596+000000000+000002048+0000016644+0000000000+I40000016644+0000000000+Z
113175001113175366-006103     113175006001023786944DRESS UP FACE PAINT SET0000001000+00002630+00000+0001T   00002630+0000001615          1400 YM6131               2AZ
113175002113175079-006494     113175006003000159864GLITTER GLUE 5PCE 11cm 0000001000+00001490+00000+0001T   00001490+0000001615          1400 YM6130               2AZ
113175003113175079-013032-D   113175006003000389643RIBBONS                0000001000+00002630+00000+0001T   00002630+0000001615          1400 YM6130               2AZ
113175004113175079-013032-C   113175006003000389520POLY SHAPES            0000001000+00001578+00000+0001T   00001578+0000001615          1400 YM6130               2AZ
113175005113175079-009702-D   113175008427973059354PAPER SIRIO A2 RED COL 0000001000+00001051+00000+0001T   00001051+0000001615          1400 YM6130               2AZ
113175006113175565-000876     113175006003000305759NOVELTY FUNKY SUNGLASS 0000001000+00003507+00000+0001T   00003507+0000001615          1400 YM6745               2AZ
113175007113175112-116069     113175006009681820277TCS CARRIER BAG JUMBO  0000001000+00000048+00000+0001T   00000048+0000001615          1400 YM6090               2AZ
113175008113175006-000172-H   113175006003000610211BALLOONS METALLIC RED  0000002000+00000218+00000+0001T   00000218+0000001615          1400 YM6131               2AZ
113175009113175006-001000     113175006003000093779HELIUM BALLOON FILL    0000002000+00000613+00000+0001T   00000613+0000001615          1400 YM6131               2AZ
113176000113176               113176               170213JV     1400+00000+JV0000007016+0000007016+000000000+000000983+0000007990+0000000009+I20000000000+0000007990+Z
113176001113176174-000305     113176006003000105502TRAVEL NECK-PILLOW     0000001000+00007016+00000+0001T   00007016+0000001616          1400 YM6205               2AZ
113177000113177               113177               170213JV     1400+00000+JV0000003069+0000003069+000000000+000000430+0000003490+0000000009+I20000000000+0000003490+Z
113177001113177079-014152     113177006003000253074ART+CRAFT PK50 ASSTD   0000001000+00003069+00000+0001T   00003069+0000001616          1400 YM6130               2AZ
113178000113178               113178               170213JV     1400+00000+JV0000005260+0000005260+000000000+000000738+0000005998+0000000000+I40000005998+0000000000+Z
113178001113178079-003014     113178006003000633951PAINT ACRYLIC 75ml SILV0000001000+00002630+00000+0001T   00002630+0000001617          1400 YM6130               2AZ
113178002113178079-003013     113178006003000633838PAINT ACRYLIC TUBE BRNZ0000001000+00002630+00000+0001T   00002630+0000001617          1400 YM6130               2AZ
113179000113179               113179               170213JV     1400+00000+JV0000006000+0000006000+000000000+000000842+0000006840+0000000002+I20000000000+0000006840+Z
113179001113179007-000058     113179006003000589777A3 DESIGN PORTFOLIO    0000001000+00003507+00000+0001T   00004385+0008141618          1400 YM6130               2AZ
113179002113179006-001000     113179006003000093779HELIUM BALLOON FILL    0000003000+00000613+00000+0001T   00000613+0000001618          1400 YM6131               2AZ
113179003113179006-000172-H   113179006003000610211BALLOONS METALLIC RED  0000003000+00000218+00000+0001T   00000218+0000001618          1400 YM6131               2AZ
113180000113180               113180               170213JV     1400+00000+JV0000041266+0000041266+000000000+000005782+0000047040+0000000008+I20000000000+0000047040+Z
113180001113180368-000637     113180006001023874092PLUSH BEAR SLEEPING LOV0000001000+00011402+00000+0001T   00012279+0006471621          1400 YM6745               2AZ
113180002113180368-000111     113180006001023780812PLUSH BEAR/DOG 29CM    0000002000+00012279+00000+0001T   00012279+0000001621          1400 YM6745               2AZ
113180003113180903-000087     113180006001704000161SWT SPECKLED-EGGS 50G  0000002000+00001139+00000+0001T   00001139+0000001621          1400 YM6150               2AZ
113180004113180112-116069     113180006009681820277TCS CARRIER BAG JUMBO  0000001000+00000048+00000+0001T   00000048+0000001621          1400 YM6090               2AZ
113180005113180565-004101     113180006003000548033BALL BOUNCING EGG      0000002000+00001490+00000+0001T   00001490+0000001621          1400 YM6745               2AZ
113181000113181               113181               170213JV     1400+00000+JV0000009241+0000009241+000000000+000001299+0000010540+0000000000+I40000010540+0000000000+Z
113181001113181103-000459     113181006003000630929FLOWER BASKET ASSORTED 0000001000+00003507+00000+0001T   00003507+0000001623          1400 YM6300               2AZ
113181002113181903-000215     113181006002099001214SWT GS MALLOW TWIST PAC0000001000+00001753+00000+0001T   00001753+0000001623          1400 YM6150               2AZ
113181003113181903-000155     113181006009803374435SWT LOLLY I LUV U HEART0000002000+00000525+00000+0001T   00000525+0000001623          1400 YM6150               2AZ
113181004113181903-000861     113181005010478430822SWT LOVE HEARTS SML    0000002000+00000876+00000+0001T   00000876+0000001623          1400 YM6150               2AZ
113181005113181903-000183     113181006003000451043SWT LB HEART LOLLY     0000003000+00000393+00000+0001T   00000393+0000001623          1400 YM6150               2AZ
113182000113182               113182               170213JV     1400+00000+JV0000004380+0000004380+000000000+000000616+0000004996+0000000000+I40000004996+0000000000+Z
113182001113182007-000724     113182006003000225958NOTE MAGNETIC 60SHTS   0000001000+00001753+00000+0001T   00001753+0000001624          1400 YM6130               2AZ
113182002113182080-000133-A   113182006003000647019MINI VALENTINES CARD   0000002000+00000437+00000+0001T   00000437+0000001624          1400 YM6112               2AZ
113182003113182565-000888     113182006003000607846NOVELTY MESH BALL      0000001000+00001753+00000+0001T   00001753+0000001624          1400 YM6745               2AZ
113183000113183               113183               170213JV     1400+00000+JV0000017541+0000017541+000000000+000002456+0000019997+0000000000+I40000019997+0000000000+Z
113183001113183028-002101     113183006002580009507CHAIR JUNIOR    ASSTD  0000001000+00003507+00000+0001T   00003507+0000001626          1400 YM6305               2AZ
113183002113183028-002102     113183006002580009514TABLE KIDDIES          0000001000+00014034+00000+0001T   00014034+0000001626          1400 YM6305               2AZ
113184000113184               113184               170213JV     1400+00000+JV0000002630+0000002630+000000000+000000369+0000002990+0000000009+I20000000000+0000002990+Z
113184001113184105-003025     113184006001023594662CONTAINER RECT 28x19cm 0000001000+00002630+00000+0001T   00002630+0000001626          1400 YM6210               2AZ
113185000113185               113185               170213JV     1400+00000+JV0000001578+0000001578+000000000+000000221+0000001790+0000000009+I20000000000+0000001790+Z
113185001113185077-000315     113185006003000181186GIFT-BAG 20x28cm MATT  0000001000+00001578+00000+0001T   00001578+0000001627          1400 YM6112               2AZ
113186000113186               113186               170213JV     1400+00000+JV0000002630+0000002630+000000000+000000369+0000002999+0000000000+I40000002999+0000000000+Z
113186001113186174-000175     113186006001023730985LAUNDRY-BAG FOLD-AWAY  0000001000+00002630+00000+0001T   00002630+0000001628          1400 YM6205               2AZ
113187000113187               113187               170213JV     1400+00000+JV0000017538+0000017538+000000000+000002456+0000019990+0000000004+I20000000000+0000019990+Z
113187001113187103-000474     113187006003000630363BAMBOO FLOWER BASKET   0000002000+00005262+00000+0001T   00005262+0000001628          1400 YM6300               2AZ
113187002113187562-000052     113187006003000112333EDU EXCAVATION DIAMOND 0000002000+00003507+00000+0001T   00003507+0000001628          1400 YM6755               2AZ
113188000113188               113188               170213JV     1400+00000+JV0000001401+0000001401+000000000+000000197+0000001590+0000000008+I20000000000+0000001590+Z
113188001113188903-000494     113188006001704009911SWT GUMMY TEENY TEDDIES0000001000+00000876+00000+0001T   00000876+0000001630          1400 YM6150               2AZ
113188002113188903-000077     113188006939873501687SWT GS MAGIC ROCK FRUIT0000001000+00000525+00000+0001T   00000525+0000001630          1400 YM6150               2AZ
113189000113189               113189               170213JV     1400+00000+JV0000003944+0000003944+000000000+000000553+0000004497+0000000000+I40000004497+0000000000+Z
113189001113189466-000513     113189006003000515561BALL CRICKET RUBBER    0000001000+00002630+00000+0001T   00002630+0000001634          1400 YM6785               2AZ
113189002113189046-000012     113189006904708013062BATTERIES AA  CARD-OF-40000001000+00001314+00000+0001T   00001314+0000001634          1400 YM6312               2AZ
113190000113190               113190               170213JV     1400+00000+JV0000002630+0000002630+000000000+000000369+0000002990+0000000009+I20000000000+0000002990+Z
113190001113190105-006005     113190006003000666195CANNISTER PL 600ml     0000001000+00002630+00000+0001T   00002630+0000001634          1400 YM6210               2AZ
113191000113191               113191               170213JV     1400+00000+JV0000012923+0000012923+000000000+000001810+0000014733+0000000000+I40000014733+0000000000+Z
113191001113191077-000150-D   113191006003000054343GIFT-WRAP CELLPHANE CLR0000001000+00000876+00000+0001T   00000876+0000001637          1400 YM6112               2AZ
113191002113191018-000177     113191006001023797513MUG MINI LOVE ASSTD    0000001000+00000700+00000+0001T   00000700+0000001637          1400 YM6515               2AZ
113191003113191903-000504     113191006001704012416SWT CHOC JELLY BEANS   0000001000+00001227+00000+0001T   00001227+0000001637          1400 YM6150               2AZ
113191004113191368-000049     113191006003000536955PLUSH BEAR 15cm LOVE   0000001000+00004385+00000+0001T   00004385+0000001637          1400 YM6745               2AZ
113191005113191112-116038     113191006009681820246TCS CARRIER BAG MIDI   0000001000+00000035+00000+0001T   00000035+0000001637          1400 YM6090               2AZ
113191006113191046-002023-C   113191006001023698254BATTERIES ALKALN CARD-50000001000+00005700+00000+0001T   00005700+0000001637          1400 YM6312               2AZ
113192000113192               113192               170213JV     1400+00000+JV0000003507+0000003507+000000000+000000491+0000003990+0000000008+I20000000000+0000003990+Z
113192001113192567-010159     113192006003000484881BOOK TOP ASSTD CHILDREN0000001000+00003507+00000+0001T   00003507+0000001637          1400 YM6757               2AZ
113193000113193               113193               170213JV     1400+00000+JV0000036963+0000036963+000000000+000005181+0000042144+0000000000+I40000042144+0000000000+Z
113193001113193080-000133-A   113193006003000647019MINI VALENTINES CARD   0000003000+00000437+00000+0001T   00000437+0000001639          1400 YM6112               2AZ
113193002113193106-001099     113193006003000653447WATER BOTTLE 650ml     0000002000+00002630+00000+0001T   00002630+0000001639          1400 YM6210               2AZ
113193003113193560-000100     113193006001023834904DRAGON 15cm            0000002000+00005262+00000+0001T   00005262+0000001639          1400 YM6745               2AZ
113193004113193031-001010     113193006003000556892P/FRAME COLLAGE PL FMLY0000001000+00017542+00000+0001T   00017542+0000001639          1400 YM6510               2AZ
113193005113193565-000071     113193006003000643387NOVELTY WIND UP CHATTER0000002000+00001139+00000+0001T   00001139+0000001639          1400 YM6745               2AZ
113193006113193112-116069     113193006009681820277TCS CARRIER BAG JUMBO  0000001000+00000048+00000+0001T   00000048+0000001639          1400 YM6090               2AZ
113194000113194               113194               170213JV     1400+00000+JV0000003449+0000003449+000000000+000000485+0000003930+0000000004+I20000000000+0000003930+Z
113194001113194304-001011     113194006001023806727FLWR ROSE RED W/BEAR   0000003000+00000613+00000+0001T   00000788+0006471640          1400 YM6510               2AZ
113194002113194903-000155     113194006009803374435SWT LOLLY I LUV U HEART0000003000+00000525+00000+0001T   00000525+0000001640          1400 YM6150               2AZ
113194003113194112-116038     113194006009681820246TCS CARRIER BAG MIDI   0000001000+00000035+00000+0001T   00000035+0000001640          1400 YM6090               2AZ
113195000113195               113195               170213JV     1400+00000+JV0000001490+0000001490+000000000+000000209+0000001699+0000000000+I40000001699+0000000000+Z
113195001113195077-000299     113195006003000395576G/BAG 32x25cm LRG LOVE 0000001000+00001490+00000+0001T   00001490+0000001641          1400 YM6112               2AZ
113196000113196               113196               170213JV     1400+00000+JV0000012278+0000012278+000000000+000001720+0000013998+0000000000+I40000013998+0000000000+Z
113196001113196301-085007     113196006003000673698ORN OCC. LOVE S/PLAQUE 0000001000+00007893+00000+0001T   00007893+0000001642          1400 YM6505               2AZ
113196002113196019-000070     113196006003000297474VASE GLS CLEAR BOTTLE  0000001000+00004385+00000+0001T   00004385+0000001642          1400 YM6510               2AZ
113197000113197               113197               170213JV     1400+00000+JV0000009556+0000009556+000000000+000001340+0000010890+0000000006+I20000000000+0000010890+Z
113197001113197018-050000     113197006003000412679MUG OCC LOVE TWIN BEAR 0000001000+00006139+00000+0001T   00006139+0000001643          1400 YM6515               2AZ
113197002113197903-000155     113197006009803374435SWT LOLLY I LUV U HEART0000001000+00000525+00000+0001T   00000525+0000001643          1400 YM6150               2AZ
113197003113197304-001204     113197006001023737984FLOWER OCC. TEDDY/ROSES0000001000+00001402+00000+0001T   00001490+0006471643          1400 YM6510               2AZ
113197004113197077-000299     113197006003000395576G/BAG 32x25cm LRG LOVE 0000001000+00001490+00000+0001T   00001490+0000001643          1400 YM6112               2AZ
113198000113198               113198               170213JV     1400+00000+JV0000001313+0000001313+000000000+000000184+0000001490+0000000007+I20000000000+0000001490+Z
113198001113198304-001011     113198006001023806727FLWR ROSE RED W/BEAR   0000001000+00000613+00000+0001T   00000788+0006471644          1400 YM6510               2AZ
113198002113198018-000177     113198006001023797513MUG MINI LOVE ASSTD    0000001000+00000700+00000+0001T   00000700+0000001644          1400 YM6515               2AZ
113199000113199               113199               170213JV     1400+00000+JV0000001314+0000001314+000000000+000000184+0000001490+0000000008+I20000000000+0000001490+Z
113199001113199006-000166-G   113199006003000607976BALLOONS HELIUM 6PC BLK0000001000+00001314+00000+0001T   00001314+0000001644          1400 YM6131               2AZ
113200000113200               113200               170213JV     1400+00000+JV0000006138+0000006138+000000000+000000860+0000006998+0000000000+I40000006998+0000000000+Z
113200001113200903-000610     113200006003000610518SWEET JUMBO BUBBLE GUM 0000001000+00001753+00000+0001T   00001753+0000001645          1400 YM6150               2AZ
113200002113200366-000356     113200006003000006908DRESS UP WINGS FAIRY   0000001000+00004385+00000+0001T   00004385+0000001645          1400 YM6131               2AZ
113201000113201               113201               170213JV     1400+00000+JV0000014868+0000014868+000000000+000002084+0000016952+0000000000+I40000016952+0000000000+Z
113201001113201089-000150     113201006003000674268K/CHAIN PLUSH EMOTICON 0000001000+00001139+00000+0001T   00001139+0000001647          1400 YM6205               2AZ
113201002113201304-001204     113201006001023737984FLOWER OCC. TEDDY/ROSES0000001000+00001402+00000+0001T   00001490+0006471647          1400 YM6510               2AZ
113201003113201368-000111     113201006001023780812PLUSH BEAR/DOG 29CM    0000001000+00012279+00000+0001T   00012279+0000001647          1400 YM6745               2AZ
113201004113201112-116069     113201006009681820277TCS CARRIER BAG JUMBO  0000001000+00000048+00000+0001T   00000048+0000001647          1400 YM6090               2AZ
113202000113202               113202               170213JV     1400+00000+JV0000013573+0000013573+000000000+000001913+0000015486+0000000000+I40000015486+0000000000+Z
113202001113202566-000367     113202006003000645558STICKER WINDOW DECOR   0000002000+00002630+00000+0001T   00002630+0000001648          1400 YM6130               2AZ
113202002113202112-116069     113202006009681820277TCS CARRIER BAG JUMBO  0000001000+00000048+00000+0001T   00000048+0000001648          1400 YM6090               2AZ
113202003113202903-000844     113202005010478432567SWT CANDY DL LUV HEARTS0000003000+00001314+00000+0001T   00001314+0000001648          1400 YM6150               2AZ
113202004113202903-000183     113202006003000451043SWT LB HEART LOLLY     0000011000+00000393+00000+0001T   00000393+0000001648          1400 YM6150               2AZ
113203000113203               113203               170213JV     1400+00000+JV0000039517+0000039517+000000000+000005534+0000045051+0000000000+I40000045051+0000000000+Z
113203001113203365-064009     113203006003000242634PLAY-SET CARRY BOX&PET 0000001000+00017542+00000+0001T   00017542+0000001650          1400 YM6725               2AZ
113203002113203030-004015     113203006003000467624PLAQUE WDN SIGN 30X20CM0000001000+00009648+00000+0001T   00009648+0000001650          1400 YM6505               2AZ
113203003113203004-078982     113203006003000667680HEADPHONES FOLDABLE COL0000001000+00012279+00000+0001T   00012279+0000001650          1400 YM6310               2AZ
113203004113203112-116069     113203006009681820277TCS CARRIER BAG JUMBO  0000001000+00000048+00000+0001T   00000048+0000001650          1400 YM6090               2AZ
113204000113204               113204               170213JV     1400+00000+JV0000008770+0000008770+000000000+000001228+0000009990+0000000008+I20000000000+0000009990+Z
113204001113204103-000460     113204006003000630240BAMBOO FLOWER BASKET   0000002000+00004385+00000+0001T   00004385+0000001650          1400 YM6300               2AZ
113205000113205               113205               170213JV     1400+00000+JV0000001490+0000001490+000000000+000000209+0000001690+0000000009+I20000000000+0000001690+Z
113205001113205077-000299     113205006003000395576G/BAG 32x25cm LRG LOVE 0000001000+00001490+00000+0001T   00001490+0000001650          1400 YM6112               2AZ
113206000113206               113206               170213JV     1400+00000+JV0000020828+0000020828+000000000+000002918+0000023746+0000000000+I40000023746+0000000000+Z
113206001113206464-009010     113206006001023800756FISHING-GAME MAG +ROD  0000002000+00003507+00000+0001T   00003507+0000001709          1400 YM6785               2AZ
113206002113206466-001017     113206006003000590544CRICKET-BAT PL W/BALL  0000001000+00003507+00000+0001T   00003507+0000001709          1400 YM6785               2AZ
113206003113206007-000208     113206006001023582096NOTE-PAD S/STICK 100'S 0000001000+00001490+00000+0001T   00001490+0000001709          1400 YM6130               2AZ
113206004113206562-002003     113206006003000228898EDU LEARN TO COUNT     0000001000+00007016+00000+0001T   00007016+0000001709          1400 YM6755               2AZ
113206005113206077-000290     113206006001023902023GIFT BOX 26x32x13cm    0000001000+00001753+00000+0001T   00001753+0000001709          1400 YM6112               2AZ
113206006113206112-116069     113206006009681820277TCS CARRIER BAG JUMBO  0000001000+00000048+00000+0001T   00000048+0000001709          1400 YM6090               2AZ
113207000113207               113207               170213JV     1400+00000+JV0000001400+0000001400+000000000+000000196+0000001590+0000000006+I20000000000+0000001590+Z
113207001113207018-000177     113207006001023797513MUG MINI LOVE ASSTD    0000002000+00000700+00000+0001T   00000700+0000001719          1400 YM6515               2AZ
113208000113208               113208               170213JV     1400+00000+JV0000002628+0000002628+000000000+000000368+0000002990+0000000006+I20000000000+0000002990+Z
113208001113208065-000539     113208006001023832672HARMONICA PL 11cm      0000002000+00001314+00000+0001T   00001314+0000001719          1400 YM6745               2AZ
113209000113209               113209               170213JV     1400+00000+JV0000002629+0000002629+000000000+000000369+0000002998+0000000000+I40000002998+0000000000+Z
113209001113209080-000127     113209006003000424351VALENTINES DAY 36x24CM 0000001000+00002192+00000+0001T   00002192+0000001721          1400 YM6112               2AZ
113209002113209080-000133-A   113209006003000647019MINI VALENTINES CARD   0000001000+00000437+00000+0001T   00000437+0000001721          1400 YM6112               2AZ
113210000113210               113210               170213JV     1400+00000+JV0000004822+0000004822+000000000+000000676+0000005498+0000000000+I40000005498+0000000000+Z
113210001113210077-000463     113210006003000321698G/BAG GLITTER MED20x28 0000001000+00002192+00000+0001T   00002192+0000001722          1400 YM6112               2AZ
113210002113210077-000456     113210006003000285549G/BAG METALLIC JMB EMB 0000001000+00002630+00000+0001T   00002630+0000001722          1400 YM6112               2AZ
113211000113211               113211               170213JV     1400+00000+JV0000000876+0000000876+000000000+000000123+0000000999+0000000000+I40000000999+0000000000+Z
113211001113211078-000025     113211008887013700064SUPERGLUE 3g 1PCE CARD 0000001000+00000876+00000+0001T   00000876+0000001724          1400 YM6810               2AZ
113212000113212               113212               170213JV     1400+00000+JV0000007975+0000007975+000000000+000001117+0000009092+0000000000+I40000009092+0000000000+Z
113212001113212903-000194     113212006009826020616SWT CHOC RP LOLLY 25G  0000001000+00001314+00000+0001T   00001314+0000001725          1400 YM6150               2AZ
113212002113212018-000177     113212006001023797513MUG MINI LOVE ASSTD    0000001000+00000700+00000+0001T   00000700+0000001725          1400 YM6515               2AZ
113212003113212018-005009     113212006001023725608MUG W/PLUSH-BEAR LOVE  0000001000+00003507+00000+0001T   00003507+0000001725          1400 YM6515               2AZ
113212004113212903-000499     113212006001704012492SWT CHOC MALLOWS 50g   0000002000+00001227+00000+0001T   00001227+0000001725          1400 YM6150               2AZ
113213000113213               113213               170213JV     1400+00000+JV0000009115+0000009115+000000000+000001278+0000010393+0000000000+I40000010393+0000000000+Z
113213001113213105-001024-A   113213006009654960986CONTAINERS CLEAR 3PCE  0000002000+00001928+00000+0001T   00001928+0000001727          1400 YM6210               2AZ
113213002113213006-000107     113213006003000587872BALLOONS ITS BOY/GIRL  0000001000+00001753+00000+0001T   00001753+0000001727          1400 YM6131               2AZ
113213003113213006-000124     113213006003000625888BALLOONS 10PC MIX COL  0000002000+00001753+00000+0001T   00001753+0000001727          1400 YM6131               2AZ
113214000113214               113214               170213JV     1400+00000+JV0000007060+0000007060+000000000+000000991+0000008051+0000000000+I40000008051+0000000000+Z
113214001113214080-000133-A   113214006003000647019MINI VALENTINES CARD   0000001000+00000437+00000+0001T   00000437+0000001729          1400 YM6112               2AZ
113214002113214080-000127     113214006003000424351VALENTINES DAY 36x24CM 0000001000+00002192+00000+0001T   00002192+0000001729          1400 YM6112               2AZ
113214003113214105-007013     113214006003000010875CONTAINER CLEAR 500ml  0000001000+00001753+00000+0001T   00002630+0008171729          1400 YM6210               2AZ
113214004113214108-003023     113214006003000665471TUMBLER W/STRAW 550ml  0000001000+00002630+00000+0001T   00002630+0000001729          1400 YM6210               2AZ
113214005113214112-116069     113214006009681820277TCS CARRIER BAG JUMBO  0000001000+00000048+00000+0001T   00000048+0000001729          1400 YM6090               2AZ
113215000113215               113215               170213JV     1400+00000+JV0000004587+0000004587+000000000+000000645+0000005230+0000000002+I20000000000+0000005230+Z
113215001113215903-000155     113215006009803374435SWT LOLLY I LUV U HEART0000002000+00000525+00000+0001T   00000525+0000001730          1400 YM6150               2AZ
113215002113215080-000133-A   113215006003000647019MINI VALENTINES CARD   0000002000+00000437+00000+0001T   00000437+0000001730          1400 YM6112               2AZ
113215003113215077-000310     113215006001023608635GIFT-BAG 18X23CM GLOSS 0000002000+00001314+00000+0001T   00001314+0000001730          1400 YM6112               2AZ
113215004113215112-116038     113215006009681820246TCS CARRIER BAG MIDI   0000001000+00000035+00000+0001T   00000035+0000001730          1400 YM6090               2AZ
113216000113216               113216               170213JV     1400+00000+JV0000001753+0000001753+000000000+000000246+0000001990+0000000009+I20000000000+0000001990+Z
113216001113216077-000290     113216006001023902023GIFT BOX 26x32x13cm    0000001000+00001753+00000+0001T   00001753+0000001730          1400 YM6112               2AZ
113217000113217               113217               170213JV     1400+00000+JV0000005514+0000005514+000000000+000000775+0000006289+0000000000+I40000006289+0000000000+Z
113217001113217903-000216     113217006925925900966SWT MALLOW TWIST ERKO  0000004000+00000262+00000+0001T   00000262+0000001732          1400 YM6150               2AZ
113217002113217903-000861     113217005010478430822SWT LOVE HEARTS SML    0000001000+00000876+00000+0001T   00000876+0000001732          1400 YM6150               2AZ
113217003113217080-000133-A   113217006003000647019MINI VALENTINES CARD   0000001000+00000437+00000+0001T   00000437+0000001732          1400 YM6112               2AZ
113217004113217006-000166-C   113217006003000516377BALLOONS LRG 6PC PINK  0000001000+00001314+00000+0001T   00001314+0000001732          1400 YM6131               2AZ
113217005113217006-000166-H   113217006003000608096BALLOONS HELIUM 6PC WHT0000001000+00001314+00000+0001T   00001314+0000001732          1400 YM6131               2AZ
113217006113217903-000155     113217006009803374435SWT LOLLY I LUV U HEART0000001000+00000525+00000+0001T   00000525+0000001732          1400 YM6150               2AZ
113218000113218               113218               170213JV     1400+00000+JV0000005469+0000005469+000000000+000000768+0000006237+0000000000+I40000006237+0000000000+Z
113218001113218565-004013     113218006003000574933NOVELTY CAMERA 3 ASTD  0000001000+00002630+00000+0001T   00002630+0000001734          1400 YM6745               2AZ
113218002113218304-001204     113218006001023737984FLOWER OCC. TEDDY/ROSES0000002000+00001402+00000+0001T   00001490+0006471734          1400 YM6510               2AZ
113218003113218112-116038     113218006009681820246TCS CARRIER BAG MIDI   0000001000+00000035+00000+0001T   00000035+0000001734          1400 YM6090               2AZ
113219000113219               113219               170213JV     1400+00000+JV0000010173+0000010173+000000000+000001425+0000011590+0000000008+I20000000000+0000011590+Z
113219001113219368-000171     113219006003000233250PLUSH BEAR 14cm        0000001000+00005262+00000+0001T   00005262+0000001734          1400 YM6745               2AZ
113219002113219024-007050     113219006003000113217CAKE-SERVER PL ROUND   0000001000+00004911+00000+0001T   00004911+0000001734          1400 YM6300               2AZ
113220000113220               113220               170213JV     1400+00000+JV0000003935+0000003935+000000000+000000552+0000004480+0000000007+I20000000000+0000004480+Z
113220001113220903-000183     113220006003000451043SWT LB HEART LOLLY     0000001000+00000393+00000+0001T   00000393+0000001736          1400 YM6150               2AZ
113220002113220018-005009     113220006001023725608MUG W/PLUSH-BEAR LOVE  0000001000+00003507+00000+0001T   00003507+0000001736          1400 YM6515               2AZ
113220003113220112-116038     113220006009681820246TCS CARRIER BAG MIDI   0000001000+00000035+00000+0001T   00000035+0000001736          1400 YM6090               2AZ
113221000113221               113221               170213JV     1400+00000+JV0000012311+0000012311+000000000+000001725+0000014036+0000000000+I40000014036+0000000000+Z
113221001113221022-002108     113221006002600025159MUG 8cm PLAIN          0000002000+00000876+00000+0001T   00000876+0000001739          1400 YM6305               2AZ
113221002113221150-049046     113221006001023189196FORCE-CUP 100x225mm    0000001000+00001753+00000+0001T   00001753+0000001739          1400 YM6810               2AZ
113221003113221027-000230     113221006001023606198MOP COMPLETE WONDERMOP 0000001000+00008771+00000+0001T   00008771+0000001739          1400 YM6212               2AZ
113221004113221112-116038     113221006009681820246TCS CARRIER BAG MIDI   0000001000+00000035+00000+0001T   00000035+0000001739          1400 YM6090               2AZ
113222000113222               113222               170213JV     1400+00000+JV0000020606+0000020606+000000000+000002888+0000023494+0000000000+I40000023494+0000000000+Z
113222001113222080-000133     113222006003000535613CARD&ENV MINI ASTD DSGN0000001000+00000437+00000+0001T   00000437+0000001740          1400 YM6112               2AZ
113222002113222080-000133-A   113222006003000647019MINI VALENTINES CARD   0000002000+00000437+00000+0001T   00000437+0000001740          1400 YM6112               2AZ
