120782000120782               120782               170213JV     1400+00000+JV0000017448+0000017448+000000000+000002446+0000019894+0000000000+I40000019894+0000000000+Z
120782001120782301-085000     120782006003000674299 ORN OCC. LOVE HEARTS  0000001000+00002192+00000+0001T   00002192+0000001025          1400 TM9505               3AZ
120782002120782039-000026     120782006001023551610C/TAPERED 25CM M/RED   0000002000+00001051+00000+0001T   00001051+0000001025          1400 TM9510               3AZ
120782003120782051-600632     120782006001023868404PLANTER W/TRAY PL RECT 0000001000+00004385+00000+0001T   00004385+0000001025          1400 TM9820               3AZ
120782004120782051-600640     120782006001023868435PLANTER W/TRAY 69x23x160000001000+00007016+00000+0001T   00007016+0000001025          1400 TM9820               3AZ
120782005120782046-002025-PK2 120782004897006174868BATTERIES CR-2025  2PCE0000001000+00001753+00000+0001T   00001753+0000001025          1400 TM9312               3AZ
120783000120783               120783               170213JV     1400+00000+JV0000002630+0000002630+000000000+000000369+0000002990+0000000009+I20000000000+0000002990+Z
120783001120783206-000620     120783006003000631797BACK SCRATCHER EXTEND  0000001000+00002630+00000+0001T   00002630+0000001204          1400 TM9321               3AZ
120784000120784               120784               170213JV     1400+00000+JV0000012277+0000012277+000000000+000001720+0000013997+0000000000+I40000013997+0000000000+Z
120784001120784200-000003     120784006003000532360DISPOSABLE BAG 100PC   0000001000+00002630+00000+0001T   00002630+0000001208          1400 TM9214               3AZ
120784002120784051-600632     120784006001023868404PLANTER W/TRAY PL RECT 0000001000+00004385+00000+0001T   00004385+0000001208          1400 TM9820               3AZ
120784003120784566-000320     120784006003000422890STICKERS R/DEC. NATURE 0000001000+00005262+00000+0001T   00005262+0000001208          1400 TM9130               3AZ
120785000120785               120785               170213JV     1400+00000+JV0000004646+0000004646+000000000+000000652+0000005290+0000000008+I20000000000+0000005290+Z
120785001120785174-008025     120785006009654960399TRAVEL TUBS 4-PACK 30ml0000001000+00002016+00000+0001T   00002016+0000001209          1400 TM9205               3AZ
120785002120785200-000029     120785006003000593668DISPOSABLE ROLL BAKING 0000001000+00002630+00000+0001T   00002630+0000001209          1400 TM9214               3AZ
120786000120786               120786               170213JV     1400+00000+JV0000004418+0000004418+000000000+000000620+0000005030+0000000008+I20000000000+0000005030+Z
120786001120786200-003024     120786006001023657299REFUSE BAGS 20PCE BLACK0000001000+00001753+00000+0001T   00001753+0000001211          1400 TM9214               3AZ
120786002120786016-006425     120786006001023998170S/JAR GLS CLIP W/RIBBON0000001000+00002630+00000+0001T   00002630+0000001211          1400 TM9300               3AZ
120786003120786112-116038     120786006009681820246TCS CARRIER BAG MIDI   0000001000+00000035+00000+0001T   00000035+0000001211          1400 TM9090               3AZ
120787000120787               120787               170213JV     1400+00000+JV0000008711+0000008711+000000000+000001222+0000009930+0000000003+I20000000000+0000009930+Z
120787001120787304-001011     120787006001023806727FLWR ROSE RED W/BEAR   0000002000+00000613+00000+0001T   00000788+0006471215          1400 TM9510               3AZ
120787002120787018-000130     120787006001023867537MUG OCC LOVE MINI+HEART0000001000+00003507+00000+0001T   00003507+0000001215          1400 TM9515               3AZ
120787003120787903-000911     120787006009802868454SWT ST GUM TAPE BARBIE 0000001000+00001753+00000+0001T   00001753+0000001215          1400 TM9150               3AZ
120787004120787903-000912     120787006009802868461SWT GUM TAPE HOT WHEELS0000001000+00001753+00000+0001T   00001753+0000001215          1400 TM9150               3AZ
120787005120787080-000133     120787006003000535613CARD&ENV MINI ASTD DSGN0000001000+00000437+00000+0001T   00000437+0000001215          1400 TM9112               3AZ
120787006120787112-116038     120787006009681820246TCS CARRIER BAG MIDI   0000001000+00000035+00000+0001T   00000035+0000001215          1400 TM9090               3AZ
120788000120788               120788               170213JV     1400+00000+JV0000015215+0000015215+000000000+000002133+0000017340+0000000008+I20000000000+0000017340+Z
120788001120788036-000151     120788006001023810588COATHANGERS    PACK-10 0000001000+00002893+00000+0001T   00002893+0000001219          1400 TM9212               3AZ
120788002120788306-000024-A   120788006003000577309COTTON-WOOL-PADS 80PC  0000001000+00001753+00000+0001T   00001753+0000001219          1400 TM9200               3AZ
120788003120788112-116069     120788006009681820277TCS CARRIER BAG JUMBO  0000001000+00000048+00000+0001T   00000048+0000001219          1400 TM9090               3AZ
120788004120788104-000036     120788006003000501038BASKET W/HANGER HOOK   0000002000+00002192+00000+0001T   00002192+0000001219          1400 TM9210               3AZ
120788005120788106-001099     120788006003000653447WATER BOTTLE 650ml     0000001000+00002630+00000+0001T   00002630+0000001219          1400 TM9210               3AZ
120788006120788159-006347     120788006001023713193HOOKS SET-2 ASSTD BOX  0000001000+00003507+00000+0001T   00003507+0000001219          1400 TM9200               3AZ
120789000120789               120789               170213JV     1400+00000+JV0000018026+0000018026+000000000+000002525+0000020550+0000000001+I20000000000+0000020550+Z
120789001120789303-000750     120789006003000370818KEY-HOLDER BRASS ANTIQU0000001000+00006139+00000+0001T   00006139+0000001226          1400 TM9510               3AZ
120789002120789072-000012     120789006001023602510PET DOG/CAT BRUSH 23cm 0000001000+00003069+00000+0001T   00003069+0000001226          1400 TM9870               3AZ
120789003120789072-020297     120789006001023700919PET CAT SCRATCH PAD    0000002000+00004385+00000+0001T   00004385+0000001226          1400 TM9870               3AZ
120789004120789112-116069     120789006009681820277TCS CARRIER BAG JUMBO  0000001000+00000048+00000+0001T   00000048+0000001226          1400 TM9090               3AZ
120790000120790               120790               170213JV     1400+00000+JV0000004384+0000004384+000000000+000000614+0000004990+0000000008+I20000000000+0000004990+Z
120790001120790301-085000     120790006003000674299 ORN OCC. LOVE HEARTS  0000001000+00002192+00000+0001T   00002192+0000001229          1400 TM9505               3AZ
120790002120790563-000318-L   120790006003000407088SERVIETTES 33cm RED    0000001000+00002192+00000+0001T   00002192+0000001229          1400 TM9214               3AZ
120791000120791               120791               170213JV     1400+00000+JV0000011447+0000011447+000000000+000001603+0000013050+0000000000+I20000000000+0000013050+Z
120791001120791105-007018     120791006003000684731CONTAINER ROUND CLR    0000001000+00004385+00000+0001T   00004385+0000001231          1400 TM9210               3AZ
120791002120791004-071204     120791006003000624904USB IN-CAR CHARGER 2.1A0000001000+00003507+00000+0001T   00003507+0000001231          1400 TM9310               3AZ
120791003120791054-009026     120791006001023627735PAINT-BRUSH ASSTD      0000001000+00003507+00000+0001T   00003507+0000001231          1400 TM9810               3AZ
120791004120791112-116069     120791006009681820277TCS CARRIER BAG JUMBO  0000001000+00000048+00000+0001T   00000048+0000001231          1400 TM9090               3AZ
120792000120792               120792               170213JV     1400+00000+JV0000024418+0000024418+000000000+000003420+0000027838+0000000000+I40000027838+0000000000+Z
120792001120792018-005009     120792006001023725608MUG W/PLUSH-BEAR LOVE  0000002000+00003507+00000+0001T   00003507+0000001238          1400 TM9515               3AZ
120792002120792007-000204     120792006009635835272EXAM-PAD 60SHT PUNCHED 0000001000+00000964+00000+0001T   00000964+0000001238          1400 TM9130               3AZ
120792003120792007-000206     120792006009635830215X/PAD 80-SHEETS PUNCHED0000001000+00001227+00000+0001T   00001227+0000001238          1400 TM9130               3AZ
120792004120792018-000136     120792006001023659026MUG OCC LOVE W/PLUSH   0000002000+00003507+00000+0001T   00003507+0000001238          1400 TM9515               3AZ
120792005120792031-086102     120792006001023900722P/FRAME PL WORD-TOP 4AS0000001000+00003507+00000+0001T   00003507+0000001238          1400 TM9510               3AZ
120792006120792112-116069     120792006009681820277TCS CARRIER BAG JUMBO  0000001000+00000048+00000+0001T   00000048+0000001238          1400 TM9090               3AZ
120792007120792080-000127     120792006003000424351VALENTINES DAY 36x24CM 0000001000+00002192+00000+0001T   00002192+0000001238          1400 TM9112               3AZ
120792008120792083-000055     120792006003000003853LIGHTER ELCTRNC REFILBL0000004000+00000613+00000+0001T   00000613+0000001238          1400 TM9315               3AZ
120793000120793               120793               170213JV     1400+00000+JV0000005611+0000005611+000000000+000000786+0000006397+0000000000+I40000006397+0000000000+Z
120793001120793006-000190     120793006003000685530BALLOONS LOVE 81x91cm  0000001000+00004385+00000+0001T   00004385+0000001240          1400 TM9131               3AZ
120793002120793006-001000     120793006003000093779HELIUM BALLOON FILL    0000002000+00000613+00000+0001T   00000613+0000001240          1400 TM9131               3AZ
120794000120794               120794               170213JV     1400+00000+JV0000002628+0000002628+000000000+000000368+0000002990+0000000006+I20000000000+0000002990+Z
120794001120794903-000194     120794006009826020616SWT CHOC RP LOLLY 25G  0000002000+00001314+00000+0001T   00001314+0000001352          1400 TM9150               3AZ
120795000120795               120795               170213JV     1400+00000+JV0000004385+0000004385+000000000+000000614+0000004990+0000000009+I20000000000+0000004990+Z
120795001120795361-000502     120795006001023837417DOLL 29cm FASHION      0000001000+00004385+00000+0001T   00004385+0000001353          1400 TM9725               3AZ
120796000120796               120796               170213JV     1400+00000+JV0000001227+0000001227+000000000+000000172+0000001390+0000000009+I20000000000+0000001390+Z
120796001120796071-081091     120796006001151010287STAED/GENKEM ALL-STICK 0000001000+00001227+00000+0001T   00001227+0000001354          1400 TM9130               3AZ
120797000120797               120797               170213JV     1400+00000+JV0000004385+0000004385+000000000+000000614+0000004990+0000000009+I20000000000+0000004990+Z
120797001120797082-007587     120797006003000654338SUNGLASS DESIGNER ASST 0000001000+00004385+00000+0001T   00004385+0000001358          1400 TM9160               3AZ
120798000120798               120798               170213JV     1400+00000+JV0000017887+0000017887+000000000+000002510+0000020397+0000000000+I40000020397+0000000000+Z
120798001120798105-002013     120798006002580008494CONTAINER SET 18PCE    0000001000+00007016+00000+0001T   00007016+0000001401          1400 TM9210               3AZ
120798002120798027-783002     120798006001023874658SCOURERS FOAM PACK OF 30000001000+00001490+00000+0001T   00001490+0000001401          1400 TM9212               3AZ
120798003120798079-000275     120798006003000160488PAINT-BRUSHES 6PCE PRO 0000001000+00001753+00000+0001T   00001753+0000001401          1400 TM9130               3AZ
120798004120798133-000018     120798006003000583218SWAB MICROFIBRE 30x30cm0000001000+00001753+00000+0001T   00001753+0000001401          1400 TM9212               3AZ
120798005120798002-000884     120798006001023769589CAN-OPENER BUTTERFLY   0000001000+00002630+00000+0001T   00002630+0000001401          1400 TM9300               3AZ
120798006120798071-000212     120798006009608641190CHALK WHITE 12PCE      0000001000+00000437+00000+0001T   00000437+0000001401          1400 TM9130               3AZ
120798007120798071-000012     120798006001177101006CHALK COLOUR 12PCE     0000001000+00000481+00000+0001T   00000481+0000001401          1400 TM9130               3AZ
120798008120798027-000194     120798006001246602472MOP COMPLETE           0000001000+00002279+00000+0001T   00002279+0000001401          1400 TM9212               3AZ
120798009120798112-116069     120798006009681820277TCS CARRIER BAG JUMBO  0000001000+00000048+00000+0001T   00000048+0000001401          1400 TM9090               3AZ
120799000120799               120799               170213JV     1400+00000+JV0000008767+0000008767+000000000+000001228+0000009995+0000000000+I40000009995+0000000000+Z
120799001120799566-000007     120799006001023761187S/BOOK SUPER VALUE     0000001000+00001753+00000+0001T   00001753+0000001504          1400 TM9130               3AZ
120799002120799051-600708     120799006003000604319S/GARDEN LIGHT 35cm S/S0000002000+00003507+00000+0001T   00003507+0000001504          1400 TM9820               3AZ
120800000120800               120800               170213JV     1400+00000+JV0000003278+0000003278+000000000+000000460+0000003730+0000000008+I20000000000+0000003730+Z
120800001120800002-000015     120800006003000555604CAPPUCCINO STENCILS 12P0000001000+00001753+00000+0001T   00001753+0000001505          1400 TM9300               3AZ
120800002120800079-006494     120800006003000159864GLITTER GLUE 5PCE 11cm 0000001000+00001490+00000+0001T   00001490+0000001505          1400 TM9130               3AZ
120800003120800112-116038     120800006009681820246TCS CARRIER BAG MIDI   0000001000+00000035+00000+0001T   00000035+0000001505          1400 TM9090               3AZ
120801000120801               120801               170213JV     1400+00000+JV0000015830+0000015830+000000000+000002218+0000018048+0000000000+I40000018048+0000000000+Z
120801001120801079-105601     120801006003000231171ART+CRAFT STAMP ASSTD  0000002000+00001753+00000+0001T   00001753+0000001507          1400 TM9130               3AZ
120801002120801007-000561     120801006003000589128NOVELTY NOTEBOOK       0000001000+00003507+00000+0001T   00003507+0000001507          1400 TM9130               3AZ
120801003120801079-105610     120801006003000249473ART+CRAFT SPONGE INK PA0000001000+00003507+00000+0001T   00003507+0000001507          1400 TM9130               3AZ
120801004120801464-009011     120801006003000647675FISHING WITH TWO RODS  0000001000+00005262+00000+0001T   00005262+0000001507          1400 TM9785               3AZ
120801005120801112-116069     120801006009681820277TCS CARRIER BAG JUMBO  0000001000+00000048+00000+0001T   00000048+0000001507          1400 TM9090               3AZ
120802000120802               120802               170213JV     1400+00000+JV0000001488+0000001488+000000000+000000209+0000001690+0000000007+I20000000000+0000001690+Z
120802001120802077-000151     120802006008766114676GIFT-WRAP C/PHANE ASSTD0000001000+00000876+00000+0001T   00000876+0000001508          1400 TM9112               3AZ
120802002120802079-009700-A   120802006003000547746PAPER SIRIO A4 BLACK   0000002000+00000306+00000+0001T   00000306+0000001508          1400 TM9130               3AZ
120803000120803               120803               170213JV     1400+00000+JV0000005522+0000005522+000000000+000000774+0000006296+0000000000+I40000006296+0000000000+Z
120803001120803077-000303     120803006001023593757GIFT-BAG PAPER MED     0000002000+00001578+00000+0001T   00001578+0000001510          1400 TM9112               3AZ
120803002120803077-000010-C   120803006001023123879CREPE-PAPER RED        0000001000+00000788+00000+0001T   00000788+0000001510          1400 TM9112               3AZ
120803003120803077-000323     120803006001023677563G/BAG 25X32CM E/DAY FLO0000001000+00001578+00000+0001T   00001578+0000001510          1400 TM9112               3AZ
120804000120804               120804               170213JV     1400+00000+JV0000008770+0000008770+000000000+000001228+0000009998+0000000000+I40000009998+0000000000+Z
120804001120804027-009027     120804006003000235803BROOM FLAT 1.2m HANDLE 0000001000+00004385+00000+0001T   00004385+0000001512          1400 TM9212               3AZ
120804002120804002-000709     120804006003000674176C/BOARD SLATE ROUND 25C0000001000+00004385+00000+0001T   00004385+0000001512          1400 TM9300               3AZ
120805000120805               120805               170213JV     1400+00000+JV0000005120+0000005120+000000000+000000717+0000005837+0000000000+I40000005837+0000000000+Z
120805001120805077-000303     120805006001023593757GIFT-BAG PAPER MED     0000001000+00001578+00000+0001T   00001578+0000001628          1400 TM9112               3AZ
120805002120805018-005009     120805006001023725608MUG W/PLUSH-BEAR LOVE  0000001000+00003507+00000+0001T   00003507+0000001628          1400 TM9515               3AZ
120805003120805112-116038     120805006009681820246TCS CARRIER BAG MIDI   0000001000+00000035+00000+0001T   00000035+0000001628          1400 TM9090               3AZ
120806000120806               120806               170213JV     1400+00000+JV0000000648+0000000648+000000000+000000091+0000000730+0000000009+I20000000000+0000000730+Z
120806001120806304-001011     120806006001023806727FLWR ROSE RED W/BEAR   0000001000+00000613+00000+0001T   00000788+0006471628          1400 TM9510               3AZ
120806002120806112-116038     120806006009681820246TCS CARRIER BAG MIDI   0000001000+00000035+00000+0001T   00000035+0000001628          1400 TM9090               3AZ
120807000120807               120807               170213JV     1400+00000+JV0000002630+0000002630+000000000+000000369+0000002999+0000000000+I40000002999+0000000000+Z
120807001120807206-000620     120807006003000631797BACK SCRATCHER EXTEND  0000001000+00002630+00000+0001T   00002630+0000001644          1400 TM9321               3AZ
120808000120808               120808               170213JV     1400+00000+JV0000000876+0000000876+000000000+000000123+0000000990+0000000009+I20000000000+0000000990+Z
120808001120808077-000011-D   120808006001023808554TISSUE-WRAP WHITE 10PCE0000001000+00000876+00000+0001T   00000876+0000001645          1400 TM9112               3AZ
120809000120809               120809               170213JV     1400+00000+JV0000001314+0000001314+000000000+000000184+0000001490+0000000008+I20000000000+0000001490+Z
120809001120809565-000892-A   120809006003000690725NOVELTY FUN BALL       0000001000+00001314+00000+0001T   00001753+0008141645          1400 TM9745               3AZ
120810000120810               120810               170213JV     1400+00000+JV0000003069+0000003069+000000000+000000430+0000003490+0000000009+I20000000000+0000003490+Z
120810001120810464-000107     120810000073854318089PLAY-CARDS 2nd (SINGLE)0000001000+00003069+00000+0001T   00003069+0000001645          1400 TM9785               3AZ
120811000120811               120811               170213JV     1400+00000+JV0000008770+0000008770+000000000+000001228+0000009990+0000000008+I20000000000+0000009990+Z
120811001120811103-000460     120811006003000630240BAMBOO FLOWER BASKET   0000002000+00004385+00000+0001T   00004385+0000001646          1400 TM9300               3AZ
120812000120812               120812               170213JV     1400+00000+JV0000007133+0000007133+000000000+000001001+0000008134+0000000000+I40000008134+0000000000+Z
120812001120812903-000519     120812006001704012805SWT MS LIQ-O-GHETTI    0000003000+00001227+00000+0001T   00001227+0000001648          1400 TM9150               3AZ
120812002120812089-000150     120812006003000674268K/CHAIN PLUSH EMOTICON 0000003000+00001139+00000+0001T   00001139+0000001648          1400 TM9205               3AZ
120812003120812112-116038     120812006009681820246TCS CARRIER BAG MIDI   0000001000+00000035+00000+0001T   00000035+0000001648          1400 TM9090               3AZ
120813000120813               120813               170213JV     1400+00000+JV0000018631+0000018631+000000000+000002612+0000021243+0000000000+I40000021243+0000000000+Z
120813001120813366-002681     120813006003000653744DRESS UP HAT FIRE CHIEF0000001000+00000876+00000+0001T   00000876+0000001650          1400 TM9131               3AZ
120813002120813566-000362     120813006003000583065STICKER LETTER & NUMBER0000001000+00001753+00000+0001T   00001753+0000001650          1400 TM9130               3AZ
120813003120813251-000050     120813006001023627957PROTECT-PADS RUBBER 9PC0000001000+00001490+00000+0001T   00001490+0000001650          1400 TM9810               3AZ
120813004120813566-000066     120813006003000283675STICKERS GLITTER 25PCS 0000001000+00001753+00000+0001T   00001753+0000001650          1400 TM9130               3AZ
120813005120813006-000800     120813006001023902801HAT CABARET 14x18cm    0000001000+00001753+00000+0001T   00001753+0000001650          1400 TM9131               3AZ
120813006120813562-002003     120813006003000228898EDU LEARN TO COUNT     0000001000+00007016+00000+0001T   00007016+0000001650          1400 TM9755               3AZ
120813007120813903-000844     120813005010478432567SWT CANDY DL LUV HEARTS0000003000+00001314+00000+0001T   00001314+0000001650          1400 TM9150               3AZ
120813008120813112-116069     120813006009681820277TCS CARRIER BAG JUMBO  0000001000+00000048+00000+0001T   00000048+0000001650          1400 TM9090               3AZ
120814000120814               120814               170213JV     1400+00000+JV0000015213+0000015213+000000000+000002133+0000017340+0000000006+I20000000000+0000017340+Z
120814001120814079-013106     120814006003000081998ART+CRAFT PIPE-CLEANERS0000001000+00003069+00000+0001T   00003069+0000001652          1400 TM9130               3AZ
120814002120814079-014152     120814006003000253074ART+CRAFT PK50 ASSTD   0000001000+00003069+00000+0001T   00003069+0000001652          1400 TM9130               3AZ
120814003120814366-000451     120814006003000653508DRESS UP HEADBAND ASSTD0000001000+00002192+00000+0001T   00002192+0000001652          1400 TM9131               3AZ
120814004120814306-000023-A   120814006003000110148COTTON WOOL BALLS 50PCE0000001000+00000700+00000+0001T   00001314+0008171652          1400 TM9200               3AZ
120814005120814565-001212     120814006001023658173NOVELTY MAGIC-SPRING   0000002000+00001753+00000+0001T   00001753+0000001652          1400 TM9745               3AZ
120814006120814006-000800     120814006001023902801HAT CABARET 14x18cm    0000001000+00001753+00000+0001T   00001753+0000001652          1400 TM9131               3AZ
120814007120814112-116069     120814006009681820277TCS CARRIER BAG JUMBO  0000001000+00000048+00000+0001T   00000048+0000001652          1400 TM9090               3AZ
120814008120814077-000151     120814006008766114676GIFT-WRAP C/PHANE ASSTD0000001000+00000876+00000+0001T   00000876+0000001652          1400 TM9112               3AZ
120815000120815               120815               170213JV     1400+00000+JV0000003067+0000003067+000000000+000000431+0000003490+0000000008+I20000000000+0000003490+Z
120815001120815080-000133-A   120815006003000647019MINI VALENTINES CARD   0000001000+00000437+00000+0001T   00000437+0000001653          1400 TM9112               3AZ
120815002120815018-000128     120815006001023868978MUG OCCASIONS MESSAGES 0000001000+00002630+00000+0001T   00002630+0000001653          1400 TM9515               3AZ
120816000120816               120816               170213JV     1400+00000+JV0000002630+0000002630+000000000+000000369+0000002990+0000000009+I20000000000+0000002990+Z
120816001120816077-000251     120816006003000639106GIFT-DECOR RIBBON      0000001000+00002630+00000+0001T   00002630+0000001655          1400 TM9112               3AZ
120817000120817               120817               170213JV     1400+00000+JV0000016706+0000016706+000000000+000002341+0000019047+0000000000+I40000019047+0000000000+Z
120817001120817031-000874-B   120817006001023798831P/FRAME WDN P/BOX 13X180000001000+00004385+00000+0001T   00004385+0000001658          1400 TM9510               3AZ
120817002120817079-000341     120817006920705495519FELT-TIP PENS 12PCE    0000002000+00001753+00000+0001T   00001753+0000001658          1400 TM9130               3AZ
120817003120817567-011344     120817006003000630714BK COLOURING THERAPY 640000002000+00003507+00000+0001T   00003507+0000001658          1400 TM9757               3AZ
120817004120817112-116069     120817006009681820277TCS CARRIER BAG JUMBO  0000001000+00000048+00000+0001T   00000048+0000001658          1400 TM9090               3AZ
120817005120817089-000027     120817006003000254071KEY CHAIN MOM/DAD ASSTD0000001000+00001753+00000+0001T   00001753+0000001658          1400 TM9205               3AZ
120818000120818               120818               170213JV     1400+00000+JV0000010568+0000010568+000000000+000001482+0000012050+0000000000+I20000000000+0000012050+Z
120818001120818024-000186     120818006003000276875SILICONE PANCAKE/EGG 3P0000001000+00000876+00000+0001T   00001314+0008121700          1400 TM9300               3AZ
120818002120818206-000620     120818006003000631797BACK SCRATCHER EXTEND  0000001000+00002630+00000+0001T   00002630+0000001700          1400 TM9321               3AZ
120818003120818200-000023     120818006003000399413BAG SLIDE LOCK 10PC    0000001000+00002630+00000+0001T   00002630+0000001700          1400 TM9214               3AZ
120818004120818112-116069     120818006009681820277TCS CARRIER BAG JUMBO  0000001000+00000048+00000+0001T   00000048+0000001700          1400 TM9090               3AZ
120818005120818080-000127     120818006003000424351VALENTINES DAY 36x24CM 0000002000+00002192+00000+0001T   00002192+0000001700          1400 TM9112               3AZ
120819000120819               120819               170213JV     1400+00000+JV0000001402+0000001402+000000000+000000197+0000001599+0000000000+I40000001599+0000000000+Z
120819001120819304-001204     120819006001023737984FLOWER OCC. TEDDY/ROSES0000001000+00001402+00000+0001T   00001490+0006471701          1400 TM9510               3AZ
120820000120820               120820               170213JV     1400+00000+JV0000003506+0000003506+000000000+000000492+0000003990+0000000008+I20000000000+0000003990+Z
120820001120820080-000100     120820006003000236114CARD & ENVELOPE BDAY   0000001000+00001753+00000+0001T   00001753+0000001701          1400 TM9112               3AZ
120820002120820006-000120     120820006001023346889BALLOONS 10PC MIX COL  0000001000+00001753+00000+0001T   00001753+0000001701          1400 TM9131               3AZ
120821000120821               120821               170213JV     1400+00000+JV0000005262+0000005262+000000000+000000737+0000005999+0000000000+I40000005999+0000000000+Z
120821001120821103-000074     120821006001023691682BASKET BAMBOO 33x21x4cm0000001000+00005262+00000+0001T   00005262+0000001703          1400 TM9300               3AZ
120822000120822               120822               170213JV     1400+00000+JV0000000876+0000000876+000000000+000000123+0000000990+0000000009+I20000000000+0000000990+Z
120822001120822077-000011-C   120822006001023808523TISSUE 10xSHTS RED     0000001000+00000876+00000+0001T   00000876+0000001703          1400 TM9112               3AZ
120823000120823               120823               170213JV     1400+00000+JV0000022058+0000022058+000000000+000003091+0000025149+0000000000+I40000025149+0000000000+Z
120823001120823077-000299     120823006003000395576G/BAG 32x25cm LRG LOVE 0000003000+00001490+00000+0001T   00001490+0000001705          1400 TM9112               3AZ
120823002120823368-000171     120823006003000233250PLUSH BEAR 14cm        0000001000+00005262+00000+0001T   00005262+0000001705          1400 TM9745               3AZ
120823003120823368-000265     120823006001023750914PLUSH BEAR 23CM ASSTD C0000002000+00006139+00000+0001T   00006139+0000001705          1400 TM9745               3AZ
120823004120823112-116069     120823006009681820277TCS CARRIER BAG JUMBO  0000001000+00000048+00000+0001T   00000048+0000001705          1400 TM9090               3AZ
120824000120824               120824               170213JV     1400+00000+JV0000006312+0000006312+000000000+000000885+0000007197+0000000000+I40000007197+0000000000+Z
120824001120824024-000042     120824006002580009255M/CUP MINI 30ML H/HOUSE0000001000+00002192+00000+0001T   00002192+0000001715          1400 TM9300               3AZ
120824002120824206-000220     120824006003000631704EGG TIMER COLOUR-CHANGE0000001000+00002630+00000+0001T   00002630+0000001715          1400 TM9321               3AZ
120824003120824002-021064     120824006001023822246TOOTHPICKS IN-HOLDER   0000001000+00001490+00000+0001T   00001490+0000001715          1400 TM9300               3AZ
120825000120825               120825               170213JV     1400+00000+JV0000005120+0000005120+000000000+000000717+0000005830+0000000007+I20000000000+0000005830+Z
120825001120825368-000049     120825006003000536955PLUSH BEAR 15cm LOVE   0000001000+00004385+00000+0001T   00004385+0000001751          1400 TM9745               3AZ
120825002120825018-000177     120825006001023797513MUG MINI LOVE ASSTD    0000001000+00000700+00000+0001T   00000700+0000001751          1400 TM9515               3AZ
120825003120825112-116038     120825006009681820246TCS CARRIER BAG MIDI   0000001000+00000035+00000+0001T   00000035+0000001751          1400 TM9090               3AZ
120826000120826               120826               170213JV     1400+00000+JV0000020742+0000020742+000000000+000002907+0000023649+0000000000+I40000023649+0000000000+Z
120826001120826206-000410     120826006003000619382SOUP LADLE SEAMONSTER  0000001000+00004385+00000+0001T   00004385+0000001753          1400 TM9321               3AZ
120826002120826206-000350     120826006003000633265EGG MOULD SUNRISE      0000002000+00002630+00000+0001T   00002630+0000001753          1400 TM9321               3AZ
120826003120826031-000924     120826006001023669964P/FRAME COLLAGE PL     0000001000+00008771+00000+0001T   00008771+0000001753          1400 TM9510               3AZ
120826004120826112-116069     120826006009681820277TCS CARRIER BAG JUMBO  0000001000+00000048+00000+0001T   00000048+0000001753          1400 TM9090               3AZ
120826005120826565-000071     120826006003000643387NOVELTY WIND UP CHATTER0000002000+00001139+00000+0001T   00001139+0000001753          1400 TM9745               3AZ
120827000120827               120827               170213JV     1400+00000+JV0000015038+0000015038+000000000+000002110+0000017148+0000000000+I40000017148+0000000000+Z
120827001120827304-001204     120827006001023737984FLOWER OCC. TEDDY/ROSES0000001000+00001402+00000+0001T   00001490+0006471755          1400 TM9510               3AZ
120827002120827018-050000     120827006003000412679MUG OCC LOVE TWIN BEAR 0000001000+00006139+00000+0001T   00006139+0000001755          1400 TM9515               3AZ
120827003120827077-000010-C   120827006001023123879CREPE-PAPER RED        0000001000+00000788+00000+0001T   00000788+0000001755          1400 TM9112               3AZ
120827004120827362-003000     120827006003000295258GIRL HEART NOTEBOOK    0000001000+00001753+00000+0001T   00002630+0008191755          1400 TM9160               3AZ
120827005120827019-071601     120827006001023771995RIVER-STONES 1kg WHITE 0000001000+00002630+00000+0001T   00002630+0000001755          1400 TM9510               3AZ
120827006120827112-116069     120827006009681820277TCS CARRIER BAG JUMBO  0000001000+00000048+00000+0001T   00000048+0000001755          1400 TM9090               3AZ
120827007120827565-000071     120827006003000643387NOVELTY WIND UP CHATTER0000002000+00001139+00000+0001T   00001139+0000001755          1400 TM9745               3AZ
120828000120828               120828               170213JV     1400+00000+JV0000004383+0000004383+000000000+000000614+0000004990+0000000007+I20000000000+0000004990+Z
120828001120828464-000238     120828006001023644039GAME SNAKES+LADDERS    0000001000+00001314+00000+0001T   00001314+0000001757          1400 TM9785               3AZ
120828002120828464-000107     120828000073854318089PLAY-CARDS 2nd (SINGLE)0000001000+00003069+00000+0001T   00003069+0000001757          1400 TM9785               3AZ
120829000120829               120829               170213JV     1400+00000+JV0000004121+0000004121+000000000+000000577+0000004698+0000000000+I40000004698+0000000000+Z
120829001120829046-000014-VP  120829006003000537952BATTERIES H/P SIZE:AAA 0000001000+00004121+00000+0001T   00004121+0000001758          1400 TM9312               3AZ
120830000120830               120830               170213JV     1400+00000+JV0000001051+0000001051+000000000+000000148+0000001190+0000000009+I20000000000+0000001190+Z
120830001120830079-009702-D   120830008427973059354PAPER SIRIO A2 RED COL 0000001000+00001051+00000+0001T   00001051+0000001758          1400 TM9130               3AZ
120831000120831               120831               170213JV     1400+00000+JV0000011402+0000011402+000000000+000001597+0000012990+0000000009+I20000000000+0000012990+Z
120831001120831368-000637     120831006001023874092PLUSH BEAR SLEEPING LOV0000001000+00011402+00000+0001T   00012279+0006471800          1400 TM9745               3AZ
120832000120832               120832               170213JV     1400+00000+JV0000008771+0000008771+000000000+000001228+0000009999+0000000000+I40000009999+0000000000+Z
120832001120832368-000614     120832006001023705808PLUSH LOVE 30cm        0000001000+00008771+00000+0001T   00008771+0000001801          1400 TM9745               3AZ
120833000120833               120833               170213JV     1400+00000+JV0000000876+0000000876+000000000+000000123+0000000990+0000000009+I20000000000+0000000990+Z
120833001120833077-000150-D   120833006003000054343GIFT-WRAP CELLPHANE CLR0000001000+00000876+00000+0001T   00000876+0000001802          1400 TM9112               3AZ
120834000120834               120834               170213JV     1400+00000+JV0000035427+0000035427+000000000+000004969+0000040396+0000000000+I40000040396+0000000000+Z
120834001120834077-000151     120834006008766114676GIFT-WRAP C/PHANE ASSTD0000002000+00000876+00000+0001T   00000876+0000001806          1400 TM9112               3AZ
120834002120834368-000049     120834006003000536955PLUSH BEAR 15cm LOVE   0000001000+00004385+00000+0001T   00004385+0000001806          1400 TM9745               3AZ
120834003120834301-085004     120834006003000420469ORN LOVE PLAQUE 21X10CM0000001000+00003507+00000+0001T   00003946+0006471806          1400 TM9505               3AZ
120834004120834104-000020     120834006916920023026BASKET 25x14x10cm      0000004000+00001753+00000+0001T   00001753+0000001806          1400 TM9210               3AZ
120834005120834080-000127     120834006003000424351VALENTINES DAY 36x24CM 0000002000+00002192+00000+0001T   00002192+0000001806          1400 TM9112               3AZ
120834006120834006-001000     120834006003000093779HELIUM BALLOON FILL    0000024000+00000613+00000+0001T   00000613+0000001806          1400 TM9131               3AZ
120834007120834112-116069     120834006009681820277TCS CARRIER BAG JUMBO  0000006000+00000048+00000+0001T   00000048+0000001806          1400 TM9090               3AZ
120834008120834006-001000     120834006003000093779HELIUM BALLOON FILL    0000001000-00000613+00000+0001T   00000613+0000001806          1400 TM91311IC            3 Z
120835000120835               120835               170213JV     1400+00000+JV0000011449+0000011449+000000000+000001604+0000013053+0000000000+I40000013053+0000000000+Z
120835001120835077-000270     120835006003000395453GIFT-BAG PPR JMB 33X45 0000001000+00002630+00000+0001T   00002630+0000001807          1400 TM9112               3AZ
120835002120835031-086302-C   120835006001023910332P/FRAME COLL. PL 3-HOLE0000001000+00008771+00000+0001T   00008771+0000001807          1400 TM9510               3AZ
120835003120835112-116069     120835006009681820277TCS CARRIER BAG JUMBO  0000001000+00000048+00000+0001T   00000048+0000001807          1400 TM9090               3AZ
120836000120836               120836               170213JV     1400+00000+JV0000001753+0000001753+000000000+000000246+0000001990+0000000009+I20000000000+0000001990+Z
120836001120836077-000299-A   120836006003000670888GIFT-BAG PAPER JMB LOVE0000001000+00001753+00000+0001T   00001753+0000001808          1400 TM9112               3AZ
120837000120837               120837               170213JV     1400+00000+JV0000003944+0000003944+000000000+000000553+0000004490+0000000007+I20000000000+0000004490+Z
120837001120837018-000170     120837006001023775528MUG OCC. LOVE 2PC MINI 0000001000+00002192+00000+0001T   00002192+0000001808          1400 TM9515               3AZ
120837002120837903-000861     120837005010478430822SWT LOVE HEARTS SML    0000002000+00000876+00000+0001T   00000876+0000001808          1400 TM9150               3AZ
120838000120838               120838               170213JV     1400+00000+JV0000007014+0000007014+000000000+000000982+0000007996+0000000000+I40000007996+0000000000+Z
120838001120838087-000102     120838006003000137466HAIR TRIMMER SET       0000001000+00003507+00000+0001T   00003507+0000001810          1400 TM9200               3AZ
120838002120838087-002000     120838006001023592620HAIR TRIMMER SET 4pc   0000001000+00003507+00000+0001T   00003507+0000001810          1400 TM9200               3AZ
120839000120839               120839               170213JV     1400+00000+JV0000001314+0000001314+000000000+000000184+0000001490+0000000008+I20000000000+0000001490+Z
120839001120839046-000012     120839006904708013062BATTERIES AA  CARD-OF-40000001000+00001314+00000+0001T   00001314+0000001810          1400 TM9312               3AZ
120840000120840               120840               170213JV     1400+00000+JV0000009818+0000009818+000000000+000001377+0000011190+0000000005+I20000000000+0000011190+Z
120840001120840079-000280     120840006003000160723PAINT READYMIX 6PCE    0000001000+00002630+00000+0001T   00002630+0000001811          1400 TM9130               3AZ
120840002120840089-000150     120840006003000674268K/CHAIN PLUSH EMOTICON 0000001000+00001139+00000+0001T   00001139+0000001811          1400 TM9205               3AZ
120840003120840567-014133     120840006003000560103BOOK COLOURING 48 PAGE 0000002000+00001490+00000+0001T   00001490+0000001811          1400 TM9757               3AZ
120840004120840567-014135     120840006003000560264BOOK COLOURING 240P    0000001000+00003069+00000+0001T   00003507+0008191811          1400 TM9757               3AZ
120841000120841               120841               170213JV     1400+00000+JV0000013111+0000013111+000000000+000001838+0000014949+0000000000+I40000014949+0000000000+Z
120841001120841080-000113     120841006003000237449CARD&ENVLPE - LOVE     0000001000+00001753+00000+0001T   00001753+0000001813          1400 TM9112               3AZ
120841002120841041-093000     120841006003000320882B/GIFT SET 4PC B/RANGE 0000001000+00007016+00000+0001T   00007016+0000001813          1400 TM9200               3AZ
120841003120841046-000012     120841006904708013062BATTERIES AA  CARD-OF-40000001000+00001314+00000+0001T   00001314+0000001813          1400 TM9312               3AZ
120841004120841077-000357     120841006003000139354GIFT-BAG 18X23CM B/DAY 0000001000+00001753+00000+0001T   00001753+0000001813          1400 TM9112               3AZ
120841005120841903-000504     120841006001704012416SWT CHOC JELLY BEANS   0000001000+00001227+00000+0001T   00001227+0000001813          1400 TM9150               3AZ
120841006120841112-116069     120841006009681820277TCS CARRIER BAG JUMBO  0000001000+00000048+00000+0001T   00000048+0000001813          1400 TM9090               3AZ
A17021300                                          09470433JVSLAVE 3                       TM92IC
A17021301                                          15125505JVSLAVE 3                       TM92IC
M17021391                              CASH        JVSLAVE 3                       Z-REPORT No.   122TOTAL (Sales - Refunds)           5635.92       CASH TO BE BANKED                 2016.40       DEBIT CARDS                          0.00       CREDIT CARDS                      3619.52       Z-READING                         5635.92       AIRTIME DEBIT CARD SALES             0.00       AIRTIME CARD SALES                   0.00       OVERS/UNDERS                         0.00       AIRTIME CASH SALES                   0.00       GIFT CARDS                           0.00       GIFT CARD CASH SALES                 0.00       T O T A L  CASH PAYOUTS              0.00                                                                                                                                                                                                                                                                                                                                                      Z
M17021392                              CASH        JVABSENT                                                                                                                                                                                          ANNUAL LEAVE                                                                                                                                                                                    DAY OFF                                                                                                                                                                                         COMMENTS                                                                                                                                                                                                                                                                                                                                                                                       Z
Y17021300                                          JV00000000495136+000060
ZJV17021321103 SLAVE 3      SALES DATA                     NEXT INVOICE NO.  120842 0122
X JV Slave 3 First invoice 120782 170213 Last invoice 120841 170213 Next invoice 120842 Total number of records 000000245 clbackup completed 21:10:37
