112007000112007               112007               170213JX     1400+00000+JX0000002630+0000002630+000000000+000000369+0000002990+0000000009+I20000000000+0000002990+Z
112007001112007200-000208     112007006003000293728BAKING ALUM FOIL 5PCE  0000001000+00002630+00000+0001T   00002630+0000000910          1400 NK7214               1AZ
112008000112008               112008               170213JX     1400+00000+JX0000002630+0000002630+000000000+000000369+0000002990+0000000009+I20000000000+0000002990+Z
112008001112008108-003023     112008006003000665471TUMBLER W/STRAW 550ml  0000001000+00002630+00000+0001T   00002630+0000000947          1400 NK7210               1AZ
112009000112009               112009               170213JX     1400+00000+JX0000008362+0000008362+000000000+000001173+0000009535+0000000000+I40000009535+0000000000+Z
112009001112009565-000043     112009006003000109562NOVELTY BALL FUNNY FACE0000001000+00001753+00000+0001T   00001753+0000001017          1400 1IC745               1AZ
112009002112009206-000370     112009006003000631315STRAW P/DRINKING GLASS 0000002000+00001753+00000+0001T   00001753+0000001017          1400 1IC321               1AZ
112009003112009563-000318-L   112009006003000407088SERVIETTES 33cm RED    0000001000+00002192+00000+0001T   00002192+0000001017          1400 1IC214               1AZ
112009004112009112-116038     112009006009681820246TCS CARRIER BAG MIDI   0000001000+00000035+00000+0001T   00000035+0000001017          1400 1IC090               1AZ
112009005112009903-000861     112009005010478430822SWT LOVE HEARTS SML    0000001000+00000876+00000+0001T   00000876+0000001017          1400 1IC150               1AZ
112010000112010               112010               170213JX     1400+00000+JX0000014462+0000014462+000000000+000002029+0000016490+0000000001+I20000000000+0000016490+Z
112010001112010108-004035     112010006001023669469PLATE PS 20cm-DIAMETER 0000003000+00000876+00000+0001T   00000876+0000001018          1400 1IC210               1AZ
112010002112010002-000651     112010006003000467778TOASTER TONGS MAGNETIC 0000001000+00001314+00000+0001T   00001314+0000001018          1400 1IC300               1AZ
112010003112010220-005002     112010006003000566037ELOFF DESSERT SPOONS 4P0000001000+00002630+00000+0001T   00002630+0000001018          1400 1IC300               1AZ
112010004112010220-005001     112010006003000565917ELOFF TABLE FORKS 4PC  0000001000+00002630+00000+0001T   00002630+0000001018          1400 1IC300               1AZ
112010005112010220-009174     112010006001023706904ROSE DESS-KNIVES 2PCE  0000001000+00002630+00000+0001T   00002630+0000001018          1400 1IC300               1AZ
112010006112010220-000032     112010006001023425065BUDGET TEASPOONS 12PCE 0000001000+00002630+00000+0001T   00002630+0000001018          1400 1IC300               1AZ
112011000112011               112011               170213JX     1400+00000+JX0000001314+0000001314+000000000+000000184+0000001490+0000000008+I20000000000+0000001490+Z
112011001112011077-000407     112011006003000145096G/BAG PP 19X26X8CM     0000001000+00001314+00000+0001T   00001314+0000001032          1400 NK7112               1AZ
112012000112012               112012               170213JX     1400+00000+JX0000000035+0000000035+000000000+000000005+0000000040+0000000000+I20000000000+0000000040+Z
112012001112012112-116038     112012006009681820246TCS CARRIER BAG MIDI   0000001000+00000035+00000+0001T   00000035+0000001033          1400 NK7090               1AZ
112013000112013               112013               170213JX     1400+00000+JX0000006137+0000006137+000000000+000000860+0000006990+0000000007+I20000000000+0000006990+Z
112013001112013079-000273     112013006003000160327PAINT BRUSHES THICK    0000001000+00002630+00000+0001T   00002630+0000001035          1400 NK7130               1CZ
112013002112013560-000300     112013006001023714879DINOSAURS 12PC         0000001000+00003507+00000+0001T   00003507+0000001035          1400 NK7745               1CZ
112014000112014               112014               170213JX     1400+00000+JX0000004870+0000004870+000000000+000000683+0000005550+0000000003+I20000000000+0000005550+Z
112014001112014366-002695     112014006003000222766DRESS UP HAT ROUND GLIT0000001000+00002192+00000+0001T   00002192+0000001038          1400 NK7131               1CZ
112014002112014079-013032-D   112014006003000389643RIBBONS                0000001000+00002630+00000+0001T   00002630+0000001038          1400 NK7130               1CZ
112014003112014112-116069     112014006009681820277TCS CARRIER BAG JUMBO  0000001000+00000048+00000+0001T   00000048+0000001038          1400 NK7090               1CZ
112015000112015               112015               170213JX     1400+00000+JX0000003979+0000003979+000000000+000000558+0000004537+0000000000+I40000004537+0000000000+Z
112015001112015018-000129     112015006001023403353MUG OCC. LOVE V-SHAPE  0000001000+00002630+00000+0001T   00002630+0000001041          1400 NK7515               1AZ
112015002112015112-116038     112015006009681820246TCS CARRIER BAG MIDI   0000001000+00000035+00000+0001T   00000035+0000001041          1400 NK7090               1AZ
112015003112015006-000166-D   112015006003000516490BALLOONS LRG 6PC RED   0000001000+00001314+00000+0001T   00001314+0000001041          1400 NK7131               1AZ
112016000112016               112016               170213JX     1400+00000+JX0000010308+0000010308+000000000+000001444+0000011752+0000000000+I40000011752+0000000000+Z
112016001112016077-000299     112016006003000395576G/BAG 32x25cm LRG LOVE 0000001000+00001490+00000+0001T   00001490+0000001043          1400 NK7112               1AZ
112016002112016018-030000     112016006003000421060MUG OCCASIONS LOVE 2PCE0000002000+00004385+00000+0001T   00004385+0000001043          1400 NK7515               1AZ
112016003112016112-116069     112016006009681820277TCS CARRIER BAG JUMBO  0000001000+00000048+00000+0001T   00000048+0000001043          1400 NK7090               1AZ
112017000112017               112017               170213JX     1400+00000+JX0000008852+0000008852+000000000+000001242+0000010094+0000000000+I40000010094+0000000000+Z
112017001112017080-000101     112017006003000236732CARD&ENVLPE FEMALE     0000001000+00001753+00000+0001T   00001753+0000001130          1400 NK7112               1AZ
112017002112017077-000011-X   112017006001023809827TISSUE-WRAP SILVER 10PC0000001000+00001753+00000+0001T   00001753+0000001130          1400 NK7112               1AZ
112017003112017077-000302     112017008010410010195GIFT-BAG 18X23CM E/D   0000001000+00000876+00000+0001T   00000876+0000001130          1400 NK7112               1AZ
112017004112017077-000384     112017006003000275243G/BAG HOT STMP 18x23CM 0000002000+00001490+00000+0001T   00001490+0000001130          1400 NK7112               1AZ
112017005112017077-000299     112017006003000395576G/BAG 32x25cm LRG LOVE 0000001000+00001490+00000+0001T   00001490+0000001130          1400 NK7112               1AZ
112018000112018               112018               170213JX     1400+00000+JX0000004385+0000004385+000000000+000000614+0000004999+0000000000+I40000004999+0000000000+Z
112018001112018082-000110     112018006003000360482READING GLS STRENGHT:2 0000001000+00004385+00000+0001T   00004385+0000001133          1400 NK7160               1CZ
112019000112019               112019               170213JX     1400+00000+JX0000001227+0000001227+000000000+000000172+0000001390+0000000009+I20000000000+0000001390+Z
112019001112019206-000630     112019006003000631919SPECTACLE CLEANING BRUS0000001000+00001227+00000+0001T   00001227+0000001136          1400 NK7321               1CZ
112020000112020               112020               170213JX     1400+00000+JX0000010118+0000010118+000000000+000001417+0000011530+0000000005+I20000000000+0000011530+Z
112020001112020368-000171     112020006003000233250PLUSH BEAR 14cm        0000001000+00005262+00000+0001T   00005262+0000001138          1400 NK7745               1AZ
112020002112020077-000470     112020006003000330171G-BAG DESGN SML 11X14CM0000001000+00001314+00000+0001T   00001314+0000001138          1400 NK7112               1AZ
112020003112020301-085004     112020006003000420469ORN LOVE PLAQUE 21X10CM0000001000+00003507+00000+0001T   00003946+0006471138          1400 NK7505               1AZ
112020004112020112-116038     112020006009681820246TCS CARRIER BAG MIDI   0000001000+00000035+00000+0001T   00000035+0000001138          1400 NK7090               1AZ
112021000112021               112021               170213JX     1400+00000+JX0000007927+0000007927+000000000+000001111+0000009030+0000000008+I20000000000+0000009030+Z
112021001112021304-000720     112021006001023843050F/BUNCH ROSE 6-HEAD AST0000001000+00002630+00000+0001T   00002630+0000001139          1400 NK7510               1AZ
112021002112021018-019000     112021006003000557288MUG OCC. LOVE JUMBO    0000001000+00005262+00000+0001T   00005262+0000001139          1400 NK7515               1AZ
112021003112021112-116038     112021006009681820246TCS CARRIER BAG MIDI   0000001000+00000035+00000+0001T   00000035+0000001139          1400 NK7090               1AZ
112022000112022               112022               170213JX     1400+00000+JX0000001576+0000001576+000000000+000000222+0000001790+0000000008+I20000000000+0000001790+Z
112022001112022071-081101-A   112022006003000326549GLUE-STICK 25g BLISTER 0000002000+00000788+00000+0001T   00000788+0000001141          1400 NK7130               1AZ
112023000112023               112023               170213JX     1400+00000+JX0000001570-0000001570-000000000+000000220-0000001790-0000000000+I20000000000+0000001790-Z
112023001112023001-999906     112023000000000999906STATIONERY(PHOTOCOPIES)0000001000-00001570+00000+0001T   00000000+0000001142          1400 NK79062IC            1 Z
112024000112024               112024               170213JX     1400+00000+JX0000000437+0000000437+000000000+000000062+0000000490+0000000009+I20000000000+0000000490+Z
112024001112024071-000212     112024006009608641190CHALK WHITE 12PCE      0000001000+00000437+00000+0001T   00000437+0000001143          1400 NK7130               1CZ
112025000112025               112025               170213JX     1400+00000+JX0000001227+0000001227+000000000+000000172+0000001399+0000000000+I40000001399+0000000000+Z
112025001112025206-000630     112025006003000631919SPECTACLE CLEANING BRUS0000001000+00001227+00000+0001T   00001227+0000001211          1400 NK7321               1AZ
112026000112026               112026               170213JX     1400+00000+JX0000022220+0000022220+000000000+000003113+0000025333+0000000000+I40000025333+0000000000+Z
112026001112026019-071601     112026006001023771995RIVER-STONES 1kg WHITE 0000001000+00002630+00000+0001T   00002630+0000001214          1400 NK7510               1AZ
112026002112026055-009054     112026006001023471994CUP-HOOKS BRS 30mm H&H 0000002000+00001314+00000+0001T   00001314+0000001214          1400 NK7810               1AZ
112026003112026903-000087     112026006001704000161SWT SPECKLED-EGGS 50G  0000001000+00001139+00000+0001T   00001139+0000001214          1400 NK7150               1AZ
112026004112026112-116038     112026006009681820246TCS CARRIER BAG MIDI   0000001000+00000035+00000+0001T   00000035+0000001214          1400 NK7090               1AZ
112026005112026032-000866     112026006003000406548MIRROR WALL MDF 38.5X490000001000+00015788+00000+0001T   00015788+0000001214          1400 NK7510               1AZ
112027000112027               112027               170213JX     1400+00000+JX0000006576+0000006576+000000000+000000921+0000007490+0000000007+I20000000000+0000007490+Z
112027001112027368-000171     112027006003000233250PLUSH BEAR 14cm        0000001000+00005262+00000+0001T   00005262+0000001215          1400 NK7745               1AZ
112027002112027903-000844     112027005010478432567SWT CANDY DL LUV HEARTS0000001000+00001314+00000+0001T   00001314+0000001215          1400 NK7150               1AZ
112028000112028               112028               170213JX     1400+00000+JX0000002192+0000002192+000000000+000000307+0000002490+0000000009+I20000000000+0000002490+Z
112028001112028080-000127     112028006003000424351VALENTINES DAY 36x24CM 0000001000+00002192+00000+0001T   00002192+0000001216          1400 NK7112               1AZ
112029000112029               112029               170213JX     1400+00000+JX0000001051+0000001051+000000000+000000148+0000001190+0000000009+I20000000000+0000001190+Z
112029001112029079-009702-D   112029008427973059354PAPER SIRIO A2 RED COL 0000001000+00001051+00000+0001T   00001051+0000001217          1400 NK7130               1AZ
112030000112030               112030               170213JX     1400+00000+JX0000009645+0000009645+000000000+000001351+0000010996+0000000000+I40000010996+0000000000+Z
112030001112030077-000289     112030006001023901996GIFT BOX 20x25x11cm    0000001000+00001753+00000+0001T   00001753+0000001224          1400 NK7112               1AZ
112030002112030018-000130     112030006001023867537MUG OCC LOVE MINI+HEART0000001000+00003507+00000+0001T   00003507+0000001224          1400 NK7515               1AZ
112030003112030031-000001-A   112030006003000246908P/FRAME GLS LOVE 9X13cm0000001000+00004385+00000+0001T   00004385+0000001224          1400 NK7510               1AZ
112031000112031               112031               170213JX     1400+00000+JX0000000048+0000000048+000000000+000000007+0000000050+0000000005+I20000000000+0000000050+Z
112031001112031112-116069     112031006009681820277TCS CARRIER BAG JUMBO  0000001000+00000048+00000+0001T   00000048+0000001240          1400 NK7090               1AZ
112032000112032               112032               170213JX     1400+00000+JX0000006578+0000006578+000000000+000000921+0000007490+0000000009+I20000000000+0000007490+Z
112032001112032486-002065     112032006003000057030C/ALARM QTZ PL SQUARE  0000001000+00006578+00000+0001T   00006578+0000001241          1400 NK7510               1AZ
112033000112033               112033               170213JX     1400+00000+JX0000005747+0000005747+000000000+000000805+0000006552+0000000000+I40000006552+0000000000+Z
112033001112033080-000127     112033006003000424351VALENTINES DAY 36x24CM 0000001000+00002192+00000+0001T   00002192+0000001248          1400 NK7112               1AZ
112033002112033104-000180     112033006001023765758CUTLERY-TRAY PL        0000001000+00003507+00000+0001T   00003507+0000001248          1400 NK7210               1AZ
112033003112033112-116069     112033006009681820277TCS CARRIER BAG JUMBO  0000001000+00000048+00000+0001T   00000048+0000001248          1400 NK7090               1AZ
112034000112034               112034               170213JX     1400+00000+JX0000005259+0000005259+000000000+000000738+0000005997+0000000000+I40000005997+0000000000+Z
112034001112034007-000050     112034006001023528285DISPLAY-ENVELOPE A4    0000003000+00001753+00000+0001T   00001753+0000001317          1400 NK7130               1AZ
112035000112035               112035               170213JX     1400+00000+JX0000001753+0000001753+000000000+000000246+0000001990+0000000009+I20000000000+0000001990+Z
112035001112035077-000116     112035006003000240777GIFT-WRAP 700mmx2m COL 0000001000+00001753+00000+0001T   00001753+0000001320          1400 NK7112               1AZ
112036000112036               112036               170213JX     1400+00000+JX0000004910+0000004910+000000000+000000688+0000005590+0000000008+I20000000000+0000005590+Z
112036001112036200-000220     112036006008766126976BAKEPANS 5PCE          0000002000+00002455+00000+0001T   00002455+0000001329          1400 NK7214               1AZ
112037000112037               112037               170213JX     1400+00000+JX0000002715+0000002715+000000000+000000382+0000003097+0000000000+I40000003097+0000000000+Z
112037001112037077-000299     112037006003000395576G/BAG 32x25cm LRG LOVE 0000001000+00001490+00000+0001T   00001490+0000001332          1400 3IC112               1AZ
112037002112037077-000010-C   112037006001023123879CREPE-PAPER RED        0000001000+00000788+00000+0001T   00000788+0000001332          1400 3IC112               1AZ
112037003112037080-000133-A   112037006003000647019MINI VALENTINES CARD   0000001000+00000437+00000+0001T   00000437+0000001332          1400 3IC112               1AZ
112038000112038               112038               170213JX     1400+00000+JX0000008803+0000008803+000000000+000001233+0000010030+0000000006+I20000000000+0000010030+Z
112038001112038072-020257     112038006001023598110DOG-CHEW SHOE 13cm     0000004000+00002192+00000+0001T   00002192+0000001332          1400 3IC870               1AZ
112038002112038112-116038     112038006009681820246TCS CARRIER BAG MIDI   0000001000+00000035+00000+0001T   00000035+0000001332          1400 3IC090               1AZ
112039000112039               112039               170213JX     1400+00000+JX0000006136+0000006136+000000000+000000861+0000006990+0000000007+I20000000000+0000006990+Z
112039001112039071-005211     112039006003000152346CELLOTAPE MOUNTING TAPE0000002000+00001753+00000+0001T   00001753+0000001335          1400 NK7130               1AZ
112039002112039019-071601     112039006001023771995RIVER-STONES 1kg WHITE 0000001000+00002630+00000+0001T   00002630+0000001335          1400 NK7510               1AZ
112040000112040               112040               170213JX     1400+00000+JX0000039509+0000039509+000000000+000005533+0000045040+0000000002+I20000000000+0000045040+Z
112040001112040251-000002     112040006003000093991TAPE D-SIDED 24x1000mm 0000002000+00002192+00000+0001T   00002192+0000001337          1400 NK7810               1AZ
112040002112040031-000868-A   112040006001023798534P/FRAME PL BLCK 10X15CM0000010000+00002192+00000+0001T   00002192+0000001337          1400 NK7510               1AZ
112040003112040031-001002     112040006003000253142P/FRAME COLLAGE 68X35CM0000001000+00013157+00000+0001T   00013157+0000001337          1400 NK7510               1AZ
112040004112040112-116069     112040006009681820277TCS CARRIER BAG JUMBO  0000001000+00000048+00000+0001T   00000048+0000001337          1400 NK7090               1AZ
112041000112041               112041               170213JX     1400+00000+JX0000003506+0000003506+000000000+000000492+0000003990+0000000008+I20000000000+0000003990+Z
112041001112041077-000011-X   112041006001023809827TISSUE-WRAP SILVER 10PC0000001000+00001753+00000+0001T   00001753+0000001445          1400 NK7112               1AZ
112041002112041077-000324     112041006001023677594GIFT-BAG 33X45CM E/D FL0000001000+00001753+00000+0001T   00001753+0000001445          1400 NK7112               1AZ
112042000112042               112042               170213JX     1400+00000+JX0000004823+0000004823+000000000+000000676+0000005490+0000000009+I20000000000+0000005490+Z
112042001112042301-085001     112042006003000297610ORN WATERBALL LOVE ASST0000001000+00004823+00000+0001T   00004823+0000001447          1400 NK7505               1CZ
112043000112043               112043               170213JX     1400+00000+JX0000008818+0000008818+000000000+000001235+0000010053+0000000000+I40000010053+0000000000+Z
112043001112043031-005840     112043006001023481412P/FRAME-CLIP 30X40CM   0000002000+00004385+00000+0001T   00004385+0000001509          1400 NK7510               1AZ
112043002112043112-116069     112043006009681820277TCS CARRIER BAG JUMBO  0000001000+00000048+00000+0001T   00000048+0000001509          1400 NK7090               1AZ
112044000112044               112044               170213JX     1400+00000+JX0000001753+0000001753+000000000+000000246+0000001990+0000000009+I20000000000+0000001990+Z
112044001112044080-000112     112044006003000252749CARD&ENVLP BDAY-MUSICAL0000001000+00001753+00000+0001T   00001753+0000001522          1400 NK7112               1AZ
112045000112045               112045               170213JX     1400+00000+JX0000018026+0000018026+000000000+000002525+0000020551+0000000000+I40000020551+0000000000+Z
112045001112045560-000245     112045006001023622716RUBBER ANIMALS 10PC ASS0000001000+00007016+00000+0001T   00007016+0000001524          1400 NK7745               1AZ
112045002112045266-001100     112045006003000551309FARM TRACTOR & ACC     0000002000+00004385+00000+0001T   00004385+0000001524          1400 NK7710               1AZ
112045003112045200-000200     112045006008766091144BAKING ALUM FOIL 2PCE  0000001000+00002192+00000+0001T   00002192+0000001524          1400 NK7214               1AZ
112045004112045112-116069     112045006009681820277TCS CARRIER BAG JUMBO  0000001000+00000048+00000+0001T   00000048+0000001524          1400 NK7090               1AZ
112046000112046               112046               170213JX     1400+00000+JX0000007497+0000007497+000000000+000001052+0000008549+0000000000+I40000008549+0000000000+Z
112046001112046112-116069     112046006009681820277TCS CARRIER BAG JUMBO  0000001000+00000048+00000+0001T   00000048+0000001527          1400 NK7090               1AZ
112046002112046039-000336     112046006001023169129B'DAY-CANDLES MAGIC 10P0000001000+00000964+00000+0001T   00000964+0000001527          1400 NK7510               1AZ
112046003112046077-000011-R   112046006001023808462P/TISSUE DARK 10-SHEETS0000001000+00000876+00000+0001T   00000876+0000001527          1400 NK7112               1AZ
112046004112046077-000011-L   112046006001023808585P/TISSUE BRIGHT 10SHEET0000001000+00000876+00000+0001T   00000876+0000001527          1400 NK7112               1AZ
112046005112046077-000467     112046006003000329991GIFT-BAG STAMP 18X23CM 0000001000+00001753+00000+0001T   00001753+0000001527          1400 NK7112               1AZ
112046006112046077-000319     112046006001023609779GIFT-BAG 18X23CM BIRTHD0000001000+00001227+00000+0001T   00001227+0000001527          1400 NK7112               1AZ
112046007112046077-000316     112046006001023609731GIFT-BAG 25X32CM MATT  0000001000+00001753+00000+0001T   00001753+0000001527          1400 NK7112               1AZ
112047000112047               112047               170213JX     1400+00000+JX0000004383+0000004383+000000000+000000615+0000004998+0000000000+I40000004998+0000000000+Z
112047001112047266-000938     112047006001023186676SWORD+SCABBARD         0000001000+00002630+00000+0001T   00002630+0000001528          1400 NK7710               1AZ
112047002112047266-000634     112047006003000119554GLIDER BALLOON HELICO  0000001000+00001753+00000+0001T   00001753+0000001528          1400 NK7710               1AZ
112048000112048               112048               170213JX     1400+00000+JX0000004943+0000004943+000000000+000000693+0000005630+0000000006+I20000000000+0000005630+Z
112048001112048112-116038     112048006009681820246TCS CARRIER BAG MIDI   0000001000+00000035+00000+0001T   00000035+0000001529          1400 NK7090               1AZ
112048002112048018-000177     112048006001023797513MUG MINI LOVE ASSTD    0000001000+00000700+00000+0001T   00000700+0000001529          1400 NK7515               1AZ
112048003112048077-000303     112048006001023593757GIFT-BAG PAPER MED     0000001000+00001578+00000+0001T   00001578+0000001529          1400 NK7112               1AZ
112048004112048304-000720     112048006001023843050F/BUNCH ROSE 6-HEAD AST0000001000+00002630+00000+0001T   00002630+0000001529          1400 NK7510               1AZ
112049000112049               112049               170213JX     1400+00000+JX0000000788+0000000788+000000000+000000111+0000000890+0000000009+I20000000000+0000000890+Z
112049001112049903-000200     112049006009826020234SWT CHOC RP CHOCO 23G  0000001000+00000788+00000+0001T   00000788+0000001529          1400 NK7150               1AZ
112050000112050               112050               170213JX     1400+00000+JX0000003507+0000003507+000000000+000000491+0000003990+0000000008+I20000000000+0000003990+Z
112050001112050105-001000     112050006003000520275CONTAINER:CEREAL TO GO 0000001000+00003507+00000+0001T   00004823+0008161530          1400 NK7210               1AZ
112051000112051               112051               170213JX     1400+00000+JX0000002628+0000002628+000000000+000000368+0000002990+0000000006+I20000000000+0000002990+Z
112051001112051077-000407     112051006003000145096G/BAG PP 19X26X8CM     0000002000+00001314+00000+0001T   00001314+0000001533          1400 NK7112               1AZ
112052000112052               112052               170213JX     1400+00000+JX0000005310+0000005310+000000000+000000744+0000006054+0000000000+I40000006054+0000000000+Z
112052001112052366-000125     112052006003000006786DRESSUP WINGS/WAND/BAND0000001000+00005262+00000+0001T   00005262+0000001538          1400 NK7131               1AZ
112052002112052112-116069     112052006009681820277TCS CARRIER BAG JUMBO  0000001000+00000048+00000+0001T   00000048+0000001538          1400 NK7090               1AZ
112053000112053               112053               170213JX     1400+00000+JX0000005344+0000005344+000000000+000000750+0000006090+0000000004+I20000000000+0000006090+Z
112053001112053200-000130     112053006001023645067DESSERT-SPOONS 10PCE   0000004000+00000613+00000+0001T   00000613+0000001539          1400 NK7214               1AZ
112053002112053024-000214     112053006001023587855COOKIE-CUTTERS PL 6PC  0000001000+00001753+00000+0001T   00001753+0000001539          1400 NK7300               1AZ
112053003112053566-001227     112053006001023707741STICKERS TEEN LASER    0000001000+00001139+00000+0001T   00001490+0008151539          1400 NK7130               1AZ
112054000112054               112054               170213JX     1400+00000+JX0000005259+0000005259+000000000+000000738+0000005997+0000000000+I40000005997+0000000000+Z
112054001112054077-000301     112054008010410010188BAG LRG 25X32CM B/DAY  0000001000+00001753+00000+0001T   00001753+0000001540          1400 NK7112               1AZ
112054002112054077-000457     112054006003000285662G/BAG METALLIC JMB SOL 0000002000+00001753+00000+0001T   00001753+0000001540          1400 NK7112               1AZ
112055000112055               112055               170213JX     1400+00000+JX0000000874+0000000874+000000000+000000124+0000000990+0000000008+I20000000000+0000000990+Z
112055001112055083-000049     112055004891035200024CIG-LIGHTER DISPOSABLE 0000002000+00000437+00000+0001T   00000437+0000001541          1400 NK7315               1AZ
112056000112056               112056               170213JX     1400+00000+JX0000008992+0000008992+000000000+000001260+0000010252+0000000000+I40000010252+0000000000+Z
112056001112056089-060027     112056006003000245871KEY-CHAIN HEART 6X6cm  0000001000+00003069+00000+0001T   00003069+0000001542          1400 NK7205               1AZ
112056002112056031-080508     112056006001023802415P/FRAME PL 22X11CM LOVE0000001000+00004385+00000+0001T   00004385+0000001542          1400 NK7510               1AZ
112056003112056077-000299     112056006003000395576G/BAG 32x25cm LRG LOVE 0000001000+00001490+00000+0001T   00001490+0000001542          1400 NK7112               1AZ
112056004112056112-116069     112056006009681820277TCS CARRIER BAG JUMBO  0000001000+00000048+00000+0001T   00000048+0000001542          1400 NK7090               1AZ
112057000112057               112057               170213JX     1400+00000+JX0000016881+0000016881+000000000+000002365+0000019246+0000000000+I40000019246+0000000000+Z
112057001112057080-000113     112057006003000237449CARD&ENVLPE - LOVE     0000001000+00001753+00000+0001T   00001753+0000001546          1400 NK7112               1AZ
112057002112057077-000303     112057006001023593757GIFT-BAG PAPER MED     0000002000+00001578+00000+0001T   00001578+0000001546          1400 NK7112               1AZ
112057003112057018-000177     112057006001023797513MUG MINI LOVE ASSTD    0000002000+00000700+00000+0001T   00000700+0000001546          1400 NK7515               1AZ
112057004112057018-019000     112057006003000557288MUG OCC. LOVE JUMBO    0000002000+00005262+00000+0001T   00005262+0000001546          1400 NK7515               1AZ
112057005112057112-116069     112057006009681820277TCS CARRIER BAG JUMBO  0000001000+00000048+00000+0001T   00000048+0000001546          1400 NK7090               1AZ
112058000112058               112058               170213JX     1400+00000+JX0000003980+0000003980+000000000+000000558+0000004538+0000000000+I40000004538+0000000000+Z
112058001112058200-003024     112058006001023657299REFUSE BAGS 20PCE BLACK0000001000+00001753+00000+0001T   00001753+0000001547          1400 NK7214               1DZ
112058002112058089-000501     112058006003000622900KEY CHAIN LIGHT LASER  0000001000+00002192+00000+0001T   00002192+0000001547          1400 NK7205               1DZ
112058003112058112-116038     112058006009681820246TCS CARRIER BAG MIDI   0000001000+00000035+00000+0001T   00000035+0000001547          1400 NK7090               1DZ
112059000112059               112059               170213JX     1400+00000+JX0000003857+0000003857+000000000+000000541+0000004398+0000000000+I40000004398+0000000000+Z
112059001112059200-003024     112059006001023657299REFUSE BAGS 20PCE BLACK0000001000+00001753+00000+0001T   00001753+0000001550          1400 NK7214               1AZ
112059002112059903-000095     112059006001704011495SWT SPECKLED-EGGS 100G 0000001000+00002104+00000+0001T   00002104+0000001550          1400 NK7150               1AZ
112060000112060               112060               170213JX     1400+00000+JX0000008805+0000008805+000000000+000001233+0000010038+0000000000+I40000010038+0000000000+Z
112060001112060016-006500     112060006003000618460S/JAR GLS HERMETICO    0000002000+00004385+00000+0001T   00004385+0000001606          1400 1IC300               1AZ
112060002112060112-116038     112060006009681820246TCS CARRIER BAG MIDI   0000001000+00000035+00000+0001T   00000035+0000001606          1400 1IC090               1AZ
112061000112061               112061               170213JX     1400+00000+JX0000005873+0000005873+000000000+000000823+0000006696+0000000000+I40000006696+0000000000+Z
112061001112061079-006518     112061006003000647378ART+CRAFT FABRIC MARKER0000001000+00003069+00000+0001T   00003069+0000001623          1400 3IC130               1AZ
112061002112061566-000359     112061006003000582709STICKER BOOK LOVE SPARK0000001000+00002192+00000+0001T   00002192+0000001623          1400 3IC130               1AZ
112061003112061079-009700-B   112061006003000547661PAPER SIRIO A4 WHITE   0000002000+00000306+00000+0001T   00000306+0000001623          1400 3IC130               1AZ
112062000112062               112062               170213JX     1400+00000+JX0000011450+0000011450+000000000+000001604+0000013050+0000000004+I20000000000+0000013050+Z
112062001112062030-004050     112062006003000658732PLAQUE WOODEN SIGN     0000001000+00011402+00000+0001T   00011402+0000001624          1400 3IC505               1AZ
112062002112062112-116069     112062006009681820277TCS CARRIER BAG JUMBO  0000001000+00000048+00000+0001T   00000048+0000001624          1400 3IC090               1AZ
112063000112063               112063               170213JX     1400+00000+JX0000001752+0000001752+000000000+000000246+0000001990+0000000008+I20000000000+0000001990+Z
112063001112063903-000849     112063008692806080083SWT SNACK BISCUIT 70g  0000001000+00000613+00000+0001T   00000613+0000001635          1400 3IC150               1AZ
112063002112063565-000071     112063006003000643387NOVELTY WIND UP CHATTER0000001000+00001139+00000+0001T   00001139+0000001635          1400 3IC745               1AZ
112064000112064               112064               170213JX     1400+00000+JX0000001227+0000001227+000000000+000000172+0000001390+0000000009+I20000000000+0000001390+Z
112064001112064903-000499     112064006001704012492SWT CHOC MALLOWS 50g   0000001000+00001227+00000+0001T   00001227+0000001636          1400 3IC150               1AZ
112065000112065               112065               170213JX     1400+00000+JX0000011135+0000011135+000000000+000001560+0000012695+0000000000+I40000012695+0000000000+Z
112065001112065077-000303     112065006001023593757GIFT-BAG PAPER MED     0000001000+00001578+00000+0001T   00001578+0000001638          1400 3IC112               1AZ
112065002112065018-000136     112065006001023659026MUG OCC LOVE W/PLUSH   0000001000+00003507+00000+0001T   00003507+0000001638          1400 3IC515               1AZ
112065003112065301-085003     112065006003000420827ORN OCCASION LOVE KEY  0000001000+00005262+00000+0001T   00005262+0000001638          1400 3IC505               1AZ
112065004112065903-000201     112065006009826020371SWT CHOC HEART 30g     0000001000+00000788+00000+0001T   00000788+0000001638          1400 3IC150               1AZ
112066000112066               112066               170213JX     1400+00000+JX0000036174+0000036174+000000000+000005069+0000041243+0000000000+I40000041243+0000000000+Z
112066001112066586-010649     112066006001492106496WATCH LDS RND B/FLY WHT0000001000+00015788+00000+0001T   00015788+0000001642          1400 3IC160               1AZ
112066002112066368-000171     112066006003000233250PLUSH BEAR 14cm        0000002000+00005262+00000+0001T   00005262+0000001642          1400 3IC745               1AZ
112066003112066304-001204     112066006001023737984FLOWER OCC. TEDDY/ROSES0000002000+00001402+00000+0001T   00001490+0006471642          1400 3IC510               1AZ
112066004112066018-000177     112066006001023797513MUG MINI LOVE ASSTD    0000002000+00000700+00000+0001T   00000700+0000001642          1400 3IC515               1AZ
112066005112066080-000124     112066006003000297733CARD & ENV VALENTINES  0000001000+00001578+00000+0001T   00001578+0000001642          1400 3IC112               1AZ
112066006112066106-001118     112066006009654960320WATER BOTTLE PL 500ml  0000002000+00002016+00000+0001T   00002016+0000001642          1400 3IC210               1AZ
112066007112066112-116069     112066006009681820277TCS CARRIER BAG JUMBO  0000001000+00000048+00000+0001T   00000048+0000001642          1400 3IC090               1AZ
112067000112067               112067               170213JX     1400+00000+JX0000001752+0000001752+000000000+000000246+0000001990+0000000008+I20000000000+0000001990+Z
112067001112067903-000481     112067006001704007481SWT MOO MILK-SHAKES 60G0000002000+00000876+00000+0001T   00000876+0000001647          1400 NK7150               1AZ
112068000112068               112068               170213JX     1400+00000+JX0000016691+0000016691+000000000+000002340+0000019031+0000000000+I40000019031+0000000000+Z
112068001112068072-020311     112068006003000494132PET DOG TOY VINYL BALL 0000001000+00003069+00000+0001T   00003069+0000001649          1400 NK7870               1AZ
112068002112068112-116038     112068006009681820246TCS CARRIER BAG MIDI   0000001000+00000035+00000+0001T   00000035+0000001649          1400 NK7090               1AZ
112068003112068033-006001     112068006001023135933SEWING-KIT TRAVELLING  0000001000+00000876+00000+0001T   00000876+0000001649          1400 NK7200               1AZ
112068004112068206-000620     112068006003000631797BACK SCRATCHER EXTEND  0000001000+00002630+00000+0001T   00002630+0000001649          1400 NK7321               1AZ
112068005112068080-000139     112068006003000611690CARD & ENV MINI SET 6PC0000001000+00002192+00000+0001T   00002192+0000001649          1400 NK7112               1AZ
112068006112068077-000303     112068006001023593757GIFT-BAG PAPER MED     0000001000+00001578+00000+0001T   00001578+0000001649          1400 NK7112               1AZ
112068007112068903-000510     112068006001704012621SWEET MS ZBDZ S/BERRY  0000001000+00001227+00000+0001T   00001227+0000001649          1400 NK7150               1AZ
112068008112068903-000518     112068006001704012782SWT STRAWS S/BERRY 100g0000002000+00001227+00000+0001T   00001227+0000001649          1400 NK7150               1AZ
112068009112068565-000014     112068006003000671915NOVELTY AIR BALLOON    0000001000+00002630+00000+0001T   00002630+0000001649          1400 NK7745               1AZ
112069000112069               112069               170213JX     1400+00000+JX0000001139+0000001139+000000000+000000160+0000001299+0000000000+I40000001299+0000000000+Z
112069001112069039-000322     112069006001023524157B/CANDLES W/HOLDERS 24 0000001000+00001139+00000+0001T   00001139+0000001655          1400 3IC510               1AZ
112070000112070               112070               170213JX     1400+00000+JX0000007184+0000007184+000000000+000001007+0000008190+0000000001+I20000000000+0000008190+Z
112070001112070080-000127     112070006003000424351VALENTINES DAY 36x24CM 0000001000+00002192+00000+0001T   00002192+0000001658          1400 NK7112               1AZ
112070002112070006-000167-C   112070006003000516971BALLOONS PINK METALLIC 0000001000+00001314+00000+0001T   00001314+0000001658          1400 NK7131               1AZ
112070003112070006-001000     112070006003000093779HELIUM BALLOON FILL    0000006000+00000613+00000+0001T   00000613+0000001658          1400 NK7131               1AZ
112071000112071               112071               170213JX     1400+00000+JX0000005910+0000005910+000000000+000000828+0000006738+0000000000+I40000006738+0000000000+Z
112071001112071018-030000     112071006003000421060MUG OCCASIONS LOVE 2PCE0000001000+00004385+00000+0001T   00004385+0000001701          1400 NK7515               1AZ
112071002112071077-000452     112071006003000284986G/BAG METALLIC MED EMB 0000001000+00001490+00000+0001T   00001490+0000001701          1400 NK7112               1AZ
112071003112071112-116038     112071006009681820246TCS CARRIER BAG MIDI   0000001000+00000035+00000+0001T   00000035+0000001701          1400 NK7090               1AZ
112072000112072               112072               170213JX     1400+00000+JX0000001753+0000001753+000000000+000000246+0000001999+0000000000+I40000001999+0000000000+Z
112072001112072018-000139     112072006003000547227MUG S/WARE SLANTED SHPE0000001000+00001753+00000+0001T   00002630+0008171702          1400 NK7515               1AZ
M17021391                              CASH        JXSLAVE 1                       Z-REPORT No.   608TOTAL (Sales - Refunds)           4964.46       CASH TO BE BANKED                 2059.90       DEBIT CARDS                          0.00       CREDIT CARDS                      2886.66       Z-READING                         4946.56       AIRTIME DEBIT CARD SALES             0.00       AIRTIME CARD SALES                   0.00       OVERS/UNDERS                         0.00       AIRTIME CASH SALES                   0.00       GIFT CARDS                           0.00       GIFT CARD CASH SALES                 0.00       STATIONERY(PHOTOCOPIES)             17.90       T O T A L  CASH PAYOUTS             17.90                                                                                                                                                                                                                                                                                                      Z
M17021392                              CASH        JXABSENT                                                                                                                                                                                          ANNUAL LEAVE                                                                                                                                                                                    DAY OFF                                                                                                                                                                                         COMMENTS                                                                                                                                                                                                                                                                                                                                                                                       Z
Y17021300                                          JX00000000435632+000065
ZJX17021407343 SLAVE 1      SALES DATA                     NEXT INVOICE NO.  112073 0608
X JX Slave 1 First invoice 112007 170213 Last invoice 112072 170213 Next invoice 112073 Total number of records 000000232 clbackup completed 07:34:41
