125502000125502               125502               170213JX     1400+00000+JX0000013438+0000013438+000000000+000001883+0000015321+0000000000+I40000015321+0000000000+Z
125502001125502039-081560     125502006003000462988C/SET 2PC STAR-CANDLE  0000001000+00001051+00000+0001T   00001402+0008170943          1400 UY3510               2AZ
125502002125502077-000467     125502006003000329991GIFT-BAG STAMP 18X23CM 0000001000+00001753+00000+0001T   00001753+0000000943          1400 UY3112               2AZ
125502003125502018-000177     125502006001023797513MUG MINI LOVE ASSTD    0000007000+00000700+00000+0001T   00000700+0000000943          1400 UY3515               2AZ
125502004125502018-000136     125502006001023659026MUG OCC LOVE W/PLUSH   0000001000+00003507+00000+0001T   00003507+0000000943          1400 UY3515               2AZ
125502005125502112-116038     125502006009681820246TCS CARRIER BAG MIDI   0000001000+00000035+00000+0001T   00000035+0000000943          1400 UY3090               2AZ
125502006125502566-000359     125502006003000582709STICKER BOOK LOVE SPARK0000001000+00002192+00000+0001T   00002192+0000000943          1400 UY3130               2AZ
125503000125503               125503               170213JX     1400+00000+JX0000013449+0000013449+000000000+000001884+0000015333+0000000000+I40000015333+0000000000+Z
125503001125503077-000386     125503006003000275489G/BAG POP UP 18x23CM   0000001000+00001578+00000+0001T   00001578+0000000945          1400 UY3112               2AZ
125503002125503106-001110     125503006001023857880SPORTS-BOTTLES SET-OF-20000001000+00003507+00000+0001T   00003507+0000000945          1400 UY3210               2AZ
125503003125503089-000100     125503006003000565665K/CHAIN PET LOVERS     0000001000+00002630+00000+0001T   00002630+0000000945          1400 UY3205               2AZ
125503004125503200-000011     125503006003000613489DISPOSABLE BAG ZIPER   0000001000+00003507+00000+0001T   00003507+0000000945          1400 UY3214               2AZ
125503005125503200-000020     125503006925406841030BAG ZIPPERSEAL 25PC    0000001000+00002192+00000+0001T   00002192+0000000945          1400 UY3214               2AZ
125503006125503112-116038     125503006009681820246TCS CARRIER BAG MIDI   0000001000+00000035+00000+0001T   00000035+0000000945          1400 UY3090               2AZ
125504000125504               125504               170213JX     1400+00000+JX0000006172+0000006172+000000000+000000865+0000007030+0000000007+I20000000000+0000007030+Z
125504001125504018-000136     125504006001023659026MUG OCC LOVE W/PLUSH   0000001000+00003507+00000+0001T   00003507+0000000946          1400 UY3515               2AZ
125504002125504112-116038     125504006009681820246TCS CARRIER BAG MIDI   0000001000+00000035+00000+0001T   00000035+0000000946          1400 UY3090               2AZ
125504003125504077-000115-B   125504006003000181025GIFT-WRAP PPR 700MMX2M 0000001000+00002630+00000+0001T   00002630+0000000946          1400 UY3112               2AZ
125505000125505               125505               170213JX     1400+00000+JX0000008364+0000008364+000000000+000001173+0000009530+0000000007+I20000000000+0000009530+Z
125505001125505072-020314     125505006003000605453PET TOY PUP VINYL CHICK0000001000+00003069+00000+0001T   00003069+0000000954          1400 UY3870               2AZ
125505002125505072-020316     125505006003000603589PET TOY PUP TUG CHEWS  0000001000+00002630+00000+0001T   00002630+0000000954          1400 UY3870               2AZ
125505003125505072-000626     125505006003000691609DOG-LEAD REFLECTIVE    0000001000+00002630+00000+0001T   00002630+0000000954          1400 UY3870               2AZ
125505004125505112-116038     125505006009681820246TCS CARRIER BAG MIDI   0000001000+00000035+00000+0001T   00000035+0000000954          1400 UY3090               2AZ
125506000125506               125506               170213JX     1400+00000+JX0000008331+0000008331+000000000+000001167+0000009498+0000000000+I40000009498+0000000000+Z
125506001125506368-000265     125506006001023750914PLUSH BEAR 23CM ASSTD C0000001000+00006139+00000+0001T   00006139+0000001002          1400 UY3745               2AZ
125506002125506080-000127     125506006003000424351VALENTINES DAY 36x24CM 0000001000+00002192+00000+0001T   00002192+0000001002          1400 UY3112               2AZ
125507000125507               125507               170213JX     1400+00000+JX0000012313+0000012313+000000000+000001725+0000014038+0000000000+I40000014038+0000000000+Z
125507001125507039-000798     125507006001023617774CANDLES TEALITE BOX-50 0000002000+00006139+00000+0001T   00006139+0000001015          1400 UY3510               2AZ
125507002125507112-116038     125507006009681820246TCS CARRIER BAG MIDI   0000001000+00000035+00000+0001T   00000035+0000001015          1400 UY3090               2AZ
125508000125508               125508               170213JX     1400+00000+JX0000002630+0000002630+000000000+000000369+0000002990+0000000009+I20000000000+0000002990+Z
125508001125508567-011352     125508006003000638048BK STICKER SPOOKY ACTIV0000001000+00002630+00000+0001T   00003507+0008141016          1400 UY3757               2AZ
125509000125509               125509               170213JX     1400+00000+JX0000011975+0000011975+000000000+000001678+0000013653+0000000000+I40000013653+0000000000+Z
125509001125509486-001003     125509006003000100798CLOCK WALL ROUND 32CM  0000001000+00010525+00000+0001T   00010525+0000001018          1400 UY3510               2AZ
125509002125509046-000011     125509004897006172994BATTERIES SIZE:AA  2PCE0000001000+00001402+00000+0001T   00001402+0000001018          1400 UY3312               2AZ
125509003125509112-116069     125509006009681820277TCS CARRIER BAG JUMBO  0000001000+00000048+00000+0001T   00000048+0000001018          1400 UY3090               2AZ
125510000125510               125510               170213JX     1400+00000+JX0000008769+0000008769+000000000+000001228+0000009990+0000000007+I20000000000+0000009990+Z
125510001125510466-002096     125510006001023800398CATCHBALL VELCRO W/BALL0000001000+00005262+00000+0001T   00005262+0000001019          1400 UY3785               2AZ
125510002125510079-011526     125510006003000408375GLITTER & SAND ART     0000001000+00003507+00000+0001T   00003507+0000001019          1400 UY3130               2AZ
125511000125511               125511               170213JX     1400+00000+JX0000002190+0000002190+000000000+000000307+0000002490+0000000007+I20000000000+0000002490+Z
125511001125511078-000025     125511008887013700064SUPERGLUE 3g 1PCE CARD 0000001000+00000876+00000+0001T   00000876+0000001023          1400 UY3810               2AZ
125511002125511078-009100     125511006008741002349ALL-CLEAR GLUE 25ml CRD0000001000+00001314+00000+0001T   00001314+0000001023          1400 UY3810               2AZ
125512000125512               125512               170213JX     1400+00000+JX0000002192+0000002192+000000000+000000307+0000002490+0000000009+I20000000000+0000002490+Z
125512001125512046-000012-A   125512006003000208296BATTERIES H/POWER SZ:AA0000001000+00002192+00000+0001T   00002192+0000001024          1400 UY3312               2AZ
125513000125513               125513               170213JX     1400+00000+JX0000002676+0000002676+000000000+000000376+0000003050+0000000002+I20000000000+0000003050+Z
125513001125513903-003080     125513005907029004673SWT SNACK STIX CHOC 50g0000001000+00000876+00000+0001T   00000876+0000001029          1400 UY3150               2AZ
125513002125513038-047246     125513006001023873750PLACEMAT 44x28cm KIDS  0000002000+00000876+00000+0001T   00000876+0000001029          1400 UY3300               2AZ
125513003125513112-116069     125513006009681820277TCS CARRIER BAG JUMBO  0000001000+00000048+00000+0001T   00000048+0000001029          1400 UY3090               2AZ
125514000125514               125514               170213JX     1400+00000+JX0000007893+0000007893+000000000+000001106+0000008999+0000000000+I40000008999+0000000000+Z
125514001125514004-071209     125514006003000604678MOBILE IN CAR HOLDER   0000001000+00007893+00000+0001T   00007893+0000001047          1400 UY3310               2AZ
125515000125515               125515               170213JX     1400+00000+JX0000001086+0000001086+000000000+000000153+0000001239+0000000000+I40000001239+0000000000+Z
125515001125515079-009702-D   125515008427973059354PAPER SIRIO A2 RED COL 0000001000+00001051+00000+0001T   00001051+0000001051          1400 UY3130               2AZ
125515002125515112-116038     125515006009681820246TCS CARRIER BAG MIDI   0000001000+00000035+00000+0001T   00000035+0000001051          1400 UY3090               2AZ
125516000125516               125516               170213JX     1400+00000+JX0000005120+0000005120+000000000+000000717+0000005830+0000000007+I20000000000+0000005830+Z
125516001125516301-085004     125516006003000420469ORN LOVE PLAQUE 21X10CM0000001000+00003507+00000+0001T   00003946+0006471053          1400 UY3505               2AZ
125516002125516077-000303     125516006001023593757GIFT-BAG PAPER MED     0000001000+00001578+00000+0001T   00001578+0000001053          1400 UY3112               2AZ
125516003125516112-116038     125516006009681820246TCS CARRIER BAG MIDI   0000001000+00000035+00000+0001T   00000035+0000001053          1400 UY3090               2AZ
125517000125517               125517               170213JX     1400+00000+JX0000003542+0000003542+000000000+000000496+0000004030+0000000008+I20000000000+0000004030+Z
125517001125517031-000864-B   125517006001023798381P/FRAME MAHOGANY 13X18 0000001000+00003507+00000+0001T   00003507+0000001057          1400 UY3510               2AZ
125517002125517112-116038     125517006009681820246TCS CARRIER BAG MIDI   0000001000+00000035+00000+0001T   00000035+0000001057          1400 UY3090               2AZ
125518000125518               125518               170213JX     1400+00000+JX0000001753+0000001753+000000000+000000246+0000001990+0000000009+I20000000000+0000001990+Z
125518001125518046-000014-A   125518004897006177708BATTERIES SIZE:AAA 8PCE0000001000+00001753+00000+0001T   00001753+0000001103          1400 UY3312               2AZ
125519000125519               125519               170213JX     1400+00000+JX0000004558+0000004558+000000000+000000639+0000005190+0000000007+I20000000000+0000005190+Z
125519001125519903-000499     125519006001704012492SWT CHOC MALLOWS 50g   0000001000+00001227+00000+0001T   00001227+0000001104          1400 UY3150               2AZ
125519002125519903-000087     125519006001704000161SWT SPECKLED-EGGS 50G  0000001000+00001139+00000+0001T   00001139+0000001104          1400 UY3150               2AZ
125519003125519018-000170     125519006001023775528MUG OCC. LOVE 2PC MINI 0000001000+00002192+00000+0001T   00002192+0000001104          1400 UY3515               2AZ
125520000125520               125520               170213JX     1400+00000+JX0000043193+0000043193+000000000+000006051+0000049240+0000000004+I20000000000+0000049240+Z
125520001125520304-001204     125520006001023737984FLOWER OCC. TEDDY/ROSES0000002000+00001402+00000+0001T   00001490+0006471112          1400 UY3510               2AZ
125520002125520039-000798     125520006001023617774CANDLES TEALITE BOX-50 0000001000+00006139+00000+0001T   00006139+0000001112          1400 UY3510               2AZ
125520003125520018-005009     125520006001023725608MUG W/PLUSH-BEAR LOVE  0000002000+00003507+00000+0001T   00003507+0000001112          1400 UY3515               2AZ
125520004125520368-000637     125520006001023874092PLUSH BEAR SLEEPING LOV0000002000+00011402+00000+0001T   00012279+0006471112          1400 UY3745               2AZ
125520005125520566-000359     125520006003000582709STICKER BOOK LOVE SPARK0000002000+00002192+00000+0001T   00002192+0000001112          1400 UY3130               2AZ
125520006125520112-116069     125520006009681820277TCS CARRIER BAG JUMBO  0000001000+00000048+00000+0001T   00000048+0000001112          1400 UY3090               2AZ
125521000125521               125521               170213JX     1400+00000+JX0000008801+0000008801+000000000+000001234+0000010035+0000000000+I40000010035+0000000000+Z
125521001125521040-000209     125521006003000673872C/HOLDER GLS CLEAR 6.5 0000003000+00000876+00000+0001T   00000876+0000001116          1400 UY3510               2AZ
125521002125521039-000794     125521006946859289958CANDLE T/LITE 3PC LED  0000001000+00004385+00000+0001T   00004385+0000001116          1400 UY3510               2AZ
125521003125521079-003012     125521006003000447893A/TUBE 75ML VIOLET     0000001000+00001753+00000+0001T   00001753+0000001116          1400 UY3130               2AZ
125521004125521112-116038     125521006009681820246TCS CARRIER BAG MIDI   0000001000+00000035+00000+0001T   00000035+0000001116          1400 UY3090               2AZ
125522000125522               125522               170213JX     1400+00000+JX0000003104+0000003104+000000000+000000435+0000003539+0000000000+I40000003539+0000000000+Z
125522001125522200-000093     125522006003000582020PICNIC BOWLS PL 15PC   0000001000+00003069+00000+0001T   00003069+0000001117          1400 UY3214               2AZ
125522002125522112-116038     125522006009681820246TCS CARRIER BAG MIDI   0000001000+00000035+00000+0001T   00000035+0000001117          1400 UY3090               2AZ
125523000125523               125523               170213JX     1400+00000+JX0000001753+0000001753+000000000+000000246+0000001990+0000000009+I20000000000+0000001990+Z
125523001125523080-000113     125523006003000237449CARD&ENVLPE - LOVE     0000001000+00001753+00000+0001T   00001753+0000001123          1400 UY3112               2AZ
125524000125524               125524               170213JX     1400+00000+JX0000002629+0000002629+000000000+000000369+0000002990+0000000008+I20000000000+0000002990+Z
125524001125524150-012228-H   125524006001023416773DOOR-STOPPERS SET-OF-2 0000001000+00001753+00000+0001T   00001753+0000001128          1400 UY3810               2AZ
125524002125524078-000025     125524008887013700064SUPERGLUE 3g 1PCE CARD 0000001000+00000876+00000+0001T   00000876+0000001128          1400 UY3810               2AZ
125525000125525               125525               170213JX     1400+00000+JX0000001752+0000001752+000000000+000000247+0000001990+0000000009+I20000000000+0000001990+Z
125525001125525031-000864-B   125525006001023798381P/FRAME MAHOGANY 13X18 0000001000-00003507+00000+0001T   00003507+0000001131          1400 UY35102IC            2 Z
125525002125525077-000309     125525006001023608604GIFT-BAG 25X32CM GLOSS 0000001000+00001753+00000+0001T   00001753+0000001131          1400 UY3112               2AZ
125525003125525031-000864-A   125525006001023798350P/FRAME MAHOGANY 10X15 0000001000+00003069+00000+0001T   00003069+0000001131          1400 UY3510               2AZ
125525004125525080-000133-A   125525006003000647019MINI VALENTINES CARD   0000001000+00000437+00000+0001T   00000437+0000001131          1400 UY3112               2AZ
125526000125526               125526               170213JX     1400+00000+JX0000009690+0000009690+000000000+000001360+0000011050+0000000000+I40000011050+0000000000+Z
125526001125526038-000205     125526006001926001205PLACE-MATS PVC ASSTD-C 0000004000+00001753+00000+0001T   00001753+0000001134          1400 UY3300               2AZ
125526002125526159-000800     125526006001023167972BATHMAT ANTI-SLIP      0000001000+00002630+00000+0001T   00002630+0000001134          1400 UY3200               2AZ
125526003125526112-116069     125526006009681820277TCS CARRIER BAG JUMBO  0000001000+00000048+00000+0001T   00000048+0000001134          1400 UY3090               2AZ
125527000125527               125527               170213JX     1400+00000+JX0000002665+0000002665+000000000+000000374+0000003030+0000000009+I20000000000+0000003030+Z
125527001125527304-000720     125527006001023843050F/BUNCH ROSE 6-HEAD AST0000001000+00002630+00000+0001T   00002630+0000001136          1400 UY3510               2AZ
125527002125527112-116038     125527006009681820246TCS CARRIER BAG MIDI   0000001000+00000035+00000+0001T   00000035+0000001136          1400 UY3090               2AZ
125528000125528               125528               170213JX     1400+00000+JX0000011838+0000011838+000000000+000001659+0000013497+0000000000+I40000013497+0000000000+Z
125528001125528077-000270     125528006003000395453GIFT-BAG PPR JMB 33X45 0000001000+00002630+00000+0001T   00002630+0000001149          1400 UY3112               2AZ
125528002125528368-000265     125528006001023750914PLUSH BEAR 23CM ASSTD C0000001000+00006139+00000+0001T   00006139+0000001149          1400 UY3745               2AZ
125528003125528030-000030-B   125528006003000249381PLAQUE GLASS MOM       0000001000+00003069+00000+0001T   00003069+0000001149          1400 UY3505               2AZ
125529000125529               125529               170213JX     1400+00000+JX0000001753+0000001753+000000000+000000246+0000001990+0000000009+I20000000000+0000001990+Z
125529001125529903-000926     125529006914204004556SWT NOVELTY ST N/LACE  0000001000+00001753+00000+0001T   00001753+0000001150          1400 UY3150               2AZ
125530000125530               125530               170213JX     1400+00000+JX0000000876+0000000876+000000000+000000123+0000000990+0000000009+I20000000000+0000000990+Z
125530001125530903-000006     125530006923431571571SWEET GS SOUR BELT 50g 0000001000+00000876+00000+0001T   00000876+0000001150          1400 UY3150               2AZ
125531000125531               125531               170213JX     1400+00000+JX0000012713+0000012713+000000000+000001781+0000014494+0000000000+I40000014494+0000000000+Z
125531001125531006-000166-D   125531006003000516490BALLOONS LRG 6PC RED   0000001000+00001314+00000+0001T   00001314+0000001156          1400 UY3131               2AZ
125531002125531077-000926     125531006003000414178G/WRAP 700mmx2m LOVE   0000002000+00002192+00000+0001T   00002192+0000001156          1400 UY3112               2AZ
125531003125531077-000011-D   125531006001023808554TISSUE-WRAP WHITE 10PCE0000001000+00000876+00000+0001T   00000876+0000001156          1400 UY3112               2AZ
125531004125531082-096630     125531006001492966304SUNGLASS LDS METAL FRAM0000001000+00006139+00000+0001T   00006139+0000001156          1400 UY3160               2AZ
125532000125532               125532               170213JX     1400+00000+JX0000000876+0000000876+000000000+000000123+0000000990+0000000009+I20000000000+0000000990+Z
125532001125532903-000006     125532006923431571571SWEET GS SOUR BELT 50g 0000001000+00000876+00000+0001T   00000876+0000001156          1400 UY3150               2AZ
125533000125533               125533               170213JX     1400+00000+JX0000010572+0000010572+000000000+000001481+0000012050+0000000003+I20000000000+0000012050+Z
125533001125533368-000665     125533006003000169016PLUSH BEAR 30cm        0000001000+00008771+00000+0001T   00008771+0000001157          1400 UY3745               2AZ
125533002125533077-000309     125533006001023608604GIFT-BAG 25X32CM GLOSS 0000001000+00001753+00000+0001T   00001753+0000001157          1400 UY3112               2AZ
125533003125533112-116069     125533006009681820277TCS CARRIER BAG JUMBO  0000001000+00000048+00000+0001T   00000048+0000001157          1400 UY3090               2AZ
125534000125534               125534               170213JX     1400+00000+JX0000001753+0000001753+000000000+000000246+0000001990+0000000009+I20000000000+0000001990+Z
125534001125534007-000724     125534006003000225958NOTE MAGNETIC 60SHTS   0000001000+00001753+00000+0001T   00001753+0000001159          1400 UY3130               2AZ
125535000125535               125535               170213JX     1400+00000+JX0000010960+0000010960+000000000+000001536+0000012496+0000000000+I40000012496+0000000000+Z
125535001125535030-000030-A   125535006003000249305PLAQUE GLASS LOVE      0000001000+00003069+00000+0001T   00003069+0000001202          1400 UY3505               2AZ
125535002125535036-000402     125535006003000572250CLOTHES DRYER WITH PEGS0000001000+00002630+00000+0001T   00002630+0000001202          1400 UY3212               2AZ
125535003125535036-000405     125535006001023630247CLOTHES DRYER PL 18-PEG0000001000+00004385+00000+0001T   00004385+0000001202          1400 UY3212               2AZ
125535004125535306-000021-A   125535006001023891358EARBUDS COTTON 100PCE  0000001000+00000876+00000+0001T   00000876+0000001202          1400 UY3200               2AZ
125536000125536               125536               170213JX     1400+00000+JX0000003944+0000003944+000000000+000000553+0000004497+0000000000+I40000004497+0000000000+Z
125536001125536031-000878-A   125536006001023798985P/FRAME 10x15cm PL-SLID0000002000+00000876+00000+0001T   00000876+0000001203          1400 UY3510               2AZ
125536002125536566-000359     125536006003000582709STICKER BOOK LOVE SPARK0000001000+00002192+00000+0001T   00002192+0000001203          1400 UY3130               2AZ
125537000125537               125537               170213JX     1400+00000+JX0000001051+0000001051+000000000+000000148+0000001190+0000000009+I20000000000+0000001190+Z
125537001125537903-002891     125537008935001721376MENTOS GUM WINTERGREEN 0000001000+00001051+00000+0001T   00001051+0000001205          1400 UY3150               2AZ
125538000125538               125538               170213JX     1400+00000+JX0000006137+0000006137+000000000+000000860+0000006990+0000000007+I20000000000+0000006990+Z
125538001125538077-000270     125538006003000395453GIFT-BAG PPR JMB 33X45 0000001000+00002630+00000+0001T   00002630+0000001216          1400 UY3112               2AZ
125538002125538018-000136     125538006001023659026MUG OCC LOVE W/PLUSH   0000001000+00003507+00000+0001T   00003507+0000001216          1400 UY3515               2AZ
125539000125539               125539               170213JX     1400+00000+JX0000004823+0000004823+000000000+000000676+0000005499+0000000000+I40000005499+0000000000+Z
125539001125539301-085001     125539006003000297610ORN WATERBALL LOVE ASST0000001000+00004823+00000+0001T   00004823+0000001220          1400 UY3505               2AZ
125540000125540               125540               170213JX     1400+00000+JX0000009207+0000009207+000000000+000001290+0000010490+0000000007+I20000000000+0000010490+Z
125540001125540072-020309     125540006001023700995DOG-TOY DUMBELL F/BALL 0000001000+00002630+00000+0001T   00002630+0000001221          1400 UY3870               2AZ
125540002125540200-000002     125540006925406821049BAG FLIP TOP 80PCE     0000001000+00002192+00000+0001T   00002192+0000001221          1400 UY3214               2AZ
125540003125540104-000135     125540006001023846419WASTEBIN SWING-LID 28cm0000001000+00004385+00000+0001T   00004385+0000001221          1400 UY3210               2AZ
125541000125541               125541               170213JX     1400+00000+JX0000010995+0000010995+000000000+000001540+0000012535+0000000000+I40000012535+0000000000+Z
125541001125541567-011905     125541006003000676200BK PROMO CLEARANCE FOOD0000001000+00003507+00000+0001T   00004385+0008141224          1400 UY3757               2AZ
125541002125541002-012268     125541006001023555526TONGS NYLON 26CM LNG   0000001000+00003946+00000+0001T   00003946+0000001224          1400 UY3300               2AZ
125541003125541002-012271     125541006001023849120TONGS 23cm RUBBER-GRIP 0000001000+00003507+00000+0001T   00003507+0000001224          1400 UY3300               2AZ
125541004125541112-116038     125541006009681820246TCS CARRIER BAG MIDI   0000001000+00000035+00000+0001T   00000035+0000001224          1400 UY3090               2AZ
125542000125542               125542               170213JX     1400+00000+JX0000002191+0000002191+000000000+000000307+0000002490+0000000008+I20000000000+0000002490+Z
125542001125542903-004960     125542008410525221842SWT GUMMY STR/BERRY 50G0000001000+00000964+00000+0001T   00000964+0000001249          1400 UY3150               2AZ
125542002125542077-000318     125542006001023609755GIFT-BAG 18X23CM E/D AN0000001000+00001227+00000+0001T   00001227+0000001249          1400 UY3112               2AZ
125543000125543               125543               170213JX     1400+00000+JX0000003507+0000003507+000000000+000000491+0000003990+0000000008+I20000000000+0000003990+Z
125543001125543079-014101     125543006001023908612ART+CRAFT SCOUBIDOUx50 0000001000+00003507+00000+0001T   00003507+0000001253          1400 UY3130               2AZ
125544000125544               125544               170213JX     1400+00000+JX0000003542+0000003542+000000000+000000496+0000004038+0000000000+I40000004038+0000000000+Z
125544001125544018-000136     125544006001023659026MUG OCC LOVE W/PLUSH   0000001000+00003507+00000+0001T   00003507+0000001302          1400 UY3515               2AZ
125544002125544112-116038     125544006009681820246TCS CARRIER BAG MIDI   0000001000+00000035+00000+0001T   00000035+0000001302          1400 UY3090               2AZ
125545000125545               125545               170213JX     1400+00000+JX0000013201+0000013201+000000000+000001849+0000015050+0000000000+I40000015050+0000000000+Z
125545001125545106-000901     125545006003000538058WATER BOTTLE 600ml     0000001000+00006139+00000+0001T   00006139+0000001304          1400 UY3210               2AZ
125545002125545106-005105     125545006003000667154WATER BOTTLE 1,6L      0000002000+00003507+00000+0001T   00003507+0000001304          1400 UY3210               2AZ
125545003125545112-116069     125545006009681820277TCS CARRIER BAG JUMBO  0000001000+00000048+00000+0001T   00000048+0000001304          1400 UY3090               2AZ
125546000125546               125546               170213JX     1400+00000+JX0000017128+0000017128+000000000+000002403+0000019531+0000000000+I40000019531+0000000000+Z
125546001125546079-000275     125546006003000160488PAINT-BRUSHES 6PCE PRO 0000001000+00001753+00000+0001T   00001753+0000001307          1400 UY3130               2AZ
125546002125546079-003012     125546006003000447893A/TUBE 75ML VIOLET     0000001000+00001753+00000+0001T   00001753+0000001307          1400 UY3130               2AZ
125546003125546079-003002     125546006003000447886A/TUBE 75ML RED        0000001000+00001753+00000+0001T   00001753+0000001307          1400 UY3130               2AZ
125546004125546079-003010     125546006003000448845A/TUBE 75ML YELLOW     0000001000+00001753+00000+0001T   00001753+0000001307          1400 UY3130               2AZ
125546005125546079-003005     125546006003000448241A/TUBE 75ML BLUE       0000001000+00001753+00000+0001T   00001753+0000001307          1400 UY3130               2AZ
125546006125546079-003003     125546006003000448005A/TUBE 75ML DARK GREEN 0000001000+00001753+00000+0001T   00001753+0000001307          1400 UY3130               2AZ
125546007125546079-003000     125546006003000448838A/TUBE 75ML WHITE      0000001000+00001753+00000+0001T   00001753+0000001307          1400 UY3130               2AZ
125546008125546079-003007     125546006003000448487A/TUBE 75ML BROWN      0000001000+00001753+00000+0001T   00001753+0000001307          1400 UY3130               2AZ
125546009125546079-013098     125546006003000197040ART+CRAFT SET DIY      0000001000+00003069+00000+0001T   00003069+0000001307          1400 UY3130               2AZ
125546010125546112-116038     125546006009681820246TCS CARRIER BAG MIDI   0000001000+00000035+00000+0001T   00000035+0000001307          1400 UY3090               2AZ
125547000125547               125547               170213JX     1400+00000+JX0000004996+0000004996+000000000+000000701+0000005690+0000000007+I20000000000+0000005690+Z
125547001125547162-096854     125547006001492968544#TAG KIDS 6PK EARING   0000001000+00002630+00000+0001T   00002630+0000001307          1400 UY3160               2AZ
125547002125547077-000011-D   125547006001023808554TISSUE-WRAP WHITE 10PCE0000001000+00000876+00000+0001T   00000876+0000001307          1400 UY3112               2AZ
125547003125547077-000384     125547006003000275243G/BAG HOT STMP 18x23CM 0000001000+00001490+00000+0001T   00001490+0000001307          1400 UY3112               2AZ
125548000125548               125548               170213JX     1400+00000+JX0000001753+0000001753+000000000+000000246+0000001990+0000000009+I20000000000+0000001990+Z
125548001125548002-000325     125548006001023844514SALAD-SERVERS 2PC CLEAR0000001000+00001753+00000+0001T   00001753+0000001311          1400 UY3300               2AZ
125549000125549               125549               170213JX     1400+00000+JX0000001578+0000001578+000000000+000000221+0000001790+0000000009+I20000000000+0000001790+Z
125549001125549080-000124     125549006003000297733CARD & ENV VALENTINES  0000001000+00001578+00000+0001T   00001578+0000001312          1400 UY3112               2AZ
125550000125550               125550               170213JX     1400+00000+JX0000004820+0000004820+000000000+000000677+0000005497+0000000000+I40000005497+0000000000+Z
125550001125550368-000152     125550006003000166886PLUSH BEAR 15cm        0000001000+00003946+00000+0001T   00005262+0008141316          1400 UY3745               2AZ
125550002125550083-000049     125550004891035200024CIG-LIGHTER DISPOSABLE 0000002000+00000437+00000+0001T   00000437+0000001316          1400 UY3315               2AZ
125551000125551               125551               170213JX     1400+00000+JX0000003507+0000003507+000000000+000000491+0000003990+0000000008+I20000000000+0000003990+Z
125551001125551031-000872-B   125551006001023798749P/FRAME PL BRONZA 13X180000001000+00003507+00000+0001T   00003507+0000001318          1400 UY3510               2AZ
125552000125552               125552               170213JX     1400+00000+JX0000010572+0000010572+000000000+000001481+0000012053+0000000000+I40000012053+0000000000+Z
125552001125552368-000665     125552006003000169016PLUSH BEAR 30cm        0000001000+00008771+00000+0001T   00008771+0000001323          1400 UY3745               2AZ
125552002125552077-000316     125552006001023609731GIFT-BAG 25X32CM MATT  0000001000+00001753+00000+0001T   00001753+0000001323          1400 UY3112               2AZ
125552003125552112-116069     125552006009681820277TCS CARRIER BAG JUMBO  0000001000+00000048+00000+0001T   00000048+0000001323          1400 UY3090               2AZ
125553000125553               125553               170213JX     1400+00000+JX0000017804+0000017804+000000000+000002493+0000020297+0000000000+I40000020297+0000000000+Z
125553001125553030-000030-A   125553006003000249305PLAQUE GLASS LOVE      0000001000+00003069+00000+0001T   00003069+0000001325          1400 UY3505               2AZ
125553002125553080-000124     125553006003000297733CARD & ENV VALENTINES  0000001000+00001578+00000+0001T   00001578+0000001325          1400 UY3112               2AZ
125553003125553031-000009     125553006003000306381P/FRAME COLLAGE HEARTS 0000001000+00013157+00000+0001T   00013157+0000001325          1400 UY3510               2AZ
125554000125554               125554               170213JX     1400+00000+JX0000012624+0000012624+000000000+000001770+0000014390+0000000004+I20000000000+0000014390+Z
125554001125554006-000805     125554000013994092418STREAMERS 10-ROLLS     0000001000+00001490+00000+0001T   00001490+0000001327          1400 UY3131               2AZ
125554002125554006-000111     125554006003000519385BALLOONS LARGE 12PCE   0000001000+00002630+00000+0001T   00002630+0000001327          1400 UY3131               2AZ
125554003125554006-000093     125554006003000539932PARTY BANNER FLAGS ASST0000002000+00001753+00000+0001T   00001753+0000001327          1400 UY3131               2AZ
125554004125554006-000190     125554006003000685530BALLOONS LOVE 81x91cm  0000001000+00004385+00000+0001T   00004385+0000001327          1400 UY3131               2AZ
125554005125554006-001000     125554006003000093779HELIUM BALLOON FILL    0000001000+00000613+00000+0001T   00000613+0000001327          1400 UY3131               2AZ
125555000125555               125555               170213JX     1400+00000+JX0000002630+0000002630+000000000+000000369+0000002999+0000000000+I40000002999+0000000000+Z
125555001125555366-000300     125555006001023902955DRESSUP TIARA FEATHER  0000001000+00002630+00000+0001T   00002630+0000001329          1400 UY3131               2AZ
125556000125556               125556               170213JX     1400+00000+JX0000003507+0000003507+000000000+000000491+0000003998+0000000000+I40000003998+0000000000+Z
125556001125556560-000300     125556006001023714879DINOSAURS 12PC         0000001000+00003507+00000+0001T   00003507+0000001331          1400 UY3745               2AZ
125557000125557               125557               170213JX     1400+00000+JX0000004294+0000004294+000000000+000000603+0000004890+0000000007+I20000000000+0000004890+Z
125557001125557019-071599     125557006001023693242PEBBLES GLS 250g BLACK 0000001000+00001753+00000+0001T   00001753+0000001332          1400 UY3510               2AZ
125557002125557079-003007     125557006003000448487A/TUBE 75ML BROWN      0000001000+00001753+00000+0001T   00001753+0000001332          1400 UY3130               2AZ
125557003125557903-000138     125557006002099004314SWT GS WINE GUMS 60G   0000001000+00000788+00000+0001T   00000788+0000001332          1400 UY3150               2AZ
125558000125558               125558               170213JX     1400+00000+JX0000007015+0000007015+000000000+000000983+0000007998+0000000000+I40000007998+0000000000+Z
125558001125558565-000040     125558006008766115635NOVELTY ICON BEANIE    0000001000+00002630+00000+0001T   00002630+0000001333          1400 UY3745               2AZ
125558002125558403-000033     125558006003000674053JEWELLERY HOLDER MTL   0000001000+00004385+00000+0001T   00004385+0000001333          1400 UY3510               2AZ
125559000125559               125559               170213JX     1400+00000+JX0000003067+0000003067+000000000+000000430+0000003497+0000000000+I40000003497+0000000000+Z
125559001125559903-005000     125559006002580020007SWT CT MALLOW FISH 120g0000001000+00001314+00000+0001T   00001314+0000001335          1400 UY3150               2AZ
125559002125559006-000120     125559006001023346889BALLOONS 10PC MIX COL  0000001000+00001753+00000+0001T   00001753+0000001335          1400 UY3131               2AZ
125560000125560               125560               170213JX     1400+00000+JX0000003506+0000003506+000000000+000000492+0000003998+0000000000+I40000003998+0000000000+Z
125560001125560200-003024     125560006001023657299REFUSE BAGS 20PCE BLACK0000002000+00001753+00000+0001T   00001753+0000001342          1400 UY3214               2AZ
125561000125561               125561               170213JX     1400+00000+JX0000000613+0000000613+000000000+000000086+0000000690+0000000009+I20000000000+0000000690+Z
125561001125561077-000311     125561006001023608666GIFT-BAG 11X14CM GLOSS 0000001000+00000613+00000+0001T   00000613+0000001345          1400 UY3112               2AZ
125562000125562               125562               170213JX     1400+00000+JX0000000700+0000000700+000000000+000000098+0000000790+0000000008+I20000000000+0000000790+Z
125562001125562033-010721     125562006001023678669SAFETY-PINS 20PCE ASSTD0000001000+00000700+00000+0001T   00000700+0000001357          1400 UY3200               2AZ
125563000125563               125563               170213JX     1400+00000+JX0000010521+0000010521+000000000+000001473+0000011994+0000000000+I40000011994+0000000000+Z
125563001125563018-000136     125563006001023659026MUG OCC LOVE W/PLUSH   0000003000+00003507+00000+0001T   00003507+0000001401          1400 UY3515               2AZ
125564000125564               125564               170213JX     1400+00000+JX0000000035+0000000035+000000000+000000005+0000000040+0000000000+I20000000000+0000000040+Z
125564001125564112-116038     125564006009681820246TCS CARRIER BAG MIDI   0000001000+00000035+00000+0001T   00000035+0000001402          1400 UY3090               2AZ
125565000125565               125565               170213JX     1400+00000+JX0000001928+0000001928+000000000+000000270+0000002190+0000000008+I20000000000+0000002190+Z
125565001125565903-000843     125565008693029031067SWT GUMMY JELAXY 80G   0000002000+00000964+00000+0001T   00000964+0000001402          1400 UY3150               2AZ
125566000125566               125566               170213JX     1400+00000+JX0000006174+0000006174+000000000+000000865+0000007030+0000000009+I20000000000+0000007030+Z
125566001125566018-050000     125566006003000412679MUG OCC LOVE TWIN BEAR 0000001000+00006139+00000+0001T   00006139+0000001405          1400 UY3515               2AZ
125566002125566112-116038     125566006009681820246TCS CARRIER BAG MIDI   0000001000+00000035+00000+0001T   00000035+0000001405          1400 UY3090               2AZ
125567000125567               125567               170213JX     1400+00000+JX0000007664+0000007664+000000000+000001074+0000008730+0000000008+I20000000000+0000008730+Z
125567001125567018-050000     125567006003000412679MUG OCC LOVE TWIN BEAR 0000001000+00006139+00000+0001T   00006139+0000001410          1400 UY3515               2AZ
125567002125567077-000299     125567006003000395576G/BAG 32x25cm LRG LOVE 0000001000+00001490+00000+0001T   00001490+0000001410          1400 UY3112               2AZ
125567003125567112-116038     125567006009681820246TCS CARRIER BAG MIDI   0000001000+00000035+00000+0001T   00000035+0000001410          1400 UY3090               2AZ
125568000125568               125568               170213JX     1400+00000+JX0000007048+0000007048+000000000+000000988+0000008030+0000000006+I20000000000+0000008030+Z
125568001125568105-001000     125568006003000520275CONTAINER:CEREAL TO GO 0000001000+00003507+00000+0001T   00004823+0008161411          1400 UY3210               2AZ
125568002125568133-000034     125568006001023559586OVEN GLOVE & POTHOLDER 0000001000+00002630+00000+0001T   00002630+0000001411          1400 UY3212               2AZ
125568003125568903-000861     125568005010478430822SWT LOVE HEARTS SML    0000001000+00000876+00000+0001T   00000876+0000001411          1400 UY3150               2AZ
125568004125568112-116038     125568006009681820246TCS CARRIER BAG MIDI   0000001000+00000035+00000+0001T   00000035+0000001411          1400 UY3090               2AZ
125569000125569               125569               170213JX     1400+00000+JX0000008111+0000008111+000000000+000001138+0000009249+0000000000+I40000009249+0000000000+Z
125569001125569036-000063     125569006009654960436COATHANGERS VIRGIN 5PCE0000002000+00001753+00000+0001T   00001753+0000001414          1400 UY3212               2AZ
125569002125569077-000305     125569006003000395422GIFT-BAG WINE 10X35CM  0000001000+00001490+00000+0001T   00001490+0000001414          1400 UY3112               2AZ
125569003125569903-000087     125569006001704000161SWT SPECKLED-EGGS 50G  0000001000+00001139+00000+0001T   00001139+0000001414          1400 UY3150               2AZ
125569004125569105-001078     125569000700371637750CONTAINER 1,1L CLIP LOC0000001000+00001928+00000+0001T   00001928+0000001414          1400 UY3210               2AZ
125569005125569112-116069     125569006009681820277TCS CARRIER BAG JUMBO  0000001000+00000048+00000+0001T   00000048+0000001414          1400 UY3090               2AZ
125570000125570               125570               170213JX     1400+00000+JX0000005557+0000005557+000000000+000000779+0000006330+0000000006+I20000000000+0000006330+Z
125570001125570018-000136     125570006001023659026MUG OCC LOVE W/PLUSH   0000001000+00003507+00000+0001T   00003507+0000001416          1400 UY3515               2AZ
125570002125570080-000133-A   125570006003000647019MINI VALENTINES CARD   0000001000+00000437+00000+0001T   00000437+0000001416          1400 UY3112               2AZ
125570003125570077-000315     125570006003000181186GIFT-BAG 20x28cm MATT  0000001000+00001578+00000+0001T   00001578+0000001416          1400 UY3112               2AZ
125570004125570112-116038     125570006009681820246TCS CARRIER BAG MIDI   0000001000+00000035+00000+0001T   00000035+0000001416          1400 UY3090               2AZ
125571000125571               125571               170213JX     1400+00000+JX0000014957+0000014957+000000000+000002095+0000017050+0000000002+I20000000000+0000017050+Z
125571001125571004-071214     125571006003000464340COMPUTER TABLET STAND  0000001000+00004385+00000+0001T   00004385+0000001417          1400 UY3310               2AZ
125571002125571368-000001     125571006003000097982Plush Bear 25cm        0000001000+00004385+00000+0001T   00004385+0000001417          1400 UY3745               2AZ
125571003125571368-000265     125571006001023750914PLUSH BEAR 23CM ASSTD C0000001000+00006139+00000+0001T   00006139+0000001417          1400 UY3745               2AZ
125571004125571112-116069     125571006009681820277TCS CARRIER BAG JUMBO  0000001000+00000048+00000+0001T   00000048+0000001417          1400 UY3090               2AZ
125572000125572               125572               170213JX     1400+00000+JX0000000700+0000000700+000000000+000000098+0000000790+0000000008+I20000000000+0000000790+Z
125572001125572564-000012     125572006001023130075BUBBLE BOTTLE MAGIC    0000001000+00000700+00000+0001T   00000700+0000001419          1400 UY3131               2AZ
125573000125573               125573               170213JX     1400+00000+JX0000002630+0000002630+000000000+000000369+0000002990+0000000009+I20000000000+0000002990+Z
125573001125573077-000270     125573006003000395453GIFT-BAG PPR JMB 33X45 0000001000+00002630+00000+0001T   00002630+0000001422          1400 UY3112               2AZ
125574000125574               125574               170213JX     1400+00000+JX0000000048+0000000048+000000000+000000007+0000000050+0000000005+I20000000000+0000000050+Z
125574001125574112-116069     125574006009681820277TCS CARRIER BAG JUMBO  0000001000+00000048+00000+0001T   00000048+0000001423          1400 UY3090               2AZ
125575000125575               125575               170213JX     1400+00000+JX0000007049+0000007049+000000000+000000987+0000008036+0000000000+I40000008036+0000000000+Z
125575001125575560-000189     125575006003000592357ANIMALS SNAKE 78cm     0000002000+00003507+00000+0001T   00003507+0000001427          1400 UY3745               2AZ
125575002125575112-116038     125575006009681820246TCS CARRIER BAG MIDI   0000001000+00000035+00000+0001T   00000035+0000001427          1400 UY3090               2AZ
125576000125576               125576               170213JX     1400+00000+JX0000011839+0000011839+000000000+000001658+0000013490+0000000007+I20000000000+0000013490+Z
125576001125576564-009019     125576006001023498519BUBBLE TOY GUN         0000002000+00004385+00000+0001T   00004385+0000001428          1400 UY3131               2AZ
125576002125576365-003056     125576006009635021453KIDDIES WOODEN BROOM   0000001000+00003069+00000+0001T   00003069+0000001428          1400 UY3725               2AZ
125577000125577               125577               170213JX     1400+00000+JX0000012221+0000012221+000000000+000001714+0000013935+0000000000+I40000013935+0000000000+Z
125577001125577077-000900     125577006003000410446G/WRAP 700mmx1m ANIMAL 0000001000+00001753+00000+0001T   00001753+0000001432          1400 UY3112               2AZ
125577002125577903-000087     125577006001704000161SWT SPECKLED-EGGS 50G  0000001000+00001139+00000+0001T   00001139+0000001432          1400 UY3150               2AZ
125577003125577365-000072     125577006003000012664PLAY-SET PL B/O MICROPH0000001000+00002630+00000+0001T   00003507+0008191432          1400 UY3725               2AZ
125577004125577366-002811     125577006003000615650DRESS UP ACCESS RIBBON 0000001000+00005262+00000+0001T   00005262+0000001432          1400 UY3131               2AZ
125577005125577046-000011     125577004897006172994BATTERIES SIZE:AA  2PCE0000001000+00001402+00000+0001T   00001402+0000001432          1400 UY3312               2AZ
125577006125577112-116038     125577006009681820246TCS CARRIER BAG MIDI   0000001000+00000035+00000+0001T   00000035+0000001432          1400 UY3090               2AZ
125578000125578               125578               170213JX     1400+00000+JX0000002190+0000002190+000000000+000000308+0000002490+0000000008+I20000000000+0000002490+Z
125578001125578077-000900     125578006003000410446G/WRAP 700mmx1m ANIMAL 0000001000+00001753+00000+0001T   00001753+0000001433          1400 UY3112               2AZ
125578002125578080-000133     125578006003000535613CARD&ENV MINI ASTD DSGN0000001000+00000437+00000+0001T   00000437+0000001433          1400 UY3112               2AZ
125579000125579               125579               170213JX     1400+00000+JX0000000700+0000000700+000000000+000000098+0000000790+0000000008+I20000000000+0000000790+Z
125579001125579018-000177     125579006001023797513MUG MINI LOVE ASSTD    0000001000+00000700+00000+0001T   00000700+0000001439          1400 UY3515               2AZ
125580000125580               125580               170213JX     1400+00000+JX0000002192+0000002192+000000000+000000307+0000002490+0000000009+I20000000000+0000002490+Z
125580001125580369-001010     125580006001023864222BATH VINYL DUCK 4PC    0000001000+00002192+00000+0001T   00002192+0000001440          1400 UY3745               2AZ
125581000125581               125581               170213JX     1400+00000+JX0000007926+0000007926+000000000+000001111+0000009037+0000000000+I40000009037+0000000000+Z
125581001125581037-050016     125581006001023674128ASHTRAY 9CM RND CLUB   0000002000+00001753+00000+0001T   00001753+0000001447          1400 UY3515               2AZ
125581002125581031-080508     125581006001023802415P/FRAME PL 22X11CM LOVE0000001000+00004385+00000+0001T   00004385+0000001447          1400 UY3510               2AZ
125581003125581112-116038     125581006009681820246TCS CARRIER BAG MIDI   0000001000+00000035+00000+0001T   00000035+0000001447          1400 UY3090               2AZ
125582000125582               125582               170213JX     1400+00000+JX0000003542+0000003542+000000000+000000496+0000004030+0000000008+I20000000000+0000004030+Z
125582001125582018-005009     125582006001023725608MUG W/PLUSH-BEAR LOVE  0000001000+00003507+00000+0001T   00003507+0000001447          1400 UY3515               2AZ
125582002125582112-116038     125582006009681820246TCS CARRIER BAG MIDI   0000001000+00000035+00000+0001T   00000035+0000001447          1400 UY3090               2AZ
125583000125583               125583               170213JX     1400+00000+JX0000007453+0000007453+000000000+000001044+0000008490+0000000007+I20000000000+0000008490+Z
125583001125583018-000170     125583006001023775528MUG OCC. LOVE 2PC MINI 0000001000+00002192+00000+0001T   00002192+0000001451          1400 UY3515               2AZ
125583002125583079-000358     125583006003000591046ART+CRAFT FELT-TIP PENS0000001000+00003069+00000+0001T   00003069+0000001451          1400 UY3130               2AZ
125583003125583566-000359     125583006003000582709STICKER BOOK LOVE SPARK0000001000+00002192+00000+0001T   00002192+0000001451          1400 UY3130               2AZ
125584000125584               125584               170213JX     1400+00000+JX0000012747+0000012747+000000000+000001788+0000014535+0000000000+I40000014535+0000000000+Z
125584001125584089-060027     125584006003000245871KEY-CHAIN HEART 6X6cm  0000001000+00003069+00000+0001T   00003069+0000001454          1400 UY3205               2AZ
125584002125584162-010779     125584006001492107790#TAG LDS ALICEBAND     0000001000+00002630+00000+0001T   00002630+0000001454          1400 UY3160               2AZ
125584003125584162-096646     125584006001492966465#TAG HOT DEALS KIDS HR 0000001000+00002630+00000+0001T   00002630+0000001454          1400 UY3160               2AZ
125584004125584082-092844     125584006001492928449#TAG SPECTACLE POUCH   0000001000+00002630+00000+0001T   00002630+0000001454          1400 UY3160               2AZ
125584005125584903-000926     125584006914204004556SWT NOVELTY ST N/LACE  0000001000+00001753+00000+0001T   00001753+0000001454          1400 UY3150               2AZ
125584006125584112-116038     125584006009681820246TCS CARRIER BAG MIDI   0000001000+00000035+00000+0001T   00000035+0000001454          1400 UY3090               2AZ
125585000125585               125585               170213JX     1400+00000+JX0000004120+0000004120+000000000+000000578+0000004690+0000000008+I20000000000+0000004690+Z
125585001125585018-000129     125585006001023403353MUG OCC. LOVE V-SHAPE  0000001000+00002630+00000+0001T   00002630+0000001455          1400 UY3515               2AZ
125585002125585150-001222     125585006001023495334PLATE-STAND TRANSPARENT0000001000+00001490+00000+0001T   00001490+0000001455          1400 UY3810               2AZ
125586000125586               125586               170213JX     1400+00000+JX0000001750+0000001750+000000000+000000246+0000001990+0000000006+I20000000000+0000001990+Z
125586001125586006-000167-C   125586006003000516971BALLOONS PINK METALLIC 0000001000+00001314+00000+0001T   00001314+0000001457          1400 UY3131               2AZ
125586002125586006-000171-A   125586006003000608935BALLOONS 1PC PINK PRNT 0000002000+00000218+00000+0001T   00000218+0000001457          1400 UY3131               2AZ
125587000125587               125587               170213JX     1400+00000+JX0000003946+0000003946+000000000+000000553+0000004499+0000000000+I40000004499+0000000000+Z
125587001125587368-000152     125587006003000166886PLUSH BEAR 15cm        0000001000+00003946+00000+0001T   00005262+0008141459          1400 UY3745               2AZ
125588000125588               125588               170213JX     1400+00000+JX0000001663+0000001663+000000000+000000234+0000001897+0000000000+I40000001897+0000000000+Z
125588001125588079-009702-F   125588008427973059392PAPER SIRIO A2 GREEN   0000001000+00001051+00000+0001T   00001051+0000001503          1400 UY3130               2AZ
125588002125588079-009700-C   125588006003000545636PAPER SIRIO A4 VIOLET  0000002000+00000306+00000+0001T   00000306+0000001503          1400 UY3130               2AZ
125589000125589               125589               170213JX     1400+00000+JX0000005208+0000005208+000000000+000000730+0000005930+0000000008+I20000000000+0000005930+Z
125589001125589077-000010-C   125589006001023123879CREPE-PAPER RED        0000001000+00000788+00000+0001T   00000788+0000001505          1400 UY3112               2AZ
125589002125589103-000460     125589006003000630240BAMBOO FLOWER BASKET   0000001000+00004385+00000+0001T   00004385+0000001505          1400 UY3300               2AZ
125589003125589112-116038     125589006009681820246TCS CARRIER BAG MIDI   0000001000+00000035+00000+0001T   00000035+0000001505          1400 UY3090               2AZ
125590000125590               125590               170213JX     1400+00000+JX0000000876+0000000876+000000000+000000123+0000000990+0000000009+I20000000000+0000000990+Z
125590001125590078-000025     125590008887013700064SUPERGLUE 3g 1PCE CARD 0000001000+00000876+00000+0001T   00000876+0000001514          1400 UY3810               2AZ
125591000125591               125591               170213JX     1400+00000+JX0000005260+0000005260+000000000+000000738+0000005990+0000000008+I20000000000+0000005990+Z
125591001125591206-000220     125591006003000631704EGG TIMER COLOUR-CHANGE0000002000+00002630+00000+0001T   00002630+0000001517          1400 UY3321               2AZ
125592000125592               125592               170213JX     1400+00000+JX0000004734+0000004734+000000000+000000663+0000005390+0000000007+I20000000000+0000005390+Z
125592001125592079-000289     125592006001023493217PAINT WTR COL CAKE 6COL0000003000+00001578+00000+0001T   00001578+0000001538          1400 UY3130               2AZ
125593000125593               125593               170213JX     1400+00000+JX0000016739+0000016739+000000000+000002348+0000019087+0000000000+I40000019087+0000000000+Z
125593001125593903-000885     125593008690997017147SWT L/BIRD CHOC BISCUIT0000004000+00000437+00000+0001T   00000437+0000001541          1400 UY3150               2AZ
125593002125593020-000209     125593006001023899989KNIFE-SET 8PC W/CUTTING0000001000+00003507+00000+0001T   00004385+0008121541          1400 UY3300               2AZ
125593003125593024-000031     125593006003000295760MIXING BOWL PL W/HANDLE0000001000+00003069+00000+0001T   00003069+0000001541          1400 UY3300               2AZ
125593004125593018-000177     125593006001023797513MUG MINI LOVE ASSTD    0000002000+00000700+00000+0001T   00000700+0000001541          1400 UY3515               2AZ
125593005125593046-000014-A   125593004897006177708BATTERIES SIZE:AAA 8PCE0000001000+00001753+00000+0001T   00001753+0000001541          1400 UY3312               2AZ
125593006125593002-009894     125593006001023796646CUTTING-BOARD 30x40cm  0000001000+00005262+00000+0001T   00005262+0000001541          1400 UY3300               2AZ
125594000125594               125594               170213JX     1400+00000+JX0000003507+0000003507+000000000+000000491+0000003990+0000000008+I20000000000+0000003990+Z
125594001125594366-000301     125594006003000421077DRESSUP TIARA & EARRING0000001000+00003507+00000+0001T   00003507+0000001541          1400 UY3131               2AZ
125595000125595               125595               170213JX     1400+00000+JX0000002192+0000002192+000000000+000000307+0000002490+0000000009+I20000000000+0000002490+Z
125595001125595563-000318-L   125595006003000407088SERVIETTES 33cm RED    0000001000+00002192+00000+0001T   00002192+0000001543          1400 UY3214               2AZ
125596000125596               125596               170213JX     1400+00000+JX0000005610+0000005610+000000000+000000787+0000006397+0000000000+I40000006397+0000000000+Z
125596001125596006-000111     125596006003000519385BALLOONS LARGE 12PCE   0000001000+00002630+00000+0001T   00002630+0000001550          1400 UY3131               2AZ
125596002125596006-000120     125596006001023346889BALLOONS 10PC MIX COL  0000001000+00001753+00000+0001T   00001753+0000001550          1400 UY3131               2AZ
125596003125596903-000510     125596006001704012621SWEET MS ZBDZ S/BERRY  0000001000+00001227+00000+0001T   00001227+0000001550          1400 UY3150               2AZ
125597000125597               125597               170213JX     1400+00000+JX0000006698+0000006698+000000000+000000938+0000007636+0000000000+I40000007636+0000000000+Z
125597001125597077-000303     125597006001023593757GIFT-BAG PAPER MED     0000002000+00001578+00000+0001T   00001578+0000001552          1400 UY3112               2AZ
125597002125597018-000136     125597006001023659026MUG OCC LOVE W/PLUSH   0000001000+00003507+00000+0001T   00003507+0000001552          1400 UY3515               2AZ
125597003125597112-116038     125597006009681820246TCS CARRIER BAG MIDI   0000001000+00000035+00000+0001T   00000035+0000001552          1400 UY3090               2AZ
125598000125598               125598               170213JX     1400+00000+JX0000008364+0000008364+000000000+000001172+0000009536+0000000000+I40000009536+0000000000+Z
125598001125598018-005009     125598006001023725608MUG W/PLUSH-BEAR LOVE  0000001000+00003507+00000+0001T   00003507+0000001554          1400 UY3515               2AZ
125598002125598565-000040     125598006008766115635NOVELTY ICON BEANIE    0000001000+00002630+00000+0001T   00002630+0000001554          1400 UY3745               2AZ
125598003125598080-000127     125598006003000424351VALENTINES DAY 36x24CM 0000001000+00002192+00000+0001T   00002192+0000001554          1400 UY3112               2AZ
125598004125598112-116038     125598006009681820246TCS CARRIER BAG MIDI   0000001000+00000035+00000+0001T   00000035+0000001554          1400 UY3090               2AZ
125599000125599               125599               170213JX     1400+00000+JX0000004768+0000004768+000000000+000000668+0000005436+0000000000+I40000005436+0000000000+Z
125599001125599077-000245     125599006001023759214GIFT-RIBBON METALLICx2 0000001000+00001227+00000+0001T   00001227+0000001600          1400 UY3112               2AZ
125599002125599563-000317-B   125599006001023776174SERVIETTES PLN WHT PK400000001000+00001314+00000+0001T   00001314+0000001600          1400 UY3214               2AZ
125599003125599112-116038     125599006009681820246TCS CARRIER BAG MIDI   0000001000+00000035+00000+0001T   00000035+0000001600          1400 UY3090               2AZ
125599004125599563-000318-L   125599006003000407088SERVIETTES 33cm RED    0000001000+00002192+00000+0001T   00002192+0000001600          1400 UY3214               2AZ
125600000125600               125600               170213JX     1400+00000+JX0000004822+0000004822+000000000+000000676+0000005498+0000000000+I40000005498+0000000000+Z
125600001125600077-000512     125600006003000590223GIFT-BAG DESIGNER LRG  0000001000+00002630+00000+0001T   00002630+0000001603          1400 UY3112               2AZ
125600002125600077-000509     125600006003000082582GIFT-BAG SML 6PCE ORG P0000001000+00002192+00000+0001T   00002192+0000001603          1400 UY3112               2AZ
125601000125601               125601               170213JX     1400+00000+JX0000001490+0000001490+000000000+000000209+0000001690+0000000009+I20000000000+0000001690+Z
125601001125601077-000304     125601006001023483232GIFT-BAG 25X32CM E/DAY 0000001000+00001490+00000+0001T   00001490+0000001604          1400 UY3112               2AZ
125602000125602               125602               170213JX     1400+00000+JX0000012314+0000012314+000000000+000001725+0000014030+0000000009+I20000000000+0000014030+Z
125602001125602368-000111     125602006001023780812PLUSH BEAR/DOG 29CM    0000001000+00012279+00000+0001T   00012279+0000001604          1400 UY3745               2AZ
125602002125602112-116038     125602006009681820246TCS CARRIER BAG MIDI   0000001000+00000035+00000+0001T   00000035+0000001604          1400 UY3090               2AZ
125603000125603               125603               170213JX     1400+00000+JX0000007049+0000007049+000000000+000000987+0000008030+0000000006+I20000000000+0000008030+Z
125603001125603301-085004     125603006003000420469ORN LOVE PLAQUE 21X10CM0000002000+00003507+00000+0001T   00003946+0006471606          1400 UY3505               2AZ
125603002125603112-116038     125603006009681820246TCS CARRIER BAG MIDI   0000001000+00000035+00000+0001T   00000035+0000001606          1400 UY3090               2AZ
125604000125604               125604               170213JX     1400+00000+JX0000009417+0000009417+000000000+000001319+0000010736+0000000000+I40000010736+0000000000+Z
125604001125604039-000108     125604006001023524034TEA-LITE CANDLES 8PCE  0000001000+00001490+00000+0001T   00001490+0000001610          1400 UY3510               2AZ
125604002125604039-080944     125604006001023758897C/PILLAR RND WHT 12X7CM0000001000+00004385+00000+0001T   00004385+0000001610          1400 UY3510               2AZ
125604003125604039-080942     125604006001023669872C/PILLAR RND WHT 10X7CM0000001000+00003507+00000+0001T   00003507+0000001610          1400 UY3510               2AZ
125604004125604112-116038     125604006009681820246TCS CARRIER BAG MIDI   0000001000+00000035+00000+0001T   00000035+0000001610          1400 UY3090               2AZ
125605000125605               125605               170213JX     1400+00000+JX0000004032+0000004032+000000000+000000566+0000004590+0000000008+I20000000000+0000004590+Z
125605001125605566-000310     125605006003000522453STICKER LABEL ASSTD    0000001000+00001402+00000+0001T   00001402+0000001610          1400 UY3130               2AZ
125605002125605079-006525     125605006003000681938MASKING FABRIC 10PC    0000001000+00002630+00000+0001T   00002630+0000001610          1400 UY3130               2AZ
125606000125606               125606               170213JX     1400+00000+JX0000002366+0000002366+000000000+000000332+0000002690+0000000008+I20000000000+0000002690+Z
125606001125606077-000011-D   125606006001023808554TISSUE-WRAP WHITE 10PCE0000001000+00000876+00000+0001T   00000876+0000001611          1400 UY3112               2AZ
125606002125606077-000327     125606006001023677686GIFT-BAG 25X32CM E/D BA0000001000+00001490+00000+0001T   00001490+0000001611          1400 UY3112               2AZ
125607000125607               125607               170213JX     1400+00000+JX0000002630+0000002630+000000000+000000369+0000002990+0000000009+I20000000000+0000002990+Z
125607001125607048-000865     125607006003000371433TORCH KEY CHAIN 5LED   0000001000+00002630+00000+0001T   00002630+0000001613          1400 UY3305               2AZ
125608000125608               125608               170213JX     1400+00000+JX0000003945+0000003945+000000000+000000553+0000004490+0000000008+I20000000000+0000004490+Z
125608001125608033-005907     125608006003000433506SHOE LACES 4-PAIR SET  0000001000+00002192+00000+0001T   00002192+0000001619          1400 UY3200               2AZ
125608002125608077-000289     125608006001023901996GIFT BOX 20x25x11cm    0000001000+00001753+00000+0001T   00001753+0000001619          1400 UY3112               2AZ
125609000125609               125609               170213JX     1400+00000+JX0000013197+0000013197+000000000+000001851+0000015048+0000000000+I40000015048+0000000000+Z
125609001125609903-000211     125609006002099001238SWT GS MALLOW ICE CREAM0000003000+00001753+00000+0001T   00001753+0000001623          1400 UY3150               2AZ
125609002125609048-000865     125609006003000371433TORCH KEY CHAIN 5LED   0000001000+00002630+00000+0001T   00002630+0000001623          1400 UY3305               2AZ
125609003125609031-005853     125609006003000442416P/FRAME WDN TWIN HEARTS0000001000+00003507+00000+0001T   00003507+0000001623          1400 UY3510               2AZ
125609004125609077-000299-A   125609006003000670888GIFT-BAG PAPER JMB LOVE0000001000+00001753+00000+0001T   00001753+0000001623          1400 UY3112               2AZ
125609005125609112-116069     125609006009681820277TCS CARRIER BAG JUMBO  0000001000+00000048+00000+0001T   00000048+0000001623          1400 UY3090               2AZ
125610000125610               125610               170213JX     1400+00000+JX0000006185+0000006185+000000000+000000867+0000007050+0000000002+I20000000000+0000007050+Z
125610001125610080-000127     125610006003000424351VALENTINES DAY 36x24CM 0000002000+00002192+00000+0001T   00002192+0000001624          1400 UY3112               2AZ
125610002125610018-000139     125610006003000547227MUG S/WARE SLANTED SHPE0000001000+00001753+00000+0001T   00002630+0008171624          1400 UY3515               2AZ
125610003125610112-116069     125610006009681820277TCS CARRIER BAG JUMBO  0000001000+00000048+00000+0001T   00000048+0000001624          1400 UY3090               2AZ
125611000125611               125611               170213JX     1400+00000+JX0000000700+0000000700+000000000+000000098+0000000790+0000000008+I20000000000+0000000790+Z
125611001125611018-000177     125611006001023797513MUG MINI LOVE ASSTD    0000001000+00000700+00000+0001T   00000700+0000001626          1400 UY3515               2AZ
125612000125612               125612               170213JX     1400+00000+JX0000006485+0000006485+000000000+000000909+0000007394+0000000000+I40000007394+0000000000+Z
125612001125612564-000012     125612006001023130075BUBBLE BOTTLE MAGIC    0000001000+00000700+00000+0001T   00000700+0000001628          1400 UY3131               2AZ
125612002125612077-000299     125612006003000395576G/BAG 32x25cm LRG LOVE 0000001000+00001490+00000+0001T   00001490+0000001628          1400 UY3112               2AZ
125612003125612018-000136     125612006001023659026MUG OCC LOVE W/PLUSH   0000001000+00003507+00000+0001T   00003507+0000001628          1400 UY3515               2AZ
125612004125612903-000200     125612006009826020234SWT CHOC RP CHOCO 23G  0000001000+00000788+00000+0001T   00000788+0000001628          1400 UY3150               2AZ
125613000125613               125613               170213JX     1400+00000+JX0000000700+0000000700+000000000+000000098+0000000790+0000000008+I20000000000+0000000790+Z
125613001125613018-000177     125613006001023797513MUG MINI LOVE ASSTD    0000001000+00000700+00000+0001T   00000700+0000001629          1400 UY3515               2AZ
125614000125614               125614               170213JX     1400+00000+JX0000002630+0000002630+000000000+000000369+0000002999+0000000000+I40000002999+0000000000+Z
125614001125614077-000512     125614006003000590223GIFT-BAG DESIGNER LRG  0000001000+00002630+00000+0001T   00002630+0000001634          1400 UY3112               2AZ
125615000125615               125615               170213JX     1400+00000+JX0000006609+0000006609+000000000+000000926+0000007535+0000000000+I40000007535+0000000000+Z
125615001125615018-000130     125615006001023867537MUG OCC LOVE MINI+HEART0000001000+00003507+00000+0001T   00003507+0000001636          1400 UY3515               2AZ
125615002125615034-078800     125615006001023856555COOEY WET-WIPES 60PCE  0000001000+00001753+00000+0001T   00001753+0000001636          1400 UY3215               2AZ
125615003125615903-000844     125615005010478432567SWT CANDY DL LUV HEARTS0000001000+00001314+00000+0001T   00001314+0000001636          1400 UY31501IC            2AZ
125615004125615112-116038     125615006009681820246TCS CARRIER BAG MIDI   0000001000+00000035+00000+0001T   00000035+0000001636          1400 UY3090               2AZ
125616000125616               125616               170213JX     1400+00000+JX0000013200+0000013200+000000000+000001850+0000015050+0000000000+I20000000000+0000015050+Z
125616001125616080-000127     125616006003000424351VALENTINES DAY 36x24CM 0000001000+00002192+00000+0001T   00002192+0000001638          1400 UY3112               2AZ
125616002125616001-091415     125616006003000329113W/GLS OCC. LOVE 2PC 2800000001000+00008771+00000+0001T   00009648+0006471638          1400 UY3515               2AZ
125616003125616077-000457     125616006003000285662G/BAG METALLIC JMB SOL 0000001000+00001753+00000+0001T   00001753+0000001638          1400 UY3112               2AZ
125616004125616112-116069     125616006009681820277TCS CARRIER BAG JUMBO  0000001000+00000048+00000+0001T   00000048+0000001638          1400 UY3090               2AZ
125616005125616006-000172-H   125616006003000610211BALLOONS METALLIC RED  0000002000+00000218+00000+0001T   00000218+0000001638          1400 UY3131               2AZ
125617000125617               125617               170213JX     1400+00000+JX0000002630+0000002630+000000000+000000369+0000002990+0000000009+I20000000000+0000002990+Z
125617001125617200-000114     125617006003000621545PICNIC CUPS PAPER 90ml 0000001000+00002630+00000+0001T   00002630+0000001638          1400 UY3214               2AZ
125618000125618               125618               170213JX     1400+00000+JX0000001753+0000001753+000000000+000000246+0000001990+0000000009+I20000000000+0000001990+Z
125618001125618027-000022     125618006003000666072SCRUBBING BRUSH 17cm   0000001000+00001753+00000+0001T   00001753+0000001639          1400 UY3212               2AZ
125619000125619               125619               170213JX     1400+00000+JX0000004243+0000004243+000000000+000000595+0000004830+0000000008+I20000000000+0000004830+Z
125619001125619077-000303     125619006001023593757GIFT-BAG PAPER MED     0000001000+00001578+00000+0001T   00001578+0000001642          1400 UY3112               2AZ
125619002125619018-000129     125619006001023403353MUG OCC. LOVE V-SHAPE  0000001000+00002630+00000+0001T   00002630+0000001642          1400 UY3515               2AZ
125619003125619112-116038     125619006009681820246TCS CARRIER BAG MIDI   0000001000+00000035+00000+0001T   00000035+0000001642          1400 UY3090               2AZ
125620000125620               125620               170213JX     1400+00000+JX0000008188+0000008188+000000000+000001147+0000009330+0000000005+I20000000000+0000009330+Z
125620001125620065-000239     125620006001023400956DRUM "BUM BUM BAND"19cm0000001000+00003507+00000+0001T   00003507+0000001644          1400 UY3745               2AZ
125620002125620133-000017     125620006003000525171CLEANING-CLOTHS 5PCE   0000001000+00003507+00000+0001T   00003507+0000001644          1400 UY3212               2AZ
125620003125620046-000014     125620006001023725387BATTERIES SIZE:AAA 4PCE0000001000+00001139+00000+0001T   00001139+0000001644          1400 UY3312               2AZ
125620004125620112-116038     125620006009681820246TCS CARRIER BAG MIDI   0000001000+00000035+00000+0001T   00000035+0000001644          1400 UY3090               2AZ
125621000125621               125621               170213JX     1400+00000+JX0000002630+0000002630+000000000+000000369+0000002990+0000000009+I20000000000+0000002990+Z
125621001125621089-000191     125621006003000430185KEY CHAIN BEAR 10CM    0000001000+00002630+00000+0001T   00002630+0000001646          1400 UY3205               2AZ
125622000125622               125622               170213JX     1400+00000+JX0000021927+0000021927+000000000+000003071+0000024998+0000000000+I40000024998+0000000000+Z
125622001125622368-000175     125622006003000270316PLUSH BEAR 4 ASSTD 18CM0000001000+00006139+00000+0001T   00006139+0000001651          1400 UY3745               2AZ
125622002125622301-001123     125622000694202803967ORN FOUNTAIN MEDITATION0000001000+00015788+00000+0001T   00015788+0000001651          1400 UY3505               2AZ
125623000125623               125623               170213JX     1400+00000+JX0000000876+0000000876+000000000+000000123+0000000990+0000000009+I20000000000+0000000990+Z
125623001125623077-000302     125623008010410010195GIFT-BAG 18X23CM E/D   0000001000+00000876+00000+0001T   00000876+0000001652          1400 UY3112               2AZ
125624000125624               125624               170213JX     1400+00000+JX0000014077+0000014077+000000000+000001974+0000016051+0000000000+I40000016051+0000000000+Z
125624001125624006-000800     125624006001023902801HAT CABARET 14x18cm    0000001000+00001753+00000+0001T   00001753+0000001655          1400 UY3131               2AZ
125624002125624301-085007     125624006003000673698ORN OCC. LOVE S/PLAQUE 0000001000+00007893+00000+0001T   00007893+0000001655          1400 UY3505               2AZ
125624003125624077-000289     125624006001023901996GIFT BOX 20x25x11cm    0000001000+00001753+00000+0001T   00001753+0000001655          1400 UY3112               2AZ
125624004125624304-000720     125624006001023843050F/BUNCH ROSE 6-HEAD AST0000001000+00002630+00000+0001T   00002630+0000001655          1400 UY3510               2AZ
125624005125624112-116069     125624006009681820277TCS CARRIER BAG JUMBO  0000001000+00000048+00000+0001T   00000048+0000001655          1400 UY3090               2AZ
125625000125625               125625               170213JX     1400+00000+JX0000022358+0000022358+000000000+000003134+0000025492+0000000000+I40000025492+0000000000+Z
125625001125625903-000123     125625006925925909280SWEET GS MINI MALLOWS  0000001000+00000876+00000+0001T   00000876+0000001657          1400 UY3150               2AZ
125625002125625072-020312     125625006003000605330PET TOY PUP STARTER PCK0000001000+00002630+00000+0001T   00002630+0000001657          1400 UY3870               2AZ
125625003125625072-020298     125625006003000561629DOG-TOY TUG-ROPE ASSTD 0000001000+00003069+00000+0001T   00003069+0000001657          1400 UY3870               2AZ
125625004125625072-000232     125625006003000236060DOG-COL REFLCTV 35-51cm0000001000+00001753+00000+0001T   00001753+0000001657          1400 UY3870               2AZ
125625005125625072-000626     125625006003000691609DOG-LEAD REFLECTIVE    0000001000+00002630+00000+0001T   00002630+0000001657          1400 UY3870               2AZ
125625006125625072-000606     125625006001023858566DOG-COLLAR+LEAD        0000002000+00004385+00000+0001T   00004385+0000001657          1400 UY3870               2AZ
125625007125625072-000626     125625006003000691609DOG-LEAD REFLECTIVE    0000001000+00002630+00000+0001T   00002630+0000001657          1400 UY3870               2AZ
125626000125626               125626               170213JX     1400+00000+JX0000016574+0000016574+000000000+000002321+0000018895+0000000000+I40000018895+0000000000+Z
125626001125626080-000127     125626006003000424351VALENTINES DAY 36x24CM 0000001000+00002192+00000+0001T   00002192+0000001702          1400 UY3112               2AZ
125626002125626006-000190     125626006003000685530BALLOONS LOVE 81x91cm  0000001000+00004385+00000+0001T   00004385+0000001702          1400 UY3131               2AZ
125626003125626006-000100     125626006003000301775BALLOONS W/BOMB+CATAPUL0000001000+00001314+00000+0001T   00001314+0000001702          1400 UY3131               2AZ
125626004125626006-001000     125626006003000093779HELIUM BALLOON FILL    0000002000+00000613+00000+0001T   00000613+0000001702          1400 UY3131               2AZ
125626005125626001-091415     125626006003000329113W/GLS OCC. LOVE 2PC 2800000001000+00008771+00000+0001T   00009648+0006471702          1400 UY3515               2AZ
125626006125626006-000100     125626006003000301775BALLOONS W/BOMB+CATAPUL0000001000-00001314+00000+0001T   00001314+0000001702          1400 UY31311IC            2 Z
125627000125627               125627               170213JX     1400+00000+JX0000005032+0000005032+000000000+000000705+0000005730+0000000007+I20000000000+0000005730+Z
125627001125627018-000130     125627006001023867537MUG OCC LOVE MINI+HEART0000001000+00003507+00000+0001T   00003507+0000001705          1400 UY3515               2AZ
125627002125627112-116038     125627006009681820246TCS CARRIER BAG MIDI   0000001000+00000035+00000+0001T   00000035+0000001705          1400 UY3090               2AZ
125627003125627077-000452     125627006003000284986G/BAG METALLIC MED EMB 0000001000+00001490+00000+0001T   00001490+0000001705          1400 UY3112               2AZ
125628000125628               125628               170213JX     1400+00000+JX0000001311+0000001311+000000000+000000186+0000001497+0000000000+I40000001497+0000000000+Z
125628001125628080-000133-A   125628006003000647019MINI VALENTINES CARD   0000003000+00000437+00000+0001T   00000437+0000001707          1400 UY3112               2AZ
125629000125629               125629               170213JX     1400+00000+JX0000004819+0000004819+000000000+000000676+0000005495+0000000000+I40000005495+0000000000+Z
125629001125629077-000011-D   125629006001023808554TISSUE-WRAP WHITE 10PCE0000001000+00000876+00000+0001T   00000876+0000001710          1400 UY3112               2AZ
125629002125629103-000472     125629006003000631049FLOWER BASKET W/HANDLE 0000001000+00003507+00000+0001T   00003507+0000001710          1400 UY3300               2AZ
125629003125629006-000172-K   125629006003000610334BALLOONS METALLIC PURPL0000002000+00000218+00000+0001T   00000218+0000001710          1400 UY3131               2AZ
125630000125630               125630               170213JX     1400+00000+JX0000001753+0000001753+000000000+000000246+0000001990+0000000009+I20000000000+0000001990+Z
125630001125630466-008889     125630006001023835376WHISTLE SPORTS+STRING  0000001000+00001753+00000+0001T   00001753+0000001710          1400 UY3785               2AZ
125631000125631               125631               170213JX     1400+00000+JX0000003507+0000003507+000000000+000000491+0000003990+0000000008+I20000000000+0000003990+Z
125631001125631031-000856     125631006001023852113P/FRAME PL BROWN 10X15 0000001000+00003507+00000+0001T   00003507+0000001712          1400 UY3510               2AZ
125632000125632               125632               170213JX     1400+00000+JX0000002192+0000002192+000000000+000000307+0000002490+0000000009+I20000000000+0000002490+Z
125632001125632024-000033     125632006003000420278MEASURING JUG 1L H/H   0000001000+00002192+00000+0001T   00002192+0000001714          1400 UY3300               2AZ
125633000125633               125633               170213JX     1400+00000+JX0000024850+0000024850+000000000+000003481+0000028331+0000000000+I40000028331+0000000000+Z
125633001125633089-000200     125633006003000485840KEY CHAIN POLY LOVE IS 0000001000+00003507+00000+0001T   00004385+0008121716          1400 UY3205               2AZ
125633002125633030-000031-A   125633006003000457588PLAQUE W/WORDS ASSTD   0000002000+00004385+00000+0001T   00004823+0006471716          1400 UY3505               2AZ
125633003125633903-000087     125633006001704000161SWT SPECKLED-EGGS 50G  0000001000+00001139+00000+0001T   00001139+0000001716          1400 UY3150               2AZ
125633004125633903-000220     125633006001704007368SWT JELLY BEANS 60G    0000001000+00000876+00000+0001T   00000876+0000001716          1400 UY3150               2AZ
125633005125633016-006545     125633006003000579877S/JAR GLS COUNTER 2SIDE0000001000+00008771+00000+0001T   00008771+0000001716          1400 UY3300               2AZ
125633006125633903-000861     125633005010478430822SWT LOVE HEARTS SML    0000001000+00000876+00000+0001T   00000876+0000001716          1400 UY3150               2AZ
125633007125633112-116038     125633006009681820246TCS CARRIER BAG MIDI   0000001000+00000035+00000+0001T   00000035+0000001716          1400 UY3090               2AZ
125633008125633903-000295     125633006001704002899SWT MS FRUITY RASCALS  0000001000+00000876+00000+0001T   00000876+0000001716          1400 UY3150               2AZ
125634000125634               125634               170213JX     1400+00000+JX0000018496+0000018496+000000000+000002593+0000021080+0000000009+I20000000000+0000021080+Z
125634001125634039-000108     125634006001023524034TEA-LITE CANDLES 8PCE  0000003000+00001490+00000+0001T   00001490+0000001718          1400 UY3510               2AZ
125634002125634015-000110     125634006001023854889WHITEWARE MUG 350ML    0000001000+00002192+00000+0001T   00002192+0000001718          1400 UY3515               2AZ
125634003125634016-006505     125634006001023617576S/JAR GLS MINI CLIP    0000003000+00001490+00000+0001T   00001490+0000001718          1400 UY3300               2AZ
125634004125634304-000720     125634006001023843050F/BUNCH ROSE 6-HEAD AST0000001000+00002630+00000+0001T   00002630+0000001718          1400 UY3510               2AZ
125634005125634019-000225     125634006001023764706VASE GLASS W/ROPE 19CM 0000001000+00003507+00000+0001T   00003507+0000001718          1400 UY3510               2AZ
125634006125634077-000245     125634006001023759214GIFT-RIBBON METALLICx2 0000001000+00001227+00000+0001T   00001227+0000001718          1400 UY3112               2AZ
125635000125635               125635               170213JX     1400+00000+JX0000006172+0000006172+000000000+000000865+0000007030+0000000007+I20000000000+0000007030+Z
125635001125635077-000291     125635006003000541874GIFT-BOX LOVE 12PCE    0000001000+00001753+00000+0001T   00001753+0000001719          1400 UY3112               2AZ
125635002125635563-000318-L   125635006003000407088SERVIETTES 33cm RED    0000001000+00002192+00000+0001T   00002192+0000001719          1400 UY3214               2AZ
125635003125635206-000100     125635006003000628063TONGS ICE COLD FINGERS 0000001000+00002192+00000+0001T   00002192+0000001719          1400 UY3321               2AZ
125635004125635112-116038     125635006009681820246TCS CARRIER BAG MIDI   0000001000+00000035+00000+0001T   00000035+0000001719          1400 UY3090               2AZ
125636000125636               125636               170213JX     1400+00000+JX0000007663+0000007663+000000000+000001074+0000008737+0000000000+I40000008737+0000000000+Z
125636001125636039-000108     125636006001023524034TEA-LITE CANDLES 8PCE  0000001000+00001490+00000+0001T   00001490+0000001721          1400 UY3510               2AZ
125636002125636039-000114     125636006001023524058CANDLE T/LITE RED 3.5CM0000001000+00001753+00000+0001T   00001753+0000001721          1400 UY3510               2AZ
125636003125636039-000796     125636006001023617750CANDLES TEALITE BOX-8  0000001000+00004385+00000+0001T   00004385+0000001721          1400 UY3510               2AZ
125636004125636112-116038     125636006009681820246TCS CARRIER BAG MIDI   0000001000+00000035+00000+0001T   00000035+0000001721          1400 UY3090               2AZ
125637000125637               125637               170213JX     1400+00000+JX0000001182+0000001182+000000000+000000166+0000001340+0000000008+I20000000000+0000001340+Z
125637001125637566-000200     125637006003000384174STICKER PUFFY NEON     0000001000+00000876+00000+0001T   00000876+0000001722          1400 UY3130               2AZ
125637002125637079-009700-D   125637006003000545711PAPER SIRIO A4 RED COL.0000001000+00000306+00000+0001T   00000306+0000001722          1400 UY3130               2AZ
125638000125638               125638               170213JX     1400+00000+JX0000008416+0000008416+000000000+000001180+0000009596+0000000000+I40000009596+0000000000+Z
125638001125638903-000095     125638006001704011495SWT SPECKLED-EGGS 100G 0000004000+00002104+00000+0001T   00002104+0000001723          1400 UY3150               2AZ
125639000125639               125639               170213JX     1400+00000+JX0000007541+0000007541+000000000+000001057+0000008598+0000000000+I40000008598+0000000000+Z
125639001125639368-000265     125639006001023750914PLUSH BEAR 23CM ASSTD C0000001000+00006139+00000+0001T   00006139+0000001725          1400 UY3745               2AZ
125639002125639304-001204     125639006001023737984FLOWER OCC. TEDDY/ROSES0000001000+00001402+00000+0001T   00001490+0006471725          1400 UY3510               2AZ
125640000125640               125640               170213JX     1400+00000+JX0000001753+0000001753+000000000+000000246+0000001990+0000000009+I20000000000+0000001990+Z
125640001125640142-000814     125640006001023183910GLOVES RUBBER  MEDIUM  0000001000+00001753+00000+0001T   00001753+0000001726          1400 UY3810               2AZ
125641000125641               125641               170213JX     1400+00000+JX0000000035+0000000035+000000000+000000005+0000000040+0000000000+I20000000000+0000000040+Z
125641001125641112-116038     125641006009681820246TCS CARRIER BAG MIDI   0000001000+00000035+00000+0001T   00000035+0000001727          1400 UY3090               2AZ
125642000125642               125642               170213JX     1400+00000+JX0000001753+0000001753+000000000+000000246+0000001990+0000000009+I20000000000+0000001990+Z
125642001125642077-000299-A   125642006003000670888GIFT-BAG PAPER JMB LOVE0000001000+00001753+00000+0001T   00001753+0000001728          1400 UY3112               2AZ
125643000125643               125643               170213JX     1400+00000+JX0000004646+0000004646+000000000+000000651+0000005290+0000000007+I20000000000+0000005290+Z
125643001125643903-000841     125643009243178623706SWT CANDY TIPSEE FRUIT 0000001000+00000876+00000+0001T   00000876+0000001732          1400 UY3150               2AZ
125643002125643077-000303     125643006001023593757GIFT-BAG PAPER MED     0000001000+00001578+00000+0001T   00001578+0000001732          1400 UY3112               2AZ
125643003125643080-000127     125643006003000424351VALENTINES DAY 36x24CM 0000001000+00002192+00000+0001T   00002192+0000001732          1400 UY3112               2AZ
125644000125644               125644               170213JX     1400+00000+JX0000016168+0000016168+000000000+000002264+0000018432+0000000000+I40000018432+0000000000+Z
125644001125644018-000177     125644006001023797513MUG MINI LOVE ASSTD    0000003000+00000700+00000+0001T   00000700+0000001736          1400 UY3515               2AZ
125644002125644004-071202     125644006003000459025USB MULTIPLE CHARGER   0000001000+00005262+00000+0001T   00005262+0000001736          1400 UY3310               2AZ
125644003125644001-091415     125644006003000329113W/GLS OCC. LOVE 2PC 2800000001000+00008771+00000+0001T   00009648+0006471736          1400 UY3515               2AZ
125644004125644112-116038     125644006009681820246TCS CARRIER BAG MIDI   0000001000+00000035+00000+0001T   00000035+0000001736          1400 UY3090               2AZ
125645000125645               125645               170213JX     1400+00000+JX0000006257+0000006257+000000000+000000878+0000007135+0000000000+I40000007135+0000000000+Z
125645001125645080-000133     125645006003000535613CARD&ENV MINI ASTD DSGN0000001000+00000437+00000+0001T   00000437+0000001738          1400 UY3112               2AZ
125645002125645560-000101     125645006001023548740ANIMALS OCEAN-IN-TUBE  0000001000+00003507+00000+0001T   00003507+0000001738          1400 UY3745               2AZ
125645003125645112-116038     125645006009681820246TCS CARRIER BAG MIDI   0000001000+00000035+00000+0001T   00000035+0000001738          1400 UY3090               2AZ
125645004125645565-000071     125645006003000643387NOVELTY WIND UP CHATTER0000002000+00001139+00000+0001T   00001139+0000001738          1400 UY3745               2AZ
125646000125646               125646               170213JX     1400+00000+JX0000001752+0000001752+000000000+000000246+0000001990+0000000008+I20000000000+0000001990+Z
125646001125646903-000848     125646008692806080076SWT SNACK BISCUIT 70g  0000001000+00000613+00000+0001T   00000613+0000001738          1400 UY3150               2AZ
125646002125646162-097715     125646006001492977157#TAG NEW COLOUR E/PIERC0000001000+00001139+00000+0001T   00001139+0000001738          1400 UY3160               2AZ
125647000125647               125647               170213JX     1400+00000+JX0000001753+0000001753+000000000+000000246+0000001990+0000000009+I20000000000+0000001990+Z
125647001125647077-000299-A   125647006003000670888GIFT-BAG PAPER JMB LOVE0000001000+00001753+00000+0001T   00001753+0000001739          1400 UY3112               2AZ
125648000125648               125648               170213JX     1400+00000+JX0000006136+0000006136+000000000+000000861+0000006990+0000000007+I20000000000+0000006990+Z
125648001125648903-000482     125648006001704001397SWT SOFT-MINTS 60G     0000001000+00000876+00000+0001T   00000876+0000001741          1400 UY3150               2AZ
125648002125648159-000020     125648006001023905543HAIR DRYING MICROFIBRE 0000002000+00002630+00000+0001T   00002630+0000001741          1400 UY3200               2AZ
125649000125649               125649               170213JX     1400+00000+JX0000005643+0000005643+000000000+000000792+0000006435+0000000000+I40000006435+0000000000+Z
125649001125649077-000011-D   125649006001023808554TISSUE-WRAP WHITE 10PCE0000001000+00000876+00000+0001T   00000876+0000001743          1400 UY3112               2AZ
125649002125649077-000316     125649006001023609731GIFT-BAG 25X32CM MATT  0000001000+00001753+00000+0001T   00001753+0000001743          1400 UY3112               2AZ
125649003125649903-000006     125649006923431571571SWEET GS SOUR BELT 50g 0000002000+00000876+00000+0001T   00000876+0000001743          1400 UY3150               2AZ
125649004125649903-000518     125649006001704012782SWT STRAWS S/BERRY 100g0000001000+00001227+00000+0001T   00001227+0000001743          1400 UY3150               2AZ
125649005125649112-116038     125649006009681820246TCS CARRIER BAG MIDI   0000001000+00000035+00000+0001T   00000035+0000001743          1400 UY3090               2AZ
125650000125650               125650               170213JX     1400+00000+JX0000003507+0000003507+000000000+000000491+0000003998+0000000000+I40000003998+0000000000+Z
125650001125650018-000130     125650006001023867537MUG OCC LOVE MINI+HEART0000001000+00003507+00000+0001T   00003507+0000001745          1400 UY3515               2AZ
125651000125651               125651               170213JX     1400+00000+JX0000018768+0000018768+000000000+000002629+0000021397+0000000000+I40000021397+0000000000+Z
125651001125651031-000868-D   125651006003000580330P/FRAME PL BLCK CERT.  0000001000+00004385+00000+0001T   00004385+0000001748          1400 UY3510               2AZ
125651002125651903-000095     125651006001704011495SWT SPECKLED-EGGS 100G 0000001000+00002104+00000+0001T   00002104+0000001748          1400 UY3150               2AZ
125651003125651368-000111     125651006001023780812PLUSH BEAR/DOG 29CM    0000001000+00012279+00000+0001T   00012279+0000001748          1400 UY3745               2AZ
125652000125652               125652               170213JX     1400+00000+JX0000000876+0000000876+000000000+000000123+0000000990+0000000009+I20000000000+0000000990+Z
125652001125652903-000123     125652006925925909280SWEET GS MINI MALLOWS  0000001000+00000876+00000+0001T   00000876+0000001749          1400 UY3150               2AZ
125653000125653               125653               170213JX     1400+00000+JX0000005700+0000005700+000000000+000000798+0000006498+0000000000+I40000006498+0000000000+Z
125653001125653075-000412     125653006001023855299SHOPPER-BASKET PL      0000001000+00005700+00000+0001T   00005700+0000001751          1400 UY3160               2AZ
125654000125654               125654               170213JX     1400+00000+JX0000006139+0000006139+000000000+000000860+0000006999+0000000000+I40000006999+0000000000+Z
125654001125654368-000265     125654006001023750914PLUSH BEAR 23CM ASSTD C0000001000+00006139+00000+0001T   00006139+0000001753          1400 UY3745               2AZ
125655000125655               125655               170213JX     1400+00000+JX0000000700+0000000700+000000000+000000098+0000000790+0000000008+I20000000000+0000000790+Z
125655001125655018-000177     125655006001023797513MUG MINI LOVE ASSTD    0000001000+00000700+00000+0001T   00000700+0000001758          1400 UY3515               2AZ
125656000125656               125656               170213JX     1400+00000+JX0000003330+0000003330+000000000+000000467+0000003797+0000000000+I40000003797+0000000000+Z
125656001125656018-000129     125656006001023403353MUG OCC. LOVE V-SHAPE  0000001000+00002630+00000+0001T   00002630+0000001759          1400 UY3515               2AZ
125656002125656018-000177     125656006001023797513MUG MINI LOVE ASSTD    0000001000+00000700+00000+0001T   00000700+0000001759          1400 UY3515               2AZ
A17021300                                          09283205JXSLAVE 2                       1IC1IC
B12561500                                          170213JX903-000844     16352356SLAVE 2     UY31IC0000002000+0000001000+0000000000000+
M17021391                              CASH        JXSLAVE 2                       Z-REPORT No.   616TOTAL (Sales - Refunds)          11162.64       CASH TO BE BANKED                 4589.50       DEBIT CARDS                          0.00       CREDIT CARDS                      6575.44       Z-READING                        11162.64       AIRTIME DEBIT CARD SALES             0.00       AIRTIME CARD SALES                   0.00       OVERS/UNDERS                         2.30       AIRTIME CASH SALES                   0.00       GIFT CARDS                           0.00       GIFT CARD CASH SALES                 0.00       T O T A L  CASH PAYOUTS              0.00                                                                                                                                                                                                                                                                                                                                                      Z
M17021392                              CASH        JXABSENT                                                                                                                                                                                          ANNUAL LEAVE                                                                                                                                                                                    DAY OFF                                                                                                                                                                                         COMMENTS                                                                                                                                                                                                                                                                                                                                                                                       Z
Y17021300                                          JX00000000984456+000155
ZJX17021407343 SLAVE 2      SALES DATA                     NEXT INVOICE NO.  125657 0616
X JX Slave 2 First invoice 125502 170213 Last invoice 125656 170213 Next invoice 125657 Total number of records 000000547 clbackup completed 07:34:44
