140590000140590               140590               170213JX     1400+00000+JX0000002630+0000002630+000000000+000000369+0000002999+           I90000000000+0000000000+Z
140590001140590468-000604     140590006003000336623EASTER FOILED BUNNY 1500000001000+00002630+00000+0001T023569770000                    1400 2IC1102ICV             Z
M17021391                              CASH        JXSLAVE 4                       Z-REPORT No.   444TOTAL (Sales - Refunds)              0.00       CASH TO BE BANKED                    0.00       DEBIT CARDS                          0.00       CREDIT CARDS                         0.00       Z-READING                            0.00       AIRTIME DEBIT CARD SALES             0.00       AIRTIME CARD SALES                   0.00       OVERS/UNDERS                         0.00       AIRTIME CASH SALES                   0.00       GIFT CARDS                           0.00       GIFT CARD CASH SALES                 0.00       T O T A L  CASH PAYOUTS              0.00                                                                                                                                                                                                                                                                                                                                                      Z
M17021392                              CASH        JXABSENT                                                                                                                                                                                          ANNUAL LEAVE                                                                                                                                                                                    DAY OFF                                                                                                                                                                                         COMMENTS                                                                                                                                                                                                                                                                                                                                                                                       Z
Y17021300                                          JX00000000000000+000000
ZJX17021407343 SLAVE 4      SALES DATA                     NEXT INVOICE NO.  140591 0444
L55624600356152-001-001       JX1702131551542ICMARIA LEDWABA                                                                                                                                                                                                                                                                                                                                                                                                                                                                                                                                                                                                                                                                                                                                                                                                                                                                                                                                                                                        Z
L55629700358108-001-004       JX1702131557432ICMARIA LEDWABA                                                                                                                                                                                                                                                                                                                                                                                                                                                                                                                                                                                                                                                                                                                                                                                                                                                                                                                                                                                        Z
L55629700358108-002-004       JX1702131557552ICMARIA LEDWABA                                                                                                                                                                                                                                                                                                                                                                                                                                                                                                                                                                                                                                                                                                                                                                                                                                                                                                                                                                                        Z
L55629700358108-003-004       JX1702131557502ICMARIA LEDWABA                                                                                                                                                                                                                                                                                                                                                                                                                                                                                                                                                                                                                                                                                                                                                                                                                                                                                                                                                                                        Z
L55629700358108-004-004       JX1702131558312ICMARIA LEDWABA                                                                                                                                                                                                                                                                                                                                                                                                                                                                                                                                                                                                                                                                                                                                                                                                                                                                                                                                                                                        Z
L55631400356212-001-003       JX1702131549002ICMARIA LEDWABA                                                                                                                                                                                                                                                                                                                                                                                                                                                                                                                                                                                                                                                                                                                                                                                                                                                                                                                                                                                        Z
L55631400356212-002-003       JX1702131549052ICMARIA LEDWABA                                                                                                                                                                                                                                                                                                                                                                                                                                                                                                                                                                                                                                                                                                                                                                                                                                                                                                                                                                                        Z
L55631400356212-003-003       JX1702131548522ICMARIA LEDWABA                                                                                                                                                                                                                                                                                                                                                                                                                                                                                                                                                                                                                                                                                                                                                                                                                                                                                                                                                                                        Z
L55670100357114-001-002       JX1702131559212ICMARIA LEDWABA                                                                                                                                                                                                                                                                                                                                                                                                                                                                                                                                                                                                                                                                                                                                                                                                                                                                                                                                                                                        Z
L55670100357114-002-002       JX1702131559322ICMARIA LEDWABA                                                                                                                                                                                                                                                                                                                                                                                                                                                                                                                                                                                                                                                                                                                                                                                                                                                                                                                                                                                        Z
L55671200352045-001-003       JX1702131549322ICMARIA LEDWABA                                                                                                                                                                                                                                                                                                                                                                                                                                                                                                                                                                                                                                                                                                                                                                                                                                                                                                                                                                                        Z
L55671200352045-002-003       JX1702131549362ICMARIA LEDWABA                                                                                                                                                                                                                                                                                                                                                                                                                                                                                                                                                                                                                                                                                                                                                                                                                                                                                                                                                                                        Z
L55671200352045-003-003       JX1702131549422ICMARIA LEDWABA                                                                                                                                                                                                                                                                                                                                                                                                                                                                                                                                                                                                                                                                                                                                                                                                                                                                                                                                                                                        Z
L55672300356997-001-001       JX1702131551302ICMARIA LEDWABA                                                                                                                                                                                                                                                                                                                                                                                                                                                                                                                                                                                                                                                                                                                                                                                                                                                                                                                                                                                        Z
L56244900353909-001-002       JX1702131608562ICMARIA LEDWABA                                                                                                                                                                                                                                                                                                                                                                                                                                                                                                                                                                                                                                                                                                                                                                                                                                                                                                                                                                                        Z
L56244900353909-002-002       JX1702131554162ICMARIA LEDWABA                                                                                                                                                                                                                                                                                                                                                                                                                                                                                                                                                                                                                                                                                                                                                                                                                                                                                                                                                                                        Z
L56361100357464-001-001       JX1702131552422ICMARIA LEDWABA                                                                                                                                                                                                                                                                                                                                                                                                                                                                                                                                                                                                                                                                                                                                                                                                                                                                                                                                                                                        Z
L57403900353861-001-004       JX1702131601302ICMARIA LEDWABA                                                                                                                                                                                                                                                                                                                                                                                                                                                                                                                                                                                                                                                                                                                                                                                                                                                                                                                                                                                        Z
L57403900353861-002-004       JX1702131600542ICMARIA LEDWABA                                                                                                                                                                                                                                                                                                                                                                                                                                                                                                                                                                                                                                                                                                                                                                                                                                                                                                                                                                                        Z
L57403900353861-003-004       JX1702131601022ICMARIA LEDWABA                                                                                                                                                                                                                                                                                                                                                                                                                                                                                                                                                                                                                                                                                                                                                                                                                                                                                                                                                                                        Z
L57403900353861-004-004       JX1702131600422ICMARIA LEDWABA                                                                                                                                                                                                                                                                                                                                                                                                                                                                                                                                                                                                                                                                                                                                                                                                                                                                                                                                                                                        Z
L57747400356778-001-001       JX1702131552182ICMARIA LEDWABA                                                                                                                                                                                                                                                                                                                                                                                                                                                                                                                                                                                                                                                                                                                                                                                                                                                                                                                                                                                        Z
L57768800353226-001-003       JX1702131548242ICMARIA LEDWABA                                                                                                                                                                                                                                                                                                                                                                                                                                                                                                                                                                                                                                                                                                                                                                                                                                                                                                                                                                                        Z
L57768800353226-002-003       JX1702131548202ICMARIA LEDWABA                                                                                                                                                                                                                                                                                                                                                                                                                                                                                                                                                                                                                                                                                                                                                                                                                                                                                                                                                                                        Z
L57768800353226-003-003       JX1702131548042ICMARIA LEDWABA                                                                                                                                                                                                                                                                                                                                                                                                                                                                                                                                                                                                                                                                                                                                                                                                                                                                                                                                                                                        Z
L58229500356775-001-003       JX1702131550202ICMARIA LEDWABA                                                                                                                                                                                                                                                                                                                                                                                                                                                                                                                                                                                                                                                                                                                                                                                                                                                                                                                                                                                        Z
L58229500356775-002-003       JX1702131550122ICMARIA LEDWABA                                                                                                                                                                                                                                                                                                                                                                                                                                                                                                                                                                                                                                                                                                                                                                                                                                                                                                                                                                                        Z
L58229500356775-003-003       JX1702131550162ICMARIA LEDWABA                                                                                                                                                                                                                                                                                                                                                                                                                                                                                                                                                                                                                                                                                                                                                                                                                                                                                                                                                                                        Z
L58240200355977-001-002       JX1702131556502ICMARIA LEDWABA                                                                                                                                                                                                                                                                                                                                                                                                                                                                                                                                                                                                                                                                                                                                                                                                                                                                                                                                                                                        Z
L58240200355977-002-002       JX1702131557182ICMARIA LEDWABA                                                                                                                                                                                                                                                                                                                                                                                                                                                                                                                                                                                                                                                                                                                                                                                                                                                                                                                                                                                        Z
L58321000358663-001-004       JX1702131603572ICMARIA LEDWABA                                                                                                                                                                                                                                                                                                                                                                                                                                                                                                                                                                                                                                                                                                                                                                                                                                                                                                                                                                                        Z
L58321000358663-002-004       JX1702131603492ICMARIA LEDWABA                                                                                                                                                                                                                                                                                                                                                                                                                                                                                                                                                                                                                                                                                                                                                                                                                                                                                                                                                                                        Z
L58321000358663-003-004       JX1702131603392ICMARIA LEDWABA                                                                                                                                                                                                                                                                                                                                                                                                                                                                                                                                                                                                                                                                                                                                                                                                                                                                                                                                                                                        Z
L58321000358663-004-004       JX1702131604392ICMARIA LEDWABA                                                                                                                                                                                                                                                                                                                                                                                                                                                                                                                                                                                                                                                                                                                                                                                                                                                                                                                                                                                        Z
L58390600354450-001-001       JX1702131551072ICMARIA LEDWABA                                                                                                                                                                                                                                                                                                                                                                                                                                                                                                                                                                                                                                                                                                                                                                                                                                                                                                                                                                                        Z
L58400800353720-001-001       JX1702131550432ICMARIA LEDWABA                                                                                                                                                                                                                                                                                                                                                                                                                                                                                                                                                                                                                                                                                                                                                                                                                                                                                                                                                                                        Z
L58647100356977-001-019       JX1702110905172ICMARIA LEDWABA                                                                                                                                                                                                                                                                                                                                                                                                                                                                                                                                                                                                                                                                                                                                                                                                                                                                                                                                                                                        Z
L58647100356977-002-019       JX1702110914421ICZAMANI NOZIPHWO                                                                                                                                                                                                                                                                                                                                                                                                                                                                                                                                                                                                                                                                                                                                                                                                                                                                                                                                                                                      Z
L58647100356977-003-019       JX1702110904392ICMARIA LEDWABA                                                                                                                                                                                                                                                                                                                                                                                                                                                                                                                                                                                                                                                                                                                                                                                                                                                                                                                                                                                        Z
L58647100356977-004-019       JX1702110914301ICZAMANI NOZIPHWO                                                                                                                                                                                                                                                                                                                                                                                                                                                                                                                                                                                                                                                                                                                                                                                                                                                                                                                                                                                      Z
L58647100356977-005-019       JX1702110914561ICZAMANI NOZIPHWO                                                                                                                                                                                                                                                                                                                                                                                                                                                                                                                                                                                                                                                                                                                                                                                                                                                                                                                                                                                      Z
L58647100356977-006-019       JX1702110915091ICZAMANI NOZIPHWO                                                                                                                                                                                                                                                                                                                                                                                                                                                                                                                                                                                                                                                                                                                                                                                                                                                                                                                                                                                      Z
L58647100356977-007-019       JX1702110915131ICZAMANI NOZIPHWO                                                                                                                                                                                                                                                                                                                                                                                                                                                                                                                                                                                                                                                                                                                                                                                                                                                                                                                                                                                      Z
L58647100356977-008-019       JX1702110915111ICZAMANI NOZIPHWO                                                                                                                                                                                                                                                                                                                                                                                                                                                                                                                                                                                                                                                                                                                                                                                                                                                                                                                                                                                      Z
L58647100356977-009-019       JX1702110904352ICMARIA LEDWABA                                                                                                                                                                                                                                                                                                                                                                                                                                                                                                                                                                                                                                                                                                                                                                                                                                                                                                                                                                                        Z
L58647100356977-010-019       JX1702110917401ICZAMANI NOZIPHWO                                                                                                                                                                                                                                                                                                                                                                                                                                                                                                                                                                                                                                                                                                                                                                                                                                                                                                                                                                                      Z
L58647100356977-011-019       JX1702110915101ICZAMANI NOZIPHWO                                                                                                                                                                                                                                                                                                                                                                                                                                                                                                                                                                                                                                                                                                                                                                                                                                                                                                                                                                                      Z
L58647100356977-012-019       JX1702110918381ICZAMANI NOZIPHWO                                                                                                                                                                                                                                                                                                                                                                                                                                                                                                                                                                                                                                                                                                                                                                                                                                                                                                                                                                                      Z
L58647100356977-013-019       JX1702110917451ICZAMANI NOZIPHWO                                                                                                                                                                                                                                                                                                                                                                                                                                                                                                                                                                                                                                                                                                                                                                                                                                                                                                                                                                                      Z
L58647100356977-014-019       JX1702110904422ICMARIA LEDWABA                                                                                                                                                                                                                                                                                                                                                                                                                                                                                                                                                                                                                                                                                                                                                                                                                                                                                                                                                                                        Z
L58647100356977-015-019       JX1702110915201ICZAMANI NOZIPHWO                                                                                                                                                                                                                                                                                                                                                                                                                                                                                                                                                                                                                                                                                                                                                                                                                                                                                                                                                                                      Z
L58647100356977-016-019       JX1702110917501ICZAMANI NOZIPHWO                                                                                                                                                                                                                                                                                                                                                                                                                                                                                                                                                                                                                                                                                                                                                                                                                                                                                                                                                                                      Z
L58647100356977-017-019       JX1702110904322ICMARIA LEDWABA                                                                                                                                                                                                                                                                                                                                                                                                                                                                                                                                                                                                                                                                                                                                                                                                                                                                                                                                                                                        Z
L58647100356977-018-019       JX1702110914451ICZAMANI NOZIPHWO                                                                                                                                                                                                                                                                                                                                                                                                                                                                                                                                                                                                                                                                                                                                                                                                                                                                                                                                                                                      Z
L58647100356977-019-019       JX1702110915191ICZAMANI NOZIPHWO                                                                                                                                                                                                                                                                                                                                                                                                                                                                                                                                                                                                                                                                                                                                                                                                                                                                                                                                                                                      Z
V55624600000977-019-019       JX1702110915191ICZAMA               000000000000000170213000000   SLAVE 4     000000000000356152               01
V55629700000977-019-019       JX1702110915191ICZAMA               000000000000000170213000000   SLAVE 4     000000000000358108               04
V55631400000977-019-019       JX1702110915191ICZAMA               000000000000000170213000000   SLAVE 4     000000000000356212               03
V55670100000977-019-019       JX1702110915191ICZAMA               000000000000000170213000000   SLAVE 4     000000000000357114               02
V55671200000977-019-019       JX1702110915191ICZAMA               000000000000000170213000000   SLAVE 4     000000000000352045               03
V55672300000977-019-019       JX1702110915191ICZAMA               000000000000000170213000000   SLAVE 4     000000000000356997               01
V56244900000977-019-019       JX1702110915191ICZAMA               000000000000000170213000000   SLAVE 4     000000000000353909               02
V56361100000977-019-019       JX1702110915191ICZAMA               000000000000000170213000000   SLAVE 4     000000000000357464               01
V57403900000977-019-019       JX1702110915191ICZAMA               000000000000000170213000000   SLAVE 4     000000000000353861               04
V57747400000977-019-019       JX1702110915191ICZAMA               000000000000000170213000000   SLAVE 4     000000000000356778               01
V57768800000977-019-019       JX1702110915191ICZAMA               000000000000000170213000000   SLAVE 4     000000000000353226               03
V58229500000977-019-019       JX1702110915191ICZAMA               000000000000000170213000000   SLAVE 4     000000000000356775               03
V58240200000977-019-019       JX1702110915191ICZAMA               000000000000000170213000000   SLAVE 4     000000000000355977               02
V58321000000977-019-019       JX1702110915191ICZAMA               000000000000000170213000000   SLAVE 4     000000000000358663               04
V58390600000977-019-019       JX1702110915191ICZAMA               000000000000000170213000000   SLAVE 4     000000000000354450               01
V58400800000977-019-019       JX1702110915191ICZAMA               000000000000000170213000000   SLAVE 4     000000000000353720               01
V58647100000977-019-019       JX1702110915191ICZAMA               0000000000000001702110000002ICSLAVE 4     170213121153356977Y              19
X JX Slave 4 First invoice 140590 170213 Last invoice 140590 170213 Next invoice 140591 Total number of records 000000078 clbackup completed 07:34:49
