107122000107122               107122               170213JY     1400+00000+JY0000008011+0000008011+000000000+000001124+0000009135+0000000000+I40000009135+0000000000+Z
107122001107122079-014153     107122006003000253166ART+CRAFT DRAGON PK6   0000001000+00002630+00000+0001T   00002630+0000000938          1400 ST2130               1AZ
107122002107122560-000703     107122006003000332403INSECTS 9PC ASSTD      0000001000+00001753+00000+0001T   00001753+0000000938          1400 ST2745               1AZ
107122003107122565-000600     107122006003000643721NOVELTY WINDOW WALKER  0000001000+00001490+00000+0001T   00001490+0000000938          1400 ST2745               1AZ
107122004107122903-000861     107122005010478430822SWT LOVE HEARTS SML    0000001000+00000876+00000+0001T   00000876+0000000938          1400 ST2150               1AZ
107122005107122071-081091     107122006001151010287STAED/GENKEM ALL-STICK 0000001000+00001227+00000+0001T   00001227+0000000938          1400 ST2130               1AZ
107122006107122112-116038     107122006009681820246TCS CARRIER BAG MIDI   0000001000+00000035+00000+0001T   00000035+0000000938          1400 ST2090               1AZ
107123000107123               107123               170213JY     1400+00000+JY0000002192+0000002192+000000000+000000307+0000002490+0000000009+I20000000000+0000002490+Z
107123001107123050-000363-Z   107123006001023475282PADLOCK IRON 32mm CARD 0000001000+00002192+00000+0001T   00002192+0000000951          1400 ST2855               1AZ
107124000107124               107124               170213JY     1400+00000+JY0000008771+0000008771+000000000+000001228+0000009990+0000000009+I20000000000+0000009990+Z
107124001107124072-020242     107124006003000053728PET BED COTTON TEXTILE 0000001000+00008771+00000+0001T   00008771+0000000955          1400 ST2870               1AZ
107125000107125               107125               170213JY     1400+00000+JY0000000876+0000000876+000000000+000000123+0000000990+0000000009+I20000000000+0000000990+Z
107125001107125076-000017     107125006001811010022TWINE COTTON 50g-BALL  0000001000+00000876+00000+0001T   00000876+0000001156          1400 ST2810               1AZ
107126000107126               107126               170213JY     1400+00000+JY0000031624+0000031624+000000000+000004429+0000036053+0000000000+I40000036053+0000000000+Z
107126001107126031-001004     107126006003000334643P/FRAME CERTIFICATE 4PC0000002000+00015788+00000+0001T   00015788+0000001159          1400 ST2510               1AZ
107126002107126112-116069     107126006009681820277TCS CARRIER BAG JUMBO  0000001000+00000048+00000+0001T   00000048+0000001159          1400 ST2090               1AZ
107127000107127               107127               170213JY     1400+00000+JY0000016267+0000016267+000000000+000002280+0000018540+0000000007+I20000000000+0000018540+Z
107127001107127106-001108     107127006003000467365WATER BOTTLE 580ml     0000001000+00001753+00000+0001T   00001753+0000001207          1400 ST2210               1AZ
107127002107127365-000002     107127006001023916532KITCHEN UTENSILS 11PCS 0000001000+00002630+00000+0001T   00002630+0000001207          1400 ST2725               1AZ
107127003107127263-000177     107127006001023826824RACER PULL BACK        0000001000+00003507+00000+0001T   00003507+0000001207          1400 ST2710               1AZ
107127004107127018-000136     107127006001023659026MUG OCC LOVE W/PLUSH   0000001000+00003507+00000+0001T   00003507+0000001207          1400 ST2515               1AZ
107127005107127080-000113     107127006003000237449CARD&ENVLPE - LOVE     0000001000+00001753+00000+0001T   00001753+0000001207          1400 ST2112               1AZ
107127006107127112-116069     107127006009681820277TCS CARRIER BAG JUMBO  0000001000+00000048+00000+0001T   00000048+0000001207          1400 ST2090               1AZ
107127007107127089-000220     107127006003000677368KEY CHAIN+PEN+KNIFE    0000001000+00003069+00000+0001T   00003069+0000001207          1400 ST2205               1AZ
107128000107128               107128               170213JY     1400+00000+JY0000012062+0000012062+000000000+000001690+0000013752+0000000000+I40000013752+0000000000+Z
107128001107128368-000175     107128006003000270316PLUSH BEAR 4 ASSTD 18CM0000001000+00006139+00000+0001T   00006139+0000001212          1400 ST2745               1AZ
107128002107128031-080508     107128006001023802415P/FRAME PL 22X11CM LOVE0000001000+00004385+00000+0001T   00004385+0000001212          1400 ST2510               1AZ
107128003107128077-000299     107128006003000395576G/BAG 32x25cm LRG LOVE 0000001000+00001490+00000+0001T   00001490+0000001212          1400 ST2112               1AZ
107128004107128112-116069     107128006009681820277TCS CARRIER BAG JUMBO  0000001000+00000048+00000+0001T   00000048+0000001212          1400 ST2090               1AZ
107129000107129               107129               170213JY     1400+00000+JY0000002100+0000002100+000000000+000000296+0000002390+0000000006+I20000000000+0000002390+Z
107129001107129903-000155     107129006009803374435SWT LOLLY I LUV U HEART0000004000+00000525+00000+0001T   00000525+0000001216          1400 ST2150               1AZ
107130000107130               107130               170213JY     1400+00000+JY0000008276+0000008276+000000000+000001159+0000009435+0000000000+I40000009435+0000000000+Z
107130001107130903-000517     107130006001704012768SWT STRAWS FIZZY CHERRY0000001000+00001227+00000+0001T   00001227+0000001218          1400 ST2150               1AZ
107130002107130072-020266     107130006003000400591PET PUPPY TRAINING PAD 0000002000+00003507+00000+0001T   00003507+0000001218          1400 ST2870               1AZ
107130003107130112-116038     107130006009681820246TCS CARRIER BAG MIDI   0000001000+00000035+00000+0001T   00000035+0000001218          1400 ST2090               1AZ
107131000107131               107131               170213JY     1400+00000+JY0000004067+0000004067+000000000+000000570+0000004637+0000000000+I40000004637+0000000000+Z
107131001107131077-000314     107131006003000181148GIFT-BAG 11X14CM MATT  0000001000+00000876+00000+0001T   00000876+0000001226          1400 ST2112               1AZ
107131002107131077-000315     107131006003000181186GIFT-BAG 20x28cm MATT  0000002000+00001578+00000+0001T   00001578+0000001226          1400 ST2112               1AZ
107131003107131112-116038     107131006009681820246TCS CARRIER BAG MIDI   0000001000+00000035+00000+0001T   00000035+0000001226          1400 ST2090               1AZ
107132000107132               107132               170213JY     1400+00000+JY0000018853+0000018853+000000000+000002641+0000021494+0000000000+I40000021494+0000000000+Z
107132001107132077-000299-A   107132006003000670888GIFT-BAG PAPER JMB LOVE0000001000+00001753+00000+0001T   00001753+0000001230          1400 ST2112               1AZ
107132002107132080-000127     107132006003000424351VALENTINES DAY 36x24CM 0000001000+00002192+00000+0001T   00002192+0000001230          1400 ST2112               1AZ
107132003107132031-086302-C   107132006001023910332P/FRAME COLL. PL 3-HOLE0000001000+00008771+00000+0001T   00008771+0000001230          1400 ST2510               1AZ
107132004107132206-000620     107132006003000631797BACK SCRATCHER EXTEND  0000001000+00002630+00000+0001T   00002630+0000001230          1400 ST2321               1AZ
107132005107132004-071206     107132006003000605156USB CABLE CHARGER      0000001000+00003507+00000+0001T   00003507+0000001230          1400 ST2310               1AZ
107133000107133               107133               170213JY     1400+00000+JY0000004767+0000004767+000000000+000000669+0000005430+0000000006+I20000000000+0000005430+Z
107133001107133903-000194     107133006009826020616SWT CHOC RP LOLLY 25G  0000001000+00001314+00000+0001T   00001314+0000001243          1400 ST2150               1AZ
107133002107133903-000200     107133006009826020234SWT CHOC RP CHOCO 23G  0000001000+00000788+00000+0001T   00000788+0000001243          1400 ST2150               1AZ
107133003107133018-000129     107133006001023403353MUG OCC. LOVE V-SHAPE  0000001000+00002630+00000+0001T   00002630+0000001243          1400 ST2515               1AZ
107133004107133112-116038     107133006009681820246TCS CARRIER BAG MIDI   0000001000+00000035+00000+0001T   00000035+0000001243          1400 ST2090               1AZ
107134000107134               107134               170213JY     1400+00000+JY0000021076+0000021076+000000000+000002952+0000024028+0000000000+I40000024028+0000000000+Z
107134001107134301-000013     107134006001023781604ORN SENTIMENT STONE 4-A0000002000+00006139+00000+0001T   00006139+0000001248          1400 ST2505               1AZ
107134002107134903-000194     107134006009826020616SWT CHOC RP LOLLY 25G  0000004000+00001314+00000+0001T   00001314+0000001248          1400 ST2150               1AZ
107134003107134112-116038     107134006009681820246TCS CARRIER BAG MIDI   0000001000+00000035+00000+0001T   00000035+0000001248          1400 ST2090               1AZ
107134004107134018-000130     107134006001023867537MUG OCC LOVE MINI+HEART0000001000+00003507+00000+0001T   00003507+0000001248          1400 ST2515               1AZ
107135000107135               107135               170213JY     1400+00000+JY0000001753+0000001753+000000000+000000246+0000001990+0000000009+I20000000000+0000001990+Z
107135001107135563-000317-K   107135006003000697885SERVIETTE 2PLY 33cm    0000001000+00001753+00000+0001T   00001753+0000001250          1400 ST2214               1AZ
107136000107136               107136               170213JY     1400+00000+JY0000001578+0000001578+000000000+000000221+0000001799+0000000000+I40000001799+0000000000+Z
107136001107136077-000303     107136006001023593757GIFT-BAG PAPER MED     0000001000+00001578+00000+0001T   00001578+0000001409          1400 ST2112               1AZ
107137000107137               107137               170213JY     1400+00000+JY0000008819+0000008819+000000000+000001235+0000010054+0000000000+I40000010054+0000000000+Z
107137001107137486-002316     107137006003000335602WALL-CLOCK QTZ RND 30CM0000001000+00008771+00000+0001T   00008771+0000001412          1400 ST2510               1AZ
107137002107137112-116069     107137006009681820277TCS CARRIER BAG JUMBO  0000001000+00000048+00000+0001T   00000048+0000001412          1400 ST2090               1AZ
107138000107138               107138               170213JY     1400+00000+JY0000025778+0000025778+000000000+000003612+0000029390+0000000000+I40000029390+0000000000+Z
107138001107138159-000649     107138006001023803931BATH-SPONGE RND        0000001000+00001928+00000+0001T   00001928+0000001523          1400 ST2200               1AZ
107138002107138031-005921     107138006001023667847P/FRAME PL PLAIN       0000001000+00004385+00000+0001T   00004385+0000001523          1400 ST2510               1AZ
107138003107138133-000103     107138006003000060900PEG BAG ASSTD 29x29cm  0000001000+00002630+00000+0001T   00002630+0000001523          1400 ST2212               1AZ
107138004107138036-000605     107138006001023158611WASHING-PEGS WDN PCK-240000002000+00001490+00000+0001T   00001490+0000001523          1400 ST2212               1AZ
107138005107138107-004105     107138006002923010504BUCKET 9L OPEN         0000001000+00001314+00000+0001T   00001314+0000001523          1400 ST2210               1AZ
107138006107138903-000087     107138006001704000161SWT SPECKLED-EGGS 50G  0000001000+00001139+00000+0001T   00001139+0000001523          1400 ST2150               1AZ
107138007107138027-000235     107138006003000512287MOP CHENILLE DOUBL SIDE0000001000+00011402+00000+0001T   00011402+0000001523          1400 ST2212               1AZ
107139000107139               107139               170213JY     1400+00000+JY0000001753+0000001753+000000000+000000246+0000001990+0000000009+I20000000000+0000001990+Z
107139001107139903-000081     107139006001704014076SWT F/PASTILLES 100G   0000001000+00001753+00000+0001T   00001753+0000001541          1400 ST2150               1AZ
107140000107140               107140               170213JY     1400+00000+JY0000012979+0000012979+000000000+000001818+0000014790+0000000007+I20000000000+0000014790+Z
107140001107140368-000614     107140006001023705808PLUSH LOVE 30cm        0000001000+00008771+00000+0001T   00008771+0000001652          1400 ST2745               1AZ
107140002107140077-000270     107140006003000395453GIFT-BAG PPR JMB 33X45 0000001000+00002630+00000+0001T   00002630+0000001652          1400 ST2112               1AZ
107140003107140018-000127     107140006001023380289MUG OCC STRAIGHT LOVE  0000001000+00001578+00000+0001T   00001753+0006471652          1400 ST2515               1AZ
107141000107141               107141               170213JY     1400+00000+JY0000010727+0000010727+000000000+000001505+0000012232+0000000000+I40000012232+0000000000+Z
107141001107141018-000136     107141006001023659026MUG OCC LOVE W/PLUSH   0000001000+00003507+00000+0001T   00003507+0000001700          1400 ST2515               1AZ
107141002107141301-085004     107141006003000420469ORN LOVE PLAQUE 21X10CM0000001000+00003507+00000+0001T   00003946+0006471700          1400 ST2505               1AZ
107141003107141112-116038     107141006009681820246TCS CARRIER BAG MIDI   0000001000+00000035+00000+0001T   00000035+0000001700          1400 ST2090               1AZ
107141004107141304-001204     107141006001023737984FLOWER OCC. TEDDY/ROSES0000002000+00001402+00000+0001T   00001490+0006471700          1400 ST2510               1AZ
107141005107141080-000133-A   107141006003000647019MINI VALENTINES CARD   0000002000+00000437+00000+0001T   00000437+0000001700          1400 ST2112               1AZ
107142000107142               107142               170213JY     1400+00000+JY0000004822+0000004822+000000000+000000676+0000005498+0000000000+I40000005498+0000000000+Z
107142001107142080-000133     107142006003000535613CARD&ENV MINI ASTD DSGN0000001000+00000437+00000+0001T   00000437+0000001701          1400 ST2112               1AZ
107142002107142301-000015     107142006001023479907ORN SENTIMENT STONE    0000001000+00004385+00000+0001T   00004385+0000001701          1400 ST2505               1AZ
107143000107143               107143               170213JY     1400+00000+JY0000010029+0000010029+000000000+000001406+0000011435+0000000000+I40000011435+0000000000+Z
107143001107143903-000517     107143006001704012768SWT STRAWS FIZZY CHERRY0000001000+00001227+00000+0001T   00001227+0000001703          1400 ST2150               1AZ
107143002107143566-000308     107143006003000522521STICKER TAPE 3PCS      0000001000+00002630+00000+0001T   00002630+0000001703          1400 ST2130               1AZ
107143003107143077-000349-B   107143006001023908315G/RIBBON 3ROLLS 12BOWS 0000001000+00002630+00000+0001T   00002630+0000001703          1400 ST2112               1AZ
107143004107143018-000130     107143006001023867537MUG OCC LOVE MINI+HEART0000001000+00003507+00000+0001T   00003507+0000001703          1400 ST2515               1AZ
107143005107143112-116038     107143006009681820246TCS CARRIER BAG MIDI   0000001000+00000035+00000+0001T   00000035+0000001703          1400 ST2090               1AZ
107144000107144               107144               170213JY     1400+00000+JY0000001578+0000001578+000000000+000000221+0000001790+0000000009+I20000000000+0000001790+Z
107144001107144077-000303     107144006001023593757GIFT-BAG PAPER MED     0000001000+00001578+00000+0001T   00001578+0000001703          1400 ST2112               1AZ
107145000107145               107145               170213JY     1400+00000+JY0000004385+0000004385+000000000+000000614+0000004999+0000000000+I40000004999+0000000000+Z
107145001107145007-000179     107145006003000534555OFFICE DISPLAY C/CASE  0000001000+00004385+00000+0001T   00004385+0000001704          1400 ST2130               1AZ
107146000107146               107146               170213JY     1400+00000+JY0000012569+0000012569+000000000+000001760+0000014329+0000000000+I40000014329+0000000000+Z
107146001107146001-000175     107146006001023788108B/MUG GLS LOVE 380ML   0000001000+00004385+00000+0001T   00004385+0000001706          1400 ST2515               1AZ
107146002107146018-000177     107146006001023797513MUG MINI LOVE ASSTD    0000001000+00000700+00000+0001T   00000700+0000001706          1400 ST2515               1AZ
107146003107146301-085004     107146006003000420469ORN LOVE PLAQUE 21X10CM0000001000+00003507+00000+0001T   00003946+0006471706          1400 ST2505               1AZ
107146004107146006-000166-H   107146006003000608096BALLOONS HELIUM 6PC WHT0000003000+00001314+00000+0001T   00001314+0000001706          1400 ST2131               1AZ
107146005107146112-116038     107146006009681820246TCS CARRIER BAG MIDI   0000001000+00000035+00000+0001T   00000035+0000001706          1400 ST2090               1AZ
107147000107147               107147               170213JY     1400+00000+JY0000002630+0000002630+000000000+000000369+0000002990+0000000009+I20000000000+0000002990+Z
107147001107147463-000366     107147006001023789136SWIM W/NOODLE 150cm    0000001000+00002630+00000+0001T   00002630+0000001707          1400 ST2785               1AZ
107148000107148               107148               170213JY     1400+00000+JY0000007049+0000007049+000000000+000000987+0000008036+0000000000+I40000008036+0000000000+Z
107148001107148039-080942     107148006001023669872C/PILLAR RND WHT 10X7CM0000002000+00003507+00000+0001T   00003507+0000001708          1400 ST2510               1AZ
107148002107148112-116038     107148006009681820246TCS CARRIER BAG MIDI   0000001000+00000035+00000+0001T   00000035+0000001708          1400 ST2090               1AZ
107149000107149               107149               170213JY     1400+00000+JY0000003681+0000003681+000000000+000000516+0000004190+0000000007+I20000000000+0000004190+Z
107149001107149251-000041     107149006001023515889SEAL-TAPE BUFF 48mmx50m0000003000+00001227+00000+0001T   00001227+0000001714          1400 ST2810               1AZ
107150000107150               107150               170213JY     1400+00000+JY0000009341+0000009341+000000000+000001309+0000010650+0000000000+I20000000000+0000010650+Z
107150001107150027-000194     107150006001246602472MOP COMPLETE           0000001000+00002279+00000+0001T   00002279+0000001715          1400 ST2212               1AZ
107150002107150104-000055     107150006001023889416BASKET PL 32x22x8cm    0000002000+00003507+00000+0001T   00003507+0000001715          1400 ST2210               1AZ
107150003107150112-116069     107150006009681820277TCS CARRIER BAG JUMBO  0000001000+00000048+00000+0001T   00000048+0000001715          1400 ST2090               1AZ
A17021300                                          12320698JYSLAVE 1                       ST21IC
M17021391                              CASH        JYSLAVE 1                       Z-REPORT No.   658TOTAL (Sales - Refunds)           2945.26       CASH TO BE BANKED                  782.20       DEBIT CARDS                          0.00       CREDIT CARDS                      2163.06       Z-READING                         2945.26       AIRTIME DEBIT CARD SALES             0.00       AIRTIME CARD SALES                   0.00       OVERS/UNDERS                         0.00       AIRTIME CASH SALES                   0.00       GIFT CARDS                           0.00       GIFT CARD CASH SALES                 0.00       T O T A L  CASH PAYOUTS              0.00                                                                                                                                                                                                                                                                                                                                                      Z
M17021392                              CASH        JYABSENT                                                                                                                                                                                          ANNUAL LEAVE                                                                                                                                                                                    DAY OFF                                                                                                                                                                                         COMMENTS                                                                                                                                                                                                                                                                                                                                                                                       Z
Y17021300                                          JY00000000258413+000029
ZJY17021319563 SLAVE 1      SALES DATA                     NEXT INVOICE NO.  107151 0658
X JY Slave 1 First invoice 107122 170213 Last invoice 107150 170213 Next invoice 107151 Total number of records 000000117 clbackup completed 19:56:41
