119207000119207               119207               170213JY     1400+00000+JY0000007712+0000007712+000000000+000001080+0000008790+0000000002+I20000000000+0000008790+Z
119207001119207105-001078     119207000700371637750CONTAINER 1,1L CLIP LOC0000004000+00001928+00000+0001T   00001928+0000000821          1400 KU1210               2AZ
119208000119208               119208               170213JY     1400+00000+JY0000016089+0000016089+000000000+000002255+0000018344+0000000000+I40000018344+0000000000+Z
119208001119208112-116069     119208006009681820277TCS CARRIER BAG JUMBO  0000001000+00000048+00000+0001T   00000048+0000000852          1400 KU1090               2AZ
119208002119208031-005923     119208006003000040322P/FRAME CERT PL 21x29.70000002000+00003507+00000+0001T   00003507+0000000852          1400 KU1510               2AZ
119208003119208033-000013     119208006001023567215PILL-REMINDER PL       0000002000+00001227+00000+0001T   00001227+0000000852          1400 KU1200               2AZ
119208004119208200-000125     119208006001023459749CUTLERY-SET 10PCE   H&L0000001000+00000876+00000+0001T   00000876+0000000852          1400 KU1214               2AZ
119208005119208051-002402     119208006001023518347TRIGGER-SPRAYER  500ml 0000001000+00001753+00000+0001T   00001753+0000000852          1400 KU1820               2AZ
119208006119208251-000001     119208006001023487681TAPE DBL-SIDE 18x1000mm0000001000+00001314+00000+0001T   00001314+0000000852          1400 KU1810               2AZ
119208007119208019-071600     119208006001023771971RIVER-STONES 1kg MIXED 0000001000+00002630+00000+0001T   00002630+0000000852          1400 KU1510               2AZ
119209000119209               119209               170213JY     1400+00000+JY0000002630+0000002630+000000000+000000369+0000002990+0000000009+I20000000000+0000002990+Z
119209001119209140-006008     119209006001023803214FLY-SWATTERS   SET-OF-40000001000+00002630+00000+0001T   00002630+0000000852          1400 KU1830               2AZ
119210000119210               119210               170213JY     1400+00000+JY0000004385+0000004385+000000000+000000614+0000004990+0000000009+I20000000000+0000004990+Z
119210001119210082-000110     119210006003000360482READING GLS STRENGHT:2 0000001000+00004385+00000+0001T   00004385+0000000856          1400 KU1160               2AZ
119211000119211               119211               170213JY     1400+00000+JY0000000911+0000000911+000000000+000000128+0000001030+0000000009+I20000000000+0000001030+Z
119211001119211150-004032-H   119211006003000645367BASIN-PLUG 2PCE BLACK  0000001000+00000876+00000+0001T   00000876+0000000858          1400 KU1810               2AZ
119211002119211112-116038     119211006009681820246TCS CARRIER BAG MIDI   0000001000+00000035+00000+0001T   00000035+0000000858          1400 KU1090               2AZ
119212000119212               119212               170213JY     1400+00000+JY0000003506+0000003506+000000000+000000492+0000003990+0000000008+I20000000000+0000003990+Z
119212001119212047-000502-H   119212006001023780041PLUG 2x2PIN EURO       0000002000+00001753+00000+0001T   00001753+0000000903          1400 KU1880               2AZ
119213000119213               119213               170213JY     1400+00000+JY0000037216+0000037216+000000000+000005213+0000042429+0000000000+I40000042429+0000000000+Z
119213001119213112-116038     119213006009681820246TCS CARRIER BAG MIDI   0000001000+00000035+00000+0001T   00000035+0000000946          1400 KU1090               2AZ
119213002119213031-000870-A   119213006001023798626P/FRAME WOOD WHITE-PINE0000004000+00004385+00000+0001T   00004385+0000000946          1400 KU1510               2AZ
119213003119213031-000864-A   119213006001023798350P/FRAME MAHOGANY 10X15 0000004000+00003069+00000+0001T   00003069+0000000946          1400 KU1510               2AZ
119213004119213031-000864-C   119213006001023798411P/FRAME MAHOGANY 20X25 0000001000+00005262+00000+0001T   00005262+0000000946          1400 KU1510               2AZ
119213005119213077-000311     119213006001023608666GIFT-BAG 11X14CM GLOSS 0000001000+00000613+00000+0001T   00000613+0000000946          1400 KU1112               2AZ
119213006119213077-000452     119213006003000284986G/BAG METALLIC MED EMB 0000001000+00001490+00000+0001T   00001490+0000000946          1400 KU1112               2AZ
119214000119214               119214               170213JY     1400+00000+JY0000003723+0000003723+000000000+000000523+0000004246+0000000000+I40000004246+0000000000+Z
119214001119214077-000245     119214006001023759214GIFT-RIBBON METALLICx2 0000001000+00001227+00000+0001T   00001227+0000000950          1400 KU1112               2AZ
119214002119214108-004000-B   119214006003000058419PLATE DINNER ASSTD CLR 0000001000+00000744+00000+0001T   00000744+0000000950          1400 KU1210               2AZ
119214003119214077-000151     119214006008766114676GIFT-WRAP C/PHANE ASSTD0000002000+00000876+00000+0001T   00000876+0000000950          1400 KU1112               2AZ
119215000119215               119215               170213JY     1400+00000+JY0000001753+0000001753+000000000+000000246+0000001999+0000000000+I40000001999+0000000000+Z
119215001119215078-000026     119215006936198407090SUPERGLUE 3,0g GEL     0000001000+00001753+00000+0001T   00001753+0000000952          1400 KU1810               2AZ
119216000119216               119216               170213JY     1400+00000+JY0000004385-0000004385-000000000+000000614-0000005000-0000000001+I20000000000+0000005000-Z
119216001119216048-071505     119216006001023714626TOUCH-LIGHTS 8cm  SET-20000001000-00004385+00000+0001T   00004385+0000000956          1400 KU13051IC            2 Z
119217000119217               119217               170213JY     1400+00000+JY0000013186+0000013186+000000000+000001849+0000015035+0000000000+I40000015035+0000000000+Z
119217001119217112-116038     119217006009681820246TCS CARRIER BAG MIDI   0000001000+00000035+00000+0001T   00000035+0000001001          1400 KU1090               2AZ
119217002119217046-002032-PK2 119217004897006175063BATTERIES CR-2032  2PCE0000001000+00001753+00000+0001T   00001753+0000001001          1400 KU1312               2AZ
119217003119217004-071209     119217006003000604678MOBILE IN CAR HOLDER   0000001000+00007893+00000+0001T   00007893+0000001001          1400 KU1310               2AZ
119217004119217047-001333     119217006001838000495PLUGTOP CHUBBY         0000002000+00000876+00000+0001T   00000876+0000001001          1400 KU1880               2AZ
119217005119217903-000059     119217006002099001269SWT GS NOVELTY ALIEN VA0000001000+00001753+00000+0001T   00001753+0000001001          1400 KU1150               2AZ
119218000119218               119218               170213JY     1400+00000+JY0000004120+0000004120+000000000+000000578+0000004690+0000000008+I20000000000+0000004690+Z
119218001119218304-000720     119218006001023843050F/BUNCH ROSE 6-HEAD AST0000001000+00002630+00000+0001T   00002630+0000001005          1400 KU1510               2AZ
119218002119218077-000299     119218006003000395576G/BAG 32x25cm LRG LOVE 0000001000+00001490+00000+0001T   00001490+0000001005          1400 KU1112               2AZ
119219000119219               119219               170213JY     1400+00000+JY0000001578+0000001578+000000000+000000221+0000001790+0000000009+I20000000000+0000001790+Z
119219001119219077-000303     119219006001023593757GIFT-BAG PAPER MED     0000001000+00001578+00000+0001T   00001578+0000001046          1400 KU1112               2AZ
119220000119220               119220               170213JY     1400+00000+JY0000012445+0000012445+000000000+000001745+0000014190+0000000000+I40000014190+0000000000+Z
119220001119220016-006516     119220006003000351503S/JAR GLS CHECK 150ML  0000002000+00001490+00000+0001T   00001490+0000001055          1400 KU1300               2AZ
119220002119220565-000084     119220006003000643431NOVELTY CATAPULT B/FLY 0000001000+00001753+00000+0001T   00001753+0000001055          1400 KU1745               2AZ
119220003119220566-001012     119220006001023528070STICKERS GLOW IN DARK  0000001000+00001314+00000+0001T   00001314+0000001055          1400 KU1130               2AZ
119220004119220080-000100     119220006003000236114CARD & ENVELOPE BDAY   0000001000+00001753+00000+0001T   00001753+0000001055          1400 KU1112               2AZ
119220005119220566-001012     119220006001023528070STICKERS GLOW IN DARK  0000001000+00001314+00000+0001T   00001314+0000001055          1400 KU1130               2AZ
119220006119220077-000323     119220006001023677563G/BAG 25X32CM E/DAY FLO0000001000+00001578+00000+0001T   00001578+0000001055          1400 KU1112               2AZ
119220007119220565-000859     119220006001023691361SUNGLASSES GIANT       0000001000+00001753+00000+0001T   00001753+0000001055          1400 KU1745               2AZ
119221000119221               119221               170213JY     1400+00000+JY0000007920+0000007920+000000000+000001112+0000009030+0000000002+I20000000000+0000009030+Z
119221001119221903-000155     119221006009803374435SWT LOLLY I LUV U HEART0000005000+00000525+00000+0001T   00000525+0000001057          1400 KU1150               2AZ
119221002119221018-000130     119221006001023867537MUG OCC LOVE MINI+HEART0000001000+00003507+00000+0001T   00003507+0000001057          1400 KU1515               2AZ
119221003119221301-085002     119221006003000420704ORN OCC. LOVE BELL ASST0000001000+00001753+00000+0001T   00002630+0008121057          1400 KU1505               2AZ
119221004119221112-116038     119221006009681820246TCS CARRIER BAG MIDI   0000001000+00000035+00000+0001T   00000035+0000001057          1400 KU1090               2AZ
119222000119222               119222               170213JY     1400+00000+JY0000007802+0000007802+000000000+000001094+0000008896+0000000000+I40000008896+0000000000+Z
119222001119222565-000885     119222006003000122929NOVELTY PRICKLY BALL   0000001000+00001578+00000+0001T   00001578+0000001100          1400 KU1745               2AZ
119222002119222903-000155     119222006009803374435SWT LOLLY I LUV U HEART0000001000+00000525+00000+0001T   00000525+0000001100          1400 KU1150               2AZ
119222003119222304-000720     119222006001023843050F/BUNCH ROSE 6-HEAD AST0000001000+00002630+00000+0001T   00002630+0000001100          1400 KU1510               2AZ
119222004119222103-000088     119222006001023795625BAMBOO BASKET  W/HNDLES0000001000+00003069+00000+0001T   00003069+0000001100          1400 KU1300               2AZ
119223000119223               119223               170213JY     1400+00000+JY0000005262+0000005262+000000000+000000737+0000005990+0000000009+I20000000000+0000005990+Z
119223001119223056-065301     119223006001023625861CAR SUN-SHIELD 114x66cm0000001000+00005262+00000+0001T   00005262+0000001103          1400 KU1860               2AZ
119224000119224               119224               170213JY     1400+00000+JY0000002892+0000002892+000000000+000000405+0000003290+0000000007+I20000000000+0000003290+Z
119224001119224018-000177     119224006001023797513MUG MINI LOVE ASSTD    0000001000+00000700+00000+0001T   00000700+0000001104          1400 KU1515               2AZ
119224002119224080-000127     119224006003000424351VALENTINES DAY 36x24CM 0000001000+00002192+00000+0001T   00002192+0000001104          1400 KU1112               2AZ
119225000119225               119225               170213JY     1400+00000+JY0000005297+0000005297+000000000+000000742+0000006030+0000000009+I20000000000+0000006030+Z
119225001119225024-000165-F   119225006003000674671N/STICK MUFFIN PAN     0000001000+00005262+00000+0001T   00005262+0000001105          1400 KU1300               2AZ
119225002119225112-116038     119225006009681820246TCS CARRIER BAG MIDI   0000001000+00000035+00000+0001T   00000035+0000001105          1400 KU1090               2AZ
119226000119226               119226               170213JY     1400+00000+JY0000008971+0000008971+000000000+000001257+0000010220+0000000008+I20000000000+0000010220+Z
119226001119226018-000177     119226006001023797513MUG MINI LOVE ASSTD    0000004000+00000700+00000+0001T   00000700+0000001108          1400 KU1515               2AZ
119226002119226077-000011-D   119226006001023808554TISSUE-WRAP WHITE 10PCE0000001000+00000876+00000+0001T   00000876+0000001108          1400 KU1112               2AZ
119226003119226077-000376-A   119226006003000669059GIFT-BAG 2-PACK JMB    0000001000+00003946+00000+0001T   00003946+0000001108          1400 KU1112               2AZ
119226004119226112-116038     119226006009681820246TCS CARRIER BAG MIDI   0000001000+00000035+00000+0001T   00000035+0000001108          1400 KU1090               2AZ
119226005119226903-004950     119226006002580020304SWT APRICOT SURPRISE   0000001000+00001314+00000+0001T   00001314+0000001108          1400 KU1150               2AZ
119227000119227               119227               170213JY     1400+00000+JY0000004380+0000004380+000000000+000000616+0000004996+0000000000+I40000004996+0000000000+Z
119227001119227083-000049     119227004891035200024CIG-LIGHTER DISPOSABLE 0000002000+00000437+00000+0001T   00000437+0000001150          1400 KU1315               2AZ
119227002119227036-000521     119227006003000338184HOOK-HANGER 8-HOOK     0000002000+00001753+00000+0001T   00001753+0000001150          1400 KU1212               2AZ
119228000119228               119228               170213JY     1400+00000+JY0000002455+0000002455+000000000+000000344+0000002790+0000000009+I20000000000+0000002790+Z
119228001119228200-000060     119228006001023625762STRAWS 18cm FLEX 200PCE0000001000+00002455+00000+0001T   00002455+0000001153          1400 KU1214               2AZ
119229000119229               119229               170213JY     1400+00000+JY0000000000+0000000000+000000000+000000000+0000000000+0000000000+I20000000000+0000000000+Z
119229001119229566-000317     119229006003000524204STICKER TAPE 2PCS      0000001000+00003507+00000+0001T   00003507+0000001205          1400 KU1130               2 Z
119229002119229079-001002     119229006003000448715CANVAS A4 WOOD MOUNTED 0000003000+00002630+00000+0001T   00002630+0000001205          1400 KU1130               2 Z
119229003119229112-116038     119229006009681820246TCS CARRIER BAG MIDI   0000001000+00000035+00000+0001T   00000035+0000001205          1400 KU1090               2 Z
119229004119229079-001002     119229006003000448715CANVAS A4 WOOD MOUNTED 0000003000-00002630+00000+0001T   00002630+0000001205          1400 KU11301IC            2 Z
119229005119229566-000317     119229006003000524204STICKER TAPE 2PCS      0000001000-00003507+00000+0001T   00003507+0000001205          1400 KU11301IC            2 Z
119229006119229112-116038     119229006009681820246TCS CARRIER BAG MIDI   0000001000-00000035+00000+0001T   00000035+0000001205          1400 KU10901IC            2 Z
119230000119230               119230               170213JY     1400+00000+JY0000009849+0000009849+000000000+000001382+0000011230+0000000001+I20000000000+0000011230+Z
119230001119230903-000194     119230006009826020616SWT CHOC RP LOLLY 25G  0000001000+00001314+00000+0001T   00001314+0000001220          1400 KU1150               2AZ
119230002119230077-000239     119230006003000160419GIFT-RIBBON ROLL PEARL 0000001000+00001753+00000+0001T   00001753+0000001220          1400 KU1112               2AZ
119230003119230903-000200     119230006009826020234SWT CHOC RP CHOCO 23G  0000001000+00000788+00000+0001T   00000788+0000001220          1400 KU1150               2AZ
119230004119230566-000304     1192300060030004440453-D POP-UP ROUND       0000001000+00002455+00000+0001T   00002455+0000001220          1400 KU1130               2AZ
119230005119230077-000150-D   119230006003000054343GIFT-WRAP CELLPHANE CLR0000004000+00000876+00000+0001T   00000876+0000001220          1400 KU1112               2AZ
119230006119230112-116038     119230006009681820246TCS CARRIER BAG MIDI   0000001000+00000035+00000+0001T   00000035+0000001220          1400 KU1090               2AZ
119231000119231               119231               170213JY     1400+00000+JY0000001753+0000001753+000000000+000000246+0000001990+0000000009+I20000000000+0000001990+Z
119231001119231046-002013-PK6 119231004897006174851BATTERY BUTTON AG13 6PC0000001000+00001753+00000+0001T   00001753+0000001221          1400 KU1312               2AZ
119232000119232               119232               170213JY     1400+00000+JY0000000874+0000000874+000000000+000000124+0000000990+0000000008+I20000000000+0000000990+Z
119232001119232004-071206     119232006003000605156USB CABLE CHARGER      0000002000-00003507+00000+0001T   00003507+0000001225          1400 KU13101IC            2 Z
119232002119232004-071192     119232006003000528813USB CABLE 1.0m         0000002000+00002630+00000+0001T   00002630+0000001225          1400 KU1310               2AZ
119232003119232903-004950     119232006002580020304SWT APRICOT SURPRISE   0000002000+00001314+00000+0001T   00001314+0000001225          1400 KU1150               2AZ
119233000119233               119233               170213JY     1400+00000+JY0000001753+0000001753+000000000+000000246+0000001990+0000000009+I20000000000+0000001990+Z
119233001119233077-000299-A   119233006003000670888GIFT-BAG PAPER JMB LOVE0000001000+00001753+00000+0001T   00001753+0000001226          1400 KU1112               2AZ
119234000119234               119234               170213JY     1400+00000+JY0000007012+0000007012+000000000+000000984+0000007996+0000000000+I40000007996+0000000000+Z
119234001119234079-003002     119234006003000447886A/TUBE 75ML RED        0000001000+00001753+00000+0001T   00001753+0000001229          1400 KU1130               2AZ
119234002119234079-003000     119234006003000448838A/TUBE 75ML WHITE      0000001000+00001753+00000+0001T   00001753+0000001229          1400 KU1130               2AZ
119234003119234079-003007     119234006003000448487A/TUBE 75ML BROWN      0000001000+00001753+00000+0001T   00001753+0000001229          1400 KU1130               2AZ
119234004119234079-003009     119234006003000448722A/TUBE 75ML NATURAL    0000001000+00001753+00000+0001T   00001753+0000001229          1400 KU1130               2AZ
119235000119235               119235               170213JY     1400+00000+JY0000004384+0000004384+000000000+000000614+0000004990+0000000008+I20000000000+0000004990+Z
119235001119235019-071597     119235006008766071597PEBBLES 250g CLEAR  BAG0000002000+00002192+00000+0001T   00002192+0000001230          1400 KU1510               2AZ
119236000119236               119236               170213JY     1400+00000+JY0000007395+0000007395+000000000+000001038+0000008433+0000000000+I40000008433+0000000000+Z
119236001119236018-000127     119236006001023380289MUG OCC STRAIGHT LOVE  0000003000+00001578+00000+0001T   00001753+0006471237          1400 KU1515               2AZ
119236002119236112-116038     119236006009681820246TCS CARRIER BAG MIDI   0000001000+00000035+00000+0001T   00000035+0000001237          1400 KU1090               2AZ
119236003119236007-000119     119236006002324004126BOOK COVER PL          0000001000+00001051+00000+0001T   00001051+0000001237          1400 KU1130               2AZ
119236004119236903-000155     119236006009803374435SWT LOLLY I LUV U HEART0000003000+00000525+00000+0001T   00000525+0000001237          1400 KU1150               2AZ
119237000119237               119237               170213JY     1400+00000+JY0000002630+0000002630+000000000+000000369+0000002990+0000000009+I20000000000+0000002990+Z
119237001119237077-000005-B   119237006003000326617PAPER TISSUE PATTERN   0000001000+00002630+00000+0001T   00002630+0000001256          1400 KU1112               2AZ
119238000119238               119238               170213JY     1400+00000+JY0000005260+0000005260+000000000+000000737+0000005990+0000000007+I20000000000+0000005990+Z
119238001119238306-000024-A   119238006003000577309COTTON-WOOL-PADS 80PC  0000001000+00001753+00000+0001T   00001753+0000001303          1400 KU1200               2AZ
119238002119238562-058911     119238006001023705778EDU MAGNETIC UPPER CASE0000001000+00003507+00000+0001T   00003507+0000001303          1400 KU1755               2AZ
119239000119239               119239               170213JY     1400+00000+JY0000008379+0000008379+000000000+000001174+0000009550+0000000003+I20000000000+0000009550+Z
119239001119239112-116069     119239006009681820277TCS CARRIER BAG JUMBO  0000001000+00000048+00000+0001T   00000048+0000001320          1400 KU1090               2AZ
119239002119239018-050000     119239006003000412679MUG OCC LOVE TWIN BEAR 0000001000+00006139+00000+0001T   00006139+0000001320          1400 KU1515               2AZ
119239003119239080-000127     119239006003000424351VALENTINES DAY 36x24CM 0000001000+00002192+00000+0001T   00002192+0000001320          1400 KU1112               2AZ
119240000119240               119240               170213JY     1400+00000+JY0000003243+0000003243+000000000+000000455+0000003690+0000000008+I20000000000+0000003690+Z
119240001119240077-000011-Y   119240006001023809858TISSUE-WRAP GOLD 10PCE 0000001000+00001753+00000+0001T   00001753+0000001321          1400 KU1112               2AZ
119240002119240077-000452     119240006003000284986G/BAG METALLIC MED EMB 0000001000+00001490+00000+0001T   00001490+0000001321          1400 KU1112               2AZ
119241000119241               119241               170213JY     1400+00000+JY0000007629+0000007629+000000000+000001069+0000008690+0000000008+I20000000000+0000008690+Z
119241001119241002-000878     119241006001023770967STRAINER TEA WIRE 7cm  0000001000+00001490+00000+0001T   00001490+0000001322          1400 KU1300               2AZ
119241002119241463-000363     119241006001023400673SWIM-SET MASK+SNORKEL  0000001000+00006139+00000+0001T   00006139+0000001322          1400 KU1785               2AZ
119242000119242               119242               170213JY     1400+00000+JY0000015832+0000015832+000000000+000002219+0000018051+0000000000+I40000018051+0000000000+Z
119242001119242072-020242     119242006003000053728PET BED COTTON TEXTILE 0000001000+00008771+00000+0001T   00008771+0000001324          1400 KU1870               2AZ
119242002119242072-020366     119242006003000452927PET PLACE MAT ASSTD COL0000001000+00002630+00000+0001T   00002630+0000001324          1400 KU1870               2AZ
119242003119242079-000201     119242006003000161430P/CRAYONS THERAPY 10PCE0000001000+00002630+00000+0001T   00002630+0000001324          1400 KU1130               2AZ
119242004119242077-000115     119242006001023834225WRAP METALLIC 700mmx1m 0000001000+00001753+00000+0001T   00001753+0000001324          1400 KU1112               2AZ
119242005119242112-116069     119242006009681820277TCS CARRIER BAG JUMBO  0000001000+00000048+00000+0001T   00000048+0000001324          1400 KU1090               2AZ
119243000119243               119243               170213JY     1400+00000+JY0000003507+0000003507+000000000+000000491+0000003990+0000000008+I20000000000+0000003990+Z
119243001119243018-000136     119243006001023659026MUG OCC LOVE W/PLUSH   0000001000+00003507+00000+0001T   00003507+0000001326          1400 KU1515               2AZ
119244000119244               119244               170213JY     1400+00000+JY0000003938+0000003938+000000000+000000556+0000004494+0000000000+I40000004494+0000000000+Z
119244001119244080-000133-A   119244006003000647019MINI VALENTINES CARD   0000001000+00000437+00000+0001T   00000437+0000001341          1400 KU1112               2AZ
119244002119244080-000133     119244006003000535613CARD&ENV MINI ASTD DSGN0000004000+00000437+00000+0001T   00000437+0000001341          1400 KU1112               2AZ
119244003119244080-000101     119244006003000236732CARD&ENVLPE FEMALE     0000001000+00001753+00000+0001T   00001753+0000001341          1400 KU1112               2AZ
119245000119245               119245               170213JY     1400+00000+JY0000006174+0000006174+000000000+000000865+0000007030+0000000009+I20000000000+0000007030+Z
119245001119245039-000798     119245006001023617774CANDLES TEALITE BOX-50 0000001000+00006139+00000+0001T   00006139+0000001341          1400 KU1510               2AZ
119245002119245112-116038     119245006009681820246TCS CARRIER BAG MIDI   0000001000+00000035+00000+0001T   00000035+0000001341          1400 KU1090               2AZ
119246000119246               119246               170213JY     1400+00000+JY0000005294+0000005294+000000000+000000743+0000006037+0000000000+I40000006037+0000000000+Z
119246001119246040-000923     119246006001023587831CANDLE-HOLDER GLS 13.5 0000002000+00001753+00000+0001T   00001753+0000001345          1400 KU1510               2AZ
119246002119246112-116038     119246006009681820246TCS CARRIER BAG MIDI   0000001000+00000035+00000+0001T   00000035+0000001345          1400 KU1090               2AZ
119246003119246080-000104     119246006003000236978CARD&ENVLP MALE AFR    0000001000+00001753+00000+0001T   00001753+0000001345          1400 KU1112               2AZ
119247000119247               119247               170213JY     1400+00000+JY0000004155+0000004155+000000000+000000583+0000004730+0000000008+I20000000000+0000004730+Z
119247001119247466-001801     119247006001023343482BALLS TABLE-TENNIS BOX60000001000+00001490+00000+0001T   00001490+0000001347          1400 KU1785               2AZ
119247002119247466-000515     119247006001023477408BALLS TENNIS BAG-OF-3  0000001000+00002630+00000+0001T   00002630+0000001347          1400 KU1785               2AZ
119247003119247112-116038     119247006009681820246TCS CARRIER BAG MIDI   0000001000+00000035+00000+0001T   00000035+0000001347          1400 KU1090               2AZ
119248000119248               119248               170213JY     1400+00000+JY0000010785+0000010785+000000000+000001511+0000012290+0000000006+I20000000000+0000012290+Z
119248001119248079-001000     119248006003000448470CANVAS A2 WOOD MOUNTED 0000001000+00007016+00000+0001T   00007016+0000001357          1400 KU1130               2AZ
119248002119248567-011307     119248006003000598557BOOK ACTIVITY FUN WATER0000001000+00003069+00000+0001T   00003069+0000001357          1400 KU1757               2AZ
119248003119248564-000012     119248006001023130075BUBBLE BOTTLE MAGIC    0000001000+00000700+00000+0001T   00000700+0000001357          1400 KU1131               2AZ
119249000119249               119249               170213JY     1400+00000+JY0000012279+0000012279+000000000+000001720+0000013990+0000000009+I20000000000+0000013990+Z
119249001119249368-000113     119249006001023780874PLUSH BLINGED LOVE 30cm0000001000+00012279+00000+0001T   00012279+0000001357          1400 KU1745               2AZ
119250000119250               119250               170213JY     1400+00000+JY0000000048+0000000048+000000000+000000007+0000000050+0000000005+I20000000000+0000000050+Z
119250001119250112-116069     119250006009681820277TCS CARRIER BAG JUMBO  0000001000+00000048+00000+0001T   00000048+0000001358          1400 KU1090               2AZ
119251000119251               119251               170213JY     1400+00000+JY0000016272+0000016272+000000000+000002279+0000018551+0000000000+I40000018551+0000000000+Z
119251001119251001-091415     119251006003000329113W/GLS OCC. LOVE 2PC 2800000001000+00008771+00000+0001T   00009648+0006471400          1400 KU1515               2AZ
119251002119251466-000620     119251006003000537617BALL SPORT SET 5.5CM   0000001000+00003946+00000+0001T   00003946+0000001400          1400 KU1785               2AZ
119251003119251133-098000     119251006003000460779TABLE RUNNER 33x180cm  0000001000+00003507+00000+0001T   00004385+0008121400          1400 KU1212               2AZ
119251004119251112-116069     119251006009681820277TCS CARRIER BAG JUMBO  0000001000+00000048+00000+0001T   00000048+0000001400          1400 KU1090               2AZ
119252000119252               119252               170213JY     1400+00000+JY0000001753+0000001753+000000000+000000246+0000001990+0000000009+I20000000000+0000001990+Z
119252001119252200-003024     119252006001023657299REFUSE BAGS 20PCE BLACK0000001000+00001753+00000+0001T   00001753+0000001401          1400 KU1214               2AZ
119253000119253               119253               170213JY     1400+00000+JY0000002629+0000002629+000000000+000000369+0000002990+0000000008+I20000000000+0000002990+Z
119253001119253200-003024     119253006001023657299REFUSE BAGS 20PCE BLACK0000001000+00001753+00000+0001T   00001753+0000001444          1400 KU1214               2AZ
119253002119253903-000521     119253006001704009652SWT GUMMY SOFT GUMS    0000001000+00000876+00000+0001T   00000876+0000001444          1400 KU1150               2AZ
119254000119254               119254               170213JY     1400+00000+JY0000020384+0000020384+000000000+000002857+0000023241+0000000000+I40000023241+0000000000+Z
119254001119254079-105611     119254006003000249596ART+CRAFT INK PAD 1CLR 0000002000+00002630+00000+0001T   00002630+0000001456          1400 KU1130               2AZ
119254002119254079-105603     119254006003000230907ART+CRAFT STAMP ROUND  0000002000+00001578+00000+0001T   00001578+0000001456          1400 KU1130               2AZ
119254003119254018-000177     119254006001023797513MUG MINI LOVE ASSTD    0000003000+00000700+00000+0001T   00000700+0000001456          1400 KU1515               2AZ
119254004119254079-000116     119254006001023907592ART PAINT-BY-NUMB 12PCE0000001000+00003507+00000+0001T   00003507+0000001456          1400 KU1130               2AZ
119254005119254024-000168-B   119254006003000674916T/PLATE BAKEWARE ROASTE0000001000+00005262+00000+0001T   00005262+0000001456          1400 KU1300               2AZ
119254006119254112-116069     119254006009681820277TCS CARRIER BAG JUMBO  0000001000+00000048+00000+0001T   00000048+0000001456          1400 KU1090               2AZ
119254007119254079-009702-G   119254008427973060787PAPER SIRIO A2 FUSHIA  0000001000+00001051+00000+0001T   00001051+0000001456          1400 KU1130               2AZ
119255000119255               119255               170213JY     1400+00000+JY0000001490+0000001490+000000000+000000209+0000001690+0000000009+I20000000000+0000001690+Z
119255001119255565-004101     119255006003000548033BALL BOUNCING EGG      0000001000+00001490+00000+0001T   00001490+0000001456          1400 KU1745               2AZ
119256000119256               119256               170213JY     1400+00000+JY0000008771+0000008771+000000000+000001228+0000009990+0000000009+I20000000000+0000009990+Z
119256001119256027-000230     119256006001023606198MOP COMPLETE WONDERMOP 0000001000+00008771+00000+0001T   00008771+0000001459          1400 KU1212               2AZ
119257000119257               119257               170213JY     1400+00000+JY0000003150+0000003150+000000000+000000444+0000003590+0000000004+I20000000000+0000003590+Z
119257001119257903-000151     119257006009803374411SWT SML RND R/BOW LOLLY0000006000+00000525+00000+0001T   00000525+0000001501          1400 KU1150               2AZ
119258000119258               119258               170213JY     1400+00000+JY0000017542+0000017542+000000000+000002456+0000019990+0000000008+I20000000000+0000019990+Z
119258001119258031-001005     119258006003000334520P/FRAME COLL WDN 35X35C0000001000+00017542+00000+0001T   00017542+0000001503          1400 KU1510               2AZ
119259000119259               119259               170213JY     1400+00000+JY0000011401+0000011401+000000000+000001597+0000012990+0000000008+I20000000000+0000012990+Z
119259001119259077-000456     119259006003000285549G/BAG METALLIC JMB EMB 0000001000+00002630+00000+0001T   00002630+0000001504          1400 KU1112               2AZ
119259002119259368-000012     119259006003000610464PLUSH BEAR 30cm SITTING0000001000+00008771+00000+0001T   00008771+0000001504          1400 KU1745               2AZ
119260000119260               119260               170213JY     1400+00000+JY0000000874+0000000874+000000000+000000124+0000000990+0000000008+I20000000000+0000000990+Z
119260001119260083-000049     119260004891035200024CIG-LIGHTER DISPOSABLE 0000002000+00000437+00000+0001T   00000437+0000001505          1400 KU1315               2AZ
119261000119261               119261               170213JY     1400+00000+JY0000003156+0000003156+000000000+000000442+0000003598+0000000000+I40000003598+0000000000+Z
119261001119261077-000303     119261006001023593757GIFT-BAG PAPER MED     0000002000+00001578+00000+0001T   00001578+0000001538          1400 KU1112               2AZ
119262000119262               119262               170213JY     1400+00000+JY0000014032+0000014032+000000000+000001966+0000015998+0000000000+I40000015998+0000000000+Z
119262001119262077-000299-A   119262006003000670888GIFT-BAG PAPER JMB LOVE0000001000+00001753+00000+0001T   00001753+0000001541          1400 KU1112               2AZ
119262002119262368-000111     119262006001023780812PLUSH BEAR/DOG 29CM    0000001000+00012279+00000+0001T   00012279+0000001541          1400 KU1745               2AZ
119263000119263               119263               170213JY     1400+00000+JY0000010568+0000010568+000000000+000001481+0000012049+0000000000+I40000012049+0000000000+Z
119263001119263562-000011     119263006003000600984PLAY DOUGH NEON TUBE   0000001000+00003507+00000+0001T   00003507+0000001543          1400 KU1755               2AZ
119263002119263566-000317     119263006003000524204STICKER TAPE 2PCS      0000001000+00003507+00000+0001T   00003507+0000001543          1400 KU1130               2AZ
119263003119263562-000010     119263006001023762528KID'S PLAY DOUGH       0000001000+00002630+00000+0001T   00002630+0000001543          1400 KU1755               2AZ
119263004119263903-000123     119263006925925909280SWEET GS MINI MALLOWS  0000001000+00000876+00000+0001T   00000876+0000001543          1400 KU1150               2AZ
119263005119263112-116069     119263006009681820277TCS CARRIER BAG JUMBO  0000001000+00000048+00000+0001T   00000048+0000001543          1400 KU1090               2AZ
119264000119264               119264               170213JY     1400+00000+JY0000007500+0000007500+000000000+000001051+0000008551+0000000000+I40000008551+0000000000+Z
119264001119264903-000215     119264006002099001214SWT GS MALLOW TWIST PAC0000001000+00001753+00000+0001T   00001753+0000001546          1400 KU1150               2AZ
119264002119264006-000166-C   119264006003000516377BALLOONS LRG 6PC PINK  0000001000+00001314+00000+0001T   00001314+0000001546          1400 KU1131               2AZ
119264003119264112-116069     119264006009681820277TCS CARRIER BAG JUMBO  0000001000+00000048+00000+0001T   00000048+0000001546          1400 KU1090               2AZ
119264004119264050-000887-Z   119264006001023821966PADLOCK COMB 10-DIGIT  0000001000+00004385+00000+0001T   00004385+0000001546          1400 KU1855               2AZ
119265000119265               119265               170213JY     1400+00000+JY0000017321+0000017321+000000000+000002429+0000019750+0000000000+I40000019750+0000000000+Z
119265001119265112-116069     119265006009681820277TCS CARRIER BAG JUMBO  0000001000+00000048+00000+0001T   00000048+0000001550          1400 KU1090               2AZ
119265002119265266-001020     119265006001023791689MASK & 2 SWORDS PL SET 0000003000+00004823+00000+0001T   00004823+0000001550          1400 KU1710               2AZ
119265003119265304-001204     119265006001023737984FLOWER OCC. TEDDY/ROSES0000002000+00001402+00000+0001T   00001490+0006471550          1400 KU1510               2AZ
119266000119266               119266               170213JY     1400+00000+JY0000007013+0000007013+000000000+000000983+0000007990+0000000006+I20000000000+0000007990+Z
119266001119266077-000235     119266006003000160211GIFT-RIBBON ROLL METALC0000001000+00002630+00000+0001T   00002630+0000001552          1400 KU1112               2AZ
119266002119266077-000151     119266006008766114676GIFT-WRAP C/PHANE ASSTD0000001000+00000876+00000+0001T   00000876+0000001552          1400 KU1112               2AZ
119266003119266103-000090     119266006001023795786WOVEN HEART SHAPED     0000001000+00003507+00000+0001T   00003507+0000001552          1400 KU1300               2AZ
119267000119267               119267               170213JY     1400+00000+JY0000010920+0000010920+000000000+000001530+0000012450+0000000000+I40000012450+0000000000+Z
119267001119267268-000072     119267006003000548552KITE BIRD 2ASSTD       0000001000+00004385+00000+0001T   00004385+0000001556          1400 KU1785               2AZ
119267002119267268-000063     119267006003000305872KITE DELTA 4 ASSTDTD   0000001000+00003507+00000+0001T   00003507+0000001556          1400 KU1785               2AZ
119267003119267007-000566     119267006003000640898NOVELTY PHONE NOTE-PAD 0000002000+00001490+00000+0001T   00001490+0000001556          1400 KU1130               2AZ
119267004119267112-116069     119267006009681820277TCS CARRIER BAG JUMBO  0000001000+00000048+00000+0001T   00000048+0000001556          1400 KU1090               2AZ
119268000119268               119268               170213JY     1400+00000+JY0000004385+0000004385+000000000+000000614+0000004990+0000000009+I20000000000+0000004990+Z
119268001119268031-080508     119268006001023802415P/FRAME PL 22X11CM LOVE0000001000+00004385+00000+0001T   00004385+0000001556          1400 KU1510               2AZ
119269000119269               119269               170213JY     1400+00000+JY0000007712+0000007712+000000000+000001081+0000008793+0000000000+I40000008793+0000000000+Z
119269001119269903-000519     119269006001704012805SWT MS LIQ-O-GHETTI    0000002000+00001227+00000+0001T   00001227+0000001559          1400 KU1150               2AZ
119269002119269903-000844     119269005010478432567SWT CANDY DL LUV HEARTS0000002000+00001314+00000+0001T   00001314+0000001559          1400 KU1150               2AZ
119269003119269006-000111     119269006003000519385BALLOONS LARGE 12PCE   0000001000+00002630+00000+0001T   00002630+0000001559          1400 KU1131               2AZ
119270000119270               119270               170213JY     1400+00000+JY0000009470+0000009470+000000000+000001327+0000010797+0000000000+I40000010797+0000000000+Z
119270001119270301-085001     119270006003000297610ORN WATERBALL LOVE ASST0000001000+00004823+00000+0001T   00004823+0000001602          1400 KU1505               2AZ
119270002119270077-000303     119270006001023593757GIFT-BAG PAPER MED     0000001000+00001578+00000+0001T   00001578+0000001602          1400 KU1112               2AZ
119270003119270030-000030-A   119270006003000249305PLAQUE GLASS LOVE      0000001000+00003069+00000+0001T   00003069+0000001602          1400 KU1505               2AZ
119271000119271               119271               170213JY     1400+00000+JY0000000788+0000000788+000000000+000000111+0000000890+0000000009+I20000000000+0000000890+Z
119271001119271903-000138     119271006002099004314SWT GS WINE GUMS 60G   0000001000+00000788+00000+0001T   00000788+0000001607          1400 KU1150               2AZ
119272000119272               119272               170213JY     1400+00000+JY0000000876+0000000876+000000000+000000123+0000000990+0000000009+I20000000000+0000000990+Z
119272001119272076-000017     119272006001811010022TWINE COTTON 50g-BALL  0000001000+00000876+00000+0001T   00000876+0000001629          1400 KU1810               2AZ
119273000119273               119273               170213JY     1400+00000+JY0000018585+0000018585+000000000+000002605+0000021190+0000000000+I20000000000+0000021190+Z
119273001119273054-000801     119273006001023119230WIRE-BRUSH+HANDLE FINE 0000001000+00001753+00000+0001T   00001753+0000001630          1400 KU1810               2AZ
119273002119273048-000870     119273006003000525287LANTERN B/LIGHT MINI   0000001000+00003507+00000+0001T   00003507+0000001630          1400 KU1305               2AZ
119273003119273080-000124     119273006003000297733CARD & ENV VALENTINES  0000001000+00001578+00000+0001T   00001578+0000001630          1400 KU1112               2AZ
119273004119273206-000620     119273006003000631797BACK SCRATCHER EXTEND  0000001000+00002630+00000+0001T   00002630+0000001630          1400 KU1321               2AZ
119273005119273206-000630     119273006003000631919SPECTACLE CLEANING BRUS0000001000+00001227+00000+0001T   00001227+0000001630          1400 KU1321               2AZ
119273006119273028-000918     119273006001023777232BBQ BSTN-BRUSHS 2PC H&L0000001000+00003507+00000+0001T   00003507+0000001630          1400 KU1305               2AZ
119273007119273206-000190     119273006003000631346PEELER FINGER 2PC      0000001000+00002630+00000+0001T   00003069+0008171630          1400 KU1321               2AZ
119273008119273077-000289     119273006001023901996GIFT BOX 20x25x11cm    0000001000+00001753+00000+0001T   00001753+0000001630          1400 KU1112               2AZ
119274000119274               119274               170213JY     1400+00000+JY0000010081+0000010081+000000000+000001414+0000011495+0000000000+I40000011495+0000000000+Z
119274001119274079-105611     119274006003000249596ART+CRAFT INK PAD 1CLR 0000001000+00002630+00000+0001T   00002630+0000001632          1400 KU1130               2AZ
119274002119274079-105601     119274006003000231171ART+CRAFT STAMP ASSTD  0000001000+00001753+00000+0001T   00001753+0000001632          1400 KU1130               2AZ
119274003119274566-000066     119274006003000283675STICKERS GLITTER 25PCS 0000001000+00001753+00000+0001T   00001753+0000001632          1400 KU1130               2AZ
119274004119274566-001228     119274006003000284153STICKERS CRYSTAL ASSTD 0000001000+00001753+00000+0001T   00001753+0000001632          1400 KU1130               2AZ
119274005119274566-000352     119274006001023809261STICKERS LASER ASSTD   0000001000+00002192+00000+0001T   00002192+0000001632          1400 KU1130               2AZ
119275000119275               119275               170213JY     1400+00000+JY0000004382+0000004382+000000000+000000615+0000004990+0000000007+I20000000000+0000004990+Z
119275001119275006-000240     119275006003000460595PARTY INVITES 12PC     0000002000+00001753+00000+0001T   00001753+0000001632          1400 KU1131               2AZ
119275002119275039-000323     119275006001023524171BIRTHDAY-CANDLES 24PCE 0000001000+00000876+00000+0001T   00000876+0000001632          1400 KU1510               2AZ
119276000119276               119276               170213JY     1400+00000+JY0000000035+0000000035+000000000+000000005+0000000040+0000000000+I20000000000+0000000040+Z
119276001119276112-116038     119276006009681820246TCS CARRIER BAG MIDI   0000001000+00000035+00000+0001T   00000035+0000001633          1400 KU1090               2AZ
119277000119277               119277               170213JY     1400+00000+JY0000003507+0000003507+000000000+000000491+0000003990+0000000008+I20000000000+0000003990+Z
119277001119277004-071206     119277006003000605156USB CABLE CHARGER      0000001000+00003507+00000+0001T   00003507+0000001634          1400 KU1310               2AZ
119278000119278               119278               170213JY     1400+00000+JY0000008819+0000008819+000000000+000001235+0000010054+0000000000+I40000010054+0000000000+Z
119278001119278368-000012     119278006003000610464PLUSH BEAR 30cm SITTING0000001000+00008771+00000+0001T   00008771+0000001637          1400 KU1745               2AZ
119278002119278112-116069     119278006009681820277TCS CARRIER BAG JUMBO  0000001000+00000048+00000+0001T   00000048+0000001637          1400 KU1090               2AZ
119279000119279               119279               170213JY     1400+00000+JY0000003331+0000003331+000000000+000000467+0000003790+0000000008+I20000000000+0000003790+Z
119279001119279077-000303     119279006001023593757GIFT-BAG PAPER MED     0000001000+00001578+00000+0001T   00001578+0000001646          1400 KU1112               2AZ
119279002119279903-000081     119279006001704014076SWT F/PASTILLES 100G   0000001000+00001753+00000+0001T   00001753+0000001646          1400 KU1150               2AZ
119280000119280               119280               170213JY     1400+00000+JY0000002188+0000002188+000000000+000000307+0000002490+0000000005+I20000000000+0000002490+Z
119280001119280071-081101-A   119280006003000326549GLUE-STICK 25g BLISTER 0000001000+00000788+00000+0001T   00000788+0000001647          1400 KU1130               2AZ
119280002119280018-000177     119280006001023797513MUG MINI LOVE ASSTD    0000002000+00000700+00000+0001T   00000700+0000001647          1400 KU1515               2AZ
119281000119281               119281               170213JY     1400+00000+JY0000004734+0000004734+000000000+000000663+0000005390+0000000007+I20000000000+0000005390+Z
119281001119281903-000518     119281006001704012782SWT STRAWS S/BERRY 100g0000001000+00001227+00000+0001T   00001227+0000001704          1400 KU1150               2AZ
119281002119281133-083230     119281006001023714305T/CLOTH 132x183cm OBLNG0000001000+00003507+00000+0001T   00003507+0000001704          1400 KU1212               2AZ
119282000119282               119282               170213JY     1400+00000+JY0000007134+0000007134+000000000+000001000+0000008130+0000000004+I20000000000+0000008130+Z
119282001119282304-000720     119282006001023843050F/BUNCH ROSE 6-HEAD AST0000001000+00002630+00000+0001T   00002630+0000001707          1400 KU1510               2AZ
119282002119282103-000088     119282006001023795625BAMBOO BASKET  W/HNDLES0000001000+00003069+00000+0001T   00003069+0000001707          1400 KU1300               2AZ
119282003119282018-000177     119282006001023797513MUG MINI LOVE ASSTD    0000002000+00000700+00000+0001T   00000700+0000001707          1400 KU1515               2AZ
119282004119282112-116038     119282006009681820246TCS CARRIER BAG MIDI   0000001000+00000035+00000+0001T   00000035+0000001707          1400 KU1090               2AZ
119283000119283               119283               170213JY     1400+00000+JY0000003507+0000003507+000000000+000000491+0000003990+0000000008+I20000000000+0000003990+Z
119283001119283301-000835     119283006003000035014ORN FAIRY SITTING 4ASST0000001000+00003507+00000+0001T   00003507+0000001724          1400 KU1505               2AZ
119284000119284               119284               170213JY     1400+00000+JY0000011401+0000011401+000000000+000001597+0000012990+0000000008+I20000000000+0000012990+Z
119284001119284031-000924     119284006001023669964P/FRAME COLLAGE PL     0000001000+00008771+00000+0001T   00008771+0000001725          1400 KU1510               2AZ
119284002119284077-000270     119284006003000395453GIFT-BAG PPR JMB 33X45 0000001000+00002630+00000+0001T   00002630+0000001725          1400 KU1112               2AZ
119285000119285               119285               170213JY     1400+00000+JY0000014641+0000014641+000000000+000002053+0000016694+0000000000+I40000016694+0000000000+Z
119285001119285089-000192-A   119285006001023901774KEY-CHAIN ACRYLIC      0000001000+00000876+00000+0001T   00000876+0000001728          1400 KU1205               2AZ
119285002119285003-000142     119285006001023725578ORN SIGN HANGING ASST  0000001000+00007016+00000+0001T   00007016+0000001728          1400 KU1505               2AZ
119285003119285027-001018     119285006003000622702BROOM COVER MICROFIBRE 0000001000+00002630+00000+0001T   00002630+0000001728          1400 KU1212               2AZ
119285004119285566-000535     119285006003000284719STICKER SPARKLE EMBOSS 0000001000+00001753+00000+0001T   00001753+0000001728          1400 KU1130               2AZ
119285005119285077-000452     119285006003000284986G/BAG METALLIC MED EMB 0000001000+00001490+00000+0001T   00001490+0000001728          1400 KU1112               2AZ
119285006119285089-000192-A   119285006001023901774KEY-CHAIN ACRYLIC      0000001000+00000876+00000+0001T   00000876+0000001728          1400 KU1205               2AZ
119286000119286               119286               170213JY     1400+00000+JY0000001613+0000001613+000000000+000000226+0000001839+0000000000+I40000001839+0000000000+Z
119286001119286018-000127     119286006001023380289MUG OCC STRAIGHT LOVE  0000001000+00001578+00000+0001T   00001753+0006471731          1400 KU1515               2AZ
119286002119286112-116038     119286006009681820246TCS CARRIER BAG MIDI   0000001000+00000035+00000+0001T   00000035+0000001731          1400 KU1090               2AZ
119287000119287               119287               170213JY     1400+00000+JY0000003067+0000003067+000000000+000000430+0000003490+0000000007+I20000000000+0000003490+Z
119287001119287078-000030     119287006003000151141YAMAYO SUPERGLUE 8g    0000001000+00001753+00000+0001T   00001753+0000001731          1400 KU1810               2AZ
119287002119287903-004950     119287006002580020304SWT APRICOT SURPRISE   0000001000+00001314+00000+0001T   00001314+0000001731          1400 KU1150               2AZ
119288000119288               119288               170213JY     1400+00000+JY0000002630+0000002630+000000000+000000369+0000002999+0000000000+I40000002999+0000000000+Z
119288001119288562-000010     119288006001023762528KID'S PLAY DOUGH       0000001000+00002630+00000+0001T   00002630+0000001733          1400 KU1755               2AZ
119289000119289               119289               170213JY     1400+00000+JY0000014377+0000014377+000000000+000002016+0000016393+0000000000+I40000016393+0000000000+Z
119289001119289079-013107     119289006001023909275CRAFT BUTTERFLY 3PACK  0000001000+00002192+00000+0001T   00002192+0000001736          1400 KU1130               2AZ
119289002119289566-000070     119289006003000283798STICKERS POP UP ASSTD  0000002000+00001753+00000+0001T   00001753+0000001736          1400 KU1130               2AZ
119289003119289079-013032-G   119289006003000496389FOAM BUTTERFLIES       0000001000+00002192+00000+0001T   00002192+0000001736          1400 KU1130               2AZ
119289004119289077-000245     119289006001023759214GIFT-RIBBON METALLICx2 0000001000+00001227+00000+0001T   00001227+0000001736          1400 KU1112               2AZ
119289005119289007-000602     119289006003000541270BOOK COVER 2M SOLID COL0000001000+00002630+00000+0001T   00002630+0000001736          1400 KU1130               2AZ
119289006119289007-000601     119289006003000541195BOOK COVER ADHESIVE 2M 0000001000+00002630+00000+0001T   00002630+0000001736          1400 KU1130               2AZ
119290000119290               119290               170213JY     1400+00000+JY0000017234+0000017234+000000000+000002415+0000019640+0000000009+I20000000000+0000019640+Z
119290001119290112-116069     119290006009681820277TCS CARRIER BAG JUMBO  0000001000+00000048+00000+0001T   00000048+0000001738          1400 KU1090               2AZ
119290002119290368-000175     119290006003000270316PLUSH BEAR 4 ASSTD 18CM0000001000+00006139+00000+0001T   00006139+0000001738          1400 KU1745               2AZ
119290003119290368-000001     119290006003000097982Plush Bear 25cm        0000001000+00004385+00000+0001T   00004385+0000001738          1400 KU1745               2AZ
119290004119290080-000124     119290006003000297733CARD & ENV VALENTINES  0000002000+00001578+00000+0001T   00001578+0000001738          1400 KU1112               2AZ
119290005119290565-000888     119290006003000607846NOVELTY MESH BALL      0000002000+00001753+00000+0001T   00001753+0000001738          1400 KU1745               2AZ
119291000119291               119291               170213JY     1400+00000+JY0000008639+0000008639+000000000+000001212+0000009851+0000000000+I40000009851+0000000000+Z
119291001119291077-000251     119291006003000639106GIFT-DECOR RIBBON      0000001000+00002630+00000+0001T   00002630+0000001743          1400 KU1112               2AZ
119291002119291077-000010-D   119291006001023123886CREPE-PAPER WHITE      0000001000+00000788+00000+0001T   00000788+0000001743          1400 KU1112               2AZ
119291003119291077-000010-C   119291006001023123879CREPE-PAPER RED        0000001000+00000788+00000+0001T   00000788+0000001743          1400 KU1112               2AZ
119291004119291104-000030     119291006001023803481BASKET PL 28x20x12cm   0000001000+00004385+00000+0001T   00004385+0000001743          1400 KU1210               2AZ
119291005119291112-116069     119291006009681820277TCS CARRIER BAG JUMBO  0000001000+00000048+00000+0001T   00000048+0000001743          1400 KU1090               2AZ
119292000119292               119292               170213JY     1400+00000+JY0000010569+0000010569+000000000+000001480+0000012049+0000000000+I40000012049+0000000000+Z
119292001119292018-005009     119292006001023725608MUG W/PLUSH-BEAR LOVE  0000003000+00003507+00000+0001T   00003507+0000001746          1400 KU1515               2AZ
119292002119292112-116069     119292006009681820277TCS CARRIER BAG JUMBO  0000001000+00000048+00000+0001T   00000048+0000001746          1400 KU1090               2AZ
119293000119293               119293               170213JY     1400+00000+JY0000009032+0000009032+000000000+000001266+0000010290+0000000008+I20000000000+0000010290+Z
119293001119293466-000607     119293005907757480466BALL VOLLEYBALL 19cm   0000001000+00007893+00000+0001T   00007893+0000001747          1400 KU1785               2AZ
119293002119293903-000087     119293006001704000161SWT SPECKLED-EGGS 50G  0000001000+00001139+00000+0001T   00001139+0000001747          1400 KU1150               2AZ
119294000119294               119294               170213JY     1400+00000+JY0000008638+0000008638+000000000+000001212+0000009850+0000000000+I20000000000+0000009850+Z
119294001119294079-003002     119294006003000447886A/TUBE 75ML RED        0000001000+00001753+00000+0001T   00001753+0000001749          1400 KU1130               2AZ
119294002119294079-003000     119294006003000448838A/TUBE 75ML WHITE      0000001000+00001753+00000+0001T   00001753+0000001749          1400 KU1130               2AZ
119294003119294112-116069     119294006009681820277TCS CARRIER BAG JUMBO  0000001000+00000048+00000+0001T   00000048+0000001749          1400 KU1090               2AZ
119294004119294079-013032-C   119294006003000389520POLY SHAPES            0000001000+00001578+00000+0001T   00001578+0000001749          1400 KU1130               2AZ
119294005119294077-000011-C   119294006001023808523TISSUE 10xSHTS RED     0000001000+00000876+00000+0001T   00000876+0000001749          1400 KU1112               2AZ
119294006119294103-000461     119294006001023795229FLOWER BASKET 26cm-DIA 0000001000+00002630+00000+0001T   00002630+0000001749          1400 KU1300               2AZ
119295000119295               119295               170213JY     1400+00000+JY0000021079+0000021079+000000000+000002956+0000024035+0000000000+I40000024035+0000000000+Z
119295001119295304-001115     119295006001023738240FLOWER-BUNCH CARNATIONS0000001000+00005262+00000+0001T   00005262+0000001752          1400 KU1510               2AZ
119295002119295112-116069     119295006009681820277TCS CARRIER BAG JUMBO  0000001000+00000048+00000+0001T   00000048+0000001752          1400 KU1090               2AZ
119295003119295206-000245     119295006003000680818BOTTLE CLEANER PLASTIC 0000001000+00002192+00000+0001T   00002192+0000001752          1400 KU1321               2AZ
119295004119295567-014132     119295006003000560028BOOK COLOURING 24 PAGE 0000001000+00000876+00000+0001T   00000876+0000001752          1400 KU1757               2AZ
119295005119295206-000220     119295006003000631704EGG TIMER COLOUR-CHANGE0000001000+00002630+00000+0001T   00002630+0000001752          1400 KU1321               2AZ
119295006119295079-000206     119295006003000639700PENCIL CRAYONS THERAPY 0000001000+00001753+00000+0001T   00001753+0000001752          1400 KU1130               2AZ
119295007119295018-000177     119295006001023797513MUG MINI LOVE ASSTD    0000005000+00000700+00000+0001T   00000700+0000001752          1400 KU1515               2AZ
119295008119295206-000630     119295006003000631919SPECTACLE CLEANING BRUS0000002000+00001227+00000+0001T   00001227+0000001752          1400 KU1321               2AZ
119295009119295903-000119     119295006001704007337SWT COCONUT-WHEEL      0000003000+00000788+00000+0001T   00000788+0000001752          1400 KU1150               2AZ
119296000119296               119296               170213JY     1400+00000+JY0000003679+0000003679+000000000+000000517+0000004196+0000000000+I40000004196+0000000000+Z
119296001119296903-003080     119296005907029004673SWT SNACK STIX CHOC 50g0000003000+00000876+00000+0001T   00000876+0000001753          1400 KU1150               2AZ
119296002119296079-009702-D   119296008427973059354PAPER SIRIO A2 RED COL 0000001000+00001051+00000+0001T   00001051+0000001753          1400 KU1130               2AZ
119297000119297               119297               170213JY     1400+00000+JY0000002628+0000002628+000000000+000000369+0000002990+0000000007+I20000000000+0000002990+Z
119297001119297903-003080     119297005907029004673SWT SNACK STIX CHOC 50g0000003000+00000876+00000+0001T   00000876+0000001753          1400 KU1150               2AZ
119298000119298               119298               170213JY     1400+00000+JY0000010904+0000010904+000000000+000001528+0000012432+0000000000+I40000012432+0000000000+Z
119298001119298174-008034     119298006009654960610TRAVEL BOTTLES 150ml   0000001000+00001928+00000+0001T   00001928+0000001756          1400 KU1205               2AZ
119298002119298174-008026     119298006009654960429TRAVEL BOTTLES 2-PACK  0000001000+00003069+00000+0001T   00003069+0000001756          1400 KU1205               2AZ
119298003119298112-116038     119298006009681820246TCS CARRIER BAG MIDI   0000001000+00000035+00000+0001T   00000035+0000001756          1400 KU1090               2AZ
119298004119298174-008024     119298006009654960368TRAVEL BOTTLES 2-PACK  0000001000+00001928+00000+0001T   00001928+0000001756          1400 KU1205               2AZ
119298005119298174-008032     119298006009654960603TRAVEL BOTTLES 50ml    0000001000+00001928+00000+0001T   00001928+0000001756          1400 KU1205               2AZ
119298006119298174-008025     119298006009654960399TRAVEL TUBS 4-PACK 30ml0000001000+00002016+00000+0001T   00002016+0000001756          1400 KU1205               2AZ
119299000119299               119299               170213JY     1400+00000+JY0000005085+0000005085+000000000+000000712+0000005790+0000000007+I20000000000+0000005790+Z
119299001119299077-000303     119299006001023593757GIFT-BAG PAPER MED     0000001000+00001578+00000+0001T   00001578+0000001756          1400 KU1112               2AZ
119299002119299018-000130     119299006001023867537MUG OCC LOVE MINI+HEART0000001000+00003507+00000+0001T   00003507+0000001756          1400 KU1515               2AZ
119300000119300               119300               170213JY     1400+00000+JY0000001578+0000001578+000000000+000000221+0000001790+0000000009+I20000000000+0000001790+Z
119300001119300077-000303     119300006001023593757GIFT-BAG PAPER MED     0000001000+00001578+00000+0001T   00001578+0000001757          1400 KU1112               2AZ
119301000119301               119301               170213JY     1400+00000+JY0000003453+0000003453+000000000+000000484+0000003930+0000000007+I20000000000+0000003930+Z
119301001119301028-000795     119301006001023812063SKEWERS 10cm 100PCE 3mm0000001000+00000964+00000+0001T   00000964+0000001757          1400 KU1305               2AZ
119301002119301028-000797     119301006001023812124SKEWERS 15cm 100PCE    0000001000+00000876+00000+0001T   00000876+0000001757          1400 KU1305               2AZ
119301003119301112-116038     119301006009681820246TCS CARRIER BAG MIDI   0000001000+00000035+00000+0001T   00000035+0000001757          1400 KU1090               2AZ
119301004119301028-000799     119301006001023812186SKEWERS BAMBOO 100PCE  0000001000+00001578+00000+0001T   00001578+0000001757          1400 KU1305               2AZ
119302000119302               119302               170213JY     1400+00000+JY0000020653+0000020653+000000000+000002895+0000023548+0000000000+I40000023548+0000000000+Z
119302001119302077-000456     119302006003000285549G/BAG METALLIC JMB EMB 0000001000+00002630+00000+0001T   00002630+0000001759          1400 KU1112               2AZ
119302002119302112-116069     119302006009681820277TCS CARRIER BAG JUMBO  0000001000+00000048+00000+0001T   00000048+0000001759          1400 KU1090               2AZ
119302003119302301-085007     119302006003000673698ORN OCC. LOVE S/PLAQUE 0000001000+00007893+00000+0001T   00007893+0000001759          1400 KU1505               2AZ
119302004119302142-000814     119302006001023183910GLOVES RUBBER  MEDIUM  0000001000+00001753+00000+0001T   00001753+0000001759          1400 KU1810               2AZ
119302005119302080-000127     119302006003000424351VALENTINES DAY 36x24CM 0000001000+00002192+00000+0001T   00002192+0000001759          1400 KU1112               2AZ
119302006119302077-000900     119302006003000410446G/WRAP 700mmx1m ANIMAL 0000001000+00001753+00000+0001T   00001753+0000001759          1400 KU1112               2AZ
119302007119302077-000922     119302006003000413935G/WRAP 700mmx2m FLOWER 0000001000+00002192+00000+0001T   00002192+0000001759          1400 KU1112               2AZ
119302008119302077-000914     119302006003000413454G/WRAP 700mmx2m ANIMAL 0000001000+00002192+00000+0001T   00002192+0000001759          1400 KU1112               2AZ
119303000119303               119303               170213JY     1400+00000+JY0000003419+0000003419+000000000+000000479+0000003898+0000000000+I40000003898+0000000000+Z
119303001119303566-000068     119303006003000418046POP UP LOVE 2 ASSTD    0000001000+00002192+00000+0001T   00002192+0000001800          1400 KU1130               2AZ
119303002119303903-000510     119303006001704012621SWEET MS ZBDZ S/BERRY  0000001000+00001227+00000+0001T   00001227+0000001800          1400 KU1150               2AZ
119304000119304               119304               170213JY     1400+00000+JY0000001753+0000001753+000000000+000000246+0000001990+0000000009+I20000000000+0000001990+Z
119304001119304077-000382     119304006003000247820GIFT-BAG MED 18X23CM   0000001000+00001753+00000+0001T   00001753+0000001800          1400 KU1112               2AZ
119305000119305               119305               170213JY     1400+00000+JY0000000000+0000000000+000000000+000000000+0000000000+0000000000+I20000000000+0000000000+Z
119305001119305903-004950     119305006002580020304SWT APRICOT SURPRISE   0000001000+00001314+00000+0001T   00001314+0000001804          1400 KU1150               2 Z
119305002119305252-000013     119305006001023488107CURTN-HOOK R6 ACETYLx500000001000+00000876+00000+0001T   00000876+0000001804          1400 KU1810               2 Z
119305003119305150-004030-H   119305006001023435798BATH-PLUG RUBBER WHITE 0000001000+00000613+00000+0001T   00000613+0000001804          1400 KU1810               2 Z
119305004119305036-000606     119305006003000322213WASHING PEGS PACK 20   0000001000+00000876+00000+0001T   00001314+0008191804          1400 KU1212               2 Z
119305005119305133-000035     119305006001023768889CASSEROLE HOLDER CANVAS0000001000+00005262+00000+0001T   00005262+0000001804          1400 KU1212               2 Z
119305006119305150-004030-H   119305006001023435798BATH-PLUG RUBBER WHITE 0000001000-00000613+00000+0001T   00000613+0000001804          1400 KU18101IC            2 Z
119305007119305903-004950     119305006002580020304SWT APRICOT SURPRISE   0000001000-00001314+00000+0001T   00001314+0000001804          1400 KU11501IC            2 Z
119305008119305252-000013     119305006001023488107CURTN-HOOK R6 ACETYLx500000001000-00000876+00000+0001T   00000876+0000001804          1400 KU18101IC            2 Z
119305009119305036-000606     119305006003000322213WASHING PEGS PACK 20   0000001000-00000876+00000+0001T   00001314+0008191804          1400 KU12121IC            2 Z
119305010119305133-000035     119305006001023768889CASSEROLE HOLDER CANVAS0000001000-00005262+00000+0001T   00005262+0000001804          1400 KU12121IC            2 Z
119306000119306               119306               170213JY     1400+00000+JY0000003990+0000003990+000000000+000000559+0000004540+0000000009+I20000000000+0000004540+Z
119306001119306563-000317-B   119306006001023776174SERVIETTES PLN WHT PK400000002000+00001314+00000+0001T   00001314+0000001805          1400 KU12141IC            2AZ
119306002119306112-116069     119306006009681820277TCS CARRIER BAG JUMBO  0000001000+00000048+00000+0001T   00000048+0000001805          1400 KU1090               2AZ
119306003119306563-000317-B   119306006001023776174SERVIETTES PLN WHT PK400000001000+00001314+00000+0001T   00001314+0000001805          1400 KU1214               2AZ
119307000119307               119307               170213JY     1400+00000+JY0000019420+0000019420+000000000+000002723+0000022143+0000000000+I40000022143+0000000000+Z
119307001119307903-000081     119307006001704014076SWT F/PASTILLES 100G   0000001000+00001753+00000+0001T   00001753+0000001806          1400 KU1150               2AZ
119307002119307903-002901     119307005996071650655QUICK MILK 5 S/BERRY   0000001000+00001578+00000+0001T   00001578+0000001806          1400 KU1150               2AZ
119307003119307018-000130     119307006001023867537MUG OCC LOVE MINI+HEART0000001000+00003507+00000+0001T   00003507+0000001806          1400 KU1515               2AZ
119307004119307304-001204     119307006001023737984FLOWER OCC. TEDDY/ROSES0000001000+00001402+00000+0001T   00001490+0006471806          1400 KU1510               2AZ
119307005119307903-000082     119307006001704014892SWT MINI WINE GUMS 100G0000001000+00001753+00000+0001T   00001753+0000001806          1400 KU1150               2AZ
119307006119307903-003080     119307005907029004673SWT SNACK STIX CHOC 50g0000002000+00000876+00000+0001T   00000876+0000001806          1400 KU1150               2AZ
119307007119307112-116069     119307006009681820277TCS CARRIER BAG JUMBO  0000001000+00000048+00000+0001T   00000048+0000001806          1400 KU1090               2AZ
119307008119307301-085001     119307006003000297610ORN WATERBALL LOVE ASST0000001000+00004823+00000+0001T   00004823+0000001806          1400 KU1505               2AZ
119307009119307016-006516     119307006003000351503S/JAR GLS CHECK 150ML  0000001000+00001490+00000+0001T   00001490+0000001806          1400 KU1300               2AZ
119307010119307077-000310     119307006001023608635GIFT-BAG 18X23CM GLOSS 0000001000+00001314+00000+0001T   00001314+0000001806          1400 KU1112               2AZ
119308000119308               119308               170213JY     1400+00000+JY0000002100+0000002100+000000000+000000294+0000002390+0000000004+I20000000000+0000002390+Z
119308001119308018-000177     119308006001023797513MUG MINI LOVE ASSTD    0000003000+00000700+00000+0001T   00000700+0000001807          1400 KU1515               2AZ
119309000119309               119309               170213JY     1400+00000+JY0000009641+0000009641+000000000+000001351+0000010990+0000000002+I20000000000+0000010990+Z
119309001119309036-000606     119309006003000322213WASHING PEGS PACK 20   0000001000+00000876+00000+0001T   00001314+0008191807          1400 KU1212               2AZ
119309002119309018-000177     119309006001023797513MUG MINI LOVE ASSTD    0000001000+00000700+00000+0001T   00000700+0000001807          1400 KU1515               2AZ
119309003119309150-004030-H   119309006001023435798BATH-PLUG RUBBER WHITE 0000001000+00000613+00000+0001T   00000613+0000001807          1400 KU1810               2AZ
119309004119309903-004950     119309006002580020304SWT APRICOT SURPRISE   0000001000+00001314+00000+0001T   00001314+0000001807          1400 KU1150               2AZ
119309005119309252-000013     119309006001023488107CURTN-HOOK R6 ACETYLx500000001000+00000876+00000+0001T   00000876+0000001807          1400 KU1810               2AZ
119309006119309133-000035     119309006001023768889CASSEROLE HOLDER CANVAS0000001000+00005262+00000+0001T   00005262+0000001807          1400 KU1212               2AZ
119310000119310               119310               170213JY     1400+00000+JY0000001753+0000001753+000000000+000000246+0000001990+0000000009+I20000000000+0000001990+Z
119310001119310077-000382     119310006003000247820GIFT-BAG MED 18X23CM   0000001000+00001753+00000+0001T   00001753+0000001808          1400 KU1112               2AZ
B11930600                                          170213JY563-000317-B   18050723SLAVE 2     KU11IC0000003000+0000002000+0000000000000+
M17021391                              CASH        JYSLAVE 2                       Z-REPORT No.   674TOTAL (Sales - Refunds)           8310.90       CASH TO BE BANKED                 3705.40       DEBIT CARDS                          0.00       CREDIT CARDS                      4605.50       Z-READING                         8310.90       AIRTIME DEBIT CARD SALES             0.00       AIRTIME CARD SALES                   0.00       OVERS/UNDERS                         0.00       AIRTIME CASH SALES                   0.00       GIFT CARDS                           0.00       GIFT CARD CASH SALES                 0.00       T O T A L  CASH PAYOUTS              0.00                                                                                                                                                                                                                                                                                                                                                      Z
M17021392                              CASH        JYABSENT                                                                                                                                                                                          ANNUAL LEAVE                                                                                                                                                                                    DAY OFF                                                                                                                                                                                         COMMENTS                                                                                                                                                                                                                                                                                                                                                                                       Z
Y17021300                                          JY00000000761079+000103
ZJY17021319563 SLAVE 2      SALES DATA                     NEXT INVOICE NO.  119311 0674
X JY Slave 2 First invoice 119207 170213 Last invoice 119310 170213 Next invoice 119311 Total number of records 000000415 clbackup completed 19:56:43
