121734000121734               121734               170213JY     1400+00000+JY0000002192+0000002192+000000000+000000307+0000002490+0000000009+I20000000000+0000002490+Z
121734001121734080-000127     121734006003000424351VALENTINES DAY 36x24CM 0000001000+00002192+00000+0001T   00002192+0000000907          1400 ST1112               3AZ
121735000121735               121735               170213JY     1400+00000+JY0000014518+0000014518+000000000+000002033+0000016551+0000000000+I40000016551+0000000000+Z
121735001121735112-116069     121735006009681820277TCS CARRIER BAG JUMBO  0000001000+00000048+00000+0001T   00000048+0000000909          1400 ST1090               3AZ
121735002121735039-000799     121735006001023692382CANDLES TEALITE 100PCE 0000001000+00008771+00000+0001T   00008771+0000000909          1400 ST1510               3AZ
121735003121735486-001012     121735006001023820907CLOCK ALARM SQR 10X12CM0000001000+00004385+00000+0001T   00004385+0000000909          1400 ST1510               3AZ
121735004121735046-000012     121735006904708013062BATTERIES AA  CARD-OF-40000001000+00001314+00000+0001T   00001314+0000000909          1400 ST1312               3AZ
121736000121736               121736               170213JY     1400+00000+JY0000014248+0000014248+000000000+000001999+0000016247+0000000000+I40000016247+0000000000+Z
121736001121736112-116069     121736006009681820277TCS CARRIER BAG JUMBO  0000001000+00000048+00000+0001T   00000048+0000000911          1400 ST1090               3AZ
121736002121736200-003024     121736006001023657299REFUSE BAGS 20PCE BLACK0000002000+00001753+00000+0001T   00001753+0000000911          1400 ST1214               3AZ
121736003121736046-000015     121736006001023680839BATTERIES SIZE:D   2PCE0000002000+00002367+00000+0001T   00002367+0000000911          1400 ST1312               3AZ
121736004121736140-001004     121736006001023880932FLY-RIBBONS 4PCE PL    0000004000+00001490+00000+0001T   00001490+0000000911          1400 ST1830               3AZ
121737000121737               121737               170213JY     1400+00000+JY0000024505+0000024505+000000000+000003435+0000027940+0000000000+I40000027940+0000000000+Z
121737001121737112-116069     121737006009681820277TCS CARRIER BAG JUMBO  0000001000+00000048+00000+0001T   00000048+0000000914          1400 ST1090               3AZ
121737002121737566-000865     121737006001023788412STICKER ASSTD          0000001000+00001753+00000+0001T   00001753+0000000914          1400 ST1130               3AZ
121737003121737077-000303     121737006001023593757GIFT-BAG PAPER MED     0000002000+00001578+00000+0001T   00001578+0000000914          1400 ST1112               3AZ
121737004121737080-000113     121737006003000237449CARD&ENVLPE - LOVE     0000002000+00001753+00000+0001T   00001753+0000000914          1400 ST1112               3AZ
121737005121737030-000031-A   121737006003000457588PLAQUE W/WORDS ASSTD   0000001000+00004385+00000+0001T   00004823+0006470914          1400 ST1505               3AZ
121737006121737301-085004     121737006003000420469ORN LOVE PLAQUE 21X10CM0000001000+00003507+00000+0001T   00003946+0006470914          1400 ST1505               3AZ
121737007121737039-001023     121737006003000466337CANDLE TEA-LITE METALIC0000001000+00001753+00000+0001T   00001753+0000000914          1400 ST1510               3AZ
121737008121737018-000177     121737006001023797513MUG MINI LOVE ASSTD    0000001000+00000700+00000+0001T   00000700+0000000914          1400 ST1515               3AZ
121737009121737006-000166-D   121737006003000516490BALLOONS LRG 6PC RED   0000001000+00001314+00000+0001T   00001314+0000000914          1400 ST1131               3AZ
121737010121737051-002406     121737006003000139415SPRAY PL TRIGGER 700ml 0000001000+00001753+00000+0001T   00001753+0000000914          1400 ST1820               3AZ
121737011121737051-005578     121737006001023534118GARDEN-WEEDER 275mm    0000001000+00002630+00000+0001T   00002630+0000000914          1400 ST1820               3AZ
121738000121738               121738               170213JY     1400+00000+JY0000001578+0000001578+000000000+000000221+0000001790+0000000009+I20000000000+0000001790+Z
121738001121738077-000303     121738006001023593757GIFT-BAG PAPER MED     0000001000+00001578+00000+0001T   00001578+0000000915          1400 ST1112               3AZ
121739000121739               121739               170213JY     1400+00000+JY0000004385+0000004385+000000000+000000614+0000004990+0000000009+I20000000000+0000004990+Z
121739001121739031-005840     121739006001023481412P/FRAME-CLIP 30X40CM   0000001000+00004385+00000+0001T   00004385+0000000920          1400 ST1510               3AZ
121740000121740               121740               170213JY     1400+00000+JY0000004383+0000004383+000000000+000000615+0000004990+0000000008+I20000000000+0000004990+Z
121740001121740466-000514     121740006001023196620BALLS TENNIS COLR BAG-30000001000+00002630+00000+0001T   00002630+0000000921          1400 ST1785               3AZ
121740002121740077-000467     121740006003000329991GIFT-BAG STAMP 18X23CM 0000001000+00001753+00000+0001T   00001753+0000000921          1400 ST1112               3AZ
121741000121741               121741               170213JY     1400+00000+JY0000001490+0000001490+000000000+000000209+0000001690+0000000009+I20000000000+0000001690+Z
121741001121741565-004101     121741006003000548033BALL BOUNCING EGG      0000001000+00001490+00000+0001T   00001490+0000000922          1400 ST1745               3AZ
121742000121742               121742               170213JY     1400+00000+JY0000005260+0000005260+000000000+000000738+0000005990+0000000008+I20000000000+0000005990+Z
121742001121742108-003023     121742006003000665471TUMBLER W/STRAW 550ml  0000002000+00002630+00000+0001T   00002630+0000000926          1400 ST1210               3AZ
121743000121743               121743               170213JY     1400+00000+JY0000001927+0000001927+000000000+000000271+0000002190+0000000008+I20000000000+0000002190+Z
121743001121743079-013032     121743006003000389209SET LETTERS 2 ASSTD    0000001000+00001753+00000+0001T   00001753+0000000927          1400 ST1130               3AZ
121743002121743007-000407     121743006009635831717BK JOTTER A5 48-PG F/M 0000001000+00000174+00000+0001T   00000174+0000000927          1400 ST1130               3AZ
121744000121744               121744               170213JY     1400+00000+JY0000010132+0000010132+000000000+000001420+0000011550+0000000002+I20000000000+0000011550+Z
121744001121744112-116069     121744006009681820277TCS CARRIER BAG JUMBO  0000001000+00000048+00000+0001T   00000048+0000000931          1400 ST1090               3AZ
121744002121744024-000003     121744006001023462206S/BURNER COVERS ASSTD  0000001000+00004385+00000+0001T   00004385+0000000931          1400 ST1300               3AZ
121744003121744072-020352     121744006003000561667DOG/CAT BOWL PL 19cm   0000001000+00003069+00000+0001T   00003069+0000000931          1400 ST1870               3AZ
121744004121744072-020366     121744006003000452927PET PLACE MAT ASSTD COL0000001000+00002630+00000+0001T   00002630+0000000931          1400 ST1870               3AZ
121745000121745               121745               170213JY     1400+00000+JY0000013203+0000013203+000000000+000001850+0000015053+0000000000+I40000015053+0000000000+Z
121745001121745077-000358     121745006003000329977GIFT-BAG KIDS 25X32CM  0000001000+00001753+00000+0001T   00001753+0000000936          1400 ST1112               3AZ
121745002121745112-116069     121745006009681820277TCS CARRIER BAG JUMBO  0000001000+00000048+00000+0001T   00000048+0000000936          1400 ST1090               3AZ
121745003121745368-000637     121745006001023874092PLUSH BEAR SLEEPING LOV0000001000+00011402+00000+0001T   00012279+0006470936          1400 ST1745               3AZ
121746000121746               121746               170213JY     1400+00000+JY0000006047+0000006047+000000000+000000849+0000006896+0000000000+I40000006896+0000000000+Z
121746001121746027-783008     121746006001246334595SCOURERS FOAM MAGIC    0000002000+00001402+00000+0001T   00001402+0000000957          1400 ST1212               3AZ
121746002121746077-000299     121746006003000395576G/BAG 32x25cm LRG LOVE 0000001000+00001490+00000+0001T   00001490+0000000957          1400 ST1112               3AZ
121746003121746077-000308     121746006001023595812GIFT-BAG 33X45CM E/DAY 0000001000+00001753+00000+0001T   00001753+0000000957          1400 ST1112               3AZ
121747000121747               121747               170213JY     1400+00000+JY0000001578+0000001578+000000000+000000221+0000001790+0000000009+I20000000000+0000001790+Z
121747001121747080-000124     121747006003000297733CARD & ENV VALENTINES  0000001000+00001578+00000+0001T   00001578+0000000957          1400 ST1112               3AZ
121748000121748               121748               170213JY     1400+00000+JY0000012279-0000012279-000000000+000001720-0000014000-0000000001+I20000000000+0000014000-Z
121748001121748368-000111     121748006001023780812PLUSH BEAR/DOG 29CM    0000001000-00012279+00000+0001T   00012279+0000001007          1400 ST17451IC            3 Z
121749000121749               121749               170213JY     1400+00000+JY0000005258+0000005258+000000000+000000738+0000005990+0000000006+I20000000000+0000005990+Z
121749001121749565-000888     121749006003000607846NOVELTY MESH BALL      0000002000+00001753+00000+0001T   00001753+0000001012          1400 ST1745               3AZ
121749002121749903-003080     121749005907029004673SWT SNACK STIX CHOC 50g0000001000+00000876+00000+0001T   00000876+0000001012          1400 ST1150               3AZ
121749003121749566-000200     121749006003000384174STICKER PUFFY NEON     0000001000+00000876+00000+0001T   00000876+0000001012          1400 ST1130               3AZ
121750000121750               121750               170213JY     1400+00000+JY0000000613+0000000613+000000000+000000086+0000000690+0000000009+I20000000000+0000000690+Z
121750001121750083-000055     121750006003000003853LIGHTER ELCTRNC REFILBL0000001000+00000613+00000+0001T   00000613+0000001013          1400 ST1315               3AZ
121751000121751               121751               170213JY     1400+00000+JY0000003507+0000003507+000000000+000000491+0000003990+0000000008+I20000000000+0000003990+Z
121751001121751301-085004     121751006003000420469ORN LOVE PLAQUE 21X10CM0000001000+00003507+00000+0001T   00003946+0006471015          1400 ST1505               3AZ
121752000121752               121752               170213JY     1400+00000+JY0000002452+0000002452+000000000+000000344+0000002790+0000000006+I20000000000+0000002790+Z
121752001121752083-000055     121752006003000003853LIGHTER ELCTRNC REFILBL0000004000+00000613+00000+0001T   00000613+0000001016          1400 ST1315               3AZ
121753000121753               121753               170213JY     1400+00000+JY0000001314+0000001314+000000000+000000184+0000001498+0000000000+I40000001498+0000000000+Z
121753001121753107-004105     121753006002923010504BUCKET 9L OPEN         0000001000+00001314+00000+0001T   00001314+0000001020          1400 ST1210               3AZ
121754000121754               121754               170213JY     1400+00000+JY0000003198+0000003198+000000000+000000449+0000003640+0000000007+I20000000000+0000003640+Z
121754001121754027-000081     121754006001023760371SCOURING PADS 10PCE    0000001000+00001139+00000+0001T   00001139+0000001026          1400 ST1212               3AZ
121754002121754306-000020     121754006001023743145POCKET-TISSUES 10PCE   0000001000+00000306+00000+0001T   00000306+0000001026          1400 ST1200               3AZ
121754003121754133-000036     121754006003000133376CLOTHS M/PURPOSE PACK-20000001000+00001753+00000+0001T   00001753+0000001026          1400 ST1212               3AZ
121755000121755               121755               170213JY     1400+00000+JY0000009241+0000009241+000000000+000001296+0000010537+0000000000+I40000010537+0000000000+Z
121755001121755112-116038     121755006009681820246TCS CARRIER BAG MIDI   0000001000+00000035+00000+0001T   00000035+0000001033          1400 ST1090               3AZ
121755002121755403-000502-A   121755006003000467099M/BANK TIN 8x12.5cm    0000002000+00002630+00000+0001T   00002630+0000001033          1400 ST1510               3AZ
121755003121755403-000501     121755006003000247677M/BANK PL POSTBOX 20CM 0000001000+00003946+00000+0001T   00003946+0000001033          1400 ST1510               3AZ
121756000121756               121756               170213JY     1400+00000+JY0000001753+0000001753+000000000+000000246+0000001990+0000000009+I20000000000+0000001990+Z
121756001121756200-003026     121756006003000276448REFUSE BAGS 10PCE GREEN0000001000+00001753+00000+0001T   00001753+0000001037          1400 ST1214               3AZ
121757000121757               121757               170213JY     1400+00000+JY0000001753+0000001753+000000000+000000246+0000001990+0000000009+I20000000000+0000001990+Z
121757001121757007-000724     121757006003000225958NOTE MAGNETIC 60SHTS   0000001000+00001753+00000+0001T   00001753+0000001110          1400 ST1130               3AZ
121758000121758               121758               170213JY     1400+00000+JY0000004559+0000004559+000000000+000000639+0000005198+0000000000+I40000005198+0000000000+Z
121758001121758004-071200     121758006003000073399USB 2.0 CARD RDR/WRTR  0000001000+00003069+00000+0001T   00003069+0000001112          1400 ST1310               3AZ
121758002121758071-005214     121758006003000152544CELLOTAPE SUPER REFILL 0000001000+00001490+00000+0001T   00001490+0000001112          1400 ST1130               3AZ
121759000121759               121759               170213JY     1400+00000+JY0000004385+0000004385+000000000+000000614+0000004999+0000000000+I40000004999+0000000000+Z
121759001121759368-000049     121759006003000536955PLUSH BEAR 15cm LOVE   0000001000+00004385+00000+0001T   00004385+0000001114          1400 ST1745               3AZ
121760000121760               121760               170213JY     1400+00000+JY0000002630+0000002630+000000000+000000369+0000002990+0000000009+I20000000000+0000002990+Z
121760001121760077-000235     121760006003000160211GIFT-RIBBON ROLL METALC0000001000+00002630+00000+0001T   00002630+0000001117          1400 ST1112               3AZ
121761000121761               121761               170213JY     1400+00000+JY0000017589+0000017589+000000000+000002464+0000020053+0000000000+I40000020053+0000000000+Z
121761001121761112-116069     121761006009681820277TCS CARRIER BAG JUMBO  0000001000+00000048+00000+0001T   00000048+0000001128          1400 ST1090               3AZ
121761002121761266-008057     121761006001023791597COMBAT VEHICLES+ACCESS 0000001000+00012279+00000+0001T   00012279+0000001128          1400 ST1710               3AZ
121761003121761263-000145     121761006001023708298MOTORBIKE PL           0000001000+00005262+00000+0001T   00005262+0000001128          1400 ST1710               3AZ
121762000121762               121762               170213JY     1400+00000+JY0000001753+0000001753+000000000+000000246+0000001990+0000000009+I20000000000+0000001990+Z
121762001121762072-000232     121762006003000236060DOG-COL REFLCTV 35-51cm0000001000+00001753+00000+0001T   00001753+0000001129          1400 ST1870               3AZ
121763000121763               121763               170213JY     1400+00000+JY0000015828+0000015828+000000000+000002219+0000018047+0000000000+I40000018047+0000000000+Z
121763001121763112-116069     121763006009681820277TCS CARRIER BAG JUMBO  0000001000+00000048+00000+0001T   00000048+0000001137          1400 ST1090               3AZ
121763002121763079-000801     121763006003000539642ART+CRAFT COLOUR       0000001000+00003507+00000+0001T   00003507+0000001137          1400 ST1130               3AZ
121763003121763007-000547     121763006001023847966N/BOOK/DIARY+PEN ASSTD 0000001000+00004385+00000+0001T   00004385+0000001137          1400 ST1130               3AZ
121763004121763566-000345     121763006001023994837STICKER ALBUM+STICKERS 0000001000+00002630+00000+0001T   00002630+0000001137          1400 ST1130               3AZ
121763005121763079-008998     121763006003000339686ART+CRAFT  CANVAS      0000001000+00002630+00000+0001T   00002630+0000001137          1400 ST1130               3AZ
121763006121763903-000220     121763006001704007368SWT JELLY BEANS 60G    0000001000+00000876+00000+0001T   00000876+0000001137          1400 ST1150               3AZ
121763007121763071-005679     121763006003000151479PUNCH FILE 13X6.5CM    0000001000+00000876+00000+0001T   00001314+0008151137          1400 ST1130               3AZ
121763008121763039-000323     121763006001023524171BIRTHDAY-CANDLES 24PCE 0000001000+00000876+00000+0001T   00000876+0000001137          1400 ST1510               3AZ
121764000121764               121764               170213JY     1400+00000+JY0000009602+0000009602+000000000+000001346+0000010948+0000000000+I40000010948+0000000000+Z
121764001121764112-116069     121764006009681820277TCS CARRIER BAG JUMBO  0000001000+00000048+00000+0001T   00000048+0000001148          1400 ST1090               3AZ
121764002121764079-009700-D   121764006003000545711PAPER SIRIO A4 RED COL.0000002000+00000306+00000+0001T   00000306+0000001148          1400 ST1130               3AZ
121764003121764200-000065     121764006001023323675DRINKING-STRAWS 38PCE  0000001000+00000613+00000+0001T   00000613+0000001148          1400 ST1214               3AZ
121764004121764200-000011     121764006003000613489DISPOSABLE BAG ZIPER   0000001000+00003507+00000+0001T   00003507+0000001148          1400 ST1214               3AZ
121764005121764200-000002     121764006925406821049BAG FLIP TOP 80PCE     0000001000+00002192+00000+0001T   00002192+0000001148          1400 ST1214               3AZ
121764006121764162-010779     121764006001492107790#TAG LDS ALICEBAND     0000001000+00002630+00000+0001T   00002630+0000001148          1400 ST1160               3AZ
121765000121765               121765               170213JY     1400+00000+JY0000002192+0000002192+000000000+000000307+0000002490+0000000009+I20000000000+0000002490+Z
121765001121765200-000002     121765006925406821049BAG FLIP TOP 80PCE     0000001000+00002192+00000+0001T   00002192+0000001149          1400 ST1214               3AZ
121766000121766               121766               170213JY     1400+00000+JY0000003542+0000003542+000000000+000000496+0000004030+0000000008+I20000000000+0000004030+Z
121766001121766018-000136     121766006001023659026MUG OCC LOVE W/PLUSH   0000001000+00003507+00000+0001T   00003507+0000001157          1400 ST1515               3AZ
121766002121766112-116038     121766006009681820246TCS CARRIER BAG MIDI   0000001000+00000035+00000+0001T   00000035+0000001157          1400 ST1090               3AZ
121767000121767               121767               170213JY     1400+00000+JY0000000439+0000000439+000000000+000000062+0000000500+0000000001+I20000000000+0000000500+Z
121767001121767072-000235     121767006003000236183DOG-COLLAR REFLECTIVE  0000001000-00001314+00000+0001T   00001753+0008191204          1400 ST18701IC            3 Z
121767002121767072-000327     121767006001023858504CAT-COLLAR+BELL        0000001000+00001753+00000+0001T   00001753+0000001204          1400 ST1870               3AZ
121768000121768               121768               170213JY     1400+00000+JY0000022621+0000022621+000000000+000003172+0000025793+0000000000+I40000025793+0000000000+Z
121768001121768079-009702-D   121768008427973059354PAPER SIRIO A2 RED COL 0000004000+00001051+00000+0001T   00001051+0000001206          1400 ST1130               3AZ
121768002121768566-000316     121768006003000521821STICKERS MIRRORS HOME  0000003000+00006139+00000+0001T   00006139+0000001206          1400 ST1130               3AZ
121769000121769               121769               170213JY     1400+00000+JY0000001753+0000001753+000000000+000000246+0000001990+0000000009+I20000000000+0000001990+Z
121769001121769306-007302     121769006001023730954BACK-SCRATCH+MASSAGE-WH0000001000+00001753+00000+0001T   00001753+0000001206          1400 ST1200               3AZ
121770000121770               121770               170213JY     1400+00000+JY0000004116+0000004116+000000000+000000578+0000004690+0000000004+I20000000000+0000004690+Z
121770001121770079-009702-D   121770008427973059354PAPER SIRIO A2 RED COL 0000002000+00001051+00000+0001T   00001051+0000001221          1400 ST1130               3AZ
121770002121770903-004950     121770006002580020304SWT APRICOT SURPRISE   0000001000+00001314+00000+0001T   00001314+0000001221          1400 ST1150               3AZ
121770003121770018-000177     121770006001023797513MUG MINI LOVE ASSTD    0000001000+00000700+00000+0001T   00000700+0000001221          1400 ST1515               3AZ
121771000121771               121771               170213JY     1400+00000+JY0000011427+0000011427+000000000+000001603+0000013030+0000000000+I40000013030+0000000000+Z
121771001121771112-116038     121771006009681820246TCS CARRIER BAG MIDI   0000001000+00000035+00000+0001T   00000035+0000001225          1400 ST1090               3AZ
121771002121771077-000383     121771006003000247943GIFT-BAG 11X14CM S/COL 0000002000+00000788+00000+0001T   00000788+0000001225          1400 ST1112               3AZ
121771003121771206-000630     121771006003000631919SPECTACLE CLEANING BRUS0000008000+00001227+00000+0001T   00001227+0000001225          1400 ST1321               3AZ
121772000121772               121772               170213JY     1400+00000+JY0000003243+0000003243+000000000+000000455+0000003690+0000000008+I20000000000+0000003690+Z
121772001121772054-000801     121772006001023119230WIRE-BRUSH+HANDLE FINE 0000001000+00001753+00000+0001T   00001753+0000001226          1400 ST1810               3AZ
121772002121772140-001004     121772006001023880932FLY-RIBBONS 4PCE PL    0000001000+00001490+00000+0001T   00001490+0000001226          1400 ST1830               3AZ
121773000121773               121773               170213JY     1400+00000+JY0000005610+0000005610+000000000+000000787+0000006390+0000000007+I20000000000+0000006390+Z
121773001121773077-000299     121773006003000395576G/BAG 32x25cm LRG LOVE 0000002000+00001490+00000+0001T   00001490+0000001226          1400 ST1112               3AZ
121773002121773077-000270     121773006003000395453GIFT-BAG PPR JMB 33X45 0000001000+00002630+00000+0001T   00002630+0000001226          1400 ST1112               3AZ
121774000121774               121774               170213JY     1400+00000+JY0000001753+0000001753+000000000+000000246+0000001990+0000000009+I20000000000+0000001990+Z
121774001121774079-000206     121774006003000639700PENCIL CRAYONS THERAPY 0000001000+00001753+00000+0001T   00001753+0000001244          1400 ST1130               3AZ
121775000121775               121775               170213JY     1400+00000+JY0000003507+0000003507+000000000+000000491+0000003998+0000000000+I40000003998+0000000000+Z
121775001121775018-005009     121775006001023725608MUG W/PLUSH-BEAR LOVE  0000001000+00003507+00000+0001T   00003507+0000001248          1400 ST1515               3AZ
121776000121776               121776               170213JY     1400+00000+JY0000001753+0000001753+000000000+000000246+0000001990+0000000009+I20000000000+0000001990+Z
121776001121776077-000011-Y   121776006001023809858TISSUE-WRAP GOLD 10PCE 0000001000+00001753+00000+0001T   00001753+0000001249          1400 ST1112               3AZ
121777000121777               121777               170213JY     1400+00000+JY0000005996+0000005996+000000000+000000841+0000006830+0000000007+I20000000000+0000006830+Z
121777001121777565-000859     121777006001023691361SUNGLASSES GIANT       0000001000+00001753+00000+0001T   00001753+0000001257          1400 ST1745               3AZ
121777002121777077-000303     121777006001023593757GIFT-BAG PAPER MED     0000001000+00001578+00000+0001T   00001578+0000001257          1400 ST1112               3AZ
121777003121777466-000515     121777006001023477408BALLS TENNIS BAG-OF-3  0000001000+00002630+00000+0001T   00002630+0000001257          1400 ST1785               3AZ
121777004121777112-116038     121777006009681820246TCS CARRIER BAG MIDI   0000001000+00000035+00000+0001T   00000035+0000001257          1400 ST1090               3AZ
121778000121778               121778               170213JY     1400+00000+JY0000004415+0000004415+000000000+000000619+0000005034+0000000000+I40000005034+0000000000+Z
121778001121778162-096647     121778006001492966472#TAG EARRINGS KIDS     0000001000+00001753+00000+0001T   00001753+0000001303          1400 ST1160               3AZ
121778002121778018-000177     121778006001023797513MUG MINI LOVE ASSTD    0000002000+00000700+00000+0001T   00000700+0000001303          1400 ST1515               3AZ
121778003121778112-116038     121778006009681820246TCS CARRIER BAG MIDI   0000001000+00000035+00000+0001T   00000035+0000001303          1400 ST1090               3AZ
121778004121778903-000510     121778006001704012621SWEET MS ZBDZ S/BERRY  0000001000+00001227+00000+0001T   00001227+0000001303          1400 ST1150               3AZ
121779000121779               121779               170213JY     1400+00000+JY0000004820+0000004820+000000000+000000676+0000005490+0000000006+I20000000000+0000005490+Z
121779001121779566-000006     121779006001023671189STICKER-BOOK DRESS-UP  0000001000+00002630+00000+0001T   00002630+0000001312          1400 ST1130               3AZ
121779002121779566-000062     121779006001023689641S/BOOK STICKER GLITTER 0000001000+00000700+00000+0001T   00000876+0008151312          1400 ST1130               3AZ
121779003121779565-004101     121779006003000548033BALL BOUNCING EGG      0000001000+00001490+00000+0001T   00001490+0000001312          1400 ST1745               3AZ
121780000121780               121780               170213JY     1400+00000+JY0000000000+0000000000+000000000+000000000+0000000000+0000000000+I20000000000+0000000000+Z
121780001121780203-001247     121780006001023770813C/SCREW WAITER'S-FRIEND0000001000-00002630+00000+0001T   00002630+0000001329          1400 ST13001IC            3AZ
121780002121780203-001247     121780006001023770813C/SCREW WAITER'S-FRIEND0000001000+00002630+00000+0001T   00002630+0000001329          1400 ST13001IC            3 Z
121781000121781               121781               170213JY     1400+00000+JY0000031613+0000031613+000000000+000004429+0000036042+0000000000+I40000036042+0000000000+Z
121781001121781077-000380     121781006003000247585GIFT-BAG 33X45CM S/COL 0000001000+00002455+00000+0001T   00002455+0000001331          1400 ST1112               3AZ
121781002121781112-116069     121781006009681820277TCS CARRIER BAG JUMBO  0000001000+00000048+00000+0001T   00000048+0000001331          1400 ST1090               3AZ
121781003121781079-104303     121781006003000186259SKETCH PAD A3   48 PAGE0000001000+00003507+00000+0001T   00003507+0000001331          1400 ST1130               3AZ
121781004121781079-000261     121781006003000159727PAINT WATER COLOUR CAKE0000001000+00004385+00000+0001T   00004385+0000001331          1400 ST1130               3AZ
121781005121781079-011526     121781006003000408375GLITTER & SAND ART     0000001000+00003507+00000+0001T   00003507+0000001331          1400 ST1130               3AZ
121781006121781079-000358     121781006003000591046ART+CRAFT FELT-TIP PENS0000001000+00003069+00000+0001T   00003069+0000001331          1400 ST1130               3AZ
121781007121781079-006494     121781006003000159864GLITTER GLUE 5PCE 11cm 0000001000+00001490+00000+0001T   00001490+0000001331          1400 ST1130               3AZ
121781008121781079-000012     121781006001023655332P/CRAYONS 12-COL LONG  0000001000+00001753+00000+0001T   00001753+0000001331          1400 ST1130               3AZ
121781009121781079-000344     121781006001023904010FELT-TIP PENS 12PCE    0000001000+00002630+00000+0001T   00002630+0000001331          1400 ST1130               3AZ
121781010121781366-002811     121781006003000615650DRESS UP ACCESS RIBBON 0000001000+00005262+00000+0001T   00005262+0000001331          1400 ST1131               3AZ
121781011121781077-000934     121781006003000409921G/WRAP 700mmx5m BIRTHDA0000001000+00003507+00000+0001T   00003507+0000001331          1400 ST1112               3AZ
121782000121782               121782               170213JY     1400+00000+JY0000003505+0000003505+000000000+000000492+0000003990+0000000007+I20000000000+0000003990+Z
121782001121782018-000139     121782006003000547227MUG S/WARE SLANTED SHPE0000001000+00001753+00000+0001T   00002630+0008171341          1400 ST1515               3AZ
121782002121782077-000314     121782006003000181148GIFT-BAG 11X14CM MATT  0000001000+00000876+00000+0001T   00000876+0000001341          1400 ST1112               3AZ
121782003121782903-000897     121782008692806325207SWT CHOC DBL MINI ROLL 0000001000+00000876+00000+0001T   00000876+0000001341          1400 ST1150               3AZ
121783000121783               121783               170213JY     1400+00000+JY0000002630+0000002630+000000000+000000369+0000002999+0000000000+I40000002999+0000000000+Z
121783001121783366-000300     121783006001023902955DRESSUP TIARA FEATHER  0000001000+00002630+00000+0001T   00002630+0000001357          1400 ST1131               3AZ
121784000121784               121784               170213JY     1400+00000+JY0000002278+0000002278+000000000+000000319+0000002590+0000000007+I20000000000+0000002590+Z
121784001121784077-000303     121784006001023593757GIFT-BAG PAPER MED     0000001000+00001578+00000+0001T   00001578+0000001358          1400 ST1112               3AZ
121784002121784564-000012     121784006001023130075BUBBLE BOTTLE MAGIC    0000001000+00000700+00000+0001T   00000700+0000001358          1400 ST1131               3AZ
121785000121785               121785               170213JY     1400+00000+JY0000043234+0000043234+000000000+000006057+0000049291+0000000000+I40000049291+0000000000+Z
121785001121785466-009012     121785006003000577415FISHING ROD+REEL SET   0000001000+00014034+00000+0001T   00014034+0000001409          1400 ST1785               3AZ
121785002121785903-000194     121785006009826020616SWT CHOC RP LOLLY 25G  0000001000+00001314+00000+0001T   00001314+0000001409          1400 ST1150               3AZ
121785003121785304-000720     121785006001023843050F/BUNCH ROSE 6-HEAD AST0000001000+00002630+00000+0001T   00002630+0000001409          1400 ST1510               3AZ
121785004121785304-001204     121785006001023737984FLOWER OCC. TEDDY/ROSES0000001000+00001402+00000+0001T   00001490+0006471409          1400 ST1510               3AZ
121785005121785368-000637     121785006001023874092PLUSH BEAR SLEEPING LOV0000001000+00011402+00000+0001T   00012279+0006471409          1400 ST1745               3AZ
121785006121785301-085001     121785006003000297610ORN WATERBALL LOVE ASST0000001000+00004823+00000+0001T   00004823+0000001409          1400 ST1505               3AZ
121785007121785077-000299     121785006003000395576G/BAG 32x25cm LRG LOVE 0000001000+00001490+00000+0001T   00001490+0000001409          1400 ST1112               3AZ
121785008121785018-050000     121785006003000412679MUG OCC LOVE TWIN BEAR 0000001000+00006139+00000+0001T   00006139+0000001409          1400 ST1515               3AZ
121786000121786               121786               170213JY     1400+00000+JY0000013203+0000013203+000000000+000001850+0000015050+0000000003+I20000000000+0000015050+Z
121786001121786368-000637     121786006001023874092PLUSH BEAR SLEEPING LOV0000001000+00011402+00000+0001T   00012279+0006471411          1400 ST1745               3AZ
121786002121786112-116069     121786006009681820277TCS CARRIER BAG JUMBO  0000001000+00000048+00000+0001T   00000048+0000001411          1400 ST1090               3AZ
121786003121786903-000081     121786006001704014076SWT F/PASTILLES 100G   0000001000+00001753+00000+0001T   00001753+0000001411          1400 ST1150               3AZ
121787000121787               121787               170213JY     1400+00000+JY0000001753+0000001753+000000000+000000246+0000001990+0000000009+I20000000000+0000001990+Z
121787001121787565-000050     121787006001023906199SLIME BOMB DISPLAY BOX 0000001000+00001753+00000+0001T   00001753+0000001414          1400 ST1745               3AZ
121788000121788               121788               170213JY     1400+00000+JY0000018195+0000018195+000000000+000002552+0000020747+0000000000+I40000020747+0000000000+Z
121788001121788112-116069     121788006009681820277TCS CARRIER BAG JUMBO  0000001000+00000048+00000+0001T   00000048+0000001420          1400 ST1090               3AZ
121788002121788077-000475     121788006003000640775GIFT-BAG DESIGNER MED  0000001000+00002630+00000+0001T   00002630+0000001420          1400 ST1112               3AZ
121788003121788030-000031-A   121788006003000457588PLAQUE W/WORDS ASSTD   0000001000+00004385+00000+0001T   00004823+0006471420          1400 ST1505               3AZ
121788004121788080-000133     121788006003000535613CARD&ENV MINI ASTD DSGN0000002000+00000437+00000+0001T   00000437+0000001420          1400 ST1112               3AZ
121788005121788563-000317-G   121788006001023776341SERVIETTES BRIGHT ASSTD0000001000+00002630+00000+0001T   00002630+0000001420          1400 ST1214               3AZ
121788006121788077-000399     121788006003000139514GIFT BAG 18X23CM E/DAY 0000001000+00001490+00000+0001T   00001490+0000001420          1400 ST1112               3AZ
121788007121788077-000005-D   121788006003000414567PAPER TISSUE 50x70cm   0000001000+00001753+00000+0001T   00001753+0000001420          1400 ST1112               3AZ
121788008121788368-000049     121788006003000536955PLUSH BEAR 15cm LOVE   0000001000+00004385+00000+0001T   00004385+0000001420          1400 ST1745               3AZ
121789000121789               121789               170213JY     1400+00000+JY0000002240+0000002240+000000000+000000314+0000002554+0000000000+I40000002554+0000000000+Z
121789001121789080-000127     121789006003000424351VALENTINES DAY 36x24CM 0000001000+00002192+00000+0001T   00002192+0000001422          1400 ST1112               3AZ
121789002121789112-116069     121789006009681820277TCS CARRIER BAG JUMBO  0000001000+00000048+00000+0001T   00000048+0000001422          1400 ST1090               3AZ
121790000121790               121790               170213JY     1400+00000+JY0000014861+0000014861+000000000+000002084+0000016945+0000000000+I40000016945+0000000000+Z
121790001121790112-116069     121790006009681820277TCS CARRIER BAG JUMBO  0000001000+00000048+00000+0001T   00000048+0000001424          1400 ST1090               3AZ
121790002121790566-000950     121790006003000216048STICKERS 3 STYLES 100PC0000002000+00002192+00000+0001T   00002192+0000001424          1400 ST1130               3AZ
121790003121790071-001124     121790006001023802873MARKERS WHITEBOARD 3PCE0000001000+00002630+00000+0001T   00002630+0000001424          1400 ST1130               3AZ
121790004121790071-003000     121790006003000543229PEN BALL PEN 3PCE MULTI0000002000+00000876+00000+0001T   00000876+0000001424          1400 ST1130               3AZ
121790005121790200-000125     121790006001023459749CUTLERY-SET 10PCE   H&L0000001000+00000876+00000+0001T   00000876+0000001424          1400 ST1214               3AZ
121790006121790071-081112     121790006936198404945CORRECTION TAPE 10mx5mm0000001000+00001753+00000+0001T   00001753+0000001424          1400 ST1130               3AZ
121790007121790007-000211     121790006003000005796STATIONERY N/PAD 3PCK  0000001000+00001578+00000+0001T   00001578+0000001424          1400 ST1130               3AZ
121790008121790200-000130     121790006001023645067DESSERT-SPOONS 10PCE   0000001000+00000613+00000+0001T   00000613+0000001424          1400 ST1214               3AZ
121790009121790071-081091     121790006001151010287STAED/GENKEM ALL-STICK 0000001000+00001227+00000+0001T   00001227+0000001424          1400 ST1130               3AZ
121791000121791               121791               170213JY     1400+00000+JY0000003628+0000003628+000000000+000000509+0000004137+0000000000+I40000004137+0000000000+Z
121791001121791566-000996     121791000721129013176TATTOOS TEMP BE ME ASST0000001000+00000876+00000+0001T   00000876+0000001426          1400 ST1130               3AZ
121791002121791903-000215     121791006002099001214SWT GS MALLOW TWIST PAC0000001000+00001753+00000+0001T   00001753+0000001426          1400 ST1150               3AZ
121791003121791903-000843     121791008693029031067SWT GUMMY JELAXY 80G   0000001000+00000964+00000+0001T   00000964+0000001426          1400 ST1150               3AZ
121791004121791112-116038     121791006009681820246TCS CARRIER BAG MIDI   0000001000+00000035+00000+0001T   00000035+0000001426          1400 ST1090               3AZ
121792000121792               121792               170213JY     1400+00000+JY0000000525+0000000525+000000000+000000074+0000000590+0000000009+I20000000000+0000000590+Z
121792001121792903-000155     121792006009803374435SWT LOLLY I LUV U HEART0000001000+00000525+00000+0001T   00000525+0000001426          1400 ST1150               3AZ
121793000121793               121793               170213JY     1400+00000+JY0000004385+0000004385+000000000+000000614+0000004999+0000000000+I40000004999+0000000000+Z
121793001121793002-000709     121793006003000674176C/BOARD SLATE ROUND 25C0000001000+00004385+00000+0001T   00004385+0000001433          1400 ST1300               3AZ
121794000121794               121794               170213JY     1400+00000+JY0000007015+0000007015+000000000+000000983+0000007998+0000000000+I40000007998+0000000000+Z
121794001121794080-000139     121794006003000611690CARD & ENV MINI SET 6PC0000001000+00002192+00000+0001T   00002192+0000001436          1400 ST1112               3AZ
121794002121794301-085001     121794006003000297610ORN WATERBALL LOVE ASST0000001000+00004823+00000+0001T   00004823+0000001436          1400 ST1505               3AZ
121795000121795               121795               170213JY     1400+00000+JY0000007677+0000007677+000000000+000001076+0000008750+0000000003+I20000000000+0000008750+Z
121795001121795077-000299     121795006003000395576G/BAG 32x25cm LRG LOVE 0000001000+00001490+00000+0001T   00001490+0000001438          1400 ST1112               3AZ
121795002121795368-000175     121795006003000270316PLUSH BEAR 4 ASSTD 18CM0000001000+00006139+00000+0001T   00006139+0000001438          1400 ST1745               3AZ
121795003121795112-116069     121795006009681820277TCS CARRIER BAG JUMBO  0000001000+00000048+00000+0001T   00000048+0000001438          1400 ST1090               3AZ
121796000121796               121796               170213JY     1400+00000+JY0000001752+0000001752+000000000+000000246+0000001990+0000000008+I20000000000+0000001990+Z
121796001121796077-000011-C   121796006001023808523TISSUE 10xSHTS RED     0000001000+00000876+00000+0001T   00000876+0000001440          1400 ST1112               3AZ
121796002121796077-000011-L   121796006001023808585P/TISSUE BRIGHT 10SHEET0000001000+00000876+00000+0001T   00000876+0000001440          1400 ST1112               3AZ
121797000121797               121797               170213JY     1400+00000+JY0000012327+0000012327+000000000+000001727+0000014054+0000000000+I40000014054+0000000000+Z
121797001121797024-001248     121797006001023759146N/STICK CAKE-MOLD ROUND0000001000+00012279+00000+0001T   00012279+0000001454          1400 ST1300               3AZ
121797002121797112-116069     121797006009681820277TCS CARRIER BAG JUMBO  0000001000+00000048+00000+0001T   00000048+0000001454          1400 ST1090               3AZ
121798000121798               121798               170213JY     1400+00000+JY0000009646+0000009646+000000000+000001352+0000010990+0000000008+I20000000000+0000010990+Z
121798001121798024-000113     121798006001023422194C/PAN N/STICK 20X4.5CM 0000002000+00004823+00000+0001T   00004823+0000001455          1400 ST1300               3AZ
121799000121799               121799               170213JY     1400+00000+JY0000002192+0000002192+000000000+000000307+0000002490+0000000009+I20000000000+0000002490+Z
121799001121799566-000352     121799006001023809261STICKERS LASER ASSTD   0000001000+00002192+00000+0001T   00002192+0000001509          1400 ST1130               3AZ
121800000121800               121800               170213JY     1400+00000+JY0000000000+0000000000+000000000+000000000+0000000000+0000000000+I20000000000+0000000000+Z
121800001121800903-000087     121800006001704000161SWT SPECKLED-EGGS 50G  0000001000-00001139+00000+0001T   00001139+0000001511          1400 ST11501IC            3AZ
121800002121800903-000087     121800006001704000161SWT SPECKLED-EGGS 50G  0000001000+00001139+00000+0001T   00001139+0000001511          1400 ST11501IC            3 Z
121801000121801               121801               170213JY     1400+00000+JY0000002487+0000002487+000000000+000000350+0000002830+0000000007+I20000000000+0000002830+Z
121801001121801304-001204     121801006001023737984FLOWER OCC. TEDDY/ROSES0000001000+00001402+00000+0001T   00001490+0006471513          1400 ST1510               3AZ
121801002121801903-000155     121801006009803374435SWT LOLLY I LUV U HEART0000002000+00000525+00000+0001T   00000525+0000001513          1400 ST1150               3AZ
121801003121801112-116038     121801006009681820246TCS CARRIER BAG MIDI   0000001000+00000035+00000+0001T   00000035+0000001513          1400 ST1090               3AZ
121802000121802               121802               170213JY     1400+00000+JY0000036009+0000036009+000000000+000005042+0000041051+0000000000+I40000041051+0000000000+Z
121802001121802112-116069     121802006009681820277TCS CARRIER BAG JUMBO  0000001000+00000048+00000+0001T   00000048+0000001519          1400 ST1090               3AZ
121802002121802031-005925     121802006003000466030P/FRAME WDN 9x13CM ASST0000001000+00004385+00000+0001T   00004385+0000001519          1400 ST1510               3AZ
121802003121802031-001009     121802008715055020225PICTURE-FRAME COLLAGE  0000001000+00008771+00000+0001T   00008771+0000001519          1400 ST1510               3AZ
121802004121802031-000924     121802006001023669964P/FRAME COLLAGE PL     0000001000+00008771+00000+0001T   00008771+0000001519          1400 ST1510               3AZ
121802005121802105-007560     121802006003000485918STORAGE BOX CLEAR 10L  0000001000+00014034+00000+0001T   00014034+0000001519          1400 ST1210               3AZ
121803000121803               121803               170213JY     1400+00000+JY0000001751+0000001751+000000000+000000246+0000001997+0000000000+I40000001997+0000000000+Z
121803001121803077-000310     121803006001023608635GIFT-BAG 18X23CM GLOSS 0000001000+00001314+00000+0001T   00001314+0000001521          1400 ST1112               3AZ
121803002121803080-000133     121803006003000535613CARD&ENV MINI ASTD DSGN0000001000+00000437+00000+0001T   00000437+0000001521          1400 ST1112               3AZ
121804000121804               121804               170213JY     1400+00000+JY0000021928+0000021928+000000000+000003070+0000024998+0000000000+I40000024998+0000000000+Z
121804001121804466-000004     121804006003000469819PLAY-TENT POP-UP BOY   0000001000+00021928+00000+0001T   00021928+0000001522          1400 ST1785               3AZ
121805000121805               121805               170213JY     1400+00000+JY0000015990+0000015990+000000000+000002243+0000018233+0000000000+I40000018233+0000000000+Z
121805001121805006-000803     121805006003000653676STREAMERS SET 3ROLLS   0000001000+00002630+00000+0001T   00002630+0000001525          1400 ST1131               3AZ
121805002121805112-116038     121805006009681820246TCS CARRIER BAG MIDI   0000001000+00000035+00000+0001T   00000035+0000001525          1400 ST1090               3AZ
121805003121805563-000318-L   121805006003000407088SERVIETTES 33cm RED    0000001000+00002192+00000+0001T   00002192+0000001525          1400 ST1214               3AZ
121805004121805002-000421     121805006003000543021KITCHEN-GADGET TEABAG  0000003000+00002630+00000+0001T   00002630+0000001525          1400 ST1300               3AZ
121805005121805039-000108     121805006001023524034TEA-LITE CANDLES 8PCE  0000001000+00001490+00000+0001T   00001490+0000001525          1400 ST1510               3AZ
121805006121805039-001023     121805006003000466337CANDLE TEA-LITE METALIC0000001000+00001753+00000+0001T   00001753+0000001525          1400 ST1510               3AZ
121806000121806               121806               170213JY     1400+00000+JY0000003554+0000003554+000000000+000000499+0000004050+0000000003+I20000000000+0000004050+Z
121806001121806077-000467     121806006003000329991GIFT-BAG STAMP 18X23CM 0000001000+00001753+00000+0001T   00001753+0000001527          1400 ST1112               3AZ
121806002121806077-000316     121806006001023609731GIFT-BAG 25X32CM MATT  0000001000+00001753+00000+0001T   00001753+0000001527          1400 ST1112               3AZ
121806003121806112-116069     121806006009681820277TCS CARRIER BAG JUMBO  0000001000+00000048+00000+0001T   00000048+0000001527          1400 ST1090               3AZ
121807000121807               121807               170213JY     1400+00000+JY0000000481+0000000481+000000000+000000068+0000000540+0000000009+I20000000000+0000000540+Z
121807001121807071-000012     121807006001177101006CHALK COLOUR 12PCE     0000001000+00000481+00000+0001T   00000481+0000001527          1400 ST1130               3AZ
121808000121808               121808               170213JY     1400+00000+JY0000002541+0000002541+000000000+000000357+0000002898+0000000000+I40000002898+0000000000+Z
121808001121808077-000299     121808006003000395576G/BAG 32x25cm LRG LOVE 0000001000+00001490+00000+0001T   00001490+0000001529          1400 ST1112               3AZ
121808002121808903-002851     121808000000087108538MENTOS ROLL STRAWBERRY 0000001000+00001051+00000+0001T   00001051+0000001529          1400 ST1150               3AZ
121809000121809               121809               170213JY     1400+00000+JY0000002892+0000002892+000000000+000000406+0000003290+0000000008+I20000000000+0000003290+Z
121809001121809566-000004-A   121809006001023614629STICKER BOOK VELVET    0000001000+00001139+00000+0001T   00001578+0008151530          1400 ST1130               3AZ
121809002121809080-000108     121809006003000237210CARD&ENVLPE BDAY-BOY   0000001000+00001753+00000+0001T   00001753+0000001530          1400 ST1112               3AZ
121810000121810               121810               170213JY     1400+00000+JY0000001443+0000001443+000000000+000000203+0000001640+0000000006+I20000000000+0000001640+Z
121810001121810079-009700-G   121810006003000545957PAPER SIRIO A4 LIME COL0000001000+00000306+00000+0001T   00000306+0000001612          1400 ST1130               3AZ
121810002121810079-009700-F   121810006003000545872PAPER SIRIO A4 TURQ COL0000001000+00000306+00000+0001T   00000306+0000001612          1400 ST1130               3AZ
121810003121810079-009700-J   121810006003000546190PAPER SIRIO A4 BLUE    0000001000+00000306+00000+0001T   00000306+0000001612          1400 ST1130               3AZ
121810004121810002-021040     121810006001023812216PARTY-PICKS 100PCE     0000001000+00000525+00000+0001T   00000525+0000001612          1400 ST1300               3AZ
121811000121811               121811               170213JY     1400+00000+JY0000001753+0000001753+000000000+000000246+0000001990+0000000009+I20000000000+0000001990+Z
121811001121811077-000289     121811006001023901996GIFT BOX 20x25x11cm    0000001000+00001753+00000+0001T   00001753+0000001613          1400 ST1112               3AZ
121812000121812               121812               170213JY     1400+00000+JY0000008771+0000008771+000000000+000001228+0000009999+0000000000+I40000009999+0000000000+Z
121812001121812019-000040     121812006001023673640VASE GLS 30CM CYLINDER 0000001000+00008771+00000+0001T   00008771+0000001616          1400 ST1510               3AZ
121813000121813               121813               170213JY     1400+00000+JY0000001748+0000001748+000000000+000000248+0000001996+0000000000+I40000001996+0000000000+Z
121813001121813080-000133     121813006003000535613CARD&ENV MINI ASTD DSGN0000004000+00000437+00000+0001T   00000437+0000001620          1400 ST1112               3AZ
121814000121814               121814               170213JY     1400+00000+JY0000013157+0000013157+000000000+000001842+0000014999+0000000000+I40000014999+0000000000+Z
121814001121814567-075700     121814006003000339389BOOK NOVEL 3-PACK ASSTD0000001000+00013157+00000+0001T   00013157+0000001621          1400 ST1757               3AZ
121815000121815               121815               170213JY     1400+00000+JY0000007625+0000007625+000000000+000001070+0000008690+0000000005+I20000000000+0000008690+Z
121815001121815077-000150-D   121815006003000054343GIFT-WRAP CELLPHANE CLR0000001000+00000876+00000+0001T   00000876+0000001622          1400 ST1112               3AZ
121815002121815077-000299     121815006003000395576G/BAG 32x25cm LRG LOVE 0000001000+00001490+00000+0001T   00001490+0000001622          1400 ST1112               3AZ
121815003121815903-000082     121815006001704014892SWT MINI WINE GUMS 100G0000003000+00001753+00000+0001T   00001753+0000001622          1400 ST1150               3AZ
121816000121816               121816               170213JY     1400+00000+JY0000002192+0000002192+000000000+000000307+0000002490+0000000009+I20000000000+0000002490+Z
121816001121816080-000127     121816006003000424351VALENTINES DAY 36x24CM 0000001000+00002192+00000+0001T   00002192+0000001623          1400 ST1112               3AZ
121817000121817               121817               170213JY     1400+00000+JY0000006432+0000006432+000000000+000000902+0000007330+0000000004+I20000000000+0000007330+Z
121817001121817089-060027     121817006003000245871KEY-CHAIN HEART 6X6cm  0000001000+00003069+00000+0001T   00003069+0000001624          1400 ST1205               3AZ
121817002121817018-000177     121817006001023797513MUG MINI LOVE ASSTD    0000001000+00000700+00000+0001T   00000700+0000001624          1400 ST1515               3AZ
121817003121817077-000314     121817006003000181148GIFT-BAG 11X14CM MATT  0000003000+00000876+00000+0001T   00000876+0000001624          1400 ST1112               3AZ
121817004121817112-116038     121817006009681820246TCS CARRIER BAG MIDI   0000001000+00000035+00000+0001T   00000035+0000001624          1400 ST1090               3AZ
121818000121818               121818               170213JY     1400+00000+JY0000000876+0000000876+000000000+000000123+0000000990+0000000009+I20000000000+0000000990+Z
121818001121818031-000878-A   121818006001023798985P/FRAME 10x15cm PL-SLID0000001000+00000876+00000+0001T   00000876+0000001625          1400 ST1510               3AZ
121819000121819               121819               170213JY     1400+00000+JY0000031874+0000031874+000000000+000004468+0000036342+0000000000+I40000036342+0000000000+Z
121819001121819112-116069     121819006009681820277TCS CARRIER BAG JUMBO  0000001000+00000048+00000+0001T   00000048+0000001630          1400 ST1090               3AZ
121819002121819072-020309     121819006001023700995DOG-TOY DUMBELL F/BALL 0000001000+00002630+00000+0001T   00002630+0000001630          1400 ST1870               3AZ
121819003121819072-020320     121819006003000603343PET DOG TOY TUG-ROPE   0000001000+00002630+00000+0001T   00002630+0000001630          1400 ST1870               3AZ
121819004121819072-020298     121819006003000561629DOG-TOY TUG-ROPE ASSTD 0000001000+00003069+00000+0001T   00003069+0000001630          1400 ST1870               3AZ
121819005121819080-000124     121819006003000297733CARD & ENV VALENTINES  0000001000+00001578+00000+0001T   00001578+0000001630          1400 ST1112               3AZ
121819006121819072-020308     121819006001023700971DOG-TOY FOOTBALL 11,5cm0000001000+00001753+00000+0001T   00001753+0000001630          1400 ST1870               3AZ
121819007121819903-000519     121819006001704012805SWT MS LIQ-O-GHETTI    0000001000+00001227+00000+0001T   00001227+0000001630          1400 ST1150               3AZ
121819008121819903-000081     121819006001704014076SWT F/PASTILLES 100G   0000002000+00001753+00000+0001T   00001753+0000001630          1400 ST1150               3AZ
121819009121819077-000381     121819006003000247707GIFT-BAG 25X32CM S/COL 0000001000+00001753+00000+0001T   00001753+0000001630          1400 ST1112               3AZ
121819010121819077-000303     121819006001023593757GIFT-BAG PAPER MED     0000001000+00001578+00000+0001T   00001578+0000001630          1400 ST1112               3AZ
121819011121819072-020242     121819006003000053728PET BED COTTON TEXTILE 0000001000+00008771+00000+0001T   00008771+0000001630          1400 ST1870               3AZ
121819012121819077-000316     121819006001023609731GIFT-BAG 25X32CM MATT  0000001000+00001753+00000+0001T   00001753+0000001630          1400 ST1112               3AZ
121819013121819077-000303     121819006001023593757GIFT-BAG PAPER MED     0000001000+00001578+00000+0001T   00001578+0000001630          1400 ST1112               3AZ
121820000121820               121820               170213JY     1400+00000+JY0000030633+0000030633+000000000+000004291+0000034924+0000000000+I40000034924+0000000000+Z
121820001121820112-116038     121820006009681820246TCS CARRIER BAG MIDI   0000001000+00000035+00000+0001T   00000035+0000001633          1400 ST1090               3AZ
121820002121820082-007585     121820006003000654093SUNGLASS DESIGNER ASST 0000001000+00004385+00000+0001T   00004385+0000001633          1400 ST1160               3AZ
121820003121820162-093137     121820006001492931371#TAG Earring           0000001000+00003507+00000+0001T   00003507+0000001633          1400 ST1160               3AZ
121820004121820162-093206     121820006001492932064#TAG KIDS 2PK A/BAND   0000001000+00004385+00000+0001T   00004385+0000001633          1400 ST1160               3AZ
121820005121820162-098802     121820006001492988023#TAG 6PK HAIRBANDS     0000001000+00003507+00000+0001T   00003507+0000001633          1400 ST1160               3AZ
121820006121820162-093137     121820006001492931371#TAG Earring           0000001000+00003507+00000+0001T   00003507+0000001633          1400 ST1160               3AZ
121820007121820077-000239     121820006003000160419GIFT-RIBBON ROLL PEARL 0000001000+00001753+00000+0001T   00001753+0000001633          1400 ST1112               3AZ
121820008121820077-000314     121820006003000181148GIFT-BAG 11X14CM MATT  0000001000+00000876+00000+0001T   00000876+0000001633          1400 ST1112               3AZ
121820009121820077-000245     121820006001023759214GIFT-RIBBON METALLICx2 0000001000+00001227+00000+0001T   00001227+0000001633          1400 ST1112               3AZ
121820010121820162-098802     121820006001492988023#TAG 6PK HAIRBANDS     0000001000+00003507+00000+0001T   00003507+0000001633          1400 ST1160               3AZ
121820011121820162-095020     121820006001492950204#TAG KIDS EARRINGS 3PCK0000001000+00003507+00000+0001T   00003507+0000001633          1400 ST1160               3AZ
121820012121820080-000133-A   121820006003000647019MINI VALENTINES CARD   0000001000+00000437+00000+0001T   00000437+0000001633          1400 ST1112               3AZ
121821000121821               121821               170213JY     1400+00000+JY0000003993+0000003993+000000000+000000560+0000004550+0000000003+I20000000000+0000004550+Z
121821001121821089-000030     121821006003000575671K/CHAIN LOVE MTL ASSTD 0000001000+00001753+00000+0001T   00001753+0000001633          1400 ST1205               3AZ
121821002121821080-000127     121821006003000424351VALENTINES DAY 36x24CM 0000001000+00002192+00000+0001T   00002192+0000001633          1400 ST1112               3AZ
121821003121821112-116069     121821006009681820277TCS CARRIER BAG JUMBO  0000001000+00000048+00000+0001T   00000048+0000001633          1400 ST1090               3AZ
121822000121822               121822               170213JY     1400+00000+JY0000021571+0000021571+000000000+000003022+0000024593+0000000000+I40000024593+0000000000+Z
121822001121822077-000299-A   121822006003000670888GIFT-BAG PAPER JMB LOVE0000001000+00001753+00000+0001T   00001753+0000001636          1400 ST1112               3AZ
121822002121822486-002307     121822006003000443086W/CLOCK QTZ PL ANTIQUE 0000001000+00008771+00000+0001T   00008771+0000001636          1400 ST1510               3AZ
121822003121822077-000303     121822006001023593757GIFT-BAG PAPER MED     0000001000+00001578+00000+0001T   00001578+0000001636          1400 ST1112               3AZ
121822004121822041-092600     121822006003000114733B/GIFT SET DAISY NAILS 0000001000+00006139+00000+0001T   00006139+0000001636          1400 ST1200               3AZ
121822005121822018-000177     121822006001023797513MUG MINI LOVE ASSTD    0000001000+00000700+00000+0001T   00000700+0000001636          1400 ST1515               3AZ
121822006121822162-096854     121822006001492968544#TAG KIDS 6PK EARING   0000001000+00002630+00000+0001T   00002630+0000001636          1400 ST1160               3AZ
121823000121823               121823               170213JY     1400+00000+JY0000002104+0000002104+000000000+000000295+0000002390+0000000009+I20000000000+0000002390+Z
121823001121823903-000090     121823006009826020821SWT GS CHOCO COINS 60g 0000001000+00002104+00000+0001T   00002104+0000001636          1400 ST1150               3AZ
121824000121824               121824               170213JY     1400+00000+JY0000003682+0000003682+000000000+000000516+0000004190+0000000008+I20000000000+0000004190+Z
121824001121824089-000141-H   121824006001023416568KEY-CHAINS 6PCE     H&H0000001000+00001490+00000+0001T   00001490+0000001636          1400 ST1205               3AZ
121824002121824050-000363-Z   121824006001023475282PADLOCK IRON 32mm CARD 0000001000+00002192+00000+0001T   00002192+0000001636          1400 ST1855               3AZ
121825000121825               121825               170213JY     1400+00000+JY0000002804+0000002804+000000000+000000394+0000003190+0000000008+I20000000000+0000003190+Z
121825001121825304-001204     121825006001023737984FLOWER OCC. TEDDY/ROSES0000002000+00001402+00000+0001T   00001490+0006471637          1400 ST1510               3AZ
121826000121826               121826               170213JY     1400+00000+JY0000002630+0000002630+000000000+000000369+0000002999+0000000000+I40000002999+0000000000+Z
121826001121826304-000720     121826006001023843050F/BUNCH ROSE 6-HEAD AST0000001000+00002630+00000+0001T   00002630+0000001639          1400 ST1510               3AZ
121827000121827               121827               170213JY     1400+00000+JY0000006750+0000006750+000000000+000000946+0000007696+0000000000+I40000007696+0000000000+Z
121827001121827079-009702-D   121827008427973059354PAPER SIRIO A2 RED COL 0000001000+00001051+00000+0001T   00001051+0000001640          1400 ST1130               3AZ
121827002121827079-013032-G   121827006003000496389FOAM BUTTERFLIES       0000001000+00002192+00000+0001T   00002192+0000001640          1400 ST1130               3AZ
121827003121827079-006498     121827006001023836151GLITTER SET 10PCE      0000001000+00003507+00000+0001T   00003507+0000001640          1400 ST1130               3AZ
121828000121828               121828               170213JY     1400+00000+JY0000003506+0000003506+000000000+000000492+0000003990+0000000008+I20000000000+0000003990+Z
121828001121828562-000010     121828006001023762528KID'S PLAY DOUGH       0000001000+00002630+00000+0001T   00002630+0000001641          1400 ST1755               3AZ
121828002121828089-000192-A   121828006001023901774KEY-CHAIN ACRYLIC      0000001000+00000876+00000+0001T   00000876+0000001641          1400 ST1205               3AZ
121829000121829               121829               170213JY     1400+00000+JY0000002015+0000002015+000000000+000000283+0000002290+0000000008+I20000000000+0000002290+Z
121829001121829046-000011     121829004897006172994BATTERIES SIZE:AA  2PCE0000001000+00001402+00000+0001T   00001402+0000001642          1400 ST1312               3AZ
121829002121829200-000065     121829006001023323675DRINKING-STRAWS 38PCE  0000001000+00000613+00000+0001T   00000613+0000001642          1400 ST1214               3AZ
121830000121830               121830               170213JY     1400+00000+JY0000002192+0000002192+000000000+000000307+0000002490+0000000009+I20000000000+0000002490+Z
121830001121830032-000336     121830006001023369109MIRROR HANGING MAGNETIC0000001000+00002192+00000+0001T   00002192+0000001643          1400 ST1510               3AZ
121831000121831               121831               170213JY     1400+00000+JY0000006517+0000006517+000000000+000000917+0000007434+0000000000+I40000007434+0000000000+Z
121831001121831040-000923     121831006001023587831CANDLE-HOLDER GLS 13.5 0000002000+00001753+00000+0001T   00001753+0000001645          1400 ST1510               3AZ
121831002121831039-000026     121831006001023551610C/TAPERED 25CM M/RED   0000002000+00001051+00000+0001T   00001051+0000001645          1400 ST1510               3AZ
121831003121831112-116038     121831006009681820246TCS CARRIER BAG MIDI   0000001000+00000035+00000+0001T   00000035+0000001645          1400 ST1090               3AZ
121831004121831080-000133     121831006003000535613CARD&ENV MINI ASTD DSGN0000002000+00000437+00000+0001T   00000437+0000001645          1400 ST1112               3AZ
121832000121832               121832               170213JY     1400+00000+JY0000003506+0000003506+000000000+000000492+0000003990+0000000008+I20000000000+0000003990+Z
121832001121832200-003026     121832006003000276448REFUSE BAGS 10PCE GREEN0000002000+00001753+00000+0001T   00001753+0000001646          1400 ST1214               3AZ
121833000121833               121833               170213JY     1400+00000+JY0000000700+0000000700+000000000+000000098+0000000790+0000000008+I20000000000+0000000790+Z
121833001121833018-000177     121833006001023797513MUG MINI LOVE ASSTD    0000001000+00000700+00000+0001T   00000700+0000001646          1400 ST1515               3AZ
121834000121834               121834               170213JY     1400+00000+JY0000002630+0000002630+000000000+000000369+0000002990+0000000009+I20000000000+0000002990+Z
121834001121834304-000720     121834006001023843050F/BUNCH ROSE 6-HEAD AST0000001000+00002630+00000+0001T   00002630+0000001647          1400 ST1510               3AZ
121835000121835               121835               170213JY     1400+00000+JY0000003507+0000003507+000000000+000000491+0000003990+0000000008+I20000000000+0000003990+Z
121835001121835018-005009     121835006001023725608MUG W/PLUSH-BEAR LOVE  0000001000+00003507+00000+0001T   00003507+0000001648          1400 ST1515               3AZ
121836000121836               121836               170213JY     1400+00000+JY0000012279+0000012279+000000000+000001720+0000013999+0000000000+I40000013999+0000000000+Z
121836001121836031-000903-D   121836006003000457472P/FRAME COLLAGE CREAMY 0000001000+00012279+00000+0001T   00012279+0000001650          1400 ST1510               3AZ
121837000121837               121837               170213JY     1400+00000+JY0000011402+0000011402+000000000+000001597+0000012990+0000000009+I20000000000+0000012990+Z
121837001121837368-000637     121837006001023874092PLUSH BEAR SLEEPING LOV0000001000+00011402+00000+0001T   00012279+0006471651          1400 ST1745               3AZ
121838000121838               121838               170213JY     1400+00000+JY0000006136+0000006136+000000000+000000861+0000006990+0000000007+I20000000000+0000006990+Z
121838001121838077-000299-A   121838006003000670888GIFT-BAG PAPER JMB LOVE0000001000+00001753+00000+0001T   00001753+0000001651          1400 ST1112               3AZ
121838002121838369-001138-D   121838006003000097623BABY BATH VINYL THEMED 0000001000+00002630+00000+0001T   00002630+0000001651          1400 ST1745               3AZ
121838003121838369-001137     121838006003000555062VINYL 5.7cm THEMED DUCK0000001000+00001753+00000+0001T   00001753+0000001651          1400 ST1745               3AZ
121839000121839               121839               170213JY     1400+00000+JY0000001753+0000001753+000000000+000000246+0000001990+0000000009+I20000000000+0000001990+Z
121839001121839466-000077     121839006003000669448MINI MESH BEAN BALL    0000001000+00001753+00000+0001T   00001753+0000001652          1400 ST1785               3AZ
121840000121840               121840               170213JY     1400+00000+JY0000006139+0000006139+000000000+000000860+0000006990+0000000009+I20000000000+0000006990+Z
121840001121840018-050000     121840006003000412679MUG OCC LOVE TWIN BEAR 0000001000+00006139+00000+0001T   00006139+0000001654          1400 ST1515               3AZ
121841000121841               121841               170213JY     1400+00000+JY0000003069+0000003069+000000000+000000430+0000003499+0000000000+I40000003499+0000000000+Z
121841001121841103-000460     121841006003000630240BAMBOO FLOWER BASKET   0000001000+00004385+00000+0001T   00004385+0000001721          1400 ST1300               3AZ
121841002121841103-000088     121841006001023795625BAMBOO BASKET  W/HNDLES0000001000+00003069+00000+0001T   00003069+0000001721          1400 ST1300               3AZ
121841003121841103-000460     121841006003000630240BAMBOO FLOWER BASKET   0000001000-00004385+00000+0001T   00004385+0000001721          1400 ST13001IC            3 Z
121842000121842               121842               170213JY     1400+00000+JY0000007483+0000007483+000000000+000001051+0000008530+0000000004+I20000000000+0000008530+Z
121842001121842112-116038     121842006009681820246TCS CARRIER BAG MIDI   0000001000+00000035+00000+0001T   00000035+0000001722          1400 ST1090               3AZ
121842002121842903-000219     121842006925925911450SWT ERKO MALLOW CHOC   0000001000+00001753+00000+0001T   00001753+0000001722          1400 ST1150               3AZ
121842003121842491-059640     121842000078257596409INTEX:ARMBAND 3-6YRS   0000001000+00001753+00000+0001T   00001753+0000001722          1400 ST1787               3AZ
121842004121842903-000087     121842006001704000161SWT SPECKLED-EGGS 50G  0000002000+00001139+00000+0001T   00001139+0000001722          1400 ST1150               3AZ
121842005121842903-004951     121842006002580020328SWT MALLOW MINI M/SHAKE0000001000+00001227+00000+0001T   00001227+0000001722          1400 ST1150               3AZ
121842006121842080-000133-A   121842006003000647019MINI VALENTINES CARD   0000001000+00000437+00000+0001T   00000437+0000001722          1400 ST1112               3AZ
121843000121843               121843               170213JY     1400+00000+JY0000017587+0000017587+000000000+000002464+0000020051+0000000000+I40000020051+0000000000+Z
121843001121843112-116069     121843006009681820277TCS CARRIER BAG JUMBO  0000001000+00000048+00000+0001T   00000048+0000001724          1400 ST1090               3AZ
121843002121843077-000308     121843006001023595812GIFT-BAG 33X45CM E/DAY 0000001000+00001753+00000+0001T   00001753+0000001724          1400 ST1112               3AZ
121843003121843263-000412     121843006003000600335VEHICLE BOAT INFLATABLE0000001000+00004385+00000+0001T   00004385+0000001724          1400 ST1710               3AZ
121843004121843567-011913     121843009780799375466BK EDU VOORSPRONG AFR  0000001000+00002630+00000+0001T   00002630+0000001724          1400 ST1757               3AZ
121843005121843469-003002     121843006001023878595BUILDING METAL VEHICLES0000001000+00008771+00000+0001T   00008771+0000001724          1400 ST1755               3AZ
121844000121844               121844               170213JY     1400+00000+JY0000008890+0000008890+000000000+000001246+0000010130+0000000006+I20000000000+0000010130+Z
121844001121844112-116038     121844006009681820246TCS CARRIER BAG MIDI   0000001000+00000035+00000+0001T   00000035+0000001725          1400 ST1090               3AZ
121844002121844077-000303     121844006001023593757GIFT-BAG PAPER MED     0000001000+00001578+00000+0001T   00001578+0000001725          1400 ST1112               3AZ
121844003121844089-000220     121844006003000677368KEY CHAIN+PEN+KNIFE    0000002000+00003069+00000+0001T   00003069+0000001725          1400 ST1205               3AZ
121844004121844903-000087     121844006001704000161SWT SPECKLED-EGGS 50G  0000001000+00001139+00000+0001T   00001139+0000001725          1400 ST1150               3AZ
121845000121845               121845               170213JY     1400+00000+JY0000001753+0000001753+000000000+000000246+0000001990+0000000009+I20000000000+0000001990+Z
121845001121845079-006522     121845006001023149442ART+CRAFT GLUE ASSORTED0000001000+00001753+00000+0001T   00001753+0000001726          1400 ST1130               3AZ
121846000121846               121846               170213JY     1400+00000+JY0000021050+0000021050+000000000+000002948+0000023998+0000000000+I40000023998+0000000000+Z
121846001121846368-000005     121846006003000616862PLUSH MONSTER 24cm     0000002000+00010525+00000+0001T   00010525+0000001728          1400 ST1745               3AZ
121847000121847               121847               170213JY     1400+00000+JY0000022934+0000022934+000000000+000003213+0000026140+0000000007+I20000000000+0000026140+Z
121847001121847065-005337     121847006001023619303KEYBOARD B/O 32-KEYS   0000001000+00013157+00000+0001T   00013157+0000001731          1400 ST1745               3AZ
121847002121847079-000293     121847006003000159673PAINT SET RAINBOW ASSTD0000001000+00007893+00000+0001T   00007893+0000001731          1400 ST1130               3AZ
121847003121847112-116069     121847006009681820277TCS CARRIER BAG JUMBO  0000001000+00000048+00000+0001T   00000048+0000001731          1400 ST1090               3AZ
121847004121847079-009700-G   121847006003000545957PAPER SIRIO A4 LIME COL0000004000+00000306+00000+0001T   00000306+0000001731          1400 ST1130               3AZ
121847005121847079-009700-F   121847006003000545872PAPER SIRIO A4 TURQ COL0000002000+00000306+00000+0001T   00000306+0000001731          1400 ST1130               3AZ
121848000121848               121848               170213JY     1400+00000+JY0000008109+0000008109+000000000+000001137+0000009240+0000000006+I20000000000+0000009240+Z
121848001121848112-116069     121848006009681820277TCS CARRIER BAG JUMBO  0000001000+00000048+00000+0001T   00000048+0000001733          1400 ST1090               3AZ
121848002121848080-000127     121848006003000424351VALENTINES DAY 36x24CM 0000001000+00002192+00000+0001T   00002192+0000001733          1400 ST1112               3AZ
121848003121848077-000322     121848006001023677532GIFT-BAG 18X23CM E/D FL0000001000+00001227+00000+0001T   00001227+0000001733          1400 ST1112               3AZ
121848004121848077-000314     121848006003000181148GIFT-BAG 11X14CM MATT  0000002000+00000876+00000+0001T   00000876+0000001733          1400 ST1112               3AZ
121848005121848077-000310     121848006001023608635GIFT-BAG 18X23CM GLOSS 0000001000+00001314+00000+0001T   00001314+0000001733          1400 ST1112               3AZ
121848006121848077-000011-D   121848006001023808554TISSUE-WRAP WHITE 10PCE0000001000+00000876+00000+0001T   00000876+0000001733          1400 ST1112               3AZ
121848007121848018-000177     121848006001023797513MUG MINI LOVE ASSTD    0000001000+00000700+00000+0001T   00000700+0000001733          1400 ST1515               3AZ
121849000121849               121849               170213JY     1400+00000+JY0000005653+0000005653+000000000+000000794+0000006440+0000000007+I20000000000+0000006440+Z
121849001121849079-009702-B   121849008427973059491PAPER SIRIO A2 WHITE   0000001000+00001051+00000+0001T   00001051+0000001736          1400 ST1130               3AZ
121849002121849251-000001     121849006001023487681TAPE DBL-SIDE 18x1000mm0000001000+00001314+00000+0001T   00001314+0000001736          1400 ST1810               3AZ
121849003121849077-000011-D   121849006001023808554TISSUE-WRAP WHITE 10PCE0000001000+00000876+00000+0001T   00000876+0000001736          1400 ST1112               3AZ
121849004121849079-009700-D   121849006003000545711PAPER SIRIO A4 RED COL.0000002000+00000306+00000+0001T   00000306+0000001736          1400 ST1130               3AZ
121849005121849903-003080     121849005907029004673SWT SNACK STIX CHOC 50g0000001000+00000876+00000+0001T   00000876+0000001736          1400 ST1150               3AZ
121849006121849112-116069     121849006009681820277TCS CARRIER BAG JUMBO  0000001000+00000048+00000+0001T   00000048+0000001736          1400 ST1090               3AZ
121849007121849077-000151     121849006008766114676GIFT-WRAP C/PHANE ASSTD0000001000+00000876+00000+0001T   00000876+0000001736          1400 ST1112               3AZ
121850000121850               121850               170213JY     1400+00000+JY0000038590+0000038590+000000000+000005405+0000043995+0000000000+I40000043995+0000000000+Z
121850001121850365-000009     121850006003000166305P/SET DOCTOR SET LIGHT 0000001000+00015788+00000+0001T   00017542+0008191743          1400 ST1725               3AZ
121850002121850464-000667     121850006003000394791GAME BOWLING           0000001000+00017542+00000+0001T   00017542+0000001743          1400 ST1785               3AZ
121850003121850077-000115-B   121850006003000181025GIFT-WRAP PPR 700MMX2M 0000002000+00002630+00000+0001T   00002630+0000001743          1400 ST1112               3AZ
121851000121851               121851               170213JY     1400+00000+JY0000006625+0000006625+000000000+000000928+0000007553+0000000000+I40000007553+0000000000+Z
121851001121851031-000848     121851006001023851901P/FRAME COLLAGE 2ASSTD 0000001000+00004385+00000+0001T   00004385+0000001745          1400 ST1510               3AZ
121851002121851080-000127     121851006003000424351VALENTINES DAY 36x24CM 0000001000+00002192+00000+0001T   00002192+0000001745          1400 ST1112               3AZ
121851003121851112-116069     121851006009681820277TCS CARRIER BAG JUMBO  0000001000+00000048+00000+0001T   00000048+0000001745          1400 ST1090               3AZ
A17021300                                          15313473JYSLAVE 3                       ST11IC
M17021391                              CASH        JYSLAVE 3                       Z-REPORT No.   672TOTAL (Sales - Refunds)          10030.02       CASH TO BE BANKED                 2981.60       DEBIT CARDS                          0.00       CREDIT CARDS                      7048.42       Z-READING                        10030.02       AIRTIME DEBIT CARD SALES             0.00       AIRTIME CARD SALES                   0.00       OVERS/UNDERS                         0.00       AIRTIME CASH SALES                   0.00       GIFT CARDS                           0.00       GIFT CARD CASH SALES                 0.00       T O T A L  CASH PAYOUTS              0.00                                                                                                                                                                                                                                                                                                                                                      Z
M17021392                              CASH        JYABSENT                                                                                                                                                                                          ANNUAL LEAVE                                                                                                                                                                                    DAY OFF                                                                                                                                                                                         COMMENTS                                                                                                                                                                                                                                                                                                                                                                                       Z
Y17021300                                          JY00000000901891+000117
ZJY17021319563 SLAVE 3      SALES DATA                     NEXT INVOICE NO.  121852 0672
X JY Slave 3 First invoice 121734 170213 Last invoice 121851 170213 Next invoice 121852 Total number of records 000000450 clbackup completed 19:56:45
