133324000133324               133324               170213JY     1400+00000+JY0000133596+0000133596+000000000+000018714+0000152310+           I90000000000+0000000000+Z
133324001133324562-006269     133324006001023658647BOARD EASY-WRITER+PEN  0000002000+00014911+00000+0001T032960200000                    1400 1IC7551ICV             Z
133324002133324486-002330     133324006003000442645W/CLOCK QTZ PL WATCH   0000001000+00003507+00000+0001T032960200000                    1400 1IC5101ICV             Z
133324003133324012-000024     133324006003000580897MICROWAVE HOT PLATE    0000001000+00004385+00000+0001T032960200000                    1400 1IC3001ICV             Z
133324004133324039-000799     133324006001023692382CANDLES TEALITE 100PCE 0000001000+00008771+00000+0001T032960200000                    1400 1IC5101ICV             Z
133324005133324113-000160     133324006001023842213VACUUM-FLASK ,45L 2TONE0000001000+00009648+00000+0001T032960200000                    1400 1IC3051ICV             Z
133324006133324146-000436     133324006003000304998SPRAYER GUN 9-PATTERN  0000001000+00006139+00000+0001T032960200000                    1400 1IC8201ICV             Z
133324007133324565-000888     133324006003000607846NOVELTY MESH BALL      0000004000+00001753+00000+0001T032960200000                    1400 1IC7451ICV             Z
133324008133324065-006070     133324006003000465897WOODEN DRUM ASSTD DESGN0000001000+00006139+00000+0001T032960200000                    1400 1IC7451ICV             Z
133324009133324024-000018     133324006001023610232CAKE-DEC S/S NOZZLE    0000001000+00003946+00000+0001T032960200000                    1400 1IC3001ICV             Z
133324010133324586-096711     133324006001492967110WATCH MENS SILICONE SET0000001000+00015788+00000+0001T032960200000                    1400 1IC1601ICV             Z
133324011133324112-116038     133324006009681820246TCS CARRIER BAG MIDI   0000001000+00000035+00000+0001T032960200000                    1400 1IC0901ICV             Z
133324012133324203-007002     133324006003000456314WINE BOTTLE HOLDER     0000001000+00008771+00000+0001T032960200000                    1400 1IC3001ICV             Z
133324013133324004-071206     133324006003000605156USB CABLE CHARGER      0000001000+00003507+00000+0001T032960200000                    1400 1IC3101ICV             Z
133324014133324565-001212     133324006001023658173NOVELTY MAGIC-SPRING   0000001000+00001753+00000+0001T032960200000                    1400 1IC7451ICV             Z
133324015133324072-020306     133324006003000024162PET DOG TENNIS BALL    0000001000+00003069+00000+0001T032960200000                    1400 1IC8701ICV             Z
133324016133324301-000700     133324006003000378654ORN FAIRY IN BAUBLE 6CM0000001000+00004823+00000+0001T032960200000                    1400 1IC5051ICV             Z
133324017133324028-085275     133324006003000092611BBQ LIGHTER FLEXIBLE   0000001000+00003507+00000+0001T032960200000                    1400 1IC3051ICV             Z
133324018133324078-000480     133324006008741002332BOSTIK SHOE-REPAIR 25ml0000001000+00001753+00000+0001T032960200000                    1400 1IC8101ICV             Z
133324019133324564-000012     133324006001023130075BUBBLE BOTTLE MAGIC    0000001000+00000700+00000+0001T032960200000                    1400 1IC1311ICV             Z
133324020133324565-000888     133324006003000607846NOVELTY MESH BALL      0000001000+00001753+00000+0001T032960200000                    1400 1IC7451ICV             Z
133324021133324006-000191-2   133324006003000685899BALLOONS SILVER NR 2   0000001000+00002630+00000+0001T032960200000                    1400 1IC1311ICV             Z
133324022133324565-000888     133324006003000607846NOVELTY MESH BALL      0000001000+00001753+00000+0001T032960200000                    1400 1IC7451ICV             Z
133324023133324560-000250     133324006001023831040ANIMALS STRETCHABLE    0000001000+00004385+00000+0001T032960200000                    1400 1IC7451ICV             Z
133325000133325               133325               170213JY     1400+00000+JY0000051700+0000051700+000000000+000007261+0000058961+           I00000000000+0000000000+Z
133325001133325903-000183     133325006003000451043SWT LB HEART LOLLY     0000016000+00000393+00000+0001T                                1400 1IC1501ICD             Z
133325002133325018-000130     133325006001023867537MUG OCC LOVE MINI+HEART0000001000+00003507+00000+0001T                                1400 1IC5151ICD             Z
133325003133325027-009025     133325006003962000747DUSTPAN-SET PL         0000001000+00002630+00000+0001T                                1400 1IC2121ICD             Z
133325004133325077-000904     133325006003000410682G/WRAP 700mmx1m PATTERN0000002000+00001753+00000+0001T                                1400 1IC1121ICD             Z
133325005133325077-000932     133325006003000409808G/WRAP 700mmx5m PATTERN0000001000+00003507+00000+0001T                                1400 1IC1121ICD             Z
133325006133325152-000710     133325006001023172679HACKSAW FLAT-FRAME     0000001000+00001753+00000+0001T                                1400 1IC8401ICD             Z
133325007133325018-000129     133325006001023403353MUG OCC. LOVE V-SHAPE  0000001000+00002630+00000+0001T                                1400 1IC5151ICD             Z
133325008133325018-019000     133325006003000557288MUG OCC. LOVE JUMBO    0000001000+00005262+00000+0001T                                1400 1IC5151ICD             Z
133325009133325018-000177     133325006001023797513MUG MINI LOVE ASSTD    0000002000+00000700+00000+0001T                                1400 1IC5151ICD             Z
133325010133325071-081101-A   133325006003000326549GLUE-STICK 25g BLISTER 0000001000+00000788+00000+0001T                                1400 1IC1301ICD             Z
133325011133325031-001007     133325006003000406784P/FRAME WDN CLG 20X95CM0000001000+00012279+00000+0001T                                1400 1IC5101ICD             Z
133325012133325466-009004     133325006001023189288BEACH-BAT-SET W/BALL   0000001000+00005262+00000+0001T                                1400 1IC7851ICD             Z
133325013133325006-001000     133325006003000093779HELIUM BALLOON FILL    0000004000+00000613+00000+0001T                                1400 1IC1311ICD             Z
133325014133325006-000173-C   133325006003000636518BALLOONS 1PC PINK      0000001000+00000218+00000+0001T                                1400 1IC1311ICD             Z
133325015133325006-000170-F   133325006003000608669BALLOONS 1PC WHITE     0000001000+00000218+00000+0001T                                1400 1IC1311ICD             Z
133326000133326               133326               170213JY     1400+00000+JY0000003069+0000003069+000000000+000000430+0000003499+           I90000000000+0000000000+Z
133326001133326261-009936     133326006003000688913GUN WATER PISTOL 2PK   0000001000+00003069+00000+0001T023583600000                    1400 1IC7101ICV             Z
M17021391                              CASH        JYSLAVE 4                       Z-REPORT No.   671TOTAL (Sales - Refunds)              0.00       CASH TO BE BANKED                    0.00       DEBIT CARDS                          0.00       CREDIT CARDS                         0.00       Z-READING                            0.00       AIRTIME DEBIT CARD SALES             0.00       AIRTIME CARD SALES                   0.00       OVERS/UNDERS                         0.00       AIRTIME CASH SALES                   0.00       GIFT CARDS                           0.00       GIFT CARD CASH SALES                 0.00       T O T A L  CASH PAYOUTS              0.00                                                                                                                                                                                                                                                                                                                                                      Z
M17021392                              CASH        JYABSENT                                                                                                                                                                                          ANNUAL LEAVE                                                                                                                                                                                    DAY OFF                                                                                                                                                                                         COMMENTS                                                                                                                                                                                                                                                                                                                                                                                       Z
Y17021300                                          JY00000000000000+000000
ZJY17021319563 SLAVE 4      SALES DATA                     NEXT INVOICE NO.  133327 0671
L54888100355674-001-002       JY1702131353281ICMOTLOUNG PASEKA                                                                                                                                                                                                                                                                                                                                                                                                                                                                                                                                                                                                                                                                                                                                                                                                                                                                                                                                                                                      Z
L54888100355674-002-002       JY1702131313311ICMOTLOUNG PASEKA                                                                                                                                                                                                                                                                                                                                                                                                                                                                                                                                                                                                                                                                                                                                                                                                                                                                                                                                                                                      Z
L54892900355527-001-002       JY1702131346121ICMOTLOUNG PASEKA                                                                                                                                                                                                                                                                                                                                                                                                                                                                                                                                                                                                                                                                                                                                                                                                                                                                                                                                                                                      Z
L54892900355527-002-002       JY1702131309121ICMOTLOUNG PASEKA                                                                                                                                                                                                                                                                                                                                                                                                                                                                                                                                                                                                                                                                                                                                                                                                                                                                                                                                                                                      Z
L54907200354644-001-003       JY1702131352461ICMOTLOUNG PASEKA                                                                                                                                                                                                                                                                                                                                                                                                                                                                                                                                                                                                                                                                                                                                                                                                                                                                                                                                                                                      Z
L54907200354644-002-003       JY1702131343541ICMOTLOUNG PASEKA                                                                                                                                                                                                                                                                                                                                                                                                                                                                                                                                                                                                                                                                                                                                                                                                                                                                                                                                                                                      Z
L54907200354644-003-003       JY1702131329451ICMOTLOUNG PASEKA                                                                                                                                                                                                                                                                                                                                                                                                                                                                                                                                                                                                                                                                                                                                                                                                                                                                                                                                                                                      Z
L54912000355396-001-002       JY1702131320111ICMOTLOUNG PASEKA                                                                                                                                                                                                                                                                                                                                                                                                                                                                                                                                                                                                                                                                                                                                                                                                                                                                                                                                                                                      Z
L54912000355396-002-002       JY1702131339451ICMOTLOUNG PASEKA                                                                                                                                                                                                                                                                                                                                                                                                                                                                                                                                                                                                                                                                                                                                                                                                                                                                                                                                                                                      Z
L54935700352091-001-001       JY1702131318191ICMOTLOUNG PASEKA                                                                                                                                                                                                                                                                                                                                                                                                                                                                                                                                                                                                                                                                                                                                                                                                                                                                                                                                                                                      Z
L55363200353866-001-004       JY1702131336331ICMOTLOUNG PASEKA                                                                                                                                                                                                                                                                                                                                                                                                                                                                                                                                                                                                                                                                                                                                                                                                                                                                                                                                                                                      Z
L55363200353866-002-004       JY1702131332591ICMOTLOUNG PASEKA                                                                                                                                                                                                                                                                                                                                                                                                                                                                                                                                                                                                                                                                                                                                                                                                                                                                                                                                                                                      Z
L55363200353866-003-004       JY1702131339081ICMOTLOUNG PASEKA                                                                                                                                                                                                                                                                                                                                                                                                                                                                                                                                                                                                                                                                                                                                                                                                                                                                                                                                                                                      Z
L55363200353866-004-004       JY1702131342511ICMOTLOUNG PASEKA                                                                                                                                                                                                                                                                                                                                                                                                                                                                                                                                                                                                                                                                                                                                                                                                                                                                                                                                                                                      Z
L55446800359009-001-003       JY1702131331131ICMOTLOUNG PASEKA                                                                                                                                                                                                                                                                                                                                                                                                                                                                                                                                                                                                                                                                                                                                                                                                                                                                                                                                                                                      Z
L55446800359009-002-003       JY1702131347531ICMOTLOUNG PASEKA                                                                                                                                                                                                                                                                                                                                                                                                                                                                                                                                                                                                                                                                                                                                                                                                                                                                                                                                                                                      Z
L55446800359009-003-003       JY1702131349231ICMOTLOUNG PASEKA                                                                                                                                                                                                                                                                                                                                                                                                                                                                                                                                                                                                                                                                                                                                                                                                                                                                                                                                                                                      Z
L55465500359324-001-002       JY1702131353161ICMOTLOUNG PASEKA                                                                                                                                                                                                                                                                                                                                                                                                                                                                                                                                                                                                                                                                                                                                                                                                                                                                                                                                                                                      Z
L55465500359324-002-002       JY1702131347231ICMOTLOUNG PASEKA                                                                                                                                                                                                                                                                                                                                                                                                                                                                                                                                                                                                                                                                                                                                                                                                                                                                                                                                                                                      Z
L56616900347630-001-002       JY1702131345071ICMOTLOUNG PASEKA                                                                                                                                                                                                                                                                                                                                                                                                                                                                                                                                                                                                                                                                                                                                                                                                                                                                                                                                                                                      Z
L56616900347630-002-002       JY1702131340261ICMOTLOUNG PASEKA                                                                                                                                                                                                                                                                                                                                                                                                                                                                                                                                                                                                                                                                                                                                                                                                                                                                                                                                                                                      Z
L57029700360121-001-003       JY1702131355391ICMOTLOUNG PASEKA                                                                                                                                                                                                                                                                                                                                                                                                                                                                                                                                                                                                                                                                                                                                                                                                                                                                                                                                                                                      Z
L57029700360121-002-003       JY1702131336201ICMOTLOUNG PASEKA                                                                                                                                                                                                                                                                                                                                                                                                                                                                                                                                                                                                                                                                                                                                                                                                                                                                                                                                                                                      Z
L57029700360121-003-003       JY1702131336271ICMOTLOUNG PASEKA                                                                                                                                                                                                                                                                                                                                                                                                                                                                                                                                                                                                                                                                                                                                                                                                                                                                                                                                                                                      Z
L57300600358360-001-003       JY1702131354191ICMOTLOUNG PASEKA                                                                                                                                                                                                                                                                                                                                                                                                                                                                                                                                                                                                                                                                                                                                                                                                                                                                                                                                                                                      Z
L57300600358360-002-003       JY1702131344011ICMOTLOUNG PASEKA                                                                                                                                                                                                                                                                                                                                                                                                                                                                                                                                                                                                                                                                                                                                                                                                                                                                                                                                                                                      Z
L57300600358360-003-003       JY1702131309241ICMOTLOUNG PASEKA                                                                                                                                                                                                                                                                                                                                                                                                                                                                                                                                                                                                                                                                                                                                                                                                                                                                                                                                                                                      Z
L57375100353804-001-002       JY1702131340111ICMOTLOUNG PASEKA                                                                                                                                                                                                                                                                                                                                                                                                                                                                                                                                                                                                                                                                                                                                                                                                                                                                                                                                                                                      Z
L57375100353804-002-002       JY1702131320051ICMOTLOUNG PASEKA                                                                                                                                                                                                                                                                                                                                                                                                                                                                                                                                                                                                                                                                                                                                                                                                                                                                                                                                                                                      Z
L57566800358651-001-001       JY1702131348441ICMOTLOUNG PASEKA                                                                                                                                                                                                                                                                                                                                                                                                                                                                                                                                                                                                                                                                                                                                                                                                                                                                                                                                                                                      Z
L57573800357932-001-001       JY1702131354401ICMOTLOUNG PASEKA                                                                                                                                                                                                                                                                                                                                                                                                                                                                                                                                                                                                                                                                                                                                                                                                                                                                                                                                                                                      Z
L57675700357192-001-002       JY1702131312031ICMOTLOUNG PASEKA                                                                                                                                                                                                                                                                                                                                                                                                                                                                                                                                                                                                                                                                                                                                                                                                                                                                                                                                                                                      Z
L57675700357192-002-002       JY1702131318001ICMOTLOUNG PASEKA                                                                                                                                                                                                                                                                                                                                                                                                                                                                                                                                                                                                                                                                                                                                                                                                                                                                                                                                                                                      Z
L57695900357045-001-002       JY1702131312131ICMOTLOUNG PASEKA                                                                                                                                                                                                                                                                                                                                                                                                                                                                                                                                                                                                                                                                                                                                                                                                                                                                                                                                                                                      Z
L57695900357045-002-002       JY1702131346031ICMOTLOUNG PASEKA                                                                                                                                                                                                                                                                                                                                                                                                                                                                                                                                                                                                                                                                                                                                                                                                                                                                                                                                                                                      Z
L57827000357708-001-001       JY1702131309321ICMOTLOUNG PASEKA                                                                                                                                                                                                                                                                                                                                                                                                                                                                                                                                                                                                                                                                                                                                                                                                                                                                                                                                                                                      Z
L57965300354680-001-003       JY1702131336481ICMOTLOUNG PASEKA                                                                                                                                                                                                                                                                                                                                                                                                                                                                                                                                                                                                                                                                                                                                                                                                                                                                                                                                                                                      Z
L57965300354680-002-003       JY1702131314491ICMOTLOUNG PASEKA                                                                                                                                                                                                                                                                                                                                                                                                                                                                                                                                                                                                                                                                                                                                                                                                                                                                                                                                                                                      Z
L57965300354680-003-003       JY1702131354041ICMOTLOUNG PASEKA                                                                                                                                                                                                                                                                                                                                                                                                                                                                                                                                                                                                                                                                                                                                                                                                                                                                                                                                                                                      Z
L57968000359062-001-001       JY1702131312241ICMOTLOUNG PASEKA                                                                                                                                                                                                                                                                                                                                                                                                                                                                                                                                                                                                                                                                                                                                                                                                                                                                                                                                                                                      Z
L57977000354048-001-004       JY1702131351551ICMOTLOUNG PASEKA                                                                                                                                                                                                                                                                                                                                                                                                                                                                                                                                                                                                                                                                                                                                                                                                                                                                                                                                                                                      Z
L57977000354048-002-004       JY1702131327441ICMOTLOUNG PASEKA                                                                                                                                                                                                                                                                                                                                                                                                                                                                                                                                                                                                                                                                                                                                                                                                                                                                                                                                                                                      Z
L57977000354048-003-004       JY1702131316431ICMOTLOUNG PASEKA                                                                                                                                                                                                                                                                                                                                                                                                                                                                                                                                                                                                                                                                                                                                                                                                                                                                                                                                                                                      Z
L57977000354048-004-004       JY1702131350481ICMOTLOUNG PASEKA                                                                                                                                                                                                                                                                                                                                                                                                                                                                                                                                                                                                                                                                                                                                                                                                                                                                                                                                                                                      Z
L57986200353835-001-004       JY1702131315151ICMOTLOUNG PASEKA                                                                                                                                                                                                                                                                                                                                                                                                                                                                                                                                                                                                                                                                                                                                                                                                                                                                                                                                                                                      Z
L57986200353835-002-004       JY1702131316261ICMOTLOUNG PASEKA                                                                                                                                                                                                                                                                                                                                                                                                                                                                                                                                                                                                                                                                                                                                                                                                                                                                                                                                                                                      Z
L57986200353835-003-004       JY1702131315341ICMOTLOUNG PASEKA                                                                                                                                                                                                                                                                                                                                                                                                                                                                                                                                                                                                                                                                                                                                                                                                                                                                                                                                                                                      Z
L57986200353835-004-004       JY1702131317341ICMOTLOUNG PASEKA                                                                                                                                                                                                                                                                                                                                                                                                                                                                                                                                                                                                                                                                                                                                                                                                                                                                                                                                                                                      Z
L58229600357814-001-004       JY1702131327241ICMOTLOUNG PASEKA                                                                                                                                                                                                                                                                                                                                                                                                                                                                                                                                                                                                                                                                                                                                                                                                                                                                                                                                                                                      Z
L58229600357814-002-004       JY1702131311231ICMOTLOUNG PASEKA                                                                                                                                                                                                                                                                                                                                                                                                                                                                                                                                                                                                                                                                                                                                                                                                                                                                                                                                                                                      Z
L58229600357814-003-004       JY1702131353461ICMOTLOUNG PASEKA                                                                                                                                                                                                                                                                                                                                                                                                                                                                                                                                                                                                                                                                                                                                                                                                                                                                                                                                                                                      Z
L58229600357814-004-004       JY1702131309401ICMOTLOUNG PASEKA                                                                                                                                                                                                                                                                                                                                                                                                                                                                                                                                                                                                                                                                                                                                                                                                                                                                                                                                                                                      Z
L58240300356126-001-002       JY1702131336101ICMOTLOUNG PASEKA                                                                                                                                                                                                                                                                                                                                                                                                                                                                                                                                                                                                                                                                                                                                                                                                                                                                                                                                                                                      Z
L58240300356126-002-002       JY1702131320161ICMOTLOUNG PASEKA                                                                                                                                                                                                                                                                                                                                                                                                                                                                                                                                                                                                                                                                                                                                                                                                                                                                                                                                                                                      Z
L58298000357747-001-002       JY1702131345021ICMOTLOUNG PASEKA                                                                                                                                                                                                                                                                                                                                                                                                                                                                                                                                                                                                                                                                                                                                                                                                                                                                                                                                                                                      Z
L58298000357747-002-002       JY1702131346471ICMOTLOUNG PASEKA                                                                                                                                                                                                                                                                                                                                                                                                                                                                                                                                                                                                                                                                                                                                                                                                                                                                                                                                                                                      Z
L58303000355178-001-003       JY1702131309011ICMOTLOUNG PASEKA                                                                                                                                                                                                                                                                                                                                                                                                                                                                                                                                                                                                                                                                                                                                                                                                                                                                                                                                                                                      Z
L58303000355178-002-003       JY1702131313531ICMOTLOUNG PASEKA                                                                                                                                                                                                                                                                                                                                                                                                                                                                                                                                                                                                                                                                                                                                                                                                                                                                                                                                                                                      Z
L58303000355178-003-003       JY1702131351211ICMOTLOUNG PASEKA                                                                                                                                                                                                                                                                                                                                                                                                                                                                                                                                                                                                                                                                                                                                                                                                                                                                                                                                                                                      Z
L58391400356596-001-001       JY1702131336421ICMOTLOUNG PASEKA                                                                                                                                                                                                                                                                                                                                                                                                                                                                                                                                                                                                                                                                                                                                                                                                                                                                                                                                                                                      Z
L58401600353686-001-001       JY1702131339381ICMOTLOUNG PASEKA                                                                                                                                                                                                                                                                                                                                                                                                                                                                                                                                                                                                                                                                                                                                                                                                                                                                                                                                                                                      Z
L58427600359974-001-002       JY1702131351081ICMOTLOUNG PASEKA                                                                                                                                                                                                                                                                                                                                                                                                                                                                                                                                                                                                                                                                                                                                                                                                                                                                                                                                                                                      Z
L58427600359974-002-002       JY1702131351311ICMOTLOUNG PASEKA                                                                                                                                                                                                                                                                                                                                                                                                                                                                                                                                                                                                                                                                                                                                                                                                                                                                                                                                                                                      Z
L58448100357975-001-001       JY1702131312311ICMOTLOUNG PASEKA                                                                                                                                                                                                                                                                                                                                                                                                                                                                                                                                                                                                                                                                                                                                                                                                                                                                                                                                                                                      Z
L58647200356981-001-024       JY1702131040251ICMOTLOUNG PASEKA                                                                                                                                                                                                                                                                                                                                                                                                                                                                                                                                                                                                                                                                                                                                                                                                                                                                                                                                                                                      Z
L58647200356981-002-024       JY1702131040541ICMOTLOUNG PASEKA                                                                                                                                                                                                                                                                                                                                                                                                                                                                                                                                                                                                                                                                                                                                                                                                                                                                                                                                                                                      Z
L58647200356981-003-024       JY1702131039561ICMOTLOUNG PASEKA                                                                                                                                                                                                                                                                                                                                                                                                                                                                                                                                                                                                                                                                                                                                                                                                                                                                                                                                                                                      Z
L58647200356981-004-024       JY1702131040291ICMOTLOUNG PASEKA                                                                                                                                                                                                                                                                                                                                                                                                                                                                                                                                                                                                                                                                                                                                                                                                                                                                                                                                                                                      Z
L58647200356981-005-024       JY1702131043121ICMOTLOUNG PASEKA                                                                                                                                                                                                                                                                                                                                                                                                                                                                                                                                                                                                                                                                                                                                                                                                                                                                                                                                                                                      Z
L58647200356981-006-024       JY1702131043071ICMOTLOUNG PASEKA                                                                                                                                                                                                                                                                                                                                                                                                                                                                                                                                                                                                                                                                                                                                                                                                                                                                                                                                                                                      Z
L58647200356981-007-024       JY1702131042301ICMOTLOUNG PASEKA                                                                                                                                                                                                                                                                                                                                                                                                                                                                                                                                                                                                                                                                                                                                                                                                                                                                                                                                                                                      Z
L58647200356981-008-024       JY1702131042181ICMOTLOUNG PASEKA                                                                                                                                                                                                                                                                                                                                                                                                                                                                                                                                                                                                                                                                                                                                                                                                                                                                                                                                                                                      Z
L58647200356981-009-024       JY1702131040471ICMOTLOUNG PASEKA                                                                                                                                                                                                                                                                                                                                                                                                                                                                                                                                                                                                                                                                                                                                                                                                                                                                                                                                                                                      Z
L58647200356981-010-024       JY1702131040161ICMOTLOUNG PASEKA                                                                                                                                                                                                                                                                                                                                                                                                                                                                                                                                                                                                                                                                                                                                                                                                                                                                                                                                                                                      Z
L58647200356981-011-024       JY1702131040201ICMOTLOUNG PASEKA                                                                                                                                                                                                                                                                                                                                                                                                                                                                                                                                                                                                                                                                                                                                                                                                                                                                                                                                                                                      Z
L58647200356981-012-024       JY1702131040051ICMOTLOUNG PASEKA                                                                                                                                                                                                                                                                                                                                                                                                                                                                                                                                                                                                                                                                                                                                                                                                                                                                                                                                                                                      Z
L58647200356981-013-024       JY1702131040121ICMOTLOUNG PASEKA                                                                                                                                                                                                                                                                                                                                                                                                                                                                                                                                                                                                                                                                                                                                                                                                                                                                                                                                                                                      Z
L58647200356981-014-024       JY1702131040411ICMOTLOUNG PASEKA                                                                                                                                                                                                                                                                                                                                                                                                                                                                                                                                                                                                                                                                                                                                                                                                                                                                                                                                                                                      Z
L58647200356981-015-024       JY1702131042491ICMOTLOUNG PASEKA                                                                                                                                                                                                                                                                                                                                                                                                                                                                                                                                                                                                                                                                                                                                                                                                                                                                                                                                                                                      Z
L58647200356981-016-024       JY1702131040011ICMOTLOUNG PASEKA                                                                                                                                                                                                                                                                                                                                                                                                                                                                                                                                                                                                                                                                                                                                                                                                                                                                                                                                                                                      Z
L58647200356981-017-024       JY1702131039501ICMOTLOUNG PASEKA                                                                                                                                                                                                                                                                                                                                                                                                                                                                                                                                                                                                                                                                                                                                                                                                                                                                                                                                                                                      Z
L58647200356981-018-024       JY1702131043031ICMOTLOUNG PASEKA                                                                                                                                                                                                                                                                                                                                                                                                                                                                                                                                                                                                                                                                                                                                                                                                                                                                                                                                                                                      Z
L58647200356981-019-024       JY1702131042441ICMOTLOUNG PASEKA                                                                                                                                                                                                                                                                                                                                                                                                                                                                                                                                                                                                                                                                                                                                                                                                                                                                                                                                                                                      Z
L58647200356981-020-024       JY1702131042581ICMOTLOUNG PASEKA                                                                                                                                                                                                                                                                                                                                                                                                                                                                                                                                                                                                                                                                                                                                                                                                                                                                                                                                                                                      Z
L58647200356981-021-024       JY1702131042121ICMOTLOUNG PASEKA                                                                                                                                                                                                                                                                                                                                                                                                                                                                                                                                                                                                                                                                                                                                                                                                                                                                                                                                                                                      Z
L58647200356981-022-024       JY1702131042391ICMOTLOUNG PASEKA                                                                                                                                                                                                                                                                                                                                                                                                                                                                                                                                                                                                                                                                                                                                                                                                                                                                                                                                                                                      Z
L58647200356981-023-024       JY1702131042351ICMOTLOUNG PASEKA                                                                                                                                                                                                                                                                                                                                                                                                                                                                                                                                                                                                                                                                                                                                                                                                                                                                                                                                                                                      Z
L58647200356981-024-024       JY1702131042531ICMOTLOUNG PASEKA                                                                                                                                                                                                                                                                                                                                                                                                                                                                                                                                                                                                                                                                                                                                                                                                                                                                                                                                                                                      Z
V54888100000981-024-024       JY1702131042531ICMOTL               000000000000000170213000000   SLAVE 4     000000000000355674               02
V54892900000981-024-024       JY1702131042531ICMOTL               000000000000000170213000000   SLAVE 4     000000000000355527               02
V54907200000981-024-024       JY1702131042531ICMOTL               000000000000000170213000000   SLAVE 4     000000000000354644               03
V54912000000981-024-024       JY1702131042531ICMOTL               000000000000000170213000000   SLAVE 4     000000000000355396               02
V54935700000981-024-024       JY1702131042531ICMOTL               000000000000000170213000000   SLAVE 4     000000000000352091               01
V55363200000981-024-024       JY1702131042531ICMOTL               000000000000000170213000000   SLAVE 4     000000000000353866               04
V55446800000981-024-024       JY1702131042531ICMOTL               000000000000000170213000000   SLAVE 4     000000000000359009               03
V55465500000981-024-024       JY1702131042531ICMOTL               000000000000000170213000000   SLAVE 4     000000000000359324               02
V56616900000981-024-024       JY1702131042531ICMOTL               000000000000000170213000000   SLAVE 4     000000000000347630               02
V57029700000981-024-024       JY1702131042531ICMOTL               000000000000000170213000000   SLAVE 4     000000000000360121               03
