184821000184821               184821               170213KB     1400+00000+KB0000007979+0000007979+000000000+000001118+0000009090+0000000007+I20000000000+0000009090+Z
184821001184821106-000890     184821000876416080628WATER BOTTLE PL 700ml  0000001000+00005262+00000+0001T   00005262+0000000818          1400 AN5210               2AZ
184821002184821037-000004     184821006001023763679ASHTRAY PL TUB 8X11CM  0000001000+00001753+00000+0001T   00002192+0008190818          1400 AN5515               2AZ
184821003184821007-000204     184821006009635835272EXAM-PAD 60SHT PUNCHED 0000001000+00000964+00000+0001T   00000964+0000000818          1400 AN5130               2AZ
184822000184822               184822               170213KB     1400+00000+KB0000006134+0000006134+000000000+000000859+0000006993+0000000000+I40000006993+0000000000+Z
184822001184822566-000068     184822006003000418046POP UP LOVE 2 ASSTD    0000001000+00002192+00000+0001T   00002192+0000000821          1400 AN5130               2AZ
184822002184822006-000166-D   184822006003000516490BALLOONS LRG 6PC RED   0000001000+00001314+00000+0001T   00001314+0000000821          1400 AN5131               2AZ
184822003184822903-000194     184822006009826020616SWT CHOC RP LOLLY 25G  0000001000+00001314+00000+0001T   00001314+0000000821          1400 AN5150               2AZ
184822004184822006-000166-H   184822006003000608096BALLOONS HELIUM 6PC WHT0000001000+00001314+00000+0001T   00001314+0000000821          1400 AN5131               2AZ
184823000184823               184823               170213KB     1400+00000+KB0000003115+0000003115+000000000+000000437+0000003550+0000000002+I20000000000+0000003550+Z
184823001184823107-002117     184823006002580008890BASIN PL 32cm(VIRGIN)4L0000001000+00001753+00000+0001T   00001753+0000000932          1400 AN5210               2AZ
184823002184823107-004105     184823006002923010504BUCKET 9L OPEN         0000001000+00001314+00000+0001T   00001314+0000000932          1400 AN5210               2AZ
184823003184823112-116069     184823006009681820277TCS CARRIER BAG JUMBO  0000001000+00000048+00000+0001T   00000048+0000000932          1400 AN5090               2AZ
184824000184824               184824               170213KB     1400+00000+KB0000004857+0000004857+000000000+000000681+0000005530+0000000008+I20000000000+0000005530+Z
184824001184824048-000859     184824006003000423422TORCH 9 LED PL 3XAAA   0000001000+00001753+00000+0001T   00001753+0000000935          1400 AN5305               2AZ
184824002184824048-000823     184824006003000063611TORCH DYNAMO 2LED 10cm 0000001000+00003069+00000+0001T   00003069+0000000935          1400 AN5305               2AZ
184824003184824112-116038     184824006009681820246TCS CARRIER BAG MIDI   0000001000+00000035+00000+0001T   00000035+0000000935          1400 AN5090               2AZ
184825000184825               184825               170213KB     1400+00000+KB0000004822+0000004822+000000000+000000676+0000005490+0000000008+I20000000000+0000005490+Z
184825001184825002-000715     184825006001023806574CUTTING-BOARD 28x20cm  0000001000+00003946+00000+0001T   00003946+0000000941          1400 AN5300               2AZ
184825002184825567-014132     184825006003000560028BOOK COLOURING 24 PAGE 0000001000+00000876+00000+0001T   00000876+0000000941          1400 AN5757               2AZ
184826000184826               184826               170213KB     1400+00000+KB0000001753+0000001753+000000000+000000246+0000001990+0000000009+I20000000000+0000001990+Z
184826001184826079-000206     184826006003000639700PENCIL CRAYONS THERAPY 0000001000+00001753+00000+0001T   00001753+0000000941          1400 AN5130               2AZ
184827000184827               184827               170213KB     1400+00000+KB0000003507+0000003507+000000000+000000491+0000003990+0000000008+I20000000000+0000003990+Z
184827001184827133-000010-A   184827006001023997647CLEANING CLOTH ROLL 30 0000001000+00003507+00000+0001T   00003507+0000000944          1400 AN5212               2AZ
184828000184828               184828               170213KB     1400+00000+KB0000005524+0000005524+000000000+000000774+0000006298+0000000000+I40000006298+0000000000+Z
184828001184828077-000303     184828006001023593757GIFT-BAG PAPER MED     0000001000+00001578+00000+0001T   00001578+0000000946          1400 AN5112               2AZ
184828002184828368-000152     184828006003000166886PLUSH BEAR 15cm        0000001000+00003946+00000+0001T   00005262+0008140946          1400 AN5745               2AZ
184829000184829               184829               170213KB     1400+00000+KB0000011098+0000011098+000000000+000001555+0000012650+0000000003+I20000000000+0000012650+Z
184829001184829113-000160     184829006001023842213VACUUM-FLASK ,45L 2TONE0000001000+00009648+00000+0001T   00009648+0000000947          1400 AN5305               2AZ
184829002184829107-002100     184829006002638001354BASIN PL 36cm          0000001000+00001402+00000+0001T   00001402+0000000947          1400 AN5210               2AZ
184829003184829112-116069     184829006009681820277TCS CARRIER BAG JUMBO  0000001000+00000048+00000+0001T   00000048+0000000947          1400 AN5090               2AZ
184830000184830               184830               170213KB     1400+00000+KB0000006399+0000006399+000000000+000000898+0000007290+0000000007+I20000000000+0000007290+Z
184830001184830006-006018     184830006001023735256PARTY-SPRAY HAIR ASSORT0000002000+00002630+00000+0001T   00002630+0000000955          1400 AN5131               2AZ
184830002184830565-000071     184830006003000643387NOVELTY WIND UP CHATTER0000001000+00001139+00000+0001T   00001139+0000000955          1400 AN5745               2AZ
184831000184831               184831               170213KB     1400+00000+KB0000002629+0000002629+000000000+000000369+0000002990+0000000008+I20000000000+0000002990+Z
184831001184831078-000480     184831006008741002332BOSTIK SHOE-REPAIR 25ml0000001000+00001753+00000+0001T   00001753+0000000955          1400 AN5810               2AZ
184831002184831078-000025     184831008887013700064SUPERGLUE 3g 1PCE CARD 0000001000+00000876+00000+0001T   00000876+0000000955          1400 AN5810               2AZ
184832000184832               184832               170213KB     1400+00000+KB0000003507+0000003507+000000000+000000491+0000003990+0000000008+I20000000000+0000003990+Z
184832001184832018-000136     184832006001023659026MUG OCC LOVE W/PLUSH   0000001000+00003507+00000+0001T   00003507+0000001008          1400 AN5515               2AZ
184833000184833               184833               170213KB     1400+00000+KB0000004380+0000004380+000000000+000000615+0000004990+0000000005+I20000000000+0000004990+Z
184833001184833007-000045     184833006009608640438DISPLAY-POCKETS A4 10PC0000005000+00000876+00000+0001T   00000876+0000001012          1400 AN51302IC            2AZ
184834000184834               184834               170213KB     1400+00000+KB0000003507+0000003507+000000000+000000491+0000003990+0000000008+I20000000000+0000003990+Z
184834001184834567-011438     184834009780857260628BK ACTIVITY BOYS STICKE0000001000+00003507+00000+0001T   00003507+0000001017          1400 AN5757               2AZ
184835000184835               184835               170213KB     1400+00000+KB0000003244+0000003244+000000000+000000455+0000003690+0000000009+I20000000000+0000003690+Z
184835001184835150-000770     184835006005387000128UTILITY BOX MEGA       0000001000+00003244+00000+0001T   00003244+0000001018          1400 AN5810               2AZ
184836000184836               184836               170213KB     1400+00000+KB0000030324+0000030324+000000000+000004256+0000034580+0000000000+I40000034580+0000000000+Z
184836001184836112-116069     184836006009681820277TCS CARRIER BAG JUMBO  0000001000+00000048+00000+0001T   00000048+0000001027          1400 AN5090               2AZ
184836002184836077-000303     184836006001023593757GIFT-BAG PAPER MED     0000001000+00001578+00000+0001T   00001578+0000001027          1400 AN5112               2AZ
184836003184836077-000311     184836006001023608666GIFT-BAG 11X14CM GLOSS 0000001000+00000613+00000+0001T   00000613+0000001027          1400 AN5112               2AZ
184836004184836566-000068     184836006003000418046POP UP LOVE 2 ASSTD    0000001000+00002192+00000+0001T   00002192+0000001027          1400 AN5130               2AZ
184836005184836080-000139     184836006003000611690CARD & ENV MINI SET 6PC0000001000+00002192+00000+0001T   00002192+0000001027          1400 AN5112               2AZ
184836006184836031-005853     184836006003000442416P/FRAME WDN TWIN HEARTS0000001000+00003507+00000+0001T   00003507+0000001027          1400 AN5510               2AZ
184836007184836018-000130     184836006001023867537MUG OCC LOVE MINI+HEART0000001000+00003507+00000+0001T   00003507+0000001027          1400 AN5515               2AZ
184836008184836018-005009     184836006001023725608MUG W/PLUSH-BEAR LOVE  0000001000+00003507+00000+0001T   00003507+0000001027          1400 AN5515               2AZ
184836009184836301-085001     184836006003000297610ORN WATERBALL LOVE ASST0000001000+00004823+00000+0001T   00004823+0000001027          1400 AN5505               2AZ
184836010184836018-000170     184836006001023775528MUG OCC. LOVE 2PC MINI 0000001000+00002192+00000+0001T   00002192+0000001027          1400 AN5515               2AZ
184836011184836903-000194     184836006009826020616SWT CHOC RP LOLLY 25G  0000002000+00001314+00000+0001T   00001314+0000001027          1400 AN5150               2AZ
184836012184836903-000183     184836006003000451043SWT LB HEART LOLLY     0000009000+00000393+00000+0001T   00000393+0000001027          1400 AN5150               2AZ
184837000184837               184837               170213KB     1400+00000+KB0000004732+0000004732+000000000+000000664+0000005390+0000000006+I20000000000+0000005390+Z
184837001184837028-000796-A   184837006001023897152SKEWERS BAMBOO 100P 4mm0000002000+00001753+00000+0001T   00001753+0000001035          1400 AN5305               2AZ
184837002184837304-001011     184837006001023806727FLWR ROSE RED W/BEAR   0000002000+00000613+00000+0001T   00000788+0006471035          1400 AN5510               2AZ
184838000184838               184838               170213KB     1400+00000+KB0000022407+0000022407+000000000+000003139+0000025540+0000000006+I20000000000+0000025540+Z
184838001184838112-116069     184838006009681820277TCS CARRIER BAG JUMBO  0000001000+00000048+00000+0001T   00000048+0000001053          1400 AN5090               2AZ
184838002184838024-091104     184838006003000253531CUP-CAKE STAND 4-TIER  0000001000+00011402+00000+0001T   00011402+0000001053          1400 AN5300               2AZ
184838003184838200-003024     184838006001023657299REFUSE BAGS 20PCE BLACK0000001000+00001753+00000+0001T   00001753+0000001053          1400 AN5214               2AZ
184838004184838078-000025     184838008887013700064SUPERGLUE 3g 1PCE CARD 0000001000+00000876+00000+0001T   00000876+0000001053          1400 AN5810               2AZ
184838005184838046-000012     184838006904708013062BATTERIES AA  CARD-OF-40000001000+00001314+00000+0001T   00001314+0000001053          1400 AN5312               2AZ
184838006184838003-000141-A   184838006003000580002ORN ANIMAL ON M/ROOM   0000002000+00003507+00000+0001T   00003507+0000001053          1400 AN5505               2AZ
184839000184839               184839               170213KB     1400+00000+KB0000002665+0000002665+000000000+000000374+0000003030+0000000009+I20000000000+0000003030+Z
184839001184839567-075699     184839006003000428168BK NOVEL CATEGORY A    0000001000+00002630+00000+0001T   00003069+0008191203          1400 AN5757               2AZ
184839002184839112-116038     184839006009681820246TCS CARRIER BAG MIDI   0000001000+00000035+00000+0001T   00000035+0000001203          1400 AN5090               2AZ
184840000184840               184840               170213KB     1400+00000+KB0000044336+0000044336+000000000+000006212+0000050540+0000000008+I20000000000+0000050540+Z
184840001184840112-116069     184840006009681820277TCS CARRIER BAG JUMBO  0000001000+00000048+00000+0001T   00000048+0000001206          1400 AN5090               2AZ
184840002184840047-000006-H   184840006001023704054M/PLUG 3x16A+3x5A+CARD 0000003000+00006665+00000+0001T   00006665+0000001206          1400 AN5880               2AZ
184840003184840047-000512-H   184840006001023657473EXT-CORD 3m DBL-J   H&H0000001000+00006578+00000+0001T   00006578+0000001206          1400 AN5880               2AZ
184840004184840047-002040-H   184840006003000219117P/ADAPTOR 3x16A 3x5A   0000001000+00004385+00000+0001T   00004385+0000001206          1400 AN5880               2AZ
184840005184840047-000006-H   184840006001023704054M/PLUG 3x16A+3x5A+CARD 0000002000+00006665+00000+0001T   00006665+0000001206          1400 AN5880               2AZ
184841000184841               184841               170213KB     1400+00000+KB0000002630+0000002630+000000000+000000369+0000002990+0000000009+I20000000000+0000002990+Z
184841001184841466-000515     184841006001023477408BALLS TENNIS BAG-OF-3  0000001000+00002630+00000+0001T   00002630+0000001208          1400 AN5785               2AZ
184842000184842               184842               170213KB     1400+00000+KB0000002678+0000002678+000000000+000000376+0000003054+0000000000+I40000003054+0000000000+Z
184842001184842077-000270     184842006003000395453GIFT-BAG PPR JMB 33X45 0000001000+00002630+00000+0001T   00002630+0000001211          1400 AN5112               2AZ
184842002184842112-116069     184842006009681820277TCS CARRIER BAG JUMBO  0000001000+00000048+00000+0001T   00000048+0000001211          1400 AN5090               2AZ
184843000184843               184843               170213KB     1400+00000+KB0000013154+0000013154+000000000+000001843+0000014990+0000000007+I20000000000+0000014990+Z
184843001184843051-600634     184843006003000226009PLANTER WALL MOUNT PL  0000002000+00003069+00000+0001T   00003069+0000001213          1400 AN5820               2AZ
184843002184843051-600640     184843006001023868435PLANTER W/TRAY 69x23x160000001000+00007016+00000+0001T   00007016+0000001213          1400 AN5820               2AZ
184844000184844               184844               170213KB     1400+00000+KB0000002629+0000002629+000000000+000000369+0000002990+0000000008+I20000000000+0000002990+Z
184844001184844903-000295     184844006001704002899SWT MS FRUITY RASCALS  0000001000+00000876+00000+0001T   00000876+0000001219          1400 AN5150               2AZ
184844002184844003-002257     184844006001023730442ORN BIRD 10CM W/COLOUR 0000001000+00001753+00000+0001T   00001753+0000001219          1400 AN5505               2AZ
184845000184845               184845               170213KB     1400+00000+KB0000005120+0000005120+000000000+000000717+0000005830+0000000007+I20000000000+0000005830+Z
184845001184845018-000136     184845006001023659026MUG OCC LOVE W/PLUSH   0000001000+00003507+00000+0001T   00003507+0000001220          1400 AN5515               2AZ
184845002184845077-000303     184845006001023593757GIFT-BAG PAPER MED     0000001000+00001578+00000+0001T   00001578+0000001220          1400 AN5112               2AZ
184845003184845112-116038     184845006009681820246TCS CARRIER BAG MIDI   0000001000+00000035+00000+0001T   00000035+0000001220          1400 AN5090               2AZ
184846000184846               184846               170213KB     1400+00000+KB0000002630+0000002630+000000000+000000369+0000002990+0000000009+I20000000000+0000002990+Z
184846001184846083-000058     184846006003000400331LIGHTER JET CIGAR REFIL0000001000+00002630+00000+0001T   00002630+0000001220          1400 AN5315               2AZ
184847000184847               184847               170213KB     1400+00000+KB0000008364+0000008364+000000000+000001172+0000009536+0000000000+I40000009536+0000000000+Z
184847001184847162-096646     184847006001492966465#TAG HOT DEALS KIDS HR 0000001000+00002630+00000+0001T   00002630+0000001222          1400 AN5160               2AZ
184847002184847362-000307     184847006003000519750HAIR HEADBAND PRINTED  0000001000+00001314+00000+0001T   00001314+0000001222          1400 AN5160               2AZ
184847003184847162-093206     184847006001492932064#TAG KIDS 2PK A/BAND   0000001000+00004385+00000+0001T   00004385+0000001222          1400 AN5160               2AZ
184847004184847112-116038     184847006009681820246TCS CARRIER BAG MIDI   0000001000+00000035+00000+0001T   00000035+0000001222          1400 AN5090               2AZ
184848000184848               184848               170213KB     1400+00000+KB0000011079+0000011079+000000000+000001553+0000012630+0000000002+I20000000000+0000012630+Z
184848001184848112-116038     184848006009681820246TCS CARRIER BAG MIDI   0000001000+00000035+00000+0001T   00000035+0000001223          1400 AN5090               2AZ
184848002184848560-000108     184848006003000548262ANIMALS DINOSAUR+ACC   0000001000+00005262+00000+0001T   00005262+0000001223          1400 AN5745               2AZ
184848003184848261-002267     184848006001023665126GUN 8-SHOT SUPER-CAP   0000002000+00001753+00000+0001T   00001753+0000001223          1400 AN5710               2AZ
184848004184848261-000121     184848006001023341600GUN-CAPS 8-SHOT CARD-9 0000002000+00000700+00000+0001T   00000700+0000001223          1400 AN5710               2AZ
184848005184848039-000319-8   184848006003000443222B/CANDLES LRG NUMBER-8 0000001000+00000876+00000+0001T   00000876+0000001223          1400 AN5510               2AZ
184849000184849               184849               170213KB     1400+00000+KB0000007311+0000007311+000000000+000001025+0000008336+0000000000+I40000008336+0000000000+Z
184849001184849112-116038     184849006009681820246TCS CARRIER BAG MIDI   0000001000+00000035+00000+0001T   00000035+0000001225          1400 AN5090               2AZ
184849002184849261-000004     184849006003000599578GUN SPACE PING PONG    0000001000+00003507+00000+0001T   00003507+0000001225          1400 AN5710               2AZ
184849003184849079-013032-D   184849006003000389643RIBBONS                0000001000+00002630+00000+0001T   00002630+0000001225          1400 AN5130               2AZ
184849004184849565-000071     184849006003000643387NOVELTY WIND UP CHATTER0000001000+00001139+00000+0001T   00001139+0000001225          1400 AN5745               2AZ
184850000184850               184850               170213KB     1400+00000+KB0000004821+0000004821+000000000+000000676+0000005490+0000000007+I20000000000+0000005490+Z
184850001184850018-000170     184850006001023775528MUG OCC. LOVE 2PC MINI 0000001000+00002192+00000+0001T   00002192+0000001229          1400 AN5515               2AZ
184850002184850024-091102     184850006003453000010BAKING-CUP PAPER 50PC  0000001000+00002192+00000+0001T   00002192+0000001229          1400 AN5300               2AZ
184850003184850083-000049     184850004891035200024CIG-LIGHTER DISPOSABLE 0000001000+00000437+00000+0001T   00000437+0000001229          1400 AN5315               2AZ
184851000184851               184851               170213KB     1400+00000+KB0000010520+0000010520+000000000+000001474+0000011994+0000000000+I40000011994+0000000000+Z
184851001184851071-003011     184851006001023762825PEN STICKBALL X10 ASSTD0000002000+00001753+00000+0001T   00001753+0000001231          1400 AN5130               2AZ
184851002184851007-000542     184851006001023847874NOTE-BOOK H/C SKETCHPAD0000002000+00003507+00000+0001T   00003507+0000001231          1400 AN5130               2AZ
184852000184852               184852               170213KB     1400+00000+KB0000000035+0000000035+000000000+000000005+0000000040+0000000000+I20000000000+0000000040+Z
184852001184852112-116038     184852006009681820246TCS CARRIER BAG MIDI   0000001000+00000035+00000+0001T   00000035+0000001232          1400 AN5090               2AZ
184853000184853               184853               170213KB     1400+00000+KB0000007325+0000007325+000000000+000001027+0000008352+0000000000+I40000008352+0000000000+Z
184853001184853036-000405     184853006001023630247CLOTHES DRYER PL 18-PEG0000001000+00004385+00000+0001T   00004385+0000001234          1400 AN5212               2AZ
184853002184853112-116069     184853006009681820277TCS CARRIER BAG JUMBO  0000001000+00000048+00000+0001T   00000048+0000001234          1400 AN5090               2AZ
184853003184853048-000859     184853006003000423422TORCH 9 LED PL 3XAAA   0000001000+00001753+00000+0001T   00001753+0000001234          1400 AN5305               2AZ
184853004184853046-000014     184853006001023725387BATTERIES SIZE:AAA 4PCE0000001000+00001139+00000+0001T   00001139+0000001234          1400 AN5312               2AZ
184854000184854               184854               170213KB     1400+00000+KB0000002630+0000002630+000000000+000000369+0000002990+0000000009+I20000000000+0000002990+Z
184854001184854006-006019     184854006001023908193PARTY-SPRAY GLITTER    0000001000+00002630+00000+0001T   00002630+0000001235          1400 AN5131               2AZ
184855000184855               184855               170213KB     1400+00000+KB0000002192+0000002192+000000000+000000307+0000002490+0000000009+I20000000000+0000002490+Z
184855001184855080-000127     184855006003000424351VALENTINES DAY 36x24CM 0000001000+00002192+00000+0001T   00002192+0000001247          1400 AN5112               2AZ
184856000184856               184856               170213KB     1400+00000+KB0000003506+0000003506+000000000+000000491+0000003990+0000000007+I20000000000+0000003990+Z
184856001184856077-000312     184856006001023608697GIFT-BAG 10X35CM GLOSS 0000001000+00001314+00000+0001T   00001314+0000001311          1400 AN5112               2AZ
184856002184856077-000309-A   184856006003000671007GIFT-BAG HOLOGRAM JMB  0000001000+00002192+00000+0001T   00002192+0000001311          1400 AN5112               2AZ
184857000184857               184857               170213KB     1400+00000+KB0000001753+0000001753+000000000+000000246+0000001990+0000000009+I20000000000+0000001990+Z
184857001184857084-091590     184857006003000092864FOOT FILE 17cm         0000001000+00001753+00000+0001T   00001753+0000001311          1400 AN5200               2AZ
184858000184858               184858               170213KB     1400+00000+KB0000006260+0000006260+000000000+000000879+0000007130+0000000009+I20000000000+0000007130+Z
184858001184858079-009700-D   184858006003000545711PAPER SIRIO A4 RED COL.0000005000+00000306+00000+0001T   00000306+0000001339          1400 AN5130               2AZ
184858002184858079-009702-D   184858008427973059354PAPER SIRIO A2 RED COL 0000001000+00001051+00000+0001T   00001051+0000001339          1400 AN5130               2AZ
184858003184858079-009702-A   184858008427973059408PAPER SIRIO A2 BLACK   0000001000+00001051+00000+0001T   00001051+0000001339          1400 AN5130               2AZ
184858004184858006-000166-D   184858006003000516490BALLOONS LRG 6PC RED   0000002000+00001314+00000+0001T   00001314+0000001339          1400 AN5131               2AZ
184859000184859               184859               170213KB     1400+00000+KB0000002192+0000002192+000000000+000000307+0000002490+0000000009+I20000000000+0000002490+Z
184859001184859105-007016     184859006003000685059CONTAINER ROUND CLR    0000001000+00002192+00000+0001T   00002192+0000001341          1400 AN5210               2AZ
184860000184860               184860               170213KB     1400+00000+KB0000002663+0000002663+000000000+000000374+0000003030+0000000007+I20000000000+0000003030+Z
184860001184860076-000017     184860006001811010022TWINE COTTON 50g-BALL  0000003000+00000876+00000+0001T   00000876+0000001344          1400 AN5810               2AZ
184860002184860112-116038     184860006009681820246TCS CARRIER BAG MIDI   0000001000+00000035+00000+0001T   00000035+0000001344          1400 AN5090               2AZ
184861000184861               184861               170213KB     1400+00000+KB0000002749+0000002749+000000000+000000385+0000003130+0000000004+I20000000000+0000003130+Z
184861001184861566-002000     184861000721129013206STICKERS CRYSTAL ASSTD 0000002000+00000700+00000+0001T   00000700+0000001345          1400 AN5130               2AZ
184861002184861566-000351     184861006001023809230STICKERS D/CUT ALPHABET0000001000+00001314+00000+0001T   00001753+0008151345          1400 AN5130               2AZ
184861003184861112-116038     184861006009681820246TCS CARRIER BAG MIDI   0000001000+00000035+00000+0001T   00000035+0000001345          1400 AN5090               2AZ
184862000184862               184862               170213KB     1400+00000+KB0000002192+0000002192+000000000+000000307+0000002490+0000000009+I20000000000+0000002490+Z
184862001184862018-000170     184862006001023775528MUG OCC. LOVE 2PC MINI 0000001000+00002192+00000+0001T   00002192+0000001346          1400 AN5515               2AZ
184863000184863               184863               170213KB     1400+00000+KB0000002927+0000002927+000000000+000000411+0000003330+0000000008+I20000000000+0000003330+Z
184863001184863565-000859     184863006001023691361SUNGLASSES GIANT       0000001000+00001753+00000+0001T   00001753+0000001348          1400 AN5745               2AZ
184863002184863565-000071     184863006003000643387NOVELTY WIND UP CHATTER0000001000+00001139+00000+0001T   00001139+0000001348          1400 AN5745               2AZ
184863003184863112-116038     184863006009681820246TCS CARRIER BAG MIDI   0000001000+00000035+00000+0001T   00000035+0000001348          1400 AN5090               2AZ
184864000184864               184864               170213KB     1400+00000+KB0000001748+0000001748+000000000+000000247+0000001990+0000000005+I20000000000+0000001990+Z
184864001184864077-000150-D   184864006003000054343GIFT-WRAP CELLPHANE CLR0000001000+00000876+00000+0001T   00000876+0000001349          1400 AN5112               2AZ
184864002184864006-000170-B   184864006003000608300BALLOONS 1PC L/GREEN   0000002000+00000218+00000+0001T   00000218+0000001349          1400 AN5131               2AZ
184864003184864006-000171-C   184864006003000609178BALLOONS 1PC D/GRN PRNT0000002000+00000218+00000+0001T   00000218+0000001349          1400 AN5131               2AZ
184865000184865               184865               170213KB     1400+00000+KB0000001214+0000001214+000000000+000000173+0000001380+0000000007+I20000000000+0000001380+Z
184865001184865903-000183     184865006003000451043SWT LB HEART LOLLY     0000003000+00000393+00000+0001T   00000393+0000001350          1400 AN5150               2AZ
184865002184865112-116038     184865006009681820246TCS CARRIER BAG MIDI   0000001000+00000035+00000+0001T   00000035+0000001350          1400 AN5090               2AZ
184866000184866               184866               170213KB     1400+00000+KB0000014952+0000014952+000000000+000002097+0000017049+0000000000+I40000017049+0000000000+Z
184866001184866112-116069     184866006009681820277TCS CARRIER BAG JUMBO  0000001000+00000048+00000+0001T   00000048+0000001353          1400 AN5090               2AZ
184866002184866486-000010     184866006001023544254WALL-CLOCK ROUND 25cm  0000001000+00006139+00000+0001T   00006139+0000001353          1400 AN5510               2AZ
184866003184866903-000211     184866006002099001238SWT GS MALLOW ICE CREAM0000005000+00001753+00000+0001T   00001753+0000001353          1400 AN5150               2AZ
184867000184867               184867               170213KB     1400+00000+KB0000017472+0000017472+000000000+000002452+0000019920+0000000004+I20000000000+0000019920+Z
184867001184867567-011446     184867009780857266187BK COLOURING EARLY LEAR0000001000+00003507+00000+0001T   00003507+0000001357          1400 AN5757               2AZ
184867002184867034-078800     184867006001023856555COOEY WET-WIPES 60PCE  0000001000+00001753+00000+0001T   00001753+0000001357          1400 AN5215               2AZ
184867003184867079-013099     184867006003000081875ART+CRAFT EYES ASSTD   0000001000+00001753+00000+0001T   00001753+0000001357          1400 AN5130               2AZ
184867004184867006-000190     184867006003000685530BALLOONS LOVE 81x91cm  0000001000+00004385+00000+0001T   00004385+0000001357          1400 AN5131               2AZ
184867005184867006-000167-C   184867006003000516971BALLOONS PINK METALLIC 0000001000+00001314+00000+0001T   00001314+0000001357          1400 AN5131               2AZ
184867006184867006-000166-H   184867006003000608096BALLOONS HELIUM 6PC WHT0000001000+00001314+00000+0001T   00001314+0000001357          1400 AN5131               2AZ
184867007184867112-116038     184867006009681820246TCS CARRIER BAG MIDI   0000001000+00000035+00000+0001T   00000035+0000001357          1400 AN5090               2AZ
184867008184867006-001000     184867006003000093779HELIUM BALLOON FILL    0000003000+00000613+00000+0001T   00000613+0000001357          1400 AN5131               2AZ
184867009184867903-000183     184867006003000451043SWT LB HEART LOLLY     0000004000+00000393+00000+0001T   00000393+0000001357          1400 AN5150               2AZ
184868000184868               184868               170213KB     1400+00000+KB0000002574+0000002574+000000000+000000363+0000002930+0000000007+I20000000000+0000002930+Z
184868001184868105-001032     184868000700371696634CONTAINER FOODSAVER 1.20000001000+00001753+00000+0001T   00001753+0000001402          1400 AN5210               2AZ
184868002184868112-116038     184868006009681820246TCS CARRIER BAG MIDI   0000001000+00000035+00000+0001T   00000035+0000001402          1400 AN5090               2AZ
184868003184868903-000183     184868006003000451043SWT LB HEART LOLLY     0000002000+00000393+00000+0001T   00000393+0000001402          1400 AN5150               2AZ
184869000184869               184869               170213KB     1400+00000+KB0000002628+0000002628+000000000+000000369+0000002990+0000000007+I20000000000+0000002990+Z
184869001184869007-000045     184869006009608640438DISPLAY-POCKETS A4 10PC0000003000+00000876+00000+0001T   00000876+0000001403          1400 AN5130               2AZ
184870000184870               184870               170213KB     1400+00000+KB0000001752+0000001752+000000000+000000246+0000001998+0000000000+I40000001998+0000000000+Z
184870001184870077-000150-D   184870006003000054343GIFT-WRAP CELLPHANE CLR0000002000+00000876+00000+0001T   00000876+0000001405          1400 AN5112               2AZ
184871000184871               184871               170213KB     1400+00000+KB0000007836+0000007836+000000000+000001098+0000008930+0000000004+I20000000000+0000008930+Z
184871001184871112-116038     184871006009681820246TCS CARRIER BAG MIDI   0000001000+00000035+00000+0001T   00000035+0000001410          1400 AN5090               2AZ
184871002184871105-001024-A   184871006009654960986CONTAINERS CLEAR 3PCE  0000002000+00001928+00000+0001T   00001928+0000001410          1400 AN5210               2AZ
184871003184871024-000097     184871006001023770035MEASURING-SET 11PCE WHT0000001000+00002192+00000+0001T   00002192+0000001410          1400 AN5300               2AZ
184871004184871024-000083     184871006001023770943SIEVE FLOUR 20cm MTL-RI0000001000+00001753+00000+0001T   00001753+0000001410          1400 AN5300               2AZ
184872000184872               184872               170213KB     1400+00000+KB0000000437+0000000437+000000000+000000062+0000000490+0000000009+I20000000000+0000000490+Z
184872001184872071-000212     184872006009608641190CHALK WHITE 12PCE      0000001000+00000437+00000+0001T   00000437+0000001457          1400 AN5130               2AZ
184873000184873               184873               170213KB     1400+00000+KB0000008640+0000008640+000000000+000001211+0000009851+0000000000+I40000009851+0000000000+Z
184873001184873077-000299-A   184873006003000670888GIFT-BAG PAPER JMB LOVE0000001000+00001753+00000+0001T   00001753+0000001459          1400 AN5112               2AZ
184873002184873080-000124     184873006003000297733CARD & ENV VALENTINES  0000001000+00001578+00000+0001T   00001578+0000001459          1400 AN5112               2AZ
184873003184873001-000175     184873006001023788108B/MUG GLS LOVE 380ML   0000001000+00004385+00000+0001T   00004385+0000001459          1400 AN5515               2AZ
184873004184873112-116069     184873006009681820277TCS CARRIER BAG JUMBO  0000001000+00000048+00000+0001T   00000048+0000001459          1400 AN5090               2AZ
184873005184873903-000297     184873006001704002950SWT MS WILD BERRY 50G  0000001000+00000876+00000+0001T   00000876+0000001459          1400 AN5150               2AZ
184874000184874               184874               170213KB     1400+00000+KB0000008378+0000008378+000000000+000001174+0000009552+0000000000+I40000009552+0000000000+Z
184874001184874159-000801     184874006001023999832BATHMAT 36x59cm ASST   0000001000+00005700+00000+0001T   00005700+0000001501          1400 AN5200               2AZ
184874002184874051-005578     184874006001023534118GARDEN-WEEDER 275mm    0000001000+00002630+00000+0001T   00002630+0000001501          1400 AN5820               2AZ
184874003184874112-116069     184874006009681820277TCS CARRIER BAG JUMBO  0000001000+00000048+00000+0001T   00000048+0000001501          1400 AN5090               2AZ
184875000184875               184875               170213KB     1400+00000+KB0000004557+0000004557+000000000+000000639+0000005190+0000000006+I20000000000+0000005190+Z
184875001184875903-000071     184875006001704001120SWT TOFFEE LIQURICE 35g0000001000+00000700+00000+0001T   00000700+0000001502          1400 AN5150               2AZ
184875002184875903-000111     184875006001704006378SWT LIQUORICE-TWISTS   0000001000+00001227+00000+0001T   00001227+0000001502          1400 AN5150               2AZ
184875003184875133-000103     184875006003000060900PEG BAG ASSTD 29x29cm  0000001000+00002630+00000+0001T   00002630+0000001502          1400 AN5212               2AZ
184876000184876               184876               170213KB     1400+00000+KB0000004384+0000004384+000000000+000000614+0000004990+0000000008+I20000000000+0000004990+Z
184876001184876200-000002     184876006925406821049BAG FLIP TOP 80PCE     0000002000+00002192+00000+0001T   00002192+0000001503          1400 AN5214               2AZ
184877000184877               184877               170213KB     1400+00000+KB0000017586+0000017586+000000000+000002464+0000020050+0000000000+I20000000000+0000020050+Z
184877001184877200-003021     184877006003000276370REFUSE BAGS 30xSCENTED 0000001000+00002630+00000+0001T   00002630+0000001506          1400 AN5214               2AZ
184877002184877072-000326     184877006003000451722PET CAT COLLAR 31x1cm  0000001000+00002630+00000+0001T   00002630+0000001506          1400 AN5870               2AZ
184877003184877072-020242     184877006003000053728PET BED COTTON TEXTILE 0000001000+00008771+00000+0001T   00008771+0000001506          1400 AN5870               2AZ
184877004184877567-011523     184877006003000667031BK COLOURING THERAPY   0000001000+00003507+00000+0001T   00003507+0000001506          1400 AN5757               2AZ
184877005184877112-116069     184877006009681820277TCS CARRIER BAG JUMBO  0000001000+00000048+00000+0001T   00000048+0000001506          1400 AN5090               2AZ
184878000184878               184878               170213KB     1400+00000+KB0000004108+0000004108+000000000+000000577+0000004680+0000000005+I20000000000+0000004680+Z
184878001184878304-001011     184878006001023806727FLWR ROSE RED W/BEAR   0000001000+00000613+00000+0001T   00000788+0006471514          1400 AN5510               2AZ
184878002184878903-000194     184878006009826020616SWT CHOC RP LOLLY 25G  0000001000+00001314+00000+0001T   00001314+0000001514          1400 AN5150               2AZ
184878003184878162-089176     184878006001492891767SS KIDS 2PK HEART SET  0000001000+00001753+00000+0001T   00001753+0000001514          1400 AN5160               2AZ
184878004184878903-000183     184878006003000451043SWT LB HEART LOLLY     0000001000+00000393+00000+0001T   00000393+0000001514          1400 AN5150               2AZ
184878005184878112-116038     184878006009681820246TCS CARRIER BAG MIDI   0000001000+00000035+00000+0001T   00000035+0000001514          1400 AN5090               2AZ
184879000184879               184879               170213KB     1400+00000+KB0000000262+0000000262+000000000+000000037+0000000290+0000000009+I20000000000+0000000290+Z
184879001184879903-000216     184879006925925900966SWT MALLOW TWIST ERKO  0000001000+00000262+00000+0001T   00000262+0000001515          1400 AN5150               2AZ
184880000184880               184880               170213KB     1400+00000+KB0000007134+0000007134+000000000+000001000+0000008130+0000000004+I20000000000+0000008130+Z
184880001184880018-000136     184880006001023659026MUG OCC LOVE W/PLUSH   0000001000+00003507+00000+0001T   00003507+0000001521          1400 AN5515               2AZ
184880002184880071-002999-A   184880006003000611577PEN STICKBALL 10PCE ASS0000001000+00001753+00000+0001T   00001753+0000001521          1400 AN5130               2AZ
184880003184880304-001011     184880006001023806727FLWR ROSE RED W/BEAR   0000003000+00000613+00000+0001T   00000788+0006471521          1400 AN5510               2AZ
184880004184880112-116038     184880006009681820246TCS CARRIER BAG MIDI   0000001000+00000035+00000+0001T   00000035+0000001521          1400 AN5090               2AZ
184881000184881               184881               170213KB     1400+00000+KB0000007925+0000007925+000000000+000001112+0000009037+0000000000+I40000009037+0000000000+Z
184881001184881565-000893     184881006003000643516NOVELTY FLASHING BALL  0000003000+00002630+00000+0001T   00002630+0000001549          1400 AN5745               2AZ
184881002184881112-116038     184881006009681820246TCS CARRIER BAG MIDI   0000001000+00000035+00000+0001T   00000035+0000001549          1400 AN5090               2AZ
184882000184882               184882               170213KB     1400+00000+KB0000002102+0000002102+000000000+000000296+0000002390+0000000008+I20000000000+0000002390+Z
184882001184882007-000119     184882006002324004126BOOK COVER PL          0000002000+00001051+00000+0001T   00001051+0000001549          1400 AN5130               2AZ
184883000184883               184883               170213KB     1400+00000+KB0000002190+0000002190+000000000+000000307+0000002490+0000000007+I20000000000+0000002490+Z
184883001184883077-000310     184883006001023608635GIFT-BAG 18X23CM GLOSS 0000001000+00001314+00000+0001T   00001314+0000001550          1400 AN5112               2AZ
184883002184883077-000011-D   184883006001023808554TISSUE-WRAP WHITE 10PCE0000001000+00000876+00000+0001T   00000876+0000001550          1400 AN5112               2AZ
184884000184884               184884               170213KB     1400+00000+KB0000010500+0000010500+000000000+000001480+0000011980+0000000000+I40000011980+0000000000+Z
184884001184884903-000151     184884006009803374411SWT SML RND R/BOW LOLLY0000020000+00000525+00000+0001T   00000525+0000001601          1400 AN5150               2AZ
184885000184885               184885               170213KB     1400+00000+KB0000008331+0000008331+000000000+000001167+0000009490+0000000008+I20000000000+0000009490+Z
184885001184885006-000851     184885006007151000273PARTY LUCKY-PACKET BOY 0000001000+00003946+00000+0001T   00003946+0000001601          1400 AN5131               2AZ
184885002184885082-000110     184885006003000360482READING GLS STRENGHT:2 0000001000+00004385+00000+0001T   00004385+0000001601          1400 AN5160               2AZ
184886000184886               184886               170213KB     1400+00000+KB0000010082+0000010082+000000000+000001413+0000011490+0000000005+I20000000000+0000011490+Z
184886001184886368-000101     184886006003000449859PLUSH CAT 17cm KITTY   0000001000+00005262+00000+0001T   00005262+0000001620          1400 AN5745               2AZ
184886002184886566-000038     184886006003000100514TATTOO METALLIC 6 ASST 0000002000+00001753+00000+0001T   00001753+0000001620          1400 AN5130               2AZ
184886003184886077-000310     184886006001023608635GIFT-BAG 18X23CM GLOSS 0000001000+00001314+00000+0001T   00001314+0000001620          1400 AN5112               2AZ
184887000184887               184887               170213KB     1400+00000+KB0000005295+0000005295+000000000+000000742+0000006030+0000000007+I20000000000+0000006030+Z
184887001184887039-001023     184887006003000466337CANDLE TEA-LITE METALIC0000001000+00001753+00000+0001T   00001753+0000001622          1400 AN5510               2AZ
184887002184887031-086102     184887006001023900722P/FRAME PL WORD-TOP 4AS0000001000+00003507+00000+0001T   00003507+0000001622          1400 AN5510               2AZ
184887003184887112-116038     184887006009681820246TCS CARRIER BAG MIDI   0000001000+00000035+00000+0001T   00000035+0000001622          1400 AN5090               2AZ
184888000184888               184888               170213KB     1400+00000+KB0000016167+0000016167+000000000+000002270+0000018430+0000000007+I20000000000+0000018430+Z
184888001184888001-000165     184888006003000658657TUMBLER GLASS 240ML    0000006000+00000525+00000+0001T   00000525+0000001624          1400 AN5515               2AZ
184888002184888009-001453     184888006003000531400MELAMINE TUMBLER 10cm  0000006000+00001490+00000+0001T   00001490+0000001624          1400 AN5210               2AZ
184888003184888009-001700     184888006001023807618MUG 250ml SWIRL DESIGN 0000001000+00001753+00000+0001T   00001753+0000001624          1400 AN5210               2AZ
184888004184888007-000166     184888006009685857316SPIRAL NOTES A6 100PG  0000002000+00000700+00000+0001T   00000700+0000001624          1400 AN5130               2AZ
184888005184888077-000151     184888006008766114676GIFT-WRAP C/PHANE ASSTD0000001000+00000876+00000+0001T   00000876+0000001624          1400 AN5112               2AZ
184888006184888112-116069     184888006009681820277TCS CARRIER BAG JUMBO  0000001000+00000048+00000+0001T   00000048+0000001624          1400 AN5090               2AZ
184889000184889               184889               170213KB     1400+00000+KB0000003067+0000003067+000000000+000000431+0000003490+0000000008+I20000000000+0000003490+Z
184889001184889007-000203     184889006009685850409FILE DISPLAY FLDR ASSTD0000001000+00000437+00000+0001T   00000437+0000001625          1400 AN5130               2AZ
184889002184889366-002702     184889006003000006939DRESS UP HAWAI SKIRT   0000001000+00002630+00000+0001T   00002630+0000001625          1400 AN5131               2AZ
184890000184890               184890               170213KB     1400+00000+KB0000014503+0000014503+000000000+000002033+0000016530+0000000006+I20000000000+0000016530+Z
184890001184890112-116038     184890006009681820246TCS CARRIER BAG MIDI   0000001000+00000035+00000+0001T   00000035+0000001631          1400 AN5090               2AZ
184890002184890567-075466     184890009780263921090BK NOVEL ROMANCE       0000001000+00002630+00000+0001T   00002630+0000001631          1400 AN57572IC            2AZ
184890003184890567-075466     184890009780263252408BK NOVEL ROMANCE       0000002000+00002630+00000+0001T   00002630+0000001631          1400 AN5757               2AZ
184890004184890046-000011-VP  184890006003000537839BATTERIES SIZE:AA 12PCE0000001000+00006578+00000+0001T   00006578+0000001631          1400 AN5312               2AZ
184891000184891               184891               170213KB     1400+00000+KB0000004383+0000004383+000000000+000000615+0000004990+0000000008+I20000000000+0000004990+Z
184891001184891077-000239     184891006003000160419GIFT-RIBBON ROLL PEARL 0000001000+00001753+00000+0001T   00001753+0000001632          1400 AN5112               2AZ
184891002184891077-000115-B   184891006003000181025GIFT-WRAP PPR 700MMX2M 0000001000+00002630+00000+0001T   00002630+0000001632          1400 AN5112               2AZ
184892000184892               184892               170213KB     1400+00000+KB0000010347+0000010347+000000000+000001450+0000011797+0000000000+I40000011797+0000000000+Z
184892001184892105-007805     184892006002923018920STORAGE BOX CLEAR 9.5L 0000001000+00005262+00000+0001T   00005262+0000001633          1400 AN5210               2AZ
184892002184892027-078343     184892006008766078343SCRUB-BRUSH IRON-SHAPE 0000001000+00001139+00000+0001T   00001578+0008191633          1400 AN5212               2AZ
184892003184892036-000013     184892006001246500860LINT REMOVER REFILLS   0000001000+00003946+00000+0001T   00003946+0000001633          1400 AN5212               2AZ
184893000184893               184893               170213KB     1400+00000+KB0000006524+0000006524+000000000+000000914+0000007430+0000000008+I20000000000+0000007430+Z
184893001184893001-000175     184893006001023788108B/MUG GLS LOVE 380ML   0000001000+00004385+00000+0001T   00004385+0000001641          1400 AN5515               2AZ
184893002184893903-000095     184893006001704011495SWT SPECKLED-EGGS 100G 0000001000+00002104+00000+0001T   00002104+0000001641          1400 AN5150               2AZ
184893003184893112-116038     184893006009681820246TCS CARRIER BAG MIDI   0000001000+00000035+00000+0001T   00000035+0000001641          1400 AN5090               2AZ
184894000184894               184894               170213KB     1400+00000+KB0000002015+0000002015+000000000+000000283+0000002290+0000000008+I20000000000+0000002290+Z
184894001184894077-000315     184894006003000181186GIFT-BAG 20x28cm MATT  0000001000+00001578+00000+0001T   00001578+0000001642          1400 AN5112               2AZ
184894002184894080-000133-A   184894006003000647019MINI VALENTINES CARD   0000001000+00000437+00000+0001T   00000437+0000001642          1400 AN5112               2AZ
184895000184895               184895               170213KB     1400+00000+KB0000000035+0000000035+000000000+000000005+0000000040+0000000000+I20000000000+0000000040+Z
184895001184895112-116038     184895006009681820246TCS CARRIER BAG MIDI   0000001000+00000035+00000+0001T   00000035+0000001643          1400 AN5090               2AZ
184896000184896               184896               170213KB     1400+00000+KB0000004243+0000004243+000000000+000000595+0000004830+0000000008+I20000000000+0000004830+Z
184896001184896077-000303     184896006001023593757GIFT-BAG PAPER MED     0000001000+00001578+00000+0001T   00001578+0000001646          1400 AN5112               2AZ
184896002184896124-002023     184896006003000367252BISCUIT TIN HEART SHAPE0000001000+00002630+00000+0001T   00003507+0008171646          1400 AN5300               2AZ
184896003184896112-116038     184896006009681820246TCS CARRIER BAG MIDI   0000001000+00000035+00000+0001T   00000035+0000001646          1400 AN5090               2AZ
184897000184897               184897               170213KB     1400+00000+KB0000001753+0000001753+000000000+000000246+0000001999+0000000000+I40000001999+0000000000+Z
184897001184897077-000309     184897006001023608604GIFT-BAG 25X32CM GLOSS 0000001000+00001753+00000+0001T   00001753+0000001647          1400 AN5112               2AZ
184898000184898               184898               170213KB     1400+00000+KB0000007361+0000007361+000000000+000001033+0000008390+0000000004+I20000000000+0000008390+Z
184898001184898077-000005-B   184898006003000326617PAPER TISSUE PATTERN   0000001000+00002630+00000+0001T   00002630+0000001648          1400 AN5112               2AZ
184898002184898903-000123     184898006925925909280SWEET GS MINI MALLOWS  0000003000+00000876+00000+0001T   00000876+0000001648          1400 AN5150               2AZ
184898003184898077-000245     184898006001023759214GIFT-RIBBON METALLICx2 0000001000+00001227+00000+0001T   00001227+0000001648          1400 AN5112               2AZ
184898004184898078-000025     184898008887013700064SUPERGLUE 3g 1PCE CARD 0000001000+00000876+00000+0001T   00000876+0000001648          1400 AN5810               2AZ
184899000184899               184899               170213KB     1400+00000+KB0000006563+0000006563+000000000+000000921+0000007484+0000000000+I40000007484+0000000000+Z
184899001184899018-000130     184899006001023867537MUG OCC LOVE MINI+HEART0000001000+00003507+00000+0001T   00003507+0000001652          1400 AN5515               2AZ
184899002184899304-001204     184899006001023737984FLOWER OCC. TEDDY/ROSES0000001000+00001402+00000+0001T   00001490+0006471652          1400 AN5510               2AZ
184899003184899304-001011     184899006001023806727FLWR ROSE RED W/BEAR   0000002000+00000613+00000+0001T   00000788+0006471652          1400 AN5510               2AZ
184899004184899903-000183     184899006003000451043SWT LB HEART LOLLY     0000001000+00000393+00000+0001T   00000393+0000001652          1400 AN5150               2AZ
184899005184899112-116038     184899006009681820246TCS CARRIER BAG MIDI   0000001000+00000035+00000+0001T   00000035+0000001652          1400 AN5090               2AZ
184900000184900               184900               170213KB     1400+00000+KB0000003946+0000003946+000000000+000000553+0000004499+0000000000+I40000004499+0000000000+Z
184900001184900006-000851     184900006007151000273PARTY LUCKY-PACKET BOY 0000001000+00003946+00000+0001T   00003946+0000001653          1400 AN5131               2AZ
184901000184901               184901               170213KB     1400+00000+KB0000000876+0000000876+000000000+000000123+0000000990+0000000009+I20000000000+0000000990+Z
184901001184901077-000151     184901006008766114676GIFT-WRAP C/PHANE ASSTD0000001000+00000876+00000+0001T   00000876+0000001654          1400 AN5112               2AZ
A17021300                                          10160547KBSLAVE 2                       AN52IC
A17021301                                          15471119KBSLAVE 2                       AN52IC
B18483300                                          170213KB007-000045     10124141SLAVE 2     AN52IC0000010000+0000005000+0000000000000+
B18489000                                          170213KB567-075466     16302256SLAVE 2     AN52IC0000002000+0000001000+0000000000000+
M17021301                              IT          KBSLAVE 2 LAST NO 184901
M17021391                              CASH        KBSLAVE 2                       Z-REPORT No.   627TOTAL (Sales - Refunds)           5903.89       CASH TO BE BANKED                 4160.00       DEBIT CARDS                          0.00       CREDIT CARDS                      1743.89       Z-READING                         5903.89       AIRTIME DEBIT CARD SALES             0.00       AIRTIME CARD SALES                   0.00       OVERS/UNDERS                         0.00       AIRTIME CASH SALES                   0.00       GIFT CARDS                           0.00       GIFT CARD CASH SALES                 0.00       T O T A L  CASH PAYOUTS              0.00                                                                                                                                                                                                                                                                                                                                                      Z
M17021392                              CASH        KBABSENT                                                                                                                                                                                          ANNUAL LEAVE                                                                                                                                                                                    DAY OFF                                                                                                                                                                                         COMMENTS          Z READ 627                                                                                                                                                                                                                                                                                                                                                                   Z
Y17021300                                          KB00000000518149+000081
ZKB17021319563 SLAVE 2      SALES DATA                     NEXT INVOICE NO.  184902 0627
X KB Slave 2 First invoice 184821 170213 Last invoice 184901 170213 Next invoice 184902 Total number of records 000000306 clbackup completed 19:56:52
