200116000200116               200116               170213KB     1400+00000+KB0000011622+0000011622+000000000+000001629+0000013251+0000000000+I40000013251+0000000000+Z
200116001200116018-019000     200116006003000557288MUG OCC. LOVE JUMBO    0000001000+00005262+00000+0001T   00005262+0000000926          1400 2IC515               3AZ
200116002200116368-000049     200116006003000536955PLUSH BEAR 15cm LOVE   0000001000+00004385+00000+0001T   00004385+0000000926          1400 2IC745               3AZ
200116003200116077-000299     200116006003000395576G/BAG 32x25cm LRG LOVE 0000001000+00001490+00000+0001T   00001490+0000000926          1400 2IC112               3AZ
200116004200116112-116069     200116006009681820277TCS CARRIER BAG JUMBO  0000001000+00000048+00000+0001T   00000048+0000000926          1400 2IC090               3AZ
200116005200116080-000133-A   200116006003000647019MINI VALENTINES CARD   0000001000+00000437+00000+0001T   00000437+0000000926          1400 2IC112               3AZ
200117000200117               200117               170213KB     1400+00000+KB0000003015+0000003015+000000000+000000423+0000003430+0000000008+I20000000000+0000003430+Z
200117001200117007-000095     200117006003000530434ENVELOPES WHITE 20PK C60000001000+00002192+00000+0001T   00002192+0000000927          1400 2IC130               3AZ
200117002200117071-081101-A   200117006003000326549GLUE-STICK 25g BLISTER 0000001000+00000788+00000+0001T   00000788+0000000927          1400 2IC130               3AZ
200117003200117112-116038     200117006009681820246TCS CARRIER BAG MIDI   0000001000+00000035+00000+0001T   00000035+0000000927          1400 2IC090               3AZ
200118000200118               200118               170213KB     1400+00000+KB0000023714+0000023714+000000000+000003326+0000027040+0000000000+I20000000000+0000027040+Z
200118001200118077-000303     200118006001023593757GIFT-BAG PAPER MED     0000003000+00001578+00000+0001T   00001578+0000000930          1400 2IC112               3AZ
200118002200118112-116069     200118006009681820277TCS CARRIER BAG JUMBO  0000001000+00000048+00000+0001T   00000048+0000000930          1400 2IC090               3AZ
200118003200118304-001011     200118006001023806727FLWR ROSE RED W/BEAR   0000001000+00000613+00000+0001T   00000788+0006470930          1400 2IC510               3AZ
200118004200118304-001204     200118006001023737984FLOWER OCC. TEDDY/ROSES0000001000+00001402+00000+0001T   00001490+0006470930          1400 2IC510               3AZ
200118005200118018-000136     200118006001023659026MUG OCC LOVE W/PLUSH   0000001000+00003507+00000+0001T   00003507+0000000930          1400 2IC515               3AZ
200118006200118018-050000     200118006003000412679MUG OCC LOVE TWIN BEAR 0000001000+00006139+00000+0001T   00006139+0000000930          1400 2IC515               3AZ
200118007200118001-000175     200118006001023788108B/MUG GLS LOVE 380ML   0000001000+00004385+00000+0001T   00004385+0000000930          1400 2IC515               3AZ
200118008200118903-000194     200118006009826020616SWT CHOC RP LOLLY 25G  0000001000+00001314+00000+0001T   00001314+0000000930          1400 2IC150               3AZ
200118009200118903-000183     200118006003000451043SWT LB HEART LOLLY     0000004000+00000393+00000+0001T   00000393+0000000930          1400 2IC150               3AZ
200119000200119               200119               170213KB     1400+00000+KB0000011437+0000011437+000000000+000001602+0000013039+0000000000+I40000013039+0000000000+Z
200119001200119368-000637     200119006001023874092PLUSH BEAR SLEEPING LOV0000001000+00011402+00000+0001T   00012279+0006470932          1400 2IC745               3AZ
200119002200119112-116038     200119006009681820246TCS CARRIER BAG MIDI   0000001000+00000035+00000+0001T   00000035+0000000932          1400 2IC090               3AZ
200120000200120               200120               170213KB     1400+00000+KB0000011390+0000011390+000000000+000001596+0000012986+0000000000+I40000012986+0000000000+Z
200120001200120006-000166-H   200120006003000608096BALLOONS HELIUM 6PC WHT0000003000+00001314+00000+0001T   00001314+0000001041          1400 2IC131               3AZ
200120002200120006-000166-D   200120006003000516490BALLOONS LRG 6PC RED   0000003000+00001314+00000+0001T   00001314+0000001041          1400 2IC131               3AZ
200120003200120088-000084     200120006001023798060P/POURRI 120G ASSTD    0000002000+00001753+00000+0001T   00001753+0000001041          1400 2IC212               3AZ
200121000200121               200121               170213KB     1400+00000+KB0000000035+0000000035+000000000+000000005+0000000040+0000000000+I20000000000+0000000040+Z
200121001200121112-116038     200121006009681820246TCS CARRIER BAG MIDI   0000001000+00000035+00000+0001T   00000035+0000001042          1400 2IC090               3AZ
200122000200122               200122               170213KB     1400+00000+KB0000010994+0000010994+000000000+000001542+0000012530+0000000006+I20000000000+0000012530+Z
200122001200122033-000001     200122006003000344321TINTING BOWL & BRUSHES 0000001000+00002630+00000+0001T   00002630+0000001104          1400 2IC200               3AZ
200122002200122084-000369     200122006003000594467NAIL MANICURE SET 6PCE 0000001000+00006139+00000+0001T   00006139+0000001104          1400 2IC200               3AZ
200122003200122002-000883     200122006001023770394CAN-OPENER             0000001000+00001753+00000+0001T   00001753+0000001104          1400 2IC300               3AZ
200122004200122083-000049     200122004891035200024CIG-LIGHTER DISPOSABLE 0000001000+00000437+00000+0001T   00000437+0000001104          1400 2IC315               3AZ
200122005200122112-116038     200122006009681820246TCS CARRIER BAG MIDI   0000001000+00000035+00000+0001T   00000035+0000001104          1400 2IC090               3AZ
200123000200123               200123               170213KB     1400+00000+KB0000006664+0000006664+000000000+000000934+0000007590+0000000008+I20000000000+0000007590+Z
200123001200123304-001204     200123006001023737984FLOWER OCC. TEDDY/ROSES0000001000+00001402+00000+0001T   00001490+0006471106          1400 2IC510               3AZ
200123002200123103-000474     200123006003000630363BAMBOO FLOWER BASKET   0000001000+00005262+00000+0001T   00005262+0000001106          1400 2IC300               3AZ
200124000200124               200124               170213KB     1400+00000+KB0000011697+0000011697+000000000+000001639+0000013336+0000000000+I40000013336+0000000000+Z
200124001200124112-116038     200124006009681820246TCS CARRIER BAG MIDI   0000001000+00000035+00000+0001T   00000035+0000001113          1400 2IC090               3AZ
200124002200124016-006517     200124006003000351626S/JAR GLS CHECK 650ML  0000002000+00002192+00000+0001T   00002192+0000001113          1400 2IC300               3AZ
200124003200124077-000005-B   200124006003000326617PAPER TISSUE PATTERN   0000001000+00002630+00000+0001T   00002630+0000001113          1400 2IC112               3AZ
200124004200124105-001081     200124000700371699888CLIP LOCK 4L OBLONG    0000001000+00004648+00000+0001T   00004648+0000001113          1400 2IC210               3AZ
200125000200125               200125               170213KB     1400+00000+KB0000005607+0000005607+000000000+000000787+0000006390+0000000004+I20000000000+0000006390+Z
200125001200125304-001011     200125006001023806727FLWR ROSE RED W/BEAR   0000001000+00000613+00000+0001T   00000788+0006471115          1400 2IC510               3AZ
200125002200125077-000321     200125006001023677501GIFT-BAG 11X14CM E/D FL0000001000+00000613+00000+0001T   00000613+0000001115          1400 2IC112               3AZ
200125003200125080-000133-A   200125006003000647019MINI VALENTINES CARD   0000001000+00000437+00000+0001T   00000437+0000001115          1400 2IC112               3AZ
200125004200125903-000194     200125006009826020616SWT CHOC RP LOLLY 25G  0000001000+00001314+00000+0001T   00001314+0000001115          1400 2IC150               3AZ
200125005200125162-096856     200125006001492968568#TAG KIDS NECKLACE     0000001000+00002630+00000+0001T   00002630+0000001115          1400 2IC160               3AZ
200126000200126               200126               170213KB     1400+00000+KB0000001525+0000001525+000000000+000000214+0000001730+0000000009+I20000000000+0000001730+Z
200126001200126567-014133     200126006003000560103BOOK COLOURING 48 PAGE 0000001000+00001490+00000+0001T   00001490+0000001117          1400 2IC757               3AZ
200126002200126112-116038     200126006009681820246TCS CARRIER BAG MIDI   0000001000+00000035+00000+0001T   00000035+0000001117          1400 2IC090               3AZ
200127000200127               200127               170213KB     1400+00000+KB0000001753+0000001753+000000000+000000246+0000001990+0000000009+I20000000000+0000001990+Z
200127001200127362-101402     200127006001023915894H/BAND SET 12PACK ASSTD0000001000+00001753+00000+0001T   00001753+0000001117          1400 2IC160               3AZ
200128000200128               200128               170213KB     1400+00000+KB0000002630+0000002630+000000000+000000369+0000002990+0000000009+I20000000000+0000002990+Z
200128001200128027-009025     200128006003962000747DUSTPAN-SET PL         0000001000+00002630+00000+0001T   00002630+0000001118          1400 2IC212               3AZ
200129000200129               200129               170213KB     1400+00000+KB0000007048+0000007048+000000000+000000988+0000008030+0000000006+I20000000000+0000008030+Z
200129001200129007-010496     200129006003000640652MARKER WHITEBOARD 4PCE 0000001000+00001753+00000+0001T   00001753+0000001123          1400 2IC130               3AZ
200129002200129567-010620     200129009781847503817BK ACTIVITY ASSTD      0000001000+00001753+00000+0001T   00002630+0008131123          1400 2IC757               3AZ
200129003200129567-011361     200129009780709722519BK EDU WIPE CLEAN      0000001000+00003507+00000+0001T   00003507+0000001123          1400 2IC757               3AZ
200129004200129112-116038     200129006009681820246TCS CARRIER BAG MIDI   0000001000+00000035+00000+0001T   00000035+0000001123          1400 2IC090               3AZ
200130000200130               200130               170213KB     1400+00000+KB0000002630+0000002630+000000000+000000369+0000002990+0000000009+I20000000000+0000002990+Z
200130001200130903-000590     200130006003000563494SWT TOY REVOLVER 22cm  0000001000+00002630+00000+0001T   00002630+0000001133          1400 2IC150               3AZ
200131000200131               200131               170213KB     1400+00000+KB0000004120+0000004120+000000000+000000577+0000004690+0000000007+I20000000000+0000004690+Z
200131001200131304-001011     200131006001023806727FLWR ROSE RED W/BEAR   0000001000+00000613+00000+0001T   00000788+0006471133          1400 2IC510               3AZ
200131002200131018-000136     200131006001023659026MUG OCC LOVE W/PLUSH   0000001000+00003507+00000+0001T   00003507+0000001133          1400 2IC515               3AZ
200132000200132               200132               170213KB     1400+00000+KB0000001753+0000001753+000000000+000000246+0000001990+0000000009+I20000000000+0000001990+Z
200132001200132200-003024     200132006001023657299REFUSE BAGS 20PCE BLACK0000001000+00001753+00000+0001T   00001753+0000001134          1400 2IC214               3AZ
200133000200133               200133               170213KB     1400+00000+KB0000007452+0000007452+000000000+000001044+0000008490+0000000006+I20000000000+0000008490+Z
200133001200133306-000973     200133006003000559473FIRSTAID PLASTER 30PC  0000001000+00001753+00000+0001T   00001753+0000001141          1400 2IC200               3AZ
200133002200133306-001621     200133006001023554475INNER SOLES 1 PAIR     0000001000+00002192+00000+0001T   00002192+0000001141          1400 2IC200               3AZ
200133003200133036-021494     200133006003000572137COATHANGERS PL W/3     0000001000+00003507+00000+0001T   00003507+0000001141          1400 2IC212               3AZ
200134000200134               200134               170213KB     1400+00000+KB0000001400+0000001400+000000000+000000196+0000001590+0000000006+I20000000000+0000001590+Z
200134001200134564-000012     200134006001023130075BUBBLE BOTTLE MAGIC    0000002000+00000700+00000+0001T   00000700+0000001148          1400 2IC131               3AZ
200135000200135               200135               170213KB     1400+00000+KB0000003497+0000003497+000000000+000000491+0000003980+0000000008+I20000000000+0000003980+Z
200135001200135075-000360     200135006003000267705PURSE 9x6cm B-FLY/ROSE 0000001000+00002630+00000+0001T   00002630+0000001158          1400 2IC160               3AZ
200135002200135159-000150-B   200135006005387002009SOAP-BOX PL ASSORTED   0000001000+00000832+00000+0001T   00000832+0000001158          1400 2IC200               3AZ
200135003200135112-116038     200135006009681820246TCS CARRIER BAG MIDI   0000001000+00000035+00000+0001T   00000035+0000001158          1400 2IC090               3AZ
200136000200136               200136               170213KB     1400+00000+KB0000008064+0000008064+000000000+000001130+0000009190+0000000004+I20000000000+0000009190+Z
200136001200136301-085004     200136006003000420469ORN LOVE PLAQUE 21X10CM0000001000+00003507+00000+0001T   00003946+0006471205          1400 2IC505               3AZ
200136002200136072-000325     200136006003000452323PET COLLAR PENDENT ASST0000001000+00001753+00000+0001T   00002630+0008191205          1400 2IC870               3AZ
200136003200136903-000194     200136006009826020616SWT CHOC RP LOLLY 25G  0000001000+00001314+00000+0001T   00001314+0000001205          1400 2IC150               3AZ
200136004200136565-004101     200136006003000548033BALL BOUNCING EGG      0000001000+00001490+00000+0001T   00001490+0000001205          1400 2IC745               3AZ
200137000200137               200137               170213KB     1400+00000+KB0000001753+0000001753+000000000+000000246+0000001990+0000000009+I20000000000+0000001990+Z
200137001200137046-002032-PK2 200137004897006175063BATTERIES CR-2032  2PCE0000001000+00001753+00000+0001T   00001753+0000001237          1400 2IC312               3AZ
200138000200138               200138               170213KB     1400+00000+KB0000004592+0000004592+000000000+000000644+0000005236+0000000000+I40000005236+0000000000+Z
200138002200138088-000084     200138006001023798060P/POURRI 120G ASSTD    0000001000+00001753+00000+0001T   00001753+0000001250          1400 2IC212               3AZ
200138003200138046-000012     200138006904708013062BATTERIES AA  CARD-OF-40000001000+00001314+00000+0001T   00001314+0000001250          1400 2IC312               3AZ
200138004200138071-081110     200138006936198405454CORRECTION FLUID PEN   0000001000+00001490+00000+0001T   00001490+0000001250          1400 2IC130               3AZ
200138005200138112-116038     200138006009681820246TCS CARRIER BAG MIDI   0000001000+00000035+00000+0001T   00000035+0000001250          1400 2IC090               3AZ
200139000200139               200139               170213KB     1400+00000+KB0000001611+0000001611+000000000+000000226+0000001830+0000000007+I20000000000+0000001830+Z
200139001200139584-002037     200139005032044437530ASSORTED MUSIC CD 1-CD 0000001000+00000700+00000+0001T   00000876+0008141251          1400 2IC310               3AZ
200139002200139084-070005     200139006001023627902NAIL FILES 6PCE H/GLOW 0000001000+00000876+00000+0001T   00000876+0000001251          1400 2IC200               3AZ
200139003200139112-116038     200139006009681820246TCS CARRIER BAG MIDI   0000001000+00000035+00000+0001T   00000035+0000001251          1400 2IC090               3AZ
200140000200140               200140               170213KB     1400+00000+KB0000005161+0000005161+000000000+000000724+0000005880+0000000005+I20000000000+0000005880+Z
200140001200140304-001011     200140006001023806727FLWR ROSE RED W/BEAR   0000001000+00000613+00000+0001T   00000788+0006471305          1400 2IC510               3AZ
200140002200140018-000136     200140006001023659026MUG OCC LOVE W/PLUSH   0000001000+00003507+00000+0001T   00003507+0000001305          1400 2IC515               3AZ
200140003200140112-116038     200140006009681820246TCS CARRIER BAG MIDI   0000001000+00000035+00000+0001T   00000035+0000001305          1400 2IC090               3AZ
200140004200140304-001011     200140006001023806727FLWR ROSE RED W/BEAR   0000001000+00000613+00000+0001T   00000788+0006471305          1400 2IC510               3AZ
200140005200140903-000183     200140006003000451043SWT LB HEART LOLLY     0000001000+00000393+00000+0001T   00000393+0000001305          1400 2IC150               3AZ
200141000200141               200141               170213KB     1400+00000+KB0000012327+0000012327+000000000+000001727+0000014050+0000000004+I20000000000+0000014050+Z
200141001200141031-001008     200141006003000406494P/FRAME COLLAGE PLASTIC0000001000+00012279+00000+0001T   00012279+0000001522          1400 2IC510               3AZ
200141002200141112-116069     200141006009681820277TCS CARRIER BAG JUMBO  0000001000+00000048+00000+0001T   00000048+0000001522          1400 2IC090               3AZ
200142000200142               200142               170213KB     1400+00000+KB0000004066+0000004066+000000000+000000570+0000004630+0000000006+I20000000000+0000004630+Z
200142001200142903-000194     200142006009826020616SWT CHOC RP LOLLY 25G  0000001000+00001314+00000+0001T   00001314+0000001530          1400 2IC150               3AZ
200142002200142077-000245     200142006001023759214GIFT-RIBBON METALLICx2 0000001000+00001227+00000+0001T   00001227+0000001530          1400 2IC112               3AZ
200142003200142077-000305     200142006003000395422GIFT-BAG WINE 10X35CM  0000001000+00001490+00000+0001T   00001490+0000001530          1400 2IC112               3AZ
200142005200142112-116038     200142006009681820246TCS CARRIER BAG MIDI   0000001000+00000035+00000+0001T   00000035+0000001530          1400 2IC090               3AZ
200143000200143               200143               170213KB     1400+00000+KB0000005260+0000005260+000000000+000000738+0000005990+0000000008+I20000000000+0000005990+Z
200143001200143306-000998     200143006003000519927FIRSTAID PLASTER 20PC  0000001000+00002630+00000+0001T   00002630+0000001542          1400 2IC200               3AZ
200143002200143306-000957     200143006003000558995FIRSTAID PLASTER 8PC   0000001000+00002630+00000+0001T   00002630+0000001542          1400 2IC200               3AZ
200144000200144               200144               170213KB     1400+00000+KB0000004385+0000004385+000000000+000000614+0000004999+0000000000+I40000004999+0000000000+Z
200144001200144047-002040-H   200144006003000219117P/ADAPTOR 3x16A 3x5A   0000001000+00004385+00000+0001T   00004385+0000001544          1400 2IC880               3AZ
200145000200145               200145               170213KB     1400+00000+KB0000004470+0000004470+000000000+000000627+0000005090+0000000007+I20000000000+0000005090+Z
200145001200145079-130100     200145006003000542635A&C DIY COLOUR EYES 24P0000003000+00001490+00000+0001T   00001490+0000001546          1400 2IC130               3AZ
200146000200146               200146               170213KB     1400+00000+KB0000005260+0000005260+000000000+000000738+0000005990+0000000008+I20000000000+0000005990+Z
200146001200146077-000270     200146006003000395453GIFT-BAG PPR JMB 33X45 0000001000+00002630+00000+0001T   00002630+0000001645          1400 2IC112               3AZ
200146002200146466-000515     200146006001023477408BALLS TENNIS BAG-OF-3  0000001000+00002630+00000+0001T   00002630+0000001645          1400 2IC785               3AZ
200147000200147               200147               170213KB     1400+00000+KB0000010908+0000010908+000000000+000001529+0000012430+0000000007+I20000000000+0000012430+Z
200147001200147001-091415     200147006003000329113W/GLS OCC. LOVE 2PC 2800000001000+00008771+00000+0001T   00009648+0006471648          1400 2IC515               3AZ
200147002200147039-000026     200147006001023551610C/TAPERED 25CM M/RED   0000002000+00001051+00000+0001T   00001051+0000001648          1400 2IC510               3AZ
200147003200147112-116038     200147006009681820246TCS CARRIER BAG MIDI   0000001000+00000035+00000+0001T   00000035+0000001648          1400 2IC090               3AZ
200148000200148               200148               170213KB     1400+00000+KB0000006139+0000006139+000000000+000000860+0000006999+0000000000+I40000006999+0000000000+Z
200148001200148463-000120     200148006003000308125SWIM CAP PRINTED ASSTD 0000001000+00006139+00000+0001T   00006139+0000001650          1400 2IC785               3AZ
200149000200149               200149               170213KB     1400+00000+KB0000000876+0000000876+000000000+000000123+0000000990+0000000009+I20000000000+0000000990+Z
200149001200149077-000150-D   200149006003000054343GIFT-WRAP CELLPHANE CLR0000001000+00000876+00000+0001T   00000876+0000001652          1400 2IC112               3AZ
200150000200150               200150               170213KB     1400+00000+KB0000002192+0000002192+000000000+000000307+0000002490+0000000009+I20000000000+0000002490+Z
200150001200150024-000033     200150006003000420278MEASURING JUG 1L H/H   0000001000+00002192+00000+0001T   00002192+0000001652          1400 2IC300               3AZ
200151000200151               200151               170213KB     1400+00000+KB0000000035+0000000035+000000000+000000005+0000000040+0000000000+I20000000000+0000000040+Z
200151001200151112-116038     200151006009681820246TCS CARRIER BAG MIDI   0000001000+00000035+00000+0001T   00000035+0000001653          1400 2IC090               3AZ
200152000200152               200152               170213KB     1400+00000+KB0000021598+0000021598+000000000+000003029+0000024627+0000000000+I40000024627+0000000000+Z
200152001200152112-116038     200152006009681820246TCS CARRIER BAG MIDI   0000001000+00000035+00000+0001T   00000035+0000001657          1400 2IC090               3AZ
200152002200152001-000175     200152006001023788108B/MUG GLS LOVE 380ML   0000001000+00004385+00000+0001T   00004385+0000001657          1400 2IC515               3AZ
200152003200152018-000170     200152006001023775528MUG OCC. LOVE 2PC MINI 0000001000+00002192+00000+0001T   00002192+0000001657          1400 2IC515               3AZ
200152004200152903-000012     200152006002099007308SWT MALLOW S/BERRY     0000001000+00000437+00000+0001T   00000437+0000001657          1400 2IC150               3AZ
200152005200152089-000017     200152006003000331147KEYCHAIN MOM POLY BOX  0000001000+00004385+00000+0001T   00004385+0000001657          1400 2IC205               3AZ
200152006200152903-000099     200152006923431501646SWT CANDY GS WTCH B/LET0000002000+00000262+00000+0001T   00000262+0000001657          1400 2IC150               3AZ
200152007200152903-000094     200152006923431501622SWT GS CANDY NECKLACE  0000002000+00000437+00000+0001T   00000437+0000001657          1400 2IC150               3AZ
200152008200152565-000071     200152006003000643387NOVELTY WIND UP CHATTER0000001000+00001139+00000+0001T   00001139+0000001657          1400 2IC745               3AZ
200152009200152077-000303     200152006001023593757GIFT-BAG PAPER MED     0000001000+00001578+00000+0001T   00001578+0000001657          1400 2IC112               3AZ
200152010200152077-000317     200152006001023609748GIFT-BAG 11X14CM E/D AN0000002000+00000613+00000+0001T   00000613+0000001657          1400 2IC112               3AZ
200152011200152301-085001     200152006003000297610ORN WATERBALL LOVE ASST0000001000+00004823+00000+0001T   00004823+0000001657          1400 2IC505               3AZ
200153000200153               200153               170213KB     1400+00000+KB0000022129+0000022129+000000000+000003101+0000025230+0000000000+I40000025230+0000000000+Z
200153001200153112-116038     200153006009681820246TCS CARRIER BAG MIDI   0000001000+00000035+00000+0001T   00000035+0000001659          1400 2IC090               3AZ
200153002200153024-000124     200153006001023466549N/STICK MINI S/FORM 2PC0000001000+00010525+00000+0001T   00010525+0000001659          1400 2IC300               3AZ
200153003200153251-000031     200153006001023515827MASKING-TAPE 24mmx40m  0000001000+00001578+00000+0001T   00001578+0000001659          1400 2IC810               3AZ
200153004200153039-000319-4   200153006003000442744B/CANDLES LRG NUMBER-4 0000002000+00000876+00000+0001T   00000876+0000001659          1400 2IC510               3AZ
200153005200153006-000166-H   200153006003000608096BALLOONS HELIUM 6PC WHT0000001000+00001314+00000+0001T   00001314+0000001659          1400 2IC131               3AZ
200153006200153006-000167-C   200153006003000516971BALLOONS PINK METALLIC 0000001000+00001314+00000+0001T   00001314+0000001659          1400 2IC131               3AZ
200153007200153024-000113     200153006001023422194C/PAN N/STICK 20X4.5CM 0000001000+00004823+00000+0001T   00004823+0000001659          1400 2IC300               3AZ
200153008200153903-000137     200153006002099004130SWEET GS JELLY BEAN 60G0000001000+00000788+00000+0001T   00000788+0000001659          1400 2IC150               3AZ
200154000200154               200154               170213KB     1400+00000+KB0000008765+0000008765+000000000+000001230+0000009995+0000000000+I40000009995+0000000000+Z
200154001200154031-005820     200154006001023667816P/FRAME-CLIP 15X20CM   0000005000+00001753+00000+0001T   00001753+0000001700          1400 2IC510               3AZ
200155000200155               200155               170213KB     1400+00000+KB0000002192+0000002192+000000000+000000307+0000002490+0000000009+I20000000000+0000002490+Z
200155001200155080-000127     200155006003000424351VALENTINES DAY 36x24CM 0000001000+00002192+00000+0001T   00002192+0000001700          1400 2IC112               3AZ
200156000200156               200156               170213KB     1400+00000+KB0000003244+0000003244+000000000+000000455+0000003690+0000000009+I20000000000+0000003690+Z
200156001200156046-000400     200156006001023804983BATT ALKALINE 1.5Vx30PC0000001000+00003244+00000+0001T   00003244+0000001701          1400 2IC312               3AZ
200157000200157               200157               170213KB     1400+00000+KB0000002630+0000002630+000000000+000000369+0000002990+0000000009+I20000000000+0000002990+Z
200157001200157077-000270     200157006003000395453GIFT-BAG PPR JMB 33X45 0000001000+00002630+00000+0001T   00002630+0000001701          1400 2IC112               3AZ
200158000200158               200158               170213KB     1400+00000+KB0000010557+0000010557+000000000+000001480+0000012030+0000000007+I20000000000+0000012030+Z
200158001200158301-085001     200158006003000297610ORN WATERBALL LOVE ASST0000002000+00004823+00000+0001T   00004823+0000001702          1400 2IC505               3AZ
200158002200158083-000050     200158006001023898593LIGHTERS DISPOSABLE    0000001000+00000876+00000+0001T   00000876+0000001702          1400 2IC315               3AZ
200158003200158112-116038     200158006009681820246TCS CARRIER BAG MIDI   0000001000+00000035+00000+0001T   00000035+0000001702          1400 2IC090               3AZ
200159000200159               200159               170213KB     1400+00000+KB0000007925+0000007925+000000000+000001112+0000009037+0000000000+I40000009037+0000000000+Z
200159001200159261-009924     200159006001023622204WATER-PISTOL SQUIRTER  0000003000+00002630+00000+0001T   00002630+0000001704          1400 2IC710               3AZ
200159002200159112-116038     200159006009681820246TCS CARRIER BAG MIDI   0000001000+00000035+00000+0001T   00000035+0000001704          1400 2IC090               3AZ
200160000200160               200160               170213KB     1400+00000+KB0000002630+0000002630+000000000+000000369+0000002990+0000000009+I20000000000+0000002990+Z
200160001200160079-006495     200160006003000159987GLITTER SHAKERS 6PK    0000001000+00002630+00000+0001T   00002630+0000001704          1400 2IC130               3AZ
200161000200161               200161               170213KB     1400+00000+KB0000007927+0000007927+000000000+000001111+0000009030+0000000008+I20000000000+0000009030+Z
200161001200161047-000507     200161006001023684479PLUG-ADAPTOR EURO TWIN 0000001000+00001753+00000+0001T   00001753+0000001706          1400 2IC880               3AZ
200161002200161106-000901     200161006003000538058WATER BOTTLE 600ml     0000001000+00006139+00000+0001T   00006139+0000001706          1400 2IC210               3AZ
200161003200161112-116038     200161006009681820246TCS CARRIER BAG MIDI   0000001000+00000035+00000+0001T   00000035+0000001706          1400 2IC090               3AZ
200162000200162               200162               170213KB     1400+00000+KB0000007014+0000007014+000000000+000000982+0000007990+0000000006+I20000000000+0000007990+Z
200162001200162079-006498     200162006001023836151GLITTER SET 10PCE      0000002000+00003507+00000+0001T   00003507+0000001707          1400 2IC130               3AZ
200163000200163               200163               170213KB     1400+00000+KB0000007397+0000007397+000000000+000001039+0000008430+0000000006+I20000000000+0000008430+Z
200163001200163304-001486     200163006003000035335FLWR BUNCH ROSE        0000002000+00002630+00000+0001T   00002630+0000001709          1400 2IC510               3AZ
200163002200163039-000026     200163006001023551610C/TAPERED 25CM M/RED   0000002000+00001051+00000+0001T   00001051+0000001709          1400 2IC510               3AZ
200163003200163112-116038     200163006009681820246TCS CARRIER BAG MIDI   0000001000+00000035+00000+0001T   00000035+0000001709          1400 2IC090               3AZ
200164000200164               200164               170213KB     1400+00000+KB0000006138+0000006138+000000000+000000860+0000006990+0000000008+I20000000000+0000006990+Z
200164001200164301-085002     200164006003000420704ORN OCC. LOVE BELL ASST0000001000+00001753+00000+0001T   00002630+0008121710          1400 2IC505               3AZ
200164002200164204-000008     200164006003000567652MEMO HLDR MOM POLY     0000001000+00004385+00000+0001T   00004385+0000001710          1400 2IC300               3AZ
200165000200165               200165               170213KB     1400+00000+KB0000010394+0000010394+000000000+000001456+0000011850+0000000000+I40000011850+0000000000+Z
200165001200165365-003053     200165006001023542250PLAY DOCTOR MEDICAL-CNT0000001000+00004385+00000+0001T   00004385+0000001712          1400 2IC725               3AZ
200165002200165366-000356     200165006003000006908DRESS UP WINGS FAIRY   0000001000+00004385+00000+0001T   00004385+0000001712          1400 2IC131               3AZ
200165003200165564-000012     200165006001023130075BUBBLE BOTTLE MAGIC    0000001000+00000700+00000+0001T   00000700+0000001712          1400 2IC131               3AZ
200165004200165903-000220     200165006001704007368SWT JELLY BEANS 60G    0000001000+00000876+00000+0001T   00000876+0000001712          1400 2IC150               3AZ
200165005200165112-116069     200165006009681820277TCS CARRIER BAG JUMBO  0000001000+00000048+00000+0001T   00000048+0000001712          1400 2IC090               3AZ
200166000200166               200166               170213KB     1400+00000+KB0000001664+0000001664+000000000+000000234+0000001890+0000000008+I20000000000+0000001890+Z
200166001200166071-001238     200166000060107212485ERASERS  3PCE    CARDED0000001000+00000876+00000+0001T   00000876+0000001713          1400 2IC130               3AZ
200166002200166071-000001-A   200166006003000129607PENCIL LEAD 0.5mm  2PK 0000001000+00000788+00000+0001T   00000788+0000001713          1400 2IC130               3AZ
200167000200167               200167               170213KB     1400+00000+KB0000015836+0000015836+000000000+000002218+0000018054+0000000000+I40000018054+0000000000+Z
200167001200167032-000868     200167006003000406623MIRROR WALL PVC 40X50CM0000001000+00015788+00000+0001T   00015788+0000001714          1400 2IC510               3AZ
200167002200167112-116069     200167006009681820277TCS CARRIER BAG JUMBO  0000001000+00000048+00000+0001T   00000048+0000001714          1400 2IC090               3AZ
A17021300                                          10162383KBSLAVE 3                       2IC1IC
A17021301                                          10382140KBSLAVE 3                       2IC1IC
C20013800                                          170213KB562-000010     12491286SLAVE 3     2IC1IC0000000000+0000000000+0010000001000+
C20014200                                          170213KB019-000122     15301022SLAVE 3     2IC1IC0000000000+0000000000+0040000001000+
M17021301                              IT          KBSLAVE 3 LAST NO 200167
M17021391                              CASH        KBSLAVE 3                       Z-REPORT No.   515TOTAL (Sales - Refunds)           3932.39       CASH TO BE BANKED                 2246.00       DEBIT CARDS                          0.00       CREDIT CARDS                      1686.39       Z-READING                         3932.39       AIRTIME DEBIT CARD SALES             0.00       AIRTIME CARD SALES                   0.00       OVERS/UNDERS                         0.00       AIRTIME CASH SALES                   0.00       GIFT CARDS                           0.00       GIFT CARD CASH SALES                 0.00       T O T A L  CASH PAYOUTS              0.00                                                                                                                                                                                                                                                                                                                                                      Z
M17021392                              CASH        KBABSENT                                                                                                                                                                                          ANNUAL LEAVE                                                                                                                                                                                    DAY OFF                                                                                                                                                                                         COMMENTS          Z READ 515                                      Z READ R3932.39                                                                                                                                                                                                                                                                                                              Z
Y17021300                                          KB00000000345122+000052
ZKB17021319563 SLAVE 3      SALES DATA                     NEXT INVOICE NO.  200168 0515
X KB Slave 3 First invoice 200116 170213 Last invoice 200167 170213 Next invoice 200168 Total number of records 000000202 clbackup completed 19:56:54
