400602000400602               400602               170213KB     1400+00000+KB0000127830+0000127830+000000000+000017904+0000145734+           I90000000000+0000000000+Z
400602001400602301-001125     400602000694202803950ORN FOUNTAIN TOWER     0000001000+00017542+00000+0001T032931660000                    1400 1IC5051ICV             Z
400602002400602497-068758     400602006941057467580AIRBED DOWNY-D 137x191 0000001000+00030700+00000+0001T032931660000                    1400 1IC7871ICV             Z
400602003400602265-000311     400602006003000014156DRAGON B/O             0000001000+00015788+00000+0001T032931660000                    1400 1IC7101ICV             Z
400602004400602265-000316     400602006001023877536CAR RADIO-CONTROL      0000001000+00021051+00000+0001T032931660000                    1400 1IC7101ICV             Z
400602005400602051-002400     400602006001023616180TRIGGER-SPRAYER 900ml  0000001000+00002192+00000+0001T032931660000                    1400 1IC8201ICV             Z
400602006400602065-000239     400602006001023400956DRUM "BUM BUM BAND"19cm0000001000+00003507+00000+0001T032931660000                    1400 1IC7451ICV             Z
400602007400602486-001012     400602006001023820907CLOCK ALARM SQR 10X12CM0000001000+00004385+00000+0001T032931660000                    1400 1IC5101ICV             Z
400602008400602261-004004     400602006001023786067GUN SPACE BLASTER W/10 0000001000+00014911+00000+0001T032931660000                    1400 1IC7101ICV             Z
400602009400602006-000180     400602006003000610402BALLOONS BIRTHDAY ASSTD0000002000+00000876+00000+0001T032931660000                    1400 1IC1311ICV             Z
400602010400602028-085274     400602006001023641571BBQ LIGHTER         H&L0000001000+00002192+00000+0001T032931660000                    1400 1IC3051ICV             Z
400602011400602007-000535     400602000651728790904NOTE-BOOK DRESS TEEN   0000001000+00001753+00000+0001T032931660000                    1400 1IC1301ICV             Z
400602012400602261-000121     400602006001023341600GUN-CAPS 8-SHOT CARD-9 0000001000+00000700+00000+0001T062931660000                    1400 1IC7101ICV             Z
400602013400602002-000801     400602006003000555994PEELER PL/MTL Y-SHAPE  0000001000+00001139+00000+0001T032931660000                    1400 1IC3001ICV             Z
400602014400602562-000080     400602006003000610587EDU WORLD GLOBE        0000001000+00005262+00000+0001T032931660000                    1400 1IC7551ICV             Z
400602015400602112-116038     400602006009681820246TCS CARRIER BAG MIDI   0000004000+00000035+00000+0001T032931660000                    1400 1IC0901ICV             Z
400602016400602071-005669     400602006003000153268STAPLER MINI W/STAPLES 0000001000+00002630+00000+0001T032931660000                    1400 1IC1301ICV             Z
400602017400602006-000167-B   400602006003000516858BALLOONS BLUE METALLIC 0000001000+00001314+00000+0001T032931660000                    1400 1IC1311ICV             Z
400602018400602006-000171-H   400602006003000609574BALLOONS 1PC RED PRINT 0000002000+00000218+00000+0001T032931660000                    1400 1IC1311ICV             Z
400602019400602006-000170-G   400602006003000608553BALLOONS 1PC YELLOW    0000002000+00000218+00000+0001T032931660000                    1400 1IC1311ICV             Z
400603000400603               400603               170213KB     1400+00000+KB0000000700-0000000700-000000000+000000098-0000000798-           I90000000000+0000000000+Z
400603001400603261-000121     400603006001023341600GUN-CAPS 8-SHOT CARD-9 0000001000-00000700+00000+0001T062931660000                    1400 1IC7101ICV             Z
M17021391                              CASH        KBSLAVE 4                       Z-REPORT No.   387TOTAL (Sales - Refunds)              0.00       CASH TO BE BANKED                    0.00       DEBIT CARDS                          0.00       CREDIT CARDS                         0.00       Z-READING                            0.00       AIRTIME DEBIT CARD SALES             0.00       AIRTIME CARD SALES                   0.00       OVERS/UNDERS                         0.00       AIRTIME CASH SALES                   0.00       GIFT CARDS                           0.00       GIFT CARD CASH SALES                 0.00       T O T A L  CASH PAYOUTS              0.00                                                                                                                                                                                                                                                                                                                                                      Z
M17021392                              CASH        KBABSENT                                                                                                                                                                                          ANNUAL LEAVE                                                                                                                                                                                    DAY OFF                                                                                                                                                                                         COMMENTS                                                                                                                                                                                                                                                                                                                                                                                       Z
Y17021300                                          KB00000000000000+000000
ZKB17021319563 SLAVE 4      SALES DATA                     NEXT INVOICE NO.  400604 0387
F093107150-000772         1612230831390000101ICSLAVE 4
X KB Slave 4 First invoice 400602 170213 Last invoice 400603 170213 Next invoice 400604 Total number of records 000000027 clbackup completed 19:56:55
