211582000211582               211582               170213KH     1400+00000+KH0000007893+0000007893+000000000+000001106+0000008999+0000000000+I40000008999+0000000000+Z
211582001211582105-007585     211582008696287301736STORAGE BOX CLEAR DEPO 0000001000+00007893+00000+0001T   00010525+0008170931          1400 MS7210               1AZ
211583000211583               211583               170213KH     1400+00000+KH0000005434+0000005434+000000000+000000762+0000006190+0000000006+I20000000000+0000006190+Z
211583001211583467-000006     211583006001023995483NET-BUTTERFLY 120cm    0000001000+00002630+00000+0001T   00002630+0000000932          1400 MS7785               1AZ
211583002211583306-000020     211583006001023743145POCKET-TISSUES 10PCE   0000002000+00000306+00000+0001T   00000306+0000000932          1400 MS7200               1AZ
211583003211583159-000887     211583006001023730817HOOKS PL SUCTION 9PCE  0000001000+00002192+00000+0001T   00002192+0000000932          1400 MS7200               1AZ
211584000211584               211584               170213KH     1400+00000+KH0000001490+0000001490+000000000+000000209+0000001690+0000000009+I20000000000+0000001690+Z
211584001211584077-000327     211584006001023677686GIFT-BAG 25X32CM E/D BA0000001000+00001490+00000+0001T   00001490+0000000954          1400 MS7112               1AZ
211585000211585               211585               170213KH     1400+00000+KH0000002192+0000002192+000000000+000000307+0000002490+0000000009+I20000000000+0000002490+Z
211585001211585039-000326     211585006001023775252B/CANDLES 25PC CAND+HOL0000001000+00002192+00000+0001T   00002192+0000000956          1400 MS7510               1AZ
211586000211586               211586               170213KH     1400+00000+KH0000022391+0000022391+000000000+000003137+0000025528+0000000000+I40000025528+0000000000+Z
211586001211586079-000358     211586006003000591046ART+CRAFT FELT-TIP PENS0000001000+00003069+00000+0001T   00003069+0000001002          1400 MS7130               1AZ
211586002211586200-000010     211586006925406841061BAG ZIPPERSEAL 35PC    0000001000+00002192+00000+0001T   00002192+0000001002          1400 MS7214               1AZ
211586003211586033-000652     211586006003000364282HAIR BRUSH 24cm ASSTD  0000001000+00003507+00000+0001T   00003507+0000001002          1400 MS7200               1AZ
211586004211586306-007302     211586006001023730954BACK-SCRATCH+MASSAGE-WH0000001000+00001753+00000+0001T   00001753+0000001002          1400 MS7200               1AZ
211586005211586033-000005     211586006001023511584SHEET+IRN-BOARD-BND 4PC0000001000+00002630+00000+0001T   00002630+0000001002          1400 MS7200               1AZ
211586006211586036-000519     211586006003000560752HOOK HANGER CHROME PL  0000001000+00003507+00000+0001T   00003507+0000001002          1400 MS7212               1AZ
211586007211586006-000167-C   211586006003000516971BALLOONS PINK METALLIC 0000001000+00001314+00000+0001T   00001314+0000001002          1400 MS7131               1AZ
211586008211586369-001010     211586006001023864222BATH VINYL DUCK 4PC    0000001000+00002192+00000+0001T   00002192+0000001002          1400 MS7745               1AZ
211586009211586112-116038     211586006009681820246TCS CARRIER BAG MIDI   0000001000+00000035+00000+0001T   00000035+0000001002          1400 MS7090               1AZ
211586010211586046-000012-A   211586006003000208296BATTERIES H/POWER SZ:AA0000001000+00002192+00000+0001T   00002192+0000001002          1400 MS7312               1AZ
211587000211587               211587               170213KH     1400+00000+KH0000026618+0000026618+000000000+000003729+0000030347+0000000000+I40000030347+0000000000+Z
211587001211587112-116069     211587006009681820277TCS CARRIER BAG JUMBO  0000001000+00000048+00000+0001T   00000048+0000001004          1400 MS7090               1AZ
211587002211587033-000013     211587006001023567215PILL-REMINDER PL       0000001000+00001227+00000+0001T   00001227+0000001004          1400 MS7200               1AZ
211587003211587071-005060     211587006003000152186CELLOTAPE 2PACK INVSBLE0000001000+00003507+00000+0001T   00003507+0000001004          1400 MS7130               1AZ
211587004211587071-081101-A   211587006003000326549GLUE-STICK 25g BLISTER 0000001000+00000788+00000+0001T   00000788+0000001004          1400 MS7130               1AZ
211587005211587174-000153     211587006003000060795STORAGE ORGANISER 3-DRW0000004000+00005262+00000+0001T   00005262+0000001004          1400 MS7205               1AZ
211588000211588               211588               170213KH     1400+00000+KH0000006750+0000006750+000000000+000000946+0000007696+0000000000+I40000007696+0000000000+Z
211588001211588031-000874-C   211588006001023798862P/FRAME WDN P/BOX 20X250000001000+00005700+00000+0001T   00005700+0000001030          1400 MS7510               1AZ
211588002211588903-000155     211588006009803374435SWT LOLLY I LUV U HEART0000002000+00000525+00000+0001T   00000525+0000001030          1400 MS7150               1AZ
211589000211589               211589               170213KH     1400+00000+KH0000001753+0000001753+000000000+000000246+0000001990+0000000009+I20000000000+0000001990+Z
211589001211589002-001068     211589006001023812001DISP. BOTTLES PL H/H   0000001000+00001753+00000+0001T   00001753+0000001032          1400 MS7300               1AZ
211590000211590               211590               170213KH     1400+00000+KH0000002665+0000002665+000000000+000000374+0000003030+0000000009+I20000000000+0000003030+Z
211590001211590001-091413     211590006001023669179WINE-GLASS RED WINE    0000001000+00002630+00000+0001T   00002630+0000001035          1400 MS7515               1AZ
211590002211590112-116038     211590006009681820246TCS CARRIER BAG MIDI   0000001000+00000035+00000+0001T   00000035+0000001035          1400 MS7090               1AZ
211591000211591               211591               170213KH     1400+00000+KH0000007924+0000007924+000000000+000001112+0000009036+0000000000+I40000009036+0000000000+Z
211591001211591047-000502-H   211591006001023780041PLUG 2x2PIN EURO       0000001000+00001753+00000+0001T   00001753+0000001108          1400 MS7880               1AZ
211591002211591084-009407     211591006001023861726SCISSORS 13cm MTL PL-H 0000001000+00001753+00000+0001T   00001753+0000001108          1400 MS7200               1AZ
211591003211591019-071594     211591006003000505579PEBBLES GLS 250g RED   0000001000+00002630+00000+0001T   00002630+0000001108          1400 MS7510               1AZ
211591004211591019-071599     211591006001023693242PEBBLES GLS 250g BLACK 0000001000+00001753+00000+0001T   00001753+0000001108          1400 MS7510               1AZ
211591005211591112-116038     211591006009681820246TCS CARRIER BAG MIDI   0000001000+00000035+00000+0001T   00000035+0000001108          1400 MS7090               1AZ
211592000211592               211592               170213KH     1400+00000+KH0000002839+0000002839+000000000+000000399+0000003230+0000000008+I20000000000+0000003230+Z
211592001211592903-002850     211592000000087108262MENTOS ROLL FRUIT      0000001000+00001051+00000+0001T   00001051+0000001117          1400 MS7150               1AZ
211592002211592366-002460     211592006003000166794S/FASION CROCHET 1.9m  0000001000+00001753+00000+0001T   00001753+0000001117          1400 MS7131               1AZ
211592003211592112-116038     211592006009681820246TCS CARRIER BAG MIDI   0000001000+00000035+00000+0001T   00000035+0000001117          1400 MS7090               1AZ
211593000211593               211593               170213KH     1400+00000+KH0000004385+0000004385+000000000+000000614+0000004999+0000000000+I40000004999+0000000000+Z
211593001211593082-007585     211593006003000654093SUNGLASS DESIGNER ASST 0000001000+00004385+00000+0001T   00004385+0000001120          1400 MS7160               1AZ
211594000211594               211594               170213KH     1400+00000+KH0000031602+0000031602+000000000+000004435+0000036037+0000000000+I40000036037+0000000000+Z
211594001211594112-116069     211594006009681820277TCS CARRIER BAG JUMBO  0000001000+00000048+00000+0001T   00000048+0000001135          1400 MS7090               1AZ
211594002211594009-001309     211594006001023854667MELAMINE FLOWER BOWL   0000006000+00001753+00000+0001T   00001753+0000001135          1400 MS7210               1AZ
211594003211594009-001709     211594006001023807762SALAD BOWL 23cm SWIRL  0000006000+00001753+00000+0001T   00001753+0000001135          1400 MS7210               1AZ
211594004211594009-001708     211594006001023807731SALAD BOWL 15cm SWIRL  0000006000+00001753+00000+0001T   00001753+0000001135          1400 MS7210               1AZ
211595000211595               211595               170213KH     1400+00000+KH0000001490+0000001490+000000000+000000209+0000001690+0000000009+I20000000000+0000001690+Z
211595001211595079-006494     211595006003000159864GLITTER GLUE 5PCE 11cm 0000001000+00001490+00000+0001T   00001490+0000001228          1400 MS7130               1AZ
211596000211596               211596               170213KH     1400+00000+KH0000005961+0000005961+000000000+000000835+0000006790+0000000006+I20000000000+0000006790+Z
211596001211596903-000844     211596005010478432567SWT CANDY DL LUV HEARTS0000001000+00001314+00000+0001T   00001314+0000001308          1400 MS7150               1AZ
211596002211596071-001346     211596006001023912985HIGHLIGHTERS 4PCE CARD 0000001000+00002192+00000+0001T   00002192+0000001308          1400 MS7130               1AZ
211596003211596071-003858     211596006001023902276STATIONERY SET PENCIL  0000001000+00002455+00000+0001T   00002455+0000001308          1400 MS7130               1AZ
211597000211597               211597               170213KH     1400+00000+KH0000000525+0000000525+000000000+000000074+0000000000+0000000000+ 00000000000+0000000000+Z
211597001211597001-000006     211597006003000504992SHOT-GLASS DOUBLE-TOT  0000001000+00000525+00000+0001T   00000525+000000              1400 MS75152IC            1 Z
211598000211598               211598               170213KH     1400+00000+KH0000017542+0000017542+000000000+000002456+0000019990+0000000008+I20000000000+0000019990+Z
211598001211598072-020244     211598000694202207840PET BED COTTON 90x70cm 0000001000+00017542+00000+0001T   00017542+0000001413          1400 MS7870               1AZ
211599000211599               211599               170213KH     1400+00000+KH0000003542+0000003542+000000000+000000496+0000004038+0000000000+I40000004038+0000000000+Z
211599001211599112-116038     211599006009681820246TCS CARRIER BAG MIDI   0000001000+00000035+00000+0001T   00000035+0000001419          1400 MS7090               1AZ
211599002211599018-005009     211599006001023725608MUG W/PLUSH-BEAR LOVE  0000001000+00003507+00000+0001T   00003507+0000001419          1400 MS7515               1AZ
211600000211600               211600               170213KH     1400+00000+KH0000002630+0000002630+000000000+000000369+0000002990+0000000009+I20000000000+0000002990+Z
211600001211600463-000366     211600006001023789136SWIM W/NOODLE 150cm    0000001000+00002630+00000+0001T   00002630+0000001419          1400 MS7785               1AZ
211601000211601               211601               170213KH     1400+00000+KH0000012671+0000012671+000000000+000001777+0000014440+0000000008+I20000000000+0000014440+Z
211601001211601112-116069     211601006009681820277TCS CARRIER BAG JUMBO  0000001000+00000048+00000+0001T   00000048+0000001427          1400 MS7090               1AZ
211601002211601108-003023     211601006003000665471TUMBLER W/STRAW 550ml  0000001000+00002630+00000+0001T   00002630+0000001427          1400 MS7210               1AZ
211601003211601077-000302     211601008010410010195GIFT-BAG 18X23CM E/D   0000001000+00000876+00000+0001T   00000876+0000001427          1400 MS7112               1AZ
211601004211601159-000111     211601006003000330379SHOWER CAP PVC LINED   0000001000+00002630+00000+0001T   00002630+0000001427          1400 MS7200               1AZ
211601005211601369-001026     211601006001023795977BABY-RATTLE CATERPILLAR0000001000+00003507+00000+0001T   00003507+0000001427          1400 MS7745               1AZ
211601006211601058-001200     211601006001023183798KNIFE 9mm SNAPOFF-BLADE0000001000+00000876+00000+0001T   00000876+0000001427          1400 MS7840               1AZ
211601007211601903-000095     211601006001704011495SWT SPECKLED-EGGS 100G 0000001000+00002104+00000+0001T   00002104+0000001427          1400 MS7150               1AZ
211602000211602               211602               170213KH     1400+00000+KH0000002977+0000002977+000000000+000000419+0000003390+0000000006+I20000000000+0000003390+Z
211602001211602903-004962     211602008410525221880SWT FINI BLCK/RED 50g  0000001000+00000964+00000+0001T   00000964+0000001439          1400 MS7150               1AZ
211602002211602903-000200     211602006009826020234SWT CHOC RP CHOCO 23G  0000002000+00000788+00000+0001T   00000788+0000001439          1400 MS7150               1AZ
211602003211602083-000049     211602004891035200024CIG-LIGHTER DISPOSABLE 0000001000+00000437+00000+0001T   00000437+0000001439          1400 MS7315               1AZ
211603000211603               211603               170213KH     1400+00000+KH0000005262+0000005262+000000000+000000737+0000005990+0000000009+I20000000000+0000005990+Z
211603001211603085-007026     211603006003000528714P/KNIFE 9cm 15-FUNCTION0000001000+00005262+00000+0001T   00005262+0000001450          1400 MS7305               1AZ
211604000211604               211604               170213KH     1400+00000+KH0000003506+0000003506+000000000+000000492+0000003990+0000000008+I20000000000+0000003990+Z
211604001211604088-000108     211604006001023765536POTPOURRI-OIL 10ml ASST0000002000+00001753+00000+0001T   00001753+0000001507          1400 MS7212               1AZ
211605000211605               211605               170213KH     1400+00000+KH0000006174+0000006174+000000000+000000865+0000007039+0000000000+I40000007039+0000000000+Z
211605001211605018-050000     211605006003000412679MUG OCC LOVE TWIN BEAR 0000001000+00006139+00000+0001T   00006139+0000001525          1400 MS7515               1AZ
211605002211605112-116038     211605006009681820246TCS CARRIER BAG MIDI   0000001000+00000035+00000+0001T   00000035+0000001525          1400 MS7090               1AZ
211606000211606               211606               170213KH     1400+00000+KH0000017542+0000017542+000000000+000002456+0000019990+0000000008+I20000000000+0000019990+Z
211606001211606005-005403     211606000694202400074SOCKETSET MET 69PCE    0000001000+00017542+00000+0001T   00017542+0000001555          1400 MS7840               1AZ
211607000211607               211607               170213KH     1400+00000+KH0000002663+0000002663+000000000+000000373+0000003030+0000000006+I20000000000+0000003030+Z
211607001211607006-000166-F   211607006003000516735BALLOONS LRG 6PC PURPLE0000002000+00001314+00000+0001T   00001314+0000001556          1400 MS7131               1AZ
211607002211607112-116038     211607006009681820246TCS CARRIER BAG MIDI   0000001000+00000035+00000+0001T   00000035+0000001556          1400 MS7090               1AZ
A17021300                                          09422875KHSLAVE 1                       MS72IC
A17021301                                          11305731KHSLAVE 1                       MS72IC
M17021301                              IT DEPT     KHSHELLY BEACH KH ATT BASIL                                                                       THE LAST TRANS FOR THIS SLAVE WAS 211607
M17021391                              CASH        KHSLAVE 1                       Z-REPORT No.   623TOTAL (Sales - Refunds)           2346.29       CASH TO BE BANKED                 1009.10       DEBIT CARDS                          0.00       CREDIT CARDS                      1337.19       Z-READING                         2346.29       AIRTIME DEBIT CARD SALES             0.00       AIRTIME CARD SALES                   0.00       OVERS/UNDERS                         0.00       AIRTIME CASH SALES                   0.00       GIFT CARDS                           0.00       GIFT CARD CASH SALES                 0.00       T O T A L  CASH PAYOUTS              0.00                                                                                                                                                                                                                                                                                                                                                      Z
M17021392                              CASH        KHABSENT                                                                                                                                                                                          ANNUAL LEAVE                                                                                                                                                                                    DAY OFF                                                                                                                                                                                         COMMENTS                                                                                                                                                                                                                                                                                                                                                                                       Z
Y17021300                                          KH00000000205896+000025
ZKH17021319573 SLAVE 1      SALES DATA                     NEXT INVOICE NO.  211608 0623
X KH Slave 1 First invoice 211582 170213 Last invoice 211607 170213 Next invoice 211608 Total number of records 000000098 clbackup completed 19:57:31
