220098000220098               220098               170213KH     1400+00000+KH0000007674+0000007674+000000000+000001076+0000008750+0000000000+I40000008750+0000000000+Z
220098001220098304-001011     220098006001023806727FLWR ROSE RED W/BEAR   0000001000+00000613+00000+0001T   00000788+0006471123          1400 NI3510               2AZ
220098002220098903-000194     220098006009826020616SWT CHOC RP LOLLY 25G  0000001000+00001314+00000+0001T   00001314+0000001123          1400 NI3150               2AZ
220098003220098002-000460     220098006001023770219K/TOOL-RACK 6-PRONG    0000001000+00003946+00000+0001T   00003946+0000001123          1400 NI3300               2AZ
220098004220098036-000521     220098006003000338184HOOK-HANGER 8-HOOK     0000001000+00001753+00000+0001T   00001753+0000001123          1400 NI3212               2AZ
220098005220098112-116069     220098006009681820277TCS CARRIER BAG JUMBO  0000001000+00000048+00000+0001T   00000048+0000001123          1400 NI3090               2AZ
220099000220099               220099               170213KH     1400+00000+KH0000008054+0000008054+000000000+000001129+0000009180+0000000003+I20000000000+0000009180+Z
220099001220099304-001011     220099006001023806727FLWR ROSE RED W/BEAR   0000001000+00000613+00000+0001T   00000788+0006471125          1400 NI3510               2AZ
220099002220099903-000844     220099005010478432567SWT CANDY DL LUV HEARTS0000002000+00001314+00000+0001T   00001314+0000001125          1400 NI3150               2AZ
220099003220099030-000031-A   220099006003000457588PLAQUE W/WORDS ASSTD   0000001000+00004385+00000+0001T   00004823+0006471125          1400 NI3505               2AZ
220099004220099903-000183     220099006003000451043SWT LB HEART LOLLY     0000001000+00000393+00000+0001T   00000393+0000001125          1400 NI3150               2AZ
220099005220099112-116038     220099006009681820246TCS CARRIER BAG MIDI   0000001000+00000035+00000+0001T   00000035+0000001125          1400 NI3090               2AZ
220100000220100               220100               170213KH     1400+00000+KH0000001314+0000001314+000000000+000000184+0000001490+0000000008+I20000000000+0000001490+Z
220100001220100046-000012     220100006904708013062BATTERIES AA  CARD-OF-40000001000+00001314+00000+0001T   00001314+0000001127          1400 NI3312               2AZ
220101000220101               220101               170213KH     1400+00000+KH0000002361-0000002361-000000000+000000331-0000002700-0000000008+I20000000000+0000002700-Z
220101001220101077-000452     220101006003000284986G/BAG METALLIC MED EMB 0000001000-00001490+00000+0001T   00001490+0000001130          1400 NI31122IC            2 Z
220101002220101077-000310     220101006001023608635GIFT-BAG 18X23CM GLOSS 0000004000-00001314+00000+0001T   00001314+0000001130          1400 NI31122IC            2 Z
220101003220101162-097719     220101006001492977195#TAG NECKLACE          0000001000+00004385+00000+0001T   00004385+0000001130          1400 NI3160               2 Z
220102000220102               220102               170213KH     1400+00000+KH0000011975+0000011975+000000000+000001678+0000013653+0000000000+I40000013653+0000000000+Z
220102001220102368-000637     220102006001023874092PLUSH BEAR SLEEPING LOV0000001000+00011402+00000+0001T   00012279+0006471134          1400 NI3745               2AZ
220102002220102903-000155     220102006009803374435SWT LOLLY I LUV U HEART0000001000+00000525+00000+0001T   00000525+0000001134          1400 NI3150               2AZ
220102003220102112-116069     220102006009681820277TCS CARRIER BAG JUMBO  0000001000+00000048+00000+0001T   00000048+0000001134          1400 NI3090               2AZ
220103000220103               220103               170213KH     1400+00000+KH0000000876+0000000876+000000000+000000123+0000000990+0000000009+I20000000000+0000000990+Z
220103001220103082-026204     220103006001023816443R/GLASSES STRINGS 2PCE 0000001000+00000876+00000+0001T   00000876+0000001135          1400 NI3160               2AZ
220104000220104               220104               170213KH     1400+00000+KH0000007918+0000007918+000000000+000001114+0000009032+0000000000+I40000009032+0000000000+Z
220104001220104466-000515     220104006001023477408BALLS TENNIS BAG-OF-3  0000001000+00002630+00000+0001T   00002630+0000001138          1400 NI3785               2AZ
220104002220104903-000155     220104006009803374435SWT LOLLY I LUV U HEART0000002000+00000525+00000+0001T   00000525+0000001138          1400 NI3150               2AZ
220104003220104903-000200     220104006009826020234SWT CHOC RP CHOCO 23G  0000002000+00000788+00000+0001T   00000788+0000001138          1400 NI3150               2AZ
220104004220104007-000724     220104006003000225958NOTE MAGNETIC 60SHTS   0000001000+00001753+00000+0001T   00001753+0000001138          1400 NI3130               2AZ
220104005220104112-116038     220104006009681820246TCS CARRIER BAG MIDI   0000001000+00000035+00000+0001T   00000035+0000001138          1400 NI3090               2AZ
220104006220104080-000133-A   220104006003000647019MINI VALENTINES CARD   0000001000+00000437+00000+0001T   00000437+0000001138          1400 NI3112               2AZ
220104007220104080-000133     220104006003000535613CARD&ENV MINI ASTD DSGN0000001000+00000437+00000+0001T   00000437+0000001138          1400 NI3112               2AZ
220105000220105               220105               170213KH     1400+00000+KH0000051117+0000051117+000000000+000007166+0000058283+0000000000+I40000058283+0000000000+Z
220105001220105001-091415     220105006003000329113W/GLS OCC. LOVE 2PC 2800000001000+00008771+00000+0001T   00009648+0006471146          1400 NI3515               2AZ
220105002220105368-000049     220105006003000536955PLUSH BEAR 15cm LOVE   0000002000+00004385+00000+0001T   00004385+0000001146          1400 NI3745               2AZ
220105003220105018-005007     220105006003000515516MUG OCC. LOVE W/HEARTS 0000001000+00006139+00000+0001T   00006139+0000001146          1400 NI3515               2AZ
220105004220105018-000170     220105006001023775528MUG OCC. LOVE 2PC MINI 0000001000+00002192+00000+0001T   00002192+0000001146          1400 NI3515               2AZ
220105005220105112-116069     220105006009681820277TCS CARRIER BAG JUMBO  0000001000+00000048+00000+0001T   00000048+0000001146          1400 NI3090               2AZ
220105006220105079-000335     220105006003000670550THERAPY P/CRAYONS 30   0000001000+00007016+00000+0001T   00007016+0000001146          1400 NI3130               2AZ
220105007220105206-000350     220105006003000633265EGG MOULD SUNRISE      0000001000+00002630+00000+0001T   00002630+0000001146          1400 NI3321               2AZ
220105008220105566-000359     220105006003000582709STICKER BOOK LOVE SPARK0000001000+00002192+00000+0001T   00002192+0000001146          1400 NI3130               2AZ
220105009220105079-000201     220105006003000161430P/CRAYONS THERAPY 10PCE0000001000+00002630+00000+0001T   00002630+0000001146          1400 NI3130               2AZ
220105010220105903-000155     220105006009803374435SWT LOLLY I LUV U HEART0000003000+00000525+00000+0001T   00000525+0000001146          1400 NI3150               2AZ
220105011220105030-000040     220105006003000396375PLAQUE WDN HANGING HRTS0000001000+00003069+00000+0001T   00003069+0000001146          1400 NI3505               2AZ
220105012220105903-000194     220105006009826020616SWT CHOC RP LOLLY 25G  0000002000+00001314+00000+0001T   00001314+0000001146          1400 NI3150               2AZ
220105013220105903-000183     220105006003000451043SWT LB HEART LOLLY     0000003000+00000393+00000+0001T   00000393+0000001146          1400 NI3150               2AZ
220105014220105903-000862     220105005010478533912SWT DOUBLE DIP 19G     0000002000+00001139+00000+0001T   00001139+0000001146          1400 NI3150               2AZ
220106000220106               220106               170213KH     1400+00000+KH0000007012+0000007012+000000000+000000984+0000007996+0000000000+I40000007996+0000000000+Z
220106001220106077-000309     220106006001023608604GIFT-BAG 25X32CM GLOSS 0000002000+00001753+00000+0001T   00001753+0000001201          1400 NI3112               2AZ
220106002220106903-000611     220106006003000617326SWT SNAPPER 20cm       0000002000+00001753+00000+0001T   00001753+0000001201          1400 NI3150               2AZ
220107000220107               220107               170213KH     1400+00000+KH0000008771+0000008771+000000000+000001228+0000009999+0000000000+I40000009999+0000000000+Z
220107001220107019-000047-A   220107006001023749048VASE GLASS 30CM CLEAR  0000001000+00008771+00000+0001T   00008771+0000001203          1400 NI3510               2AZ
220108000220108               220108               170213KH     1400+00000+KH0000001753+0000001753+000000000+000000246+0000001990+0000000009+I20000000000+0000001990+Z
220108001220108080-000106     220108006003000237098CARD&ENVLPE BDAY GIRL  0000001000+00001753+00000+0001T   00001753+0000001218          1400 NI3112               2AZ
220109000220109               220109               170213KH     1400+00000+KH0000033326+0000033326+000000000+000004667+0000037993+0000000000+I40000037993+0000000000+Z
220109001220109031-000924     220109006001023669964P/FRAME COLLAGE PL     0000001000+00008771+00000+0001T   00008771+0000001225          1400 NI3510               2AZ
220109002220109077-000270     220109006003000395453GIFT-BAG PPR JMB 33X45 0000001000+00002630+00000+0001T   00002630+0000001225          1400 NI3112               2AZ
220109003220109006-000190     220109006003000685530BALLOONS LOVE 81x91cm  0000005000+00004385+00000+0001T   00004385+0000001225          1400 NI3131               2AZ
220110000220110               220110               170213KH     1400+00000+KH0000017351+0000017351+000000000+000002451+0000019800+0000000002+I20000000000+0000019800+Z
220110001220110903-000183     220110006003000451043SWT LB HEART LOLLY     0000012000+00000393+00000+0001T   00000393+0000001231          1400 NI3150               2AZ
220110002220110903-000155     220110006009803374435SWT LOLLY I LUV U HEART0000020000+00000525+00000+0001T   00000525+0000001231          1400 NI3150               2AZ
220110003220110018-000177     220110006001023797513MUG MINI LOVE ASSTD    0000003000+00000700+00000+0001T   00000700+0000001231          1400 NI3515               2AZ
220110004220110112-116038     220110006009681820246TCS CARRIER BAG MIDI   0000001000+00000035+00000+0001T   00000035+0000001231          1400 NI3090               2AZ
220111000220111               220111               170213KH     1400+00000+KH0000003500+0000003500+000000000+000000490+0000003990+0000000000+I20000000000+0000003990+Z
220111001220111903-000071     220111006001704001120SWT TOFFEE LIQURICE 35g0000002000+00000700+00000+0001T   00000700+0000001232          1400 NI3150               2AZ
220111002220111903-000070     220111006001704001106SWT TOFFEE CREAMY 35g  0000003000+00000700+00000+0001T   00000700+0000001232          1400 NI3150               2AZ
220112000220112               220112               170213KH     1400+00000+KH0000004385+0000004385+000000000+000000614+0000004999+0000000000+I40000004999+0000000000+Z
220112001220112082-000120     220112006003000360727READING GLS STRENGTH:3 0000001000+00004385+00000+0001T   00004385+0000001235          1400 NI3160               2AZ
220113000220113               220113               170213KH     1400+00000+KH0000004996+0000004996+000000000+000000701+0000005690+0000000007+I20000000000+0000005690+Z
220113001220113264-000921     220113000090159150442MAISTO CAR 3" FRESH    0000002000+00001753+00000+0001T   00001753+0000001250          1400 NI3710               2AZ
220113002220113565-004101     220113006003000548033BALL BOUNCING EGG      0000001000+00001490+00000+0001T   00001490+0000001250          1400 NI3745               2AZ
220114000220114               220114               170213KH     1400+00000+KH0000004385+0000004385+000000000+000000614+0000004990+0000000009+I20000000000+0000004990+Z
220114001220114082-000105     220114006003000360369READING GLS STRNGHT:1.50000001000+00004385+00000+0001T   00004385+0000001301          1400 NI3160               2AZ
220115000220115               220115               170213KH     1400+00000+KH0000000876+0000000876+000000000+000000123+0000000990+0000000009+I20000000000+0000000990+Z
220115001220115001-000167     220115008992787110398TUMBLER 340ml WILLY    0000001000+00000876+00000+0001T   00000876+0000001301          1400 NI3515               2AZ
220116000220116               220116               170213KH     1400+00000+KH0000021307+0000021307+000000000+000002987+0000024294+0000000000+I40000024294+0000000000+Z
220116001220116903-000200     220116006009826020234SWT CHOC RP CHOCO 23G  0000002000+00000788+00000+0001T   00000788+0000001342          1400 NI3150               2AZ
220116002220116031-006540     220116006001023695031P/FRAME PL 3-(10X15CM) 0000001000+00006139+00000+0001T   00006139+0000001342          1400 NI3510               2AZ
220116003220116077-000324     220116006001023677594GIFT-BAG 33X45CM E/D FL0000001000+00001753+00000+0001T   00001753+0000001342          1400 NI3112               2AZ
220116004220116040-000103     220116000694202201862C/HOLDER-SET 5PC W/TRAY0000001000+00011402+00000+0001T   00013157+0008191342          1400 NI3510               2AZ
220116005220116080-000133-A   220116006003000647019MINI VALENTINES CARD   0000001000+00000437+00000+0001T   00000437+0000001342          1400 NI3112               2AZ
220117000220117               220117               170213KH     1400+00000+KH0000003507+0000003507+000000000+000000491+0000003998+0000000000+I40000003998+0000000000+Z
220117001220117028-002101     220117006002580009507CHAIR JUNIOR    ASSTD  0000001000+00003507+00000+0001T   00003507+0000001344          1400 NI3305               2AZ
220118000220118               220118               170213KH     1400+00000+KH0000031171+0000031171+000000000+000004370+0000035541+0000000000+I40000035541+0000000000+Z
220118001220118112-116069     220118006009681820277TCS CARRIER BAG JUMBO  0000001000+00000048+00000+0001T   00000048+0000001351          1400 NI3090               2AZ
220118002220118002-220009     220118006003000567478FOODCOVER COLL. ROUND  0000001000+00005262+00000+0001T   00005262+0000001351          1400 NI3300               2AZ
220118003220118565-004004     220118006001023744357NOVELTY INSCT COLLECTOR0000001000+00005262+00000+0001T   00005262+0000001351          1400 NI3745               2AZ
220118004220118560-000703     220118006003000332403INSECTS 9PC ASSTD      0000001000+00001753+00000+0001T   00001753+0000001351          1400 NI3745               2AZ
220118005220118566-000345     220118006001023994837STICKER ALBUM+STICKERS 0000001000+00002630+00000+0001T   00002630+0000001351          1400 NI3130               2AZ
220118006220118560-000106     220118006001023747099FROG FOAM BEADS 10cm   0000001000+00003507+00000+0001T   00003507+0000001351          1400 NI3745               2AZ
220118007220118079-006525     220118006003000681938MASKING FABRIC 10PC    0000002000+00002630+00000+0001T   00002630+0000001351          1400 NI3130               2AZ
220118008220118566-001118     220118006003000682171STICKERS CELL PHONE    0000001000+00001753+00000+0001T   00001753+0000001351          1400 NI3130               2AZ
220118009220118566-000345     220118006001023994837STICKER ALBUM+STICKERS 0000001000+00002630+00000+0001T   00002630+0000001351          1400 NI3130               2AZ
220118010220118566-000451     220118006001023788443STICKERS GLITTER ASSTD 0000001000+00001314+00000+0001T   00001753+0008151351          1400 NI3130               2AZ
220118011220118903-000520     220118006001704009898SWT GUMMY MINI SOUR 60g0000001000+00000876+00000+0001T   00000876+0000001351          1400 NI3150               2AZ
220118012220118903-000494     220118006001704009911SWT GUMMY TEENY TEDDIES0000001000+00000876+00000+0001T   00000876+0000001351          1400 NI3150               2AZ
220119000220119               220119               170213KH     1400+00000+KH0000008416+0000008416+000000000+000001179+0000009590+0000000005+I20000000000+0000009590+Z
220119001220119079-000289     220119006001023493217PAINT WTR COL CAKE 6COL0000002000+00001578+00000+0001T   00001578+0000001352          1400 NI3130               2AZ
220119002220119088-000108     220119006001023765536POTPOURRI-OIL 10ml ASST0000001000+00001753+00000+0001T   00001753+0000001352          1400 NI3212               2AZ
220119003220119048-000830     220119006001023821010TORCH PENLIGHT+2AA  BOX0000001000+00003507+00000+0001T   00004385+0008191352          1400 NI3305               2AZ
220120000220120               220120               170213KH     1400+00000+KH0000012278+0000012278+000000000+000001720+0000013990+0000000008+I20000000000+0000013990+Z
220120001220120077-000299-A   220120006003000670888GIFT-BAG PAPER JMB LOVE0000001000+00001753+00000+0001T   00001753+0000001353          1400 NI3112               2AZ
220120002220120486-001017     220120006003000384501C/WALL QTZ PL RND 31cm 0000001000+00010525+00000+0001T   00010525+0000001353          1400 NI3510               2AZ
220121000220121               220121               170213KH     1400+00000+KH0000019289+0000019289+000000000+000002702+0000021991+0000000000+I40000021991+0000000000+Z
220121001220121031-000001     220121006003000201068P/FRAME GLS MOM  9X13CM0000001000+00004385+00000+0001T   00004385+0000001355          1400 NI3510               2AZ
220121002220121031-000847     220121006001023851871P/FRAME TWIN 10X15CM   0000001000+00003507+00000+0001T   00003507+0000001355          1400 NI3510               2AZ
220121003220121051-002400     220121006001023616180TRIGGER-SPRAYER 900ml  0000001000+00002192+00000+0001T   00002192+0000001355          1400 NI3820               2AZ
220121004220121034-079055-A   220121006003000488209COOEY B/BRUSH 2PCE     0000001000+00004385+00000+0001T   00004385+0000001355          1400 NI3215               2AZ
220121005220121018-000177     220121006001023797513MUG MINI LOVE ASSTD    0000001000+00000700+00000+0001T   00000700+0000001355          1400 NI3515               2AZ
220121006220121079-001002     220121006003000448715CANVAS A4 WOOD MOUNTED 0000001000+00002630+00000+0001T   00002630+0000001355          1400 NI3130               2AZ
220121007220121106-001100-B   220121006001023651693FRIDGE BOTTLE ASSORTED 0000001000+00001490+00000+0001T   00001490+0000001355          1400 NI3210               2AZ
220122000220122               220122               170213KH     1400+00000+KH0000000048+0000000048+000000000+000000007+0000000050+0000000005+I20000000000+0000000050+Z
220122001220122112-116069     220122006009681820277TCS CARRIER BAG JUMBO  0000001000+00000048+00000+0001T   00000048+0000001356          1400 NI3090               2AZ
220123000220123               220123               170213KH     1400+00000+KH0000004206+0000004206+000000000+000000589+0000004790+0000000005+I20000000000+0000004790+Z
220123001220123566-000991     220123000721129013121STICKERS GLOW-IN-DARK  0000001000+00002192+00000+0001T   00002192+0000001358          1400 NI3130               2AZ
220123002220123566-002000     220123000721129013206STICKERS CRYSTAL ASSTD 0000001000+00000700+00000+0001T   00000700+0000001358          1400 NI3130               2AZ
220123003220123566-000451     220123006001023788443STICKERS GLITTER ASSTD 0000001000+00001314+00000+0001T   00001753+0008151358          1400 NI3130               2AZ
220124000220124               220124               170213KH     1400+00000+KH0000001751+0000001751+000000000+000000246+0000001997+0000000000+I40000001997+0000000000+Z
220124001220124077-000470     220124006003000330171G-BAG DESGN SML 11X14CM0000001000+00001314+00000+0001T   00001314+0000001404          1400 NI3112               2AZ
220124002220124080-000133-A   220124006003000647019MINI VALENTINES CARD   0000001000+00000437+00000+0001T   00000437+0000001404          1400 NI3112               2AZ
220125000220125               220125               170213KH     1400+00000+KH0000017392+0000017392+000000000+000002438+0000019830+0000000000+I40000019830+0000000000+Z
220125001220125564-000012     220125006001023130075BUBBLE BOTTLE MAGIC    0000010000+00000700+00000+0001T   00000700+0000001433          1400 NI3131               2AZ
220125002220125565-001212     220125006001023658173NOVELTY MAGIC-SPRING   0000002000+00001753+00000+0001T   00001753+0000001433          1400 NI3745               2AZ
220125003220125562-000009     220125000730589212029PLAY MODELLING CARDED  0000001000+00002455+00000+0001T   00002455+0000001433          1400 NI3755               2AZ
220125004220125046-000011-A   220125006003000438891BATTERIES SIZE:AA  4PCE0000001000+00002630+00000+0001T   00002630+0000001433          1400 NI3312               2AZ
220125005220125046-002025-PK2 220125004897006174868BATTERIES CR-2025  2PCE0000001000+00001753+00000+0001T   00001753+0000001433          1400 NI3312               2AZ
220125006220125112-116069     220125006009681820277TCS CARRIER BAG JUMBO  0000001000+00000048+00000+0001T   00000048+0000001433          1400 NI3090               2AZ
220126000220126               220126               170213KH     1400+00000+KH0000001227+0000001227+000000000+000000172+0000001390+0000000009+I20000000000+0000001390+Z
220126001220126077-000322     220126006001023677532GIFT-BAG 18X23CM E/D FL0000001000+00001227+00000+0001T   00001227+0000001434          1400 NI3112               2AZ
220127000220127               220127               170213KH     1400+00000+KH0000008584+0000008584+000000000+000001202+0000009780+0000000006+I20000000000+0000009780+Z
220127001220127018-000177     220127006001023797513MUG MINI LOVE ASSTD    0000001000+00000700+00000+0001T   00000700+0000001458          1400 NI3515               2AZ
220127002220127903-000194     220127006009826020616SWT CHOC RP LOLLY 25G  0000006000+00001314+00000+0001T   00001314+0000001458          1400 NI3150               2AZ
220128000220128               220128               170213KH     1400+00000+KH0000080850+0000080850+000000000+000011336+0000092186+0000000000+I40000092186+0000000000+Z
220128001220128019-000070     220128006003000297474VASE GLS CLEAR BOTTLE  0000008000+00004385+00000+0001T   00004385+0000001509          1400 NI3510               2AZ
220128002220128112-116069     220128006009681820277TCS CARRIER BAG JUMBO  0000003000+00000048+00000+0001T   00000048+0000001509          1400 NI3090               2AZ
220128003220128019-071595     220128006001023756428PEBBLES 250g SKY-BLUE  0000022000+00001753+00000+0001T   00001753+0000001509          1400 NI3510               2AZ
220128004220128019-071598     220128006001023693228PEBBLES GLS 250g WHITE 0000004000+00001753+00000+0001T   00001753+0000001509          1400 NI3510               2AZ
220128005220128112-116069     220128006009681820277TCS CARRIER BAG JUMBO  0000001000+00000048+00000+0001T   00000048+0000001509          1400 NI3090               2AZ
220129000220129               220129               170213KH     1400+00000+KH0000002192+0000002192+000000000+000000307+0000002499+0000000000+I40000002499+0000000000+Z
220129001220129566-000031     220129006003000283910STICKER BK TEACHER STIC0000001000+00002192+00000+0001T   00002192+0000001510          1400 NI3130               2AZ
220130000220130               220130               170213KH     1400+00000+KH0000002279+0000002279+000000000+000000320+0000002599+0000000000+I40000002599+0000000000+Z
220130001220130027-000194     220130006001246602472MOP COMPLETE           0000001000+00002279+00000+0001T   00002279+0000001512          1400 NI3212               2AZ
220131000220131               220131               170213KH     1400+00000+KH0000007485+0000007485+000000000+000001050+0000008530+0000000005+I20000000000+0000008530+Z
220131001220131567-010564     220131006003000572397BOOK AFRIKAANS CAT 1   0000001000+00003507+00000+0001T   00003507+0000001513          1400 NI3757               2AZ
220131002220131080-000100     220131006003000236114CARD & ENVELOPE BDAY   0000001000+00001753+00000+0001T   00001753+0000001513          1400 NI3112               2AZ
220131003220131080-000106     220131006003000237098CARD&ENVLPE BDAY GIRL  0000001000+00001753+00000+0001T   00001753+0000001513          1400 NI3112               2AZ
220131004220131080-000133-A   220131006003000647019MINI VALENTINES CARD   0000001000+00000437+00000+0001T   00000437+0000001513          1400 NI3112               2AZ
220131005220131112-116038     220131006009681820246TCS CARRIER BAG MIDI   0000001000+00000035+00000+0001T   00000035+0000001513          1400 NI3090               2AZ
220132000220132               220132               170213KH     1400+00000+KH0000001753+0000001753+000000000+000000246+0000001990+0000000009+I20000000000+0000001990+Z
220132001220132077-000011     220132006003000542352PAPER RAFFIA ASSTD COL 0000001000+00001753+00000+0001T   00001753+0000001514          1400 NI3112               2AZ
220133000220133               220133               170213KH     1400+00000+KH0000002192+0000002192+000000000+000000307+0000002490+0000000009+I20000000000+0000002490+Z
220133001220133566-000359     220133006003000582709STICKER BOOK LOVE SPARK0000001000+00002192+00000+0001T   00002192+0000001516          1400 NI3130               2AZ
220134000220134               220134               170213KH     1400+00000+KH0000014546+0000014546+000000000+000002043+0000016580+0000000009+I20000000000+0000016580+Z
220134001220134006-000190     220134006003000685530BALLOONS LOVE 81x91cm  0000001000+00004385+00000+0001T   00004385+0000001527          1400 NI3131               2AZ
220134002220134006-001000     220134006003000093779HELIUM BALLOON FILL    0000002000+00000613+00000+0001T   00000613+0000001527          1400 NI3131               2AZ
220134003220134079-009702-B   220134008427973059491PAPER SIRIO A2 WHITE   0000004000+00001051+00000+0001T   00001051+0000001527          1400 NI3130               2AZ
220134004220134079-009702-A   220134008427973059408PAPER SIRIO A2 BLACK   0000003000+00001051+00000+0001T   00001051+0000001527          1400 NI3130               2AZ
220134005220134566-001234     220134006003000217793STICKERS LASER ASSTD   0000001000+00001578+00000+0001T   00001578+0000001527          1400 NI3130               2AZ
220135000220135               220135               170213KH     1400+00000+KH0000001753+0000001753+000000000+000000246+0000001990+0000000009+I20000000000+0000001990+Z
220135001220135071-001102     220135006003000274598MARKER PERM MED 2PCE   0000001000+00001753+00000+0001T   00001753+0000001551          1400 NI3130               2AZ
220136000220136               220136               170213KH     1400+00000+KH0000001139+0000001139+000000000+000000160+0000001290+0000000009+I20000000000+0000001290+Z
220136001220136903-000087     220136006001704000161SWT SPECKLED-EGGS 50G  0000001000+00001139+00000+0001T   00001139+0000001551          1400 NI3150               2AZ
220137000220137               220137               170213KH     1400+00000+KH0000001927+0000001927+000000000+000000270+0000002190+0000000007+I20000000000+0000002190+Z
220137001220137304-001011     220137006001023806727FLWR ROSE RED W/BEAR   0000001000+00000613+00000+0001T   00000788+0006471552          1400 NI3510               2AZ
220137002220137077-000310     220137006001023608635GIFT-BAG 18X23CM GLOSS 0000001000+00001314+00000+0001T   00001314+0000001552          1400 NI3112               2AZ
220138000220138               220138               170213KH     1400+00000+KH0000000000+0000000000+000000000+000000000+0000000000+0000000000+I20000000000+0000000000+Z
220138001220138486-002307     220138006003000443086W/CLOCK QTZ PL ANTIQUE 0000001000-00008771+00000+0001T   00008771+0000001556          1400 NI35102IC            2 Z
220138002220138486-002319     220138006001023847553W/CLOCK QTZ 3-FUN OVAL 0000001000+00008771+00000+0001T   00008771+0000001556          1400 NI3510               2 Z
220139000220139               220139               170213KH     1400+00000+KH0000010524+0000010524+000000000+000001474+0000011990+0000000008+I20000000000+0000011990+Z
220139001220139304-001116     220139006003000426164F/BUNCH ROSES 12-HEAD  0000002000+00005262+00000+0001T   00005262+0000001601          1400 NI3510               2AZ
220140000220140               220140               170213KH     1400+00000+KH0000000048+0000000048+000000000+000000007+0000000050+0000000005+I20000000000+0000000050+Z
220140001220140112-116069     220140006009681820277TCS CARRIER BAG JUMBO  0000001000+00000048+00000+0001T   00000048+0000001601          1400 NI3090               2AZ
220141000220141               220141               170213KH     1400+00000+KH0000001490+0000001490+000000000+000000209+0000001690+0000000009+I20000000000+0000001690+Z
220141001220141039-000108     220141006001023524034TEA-LITE CANDLES 8PCE  0000001000+00001490+00000+0001T   00001490+0000001607          1400 NI3510               2AZ
220142000220142               220142               170213KH     1400+00000+KH0000000613+0000000613+000000000+000000086+0000000690+0000000009+I20000000000+0000000690+Z
220142001220142304-001011     220142006001023806727FLWR ROSE RED W/BEAR   0000001000+00000613+00000+0001T   00000788+0006471607          1400 NI3510               2AZ
220143000220143               220143               170213KH     1400+00000+KH0000001663+0000001663+000000000+000000234+0000001890+0000000007+I20000000000+0000001890+Z
220143001220143200-000065     220143006001023323675DRINKING-STRAWS 38PCE  0000002000+00000613+00000+0001T   00000613+0000001619          1400 NI3214               2AZ
220143002220143080-000133-A   220143006003000647019MINI VALENTINES CARD   0000001000+00000437+00000+0001T   00000437+0000001619          1400 NI3112               2AZ
220144000220144               220144               170213KH     1400+00000+KH0000002980+0000002980+000000000+000000418+0000003398+0000000000+I40000003398+0000000000+Z
220144001220144077-000327     220144006001023677686GIFT-BAG 25X32CM E/D BA0000002000+00001490+00000+0001T   00001490+0000001622          1400 NI3112               2AZ
220145000220145               220145               170213KH     1400+00000+KH0000004120+0000004120+000000000+000000577+0000004690+0000000007+I20000000000+0000004690+Z
220145001220145304-001011     220145006001023806727FLWR ROSE RED W/BEAR   0000001000+00000613+00000+0001T   00000788+0006471626          1400 NI3510               2AZ
220145002220145018-000136     220145006001023659026MUG OCC LOVE W/PLUSH   0000001000+00003507+00000+0001T   00003507+0000001626          1400 NI3515               2AZ
220146000220146               220146               170213KH     1400+00000+KH0000002630+0000002630+000000000+000000369+0000002990+0000000009+I20000000000+0000002990+Z
220146001220146159-000800     220146006001023167972BATHMAT ANTI-SLIP      0000001000+00002630+00000+0001T   00002630+0000001630          1400 NI3200               2AZ
220147000220147               220147               170213KH     1400+00000+KH0000004208+0000004208+000000000+000000590+0000004798+0000000000+I40000004798+0000000000+Z
220147001220147566-001234     220147006003000217793STICKERS LASER ASSTD   0000001000+00001578+00000+0001T   00001578+0000001638          1400 NI3130               2AZ
220147002220147566-000004     220147006003000062270STICKER BOOK ABC/BORDER0000001000+00002630+00000+0001T   00002630+0000001638          1400 NI3130               2AZ
220148000220148               220148               170213KH     1400+00000+KH0000008940+0000008940+000000000+000001253+0000010193+0000000000+I40000010193+0000000000+Z
220148001220148079-006496     220148006003000160105GLITTER SHAKERS        0000002000+00001753+00000+0001T   00001753+0000001649          1400 NI3130               2AZ
220148002220148566-001234     220148006003000217793STICKERS LASER ASSTD   0000003000+00001578+00000+0001T   00001578+0000001649          1400 NI3130               2AZ
220148003220148018-000177     220148006001023797513MUG MINI LOVE ASSTD    0000001000+00000700+00000+0001T   00000700+0000001649          1400 NI3515               2AZ
220149000220149               220149               170213KH     1400+00000+KH0000013202+0000013202+000000000+000001850+0000015050+0000000002+I20000000000+0000015050+Z
220149001220149088-000107     220149006001023555823DIFFUSER SET FLOWER    0000001000+00004385+00000+0001T   00004385+0000001653          1400 NI3212               2AZ
220149002220149158-003007     220149006003000638116FRUIT BASKET CHROME    0000001000+00006139+00000+0001T   00006139+0000001653          1400 NI3300               2AZ
220149003220149002-009893     220149006001023764300CUTTING-BOARD 20x30cm  0000001000+00002630+00000+0001T   00002630+0000001653          1400 NI3300               2AZ
220149004220149112-116069     220149006009681820277TCS CARRIER BAG JUMBO  0000001000+00000048+00000+0001T   00000048+0000001653          1400 NI3090               2AZ
220150000220150               220150               170213KH     1400+00000+KH0000007890+0000007890+000000000+000001105+0000008990+0000000005+I20000000000+0000008990+Z
220150001220150566-001234     220150006003000217793STICKERS LASER ASSTD   0000005000+00001578+00000+0001T   00001578+0000001656          1400 NI3130               2AZ
220151000220151               220151               170213KH     1400+00000+KH0000002367+0000002367+000000000+000000332+0000002690+0000000009+I20000000000+0000002690+Z
220151001220151046-000010-A   220151006003000438778BATTERIES SIZE:AAA 4PCE0000001000+00002367+00000+0001T   00002367+0000001702          1400 NI3312               2AZ
220152000220152               220152               170213KH     1400+00000+KH0000001227+0000001227+000000000+000000172+0000001390+0000000009+I20000000000+0000001390+Z
220152001220152077-000322     220152006001023677532GIFT-BAG 18X23CM E/D FL0000001000+00001227+00000+0001T   00001227+0000001709          1400 NI3112               2AZ
220153000220153               220153               170213KH     1400+00000+KH0000000788+0000000788+000000000+000000111+0000000890+0000000009+I20000000000+0000000890+Z
220153001220153903-000137     220153006002099004130SWEET GS JELLY BEAN 60G0000001000+00000788+00000+0001T   00000788+0000001709          1400 NI3150               2AZ
M17021303                              IT DEPT     KHSHELLY BEACH KH ATT BASIL                                                                       THE LAST TRANS FOR THIS SLAVE WAS 220153
M17021391                              CASH        KHSLAVE 2                       Z-REPORT No.   607TOTAL (Sales - Refunds)           5480.89       CASH TO BE BANKED                 1740.60       DEBIT CARDS                          0.00       CREDIT CARDS                      3740.29       Z-READING                         5480.89       AIRTIME DEBIT CARD SALES             0.00       AIRTIME CARD SALES                   0.00       OVERS/UNDERS                         0.00       AIRTIME CASH SALES                   0.00       GIFT CARDS                           0.00       GIFT CARD CASH SALES                 0.00       T O T A L  CASH PAYOUTS              0.00                                                                                                                                                                                                                                                                                                                                                      Z
M17021392                              CASH        KHABSENT                                                                                                                                                                                          ANNUAL LEAVE                                                                                                                                                                                    DAY OFF                                                                                                                                                                                         COMMENTS                                                                                                                                                                                                                                                                                                                                                                                       Z
Y17021300                                          KH00000000496421+000056
ZKH17021319573 SLAVE 2      SALES DATA                     NEXT INVOICE NO.  220154 0607
X KH Slave 2 First invoice 220098 170213 Last invoice 220153 170213 Next invoice 220154 Total number of records 000000211 clbackup completed 19:57:33
