134002000134002               134002               170213KH     1400+00000+KH0000012048+0000012048+000000000+000001689+0000013730+0000000007+I20000000000+0000013730+Z
134002001134002033-000009     134002006003000684212PILL REMINDER 14 DIV   0000001000+00007893+00000+0001T   00007893+0000000941          1400 KW6200               3AZ
134002002134002048-000859     134002006003000423422TORCH 9 LED PL 3XAAA   0000001000+00001753+00000+0001T   00001753+0000000941          1400 KW6305               3AZ
134002003134002046-000010-A   134002006003000438778BATTERIES SIZE:AAA 4PCE0000001000+00002367+00000+0001T   00002367+0000000941          1400 KW6312               3AZ
134002004134002112-116038     134002006009681820246TCS CARRIER BAG MIDI   0000001000+00000035+00000+0001T   00000035+0000000941          1400 KW6090               3AZ
134003000134003               134003               170213KH     1400+00000+KH0000005262+0000005262+000000000+000000737+0000005990+0000000009+I20000000000+0000005990+Z
134003001134003072-020249     134003006003000451241PET BLANKET FLEECE     0000001000+00005262+00000+0001T   00005262+0000001006          1400 KW6870               3AZ
134004000134004               134004               170213KH     1400+00000+KH0000003946+0000003946+000000000+000000553+0000004490+0000000009+I20000000000+0000004490+Z
134004001134004024-000002     134004006001023741899S/BURNER-COVER SILV/BLK0000001000+00003946+00000+0001T   00004385+0008191012          1400 KW6300               3AZ
134005000134005               134005               170213KH     1400+00000+KH0000001788+0000001788+000000000+000000251+0000002030+0000000009+I20000000000+0000002030+Z
134005001134005002-003730     134005006001023761699STRAINER SKIMMER 16cm  0000001000+00001753+00000+0001T   00001753+0000001013          1400 KW6300               3AZ
134005002134005112-116038     134005006009681820246TCS CARRIER BAG MIDI   0000001000+00000035+00000+0001T   00000035+0000001013          1400 KW6090               3AZ
134006000134006               134006               170213KH     1400+00000+KH0000003891+0000003891+000000000+000000546+0000004430+0000000007+I20000000000+0000004430+Z
134006001134006027-783002     134006006001023874658SCOURERS FOAM PACK OF 30000001000+00001490+00000+0001T   00001490+0000001016          1400 KW6212               3AZ
134006002134006027-783006     134006006003000060719SCOURERS SPONGE        0000001000+00000876+00000+0001T   00000876+0000001016          1400 KW6212               3AZ
134006003134006159-080352     134006006916920733314HOOKS 3PCE             0000001000+00001490+00000+0001T   00001490+0000001016          1400 KW6200               3AZ
134006004134006112-116038     134006006009681820246TCS CARRIER BAG MIDI   0000001000+00000035+00000+0001T   00000035+0000001016          1400 KW6090               3AZ
134007000134007               134007               170213KH     1400+00000+KH0000002452+0000002452+000000000+000000345+0000002790+0000000007+I20000000000+0000002790+Z
134007001134007566-000200     134007006003000384174STICKER PUFFY NEON     0000001000+00000876+00000+0001T   00000876+0000001024          1400 KW6130               3AZ
134007002134007566-000858     134007006001023760975STCKRS G/OUTLINE ASSTD 0000002000+00000788+00000+0001T   00000788+0000001024          1400 KW6130               3AZ
134008000134008               134008               170213KH     1400+00000+KH0000008771+0000008771+000000000+000001228+0000009990+0000000009+I20000000000+0000009990+Z
134008001134008039-000799     134008006001023692382CANDLES TEALITE 100PCE 0000001000+00008771+00000+0001T   00008771+0000001041          1400 KW6510               3AZ
134009000134009               134009               170213KH     1400+00000+KH0000008799+0000008799+000000000+000001233+0000010032+0000000000+I40000010032+0000000000+Z
134009001134009019-071606     134009006003000678891PEBBLES 500G 3MM WHITE.0000001000+00001490+00000+0001T   00001490+0000001049          1400 KW6510               3AZ
134009002134009019-071605     134009006003000675418PEBBLES R/STONES 500G  0000001000+00001490+00000+0001T   00001490+0000001049          1400 KW6510               3AZ
134009003134009174-008028     134009006009654960825TRAVEL JARS 4-PACK     0000003000+00001928+00000+0001T   00001928+0000001049          1400 KW6205               3AZ
134009004134009112-116038     134009006009681820246TCS CARRIER BAG MIDI   0000001000+00000035+00000+0001T   00000035+0000001049          1400 KW6090               3AZ
134010000134010               134010               170213KH     1400+00000+KH0000005436+0000005436+000000000+000000762+0000006190+0000000008+I20000000000+0000006190+Z
134010001134010082-000120     134010006003000360727READING GLS STRENGTH:3 0000001000+00004385+00000+0001T   00004385+0000001052          1400 KW6160               3AZ
134010002134010903-002891     134010008935001721376MENTOS GUM WINTERGREEN 0000001000+00001051+00000+0001T   00001051+0000001052          1400 KW6150               3AZ
134011000134011               134011               170213KH     1400+00000+KH0000013591+0000013591+000000000+000001905+0000015490+0000000006+I20000000000+0000015490+Z
134011001134011264-000922     134011000090159250012MAISTO CAR PULL-BACK   0000001000+00006139+00000+0001T   00007016+0008191056          1400 KW6710               3AZ
134011002134011206-000390     134011006003000631438STRAW PL BUILD A STRAW 0000002000+00002630+00000+0001T   00002630+0000001056          1400 KW6321               3AZ
134011003134011466-000020     134011006001023167941FRISBEE 25cm           0000001000+00002192+00000+0001T   00002192+0000001056          1400 KW6785               3AZ
134012000134012               134012               170213KH     1400+00000+KH0000001314+0000001314+000000000+000000184+0000001490+0000000008+I20000000000+0000001490+Z
134012001134012046-000012     134012006904708013062BATTERIES AA  CARD-OF-40000001000+00001314+00000+0001T   00001314+0000001057          1400 KW6312               3AZ
134013000134013               134013               170213KH     1400+00000+KH0000002665+0000002665+000000000+000000374+0000003030+0000000009+I20000000000+0000003030+Z
134013001134013304-000720     134013006001023843050F/BUNCH ROSE 6-HEAD AST0000001000+00002630+00000+0001T   00002630+0000001059          1400 KW6510               3AZ
134013002134013112-116038     134013006009681820246TCS CARRIER BAG MIDI   0000001000+00000035+00000+0001T   00000035+0000001059          1400 KW6090               3AZ
134014000134014               134014               170213KH     1400+00000+KH0000014515+0000014515+000000000+000002033+0000016540+0000000008+I20000000000+0000016540+Z
134014001134014003-009405     134014006001023753298ORN PLANTER-EDGE-CATCHE0000001000+00003507+00000+0001T   00003507+0000001110          1400 KW6505               3AZ
134014002134014077-000470     134014006003000330171G-BAG DESGN SML 11X14CM0000001000+00001314+00000+0001T   00001314+0000001110          1400 KW6112               3AZ
134014003134014261-003899     134014006003000398836GUN CROSSBOW SET 11PCE 0000001000+00006139+00000+0001T   00006139+0000001110          1400 KW6710               3AZ
134014004134014075-000346     134014006003000102853PURSE SILICONE WITH ZIP0000001000+00003507+00000+0001T   00003507+0000001110          1400 KW6160               3AZ
134014005134014112-116069     134014006009681820277TCS CARRIER BAG JUMBO  0000001000+00000048+00000+0001T   00000048+0000001110          1400 KW6090               3AZ
134015000134015               134015               170213KH     1400+00000+KH0000013579+0000013579+000000000+000001905+0000015484+0000000000+I40000015484+0000000000+Z
134015001134015903-000200     134015006009826020234SWT CHOC RP CHOCO 23G  0000001000+00000788+00000+0001T   00000788+0000001116          1400 KW61502IC            3AZ
134015002134015077-000310     134015006001023608635GIFT-BAG 18X23CM GLOSS 0000001000+00001314+00000+0001T   00001314+0000001116          1400 KW6112               3AZ
134015003134015077-000452     134015006003000284986G/BAG METALLIC MED EMB 0000001000+00001490+00000+0001T   00001490+0000001116          1400 KW6112               3AZ
134015004134015077-000310     134015006001023608635GIFT-BAG 18X23CM GLOSS 0000003000+00001314+00000+0001T   00001314+0000001116          1400 KW6112               3AZ
134015005134015566-000028     134015006003000265541STICKER BK ASSTD 250PCE0000001000+00001753+00000+0001T   00001753+0000001116          1400 KW6130               3AZ
134015006134015566-000359     134015006003000582709STICKER BOOK LOVE SPARK0000001000+00002192+00000+0001T   00002192+0000001116          1400 KW6130               3AZ
134015008134015903-000155     134015006009803374435SWT LOLLY I LUV U HEART0000004000+00000525+00000+0001T   00000525+0000001116          1400 KW6150               3AZ
134016000134016               134016               170213KH     1400+00000+KH0000001753+0000001753+000000000+000000246+0000001990+0000000009+I20000000000+0000001990+Z
134016001134016077-000299-A   134016006003000670888GIFT-BAG PAPER JMB LOVE0000001000+00001753+00000+0001T   00001753+0000001117          1400 KW6112               3AZ
134017000134017               134017               170213KH     1400+00000+KH0000004767+0000004767+000000000+000000669+0000005436+0000000000+I40000005436+0000000000+Z
134017001134017036-000605     134017006001023158611WASHING-PEGS WDN PCK-240000002000+00001490+00000+0001T   00001490+0000001148          1400 KW6212               3AZ
134017002134017366-007601     134017006003000655472DRESS UP MASK THEATRICA0000002000+00000876+00000+0001T   00000876+0000001148          1400 KW6131               3AZ
134017003134017112-116038     134017006009681820246TCS CARRIER BAG MIDI   0000001000+00000035+00000+0001T   00000035+0000001148          1400 KW6090               3AZ
134018000134018               134018               170213KH     1400+00000+KH0000002192+0000002192+000000000+000000307+0000002490+0000000009+I20000000000+0000002490+Z
134018001134018028-085274     134018006001023641571BBQ LIGHTER         H&L0000001000+00002192+00000+0001T   00002192+0000001149          1400 KW6305               3AZ
134019000134019               134019               170213KH     1400+00000+KH0000001753+0000001753+000000000+000000246+0000001990+0000000009+I20000000000+0000001990+Z
134019001134019566-000007     134019006001023761187S/BOOK SUPER VALUE     0000001000+00001753+00000+0001T   00001753+0000001238          1400 KW6130               3AZ
134020000134020               134020               170213KH     1400+00000+KH0000000876+0000000876+000000000+000000123+0000000990+0000000009+I20000000000+0000000990+Z
134020001134020089-000192-A   134020006001023901774KEY-CHAIN ACRYLIC      0000001000+00000876+00000+0001T   00000876+0000001241          1400 KW6205               3AZ
134021000134021               134021               170213KH     1400+00000+KH0000002630+0000002630+000000000+000000369+0000002999+0000000000+I40000002999+0000000000+Z
134021001134021018-000129     134021006001023403353MUG OCC. LOVE V-SHAPE  0000001000+00002630+00000+0001T   00002630+0000001245          1400 KW6515               3AZ
134022000134022               134022               170213KH     1400+00000+KH0000001435+0000001435+000000000+000000201+0000001636+0000000000+I40000001636+0000000000+Z
134022001134022018-000177     134022006001023797513MUG MINI LOVE ASSTD    0000002000+00000700+00000+0001T   00000700+0000001247          1400 KW6515               3AZ
134022002134022112-116038     134022006009681820246TCS CARRIER BAG MIDI   0000001000+00000035+00000+0001T   00000035+0000001247          1400 KW6090               3AZ
134023000134023               134023               170213KH     1400+00000+KH0000000876+0000000876+000000000+000000123+0000000990+0000000009+I20000000000+0000000990+Z
134023001134023903-003075     134023003800065783125SWT CHOC FAFL WAFER 52g0000001000+00000876+00000+0001T   00000876+0000001248          1400 KW6150               3AZ
134024000134024               134024               170213KH     1400+00000+KH0000004997+0000004997+000000000+000000700+0000005690+0000000007+I20000000000+0000005690+Z
134024001134024174-008024     134024006009654960368TRAVEL BOTTLES 2-PACK  0000001000+00001928+00000+0001T   00001928+0000001250          1400 KW6205               3AZ
134024002134024174-008026     134024006009654960429TRAVEL BOTTLES 2-PACK  0000001000+00003069+00000+0001T   00003069+0000001250          1400 KW6205               3AZ
134025000134025               134025               170213KH     1400+00000+KH0000006137+0000006137+000000000+000000860+0000006990+0000000007+I20000000000+0000006990+Z
134025001134025306-000027     134025006009654960900COTTON WOOL PADS 2-PACK0000001000+00003507+00000+0001T   00003507+0000001251          1400 KW6200               3AZ
134025002134025033-000140     134025006003000676972HAIR BRUSH BRIGHT      0000001000+00002630+00000+0001T   00002630+0000001251          1400 KW6200               3AZ
134026000134026               134026               170213KH     1400+00000+KH0000000437+0000000437+000000000+000000062+0000000490+0000000009+I20000000000+0000000490+Z
134026001134026080-000133-A   134026006003000647019MINI VALENTINES CARD   0000001000+00000437+00000+0001T   00000437+0000001301          1400 KW6112               3AZ
134027000134027               134027               170213KH     1400+00000+KH0000002452+0000002452+000000000+000000344+0000002790+0000000006+I20000000000+0000002790+Z
134027001134027006-001000     134027006003000093779HELIUM BALLOON FILL    0000004000+00000613+00000+0001T   00000613+0000001318          1400 KW6131               3AZ
134028000134028               134028               170213KH     1400+00000+KH0000017444+0000017444+000000000+000002446+0000019890+0000000000+I40000019890+0000000000+Z
134028001134028467-000005     134028006001023584472NET FISHING 45-50 SHORT0000001000+00001753+00000+0001T   00001753+0000001335          1400 KW6785               3AZ
134028002134028077-000457     134028006003000285662G/BAG METALLIC JMB SOL 0000002000+00001753+00000+0001T   00001753+0000001335          1400 KW6112               3AZ
134028003134028903-000095     134028006001704011495SWT SPECKLED-EGGS 100G 0000001000+00002104+00000+0001T   00002104+0000001335          1400 KW6150               3AZ
134028004134028039-000319-9   134028006003000443345B/CANDLES LRG NUMBER-9 0000001000+00000876+00000+0001T   00000876+0000001335          1400 KW6510               3AZ
134028005134028077-000302     134028008010410010195GIFT-BAG 18X23CM E/D   0000001000+00000876+00000+0001T   00000876+0000001335          1400 KW6112               3AZ
134028006134028567-011523     134028006003000667031BK COLOURING THERAPY   0000001000+00003507+00000+0001T   00003507+0000001335          1400 KW6757               3AZ
134028007134028080-000136     134028006003000589036CARD & ENV GIANT MALE  0000001000+00002630+00000+0001T   00002630+0000001335          1400 KW6112               3AZ
134028008134028080-000127     134028006003000424351VALENTINES DAY 36x24CM 0000001000+00002192+00000+0001T   00002192+0000001335          1400 KW6112               3AZ
134029000134029               134029               170213KH     1400+00000+KH0000004385+0000004385+000000000+000000614+0000004990+0000000009+I20000000000+0000004990+Z
134029001134029031-005921     134029006001023667847P/FRAME PL PLAIN       0000001000+00004385+00000+0001T   00004385+0000001505          1400 KW6510               3AZ
134030000134030               134030               170213KH     1400+00000+KH0000004734+0000004734+000000000+000000663+0000005390+0000000007+I20000000000+0000005390+Z
134030001134030018-000136     134030006001023659026MUG OCC LOVE W/PLUSH   0000001000+00003507+00000+0001T   00003507+0000001609          1400 KW6515               3AZ
134030002134030077-000322     134030006001023677532GIFT-BAG 18X23CM E/D FL0000001000+00001227+00000+0001T   00001227+0000001609          1400 KW6112               3AZ
134031000134031               134031               170213KH     1400+00000+KH0000017660+0000017660+000000000+000002474+0000020130+0000000004+I20000000000+0000020130+Z
134031001134031567-075497     134031009780799371895BK NOVEL ROMANCE AFR   0000001000+00006139+00000+0001T   00006139+0000001613          1400 KW6757               3AZ
134031002134031048-000760     134031006003000041404LANTERN LED 3FNCTN     0000001000+00006665+00000+0001T   00006665+0000001613          1400 KW6305               3AZ
134031003134031047-000014-A   134031006001023904072ADAPTOR 16AX5ARNDX5A2PN0000001000+00003507+00000+0001T   00003507+0000001613          1400 KW6880               3AZ
134031004134031112-116038     134031006009681820246TCS CARRIER BAG MIDI   0000001000+00000035+00000+0001T   00000035+0000001613          1400 KW6090               3AZ
134031005134031046-000012     134031006904708013062BATTERIES AA  CARD-OF-40000001000+00001314+00000+0001T   00001314+0000001613          1400 KW6312               3AZ
134032000134032               134032               170213KH     1400+00000+KH0000001051+0000001051+000000000+000000148+0000001190+0000000009+I20000000000+0000001190+Z
134032001134032033-000125     134032006009654960658COMBS GENTS MINI 2PC   0000001000+00001051+00000+0001T   00001051+0000001638          1400 KW6200               3AZ
134033000134033               134033               170213KH     1400+00000+KH0000001613+0000001613+000000000+000000226+0000001830+0000000009+I20000000000+0000001830+Z
134033001134033077-000303     134033006001023593757GIFT-BAG PAPER MED     0000001000+00001578+00000+0001T   00001578+0000001644          1400 KW6112               3AZ
134033002134033112-116038     134033006009681820246TCS CARRIER BAG MIDI   0000001000+00000035+00000+0001T   00000035+0000001644          1400 KW6090               3AZ
134034000134034               134034               170213KH     1400+00000+KH0000001525+0000001525+000000000+000000214+0000001730+0000000009+I20000000000+0000001730+Z
134034001134034077-000304     134034006001023483232GIFT-BAG 25X32CM E/DAY 0000001000+00001490+00000+0001T   00001490+0000001718          1400 KW6112               3AZ
134034002134034112-116038     134034006009681820246TCS CARRIER BAG MIDI   0000001000+00000035+00000+0001T   00000035+0000001718          1400 KW6090               3AZ
134035000134035               134035               170213KH     1400+00000+KH0000009937+0000009937+000000000+000001393+0000011330+0000000000+I40000011330+0000000000+Z
134035001134035112-116038     134035006009681820246TCS CARRIER BAG MIDI   0000001000+00000035+00000+0001T   00000035+0000001720          1400 KW6090               3AZ
134035002134035006-000102     134035006001023806819BALLOONS W/BOMBS 50PCE 0000002000+00001490+00000+0001T   00001490+0000001720          1400 KW6131               3AZ
134035003134035304-001011     134035006001023806727FLWR ROSE RED W/BEAR   0000002000+00000613+00000+0001T   00000788+0006471720          1400 KW6510               3AZ
134035004134035077-000310     134035006001023608635GIFT-BAG 18X23CM GLOSS 0000002000+00001314+00000+0001T   00001314+0000001720          1400 KW6112               3AZ
134035005134035566-001234     134035006003000217793STICKERS LASER ASSTD   0000001000+00001578+00000+0001T   00001578+0000001720          1400 KW6130               3AZ
134035006134035077-000452     134035006003000284986G/BAG METALLIC MED EMB 0000001000+00001490+00000+0001T   00001490+0000001720          1400 KW6112               3AZ
134036000134036               134036               170213KH     1400+00000+KH0000037214+0000037214+000000000+000005218+0000042432+0000000000+I40000042432+0000000000+Z
134036001134036040-000208     134036006003000673599C/HOLDER GLS COL. 5.5CM0000011000+00000876+00000+0001T   00000876+0000001727          1400 KW6510               3AZ
134036002134036001-000001     134036006001023507266SHOT-GLASS 25ml        0000002000+00000393+00000+0001T   00000393+0000001727          1400 KW6515               3AZ
134036003134036039-082852     134036006008766082852C/SET 4PC MINI PILLARS 0000003000+00005262+00000+0001T   00005262+0000001727          1400 KW6510               3AZ
134036004134036018-000177     134036006001023797513MUG MINI LOVE ASSTD    0000001000+00000700+00000+0001T   00000700+0000001727          1400 KW6515               3AZ
134036005134036466-009004     134036006001023189288BEACH-BAT-SET W/BALL   0000001000+00005262+00000+0001T   00005262+0000001727          1400 KW6785               3AZ
134036006134036112-116069     134036006009681820277TCS CARRIER BAG JUMBO  0000001000+00000048+00000+0001T   00000048+0000001727          1400 KW6090               3AZ
134036007134036027-783002     134036006001023874658SCOURERS FOAM PACK OF 30000001000+00001490+00000+0001T   00001490+0000001727          1400 KW6212               3AZ
134036008134036018-000170     134036006001023775528MUG OCC. LOVE 2PC MINI 0000001000+00002192+00000+0001T   00002192+0000001727          1400 KW6515               3AZ
134036009134036006-000167-C   134036006003000516971BALLOONS PINK METALLIC 0000001000+00001314+00000+0001T   00001314+0000001727          1400 KW6131               3AZ
134037000134037               134037               170213KH     1400+00000+KH0000001874+0000001874+000000000+000000263+0000002130+0000000007+I20000000000+0000002130+Z
134037001134037304-001011     134037006001023806727FLWR ROSE RED W/BEAR   0000003000+00000613+00000+0001T   00000788+0006471731          1400 KW6510               3AZ
134037002134037112-116038     134037006009681820246TCS CARRIER BAG MIDI   0000001000+00000035+00000+0001T   00000035+0000001731          1400 KW6090               3AZ
A17021300                                          09395384KHSLAVE 3                       KW62IC
A17021301                                          09453847KHSLAVE 3                       KW62IC
B13401500                                          170213KH903-000200     11154881SLAVE 3     KW62IC0000003000+0000001000+0000000000000+
C13401500                                          170213KH903-000183     11153752SLAVE 3     KW62IC0000000000+0000000000+0070000002000+
M17021304                              IT DEPT     KHSHELLY BEACH KH ATT BASIL                                                                       THE LAST TRANS FOR THIS SLASVE WAS 134037
M17021391                              CASH        KHSLAVE 3                       Z-REPORT No.   611TOTAL (Sales - Refunds)           2572.29       CASH TO BE BANKED                 1479.90       DEBIT CARDS                          0.00       CREDIT CARDS                      1092.39       Z-READING                         2572.29       AIRTIME DEBIT CARD SALES             0.00       AIRTIME CARD SALES                   0.00       OVERS/UNDERS                         0.00       AIRTIME CASH SALES                   0.00       GIFT CARDS                           0.00       GIFT CARD CASH SALES                 0.00       T O T A L  CASH PAYOUTS              0.00                                                                                                                                                                                                                                                                                                                                                      Z
M17021392                              CASH        KHABSENT                                                                                                                                                                                          ANNUAL LEAVE                                                                                                                                                                                    DAY OFF                                                                                                                                                                                         COMMENTS                                                                                                                                                                                                                                                                                                                                                                                       Z
Y17021300                                          KH00000000225799+000036
ZKH17021319573 SLAVE 3      SALES DATA                     NEXT INVOICE NO.  134038 0611
X KH Slave 3 First invoice 134002 170213 Last invoice 134037 170213 Next invoice 134038 Total number of records 000000139 clbackup completed 19:57:36
