120033000120033               120033               170213KK     1400+00000+KK0000009851+0000009851+000000000+000001381+0000011230+0000000002+I20000000000+0000011230+Z
120033001120033112-116038     120033006009681820246TCS CARRIER BAG MIDI   0000001000+00000035+00000+0001T   00000035+0000000851          1400 JU3090               1AZ
120033002120033251-000040     120033006001023515865SEALTAPE CLEAR 48mmx50m0000008000+00001227+00000+0001T   00001227+0000000851          1400 JU3810               1AZ
120034000120034               120034               170213KK     1400+00000+KK0000001753+0000001753+000000000+000000246+0000001990+0000000009+I20000000000+0000001990+Z
120034001120034007-000551     120034006001023848079NOTE-PAD SHOP-LIST ASST0000001000+00001753+00000+0001T   00001753+0000000852          1400 JU3130               1AZ
120035000120035               120035               170213KK     1400+00000+KK0000009344+0000009344+000000000+000001325+0000010669+0000000000+I40000010669+0000000000+Z
120035001120035112-116038     120035006009681820246TCS CARRIER BAG MIDI   0000001000+00000035+00000+0001T   00000035+0000000857          1400 JU3090               1AZ
120035002120035903-000183     120035006003000451043SWT LB HEART LOLLY     0000017000+00000393+00000+0001T   00000393+0000000857          1400 JU3150               1AZ
120035003120035903-000194     120035006009826020616SWT CHOC RP LOLLY 25G  0000002000+00001314+00000+0001T   00001314+0000000857          1400 JU3150               1AZ
120036000120036               120036               170213KK     1400+00000+KK0000016336+0000016336+000000000+000002293+0000018629+0000000000+I40000018629+0000000000+Z
120036001120036030-000040     120036006003000396375PLAQUE WDN HANGING HRTS0000002000+00003069+00000+0001T   00003069+0000000900          1400 JU3505               1AZ
120036002120036039-001023     120036006003000466337CANDLE TEA-LITE METALIC0000001000+00001753+00000+0001T   00001753+0000000900          1400 JU3510               1AZ
120036003120036112-116038     120036006009681820246TCS CARRIER BAG MIDI   0000001000+00000035+00000+0001T   00000035+0000000900          1400 JU3090               1AZ
120036004120036903-000155     120036006009803374435SWT LOLLY I LUV U HEART0000006000+00000525+00000+0001T   00000525+0000000900          1400 JU3150               1AZ
120036005120036077-000512     120036006003000590223GIFT-BAG DESIGNER LRG  0000001000+00002630+00000+0001T   00002630+0000000900          1400 JU3112               1AZ
120036006120036079-013032-D   120036006003000389643RIBBONS                0000001000+00002630+00000+0001T   00002630+0000000900          1400 JU3130               1AZ
120037000120037               120037               170213KK     1400+00000+KK0000003507+0000003507+000000000+000000491+0000003998+0000000000+I40000003998+0000000000+Z
120037001120037031-000923     120037006001023669933P/FRAME BLK W/WORDS    0000001000+00003507+00000+0001T   00003507+0000000902          1400 JU3510               1AZ
120038000120038               120038               170213KK     1400+00000+KK0000001753+0000001753+000000000+000000246+0000001990+0000000009+I20000000000+0000001990+Z
120038001120038024-000038     120038006001023477026MEASURING-JUG 1L (4CUP)0000001000+00001753+00000+0001T   00001753+0000000904          1400 JU3300               1AZ
120039000120039               120039               170213KK     1400+00000+KK0000003945+0000003945+000000000+000000553+0000004490+0000000008+I20000000000+0000004490+Z
120039001120039080-000101     120039006003000236732CARD&ENVLPE FEMALE     0000001000+00001753+00000+0001T   00001753+0000000914          1400 JU3112               1AZ
120039002120039077-000918     120039006003000413690G/WRAP 700mmx2m PATTERN0000001000+00002192+00000+0001T   00002192+0000000914          1400 JU3112               1AZ
120040000120040               120040               170213KK     1400+00000+KK0000000876+0000000876+000000000+000000123+0000000990+0000000009+I20000000000+0000000990+Z
120040001120040071-005213     120040006001023690371CELLOTAPE 12mmx33m     0000001000+00000876+00000+0001T   00000876+0000000915          1400 JU3130               1AZ
120041000120041               120041               170213KK     1400+00000+KK0000001753+0000001753+000000000+000000246+0000001990+0000000009+I20000000000+0000001990+Z
120041001120041200-003024     120041006001023657299REFUSE BAGS 20PCE BLACK0000001000+00001753+00000+0001T   00001753+0000000923          1400 JU3214               1AZ
120042000120042               120042               170213KK     1400+00000+KK0000017670+0000017670+000000000+000002477+0000020147+0000000000+I40000020147+0000000000+Z
120042001120042007-010505     120042006003000670406BLACKBOARD VINYL       0000001000+00004385+00000+0001T   00004385+0000000925          1400 JU3130               1AZ
120042002120042027-000092     120042006003000365739BLIND CLEANER MICROFIBR0000001000+00002630+00000+0001T   00002630+0000000925          1400 JU3212               1AZ
120042003120042142-063201     120042006001023112538GARDEN-GLOVES POLKA-DOT0000002000+00002192+00000+0001T   00002192+0000000925          1400 JU3810               1AZ
120042004120042079-000010     120042006001023173409P/CRAYONS 12-COL SHORT 0000001000+00001227+00000+0001T   00001227+0000000925          1400 JU3130               1AZ
120042005120042079-000341     120042006920705495519FELT-TIP PENS 12PCE    0000001000+00001753+00000+0001T   00001753+0000000925          1400 JU3130               1AZ
120042006120042079-000512     120042006001023635853CRAYONS WAX 12-COLOUR  0000001000+00001490+00000+0001T   00001490+0000000925          1400 JU3130               1AZ
120042007120042007-000184     120042006003000135424NOTEBOOK               0000001000+00001753+00000+0001T   00001753+0000000925          1400 JU3130               1AZ
120042008120042112-116069     120042006009681820277TCS CARRIER BAG JUMBO  0000001000+00000048+00000+0001T   00000048+0000000925          1400 JU3090               1AZ
120043000120043               120043               170213KK     1400+00000+KK0000011437+0000011437+000000000+000001602+0000013039+0000000000+I40000013039+0000000000+Z
120043001120043004-079100     120043006003000604913USB POWER BANK 2400MAH 0000001000+00011402+00000+0001T   00012279+0008190938          1400 JU3310               1AZ
120043002120043112-116038     120043006009681820246TCS CARRIER BAG MIDI   0000001000+00000035+00000+0001T   00000035+0000000938          1400 JU3090               1AZ
120044000120044               120044               170213KK     1400+00000+KK0000002488+0000002488+000000000+000000349+0000002830+0000000007+I20000000000+0000002830+Z
120044001120044903-000120     120044006002099001665SWEET GS ZILLIONS 50g  0000001000+00000700+00000+0001T   00000700+0000000940          1400 JU3150               1AZ
120044002120044084-091590     120044006003000092864FOOT FILE 17cm         0000001000+00001753+00000+0001T   00001753+0000000940          1400 JU3200               1AZ
120044003120044112-116038     120044006009681820246TCS CARRIER BAG MIDI   0000001000+00000035+00000+0001T   00000035+0000000940          1400 JU3090               1AZ
120045000120045               120045               170213KK     1400+00000+KK0000010556+0000010556+000000000+000001478+0000012034+0000000000+I40000012034+0000000000+Z
120045001120045567-075490     120045009780799367683BK NOVEL ROMANCE AFR   0000003000+00003507+00000+0001T   00003507+0000000944          1400 JU3757               1AZ
120045002120045112-116038     120045006009681820246TCS CARRIER BAG MIDI   0000001000+00000035+00000+0001T   00000035+0000000944          1400 JU3090               1AZ
120046000120046               120046               170213KK     1400+00000+KK0000000832+0000000832+000000000+000000117+0000000940+0000000009+I20000000000+0000000940+Z
120046001120046159-000150-B   120046006003000058440SOAP-BOX PL ASSORTED   0000001000+00000832+00000+0001T   00000832+0000000959          1400 JU3200               1AZ
120047000120047               120047               170213KK     1400+00000+KK0000001227+0000001227+000000000+000000172+0000001390+0000000009+I20000000000+0000001390+Z
120047001120047133-000030     120047006001023755414KITCHEN-SWAB 30cm ASSTD0000001000+00001227+00000+0001T   00001227+0000001000          1400 JU3212               1AZ
120048000120048               120048               170213KK     1400+00000+KK0000012407+0000012407+000000000+000001740+0000014147+0000000000+I40000014147+0000000000+Z
120048001120048027-000409     120048006001023731012SCRUBBING-BRUSH 15,5cm 0000001000+00001753+00000+0001T   00001753+0000001011          1400 JU3212               1AZ
120048002120048903-000138     120048006002099004314SWT GS WINE GUMS 60G   0000001000+00000788+00000+0001T   00000788+0000001011          1400 JU3150               1AZ
120048003120048903-000221     120048006001704007382SWT EENY-MEENY-MOS 60G 0000001000+00000876+00000+0001T   00000876+0000001011          1400 JU3150               1AZ
120048004120048903-002852     120048000000087108040MENTOS ROLL SPEARMINT  0000001000+00001051+00000+0001T   00001051+0000001011          1400 JU3150               1AZ
120048005120048104-000033     120048006003000615070BASKET PL 30x20x11cm   0000002000+00002192+00000+0001T   00002192+0000001011          1400 JU3210               1AZ
120048006120048104-000025     120048006001023780287BASKET PL 28x17x11cm   0000001000+00003507+00000+0001T   00003507+0000001011          1400 JU3210               1AZ
120048007120048112-116069     120048006009681820277TCS CARRIER BAG JUMBO  0000001000+00000048+00000+0001T   00000048+0000001011          1400 JU3090               1AZ
120049000120049               120049               170213KK     1400+00000+KK0000001227+0000001227+000000000+000000172+0000001390+0000000009+I20000000000+0000001390+Z
120049001120049033-001400     120049006009654960474HAIR-CURLERS 10PCE SML 0000001000+00001227+00000+0001T   00001227+0000001018          1400 JU3200               1AZ
120050000120050               120050               170213KK     1400+00000+KK0000008943+0000008943+000000000+000001253+0000010196+0000000000+I40000010196+0000000000+Z
120050001120050018-050000     120050006003000412679MUG OCC LOVE TWIN BEAR 0000001000+00006139+00000+0001T   00006139+0000001021          1400 JU3515               1AZ
120050002120050903-000844     120050005010478432567SWT CANDY DL LUV HEARTS0000001000+00001314+00000+0001T   00001314+0000001021          1400 JU3150               1AZ
120050003120050077-000299     120050006003000395576G/BAG 32x25cm LRG LOVE 0000001000+00001490+00000+0001T   00001490+0000001021          1400 JU3112               1AZ
120051000120051               120051               170213KK     1400+00000+KK0000026555+0000026555+000000000+000003725+0000030280+0000000000+I40000030280+0000000000+Z
120051001120051112-116069     120051006009681820277TCS CARRIER BAG JUMBO  0000002000+00000048+00000+0001T   00000048+0000001101          1400 JU3090               1AZ
120051002120051304-001011     120051006001023806727FLWR ROSE RED W/BEAR   0000025000+00000613+00000+0001T   00000788+0006471101          1400 JU3510               1AZ
120051003120051071-081091     120051006001151010287STAED/GENKEM ALL-STICK 0000001000+00001227+00000+0001T   00001227+0000001101          1400 JU3130               1AZ
120051004120051077-000270     120051006003000395453GIFT-BAG PPR JMB 33X45 0000001000+00002630+00000+0001T   00002630+0000001101          1400 JU3112               1AZ
120051005120051077-000235     120051006003000160211GIFT-RIBBON ROLL METALC0000001000+00002630+00000+0001T   00002630+0000001101          1400 JU3112               1AZ
120051006120051089-060027     120051006003000245871KEY-CHAIN HEART 6X6cm  0000001000+00003069+00000+0001T   00003069+0000001101          1400 JU3205               1AZ
120051007120051018-000127     120051006001023380289MUG OCC STRAIGHT LOVE  0000001000+00001578+00000+0001T   00001753+0006471101          1400 JU3515               1AZ
120052000120052               120052               170213KK     1400+00000+KK0000003102+0000003102+000000000+000000435+0000003530+0000000007+I20000000000+0000003530+Z
120052001120052903-000194     120052006009826020616SWT CHOC RP LOLLY 25G  0000001000+00001314+00000+0001T   00001314+0000001121          1400 JU3150               1AZ
120052002120052006-000800     120052006001023902801HAT CABARET 14x18cm    0000001000+00001753+00000+0001T   00001753+0000001121          1400 JU3131               1AZ
120052003120052112-116038     120052006009681820246TCS CARRIER BAG MIDI   0000001000+00000035+00000+0001T   00000035+0000001121          1400 JU3090               1AZ
120053000120053               120053               170213KK     1400+00000+KK0000004380+0000004380+000000000+000000615+0000004990+0000000005+I20000000000+0000004990+Z
120053001120053077-000150-D   120053006003000054343GIFT-WRAP CELLPHANE CLR0000005000+00000876+00000+0001T   00000876+0000001128          1400 JU3112               1AZ
120054000120054               120054               170213KK     1400+00000+KK0000001314+0000001314+000000000+000000184+0000001490+0000000008+I20000000000+0000001490+Z
120054001120054903-000194     120054006009826020616SWT CHOC RP LOLLY 25G  0000001000+00001314+00000+0001T   00001314+0000001140          1400 JU3150               1AZ
120055000120055               120055               170213KK     1400+00000+KK0000000700+0000000700+000000000+000000098+0000000790+0000000008+I20000000000+0000000790+Z
120055001120055018-000177     120055006001023797513MUG MINI LOVE ASSTD    0000001000+00000700+00000+0001T   00000700+0000001141          1400 JU3515               1AZ
120056000120056               120056               170213KK     1400+00000+KK0000001137+0000001137+000000000+000000160+0000001290+0000000007+I20000000000+0000001290+Z
120056001120056903-000151     120056006009803374411SWT SML RND R/BOW LOLLY0000001000+00000525+00000+0001T   00000525+0000001156          1400 JU3150               1AZ
120056002120056079-009700-G   120056006003000545957PAPER SIRIO A4 LIME COL0000001000+00000306+00000+0001T   00000306+0000001156          1400 JU3130               1AZ
120056003120056079-009700-F   120056006003000545872PAPER SIRIO A4 TURQ COL0000001000+00000306+00000+0001T   00000306+0000001156          1400 JU3130               1AZ
120057000120057               120057               170213KK     1400+00000+KK0000002630+0000002630+000000000+000000369+0000002990+0000000009+I20000000000+0000002990+Z
120057001120057466-072725     120057006001023622532YO-YO PL               0000001000+00002630+00000+0001T   00002630+0000001208          1400 JU3785               1AZ
120058000120058               120058               170213KK     1400+00000+KK0000003507+0000003507+000000000+000000491+0000003990+0000000008+I20000000000+0000003990+Z
120058001120058056-335431     120058006001023571267CHAMOIS SYNTHETIC W/BOX0000001000+00003507+00000+0001T   00003507+0000001209          1400 JU3860               1AZ
120059000120059               120059               170213KK     1400+00000+KK0000000437+0000000437+000000000+000000062+0000000490+0000000009+I20000000000+0000000490+Z
120059001120059080-000133     120059006003000535613CARD&ENV MINI ASTD DSGN0000001000+00000437+00000+0001T   00000437+0000001210          1400 JU3112               1AZ
120060000120060               120060               170213KK     1400+00000+KK0000004120+0000004120+000000000+000000578+0000004698+0000000000+I40000004698+0000000000+Z
120060001120060077-000251     120060006003000639106GIFT-DECOR RIBBON      0000001000+00002630+00000+0001T   00002630+0000001215          1400 JU3112               1AZ
120060002120060006-000094     120060006003000611089PARTY BANNER BBY SHOWER0000001000+00001490+00000+0001T   00001490+0000001215          1400 JU3131               1AZ
120061000120061               120061               170213KK     1400+00000+KK0000005308+0000005308+000000000+000000744+0000006050+0000000002+I20000000000+0000006050+Z
120061001120061077-000934     120061006003000409921G/WRAP 700mmx5m BIRTHDA0000001000+00003507+00000+0001T   00003507+0000001216          1400 JU3112               1AZ
120061002120061077-000308     120061006001023595812GIFT-BAG 33X45CM E/DAY 0000001000+00001753+00000+0001T   00001753+0000001216          1400 JU3112               1AZ
120061003120061112-116069     120061006009681820277TCS CARRIER BAG JUMBO  0000001000+00000048+00000+0001T   00000048+0000001216          1400 JU3090               1AZ
120062000120062               120062               170213KK     1400+00000+KK0000001490+0000001490+000000000+000000209+0000001690+0000000009+I20000000000+0000001690+Z
120062001120062466-001801     120062006001023343482BALLS TABLE-TENNIS BOX60000001000+00001490+00000+0001T   00001490+0000001217          1400 JU3785               1AZ
120063000120063               120063               170213KK     1400+00000+KK0000014067+0000014067+000000000+000001971+0000016038+0000000000+I40000016038+0000000000+Z
120063001120063024-000123     120063006001023902368N/STICK 6 L/PAN MINI   0000002000+00007016+00000+0001T   00008771+0008121221          1400 JU3300               1AZ
120063002120063112-116038     120063006009681820246TCS CARRIER BAG MIDI   0000001000+00000035+00000+0001T   00000035+0000001221          1400 JU3090               1AZ
120064000120064               120064               170213KK     1400+00000+KK0000004385+0000004385+000000000+000000614+0000004999+0000000000+I40000004999+0000000000+Z
120064001120064368-000001     120064006003000097982Plush Bear 25cm        0000001000+00004385+00000+0001T   00004385+0000001223          1400 JU3745               1AZ
120065000120065               120065               170213KK     1400+00000+KK0000002664+0000002664+000000000+000000374+0000003030+0000000008+I20000000000+0000003030+Z
120065001120065903-002851     120065000000087108538MENTOS ROLL STRAWBERRY 0000001000+00001051+00000+0001T   00001051+0000001229          1400 JU3150               1AZ
120065002120065077-000303     120065006001023593757GIFT-BAG PAPER MED     0000001000+00001578+00000+0001T   00001578+0000001229          1400 JU3112               1AZ
120065003120065112-116038     120065006009681820246TCS CARRIER BAG MIDI   0000001000+00000035+00000+0001T   00000035+0000001229          1400 JU3090               1AZ
120066000120066               120066               170213KK     1400+00000+KK0000001314+0000001314+000000000+000000184+0000001498+0000000000+I40000001498+0000000000+Z
120066001120066046-000012     120066006904708013062BATTERIES AA  CARD-OF-40000001000+00001314+00000+0001T   00001314+0000001233          1400 JU3312               1AZ
120067000120067               120067               170213KK     1400+00000+KK0000010565+0000010565+000000000+000001483+0000012040+0000000008+I20000000000+0000012040+Z
120067001120067077-000010-C   120067006001023123879CREPE-PAPER RED        0000001000+00000788+00000+0001T   00000788+0000001240          1400 JU3112               1AZ
120067002120067080-000127     120067006003000424351VALENTINES DAY 36x24CM 0000001000+00002192+00000+0001T   00002192+0000001240          1400 JU3112               1AZ
120067003120067077-000239     120067006003000160419GIFT-RIBBON ROLL PEARL 0000001000+00001753+00000+0001T   00001753+0000001240          1400 JU3112               1AZ
120067004120067079-006496     120067006003000160105GLITTER SHAKERS        0000001000+00001753+00000+0001T   00001753+0000001240          1400 JU3130               1AZ
120067005120067089-000030     120067006003000575671K/CHAIN LOVE MTL ASSTD 0000002000+00001753+00000+0001T   00001753+0000001240          1400 JU3205               1AZ
120067006120067903-000155     120067006009803374435SWT LOLLY I LUV U HEART0000001000+00000525+00000+0001T   00000525+0000001240          1400 JU3150               1AZ
120067007120067112-116069     120067006009681820277TCS CARRIER BAG JUMBO  0000001000+00000048+00000+0001T   00000048+0000001240          1400 JU3090               1AZ
120068000120068               120068               170213KK     1400+00000+KK0000002452+0000002452+000000000+000000345+0000002790+0000000007+I20000000000+0000002790+Z
120068001120068080-000133-A   120068006003000647019MINI VALENTINES CARD   0000002000+00000437+00000+0001T   00000437+0000001248          1400 JU3112               1AZ
120068002120068080-000124     120068006003000297733CARD & ENV VALENTINES  0000001000+00001578+00000+0001T   00001578+0000001248          1400 JU3112               1AZ
120069000120069               120069               170213KK     1400+00000+KK0000015868+0000015868+000000000+000002224+0000018092+0000000000+I40000018092+0000000000+Z
120069001120069077-000386     120069006003000275489G/BAG POP UP 18x23CM   0000001000+00001578+00000+0001T   00001578+0000001252          1400 JU3112               1AZ
120069002120069204-000009     120069006003000577200MEMO HOLDER CUPCAKE    0000001000+00000876+00000+0001T   00001490+0008131252          1400 JU3300               1AZ
120069003120069368-000175     120069006003000270316PLUSH BEAR 4 ASSTD 18CM0000001000+00006139+00000+0001T   00006139+0000001252          1400 JU3745               1AZ
120069004120069204-000009     120069006003000577200MEMO HOLDER CUPCAKE    0000002000+00000876+00000+0001T   00001490+0008131252          1400 JU3300               1AZ
120069005120069018-000177     120069006001023797513MUG MINI LOVE ASSTD    0000001000+00000700+00000+0001T   00000700+0000001252          1400 JU3515               1AZ
120069006120069301-085001     120069006003000297610ORN WATERBALL LOVE ASST0000001000+00004823+00000+0001T   00004823+0000001252          1400 JU3505               1AZ
120070000120070               120070               170213KK     1400+00000+KK0000003102+0000003102+000000000+000000436+0000003530+0000000008+I20000000000+0000003530+Z
120070001120070080-000133     120070006003000535613CARD&ENV MINI ASTD DSGN0000001000+00000437+00000+0001T   00000437+0000001253          1400 JU3112               1AZ
120070002120070018-000129     120070006001023403353MUG OCC. LOVE V-SHAPE  0000001000+00002630+00000+0001T   00002630+0000001253          1400 JU3515               1AZ
120070003120070112-116038     120070006009681820246TCS CARRIER BAG MIDI   0000001000+00000035+00000+0001T   00000035+0000001253          1400 JU3090               1AZ
120071000120071               120071               170213KK     1400+00000+KK0000007748+0000007748+000000000+000001087+0000008830+0000000005+I20000000000+0000008830+Z
120071001120071105-001005     120071006001023858214CONTAINERS MINI 6PCE   0000001000+00001402+00000+0001T   00001402+0000001255          1400 JU3210               1AZ
120071002120071112-116038     120071006009681820246TCS CARRIER BAG MIDI   0000001000+00000035+00000+0001T   00000035+0000001255          1400 JU3090               1AZ
120071003120071105-000750     120071006003000190270CONTAINERS 4xMINI 150ml0000001000+00001402+00000+0001T   00001402+0000001255          1400 JU3210               1AZ
120071004120071105-001005     120071006001023858214CONTAINERS MINI 6PCE   0000001000+00001402+00000+0001T   00001402+0000001255          1400 JU3210               1AZ
120071005120071105-007400     120071006003000629435CONTAINER MINI 140ml   0000001000+00003507+00000+0001T   00003507+0000001255          1400 JU3210               1AZ
120072000120072               120072               170213KK     1400+00000+KK0000006082+0000006082+000000000+000000854+0000006930+0000000006+I20000000000+0000006930+Z
120072002120072112-116038     120072006009681820246TCS CARRIER BAG MIDI   0000001000+00000035+00000+0001T   00000035+0000001259          1400 JU3090               1AZ
120072003120072075-000355     120072006003000571895PURSE 14X8cm 2-ZIP&HNDL0000001000+00003069+00000+0001T   00003069+0000001259          1400 JU3160               1AZ
120072004120072903-000095     120072006001704011495SWT SPECKLED-EGGS 100G 0000001000+00002104+00000+0001T   00002104+0000001259          1400 JU3150               1AZ
120072005120072903-000094     120072006923431501622SWT GS CANDY NECKLACE  0000002000+00000437+00000+0001T   00000437+0000001259          1400 JU3150               1AZ
120073000120073               120073               170213KK     1400+00000+KK0000000876+0000000876+000000000+000000123+0000000990+0000000009+I20000000000+0000000990+Z
120073001120073047-000505     120073006009636901976PLUG-ADAPTOR 2-PIN     0000001000+00000876+00000+0001T   00000876+0000001306          1400 JU3880               1AZ
120074000120074               120074               170213KK     1400+00000+KK0000010166+0000010166+000000000+000001426+0000011592+0000000000+I40000011592+0000000000+Z
120074001120074106-001109     120074006003000666355W/BOTTLE 650ml         0000003000+00002630+00000+0001T   00002630+0000001308          1400 JU3210               1AZ
120074002120074903-000126     120074006002099003591SWT ZILLIONS MINT 50G  0000002000+00000700+00000+0001T   00000700+0000001308          1400 JU3150               1AZ
120074003120074903-003080     120074005907029004673SWT SNACK STIX CHOC 50g0000001000+00000876+00000+0001T   00000876+0000001308          1400 JU3150               1AZ
120075000120075               120075               170213KK     1400+00000+KK0000006611+0000006611+000000000+000000926+0000007530+0000000007+I20000000000+0000007530+Z
120075001120075366-000302     120075006001023903013DRESSUP DEVIL/MOUSE    0000003000+00002192+00000+0001T   00002192+0000001310          1400 JU3131               1AZ
120075002120075112-116038     120075006009681820246TCS CARRIER BAG MIDI   0000001000+00000035+00000+0001T   00000035+0000001310          1400 JU3090               1AZ
120076000120076               120076               170213KK     1400+00000+KK0000003507+0000003507+000000000+000000491+0000003990+0000000008+I20000000000+0000003990+Z
120076001120076133-000010-A   120076006001023997647CLEANING CLOTH ROLL 30 0000001000+00003507+00000+0001T   00003507+0000001316          1400 JU3212               1AZ
120077000120077               120077               170213KK     1400+00000+KK0000001839+0000001839+000000000+000000258+0000002090+0000000007+I20000000000+0000002090+Z
120077001120077083-000055     120077006003000003853LIGHTER ELCTRNC REFILBL0000003000+00000613+00000+0001T   00000613+0000001319          1400 JU3315               1AZ
120078000120078               120078               170213KK     1400+00000+KK0000006138+0000006138+000000000+000000860+0000006998+0000000000+I40000006998+0000000000+Z
120078001120078077-000290     120078006001023902023GIFT BOX 26x32x13cm    0000001000+00001753+00000+0001T   00001753+0000001321          1400 JU3112               1AZ
120078002120078018-030000     120078006003000421060MUG OCCASIONS LOVE 2PCE0000001000+00004385+00000+0001T   00004385+0000001321          1400 JU3515               1AZ
120079000120079               120079               170213KK     1400+00000+KK0000001578+0000001578+000000000+000000221+0000001799+0000000000+I40000001799+0000000000+Z
120079001120079077-000303     120079006001023593757GIFT-BAG PAPER MED     0000001000+00001578+00000+0001T   00001578+0000001323          1400 JU3112               1AZ
120080000120080               120080               170213KK     1400+00000+KK0000028286+0000028286+000000000+000003962+0000032248+0000000000+I40000032248+0000000000+Z
120080001120080368-000637     120080006001023874092PLUSH BEAR SLEEPING LOV0000002000+00011402+00000+0001T   00012279+0006471331          1400 JU3745               1AZ
120080002120080018-000127     120080006001023380289MUG OCC STRAIGHT LOVE  0000003000+00001578+00000+0001T   00001753+0006471331          1400 JU3515               1AZ
120080003120080018-000177     120080006001023797513MUG MINI LOVE ASSTD    0000001000+00000700+00000+0001T   00000700+0000001331          1400 JU3515               1AZ
120080004120080112-116069     120080006009681820277TCS CARRIER BAG JUMBO  0000001000+00000048+00000+0001T   00000048+0000001331          1400 JU3090               1AZ
120081000120081               120081               170213KK     1400+00000+KK0000023202+0000023202+000000000+000003250+0000026452+0000000000+I40000026452+0000000000+Z
120081001120081903-000090     120081006009826020821SWT GS CHOCO COINS 60g 0000001000+00002104+00000+0001T   00002104+0000001333          1400 JU3150               1AZ
120081002120081112-116069     120081006009681820277TCS CARRIER BAG JUMBO  0000001000+00000048+00000+0001T   00000048+0000001333          1400 JU3090               1AZ
120081003120081497-058329     120081000078257583294BOAT EXPLORER 100      0000001000+00012279+00000+0001T   00012279+0000001333          1400 JU3787               1AZ
120081004120081369-000201     120081006003000636655BABY TOY PLAY/LEARN    0000001000+00008771+00000+0001T   00008771+0000001333          1400 JU3745               1AZ
120082000120082               120082               170213KK     1400+00000+KK0000019294+0000019294+000000000+000002703+0000021997+0000000000+I40000021997+0000000000+Z
120082001120082366-002195     120082006001023990549DRESS UP WINGS FEATHER 0000001000+00005262+00000+0001T   00005262+0000001335          1400 JU3131               1AZ
120082002120082366-000105     120082006001023866103DRESSUP WINGS AND SKIRT0000002000+00007016+00000+0001T   00007016+0000001335          1400 JU3131               1AZ
120083000120083               120083               170213KK     1400+00000+KK0000000918+0000000918+000000000+000000129+0000001040+0000000007+I20000000000+0000001040+Z
120083001120083079-009700-B   120083006003000547661PAPER SIRIO A4 WHITE   0000001000+00000306+00000+0001T   00000306+0000001336          1400 JU3130               1AZ
120083002120083079-009700-D   120083006003000545711PAPER SIRIO A4 RED COL.0000001000+00000306+00000+0001T   00000306+0000001336          1400 JU3130               1AZ
120083003120083079-009700-G   120083006003000545957PAPER SIRIO A4 LIME COL0000001000+00000306+00000+0001T   00000306+0000001336          1400 JU3130               1AZ
120084000120084               120084               170213KK     1400+00000+KK0000015255+0000015255+000000000+000002139+0000017394+0000000000+I40000017394+0000000000+Z
120084001120084159-003600     120084006001023606174TOILET-BRUSH W/STAND PL0000001000+00004385+00000+0001T   00004385+0000001338          1400 JU3200               1AZ
120084002120084106-003112     120084006003000593460ICE CUBE TRAY 25X12X3CM0000001000+00002630+00000+0001T   00002630+0000001338          1400 JU3210               1AZ
120084003120084206-000135     120084006003000680450T/BAG HLDR SILICONE    0000001000+00001753+00000+0001T   00001753+0000001338          1400 JU3321               1AZ
120084004120084206-000310     120084006003000632787BOTTLE-STOPPER SILICONE0000001000+00002630+00000+0001T   00002630+0000001338          1400 JU3321               1AZ
120084005120084206-000570     120084006003000633463DOOR STOPPER SILI/LEAF 0000001000+00002630+00000+0001T   00002630+0000001338          1400 JU3321               1AZ
120084006120084206-000630     120084006003000631919SPECTACLE CLEANING BRUS0000001000+00001227+00000+0001T   00001227+0000001338          1400 JU3321               1AZ
120085000120085               120085               170213KK     1400+00000+KK0000007938+0000007938+000000000+000001112+0000009050+0000000000+I20000000000+0000009050+Z
120085001120085018-000127     120085006001023380289MUG OCC STRAIGHT LOVE  0000005000+00001578+00000+0001T   00001753+0006471340          1400 JU3515               1AZ
120085002120085112-116069     120085006009681820277TCS CARRIER BAG JUMBO  0000001000+00000048+00000+0001T   00000048+0000001340          1400 JU3090               1AZ
120086000120086               120086               170213KK     1400+00000+KK0000006174+0000006174+000000000+000000865+0000007030+0000000009+I20000000000+0000007030+Z
120086001120086124-001300     120086006003000486861STORAGE TIN WASHING    0000001000+00006139+00000+0001T   00006139+0000001341          1400 JU3300               1AZ
120086002120086112-116038     120086006009681820246TCS CARRIER BAG MIDI   0000001000+00000035+00000+0001T   00000035+0000001341          1400 JU3090               1AZ
120087000120087               120087               170213KK     1400+00000+KK0000005260+0000005260+000000000+000000738+0000005990+0000000008+I20000000000+0000005990+Z
120087001120087304-001486     120087006003000035335FLWR BUNCH ROSE        0000002000+00002630+00000+0001T   00002630+0000001343          1400 JU3510               1AZ
120088000120088               120088               170213KK     1400+00000+KK0000013505+0000013505+000000000+000001892+0000015397+0000000000+I40000015397+0000000000+Z
120088001120088903-000517     120088006001704012768SWT STRAWS FIZZY CHERRY0000001000+00001227+00000+0001T   00001227+0000001345          1400 JU3150               1AZ
120088002120088004-071215     120088006003000459360MOBILE SELFI STICK 80cm0000001000+00007016+00000+0001T   00007016+0000001345          1400 JU3310               1AZ
120088003120088567-010161     120088009780000008516BOOK TOP ASSTD MILLS   0000001000+00005262+00000+0001T   00005262+0000001345          1400 JU3757               1AZ
120089000120089               120089               170213KK     1400+00000+KK0000001613+0000001613+000000000+000000226+0000001830+0000000009+I20000000000+0000001830+Z
120089001120089018-000127     120089006001023380289MUG OCC STRAIGHT LOVE  0000001000+00001578+00000+0001T   00001753+0006471350          1400 JU3515               1AZ
120089002120089112-116038     120089006009681820246TCS CARRIER BAG MIDI   0000001000+00000035+00000+0001T   00000035+0000001350          1400 JU3090               1AZ
120090000120090               120090               170213KK     1400+00000+KK0000008766+0000008766+000000000+000001229+0000009990+0000000005+I20000000000+0000009990+Z
120090001120090027-056191     120090006916920933134DISH-BRUSH+HOOK RECT   0000001000+00001753+00000+0001T   00001753+0000001358          1400 JU3212               1AZ
120090002120090301-085004     120090006003000420469ORN LOVE PLAQUE 21X10CM0000001000+00003507+00000+0001T   00003946+0006471358          1400 JU3505               1AZ
120090003120090031-000921     120090006001023667755P/FRAME COLLAGE 4-HOLE 0000001000+00003069+00000+0001T   00003069+0000001358          1400 JU3510               1AZ
120090004120090080-000133     120090006003000535613CARD&ENV MINI ASTD DSGN0000001000+00000437+00000+0001T   00000437+0000001358          1400 JU3112               1AZ
120091000120091               120091               170213KK     1400+00000+KK0000000035+0000000035+000000000+000000005+0000000040+0000000000+I20000000000+0000000040+Z
120091001120091112-116038     120091006009681820246TCS CARRIER BAG MIDI   0000001000+00000035+00000+0001T   00000035+0000001359          1400 JU3090               1AZ
120092000120092               120092               170213KK     1400+00000+KK0000001490+0000001490+000000000+000000209+0000001690+0000000009+I20000000000+0000001690+Z
120092001120092071-005214     120092006003000152544CELLOTAPE SUPER REFILL 0000001000+00001490+00000+0001T   00001490+0000001359          1400 JU3130               1AZ
120093000120093               120093               170213KK     1400+00000+KK0000006593+0000006593+000000000+000000933+0000007520+0000000006+I20000000000+0000007520+Z
120093001120093903-000155     120093006009803374435SWT LOLLY I LUV U HEART0000008000+00000525+00000+0001T   00000525+0000001402          1400 JU3150               1AZ
120093002120093112-116038     120093006009681820246TCS CARRIER BAG MIDI   0000001000+00000035+00000+0001T   00000035+0000001402          1400 JU3090               1AZ
120093003120093903-000183     120093006003000451043SWT LB HEART LOLLY     0000006000+00000393+00000+0001T   00000393+0000001402          1400 JU3150               1AZ
120094000120094               120094               170213KK     1400+00000+KK0000056110+0000056110+000000000+000007870+0000063980+0000000000+E00000000000+0000000000+Z
120094001120094019-000070     120094006003000297474VASE GLS CLEAR BOTTLE  0000002000+00004385+00000+0001T   00004385+000000              1400 JU35102IC            1 Z
120094002120094019-071601     120094006001023771995RIVER-STONES 1kg WHITE 0000018000+00002630+00000+0001T   00002630+000000              1400 JU35102IC            1 Z
120095000120095               120095               170213KK     1400+00000+KK0000019371+0000019371+000000000+000002716+0000022087+0000000000+I40000022087+0000000000+Z
120095001120095019-000070     120095006003000297474VASE GLS CLEAR BOTTLE  0000002000+00004385+00000+0001T   00004385+0000001542          1400 JU3510               1AZ
120095002120095019-071598     120095006001023693228PEBBLES GLS 250g WHITE 0000006000+00001753+00000+0001T   00001753+0000001542          1400 JU3510               1AZ
120095003120095112-116069     120095006009681820277TCS CARRIER BAG JUMBO  0000001000+00000048+00000+0001T   00000048+0000001542          1400 JU3090               1AZ
120095004120095112-116038     120095006009681820246TCS CARRIER BAG MIDI   0000001000+00000035+00000+0001T   00000035+0000001542          1400 JU3090               1AZ
120096000120096               120096               170213KK     1400+00000+KK0000001788+0000001788+000000000+000000251+0000002039+0000000000+I40000002039+0000000000+Z
120096001120096565-000043     120096006003000109562NOVELTY BALL FUNNY FACE0000001000+00001753+00000+0001T   00001753+0000001545          1400 JU3745               1AZ
120096002120096112-116038     120096006009681820246TCS CARRIER BAG MIDI   0000001000+00000035+00000+0001T   00000035+0000001545          1400 JU3090               1AZ
120097000120097               120097               170213KK     1400+00000+KK0000016708+0000016708+000000000+000002341+0000019049+0000000000+I40000019049+0000000000+Z
120097001120097112-116069     120097006009681820277TCS CARRIER BAG JUMBO  0000001000+00000048+00000+0001T   00000048+0000001547          1400 JU3090               1AZ
120097002120097368-000160     120097006003000208579PLUSH MAD HATTER RABBIT0000001000+00010525+00000+0001T   00010525+0000001547          1400 JU3745               1AZ
120097003120097560-000785     120097006003000123919ANIMAL ASSTD 8PC 7cm   0000001000+00003507+00000+0001T   00003507+0000001547          1400 JU3745               1AZ
120097004120097903-000520     120097006001704009898SWT GUMMY MINI SOUR 60g0000001000+00000876+00000+0001T   00000876+0000001547          1400 JU3150               1AZ
120097005120097903-000220     120097006001704007368SWT JELLY BEANS 60G    0000002000+00000876+00000+0001T   00000876+0000001547          1400 JU3150               1AZ
120098000120098               120098               170213KK     1400+00000+KK0000004385+0000004385+000000000+000000614+0000004990+0000000009+I20000000000+0000004990+Z
120098001120098082-000105     120098006003000360369READING GLS STRNGHT:1.50000001000+00004385+00000+0001T   00004385+0000001548          1400 JU3160               1AZ
120099000120099               120099               170213KK     1400+00000+KK0000003993+0000003993+000000000+000000560+0000004553+0000000000+I40000004553+0000000000+Z
120099001120099200-003026     120099006003000276448REFUSE BAGS 10PCE GREEN0000001000+00001753+00000+0001T   00001753+0000001549          1400 JU3214               1AZ
120099002120099080-000127     120099006003000424351VALENTINES DAY 36x24CM 0000001000+00002192+00000+0001T   00002192+0000001549          1400 JU3112               1AZ
120099003120099112-116069     120099006009681820277TCS CARRIER BAG JUMBO  0000001000+00000048+00000+0001T   00000048+0000001549          1400 JU3090               1AZ
120100000120100               120100               170213KK     1400+00000+KK0000007061+0000007061+000000000+000000991+0000008050+0000000002+I20000000000+0000008050+Z
120100001120100077-000115-B   120100006003000181025GIFT-WRAP PPR 700MMX2M 0000001000+00002630+00000+0001T   00002630+0000001551          1400 JU3112               1AZ
120100002120100077-000115     120100006001023834225WRAP METALLIC 700mmx1m 0000001000+00001753+00000+0001T   00001753+0000001551          1400 JU3112               1AZ
120100003120100077-000251     120100006003000639106GIFT-DECOR RIBBON      0000001000+00002630+00000+0001T   00002630+0000001551          1400 JU3112               1AZ
120100004120100112-116069     120100006009681820277TCS CARRIER BAG JUMBO  0000001000+00000048+00000+0001T   00000048+0000001551          1400 JU3090               1AZ
120101000120101               120101               170213KK     1400+00000+KK0000003542+0000003542+000000000+000000496+0000004030+0000000008+I20000000000+0000004030+Z
120101001120101567-011437     120101009781847508683BK COLOURING GIRLS     0000001000+00003507+00000+0001T   00003507+0000001555          1400 JU3757               1AZ
120101002120101112-116038     120101006009681820246TCS CARRIER BAG MIDI   0000001000+00000035+00000+0001T   00000035+0000001555          1400 JU3090               1AZ
120102000120102               120102               170213KK     1400+00000+KK0000015342+0000015342+000000000+000002152+0000017490+0000000004+I20000000000+0000017490+Z
120102001120102077-000235     120102006003000160211GIFT-RIBBON ROLL METALC0000001000+00002630+00000+0001T   00002630+0000001618          1400 JU3112               1AZ
120102002120102039-081008     120102006008766081008CANDLES 9PCE SCENTED   0000004000+00002630+00000+0001T   00002630+0000001618          1400 JU3510               1AZ
120102003120102046-000012-A   120102006003000208296BATTERIES H/POWER SZ:AA0000001000+00002192+00000+0001T   00002192+0000001618          1400 JU3312               1AZ
120103000120103               120103               170213KK     1400+00000+KK0000003015+0000003015+000000000+000000423+0000003430+0000000008+I20000000000+0000003430+Z
120103001120103077-000299     120103006003000395576G/BAG 32x25cm LRG LOVE 0000002000+00001490+00000+0001T   00001490+0000001628          1400 JU3112               1AZ
120103002120103112-116038     120103006009681820246TCS CARRIER BAG MIDI   0000001000+00000035+00000+0001T   00000035+0000001628          1400 JU3090               1AZ
120104000120104               120104               170213KK     1400+00000+KK0000002926+0000002926+000000000+000000410+0000003330+0000000006+I20000000000+0000003330+Z
120104001120104018-000177     120104006001023797513MUG MINI LOVE ASSTD    0000001000+00000700+00000+0001T   00000700+0000001629          1400 JU3515               1AZ
120104002120104077-000303     120104006001023593757GIFT-BAG PAPER MED     0000001000+00001578+00000+0001T   00001578+0000001629          1400 JU3112               1AZ
120104003120104077-000311     120104006001023608666GIFT-BAG 11X14CM GLOSS 0000001000+00000613+00000+0001T   00000613+0000001629          1400 JU3112               1AZ
120104004120104112-116038     120104006009681820246TCS CARRIER BAG MIDI   0000001000+00000035+00000+0001T   00000035+0000001629          1400 JU3090               1AZ
120105000120105               120105               170213KK     1400+00000+KK0000001578+0000001578+000000000+000000221+0000001790+0000000009+I20000000000+0000001790+Z
120105001120105080-000124     120105006003000297733CARD & ENV VALENTINES  0000001000+00001578+00000+0001T   00001578+0000001647          1400 JU3112               1AZ
120106000120106               120106               170213KK     1400+00000+KK0000000437+0000000437+000000000+000000062+0000000490+0000000009+I20000000000+0000000490+Z
120106001120106083-000049     120106004891035200024CIG-LIGHTER DISPOSABLE 0000001000+00000437+00000+0001T   00000437+0000001650          1400 JU3315               1AZ
120107000120107               120107               170213KK     1400+00000+KK0000003219+0000003219+000000000+000000455+0000003670+0000000004+I20000000000+0000003670+Z
120107001120107903-000843     120107008693029031067SWT GUMMY JELAXY 80G   0000001000+00000964+00000+0001T   00000964+0000001651          1400 JU3150               1AZ
120107002120107112-116038     120107006009681820246TCS CARRIER BAG MIDI   0000001000+00000035+00000+0001T   00000035+0000001651          1400 JU3090               1AZ
120107003120107903-000183     120107006003000451043SWT LB HEART LOLLY     0000004000+00000393+00000+0001T   00000393+0000001651          1400 JU3150               1AZ
120107004120107112-116038     120107006009681820246TCS CARRIER BAG MIDI   0000001000+00000035+00000+0001T   00000035+0000001651          1400 JU3090               1AZ
120107005120107083-000055     120107006003000003853LIGHTER ELCTRNC REFILBL0000001000+00000613+00000+0001T   00000613+0000001651          1400 JU3315               1AZ
120108000120108               120108               170213KK     1400+00000+KK0000003912-0000003912-000000000+000000548-0000004460-0000000000+I20000000000+0000004460-Z
120108001120108001-999910     120108000000000999910POSTAGE                0000001000-00003912+00000+0001T   00000000+0000001655          1400 JU39102IC            1 Z
120109000120109               120109               170213KK     1400+00000+KK0000000438-0000000438-000000000+000000062-0000000500-0000000000+I20000000000+0000000500-Z
120109001120109001-999906     120109000000000999906STATIONERY(PHOTOCOPIES)0000001000-00000438+00000+0001T   00000000+0000001656          1400 JU39062IC            1 Z
A17021300                                          08331364KKSLAVE 1                       JU32IC
A17021301                                          16520831KKSLAVE 1                       JU32IC
C12007200                                          170213KK089-000205     12593460SLAVE 1     JU33IC0000000000+0000000000+0010000001000+
M17021301                              IT DEPT     KKMARGATE KK ATT:BASIL                                                                            THE LAST SALES NUMBER FOR SLAVE 1 IS 120109
M17021391                              CASH        KKSLAVE 1                       Z-REPORT No.   619TOTAL (Sales - Refunds)           5597.99       CASH TO BE BANKED                 1947.40       DEBIT CARDS                          0.00       CREDIT CARDS                      3600.69       Z-READING                         5548.39       AIRTIME DEBIT CARD SALES             0.00       AIRTIME CARD SALES                   0.00       OVERS/UNDERS                         0.30-      AIRTIME CASH SALES                   0.00       GIFT CARDS                           0.00       GIFT CARD CASH SALES                 0.00       POSTAGE                             44.60       STATIONERY(PHOTOCOPIES)              5.00       T O T A L  CASH PAYOUTS             49.60                                                                                                                                                                                                                                                      Z
M17021392                              CASH        KKABSENT                                                                                                                                                                                          ANNUAL LEAVE                                                                                                                                                                                    DAY OFF                                                                                                                                                                                         COMMENTS                                                                                                                                                                                                                                                                                                                                                                                       Z
Y17021300                                          KK00000000491241+000074
ZKK17021319573 SLAVE 1      SALES DATA                     NEXT INVOICE NO.  120110 0619
X KK Slave 1 First invoice 120033 170213 Last invoice 120109 170213 Next invoice 120110 Total number of records 000000280 clbackup completed 19:57:58
