130028000130028               130028               170213KK     1400+00000+KK0000008359+0000008359+000000000+000001172+0000009530+0000000001+I20000000000+0000009530+Z
130028001130028071-001102     130028006003000274598MARKER PERM MED 2PCE   0000001000+00001753+00000+0001T   00001753+0000000954          1400 V65130               2AZ
130028002130028071-002999-A   130028006003000611577PEN STICKBALL 10PCE ASS0000001000+00001753+00000+0001T   00001753+0000000954          1400 V65130               2AZ
130028003130028007-000127     130028006009685853431BOOK H/COVER MEMO 144PG0000001000+00000876+00000+0001T   00000876+0000000954          1400 V65130               2AZ
130028004130028903-000194     130028006009826020616SWT CHOC RP LOLLY 25G  0000003000+00001314+00000+0001T   00001314+0000000954          1400 V65150               2AZ
130028005130028112-116038     130028006009681820246TCS CARRIER BAG MIDI   0000001000+00000035+00000+0001T   00000035+0000000954          1400 V65090               2AZ
130029000130029               130029               170213KK     1400+00000+KK0000008629+0000008629+000000000+000001209+0000009830+0000000008+I20000000000+0000009830+Z
130029001130029041-093000     130029006003000320882B/GIFT SET 4PC B/RANGE 0000001000+00007016+00000+0001T   00007016+0000001002          1400 V65200               2AZ
130029002130029112-116038     130029006009681820246TCS CARRIER BAG MIDI   0000001000+00000035+00000+0001T   00000035+0000001002          1400 V65090               2AZ
130029003130029077-000303     130029006001023593757GIFT-BAG PAPER MED     0000001000+00001578+00000+0001T   00001578+0000001002          1400 V65112               2AZ
130030000130030               130030               170213KK     1400+00000+KK0000001051+0000001051+000000000+000000148+0000001190+0000000009+I20000000000+0000001190+Z
130030001130030903-002851     130030000000087108538MENTOS ROLL STRAWBERRY 0000001000+00001051+00000+0001T   00001051+0000001006          1400 V65150               2AZ
130031000130031               130031               170213KK     1400+00000+KK0000002630+0000002630+000000000+000000369+0000002990+0000000009+I20000000000+0000002990+Z
130031001130031466-000514     130031006001023196620BALLS TENNIS COLR BAG-30000001000+00002630+00000+0001T   00002630+0000001015          1400 V65785               2AZ
130032000130032               130032               170213KK     1400+00000+KK0000012390+0000012390+000000000+000001736+0000014120+0000000006+I20000000000+0000014120+Z
130032001130032903-000499     130032006001704012492SWT CHOC MALLOWS 50g   0000001000+00001227+00000+0001T   00001227+0000001023          1400 V65150               2AZ
130032002130032560-000700     130032006001023865830GROWING ANIMALS ASSTD  0000001000+00001578+00000+0001T   00001578+0000001023          1400 V65745               2AZ
130032003130032903-000844     130032005010478432567SWT CANDY DL LUV HEARTS0000002000+00001314+00000+0001T   00001314+0000001023          1400 V65150               2AZ
130032004130032903-000843     130032008693029031067SWT GUMMY JELAXY 80G   0000004000+00000964+00000+0001T   00000964+0000001023          1400 V65150               2AZ
130032005130032018-000177     130032006001023797513MUG MINI LOVE ASSTD    0000001000+00000700+00000+0001T   00000700+0000001023          1400 V65515               2AZ
130032006130032903-000201     130032006009826020371SWT CHOC HEART 30g     0000001000+00000788+00000+0001T   00000788+0000001023          1400 V65150               2AZ
130032007130032077-000303     130032006001023593757GIFT-BAG PAPER MED     0000001000+00001578+00000+0001T   00001578+0000001023          1400 V65112               2AZ
130032008130032112-116038     130032006009681820246TCS CARRIER BAG MIDI   0000001000+00000035+00000+0001T   00000035+0000001023          1400 V65090               2AZ
130033000130033               130033               170213KK     1400+00000+KK0000006137+0000006137+000000000+000000860+0000006990+0000000007+I20000000000+0000006990+Z
130033001130033082-098779     130033006001492987798SUNGLASS KIDS HEART    0000001000+00003507+00000+0001T   00003507+0000001025          1400 V65160               2AZ
130033002130033018-000129     130033006001023403353MUG OCC. LOVE V-SHAPE  0000001000+00002630+00000+0001T   00002630+0000001025          1400 V65515               2AZ
130034000130034               130034               170213KK     1400+00000+KK0000001752+0000001752+000000000+000000246+0000001990+0000000008+I20000000000+0000001990+Z
130034001130034903-000123     130034006925925909280SWEET GS MINI MALLOWS  0000002000+00000876+00000+0001T   00000876+0000001031          1400 V65150               2AZ
130035000130035               130035               170213KK     1400+00000+KK0000001227+0000001227+000000000+000000172+0000001390+0000000009+I20000000000+0000001390+Z
130035001130035251-000041     130035006001023515889SEAL-TAPE BUFF 48mmx50m0000001000+00001227+00000+0001T   00001227+0000001032          1400 V65810               2AZ
130036000130036               130036               170213KK     1400+00000+KK0000002892+0000002892+000000000+000000405+0000003290+0000000007+I20000000000+0000003290+Z
130036001130036080-000124     130036006003000297733CARD & ENV VALENTINES  0000001000+00001578+00000+0001T   00001578+0000001034          1400 V65112               2AZ
130036002130036002-000037     130036006001023887467SANDWICH-CUTTER PL ASST0000001000+00001314+00000+0001T   00001314+0000001034          1400 V65300               2AZ
130037000130037               130037               170213KK     1400+00000+KK0000004385+0000004385+000000000+000000614+0000004999+0000000000+I40000004999+0000000000+Z
130037001130037082-000115     130037006003000360604READING GLS STRNGHT:2.50000001000+00004385+00000+0001T   00004385+0000001038          1400 V65160               2AZ
130038000130038               130038               170213KK     1400+00000+KK0000006007+0000006007+000000000+000000844+0000006850+0000000001+I20000000000+0000006850+Z
130038001130038033-005991     130038006001023678546NEEDLES H/HOLD-REPAIR  0000002000+00000788+00000+0001T   00000788+0000001039          1400 V65200               2AZ
130038002130038903-000219     130038006925925911450SWT ERKO MALLOW CHOC   0000001000+00001753+00000+0001T   00001753+0000001039          1400 V65150               2AZ
130038003130038159-000117     130038006003000450398SHOWER CAP PVC ASSTD   0000001000+00002630+00000+0001T   00002630+0000001039          1400 V65200               2AZ
130038004130038112-116069     130038006009681820277TCS CARRIER BAG JUMBO  0000001000+00000048+00000+0001T   00000048+0000001039          1400 V65090               2AZ
130039000130039               130039               170213KK     1400+00000+KK0000002192+0000002192+000000000+000000307+0000002490+0000000009+I20000000000+0000002490+Z
130039001130039467-000004     130039006001023347596NET FISHING 100cm LONG 0000001000+00002192+00000+0001T   00002192+0000001040          1400 V65785               2AZ
130040000130040               130040               170213KK     1400+00000+KK0000006711+0000006711+000000000+000000940+0000007651+0000000000+I40000007651+0000000000+Z
130040001130040368-000001     130040006003000097982Plush Bear 25cm        0000001000+00004385+00000+0001T   00004385+0000001041          1400 V65745               2AZ
130040002130040077-000303     130040006001023593757GIFT-BAG PAPER MED     0000001000+00001578+00000+0001T   00001578+0000001041          1400 V65112               2AZ
130040003130040018-000177     130040006001023797513MUG MINI LOVE ASSTD    0000001000+00000700+00000+0001T   00000700+0000001041          1400 V65515               2AZ
130040004130040112-116069     130040006009681820277TCS CARRIER BAG JUMBO  0000001000+00000048+00000+0001T   00000048+0000001041          1400 V65090               2AZ
130041000130041               130041               170213KK     1400+00000+KK0000002630+0000002630+000000000+000000369+0000002999+0000000000+I40000002999+0000000000+Z
130041001130041463-000366     130041006001023789136SWIM W/NOODLE 150cm    0000001000+00002630+00000+0001T   00002630+0000001042          1400 V65785               2AZ
130042000130042               130042               170213KK     1400+00000+KK0000038544+0000038544+000000000+000005401+0000043945+0000000000+I40000043945+0000000000+Z
130042001130042082-000110     130042006003000360482READING GLS STRENGHT:2 0000001000+00004385+00000+0001T   00004385+0000001044          1400 V65160               2AZ
130042002130042566-000362     130042006003000583065STICKER LETTER & NUMBER0000002000+00001753+00000+0001T   00001753+0000001044          1400 V65130               2AZ
130042003130042018-000129     130042006001023403353MUG OCC. LOVE V-SHAPE  0000001000+00002630+00000+0001T   00002630+0000001044          1400 V65515               2AZ
130042004130042036-000610     130042006001023627230WASHING-PEGS PL PACK-240000001000+00001753+00000+0001T   00001753+0000001044          1400 V65212               2AZ
130042005130042079-006525     130042006003000681938MASKING FABRIC 10PC    0000001000+00002630+00000+0001T   00002630+0000001044          1400 V65130               2AZ
130042006130042466-000004     130042006003000469819PLAY-TENT POP-UP BOY   0000001000+00021928+00000+0001T   00021928+0000001044          1400 V65785               2AZ
130042007130042566-000858     130042006001023760975STCKRS G/OUTLINE ASSTD 0000001000+00000788+00000+0001T   00000788+0000001044          1400 V65130               2AZ
130042008130042566-002009     130042000721129023939STICKERS CRYSTAL  ASSTD0000001000+00000876+00000+0001T   00000876+0000001044          1400 V65130               2AZ
130042009130042112-116069     130042006009681820277TCS CARRIER BAG JUMBO  0000001000+00000048+00000+0001T   00000048+0000001044          1400 V65090               2AZ
130043000130043               130043               170213KK     1400+00000+KK0000011435+0000011435+000000000+000001602+0000013037+0000000000+I40000013037+0000000000+Z
130043001130043082-000120     130043006003000360727READING GLS STRENGTH:3 0000001000+00004385+00000+0001T   00004385+0000001046          1400 V65160               2AZ
130043002130043024-000093-B   130043006003000430819MEASURING-SPOONS ASSTD 0000001000+00002630+00000+0001T   00002630+0000001046          1400 V65300               2AZ
130043003130043024-000093-A   130043006003000430697MEASURING-CUPS ASSTD   0000001000+00004385+00000+0001T   00004385+0000001046          1400 V65300               2AZ
130043004130043112-116038     130043006009681820246TCS CARRIER BAG MIDI   0000001000+00000035+00000+0001T   00000035+0000001046          1400 V65090               2AZ
130044000130044               130044               170213KK     1400+00000+KK0000002190+0000002190+000000000+000000307+0000002490+0000000007+I20000000000+0000002490+Z
130044001130044071-003866     130044006003000590018PENCIL NOVELTY RULER   0000001000+00001314+00000+0001T   00001314+0000001047          1400 V65130               2AZ
130044002130044071-001238     130044000060107212485ERASERS  3PCE    CARDED0000001000+00000876+00000+0001T   00000876+0000001047          1400 V65130               2AZ
130045000130045               130045               170213KK     1400+00000+KK0000002192+0000002192+000000000+000000307+0000002490+0000000009+I20000000000+0000002490+Z
130045001130045200-000020     130045006925406841030BAG ZIPPERSEAL 25PC    0000001000+00002192+00000+0001T   00002192+0000001104          1400 V65214               2AZ
130046000130046               130046               170213KK     1400+00000+KK0000003541+0000003541+000000000+000000497+0000004030+0000000008+I20000000000+0000004030+Z
130046001130046009-001455     130046006001023696038MELAMINE PLATE 25cm    0000002000+00001753+00000+0001T   00001753+0000001112          1400 V65210               2AZ
130046002130046112-116038     130046006009681820246TCS CARRIER BAG MIDI   0000001000+00000035+00000+0001T   00000035+0000001112          1400 V65090               2AZ
130047000130047               130047               170213KK     1400+00000+KK0000007276+0000007276+000000000+000001020+0000008290+0000000006+I20000000000+0000008290+Z
130047001130047105-006950     130047006003000638635CONTAINER 1.2L ASSORTED0000001000+00002630+00000+0001T   00002630+0000001136          1400 V65210               2AZ
130047002130047162-010768     130047006001492107684#TAG LDS SQ HOOPS 2PK  0000001000+00003507+00000+0001T   00003507+0000001136          1400 V65160               2AZ
130047003130047903-000087     130047006001704000161SWT SPECKLED-EGGS 50G  0000001000+00001139+00000+0001T   00001139+0000001136          1400 V65150               2AZ
130048000130048               130048               170213KK     1400+00000+KK0000004734+0000004734+000000000+000000663+0000005390+0000000007+I20000000000+0000005390+Z
130048001130048071-081091     130048006001151010287STAED/GENKEM ALL-STICK 0000001000+00001227+00000+0001T   00001227+0000001137          1400 V65130               2AZ
130048002130048031-005923     130048006003000040322P/FRAME CERT PL 21x29.70000001000+00003507+00000+0001T   00003507+0000001137          1400 V65510               2AZ
130049000130049               130049               170213KK     1400+00000+KK0000046524+0000046524+000000000+000006518+0000053042+0000000000+I40000053042+0000000000+Z
130049001130049174-000170     130049006003000575978STORAGE BASKET NON-WOVE0000002000+00004385+00000+0001T   00004385+0000001141          1400 V65205               2AZ
130049002130049106-001099     130049006003000653447WATER BOTTLE 650ml     0000001000+00002630+00000+0001T   00002630+0000001141          1400 V65210               2AZ
130049003130049019-000126     130049006003000329571PLANTER GALV W/HANDLE  0000002000+00004823+00000+0001T   00004823+0000001141          1400 V65510               2AZ
130049004130049032-000236     130049006001023731647MIRROR PL STANDING OVAL0000001000+00003507+00000+0001T   00003507+0000001141          1400 V65510               2AZ
130049005130049065-006073     130049006003000466504WOODEN RECORDER ASSTD  0000001000+00006139+00000+0001T   00006139+0000001141          1400 V65745               2AZ
130049006130049027-008812     130049006003000465460DUSTER MICROFIBRE 58cm 0000001000+00005262+00000+0001T   00005262+0000001141          1400 V65212               2AZ
130049007130049065-006072     130049006003000466627WOODEN HARMONICA 12.7cm0000001000+00005262+00000+0001T   00005262+0000001141          1400 V65745               2AZ
130049008130049112-116069     130049006009681820277TCS CARRIER BAG JUMBO  0000001000+00000048+00000+0001T   00000048+0000001141          1400 V65090               2AZ
130049009130049466-000109     130049006003000612345BALL RAINBOW DESIGN    0000001000+00001753+00000+0001T   00001753+0000001141          1400 V65785               2AZ
130049010130049466-000073     130049006003000669127BALL SOCCER MESH 15.2cm0000001000+00003507+00000+0001T   00003507+0000001141          1400 V65785               2AZ
130050000130050               130050               170213KK     1400+00000+KK0000003331+0000003331+000000000+000000467+0000003790+0000000008+I20000000000+0000003790+Z
130050001130050046-000012-A   130050006003000208296BATTERIES H/POWER SZ:AA0000001000+00002192+00000+0001T   00002192+0000001404          1400 V65312               2AZ
130050002130050046-000014     130050006001023725387BATTERIES SIZE:AAA 4PCE0000001000+00001139+00000+0001T   00001139+0000001404          1400 V65312               2AZ
130051000130051               130051               170213KK     1400+00000+KK0000000876+0000000876+000000000+000000123+0000000990+0000000009+I20000000000+0000000990+Z
130051001130051071-003000     130051006003000543229PEN BALL PEN 3PCE MULTI0000001000+00000876+00000+0001T   00000876+0000001407          1400 V65130               2AZ
130052000130052               130052               170213KK     1400+00000+KK0000028737+0000028737+000000000+000004032+0000032769+0000000000+I40000032769+0000000000+Z
130052001130052304-001116     130052006003000426164F/BUNCH ROSES 12-HEAD  0000001000+00005262+00000+0001T   00005262+0000001415          1400 V65510               2AZ
130052002130052083-000058     130052006003000400331LIGHTER JET CIGAR REFIL0000002000+00002630+00000+0001T   00002630+0000001415          1400 V65315               2AZ
130052003130052088-000084     130052006001023798060P/POURRI 120G ASSTD    0000001000+00001753+00000+0001T   00001753+0000001415          1400 V65212               2AZ
130052004130052089-000200     130052006003000485840KEY CHAIN POLY LOVE IS 0000001000+00003507+00000+0001T   00004385+0008121415          1400 V65205               2AZ
130052005130052566-000019     130052006003000075683WEDDING STICKERS H/MADE0000001000+00001314+00000+0001T   00001753+0008151415          1400 V65130               2AZ
130052006130052004-071203     130052006003000183555COMPUTOR LIGHT LED USB 0000001000+00003507+00000+0001T   00003507+0000001415          1400 V65310               2AZ
130052007130052903-000844     130052005010478432567SWT CANDY DL LUV HEARTS0000001000+00001314+00000+0001T   00001314+0000001415          1400 V65150               2AZ
130052008130052362-000299     130052006003000654758HAIR CLIPS METAL WORDS 0000002000+00001753+00000+0001T   00001753+0000001415          1400 V65160               2AZ
130052009130052903-000194     130052006009826020616SWT CHOC RP LOLLY 25G  0000001000+00001314+00000+0001T   00001314+0000001415          1400 V65150               2AZ
130052010130052903-000183     130052006003000451043SWT LB HEART LOLLY     0000005000+00000393+00000+0001T   00000393+0000001415          1400 V65150               2AZ
130052011130052112-116038     130052006009681820246TCS CARRIER BAG MIDI   0000001000+00000035+00000+0001T   00000035+0000001415          1400 V65090               2AZ
130053000130053               130053               170213KK     1400+00000+KK0000003069+0000003069+000000000+000000430+0000003490+0000000009+I20000000000+0000003490+Z
130053001130053072-020306     130053006003000024162PET DOG TENNIS BALL    0000001000+00003069+00000+0001T   00003069+0000001415          1400 V65870               2AZ
130054000130054               130054               170213KK     1400+00000+KK0000007923+0000007923+000000000+000001111+0000009034+0000000000+I40000009034+0000000000+Z
130054001130054083-000058     130054006003000400331LIGHTER JET CIGAR REFIL0000002000+00002630+00000+0001T   00002630+0000001417          1400 V65315               2AZ
130054002130054903-004950     130054006002580020304SWT APRICOT SURPRISE   0000001000+00001314+00000+0001T   00001314+0000001417          1400 V65150               2AZ
130054003130054903-000674     130054006009803358220SWT SHERBET W/LOLLY 4PK0000001000+00001314+00000+0001T   00001314+0000001417          1400 V65150               2AZ
130054004130054112-116038     130054006009681820246TCS CARRIER BAG MIDI   0000001000+00000035+00000+0001T   00000035+0000001417          1400 V65090               2AZ
130055000130055               130055               170213KK     1400+00000+KK0000004382+0000004382+000000000+000000614+0000004990+0000000006+I20000000000+0000004990+Z
130055001130055002-001700     130055006003000333707ONION-KEEPER PL        0000001000+00002192+00000+0001T   00002192+0000001418          1400 V65300               2AZ
130055002130055034-000329     130055006001023564290BOTTLE-BRUSHES WHT 2PCE0000001000+00001314+00000+0001T   00001314+0000001418          1400 V65215               2AZ
130055003130055083-000295     130055006001023898562LIGHTER-GAS BUTANE 18ml0000001000+00000876+00000+0001T   00000876+0000001418          1400 V65315               2AZ
130056000130056               130056               170213KK     1400+00000+KK0000004155+0000004155+000000000+000000582+0000004730+0000000007+I20000000000+0000004730+Z
130056001130056304-001011     130056006001023806727FLWR ROSE RED W/BEAR   0000001000+00000613+00000+0001T   00000788+0006471425          1400 V65510               2AZ
130056002130056018-005009     130056006001023725608MUG W/PLUSH-BEAR LOVE  0000001000+00003507+00000+0001T   00003507+0000001425          1400 V65515               2AZ
130056003130056112-116038     130056006009681820246TCS CARRIER BAG MIDI   0000001000+00000035+00000+0001T   00000035+0000001425          1400 V65090               2AZ
130057000130057               130057               170213KK     1400+00000+KK0000003156+0000003156+000000000+000000442+0000003590+0000000008+I20000000000+0000003590+Z
130057001130057031-000868-A   130057006001023798534P/FRAME PL BLCK 10X15CM0000001000+00002192+00000+0001T   00002192+0000001429          1400 V65510               2AZ
130057002130057903-004963     130057008410525221873SWT GUMMY SOUR COLA 50g0000001000+00000964+00000+0001T   00000964+0000001429          1400 V65150               2AZ
130058000130058               130058               170213KK     1400+00000+KK0000008765+0000008765+000000000+000001230+0000009995+0000000000+I40000009995+0000000000+Z
130058001130058037-000004     130058006001023763679ASHTRAY PL TUB 8X11CM  0000002000+00001753+00000+0001T   00002192+0008191431          1400 V65515               2AZ
130058002130058204-083002     130058006008766083002M/HOLD BUTTERFLIES 4PCE0000003000+00001753+00000+0001T   00001753+0000001431          1400 V65300               2AZ
130059000130059               130059               170213KK     1400+00000+KK0000011837+0000011837+000000000+000001658+0000013490+0000000005+I20000000000+0000013490+Z
130059001130059301-085001     130059006003000297610ORN WATERBALL LOVE ASST0000001000+00004823+00000+0001T   00004823+0000001431          1400 V65505               2AZ
130059002130059018-000136     130059006001023659026MUG OCC LOVE W/PLUSH   0000002000+00003507+00000+0001T   00003507+0000001431          1400 V65515               2AZ
130060000130060               130060               170213KK     1400+00000+KK0000001226+0000001226+000000000+000000172+0000001390+0000000008+I20000000000+0000001390+Z
130060001130060304-001011     130060006001023806727FLWR ROSE RED W/BEAR   0000002000+00000613+00000+0001T   00000788+0006471432          1400 V65510               2AZ
130061000130061               130061               170213KK     1400+00000+KK0000001226+0000001226+000000000+000000172+0000001390+0000000008+I20000000000+0000001390+Z
130061001130061077-000311     130061006001023608666GIFT-BAG 11X14CM GLOSS 0000002000+00000613+00000+0001T   00000613+0000001439          1400 V65112               2AZ
130062000130062               130062               170213KK     1400+00000+KK0000001490+0000001490+000000000+000000209+0000001690+0000000009+I20000000000+0000001690+Z
130062001130062077-000299     130062006003000395576G/BAG 32x25cm LRG LOVE 0000001000+00001490+00000+0001T   00001490+0000001442          1400 V65112               2AZ
130063000130063               130063               170213KK     1400+00000+KK0000003507+0000003507+000000000+000000491+0000003998+0000000000+I40000003998+0000000000+Z
130063001130063133-000010-B   130063006003000682850CLEANING CLOTH ROLL 25 0000001000+00003507+00000+0001T   00003507+0000001447          1400 V65212               2AZ
130064000130064               130064               170213KK     1400+00000+KK0000012963+0000012963+000000000+000001818+0000014781+0000000000+I40000014781+0000000000+Z
130064001130064046-002025-PK2 130064004897006174868BATTERIES CR-2025  2PCE0000001000+00001753+00000+0001T   00001753+0000001453          1400 V65312               2AZ
130064002130064016-006601     130064006001023446121S/JAR GLS MINI W/CLIP  0000001000+00001490+00000+0001T   00001490+0000001453          1400 V65300               2AZ
130064003130064108-003023     130064006003000665471TUMBLER W/STRAW 550ml  0000001000+00002630+00000+0001T   00002630+0000001453          1400 V65210               2AZ
130064004130064016-006524     130064006003000579358S/JAR GLS 750ml ASSTD  0000001000+00005262+00000+0001T   00005262+0000001453          1400 V65300               2AZ
130064005130064903-000070     130064006001704001106SWT TOFFEE CREAMY 35g  0000002000+00000700+00000+0001T   00000700+0000001453          1400 V65150               2AZ
130064006130064903-000183     130064006003000451043SWT LB HEART LOLLY     0000001000+00000393+00000+0001T   00000393+0000001453          1400 V65150               2AZ
130064007130064112-116038     130064006009681820246TCS CARRIER BAG MIDI   0000001000+00000035+00000+0001T   00000035+0000001453          1400 V65090               2AZ
130065000130065               130065               170213KK     1400+00000+KK0000000876+0000000876+000000000+000000123+0000000990+0000000009+I20000000000+0000000990+Z
130065001130065071-001012     130065006001023474445MARKERS BLACK ROUND    0000001000+00000876+00000+0001T   00000876+0000001454          1400 V65130               2AZ
130066000130066               130066               170213KK     1400+00000+KK0000003101+0000003101+000000000+000000435+0000003530+0000000006+I20000000000+0000003530+Z
130066001130066006-000166-G   130066006003000607976BALLOONS HELIUM 6PC BLK0000001000+00001314+00000+0001T   00001314+0000001459          1400 V65131               2AZ
130066002130066039-000323     130066006001023524171BIRTHDAY-CANDLES 24PCE 0000002000+00000876+00000+0001T   00000876+0000001459          1400 V65510               2AZ
130066003130066112-116038     130066006009681820246TCS CARRIER BAG MIDI   0000001000+00000035+00000+0001T   00000035+0000001459          1400 V65090               2AZ
130067000130067               130067               170213KK     1400+00000+KK0000001578+0000001578+000000000+000000221+0000001790+0000000009+I20000000000+0000001790+Z
130067001130067080-000124     130067006003000297733CARD & ENV VALENTINES  0000001000+00001578+00000+0001T   00001578+0000001520          1400 V65112               2AZ
130068000130068               130068               170213KK     1400+00000+KK0000005699+0000005699+000000000+000000798+0000006497+0000000000+I40000006497+0000000000+Z
130068001130068018-000170     130068006001023775528MUG OCC. LOVE 2PC MINI 0000001000+00002192+00000+0001T   00002192+0000001524          1400 V65515               2AZ
130068002130068018-005009     130068006001023725608MUG W/PLUSH-BEAR LOVE  0000001000+00003507+00000+0001T   00003507+0000001524          1400 V65515               2AZ
130069000130069               130069               170213KK     1400+00000+KK0000002628+0000002628+000000000+000000369+0000002990+0000000007+I20000000000+0000002990+Z
130069001130069071-001019     130069006001023474513MARKER BLACK NAME-PEN  0000003000+00000876+00000+0001T   00000876+0000001529          1400 V65130               2AZ
130070000130070               130070               170213KK     1400+00000+KK0000001572+0000001572+000000000+000000224+0000001790+0000000006+I20000000000+0000001790+Z
130070001130070903-000183     130070006003000451043SWT LB HEART LOLLY     0000004000+00000393+00000+0001T   00000393+0000001532          1400 V65150               2AZ
130071000130071               130071               170213KK     1400+00000+KK0000013187+0000013187+000000000+000001849+0000015036+0000000000+I10000005036+0000010000+Z
130071001130071301-085007     130071006003000673698ORN OCC. LOVE S/PLAQUE 0000001000+00007893+00000+0001T   00007893+0000001538          1400 V65505               2AZ
130071002130071089-060027     130071006003000245871KEY-CHAIN HEART 6X6cm  0000001000+00003069+00000+0001T   00003069+0000001538          1400 V65205               2AZ
130071003130071903-000912     130071006009802868461SWT GUM TAPE HOT WHEELS0000001000+00001753+00000+0001T   00001753+0000001538          1400 V65150               2AZ
130071004130071112-116038     130071006009681820246TCS CARRIER BAG MIDI   0000001000+00000035+00000+0001T   00000035+0000001538          1400 V65090               2AZ
130071005130071080-000133-A   130071006003000647019MINI VALENTINES CARD   0000001000+00000437+00000+0001T   00000437+0000001538          1400 V65112               2AZ
130072000130072               130072               170213KK     1400+00000+KK0000001314+0000001314+000000000+000000184+0000001490+0000000008+I20000000000+0000001490+Z
130072001130072018-000119     130072006003000336074MUG DAILY STRAIGHT     0000001000+00001314+00000+0001T   00001753+0008171538          1400 V65515               2AZ
130073000130073               130073               170213KK     1400+00000+KK0000008011+0000008011+000000000+000001124+0000009130+0000000005+I20000000000+0000009130+Z
130073001130073024-000097     130073006001023770035MEASURING-SET 11PCE WHT0000001000+00002192+00000+0001T   00002192+0000001539          1400 V65300               2AZ
130073002130073200-000069     130073006003000664429STRAWS DRINKING PAPER  0000001000+00001753+00000+0001T   00001753+0000001539          1400 V65214               2AZ
130073003130073024-000038     130073006001023477026MEASURING-JUG 1L (4CUP)0000001000+00001753+00000+0001T   00001753+0000001539          1400 V65300               2AZ
130073004130073002-021040     130073006001023812216PARTY-PICKS 100PCE     0000001000+00000525+00000+0001T   00000525+0000001539          1400 V65300               2AZ
130073005130073038-092232     130073006001023625830TABLE-MAT N/SLIP 32x55 0000001000+00001753+00000+0001T   00001753+0000001539          1400 V65300               2AZ
130073006130073112-116038     130073006009681820246TCS CARRIER BAG MIDI   0000001000+00000035+00000+0001T   00000035+0000001539          1400 V65090               2AZ
130074000130074               130074               170213KK     1400+00000+KK0000006139+0000006139+000000000+000000860+0000006990+0000000009+I20000000000+0000006990+Z
130074001130074103-000071     130074006001023889713BASKET RECT 30X19X12cm 0000001000+00006139+00000+0001T   00006139+0000001604          1400 V65300               2AZ
130075000130075               130075               170213KK     1400+00000+KK0000011707+0000011707+000000000+000001641+0000013348+0000000000+I40000013348+0000000000+Z
130075001130075077-000303     130075006001023593757GIFT-BAG PAPER MED     0000001000+00001578+00000+0001T   00001578+0000001606          1400 V65112               2AZ
130075002130075018-000136     130075006001023659026MUG OCC LOVE W/PLUSH   0000002000+00003507+00000+0001T   00003507+0000001606          1400 V65515               2AZ
130075003130075030-000037     130075006003000430482PLAQUE GLS MOM W/FLOWER0000001000+00002630+00000+0001T   00002630+0000001606          1400 V65505               2AZ
130075004130075080-000133-A   130075006003000647019MINI VALENTINES CARD   0000001000+00000437+00000+0001T   00000437+0000001606          1400 V65112               2AZ
130075005130075112-116069     130075006009681820277TCS CARRIER BAG JUMBO  0000001000+00000048+00000+0001T   00000048+0000001606          1400 V65090               2AZ
130076000130076               130076               170213KK     1400+00000+KK0000000393+0000000393+000000000+000000056+0000000440+0000000009+I20000000000+0000000440+Z
130076001130076903-000183     130076006003000451043SWT LB HEART LOLLY     0000001000+00000393+00000+0001T   00000393+0000001619          1400 V65150               2AZ
130077000130077               130077               170213KK     1400+00000+KK0000004470+0000004470+000000000+000000627+0000005090+0000000007+I20000000000+0000005090+Z
130077001130077018-000170     130077006001023775528MUG OCC. LOVE 2PC MINI 0000001000+00002192+00000+0001T   00002192+0000001640          1400 V65515               2AZ
130077002130077903-000087     130077006001704000161SWT SPECKLED-EGGS 50G  0000002000+00001139+00000+0001T   00001139+0000001640          1400 V65150               2AZ
130078000130078               130078               170213KK     1400+00000+KK0000001753+0000001753+000000000+000000246+0000001990+0000000009+I20000000000+0000001990+Z
130078001130078200-003024     130078006001023657299REFUSE BAGS 20PCE BLACK0000001000+00001753+00000+0001T   00001753+0000001640          1400 V65214               2AZ
130079000130079               130079               170213KK     1400+00000+KK0000004385+0000004385+000000000+000000614+0000004990+0000000009+I20000000000+0000004990+Z
130079001130079368-000001     130079006003000097982Plush Bear 25cm        0000001000+00004385+00000+0001T   00004385+0000001641          1400 V65745               2AZ
130080000130080               130080               170213KK     1400+00000+KK0000002852+0000002852+000000000+000000401+0000003250+0000000003+I20000000000+0000003250+Z
130080001130080304-001204     130080006001023737984FLOWER OCC. TEDDY/ROSES0000002000+00001402+00000+0001T   00001490+0006471643          1400 V65510               2AZ
130080002130080112-116069     130080006009681820277TCS CARRIER BAG JUMBO  0000001000+00000048+00000+0001T   00000048+0000001643          1400 V65090               2AZ
130081000130081               130081               170213KK     1400+00000+KK0000001227+0000001227+000000000+000000172+0000001390+0000000009+I20000000000+0000001390+Z
130081001130081033-000013     130081006001023567215PILL-REMINDER PL       0000001000+00001227+00000+0001T   00001227+0000001643          1400 V65200               2AZ
130082000130082               130082               170213KK     1400+00000+KK0000005033+0000005033+000000000+000000705+0000005730+0000000008+I20000000000+0000005730+Z
130082001130082304-001011     130082006001023806727FLWR ROSE RED W/BEAR   0000001000+00000613+00000+0001T   00000788+0006471647          1400 V65510               2AZ
130082002130082368-000049     130082006003000536955PLUSH BEAR 15cm LOVE   0000001000+00004385+00000+0001T   00004385+0000001647          1400 V65745               2AZ
130082003130082112-116038     130082006009681820246TCS CARRIER BAG MIDI   0000001000+00000035+00000+0001T   00000035+0000001647          1400 V65090               2AZ
130083000130083               130083               170213KK     1400+00000+KK0000007362+0000007362+000000000+000001031+0000008390+0000000003+I20000000000+0000008390+Z
130083001130083082-000122-A   130083006003000403561READING GLS STRENGTH:1 0000001000+00005262+00000+0001T   00005262+0000001652          1400 V65160               2AZ
130083002130083567-010542     130083009781743461747PIXIE HELLO KITTY ASSTD0000001000+00000700+00000+0001T   00000876+0008131652          1400 V65757               2AZ
130083003130083567-010543     130083009781742488417PIXIE MY LITTLE PONY   0000002000+00000700+00000+0001T   00000876+0008131652          1400 V65757               2AZ
130084000130084               130084               170213KK     1400+00000+KK0000004032+0000004032+000000000+000000565+0000004590+0000000007+I20000000000+0000004590+Z
130084001130084018-005009     130084006001023725608MUG W/PLUSH-BEAR LOVE  0000001000+00003507+00000+0001T   00003507+0000001700          1400 V65515               2AZ
130084002130084903-000155     130084006009803374435SWT LOLLY I LUV U HEART0000001000+00000525+00000+0001T   00000525+0000001700          1400 V65150               2AZ
130085000130085               130085               170213KK     1400+00000+KK0000001575+0000001575+000000000+000000222+0000001797+0000000000+I40000001797+0000000000+Z
130085001130085903-000155     130085006009803374435SWT LOLLY I LUV U HEART0000003000+00000525+00000+0001T   00000525+0000001703          1400 V65150               2AZ
130086000130086               130086               170213KK     1400+00000+KK0000005262+0000005262+000000000+000000737+0000005990+0000000009+I20000000000+0000005990+Z
130086001130086301-085003     130086006003000420827ORN OCCASION LOVE KEY  0000001000+00005262+00000+0001T   00005262+0000001713          1400 V65505               2AZ
A17021300                                          14233549KKSLAVE 2                       V652IC
A17021301                                          15343636KKSLAVE 2                       V652IC
A17021302                                          16575428KKSLAVE 2                       V653IC
M17021302                              IT DEPT     KKMARGATE KK ATT:BASIL                                                                            LAST SALES NUMBER FOR SLAVE 2 IS 130085
M17021391                              CASH        KKSLAVE 2                       Z-REPORT No.   618TOTAL (Sales - Refunds)           4263.68       CASH TO BE BANKED                 2034.40       DEBIT CARDS                          0.00       CREDIT CARDS                      2229.28       Z-READING                         4263.68       AIRTIME DEBIT CARD SALES             0.00       AIRTIME CARD SALES                   0.00       OVERS/UNDERS                         0.00       AIRTIME CASH SALES                   0.00       GIFT CARDS                           0.00       GIFT CARD CASH SALES                 0.00       T O T A L  CASH PAYOUTS              0.00                                                                                                                                                                                                                                                                                                                                                      Z
M17021392                              CASH        KKABSENT                                                                                                                                                                                          ANNUAL LEAVE                                                                                                                                                                                    DAY OFF                                                                                                                                                                                         COMMENTS                                                                                                                                                                                                                                                                                                                                                                                       Z
Y17021300                                          KK00000000374227+000059
ZKK17021319583 SLAVE 2      SALES DATA                     NEXT INVOICE NO.  130087 0618
X KK Slave 2 First invoice 130028 170213 Last invoice 130086 170213 Next invoice 130087 Total number of records 000000222 clbackup completed 19:58:00
