195842000195842               195842               170213KL     1400+00000+KL0000002628+0000002628+000000000+000000368+0000002990+0000000006+I20000000000+0000002990+Z
195842001195842077-000310     195842006001023608635GIFT-BAG 18X23CM GLOSS 0000002000+00001314+00000+0001T   00001314+0000001006          1400 JA9112               1AZ
195843000195843               195843               170213KL     1400+00000+KL0000004382+0000004382+000000000+000000615+0000004990+0000000007+I20000000000+0000004990+Z
195843001195843077-000316     195843006001023609731GIFT-BAG 25X32CM MATT  0000001000+00001753+00000+0001T   00001753+0000001008          1400 JA9112               1AZ
195843002195843077-000150-D   195843006003000054343GIFT-WRAP CELLPHANE CLR0000001000+00000876+00000+0001T   00000876+0000001008          1400 JA9112               1AZ
195843003195843077-000457     195843006003000285662G/BAG METALLIC JMB SOL 0000001000+00001753+00000+0001T   00001753+0000001008          1400 JA9112               1AZ
195844000195844               195844               170213KL     1400+00000+KL0000001753+0000001753+000000000+000000246+0000001990+0000000009+I20000000000+0000001990+Z
195844001195844046-002013-PK6 195844004897006174851BATTERY BUTTON AG13 6PC0000001000+00001753+00000+0001T   00001753+0000001009          1400 JA9312               1AZ
195845000195845               195845               170213KL     1400+00000+KL0000000700+0000000700+000000000+000000098+0000000790+0000000008+I20000000000+0000000790+Z
195845001195845007-000166     195845006009685857316SPIRAL NOTES A6 100PG  0000001000+00000700+00000+0001T   00000700+0000001011          1400 JA9130               1AZ
195846000195846               195846               170213KL     1400+00000+KL0000004782+0000004782+000000000+000000670+0000005452+0000000000+I40000005452+0000000000+Z
195846001195846077-000245     195846006001023759214GIFT-RIBBON METALLICx2 0000001000+00001227+00000+0001T   00001227+0000001017          1400 JA9112               1AZ
195846002195846007-000324     19584600600968585864125 SHEETS BRIGHTS MARLI0000001000+00003507+00000+0001T   00003507+0000001017          1400 JA9130               1AZ
195846003195846112-116069     195846006009681820277TCS CARRIER BAG JUMBO  0000001000+00000048+00000+0001T   00000048+0000001017          1400 JA9090               1AZ
195847000195847               195847               170213KL     1400+00000+KL0000008769+0000008769+000000000+000001229+0000009990+0000000008+I20000000000+0000009990+Z
195847001195847018-050000     195847006003000412679MUG OCC LOVE TWIN BEAR 0000001000+00006139+00000+0001T   00006139+0000001018          1400 JA9515               1AZ
195847002195847007-000602     195847006003000541270BOOK COVER 2M SOLID COL0000001000+00002630+00000+0001T   00002630+0000001018          1400 JA9130               1AZ
195848000195848               195848               170213KL     1400+00000+KL0000003507+0000003507+000000000+000000491+0000003998+0000000000+I40000003998+0000000000+Z
195848001195848018-000130     195848006001023867537MUG OCC LOVE MINI+HEART0000001000+00003507+00000+0001T   00003507+0000001301          1400 JA9515               1AZ
195849000195849               195849               170213KL     1400+00000+KL0000002630+0000002630+000000000+000000369+0000002990+0000000009+I20000000000+0000002990+Z
195849001195849466-000513     195849006003000515561BALL CRICKET RUBBER    0000001000+00002630+00000+0001T   00002630+0000001304          1400 JA9785               1AZ
195850000195850               195850               170213KL     1400+00000+KL0000003506+0000003506+000000000+000000492+0000003990+0000000008+I20000000000+0000003990+Z
195850001195850077-000382     195850006003000247820GIFT-BAG MED 18X23CM   0000002000+00001753+00000+0001T   00001753+0000001307          1400 JA9112               1AZ
195851000195851               195851               170213KL     1400+00000+KL0000023229+0000023229+000000000+000003258+0000026487+0000000000+I40000026487+0000000000+Z
195851001195851027-000194     195851006001246602472MOP COMPLETE           0000001000+00002279+00000+0001T   00002279+0000001313          1400 JA9212               1AZ
195851002195851107-004105     195851006002923010504BUCKET 9L OPEN         0000001000+00001314+00000+0001T   00001314+0000001313          1400 JA9210               1AZ
195851003195851251-000041     195851006001023515889SEAL-TAPE BUFF 48mmx50m0000001000+00001227+00000+0001T   00001227+0000001313          1400 JA9810               1AZ
195851004195851027-078343     195851006008766078343SCRUB-BRUSH IRON-SHAPE 0000001000+00001139+00000+0001T   00001578+0008191313          1400 JA9212               1AZ
195851005195851036-000605     195851006001023158611WASHING-PEGS WDN PCK-240000001000+00001490+00000+0001T   00001490+0000001313          1400 JA9212               1AZ
195851006195851027-009025     195851006003962000747DUSTPAN-SET PL         0000001000+00002630+00000+0001T   00002630+0000001313          1400 JA9212               1AZ
195851007195851027-783002     195851006001023874658SCOURERS FOAM PACK OF 30000001000+00001490+00000+0001T   00001490+0000001313          1400 JA9212               1AZ
195851008195851047-000507     195851006001023684479PLUG-ADAPTOR EURO TWIN 0000001000+00001753+00000+0001T   00001753+0000001313          1400 JA9880               1AZ
195851009195851159-080352     195851006916920733314HOOKS 3PCE             0000001000+00001490+00000+0001T   00001490+0000001313          1400 JA9200               1AZ
195851010195851020-000141     195851006001023629524STEAK-KNIVES P.P.CARD-60000001000+00004385+00000+0001T   00004385+0000001313          1400 JA9300               1AZ
195851011195851159-000445     195851006001023669728SOAP-BOX PL OVAL       0000001000+00001139+00000+0001T   00001139+0000001313          1400 JA9200               1AZ
195851012195851036-000151     195851006001023810588COATHANGERS    PACK-10 0000001000+00002893+00000+0001T   00002893+0000001313          1400 JA9212               1AZ
195852000195852               195852               170213KL     1400+00000+KL0000004383+0000004383+000000000+000000614+0000004990+0000000007+I20000000000+0000004990+Z
195852001195852018-005009     195852006001023725608MUG W/PLUSH-BEAR LOVE  0000001000+00003507+00000+0001T   00003507+0000001315          1400 JA9515               1AZ
195852002195852077-000150-D   195852006003000054343GIFT-WRAP CELLPHANE CLR0000001000+00000876+00000+0001T   00000876+0000001315          1400 JA9112               1AZ
195853000195853               195853               170213KL     1400+00000+KL0000019343+0000019343+000000000+000002709+0000022050+0000000002+I20000000000+0000022050+Z
195853001195853028-001999     195853006001023759535G/CHAIR-COVER 60x60x1100000001000+00003507+00000+0001T   00003507+0000001319          1400 JA9305               1AZ
195853002195853301-001123     195853000694202803967ORN FOUNTAIN MEDITATION0000001000+00015788+00000+0001T   00015788+0000001319          1400 JA9505               1AZ
195853003195853112-116069     195853006009681820277TCS CARRIER BAG JUMBO  0000001000+00000048+00000+0001T   00000048+0000001319          1400 JA9090               1AZ
195854000195854               195854               170213KL     1400+00000+KL0000021928+0000021928+000000000+000003070+0000024998+0000000000+I40000024998+0000000000+Z
195854001195854466-000004     195854006003000469819PLAY-TENT POP-UP BOY   0000001000+00021928+00000+0001T   00021928+0000001321          1400 JA9785               1AZ
195855000195855               195855               170213KL     1400+00000+KL0000007050+0000007050+000000000+000000988+0000008030+0000000008+I20000000000+0000008030+Z
195855001195855024-000092     195855006003000426805MEASURING-SET 6PC      0000001000+00003946+00000+0001T   00003946+0000001323          1400 JA9300               1AZ
195855002195855024-000069     195855006001023849571EGG-WHISK S/S 30cm     0000001000+00003069+00000+0001T   00003069+0000001323          1400 JA9300               1AZ
195855003195855112-116038     195855006009681820246TCS CARRIER BAG MIDI   0000001000+00000035+00000+0001T   00000035+0000001323          1400 JA9090               1AZ
195856000195856               195856               170213KL     1400+00000+KL0000002630+0000002630+000000000+000000369+0000002990+0000000009+I20000000000+0000002990+Z
195856001195856004-071192     195856006003000528813USB CABLE 1.0m         0000001000+00002630+00000+0001T   00002630+0000001324          1400 JA9310               1AZ
195857000195857               195857               170213KL     1400+00000+KL0000005216+0000005216+000000000+000000732+0000005940+0000000008+I20000000000+0000005940+Z
195857001195857903-000183     195857006003000451043SWT LB HEART LOLLY     0000001000+00000393+00000+0001T   00000393+0000001325          1400 JA9150               1AZ
195857002195857301-085001     195857006003000297610ORN WATERBALL LOVE ASST0000001000+00004823+00000+0001T   00004823+0000001325          1400 JA9505               1AZ
195858000195858               195858               170213KL     1400+00000+KL0000003330+0000003330+000000000+000000467+0000003790+0000000007+I20000000000+0000003790+Z
195858001195858206-000390     195858006003000631438STRAW PL BUILD A STRAW 0000001000+00002630+00000+0001T   00002630+0000001326          1400 JA9321               1AZ
195858002195858565-000256     195858006003000609826NOVELTY GLOW SLIME     0000001000+00000700+00000+0001T   00000700+0000001326          1400 JA9745               1AZ
195859000195859               195859               170213KL     1400+00000+KL0000009776+0000009776+000000000+000001372+0000011140+0000000008+I20000000000+0000011140+Z
195859001195859027-000081     195859006001023760371SCOURING PADS 10PCE    0000001000+00001139+00000+0001T   00001139+0000001328          1400 JA9212               1AZ
195859002195859078-013424     195859006008741000338CONTACT-ADHESIVE 50ml  0000001000+00001578+00000+0001T   00001578+0000001328          1400 JA9810               1AZ
195859003195859306-000993     195859006003000560110FIRSTAID PLASTER 75PC  0000001000+00002630+00000+0001T   00002630+0000001328          1400 JA9200               1AZ
195859004195859105-001005     195859006001023858214CONTAINERS MINI 6PCE   0000001000+00001402+00000+0001T   00001402+0000001328          1400 JA9210               1AZ
195859005195859047-000504-H   195859006001023589958PLUG EURODAPTOR 2PIN HH0000001000+00001665+00000+0001T   00001665+0000001328          1400 JA9880               1AZ
195859006195859046-000012     195859006904708013062BATTERIES AA  CARD-OF-40000001000+00001314+00000+0001T   00001314+0000001328          1400 JA9312               1AZ
195859007195859112-116069     195859006009681820277TCS CARRIER BAG JUMBO  0000001000+00000048+00000+0001T   00000048+0000001328          1400 JA9090               1AZ
195860000195860               195860               170213KL     1400+00000+KL0000005873+0000005873+000000000+000000824+0000006690+0000000007+I20000000000+0000006690+Z
195860001195860301-085008     195860006003000673933ORN OCC.LOVE TINSEL HRT0000001000+00003069+00000+0001T   00003069+0000001329          1400 JA9505               1AZ
195860002195860304-001204     195860006001023737984FLOWER OCC. TEDDY/ROSES0000002000+00001402+00000+0001T   00001490+0006471329          1400 JA9510               1AZ
195861000195861               195861               170213KL     1400+00000+KL0000001753+0000001753+000000000+000000246+0000001990+0000000009+I20000000000+0000001990+Z
195861001195861077-000457     195861006003000285662G/BAG METALLIC JMB SOL 0000001000+00001753+00000+0001T   00001753+0000001330          1400 JA9112               1AZ
195862000195862               195862               170213KL     1400+00000+KL0000011447+0000011447+000000000+000001604+0000013051+0000000000+I40000013051+0000000000+Z
195862001195862018-050000     195862006003000412679MUG OCC LOVE TWIN BEAR 0000001000+00006139+00000+0001T   00006139+0000001333          1400 JA9515               1AZ
195862002195862301-085004     195862006003000420469ORN LOVE PLAQUE 21X10CM0000001000+00003507+00000+0001T   00003946+0006471333          1400 JA9505               1AZ
195862003195862077-000316     195862006001023609731GIFT-BAG 25X32CM MATT  0000001000+00001753+00000+0001T   00001753+0000001333          1400 JA9112               1AZ
195862004195862112-116069     195862006009681820277TCS CARRIER BAG JUMBO  0000001000+00000048+00000+0001T   00000048+0000001333          1400 JA9090               1AZ
195863000195863               195863               170213KL     1400+00000+KL0000003542+0000003542+000000000+000000496+0000004030+0000000008+I20000000000+0000004030+Z
195863001195863018-000136     195863006001023659026MUG OCC LOVE W/PLUSH   0000001000+00003507+00000+0001T   00003507+0000001333          1400 JA9515               1AZ
195863002195863112-116038     195863006009681820246TCS CARRIER BAG MIDI   0000001000+00000035+00000+0001T   00000035+0000001333          1400 JA9090               1AZ
195864000195864               195864               170213KL     1400+00000+KL0000006575+0000006575+000000000+000000922+0000007497+0000000000+I40000007497+0000000000+Z
195864001195864028-000796-A   195864006001023897152SKEWERS BAMBOO 100P 4mm0000001000+00001753+00000+0001T   00001753+0000001335          1400 JA9305               1AZ
195864002195864080-000133-A   195864006003000647019MINI VALENTINES CARD   0000001000+00000437+00000+0001T   00000437+0000001335          1400 JA9112               1AZ
195864003195864490-044672     195864000078257446728INTEX 3D BOP BAG ASSTD 0000001000+00004385+00000+0001T   00004385+0000001335          1400 JA9787               1AZ
195865000195865               195865               170213KL     1400+00000+KL0000004031+0000004031+000000000+000000566+0000004590+0000000007+I20000000000+0000004590+Z
195865001195865040-000210     195865006003000657810CANDLE+HOLDER GLS 6cm  0000002000+00001139+00000+0001T   00001139+0000001336          1400 JA9510               1AZ
195865002195865037-000004     195865006001023763679ASHTRAY PL TUB 8X11CM  0000001000+00001753+00000+0001T   00002192+0008191336          1400 JA9515               1AZ
195866000195866               195866               170213KL     1400+00000+KL0000003507+0000003507+000000000+000000491+0000003990+0000000008+I20000000000+0000003990+Z
195866001195866301-085004     195866006003000420469ORN LOVE PLAQUE 21X10CM0000001000+00003507+00000+0001T   00003946+0006471336          1400 JA9505               1AZ
195867000195867               195867               170213KL     1400+00000+KL0000009853+0000009853+000000000+000001381+0000011234+0000000000+I40000011234+0000000000+Z
195867001195867304-001204     195867006001023737984FLOWER OCC. TEDDY/ROSES0000002000+00001402+00000+0001T   00001490+0006471339          1400 JA9510               1AZ
195867002195867301-085004     195867006003000420469ORN LOVE PLAQUE 21X10CM0000001000+00003507+00000+0001T   00003946+0006471339          1400 JA9505               1AZ
195867003195867018-000130     195867006001023867537MUG OCC LOVE MINI+HEART0000001000+00003507+00000+0001T   00003507+0000001339          1400 JA9515               1AZ
195867004195867112-116038     195867006009681820246TCS CARRIER BAG MIDI   0000001000+00000035+00000+0001T   00000035+0000001339          1400 JA9090               1AZ
195868000195868               195868               170213KL     1400+00000+KL0000001753+0000001753+000000000+000000246+0000001990+0000000009+I20000000000+0000001990+Z
195868001195868077-000324     195868006001023677594GIFT-BAG 33X45CM E/D FL0000001000+00001753+00000+0001T   00001753+0000001342          1400 JA9112               1AZ
195869000195869               195869               170213KL     1400+00000+KL0000003542+0000003542+000000000+000000496+0000004038+0000000000+I40000004038+0000000000+Z
195869001195869018-000130     195869006001023867537MUG OCC LOVE MINI+HEART0000001000+00003507+00000+0001T   00003507+0000001348          1400 JA9515               1AZ
195869002195869112-116038     195869006009681820246TCS CARRIER BAG MIDI   0000001000+00000035+00000+0001T   00000035+0000001348          1400 JA9090               1AZ
195870000195870               195870               170213KL     1400+00000+KL0000003507+0000003507+000000000+000000491+0000003990+0000000008+I20000000000+0000003990+Z
195870001195870018-000130     195870006001023867537MUG OCC LOVE MINI+HEART0000001000+00003507+00000+0001T   00003507+0000001349          1400 JA9515               1AZ
195871000195871               195871               170213KL     1400+00000+KL0000002192+0000002192+000000000+000000307+0000002490+0000000009+I20000000000+0000002490+Z
195871001195871080-000127     195871006003000424351VALENTINES DAY 36x24CM 0000001000+00002192+00000+0001T   00002192+0000001349          1400 JA9112               1AZ
195872000195872               195872               170213KL     1400+00000+KL0000002630+0000002630+000000000+000000369+0000002999+0000000000+I40000002999+0000000000+Z
195872001195872046-000011-A   195872006003000438891BATTERIES SIZE:AA  4PCE0000001000+00002630+00000+0001T   00002630+0000001354          1400 JA9312               1AZ
195873000195873               195873               170213KL     1400+00000+KL0000006173+0000006173+000000000+000000865+0000007038+0000000000+I40000007038+0000000000+Z
195873001195873077-000011-X   195873006001023809827TISSUE-WRAP SILVER 10PC0000001000+00001753+00000+0001T   00001753+0000001356          1400 JA9112               1AZ
195873002195873104-000030     195873006001023803481BASKET PL 28x20x12cm   0000001000+00004385+00000+0001T   00004385+0000001356          1400 JA9210               1AZ
195873003195873112-116038     195873006009681820246TCS CARRIER BAG MIDI   0000001000+00000035+00000+0001T   00000035+0000001356          1400 JA9090               1AZ
195874000195874               195874               170213KL     1400+00000+KL0000001753+0000001753+000000000+000000246+0000001990+0000000009+I20000000000+0000001990+Z
195874001195874012-000001     195874006003000331048MICRO PLATE-COVER 26X6 0000001000+00001753+00000+0001T   00002192+0008191405          1400 JA9300               1AZ
195875000195875               195875               170213KL     1400+00000+KL0000007892+0000007892+000000000+000001106+0000008998+0000000000+I40000008998+0000000000+Z
195875001195875006-000120     195875006001023346889BALLOONS 10PC MIX COL  0000001000+00001753+00000+0001T   00001753+0000001406          1400 JA9131               1AZ
195875002195875494-059380     195875000078257593804BOAT 102cm POOL-CRUISER0000001000+00006139+00000+0001T   00006139+0000001406          1400 JA9787               1AZ
195876000195876               195876               170213KL     1400+00000+KL0000006187+0000006187+000000000+000000867+0000007054+0000000000+I40000007054+0000000000+Z
195876001195876301-001127     195876006946859290169ORN FOUNTAIN CAS/W.FALL0000001000+00006139+00000+0001T   00006139+0000001409          1400 JA9505               1AZ
195876002195876112-116069     195876006009681820277TCS CARRIER BAG JUMBO  0000001000+00000048+00000+0001T   00000048+0000001409          1400 JA9090               1AZ
195877000195877               195877               170213KL     1400+00000+KL0000001314+0000001314+000000000+000000184+0000001490+0000000008+I20000000000+0000001490+Z
195877001195877077-000310     195877006001023608635GIFT-BAG 18X23CM GLOSS 0000001000+00001314+00000+0001T   00001314+0000001527          1400 JA9112               1AZ
195878000195878               195878               170213KL     1400+00000+KL0000002804+0000002804+000000000+000000394+0000003190+0000000008+I20000000000+0000003190+Z
195878001195878304-001204     195878006001023737984FLOWER OCC. TEDDY/ROSES0000002000+00001402+00000+0001T   00001490+0006471544          1400 JA9510               1AZ
195879000195879               195879               170213KL     1400+00000+KL0000000613+0000000613+000000000+000000086+0000000690+0000000009+I20000000000+0000000690+Z
195879001195879077-000321     195879006001023677501GIFT-BAG 11X14CM E/D FL0000001000+00000613+00000+0001T   00000613+0000001547          1400 JA9112               1AZ
195880000195880               195880               170213KL     1400+00000+KL0000000613+0000000613+000000000+000000086+0000000690+0000000009+I20000000000+0000000690+Z
195880001195880077-000321     195880006001023677501GIFT-BAG 11X14CM E/D FL0000001000+00000613+00000+0001T   00000613+0000001548          1400 JA9112               1AZ
195881000195881               195881               170213KL     1400+00000+KL0000000700+0000000700+000000000+000000098+0000000790+0000000008+I20000000000+0000000790+Z
195881001195881903-000120     195881006002099001665SWEET GS ZILLIONS 50g  0000001000+00000700+00000+0001T   00000700+0000001553          1400 JA9150               1AZ
195882000195882               195882               170213KL     1400+00000+KL0000000437+0000000437+000000000+000000062+0000000490+0000000009+I20000000000+0000000490+Z
195882001195882080-000133     195882006003000535613CARD&ENV MINI ASTD DSGN0000001000+00000437+00000+0001T   00000437+0000001557          1400 JA9112               1AZ
195883000195883               195883               170213KL     1400+00000+KL0000006139+0000006139+000000000+000000860+0000006990+0000000009+I20000000000+0000006990+Z
195883001195883002-000097     195883006001023489784CAN-OPENER             0000001000+00006139+00000+0001T   00006139+0000001600          1400 JA9300               1AZ
195884000195884               195884               170213KL     1400+00000+KL0000000876+0000000876+000000000+000000123+0000000990+0000000009+I20000000000+0000000990+Z
195884001195884071-001238     195884000060107212485ERASERS  3PCE    CARDED0000001000+00000876+00000+0001T   00000876+0000001604          1400 JA9130               1AZ
195885000195885               195885               170213KL     1400+00000+KL0000003506+0000003506+000000000+000000492+0000003990+0000000008+I20000000000+0000003990+Z
195885001195885565-000084     195885006003000643431NOVELTY CATAPULT B/FLY 0000001000+00001753+00000+0001T   00001753+0000001611          1400 JA9745               1AZ
195885002195885365-000001     195885006003000395262PLAY SET DOCTORS SET   0000001000+00001753+00000+0001T   00001753+0000001611          1400 JA9725               1AZ
195886000195886               195886               170213KL     1400+00000+KL0000011447+0000011447+000000000+000001604+0000013051+0000000000+I40000013051+0000000000+Z
195886001195886301-085007     195886006003000673698ORN OCC. LOVE S/PLAQUE 0000001000+00007893+00000+0001T   00007893+0000001617          1400 JA9505               1AZ
195886002195886077-000470     195886006003000330171G-BAG DESGN SML 11X14CM0000001000+00001314+00000+0001T   00001314+0000001617          1400 JA9112               1AZ
195886003195886080-000127     195886006003000424351VALENTINES DAY 36x24CM 0000001000+00002192+00000+0001T   00002192+0000001617          1400 JA9112               1AZ
195886004195886112-116069     195886006009681820277TCS CARRIER BAG JUMBO  0000001000+00000048+00000+0001T   00000048+0000001617          1400 JA9090               1AZ
195887000195887               195887               170213KL     1400+00000+KL0000001795+0000001795+000000000+000000253+0000002048+0000000000+I40000002048+0000000000+Z
195887001195887304-001204     195887006001023737984FLOWER OCC. TEDDY/ROSES0000001000+00001402+00000+0001T   00001490+0006471628          1400 JA9510               1AZ
195887002195887903-000183     195887006003000451043SWT LB HEART LOLLY     0000001000+00000393+00000+0001T   00000393+0000001628          1400 JA9150               1AZ
195888000195888               195888               170213KL     1400+00000+KL0000002240+0000002240+000000000+000000314+0000002550+0000000004+I20000000000+0000002550+Z
195888001195888080-000127     195888006003000424351VALENTINES DAY 36x24CM 0000001000+00002192+00000+0001T   00002192+0000001629          1400 JA9112               1AZ
195888002195888112-116069     195888006009681820277TCS CARRIER BAG JUMBO  0000001000+00000048+00000+0001T   00000048+0000001629          1400 JA9090               1AZ
195889000195889               195889               170213KL     1400+00000+KL0000021047+0000021047+000000000+000002949+0000023996+0000000000+I40000023996+0000000000+Z
195889001195889368-000111     195889006001023780812PLUSH BEAR/DOG 29CM    0000001000+00012279+00000+0001T   00012279+0000001631          1400 JA9745               1AZ
195889002195889301-085001     195889006003000297610ORN WATERBALL LOVE ASST0000001000+00004823+00000+0001T   00004823+0000001631          1400 JA9505               1AZ
195889003195889080-000127     195889006003000424351VALENTINES DAY 36x24CM 0000001000+00002192+00000+0001T   00002192+0000001631          1400 JA9112               1AZ
195889004195889077-000457     195889006003000285662G/BAG METALLIC JMB SOL 0000001000+00001753+00000+0001T   00001753+0000001631          1400 JA9112               1AZ
195890000195890               195890               170213KL     1400+00000+KL0000001753+0000001753+000000000+000000246+0000001990+0000000009+I20000000000+0000001990+Z
195890001195890200-003024     195890006001023657299REFUSE BAGS 20PCE BLACK0000001000+00001753+00000+0001T   00001753+0000001655          1400 JA9214               1AZ
195891000195891               195891               170213KL     1400+00000+KL0000004031+0000004031+000000000+000000565+0000004590+0000000006+I20000000000+0000004590+Z
195891001195891071-081100-A   195891006003000326426GLUE-STICK 25g 2pk     0000001000+00001490+00000+0001T   00001490+0000001656          1400 JA9130               1AZ
195891002195891079-000010     195891006001023173409P/CRAYONS 12-COL SHORT 0000001000+00001227+00000+0001T   00001227+0000001656          1400 JA9130               1AZ
195891003195891071-003866     195891006003000590018PENCIL NOVELTY RULER   0000001000+00001314+00000+0001T   00001314+0000001656          1400 JA9130               1AZ
195892000195892               195892               170213KL     1400+00000+KL0000008331+0000008331+000000000+000001167+0000009490+0000000008+I20000000000+0000009490+Z
195892001195892039-000798     195892006001023617774CANDLES TEALITE BOX-50 0000001000+00006139+00000+0001T   00006139+0000001700          1400 JA9510               1AZ
195892002195892077-000309-A   195892006003000671007GIFT-BAG HOLOGRAM JMB  0000001000+00002192+00000+0001T   00002192+0000001700          1400 JA9112               1AZ
195893000195893               195893               170213KL     1400+00000+KL0000006139-0000006139-000000000+000000860-0000007000-0000000001+I20000000000+0000007000-Z
195893001195893039-000798     195893006001023617774CANDLES TEALITE BOX-50 0000001000-00006139+00000+0001T   00006139+0000001701          1400 JA95101IC            1 Z
195894000195894               195894               170213KL     1400+00000+KL0000006139+0000006139+000000000+000000860+0000006990+0000000009+I20000000000+0000006990+Z
195894001195894039-000798     195894006001023617774CANDLES TEALITE BOX-50 0000001000+00006139+00000+0001T   00006139+0000001702          1400 JA9510               1AZ
195895000195895               195895               170213KL     1400+00000+KL0000000876+0000000876+000000000+000000123+0000000990+0000000009+I20000000000+0000000990+Z
195895001195895077-000302     195895008010410010195GIFT-BAG 18X23CM E/D   0000001000+00000876+00000+0001T   00000876+0000001704          1400 JA9112               1AZ
A17021300                                          09243730KLSLAVE 1                       JA91IC
A17021301                                          16063529KLSLAVE 1                       JA91IC
M17021391                              CASH        KLSLAVE 1                       Z-REPORT No.   620TOTAL (Sales - Refunds)           3192.59       CASH TO BE BANKED                 1573.20       DEBIT CARDS                          0.00       CREDIT CARDS                         0.00       Z-READING                         3192.59       AIRTIME DEBIT CARD SALES             0.00       AIRTIME CARD SALES                   0.00       OVERS/UNDERS                      1619.39-      AIRTIME CASH SALES                   0.00       GIFT CARDS                           0.00       GIFT CARD CASH SALES                 0.00       T O T A L  CASH PAYOUTS              0.00                                                                                                                                                                                                                                                                                                                                                      Z
M17021392                              CASH        KLABSENT                                                                                                                                                                                          ANNUAL LEAVE                                                                                                                                                                                    DAY OFF                                                                                                                                                                                         COMMENTS                                                                                                                                                                                                                                                                                                                                                                                       Z
Y17021300                                          KL00000000286413+000053
ZKL17021319583 SLAVE 1      SALES DATA                     NEXT INVOICE NO.  195896 0620
X KL Slave 1 First invoice 195842 170213 Last invoice 195895 170213 Next invoice 195896 Total number of records 000000171 clbackup completed 19:58:12
