207525000207525               207525               170213KL     1400+00000+KL0000004383+0000004383+000000000+000000615+0000004990+0000000008+I20000000000+0000004990+Z
207525001207525206-000220     207525006003000631704EGG TIMER COLOUR-CHANGE0000001000+00002630+00000+0001T   00002630+0000000905          1400 DK8321               2AZ
207525002207525306-000981     207525006003000559718FIRSTAID PLASTER 1PC   0000001000+00001753+00000+0001T   00001753+0000000905          1400 DK8200               2AZ
207526000207526               207526               170213KL     1400+00000+KL0000008185+0000008185+000000000+000001149+0000009330+0000000004+I20000000000+0000009330+Z
207526001207526037-000004     207526006001023763679ASHTRAY PL TUB 8X11CM  0000003000+00001753+00000+0001T   00002192+0008190919          1400 DK8515               2AZ
207526002207526105-001005     207526006001023858214CONTAINERS MINI 6PCE   0000001000+00001402+00000+0001T   00001402+0000000919          1400 DK8210               2AZ
207526003207526007-000167     207526006009685857347SPIRAL NOTES A7 72PG   0000001000+00000350+00000+0001T   00000350+0000000919          1400 DK8130               2AZ
207526004207526007-010192     207526006009635830536BOOK H/COVER A5 192PAGE0000001000+00001139+00000+0001T   00001139+0000000919          1400 DK8130               2AZ
207526005207526112-116038     207526006009681820246TCS CARRIER BAG MIDI   0000001000+00000035+00000+0001T   00000035+0000000919          1400 DK8090               2AZ
207527000207527               207527               170213KL     1400+00000+KL0000004120+0000004120+000000000+000000578+0000004690+0000000008+I20000000000+0000004690+Z
207527001207527048-000859     207527006003000423422TORCH 9 LED PL 3XAAA   0000001000+00001753+00000+0001T   00001753+0000000930          1400 DK8305               2AZ
207527002207527046-000010-A   207527006003000438778BATTERIES SIZE:AAA 4PCE0000001000+00002367+00000+0001T   00002367+0000000930          1400 DK8312               2AZ
207528000207528               207528               170213KL     1400+00000+KL0000005120+0000005120+000000000+000000717+0000005830+0000000007+I20000000000+0000005830+Z
207528001207528018-000136     207528006001023659026MUG OCC LOVE W/PLUSH   0000001000+00003507+00000+0001T   00003507+0000000938          1400 DK8515               2AZ
207528002207528080-000124     207528006003000297733CARD & ENV VALENTINES  0000001000+00001578+00000+0001T   00001578+0000000938          1400 DK8112               2AZ
207528003207528112-116038     207528006009681820246TCS CARRIER BAG MIDI   0000001000+00000035+00000+0001T   00000035+0000000938          1400 DK8090               2AZ
207529000207529               207529               170213KL     1400+00000+KL0000018463+0000018463+000000000+000002587+0000021050+0000000000+I40000021050+0000000000+Z
207529001207529301-085008     207529006003000673933ORN OCC.LOVE TINSEL HRT0000002000+00003069+00000+0001T   00003069+0000000944          1400 DK8505               2AZ
207529002207529301-085007     207529006003000673698ORN OCC. LOVE S/PLAQUE 0000001000+00007893+00000+0001T   00007893+0000000944          1400 DK8505               2AZ
207529003207529301-085000     207529006003000674299 ORN OCC. LOVE HEARTS  0000002000+00002192+00000+0001T   00002192+0000000944          1400 DK8505               2AZ
207529004207529112-116069     207529006009681820277TCS CARRIER BAG JUMBO  0000001000+00000048+00000+0001T   00000048+0000000944          1400 DK8090               2AZ
207530000207530               207530               170213KL     1400+00000+KL0000001314+0000001314+000000000+000000184+0000001490+0000000008+I20000000000+0000001490+Z
207530001207530077-000310     207530006001023608635GIFT-BAG 18X23CM GLOSS 0000001000+00001314+00000+0001T   00001314+0000000946          1400 DK8112               2AZ
207531000207531               207531               170213KL     1400+00000+KL0000017588+0000017588+000000000+000002464+0000020050+0000000002+I20000000000+0000020050+Z
207531001207531030-004015     207531006003000467624PLAQUE WDN SIGN 30X20CM0000001000+00009648+00000+0001T   00009648+0000000954          1400 DK8505               2AZ
207531002207531077-000457     207531006003000285662G/BAG METALLIC JMB SOL 0000001000+00001753+00000+0001T   00001753+0000000954          1400 DK8112               2AZ
207531003207531018-050000     207531006003000412679MUG OCC LOVE TWIN BEAR 0000001000+00006139+00000+0001T   00006139+0000000954          1400 DK8515               2AZ
207531004207531112-116069     207531006009681820277TCS CARRIER BAG JUMBO  0000001000+00000048+00000+0001T   00000048+0000000954          1400 DK8090               2AZ
207532000207532               207532               170213KL     1400+00000+KL0000001800+0000001800+000000000+000000253+0000002050+0000000003+I20000000000+0000002050+Z
207532001207532077-000011-F   207532006001023808431TISSUE-WRAP BLUE/LILAC 0000001000+00000876+00000+0001T   00000876+0000000955          1400 DK8112               2AZ
207532002207532077-000011-L   207532006001023808585P/TISSUE BRIGHT 10SHEET0000001000+00000876+00000+0001T   00000876+0000000955          1400 DK8112               2AZ
207532003207532112-116069     207532006009681820277TCS CARRIER BAG JUMBO  0000001000+00000048+00000+0001T   00000048+0000000955          1400 DK8090               2AZ
207533000207533               207533               170213KL     1400+00000+KL0000000648+0000000648+000000000+000000091+0000000730+0000000009+I20000000000+0000000730+Z
207533001207533077-000321     207533006001023677501GIFT-BAG 11X14CM E/D FL0000001000+00000613+00000+0001T   00000613+0000001002          1400 DK8112               2AZ
207533002207533112-116038     207533006009681820246TCS CARRIER BAG MIDI   0000001000+00000035+00000+0001T   00000035+0000001002          1400 DK8090               2AZ
207534000207534               207534               170213KL     1400+00000+KL0000002804+0000002804+000000000+000000394+0000003190+0000000008+I20000000000+0000003190+Z
207534001207534304-001204     207534006001023737984FLOWER OCC. TEDDY/ROSES0000002000+00001402+00000+0001T   00001490+0006471035          1400 DK8510               2AZ
207535000207535               207535               170213KL     1400+00000+KL0000001402+0000001402+000000000+000000197+0000001590+0000000009+I20000000000+0000001590+Z
207535001207535304-001204     207535006001023737984FLOWER OCC. TEDDY/ROSES0000001000+00001402+00000+0001T   00001490+0006471043          1400 DK8510               2AZ
207536000207536               207536               170213KL     1400+00000+KL0000002663+0000002663+000000000+000000373+0000003036+0000000000+I40000003036+0000000000+Z
207536001207536077-000310     207536006001023608635GIFT-BAG 18X23CM GLOSS 0000002000+00001314+00000+0001T   00001314+0000001051          1400 DK8112               2AZ
207536002207536112-116038     207536006009681820246TCS CARRIER BAG MIDI   0000001000+00000035+00000+0001T   00000035+0000001051          1400 DK8090               2AZ
207537000207537               207537               170213KL     1400+00000+KL0000001314+0000001314+000000000+000000184+0000001490+0000000008+I20000000000+0000001490+Z
207537001207537903-000194     207537006009826020616SWT CHOC RP LOLLY 25G  0000001000+00001314+00000+0001T   00001314+0000001051          1400 DK8150               2AZ
207538000207538               207538               170213KL     1400+00000+KL0000000437+0000000437+000000000+000000062+0000000490+0000000009+I20000000000+0000000490+Z
207538001207538080-000133-A   207538006003000647019MINI VALENTINES CARD   0000001000+00000437+00000+0001T   00000437+0000001052          1400 DK8112               2AZ
207539000207539               207539               170213KL     1400+00000+KL0000001753+0000001753+000000000+000000246+0000001990+0000000009+I20000000000+0000001990+Z
207539001207539566-000009     207539006003000180943STICKER-BOOK HOLOGRAM  0000001000+00001753+00000+0001T   00001753+0000001052          1400 DK8130               2AZ
207540000207540               207540               170213KL     1400+00000+KL0000005259+0000005259+000000000+000000738+0000005990+0000000007+I20000000000+0000005990+Z
207540001207540079-000012     207540006001023655332P/CRAYONS 12-COL LONG  0000003000+00001753+00000+0001T   00001753+0000001107          1400 DK8130               2AZ
207541000207541               207541               170213KL     1400+00000+KL0000004385+0000004385+000000000+000000614+0000004999+0000000000+I40000004999+0000000000+Z
207541001207541369-001032     207541006001023796158BABY RATTLE SET 6PCE   0000001000+00004385+00000+0001T   00004385+0000001110          1400 DK8745               2AZ
207542000207542               207542               170213KL     1400+00000+KL0000001578+0000001578+000000000+000000221+0000001790+0000000009+I20000000000+0000001790+Z
207542001207542362-003007     207542006003000295401GIRL FASHION SUNGLASSES0000001000+00001578+00000+0001T   00001753+0008191111          1400 DK8160               2AZ
207543000207543               207543               170213KL     1400+00000+KL0000002630+0000002630+000000000+000000369+0000002990+0000000009+I20000000000+0000002990+Z
207543001207543019-071600     207543006001023771971RIVER-STONES 1kg MIXED 0000001000+00002630+00000+0001T   00002630+0000001111          1400 DK8510               2AZ
207544000207544               207544               170213KL     1400+00000+KL0000002541+0000002541+000000000+000000357+0000002890+0000000008+I20000000000+0000002890+Z
207544001207544077-000010-C   207544006001023123879CREPE-PAPER RED        0000001000+00000788+00000+0001T   00000788+0000001116          1400 DK8112               2AZ
207544002207544039-000114     207544006001023524058CANDLE T/LITE RED 3.5CM0000001000+00001753+00000+0001T   00001753+0000001116          1400 DK8510               2AZ
207545000207545               207545               170213KL     1400+00000+KL0000002192+0000002192+000000000+000000307+0000002499+0000000000+I40000002499+0000000000+Z
207545001207545032-000336     207545006001023369109MIRROR HANGING MAGNETIC0000001000+00002192+00000+0001T   00002192+0000001124          1400 DK8510               2AZ
207546000207546               207546               170213KL     1400+00000+KL0000001314+0000001314+000000000+000000184+0000001490+0000000008+I20000000000+0000001490+Z
207546001207546903-000194     207546006009826020616SWT CHOC RP LOLLY 25G  0000001000+00001314+00000+0001T   00001314+0000001125          1400 DK8150               2AZ
207547000207547               207547               170213KL     1400+00000+KL0000001402+0000001402+000000000+000000197+0000001590+0000000009+I20000000000+0000001590+Z
207547001207547304-001204     207547006001023737984FLOWER OCC. TEDDY/ROSES0000001000+00001402+00000+0001T   00001490+0006471133          1400 DK8510               2AZ
207548000207548               207548               170213KL     1400+00000+KL0000002366+0000002366+000000000+000000332+0000002690+0000000008+I20000000000+0000002690+Z
207548001207548077-000151     207548006008766114676GIFT-WRAP C/PHANE ASSTD0000001000+00000876+00000+0001T   00000876+0000001134          1400 DK8112               2AZ
207548002207548071-005214     207548006003000152544CELLOTAPE SUPER REFILL 0000001000+00001490+00000+0001T   00001490+0000001134          1400 DK8130               2AZ
207549000207549               207549               170213KL     1400+00000+KL0000027438+0000027438+000000000+000003847+0000031280+0000000005+I20000000000+0000031280+Z
207549001207549031-000923     207549006001023669933P/FRAME BLK W/WORDS    0000001000+00003507+00000+0001T   00003507+0000001200          1400 DK8510               2AZ
207549002207549304-001204     207549006001023737984FLOWER OCC. TEDDY/ROSES0000002000+00001402+00000+0001T   00001490+0006471200          1400 DK8510               2AZ
207549003207549018-000177     207549006001023797513MUG MINI LOVE ASSTD    0000002000+00000700+00000+0001T   00000700+0000001200          1400 DK8515               2AZ
207549004207549031-000924     207549006001023669964P/FRAME COLLAGE PL     0000002000+00008771+00000+0001T   00008771+0000001200          1400 DK8510               2AZ
207549005207549080-000133-A   207549006003000647019MINI VALENTINES CARD   0000005000+00000437+00000+0001T   00000437+0000001200          1400 DK8112               2AZ
207550000207550               207550               170213KL     1400+00000+KL0000005295+0000005295+000000000+000000742+0000006030+0000000007+I20000000000+0000006030+Z
207550001207550033-000601     207550006003000365210HAIR-BRUSH 24CM BLK&WHT0000001000+00003507+00000+0001T   00003507+0000001201          1400 DK8200               2AZ
207550002207550903-000215     207550006002099001214SWT GS MALLOW TWIST PAC0000001000+00001753+00000+0001T   00001753+0000001201          1400 DK8150               2AZ
207550003207550112-116038     207550006009681820246TCS CARRIER BAG MIDI   0000001000+00000035+00000+0001T   00000035+0000001201          1400 DK8090               2AZ
207551000207551               207551               170213KL     1400+00000+KL0000014032+0000014032+000000000+000001966+0000015998+0000000000+I40000015998+0000000000+Z
207551001207551031-086219-C   207551006001023808905P/FRAME WDN A4 30X40CM 0000002000+00007016+00000+0001T   00007016+0000001203          1400 DK8510               2AZ
207552000207552               207552               170213KL     1400+00000+KL0000004385+0000004385+000000000+000000614+0000004999+0000000000+I40000004999+0000000000+Z
207552001207552050-000880-Z   207552006003000528110PADLOCK COMBO BRS 4 WHL0000001000+00004385+00000+0001T   00004385+0000001205          1400 DK8855               2AZ
207553000207553               207553               170213KL     1400+00000+KL0000002717+0000002717+000000000+000000381+0000003098+0000000000+I40000003098+0000000000+Z
207553001207553077-000305     207553006003000395422GIFT-BAG WINE 10X35CM  0000001000+00001490+00000+0001T   00001490+0000001207          1400 DK8112               2AZ
207553002207553077-000318     207553006001023609755GIFT-BAG 18X23CM E/D AN0000001000+00001227+00000+0001T   00001227+0000001207          1400 DK8112               2AZ
207554000207554               207554               170213KL     1400+00000+KL0000001314+0000001314+000000000+000000184+0000001490+0000000008+I20000000000+0000001490+Z
207554001207554046-000012     207554006904708013062BATTERIES AA  CARD-OF-40000001000+00001314+00000+0001T   00001314+0000001207          1400 DK8312               2AZ
207555000207555               207555               170213KL     1400+00000+KL0000004385+0000004385+000000000+000000614+0000004990+0000000009+I20000000000+0000004990+Z
207555001207555082-000115     207555006003000360604READING GLS STRNGHT:2.50000001000+00004385+00000+0001T   00004385+0000001209          1400 DK8160               2AZ
207556000207556               207556               170213KL     1400+00000+KL0000004382+0000004382+000000000+000000615+0000004990+0000000007+I20000000000+0000004990+Z
207556001207556566-001228     207556006003000284153STICKERS CRYSTAL ASSTD 0000001000+00001753+00000+0001T   00001753+0000001210          1400 DK8130               2AZ
207556002207556566-000359     207556006003000582709STICKER BOOK LOVE SPARK0000001000+00002192+00000+0001T   00002192+0000001210          1400 DK8130               2AZ
207556003207556080-000133-A   207556006003000647019MINI VALENTINES CARD   0000001000+00000437+00000+0001T   00000437+0000001210          1400 DK8112               2AZ
207557000207557               207557               170213KL     1400+00000+KL0000005746+0000005746+000000000+000000805+0000006550+0000000001+I20000000000+0000006550+Z
207557001207557018-005009     207557006001023725608MUG W/PLUSH-BEAR LOVE  0000001000+00003507+00000+0001T   00003507+0000001212          1400 DK8515               2AZ
207557002207557077-000321     207557006001023677501GIFT-BAG 11X14CM E/D FL0000001000+00000613+00000+0001T   00000613+0000001212          1400 DK8112               2AZ
207557003207557077-000323     207557006001023677563G/BAG 25X32CM E/DAY FLO0000001000+00001578+00000+0001T   00001578+0000001212          1400 DK8112               2AZ
207557004207557112-116069     207557006009681820277TCS CARRIER BAG JUMBO  0000001000+00000048+00000+0001T   00000048+0000001212          1400 DK8090               2AZ
207558000207558               207558               170213KL     1400+00000+KL0000002541+0000002541+000000000+000000357+0000002890+0000000008+I20000000000+0000002890+Z
207558001207558077-000382     207558006003000247820GIFT-BAG MED 18X23CM   0000001000+00001753+00000+0001T   00001753+0000001213          1400 DK8112               2AZ
207558002207558077-000010-D   207558006001023123886CREPE-PAPER WHITE      0000001000+00000788+00000+0001T   00000788+0000001213          1400 DK8112               2AZ
207559000207559               207559               170213KL     1400+00000+KL0000002227+0000002227+000000000+000000312+0000002530+0000000009+I20000000000+0000002530+Z
207559001207559106-003130     207559006001023625755ICE CUBE TRAY 21-CUBE  0000001000+00002192+00000+0001T   00002192+0000001214          1400 DK8210               2AZ
207559002207559112-116038     207559006009681820246TCS CARRIER BAG MIDI   0000001000+00000035+00000+0001T   00000035+0000001214          1400 DK8090               2AZ
207560000207560               207560               170213KL     1400+00000+KL0000001927+0000001927+000000000+000000270+0000002197+0000000000+I40000002197+0000000000+Z
207560001207560077-000321     207560006001023677501GIFT-BAG 11X14CM E/D FL0000001000+00000613+00000+0001T   00000613+0000001216          1400 DK8112               2AZ
207560002207560077-000470     207560006003000330171G-BAG DESGN SML 11X14CM0000001000+00001314+00000+0001T   00001314+0000001216          1400 DK8112               2AZ
207561000207561               207561               170213KL     1400+00000+KL0000001578+0000001578+000000000+000000221+0000001790+0000000009+I20000000000+0000001790+Z
207561001207561089-000020     207561006001023562272K/CHAIN MINI SHOE CROC 0000001000+00001578+00000+0001T   00001578+0000001216          1400 DK8205               2AZ
207562000207562               207562               170213KL     1400+00000+KL0000013090+0000013090+000000000+000001834+0000014920+0000000004+I20000000000+0000014920+Z
207562001207562077-000245     207562006001023759214GIFT-RIBBON METALLICx2 0000001000+00001227+00000+0001T   00001227+0000001219          1400 DK8112               2AZ
207562002207562903-000087     207562006001704000161SWT SPECKLED-EGGS 50G  0000001000+00001139+00000+0001T   00001139+0000001219          1400 DK8150               2AZ
207562003207562018-000177     207562006001023797513MUG MINI LOVE ASSTD    0000014000+00000700+00000+0001T   00000700+0000001219          1400 DK8515               2AZ
207562004207562077-000150-D   207562006003000054343GIFT-WRAP CELLPHANE CLR0000001000+00000876+00000+0001T   00000876+0000001219          1400 DK8112               2AZ
207562005207562112-116069     207562006009681820277TCS CARRIER BAG JUMBO  0000001000+00000048+00000+0001T   00000048+0000001219          1400 DK8090               2AZ
207563000207563               207563               170213KL     1400+00000+KL0000000876+0000000876+000000000+000000123+0000000990+0000000009+I20000000000+0000000990+Z
207563001207563108-001225     207563006003000010240SALAD BOWL MINI 380ML  0000001000+00000876+00000+0001T   00000876+0000001222          1400 DK8210               2AZ
207564000207564               207564               170213KL     1400+00000+KL0000005304+0000005304+000000000+000000745+0000006040+0000000009+I20000000000+0000006040+Z
207564001207564077-000151     207564006008766114676GIFT-WRAP C/PHANE ASSTD0000006000+00000876+00000+0001T   00000876+0000001227          1400 DK8112               2AZ
207564002207564112-116069     207564006009681820277TCS CARRIER BAG JUMBO  0000001000+00000048+00000+0001T   00000048+0000001227          1400 DK8090               2AZ
207565000207565               207565               170213KL     1400+00000+KL0000000876+0000000876+000000000+000000123+0000000990+0000000009+I20000000000+0000000990+Z
207565001207565077-000150-D   207565006003000054343GIFT-WRAP CELLPHANE CLR0000001000+00000876+00000+0001T   00000876+0000001228          1400 DK8112               2AZ
207566000207566               207566               170213KL     1400+00000+KL0000006578+0000006578+000000000+000000921+0000007499+0000000000+I40000007499+0000000000+Z
207566001207566047-000522-H   207566006003000465262EXT-CORD 3m 1x16A+1xSHK0000001000+00006578+00000+0001T   00006578+0000001230          1400 DK8880               2AZ
207567000207567               207567               170213KL     1400+00000+KL0000003069+0000003069+000000000+000000430+0000003490+0000000009+I20000000000+0000003490+Z
207567001207567089-060027     207567006003000245871KEY-CHAIN HEART 6X6cm  0000001000+00003069+00000+0001T   00003069+0000001231          1400 DK8205               2AZ
207568000207568               207568               170213KL     1400+00000+KL0000003188+0000003188+000000000+000000447+0000003630+0000000005+I20000000000+0000003630+Z
207568001207568261-000121     207568006001023341600GUN-CAPS 8-SHOT CARD-9 0000002000+00000700+00000+0001T   00000700+0000001243          1400 DK8710               2AZ
207568002207568261-002267     207568006001023665126GUN 8-SHOT SUPER-CAP   0000001000+00001753+00000+0001T   00001753+0000001243          1400 DK8710               2AZ
207568003207568112-116038     207568006009681820246TCS CARRIER BAG MIDI   0000001000+00000035+00000+0001T   00000035+0000001243          1400 DK8090               2AZ
207569000207569               207569               170213KL     1400+00000+KL0000003945+0000003945+000000000+000000553+0000004490+0000000008+I20000000000+0000004490+Z
207569001207569089-000095     207569006003000457281K/CHAIN SILV 4.3cm     0000001000+00003069+00000+0001T   00003946+0008121246          1400 DK8205               2AZ
207569002207569089-000192-A   207569006001023901774KEY-CHAIN ACRYLIC      0000001000+00000876+00000+0001T   00000876+0000001246          1400 DK8205               2AZ
207570000207570               207570               170213KL     1400+00000+KL0000001753+0000001753+000000000+000000246+0000001990+0000000009+I20000000000+0000001990+Z
207570001207570200-003024     207570006001023657299REFUSE BAGS 20PCE BLACK0000001000+00001753+00000+0001T   00001753+0000001247          1400 DK8214               2AZ
207571000207571               207571               170213KL     1400+00000+KL0000004385+0000004385+000000000+000000614+0000004990+0000000009+I20000000000+0000004990+Z
207571001207571027-008815     207571006003000439799DUSTER 62cm RUBBER-GRIP0000001000+00004385+00000+0001T   00004385+0000001250          1400 DK8212               2AZ
207572000207572               207572               170213KL     1400+00000+KL0000002980+0000002980+000000000+000000418+0000003390+0000000008+I20000000000+0000003390+Z
207572001207572077-000245     207572006001023759214GIFT-RIBBON METALLICx2 0000001000+00001227+00000+0001T   00001227+0000001409          1400 DK8112               2AZ
207572002207572566-000070     207572006003000283798STICKERS POP UP ASSTD  0000001000+00001753+00000+0001T   00001753+0000001409          1400 DK8130               2AZ
207573000207573               207573               170213KL     1400+00000+KL0000005131+0000005131+000000000+000000720+0000005851+0000000000+I40000005851+0000000000+Z
207573001207573077-000316     207573006001023609731GIFT-BAG 25X32CM MATT  0000001000+00001753+00000+0001T   00001753+0000001413          1400 DK8112               2AZ
207573002207573106-001104     207573006003000364794WATER BOTTLE 600ml PL  0000001000+00002630+00000+0001T   00002630+0000001413          1400 DK8210               2AZ
207573003207573903-000126     207573006002099003591SWT ZILLIONS MINT 50G  0000001000+00000700+00000+0001T   00000700+0000001413          1400 DK8150               2AZ
207573004207573112-116069     207573006009681820277TCS CARRIER BAG JUMBO  0000001000+00000048+00000+0001T   00000048+0000001413          1400 DK8090               2AZ
207574000207574               207574               170213KL     1400+00000+KL0000018900+0000018900+000000000+000002648+0000021540+0000000008+I20000000000+0000021540+Z
207574001207574046-000012     207574006904708013062BATTERIES AA  CARD-OF-40000001000+00001314+00000+0001T   00001314+0000001414          1400 DK8312               2AZ
207574002207574903-000211     207574006002099001238SWT GS MALLOW ICE CREAM0000001000+00001753+00000+0001T   00001753+0000001414          1400 DK8150               2AZ
207574003207574107-004510     207574006002580008968STEP-STOOL PL          0000001000+00005262+00000+0001T   00005262+0000001414          1400 DK8210               2AZ
207574004207574039-000318     207574006003000406159B/DAY CANDLES SMALL NO 0000001000+00001753+00000+0001T   00001753+0000001414          1400 DK8510               2AZ
207574005207574079-011524     207574006003000408139ART+CRFT FINGER PUPPETS0000002000+00004385+00000+0001T   00004385+0000001414          1400 DK8130               2AZ
207574006207574112-116069     207574006009681820277TCS CARRIER BAG JUMBO  0000001000+00000048+00000+0001T   00000048+0000001414          1400 DK8090               2AZ
207575000207575               207575               170213KL     1400+00000+KL0000004385+0000004385+000000000+000000614+0000004990+0000000009+I20000000000+0000004990+Z
207575001207575261-003901     207575006001023707451GUN SET PL POLICE+ACCES0000001000+00004385+00000+0001T   00004385+0000001415          1400 DK8710               2AZ
207576000207576               207576               170213KL     1400+00000+KL0000004432+0000004432+000000000+000000621+0000005050+0000000003+I20000000000+0000005050+Z
207576001207576018-000170     207576006001023775528MUG OCC. LOVE 2PC MINI 0000001000+00002192+00000+0001T   00002192+0000001415          1400 DK8515               2AZ
207576002207576080-000127     207576006003000424351VALENTINES DAY 36x24CM 0000001000+00002192+00000+0001T   00002192+0000001415          1400 DK8112               2AZ
207576003207576112-116069     207576006009681820277TCS CARRIER BAG JUMBO  0000001000+00000048+00000+0001T   00000048+0000001415          1400 DK8090               2AZ
207577000207577               207577               170213KL     1400+00000+KL0000012500+0000012500+000000000+000001751+0000014250+0000000001+I20000000000+0000014250+Z
207577001207577039-000794     207577006946859289958CANDLE T/LITE 3PC LED  0000002000+00004385+00000+0001T   00004385+0000001426          1400 DK8510               2AZ
207577002207577031-000878-B   207577006001023799012P/FRAME 13x18cm PL-SLID0000001000+00001490+00000+0001T   00001490+0000001426          1400 DK8510               2AZ
207577003207577031-000878-C   207577006001023799043P/FRAME 20x25cm PL-SLID0000001000+00002192+00000+0001T   00002192+0000001426          1400 DK8510               2AZ
207577004207577112-116069     207577006009681820277TCS CARRIER BAG JUMBO  0000001000+00000048+00000+0001T   00000048+0000001426          1400 DK8090               2AZ
207578000207578               207578               170213KL     1400+00000+KL0000002628+0000002628+000000000+000000368+0000002990+0000000006+I20000000000+0000002990+Z
207578001207578903-000194     207578006009826020616SWT CHOC RP LOLLY 25G  0000002000+00001314+00000+0001T   00001314+0000001428          1400 DK8150               2AZ
207579000207579               207579               170213KL     1400+00000+KL0000012054+0000012054+000000000+000001692+0000013740+0000000006+I20000000000+0000013740+Z
207579001207579040-000213     207579006001023617736CANDLE-HOLDER DAISY    0000002000+00001227+00000+0001T   00001227+0000001435          1400 DK8510               2AZ
207579002207579088-000084     207579006001023798060P/POURRI 120G ASSTD    0000001000+00001753+00000+0001T   00001753+0000001435          1400 DK8212               2AZ
207579003207579039-001023     207579006003000466337CANDLE TEA-LITE METALIC0000001000+00001753+00000+0001T   00001753+0000001435          1400 DK8510               2AZ
207579004207579039-000026     207579006001023551610C/TAPERED 25CM M/RED   0000002000+00001051+00000+0001T   00001051+0000001435          1400 DK8510               2AZ
207579005207579903-000194     207579006009826020616SWT CHOC RP LOLLY 25G  0000001000+00001314+00000+0001T   00001314+0000001435          1400 DK8150               2AZ
207579006207579112-116069     207579006009681820277TCS CARRIER BAG JUMBO  0000001000+00000048+00000+0001T   00000048+0000001435          1400 DK8090               2AZ
207579007207579268-000058     207579006001023865748KITE 72x102cm SINGLE   0000001000+00002630+00000+0001T   00002630+0000001435          1400 DK8785               2AZ
207580000207580               207580               170213KL     1400+00000+KL0000004384+0000004384+000000000+000000614+0000004998+0000000000+I40000004998+0000000000+Z
207580001207580563-000318-L   207580006003000407088SERVIETTES 33cm RED    0000002000+00002192+00000+0001T   00002192+0000001436          1400 DK8214               2AZ
207581000207581               207581               170213KL     1400+00000+KL0000001139+0000001139+000000000+000000160+0000001290+0000000009+I20000000000+0000001290+Z
207581001207581089-000150     207581006003000674268K/CHAIN PLUSH EMOTICON 0000001000+00001139+00000+0001T   00001139+0000001437          1400 DK8205               2AZ
207582000207582               207582               170213KL     1400+00000+KL0000001227+0000001227+000000000+000000172+0000001390+0000000009+I20000000000+0000001390+Z
207582001207582077-000245     207582006001023759214GIFT-RIBBON METALLICx2 0000001000+00001227+00000+0001T   00001227+0000001437          1400 DK8112               2AZ
207583000207583               207583               170213KL     1400+00000+KL0000001578+0000001578+000000000+000000221+0000001790+0000000009+I20000000000+0000001790+Z
207583001207583077-000323     207583006001023677563G/BAG 25X32CM E/DAY FLO0000001000+00001578+00000+0001T   00001578+0000001438          1400 DK8112               2AZ
207584000207584               207584               170213KL     1400+00000+KL0000008023+0000008023+000000000+000001127+0000009150+0000000000+I20000000000+0000009150+Z
207584001207584565-000889     207584006003000626953NOVELTY SPACE BALLOONS 0000001000+00001753+00000+0001T   00001753+0000001445          1400 DK8745               2AZ
207584002207584071-003850     207584006001023893253PENCIL 5PCE RAINBOW WDN0000001000+00002630+00000+0001T   00002630+0000001445          1400 DK8130               2AZ
207584003207584071-001241     207584006003000244270NOVELTY ERASER ASSTD   0000001000+00000525+00000+0001T   00000525+0000001445          1400 DK8130               2AZ
207584004207584006-000104     207584006001023990112BALLOONS 40PC AIR PUMP 0000001000+00002630+00000+0001T   00002630+0000001445          1400 DK8131               2AZ
207584005207584112-116069     207584006009681820277TCS CARRIER BAG JUMBO  0000001000+00000048+00000+0001T   00000048+0000001445          1400 DK8090               2AZ
207584006207584080-000133     207584006003000535613CARD&ENV MINI ASTD DSGN0000001000+00000437+00000+0001T   00000437+0000001445          1400 DK8112               2AZ
207585000207585               207585               170213KL     1400+00000+KL0000000613+0000000613+000000000+000000086+0000000690+0000000009+I20000000000+0000000690+Z
207585001207585077-000311     207585006001023608666GIFT-BAG 11X14CM GLOSS 0000001000+00000613+00000+0001T   00000613+0000001446          1400 DK8112               2AZ
207586000207586               207586               170213KL     1400+00000+KL0000002927+0000002927+000000000+000000410+0000003337+0000000000+I40000003337+0000000000+Z
207586001207586077-000310     207586006001023608635GIFT-BAG 18X23CM GLOSS 0000001000+00001314+00000+0001T   00001314+0000001451          1400 DK8112               2AZ
207586002207586018-000127     207586006001023380289MUG OCC STRAIGHT LOVE  0000001000+00001578+00000+0001T   00001753+0006471451          1400 DK8515               2AZ
207586003207586112-116038     207586006009681820246TCS CARRIER BAG MIDI   0000001000+00000035+00000+0001T   00000035+0000001451          1400 DK8090               2AZ
207587000207587               207587               170213KL     1400+00000+KL0000002014+0000002014+000000000+000000282+0000002296+0000000000+I40000002296+0000000000+Z
207587001207587362-004001     207587000613153010385PRINCESS ASSTD TRINKETS0000001000+00000700+00000+0001T   00000876+0008181453          1400 DK8160               2AZ
207587002207587903-000194     207587006009826020616SWT CHOC RP LOLLY 25G  0000001000+00001314+00000+0001T   00001314+0000001453          1400 DK8150               2AZ
207588000207588               207588               170213KL     1400+00000+KL0000003944+0000003944+000000000+000000553+0000004497+0000000000+I40000004497+0000000000+Z
207588001207588567-011422     207588006003000641222BK COLOURING THERAPY   0000001000+00003507+00000+0001T   00003507+0000001505          1400 DK8757               2AZ
207588002207588080-000133-A   207588006003000647019MINI VALENTINES CARD   0000001000+00000437+00000+0001T   00000437+0000001505          1400 DK8112               2AZ
207589000207589               207589               170213KL     1400+00000+KL0000011271+0000011271+000000000+000001580+0000012850+0000000001+I20000000000+0000012850+Z
207589001207589106-000901     207589006003000538058WATER BOTTLE 600ml     0000001000+00006139+00000+0001T   00006139+0000001506          1400 DK8210               2AZ
207589002207589051-002402     207589006001023518347TRIGGER-SPRAYER  500ml 0000001000+00001753+00000+0001T   00001753+0000001506          1400 DK8820               2AZ
207589003207589024-000036     207589006001023477002MEASURING-JUG 500ml    0000001000+00001578+00000+0001T   00001578+0000001506          1400 DK8300               2AZ
207589004207589903-000215     207589006002099001214SWT GS MALLOW TWIST PAC0000001000+00001753+00000+0001T   00001753+0000001506          1400 DK8150               2AZ
207589005207589112-116069     207589006009681820277TCS CARRIER BAG JUMBO  0000001000+00000048+00000+0001T   00000048+0000001506          1400 DK8090               2AZ
207590000207590               207590               170213KL     1400+00000+KL0000003542+0000003542+000000000+000000496+0000004030+0000000008+I20000000000+0000004030+Z
207590001207590018-000130     207590006001023867537MUG OCC LOVE MINI+HEART0000001000+00003507+00000+0001T   00003507+0000001512          1400 DK8515               2AZ
207590002207590112-116038     207590006009681820246TCS CARRIER BAG MIDI   0000001000+00000035+00000+0001T   00000035+0000001512          1400 DK8090               2AZ
207591000207591               207591               170213KL     1400+00000+KL0000004681+0000004681+000000000+000000656+0000005330+0000000007+I20000000000+0000005330+Z
207591001207591006-000325     207591006001023886347G/STICKS 3x20cm+3 CONN.0000001000+00001490+00000+0001T   00001490+0000001514          1400 DK8131               2AZ
207591002207591006-000327     207591006003000329687G/STICKS 3X20CM H/BANDS0000002000+00001578+00000+0001T   00001578+0000001514          1400 DK8131               2AZ
207591003207591112-116038     207591006009681820246TCS CARRIER BAG MIDI   0000001000+00000035+00000+0001T   00000035+0000001514          1400 DK8090               2AZ
207592000207592               207592               170213KL     1400+00000+KL0000007064+0000007064+000000000+000000990+0000008050+0000000004+I20000000000+0000008050+Z
207592001207592562-006275     207592006001023836182EDU BOARD W/MARKER ASST0000001000+00007016+00000+0001T   00007016+0000001637          1400 DK8755               2AZ
207592002207592112-116069     207592006009681820277TCS CARRIER BAG JUMBO  0000001000+00000048+00000+0001T   00000048+0000001637          1400 DK8090               2AZ
207593000207593               207593               170213KL     1400+00000+KL0000003542+0000003542+000000000+000000496+0000004030+0000000008+I20000000000+0000004030+Z
207593001207593018-000136     207593006001023659026MUG OCC LOVE W/PLUSH   0000001000+00003507+00000+0001T   00003507+0000001638          1400 DK8515               2AZ
207593002207593112-116038     207593006009681820246TCS CARRIER BAG MIDI   0000001000+00000035+00000+0001T   00000035+0000001638          1400 DK8090               2AZ
207594000207594               207594               170213KL     1400+00000+KL0000003507+0000003507+000000000+000000491+0000003998+0000000000+I40000003998+0000000000+Z
207594001207594560-000102     207594006001023746979ANIMALS FARM IN-TUBE   0000001000+00003507+00000+0001T   00003507+0000001640          1400 DK8745               2AZ
207595000207595               207595               170213KL     1400+00000+KL0000000876+0000000876+000000000+000000123+0000000990+0000000009+I20000000000+0000000990+Z
207595001207595078-000025     207595008887013700064SUPERGLUE 3g 1PCE CARD 0000001000+00000876+00000+0001T   00000876+0000001643          1400 DK8810               2AZ
207596000207596               207596               170213KL     1400+00000+KL0000000876+0000000876+000000000+000000123+0000000990+0000000009+I20000000000+0000000990+Z
207596001207596077-000150-D   207596006003000054343GIFT-WRAP CELLPHANE CLR0000001000+00000876+00000+0001T   00000876+0000001644          1400 DK8112               2AZ
207597000207597               207597               170213KL     1400+00000+KL0000008504+0000008504+000000000+000001191+0000009695+0000000000+I40000009695+0000000000+Z
207597001207597071-005214     207597006003000152544CELLOTAPE SUPER REFILL 0000001000+00001490+00000+0001T   00001490+0000001648          1400 DK8130               2AZ
207597002207597077-000932     207597006003000409808G/WRAP 700mmx5m PATTERN0000001000+00003507+00000+0001T   00003507+0000001648          1400 DK8112               2AZ
207597003207597077-000934     207597006003000409921G/WRAP 700mmx5m BIRTHDA0000001000+00003507+00000+0001T   00003507+0000001648          1400 DK8112               2AZ
A17021300                                          13501891KLSLAVE 2                       DK81IC
M17021391                              CASH        KLSLAVE 2                       Z-REPORT No.   615TOTAL (Sales - Refunds)           3979.87       CASH TO BE BANKED                 2979.40       DEBIT CARDS                          0.00       CREDIT CARDS                         0.00       Z-READING                         3979.87       AIRTIME DEBIT CARD SALES             0.00       AIRTIME CARD SALES                   0.00       OVERS/UNDERS                      1000.47-      AIRTIME CASH SALES                   0.00       GIFT CARDS                           0.00       GIFT CARD CASH SALES                 0.00       T O T A L  CASH PAYOUTS              0.00                                                                                                                                                                                                                                                                                                                                                      Z
M17021392                              CASH        KLABSENT                                                                                                                                                                                          ANNUAL LEAVE                                                                                                                                                                                    DAY OFF                                                                                                                                                                                         COMMENTS                                                                                                                                                                                                                                                                                                                                                                                       Z
Y17021300                                          KL00000000349414+000073
ZKL17021319583 SLAVE 2      SALES DATA                     NEXT INVOICE NO.  207598 0615
X KL Slave 2 First invoice 207525 170213 Last invoice 207597 170213 Next invoice 207598 Total number of records 000000234 clbackup completed 19:58:14
