113730000113730               113730               170213KM     1400+00000+KM0000002678+0000002678+000000000+000000376+0000003050+0000000004+I20000000000+0000003050+Z
113730001113730077-000270     113730006003000395453GIFT-BAG PPR JMB 33X45 0000001000+00002630+00000+0001T   00002630+0000000839          1400 CJ5112               2AZ
113730002113730112-116069     113730006009681820277TCS CARRIER BAG JUMBO  0000001000+00000048+00000+0001T   00000048+0000000839          1400 CJ5090               2AZ
113731000113731               113731               170213KM     1400+00000+KM0000013711+0000013711+000000000+000001920+0000015630+0000000001+I20000000000+0000015630+Z
113731001113731019-000122     113731006001023809582PLANTER GALV 22cm ROUND0000001000+00005262+00000+0001T   00005262+0000000841          1400 CJ5510               2AZ
113731002113731496-029007     113731000078257290079FILTER CARTRIDGE       0000002000+00003507+00000+0001T   00003507+0000000841          1400 CJ5787               2AZ
113731003113731018-000177     113731006001023797513MUG MINI LOVE ASSTD    0000002000+00000700+00000+0001T   00000700+0000000841          1400 CJ5515               2AZ
113731004113731112-116038     113731006009681820246TCS CARRIER BAG MIDI   0000001000+00000035+00000+0001T   00000035+0000000841          1400 CJ5090               2AZ
113732000113732               113732               170213KM     1400+00000+KM0000001753+0000001753+000000000+000000246+0000001990+0000000009+I20000000000+0000001990+Z
113732001113732080-000110     113732006003000237326CARD&ENVLPE BDAY-FUNNY 0000001000+00001753+00000+0001T   00001753+0000000854          1400 CJ5112               2AZ
113733000113733               113733               170213KM     1400+00000+KM0000007016+0000007016+000000000+000000983+0000007990+0000000009+I20000000000+0000007990+Z
113733001113733566-000302     113733006003000444281GLOW IN THE DARK ROOM D0000001000+00007016+00000+0001T   00007016+0000000857          1400 CJ5130               2AZ
113734000113734               113734               170213KM     1400+00000+KM0000000788+0000000788+000000000+000000111+0000000890+0000000009+I20000000000+0000000890+Z
113734001113734033-005991     113734006001023678546NEEDLES H/HOLD-REPAIR  0000001000+00000788+00000+0001T   00000788+0000000902          1400 CJ5200               2AZ
113735000113735               113735               170213KM     1400+00000+KM0000024340+0000024340+000000000+000003410+0000027750+0000000000+I40000027750+0000000000+Z
113735001113735112-116069     113735006009681820277TCS CARRIER BAG JUMBO  0000001000+00000048+00000+0001T   00000048+0000000911          1400 CJ5090               2AZ
113735002113735562-000212     113735006001023851567PUSH-IN BOARD NUMBERS  0000001000+00004385+00000+0001T   00004385+0000000911          1400 CJ5755               2AZ
113735003113735033-005919     113735006003000154883SEWING THREAD 24cm ASST0000001000+00001490+00000+0001T   00001490+0000000911          1400 CJ5200               2AZ
113735004113735562-002001     113735006003000228652EDU GAME               0000001000+00006139+00000+0001T   00006139+0000000911          1400 CJ5755               2AZ
113735005113735562-000211     113735006001023851536PUSH-IN BOARD ALPHABET 0000001000+00005262+00000+0001T   00005262+0000000911          1400 CJ5755               2AZ
113735006113735562-002007     113735006003000228188LEARNING EDU ALPHABET  0000001000+00007016+00000+0001T   00007016+0000000911          1400 CJ5755               2AZ
113736000113736               113736               170213KM     1400+00000+KM0000004385+0000004385+000000000+000000614+0000004990+0000000009+I20000000000+0000004990+Z
113736001113736012-000005     113736006003000328963M/WVE POTATO COOKER    0000001000+00004385+00000+0001T   00004385+0000000918          1400 CJ5300               2AZ
113737000113737               113737               170213KM     1400+00000+KM0000000262+0000000262+000000000+000000037+0000000290+0000000009+I20000000000+0000000290+Z
113737001113737903-000216     113737006925925900966SWT MALLOW TWIST ERKO  0000001000+00000262+00000+0001T   00000262+0000000919          1400 CJ5150               2AZ
113738000113738               113738               170213KM     1400+00000+KM0000032493+0000032493+000000000+000004551+0000037040+0000000004+I20000000000+0000037040+Z
113738001113738017-000200     113738006003000238965PRINTED ASSTD 100-PHOTO0000002000+00003507+00000+0001T   00003507+0000000923          1400 CJ5510               2AZ
113738002113738112-116069     113738006009681820277TCS CARRIER BAG JUMBO  0000001000+00000048+00000+0001T   00000048+0000000923          1400 CJ5090               2AZ
113738003113738017-000200     113738006003000238965PRINTED ASSTD 100-PHOTO0000002000+00003507+00000+0001T   00003507+0000000923          1400 CJ5510               2AZ
113738004113738017-000050     113738006003000008223P/ALBUM 200-PHOTO PLAIN0000001000+00007016+00000+0001T   00007016+0000000923          1400 CJ5510               2AZ
113738005113738017-000220     113738006003000239160P/ALBUM ADHESIVE 10 PGE0000001000+00004385+00000+0001T   00004385+0000000923          1400 CJ5510               2AZ
113738006113738017-000050     113738006003000008223P/ALBUM 200-PHOTO PLAIN0000001000+00007016+00000+0001T   00007016+0000000923          1400 CJ5510               2AZ
113739000113739               113739               170213KM     1400+00000+KM0000001314+0000001314+000000000+000000184+0000001490+0000000008+I20000000000+0000001490+Z
113739001113739078-009100     113739006008741002349ALL-CLEAR GLUE 25ml CRD0000001000+00001314+00000+0001T   00001314+0000001107          1400 CJ5810               2AZ
113740000113740               113740               170213KM     1400+00000+KM0000030747+0000030747+000000000+000004305+0000035050+0000000002+I20000000000+0000035050+Z
113740001113740019-000076     113740006001023757159V/GLASS 25CM C/DESIGN  0000002000+00008771+00000+0001T   00008771+0000001118          1400 CJ5510               2AZ
113740002113740019-000050     113740006001023673749VASE GLS FOOTED WINE   0000001000+00013157+00000+0001T   00013157+0000001118          1400 CJ5510               2AZ
113740003113740112-116069     113740006009681820277TCS CARRIER BAG JUMBO  0000001000+00000048+00000+0001T   00000048+0000001118          1400 CJ5090               2AZ
113741000113741               113741               170213KM     1400+00000+KM0000007488+0000007488+000000000+000001049+0000008530+0000000007+I20000000000+0000008530+Z
113741001113741018-050000     113741006003000412679MUG OCC LOVE TWIN BEAR 0000001000+00006139+00000+0001T   00006139+0000001119          1400 CJ5515               2AZ
113741002113741077-000312     113741006001023608697GIFT-BAG 10X35CM GLOSS 0000001000+00001314+00000+0001T   00001314+0000001119          1400 CJ5112               2AZ
113741003113741112-116038     113741006009681820246TCS CARRIER BAG MIDI   0000001000+00000035+00000+0001T   00000035+0000001119          1400 CJ5090               2AZ
113742000113742               113742               170213KM     1400+00000+KM0000003069+0000003069+000000000+000000430+0000003490+0000000009+I20000000000+0000003490+Z
113742001113742089-060027     113742006003000245871KEY-CHAIN HEART 6X6cm  0000001000+00003069+00000+0001T   00003069+0000001119          1400 CJ5205               2AZ
113743000113743               113743               170213KM     1400+00000+KM0000001051+0000001051+000000000+000000148+0000001190+0000000009+I20000000000+0000001190+Z
113743001113743903-002853     113743000000087108019MENTOS ROLL MINT       0000001000+00001051+00000+0001T   00001051+0000001119          1400 CJ5150               2AZ
113744000113744               113744               170213KM     1400+00000+KM0000000264+0000000264+000000000+000000037+0000000300+0000000001+I20000000000+0000000300+Z
113744001113744077-000315     113744006003000181186GIFT-BAG 20x28cm MATT  0000001000+00001578+00000+0001T   00001578+0000001123          1400 CJ5112               2AZ
113744002113744077-000312     113744006001023608697GIFT-BAG 10X35CM GLOSS 0000001000-00001314+00000+0001T   00001314+0000001123          1400 CJ51122IC            2 Z
113745000113745               113745               170213KM     1400+00000+KM0000011450+0000011450+000000000+000001604+0000013050+0000000004+I20000000000+0000013050+Z
113745001113745368-000637     113745006001023874092PLUSH BEAR SLEEPING LOV0000001000+00011402+00000+0001T   00012279+0006471125          1400 CJ5745               2AZ
113745002113745112-116069     113745006009681820277TCS CARRIER BAG JUMBO  0000001000+00000048+00000+0001T   00000048+0000001125          1400 CJ5090               2AZ
113746000113746               113746               170213KM     1400+00000+KM0000016833+0000016833+000000000+000002358+0000019190+0000000001+I20000000000+0000019190+Z
113746001113746006-000190     113746006003000685530BALLOONS LOVE 81x91cm  0000003000+00004385+00000+0001T   00004385+0000001134          1400 CJ5131               2AZ
113746002113746006-001000     113746006003000093779HELIUM BALLOON FILL    0000006000+00000613+00000+0001T   00000613+0000001134          1400 CJ5131               2AZ
113747000113747               113747               170213KM     1400+00000+KM0000009692+0000009692+000000000+000001358+0000011050+0000000000+I20000000000+0000011050+Z
113747001113747088-000107     113747006001023555823DIFFUSER SET FLOWER    0000001000+00004385+00000+0001T   00004385+0000001136          1400 CJ5212               2AZ
113747002113747563-000318-D   113747006003000404001SERVIETTES 33cm BLUE   0000001000+00002192+00000+0001T   00002192+0000001136          1400 CJ5214               2AZ
113747003113747563-000319-C   113747006003000581573SERVIETTE 2PLY GREEN   0000001000+00001314+00000+0001T   00001314+0000001136          1400 CJ5214               2AZ
113747004113747077-000299-A   113747006003000670888GIFT-BAG PAPER JMB LOVE0000001000+00001753+00000+0001T   00001753+0000001136          1400 CJ5112               2AZ
113747005113747112-116069     113747006009681820277TCS CARRIER BAG JUMBO  0000001000+00000048+00000+0001T   00000048+0000001136          1400 CJ5090               2AZ
113748000113748               113748               170213KM     1400+00000+KM0000045556+0000045556+000000000+000006383+0000051939+0000000000+I40000051939+0000000000+Z
113748001113748112-116069     113748006009681820277TCS CARRIER BAG JUMBO  0000001000+00000048+00000+0001T   00000048+0000001139          1400 CJ5090               2AZ
113748002113748006-000227     113748006003000328086PARTY BIRTHDAY BADGES  0000001000+00003069+00000+0001T   00003069+0000001139          1400 CJ5131               2AZ
113748003113748366-000256     113748006001023918406DRESS UP TIARA&EARRINGS0000012000+00003069+00000+0001T   00003069+0000001139          1400 CJ5131               2AZ
113748004113748006-005909     113748006003000081301PARTY FAVOUR STAR WAND 0000002000+00002192+00000+0001T   00002192+0000001139          1400 CJ5131               2AZ
113748005113748903-000517     113748006001704012768SWT STRAWS FIZZY CHERRY0000001000+00001227+00000+0001T   00001227+0000001139          1400 CJ5150               2AZ
113749000113749               113749               170213KM     1400+00000+KM0000007016+0000007016+000000000+000000983+0000007990+0000000009+I20000000000+0000007990+Z
113749001113749174-000305     113749006003000105502TRAVEL NECK-PILLOW     0000001000+00007016+00000+0001T   00007016+0000001140          1400 CJ5205               2AZ
113750000113750               113750               170213KM     1400+00000+KM0000003506+0000003506+000000000+000000492+0000003990+0000000008+I20000000000+0000003990+Z
113750001113750018-000108     113750006001023380265MUG NOVELTY ICON ASST  0000001000+00001753+00000+0001T   00001753+0000001141          1400 CJ5515               2AZ
113750002113750133-000010     113750006001023905215CLEANING CLOTHS 6PCE   0000001000+00001753+00000+0001T   00001753+0000001141          1400 CJ5212               2AZ
113751000113751               113751               170213KM     1400+00000+KM0000004119+0000004119+000000000+000000578+0000004690+0000000007+I20000000000+0000004690+Z
113751001113751088-000011     113751006001023752826AIR-FRESHNER GEL ASSTD 0000001000+00001753+00000+0001T   00001753+0000001156          1400 CJ5212               2AZ
113751002113751204-000001     113751006003000575558M/HOLD BOTTLE OPENER   0000001000+00001753+00000+0001T   00001753+0000001156          1400 CJ5300               2AZ
113751003113751083-000055     113751006003000003853LIGHTER ELCTRNC REFILBL0000001000+00000613+00000+0001T   00000613+0000001156          1400 CJ5315               2AZ
113752000113752               113752               170213KM     1400+00000+KM0000001839+0000001839+000000000+000000258+0000002090+0000000007+I20000000000+0000002090+Z
113752001113752261-000121     113752006001023341600GUN-CAPS 8-SHOT CARD-9 0000001000+00000700+00000+0001T   00000700+0000001438          1400 CJ5710               2AZ
113752002113752903-000710     113752006002099007056SWT REFRESHERS MINT    0000001000+00001139+00000+0001T   00001139+0000001438          1400 CJ5150               2AZ
113753000113753               113753               170213KM     1400+00000+KM0000013155+0000013155+000000000+000001843+0000014990+0000000008+I20000000000+0000014990+Z
113753001113753368-000637     113753006001023874092PLUSH BEAR SLEEPING LOV0000001000+00011402+00000+0001T   00012279+0006471511          1400 CJ5745               2AZ
113753002113753077-000290     113753006001023902023GIFT BOX 26x32x13cm    0000001000+00001753+00000+0001T   00001753+0000001511          1400 CJ5112               2AZ
113754000113754               113754               170213KM     1400+00000+KM0000004208+0000004208+000000000+000000590+0000004790+0000000008+I20000000000+0000004790+Z
113754001113754077-000303     113754006001023593757GIFT-BAG PAPER MED     0000001000+00001578+00000+0001T   00001578+0000001558          1400 CJ5112               2AZ
113754002113754077-000475     113754006003000640775GIFT-BAG DESIGNER MED  0000001000+00002630+00000+0001T   00002630+0000001558          1400 CJ5112               2AZ
113755000113755               113755               170213KM     1400+00000+KM0000000613+0000000613+000000000+000000086+0000000690+0000000009+I20000000000+0000000690+Z
113755001113755007-000555     113755006001023848239MEMO-PAD MINI LOVE     0000001000+00000613+00000+0001T   00000613+0000001559          1400 CJ5130               2AZ
113756000113756               113756               170213KM     1400+00000+KM0000001753+0000001753+000000000+000000246+0000001990+0000000009+I20000000000+0000001990+Z
113756001113756565-000017     113756006003000672516NOVELTY TONGUE SLING   0000001000+00001753+00000+0001T   00001753+0000001600          1400 CJ5745               2AZ
113757000113757               113757               170213KM     1400+00000+KM0000003506+0000003506+000000000+000000492+0000003990+0000000008+I20000000000+0000003990+Z
113757001113757077-000454     113757006003000285266G/BAG METALLIC LRG EMB 0000001000+00001753+00000+0001T   00001753+0000001605          1400 CJ5112               2AZ
113757002113757077-000472     113757006003000330133G-BAG DESGNR LRG 25X32 0000001000+00001753+00000+0001T   00001753+0000001605          1400 CJ5112               2AZ
113758000113758               113758               170213KM     1400+00000+KM0000002630+0000002630+000000000+000000369+0000002990+0000000009+I20000000000+0000002990+Z
113758001113758077-000270     113758006003000395453GIFT-BAG PPR JMB 33X45 0000001000+00002630+00000+0001T   00002630+0000001605          1400 CJ5112               2AZ
113759000113759               113759               170213KM     1400+00000+KM0000003507+0000003507+000000000+000000491+0000003990+0000000008+I20000000000+0000003990+Z
113759001113759031-000847     113759006001023851871P/FRAME TWIN 10X15CM   0000001000+00003507+00000+0001T   00003507+0000001606          1400 CJ5510               2AZ
113760000113760               113760               170213KM     1400+00000+KM0000008817+0000008817+000000000+000001236+0000010053+0000000000+I40000010053+0000000000+Z
113760001113760018-050000     113760006003000412679MUG OCC LOVE TWIN BEAR 0000001000+00006139+00000+0001T   00006139+0000001607          1400 CJ5515               2AZ
113760002113760077-000270     113760006003000395453GIFT-BAG PPR JMB 33X45 0000001000+00002630+00000+0001T   00002630+0000001607          1400 CJ5112               2AZ
113760003113760112-116069     113760006009681820277TCS CARRIER BAG JUMBO  0000001000+00000048+00000+0001T   00000048+0000001607          1400 CJ5090               2AZ
113761000113761               113761               170213KM     1400+00000+KM0000001753+0000001753+000000000+000000246+0000001990+0000000009+I20000000000+0000001990+Z
113761001113761077-000454     113761006003000285266G/BAG METALLIC LRG EMB 0000001000+00001753+00000+0001T   00001753+0000001611          1400 CJ5112               2AZ
113762000113762               113762               170213KM     1400+00000+KM0000003507+0000003507+000000000+000000491+0000003990+0000000008+I20000000000+0000003990+Z
113762001113762301-085004     113762006003000420469ORN LOVE PLAQUE 21X10CM0000001000+00003507+00000+0001T   00003946+0006471620          1400 CJ5505               2AZ
113763000113763               113763               170213KM     1400+00000+KM0000007048+0000007048+000000000+000000988+0000008030+0000000006+I20000000000+0000008030+Z
113763001113763031-006534     113763006001023995896P/FRAME AUTO 10x15cm   0000001000+00001753+00000+0001T   00001753+0000001622          1400 CJ5510               2AZ
113763002113763031-000002-A   113763006003000247103P/FRAME LOVE 7.5X7.5CM 0000001000+00003507+00000+0001T   00003507+0000001622          1400 CJ5510               2AZ
113763003113763031-006534     113763006001023995896P/FRAME AUTO 10x15cm   0000001000+00001753+00000+0001T   00001753+0000001622          1400 CJ5510               2AZ
113763004113763112-116038     113763006009681820246TCS CARRIER BAG MIDI   0000001000+00000035+00000+0001T   00000035+0000001622          1400 CJ5090               2AZ
113764000113764               113764               170213KM     1400+00000+KM0000001753+0000001753+000000000+000000246+0000001990+0000000009+I20000000000+0000001990+Z
113764001113764031-006534     113764006001023995896P/FRAME AUTO 10x15cm   0000001000+00001753+00000+0001T   00001753+0000001622          1400 CJ5510               2AZ
113765000113765               113765               170213KM     1400+00000+KM0000012833+0000012833+000000000+000001797+0000014630+0000000000+I20000000000+0000014630+Z
113765001113765018-005009     113765006001023725608MUG W/PLUSH-BEAR LOVE  0000002000+00003507+00000+0001T   00003507+0000001624          1400 CJ5515               2AZ
113765002113765903-000194     113765006009826020616SWT CHOC RP LOLLY 25G  0000002000+00001314+00000+0001T   00001314+0000001624          1400 CJ5150               2AZ
113765003113765077-000303     113765006001023593757GIFT-BAG PAPER MED     0000002000+00001578+00000+0001T   00001578+0000001624          1400 CJ5112               2AZ
113765004113765112-116038     113765006009681820246TCS CARRIER BAG MIDI   0000001000+00000035+00000+0001T   00000035+0000001624          1400 CJ5090               2AZ
113766000113766               113766               170213KM     1400+00000+KM0000001578+0000001578+000000000+000000221+0000001790+0000000009+I20000000000+0000001790+Z
113766001113766077-000303     113766006001023593757GIFT-BAG PAPER MED     0000001000+00001578+00000+0001T   00001578+0000001625          1400 CJ5112               2AZ
113767000113767               113767               170213KM     1400+00000+KM0000001753+0000001753+000000000+000000246+0000001990+0000000009+I20000000000+0000001990+Z
113767001113767080-000100     113767006003000236114CARD & ENVELOPE BDAY   0000001000+00001753+00000+0001T   00001753+0000001631          1400 CJ5112               2AZ
113768000113768               113768               170213KM     1400+00000+KM0000001578+0000001578+000000000+000000221+0000001790+0000000009+I20000000000+0000001790+Z
113768001113768018-000127     113768006001023380289MUG OCC STRAIGHT LOVE  0000001000+00001578+00000+0001T   00001753+0006471632          1400 CJ5515               2AZ
113769000113769               113769               170213KM     1400+00000+KM0000001753+0000001753+000000000+000000246+0000001990+0000000009+I20000000000+0000001990+Z
113769001113769088-000084     113769006001023798060P/POURRI 120G ASSTD    0000001000+00001753+00000+0001T   00001753+0000001633          1400 CJ52122IC            2AZ
113770000113770               113770               170213KM     1400+00000+KM0000003067+0000003067+000000000+000000431+0000003498+0000000000+I40000003498+0000000000+Z
113770001113770077-000270     113770006003000395453GIFT-BAG PPR JMB 33X45 0000001000+00002630+00000+0001T   00002630+0000001634          1400 CJ5112               2AZ
113770002113770903-000094     113770006923431501622SWT GS CANDY NECKLACE  0000001000+00000437+00000+0001T   00000437+0000001634          1400 CJ5150               2AZ
113771000113771               113771               170213KM     1400+00000+KM0000002630+0000002630+000000000+000000369+0000002999+0000000000+I40000002999+0000000000+Z
113771001113771077-000270     113771006003000395453GIFT-BAG PPR JMB 33X45 0000001000+00002630+00000+0001T   00002630+0000001635          1400 CJ5112               2AZ
113772000113772               113772               170213KM     1400+00000+KM0000003769+0000003769+000000000+000000529+0000004290+0000000008+I20000000000+0000004290+Z
113772001113772903-000710     113772006002099007056SWT REFRESHERS MINT    0000001000+00001139+00000+0001T   00001139+0000001636          1400 CJ5150               2AZ
113772002113772077-000349-B   113772006001023908315G/RIBBON 3ROLLS 12BOWS 0000001000+00002630+00000+0001T   00002630+0000001636          1400 CJ5112               2AZ
113773000113773               113773               170213KM     1400+00000+KM0000020392+0000020392+000000000+000002856+0000023248+0000000000+I40000023248+0000000000+Z
113773001113773001-091415     113773006003000329113W/GLS OCC. LOVE 2PC 2800000001000+00008771+00000+0001T   00009648+0006471638          1400 CJ5515               2AZ
113773002113773112-116069     113773006009681820277TCS CARRIER BAG JUMBO  0000001000+00000048+00000+0001T   00000048+0000001638          1400 CJ5090               2AZ
113773003113773903-000843     113773008693029031067SWT GUMMY JELAXY 80G   0000002000+00000964+00000+0001T   00000964+0000001638          1400 CJ5150               2AZ
113773004113773903-000194     113773006009826020616SWT CHOC RP LOLLY 25G  0000001000+00001314+00000+0001T   00001314+0000001638          1400 CJ5150               2AZ
113773005113773018-000170     113773006001023775528MUG OCC. LOVE 2PC MINI 0000001000+00002192+00000+0001T   00002192+0000001638          1400 CJ5515               2AZ
113773006113773368-000175     113773006003000270316PLUSH BEAR 4 ASSTD 18CM0000001000+00006139+00000+0001T   00006139+0000001638          1400 CJ5745               2AZ
113774000113774               113774               170213KM     1400+00000+KM0000020562+0000020562+000000000+000002880+0000023440+0000000002+I20000000000+0000023440+Z
113774001113774018-000127     113774006001023380289MUG OCC STRAIGHT LOVE  0000013000+00001578+00000+0001T   00001753+0006471642          1400 CJ5515               2AZ
113774002113774112-116069     113774006009681820277TCS CARRIER BAG JUMBO  0000001000+00000048+00000+0001T   00000048+0000001642          1400 CJ5090               2AZ
113775000113775               113775               170213KM     1400+00000+KM0000001312+0000001312+000000000+000000184+0000001490+0000000006+I20000000000+0000001490+Z
113775001113775079-009700-C   113775006003000545636PAPER SIRIO A4 VIOLET  0000002000+00000306+00000+0001T   00000306+0000001644          1400 CJ5130               2AZ
113775002113775018-000177     113775006001023797513MUG MINI LOVE ASSTD    0000001000+00000700+00000+0001T   00000700+0000001644          1400 CJ55151IC            2AZ
A17021300                                          11205241KMSLAVE 2                       CJ52IC
A17021301                                          16263756KMSLAVE 2                       CJ51IC
A17021302                                          16300717KMSLAVE 2                       CJ51IC
A17021303                                          16305487KMSLAVE 2                       CJ51IC
B11376900                                          170213KM088-000084     16325190SLAVE 2     CJ52IC0000002000+0000001000+0000000000000+
B11377500                                          170213KM018-000177     16443256SLAVE 2     CJ51IC0000003000+0000002000+0000000000000+
B11377501                                          170213KM018-000177     16443664SLAVE 2     CJ51IC0000002000+0000001000+0000000000000+
M17021301                              IT DEPT     KMATT: IT DEPT                                                                                                                                    THE LAST TRANSACTION ON THE DATE 13/02/2017                                                                                                                                                     IS 113775                                                                                                                                                                                       THANK YOU                                                                                                                                                                                       KM                                                                                                                                                                                              YASMIN
M17021391                              CASH        KMSLAVE 2                       Z-REPORT No.   603TOTAL (Sales - Refunds)           4042.97       CASH TO BE BANKED                 2848.10       DEBIT CARDS                          0.00       CREDIT CARDS                      1194.87       Z-READING                         4042.97       AIRTIME DEBIT CARD SALES             0.00       AIRTIME CARD SALES                   0.00       OVERS/UNDERS                         0.00       AIRTIME CASH SALES                   0.00       GIFT CARDS                           0.00       GIFT CARD CASH SALES                 0.00       T O T A L  CASH PAYOUTS              0.00                                                                                                                                                                                                                                                                                                                                                      Z
M17021392                              CASH        KMABSENT                                                                                                                                                                                          ANNUAL LEAVE                                                                                                                                                                                    DAY OFF                                                                                                                                                                                         COMMENTS          Z READ R4042.97                                 Z READ NO 603                                   SLAVE 2                                                                                                                                                                                                                                                                      Z
Y17021300                                          KM00017400356161+000046
ZKM17021319583 SLAVE 2      SALES DATA                     NEXT INVOICE NO.  113776 0603
F094155463-000501         1701160835400000021ICSLAVE 2
X KM Slave 2 First invoice 113730 170213 Last invoice 113775 170213 Next invoice 113776 Total number of records 000000158 clbackup completed 19:58:24
