126662000126662               126662               170213KO     1400+00000+KO0000001087-0000001087-000000000+000000153-0000001240-0000000000+I20000000000+0000001240-Z
126662001126662001-999907     126662000000000999907CLEANING-MATERIALS     0000001000-00001087+00000+0001T   00000000+0000000917          1400 D949071IC            1 Z
126663000126663               126663               170213KO     1400+00000+KO0000004201-0000004201-000000000+000000589-0000004790-0000000000+I20000000000+0000004790-Z
126663001126663001-999906     126663000000000999906STATIONERY(PHOTOCOPIES)0000001000-00004201+00000+0001T   00000000+0000000918          1400 D949061IC            1 Z
126664000126664               126664               170213KO     1400+00000+KO0000003541+0000003541+000000000+000000497+0000004038+0000000000+I40000004038+0000000000+Z
126664001126664071-003011     126664006001023762825PEN STICKBALL X10 ASSTD0000001000+00001753+00000+0001T   00001753+0000000927          1400 D94130               1AZ
126664002126664566-000028     126664006003000265541STICKER BK ASSTD 250PCE0000001000+00001753+00000+0001T   00001753+0000000927          1400 D94130               1AZ
126664003126664112-116038     126664006009681820246TCS CARRIER BAG MIDI   0000001000+00000035+00000+0001T   00000035+0000000927          1400 D94090               1AZ
126665000126665               126665               170213KO     1400+00000+KO0000007135+0000007135+000000000+000001000+0000008135+0000000000+I40000008135+0000000000+Z
126665001126665018-000170     126665006001023775528MUG OCC. LOVE 2PC MINI 0000001000+00002192+00000+0001T   00002192+0000000929          1400 D94515               1AZ
126665002126665251-000041     126665006001023515889SEAL-TAPE BUFF 48mmx50m0000004000+00001227+00000+0001T   00001227+0000000929          1400 D94810               1AZ
126665003126665112-116038     126665006009681820246TCS CARRIER BAG MIDI   0000001000+00000035+00000+0001T   00000035+0000000929          1400 D94090               1AZ
126666000126666               126666               170213KO     1400+00000+KO0000019066+0000019066+000000000+000002671+0000021730+0000000007+I20000000000+0000021730+Z
126666001126666002-000883     126666006001023770394CAN-OPENER             0000001000+00001753+00000+0001T   00001753+0000000934          1400 D94300               1AZ
126666002126666002-250030     126666006003000268641K/SCALE DIGITAL 5kg    0000001000+00015788+00000+0001T   00015788+0000000934          1400 D94300               1AZ
126666003126666112-116038     126666006009681820246TCS CARRIER BAG MIDI   0000001000+00000035+00000+0001T   00000035+0000000934          1400 D94090               1AZ
126666004126666046-000010     126666004897006172987BATTERIES AAA ALKLN 2PC0000001000+00001490+00000+0001T   00001490+0000000934          1400 D94312               1AZ
126667000126667               126667               170213KO     1400+00000+KO0000012349+0000012349+000000000+000001741+0000014090+0000000000+I40000014090+0000000000+Z
126667001126667112-116069     126667006009681820277TCS CARRIER BAG JUMBO  0000001000+00000048+00000+0001T   00000048+0000000939          1400 D94090               1AZ
126667002126667301-085008     126667006003000673933ORN OCC.LOVE TINSEL HRT0000001000+00003069+00000+0001T   00003069+0000000939          1400 D94505               1AZ
126667003126667077-000239     126667006003000160419GIFT-RIBBON ROLL PEARL 0000001000+00001753+00000+0001T   00001753+0000000939          1400 D94112               1AZ
126667004126667903-000200     126667006009826020234SWT CHOC RP CHOCO 23G  0000006000+00000788+00000+0001T   00000788+0000000939          1400 D94150               1AZ
126667005126667903-000183     126667006003000451043SWT LB HEART LOLLY     0000007000+00000393+00000+0001T   00000393+0000000939          1400 D94150               1AZ
126668000126668               126668               170213KO     1400+00000+KO0000001490+0000001490+000000000+000000209+0000001690+0000000009+I20000000000+0000001690+Z
126668001126668084-070001     126668006001023630018NAIL FILE 12cm         0000001000+00001490+00000+0001T   00001490+0000000940          1400 D94200               1AZ
126669000126669               126669               170213KO     1400+00000+KO0000018148+0000018148+000000000+000002545+0000020693+0000000000+I40000020693+0000000000+Z
126669001126669082-000115     126669006003000360604READING GLS STRNGHT:2.50000001000+00004385+00000+0001T   00004385+0000000945          1400 D94160               1AZ
126669002126669007-000724     126669006003000225958NOTE MAGNETIC 60SHTS   0000001000+00001753+00000+0001T   00001753+0000000945          1400 D94130               1AZ
126669003126669002-000717     126669006001023775184CHOPPING-MATS FLEX 2PCE0000004000+00002630+00000+0001T   00002630+0000000945          1400 D94300               1AZ
126669004126669565-004101     126669006003000548033BALL BOUNCING EGG      0000001000+00001490+00000+0001T   00001490+0000000945          1400 D94745               1AZ
126670000126670               126670               170213KO     1400+00000+KO0000001751+0000001751+000000000+000000246+0000001990+0000000007+I20000000000+0000001990+Z
126670001126670012-000001-A   126670006003000697663MICROWAVES PLATE-COVER 0000001000+00001314+00000+0001T   00001314+0000000947          1400 D94300               1AZ
126670002126670083-000049     126670004891035200024CIG-LIGHTER DISPOSABLE 0000001000+00000437+00000+0001T   00000437+0000000947          1400 D94315               1AZ
126671000126671               126671               170213KO     1400+00000+KO0000007014+0000007014+000000000+000000982+0000007996+0000000000+I40000007996+0000000000+Z
126671001126671018-005009     126671006001023725608MUG W/PLUSH-BEAR LOVE  0000002000+00003507+00000+0001T   00003507+0000000953          1400 D94515               1AZ
126672000126672               126672               170213KO     1400+00000+KO0000001753+0000001753+000000000+000000246+0000001990+0000000009+I20000000000+0000001990+Z
126672001126672080-000113     126672006003000237449CARD&ENVLPE - LOVE     0000001000+00001753+00000+0001T   00001753+0000000953          1400 D94112               1AZ
126673000126673               126673               170213KO     1400+00000+KO0000006660+0000006660+000000000+000000935+0000007590+0000000005+I20000000000+0000007590+Z
126673001126673018-000170     126673006001023775528MUG OCC. LOVE 2PC MINI 0000002000+00002192+00000+0001T   00002192+0000001002          1400 D94515               1AZ
126673002126673304-001204     126673006001023737984FLOWER OCC. TEDDY/ROSES0000001000+00001402+00000+0001T   00001490+0006471002          1400 D94510               1AZ
126673003126673080-000133     126673006003000535613CARD&ENV MINI ASTD DSGN0000002000+00000437+00000+0001T   00000437+0000001002          1400 D94112               1AZ
126674000126674               126674               170213KO     1400+00000+KO0000017921+0000017921+000000000+000002516+0000020437+0000000000+I40000020437+0000000000+Z
126674001126674112-116069     126674006009681820277TCS CARRIER BAG JUMBO  0000001000+00000048+00000+0001T   00000048+0000001006          1400 D94090               1AZ
126674002126674077-000303     126674006001023593757GIFT-BAG PAPER MED     0000002000+00001578+00000+0001T   00001578+0000001006          1400 D94112               1AZ
126674003126674365-001186     126674006003000545940PLAY-SET MINI CASTLE   0000002000+00002630+00000+0001T   00002630+0000001006          1400 D94725               1AZ
126674004126674564-000012     126674006001023130075BUBBLE BOTTLE MAGIC    0000002000+00000700+00000+0001T   00000700+0000001006          1400 D94131               1AZ
126674005126674903-000919     126674006009802868577SWEET NOVELTY LASER POP0000001000+00001753+00000+0001T   00001753+0000001006          1400 D94150               1AZ
126674006126674903-000907     126674006009802868324SWEET LASER BARBIE     0000001000+00002016+00000+0001T   00002016+0000001006          1400 D94150               1AZ
126674007126674903-000012     126674006002099007308SWT MALLOW S/BERRY     0000002000+00000437+00000+0001T   00000437+0000001006          1400 D94150               1AZ
126674008126674903-000194     126674006009826020616SWT CHOC RP LOLLY 25G  0000002000+00001314+00000+0001T   00001314+0000001006          1400 D94150               1AZ
126674009126674903-000183     126674006003000451043SWT LB HEART LOLLY     0000002000+00000393+00000+0001T   00000393+0000001006          1400 D94150               1AZ
126675000126675               126675               170213KO     1400+00000+KO0000012322+0000012322+000000000+000001726+0000014048+0000000000+I40000014048+0000000000+Z
126675001126675466-000109     126675006003000612345BALL RAINBOW DESIGN    0000001000+00001753+00000+0001T   00001753+0000001010          1400 D94785               1AZ
126675002126675567-011446     126675009780857266187BK COLOURING EARLY LEAR0000001000+00003507+00000+0001T   00003507+0000001010          1400 D94757               1AZ
126675003126675112-116069     126675006009681820277TCS CARRIER BAG JUMBO  0000001000+00000048+00000+0001T   00000048+0000001010          1400 D94090               1AZ
126675004126675567-011446     126675009780857266187BK COLOURING EARLY LEAR0000002000+00003507+00000+0001T   00003507+0000001010          1400 D94757               1AZ
126676000126676               126676               170213KO     1400+00000+KO0000008771+0000008771+000000000+000001228+0000009990+0000000009+I20000000000+0000009990+Z
126676001126676039-000799     126676006001023692382CANDLES TEALITE 100PCE 0000001000+00008771+00000+0001T   00008771+0000001012          1400 D94510               1AZ
126677000126677               126677               170213KO     1400+00000+KO0000002663+0000002663+000000000+000000373+0000003030+0000000006+I20000000000+0000003030+Z
126677001126677112-116038     126677006009681820246TCS CARRIER BAG MIDI   0000001000+00000035+00000+0001T   00000035+0000001013          1400 D94090               1AZ
126677002126677006-000166-H   126677006003000608096BALLOONS HELIUM 6PC WHT0000001000+00001314+00000+0001T   00001314+0000001013          1400 D94131               1AZ
126677003126677006-000166-D   126677006003000516490BALLOONS LRG 6PC RED   0000001000+00001314+00000+0001T   00001314+0000001013          1400 D94131               1AZ
126678000126678               126678               170213KO     1400+00000+KO0000011272+0000011272+000000000+000001579+0000012850+0000000001+I20000000000+0000012850+Z
126678001126678112-116069     126678006009681820277TCS CARRIER BAG JUMBO  0000001000+00000048+00000+0001T   00000048+0000001015          1400 D94090               1AZ
126678002126678080-000127     126678006003000424351VALENTINES DAY 36x24CM 0000001000+00002192+00000+0001T   00002192+0000001015          1400 D94112               1AZ
126678003126678077-000303     126678006001023593757GIFT-BAG PAPER MED     0000001000+00001578+00000+0001T   00001578+0000001015          1400 D94112               1AZ
126678004126678368-000049     126678006003000536955PLUSH BEAR 15cm LOVE   0000001000+00004385+00000+0001T   00004385+0000001015          1400 D94745               1AZ
126678005126678003-001001     126678006001023722553ORN GARDEN OWL 10.5cm  0000001000+00003069+00000+0001T   00003069+0000001015          1400 D94505               1AZ
126679000126679               126679               170213KO     1400+00000+KO0000019774+0000019774+000000000+000002772+0000022546+0000000000+I40000022546+0000000000+Z
126679001126679112-116069     126679006009681820277TCS CARRIER BAG JUMBO  0000001000+00000048+00000+0001T   00000048+0000001019          1400 D94090               1AZ
126679002126679002-220009     126679006003000567478FOODCOVER COLL. ROUND  0000001000+00005262+00000+0001T   00005262+0000001019          1400 D94300               1AZ
126679003126679033-000005     126679006001023511584SHEET+IRN-BOARD-BND 4PC0000003000+00002630+00000+0001T   00002630+0000001019          1400 D94200               1AZ
126679004126679200-000066     126679006003000365975STRAWS 12PCE W/UMBRELLA0000001000+00001314+00000+0001T   00001314+0000001019          1400 D94214               1AZ
126679005126679004-072001     126679006003000452378CABLE-TIDY REUSE COL-C 0000001000+00001753+00000+0001T   00001753+0000001019          1400 D94310               1AZ
126679006126679004-078990     126679006001023994431EARPHONES MINI 1.2m    0000001000+00003507+00000+0001T   00003507+0000001019          1400 D94310               1AZ
126680000126680               126680               170213KO     1400+00000+KO0000072881+0000072881+000000000+000010212+0000083093+0000000000+I40000083093+0000000000+Z
126680001126680112-116069     126680006009681820277TCS CARRIER BAG JUMBO  0000001000+00000048+00000+0001T   00000048+0000001044          1400 D94090               1AZ
126680002126680562-000012     126680006001023589682BLOCKS 36PCE SNAP+PLAY 0000001000+00011402+00000+0001T   00011402+0000001044          1400 D94755               1AZ
126680003126680496-059407     126680000078257594078INTEX POOL BABY PANDA  0000001000+00008771+00000+0001T   00008771+0000001044          1400 D94787               1AZ
126680004126680263-001006     126680006001023827883CARS DELUXE P/BCK PACK60000002000+00003946+00000+0001T   00003946+0000001044          1400 D94710               1AZ
126680005126680565-000888     126680006003000607846NOVELTY MESH BALL      0000003000+00001753+00000+0001T   00001753+0000001044          1400 D94745               1AZ
126680006126680112-116069     126680006009681820277TCS CARRIER BAG JUMBO  0000001000+00000048+00000+0001T   00000048+0000001044          1400 D94090               1AZ
126680007126680105-001025     126680006009654960771CONTAINERS CLEAR 4PCE  0000001000+00003069+00000+0001T   00003069+0000001044          1400 D94210               1AZ
126680008126680464-000111     126680006001023114624GAME SKITTLES WOODEN   0000001000+00006139+00000+0001T   00006139+0000001044          1400 D94785               1AZ
126680009126680565-000888     126680006003000607846NOVELTY MESH BALL      0000001000+00001753+00000+0001T   00001753+0000001044          1400 D94745               1AZ
126680010126680105-001025     126680006009654960771CONTAINERS CLEAR 4PCE  0000001000+00003069+00000+0001T   00003069+0000001044          1400 D94210               1AZ
126680011126680303-000806     126680006001023409768COW-BELL BRASS(5BELLS) 0000002000+00005262+00000+0001T   00005262+0000001044          1400 D94510               1AZ
126680012126680077-000151     126680006008766114676GIFT-WRAP C/PHANE ASSTD0000002000+00000876+00000+0001T   00000876+0000001044          1400 D94112               1AZ
126680013126680305-074100     126680006003000239542W/CHIMES MTL TUBES 80cm0000001000+00012279+00000+0001T   00012279+0000001044          1400 D94505               1AZ
126680014126680077-000151     126680006008766114676GIFT-WRAP C/PHANE ASSTD0000001000+00000876+00000+0001T   00000876+0000001044          1400 D94112               1AZ
126681000126681               126681               170213KO     1400+00000+KO0000002366+0000002366+000000000+000000332+0000002698+0000000000+I40000002698+0000000000+Z
126681001126681077-000299     126681006003000395576G/BAG 32x25cm LRG LOVE 0000001000+00001490+00000+0001T   00001490+0000001046          1400 D94112               1AZ
126681002126681077-000011-D   126681006001023808554TISSUE-WRAP WHITE 10PCE0000001000+00000876+00000+0001T   00000876+0000001046          1400 D94112               1AZ
126682000126682               126682               170213KO     1400+00000+KO0000010556+0000010556+000000000+000001478+0000012030+0000000004+I20000000000+0000012030+Z
126682001126682018-005009     126682006001023725608MUG W/PLUSH-BEAR LOVE  0000001000+00003507+00000+0001T   00003507+0000001048          1400 D94515               1AZ
126682002126682112-116038     126682006009681820246TCS CARRIER BAG MIDI   0000001000+00000035+00000+0001T   00000035+0000001048          1400 D94090               1AZ
126682003126682018-005009     126682006001023725608MUG W/PLUSH-BEAR LOVE  0000002000+00003507+00000+0001T   00003507+0000001048          1400 D94515               1AZ
126683000126683               126683               170213KO     1400+00000+KO0000007014+0000007014+000000000+000000982+0000007990+0000000006+I20000000000+0000007990+Z
126683001126683018-005009     126683006001023725608MUG W/PLUSH-BEAR LOVE  0000002000+00003507+00000+0001T   00003507+0000001050          1400 D94515               1AZ
126684000126684               126684               170213KO     1400+00000+KO0000002630+0000002630+000000000+000000369+0000002990+0000000009+I20000000000+0000002990+Z
126684001126684077-000270     126684006003000395453GIFT-BAG PPR JMB 33X45 0000001000+00002630+00000+0001T   00002630+0000001105          1400 D94112               1AZ
126685000126685               126685               170213KO     1400+00000+KO0000002630+0000002630+000000000+000000369+0000002999+0000000000+I40000002999+0000000000+Z
126685001126685566-000367     126685006003000645558STICKER WINDOW DECOR   0000001000+00002630+00000+0001T   00002630+0000001106          1400 D94130               1AZ
126686000126686               126686               170213KO     1400+00000+KO0000001753+0000001753+000000000+000000246+0000001990+0000000009+I20000000000+0000001990+Z
126686001126686027-056191     126686006916920933134DISH-BRUSH+HOOK RECT   0000001000+00001753+00000+0001T   00001753+0000001110          1400 D94212               1AZ
126687000126687               126687               170213KO     1400+00000+KO0000001490+0000001490+000000000+000000209+0000001690+0000000009+I20000000000+0000001690+Z
126687001126687071-081110     126687006936198405454CORRECTION FLUID PEN   0000001000+00001490+00000+0001T   00001490+0000001112          1400 D94130               1AZ
126688000126688               126688               170213KO     1400+00000+KO0000006048+0000006048+000000000+000000849+0000006897+0000000000+I40000006897+0000000000+Z
126688001126688403-000509     126688006001023699664MONEY-BANK PL. PIGGY   0000002000+00002630+00000+0001T   00002630+0000001114          1400 D94510               1AZ
126688002126688077-000383     126688006003000247943GIFT-BAG 11X14CM S/COL 0000001000+00000788+00000+0001T   00000788+0000001114          1400 D94112               1AZ
126689000126689               126689               170213KO     1400+00000+KO0000003770+0000003770+000000000+000000528+0000004298+0000000000+I40000004298+0000000000+Z
126689001126689077-000926     126689006003000414178G/WRAP 700mmx2m LOVE   0000001000+00002192+00000+0001T   00002192+0000001118          1400 D94112               1AZ
126689002126689080-000124     126689006003000297733CARD & ENV VALENTINES  0000001000+00001578+00000+0001T   00001578+0000001118          1400 D94112               1AZ
126690000126690               126690               170213KO     1400+00000+KO0000003331+0000003331+000000000+000000467+0000003790+0000000008+I20000000000+0000003790+Z
126690001126690080-000113     126690006003000237449CARD&ENVLPE - LOVE     0000001000+00001753+00000+0001T   00001753+0000001118          1400 D94112               1AZ
126690002126690077-000303     126690006001023593757GIFT-BAG PAPER MED     0000001000+00001578+00000+0001T   00001578+0000001118          1400 D94112               1AZ
126691000126691               126691               170213KO     1400+00000+KO0000003944+0000003944+000000000+000000553+0000004497+0000000000+I40000004497+0000000000+Z
126691001126691077-000115-B   126691006003000181025GIFT-WRAP PPR 700MMX2M 0000001000+00002630+00000+0001T   00002630+0000001122          1400 D94112               1AZ
126691002126691903-000194     126691006009826020616SWT CHOC RP LOLLY 25G  0000001000+00001314+00000+0001T   00001314+0000001122          1400 D94150               1AZ
126692000126692               126692               170213KO     1400+00000+KO0000003540+0000003540+000000000+000000497+0000004030+0000000007+I20000000000+0000004030+Z
126692001126692077-000151     126692006008766114676GIFT-WRAP C/PHANE ASSTD0000002000+00000876+00000+0001T   00000876+0000001123          1400 D94112               1AZ
126692002126692077-000240     126692006003000326259G/RIBBON 4PC PEARLIZED 0000001000+00001753+00000+0001T   00001753+0000001123          1400 D94112               1AZ
126692003126692112-116038     126692006009681820246TCS CARRIER BAG MIDI   0000001000+00000035+00000+0001T   00000035+0000001123          1400 D94090               1AZ
126693000126693               126693               170213KO     1400+00000+KO0000002192+0000002192+000000000+000000307+0000002499+0000000000+I40000002499+0000000000+Z
126693001126693024-091102     126693006003453000010BAKING-CUP PAPER 50PC  0000001000+00002192+00000+0001T   00002192+0000001125          1400 D94300               1AZ
126694000126694               126694               170213KO     1400+00000+KO0000012327+0000012327+000000000+000001727+0000014050+0000000004+I20000000000+0000014050+Z
126694001126694112-116069     126694006009681820277TCS CARRIER BAG JUMBO  0000001000+00000048+00000+0001T   00000048+0000001127          1400 D94090               1AZ
126694002126694368-000111     126694006001023780812PLUSH BEAR/DOG 29CM    0000001000+00012279+00000+0001T   00012279+0000001127          1400 D94745               1AZ
126695000126695               126695               170213KO     1400+00000+KO0000003507+0000003507+000000000+000000491+0000003998+0000000000+I40000003998+0000000000+Z
126695001126695368-000048     126695006003000537075PLUSH FINGER PUPPETS   0000001000+00003507+00000+0001T   00003507+0000001129          1400 D94745               1AZ
126696000126696               126696               170213KO     1400+00000+KO0000020650+0000020650+000000000+000002894+0000023544+0000000000+I40000023544+0000000000+Z
126696001126696112-116069     126696006009681820277TCS CARRIER BAG JUMBO  0000001000+00000048+00000+0001T   00000048+0000001132          1400 D94090               1AZ
126696002126696018-000136     126696006001023659026MUG OCC LOVE W/PLUSH   0000001000+00003507+00000+0001T   00003507+0000001132          1400 D94515               1AZ
126696003126696031-000002-A   126696006003000247103P/FRAME LOVE 7.5X7.5CM 0000001000+00003507+00000+0001T   00003507+0000001132          1400 D94510               1AZ
126696004126696301-085003     126696006003000420827ORN OCCASION LOVE KEY  0000001000+00005262+00000+0001T   00005262+0000001132          1400 D94505               1AZ
126696005126696077-000303     126696006001023593757GIFT-BAG PAPER MED     0000001000+00001578+00000+0001T   00001578+0000001132          1400 D94112               1AZ
126696006126696080-000113     126696006003000237449CARD&ENVLPE - LOVE     0000001000+00001753+00000+0001T   00001753+0000001132          1400 D94112               1AZ
126696007126696903-000295     126696006001704002899SWT MS FRUITY RASCALS  0000001000+00000876+00000+0001T   00000876+0000001132          1400 D94150               1AZ
126696008126696903-000087     126696006001704000161SWT SPECKLED-EGGS 50G  0000001000+00001139+00000+0001T   00001139+0000001132          1400 D94150               1AZ
126696009126696565-004101     126696006003000548033BALL BOUNCING EGG      0000002000+00001490+00000+0001T   00001490+0000001132          1400 D94745               1AZ
126697000126697               126697               170213KO     1400+00000+KO0000001753+0000001753+000000000+000000246+0000001990+0000000009+I20000000000+0000001990+Z
126697001126697077-000454     126697006003000285266G/BAG METALLIC LRG EMB 0000001000+00001753+00000+0001T   00001753+0000001133          1400 D94112               1AZ
126698000126698               126698               170213KO     1400+00000+KO0000002630+0000002630+000000000+000000369+0000002999+0000000000+I40000002999+0000000000+Z
126698001126698039-000332     126698006001023900470CANDLES 8PCE+NUMBERS   0000001000+00002630+00000+0001T   00002630+0000001135          1400 D94510               1AZ
126699000126699               126699               170213KO     1400+00000+KO0000006346+0000006346+000000000+000000890+0000007236+0000000000+I40000007236+0000000000+Z
126699001126699112-116038     126699006009681820246TCS CARRIER BAG MIDI   0000001000+00000035+00000+0001T   00000035+0000001137          1400 D94090               1AZ
126699002126699133-000034     126699006001023559586OVEN GLOVE & POTHOLDER 0000001000+00002630+00000+0001T   00002630+0000001137          1400 D94212               1AZ
126699003126699077-000011-X   126699006001023809827TISSUE-WRAP SILVER 10PC0000001000+00001753+00000+0001T   00001753+0000001137          1400 D94112               1AZ
126699004126699105-001025-A   126699006009654960979CONTAINERS CLEAR 4PCE  0000001000+00001928+00000+0001T   00001928+0000001137          1400 D94210               1AZ
126700000126700               126700               170213KO     1400+00000+KO0000003685-0000003685-000000000+000000516-0000004210-0000000009+I20000000000+0000004210-Z
126700001126700033-010721     126700006001023678669SAFETY-PINS 20PCE ASSTD0000001000+00000700+00000+0001T   00000700+0000001141          1400 D94200               1 Z
126700002126700082-000115     126700006003000360604READING GLS STRNGHT:2.50000001000-00004385+00000+0001T   00004385+0000001141          1400 D941603IC            1 Z
126701000126701               126701               170213KO     1400+00000+KO0000004385+0000004385+000000000+000000614+0000004990+0000000009+I20000000000+0000004990+Z
126701001126701050-000880-TS  126701006003000688098PADLOCK COMBO BRS 4 WHL0000001000+00004385+00000+0001T   00004385+0000001143          1400 D94855               1AZ
126702000126702               126702               170213KO     1400+00000+KO0000002192+0000002192+000000000+000000307+0000002490+0000000009+I20000000000+0000002490+Z
126702001126702050-000363-Z   126702006001023475282PADLOCK IRON 32mm CARD 0000001000+00002192+00000+0001T   00002192+0000001146          1400 D94855               1AZ
126703000126703               126703               170213KO     1400+00000+KO0000001753+0000001753+000000000+000000246+0000001990+0000000009+I20000000000+0000001990+Z
126703001126703080-000113     126703006003000237449CARD&ENVLPE - LOVE     0000001000+00001753+00000+0001T   00001753+0000001147          1400 D94112               1AZ
126704000126704               126704               170213KO     1400+00000+KO0000003506+0000003506+000000000+000000492+0000003990+0000000008+I20000000000+0000003990+Z
126704001126704200-003024     126704006001023657299REFUSE BAGS 20PCE BLACK0000002000+00001753+00000+0001T   00001753+0000001157          1400 D94214               1AZ
126705000126705               126705               170213KO     1400+00000+KO0000007489+0000007489+000000000+000001049+0000008530+0000000008+I20000000000+0000008530+Z
126705001126705089-060027     126705006003000245871KEY-CHAIN HEART 6X6cm  0000001000+00003069+00000+0001T   00003069+0000001159          1400 D94205               1AZ
126705002126705018-030000     126705006003000421060MUG OCCASIONS LOVE 2PCE0000001000+00004385+00000+0001T   00004385+0000001159          1400 D94515               1AZ
126705003126705112-116038     126705006009681820246TCS CARRIER BAG MIDI   0000001000+00000035+00000+0001T   00000035+0000001159          1400 D94090               1AZ
126706000126706               126706               170213KO     1400+00000+KO0000001578+0000001578+000000000+000000221+0000001790+0000000009+I20000000000+0000001790+Z
126706001126706080-000124     126706006003000297733CARD & ENV VALENTINES  0000001000+00001578+00000+0001T   00001578+0000001202          1400 D94112               1AZ
126707000126707               126707               170213KO     1400+00000+KO0000004385+0000004385+000000000+000000614+0000004999+0000000000+I40000004999+0000000000+Z
126707001126707018-030000     126707006003000421060MUG OCCASIONS LOVE 2PCE0000001000+00004385+00000+0001T   00004385+0000001211          1400 D94515               1AZ
126708000126708               126708               170213KO     1400+00000+KO0000002678+0000002678+000000000+000000376+0000003050+0000000004+I20000000000+0000003050+Z
126708001126708077-000270     126708006003000395453GIFT-BAG PPR JMB 33X45 0000001000+00002630+00000+0001T   00002630+0000001212          1400 D94112               1AZ
126708002126708112-116069     126708006009681820277TCS CARRIER BAG JUMBO  0000001000+00000048+00000+0001T   00000048+0000001212          1400 D94090               1AZ
126709000126709               126709               170213KO     1400+00000+KO0000001753+0000001753+000000000+000000246+0000001999+0000000000+I40000001999+0000000000+Z
126709001126709080-000113     126709006003000237449CARD&ENVLPE - LOVE     0000001000+00001753+00000+0001T   00001753+0000001214          1400 D94112               1AZ
126710000126710               126710               170213KO     1400+00000+KO0000004381+0000004381+000000000+000000614+0000004990+0000000005+I20000000000+0000004990+Z
126710001126710565-000043     126710006003000109562NOVELTY BALL FUNNY FACE0000001000+00001753+00000+0001T   00001753+0000001215          1400 D94745               1AZ
126710002126710903-000194     126710006009826020616SWT CHOC RP LOLLY 25G  0000001000+00001314+00000+0001T   00001314+0000001215          1400 D94150               1AZ
126710003126710007-000136     126710008427973108311BOOK COVER ROLL ASSTD  0000001000+00001314+00000+0001T   00001314+0000001215          1400 D94130               1AZ
126711000126711               126711               170213KO     1400+00000+KO0000006623+0000006623+000000000+000000929+0000007552+0000000000+I40000007552+0000000000+Z
126711001126711112-116069     126711006009681820277TCS CARRIER BAG JUMBO  0000001000+00000048+00000+0001T   00000048+0000001221          1400 D94090               1AZ
126711002126711077-000455     126711006003000285389G/BAG METALLIC LRG SOL 0000001000+00001753+00000+0001T   00001753+0000001221          1400 D94112               1AZ
126711003126711072-020274     126711006001023858443LITTER-LINERS-BAGS 10PC0000001000+00002630+00000+0001T   00002630+0000001221          1400 D94870               1AZ
126711004126711159-000887     126711006001023730817HOOKS PL SUCTION 9PCE  0000001000+00002192+00000+0001T   00002192+0000001221          1400 D94200               1AZ
126712000126712               126712               170213KO     1400+00000+KO0000004385+0000004385+000000000+000000614+0000004990+0000000009+I20000000000+0000004990+Z
126712001126712018-030000     126712006003000421060MUG OCCASIONS LOVE 2PCE0000001000+00004385+00000+0001T   00004385+0000001323          1400 D94515               1AZ
126713000126713               126713               170213KO     1400+00000+KO0000022760+0000022760+000000000+000003189+0000025949+0000000000+I40000025949+0000000000+Z
126713001126713031-001005     126713006003000334520P/FRAME COLL WDN 35X35C0000001000+00017542+00000+0001T   00017542+0000001325          1400 D94510               1AZ
126713002126713112-116069     126713006009681820277TCS CARRIER BAG JUMBO  0000001000+00000048+00000+0001T   00000048+0000001325          1400 D94090               1AZ
126713003126713046-000014     126713006001023725387BATTERIES SIZE:AAA 4PCE0000003000+00001139+00000+0001T   00001139+0000001325          1400 D94312               1AZ
126713004126713077-000299-A   126713006003000670888GIFT-BAG PAPER JMB LOVE0000001000+00001753+00000+0001T   00001753+0000001325          1400 D94112               1AZ
126714000126714               126714               170213KO     1400+00000+KO0000001227+0000001227+000000000+000000172+0000001390+0000000009+I20000000000+0000001390+Z
126714001126714077-000245     126714006001023759214GIFT-RIBBON METALLICx2 0000001000+00001227+00000+0001T   00001227+0000001326          1400 D94112               1AZ
126715000126715               126715               170213KO     1400+00000+KO0000010522+0000010522+000000000+000001474+0000011996+0000000000+I40000011996+0000000000+Z
126715001126715089-000191     126715006003000430185KEY CHAIN BEAR 10CM    0000001000+00002630+00000+0001T   00002630+0000001328          1400 D94205               1AZ
126715002126715031-000923     126715006001023669933P/FRAME BLK W/WORDS    0000001000+00003507+00000+0001T   00003507+0000001328          1400 D94510               1AZ
126715003126715001-000175     126715006001023788108B/MUG GLS LOVE 380ML   0000001000+00004385+00000+0001T   00004385+0000001328          1400 D94515               1AZ
126716000126716               126716               170213KO     1400+00000+KO0000001753+0000001753+000000000+000000246+0000001990+0000000009+I20000000000+0000001990+Z
126716001126716089-000030     126716006003000575671K/CHAIN LOVE MTL ASSTD 0000001000+00001753+00000+0001T   00001753+0000001329          1400 D94205               1AZ
126717000126717               126717               170213KO     1400+00000+KO0000003331+0000003331+000000000+000000467+0000003790+0000000008+I20000000000+0000003790+Z
126717001126717079-000510     126717006001023509079CRAYONS WAX 12-COLOUR  0000001000+00002455+00000+0001T   00002455+0000001332          1400 D94130               1AZ
126717002126717567-014132     126717006003000560028BOOK COLOURING 24 PAGE 0000001000+00000876+00000+0001T   00000876+0000001332          1400 D94757               1AZ
126718000126718               126718               170213KO     1400+00000+KO0000000035+0000000035+000000000+000000005+0000000040+0000000000+I20000000000+0000000040+Z
126718001126718112-116038     126718006009681820246TCS CARRIER BAG MIDI   0000001000+00000035+00000+0001T   00000035+0000001333          1400 D94090               1AZ
126719000126719               126719               170213KO     1400+00000+KO0000001490+0000001490+000000000+000000209+0000001690+0000000009+I20000000000+0000001690+Z
126719001126719046-000010     126719004897006172987BATTERIES AAA ALKLN 2PC0000001000+00001490+00000+0001T   00001490+0000001334          1400 D94312               1AZ
126720000126720               126720               170213KO     1400+00000+KO0000000002-0000000002-000000000+000000000+0000000010-0000000008+I20000000000+0000000010-Z
126720001126720018-030000     126720006003000421060MUG OCCASIONS LOVE 2PCE0000001000-00004385+00000+0001T   00004385+0000001341          1400 D945152IC            1 Z
126720002126720018-000136     126720006001023659026MUG OCC LOVE W/PLUSH   0000001000+00003507+00000+0001T   00003507+0000001341          1400 D94515               1 Z
126720003126720089-000192-A   126720006001023901774KEY-CHAIN ACRYLIC      0000001000+00000876+00000+0001T   00000876+0000001341          1400 D94205               1 Z
126721000126721               126721               170213KO     1400+00000+KO0000011399+0000011399+000000000+000001597+0000012996+0000000000+I40000012996+0000000000+Z
126721001126721018-000139     126721006003000547227MUG S/WARE SLANTED SHPE0000001000+00001753+00000+0001T   00002630+0008171343          1400 D94515               1AZ
126721002126721002-000740     126721006001023763945GRATER 4-WAY WHITE     0000001000+00002192+00000+0001T   00002192+0000001343          1400 D94300               1AZ
126721003126721077-000926     126721006003000414178G/WRAP 700mmx2m LOVE   0000001000+00002192+00000+0001T   00002192+0000001343          1400 D94112               1AZ
126721004126721562-006274     126721006001023744432EDU SKETCH-BOARD       0000001000+00005262+00000+0001T   00005262+0000001343          1400 D94755               1AZ
126722000126722               126722               170213KO     1400+00000+KO0000004383+0000004383+000000000+000000614+0000004997+0000000000+I40000004997+0000000000+Z
126722001126722903-003080     126722005907029004673SWT SNACK STIX CHOC 50g0000001000+00000876+00000+0001T   00000876+0000001345          1400 D94150               1AZ
126722002126722031-000002-A   126722006003000247103P/FRAME LOVE 7.5X7.5CM 0000001000+00003507+00000+0001T   00003507+0000001345          1400 D94510               1AZ
126723000126723               126723               170213KO     1400+00000+KO0000005259+0000005259+000000000+000000737+0000005996+0000000000+I40000005996+0000000000+Z
126723001126723903-003080     126723005907029004673SWT SNACK STIX CHOC 50g0000002000+00000876+00000+0001T   00000876+0000001347          1400 D94150               1AZ
126723002126723031-000002-A   126723006003000247103P/FRAME LOVE 7.5X7.5CM 0000001000+00003507+00000+0001T   00003507+0000001347          1400 D94510               1AZ
126724000126724               126724               170213KO     1400+00000+KO0000000788+0000000788+000000000+000000111+0000000890+0000000009+I20000000000+0000000890+Z
126724001126724566-000858     126724006001023760975STCKRS G/OUTLINE ASSTD 0000001000+00000788+00000+0001T   00000788+0000001347          1400 D94130               1AZ
126725000126725               126725               170213KO     1400+00000+KO0000011011+0000011011+000000000+000001542+0000012550+0000000003+I20000000000+0000012550+Z
126725001126725112-116069     126725006009681820277TCS CARRIER BAG JUMBO  0000001000+00000048+00000+0001T   00000048+0000001350          1400 D94090               1AZ
126725002126725040-000105     126725006001023995940C/HOLDER GLS LAMP      0000001000+00008771+00000+0001T   00008771+0000001350          1400 D94510               1AZ
126725003126725080-000127     126725006003000424351VALENTINES DAY 36x24CM 0000001000+00002192+00000+0001T   00002192+0000001350          1400 D94112               1AZ
126726000126726               126726               170213KO     1400+00000+KO0000002629+0000002629+000000000+000000369+0000002998+0000000000+I40000002998+0000000000+Z
126726001126726039-000108     126726006001023524034TEA-LITE CANDLES 8PCE  0000001000+00001490+00000+0001T   00001490+0000001356          1400 D94510               1AZ
126726002126726903-000087     126726006001704000161SWT SPECKLED-EGGS 50G  0000001000+00001139+00000+0001T   00001139+0000001356          1400 D94150               1AZ
126727000126727               126727               170213KO     1400+00000+KO0000002192+0000002192+000000000+000000307+0000002490+0000000009+I20000000000+0000002490+Z
126727001126727080-000127     126727006003000424351VALENTINES DAY 36x24CM 0000001000+00002192+00000+0001T   00002192+0000001357          1400 D94112               1AZ
126728000126728               126728               170213KO     1400+00000+KO0000005297+0000005297+000000000+000000742+0000006039+0000000000+I40000006039+0000000000+Z
126728001126728466-002096     126728006001023800398CATCHBALL VELCRO W/BALL0000001000+00005262+00000+0001T   00005262+0000001358          1400 D94785               1AZ
126728002126728112-116038     126728006009681820246TCS CARRIER BAG MIDI   0000001000+00000035+00000+0001T   00000035+0000001358          1400 D94090               1AZ
126729000126729               126729               170213KO     1400+00000+KO0000011524+0000011524+000000000+000001614+0000013138+0000000000+I40000013138+0000000000+Z
126729001126729018-000127     126729006001023380289MUG OCC STRAIGHT LOVE  0000003000+00001578+00000+0001T   00001753+0006471409          1400 D94515               1AZ
126729002126729903-000194     126729006009826020616SWT CHOC RP LOLLY 25G  0000003000+00001314+00000+0001T   00001314+0000001409          1400 D94150               1AZ
126729003126729112-116069     126729006009681820277TCS CARRIER BAG JUMBO  0000001000+00000048+00000+0001T   00000048+0000001409          1400 D94090               1AZ
126729004126729903-000070     126729006001704001106SWT TOFFEE CREAMY 35g  0000004000+00000700+00000+0001T   00000700+0000001409          1400 D94150               1AZ
126730000126730               126730               170213KO     1400+00000+KO0000001139+0000001139+000000000+000000160+0000001290+0000000009+I20000000000+0000001290+Z
126730001126730046-000014     126730006001023725387BATTERIES SIZE:AAA 4PCE0000001000+00001139+00000+0001T   00001139+0000001409          1400 D94312               1AZ
126731000126731               126731               170213KO     1400+00000+KO0000008771+0000008771+000000000+000001228+0000009999+0000000000+I40000009999+0000000000+Z
126731001126731019-000080     126731006001023775740VASE GLS FLORIST BALL  0000001000+00008771+00000+0001T   00008771+0000001413          1400 D94510               1AZ
126732000126732               126732               170213KO     1400+00000+KO0000001753+0000001753+000000000+000000246+0000001990+0000000009+I20000000000+0000001990+Z
126732001126732080-000115     126732006003000237333CARD&ENVELOPE - BLANKS 0000001000+00001753+00000+0001T   00001753+0000001416          1400 D94112               1AZ
126733000126733               126733               170213KO     1400+00000+KO0000003507+0000003507+000000000+000000491+0000003990+0000000008+I20000000000+0000003990+Z
126733001126733018-005009     126733006001023725608MUG W/PLUSH-BEAR LOVE  0000001000+00003507+00000+0001T   00003507+0000001419          1400 D94515               1AZ
126734000126734               126734               170213KO     1400+00000+KO0000001753+0000001753+000000000+000000246+0000001990+0000000009+I20000000000+0000001990+Z
126734001126734200-003024     126734006001023657299REFUSE BAGS 20PCE BLACK0000001000+00001753+00000+0001T   00001753+0000001423          1400 D94214               1AZ
126735000126735               126735               170213KO     1400+00000+KO0000013157+0000013157+000000000+000001842+0000014990+0000000009+I20000000000+0000014990+Z
126735001126735497-068615     126735000078257686155H/PUMP HIGH-O/PUT 48cm 0000001000+00013157+00000+0001T   00013157+0000001427          1400 D94787               1AZ
126736000126736               126736               170213KO     1400+00000+KO0000004385+0000004385+000000000+000000614+0000004990+0000000009+I20000000000+0000004990+Z
126736001126736018-030000     126736006003000421060MUG OCCASIONS LOVE 2PCE0000001000+00004385+00000+0001T   00004385+0000001428          1400 D94515               1AZ
126737000126737               126737               170213KO     1400+00000+KO0000013903+0000013903+000000000+000001948+0000015851+0000000000+I40000015851+0000000000+Z
126737001126737018-000127     126737006001023380289MUG OCC STRAIGHT LOVE  0000001000+00001578+00000+0001T   00001753+0006471437          1400 D94515               1AZ
126737002126737368-000701     126737006003000477432PLUSH DOG              0000001000+00006139+00000+0001T   00006139+0000001437          1400 D94745               1AZ
126737003126737077-000151     126737006008766114676GIFT-WRAP C/PHANE ASSTD0000001000+00000876+00000+0001T   00000876+0000001437          1400 D94112               1AZ
126737004126737103-000083     126737006003000638062BAMBOO BASKET 27x20x8cm0000001000+00005262+00000+0001T   00005262+0000001437          1400 D94300               1AZ
126737005126737112-116069     126737006009681820277TCS CARRIER BAG JUMBO  0000001000+00000048+00000+0001T   00000048+0000001437          1400 D94090               1AZ
126738000126738               126738               170213KO     1400+00000+KO0000003542+0000003542+000000000+000000496+0000004030+0000000008+I20000000000+0000004030+Z
126738001126738018-000136     126738006001023659026MUG OCC LOVE W/PLUSH   0000001000+00003507+00000+0001T   00003507+0000001438          1400 D94515               1AZ
126738002126738112-116038     126738006009681820246TCS CARRIER BAG MIDI   0000001000+00000035+00000+0001T   00000035+0000001438          1400 D94090               1AZ
126739000126739               126739               170213KO     1400+00000+KO0000008992+0000008992+000000000+000001260+0000010250+0000000002+I20000000000+0000010250+Z
126739001126739077-000304     126739006001023483232GIFT-BAG 25X32CM E/DAY 0000001000+00001490+00000+0001T   00001490+0000001441          1400 D94112               1AZ
126739002126739077-000920     126739006003000413812G/WRAP 700mmx2m BIRTHDA0000001000+00002192+00000+0001T   00002192+0000001441          1400 D94112               1AZ
126739003126739566-000321     126739006003000423019STICKER R/DEC BALLERINA0000001000+00005262+00000+0001T   00005262+0000001441          1400 D94130               1AZ
126739004126739112-116069     126739006009681820277TCS CARRIER BAG JUMBO  0000001000+00000048+00000+0001T   00000048+0000001441          1400 D94090               1AZ
126740000126740               126740               170213KO     1400+00000+KO0000008771+0000008771+000000000+000001228+0000009990+0000000009+I20000000000+0000009990+Z
126740001126740039-000799     126740006001023692382CANDLES TEALITE 100PCE 0000001000+00008771+00000+0001T   00008771+0000001442          1400 D94510               1AZ
126741000126741               126741               170213KO     1400+00000+KO0000004820+0000004820+000000000+000000676+0000005490+0000000006+I20000000000+0000005490+Z
126741001126741080-000101     126741006003000236732CARD&ENVLPE FEMALE     0000001000+00001753+00000+0001T   00001753+0000001449          1400 D94112               1AZ
126741002126741077-000455     126741006003000285389G/BAG METALLIC LRG SOL 0000001000+00001753+00000+0001T   00001753+0000001449          1400 D94112               1AZ
126741003126741077-000407     126741006003000145096G/BAG PP 19X26X8CM     0000001000+00001314+00000+0001T   00001314+0000001449          1400 D94112               1AZ
126742000126742               126742               170213KO     1400+00000+KO0000001314+0000001314+000000000+000000184+0000001490+0000000008+I20000000000+0000001490+Z
126742001126742903-000194     126742006009826020616SWT CHOC RP LOLLY 25G  0000001000+00001314+00000+0001T   00001314+0000001450          1400 D94150               1AZ
126743000126743               126743               170213KO     1400+00000+KO0000001753+0000001753+000000000+000000246+0000001990+0000000009+I20000000000+0000001990+Z
126743001126743077-000309     126743006001023608604GIFT-BAG 25X32CM GLOSS 0000001000+00001753+00000+0001T   00001753+0000001453          1400 D94112               1AZ
126744000126744               126744               170213KO     1400+00000+KO0000001788+0000001788+000000000+000000251+0000002039+0000000000+I40000002039+0000000000+Z
126744001126744080-000113     126744006003000237449CARD&ENVLPE - LOVE     0000001000+00001753+00000+0001T   00001753+0000001457          1400 D94112               1AZ
126744002126744112-116038     126744006009681820246TCS CARRIER BAG MIDI   0000001000+00000035+00000+0001T   00000035+0000001457          1400 D94090               1AZ
126745000126745               126745               170213KO     1400+00000+KO0000008771+0000008771+000000000+000001228+0000009990+0000000009+I20000000000+0000009990+Z
126745001126745019-000076     126745006001023757159V/GLASS 25CM C/DESIGN  0000001000+00008771+00000+0001T   00008771+0000001458          1400 D94510               1AZ
126746000126746               126746               170213KO     1400+00000+KO0000000613+0000000613+000000000+000000086+0000000699+0000000000+I40000000699+0000000000+Z
126746001126746077-000311     126746006001023608666GIFT-BAG 11X14CM GLOSS 0000001000+00000613+00000+0001T   00000613+0000001501          1400 D94112               1AZ
126747000126747               126747               170213KO     1400+00000+KO0000008240+0000008240+000000000+000001156+0000009396+0000000000+I40000009396+0000000000+Z
126747001126747077-000245     126747006001023759214GIFT-RIBBON METALLICx2 0000001000+00001227+00000+0001T   00001227+0000001503          1400 D94112               1AZ
126747002126747903-000624     126747006003000671793SWEET LOLLY BLU/BRRY   0000001000+00001753+00000+0001T   00001753+0000001503          1400 D94150               1AZ
126747003126747039-000332     126747006001023900470CANDLES 8PCE+NUMBERS   0000001000+00002630+00000+0001T   00002630+0000001503          1400 D94510               1AZ
126747004126747006-000323-D   126747006003000126248CONFETTI H/BIRTHDAY 3PK0000001000+00002630+00000+0001T   00002630+0000001503          1400 D94131               1AZ
126748000126748               126748               170213KO     1400+00000+KO0000001753+0000001753+000000000+000000246+0000001990+0000000009+I20000000000+0000001990+Z
126748001126748560-000107     126748006003000547906DOMESTIC 3PC MINI PETS 0000001000+00001753+00000+0001T   00001753+0000001504          1400 D94745               1AZ
126749000126749               126749               170213KO     1400+00000+KO0000008819+0000008819+000000000+000001235+0000010054+0000000000+I40000010054+0000000000+Z
126749001126749039-000799     126749006001023692382CANDLES TEALITE 100PCE 0000001000+00008771+00000+0001T   00008771+0000001509          1400 D94510               1AZ
126749002126749112-116069     126749006009681820277TCS CARRIER BAG JUMBO  0000001000+00000048+00000+0001T   00000048+0000001509          1400 D94090               1AZ
126750000126750               126750               170213KO     1400+00000+KO0000002630+0000002630+000000000+000000369+0000002990+0000000009+I20000000000+0000002990+Z
126750001126750077-000270     126750006003000395453GIFT-BAG PPR JMB 33X45 0000001000+00002630+00000+0001T   00002630+0000001511          1400 D94112               1AZ
126751000126751               126751               170213KO     1400+00000+KO0000002103+0000002103+000000000+000000295+0000002390+0000000008+I20000000000+0000002390+Z
126751001126751079-013032-C   126751006003000389520POLY SHAPES            0000001000+00001578+00000+0001T   00001578+0000001512          1400 D94130               1AZ
126751002126751002-021040     126751006001023812216PARTY-PICKS 100PCE     0000001000+00000525+00000+0001T   00000525+0000001512          1400 D94300               1AZ
126752000126752               126752               170213KO     1400+00000+KO0000003069+0000003069+000000000+000000430+0000003490+0000000009+I20000000000+0000003490+Z
126752001126752089-060027     126752006003000245871KEY-CHAIN HEART 6X6cm  0000001000+00003069+00000+0001T   00003069+0000001516          1400 D94205               1AZ
126753000126753               126753               170213KO     1400+00000+KO0000001314+0000001314+000000000+000000184+0000001498+0000000000+I40000001498+0000000000+Z
126753001126753077-000310     126753006001023608635GIFT-BAG 18X23CM GLOSS 0000001000+00001314+00000+0001T   00001314+0000001519          1400 D94112               1AZ
126754000126754               126754               170213KO     1400+00000+KO0000008771+0000008771+000000000+000001228+0000009999+0000000000+I40000009999+0000000000+Z
126754001126754039-000799     126754006001023692382CANDLES TEALITE 100PCE 0000001000+00008771+00000+0001T   00008771+0000001521          1400 D94510               1AZ
126755000126755               126755               170213KO     1400+00000+KO0000003507+0000003507+000000000+000000491+0000003990+0000000008+I20000000000+0000003990+Z
126755001126755082-098779     126755006001492987798SUNGLASS KIDS HEART    0000001000+00003507+00000+0001T   00003507+0000001522          1400 D94160               1AZ
126756000126756               126756               170213KO     1400+00000+KO0000047653+0000047653+000000000+000006680+0000054333+0000000000+I40000054333+0000000000+Z
126756001126756112-116069     126756006009681820277TCS CARRIER BAG JUMBO  0000001000+00000048+00000+0001T   00000048+0000001526          1400 D94090               1AZ
126756002126756366-001100     126756006003000031443DRESS UP HAT PIRATE    0000001000+00005262+00000+0001T   00005262+0000001526          1400 D94131               1AZ
126756003126756039-000324     126756006001023775221B/CANDLES+HOLDERS 24PCE0000001000+00001490+00000+0001T   00001490+0000001526          1400 D94510               1AZ
126756004126756563-000318-L   126756006003000407088SERVIETTES 33cm RED    0000002000+00002192+00000+0001T   00002192+0000001526          1400 D94214               1AZ
126756005126756006-000093     126756006003000539932PARTY BANNER FLAGS ASST0000002000+00001753+00000+0001T   00001753+0000001526          1400 D94131               1AZ
126756006126756903-000616     126756006003000644827SWT HS SWORD 60cm      0000001000+00003507+00000+0001T   00003507+0000001526          1400 D94150               1AZ
126756007126756903-000090     126756006009826020821SWT GS CHOCO COINS 60g 0000014000+00002104+00000+0001T   00002104+0000001526          1400 D94150               1AZ
126757000126757               126757               170213KO     1400+00000+KO0000049098+0000049098+000000000+000006874+0000055972+0000000000+I40000055972+0000000000+Z
126757001126757903-000616     126757006003000644827SWT HS SWORD 60cm      0000014000+00003507+00000+0001T   00003507+0000001530          1400 D94150               1AZ
126758000126758               126758               170213KO     1400+00000+KO0000003507+0000003507+000000000+000000491+0000003990+0000000008+I20000000000+0000003990+Z
126758001126758031-000923     126758006001023669933P/FRAME BLK W/WORDS    0000001000+00003507+00000+0001T   00003507+0000001532          1400 D94510               1AZ
126759000126759               126759               170213KO     1400+00000+KO0000003419+0000003419+000000000+000000479+0000003890+0000000008+I20000000000+0000003890+Z
126759001126759031-000868-A   126759006001023798534P/FRAME PL BLCK 10X15CM0000001000+00002192+00000+0001T   00002192+0000001532          1400 D94510               1AZ
126759002126759077-000245     126759006001023759214GIFT-RIBBON METALLICx2 0000001000+00001227+00000+0001T   00001227+0000001532          1400 D94112               1AZ
126760000126760               126760               170213KO     1400+00000+KO0000008769+0000008769+000000000+000001228+0000009997+0000000000+I40000009997+0000000000+Z
126760001126760266-001026     126760006003000473618SWORD 52cm+35cm AXE    0000001000+00003507+00000+0001T   00003507+0000001540          1400 D94710               1AZ
126760002126760366-001100     126760006003000031443DRESS UP HAT PIRATE    0000001000+00005262+00000+0001T   00005262+0000001540          1400 D94131               1AZ
126761000126761               126761               170213KO     1400+00000+KO0000010571+0000010571+000000000+000001481+0000012052+0000000000+I40000012052+0000000000+Z
126761001126761112-116069     126761006009681820277TCS CARRIER BAG JUMBO  0000001000+00000048+00000+0001T   00000048+0000001543          1400 D94090               1AZ
126761002126761077-000455     126761006003000285389G/BAG METALLIC LRG SOL 0000001000+00001753+00000+0001T   00001753+0000001543          1400 D94112               1AZ
126761003126761031-080508     126761006001023802415P/FRAME PL 22X11CM LOVE0000001000+00004385+00000+0001T   00004385+0000001543          1400 D94510               1AZ
126761004126761368-000001     126761006003000097982Plush Bear 25cm        0000001000+00004385+00000+0001T   00004385+0000001543          1400 D94745               1AZ
126762000126762               126762               170213KO     1400+00000+KO0000032933+0000032933+000000000+000004614+0000037547+0000000000+I40000037547+0000000000+Z
126762001126762034-091340     126762006001023754370BABY-BIB PRINT MUM/DAD 0000001000+00003069+00000+0001T   00003069+0000001547          1400 D94215               1AZ
126762002126762369-000225     126762006001023857132BABY EDU BATHTIME 5PC  0000001000+00002630+00000+0001T   00002630+0000001547          1400 D94745               1AZ
126762003126762104-000184     126762006003000666157CUTLERY HOLDER PL 3-DIV0000001000+00003507+00000+0001T   00003507+0000001547          1400 D94210               1AZ
126762004126762565-000010     126762006001023865984ROBOT ARM PL 30CM      0000001000+00002630+00000+0001T   00002630+0000001547          1400 D94745               1AZ
126762005126762124-001300     126762006003000486861STORAGE TIN WASHING    0000002000+00006139+00000+0001T   00006139+0000001547          1400 D94300               1AZ
126762006126762112-116069     126762006009681820277TCS CARRIER BAG JUMBO  0000001000+00000048+00000+0001T   00000048+0000001547          1400 D94090               1AZ
126762007126762016-006545     126762006003000579877S/JAR GLS COUNTER 2SIDE0000001000+00008771+00000+0001T   00008771+0000001547          1400 D94300               1AZ
126763000126763               126763               170213KO     1400+00000+KO0000002630+0000002630+000000000+000000369+0000002990+0000000009+I20000000000+0000002990+Z
126763001126763077-000270     126763006003000395453GIFT-BAG PPR JMB 33X45 0000001000+00002630+00000+0001T   00002630+0000001548          1400 D94112               1AZ
126764000126764               126764               170213KO     1400+00000+KO0000004680+0000004680+000000000+000000657+0000005330+0000000007+I20000000000+0000005330+Z
126764001126764006-000120     126764006001023346889BALLOONS 10PC MIX COL  0000001000+00001753+00000+0001T   00001753+0000001549          1400 D94131               1AZ
126764002126764039-000322     126764006001023524157B/CANDLES W/HOLDERS 24 0000001000+00001139+00000+0001T   00001139+0000001549          1400 D94510               1AZ
126764003126764006-000092     126764006001023739650BANNER BIRTHDAY PAPER  0000001000+00001753+00000+0001T   00001753+0000001549          1400 D94131               1AZ
126764004126764112-116038     126764006009681820246TCS CARRIER BAG MIDI   0000001000+00000035+00000+0001T   00000035+0000001549          1400 D94090               1AZ
126765000126765               126765               170213KO     1400+00000+KO0000001962+0000001962+000000000+000000276+0000002230+0000000008+I20000000000+0000002230+Z
126765001126765077-000304     126765006001023483232GIFT-BAG 25X32CM E/DAY 0000001000+00001490+00000+0001T   00001490+0000001612          1400 D94112               1AZ
126765002126765080-000133     126765006003000535613CARD&ENV MINI ASTD DSGN0000001000+00000437+00000+0001T   00000437+0000001612          1400 D94112               1AZ
126765003126765112-116038     126765006009681820246TCS CARRIER BAG MIDI   0000001000+00000035+00000+0001T   00000035+0000001612          1400 D94090               1AZ
126766000126766               126766               170213KO     1400+00000+KO0000001490+0000001490+000000000+000000209+0000001690+0000000009+I20000000000+0000001690+Z
126766001126766077-000384     126766006003000275243G/BAG HOT STMP 18x23CM 0000001000+00001490+00000+0001T   00001490+0000001614          1400 D94112               1AZ
126767000126767               126767               170213KO     1400+00000+KO0000001753+0000001753+000000000+000000246+0000001990+0000000009+I20000000000+0000001990+Z
126767001126767077-000455     126767006003000285389G/BAG METALLIC LRG SOL 0000001000+00001753+00000+0001T   00001753+0000001615          1400 D94112               1AZ
126768000126768               126768               170213KO     1400+00000+KO0000000876+0000000876+000000000+000000123+0000000990+0000000009+I20000000000+0000000990+Z
126768001126768077-000011-D   126768006001023808554TISSUE-WRAP WHITE 10PCE0000001000+00000876+00000+0001T   00000876+0000001617          1400 D94112               1AZ
126769000126769               126769               170213KO     1400+00000+KO0000001788+0000001788+000000000+000000251+0000002039+0000000000+I40000002039+0000000000+Z
126769001126769080-000113     126769006003000237449CARD&ENVLPE - LOVE     0000001000+00001753+00000+0001T   00001753+0000001619          1400 D94112               1AZ
126769002126769112-116038     126769006009681820246TCS CARRIER BAG MIDI   0000001000+00000035+00000+0001T   00000035+0000001619          1400 D94090               1AZ
126770000126770               126770               170213KO     1400+00000+KO0000000306+0000000306+000000000+000000043+0000000340+0000000009+I20000000000+0000000340+Z
126770001126770007-000123     126770006003000533879BOOK COVER 450mmx1.5m  0000001000+00000306+00000+0001T   00000306+0000001619          1400 D94130               1AZ
126771000126771               126771               170213KO     1400+00000+KO0000013626+0000013626+000000000+000001909+0000015535+0000000000+I40000015535+0000000000+Z
126771001126771112-116038     126771006009681820246TCS CARRIER BAG MIDI   0000001000+00000035+00000+0001T   00000035+0000001621          1400 D94090               1AZ
126771002126771039-000799     126771006001023692382CANDLES TEALITE 100PCE 0000001000+00008771+00000+0001T   00008771+0000001621          1400 D94510               1AZ
126771003126771046-000014-A   126771004897006177708BATTERIES SIZE:AAA 8PCE0000001000+00001753+00000+0001T   00001753+0000001621          1400 D94312               1AZ
126771004126771046-000012     126771006904708013062BATTERIES AA  CARD-OF-40000001000+00001314+00000+0001T   00001314+0000001621          1400 D94312               1AZ
126771005126771046-000014-A   126771004897006177708BATTERIES SIZE:AAA 8PCE0000001000+00001753+00000+0001T   00001753+0000001621          1400 D94312               1AZ
126772000126772               126772               170213KO     1400+00000+KO0000005699+0000005699+000000000+000000798+0000006497+0000000000+I40000006497+0000000000+Z
126772001126772080-000127     126772006003000424351VALENTINES DAY 36x24CM 0000001000+00002192+00000+0001T   00002192+0000001624          1400 D94112               1AZ
126772002126772562-000011     126772006003000600984PLAY DOUGH NEON TUBE   0000001000+00003507+00000+0001T   00003507+0000001624          1400 D94755               1AZ
126773000126773               126773               170213KO     1400+00000+KO0000003542+0000003542+000000000+000000496+0000004038+0000000000+I40000004038+0000000000+Z
126773001126773018-000136     126773006001023659026MUG OCC LOVE W/PLUSH   0000001000+00003507+00000+0001T   00003507+0000001626          1400 D94515               1AZ
126773002126773112-116038     126773006009681820246TCS CARRIER BAG MIDI   0000001000+00000035+00000+0001T   00000035+0000001626          1400 D94090               1AZ
126774000126774               126774               170213KO     1400+00000+KO0000004383+0000004383+000000000+000000615+0000004990+0000000008+I20000000000+0000004990+Z
126774001126774089-000030     126774006003000575671K/CHAIN LOVE MTL ASSTD 0000001000+00001753+00000+0001T   00001753+0000001626          1400 D94205               1AZ
126774002126774077-000270     126774006003000395453GIFT-BAG PPR JMB 33X45 0000001000+00002630+00000+0001T   00002630+0000001626          1400 D94112               1AZ
126775000126775               126775               170213KO     1400+00000+KO0000004431+0000004431+000000000+000000622+0000005050+0000000003+I20000000000+0000005050+Z
126775001126775077-000299-A   126775006003000670888GIFT-BAG PAPER JMB LOVE0000001000+00001753+00000+0001T   00001753+0000001627          1400 D94112               1AZ
126775002126775077-000270     126775006003000395453GIFT-BAG PPR JMB 33X45 0000001000+00002630+00000+0001T   00002630+0000001627          1400 D94112               1AZ
126775003126775112-116069     126775006009681820277TCS CARRIER BAG JUMBO  0000001000+00000048+00000+0001T   00000048+0000001627          1400 D94090               1AZ
126776000126776               126776               170213KO     1400+00000+KO0000001753+0000001753+000000000+000000246+0000001990+0000000009+I20000000000+0000001990+Z
126776001126776039-000318     126776006003000406159B/DAY CANDLES SMALL NO 0000001000+00001753+00000+0001T   00001753+0000001631          1400 D94510               1AZ
126777000126777               126777               170213KO     1400+00000+KO0000008806+0000008806+000000000+000001233+0000010039+0000000000+I40000010039+0000000000+Z
126777001126777031-000924     126777006001023669964P/FRAME COLLAGE PL     0000001000+00008771+00000+0001T   00008771+0000001635          1400 D94510               1AZ
126777002126777112-116038     126777006009681820246TCS CARRIER BAG MIDI   0000001000+00000035+00000+0001T   00000035+0000001635          1400 D94090               1AZ
126778000126778               126778               170213KO     1400+00000+KO0000076343+0000076343+000000000+000010696+0000087039+0000000000+I40000087039+0000000000+Z
126778001126778112-116069     126778006009681820277TCS CARRIER BAG JUMBO  0000001000+00000048+00000+0001T   00000048+0000001638          1400 D94090               1AZ
126778002126778024-000195     126778006003000396498KIDDIES B/WARE ACC 2PC 0000009000+00006139+00000+0001T   00006139+0000001638          1400 D94300               1AZ
126778003126778039-000320     126778006001023816153BIRTHDAY-CANDLES 13PCE 0000001000+00002630+00000+0001T   00002630+0000001638          1400 D94510               1AZ
126778004126778024-000216     126778006001023766557KIDDIES B/WARE ACC 3PC 0000006000+00003069+00000+0001T   00003069+0000001638          1400 D94300               1AZ
126779000126779               126779               170213KO     1400+00000+KO0000026046+0000026046+000000000+000003649+0000029695+0000000000+I40000029695+0000000000+Z
126779001126779077-000299-A   126779006003000670888GIFT-BAG PAPER JMB LOVE0000001000+00001753+00000+0001T   00001753+0000001643          1400 D94112               1AZ
126779002126779368-000637     126779006001023874092PLUSH BEAR SLEEPING LOV0000001000+00011402+00000+0001T   00012279+0006471643          1400 D94745               1AZ
126779003126779077-000384     126779006003000275243G/BAG HOT STMP 18x23CM 0000001000+00001490+00000+0001T   00001490+0000001643          1400 D94112               1AZ
126779004126779301-000070     126779006001023805225ORN ANGEL 4-ASSTD      0000001000+00008771+00000+0001T   00008771+0000001643          1400 D94505               1AZ
126779005126779301-000016     126779006001023817556ORN SENTIMENT HEART ASS0000001000+00002630+00000+0001T   00002630+0000001643          1400 D94505               1AZ
126780000126780               126780               170213KO     1400+00000+KO0000005117+0000005117+000000000+000000719+0000005836+0000000000+I40000005836+0000000000+Z
126780001126780039-000026     126780006001023551610C/TAPERED 25CM M/RED   0000002000+00001051+00000+0001T   00001051+0000001645          1400 D94510               1AZ
126780002126780112-116038     126780006009681820246TCS CARRIER BAG MIDI   0000001000+00000035+00000+0001T   00000035+0000001645          1400 D94090               1AZ
126780003126780016-006510     126780006003000593330STORAGE-JAR 6PC 10ml   0000002000+00001490+00000+0001T   00001490+0000001645          1400 D94300               1AZ
126781000126781               126781               170213KO     1400+00000+KO0000025254+0000025254+000000000+000003539+0000028793+0000000000+I40000028793+0000000000+Z
126781001126781077-000270     126781006003000395453GIFT-BAG PPR JMB 33X45 0000001000+00002630+00000+0001T   00002630+0000001648          1400 D94112               1AZ
126781002126781368-000637     126781006001023874092PLUSH BEAR SLEEPING LOV0000001000+00011402+00000+0001T   00012279+0006471648          1400 D94745               1AZ
126781003126781018-005009     126781006001023725608MUG W/PLUSH-BEAR LOVE  0000001000+00003507+00000+0001T   00003507+0000001648          1400 D94515               1AZ
126781004126781018-005007     126781006003000515516MUG OCC. LOVE W/HEARTS 0000001000+00006139+00000+0001T   00006139+0000001648          1400 D94515               1AZ
126781005126781903-002851     126781000000087108538MENTOS ROLL STRAWBERRY 0000001000+00001051+00000+0001T   00001051+0000001648          1400 D94150               1AZ
126781006126781903-000077     126781006939873501687SWT GS MAGIC ROCK FRUIT0000001000+00000525+00000+0001T   00000525+0000001648          1400 D94150               1AZ
126782000126782               126782               170213KO     1400+00000+KO0000006138+0000006138+000000000+000000860+0000006990+0000000008+I20000000000+0000006990+Z
126782001126782077-000467     126782006003000329991GIFT-BAG STAMP 18X23CM 0000001000+00001753+00000+0001T   00001753+0000001649          1400 D94112               1AZ
126782002126782018-030000     126782006003000421060MUG OCCASIONS LOVE 2PCE0000001000+00004385+00000+0001T   00004385+0000001649          1400 D94515               1AZ
126783000126783               126783               170213KO     1400+00000+KO0000001753+0000001753+000000000+000000246+0000001999+0000000000+I40000001999+0000000000+Z
126783001126783006-000120     126783006001023346889BALLOONS 10PC MIX COL  0000001000+00001753+00000+0001T   00001753+0000001651          1400 D94131               1AZ
126784000126784               126784               170213KO     1400+00000+KO0000002015+0000002015+000000000+000000283+0000002298+0000000000+I40000002298+0000000000+Z
126784001126784077-000150-D   126784006003000054343GIFT-WRAP CELLPHANE CLR0000001000+00000876+00000+0001T   00000876+0000001656          1400 D94112               1AZ
126784002126784046-000014     126784006001023725387BATTERIES SIZE:AAA 4PCE0000001000+00001139+00000+0001T   00001139+0000001656          1400 D94312               1AZ
126785000126785               126785               170213KO     1400+00000+KO0000001753+0000001753+000000000+000000246+0000001990+0000000009+I20000000000+0000001990+Z
126785001126785056-005751     126785006003000102877CAR AIR-FRESH SHOE ASST0000001000+00001753+00000+0001T   00001753+0000001657          1400 D94860               1AZ
126786000126786               126786               170213KO     1400+00000+KO0000001490+0000001490+000000000+000000209+0000001690+0000000009+I20000000000+0000001690+Z
126786001126786077-000452     126786006003000284986G/BAG METALLIC MED EMB 0000001000+00001490+00000+0001T   00001490+0000001658          1400 D94112               1AZ
126787000126787               126787               170213KO     1400+00000+KO0000023723+0000023723+000000000+000003323+0000027040+0000000006+I20000000000+0000027040+Z
126787001126787112-116069     126787006009681820277TCS CARRIER BAG JUMBO  0000001000+00000048+00000+0001T   00000048+0000001659          1400 D94090               1AZ
126787002126787030-000031-A   126787006003000457588PLAQUE W/WORDS ASSTD   0000001000+00004385+00000+0001T   00004823+0006471659          1400 D94505               1AZ
126787003126787089-000004     126787006003000137749KEY CHAIN MTL CHARMS   0000002000+00001753+00000+0001T   00001753+0000001659          1400 D94205               1AZ
126787004126787031-080508     126787006001023802415P/FRAME PL 22X11CM LOVE0000001000+00004385+00000+0001T   00004385+0000001659          1400 D94510               1AZ
126787005126787018-005009     126787006001023725608MUG W/PLUSH-BEAR LOVE  0000002000+00003507+00000+0001T   00003507+0000001659          1400 D94515               1AZ
126787006126787368-000151     126787006003000166725PLUSH BEAR 14cm        0000001000+00004385+00000+0001T   00004385+0000001659          1400 D94745               1AZ
126788000126788               126788               170213KO     1400+00000+KO0000013205+0000013205+000000000+000001849+0000015054+0000000000+I40000015054+0000000000+Z
126788001126788019-000050     126788006001023673749VASE GLS FOOTED WINE   0000001000+00013157+00000+0001T   00013157+0000001702          1400 D94510               1AZ
126788002126788112-116069     126788006009681820277TCS CARRIER BAG JUMBO  0000001000+00000048+00000+0001T   00000048+0000001702          1400 D94090               1AZ
126789000126789               126789               170213KO     1400+00000+KO0000004870+0000004870+000000000+000000683+0000005550+0000000003+I20000000000+0000005550+Z
126789001126789006-000120     126789006001023346889BALLOONS 10PC MIX COL  0000001000+00001753+00000+0001T   00001753+0000001727          1400 D94131               1AZ
126789002126789301-085008     126789006003000673933ORN OCC.LOVE TINSEL HRT0000001000+00003069+00000+0001T   00003069+0000001727          1400 D94505               1AZ
126789003126789112-116069     126789006009681820277TCS CARRIER BAG JUMBO  0000001000+00000048+00000+0001T   00000048+0000001727          1400 D94090               1AZ
126790000126790               126790               170213KO     1400+00000+KO0000000872+0000000872+000000000+000000124+0000000990+0000000006+I20000000000+0000000990+Z
126790001126790006-000171-C   126790006003000609178BALLOONS 1PC D/GRN PRNT0000004000+00000218+00000+0001T   00000218+0000001728          1400 D94131               1AZ
126791000126791               126791               170213KO     1400+00000+KO0000001753+0000001753+000000000+000000246+0000001990+0000000009+I20000000000+0000001990+Z
126791001126791206-000370     126791006003000631315STRAW P/DRINKING GLASS 0000001000+00001753+00000+0001T   00001753+0000001735          1400 D94321               1AZ
126792000126792               126792               170213KO     1400+00000+KO0000002192+0000002192+000000000+000000307+0000002490+0000000009+I20000000000+0000002490+Z
126792001126792018-000170     126792006001023775528MUG OCC. LOVE 2PC MINI 0000001000+00002192+00000+0001T   00002192+0000001740          1400 D94515               1AZ
126793000126793               126793               170213KO     1400+00000+KO0000003069+0000003069+000000000+000000430+0000003490+0000000009+I20000000000+0000003490+Z
126793001126793089-060027     126793006003000245871KEY-CHAIN HEART 6X6cm  0000001000+00003069+00000+0001T   00003069+0000001741          1400 D94205               1AZ
126794000126794               126794               170213KO     1400+00000+KO0000001578+0000001578+000000000+000000221+0000001799+0000000000+I40000001799+0000000000+Z
126794001126794077-000348     126794006001023483287GIFT-BOWS 4,5cm 8PCE   0000001000+00001578+00000+0001T   00001578+0000001743          1400 D94112               1AZ
126795000126795               126795               170213KO     1400+00000+KO0000002192+0000002192+000000000+000000307+0000002490+0000000009+I20000000000+0000002490+Z
126795001126795051-002400     126795006001023616180TRIGGER-SPRAYER 900ml  0000001000+00002192+00000+0001T   00002192+0000001747          1400 D94820               1AZ
126796000126796               126796               170213KO     1400+00000+KO0000004868+0000004868+000000000+000000683+0000005551+0000000000+I40000005551+0000000000+Z
126796001126796006-000166-H   126796006003000608096BALLOONS HELIUM 6PC WHT0000001000+00001314+00000+0001T   00001314+0000001750          1400 D94131               1AZ
126796002126796006-000120     126796006001023346889BALLOONS 10PC MIX COL  0000001000+00001753+00000+0001T   00001753+0000001750          1400 D94131               1AZ
126796003126796077-000301     126796008010410010188BAG LRG 25X32CM B/DAY  0000001000+00001753+00000+0001T   00001753+0000001750          1400 D94112               1AZ
126796004126796112-116069     126796006009681820277TCS CARRIER BAG JUMBO  0000001000+00000048+00000+0001T   00000048+0000001750          1400 D94090               1AZ
A17021300                                          08425139KOSLAVE 1                       D943IC
A17021301                                          09010066KOSLAVE 1                       D943IC
A17021302                                          09144161KOSLAVE 1                       D941IC
A17021303                                          09555180KOSLAVE 1                       D943IC
A17021304                                          14312434KOSLAVE 1                       D941IC
C12667000                                          170213KO012-000001-A   09470962SLAVE 1     D941IC0000000000+0000000000+0030000001000+
C12678900                                          170213KO077-000926     17041628SLAVE 1     D941IC0000000000+0000000000+0010000001000+
M17021391                              CASH        KOSLAVE 1                       Z-REPORT No.   642TOTAL (Sales - Refunds)          11473.78       CASH TO BE BANKED                 3410.60       DEBIT CARDS                          0.00       CREDIT CARDS                      8010.48       Z-READING                        11413.48       AIRTIME DEBIT CARD SALES             0.00       AIRTIME CARD SALES                   0.00       OVERS/UNDERS                         7.60       AIRTIME CASH SALES                   0.00       GIFT CARDS                           0.00       GIFT CARD CASH SALES                 0.00       CLEANING-MATERIALS                  12.40       STATIONERY(PHOTOCOPIES)             47.90       T O T A L  CASH PAYOUTS             60.30                                                                                                                                                                                                                                                      Z
M17021392                              CASH        KOABSENT                                                                                                                                                                                          ANNUAL LEAVE                                                                                                                                                                                    DAY OFF                                                                                                                                                                                         COMMENTS                                                                                                                                                                                                                                                                                                                                                                                       Z
Y17021300                                          KO00000001015623+000133
ZKO17021321233 SLAVE 1      SALES DATA                     NEXT INVOICE NO.  126797 0642
X KO Slave 1 First invoice 126662 170213 Last invoice 126796 170213 Next invoice 126797 Total number of records 000000459 clbackup completed 21:23:48
