130489000130489               130489               170213KO     1400+00000+KO0000004205+0000004205+000000000+000000590+0000004790+0000000005+I20000000000+0000004790+Z
130489001130489006-001000     130489006003000093779HELIUM BALLOON FILL    0000004000+00000613+00000+0001T   00000613+0000000903          1400 KD8131               2AZ
130489002130489200-003026     130489006003000276448REFUSE BAGS 10PCE GREEN0000001000+00001753+00000+0001T   00001753+0000000903          1400 KD8214               2AZ
130490000130490               130490               170213KO     1400+00000+KO0000001928+0000001928+000000000+000000270+0000002190+0000000008+I20000000000+0000002190+Z
130490001130490174-008032     130490006009654960603TRAVEL BOTTLES 50ml    0000001000+00001928+00000+0001T   00001928+0000000904          1400 KD8205               2AZ
130491000130491               130491               170213KO     1400+00000+KO0000006570+0000006570+000000000+000000920+0000007490+0000000000+I40000007490+0000000000+Z
130491001130491006-000166-D   130491006003000516490BALLOONS LRG 6PC RED   0000005000+00001314+00000+0001T   00001314+0000001006          1400 KD8131               2AZ
130492000130492               130492               170213KO     1400+00000+KO0000020301+0000020301+000000000+000002845+0000023146+0000000000+I40000023146+0000000000+Z
130492001130492018-030000     130492006003000421060MUG OCCASIONS LOVE 2PCE0000003000+00004385+00000+0001T   00004385+0000001008          1400 KD8515               2AZ
130492002130492077-000303     130492006001023593757GIFT-BAG PAPER MED     0000003000+00001578+00000+0001T   00001578+0000001008          1400 KD8112               2AZ
130492003130492903-000137     130492006002099004130SWEET GS JELLY BEAN 60G0000003000+00000788+00000+0001T   00000788+0000001008          1400 KD8150               2AZ
130492004130492112-116069     130492006009681820277TCS CARRIER BAG JUMBO  0000001000+00000048+00000+0001T   00000048+0000001008          1400 KD8090               2AZ
130493000130493               130493               170213KO     1400+00000+KO0000001227+0000001227+000000000+000000172+0000001390+0000000009+I20000000000+0000001390+Z
130493001130493002-000970     130493006001023770578FUNNELS 3PCE WHITE     0000001000+00001227+00000+0001T   00001227+0000001026          1400 KD8300               2AZ
130494000130494               130494               170213KO     1400+00000+KO0000004067+0000004067+000000000+000000571+0000004638+0000000000+I40000004638+0000000000+Z
130494001130494106-001125     130494006003000666270WATER BOTTLE 600ml     0000001000+00002630+00000+0001T   00002630+0000001119          1400 KD8210               2AZ
130494002130494105-000750     130494006003000190270CONTAINERS 4xMINI 150ml0000001000+00001402+00000+0001T   00001402+0000001119          1400 KD8210               2AZ
130494003130494112-116038     130494006009681820246TCS CARRIER BAG MIDI   0000001000+00000035+00000+0001T   00000035+0000001119          1400 KD8090               2AZ
130495000130495               130495               170213KO     1400+00000+KO0000086568+0000086568+000000000+000012128+0000098696+0000000000+I40000098696+0000000000+Z
130495001130495112-116069     130495006009681820277TCS CARRIER BAG JUMBO  0000001000+00000048+00000+0001T   00000048+0000001133          1400 KD8090               2AZ
130495002130495077-000376-A   130495006003000669059GIFT-BAG 2-PACK JMB    0000001000+00003946+00000+0001T   00003946+0000001133          1400 KD8112               2AZ
130495003130495361-000663     130495006001023747884DOLLS 26CM TWINS SOFT  0000001000+00017542+00000+0001T   00017542+0000001133          1400 KD8725               2AZ
130495004130495007-010504     130495006002923014960BLACKBOARD EASEL       0000001000+00007893+00000+0001T   00007893+0000001133          1400 KD8130               2AZ
130495005130495361-009105     130495006001023832016DOLLS FEEDING SET 3PC  0000001000+00002630+00000+0001T   00002630+0000001133          1400 KD8725               2AZ
130495006130495562-000020     130495006003000600861EDU PLAY DOUGH 60g 4PC 0000001000+00003507+00000+0001T   00003507+0000001133          1400 KD8755               2AZ
130495007130495112-116069     130495006009681820277TCS CARRIER BAG JUMBO  0000001000+00000048+00000+0001T   00000048+0000001133          1400 KD8090               2AZ
130495008130495079-001007     130495006003000682454PAINT CANVAS ROUND/OVAL0000001000+00005262+00000+0001T   00005262+0000001133          1400 KD8130               2AZ
130495009130495079-000298     130495006003000647156PAINT SET FINGER PAINT 0000001000+00007016+00000+0001T   00007893+0008191133          1400 KD8130               2AZ
130495010130495564-009001     130495006003000141265GUN PL B/O+BUBBLES     0000001000+00008771+00000+0001T   00008771+0000001133          1400 KD8131               2AZ
130495011130495566-000991     130495000721129013121STICKERS GLOW-IN-DARK  0000002000+00002192+00000+0001T   00002192+0000001133          1400 KD8130               2AZ
130495012130495071-000012     130495006001177101006CHALK COLOUR 12PCE     0000001000+00000481+00000+0001T   00000481+0000001133          1400 KD8130               2AZ
130495013130495046-000012-A   130495006003000208296BATTERIES H/POWER SZ:AA0000001000+00002192+00000+0001T   00002192+0000001133          1400 KD8312               2AZ
130495014130495071-000013     130495006003000535354BOARD DUSTER           0000001000+00002630+00000+0001T   00002630+0000001133          1400 KD8130               2AZ
130495015130495565-000888     130495006003000607846NOVELTY MESH BALL      0000002000+00001753+00000+0001T   00001753+0000001133          1400 KD8745               2AZ
130495016130495486-002316     130495006003000335602WALL-CLOCK QTZ RND 30CM0000001000+00008771+00000+0001T   00008771+0000001133          1400 KD8510               2AZ
130495017130495365-000008     130495006003000166183P/SET DOCTOR SET W/CASE0000001000+00007893+00000+0001T   00007893+0000001133          1400 KD8725               2AZ
130495018130495112-116069     130495006009681820277TCS CARRIER BAG JUMBO  0000001000+00000048+00000+0001T   00000048+0000001133          1400 KD8090               2AZ
130496000130496               130496               170213KO     1400+00000+KO0000003594+0000003594+000000000+000000504+0000004090+0000000008+I20000000000+0000004090+Z
130496001130496080-000127     130496006003000424351VALENTINES DAY 36x24CM 0000001000+00002192+00000+0001T   00002192+0000001138          1400 KD8112               2AZ
130496002130496304-001204     130496006001023737984FLOWER OCC. TEDDY/ROSES0000001000+00001402+00000+0001T   00001490+0006471138          1400 KD8510               2AZ
130497000130497               130497               170213KO     1400+00000+KO0000015995+0000015995+000000000+000002246+0000018241+0000000000+I40000018241+0000000000+Z
130497001130497112-116069     130497006009681820277TCS CARRIER BAG JUMBO  0000001000+00000048+00000+0001T   00000048+0000001142          1400 KD8090               2AZ
130497002130497079-001002     130497006003000448715CANVAS A4 WOOD MOUNTED 0000001000+00002630+00000+0001T   00002630+0000001142          1400 KD8130               2AZ
130497003130497079-000282     130497006001023493309PAINT TUBS POSTER 12COL0000001000+00002630+00000+0001T   00002630+0000001142          1400 KD8130               2AZ
130497004130497039-000635     130497006001023774521CANDLE VTV 4PC WHITE   0000001000+00002192+00000+0001T   00002192+0000001142          1400 KD8510               2AZ
130497005130497304-001204     130497006001023737984FLOWER OCC. TEDDY/ROSES0000001000+00001402+00000+0001T   00001490+0006471142          1400 KD8510               2AZ
130497006130497903-000220     130497006001704007368SWT JELLY BEANS 60G    0000001000+00000876+00000+0001T   00000876+0000001142          1400 KD8150               2AZ
130497007130497903-000520     130497006001704009898SWT GUMMY MINI SOUR 60g0000001000+00000876+00000+0001T   00000876+0000001142          1400 KD8150               2AZ
130497008130497903-000123     130497006925925909280SWEET GS MINI MALLOWS  0000001000+00000876+00000+0001T   00000876+0000001142          1400 KD8150               2AZ
130497009130497903-000670     130497006009803358008SWT SHERBET RED LIPS   0000001000+00000218+00000+0001T   00000218+0000001142          1400 KD8150               2AZ
130497010130497903-000671     130497006009803358015SWT SHERBET BLUE LIPS  0000001000+00000218+00000+0001T   00000218+0000001142          1400 KD8150               2AZ
130497011130497903-000151     130497006009803374411SWT SML RND R/BOW LOLLY0000001000+00000525+00000+0001T   00000525+0000001142          1400 KD8150               2AZ
130497012130497040-000209     130497006003000673872C/HOLDER GLS CLEAR 6.5 0000004000+00000876+00000+0001T   00000876+0000001142          1400 KD8510               2AZ
130498000130498               130498               170213KO     1400+00000+KO0000015132+0000015132+000000000+000002120+0000017252+0000000000+I40000017252+0000000000+Z
130498001130498368-000637     130498006001023874092PLUSH BEAR SLEEPING LOV0000001000+00011402+00000+0001T   00012279+0006471144          1400 KD8745               2AZ
130498002130498077-000299     130498006003000395576G/BAG 32x25cm LRG LOVE 0000001000+00001490+00000+0001T   00001490+0000001144          1400 KD8112               2AZ
130498003130498018-000170     130498006001023775528MUG OCC. LOVE 2PC MINI 0000001000+00002192+00000+0001T   00002192+0000001144          1400 KD8515               2AZ
130498004130498112-116069     130498006009681820277TCS CARRIER BAG JUMBO  0000001000+00000048+00000+0001T   00000048+0000001144          1400 KD8090               2AZ
130499000130499               130499               170213KO     1400+00000+KO0000000437+0000000437+000000000+000000062+0000000490+0000000009+I20000000000+0000000490+Z
130499001130499083-000049     130499004891035200024CIG-LIGHTER DISPOSABLE 0000001000+00000437+00000+0001T   00000437+0000001152          1400 KD8315               2AZ
130500000130500               130500               170213KO     1400+00000+KO0000000613+0000000613+000000000+000000086+0000000690+0000000009+I20000000000+0000000690+Z
130500001130500200-000065     130500006001023323675DRINKING-STRAWS 38PCE  0000001000+00000613+00000+0001T   00000613+0000001152          1400 KD8214               2AZ
130501000130501               130501               170213KO     1400+00000+KO0000005256+0000005256+000000000+000000738+0000005990+0000000004+I20000000000+0000005990+Z
130501001130501077-000151     130501006008766114676GIFT-WRAP C/PHANE ASSTD0000003000+00000876+00000+0001T   00000876+0000001200          1400 KD8112               2AZ
130501002130501077-000150-D   130501006003000054343GIFT-WRAP CELLPHANE CLR0000003000+00000876+00000+0001T   00000876+0000001200          1400 KD8112               2AZ
130502000130502               130502               170213KO     1400+00000+KO0000001753+0000001753+000000000+000000246+0000001990+0000000009+I20000000000+0000001990+Z
130502001130502080-000113     130502006003000237449CARD&ENVLPE - LOVE     0000001000+00001753+00000+0001T   00001753+0000001205          1400 KD8112               2AZ
130503000130503               130503               170213KO     1400+00000+KO0000004870+0000004870+000000000+000000683+0000005550+0000000003+I20000000000+0000005550+Z
130503001130503077-000455     130503006003000285389G/BAG METALLIC LRG SOL 0000001000+00001753+00000+0001T   00001753+0000001206          1400 KD8112               2AZ
130503002130503206-000210     130503006003000631582TOOTHPICK HOLDER FLOWER0000001000+00003069+00000+0001T   00003069+0000001206          1400 KD8321               2AZ
130503003130503112-116069     130503006009681820277TCS CARRIER BAG JUMBO  0000001000+00000048+00000+0001T   00000048+0000001206          1400 KD8090               2AZ
130504000130504               130504               170213KO     1400+00000+KO0000018411+0000018411+000000000+000002580+0000020990+0000000001+I20000000000+0000020990+Z
130504001130504079-006498     130504006001023836151GLITTER SET 10PCE      0000003000+00003507+00000+0001T   00003507+0000001208          1400 KD8130               2AZ
130504002130504366-006103     130504006001023786944DRESS UP FACE PAINT SET0000003000+00002630+00000+0001T   00002630+0000001208          1400 KD8131               2AZ
130505000130505               130505               170213KO     1400+00000+KO0000002979+0000002979+000000000+000000418+0000003390+0000000007+I20000000000+0000003390+Z
130505001130505306-000021-A   130505006001023891358EARBUDS COTTON 100PCE  0000001000+00000876+00000+0001T   00000876+0000001215          1400 KD8200               2AZ
130505002130505204-083002     130505006008766083002M/HOLD BUTTERFLIES 4PCE0000001000+00001753+00000+0001T   00001753+0000001215          1400 KD8300               2AZ
130505003130505002-000879     130505006001023770004STRAINER TEA 7cm H/H   0000001000+00000350+00000+0001T   00000350+0000001215          1400 KD8300               2AZ
130506000130506               130506               170213KO     1400+00000+KO0000009681+0000009681+000000000+000001357+0000011030+0000000008+I20000000000+0000011030+Z
130506001130506112-116038     130506006009681820246TCS CARRIER BAG MIDI   0000001000+00000035+00000+0001T   00000035+0000001217          1400 KD8090               2AZ
130506002130506024-000113     130506006001023422194C/PAN N/STICK 20X4.5CM 0000002000+00004823+00000+0001T   00004823+0000001217          1400 KD8300               2AZ
130507000130507               130507               170213KO     1400+00000+KO0000004385+0000004385+000000000+000000614+0000004999+0000000000+I40000004999+0000000000+Z
130507001130507368-000049     130507006003000536955PLUSH BEAR 15cm LOVE   0000001000+00004385+00000+0001T   00004385+0000001238          1400 KD8745               2AZ
130508000130508               130508               170213KO     1400+00000+KO0000004433+0000004433+000000000+000000621+0000005050+0000000004+I20000000000+0000005050+Z
130508001130508466-006126     130508006001023800633BASKETABALL-GAME+BALL  0000001000+00004385+00000+0001T   00004385+0000001250          1400 KD8785               2AZ
130508002130508112-116069     130508006009681820277TCS CARRIER BAG JUMBO  0000001000+00000048+00000+0001T   00000048+0000001250          1400 KD8090               2AZ
130509000130509               130509               170213KO     1400+00000+KO0000000000+0000000000+000000000+000000000+0000000000+0000000000+I20000000000+0000000000+Z
130509001130509077-000116     130509006003000240777GIFT-WRAP 700mmx2m COL 0000001000-00001753+00000+0001T   00001753+0000001256          1400 KD81122IC            2 Z
130509002130509077-000115     130509006001023834225WRAP METALLIC 700mmx1m 0000001000+00001753+00000+0001T   00001753+0000001256          1400 KD8112               2 Z
130510000130510               130510               170213KO     1400+00000+KO0000012499+0000012499+000000000+000001751+0000014250+0000000000+I40000014250+0000000000+Z
130510001130510112-116069     130510006009681820277TCS CARRIER BAG JUMBO  0000001000+00000048+00000+0001T   00000048+0000001302          1400 KD8090               2AZ
130510002130510001-091415     130510006003000329113W/GLS OCC. LOVE 2PC 2800000001000+00008771+00000+0001T   00009648+0006471302          1400 KD8515               2AZ
130510003130510077-000011-D   130510006001023808554TISSUE-WRAP WHITE 10PCE0000001000+00000876+00000+0001T   00000876+0000001302          1400 KD8112               2AZ
130510004130510039-000108     130510006001023524034TEA-LITE CANDLES 8PCE  0000001000+00001490+00000+0001T   00001490+0000001302          1400 KD8510               2AZ
130510005130510006-000166-D   130510006003000516490BALLOONS LRG 6PC RED   0000001000+00001314+00000+0001T   00001314+0000001302          1400 KD8131               2AZ
130511000130511               130511               170213KO     1400+00000+KO0000020956+0000020956+000000000+000002936+0000023892+0000000000+I40000023892+0000000000+Z
130511001130511036-000405     130511006001023630247CLOTHES DRYER PL 18-PEG0000002000+00004385+00000+0001T   00004385+0000001311          1400 KD8212               2AZ
130511002130511036-000400     130511006001023886132CLOTHES-DRYER PL 8-PEG 0000001000+00002192+00000+0001T   00002192+0000001311          1400 KD8212               2AZ
130511003130511133-000103     130511006003000060900PEG BAG ASSTD 29x29cm  0000002000+00002630+00000+0001T   00002630+0000001311          1400 KD8212               2AZ
130511004130511369-001137-B   130511006003000626373BABY BATH VINYL DUCK   0000003000+00001578+00000+0001T   00001578+0000001311          1400 KD8745               2AZ
130512000130512               130512               170213KO     1400+00000+KO0000024864+0000024864+000000000+000003483+0000028347+0000000000+I40000028347+0000000000+Z
130512001130512077-000270     130512006003000395453GIFT-BAG PPR JMB 33X45 0000001000+00002630+00000+0001T   00002630+0000001322          1400 KD8112               2AZ
130512002130512112-116069     130512006009681820277TCS CARRIER BAG JUMBO  0000001000+00000048+00000+0001T   00000048+0000001322          1400 KD8090               2AZ
130512003130512080-000127     130512006003000424351VALENTINES DAY 36x24CM 0000001000+00002192+00000+0001T   00002192+0000001322          1400 KD8112               2AZ
130512004130512040-000103     130512000694202201862C/HOLDER-SET 5PC W/TRAY0000001000+00011402+00000+0001T   00013157+0008191322          1400 KD8510               2AZ
130512005130512018-000136     130512006001023659026MUG OCC LOVE W/PLUSH   0000001000+00003507+00000+0001T   00003507+0000001322          1400 KD8515               2AZ
130512006130512018-005009     130512006001023725608MUG W/PLUSH-BEAR LOVE  0000001000+00003507+00000+0001T   00003507+0000001322          1400 KD8515               2AZ
130512007130512018-000127     130512006001023380289MUG OCC STRAIGHT LOVE  0000001000+00001578+00000+0001T   00001753+0006471322          1400 KD8515               2AZ
130513000130513               130513               170213KO     1400+00000+KO0000002576+0000002576+000000000+000000362+0000002930+0000000008+I20000000000+0000002930+Z
130513001130513080-000113     130513006003000237449CARD&ENVLPE - LOVE     0000001000+00001753+00000+0001T   00001753+0000001323          1400 KD8112               2AZ
130513002130513077-000383     130513006003000247943GIFT-BAG 11X14CM S/COL 0000001000+00000788+00000+0001T   00000788+0000001323          1400 KD8112               2AZ
130513003130513112-116038     130513006009681820246TCS CARRIER BAG MIDI   0000001000+00000035+00000+0001T   00000035+0000001323          1400 KD8090               2AZ
130514000130514               130514               170213KO     1400+00000+KO0000008819+0000008819+000000000+000001235+0000010050+0000000004+I20000000000+0000010050+Z
130514001130514365-003047     130514006001023859891PLAY SET 20PCE TEA SET 0000001000+00008771+00000+0001T   00010525+0008191324          1400 KD8725               2AZ
130514002130514112-116069     130514006009681820277TCS CARRIER BAG JUMBO  0000001000+00000048+00000+0001T   00000048+0000001324          1400 KD8090               2AZ
130515000130515               130515               170213KO     1400+00000+KO0000014073+0000014073+000000000+000001972+0000016045+0000000000+I40000016045+0000000000+Z
130515001130515112-116069     130515006009681820277TCS CARRIER BAG JUMBO  0000001000+00000048+00000+0001T   00000048+0000001327          1400 KD8090               2AZ
130515002130515266-000516     130515006003000656974BOYS PLAYSET FIG PIRATE0000002000+00003507+00000+0001T   00003507+0000001327          1400 KD8710               2AZ
130515003130515200-003026     130515006003000276448REFUSE BAGS 10PCE GREEN0000001000+00001753+00000+0001T   00001753+0000001327          1400 KD8214               2AZ
130515004130515200-003019     130515006003000510856REFUSE BAGS 10PC D/STRN0000002000+00001314+00000+0001T   00001753+0008171327          1400 KD8214               2AZ
130515005130515463-000366     130515006001023789136SWIM W/NOODLE 150cm    0000001000+00002630+00000+0001T   00002630+0000001327          1400 KD8785               2AZ
130516000130516               130516               170213KO     1400+00000+KO0000002452+0000002452+000000000+000000344+0000002790+0000000006+I20000000000+0000002790+Z
130516001130516006-001000     130516006003000093779HELIUM BALLOON FILL    0000004000+00000613+00000+0001T   00000613+0000001457          1400 KD8131               2AZ
130517000130517               130517               170213KO     1400+00000+KO0000014470+0000014470+000000000+000002027+0000016490+0000000007+I20000000000+0000016490+Z
130517001130517403-000031     130517006003000302222J/HOLDER MTL LRG 2-ASST0000001000+00013157+00000+0001T   00013157+0000001458          1400 KD8510               2AZ
130517002130517084-070005     130517006001023627902NAIL FILES 6PCE H/GLOW 0000001000+00000876+00000+0001T   00000876+0000001458          1400 KD8200               2AZ
130517003130517903-000011     130517006002099007315SWT MALLOW CHOC 15G    0000001000+00000437+00000+0001T   00000437+0000001458          1400 KD8150               2AZ
130518000130518               130518               170213KO     1400+00000+KO0000002192+0000002192+000000000+000000307+0000002490+0000000009+I20000000000+0000002490+Z
130518001130518200-000067     130518006003000330683STRAWS DRINKING 100PC  0000001000+00002192+00000+0001T   00002192+0000001520          1400 KD8214               2AZ
130519000130519               130519               170213KO     1400+00000+KO0000001525+0000001525+000000000+000000214+0000001730+0000000009+I20000000000+0000001730+Z
130519001130519077-000452     130519006003000284986G/BAG METALLIC MED EMB 0000001000+00001490+00000+0001T   00001490+0000001521          1400 KD8112               2AZ
130519002130519112-116038     130519006009681820246TCS CARRIER BAG MIDI   0000001000+00000035+00000+0001T   00000035+0000001521          1400 KD8090               2AZ
130520000130520               130520               170213KO     1400+00000+KO0000542614+0000542614+000000000+000076056+0000618670+0000000000+I40000618670+0000000000+Z
130520001130520112-116069     130520006009681820277TCS CARRIER BAG JUMBO  0000001000+00000048+00000+0001T   00000048+0000001550          1400 KD8090               2AZ
130520002130520174-000308     130520006003000684939TRAVEL NECK-PILLOW FOAM0000001000+00007893+00000+0001T   00007893+0000001550          1400 KD8205               2AZ
130520003130520036-000610     130520006001023627230WASHING-PEGS PL PACK-240000001000+00001753+00000+0001T   00001753+0000001550          1400 KD8212               2AZ
130520004130520036-000615     130520006003000218769WASH-PEGS PL PCK-24    0000002000+00001753+00000+0001T   00001753+0000001550          1400 KD8212               2AZ
130520005130520079-000206     130520006003000639700PENCIL CRAYONS THERAPY 0000003000+00001753+00000+0001T   00001753+0000001550          1400 KD8130               2AZ
130520006130520567-011423     130520006003000641345BK COLOURING THERAPY A50000001000+00006139+00000+0001T   00006139+0000001550          1400 KD8757               2AZ
130520007130520369-001138-B   130520006003000564972BABY BATH ROYAL DUCKS  0000001000+00002630+00000+0001T   00002630+0000001550          1400 KD8745               2AZ
130520008130520140-006004     130520006001023628077FLY-SWATTER RUBBER     0000002000+00001139+00000+0001T   00001139+0000001550          1400 KD8830               2AZ
130520009130520266-001029     130520006003000656912BOYS PLAYSET SWORD 45cm0000002000+00003507+00000+0001T   00003507+0000001550          1400 KD8710               2AZ
130520010130520112-116069     130520006009681820277TCS CARRIER BAG JUMBO  0000001000+00000048+00000+0001T   00000048+0000001550          1400 KD8090               2AZ
130520011130520203-005501     130520006003000381821DRINKING HELMET 4 2 CAN0000001000+00008771+00000+0001T   00010525+0008191550          1400 KD8300               2AZ
130520012130520466-000584     130520006001023628787SKIPPING-ROPE          0000001000+00002630+00000+0001T   00002630+0000001550          1400 KD8785               2AZ
130520013130520024-000093-A   130520006003000430697MEASURING-CUPS ASSTD   0000001000+00004385+00000+0001T   00004385+0000001550          1400 KD8300               2AZ
130520014130520024-000093-B   130520006003000430819MEASURING-SPOONS ASSTD 0000001000+00002630+00000+0001T   00002630+0000001550          1400 KD8300               2AZ
130520015130520492-055602     130520000078257556021SWIM-GOGGLES PLAY      0000001000+00002630+00000+0001T   00002630+0000001550          1400 KD8787               2AZ
130520016130520492-055603     130520000078257556038SWIM-GOGGLES FUN       0000001000+00003507+00000+0001T   00003507+0000001550          1400 KD8787               2AZ
130520017130520206-000120     130520006003000628308PEELER CARROT SHARPENER0000001000+00001753+00000+0001T   00001753+0000001550          1400 KD8321               2AZ
130520018130520206-000380     130520006003000632039EGG SEPARATOR FISH     0000001000+00002630+00000+0001T   00002630+0000001550          1400 KD8321               2AZ
130520019130520206-000120     130520006003000628308PEELER CARROT SHARPENER0000001000+00001753+00000+0001T   00001753+0000001550          1400 KD8321               2AZ
130520020130520206-000135     130520006003000680450T/BAG HLDR SILICONE    0000002000+00001753+00000+0001T   00001753+0000001550          1400 KD8321               2AZ
130520021130520206-000120     130520006003000628308PEELER CARROT SHARPENER0000001000+00001753+00000+0001T   00001753+0000001550          1400 KD8321               2AZ
130520022130520024-000093-B   130520006003000430819MEASURING-SPOONS ASSTD 0000001000+00002630+00000+0001T   00002630+0000001550          1400 KD8300               2AZ
130520023130520024-000212     130520006001023858030COOKIE-CUTTERS PL SMALL0000001000+00003069+00000+0001T   00003069+0000001550          1400 KD8300               2AZ
130520024130520112-116069     130520006009681820277TCS CARRIER BAG JUMBO  0000001000+00000048+00000+0001T   00000048+0000001550          1400 KD8090               2AZ
130520025130520105-001068     130520006003000629046CONTAINER CLIP LOCK    0000001000+00003507+00000+0001T   00003507+0000001550          1400 KD8210               2AZ
130520026130520031-000924     130520006001023669964P/FRAME COLLAGE PL     0000001000+00008771+00000+0001T   00008771+0000001550          1400 KD8510               2AZ
130520027130520105-001031     130520000700371696627FOODSAVER 800ml        0000004000+00001314+00000+0001T   00001314+0000001550          1400 KD8210               2AZ
130520028130520495-059711     130520000078257597116INTEX LOUNGER MAT ASSTD0000001000+00006139+00000+0001T   00006139+0000001550          1400 KD8787               2AZ
130520029130520903-000624     130520006003000671793SWEET LOLLY BLU/BRRY   0000011000+00001753+00000+0001T   00001753+0000001550          1400 KD8150               2AZ
130520030130520112-116069     130520006009681820277TCS CARRIER BAG JUMBO  0000001000+00000048+00000+0001T   00000048+0000001550          1400 KD8090               2AZ
130520031130520036-000151     130520006001023810588COATHANGERS    PACK-10 0000001000+00002893+00000+0001T   00002893+0000001550          1400 KD8212               2AZ
130520032130520035-000001     130520006002596010566UMBRELLA LADIES W/MINI 0000001000+00006139+00000+0001T   00006139+0000001550          1400 KD8205               2AZ
130520033130520495-059711     130520000078257597116INTEX LOUNGER MAT ASSTD0000001000+00006139+00000+0001T   00006139+0000001550          1400 KD8787               2AZ
130520034130520467-000018     130520006001023746818BEACH-SET 3PCE         0000001000+00003507+00000+0001T   00003507+0000001550          1400 KD8785               2AZ
130520035130520562-000051     130520006003000308798EDU EXCAVATION KIT ASST0000001000+00003507+00000+0001T   00003507+0000001550          1400 KD8755               2AZ
130520036130520206-000135     130520006003000680450T/BAG HLDR SILICONE    0000001000+00001753+00000+0001T   00001753+0000001550          1400 KD8321               2AZ
130520037130520562-000011     130520006003000600984PLAY DOUGH NEON TUBE   0000002000+00003507+00000+0001T   00003507+0000001550          1400 KD8755               2AZ
130520038130520088-000008     130520006003000623181AIR FRESHENER GEL ASSTD0000001000+00002630+00000+0001T   00002630+0000001550          1400 KD8212               2AZ
130520039130520301-085001     130520006003000297610ORN WATERBALL LOVE ASST0000001000+00004823+00000+0001T   00004823+0000001550          1400 KD8505               2AZ
130520040130520088-000008     130520006003000623181AIR FRESHENER GEL ASSTD0000002000+00002630+00000+0001T   00002630+0000001550          1400 KD8212               2AZ
130520041130520903-004950     130520006002580020304SWT APRICOT SURPRISE   0000001000+00001314+00000+0001T   00001314+0000001550          1400 KD8150               2AZ
130520042130520464-000200     130520006001023490988GAME PICK-UP STIX      0000001000+00001578+00000+0001T   00001578+0000001550          1400 KD8785               2AZ
130520043130520903-004952     130520006002580020052SWT FREAKY FACES 100G  0000001000+00001314+00000+0001T   00001314+0000001550          1400 KD8150               2AZ
130520044130520903-004950     130520006002580020304SWT APRICOT SURPRISE   0000001000+00001314+00000+0001T   00001314+0000001550          1400 KD8150               2AZ
130520045130520903-004952     130520006002580020052SWT FREAKY FACES 100G  0000001000+00001314+00000+0001T   00001314+0000001550          1400 KD8150               2AZ
130520046130520105-007405     130520006003000629558CONTAINER MINI 300ml   0000001000+00002630+00000+0001T   00003069+0008171550          1400 KD8210               2AZ
130520047130520112-116069     130520006009681820277TCS CARRIER BAG JUMBO  0000001000+00000048+00000+0001T   00000048+0000001550          1400 KD8090               2AZ
130520048130520031-000860-A   130520006001023798176P/FRAME PL ANTIQUE-BLK 0000001000+00003507+00000+0001T   00003507+0000001550          1400 KD8510               2AZ
130520049130520464-008112     130520006003000681129GAME SNAKES & LADDERS  0000002000+00001753+00000+0001T   00001753+0000001550          1400 KD8785               2AZ
130520050130520565-000043     130520006003000109562NOVELTY BALL FUNNY FACE0000003000+00001753+00000+0001T   00001753+0000001550          1400 KD8745               2AZ
130520051130520088-000008     130520006003000623181AIR FRESHENER GEL ASSTD0000001000+00002630+00000+0001T   00002630+0000001550          1400 KD8212               2AZ
130520052130520133-000017     130520006003000525171CLEANING-CLOTHS 5PCE   0000002000+00003507+00000+0001T   00003507+0000001550          1400 KD8212               2AZ
130520053130520031-000874-A   130520006001023798800P/FRAME WDN P/BOX 10X150000001000+00003946+00000+0001T   00003946+0000001550          1400 KD8510               2AZ
130520054130520016-009750     130520006001023888341CONDIMENTS OIL BOTTLES 0000001000+00003507+00000+0001T   00003507+0000001550          1400 KD8300               2AZ
130520055130520088-000008     130520006003000623181AIR FRESHENER GEL ASSTD0000002000+00002630+00000+0001T   00002630+0000001550          1400 KD8212               2AZ
130520056130520016-001000     130520006001023901439STORAGE-JAR GLS W/STRAW0000001000+00003069+00000+0001T   00003069+0000001550          1400 KD8300               2AZ
130520057130520027-056188     130520006003000570539DISH BRUSH LADY SHAPE  0000001000+00002630+00000+0001T   00002630+0000001550          1400 KD8212               2AZ
130520058130520159-000445     130520006001023669728SOAP-BOX PL OVAL       0000001000+00001139+00000+0001T   00001139+0000001550          1400 KD8200               2AZ
130520059130520039-000108     130520006001023524034TEA-LITE CANDLES 8PCE  0000001000+00001490+00000+0001T   00001490+0000001550          1400 KD8510               2AZ
130520060130520464-000200     130520006001023490988GAME PICK-UP STIX      0000002000+00001578+00000+0001T   00001578+0000001550          1400 KD8785               2AZ
130520061130520562-000504     130520006001023619327EDU CUBE RUBIX         0000001000+00002630+00000+0001T   00002630+0000001550          1400 KD8755               2AZ
130520062130520112-116069     130520006009681820277TCS CARRIER BAG JUMBO  0000001000+00000048+00000+0001T   00000048+0000001550          1400 KD8090               2AZ
130520063130520088-000103     130520006008766127102INCENSE 20PCE ASSTD    0000001000+00000700+00000+0001T   00000700+0000001550          1400 KD8212               2AZ
130520064130520466-000005     130520006003000508174PLAY-TENT POP-UP GIRL  0000001000+00021928+00000+0001T   00021928+0000001550          1400 KD8785               2AZ
130520065130520565-000043     130520006003000109562NOVELTY BALL FUNNY FACE0000001000+00001753+00000+0001T   00001753+0000001550          1400 KD8745               2AZ
130520066130520466-064834     130520006008766064834BALL W/SPIKES 20cm     0000001000+00001753+00000+0001T   00001753+0000001550          1400 KD8785               2AZ
130520067130520903-000151     130520006009803374411SWT SML RND R/BOW LOLLY0000014000+00000525+00000+0001T   00000525+0000001550          1400 KD8150               2AZ
130520068130520112-116069     130520006009681820277TCS CARRIER BAG JUMBO  0000001000+00000048+00000+0001T   00000048+0000001550          1400 KD8090               2AZ
130520069130520464-000111     130520006001023114624GAME SKITTLES WOODEN   0000001000+00006139+00000+0001T   00006139+0000001550          1400 KD8785               2AZ
130520070130520903-000619     130520006003000672455SWT LOLLY STR/BRRY 140G0000029000+00001753+00000+0001T   00001753+0000001550          1400 KD8150               2AZ
130520071130520112-116069     130520006009681820277TCS CARRIER BAG JUMBO  0000001000+00000048+00000+0001T   00000048+0000001550          1400 KD8090               2AZ
130520072130520018-005009     130520006001023725608MUG W/PLUSH-BEAR LOVE  0000001000+00003507+00000+0001T   00003507+0000001550          1400 KD8515               2AZ
130520073130520903-000619     130520006003000672455SWT LOLLY STR/BRRY 140G0000014000+00001753+00000+0001T   00001753+0000001550          1400 KD8150               2AZ
130520074130520030-005010     130520006003000455997PLAQUE WDN SEA WELCOME 0000001000+00007016+00000+0001T   00007016+0000001550          1400 KD8505               2AZ
130520075130520018-005009     130520006001023725608MUG W/PLUSH-BEAR LOVE  0000002000+00003507+00000+0001T   00003507+0000001550          1400 KD8515               2AZ
130520076130520112-116069     130520006009681820277TCS CARRIER BAG JUMBO  0000001000+00000048+00000+0001T   00000048+0000001550          1400 KD8090               2AZ
130520077130520027-000027     130520006003000439355DUSTPAN SET ASSTD      0000001000+00006139+00000+0001T   00006139+0000001550          1400 KD8212               2AZ
130520078130520036-000610     130520006001023627230WASHING-PEGS PL PACK-240000001000+00001753+00000+0001T   00001753+0000001550          1400 KD8212               2AZ
130520079130520034-078800     130520006001023856555COOEY WET-WIPES 60PCE  0000001000+00001753+00000+0001T   00001753+0000001550          1400 KD8215               2AZ
130520080130520007-000648     130520006001023818829NOTE-BOOK SET PRINCESS 0000001000+00003507+00000+0001T   00003507+0000001550          1400 KD8130               2AZ
130520081130520565-000888     130520006003000607846NOVELTY MESH BALL      0000002000+00001753+00000+0001T   00001753+0000001550          1400 KD8745               2AZ
130520082130520266-008044     130520006003000599004BOYS P/SET FIGURINE    0000001000+00003507+00000+0001T   00004385+0008141550          1400 KD8710               2AZ
130520083130520200-000130     130520006001023645067DESSERT-SPOONS 10PCE   0000001000+00000613+00000+0001T   00000613+0000001550          1400 KD8214               2AZ
130520084130520362-001103     130520006001023793515JWLRY GRL ASS 2PC ASSTD0000001000+00001753+00000+0001T   00001753+0000001550          1400 KD8160               2AZ
130520085130520366-004050     130520006003000308330DRESS UP TEEN BADGES   0000001000+00001490+00000+0001T   00001490+0000001550          1400 KD8131               2AZ
130520086130520362-001103     130520006001023793515JWLRY GRL ASS 2PC ASSTD0000001000+00001753+00000+0001T   00001753+0000001550          1400 KD8160               2AZ
130520087130520033-000780     130520006001023752611COSMETIC-BRUSH-SET 7PCE0000002000+00002192+00000+0001T   00002192+0000001550          1400 KD8200               2AZ
130520088130520565-004101     130520006003000548033BALL BOUNCING EGG      0000002000+00001490+00000+0001T   00001490+0000001550          1400 KD8745               2AZ
130520089130520112-116069     130520006009681820277TCS CARRIER BAG JUMBO  0000001000+00000048+00000+0001T   00000048+0000001550          1400 KD8090               2AZ
130520090130520486-002315     130520006001023740526WALL-CLOCK ROUND 20CM  0000001000+00007016+00000+0001T   00007016+0000001550          1400 KD8510               2AZ
130520091130520365-005267     130520006001023584366P/SET KITCHEN BAKING PL0000001000+00003507+00000+0001T   00003507+0000001550          1400 KD8725               2AZ
130520092130520032-000236     130520006001023731647MIRROR PL STANDING OVAL0000001000+00003507+00000+0001T   00003507+0000001550          1400 KD8510               2AZ
130520093130520020-000144     130520006003000534319K/SET 4PC W/COL HANDLES0000001000+00017542+00000+0001T   00017542+0000001550          1400 KD8300               2AZ
130520094130520365-005267     130520006001023584366P/SET KITCHEN BAKING PL0000001000+00003507+00000+0001T   00003507+0000001550          1400 KD8725               2AZ
130520095130520206-000160     130520006003000628780CORN KERNELER          0000001000+00004385+00000+0001T   00004385+0000001550          1400 KD8321               2AZ
130520096130520002-000097     130520006001023489784CAN-OPENER             0000001000+00006139+00000+0001T   00006139+0000001550          1400 KD8300               2AZ
130520097130520560-000106     130520006001023747099FROG FOAM BEADS 10cm   0000001000+00003507+00000+0001T   00003507+0000001550          1400 KD8745               2AZ
130520098130520084-000365     130520006001023731135MANICURE SET ASSORTED  0000001000+00002192+00000+0001T   00002192+0000001550          1400 KD8200               2AZ
130520099130520033-000126     130520006003000676736HAIR COMB BRIGHT 20cm  0000001000+00002630+00000+0001T   00002630+0000001550          1400 KD8200               2AZ
130520100130520048-000841     130520006001023867858TORCH KRYP-BULB (2xAA) 0000001000+00003069+00000+0001T   00003069+0000001550          1400 KD8305               2AZ
130520101130520084-000313     130520006003000638505NAIL CLIPPER SET       0000001000+00003507+00000+0001T   00003507+0000001550          1400 KD8200               2AZ
130520102130520084-000364     130520006001023624581MANICURE-SET 7PCE LTHR 0000001000+00003507+00000+0001T   00003507+0000001550          1400 KD8200               2AZ
130520103130520085-007008     130520006001023870988P/TOOL 23in1 HAMMER-BIT0000001000+00008771+00000+0001T   00008771+0000001550          1400 KD8305               2AZ
130520104130520079-000590     130520006003000543236SKETCH PAD & PAINT SET 0000001000+00007016+00000+0001T   00007016+0000001550          1400 KD8130               2AZ
130520105130520019-000131     130520006003000456253PLANT. T/PLATE 10X12.5 0000002000+00002630+00000+0001T   00002630+0000001550          1400 KD8510               2AZ
130520106130520112-116069     130520006009681820277TCS CARRIER BAG JUMBO  0000001000+00000048+00000+0001T   00000048+0000001550          1400 KD8090               2AZ
130520107130520266-001026     130520006003000473618SWORD 52cm+35cm AXE    0000001000+00003507+00000+0001T   00003507+0000001550          1400 KD8710               2AZ
130520108130520464-009010     130520006001023800756FISHING-GAME MAG +ROD  0000001000+00003507+00000+0001T   00003507+0000001550          1400 KD8785               2AZ
130520109130520048-000859     130520006003000423422TORCH 9 LED PL 3XAAA   0000001000+00001753+00000+0001T   00001753+0000001550          1400 KD8305               2AZ
130520110130520466-000520     130520006003000023585BASEBALL BAT & BALL    0000001000+00006139+00000+0001T   00006139+0000001550          1400 KD8785               2AZ
130520111130520466-064834     130520006008766064834BALL W/SPIKES 20cm     0000001000+00001753+00000+0001T   00001753+0000001550          1400 KD8785               2AZ
130520112130520064-000011     130520006003000416622RIDE ON SKATEBOARD     0000001000+00025437+00000+0001T   00025437+0000001550          1400 KD8745               2AZ
130520113130520040-000103     130520000694202201862C/HOLDER-SET 5PC W/TRAY0000002000+00011402+00000+0001T   00013157+0008191550          1400 KD8510               2AZ
130520114130520564-000012     130520006001023130075BUBBLE BOTTLE MAGIC    0000005000+00000700+00000+0001T   00000700+0000001550          1400 KD8131               2AZ
130521000130521               130521               170213KO     1400+00000+KO0000013547+0000013547+000000000+000001901+0000015448+0000000000+I40000015448+0000000000+Z
130521001130521112-116069     130521006009681820277TCS CARRIER BAG JUMBO  0000001000+00000048+00000+0001T   00000048+0000001559          1400 KD8090               2AZ
130521002130521200-003024     130521006001023657299REFUSE BAGS 20PCE BLACK0000002000+00001753+00000+0001T   00001753+0000001559          1400 KD8214               2AZ
130521003130521251-000002     130521006003000093991TAPE D-SIDED 24x1000mm 0000001000+00002192+00000+0001T   00002192+0000001559          1400 KD8810               2AZ
130521004130521071-002999-A   130521006003000611577PEN STICKBALL 10PCE ASS0000001000+00001753+00000+0001T   00001753+0000001559          1400 KD8130               2AZ
130521005130521071-081101-A   130521006003000326549GLUE-STICK 25g BLISTER 0000001000+00000788+00000+0001T   00000788+0000001559          1400 KD8130               2AZ
130521006130521071-001362     130521006003000589258HIGHLIGHTER 4 PACK     0000001000+00002630+00000+0001T   00002630+0000001559          1400 KD8130               2AZ
130521007130521220-005006     130521006003000566396ELOFF SODA SPOONS 4PC  0000001000+00002630+00000+0001T   00002630+0000001559          1400 KD8300               2AZ
130522000130522               130522               170213KO     1400+00000+KO0000001753+0000001753+000000000+000000246+0000001990+0000000009+I20000000000+0000001990+Z
130522001130522077-000299-A   130522006003000670888GIFT-BAG PAPER JMB LOVE0000001000+00001753+00000+0001T   00001753+0000001600          1400 KD8112               2AZ
130523000130523               130523               170213KO     1400+00000+KO0000002240+0000002240+000000000+000000314+0000002550+0000000004+I20000000000+0000002550+Z
130523001130523080-000127     130523006003000424351VALENTINES DAY 36x24CM 0000001000+00002192+00000+0001T   00002192+0000001601          1400 KD8112               2AZ
130523002130523112-116069     130523006009681820277TCS CARRIER BAG JUMBO  0000001000+00000048+00000+0001T   00000048+0000001601          1400 KD8090               2AZ
130524000130524               130524               170213KO     1400+00000+KO0000008819+0000008819+000000000+000001235+0000010050+0000000004+I20000000000+0000010050+Z
130524001130524028-000027     130524006003000275816C/BAG+POCKET 27x18x23cm0000001000+00008771+00000+0001T   00008771+0000001602          1400 KD8305               2AZ
130524002130524112-116069     130524006009681820277TCS CARRIER BAG JUMBO  0000001000+00000048+00000+0001T   00000048+0000001602          1400 KD8090               2AZ
130525000130525               130525               170213KO     1400+00000+KO0000012936+0000012936+000000000+000001813+0000014749+0000000000+I40000014749+0000000000+Z
130525001130525077-000270     130525006003000395453GIFT-BAG PPR JMB 33X45 0000001000+00002630+00000+0001T   00002630+0000001607          1400 KD8112               2AZ
130525002130525080-000127     130525006003000424351VALENTINES DAY 36x24CM 0000001000+00002192+00000+0001T   00002192+0000001607          1400 KD8112               2AZ
130525003130525301-085004     130525006003000420469ORN LOVE PLAQUE 21X10CM0000001000+00003507+00000+0001T   00003946+0006471607          1400 KD8505               2AZ
130525004130525089-060027     130525006003000245871KEY-CHAIN HEART 6X6cm  0000001000+00003069+00000+0001T   00003069+0000001607          1400 KD8205               2AZ
130525005130525565-004101     130525006003000548033BALL BOUNCING EGG      0000001000+00001490+00000+0001T   00001490+0000001607          1400 KD8745               2AZ
130525006130525112-116069     130525006009681820277TCS CARRIER BAG JUMBO  0000001000+00000048+00000+0001T   00000048+0000001607          1400 KD8090               2AZ
130526000130526               130526               170213KO     1400+00000+KO0000009427+0000009427+000000000+000001323+0000010750+0000000000+I20000000000+0000010750+Z
130526001130526077-000900     130526006003000410446G/WRAP 700mmx1m ANIMAL 0000001000+00001753+00000+0001T   00001753+0000001626          1400 KD8112               2AZ
130526002130526112-116069     130526006009681820277TCS CARRIER BAG JUMBO  0000001000+00000048+00000+0001T   00000048+0000001626          1400 KD8090               2AZ
130526003130526077-000316-A   130526006003000681457GIFT-BAG METALLIC PPR  0000001000+00002630+00000+0001T   00002630+0000001626          1400 KD8112               2AZ
130526005130526566-100009     130526006003000102914WED STIK EMBOSSED FOIL 0000001000+00002630+00000+0001T   00002630+0000001626          1400 KD8130               2AZ
130526006130526080-000101     130526006003000236732CARD&ENVLPE FEMALE     0000001000+00001753+00000+0001T   00001753+0000001626          1400 KD8112               2AZ
130526007130526077-000311     130526006001023608666GIFT-BAG 11X14CM GLOSS 0000001000+00000613+00000+0001T   00000613+0000001626          1400 KD8112               2AZ
130527000130527               130527               170213KO     1400+00000+KO0000015395+0000015395+000000000+000002157+0000017552+0000000000+I40000017552+0000000000+Z
130527001130527065-003635     130527006001023834782GUITAR STRING FLAME    0000001000+00013157+00000+0001T   00013157+0000001628          1400 KD8745               2AZ
130527002130527903-002851     130527000000087108538MENTOS ROLL STRAWBERRY 0000001000+00001051+00000+0001T   00001051+0000001628          1400 KD8150               2AZ
130527003130527112-116069     130527006009681820277TCS CARRIER BAG JUMBO  0000001000+00000048+00000+0001T   00000048+0000001628          1400 KD8090               2AZ
130527004130527903-000710     130527006002099007056SWT REFRESHERS MINT    0000001000+00001139+00000+0001T   00001139+0000001628          1400 KD8150               2AZ
130528000130528               130528               170213KO     1400+00000+KO0000004385+0000004385+000000000+000000614+0000004999+0000000000+I40000004999+0000000000+Z
130528001130528369-001032     130528006001023796158BABY RATTLE SET 6PCE   0000001000+00004385+00000+0001T   00004385+0000001635          1400 KD8745               2AZ
130529000130529               130529               170213KO     1400+00000+KO0000001753+0000001753+000000000+000000246+0000001990+0000000009+I20000000000+0000001990+Z
130529001130529077-000467     130529006003000329991GIFT-BAG STAMP 18X23CM 0000001000+00001753+00000+0001T   00001753+0000001707          1400 KD8112               2AZ
130530000130530               130530               170213KO     1400+00000+KO0000003507+0000003507+000000000+000000491+0000003998+0000000000+I40000003998+0000000000+Z
130530001130530031-000002-A   130530006003000247103P/FRAME LOVE 7.5X7.5CM 0000001000+00003507+00000+0001T   00003507+0000001708          1400 KD8510               2AZ
130531000130531               130531               170213KO     1400+00000+KO0000003069+0000003069+000000000+000000430+0000003490+0000000009+I20000000000+0000003490+Z
130531001130531004-071200     130531006003000073399USB 2.0 CARD RDR/WRTR  0000001000+00003069+00000+0001T   00003069+0000001708          1400 KD8310               2AZ
130532000130532               130532               170213KO     1400+00000+KO0000000876+0000000876+000000000+000000123+0000000990+0000000009+I20000000000+0000000990+Z
130532001130532077-000151     130532006008766114676GIFT-WRAP C/PHANE ASSTD0000001000+00000876+00000+0001T   00000876+0000001709          1400 KD8112               2AZ
130533000130533               130533               170213KO     1400+00000+KO0000007940+0000007940+000000000+000001112+0000009052+0000000000+I40000009052+0000000000+Z
130533001130533112-116069     130533006009681820277TCS CARRIER BAG JUMBO  0000001000+00000048+00000+0001T   00000048+0000001715          1400 KD8090               2AZ
130533002130533369-001032     130533006001023796158BABY RATTLE SET 6PCE   0000001000+00004385+00000+0001T   00004385+0000001715          1400 KD8745               2AZ
130533003130533106-001110     130533006001023857880SPORTS-BOTTLES SET-OF-20000001000+00003507+00000+0001T   00003507+0000001715          1400 KD8210               2AZ
130534000130534               130534               170213KO     1400+00000+KO0000001753+0000001753+000000000+000000246+0000001990+0000000009+I20000000000+0000001990+Z
130534001130534077-000011-X   130534006001023809827TISSUE-WRAP SILVER 10PC0000001000+00001753+00000+0001T   00001753+0000001715          1400 KD8112               2AZ
130535000130535               130535               170213KO     1400+00000+KO0000005262+0000005262+000000000+000000737+0000005999+0000000000+I40000005999+0000000000+Z
130535001130535018-019000     130535006003000557288MUG OCC. LOVE JUMBO    0000001000+00005262+00000+0001T   00005262+0000001717          1400 KD8515               2AZ
130536000130536               130536               170213KO     1400+00000+KO0000003507+0000003507+000000000+000000491+0000003990+0000000008+I20000000000+0000003990+Z
130536001130536031-000002-A   130536006003000247103P/FRAME LOVE 7.5X7.5CM 0000001000+00003507+00000+0001T   00003507+0000001721          1400 KD8510               2AZ
130537000130537               130537               170213KO     1400+00000+KO0000000035+0000000035+000000000+000000005+0000000040+0000000000+I20000000000+0000000040+Z
130537001130537112-116038     130537006009681820246TCS CARRIER BAG MIDI   0000001000+00000035+00000+0001T   00000035+0000001721          1400 KD8090               2AZ
130538000130538               130538               170213KO     1400+00000+KO0000000700+0000000700+000000000+000000098+0000000790+0000000008+I20000000000+0000000790+Z
130538001130538564-000012     130538006001023130075BUBBLE BOTTLE MAGIC    0000001000+00000700+00000+0001T   00000700+0000001722          1400 KD8131               2AZ
A17021300                                          08410810KOSLAVE 2                       KD82IC
A17021301                                          09143226KOSLAVE 2                       KD81IC
A17021302                                          09544894KOSLAVE 2                       KD83IC
A17021303                                          10093901KOSLAVE 2                       KD81IC
A17021304                                          10143087KOSLAVE 2                       KD81IC
A17021305                                          11442379KOSLAVE 2                       KD83IC
C13052600                                          170213KO002-000711     16260979SLAVE 2     KD83IC0000000000+0000000000+0040000001000+
C13052601                                          170213KO016-001000     16261824SLAVE 2     KD83IC0000000000+0000000000+0080000001000+
M17021301                              IT          KOATT IT                                                                                          LAST SALE NO SL1-126382                                      SL2=130538                                      SL3=143207                                                                         THANK YOU KO
M17021391                              CASH        KOSLAVE 2                       Z-REPORT No.   643TOTAL (Sales - Refunds)          10901.93       CASH TO BE BANKED                 1427.40       DEBIT CARDS                          0.00       CREDIT CARDS                      9474.63       Z-READING                        10901.93       AIRTIME DEBIT CARD SALES             0.00       AIRTIME CARD SALES                   0.00       OVERS/UNDERS                         0.10       AIRTIME CASH SALES                   0.00       GIFT CARDS                           0.00       GIFT CARD CASH SALES                 0.00       T O T A L  CASH PAYOUTS              0.00                                                                                                                                                                                                                                                                                                                                                      Z
M17021392                              CASH        KOABSENT                                                                                                                                                                                          ANNUAL LEAVE                                                                                                                                                                                    DAY OFF                                                                                                                                                                                         COMMENTS                                                                                                                                                                                                                                                                                                                                                                                       Z
Y17021300                                          KO00026400958102+000050
ZKO17021321233 SLAVE 2      SALES DATA                     NEXT INVOICE NO.  130539 0643
X KO Slave 2 First invoice 130489 170213 Last invoice 130538 170213 Next invoice 130539 Total number of records 000000319 clbackup completed 21:23:51
