143123000143123               143123               170213KO     1400+00000+KO0000006918+0000006918+000000000+000000969+0000007887+0000000000+I40000007887+0000000000+Z
143123001143123077-000304     143123006001023483232GIFT-BAG 25X32CM E/DAY 0000001000+00001490+00000+0001T   00001490+0000000920          1400 PM7112               3AZ
143123002143123362-004001     143123000613153010385PRINCESS ASSTD TRINKETS0000004000+00000700+00000+0001T   00000876+0008180920          1400 PM7160               3AZ
143123003143123077-000310     143123006001023608635GIFT-BAG 18X23CM GLOSS 0000002000+00001314+00000+0001T   00001314+0000000920          1400 PM7112               3AZ
143124000143124               143124               170213KO     1400+00000+KO0000002630+0000002630+000000000+000000369+0000002990+0000000009+I20000000000+0000002990+Z
143124001143124077-000388     143124006003000421671G/BAG 25X32CM VALUE PCK0000001000+00002630+00000+0001T   00002630+0000000936          1400 PM7112               3AZ
143125000143125               143125               170213KO     1400+00000+KO0000007891+0000007891+000000000+000001106+0000008997+0000000000+I40000008997+0000000000+Z
143125001143125077-000011-D   143125006001023808554TISSUE-WRAP WHITE 10PCE0000001000+00000876+00000+0001T   00000876+0000000948          1400 PM7112               3AZ
143125002143125031-000870-B   143125006001023798657P/FRAME WOOD WHITE-PINE0000001000+00005262+00000+0001T   00005262+0000000948          1400 PM7510               3AZ
143125003143125077-000455     143125006003000285389G/BAG METALLIC LRG SOL 0000001000+00001753+00000+0001T   00001753+0000000948          1400 PM7112               3AZ
143126000143126               143126               170213KO     1400+00000+KO0000008060+0000008060+000000000+000001130+0000009190+0000000000+I40000009190+0000000000+Z
143126001143126304-001204     143126006001023737984FLOWER OCC. TEDDY/ROSES0000002000+00001402+00000+0001T   00001490+0006471022          1400 PM7510               3AZ
143126002143126903-000194     143126006009826020616SWT CHOC RP LOLLY 25G  0000004000+00001314+00000+0001T   00001314+0000001022          1400 PM7150               3AZ
143127000143127               143127               170213KO     1400+00000+KO0000001226+0000001226+000000000+000000172+0000001390+0000000008+I20000000000+0000001390+Z
143127001143127077-000321     143127006001023677501GIFT-BAG 11X14CM E/D FL0000002000+00000613+00000+0001T   00000613+0000001023          1400 PM7112               3AZ
143128000143128               143128               170213KO     1400+00000+KO0000028149+0000028149+000000000+000003950+0000032099+0000000000+I40000032099+0000000000+Z
143128001143128080-000113     143128006003000237449CARD&ENVLPE - LOVE     0000001000+00001753+00000+0001T   00001753+0000001031          1400 PM7112               3AZ
143128002143128466-009009     143128006003000611294BEACH-BAT WOODEN 1.5cm 0000010000+00002630+00000+0001T   00002630+0000001031          1400 PM7785               3AZ
143128003143128112-116069     143128006009681820277TCS CARRIER BAG JUMBO  0000002000+00000048+00000+0001T   00000048+0000001031          1400 PM7090               3AZ
143129000143129               143129               170213KO     1400+00000+KO0000008379+0000008379+000000000+000001174+0000009550+0000000003+I20000000000+0000009550+Z
143129001143129301-085008     143129006003000673933ORN OCC.LOVE TINSEL HRT0000001000+00003069+00000+0001T   00003069+0000001033          1400 PM7505               3AZ
143129002143129566-000322     143129006003000423132STICKER R/DEC CHANDELIE0000001000+00005262+00000+0001T   00005262+0000001033          1400 PM7130               3AZ
143129003143129112-116069     143129006009681820277TCS CARRIER BAG JUMBO  0000001000+00000048+00000+0001T   00000048+0000001033          1400 PM7090               3AZ
143130000143130               143130               170213KO     1400+00000+KO0000001753+0000001753+000000000+000000246+0000001990+0000000009+I20000000000+0000001990+Z
143130001143130007-000184     143130006003000135424NOTEBOOK               0000001000+00001753+00000+0001T   00001753+0000001035          1400 PM7130               3AZ
143131000143131               143131               170213KO     1400+00000+KO0000021088+0000021088+000000000+000002959+0000024047+0000000000+I40000024047+0000000000+Z
143131001143131466-009009     143131006003000611294BEACH-BAT WOODEN 1.5cm 0000008000+00002630+00000+0001T   00002630+0000001038          1400 PM7785               3AZ
143131002143131112-116069     143131006009681820277TCS CARRIER BAG JUMBO  0000001000+00000048+00000+0001T   00000048+0000001038          1400 PM7090               3AZ
143132000143132               143132               170213KO     1400+00000+KO0000012326+0000012326+000000000+000001727+0000014050+0000000003+I20000000000+0000014050+Z
143132001143132106-000901     143132006003000538058WATER BOTTLE 600ml     0000002000+00006139+00000+0001T   00006139+0000001042          1400 PM7210               3AZ
143132002143132112-116069     143132006009681820277TCS CARRIER BAG JUMBO  0000001000+00000048+00000+0001T   00000048+0000001042          1400 PM7090               3AZ
143133000143133               143133               170213KO     1400+00000+KO0000003243+0000003243+000000000+000000455+0000003698+0000000000+I40000003698+0000000000+Z
143133001143133077-000299     143133006003000395576G/BAG 32x25cm LRG LOVE 0000001000+00001490+00000+0001T   00001490+0000001044          1400 PM7112               3AZ
143133002143133903-000619     143133006003000672455SWT LOLLY STR/BRRY 140G0000001000+00001753+00000+0001T   00001753+0000001044          1400 PM7150               3AZ
143134000143134               143134               170213KO     1400+00000+KO0000014909+0000014909+000000000+000002089+0000016990+0000000008+I20000000000+0000016990+Z
143134001143134368-000111     143134006001023780812PLUSH BEAR/DOG 29CM    0000001000+00012279+00000+0001T   00012279+0000001045          1400 PM7745               3AZ
143134002143134077-000316-A   143134006003000681457GIFT-BAG METALLIC PPR  0000001000+00002630+00000+0001T   00002630+0000001045          1400 PM7112               3AZ
143135000143135               143135               170213KO     1400+00000+KO0000001753+0000001753+000000000+000000246+0000001990+0000000009+I20000000000+0000001990+Z
143135001143135077-000455     143135006003000285389G/BAG METALLIC LRG SOL 0000001000+00001753+00000+0001T   00001753+0000001053          1400 PM7112               3AZ
143136000143136               143136               170213KO     1400+00000+KO0000043051+0000043051+000000000+000006034+0000049085+0000000000+I40000049085+0000000000+Z
143136001143136112-116069     143136006009681820277TCS CARRIER BAG JUMBO  0000001000+00000048+00000+0001T   00000048+0000001059          1400 PM7090               3AZ
143136002143136007-000160     143136006009685857286NOTE-BOOK A5 SHORTHAND 0000001000+00001227+00000+0001T   00001227+0000001059          1400 PM7130               3AZ
143136003143136006-000850     143136006009645922856PARTY LUCKY-PACKET GIRL0000001000+00003946+00000+0001T   00003946+0000001059          1400 PM7131               3AZ
143136004143136006-000201-A   143136006003000601158PARTY GIRL PLATES/CUP  0000002000+00001753+00000+0001T   00001753+0000001059          1400 PM7131               3AZ
143136005143136006-000214-D   143136006003000310029P/BOYZ INVITE 6PCE     0000001000+00001139+00000+0001T   00001490+0008181059          1400 PM7131               3AZ
143136006143136263-000506     143136006001023790231CAR SET 3PK CONSTRUCT  0000001000+00003507+00000+0001T   00003507+0000001059          1400 PM7710               3AZ
143136007143136006-000851     143136006009645928445PARTY LUCKY-PACKET BOY 0000001000+00003946+00000+0001T   00003946+0000001059          1400 PM7131               3AZ
143136008143136006-000851     143136006009645926625PARTY LUCKY-PACKET BOY 0000001000+00003946+00000+0001T   00003946+0000001059          1400 PM7131               3AZ
143136009143136112-116069     143136006009681820277TCS CARRIER BAG JUMBO  0000001000+00000048+00000+0001T   00000048+0000001059          1400 PM7090               3AZ
143136010143136006-000850     143136006009645929756PARTY LUCKY-PACKET GIRL0000001000+00003946+00000+0001T   00003946+0000001059          1400 PM7131               3AZ
143136011143136006-000851     143136006007151000273PARTY LUCKY-PACKET BOY 0000001000+00003946+00000+0001T   00003946+0000001059          1400 PM7131               3AZ
143136012143136174-000308     143136006003000684939TRAVEL NECK-PILLOW FOAM0000001000+00007893+00000+0001T   00007893+0000001059          1400 PM7205               3AZ
143136013143136564-000012     143136006001023130075BUBBLE BOTTLE MAGIC    0000006000+00000700+00000+0001T   00000700+0000001059          1400 PM7131               3AZ
143136014143136174-000306     143136006003000245024TRAVEL TAG NAME/LUGGAGE0000001000+00001753+00000+0001T   00001753+0000001059          1400 PM7205               3AZ
143137000143137               143137               170213KO     1400+00000+KO0000007539+0000007539+000000000+000001057+0000008596+0000000000+I40000008596+0000000000+Z
143137001143137903-000090     143137006009826020821SWT GS CHOCO COINS 60g 0000003000+00002104+00000+0001T   00002104+0000001105          1400 PM7150               3AZ
143137002143137077-000245     143137006001023759214GIFT-RIBBON METALLICx2 0000001000+00001227+00000+0001T   00001227+0000001105          1400 PM7112               3AZ
143138000143138               143138               170213KO     1400+00000+KO0000006752+0000006752+000000000+000000946+0000007698+0000000000+I40000007698+0000000000+Z
143138001143138077-000299     143138006003000395576G/BAG 32x25cm LRG LOVE 0000001000+00001490+00000+0001T   00001490+0000001107          1400 PM7112               3AZ
143138002143138368-000053     143138006003000633449PLUSH BEAR 15.5cm MUM  0000001000+00005262+00000+0001T   00005262+0000001107          1400 PM7745               3AZ
143139000143139               143139               170213KO     1400+00000+KO0000006139+0000006139+000000000+000000860+0000006990+0000000009+I20000000000+0000006990+Z
143139001143139486-000010     143139006001023544254WALL-CLOCK ROUND 25cm  0000001000+00006139+00000+0001T   00006139+0000001222          1400 PM7510               3AZ
143140000143140               143140               170213KO     1400+00000+KO0000002192+0000002192+000000000+000000307+0000002490+0000000009+I20000000000+0000002490+Z
143140001143140080-000127     143140006003000424351VALENTINES DAY 36x24CM 0000001000+00002192+00000+0001T   00002192+0000001223          1400 PM7112               3AZ
143141000143141               143141               170213KO     1400+00000+KO0000001490+0000001490+000000000+000000209+0000001699+0000000000+I40000001699+0000000000+Z
143141001143141077-000452     143141006003000284986G/BAG METALLIC MED EMB 0000001000+00001490+00000+0001T   00001490+0000001225          1400 PM7112               3AZ
143142000143142               143142               170213KO     1400+00000+KO0000002192+0000002192+000000000+000000307+0000002499+0000000000+I40000002499+0000000000+Z
143142001143142027-008814     143142006001023797155DUSTER POLYESTER 58cm  0000001000+00002192+00000+0001T   00002192+0000001227          1400 PM7212               3AZ
143143000143143               143143               170213KO     1400+00000+KO0000002630+0000002630+000000000+000000369+0000002990+0000000009+I20000000000+0000002990+Z
143143001143143079-000300     143143006001023902245PAINTSET LEARN TO PAINT0000001000+00002630+00000+0001T   00002630+0000001230          1400 PM7130               3AZ
143144000143144               143144               170213KO     1400+00000+KO0000007188+0000007188+000000000+000001008+0000008190+0000000006+I20000000000+0000008190+Z
143144001143144903-000087     143144006001704000161SWT SPECKLED-EGGS 50G  0000001000+00001139+00000+0001T   00001139+0000001235          1400 PM7150               3AZ
143144002143144903-000504     143144006001704012416SWT CHOC JELLY BEANS   0000001000+00001227+00000+0001T   00001227+0000001235          1400 PM7150               3AZ
143144003143144018-030000     143144006003000421060MUG OCCASIONS LOVE 2PCE0000001000+00004385+00000+0001T   00004385+0000001235          1400 PM7515               3AZ
143144005143144080-000133     143144006003000535613CARD&ENV MINI ASTD DSGN0000001000+00000437+00000+0001T   00000437+0000001235          1400 PM7112               3AZ
143145000143145               143145               170213KO     1400+00000+KO0000010567+0000010567+000000000+000001482+0000012049+0000000000+I40000012049+0000000000+Z
143145001143145077-000151     143145006008766114676GIFT-WRAP C/PHANE ASSTD0000003000+00000876+00000+0001T   00000876+0000001238          1400 PM7112               3AZ
143145002143145112-116069     143145006009681820277TCS CARRIER BAG JUMBO  0000001000+00000048+00000+0001T   00000048+0000001238          1400 PM7090               3AZ
143145003143145368-000049     143145006003000536955PLUSH BEAR 15cm LOVE   0000001000+00004385+00000+0001T   00004385+0000001238          1400 PM7745               3AZ
143145004143145071-005213     143145006001023690371CELLOTAPE 12mmx33m     0000001000+00000876+00000+0001T   00000876+0000001238          1400 PM7130               3AZ
143145005143145077-000251     143145006003000639106GIFT-DECOR RIBBON      0000001000+00002630+00000+0001T   00002630+0000001238          1400 PM7112               3AZ
143146000143146               143146               170213KO     1400+00000+KO0000002839+0000002839+000000000+000000398+0000003230+0000000007+I20000000000+0000003230+Z
143146001143146464-000238     143146006001023644039GAME SNAKES+LADDERS    0000001000+00001314+00000+0001T   00001314+0000001240          1400 PM7785               3AZ
143146002143146028-000796     143146006001023812094SKEWERS 25cm 50PCE 4mm 0000001000+00001490+00000+0001T   00001490+0000001240          1400 PM7305               3AZ
143146003143146112-116038     143146006009681820246TCS CARRIER BAG MIDI   0000001000+00000035+00000+0001T   00000035+0000001240          1400 PM7090               3AZ
143147000143147               143147               170213KO     1400+00000+KO0000008639+0000008639+000000000+000001211+0000009850+0000000000+I40000009850+0000000000+Z
143147001143147112-116069     143147006009681820277TCS CARRIER BAG JUMBO  0000001000+00000048+00000+0001T   00000048+0000001244          1400 PM7090               3AZ
143147002143147200-000092     143147006003000576739PICNIC PAPER PLATES 23c0000001000+00001227+00000+0001T   00001227+0000001244          1400 PM7214               3AZ
143147003143147080-000113     143147006003000237449CARD&ENVLPE - LOVE     0000001000+00001753+00000+0001T   00001753+0000001244          1400 PM7112               3AZ
143147004143147200-000092     143147006003000576739PICNIC PAPER PLATES 23c0000001000+00001227+00000+0001T   00001227+0000001244          1400 PM7214               3AZ
143147005143147200-000200     143147006008766091144BAKING ALUM FOIL 2PCE  0000002000+00002192+00000+0001T   00002192+0000001244          1400 PM7214               3AZ
143148000143148               143148               170213KO     1400+00000+KO0000002192+0000002192+000000000+000000307+0000002499+0000000000+I40000002499+0000000000+Z
143148001143148566-000359     143148006003000582709STICKER BOOK LOVE SPARK0000001000+00002192+00000+0001T   00002192+0000001246          1400 PM7130               3AZ
143149000143149               143149               170213KO     1400+00000+KO0000001227+0000001227+000000000+000000172+0000001399+0000000000+I40000001399+0000000000+Z
143149001143149077-000245     143149006001023759214GIFT-RIBBON METALLICx2 0000001000+00001227+00000+0001T   00001227+0000001248          1400 PM7112               3AZ
143150000143150               143150               170213KO     1400+00000+KO0000001753+0000001753+000000000+000000246+0000001990+0000000009+I20000000000+0000001990+Z
143150001143150204-000001     143150006003000575558M/HOLD BOTTLE OPENER   0000001000+00001753+00000+0001T   00001753+0000001248          1400 PM7300               3AZ
143151000143151               143151               170213KO     1400+00000+KO0000001753+0000001753+000000000+000000246+0000001990+0000000009+I20000000000+0000001990+Z
143151001143151077-000455     143151006003000285389G/BAG METALLIC LRG SOL 0000001000+00001753+00000+0001T   00001753+0000001249          1400 PM7112               3AZ
143152000143152               143152               170213KO     1400+00000+KO0000006622+0000006622+000000000+000000929+0000007551+0000000000+I40000007551+0000000000+Z
143152001143152018-000127     143152006001023380289MUG OCC STRAIGHT LOVE  0000001000+00001578+00000+0001T   00001753+0006471253          1400 PM7515               3AZ
143152002143152077-000116     143152006003000240777GIFT-WRAP 700mmx2m COL 0000001000+00001753+00000+0001T   00001753+0000001253          1400 PM7112               3AZ
143152003143152077-000452     143152006003000284986G/BAG METALLIC MED EMB 0000001000+00001490+00000+0001T   00001490+0000001253          1400 PM7112               3AZ
143152004143152080-000113     143152006003000237449CARD&ENVLPE - LOVE     0000001000+00001753+00000+0001T   00001753+0000001253          1400 PM7112               3AZ
143152005143152112-116069     143152006009681820277TCS CARRIER BAG JUMBO  0000001000+00000048+00000+0001T   00000048+0000001253          1400 PM7090               3AZ
143153000143153               143153               170213KO     1400+00000+KO0000005741+0000005741+000000000+000000808+0000006540+0000000009+I20000000000+0000006540+Z
143153001143153080-000133     143153006003000535613CARD&ENV MINI ASTD DSGN0000004000+00000437+00000+0001T   00000437+0000001254          1400 PM7112               3AZ
143153002143153046-000014-A   143153004897006177708BATTERIES SIZE:AAA 8PCE0000001000+00001753+00000+0001T   00001753+0000001254          1400 PM7312               3AZ
143153003143153200-000020     143153006925406841030BAG ZIPPERSEAL 25PC    0000001000+00002192+00000+0001T   00002192+0000001254          1400 PM7214               3AZ
143153004143153112-116069     143153006009681820277TCS CARRIER BAG JUMBO  0000001000+00000048+00000+0001T   00000048+0000001254          1400 PM7090               3AZ
143154000143154               143154               170213KO     1400+00000+KO0000001753+0000001753+000000000+000000246+0000001990+0000000009+I20000000000+0000001990+Z
143154001143154080-000113     143154006003000237449CARD&ENVLPE - LOVE     0000001000+00001753+00000+0001T   00001753+0000001254          1400 PM7112               3AZ
143155000143155               143155               170213KO     1400+00000+KO0000010478+0000010478+000000000+000001470+0000011940+0000000008+I20000000000+0000011940+Z
143155001143155007-000108     143155006009698062097BK COVER ADJUSTABLE A4 0000001000+00003507+00000+0001T   00003507+0000001305          1400 PM7130               3AZ
143155002143155080-000113     143155006003000237449CARD&ENVLPE - LOVE     0000001000+00001753+00000+0001T   00001753+0000001305          1400 PM7112               3AZ
143155003143155077-000384     143155006003000275243G/BAG HOT STMP 18x23CM 0000001000+00001490+00000+0001T   00001490+0000001305          1400 PM7112               3AZ
143155004143155007-000192     143155006009635830062BOOK H/COVER A4 192PAGE0000001000+00001753+00000+0001T   00001753+0000001305          1400 PM7130               3AZ
143155005143155077-000384     143155006003000275243G/BAG HOT STMP 18x23CM 0000001000+00001490+00000+0001T   00001490+0000001305          1400 PM7112               3AZ
143155006143155112-116069     143155006009681820277TCS CARRIER BAG JUMBO  0000001000+00000048+00000+0001T   00000048+0000001305          1400 PM7090               3AZ
143155007143155080-000133     143155006003000535613CARD&ENV MINI ASTD DSGN0000001000+00000437+00000+0001T   00000437+0000001305          1400 PM7112               3AZ
143156000143156               143156               170213KO     1400+00000+KO0000001753+0000001753+000000000+000000246+0000001990+0000000009+I20000000000+0000001990+Z
143156001143156077-000454     143156006003000285266G/BAG METALLIC LRG EMB 0000001000+00001753+00000+0001T   00001753+0000001306          1400 PM71122IC            3AZ
143157000143157               143157               170213KO     1400+00000+KO0000002630+0000002630+000000000+000000369+0000002990+0000000009+I20000000000+0000002990+Z
143157001143157104-000031     143157006003000614950BASKET PL 27x18x12cm   0000001000+00002630+00000+0001T   00002630+0000001306          1400 PM7210               3AZ
143158000143158               143158               170213KO     1400+00000+KO0000002192+0000002192+000000000+000000307+0000002499+0000000000+I40000002499+0000000000+Z
143158001143158080-000127     143158006003000424351VALENTINES DAY 36x24CM 0000001000+00002192+00000+0001T   00002192+0000001307          1400 PM7112               3AZ
143159000143159               143159               170213KO     1400+00000+KO0000001314+0000001314+000000000+000000184+0000001490+0000000008+I20000000000+0000001490+Z
143159001143159007-000136     143159008427973108267BOOK COVER ROLL ASSTD  0000001000+00001314+00000+0001T   00001314+0000001308          1400 PM7130               3AZ
143160000143160               143160               170213KO     1400+00000+KO0000007060+0000007060+000000000+000000991+0000008051+0000000000+I40000008051+0000000000+Z
143160001143160028-000014     143160006001334001316ICE-BRICK SOLID MEDIUM 0000004000+00001753+00000+0001T   00001753+0000001311          1400 PM7305               3AZ
143160002143160112-116069     143160006009681820277TCS CARRIER BAG JUMBO  0000001000+00000048+00000+0001T   00000048+0000001311          1400 PM7090               3AZ
143161000143161               143161               170213KO     1400+00000+KO0000011880+0000011880+000000000+000001664+0000013544+0000000000+I40000013544+0000000000+Z
143161001143161112-116069     143161006009681820277TCS CARRIER BAG JUMBO  0000001000+00000048+00000+0001T   00000048+0000001313          1400 PM7090               3AZ
143161002143161018-000170     143161006001023775528MUG OCC. LOVE 2PC MINI 0000003000+00002192+00000+0001T   00002192+0000001313          1400 PM7515               3AZ
143161003143161006-000166-D   143161006003000516490BALLOONS LRG 6PC RED   0000001000+00001314+00000+0001T   00001314+0000001313          1400 PM7131               3AZ
143161004143161006-000166-H   143161006003000608096BALLOONS HELIUM 6PC WHT0000001000+00001314+00000+0001T   00001314+0000001313          1400 PM7131               3AZ
143161005143161006-000166-D   143161006003000516490BALLOONS LRG 6PC RED   0000001000+00001314+00000+0001T   00001314+0000001313          1400 PM7131               3AZ
143161006143161006-000166-H   143161006003000608096BALLOONS HELIUM 6PC WHT0000001000+00001314+00000+0001T   00001314+0000001313          1400 PM7131               3AZ
143162000143162               143162               170213KO     1400+00000+KO0000004431+0000004431+000000000+000000622+0000005050+0000000003+I20000000000+0000005050+Z
143162001143162566-100009     143162006003000102914WED STIK EMBOSSED FOIL 0000001000+00002630+00000+0001T   00002630+0000001314          1400 PM7130               3AZ
143162002143162566-002004     143162006001023672421STICKERS CRYSTAL SHAPES0000001000+00001753+00000+0001T   00001753+0000001314          1400 PM7130               3AZ
143162003143162112-116069     143162006009681820277TCS CARRIER BAG JUMBO  0000001000+00000048+00000+0001T   00000048+0000001314          1400 PM7090               3AZ
143163000143163               143163               170213KO     1400+00000+KO0000007890+0000007890+000000000+000001106+0000008990+0000000006+I20000000000+0000008990+Z
143163001143163077-000151     143163006008766114676GIFT-WRAP C/PHANE ASSTD0000002000+00000876+00000+0001T   00000876+0000001321          1400 PM7112               3AZ
143163002143163016-006517     143163006003000351626S/JAR GLS CHECK 650ML  0000001000+00002192+00000+0001T   00002192+0000001321          1400 PM7300               3AZ
143163003143163103-000081     143163006003000637942BAMBOO BASKET 17x13x7cm0000001000+00003946+00000+0001T   00003946+0000001321          1400 PM7300               3AZ
143164000143164               143164               170213KO     1400+00000+KO0000001927+0000001927+000000000+000000271+0000002190+0000000008+I20000000000+0000002190+Z
143164001143164077-000452     143164006003000284986G/BAG METALLIC MED EMB 0000001000+00001490+00000+0001T   00001490+0000001322          1400 PM7112               3AZ
143164002143164080-000133     143164006003000535613CARD&ENV MINI ASTD DSGN0000001000+00000437+00000+0001T   00000437+0000001322          1400 PM7112               3AZ
143165000143165               143165               170213KO     1400+00000+KO0000009645+0000009645+000000000+000001351+0000010996+0000000000+I40000010996+0000000000+Z
143165001143165018-005009     143165006001023725608MUG W/PLUSH-BEAR LOVE  0000001000+00003507+00000+0001T   00003507+0000001323          1400 PM7515               3AZ
143165002143165080-000113     143165006003000237449CARD&ENVLPE - LOVE     0000001000+00001753+00000+0001T   00001753+0000001323          1400 PM7112               3AZ
143165003143165079-000261     143165006003000159727PAINT WATER COLOUR CAKE0000001000+00004385+00000+0001T   00004385+0000001323          1400 PM7130               3AZ
143166000143166               143166               170213KO     1400+00000+KO0000008142+0000008142+000000000+000001146+0000009288+0000000000+I40000009288+0000000000+Z
143166001143166077-000239     143166006003000160419GIFT-RIBBON ROLL PEARL 0000001000+00001753+00000+0001T   00001753+0000001326          1400 PM7112               3AZ
143166002143166903-000077     143166006939873501687SWT GS MAGIC ROCK FRUIT0000010000+00000525+00000+0001T   00000525+0000001326          1400 PM71502IC            3AZ
143166003143166903-000087     143166006001704000161SWT SPECKLED-EGGS 50G  0000001000+00001139+00000+0001T   00001139+0000001326          1400 PM7150               3AZ
143167000143167               143167               170213KO     1400+00000+KO0000002278+0000002278+000000000+000000320+0000002590+0000000008+I20000000000+0000002590+Z
143167001143167903-000087     143167006001704000161SWT SPECKLED-EGGS 50G  0000002000+00001139+00000+0001T   00001139+0000001326          1400 PM7150               3AZ
143168000143168               143168               170213KO     1400+00000+KO0000019297-0000019297-000000000+000002702-0000022000-0000000001+I20000000000+0000022000-Z
143168001143168495-056822     143168000078257568222INTEX MEGA CHILL 89cm  0000001000-00019297+00000+0001T   00019297+0000001334          1400 PM77871IC            3 Z
143169000143169               143169               170213KO     1400+00000+KO0000001752+0000001752+000000000+000000246+0000001990+0000000008+I20000000000+0000001990+Z
143169001143169252-000013     143169006001023488107CURTN-HOOK R6 ACETYLx500000002000+00000876+00000+0001T   00000876+0000001340          1400 PM7810               3AZ
143170000143170               143170               170213KO     1400+00000+KO0000003944+0000003944+000000000+000000553+0000004490+0000000007+I20000000000+0000004490+Z
143170001143170077-000348     143170006001023483287GIFT-BOWS 4,5cm 8PCE   0000001000+00001578+00000+0001T   00001578+0000001345          1400 PM7112               3AZ
143170002143170077-000452     143170006003000284986G/BAG METALLIC MED EMB 0000001000+00001490+00000+0001T   00001490+0000001345          1400 PM7112               3AZ
143170003143170071-005213     143170006001023690371CELLOTAPE 12mmx33m     0000001000+00000876+00000+0001T   00000876+0000001345          1400 PM7130               3AZ
143171000143171               143171               170213KO     1400+00000+KO0000024779+0000024779+000000000+000003471+0000028250+0000000000+I40000028250+0000000000+Z
143171001143171079-009702-D   143171008427973059354PAPER SIRIO A2 RED COL 0000001000+00001051+00000+0001T   00001051+0000001348          1400 PM7130               3AZ
143171002143171368-000099     143171006001023680259PLUSH DOG 23cm ASSTD   0000002000+00008771+00000+0001T   00008771+0000001348          1400 PM7745               3AZ
143171003143171079-006496     143171006003000160105GLITTER SHAKERS        0000001000+00001753+00000+0001T   00001753+0000001348          1400 PM7130               3AZ
143171004143171031-080508     143171006001023802415P/FRAME PL 22X11CM LOVE0000001000+00004385+00000+0001T   00004385+0000001348          1400 PM7510               3AZ
143171005143171112-116069     143171006009681820277TCS CARRIER BAG JUMBO  0000001000+00000048+00000+0001T   00000048+0000001348          1400 PM7090               3AZ
143172000143172               143172               170213KO     1400+00000+KO0000007763+0000007763+000000000+000001088+0000008851+0000000000+I40000008851+0000000000+Z
143172001143172079-006498     143172006001023836151GLITTER SET 10PCE      0000001000+00003507+00000+0001T   00003507+0000001400          1400 PM7130               3AZ
143172002143172006-000804     143172006003000574445STREAMERS 6-ROLLS 2.5cm0000001000+00001753+00000+0001T   00001753+0000001400          1400 PM7131               3AZ
143172003143172565-000085     143172006003000643332NOVELTY BEEDZ 10g      0000001000+00002455+00000+0001T   00002455+0000001400          1400 PM7745               3AZ
143172004143172112-116069     143172006009681820277TCS CARRIER BAG JUMBO  0000001000+00000048+00000+0001T   00000048+0000001400          1400 PM7090               3AZ
143173000143173               143173               170213KO     1400+00000+KO0000005699+0000005699+000000000+000000798+0000006497+0000000000+I40000006497+0000000000+Z
143173001143173087-002000     143173006001023592620HAIR TRIMMER SET 4pc   0000001000+00003507+00000+0001T   00003507+0000001402          1400 PM7200               3AZ
143173002143173046-000012-A   143173006003000208296BATTERIES H/POWER SZ:AA0000001000+00002192+00000+0001T   00002192+0000001402          1400 PM7312               3AZ
143174000143174               143174               170213KO     1400+00000+KO0000005082+0000005082+000000000+000000713+0000005795+0000000000+I40000005795+0000000000+Z
143174001143174903-000071     143174006001704001120SWT TOFFEE LIQURICE 35g0000001000+00000700+00000+0001T   00000700+0000001407          1400 PM7150               3AZ
143174002143174080-000133     143174006003000535613CARD&ENV MINI ASTD DSGN0000001000+00000437+00000+0001T   00000437+0000001407          1400 PM7112               3AZ
143174003143174079-001108     143174006003000082650ART+CRAFT SET ART ASSTD0000001000+00002192+00000+0001T   00002192+0000001407          1400 PM7130               3AZ
143174004143174566-000009     143174006003000180943STICKER-BOOK HOLOGRAM  0000001000+00001753+00000+0001T   00001753+0000001407          1400 PM7130               3AZ
143175000143175               143175               170213KO     1400+00000+KO0000036695+0000036695+000000000+000005142+0000041837+0000000000+I40000041837+0000000000+Z
143175001143175079-001002     143175006003000448715CANVAS A4 WOOD MOUNTED 0000001000+00002630+00000+0001T   00002630+0000001411          1400 PM7130               3AZ
143175002143175301-086007     143175006003000426706ORN OCC DAD WDN LETTERS0000001000+00004385+00000+0001T   00004385+0000001411          1400 PM7505               3AZ
143175004143175112-116069     143175006009681820277TCS CARRIER BAG JUMBO  0000001000+00000048+00000+0001T   00000048+0000001411          1400 PM7090               3AZ
143175005143175077-000452     143175006003000284986G/BAG METALLIC MED EMB 0000004000+00001490+00000+0001T   00001490+0000001411          1400 PM7112               3AZ
143175006143175036-005010     143175006002580008739COATHANGER KIDDIES PL  0000001000+00002630+00000+0001T   00002630+0000001411          1400 PM7212               3AZ
143175007143175030-000031-A   143175006003000457588PLAQUE W/WORDS ASSTD   0000001000+00004385+00000+0001T   00004823+0006471411          1400 PM7505               3AZ
143175008143175018-005009     143175006001023725608MUG W/PLUSH-BEAR LOVE  0000002000+00003507+00000+0001T   00003507+0000001411          1400 PM7515               3AZ
143175009143175018-000170     143175006001023775528MUG OCC. LOVE 2PC MINI 0000001000+00002192+00000+0001T   00002192+0000001411          1400 PM7515               3AZ
143175010143175018-005009     143175006001023725608MUG W/PLUSH-BEAR LOVE  0000001000+00003507+00000+0001T   00003507+0000001411          1400 PM7515               3AZ
143175011143175018-000136     143175006001023659026MUG OCC LOVE W/PLUSH   0000001000+00003507+00000+0001T   00003507+0000001411          1400 PM7515               3AZ
143175012143175080-000133     143175006003000535613CARD&ENV MINI ASTD DSGN0000001000+00000437+00000+0001T   00000437+0000001411          1400 PM7112               3AZ
143176000143176               143176               170213KO     1400+00000+KO0000007850+0000007850+000000000+000001100+0000008950+0000000000+I40000008950+0000000000+Z
143176001143176077-000383     143176006003000247943GIFT-BAG 11X14CM S/COL 0000001000+00000788+00000+0001T   00000788+0000001413          1400 PM7112               3AZ
143176002143176040-100010     143176006001023681676C/HOLDER VINTAGE ROUND 0000001000+00003507+00000+0001T   00003507+0000001413          1400 PM7510               3AZ
143176003143176039-080941     143176006001023669841CANDLE PILLAR WHT 7X7CM0000001000+00003507+00000+0001T   00003507+0000001413          1400 PM7510               3AZ
143176004143176112-116069     143176006009681820277TCS CARRIER BAG JUMBO  0000001000+00000048+00000+0001T   00000048+0000001413          1400 PM7090               3AZ
143177000143177               143177               170213KO     1400+00000+KO0000006187+0000006187+000000000+000000867+0000007054+0000000000+I40000007054+0000000000+Z
143177001143177018-050000     143177006003000412679MUG OCC LOVE TWIN BEAR 0000001000+00006139+00000+0001T   00006139+0000001415          1400 PM7515               3AZ
143177002143177112-116069     143177006009681820277TCS CARRIER BAG JUMBO  0000001000+00000048+00000+0001T   00000048+0000001415          1400 PM7090               3AZ
143178000143178               143178               170213KO     1400+00000+KO0000005044+0000005044+000000000+000000707+0000005751+0000000000+I40000005751+0000000000+Z
143178001143178306-000985     143178006003000559831FIRSTAID PLASTER 10PC  0000001000+00001490+00000+0001T   00001490+0000001418          1400 PM7200               3AZ
143178002143178200-000002     143178006925406821049BAG FLIP TOP 80PCE     0000001000+00002192+00000+0001T   00002192+0000001418          1400 PM7214               3AZ
143178003143178200-003019     143178006003000510856REFUSE BAGS 10PC D/STRN0000001000+00001314+00000+0001T   00001753+0008171418          1400 PM7214               3AZ
143178004143178112-116069     143178006003000535064TCS CARRIER BAG JUMBO  0000001000+00000048+00000+0001T   00000048+0000001418          1400 PM7090               3AZ
143179000143179               143179               170213KO     1400+00000+KO0000002103+0000002103+000000000+000000295+0000002398+0000000000+I40000002398+0000000000+Z
143179001143179903-000111     143179006001704006378SWT LIQUORICE-TWISTS   0000001000+00001227+00000+0001T   00001227+0000001422          1400 PM7150               3AZ
143179002143179077-000150-D   143179006003000054343GIFT-WRAP CELLPHANE CLR0000001000+00000876+00000+0001T   00000876+0000001422          1400 PM7112               3AZ
143180000143180               143180               170213KO     1400+00000+KO0000005260+0000005260+000000000+000000737+0000005997+0000000000+I40000005997+0000000000+Z
143180001143180031-005853     143180006003000442416P/FRAME WDN TWIN HEARTS0000001000+00003507+00000+0001T   00003507+0000001433          1400 PM7510               3AZ
143180002143180077-000309     143180006001023608604GIFT-BAG 25X32CM GLOSS 0000001000+00001753+00000+0001T   00001753+0000001433          1400 PM7112               3AZ
143181000143181               143181               170213KO     1400+00000+KO0000001490+0000001490+000000000+000000209+0000001690+0000000009+I20000000000+0000001690+Z
143181001143181077-000452     143181006003000284986G/BAG METALLIC MED EMB 0000001000+00001490+00000+0001T   00001490+0000001434          1400 PM7112               3AZ
143182000143182               143182               170213KO     1400+00000+KO0000001753+0000001753+000000000+000000246+0000001990+0000000009+I20000000000+0000001990+Z
143182001143182200-003024     143182006001023657299REFUSE BAGS 20PCE BLACK0000001000+00001753+00000+0001T   00001753+0000001436          1400 PM7214               3AZ
143183000143183               143183               170213KO     1400+00000+KO0000030698+0000030698+000000000+000004299+0000034997+0000000000+I40000034997+0000000000+Z
143183001143183077-000299-A   143183006003000670888GIFT-BAG PAPER JMB LOVE0000001000+00001753+00000+0001T   00001753+0000001439          1400 PM7112               3AZ
143183002143183496-058431     143183000078257584314POOL SOFT-SIDE 188x46cm0000001000+00024560+00000+0001T   00024560+0000001439          1400 PM7787               3AZ
143183003143183368-000001     143183006003000097982Plush Bear 25cm        0000001000+00004385+00000+0001T   00004385+0000001439          1400 PM7745               3AZ
143184000143184               143184               170213KO     1400+00000+KO0000001314+0000001314+000000000+000000184+0000001490+0000000008+I20000000000+0000001490+Z
143184001143184089-000098     143184006003000677443KEY CHAIN OPENER ASSTD 0000001000+00001314+00000+0001T   00001314+0000001441          1400 PM7205               3AZ
143185000143185               143185               170213KO     1400+00000+KO0000004868+0000004868+000000000+000000683+0000005551+0000000000+I40000005551+0000000000+Z
143185001143185200-000020     143185006925406841030BAG ZIPPERSEAL 25PC    0000001000+00002192+00000+0001T   00002192+0000001513          1400 PM7214               3AZ
143185002143185200-000025-A   143185006925406841054BAG ZIPPERSEAL 15PC    0000001000+00002192+00000+0001T   00002192+0000001513          1400 PM7214               3AZ
143185003143185006-000170-B   143185006003000608300BALLOONS 1PC L/GREEN   0000001000+00000218+00000+0001T   00000218+0000001513          1400 PM7131               3AZ
143185004143185006-000170-K   143185006003000609284BALLOONS 1PC PURPLE    0000001000+00000218+00000+0001T   00000218+0000001513          1400 PM7131               3AZ
143185005143185112-116069     143185006009681820277TCS CARRIER BAG JUMBO  0000001000+00000048+00000+0001T   00000048+0000001513          1400 PM7090               3AZ
143186000143186               143186               170213KO     1400+00000+KO0000003067+0000003067+000000000+000000430+0000003497+0000000000+I40000003497+0000000000+Z
143186001143186046-000012     143186006904708013062BATTERIES AA  CARD-OF-40000001000+00001314+00000+0001T   00001314+0000001521          1400 PM7312               3AZ
143186002143186048-071510     143186006003000061716LIGHT B/O MAGIC BULB   0000001000+00001753+00000+0001T   00002630+0008191521          1400 PM7305               3AZ
143187000143187               143187               170213KO     1400+00000+KO0000002630+0000002630+000000000+000000369+0000002990+0000000009+I20000000000+0000002990+Z
143187001143187077-000270     143187006003000395453GIFT-BAG PPR JMB 33X45 0000001000+00002630+00000+0001T   00002630+0000001555          1400 PM7112               3AZ
143188000143188               143188               170213KO     1400+00000+KO0000011450+0000011450+000000000+000001604+0000013050+0000000004+I20000000000+0000013050+Z
143188001143188368-000637     143188006001023874092PLUSH BEAR SLEEPING LOV0000001000+00011402+00000+0001T   00012279+0006471558          1400 PM7745               3AZ
143188002143188112-116069     143188006009681820277TCS CARRIER BAG JUMBO  0000001000+00000048+00000+0001T   00000048+0000001558          1400 PM7090               3AZ
143189000143189               143189               170213KO     1400+00000+KO0000005260+0000005260+000000000+000000738+0000005990+0000000008+I20000000000+0000005990+Z
143189001143189036-005010     143189006002580008739COATHANGER KIDDIES PL  0000002000+00002630+00000+0001T   00002630+0000001559          1400 PM7212               3AZ
143190000143190               143190               170213KO     1400+00000+KO0000002630+0000002630+000000000+000000369+0000002999+0000000000+I40000002999+0000000000+Z
143190001143190077-000270     143190006003000395453GIFT-BAG PPR JMB 33X45 0000001000+00002630+00000+0001T   00002630+0000001602          1400 PM7112               3AZ
143191000143191               143191               170213KO     1400+00000+KO0000041257+0000041257+000000000+000005783+0000047040+0000000000+I20000000000+0000047040+Z
143191001143191079-013032-D   143191006003000389643RIBBONS                0000002000+00002630+00000+0001T   00002630+0000001642          1400 PM7130               3AZ
143191002143191079-006498     143191006001023836151GLITTER SET 10PCE      0000001000+00003507+00000+0001T   00003507+0000001642          1400 PM7130               3AZ
143191003143191071-001102     143191006003000274598MARKER PERM MED 2PCE   0000001000+00001753+00000+0001T   00001753+0000001642          1400 PM7130               3AZ
143191004143191079-000344     143191006001023904010FELT-TIP PENS 12PCE    0000001000+00002630+00000+0001T   00002630+0000001642          1400 PM7130               3AZ
143191005143191071-001124     143191006001023802873MARKERS WHITEBOARD 3PCE0000001000+00002630+00000+0001T   00002630+0000001642          1400 PM7130               3AZ
143191006143191567-010161     143191009780000008516BOOK TOP ASSTD MILLS   0000001000+00005262+00000+0001T   00005262+0000001642          1400 PM7757               3AZ
143191007143191079-000123     143191006003000589746ART+CRAFT ENGRAVING ART0000001000+00002630+00000+0001T   00002630+0000001642          1400 PM7130               3AZ
143191008143191565-000043     143191006003000109562NOVELTY BALL FUNNY FACE0000001000+00001753+00000+0001T   00001753+0000001642          1400 PM7745               3AZ
143191009143191089-000018     143191006003000176724KEY CHAIN INSPIRATION  0000001000+00003507+00000+0001T   00003507+0000001642          1400 PM7205               3AZ
143191010143191080-000101     143191006003000236732CARD&ENVLPE FEMALE     0000001000+00001753+00000+0001T   00001753+0000001642          1400 PM7112               3AZ
143191011143191077-000454     143191006003000285266G/BAG METALLIC LRG EMB 0000001000+00001753+00000+0001T   00001753+0000001642          1400 PM7112               3AZ
143191012143191112-116069     143191006009681820277TCS CARRIER BAG JUMBO  0000001000+00000048+00000+0001T   00000048+0000001642          1400 PM7090               3AZ
143191013143191079-000198     143191006003000542475ART+CRAFT SET 66PCE    0000001000+00008771+00000+0001T   00008771+0000001642          1400 PM7130               3AZ
143192000143192               143192               170213KO     1400+00000+KO0000011398+0000011398+000000000+000001597+0000012995+0000000000+I40000012995+0000000000+Z
143192001143192903-000923     143192008714786126428SWT TURTLE DUO SPRAY   0000001000+00001314+00000+0001T   00001753+0008191646          1400 PM7150               3AZ
143192003143192007-000614     143192006001023768667DIARY W/LOCK+PEN LOVE  0000001000+00005262+00000+0001T   00005262+0000001646          1400 PM7130               3AZ
143192004143192077-000270     143192006003000395453GIFT-BAG PPR JMB 33X45 0000001000+00002630+00000+0001T   00002630+0000001646          1400 PM7112               3AZ
143192005143192080-000127     143192006003000424351VALENTINES DAY 36x24CM 0000001000+00002192+00000+0001T   00002192+0000001646          1400 PM7112               3AZ
143193000143193               143193               170213KO     1400+00000+KO0000029341+0000029341+000000000+000004109+0000033450+0000000000+I40000033450+0000000000+Z
143193001143193466-000005     143193006003000508174PLAY-TENT POP-UP GIRL  0000001000+00021928+00000+0001T   00021928+0000001649          1400 PM7785               3AZ
143193002143193562-000202     143193006003000157730EDU PUSH-IN WDN PUZZLE 0000001000+00004385+00000+0001T   00004385+0000001649          1400 PM7755               3AZ
143193003143193903-000927     143193000686464546003SWT NOVELTY LOLLY 17g  0000001000+00002192+00000+0001T   00002192+0000001649          1400 PM7150               3AZ
143193004143193903-000892     143193008693029700420SWT NOVELTY CHOCO CREAM0000001000+00000788+00000+0001T   00000788+0000001649          1400 PM7150               3AZ
143193005143193112-116069     143193006009681820277TCS CARRIER BAG JUMBO  0000001000+00000048+00000+0001T   00000048+0000001649          1400 PM7090               3AZ
143194000143194               143194               170213KO     1400+00000+KO0000002104+0000002104+000000000+000000295+0000002390+0000000009+I20000000000+0000002390+Z
143194001143194903-000090     143194006009826020821SWT GS CHOCO COINS 60g 0000001000+00002104+00000+0001T   00002104+0000001649          1400 PM7150               3AZ
143195000143195               143195               170213KO     1400+00000+KO0000001753+0000001753+000000000+000000246+0000001990+0000000009+I20000000000+0000001990+Z
143195001143195077-000299-A   143195006003000670888GIFT-BAG PAPER JMB LOVE0000001000+00001753+00000+0001T   00001753+0000001703          1400 PM7112               3AZ
143196000143196               143196               170213KO     1400+00000+KO0000001753+0000001753+000000000+000000246+0000001990+0000000009+I20000000000+0000001990+Z
143196001143196142-000810     143196006003000429844GLOVES LATEX PRNT CUFFS0000001000+00001753+00000+0001T   00001753+0000001704          1400 PM7810               3AZ
143197000143197               143197               170213KO     1400+00000+KO0000001490+0000001490+000000000+000000209+0000001690+0000000009+I20000000000+0000001690+Z
143197001143197077-000304     143197006001023483232GIFT-BAG 25X32CM E/DAY 0000001000+00001490+00000+0001T   00001490+0000001707          1400 PM7112               3AZ
143198000143198               143198               170213KO     1400+00000+KO0000004031+0000004031+000000000+000000566+0000004597+0000000000+I40000004597+0000000000+Z
143198001143198039-001023     143198006003000466337CANDLE TEA-LITE METALIC0000001000+00001753+00000+0001T   00001753+0000001720          1400 PM7510               3AZ
143198002143198039-000026     143198006001023551610C/TAPERED 25CM M/RED   0000001000+00001051+00000+0001T   00001051+0000001720          1400 PM7510               3AZ
143198003143198903-000518     143198006001704012782SWT STRAWS S/BERRY 100g0000001000+00001227+00000+0001T   00001227+0000001720          1400 PM7150               3AZ
143199000143199               143199               170213KO     1400+00000+KO0000006535+0000006535+000000000+000000916+0000007450+0000000001+I20000000000+0000007450+Z
143199001143199018-000127     143199006001023380289MUG OCC STRAIGHT LOVE  0000002000+00001578+00000+0001T   00001753+0006471723          1400 PM7515               3AZ
143199002143199080-000124     143199006003000297733CARD & ENV VALENTINES  0000001000+00001578+00000+0001T   00001578+0000001723          1400 PM7112               3AZ
143199003143199080-000113     143199006003000237449CARD&ENVLPE - LOVE     0000001000+00001753+00000+0001T   00001753+0000001723          1400 PM7112               3AZ
143199005143199112-116069     143199006009681820277TCS CARRIER BAG JUMBO  0000001000+00000048+00000+0001T   00000048+0000001723          1400 PM7090               3AZ
143200000143200               143200               170213KO     1400+00000+KO0000003507+0000003507+000000000+000000491+0000003990+0000000008+I20000000000+0000003990+Z
143200001143200077-000932     143200006003000409808G/WRAP 700mmx5m PATTERN0000001000+00003507+00000+0001T   00003507+0000001749          1400 PM7112               3AZ
143201000143201               143201               170213KO     1400+00000+KO0000002192+0000002192+000000000+000000307+0000002499+0000000000+I40000002499+0000000000+Z
143201001143201080-000127     143201006003000424351VALENTINES DAY 36x24CM 0000001000+00002192+00000+0001T   00002192+0000001752          1400 PM7112               3AZ
143202000143202               143202               170213KO     1400+00000+KO0000000048+0000000048+000000000+000000007+0000000050+0000000005+I20000000000+0000000050+Z
143202001143202112-116069     143202006009681820277TCS CARRIER BAG JUMBO  0000001000+00000048+00000+0001T   00000048+0000001752          1400 PM7090               3AZ
143203000143203               143203               170213KO     1400+00000+KO0000003165+0000003165+000000000+000000444+0000003600+0000000009+I20000000000+0000003600+Z
143203001143203071-008222     143203006003000418459P/BAG CANVAS ASSTD COL 0000001000+00003069+00000+0001T   00003069+0000001754          1400 PM7130               3AZ
143203002143203112-116069     143203006009681820277TCS CARRIER BAG JUMBO  0000002000+00000048+00000+0001T   00000048+0000001754          1400 PM7090               3AZ
143204000143204               143204               170213KO     1400+00000+KO0000004294+0000004294+000000000+000000602+0000004890+0000000006+I20000000000+0000004890+Z
143204001143204566-000992     143204006001023600639STICKERS GLOW-IN-DARK  0000001000+00001314+00000+0001T   00001314+0000001759          1400 PM7130               3AZ
143204002143204565-004101     143204006003000548033BALL BOUNCING EGG      0000002000+00001490+00000+0001T   00001490+0000001759          1400 PM7745               3AZ
143205000143205               143205               170213KO     1400+00000+KO0000007936+0000007936+000000000+000001113+0000009049+0000000000+I40000009049+0000000000+Z
143205001143205301-085004     143205006003000420469ORN LOVE PLAQUE 21X10CM0000002000+00003507+00000+0001T   00003946+0006471802          1400 PM7505               3AZ
143205002143205112-116069     143205006009681820277TCS CARRIER BAG JUMBO  0000001000+00000048+00000+0001T   00000048+0000001802          1400 PM7090               3AZ
143205003143205080-000133     143205006003000535613CARD&ENV MINI ASTD DSGN0000002000+00000437+00000+0001T   00000437+0000001802          1400 PM7112               3AZ
143206000143206               143206               170213KO     1400+00000+KO0000001490+0000001490+000000000+000000209+0000001690+0000000009+I20000000000+0000001690+Z
143206001143206077-000452     143206006003000284986G/BAG METALLIC MED EMB 0000001000+00001490+00000+0001T   00001490+0000001804          1400 PM7112               3AZ
143207000143207               143207               170213KO     1400+00000+KO0000010696+0000010696+000000000+000001499+0000012190+0000000005+I20000000000+0000012190+Z
143207001143207301-001127     143207006946859290169ORN FOUNTAIN CAS/W.FALL0000001000+00006139+00000+0001T   00006139+0000001809          1400 PM75052IC            3AZ
143207002143207019-071598     143207006001023693228PEBBLES GLS 250g WHITE 0000001000+00001753+00000+0001T   00001753+0000001809          1400 PM7510               3AZ
143207003143207046-000012     143207006904708013062BATTERIES AA  CARD-OF-40000001000+00001314+00000+0001T   00001314+0000001809          1400 PM7312               3AZ
143207004143207077-000327     143207006001023677686GIFT-BAG 25X32CM E/D BA0000001000+00001490+00000+0001T   00001490+0000001809          1400 PM7112               3AZ
A17021300                                          08144927KOSLAVE 3                       1IC1IC
A17021301                                          09042865KOSLAVE 3                       PM73IC
A17021302                                          09540748KOSLAVE 3                       PM71IC
A17021303                                          18050394KOSLAVE 3                       PM72IC
B14315600                                          170213KO077-000454     13055917SLAVE 3     PM72IC0000002000+0000001000+0000000000000+
B14316600                                          170213KO903-000077     13245247SLAVE 3     PM72IC0000410000+0000010000+0000000000000+
B14320700                                          170213KO301-001127     18070867SLAVE 3     PM72IC0000002000+0000001000+0000000000000+
C14312300                                          170213KO018-000127     09191806SLAVE 3     PM71IC0000000000+0000000000+0040000002000+
C14314400                                          170213KO903-000087     12353120SLAVE 3     PM71IC0000000000+0000000000+0040000001000+
C14316300                                          170213KO001-091415     13201930SLAVE 3     PM71IC0000000000+0000000000+0040000001000+
C14317500                                          170213KO079-001002     14090106SLAVE 3     PM71IC0000000000+0000000000+0030000001000+
C14319200                                          170213KO080-000113     16445922SLAVE 3     PM71IC0000000000+0000000000+0020000001000+
C14319900                                          170213KO077-000322     17225546SLAVE 3     PM71IC0000000000+0000000000+0040000001000+
M17021391                              CASH        KOSLAVE 3                       Z-REPORT No.   639TOTAL (Sales - Refunds)           6874.55       CASH TO BE BANKED                 2232.30       DEBIT CARDS                          0.00       CREDIT CARDS                      4642.35       Z-READING                         6874.55       AIRTIME DEBIT CARD SALES             0.00       AIRTIME CARD SALES                   0.00       OVERS/UNDERS                         0.10       AIRTIME CASH SALES                   0.00       GIFT CARDS                           0.00       GIFT CARD CASH SALES                 0.00       T O T A L  CASH PAYOUTS              0.00                                                                                                                                                                                                                                                                                                                                                      Z
M17021392                              CASH        KOABSENT                                                                                                                                                                                          ANNUAL LEAVE                                                                                                                                                                                    DAY OFF                                                                                                                                                                                         COMMENTS                                                                                                                                                                                                                                                                                                                                                                                       Z
Y17021300                                          KO00000000622512+000084
ZKO17021321233 SLAVE 3      SALES DATA                     NEXT INVOICE NO.  143208 0639
X KO Slave 3 First invoice 143123 170213 Last invoice 143207 170213 Next invoice 143208 Total number of records 000000327 clbackup completed 21:23:54
