510815000510815               510815               170213KP     1400+00000+KP0000001490+0000001490+000000000+000000209+0000001690+0000000009+I20000000000+0000001690+Z
510815001510815079-006494     510815006003000159864GLITTER GLUE 5PCE 11cm 0000001000+00001490+00000+0001T   00001490+0000000903          1400 UW6130               2AZ
510816000510816               510816               170213KP     1400+00000+KP0000007049+0000007049+000000000+000000987+0000008030+0000000006+I20000000000+0000008030+Z
510816001510816072-020264     510816006001023602565PET DOG CLEAN-UP BAGS  0000002000+00003507+00000+0001T   00003507+0000000905          1400 UW6870               2AZ
510816002510816112-116038     510816006003000534906TCS CARRIER BAG MIDI   0000001000+00000035+00000+0001T   00000035+0000000905          1400 UW6090               2AZ
510817000510817               510817               170213KP     1400+00000+KP0000009645+0000009645+000000000+000001351+0000010990+0000000006+I20000000000+0000010990+Z
510817001510817072-000350     510817006003000304882PET CAT TOY PLUSH W/BEL0000002000+00003069+00000+0001T   00003069+0000000937          1400 UW6870               2AZ
510817002510817072-020278     510817006003000024100PET CAT LITTER PAN PL  0000001000+00003507+00000+0001T   00003507+0000000937          1400 UW6870               2AZ
510818000510818               510818               170213KP     1400+00000+KP0000009243+0000009243+000000000+000001295+0000010530+0000000008+I20000000000+0000010530+Z
510818001510818369-001010     510818006001023864222BATH VINYL DUCK 4PC    0000001000+00002192+00000+0001T   00002192+0000000941          1400 UW6745               2AZ
510818002510818368-000021     510818006003000672141PLUSH DINOSAUR 27cm    0000001000+00007016+00000+0001T   00007016+0000000941          1400 UW6745               2AZ
510818003510818112-116038     510818006009681820246TCS CARRIER BAG MIDI   0000001000+00000035+00000+0001T   00000035+0000000941          1400 UW6090               2AZ
510819000510819               510819               170213KP     1400+00000+KP0000001402+0000001402+000000000+000000197+0000001590+0000000009+I20000000000+0000001590+Z
510819001510819304-001204     510819006001023737984FLOWER OCC. TEDDY/ROSES0000001000+00001402+00000+0001T   00001490+0006471036          1400 UW6510               2AZ
510820000510820               510820               170213KP     1400+00000+KP0000000700+0000000700+000000000+000000098+0000000790+0000000008+I20000000000+0000000790+Z
510820001510820007-000104     510820006009685854865BK COVER BRWN KRFT ROLL0000002000+00000350+00000+0001T   00000350+0000001039          1400 UW6130               2AZ
510821000510821               510821               170213KP     1400+00000+KP0000001314+0000001314+000000000+000000184+0000001490+0000000008+I20000000000+0000001490+Z
510821001510821903-000194     510821006009826020616SWT CHOC RP LOLLY 25G  0000001000+00001314+00000+0001T   00001314+0000001041          1400 UW6150               2AZ
510822000510822               510822               170213KP     1400+00000+KP0000001753+0000001753+000000000+000000246+0000001990+0000000009+I20000000000+0000001990+Z
510822001510822306-000981     510822006003000559718FIRSTAID PLASTER 1PC   0000001000+00001753+00000+0001T   00001753+0000001042          1400 UW6200               2AZ
510823000510823               510823               170213KP     1400+00000+KP0000002364+0000002364+000000000+000000333+0000002690+0000000007+I20000000000+0000002690+Z
510823001510823903-000200     510823006009826020234SWT CHOC RP CHOCO 23G  0000003000+00000788+00000+0001T   00000788+0000001047          1400 UW6150               2AZ
510824000510824               510824               170213KP     1400+00000+KP0000005260+0000005260+000000000+000000737+0000005997+0000000000+I40000005997+0000000000+Z
510824001510824105-007015     510824006001023168221CONTAINER PL ROUND     0000001000+00003507+00000+0001T   00003507+0000001051          1400 UW6210               2AZ
510824002510824077-000301     510824008010410010188BAG LRG 25X32CM B/DAY  0000001000+00001753+00000+0001T   00001753+0000001051          1400 UW6112               2AZ
510825000510825               510825               170213KP     1400+00000+KP0000009195+0000009195+000000000+000001290+0000010485+0000000000+I40000010485+0000000000+Z
510825001510825304-001011     510825006001023806727FLWR ROSE RED W/BEAR   0000015000+00000613+00000+0001T   00000788+0006471110          1400 UW6510               2AZ
510826000510826               510826               170213KP     1400+00000+KP0000003506+0000003506+000000000+000000492+0000003990+0000000008+I20000000000+0000003990+Z
510826001510826077-000011-X   510826006001023809827TISSUE-WRAP SILVER 10PC0000001000+00001753+00000+0001T   00001753+0000001356          1400 UW6112               2AZ
510826002510826077-000316     510826006001023609731GIFT-BAG 25X32CM MATT  0000001000+00001753+00000+0001T   00001753+0000001356          1400 UW6112               2AZ
510827000510827               510827               170213KP     1400+00000+KP0000000876+0000000876+000000000+000000123+0000000990+0000000009+I20000000000+0000000990+Z
510827001510827033-005930     510827006001023678423PINS STRAIGHT 20g  CARD0000001000+00000876+00000+0001T   00000876+0000001359          1400 UW6200               2AZ
510828000510828               510828               170213KP     1400+00000+KP0000005118+0000005118+000000000+000000718+0000005830+0000000006+I20000000000+0000005830+Z
510828001510828018-005009     510828006001023725608MUG W/PLUSH-BEAR LOVE  0000001000+00003507+00000+0001T   00003507+0000001400          1400 UW6515               2AZ
510828002510828112-116038     510828006009681820246TCS CARRIER BAG MIDI   0000001000+00000035+00000+0001T   00000035+0000001400          1400 UW6090               2AZ
510828003510828903-000200     510828006009826020234SWT CHOC RP CHOCO 23G  0000002000+00000788+00000+0001T   00000788+0000001400          1400 UW6150               2AZ
510829000510829               510829               170213KP     1400+00000+KP0000006840+0000006840+000000000+000000958+0000000000+0000000000+ 00000000000+0000000000+Z
510829001510829031-000902-C   510829006001023726315P/FRAME WDN OAK 13X18CM0000001000+00005262+00000+0001T   00005262+000000              1400 UW65101IC            2 Z
510829002510829077-000303     510829006001023593757GIFT-BAG PAPER MED     0000001000+00001578+00000+0001T   00001578+000000              1400 UW61121IC            2 Z
510830000510830               510830               170213KP     1400+00000+KP0000008890+0000008890+000000000+000001247+0000010137+0000000000+I40000010137+0000000000+Z
510830001510830004-071215     510830006003000459360MOBILE SELFI STICK 80cm0000001000+00007016+00000+0001T   00007016+0000001424          1400 UW6310               2AZ
510830002510830304-001204     510830006001023737984FLOWER OCC. TEDDY/ROSES0000001000+00001402+00000+0001T   00001490+0006471424          1400 UW6510               2AZ
510830003510830080-000133-A   510830006003000647019MINI VALENTINES CARD   0000001000+00000437+00000+0001T   00000437+0000001424          1400 UW6112               2AZ
510830004510830112-116038     510830006003000534906TCS CARRIER BAG MIDI   0000001000+00000035+00000+0001T   00000035+0000001424          1400 UW6090               2AZ
510831000510831               510831               170213KP     1400+00000+KP0000001753+0000001753+000000000+000000246+0000001990+0000000009+I20000000000+0000001990+Z
510831001510831077-000354     510831006003000139224GIFT-BAG 25X32CM H/MADE0000001000+00001753+00000+0001T   00001753+0000001427          1400 UW6112               2AZ
510832000510832               510832               170213KP     1400+00000+KP0000001578+0000001578+000000000+000000221+0000001790+0000000009+I20000000000+0000001790+Z
510832001510832077-000303     510832006001023593757GIFT-BAG PAPER MED     0000001000+00001578+00000+0001T   00001578+0000001427          1400 UW6112               2AZ
510833000510833               510833               170213KP     1400+00000+KP0000001664+0000001664+000000000+000000234+0000001890+0000000008+I20000000000+0000001890+Z
510833001510833077-000314     510833006003000181148GIFT-BAG 11X14CM MATT  0000001000+00000876+00000+0001T   00000876+0000001431          1400 UW6112               2AZ
510833002510833077-000383     510833006003000247943GIFT-BAG 11X14CM S/COL 0000001000+00000788+00000+0001T   00000788+0000001431          1400 UW6112               2AZ
510834000510834               510834               170213KP     1400+00000+KP0000000525+0000000525+000000000+000000074+0000000590+0000000009+I20000000000+0000000590+Z
510834001510834903-000155     510834006009803374435SWT LOLLY I LUV U HEART0000001000+00000525+00000+0001T   00000525+0000001432          1400 UW6150               2AZ
510835000510835               510835               170213KP     1400+00000+KP0000033655+0000033655+000000000+000004715+0000038370+0000000000+I40000038370+0000000000+Z
510835001510835112-116053     510835006006438002399TCS CARRIER BAG 38L    0000001000+00000069+00000+0001T   00000069+0000001435          1400 UW6090               2AZ
510835002510835466-000073     510835006003000669127BALL SOCCER MESH 15.2cm0000001000+00003507+00000+0001T   00003507+0000001435          1400 UW6785               2AZ
510835003510835077-000902     510835006003000410569G/WRAP 700mmx1m BBY/KID0000001000+00001753+00000+0001T   00001753+0000001435          1400 UW6112               2AZ
510835004510835077-000115     510835006001023834225WRAP METALLIC 700mmx1m 0000001000+00001753+00000+0001T   00001753+0000001435          1400 UW6112               2AZ
510835005510835103-000072     510835006001023618238BASKET RECT 25x16x6cm  0000001000+00003069+00000+0001T   00003069+0000001435          1400 UW6300               2AZ
510835006510835077-000315     510835006003000181186GIFT-BAG 20x28cm MATT  0000001000+00001578+00000+0001T   00001578+0000001435          1400 UW6112               2AZ
510835007510835264-000925-351 510835006003000642205BURAGO 1:64 FERRARI    0000001000+00004385+00000+0001T   00006139+0008131435          1400 UW6710               2AZ
510835008510835077-000349-B   510835006001023908315G/RIBBON 3ROLLS 12BOWS 0000001000+00002630+00000+0001T   00002630+0000001435          1400 UW6112               2AZ
510835009510835562-006269     510835006001023658647BOARD EASY-WRITER+PEN  0000001000+00014911+00000+0001T   00014911+0000001435          1400 UW6755               2AZ
510836000510836               510836               170213KP     1400+00000+KP0000003506+0000003506+000000000+000000492+0000003990+0000000008+I20000000000+0000003990+Z
510836001510836009-001451     510836006001023695970MELAMINE S/BOWL 15cm   0000001000+00001753+00000+0001T   00001753+0000001439          1400 UW6210               2AZ
510836002510836903-000912     510836006009802868461SWT GUM TAPE HOT WHEELS0000001000+00001753+00000+0001T   00001753+0000001439          1400 UW6150               2AZ
510837000510837               510837               170213KP     1400+00000+KP0000004385+0000004385+000000000+000000614+0000004990+0000000009+I20000000000+0000004990+Z
510837001510837031-005840     510837006001023481412P/FRAME-CLIP 30X40CM   0000001000+00004385+00000+0001T   00004385+0000001439          1400 UW6510               2AZ
510838000510838               510838               170213KP     1400+00000+KP0000003507+0000003507+000000000+000000491+0000003998+0000000000+I40000003998+0000000000+Z
510838001510838018-000136     510838006001023659026MUG OCC LOVE W/PLUSH   0000001000+00003507+00000+0001T   00003507+0000001443          1400 UW6515               2AZ
510839000510839               510839               170213KP     1400+00000+KP0000001753+0000001753+000000000+000000246+0000001990+0000000009+I20000000000+0000001990+Z
510839001510839046-000014-A   510839004897006177708BATTERIES SIZE:AAA 8PCE0000001000+00001753+00000+0001T   00001753+0000001443          1400 UW6312               2AZ
510840000510840               510840               170213KP     1400+00000+KP0000007487+0000007487+000000000+000001050+0000008537+0000000000+I40000008537+0000000000+Z
510840001510840077-000115-B   510840006003000181025GIFT-WRAP PPR 700MMX2M 0000001000+00002630+00000+0001T   00002630+0000001451          1400 UW6112               2AZ
510840002510840080-000127     510840006003000424351VALENTINES DAY 36x24CM 0000001000+00002192+00000+0001T   00002192+0000001451          1400 UW6112               2AZ
510840003510840077-000270     510840006003000395453GIFT-BAG PPR JMB 33X45 0000001000+00002630+00000+0001T   00002630+0000001451          1400 UW6112               2AZ
510840004510840112-116038     510840006003000534906TCS CARRIER BAG MIDI   0000001000+00000035+00000+0001T   00000035+0000001451          1400 UW6090               2AZ
510841000510841               510841               170213KP     1400+00000+KP0000001753+0000001753+000000000+000000246+0000001990+0000000009+I20000000000+0000001990+Z
510841001510841002-000746     510841006003000463305GRATER 3-ASSTD COLOURS 0000001000+00001753+00000+0001T   00001753+0000001452          1400 UW6300               2AZ
510842000510842               510842               170213KP     1400+00000+KP0000042564+0000042564+000000000+000005968+0000048532+0000000000+I40000048532+0000000000+Z
510842001510842112-116069     510842006009681820277TCS CARRIER BAG JUMBO  0000001000+00000048+00000+0001T   00000048+0000001458          1400 UW6090               2AZ
510842002510842567-010161     510842009780000008516BOOK TOP ASSTD MILLS   0000001000+00005262+00000+0001T   00005262+0000001458          1400 UW6757               2AZ
510842003510842089-000192-A   510842006001023901774KEY-CHAIN ACRYLIC      0000001000+00000876+00000+0001T   00000876+0000001458          1400 UW6205               2AZ
510842004510842077-000270     510842006003000395453GIFT-BAG PPR JMB 33X45 0000001000+00002630+00000+0001T   00002630+0000001458          1400 UW6112               2AZ
510842005510842024-000042     510842006002580009255M/CUP MINI 30ML H/HOUSE0000001000+00002192+00000+0001T   00002192+0000001458          1400 UW6300               2AZ
510842006510842301-085004     510842006003000420469ORN LOVE PLAQUE 21X10CM0000001000+00003507+00000+0001T   00003946+0006471458          1400 UW6505               2AZ
510842007510842048-000865     510842006003000371433TORCH KEY CHAIN 5LED   0000001000+00002630+00000+0001T   00002630+0000001458          1400 UW6305               2AZ
510842008510842204-000009     510842006003000577200MEMO HOLDER CUPCAKE    0000001000+00000876+00000+0001T   00001490+0008131458          1400 UW6300               2AZ
510842009510842002-000652     510842006001023553188M/SPOON WDN 3PC H/HOUSE0000001000+00003069+00000+0001T   00003069+0000001458          1400 UW6300               2AZ
510842010510842566-000004     510842006003000062270STICKER BOOK ABC/BORDER0000001000+00002630+00000+0001T   00002630+0000001458          1400 UW6130               2AZ
510842011510842007-000235     510842006003000134434LABELS RECTANGULAR 60pc0000001000+00000876+00000+0001T   00000876+0000001458          1400 UW6130               2AZ
510842012510842133-000034     510842006001023559586OVEN GLOVE & POTHOLDER 0000001000+00002630+00000+0001T   00002630+0000001458          1400 UW6212               2AZ
510842013510842078-000025     510842008887013700064SUPERGLUE 3g 1PCE CARD 0000001000+00000876+00000+0001T   00000876+0000001458          1400 UW6810               2AZ
510842014510842039-001023     510842006003000466337CANDLE TEA-LITE METALIC0000001000+00001753+00000+0001T   00001753+0000001458          1400 UW6510               2AZ
510842015510842464-000107     510842000073854318089PLAY-CARDS 2nd (SINGLE)0000001000+00003069+00000+0001T   00003069+0000001458          1400 UW6785               2AZ
510842016510842027-783008     510842006001246334595SCOURERS FOAM MAGIC    0000001000+00001402+00000+0001T   00001402+0000001458          1400 UW6212               2AZ
510842017510842266-001302     510842006001023331892MARBLES 16MM 45PC      0000001000+00001227+00000+0001T   00001227+0000001458          1400 UW6710               2AZ
510842018510842088-000013     510842006001023797131AIR-FRESH GEL TWIST ASS0000001000+00001753+00000+0001T   00001753+0000001458          1400 UW6212               2AZ
510842019510842046-000014     510842006001023725387BATTERIES SIZE:AAA 4PCE0000001000+00001139+00000+0001T   00001139+0000001458          1400 UW6312               2AZ
510842020510842306-000021     510842006001023169433EARBUDS 100PCE IN BAG  0000001000+00000613+00000+0001T   00000613+0000001458          1400 UW6200               2AZ
510842021510842903-000194     510842006009826020616SWT CHOC RP LOLLY 25G  0000001000+00001314+00000+0001T   00001314+0000001458          1400 UW6150               2AZ
510842022510842080-000127     510842006003000424351VALENTINES DAY 36x24CM 0000001000+00002192+00000+0001T   00002192+0000001458          1400 UW6112               2AZ
510843000510843               510843               170213KP     1400+00000+KP0000002630+0000002630+000000000+000000369+0000002990+0000000009+I20000000000+0000002990+Z
510843001510843077-000456     510843006003000285549G/BAG METALLIC JMB EMB 0000001000+00002630+00000+0001T   00002630+0000001458          1400 UW6112               2AZ
510844000510844               510844               170213KP     1400+00000+KP0000001490+0000001490+000000000+000000209+0000001699+0000000000+I40000001699+0000000000+Z
510844001510844079-000512     510844006001023635853CRAYONS WAX 12-COLOUR  0000001000+00001490+00000+0001T   00001490+0000001502          1400 UW6130               2AZ
510845000510845               510845               170213KP     1400+00000+KP0000003979+0000003979+000000000+000000558+0000004530+0000000007+I20000000000+0000004530+Z
510845001510845018-000127     510845006001023380289MUG OCC STRAIGHT LOVE  0000001000+00001578+00000+0001T   00001753+0006471504          1400 UW6515               2AZ
510845002510845077-000303     510845006001023593757GIFT-BAG PAPER MED     0000001000+00001578+00000+0001T   00001578+0000001504          1400 UW6112               2AZ
510845003510845112-116038     510845006003000534906TCS CARRIER BAG MIDI   0000001000+00000035+00000+0001T   00000035+0000001504          1400 UW6090               2AZ
510845004510845903-000200     510845006009826020234SWT CHOC RP CHOCO 23G  0000001000+00000788+00000+0001T   00000788+0000001504          1400 UW6150               2AZ
510846000510846               510846               170213KP     1400+00000+KP0000008363+0000008363+000000000+000001173+0000009536+0000000000+I40000009536+0000000000+Z
510846001510846039-000635     510846006001023774521CANDLE VTV 4PC WHITE   0000001000+00002192+00000+0001T   00002192+0000001507          1400 UW6510               2AZ
510846002510846006-006018     510846006001023735256PARTY-SPRAY HAIR ASSORT0000001000+00002630+00000+0001T   00002630+0000001507          1400 UW6131               2AZ
510846003510846366-004047     510846006001023834850DRESS UP ACCESS TEETH  0000001000+00001753+00000+0001T   00001753+0000001507          1400 UW6131               2AZ
510846004510846565-000859     510846006001023691361SUNGLASSES GIANT       0000001000+00001753+00000+0001T   00001753+0000001507          1400 UW6745               2AZ
510846005510846112-116038     510846006009681820246TCS CARRIER BAG MIDI   0000001000+00000035+00000+0001T   00000035+0000001507          1400 UW6090               2AZ
510847000510847               510847               170213KP     1400+00000+KP0000001051+0000001051+000000000+000000148+0000001190+0000000009+I20000000000+0000001190+Z
510847001510847079-009702-B   510847008427973059491PAPER SIRIO A2 WHITE   0000001000+00001051+00000+0001T   00001051+0000001508          1400 UW6130               2AZ
510848000510848               510848               170213KP     1400+00000+KP0000004558+0000004558+000000000+000000639+0000005197+0000000000+I40000005197+0000000000+Z
510848001510848106-005105     510848006003000667154WATER BOTTLE 1,6L      0000001000+00003507+00000+0001T   00003507+0000001511          1400 UW6210               2AZ
510848002510848903-002851     510848000000087108538MENTOS ROLL STRAWBERRY 0000001000+00001051+00000+0001T   00001051+0000001511          1400 UW6150               2AZ
510849000510849               510849               170213KP     1400+00000+KP0000002541+0000002541+000000000+000000357+0000002890+0000000008+I20000000000+0000002890+Z
510849001510849077-000373     510849006003000395217G/BAG MED 18X23CM DESGN0000001000+00001753+00000+0001T   00001753+0000001513          1400 UW6112               2AZ
510849002510849903-000200     510849006009826020234SWT CHOC RP CHOCO 23G  0000001000+00000788+00000+0001T   00000788+0000001513          1400 UW6150               2AZ
510850000510850               510850               170213KP     1400+00000+KP0000005262+0000005262+000000000+000000737+0000005999+0000000000+I40000005999+0000000000+Z
510850001510850466-009004     510850006001023189288BEACH-BAT-SET W/BALL   0000001000+00005262+00000+0001T   00005262+0000001514          1400 UW6785               2AZ
510851000510851               510851               170213KP     1400+00000+KP0000001349+0000001349+000000000+000000189+0000001538+0000000000+I40000001538+0000000000+Z
510851001510851077-000310     510851006001023608635GIFT-BAG 18X23CM GLOSS 0000001000+00001314+00000+0001T   00001314+0000001520          1400 UW6112               2AZ
510851002510851112-116038     510851006009681820246TCS CARRIER BAG MIDI   0000001000+00000035+00000+0001T   00000035+0000001520          1400 UW6090               2AZ
510852000510852               510852               170213KP     1400+00000+KP0000018102+0000018102+000000000+000002537+0000020639+0000000000+I40000020639+0000000000+Z
510852001510852030-000010     510852006003000084395P/DOOR HANGER 2-ASSTD  0000003000+00001314+00000+0001T   00001490+0008181533          1400 UW6505               2AZ
510852002510852018-000136     510852006001023659026MUG OCC LOVE W/PLUSH   0000002000+00003507+00000+0001T   00003507+0000001533          1400 UW6515               2AZ
510852003510852077-000303     510852006001023593757GIFT-BAG PAPER MED     0000003000+00001578+00000+0001T   00001578+0000001533          1400 UW6112               2AZ
510852004510852903-000200     510852006009826020234SWT CHOC RP CHOCO 23G  0000003000+00000788+00000+0001T   00000788+0000001533          1400 UW6150               2AZ
510852005510852112-116069     510852006003000535064TCS CARRIER BAG JUMBO  0000001000+00000048+00000+0001T   00000048+0000001533          1400 UW6090               2AZ
510853000510853               510853               170213KP     1400+00000+KP0000004902+0000004902+000000000+000000687+0000005580+0000000009+I20000000000+0000005580+Z
510853001510853018-000177     510853006001023797513MUG MINI LOVE ASSTD    0000005000+00000700+00000+0001T   00000700+0000001534          1400 UW6515               2AZ
510853002510853304-001204     510853006001023737984FLOWER OCC. TEDDY/ROSES0000001000+00001402+00000+0001T   00001490+0006471534          1400 UW6510               2AZ
510854000510854               510854               170213KP     1400+00000+KP0000000788+0000000788+000000000+000000111+0000000890+0000000009+I20000000000+0000000890+Z
510854001510854903-000200     510854006009826020234SWT CHOC RP CHOCO 23G  0000001000+00000788+00000+0001T   00000788+0000001535          1400 UW6150               2AZ
510855000510855               510855               170213KP     1400+00000+KP0000007893+0000007893+000000000+000001106+0000008990+0000000009+I20000000000+0000008990+Z
510855001510855050-004107-Z   510855006001023812629PADLOCK DISCUS S/S 70mm0000001000+00007893+00000+0001T   00007893+0000001548          1400 UW6855               2AZ
510856000510856               510856               170213KP     1400+00000+KP0000012933+0000012933+000000000+000001814+0000014740+0000000007+I20000000000+0000014740+Z
510856001510856088-000084     510856006001023798060P/POURRI 120G ASSTD    0000002000+00001753+00000+0001T   00001753+0000001550          1400 UW6212               2AZ
510856002510856018-000170     510856006001023775528MUG OCC. LOVE 2PC MINI 0000001000+00002192+00000+0001T   00002192+0000001550          1400 UW6515               2AZ
510856003510856018-000127     510856006001023380289MUG OCC STRAIGHT LOVE  0000001000+00001578+00000+0001T   00001753+0006471550          1400 UW6515               2AZ
510856004510856077-000309     510856006001023608604GIFT-BAG 25X32CM GLOSS 0000001000+00001753+00000+0001T   00001753+0000001550          1400 UW6112               2AZ
510856005510856080-000127     510856006003000424351VALENTINES DAY 36x24CM 0000001000+00002192+00000+0001T   00002192+0000001550          1400 UW6112               2AZ
510856006510856112-116069     510856006009681820277TCS CARRIER BAG JUMBO  0000001000+00000048+00000+0001T   00000048+0000001550          1400 UW6090               2AZ
510856007510856903-003080     510856005907029004673SWT SNACK STIX CHOC 50g0000001000+00000876+00000+0001T   00000876+0000001550          1400 UW6150               2AZ
510856008510856903-000200     510856006009826020234SWT CHOC RP CHOCO 23G  0000001000+00000788+00000+0001T   00000788+0000001550          1400 UW6150               2AZ
510857000510857               510857               170213KP     1400+00000+KP0000003541+0000003541+000000000+000000497+0000004030+0000000008+I20000000000+0000004030+Z
510857001510857080-000113     510857006003000237449CARD&ENVLPE - LOVE     0000002000+00001753+00000+0001T   00001753+0000001557          1400 UW6112               2AZ
510857002510857112-116038     510857006003000534906TCS CARRIER BAG MIDI   0000001000+00000035+00000+0001T   00000035+0000001557          1400 UW6090               2AZ
510858000510858               510858               170213KP     1400+00000+KP0000001490+0000001490+000000000+000000209+0000001690+0000000009+I20000000000+0000001690+Z
510858001510858077-000299     510858006003000395576G/BAG 32x25cm LRG LOVE 0000001000+00001490+00000+0001T   00001490+0000001558          1400 UW6112               2AZ
510859000510859               510859               170213KP     1400+00000+KP0000003680+0000003680+000000000+000000516+0000004196+0000000000+I40000004196+0000000000+Z
510859001510859018-000127     510859006001023380289MUG OCC STRAIGHT LOVE  0000001000+00001578+00000+0001T   00001753+0006471600          1400 UW6515               2AZ
510859002510859903-000200     510859006009826020234SWT CHOC RP CHOCO 23G  0000001000+00000788+00000+0001T   00000788+0000001600          1400 UW6150               2AZ
510859003510859903-000194     510859006009826020616SWT CHOC RP LOLLY 25G  0000001000+00001314+00000+0001T   00001314+0000001600          1400 UW6150               2AZ
510860000510860               510860               170213KP     1400+00000+KP0000004378+0000004378+000000000+000000616+0000004990+0000000004+I20000000000+0000004990+Z
510860001510860031-000878-A   510860006001023798985P/FRAME 10x15cm PL-SLID0000002000+00000876+00000+0001T   00000876+0000001602          1400 UW6510               2AZ
510860002510860077-000314     510860006003000181148GIFT-BAG 11X14CM MATT  0000002000+00000876+00000+0001T   00000876+0000001602          1400 UW6112               2AZ
510860003510860080-000133-A   510860006003000647019MINI VALENTINES CARD   0000002000+00000437+00000+0001T   00000437+0000001602          1400 UW6112               2AZ
510861000510861               510861               170213KP     1400+00000+KP0000006139+0000006139+000000000+000000860+0000006999+0000000000+I40000006999+0000000000+Z
510861001510861018-050000     510861006003000412679MUG OCC LOVE TWIN BEAR 0000001000+00006139+00000+0001T   00006139+0000001604          1400 UW6515               2AZ
510862000510862               510862               170213KP     1400+00000+KP0000003542+0000003542+000000000+000000496+0000004030+0000000008+I20000000000+0000004030+Z
510862001510862018-005009     510862006001023725608MUG W/PLUSH-BEAR LOVE  0000001000+00003507+00000+0001T   00003507+0000001607          1400 UW6515               2AZ
510862002510862112-116038     510862006003000534906TCS CARRIER BAG MIDI   0000001000+00000035+00000+0001T   00000035+0000001607          1400 UW6090               2AZ
510863000510863               510863               170213KP     1400+00000+KP0000000788+0000000788+000000000+000000111+0000000890+0000000009+I20000000000+0000000890+Z
510863001510863001-000169     510863006005231103302TUMBLER 240ml HI-BALL  0000001000+00000788+00000+0001T   00000788+0000001615          1400 UW6515               2AZ
510864000510864               510864               170213KP     1400+00000+KP0000003504+0000003504+000000000+000000492+0000003996+0000000000+I40000003996+0000000000+Z
510864001510864078-000025     510864008887013700064SUPERGLUE 3g 1PCE CARD 0000004000+00000876+00000+0001T   00000876+0000001617          1400 UW6810               2AZ
510865000510865               510865               170213KP     1400+00000+KP0000000788+0000000788+000000000+000000111+0000000899+0000000000+I40000000899+0000000000+Z
510865001510865903-000200     510865006009826020234SWT CHOC RP CHOCO 23G  0000001000+00000788+00000+0001T   00000788+0000001621          1400 UW6150               2AZ
510866000510866               510866               170213KP     1400+00000+KP0000000788+0000000788+000000000+000000111+0000000890+0000000009+I20000000000+0000000890+Z
510866001510866001-000169     510866006005231103302TUMBLER 240ml HI-BALL  0000001000+00000788+00000+0001T   00000788+0000001621          1400 UW6515               2AZ
510867000510867               510867               170213KP     1400+00000+KP0000009255+0000009255+000000000+000001297+0000010550+0000000002+I20000000000+0000010550+Z
510867001510867031-005840     510867006001023481412P/FRAME-CLIP 30X40CM   0000001000+00004385+00000+0001T   00004385+0000001623          1400 UW6510               2AZ
510867002510867077-000270     510867006003000395453GIFT-BAG PPR JMB 33X45 0000001000+00002630+00000+0001T   00002630+0000001623          1400 UW6112               2AZ
510867003510867080-000127     510867006003000424351VALENTINES DAY 36x24CM 0000001000+00002192+00000+0001T   00002192+0000001623          1400 UW6112               2AZ
510867004510867112-116069     510867006003000535064TCS CARRIER BAG JUMBO  0000001000+00000048+00000+0001T   00000048+0000001623          1400 UW6090               2AZ
510868000510868               510868               170213KP     1400+00000+KP0000002630+0000002630+000000000+000000369+0000002990+0000000009+I20000000000+0000002990+Z
510868001510868079-000260     510868006001023886385PAINT TUBS WT BASE 4COL0000001000+00002630+00000+0001T   00002630+0000001625          1400 UW6130               2AZ
510869000510869               510869               170213KP     1400+00000+KP0000001490+0000001490+000000000+000000209+0000001699+0000000000+I40000001699+0000000000+Z
510869001510869077-000305     510869006003000395422GIFT-BAG WINE 10X35CM  0000001000+00001490+00000+0001T   00001490+0000001726          1400 UW6112               2AZ
510870000510870               510870               170213KP     1400+00000+KP0000007760+0000007760+000000000+000001088+0000008848+0000000000+I40000008848+0000000000+Z
510870001510870006-000223     510870006001023891327PARTY EYE-MASK 6PCE    0000001000+00000876+00000+0001T   00000876+0000001732          1400 UW6131               2AZ
510870002510870006-000789     510870006001023148612CROWN BOY              0000001000+00002192+00000+0001T   00002192+0000001732          1400 UW6131               2AZ
510870003510870112-116069     510870006003000535064TCS CARRIER BAG JUMBO  0000001000+00000048+00000+0001T   00000048+0000001732          1400 UW6090               2AZ
510870004510870007-000211     510870006003000005796STATIONERY N/PAD 3PCK  0000001000+00001578+00000+0001T   00001578+0000001732          1400 UW6130               2AZ
510870005510870565-000044     510870006003000128280BARREL OF SLIME 100g   0000001000+00000613+00000+0001T   00000613+0000001732          1400 UW6745               2AZ
510870006510870565-000256     510870006003000609826NOVELTY GLOW SLIME     0000001000+00000700+00000+0001T   00000700+0000001732          1400 UW6745               2AZ
510870007510870565-000050     510870006001023906199SLIME BOMB DISPLAY BOX 0000001000+00001753+00000+0001T   00001753+0000001732          1400 UW6745               2AZ
510871000510871               510871               170213KP     1400+00000+KP0000008360+0000008360+000000000+000001171+0000009530+0000000001+I20000000000+0000009530+Z
510871001510871903-000194     510871006009826020616SWT CHOC RP LOLLY 25G  0000004000+00001314+00000+0001T   00001314+0000001733          1400 UW6150               2AZ
510871002510871030-000040     510871006003000396375PLAQUE WDN HANGING HRTS0000001000+00003069+00000+0001T   00003069+0000001733          1400 UW6505               2AZ
510871003510871112-116038     510871006003000534906TCS CARRIER BAG MIDI   0000001000+00000035+00000+0001T   00000035+0000001733          1400 UW6090               2AZ
510872000510872               510872               170213KP     1400+00000+KP0000007893+0000007893+000000000+000001106+0000008990+0000000009+I20000000000+0000008990+Z
510872001510872301-085007     510872006003000673698ORN OCC. LOVE S/PLAQUE 0000001000+00007893+00000+0001T   00007893+0000001736          1400 UW6505               2AZ
510873000510873               510873               170213KP     1400+00000+KP0000001576+0000001576+000000000+000000222+0000001790+0000000008+I20000000000+0000001790+Z
510873001510873903-000200     510873006009826020234SWT CHOC RP CHOCO 23G  0000002000+00000788+00000+0001T   00000788+0000001742          1400 UW6150               2AZ
510874000510874               510874               170213KP     1400+00000+KP0000008740+0000008740+000000000+000001240+0000009980+0000000000+I20000000000+0000009980+Z
510874001510874080-000133-A   510874006003000647019MINI VALENTINES CARD   0000020000+00000437+00000+0001T   00000437+0000001745          1400 UW6112               2AZ
510875000510875               510875               170213KP     1400+00000+KP0000004383+0000004383+000000000+000000615+0000004990+0000000008+I20000000000+0000004990+Z
510875001510875077-000270     510875006003000395453GIFT-BAG PPR JMB 33X45 0000001000+00002630+00000+0001T   00002630+0000001747          1400 UW6112               2AZ
510875002510875080-000113     510875006003000237449CARD&ENVLPE - LOVE     0000001000+00001753+00000+0001T   00001753+0000001747          1400 UW6112               2AZ
510876000510876               510876               170213KP     1400+00000+KP0000002192+0000002192+000000000+000000307+0000002490+0000000009+I20000000000+0000002490+Z
510876001510876301-085000     510876006003000674299 ORN OCC. LOVE HEARTS  0000001000+00002192+00000+0001T   00002192+0000001750          1400 UW6505               2AZ
510877000510877               510877               170213KP     1400+00000+KP0000001437+0000001437+000000000+000000202+0000001639+0000000000+I40000001639+0000000000+Z
510877001510877304-001204     510877006001023737984FLOWER OCC. TEDDY/ROSES0000001000+00001402+00000+0001T   00001490+0006471752          1400 UW6510               2AZ
510877002510877112-116038     510877006003000534906TCS CARRIER BAG MIDI   0000001000+00000035+00000+0001T   00000035+0000001752          1400 UW6090               2AZ
510878000510878               510878               170213KP     1400+00000+KP0000004647+0000004647+000000000+000000651+0000005298+0000000000+I40000005298+0000000000+Z
510878001510878077-000303     510878006001023593757GIFT-BAG PAPER MED     0000001000+00001578+00000+0001T   00001578+0000001753          1400 UW6112               2AZ
510878002510878030-000030-A   510878006003000249305PLAQUE GLASS LOVE      0000001000+00003069+00000+0001T   00003069+0000001753          1400 UW6505               2AZ
510879000510879               510879               170213KP     1400+00000+KP0000001753+0000001753+000000000+000000246+0000001990+0000000009+I20000000000+0000001990+Z
510879001510879080-000113     510879006003000237449CARD&ENVLPE - LOVE     0000001000+00001753+00000+0001T   00001753+0000001754          1400 UW6112               2AZ
510880000510880               510880               170213KP     1400+00000+KP0000001314+0000001314+000000000+000000184+0000001490+0000000008+I20000000000+0000001490+Z
510880001510880903-005000     510880006002580020007SWT CT MALLOW FISH 120g0000001000+00001314+00000+0001T   00001314+0000001756          1400 UW6150               2AZ
510881000510881               510881               170213KP     1400+00000+KP0000011040-0000000000+000000000+000000000+0000011040-0000000000+I20000000000+0000011040-Z
510881001510881001-999901     510881000000000999901CASUAL WAGES           0000001000-00011040+00000+0001X  9206121174084 0600SZITHU0000000000 UW69013IC THA        2 Z
A17021300                                          13055562KPSLAVE 2                       UW61IC
C51086900                                          170213KP080-000133     17252569SLAVE 2     UW61IC0000000000+0000000000+0020000001000+
M17021301                              IT          KPATT IT                                                                                          SLAVE 1 WAS NOT IN USE                                  SLV2=510881                                     SLV3=529602                                                                             THANK YOU KP
M17021391                              CASH        KPSLAVE 2                       Z-REPORT No.   637TOTAL (Sales - Refunds)           3871.68       CASH TO BE BANKED                 1718.90       DEBIT CARDS                          0.00       CREDIT CARDS                      2042.38       Z-READING                         3761.28       AIRTIME DEBIT CARD SALES             0.00       AIRTIME CARD SALES                   0.00       OVERS/UNDERS                         0.00       AIRTIME CASH SALES                   0.00       GIFT CARDS                           0.00       GIFT CARD CASH SALES                 0.00       CASUAL WAGES                       110.40       T O T A L  CASH PAYOUTS            110.40                                                                                                                                                                                                                                                                                                      Z
M17021392                              CASH        KPABSENT                                                                                                                                                                                          ANNUAL LEAVE                                                                                                                                                                                    DAY OFF                                                                                                                                                                                         COMMENTS          Z NO 637                                        Z AMOUNT 3872                                   CASHIER VUMILE                                                                                                                                                                                                                                                               Z
Y17021300                                          KP00006500339844+000065
ZKP17021319583 SLAVE 2      SALES DATA                     NEXT INVOICE NO.  510882 0637
X KP Slave 2 First invoice 510815 170213 Last invoice 510881 170213 Next invoice 510882 Total number of records 000000229 clbackup completed 19:58:58
