529523000529523               529523               170213KP     1400+00000+KP0000003505+0000003505+000000000+000000492+0000003997+0000000000+I40000003997+0000000000+Z
529523001529523077-000011-C   529523006001023808523TISSUE 10xSHTS RED     0000001000+00000876+00000+0001T   00000876+0000001016          1400 A48112               3AZ
529523002529523077-000011-R   529523006001023808462P/TISSUE DARK 10-SHEETS0000001000+00000876+00000+0001T   00000876+0000001016          1400 A48112               3AZ
529523003529523077-000011-Y   529523006001023809858TISSUE-WRAP GOLD 10PCE 0000001000+00001753+00000+0001T   00001753+0000001016          1400 A48112               3AZ
529524000529524               529524               170213KP     1400+00000+KP0000003506+0000003506+000000000+000000491+0000003990+0000000007+I20000000000+0000003990+Z
529524001529524077-000310     529524006001023608635GIFT-BAG 18X23CM GLOSS 0000001000+00001314+00000+0001T   00001314+0000001017          1400 A48112               3AZ
529524002529524301-006010     529524006001023861245ORN BEAR POLY W/JERSEY 0000001000+00002192+00000+0001T   00002192+0000001017          1400 A48505               3AZ
529525000529525               529525               170213KP     1400+00000+KP0000000874+0000000874+000000000+000000124+0000000990+0000000008+I20000000000+0000000990+Z
529525001529525080-000133     529525006003000535613CARD&ENV MINI ASTD DSGN0000001000+00000437+00000+0001T   00000437+0000001020          1400 A48112               3AZ
529525002529525080-000133-A   529525006003000647019MINI VALENTINES CARD   0000001000+00000437+00000+0001T   00000437+0000001020          1400 A48112               3AZ
529526000529526               529526               170213KP     1400+00000+KP0000006660+0000006660+000000000+000000934+0000007594+0000000000+I40000007594+0000000000+Z
529526001529526077-000245     529526006001023759214GIFT-RIBBON METALLICx2 0000001000+00001227+00000+0001T   00001227+0000001030          1400 A48112               3AZ
529526002529526003-002259     529526006001023860330ORN CERAMIC HEDGEHOG   0000001000+00002192+00000+0001T   00002192+0000001030          1400 A48505               3AZ
529526003529526903-000011     529526006002099007315SWT MALLOW CHOC 15G    0000001000+00000437+00000+0001T   00000437+0000001030          1400 A48150               3AZ
529526004529526039-000108     529526006001023524034TEA-LITE CANDLES 8PCE  0000001000+00001490+00000+0001T   00001490+0000001030          1400 A48510               3AZ
529526005529526567-011000     529526009780007865529BOOK CHILDREN'S READER 0000001000+00001314+00000+0001T   00001753+0008131030          1400 A48757               3AZ
529527000529527               529527               170213KP     1400+00000+KP0000006137+0000006137+000000000+000000860+0000006990+0000000007+I20000000000+0000006990+Z
529527001529527031-005853     529527006003000442416P/FRAME WDN TWIN HEARTS0000001000+00003507+00000+0001T   00003507+0000001031          1400 A48510               3AZ
529527002529527077-000475     529527006003000640775GIFT-BAG DESIGNER MED  0000001000+00002630+00000+0001T   00002630+0000001031          1400 A48112               3AZ
529528000529528               529528               170213KP     1400+00000+KP0000001751+0000001751+000000000+000000246+0000001997+0000000000+I40000001997+0000000000+Z
529528001529528077-000310     529528006001023608635GIFT-BAG 18X23CM GLOSS 0000001000+00001314+00000+0001T   00001314+0000001113          1400 A48112               3AZ
529528002529528080-000133-A   529528006003000647019MINI VALENTINES CARD   0000001000+00000437+00000+0001T   00000437+0000001113          1400 A48112               3AZ
529529000529529               529529               170213KP     1400+00000+KP0000001227+0000001227+000000000+000000172+0000001390+0000000009+I20000000000+0000001390+Z
529529001529529077-000318     529529006001023609755GIFT-BAG 18X23CM E/D AN0000001000+00001227+00000+0001T   00001227+0000001115          1400 A48112               3AZ
529530000529530               529530               170213KP     1400+00000+KP0000000876+0000000876+000000000+000000123+0000000990+0000000009+I20000000000+0000000990+Z
529530001529530031-000878-A   529530006001023798985P/FRAME 10x15cm PL-SLID0000001000+00000876+00000+0001T   00000876+0000001117          1400 A48510               3AZ
529531000529531               529531               170213KP     1400+00000+KP0000002192+0000002192+000000000+000000307+0000002490+0000000009+I20000000000+0000002490+Z
529531001529531007-000095     529531006003000530434ENVELOPES WHITE 20PK C60000001000+00002192+00000+0001T   00002192+0000001121          1400 A48130               3AZ
529532000529532               529532               170213KP     1400+00000+KP0000002630+0000002630+000000000+000000369+0000002990+0000000009+I20000000000+0000002990+Z
529532001529532567-075466     529532009780263912203BK NOVEL ROMANCE       0000001000+00002630+00000+0001T   00002630+0000001125          1400 A48757               3AZ
529533000529533               529533               170213KP     1400+00000+KP0000011840+0000011840+000000000+000001658+0000013490+0000000008+I20000000000+0000013490+Z
529533001529533368-000614     529533006001023705808PLUSH LOVE 30cm        0000001000+00008771+00000+0001T   00008771+0000001127          1400 A48745               3AZ
529533002529533105-001028     529533006003000365036LUNCH BOX W/CLIPS      0000001000+00003069+00000+0001T   00003069+0000001127          1400 A48210               3AZ
529534000529534               529534               170213KP     1400+00000+KP0000000876+0000000876+000000000+000000123+0000000990+0000000009+I20000000000+0000000990+Z
529534001529534903-003080     529534005907029004673SWT SNACK STIX CHOC 50g0000001000+00000876+00000+0001T   00000876+0000001131          1400 A48150               3AZ
529535000529535               529535               170213KP     1400+00000+KP0000001490+0000001490+000000000+000000209+0000001690+0000000009+I20000000000+0000001690+Z
529535001529535071-081110     529535006936198405454CORRECTION FLUID PEN   0000001000+00001490+00000+0001T   00001490+0000001133          1400 A48130               3AZ
529536000529536               529536               170213KP     1400+00000+KP0000007747+0000007747+000000000+000001085+0000008830+0000000002+I20000000000+0000008830+Z
529536001529536174-008032     529536006009654960603TRAVEL BOTTLES 50ml    0000004000+00001928+00000+0001T   00001928+0000001134          1400 A48205               3AZ
529536002529536112-116038     529536006009681820246TCS CARRIER BAG MIDI   0000001000+00000035+00000+0001T   00000035+0000001134          1400 A48090               3AZ
529537000529537               529537               170213KP     1400+00000+KP0000007015+0000007015+000000000+000000983+0000007990+0000000008+I20000000000+0000007990+Z
529537001529537082-000120     529537006003000360727READING GLS STRENGTH:3 0000001000+00004385+00000+0001T   00004385+0000001140          1400 A48160               3AZ
529537002529537082-000388     529537006001023774385SPECT-CASE SPRING-CLOSE0000001000+00002630+00000+0001T   00002630+0000001140          1400 A48160               3AZ
529538000529538               529538               170213KP     1400+00000+KP0000000876+0000000876+000000000+000000123+0000000990+0000000009+I20000000000+0000000990+Z
529538001529538007-000045     529538006009608640438DISPLAY-POCKETS A4 10PC0000001000+00000876+00000+0001T   00000876+0000001144          1400 A48130               3AZ
529539000529539               529539               170213KP     1400+00000+KP0000005262+0000005262+000000000+000000737+0000005990+0000000009+I20000000000+0000005990+Z
529539001529539103-000474     529539006003000630363BAMBOO FLOWER BASKET   0000001000+00005262+00000+0001T   00005262+0000001151          1400 A48300               3AZ
529540000529540               529540               170213KP     1400+00000+KP0000000836+0000000836+000000000+000000118+0000000950+0000000004+I20000000000+0000000950+Z
529540001529540112-116069     529540006009681820277TCS CARRIER BAG JUMBO  0000001000+00000048+00000+0001T   00000048+0000001152          1400 A48090               3AZ
529540002529540903-000138     529540006002099004314SWT GS WINE GUMS 60G   0000001000+00000788+00000+0001T   00000788+0000001152          1400 A48150               3AZ
529541000529541               529541               170213KP     1400+00000+KP0000001753+0000001753+000000000+000000246+0000001990+0000000009+I20000000000+0000001990+Z
529541001529541077-000011-X   529541006001023809827TISSUE-WRAP SILVER 10PC0000001000+00001753+00000+0001T   00001753+0000001154          1400 A48112               3AZ
529542000529542               529542               170213KP     1400+00000+KP0000002192+0000002192+000000000+000000307+0000002490+0000000009+I20000000000+0000002490+Z
529542001529542077-000926     529542006003000414178G/WRAP 700mmx2m LOVE   0000001000+00002192+00000+0001T   00002192+0000001155          1400 A48112               3AZ
529543000529543               529543               170213KP     1400+00000+KP0000003418+0000003418+000000000+000000479+0000003890+0000000007+I20000000000+0000003890+Z
529543001529543903-000090     529543006009826020821SWT GS CHOCO COINS 60g 0000001000+00002104+00000+0001T   00002104+0000001201          1400 A48150               3AZ
529543002529543075-000348     529543006003000099474PURSE SILICONE W/CLIP  0000001000+00001314+00000+0001T   00001753+0008121201          1400 A48160               3AZ
529544000529544               529544               170213KP     1400+00000+KP0000003329+0000003329+000000000+000000468+0000003790+0000000007+I20000000000+0000003790+Z
529544001529544903-000200     529544006009826020234SWT CHOC RP CHOCO 23G  0000002000+00000788+00000+0001T   00000788+0000001212          1400 A48150               3AZ
529544002529544104-000010     529544006001023507822BASKET 30x23cm RECT.   0000001000+00001753+00000+0001T   00001753+0000001212          1400 A48210               3AZ
529545000529545               529545               170213KP     1400+00000+KP0000010556+0000010556+000000000+000001478+0000012034+0000000000+I40000012034+0000000000+Z
529545001529545567-011344     529545006003000630714BK COLOURING THERAPY 640000001000+00003507+00000+0001T   00003507+0000001227          1400 A48757               3AZ
529545002529545567-011377     529545009781783252206BK STICKER & ACTIVITY  0000002000+00003507+00000+0001T   00003507+0000001227          1400 A48757               3AZ
529545003529545112-116038     529545006009681820246TCS CARRIER BAG MIDI   0000001000+00000035+00000+0001T   00000035+0000001227          1400 A48090               3AZ
529546000529546               529546               170213KP     1400+00000+KP0000008838+0000008838+000000000+000001239+0000010077+0000000000+I40000010077+0000000000+Z
529546001529546018-050000     529546006003000412679MUG OCC LOVE TWIN BEAR 0000001000+00006139+00000+0001T   00006139+0000001231          1400 A48515               3AZ
529546002529546077-000270     529546006003000395453GIFT-BAG PPR JMB 33X45 0000001000+00002630+00000+0001T   00002630+0000001231          1400 A48112               3AZ
529546003529546112-116053     529546006006438002399TCS CARRIER BAG 38L    0000001000+00000069+00000+0001T   00000069+0000001231          1400 A48090               3AZ
529547000529547               529547               170213KP     1400+00000+KP0000009648+0000009648+000000000+000001351+0000010990+0000000009+I20000000000+0000010990+Z
529547001529547028-000026     529547006001023810847COOLER-BAG+POCKET NYLON0000001000+00009648+00000+0001T   00009648+0000001232          1400 A48305               3AZ
529548000529548               529548               170213KP     1400+00000+KP0000000700+0000000700+000000000+000000098+0000000790+0000000008+I20000000000+0000000790+Z
529548001529548033-010721     529548006001023678669SAFETY-PINS 20PCE ASSTD0000001000+00000700+00000+0001T   00000700+0000001233          1400 A48200               3AZ
529549000529549               529549               170213KP     1400+00000+KP0000001753+0000001753+000000000+000000246+0000001990+0000000009+I20000000000+0000001990+Z
529549001529549077-000239     529549006003000160419GIFT-RIBBON ROLL PEARL 0000001000+00001753+00000+0001T   00001753+0000001234          1400 A48112               3AZ
529550000529550               529550               170213KP     1400+00000+KP0000000437+0000000437+000000000+000000062+0000000490+0000000009+I20000000000+0000000490+Z
529550001529550080-000133-A   529550006003000647019MINI VALENTINES CARD   0000001000+00000437+00000+0001T   00000437+0000001235          1400 A48112               3AZ
529551000529551               529551               170213KP     1400+00000+KP0000002628+0000002628+000000000+000000369+0000002997+0000000000+I40000002997+0000000000+Z
529551001529551077-000151     529551006008766114676GIFT-WRAP C/PHANE ASSTD0000003000+00000876+00000+0001T   00000876+0000001239          1400 A48112               3AZ
529552000529552               529552               170213KP     1400+00000+KP0000002979+0000002979+000000000+000000418+0000003390+0000000007+I20000000000+0000003390+Z
529552001529552565-000002     529552006003000308071NOVELTY GROWING ANIMALS0000001000+00001753+00000+0001T   00001753+0000001241          1400 A48745               3AZ
529552002529552083-000055     529552006003000003853LIGHTER ELCTRNC REFILBL0000002000+00000613+00000+0001T   00000613+0000001241          1400 A48315               3AZ
529553000529553               529553               170213KP     1400+00000+KP0000008771+0000008771+000000000+000001228+0000009999+0000000000+I40000009999+0000000000+Z
529553001529553001-091415     529553006003000329113W/GLS OCC. LOVE 2PC 2800000001000+00008771+00000+0001T   00009648+0006471251          1400 A48515               3AZ
529554000529554               529554               170213KP     1400+00000+KP0000007015+0000007015+000000000+000000983+0000007990+0000000008+I20000000000+0000007990+Z
529554001529554047-002040-H   529554006003000219117P/ADAPTOR 3x16A 3x5A   0000001000+00004385+00000+0001T   00004385+0000001252          1400 A48880               3AZ
529554002529554159-000040     529554006001023767691HOOK-HANGER 4PC S/S    0000001000+00002630+00000+0001T   00002630+0000001252          1400 A48200               3AZ
529555000529555               529555               170213KP     1400+00000+KP0000001085+0000001085+000000000+000000153+0000001230+0000000008+I20000000000+0000001230+Z
529555001529555903-000155     529555006009803374435SWT LOLLY I LUV U HEART0000002000+00000525+00000+0001T   00000525+0000001257          1400 A48150               3AZ
529555002529555112-116038     529555006009681820246TCS CARRIER BAG MIDI   0000001000+00000035+00000+0001T   00000035+0000001257          1400 A48090               3AZ
529556000529556               529556               170213KP     1400+00000+KP0000001576+0000001576+000000000+000000222+0000001790+0000000008+I20000000000+0000001790+Z
529556001529556903-000200     529556006009826020234SWT CHOC RP CHOCO 23G  0000002000+00000788+00000+0001T   00000788+0000001258          1400 A48150               3AZ
529557000529557               529557               170213KP     1400+00000+KP0000001314+0000001314+000000000+000000184+0000001490+0000000008+I20000000000+0000001490+Z
529557001529557077-000310     529557006001023608635GIFT-BAG 18X23CM GLOSS 0000001000+00001314+00000+0001T   00001314+0000001258          1400 A48112               3AZ
529558000529558               529558               170213KP     1400+00000+KP0000002192+0000002192+000000000+000000307+0000002490+0000000009+I20000000000+0000002490+Z
529558001529558077-000309-A   529558006003000671007GIFT-BAG HOLOGRAM JMB  0000001000+00002192+00000+0001T   00002192+0000001259          1400 A48112               3AZ
529559000529559               529559               170213KP     1400+00000+KP0000016533+0000016533+000000000+000002317+0000018850+0000000000+I20000000000+0000018850+Z
529559001529559368-000152     529559006003000166886PLUSH BEAR 15cm        0000001000+00003946+00000+0001T   00005262+0008141301          1400 A48745               3AZ
529559002529559903-000155     529559006009803374435SWT LOLLY I LUV U HEART0000001000+00000525+00000+0001T   00000525+0000001301          1400 A48150               3AZ
529559003529559301-085003     529559006003000420827ORN OCCASION LOVE KEY  0000001000+00005262+00000+0001T   00005262+0000001301          1400 A48505               3AZ
529559004529559031-000903-B   529559006003000457236P/FRAME PL CREAMY 13X180000001000+00005262+00000+0001T   00005262+0000001301          1400 A48510               3AZ
529559005529559077-000299     529559006003000395576G/BAG 32x25cm LRG LOVE 0000001000+00001490+00000+0001T   00001490+0000001301          1400 A48112               3AZ
529559006529559112-116069     529559006009681820277TCS CARRIER BAG JUMBO  0000001000+00000048+00000+0001T   00000048+0000001301          1400 A48090               3AZ
529560000529560               529560               170213KP     1400+00000+KP0000005812+0000005812+000000000+000000819+0000006630+0000000001+I20000000000+0000006630+Z
529560001529560903-000155     529560006009803374435SWT LOLLY I LUV U HEART0000003000+00000525+00000+0001T   00000525+0000001305          1400 A48150               3AZ
529560002529560903-000200     529560006009826020234SWT CHOC RP CHOCO 23G  0000002000+00000788+00000+0001T   00000788+0000001305          1400 A48150               3AZ
529560003529560903-000155     529560006009803374435SWT LOLLY I LUV U HEART0000002000+00000525+00000+0001T   00000525+0000001305          1400 A48150               3AZ
529560004529560903-000200     529560006009826020234SWT CHOC RP CHOCO 23G  0000002000+00000788+00000+0001T   00000788+0000001305          1400 A48150               3AZ
529560005529560112-116038     529560006009681820246TCS CARRIER BAG MIDI   0000001000+00000035+00000+0001T   00000035+0000001305          1400 A48090               3AZ
529561000529561               529561               170213KP     1400+00000+KP0000002227+0000002227+000000000+000000312+0000002530+0000000009+I20000000000+0000002530+Z
529561001529561041-007001-A   529561006003000636860H/GLOW LIQUID CHERY    0000001000+00002192+00000+0001T   00002192+0000001311          1400 A48200               3AZ
529561002529561112-116038     529561006009681820246TCS CARRIER BAG MIDI   0000001000+00000035+00000+0001T   00000035+0000001311          1400 A48090               3AZ
529562000529562               529562               170213KP     1400+00000+KP0000014909+0000014909+000000000+000002088+0000016997+0000000000+I40000016997+0000000000+Z
529562001529562004-071198     529562006003000528165USB MULTISLOT CARD     0000001000+00003507+00000+0001T   00003507+0000001321          1400 A48310               3AZ
529562002529562004-079100     529562006003000604913USB POWER BANK 2400MAH 0000001000+00011402+00000+0001T   00012279+0008191321          1400 A48310               3AZ
529563000529563               529563               170213KP     1400+00000+KP0000010858+0000010858+000000000+000001523+0000012381+0000000000+I40000012381+0000000000+Z
529563001529563368-000049     529563006003000536955PLUSH BEAR 15cm LOVE   0000001000+00004385+00000+0001T   00004385+0000001325          1400 A48745               3AZ
529563002529563018-000177     529563006001023797513MUG MINI LOVE ASSTD    0000001000+00000700+00000+0001T   00000700+0000001325          1400 A48515               3AZ
529563003529563301-085002     529563006003000420704ORN OCC. LOVE BELL ASST0000001000+00001753+00000+0001T   00002630+0008121325          1400 A48505               3AZ
529563004529563089-000030     529563006003000575671K/CHAIN LOVE MTL ASSTD 0000001000+00001753+00000+0001T   00001753+0000001325          1400 A48205               3AZ
529563005529563112-116038     529563006009681820246TCS CARRIER BAG MIDI   0000001000+00000035+00000+0001T   00000035+0000001325          1400 A48090               3AZ
529563006529563903-000183     529563006003000451043SWT LB HEART LOLLY     0000001000+00000393+00000+0001T   00000393+0000001325          1400 A48150               3AZ
529563007529563903-000155     529563006009803374435SWT LOLLY I LUV U HEART0000001000+00000525+00000+0001T   00000525+0000001325          1400 A48150               3AZ
529563008529563903-000194     529563006009826020616SWT CHOC RP LOLLY 25G  0000001000+00001314+00000+0001T   00001314+0000001325          1400 A48150               3AZ
529564000529564               529564               170213KP     1400+00000+KP0000004992+0000004992+000000000+000000702+0000005694+0000000000+I40000005694+0000000000+Z
529564001529564903-000155     529564006009803374435SWT LOLLY I LUV U HEART0000001000+00000525+00000+0001T   00000525+0000001326          1400 A48150               3AZ
529564002529564089-000192-A   529564006001023901774KEY-CHAIN ACRYLIC      0000002000+00000876+00000+0001T   00000876+0000001326          1400 A48205               3AZ
529564003529564903-000200     529564006009826020234SWT CHOC RP CHOCO 23G  0000001000+00000788+00000+0001T   00000788+0000001326          1400 A48150               3AZ
529564004529564903-000087     529564006001704000161SWT SPECKLED-EGGS 50G  0000001000+00001139+00000+0001T   00001139+0000001326          1400 A48150               3AZ
529564005529564077-000383     529564006003000247943GIFT-BAG 11X14CM S/COL 0000001000+00000788+00000+0001T   00000788+0000001326          1400 A48112               3AZ
529565000529565               529565               170213KP     1400+00000+KP0000008988+0000008988+000000000+000001261+0000010249+0000000000+I40000010249+0000000000+Z
529565001529565903-000200     529565006009826020234SWT CHOC RP CHOCO 23G  0000003000+00000788+00000+0001T   00000788+0000001328          1400 A48150               3AZ
529565002529565080-000127     529565006003000424351VALENTINES DAY 36x24CM 0000003000+00002192+00000+0001T   00002192+0000001328          1400 A48112               3AZ
529565003529565112-116069     529565006009681820277TCS CARRIER BAG JUMBO  0000001000+00000048+00000+0001T   00000048+0000001328          1400 A48090               3AZ
529566000529566               529566               170213KP     1400+00000+KP0000006357+0000006357+000000000+000000891+0000007248+0000000000+I40000007248+0000000000+Z
529566001529566024-000195     529566006003000396498KIDDIES B/WARE ACC 2PC 0000001000+00006139+00000+0001T   00006139+0000001330          1400 A48300               3AZ
529566002529566903-000670     529566006009803358008SWT SHERBET RED LIPS   0000001000+00000218+00000+0001T   00000218+0000001330          1400 A48150               3AZ
529567000529567               529567               170213KP     1400+00000+KP0000004470+0000004470+000000000+000000627+0000005097+0000000000+I40000005097+0000000000+Z
529567001529567106-001100-B   529567006001023651693FRIDGE BOTTLE ASSORTED 0000003000+00001490+00000+0001T   00001490+0000001339          1400 A48210               3AZ
529568000529568               529568               170213KP     1400+00000+KP0000002630+0000002630+000000000+000000369+0000002990+0000000009+I20000000000+0000002990+Z
529568001529568006-000111     529568006003000519385BALLOONS LARGE 12PCE   0000001000+00002630+00000+0001T   00002630+0000001346          1400 A48131               3AZ
529569000529569               529569               170213KP     1400+00000+KP0000002630+0000002630+000000000+000000369+0000002990+0000000009+I20000000000+0000002990+Z
529569001529569159-000045     529569006003000467686HOOKS CHROME PLATED 6PC0000001000+00002630+00000+0001T   00002630+0000001354          1400 A48200               3AZ
529570000529570               529570               170213KP     1400+00000+KP0000005262+0000005262+000000000+000000737+0000005990+0000000009+I20000000000+0000005990+Z
529570001529570031-000902-C   529570006001023726315P/FRAME WDN OAK 13X18CM0000001000+00005262+00000+0001T   00005262+0000001407          1400 A48510               3AZ
529571000529571               529571               170213KP     1400+00000+KP0000009590+0000009590+000000000+000001344+0000010934+0000000000+I40000010934+0000000000+Z
529571001529571028-000796     529571006001023812094SKEWERS 25cm 50PCE 4mm 0000001000+00001490+00000+0001T   00001490+0000001413          1400 A48305               3AZ
529571002529571079-013032-C   529571006003000389520POLY SHAPES            0000004000+00001578+00000+0001T   00001578+0000001413          1400 A48130               3AZ
529571003529571079-013099     529571006003000081875ART+CRAFT EYES ASSTD   0000001000+00001753+00000+0001T   00001753+0000001413          1400 A48130               3AZ
529571004529571112-116038     529571006009681820246TCS CARRIER BAG MIDI   0000001000+00000035+00000+0001T   00000035+0000001413          1400 A48090               3AZ
529572000529572               529572               170213KP     1400+00000+KP0000002278+0000002278+000000000+000000319+0000002590+0000000007+I20000000000+0000002590+Z
529572001529572018-000177     529572006001023797513MUG MINI LOVE ASSTD    0000001000+00000700+00000+0001T   00000700+0000001414          1400 A48515               3AZ
529572002529572077-000315     529572006003000181186GIFT-BAG 20x28cm MATT  0000001000+00001578+00000+0001T   00001578+0000001414          1400 A48112               3AZ
529573000529573               529573               170213KP     1400+00000+KP0000003366+0000003366+000000000+000000472+0000003830+0000000008+I20000000000+0000003830+Z
529573001529573080-000124     529573006003000297733CARD & ENV VALENTINES  0000001000+00001578+00000+0001T   00001578+0000001416          1400 A48112               3AZ
529573002529573077-000357     529573006003000139354GIFT-BAG 18X23CM B/DAY 0000001000+00001753+00000+0001T   00001753+0000001416          1400 A48112               3AZ
529573003529573112-116038     529573006009681820246TCS CARRIER BAG MIDI   0000001000+00000035+00000+0001T   00000035+0000001416          1400 A48090               3AZ
529574000529574               529574               170213KP     1400+00000+KP0000010394+0000010394+000000000+000001457+0000011850+0000000001+I20000000000+0000011850+Z
529574001529574003-000250     529574006003000035045ORN DECOR NOVELTY GRASS0000001000+00001753+00000+0001T   00001753+0000001528          1400 A48505               3AZ
529574002529574368-000049     529574006003000536955PLUSH BEAR 15cm LOVE   0000001000+00004385+00000+0001T   00004385+0000001528          1400 A48745               3AZ
529574003529574007-000602     529574006003000541270BOOK COVER 2M SOLID COL0000001000+00002630+00000+0001T   00002630+0000001528          1400 A48130               3AZ
529574004529574018-000127     529574006001023380289MUG OCC STRAIGHT LOVE  0000001000+00001578+00000+0001T   00001753+0006471528          1400 A48515               3AZ
529574005529574112-116069     529574006009681820277TCS CARRIER BAG JUMBO  0000001000+00000048+00000+0001T   00000048+0000001528          1400 A48090               3AZ
529575000529575               529575               170213KP     1400+00000+KP0000001490+0000001490+000000000+000000209+0000001690+0000000009+I20000000000+0000001690+Z
529575001529575077-000299     529575006003000395576G/BAG 32x25cm LRG LOVE 0000001000+00001490+00000+0001T   00001490+0000001529          1400 A48112               3AZ
529576000529576               529576               170213KP     1400+00000+KP0000007016-0000007016-000000000+000000983-0000008000-0000000001+I20000000000+0000008000-Z
529576001529576004-071215     529576006003000459360MOBILE SELFI STICK 80cm0000001000-00007016+00000+0001T   00007016+0000001534          1400 A483101IC            3 Z
529577000529577               529577               170213KP     1400+00000+KP0000004385+0000004385+000000000+000000614+0000004990+0000000009+I20000000000+0000004990+Z
529577001529577082-000110     529577006003000360482READING GLS STRENGHT:2 0000001000+00004385+00000+0001T   00004385+0000001535          1400 A48160               3AZ
529578000529578               529578               170213KP     1400+00000+KP0000005260+0000005260+000000000+000000738+0000005990+0000000008+I20000000000+0000005990+Z
529578001529578106-001109     529578006003000666355W/BOTTLE 650ml         0000001000+00002630+00000+0001T   00002630+0000001536          1400 A48210               3AZ
529578002529578050-000364-Z   529578006001023777133PADLOCK IRON 38mm CARD 0000001000+00002630+00000+0001T   00002630+0000001536          1400 A48855               3AZ
529579000529579               529579               170213KP     1400+00000+KP0000012715+0000012715+000000000+000001781+0000014496+0000000000+I40000014496+0000000000+Z
529579001529579301-085003     529579006003000420827ORN OCCASION LOVE KEY  0000001000+00005262+00000+0001T   00005262+0000001538          1400 A48505               3AZ
529579002529579001-000175     529579006001023788108B/MUG GLS LOVE 380ML   0000001000+00004385+00000+0001T   00004385+0000001538          1400 A48515               3AZ
529579003529579080-000124     529579006003000297733CARD & ENV VALENTINES  0000001000+00001578+00000+0001T   00001578+0000001538          1400 A48112               3AZ
529579004529579077-000299     529579006003000395576G/BAG 32x25cm LRG LOVE 0000001000+00001490+00000+0001T   00001490+0000001538          1400 A48112               3AZ
529580000529580               529580               170213KP     1400+00000+KP0000001578+0000001578+000000000+000000221+0000001790+0000000009+I20000000000+0000001790+Z
529580001529580080-000124     529580006003000297733CARD & ENV VALENTINES  0000001000+00001578+00000+0001T   00001578+0000001538          1400 A48112               3AZ
529581000529581               529581               170213KP     1400+00000+KP0000018324+0000018324+000000000+000002568+0000020892+0000000000+I40000020892+0000000000+Z
529581001529581903-000200     529581006009826020234SWT CHOC RP CHOCO 23G  0000001000+00000788+00000+0001T   00000788+0000001631          1400 A48150               3AZ
529581002529581077-000311     529581006001023608666GIFT-BAG 11X14CM GLOSS 0000001000+00000613+00000+0001T   00000613+0000001631          1400 A48112               3AZ
529581003529581077-000310     529581006001023608635GIFT-BAG 18X23CM GLOSS 0000001000+00001314+00000+0001T   00001314+0000001631          1400 A48112               3AZ
529581004529581077-000303     529581006001023593757GIFT-BAG PAPER MED     0000001000+00001578+00000+0001T   00001578+0000001631          1400 A48112               3AZ
529581005529581903-000610     529581006003000610518SWEET JUMBO BUBBLE GUM 0000001000+00001753+00000+0001T   00001753+0000001631          1400 A48150               3AZ
529581006529581039-080945     529581006001023772053C/PILLAR ROUND WHITE   0000002000+00006139+00000+0001T   00006139+0000001631          1400 A48510               3AZ
529582000529582               529582               170213KP     1400+00000+KP0000002630+0000002630+000000000+000000369+0000002990+0000000009+I20000000000+0000002990+Z
529582001529582206-000620     529582006003000631797BACK SCRATCHER EXTEND  0000001000+00002630+00000+0001T   00002630+0000001632          1400 A48321               3AZ
529583000529583               529583               170213KP     1400+00000+KP0000005262+0000005262+000000000+000000737+0000005999+0000000000+I40000005999+0000000000+Z
529583001529583263-000623     529583006001023905697VEHICLE HELICOPTER 30cm0000001000+00005262+00000+0001T   00005262+0000001634          1400 A48710               3AZ
529584000529584               529584               170213KP     1400+00000+KP0000004908+0000004908+000000000+000000689+0000005597+0000000000+I40000005597+0000000000+Z
529584001529584304-001204     529584006001023737984FLOWER OCC. TEDDY/ROSES0000001000+00001402+00000+0001T   00001490+0006471636          1400 A48510               3AZ
529584002529584002-000805     529584006001023575982PEELER PL Y-SHAPE 3-ASS0000001000+00001753+00000+0001T   00001753+0000001636          1400 A48300               3AZ
529584003529584264-000921     529584000090159150442MAISTO CAR 3" FRESH    0000001000+00001753+00000+0001T   00001753+0000001636          1400 A48710               3AZ
529585000529585               529585               170213KP     1400+00000+KP0000021922+0000021922+000000000+000003071+0000024990+0000000003+I20000000000+0000024990+Z
529585001529585368-000637     529585006001023874092PLUSH BEAR SLEEPING LOV0000001000+00011402+00000+0001T   00012279+0006471639          1400 A48745               3AZ
529585002529585031-000020     529585006001023675293PICTURE-FRAME PL HEART 0000001000+00003507+00000+0001T   00003507+0000001639          1400 A48510               3AZ
529585003529585018-000136     529585006001023659026MUG OCC LOVE W/PLUSH   0000001000+00003507+00000+0001T   00003507+0000001639          1400 A48515               3AZ
529585004529585077-000290     529585006001023902023GIFT BOX 26x32x13cm    0000001000+00001753+00000+0001T   00001753+0000001639          1400 A48112               3AZ
529585005529585077-000289     529585006001023901996GIFT BOX 20x25x11cm    0000001000+00001753+00000+0001T   00001753+0000001639          1400 A48112               3AZ
529586000529586               529586               170213KP     1400+00000+KP0000001753+0000001753+000000000+000000246+0000001999+0000000000+I40000001999+0000000000+Z
529586001529586077-000316     529586006001023609731GIFT-BAG 25X32CM MATT  0000001000+00001753+00000+0001T   00001753+0000001641          1400 A48112               3AZ
529587000529587               529587               170213KP     1400+00000+KP0000001753+0000001753+000000000+000000246+0000001990+0000000009+I20000000000+0000001990+Z
529587001529587079-000341     529587006920705495519FELT-TIP PENS 12PCE    0000001000+00001753+00000+0001T   00001753+0000001643          1400 A48130               3AZ
529588000529588               529588               170213KP     1400+00000+KP0000003330+0000003330+000000000+000000467+0000003790+0000000007+I20000000000+0000003790+Z
529588001529588077-000322     529588006001023677532GIFT-BAG 18X23CM E/D FL0000001000+00001227+00000+0001T   00001227+0000001645          1400 A48112               3AZ
529588002529588077-000314     529588006003000181148GIFT-BAG 11X14CM MATT  0000001000+00000876+00000+0001T   00000876+0000001645          1400 A48112               3AZ
529588003529588903-000504     529588006001704012416SWT CHOC JELLY BEANS   0000001000+00001227+00000+0001T   00001227+0000001645          1400 A48150               3AZ
529589000529589               529589               170213KP     1400+00000+KP0000003028+0000003028+000000000+000000425+0000003450+0000000003+I20000000000+0000003450+Z
529589001529589036-000063     529589006009654960436COATHANGERS VIRGIN 5PCE0000001000+00001753+00000+0001T   00001753+0000001646          1400 A48212               3AZ
529589002529589133-000030     529589006001023755414KITCHEN-SWAB 30cm ASSTD0000001000+00001227+00000+0001T   00001227+0000001646          1400 A48212               3AZ
529589003529589112-116069     529589006009681820277TCS CARRIER BAG JUMBO  0000001000+00000048+00000+0001T   00000048+0000001646          1400 A48090               3AZ
529590000529590               529590               170213KP     1400+00000+KP0000004168+0000004168+000000000+000000585+0000004750+0000000003+I20000000000+0000004750+Z
529590001529590036-000151     529590006001023810588COATHANGERS    PACK-10 0000001000+00002893+00000+0001T   00002893+0000001647          1400 A48212               3AZ
529590002529590133-000030     529590006001023755414KITCHEN-SWAB 30cm ASSTD0000001000+00001227+00000+0001T   00001227+0000001647          1400 A48212               3AZ
529590003529590112-116069     529590006009681820277TCS CARRIER BAG JUMBO  0000001000+00000048+00000+0001T   00000048+0000001647          1400 A48090               3AZ
529591000529591               529591               170213KP     1400+00000+KP0000001227+0000001227+000000000+000000172+0000001390+0000000009+I20000000000+0000001390+Z
529591001529591251-000041     529591006001023515889SEAL-TAPE BUFF 48mmx50m0000001000+00001227+00000+0001T   00001227+0000001647          1400 A48810               3AZ
529592000529592               529592               170213KP     1400+00000+KP0000001402+0000001402+000000000+000000197+0000001590+0000000009+I20000000000+0000001590+Z
529592001529592304-001204     529592006001023737984FLOWER OCC. TEDDY/ROSES0000001000+00001402+00000+0001T   00001490+0006471648          1400 A48510               3AZ
529593000529593               529593               170213KP     1400+00000+KP0000001753+0000001753+000000000+000000246+0000001999+0000000000+I40000001999+0000000000+Z
529593001529593203-008282     529593006003000597703WINE GLS PL 2PC CHAMP. 0000001000+00001753+00000+0001T   00002630+0008171650          1400 A48300               3AZ
529594000529594               529594               170213KP     1400+00000+KP0000005295+0000005295+000000000+000000743+0000006030+0000000008+I20000000000+0000006030+Z
529594001529594563-000317-H   529594006001023776358SERVIETTE DOTS+STRIPES 0000001000+00002630+00000+0001T   00002630+0000001657          1400 A48214               3AZ
529594002529594006-000220-B   529594006001023890870PARTY TABLE-CLOTH BOY  0000001000+00002630+00000+0001T   00002630+0000001657          1400 A48131               3AZ
529594003529594112-116038     529594006009681820246TCS CARRIER BAG MIDI   0000001000+00000035+00000+0001T   00000035+0000001657          1400 A48090               3AZ
529595000529595               529595               170213KP     1400+00000+KP0000004870+0000004870+000000000+000000683+0000005550+0000000003+I20000000000+0000005550+Z
529595001529595077-000270     529595006003000395453GIFT-BAG PPR JMB 33X45 0000001000+00002630+00000+0001T   00002630+0000001701          1400 A48112               3AZ
529595002529595080-000127     529595006003000424351VALENTINES DAY 36x24CM 0000001000+00002192+00000+0001T   00002192+0000001701          1400 A48112               3AZ
529595003529595112-116069     529595006009681820277TCS CARRIER BAG JUMBO  0000001000+00000048+00000+0001T   00000048+0000001701          1400 A48090               3AZ
529596000529596               529596               170213KP     1400+00000+KP0000004822+0000004822+000000000+000000676+0000005490+0000000008+I20000000000+0000005490+Z
529596001529596080-000127     529596006003000424351VALENTINES DAY 36x24CM 0000001000+00002192+00000+0001T   00002192+0000001702          1400 A48112               3AZ
529596002529596077-000270     529596006003000395453GIFT-BAG PPR JMB 33X45 0000001000+00002630+00000+0001T   00002630+0000001702          1400 A48112               3AZ
529597000529597               529597               170213KP     1400+00000+KP0000001753+0000001753+000000000+000000246+0000001990+0000000009+I20000000000+0000001990+Z
529597001529597077-000382     529597006003000247820GIFT-BAG MED 18X23CM   0000001000+00001753+00000+0001T   00001753+0000001702          1400 A48112               3AZ
529598000529598               529598               170213KP     1400+00000+KP0000005260+0000005260+000000000+000000738+0000005998+0000000000+I40000005998+0000000000+Z
529598001529598560-000202     529598006003000322008SNAKE PVC ASSTD        0000002000+00002630+00000+0001T   00002630+0000001707          1400 A48745               3AZ
529599000529599               529599               170213KP     1400+00000+KP0000001137+0000001137+000000000+000000160+0000001290+0000000007+I20000000000+0000001290+Z
529599001529599018-000177     529599006001023797513MUG MINI LOVE ASSTD    0000001000+00000700+00000+0001T   00000700+0000001709          1400 A48515               3AZ
529599002529599080-000133-A   529599006003000647019MINI VALENTINES CARD   0000001000+00000437+00000+0001T   00000437+0000001709          1400 A48112               3AZ
529600000529600               529600               170213KP     1400+00000+KP0000001314+0000001314+000000000+000000184+0000001490+0000000008+I20000000000+0000001490+Z
529600001529600077-000407     529600006003000145096G/BAG PP 19X26X8CM     0000001000+00001314+00000+0001T   00001314+0000001712          1400 A48112               3AZ
529601000529601               529601               170213KP     1400+00000+KP0000003730+0000003730+000000000+000000523+0000004250+0000000003+I20000000000+0000004250+Z
529601001529601080-000127     529601006003000424351VALENTINES DAY 36x24CM 0000001000+00002192+00000+0001T   00002192+0000001713          1400 A48112               3AZ
529601002529601077-000299     529601006003000395576G/BAG 32x25cm LRG LOVE 0000001000+00001490+00000+0001T   00001490+0000001713          1400 A48112               3AZ
529601003529601112-116069     529601006009681820277TCS CARRIER BAG JUMBO  0000001000+00000048+00000+0001T   00000048+0000001713          1400 A48090               3AZ
529602000529602               529602               170213KP     1400+00000+KP0000000525+0000000525+000000000+000000074+0000000590+0000000009+I20000000000+0000000590+Z
529602001529602903-000151     529602006009803374411SWT SML RND R/BOW LOLLY0000001000+00000525+00000+0001T   00000525+0000001717          1400 A48150               3AZ
A17021300                                          10051679KPSLAVE 3                       A483IC
A17021301                                          14014952KPSLAVE 3                       A483IC
M17021391                              CASH        KPSLAVE 3                       Z-REPORT No.   626TOTAL (Sales - Refunds)           4161.55       CASH TO BE BANKED                 2418.80       DEBIT CARDS                          0.00       CREDIT CARDS                      1742.75       Z-READING                         4161.55       AIRTIME DEBIT CARD SALES             0.00       AIRTIME CARD SALES                   0.00       OVERS/UNDERS                         0.00       AIRTIME CASH SALES                   0.00       GIFT CARDS                           0.00       GIFT CARD CASH SALES                 0.00       T O T A L  CASH PAYOUTS              0.00                                                                                                                                                                                                                                                                                                                                                      Z
M17021392                              CASH        KPABSENT                                                                                                                                                                                          ANNUAL LEAVE                                                                                                                                                                                    DAY OFF                                                                                                                                                                                         COMMENTS          Z READ NO-626                                   CASHIER-NOZIPHO                                 Z READ AMOUNT-4162                                                                                                                                                                                                                                                           Z
Y17021300                                          KP00007900372374+000079
ZKP17021319593 SLAVE 3      SALES DATA                     NEXT INVOICE NO.  529603 0626
X KP Slave 3 First invoice 529523 170213 Last invoice 529602 170213 Next invoice 529603 Total number of records 000000253 clbackup completed 19:59:00
