102445000102445               102445               170213KR     1400+00000+KR0000003728+0000003728+000000000+000000523+0000004251+0000000000+I40000004251+0000000000+Z
102445001102445077-000011-D   102445006001023808554TISSUE-WRAP WHITE 10PCE0000001000+00000876+00000+0001T   00000876+0000001019          1400 ZM8112               1AZ
102445002102445077-000470     102445006003000330171G-BAG DESGN SML 11X14CM0000001000+00001314+00000+0001T   00001314+0000001019          1400 ZM8112               1AZ
102445003102445077-000299     102445006003000395576G/BAG 32x25cm LRG LOVE 0000001000+00001490+00000+0001T   00001490+0000001019          1400 ZM8112               1AZ
102445004102445112-116069     102445006009681820277TCS CARRIER BAG JUMBO  0000001000+00000048+00000+0001T   00000048+0000001019          1400 ZM8090               1AZ
102446000102446               102446               170213KR     1400+00000+KR0000011598+0000011598+000000000+000001626+0000013220+0000000004+I20000000000+0000013220+Z
102446001102446112-116038     102446006009681820246TCS CARRIER BAG MIDI   0000001000+00000035+00000+0001T   00000035+0000001022          1400 ZM8090               1AZ
102446002102446566-001234     102446006003000217793STICKERS LASER ASSTD   0000001000+00001578+00000+0001T   00001578+0000001022          1400 ZM8130               1AZ
102446003102446007-000029     102446006003000577736PRICE FLASH 17x11cm    0000001000+00001753+00000+0001T   00001753+0000001022          1400 ZM8130               1AZ
102446004102446007-000235     102446006003000134434LABELS RECTANGULAR 60pc0000001000+00000876+00000+0001T   00000876+0000001022          1400 ZM8130               1AZ
102446005102446071-001012     102446006001023474445MARKERS BLACK ROUND    0000001000+00000876+00000+0001T   00000876+0000001022          1400 ZM8130               1AZ
102446006102446077-000240     102446006003000326259G/RIBBON 4PC PEARLIZED 0000001000+00001753+00000+0001T   00001753+0000001022          1400 ZM8112               1AZ
102446007102446077-000245     102446006001023759214GIFT-RIBBON METALLICx2 0000001000+00001227+00000+0001T   00001227+0000001022          1400 ZM8112               1AZ
102446008102446018-000177     102446006001023797513MUG MINI LOVE ASSTD    0000005000+00000700+00000+0001T   00000700+0000001022          1400 ZM8515               1AZ
102447000102447               102447               170213KR     1400+00000+KR0000016531+0000016531+000000000+000002317+0000018840+0000000008+I20000000000+0000018840+Z
102447001102447018-005009     102447006001023725608MUG W/PLUSH-BEAR LOVE  0000001000+00003507+00000+0001T   00003507+0000001024          1400 ZM8515               1AZ
102447002102447077-000309-A   102447006003000671007GIFT-BAG HOLOGRAM JMB  0000001000+00002192+00000+0001T   00002192+0000001024          1400 ZM8112               1AZ
102447003102447080-000133-A   102447006003000647019MINI VALENTINES CARD   0000001000+00000437+00000+0001T   00000437+0000001024          1400 ZM8112               1AZ
102447004102447016-006502     102447006003000618545S/JAR GLS HERMETICO    0000001000+00006139+00000+0001T   00006139+0000001024          1400 ZM8300               1AZ
102447005102447112-116069     102447006009681820277TCS CARRIER BAG JUMBO  0000001000+00000048+00000+0001T   00000048+0000001024          1400 ZM8090               1AZ
102447006102447079-013032-D   102447006003000389643RIBBONS                0000001000+00002630+00000+0001T   00002630+0000001024          1400 ZM8130               1AZ
102447007102447077-000348     102447006001023483287GIFT-BOWS 4,5cm 8PCE   0000001000+00001578+00000+0001T   00001578+0000001024          1400 ZM8112               1AZ
102448000102448               102448               170213KR     1400+00000+KR0000023553+0000023553+000000000+000003298+0000026850+0000000001+I20000000000+0000026850+Z
102448001102448112-116069     102448006009681820277TCS CARRIER BAG JUMBO  0000001000+00000048+00000+0001T   00000048+0000001032          1400 ZM8090               1AZ
102448002102448368-000614     102448006001023705808PLUSH LOVE 30cm        0000001000+00008771+00000+0001T   00008771+0000001032          1400 ZM8745               1AZ
102448003102448368-000049     102448006003000536955PLUSH BEAR 15cm LOVE   0000001000+00004385+00000+0001T   00004385+0000001032          1400 ZM8745               1AZ
102448004102448368-000099     102448006001023680259PLUSH DOG 23cm ASSTD   0000001000+00008771+00000+0001T   00008771+0000001032          1400 ZM8745               1AZ
102448005102448077-000303     102448006001023593757GIFT-BAG PAPER MED     0000001000+00001578+00000+0001T   00001578+0000001032          1400 ZM8112               1AZ
102449000102449               102449               170213KR     1400+00000+KR0000001490+0000001490+000000000+000000209+0000001690+0000000009+I20000000000+0000001690+Z
102449001102449077-000299     102449006003000395576G/BAG 32x25cm LRG LOVE 0000001000+00001490+00000+0001T   00001490+0000001041          1400 ZM8112               1AZ
102450000102450               102450               170213KR     1400+00000+KR0000007046+0000007046+000000000+000000989+0000008035+0000000000+I40000008035+0000000000+Z
102450001102450264-000921     102450000090159150442MAISTO CAR 3" FRESH    0000001000+00001753+00000+0001T   00001753+0000001053          1400 ZM8710               1AZ
102450002102450033-005919     102450006003000154883SEWING THREAD 24cm ASST0000001000+00001490+00000+0001T   00001490+0000001053          1400 ZM8200               1AZ
102450003102450078-000025     102450008887013700064SUPERGLUE 3g 1PCE CARD 0000001000+00000876+00000+0001T   00000876+0000001053          1400 ZM8810               1AZ
102450004102450046-000014     102450006001023725387BATTERIES SIZE:AAA 4PCE0000001000+00001139+00000+0001T   00001139+0000001053          1400 ZM8312               1AZ
102450005102450048-000859     102450006003000423422TORCH 9 LED PL 3XAAA   0000001000+00001753+00000+0001T   00001753+0000001053          1400 ZM8305               1AZ
102450006102450112-116038     102450006009681820246TCS CARRIER BAG MIDI   0000001000+00000035+00000+0001T   00000035+0000001053          1400 ZM8090               1AZ
102451000102451               102451               170213KR     1400+00000+KR0000001578+0000001578+000000000+000000221+0000001790+0000000009+I20000000000+0000001790+Z
102451001102451077-000303     102451006001023593757GIFT-BAG PAPER MED     0000001000+00001578+00000+0001T   00001578+0000001054          1400 ZM8112               1AZ
102452000102452               102452               170213KR     1400+00000+KR0000016707+0000016707+000000000+000002343+0000019050+0000000000+I20000000000+0000019050+Z
102452001102452105-001038     102452006003000615315CONTAINER W/VENT 1450ml0000004000+00002630+00000+0001T   00003507+0008161056          1400 ZM8210               1AZ
102452002102452035-000021     102452006002596020206UMBRELLA GENTS         0000001000+00006139+00000+0001T   00006139+0000001056          1400 ZM8205               1AZ
102452003102452112-116069     102452006009681820277TCS CARRIER BAG JUMBO  0000001000+00000048+00000+0001T   00000048+0000001056          1400 ZM8090               1AZ
102453000102453               102453               170213KR     1400+00000+KR0000006139+0000006139+000000000+000000860+0000006999+0000000000+I40000006999+0000000000+Z
102453001102453368-000265     102453006001023750914PLUSH BEAR 23CM ASSTD C0000001000+00006139+00000+0001T   00006139+0000001208          1400 ZM8745               1AZ
102454000102454               102454               170213KR     1400+00000+KR0000005260+0000005260+000000000+000000738+0000005990+0000000008+I20000000000+0000005990+Z
102454001102454463-000366     102454006001023789136SWIM W/NOODLE 150cm    0000002000+00002630+00000+0001T   00002630+0000001209          1400 ZM8785               1AZ
102455000102455               102455               170213KR     1400+00000+KR0000009254+0000009254+000000000+000001297+0000010551+0000000000+I40000010551+0000000000+Z
102455001102455200-000200     102455006008766091144BAKING ALUM FOIL 2PCE  0000001000+00002192+00000+0001T   00002192+0000001222          1400 ZM8214               1AZ
102455002102455563-000318-L   102455006003000407088SERVIETTES 33cm RED    0000001000+00002192+00000+0001T   00002192+0000001222          1400 ZM8214               1AZ
102455003102455463-000366     102455006001023789136SWIM W/NOODLE 150cm    0000001000+00002630+00000+0001T   00002630+0000001222          1400 ZM8785               1AZ
102455004102455106-003130     102455006001023625755ICE CUBE TRAY 21-CUBE  0000001000+00002192+00000+0001T   00002192+0000001222          1400 ZM8210               1AZ
102455005102455112-116069     102455006009681820277TCS CARRIER BAG JUMBO  0000001000+00000048+00000+0001T   00000048+0000001222          1400 ZM8090               1AZ
102456000102456               102456               170213KR     1400+00000+KR0000010525+0000010525+000000000+000001474+0000011999+0000000000+I40000011999+0000000000+Z
102456001102456368-000005     102456006003000616862PLUSH MONSTER 24cm     0000001000+00010525+00000+0001T   00010525+0000001223          1400 ZM8745               1AZ
102457000102457               102457               170213KR     1400+00000+KR0000003977+0000003977+000000000+000000557+0000004530+0000000004+I20000000000+0000004530+Z
102457001102457077-000310     102457006001023608635GIFT-BAG 18X23CM GLOSS 0000003000+00001314+00000+0001T   00001314+0000001225          1400 ZM8112               1AZ
102457002102457112-116038     102457006009681820246TCS CARRIER BAG MIDI   0000001000+00000035+00000+0001T   00000035+0000001225          1400 ZM8090               1AZ
102458000102458               102458               170213KR     1400+00000+KR0000008329+0000008329+000000000+000001168+0000009490+0000000007+I20000000000+0000009490+Z
102458001102458077-000290     102458006001023902023GIFT BOX 26x32x13cm    0000001000+00001753+00000+0001T   00001753+0000001227          1400 ZM8112               1AZ
102458002102458018-005007     102458006003000515516MUG OCC. LOVE W/HEARTS 0000001000+00006139+00000+0001T   00006139+0000001227          1400 ZM8515               1AZ
102458003102458080-000133     102458006003000535613CARD&ENV MINI ASTD DSGN0000001000+00000437+00000+0001T   00000437+0000001227          1400 ZM8112               1AZ
102459000102459               102459               170213KR     1400+00000+KR0000001226+0000001226+000000000+000000172+0000001390+0000000008+I20000000000+0000001390+Z
102459001102459077-000321     102459006001023677501GIFT-BAG 11X14CM E/D FL0000002000+00000613+00000+0001T   00000613+0000001232          1400 ZM8112               1AZ
102460000102460               102460               170213KR     1400+00000+KR0000005120+0000005120+000000000+000000717+0000005830+0000000007+I20000000000+0000005830+Z
102460001102460018-005009     102460006001023725608MUG W/PLUSH-BEAR LOVE  0000001000+00003507+00000+0001T   00003507+0000001233          1400 ZM8515               1AZ
102460002102460077-000303     102460006001023593757GIFT-BAG PAPER MED     0000001000+00001578+00000+0001T   00001578+0000001233          1400 ZM8112               1AZ
102460003102460112-116038     102460006009681820246TCS CARRIER BAG MIDI   0000001000+00000035+00000+0001T   00000035+0000001233          1400 ZM8090               1AZ
102461000102461               102461               170213KR     1400+00000+KR0000005262+0000005262+000000000+000000737+0000005990+0000000009+I20000000000+0000005990+Z
102461001102461019-000122     102461006001023809582PLANTER GALV 22cm ROUND0000001000+00005262+00000+0001T   00005262+0000001241          1400 ZM8510               1AZ
102462000102462               102462               170213KR     1400+00000+KR0000008803+0000008803+000000000+000001234+0000010037+0000000000+I40000010037+0000000000+Z
102462001102462039-000798     102462006001023617774CANDLES TEALITE BOX-50 0000001000+00006139+00000+0001T   00006139+0000001245          1400 ZM8510               1AZ
102462002102462077-000351     102462006003000139033GIFT-BAG 18X23CM E/D P 0000001000+00001753+00000+0001T   00001753+0000001245          1400 ZM8112               1AZ
102462003102462077-000011-D   102462006001023808554TISSUE-WRAP WHITE 10PCE0000001000+00000876+00000+0001T   00000876+0000001245          1400 ZM8112               1AZ
102462004102462112-116038     102462006009681820246TCS CARRIER BAG MIDI   0000001000+00000035+00000+0001T   00000035+0000001245          1400 ZM8090               1AZ
102463000102463               102463               170213KR     1400+00000+KR0000001490+0000001490+000000000+000000209+0000001690+0000000009+I20000000000+0000001690+Z
102463001102463077-000327     102463006001023677686GIFT-BAG 25X32CM E/D BA0000001000+00001490+00000+0001T   00001490+0000001249          1400 ZM8112               1AZ
102464000102464               102464               170213KR     1400+00000+KR0000001402+0000001402+000000000+000000197+0000001590+0000000009+I20000000000+0000001590+Z
102464001102464304-001204     102464006001023737984FLOWER OCC. TEDDY/ROSES0000001000+00001402+00000+0001T   00001490+0006471251          1400 ZM8510               1AZ
102465000102465               102465               170213KR     1400+00000+KR0000002630+0000002630+000000000+000000369+0000002990+0000000009+I20000000000+0000002990+Z
102465001102465071-003009     102465006001024011373PEN CLICK BALL+SFT GRIP0000001000+00002630+00000+0001T   00002630+0000001256          1400 ZM8130               1AZ
102466000102466               102466               170213KR     1400+00000+KR0000001801+0000001801+000000000+000000253+0000002050+0000000004+I20000000000+0000002050+Z
102466001102466077-000290     102466006001023902023GIFT BOX 26x32x13cm    0000001000+00001753+00000+0001T   00001753+0000001316          1400 ZM8112               1AZ
102466002102466112-116069     102466006009681820277TCS CARRIER BAG JUMBO  0000001000+00000048+00000+0001T   00000048+0000001316          1400 ZM8090               1AZ
102467000102467               102467               170213KR     1400+00000+KR0000002137+0000002137+000000000+000000300+0000002430+0000000007+I20000000000+0000002430+Z
102467001102467077-000321     102467006001023677501GIFT-BAG 11X14CM E/D FL0000001000+00000613+00000+0001T   00000613+0000001318          1400 ZM8112               1AZ
102467002102467077-000317     102467006001023609748GIFT-BAG 11X14CM E/D AN0000001000+00000613+00000+0001T   00000613+0000001318          1400 ZM8112               1AZ
102467003102467077-000011-D   102467006001023808554TISSUE-WRAP WHITE 10PCE0000001000+00000876+00000+0001T   00000876+0000001318          1400 ZM8112               1AZ
102467004102467112-116038     102467006009681820246TCS CARRIER BAG MIDI   0000001000+00000035+00000+0001T   00000035+0000001318          1400 ZM8090               1AZ
102468000102468               102468               170213KR     1400+00000+KR0000001753+0000001753+000000000+000000246+0000001999+0000000000+I40000001999+0000000000+Z
102468001102468565-000002     102468006003000308071NOVELTY GROWING ANIMALS0000001000+00001753+00000+0001T   00001753+0000001326          1400 ZM8745               1AZ
102469000102469               102469               170213KR     1400+00000+KR0000014067+0000014067+000000000+000001970+0000016037+0000000000+I40000016037+0000000000+Z
102469001102469368-000049     102469006003000536955PLUSH BEAR 15cm LOVE   0000002000+00004385+00000+0001T   00004385+0000001328          1400 ZM8745               1AZ
102469002102469301-086006     102469006003000498918ORN OCCASION LOVE 4ASTD0000001000+00005262+00000+0001T   00005262+0000001328          1400 ZM8505               1AZ
102469003102469112-116038     102469006009681820246TCS CARRIER BAG MIDI   0000001000+00000035+00000+0001T   00000035+0000001328          1400 ZM8090               1AZ
102470000102470               102470               170213KR     1400+00000+KR0000003114+0000003114+000000000+000000438+0000003550+0000000002+I20000000000+0000003550+Z
102470001102470077-000299     102470006003000395576G/BAG 32x25cm LRG LOVE 0000001000+00001490+00000+0001T   00001490+0000001331          1400 ZM8112               1AZ
102470002102470077-000010-U   102470006001023168863CREPE-PAPER CERISE-PINK0000001000+00000788+00000+0001T   00000788+0000001331          1400 ZM8112               1AZ
102470003102470077-000010-C   102470006001023123879CREPE-PAPER RED        0000001000+00000788+00000+0001T   00000788+0000001331          1400 ZM8112               1AZ
102470004102470112-116069     102470006009681820277TCS CARRIER BAG JUMBO  0000001000+00000048+00000+0001T   00000048+0000001331          1400 ZM8090               1AZ
102471000102471               102471               170213KR     1400+00000+KR0000004385+0000004385+000000000+000000614+0000004990+0000000009+I20000000000+0000004990+Z
102471001102471206-000180     102471006003000631223TEA INFUSER TEAMAN     0000001000+00004385+00000+0001T   00004385+0000001334          1400 ZM8321               1AZ
102472000102472               102472               170213KR     1400+00000+KR0000007365+0000007365+000000000+000001032+0000008390+0000000007+I20000000000+0000008390+Z
102472001102472077-000010-U   102472006001023168863CREPE-PAPER CERISE-PINK0000001000+00000788+00000+0001T   00000788+0000001338          1400 ZM8112               1AZ
102472002102472077-000466     102472006003000681693GIFT-BAG MTLC GLIT JMB 0000001000+00004385+00000+0001T   00004385+0000001338          1400 ZM8112               1AZ
102472003102472077-000926     102472006003000414178G/WRAP 700mmx2m LOVE   0000001000+00002192+00000+0001T   00002192+0000001338          1400 ZM8112               1AZ
102473000102473               102473               170213KR     1400+00000+KR0000009777+0000009777+000000000+000001372+0000011149+0000000000+I40000011149+0000000000+Z
102473001102473112-116069     102473006009681820277TCS CARRIER BAG JUMBO  0000001000+00000048+00000+0001T   00000048+0000001341          1400 ZM8090               1AZ
102473002102473077-000305     102473006003000395422GIFT-BAG WINE 10X35CM  0000002000+00001490+00000+0001T   00001490+0000001341          1400 ZM8112               1AZ
102473003102473566-000359     102473006003000582709STICKER BOOK LOVE SPARK0000001000+00002192+00000+0001T   00002192+0000001341          1400 ZM8130               1AZ
102473004102473304-001204     102473006001023737984FLOWER OCC. TEDDY/ROSES0000002000+00001402+00000+0001T   00001490+0006471341          1400 ZM8510               1AZ
102473005102473006-000800     102473006001023902801HAT CABARET 14x18cm    0000001000+00001753+00000+0001T   00001753+0000001341          1400 ZM8131               1AZ
102474000102474               102474               170213KR     1400+00000+KR0000001400+0000001400+000000000+000000196+0000001590+0000000006+I20000000000+0000001590+Z
102474001102474261-000121     102474006001023341600GUN-CAPS 8-SHOT CARD-9 0000002000+00000700+00000+0001T   00000700+0000001343          1400 ZM8710               1AZ
102475000102475               102475               170213KR     1400+00000+KR0000003942+0000003942+000000000+000000552+0000004490+0000000004+I20000000000+0000004490+Z
102475001102475077-000470     102475006003000330171G-BAG DESGN SML 11X14CM0000003000+00001314+00000+0001T   00001314+0000001345          1400 ZM8112               1AZ
102476000102476               102476               170213KR     1400+00000+KR0000005120+0000005120+000000000+000000717+0000005830+0000000007+I20000000000+0000005830+Z
102476001102476018-005009     102476006001023725608MUG W/PLUSH-BEAR LOVE  0000001000+00003507+00000+0001T   00003507+0000001347          1400 ZM8515               1AZ
102476002102476077-000303     102476006001023593757GIFT-BAG PAPER MED     0000001000+00001578+00000+0001T   00001578+0000001347          1400 ZM8112               1AZ
102476003102476112-116038     102476006009681820246TCS CARRIER BAG MIDI   0000001000+00000035+00000+0001T   00000035+0000001347          1400 ZM8090               1AZ
102477000102477               102477               170213KR     1400+00000+KR0000001139+0000001139+000000000+000000160+0000001290+0000000009+I20000000000+0000001290+Z
102477001102477903-000698     102477006002099007032SWT CANDY ECLAIRS 90g  0000001000+00001139+00000+0001T   00001139+0000001349          1400 ZM8150               1AZ
102478000102478               102478               170213KR     1400+00000+KR0000003594+0000003594+000000000+000000504+0000004090+0000000008+I20000000000+0000004090+Z
102478001102478304-001204     102478006001023737984FLOWER OCC. TEDDY/ROSES0000001000+00001402+00000+0001T   00001490+0006471355          1400 ZM8510               1AZ
102478002102478077-000926     102478006003000414178G/WRAP 700mmx2m LOVE   0000001000+00002192+00000+0001T   00002192+0000001355          1400 ZM8112               1AZ
102479000102479               102479               170213KR     1400+00000+KR0000004822+0000004822+000000000+000000676+0000005498+0000000000+I40000005498+0000000000+Z
102479001102479077-000300     102479006001023483249GIFT BOX OCCASIONS HEXG0000001000+00002192+00000+0001T   00002192+0000001357          1400 ZM8112               1AZ
102479002102479077-000005-B   102479006003000326617PAPER TISSUE PATTERN   0000001000+00002630+00000+0001T   00002630+0000001357          1400 ZM8112               1AZ
102480000102480               102480               170213KR     1400+00000+KR0000003069+0000003069+000000000+000000430+0000003490+0000000009+I20000000000+0000003490+Z
102480001102480206-000210     102480006003000631582TOOTHPICK HOLDER FLOWER0000001000+00003069+00000+0001T   00003069+0000001358          1400 ZM8321               1AZ
102481000102481               102481               170213KR     1400+00000+KR0000013155+0000013155+000000000+000001843+0000014990+0000000008+I20000000000+0000014990+Z
102481001102481077-000270     102481006003000395453GIFT-BAG PPR JMB 33X45 0000001000+00002630+00000+0001T   00002630+0000001358          1400 ZM8112               1AZ
102481002102481368-000005     102481006003000616862PLUSH MONSTER 24cm     0000001000+00010525+00000+0001T   00010525+0000001358          1400 ZM8745               1AZ
102482000102482               102482               170213KR     1400+00000+KR0000015780+0000015780+000000000+000002212+0000017992+0000000000+I40000017992+0000000000+Z
102482001102482007-000713     102482006003000227273NOTE-BK DIARY W/LOCK   0000002000+00003507+00000+0001T   00003507+0000001400          1400 ZM8130               1AZ
102482002102482071-030013     102482006003000283965PEN NVLTY NEON GEL 6PC 0000001000+00002630+00000+0001T   00002630+0000001400          1400 ZM8130               1AZ
102482003102482362-001052     102482006001023915078NAIL TEEN ART SET 5PCE 0000001000+00002630+00000+0001T   00002630+0000001400          1400 ZM8160               1AZ
102482004102482903-000919     102482006009802868577SWEET NOVELTY LASER POP0000002000+00001753+00000+0001T   00001753+0000001400          1400 ZM8150               1AZ
102483000102483               102483               170213KR     1400+00000+KR0000001753+0000001753+000000000+000000246+0000001999+0000000000+I40000001999+0000000000+Z
102483001102483080-000116     102483006003000253555CARD&ENVELOPE-HANDMADE 0000001000+00001753+00000+0001T   00001753+0000001401          1400 ZM8112               1AZ
102484000102484               102484               170213KR     1400+00000+KR0000009670+0000009670+000000000+000001360+0000011030+0000000000+I20000000000+0000011030+Z
102484001102484112-116038     102484006009681820246TCS CARRIER BAG MIDI   0000001000+00000035+00000+0001T   00000035+0000001406          1400 ZM8090               1AZ
102484002102484071-081101-A   102484006003000326549GLUE-STICK 25g BLISTER 0000004000+00000788+00000+0001T   00000788+0000001406          1400 ZM8130               1AZ
102484003102484071-004202     102484006001023417176SCISSORS-SCHOOL PL/MTL 0000005000+00001139+00000+0001T   00001139+0000001406          1400 ZM8130               1AZ
102484004102484071-081101-A   102484006003000326549GLUE-STICK 25g BLISTER 0000001000+00000788+00000+0001T   00000788+0000001406          1400 ZM8130               1AZ
102485000102485               102485               170213KR     1400+00000+KR0000003156+0000003156+000000000+000000442+0000003590+0000000008+I20000000000+0000003590+Z
102485001102485266-010101     102485006001023331885MARBLES 16mm 90 PC     0000002000+00001578+00000+0001T   00001578+0000001408          1400 ZM8710               1AZ
102486000102486               102486               170213KR     1400+00000+KR0000004385+0000004385+000000000+000000614+0000004999+0000000000+I40000004999+0000000000+Z
102486001102486204-000008     102486006003000567652MEMO HLDR MOM POLY     0000001000+00004385+00000+0001T   00004385+0000001413          1400 ZM8300               1AZ
102487000102487               102487               170213KR     1400+00000+KR0000001490+0000001490+000000000+000000209+0000001690+0000000009+I20000000000+0000001690+Z
102487001102487077-000299     102487006003000395576G/BAG 32x25cm LRG LOVE 0000001000+00001490+00000+0001T   00001490+0000001413          1400 ZM8112               1AZ
102488000102488               102488               170213KR     1400+00000+KR0000002240+0000002240+000000000+000000314+0000002550+0000000004+I20000000000+0000002550+Z
102488001102488080-000127     102488006003000424351VALENTINES DAY 36x24CM 0000001000+00002192+00000+0001T   00002192+0000001417          1400 ZM8112               1AZ
102488002102488112-116069     102488006009681820277TCS CARRIER BAG JUMBO  0000001000+00000048+00000+0001T   00000048+0000001417          1400 ZM8090               1AZ
102489000102489               102489               170213KR     1400+00000+KR0000007015+0000007015+000000000+000000983+0000007998+0000000000+I40000007998+0000000000+Z
102489001102489159-000040     102489006001023767691HOOK-HANGER 4PC S/S    0000001000+00002630+00000+0001T   00002630+0000001418          1400 ZM8200               1AZ
102489002102489028-000488     102489006001023458926TABLE-CLAMPS 4PCE   H&L0000001000+00004385+00000+0001T   00004385+0000001418          1400 ZM8305               1AZ
102490000102490               102490               170213KR     1400+00000+KR0000002192+0000002192+000000000+000000307+0000002490+0000000009+I20000000000+0000002490+Z
102490001102490016-006517     102490006003000351626S/JAR GLS CHECK 650ML  0000001000+00002192+00000+0001T   00002192+0000001420          1400 ZM8300               1AZ
102491000102491               102491               170213KR     1400+00000+KR0000000788+0000000788+000000000+000000111+0000000890+0000000009+I20000000000+0000000890+Z
102491001102491077-000010-D   102491006001023123886CREPE-PAPER WHITE      0000001000+00000788+00000+0001T   00000788+0000001427          1400 ZM8112               1AZ
102492000102492               102492               170213KR     1400+00000+KR0000004822+0000004822+000000000+000000676+0000005498+0000000000+I40000005498+0000000000+Z
102492001102492080-000127     102492006003000424351VALENTINES DAY 36x24CM 0000001000+00002192+00000+0001T   00002192+0000001446          1400 ZM8112               1AZ
102492002102492077-000270     102492006003000395453GIFT-BAG PPR JMB 33X45 0000001000+00002630+00000+0001T   00002630+0000001446          1400 ZM8112               1AZ
102493000102493               102493               170213KR     1400+00000+KR0000001575+0000001575+000000000+000000222+0000001797+0000000000+I40000001797+0000000000+Z
102493001102493903-000155     102493006009803374435SWT LOLLY I LUV U HEART0000002000+00000525+00000+0001T   00000525+0000001459          1400 ZM8150               1AZ
102493002102493903-000151     102493006009803374411SWT SML RND R/BOW LOLLY0000001000+00000525+00000+0001T   00000525+0000001459          1400 ZM8150               1AZ
102494000102494               102494               170213KR     1400+00000+KR0000004342+0000004342+000000000+000000610+0000004952+0000000000+I40000004952+0000000000+Z
102494001102494077-000290     102494006001023902023GIFT BOX 26x32x13cm    0000001000+00001753+00000+0001T   00001753+0000001507          1400 ZM8112               1AZ
102494002102494080-000113     102494006003000237449CARD&ENVLPE - LOVE     0000001000+00001753+00000+0001T   00001753+0000001507          1400 ZM8112               1AZ
102494003102494903-000119     102494006001704007337SWT COCONUT-WHEEL      0000001000+00000788+00000+0001T   00000788+0000001507          1400 ZM8150               1AZ
102494004102494112-116069     102494006009681820277TCS CARRIER BAG JUMBO  0000001000+00000048+00000+0001T   00000048+0000001507          1400 ZM8090               1AZ
102495000102495               102495               170213KR     1400+00000+KR0000004995+0000004995+000000000+000000701+0000005690+0000000006+I20000000000+0000005690+Z
102495001102495077-000354     102495006003000139224GIFT-BAG 25X32CM H/MADE0000001000+00001753+00000+0001T   00001753+0000001508          1400 ZM8112               1AZ
102495002102495077-000314     102495006003000181148GIFT-BAG 11X14CM MATT  0000001000+00000876+00000+0001T   00000876+0000001508          1400 ZM8112               1AZ
102495003102495077-000011-D   102495006001023808554TISSUE-WRAP WHITE 10PCE0000001000+00000876+00000+0001T   00000876+0000001508          1400 ZM8112               1AZ
102495004102495077-000299     102495006003000395576G/BAG 32x25cm LRG LOVE 0000001000+00001490+00000+0001T   00001490+0000001508          1400 ZM8112               1AZ
102496000102496               102496               170213KR     1400+00000+KR0000004385+0000004385+000000000+000000614+0000004990+0000000009+I20000000000+0000004990+Z
102496001102496077-000466     102496006003000681693GIFT-BAG MTLC GLIT JMB 0000001000+00004385+00000+0001T   00004385+0000001509          1400 ZM8112               1AZ
102497000102497               102497               170213KR     1400+00000+KR0000006839+0000006839+000000000+000000958+0000007797+0000000000+I40000007797+0000000000+Z
102497001102497368-000175     102497006003000270316PLUSH BEAR 4 ASSTD 18CM0000001000+00006139+00000+0001T   00006139+0000001511          1400 ZM8745               1AZ
102497002102497018-000177     102497006001023797513MUG MINI LOVE ASSTD    0000001000+00000700+00000+0001T   00000700+0000001511          1400 ZM8515               1AZ
102498000102498               102498               170213KR     1400+00000+KR0000010130+0000010130+000000000+000001420+0000011550+0000000000+I40000011550+0000000000+Z
102498001102498301-085008     102498006003000673933ORN OCC.LOVE TINSEL HRT0000001000+00003069+00000+0001T   00003069+0000001515          1400 ZM8505               1AZ
102498002102498006-000093     102498006003000539932PARTY BANNER FLAGS ASST0000001000+00001753+00000+0001T   00001753+0000001515          1400 ZM8131               1AZ
102498003102498566-000068     102498006003000418046POP UP LOVE 2 ASSTD    0000001000+00002192+00000+0001T   00002192+0000001515          1400 ZM8130               1AZ
102498004102498018-000170     102498006001023775528MUG OCC. LOVE 2PC MINI 0000001000+00002192+00000+0001T   00002192+0000001515          1400 ZM8515               1AZ
102498005102498112-116069     102498006009681820277TCS CARRIER BAG JUMBO  0000001000+00000048+00000+0001T   00000048+0000001515          1400 ZM8090               1AZ
102498006102498077-000151     102498006008766114676GIFT-WRAP C/PHANE ASSTD0000001000+00000876+00000+0001T   00000876+0000001515          1400 ZM8112               1AZ
102499000102499               102499               170213KR     1400+00000+KR0000005262+0000005262+000000000+000000737+0000005999+0000000000+I40000005999+0000000000+Z
102499001102499366-002195     102499006001023990549DRESS UP WINGS FEATHER 0000001000+00005262+00000+0001T   00005262+0000001518          1400 ZM8131               1AZ
102500000102500               102500               170213KR     1400+00000+KR0000006840+0000006840+000000000+000000958+0000007790+0000000008+I20000000000+0000007790+Z
102500001102500018-019000     102500006003000557288MUG OCC. LOVE JUMBO    0000001000+00005262+00000+0001T   00005262+0000001518          1400 ZM8515               1AZ
102500002102500080-000124     102500006003000297733CARD & ENV VALENTINES  0000001000+00001578+00000+0001T   00001578+0000001518          1400 ZM8112               1AZ
102501000102501               102501               170213KR     1400+00000+KR0000006609+0000006609+000000000+000000927+0000007530+0000000006+I20000000000+0000007530+Z
102501001102501903-000599     102501006003000608119SWEET BALLOONPUMP 18cm 0000001000+00002630+00000+0001T   00002630+0000001521          1400 ZM8150               1AZ
102501002102501077-000310     102501006001023608635GIFT-BAG 18X23CM GLOSS 0000001000+00001314+00000+0001T   00001314+0000001521          1400 ZM8112               1AZ
102501003102501162-096646     102501006001492966465#TAG HOT DEALS KIDS HR 0000001000+00002630+00000+0001T   00002630+0000001521          1400 ZM8160               1AZ
102501004102501112-116038     102501006009681820246TCS CARRIER BAG MIDI   0000001000+00000035+00000+0001T   00000035+0000001521          1400 ZM8090               1AZ
102502000102502               102502               170213KR     1400+00000+KR0000008767+0000008767+000000000+000001228+0000009990+0000000005+I20000000000+0000009990+Z
102502001102502567-075490     102502009780799375121BK NOVEL ROMANCE AFR   0000001000+00003507+00000+0001T   00003507+0000001522          1400 ZM8757               1AZ
102502002102502567-075490     102502009780799377576BK NOVEL ROMANCE AFR   0000001000+00003507+00000+0001T   00003507+0000001522          1400 ZM8757               1AZ
102502003102502089-000030     102502006003000575671K/CHAIN LOVE MTL ASSTD 0000001000+00001753+00000+0001T   00001753+0000001522          1400 ZM8205               1AZ
102503000102503               102503               170213KR     1400+00000+KR0000010960+0000010960+000000000+000001535+0000012490+0000000005+I20000000000+0000012490+Z
102503001102503566-000068     102503006003000418046POP UP LOVE 2 ASSTD    0000005000+00002192+00000+0001T   00002192+0000001524          1400 ZM8130               1AZ
102504000102504               102504               170213KR     1400+00000+KR0000005044+0000005044+000000000+000000708+0000005752+0000000000+I40000005752+0000000000+Z
102504001102504566-000068     102504006003000418046POP UP LOVE 2 ASSTD    0000001000+00002192+00000+0001T   00002192+0000001531          1400 ZM8130               1AZ
102504002102504304-001204     102504006001023737984FLOWER OCC. TEDDY/ROSES0000002000+00001402+00000+0001T   00001490+0006471531          1400 ZM8510               1AZ
102504003102504112-116069     102504006009681820277TCS CARRIER BAG JUMBO  0000001000+00000048+00000+0001T   00000048+0000001531          1400 ZM8090               1AZ
102505000102505               102505               170213KR     1400+00000+KR0000037758+0000037758+000000000+000005289+0000043040+0000000007+I20000000000+0000043040+Z
102505001102505162-093303     102505006001492933030SS MULTI WRISTWEAR     0000001000+00003507+00000+0001T   00003507+0000001542          1400 ZM8160               1AZ
102505002102505030-000038     102505006003000455706P/WALL CANVAS 20X20CM  0000002000+00007016+00000+0001T   00007016+0000001542          1400 ZM8505               1AZ
102505003102505303-000806     102505006001023409768COW-BELL BRASS(5BELLS) 0000001000+00005262+00000+0001T   00005262+0000001542          1400 ZM8510               1AZ
102505004102505305-074058     102505006001023816658W/CHIMES D/WOODEN 65cm 0000001000+00006139+00000+0001T   00006139+0000001542          1400 ZM8505               1AZ
102505005102505566-000323     102505006003000535958STICKER ROOM DEC TOWER 0000002000+00004385+00000+0001T   00004385+0000001542          1400 ZM8130               1AZ
102505006102505112-116069     102505006009681820277TCS CARRIER BAG JUMBO  0000001000+00000048+00000+0001T   00000048+0000001542          1400 ZM8090               1AZ
102506000102506               102506               170213KR     1400+00000+KR0000001139+0000001139+000000000+000000160+0000001290+0000000009+I20000000000+0000001290+Z
102506001102506046-000014     102506006001023725387BATTERIES SIZE:AAA 4PCE0000001000+00001139+00000+0001T   00001139+0000001544          1400 ZM8312               1AZ
102507000102507               102507               170213KR     1400+00000+KR0000057490+0000057490+000000000+000008053+0000065543+0000000000+I40000065543+0000000000+Z
102507001102507112-116069     102507006009681820277TCS CARRIER BAG JUMBO  0000001000+00000048+00000+0001T   00000048+0000001547          1400 ZM8090               1AZ
102507002102507494-059252     102507000078257592524TIRE-TUBE 91cm GIANT   0000001000+00005262+00000+0001T   00005262+0000001547          1400 ZM8787               1AZ
102507003102507469-004001     102507006003000241927B/BLOCKS 66PC POLICE   0000001000+00015788+00000+0001T   00015788+0000001547          1400 ZM8755               1AZ
102507004102507494-059258     102507000078257592586INTEX TUBE 76cm        0000001000+00005262+00000+0001T   00005262+0000001547          1400 ZM8787               1AZ
102507005102507494-059252     102507000078257592524TIRE-TUBE 91cm GIANT   0000001000+00005262+00000+0001T   00005262+0000001547          1400 ZM8787               1AZ
102507006102507079-011221     102507006001023705952CRAFT SET EMB PLASTER  0000001000+00001753+00000+0001T   00002192+0008151547          1400 ZM8130               1AZ
102507007102507494-059252     102507000078257592524TIRE-TUBE 91cm GIANT   0000001000+00005262+00000+0001T   00005262+0000001547          1400 ZM8787               1AZ
102507008102507089-000030     102507006003000575671K/CHAIN LOVE MTL ASSTD 0000001000+00001753+00000+0001T   00001753+0000001547          1400 ZM8205               1AZ
102507009102507361-000664     102507006003000157402DOLL BIG EYE BEAUTY    0000001000+00003507+00000+0001T   00004385+0008191547          1400 ZM8725               1AZ
102507010102507494-059256     102507000078257592562INTEX TUBE 91cm        0000002000+00005262+00000+0001T   00005262+0000001547          1400 ZM8787               1AZ
102507011102507106-005120     102507006001023897336ICE-LOLLY-MAKER 6PCE   0000001000+00003069+00000+0001T   00003069+0000001547          1400 ZM8210               1AZ
102508000102508               102508               170213KR     1400+00000+KR0000002191+0000002191+000000000+000000307+0000002490+0000000008+I20000000000+0000002490+Z
102508001102508077-000303     102508006001023593757GIFT-BAG PAPER MED     0000001000+00001578+00000+0001T   00001578+0000001549          1400 ZM8112               1AZ
102508002102508077-000321     102508006001023677501GIFT-BAG 11X14CM E/D FL0000001000+00000613+00000+0001T   00000613+0000001549          1400 ZM8112               1AZ
102509000102509               102509               170213KR     1400+00000+KR0000003506+0000003506+000000000+000000492+0000003998+0000000000+I40000003998+0000000000+Z
102509001102509077-000011-D   102509006001023808554TISSUE-WRAP WHITE 10PCE0000001000+00000876+00000+0001T   00000876+0000001552          1400 ZM8112               1AZ
102509002102509077-000456     102509006003000285549G/BAG METALLIC JMB EMB 0000001000+00002630+00000+0001T   00002630+0000001552          1400 ZM8112               1AZ
102510000102510               102510               170213KR     1400+00000+KR0000008588+0000008588+000000000+000001204+0000009792+0000000000+I40000009792+0000000000+Z
102510001102510150-001234-1   102510005019190010015PLATE-HANGER P/C SIZE-10000002000+00001314+00000+0001T   00001314+0000001600          1400 ZM8810               1AZ
102510002102510150-001234-2   102510005019190010022PLATE-HANGER P/C SIZE-20000004000+00001490+00000+0001T   00001490+0000001600          1400 ZM8810               1AZ
102511000102511               102511               170213KR     1400+00000+KR0000013375+0000013375+000000000+000001875+0000015250+0000000000+I20000000000+0000015250+Z
102511001102511016-006511     102511006003000673995S/JAR GLS CHALK W/LID  0000001000+00007016+00000+0001T   00007016+0000001602          1400 ZM8300               1AZ
102511002102511077-000245     102511006001023759214GIFT-RIBBON METALLICx2 0000001000+00001227+00000+0001T   00001227+0000001602          1400 ZM8112               1AZ
102511003102511162-083941     102511006001492839417SS HEADBANDS           0000001000+00001753+00000+0001T   00001753+0000001602          1400 ZM8160               1AZ
102511004102511079-013032-J   102511006003000542710A&C DIY COLOUR P/FLOWER0000001000+00001753+00000+0001T   00001753+0000001602          1400 ZM8130               1AZ
102511005102511080-000124     102511006003000297733CARD & ENV VALENTINES  0000001000+00001578+00000+0001T   00001578+0000001602          1400 ZM8112               1AZ
102511006102511112-116069     102511006009681820277TCS CARRIER BAG JUMBO  0000001000+00000048+00000+0001T   00000048+0000001602          1400 ZM8090               1AZ
102512000102512               102512               170213KR     1400+00000+KR0000007188+0000007188+000000000+000001007+0000008195+0000000000+I40000008195+0000000000+Z
102512001102512077-000150-D   102512006003000054343GIFT-WRAP CELLPHANE CLR0000001000+00000876+00000+0001T   00000876+0000001604          1400 ZM8112               1AZ
102512002102512007-000555     102512006001023848239MEMO-PAD MINI LOVE     0000001000+00000613+00000+0001T   00000613+0000001604          1400 ZM8130               1AZ
102512003102512027-009027     102512006003000235803BROOM FLAT 1.2m HANDLE 0000001000+00004385+00000+0001T   00004385+0000001604          1400 ZM8212               1AZ
102512004102512903-000844     102512005010478432567SWT CANDY DL LUV HEARTS0000001000+00001314+00000+0001T   00001314+0000001604          1400 ZM8150               1AZ
102513000102513               102513               170213KR     1400+00000+KR0000005295+0000005295+000000000+000000743+0000006030+0000000008+I20000000000+0000006030+Z
102513001102513362-001052     102513006001023915078NAIL TEEN ART SET 5PCE 0000001000+00002630+00000+0001T   00002630+0000001605          1400 ZM8160               1AZ
102513002102513007-000581     102513006001023710154NOTE-BOOK SET ASSTD    0000001000+00002630+00000+0001T   00002630+0000001605          1400 ZM8130               1AZ
102513003102513112-116038     102513006009681820246TCS CARRIER BAG MIDI   0000001000+00000035+00000+0001T   00000035+0000001605          1400 ZM8090               1AZ
102514000102514               102514               170213KR     1400+00000+KR0000002104+0000002104+000000000+000000295+0000002390+0000000009+I20000000000+0000002390+Z
102514001102514903-000095     102514006001704011495SWT SPECKLED-EGGS 100G 0000001000+00002104+00000+0001T   00002104+0000001607          1400 ZM8150               1AZ
102515000102515               102515               170213KR     1400+00000+KR0000005085+0000005085+000000000+000000712+0000005790+0000000007+I20000000000+0000005790+Z
102515001102515018-000136     102515006001023659026MUG OCC LOVE W/PLUSH   0000001000+00003507+00000+0001T   00003507+0000001609          1400 ZM8515               1AZ
102515002102515077-000303     102515006001023593757GIFT-BAG PAPER MED     0000001000+00001578+00000+0001T   00001578+0000001609          1400 ZM8112               1AZ
102516000102516               102516               170213KR     1400+00000+KR0000007364+0000007364+000000000+000001032+0000008396+0000000000+I40000008396+0000000000+Z
102516001102516301-085004     102516006003000420469ORN LOVE PLAQUE 21X10CM0000001000+00003507+00000+0001T   00003946+0006471612          1400 ZM8505               1AZ
102516002102516903-000211     102516006002099001238SWT GS MALLOW ICE CREAM0000001000+00001753+00000+0001T   00001753+0000001612          1400 ZM8150               1AZ
102516003102516903-000095     102516006001704011495SWT SPECKLED-EGGS 100G 0000001000+00002104+00000+0001T   00002104+0000001612          1400 ZM8150               1AZ
102517000102517               102517               170213KR     1400+00000+KR0000002227+0000002227+000000000+000000312+0000002530+0000000009+I20000000000+0000002530+Z
102517001102517563-000318-L   102517006003000407088SERVIETTES 33cm RED    0000001000+00002192+00000+0001T   00002192+0000001613          1400 ZM8214               1AZ
102517002102517112-116038     102517006009681820246TCS CARRIER BAG MIDI   0000001000+00000035+00000+0001T   00000035+0000001613          1400 ZM8090               1AZ
102518000102518               102518               170213KR     1400+00000+KR0000001490+0000001490+000000000+000000209+0000001690+0000000009+I20000000000+0000001690+Z
102518001102518079-000807     102518006003000670277ART+CRAFT WOODEN STICKS0000001000+00001490+00000+0001T   00001490+0000001615          1400 ZM8130               1AZ
102519000102519               102519               170213KR     1400+00000+KR0000008806+0000008806+000000000+000001233+0000010039+0000000000+I40000010039+0000000000+Z
102519001102519001-091415     102519006003000329113W/GLS OCC. LOVE 2PC 2800000001000+00008771+00000+0001T   00009648+0006471618          1400 ZM8515               1AZ
102519002102519112-116038     102519006009681820246TCS CARRIER BAG MIDI   0000001000+00000035+00000+0001T   00000035+0000001618          1400 ZM8090               1AZ
102520000102520               102520               170213KR     1400+00000+KR0000002835+0000002835+000000000+000000397+0000003230+0000000002+I20000000000+0000003230+Z
102520001102520018-000177     102520006001023797513MUG MINI LOVE ASSTD    0000004000+00000700+00000+0001T   00000700+0000001620          1400 ZM8515               1AZ
102520002102520112-116038     102520006009681820246TCS CARRIER BAG MIDI   0000001000+00000035+00000+0001T   00000035+0000001620          1400 ZM8090               1AZ
102521000102521               102521               170213KR     1400+00000+KR0000004379+0000004379+000000000+000000614+0000004990+0000000003+I20000000000+0000004990+Z
102521001102521006-000120     102521006001023346889BALLOONS 10PC MIX COL  0000001000+00001753+00000+0001T   00001753+0000001622          1400 ZM8131               1AZ
102521002102521018-000177     102521006001023797513MUG MINI LOVE ASSTD    0000001000+00000700+00000+0001T   00000700+0000001622          1400 ZM8515               1AZ
102521003102521903-000070     102521006001704001106SWT TOFFEE CREAMY 35g  0000001000+00000700+00000+0001T   00000700+0000001622          1400 ZM8150               1AZ
102521004102521006-001000     102521006003000093779HELIUM BALLOON FILL    0000002000+00000613+00000+0001T   00000613+0000001622          1400 ZM8131               1AZ
102522000102522               102522               170213KR     1400+00000+KR0000000876+0000000876+000000000+000000123+0000000990+0000000009+I20000000000+0000000990+Z
102522001102522076-000017     102522006001811010022TWINE COTTON 50g-BALL  0000001000+00000876+00000+0001T   00000876+0000001625          1400 ZM8810               1AZ
102523000102523               102523               170213KR     1400+00000+KR0000017542+0000017542+000000000+000002456+0000019990+0000000008+I20000000000+0000019990+Z
102523001102523266-007814     102523006003000656790BOYS PLAYSET MILITARY  0000001000+00017542+00000+0001T   00017542+0000001629          1400 ZM8710               1AZ
102524000102524               102524               170213KR     1400+00000+KR0000003945+0000003945+000000000+000000553+0000004498+0000000000+I40000004498+0000000000+Z
102524001102524077-000290     102524006001023902023GIFT BOX 26x32x13cm    0000001000+00001753+00000+0001T   00001753+0000001630          1400 ZM8112               1AZ
102524002102524077-000309-A   102524006003000671007GIFT-BAG HOLOGRAM JMB  0000001000+00002192+00000+0001T   00002192+0000001630          1400 ZM8112               1AZ
102525000102525               102525               170213KR     1400+00000+KR0000000876+0000000876+000000000+000000123+0000000990+0000000009+I20000000000+0000000990+Z
102525001102525077-000150-D   102525006003000054343GIFT-WRAP CELLPHANE CLR0000001000+00000876+00000+0001T   00000876+0000001631          1400 ZM8112               1AZ
102526000102526               102526               170213KR     1400+00000+KR0000002749+0000002749+000000000+000000387+0000003130+0000000006+I20000000000+0000003130+Z
102526001102526903-000151     102526006009803374411SWT SML RND R/BOW LOLLY0000001000+00000525+00000+0001T   00000525+0000001632          1400 ZM8150               1AZ
102526002102526006-000120     102526006001023346889BALLOONS 10PC MIX COL  0000001000+00001753+00000+0001T   00001753+0000001632          1400 ZM8131               1AZ
102526003102526006-000172-B   102526006003000609819BALLOONS METALLIC L/GRN0000002000+00000218+00000+0001T   00000218+0000001632          1400 ZM8131               1AZ
102526004102526112-116038     102526006009681820246TCS CARRIER BAG MIDI   0000001000+00000035+00000+0001T   00000035+0000001632          1400 ZM8090               1AZ
102527000102527               102527               170213KR     1400+00000+KR0000001050+0000001050+000000000+000000148+0000001198+0000000000+I40000001198+0000000000+Z
102527001102527080-000133-A   102527006003000647019MINI VALENTINES CARD   0000001000+00000437+00000+0001T   00000437+0000001634          1400 ZM8112               1AZ
102527002102527077-000321     102527006001023677501GIFT-BAG 11X14CM E/D FL0000001000+00000613+00000+0001T   00000613+0000001634          1400 ZM8112               1AZ
102528000102528               102528               170213KR     1400+00000+KR0000022173+0000022173+000000000+000003109+0000025282+0000000000+I40000025282+0000000000+Z
102528001102528112-116069     102528006009681820277TCS CARRIER BAG JUMBO  0000001000+00000048+00000+0001T   00000048+0000001636          1400 ZM8090               1AZ
102528002102528368-000157     102528006003000167401PLUSH RABBIT           0000001000+00007893+00000+0001T   00007893+0000001636          1400 ZM8745               1AZ
102528003102528036-000605     102528006001023158611WASHING-PEGS WDN PCK-240000004000+00001490+00000+0001T   00001490+0000001636          1400 ZM8212               1AZ
102528004102528903-000095     102528006001704011495SWT SPECKLED-EGGS 100G 0000001000+00002104+00000+0001T   00002104+0000001636          1400 ZM8150               1AZ
102528005102528006-000120     102528006001023346889BALLOONS 10PC MIX COL  0000001000+00001753+00000+0001T   00001753+0000001636          1400 ZM8131               1AZ
102528006102528080-000123     102528006003000237722CARD&ENVELOPE-SYMPATHY 0000001000+00001753+00000+0001T   00001753+0000001636          1400 ZM8112               1AZ
102528007102528077-000322     102528006001023677532GIFT-BAG 18X23CM E/D FL0000001000+00001227+00000+0001T   00001227+0000001636          1400 ZM8112               1AZ
102528008102528564-000012     102528006001023130075BUBBLE BOTTLE MAGIC    0000002000+00000700+00000+0001T   00000700+0000001636          1400 ZM8131               1AZ
102528009102528112-116038     102528006009681820246TCS CARRIER BAG MIDI   0000001000+00000035+00000+0001T   00000035+0000001636          1400 ZM8090               1AZ
102529000102529               102529               170213KR     1400+00000+KR0000001927+0000001927+000000000+000000271+0000002190+0000000008+I20000000000+0000002190+Z
102529001102529903-002890     102529008935001721352MENTOS GUM PURE F/MINT 0000001000+00001051+00000+0001T   00001051+0000001637          1400 ZM8150               1AZ
102529002102529306-000021-A   102529006001023891358EARBUDS COTTON 100PCE  0000001000+00000876+00000+0001T   00000876+0000001637          1400 ZM8200               1AZ
102530000102530               102530               170213KR     1400+00000+KR0000004420+0000004420+000000000+000000619+0000005030+0000000009+I20000000000+0000005030+Z
102530001102530001-000415     102530006003000461370BEER-MUG GLASS DAD     0000001000+00004385+00000+0001T   00004385+0000001640          1400 ZM8515               1AZ
102530002102530112-116038     102530006009681820246TCS CARRIER BAG MIDI   0000001000+00000035+00000+0001T   00000035+0000001640          1400 ZM8090               1AZ
102531000102531               102531               170213KR     1400+00000+KR0000006047+0000006047+000000000+000000849+0000006890+0000000006+I20000000000+0000006890+Z
102531001102531565-000084     102531006003000643431NOVELTY CATAPULT B/FLY 0000001000+00001753+00000+0001T   00001753+0000001641          1400 ZM8745               1AZ
102531002102531033-001363     102531006001023802057HAIR-CLIPS 50mm 48PCE  0000001000+00001139+00000+0001T   00001139+0000001641          1400 ZM8200               1AZ
102531003102531903-000151     102531006009803374411SWT SML RND R/BOW LOLLY0000001000+00000525+00000+0001T   00000525+0000001641          1400 ZM8150               1AZ
102531004102531089-000100     102531006003000565665K/CHAIN PET LOVERS     0000001000+00002630+00000+0001T   00002630+0000001641          1400 ZM8205               1AZ
102532000102532               102532               170213KR     1400+00000+KR0000013025+0000013025+000000000+000001826+0000014851+0000000000+I40000014851+0000000000+Z
102532001102532079-000280     102532006003000160723PAINT READYMIX 6PCE    0000001000+00002630+00000+0001T   00002630+0000001649          1400 ZM8130               1AZ
102532002102532028-000799     102532006001023812186SKEWERS BAMBOO 100PCE  0000001000+00001578+00000+0001T   00001578+0000001649          1400 ZM8305               1AZ
102532003102532079-000275     102532006003000160488PAINT-BRUSHES 6PCE PRO 0000001000+00001753+00000+0001T   00001753+0000001649          1400 ZM8130               1AZ
102532004102532562-000070     102532006003000600748EDU PLAY DOUGH 50g 8pc 0000001000+00007016+00000+0001T   00007016+0000001649          1400 ZM8755               1AZ
102532005102532112-116069     102532006009681820277TCS CARRIER BAG JUMBO  0000001000+00000048+00000+0001T   00000048+0000001649          1400 ZM8090               1AZ
102533000102533               102533               170213KR     1400+00000+KR0000001753+0000001753+000000000+000000246+0000001990+0000000009+I20000000000+0000001990+Z
102533001102533077-000373     102533006003000395217G/BAG MED 18X23CM DESGN0000001000+00001753+00000+0001T   00001753+0000001700          1400 ZM8112               1AZ
102534000102534               102534               170213KR     1400+00000+KR0000001578+0000001578+000000000+000000221+0000001790+0000000009+I20000000000+0000001790+Z
102534001102534077-000303     102534006001023593757GIFT-BAG PAPER MED     0000001000+00001578+00000+0001T   00001578+0000001700          1400 ZM8112               1AZ
102535000102535               102535               170213KR     1400+00000+KR0000007576+0000007576+000000000+000001061+0000008637+0000000000+I40000008637+0000000000+Z
102535001102535204-000008     102535006003000567652MEMO HLDR MOM POLY     0000001000+00004385+00000+0001T   00004385+0000001703          1400 ZM8300               1AZ
102535002102535018-000127     102535006001023380289MUG OCC STRAIGHT LOVE  0000001000+00001578+00000+0001T   00001753+0006471703          1400 ZM8515               1AZ
102535003102535077-000303     102535006001023593757GIFT-BAG PAPER MED     0000001000+00001578+00000+0001T   00001578+0000001703          1400 ZM8112               1AZ
102535004102535112-116038     102535006009681820246TCS CARRIER BAG MIDI   0000001000+00000035+00000+0001T   00000035+0000001703          1400 ZM8090               1AZ
102536000102536               102536               170213KR     1400+00000+KR0000003682+0000003682+000000000+000000516+0000004190+0000000008+I20000000000+0000004190+Z
102536001102536077-000303     102536006001023593757GIFT-BAG PAPER MED     0000001000+00001578+00000+0001T   00001578+0000001703          1400 ZM8112               1AZ
102536002102536903-000095     102536006001704011495SWT SPECKLED-EGGS 100G 0000001000+00002104+00000+0001T   00002104+0000001703          1400 ZM8150               1AZ
102537000102537               102537               170213KR     1400+00000+KR0000002454+0000002454+000000000+000000344+0000002798+0000000000+I40000002798+0000000000+Z
102537001102537077-000011-D   102537006001023808554TISSUE-WRAP WHITE 10PCE0000001000+00000876+00000+0001T   00000876+0000001705          1400 ZM8112               1AZ
102537002102537077-000303     102537006001023593757GIFT-BAG PAPER MED     0000001000+00001578+00000+0001T   00001578+0000001705          1400 ZM8112               1AZ
102538000102538               102538               170213KR     1400+00000+KR0000006139+0000006139+000000000+000000860+0000006990+0000000009+I20000000000+0000006990+Z
102538001102538368-000265     102538006001023750914PLUSH BEAR 23CM ASSTD C0000001000+00006139+00000+0001T   00006139+0000001711          1400 ZM8745               1AZ
102539000102539               102539               170213KR     1400+00000+KR0000002980+0000002980+000000000+000000418+0000003398+0000000000+I40000003398+0000000000+Z
102539001102539016-006518     102539006003000351749S/JAR GLS CHECK 350ML  0000001000+00001753+00000+0001T   00001753+0000001714          1400 ZM8300               1AZ
102539002102539033-000013     102539006001023567215PILL-REMINDER PL       0000001000+00001227+00000+0001T   00001227+0000001714          1400 ZM8200               1AZ
102540000102540               102540               170213KR     1400+00000+KR0000001051+0000001051+000000000+000000148+0000001190+0000000009+I20000000000+0000001190+Z
102540001102540079-009702-F   102540008427973059392PAPER SIRIO A2 GREEN   0000001000+00001051+00000+0001T   00001051+0000001716          1400 ZM8130               1AZ
102541000102541               102541               170213KR     1400+00000+KR0000004857+0000004857+000000000+000000681+0000005530+0000000008+I20000000000+0000005530+Z
102541001102541206-000360     102541006003000631193CITRUS SPRAYER 3PC     0000001000+00001753+00000+0001T   00001753+0000001725          1400 ZM8321               1AZ
102541002102541206-000210     102541006003000631582TOOTHPICK HOLDER FLOWER0000001000+00003069+00000+0001T   00003069+0000001725          1400 ZM8321               1AZ
102541003102541112-116038     102541006009681820246TCS CARRIER BAG MIDI   0000001000+00000035+00000+0001T   00000035+0000001725          1400 ZM8090               1AZ
102542000102542               102542               170213KR     1400+00000+KR0000001490+0000001490+000000000+000000209+0000001699+0000000000+I40000001699+0000000000+Z
102542001102542077-000327     102542006001023677686GIFT-BAG 25X32CM E/D BA0000001000+00001490+00000+0001T   00001490+0000001743          1400 ZM8112               1AZ
102543000102543               102543               170213KR     1400+00000+KR0000005120+0000005120+000000000+000000717+0000005830+0000000007+I20000000000+0000005830+Z
102543001102543018-005009     102543006001023725608MUG W/PLUSH-BEAR LOVE  0000001000+00003507+00000+0001T   00003507+0000001749          1400 ZM8515               1AZ
102543002102543077-000303     102543006001023593757GIFT-BAG PAPER MED     0000001000+00001578+00000+0001T   00001578+0000001749          1400 ZM8112               1AZ
102543003102543112-116038     102543006009681820246TCS CARRIER BAG MIDI   0000001000+00000035+00000+0001T   00000035+0000001749          1400 ZM8090               1AZ
102544000102544               102544               170213KR     1400+00000+KR0000003592+0000003592+000000000+000000504+0000004096+0000000000+I40000004096+0000000000+Z
102544001102544077-000299     102544006003000395576G/BAG 32x25cm LRG LOVE 0000001000+00001490+00000+0001T   00001490+0000001751          1400 ZM8112               1AZ
102544002102544077-000010-U   102544006001023168863CREPE-PAPER CERISE-PINK0000001000+00000788+00000+0001T   00000788+0000001751          1400 ZM8112               1AZ
102544003102544077-000470     102544006003000330171G-BAG DESGN SML 11X14CM0000001000+00001314+00000+0001T   00001314+0000001751          1400 ZM8112               1AZ
102545000102545               102545               170213KR     1400+00000+KR0000002584+0000002584+000000000+000000363+0000002940+0000000007+I20000000000+0000002940+Z
102545001102545089-000030     102545006003000575671K/CHAIN LOVE MTL ASSTD 0000001000+00001753+00000+0001T   00001753+0000001752          1400 ZM8205               1AZ
102545002102545006-001000     102545006003000093779HELIUM BALLOON FILL    0000001000+00000613+00000+0001T   00000613+0000001752          1400 ZM8131               1AZ
102545003102545006-000172-K   102545006003000610334BALLOONS METALLIC PURPL0000001000+00000218+00000+0001T   00000218+0000001752          1400 ZM8131               1AZ
102546000102546               102546               170213KR     1400+00000+KR0000008363+0000008363+000000000+000001173+0000009530+0000000006+I20000000000+0000009530+Z
102546001102546018-000170     102546006001023775528MUG OCC. LOVE 2PC MINI 0000001000+00002192+00000+0001T   00002192+0000001753          1400 ZM8515               1AZ
102546002102546089-000220     102546006003000677368KEY CHAIN+PEN+KNIFE    0000001000+00003069+00000+0001T   00003069+0000001753          1400 ZM8205               1AZ
102546003102546080-000133     102546006003000535613CARD&ENV MINI ASTD DSGN0000001000+00000437+00000+0001T   00000437+0000001753          1400 ZM8112               1AZ
102546004102546072-020304     102546006001023602497PET DOG-CHEW STRING    0000001000+00002630+00000+0001T   00002630+0000001753          1400 ZM8870               1AZ
102546005102546112-116038     102546006009681820246TCS CARRIER BAG MIDI   0000001000+00000035+00000+0001T   00000035+0000001753          1400 ZM8090               1AZ
102547000102547               102547               170213KR     1400+00000+KR0000001226+0000001226+000000000+000000172+0000001390+0000000008+I20000000000+0000001390+Z
102547001102547006-001000     102547006003000093779HELIUM BALLOON FILL    0000002000+00000613+00000+0001T   00000613+0000001754          1400 ZM8131               1AZ
102548000102548               102548               170213KR     1400+00000+KR0000000700+0000000700+000000000+000000098+0000000790+0000000008+I20000000000+0000000790+Z
102548001102548018-000177     102548006001023797513MUG MINI LOVE ASSTD    0000001000+00000700+00000+0001T   00000700+0000001755          1400 ZM8515               1AZ
102549000102549               102549               170213KR     1400+00000+KR0000005120+0000005120+000000000+000000717+0000005837+0000000000+I40000005837+0000000000+Z
102549001102549018-005009     102549006001023725608MUG W/PLUSH-BEAR LOVE  0000001000+00003507+00000+0001T   00003507+0000001758          1400 ZM8515               1AZ
102549002102549077-000303     102549006001023593757GIFT-BAG PAPER MED     0000001000+00001578+00000+0001T   00001578+0000001758          1400 ZM8112               1AZ
102549003102549112-116038     102549006009681820246TCS CARRIER BAG MIDI   0000001000+00000035+00000+0001T   00000035+0000001758          1400 ZM8090               1AZ
102550000102550               102550               170213KR     1400+00000+KR0000000613+0000000613+000000000+000000086+0000000690+0000000009+I20000000000+0000000690+Z
102550001102550077-000317     102550006001023609748GIFT-BAG 11X14CM E/D AN0000001000+00000613+00000+0001T   00000613+0000001800          1400 ZM8112               1AZ
102551000102551               102551               170213KR     1400+00000+KR0000007922+0000007922+000000000+000001111+0000009030+0000000003+I20000000000+0000009030+Z
102551001102551033-001363     102551006001023802057HAIR-CLIPS 50mm 48PCE  0000001000+00001139+00000+0001T   00001139+0000001803          1400 ZM8200               1AZ
102551002102551073-000158     102551006003000683352COSMETIC BAG 18x10x3   0000001000+00002192+00000+0001T   00002192+0000001803          1400 ZM8200               1AZ
102551003102551033-010721     102551006001023678669SAFETY-PINS 20PCE ASSTD0000001000+00000700+00000+0001T   00000700+0000001803          1400 ZM8200               1AZ
102551004102551903-000922     102551006914204008158SWT ST NOVELTY CAR     0000001000+00002630+00000+0001T   00002630+0000001803          1400 ZM8150               1AZ
102551005102551112-116038     102551006009681820246TCS CARRIER BAG MIDI   0000001000+00000035+00000+0001T   00000035+0000001803          1400 ZM8090               1AZ
102551006102551083-000055     102551006003000003853LIGHTER ELCTRNC REFILBL0000002000+00000613+00000+0001T   00000613+0000001803          1400 ZM8315               1AZ
102552000102552               102552               170213KR     1400+00000+KR0000010025+0000010025+000000000+000001408+0000011430+0000000003+I20000000000+0000011430+Z
102552001102552903-000482     102552006001704001397SWT SOFT-MINTS 60G     0000001000+00000876+00000+0001T   00000876+0000001804          1400 ZM8150               1AZ
102552002102552002-000153     102552006001023138804MEAT-TENDERIZER        0000001000+00004385+00000+0001T   00004385+0000001804          1400 ZM8300               1AZ
102552003102552108-001028     102552006009654960733TUMBLERS PL SET-OF-6   0000001000+00001753+00000+0001T   00002630+0008171804          1400 ZM8210               1AZ
102552004102552108-004000-B   102552006003000058419PLATE DINNER ASSTD CLR 0000004000+00000744+00000+0001T   00000744+0000001804          1400 ZM8210               1AZ
102552005102552112-116038     102552006009681820246TCS CARRIER BAG MIDI   0000001000+00000035+00000+0001T   00000035+0000001804          1400 ZM8090               1AZ
102553000102553               102553               170213KR     1400+00000+KR0000002630+0000002630+000000000+000000369+0000002990+0000000009+I20000000000+0000002990+Z
102553001102553079-013101     102553006001023863706CRAFT SET DIY PIPE-CLNR0000001000+00002630+00000+0001T   00002630+0000001805          1400 ZM8130               1AZ
A17021300                                          09435403KRSLAVE 1                       ZM83IC
C10246800                                          170213KR077-000115-B   13231345SLAVE 1     ZM81IC0000000000+0000000000+0010000001000+
M17021391                              CASH        KRSLAVE 1                       Z-REPORT No.   636TOTAL (Sales - Refunds)           7842.05       CASH TO BE BANKED                 4430.60       DEBIT CARDS                          0.00       CREDIT CARDS                      3411.45       Z-READING                         7842.05       AIRTIME DEBIT CARD SALES             0.00       AIRTIME CARD SALES                   0.00       OVERS/UNDERS                         0.00       AIRTIME CASH SALES                   0.00       GIFT CARDS                           0.00       GIFT CARD CASH SALES                 0.00       T O T A L  CASH PAYOUTS              0.00                                                                                                                                                                                                                                                                                                                                                      Z
M17021392                              CASH        KRABSENT                                                                                                                                                                                          ANNUAL LEAVE                                                                                                                                                                                    DAY OFF                                                                                                                                                                                         COMMENTS          Z READ TOTAL R7842.05                           SLV 1                                                                                                                                                                                                                                                                                                                        Z
Y17021300                                          KR00000000688232+000109
ZKR17021319593 SLAVE 1      SALES DATA                     NEXT INVOICE NO.  102554 0636
X KR Slave 1 First invoice 102445 170213 Last invoice 102553 170213 Next invoice 102554 Total number of records 000000401 clbackup completed 19:59:08
