114672000114672               114672               170213KR     1400+00000+KR0000002630+0000002630+000000000+000000369+0000002999+0000000000+I40000002999+0000000000+Z
114672001114672087-000109     114672006001023714244RAZOR UNISEX 6-BLADE   0000001000+00002630+00000+0001T   00002630+0000000854          1400 UI4200               2AZ
114673000114673               114673               170213KR     1400+00000+KR0000008771+0000008771+000000000+000001228+0000009990+0000000009+I20000000000+0000009990+Z
114673001114673464-008106     114673006003000611966GAME 3 IN 1 CHESS      0000001000+00008771+00000+0001T   00008771+0000000902          1400 UI4785               2AZ
114674000114674               114674               170213KR     1400+00000+KR0000001753+0000001753+000000000+000000246+0000001990+0000000009+I20000000000+0000001990+Z
114674001114674077-000324     114674006001023677594GIFT-BAG 33X45CM E/D FL0000001000+00001753+00000+0001T   00001753+0000000909          1400 UI4112               2AZ
114675000114675               114675               170213KR     1400+00000+KR0000002227+0000002227+000000000+000000312+0000002539+0000000000+I40000002539+0000000000+Z
114675001114675563-000318-L   114675006003000407088SERVIETTES 33cm RED    0000001000+00002192+00000+0001T   00002192+0000000924          1400 UI4214               2AZ
114675002114675112-116038     114675006009681820246TCS CARRIER BAG MIDI   0000001000+00000035+00000+0001T   00000035+0000000924          1400 UI4090               2AZ
114676000114676               114676               170213KR     1400+00000+KR0000007050+0000007050+000000000+000000988+0000008030+0000000008+I20000000000+0000008030+Z
114676001114676072-020305     114676006003000024261PET DOG ASST CANVAS TOY0000001000+00002630+00000+0001T   00002630+0000000929          1400 UI4870               2AZ
114676002114676072-020262     114676006003000305254PET DOG-CHEW TYRE LARGE0000001000+00004385+00000+0001T   00004385+0000000929          1400 UI4870               2AZ
114676003114676112-116038     114676006009681820246TCS CARRIER BAG MIDI   0000001000+00000035+00000+0001T   00000035+0000000929          1400 UI4090               2AZ
114677000114677               114677               170213KR     1400+00000+KR0000005262+0000005262+000000000+000000737+0000005999+0000000000+I40000005999+0000000000+Z
114677001114677107-004510     114677006002580008968STEP-STOOL PL          0000001000+00005262+00000+0001T   00005262+0000000950          1400 UI4210               2AZ
114678000114678               114678               170213KR     1400+00000+KR0000003104+0000003104+000000000+000000435+0000003530+0000000009+I20000000000+0000003530+Z
114678001114678031-000921     114678006001023667755P/FRAME COLLAGE 4-HOLE 0000001000+00003069+00000+0001T   00003069+0000000957          1400 UI4510               2AZ
114678002114678112-116038     114678006009681820246TCS CARRIER BAG MIDI   0000001000+00000035+00000+0001T   00000035+0000000957          1400 UI4090               2AZ
114679000114679               114679               170213KR     1400+00000+KR0000001051+0000001051+000000000+000000148+0000001190+0000000009+I20000000000+0000001190+Z
114679001114679903-002890     114679008935001721352MENTOS GUM PURE F/MINT 0000001000+00001051+00000+0001T   00001051+0000000959          1400 UI4150               2AZ
114680000114680               114680               170213KR     1400+00000+KR0000005262+0000005262+000000000+000000737+0000005990+0000000009+I20000000000+0000005990+Z
114680001114680267-000246     114680006003000656219PUZZLE JIGSAW GO CART  0000001000+00005262+00000+0001T   00005262+0000001005          1400 UI4755               2AZ
114681000114681               114681               170213KR     1400+00000+KR0000006139+0000006139+000000000+000000860+0000006999+0000000000+I40000006999+0000000000+Z
114681001114681463-000363     114681006001023400673SWIM-SET MASK+SNORKEL  0000001000+00006139+00000+0001T   00006139+0000001018          1400 UI4785               2AZ
114682000114682               114682               170213KR     1400+00000+KR0000007453+0000007453+000000000+000001044+0000008497+0000000000+I40000008497+0000000000+Z
114682001114682206-000100     114682006003000628063TONGS ICE COLD FINGERS 0000001000+00002192+00000+0001T   00002192+0000001021          1400 UI4321               2AZ
114682002114682206-000150     114682006003000628667SLICER CUCUMBER        0000001000+00002192+00000+0001T   00002192+0000001021          1400 UI4321               2AZ
114682003114682206-000210     114682006003000631582TOOTHPICK HOLDER FLOWER0000001000+00003069+00000+0001T   00003069+0000001021          1400 UI4321               2AZ
114683000114683               114683               170213KR     1400+00000+KR0000010309+0000010309+000000000+000001444+0000011753+0000000000+I40000011753+0000000000+Z
114683001114683031-086302-C   114683006001023910332P/FRAME COLL. PL 3-HOLE0000001000+00008771+00000+0001T   00008771+0000001026          1400 UI4510               2AZ
114683002114683077-000299     114683006003000395576G/BAG 32x25cm LRG LOVE 0000001000+00001490+00000+0001T   00001490+0000001026          1400 UI4112               2AZ
114683003114683112-116069     114683006009681820277TCS CARRIER BAG JUMBO  0000001000+00000048+00000+0001T   00000048+0000001026          1400 UI4090               2AZ
114684000114684               114684               170213KR     1400+00000+KR0000003541+0000003541+000000000+000000497+0000004038+0000000000+I40000004038+0000000000+Z
114684001114684006-000240     114684006003000460595PARTY INVITES 12PC     0000002000+00001753+00000+0001T   00001753+0000001115          1400 UI4131               2AZ
114684002114684112-116038     114684006009681820246TCS CARRIER BAG MIDI   0000001000+00000035+00000+0001T   00000035+0000001115          1400 UI4090               2AZ
114685000114685               114685               170213KR     1400+00000+KR0000004856+0000004856+000000000+000000680+0000005530+0000000006+I20000000000+0000005530+Z
114685001114685112-116038     114685006009681820246TCS CARRIER BAG MIDI   0000001000+00000035+00000+0001T   00000035+0000001117          1400 UI4090               2AZ
114685002114685077-000310     114685006001023608635GIFT-BAG 18X23CM GLOSS 0000001000+00001314+00000+0001T   00001314+0000001117          1400 UI4112               2AZ
114685003114685018-005009     114685006001023725608MUG W/PLUSH-BEAR LOVE  0000001000+00003507+00000+0001T   00003507+0000001117          1400 UI4515               2AZ
114686000114686               114686               170213KR     1400+00000+KR0000011874+0000011874+000000000+000001663+0000013537+0000000000+I40000013537+0000000000+Z
114686001114686001-091415     114686006003000329113W/GLS OCC. LOVE 2PC 2800000001000+00008771+00000+0001T   00009648+0006471121          1400 UI4515               2AZ
114686002114686077-000303     114686006001023593757GIFT-BAG PAPER MED     0000001000+00001578+00000+0001T   00001578+0000001121          1400 UI4112               2AZ
114686003114686077-000299     114686006003000395576G/BAG 32x25cm LRG LOVE 0000001000+00001490+00000+0001T   00001490+0000001121          1400 UI4112               2AZ
114686004114686112-116038     114686006009681820246TCS CARRIER BAG MIDI   0000001000+00000035+00000+0001T   00000035+0000001121          1400 UI4090               2AZ
114687000114687               114687               170213KR     1400+00000+KR0000004518+0000004518+000000000+000000633+0000005151+0000000000+I40000005151+0000000000+Z
114687001114687112-116069     114687006009681820277TCS CARRIER BAG JUMBO  0000001000+00000048+00000+0001T   00000048+0000001124          1400 UI4090               2AZ
114687002114687018-000177     114687006001023797513MUG MINI LOVE ASSTD    0000001000+00000700+00000+0001T   00000700+0000001124          1400 UI4515               2AZ
114687003114687077-000303     114687006001023593757GIFT-BAG PAPER MED     0000001000+00001578+00000+0001T   00001578+0000001124          1400 UI4112               2AZ
114687004114687080-000127     114687006003000424351VALENTINES DAY 36x24CM 0000001000+00002192+00000+0001T   00002192+0000001124          1400 UI4112               2AZ
114688000114688               114688               170213KR     1400+00000+KR0000007454+0000007454+000000000+000001044+0000008490+0000000008+I20000000000+0000008490+Z
114688001114688079-001108     114688006003000082650ART+CRAFT SET ART ASSTD0000001000+00002192+00000+0001T   00002192+0000001127          1400 UI4130               2AZ
114688002114688562-000001     114688006009801541556MARLIN PLASTIC ABACUS  0000001000+00005262+00000+0001T   00005262+0000001127          1400 UI4755               2AZ
114689000114689               114689               170213KR     1400+00000+KR0000000035+0000000035+000000000+000000005+0000000040+0000000000+I20000000000+0000000040+Z
114689001114689112-116038     114689006009681820246TCS CARRIER BAG MIDI   0000001000+00000035+00000+0001T   00000035+0000001127          1400 UI4090               2AZ
114690000114690               114690               170213KR     1400+00000+KR0000015788+0000015788+000000000+000002211+0000017999+0000000000+I40000017999+0000000000+Z
114690001114690028-000025     114690006003000422395COOLER BAG 39x20x27cm  0000001000+00015788+00000+0001T   00015788+0000001130          1400 UI4305               2AZ
114691000114691               114691               170213KR     1400+00000+KR0000003541+0000003541+000000000+000000497+0000004030+0000000008+I20000000000+0000004030+Z
114691001114691007-000551     114691006001023848079NOTE-PAD SHOP-LIST ASST0000002000+00001753+00000+0001T   00001753+0000001132          1400 UI4130               2AZ
114691002114691112-116038     114691006009681820246TCS CARRIER BAG MIDI   0000001000+00000035+00000+0001T   00000035+0000001132          1400 UI4090               2AZ
114692000114692               114692               170213KR     1400+00000+KR0000006174+0000006174+000000000+000000865+0000007030+0000000009+I20000000000+0000007030+Z
114692001114692368-000104     114692006001023751348PLUSH BEAR RUFFLED-LOOK0000001000+00006139+00000+0001T   00006139+0000001139          1400 UI4745               2AZ
114692002114692112-116038     114692006009681820246TCS CARRIER BAG MIDI   0000001000+00000035+00000+0001T   00000035+0000001139          1400 UI4090               2AZ
114693000114693               114693               170213KR     1400+00000+KR0000000000+0000000000+000000000+000000000+0000000000+0000000000+I20000000000+0000000000+Z
114693001114693368-000104     114693006001023751348PLUSH BEAR RUFFLED-LOOK0000001000-00006139+00000+0001T   00006139+0000001142          1400 UI47451IC            2 Z
114693002114693368-000175     114693006003000270316PLUSH BEAR 4 ASSTD 18CM0000001000+00006139+00000+0001T   00006139+0000001142          1400 UI4745               2 Z
114694000114694               114694               170213KR     1400+00000+KR0000010477+0000010477+000000000+000001469+0000011940+0000000006+I20000000000+0000011940+Z
114694001114694077-000289     114694006001023901996GIFT BOX 20x25x11cm    0000001000+00001753+00000+0001T   00001753+0000001148          1400 UI4112               2AZ
114694002114694903-000699     114694006002099007018SWT CANDY FRUIT CHEWS  0000001000+00001139+00000+0001T   00001139+0000001148          1400 UI4150               2AZ
114694003114694077-000289     114694006001023901996GIFT BOX 20x25x11cm    0000001000+00001753+00000+0001T   00001753+0000001148          1400 UI4112               2AZ
114694004114694018-000177     114694006001023797513MUG MINI LOVE ASSTD    0000002000+00000700+00000+0001T   00000700+0000001148          1400 UI4515               2AZ
114694005114694112-116069     114694006009681820277TCS CARRIER BAG JUMBO  0000001000+00000048+00000+0001T   00000048+0000001148          1400 UI4090               2AZ
114694006114694080-000127     114694006003000424351VALENTINES DAY 36x24CM 0000002000+00002192+00000+0001T   00002192+0000001148          1400 UI4112               2AZ
114695000114695               114695               170213KR     1400+00000+KR0000005431+0000005431+000000000+000000762+0000006193+0000000000+I40000006193+0000000000+Z
114695001114695077-000317     114695006001023609748GIFT-BAG 11X14CM E/D AN0000001000+00000613+00000+0001T   00000613+0000001152          1400 UI4112               2AZ
114695002114695077-000321     114695006001023677501GIFT-BAG 11X14CM E/D FL0000004000+00000613+00000+0001T   00000613+0000001152          1400 UI4112               2AZ
114695003114695077-000317     114695006001023609748GIFT-BAG 11X14CM E/D AN0000001000+00000613+00000+0001T   00000613+0000001152          1400 UI4112               2AZ
114695004114695903-000219     114695006925925911450SWT ERKO MALLOW CHOC   0000001000+00001753+00000+0001T   00001753+0000001152          1400 UI4150               2AZ
114696000114696               114696               170213KR     1400+00000+KR0000004385+0000004385+000000000+000000614+0000004990+0000000009+I20000000000+0000004990+Z
114696001114696002-000706     114696006001023111456SPATTER-PREVENTOR 28cm 0000001000+00004385+00000+0001T   00004385+0000001153          1400 UI4300               2AZ
114697000114697               114697               170213KR     1400+00000+KR0000024997+0000024997+000000000+000003500+0000028497+0000000000+I40000028497+0000000000+Z
114697001114697046-000012     114697006904708013062BATTERIES AA  CARD-OF-40000001000+00001314+00000+0001T   00001314+0000001208          1400 UI4312               2AZ
114697002114697265-001656     114697006001023867384RADIO CONTROL 4X4 CAR  0000001000+00023683+00000+0001T   00023683+0000001208          1400 UI4710               2AZ
114698000114698               114698               170213KR     1400+00000+KR0000000048+0000000048+000000000+000000007+0000000050+0000000005+I20000000000+0000000050+Z
114698001114698112-116069     114698006009681820277TCS CARRIER BAG JUMBO  0000001000+00000048+00000+0001T   00000048+0000001209          1400 UI4090               2AZ
114699000114699               114699               170213KR     1400+00000+KR0000000876+0000000876+000000000+000000123+0000000990+0000000009+I20000000000+0000000990+Z
114699001114699039-000319-7   114699006003000443109B/CANDLES LRG NUMBER-7 0000001000+00000876+00000+0001T   00000876+0000001211          1400 UI4510               2AZ
114700000114700               114700               170213KR     1400+00000+KR0000000613+0000000613+000000000+000000086+0000000690+0000000009+I20000000000+0000000690+Z
114700001114700083-000055     114700006003000003853LIGHTER ELCTRNC REFILBL0000001000+00000613+00000+0001T   00000613+0000001213          1400 UI4315               2AZ
114701000114701               114701               170213KR     1400+00000+KR0000001753+0000001753+000000000+000000246+0000001990+0000000009+I20000000000+0000001990+Z
114701001114701133-000010     114701006001023905215CLEANING CLOTHS 6PCE   0000001000+00001753+00000+0001T   00001753+0000001223          1400 UI4212               2AZ
114702000114702               114702               170213KR     1400+00000+KR0000001139+0000001139+000000000+000000160+0000001290+0000000009+I20000000000+0000001290+Z
114702001114702903-000710     114702006002099007056SWT REFRESHERS MINT    0000001000+00001139+00000+0001T   00001139+0000001223          1400 UI4150               2AZ
114703000114703               114703               170213KR     1400+00000+KR0000010572+0000010572+000000000+000001481+0000012053+0000000000+I40000012053+0000000000+Z
114703001114703077-000299-A   114703006003000670888GIFT-BAG PAPER JMB LOVE0000001000+00001753+00000+0001T   00001753+0000001234          1400 UI4112               2AZ
114703002114703031-000924     114703006001023669964P/FRAME COLLAGE PL     0000001000+00008771+00000+0001T   00008771+0000001234          1400 UI4510               2AZ
114703003114703112-116069     114703006009681820277TCS CARRIER BAG JUMBO  0000001000+00000048+00000+0001T   00000048+0000001234          1400 UI4090               2AZ
114704000114704               114704               170213KR     1400+00000+KR0000002015+0000002015+000000000+000000283+0000002290+0000000008+I20000000000+0000002290+Z
114704001114704304-001204     114704006001023737984FLOWER OCC. TEDDY/ROSES0000001000+00001402+00000+0001T   00001490+0006471252          1400 UI4510               2AZ
114704002114704083-000055     114704006003000003853LIGHTER ELCTRNC REFILBL0000001000+00000613+00000+0001T   00000613+0000001252          1400 UI4315               2AZ
114705000114705               114705               170213KR     1400+00000+KR0000002630+0000002630+000000000+000000369+0000002990+0000000009+I20000000000+0000002990+Z
114705001114705567-075466     114705009780263915709BK NOVEL ROMANCE       0000001000+00002630+00000+0001T   00002630+0000001255          1400 UI4757               2AZ
114706000114706               114706               170213KR     1400+00000+KR0000005260+0000005260+000000000+000000738+0000005998+0000000000+I40000005998+0000000000+Z
114706001114706567-075466     114706009780263920772BK NOVEL ROMANCE       0000002000+00002630+00000+0001T   00002630+0000001257          1400 UI4757               2AZ
114707000114707               114707               170213KR     1400+00000+KR0000001139+0000001139+000000000+000000160+0000001290+0000000009+I20000000000+0000001290+Z
114707001114707903-000087     114707006001704000161SWT SPECKLED-EGGS 50G  0000001000+00001139+00000+0001T   00001139+0000001302          1400 UI4150               2AZ
114708000114708               114708               170213KR     1400+00000+KR0000004419+0000004419+000000000+000000619+0000005030+0000000008+I20000000000+0000005030+Z
114708001114708112-116038     114708006009681820246TCS CARRIER BAG MIDI   0000001000+00000035+00000+0001T   00000035+0000001303          1400 UI4090               2AZ
114708002114708566-000068     114708006003000418046POP UP LOVE 2 ASSTD    0000001000+00002192+00000+0001T   00002192+0000001303          1400 UI4130               2AZ
114708003114708366-002695     114708006003000222766DRESS UP HAT ROUND GLIT0000001000+00002192+00000+0001T   00002192+0000001303          1400 UI4131               2AZ
114709000114709               114709               170213KR     1400+00000+KR0000004385+0000004385+000000000+000000614+0000004990+0000000009+I20000000000+0000004990+Z
114709001114709368-000049     114709006003000536955PLUSH BEAR 15cm LOVE   0000001000+00004385+00000+0001T   00004385+0000001304          1400 UI4745               2AZ
114710000114710               114710               170213KR     1400+00000+KR0000003945+0000003945+000000000+000000553+0000004498+0000000000+I40000004498+0000000000+Z
114710001114710047-000505     114710006009636901976PLUG-ADAPTOR 2-PIN     0000001000+00000876+00000+0001T   00000876+0000001309          1400 UI4880               2AZ
114710002114710105-001075     114710006001023844873LUNCH BOX 17x11x7cm    0000001000+00003069+00000+0001T   00003069+0000001309          1400 UI4210               2AZ
114711000114711               114711               170213KR     1400+00000+KR0000000876+0000000876+000000000+000000123+0000000990+0000000009+I20000000000+0000000990+Z
114711001114711071-003003     114711006003000144525PEN BALL PEN 3PCE BLACK0000001000+00000876+00000+0001T   00000876+0000001311          1400 UI4130               2AZ
114712000114712               114712               170213KR     1400+00000+KR0000001578+0000001578+000000000+000000221+0000001790+0000000009+I20000000000+0000001790+Z
114712001114712077-000303     114712006001023593757GIFT-BAG PAPER MED     0000001000+00001578+00000+0001T   00001578+0000001433          1400 UI4112               2AZ
114713000114713               114713               170213KR     1400+00000+KR0000001490+0000001490+000000000+000000209+0000001690+0000000009+I20000000000+0000001690+Z
114713001114713903-005003     114713006002580020106SWT DINKY DUMMIES 5PK  0000001000+00001490+00000+0001T   00001490+0000001434          1400 UI4150               2AZ
114714000114714               114714               170213KR     1400+00000+KR0000002839+0000002839+000000000+000000398+0000003230+0000000007+I20000000000+0000003230+Z
114714001114714566-000359     114714006003000582709STICKER BOOK LOVE SPARK0000001000+00002192+00000+0001T   00002192+0000001435          1400 UI4130               2AZ
114714002114714079-009700-D   114714006003000545711PAPER SIRIO A4 RED COL.0000002000+00000306+00000+0001T   00000306+0000001435          1400 UI4130               2AZ
114714003114714112-116038     114714006009681820246TCS CARRIER BAG MIDI   0000001000+00000035+00000+0001T   00000035+0000001435          1400 UI4090               2AZ
114715000114715               114715               170213KR     1400+00000+KR0000002192+0000002192+000000000+000000307+0000002490+0000000009+I20000000000+0000002490+Z
114715001114715566-000359     114715006003000582709STICKER BOOK LOVE SPARK0000001000+00002192+00000+0001T   00002192+0000001437          1400 UI4130               2AZ
114716000114716               114716               170213KR     1400+00000+KR0000009239+0000009239+000000000+000001296+0000010535+0000000000+I40000010535+0000000000+Z
114716001114716006-000812     114716006001023902832HAT CONE WITH TINSEL   0000001000+00000876+00000+0001T   00000876+0000001441          1400 UI4131               2AZ
114716002114716112-116038     114716006009681820246TCS CARRIER BAG MIDI   0000001000+00000035+00000+0001T   00000035+0000001441          1400 UI4090               2AZ
114716003114716079-014152     114716006003000253074ART+CRAFT PK50 ASSTD   0000001000+00003069+00000+0001T   00003069+0000001441          1400 UI4130               2AZ
114716004114716071-081103     114716006003000197002GLUE STICKS LIQUID 3PCE0000001000+00001753+00000+0001T   00001753+0000001441          1400 UI4130               2AZ
114716005114716566-001228     114716006003000284153STICKERS CRYSTAL ASSTD 0000001000+00001753+00000+0001T   00001753+0000001441          1400 UI4130               2AZ
114716006114716566-000070     114716006003000283798STICKERS POP UP ASSTD  0000001000+00001753+00000+0001T   00001753+0000001441          1400 UI4130               2AZ
114717000114717               114717               170213KR     1400+00000+KR0000001314+0000001314+000000000+000000184+0000001490+0000000008+I20000000000+0000001490+Z
114717001114717903-000844     114717005010478432567SWT CANDY DL LUV HEARTS0000001000+00001314+00000+0001T   00001314+0000001441          1400 UI4150               2AZ
114718000114718               114718               170213KR     1400+00000+KR0000014139+0000014139+000000000+000001980+0000016110+0000000009+I20000000000+0000016110+Z
114718001114718903-000843     114718008693029031067SWT GUMMY JELAXY 80G   0000001000+00000964+00000+0001T   00000964+0000001444          1400 UI4150               2AZ
114718002114718112-116038     114718006009681820246TCS CARRIER BAG MIDI   0000001000+00000035+00000+0001T   00000035+0000001444          1400 UI4090               2AZ
114718003114718903-000844     114718005010478432567SWT CANDY DL LUV HEARTS0000009000+00001314+00000+0001T   00001314+0000001444          1400 UI4150               2AZ
114718004114718006-000167-C   114718006003000516971BALLOONS PINK METALLIC 0000001000+00001314+00000+0001T   00001314+0000001444          1400 UI4131               2AZ
114719000114719               114719               170213KR     1400+00000+KR0000001788+0000001788+000000000+000000251+0000002030+0000000009+I20000000000+0000002030+Z
114719001114719024-000038     114719006001023477026MEASURING-JUG 1L (4CUP)0000001000+00001753+00000+0001T   00001753+0000001445          1400 UI4300               2AZ
114719002114719112-116038     114719006009681820246TCS CARRIER BAG MIDI   0000001000+00000035+00000+0001T   00000035+0000001445          1400 UI4090               2AZ
114720000114720               114720               170213KR     1400+00000+KR0000010524+0000010524+000000000+000001474+0000011998+0000000000+I40000011998+0000000000+Z
114720001114720567-010161     114720009780000008516BOOK TOP ASSTD MILLS   0000002000+00005262+00000+0001T   00005262+0000001449          1400 UI4757               2AZ
114721000114721               114721               170213KR     1400+00000+KR0000007049+0000007049+000000000+000000987+0000008030+0000000006+I20000000000+0000008030+Z
114721001114721018-000136     114721006001023659026MUG OCC LOVE W/PLUSH   0000001000+00003507+00000+0001T   00003507+0000001501          1400 UI4515               2AZ
114721002114721018-005009     114721006001023725608MUG W/PLUSH-BEAR LOVE  0000001000+00003507+00000+0001T   00003507+0000001501          1400 UI4515               2AZ
114721003114721112-116038     114721006009681820246TCS CARRIER BAG MIDI   0000001000+00000035+00000+0001T   00000035+0000001501          1400 UI4090               2AZ
114722000114722               114722               170213KR     1400+00000+KR0000008796+0000008796+000000000+000001235+0000010030+0000000001+I20000000000+0000010030+Z
114722001114722077-000150-D   114722006003000054343GIFT-WRAP CELLPHANE CLR0000008000+00000876+00000+0001T   00000876+0000001505          1400 UI4112               2AZ
114722002114722006-000804     114722006003000574445STREAMERS 6-ROLLS 2.5cm0000001000+00001753+00000+0001T   00001753+0000001505          1400 UI4131               2AZ
114722003114722112-116038     114722006009681820246TCS CARRIER BAG MIDI   0000001000+00000035+00000+0001T   00000035+0000001505          1400 UI4090               2AZ
114723000114723               114723               170213KR     1400+00000+KR0000065417+0000065417+000000000+000009168+0000074580+0000000005+I20000000000+0000074580+Z
114723001114723112-116069     114723006009681820277TCS CARRIER BAG JUMBO  0000001000+00000048+00000+0001T   00000048+0000001512          1400 UI4090               2AZ
114723002114723077-000299     114723006003000395576G/BAG 32x25cm LRG LOVE 0000001000+00001490+00000+0001T   00001490+0000001512          1400 UI4112               2AZ
114723003114723566-000359     114723006003000582709STICKER BOOK LOVE SPARK0000001000+00002192+00000+0001T   00002192+0000001512          1400 UI4130               2AZ
114723004114723306-000529     114723006003000571338TOOTHBRUSH HOLDER 20cm 0000002000+00001753+00000+0001T   00001753+0000001512          1400 UI4200               2AZ
114723005114723082-000392     114723006003000621811SPECTACLE REPAIR KIT   0000001000+00002192+00000+0001T   00002192+0000001512          1400 UI4160               2AZ
114723006114723033-001305     114723006003000667314HAIR PINS 4PC SNAP CLIP0000002000+00000788+00000+0001T   00000788+0000001512          1400 UI4200               2AZ
114723007114723306-000007     114723006001023905093DENTAL FLOSS METHOL    0000001000+00001753+00000+0001T   00001753+0000001512          1400 UI4200               2AZ
114723008114723085-007012     114723006001023909411P/TOOL 14in1 SS W/POUCH0000001000+00010525+00000+0001T   00010525+0000001512          1400 UI4305               2AZ
114723009114723362-003004     114723006003000294961HAIR CLIPS             0000001000+00001753+00000+0001T   00001753+0000001512          1400 UI4160               2AZ
114723010114723104-000184     114723006003000666157CUTLERY HOLDER PL 3-DIV0000001000+00003507+00000+0001T   00003507+0000001512          1400 UI4210               2AZ
114723011114723001-091415     114723006003000329113W/GLS OCC. LOVE 2PC 2800000001000+00008771+00000+0001T   00009648+0006471512          1400 UI4515               2AZ
114723012114723159-006023     114723006001023909817BATHROOM HOOK SUCTION  0000001000+00001753+00000+0001T   00002630+0008131512          1400 UI4200               2AZ
114723013114723033-000140     114723006003000676972HAIR BRUSH BRIGHT      0000001000+00002630+00000+0001T   00002630+0000001512          1400 UI4200               2AZ
114723014114723362-019375     114723006001023730664HAIR BAND SET 24PCE    0000004000+00000876+00000+0001T   00000876+0000001512          1400 UI4160               2AZ
114723015114723159-000643     114723006001023767028BACK-BRUSH ASSTD       0000001000+00003507+00000+0001T   00003507+0000001512          1400 UI4200               2AZ
114723016114723112-116069     114723006009681820277TCS CARRIER BAG JUMBO  0000001000+00000048+00000+0001T   00000048+0000001512          1400 UI4090               2AZ
114723017114723002-220009     114723006003000567478FOODCOVER COLL. ROUND  0000002000+00005262+00000+0001T   00005262+0000001512          1400 UI4300               2AZ
114723018114723001-000415     114723006003000461370BEER-MUG GLASS DAD     0000001000+00004385+00000+0001T   00004385+0000001512          1400 UI4515               2AZ
114723019114723903-000610     114723006003000610518SWEET JUMBO BUBBLE GUM 0000001000+00001753+00000+0001T   00001753+0000001512          1400 UI4150               2AZ
114724000114724               114724               170213KR     1400+00000+KR0000002630+0000002630+000000000+000000369+0000002990+0000000009+I20000000000+0000002990+Z
114724001114724034-078810     114724006001023856838DIAPER DISPOSE-BAGSx1000000001000+00002630+00000+0001T   00002630+0000001516          1400 UI4215               2AZ
114725000114725               114725               170213KR     1400+00000+KR0000016707+0000016707+000000000+000002342+0000019049+0000000000+I40000019049+0000000000+Z
114725001114725112-116069     114725006009681820277TCS CARRIER BAG JUMBO  0000001000+00000048+00000+0001T   00000048+0000001519          1400 UI4090               2AZ
114725002114725133-083230     114725006001023714305T/CLOTH 132x183cm OBLNG0000001000+00003507+00000+0001T   00003507+0000001519          1400 UI4212               2AZ
114725003114725007-010494     114725006003000500505BOARD BLACK WITH CHALK 0000002000+00002630+00000+0001T   00002630+0000001519          1400 UI4130               2AZ
114725004114725466-002096     114725006001023800398CATCHBALL VELCRO W/BALL0000001000+00005262+00000+0001T   00005262+0000001519          1400 UI4785               2AZ
114725005114725466-000584     114725006001023628787SKIPPING-ROPE          0000001000+00002630+00000+0001T   00002630+0000001519          1400 UI4785               2AZ
114726000114726               114726               170213KR     1400+00000+KR0000002630+0000002630+000000000+000000369+0000002990+0000000009+I20000000000+0000002990+Z
114726001114726366-006103     114726006001023786944DRESS UP FACE PAINT SET0000001000+00002630+00000+0001T   00002630+0000001521          1400 UI4131               2AZ
114727000114727               114727               170213KR     1400+00000+KR0000001578+0000001578+000000000+000000221+0000001799+0000000000+I40000001799+0000000000+Z
114727001114727077-000303     114727006001023593757GIFT-BAG PAPER MED     0000001000+00001578+00000+0001T   00001578+0000001541          1400 UI4112               2AZ
114728000114728               114728               170213KR     1400+00000+KR0000001137+0000001137+000000000+000000160+0000001290+0000000007+I20000000000+0000001290+Z
114728001114728018-000177     114728006001023797513MUG MINI LOVE ASSTD    0000001000+00000700+00000+0001T   00000700+0000001542          1400 UI4515               2AZ
114728002114728080-000133-A   114728006003000647019MINI VALENTINES CARD   0000001000+00000437+00000+0001T   00000437+0000001542          1400 UI4112               2AZ
114729000114729               114729               170213KR     1400+00000+KR0000001578+0000001578+000000000+000000221+0000001790+0000000009+I20000000000+0000001790+Z
114729001114729080-000124     114729006003000297733CARD & ENV VALENTINES  0000001000+00001578+00000+0001T   00001578+0000001544          1400 UI4112               2AZ
114730000114730               114730               170213KR     1400+00000+KR0000001490+0000001490+000000000+000000209+0000001690+0000000009+I20000000000+0000001690+Z
114730001114730077-000304     114730006001023483232GIFT-BAG 25X32CM E/DAY 0000001000+00001490+00000+0001T   00001490+0000001558          1400 UI4112               2AZ
114731000114731               114731               170213KR     1400+00000+KR0000001525+0000001525+000000000+000000214+0000001730+0000000009+I20000000000+0000001730+Z
114731001114731077-000299     114731006003000395576G/BAG 32x25cm LRG LOVE 0000001000+00001490+00000+0001T   00001490+0000001601          1400 UI4112               2AZ
114731002114731112-116038     114731006009681820246TCS CARRIER BAG MIDI   0000001000+00000035+00000+0001T   00000035+0000001601          1400 UI4090               2AZ
114732000114732               114732               170213KR     1400+00000+KR0000005875+0000005875+000000000+000000823+0000006690+0000000008+I20000000000+0000006690+Z
114732001114732368-000001     114732006003000097982Plush Bear 25cm        0000001000+00004385+00000+0001T   00004385+0000001602          1400 UI4745               2AZ
114732002114732077-000299     114732006003000395576G/BAG 32x25cm LRG LOVE 0000001000+00001490+00000+0001T   00001490+0000001602          1400 UI4112               2AZ
114733000114733               114733               170213KR     1400+00000+KR0000001490+0000001490+000000000+000000209+0000001699+0000000000+I40000001699+0000000000+Z
114733001114733567-014133     114733006003000560103BOOK COLOURING 48 PAGE 0000001000+00001490+00000+0001T   00001490+0000001604          1400 UI4757               2AZ
114734000114734               114734               170213KR     1400+00000+KR0000007923+0000007923+000000000+000001111+0000009034+0000000000+I40000009034+0000000000+Z
114734001114734071-081104-A   114734006003000326662GLUE-STICK 8g CRD-OF-3 0000001000+00001227+00000+0001T   00001227+0000001624          1400 UI4130               2AZ
114734002114734071-004202     114734006001023417176SCISSORS-SCHOOL PL/MTL 0000001000+00001139+00000+0001T   00001139+0000001624          1400 UI4130               2AZ
114734003114734079-000510     114734006001023509079CRAYONS WAX 12-COLOUR  0000002000+00002455+00000+0001T   00002455+0000001624          1400 UI4130               2AZ
114734004114734079-009700-D   114734006003000545711PAPER SIRIO A4 RED COL.0000002000+00000306+00000+0001T   00000306+0000001624          1400 UI4130               2AZ
114734005114734112-116038     114734006009681820246TCS CARRIER BAG MIDI   0000001000+00000035+00000+0001T   00000035+0000001624          1400 UI4090               2AZ
114735000114735               114735               170213KR     1400+00000+KR0000001578+0000001578+000000000+000000221+0000001790+0000000009+I20000000000+0000001790+Z
114735001114735077-000303     114735006001023593757GIFT-BAG PAPER MED     0000001000+00001578+00000+0001T   00001578+0000001625          1400 UI4112               2AZ
114736000114736               114736               170213KR     1400+00000+KR0000001578+0000001578+000000000+000000221+0000001790+0000000009+I20000000000+0000001790+Z
114736001114736077-000303     114736006001023593757GIFT-BAG PAPER MED     0000001000+00001578+00000+0001T   00001578+0000001625          1400 UI4112               2AZ
114737000114737               114737               170213KR     1400+00000+KR0000006613+0000006613+000000000+000000926+0000007530+0000000009+I20000000000+0000007530+Z
114737001114737486-002065     114737006003000057030C/ALARM QTZ PL SQUARE  0000001000+00006578+00000+0001T   00006578+0000001633          1400 UI4510               2AZ
114737002114737112-116038     114737006009681820246TCS CARRIER BAG MIDI   0000001000+00000035+00000+0001T   00000035+0000001633          1400 UI4090               2AZ
114738000114738               114738               170213KR     1400+00000+KR0000005297+0000005297+000000000+000000742+0000006030+0000000009+I20000000000+0000006030+Z
114738001114738040-000924     114738006001023801395LANTERN JAR GLASS      0000001000+00005262+00000+0001T   00005262+0000001635          1400 UI4510               2AZ
114738002114738112-116038     114738006009681820246TCS CARRIER BAG MIDI   0000001000+00000035+00000+0001T   00000035+0000001635          1400 UI4090               2AZ
114739000114739               114739               170213KR     1400+00000+KR0000001139+0000001139+000000000+000000160+0000001290+0000000009+I20000000000+0000001290+Z
114739001114739140-006004     114739006001023628077FLY-SWATTER RUBBER     0000001000+00001139+00000+0001T   00001139+0000001636          1400 UI4830               2AZ
114740000114740               114740               170213KR     1400+00000+KR0000003542+0000003542+000000000+000000496+0000004030+0000000008+I20000000000+0000004030+Z
114740001114740104-000025     114740006001023780287BASKET PL 28x17x11cm   0000001000+00003507+00000+0001T   00003507+0000001638          1400 UI4210               2AZ
114740002114740112-116038     114740006009681820246TCS CARRIER BAG MIDI   0000001000+00000035+00000+0001T   00000035+0000001638          1400 UI4090               2AZ
114741000114741               114741               170213KR     1400+00000+KR0000007715+0000007715+000000000+000001081+0000008796+0000000000+I40000008796+0000000000+Z
114741001114741079-000271     114741006003000160082PAINT-BRUSHES LRGE ART 0000001000+00003069+00000+0001T   00003069+0000001640          1400 UI4130               2AZ
114741002114741007-000324     11474100600968585864125 SHEETS BRIGHTS MARLI0000001000+00003507+00000+0001T   00003507+0000001640          1400 UI4130               2AZ
114741003114741903-000710     114741006002099007056SWT REFRESHERS MINT    0000001000+00001139+00000+0001T   00001139+0000001640          1400 UI4150               2AZ
114742000114742               114742               170213KR     1400+00000+KR0000001753+0000001753+000000000+000000246+0000001990+0000000009+I20000000000+0000001990+Z
114742001114742077-000289     114742006001023901996GIFT BOX 20x25x11cm    0000001000+00001753+00000+0001T   00001753+0000001642          1400 UI4112               2AZ
114743000114743               114743               170213KR     1400+00000+KR0000000612+0000000612+000000000+000000086+0000000690+0000000008+I20000000000+0000000690+Z
114743001114743079-009700-M   114743006003000634101PAPER SIRIO A4 PINK COL0000002000+00000306+00000+0001T   00000306+0000001644          1400 UI4130               2AZ
114744000114744               114744               170213KR     1400+00000+KR0000007016+0000007016+000000000+000000983+0000007999+0000000000+I40000007999+0000000000+Z
114744001114744263-000160     114744006001023690975MOTORBIKE FRIC QUAD    0000001000+00007016+00000+0001T   00007016+0000001648          1400 UI4710               2AZ
114745000114745               114745               170213KR     1400+00000+KR0000001314+0000001314+000000000+000000184+0000001490+0000000008+I20000000000+0000001490+Z
114745001114745563-000317-B   114745006001023776174SERVIETTES PLN WHT PK400000001000+00001314+00000+0001T   00001314+0000001648          1400 UI4214               2AZ
114746000114746               114746               170213KR     1400+00000+KR0000021162+0000021162+000000000+000002966+0000024120+0000000008+I20000000000+0000024120+Z
114746001114746007-010496     114746006003000640652MARKER WHITEBOARD 4PCE 0000001000+00001753+00000+0001T   00001753+0000001653          1400 UI4130               2AZ
114746002114746566-000202     114746006003000443567STCKRS SPARKLE RIM ASST0000001000+00001314+00000+0001T   00001314+0000001653          1400 UI4130               2AZ
114746003114746079-000510     114746006001023509079CRAYONS WAX 12-COLOUR  0000001000+00002455+00000+0001T   00002455+0000001653          1400 UI4130               2AZ
114746004114746079-006522     114746006001023149442ART+CRAFT GLUE ASSORTED0000001000+00001753+00000+0001T   00001753+0000001653          1400 UI4130               2AZ
114746005114746071-000307     114746006003000535118RULER FLEXI 30cm       0000001000+00001490+00000+0001T   00001490+0000001653          1400 UI4130               2AZ
114746006114746112-116038     114746006009681820246TCS CARRIER BAG MIDI   0000001000+00000035+00000+0001T   00000035+0000001653          1400 UI4090               2AZ
114746007114746566-000359     114746006003000582709STICKER BOOK LOVE SPARK0000003000+00002192+00000+0001T   00002192+0000001653          1400 UI4130               2AZ
114746008114746566-001228     114746006003000284153STICKERS CRYSTAL ASSTD 0000001000+00001753+00000+0001T   00001753+0000001653          1400 UI4130               2AZ
114746009114746566-001234     114746006003000217793STICKERS LASER ASSTD   0000001000+00001578+00000+0001T   00001578+0000001653          1400 UI4130               2AZ
114746010114746566-000304     1147460060030004440453-D POP-UP ROUND       0000001000+00002455+00000+0001T   00002455+0000001653          1400 UI4130               2AZ
114747000114747               114747               170213KR     1400+00000+KR0000002240+0000002240+000000000+000000314+0000002550+0000000004+I20000000000+0000002550+Z
114747001114747080-000127     114747006003000424351VALENTINES DAY 36x24CM 0000001000+00002192+00000+0001T   00002192+0000001654          1400 UI4112               2AZ
114747002114747112-116069     114747006009681820277TCS CARRIER BAG JUMBO  0000001000+00000048+00000+0001T   00000048+0000001654          1400 UI4090               2AZ
114748000114748               114748               170213KR     1400+00000+KR0000010388+0000010388+000000000+000001455+0000011840+0000000003+I20000000000+0000011840+Z
114748001114748112-116069     114748006009681820277TCS CARRIER BAG JUMBO  0000001000+00000048+00000+0001T   00000048+0000001656          1400 UI4090               2AZ
114748002114748018-000177     114748006001023797513MUG MINI LOVE ASSTD    0000005000+00000700+00000+0001T   00000700+0000001656          1400 UI4515               2AZ
114748003114748038-092233     114748006003000328925TABLE-MAT N/SLIP ASST  0000001000+00003069+00000+0001T   00003507+0008191656          1400 UI4300               2AZ
114748004114748108-009015-B   114748006005387000050SALAD-BOWL LRGE ASSTD  0000001000+00003771+00000+0001T   00003771+0000001656          1400 UI4210               2AZ
114749000114749               114749               170213KR     1400+00000+KR0000000876+0000000876+000000000+000000123+0000000990+0000000009+I20000000000+0000000990+Z
114749001114749077-000150-D   114749006003000054343GIFT-WRAP CELLPHANE CLR0000001000+00000876+00000+0001T   00000876+0000001657          1400 UI4112               2AZ
114750000114750               114750               170213KR     1400+00000+KR0000004385+0000004385+000000000+000000614+0000004999+0000000000+I40000004999+0000000000+Z
114750001114750031-005921     114750006001023667847P/FRAME PL PLAIN       0000001000+00004385+00000+0001T   00004385+0000001659          1400 UI4510               2AZ
114751000114751               114751               170213KR     1400+00000+KR0000005732+0000005732+000000000+000000804+0000006536+0000000000+I40000006536+0000000000+Z
114751001114751080-000133     114751006003000535613CARD&ENV MINI ASTD DSGN0000001000+00000437+00000+0001T   00000437+0000001701          1400 UI4112               2AZ
114751002114751006-000092     114751006001023739650BANNER BIRTHDAY PAPER  0000001000+00001753+00000+0001T   00001753+0000001701          1400 UI4131               2AZ
114751003114751162-097718     114751006001492977188#TAG CHARM BRACELET    0000001000+00003507+00000+0001T   00003507+0000001701          1400 UI4160               2AZ
114751004114751112-116038     114751006009681820246TCS CARRIER BAG MIDI   0000001000+00000035+00000+0001T   00000035+0000001701          1400 UI4090               2AZ
114752000114752               114752               170213KR     1400+00000+KR0000007664+0000007664+000000000+000001074+0000008730+0000000008+I20000000000+0000008730+Z
114752001114752077-000299     114752006003000395576G/BAG 32x25cm LRG LOVE 0000001000+00001490+00000+0001T   00001490+0000001703          1400 UI4112               2AZ
114752002114752018-005007     114752006003000515516MUG OCC. LOVE W/HEARTS 0000001000+00006139+00000+0001T   00006139+0000001703          1400 UI4515               2AZ
114752003114752112-116038     114752006009681820246TCS CARRIER BAG MIDI   0000001000+00000035+00000+0001T   00000035+0000001703          1400 UI4090               2AZ
114753000114753               114753               170213KR     1400+00000+KR0000001788+0000001788+000000000+000000251+0000002030+0000000009+I20000000000+0000002030+Z
114753001114753080-000123     114753006003000237722CARD&ENVELOPE-SYMPATHY 0000001000+00001753+00000+0001T   00001753+0000001704          1400 UI4112               2AZ
114753002114753112-116038     114753006009681820246TCS CARRIER BAG MIDI   0000001000+00000035+00000+0001T   00000035+0000001704          1400 UI4090               2AZ
114754000114754               114754               170213KR     1400+00000+KR0000003944+0000003944+000000000+000000553+0000004490+0000000007+I20000000000+0000004490+Z
114754001114754019-000500-A   114754006003000245161VASE CER INSPIRATIONS  0000001000+00003507+00000+0001T   00003507+0000001716          1400 UI4510               2AZ
114754002114754080-000133     114754006003000535613CARD&ENV MINI ASTD DSGN0000001000+00000437+00000+0001T   00000437+0000001716          1400 UI4112               2AZ
114755000114755               114755               170213KR     1400+00000+KR0000006837+0000006837+000000000+000000958+0000007790+0000000005+I20000000000+0000007790+Z
114755001114755018-000177     114755006001023797513MUG MINI LOVE ASSTD    0000001000+00000700+00000+0001T   00000700+0000001719          1400 UI4515               2AZ
114755002114755301-085004     114755006003000420469ORN LOVE PLAQUE 21X10CM0000001000+00003507+00000+0001T   00003946+0006471719          1400 UI4505               2AZ
114755003114755077-000270     114755006003000395453GIFT-BAG PPR JMB 33X45 0000001000+00002630+00000+0001T   00002630+0000001719          1400 UI4112               2AZ
114756000114756               114756               170213KR     1400+00000+KR0000003769+0000003769+000000000+000000528+0000004290+0000000007+I20000000000+0000004290+Z
114756001114756564-000012     114756006001023130075BUBBLE BOTTLE MAGIC    0000001000+00000700+00000+0001T   00000700+0000001722          1400 UI4131               2AZ
114756002114756031-000004     114756006003000200948P/FRAME PL BABY 2ASST  0000001000+00003069+00000+0001T   00003069+0000001722          1400 UI4510               2AZ
114757000114757               114757               170213KR     1400+00000+KR0000000048+0000000048+000000000+000000007+0000000050+0000000005+I20000000000+0000000050+Z
114757001114757112-116069     114757006009681820277TCS CARRIER BAG JUMBO  0000001000+00000048+00000+0001T   00000048+0000001723          1400 UI4090               2AZ
114758000114758               114758               170213KR     1400+00000+KR0000008679+0000008679+000000000+000001217+0000009890+0000000006+I20000000000+0000009890+Z
114758001114758018-050000     114758006003000412679MUG OCC LOVE TWIN BEAR 0000001000+00006139+00000+0001T   00006139+0000001725          1400 UI4515               2AZ
114758002114758077-000299     114758006003000395576G/BAG 32x25cm LRG LOVE 0000001000+00001490+00000+0001T   00001490+0000001725          1400 UI4112               2AZ
114758003114758080-000133-A   114758006003000647019MINI VALENTINES CARD   0000001000+00000437+00000+0001T   00000437+0000001725          1400 UI4112               2AZ
114758004114758304-001011     114758006001023806727FLWR ROSE RED W/BEAR   0000001000+00000613+00000+0001T   00000788+0006471725          1400 UI4510               2AZ
114759000114759               114759               170213KR     1400+00000+KR0000003506+0000003506+000000000+000000491+0000003997+0000000000+I40000003997+0000000000+Z
114759001114759077-000463     114759006003000321698G/BAG GLITTER MED20x28 0000001000+00002192+00000+0001T   00002192+0000001727          1400 UI4112               2AZ
114759002114759046-000012     114759006904708013062BATTERIES AA  CARD-OF-40000001000+00001314+00000+0001T   00001314+0000001727          1400 UI4312               2AZ
114760000114760               114760               170213KR     1400+00000+KR0000001753+0000001753+000000000+000000246+0000001990+0000000009+I20000000000+0000001990+Z
114760001114760077-000309     114760006001023608604GIFT-BAG 25X32CM GLOSS 0000001000+00001753+00000+0001T   00001753+0000001728          1400 UI4112               2AZ
114761000114761               114761               170213KR     1400+00000+KR0000001613+0000001613+000000000+000000226+0000001830+0000000009+I20000000000+0000001830+Z
114761001114761018-000127     114761006001023380289MUG OCC STRAIGHT LOVE  0000001000+00001578+00000+0001T   00001753+0006471729          1400 UI4515               2AZ
114761002114761112-116038     114761006009681820246TCS CARRIER BAG MIDI   0000001000+00000035+00000+0001T   00000035+0000001729          1400 UI4090               2AZ
114762000114762               114762               170213KR     1400+00000+KR0000011091+0000011091+000000000+000001557+0000012648+0000000000+I40000012648+0000000000+Z
114762001114762077-000289     114762006001023901996GIFT BOX 20x25x11cm    0000001000+00001753+00000+0001T   00001753+0000001732          1400 UI4112               2AZ
114762002114762112-116069     114762006009681820277TCS CARRIER BAG JUMBO  0000001000+00000048+00000+0001T   00000048+0000001732          1400 UI4090               2AZ
114762003114762301-085004     114762006003000420469ORN LOVE PLAQUE 21X10CM0000001000+00003507+00000+0001T   00003946+0006471732          1400 UI4505               2AZ
114762004114762903-002852     114762000000087108040MENTOS ROLL SPEARMINT  0000001000+00001051+00000+0001T   00001051+0000001732          1400 UI4150               2AZ
114762005114762903-002853     114762000000087108019MENTOS ROLL MINT       0000001000+00001051+00000+0001T   00001051+0000001732          1400 UI4150               2AZ
114762006114762903-002891     114762008935001721376MENTOS GUM WINTERGREEN 0000001000+00001051+00000+0001T   00001051+0000001732          1400 UI4150               2AZ
114762007114762018-000129     114762006001023403353MUG OCC. LOVE V-SHAPE  0000001000+00002630+00000+0001T   00002630+0000001732          1400 UI4515               2AZ
114763000114763               114763               170213KR     1400+00000+KR0000025287+0000025287+000000000+000003547+0000028834+0000000000+I40000028834+0000000000+Z
114763001114763112-116069     114763006009681820277TCS CARRIER BAG JUMBO  0000001000+00000048+00000+0001T   00000048+0000001735          1400 UI4090               2AZ
114763002114763077-000310     114763006001023608635GIFT-BAG 18X23CM GLOSS 0000003000+00001314+00000+0001T   00001314+0000001735          1400 UI4112               2AZ
114763003114763071-004202     114763006001023417176SCISSORS-SCHOOL PL/MTL 0000003000+00001139+00000+0001T   00001139+0000001735          1400 UI4130               2AZ
114763004114763071-003003     114763006003000144525PEN BALL PEN 3PCE BLACK0000003000+00000876+00000+0001T   00000876+0000001735          1400 UI4130               2AZ
114763005114763071-003879     114763006936198404198PENCIL HB BLU/WHITE 12s0000003000+00001753+00000+0001T   00002630+0008151735          1400 UI4130               2AZ
114763006114763071-001238     114763000060107212485ERASERS  3PCE    CARDED0000003000+00000876+00000+0001T   00000876+0000001735          1400 UI4130               2AZ
114763007114763079-000510     114763006001023509079CRAYONS WAX 12-COLOUR  0000003000+00002455+00000+0001T   00002455+0000001735          1400 UI4130               2AZ
114764000114764               114764               170213KR     1400+00000+KR0000001578+0000001578+000000000+000000221+0000001790+0000000009+I20000000000+0000001790+Z
114764001114764080-000124     114764006003000297733CARD & ENV VALENTINES  0000001000+00001578+00000+0001T   00001578+0000001735          1400 UI4112               2AZ
114765000114765               114765               170213KR     1400+00000+KR0000006873+0000006873+000000000+000000964+0000007830+0000000007+I20000000000+0000007830+Z
114765001114765079-000802     114765006001023528902ART+CRAFT STICKS 100PCE0000001000+00002455+00000+0001T   00002455+0000001736          1400 UI4130               2AZ
114765002114765079-013101     114765006001023863706CRAFT SET DIY PIPE-CLNR0000001000+00002630+00000+0001T   00002630+0000001736          1400 UI4130               2AZ
114765003114765565-000002     114765006003000308071NOVELTY GROWING ANIMALS0000001000+00001753+00000+0001T   00001753+0000001736          1400 UI4745               2AZ
114765004114765112-116038     114765006009681820246TCS CARRIER BAG MIDI   0000001000+00000035+00000+0001T   00000035+0000001736          1400 UI4090               2AZ
114766000114766               114766               170213KR     1400+00000+KR0000007926+0000007926+000000000+000001111+0000009037+0000000000+I40000009037+0000000000+Z
114766001114766001-000415     114766006003000461370BEER-MUG GLASS DAD     0000001000+00004385+00000+0001T   00004385+0000001738          1400 UI4515               2AZ
114766002114766089-000220     114766006003000677368KEY CHAIN+PEN+KNIFE    0000001000+00003069+00000+0001T   00003069+0000001738          1400 UI4205               2AZ
114766003114766112-116038     114766006009681820246TCS CARRIER BAG MIDI   0000001000+00000035+00000+0001T   00000035+0000001738          1400 UI4090               2AZ
114766004114766080-000133     114766006003000535613CARD&ENV MINI ASTD DSGN0000001000+00000437+00000+0001T   00000437+0000001738          1400 UI4112               2AZ
114767000114767               114767               170213KR     1400+00000+KR0000007131+0000007131+000000000+000001001+0000008130+0000000002+I20000000000+0000008130+Z
114767001114767301-085002     114767006003000420704ORN OCC. LOVE BELL ASST0000001000+00001753+00000+0001T   00002630+0008121739          1400 UI4505               2AZ
114767002114767018-000177     114767006001023797513MUG MINI LOVE ASSTD    0000002000+00000700+00000+0001T   00000700+0000001739          1400 UI4515               2AZ
114767003114767089-000220     114767006003000677368KEY CHAIN+PEN+KNIFE    0000001000+00003069+00000+0001T   00003069+0000001739          1400 UI4205               2AZ
114767004114767112-116038     114767006009681820246TCS CARRIER BAG MIDI   0000001000+00000035+00000+0001T   00000035+0000001739          1400 UI4090               2AZ
114767005114767080-000133-A   114767006003000647019MINI VALENTINES CARD   0000002000+00000437+00000+0001T   00000437+0000001739          1400 UI4112               2AZ
114768000114768               114768               170213KR     1400+00000+KR0000010349+0000010349+000000000+000001449+0000011790+0000000008+I20000000000+0000011790+Z
114768001114768077-000303     114768006001023593757GIFT-BAG PAPER MED     0000001000+00001578+00000+0001T   00001578+0000001740          1400 UI4112               2AZ
114768002114768368-000099     114768006001023680259PLUSH DOG 23cm ASSTD   0000001000+00008771+00000+0001T   00008771+0000001740          1400 UI4745               2AZ
114769000114769               114769               170213KR     1400+00000+KR0000001752+0000001752+000000000+000000246+0000001990+0000000008+I20000000000+0000001990+Z
114769001114769001-000390     114769006001023679741TUMBLER GLS 2400ml WHIS0000002000+00000876+00000+0001T   00000876+0000001742          1400 UI4515               2AZ
114770000114770               114770               170213KR     1400+00000+KR0000001578+0000001578+000000000+000000221+0000001790+0000000009+I20000000000+0000001790+Z
114770001114770077-000303     114770006001023593757GIFT-BAG PAPER MED     0000001000+00001578+00000+0001T   00001578+0000001743          1400 UI4112               2AZ
A17021300                                          09420342KRSLAVE 2                       UI43IC
M17021301                              CASH DEPT   KRATT CASH DEPT                                                                                   BANKING SLV1 R4430.60                           C CARD R3411.45                                 Z READ TOTAL R7842.05                                                                           BANKING SLV2 R3765.40                           C CARD R2737.10                                 Z READ TOTAL R6502.50                                                                           BANKING SLV3 R1540.50                           C CARD R1206.69                                 Z READ TOTAL R2833.59                                                                           THANKS                                                                                          KR
M17021302                              IT DEPT     KRATT IT DEPT                                                                                     LAST TILL SLIP SLV1 102553                      LAST TILL SLIP SLV2 114770                      LAST TILL SLIP SLV3 124624                                                                                                                                                                      THANKS
M17021391                              CASH        KRSLAVE 2                       Z-REPORT No.   626TOTAL (Sales - Refunds)           6502.50       CASH TO BE BANKED                 3765.40       DEBIT CARDS                          0.00       CREDIT CARDS                      2737.10       Z-READING                         6502.50       AIRTIME DEBIT CARD SALES             0.00       AIRTIME CARD SALES                   0.00       OVERS/UNDERS                         0.00       AIRTIME CASH SALES                   0.00       GIFT CARDS                           0.00       GIFT CARD CASH SALES                 0.00       T O T A L  CASH PAYOUTS              0.00                                                                                                                                                                                                                                                                                                                                                      Z
M17021392                              CASH        KRABSENT                                                                                                                                                                                          ANNUAL LEAVE                                                                                                                                                                                    DAY OFF                                                                                                                                                                                         COMMENTS          Z READ TOTAL R6502.50                           SLV 2                                                                                                                                                                                                                                                                                                                        Z
Y17021300                                          KR00000000576925+000099
ZKR17021319593 SLAVE 2      SALES DATA                     NEXT INVOICE NO.  114771 0626
X KR Slave 2 First invoice 114672 170213 Last invoice 114770 170213 Next invoice 114771 Total number of records 000000341 clbackup completed 19:59:10
