124576000124576               124576               170213KR     1400+00000+KR0000012148+0000012148+000000000+000001702+0000013850+0000000000+I40000013850+0000000000+Z
124576001124576077-000270     124576006003000395453GIFT-BAG PPR JMB 33X45 0000001000+00002630+00000+0001T   00002630+0000000913          1400 BM8112               3AZ
124576002124576018-005009     124576006001023725608MUG W/PLUSH-BEAR LOVE  0000001000+00003507+00000+0001T   00003507+0000000913          1400 BM8515               3AZ
124576003124576080-000124     124576006003000297733CARD & ENV VALENTINES  0000001000+00001578+00000+0001T   00001578+0000000913          1400 BM8112               3AZ
124576004124576030-000031-A   124576006003000457588PLAQUE W/WORDS ASSTD   0000001000+00004385+00000+0001T   00004823+0006470913          1400 BM8505               3AZ
124576005124576112-116069     124576006009681820277TCS CARRIER BAG JUMBO  0000001000+00000048+00000+0001T   00000048+0000000913          1400 BM8090               3AZ
124577000124577               124577               170213KR     1400+00000+KR0000007892+0000007892+000000000+000001105+0000008997+0000000000+I40000008997+0000000000+Z
124577001124577162-010768     124577006001492107684#TAG LDS SQ HOOPS 2PK  0000001000+00003507+00000+0001T   00003507+0000000926          1400 BM8160               3AZ
124577002124577082-000120     124577006003000360727READING GLS STRENGTH:3 0000001000+00004385+00000+0001T   00004385+0000000926          1400 BM8160               3AZ
124578000124578               124578               170213KR     1400+00000+KR0000015780+0000015780+000000000+000002214+0000017990+0000000004+I20000000000+0000017990+Z
124578001124578463-000366     124578006001023789136SWIM W/NOODLE 150cm    0000006000+00002630+00000+0001T   00002630+0000000927          1400 BM8785               3AZ
124579000124579               124579               170213KR     1400+00000+KR0000001051+0000001051+000000000+000000148+0000001190+0000000009+I20000000000+0000001190+Z
124579001124579903-002890     124579008935001721352MENTOS GUM PURE F/MINT 0000001000+00001051+00000+0001T   00001051+0000000940          1400 BM8150               3AZ
124580000124580               124580               170213KR     1400+00000+KR0000003155+0000003155+000000000+000000442+0000003590+0000000007+I20000000000+0000003590+Z
124580001124580105-001024-A   124580006009654960986CONTAINERS CLEAR 3PCE  0000001000+00001928+00000+0001T   00001928+0000000946          1400 BM8210               3AZ
124580002124580251-000040     124580006001023515865SEALTAPE CLEAR 48mmx50m0000001000+00001227+00000+0001T   00001227+0000000946          1400 BM8810               3AZ
124581000124581               124581               170213KR     1400+00000+KR0000003912-0000003912-000000000+000000548-0000004460-0000000000+I20000000000+0000004460-Z
124581001124581001-999910     124581000000000999910POSTAGE                0000001000-00003912+00000+0001T   00000000+0000001043          1400 BM89101IC            3 Z
124582000124582               124582               170213KR     1400+00000+KR0000001227+0000001227+000000000+000000172+0000001390+0000000009+I20000000000+0000001390+Z
124582001124582071-081091     124582006001151010287STAED/GENKEM ALL-STICK 0000001000+00001227+00000+0001T   00001227+0000001044          1400 BM8130               3AZ
124583000124583               124583               170213KR     1400+00000+KR0000005308+0000005308+000000000+000000744+0000006052+0000000000+I40000006052+0000000000+Z
124583001124583031-000002     124583006001023851338FRAME FRIENDS 7.5x7.5cm0000001000+00003507+00000+0001T   00003507+0000001046          1400 BM8510               3AZ
124583002124583077-000308     124583006001023595812GIFT-BAG 33X45CM E/DAY 0000001000+00001753+00000+0001T   00001753+0000001046          1400 BM8112               3AZ
124583003124583112-116069     124583006009681820277TCS CARRIER BAG JUMBO  0000001000+00000048+00000+0001T   00000048+0000001046          1400 BM8090               3AZ
124584000124584               124584               170213KR     1400+00000+KR0000004207+0000004207+000000000+000000590+0000004790+0000000007+I20000000000+0000004790+Z
124584001124584251-000040     124584006001023515865SEALTAPE CLEAR 48mmx50m0000001000+00001227+00000+0001T   00001227+0000001048          1400 BM8810               3AZ
124584002124584251-000041     124584006001023515889SEAL-TAPE BUFF 48mmx50m0000001000+00001227+00000+0001T   00001227+0000001048          1400 BM8810               3AZ
124584003124584077-000354     124584006003000139224GIFT-BAG 25X32CM H/MADE0000001000+00001753+00000+0001T   00001753+0000001048          1400 BM8112               3AZ
124585000124585               124585               170213KR     1400+00000+KR0000003507+0000003507+000000000+000000491+0000003990+0000000008+I20000000000+0000003990+Z
124585001124585004-071267     124585006001023907875LCD CLEANING KIT+CLOTH 0000001000+00003507+00000+0001T   00003507+0000001051          1400 BM8310               3AZ
124586000124586               124586               170213KR     1400+00000+KR0000000613+0000000613+000000000+000000086+0000000690+0000000009+I20000000000+0000000690+Z
124586001124586200-000065     124586006001023323675DRINKING-STRAWS 38PCE  0000001000+00000613+00000+0001T   00000613+0000001052          1400 BM8214               3AZ
124587000124587               124587               170213KR     1400+00000+KR0000002454+0000002454+000000000+000000344+0000002790+0000000008+I20000000000+0000002790+Z
124587001124587251-000040     124587006001023515865SEALTAPE CLEAR 48mmx50m0000001000+00001227+00000+0001T   00001227+0000001053          1400 BM8810               3AZ
124587002124587251-000041     124587006001023515889SEAL-TAPE BUFF 48mmx50m0000001000+00001227+00000+0001T   00001227+0000001053          1400 BM8810               3AZ
124588000124588               124588               170213KR     1400+00000+KR0000002837+0000002837+000000000+000000398+0000003235+0000000000+I40000003235+0000000000+Z
124588001124588566-001234     124588006003000217793STICKERS LASER ASSTD   0000001000+00001578+00000+0001T   00001578+0000001055          1400 BM8130               3AZ
124588002124588079-009700-A   124588006003000547746PAPER SIRIO A4 BLACK   0000004000+00000306+00000+0001T   00000306+0000001055          1400 BM8130               3AZ
124588003124588112-116038     124588006009681820246TCS CARRIER BAG MIDI   0000001000+00000035+00000+0001T   00000035+0000001055          1400 BM8090               3AZ
124589000124589               124589               170213KR     1400+00000+KR0000001578+0000001578+000000000+000000221+0000001790+0000000009+I20000000000+0000001790+Z
124589001124589077-000303     124589006001023593757GIFT-BAG PAPER MED     0000001000+00001578+00000+0001T   00001578+0000001056          1400 BM8112               3AZ
124590000124590               124590               170213KR     1400+00000+KR0000012499+0000012499+000000000+000001751+0000014250+0000000000+I40000014250+0000000000+Z
124590001124590366-000125     124590006003000006786DRESSUP WINGS/WAND/BAND0000001000+00005262+00000+0001T   00005262+0000001058          1400 BM8131               3AZ
124590002124590112-116069     124590006009681820277TCS CARRIER BAG JUMBO  0000001000+00000048+00000+0001T   00000048+0000001058          1400 BM8090               3AZ
124590003124590007-000095     124590006003000530434ENVELOPES WHITE 20PK C60000001000+00002192+00000+0001T   00002192+0000001058          1400 BM8130               3AZ
124590004124590079-009700-B   124590006003000547661PAPER SIRIO A4 WHITE   0000002000+00000306+00000+0001T   00000306+0000001058          1400 BM8130               3AZ
124590005124590079-000261     124590006003000159727PAINT WATER COLOUR CAKE0000001000+00004385+00000+0001T   00004385+0000001058          1400 BM8130               3AZ
124591000124591               124591               170213KR     1400+00000+KR0000002447-0000002447-000000000+000000343-0000002790-0000000000+I20000000000+0000002790-Z
124591001124591001-999902     124591000000000999902MAINTENANCE+REPAIR-EQP 0000001000-00002447+00000+0001T   00000000+0000001058          1400 BM89021IC            3 Z
124592000124592               124592               170213KR     1400+00000+KR0000001219-0000001219-000000000+000000171-0000001390-0000000000+I20000000000+0000001390-Z
124592001124592001-999906     124592000000000999906STATIONERY(PHOTOCOPIES)0000001000-00001219+00000+0001T   00000000+0000001059          1400 BM89061IC            3 Z
124593000124593               124593               170213KR     1400+00000+KR0000021095+0000021095+000000000+000002956+0000024050+0000000001+I20000000000+0000024050+Z
124593001124593368-000637     124593006001023874092PLUSH BEAR SLEEPING LOV0000001000+00011402+00000+0001T   00012279+0006471100          1400 BM8745               3AZ
124593002124593039-809558     124593006003000344376CANDLE PILLAR 12CM 4AST0000001000+00006139+00000+0001T   00006139+0000001100          1400 BM8510               3AZ
124593003124593077-000309     124593006001023608604GIFT-BAG 25X32CM GLOSS 0000001000+00001753+00000+0001T   00001753+0000001100          1400 BM8112               3AZ
124593004124593112-116069     124593006009681820277TCS CARRIER BAG JUMBO  0000001000+00000048+00000+0001T   00000048+0000001100          1400 BM8090               3AZ
124593005124593903-000211     124593006002099001238SWT GS MALLOW ICE CREAM0000001000+00001753+00000+0001T   00001753+0000001100          1400 BM8150               3AZ
124594000124594               124594               170213KR     1400+00000+KR0000002716+0000002716+000000000+000000381+0000003090+0000000007+I20000000000+0000003090+Z
124594001124594903-000155     124594006009803374435SWT LOLLY I LUV U HEART0000001000+00000525+00000+0001T   00000525+0000001111          1400 BM8150               3AZ
124594002124594018-000127     124594006001023380289MUG OCC STRAIGHT LOVE  0000001000+00001578+00000+0001T   00001753+0006471111          1400 BM8515               3AZ
124594003124594077-000321     124594006001023677501GIFT-BAG 11X14CM E/D FL0000001000+00000613+00000+0001T   00000613+0000001111          1400 BM8112               3AZ
124595000124595               124595               170213KR     1400+00000+KR0000005259+0000005259+000000000+000000738+0000005997+0000000000+I40000005997+0000000000+Z
124595001124595077-000924     124595006003000414055G/WRAP 700mmx2m WEDDING0000001000+00002192+00000+0001T   00002192+0000001114          1400 BM8112               3AZ
124595002124595077-000115-B   124595006003000181025GIFT-WRAP PPR 700MMX2M 0000001000+00002630+00000+0001T   00002630+0000001114          1400 BM8112               3AZ
124595003124595080-000133-A   124595006003000647019MINI VALENTINES CARD   0000001000+00000437+00000+0001T   00000437+0000001114          1400 BM8112               3AZ
124596000124596               124596               170213KR     1400+00000+KR0000009203+0000009203+000000000+000001291+0000010490+0000000004+I20000000000+0000010490+Z
124596001124596566-001012     124596006001023528070STICKERS GLOW IN DARK  0000001000+00001314+00000+0001T   00001314+0000001116          1400 BM8130               3AZ
124596002124596566-001228     124596006003000284153STICKERS CRYSTAL ASSTD 0000001000+00001753+00000+0001T   00001753+0000001116          1400 BM8130               3AZ
124596003124596566-000863     124596006001023788351STICKERS LASER 20x25cm 0000001000+00002630+00000+0001T   00002630+0000001116          1400 BM8130               3AZ
124596004124596077-000373     124596006003000395217G/BAG MED 18X23CM DESGN0000001000+00001753+00000+0001T   00001753+0000001116          1400 BM8112               3AZ
124596005124596077-000354     124596006003000139224GIFT-BAG 25X32CM H/MADE0000001000+00001753+00000+0001T   00001753+0000001116          1400 BM8112               3AZ
124597000124597               124597               170213KR     1400+00000+KR0000001490+0000001490+000000000+000000209+0000001690+0000000009+I20000000000+0000001690+Z
124597001124597077-000299     124597006003000395576G/BAG 32x25cm LRG LOVE 0000001000+00001490+00000+0001T   00001490+0000001117          1400 BM8112               3AZ
124598000124598               124598               170213KR     1400+00000+KR0000001607+0000001607+000000000+000000227+0000001830+0000000004+I20000000000+0000001830+Z
124598001124598108-003007     124598006002923006590MUG PL 375ml           0000006000+00000262+00000+0001T   00000262+0000001124          1400 BM8210               3AZ
124598002124598112-116038     124598006009681820246TCS CARRIER BAG MIDI   0000001000+00000035+00000+0001T   00000035+0000001124          1400 BM8090               3AZ
124599000124599               124599               170213KR     1400+00000+KR0000009994+0000009994+000000000+000001401+0000011390+0000000005+I20000000000+0000011390+Z
124599001124599077-000245     124599006001023759214GIFT-RIBBON METALLICx2 0000001000+00001227+00000+0001T   00001227+0000001125          1400 BM8112               3AZ
124599002124599080-000122     124599006003000237678CARD & ENVLPE -GET WELL0000001000+00001753+00000+0001T   00001753+0000001125          1400 BM8112               3AZ
124599003124599103-000245     124599006003000571550BASKET WOVEN RECT      0000001000+00005262+00000+0001T   00005262+0000001125          1400 BM8300               3AZ
124599004124599077-000150-D   124599006003000054343GIFT-WRAP CELLPHANE CLR0000002000+00000876+00000+0001T   00000876+0000001125          1400 BM8112               3AZ
124600000124600               124600               170213KR     1400+00000+KR0000018201+0000018201+000000000+000002550+0000020751+0000000000+I40000020751+0000000000+Z
124600001124600031-000871-C   124600006003000463169P/FRAME COLLAGE 3-HOLE 0000001000+00008771+00000+0001T   00008771+0000001129          1400 BM8510               3AZ
124600002124600301-000013     124600006001023781604ORN SENTIMENT STONE 4-A0000001000+00006139+00000+0001T   00006139+0000001129          1400 BM8505               3AZ
124600003124600077-000321     124600006001023677501GIFT-BAG 11X14CM E/D FL0000001000+00000613+00000+0001T   00000613+0000001129          1400 BM8112               3AZ
124600004124600112-116069     124600006009681820277TCS CARRIER BAG JUMBO  0000001000+00000048+00000+0001T   00000048+0000001129          1400 BM8090               3AZ
124600005124600077-000270     124600006003000395453GIFT-BAG PPR JMB 33X45 0000001000+00002630+00000+0001T   00002630+0000001129          1400 BM8112               3AZ
124601000124601               124601               170213KR     1400+00000+KR0000005295+0000005295+000000000+000000742+0000006030+0000000007+I20000000000+0000006030+Z
124601001124601200-003026     124601006003000276448REFUSE BAGS 10PCE GREEN0000001000+00001753+00000+0001T   00001753+0000001131          1400 BM8214               3AZ
124601002124601562-004010     124601006003000225125EDU FLASH SUMS+DRY WIPE0000001000+00003507+00000+0001T   00003507+0000001131          1400 BM8755               3AZ
124601003124601112-116038     124601006009681820246TCS CARRIER BAG MIDI   0000001000+00000035+00000+0001T   00000035+0000001131          1400 BM8090               3AZ
124602000124602               124602               170213KR     1400+00000+KR0000002630+0000002630+000000000+000000369+0000002990+0000000009+I20000000000+0000002990+Z
124602001124602566-000308     124602006003000522521STICKER TAPE 3PCS      0000001000+00002630+00000+0001T   00002630+0000001133          1400 BM8130               3AZ
124603000124603               124603               170213KR     1400+00000+KR0000001578+0000001578+000000000+000000221+0000001790+0000000009+I20000000000+0000001790+Z
124603001124603018-000127     124603006001023380289MUG OCC STRAIGHT LOVE  0000001000+00001578+00000+0001T   00001753+0006471134          1400 BM8515               3AZ
124604000124604               124604               170213KR     1400+00000+KR0000000437+0000000437+000000000+000000062+0000000490+0000000009+I20000000000+0000000490+Z
124604001124604080-000133     124604006003000535613CARD&ENV MINI ASTD DSGN0000001000+00000437+00000+0001T   00000437+0000001135          1400 BM8112               3AZ
124605000124605               124605               170213KR     1400+00000+KR0000002984+0000002984+000000000+000000419+0000003400+0000000003+I20000000000+0000003400+Z
124605001124605077-000270     124605006003000395453GIFT-BAG PPR JMB 33X45 0000001000+00002630+00000+0001T   00002630+0000001136          1400 BM8112               3AZ
124605002124605079-009700-D   124605006003000545711PAPER SIRIO A4 RED COL.0000001000+00000306+00000+0001T   00000306+0000001136          1400 BM8130               3AZ
124605003124605112-116069     124605006009681820277TCS CARRIER BAG JUMBO  0000001000+00000048+00000+0001T   00000048+0000001136          1400 BM8090               3AZ
124606000124606               124606               170213KR     1400+00000+KR0000000876+0000000876+000000000+000000123+0000000999+0000000000+I40000000999+0000000000+Z
124606001124606078-000025     124606008887013700064SUPERGLUE 3g 1PCE CARD 0000001000+00000876+00000+0001T   00000876+0000001148          1400 BM8810               3AZ
124607000124607               124607               170213KR     1400+00000+KR0000017149+0000017149+000000000+000002402+0000019551+0000000000+I40000019551+0000000000+Z
124607001124607077-000290     124607006001023902023GIFT BOX 26x32x13cm    0000001000+00001753+00000+0001T   00001753+0000001204          1400 BM8112               3AZ
124607002124607018-030000     124607006003000421060MUG OCCASIONS LOVE 2PCE0000001000+00004385+00000+0001T   00004385+0000001204          1400 BM8515               3AZ
124607003124607566-000359     124607006003000582709STICKER BOOK LOVE SPARK0000001000+00002192+00000+0001T   00002192+0000001204          1400 BM8130               3AZ
124607004124607001-091415     124607006003000329113W/GLS OCC. LOVE 2PC 2800000001000+00008771+00000+0001T   00009648+0006471204          1400 BM8515               3AZ
124607005124607112-116069     124607006009681820277TCS CARRIER BAG JUMBO  0000001000+00000048+00000+0001T   00000048+0000001204          1400 BM8090               3AZ
124608000124608               124608               170213KR     1400+00000+KR0000004207+0000004207+000000000+000000589+0000004790+0000000006+I20000000000+0000004790+Z
124608001124608071-003043     124608006003000143948PEN CALIGRAPHY SET 8PCE0000001000+00003507+00000+0001T   00003507+0000001308          1400 BM8130               3AZ
124608002124608007-000166     124608006009685857316SPIRAL NOTES A6 100PG  0000001000+00000700+00000+0001T   00000700+0000001308          1400 BM8130               3AZ
124609000124609               124609               170213KR     1400+00000+KR0000001753+0000001753+000000000+000000246+0000001990+0000000009+I20000000000+0000001990+Z
124609001124609564-000035     124609006003000301836BUBBLE NOVELTY SWORD   0000001000+00001753+00000+0001T   00001753+0000001310          1400 BM8131               3AZ
124610000124610               124610               170213KR     1400+00000+KR0000001578+0000001578+000000000+000000221+0000001790+0000000009+I20000000000+0000001790+Z
124610001124610077-000303     124610006001023593757GIFT-BAG PAPER MED     0000001000+00001578+00000+0001T   00001578+0000001311          1400 BM8112               3AZ
124611000124611               124611               170213KR     1400+00000+KR0000000911+0000000911+000000000+000000128+0000001030+0000000009+I20000000000+0000001030+Z
124611001124611077-000011-D   124611006001023808554TISSUE-WRAP WHITE 10PCE0000001000+00000876+00000+0001T   00000876+0000001312          1400 BM8112               3AZ
124611002124611112-116038     124611006009681820246TCS CARRIER BAG MIDI   0000001000+00000035+00000+0001T   00000035+0000001312          1400 BM8090               3AZ
124612000124612               124612               170213KR     1400+00000+KR0000001753+0000001753+000000000+000000246+0000001990+0000000009+I20000000000+0000001990+Z
124612001124612903-000610     124612006003000610518SWEET JUMBO BUBBLE GUM 0000001000+00001753+00000+0001T   00001753+0000001314          1400 BM8150               3AZ
124613000124613               124613               170213KR     1400+00000+KR0000002192+0000002192+000000000+000000307+0000002490+0000000009+I20000000000+0000002490+Z
124613001124613077-000924     124613006003000414055G/WRAP 700mmx2m WEDDING0000001000+00002192+00000+0001T   00002192+0000001320          1400 BM8112               3AZ
124614000124614               124614               170213KR     1400+00000+KR0000003594+0000003594+000000000+000000504+0000004090+0000000008+I20000000000+0000004090+Z
124614001124614077-000299     124614006003000395576G/BAG 32x25cm LRG LOVE 0000001000+00001490+00000+0001T   00001490+0000001321          1400 BM8112               3AZ
124614002124614903-000095     124614006001704011495SWT SPECKLED-EGGS 100G 0000001000+00002104+00000+0001T   00002104+0000001321          1400 BM8150               3AZ
124615000124615               124615               170213KR     1400+00000+KR0000002278+0000002278+000000000+000000319+0000002590+0000000007+I20000000000+0000002590+Z
124615001124615018-000177     124615006001023797513MUG MINI LOVE ASSTD    0000001000+00000700+00000+0001T   00000700+0000001322          1400 BM8515               3AZ
124615002124615018-000127     124615006001023380289MUG OCC STRAIGHT LOVE  0000001000+00001578+00000+0001T   00001753+0006471322          1400 BM8515               3AZ
124616000124616               124616               170213KR     1400+00000+KR0000001490+0000001490+000000000+000000209+0000001690+0000000009+I20000000000+0000001690+Z
124616001124616077-000299     124616006003000395576G/BAG 32x25cm LRG LOVE 0000001000+00001490+00000+0001T   00001490+0000001323          1400 BM8112               3AZ
124617000124617               124617               170213KR     1400+00000+KR0000009328+0000009328+000000000+000001307+0000010635+0000000000+I40000010635+0000000000+Z
124617001124617077-000303     124617006001023593757GIFT-BAG PAPER MED     0000001000+00001578+00000+0001T   00001578+0000001341          1400 BM8112               3AZ
124617002124617206-000220     124617006003000631704EGG TIMER COLOUR-CHANGE0000001000+00002630+00000+0001T   00002630+0000001341          1400 BM8321               3AZ
124617003124617080-000124     124617006003000297733CARD & ENV VALENTINES  0000001000+00001578+00000+0001T   00001578+0000001341          1400 BM8112               3AZ
124617004124617301-085004     124617006003000420469ORN LOVE PLAQUE 21X10CM0000001000+00003507+00000+0001T   00003946+0006471341          1400 BM8505               3AZ
124617005124617112-116038     124617006009681820246TCS CARRIER BAG MIDI   0000001000+00000035+00000+0001T   00000035+0000001341          1400 BM8090               3AZ
124618000124618               124618               170213KR     1400+00000+KR0000002630+0000002630+000000000+000000369+0000002990+0000000009+I20000000000+0000002990+Z
124618001124618079-013032-D   124618006003000389643RIBBONS                0000001000+00002630+00000+0001T   00002630+0000001347          1400 BM8130               3AZ
124619000124619               124619               170213KR     1400+00000+KR0000006139+0000006139+000000000+000000860+0000006990+0000000009+I20000000000+0000006990+Z
124619001124619368-000175     124619006003000270316PLUSH BEAR 4 ASSTD 18CM0000001000+00006139+00000+0001T   00006139+0000001401          1400 BM8745               3AZ
124620000124620               124620               170213KR     1400+00000+KR0000011402+0000011402+000000000+000001597+0000012999+0000000000+I40000012999+0000000000+Z
124620001124620466-000410     124620006003000137619DART BOARD WOOD 43cm   0000001000+00011402+00000+0001T   00011402+0000001402          1400 BM8785               3AZ
124621000124621               124621               170213KR     1400+00000+KR0000002940+0000002940+000000000+000000413+0000003353+0000000000+I40000003353+0000000000+Z
124621001124621304-001204     124621006001023737984FLOWER OCC. TEDDY/ROSES0000001000+00001402+00000+0001T   00001490+0006471405          1400 BM8510               3AZ
124621002124621077-000299     124621006003000395576G/BAG 32x25cm LRG LOVE 0000001000+00001490+00000+0001T   00001490+0000001405          1400 BM8112               3AZ
124621003124621112-116069     124621006009681820277TCS CARRIER BAG JUMBO  0000001000+00000048+00000+0001T   00000048+0000001405          1400 BM80903IC            3AZ
124622000124622               124622               170213KR     1400+00000+KR0000007098+0000007098+000000000+000000997+0000008090+0000000005+I20000000000+0000008090+Z
124622001124622304-001204     124622006001023737984FLOWER OCC. TEDDY/ROSES0000001000+00001402+00000+0001T   00001490+0006471547          1400 BM8510               3AZ
124622002124622006-000800     124622006001023902801HAT CABARET 14x18cm    0000001000+00001753+00000+0001T   00001753+0000001547          1400 BM8131               3AZ
124622003124622079-013032-H   124622006003000496501GLITTER PRINCESS ACC   0000001000+00002630+00000+0001T   00002630+0000001547          1400 BM8130               3AZ
124622004124622078-000025     124622008887013700064SUPERGLUE 3g 1PCE CARD 0000001000+00000876+00000+0001T   00000876+0000001547          1400 BM8810               3AZ
124622005124622080-000133-A   124622006003000647019MINI VALENTINES CARD   0000001000+00000437+00000+0001T   00000437+0000001547          1400 BM8112               3AZ
124623000124623               124623               170213KR     1400+00000+KR0000003857+0000003857+000000000+000000541+0000004390+0000000008+I20000000000+0000004390+Z
124623001124623077-000115-B   124623006003000181025GIFT-WRAP PPR 700MMX2M 0000001000+00002630+00000+0001T   00002630+0000001547          1400 BM8112               3AZ
124623002124623077-000245     124623006001023759214GIFT-RIBBON METALLICx2 0000001000+00001227+00000+0001T   00001227+0000001547          1400 BM8112               3AZ
124624000124624               124624               170213KR     1400+00000+KR0000010821+0000010821+000000000+000001516+0000012330+0000000007+I20000000000+0000012330+Z
124624001124624077-000303     124624006001023593757GIFT-BAG PAPER MED     0000001000+00001578+00000+0001T   00001578+0000001550          1400 BM8112               3AZ
124624002124624039-080960     124624006003000333998CANDLE PILLAR BALL 10CM0000001000+00006139+00000+0001T   00006139+0000001550          1400 BM8510               3AZ
124624003124624039-080959     124624006003000048922CANDLE PILLAR BALL 8CM 0000001000+00003069+00000+0001T   00003069+0000001550          1400 BM8510               3AZ
124624004124624112-116038     124624006009681820246TCS CARRIER BAG MIDI   0000001000+00000035+00000+0001T   00000035+0000001550          1400 BM8090               3AZ
A17021300                                          09452292KRSLAVE 3                       BM83IC
A17021301                                          09531486KRSLAVE 3                       BM81IC
A17021302                                          15450032KRSLAVE 3                       BM83IC
B12462100                                          170213KR112-116069     14035298SLAVE 3     BM83IC0000002000+0000001000+0000000000000+
M17021391                              CASH        KRSLAVE 3                       Z-REPORT No.   637TOTAL (Sales - Refunds)           2833.59       CASH TO BE BANKED                 1540.50       DEBIT CARDS                          0.00       CREDIT CARDS                      1206.69       Z-READING                         2747.19       AIRTIME DEBIT CARD SALES             0.00       AIRTIME CARD SALES                   0.00       OVERS/UNDERS                         0.00       AIRTIME CASH SALES                   0.00       GIFT CARDS                           0.00       GIFT CARD CASH SALES                 0.00       POSTAGE                             44.60       MAINTENANCE+REPAIR-EQP              27.90       STATIONERY(PHOTOCOPIES)             13.90       T O T A L  CASH PAYOUTS             86.40                                                                                                                                                                                                      Z
M17021392                              CASH        KRABSENT                                                                                                                                                                                          ANNUAL LEAVE                                                                                                                                                                                    DAY OFF                                                                                                                                                                                         COMMENTS          Z READ TOTAL R2833.59                           SLV 3                                                                                                                                                                                                                                                                                                                        Z
Y17021300                                          KR00000000248741+000046
ZKR17021319593 SLAVE 3      SALES DATA                     NEXT INVOICE NO.  124625 0637
X KR Slave 3 First invoice 124576 170213 Last invoice 124624 170213 Next invoice 124625 Total number of records 000000169 clbackup completed 19:59:14
