167398000167398               167398               170213KS     1400+00000+KS0000003946+0000003946+000000000+000000553+0000004490+0000000009+I20000000000+0000004490+Z
167398001167398002-000460     167398006001023770219K/TOOL-RACK 6-PRONG    0000001000+00003946+00000+0001T   00003946+0000000902          1400 HN3300               3AZ
167399000167399               167399               170213KS     1400+00000+KS0000005083+0000005083+000000000+000000713+0000005790+0000000006+I20000000000+0000005790+Z
167399001167399007-000184     167399006003000135424NOTEBOOK               0000001000+00001753+00000+0001T   00001753+0000000958          1400 HN3130               3AZ
167399002167399007-000166     167399006009685857316SPIRAL NOTES A6 100PG  0000001000+00000700+00000+0001T   00000700+0000000958          1400 HN3130               3AZ
167399003167399463-000366     167399006001023789136SWIM W/NOODLE 150cm    0000001000+00002630+00000+0001T   00002630+0000000958          1400 HN3785               3AZ
167400000167400               167400               170213KS     1400+00000+KS0000008813+0000008813+000000000+000001237+0000010050+0000000000+I40000010050+0000000000+Z
167400001167400028-000014     167400006001334001316ICE-BRICK SOLID MEDIUM 0000004000+00001753+00000+0001T   00001753+0000001050          1400 HN3305               3AZ
167400002167400200-000090     167400006001023802200PICNIC-PLATES SET-10   0000001000+00001753+00000+0001T   00001753+0000001050          1400 HN3214               3AZ
167400003167400112-116069     167400006009681820277TCS CARRIER BAG JUMBO  0000001000+00000048+00000+0001T   00000048+0000001050          1400 HN3090               3AZ
167401000167401               167401               170213KS     1400+00000+KS0000001314+0000001314+000000000+000000184+0000001490+0000000008+I20000000000+0000001490+Z
167401001167401046-000012     167401006904708013062BATTERIES AA  CARD-OF-40000001000+00001314+00000+0001T   00001314+0000001051          1400 HN3312               3AZ
167402000167402               167402               170213KS     1400+00000+KS0000009682+0000009682+000000000+000001356+0000011030+0000000008+I20000000000+0000011030+Z
167402001167402105-001010     167402006002580007329LUNCH-BOX 1L  ASSTD    0000001000+00000876+00000+0001T   00000876+0000001241          1400 HN3210               3AZ
167402003167402112-116038     167402006009681820246TCS CARRIER BAG MIDI   0000001000+00000035+00000+0001T   00000035+0000001241          1400 HN3090               3AZ
167402004167402004-071262     167402006003000234981COMPUTER MOUSE RUGBY 6 0000001000+00008771+00000+0001T   00008771+0000001241          1400 HN3310               3AZ
167403000167403               167403               170213KS     1400+00000+KS0000005522+0000005522+000000000+000000774+0000006296+0000000000+I40000006296+0000000000+Z
167403001167403046-000014     167403006001023725387BATTERIES SIZE:AAA 4PCE0000001000+00001139+00000+0001T   00001139+0000001244          1400 HN3312               3AZ
167403002167403089-000192-A   167403006001023901774KEY-CHAIN ACRYLIC      0000001000+00000876+00000+0001T   00000876+0000001244          1400 HN3205               3AZ
167403003167403089-000006     167403006003000094929KEY CHAIN HAND-BAG MTL 0000001000+00003507+00000+0001T   00003507+0000001244          1400 HN3205               3AZ
167404000167404               167404               170213KS     1400+00000+KS0000006173+0000006173+000000000+000000865+0000007030+0000000008+I20000000000+0000007030+Z
167404001167404072-000014     167404006003000451845PET DOG/CAT BRUSH 20cm 0000001000+00003069+00000+0001T   00003069+0000001245          1400 HN3870               3AZ
167404002167404072-020314     167404006003000605453PET TOY PUP VINYL CHICK0000001000+00003069+00000+0001T   00003069+0000001245          1400 HN3870               3AZ
167404003167404112-116038     167404006009681820246TCS CARRIER BAG MIDI   0000001000+00000035+00000+0001T   00000035+0000001245          1400 HN3090               3AZ
167405000167405               167405               170213KS     1400+00000+KS0000000613+0000000613+000000000+000000086+0000000690+0000000009+I20000000000+0000000690+Z
167405001167405304-001011     167405006001023806727FLWR ROSE RED W/BEAR   0000001000+00000613+00000+0001T   00000788+0006471247          1400 HN3510               3AZ
167406000167406               167406               170213KS     1400+00000+KS0000001490+0000001490+000000000+000000209+0000001690+0000000009+I20000000000+0000001690+Z
167406001167406036-000605     167406006001023158611WASHING-PEGS WDN PCK-240000001000+00001490+00000+0001T   00001490+0000001331          1400 HN3212               3AZ
167407000167407               167407               170213KS     1400+00000+KS0000004996+0000004996+000000000+000000700+0000005690+0000000006+I20000000000+0000005690+Z
167407001167407018-000136     167407006001023659026MUG OCC LOVE W/PLUSH   0000001000+00003507+00000+0001T   00003507+0000001339          1400 HN3515               3AZ
167407002167407304-001011     167407006001023806727FLWR ROSE RED W/BEAR   0000001000+00000613+00000+0001T   00000788+0006471339          1400 HN3510               3AZ
167407003167407077-000302     167407008010410010195GIFT-BAG 18X23CM E/D   0000001000+00000876+00000+0001T   00000876+0000001339          1400 HN3112               3AZ
167408000167408               167408               170213KS     1400+00000+KS0000019605+0000019605+000000000+000002746+0000022351+0000000000+I40000022351+0000000000+Z
167408001167408077-000302     167408008010410010195GIFT-BAG 18X23CM E/D   0000001000+00000876+00000+0001T   00000876+0000001344          1400 HN3112               3AZ
167408002167408203-000120     167408006003000566976BAR ACC. SET 5PC       0000001000+00017542+00000+0001T   00017542+0000001344          1400 HN3300               3AZ
167408003167408112-116069     167408006009681820277TCS CARRIER BAG JUMBO  0000001000+00000048+00000+0001T   00000048+0000001344          1400 HN3090               3AZ
167408004167408903-000087     167408006001704000161SWT SPECKLED-EGGS 50G  0000001000+00001139+00000+0001T   00001139+0000001344          1400 HN3150               3AZ
167409000167409               167409               170213KS     1400+00000+KS0000006346+0000006346+000000000+000000890+0000007230+0000000006+I20000000000+0000007230+Z
167409001167409304-000720     167409006001023843050F/BUNCH ROSE 6-HEAD AST0000001000+00002630+00000+0001T   00002630+0000001416          1400 HN3510               3AZ
167409002167409566-001234     167409006003000217793STICKERS LASER ASSTD   0000001000+00001578+00000+0001T   00001578+0000001416          1400 HN3130               3AZ
167409003167409077-000245     167409006001023759214GIFT-RIBBON METALLICx2 0000001000+00001227+00000+0001T   00001227+0000001416          1400 HN3112               3AZ
167409004167409039-000323     167409006001023524171BIRTHDAY-CANDLES 24PCE 0000001000+00000876+00000+0001T   00000876+0000001416          1400 HN3510               3AZ
167409005167409112-116038     167409006009681820246TCS CARRIER BAG MIDI   0000001000+00000035+00000+0001T   00000035+0000001416          1400 HN3090               3AZ
167410000167410               167410               170213KS     1400+00000+KS0000001490+0000001490+000000000+000000209+0000001690+0000000009+I20000000000+0000001690+Z
167410001167410046-000004     167410006001023606525BATTERY 9VOLT H/POWER  0000001000+00001490+00000+0001T   00001490+0000001417          1400 HN3312               3AZ
167411000167411               167411               170213KS     1400+00000+KS0000001753+0000001753+000000000+000000246+0000001990+0000000009+I20000000000+0000001990+Z
167411001167411077-000373     167411006003000395217G/BAG MED 18X23CM DESGN0000001000+00001753+00000+0001T   00001753+0000001423          1400 HN3112               3AZ
167412000167412               167412               170213KS     1400+00000+KS0000002192+0000002192+000000000+000000307+0000002490+0000000009+I20000000000+0000002490+Z
167412001167412159-000887     167412006001023730817HOOKS PL SUCTION 9PCE  0000001000+00002192+00000+0001T   00002192+0000001433          1400 HN3200               3AZ
167413000167413               167413               170213KS     1400+00000+KS0000008154+0000008154+000000000+000001143+0000009297+0000000000+I40000009297+0000000000+Z
167413001167413077-000303     167413006001023593757GIFT-BAG PAPER MED     0000001000+00001578+00000+0001T   00001578+0000001436          1400 HN3112               3AZ
167413002167413368-000265     167413006001023750914PLUSH BEAR 23CM ASSTD C0000001000+00006139+00000+0001T   00006139+0000001436          1400 HN3745               3AZ
167413003167413080-000133-A   167413006003000647019MINI VALENTINES CARD   0000001000+00000437+00000+0001T   00000437+0000001436          1400 HN3112               3AZ
167414000167414               167414               170213KS     1400+00000+KS0000003542+0000003542+000000000+000000496+0000004030+0000000008+I20000000000+0000004030+Z
167414001167414031-000923     167414006001023669933P/FRAME BLK W/WORDS    0000001000+00003507+00000+0001T   00003507+0000001441          1400 HN3510               3AZ
167414002167414112-116038     167414006009681820246TCS CARRIER BAG MIDI   0000001000+00000035+00000+0001T   00000035+0000001441          1400 HN3090               3AZ
167415000167415               167415               170213KS     1400+00000+KS0000012324+0000012324+000000000+000001727+0000014051+0000000000+I40000014051+0000000000+Z
167415001167415038-092233     167415006003000328925TABLE-MAT N/SLIP ASST  0000004000+00003069+00000+0001T   00003507+0008191443          1400 HN3300               3AZ
167415002167415112-116069     167415006009681820277TCS CARRIER BAG JUMBO  0000001000+00000048+00000+0001T   00000048+0000001443          1400 HN3090               3AZ
167416000167416               167416               170213KS     1400+00000+KS0000014640+0000014640+000000000+000002052+0000016692+0000000000+I40000016692+0000000000+Z
167416001167416048-000826     167416006001023753045TORCH LED W/ZOOM SMALL 0000001000+00003507+00000+0001T   00003507+0000001453          1400 HN33051IC            3AZ
167416002167416048-000859     167416006003000423422TORCH 9 LED PL 3XAAA   0000004000+00001753+00000+0001T   00001753+0000001453          1400 HN3305               3AZ
167416003167416046-000014-VP  167416006003000537952BATTERIES H/P SIZE:AAA 0000001000+00004121+00000+0001T   00004121+0000001453          1400 HN3312               3AZ
167417000167417               167417               170213KS     1400+00000+KS0000002630+0000002630+000000000+000000369+0000002990+0000000009+I20000000000+0000002990+Z
167417001167417079-013101     167417006001023863706CRAFT SET DIY PIPE-CLNR0000001000+00002630+00000+0001T   00002630+0000001520          1400 HN3130               3AZ
167418000167418               167418               170213KS     1400+00000+KS0000001578+0000001578+000000000+000000221+0000001790+0000000009+I20000000000+0000001790+Z
167418001167418077-000315     167418006003000181186GIFT-BAG 20x28cm MATT  0000001000+00001578+00000+0001T   00001578+0000001521          1400 HN3112               3AZ
167419000167419               167419               170213KS     1400+00000+KS0000001578+0000001578+000000000+000000221+0000001790+0000000009+I20000000000+0000001790+Z
167419001167419077-000303     167419006001023593757GIFT-BAG PAPER MED     0000001000+00001578+00000+0001T   00001578+0000001544          1400 HN3112               3AZ
167420000167420               167420               170213KS     1400+00000+KS0000002192+0000002192+000000000+000000307+0000002490+0000000009+I20000000000+0000002490+Z
167420001167420080-000127     167420006003000424351VALENTINES DAY 36x24CM 0000001000+00002192+00000+0001T   00002192+0000001556          1400 HN3112               3AZ
167421000167421               167421               170213KS     1400+00000+KS0000000048+0000000048+000000000+000000007+0000000050+0000000005+I20000000000+0000000050+Z
167421001167421112-116069     167421006009681820277TCS CARRIER BAG JUMBO  0000001000+00000048+00000+0001T   00000048+0000001557          1400 HN3090               3AZ
A17021300                                          08455647KSSLAVE 3                       HN32IC
A17021301                                          17220989KSSLAVE 3                       1IC1IC
B16741600                                          170213KS048-000826     14520770SLAVE 3     HN31IC0000005000+0000001000+0000000000000+
C16740200                                          170213KS004-071261     12402876SLAVE 3     HN31IC0000000000+0000000000+0020000001000+
M17021391                              CASH        KSSLAVE 3                       Z-REPORT No.   416TOTAL (Sales - Refunds)           1431.77       CASH TO BE BANKED                  644.40       DEBIT CARDS                          0.00       CREDIT CARDS                       787.37       Z-READING                         1431.77       AIRTIME DEBIT CARD SALES             0.00       AIRTIME CARD SALES                   0.00       OVERS/UNDERS                         0.00       AIRTIME CASH SALES                   0.00       GIFT CARDS                           0.00       GIFT CARD CASH SALES                 0.00       T O T A L  CASH PAYOUTS              0.00                                                                                                                                                                                                                                                                                                                                                      Z
M17021392                              CASH        KSABSENT                                                                                                                                                                                          ANNUAL LEAVE                                                                                                                                                                                    DAY OFF                                                                                                                                                                                         COMMENTS                                                                                                                                                                                                                                                                                                                                                                                       Z
Y17021300                                          KS00000000125704+000024
ZKS17021319593 SLAVE 3      SALES DATA                     NEXT INVOICE NO.  167422 0417
X KS Slave 3 First invoice 167398 170213 Last invoice 167421 170213 Next invoice 167422 Total number of records 000000081 clbackup completed 19:59:36
