170479000170479               170479               170213KS     1400+00000+KS0000885903-0000885903-000000000+000124120-0001010023-           I90000000000+0000000000+Z
170479001170479067-000014     170479006001023824349XMAS ROOM WINDOW DECALL0000012000-00006139+00000+0001T102929141701B                   1400 1IC1101ICV             Z
170479002170479067-000079     170479006001023484260XMAS WREATH GREEN 38cm 0000024000-00006139+00000+0001T102929141701B                   1400 1IC1101ICV             Z
170479003170479067-000300     170479006009631634749XMAS TREE DEC IN BAG   0000015000-00003507+00000+0001T102929141701B                   1400 1IC1101ICV             Z
170479004170479067-000301     170479006001023746283XMAS TREE DEC 8PC BOX  0000004000-00003507+00000+0001T102929141701B                   1400 1IC1101ICV             Z
170479005170479067-000463     170479006003000663552XMAS STATIONERY 6PC    0000012000-00002630+00000+0001T102929141701B                   1400 1IC1101ICV             Z
170479006170479067-000474     170479006001023782762XMAS TREE SANTA ON PINE0000007000-00002104+00000+0001T102929141701B                   1400 1IC1101ICV             Z
170479007170479067-000483     170479006001023870384XMAS DECOR ANGEL 6PCE  0000004000-00005262+00000+0001T102929141701B                   1400 1IC1101ICV             Z
170479008170479067-000548     170479006001023746054XMAS-STOCKING SANTA-FCE0000022000-00002016+00000+0001T102929141701B                   1400 1IC1101ICV             Z
170479009170479067-000648     170479006003000664511XMAS TREE GLASS BALL   0000006000-00005262+00000+0001T102929141701B                   1400 1IC1101ICV             Z
170479010170479067-000650     170479006003000664153XMAS DRESS UP BEARD    0000020000-00002630+00000+0001T102929141701B                   1400 1IC1101ICV             Z
170479011170479067-000991-A   170479006003000118892XMAS-DECOR BALLS       0000003000-00005262+00000+0001T102929141701B                   1400 1IC1101ICV             Z
170479012170479067-000992     170479006001023746269XMAS-BALLS 12pc 3cm    0000005000-00002192+00000+0001T102929141701B                   1400 1IC1101ICV             Z
170479013170479067-000996     170479006001023746177XMAS TREE DECOR BALLS  0000004000-00002192+00000+0001T102929141701B                   1400 1IC1101ICV             Z
170479014170479067-000997     170479006001023746146XMAS-MET BALLS 6cm 6PCE0000004000-00002630+00000+0001T102929141701B                   1400 1IC1101ICV             Z
170479015170479067-001001     170479006001023746115XMAS-DEC BALLS 13PCE   0000044000-00003507+00000+0001T102929141701B                   1400 1IC1101ICV             Z
170479016170479067-001002     170479006001023825308XMAS-BALLS SET 10pc ASS0000008000-00005262+00000+0001T102929141701B                   1400 1IC1101ICV             Z
170479017170479067-001104     170479006001023746030XMAS SANTA-SUIT (ADULT)0000012000-00012279+00000+0001T102929141701B                   1400 1IC1101ICV             Z
170479018170479067-002018     170479006001023617316XMAS BEADS ON-STRING   0000004000-00001753+00000+0001T102929141701B                   1400 1IC1101ICV             Z
170479019170479067-006102     170479006003453000119XMAS-GIFT-WRAP PACK-3  0000004000-00001402+00000+0001T102929141701B                   1400 1IC1101ICV             Z
170480000170480               170480               170213KS     1400+00000+KS0000671721-0000671721-000000000+000094236-0000765957-           I90000000000+0000000000+Z
170480001170480067-000001-B   170480006003000116034XMAS GIFT TAGS         0000007000-00002630+00000+0001T102929151701B                   1400 1IC1101ICV             Z
170480002170480067-000002     170480006001023342164GIFTTAG PEEL N STICK   0000132000-00002279+00000+0001T102929151701B                   1400 1IC1101ICV             Z
170480003170480067-000013     170480006001023825537STATIONERY GIFTTAG     0000002000-00002630+00000+0001T102929151701B                   1400 1IC1101ICV             Z
170480004170480067-000058     170480006003000664993WALL-PLAQUE MERRY-XMAS 0000001000-00002192+00000+0001T102929151701B                   1400 1IC1101ICV             Z
170480005170480067-000079     170480006001023484260XMAS WREATH GREEN 38cm 0000004000-00006139+00000+0001T102929151701B                   1400 1IC1101ICV             Z
170480006170480067-000084     170480006001023484116XMAS TREE DECOR BALLS  0000001000-00003507+00000+0001T102929151701B                   1400 1IC1101ICV             Z
170480007170480067-000460     170480006003000655427XMAS TREE DECOR 6PC    0000003000-00003069+00000+0001T102929151701B                   1400 1IC1101ICV             Z
170480008170480067-000461     170480006003000663316XMAS TREE DEC BALL 4PC 0000001000-00002630+00000+0001T102929151701B                   1400 1IC1101ICV             Z
170480009170480067-000478     170480006001023782885TREE DEC CHERUB 10cm   0000007000-00002104+00000+0001T102929151701B                   1400 1IC1101ICV             Z
170480010170480067-000549     170480006003000530809XMAS ELF STOCKING 45cm 0000002000-00006139+00000+0001T102929151701B                   1400 1IC1101ICV             Z
170480011170480067-001000     170480006001023746085XMAS TREE DECOR BALL 6P0000006000-00008771+00000+0001T102929151701B                   1400 1IC1101ICV             Z
170480012170480067-001124     170480006003000529575PHOTO FRAME DECOR 8cm  0000016000-00002630+00000+0001T102929151701B                   1400 1IC1101ICV             Z
170480013170480067-001130     170480006003000531042XMAS TREE ORNAMENT ASST0000003000-00001402+00000+0001T102929151701B                   1400 1IC1101ICV             Z
170480014170480067-001135     170480006003000529452XMAS MASKING TAPE 3pcs 0000034000-00002279+00000+0001T102929151701B                   1400 1IC1101ICV             Z
170480015170480067-002018     170480006001023617316XMAS BEADS ON-STRING   0000006000-00001753+00000+0001T102929151701B                   1400 1IC1101ICV             Z
170480016170480067-003497     170480006001023877376LIGHTS WINDOW-FIG ASSTD0000008000-00010525+00000+0001T102929151701B                   1400 1IC1101ICV             Z
170480017170480067-006500     170480006001023849854XMAS STATIONERY CARD   0000001000-00001753+00000+0001T102929151701B                   1400 1IC1101ICV             Z
170480018170480067-006503     170480006003000595563XMAS S/CARD & ENVELOPE 0000004000-00001314+00000+0001T102929151701B                   1400 1IC1101ICV             Z
170481000170481               170481               170213KS     1400+00000+KS0000303975-0000303975-000000000+000042592-0000346567-           I90000000000+0000000000+Z
170481001170481006-005002     170481006001023825056TINSEL 7cmsx2m    ASSTD0000017000-00001578+00000+0001T102929161701B                   1400 1IC1311ICV             Z
170481002170481006-005003     170481006001023825117TINSEL 7cmx2m 2-TONE   0000002000-00001139+00000+0001T102929161701B                   1400 1IC1311ICV             Z
170481003170481006-005006     170481006003000376018TINSEL 10cmx2m         0000001000-00001753+00000+0001T102929161701B                   1400 1IC1311ICV             Z
170481004170481006-005007     170481006003000377619TINSEL 10cmx2.5m       0000003000-00003069+00000+0001T102929161701B                   1400 1IC1311ICV             Z
170481005170481067-000057     170481006003000128013XMAS TREE STAR 21cm    0000001000-00004385+00000+0001T102929161701B                   1400 1IC1101ICV             Z
170481006170481067-000646     170481006003000663798XMAS SUNDRY MAGIC G.Y.O0000001000-00004385+00000+0001T102929161701B                   1400 1IC1101ICV             Z
170481007170481067-000991-A   170481006003000118892XMAS-DECOR BALLS       0000001000-00005262+00000+0001T102929161701B                   1400 1IC1101ICV             Z
170481008170481067-001131     170481006003000529094XMAS WREATH BELL       0000001000-00005262+00000+0001T102929161701B                   1400 1IC1101ICV             Z
170481009170481067-001133     170481006003000529216CONFETTI TREE SHAPED   0000002000-00001402+00000+0001T102929161701B                   1400 1IC1101ICV             Z
170481010170481067-003535     170481006003000530687XMAS TREE TOPPER B/O   0000001000-00005262+00000+0001T102929161701B                   1400 1IC1101ICV             Z
170481011170481067-006103     170481006003000588589XMAS GIFT WRAP 5mx700mm0000020000-00002630+00000+0001T102929161701B                   1400 1IC1101ICV             Z
170481012170481067-006108     170481006001023796677XMAS G/WRAP 1mx700mm   0000175000-00000964+00000+0001T102929161701B                   1400 1IC1101ICV             Z
170481013170481067-006109     170481006003000664757XMAS GIFT WRAP 2mx700mm0000006000-00002016+00000+0001T102929161701B                   1400 1IC1101ICV             Z
170481014170481067-006207     170481006001023483188GIFT-BAG MED XMAS      0000001000-00000876+00000+0001T102929161701B                   1400 1IC1101ICV             Z
170481015170481067-006317     170481006001023804679XMAS SERVIETTES PACK-200000001000-00002279+00000+0001T102929161701B                   1400 1IC1101ICV             Z
170482000170482               170482               170213KS     1400+00000+KS0000324875-0000324875-000000000+000045519-0000370394-           I90000000000+0000000000+Z
170482001170482006-000089     170482006003000648498PARTY PHOTO BOOTH PROPS0000003000-00002367+00000+0001T102929171701B                   1400 1IC1311ICV             Z
170482002170482006-000770     170482006003000648221HALLOWEEN FUN TREAT BAG0000011000-00002192+00000+0001T102929171701B                   1400 1IC1311ICV             Z
170482003170482006-000771     170482006003000648344PARTY BOTTLE STICKERSx80000002000-00001753+00000+0001T102929171701B                   1400 1IC1311ICV             Z
170482004170482366-000461     170482006003000376568DRESS UP DRACULA ADULT 0000001000-00006139+00000+0001T102929171701B                   1400 1IC1311ICV             Z
170482005170482366-001108     170482006003000647750DRESSUP KIT HORRORCHILD0000003000-00005262+00000+0001T102929171701B                   1400 1IC1311ICV             Z
170482006170482366-001115     170482006003000647873DRESSUP KIT M/UP DEVIL 0000005000-00004385+00000+0001T102929171701B                   1400 1IC1311ICV             Z
170482007170482366-002191     170482006003000117017DRESS UP MASK HORROR   0000022000-00002630+00000+0001T102929171701B                   1400 1IC1311ICV             Z
170482008170482366-002800     170482006001023903075DRESSUP PIRATE EYEPATCH0000005000-00000613+00000+0001T102929171701B                   1400 1IC1311ICV             Z
170482009170482366-002804     170482006001023916013DRESS UP FAKE TEETH ASS0000002000-00001753+00000+0001T102929171701B                   1400 1IC1311ICV             Z
170482010170482366-007928     170482006001023682093MASK FACE GLOW-IN-DARK 0000020000+00002630+00000+0001T102929171701B                   1400 1IC1311ICV             Z
170482011170482366-007929     170482006003000648719DRESSUP MASK HORROR AST0000008000-00002630+00000+0001T102929171701B                   1400 1IC1311ICV             Z
170482012170482565-000026     170482006003000585281NOVELTY HALLOWEEN      0000007000-00001753+00000+0001T102929171701B                   1400 1IC7451ICV             Z
170482013170482565-000032     170482006003000585403NOVELTY HALLOWEEN DOOR 0000002000-00001314+00000+0001T102929171701B                   1400 1IC7451ICV             Z
170482014170482565-000033     170482006003000585526NOVELTY HALLOWEEN      0000012000-00004385+00000+0001T102929171701B                   1400 1IC7451ICV             Z
170482015170482565-000034     170482006003000583454NOVELTY HALLOWEEN LANTN0000006000-00002630+00000+0001T102929171701B                   1400 1IC7451ICV             Z
170482016170482565-000200     170482006003000636495NOVELTY SPIDERNET 3.6m 0000006000-00010525+00000+0001T102929171701B                   1400 1IC7451ICV             Z
170482017170482565-008001     170482006003000655731NOVELTY REAPER DECO    0000003000-00003507+00000+0001T102929171701B                   1400 1IC7451ICV             Z
170482018170482565-008002     170482006003000655618NOVELTY WITCHES 40x48cm0000004000-00003507+00000+0001T102929171701B                   1400 1IC7451ICV             Z
170482019170482565-008004     170482006003000655854NOVELTY LAUGHING BAT   0000008000-00004385+00000+0001T102929171701B                   1400 1IC7451ICV             Z
170482020170482565-008020     170482006003000469475NOVELTY SKELETONS 20cm 0000007000-00001051+00000+0001T102929171701B                   1400 1IC7451ICV             Z
170483000170483               170483               170213KS     1400+00000+KS0000105200-0000105200-000000000+000014760-0000119960-           I90000000000+0000000000+Z
170483001170483366-007928     170483006001023682093MASK FACE GLOW-IN-DARK 0000040000-00002630+00000+0001T102929171701B                   1400 1IC1311ICV             Z
170484000170484               170484               170213KS     1400+00000+KS0000154120-0000154120-000000000+000021664-0000175784-           I90000000000+0000000000+Z
170484001170484015-002010     170484006001023640345BOWL S/STEEL MIXING 26c0000002000-00003507+00000+0001T102929191701B                   1400 1IC5151ICV             Z
170484002170484002-050019     170484006001023815804MORTAR & PESTLE WDN    0000001000-00011402+00000+0001T102929191701B                   1400 1IC3001ICV             Z
170484003170484024-000148     170484006003000378821NON-STICK SPRINGFORM   0000001000-00016665+00000+0001T102929191701B                   1400 1IC3001ICV             Z
170484004170484030-004020     170484006003000323142PLAQUE WDN SIGN 40X25CM0000004000-00013157+00000+0001T102929191701B                   1400 1IC5051ICV             Z
170484005170484033-000008     170484006003000226818PILL REMINDER 28-COMPAR0000003000-00002630+00000+0001T102929191701B                   1400 1IC2001ICV             Z
170484006170484067-000992     170484006001023746269XMAS-BALLS 12pc 3cm    0000001000-00002192+00000+0001T102929191701B                   1400 1IC1101ICV             Z
170484007170484080-000133     170484006003000535613CARD&ENV MINI ASTD DSGN0000096000-00000437+00000+0001T102929191701B                   1400 1IC1121ICV             Z
170484008170484306-000961     170484006003000559114FIRSTAID PLASTER 30PC  0000004000-00002367+00000+0001T102929191701B                   1400 1IC2001ICV             Z
170484009170484366-002191     170484006003000117017DRESS UP MASK HORROR   0000001000-00002630+00000+0001T102929191701B                   1400 1IC1311ICV             Z
170484010170484067-000002     170484006001023342164GIFTTAG PEEL N STICK   0000001000-00002279+00000+0001T102929191701B                   1400 1IC1101ICV             Z
170485000170485               170485               170213KS     1400+00000+KS0002396935+0002396935+000000000+000336074+0002733009+           I90000000000+0000000000+Z
170485001170485030-004020     170485006003000323142PLAQUE WDN SIGN 40X25CM0000005000+00013157+00000+0001T102929141701B                   1400 1IC5051ICV             Z
170485002170485080-000133     170485006003000535613CARD&ENV MINI ASTD DSGN0000096000+00000437+00000+0001T102929141701B                   1400 1IC1121ICV             Z
170485003170485002-050019     170485006001023815804MORTAR & PESTLE WDN    0000001000+00011402+00000+0001T102929141701B                   1400 1IC3001ICV             Z
170485004170485015-002010     170485006001023640345BOWL S/STEEL MIXING 26c0000002000+00003507+00000+0001T102929141701B                   1400 1IC5151ICV             Z
170485005170485024-000148     170485006003000378821NON-STICK SPRINGFORM   0000001000+00016665+00000+0001T102929141701B                   1400 1IC3001ICV             Z
170485006170485306-000961     170485006003000559114FIRSTAID PLASTER 30PC  0000005000+00002367+00000+0001T102929141701B                   1400 1IC2001ICV             Z
170485007170485006-000089     170485006003000648498PARTY PHOTO BOOTH PROPS0000003000+00002367+00000+0001T102929141701B                   1400 1IC1311ICV             Z
170485008170485006-000770     170485006003000648221HALLOWEEN FUN TREAT BAG0000012000+00002192+00000+0001T102929141701B                   1400 1IC1311ICV             Z
170485009170485006-000771     170485006003000648344PARTY BOTTLE STICKERSx80000002000+00001753+00000+0001T102929141701B                   1400 1IC1311ICV             Z
170485010170485006-005002     170485006001023825056TINSEL 7cmsx2m    ASSTD0000017000+00001578+00000+0001T102929141701B                   1400 1IC1311ICV             Z
170485011170485045-004024     170485004008321113016GLB ENERGY-SAVER ES 15W0000002000+00003507+00000+0001T102929141701B                   1400 1IC8801ICV             Z
170485012170485045-004027     170485006003000257867GLOBE ENERGY-SAVER 11W 0000003000+00003507+00000+0001T102929141701B                   1400 1IC8801ICV             Z
170485013170485006-005003     170485006001023825117TINSEL 7cmx2m 2-TONE   0000002000+00001139+00000+0001T102929141701B                   1400 1IC1311ICV             Z
170485014170485006-005006     170485006003000376018TINSEL 10cmx2m         0000002000+00001753+00000+0001T102929141701B                   1400 1IC1311ICV             Z
170485015170485006-005007     170485006003000377619TINSEL 10cmx2.5m       0000003000+00003069+00000+0001T102929141701B                   1400 1IC1311ICV             Z
170485016170485067-000001-B   170485006003000116034XMAS GIFT TAGS         0000007000+00002630+00000+0001T102929141701B                   1400 1IC1101ICV             Z
170485017170485067-000002     170485006001023342164GIFTTAG PEEL N STICK   0000133000+00002279+00000+0001T102929141701B                   1400 1IC1101ICV             Z
170485018170485067-000013     170485006001023825537STATIONERY GIFTTAG     0000002000+00002630+00000+0001T102929141701B                   1400 1IC1101ICV             Z
170485019170485067-000014     170485006001023824349XMAS ROOM WINDOW DECALL0000013000+00006139+00000+0001T102929141701B                   1400 1IC1101ICV             Z
170485020170485067-000057     170485006003000128013XMAS TREE STAR 21cm    0000001000+00004385+00000+0001T102929141701B                   1400 1IC1101ICV             Z
170485021170485067-000058     170485006003000664993WALL-PLAQUE MERRY-XMAS 0000001000+00002192+00000+0001T102929141701B                   1400 1IC1101ICV             Z
170485022170485067-000079     170485006001023484260XMAS WREATH GREEN 38cm 0000027000+00006139+00000+0001T102929141701B                   1400 1IC1101ICV             Z
170485023170485067-000084     170485006001023484116XMAS TREE DECOR BALLS  0000001000+00003507+00000+0001T102929141701B                   1400 1IC1101ICV             Z
170485024170485067-000300     170485006009631634749XMAS TREE DEC IN BAG   0000016000+00003507+00000+0001T102929141701B                   1400 1IC1101ICV             Z
170485025170485067-000301     170485006001023746283XMAS TREE DEC 8PC BOX  0000004000+00003507+00000+0001T102929141701B                   1400 1IC1101ICV             Z
170485026170485067-000304     170485006003000116232XMAS CLIPS WDN 6PC     0000001000+00002630+00000+0001T102929141701B                   1400 1IC1101ICV             Z
170485027170485067-000460     170485006003000655427XMAS TREE DECOR 6PC    0000003000+00003069+00000+0001T102929141701B                   1400 1IC1101ICV             Z
170485028170485067-000461     170485006003000663316XMAS TREE DEC BALL 4PC 0000001000+00002630+00000+0001T102929141701B                   1400 1IC1101ICV             Z
170485029170485067-000463     170485006003000663552XMAS STATIONERY 6PC    0000012000+00002630+00000+0001T102929141701B                   1400 1IC1101ICV             Z
170485030170485067-000474     170485006001023782762XMAS TREE SANTA ON PINE0000007000+00002104+00000+0001T102929141701B                   1400 1IC1101ICV             Z
170485031170485067-000478     170485006001023782885TREE DEC CHERUB 10cm   0000008000+00002104+00000+0001T102929141701B                   1400 1IC1101ICV             Z
170485032170485067-000483     170485006001023870384XMAS DECOR ANGEL 6PCE  0000004000+00005262+00000+0001T102929141701B                   1400 1IC1101ICV             Z
170485033170485067-000548     170485006001023746054XMAS-STOCKING SANTA-FCE0000023000+00002016+00000+0001T102929141701B                   1400 1IC1101ICV             Z
170485034170485067-000549     170485006003000530809XMAS ELF STOCKING 45cm 0000002000+00006139+00000+0001T102929141701B                   1400 1IC1101ICV             Z
170485035170485067-000646     170485006003000663798XMAS SUNDRY MAGIC G.Y.O0000001000+00004385+00000+0001T102929141701B                   1400 1IC1101ICV             Z
170485036170485067-000648     170485006003000664511XMAS TREE GLASS BALL   0000006000+00005262+00000+0001T102929141701B                   1400 1IC1101ICV             Z
170485037170485067-000650     170485006003000664153XMAS DRESS UP BEARD    0000021000+00002630+00000+0001T102929141701B                   1400 1IC1101ICV             Z
170485038170485067-000991-A   170485006003000118892XMAS-DECOR BALLS       0000004000+00005262+00000+0001T102929141701B                   1400 1IC1101ICV             Z
170485039170485067-000992     170485006001023746269XMAS-BALLS 12pc 3cm    0000006000+00002192+00000+0001T102929141701B                   1400 1IC1101ICV             Z
170485040170485067-000996     170485006001023746177XMAS TREE DECOR BALLS  0000006000+00002192+00000+0001T102929141701B                   1400 1IC1101ICV             Z
170485041170485067-000997     170485006001023746146XMAS-MET BALLS 6cm 6PCE0000004000+00002630+00000+0001T102929141701B                   1400 1IC1101ICV             Z
170485042170485067-001000     170485006001023746085XMAS TREE DECOR BALL 6P0000006000+00008771+00000+0001T102929141701B                   1400 1IC1101ICV             Z
170485043170485067-001001     170485006001023746115XMAS-DEC BALLS 13PCE   0000004000+00003507+00000+0001T102929141701B                   1400 1IC1101ICV             Z
170485044170485067-001002     170485006001023825308XMAS-BALLS SET 10pc ASS0000008000+00005262+00000+0001T102929141701B                   1400 1IC1101ICV             Z
170485045170485067-001104     170485006001023746030XMAS SANTA-SUIT (ADULT)0000012000+00012279+00000+0001T102929141701B                   1400 1IC1101ICV             Z
170485046170485067-001124     170485006003000529575PHOTO FRAME DECOR 8cm  0000018000+00002630+00000+0001T102929141701B                   1400 1IC1101ICV             Z
170485047170485067-001130     170485006003000531042XMAS TREE ORNAMENT ASST0000003000+00001402+00000+0001T102929141701B                   1400 1IC1101ICV             Z
170485048170485067-001131     170485006003000529094XMAS WREATH BELL       0000001000+00005262+00000+0001T102929141701B                   1400 1IC1101ICV             Z
170485049170485067-001133     170485006003000529216CONFETTI TREE SHAPED   0000002000+00001402+00000+0001T102929141701B                   1400 1IC1101ICV             Z
170485050170485067-001135     170485006003000529452XMAS MASKING TAPE 3pcs 0000033000+00002279+00000+0001T102929141701B                   1400 1IC1101ICV             Z
170485051170485067-002018     170485006001023617316XMAS BEADS ON-STRING   0000010000+00001753+00000+0001T102929141701B                   1400 1IC1101ICV             Z
170485052170485067-003497     170485006001023877376LIGHTS WINDOW-FIG ASSTD0000008000+00010525+00000+0001T102929141701B                   1400 1IC1101ICV             Z
170485053170485067-003538     170485006003000664832XMAS LIGHTS B/O IN 10PC0000001000+00002630+00000+0001T102929141701B                   1400 1IC1101ICV             Z
170485054170485067-006102     170485006003453000119XMAS-GIFT-WRAP PACK-3  0000004000+00001402+00000+0001T102929141701B                   1400 1IC1101ICV             Z
170485055170485067-006103     170485006003000588589XMAS GIFT WRAP 5mx700mm0000020000+00002630+00000+0001T102929141701B                   1400 1IC1101ICV             Z
170485056170485067-006108     170485006001023796677XMAS G/WRAP 1mx700mm   0000183000+00000964+00000+0001T102929141701B                   1400 1IC1101ICV             Z
170485057170485067-006109     170485006003000664757XMAS GIFT WRAP 2mx700mm0000006000+00002016+00000+0001T102929141701B                   1400 1IC1101ICV             Z
170485058170485067-006207     170485006001023483188GIFT-BAG MED XMAS      0000001000+00000876+00000+0001T102929141701B                   1400 1IC1101ICV             Z
170485059170485067-006230     170485006003000595969XMAS G/BAG MEDIUM DES. 0000018000+00001665+00000+0001T102929141701B                   1400 1IC1101ICV             Z
170485060170485067-006317     170485006001023804679XMAS SERVIETTES PACK-200000001000+00002279+00000+0001T102929141701B                   1400 1IC1101ICV             Z
170485061170485067-006500     170485006001023849854XMAS STATIONERY CARD   0000001000+00001753+00000+0001T102929141701B                   1400 1IC1101ICV             Z
170485062170485067-006503     170485006003000595563XMAS S/CARD & ENVELOPE 0000004000+00001314+00000+0001T102929141701B                   1400 1IC1101ICV             Z
170485063170485067-006505     170485006001023796684XMAS CARD+ENVELOPE     0000010000+00000876+00000+0001T102929141701B                   1400 1IC1101ICV             Z
170485064170485366-000461     170485006003000376568DRESS UP DRACULA ADULT 0000001000+00006139+00000+0001T102929141701B                   1400 1IC1311ICV             Z
170485065170485366-001108     170485006003000647750DRESSUP KIT HORRORCHILD0000003000+00005262+00000+0001T102929141701B                   1400 1IC1311ICV             Z
170485066170485366-001115     170485006003000647873DRESSUP KIT M/UP DEVIL 0000005000+00004385+00000+0001T102929141701B                   1400 1IC1311ICV             Z
170485067170485366-002191     170485006003000117017DRESS UP MASK HORROR   0000024000+00002630+00000+0001T102929141701B                   1400 1IC1311ICV             Z
170485068170485366-002800     170485006001023903075DRESSUP PIRATE EYEPATCH0000005000+00000613+00000+0001T102929141701B                   1400 1IC1311ICV             Z
170485069170485366-002804     170485006001023916013DRESS UP FAKE TEETH ASS0000002000+00001753+00000+0001T102929141701B                   1400 1IC1311ICV             Z
170485070170485366-007928     170485006001023682093MASK FACE GLOW-IN-DARK 0000020000+00002630+00000+0001T102929141701B                   1400 1IC1311ICV             Z
170485071170485366-007929     170485006003000648719DRESSUP MASK HORROR AST0000008000+00002630+00000+0001T102929141701B                   1400 1IC1311ICV             Z
170485072170485565-000026     170485006003000585281NOVELTY HALLOWEEN      0000007000+00001753+00000+0001T102929141701B                   1400 1IC7451ICV             Z
170485073170485565-000032     170485006003000585403NOVELTY HALLOWEEN DOOR 0000002000+00001314+00000+0001T102929141701B                   1400 1IC7451ICV             Z
170485074170485565-000033     170485006003000585526NOVELTY HALLOWEEN      0000011000+00004385+00000+0001T102929141701B                   1400 1IC7451ICV             Z
170485075170485565-000034     170485006003000583454NOVELTY HALLOWEEN LANTN0000006000+00002630+00000+0001T102929141701B                   1400 1IC7451ICV             Z
170485076170485565-000200     170485006003000636495NOVELTY SPIDERNET 3.6m 0000006000+00010525+00000+0001T102929141701B                   1400 1IC7451ICV             Z
170485077170485565-008001     170485006003000655731NOVELTY REAPER DECO    0000003000+00003507+00000+0001T102929141701B                   1400 1IC7451ICV             Z
170485078170485565-008002     170485006003000655618NOVELTY WITCHES 40x48cm0000004000+00003507+00000+0001T102929141701B                   1400 1IC7451ICV             Z
170485079170485565-008004     170485006003000655854NOVELTY LAUGHING BAT   0000008000+00004385+00000+0001T102929141701B                   1400 1IC7451ICV             Z
170485080170485565-008020     170485006003000469475NOVELTY SKELETONS 20cm 0000007000+00001051+00000+0001T102929141701B                   1400 1IC7451ICV             Z
M17021391                              CASH        KSSLAVE 4                       Z-REPORT No.   296TOTAL (Sales - Refunds)              0.00       CASH TO BE BANKED                    0.00       DEBIT CARDS                          0.00       CREDIT CARDS                         0.00       Z-READING                            0.00       AIRTIME DEBIT CARD SALES             0.00       AIRTIME CARD SALES                   0.00       OVERS/UNDERS                         0.00       AIRTIME CASH SALES                   0.00       GIFT CARDS                           0.00       GIFT CARD CASH SALES                 0.00       T O T A L  CASH PAYOUTS              0.00                                                                                                                                                                                                                                                                                                                                                      Z
M17021392                              CASH        KSABSENT                                                                                                                                                                                          ANNUAL LEAVE                                                                                                                                                                                    DAY OFF                                                                                                                                                                                         COMMENTS                                                                                                                                                                                                                                                                                                                                                                                       Z
Y17021300                                          KS00000000000000+000000
ZKS17021319593 SLAVE 4      SALES DATA                     NEXT INVOICE NO.  170486 0296
L53951900351458-001-003       KS1702130901141ICJABULANI MATHEN                                                                                                                                                                                                                                                                                                                                                                                                                                                                                                                                                                                                                                                                                                                                                                                                                                                                                                                                                                                      Z
L53951900351458-002-003       KS1702130901291ICJABULANI MATHEN                                                                                                                                                                                                                                                                                                                                                                                                                                                                                                                                                                                                                                                                                                                                                                                                                                                                                                                                                                                      Z
L53951900351458-003-003       KS1702130901081ICJABULANI MATHEN                                                                                                                                                                                                                                                                                                                                                                                                                                                                                                                                                                                                                                                                                                                                                                                                                                                                                                                                                                                      Z
L53959500352161-001-002       KS1702130852311ICJABULANI MATHEN                                                                                                                                                                                                                                                                                                                                                                                                                                                                                                                                                                                                                                                                                                                                                                                                                                                                                                                                                                                      Z
L53959500352161-002-002       KS1702130852051ICJABULANI MATHEN                                                                                                                                                                                                                                                                                                                                                                                                                                                                                                                                                                                                                                                                                                                                                                                                                                                                                                                                                                                      Z
L54831000350803-001-001       KS1702130903281ICJABULANI MATHEN                                                                                                                                                                                                                                                                                                                                                                                                                                                                                                                                                                                                                                                                                                                                                                                                                                                                                                                                                                                      Z
L55615100354900-001-001       KS1702130904171ICJABULANI MATHEN                                                                                                                                                                                                                                                                                                                                                                                                                                                                                                                                                                                                                                                                                                                                                                                                                                                                                                                                                                                      Z
L55618100352899-001-001       KS1702130903491ICJABULANI MATHEN                                                                                                                                                                                                                                                                                                                                                                                                                                                                                                                                                                                                                                                                                                                                                                                                                                                                                                                                                                                      Z
L55680500343582-001-002       KS1702130902061ICJABULANI MATHEN                                                                                                                                                                                                                                                                                                                                                                                                                                                                                                                                                                                                                                                                                                                                                                                                                                                                                                                                                                                      Z
L55680500343582-002-002       KS1702130902011ICJABULANI MATHEN                                                                                                                                                                                                                                                                                                                                                                                                                                                                                                                                                                                                                                                                                                                                                                                                                                                                                                                                                                                      Z
L55682600343241-001-001       KS1702080939431ICJABULANI MATHEN                                                                                                                                                                                                                                                                                                                                                                                                                                                                                                                                                                                                                                                                                                                                                                                                                                                                                                                                                                                      Z
L56439900354673-001-002       KS1702130851171ICJABULANI MATHEN                                                                                                                                                                                                                                                                                                                                                                                                                                                                                                                                                                                                                                                                                                                                                                                                                                                                                                                                                                                      Z
L56439900354673-002-002       KS1702130851421ICJABULANI MATHEN                                                                                                                                                                                                                                                                                                                                                                                                                                                                                                                                                                                                                                                                                                                                                                                                                                                                                                                                                                                      Z
L56444000354841-001-002       KS1702130902491ICJABULANI MATHEN                                                                                                                                                                                                                                                                                                                                                                                                                                                                                                                                                                                                                                                                                                                                                                                                                                                                                                                                                                                      Z
L56444000354841-002-002       KS1702130902371ICJABULANI MATHEN                                                                                                                                                                                                                                                                                                                                                                                                                                                                                                                                                                                                                                                                                                                                                                                                                                                                                                                                                                                      Z
L57002100354016-001-006       KS1702130855081ICJABULANI MATHEN                                                                                                                                                                                                                                                                                                                                                                                                                                                                                                                                                                                                                                                                                                                                                                                                                                                                                                                                                                                      Z
L57002100354016-002-006       KS1702130855351ICJABULANI MATHEN                                                                                                                                                                                                                                                                                                                                                                                                                                                                                                                                                                                                                                                                                                                                                                                                                                                                                                                                                                                      Z
L57002100354016-003-006       KS1702130853191ICJABULANI MATHEN                                                                                                                                                                                                                                                                                                                                                                                                                                                                                                                                                                                                                                                                                                                                                                                                                                                                                                                                                                                      Z
L57002100354016-004-006       KS1702130854271ICJABULANI MATHEN                                                                                                                                                                                                                                                                                                                                                                                                                                                                                                                                                                                                                                                                                                                                                                                                                                                                                                                                                                                      Z
L57002100354016-005-006       KS1702130854051ICJABULANI MATHEN                                                                                                                                                                                                                                                                                                                                                                                                                                                                                                                                                                                                                                                                                                                                                                                                                                                                                                                                                                                      Z
L57002100354016-006-006       KS1702130854491ICJABULANI MATHEN                                                                                                                                                                                                                                                                                                                                                                                                                                                                                                                                                                                                                                                                                                                                                                                                                                                                                                                                                                                      Z
L57283700353910-001-004       KS1702130900311ICJABULANI MATHEN                                                                                                                                                                                                                                                                                                                                                                                                                                                                                                                                                                                                                                                                                                                                                                                                                                                                                                                                                                                      Z
L57283700353910-002-004       KS1702130857421ICJABULANI MATHEN                                                                                                                                                                                                                                                                                                                                                                                                                                                                                                                                                                                                                                                                                                                                                                                                                                                                                                                                                                                      Z
L57283700353910-003-004       KS1702130900381ICJABULANI MATHEN                                                                                                                                                                                                                                                                                                                                                                                                                                                                                                                                                                                                                                                                                                                                                                                                                                                                                                                                                                                      Z
L57283700353910-004-004       KS1702130857101ICJABULANI MATHEN                                                                                                                                                                                                                                                                                                                                                                                                                                                                                                                                                                                                                                                                                                                                                                                                                                                                                                                                                                                      Z
L57285900352526-001-001       KS1702130904221ICJABULANI MATHEN                                                                                                                                                                                                                                                                                                                                                                                                                                                                                                                                                                                                                                                                                                                                                                                                                                                                                                                                                                                      Z
L57432100352644-001-001       KS1702130903111ICJABULANI MATHEN                                                                                                                                                                                                                                                                                                                                                                                                                                                                                                                                                                                                                                                                                                                                                                                                                                                                                                                                                                                      Z
L57536300348914-001-001       KS1702130904511ICJABULANI MATHEN                                                                                                                                                                                                                                                                                                                                                                                                                                                                                                                                                                                                                                                                                                                                                                                                                                                                                                                                                                                      Z
L57839200350959-001-003       KS1702130856201ICJABULANI MATHEN                                                                                                                                                                                                                                                                                                                                                                                                                                                                                                                                                                                                                                                                                                                                                                                                                                                                                                                                                                                      Z
L57839200350959-002-003       KS1702130856011ICJABULANI MATHEN                                                                                                                                                                                                                                                                                                                                                                                                                                                                                                                                                                                                                                                                                                                                                                                                                                                                                                                                                                                      Z
L57839200350959-003-003       KS1702130856301ICJABULANI MATHEN                                                                                                                                                                                                                                                                                                                                                                                                                                                                                                                                                                                                                                                                                                                                                                                                                                                                                                                                                                                      Z
L58080900349389-001-001       KS1702130853401ICJABULANI MATHEN                                                                                                                                                                                                                                                                                                                                                                                                                                                                                                                                                                                                                                                                                                                                                                                                                                                                                                                                                                                      Z
F086475031-000878-E       1605191047280000232ICSLAVE 4
F094157463-000501         1701141148440000021ICSLAVE 4
F094158463-000501         1701141149090000021ICSLAVE 4
F094159463-000501         1701141149250000021ICSLAVE 4
F094631024-000195         1702090953390000031ICSLAVE 4
V5395190000000195         1702090953390000031ICSLAV               000000000000000170213000000   SLAVE 4     000000000000351458               03
V5395950000000195         1702090953390000031ICSLAV               000000000000000170213000000   SLAVE 4     000000000000352161               02
V5483100000000195         1702090953390000031ICSLAV               000000000000000170213000000   SLAVE 4     000000000000350803               01
V5561510000000195         1702090953390000031ICSLAV               000000000000000170213000000   SLAVE 4     000000000000354900               01
V5561810000000195         1702090953390000031ICSLAV               000000000000000170213000000   SLAVE 4     000000000000352899               01
V5568050000000195         1702090953390000031ICSLAV               000000000000000170213000000   SLAVE 4     000000000000343582               02
V5568260000000195         1702090953390000031ICSLAV               000000000000000170208000000   SLAVE 4     000000000000343241               01
V5643990000000195         1702090953390000031ICSLAV               000000000000000170213000000   SLAVE 4     000000000000354673               02
V5644400000000195         1702090953390000031ICSLAV               000000000000000170213000000   SLAVE 4     000000000000354841               02
V5700210000000195         1702090953390000031ICSLAV               000000000000000170213000000   SLAVE 4     000000000000354016               06
V5728370000000195         1702090953390000031ICSLAV               000000000000000170213000000   SLAVE 4     000000000000353910               04
V5728590000000195         1702090953390000031ICSLAV               000000000000000170213000000   SLAVE 4     000000000000352526               01
V5743210000000195         1702090953390000031ICSLAV               000000000000000170213000000   SLAVE 4     000000000000352644               01
V5753630000000195         1702090953390000031ICSLAV               000000000000000170213000000   SLAVE 4     000000000000348914               01
V5783920000000195         1702090953390000031ICSLAV               000000000000000170213000000   SLAVE 4     000000000000350959               03
V5808090000000195         1702090953390000031ICSLAV               000000000000000170213000000   SLAVE 4     000000000000349389               01
X KS Slave 4 First invoice 170479 170213 Last invoice 170485 170213 Next invoice 170486 Total number of records 000000227 clbackup completed 19:59:38
