542816000542816               542816               170213KT     1400+00000+KT0000001314+0000001314+000000000+000000184+0000001498+0000000000+I40000001498+0000000000+Z
542816001542816107-004105     542816006002923010504BUCKET 9L OPEN         0000001000+00001314+00000+0001T   00001314+0000000921          1400 SY8210               1AZ
542817000542817               542817               170213KT     1400+00000+KT0000002366+0000002366+000000000+000000332+0000002690+0000000008+I20000000000+0000002690+Z
542817001542817039-001023     542817006003000466337CANDLE TEA-LITE METALIC0000001000+00001753+00000+0001T   00001753+0000000932          1400 SY8510               1AZ
542817002542817007-000555     542817006001023848239MEMO-PAD MINI LOVE     0000001000+00000613+00000+0001T   00000613+0000000932          1400 SY8130               1AZ
542818000542818               542818               170213KT     1400+00000+KT0000005261+0000005261+000000000+000000737+0000005998+0000000000+I40000005998+0000000000+Z
542818001542818082-026204     542818006001023816443R/GLASSES STRINGS 2PCE 0000001000+00000876+00000+0001T   00000876+0000000950          1400 SY8160               1AZ
542818002542818082-000110     542818006003000360482READING GLS STRENGHT:2 0000001000+00004385+00000+0001T   00004385+0000000950          1400 SY8160               1AZ
542819000542819               542819               170213KT     1400+00000+KT0000004821+0000004821+000000000+000000675+0000005490+0000000006+I20000000000+0000005490+Z
542819001542819018-000136     542819006001023659026MUG OCC LOVE W/PLUSH   0000001000+00003507+00000+0001T   00003507+0000000951          1400 SY8515               1AZ
542819002542819077-000310     542819006001023608635GIFT-BAG 18X23CM GLOSS 0000001000+00001314+00000+0001T   00001314+0000000951          1400 SY8112               1AZ
542820000542820               542820               170213KT     1400+00000+KT0000001753+0000001753+000000000+000000246+0000001990+0000000009+I20000000000+0000001990+Z
542820001542820079-000206     542820006003000639700PENCIL CRAYONS THERAPY 0000001000+00001753+00000+0001T   00001753+0000000952          1400 SY8130               1AZ
542821000542821               542821               170213KT     1400+00000+KT0000007893+0000007893+000000000+000001106+0000008990+0000000009+I20000000000+0000008990+Z
542821001542821085-007004     542821006001023870681P/TOOL 15in1 SS W/POUCH0000001000+00007893+00000+0001T   00007893+0000000956          1400 SY8305               1AZ
542822000542822               542822               170213KT     1400+00000+KT0000009197+0000009197+000000000+000001293+0000010490+0000000000+I20000000000+0000010490+Z
542822001542822077-000302     542822008010410010195GIFT-BAG 18X23CM E/D   0000002000+00000876+00000+0001T   00000876+0000001027          1400 SY8112               1AZ
542822002542822089-000150     542822006003000674268K/CHAIN PLUSH EMOTICON 0000001000+00001139+00000+0001T   00001139+0000001027          1400 SY8205               1AZ
542822003542822007-000555     542822006001023848239MEMO-PAD MINI LOVE     0000001000+00000613+00000+0001T   00000613+0000001027          1400 SY8130               1AZ
542822004542822368-000040     542822006003000671786PLUSH ICONS 7.5cm      0000001000+00002630+00000+0001T   00002630+0000001027          1400 SY8745               1AZ
542822005542822080-000133-A   542822006003000647019MINI VALENTINES CARD   0000002000+00000437+00000+0001T   00000437+0000001027          1400 SY8112               1AZ
542822006542822903-000151     542822006009803374411SWT SML RND R/BOW LOLLY0000002000+00000525+00000+0001T   00000525+0000001027          1400 SY8150               1AZ
542822007542822903-000087     542822006001704000161SWT SPECKLED-EGGS 50G  0000001000+00001139+00000+0001T   00001139+0000001027          1400 SY8150               1AZ
542823000542823               542823               170213KT     1400+00000+KT0000024623+0000024623+000000000+000003450+0000028073+0000000000+I40000028073+0000000000+Z
542823001542823077-000354     542823006003000139224GIFT-BAG 25X32CM H/MADE0000001000+00001753+00000+0001T   00001753+0000001031          1400 SY8112               1AZ
542823002542823112-116053     542823006006438002399TCS CARRIER BAG 38L    0000001000+00000069+00000+0001T   00000069+0000001031          1400 SY8090               1AZ
542823003542823467-000020     542823006001023755896B/SET 21cm BUCKET+ACCES0000001000+00008771+00000+0001T   00008771+0000001031          1400 SY8785               1AZ
542823004542823077-000354     542823006003000139224GIFT-BAG 25X32CM H/MADE0000001000+00001753+00000+0001T   00001753+0000001031          1400 SY8112               1AZ
542823005542823267-001998     542823008711147355350PUZZLE 300pc FAIRY-TALE0000001000+00005262+00000+0001T   00005262+0000001031          1400 SY8755               1AZ
542823006542823079-012263     542823006003000645602PAINT MINI PLATE SET   0000001000+00006139+00000+0001T   00006139+0000001031          1400 SY8130               1AZ
542823008542823039-000323     542823006001023524171BIRTHDAY-CANDLES 24PCE 0000001000+00000876+00000+0001T   00000876+0000001031          1400 SY8510               1AZ
542824000542824               542824               170213KT     1400+00000+KT0000011444+0000011444+000000000+000001605+0000013040+0000000009+I20000000000+0000013040+Z
542824001542824002-000652     542824006003000569847M/SPOON WDN 3PC H/HOUSE0000001000+00003069+00000+0001T   00003069+0000001055          1400 SY8300               1AZ
542824002542824020-000142     542824006003000223138KNIFE-SET 3PCE UTILITY 0000001000+00003069+00000+0001T   00003069+0000001055          1400 SY8300               1AZ
542824003542824001-000168     542824008992787110268TUMBLER 340ml ZOMBI    0000001000+00000876+00000+0001T   00000876+0000001055          1400 SY8515               1AZ
542824004542824112-116069     542824006009681820277TCS CARRIER BAG JUMBO  0000001000+00000048+00000+0001T   00000048+0000001055          1400 SY8090               1AZ
542824005542824002-000717     542824006001023775184CHOPPING-MATS FLEX 2PCE0000001000+00002630+00000+0001T   00002630+0000001055          1400 SY8300               1AZ
542824006542824001-000168     542824008992787110268TUMBLER 340ml ZOMBI    0000002000+00000876+00000+0001T   00000876+0000001055          1400 SY8515               1AZ
542825000542825               542825               170213KT     1400+00000+KT0000001926+0000001926+000000000+000000271+0000002197+0000000000+I40000002197+0000000000+Z
542825001542825001-000169     542825006005231103302TUMBLER 240ml HI-BALL  0000002000+00000788+00000+0001T   00000788+0000001058          1400 SY8515               1AZ
542825002542825903-000159     542825006003000417629SWT LB SMALL DUMMIE    0000001000+00000350+00000+0001T   00000350+0000001058          1400 SY8150               1AZ
542826000542826               542826               170213KT     1400+00000+KT0000003763+0000003763+000000000+000000531+0000004290+0000000004+I20000000000+0000004290+Z
542826001542826080-000124     542826006003000297733CARD & ENV VALENTINES  0000001000+00001578+00000+0001T   00001578+0000001100          1400 SY8112               1AZ
542826002542826080-000133-A   542826006003000647019MINI VALENTINES CARD   0000005000+00000437+00000+0001T   00000437+0000001100          1400 SY8112               1AZ
542827000542827               542827               170213KT     1400+00000+KT0000022570+0000022570+000000000+000003166+0000025736+0000000000+I40000025736+0000000000+Z
542827001542827112-116069     542827006009681820277TCS CARRIER BAG JUMBO  0000001000+00000048+00000+0001T   00000048+0000001105          1400 SY8090               1AZ
542827002542827080-000127     542827006003000424351VALENTINES DAY 36x24CM 0000001000+00002192+00000+0001T   00002192+0000001105          1400 SY8112               1AZ
542827003542827301-085000     542827006003000674299 ORN OCC. LOVE HEARTS  0000001000+00002192+00000+0001T   00002192+0000001105          1400 SY8505               1AZ
542827004542827206-000120     542827006003000628308PEELER CARROT SHARPENER0000001000+00001753+00000+0001T   00001753+0000001105          1400 SY8321               1AZ
542827005542827206-000200     542827006003000631469EGG SEPARATOR SILICONE 0000001000+00002630+00000+0001T   00002630+0000001105          1400 SY8321               1AZ
542827006542827028-000016     542827006001334007004ICE-BRICK CLEAR    400g0000001000+00001753+00000+0001T   00001753+0000001105          1400 SY8305               1AZ
542827007542827206-000150     542827006003000628667SLICER CUCUMBER        0000001000+00002192+00000+0001T   00002192+0000001105          1400 SY8321               1AZ
542827008542827903-000194     542827006009826020616SWT CHOC RP LOLLY 25G  0000002000+00001314+00000+0001T   00001314+0000001105          1400 SY8150               1AZ
542827009542827007-000555     542827006001023848239MEMO-PAD MINI LOVE     0000002000+00000613+00000+0001T   00000613+0000001105          1400 SY8130               1AZ
542827010542827018-000170     542827006001023775528MUG OCC. LOVE 2PC MINI 0000001000+00002192+00000+0001T   00002192+0000001105          1400 SY8515               1AZ
542827011542827018-000177     542827006001023797513MUG MINI LOVE ASSTD    0000001000+00000700+00000+0001T   00000700+0000001105          1400 SY8515               1AZ
542827012542827306-000498     542827006003000519392TOOTHBRUSH 3PC ASTD    0000001000+00001753+00000+0001T   00001753+0000001105          1400 SY8200               1AZ
542827013542827080-000133-A   542827006003000647019MINI VALENTINES CARD   0000003000+00000437+00000+0001T   00000437+0000001105          1400 SY8112               1AZ
542828000542828               542828               170213KT     1400+00000+KT0000001314+0000001314+000000000+000000184+0000001490+0000000008+I20000000000+0000001490+Z
542828001542828251-000001     542828006001023487681TAPE DBL-SIDE 18x1000mm0000001000+00001314+00000+0001T   00001314+0000001111          1400 SY8810               1AZ
542829000542829               542829               170213KT     1400+00000+KT0000004293+0000004293+000000000+000000603+0000004890+0000000006+I20000000000+0000004890+Z
542829001542829563-000316-C   542829006003000468430SERVIETTE 25cm GREEN   0000001000+00000876+00000+0001T   00000876+0000001118          1400 SY8214               1AZ
542829002542829077-000245     542829006001023759214GIFT-RIBBON METALLICx2 0000001000+00001227+00000+0001T   00001227+0000001118          1400 SY8112               1AZ
542829003542829077-000011-Y   542829006001023809858TISSUE-WRAP GOLD 10PCE 0000001000+00001753+00000+0001T   00001753+0000001118          1400 SY8112               1AZ
542829004542829080-000133     542829006003000535613CARD&ENV MINI ASTD DSGN0000001000+00000437+00000+0001T   00000437+0000001118          1400 SY8112               1AZ
542830000542830               542830               170213KT     1400+00000+KT0000014032+0000014032+000000000+000001966+0000015998+0000000000+I40000015998+0000000000+Z
542830001542830077-000454     542830006003000285266G/BAG METALLIC LRG EMB 0000001000+00001753+00000+0001T   00001753+0000001129          1400 SY8112               1AZ
542830002542830368-000111     542830006001023780812PLUSH BEAR/DOG 29CM    0000001000+00012279+00000+0001T   00012279+0000001129          1400 SY8745               1AZ
542831000542831               542831               170213KT     1400+00000+KT0000005259+0000005259+000000000+000000738+0000005990+0000000007+I20000000000+0000005990+Z
542831001542831039-000114     542831006001023524058CANDLE T/LITE RED 3.5CM0000003000+00001753+00000+0001T   00001753+0000001134          1400 SY8510               1AZ
542832000542832               542832               170213KT     1400+00000+KT0000006170+0000006170+000000000+000000865+0000007030+0000000005+I20000000000+0000007030+Z
542832001542832251-000040     542832006001023515865SEALTAPE CLEAR 48mmx50m0000005000+00001227+00000+0001T   00001227+0000001140          1400 SY8810               1AZ
542832002542832112-116038     542832006009681820246TCS CARRIER BAG MIDI   0000001000+00000035+00000+0001T   00000035+0000001140          1400 SY8090               1AZ
542833000542833               542833               170213KT     1400+00000+KT0000010569+0000010569+000000000+000001482+0000012050+0000000001+I20000000000+0000012050+Z
542833001542833046-000012-A   542833006003000208296BATTERIES H/POWER SZ:AA0000001000+00002192+00000+0001T   00002192+0000001144          1400 SY8312               1AZ
542833002542833027-009005     542833006001023713124D/BRUSH W/TOP BRISTLES 0000001000+00002630+00000+0001T   00002630+0000001144          1400 SY8212               1AZ
542833003542833027-009025     542833006003962000747DUSTPAN-SET PL         0000001000+00002630+00000+0001T   00002630+0000001144          1400 SY8212               1AZ
542833004542833159-003615     542833006001246045460TOILET-BRUSH W/STAND   0000001000+00003069+00000+0001T   00003069+0000001144          1400 SY8200               1AZ
542833005542833112-116069     542833006009681820277TCS CARRIER BAG JUMBO  0000001000+00000048+00000+0001T   00000048+0000001144          1400 SY8090               1AZ
542834000542834               542834               170213KT     1400+00000+KT0000004857+0000004857+000000000+000000681+0000005538+0000000000+I40000005538+0000000000+Z
542834001542834080-000133-A   542834006003000647019MINI VALENTINES CARD   0000001000+00000437+00000+0001T   00000437+0000001148          1400 SY8112               1AZ
542834002542834001-000175     542834006001023788108B/MUG GLS LOVE 380ML   0000001000+00004385+00000+0001T   00004385+0000001148          1400 SY8515               1AZ
542834003542834112-116038     542834006009681820246TCS CARRIER BAG MIDI   0000001000+00000035+00000+0001T   00000035+0000001148          1400 SY8090               1AZ
542835000542835               542835               170213KT     1400+00000+KT0000003331+0000003331+000000000+000000467+0000003790+0000000008+I20000000000+0000003790+Z
542835001542835077-000351     542835006003000139033GIFT-BAG 18X23CM E/D P 0000001000+00001753+00000+0001T   00001753+0000001149          1400 SY8112               1AZ
542835002542835080-000124     542835006003000297733CARD & ENV VALENTINES  0000001000+00001578+00000+0001T   00001578+0000001149          1400 SY8112               1AZ
542836000542836               542836               170213KT     1400+00000+KT0000004822+0000004822+000000000+000000676+0000005490+0000000008+I20000000000+0000005490+Z
542836001542836368-000001     542836006003000097982Plush Bear 25cm        0000001000+00004385+00000+0001T   00004385+0000001150          1400 SY8745               1AZ
542836002542836080-000133-A   542836006003000647019MINI VALENTINES CARD   0000001000+00000437+00000+0001T   00000437+0000001150          1400 SY8112               1AZ
542837000542837               542837               170213KT     1400+00000+KT0000005383+0000005383+000000000+000000755+0000006138+0000000000+I40000006138+0000000000+Z
542837001542837036-000013     542837006001246500860LINT REMOVER REFILLS   0000001000+00003946+00000+0001T   00003946+0000001202          1400 SY8212               1AZ
542837002542837105-000750     542837006003000190270CONTAINERS 4xMINI 150ml0000001000+00001402+00000+0001T   00001402+0000001202          1400 SY8210               1AZ
542837003542837112-116038     542837006009681820246TCS CARRIER BAG MIDI   0000001000+00000035+00000+0001T   00000035+0000001202          1400 SY8090               1AZ
542838000542838               542838               170213KT     1400+00000+KT0000006139+0000006139+000000000+000000860+0000006990+0000000009+I20000000000+0000006990+Z
542838001542838035-000021     542838006002596020206UMBRELLA GENTS         0000001000+00006139+00000+0001T   00006139+0000001220          1400 SY8205               1AZ
542839000542839               542839               170213KT     1400+00000+KT0000001753+0000001753+000000000+000000246+0000001990+0000000009+I20000000000+0000001990+Z
542839001542839080-000101     542839006003000236732CARD&ENVLPE FEMALE     0000001000+00001753+00000+0001T   00001753+0000001225          1400 SY8112               1AZ
542840000542840               542840               170213KT     1400+00000+KT0000001490+0000001490+000000000+000000209+0000001699+0000000000+I40000001699+0000000000+Z
542840001542840039-000108     542840006001023524034TEA-LITE CANDLES 8PCE  0000001000+00001490+00000+0001T   00001490+0000001227          1400 SY8510               1AZ
542841000542841               542841               170213KT     1400+00000+KT0000003804+0000003804+000000000+000000534+0000004330+0000000008+I20000000000+0000004330+Z
542841001542841016-006515     542841006003000295555S/JAR GLS EMBOSS. 250ML0000001000+00001753+00000+0001T   00001753+0000001228          1400 SY8300               1AZ
542841002542841112-116038     542841006009681820246TCS CARRIER BAG MIDI   0000001000+00000035+00000+0001T   00000035+0000001228          1400 SY8090               1AZ
542841003542841106-001118     542841006009654960320WATER BOTTLE PL 500ml  0000001000+00002016+00000+0001T   00002016+0000001228          1400 SY8210               1AZ
542842000542842               542842               170213KT     1400+00000+KT0000001788+0000001788+000000000+000000251+0000002039+0000000000+I40000002039+0000000000+Z
542842001542842016-006515     542842006003000295555S/JAR GLS EMBOSS. 250ML0000001000+00001753+00000+0001T   00001753+0000001231          1400 SY8300               1AZ
542842002542842112-116038     542842006009681820246TCS CARRIER BAG MIDI   0000001000+00000035+00000+0001T   00000035+0000001231          1400 SY8090               1AZ
542843000542843               542843               170213KT     1400+00000+KT0000005480+0000005480+000000000+000000769+0000006249+0000000000+I40000006249+0000000000+Z
542843001542843105-001031     542843000700371696627FOODSAVER 800ml        0000001000+00001314+00000+0001T   00001314+0000001239          1400 SY8210               1AZ
542843002542843033-000124     542843006009654960597COMBS HANDLE + TAIL 2PC0000001000+00001051+00000+0001T   00001051+0000001239          1400 SY8200               1AZ
542843003542843084-006995     542843006003000092802NAIL CLIPPER 8cm TOE   0000001000+00001753+00000+0001T   00001753+0000001239          1400 SY8200               1AZ
542843004542843007-000044     542843006009635831489DISPLAY-BOOK A4 10-PAGE0000001000+00001314+00000+0001T   00001314+0000001239          1400 SY8130               1AZ
542843005542843112-116069     542843006009681820277TCS CARRIER BAG JUMBO  0000001000+00000048+00000+0001T   00000048+0000001239          1400 SY8090               1AZ
542844000542844               542844               170213KT     1400+00000+KT0000011224+0000011224+000000000+000001572+0000012790+0000000006+I20000000000+0000012790+Z
542844001542844077-000151     542844006008766114676GIFT-WRAP C/PHANE ASSTD0000001000+00000876+00000+0001T   00000876+0000001252          1400 SY8112               1AZ
542844002542844080-000124     542844006003000297733CARD & ENV VALENTINES  0000001000+00001578+00000+0001T   00001578+0000001252          1400 SY8112               1AZ
542844003542844006-000190     542844006003000685530BALLOONS LOVE 81x91cm  0000001000+00004385+00000+0001T   00004385+0000001252          1400 SY8131               1AZ
542844004542844001-000175     542844006001023788108B/MUG GLS LOVE 380ML   0000001000+00004385+00000+0001T   00004385+0000001252          1400 SY8515               1AZ
542845000542845               542845               170213KT     1400+00000+KT0000005085+0000005085+000000000+000000712+0000005790+0000000007+I20000000000+0000005790+Z
542845001542845018-000177     542845006001023797513MUG MINI LOVE ASSTD    0000001000+00000700+00000+0001T   00000700+0000001304          1400 SY8515               1AZ
542845002542845001-000175     542845006001023788108B/MUG GLS LOVE 380ML   0000001000+00004385+00000+0001T   00004385+0000001304          1400 SY8515               1AZ
542846000542846               542846               170213KT     1400+00000+KT0000003103+0000003103+000000000+000000435+0000003530+0000000008+I20000000000+0000003530+Z
542846001542846077-000304     542846006001023483232GIFT-BAG 25X32CM E/DAY 0000001000+00001490+00000+0001T   00001490+0000001305          1400 SY8112               1AZ
542846002542846112-116038     542846006009681820246TCS CARRIER BAG MIDI   0000001000+00000035+00000+0001T   00000035+0000001305          1400 SY8090               1AZ
542846003542846018-000127     542846006001023380289MUG OCC STRAIGHT LOVE  0000001000+00001578+00000+0001T   00001753+0006471305          1400 SY8515               1AZ
542847000542847               542847               170213KT     1400+00000+KT0000006139+0000006139+000000000+000000860+0000006999+0000000000+I40000006999+0000000000+Z
542847001542847035-000001     542847006002596010566UMBRELLA LADIES W/MINI 0000001000+00006139+00000+0001T   00006139+0000001306          1400 SY8205               1AZ
542848000542848               542848               170213KT     1400+00000+KT0000003506+0000003506+000000000+000000492+0000003990+0000000008+I20000000000+0000003990+Z
542848001542848072-020308     542848006001023700971DOG-TOY FOOTBALL 11,5cm0000001000+00001753+00000+0001T   00001753+0000001308          1400 SY8870               1AZ
542848002542848047-000508     542848006009636901983PLG EURODAPTOR 3x5A-2PN0000001000+00001753+00000+0001T   00001753+0000001308          1400 SY8880               1AZ
542849000542849               542849               170213KT     1400+00000+KT0000001752+0000001752+000000000+000000246+0000001990+0000000008+I20000000000+0000001990+Z
542849001542849033-010720     542849006001023678645SAFETY-PINS 50PCE SMALL0000002000+00000876+00000+0001T   00000876+0000001309          1400 SY8200               1AZ
542850000542850               542850               170213KT     1400+00000+KT0000013155+0000013155+000000000+000001843+0000014990+0000000008+I20000000000+0000014990+Z
542850001542850077-000316     542850006001023609731GIFT-BAG 25X32CM MATT  0000001000+00001753+00000+0001T   00001753+0000001314          1400 SY8112               1AZ
542850002542850368-000637     542850006001023874092PLUSH BEAR SLEEPING LOV0000001000+00011402+00000+0001T   00012279+0006471314          1400 SY8745               1AZ
542851000542851               542851               170213KT     1400+00000+KT0000039019+0000039019+000000000+000005478+0000044490+0000000007+I20000000000+0000044490+Z
542851001542851089-000192-A   542851006001023901774KEY-CHAIN ACRYLIC      0000042000+00000876+00000+0001T   00000876+0000001325          1400 SY8205               1AZ
542851002542851566-000359     542851006003000582709STICKER BOOK LOVE SPARK0000001000+00002192+00000+0001T   00002192+0000001325          1400 SY8130               1AZ
542851003542851112-116038     542851006009681820246TCS CARRIER BAG MIDI   0000001000+00000035+00000+0001T   00000035+0000001325          1400 SY8090               1AZ
542852000542852               542852               170213KT     1400+00000+KT0000001578+0000001578+000000000+000000221+0000001790+0000000009+I20000000000+0000001790+Z
542852001542852903-002900     542852005996071650648QUICK MILK 5 CHOCO 5PC 0000001000+00001578+00000+0001T   00001578+0000001325          1400 SY8150               1AZ
542853000542853               542853               170213KT     1400+00000+KT0000016177+0000016177+000000000+000002269+0000018446+0000000000+I40000018446+0000000000+Z
542853001542853112-116069     542853006009681820277TCS CARRIER BAG JUMBO  0000001000+00000048+00000+0001T   00000048+0000001328          1400 SY8090               1AZ
542853002542853038-000205     542853006001926001205PLACE-MATS PVC ASSTD-C 0000002000+00001753+00000+0001T   00001753+0000001328          1400 SY8300               1AZ
542853003542853033-006003     542853006001023678584SEWING-KIT             0000001000+00002630+00000+0001T   00002630+0000001328          1400 SY8200               1AZ
542853004542853002-000681     542853006001023693747K/TOOL NYL SOLID-SPOON 0000001000+00002192+00000+0001T   00002192+0000001328          1400 SY8300               1AZ
542853005542853006-000120     542853006001023346889BALLOONS 10PC MIX COL  0000001000+00001753+00000+0001T   00001753+0000001328          1400 SY8131               1AZ
542853006542853002-000800     542853006001023770660PEELER MTL/PL WHITE    0000001000+00001139+00000+0001T   00001139+0000001328          1400 SY8300               1AZ
542853007542853077-000303     542853006001023593757GIFT-BAG PAPER MED     0000002000+00001578+00000+0001T   00001578+0000001328          1400 SY8112               1AZ
542853008542853077-000309     542853006001023608604GIFT-BAG 25X32CM GLOSS 0000001000+00001753+00000+0001T   00001753+0000001328          1400 SY8112               1AZ
542854000542854               542854               170213KT     1400+00000+KT0000002630+0000002630+000000000+000000369+0000002999+0000000000+I40000002999+0000000000+Z
542854001542854466-000584     542854006001023628787SKIPPING-ROPE          0000001000+00002630+00000+0001T   00002630+0000001335          1400 SY8785               1AZ
542855000542855               542855               170213KT     1400+00000+KT0000008024+0000008024+000000000+000001125+0000009140+0000000009+I20000000000+0000009140+Z
542855001542855112-116069     542855006009681820277TCS CARRIER BAG JUMBO  0000001000+00000048+00000+0001T   00000048+0000001336          1400 SY8090               1AZ
542855002542855080-000127     542855006003000424351VALENTINES DAY 36x24CM 0000001000+00002192+00000+0001T   00002192+0000001336          1400 SY8112               1AZ
542855003542855903-000510     542855006001704012621SWEET MS ZBDZ S/BERRY  0000002000+00001227+00000+0001T   00001227+0000001336          1400 SY8150               1AZ
542855004542855368-000040     542855006003000671786PLUSH ICONS 7.5cm      0000001000+00002630+00000+0001T   00002630+0000001336          1400 SY8745               1AZ
542855005542855018-000177     542855006001023797513MUG MINI LOVE ASSTD    0000001000+00000700+00000+0001T   00000700+0000001336          1400 SY8515               1AZ
542856000542856               542856               170213KT     1400+00000+KT0000011446+0000011446+000000000+000001604+0000013050+0000000000+I20000000000+0000013050+Z
542856001542856112-116069     542856006009681820277TCS CARRIER BAG JUMBO  0000001000+00000048+00000+0001T   00000048+0000001338          1400 SY8090               1AZ
542856002542856077-000235     542856006003000160211GIFT-RIBBON ROLL METALC0000001000+00002630+00000+0001T   00002630+0000001338          1400 SY8112               1AZ
542856003542856301-085000     542856006003000674299 ORN OCC. LOVE HEARTS  0000004000+00002192+00000+0001T   00002192+0000001338          1400 SY8505               1AZ
542857000542857               542857               170213KT     1400+00000+KT0000007393+0000007393+000000000+000001037+0000008430+0000000000+I40000008430+0000000000+Z
542857001542857077-000314     542857006003000181148GIFT-BAG 11X14CM MATT  0000004000+00000876+00000+0001T   00000876+0000001340          1400 SY8112               1AZ
542857002542857077-000310     542857006001023608635GIFT-BAG 18X23CM GLOSS 0000002000+00001314+00000+0001T   00001314+0000001340          1400 SY8112               1AZ
542857003542857007-000555     542857006001023848239MEMO-PAD MINI LOVE     0000002000+00000613+00000+0001T   00000613+0000001340          1400 SY8130               1AZ
542857004542857112-116038     542857006009681820246TCS CARRIER BAG MIDI   0000001000+00000035+00000+0001T   00000035+0000001340          1400 SY8090               1AZ
542858000542858               542858               170213KT     1400+00000+KT0000000437+0000000437+000000000+000000062+0000000490+0000000009+I20000000000+0000000490+Z
542858001542858083-000049     542858004891035200024CIG-LIGHTER DISPOSABLE 0000001000+00000437+00000+0001T   00000437+0000001340          1400 SY8315               1AZ
542859000542859               542859               170213KT     1400+00000+KT0000011402+0000011402+000000000+000001597+0000012999+0000000000+I40000012999+0000000000+Z
542859001542859368-000637     542859006001023874092PLUSH BEAR SLEEPING LOV0000001000+00011402+00000+0001T   00012279+0006471343          1400 SY8745               1AZ
542860000542860               542860               170213KT     1400+00000+KT0000000876+0000000876+000000000+000000123+0000000990+0000000009+I20000000000+0000000990+Z
542860001542860077-000011-D   542860006001023808554TISSUE-WRAP WHITE 10PCE0000001000+00000876+00000+0001T   00000876+0000001344          1400 SY8112               1AZ
542861000542861               542861               170213KT     1400+00000+KT0000003330-0000003330-000000000+000000467-0000003800-0000000003+I20000000000+0000003800-Z
542861001542861018-000177     542861006001023797513MUG MINI LOVE ASSTD    0000001000-00000700+00000+0001T   00000700+0000001348          1400 SY85151IC            1 Z
542861002542861368-000040     542861006003000671786PLUSH ICONS 7.5cm      0000001000-00002630+00000+0001T   00002630+0000001348          1400 SY87451IC            1 Z
542862000542862               542862               170213KT     1400+00000+KT0000013060+0000013060+000000000+000001832+0000014892+0000000000+I40000014892+0000000000+Z
542862001542862007-000206     542862006009635830215X/PAD 80-SHEETS PUNCHED0000001000+00001227+00000+0001T   00001227+0000001359          1400 SY8130               1AZ
542862002542862007-000192     542862006009635830062BOOK H/COVER A4 192PAGE0000003000+00001753+00000+0001T   00001753+0000001359          1400 SY8130               1AZ
542862003542862007-000050     542862006001023528285DISPLAY-ENVELOPE A4    0000001000+00001753+00000+0001T   00001753+0000001359          1400 SY8130               1AZ
542862004542862071-001346     542862006001023912985HIGHLIGHTERS 4PCE CARD 0000001000+00002192+00000+0001T   00002192+0000001359          1400 SY8130               1AZ
542862005542862071-002999-A   542862006003000611577PEN STICKBALL 10PCE ASS0000001000+00001753+00000+0001T   00001753+0000001359          1400 SY8130               1AZ
542862006542862007-000127     542862006009685853431BOOK H/COVER MEMO 144PG0000001000+00000876+00000+0001T   00000876+0000001359          1400 SY8130               1AZ
542863000542863               542863               170213KT     1400+00000+KT0000005609+0000005609+000000000+000000786+0000006395+0000000000+I40000006395+0000000000+Z
542863001542863903-000087     542863006001704000161SWT SPECKLED-EGGS 50G  0000001000+00001139+00000+0001T   00001139+0000001400          1400 SY8150               1AZ
542863002542863903-000070     542863006001704001106SWT TOFFEE CREAMY 35g  0000001000+00000700+00000+0001T   00000700+0000001400          1400 SY8150               1AZ
542863003542863071-001002     542863006003000217540PENCIL-SHARPNER DOUBLE 0000001000+00001578+00000+0001T   00001578+0000001400          1400 SY8130               1AZ
542863004542863033-000780     542863006001023752611COSMETIC-BRUSH-SET 7PCE0000001000+00002192+00000+0001T   00002192+0000001400          1400 SY8200               1AZ
542864000542864               542864               170213KT     1400+00000+KT0000009690+0000009690+000000000+000001357+0000011040+0000000007+I20000000000+0000011040+Z
542864001542864903-000194     542864006009826020616SWT CHOC RP LOLLY 25G  0000002000+00001314+00000+0001T   00001314+0000001404          1400 SY8150               1AZ
542864002542864301-085004     542864006003000420469ORN LOVE PLAQUE 21X10CM0000002000+00003507+00000+0001T   00003946+0006471404          1400 SY8505               1AZ
542864003542864112-116069     542864006009681820277TCS CARRIER BAG JUMBO  0000001000+00000048+00000+0001T   00000048+0000001404          1400 SY8090               1AZ
542865000542865               542865               170213KT     1400+00000+KT0000001752+0000001752+000000000+000000246+0000001998+0000000000+I40000001998+0000000000+Z
542865001542865031-000878-A   542865006001023798985P/FRAME 10x15cm PL-SLID0000002000+00000876+00000+0001T   00000876+0000001406          1400 SY8510               1AZ
542866000542866               542866               170213KT     1400+00000+KT0000007015+0000007015+000000000+000000983+0000007990+0000000008+I20000000000+0000007990+Z
542866001542866466-064834     542866006008766064834BALL W/SPIKES 20cm     0000001000+00001753+00000+0001T   00001753+0000001419          1400 SY8785               1AZ
542866002542866079-000336     542866006003000670758SUPER FINE MARKER PENS 0000001000+00005262+00000+0001T   00005262+0000001419          1400 SY8130               1AZ
542867000542867               542867               170213KT     1400+00000+KT0000002630+0000002630+000000000+000000369+0000002999+0000000000+I40000002999+0000000000+Z
542867001542867108-003023     542867006003000665471TUMBLER W/STRAW 550ml  0000001000+00002630+00000+0001T   00002630+0000001421          1400 SY8210               1AZ
542868000542868               542868               170213KT     1400+00000+KT0000001349+0000001349+000000000+000000189+0000001530+0000000008+I20000000000+0000001530+Z
542868001542868105-001031     542868000700371696627FOODSAVER 800ml        0000001000+00001314+00000+0001T   00001314+0000001422          1400 SY8210               1AZ
542868002542868112-116038     542868006009681820246TCS CARRIER BAG MIDI   0000001000+00000035+00000+0001T   00000035+0000001422          1400 SY8090               1AZ
542869000542869               542869               170213KT     1400+00000+KT0000006139+0000006139+000000000+000000860+0000006999+0000000000+I40000006999+0000000000+Z
542869001542869106-000901     542869006003000538058WATER BOTTLE 600ml     0000001000+00006139+00000+0001T   00006139+0000001432          1400 SY8210               1AZ
542870000542870               542870               170213KT     1400+00000+KT0000003506+0000003506+000000000+000000492+0000003990+0000000008+I20000000000+0000003990+Z
542870001542870038-092232     542870006001023625830TABLE-MAT N/SLIP 32x55 0000001000+00001753+00000+0001T   00001753+0000001445          1400 SY8300               1AZ
542870002542870362-002464     542870006003000167388HAIR EXT 30cm 6PCS COL 0000001000+00001753+00000+0001T   00001753+0000001445          1400 SY8160               1AZ
542871000542871               542871               170213KT     1400+00000+KT0000005260+0000005260+000000000+000000738+0000005998+0000000000+I40000005998+0000000000+Z
542871001542871567-011425     542871009781472362896BK COLOURING PLAYTIME  0000001000+00002630+00000+0001T   00002630+0000001448          1400 SY8757               1AZ
542871002542871567-011493     542871000076645122063BK COLOURING 96P SCHOOL0000001000+00002630+00000+0001T   00002630+0000001448          1400 SY8757               1AZ
542872000542872               542872               170213KT     1400+00000+KT0000001753+0000001753+000000000+000000246+0000001990+0000000009+I20000000000+0000001990+Z
542872001542872566-001501     542872006003000658398STICKER PAPER EMOTION  0000001000+00001753+00000+0001T   00001753+0000001449          1400 SY8130               1AZ
542873000542873               542873               170213KT     1400+00000+KT0000004645+0000004645+000000000+000000652+0000005290+0000000007+I20000000000+0000005290+Z
542873001542873466-008889     542873006001023835376WHISTLE SPORTS+STRING  0000001000+00001753+00000+0001T   00001753+0000001450          1400 SY8785               1AZ
542873002542873464-000114     542873006003000027057DICE 16MM CARD-OF-6    0000001000+00001753+00000+0001T   00001753+0000001450          1400 SY8785               1AZ
542873003542873466-000517     542873006001023752017BALL TENNIS RED CRICKET0000001000+00001139+00000+0001T   00001139+0000001450          1400 SY8785               1AZ
542874000542874               542874               170213KT     1400+00000+KT0000002453+0000002453+000000000+000000344+0000002790+0000000007+I20000000000+0000002790+Z
542874001542874077-000310     542874006001023608635GIFT-BAG 18X23CM GLOSS 0000001000+00001314+00000+0001T   00001314+0000001451          1400 SY8112               1AZ
542874002542874089-000150     542874006003000674268K/CHAIN PLUSH EMOTICON 0000001000+00001139+00000+0001T   00001139+0000001451          1400 SY8205               1AZ
542875000542875               542875               170213KT     1400+00000+KT0000008771+0000008771+000000000+000001228+0000009990+0000000009+I20000000000+0000009990+Z
542875001542875031-000924     542875006001023669964P/FRAME COLLAGE PL     0000001000+00008771+00000+0001T   00008771+0000001454          1400 SY8510               1AZ
542876000542876               542876               170213KT     1400+00000+KT0000003330+0000003330+000000000+000000467+0000003790+0000000007+I20000000000+0000003790+Z
542876001542876903-000592     542876006003000563777SWT CELLPHONE 12cm     0000001000+00002630+00000+0001T   00002630+0000001456          1400 SY8150               1AZ
542876002542876564-000012     542876006001023130075BUBBLE BOTTLE MAGIC    0000001000+00000700+00000+0001T   00000700+0000001456          1400 SY8131               1AZ
542877000542877               542877               170213KT     1400+00000+KT0000003277+0000003277+000000000+000000460+0000003737+0000000000+I40000003737+0000000000+Z
542877001542877006-000788     542877006001023990228CROWN HAPPY BIRTHDAY   0000001000+00001490+00000+0001T   00001490+0000001506          1400 SY8131               1AZ
542877002542877039-000319-2   542877006003000442508B/CANDLES LRG NUMBER-2 0000001000+00000876+00000+0001T   00000876+0000001506          1400 SY8510               1AZ
542877003542877039-000319-3   542877006003000442621B/CANDLES LRG NUMBER-3 0000001000+00000876+00000+0001T   00000876+0000001506          1400 SY8510               1AZ
542877004542877112-116038     542877006009681820246TCS CARRIER BAG MIDI   0000001000+00000035+00000+0001T   00000035+0000001506          1400 SY8090               1AZ
542878000542878               542878               170213KT     1400+00000+KT0000004385+0000004385+000000000+000000614+0000004999+0000000000+I40000004999+0000000000+Z
542878001542878004-078993     542878006001023716569EARPHONES W/1.1m CORD  0000001000+00004385+00000+0001T   00004385+0000001507          1400 SY8310               1AZ
542879000542879               542879               170213KT     1400+00000+KT0000005645+0000005645+000000000+000000792+0000006437+0000000000+I40000006437+0000000000+Z
542879001542879016-006505     542879006001023617576S/JAR GLS MINI CLIP    0000002000+00001490+00000+0001T   00001490+0000001509          1400 SY8300               1AZ
542879002542879112-116038     542879006009681820246TCS CARRIER BAG MIDI   0000001000+00000035+00000+0001T   00000035+0000001509          1400 SY8090               1AZ
542879003542879200-000230     542879006008766126990BAKEPANS 5PC RND 23x3cm0000001000+00002630+00000+0001T   00002630+0000001509          1400 SY8214               1AZ
542880000542880               542880               170213KT     1400+00000+KT0000001578+0000001578+000000000+000000221+0000001790+0000000009+I20000000000+0000001790+Z
542880001542880018-000127     542880006001023380289MUG OCC STRAIGHT LOVE  0000001000+00001578+00000+0001T   00001753+0006471521          1400 SY8515               1AZ
542881000542881               542881               170213KT     1400+00000+KT0000006313+0000006313+000000000+000000885+0000007190+0000000008+I20000000000+0000007190+Z
542881001542881301-085001     542881006003000297610ORN WATERBALL LOVE ASST0000001000+00004823+00000+0001T   00004823+0000001523          1400 SY8505               1AZ
542881002542881077-000327     542881006001023677686GIFT-BAG 25X32CM E/D BA0000001000+00001490+00000+0001T   00001490+0000001523          1400 SY8112               1AZ
542882000542882               542882               170213KT     1400+00000+KT0000010557+0000010557+000000000+000001479+0000012030+0000000006+I20000000000+0000012030+Z
542882001542882105-001028     542882006003000675470LUNCH BOX W/CLIPS      0000001000+00003069+00000+0001T   00003069+0000001524          1400 SY8210               1AZ
542882002542882112-116038     542882006009681820246TCS CARRIER BAG MIDI   0000001000+00000035+00000+0001T   00000035+0000001524          1400 SY8090               1AZ
542882003542882082-098799     542882006001492987996SUNGLASS KIDS BOYS     0000001000+00003946+00000+0001T   00003946+0000001524          1400 SY8160               1AZ
542882004542882082-098782     542882006001492987828SUNGLASS KIDS GIRLS CAT0000001000+00003507+00000+0001T   00003507+0000001524          1400 SY8160               1AZ
542883000542883               542883               170213KT     1400+00000+KT0000001314+0000001314+000000000+000000184+0000001490+0000000008+I20000000000+0000001490+Z
542883001542883903-000194     542883006009826020616SWT CHOC RP LOLLY 25G  0000001000+00001314+00000+0001T   00001314+0000001529          1400 SY8150               1AZ
542884000542884               542884               170213KT     1400+00000+KT0000002366+0000002366+000000000+000000332+0000002690+0000000008+I20000000000+0000002690+Z
542884001542884903-000087     542884006001704000161SWT SPECKLED-EGGS 50G  0000001000+00001139+00000+0001T   00001139+0000001538          1400 SY8150               1AZ
542884002542884903-000111     542884006001704006378SWT LIQUORICE-TWISTS   0000001000+00001227+00000+0001T   00001227+0000001538          1400 SY8150               1AZ
542885000542885               542885               170213KT     1400+00000+KT0000001753+0000001753+000000000+000000246+0000001990+0000000009+I20000000000+0000001990+Z
542885001542885077-000373     542885006003000395217G/BAG MED 18X23CM DESGN0000001000+00001753+00000+0001T   00001753+0000001539          1400 SY8112               1AZ
542886000542886               542886               170213KT     1400+00000+KT0000000035+0000000035+000000000+000000005+0000000040+0000000000+I20000000000+0000000040+Z
542886001542886112-116038     542886006009681820246TCS CARRIER BAG MIDI   0000001000+00000035+00000+0001T   00000035+0000001540          1400 SY8090               1AZ
542887000542887               542887               170213KT     1400+00000+KT0000001314+0000001314+000000000+000000184+0000001490+0000000008+I20000000000+0000001490+Z
542887001542887007-000209     542887006001023582102NOTE STICKY FILE MARKER0000001000+00001314+00000+0001T   00001314+0000001542          1400 SY8130               1AZ
542888000542888               542888               170213KT     1400+00000+KT0000001490+0000001490+000000000+000000209+0000001690+0000000009+I20000000000+0000001690+Z
542888001542888051-002401     542888006001023523570TRIGGER-SPRAYER   300ml0000001000+00001490+00000+0001T   00001490+0000001544          1400 SY8820               1AZ
542889000542889               542889               170213KT     1400+00000+KT0000008771+0000008771+000000000+000001228+0000009990+0000000009+I20000000000+0000009990+Z
542889001542889368-000012     542889006003000610464PLUSH BEAR 30cm SITTING0000001000+00008771+00000+0001T   00008771+0000001555          1400 SY8745               1AZ
542890000542890               542890               170213KT     1400+00000+KT0000001490+0000001490+000000000+000000209+0000001690+0000000009+I20000000000+0000001690+Z
542890001542890079-000807     542890006003000670277ART+CRAFT WOODEN STICKS0000001000+00001490+00000+0001T   00001490+0000001606          1400 SY8130               1AZ
542891000542891               542891               170213KT     1400+00000+KT0000005872+0000005872+000000000+000000824+0000006696+0000000000+I40000006696+0000000000+Z
542891001542891077-000245     542891006001023759214GIFT-RIBBON METALLICx2 0000001000+00001227+00000+0001T   00001227+0000001610          1400 SY8112               1AZ
542891002542891033-006003     542891006001023678584SEWING-KIT             0000001000+00002630+00000+0001T   00002630+0000001610          1400 SY8200               1AZ
542891003542891089-000150     542891006003000674268K/CHAIN PLUSH EMOTICON 0000001000+00001139+00000+0001T   00001139+0000001610          1400 SY8205               1AZ
542891004542891077-000150-D   542891006003000054343GIFT-WRAP CELLPHANE CLR0000001000+00000876+00000+0001T   00000876+0000001610          1400 SY8112               1AZ
542892000542892               542892               170213KT     1400+00000+KT0000004385+0000004385+000000000+000000614+0000004990+0000000009+I20000000000+0000004990+Z
542892001542892001-000175     542892006001023788108B/MUG GLS LOVE 380ML   0000001000+00004385+00000+0001T   00004385+0000001612          1400 SY8515               1AZ
542893000542893               542893               170213KT     1400+00000+KT0000003946+0000003946+000000000+000000553+0000004490+0000000009+I20000000000+0000004490+Z
542893001542893024-000018     542893006001023610232CAKE-DEC S/S NOZZLE    0000001000+00003946+00000+0001T   00003946+0000001612          1400 SY8300               1AZ
542894000542894               542894               170213KT     1400+00000+KT0000009681+0000009681+000000000+000001357+0000011030+0000000008+I20000000000+0000011030+Z
542894001542894301-085001     542894006003000297610ORN WATERBALL LOVE ASST0000002000+00004823+00000+0001T   00004823+0000001615          1400 SY8505               1AZ
542894002542894112-116038     542894006009681820246TCS CARRIER BAG MIDI   0000001000+00000035+00000+0001T   00000035+0000001615          1400 SY8090               1AZ
542895000542895               542895               170213KT     1400+00000+KT0000000876+0000000876+000000000+000000123+0000000990+0000000009+I20000000000+0000000990+Z
542895001542895007-000045     542895006009608640438DISPLAY-POCKETS A4 10PC0000001000+00000876+00000+0001T   00000876+0000001615          1400 SY8130               1AZ
542896000542896               542896               170213KT     1400+00000+KT0000003716+0000003716+000000000+000000522+0000004230+0000000008+I20000000000+0000004230+Z
542896001542896027-009025     542896006003962000747DUSTPAN-SET PL         0000001000+00002630+00000+0001T   00002630+0000001616          1400 SY8212               1AZ
542896002542896903-002850     542896000000087108262MENTOS ROLL FRUIT      0000001000+00001051+00000+0001T   00001051+0000001616          1400 SY8150               1AZ
542896003542896112-116038     542896006009681820246TCS CARRIER BAG MIDI   0000001000+00000035+00000+0001T   00000035+0000001616          1400 SY8090               1AZ
542897000542897               542897               170213KT     1400+00000+KT0000004823+0000004823+000000000+000000676+0000005490+0000000009+I20000000000+0000005490+Z
542897001542897301-085001     542897006003000297610ORN WATERBALL LOVE ASST0000001000+00004823+00000+0001T   00004823+0000001617          1400 SY8505               1AZ
542898000542898               542898               170213KT     1400+00000+KT0000003154+0000003154+000000000+000000443+0000003590+0000000007+I20000000000+0000003590+Z
542898001542898047-000505     542898006009636901976PLUG-ADAPTOR 2-PIN     0000001000+00000876+00000+0001T   00000876+0000001619          1400 SY8880               1AZ
542898002542898903-000087     542898006001704000161SWT SPECKLED-EGGS 50G  0000002000+00001139+00000+0001T   00001139+0000001619          1400 SY8150               1AZ
542899000542899               542899               170213KT     1400+00000+KT0000000613+0000000613+000000000+000000086+0000000690+0000000009+I20000000000+0000000690+Z
542899001542899077-000311     542899006001023608666GIFT-BAG 11X14CM GLOSS 0000001000+00000613+00000+0001T   00000613+0000001620          1400 SY8112               1AZ
542900000542900               542900               170213KT     1400+00000+KT0000005557+0000005557+000000000+000000780+0000006330+0000000007+I20000000000+0000006330+Z
542900001542900301-085002     542900006003000420704ORN OCC. LOVE BELL ASST0000001000+00001753+00000+0001T   00002630+0008121623          1400 SY8505               1AZ
542900002542900089-000150     542900006003000674268K/CHAIN PLUSH EMOTICON 0000001000+00001139+00000+0001T   00001139+0000001623          1400 SY8205               1AZ
542900003542900206-000620     542900006003000631797BACK SCRATCHER EXTEND  0000001000+00002630+00000+0001T   00002630+0000001623          1400 SY8321               1AZ
542900004542900112-116038     542900006009681820246TCS CARRIER BAG MIDI   0000001000+00000035+00000+0001T   00000035+0000001623          1400 SY8090               1AZ
542901000542901               542901               170213KT     1400+00000+KT0000006535+0000006535+000000000+000000917+0000007450+0000000002+I20000000000+0000007450+Z
542901001542901007-000196     542901006002324002375FILE LEVER ARCH A4     0000002000+00002630+00000+0001T   00002630+0000001629          1400 SY8130               1AZ
542901002542901007-000206     542901006009635830215X/PAD 80-SHEETS PUNCHED0000001000+00001227+00000+0001T   00001227+0000001629          1400 SY8130               1AZ
542901003542901112-116069     542901006009681820277TCS CARRIER BAG JUMBO  0000001000+00000048+00000+0001T   00000048+0000001629          1400 SY8090               1AZ
542902000542902               542902               170213KT     1400+00000+KT0000001748+0000001748+000000000+000000248+0000001990+0000000006+I20000000000+0000001990+Z
542902001542902080-000133     542902006003000535613CARD&ENV MINI ASTD DSGN0000001000+00000437+00000+0001T   00000437+0000001630          1400 SY8112               1AZ
542902002542902080-000133-A   542902006003000647019MINI VALENTINES CARD   0000002000+00000437+00000+0001T   00000437+0000001630          1400 SY8112               1AZ
542902003542902080-000133     542902006003000535613CARD&ENV MINI ASTD DSGN0000001000+00000437+00000+0001T   00000437+0000001630          1400 SY8112               1AZ
542903000542903               542903               170213KT     1400+00000+KT0000003103+0000003103+000000000+000000435+0000003530+0000000008+I20000000000+0000003530+Z
542903001542903006-000223     542903006001023891327PARTY EYE-MASK 6PCE    0000001000+00000876+00000+0001T   00000876+0000001655          1400 SY8131               1AZ
542903002542903366-002695     542903006003000222766DRESS UP HAT ROUND GLIT0000001000+00002192+00000+0001T   00002192+0000001655          1400 SY8131               1AZ
542903003542903112-116038     542903006009681820246TCS CARRIER BAG MIDI   0000001000+00000035+00000+0001T   00000035+0000001655          1400 SY8090               1AZ
A17021300                                          09130870KTSLAVE 1                       SY82IC
A17021301                                          12365401KTSLAVE 1                       SY82IC
C54282300                                          170213KT065-000015     10301895SLAVE 1     SY82IC0000000000+0000000000+0070000001000+
M17021391                              CASH        KTSLAVE 1                       Z-REPORT No.   612TOTAL (Sales - Refunds)           5677.16       CASH TO BE BANKED                 3555.30       DEBIT CARDS                          0.00       CREDIT CARDS                      2121.86       Z-READING                         5677.16       AIRTIME DEBIT CARD SALES             0.00       AIRTIME CARD SALES                   0.00       OVERS/UNDERS                         0.00       AIRTIME CASH SALES                   0.00       GIFT CARDS                           0.00       GIFT CARD CASH SALES                 0.00       T O T A L  CASH PAYOUTS              0.00                                                                                                                                                                                                                                                                                                                                                      Z
M17021392                              CASH        KTABSENT                                                                                                                                                                                          ANNUAL LEAVE                                                                                                                                                                                    DAY OFF                                                                                                                                                                                         COMMENTS          Z READ TOTAL R5677.16                           SLV 1                                                                                                                                                                                                                                                                                                                        Z
Y17021300                                          KT00008700501620+000087
ZKT17021406163 SLAVE 1      SALES DATA                     NEXT INVOICE NO.  542904 0612
X KT Slave 1 First invoice 542816 170213 Last invoice 542903 170213 Next invoice 542904 Total number of records 000000310 clbackup completed 06:16:59
