551220000551220               551220               170213KT     1400+00000+KT0000000437+0000000437+000000000+000000062+0000000490+0000000009+I20000000000+0000000490+Z
551220001551220080-000133-A   551220006003000647019MINI VALENTINES CARD   0000001000+00000437+00000+0001T   00000437+0000000910          1400 GH1112               2AZ
551221000551221               551221               170213KT     1400+00000+KT0000001437+0000001437+000000000+000000202+0000001630+0000000009+I20000000000+0000001630+Z
551221001551221304-001204     551221006001023737984FLOWER OCC. TEDDY/ROSES0000001000+00001402+00000+0001T   00001490+0006471031          1400 GH1510               2AZ
551221002551221112-116038     551221006009681820246TCS CARRIER BAG MIDI   0000001000+00000035+00000+0001T   00000035+0000001031          1400 GH1090               2AZ
551222000551222               551222               170213KT     1400+00000+KT0000002192+0000002192+000000000+000000307+0000002490+0000000009+I20000000000+0000002490+Z
551222001551222071-001346     551222006001023912985HIGHLIGHTERS 4PCE CARD 0000001000+00002192+00000+0001T   00002192+0000001032          1400 GH1130               2AZ
551223000551223               551223               170213KT     1400+00000+KT0000001753+0000001753+000000000+000000246+0000001990+0000000009+I20000000000+0000001990+Z
551223001551223080-000101     551223006003000236732CARD&ENVLPE FEMALE     0000001000+00001753+00000+0001T   00001753+0000001037          1400 GH1112               2AZ
551224000551224               551224               170213KT     1400+00000+KT0000005260+0000005260+000000000+000000737+0000005990+0000000007+I20000000000+0000005990+Z
551224001551224162-093218     551224006001492932187#TAG BLACK SCHOOL SET  0000001000+00003507+00000+0001T   00003507+0000001038          1400 GH1160               2AZ
551224002551224080-000100     551224006003000236114CARD & ENVELOPE BDAY   0000001000+00001753+00000+0001T   00001753+0000001038          1400 GH1112               2AZ
551225000551225               551225               170213KT     1400+00000+KT0000003156+0000003156+000000000+000000442+0000003590+0000000008+I20000000000+0000003590+Z
551225001551225903-002900     551225005996071650648QUICK MILK 5 CHOCO 5PC 0000001000+00001578+00000+0001T   00001578+0000001038          1400 GH1150               2AZ
551225002551225903-002901     551225005996071650655QUICK MILK 5 S/BERRY   0000001000+00001578+00000+0001T   00001578+0000001038          1400 GH1150               2AZ
551226000551226               551226               170213KT     1400+00000+KT0000011402+0000011402+000000000+000001597+0000012990+0000000009+I20000000000+0000012990+Z
551226001551226586-096710     551226006001492967103WATCH MENS DRESS       0000001000+00011402+00000+0001T   00011402+0000001039          1400 GH1160               2AZ
551227000551227               551227               170213KT     1400+00000+KT0000007498+0000007498+000000000+000001052+0000008550+0000000000+I20000000000+0000008550+Z
551227001551227034-000329     551227006001023564290BOTTLE-BRUSHES WHT 2PCE0000001000+00001314+00000+0001T   00001314+0000001042          1400 GH1215               2AZ
551227002551227027-056191     551227006916920933134DISH-BRUSH+HOOK RECT   0000002000+00001753+00000+0001T   00001753+0000001042          1400 GH1212               2AZ
551227003551227159-000117     551227006003000450398SHOWER CAP PVC ASSTD   0000001000+00002630+00000+0001T   00002630+0000001042          1400 GH1200               2AZ
551227004551227112-116069     551227006009681820277TCS CARRIER BAG JUMBO  0000001000+00000048+00000+0001T   00000048+0000001042          1400 GH1090               2AZ
551228000551228               551228               170213KT     1400+00000+KT0000020219+0000020219+000000000+000002833+0000023052+0000000000+I40000023052+0000000000+Z
551228001551228361-009988     551228006001023706386PONY 24cm W/SIDE-SADDLE0000001000+00006139+00000+0001T   00006139+0000001108          1400 GH1725               2AZ
551228002551228361-000128     551228006003000602339DOLL SML 22cm FAIRY    0000001000+00007893+00000+0001T   00007893+0000001108          1400 GH1725               2AZ
551228003551228464-000111     551228006001023114624GAME SKITTLES WOODEN   0000001000+00006139+00000+0001T   00006139+0000001108          1400 GH1785               2AZ
551228004551228112-116069     551228006009681820277TCS CARRIER BAG JUMBO  0000001000+00000048+00000+0001T   00000048+0000001108          1400 GH1090               2AZ
551229000551229               551229               170213KT     1400+00000+KT0000000874+0000000874+000000000+000000124+0000000990+0000000008+I20000000000+0000000990+Z
551229001551229083-000049     551229004891035200024CIG-LIGHTER DISPOSABLE 0000002000+00000437+00000+0001T   00000437+0000001108          1400 GH1315               2AZ
551230000551230               551230               170213KT     1400+00000+KT0000005522+0000005522+000000000+000000775+0000006290+0000000007+I20000000000+0000006290+Z
551230001551230007-000205     551230006002324000432FILE BINDER 2-RING A4  0000001000+00001753+00000+0001T   00001753+0000001117          1400 GH1130               2AZ
551230002551230563-000317-C   551230006001023776204SERVIETTES 20PK  FLOWER0000001000+00002630+00000+0001T   00002630+0000001117          1400 GH1214               2AZ
551230003551230071-004202     551230006001023417176SCISSORS-SCHOOL PL/MTL 0000001000+00001139+00000+0001T   00001139+0000001117          1400 GH1130               2AZ
551231000551231               551231               170213KT     1400+00000+KT0000004943+0000004943+000000000+000000693+0000005636+0000000000+I40000005636+0000000000+Z
551231001551231077-000005-B   551231006003000326617PAPER TISSUE PATTERN   0000001000+00002630+00000+0001T   00002630+0000001442          1400 2IC112               2AZ
551231002551231077-000315     551231006003000181186GIFT-BAG 20x28cm MATT  0000001000+00001578+00000+0001T   00001578+0000001442          1400 2IC112               2AZ
551231003551231903-000126     551231006002099003591SWT ZILLIONS MINT 50G  0000001000+00000700+00000+0001T   00000700+0000001442          1400 2IC150               2AZ
551231004551231112-116038     551231006009681820246TCS CARRIER BAG MIDI   0000001000+00000035+00000+0001T   00000035+0000001442          1400 2IC090               2AZ
551232000551232               551232               170213KT     1400+00000+KT0000000525+0000000525+000000000+000000074+0000000590+0000000009+I20000000000+0000000590+Z
551232001551232002-021040     551232006001023812216PARTY-PICKS 100PCE     0000001000+00000525+00000+0001T   00000525+0000001443          1400 2IC300               2AZ
551233000551233               551233               170213KT     1400+00000+KT0000002192+0000002192+000000000+000000307+0000002490+0000000009+I20000000000+0000002490+Z
551233001551233080-000127     551233006003000424351VALENTINES DAY 36x24CM 0000001000+00002192+00000+0001T   00002192+0000001609          1400 1IC112               2AZ
551234000551234               551234               170213KT     1400+00000+KT0000001753+0000001753+000000000+000000246+0000001990+0000000009+I20000000000+0000001990+Z
551234001551234089-000033     551234006003000621217KEY CHAIN MOM POLY ASST0000001000+00001753+00000+0001T   00002630+0008121629          1400 1IC205               2AZ
551235000551235               551235               170213KT     1400+00000+KT0000004384+0000004384+000000000+000000614+0000004990+0000000008+I20000000000+0000004990+Z
551235001551235301-085000     551235006003000674299 ORN OCC. LOVE HEARTS  0000001000+00002192+00000+0001T   00002192+0000001631          1400 1IC505               2AZ
551235002551235563-000318-L   551235006003000407088SERVIETTES 33cm RED    0000001000+00002192+00000+0001T   00002192+0000001631          1400 1IC214               2AZ
551236000551236               551236               170213KT     1400+00000+KT0000003542+0000003542+000000000+000000496+0000004030+0000000008+I20000000000+0000004030+Z
551236001551236031-005853     551236006003000442416P/FRAME WDN TWIN HEARTS0000001000+00003507+00000+0001T   00003507+0000001633          1400 1IC510               2AZ
551236002551236112-116038     551236006009681820246TCS CARRIER BAG MIDI   0000001000+00000035+00000+0001T   00000035+0000001633          1400 1IC090               2AZ
551237000551237               551237               170213KT     1400+00000+KT0000003156+0000003156+000000000+000000442+0000003590+0000000008+I20000000000+0000003590+Z
551237001551237018-000127     551237006001023380289MUG OCC STRAIGHT LOVE  0000002000+00001578+00000+0001T   00001753+0006471635          1400 1IC515               2AZ
551238000551238               551238               170213KT     1400+00000+KT0000003069+0000003069+000000000+000000430+0000003499+0000000000+I40000003499+0000000000+Z
551238001551238038-092233     551238006003000328925TABLE-MAT N/SLIP ASST  0000001000+00003069+00000+0001T   00003507+0008191636          1400 1IC300               2AZ
551239000551239               551239               170213KT     1400+00000+KT0000000613+0000000613+000000000+000000086+0000000690+0000000009+I20000000000+0000000690+Z
551239001551239304-001011     551239006001023806727FLWR ROSE RED W/BEAR   0000001000+00000613+00000+0001T   00000788+0006471637          1400 1IC510               2AZ
551240000551240               551240               170213KT     1400+00000+KT0000002192+0000002192+000000000+000000307+0000002490+0000000009+I20000000000+0000002490+Z
551240001551240077-000309-A   551240006003000671007GIFT-BAG HOLOGRAM JMB  0000001000+00002192+00000+0001T   00002192+0000001637          1400 1IC112               2AZ
551241000551241               551241               170213KT     1400+00000+KT0000004941+0000004941+000000000+000000694+0000005630+0000000005+I20000000000+0000005630+Z
551241001551241304-001204     551241006001023737984FLOWER OCC. TEDDY/ROSES0000003000+00001402+00000+0001T   00001490+0006471639          1400 1IC510               2AZ
551241002551241018-000177     551241006001023797513MUG MINI LOVE ASSTD    0000001000+00000700+00000+0001T   00000700+0000001639          1400 1IC515               2AZ
551241003551241112-116038     551241006009681820246TCS CARRIER BAG MIDI   0000001000+00000035+00000+0001T   00000035+0000001639          1400 1IC090               2AZ
551242000551242               551242               170213KT     1400+00000+KT0000003542-0000003542-000000000+000000496-0000004040-0000000002+I20000000000+0000004040-Z
551242001551242031-005853     551242006003000442416P/FRAME WDN TWIN HEARTS0000001000-00003507+00000+0001T   00003507+0000001641          1400 1IC5102IC            2 Z
551242002551242112-116038     551242006003000534906TCS CARRIER BAG MIDI   0000001000-00000035+00000+0001T   00000035+0000001641          1400 1IC0902IC            2 Z
551243000551243               551243               170213KT     1400+00000+KT0000001874+0000001874+000000000+000000263+0000002130+0000000007+I20000000000+0000002130+Z
551243001551243304-001011     551243006001023806727FLWR ROSE RED W/BEAR   0000003000+00000613+00000+0001T   00000788+0006471641          1400 1IC510               2AZ
551243002551243112-116038     551243006009681820246TCS CARRIER BAG MIDI   0000001000+00000035+00000+0001T   00000035+0000001641          1400 1IC090               2AZ
551244000551244               551244               170213KT     1400+00000+KT0000003768+0000003768+000000000+000000529+0000004297+0000000000+I40000004297+0000000000+Z
551244001551244566-002004     551244006001023672421STICKERS CRYSTAL SHAPES0000001000+00001753+00000+0001T   00001753+0000001643          1400 1IC130               2AZ
551244002551244080-000133-A   551244006003000647019MINI VALENTINES CARD   0000001000+00000437+00000+0001T   00000437+0000001643          1400 1IC112               2AZ
551244003551244016-006515-A   551244006003000461707S/JAR GLS W/HANDLE 500 0000001000+00001578+00000+0001T   00001753+0008191643          1400 1IC300               2AZ
551245000551245               551245               170213KT     1400+00000+KT0000003856+0000003856+000000000+000000541+0000004397+0000000000+I40000004397+0000000000+Z
551245001551245903-000211     551245006002099001238SWT GS MALLOW ICE CREAM0000001000+00001753+00000+0001T   00001753+0000001645          1400 1IC150               2AZ
551245002551245251-000041     551245006001023515889SEAL-TAPE BUFF 48mmx50m0000001000+00001227+00000+0001T   00001227+0000001645          1400 1IC810               2AZ
551245003551245903-000123     551245006925925909280SWEET GS MINI MALLOWS  0000001000+00000876+00000+0001T   00000876+0000001645          1400 1IC150               2AZ
551246000551246               551246               170213KT     1400+00000+KT0000001753+0000001753+000000000+000000246+0000001990+0000000009+I20000000000+0000001990+Z
551246001551246077-000351     551246006003000139033GIFT-BAG 18X23CM E/D P 0000001000+00001753+00000+0001T   00001753+0000001646          1400 1IC112               2AZ
551247000551247               551247               170213KT     1400+00000+KT0000012313+0000012313+000000000+000001725+0000014038+0000000000+I40000014038+0000000000+Z
551247001551247368-000175     551247006003000270316PLUSH BEAR 4 ASSTD 18CM0000002000+00006139+00000+0001T   00006139+0000001649          1400 1IC745               2AZ
551247002551247112-116038     551247006009681820246TCS CARRIER BAG MIDI   0000001000+00000035+00000+0001T   00000035+0000001649          1400 1IC090               2AZ
551248000551248               551248               170213KT     1400+00000+KT0000003542+0000003542+000000000+000000496+0000004038+0000000000+I40000004038+0000000000+Z
551248001551248031-005853     551248006003000442416P/FRAME WDN TWIN HEARTS0000001000+00003507+00000+0001T   00003507+0000001650          1400 1IC510               2AZ
551248002551248112-116038     551248006003000534906TCS CARRIER BAG MIDI   0000001000+00000035+00000+0001T   00000035+0000001650          1400 1IC090               2AZ
551249000551249               551249               170213KT     1400+00000+KT0000010572+0000010572+000000000+000001481+0000012053+0000000000+I40000012053+0000000000+Z
551249001551249077-000454     551249006003000285266G/BAG METALLIC LRG EMB 0000001000+00001753+00000+0001T   00001753+0000001655          1400 1IC112               2AZ
551249002551249368-000012     551249006003000610464PLUSH BEAR 30cm SITTING0000001000+00008771+00000+0001T   00008771+0000001655          1400 1IC745               2AZ
551249003551249112-116069     551249006009681820277TCS CARRIER BAG JUMBO  0000001000+00000048+00000+0001T   00000048+0000001655          1400 1IC090               2AZ
551250000551250               551250               170213KT     1400+00000+KT0000005259+0000005259+000000000+000000738+0000005990+0000000007+I20000000000+0000005990+Z
551250001551250036-000063     551250006009654960436COATHANGERS VIRGIN 5PCE0000001000+00001753+00000+0001T   00001753+0000001658          1400 2IC212               2AZ
551250002551250083-000050     551250006001023898593LIGHTERS DISPOSABLE    0000001000+00000876+00000+0001T   00000876+0000001658          1400 2IC315               2AZ
551250003551250106-001104     551250006003000364794WATER BOTTLE 600ml PL  0000001000+00002630+00000+0001T   00002630+0000001658          1400 2IC210               2AZ
551251000551251               551251               170213KT     1400+00000+KT0000007049+0000007049+000000000+000000988+0000008037+0000000000+I40000008037+0000000000+Z
551251001551251018-000170     551251006001023775528MUG OCC. LOVE 2PC MINI 0000001000+00002192+00000+0001T   00002192+0000001700          1400 2IC515               2AZ
551251002551251089-000220     551251006003000677368KEY CHAIN+PEN+KNIFE    0000001000+00003069+00000+0001T   00003069+0000001700          1400 2IC205               2AZ
551251003551251018-000108     551251006001023380265MUG NOVELTY ICON ASST  0000001000+00001753+00000+0001T   00001753+0000001700          1400 2IC515               2AZ
551251004551251112-116038     551251006009681820246TCS CARRIER BAG MIDI   0000001000+00000035+00000+0001T   00000035+0000001700          1400 2IC090               2AZ
551252000551252               551252               170213KT     1400+00000+KT0000000613+0000000613+000000000+000000086+0000000690+0000000009+I20000000000+0000000690+Z
551252001551252304-001011     551252006001023806727FLWR ROSE RED W/BEAR   0000001000+00000613+00000+0001T   00000788+0006471701          1400 2IC510               2AZ
A17021300                                          09131352KTSLAVE 2                       GH12IC
A17021301                                          09344698KTSLAVE 2                       GH12IC
A17021302                                          09541256KTSLAVE 2                       2IC2IC
A17021303                                          12390260KTSLAVE 2                       2IC2IC
M17021391                              CASH        KTSLAVE 2                       Z-REPORT No.   568TOTAL (Sales - Refunds)           1572.97       CASH TO BE BANKED                  782.50       DEBIT CARDS                          0.00       CREDIT CARDS                       790.47       Z-READING                         1572.97       AIRTIME DEBIT CARD SALES             0.00       AIRTIME CARD SALES                   0.00       OVERS/UNDERS                         0.00       AIRTIME CASH SALES                   0.00       GIFT CARDS                           0.00       GIFT CARD CASH SALES                 0.00       T O T A L  CASH PAYOUTS              0.00                                                                                                                                                                                                                                                                                                                                                      Z
M17021392                              CASH        KTABSENT                                                                                                                                                                                          ANNUAL LEAVE                                                                                                                                                                                    DAY OFF                                                                                                                                                                                         COMMENTS                                                                                                                                                                                                                                                                                                                                                                                       Z
Y17021300                                          KT00000000141659+000032
ZKT17021406173 SLAVE 2      SALES DATA                     NEXT INVOICE NO.  551253 0568
X KT Slave 2 First invoice 551220 170213 Last invoice 551252 170213 Next invoice 551253 Total number of records 000000107 clbackup completed 06:17:01
