102354000102354               102354               170213KX     1400+00000+KX0000002192+0000002192+000000000+000000307+0000002490+0000000009+I20000000000+0000002490+Z
102354001102354080-000127     102354006003000424351VALENTINES DAY 36x24CM 0000001000+00002192+00000+0001T   00002192+0000000908          1400 KL9112               1AZ
102355000102355               102355               170213KX     1400+00000+KX0000001490+0000001490+000000000+000000209+0000001690+0000000009+I20000000000+0000001690+Z
102355001102355071-005214     102355006003000152544CELLOTAPE SUPER REFILL 0000001000+00001490+00000+0001T   00001490+0000000913          1400 KL9130               1AZ
102356000102356               102356               170213KX     1400+00000+KX0000008803+0000008803+000000000+000001234+0000010037+0000000000+I40000010037+0000000000+Z
102356001102356112-116038     102356006009681820246TCS CARRIER BAG MIDI   0000001000+00000035+00000+0001T   00000035+0000000916          1400 KL9090               1AZ
102356002102356362-003003     102356006003000295616HAIR BAND SET 6PCE     0000001000+00001753+00000+0001T   00001753+0000000916          1400 KL9160               1AZ
102356003102356361-003015     102356006003000543168DOLLS 14CM MERMAIDS 4PC0000001000+00005262+00000+0001T   00005262+0000000916          1400 KL9725               1AZ
102356004102356077-000472     102356006003000330133G-BAG DESGNR LRG 25X32 0000001000+00001753+00000+0001T   00001753+0000000916          1400 KL9112               1AZ
102357000102357               102357               170213KX     1400+00000+KX0000002240+0000002240+000000000+000000314+0000002550+0000000004+I20000000000+0000002550+Z
102357001102357080-000127     102357006003000424351VALENTINES DAY 36x24CM 0000001000+00002192+00000+0001T   00002192+0000000919          1400 KL9112               1AZ
102357002102357112-116069     102357006009681820277TCS CARRIER BAG JUMBO  0000001000+00000048+00000+0001T   00000048+0000000919          1400 KL9090               1AZ
102358000102358               102358               170213KX     1400+00000+KX0000018448+0000018448+000000000+000002588+0000021030+0000000006+I20000000000+0000021030+Z
102358001102358112-116069     102358006009681820277TCS CARRIER BAG JUMBO  0000001000+00000048+00000+0001T   00000048+0000000921          1400 KL9090               1AZ
102358002102358466-000515     102358006001023477408BALLS TENNIS BAG-OF-3  0000001000+00002630+00000+0001T   00002630+0000000921          1400 KL9785               1AZ
102358003102358072-020300     102358006008632000430DOG-TOY TUG-A-BALL SML 0000001000+00002630+00000+0001T   00002630+0000000921          1400 KL9870               1AZ
102358004102358080-000103     102358006003000236961CARD&ENVLOPE BDAY-MALE 0000001000+00001753+00000+0001T   00001753+0000000921          1400 KL9112               1AZ
102358005102358080-000127     102358006003000424351VALENTINES DAY 36x24CM 0000001000+00002192+00000+0001T   00002192+0000000921          1400 KL9112               1AZ
102358006102358006-001000     102358006003000093779HELIUM BALLOON FILL    0000015000+00000613+00000+0001T   00000613+0000000921          1400 KL9131               1AZ
102359000102359               102359               170213KX     1400+00000+KX0000006130+0000006130+000000000+000000860+0000006990+0000000000+I20000000000+0000006990+Z
102359001102359006-001000     102359006003000093779HELIUM BALLOON FILL    0000010000+00000613+00000+0001T   00000613+0000000922          1400 KL9131               1AZ
102360000102360               102360               170213KX     1400+00000+KX0000000876+0000000876+000000000+000000123+0000000990+0000000009+I20000000000+0000000990+Z
102360001102360071-003003     102360006003000144525PEN BALL PEN 3PCE BLACK0000001000+00000876+00000+0001T   00000876+0000000926          1400 KL9130               1AZ
102361000102361               102361               170213KX     1400+00000+KX0000004242+0000004242+000000000+000000595+0000004830+0000000007+I20000000000+0000004830+Z
102361001102361077-000322     102361006001023677532GIFT-BAG 18X23CM E/D FL0000001000+00001227+00000+0001T   00001227+0000000931          1400 KL9112               1AZ
102361002102361077-000384     102361006003000275243G/BAG HOT STMP 18x23CM 0000001000+00001490+00000+0001T   00001490+0000000931          1400 KL9112               1AZ
102361003102361077-000299     102361006003000395576G/BAG 32x25cm LRG LOVE 0000001000+00001490+00000+0001T   00001490+0000000931          1400 KL9112               1AZ
102361004102361112-116038     102361006009681820246TCS CARRIER BAG MIDI   0000001000+00000035+00000+0001T   00000035+0000000931          1400 KL9090               1AZ
102362000102362               102362               170213KX     1400+00000+KX0000005262+0000005262+000000000+000000737+0000005990+0000000009+I20000000000+0000005990+Z
102362001102362004-078987     102362006003000491414H/PHONES W/MIC+1.2mCORD0000001000+00005262+00000+0001T   00005262+0000001009          1400 KL9310               1AZ
102363000102363               102363               170213KX     1400+00000+KX0000014031+0000014031+000000000+000001966+0000015990+0000000007+I20000000000+0000015990+Z
102363001102363567-011140     102363009781850389804BOOK STICKER ASSTD     0000001000+00002630+00000+0001T   00002630+0000001011          1400 KL9757               1AZ
102363002102363567-011908     102363006003000676361BK PROMO CLEARANCE ASST0000001000+00007016+00000+0001T   00007016+0000001011          1400 KL9757               1AZ
102363003102363564-000010     102363006003000395477BUBBLE REFILL 1 LITRE  0000001000+00004385+00000+0001T   00004385+0000001011          1400 KL9131               1AZ
102364000102364               102364               170213KX     1400+00000+KX0000003507+0000003507+000000000+000000491+0000003990+0000000008+I20000000000+0000003990+Z
102364001102364003-008001     102364006003000580125ORN SCARECROW 15CM ASST0000001000+00003507+00000+0001T   00003507+0000001014          1400 KL9505               1AZ
102365000102365               102365               170213KX     1400+00000+KX0000008372+0000008372+000000000+000001176+0000009540+0000000008+I20000000000+0000009540+Z
102365001102365565-000056     102365006003000643325NOVELTY FINGER BEAMS   0000001000+00001753+00000+0001T   00001753+0000001020          1400 KL9745               1AZ
102365002102365492-055602     102365000078257556021SWIM-GOGGLES PLAY      0000001000+00002630+00000+0001T   00002630+0000001020          1400 KL9787               1AZ
102365003102365080-000133-A   102365006003000647019MINI VALENTINES CARD   0000001000+00000437+00000+0001T   00000437+0000001020          1400 KL9112               1AZ
102365004102365077-000151     102365006008766114676GIFT-WRAP C/PHANE ASSTD0000002000+00000876+00000+0001T   00000876+0000001020          1400 KL9112               1AZ
102365005102365077-000150-D   102365006003000054343GIFT-WRAP CELLPHANE CLR0000001000+00000876+00000+0001T   00000876+0000001020          1400 KL9112               1AZ
102365006102365112-116069     102365006009681820277TCS CARRIER BAG JUMBO  0000001000+00000048+00000+0001T   00000048+0000001020          1400 KL9090               1AZ
102365007102365903-000520     102365006001704009898SWT GUMMY MINI SOUR 60g0000001000+00000876+00000+0001T   00000876+0000001020          1400 KL9150               1AZ
102366000102366               102366               170213KX     1400+00000+KX0000008713+0000008713+000000000+000001221+0000009934+0000000000+I40000009934+0000000000+Z
102366001102366077-000311     102366006001023608666GIFT-BAG 11X14CM GLOSS 0000003000+00000613+00000+0001T   00000613+0000001026          1400 KL9112               1AZ
102366002102366082-000110     102366006003000360482READING GLS STRENGHT:2 0000001000+00004385+00000+0001T   00004385+0000001026          1400 KL9160               1AZ
102366003102366077-000322     102366006001023677532GIFT-BAG 18X23CM E/D FL0000002000+00001227+00000+0001T   00001227+0000001026          1400 KL9112               1AZ
102366004102366112-116038     102366006009681820246TCS CARRIER BAG MIDI   0000001000+00000035+00000+0001T   00000035+0000001026          1400 KL9090               1AZ
102367000102367               102367               170213KX     1400+00000+KX0000013199+0000013199+000000000+000001849+0000015048+0000000000+I40000015048+0000000000+Z
102367001102367365-005267     102367006001023584366P/SET KITCHEN BAKING PL0000001000+00003507+00000+0001T   00003507+0000001028          1400 KL9725               1AZ
102367002102367266-000101     102367006003000552658GLIDER PLANE 15.5X45CM 0000001000+00002630+00000+0001T   00002630+0000001028          1400 KL9710               1AZ
102367003102367464-009010     102367006001023800756FISHING-GAME MAG +ROD  0000002000+00003507+00000+0001T   00003507+0000001028          1400 KL9785               1AZ
102367004102367112-116069     102367006009681820277TCS CARRIER BAG JUMBO  0000001000+00000048+00000+0001T   00000048+0000001028          1400 KL9090               1AZ
102368000102368               102368               170213KX     1400+00000+KX0000016887+0000016887+000000000+000002366+0000019253+0000000000+I40000019253+0000000000+Z
102368001102368261-009943     102368006003000298822GUN WATER JUMBO        0000001000+00015788+00000+0001T   00015788+0000001030          1400 KL9710               1AZ
102368002102368903-002890     102368008935001721352MENTOS GUM PURE F/MINT 0000001000+00001051+00000+0001T   00001051+0000001030          1400 KL9150               1AZ
102368003102368112-116069     102368006009681820277TCS CARRIER BAG JUMBO  0000001000+00000048+00000+0001T   00000048+0000001030          1400 KL9090               1AZ
102369000102369               102369               170213KX     1400+00000+KX0000025123+0000025123+000000000+000003521+0000028644+0000000000+I40000028644+0000000000+Z
102369001102369112-116069     102369006009681820277TCS CARRIER BAG JUMBO  0000001000+00000048+00000+0001T   00000048+0000001032          1400 KL9090               1AZ
102369002102369079-001001     102369006003000448593CANVAS A3 WOOD MOUNTED 0000003000+00004385+00000+0001T   00004385+0000001032          1400 KL9130               1AZ
102369003102369079-001002     102369006003000448715CANVAS A4 WOOD MOUNTED 0000004000+00002630+00000+0001T   00002630+0000001032          1400 KL9130               1AZ
102369004102369018-000177     102369006001023797513MUG MINI LOVE ASSTD    0000002000+00000700+00000+0001T   00000700+0000001032          1400 KL9515               1AZ
102370000102370               102370               170213KX     1400+00000+KX0000008767+0000008767+000000000+000001228+0000009990+0000000005+I20000000000+0000009990+Z
102370001102370463-000141     102370006003000521609WATER BLASTER LONG     0000002000+00003507+00000+0001T   00003507+0000001033          1400 KL9785               1AZ
102370002102370491-059640     102370000078257596409INTEX:ARMBAND 3-6YRS   0000001000+00001753+00000+0001T   00001753+0000001033          1400 KL9787               1AZ
102371000102371               102371               170213KX     1400+00000+KX0000002277+0000002277+000000000+000000320+0000002597+0000000000+I40000002597+0000000000+Z
102371001102371903-002890     102371008935001721352MENTOS GUM PURE F/MINT 0000001000+00001051+00000+0001T   00001051+0000001034          1400 KL9150               1AZ
102371002102371200-000130     102371006001023645067DESSERT-SPOONS 10PCE   0000002000+00000613+00000+0001T   00000613+0000001034          1400 KL9214               1AZ
102372000102372               102372               170213KX     1400+00000+KX0000001753+0000001753+000000000+000000246+0000001990+0000000009+I20000000000+0000001990+Z
102372001102372080-000103     102372006003000236961CARD&ENVLOPE BDAY-MALE 0000001000+00001753+00000+0001T   00001753+0000001034          1400 KL9112               1AZ
102373000102373               102373               170213KX     1400+00000+KX0000006610+0000006610+000000000+000000927+0000007530+0000000007+I20000000000+0000007530+Z
102373001102373085-007024     102373006001023870926P/KNIFE 15-FUNCTION RED0000001000+00005262+00000+0001T   00005262+0000001037          1400 KL9305               1AZ
102373002102373077-000408     102373006003000145218G/BAG PP 15X21X7CM     0000001000+00000876+00000+0001T   00000876+0000001037          1400 KL9112               1AZ
102373003102373112-116038     102373006009681820246TCS CARRIER BAG MIDI   0000001000+00000035+00000+0001T   00000035+0000001037          1400 KL9090               1AZ
102373004102373080-000133     102373006003000535613CARD&ENV MINI ASTD DSGN0000001000+00000437+00000+0001T   00000437+0000001037          1400 KL9112               1AZ
102374000102374               102374               170213KX     1400+00000+KX0000022404+0000022404+000000000+000003142+0000025546+0000000000+I40000025546+0000000000+Z
102374001102374112-116069     102374006009681820277TCS CARRIER BAG JUMBO  0000001000+00000048+00000+0001T   00000048+0000001119          1400 KL9090               1AZ
102374002102374079-013032-J   102374006003000542710A&C DIY COLOUR P/FLOWER0000001000+00001753+00000+0001T   00001753+0000001119          1400 KL9130               1AZ
102374003102374079-013032-D   102374006003000389643RIBBONS                0000002000+00002630+00000+0001T   00002630+0000001119          1400 KL9130               1AZ
102374004102374079-013032-J   102374006003000542710A&C DIY COLOUR P/FLOWER0000001000+00001753+00000+0001T   00001753+0000001119          1400 KL9130               1AZ
102374005102374071-001346     102374006001023912985HIGHLIGHTERS 4PCE CARD 0000001000+00002192+00000+0001T   00002192+0000001119          1400 KL9130               1AZ
102374006102374203-006502     102374006003000257454DRINK STIRRERS ASSTD   0000002000+00002630+00000+0001T   00002630+0000001119          1400 KL9300               1AZ
102374007102374079-014152     102374006003000253074ART+CRAFT PK50 ASSTD   0000002000+00003069+00000+0001T   00003069+0000001119          1400 KL9130               1AZ
102375000102375               102375               170213KX     1400+00000+KX0000005994+0000005994+000000000+000000840+0000006830+0000000004+I20000000000+0000006830+Z
102375001102375039-000114     102375006001023524058CANDLE T/LITE RED 3.5CM0000001000+00001753+00000+0001T   00001753+0000001124          1400 KL9510               1AZ
102375002102375903-000194     102375006009826020616SWT CHOC RP LOLLY 25G  0000002000+00001314+00000+0001T   00001314+0000001124          1400 KL9150               1AZ
102375003102375018-000127     102375006001023380289MUG OCC STRAIGHT LOVE  0000001000+00001578+00000+0001T   00001753+0006471124          1400 KL9515               1AZ
102375004102375112-116038     102375006009681820246TCS CARRIER BAG MIDI   0000001000+00000035+00000+0001T   00000035+0000001124          1400 KL9090               1AZ
102376000102376               102376               170213KX     1400+00000+KX0000010524+0000010524+000000000+000001474+0000011998+0000000000+I40000011998+0000000000+Z
102376001102376158-000167     102376006003000569588WASTEPAPER-BASKET 26cm 0000002000+00005262+00000+0001T   00005262+0000001128          1400 KL9300               1AZ
102377000102377               102377               170213KX     1400+00000+KX0000016998+0000016998+000000000+000002382+0000019380+0000000000+I40000019380+0000000000+Z
102377001102377079-013102     102377006003000019601ART+CRAFT DIY PIPE-CLNR0000001000+00002192+00000+0001T   00002192+0000001138          1400 KL9130               1AZ
102377002102377566-001234     102377006003000217793STICKERS LASER ASSTD   0000001000+00001578+00000+0001T   00001578+0000001138          1400 KL9130               1AZ
102377003102377566-000863     102377006001023788351STICKERS LASER 20x25cm 0000001000+00002630+00000+0001T   00002630+0000001138          1400 KL9130               1AZ
102377004102377077-000900     102377006003000410446G/WRAP 700mmx1m ANIMAL 0000001000+00001753+00000+0001T   00001753+0000001138          1400 KL9112               1AZ
102377005102377077-000916     102377006003000413577G/WRAP 700mmx2m BBY/KID0000001000+00002192+00000+0001T   00002192+0000001138          1400 KL9112               1AZ
102377006102377564-000012     102377006001023130075BUBBLE BOTTLE MAGIC    0000001000+00000700+00000+0001T   00000700+0000001138          1400 KL9131               1AZ
102377007102377566-000028     102377006003000265541STICKER BK ASSTD 250PCE0000001000+00001753+00000+0001T   00001753+0000001138          1400 KL9130               1AZ
102377008102377564-000012     102377006001023130075BUBBLE BOTTLE MAGIC    0000006000+00000700+00000+0001T   00000700+0000001138          1400 KL9131               1AZ
102378000102378               102378               170213KX     1400+00000+KX0000007450+0000007450+000000000+000001045+0000008495+0000000000+I40000008495+0000000000+Z
102378001102378077-000245     102378006001023759214GIFT-RIBBON METALLICx2 0000002000+00001227+00000+0001T   00001227+0000001142          1400 KL9112               1AZ
102378002102378028-000796     102378006001023812094SKEWERS 25cm 50PCE 4mm 0000001000+00001490+00000+0001T   00001490+0000001142          1400 KL9305               1AZ
102378003102378006-000800     102378006001023902801HAT CABARET 14x18cm    0000002000+00001753+00000+0001T   00001753+0000001142          1400 KL9131               1AZ
102379000102379               102379               170213KX     1400+00000+KX0000020221+0000020221+000000000+000002832+0000023050+0000000003+I20000000000+0000023050+Z
102379001102379016-003000     102379006003000662463BOTTLE GLS W/LID 3PC 1L0000001000+00008771+00000+0001T   00008771+0000001153          1400 KL9300               1AZ
102379002102379001-000410     102379006003000431175BEER-TUMBLER GLASS DAD 0000001000+00011402+00000+0001T   00011402+0000001153          1400 KL9515               1AZ
102379003102379112-116069     102379006009681820277TCS CARRIER BAG JUMBO  0000001000+00000048+00000+0001T   00000048+0000001153          1400 KL9090               1AZ
102380000102380               102380               170213KX     1400+00000+KX0000001753+0000001753+000000000+000000246+0000001990+0000000009+I20000000000+0000001990+Z
102380001102380080-000109     102380006003000237203CARD&ENVLPE BDAY-BRIGHT0000001000+00001753+00000+0001T   00001753+0000001157          1400 KL9112               1AZ
102381000102381               102381               170213KX     1400+00000+KX0000009405+0000009405+000000000+000001322+0000010720+0000000007+I20000000000+0000010720+Z
102381001102381903-000077     102381006939873501687SWT GS MAGIC ROCK FRUIT0000006000+00000525+00000+0001T   00000525+0000001204          1400 KL9150               1AZ
102381002102381903-000194     102381006009826020616SWT CHOC RP LOLLY 25G  0000002000+00001314+00000+0001T   00001314+0000001204          1400 KL9150               1AZ
102381003102381903-000200     102381006009826020234SWT CHOC RP CHOCO 23G  0000002000+00000788+00000+0001T   00000788+0000001204          1400 KL9150               1AZ
102381004102381903-000907     102381006009802868324SWEET LASER BARBIE     0000001000+00002016+00000+0001T   00002016+0000001204          1400 KL9150               1AZ
102381005102381112-116038     102381006009681820246TCS CARRIER BAG MIDI   0000001000+00000035+00000+0001T   00000035+0000001204          1400 KL9090               1AZ
102382000102382               102382               170213KX     1400+00000+KX0000015121+0000015121+000000000+000002121+0000017240+0000000002+I20000000000+0000017240+Z
102382001102382112-116069     102382006009681820277TCS CARRIER BAG JUMBO  0000001000+00000048+00000+0001T   00000048+0000001207          1400 KL9090               1AZ
102382002102382018-000127     102382006001023380289MUG OCC STRAIGHT LOVE  0000004000+00001578+00000+0001T   00001753+0006471207          1400 KL9515               1AZ
102382003102382077-000150-D   102382006003000054343GIFT-WRAP CELLPHANE CLR0000003000+00000876+00000+0001T   00000876+0000001207          1400 KL9112               1AZ
102382004102382077-000151     102382006008766114676GIFT-WRAP C/PHANE ASSTD0000004000+00000876+00000+0001T   00000876+0000001207          1400 KL9112               1AZ
102382005102382071-005213     102382006001023690371CELLOTAPE 12mmx33m     0000001000+00000876+00000+0001T   00000876+0000001207          1400 KL9130               1AZ
102382006102382084-009407     102382006001023861726SCISSORS 13cm MTL PL-H 0000001000+00001753+00000+0001T   00001753+0000001207          1400 KL9200               1AZ
102383000102383               102383               170213KX     1400+00000+KX0000029242+0000029242+000000000+000004100+0000033342+0000000000+I40000033342+0000000000+Z
102383001102383112-116069     102383006009681820277TCS CARRIER BAG JUMBO  0000001000+00000048+00000+0001T   00000048+0000001214          1400 KL9090               1AZ
102383002102383038-047244     102383006003000368068PLACE-MAT COLS 43X29CM 0000002000+00001490+00000+0001T   00001490+0000001214          1400 KL9300               1AZ
102383003102383301-085007     102383006003000673698ORN OCC. LOVE S/PLAQUE 0000001000+00007893+00000+0001T   00007893+0000001214          1400 KL9505               1AZ
102383004102383200-000080     102383005024418420439ICE-CUBE-MAKER 336PCE  0000001000+00001753+00000+0001T   00001753+0000001214          1400 KL9214               1AZ
102383005102383080-000124     102383006003000297733CARD & ENV VALENTINES  0000001000+00001578+00000+0001T   00001578+0000001214          1400 KL9112               1AZ
102383006102383077-000303     102383006001023593757GIFT-BAG PAPER MED     0000001000+00001578+00000+0001T   00001578+0000001214          1400 KL9112               1AZ
102383007102383200-003024     102383006001023657299REFUSE BAGS 20PCE BLACK0000001000+00001753+00000+0001T   00001753+0000001214          1400 KL9214               1AZ
102383008102383089-060027     102383006003000245871KEY-CHAIN HEART 6X6cm  0000001000+00003069+00000+0001T   00003069+0000001214          1400 KL9205               1AZ
102383009102383301-085001     102383006003000297610ORN WATERBALL LOVE ASST0000001000+00004823+00000+0001T   00004823+0000001214          1400 KL9505               1AZ
102383010102383306-000993     102383006003000560110FIRSTAID PLASTER 75PC  0000001000+00002630+00000+0001T   00002630+0000001214          1400 KL9200               1AZ
102383011102383018-000177     102383006001023797513MUG MINI LOVE ASSTD    0000001000+00000700+00000+0001T   00000700+0000001214          1400 KL9515               1AZ
102383012102383080-000133-A   102383006003000647019MINI VALENTINES CARD   0000001000+00000437+00000+0001T   00000437+0000001214          1400 KL9112               1AZ
102384000102384               102384               170213KX     1400+00000+KX0000077276+0000077276+000000000+000010837+0000088113+0000000000+I40000088113+0000000000+Z
102384001102384112-116069     102384006009681820277TCS CARRIER BAG JUMBO  0000001000+00000048+00000+0001T   00000048+0000001232          1400 KL9090               1AZ
102384002102384007-000204     102384006009635835272EXAM-PAD 60SHT PUNCHED 0000002000+00000964+00000+0001T   00000964+0000001232          1400 KL9130               1AZ
102384003102384071-001124     102384006001023802873MARKERS WHITEBOARD 3PCE0000001000+00002630+00000+0001T   00002630+0000001232          1400 KL9130               1AZ
102384004102384071-003863     102384006003000145102PENCIL NOVELTY ERASER  0000001000+00002630+00000+0001T   00002630+0000001232          1400 KL9130               1AZ
102384005102384071-001124     102384006001023802873MARKERS WHITEBOARD 3PCE0000001000+00002630+00000+0001T   00002630+0000001232          1400 KL9130               1AZ
102384006102384071-081100-A   102384006003000326426GLUE-STICK 25g 2pk     0000001000+00001490+00000+0001T   00001490+0000001232          1400 KL9130               1AZ
102384007102384566-000344     102384006001023994806STICKER ALBUM+STICKERS 0000001000+00001753+00000+0001T   00001753+0000001232          1400 KL9130               1AZ
102384008102384079-000341     102384006920705495519FELT-TIP PENS 12PCE    0000001000+00001753+00000+0001T   00001753+0000001232          1400 KL9130               1AZ
102384009102384079-000514     102384009556341898321CRAYONS WAX 24-COLOUR  0000001000+00002630+00000+0001T   00002630+0000001232          1400 KL9130               1AZ
102384010102384071-001238     102384000060107212485ERASERS  3PCE    CARDED0000001000+00000876+00000+0001T   00000876+0000001232          1400 KL9130               1AZ
102384011102384079-013032     102384006003000389209SET LETTERS 2 ASSTD    0000001000+00001753+00000+0001T   00001753+0000001232          1400 KL9130               1AZ
102384012102384200-003024     102384006001023657299REFUSE BAGS 20PCE BLACK0000001000+00001753+00000+0001T   00001753+0000001232          1400 KL9214               1AZ
102384013102384079-000514     102384009556341898321CRAYONS WAX 24-COLOUR  0000001000+00002630+00000+0001T   00002630+0000001232          1400 KL9130               1AZ
102384014102384079-000195     102384006003000161485P/CRAYONS RETRCTBLEx10 0000002000+00003507+00000+0001T   00003507+0000001232          1400 KL9130               1AZ
102384015102384079-000341     102384006920705495519FELT-TIP PENS 12PCE    0000001000+00001753+00000+0001T   00001753+0000001232          1400 KL9130               1AZ
102384016102384565-000602     102384006003000643790NOVELTY NINJA'S 3PACK  0000001000+00002630+00000+0001T   00002630+0000001232          1400 KL9745               1AZ
102384017102384105-003025     102384006001023594662CONTAINER RECT 28x19cm 0000002000+00002630+00000+0001T   00002630+0000001232          1400 KL9210               1AZ
102384018102384566-000010     102384006001023761217S/ALBUM+STICKERS ASSTD 0000001000+00001227+00000+0001T   00001227+0000001232          1400 KL9130               1AZ
102384019102384071-000307     102384006003000535118RULER FLEXI 30cm       0000001000+00001490+00000+0001T   00001490+0000001232          1400 KL9130               1AZ
102384020102384200-000060     102384006001023625762STRAWS 18cm FLEX 200PCE0000001000+00002455+00000+0001T   00002455+0000001232          1400 KL9214               1AZ
102384021102384071-000325     102384006009635844090RULER PLASTIC 30cm     0000002000+00000437+00000+0001T   00000437+0000001232          1400 KL9130               1AZ
102384022102384071-001005     102384006001023558169PENCIL-SHARPENER DOUBLE0000002000+00001578+00000+0001T   00001578+0000001232          1400 KL9130               1AZ
102384023102384903-000087     102384006001704000161SWT SPECKLED-EGGS 50G  0000001000+00001139+00000+0001T   00001139+0000001232          1400 KL9150               1AZ
102384024102384903-000520     102384006001704009898SWT GUMMY MINI SOUR 60g0000002000+00000876+00000+0001T   00000876+0000001232          1400 KL9150               1AZ
102384025102384903-000220     102384006001704007368SWT JELLY BEANS 60G    0000001000+00000876+00000+0001T   00000876+0000001232          1400 KL9150               1AZ
102384026102384903-000494     102384006001704009911SWT GUMMY TEENY TEDDIES0000001000+00000876+00000+0001T   00000876+0000001232          1400 KL9150               1AZ
102384027102384903-000503     102384006001704006118SWT VAMPIRE FANGS 60G  0000001000+00000876+00000+0001T   00000876+0000001232          1400 KL9150               1AZ
102384028102384903-000295     102384006001704002899SWT MS FRUITY RASCALS  0000001000+00000876+00000+0001T   00000876+0000001232          1400 KL9150               1AZ
102384029102384903-000510     102384006001704012621SWEET MS ZBDZ S/BERRY  0000001000+00001227+00000+0001T   00001227+0000001232          1400 KL9150               1AZ
102384030102384079-013032-B   102384006003000389445MIXED SHAPES           0000001000+00001753+00000+0001T   00001753+0000001232          1400 KL9130               1AZ
102384031102384080-000133-A   102384006003000647019MINI VALENTINES CARD   0000001000+00000437+00000+0001T   00000437+0000001232          1400 KL9112               1AZ
102384032102384027-008815     102384006003000439799DUSTER 62cm RUBBER-GRIP0000001000+00004385+00000+0001T   00004385+0000001232          1400 KL9212               1AZ
102384033102384368-000049     102384006003000536955PLUSH BEAR 15cm LOVE   0000001000+00004385+00000+0001T   00004385+0000001232          1400 KL9745               1AZ
102384034102384560-000109     102384006003000547784DINO'S PAINT GLOWING   0000001000+00004385+00000+0001T   00004385+0000001232          1400 KL9745               1AZ
102384035102384106-001119     102384006003000449972WATER BOTTLE ALUM 750ml0000001000+00003946+00000+0001T   00005262+0008171232          1400 KL9210               1AZ
102385000102385               102385               170213KX     1400+00000+KX0000009165+0000009165+000000000+000001285+0000010450+0000000000+I40000010450+0000000000+Z
102385001102385089-000141-H   102385006001023416568KEY-CHAINS 6PCE     H&H0000002000+00001490+00000+0001T   00001490+0000001235          1400 KL9205               1AZ
102385002102385159-000045     102385006003000467686HOOKS CHROME PLATED 6PC0000001000+00002630+00000+0001T   00002630+0000001235          1400 KL9200               1AZ
102385003102385007-000108     102385006009698062097BK COVER ADJUSTABLE A4 0000001000+00003507+00000+0001T   00003507+0000001235          1400 KL9130               1AZ
102385004102385112-116069     102385006009681820277TCS CARRIER BAG JUMBO  0000001000+00000048+00000+0001T   00000048+0000001235          1400 KL9090               1AZ
102386000102386               102386               170213KX     1400+00000+KX0000002630+0000002630+000000000+000000369+0000002999+0000000000+I40000002999+0000000000+Z
102386001102386560-000201     102386006001023400147RUBBER SNAKE 86cm      0000001000+00002630+00000+0001T   00002630+0000001245          1400 KL9745               1AZ
102387000102387               102387               170213KX     1400+00000+KX0000007893+0000007893+000000000+000001106+0000008990+0000000009+I20000000000+0000008990+Z
102387001102387301-085007     102387006003000673698ORN OCC. LOVE S/PLAQUE 0000001000+00007893+00000+0001T   00007893+0000001247          1400 KL9505               1AZ
102388000102388               102388               170213KX     1400+00000+KX0000001753+0000001753+000000000+000000246+0000001990+0000000009+I20000000000+0000001990+Z
102388001102388024-000214     102388006001023587855COOKIE-CUTTERS PL 6PC  0000001000+00001753+00000+0001T   00001753+0000001250          1400 KL9300               1AZ
102389000102389               102389               170213KX     1400+00000+KX0000001753+0000001753+000000000+000000246+0000001990+0000000009+I20000000000+0000001990+Z
102389001102389584-002046     102389006003000511570CD XMAS WITH ILSE      0000001000+00001753+00000+0001T   00002630+0008141253          1400 KL9310               1AZ
102390000102390               102390               170213KX     1400+00000+KX0000002630+0000002630+000000000+000000369+0000002990+0000000009+I20000000000+0000002990+Z
102390001102390046-000011-A   102390006003000438891BATTERIES SIZE:AA  4PCE0000001000+00002630+00000+0001T   00002630+0000001306          1400 KL9312               1AZ
102391000102391               102391               170213KX     1400+00000+KX0000014032+0000014032+000000000+000001966+0000015990+0000000008+I20000000000+0000015990+Z
102391001102391077-000290     102391006001023902023GIFT BOX 26x32x13cm    0000001000+00001753+00000+0001T   00001753+0000001309          1400 KL9112               1AZ
102391002102391368-000113     102391006001023780874PLUSH BLINGED LOVE 30cm0000001000+00012279+00000+0001T   00012279+0000001309          1400 KL9745               1AZ
102392000102392               102392               170213KX     1400+00000+KX0000003506+0000003506+000000000+000000492+0000003990+0000000008+I20000000000+0000003990+Z
102392001102392027-056191     102392006916920933134DISH-BRUSH+HOOK RECT   0000001000+00001753+00000+0001T   00001753+0000001319          1400 KL9212               1AZ
102392002102392037-000004     102392006001023763679ASHTRAY PL TUB 8X11CM  0000001000+00001753+00000+0001T   00002192+0008191319          1400 KL9515               1AZ
102393000102393               102393               170213KX     1400+00000+KX0000002192+0000002192+000000000+000000307+0000002490+0000000009+I20000000000+0000002490+Z
102393001102393080-000127     102393006003000424351VALENTINES DAY 36x24CM 0000001000+00002192+00000+0001T   00002192+0000001326          1400 KL9112               1AZ
102394000102394               102394               170213KX     1400+00000+KX0000003069+0000003069+000000000+000000430+0000003499+0000000000+I40000003499+0000000000+Z
102394001102394072-020315     102394006003000623891PET TOY PUPPY RING 3in10000001000+00003069+00000+0001T   00003069+0000001329          1400 KL9870               1AZ
102395000102395               102395               170213KX     1400+00000+KX0000005084+0000005084+000000000+000000713+0000005790+0000000007+I20000000000+0000005790+Z
102395001102395089-000027     102395006003000254071KEY CHAIN MOM/DAD ASSTD0000002000+00001753+00000+0001T   00001753+0000001332          1400 KL9205               1AZ
102395002102395903-002901     102395005996071650655QUICK MILK 5 S/BERRY   0000001000+00001578+00000+0001T   00001578+0000001332          1400 KL9150               1AZ
102396000102396               102396               170213KX     1400+00000+KX0000002630+0000002630+000000000+000000369+0000002999+0000000000+I40000002999+0000000000+Z
102396001102396206-000620     102396006003000631797BACK SCRATCHER EXTEND  0000001000+00002630+00000+0001T   00002630+0000001333          1400 KL9321               1AZ
102397000102397               102397               170213KX     1400+00000+KX0000029864+0000029864+000000000+000004183+0000034047+0000000000+I40000034047+0000000000+Z
102397001102397112-116069     102397006009681820277TCS CARRIER BAG JUMBO  0000001000+00000048+00000+0001T   00000048+0000001451          1400 KL9090               1AZ
102397002102397002-000650     102397006001023473578M/SPOON WDN 40cm H/HOUS0000001000+00002630+00000+0001T   00002630+0000001451          1400 KL9300               1AZ
102397003102397174-000141     102397006003000367573STORAGE ORGANISER 30X100000001000+00005262+00000+0001T   00005262+0000001451          1400 KL9205               1AZ
102397004102397174-000140     102397006003000367450STORAGE ORGANISER 30X300000001000+00005700+00000+0001T   00005700+0000001451          1400 KL9205               1AZ
102397005102397174-000144     102397006003000450633STORAGE SHOE BOXES 2PC 0000002000+00005262+00000+0001T   00005262+0000001451          1400 KL9205               1AZ
102397006102397174-000140     102397006003000367450STORAGE ORGANISER 30X300000001000+00005700+00000+0001T   00005700+0000001451          1400 KL9205               1AZ
102398000102398               102398               170213KX     1400+00000+KX0000001227+0000001227+000000000+000000172+0000001390+0000000009+I20000000000+0000001390+Z
102398001102398077-000245     102398006001023759214GIFT-RIBBON METALLICx2 0000001000+00001227+00000+0001T   00001227+0000001457          1400 KL9112               1AZ
102399000102399               102399               170213KX     1400+00000+KX0000002630+0000002630+000000000+000000369+0000002990+0000000009+I20000000000+0000002990+Z
102399001102399077-000316-A   102399006003000681457GIFT-BAG METALLIC PPR  0000001000+00002630+00000+0001T   00002630+0000001458          1400 KL9112               1AZ
102400000102400               102400               170213KX     1400+00000+KX0000008818+0000008818+000000000+000001235+0000010053+0000000000+I40000010053+0000000000+Z
102400001102400112-116069     102400006009681820277TCS CARRIER BAG JUMBO  0000001000+00000048+00000+0001T   00000048+0000001500          1400 KL9090               1AZ
102400002102400368-000001     102400006003000097982Plush Bear 25cm        0000002000+00004385+00000+0001T   00004385+0000001500          1400 KL9745               1AZ
102401000102401               102401               170213KX     1400+00000+KX0000010992+0000010992+000000000+000001543+0000012535+0000000000+I40000012535+0000000000+Z
102401001102401112-116038     102401006009681820246TCS CARRIER BAG MIDI   0000001000+00000035+00000+0001T   00000035+0000001506          1400 KL9090               1AZ
102401002102401019-071603     102401006001023772039RIVER-STONES 1kg PEACH 0000001000+00002630+00000+0001T   00002630+0000001506          1400 KL9510               1AZ
102401003102401019-071601     102401006001023771995RIVER-STONES 1kg WHITE 0000002000+00002630+00000+0001T   00002630+0000001506          1400 KL9510               1AZ
102401004102401019-071600     102401006001023771971RIVER-STONES 1kg MIXED 0000001000+00002630+00000+0001T   00002630+0000001506          1400 KL9510               1AZ
102401005102401080-000133     102401006003000535613CARD&ENV MINI ASTD DSGN0000001000+00000437+00000+0001T   00000437+0000001506          1400 KL9112               1AZ
102402000102402               102402               170213KX     1400+00000+KX0000006872+0000006872+000000000+000000964+0000007830+0000000006+I20000000000+0000007830+Z
102402001102402566-001234     102402006003000217793STICKERS LASER ASSTD   0000001000+00001578+00000+0001T   00001578+0000001507          1400 KL9130               1AZ
102402002102402903-000494     102402006001704009911SWT GUMMY TEENY TEDDIES0000001000+00000876+00000+0001T   00000876+0000001507          1400 KL9150               1AZ
102402003102402566-000006     102402006001023671189STICKER-BOOK DRESS-UP  0000001000+00002630+00000+0001T   00002630+0000001507          1400 KL9130               1AZ
102402004102402566-000007     102402006001023761187S/BOOK SUPER VALUE     0000001000+00001753+00000+0001T   00001753+0000001507          1400 KL9130               1AZ
102402005102402112-116038     102402006009681820246TCS CARRIER BAG MIDI   0000001000+00000035+00000+0001T   00000035+0000001507          1400 KL9090               1AZ
102403000102403               102403               170213KX     1400+00000+KX0000006137+0000006137+000000000+000000860+0000006997+0000000000+I40000006997+0000000000+Z
102403001102403082-007582     102403006003000465804SUNGLASSES EMPORIUM    0000001000+00004385+00000+0001T   00004385+0000001511          1400 KL9160               1AZ
102403002102403078-000025     102403008887013700064SUPERGLUE 3g 1PCE CARD 0000002000+00000876+00000+0001T   00000876+0000001511          1400 KL9810               1AZ
102404000102404               102404               170213KX     1400+00000+KX0000005260+0000005260+000000000+000000737+0000005990+0000000007+I20000000000+0000005990+Z
102404001102404133-000010-A   102404006001023997647CLEANING CLOTH ROLL 30 0000001000+00003507+00000+0001T   00003507+0000001514          1400 KL9212               1AZ
102404002102404903-000215     102404006002099001214SWT GS MALLOW TWIST PAC0000001000+00001753+00000+0001T   00001753+0000001514          1400 KL9150               1AZ
102405000102405               102405               170213KX     1400+00000+KX0000007890+0000007890+000000000+000001106+0000008996+0000000000+I40000008996+0000000000+Z
102405001102405028-000918     102405006001023777232BBQ BSTN-BRUSHS 2PC H&L0000001000+00003507+00000+0001T   00003507+0000001519          1400 KL9305               1AZ
102405002102405020-006200     102405006001023488510KNIVES PARING 2PCE H/H 0000001000+00001753+00000+0001T   00001753+0000001519          1400 KL9300               1AZ
102405003102405028-000899     102405006001023509932BBQ-GRILL-CLEANER LONG 0000001000+00002630+00000+0001T   00002630+0000001519          1400 KL9305               1AZ
102406000102406               102406               170213KX     1400+00000+KX0000007656+0000007656+000000000+000001074+0000008730+0000000000+I20000000000+0000008730+Z
102406001102406565-004101     102406006003000548033BALL BOUNCING EGG      0000001000+00001490+00000+0001T   00001490+0000001522          1400 KL9745               1AZ
102406002102406112-116038     102406006009681820246TCS CARRIER BAG MIDI   0000001000+00000035+00000+0001T   00000035+0000001522          1400 KL9090               1AZ
102406003102406033-008209     102406006001023678607MEASURING-TAPE 150cm   0000001000+00000613+00000+0001T   00000613+0000001522          1400 KL9200               1AZ
102406004102406033-010721     102406006001023678669SAFETY-PINS 20PCE ASSTD0000001000+00000700+00000+0001T   00000700+0000001522          1400 KL9200               1AZ
102406005102406903-000194     102406006009826020616SWT CHOC RP LOLLY 25G  0000002000+00001314+00000+0001T   00001314+0000001522          1400 KL9150               1AZ
102406006102406080-000133-A   102406006003000647019MINI VALENTINES CARD   0000001000+00000437+00000+0001T   00000437+0000001522          1400 KL9112               1AZ
102406007102406200-000211     102406006003000671847BAKING-PANS ALUM-FOIL  0000001000+00001753+00000+0001T   00001753+0000001522          1400 KL9214               1AZ
102407000102407               102407               170213KX     1400+00000+KX0000003542+0000003542+000000000+000000496+0000004030+0000000008+I20000000000+0000004030+Z
102407001102407018-005009     102407006001023725608MUG W/PLUSH-BEAR LOVE  0000001000+00003507+00000+0001T   00003507+0000001523          1400 KL9515               1AZ
102407002102407112-116038     102407006009681820246TCS CARRIER BAG MIDI   0000001000+00000035+00000+0001T   00000035+0000001523          1400 KL9090               1AZ
102408000102408               102408               170213KX     1400+00000+KX0000015171+0000015171+000000000+000002127+0000017298+0000000000+I40000017298+0000000000+Z
102408001102408112-116069     102408006009681820277TCS CARRIER BAG JUMBO  0000001000+00000048+00000+0001T   00000048+0000001529          1400 KL9090               1AZ
102408002102408562-002004     102408006003000229017EDU THINK WHOSE BABY   0000001000+00007016+00000+0001T   00007016+0000001529          1400 KL9755               1AZ
102408003102408464-000253     102408006001023341402GAME LUDO       POLYBAG0000001000+00001314+00000+0001T   00001314+0000001529          1400 KL9785               1AZ
102408004102408560-000020     102408006003000653270ANIMALS ASSTD SET      0000001000+00006139+00000+0001T   00006139+0000001529          1400 KL9745               1AZ
102408005102408903-000670     102408006009803358008SWT SHERBET RED LIPS   0000002000+00000218+00000+0001T   00000218+0000001529          1400 KL9150               1AZ
102408006102408903-000671     102408006009803358015SWT SHERBET BLUE LIPS  0000001000+00000218+00000+0001T   00000218+0000001529          1400 KL9150               1AZ
102409000102409               102409               170213KX     1400+00000+KX0000003364+0000003364+000000000+000000472+0000003830+0000000006+I20000000000+0000003830+Z
102409001102409018-005008     102409006003000055500M/OCC. LOVE IN-BOX 2ASS0000001000+00002192+00000+0001T   00002192+0000001530          1400 KL9515               1AZ
102409002102409018-000177     102409006001023797513MUG MINI LOVE ASSTD    0000001000+00000700+00000+0001T   00000700+0000001530          1400 KL9515               1AZ
102409003102409112-116038     102409006009681820246TCS CARRIER BAG MIDI   0000001000+00000035+00000+0001T   00000035+0000001530          1400 KL9090               1AZ
102409004102409080-000133-A   102409006003000647019MINI VALENTINES CARD   0000001000+00000437+00000+0001T   00000437+0000001530          1400 KL9112               1AZ
102410000102410               102410               170213KX     1400+00000+KX0000003506+0000003506+000000000+000000492+0000003998+0000000000+I40000003998+0000000000+Z
102410001102410077-000472     102410006003000330133G-BAG DESGNR LRG 25X32 0000001000+00001753+00000+0001T   00001753+0000001534          1400 KL9112               1AZ
102410002102410018-000210     102410006003000580095MUG DAILY TEXTS 4-ASST 0000001000+00001753+00000+0001T   00001753+0000001534          1400 KL9515               1AZ
102411000102411               102411               170213KX     1400+00000+KX0000002980+0000002980+000000000+000000418+0000003390+0000000008+I20000000000+0000003390+Z
102411001102411019-071610     102411006001023904560PEBBLES WATER GEMS 10g 0000002000+00001490+00000+0001T   00001490+0000001535          1400 KL9510               1AZ
102412000102412               102412               170213KX     1400+00000+KX0000002630+0000002630+000000000+000000369+0000002990+0000000009+I20000000000+0000002990+Z
102412001102412104-000031     102412006003000614950BASKET PL 27x18x12cm   0000001000+00002630+00000+0001T   00002630+0000001540          1400 KL9210               1AZ
102413000102413               102413               170213KX     1400+00000+KX0000004418+0000004418+000000000+000000619+0000005030+0000000007+I20000000000+0000005030+Z
102413001102413903-000111     102413006001704006378SWT LIQUORICE-TWISTS   0000001000+00001227+00000+0001T   00001227+0000001541          1400 KL9150               1AZ
102413002102413106-003115     102413006002689011357ICE CUBE-TRAYS 2PCE WHT0000002000+00001578+00000+0001T   00001578+0000001541          1400 KL9210               1AZ
102413003102413112-116038     102413006009681820246TCS CARRIER BAG MIDI   0000001000+00000035+00000+0001T   00000035+0000001541          1400 KL9090               1AZ
102414000102414               102414               170213KX     1400+00000+KX0000002622+0000002622+000000000+000000372+0000002990+0000000004+I20000000000+0000002990+Z
102414001102414007-000203     102414006009685850409FILE DISPLAY FLDR ASSTD0000006000+00000437+00000+0001T   00000437+0000001614          1400 KL9130               1AZ
102415000102415               102415               170213KX     1400+00000+KX0000000035+0000000035+000000000+000000005+0000000040+0000000000+I20000000000+0000000040+Z
102415001102415112-116038     102415006009681820246TCS CARRIER BAG MIDI   0000001000+00000035+00000+0001T   00000035+0000001615          1400 KL9090               1AZ
102416000102416               102416               170213KX     1400+00000+KX0000001490+0000001490+000000000+000000209+0000001690+0000000009+I20000000000+0000001690+Z
102416001102416051-002401     102416006001023523570TRIGGER-SPRAYER   300ml0000001000+00001490+00000+0001T   00001490+0000001616          1400 KL9820               1AZ
102417000102417               102417               170213KX     1400+00000+KX0000010818+0000010818+000000000+000001516+0000012334+0000000000+I40000012334+0000000000+Z
102417001102417112-116038     102417006009681820246TCS CARRIER BAG MIDI   0000001000+00000035+00000+0001T   00000035+0000001618          1400 KL9090               1AZ
102417002102417368-000265     102417006001023750914PLUSH BEAR 23CM ASSTD C0000001000+00006139+00000+0001T   00006139+0000001618          1400 KL9745               1AZ
102417003102417903-000194     102417006009826020616SWT CHOC RP LOLLY 25G  0000001000+00001314+00000+0001T   00001314+0000001618          1400 KL9150               1AZ
102417004102417018-000177     102417006001023797513MUG MINI LOVE ASSTD    0000001000+00000700+00000+0001T   00000700+0000001618          1400 KL9515               1AZ
102417005102417304-001486     102417006003000035335FLWR BUNCH ROSE        0000001000+00002630+00000+0001T   00002630+0000001618          1400 KL9510               1AZ
102418000102418               102418               170213KX     1400+00000+KX0000001752+0000001752+000000000+000000246+0000001990+0000000008+I20000000000+0000001990+Z
102418001102418077-000150-D   102418006003000054343GIFT-WRAP CELLPHANE CLR0000002000+00000876+00000+0001T   00000876+0000001620          1400 KL9112               1AZ
102419000102419               102419               170213KX     1400+00000+KX0000002013+0000002013+000000000+000000284+0000002290+0000000007+I20000000000+0000002290+Z
102419001102419903-000200     102419006009826020234SWT CHOC RP CHOCO 23G  0000002000+00000788+00000+0001T   00000788+0000001621          1400 KL9150               1AZ
102419002102419080-000133-A   102419006003000647019MINI VALENTINES CARD   0000001000+00000437+00000+0001T   00000437+0000001621          1400 KL9112               1AZ
102420000102420               102420               170213KX     1400+00000+KX0000003541+0000003541+000000000+000000496+0000004030+0000000007+I20000000000+0000004030+Z
102420001102420080-000127     102420006003000424351VALENTINES DAY 36x24CM 0000001000+00002192+00000+0001T   00002192+0000001625          1400 KL9112               1AZ
102420002102420077-000310     102420006001023608635GIFT-BAG 18X23CM GLOSS 0000001000+00001314+00000+0001T   00001314+0000001625          1400 KL9112               1AZ
102420003102420112-116038     102420006009681820246TCS CARRIER BAG MIDI   0000001000+00000035+00000+0001T   00000035+0000001625          1400 KL9090               1AZ
102421000102421               102421               170213KX     1400+00000+KX0000007717+0000007717+000000000+000001081+0000008798+0000000000+I40000008798+0000000000+Z
102421001102421018-050000     102421006003000412679MUG OCC LOVE TWIN BEAR 0000001000+00006139+00000+0001T   00006139+0000001647          1400 KL9515               1AZ
102421002102421077-000315     102421006003000181186GIFT-BAG 20x28cm MATT  0000001000+00001578+00000+0001T   00001578+0000001647          1400 KL9112               1AZ
102422000102422               102422               170213KX     1400+00000+KX0000015465+0000015465+000000000+000002167+0000017632+0000000000+I40000017632+0000000000+Z
102422001102422077-000303     102422006001023593757GIFT-BAG PAPER MED     0000001000+00001578+00000+0001T   00001578+0000001649          1400 KL9112               1AZ
102422002102422368-000171     102422006003000233250PLUSH BEAR 14cm        0000001000+00005262+00000+0001T   00005262+0000001649          1400 KL9745               1AZ
102422003102422565-000043     102422006003000109562NOVELTY BALL FUNNY FACE0000001000+00001753+00000+0001T   00001753+0000001649          1400 KL9745               1AZ
102422004102422301-085001     102422006003000297610ORN WATERBALL LOVE ASST0000001000+00004823+00000+0001T   00004823+0000001649          1400 KL9505               1AZ
102422005102422903-000120     102422006002099001665SWEET GS ZILLIONS 50g  0000001000+00000700+00000+0001T   00000700+0000001649          1400 KL9150               1AZ
102422006102422903-000194     102422006009826020616SWT CHOC RP LOLLY 25G  0000001000+00001314+00000+0001T   00001314+0000001649          1400 KL9150               1AZ
102422007102422112-116038     102422006009681820246TCS CARRIER BAG MIDI   0000001000+00000035+00000+0001T   00000035+0000001649          1400 KL9090               1AZ
M17021391                              CASH        KXSLAVE 1                       Z-REPORT No.   639TOTAL (Sales - Refunds)           6838.92       CASH TO BE BANKED                 2589.70       DEBIT CARDS                          0.00       CREDIT CARDS                      4250.22       Z-READING                         6838.92       AIRTIME DEBIT CARD SALES             0.00       AIRTIME CARD SALES                   0.00       OVERS/UNDERS                         1.00       AIRTIME CASH SALES                   0.00       GIFT CARDS                           0.00       GIFT CARD CASH SALES                 0.00       T O T A L  CASH PAYOUTS              0.00                                                                                                                                                                                                                                                                                                                                                      Z
M17021392                              CASH        KXABSENT                                                                                                                                                                                          ANNUAL LEAVE                                                                                                                                                                                    DAY OFF                                                                                                                                                                                         COMMENTS                                                                                                                                                                                                                                                                                                                                                                                       Z
Y17021300                                          KX00000000600057+000069
ZKX17021320003 SLAVE 1      SALES DATA                     NEXT INVOICE NO.  102423 0639
X KX Slave 1 First invoice 102354 170213 Last invoice 102422 170213 Next invoice 102423 Total number of records 000000308 clbackup completed 20:00:21
