208842000208842               208842               170213KX     1400+00000+KX0000001752+0000001752+000000000+000000246+0000001990+0000000008+I20000000000+0000001990+Z
208842001208842077-000150-D   208842006003000054343GIFT-WRAP CELLPHANE CLR0000002000+00000876+00000+0001T   00000876+0000000910          1400 DE6112               2AZ
208843000208843               208843               170213KX     1400+00000+KX0000011973+0000011973+000000000+000001678+0000013651+0000000000+I40000013651+0000000000+Z
208843001208843566-001234     208843006003000217793STICKERS LASER ASSTD   0000002000+00001578+00000+0001T   00001578+0000000942          1400 DE6130               2AZ
208843002208843007-000323     208843006009697791042PAPER A4 80GSM 100'S   0000001000+00006139+00000+0001T   00006139+0000000942          1400 DE6130               2AZ
208843003208843007-000327     208843006009699513406PAPER A4 80GSM WHT 100 0000001000+00002630+00000+0001T   00002630+0000000942          1400 DE6130               2AZ
208843004208843112-116069     208843006009681820277TCS CARRIER BAG JUMBO  0000001000+00000048+00000+0001T   00000048+0000000942          1400 DE6090               2AZ
208844000208844               208844               170213KX     1400+00000+KX0000002240+0000002240+000000000+000000314+0000002554+0000000000+I40000002554+0000000000+Z
208844001208844080-000127     208844006003000424351VALENTINES DAY 36x24CM 0000001000+00002192+00000+0001T   00002192+0000000948          1400 DE6112               2AZ
208844002208844112-116069     208844006009681820277TCS CARRIER BAG JUMBO  0000001000+00000048+00000+0001T   00000048+0000000948          1400 DE6090               2AZ
208845000208845               208845               170213KX     1400+00000+KX0000012303+0000012303+000000000+000001724+0000014020+0000000007+I20000000000+0000014020+Z
208845001208845903-000120     208845006002099001665SWEET GS ZILLIONS 50g  0000001000+00000700+00000+0001T   00000700+0000000952          1400 DE6150               2AZ
208845002208845903-000087     208845006001704000161SWT SPECKLED-EGGS 50G  0000001000+00001139+00000+0001T   00001139+0000000952          1400 DE6150               2AZ
208845003208845903-000844     208845005010478432567SWT CANDY DL LUV HEARTS0000002000+00001314+00000+0001T   00001314+0000000952          1400 DE6150               2AZ
208845004208845080-000110     208845006003000237326CARD&ENVLPE BDAY-FUNNY 0000001000+00001753+00000+0001T   00001753+0000000952          1400 DE6112               2AZ
208845005208845077-000245     208845006001023759214GIFT-RIBBON METALLICx2 0000001000+00001227+00000+0001T   00001227+0000000952          1400 DE6112               2AZ
208845006208845263-000177     208845006001023826824RACER PULL BACK        0000001000+00003507+00000+0001T   00003507+0000000952          1400 DE6710               2AZ
208845007208845112-116038     208845006009681820246TCS CARRIER BAG MIDI   0000001000+00000035+00000+0001T   00000035+0000000952          1400 DE6090               2AZ
208845008208845903-000844     208845005010478432567SWT CANDY DL LUV HEARTS0000001000+00001314+00000+0001T   00001314+0000000952          1400 DE6150               2AZ
208846000208846               208846               170213KX     1400+00000+KX0000005262+0000005262+000000000+000000737+0000005990+0000000009+I20000000000+0000005990+Z
208846001208846018-019000     208846006003000557288MUG OCC. LOVE JUMBO    0000001000+00005262+00000+0001T   00005262+0000000953          1400 DE6515               2AZ
208847000208847               208847               170213KX     1400+00000+KX0000003891+0000003891+000000000+000000545+0000004430+0000000006+I20000000000+0000004430+Z
208847001208847018-000127     208847006001023380289MUG OCC STRAIGHT LOVE  0000002000+00001578+00000+0001T   00001753+0006471004          1400 DE6515               2AZ
208847002208847564-001029     208847006001023690821BUBBLE WEDDING DOVES   0000001000+00000700+00000+0001T   00000700+0000001004          1400 DE6131               2AZ
208847003208847112-116038     208847006009681820246TCS CARRIER BAG MIDI   0000001000+00000035+00000+0001T   00000035+0000001004          1400 DE6090               2AZ
208848000208848               208848               170213KX     1400+00000+KX0000001753+0000001753+000000000+000000246+0000001990+0000000009+I20000000000+0000001990+Z
208848001208848051-002407     208848006003000452491SPRAYER TRIGGER 550ml  0000001000+00001753+00000+0001T   00001753+0000001006          1400 DE6820               2AZ
208849000208849               208849               170213KX     1400+00000+KX0000055363+0000055363+000000000+000007761+0000063124+0000000000+I40000063124+0000000000+Z
208849001208849001-000390     208849006001023679758TUMBLER GLS 2400ml WHIS0000014000+00000876+00000+0001T   00000876+0000001016          1400 DE6515               2AZ
208849002208849112-116069     208849006009681820277TCS CARRIER BAG JUMBO  0000001000+00000048+00000+0001T   00000048+0000001016          1400 DE6090               2AZ
208849003208849039-001023     208849006003000466337CANDLE TEA-LITE METALIC0000001000+00001753+00000+0001T   00001753+0000001016          1400 DE6510               2AZ
208849004208849039-000796     208849006001023617750CANDLES TEALITE BOX-8  0000003000+00004385+00000+0001T   00004385+0000001016          1400 DE6510               2AZ
208849005208849039-000794     208849006946859289958CANDLE T/LITE 3PC LED  0000004000+00004385+00000+0001T   00004385+0000001016          1400 DE6510               2AZ
208849006208849039-809490     208849006003000292806CANDLE IN-HLD FLOWER   0000004000+00002630+00000+0001T   00003069+0008171016          1400 DE6510               2AZ
208849008208849112-116069     208849006009681820277TCS CARRIER BAG JUMBO  0000001000+00000048+00000+0001T   00000048+0000001016          1400 DE6090               2AZ
208849009208849112-116038     208849006009681820246TCS CARRIER BAG MIDI   0000001000+00000035+00000+0001T   00000035+0000001016          1400 DE6090               2AZ
208850000208850               208850               170213KX     1400+00000+KX0000025918+0000025918+000000000+000003630+0000029548+0000000000+I40000029548+0000000000+Z
208850001208850018-000127     208850006001023380289MUG OCC STRAIGHT LOVE  0000001000+00001578+00000+0001T   00001753+0006471046          1400 DE6515               2AZ
208850002208850304-001204     208850006001023737984FLOWER OCC. TEDDY/ROSES0000001000+00001402+00000+0001T   00001490+0006471046          1400 DE6510               2AZ
208850003208850368-000614     208850006001023705808PLUSH LOVE 30cm        0000001000+00008771+00000+0001T   00008771+0000001046          1400 DE6745               2AZ
208850004208850368-000099     208850006001023680259PLUSH DOG 23cm ASSTD   0000001000+00008771+00000+0001T   00008771+0000001046          1400 DE6745               2AZ
208850005208850566-000359     208850006003000582709STICKER BOOK LOVE SPARK0000001000+00002192+00000+0001T   00002192+0000001046          1400 DE6130               2AZ
208850006208850077-000303     208850006001023593757GIFT-BAG PAPER MED     0000002000+00001578+00000+0001T   00001578+0000001046          1400 DE6112               2AZ
208850007208850112-116069     208850006009681820277TCS CARRIER BAG JUMBO  0000001000+00000048+00000+0001T   00000048+0000001046          1400 DE6090               2AZ
208851000208851               208851               170213KX     1400+00000+KX0000018283+0000018283+000000000+000002563+0000020846+0000000000+I40000020846+0000000000+Z
208851001208851112-116069     208851006009681820277TCS CARRIER BAG JUMBO  0000001000+00000048+00000+0001T   00000048+0000001053          1400 DE6090               2AZ
208851002208851039-000799     208851006001023692382CANDLES TEALITE 100PCE 0000001000+00008771+00000+0001T   00008771+0000001053          1400 DE6510               2AZ
208851003208851200-000065     208851006001023323675DRINKING-STRAWS 38PCE  0000004000+00000613+00000+0001T   00000613+0000001053          1400 DE6214               2AZ
208851004208851088-000084     208851006001023798060P/POURRI 120G ASSTD    0000004000+00001753+00000+0001T   00001753+0000001053          1400 DE6212               2AZ
208852000208852               208852               170213KX     1400+00000+KX0000019247+0000019247+000000000+000002700+0000021947+0000000000+I40000021947+0000000000+Z
208852001208852112-116069     208852006009681820277TCS CARRIER BAG JUMBO  0000001000+00000048+00000+0001T   00000048+0000001056          1400 DE6090               2AZ
208852002208852024-000116     208852006001023422286N/STICK C/PAN SQUARE   0000001000+00004823+00000+0001T   00004823+0000001056          1400 DE6300               2AZ
208852003208852079-000514     208852009556341898321CRAYONS WAX 24-COLOUR  0000001000+00002630+00000+0001T   00002630+0000001056          1400 DE6130               2AZ
208852004208852567-014133     208852006003000560103BOOK COLOURING 48 PAGE 0000002000+00001490+00000+0001T   00001490+0000001056          1400 DE6757               2AZ
208852005208852077-000005-D   208852006003000414567PAPER TISSUE 50x70cm   0000001000+00001753+00000+0001T   00001753+0000001056          1400 DE6112               2AZ
208852006208852077-000115-B   208852006003000181025GIFT-WRAP PPR 700MMX2M 0000002000+00002630+00000+0001T   00002630+0000001056          1400 DE6112               2AZ
208852007208852077-000308     208852006001023595812GIFT-BAG 33X45CM E/DAY 0000001000+00001753+00000+0001T   00001753+0000001056          1400 DE6112               2AZ
208853000208853               208853               170213KX     1400+00000+KX0000002192+0000002192+000000000+000000307+0000002490+0000000009+I20000000000+0000002490+Z
208853001208853200-000020     208853006925406841030BAG ZIPPERSEAL 25PC    0000001000+00002192+00000+0001T   00002192+0000001057          1400 DE6214               2AZ
208854000208854               208854               170213KX     1400+00000+KX0000001578+0000001578+000000000+000000221+0000001790+0000000009+I20000000000+0000001790+Z
208854001208854077-000303     208854006001023593757GIFT-BAG PAPER MED     0000001000+00001578+00000+0001T   00001578+0000001058          1400 DE6112               2AZ
208855000208855               208855               170213KX     1400+00000+KX0000014469+0000014469+000000000+000002028+0000016497+0000000000+I40000016497+0000000000+Z
208855001208855267-000410     208855005011874004624PUZZLE 4-IN-1 MINI ASST0000001000+00007016+00000+0001T   00007016+0000001118          1400 DE6755               2AZ
208855002208855562-002007     208855006003000228188LEARNING EDU ALPHABET  0000001000+00007016+00000+0001T   00007016+0000001118          1400 DE6755               2AZ
208855003208855080-000133     208855006003000535613CARD&ENV MINI ASTD DSGN0000001000+00000437+00000+0001T   00000437+0000001118          1400 DE6112               2AZ
208856000208856               208856               170213KX     1400+00000+KX0000004385+0000004385+000000000+000000614+0000004999+0000000000+I40000004999+0000000000+Z
208856001208856368-000049     208856006003000536955PLUSH BEAR 15cm LOVE   0000001000+00004385+00000+0001T   00004385+0000001120          1400 DE6745               2AZ
208857000208857               208857               170213KX     1400+00000+KX0000005295+0000005295+000000000+000000742+0000006037+0000000000+I40000006037+0000000000+Z
208857001208857267-000310     208857006003000163090PUZZLE WOOD TRAY ASSTD 0000001000+00001753+00000+0001T   00001753+0000001151          1400 DE6755               2AZ
208857002208857267-000311     208857006003000610730PUZZLE WOOD TRAY ASSTD 0000001000+00003507+00000+0001T   00003507+0000001151          1400 DE6755               2AZ
208857003208857112-116038     208857006009681820246TCS CARRIER BAG MIDI   0000001000+00000035+00000+0001T   00000035+0000001151          1400 DE6090               2AZ
208858000208858               208858               170213KX     1400+00000+KX0000000876+0000000876+000000000+000000123+0000000990+0000000009+I20000000000+0000000990+Z
208858001208858007-000235     208858006003000134434LABELS RECTANGULAR 60pc0000001000+00000876+00000+0001T   00000876+0000001201          1400 DE6130               2AZ
208859000208859               208859               170213KX     1400+00000+KX0000000868-0000000868-000000000+000000122-0000000990-0000000000+I20000000000+0000000990-Z
208859001208859001-999906     208859000000000999906STATIONERY(PHOTOCOPIES)0000001000-00000868+00000+0001T   00000000+0000001202          1400 DE69061IC            2 Z
208860000208860               208860               170213KX     1400+00000+KX0000003506+0000003506+000000000+000000492+0000003998+0000000000+I40000003998+0000000000+Z
208860001208860036-000610     208860006001023627230WASHING-PEGS PL PACK-240000002000+00001753+00000+0001T   00001753+0000001205          1400 DE6212               2AZ
208861000208861               208861               170213KX     1400+00000+KX0000010393+0000010393+000000000+000001456+0000011840+0000000009+I20000000000+0000011840+Z
208861001208861077-000373     208861006003000395217G/BAG MED 18X23CM DESGN0000001000+00001753+00000+0001T   00001753+0000001208          1400 DE6112               2AZ
208861002208861077-000386     208861006003000275489G/BAG POP UP 18x23CM   0000001000+00001578+00000+0001T   00001578+0000001208          1400 DE6112               2AZ
208861003208861018-000136     208861006001023659026MUG OCC LOVE W/PLUSH   0000002000+00003507+00000+0001T   00003507+0000001208          1400 DE6515               2AZ
208861004208861112-116069     208861006009681820277TCS CARRIER BAG JUMBO  0000001000+00000048+00000+0001T   00000048+0000001208          1400 DE6090               2AZ
208862000208862               208862               170213KX     1400+00000+KX0000001523+0000001523+000000000+000000214+0000001730+0000000007+I20000000000+0000001730+Z
208862001208862903-000843     208862008693029031067SWT GUMMY JELAXY 80G   0000001000+00000964+00000+0001T   00000964+0000001216          1400 DE6150               2AZ
208862002208862903-000216     208862006925925900966SWT MALLOW TWIST ERKO  0000002000+00000262+00000+0001T   00000262+0000001216          1400 DE6150               2AZ
208862003208862112-116038     208862006009681820246TCS CARRIER BAG MIDI   0000001000+00000035+00000+0001T   00000035+0000001216          1400 DE6090               2AZ
208863000208863               208863               170213KX     1400+00000+KX0000001051+0000001051+000000000+000000148+0000001199+0000000000+I40000001199+0000000000+Z
208863001208863903-002890     208863008935001721352MENTOS GUM PURE F/MINT 0000001000+00001051+00000+0001T   00001051+0000001218          1400 DE6150               2AZ
208864000208864               208864               170213KX     1400+00000+KX0000006489+0000006489+000000000+000000909+0000007398+0000000000+I40000007398+0000000000+Z
208864001208864077-000245     208864006001023759214GIFT-RIBBON METALLICx2 0000001000+00001227+00000+0001T   00001227+0000001220          1400 DE6112               2AZ
208864002208864566-000047     208864006003000159093SCRAPBOOK 100xSHEETS   0000001000+00005262+00000+0001T   00005262+0000001220          1400 DE6130               2AZ
208865000208865               208865               170213KX     1400+00000+KX0000002364+0000002364+000000000+000000333+0000002690+0000000007+I20000000000+0000002690+Z
208865001208865903-000200     208865006009826020234SWT CHOC RP CHOCO 23G  0000003000+00000788+00000+0001T   00000788+0000001223          1400 DE6150               2AZ
208866000208866               208866               170213KX     1400+00000+KX0000002630+0000002630+000000000+000000369+0000002999+0000000000+I40000002999+0000000000+Z
208866001208866077-000270     208866006003000395453GIFT-BAG PPR JMB 33X45 0000001000+00002630+00000+0001T   00002630+0000001227          1400 DE6112               2AZ
208867000208867               208867               170213KX     1400+00000+KX0000008819+0000008819+000000000+000001235+0000010050+0000000004+I20000000000+0000010050+Z
208867001208867019-000040     208867006001023673640VASE GLS 30CM CYLINDER 0000001000+00008771+00000+0001T   00008771+0000001228          1400 DE6510               2AZ
208867002208867112-116069     208867006009681820277TCS CARRIER BAG JUMBO  0000001000+00000048+00000+0001T   00000048+0000001228          1400 DE6090               2AZ
208868000208868               208868               170213KX     1400+00000+KX0000008770+0000008770+000000000+000001228+0000009998+0000000000+I40000009998+0000000000+Z
208868001208868009-001712     208868006001023807823MELAMINE TRAY RECT DSGN0000001000+00004385+00000+0001T   00004385+0000001335          1400 DE6210               2AZ
208868002208868104-000053     208868006003000011193BASKET PL 25X32X6cm    0000001000+00004385+00000+0001T   00004385+0000001335          1400 DE6210               2AZ
208869000208869               208869               170213KX     1400+00000+KX0000000437+0000000437+000000000+000000062+0000000490+0000000009+I20000000000+0000000490+Z
208869001208869080-000133-A   208869006003000647019MINI VALENTINES CARD   0000001000+00000437+00000+0001T   00000437+0000001343          1400 DE6112               2AZ
208870000208870               208870               170213KX     1400+00000+KX0000001753+0000001753+000000000+000000246+0000001990+0000000009+I20000000000+0000001990+Z
208870001208870077-000902     208870006003000410569G/WRAP 700mmx1m BBY/KID0000001000+00001753+00000+0001T   00001753+0000001345          1400 DE6112               2AZ
208871000208871               208871               170213KX     1400+00000+KX0000001578+0000001578+000000000+000000221+0000001799+0000000000+I40000001799+0000000000+Z
208871001208871080-000124     208871006003000297733CARD & ENV VALENTINES  0000001000+00001578+00000+0001T   00001578+0000001347          1400 DE6112               2AZ
208872000208872               208872               170213KX     1400+00000+KX0000002630+0000002630+000000000+000000369+0000002990+0000000009+I20000000000+0000002990+Z
208872001208872051-004036     208872006003000624324PLANT-TIES PL/WIRE 3x100000001000+00002630+00000+0001T   00002630+0000001350          1400 DE6820               2AZ
208873000208873               208873               170213KX     1400+00000+KX0000006174+0000006174+000000000+000000865+0000007030+0000000009+I20000000000+0000007030+Z
208873001208873039-000798     208873006001023617774CANDLES TEALITE BOX-50 0000001000+00006139+00000+0001T   00006139+0000001352          1400 DE6510               2AZ
208873002208873112-116038     208873006009681820246TCS CARRIER BAG MIDI   0000001000+00000035+00000+0001T   00000035+0000001352          1400 DE6090               2AZ
208874000208874               208874               170213KX     1400+00000+KX0000008330+0000008330+000000000+000001167+0000009497+0000000000+I40000009497+0000000000+Z
208874001208874368-000049     208874006003000536955PLUSH BEAR 15cm LOVE   0000001000+00004385+00000+0001T   00004385+0000001354          1400 DE6745               2AZ
208874002208874080-000127     208874006003000424351VALENTINES DAY 36x24CM 0000001000+00002192+00000+0001T   00002192+0000001354          1400 DE6112               2AZ
208874003208874077-000299-A   208874006003000670888GIFT-BAG PAPER JMB LOVE0000001000+00001753+00000+0001T   00001753+0000001354          1400 DE6112               2AZ
208875000208875               208875               170213KX     1400+00000+KX0000005262+0000005262+000000000+000000737+0000005999+0000000000+I40000005999+0000000000+Z
208875001208875107-004510     208875006002580008968STEP-STOOL PL          0000001000+00005262+00000+0001T   00005262+0000001355          1400 DE6210               2AZ
208876000208876               208876               170213KX     1400+00000+KX0000017539+0000017539+000000000+000002458+0000019997+0000000000+I40000019997+0000000000+Z
208876001208876077-000299-A   208876006003000670888GIFT-BAG PAPER JMB LOVE0000001000+00001753+00000+0001T   00001753+0000001404          1400 DE6112               2AZ
208876002208876264-025205     208876006003000642120MAISTO DINKY 4x4 REBELS0000002000+00007893+00000+0001T   00007893+0000001404          1400 DE6710               2AZ
208877000208877               208877               170213KX     1400+00000+KX0000018847+0000018847+000000000+000002643+0000021490+0000000000+I40000021490+0000000000+Z
208877001208877467-000005     208877006001023584472NET FISHING 45-50 SHORT0000007000+00001753+00000+0001T   00001753+0000001406          1400 DE6785               2AZ
208877002208877467-000004     208877006001023347596NET FISHING 100cm LONG 0000003000+00002192+00000+0001T   00002192+0000001406          1400 DE6785               2AZ
208878000208878               208878               170213KX     1400+00000+KX0000005170+0000005170+000000000+000000726+0000005896+0000000000+I40000005896+0000000000+Z
208878001208878903-000137     208878006002099004130SWEET GS JELLY BEAN 60G0000001000+00000788+00000+0001T   00000788+0000001408          1400 DE6150               2AZ
208878002208878039-000323     208878006001023524171BIRTHDAY-CANDLES 24PCE 0000001000+00000876+00000+0001T   00000876+0000001408          1400 DE6510               2AZ
208878003208878079-013099     208878006003000081875ART+CRAFT EYES ASSTD   0000001000+00001753+00000+0001T   00001753+0000001408          1400 DE6130               2AZ
208878004208878565-000002     208878006003000308071NOVELTY GROWING ANIMALS0000001000+00001753+00000+0001T   00001753+0000001408          1400 DE6745               2AZ
208879000208879               208879               170213KX     1400+00000+KX0000007892+0000007892+000000000+000001105+0000008990+0000000007+I20000000000+0000008990+Z
208879001208879029-000009     208879006001023809575BUCKET GALV  2L        0000001000+00004385+00000+0001T   00004385+0000001414          1400 DE6510               2AZ
208879002208879162-092944     208879006001492929446SS 3PK KIDS H/BANDS    0000001000+00003507+00000+0001T   00003507+0000001414          1400 DE6160               2AZ
208880000208880               208880               170213KX     1400+00000+KX0000021096+0000021096+000000000+000002955+0000024050+0000000001+I20000000000+0000024050+Z
208880001208880079-000275     208880006003000160488PAINT-BRUSHES 6PCE PRO 0000002000+00001753+00000+0001T   00001753+0000001424          1400 DE6130               2AZ
208880002208880079-000198     208880006003000542475ART+CRAFT SET 66PCE    0000002000+00008771+00000+0001T   00008771+0000001424          1400 DE6130               2AZ
208880003208880112-116069     208880006009681820277TCS CARRIER BAG JUMBO  0000001000+00000048+00000+0001T   00000048+0000001424          1400 DE6090               2AZ
208881000208881               208881               170213KX     1400+00000+KX0000003243+0000003243+000000000+000000455+0000003698+0000000000+I40000003698+0000000000+Z
208881001208881039-001023     208881006003000466337CANDLE TEA-LITE METALIC0000001000+00001753+00000+0001T   00001753+0000001428          1400 DE6510               2AZ
208881002208881077-000299     208881006003000395576G/BAG 32x25cm LRG LOVE 0000001000+00001490+00000+0001T   00001490+0000001428          1400 DE6112               2AZ
208882000208882               208882               170213KX     1400+00000+KX0000006174+0000006174+000000000+000000865+0000007039+0000000000+I40000007039+0000000000+Z
208882001208882112-116038     208882006009681820246TCS CARRIER BAG MIDI   0000001000+00000035+00000+0001T   00000035+0000001434          1400 DE6090               2AZ
208882002208882018-050000     208882006003000412679MUG OCC LOVE TWIN BEAR 0000001000+00006139+00000+0001T   00006139+0000001434          1400 DE6515               2AZ
208883000208883               208883               170213KX     1400+00000+KX0000003237+0000003237+000000000+000000456+0000003693+0000000000+I40000003693+0000000000+Z
208883001208883077-000311     208883006001023608666GIFT-BAG 11X14CM GLOSS 0000001000+00000613+00000+0001T   00000613+0000001439          1400 DE6112               2AZ
208883002208883077-000321     208883006001023677501GIFT-BAG 11X14CM E/D FL0000001000+00000613+00000+0001T   00000613+0000001439          1400 DE6112               2AZ
208883003208883077-000311     208883006001023608666GIFT-BAG 11X14CM GLOSS 0000001000+00000613+00000+0001T   00000613+0000001439          1400 DE6112               2AZ
208883004208883903-000094     208883006923431501622SWT GS CANDY NECKLACE  0000002000+00000437+00000+0001T   00000437+0000001439          1400 DE6150               2AZ
208883005208883903-000216     208883006925925900966SWT MALLOW TWIST ERKO  0000002000+00000262+00000+0001T   00000262+0000001439          1400 DE6150               2AZ
208884000208884               208884               170213KX     1400+00000+KX0000009646+0000009646+000000000+000001351+0000010997+0000000000+I40000010997+0000000000+Z
208884001208884107-004510     208884006002580008968STEP-STOOL PL          0000001000+00005262+00000+0001T   00005262+0000001441          1400 DE6210               2AZ
208884002208884016-006517     208884006003000351626S/JAR GLS CHECK 650ML  0000002000+00002192+00000+0001T   00002192+0000001441          1400 DE6300               2AZ
208885000208885               208885               170213KX     1400+00000+KX0000003506+0000003506+000000000+000000492+0000003990+0000000008+I20000000000+0000003990+Z
208885001208885077-000290     208885006001023902023GIFT BOX 26x32x13cm    0000002000+00001753+00000+0001T   00001753+0000001452          1400 DE6112               2AZ
208886000208886               208886               170213KX     1400+00000+KX0000013376+0000013376+000000000+000001874+0000015250+0000000000+I40000015250+0000000000+Z
208886001208886030-000031-A   208886006003000457588PLAQUE W/WORDS ASSTD   0000001000+00004385+00000+0001T   00004823+0006471458          1400 DE6505               2AZ
208886002208886080-000124     208886006003000297733CARD & ENV VALENTINES  0000001000+00001578+00000+0001T   00001578+0000001458          1400 DE6112               2AZ
208886003208886368-000053     208886006003000633449PLUSH BEAR 15.5cm MUM  0000001000+00005262+00000+0001T   00005262+0000001458          1400 DE6745               2AZ
208886004208886077-000315     208886006003000181186GIFT-BAG 20x28cm MATT  0000001000+00001578+00000+0001T   00001578+0000001458          1400 DE6112               2AZ
208886005208886903-000077     208886006939873501687SWT GS MAGIC ROCK FRUIT0000001000+00000525+00000+0001T   00000525+0000001458          1400 DE6150               2AZ
208886006208886112-116069     208886006009681820277TCS CARRIER BAG JUMBO  0000001000+00000048+00000+0001T   00000048+0000001458          1400 DE6090               2AZ
208887000208887               208887               170213KX     1400+00000+KX0000011048+0000011048+000000000+000001548+0000012596+0000000000+I40000012596+0000000000+Z
208887001208887082-000100     208887006003000360246READING GLS STRENGHT:1 0000002000+00004385+00000+0001T   00004385+0000001501          1400 DE6160               2AZ
208887002208887903-000087     208887006001704000161SWT SPECKLED-EGGS 50G  0000002000+00001139+00000+0001T   00001139+0000001501          1400 DE6150               2AZ
208888000208888               208888               170213KX     1400+00000+KX0000008591+0000008591+000000000+000001204+0000009790+0000000005+I20000000000+0000009790+Z
208888001208888564-000012     208888006001023130075BUBBLE BOTTLE MAGIC    0000001000+00000700+00000+0001T   00000700+0000001507          1400 DE6131               2AZ
208888002208888267-000310     208888006003000163090PUZZLE WOOD TRAY ASSTD 0000001000+00001753+00000+0001T   00001753+0000001507          1400 DE6755               2AZ
208888003208888079-130010     208888006003000496624ART+CRAFT FOAM DOLLS   0000001000+00004385+00000+0001T   00004385+0000001507          1400 DE6130               2AZ
208888004208888566-000007     208888006001023761187S/BOOK SUPER VALUE     0000001000+00001753+00000+0001T   00001753+0000001507          1400 DE6130               2AZ
208889000208889               208889               170213KX     1400+00000+KX0000003507+0000003507+000000000+000000491+0000003990+0000000008+I20000000000+0000003990+Z
208889001208889018-005009     208889006001023725608MUG W/PLUSH-BEAR LOVE  0000001000+00003507+00000+0001T   00003507+0000001519          1400 DE6515               2AZ
208890000208890               208890               170213KX     1400+00000+KX0000020775+0000020775+000000000+000002925+0000023700+0000000000+I40000023700+0000000000+Z
208890001208890006-000170-A   208890006003000608065BALLOONS 1PC PINK      0000025000+00000218+00000+0001T   00000218+0000001522          1400 DE6131               2AZ
208890002208890006-001000     208890006003000093779HELIUM BALLOON FILL    0000025000+00000613+00000+0001T   00000613+0000001522          1400 DE6131               2AZ
208891000208891               208891               170213KX     1400+00000+KX0000005169+0000005169+000000000+000000726+0000005890+0000000005+I20000000000+0000005890+Z
208891001208891903-000897     208891008692806325207SWT CHOC DBL MINI ROLL 0000001000+00000876+00000+0001T   00000876+0000001535          1400 DE6150               2AZ
208891002208891903-002850     208891000000087108262MENTOS ROLL FRUIT      0000001000+00001051+00000+0001T   00001051+0000001535          1400 DE6150               2AZ
208891003208891903-000087     208891006001704000161SWT SPECKLED-EGGS 50G  0000001000+00001139+00000+0001T   00001139+0000001535          1400 DE6150               2AZ
208891004208891903-000295     208891006001704002899SWT MS FRUITY RASCALS  0000001000+00000876+00000+0001T   00000876+0000001535          1400 DE6150               2AZ
208891005208891903-000517     208891006001704012768SWT STRAWS FIZZY CHERRY0000001000+00001227+00000+0001T   00001227+0000001535          1400 DE6150               2AZ
208892000208892               208892               170213KX     1400+00000+KX0000002980+0000002980+000000000+000000418+0000003390+0000000008+I20000000000+0000003390+Z
208892001208892565-004101     208892006003000548033BALL BOUNCING EGG      0000002000+00001490+00000+0001T   00001490+0000001536          1400 DE6745               2AZ
208893000208893               208893               170213KX     1400+00000+KX0000001578+0000001578+000000000+000000221+0000001790+0000000009+I20000000000+0000001790+Z
208893001208893080-000124     208893006003000297733CARD & ENV VALENTINES  0000001000+00001578+00000+0001T   00001578+0000001538          1400 DE6112               2AZ
208894000208894               208894               170213KX     1400+00000+KX0000001139+0000001139+000000000+000000160+0000001290+0000000009+I20000000000+0000001290+Z
208894001208894466-000517     208894006001023752017BALL TENNIS RED CRICKET0000001000+00001139+00000+0001T   00001139+0000001542          1400 DE6785               2AZ
208895000208895               208895               170213KX     1400+00000+KX0000001664+0000001664+000000000+000000234+0000001890+0000000008+I20000000000+0000001890+Z
208895001208895077-000011-D   208895006001023808554TISSUE-WRAP WHITE 10PCE0000001000+00000876+00000+0001T   00000876+0000001547          1400 DE6112               2AZ
208895002208895077-000010-C   208895006001023123879CREPE-PAPER RED        0000001000+00000788+00000+0001T   00000788+0000001547          1400 DE6112               2AZ
208896000208896               208896               170213KX     1400+00000+KX0000000876+0000000876+000000000+000000123+0000000990+0000000009+I20000000000+0000000990+Z
208896001208896077-000011-C   208896006001023808523TISSUE 10xSHTS RED     0000001000+00000876+00000+0001T   00000876+0000001547          1400 DE6112               2AZ
208897000208897               208897               170213KX     1400+00000+KX0000002493+0000002493+000000000+000000351+0000002840+0000000004+I20000000000+0000002840+Z
208897001208897006-000171-C   208897006003000609178BALLOONS 1PC D/GRN PRNT0000001000+00000218+00000+0001T   00000218+0000001550          1400 DE6131               2AZ
208897002208897006-000171-D   208897006003000609291BALLOONS 1PC ORANGE PRN0000001000+00000218+00000+0001T   00000218+0000001550          1400 DE6131               2AZ
208897003208897006-000171-G   208897006003000609529BALLOONS 1PC YELLOW PRN0000001000+00000218+00000+0001T   00000218+0000001550          1400 DE6131               2AZ
208897004208897006-001000     208897006003000093779HELIUM BALLOON FILL    0000003000+00000613+00000+0001T   00000613+0000001550          1400 DE6131               2AZ
208898000208898               208898               170213KX     1400+00000+KX0000007893+0000007893+000000000+000001106+0000008990+0000000009+I20000000000+0000008990+Z
208898001208898365-000008     208898006003000166183P/SET DOCTOR SET W/CASE0000001000+00007893+00000+0001T   00007893+0000001552          1400 DE6725               2AZ
208899000208899               208899               170213KX     1400+00000+KX0000001227+0000001227+000000000+000000172+0000001390+0000000009+I20000000000+0000001390+Z
208899001208899077-000245     208899006001023759214GIFT-RIBBON METALLICx2 0000001000+00001227+00000+0001T   00001227+0000001553          1400 DE6112               2AZ
208900000208900               208900               170213KX     1400+00000+KX0000007749+0000007749+000000000+000001087+0000008836+0000000000+I40000008836+0000000000+Z
208900001208900077-000922     208900006003000413935G/WRAP 700mmx2m FLOWER 0000001000+00002192+00000+0001T   00002192+0000001556          1400 DE6112               2AZ
208900002208900080-000100     208900006003000236114CARD & ENVELOPE BDAY   0000001000+00001753+00000+0001T   00001753+0000001556          1400 DE6112               2AZ
208900003208900039-000322     208900006001023524157B/CANDLES W/HOLDERS 24 0000001000+00001139+00000+0001T   00001139+0000001556          1400 DE6510               2AZ
208900004208900039-000337     208900006001023669810B'DAY-CANDLES MUSICAL  0000001000+00002630+00000+0001T   00002630+0000001556          1400 DE6510               2AZ
208900005208900112-116038     208900006009681820246TCS CARRIER BAG MIDI   0000001000+00000035+00000+0001T   00000035+0000001556          1400 DE6090               2AZ
208901000208901               208901               170213KX     1400+00000+KX0000012978+0000012978+000000000+000001818+0000014796+0000000000+I40000014796+0000000000+Z
208901001208901564-000012     208901006001023130075BUBBLE BOTTLE MAGIC    0000001000+00000700+00000+0001T   00000700+0000001558          1400 DE6131               2AZ
208901002208901082-007583     208901006003000465842SUNGLASSES POLARIZE    0000001000+00007893+00000+0001T   00007893+0000001558          1400 DE6160               2AZ
208901003208901082-007585     208901006003000654093SUNGLASS DESIGNER ASST 0000001000+00004385+00000+0001T   00004385+0000001558          1400 DE6160               2AZ
208902000208902               208902               170213KX     1400+00000+KX0000002628+0000002628+000000000+000000368+0000002990+0000000006+I20000000000+0000002990+Z
208902001208902903-000194     208902006009826020616SWT CHOC RP LOLLY 25G  0000002000+00001314+00000+0001T   00001314+0000001601          1400 DE6150               2AZ
208903000208903               208903               170213KX     1400+00000+KX0000006139+0000006139+000000000+000000860+0000006990+0000000009+I20000000000+0000006990+Z
208903001208903133-046633     208903009300601747023TABLECLOTH VINYL ASSTD 0000001000+00006139+00000+0001T   00006139+0000001602          1400 DE6212               2AZ
208904000208904               208904               170213KX     1400+00000+KX0000001753+0000001753+000000000+000000246+0000001990+0000000009+I20000000000+0000001990+Z
208904001208904566-000007     208904006001023761187S/BOOK SUPER VALUE     0000001000+00001753+00000+0001T   00001753+0000001604          1400 DE6130               2AZ
208905000208905               208905               170213KX     1400+00000+KX0000007183+0000007183+000000000+000001008+0000008191+0000000000+I40000008191+0000000000+Z
208905001208905077-000010-C   208905006001023123879CREPE-PAPER RED        0000001000+00000788+00000+0001T   00000788+0000001606          1400 DE6112               2AZ
208905002208905077-000380     208905006003000247585GIFT-BAG 33X45CM S/COL 0000001000+00002455+00000+0001T   00002455+0000001606          1400 DE6112               2AZ
208905003208905079-009700-B   208905006003000547661PAPER SIRIO A4 WHITE   0000002000+00000306+00000+0001T   00000306+0000001606          1400 DE6130               2AZ
208905004208905079-009700-D   208905006003000545711PAPER SIRIO A4 RED COL.0000002000+00000306+00000+0001T   00000306+0000001606          1400 DE6130               2AZ
208905005208905079-009700-A   208905006003000547746PAPER SIRIO A4 BLACK   0000002000+00000306+00000+0001T   00000306+0000001606          1400 DE6130               2AZ
208905006208905903-000095     208905006001704011495SWT SPECKLED-EGGS 100G 0000001000+00002104+00000+0001T   00002104+0000001606          1400 DE6150               2AZ
208906000208906               208906               170213KX     1400+00000+KX0000000876+0000000876+000000000+000000123+0000000990+0000000009+I20000000000+0000000990+Z
208906001208906077-000150-D   208906006003000054343GIFT-WRAP CELLPHANE CLR0000001000+00000876+00000+0001T   00000876+0000001607          1400 DE6112               2AZ
208907000208907               208907               170213KX     1400+00000+KX0000002892+0000002892+000000000+000000405+0000003290+0000000007+I20000000000+0000003290+Z
208907001208907018-000127     208907006001023380289MUG OCC STRAIGHT LOVE  0000001000+00001578+00000+0001T   00001753+0006471621          1400 DE6515               2AZ
208907002208907903-000194     208907006009826020616SWT CHOC RP LOLLY 25G  0000001000+00001314+00000+0001T   00001314+0000001621          1400 DE6150               2AZ
208908000208908               208908               170213KX     1400+00000+KX0000028522+0000028522+000000000+000004005+0000032527+0000000000+I40000032527+0000000000+Z
208908001208908564-001028     208908006001023708663BUBBLE CELEBRATION 6ml 0000001000+00003069+00000+0001T   00003069+0000001630          1400 DE6131               2AZ
208908002208908206-000620     208908006003000631797BACK SCRATCHER EXTEND  0000002000+00002630+00000+0001T   00002630+0000001630          1400 DE6321               2AZ
208908003208908079-130010     208908006003000496624ART+CRAFT FOAM DOLLS   0000002000+00004385+00000+0001T   00004385+0000001630          1400 DE6130               2AZ
208908004208908564-001029     208908006001023690821BUBBLE WEDDING DOVES   0000002000+00000700+00000+0001T   00000700+0000001630          1400 DE6131               2AZ
208908005208908112-116069     208908006009681820277TCS CARRIER BAG JUMBO  0000001000+00000048+00000+0001T   00000048+0000001630          1400 DE6090               2AZ
208908006208908903-000077     208908006939873501687SWT GS MAGIC ROCK FRUIT0000019000+00000525+00000+0001T   00000525+0000001630          1400 DE6150               2AZ
208909000208909               208909               170213KX     1400+00000+KX0000001490+0000001490+000000000+000000209+0000001690+0000000009+I20000000000+0000001690+Z
208909001208909071-000873     208909006001023758743RUB-BANDS CLR BAG-100  0000001000+00001490+00000+0001T   00001490+0000001633          1400 DE6130               2AZ
208910000208910               208910               170213KX     1400+00000+KX0000008771+0000008771+000000000+000001228+0000009990+0000000009+I20000000000+0000009990+Z
208910001208910001-091415     208910006003000329113W/GLS OCC. LOVE 2PC 2800000001000+00008771+00000+0001T   00009648+0006471633          1400 DE6515               2AZ
208911000208911               208911               170213KX     1400+00000+KX0000003507+0000003507+000000000+000000491+0000003998+0000000000+I40000003998+0000000000+Z
208911001208911072-020266     208911006003000400591PET PUPPY TRAINING PAD 0000001000+00003507+00000+0001T   00003507+0000001636          1400 DE6870               2AZ
208912000208912               208912               170213KX     1400+00000+KX0000001227+0000001227+000000000+000000172+0000001390+0000000009+I20000000000+0000001390+Z
208912001208912903-004951     208912006002580020328SWT MALLOW MINI M/SHAKE0000001000+00001227+00000+0001T   00001227+0000001637          1400 DE6150               2AZ
208913000208913               208913               170213KX     1400+00000+KX0000005259+0000005259+000000000+000000737+0000005996+0000000000+I40000005996+0000000000+Z
208913001208913036-000606     208913006003000322213WASHING PEGS PACK 20   0000002000+00000876+00000+0001T   00001314+0008191639          1400 DE6212               2AZ
208913002208913038-001800     208913006003000623303DOILIE PAPER HRT 24PC  0000001000+00003507+00000+0001T   00003507+0000001639          1400 DE6300               2AZ
208914000208914               208914               170213KX     1400+00000+KX0000006137+0000006137+000000000+000000860+0000006990+0000000007+I20000000000+0000006990+Z
208914001208914077-000270     208914006003000395453GIFT-BAG PPR JMB 33X45 0000001000+00002630+00000+0001T   00002630+0000001645          1400 DE6112               2AZ
208914002208914018-000136     208914006001023659026MUG OCC LOVE W/PLUSH   0000001000+00003507+00000+0001T   00003507+0000001645          1400 DE6515               2AZ
208915000208915               208915               170213KX     1400+00000+KX0000009818+0000009818+000000000+000001376+0000011194+0000000000+I40000011194+0000000000+Z
208915001208915304-001204     208915006001023737984FLOWER OCC. TEDDY/ROSES0000002000+00001402+00000+0001T   00001490+0006471647          1400 DE6510               2AZ
208915002208915019-000500-A   208915006003000245161VASE CER INSPIRATIONS  0000002000+00003507+00000+0001T   00003507+0000001647          1400 DE6510               2AZ
208916000208916               208916               170213KX     1400+00000+KX0000003243+0000003243+000000000+000000455+0000003690+0000000008+I20000000000+0000003690+Z
208916001208916018-000128     208916006001023868978MUG OCCASIONS MESSAGES 0000001000+00002630+00000+0001T   00002630+0000001647          1400 DE6515               2AZ
208916002208916077-000321     208916006001023677501GIFT-BAG 11X14CM E/D FL0000001000+00000613+00000+0001T   00000613+0000001647          1400 DE6112               2AZ
208917000208917               208917               170213KX     1400+00000+KX0000014032+0000014032+000000000+000001966+0000015998+0000000000+I40000015998+0000000000+Z
208917001208917368-000637     208917006001023874092PLUSH BEAR SLEEPING LOV0000001000+00011402+00000+0001T   00012279+0006471651          1400 DE6745               2AZ
208917002208917077-000270     208917006003000395453GIFT-BAG PPR JMB 33X45 0000001000+00002630+00000+0001T   00002630+0000001651          1400 DE6112               2AZ
208918000208918               208918               170213KX     1400+00000+KX0000001753+0000001753+000000000+000000246+0000001990+0000000009+I20000000000+0000001990+Z
208918001208918078-000026     208918006936198407090SUPERGLUE 3,0g GEL     0000001000+00001753+00000+0001T   00001753+0000001652          1400 DE6810               2AZ
208919000208919               208919               170213KX     1400+00000+KX0000001226+0000001226+000000000+000000172+0000001390+0000000008+I20000000000+0000001390+Z
208919001208919304-001011     208919006001023806727FLWR ROSE RED W/BEAR   0000002000+00000613+00000+0001T   00000788+0006471704          1400 DE6510               2AZ
208920000208920               208920               170213KX     1400+00000+KX0000012326+0000012326+000000000+000001727+0000014053+0000000000+I40000014053+0000000000+Z
208920001208920018-019000     208920006003000557288MUG OCC. LOVE JUMBO    0000001000+00005262+00000+0001T   00005262+0000001707          1400 DE6515               2AZ
208920002208920016-007000     208920006003000233625EGG BASKET HEN SHAPE   0000001000+00007016+00000+0001T   00007016+0000001707          1400 DE6300               2AZ
208920003208920112-116069     208920006009681820277TCS CARRIER BAG JUMBO  0000001000+00000048+00000+0001T   00000048+0000001707          1400 DE6090               2AZ
208921000208921               208921               170213KX     1400+00000+KX0000004243+0000004243+000000000+000000595+0000004830+0000000008+I20000000000+0000004830+Z
208921001208921018-000129     208921006001023403353MUG OCC. LOVE V-SHAPE  0000001000+00002630+00000+0001T   00002630+0000001710          1400 DE6515               2AZ
208921002208921077-000303     208921006001023593757GIFT-BAG PAPER MED     0000001000+00001578+00000+0001T   00001578+0000001710          1400 DE6112               2AZ
208921003208921112-116038     208921006009681820246TCS CARRIER BAG MIDI   0000001000+00000035+00000+0001T   00000035+0000001710          1400 DE6090               2AZ
208922000208922               208922               170213KX     1400+00000+KX0000001578+0000001578+000000000+000000221+0000001790+0000000009+I20000000000+0000001790+Z
208922001208922080-000124     208922006003000297733CARD & ENV VALENTINES  0000001000+00001578+00000+0001T   00001578+0000001710          1400 DE6112               2AZ
208923000208923               208923               170213KX     1400+00000+KX0000006399+0000006399+000000000+000000896+0000007290+0000000005+I20000000000+0000007290+Z
208923001208923046-000012-A   208923006003000208296BATTERIES H/POWER SZ:AA0000001000+00002192+00000+0001T   00002192+0000001733          1400 DE6312               2AZ
208923002208923105-001000     208923006003000520275CONTAINER:CEREAL TO GO 0000001000+00003507+00000+0001T   00004823+0008161733          1400 DE6210               2AZ
208923003208923106-002110     208923006002580007312JUICE-BOTTLE JUMBO     0000001000+00000700+00000+0001T   00000700+0000001733          1400 DE6210               2AZ
208924000208924               208924               170213KX     1400+00000+KX0000017570+0000017570+000000000+000002460+0000020030+0000000000+I40000020030+0000000000+Z
208924001208924567-075490     208924009780799371260BK NOVEL ROMANCE AFR   0000001000+00003507+00000+0001T   00003507+0000001753          1400 DE6757               2AZ
208924002208924567-075490     208924009780799361315BK NOVEL ROMANCE AFR   0000004000+00003507+00000+0001T   00003507+0000001753          1400 DE6757               2AZ
208924003208924112-116038     208924006009681820246TCS CARRIER BAG MIDI   0000001000+00000035+00000+0001T   00000035+0000001753          1400 DE6090               2AZ
208925000208925               208925               170213KX     1400+00000+KX0000000262+0000000262+000000000+000000037+0000000290+0000000009+I20000000000+0000000290+Z
208925001208925903-000216     208925006925925900966SWT MALLOW TWIST ERKO  0000001000+00000262+00000+0001T   00000262+0000001754          1400 DE6150               2AZ
208926000208926               208926               170213KX     1400+00000+KX0000002192+0000002192+000000000+000000307+0000002490+0000000009+I20000000000+0000002490+Z
208926001208926200-000002     208926006925406821049BAG FLIP TOP 80PCE     0000001000+00002192+00000+0001T   00002192+0000001803          1400 DE6214               2AZ
208927000208927               208927               170213KX     1400+00000+KX0000000876+0000000876+000000000+000000123+0000000990+0000000009+I20000000000+0000000990+Z
208927001208927028-000797     208927006001023812124SKEWERS 15cm 100PCE    0000001000+00000876+00000+0001T   00000876+0000001807          1400 DE6305               2AZ
208928000208928               208928               170213KX     1400+00000+KX0000007062+0000007062+000000000+000000989+0000008051+0000000000+I40000008051+0000000000+Z
208928001208928018-000136     208928006001023659026MUG OCC LOVE W/PLUSH   0000002000+00003507+00000+0001T   00003507+0000001809          1400 DE6515               2AZ
208928002208928112-116069     208928006009681820277TCS CARRIER BAG JUMBO  0000001000+00000048+00000+0001T   00000048+0000001809          1400 DE6090               2AZ
A17021300                                          11495470KXSLAVE 2                       DE61IC
C20884900                                          170213KX112-116038     10135533SLAVE 2     DE63IC0000000000+0000000000+0070000001000+
M17021301                              IT          KXATT IT                                                                                          LAST SALE ON SLV 1=102422                                    SLV 2=208928                                    SLV 3=309175                                                                       THANK YOU BALLITO KX
M17021302                              CC          KXATT CASH CONTROL                                                                                BANKING FOR TODAY =R5898.50                                                                     THANK YOU BALLITO KX
M17021391                              CASH        KXSLAVE 2                       Z-REPORT No.   633TOTAL (Sales - Refunds)           7029.46       CASH TO BE BANKED                 2118.40       DEBIT CARDS                          0.00       CREDIT CARDS                      4901.16       Z-READING                         7019.56       AIRTIME DEBIT CARD SALES             0.00       AIRTIME CARD SALES                   0.00       OVERS/UNDERS                         0.00       AIRTIME CASH SALES                   0.00       GIFT CARDS                           0.00       GIFT CARD CASH SALES                 0.00       STATIONERY(PHOTOCOPIES)              9.90       T O T A L  CASH PAYOUTS              9.90                                                                                                                                                                                                                                                                                                      Z
M17021392                              CASH        KXABSENT                                                                                                                                                                                          ANNUAL LEAVE                                                                                                                                                                                    DAY OFF                                                                                                                                                                                         COMMENTS                                                                                                                                                                                                                                                                                                                                                                                       Z
Y17021300                                          KX00000000616846+000086
ZKX17021320003 SLAVE 2      SALES DATA                     NEXT INVOICE NO.  208929 0633
X KX Slave 2 First invoice 208842 170213 Last invoice 208928 170213 Next invoice 208929 Total number of records 000000296 clbackup completed 20:00:23
