309138000309138               309138               170213KX     1400+00000+KX0000002630+0000002630+000000000+000000369+0000002990+0000000009+I20000000000+0000002990+Z
309138001309138159-000040     309138006001023767691HOOK-HANGER 4PC S/S    0000001000+00002630+00000+0001T   00002630+0000001113          1400 PW8200               3AZ
309139000309139               309139               170213KX     1400+00000+KX0000013450+0000013450+000000000+000001885+0000015330+0000000005+I20000000000+0000015330+Z
309139001309139112-116038     309139006009681820246TCS CARRIER BAG MIDI   0000001000+00000035+00000+0001T   00000035+0000001302          1400 PW8090               3AZ
309139002309139368-000049     309139006003000536955PLUSH BEAR 15cm LOVE   0000001000+00004385+00000+0001T   00004385+0000001302          1400 PW8745               3AZ
309139003309139077-000303     309139006001023593757GIFT-BAG PAPER MED     0000001000+00001578+00000+0001T   00001578+0000001302          1400 PW8112               3AZ
309139004309139566-000359     309139006003000582709STICKER BOOK LOVE SPARK0000001000+00002192+00000+0001T   00002192+0000001302          1400 PW8130               3AZ
309139005309139079-013032-D   309139006003000389643RIBBONS                0000002000+00002630+00000+0001T   00002630+0000001302          1400 PW8130               3AZ
309140000309140               309140               170213KX     1400+00000+KX0000006610+0000006610+000000000+000000927+0000007530+0000000007+I20000000000+0000007530+Z
309140001309140112-116038     309140006009681820246TCS CARRIER BAG MIDI   0000001000+00000035+00000+0001T   00000035+0000001303          1400 PW8090               3AZ
309140002309140079-013032-B   309140006003000389445MIXED SHAPES           0000002000+00001753+00000+0001T   00001753+0000001303          1400 PW8130               3AZ
309140003309140079-013098     309140006003000197040ART+CRAFT SET DIY      0000001000+00003069+00000+0001T   00003069+0000001303          1400 PW8130               3AZ
309141000309141               309141               170213KX     1400+00000+KX0000013157+0000013157+000000000+000001842+0000014990+0000000009+I20000000000+0000014990+Z
309141001309141028-003602     309141006003000605224UMBRELLA-BEACH 200cm   0000001000+00013157+00000+0001T   00013157+0000001313          1400 PW8305               3AZ
309142000309142               309142               170213KX     1400+00000+KX0000004384+0000004384+000000000+000000614+0000004998+0000000000+I40000004998+0000000000+Z
309142001309142080-000127     309142006003000424351VALENTINES DAY 36x24CM 0000001000+00002192+00000+0001T   00002192+0000001329          1400 PW8112               3AZ
309142002309142566-000359     309142006003000582709STICKER BOOK LOVE SPARK0000001000+00002192+00000+0001T   00002192+0000001329          1400 PW8130               3AZ
309143000309143               309143               170213KX     1400+00000+KX0000007014+0000007014+000000000+000000982+0000007996+0000000000+I40000007996+0000000000+Z
309143001309143567-011523     309143006003000667031BK COLOURING THERAPY   0000002000+00003507+00000+0001T   00003507+0000001426          1400 PW8757               3AZ
309144000309144               309144               170213KX     1400+00000+KX0000003945+0000003945+000000000+000000553+0000004490+0000000008+I20000000000+0000004490+Z
309144001309144080-000116     309144006003000253555CARD&ENVELOPE-HANDMADE 0000001000+00001753+00000+0001T   00001753+0000001440          1400 PW8112               3AZ
309144002309144080-000127     309144006003000424351VALENTINES DAY 36x24CM 0000001000+00002192+00000+0001T   00002192+0000001440          1400 PW8112               3AZ
309145000309145               309145               170213KX     1400+00000+KX0000003331+0000003331+000000000+000000467+0000003790+0000000008+I20000000000+0000003790+Z
309145001309145566-001234     309145006003000217793STICKERS LASER ASSTD   0000001000+00001578+00000+0001T   00001578+0000001602          1400 PW8130               3AZ
309145002309145566-000309     309145006003000523283STICKER CHALK-BOARD    0000001000+00001753+00000+0001T   00001753+0000001602          1400 PW8130               3AZ
309146000309146               309146               170213KX     1400+00000+KX0000002192+0000002192+000000000+000000307+0000002499+0000000000+I40000002499+0000000000+Z
309146001309146080-000127     309146006003000424351VALENTINES DAY 36x24CM 0000001000+00002192+00000+0001T   00002192+0000001607          1400 PW8112               3AZ
309147000309147               309147               170213KX     1400+00000+KX0000003945+0000003945+000000000+000000553+0000004490+0000000008+I20000000000+0000004490+Z
309147001309147077-000299-A   309147006003000670888GIFT-BAG PAPER JMB LOVE0000001000+00001753+00000+0001T   00001753+0000001611          1400 PW8112               3AZ
309147002309147080-000127     309147006003000424351VALENTINES DAY 36x24CM 0000001000+00002192+00000+0001T   00002192+0000001611          1400 PW8112               3AZ
309148000309148               309148               170213KX     1400+00000+KX0000001755-0000001755-000000000+000000245-0000002000-0000000000+I20000000000+0000002000-Z
309148001309148486-002318     309148006003000228645WALL-CLOCK QUARTZ ROUND0000001000-00008771+00000+0001T   00008771+0000001614          1400 PW85103IC            3 Z
309148002309148486-002315     309148006001023740526WALL-CLOCK ROUND 20CM  0000001000+00007016+00000+0001T   00007016+0000001614          1400 PW8510               3 Z
309149000309149               309149               170213KX     1400+00000+KX0000012298+0000012298+000000000+000001728+0000014020+0000000006+I20000000000+0000014020+Z
309149001309149112-116038     309149006009681820246TCS CARRIER BAG MIDI   0000001000+00000035+00000+0001T   00000035+0000001616          1400 PW8090               3AZ
309149002309149368-000049     309149006003000536955PLUSH BEAR 15cm LOVE   0000001000+00004385+00000+0001T   00004385+0000001616          1400 PW8745               3AZ
309149003309149903-000843     309149008693029031067SWT GUMMY JELAXY 80G   0000001000+00000964+00000+0001T   00000964+0000001616          1400 PW8150               3AZ
309149004309149903-002851     309149000000087108538MENTOS ROLL STRAWBERRY 0000001000+00001051+00000+0001T   00001051+0000001616          1400 PW8150               3AZ
309149005309149903-000844     309149005010478432567SWT CANDY DL LUV HEARTS0000001000+00001314+00000+0001T   00001314+0000001616          1400 PW8150               3AZ
309149006309149903-000151     309149006009803374411SWT SML RND R/BOW LOLLY0000001000+00000525+00000+0001T   00000525+0000001616          1400 PW8150               3AZ
309149007309149903-000077     309149006939873501687SWT GS MAGIC ROCK FRUIT0000001000+00000525+00000+0001T   00000525+0000001616          1400 PW8150               3AZ
309149008309149903-000670     309149006009803358008SWT SHERBET RED LIPS   0000001000+00000218+00000+0001T   00000218+0000001616          1400 PW8150               3AZ
309149009309149903-000012     309149006002099007308SWT MALLOW S/BERRY     0000001000+00000437+00000+0001T   00000437+0000001616          1400 PW8150               3AZ
309149010309149903-000671     309149006009803358015SWT SHERBET BLUE LIPS  0000002000+00000218+00000+0001T   00000218+0000001616          1400 PW8150               3AZ
309149011309149903-000670     309149006009803358008SWT SHERBET RED LIPS   0000001000+00000218+00000+0001T   00000218+0000001616          1400 PW8150               3AZ
309149012309149903-000012     309149006002099007308SWT MALLOW S/BERRY     0000001000+00000437+00000+0001T   00000437+0000001616          1400 PW8150               3AZ
309149013309149565-000043     309149006003000109562NOVELTY BALL FUNNY FACE0000001000+00001753+00000+0001T   00001753+0000001616          1400 PW8745               3AZ
309150000309150               309150               170213KX     1400+00000+KX0000002671+0000002671+000000000+000000375+0000003040+0000000006+I20000000000+0000003040+Z
309150001309150079-009700-D   309150006003000545711PAPER SIRIO A4 RED COL.0000003000+00000306+00000+0001T   00000306+0000001618          1400 PW8130               3AZ
309150002309150079-013032     309150006003000389209SET LETTERS 2 ASSTD    0000001000+00001753+00000+0001T   00001753+0000001618          1400 PW8130               3AZ
309151000309151               309151               170213KX     1400+00000+KX0000001753+0000001753+000000000+000000246+0000001990+0000000009+I20000000000+0000001990+Z
309151001309151024-000214     309151006001023587855COOKIE-CUTTERS PL 6PC  0000001000+00001753+00000+0001T   00001753+0000001619          1400 PW8300               3AZ
309152000309152               309152               170213KX     1400+00000+KX0000009468+0000009468+000000000+000001326+0000010790+0000000004+I20000000000+0000010790+Z
309152001309152077-000303     309152006001023593757GIFT-BAG PAPER MED     0000001000+00001578+00000+0001T   00001578+0000001624          1400 PW8112               3AZ
309152002309152903-000194     309152006009826020616SWT CHOC RP LOLLY 25G  0000002000+00001314+00000+0001T   00001314+0000001624          1400 PW8150               3AZ
309152003309152304-001116     309152006003000426164F/BUNCH ROSES 12-HEAD  0000001000+00005262+00000+0001T   00005262+0000001624          1400 PW8510               3AZ
309153000309153               309153               170213KX     1400+00000+KX0000004383+0000004383+000000000+000000614+0000004990+0000000007+I20000000000+0000004990+Z
309153001309153267-000233     309153006001023688576PUZZLE 48pc EDUCATIONAL0000001000+00003507+00000+0001T   00003507+0000001628          1400 PW8755               3AZ
309153002309153077-000408     309153006003000145218G/BAG PP 15X21X7CM     0000001000+00000876+00000+0001T   00000876+0000001628          1400 PW8112               3AZ
309154000309154               309154               170213KX     1400+00000+KX0000004206+0000004206+000000000+000000589+0000004795+0000000000+I40000004795+0000000000+Z
309154001309154077-000310     309154006001023608635GIFT-BAG 18X23CM GLOSS 0000002000+00001314+00000+0001T   00001314+0000001650          1400 PW8112               3AZ
309154002309154018-000127     309154006001023380289MUG OCC STRAIGHT LOVE  0000001000+00001578+00000+0001T   00001753+0006471650          1400 PW8515               3AZ
309155000309155               309155               170213KX     1400+00000+KX0000006611+0000006611+000000000+000000926+0000007537+0000000000+I40000007537+0000000000+Z
309155001309155016-006524     309155006003000579358S/JAR GLS 750ml ASSTD  0000001000+00005262+00000+0001T   00005262+0000001654          1400 PW8300               3AZ
309155002309155903-000194     309155006009826020616SWT CHOC RP LOLLY 25G  0000001000+00001314+00000+0001T   00001314+0000001654          1400 PW8150               3AZ
309155003309155112-116038     309155006009681820246TCS CARRIER BAG MIDI   0000001000+00000035+00000+0001T   00000035+0000001654          1400 PW8090               3AZ
309156000309156               309156               170213KX     1400+00000+KX0000010294+0000010294+000000000+000001443+0000011737+0000000000+I40000011737+0000000000+Z
309156001309156004-079102     309156006003000605033USB POWER BANK 1200MAH 0000001000+00006139+00000+0001T   00006139+0000001656          1400 PW8310               3AZ
309156002309156206-000620     309156006003000631797BACK SCRATCHER EXTEND  0000001000+00002630+00000+0001T   00002630+0000001656          1400 PW8321               3AZ
309156003309156112-116038     309156006009681820246TCS CARRIER BAG MIDI   0000001000+00000035+00000+0001T   00000035+0000001656          1400 PW8090               3AZ
309156004309156565-004101     309156006003000548033BALL BOUNCING EGG      0000001000+00001490+00000+0001T   00001490+0000001656          1400 PW8745               3AZ
309157000309157               309157               170213KX     1400+00000+KX0000009647+0000009647+000000000+000001351+0000010998+0000000000+I40000010998+0000000000+Z
309157001309157107-004510     309157006002580008968STEP-STOOL PL          0000001000+00005262+00000+0001T   00005262+0000001703          1400 PW8210               3AZ
309157002309157105-008005     309157006002580009484STORAGE CONTAINER 7.5L 0000001000+00004385+00000+0001T   00004385+0000001703          1400 PW8210               3AZ
309158000309158               309158               170213KX     1400+00000+KX0000003331+0000003331+000000000+000000467+0000003798+0000000000+I40000003798+0000000000+Z
309158001309158006-000240     309158006003000460595PARTY INVITES 12PC     0000001000+00001753+00000+0001T   00001753+0000001705          1400 PW8131               3AZ
309158002309158018-000127     309158006001023380289MUG OCC STRAIGHT LOVE  0000001000+00001578+00000+0001T   00001753+0006471705          1400 PW8515               3AZ
309159000309159               309159               170213KX     1400+00000+KX0000012278+0000012278+000000000+000001720+0000013998+0000000000+I40000013998+0000000000+Z
309159001309159206-000430     309159006003000619627MUG COLOUR CHANGING    0000002000+00006139+00000+0001T   00006139+0000001709          1400 PW8321               3AZ
309160000309160               309160               170213KX     1400+00000+KX0000003069+0000003069+000000000+000000430+0000003490+0000000009+I20000000000+0000003490+Z
309160001309160072-020250     309160006003000188864PET BLANKET BUDGET     0000001000+00003069+00000+0001T   00003069+0000001717          1400 PW8870               3AZ
309161000309161               309161               170213KX     1400+00000+KX0000002192+0000002192+000000000+000000307+0000002490+0000000009+I20000000000+0000002490+Z
309161001309161080-000127     309161006003000424351VALENTINES DAY 36x24CM 0000001000+00002192+00000+0001T   00002192+0000001718          1400 PW8112               3AZ
309162000309162               309162               170213KX     1400+00000+KX0000003507+0000003507+000000000+000000491+0000003990+0000000008+I20000000000+0000003990+Z
309162001309162018-000136     309162006001023659026MUG OCC LOVE W/PLUSH   0000001000+00003507+00000+0001T   00003507+0000001719          1400 PW8515               3AZ
309163000309163               309163               170213KX     1400+00000+KX0000000035+0000000035+000000000+000000005+0000000040+0000000000+I20000000000+0000000040+Z
309163001309163112-116038     309163006009681820246TCS CARRIER BAG MIDI   0000001000+00000035+00000+0001T   00000035+0000001720          1400 PW8090               3AZ
309164000309164               309164               170213KX     1400+00000+KX0000005745+0000005745+000000000+000000806+0000006550+0000000001+I20000000000+0000006550+Z
309164001309164112-116069     309164006009681820277TCS CARRIER BAG JUMBO  0000001000+00000048+00000+0001T   00000048+0000001721          1400 PW8090               3AZ
309164002309164301-085004     309164006003000420469ORN LOVE PLAQUE 21X10CM0000001000+00003507+00000+0001T   00003946+0006471721          1400 PW8505               3AZ
309164003309164080-000133     309164006003000535613CARD&ENV MINI ASTD DSGN0000001000+00000437+00000+0001T   00000437+0000001721          1400 PW8112               3AZ
309164004309164077-000299-A   309164006003000670888GIFT-BAG PAPER JMB LOVE0000001000+00001753+00000+0001T   00001753+0000001721          1400 PW8112               3AZ
309165000309165               309165               170213KX     1400+00000+KX0000006574+0000006574+000000000+000000922+0000007496+0000000000+I40000007496+0000000000+Z
309165001309165903-000599     309165006003000608119SWEET BALLOONPUMP 18cm 0000001000+00002630+00000+0001T   00002630+0000001726          1400 PW8150               3AZ
309165002309165077-000310     309165006001023608635GIFT-BAG 18X23CM GLOSS 0000001000+00001314+00000+0001T   00001314+0000001726          1400 PW8112               3AZ
309165003309165018-000129     309165006001023403353MUG OCC. LOVE V-SHAPE  0000001000+00002630+00000+0001T   00002630+0000001726          1400 PW8515               3AZ
309166000309166               309166               170213KX     1400+00000+KX0000021660+0000021660+000000000+000003034+0000024694+0000000000+I40000024694+0000000000+Z
309166001309166016-006524     309166006003000579358S/JAR GLS 750ml ASSTD  0000001000+00005262+00000+0001T   00005262+0000001730          1400 PW8300               3AZ
309166002309166031-000903-B   309166006003000457236P/FRAME PL CREAMY 13X180000001000+00005262+00000+0001T   00005262+0000001730          1400 PW8510               3AZ
309166003309166077-000315     309166006003000181186GIFT-BAG 20x28cm MATT  0000001000+00001578+00000+0001T   00001578+0000001730          1400 PW8112               3AZ
309166004309166077-000318     309166006001023609755GIFT-BAG 18X23CM E/D AN0000001000+00001227+00000+0001T   00001227+0000001730          1400 PW8112               3AZ
309166005309166301-000828     309166006003000243945ORN FAIRY CANDLE 20cm  0000001000+00005262+00000+0001T   00005262+0000001730          1400 PW8505               3AZ
309166006309166305-075000     309166006003000620555W/CHIMES HEART SHAPE   0000001000+00003069+00000+0001T   00003069+0000001730          1400 PW8505               3AZ
309167000309167               309167               170213KX     1400+00000+KX0000001226+0000001226+000000000+000000172+0000001390+0000000008+I20000000000+0000001390+Z
309167001309167089-000021     309167006009697230923KEY CHAIN ID           0000002000+00000613+00000+0001T   00000613+0000001733          1400 PW8205               3AZ
309168000309168               309168               170213KX     1400+00000+KX0000000035+0000000035+000000000+000000005+0000000040+0000000000+I20000000000+0000000040+Z
309168001309168112-116038     309168006009681820246TCS CARRIER BAG MIDI   0000001000+00000035+00000+0001T   00000035+0000001734          1400 PW8090               3AZ
309169000309169               309169               170213KX     1400+00000+KX0000004155+0000004155+000000000+000000583+0000004738+0000000000+I40000004738+0000000000+Z
309169001309169016-002700     309169006003000639809BOTTLE GLS W/LID 25CM  0000001000+00002630+00000+0001T   00002630+0000001735          1400 PW8300               3AZ
309169002309169051-002401     309169006001023523570TRIGGER-SPRAYER   300ml0000001000+00001490+00000+0001T   00001490+0000001735          1400 PW8820               3AZ
309169003309169112-116038     309169006009681820246TCS CARRIER BAG MIDI   0000001000+00000035+00000+0001T   00000035+0000001735          1400 PW8090               3AZ
309170000309170               309170               170213KX     1400+00000+KX0000003331+0000003331+000000000+000000467+0000003790+0000000008+I20000000000+0000003790+Z
309170001309170077-000357     309170006003000139354GIFT-BAG 18X23CM B/DAY 0000001000+00001753+00000+0001T   00001753+0000001741          1400 PW8112               3AZ
309170002309170080-000124     309170006003000297733CARD & ENV VALENTINES  0000001000+00001578+00000+0001T   00001578+0000001741          1400 PW8112               3AZ
309171000309171               309171               170213KX     1400+00000+KX0000004417+0000004417+000000000+000000619+0000005030+0000000006+I20000000000+0000005030+Z
309171001309171018-000127     309171006001023380289MUG OCC STRAIGHT LOVE  0000002000+00001578+00000+0001T   00001753+0006471746          1400 PW8515               3AZ
309171002309171112-116038     309171006009681820246TCS CARRIER BAG MIDI   0000001000+00000035+00000+0001T   00000035+0000001746          1400 PW8090               3AZ
309171003309171304-001011     309171006001023806727FLWR ROSE RED W/BEAR   0000002000+00000613+00000+0001T   00000788+0006471746          1400 PW8510               3AZ
309172000309172               309172               170213KX     1400+00000+KX0000005483+0000005483+000000000+000000769+0000006252+0000000000+I40000006252+0000000000+Z
309172001309172077-000290     309172006001023902023GIFT BOX 26x32x13cm    0000001000+00001753+00000+0001T   00001753+0000001749          1400 PW8112               3AZ
309172002309172077-000304     309172006001023483232GIFT-BAG 25X32CM E/DAY 0000001000+00001490+00000+0001T   00001490+0000001749          1400 PW8112               3AZ
309172003309172080-000127     309172006003000424351VALENTINES DAY 36x24CM 0000001000+00002192+00000+0001T   00002192+0000001749          1400 PW8112               3AZ
309172004309172112-116069     309172006009681820277TCS CARRIER BAG JUMBO  0000001000+00000048+00000+0001T   00000048+0000001749          1400 PW8090               3AZ
309173000309173               309173               170213KX     1400+00000+KX0000003507+0000003507+000000000+000000491+0000003990+0000000008+I20000000000+0000003990+Z
309173001309173018-000136     309173006001023659026MUG OCC LOVE W/PLUSH   0000001000+00003507+00000+0001T   00003507+0000001750          1400 PW8515               3AZ
309174000309174               309174               170213KX     1400+00000+KX0000009242+0000009242+000000000+000001295+0000010537+0000000000+I40000010537+0000000000+Z
309174001309174031-080508     309174006001023802415P/FRAME PL 22X11CM LOVE0000001000+00004385+00000+0001T   00004385+0000001754          1400 PW8510               3AZ
309174002309174089-060027     309174006003000245871KEY-CHAIN HEART 6X6cm  0000001000+00003069+00000+0001T   00003069+0000001754          1400 PW8205               3AZ
309174003309174362-003000     309174006003000295258GIRL HEART NOTEBOOK    0000001000+00001753+00000+0001T   00002630+0008191754          1400 PW8160               3AZ
309174004309174112-116038     309174006009681820246TCS CARRIER BAG MIDI   0000001000+00000035+00000+0001T   00000035+0000001754          1400 PW8090               3AZ
309175000309175               309175               170213KX     1400+00000+KX0000001575+0000001575+000000000+000000222+0000001790+0000000007+I20000000000+0000001790+Z
309175001309175903-000155     309175006009803374435SWT LOLLY I LUV U HEART0000003000+00000525+00000+0001T   00000525+0000001755          1400 PW8150               3AZ
M17021391                              CASH        KXSLAVE 3                       Z-REPORT No.    41TOTAL (Sales - Refunds)           2411.03       CASH TO BE BANKED                 1190.40       DEBIT CARDS                          0.00       CREDIT CARDS                      1220.73       Z-READING                         2411.03       AIRTIME DEBIT CARD SALES             0.00       AIRTIME CARD SALES                   0.00       OVERS/UNDERS                         0.10       AIRTIME CASH SALES                   0.00       GIFT CARDS                           0.00       GIFT CARD CASH SALES                 0.00       T O T A L  CASH PAYOUTS              0.00                                                                                                                                                                                                                                                                                                                                                      Z
M17021392                              CASH        KXABSENT                                                                                                                                                                                          ANNUAL LEAVE                                                                                                                                                                                    DAY OFF                                                                                                                                                                                         COMMENTS                                                                                                                                                                                                                                                                                                                                                                                       Z
Y17021300                                          KX00000000220367+000038
ZKX17021320003 SLAVE 3      SALES DATA                     NEXT INVOICE NO.  309176 0041
X KX Slave 3 First invoice 309138 170213 Last invoice 309175 170213 Next invoice 309176 Total number of records 000000136 clbackup completed 20:00:25
