400387000400387               400387               170213KY     1400+00000+KY0000111311+0000111311+000000000+000015616+0000126927+           I90000000000+0000000000+Z
400387001400387903-000123     400387006925925909280SWEET GS MINI MALLOWS  0000022000+00000876+00000+0001T073043720000                    1400 1IC1501ICV             Z
400387002400387903-005003     400387006002580020106SWT DINKY DUMMIES 5PK  0000006000+00001490+00000+0001T073043720000                    1400 1IC1501ICV             Z
400387003400387903-003075     400387003800065783125SWT CHOC FAFL WAFER 52g0000015000+00000876+00000+0001T073043720000                    1400 1IC1501ICV             Z
400387004400387903-000913     400387007501186882341SWT LOLLIPOP BARBIE    0000022000+00000876+00000+0001T073043720000                    1400 1IC1501ICV             Z
400387005400387903-004952     400387006002580020052SWT FREAKY FACES 100G  0000011000+00001314+00000+0001T073043720000                    1400 1IC1501ICV             Z
400387006400387903-000504     400387006001704012416SWT CHOC JELLY BEANS   0000010000+00001227+00000+0001T073043720000                    1400 1IC1501ICV             Z
400387007400387903-000499     400387006001704012492SWT CHOC MALLOWS 50g   0000006000+00001227+00000+0001T073043720000                    1400 1IC1501ICV             Z
400387008400387903-000699     400387006002099007018SWT CANDY FRUIT CHEWS  0000004000+00001139+00000+0001T073043720000                    1400 1IC1501ICV             Z
400387009400387903-000674     400387006009803358220SWT SHERBET W/LOLLY 4PK0000003000+00001314+00000+0001T073043720000                    1400 1IC1501ICV             Z
400387010400387903-004951     400387006002580020328SWT MALLOW MINI M/SHAKE0000001000+00001227+00000+0001T073043720000                    1400 1IC1501ICV             Z
400387011400387903-002900     400387005996071650648QUICK MILK 5 CHOCO 5PC 0000001000+00001578+00000+0001T073043720000                    1400 1IC1501ICV             Z
400387012400387903-002901     400387005996071650655QUICK MILK 5 S/BERRY   0000001000+00001578+00000+0001T073043720000                    1400 1IC1501ICV             Z
400387013400387903-000503     400387006001704006118SWT VAMPIRE FANGS 60G  0000001000+00000876+00000+0001T073043720000                    1400 1IC1501ICV             Z
400387014400387903-000297     400387006001704002950SWT MS WILD BERRY 50G  0000001000+00000876+00000+0001T073043720000                    1400 1IC1501ICV             Z
400387015400387903-000159     400387006003000417629SWT LB SMALL DUMMIE    0000002000+00000350+00000+0001T073043720000                    1400 1IC1501ICV             Z
400387016400387903-000155     400387006009803374435SWT LOLLY I LUV U HEART0000002000+00000525+00000+0001T073043720000                    1400 1IC1501ICV             Z
400387017400387903-000670     400387006009803358008SWT SHERBET RED LIPS   0000001000+00000218+00000+0001T073043720000                    1400 1IC1501ICV             Z
400388000400388               400388               170213KY     1400+00000+KY0000048338+0000048338+000000000+000006777+0000055115+           I90000000000+0000000000+Z
400388001400388105-001028     400388006003000365036LUNCH BOX W/CLIPS      0000001000+00003069+00000+0001T033043720000                    1400 1IC2101ICV             Z
400388002400388080-000112     400388006003000252749CARD&ENVLP BDAY-MUSICAL0000001000+00001753+00000+0001T033043720000                    1400 1IC1121ICV             Z
400388003400388565-000044     400388006003000128280BARREL OF SLIME 100g   0000017000+00000613+00000+0001T033043720000                    1400 1IC7451ICV             Z
400388004400388565-000052     400388006003000615551NOVELTY PUTTY FARTS    0000001000+00001578+00000+0001T033043720000                    1400 1IC7451ICV             Z
400388005400388024-000093-A   400388006003000430697MEASURING-CUPS ASSTD   0000001000+00004385+00000+0001T033043720000                    1400 1IC3001ICV             Z
400388006400388065-006076     400388006003000466863WOODEN 2PC MARACAS 19cm0000001000+00004385+00000+0001T033043720000                    1400 1IC7451ICV             Z
400388007400388903-000615     400388006003000617456SWT JET PLANE J/B 5G   0000001000+00001753+00000+0001T033043720000                    1400 1IC1501ICV             Z
400388008400388083-000049     400388004891035200024CIG-LIGHTER DISPOSABLE 0000001000+00000437+00000+0001T033043720000                    1400 1IC3151ICV             Z
400388009400388077-000289     400388006001023901996GIFT BOX 20x25x11cm    0000001000+00001753+00000+0001T033043720000                    1400 1IC1121ICV             Z
400388010400388077-000408     400388006003000145218G/BAG PP 15X21X7CM     0000001000+00000876+00000+0001T033043720000                    1400 1IC1121ICV             Z
400388011400388077-000358     400388006003000329977GIFT-BAG KIDS 25X32CM  0000001000+00001753+00000+0001T033043720000                    1400 1IC1121ICV             Z
400388012400388048-000859     400388006003000423422TORCH 9 LED PL 3XAAA   0000001000+00001753+00000+0001T033043720000                    1400 1IC3051ICV             Z
400388013400388083-000054     400388006001023729071LIGHTER REFILLABLE LED 0000001000+00001578+00000+0001T033043720000                    1400 1IC3151ICV             Z
400388014400388082-000110     400388006003000360482READING GLS STRENGHT:2 0000001000+00004385+00000+0001T033043720000                    1400 1IC1601ICV             Z
400388015400388082-000120     400388006003000360727READING GLS STRENGTH:3 0000001000+00004385+00000+0001T033043720000                    1400 1IC1601ICV             Z
400388016400388560-000700     400388006001023865830GROWING ANIMALS ASSTD  0000001000+00001578+00000+0001T033043720000                    1400 1IC7451ICV             Z
400388017400388565-000017     400388006003000672516NOVELTY TONGUE SLING   0000001000+00001753+00000+0001T033043720000                    1400 1IC7451ICV             Z
400388018400388903-000159     400388006003000417629SWT LB SMALL DUMMIE    0000001000+00000350+00000+0001T033043720000                    1400 1IC1501ICV             Z
400388019400388903-000183     400388006003000451043SWT LB HEART LOLLY     0000001000+00000393+00000+0001T033043720000                    1400 1IC1501ICV             Z
400389000400389               400389               170213KY     1400+00000+KY0000054226+0000054226+000000000+000007606+0000061832+           I90000000000+0000000000+Z
400389001400389112-116038     400389006009681820246TCS CARRIER BAG MIDI   0000013000+00000035+00000+0001T033043740000                    1400 1IC0901ICV             Z
400389002400389112-116069     400389006009681820277TCS CARRIER BAG JUMBO  0000008000+00000048+00000+0001T033043740000                    1400 1IC0901ICV             Z
400389003400389071-009836     400389006001023591067BACK-TO-SCHOOL SET     0000007000+00001490+00000+0001T033043740000                    1400 1IC1301ICV             Z
400389004400389051-600657     400389006003000422340PLANTER W/TRAY 20x20x160000001000+00005262+00000+0001T033043740000                    1400 1IC8201ICV             Z
400389005400389046-002032-PK2 400389004897006175063BATTERIES CR-2032  2PCE0000001000+00001753+00000+0001T033043740000                    1400 1IC3121ICV             Z
400389006400389046-000015     400389006001023680839BATTERIES SIZE:D   2PCE0000001000+00002367+00000+0001T033043740000                    1400 1IC3121ICV             Z
400389007400389903-000155     400389006009803374435SWT LOLLY I LUV U HEART0000001000+00000525+00000+0001T033043740000                    1400 1IC1501ICV             Z
400389008400389903-000614     400389006003000617333SWT PLIERS TWISTER 17cm0000001000+00001753+00000+0001T033043740000                    1400 1IC1501ICV             Z
400389009400389162-097722     400389006001492977225#TAG BLACKWRISTWEAR    0000001000+00004385+00000+0001T033043740000                    1400 1IC1601ICV             Z
400389010400389565-000888     400389006003000607846NOVELTY MESH BALL      0000001000+00001753+00000+0001T033043740000                    1400 1IC7451ICV             Z
400389011400389903-000077     400389006939873501687SWT GS MAGIC ROCK FRUIT0000001000+00000525+00000+0001T033043740000                    1400 1IC1501ICV             Z
400389012400389050-000263-Z   400389006001023777041PADLOCK BRS 32mm CARDED0000002000+00003507+00000+0001T033043740000                    1400 1IC8551ICV             Z
400389013400389204-000001     400389006003000575558M/HOLD BOTTLE OPENER   0000001000+00001753+00000+0001T033043740000                    1400 1IC3001ICV             Z
400389014400389466-000514     400389006001023196620BALLS TENNIS COLR BAG-30000001000+00002630+00000+0001T033043740000                    1400 1IC7851ICV             Z
400389015400389564-000030     400389006001023897022BUBBLE NOVELTY BOTTLE  0000001000+00000876+00000+0001T033043740000                    1400 1IC1311ICV             Z
400389016400389564-000035     400389006003000301836BUBBLE NOVELTY SWORD   0000001000+00001753+00000+0001T033043740000                    1400 1IC1311ICV             Z
400389017400389030-005010     400389006003000455997PLAQUE WDN SEA WELCOME 0000001000+00007016+00000+0001T033043740000                    1400 1IC5051ICV             Z
400389018400389078-000020     400389008887013700071YAMAYO CONTACT-CEMENT  0000001000+00001753+00000+0001T033043740000                    1400 1IC8101ICV             Z
400389019400389046-000012     400389006904708013062BATTERIES AA  CARD-OF-40000001000+00001314+00000+0001T033043740000                    1400 1IC3121ICV             Z
400389020400389903-000151     400389006003000068289SWT SML RND R/BOW LOLLY0000001000+00000525+00000+0001T033043740000                    1400 1IC1501ICV             Z
M17021391                              CASH        KYSLAVE 3                       Z-REPORT No.   385TOTAL (Sales - Refunds)              0.00       CASH TO BE BANKED                    0.00       DEBIT CARDS                          0.00       CREDIT CARDS                         0.00       Z-READING                            0.00       AIRTIME DEBIT CARD SALES             0.00       AIRTIME CARD SALES                   0.00       OVERS/UNDERS                         0.00       AIRTIME CASH SALES                   0.00       GIFT CARDS                           0.00       GIFT CARD CASH SALES                 0.00       T O T A L  CASH PAYOUTS              0.00                                                                                                                                                                                                                                                                                                                                                      Z
M17021392                              CASH        KYABSENT                                                                                                                                                                                          ANNUAL LEAVE                                                                                                                                                                                    DAY OFF                                                                                                                                                                                         COMMENTS                                                                                                                                                                                                                                                                                                                                                                                       Z
Y17021300                                          KY00000000000000+000000
ZKY17021320003 SLAVE 3      SALES DATA                     NEXT INVOICE NO.  400390 0385
F094151463-000501         1701311031080000021ICSLAVE 3
X KY Slave 3 First invoice 400387 170213 Last invoice 400389 170213 Next invoice 400390 Total number of records 000000064 clbackup completed 20:00:24
