206587000206587               206587               170213KZ     1400+00000+KZ0000013182+0000013182+000000000+000001850+0000015032+0000000000+I40000015032+0000000000+Z
206587001206587467-000033     206587006003000423439BEACH SET PL BOATS-3PCE0000001000+00001753+00000+0001T   00002630+0008190909          1400 GL3785               1AZ
206587002206587566-000200     206587006003000384174STICKER PUFFY NEON     0000004000+00000876+00000+0001T   00000876+0000000909          1400 GL3130               1AZ
206587003206587566-000203     206587006003000443925STCKRS VELVET PUFFY ASS0000003000+00002630+00000+0001T   00002630+0000000909          1400 GL3130               1AZ
206587004206587112-116038     206587006009681820246TCS CARRIER BAG MIDI   0000001000+00000035+00000+0001T   00000035+0000000909          1400 GL3090               1AZ
206588000206588               206588               170213KZ     1400+00000+KZ0000001313+0000001313+000000000+000000185+0000001490+0000000008+I20000000000+0000001490+Z
206588001206588071-000325     206588006009635844090RULER PLASTIC 30cm     0000001000+00000437+00000+0001T   00000437+0000000909          1400 GL3130               1AZ
206588002206588071-001019     206588006001023474513MARKER BLACK NAME-PEN  0000001000+00000876+00000+0001T   00000876+0000000909          1400 GL3130               1AZ
206589000206589               206589               170213KZ     1400+00000+KZ0000007489+0000007489+000000000+000001049+0000008530+0000000008+I20000000000+0000008530+Z
206589001206589089-000220     206589006003000677368KEY CHAIN+PEN+KNIFE    0000001000+00003069+00000+0001T   00003069+0000000953          1400 GL3205               1AZ
206589002206589031-080508     206589006001023802415P/FRAME PL 22X11CM LOVE0000001000+00004385+00000+0001T   00004385+0000000953          1400 GL3510               1AZ
206589003206589112-116038     206589006009681820246TCS CARRIER BAG MIDI   0000001000+00000035+00000+0001T   00000035+0000000953          1400 GL3090               1AZ
206590000206590               206590               170213KZ     1400+00000+KZ0000000525+0000000525+000000000+000000074+0000000590+0000000009+I20000000000+0000000590+Z
206590001206590071-000874     206590006003000010110RUB-BANDS PLN BAG-30   0000001000+00000525+00000+0001T   00000525+0000001003          1400 GL3130               1AZ
206591000206591               206591               170213KZ     1400+00000+KZ0000000517-0000000517-000000000+000000073-0000000590-0000000000+I20000000000+0000000590-Z
206591001206591001-999906     206591000000000999906STATIONERY(PHOTOCOPIES)0000001000-00000517+00000+0001T   00000000+0000001004          1400 GL39061IC            1 Z
206592000206592               206592               170213KZ     1400+00000+KZ0000005260+0000005260+000000000+000000738+0000005990+0000000008+I20000000000+0000005990+Z
206592001206592200-000040     206592006001023729620BAG SEALERS 5PC CLIPS  0000002000+00002630+00000+0001T   00002630+0000001005          1400 GL3214               1AZ
206593000206593               206593               170213KZ     1400+00000+KZ0000007488+0000007488+000000000+000001049+0000008530+0000000007+I20000000000+0000008530+Z
206593001206593368-000175     206593006003000270316PLUSH BEAR 4 ASSTD 18CM0000001000+00006139+00000+0001T   00006139+0000001011          1400 GL3745               1AZ
206593002206593077-000407     206593006003000145096G/BAG PP 19X26X8CM     0000001000+00001314+00000+0001T   00001314+0000001011          1400 GL3112               1AZ
206593003206593112-116038     206593006009681820246TCS CARRIER BAG MIDI   0000001000+00000035+00000+0001T   00000035+0000001011          1400 GL3090               1AZ
206594000206594               206594               170213KZ     1400+00000+KZ0000002192+0000002192+000000000+000000307+0000002490+0000000009+I20000000000+0000002490+Z
206594001206594080-000127     206594006003000424351VALENTINES DAY 36x24CM 0000001000+00002192+00000+0001T   00002192+0000001016          1400 GL3112               1AZ
206595000206595               206595               170213KZ     1400+00000+KZ0000004383+0000004383+000000000+000000615+0000004998+0000000000+I40000004998+0000000000+Z
206595001206595566-000203     206595006003000443925STCKRS VELVET PUFFY ASS0000001000+00002630+00000+0001T   00002630+0000001017          1400 GL3130               1AZ
206595002206595566-000067     206595006003000349180STICKERS GLITTER       0000001000+00001753+00000+0001T   00002192+0008151017          1400 GL3130               1AZ
206596000206596               206596               170213KZ     1400+00000+KZ0000012314+0000012314+000000000+000001725+0000014030+0000000009+I20000000000+0000014030+Z
206596001206596047-000010-H   206596006001023879929M/PLUG 10-WAY-SURGE    0000001000+00012279+00000+0001T   00012279+0000001018          1400 GL3880               1AZ
206596002206596112-116038     206596006009681820246TCS CARRIER BAG MIDI   0000001000+00000035+00000+0001T   00000035+0000001018          1400 GL3090               1AZ
206597000206597               206597               170213KZ     1400+00000+KZ0000001753+0000001753+000000000+000000246+0000001990+0000000009+I20000000000+0000001990+Z
206597001206597467-000005     206597006001023584472NET FISHING 45-50 SHORT0000001000+00001753+00000+0001T   00001753+0000001019          1400 GL3785               1AZ
206598000206598               206598               170213KZ     1400+00000+KZ0000016002+0000016002+000000000+000002245+0000018240+0000000007+I20000000000+0000018240+Z
206598001206598040-000051     206598006001023799494C/HOLDER GLASS LANTERN 0000001000+00003069+00000+0001T   00003069+0000001023          1400 GL3510               1AZ
206598002206598018-005007     206598006003000515516MUG OCC. LOVE W/HEARTS 0000001000+00006139+00000+0001T   00006139+0000001023          1400 GL3515               1AZ
206598003206598077-000299     206598006003000395576G/BAG 32x25cm LRG LOVE 0000001000+00001490+00000+0001T   00001490+0000001023          1400 GL3112               1AZ
206598004206598112-116069     206598006009681820277TCS CARRIER BAG JUMBO  0000001000+00000048+00000+0001T   00000048+0000001023          1400 GL3090               1AZ
206598005206598903-000137     206598006002099004130SWEET GS JELLY BEAN 60G0000002000+00000788+00000+0001T   00000788+0000001023          1400 GL3150               1AZ
206598006206598903-000200     206598006009826020234SWT CHOC RP CHOCO 23G  0000002000+00000788+00000+0001T   00000788+0000001023          1400 GL3150               1AZ
206598007206598903-000095     206598006001704011495SWT SPECKLED-EGGS 100G 0000001000+00002104+00000+0001T   00002104+0000001023          1400 GL3150               1AZ
206599000206599               206599               170213KZ     1400+00000+KZ0000004957+0000004957+000000000+000000695+0000005650+0000000002+I20000000000+0000005650+Z
206599001206599304-001204     206599006001023737984FLOWER OCC. TEDDY/ROSES0000001000+00001402+00000+0001T   00001490+0006471025          1400 GL3510               1AZ
206599002206599031-000923     206599006001023669933P/FRAME BLK W/WORDS    0000001000+00003507+00000+0001T   00003507+0000001025          1400 GL3510               1AZ
206599003206599112-116069     206599006009681820277TCS CARRIER BAG JUMBO  0000001000+00000048+00000+0001T   00000048+0000001025          1400 GL3090               1AZ
206600000206600               206600               170213KZ     1400+00000+KZ0000009647+0000009647+000000000+000001351+0000010990+0000000008+I20000000000+0000010990+Z
206600001206600006-000190     206600006003000685530BALLOONS LOVE 81x91cm  0000001000+00004385+00000+0001T   00004385+0000001107          1400 GL3131               1AZ
206600002206600366-002195     206600006001023990549DRESS UP WINGS FEATHER 0000001000+00005262+00000+0001T   00005262+0000001107          1400 GL3131               1AZ
206601000206601               206601               170213KZ     1400+00000+KZ0000003946+0000003946+000000000+000000553+0000004490+0000000009+I20000000000+0000004490+Z
206601001206601036-000014     206601006001246500822LINT REMOVER 40x SHEET 0000001000+00003946+00000+0001T   00003946+0000001108          1400 GL3212               1AZ
206602000206602               206602               170213KZ     1400+00000+KZ0000001613+0000001613+000000000+000000226+0000001839+0000000000+I40000001839+0000000000+Z
206602001206602018-000127     206602006001023380289MUG OCC STRAIGHT LOVE  0000001000+00001578+00000+0001T   00001753+0006471110          1400 GL3515               1AZ
206602002206602112-116038     206602006009681820246TCS CARRIER BAG MIDI   0000001000+00000035+00000+0001T   00000035+0000001110          1400 GL3090               1AZ
206603000206603               206603               170213KZ     1400+00000+KZ0000026314+0000026314+000000000+000003684+0000029990+0000000008+I20000000000+0000029990+Z
206603001206603007-010503     206603006003000455393WIPE & CHALK 90X60CM   0000001000+00026314+00000+0001T   00026314+0000001112          1400 GL3130               1AZ
206604000206604               206604               170213KZ     1400+00000+KZ0000020659+0000020659+000000000+000002893+0000023550+0000000002+I20000000000+0000023550+Z
206604001206604368-000161     206604006003000167760PLUSH BEAR BABY ASSTD  0000001000+00017542+00000+0001T   00017542+0000001115          1400 GL3745               1AZ
206604002206604301-085008     206604006003000673933ORN OCC.LOVE TINSEL HRT0000001000+00003069+00000+0001T   00003069+0000001115          1400 GL3505               1AZ
206604003206604112-116069     206604006009681820277TCS CARRIER BAG JUMBO  0000001000+00000048+00000+0001T   00000048+0000001115          1400 GL3090               1AZ
206605000206605               206605               170213KZ     1400+00000+KZ0000007450+0000007450+000000000+000001044+0000008490+0000000004+I20000000000+0000008490+Z
206605001206605006-000166-D   206605006003000516490BALLOONS LRG 6PC RED   0000002000+00001314+00000+0001T   00001314+0000001132          1400 GL3131               1AZ
206605002206605301-085008     206605006003000673933ORN OCC.LOVE TINSEL HRT0000001000+00003069+00000+0001T   00003069+0000001132          1400 GL3505               1AZ
206605003206605039-001023     206605006003000466337CANDLE TEA-LITE METALIC0000001000+00001753+00000+0001T   00001753+0000001132          1400 GL3510               1AZ
206606000206606               206606               170213KZ     1400+00000+KZ0000002630+0000002630+000000000+000000369+0000002990+0000000009+I20000000000+0000002990+Z
206606001206606056-065302     206606006001023759566CAR SUN-SHIELD ALM-FOIL0000001000+00002630+00000+0001T   00002630+0000001132          1400 GL3860               1AZ
206607000206607               206607               170213KZ     1400+00000+KZ0000001314+0000001314+000000000+000000184+0000001490+0000000008+I20000000000+0000001490+Z
206607001206607004-071280     206607006003000129959WRITABLE-CD SINGLE     0000001000+00001314+00000+0001T   00001314+0000001134          1400 GL3310               1AZ
206608000206608               206608               170213KZ     1400+00000+KZ0000006698+0000006698+000000000+000000938+0000007630+0000000006+I20000000000+0000007630+Z
206608001206608080-000124     206608006003000297733CARD & ENV VALENTINES  0000001000+00001578+00000+0001T   00001578+0000001209          1400 GL3112               1AZ
206608002206608018-000136     206608006001023659026MUG OCC LOVE W/PLUSH   0000001000+00003507+00000+0001T   00003507+0000001209          1400 GL3515               1AZ
206608003206608077-000303     206608006001023593757GIFT-BAG PAPER MED     0000001000+00001578+00000+0001T   00001578+0000001209          1400 GL3112               1AZ
206608004206608112-116038     206608006009681820246TCS CARRIER BAG MIDI   0000001000+00000035+00000+0001T   00000035+0000001209          1400 GL3090               1AZ
206609000206609               206609               170213KZ     1400+00000+KZ0000006139+0000006139+000000000+000000860+0000006990+0000000009+I20000000000+0000006990+Z
206609001206609018-050000     206609006003000412679MUG OCC LOVE TWIN BEAR 0000001000+00006139+00000+0001T   00006139+0000001221          1400 GL3515               1AZ
206610000206610               206610               170213KZ     1400+00000+KZ0000000613+0000000613+000000000+000000086+0000000690+0000000009+I20000000000+0000000690+Z
206610001206610304-001011     206610006001023806727FLWR ROSE RED W/BEAR   0000001000+00000613+00000+0001T   00000788+0006471224          1400 GL3510               1AZ
206611000206611               206611               170213KZ     1400+00000+KZ0000003542+0000003542+000000000+000000496+0000004030+0000000008+I20000000000+0000004030+Z
206611001206611018-000130     206611006001023867537MUG OCC LOVE MINI+HEART0000001000+00003507+00000+0001T   00003507+0000001241          1400 GL3515               1AZ
206611002206611112-116038     206611006009681820246TCS CARRIER BAG MIDI   0000001000+00000035+00000+0001T   00000035+0000001241          1400 GL3090               1AZ
206612000206612               206612               170213KZ     1400+00000+KZ0000014955+0000014955+000000000+000002095+0000017050+0000000000+I20000000000+0000017050+Z
206612001206612567-014132     206612006003000560028BOOK COLOURING 24 PAGE 0000001000+00000876+00000+0001T   00000876+0000001257          1400 GL3757               1AZ
206612002206612079-000198     206612006003000542475ART+CRAFT SET 66PCE    0000001000+00008771+00000+0001T   00008771+0000001257          1400 GL3130               1AZ
206612003206612567-011361     206612009780709722519BK EDU WIPE CLEAN      0000001000+00003507+00000+0001T   00003507+0000001257          1400 GL3757               1AZ
206612004206612567-010175     206612009780755491179RF WIPE CLEAN ACTIVITY 0000001000+00001753+00000+0001T   00001753+0000001257          1400 GL3757               1AZ
206612005206612112-116069     206612006009681820277TCS CARRIER BAG JUMBO  0000001000+00000048+00000+0001T   00000048+0000001257          1400 GL3090               1AZ
206613000206613               206613               170213KZ     1400+00000+KZ0000001227+0000001227+000000000+000000172+0000001390+0000000009+I20000000000+0000001390+Z
206613001206613077-000245     206613006001023759214GIFT-RIBBON METALLICx2 0000001000+00001227+00000+0001T   00001227+0000001301          1400 GL3112               1AZ
206614000206614               206614               170213KZ     1400+00000+KZ0000041607+0000041607+000000000+000005833+0000047440+0000000000+I40000047440+0000000000+Z
206614001206614112-116069     206614006009681820277TCS CARRIER BAG JUMBO  0000001000+00000048+00000+0001T   00000048+0000001306          1400 GL3090               1AZ
206614002206614077-000349-B   206614006001023908315G/RIBBON 3ROLLS 12BOWS 0000001000+00002630+00000+0001T   00002630+0000001306          1400 GL3112               1AZ
206614003206614080-000117     206614006003000236350CARD & ENVELOPE THANK U0000001000+00001753+00000+0001T   00001753+0000001306          1400 GL3112               1AZ
206614004206614089-000017     206614006003000331147KEYCHAIN MOM POLY BOX  0000002000+00004385+00000+0001T   00004385+0000001306          1400 GL3205               1AZ
206614005206614077-000115-B   206614006003000181025GIFT-WRAP PPR 700MMX2M 0000001000+00002630+00000+0001T   00002630+0000001306          1400 GL3112               1AZ
206614006206614077-000323     206614006001023677563G/BAG 25X32CM E/DAY FLO0000002000+00001578+00000+0001T   00001578+0000001306          1400 GL3112               1AZ
206614007206614304-001204     206614006001023737984FLOWER OCC. TEDDY/ROSES0000003000+00001402+00000+0001T   00001490+0006471306          1400 GL3510               1AZ
206614008206614077-000151     206614006008766114676GIFT-WRAP C/PHANE ASSTD0000002000+00000876+00000+0001T   00000876+0000001306          1400 GL3112               1AZ
206614009206614077-000270     206614006003000395453GIFT-BAG PPR JMB 33X45 0000001000+00002630+00000+0001T   00002630+0000001306          1400 GL3112               1AZ
206614010206614041-093000     206614006003000320882B/GIFT SET 4PC B/RANGE 0000002000+00007016+00000+0001T   00007016+0000001306          1400 GL3200               1AZ
206615000206615               206615               170213KZ     1400+00000+KZ0000029424+0000029424+000000000+000004122+0000033546+0000000000+I40000033546+0000000000+Z
206615001206615112-116069     206615006009681820277TCS CARRIER BAG JUMBO  0000001000+00000048+00000+0001T   00000048+0000001309          1400 GL3090               1AZ
206615002206615206-000400     206615006003000619269MEAT CLAWS 2PC         0000001000+00003507+00000+0001T   00004385+0008171309          1400 GL3321               1AZ
206615003206615046-000012-VP  206615006003000537914BATTERIES H/P SIZE:AA  0000001000+00004823+00000+0001T   00004823+0000001309          1400 GL3312               1AZ
206615004206615301-085000     206615006003000674299 ORN OCC. LOVE HEARTS  0000003000+00002192+00000+0001T   00002192+0000001309          1400 GL3505               1AZ
206615005206615304-001116     206615006003000426164F/BUNCH ROSES 12-HEAD  0000002000+00005262+00000+0001T   00005262+0000001309          1400 GL3510               1AZ
206615006206615566-000358     206615006003000582587STICKER ROOM DECOR WORD0000001000+00003946+00000+0001T   00003946+0000001309          1400 GL3130               1AZ
206616000206616               206616               170213KZ     1400+00000+KZ0000004383+0000004383+000000000+000000615+0000004990+0000000008+I20000000000+0000004990+Z
206616001206616492-055602     206616000078257556021SWIM-GOGGLES PLAY      0000001000+00002630+00000+0001T   00002630+0000001310          1400 GL3787               1AZ
206616002206616071-003011     206616006001023762825PEN STICKBALL X10 ASSTD0000001000+00001753+00000+0001T   00001753+0000001310          1400 GL3130               1AZ
206617000206617               206617               170213KZ     1400+00000+KZ0000017411+0000017411+000000000+000002440+0000019851+0000000000+I40000019851+0000000000+Z
206617001206617368-000175     206617006003000270316PLUSH BEAR 4 ASSTD 18CM0000001000+00006139+00000+0001T   00006139+0000001313          1400 GL3745               1AZ
206617002206617039-001023     206617006003000466337CANDLE TEA-LITE METALIC0000001000+00001753+00000+0001T   00001753+0000001313          1400 GL3510               1AZ
206617003206617077-000303     206617006001023593757GIFT-BAG PAPER MED     0000001000+00001578+00000+0001T   00001578+0000001313          1400 GL3112               1AZ
206617004206617301-085007     206617006003000673698ORN OCC. LOVE S/PLAQUE 0000001000+00007893+00000+0001T   00007893+0000001313          1400 GL3505               1AZ
206617005206617112-116069     206617006009681820277TCS CARRIER BAG JUMBO  0000001000+00000048+00000+0001T   00000048+0000001313          1400 GL3090               1AZ
206618000206618               206618               170213KZ     1400+00000+KZ0000005522+0000005522+000000000+000000774+0000006296+0000000000+I40000006296+0000000000+Z
206618001206618080-000133-A   206618006003000647019MINI VALENTINES CARD   0000001000+00000437+00000+0001T   00000437+0000001317          1400 GL3112               1AZ
206618002206618018-000136     206618006001023659026MUG OCC LOVE W/PLUSH   0000001000+00003507+00000+0001T   00003507+0000001317          1400 GL3515               1AZ
206618003206618077-000303     206618006001023593757GIFT-BAG PAPER MED     0000001000+00001578+00000+0001T   00001578+0000001317          1400 GL3112               1AZ
206619000206619               206619               170213KZ     1400+00000+KZ0000001490+0000001490+000000000+000000209+0000001690+0000000009+I20000000000+0000001690+Z
206619001206619140-001004     206619006001023880932FLY-RIBBONS 4PCE PL    0000001000+00001490+00000+0001T   00001490+0000001318          1400 GL3830               1AZ
206620000206620               206620               170213KZ     1400+00000+KZ0000002454+0000002454+000000000+000000344+0000002790+0000000008+I20000000000+0000002790+Z
206620001206620903-000843     206620008693029031067SWT GUMMY JELAXY 80G   0000001000+00000964+00000+0001T   00000964+0000001321          1400 GL3150               1AZ
206620002206620077-000299     206620006003000395576G/BAG 32x25cm LRG LOVE 0000001000+00001490+00000+0001T   00001490+0000001321          1400 GL3112               1AZ
206621000206621               206621               170213KZ     1400+00000+KZ0000007975+0000007975+000000000+000001119+0000009094+0000000000+I40000009094+0000000000+Z
206621001206621466-000200     206621006001023621665HULA-HOOP     ASSTD    0000001000+00001753+00000+0001T   00001753+0000001324          1400 GL3785               1AZ
206621002206621007-010495     206621006003000533510BOARD DRY WIPE & PEN   0000001000+00002630+00000+0001T   00002630+0000001324          1400 GL3130               1AZ
206621003206621903-000087     206621006001704000161SWT SPECKLED-EGGS 50G  0000001000+00001139+00000+0001T   00001139+0000001324          1400 GL3150               1AZ
206621004206621903-000844     206621005010478432567SWT CANDY DL LUV HEARTS0000001000+00001314+00000+0001T   00001314+0000001324          1400 GL3150               1AZ
206621005206621903-000087     206621006001704000161SWT SPECKLED-EGGS 50G  0000001000+00001139+00000+0001T   00001139+0000001324          1400 GL31501IC            1AZ
206622000206622               206622               170213KZ     1400+00000+KZ0000003944+0000003944+000000000+000000553+0000004490+0000000007+I20000000000+0000004490+Z
206622001206622304-001011     206622006001023806727FLWR ROSE RED W/BEAR   0000001000+00000613+00000+0001T   00000788+0006471330          1400 GL3510               1AZ
206622002206622080-000113     206622006003000237449CARD&ENVLPE - LOVE     0000001000+00001753+00000+0001T   00001753+0000001330          1400 GL3112               1AZ
206622003206622077-000303     206622006001023593757GIFT-BAG PAPER MED     0000001000+00001578+00000+0001T   00001578+0000001330          1400 GL3112               1AZ
206623000206623               206623               170213KZ     1400+00000+KZ0000000876+0000000876+000000000+000000123+0000000990+0000000009+I20000000000+0000000990+Z
206623001206623077-000302     206623008010410010195GIFT-BAG 18X23CM E/D   0000001000+00000876+00000+0001T   00000876+0000001334          1400 GL3112               1AZ
206624000206624               206624               170213KZ     1400+00000+KZ0000001227+0000001227+000000000+000000172+0000001390+0000000009+I20000000000+0000001390+Z
206624001206624251-000040     206624006001023515865SEALTAPE CLEAR 48mmx50m0000001000+00001227+00000+0001T   00001227+0000001335          1400 GL3810               1AZ
206625000206625               206625               170213KZ     1400+00000+KZ0000000876+0000000876+000000000+000000123+0000000990+0000000009+I20000000000+0000000990+Z
206625001206625077-000151     206625006008766114676GIFT-WRAP C/PHANE ASSTD0000001000+00000876+00000+0001T   00000876+0000001344          1400 GL3112               1AZ
206626000206626               206626               170213KZ     1400+00000+KZ0000004382+0000004382+000000000+000000615+0000004990+0000000007+I20000000000+0000004990+Z
206626001206626077-000011-R   206626006001023808462P/TISSUE DARK 10-SHEETS0000001000+00000876+00000+0001T   00000876+0000001345          1400 GL3112               1AZ
206626002206626077-000454     206626006003000285266G/BAG METALLIC LRG EMB 0000001000+00001753+00000+0001T   00001753+0000001345          1400 GL3112               1AZ
206626003206626077-000455     206626006003000285389G/BAG METALLIC LRG SOL 0000001000+00001753+00000+0001T   00001753+0000001345          1400 GL3112               1AZ
206627000206627               206627               170213KZ     1400+00000+KZ0000004815+0000004815+000000000+000000677+0000005490+0000000002+I20000000000+0000005490+Z
206627001206627077-000407     206627006003000145096G/BAG PP 19X26X8CM     0000001000+00001314+00000+0001T   00001314+0000001346          1400 GL3112               1AZ
206627002206627077-000302     206627008010410010195GIFT-BAG 18X23CM E/D   0000001000+00000876+00000+0001T   00000876+0000001346          1400 GL3112               1AZ
206627003206627077-000407     206627006003000145096G/BAG PP 19X26X8CM     0000001000+00001314+00000+0001T   00001314+0000001346          1400 GL3112               1AZ
206627004206627080-000133-A   206627006003000647019MINI VALENTINES CARD   0000003000+00000437+00000+0001T   00000437+0000001346          1400 GL3112               1AZ
206628000206628               206628               170213KZ     1400+00000+KZ0000002192+0000002192+000000000+000000307+0000002499+0000000000+I40000002499+0000000000+Z
206628001206628301-085000     206628006003000674299 ORN OCC. LOVE HEARTS  0000001000+00002192+00000+0001T   00002192+0000001357          1400 GL3505               1AZ
206629000206629               206629               170213KZ     1400+00000+KZ0000011621+0000011621+000000000+000001629+0000013250+0000000000+I40000013250+0000000000+Z
206629001206629112-116069     206629006009681820277TCS CARRIER BAG JUMBO  0000001000+00000048+00000+0001T   00000048+0000001359          1400 GL3090               1AZ
206629002206629106-003130     206629006001023625755ICE CUBE TRAY 21-CUBE  0000002000+00002192+00000+0001T   00002192+0000001359          1400 GL3210               1AZ
206629003206629105-000750     206629006003000190270CONTAINERS 4xMINI 150ml0000002000+00001402+00000+0001T   00001402+0000001359          1400 GL3210               1AZ
206629004206629466-000074     206629006003000669202BALL RUGBY MESH 21.5cm 0000001000+00004385+00000+0001T   00004385+0000001359          1400 GL3785               1AZ
206630000206630               206630               170213KZ     1400+00000+KZ0000002190+0000002190+000000000+000000308+0000002490+0000000008+I20000000000+0000002490+Z
206630001206630080-000133-A   206630006003000647019MINI VALENTINES CARD   0000001000+00000437+00000+0001T   00000437+0000001404          1400 GL3112               1AZ
206630002206630089-000030     206630006003000575671K/CHAIN LOVE MTL ASSTD 0000001000+00001753+00000+0001T   00001753+0000001404          1400 GL3205               1AZ
206631000206631               206631               170213KZ     1400+00000+KZ0000003855+0000003855+000000000+000000541+0000004390+0000000006+I20000000000+0000004390+Z
206631001206631077-000245     206631006001023759214GIFT-RIBBON METALLICx2 0000001000+00001227+00000+0001T   00001227+0000001523          1400 GL3112               1AZ
206631002206631077-000011-D   206631006001023808554TISSUE-WRAP WHITE 10PCE0000001000+00000876+00000+0001T   00000876+0000001523          1400 GL3112               1AZ
206631003206631077-000151     206631006008766114676GIFT-WRAP C/PHANE ASSTD0000002000+00000876+00000+0001T   00000876+0000001523          1400 GL3112               1AZ
206632000206632               206632               170213KZ     1400+00000+KZ0000008326+0000008326+000000000+000001168+0000009494+0000000000+I40000009494+0000000000+Z
206632001206632016-006515     206632006003000295555S/JAR GLS EMBOSS. 250ML0000001000+00001753+00000+0001T   00001753+0000001527          1400 GL3300               1AZ
206632002206632080-000110     206632006003000237326CARD&ENVLPE BDAY-FUNNY 0000001000+00001753+00000+0001T   00001753+0000001527          1400 GL3112               1AZ
206632003206632077-000302     206632008010410010195GIFT-BAG 18X23CM E/D   0000001000+00000876+00000+0001T   00000876+0000001527          1400 GL3112               1AZ
206632004206632567-011364     206632009780709721611BK PUZZLE CROSSWORD    0000001000+00003507+00000+0001T   00003507+0000001527          1400 GL3757               1AZ
206632005206632080-000133-A   206632006003000647019MINI VALENTINES CARD   0000001000+00000437+00000+0001T   00000437+0000001527          1400 GL3112               1AZ
206633000206633               206633               170213KZ     1400+00000+KZ0000001578+0000001578+000000000+000000221+0000001790+0000000009+I20000000000+0000001790+Z
206633001206633077-000315     206633006003000181186GIFT-BAG 20x28cm MATT  0000001000+00001578+00000+0001T   00001578+0000001531          1400 GL3112               1AZ
206634000206634               206634               170213KZ     1400+00000+KZ0000012279+0000012279+000000000+000001720+0000013990+0000000009+I20000000000+0000013990+Z
206634001206634047-000514-H   206634006001023427502EXT-CORD 10m DBL-J  H&H0000001000+00012279+00000+0001T   00012279+0000001534          1400 GL3880               1AZ
206635000206635               206635               170213KZ     1400+00000+KZ0000001227+0000001227+000000000+000000172+0000001390+0000000009+I20000000000+0000001390+Z
206635001206635903-000111     206635006001704006378SWT LIQUORICE-TWISTS   0000001000+00001227+00000+0001T   00001227+0000001535          1400 GL3150               1AZ
206636000206636               206636               170213KZ     1400+00000+KZ0000001578+0000001578+000000000+000000221+0000001790+0000000009+I20000000000+0000001790+Z
206636001206636077-000303     206636006001023593757GIFT-BAG PAPER MED     0000001000+00001578+00000+0001T   00001578+0000001556          1400 GL3112               1AZ
206637000206637               206637               170213KZ     1400+00000+KZ0000001314+0000001314+000000000+000000184+0000001490+0000000008+I20000000000+0000001490+Z
206637001206637006-000166-H   206637006003000608096BALLOONS HELIUM 6PC WHT0000001000+00001314+00000+0001T   00001314+0000001559          1400 GL3131               1AZ
206638000206638               206638               170213KZ     1400+00000+KZ0000011009+0000011009+000000000+000001543+0000012552+0000000000+I40000012552+0000000000+Z
206638001206638018-050000     206638006003000412679MUG OCC LOVE TWIN BEAR 0000001000+00006139+00000+0001T   00006139+0000001631          1400 GL3515               1AZ
206638002206638080-000127     206638006003000424351VALENTINES DAY 36x24CM 0000001000+00002192+00000+0001T   00002192+0000001631          1400 GL3112               1AZ
206638003206638077-000270     206638006003000395453GIFT-BAG PPR JMB 33X45 0000001000+00002630+00000+0001T   00002630+0000001631          1400 GL3112               1AZ
206638004206638112-116069     206638006009681820277TCS CARRIER BAG JUMBO  0000001000+00000048+00000+0001T   00000048+0000001631          1400 GL3090               1AZ
206639000206639               206639               170213KZ     1400+00000+KZ0000000876+0000000876+000000000+000000123+0000000990+0000000009+I20000000000+0000000990+Z
206639001206639566-000200     206639006003000384174STICKER PUFFY NEON     0000001000+00000876+00000+0001T   00000876+0000001632          1400 GL3130               1AZ
206640000206640               206640               170213KZ     1400+00000+KZ0000000876+0000000876+000000000+000000123+0000000990+0000000009+I20000000000+0000000990+Z
206640001206640078-000025     206640008887013700064SUPERGLUE 3g 1PCE CARD 0000001000+00000876+00000+0001T   00000876+0000001632          1400 GL3810               1AZ
206641000206641               206641               170213KZ     1400+00000+KZ0000001578+0000001578+000000000+000000221+0000001799+0000000000+I40000001799+0000000000+Z
206641001206641077-000303     206641006001023593757GIFT-BAG PAPER MED     0000001000+00001578+00000+0001T   00001578+0000001706          1400 GL3112               1AZ
206642000206642               206642               170213KZ     1400+00000+KZ0000001753+0000001753+000000000+000000246+0000001990+0000000009+I20000000000+0000001990+Z
206642001206642366-004047     206642006001023834850DRESS UP ACCESS TEETH  0000001000+00001753+00000+0001T   00001753+0000001707          1400 GL3131               1AZ
206643000206643               206643               170213KZ     1400+00000+KZ0000003541+0000003541+000000000+000000497+0000004030+0000000008+I20000000000+0000004030+Z
206643001206643142-000810     206643006003000429721GLOVES LATEX PRNT CUFFS0000002000+00001753+00000+0001T   00001753+0000001708          1400 GL3810               1AZ
206643002206643112-116038     206643006009681820246TCS CARRIER BAG MIDI   0000001000+00000035+00000+0001T   00000035+0000001708          1400 GL3090               1AZ
206644000206644               206644               170213KZ     1400+00000+KZ0000006137+0000006137+000000000+000000860+0000006990+0000000007+I20000000000+0000006990+Z
206644001206644079-006498     206644006001023836151GLITTER SET 10PCE      0000001000+00003507+00000+0001T   00003507+0000001711          1400 GL3130               1AZ
206644002206644566-000006     206644006001023671189STICKER-BOOK DRESS-UP  0000001000+00002630+00000+0001T   00002630+0000001711          1400 GL3130               1AZ
206645000206645               206645               170213KZ     1400+00000+KZ0000004559+0000004559+000000000+000000639+0000005190+0000000008+I20000000000+0000005190+Z
206645001206645077-000311     206645006001023608666GIFT-BAG 11X14CM GLOSS 0000001000+00000613+00000+0001T   00000613+0000001718          1400 GL3112               1AZ
206645002206645082-098797     206645006001492987972SUNGLASS KIDS BOYS MASK0000001000+00003946+00000+0001T   00003946+0000001718          1400 GL3160               1AZ
206646000206646               206646               170213KZ     1400+00000+KZ0000006139+0000006139+000000000+000000860+0000006990+0000000009+I20000000000+0000006990+Z
206646001206646035-000021     206646006002596020206UMBRELLA GENTS         0000001000+00006139+00000+0001T   00006139+0000001719          1400 GL3205               1AZ
206647000206647               206647               170213KZ     1400+00000+KZ0000003945+0000003945+000000000+000000553+0000004498+0000000000+I40000004498+0000000000+Z
206647001206647077-000314     206647006003000181148GIFT-BAG 11X14CM MATT  0000001000+00000876+00000+0001T   00000876+0000001721          1400 GL3112               1AZ
206647002206647089-000220     206647006003000677368KEY CHAIN+PEN+KNIFE    0000001000+00003069+00000+0001T   00003069+0000001721          1400 GL3205               1AZ
206648000206648               206648               170213KZ     1400+00000+KZ0000003505+0000003505+000000000+000000492+0000003990+0000000007+I20000000000+0000003990+Z
206648001206648162-083126     206648006001492831268SS 2PK NECKLACE SET    0000001000+00001753+00000+0001T   00003507+0008161722          1400 GL3160               1AZ
206648002206648077-000302     206648008010410010195GIFT-BAG 18X23CM E/D   0000001000+00000876+00000+0001T   00000876+0000001722          1400 GL3112               1AZ
206648003206648083-000295     206648006001023898562LIGHTER-GAS BUTANE 18ml0000001000+00000876+00000+0001T   00000876+0000001722          1400 GL3315               1AZ
A17021300                                          09511995KZSLAVE 1                       GL31IC
B20662100                                          170213KZ903-000087     13232877SLAVE 1     GL31IC0000002000+0000001000+0000000000000+
M17021391                              CASH        KZSLAVE 1                       Z-REPORT No.   637TOTAL (Sales - Refunds)           4557.88       CASH TO BE BANKED                 2730.10       DEBIT CARDS                          0.00       CREDIT CARDS                      1821.88       Z-READING                         4551.98       AIRTIME DEBIT CARD SALES             0.00       AIRTIME CARD SALES                   0.00       OVERS/UNDERS                         0.00       AIRTIME CASH SALES                   0.00       GIFT CARDS                           0.00       GIFT CARD CASH SALES                 0.00       STATIONERY(PHOTOCOPIES)              5.90       T O T A L  CASH PAYOUTS              5.90                                                                                                                                                                                                                                                                                                      Z
M17021392                              CASH        KZABSENT                                                                                                                                                                                          ANNUAL LEAVE                                                                                                                                                                                    DAY OFF                                                                                                                                                                                         COMMENTS                                                                                                                                                                                                                                                                                                                                                                                       Z
Y17021300                                          KZ00000000400069+000061
ZKZ17021320003 SLAVE 1      SALES DATA                     NEXT INVOICE NO.  206649 0637
X KZ Slave 1 First invoice 206587 170213 Last invoice 206648 170213 Next invoice 206649 Total number of records 000000214 clbackup completed 20:00:26
