306035000306035               306035               170213KZ     1400+00000+KZ0000005120+0000005120+000000000+000000717+0000005830+0000000007+I20000000000+0000005830+Z
306035001306035018-000130     306035006001023867537MUG OCC LOVE MINI+HEART0000001000+00003507+00000+0001T   00003507+0000000920          1400 SM6515               2AZ
306035002306035077-000315     306035006003000181186GIFT-BAG 20x28cm MATT  0000001000+00001578+00000+0001T   00001578+0000000920          1400 SM6112               2AZ
306035003306035112-116038     306035006009681820246TCS CARRIER BAG MIDI   0000001000+00000035+00000+0001T   00000035+0000000920          1400 SM6090               2AZ
306036000306036               306036               170213KZ     1400+00000+KZ0000012398+0000012398+000000000+000001738+0000014136+0000000000+I40000014136+0000000000+Z
306036001306036112-116038     306036006009681820246TCS CARRIER BAG MIDI   0000001000+00000035+00000+0001T   00000035+0000000945          1400 SM6090               2AZ
306036002306036200-000022     306036006003000399291BAG SLIDE LOCK 15PC    0000001000+00002630+00000+0001T   00002630+0000000945          1400 SM6214               2AZ
306036003306036051-005577     306036006001023534088GARDEN-TROWEL 250mm    0000001000+00003069+00000+0001T   00003069+0000000945          1400 SM6820               2AZ
306036004306036082-000115     306036006003000360604READING GLS STRNGHT:2.50000001000+00004385+00000+0001T   00004385+0000000945          1400 SM6160               2AZ
306036005306036027-000194     306036006001246023826MOP COMPLETE           0000001000+00002279+00000+0001T   00002279+0000000945          1400 SM6212               2AZ
306037000306037               306037               170213KZ     1400+00000+KZ0000011402+0000011402+000000000+000001597+0000012990+0000000009+I20000000000+0000012990+Z
306037001306037105-009015     306037006002923000031STORAGE BOX 32L FROSTED0000001000+00011402+00000+0001T   00011402+0000001010          1400 SM6210               2AZ
306038000306038               306038               170213KZ     1400+00000+KZ0000006434+0000006434+000000000+000000901+0000007330+0000000005+I20000000000+0000007330+Z
306038001306038077-000303     306038006001023593757GIFT-BAG PAPER MED     0000001000+00001578+00000+0001T   00001578+0000001057          1400 SM6112               2AZ
306038002306038018-000130     306038006001023867537MUG OCC LOVE MINI+HEART0000001000+00003507+00000+0001T   00003507+0000001057          1400 SM6515               2AZ
306038003306038080-000114     306038006003000246472CARD&ENV LOVE-MUSICAL  0000001000+00001314+00000+0001T   00001753+0008151057          1400 SM6112               2AZ
306038004306038112-116038     306038006009681820246TCS CARRIER BAG MIDI   0000001000+00000035+00000+0001T   00000035+0000001057          1400 SM6090               2AZ
306039000306039               306039               170213KZ     1400+00000+KZ0000012279+0000012279+000000000+000001720+0000013990+0000000009+I20000000000+0000013990+Z
306039001306039049-004579     306039006002868010027DOORMAT COIR  40X60cm  0000001000+00012279+00000+0001T   00012279+0000001102          1400 SM6510               2AZ
306040000306040               306040               170213KZ     1400+00000+KZ0000018680+0000018680+000000000+000002617+0000021290+0000000007+I20000000000+0000021290+Z
306040001306040077-000303     306040006001023593757GIFT-BAG PAPER MED     0000001000+00001578+00000+0001T   00001578+0000001207          1400 SM6112               2AZ
306040002306040368-000111     306040006001023780812PLUSH BEAR/DOG 29CM    0000001000+00012279+00000+0001T   00012279+0000001207          1400 SM6745               2AZ
306040003306040301-085001     306040006003000297610ORN WATERBALL LOVE ASST0000001000+00004823+00000+0001T   00004823+0000001207          1400 SM6505               2AZ
306041000306041               306041               170213KZ     1400+00000+KZ0000006050+0000006050+000000000+000000848+0000006890+0000000008+I20000000000+0000006890+Z
306041001306041077-000010-C   306041006001023123879CREPE-PAPER RED        0000001000+00000788+00000+0001T   00000788+0000001242          1400 SM6112               2AZ
306041002306041103-000245     306041006003000571550BASKET WOVEN RECT      0000001000+00005262+00000+0001T   00005262+0000001242          1400 SM6300               2AZ
306042000306042               306042               170213KZ     1400+00000+KZ0000003331+0000003331+000000000+000000467+0000003790+0000000008+I20000000000+0000003790+Z
306042001306042301-085006     306042006001023502940ORN LOVE MSG TUBE W/HRT0000001000+00001753+00000+0001T   00001753+0000001258          1400 SM6505               2AZ
306042002306042077-000303     306042006001023593757GIFT-BAG PAPER MED     0000001000+00001578+00000+0001T   00001578+0000001258          1400 SM6112               2AZ
306043000306043               306043               170213KZ     1400+00000+KZ0000012314+0000012314+000000000+000001725+0000014030+0000000009+I20000000000+0000014030+Z
306043001306043019-000079     306043006001023775726VASE 30cm CRACK-DESIGN 0000001000+00012279+00000+0001T   00012279+0000001301          1400 SM6510               2AZ
306043002306043112-116038     306043006009681820246TCS CARRIER BAG MIDI   0000001000+00000035+00000+0001T   00000035+0000001301          1400 SM6090               2AZ
306044000306044               306044               170213KZ     1400+00000+KZ0000009850+0000009850+000000000+000001381+0000011231+0000000000+I40000011231+0000000000+Z
306044001306044112-116038     306044006009681820246TCS CARRIER BAG MIDI   0000001000+00000035+00000+0001T   00000035+0000001410          1400 SM6090               2AZ
306044002306044079-009700-M   306044006003000634101PAPER SIRIO A4 PINK COL0000001000+00000306+00000+0001T   00000306+0000001410          1400 SM6130               2AZ
306044003306044079-009700-D   306044006003000545711PAPER SIRIO A4 RED COL.0000001000+00000306+00000+0001T   00000306+0000001410          1400 SM6130               2AZ
306044004306044079-013099     306044006003000081875ART+CRAFT EYES ASSTD   0000001000+00001753+00000+0001T   00001753+0000001410          1400 SM6130               2AZ
306044005306044079-006522     306044006001023149442ART+CRAFT GLUE ASSORTED0000001000+00001753+00000+0001T   00001753+0000001410          1400 SM6130               2AZ
306044006306044079-013098     306044006003000197040ART+CRAFT SET DIY      0000001000+00003069+00000+0001T   00003069+0000001410          1400 SM6130               2AZ
306044007306044903-000194     306044006009826020616SWT CHOC RP LOLLY 25G  0000002000+00001314+00000+0001T   00001314+0000001410          1400 SM6150               2AZ
306045000306045               306045               170213KZ     1400+00000+KZ0000003331+0000003331+000000000+000000467+0000003790+0000000008+I20000000000+0000003790+Z
306045001306045077-000904     306045006003000410682G/WRAP 700mmx1m PATTERN0000001000+00001753+00000+0001T   00001753+0000001410          1400 SM6112               2AZ
306045002306045077-000315     306045006003000181186GIFT-BAG 20x28cm MATT  0000001000+00001578+00000+0001T   00001578+0000001410          1400 SM6112               2AZ
306046000306046               306046               170213KZ     1400+00000+KZ0000005261+0000005261+000000000+000000737+0000005990+0000000008+I20000000000+0000005990+Z
306046001306046263-000114     306046006001023827609CARS P/BACK RACER  4PCE0000001000+00003069+00000+0001T   00003069+0000001411          1400 SM6710               2AZ
306046002306046089-000501     306046006003000622900KEY CHAIN LIGHT LASER  0000001000+00002192+00000+0001T   00002192+0000001411          1400 SM6205               2AZ
306047000306047               306047               170213KZ     1400+00000+KZ0000005963+0000005963+000000000+000000835+0000006790+0000000008+I20000000000+0000006790+Z
306047002306047368-000049     306047006003000536955PLUSH BEAR 15cm LOVE   0000001000+00004385+00000+0001T   00004385+0000001414          1400 SM6745               2AZ
306047003306047077-000303     306047006001023593757GIFT-BAG PAPER MED     0000001000+00001578+00000+0001T   00001578+0000001414          1400 SM6112               2AZ
306048000306048               306048               170213KZ     1400+00000+KZ0000007049+0000007049+000000000+000000987+0000008030+0000000006+I20000000000+0000008030+Z
306048001306048030-001111     306048006003000336951PLAQUE-WALL R/PIN 32cm 0000002000+00003507+00000+0001T   00004385+0008121417          1400 SM6505               2AZ
306048002306048112-116038     306048006009681820246TCS CARRIER BAG MIDI   0000001000+00000035+00000+0001T   00000035+0000001417          1400 SM6090               2AZ
306049000306049               306049               170213KZ     1400+00000+KZ0000001578+0000001578+000000000+000000221+0000001790+0000000009+I20000000000+0000001790+Z
306049001306049077-000303     306049006001023593757GIFT-BAG PAPER MED     0000001000+00001578+00000+0001T   00001578+0000001419          1400 SM6112               2AZ
306050000306050               306050               170213KZ     1400+00000+KZ0000007890+0000007890+000000000+000001106+0000008990+0000000006+I20000000000+0000008990+Z
306050001306050079-013101     306050006001023863706CRAFT SET DIY PIPE-CLNR0000001000+00002630+00000+0001T   00002630+0000001422          1400 SM6130               2AZ
306050002306050079-006496     306050006003000160105GLITTER SHAKERS        0000001000+00001753+00000+0001T   00001753+0000001422          1400 SM6130               2AZ
306050003306050079-000600     306050006003000160990ART-SHEETS FOAM ASSTD-C0000001000+00003507+00000+0001T   00003507+0000001422          1400 SM6130               2AZ
306051000306051               306051               170213KZ     1400+00000+KZ0000003278+0000003278+000000000+000000460+0000003730+0000000008+I20000000000+0000003730+Z
306051001306051080-000113     306051006003000237449CARD&ENVLPE - LOVE     0000001000+00001753+00000+0001T   00001753+0000001440          1400 SM6112               2AZ
306051002306051077-000399     306051006003000139514GIFT BAG 18X23CM E/DAY 0000001000+00001490+00000+0001T   00001490+0000001440          1400 SM6112               2AZ
306051003306051112-116038     306051006009681820246TCS CARRIER BAG MIDI   0000001000+00000035+00000+0001T   00000035+0000001440          1400 SM6090               2AZ
306052000306052               306052               170213KZ     1400+00000+KZ0000002664+0000002664+000000000+000000374+0000003030+0000000008+I20000000000+0000003030+Z
306052001306052903-000087     306052006001704000161SWT SPECKLED-EGGS 50G  0000001000+00001139+00000+0001T   00001139+0000001456          1400 SM6150               2AZ
306052002306052077-000299     306052006003000395576G/BAG 32x25cm LRG LOVE 0000001000+00001490+00000+0001T   00001490+0000001456          1400 SM6112               2AZ
306052003306052112-116038     306052006009681820246TCS CARRIER BAG MIDI   0000001000+00000035+00000+0001T   00000035+0000001456          1400 SM6090               2AZ
306053000306053               306053               170213KZ     1400+00000+KZ0000002630+0000002630+000000000+000000369+0000002990+0000000009+I20000000000+0000002990+Z
306053001306053304-000720     306053006001023843050F/BUNCH ROSE 6-HEAD AST0000001000+00002630+00000+0001T   00002630+0000001458          1400 SM6510               2AZ
306054000306054               306054               170213KZ     1400+00000+KZ0000008815+0000008815+000000000+000001235+0000010050+0000000000+I40000010050+0000000000+Z
306054001306054034-091339     306054006003000568253BABY BIB 33x39cm 4ASSTD0000001000+00003507+00000+0001T   00003507+0000001500          1400 SM6215               2AZ
306054002306054084-000364     306054006001023624581MANICURE-SET 7PCE LTHR 0000001000+00003507+00000+0001T   00003507+0000001500          1400 SM6200               2AZ
306054003306054200-003024     306054006001023657299REFUSE BAGS 20PCE BLACK0000001000+00001753+00000+0001T   00001753+0000001500          1400 SM6214               2AZ
306054004306054112-116069     306054006009681820277TCS CARRIER BAG JUMBO  0000001000+00000048+00000+0001T   00000048+0000001500          1400 SM6090               2AZ
306055000306055               306055               170213KZ     1400+00000+KZ0000004418+0000004418+000000000+000000620+0000005030+0000000008+I20000000000+0000005030+Z
306055001306055038-001803     306055006001023766588DOILIES 17cm RND 18PC  0000001000+00001753+00000+0001T   00001753+0000001505          1400 SM6300               2AZ
306055002306055024-000212-A   306055006003000420155C/CUTTER SET ASSTD     0000001000+00002630+00000+0001T   00002630+0000001505          1400 SM6300               2AZ
306055003306055112-116038     306055006009681820246TCS CARRIER BAG MIDI   0000001000+00000035+00000+0001T   00000035+0000001505          1400 SM6090               2AZ
306056000306056               306056               170213KZ     1400+00000+KZ0000001261+0000001261+000000000+000000177+0000001430+0000000008+I20000000000+0000001430+Z
306056001306056304-001011     306056006001023806727FLWR ROSE RED W/BEAR   0000002000+00000613+00000+0001T   00000788+0006471508          1400 SM6510               2AZ
306056002306056112-116038     306056006009681820246TCS CARRIER BAG MIDI   0000001000+00000035+00000+0001T   00000035+0000001508          1400 SM6090               2AZ
306057000306057               306057               170213KZ     1400+00000+KZ0000002630+0000002630+000000000+000000369+0000002990+0000000009+I20000000000+0000002990+Z
306057001306057039-000320     306057006001023816153BIRTHDAY-CANDLES 13PCE 0000001000+00002630+00000+0001T   00002630+0000001514          1400 SM6510               2AZ
306058000306058               306058               170213KZ     1400+00000+KZ0000020611-0000020611-000000000+000002886-0000023500-0000000003+I20000000000+0000023500-Z
306058001306058301-085008     306058006003000673933ORN OCC.LOVE TINSEL HRT0000001000-00003069+00000+0001T   00003069+0000001515          1400 SM65051IC            2 Z
306058002306058368-000161     306058006003000167760PLUSH BEAR BABY ASSTD  0000001000-00017542+00000+0001T   00017542+0000001515          1400 SM67451IC            2 Z
306059000306059               306059               170213KZ     1400+00000+KZ0000003241+0000003241+000000000+000000454+0000003690+0000000005+I20000000000+0000003690+Z
306059001306059077-000321     306059006001023677501GIFT-BAG 11X14CM E/D FL0000001000+00000613+00000+0001T   00000613+0000001537          1400 SM6112               2AZ
306059002306059077-000310     306059006001023608635GIFT-BAG 18X23CM GLOSS 0000002000+00001314+00000+0001T   00001314+0000001537          1400 SM6112               2AZ
306060000306060               306060               170213KZ     1400+00000+KZ0000001871+0000001871+000000000+000000263+0000002130+0000000004+I20000000000+0000002130+Z
306060001306060079-009700-M   306060006003000634101PAPER SIRIO A4 PINK COL0000004000+00000306+00000+0001T   00000306+0000001539          1400 SM6130               2AZ
306060002306060079-009700-L   306060006003000546350PAPER SIRIO A4 YELLOW  0000002000+00000306+00000+0001T   00000306+0000001539          1400 SM6130               2AZ
306060003306060112-116038     306060006009681820246TCS CARRIER BAG MIDI   0000001000+00000035+00000+0001T   00000035+0000001539          1400 SM6090               2AZ
306061000306061               306061               170213KZ     1400+00000+KZ0000001753+0000001753+000000000+000000246+0000001999+0000000000+I40000001999+0000000000+Z
306061001306061039-000318     306061006003000406159B/DAY CANDLES SMALL NO 0000001000+00001753+00000+0001T   00001753+0000001541          1400 SM6510               2AZ
306062000306062               306062               170213KZ     1400+00000+KZ0000024599+0000024599+000000000+000003447+0000028040+0000000006+I20000000000+0000028040+Z
306062001306062112-116069     306062006009681820277TCS CARRIER BAG JUMBO  0000001000+00000048+00000+0001T   00000048+0000001549          1400 SM6090               2AZ
306062002306062002-220006     306062006001023670342FOOD COVER 43CM ASSTD  0000001000+00003069+00000+0001T   00003069+0000001549          1400 SM6300               2AZ
306062003306062002-220004     306062006001023467614F/COVER HEXAGONAL 70cm 0000001000+00003069+00000+0001T   00003069+0000001549          1400 SM6300               2AZ
306062004306062203-007000     306062006001023886040SHOT-GLASS DISPOSABLE  0000001000+00003507+00000+0001T   00003507+0000001549          1400 SM6300               2AZ
306062005306062464-000110     306062006001023868824PLAYING-CARDS JUMBO    0000001000+00002630+00000+0001T   00002630+0000001549          1400 SM6785               2AZ
306062006306062464-000107     306062000073854318089PLAY-CARDS 2nd (SINGLE)0000002000+00003069+00000+0001T   00003069+0000001549          1400 SM6785               2AZ
306062007306062002-220004     306062006001023467614F/COVER HEXAGONAL 70cm 0000001000+00003069+00000+0001T   00003069+0000001549          1400 SM6300               2AZ
306062008306062002-220006     306062006001023670342FOOD COVER 43CM ASSTD  0000001000+00003069+00000+0001T   00003069+0000001549          1400 SM6300               2AZ
306063000306063               306063               170213KZ     1400+00000+KZ0000007015+0000007015+000000000+000000983+0000007990+0000000008+I20000000000+0000007990+Z
306063001306063206-000310     306063006003000632787BOTTLE-STOPPER SILICONE0000001000+00002630+00000+0001T   00002630+0000001550          1400 SM6321               2AZ
306063002306063203-003082     306063006001023770752CORKSCREW DBL-LEVER CHR0000001000+00004385+00000+0001T   00004385+0000001550          1400 SM6300               2AZ
306064000306064               306064               170213KZ     1400+00000+KZ0000001753+0000001753+000000000+000000246+0000001990+0000000009+I20000000000+0000001990+Z
306064001306064080-000113     306064006003000237449CARD&ENVLPE - LOVE     0000001000+00001753+00000+0001T   00001753+0000001554          1400 SM6112               2AZ
306065000306065               306065               170213KZ     1400+00000+KZ0000017151+0000017151+000000000+000002402+0000019553+0000000000+I40000019553+0000000000+Z
306065001306065567-075700     306065006003000339389BOOK NOVEL 3-PACK ASSTD0000001000+00013157+00000+0001T   00013157+0000001600          1400 SM6757               2AZ
306065002306065566-000358     306065006003000582587STICKER ROOM DECOR WORD0000001000+00003946+00000+0001T   00003946+0000001600          1400 SM6130               2AZ
306065003306065112-116069     306065006009681820277TCS CARRIER BAG JUMBO  0000001000+00000048+00000+0001T   00000048+0000001600          1400 SM6090               2AZ
306066000306066               306066               170213KZ     1400+00000+KZ0000001490+0000001490+000000000+000000209+0000001690+0000000009+I20000000000+0000001690+Z
306066001306066077-000299     306066006003000395576G/BAG 32x25cm LRG LOVE 0000001000+00001490+00000+0001T   00001490+0000001601          1400 SM6112               2AZ
306067000306067               306067               170213KZ     1400+00000+KZ0000002630+0000002630+000000000+000000369+0000002990+0000000009+I20000000000+0000002990+Z
306067001306067006-006018     306067006001023735256PARTY-SPRAY HAIR ASSORT0000001000+00002630+00000+0001T   00002630+0000001602          1400 SM6131               2AZ
306068000306068               306068               170213KZ     1400+00000+KZ0000010994+0000010994+000000000+000001541+0000012535+0000000000+I40000012535+0000000000+Z
306068001306068112-116038     306068006009681820246TCS CARRIER BAG MIDI   0000001000+00000035+00000+0001T   00000035+0000001608          1400 SM6090               2AZ
306068002306068079-006498     306068006001023836151GLITTER SET 10PCE      0000001000+00003507+00000+0001T   00003507+0000001608          1400 SM6130               2AZ
306068003306068079-013102     306068006003000019601ART+CRAFT DIY PIPE-CLNR0000001000+00002192+00000+0001T   00002192+0000001608          1400 SM6130               2AZ
306068004306068079-013032-D   306068006003000389643RIBBONS                0000001000+00002630+00000+0001T   00002630+0000001608          1400 SM6130               2AZ
306068005306068006-000111     306068006003000519385BALLOONS LARGE 12PCE   0000001000+00002630+00000+0001T   00002630+0000001608          1400 SM6131               2AZ
306069000306069               306069               170213KZ     1400+00000+KZ0000005262+0000005262+000000000+000000737+0000005999+0000000000+I40000005999+0000000000+Z
306069001306069562-006274     306069006001023744432EDU SKETCH-BOARD       0000001000+00005262+00000+0001T   00005262+0000001610          1400 SM6755               2AZ
306070000306070               306070               170213KZ     1400+00000+KZ0000000437+0000000437+000000000+000000062+0000000490+0000000009+I20000000000+0000000490+Z
306070001306070080-000133-A   306070006003000647019MINI VALENTINES CARD   0000001000+00000437+00000+0001T   00000437+0000001610          1400 SM6112               2AZ
306071000306071               306071               170213KZ     1400+00000+KZ0000003507+0000003507+000000000+000000491+0000003998+0000000000+I40000003998+0000000000+Z
306071001306071051-600656     306071006003000422227PLANTER W/TRAY 20x20x160000001000+00003507+00000+0001T   00003507+0000001612          1400 SM6820               2AZ
306072000306072               306072               170213KZ     1400+00000+KZ0000006173+0000006173+000000000+000000865+0000007030+0000000008+I20000000000+0000007030+Z
306072001306072016-000826     306072006001023774675BOTTLE GLS W/LID ASSTD 0000002000+00003069+00000+0001T   00003069+0000001613          1400 SM6300               2AZ
306072002306072112-116038     306072006009681820246TCS CARRIER BAG MIDI   0000001000+00000035+00000+0001T   00000035+0000001613          1400 SM6090               2AZ
306073000306073               306073               170213KZ     1400+00000+KZ0000001753+0000001753+000000000+000000246+0000001999+0000000000+I40000001999+0000000000+Z
306073001306073077-000457     306073006003000285662G/BAG METALLIC JMB SOL 0000001000+00001753+00000+0001T   00001753+0000001615          1400 SM6112               2AZ
306074000306074               306074               170213KZ     1400+00000+KZ0000001753+0000001753+000000000+000000246+0000001990+0000000009+I20000000000+0000001990+Z
306074001306074077-000301     306074008010410010188BAG LRG 25X32CM B/DAY  0000001000+00001753+00000+0001T   00001753+0000001615          1400 SM6112               2AZ
306075000306075               306075               170213KZ     1400+00000+KZ0000008806+0000008806+000000000+000001233+0000010030+0000000009+I20000000000+0000010030+Z
306075001306075368-000012     306075006003000610464PLUSH BEAR 30cm SITTING0000001000+00008771+00000+0001T   00008771+0000001617          1400 SM6745               2AZ
306075002306075112-116038     306075006009681820246TCS CARRIER BAG MIDI   0000001000+00000035+00000+0001T   00000035+0000001617          1400 SM6090               2AZ
306076000306076               306076               170213KZ     1400+00000+KZ0000006611+0000006611+000000000+000000926+0000007530+0000000007+I20000000000+0000007530+Z
306076001306076077-000310     306076006001023608635GIFT-BAG 18X23CM GLOSS 0000001000+00001314+00000+0001T   00001314+0000001620          1400 SM6112               2AZ
306076002306076112-116038     306076006009681820246TCS CARRIER BAG MIDI   0000001000+00000035+00000+0001T   00000035+0000001620          1400 SM6090               2AZ
306076003306076039-000500     306076006001023816450C/VOTIVE 8PC RAINBOW   0000001000+00005262+00000+0001T   00005262+0000001620          1400 SM6510               2AZ
306077000306077               306077               170213KZ     1400+00000+KZ0000003506+0000003506+000000000+000000492+0000003998+0000000000+I40000003998+0000000000+Z
306077001306077077-000299-A   306077006003000670888GIFT-BAG PAPER JMB LOVE0000001000+00001753+00000+0001T   00001753+0000001629          1400 SM6112               2AZ
306077002306077080-000113     306077006003000237449CARD&ENVLPE - LOVE     0000001000+00001753+00000+0001T   00001753+0000001629          1400 SM6112               2AZ
306078000306078               306078               170213KZ     1400+00000+KZ0000011794+0000011794+000000000+000001653+0000013447+0000000000+I40000013447+0000000000+Z
306078001306078112-116069     306078006009681820277TCS CARRIER BAG JUMBO  0000001000+00000048+00000+0001T   00000048+0000001632          1400 SM6090               2AZ
306078002306078018-000136     306078006001023659026MUG OCC LOVE W/PLUSH   0000001000+00003507+00000+0001T   00003507+0000001632          1400 SM6515               2AZ
306078003306078077-000303     306078006001023593757GIFT-BAG PAPER MED     0000001000+00001578+00000+0001T   00001578+0000001632          1400 SM6112               2AZ
306078004306078080-000127     306078006003000424351VALENTINES DAY 36x24CM 0000001000+00002192+00000+0001T   00002192+0000001632          1400 SM6112               2AZ
306078005306078304-001011     306078006001023806727FLWR ROSE RED W/BEAR   0000003000+00000613+00000+0001T   00000788+0006471632          1400 SM6510               2AZ
306078006306078304-000720     306078006001023843050F/BUNCH ROSE 6-HEAD AST0000001000+00002630+00000+0001T   00002630+0000001632          1400 SM6510               2AZ
306079000306079               306079               170213KZ     1400+00000+KZ0000007016+0000007016+000000000+000000983+0000007990+0000000009+I20000000000+0000007990+Z
306079001306079065-003639     306079006001023787620GUITAR ROCKER          0000001000+00007016+00000+0001T   00007016+0000001633          1400 SM6745               2AZ
306080000306080               306080               170213KZ     1400+00000+KZ0000001490+0000001490+000000000+000000209+0000001690+0000000009+I20000000000+0000001690+Z
306080001306080077-000452     306080006003000284986G/BAG METALLIC MED EMB 0000001000+00001490+00000+0001T   00001490+0000001637          1400 SM6112               2AZ
306081000306081               306081               170213KZ     1400+00000+KZ0000001226+0000001226+000000000+000000172+0000001398+0000000000+I40000001398+0000000000+Z
306081001306081304-001011     306081006001023806727FLWR ROSE RED W/BEAR   0000002000+00000613+00000+0001T   00000788+0006471640          1400 SM6510               2AZ
306082000306082               306082               170213KZ     1400+00000+KZ0000010957+0000010957+000000000+000001537+0000012490+0000000004+I20000000000+0000012490+Z
306082001306082077-000373     306082006003000395217G/BAG MED 18X23CM DESGN0000001000+00001753+00000+0001T   00001753+0000001641          1400 SM6112               2AZ
306082002306082079-012263     306082006003000645602PAINT MINI PLATE SET   0000001000+00006139+00000+0001T   00006139+0000001641          1400 SM6130               2AZ
306082003306082903-000137     306082006002099004130SWEET GS JELLY BEAN 60G0000001000+00000788+00000+0001T   00000788+0000001641          1400 SM6150               2AZ
306082004306082028-000797     306082006001023812124SKEWERS 15cm 100PCE    0000001000+00000876+00000+0001T   00000876+0000001641          1400 SM6305               2AZ
306082005306082028-000795     306082006001023812063SKEWERS 10cm 100PCE 3mm0000001000+00000964+00000+0001T   00000964+0000001641          1400 SM6305               2AZ
306082006306082080-000133     306082006003000535613CARD&ENV MINI ASTD DSGN0000001000+00000437+00000+0001T   00000437+0000001641          1400 SM6112               2AZ
306083000306083               306083               170213KZ     1400+00000+KZ0000009152+0000009152+000000000+000001283+0000010430+0000000005+I20000000000+0000010430+Z
306083001306083104-000040     306083006001023846280BASKET HEART-SHAPED    0000001000+00001753+00000+0001T   00001753+0000001644          1400 SM6210               2AZ
306083002306083368-000049     306083006003000536955PLUSH BEAR 15cm LOVE   0000001000+00004385+00000+0001T   00004385+0000001644          1400 SM6745               2AZ
306083003306083080-000124     306083006003000297733CARD & ENV VALENTINES  0000001000+00001578+00000+0001T   00001578+0000001644          1400 SM6112               2AZ
306083004306083077-000150-D   306083006003000054343GIFT-WRAP CELLPHANE CLR0000001000+00000876+00000+0001T   00000876+0000001644          1400 SM6112               2AZ
306083005306083112-116038     306083006009681820246TCS CARRIER BAG MIDI   0000001000+00000035+00000+0001T   00000035+0000001644          1400 SM6090               2AZ
306083006306083903-000155     306083006009803374435SWT LOLLY I LUV U HEART0000001000+00000525+00000+0001T   00000525+0000001644          1400 SM6150               2AZ
306084000306084               306084               170213KZ     1400+00000+KZ0000013769+0000013769+000000000+000001929+0000015698+0000000000+I40000015698+0000000000+Z
306084001306084077-000299     306084006003000395576G/BAG 32x25cm LRG LOVE 0000001000+00001490+00000+0001T   00001490+0000001646          1400 SM6112               2AZ
306084002306084368-000111     306084006001023780812PLUSH BEAR/DOG 29CM    0000001000+00012279+00000+0001T   00012279+0000001646          1400 SM6745               2AZ
306085000306085               306085               170213KZ     1400+00000+KZ0000005962+0000005962+000000000+000000835+0000006790+0000000007+I20000000000+0000006790+Z
306085001306085562-000020     306085006001023800336EDU PLAY DOUGH 60g 4PC 0000001000+00003507+00000+0001T   00003507+0000001646          1400 SM6755               2AZ
306085002306085562-000009     306085006001023460134PLAY MODELLING CARDED  0000001000+00002455+00000+0001T   00002455+0000001646          1400 SM6755               2AZ
306086000306086               306086               170213KZ     1400+00000+KZ0000001752+0000001752+000000000+000000246+0000001990+0000000008+I20000000000+0000001990+Z
306086001306086077-000151     306086006008766114676GIFT-WRAP C/PHANE ASSTD0000002000+00000876+00000+0001T   00000876+0000001647          1400 SM6112               2AZ
306087000306087               306087               170213KZ     1400+00000+KZ0000002453+0000002453+000000000+000000344+0000002790+0000000007+I20000000000+0000002790+Z
306087001306087089-000030     306087006003000575671K/CHAIN LOVE MTL ASSTD 0000001000+00001753+00000+0001T   00001753+0000001648          1400 SM6205               2AZ
306087002306087018-000177     306087006001023797513MUG MINI LOVE ASSTD    0000001000+00000700+00000+0001T   00000700+0000001648          1400 SM6515               2AZ
306088000306088               306088               170213KZ     1400+00000+KZ0000003682+0000003682+000000000+000000516+0000004190+0000000008+I20000000000+0000004190+Z
306088001306088080-000127     306088006003000424351VALENTINES DAY 36x24CM 0000001000+00002192+00000+0001T   00002192+0000001649          1400 SM6112               2AZ
306088002306088077-000299     306088006003000395576G/BAG 32x25cm LRG LOVE 0000001000+00001490+00000+0001T   00001490+0000001649          1400 SM6112               2AZ
306089000306089               306089               170213KZ     1400+00000+KZ0000030032+0000030032+000000000+000004208+0000034240+0000000000+I20000000000+0000034240+Z
306089001306089112-116069     306089006009681820277TCS CARRIER BAG JUMBO  0000001000+00000048+00000+0001T   00000048+0000001651          1400 SM6090               2AZ
306089002306089103-000245     306089006003000571550BASKET WOVEN RECT      0000001000+00005262+00000+0001T   00005262+0000001651          1400 SM6300               2AZ
306089003306089566-000068     306089006003000418046POP UP LOVE 2 ASSTD    0000001000+00002192+00000+0001T   00002192+0000001651          1400 SM6130               2AZ
306089004306089080-000124     306089006003000297733CARD & ENV VALENTINES  0000001000+00001578+00000+0001T   00001578+0000001651          1400 SM6112               2AZ
306089005306089080-000139     306089006003000611690CARD & ENV MINI SET 6PC0000001000+00002192+00000+0001T   00002192+0000001651          1400 SM6112               2AZ
306089006306089071-005213     306089006001023690371CELLOTAPE 12mmx33m     0000001000+00000876+00000+0001T   00000876+0000001651          1400 SM6130               2AZ
306089007306089077-000348     306089006001023483287GIFT-BOWS 4,5cm 8PCE   0000001000+00001578+00000+0001T   00001578+0000001651          1400 SM6112               2AZ
306089008306089038-001800     306089006003000623303DOILIE PAPER HRT 24PC  0000001000+00003507+00000+0001T   00003507+0000001651          1400 SM6300               2AZ
306089009306089028-000796     306089006001023812094SKEWERS 25cm 50PCE 4mm 0000001000+00001490+00000+0001T   00001490+0000001651          1400 SM6305               2AZ
306089010306089028-000797     306089006001023812124SKEWERS 15cm 100PCE    0000001000+00000876+00000+0001T   00000876+0000001651          1400 SM6305               2AZ
306089011306089001-000175     306089006001023788108B/MUG GLS LOVE 380ML   0000001000+00004385+00000+0001T   00004385+0000001651          1400 SM6515               2AZ
306089012306089089-060027     306089006003000245871KEY-CHAIN HEART 6X6cm  0000001000+00003069+00000+0001T   00003069+0000001651          1400 SM6205               2AZ
306089013306089077-000245     306089006001023759214GIFT-RIBBON METALLICx2 0000001000+00001227+00000+0001T   00001227+0000001651          1400 SM6112               2AZ
306089014306089077-000150-D   306089006003000054343GIFT-WRAP CELLPHANE CLR0000002000+00000876+00000+0001T   00000876+0000001651          1400 SM6112               2AZ
306090000306090               306090               170213KZ     1400+00000+KZ0000009681+0000009681+000000000+000001356+0000011030+0000000007+I20000000000+0000011030+Z
306090001306090018-050000     306090006003000412679MUG OCC LOVE TWIN BEAR 0000001000+00006139+00000+0001T   00006139+0000001652          1400 SM6515               2AZ
306090002306090018-000130     306090006001023867537MUG OCC LOVE MINI+HEART0000001000+00003507+00000+0001T   00003507+0000001652          1400 SM6515               2AZ
306090003306090112-116038     306090006009681820246TCS CARRIER BAG MIDI   0000001000+00000035+00000+0001T   00000035+0000001652          1400 SM6090               2AZ
306091000306091               306091               170213KZ     1400+00000+KZ0000002630+0000002630+000000000+000000369+0000002990+0000000009+I20000000000+0000002990+Z
306091001306091301-000816     306091006003000462452ORN FIG. POLY PRINCESS 0000001000+00002630+00000+0001T   00003507+0008121653          1400 SM6505               2AZ
306092000306092               306092               170213KZ     1400+00000+KZ0000002630+0000002630+000000000+000000369+0000002990+0000000009+I20000000000+0000002990+Z
306092001306092077-000270     306092006003000395453GIFT-BAG PPR JMB 33X45 0000001000+00002630+00000+0001T   00002630+0000001653          1400 SM6112               2AZ
306093000306093               306093               170213KZ     1400+00000+KZ0000005699+0000005699+000000000+000000799+0000006490+0000000008+I20000000000+0000006490+Z
306093001306093079-013098     306093006003000197040ART+CRAFT SET DIY      0000001000+00003069+00000+0001T   00003069+0000001654          1400 SM6130               2AZ
306093002306093079-014153     306093006003000253166ART+CRAFT DRAGON PK6   0000001000+00002630+00000+0001T   00002630+0000001654          1400 SM6130               2AZ
306094000306094               306094               170213KZ     1400+00000+KZ0000005261+0000005261+000000000+000000737+0000005998+0000000000+I40000005998+0000000000+Z
306094001306094018-030000     306094006003000421060MUG OCCASIONS LOVE 2PCE0000001000+00004385+00000+0001T   00004385+0000001657          1400 SM6515               2AZ
306094002306094077-000302     306094008010410010195GIFT-BAG 18X23CM E/D   0000001000+00000876+00000+0001T   00000876+0000001657          1400 SM6112               2AZ
C30604700                                          170213KZ368-000265     14131412SLAVE 2     SM61IC0000000000+0000000000+0010000001000+
M17021301                              IT          KZATT IT                                                                                          LAST SALE FOR TODAY SLV1=206645                                     SLV2=306094                                                                 THANK YOU STANGER KZ
M17021302                              CC          KZATT CASH CONTROL                                                                                TOTAL BANKING FOR TODAY=R5719.20                                                                THANK YOU STANGER KZ
M17021391                              CASH        KZSLAVE 2                       Z-REPORT No.   643TOTAL (Sales - Refunds)           4209.49       CASH TO BE BANKED                 2989.10       DEBIT CARDS                          0.00       CREDIT CARDS                      1220.39       Z-READING                         4209.49       AIRTIME DEBIT CARD SALES             0.00       AIRTIME CARD SALES                   0.00       OVERS/UNDERS                         0.00       AIRTIME CASH SALES                   0.00       GIFT CARDS                           0.00       GIFT CARD CASH SALES                 0.00       T O T A L  CASH PAYOUTS              0.00                                                                                                                                                                                                                                                                                                                                                      Z
M17021392                              CASH        KZABSENT                                                                                                                                                                                          ANNUAL LEAVE                                                                                                                                                                                    DAY OFF                                                                                                                                                                                         COMMENTS                                                                                                                                                                                                                                                                                                                                                                                       Z
Y17021300                                          KZ00000000390117+000059
ZKZ17021320003 SLAVE 2      SALES DATA                     NEXT INVOICE NO.  306095 0643
X KZ Slave 2 First invoice 306035 170213 Last invoice 306094 170213 Next invoice 306095 Total number of records 000000222 clbackup completed 20:00:28
