400284000400284               400284               170213KZ     1400+00000+KZ0000003507+0000003507+000000000+000000491+0000003998+           I90000000000+0000000000+Z
400284001400284031-005923     400284006003000040322P/FRAME CERT PL 21x29.70000001000+00003507+00000+0001T023549330000                    1400 1IC5101ICV             Z
M17021391                              CASH        KZSLAVE 3                       Z-REPORT No.   328TOTAL (Sales - Refunds)              0.00       CASH TO BE BANKED                    0.00       DEBIT CARDS                          0.00       CREDIT CARDS                         0.00       Z-READING                            0.00       AIRTIME DEBIT CARD SALES             0.00       AIRTIME CARD SALES                   0.00       OVERS/UNDERS                         0.00       AIRTIME CASH SALES                   0.00       GIFT CARDS                           0.00       GIFT CARD CASH SALES                 0.00       T O T A L  CASH PAYOUTS              0.00                                                                                                                                                                                                                                                                                                                                                      Z
M17021392                              CASH        KZABSENT                                                                                                                                                                                          ANNUAL LEAVE                                                                                                                                                                                    DAY OFF                                                                                                                                                                                         COMMENTS                                                                                                                                                                                                                                                                                                                                                                                       Z
Y17021300                                          KZ00000000000000+000000
ZKZ17021320003 SLAVE 3      SALES DATA                     NEXT INVOICE NO.  400285 0328
L53924000354855-001-001       KZ1702131053351ICSHWETA BEHARY                                                                                                                                                                                                                                                                                                                                                                                                                                                                                                                                                                                                                                                                                                                                                                                                                                                                                                                                                                                        Z
L55321400356537-001-002       KZ1702131100131ICSHWETA BEHARY                                                                                                                                                                                                                                                                                                                                                                                                                                                                                                                                                                                                                                                                                                                                                                                                                                                                                                                                                                                        Z
L55321400356537-002-002       KZ1702131053331ICSHWETA BEHARY                                                                                                                                                                                                                                                                                                                                                                                                                                                                                                                                                                                                                                                                                                                                                                                                                                                                                                                                                                                        Z
L56343300353751-001-001       KZ1702131044161ICSHWETA BEHARY                                                                                                                                                                                                                                                                                                                                                                                                                                                                                                                                                                                                                                                                                                                                                                                                                                                                                                                                                                                        Z
L56344000354701-001-002       KZ1702131100071ICSHWETA BEHARY                                                                                                                                                                                                                                                                                                                                                                                                                                                                                                                                                                                                                                                                                                                                                                                                                                                                                                                                                                                        Z
L56344000354701-002-002       KZ1702131044291ICSHWETA BEHARY                                                                                                                                                                                                                                                                                                                                                                                                                                                                                                                                                                                                                                                                                                                                                                                                                                                                                                                                                                                        Z
L56964200353625-001-001       KZ1702131048421ICSHWETA BEHARY                                                                                                                                                                                                                                                                                                                                                                                                                                                                                                                                                                                                                                                                                                                                                                                                                                                                                                                                                                                        Z
L56971200354702-001-002       KZ1702131100341ICSHWETA BEHARY                                                                                                                                                                                                                                                                                                                                                                                                                                                                                                                                                                                                                                                                                                                                                                                                                                                                                                                                                                                        Z
L56971200354702-002-002       KZ1702131053261ICSHWETA BEHARY                                                                                                                                                                                                                                                                                                                                                                                                                                                                                                                                                                                                                                                                                                                                                                                                                                                                                                                                                                                        Z
L57000800355613-001-003       KZ1702131059311ICSHWETA BEHARY                                                                                                                                                                                                                                                                                                                                                                                                                                                                                                                                                                                                                                                                                                                                                                                                                                                                                                                                                                                        Z
L57000800355613-002-003       KZ1702131048131ICSHWETA BEHARY                                                                                                                                                                                                                                                                                                                                                                                                                                                                                                                                                                                                                                                                                                                                                                                                                                                                                                                                                                                        Z
L57000800355613-003-003       KZ1702131044191ICSHWETA BEHARY                                                                                                                                                                                                                                                                                                                                                                                                                                                                                                                                                                                                                                                                                                                                                                                                                                                                                                                                                                                        Z
L57004100354933-001-001       KZ1702131048171ICSHWETA BEHARY                                                                                                                                                                                                                                                                                                                                                                                                                                                                                                                                                                                                                                                                                                                                                                                                                                                                                                                                                                                        Z
L57040500354467-001-003       KZ1702131048251ICSHWETA BEHARY                                                                                                                                                                                                                                                                                                                                                                                                                                                                                                                                                                                                                                                                                                                                                                                                                                                                                                                                                                                        Z
L57040500354467-002-003       KZ1702131059261ICSHWETA BEHARY                                                                                                                                                                                                                                                                                                                                                                                                                                                                                                                                                                                                                                                                                                                                                                                                                                                                                                                                                                                        Z
L57040500354467-003-003       KZ1702131044261ICSHWETA BEHARY                                                                                                                                                                                                                                                                                                                                                                                                                                                                                                                                                                                                                                                                                                                                                                                                                                                                                                                                                                                        Z
L58219800359337-001-001       KZ1702131053291ICSHWETA BEHARY                                                                                                                                                                                                                                                                                                                                                                                                                                                                                                                                                                                                                                                                                                                                                                                                                                                                                                                                                                                        Z
L58375400358165-001-003       KZ1702131053441ICSHWETA BEHARY                                                                                                                                                                                                                                                                                                                                                                                                                                                                                                                                                                                                                                                                                                                                                                                                                                                                                                                                                                                        Z
L58375400358165-002-003       KZ1702131059391ICSHWETA BEHARY                                                                                                                                                                                                                                                                                                                                                                                                                                                                                                                                                                                                                                                                                                                                                                                                                                                                                                                                                                                        Z
L58375400358165-003-003       KZ1702131053221ICSHWETA BEHARY                                                                                                                                                                                                                                                                                                                                                                                                                                                                                                                                                                                                                                                                                                                                                                                                                                                                                                                                                                                        Z
V53924000000165-003-003       KZ1702131053221ICSHWE               0000000000000001702130000001ICSLAVE 3     170213154050354855N              01
V55321400000165-003-003       KZ1702131053221ICSHWE               0000000000000001702130000001ICSLAVE 3     170213154023356537N              02
V56343300000165-003-003       KZ1702131053221ICSHWE               0000000000000001702130000001ICSLAVE 3     170213154645353751N              01
V56344000000165-003-003       KZ1702131053221ICSHWE               0000000000000001702130000001ICSLAVE 3     170213154541354701N              02
V56964200000165-003-003       KZ1702131053221ICSHWE               0000000000000001702130000001ICSLAVE 3     170213154119353625N              01
V56971200000165-003-003       KZ1702131053221ICSHWE               0000000000000001702130000001ICSLAVE 3     170213154426354702N              02
V57000800000165-003-003       KZ1702131053221ICSHWE               0000000000000001702130000001ICSLAVE 3     170213154515355613N              03
V57004100000165-003-003       KZ1702131053221ICSHWE               0000000000000001702130000001ICSLAVE 3     170213154311354933Y              01
V57040500000165-003-003       KZ1702131053221ICSHWE               0000000000000001702130000001ICSLAVE 3     170213154618354467N              03
V58219800000165-003-003       KZ1702131053221ICSHWE               0000000000000001702130000001ICSLAVE 3     170213153953359337N              01
V58375400000165-003-003       KZ1702131053221ICSHWE               0000000000000001702130000001ICSLAVE 3     170213154152358165N              03
X KZ Slave 3 First invoice 400284 170213 Last invoice 400284 170213 Next invoice 400285 Total number of records 000000037 clbackup completed 20:00:30
