104813000104813               104813               170213L1     1400+00000+L10000022362+0000022362+000000000+000003132+0000025490+0000000004+I20000000000+0000025490+Z
104813001104813368-000113     104813006001023780874PLUSH BLINGED LOVE 30cm0000001000+00012279+00000+0001T   00012279+0000001229          1400 2IC745               1AZ
104813002104813566-000068     104813006003000418046POP UP LOVE 2 ASSTD    0000001000+00002192+00000+0001T   00002192+0000001229          1400 2IC130               1AZ
104813003104813566-000359     104813006003000582709STICKER BOOK LOVE SPARK0000001000+00002192+00000+0001T   00002192+0000001229          1400 2IC130               1AZ
104813004104813301-085000     104813006003000674299 ORN OCC. LOVE HEARTS  0000001000+00002192+00000+0001T   00002192+0000001229          1400 2IC505               1AZ
104813005104813079-011234     104813006001023829139ART+CRAFT PAINTING ASST0000001000+00003507+00000+0001T   00003507+0000001229          1400 2IC130               1AZ
104814000104814               104814               170213L1     1400+00000+L10000004385+0000004385+000000000+000000614+0000004990+0000000009+I20000000000+0000004990+Z
104814001104814368-000049     104814006003000536955PLUSH BEAR 15cm LOVE   0000001000+00004385+00000+0001T   00004385+0000001231          1400 2IC745               1AZ
104815000104815               104815               170213L1     1400+00000+L10000001753+0000001753+000000000+000000246+0000001990+0000000009+I20000000000+0000001990+Z
104815001104815565-000043     104815006003000109562NOVELTY BALL FUNNY FACE0000001000+00001753+00000+0001T   00001753+0000001234          1400 2IC745               1AZ
104816000104816               104816               170213L1     1400+00000+L10000001578+0000001578+000000000+000000221+0000001790+0000000009+I20000000000+0000001790+Z
104816001104816077-000303     104816006001023593757GIFT-BAG PAPER MED     0000001000+00001578+00000+0001T   00001578+0000001238          1400 2IC112               1AZ
104817000104817               104817               170213L1     1400+00000+L10000020916+0000020916+000000000+000002932+0000023848+0000000000+I40000023848+0000000000+Z
104817001104817056-065300     104817006001023625854CAR SUNSHIELD ALUM FOIL0000001000+00005262+00000+0001L   00005262+0000001240          1400 2IC860               1AZ
104817002104817034-079055-A   104817006003000488209COOEY B/BRUSH 2PCE     0000001000+00004385+00000+0001T   00004385+0000001240          1400 2IC215               1AZ
104817003104817027-056191     104817006916920933134DISH-BRUSH+HOOK RECT   0000001000+00001753+00000+0001T   00001753+0000001240          1400 2IC212               1AZ
104817004104817306-001622     104817006003000450091INNER SOLES 1-PAIR     0000001000+00002630+00000+0001T   00002630+0000001240          1400 2IC200               1AZ
104817005104817027-009025     104817006003962000747DUSTPAN-SET PL         0000001000+00002630+00000+0001T   00002630+0000001240          1400 2IC212               1AZ
104817006104817027-009032     104817006001246775107DUSTPAN JUMBO          0000001000+00003069+00000+0001T   00003069+0000001240          1400 2IC212               1AZ
104817007104817903-000087     104817006001704000161SWT SPECKLED-EGGS 50G  0000001000+00001139+00000+0001T   00001139+0000001240          1400 2IC150               1AZ
104817008104817112-116069     104817006009681820277TCS CARRIER BAG JUMBO  0000001000+00000048+00000+0001T   00000048+0000001240          1400 2IC090               1AZ
104818000104818               104818               170213L1     1400+00000+L10000010524+0000010524+000000000+000001474+0000011998+0000000000+I40000011998+0000000000+Z
104818001104818133-000083     104818006003000450510DISH DRAINING MAT      0000002000+00005262+00000+0001T   00005262+0000001249          1400 2IC212               1AZ
104819000104819               104819               170213L1     1400+00000+L10000001227+0000001227+000000000+000000172+0000001390+0000000009+I20000000000+0000001390+Z
104819001104819903-000519     104819006001704012805SWT MS LIQ-O-GHETTI    0000001000+00001227+00000+0001T   00001227+0000001432          1400 2IC150               1AZ
104820000104820               104820               170213L1     1400+00000+L10000005383+0000005383+000000000+000000754+0000006130+0000000007+I20000000000+0000006130+Z
104820001104820566-000068     104820006003000418046POP UP LOVE 2 ASSTD    0000001000+00002192+00000+0001T   00002192+0000001436          1400 2IC130               1AZ
104820002104820077-000303     104820006001023593757GIFT-BAG PAPER MED     0000002000+00001578+00000+0001T   00001578+0000001436          1400 2IC112               1AZ
104820003104820112-116038     104820006009681820246TCS CARRIER BAG MIDI   0000001000+00000035+00000+0001T   00000035+0000001436          1400 2IC090               1AZ
104821000104821               104821               170213L1     1400+00000+L10000006137+0000006137+000000000+000000860+0000006997+0000000000+I40000006997+0000000000+Z
104821001104821082-000110     104821006003000360482READING GLS STRENGHT:2 0000001000+00004385+00000+0001T   00004385+0000001511          1400 2IC160               1AZ
104821002104821033-008209     104821006001023678607MEASURING-TAPE 150cm   0000001000+00000613+00000+0001T   00000613+0000001511          1400 2IC200               1AZ
104821003104821903-000087     104821006001704000161SWT SPECKLED-EGGS 50G  0000001000+00001139+00000+0001T   00001139+0000001511          1400 2IC150               1AZ
104822000104822               104822               170213L1     1400+00000+L10000014731+0000014731+000000000+000002064+0000016795+0000000000+I40000016795+0000000000+Z
104822001104822035-000001     104822006002596010566UMBRELLA LADIES W/MINI 0000002000+00006139+00000+0001T   00006139+0000001513          1400 2IC205               1AZ
104822002104822903-000709     104822006002099007070SWT QUENCHERS FRUIT    0000001000+00001139+00000+0001T   00001139+0000001513          1400 2IC150               1AZ
104822003104822903-004950     104822006002580020304SWT APRICOT SURPRISE   0000001000+00001314+00000+0001T   00001314+0000001513          1400 2IC150               1AZ
104823000104823               104823               170213L1     1400+00000+L10000004385+0000004385+000000000+000000614+0000004990+0000000009+I20000000000+0000004990+Z
104823001104823019-000070     104823006003000297474VASE GLS CLEAR BOTTLE  0000001000+00004385+00000+0001T   00004385+0000001514          1400 2IC510               1AZ
104824000104824               104824               170213L1     1400+00000+L10000003506+0000003506+000000000+000000492+0000003998+0000000000+I40000003998+0000000000+Z
104824001104824200-003024     104824006001023657299REFUSE BAGS 20PCE BLACK0000002000+00001753+00000+0001T   00001753+0000001516          1400 2IC214               1AZ
104825000104825               104825               170213L1     1400+00000+L10000003946+0000003946+000000000+000000553+0000004499+0000000000+I40000004499+0000000000+Z
104825001104825036-000013     104825006001246500860LINT REMOVER REFILLS   0000001000+00003946+00000+0001T   00003946+0000001517          1400 2IC212               1AZ
104826000104826               104826               170213L1     1400+00000+L10000001490+0000001490+000000000+000000209+0000001690+0000000009+I20000000000+0000001690+Z
104826001104826567-014133     104826006003000560103BOOK COLOURING 48 PAGE 0000001000+00001490+00000+0001T   00001490+0000001615          1400 2IC757               1AZ
104827000104827               104827               170213L1     1400+00000+L10000024606+0000024606+000000000+000003446+0000028052+0000000000+I40000028052+0000000000+Z
104827001104827369-001018     104827006001023712141BATH EVA STICKERS 30PC 0000001000+00004385+00000+0001T   00004385+0000001639          1400 2IC745               1AZ
104827002104827001-000410     104827006003000431175BEER-TUMBLER GLASS DAD 0000001000+00011402+00000+0001T   00011402+0000001639          1400 2IC515               1AZ
104827003104827368-000012     104827006003000610464PLUSH BEAR 30cm SITTING0000001000+00008771+00000+0001T   00008771+0000001639          1400 2IC745               1AZ
104827004104827112-116069     104827006009681820277TCS CARRIER BAG JUMBO  0000001000+00000048+00000+0001T   00000048+0000001639          1400 2IC090               1AZ
104828000104828               104828               170213L1     1400+00000+L10000001578+0000001578+000000000+000000221+0000001790+0000000009+I20000000000+0000001790+Z
104828001104828565-000052     104828006003000615551NOVELTY PUTTY FARTS    0000001000+00001578+00000+0001T   00001578+0000001640          1400 2IC745               1AZ
104829000104829               104829               170213L1     1400+00000+L10000001490+0000001490+000000000+000000209+0000001690+0000000009+I20000000000+0000001690+Z
104829001104829077-000299     104829006003000395576G/BAG 32x25cm LRG LOVE 0000001000+00001490+00000+0001T   00001490+0000001658          1400 2IC112               1AZ
104830000104830               104830               170213L1     1400+00000+L10000001753+0000001753+000000000+000000246+0000001990+0000000009+I20000000000+0000001990+Z
104830001104830051-002402     104830006001023518347TRIGGER-SPRAYER  500ml 0000001000+00001753+00000+0001T   00001753+0000001717          1400 2IC820               1AZ
104831000104831               104831               170213L1     1400+00000+L10000007014+0000007014+000000000+000000982+0000007990+0000000006+I20000000000+0000007990+Z
104831001104831562-000020     104831006003000600861EDU PLAY DOUGH 60g 4PC 0000001000+00003507+00000+0001T   00003507+0000001734          1400 2IC755               1AZ
104831002104831562-000011     104831006003000600984PLAY DOUGH NEON TUBE   0000001000+00003507+00000+0001T   00003507+0000001734          1400 2IC755               1AZ
104832000104832               104832               170213L1     1400+00000+L10000013629+0000013629+000000000+000001909+0000015538+0000000000+I40000015538+0000000000+Z
104832001104832024-091102     104832006003453000010BAKING-CUP PAPER 50PC  0000001000+00002192+00000+0001T   00002192+0000001735          1400 2IC300               1AZ
104832002104832024-000122     104832006003000240746NON-STICK CUP CAKE PAN 0000001000+00011402+00000+0001T   00011402+0000001735          1400 2IC300               1AZ
104832003104832112-116038     104832006009681820246TCS CARRIER BAG MIDI   0000001000+00000035+00000+0001T   00000035+0000001735          1400 2IC090               1AZ
104833000104833               104833               170213L1     1400+00000+L10000023062+0000023062+000000000+000003232+0000026294+0000000000+I40000026294+0000000000+Z
104833001104833368-000004     104833006003000098378PLUSH UNICORN 30cm     0000001000+00014911+00000+0001T   00014911+0000001742          1400 2IC745               1AZ
104833002104833077-000354     104833006003000139224GIFT-BAG 25X32CM H/MADE0000001000+00001753+00000+0001T   00001753+0000001742          1400 2IC112               1AZ
104833003104833903-000099     104833006923431501646SWT CANDY GS WTCH B/LET0000001000+00000262+00000+0001T   00000262+0000001742          1400 2IC150               1AZ
104833004104833903-000094     104833006923431501622SWT GS CANDY NECKLACE  0000001000+00000437+00000+0001T   00000437+0000001742          1400 2IC150               1AZ
104833005104833082-012383     104833006001492123837#SUNGLASS KIDS OVAL    0000001000+00003946+00000+0001T   00003946+0000001742          1400 2IC160               1AZ
104833006104833903-000082     104833006001704014892SWT MINI WINE GUMS 100G0000001000+00001753+00000+0001T   00001753+0000001742          1400 2IC150               1AZ
104834000104834               104834               170213L1     1400+00000+L10000003945+0000003945+000000000+000000553+0000004498+0000000000+I40000004498+0000000000+Z
104834001104834020-000015     104834006003000353118KITCHEN SCISSOR 3-ASSTD0000001000+00001753+00000+0001T   00001753+0000001820          1400 2IC300               1AZ
104834002104834080-000127     104834006003000424351VALENTINES DAY 36x24CM 0000001000+00002192+00000+0001T   00002192+0000001820          1400 2IC112               1AZ
104835000104835               104835               170213L1     1400+00000+L10000001311+0000001311+000000000+000000186+0000001497+0000000000+I40000001497+0000000000+Z
104835001104835080-000133-A   104835006003000647019MINI VALENTINES CARD   0000003000+00000437+00000+0001T   00000437+0000001825          1400 2IC112               1AZ
104836000104836               104836               170213L1     1400+00000+L10000003805+0000003805+000000000+000000533+0000004330+0000000008+I20000000000+0000004330+Z
104836001104836158-008936     104836006001023653758PAPER-TOWEL-HOLDER FLWR0000001000+00002192+00000+0001T   00002192+0000001827          1400 2IC300               1AZ
104836002104836080-000124     104836006003000297733CARD & ENV VALENTINES  0000001000+00001578+00000+0001T   00001578+0000001827          1400 2IC112               1AZ
104836003104836112-116038     104836006009681820246TCS CARRIER BAG MIDI   0000001000+00000035+00000+0001T   00000035+0000001827          1400 2IC090               1AZ
104837000104837               104837               170213L1     1400+00000+L10000003504+0000003504+000000000+000000492+0000003990+0000000006+I20000000000+0000003990+Z
104837001104837033-005931     104837006001023678447PINS ON-WHEEL PEARLIZED0000004000+00000876+00000+0001T   00000876+0000001856          1400 2IC200               1AZ
104838000104838               104838               170213L1     1400+00000+L10000018449+0000018449+000000000+000002585+0000021034+0000000000+I40000021034+0000000000+Z
104838001104838047-009010     104838006001023120267DOOR-WINDOW-ALARM B/O  0000003000+00004385+00000+0001T   00004385+0000001858          1400 2IC880               1AZ
104838002104838046-002013-PK6 104838004897006174851BATTERY BUTTON AG13 6PC0000003000+00001753+00000+0001T   00001753+0000001858          1400 2IC312               1AZ
104838003104838112-116038     104838006009681820246TCS CARRIER BAG MIDI   0000001000+00000035+00000+0001T   00000035+0000001858          1400 2IC090               1AZ
104839000104839               104839               170213L1     1400+00000+L10000013011+0000013011+000000000+000001823+0000014834+0000000000+I40000014834+0000000000+Z
104839001104839368-000049     104839006003000536955PLUSH BEAR 15cm LOVE   0000002000+00004385+00000+0001T   00004385+0000001907          1400 2IC745               1AZ
104839002104839112-116038     104839006009681820246TCS CARRIER BAG MIDI   0000001000+00000035+00000+0001T   00000035+0000001907          1400 2IC090               1AZ
104839003104839903-000503     104839006001704006118SWT VAMPIRE FANGS 60G  0000002000+00000876+00000+0001T   00000876+0000001907          1400 2IC150               1AZ
104839004104839903-000518     104839006001704012782SWT STRAWS S/BERRY 100g0000002000+00001227+00000+0001T   00001227+0000001907          1400 2IC150               1AZ
104840000104840               104840               170213L1     1400+00000+L10000001050+0000001050+000000000+000000148+0000001190+0000000008+I20000000000+0000001190+Z
104840001104840304-001011     104840006001023806727FLWR ROSE RED W/BEAR   0000001000+00000613+00000+0001T   00000788+0006471908          1400 2IC510               1AZ
104840002104840080-000133-A   104840006003000647019MINI VALENTINES CARD   0000001000+00000437+00000+0001T   00000437+0000001908          1400 2IC112               1AZ
A17021300                                          09211703L1SLAVE 1                       2IC2IC
A17021301                                          10130634L1SLAVE 1                       2IC2IC
A17021302                                          13434050L1SLAVE 1                       1IC1IC
A17021303                                          13441080L1SLAVE 1                       1IC1IC
A17021304                                          13471118L1SLAVE 1                       1IC1IC
A17021305                                          13560392L1SLAVE 1                       1IC1IC
A17021306                                          13585294L1SLAVE 1                       1IC1IC
A17021307                                          16381035L1SLAVE 1                       2IC2IC
A17021308                                          17084320L1SLAVE 1                       2IC2IC
M17021301                              IT          L1FROM WOODLANDS L1                                                                               LAST TILL SLIP NO:104840  13/02/17                                                              THANX
M17021302                              SHIEHAAM    L1FROM WOODLANDS L1                                                                               TOTAL CASH BANKING==R714.30  13/02/17                                                           THANX
M17021391                              CASH        L1SLAVE 1                       Z-REPORT No.   517TOTAL (Sales - Refunds)           2513.12       CASH TO BE BANKED                  714.30       DEBIT CARDS                          0.00       CREDIT CARDS                      1798.82       Z-READING                         2513.12       AIRTIME DEBIT CARD SALES             0.00       AIRTIME CARD SALES                   0.00       OVERS/UNDERS                         0.00       AIRTIME CASH SALES                   0.00       GIFT CARDS                           0.00       GIFT CARD CASH SALES                 0.00       T O T A L  CASH PAYOUTS              0.00                                                                                                                                                                                                                                                                                                                                                      Z
M17021392                              CASH        L1ABSENT                                                                                                                                                                                          ANNUAL LEAVE                                                                                                                                                                                    DAY OFF                                                                                                                                                                                         COMMENTS                                                                                                                                                                                                                                                                                                                                                                                       Z
Y17021300                                          L100000000220530+000028
ZL117021320003 SLAVE 1      SALES DATA                     NEXT INVOICE NO.  104841 0517
X L1 Slave 1 First invoice 104813 170213 Last invoice 104840 170213 Next invoice 104841 Total number of records 000000108 clbackup completed 20:00:31
