204449000204449               204449               170213L1     1400+00000+L10000002980+0000002980+000000000+000000418+0000003390+0000000008+I20000000000+0000003390+Z
204449001204449903-000200     204449006009826020234SWT CHOC RP CHOCO 23G  0000001000+00000788+00000+0001T   00000788+0000000928          1400 LM1150               2BZ
204449002204449018-000170     204449006001023775528MUG OCC. LOVE 2PC MINI 0000001000+00002192+00000+0001T   00002192+0000000928          1400 LM1515               2BZ
204450000204450               204450               170213L1     1400+00000+L10000001753+0000001753+000000000+000000246+0000001990+0000000009+I20000000000+0000001990+Z
204450001204450107-002117     204450006002580008890BASIN PL 32cm(VIRGIN)4L0000001000+00001753+00000+0001T   00001753+0000000941          1400 LM1210               2BZ
204451000204451               204451               170213L1     1400+00000+L10000002192+0000002192+000000000+000000307+0000002490+0000000009+I20000000000+0000002490+Z
204451001204451563-000318-L   204451006003000407088SERVIETTES 33cm RED    0000001000+00002192+00000+0001T   00002192+0000000941          1400 LM1214               2BZ
204452000204452               204452               170213L1     1400+00000+L10000007804+0000007804+000000000+000001093+0000008897+0000000000+I40000008897+0000000000+Z
204452001204452206-000160     204452006003000628780CORN KERNELER          0000001000+00004385+00000+0001T   00004385+0000001056          1400 LM1321               2BZ
204452002204452206-000630     204452006003000631919SPECTACLE CLEANING BRUS0000001000+00001227+00000+0001T   00001227+0000001056          1400 LM1321               2BZ
204452003204452206-000245     204452006003000680818BOTTLE CLEANER PLASTIC 0000001000+00002192+00000+0001T   00002192+0000001056          1400 LM1321               2BZ
204453000204453               204453               170213L1     1400+00000+L10000007893+0000007893+000000000+000001106+0000008999+0000000000+I40000008999+0000000000+Z
204453001204453082-000125     204453006003000646395READING GLASS TWIN 2   0000001000+00007893+00000+0001T   00007893+0000001103          1400 LM1160               2BZ
204454000204454               204454               170213L1     1400+00000+L10000001753+0000001753+000000000+000000246+0000001990+0000000009+I20000000000+0000001990+Z
204454001204454078-000030     204454006003000151141YAMAYO SUPERGLUE 8g    0000001000+00001753+00000+0001T   00001753+0000001129          1400 LM1810               2BZ
204455000204455               204455               170213L1     1400+00000+L10000004647+0000004647+000000000+000000651+0000005290+0000000008+I20000000000+0000005290+Z
204455001204455077-000303     204455006001023593757GIFT-BAG PAPER MED     0000001000+00001578+00000+0001T   00001578+0000001135          1400 LM1112               2BZ
204455002204455089-060027     204455006003000245871KEY-CHAIN HEART 6X6cm  0000001000+00003069+00000+0001T   00003069+0000001135          1400 LM1205               2BZ
204456000204456               204456               170213L1     1400+00000+L10000008806+0000008806+000000000+000001233+0000010030+0000000009+I20000000000+0000010030+Z
204456001204456001-091415     204456006003000329113W/GLS OCC. LOVE 2PC 2800000001000+00008771+00000+0001T   00009648+0006471136          1400 LM1515               2BZ
204456002204456112-116038     204456006009681820246TCS CARRIER BAG MIDI   0000001000+00000035+00000+0001T   00000035+0000001136          1400 LM1090               2BZ
204457000204457               204457               170213L1     1400+00000+L10000010116+0000010116+000000000+000001419+0000011535+0000000000+I40000011535+0000000000+Z
204457001204457565-000071     204457006003000643387NOVELTY WIND UP CHATTER0000001000+00001139+00000+0001T   00001139+0000001248          1400 LM1745               2BZ
204457002204457206-000140     204457006003000628544TEA INFUSER SIL. SUB.  0000001000+00003069+00000+0001T   00003069+0000001248          1400 LM1321               2BZ
204457003204457036-000151     204457006001023810588COATHANGERS    PACK-10 0000001000+00002893+00000+0001T   00002893+0000001248          1400 LM1212               2BZ
204457004204457565-004101     204457006003000548033BALL BOUNCING EGG      0000001000+00001490+00000+0001T   00001490+0000001248          1400 LM1745               2BZ
204457005204457112-116038     204457006009681820246TCS CARRIER BAG MIDI   0000001000+00000035+00000+0001T   00000035+0000001248          1400 LM1090               2BZ
204457006204457565-004101     204457006003000548033BALL BOUNCING EGG      0000001000+00001490+00000+0001T   00001490+0000001248          1400 LM1745               2BZ
204458000204458               204458               170213L1     1400+00000+L10000006606+0000006606+000000000+000000927+0000007533+0000000000+I40000007533+0000000000+Z
204458001204458362-003000     204458006003000295258GIRL HEART NOTEBOOK    0000002000+00001753+00000+0001T   00002630+0008191251          1400 LM1160               2BZ
204458002204458903-000194     204458006009826020616SWT CHOC RP LOLLY 25G  0000002000+00001314+00000+0001T   00001314+0000001251          1400 LM1150               2BZ
204458003204458112-116038     204458006009681820246TCS CARRIER BAG MIDI   0000001000+00000035+00000+0001T   00000035+0000001251          1400 LM1090               2BZ
204458004204458080-000133-A   204458006003000647019MINI VALENTINES CARD   0000001000+00000437+00000+0001T   00000437+0000001251          1400 LM1112               2BZ
204459000204459               204459               170213L1     1400+00000+L10000001314+0000001314+000000000+000000184+0000001490+0000000008+I20000000000+0000001490+Z
204459001204459903-000194     204459006009826020616SWT CHOC RP LOLLY 25G  0000001000+00001314+00000+0001T   00001314+0000001251          1400 LM1150               2BZ
204460000204460               204460               170213L1     1400+00000+L10000018923+0000018923+000000000+000002651+0000021574+0000000000+I40000021574+0000000000+Z
204460001204460048-000860     204460000694202203880TORCH 9 LED ALUM 3XAAA 0000001000+00004385+00000+0001T   00004385+0000001255          1400 LM1305               2BZ
204460002204460048-000823     204460006003000063611TORCH DYNAMO 2LED 10cm 0000001000+00003069+00000+0001T   00003069+0000001255          1400 LM1305               2BZ
204460003204460048-000860     204460000694202203880TORCH 9 LED ALUM 3XAAA 0000001000+00004385+00000+0001T   00004385+0000001255          1400 LM1305               2BZ
204460004204460046-000014-A   204460004897006177708BATTERIES SIZE:AAA 8PCE0000001000+00001753+00000+0001T   00001753+0000001255          1400 LM1312               2BZ
204460005204460566-000991     204460000721129013121STICKERS GLOW-IN-DARK  0000001000+00002192+00000+0001T   00002192+0000001255          1400 LM1130               2BZ
204460006204460112-116038     204460006009681820246TCS CARRIER BAG MIDI   0000002000+00000035+00000+0001T   00000035+0000001255          1400 LM1090               2BZ
204460007204460048-000823     204460006003000063611TORCH DYNAMO 2LED 10cm 0000001000+00003069+00000+0001T   00003069+0000001255          1400 LM1305               2BZ
204461000204461               204461               170213L1     1400+00000+L10000007893+0000007893+000000000+000001106+0000008999+0000000000+I40000008999+0000000000+Z
204461001204461035-000023     204461006001023898944UMBRELLA WITH PL COVER 0000001000+00007893+00000+0001T   00007893+0000001305          1400 LM1205               2BZ
204462000204462               204462               170213L1     1400+00000+L10000002401+0000002401+000000000+000000337+0000002730+0000000008+I20000000000+0000002730+Z
204462001204462304-001011     204462006001023806727FLWR ROSE RED W/BEAR   0000001000+00000613+00000+0001T   00000788+0006471326          1400 LM1510               2BZ
204462002204462080-000113     204462006003000237449CARD&ENVLPE - LOVE     0000001000+00001753+00000+0001T   00001753+0000001326          1400 LM1112               2BZ
204462003204462112-116038     204462006009681820246TCS CARRIER BAG MIDI   0000001000+00000035+00000+0001T   00000035+0000001326          1400 LM1090               2BZ
204463000204463               204463               170213L1     1400+00000+L10000006139+0000006139+000000000+000000860+0000006990+0000000009+I20000000000+0000006990+Z
204463001204463035-000021     204463006002596020206UMBRELLA GENTS         0000001000+00006139+00000+0001T   00006139+0000001342          1400 LM1205               2BZ
204464000204464               204464               170213L1     1400+00000+L10000000000+0000000000+000000000+000000000+0000000000+0000000000+ 00000000000+0000000000+Z
204465000204465               204465               170213L1     1400+00000+L10000002100+0000002100+000000000+000000296+0000002390+0000000006+I20000000000+0000002390+Z
204465001204465903-000151     204465006009803374411SWT SML RND R/BOW LOLLY0000004000+00000525+00000+0001T   00000525+0000001420          1400 LM1150               2BZ
204466000204466               204466               170213L1     1400+00000+L10000007892+0000007892+000000000+000001106+0000008998+0000000000+I40000008998+0000000000+Z
204466001204466035-000001     204466006002596010566UMBRELLA LADIES W/MINI 0000001000+00006139+00000+0001T   00006139+0000001430          1400 LM1205               2BZ
204466002204466903-000211     204466006002099001238SWT GS MALLOW ICE CREAM0000001000+00001753+00000+0001T   00001753+0000001430          1400 LM1150               2BZ
204467000204467               204467               170213L1     1400+00000+L10000002362+0000002362+000000000+000000334+0000002690+0000000006+I20000000000+0000002690+Z
204467001204467071-000212     204467006009608641190CHALK WHITE 12PCE      0000003000+00000437+00000+0001T   00000437+0000001542          1400 LM1130               2BZ
204467002204467903-002850     204467000000087108262MENTOS ROLL FRUIT      0000001000+00001051+00000+0001T   00001051+0000001542          1400 LM1150               2BZ
204468000204468               204468               170213L1     1400+00000+L10000021074+0000021074+000000000+000002951+0000024025+0000000000+I40000024025+0000000000+Z
204468001204468566-000991     204468000721129013121STICKERS GLOW-IN-DARK  0000003000+00002192+00000+0001T   00002192+0000001554          1400 LM1130               2BZ
204468002204468018-000130     204468006001023867537MUG OCC LOVE MINI+HEART0000003000+00003507+00000+0001T   00003507+0000001554          1400 LM1515               2BZ
204468003204468903-000194     204468006009826020616SWT CHOC RP LOLLY 25G  0000003000+00001314+00000+0001T   00001314+0000001554          1400 LM1150               2BZ
204468004204468112-116038     204468006009681820246TCS CARRIER BAG MIDI   0000001000+00000035+00000+0001T   00000035+0000001554          1400 LM1090               2BZ
204469000204469               204469               170213L1     1400+00000+L10000006698+0000006698+000000000+000000938+0000007630+0000000006+I20000000000+0000007630+Z
204469001204469018-005009     204469006001023725608MUG W/PLUSH-BEAR LOVE  0000001000+00003507+00000+0001T   00003507+0000001557          1400 LM1515               2BZ
204469002204469077-000303     204469006001023593757GIFT-BAG PAPER MED     0000002000+00001578+00000+0001T   00001578+0000001557          1400 LM1112               2BZ
204469003204469112-116038     204469006009681820246TCS CARRIER BAG MIDI   0000001000+00000035+00000+0001T   00000035+0000001557          1400 LM1090               2BZ
204470000204470               204470               170213L1     1400+00000+L10000001578+0000001578+000000000+000000221+0000001790+0000000009+I20000000000+0000001790+Z
204470001204470077-000303     204470006001023593757GIFT-BAG PAPER MED     0000001000+00001578+00000+0001T   00001578+0000001559          1400 LM1112               2BZ
204471000204471               204471               170213L1     1400+00000+L10000005085+0000005085+000000000+000000712+0000005790+0000000007+I20000000000+0000005790+Z
204471001204471077-000303     204471006001023593757GIFT-BAG PAPER MED     0000001000+00001578+00000+0001T   00001578+0000001610          1400 LM1112               2BZ
204471002204471031-000002-A   204471006003000247103P/FRAME LOVE 7.5X7.5CM 0000001000+00003507+00000+0001T   00003507+0000001610          1400 LM1510               2BZ
204472000204472               204472               170213L1     1400+00000+L10000002629+0000002629+000000000+000000369+0000002990+0000000008+I20000000000+0000002990+Z
204472001204472903-000710     204472006002099007056SWT REFRESHERS MINT    0000001000+00001139+00000+0001T   00001139+0000001611          1400 LM1150               2BZ
204472002204472077-000399     204472006003000139514GIFT BAG 18X23CM E/DAY 0000001000+00001490+00000+0001T   00001490+0000001611          1400 LM1112               2BZ
204473000204473               204473               170213L1     1400+00000+L10000005262+0000005262+000000000+000000737+0000005999+0000000000+I40000005999+0000000000+Z
204473001204473024-000165-F   204473006003000674671N/STICK MUFFIN PAN     0000001000+00005262+00000+0001T   00005262+0000001619          1400 LM1300               2BZ
204474000204474               204474               170213L1     1400+00000+L10000004031+0000004031+000000000+000000565+0000004596+0000000000+I40000004596+0000000000+Z
204474001204474018-000177     204474006001023797513MUG MINI LOVE ASSTD    0000001000+00000700+00000+0001T   00000700+0000001625          1400 LM1515               2BZ
204474002204474080-000124     204474006003000297733CARD & ENV VALENTINES  0000001000+00001578+00000+0001T   00001578+0000001625          1400 LM1112               2BZ
204474003204474566-001500     204474006003000658275STICKER PUFFY EMOTION  0000001000+00001753+00000+0001T   00001753+0000001625          1400 LM1130               2BZ
204475000204475               204475               170213L1     1400+00000+L10000001490+0000001490+000000000+000000209+0000001690+0000000009+I20000000000+0000001690+Z
204475001204475140-001004     204475006001023880932FLY-RIBBONS 4PCE PL    0000001000+00001490+00000+0001T   00001490+0000001626          1400 LM1830               2BZ
204476000204476               204476               170213L1     1400+00000+L10000007534+0000007534+000000000+000001057+0000008591+0000000000+I40000008591+0000000000+Z
204476001204476080-000124     204476006003000297733CARD & ENV VALENTINES  0000001000+00001578+00000+0001T   00001578+0000001628          1400 LM1112               2BZ
204476002204476018-000177     204476006001023797513MUG MINI LOVE ASSTD    0000002000+00000700+00000+0001T   00000700+0000001628          1400 LM1515               2BZ
204476003204476903-000087     204476006001704000161SWT SPECKLED-EGGS 50G  0000004000+00001139+00000+0001T   00001139+0000001628          1400 LM1150               2BZ
204477000204477               204477               170213L1     1400+00000+L10000003507+0000003507+000000000+000000491+0000003990+0000000008+I20000000000+0000003990+Z
204477001204477018-005009     204477006001023725608MUG W/PLUSH-BEAR LOVE  0000001000+00003507+00000+0001T   00003507+0000001631          1400 LM1515               2BZ
204478000204478               204478               170213L1     1400+00000+L10000001578+0000001578+000000000+000000221+0000001790+0000000009+I20000000000+0000001790+Z
204478001204478077-000303     204478006001023593757GIFT-BAG PAPER MED     0000001000+00001578+00000+0001T   00001578+0000001633          1400 LM1112               2BZ
204479000204479               204479               170213L1     1400+00000+L10000013418+0000013418+000000000+000001879+0000015290+0000000007+I20000000000+0000015290+Z
204479001204479031-007004     204479006003000463077P/FRAME A3 CERTIFICATE 0000001000+00008771+00000+0001T   00008771+0000001638          1400 LM1510               2BZ
204479002204479077-000380     204479006003000247585GIFT-BAG 33X45CM S/COL 0000001000+00002455+00000+0001T   00002455+0000001638          1400 LM1112               2BZ
204479003204479080-000127     204479006003000424351VALENTINES DAY 36x24CM 0000001000+00002192+00000+0001T   00002192+0000001638          1400 LM1112               2BZ
204480000204480               204480               170213L1     1400+00000+L10000009678+0000009678+000000000+000001357+0000011035+0000000000+I40000011035+0000000000+Z
204480001204480077-000310     204480006001023608635GIFT-BAG 18X23CM GLOSS 0000001000+00001314+00000+0001T   00001314+0000001640          1400 LM1112               2BZ
204480002204480007-000724     204480006003000225958NOTE MAGNETIC 60SHTS   0000001000+00001753+00000+0001T   00001753+0000001640          1400 LM1130               2BZ
204480003204480080-000133-A   204480006003000647019MINI VALENTINES CARD   0000001000+00000437+00000+0001T   00000437+0000001640          1400 LM1112               2BZ
204480004204480018-040000     204480006003000421183MUG OCCASIONS DAD 2PCE 0000001000+00006139+00000+0001T   00006139+0000001640          1400 LM1515               2BZ
204480005204480112-116038     204480006009681820246TCS CARRIER BAG MIDI   0000001000+00000035+00000+0001T   00000035+0000001640          1400 LM1090               2BZ
204481000204481               204481               170213L1     1400+00000+L10000004385+0000004385+000000000+000000614+0000004990+0000000009+I20000000000+0000004990+Z
204481001204481031-000868-D   204481006003000580330P/FRAME PL BLCK CERT.  0000001000+00004385+00000+0001T   00004385+0000001644          1400 LM1510               2BZ
204482000204482               204482               170213L1     1400+00000+L10000006433+0000006433+000000000+000000903+0000007336+0000000000+I40000007336+0000000000+Z
204482001204482036-000063     204482006009654960436COATHANGERS VIRGIN 5PCE0000003000+00001753+00000+0001T   00001753+0000001659          1400 LM1212               2BZ
204482002204482112-116038     204482006009681820246TCS CARRIER BAG MIDI   0000001000+00000035+00000+0001T   00000035+0000001659          1400 LM1090               2BZ
204482003204482903-000087     204482006001704000161SWT SPECKLED-EGGS 50G  0000001000+00001139+00000+0001T   00001139+0000001659          1400 LM1150               2BZ
204483000204483               204483               170213L1     1400+00000+L10000002455+0000002455+000000000+000000344+0000002790+0000000009+I20000000000+0000002790+Z
204483001204483077-000380     204483006003000247585GIFT-BAG 33X45CM S/COL 0000001000+00002455+00000+0001T   00002455+0000001703          1400 LM1112               2BZ
204484000204484               204484               170213L1     1400+00000+L10000005261+0000005261+000000000+000000737+0000005990+0000000008+I20000000000+0000005990+Z
204484001204484162-097719     204484006001492977195#TAG NECKLACE          0000001000+00004385+00000+0001T   00004385+0000001710          1400 LM1160               2BZ
204484002204484077-000011-D   204484006001023808554TISSUE-WRAP WHITE 10PCE0000001000+00000876+00000+0001T   00000876+0000001710          1400 LM1112               2BZ
204485000204485               204485               170213L1     1400+00000+L10000020242+0000020242+000000000+000002835+0000023077+0000000000+I40000023077+0000000000+Z
204485001204485368-000637     204485006001023874092PLUSH BEAR SLEEPING LOV0000001000+00011402+00000+0001T   00012279+0006471712          1400 LM1745               2BZ
204485002204485368-000012     204485006003000610464PLUSH BEAR 30cm SITTING0000001000+00008771+00000+0001T   00008771+0000001712          1400 LM1745               2BZ
204485003204485112-116053     204485006006438002399TCS CARRIER BAG 38L    0000001000+00000069+00000+0001T   00000069+0000001712          1400 LM1090               2BZ
204486000204486               204486               170213L1     1400+00000+L10000005297+0000005297+000000000+000000742+0000006039+0000000000+I40000006039+0000000000+Z
204486001204486018-019000     204486006003000557288MUG OCC. LOVE JUMBO    0000001000+00005262+00000+0001T   00005262+0000001714          1400 LM1515               2BZ
204486002204486112-116038     204486006009681820246TCS CARRIER BAG MIDI   0000001000+00000035+00000+0001T   00000035+0000001714          1400 LM1090               2BZ
204487000204487               204487               170213L1     1400+00000+L10000014939+0000014939+000000000+000002095+0000017030+0000000004+I20000000000+0000017030+Z
204487001204487265-001646     204487006001023755902BATTERY OPERATED CAR   0000001000+00004385+00000+0001T   00004385+0000001717          1400 LM1710               2BZ
204487002204487079-000260     204487006001023886385PAINT TUBS WT BASE 4COL0000002000+00002630+00000+0001T   00002630+0000001717          1400 LM1130               2BZ
204487003204487565-000002     204487006003000308071NOVELTY GROWING ANIMALS0000002000+00001753+00000+0001T   00001753+0000001717          1400 LM1745               2BZ
204487004204487112-116038     204487006009681820246TCS CARRIER BAG MIDI   0000001000+00000035+00000+0001T   00000035+0000001717          1400 LM1090               2BZ
204487005204487046-000014-A   204487004897006177708BATTERIES SIZE:AAA 8PCE0000001000+00001753+00000+0001T   00001753+0000001717          1400 LM1312               2BZ
204488000204488               204488               170213L1     1400+00000+L10000004995+0000004995+000000000+000000701+0000005690+0000000006+I20000000000+0000005690+Z
204488001204488077-000314     204488006003000181148GIFT-BAG 11X14CM MATT  0000002000+00000876+00000+0001T   00000876+0000001721          1400 LM1112               2BZ
204488002204488077-000311     204488006001023608666GIFT-BAG 11X14CM GLOSS 0000001000+00000613+00000+0001T   00000613+0000001721          1400 LM1112               2BZ
204488003204488089-000191     204488006003000430185KEY CHAIN BEAR 10CM    0000001000+00002630+00000+0001T   00002630+0000001721          1400 LM1205               2BZ
204489000204489               204489               170213L1     1400+00000+L10000010112+0000010112+000000000+000001418+0000011530+0000000000+I40000011530+0000000000+Z
204489001204489903-000070     204489006001704001106SWT TOFFEE CREAMY 35g  0000002000+00000700+00000+0001T   00000700+0000001755          1400 LM1150               2BZ
204489002204489301-085004     204489006003000420469ORN LOVE PLAQUE 21X10CM0000001000+00003507+00000+0001T   00003946+0006471755          1400 LM1505               2BZ
204489003204489903-000610     204489006003000610518SWEET JUMBO BUBBLE GUM 0000002000+00001753+00000+0001T   00001753+0000001755          1400 LM1150               2BZ
204489004204489080-000133-A   204489006003000647019MINI VALENTINES CARD   0000001000+00000437+00000+0001T   00000437+0000001755          1400 LM1112               2BZ
204489005204489112-116038     204489006009681820246TCS CARRIER BAG MIDI   0000001000+00000035+00000+0001T   00000035+0000001755          1400 LM1090               2BZ
204489006204489903-000519     204489006001704012805SWT MS LIQ-O-GHETTI    0000001000+00001227+00000+0001T   00001227+0000001755          1400 LM1150               2BZ
204490000204490               204490               170213L1     1400+00000+L10000006138+0000006138+000000000+000000860+0000006990+0000000008+I20000000000+0000006990+Z
204490001204490368-000049     204490006003000536955PLUSH BEAR 15cm LOVE   0000001000+00004385+00000+0001T   00004385+0000001756          1400 LM1745               2BZ
204490002204490080-000106     204490006003000237098CARD&ENVLPE BDAY GIRL  0000001000+00001753+00000+0001T   00001753+0000001756          1400 LM1112               2BZ
204491000204491               204491               170213L1     1400+00000+L10000001227+0000001227+000000000+000000172+0000001399+0000000000+I40000001399+0000000000+Z
204491001204491077-000245     204491006001023759214GIFT-RIBBON METALLICx2 0000001000+00001227+00000+0001T   00001227+0000001758          1400 LM1112               2BZ
204492000204492               204492               170213L1     1400+00000+L10000005294+0000005294+000000000+000000743+0000006037+0000000000+I40000006037+0000000000+Z
204492001204492018-000129     204492006001023403353MUG OCC. LOVE V-SHAPE  0000001000+00002630+00000+0001T   00002630+0000001808          1400 LM1515               2BZ
204492002204492006-000800     204492006001023902801HAT CABARET 14x18cm    0000001000+00001753+00000+0001T   00001753+0000001808          1400 LM1131               2BZ
204492003204492366-007601     204492006003000655472DRESS UP MASK THEATRICA0000001000+00000876+00000+0001T   00000876+0000001808          1400 LM1131               2BZ
204492004204492112-116038     204492006009681820246TCS CARRIER BAG MIDI   0000001000+00000035+00000+0001T   00000035+0000001808          1400 LM1090               2BZ
204493000204493               204493               170213L1     1400+00000+L10000000876+0000000876+000000000+000000123+0000000990+0000000009+I20000000000+0000000990+Z
204493001204493089-000192-A   204493006001023901774KEY-CHAIN ACRYLIC      0000001000+00000876+00000+0001T   00000876+0000001809          1400 LM1205               2BZ
204494000204494               204494               170213L1     1400+00000+L10000006752+0000006752+000000000+000000946+0000007690+0000000008+I20000000000+0000007690+Z
204494001204494304-001011     204494006001023806727FLWR ROSE RED W/BEAR   0000001000+00000613+00000+0001T   00000788+0006471810          1400 LM1510               2BZ
204494002204494035-000021     204494006002596020206UMBRELLA GENTS         0000001000+00006139+00000+0001T   00006139+0000001810          1400 LM1205               2BZ
204495000204495               204495               170213L1     1400+00000+L10000003945+0000003945+000000000+000000553+0000004498+0000000000+I40000004498+0000000000+Z
204495001204495362-003000     204495006003000295258GIRL HEART NOTEBOOK    0000001000+00001753+00000+0001T   00002630+0008191813          1400 LM1160               2BZ
204495002204495080-000127     204495006003000424351VALENTINES DAY 36x24CM 0000001000+00002192+00000+0001T   00002192+0000001813          1400 LM1112               2BZ
204496000204496               204496               170213L1     1400+00000+L10000004385+0000004385+000000000+000000614+0000004999+0000000000+I40000004999+0000000000+Z
204496001204496018-030000     204496006003000421060MUG OCCASIONS LOVE 2PCE0000001000+00004385+00000+0001T   00004385+0000001842          1400 LM1515               2BZ
204497000204497               204497               170213L1     1400+00000+L10000000876+0000000876+000000000+000000123+0000000990+0000000009+I20000000000+0000000990+Z
204497001204497162-081667     204497006001492816678SS NEW SILVER E/PIERCE 0000001000+00000876+00000+0001T   00000876+0000001846          1400 LM1160               2BZ
204498000204498               204498               170213L1     1400+00000+L10000030000-0000000000+000000000+000000000+0000030000-0000000000+I20000000000+0000030000-Z
204498001204498001-999911     204498000000000999911SUNDRIES               0000001000-00030000+00000+0001X   00000000+0000001853          0000 LM19111IC            2 Z
A17021300                                          09210758L1SLAVE 2                       LM11IC
A17021301                                          10124392L1SLAVE 2                       LM12IC
A17021302                                          13435947L1SLAVE 2                       LM11IC
A17021303                                          13465151L1SLAVE 2                       1IC1IC
A17021304                                          13563705L1SLAVE 2                       1IC1IC
M17021301                              IT          L1FROM WOODLANDS L1                                                                               LAST TILL SLIP NO:204498  13/02/17                                                              THANX
M17021302                              SHIEHAAM    L1FROM WOODLANDS L1                                                                               TOTAL CASH BANKING==R1055.80  13/02/17                                                          THANX
M17021391                              CASH        L1SLAVE 2                       Z-REPORT No.   523TOTAL (Sales - Refunds)           3312.76       CASH TO BE BANKED                 1055.80       DEBIT CARDS                          0.00       CREDIT CARDS                      1956.96       Z-READING                         3012.76       AIRTIME DEBIT CARD SALES             0.00       AIRTIME CARD SALES                   0.00       OVERS/UNDERS                         0.00       AIRTIME CASH SALES                   0.00       GIFT CARDS                           0.00       GIFT CARD CASH SALES                 0.00       SUNDRIES                           300.00       T O T A L  CASH PAYOUTS            300.00                                                                                                                                                                                                                                                                                                      Z
M17021392                              CASH        L1ABSENT                                                                                                                                                                                          ANNUAL LEAVE                                                                                                                                                                                    DAY OFF                                                                                                                                                                                         COMMENTS                                                                                                                                                                                                                                                                                                                                                                                       Z
Y17021300                                          L100000000290748+000048
ZL117021320003 SLAVE 2      SALES DATA                     NEXT INVOICE NO.  204499 0524
X L1 Slave 2 First invoice 204449 170213 Last invoice 204498 170213 Next invoice 204499 Total number of records 000000173 clbackup completed 20:00:36
