617755000617755               617755               170213LA     1400+00000+LA0000003507+0000003507+000000000+000000491+0000003990+0000000008+I20000000000+0000003990+Z
617755001617755004-071204     617755006003000624904USB IN-CAR CHARGER 2.1A0000001000+00003507+00000+0001T   00003507+0000000843          1400 G50310               1BZ
617756000617756               617756               170213LA     1400+00000+LA0000014325+0000014325+000000000+000002009+0000016330+0000000004+I20000000000+0000016330+Z
617756001617756079-000012     617756006001023655332P/CRAYONS 12-COL LONG  0000001000+00001753+00000+0001T   00001753+0000000935          1400 G50130               1DZ
617756002617756007-000405     617756006009635830369EXERCISE-BOOK A5 72PAGE0000002000+00000262+00000+0001T   00000262+0000000935          1400 G50130               1DZ
617756003617756007-000407     617756006009635831717BK JOTTER A5 48-PG F/M 0000001000+00000174+00000+0001T   00000174+0000000935          1400 G50130               1DZ
617756004617756071-000325     617756006009635844090RULER PLASTIC 30cm     0000001000+00000437+00000+0001T   00000437+0000000935          1400 G50130               1DZ
617756005617756562-058925     617756006003000599998EDU B/O TOY TABLET     0000001000+00011402+00000+0001T   00011402+0000000935          1400 G50755               1DZ
617756006617756112-116038     617756006009681820246TCS CARRIER BAG MIDI   0000001000+00000035+00000+0001T   00000035+0000000935          1400 G50090               1DZ
617757000617757               617757               170213LA     1400+00000+LA0000004385+0000004385+000000000+000000614+0000004990+0000000009+I20000000000+0000004990+Z
617757001617757082-007582     617757006003000465804SUNGLASSES EMPORIUM    0000001000+00004385+00000+0001T   00004385+0000000936          1400 G50160               1BZ
617758000617758               617758               170213LA     1400+00000+LA0000003507+0000003507+000000000+000000491+0000003998+0000000000+I40000003998+0000000000+Z
617758001617758007-000542     617758006001023847874NOTE-BOOK H/C SKETCHPAD0000001000+00003507+00000+0001T   00003507+0000000943          1400 G50130               1DZ
617759000617759               617759               170213LA     1400+00000+LA0000001139+0000001139+000000000+000000160+0000001290+0000000009+I20000000000+0000001290+Z
617759001617759027-078343     617759006008766078343SCRUB-BRUSH IRON-SHAPE 0000001000+00001139+00000+0001T   00001578+0008190944          1400 G50212               1DZ
617760000617760               617760               170213LA     1400+00000+LA0000018466+0000018466+000000000+000002587+0000021053+0000000000+I40000021053+0000000000+Z
617760001617760497-068614     617760000078257686148H/PUMP HIGH-O/PUT 36cm 0000001000+00006139+00000+0001T   00006139+0000000950          1400 G50787               1CZ
617760002617760496-058426     617760000078257584260POOL CRYSTAL-BLU 147x330000001000+00012279+00000+0001T   00012279+0000000950          1400 G50787               1CZ
617760003617760112-116069     617760006009681820277TCS CARRIER BAG JUMBO  0000001000+00000048+00000+0001T   00000048+0000000950          1400 G50090               1CZ
617761000617761               617761               170213LA     1400+00000+LA0000001051+0000001051+000000000+000000148+0000001190+0000000009+I20000000000+0000001190+Z
617761001617761903-002890     617761008935001721352MENTOS GUM PURE F/MINT 0000001000+00001051+00000+0001T   00001051+0000000959          1400 G50150               1BZ
617762000617762               617762               170213LA     1400+00000+LA0000003507+0000003507+000000000+000000491+0000003990+0000000008+I20000000000+0000003990+Z
617762001617762306-000004     617762006003000622177THOOTH DENTAL SOFT TIP 0000001000+00003507+00000+0001T   00004385+0008171007          1400 G50200               1BZ
617763000617763               617763               170213LA     1400+00000+LA0000002630+0000002630+000000000+000000369+0000002990+0000000009+I20000000000+0000002990+Z
617763001617763072-020351     617763006001023598059DOG/CAT BOWL PL 16cm   0000001000+00002630+00000+0001T   00002630+0000001022          1400 G50870               1BZ
617764000617764               617764               170213LA     1400+00000+LA0000007059+0000007059+000000000+000000990+0000008049+0000000000+I40000008049+0000000000+Z
617764001617764112-116069     617764006009681820277TCS CARRIER BAG JUMBO  0000001000+00000048+00000+0001T   00000048+0000001032          1400 G50090               1CZ
617764002617764006-000201-B   617764006003000601271PARTY BOYS DSGN A 8PC  0000001000+00001753+00000+0001T   00001753+0000001032          1400 G50131               1CZ
617764003617764200-000100     617764006001023764003CUPS 25PCE DISPOSABLE  0000001000+00001928+00000+0001T   00001928+0000001032          1400 G50214               1CZ
617764004617764266-001302     617764006001023331892MARBLES 16MM 45PC      0000001000+00001227+00000+0001T   00001227+0000001032          1400 G50710               1CZ
617764005617764039-000319-8   617764006003000443222B/CANDLES LRG NUMBER-8 0000001000+00000876+00000+0001T   00000876+0000001032          1400 G50510               1CZ
617764006617764200-000092     617764006003000576739PICNIC PAPER PLATES 23c0000001000+00001227+00000+0001T   00001227+0000001032          1400 G50214               1CZ
617765000617765               617765               170213LA     1400+00000+LA0000003243+0000003243+000000000+000000455+0000003690+0000000008+I20000000000+0000003690+Z
617765001617765071-081110     617765006936198405454CORRECTION FLUID PEN   0000001000+00001490+00000+0001T   00001490+0000001043          1400 G50130               1BZ
617765002617765071-081112     617765006936198404945CORRECTION TAPE 10mx5mm0000001000+00001753+00000+0001T   00001753+0000001043          1400 G50130               1BZ
617766000617766               617766               170213LA     1400+00000+LA0000001227+0000001227+000000000+000000172+0000001390+0000000009+I20000000000+0000001390+Z
617766001617766077-000245     617766006001023759214GIFT-RIBBON METALLICx2 0000001000+00001227+00000+0001T   00001227+0000001100          1400 G50112               1BZ
617767000617767               617767               170213LA     1400+00000+LA0000011402+0000011402+000000000+000001597+0000012999+0000000000+I40000012999+0000000000+Z
617767001617767104-000140     617767006002923019835WASTEPAPER BIN FLIP 24L0000001000+00011402+00000+0001T   00011402+0000001102          1400 G50210               1BZ
617768000617768               617768               170213LA     1400+00000+LA0000015602+0000015602+000000000+000002189+0000017790+0000000001+I20000000000+0000017790+Z
617768001617768031-080508     617768006001023802415P/FRAME PL 22X11CM LOVE0000001000+00004385+00000+0001T   00004385+0000001112          1400 G50510               1BZ
617768002617768903-000155     617768006009803374435SWT LOLLY I LUV U HEART0000001000+00000525+00000+0001T   00000525+0000001112          1400 G50150               1BZ
617768003617768077-000299     617768006003000395576G/BAG 32x25cm LRG LOVE 0000001000+00001490+00000+0001T   00001490+0000001112          1400 G50112               1BZ
617768004617768105-008005     617768006002580009484STORAGE CONTAINER 7.5L 0000001000+00004385+00000+0001T   00004385+0000001112          1400 G50210               1BZ
617768005617768200-003024     617768006001023657299REFUSE BAGS 20PCE BLACK0000002000+00001753+00000+0001T   00001753+0000001112          1400 G50214               1BZ
617768006617768903-000012     617768006002099007308SWT MALLOW S/BERRY     0000003000+00000437+00000+0001T   00000437+0000001112          1400 G50150               1BZ
617769000617769               617769               170213LA     1400+00000+LA0000000048+0000000048+000000000+000000007+0000000050+0000000005+I20000000000+0000000050+Z
617769001617769112-116069     617769006009681820277TCS CARRIER BAG JUMBO  0000001000+00000048+00000+0001T   00000048+0000001113          1400 G50090               1BZ
617770000617770               617770               170213LA     1400+00000+LA0000001400+0000001400+000000000+000000196+0000001590+0000000006+I20000000000+0000001590+Z
617770001617770903-000070     617770006001704001106SWT TOFFEE CREAMY 35g  0000002000+00000700+00000+0001T   00000700+0000001119          1400 G50150               1BZ
617771000617771               617771               170213LA     1400+00000+LA0000002892+0000002892+000000000+000000406+0000003290+0000000008+I20000000000+0000003290+Z
617771001617771903-000087     617771006001704000161SWT SPECKLED-EGGS 50G  0000001000+00001139+00000+0001T   00001139+0000001121          1400 G50150               1BZ
617771002617771036-000615     617771006003000218769WASH-PEGS PL PCK-24    0000001000+00001753+00000+0001T   00001753+0000001121          1400 G50212               1BZ
617772000617772               617772               170213LA     1400+00000+LA0000028099+0000028099+000000000+000003940+0000032039+0000000000+I40000032039+0000000000+Z
617772001617772077-000151     617772006008766114676GIFT-WRAP C/PHANE ASSTD0000003000+00000876+00000+0001T   00000876+0000001140          1400 G50112               1CZ
617772002617772039-080942     617772006001023669872C/PILLAR RND WHT 10X7CM0000001000+00003507+00000+0001T   00003507+0000001140          1400 G50510               1CZ
617772003617772039-080944     617772006001023758897C/PILLAR RND WHT 12X7CM0000001000+00004385+00000+0001T   00004385+0000001140          1400 G50510               1CZ
617772004617772039-080959     617772006003000048922CANDLE PILLAR BALL 8CM 0000001000+00003069+00000+0001T   00003069+0000001140          1400 G50510               1CZ
617772005617772007-000676     617772006003000284689N/BOOK HOLOGRAM 3PK ASS0000003000+00002630+00000+0001T   00002630+0000001140          1400 G50130               1CZ
617772006617772112-116069     617772006009681820277TCS CARRIER BAG JUMBO  0000001000+00000048+00000+0001T   00000048+0000001140          1400 G50090               1CZ
617772007617772018-000129     617772006001023403353MUG OCC. LOVE V-SHAPE  0000001000+00002630+00000+0001T   00002630+0000001140          1400 G50515               1CZ
617772008617772018-000119     617772006003000336074MUG DAILY STRAIGHT     0000001000+00001314+00000+0001T   00001753+0008171140          1400 G50515               1CZ
617772009617772089-000192-A   617772006001023901774KEY-CHAIN ACRYLIC      0000003000+00000876+00000+0001T   00000876+0000001140          1400 G50205               1CZ
617773000617773               617773               170213LA     1400+00000+LA0000009646+0000009646+000000000+000001351+0000010997+0000000000+I40000010997+0000000000+Z
617773001617773103-000016     617773006001023772145BASKET RECT.20x25x6cm  0000001000+00003507+00000+0001T   00003507+0000001142          1400 G50300               1CZ
617773002617773103-000071     617773006001023889713BASKET RECT 30X19X12cm 0000001000+00006139+00000+0001T   00006139+0000001142          1400 G50300               1CZ
617774000617774               617774               170213LA     1400+00000+LA0000000876+0000000876+000000000+000000123+0000000990+0000000009+I20000000000+0000000990+Z
617774001617774089-000192-A   617774006001023901774KEY-CHAIN ACRYLIC      0000001000+00000876+00000+0001T   00000876+0000001148          1400 G50205               1CZ
617775000617775               617775               170213LA     1400+00000+LA0000001753+0000001753+000000000+000000246+0000001990+0000000009+I20000000000+0000001990+Z
617775001617775080-000111     617775006003000252695CARD&ENVELPE - MUSICAL 0000001000+00001753+00000+0001T   00001753+0000001159          1400 G50112               1CZ
617776000617776               617776               170213LA     1400+00000+LA0000000525+0000000525+000000000+000000074+0000000590+0000000009+I20000000000+0000000590+Z
617776001617776903-000155     617776006009803374435SWT LOLLY I LUV U HEART0000001000+00000525+00000+0001T   00000525+0000001205          1400 G50150               1CZ
617777000617777               617777               170213LA     1400+00000+LA0000000525+0000000525+000000000+000000074+0000000590+0000000009+I20000000000+0000000590+Z
617777001617777903-000155     617777006009803374435SWT LOLLY I LUV U HEART0000001000+00000525+00000+0001T   00000525+0000001206          1400 G50150               1CZ
617778000617778               617778               170213LA     1400+00000+LA0000007977+0000007977+000000000+000001118+0000009090+0000000005+I20000000000+0000009090+Z
617778001617778105-001066     617778006003000630912CONTAINER CLIP LOCK    0000003000+00001490+00000+0001T   00001490+0000001209          1400 G50210               1BZ
617778002617778105-001246     617778006003000621194CONTAINER RECTANGULAR  0000001000+00003507+00000+0001T   00003507+0000001209          1400 G50210               1BZ
617779000617779               617779               170213LA     1400+00000+LA0000014776+0000014776+000000000+000002072+0000016848+0000000000+I40000016848+0000000000+Z
617779001617779112-116069     617779006009681820277TCS CARRIER BAG JUMBO  0000001000+00000048+00000+0001T   00000048+0000001224          1400 G50090               1BZ
617779002617779106-008100     617779006001023764126MEASURING-SHAKER 500ml 0000001000+00002630+00000+0001T   00002630+0000001224          1400 G50210               1BZ
617779003617779024-000034     617779006001023495235MEASURING-JUG 1-CUP    0000002000+00001578+00000+0001T   00001578+0000001224          1400 G50300               1BZ
617779004617779200-000030     617779006923029860018ROLL PL WRAP 30cmx30m  0000001000+00002630+00000+0001T   00002630+0000001224          1400 G50214               1BZ
617779005617779200-000025-A   617779006925406841054BAG ZIPPERSEAL 15PC    0000001000+00002192+00000+0001T   00002192+0000001224          1400 G50214               1BZ
617779006617779027-783002     617779006001023874658SCOURERS FOAM PACK OF 30000001000+00001490+00000+0001T   00001490+0000001224          1400 G50212               1BZ
617779007617779204-000015     617779006001023998859M/HLDER DOG & CAT POLY 0000001000+00002630+00000+0001T   00002630+0000001224          1400 G50300               1BZ
617780000617780               617780               170213LA     1400+00000+LA0000015083+0000015083+000000000+000002113+0000017196+0000000000+I40000017196+0000000000+Z
617780001617780024-000212     617780006001023858030COOKIE-CUTTERS PL SMALL0000001000+00003069+00000+0001T   00003069+0000001238          1400 G50300               1BZ
617780002617780301-000013     617780006001023781604ORN SENTIMENT STONE 4-A0000001000+00006139+00000+0001T   00006139+0000001238          1400 G50505               1BZ
617780003617780031-000874-B   617780006001023798831P/FRAME WDN P/BOX 13X180000001000+00004385+00000+0001T   00004385+0000001238          1400 G50510               1BZ
617780004617780077-000299     617780006003000395576G/BAG 32x25cm LRG LOVE 0000001000+00001490+00000+0001T   00001490+0000001238          1400 G50112               1BZ
617781000617781               617781               170213LA     1400+00000+LA0000007937+0000007937+000000000+000001114+0000009050+0000000001+I20000000000+0000009050+Z
617781001617781112-116069     617781006009681820277TCS CARRIER BAG JUMBO  0000001000+00000048+00000+0001T   00000048+0000001401          1400 G50090               1BZ
617781002617781466-064834     617781006008766064834BALL W/SPIKES 20cm     0000003000+00001753+00000+0001T   00001753+0000001401          1400 G50785               1BZ
617781003617781034-078810     617781006001023856838DIAPER DISPOSE-BAGSx1000000001000+00002630+00000+0001T   00002630+0000001401          1400 G50215               1BZ
617782000617782               617782               170213LA     1400+00000+LA0000007049+0000007049+000000000+000000987+0000008030+0000000006+I20000000000+0000008030+Z
617782001617782031-000002-A   617782006003000247103P/FRAME LOVE 7.5X7.5CM 0000001000+00003507+00000+0001T   00003507+0000001412          1400 G50510               1CZ
617782002617782018-000136     617782006001023659026MUG OCC LOVE W/PLUSH   0000001000+00003507+00000+0001T   00003507+0000001412          1400 G50515               1CZ
617782003617782112-116038     617782006009681820246TCS CARRIER BAG MIDI   0000001000+00000035+00000+0001T   00000035+0000001412          1400 G50090               1CZ
617783000617783               617783               170213LA     1400+00000+LA0000006873+0000006873+000000000+000000963+0000007830+0000000006+I20000000000+0000007830+Z
617783001617783080-000116     617783006003000253555CARD&ENVELOPE-HANDMADE 0000001000+00001753+00000+0001T   00001753+0000001417          1400 G50112               1BZ
617783002617783077-000303     617783006001023593757GIFT-BAG PAPER MED     0000001000+00001578+00000+0001T   00001578+0000001417          1400 G50112               1BZ
617783003617783018-000136     617783006001023659026MUG OCC LOVE W/PLUSH   0000001000+00003507+00000+0001T   00003507+0000001417          1400 G50515               1BZ
617783004617783112-116038     617783006009681820246TCS CARRIER BAG MIDI   0000001000+00000035+00000+0001T   00000035+0000001417          1400 G50090               1BZ
617784000617784               617784               170213LA     1400+00000+LA0000023188+0000023188+000000000+000003253+0000026440+0000000001+I20000000000+0000026440+Z
617784001617784077-000309     617784006001023608604GIFT-BAG 25X32CM GLOSS 0000001000+00001753+00000+0001T   00001753+0000001421          1400 G50112               1BZ
617784002617784567-075497     617784009780799381672BK NOVEL ROMANCE AFR   0000001000+00006139+00000+0001T   00006139+0000001421          1400 G50757               1BZ
617784003617784112-116069     617784006009681820277TCS CARRIER BAG JUMBO  0000001000+00000048+00000+0001T   00000048+0000001421          1400 G50090               1BZ
617784004617784560-000104     617784006001023747037ANIMALS WILD IN-TUBE   0000001000+00003507+00000+0001T   00003507+0000001421          1400 G50745               1BZ
617784005617784079-013032-A   617784006003000389322SEA WORLD STICKERS     0000001000+00001753+00000+0001T   00001753+0000001421          1400 G50130               1BZ
617784006617784903-000896     617784006009680772270SWT BITZ BL/CURRANT 50G0000001000+00000788+00000+0001T   00000788+0000001421          1400 G50150               1BZ
617784007617784565-000080     617784006003000643424NOVELTY BENDY          0000002000+00002192+00000+0001T   00002192+0000001421          1400 G50745               1BZ
617784008617784071-081101-A   617784006003000326549GLUE-STICK 25g BLISTER 0000001000+00000788+00000+0001T   00000788+0000001421          1400 G50130               1BZ
617784009617784565-000071     617784006003000643387NOVELTY WIND UP CHATTER0000001000+00001139+00000+0001T   00001139+0000001421          1400 G50745               1BZ
617784010617784903-000012     617784006002099007308SWT MALLOW S/BERRY     0000003000+00000437+00000+0001T   00000437+0000001421          1400 G50150               1BZ
617784011617784903-002900     617784005996071650648QUICK MILK 5 CHOCO 5PC 0000001000+00001578+00000+0001T   00001578+0000001421          1400 G50150               1BZ
617785000617785               617785               170213LA     1400+00000+LA0000000876+0000000876+000000000+000000123+0000000990+0000000009+I20000000000+0000000990+Z
617785001617785903-003075     617785003800065783125SWT CHOC FAFL WAFER 52g0000001000+00000876+00000+0001T   00000876+0000001422          1400 G50150               1BZ
617786000617786               617786               170213LA     1400+00000+LA0000000613+0000000613+000000000+000000086+0000000690+0000000009+I20000000000+0000000690+Z
617786001617786077-000317     617786006001023609748GIFT-BAG 11X14CM E/D AN0000001000+00000613+00000+0001T   00000613+0000001423          1400 G50112               1CZ
617787000617787               617787               170213LA     1400+00000+LA0000002366+0000002366+000000000+000000332+0000002690+0000000008+I20000000000+0000002690+Z
617787001617787077-000297     617787006001023869814GIFT BOX OCCASIONS SQRE0000001000+00001753+00000+0001T   00001753+0000001424          1400 G50112               1CZ
617787002617787077-000317     617787006001023609748GIFT-BAG 11X14CM E/D AN0000001000+00000613+00000+0001T   00000613+0000001424          1400 G50112               1CZ
617788000617788               617788               170213LA     1400+00000+LA0000000874+0000000874+000000000+000000124+0000000990+0000000008+I20000000000+0000000990+Z
617788001617788080-000133-A   617788006003000647019MINI VALENTINES CARD   0000002000+00000437+00000+0001T   00000437+0000001430          1400 G50112               1CZ
617789000617789               617789               170213LA     1400+00000+LA0000001050+0000001050+000000000+000000148+0000001190+0000000008+I20000000000+0000001190+Z
617789001617789903-000155     617789006009803374435SWT LOLLY I LUV U HEART0000002000+00000525+00000+0001T   00000525+0000001449          1400 G50150               1CZ
617790000617790               617790               170213LA     1400+00000+LA0000002630+0000002630+000000000+000000369+0000002990+0000000009+I20000000000+0000002990+Z
617790001617790007-000557     617790006003000379484DIARY GIRL W/LOCK 50PG 0000001000+00002630+00000+0001T   00002630+0000001449          1400 G50130               1CZ
617791000617791               617791               170213LA     1400+00000+LA0000001753+0000001753+000000000+000000246+0000001990+0000000009+I20000000000+0000001990+Z
617791001617791565-000055     617791006003000028252NOVELTY B/O FINGR-BEAMS0000001000+00001753+00000+0001T   00001753+0000001451          1400 G50745               1CZ
617792000617792               617792               170213LA     1400+00000+LA0000014066+0000014066+000000000+000001970+0000016036+0000000000+I40000016036+0000000000+Z
617792001617792162-010770     617792006001492107707#TAG NECKLACE&EARRINGS 0000001000+00006139+00000+0001T   00006139+0000001453          1400 G50160               1CZ
617792002617792368-000001     617792006003000097982Plush Bear 25cm        0000001000+00004385+00000+0001T   00004385+0000001453          1400 G50745               1CZ
617792003617792018-005009     617792006001023725608MUG W/PLUSH-BEAR LOVE  0000001000+00003507+00000+0001T   00003507+0000001453          1400 G50515               1CZ
617792004617792112-116038     617792006009681820246TCS CARRIER BAG MIDI   0000001000+00000035+00000+0001T   00000035+0000001453          1400 G50090               1CZ
617793000617793               617793               170213LA     1400+00000+LA0000005995+0000005995+000000000+000000841+0000006830+0000000006+I20000000000+0000006830+Z
617793001617793016-006516     617793006003000351503S/JAR GLS CHECK 150ML  0000004000+00001490+00000+0001T   00001490+0000001457          1400 G50300               1BZ
617793002617793112-116038     617793006009681820246TCS CARRIER BAG MIDI   0000001000+00000035+00000+0001T   00000035+0000001457          1400 G50090               1BZ
617794000617794               617794               170213LA     1400+00000+LA0000001753+0000001753+000000000+000000246+0000001990+0000000009+I20000000000+0000001990+Z
617794001617794046-002025-PK2 617794004897006174868BATTERIES CR-2025  2PCE0000001000+00001753+00000+0001T   00001753+0000001507          1400 G50312               1BZ
617795000617795               617795               170213LA     1400+00000+LA0000009865+0000009865+000000000+000001384+0000011240+0000000009+I20000000000+0000011240+Z
617795001617795200-003026     617795006003000276448REFUSE BAGS 10PCE GREEN0000001000+00001753+00000+0001T   00001753+0000001511          1400 G50214               1CZ
617795002617795018-000129     617795006001023403353MUG OCC. LOVE V-SHAPE  0000002000+00002630+00000+0001T   00002630+0000001511          1400 G50515               1CZ
617795003617795304-001011     617795006001023806727FLWR ROSE RED W/BEAR   0000002000+00000613+00000+0001T   00000788+0006471511          1400 G50510               1CZ
617795004617795077-000303     617795006001023593757GIFT-BAG PAPER MED     0000001000+00001578+00000+0001T   00001578+0000001511          1400 G50112               1CZ
617795005617795112-116069     617795006009681820277TCS CARRIER BAG JUMBO  0000001000+00000048+00000+0001T   00000048+0000001511          1400 G50090               1CZ
617796000617796               617796               170213LA     1400+00000+LA0000002628+0000002628+000000000+000000368+0000002990+0000000006+I20000000000+0000002990+Z
617796001617796362-000307     617796006003000519750HAIR HEADBAND PRINTED  0000002000+00001314+00000+0001T   00001314+0000001513          1400 G50160               1CZ
617797000617797               617797               170213LA     1400+00000+LA0000004997+0000004997+000000000+000000700+0000005690+0000000007+I20000000000+0000005690+Z
617797001617797018-005009     617797006001023725608MUG W/PLUSH-BEAR LOVE  0000001000+00003507+00000+0001T   00003507+0000001513          1400 G50515               1CZ
617797002617797089-001021     617797006003000112319KEY CHAIN MINI BIBLE   0000001000+00001490+00000+0001T   00001490+0000001513          1400 G50205               1CZ
617798000617798               617798               170213LA     1400+00000+LA0000015821+0000015821+000000000+000002216+0000018030+0000000007+I20000000000+0000018030+Z
617798001617798018-005009     617798006001023725608MUG W/PLUSH-BEAR LOVE  0000001000+00003507+00000+0001T   00003507+0000001518          1400 G50515               1CZ
617798002617798368-000111     617798006001023780812PLUSH BEAR/DOG 29CM    0000001000+00012279+00000+0001T   00012279+0000001518          1400 G50745               1CZ
617798003617798112-116038     617798006009681820246TCS CARRIER BAG MIDI   0000001000+00000035+00000+0001T   00000035+0000001518          1400 G50090               1CZ
617799000617799               617799               170213LA     1400+00000+LA0000003946+0000003946+000000000+000000553+0000004490+0000000009+I20000000000+0000004490+Z
617799001617799075-000400     617799006003000457762HANDBAG ASST 50x37x17cm0000001000+00003946+00000+0001T   00005262+0008121521          1400 G50160               1CZ
617800000617800               617800               170213LA     1400+00000+LA0000007014+0000007014+000000000+000000982+0000007990+0000000006+I20000000000+0000007990+Z
617800001617800018-000136     617800006001023659026MUG OCC LOVE W/PLUSH   0000002000+00003507+00000+0001T   00003507+0000001539          1400 G50515               1CZ
617801000617801               617801               170213LA     1400+00000+LA0000004997+0000004997+000000000+000000701+0000005698+0000000000+I40000005698+0000000000+Z
617801001617801046-000010-A   617801006003000438778BATTERIES SIZE:AAA 4PCE0000001000+00002367+00000+0001T   00002367+0000001544          1400 G50312               1CZ
617801002617801206-000620     617801006003000631797BACK SCRATCHER EXTEND  0000001000+00002630+00000+0001T   00002630+0000001544          1400 G50321               1CZ
617802000617802               617802               170213LA     1400+00000+LA0000001490+0000001490+000000000+000000209+0000001690+0000000009+I20000000000+0000001690+Z
617802001617802077-000452     617802006003000284986G/BAG METALLIC MED EMB 0000001000+00001490+00000+0001T   00001490+0000001546          1400 G50112               1CZ
617803000617803               617803               170213LA     1400+00000+LA0000007308+0000007308+000000000+000001026+0000008330+0000000004+I20000000000+0000008330+Z
617803001617803019-000130     617803006003000456130PLANTER T/PLATE W/HNDL 0000002000+00001753+00000+0001T   00001753+0000001603          1400 G50510               1BZ
617803002617803903-003075     617803003800065783125SWT CHOC FAFL WAFER 52g0000001000+00000876+00000+0001T   00000876+0000001603          1400 G50150               1BZ
617803003617803903-000087     617803006001704000161SWT SPECKLED-EGGS 50G  0000001000+00001139+00000+0001T   00001139+0000001603          1400 G50150               1BZ
617803004617803077-000150-D   617803006003000054343GIFT-WRAP CELLPHANE CLR0000002000+00000876+00000+0001T   00000876+0000001603          1400 G50112               1BZ
617803005617803112-116038     617803006009681820246TCS CARRIER BAG MIDI   0000001000+00000035+00000+0001T   00000035+0000001603          1400 G50090               1BZ
617804000617804               617804               170213LA     1400+00000+LA0000001490+0000001490+000000000+000000209+0000001690+0000000009+I20000000000+0000001690+Z
617804001617804077-000452     617804006003000284986G/BAG METALLIC MED EMB 0000001000+00001490+00000+0001T   00001490+0000001607          1400 G50112               1CZ
617805000617805               617805               170213LA     1400+00000+LA0000003675+0000003675+000000000+000000518+0000004190+0000000003+I20000000000+0000004190+Z
617805001617805903-000155     617805006009803374435SWT LOLLY I LUV U HEART0000007000+00000525+00000+0001T   00000525+0000001631          1400 G50150               1BZ
617806000617806               617806               170213LA     1400+00000+LA0000003155+0000003155+000000000+000000443+0000003598+0000000000+I40000003598+0000000000+Z
617806001617806903-000151     617806006009803374411SWT SML RND R/BOW LOLLY0000001000+00000525+00000+0001T   00000525+0000001633          1400 G50150               1BZ
617806002617806366-006103     617806006001023786944DRESS UP FACE PAINT SET0000001000+00002630+00000+0001T   00002630+0000001633          1400 G50131               1BZ
617807000617807               617807               170213LA     1400+00000+LA0000010525+0000010525+000000000+000001474+0000011990+0000000009+I20000000000+0000011990+Z
617807001617807368-000005     617807006003000616862PLUSH MONSTER 24cm     0000001000+00010525+00000+0001T   00010525+0000001635          1400 G50745               1BZ
617808000617808               617808               170213LA     1400+00000+LA0000018727+0000018727+000000000+000002624+0000021351+0000000000+I40000021351+0000000000+Z
617808001617808903-000095     617808006001704011495SWT SPECKLED-EGGS 100G 0000002000+00002104+00000+0001T   00002104+0000001703          1400 G50150               1BZ
617808002617808031-001008     617808006003000406494P/FRAME COLLAGE PLASTIC0000001000+00012279+00000+0001T   00012279+0000001703          1400 G50510               1BZ
617808003617808080-000127     617808006003000424351VALENTINES DAY 36x24CM 0000001000+00002192+00000+0001T   00002192+0000001703          1400 G50112               1BZ
617808004617808112-116069     617808006009681820277TCS CARRIER BAG JUMBO  0000001000+00000048+00000+0001T   00000048+0000001703          1400 G50090               1BZ
617809000617809               617809               170213LA     1400+00000+LA0000010158+0000010158+000000000+000001425+0000011580+0000000003+I20000000000+0000011580+Z
617809001617809903-000183     617809006003000451043SWT LB HEART LOLLY     0000001000+00000393+00000+0001T   00000393+0000001709          1400 G50150               1DZ
617809002617809903-000709     617809006002099007070SWT QUENCHERS FRUIT    0000001000+00001139+00000+0001T   00001139+0000001709          1400 G50150               1DZ
617809003617809089-000184     617809006003000577323KEY CHAIN OWL POLY MINI0000002000+00003069+00000+0001T   00003069+0000001709          1400 G50205               1DZ
617809004617809903-000087     617809006001704000161SWT SPECKLED-EGGS 50G  0000001000+00001139+00000+0001T   00001139+0000001709          1400 G50150               1DZ
617809005617809903-004952     617809006002580020052SWT FREAKY FACES 100G  0000001000+00001314+00000+0001T   00001314+0000001709          1400 G50150               1DZ
617809006617809112-116038     617809006009681820246TCS CARRIER BAG MIDI   0000001000+00000035+00000+0001T   00000035+0000001709          1400 G50090               1DZ
617810000617810               617810               170213LA     1400+00000+LA0000001349+0000001349+000000000+000000189+0000001530+0000000008+I20000000000+0000001530+Z
617810001617810080-000114     617810006003000246472CARD&ENV LOVE-MUSICAL  0000001000+00001314+00000+0001T   00001753+0008151714          1400 G50112               1CZ
617810002617810112-116038     617810006009681820246TCS CARRIER BAG MIDI   0000001000+00000035+00000+0001T   00000035+0000001714          1400 G50090               1CZ
617811000617811               617811               170213LA     1400+00000+LA0000007893+0000007893+000000000+000001106+0000008999+0000000000+I40000008999+0000000000+Z
617811001617811586-098612     617811006001492986128WATCH KIDS RUBBER ASSTD0000001000+00007893+00000+0001T   00007893+0000001716          1400 G50160               1CZ
617812000617812               617812               170213LA     1400+00000+LA0000003541+0000003541+000000000+000000497+0000004030+0000000008+I20000000000+0000004030+Z
617812001617812080-000106     617812006003000237098CARD&ENVLPE BDAY GIRL  0000001000+00001753+00000+0001T   00001753+0000001726          1400 G50112               1BZ
617812002617812080-000102     617812006003000236855CARD&ENVLP FEMALE AFR  0000001000+00001753+00000+0001T   00001753+0000001726          1400 G50112               1BZ
617812003617812112-116038     617812006009681820246TCS CARRIER BAG MIDI   0000001000+00000035+00000+0001T   00000035+0000001726          1400 G50090               1BZ
617813000617813               617813               170213LA     1400+00000+LA0000003542+0000003542+000000000+000000496+0000004030+0000000008+I20000000000+0000004030+Z
617813001617813018-005009     617813006001023725608MUG W/PLUSH-BEAR LOVE  0000001000+00003507+00000+0001T   00003507+0000001729          1400 G50515               1CZ
617813002617813112-116038     617813006009681820246TCS CARRIER BAG MIDI   0000001000+00000035+00000+0001T   00000035+0000001729          1400 G50090               1CZ
617814000617814               617814               170213LA     1400+00000+LA0000001578+0000001578+000000000+000000221+0000001790+0000000009+I20000000000+0000001790+Z
617814001617814080-000124     617814006003000297733CARD & ENV VALENTINES  0000001000+00001578+00000+0001T   00001578+0000001730          1400 G50112               1BZ
617815000617815               617815               170213LA     1400+00000+LA0000005435+0000005435+000000000+000000762+0000006197+0000000000+I40000006197+0000000000+Z
617815001617815903-000155     617815006009803374435SWT LOLLY I LUV U HEART0000002000+00000525+00000+0001T   00000525+0000001732          1400 G50150               1CZ
617815002617815018-030000     617815006003000421060MUG OCCASIONS LOVE 2PCE0000001000+00004385+00000+0001T   00004385+0000001732          1400 G50515               1CZ
617816000617816               617816               170213LA     1400+00000+LA0000002541+0000002541+000000000+000000357+0000002890+0000000008+I20000000000+0000002890+Z
617816001617816903-000710     617816006002099007056SWT REFRESHERS MINT    0000001000+00001139+00000+0001T   00001139+0000001735          1400 G50150               1CZ
617816002617816304-001204     617816006001023737984FLOWER OCC. TEDDY/ROSES0000001000+00001402+00000+0001T   00001490+0006471735          1400 G50510               1CZ
617817000617817               617817               170213LA     1400+00000+LA0000013267+0000013267+000000000+000001861+0000015128+0000000000+I40000015128+0000000000+Z
617817001617817018-005009     617817006001023725608MUG W/PLUSH-BEAR LOVE  0000002000+00003507+00000+0001T   00003507+0000001737          1400 G50515               1BZ
617817002617817304-001204     617817006001023737984FLOWER OCC. TEDDY/ROSES0000002000+00001402+00000+0001T   00001490+0006471737          1400 G50510               1BZ
617817003617817903-000183     617817006003000451043SWT LB HEART LOLLY     0000002000+00000393+00000+0001T   00000393+0000001737          1400 G50150               1BZ
617817004617817903-000194     617817006009826020616SWT CHOC RP LOLLY 25G  0000002000+00001314+00000+0001T   00001314+0000001737          1400 G50150               1BZ
617817005617817112-116038     617817006009681820246TCS CARRIER BAG MIDI   0000001000+00000035+00000+0001T   00000035+0000001737          1400 G50090               1BZ
617818000617818               617818               170213LA     1400+00000+LA0000020784+0000020784+000000000+000002912+0000023696+0000000000+I40000023696+0000000000+Z
617818001617818077-000357     617818006003000139354GIFT-BAG 18X23CM B/DAY 0000001000+00001753+00000+0001T   00001753+0000001739          1400 G50112               1BZ
617818002617818368-000101     617818006003000449859PLUSH CAT 17cm KITTY   0000001000+00005262+00000+0001T   00005262+0000001739          1400 G50745               1BZ
617818003617818368-000111     617818006001023780812PLUSH BEAR/DOG 29CM    0000001000+00012279+00000+0001T   00012279+0000001739          1400 G50745               1BZ
617818004617818077-000299     617818006003000395576G/BAG 32x25cm LRG LOVE 0000001000+00001490+00000+0001T   00001490+0000001739          1400 G50112               1BZ
617819000617819               617819               170213LA     1400+00000+LA0000003856+0000003856+000000000+000000541+0000004390+0000000007+I20000000000+0000004390+Z
617819001617819903-000087     617819006001704000161SWT SPECKLED-EGGS 50G  0000001000+00001139+00000+0001T   00001139+0000001742          1400 G50150               1BZ
617819002617819903-000095     617819006001704011495SWT SPECKLED-EGGS 100G 0000001000+00002104+00000+0001T   00002104+0000001742          1400 G50150               1BZ
617819003617819077-000311     617819006001023608666GIFT-BAG 11X14CM GLOSS 0000001000+00000613+00000+0001T   00000613+0000001742          1400 G50112               1BZ
A17021300                                          15235901LASLAVE 1                       G501IC
M17021391                              CASH        LASLAVE 1                       Z-REPORT No.   550TOTAL (Sales - Refunds)           4799.62       CASH TO BE BANKED                 2560.80       DEBIT CARDS                          0.00       CREDIT CARDS                      2238.82       Z-READING                         4799.62       AIRTIME DEBIT CARD SALES             0.00       AIRTIME CARD SALES                   0.00       OVERS/UNDERS                         0.00       AIRTIME CASH SALES                   0.00       GIFT CARDS                           0.00       GIFT CARD CASH SALES                 0.00       T O T A L  CASH PAYOUTS              0.00                                                                                                                                                                                                                                                                                                                                                      Z
M17021392                              CASH        LAABSENT                                                                                                                                                                                          ANNUAL LEAVE                                                                                                                                                                                    DAY OFF                                                                                                                                                                                         COMMENTS                                                                                                                                                                                                                                                                                                                                                                                       Z
Y17021300                                          LA00000000421255+000065
ZLA17021320003 SLAVE 1      SALES DATA                     NEXT INVOICE NO.  617820 0550
X LA Slave 1 First invoice 617755 170213 Last invoice 617819 170213 Next invoice 617820 Total number of records 000000231 clbackup completed 20:00:58
