130012000130012               130012               170213LB     1400+00000+LB0000007049+0000007049+000000000+000000987+0000008036+0000000000+I40000008036+0000000000+Z
130012001130012071-000682     130012006003000196920ACCESSORIES DESKTOP ASS0000001000+00003507+00000+0001T   00003507+0000001019          1400 B94130               1AZ
130012002130012071-003043     130012006003000143948PEN CALIGRAPHY SET 8PCE0000001000+00003507+00000+0001T   00003507+0000001019          1400 B94130               1AZ
130012003130012112-116038     130012006009681820246TCS CARRIER BAG MIDI   0000001000+00000035+00000+0001T   00000035+0000001019          1400 B94090               1AZ
130013000130013               130013               170213LB     1400+00000+LB0000002630+0000002630+000000000+000000369+0000002990+0000000009+I20000000000+0000002990+Z
130013001130013251-000003     130013006003000266159TAPE D/S 18x300mm V/PCK0000001000+00002630+00000+0001T   00002630+0000001115          1400 B94810               1BZ
130014000130014               130014               170213LB     1400+00000+LB0000013534+0000013534+000000000+000001898+0000015432+0000000000+I40000015432+0000000000+Z
130014001130014565-000041     130014006008766115642NOVELTY BALL ICON 5.5cm0000001000+00002630+00000+0001T   00002630+0000001123          1400 B94745               1AZ
130014002130014018-000170     130014006001023775528MUG OCC. LOVE 2PC MINI 0000001000+00002192+00000+0001T   00002192+0000001123          1400 B94515               1AZ
130014003130014080-000113     130014006003000237449CARD&ENVLPE - LOVE     0000001000+00001753+00000+0001T   00001753+0000001123          1400 B94112               1AZ
130014004130014084-070005     130014006001023627902NAIL FILES 6PCE H/GLOW 0000001000+00000876+00000+0001T   00000876+0000001123          1400 B94200               1AZ
130014005130014077-000235     130014006003000160211GIFT-RIBBON ROLL METALC0000001000+00002630+00000+0001T   00002630+0000001123          1400 B94112               1AZ
130014006130014083-000055     130014006003000003853LIGHTER ELCTRNC REFILBL0000002000+00000613+00000+0001T   00000613+0000001123          1400 B94315               1AZ
130014007130014088-000104     130014006001023765444INCENSE SET ASSTD FRAG 0000001000+00002192+00000+0001T   00002192+0000001123          1400 B94212               1AZ
130014008130014112-116038     130014006009681820246TCS CARRIER BAG MIDI   0000001000+00000035+00000+0001T   00000035+0000001123          1400 B94090               1AZ
130015000130015               130015               170213LB     1400+00000+LB0000001578+0000001578+000000000+000000221+0000001790+0000000009+I20000000000+0000001790+Z
130015001130015007-000211     130015006003000005796STATIONERY N/PAD 3PCK  0000001000+00001578+00000+0001T   00001578+0000001158          1400 B94130               1AZ
130016000130016               130016               170213LB     1400+00000+LB0000005786+0000005786+000000000+000000811+0000006590+0000000007+I20000000000+0000006590+Z
130016001130016565-000885     130016006003000122929NOVELTY PRICKLY BALL   0000002000+00001578+00000+0001T   00001578+0000001201          1400 B94745               1BZ
130016002130016071-030012     130016006003000283842PEN NVLTY GLITTER 6PC  0000001000+00002630+00000+0001T   00002630+0000001201          1400 B94130               1BZ
130017000130017               130017               170213LB     1400+00000+LB0000007483+0000007483+000000000+000001048+0000008530+0000000001+I20000000000+0000008530+Z
130017001130017046-000012     130017006904708013062BATTERIES AA  CARD-OF-40000004000+00001314+00000+0001T   00001314+0000001226          1400 B94312               1AZ
130017002130017028-085274     130017006001023641571BBQ LIGHTER         H&L0000001000+00002192+00000+0001T   00002192+0000001226          1400 B94305               1AZ
130017003130017112-116038     130017006009681820246TCS CARRIER BAG MIDI   0000001000+00000035+00000+0001T   00000035+0000001226          1400 B94090               1AZ
130018000130018               130018               170213LB     1400+00000+LB0000001752+0000001752+000000000+000000246+0000001990+0000000008+I20000000000+0000001990+Z
130018001130018078-000025     130018008887013700064SUPERGLUE 3g 1PCE CARD 0000002000+00000876+00000+0001T   00000876+0000001230          1400 B94810               1CZ
130019000130019               130019               170213LB     1400+00000+LB0000007892+0000007892+000000000+000001105+0000008997+0000000000+I40000008997+0000000000+Z
130019001130019082-000120     130019006003000360727READING GLS STRENGTH:3 0000001000+00004385+00000+0001T   00004385+0000001254          1400 B94160               1BZ
130019002130019004-078990     130019006001023994431EARPHONES MINI 1.2m    0000001000+00003507+00000+0001T   00003507+0000001254          1400 B94310               1BZ
130020000130020               130020               170213LB     1400+00000+LB0000000788+0000000788+000000000+000000111+0000000890+0000000009+I20000000000+0000000890+Z
130020001130020903-000200     130020006009826020234SWT CHOC RP CHOCO 23G  0000001000+00000788+00000+0001T   00000788+0000001254          1400 B94150               1BZ
130021000130021               130021               170213LB     1400+00000+LB0000003946+0000003946+000000000+000000553+0000004490+0000000009+I20000000000+0000004490+Z
130021001130021024-000002     130021006001023741899S/BURNER-COVER SILV/BLK0000001000+00003946+00000+0001T   00004385+0008191255          1400 B94300               1BZ
130022000130022               130022               170213LB     1400+00000+LB0000020652+0000020652+000000000+000002894+0000023540+0000000006+I20000000000+0000023540+Z
130022001130022566-000345     130022006001023994837STICKER ALBUM+STICKERS 0000001000+00002630+00000+0001T   00002630+0000001304          1400 B94130               1DZ
130022002130022077-000319     130022006001023609779GIFT-BAG 18X23CM BIRTHD0000001000+00001227+00000+0001T   00001227+0000001304          1400 B94112               1DZ
130022003130022266-000508     130022006001023837172FIG ROBOT SET OF 6 8cm 0000001000+00004385+00000+0001T   00004385+0000001304          1400 B94710               1DZ
130022004130022112-116069     130022006009681820277TCS CARRIER BAG JUMBO  0000001000+00000048+00000+0001T   00000048+0000001304          1400 B94090               1DZ
130022005130022203-006000     130022006001023994493ICE-BALL IN-BAG    16PC0000002000+00003332+00000+0001T   00003332+0000001304          1400 B94300               1DZ
130022006130022206-000100     130022006003000628063TONGS ICE COLD FINGERS 0000002000+00002192+00000+0001T   00002192+0000001304          1400 B94321               1DZ
130022007130022567-011000     130022009781904725336BOOK CHILDREN'S READER 0000001000+00001314+00000+0001T   00001753+0008131304          1400 B94757               1DZ
130023000130023               130023               170213LB     1400+00000+LB0000003945+0000003945+000000000+000000553+0000004490+0000000008+I20000000000+0000004490+Z
130023001130023566-000359     130023006003000582709STICKER BOOK LOVE SPARK0000001000+00002192+00000+0001T   00002192+0000001332          1400 B94130               1AZ
130023002130023903-000215     130023006002099001214SWT GS MALLOW TWIST PAC0000001000+00001753+00000+0001T   00001753+0000001332          1400 B94150               1AZ
130024000130024               130024               170213LB     1400+00000+LB0000010346+0000010346+000000000+000001450+0000011790+0000000006+I20000000000+0000011790+Z
130024001130024261-000912     130024006001023707437GUN PL SET OF 2+6 DARTS0000001000+00004385+00000+0001T   00004385+0000001353          1400 B94710               1AZ
130024002130024261-003342     130024006001023484895GUN RIFLE ACTION-TEAM  0000001000+00004385+00000+0001T   00004385+0000001353          1400 B94710               1AZ
130024003130024903-000200     130024006009826020234SWT CHOC RP CHOCO 23G  0000002000+00000788+00000+0001T   00000788+0000001353          1400 B94150               1AZ
130025000130025               130025               170213LB     1400+00000+LB0000002630+0000002630+000000000+000000369+0000002990+0000000009+I20000000000+0000002990+Z
130025001130025077-000270     130025006003000395453GIFT-BAG PPR JMB 33X45 0000001000+00002630+00000+0001T   00002630+0000001354          1400 B94112               1BZ
130026000130026               130026               170213LB     1400+00000+LB0000001753+0000001753+000000000+000000246+0000001990+0000000009+I20000000000+0000001990+Z
130026001130026047-001337-H   130026006001023429971INS-TAPE 20m BLACK     0000001000+00001753+00000+0001T   00001753+0000001356          1400 B94880               1AZ
130027000130027               130027               170213LB     1400+00000+LB0000012272+0000012272+000000000+000001722+0000013994+0000000000+I40000013994+0000000000+Z
130027001130027034-078800     130027006001023856555COOEY WET-WIPES 60PCE  0000004000+00001753+00000+0001T   00001753+0000001412          1400 B94215               1BZ
130027002130027466-000515     130027006001023477408BALLS TENNIS BAG-OF-3  0000002000+00002630+00000+0001T   00002630+0000001412          1400 B94785               1BZ
130028000130028               130028               170213LB     1400+00000+LB0000002278+0000002278+000000000+000000320+0000002598+0000000000+I40000002598+0000000000+Z
130028001130028007-000302     130028006009635830000BOOK H/COVER A4 96-PAGE0000002000+00001139+00000+0001T   00001139+0000001432          1400 B94130               1CZ
130029000130029               130029               170213LB     1400+00000+LB0000001788+0000001788+000000000+000000251+0000002030+0000000009+I20000000000+0000002030+Z
130029001130029200-003024     130029006001023657299REFUSE BAGS 20PCE BLACK0000001000+00001753+00000+0001T   00001753+0000001438          1400 B94214               1BZ
130029002130029112-116038     130029006009681820246TCS CARRIER BAG MIDI   0000001000+00000035+00000+0001T   00000035+0000001438          1400 B94090               1BZ
130030000130030               130030               170213LB     1400+00000+LB0000043055+0000043055+000000000+000006029+0000049080+0000000004+I20000000000+0000049080+Z
130030001130030077-000323     130030006001023677563G/BAG 25X32CM E/DAY FLO0000001000+00001578+00000+0001T   00001578+0000001518          1400 B94112               1AZ
130030002130030007-000589     130030006001023810120NOTES DIARY+KEY 50PG   0000001000+00003507+00000+0001T   00003507+0000001518          1400 B94130               1AZ
130030003130030566-000991     130030000721129013121STICKERS GLOW-IN-DARK  0000001000+00002192+00000+0001T   00002192+0000001518          1400 B94130               1AZ
130030004130030079-130010     130030006003000496624ART+CRAFT FOAM DOLLS   0000001000+00004385+00000+0001T   00004385+0000001518          1400 B94130               1AZ
130030005130030079-105603     130030006003000230907ART+CRAFT STAMP ROUND  0000001000+00001578+00000+0001T   00001578+0000001518          1400 B94130               1AZ
130030006130030079-011548     130030006003000647613COLOUR MY BAG ASSTD    0000001000+00003507+00000+0001T   00003507+0000001518          1400 B94130               1AZ
130030007130030079-105610     130030006003000249473ART+CRAFT SPONGE INK PA0000001000+00003507+00000+0001T   00003507+0000001518          1400 B94130               1AZ
130030008130030079-105609     130030006003000612697ART+CRAFT ALPHABET KIT 0000001000+00005262+00000+0001T   00005262+0000001518          1400 B94130               1AZ
130030009130030567-010705     130030009781472336439BOOK COL ASSTD CAT 9   0000001000+00003507+00000+0001T   00004385+0008131518          1400 B94757               1AZ
130030010130030567-010705     130030009781472336415BOOK COL ASSTD CAT 9   0000001000+00003507+00000+0001T   00004385+0008131518          1400 B94757               1AZ
130030011130030368-000005     130030006003000616862PLUSH MONSTER 24cm     0000001000+00010525+00000+0001T   00010525+0000001518          1400 B94745               1AZ
130031000130031               130031               170213LB     1400+00000+LB0000007454+0000007454+000000000+000001044+0000008498+0000000000+I40000008498+0000000000+Z
130031001130031304-001116     130031006003000426164F/BUNCH ROSES 12-HEAD  0000001000+00005262+00000+0001T   00005262+0000001523          1400 B94510               1BZ
130031002130031566-000359     130031006003000582709STICKER BOOK LOVE SPARK0000001000+00002192+00000+0001T   00002192+0000001523          1400 B94130               1BZ
130032000130032               130032               170213LB     1400+00000+LB0000001578+0000001578+000000000+000000221+0000001790+0000000009+I20000000000+0000001790+Z
130032001130032077-000303     130032006001023593757GIFT-BAG PAPER MED     0000001000+00001578+00000+0001T   00001578+0000001529          1400 B94112               1AZ
130033000130033               130033               170213LB     1400+00000+LB0000039403+0000039403+000000000+000005525+0000044928+0000000000+I40000044928+0000000000+Z
130033001130033112-116069     130033006009681820277TCS CARRIER BAG JUMBO  0000001000+00000048+00000+0001T   00000048+0000001539          1400 B94090               1AZ
130033002130033903-000137     130033006002099004130SWEET GS JELLY BEAN 60G0000002000+00000788+00000+0001T   00000788+0000001539          1400 B94150               1AZ
130033003130033903-000120     130033006002099001665SWEET GS ZILLIONS 50g  0000002000+00000700+00000+0001T   00000700+0000001539          1400 B94150               1AZ
130033004130033903-000123     130033006925925909280SWEET GS MINI MALLOWS  0000004000+00000876+00000+0001T   00000876+0000001539          1400 B94150               1AZ
130033005130033079-006494     130033006003000159864GLITTER GLUE 5PCE 11cm 0000001000+00001490+00000+0001T   00001490+0000001539          1400 B94130               1AZ
130033006130033200-000065     130033006001023323675DRINKING-STRAWS 38PCE  0000001000+00000613+00000+0001T   00000613+0000001539          1400 B94214               1AZ
130033007130033203-007003     130033006003000116331SHOT-GLASS DISPOSABLE  0000002000+00003069+00000+0001T   00003069+0000001539          1400 B94300               1AZ
130033008130033028-085274     130033006001023641571BBQ LIGHTER         H&L0000001000+00002192+00000+0001T   00002192+0000001539          1400 B94305               1AZ
130033009130033071-001124     130033006001023802873MARKERS WHITEBOARD 3PCE0000001000+00002630+00000+0001T   00002630+0000001539          1400 B94130               1AZ
130033010130033028-000795     130033006001023812063SKEWERS 10cm 100PCE 3mm0000001000+00000964+00000+0001T   00000964+0000001539          1400 B94305               1AZ
130033011130033203-007003     130033006003000116331SHOT-GLASS DISPOSABLE  0000001000+00003069+00000+0001T   00003069+0000001539          1400 B94300               1AZ
130033012130033088-000084     130033006001023798060P/POURRI 120G ASSTD    0000001000+00001753+00000+0001T   00001753+0000001539          1400 B94212               1AZ
130033013130033566-000068     130033006003000418046POP UP LOVE 2 ASSTD    0000002000+00002192+00000+0001T   00002192+0000001539          1400 B94130               1AZ
130033014130033563-000318-L   130033006003000407088SERVIETTES 33cm RED    0000002000+00002192+00000+0001T   00002192+0000001539          1400 B94214               1AZ
130033015130033088-000084     130033006001023798060P/POURRI 120G ASSTD    0000001000+00001753+00000+0001T   00001753+0000001539          1400 B94212               1AZ
130033016130033024-000214     130033006001023587855COOKIE-CUTTERS PL 6PC  0000001000+00001753+00000+0001T   00001753+0000001539          1400 B94300               1AZ
130033017130033903-000123     130033006925925909280SWEET GS MINI MALLOWS  0000002000+00000876+00000+0001T   00000876+0000001539          1400 B94150               1AZ
130034000130034               130034               170213LB     1400+00000+LB0000000437+0000000437+000000000+000000062+0000000490+0000000009+I20000000000+0000000490+Z
130034001130034080-000133-A   130034006003000647019MINI VALENTINES CARD   0000001000+00000437+00000+0001T   00000437+0000001602          1400 B94112               1BZ
130035000130035               130035               170213LB     1400+00000+LB0000002103+0000002103+000000000+000000295+0000002390+0000000008+I20000000000+0000002390+Z
130035001130035077-000245     130035006001023759214GIFT-RIBBON METALLICx2 0000001000+00001227+00000+0001T   00001227+0000001604          1400 B94112               1BZ
130035002130035077-000011-D   130035006001023808554TISSUE-WRAP WHITE 10PCE0000001000+00000876+00000+0001T   00000876+0000001604          1400 B94112               1BZ
130036000130036               130036               170213LB     1400+00000+LB0000005956+0000005956+000000000+000000834+0000006790+0000000000+I20000000000+0000006790+Z
130036001130036564-000012     130036006001023130075BUBBLE BOTTLE MAGIC    0000001000+00000700+00000+0001T   00000700+0000001606          1400 B94131               1BZ
130036002130036903-000194     130036006009826020616SWT CHOC RP LOLLY 25G  0000004000+00001314+00000+0001T   00001314+0000001606          1400 B94150               1BZ
130037000130037               130037               170213LB     1400+00000+LB0000007926+0000007926+000000000+000001111+0000009030+0000000007+I20000000000+0000009030+Z
130037001130037903-000590     130037006003000563494SWT TOY REVOLVER 22cm  0000001000+00002630+00000+0001T   00002630+0000001607          1400 B94150               1CZ
130037002130037004-078900     130037006003000061655MICROPHONE O/F SWT 21cm0000001000+00004385+00000+0001T   00004385+0000001607          1400 B94310               1CZ
130037003130037903-000123     130037006925925909280SWEET GS MINI MALLOWS  0000001000+00000876+00000+0001T   00000876+0000001607          1400 B94150               1CZ
130037004130037112-116038     130037006009681820246TCS CARRIER BAG MIDI   0000001000+00000035+00000+0001T   00000035+0000001607          1400 B94090               1CZ
130038000130038               130038               170213LB     1400+00000+LB0000006610+0000006610+000000000+000000927+0000007537+0000000000+I40000007537+0000000000+Z
130038001130038018-000170     130038006001023775528MUG OCC. LOVE 2PC MINI 0000001000+00002192+00000+0001T   00002192+0000001617          1400 B94515               1BZ
130038002130038080-000113     130038006003000237449CARD&ENVLPE - LOVE     0000001000+00001753+00000+0001T   00001753+0000001617          1400 B94112               1BZ
130038003130038018-000129     130038006001023403353MUG OCC. LOVE V-SHAPE  0000001000+00002630+00000+0001T   00002630+0000001617          1400 B94515               1BZ
130038004130038112-116038     130038006009681820246TCS CARRIER BAG MIDI   0000001000+00000035+00000+0001T   00000035+0000001617          1400 B94090               1BZ
130039000130039               130039               170213LB     1400+00000+LB0000005260+0000005260+000000000+000000738+0000005990+0000000008+I20000000000+0000005990+Z
130039001130039200-000003     130039006003000532360DISPOSABLE BAG 100PC   0000001000+00002630+00000+0001T   00002630+0000001619          1400 B94214               1CZ
130039002130039200-003021     130039006003000276370REFUSE BAGS 30xSCENTED 0000001000+00002630+00000+0001T   00002630+0000001619          1400 B94214               1CZ
130040000130040               130040               170213LB     1400+00000+LB0000007716+0000007716+000000000+000001081+0000008790+0000000007+I20000000000+0000008790+Z
130040001130040903-000211     130040006002099001238SWT GS MALLOW ICE CREAM0000001000+00001753+00000+0001T   00001753+0000001621          1400 B94150               1BZ
130040002130040077-000315     130040006003000181186GIFT-BAG 20x28cm MATT  0000001000+00001578+00000+0001T   00001578+0000001621          1400 B94112               1BZ
130040003130040001-000175     130040006001023788108B/MUG GLS LOVE 380ML   0000001000+00004385+00000+0001T   00004385+0000001621          1400 B94515               1BZ
130041000130041               130041               170213LB     1400+00000+LB0000007482+0000007482+000000000+000001048+0000008530+0000000000+I20000000000+0000008530+Z
130041001130041565-000255     130041006003000585168NOVELTY GLOW SLIME     0000001000+00002455+00000+0001T   00002455+0000001629          1400 B94745               1CZ
130041002130041261-000121     130041006001023341600GUN-CAPS 8-SHOT CARD-9 0000004000+00000700+00000+0001T   00000700+0000001629          1400 B94710               1CZ
130041003130041261-008349     130041006001023787590CAP-GUN 8-SHOT         0000001000+00002192+00000+0001T   00002192+0000001629          1400 B94710               1CZ
130041004130041112-116038     130041006009681820246TCS CARRIER BAG MIDI   0000001000+00000035+00000+0001T   00000035+0000001629          1400 B94090               1CZ
130042000130042               130042               170213LB     1400+00000+LB0000007049+0000007049+000000000+000000987+0000008036+0000000000+I40000008036+0000000000+Z
130042001130042018-000136     130042006001023659026MUG OCC LOVE W/PLUSH   0000002000+00003507+00000+0001T   00003507+0000001631          1400 B94515               1BZ
130042002130042112-116038     130042006009681820246TCS CARRIER BAG MIDI   0000001000+00000035+00000+0001T   00000035+0000001631          1400 B94090               1BZ
130043000130043               130043               170213LB     1400+00000+LB0000007049+0000007049+000000000+000000987+0000008030+0000000006+I20000000000+0000008030+Z
130043001130043112-116038     130043006009681820246TCS CARRIER BAG MIDI   0000001000+00000035+00000+0001T   00000035+0000001634          1400 B94090               1BZ
130043002130043018-000136     130043006001023659026MUG OCC LOVE W/PLUSH   0000002000+00003507+00000+0001T   00003507+0000001634          1400 B94515               1BZ
130044000130044               130044               170213LB     1400+00000+LB0000007049-0000007049-000000000+000000987-0000008036-0000000000+I40000008036-0000000000+Z
130044001130044018-000136     130044006001023659026MUG OCC LOVE W/PLUSH   0000002000-00003507+00000+0001T   00003507+0000001636          1400 B945151IC            1 Z
130044002130044112-116038     130044006009681820246TCS CARRIER BAG MIDI   0000001000-00000035+00000+0001T   00000035+0000001636          1400 B940901IC            1 Z
130045000130045               130045               170213LB     1400+00000+LB0000004119+0000004119+000000000+000000577+0000004696+0000000000+I40000004696+0000000000+Z
130045001130045033-001401     130045006009654960481HAIR-CURLERS 8PCE MED  0000001000+00001227+00000+0001T   00001227+0000001640          1400 B94200               1CZ
130045002130045018-000127     130045006001023380289MUG OCC STRAIGHT LOVE  0000001000+00001578+00000+0001T   00001753+0006471640          1400 B94515               1CZ
130045003130045077-000310     130045006001023608635GIFT-BAG 18X23CM GLOSS 0000001000+00001314+00000+0001T   00001314+0000001640          1400 B94112               1CZ
130046000130046               130046               170213LB     1400+00000+LB0000003769+0000003769+000000000+000000528+0000004297+0000000000+I40000004297+0000000000+Z
130046001130046033-005920-A   130046006001023678249SEWING-THREAD 100m WHT 0000001000+00000700+00000+0001T   00000700+0000001658          1400 B94200               1CZ
130046002130046084-009417     130046006001023783493SCISSORS 21+14cm 2PCE  0000001000+00003069+00000+0001T   00003069+0000001658          1400 B94200               1CZ
130047000130047               130047               170213LB     1400+00000+LB0000009502+0000009502+000000000+000001332+0000010830+0000000004+I20000000000+0000010830+Z
130047001130047304-001204     130047006001023737984FLOWER OCC. TEDDY/ROSES0000001000+00001402+00000+0001T   00001490+0006471702          1400 B94510               1AZ
130047002130047903-000200     130047006009826020234SWT CHOC RP CHOCO 23G  0000001000+00000788+00000+0001T   00000788+0000001702          1400 B94150               1AZ
130047003130047018-000136     130047006001023659026MUG OCC LOVE W/PLUSH   0000001000+00003507+00000+0001T   00003507+0000001702          1400 B94515               1AZ
130047004130047077-000303     130047006001023593757GIFT-BAG PAPER MED     0000001000+00001578+00000+0001T   00001578+0000001702          1400 B94112               1AZ
130047005130047566-000359     130047006003000582709STICKER BOOK LOVE SPARK0000001000+00002192+00000+0001T   00002192+0000001702          1400 B94130               1AZ
130047006130047112-116038     130047006009681820246TCS CARRIER BAG MIDI   0000001000+00000035+00000+0001T   00000035+0000001702          1400 B94090               1AZ
130048000130048               130048               170213LB     1400+00000+LB0000005998+0000005998+000000000+000000840+0000006838+0000000000+I40000006838+0000000000+Z
130048001130048031-000001-A   130048006003000246908P/FRAME GLS LOVE 9X13cm0000001000+00004385+00000+0001T   00004385+0000001711          1400 B94510               1AZ
130048002130048077-000315     130048006003000181186GIFT-BAG 20x28cm MATT  0000001000+00001578+00000+0001T   00001578+0000001711          1400 B94112               1AZ
130048003130048112-116038     130048006009681820246TCS CARRIER BAG MIDI   0000001000+00000035+00000+0001T   00000035+0000001711          1400 B94090               1AZ
130049000130049               130049               170213LB     1400+00000+LB0000006698+0000006698+000000000+000000938+0000007636+0000000000+I40000007636+0000000000+Z
130049001130049018-000177     130049006001023797513MUG MINI LOVE ASSTD    0000001000+00000700+00000+0001T   00000700+0000001713          1400 B94515               1CZ
130049002130049077-000303     130049006001023593757GIFT-BAG PAPER MED     0000001000+00001578+00000+0001T   00001578+0000001713          1400 B94112               1CZ
130049003130049368-000049     130049006003000536955PLUSH BEAR 15cm LOVE   0000001000+00004385+00000+0001T   00004385+0000001713          1400 B94745               1CZ
130049004130049112-116038     130049006009681820246TCS CARRIER BAG MIDI   0000001000+00000035+00000+0001T   00000035+0000001713          1400 B94090               1CZ
130050000130050               130050               170213LB     1400+00000+LB0000012175+0000012175+000000000+000001712+0000013887+0000000000+I40000013887+0000000000+Z
130050001130050036-000151     130050006001023810588COATHANGERS    PACK-10 0000001000+00002893+00000+0001T   00002893+0000001801          1400 B94212               1BZ
130050002130050104-000031     130050006003000614950BASKET PL 27x18x12cm   0000001000+00002630+00000+0001T   00002630+0000001801          1400 B94210               1BZ
130050003130050903-000012     130050006002099007308SWT MALLOW S/BERRY     0000002000+00000437+00000+0001T   00000437+0000001801          1400 B94150               1BZ
130050004130050903-000120     130050006002099001665SWEET GS ZILLIONS 50g  0000001000+00000700+00000+0001T   00000700+0000001801          1400 B94150               1BZ
130050005130050903-000094     130050006923431501622SWT GS CANDY NECKLACE  0000001000+00000437+00000+0001T   00000437+0000001801          1400 B94150               1BZ
130050006130050104-000031     130050006003000614950BASKET PL 27x18x12cm   0000001000+00002630+00000+0001T   00002630+0000001801          1400 B94210               1BZ
130050007130050903-000012     130050006002099007308SWT MALLOW S/BERRY     0000002000+00000437+00000+0001T   00000437+0000001801          1400 B94150               1BZ
130050008130050903-000120     130050006002099001665SWEET GS ZILLIONS 50g  0000001000+00000700+00000+0001T   00000700+0000001801          1400 B94150               1BZ
130050009130050903-000094     130050006923431501622SWT GS CANDY NECKLACE  0000001000+00000437+00000+0001T   00000437+0000001801          1400 B94150               1BZ
130051000130051               130051               170213LB     1400+00000+LB0000001753+0000001753+000000000+000000246+0000001990+0000000009+I20000000000+0000001990+Z
130051001130051080-000113     130051006003000237449CARD&ENVLPE - LOVE     0000001000+00001753+00000+0001T   00001753+0000001802          1400 B94112               1BZ
130052000130052               130052               170213LB     1400+00000+LB0000016601+0000016601+000000000+000002327+0000018928+0000000000+I40000018928+0000000000+Z
130052001130052903-000510     130052006001704012621SWEET MS ZBDZ S/BERRY  0000002000+00001227+00000+0001T   00001227+0000001804          1400 B94150               1BZ
130052002130052903-000518     130052006001704012782SWT STRAWS S/BERRY 100g0000003000+00001227+00000+0001T   00001227+0000001804          1400 B94150               1BZ
130052003130052206-000620     130052006003000631797BACK SCRATCHER EXTEND  0000001000+00002630+00000+0001T   00002630+0000001804          1400 B94321               1BZ
130052004130052080-000117     130052006003000236350CARD & ENVELOPE THANK U0000001000+00001753+00000+0001T   00001753+0000001804          1400 B94112               1BZ
130052005130052016-006508     130052006003000181537S/JAR GLASS 10X12CM    0000001000+00003507+00000+0001T   00003507+0000001804          1400 B94300               1BZ
130052006130052903-000510     130052006001704012621SWEET MS ZBDZ S/BERRY  0000001000+00001227+00000+0001T   00001227+0000001804          1400 B94150               1BZ
130052007130052112-116038     130052006009681820246TCS CARRIER BAG MIDI   0000001000+00000035+00000+0001T   00000035+0000001804          1400 B94090               1BZ
130052008130052077-000407     130052006003000145096G/BAG PP 19X26X8CM     0000001000+00001314+00000+0001T   00001314+0000001804          1400 B94112               1BZ
130053000130053               130053               170213LB     1400+00000+LB0000009117+0000009117+000000000+000001278+0000010395+0000000000+I40000010395+0000000000+Z
130053001130053077-000010-D   130053006001023123886CREPE-PAPER WHITE      0000001000+00000788+00000+0001T   00000788+0000001848          1400 B94112               1AZ
130053002130053080-000127     130053006003000424351VALENTINES DAY 36x24CM 0000001000+00002192+00000+0001T   00002192+0000001848          1400 B94112               1AZ
130053003130053077-000270     130053006003000395453GIFT-BAG PPR JMB 33X45 0000001000+00002630+00000+0001T   00002630+0000001848          1400 B94112               1AZ
130053004130053031-000002-A   130053006003000247103P/FRAME LOVE 7.5X7.5CM 0000001000+00003507+00000+0001T   00003507+0000001848          1400 B94510               1AZ
130054000130054               130054               170213LB     1400+00000+LB0000003507+0000003507+000000000+000000491+0000003990+0000000008+I20000000000+0000003990+Z
130054001130054007-000027     130054006003000589890FILE DISPLAY-BOOK PL A40000001000+00003507+00000+0001T   00003507+0000001850          1400 B94130               1BZ
A17021300                                          07570756LBSLAVE 1                       B942IC
A17021301                                          09201551LBSLAVE 1                       B942IC
A17021302                                          17465840LBSLAVE 1                       B942IC
A17021303                                          17482583LBSLAVE 1                       B942IC
M17021301                              IT          LBATT:IT                                          SLAVE 1 LAST TILL SLIP NO 130054                POLOKWANE LB                                    THANX CAROLINE
M17021391                              CASH        LBSLAVE 1                       Z-REPORT No.   463TOTAL (Sales - Refunds)           3685.17       CASH TO BE BANKED                 1918.20       DEBIT CARDS                          0.00       CREDIT CARDS                      1766.97       Z-READING                         3685.17       AIRTIME DEBIT CARD SALES             0.00       AIRTIME CARD SALES                   0.00       OVERS/UNDERS                         0.00       AIRTIME CASH SALES                   0.00       GIFT CARDS                           0.00       GIFT CARD CASH SALES                 0.00       T O T A L  CASH PAYOUTS              0.00                                                                                                                                                                                                                                                                                                                                                      Z
M17021392                              CASH        LBABSENT                                                                                                                                                                                          ANNUAL LEAVE                                                                                                                                                                                    DAY OFF                                                                                                                                                                                         COMMENTS                                                                                                                                                                                                                                                                                                                                                                                       Z
Y17021300                                          LB00000000330419+000042
ZLB17021320013 SLAVE 1      SALES DATA                     NEXT INVOICE NO.  130055 0463
X LB Slave 1 First invoice 130012 170213 Last invoice 130054 170213 Next invoice 130055 Total number of records 000000194 clbackup completed 20:01:27
