154430000154430               154430               170213LB     1400+00000+LB0000018793+0000018793+000000000+000002637+0000000000+0000000000+ 00000000000+0000000000+Z
154430001154430112-116038     154430006009681820246TCS CARRIER BAG MIDI   0000001000+00000035+00000+0001T   00000035+000000              1400 JN40902IC            3 Z
154430002154430046-000014-A   154430004897006177708BATTERIES SIZE:AAA 8PCE0000001000+00001753+00000+0001T   00001753+000000              1400 JN43122IC            3 Z
154430003154430150-004030-H   154430006001023435798BATH-PLUG RUBBER WHITE 0000002000+00000613+00000+0001T   00000613+000000              1400 JN48102IC            3 Z
154430004154430486-000001     154430006001023507969ALARM-CLOCK SQ ASS     0000002000+00002630+00000+0001T   00002630+000000              1400 JN45102IC            3 Z
154430005154430048-000859     154430006003000423422TORCH 9 LED PL 3XAAA   0000002000+00001753+00000+0001T   00001753+000000              1400 JN43052IC            3 Z
154430006154430369-001138-D   154430006003000097623BABY BATH VINYL THEMED 0000002000+00002630+00000+0001T   00002630+000000              1400 JN47452IC            3 Z
154430007154430051-002402     154430006001023518347TRIGGER-SPRAYER  500ml 0000001000+00001753+00000+0001T   00001753+000000              1400 JN48202IC            3 Z
154431000154431               154431               170213LB     1400+00000+LB0000008274+0000008274+000000000+000001161+0000009435+0000000000+I40000009435+0000000000+Z
154431001154431112-116038     154431006009681820246TCS CARRIER BAG MIDI   0000001000+00000035+00000+0001T   00000035+0000000932          1400 JN4090               3BZ
154431002154431150-004030-H   154431006001023435798BATH-PLUG RUBBER WHITE 0000002000+00000613+00000+0001T   00000613+0000000932          1400 JN4810               3BZ
154431003154431369-001138-D   154431006003000097623BABY BATH VINYL THEMED 0000002000+00002630+00000+0001T   00002630+0000000932          1400 JN4745               3BZ
154431004154431051-002402     154431006001023518347TRIGGER-SPRAYER  500ml 0000001000+00001753+00000+0001T   00001753+0000000932          1400 JN4820               3BZ
154432000154432               154432               170213LB     1400+00000+LB0000003156+0000003156+000000000+000000442+0000003590+0000000008+I20000000000+0000003590+Z
154432001154432369-001137-B   154432006003000626373BABY BATH VINYL DUCK   0000002000+00001578+00000+0001T   00001578+0000000932          1400 JN4745               3BZ
154433000154433               154433               170213LB     1400+00000+LB0000004120+0000004120+000000000+000000577+0000004690+0000000007+I20000000000+0000004690+Z
154433001154433018-000127     154433006001023380289MUG OCC STRAIGHT LOVE  0000001000+00001578+00000+0001T   00001753+0006470933          1400 JN4515               3BZ
154433002154433903-000843     154433008693029031067SWT GUMMY JELAXY 80G   0000001000+00000964+00000+0001T   00000964+0000000933          1400 JN4150               3BZ
154433003154433080-000124     154433006003000297733CARD & ENV VALENTINES  0000001000+00001578+00000+0001T   00001578+0000000933          1400 JN4112               3BZ
154434000154434               154434               170213LB     1400+00000+LB0000000876+0000000876+000000000+000000123+0000000990+0000000009+I20000000000+0000000990+Z
154434001154434252-000011     154434006001023475190CURTN-GLIDER ACETYL x500000001000+00000876+00000+0001T   00000876+0000000933          1400 JN4810               3BZ
154435000154435               154435               170213LB     1400+00000+LB0000045687+0000045687+000000000+000006400+0000052080+0000000007+I20000000000+0000052080+Z
154435001154435019-000047-A   154435006001023749048VASE GLASS 30CM CLEAR  0000004000+00008771+00000+0001T   00008771+0000000945          1400 JN4510               3BZ
154435002154435019-071601     154435006001023771995RIVER-STONES 1kg WHITE 0000004000+00002630+00000+0001T   00002630+0000000945          1400 JN4510               3BZ
154435003154435112-116069     154435006009681820277TCS CARRIER BAG JUMBO  0000001000+00000048+00000+0001T   00000048+0000000945          1400 JN4090               3BZ
154435004154435112-116038     154435006009681820246TCS CARRIER BAG MIDI   0000001000+00000035+00000+0001T   00000035+0000000945          1400 JN4090               3BZ
154436000154436               154436               170213LB     1400+00000+LB0000001314+0000001314+000000000+000000184+0000001490+0000000008+I20000000000+0000001490+Z
154436001154436107-004105     154436006002923010504BUCKET 9L OPEN         0000001000+00001314+00000+0001T   00001314+0000001027          1400 JN4210               3BZ
154437000154437               154437               170213LB     1400+00000+LB0000050200+0000050200+000000000+000007033+0000057233+0000000000+I40000057233+0000000000+Z
154437001154437112-116069     154437006009681820277TCS CARRIER BAG JUMBO  0000001000+00000048+00000+0001T   00000048+0000001032          1400 JN4090               3BZ
154437002154437077-000245     154437006001023759214GIFT-RIBBON METALLICx2 0000001000+00001227+00000+0001T   00001227+0000001032          1400 JN4112               3BZ
154437003154437036-000010     154437006003000675777LINT REMOVER STICKY    0000001000+00001753+00000+0001T   00001753+0000001032          1400 JN4212               3BZ
154437004154437036-000011     154437006003000675890LINT REMOVER REFILL    0000001000+00000876+00000+0001T   00000876+0000001032          1400 JN4212               3BZ
154437005154437018-000129     154437006001023403353MUG OCC. LOVE V-SHAPE  0000001000+00002630+00000+0001T   00002630+0000001032          1400 JN4515               3BZ
154437006154437036-000020     154437006001023666512LINT-REMOVER B/O SMALL 0000001000+00003507+00000+0001T   00003507+0000001032          1400 JN4212               3BZ
154437007154437563-000318-L   154437006003000407088SERVIETTES 33cm RED    0000001000+00002192+00000+0001T   00002192+0000001032          1400 JN4214               3BZ
154437008154437033-006001     154437006001023135933SEWING-KIT TRAVELLING  0000001000+00000876+00000+0001T   00000876+0000001032          1400 JN4200               3BZ
154437009154437033-001364     154437006001023802088HAIR-CLIPS 65mm 24PCE  0000001000+00000876+00000+0001T   00000876+0000001032          1400 JN4200               3BZ
154437010154437032-000236     154437006001023731647MIRROR PL STANDING OVAL0000001000+00003507+00000+0001T   00003507+0000001032          1400 JN4510               3BZ
154437011154437028-000026     154437006001023810847COOLER-BAG+POCKET NYLON0000001000+00009648+00000+0001T   00009648+0000001032          1400 JN4305               3BZ
154437012154437046-000012     154437006904708013062BATTERIES AA  CARD-OF-40000001000+00001314+00000+0001T   00001314+0000001032          1400 JN4312               3BZ
154437013154437903-000194     154437006009826020616SWT CHOC RP LOLLY 25G  0000002000+00001314+00000+0001T   00001314+0000001032          1400 JN4150               3BZ
154437014154437028-000025     154437006003000422395COOLER BAG 39x20x27cm  0000001000+00015788+00000+0001T   00015788+0000001032          1400 JN4305               3BZ
154437015154437903-003080     154437005907029004673SWT SNACK STIX CHOC 50g0000001000+00000876+00000+0001T   00000876+0000001032          1400 JN4150               3BZ
154437016154437903-000504     154437006001704012416SWT CHOC JELLY BEANS   0000002000+00001227+00000+0001T   00001227+0000001032          1400 JN4150               3BZ
154438000154438               154438               170213LB     1400+00000+LB0000012325+0000012325+000000000+000001727+0000014050+0000000002+I20000000000+0000014050+Z
154438001154438004-079102     154438006003000605033USB POWER BANK 1200MAH 0000001000+00006139+00000+0001T   00006139+0000001036          1400 JN4310               3BZ
154438002154438078-000030     154438006003000151141YAMAYO SUPERGLUE 8g    0000001000+00001753+00000+0001T   00001753+0000001036          1400 JN4810               3BZ
154438003154438366-000401     154438006003000242047DRESS UP PRINCESS SET  0000001000+00004385+00000+0001T   00004385+0000001036          1400 JN4131               3BZ
154438004154438112-116069     154438006009681820277TCS CARRIER BAG JUMBO  0000001000+00000048+00000+0001T   00000048+0000001036          1400 JN4090               3BZ
154439000154439               154439               170213LB     1400+00000+LB0000002628+0000002628+000000000+000000368+0000002990+0000000006+I20000000000+0000002990+Z
154439001154439006-000166-D   154439006003000516490BALLOONS LRG 6PC RED   0000002000+00001314+00000+0001T   00001314+0000001044          1400 JN4131               3BZ
154440000154440               154440               170213LB     1400+00000+LB0000081123+0000081123+000000000+000011364+0000092480+0000000007+I20000000000+0000092480+Z
154440001154440112-116069     154440006009681820277TCS CARRIER BAG JUMBO  0000001000+00000048+00000+0001T   00000048+0000001056          1400 JN4090               3BZ
154440002154440107-004000     154440006001023889256BASIN PL OBLONG        0000001000+00004385+00000+0001T   00004385+0000001056          1400 JN4210               3BZ
154440003154440104-000053     154440006003000011193BASKET PL 25X32X6cm    0000010000+00004385+00000+0001T   00004385+0000001056          1400 JN4210               3BZ
154440004154440562-001043     154440006003000478200NUMBERS&ALPHABET MAGNET0000001000+00006139+00000+0001T   00006139+0000001056          1400 JN4755               3BZ
154440005154440262-000019     154440006003000644667DIE CAST SET FARM TRUCK0000002000+00004385+00000+0001T   00004385+0000001056          1400 JN4710               3BZ
154440006154440080-000133-A   154440006003000647019MINI VALENTINES CARD   0000001000+00000437+00000+0001T   00000437+0000001056          1400 JN4112               3BZ
154440007154440112-116069     154440006009681820277TCS CARRIER BAG JUMBO  0000001000+00000048+00000+0001T   00000048+0000001056          1400 JN4090               3BZ
154440008154440567-011492     154440000076645122148BK ACTIVITY 96P SCHOOL 0000001000+00002630+00000+0001T   00002630+0000001056          1400 JN4757               3BZ
154440009154440567-011498     154440000814625014348BK COLOURING 96P JUNGLE0000001000+00001753+00000+0001T   00002630+0008141056          1400 JN4757               3BZ
154440010154440567-011495     154440000076645122032BK ACTIVITY 96P BIBLE  0000001000+00002630+00000+0001T   00002630+0000001056          1400 JN4757               3BZ
154440011154440104-000031     154440006003000614950BASKET PL 27x18x12cm   0000001000+00002630+00000+0001T   00002630+0000001056          1400 JN4210               3BZ
154440012154440108-001030     154440006006862000923TUMBLERS PASTEL SET-6  0000003000+00001578+00000+0001T   00001578+0000001056          1400 JN4210               3BZ
154440013154440024-000212     154440006001023858030COOKIE-CUTTERS PL SMALL0000001000+00003069+00000+0001T   00003069+0000001056          1400 JN4300               3BZ
154441000154441               154441               170213LB     1400+00000+LB0000005171+0000005171+000000000+000000725+0000005890+0000000006+I20000000000+0000005890+Z
154441001154441028-000001-A   154441006001023612335BBQ MATCHES 60-STICKS  0000001000+00002630+00000+0001T   00002630+0000001059          1400 JN4305               3BZ
154441002154441077-000470     154441006003000330171G-BAG DESGN SML 11X14CM0000001000+00001314+00000+0001T   00001314+0000001059          1400 JN4112               3BZ
154441003154441206-000630     154441006003000631919SPECTACLE CLEANING BRUS0000001000+00001227+00000+0001T   00001227+0000001059          1400 JN4321               3BZ
154442000154442               154442               170213LB     1400+00000+LB0000001139+0000001139+000000000+000000160+0000001290+0000000009+I20000000000+0000001290+Z
154442001154442007-000302     154442006001023358974BOOK H/COVER A4 96-PAGE0000001000+00001139+00000+0001T   00001139+0000001100          1400 JN4130               3BZ
154443000154443               154443               170213LB     1400+00000+LB0000001753+0000001753+000000000+000000246+0000001990+0000000009+I20000000000+0000001990+Z
154443001154443056-005751     154443006003000102877CAR AIR-FRESH SHOE ASST0000001000+00001753+00000+0001T   00001753+0000001211          1400 JN4860               3BZ
154444000154444               154444               170213LB     1400+00000+LB0000004384+0000004384+000000000+000000614+0000004990+0000000008+I20000000000+0000004990+Z
154444001154444024-091102     154444006003453000010BAKING-CUP PAPER 50PC  0000002000+00002192+00000+0001T   00002192+0000001211          1400 JN4300               3BZ
154445000154445               154445               170213LB     1400+00000+LB0000005262+0000005262+000000000+000000737+0000005990+0000000009+I20000000000+0000005990+Z
154445001154445082-007580     154445006003000698523SUNGLASS MENS DESIGNER 0000001000+00005262+00000+0001T   00005262+0000001215          1400 JN4160               3BZ
154446000154446               154446               170213LB     1400+00000+LB0000002366+0000002366+000000000+000000332+0000002690+0000000008+I20000000000+0000002690+Z
154446001154446077-000011-L   154446006001023808585P/TISSUE BRIGHT 10SHEET0000001000+00000876+00000+0001T   00000876+0000001401          1400 JN4112               3BZ
154446002154446039-000108     154446006001023524034TEA-LITE CANDLES 8PCE  0000001000+00001490+00000+0001T   00001490+0000001401          1400 JN4510               3BZ
154447000154447               154447               170213LB     1400+00000+LB0000005082+0000005082+000000000+000000714+0000005796+0000000000+I40000005796+0000000000+Z
154447001154447903-000123     154447006925925909280SWEET GS MINI MALLOWS  0000001000+00000876+00000+0001T   00000876+0000001402          1400 JN4150               3BZ
154447002154447033-001305     154447006003000667314HAIR PINS 4PC SNAP CLIP0000002000+00000788+00000+0001T   00000788+0000001402          1400 JN4200               3BZ
154447003154447006-006018     154447006001023735256PARTY-SPRAY HAIR ASSORT0000001000+00002630+00000+0001T   00002630+0000001402          1400 JN4131               3BZ
154448000154448               154448               170213LB     1400+00000+LB0000005559+0000005559+000000000+000000779+0000006330+0000000008+I20000000000+0000006330+Z
154448001154448112-116038     154448006009681820246TCS CARRIER BAG MIDI   0000001000+00000035+00000+0001T   00000035+0000001408          1400 JN4090               3BZ
154448002154448368-000049     154448006003000536955PLUSH BEAR 15cm LOVE   0000001000+00004385+00000+0001T   00004385+0000001408          1400 JN4745               3BZ
154448003154448903-000087     154448006001704000161SWT SPECKLED-EGGS 50G  0000001000+00001139+00000+0001T   00001139+0000001408          1400 JN4150               3BZ
154449000154449               154449               170213LB     1400+00000+LB0000030819+0000030819+000000000+000004320+0000035139+0000000000+I40000035139+0000000000+Z
154449001154449112-116069     154449006009681820277TCS CARRIER BAG JUMBO  0000001000+00000048+00000+0001T   00000048+0000001416          1400 JN4090               3BZ
154449002154449006-000210-H   154449006003000430055PINK/BLUE CUPS 230g 6PC0000001000+00001490+00000+0001T   00001490+0000001416          1400 JN4131               3BZ
154449003154449077-000245     154449006001023759214GIFT-RIBBON METALLICx2 0000001000+00001227+00000+0001T   00001227+0000001416          1400 JN4112               3BZ
154449004154449039-000322     154449006001023524157B/CANDLES W/HOLDERS 24 0000001000+00001139+00000+0001T   00001139+0000001416          1400 JN4510               3BZ
154449005154449006-000120     154449006001023346889BALLOONS 10PC MIX COL  0000002000+00001753+00000+0001T   00001753+0000001416          1400 JN4131               3BZ
154449006154449566-000359     154449006003000582709STICKER BOOK LOVE SPARK0000001000+00002192+00000+0001T   00002192+0000001416          1400 JN4130               3BZ
154449007154449024-091106     154449006003000443130C/STAND PAPER 3-TIER   0000001000+00003507+00000+0001T   00003507+0000001416          1400 JN4300               3BZ
154449008154449567-075700     154449006003000339389BOOK NOVEL 3-PACK ASSTD0000001000+00013157+00000+0001T   00013157+0000001416          1400 JN4757               3BZ
154449009154449018-000177     154449006001023797513MUG MINI LOVE ASSTD    0000002000+00000700+00000+0001T   00000700+0000001416          1400 JN4515               3BZ
154449010154449079-009702-G   154449008427973060787PAPER SIRIO A2 FUSHIA  0000003000+00001051+00000+0001T   00001051+0000001416          1400 JN4130               3BZ
154450000154450               154450               170213LB     1400+00000+LB0000001314+0000001314+000000000+000000184+0000001498+0000000000+I40000001498+0000000000+Z
154450001154450006-000167-C   154450006003000516971BALLOONS PINK METALLIC 0000001000+00001314+00000+0001T   00001314+0000001418          1400 JN4131               3BZ
154451000154451               154451               170213LB     1400+00000+LB0000010084+0000010084+000000000+000001413+0000011497+0000000000+I40000011497+0000000000+Z
154451001154451003-001001     154451006001023722553ORN GARDEN OWL 10.5cm  0000001000+00003069+00000+0001T   00003069+0000001421          1400 JN4505               3BZ
154451002154451018-019000     154451006003000557288MUG OCC. LOVE JUMBO    0000001000+00005262+00000+0001T   00005262+0000001421          1400 JN4515               3BZ
154451003154451077-000357     154451006003000139354GIFT-BAG 18X23CM B/DAY 0000001000+00001753+00000+0001T   00001753+0000001421          1400 JN4112               3BZ
154452000154452               154452               170213LB     1400+00000+LB0000003067+0000003067+000000000+000000431+0000003490+0000000008+I20000000000+0000003490+Z
154452001154452077-000475     154452006003000640775GIFT-BAG DESIGNER MED  0000001000+00002630+00000+0001T   00002630+0000001422          1400 JN4112               3BZ
154452002154452080-000133     154452006003000535613CARD&ENV MINI ASTD DSGN0000001000+00000437+00000+0001T   00000437+0000001422          1400 JN4112               3BZ
154453000154453               154453               170213LB     1400+00000+LB0000013152+0000013152+000000000+000001842+0000014994+0000000000+I40000014994+0000000000+Z
154453001154453200-000308     154453006003000577477FOOD TIES SILICONE 3PCE0000006000+00002192+00000+0001T   00002192+0000001426          1400 JN4214               3BZ
154454000154454               154454               170213LB     1400+00000+LB0000001801+0000001801+000000000+000000253+0000002050+0000000004+I20000000000+0000002050+Z
154454001154454077-000316     154454006001023609731GIFT-BAG 25X32CM MATT  0000001000+00001753+00000+0001T   00001753+0000001454          1400 JN4112               3BZ
154454002154454112-116069     154454006009681820277TCS CARRIER BAG JUMBO  0000001000+00000048+00000+0001T   00000048+0000001454          1400 JN4090               3BZ
154455000154455               154455               170213LB     1400+00000+LB0000004385+0000004385+000000000+000000614+0000004990+0000000009+I20000000000+0000004990+Z
154455001154455004-078993     154455006001023716569EARPHONES W/1.1m CORD  0000001000+00004385+00000+0001T   00004385+0000001500          1400 JN4310               3BZ
154456000154456               154456               170213LB     1400+00000+LB0000060387+0000060387+000000000+000008474+0000068860+0000000001+I20000000000+0000068860+Z
154456001154456112-116069     154456006009681820277TCS CARRIER BAG JUMBO  0000001000+00000048+00000+0001T   00000048+0000001539          1400 JN4090               3BZ
154456002154456006-000789     154456006001023148612CROWN BOY              0000003000+00002192+00000+0001T   00002192+0000001539          1400 JN4131               3BZ
154456003154456366-000256     154456006001023918406DRESS UP TIARA&EARRINGS0000002000+00003069+00000+0001T   00003069+0000001539          1400 JN4131               3BZ
154456004154456903-000123     154456006925925909280SWEET GS MINI MALLOWS  0000006000+00000876+00000+0001T   00000876+0000001539          1400 JN4150               3BZ
154456005154456006-000803     154456006003000653676STREAMERS SET 3ROLLS   0000001000+00002630+00000+0001T   00002630+0000001539          1400 JN4131               3BZ
154456006154456903-000012     154456006002099007308SWT MALLOW S/BERRY     0000001000+00000437+00000+0001T   00000437+0000001539          1400 JN4150               3BZ
154456007154456366-000256     154456006001023918406DRESS UP TIARA&EARRINGS0000001000+00003069+00000+0001T   00003069+0000001539          1400 JN4131               3BZ
154456008154456903-000012     154456006002099007308SWT MALLOW S/BERRY     0000005000+00000437+00000+0001T   00000437+0000001539          1400 JN4150               3BZ
154456009154456112-116069     154456006009681820277TCS CARRIER BAG JUMBO  0000001000+00000048+00000+0001T   00000048+0000001539          1400 JN4090               3BZ
154456010154456077-000455     154456006003000285389G/BAG METALLIC LRG SOL 0000006000+00001753+00000+0001T   00001753+0000001539          1400 JN4112               3BZ
154456011154456567-014132     154456006003000560028BOOK COLOURING 24 PAGE 0000006000+00000876+00000+0001T   00000876+0000001539          1400 JN4757               3BZ
154456012154456564-000012     154456006001023130075BUBBLE BOTTLE MAGIC    0000006000+00000700+00000+0001T   00000700+0000001539          1400 JN4131               3BZ
154456013154456079-013114     154456006003000068418DIY FINGER PUPPETS FELT0000002000+00001753+00000+0001T   00001753+0000001539          1400 JN4130               3BZ
154456014154456079-013105     154456006001023863997ART+CRAFT DIY HAND PUPP0000001000+00002630+00000+0001T   00002630+0000001539          1400 JN4130               3BZ
154456015154456079-013032-H   154456006003000496501GLITTER PRINCESS ACC   0000003000+00002630+00000+0001T   00002630+0000001539          1400 JN4130               3BZ
154457000154457               154457               170213LB     1400+00000+LB0000010167+0000010167+000000000+000001427+0000011590+0000000004+I20000000000+0000011590+Z
154457001154457079-003000     154457006003000448838A/TUBE 75ML WHITE      0000001000+00001753+00000+0001T   00001753+0000001542          1400 JN4130               3BZ
154457002154457079-003014     154457006003000633951PAINT ACRYLIC 75ml SILV0000001000+00002630+00000+0001T   00002630+0000001542          1400 JN4130               3BZ
154457003154457903-000885     154457008690997017147SWT L/BIRD CHOC BISCUIT0000001000+00000437+00000+0001T   00000437+0000001542          1400 JN4150               3BZ
154457004154457903-000137     154457006002099004130SWEET GS JELLY BEAN 60G0000001000+00000788+00000+0001T   00000788+0000001542          1400 JN4150               3BZ
154457005154457079-000271     154457006003000160082PAINT-BRUSHES LRGE ART 0000001000+00003069+00000+0001T   00003069+0000001542          1400 JN4130               3BZ
154457006154457039-000108     154457006001023524034TEA-LITE CANDLES 8PCE  0000001000+00001490+00000+0001T   00001490+0000001542          1400 JN4510               3BZ
154458000154458               154458               170213LB     1400+00000+LB0000008157+0000008157+000000000+000001143+0000009300+0000000000+I20000000000+0000009300+Z
154458001154458112-116069     154458006009681820277TCS CARRIER BAG JUMBO  0000001000+00000048+00000+0001T   00000048+0000001545          1400 JN4090               3BZ
154458002154458150-000773     154458006001023681065TACKLE-BOX 18-SECTION  0000001000+00005262+00000+0001T   00005262+0000001545          1400 JN4810               3BZ
154458003154458903-000520     154458006001704009898SWT GUMMY MINI SOUR 60g0000001000+00000876+00000+0001T   00000876+0000001545          1400 JN4150               3BZ
154458004154458566-000202     154458006003000443567STCKRS SPARKLE RIM ASST0000001000+00001314+00000+0001T   00001314+0000001545          1400 JN4130               3BZ
154458005154458566-001212     154458000721129014166STICKERS MICRO ASSTD   0000001000+00000657+00000+0001T   00000657+0000001545          1400 JN4130               3BZ
154459000154459               154459               170213LB     1400+00000+LB0000003946+0000003946+000000000+000000553+0000004499+0000000000+I40000004499+0000000000+Z
154459001154459006-000851     154459006007151000273PARTY LUCKY-PACKET BOY 0000001000+00003946+00000+0001T   00003946+0000001547          1400 JN4131               3BZ
154460000154460               154460               170213LB     1400+00000+LB0000002192+0000002192+000000000+000000307+0000002490+0000000009+I20000000000+0000002490+Z
154460001154460206-000150     154460006003000628667SLICER CUCUMBER        0000001000+00002192+00000+0001T   00002192+0000001550          1400 JN4321               3BZ
154461000154461               154461               170213LB     1400+00000+LB0000003554+0000003554+000000000+000000499+0000004050+0000000003+I20000000000+0000004050+Z
154461001154461077-000011-D   154461006001023808554TISSUE-WRAP WHITE 10PCE0000001000+00000876+00000+0001T   00000876+0000001551          1400 JN4112               3BZ
154461002154461077-000270     154461006003000395453GIFT-BAG PPR JMB 33X45 0000001000+00002630+00000+0001T   00002630+0000001551          1400 JN4112               3BZ
154461003154461112-116069     154461006009681820277TCS CARRIER BAG JUMBO  0000001000+00000048+00000+0001T   00000048+0000001551          1400 JN4090               3BZ
154462000154462               154462               170213LB     1400+00000+LB0000012277+0000012277+000000000+000001720+0000013997+0000000000+I40000013997+0000000000+Z
154462001154462159-090923     154462006001023629388TOILET SOFT-SEAT SMALL 0000001000+00008771+00000+0001T   00008771+0000001559          1400 JN4200               3BZ
154462002154462007-001653     154462006003000297627RECIPE BOX 8 DIVIDERS  0000002000+00001753+00000+0001T   00002630+0008141559          1400 JN4130               3BZ
154463000154463               154463               170213LB     1400+00000+LB0000001314+0000001314+000000000+000000184+0000001490+0000000008+I20000000000+0000001490+Z
154463001154463903-005007     154463006002580020311SWT MALLOW BEAR M/SHAKE0000001000+00001314+00000+0001T   00001314+0000001632          1400 JN4150               3BZ
154464000154464               154464               170213LB     1400+00000+LB0000001051+0000001051+000000000+000000148+0000001190+0000000009+I20000000000+0000001190+Z
154464001154464079-009702-E   154464008427973059439PAPER SIRIO A2 BLUE    0000001000+00001051+00000+0001T   00001051+0000001635          1400 JN4130               3BZ
154465000154465               154465               170213LB     1400+00000+LB0000005085+0000005085+000000000+000000712+0000005797+0000000000+I40000005797+0000000000+Z
154465001154465263-000166     154465006001023789990CAR FRIC RACER         0000001000+00003507+00000+0001T   00003507+0000001636          1400 JN4710               3BZ
154465002154465077-000303     154465006001023593757GIFT-BAG PAPER MED     0000001000+00001578+00000+0001T   00001578+0000001636          1400 JN4112               3BZ
154466000154466               154466               170213LB     1400+00000+LB0000024162+0000024162+000000000+000003386+0000027548+0000000000+I40000027548+0000000000+Z
154466001154466112-116069     154466006009681820277TCS CARRIER BAG JUMBO  0000001000+00000048+00000+0001T   00000048+0000001711          1400 JN4090               3BZ
154466002154466361-000504     154466006003000593323DOLL MED 29cm SET      0000001000+00005262+00000+0001T   00005262+0000001711          1400 JN4725               3BZ
154466003154466027-077605     154466006001023997678STEELWOOL PADS 12PC 72g0000001000+00001753+00000+0001T   00001753+0000001711          1400 JN4212               3BZ
154466004154466002-000650     154466006003000569601M/SPOON WDN 40cm H/HOUS0000001000+00002630+00000+0001T   00002630+0000001711          1400 JN4300               3BZ
154466005154466002-000652     154466006001023553188M/SPOON WDN 3PC H/HOUSE0000001000+00003069+00000+0001T   00003069+0000001711          1400 JN4300               3BZ
154466006154466362-001045     154466006001023843449MAKE-UP TEEN GIFT SET  0000002000+00005262+00000+0001T   00005262+0000001711          1400 JN4160               3BZ
154466007154466027-078281     154466006001023767806SCOURERS BRS 8g  PACK-30000001000+00000876+00000+0001T   00000876+0000001711          1400 JN4212               3BZ
154467000154467               154467               170213LB     1400+00000+LB0000002629+0000002629+000000000+000000369+0000002990+0000000008+I20000000000+0000002990+Z
154467001154467080-000007-D   154467006001024042261CARD+ENVLPE ANNIVERSARY0000001000+00000437+00000+0001T   00000437+0000001711          1400 JN4112               3BZ
154467002154467080-000127     154467006003000424351VALENTINES DAY 36x24CM 0000001000+00002192+00000+0001T   00002192+0000001711          1400 JN4112               3BZ
154468000154468               154468               170213LB     1400+00000+LB0000001753+0000001753+000000000+000000246+0000001990+0000000009+I20000000000+0000001990+Z
154468001154468079-013099     154468006003000081875ART+CRAFT EYES ASSTD   0000001000+00001753+00000+0001T   00001753+0000001714          1400 JN4130               3BZ
154469000154469               154469               170213LB     1400+00000+LB0000001490+0000001490+000000000+000000209+0000001690+0000000009+I20000000000+0000001690+Z
154469001154469077-000327     154469006001023677686GIFT-BAG 25X32CM E/D BA0000001000+00001490+00000+0001T   00001490+0000001716          1400 JN4112               3BZ
154470000154470               154470               170213LB     1400+00000+LB0000010218+0000010218+000000000+000001431+0000011640+0000000009+I20000000000+0000011640+Z
154470001154470018-000136     154470006001023659026MUG OCC LOVE W/PLUSH   0000002000+00003507+00000+0001T   00003507+0000001718          1400 JN4515               3BZ
154470002154470077-000303     154470006001023593757GIFT-BAG PAPER MED     0000002000+00001578+00000+0001T   00001578+0000001718          1400 JN4112               3BZ
154470003154470112-116069     154470006009681820277TCS CARRIER BAG JUMBO  0000001000+00000048+00000+0001T   00000048+0000001718          1400 JN4090               3BZ
154471000154471               154471               170213LB     1400+00000+LB0000007940+0000007940+000000000+000001112+0000009050+0000000002+I20000000000+0000009050+Z
154471001154471018-000136     154471006001023659026MUG OCC LOVE W/PLUSH   0000001000+00003507+00000+0001T   00003507+0000001719          1400 JN4515               3BZ
154471002154471368-000049     154471006003000536955PLUSH BEAR 15cm LOVE   0000001000+00004385+00000+0001T   00004385+0000001719          1400 JN4745               3BZ
154471003154471112-116069     154471006009681820277TCS CARRIER BAG JUMBO  0000001000+00000048+00000+0001T   00000048+0000001719          1400 JN4090               3BZ
154472000154472               154472               170213LB     1400+00000+LB0000002192+0000002192+000000000+000000307+0000002490+0000000009+I20000000000+0000002490+Z
154472001154472007-000046     154472006009635831366DISPLAY-BOOK PL A4 30PG0000001000+00002192+00000+0001T   00002192+0000001720          1400 JN4130               3BZ
154473000154473               154473               170213LB     1400+00000+LB0000000876+0000000876+000000000+000000123+0000000990+0000000009+I20000000000+0000000990+Z
154473001154473083-000295     154473006001023898562LIGHTER-GAS BUTANE 18ml0000001000+00000876+00000+0001T   00000876+0000001723          1400 JN4315               3BZ
154474000154474               154474               170213LB     1400+00000+LB0000002493+0000002493+000000000+000000351+0000002840+0000000004+I20000000000+0000002840+Z
154474001154474006-001000     154474006003000093779HELIUM BALLOON FILL    0000003000+00000613+00000+0001T   00000613+0000001729          1400 JN4131               3BZ
154474002154474006-000170-B   154474006003000608300BALLOONS 1PC L/GREEN   0000003000+00000218+00000+0001T   00000218+0000001729          1400 JN4131               3BZ
154475000154475               154475               170213LB     1400+00000+LB0000000437+0000000437+000000000+000000062+0000000490+0000000009+I20000000000+0000000490+Z
154475001154475080-000133-A   154475006003000647019MINI VALENTINES CARD   0000001000+00000437+00000+0001T   00000437+0000001736          1400 JN4112               3BZ
154476000154476               154476               170213LB     1400+00000+LB0000045868+0000045868+000000000+000006424+0000052290+0000000002+I20000000000+0000052290+Z
154476001154476105-007525     154476008696287301569STORAGE BOX CLEAR 21L  0000001000+00016665+00000+0001T   00016665+0000001738          1400 JN4210               3BZ
154476002154476032-000864-B   154476006001023836434MIRROR WDN 30X40 W/FRME0000001000+00008771+00000+0001T   00008771+0000001738          1400 JN4510               3BZ
154476003154476006-000852     154476006009645923242PARTY LUCKY-PCKT UNISEX0000001000+00003946+00000+0001T   00003946+0000001738          1400 JN4131               3BZ
154476004154476365-003053     154476006001023542250PLAY DOCTOR MEDICAL-CNT0000001000+00004385+00000+0001T   00004385+0000001738          1400 JN4725               3BZ
154476005154476562-000070     154476006003000600748EDU PLAY DOUGH 50g 8pc 0000001000+00007016+00000+0001T   00007016+0000001738          1400 JN4755               3BZ
154476006154476562-000026     154476006001023910578KID'S DOUGH SET 9PCE   0000001000+00004385+00000+0001T   00004385+0000001738          1400 JN4755               3BZ
154476007154476564-000012     154476006001023130075BUBBLE BOTTLE MAGIC    0000001000+00000700+00000+0001T   00000700+0000001738          1400 JN4131               3BZ
154477000154477               154477               170213LB     1400+00000+LB0000001753+0000001753+000000000+000000246+0000001999+0000000000+I40000001999+0000000000+Z
154477001154477077-000354     154477006003000139224GIFT-BAG 25X32CM H/MADE0000001000+00001753+00000+0001T   00001753+0000001740          1400 JN4112               3BZ
154478000154478               154478               170213LB     1400+00000+LB0000000876+0000000876+000000000+000000123+0000000990+0000000009+I20000000000+0000000990+Z
154478001154478077-000011-D   154478006001023808554TISSUE-WRAP WHITE 10PCE0000001000+00000876+00000+0001T   00000876+0000001740          1400 JN4112               3BZ
154479000154479               154479               170213LB     1400+00000+LB0000003506+0000003506+000000000+000000492+0000003998+0000000000+I40000003998+0000000000+Z
154479001154479018-000108     154479006001023380265MUG NOVELTY ICON ASST  0000001000+00001753+00000+0001T   00001753+0000001745          1400 JN4515               3BZ
154479002154479077-000382     154479006003000247820GIFT-BAG MED 18X23CM   0000001000+00001753+00000+0001T   00001753+0000001745          1400 JN4112               3BZ
154480000154480               154480               170213LB     1400+00000+LB0000000000+0000000000+000000000+000000000+0000000000+0000000000+I20000000000+0000000000+Z
154480001154480077-000011-D   154480006001023808554TISSUE-WRAP WHITE 10PCE0000001000-00000876+00000+0001T   00000876+0000001747          1400 JN41122IC            3 Z
154480002154480077-000314     154480006003000181148GIFT-BAG 11X14CM MATT  0000001000+00000876+00000+0001T   00000876+0000001747          1400 JN4112               3 Z
154481000154481               154481               170213LB     1400+00000+LB0000001753+0000001753+000000000+000000246+0000001999+0000000000+I40000001999+0000000000+Z
154481001154481077-000316     154481006001023609731GIFT-BAG 25X32CM MATT  0000001000+00001753+00000+0001T   00001753+0000001753          1400 JN4112               3BZ
154482000154482               154482               170213LB     1400+00000+LB0000000048+0000000048+000000000+000000007+0000000050+0000000005+I20000000000+0000000050+Z
154482001154482112-116069     154482006009681820277TCS CARRIER BAG JUMBO  0000001000+00000048+00000+0001T   00000048+0000001754          1400 JN4090               3BZ
154483000154483               154483               170213LB     1400+00000+LB0000000876+0000000876+000000000+000000123+0000000990+0000000009+I20000000000+0000000990+Z
154483001154483903-003080     154483005907029004673SWT SNACK STIX CHOC 50g0000001000+00000876+00000+0001T   00000876+0000001816          1400 JN4150               3BZ
154484000154484               154484               170213LB     1400+00000+LB0000008553+0000008553+000000000+000001199+0000009750+0000000002+I20000000000+0000009750+Z
154484001154484112-116069     154484006009681820277TCS CARRIER BAG JUMBO  0000001000+00000048+00000+0001T   00000048+0000001818          1400 JN4090               3BZ
154484002154484301-085007     154484006003000673698ORN OCC. LOVE S/PLAQUE 0000001000+00007893+00000+0001T   00007893+0000001818          1400 JN4505               3BZ
154484003154484079-009700-I   154484006003000546114PAPER SIRIO A4 LILAC   0000001000+00000306+00000+0001T   00000306+0000001818          1400 JN4130               3BZ
154484004154484079-009700-C   154484006003000545636PAPER SIRIO A4 VIOLET  0000001000+00000306+00000+0001T   00000306+0000001818          1400 JN4130               3BZ
154485000154485               154485               170213LB     1400+00000+LB0000001753+0000001753+000000000+000000246+0000001999+0000000000+I40000001999+0000000000+Z
154485001154485006-000240     154485006003000460595PARTY INVITES 12PC     0000001000+00001753+00000+0001T   00001753+0000001830          1400 JN4131               3BZ
154486000154486               154486               170213LB     1400+00000+LB0000001400+0000001400+000000000+000000196+0000001590+0000000006+I20000000000+0000001590+Z
154486001154486903-000121     154486006002099001689SWT GS ZILLIONS SOURS  0000002000+00000700+00000+0001T   00000700+0000001832          1400 JN4150               3BZ
154487000154487               154487               170213LB     1400+00000+LB0000005699+0000005699+000000000+000000798+0000006490+0000000007+I20000000000+0000006490+Z
154487001154487018-000136     154487006001023659026MUG OCC LOVE W/PLUSH   0000001000+00003507+00000+0001T   00003507+0000001834          1400 JN4515               3BZ
154487002154487077-000463     154487006003000321698G/BAG GLITTER MED20x28 0000001000+00002192+00000+0001T   00002192+0000001834          1400 JN4112               3BZ
154488000154488               154488               170213LB     1400+00000+LB0000001139+0000001139+000000000+000000160+0000001290+0000000009+I20000000000+0000001290+Z
154488001154488162-097717     154488006001492977171#TAG NEW SILVER E/PIERC0000001000+00001139+00000+0001T   00001139+0000001835          1400 JN4160               3BZ
154489000154489               154489               170213LB     1400+00000+LB0000005085+0000005085+000000000+000000712+0000005790+0000000007+I20000000000+0000005790+Z
154489001154489031-000002-A   154489006003000247103P/FRAME LOVE 7.5X7.5CM 0000001000+00003507+00000+0001T   00003507+0000001900          1400 JN4510               3BZ
154489002154489077-000303     154489006001023593757GIFT-BAG PAPER MED     0000001000+00001578+00000+0001T   00001578+0000001900          1400 JN4112               3BZ
154490000154490               154490               170213LB     1400+00000+LB0000008504+0000008504+000000000+000001192+0000009690+0000000006+I20000000000+0000009690+Z
154490001154490031-080508     154490006001023802415P/FRAME PL 22X11CM LOVE0000001000+00004385+00000+0001T   00004385+0000001904          1400 JN4510               3BZ
154490002154490077-000303     154490006001023593757GIFT-BAG PAPER MED     0000001000+00001578+00000+0001T   00001578+0000001904          1400 JN4112               3BZ
154490003154490009-001709     154490006001023807762SALAD BOWL 23cm SWIRL  0000001000+00001753+00000+0001T   00001753+0000001904          1400 JN4210               3BZ
154490004154490903-000200     154490006009826020234SWT CHOC RP CHOCO 23G  0000001000+00000788+00000+0001T   00000788+0000001904          1400 JN4150               3BZ
154491000154491               154491               170213LB     1400+00000+LB0000009206+0000009206+000000000+000001290+0000010490+0000000006+I20000000000+0000010490+Z
154491001154491077-000270     154491006003000395453GIFT-BAG PPR JMB 33X45 0000001000+00002630+00000+0001T   00002630+0000001908          1400 JN4112               3BZ
154491002154491030-000030-A   154491006003000249305PLAQUE GLASS LOVE      0000001000+00003069+00000+0001T   00003069+0000001908          1400 JN4505               3BZ
154491003154491018-000136     154491006001023659026MUG OCC LOVE W/PLUSH   0000001000+00003507+00000+0001T   00003507+0000001908          1400 JN4515               3BZ
154492000154492               154492               170213LB     1400+00000+LB0000001314+0000001314+000000000+000000184+0000001490+0000000008+I20000000000+0000001490+Z
154492001154492077-000310     154492006001023608635GIFT-BAG 18X23CM GLOSS 0000001000+00001314+00000+0001T   00001314+0000001908          1400 JN4112               3BZ
154493000154493               154493               170213LB     1400+00000+LB0000004994+0000004994+000000000+000000702+0000005696+0000000000+I40000005696+0000000000+Z
154493001154493018-000129     154493006001023403353MUG OCC. LOVE V-SHAPE  0000001000+00002630+00000+0001T   00002630+0000001918          1400 JN4515               3BZ
154493002154493903-000200     154493006009826020234SWT CHOC RP CHOCO 23G  0000003000+00000788+00000+0001T   00000788+0000001918          1400 JN4150               3BZ
A17021300                                          10392767LBSLAVE 3                       JN41IC
A17021301                                          11160669LBSLAVE 3                       JN42IC
A17021302                                          11162854LBSLAVE 3                       JN42IC
M17021301                              IT          LBATT:IT                                          SLAVE 3 LAST TILL SLIP  NO 154493               POLOKWANE LB                                    THANX CAROLINE
M17021391                              CASH        LBSLAVE 3                       Z-REPORT No.   536TOTAL (Sales - Refunds)           6492.24       CASH TO BE BANKED                 4461.00       DEBIT CARDS                          0.00       CREDIT CARDS                      2031.24       Z-READING                         6492.24       AIRTIME DEBIT CARD SALES             0.00       AIRTIME CARD SALES                   0.00       OVERS/UNDERS                         0.00       AIRTIME CASH SALES                   0.00       GIFT CARDS                           0.00       GIFT CARD CASH SALES                 0.00       T O T A L  CASH PAYOUTS              0.00                                                                                                                                                                                                                                                                                                                                                      Z
M17021392                              CASH        LBABSENT                                                                                                                                                                                          ANNUAL LEAVE                                                                                                                                                                                    DAY OFF                                                                                                                                                                                         COMMENTS                                                                                                          OVER WITH R0.10                                                                                                                                                                                                                                                              Z
Y17021300                                          LB00000000570564+000063
ZLB17021320013 SLAVE 3      SALES DATA                     NEXT INVOICE NO.  154494 0536
X LB Slave 3 First invoice 154430 170213 Last invoice 154493 170213 Next invoice 154494 Total number of records 000000258 clbackup completed 20:01:31
