105770000105770               105770               170213LD     1400+00000+LD0000003506+0000003506+000000000+000000492+0000003990+0000000008+I20000000000+0000003990+Z
105770001105770046-002032-PK2 105770004897006175063BATTERIES CR-2032  2PCE0000002000+00001753+00000+0001T   00001753+0000000837          1400 LM7312               1BZ
105771000105771               105771               170213LD     1400+00000+LD0000014206+0000014206+000000000+000001990+0000016196+0000000000+I40000016196+0000000000+Z
105771001105771077-000270     105771006003000395453GIFT-BAG PPR JMB 33X45 0000001000+00002630+00000+0001T   00002630+0000000913          1400 LM7112               1BZ
105771002105771080-000127     105771006003000424351VALENTINES DAY 36x24CM 0000001000+00002192+00000+0001T   00002192+0000000913          1400 LM7112               1BZ
105771003105771031-000924     105771006001023669964P/FRAME COLLAGE PL     0000001000+00008771+00000+0001T   00008771+0000000913          1400 LM7510               1BZ
105771004105771083-000055     105771006003000003853LIGHTER ELCTRNC REFILBL0000001000+00000613+00000+0001T   00000613+0000000913          1400 LM7315               1BZ
105772000105772               105772               170213LD     1400+00000+LD0000006311+0000006311+000000000+000000885+0000007196+0000000000+I40000007196+0000000000+Z
105772001105772903-000519     105772006001704012805SWT MS LIQ-O-GHETTI    0000003000+00001227+00000+0001T   00001227+0000000918          1400 LM7150               1BZ
105772002105772071-003009     105772006001024011373PEN CLICK BALL+SFT GRIP0000001000+00002630+00000+0001T   00002630+0000000918          1400 LM7130               1BZ
105773000105773               105773               170213LD     1400+00000+LD0000004646+0000004646+000000000+000000651+0000005290+0000000007+I20000000000+0000005290+Z
105773001105773077-000303     105773006001023593757GIFT-BAG PAPER MED     0000002000+00001578+00000+0001T   00001578+0000000920          1400 LM7112               1BZ
105773002105773077-000299     105773006003000395576G/BAG 32x25cm LRG LOVE 0000001000+00001490+00000+0001T   00001490+0000000920          1400 LM7112               1BZ
105774000105774               105774               170213LD     1400+00000+LD0000011402+0000011402+000000000+000001597+0000012999+0000000000+I40000012999+0000000000+Z
105774001105774105-009015     105774006002923000031STORAGE BOX 32L FROSTED0000001000+00011402+00000+0001T   00011402+0000000922          1400 LM7210               1BZ
105775000105775               105775               170213LD     1400+00000+LD0000001753+0000001753+000000000+000000246+0000001990+0000000009+I20000000000+0000001990+Z
105775001105775200-003024     105775006001023657299REFUSE BAGS 20PCE BLACK0000001000+00001753+00000+0001T   00001753+0000000923          1400 LM7214               1BZ
105776000105776               105776               170213LD     1400+00000+LD0000016708+0000016708+000000000+000002342+0000019050+0000000000+I40000019050+0000000000+Z
105776001105776088-000080     105776006003000622863DRAWER LINERS SCENTED  0000002000+00005262+00000+0001T   00005262+0000000958          1400 LM7212               1BZ
105776002105776077-000290     105776006001023902023GIFT BOX 26x32x13cm    0000001000+00001753+00000+0001T   00001753+0000000958          1400 LM7112               1BZ
105776003105776306-001125-A   105776006003000359127FIRSTAID SUPPORT KNEE  0000001000+00002630+00000+0001T   00002630+0000000958          1400 LM7200               1BZ
105776004105776306-001130-A   105776006003000359271FIRSTAID SUPPORT ANKLE 0000001000+00001753+00000+0001T   00001753+0000000958          1400 LM7200               1BZ
105776005105776112-116069     105776006009681820277TCS CARRIER BAG JUMBO  0000001000+00000048+00000+0001T   00000048+0000000958          1400 LM7090               1BZ
105777000105777               105777               170213LD     1400+00000+LD0000016703+0000016703+000000000+000002344+0000019040+0000000007+I20000000000+0000019040+Z
105777001105777037-000004     105777006001023763679ASHTRAY PL TUB 8X11CM  0000005000+00001753+00000+0001T   00002192+0008191014          1400 LM7515               1BZ
105777002105777251-000003     105777006003000266159TAPE D/S 18x300mm V/PCK0000002000+00002630+00000+0001T   00002630+0000001014          1400 LM7810               1BZ
105777003105777304-001601     105777006001023842374BRANCH CURVED 20PC 1.3m0000001000+00002630+00000+0001T   00002630+0000001014          1400 LM7510               1BZ
105777004105777112-116069     105777006009681820277TCS CARRIER BAG JUMBO  0000001000+00000048+00000+0001T   00000048+0000001014          1400 LM7090               1BZ
105778000105778               105778               170213LD     1400+00000+LD0000001490+0000001490+000000000+000000209+0000001690+0000000009+I20000000000+0000001690+Z
105778001105778034-078833     105778006001023857491SIGN BABY-ON-BOARD     0000001000+00001490+00000+0001T   00001490+0000001016          1400 LM7215               1BZ
105779000105779               105779               170213LD     1400+00000+LD0000002630+0000002630+000000000+000000369+0000002990+0000000009+I20000000000+0000002990+Z
105779001105779007-000714     105779006003000227150NOTE-BK A6 WIRO 80SHTS 0000001000+00002630+00000+0001T   00002630+0000001023          1400 LM7130               1BZ
105780000105780               105780               170213LD     1400+00000+LD0000004645+0000004645+000000000+000000651+0000005296+0000000000+I40000005296+0000000000+Z
105780001105780080-000113     105780006003000237449CARD&ENVLPE - LOVE     0000001000+00001753+00000+0001T   00001753+0000001025          1400 LM7112               1BZ
105780002105780018-000127     105780006001023380289MUG OCC STRAIGHT LOVE  0000001000+00001578+00000+0001T   00001753+0006471025          1400 LM7515               1BZ
105780003105780903-004950     105780006002580020304SWT APRICOT SURPRISE   0000001000+00001314+00000+0001T   00001314+0000001025          1400 LM7150               1BZ
105781000105781               105781               170213LD     1400+00000+LD0000004383+0000004383+000000000+000000615+0000004990+0000000008+I20000000000+0000004990+Z
105781001105781089-000504     105781006001023701886KEY-CHAIN SNAP-HOOK    0000001000+00001753+00000+0001T   00001753+0000001028          1400 LM7205               1BZ
105781002105781365-008629     105781006001023494009PLAY C/PHONE B/O MUSIC 0000001000+00002630+00000+0001T   00002630+0000001028          1400 LM7725               1BZ
105782000105782               105782               170213LD     1400+00000+LD0000001490+0000001490+000000000+000000209+0000001690+0000000009+I20000000000+0000001690+Z
105782001105782106-001100-B   105782006001023651693FRIDGE BOTTLE ASSORTED 0000001000+00001490+00000+0001T   00001490+0000001028          1400 LM7210               1BZ
105783000105783               105783               170213LD     1400+00000+LD0000008801+0000008801+000000000+000001234+0000010035+0000000000+I40000010035+0000000000+Z
105783001105783903-000155     105783006009803374435SWT LOLLY I LUV U HEART0000002000+00000525+00000+0001T   00000525+0000001035          1400 LM7150               1BZ
105783002105783565-000889     105783006003000626953NOVELTY SPACE BALLOONS 0000001000+00001753+00000+0001T   00001753+0000001035          1400 LM7745               1BZ
105783003105783566-001234     105783006003000217793STICKERS LASER ASSTD   0000001000+00001578+00000+0001T   00001578+0000001035          1400 LM7130               1BZ
105783004105783565-000886     105783006003000337057CRITTERS PUFFER BALLS  0000001000+00004385+00000+0001T   00004385+0000001035          1400 LM7745               1BZ
105783005105783112-116038     105783006009681820246TCS CARRIER BAG MIDI   0000001000+00000035+00000+0001T   00000035+0000001035          1400 LM7090               1BZ
105784000105784               105784               170213LD     1400+00000+LD0000002678+0000002678+000000000+000000376+0000003050+0000000004+I20000000000+0000003050+Z
105784001105784077-000270     105784006003000395453GIFT-BAG PPR JMB 33X45 0000001000+00002630+00000+0001T   00002630+0000001042          1400 LM7112               1BZ
105784002105784112-116069     105784006009681820277TCS CARRIER BAG JUMBO  0000001000+00000048+00000+0001T   00000048+0000001042          1400 LM7090               1BZ
105785000105785               105785               170213LD     1400+00000+LD0000022799+0000022799+000000000+000003194+0000025993+0000000000+I40000025993+0000000000+Z
105785001105785105-007500     105785006003000487189STORAGE BOX CLEAR 1.25L0000002000+00003507+00000+0001T   00003507+0000001048          1400 LM7210               1BZ
105785002105785079-000335     105785006003000670550THERAPY P/CRAYONS 30   0000001000+00007016+00000+0001T   00007016+0000001048          1400 LM7130               1BZ
105785003105785003-000028     105785006003000419920P/STICK WDN 3-ASSTD INS0000001000+00002630+00000+0001T   00002630+0000001048          1400 LM7505               1BZ
105785004105785105-007510     105785006003000487424STORAGE BOX CLEAR 3.75L0000001000+00006139+00000+0001T   00006139+0000001048          1400 LM7210               1BZ
105786000105786               105786               170213LD     1400+00000+LD0000005262+0000005262+000000000+000000737+0000005990+0000000009+I20000000000+0000005990+Z
105786001105786159-003625     105786006001023902061TOILET-BRUSH W/STD 40cm0000001000+00005262+00000+0001T   00005262+0000001049          1400 LM7200               1BZ
105787000105787               105787               170213LD     1400+00000+LD0000007628+0000007628+000000000+000001069+0000008690+0000000007+I20000000000+0000008690+Z
105787001105787566-000316     105787006003000521821STICKERS MIRRORS HOME  0000001000+00006139+00000+0001T   00006139+0000001054          1400 LM7130               1BZ
105787002105787083-000055     105787006003000003853LIGHTER ELCTRNC REFILBL0000001000+00000613+00000+0001T   00000613+0000001054          1400 LM7315               1BZ
105787003105787083-000295     105787006001023898562LIGHTER-GAS BUTANE 18ml0000001000+00000876+00000+0001T   00000876+0000001054          1400 LM7315               1BZ
105788000105788               105788               170213LD     1400+00000+LD0000017542+0000017542+000000000+000002456+0000019990+0000000008+I20000000000+0000019990+Z
105788001105788002-010403     105788006001023203854JAFFLE-IRON ALUM. H/HOU0000001000+00017542+00000+0001T   00017542+0000001058          1400 LM7300               1BZ
105789000105789               105789               170213LD     1400+00000+LD0000002927+0000002927+000000000+000000410+0000003330+0000000007+I20000000000+0000003330+Z
105789001105789007-000597     105789006009699511129MARLIN SLF ADHESIVE 2M 0000001000+00002192+00000+0001T   00002192+0000001153          1400 LM7130               1BZ
105789002105789159-002367     105789006001023710406HOOKS PL WITH SUCTION  0000001000+00000700+00000+0001T   00000876+0008131153          1400 LM7200               1BZ
105789003105789112-116038     105789006009681820246TCS CARRIER BAG MIDI   0000001000+00000035+00000+0001T   00000035+0000001153          1400 LM7090               1BZ
105790000105790               105790               170213LD     1400+00000+LD0000000613+0000000613+000000000+000000086+0000000690+0000000009+I20000000000+0000000690+Z
105790001105790903-000848     105790008692806080076SWT SNACK BISCUIT 70g  0000001000+00000613+00000+0001T   00000613+0000001239          1400 LM7150               1BZ
105791000105791               105791               170213LD     1400+00000+LD0000016689+0000016689+000000000+000002340+0000019029+0000000000+I40000019029+0000000000+Z
105791001105791018-019000     105791006003000557288MUG OCC. LOVE JUMBO    0000001000+00005262+00000+0001T   00005262+0000001304          1400 LM7515               1BZ
105791002105791903-000155     105791006009803374435SWT LOLLY I LUV U HEART0000005000+00000525+00000+0001T   00000525+0000001304          1400 LM7150               1BZ
105791003105791204-000030     105791006003000683536MEMO HOLDER SAYINGS    0000001000+00003507+00000+0001T   00003507+0000001304          1400 LM7300               1BZ
105791004105791903-000596     105791006003000607754SWEET MONEYBOX 12cm J/B0000001000+00003507+00000+0001T   00003507+0000001304          1400 LM7150               1BZ
105791005105791903-000919     105791006009802868577SWEET NOVELTY LASER POP0000001000+00001753+00000+0001T   00001753+0000001304          1400 LM7150               1BZ
105791006105791112-116038     105791006009681820246TCS CARRIER BAG MIDI   0000001000+00000035+00000+0001T   00000035+0000001304          1400 LM7090               1BZ
105792000105792               105792               170213LD     1400+00000+LD0000001139+0000001139+000000000+000000160+0000001290+0000000009+I20000000000+0000001290+Z
105792001105792251-000030     105792006001023515803MASKING-TAPE 18mmx40m  0000001000+00001139+00000+0001T   00001139+0000001305          1400 LM7810               1BZ
105793000105793               105793               170213LD     1400+00000+LD0000001050+0000001050+000000000+000000148+0000001190+0000000008+I20000000000+0000001190+Z
105793001105793903-000155     105793006009803374435SWT LOLLY I LUV U HEART0000002000+00000525+00000+0001T   00000525+0000001305          1400 LM7150               1BZ
105794000105794               105794               170213LD     1400+00000+LD0000001928+0000001928+000000000+000000270+0000002190+0000000008+I20000000000+0000002190+Z
105794001105794174-008032     105794006009654960603TRAVEL BOTTLES 50ml    0000001000+00001928+00000+0001T   00001928+0000001307          1400 LM7205               1BZ
105795000105795               105795               170213LD     1400+00000+LD0000010218+0000010218+000000000+000001431+0000011649+0000000000+I40000011649+0000000000+Z
105795001105795018-005009     105795006001023725608MUG W/PLUSH-BEAR LOVE  0000002000+00003507+00000+0001T   00003507+0000001309          1400 LM7515               1BZ
105795002105795077-000303     105795006001023593757GIFT-BAG PAPER MED     0000002000+00001578+00000+0001T   00001578+0000001309          1400 LM7112               1BZ
105795003105795112-116069     105795006009681820277TCS CARRIER BAG JUMBO  0000001000+00000048+00000+0001T   00000048+0000001309          1400 LM7090               1BZ
105796000105796               105796               170213LD     1400+00000+LD0000003414+0000003414+000000000+000000480+0000003894+0000000000+I40000003894+0000000000+Z
105796001105796903-000155     105796006009803374435SWT LOLLY I LUV U HEART0000004000+00000525+00000+0001T   00000525+0000001314          1400 LM7150               1BZ
105796002105796903-000844     105796005010478432567SWT CANDY DL LUV HEARTS0000001000+00001314+00000+0001T   00001314+0000001314          1400 LM7150               1BZ
105797000105797               105797               170213LD     1400+00000+LD0000001753+0000001753+000000000+000000246+0000001990+0000000009+I20000000000+0000001990+Z
105797001105797024-091100     105797006001023914224BAKING-CUPS PAPER 100PC0000001000+00001753+00000+0001T   00001753+0000001315          1400 LM7300               1BZ
105798000105798               105798               170213LD     1400+00000+LD0000007015+0000007015+000000000+000000983+0000007998+0000000000+I40000007998+0000000000+Z
105798001105798566-000037     105798006003000383948STICKER 3D GEL         0000001000+00001753+00000+0001T   00001753+0000001316          1400 LM7130               1BZ
105798002105798104-000190     105798006004779016334DISH DRAINER PL ASSTD  0000001000+00005262+00000+0001T   00005262+0000001316          1400 LM7210               1BZ
105799000105799               105799               170213LD     1400+00000+LD0000022452+0000022452+000000000+000003145+0000025597+0000000000+I40000025597+0000000000+Z
105799001105799046-000011     105799004897006172994BATTERIES SIZE:AA  2PCE0000001000+00001402+00000+0001T   00001402+0000001321          1400 LM7312               1BZ
105799002105799486-001001     105799006003000530854W/CLOCK QTZ 30cm ROUND 0000001000+00013157+00000+0001T   00013157+0000001321          1400 LM7510               1BZ
105799003105799082-000125     105799006003000646395READING GLASS TWIN 2   0000001000+00007893+00000+0001T   00007893+0000001321          1400 LM7160               1BZ
105800000105800               105800               170213LD     1400+00000+LD0000006927+0000006927+000000000+000000971+0000007890+0000000008+I20000000000+0000007890+Z
105800001105800046-000012-VP  105800006003000537914BATTERIES H/P SIZE:AA  0000001000+00004823+00000+0001T   00004823+0000001327          1400 LM7312               1BZ
105800002105800150-000024     105800006001023435217BASIN-PLUG RUBBER/CHR  0000001000+00002104+00000+0001T   00002104+0000001327          1400 LM7810               1BZ
105801000105801               105801               170213LD     1400+00000+LD0000000035+0000000035+000000000+000000005+0000000040+0000000000+I20000000000+0000000040+Z
105801001105801112-116038     105801006009681820246TCS CARRIER BAG MIDI   0000001000+00000035+00000+0001T   00000035+0000001328          1400 LM7090               1BZ
105802000105802               105802               170213LD     1400+00000+LD0000005910+0000005910+000000000+000000828+0000006738+0000000000+I40000006738+0000000000+Z
105802001105802368-000151     105802006003000166725PLUSH BEAR 14cm        0000001000+00004385+00000+0001T   00004385+0000001331          1400 LM7745               1BZ
105802002105802077-000299     105802006003000395576G/BAG 32x25cm LRG LOVE 0000001000+00001490+00000+0001T   00001490+0000001331          1400 LM7112               1BZ
105802003105802112-116038     105802006009681820246TCS CARRIER BAG MIDI   0000001000+00000035+00000+0001T   00000035+0000001331          1400 LM7090               1BZ
105803000105803               105803               170213LD     1400+00000+LD0000004900+0000004900+000000000+000000688+0000005588+0000000000+I40000005588+0000000000+Z
105803001105803018-000177     105803006001023797513MUG MINI LOVE ASSTD    0000001000+00000700+00000+0001T   00000700+0000001335          1400 LM7515               1BZ
105803002105803903-000155     105803006009803374435SWT LOLLY I LUV U HEART0000004000+00000525+00000+0001T   00000525+0000001335          1400 LM7150               1BZ
105803003105803018-000177     105803006001023797513MUG MINI LOVE ASSTD    0000002000+00000700+00000+0001T   00000700+0000001335          1400 LM7515               1BZ
105803004105803565-000256     105803006003000609826NOVELTY GLOW SLIME     0000001000+00000700+00000+0001T   00000700+0000001335          1400 LM7745               1BZ
105804000105804               105804               170213LD     1400+00000+LD0000001838+0000001838+000000000+000000258+0000002090+0000000006+I20000000000+0000002090+Z
105804001105804903-000155     105804006009803374435SWT LOLLY I LUV U HEART0000001000+00000525+00000+0001T   00000525+0000001335          1400 LM7150               1BZ
105804002105804077-000317     105804006001023609748GIFT-BAG 11X14CM E/D AN0000001000+00000613+00000+0001T   00000613+0000001335          1400 LM7112               1BZ
105804003105804018-000177     105804006001023797513MUG MINI LOVE ASSTD    0000001000+00000700+00000+0001T   00000700+0000001335          1400 LM7515               1BZ
105805000105805               105805               170213LD     1400+00000+LD0000022851+0000022851+000000000+000003201+0000026052+0000000000+I40000026052+0000000000+Z
105805001105805040-000103     105805000694202201862C/HOLDER-SET 5PC W/TRAY0000001000+00011402+00000+0001T   00013157+0008191351          1400 LM7510               1BZ
105805002105805072-020249     105805006003000451241PET BLANKET FLEECE     0000001000+00005262+00000+0001T   00005262+0000001351          1400 LM7870               1BZ
105805003105805039-000798     105805006001023617774CANDLES TEALITE BOX-50 0000001000+00006139+00000+0001T   00006139+0000001351          1400 LM7510               1BZ
105805004105805112-116069     105805006009681820277TCS CARRIER BAG JUMBO  0000001000+00000048+00000+0001T   00000048+0000001351          1400 LM7090               1BZ
105806000105806               105806               170213LD     1400+00000+LD0000007013+0000007013+000000000+000000983+0000007996+0000000000+I40000007996+0000000000+Z
105806001105806078-000025     105806008887013700064SUPERGLUE 3g 1PCE CARD 0000001000+00000876+00000+0001T   00000876+0000001352          1400 LM7810               1BZ
105806002105806306-000004     105806006003000622177THOOTH DENTAL SOFT TIP 0000001000+00003507+00000+0001T   00004385+0008171352          1400 LM7200               1BZ
105806003105806206-000620     105806006003000631797BACK SCRATCHER EXTEND  0000001000+00002630+00000+0001T   00002630+0000001352          1400 LM7321               1BZ
105807000105807               105807               170213LD     1400+00000+LD0000000962+0000000962+000000000+000000136+0000001090+0000000008+I20000000000+0000001090+Z
105807001105807903-000155     105807006009803374435SWT LOLLY I LUV U HEART0000001000+00000525+00000+0001T   00000525+0000001353          1400 LM7150               1BZ
105807002105807080-000133-A   105807006003000647019MINI VALENTINES CARD   0000001000+00000437+00000+0001T   00000437+0000001353          1400 LM7112               1BZ
105808000105808               105808               170213LD     1400+00000+LD0000003153+0000003153+000000000+000000442+0000003590+0000000005+I20000000000+0000003590+Z
105808001105808006-000167-C   105808006003000516971BALLOONS PINK METALLIC 0000001000+00001314+00000+0001T   00001314+0000001358          1400 LM7131               1BZ
105808002105808006-001000     105808006003000093779HELIUM BALLOON FILL    0000003000+00000613+00000+0001T   00000613+0000001358          1400 LM7131               1BZ
105809000105809               105809               170213LD     1400+00000+LD0000011083+0000011083+000000000+000001552+0000012630+0000000005+I20000000000+0000012630+Z
105809001105809018-030000     105809006003000421060MUG OCCASIONS LOVE 2PCE0000001000+00004385+00000+0001T   00004385+0000001359          1400 LM7515               1BZ
105809002105809077-000303     105809006001023593757GIFT-BAG PAPER MED     0000002000+00001578+00000+0001T   00001578+0000001359          1400 LM7112               1BZ
105809003105809018-005009     105809006001023725608MUG W/PLUSH-BEAR LOVE  0000001000+00003507+00000+0001T   00003507+0000001359          1400 LM7515               1BZ
105809004105809112-116038     105809006009681820246TCS CARRIER BAG MIDI   0000001000+00000035+00000+0001T   00000035+0000001359          1400 LM7090               1BZ
105810000105810               105810               170213LD     1400+00000+LD0000004420+0000004420+000000000+000000619+0000005030+0000000009+I20000000000+0000005030+Z
105810001105810031-000860-B   105810006001023798206P/FRAME PL ANTIQUE-BLK 0000001000+00004385+00000+0001T   00004385+0000001400          1400 LM7510               1BZ
105810002105810112-116038     105810006009681820246TCS CARRIER BAG MIDI   0000001000+00000035+00000+0001T   00000035+0000001400          1400 LM7090               1BZ
105811000105811               105811               170213LD     1400+00000+LD0000007220+0000007220+000000000+000001013+0000008233+0000000000+I40000008233+0000000000+Z
105811001105811077-000010-U   105811006001023168863CREPE-PAPER CERISE-PINK0000001000+00000788+00000+0001T   00000788+0000001402          1400 LM7112               1BZ
105811002105811563-000317-C   105811006001023776204SERVIETTES 20PK  FLOWER0000001000+00002630+00000+0001T   00002630+0000001402          1400 LM7214               1BZ
105811003105811077-000385     105811006003000275366G/BAG GLITTER 18x23CM  0000001000+00001314+00000+0001T   00001314+0000001402          1400 LM7112               1BZ
105811004105811007-000537     105811000651728791017NOTE-PAD RND SMILE-FACE0000001000+00000700+00000+0001T   00000700+0000001402          1400 LM7130               1BZ
105811005105811007-000184     105811006003000135424NOTEBOOK               0000001000+00001753+00000+0001T   00001753+0000001402          1400 LM7130               1BZ
105811006105811112-116038     105811006009681820246TCS CARRIER BAG MIDI   0000001000+00000035+00000+0001T   00000035+0000001402          1400 LM7090               1BZ
105812000105812               105812               170213LD     1400+00000+LD0000021002+0000021002+000000000+000002944+0000023946+0000000000+I40000023946+0000000000+Z
105812001105812077-000452     105812006003000284986G/BAG METALLIC MED EMB 0000001000+00001490+00000+0001T   00001490+0000001445          1400 LM7112               1BZ
105812002105812016-006498-A   105812006001023774736S/JAR GLS/MTL POLKA-DOT0000001000+00002630+00000+0001T   00002630+0000001445          1400 LM7300               1BZ
105812003105812018-019000     105812006003000557288MUG OCC. LOVE JUMBO    0000001000+00005262+00000+0001T   00005262+0000001445          1400 LM7515               1BZ
105812004105812018-005035     105812006003000150700MUG NOVELTY CER 3-HNDLE0000001000+00003507+00000+0001T   00003507+0000001445          1400 LM7515               1BZ
105812005105812077-000303     105812006001023593757GIFT-BAG PAPER MED     0000001000+00001578+00000+0001T   00001578+0000001445          1400 LM7112               1BZ
105812006105812106-001099     105812006003000653447WATER BOTTLE 650ml     0000002000+00002630+00000+0001T   00002630+0000001445          1400 LM7210               1BZ
105812007105812112-116069     105812006009681820277TCS CARRIER BAG JUMBO  0000001000+00000048+00000+0001T   00000048+0000001445          1400 LM7090               1BZ
105812008105812206-000630     105812006003000631919SPECTACLE CLEANING BRUS0000001000+00001227+00000+0001T   00001227+0000001445          1400 LM7321               1BZ
105813000105813               105813               170213LD     1400+00000+LD0000010522+0000010522+000000000+000001475+0000011997+0000000000+I40000011997+0000000000+Z
105813001105813362-002481     105813006003000258154H/ACCESS SET BEAUTY BAG0000001000+00006139+00000+0001T   00006139+0000001448          1400 LM7160               1BZ
105813002105813362-000299     105813006003000654758HAIR CLIPS METAL WORDS 0000001000+00001753+00000+0001T   00001753+0000001448          1400 LM7160               1BZ
105813003105813206-000620     105813006003000631797BACK SCRATCHER EXTEND  0000001000+00002630+00000+0001T   00002630+0000001448          1400 LM7321               1BZ
105814000105814               105814               170213LD     1400+00000+LD0000001662+0000001662+000000000+000000234+0000001890+0000000006+I20000000000+0000001890+Z
105814001105814006-000172-D   105814006003000609932METALLIC GOLD          0000002000+00000218+00000+0001T   00000218+0000001449          1400 LM7131               1BZ
105814002105814006-001000     105814006003000093779HELIUM BALLOON FILL    0000002000+00000613+00000+0001T   00000613+0000001449          1400 LM7131               1BZ
105815000105815               105815               170213LD     1400+00000+LD0000018761+0000018761+000000000+000002630+0000021391+0000000000+I40000021391+0000000000+Z
105815001105815567-011422     105815006003000641222BK COLOURING THERAPY   0000001000+00003507+00000+0001T   00003507+0000001502          1400 LM7757               1BZ
105815002105815079-000336     105815006003000670758SUPER FINE MARKER PENS 0000001000+00005262+00000+0001T   00005262+0000001502          1400 LM7130               1BZ
105815003105815903-000155     105815006009803374435SWT LOLLY I LUV U HEART0000001000+00000525+00000+0001T   00000525+0000001502          1400 LM7150               1BZ
105815004105815077-000454     105815006003000285266G/BAG METALLIC LRG EMB 0000001000+00001753+00000+0001T   00001753+0000001502          1400 LM7112               1BZ
105815005105815016-006509     105815006003000567355S/JAR GLS MINI LABEL   0000001000+00001753+00000+0001T   00002192+0008191502          1400 LM7300               1BZ
105815006105815903-000095     105815006001704011495SWT SPECKLED-EGGS 100G 0000002000+00002104+00000+0001T   00002104+0000001502          1400 LM7150               1BZ
105815007105815564-000015     105815006003000140862BUBBLE TEST TUBE       0000001000+00001753+00000+0001T   00001753+0000001502          1400 LM7131               1BZ
105816000105816               105816               170213LD     1400+00000+LD0000012010+0000012010+000000000+000001684+0000013694+0000000000+I40000013694+0000000000+Z
105816001105816903-000843     105816008693029031067SWT GUMMY JELAXY 80G   0000002000+00000964+00000+0001T   00000964+0000001503          1400 LM7150               1BZ
105816002105816106-001099     105816006003000653447WATER BOTTLE 650ml     0000001000+00002630+00000+0001T   00002630+0000001503          1400 LM7210               1BZ
105816003105816007-000534     105816006001023847836NOTE-BOOK H/C ASSTD    0000001000+00002630+00000+0001T   00002630+0000001503          1400 LM7130               1BZ
105816004105816007-000552     105816006001023848086NOTE-CASE 200 MEMO SHTS0000001000+00003069+00000+0001T   00003069+0000001503          1400 LM7130               1BZ
105816005105816077-000472     105816006003000330133G-BAG DESGNR LRG 25X32 0000001000+00001753+00000+0001T   00001753+0000001503          1400 LM7112               1BZ
105817000105817               105817               170213LD     1400+00000+LD0000004385+0000004385+000000000+000000614+0000004990+0000000009+I20000000000+0000004990+Z
105817001105817031-005840     105817006001023481412P/FRAME-CLIP 30X40CM   0000001000+00004385+00000+0001T   00004385+0000001506          1400 LM7510               1BZ
105818000105818               105818               170213LD     1400+00000+LD0000002278+0000002278+000000000+000000320+0000002590+0000000008+I20000000000+0000002590+Z
105818001105818903-000862     105818005010478533912SWT DOUBLE DIP 19G     0000002000+00001139+00000+0001T   00001139+0000001507          1400 LM7150               1BZ
105819000105819               105819               170213LD     1400+00000+LD0000001753+0000001753+000000000+000000246+0000001990+0000000009+I20000000000+0000001990+Z
105819001105819080-000113     105819006003000237449CARD&ENVLPE - LOVE     0000001000+00001753+00000+0001T   00001753+0000001509          1400 LM7112               1BZ
105820000105820               105820               170213LD     1400+00000+LD0000014026+0000014026+000000000+000001965+0000015990+0000000001+I20000000000+0000015990+Z
105820001105820077-000299     105820006003000395576G/BAG 32x25cm LRG LOVE 0000001000+00001490+00000+0001T   00001490+0000001523          1400 JY5112               1DZ
105820002105820018-050000     105820006003000412679MUG OCC LOVE TWIN BEAR 0000001000+00006139+00000+0001T   00006139+0000001523          1400 JY5515               1DZ
105820003105820077-000299     105820006003000395576G/BAG 32x25cm LRG LOVE 0000001000+00001490+00000+0001T   00001490+0000001523          1400 JY5112               1DZ
105820004105820018-000136     105820006001023659026MUG OCC LOVE W/PLUSH   0000001000+00003507+00000+0001T   00003507+0000001523          1400 JY5515               1DZ
105820005105820018-000177     105820006001023797513MUG MINI LOVE ASSTD    0000002000+00000700+00000+0001T   00000700+0000001523          1400 JY5515               1DZ
105821000105821               105821               170213LD     1400+00000+LD0000001753+0000001753+000000000+000000246+0000001990+0000000009+I20000000000+0000001990+Z
105821001105821018-000108     105821006001023380265MUG NOVELTY ICON ASST  0000001000+00001753+00000+0001T   00001753+0000001622          1400 JY5515               1BZ
105822000105822               105822               170213LD     1400+00000+LD0000009696+0000009696+000000000+000001358+0000011050+0000000004+I20000000000+0000011050+Z
105822001105822159-000090     105822006003000401246SHOWER-CADDY CHROME    0000001000+00009648+00000+0001T   00009648+0000001623          1400 JY5200               1BZ
105822002105822112-116069     105822006009681820277TCS CARRIER BAG JUMBO  0000001000+00000048+00000+0001T   00000048+0000001623          1400 JY5090               1BZ
105823000105823               105823               170213LD     1400+00000+LD0000001578+0000001578+000000000+000000221+0000001790+0000000009+I20000000000+0000001790+Z
105823001105823080-000124     105823006003000297733CARD & ENV VALENTINES  0000001000+00001578+00000+0001T   00001578+0000001623          1400 LM7112               1BZ
105824000105824               105824               170213LD     1400+00000+LD0000014024+0000014024+000000000+000001968+0000015992+0000000000+I40000015992+0000000000+Z
105824001105824002-003730     105824006001023761699STRAINER SKIMMER 16cm  0000008000+00001753+00000+0001T   00001753+0000001625          1400 LM7300               1BZ
105825000105825               105825               170213LD     1400+00000+LD0000001490+0000001490+000000000+000000209+0000001690+0000000009+I20000000000+0000001690+Z
105825001105825077-000452     105825006003000284986G/BAG METALLIC MED EMB 0000001000+00001490+00000+0001T   00001490+0000001626          1400 LM7112               1BZ
105826000105826               105826               170213LD     1400+00000+LD0000010524+0000010524+000000000+000001474+0000011998+0000000000+I40000011998+0000000000+Z
105826001105826466-000200     105826006001023621665HULA-HOOP     ASSTD    0000001000+00001753+00000+0001T   00001753+0000001629          1400 LM7785               1BZ
105826002105826261-003906     105826006003000472376RIFLE 57cm +ACCESS 8PCE0000001000+00008771+00000+0001T   00008771+0000001629          1400 LM7710               1BZ
105827000105827               105827               170213LD     1400+00000+LD0000009065+0000009065+000000000+000001271+0000010330+0000000006+I20000000000+0000010330+Z
105827001105827466-000513     105827006003000515561BALL CRICKET RUBBER    0000001000+00002630+00000+0001T   00002630+0000001631          1400 LM7785               1BZ
105827002105827077-000289     105827006001023901996GIFT BOX 20x25x11cm    0000001000+00001753+00000+0001T   00001753+0000001631          1400 LM7112               1BZ
105827003105827018-000127     105827006001023380289MUG OCC STRAIGHT LOVE  0000001000+00001578+00000+0001T   00001753+0006471631          1400 LM7515               1BZ
105827004105827016-006530     105827006003000456208S/JAR GLS COUNTER 2SIDE0000001000+00003069+00000+0001T   00003069+0000001631          1400 LM7300               1BZ
105827005105827112-116038     105827006009681820246TCS CARRIER BAG MIDI   0000001000+00000035+00000+0001T   00000035+0000001631          1400 LM7090               1BZ
105828000105828               105828               170213LD     1400+00000+LD0000000525+0000000525+000000000+000000074+0000000590+0000000009+I20000000000+0000000590+Z
105828001105828903-000155     105828006009803374435SWT LOLLY I LUV U HEART0000001000+00000525+00000+0001T   00000525+0000001632          1400 LM7150               1BZ
105829000105829               105829               170213LD     1400+00000+LD0000014030+0000014030+000000000+000001966+0000015996+0000000000+I40000015996+0000000000+Z
105829001105829036-000521     105829006003000338184HOOK-HANGER 8-HOOK     0000002000+00001753+00000+0001T   00001753+0000001636          1400 LM7212               1BZ
105829002105829105-007805     105829006002923018920STORAGE BOX CLEAR 9.5L 0000002000+00005262+00000+0001T   00005262+0000001636          1400 LM7210               1BZ
105830000105830               105830               170213LD     1400+00000+LD0000004206+0000004206+000000000+000000590+0000004790+0000000006+I20000000000+0000004790+Z
105830001105830028-000799     105830006001023812186SKEWERS BAMBOO 100PCE  0000001000+00001578+00000+0001T   00001578+0000001637          1400 LM7305               1BZ
105830002105830077-000151     105830006008766114676GIFT-WRAP C/PHANE ASSTD0000003000+00000876+00000+0001T   00000876+0000001637          1400 LM7112               1BZ
105831000105831               105831               170213LD     1400+00000+LD0000003244+0000003244+000000000+000000455+0000003699+0000000000+I40000003699+0000000000+Z
105831001105831046-000400     105831006001023804983BATT ALKALINE 1.5Vx30PC0000001000+00003244+00000+0001T   00003244+0000001640          1400 LM7312               1BZ
105832000105832               105832               170213LD     1400+00000+LD0000008153+0000008153+000000000+000001142+0000009295+0000000000+I40000009295+0000000000+Z
105832001105832903-000087     105832006001704000161SWT SPECKLED-EGGS 50G  0000001000+00001139+00000+0001T   00001139+0000001642          1400 LM7150               1BZ
105832002105832031-007005     105832006003000465989P/FRM WDN GREY-STRESS  0000001000+00005700+00000+0001T   00005700+0000001642          1400 LM7510               1BZ
105832003105832077-000407     105832006003000145096G/BAG PP 19X26X8CM     0000001000+00001314+00000+0001T   00001314+0000001642          1400 LM7112               1BZ
105833000105833               105833               170213LD     1400+00000+LD0000011437+0000011437+000000000+000001602+0000013030+0000000009+I20000000000+0000013030+Z
105833001105833368-000637     105833006001023874092PLUSH BEAR SLEEPING LOV0000001000+00011402+00000+0001T   00012279+0006471643          1400 LM7745               1BZ
105833002105833112-116038     105833006009681820246TCS CARRIER BAG MIDI   0000001000+00000035+00000+0001T   00000035+0000001643          1400 LM7090               1BZ
105834000105834               105834               170213LD     1400+00000+LD0000002192+0000002192+000000000+000000307+0000002490+0000000009+I20000000000+0000002490+Z
105834001105834077-000309-A   105834006003000671007GIFT-BAG HOLOGRAM JMB  0000001000+00002192+00000+0001T   00002192+0000001643          1400 LM7112               1BZ
105835000105835               105835               170213LD     1400+00000+LD0000079812+0000079812+000000000+000011177+0000090989+0000000000+I40000090989+0000000000+Z
105835001105835024-000168-C   105835006003000675036T/PLATE MUFFIN PAN 12  0000004000+00004385+00000+0001T   00004385+0000001651          1400 LM7300               1BZ
105835002105835024-000109     105835006001023902337MINI-CUP PAN 12CUP     0000002000+00007016+00000+0001T   00007016+0000001651          1400 LM7300               1BZ
105835003105835024-000107     105835006001023422071MUFFIN-PAN 12-CUP      0000005000+00009648+00000+0001T   00009648+0000001651          1400 LM7300               1BZ
105836000105836               105836               170213LD     1400+00000+LD0000005786+0000005786+000000000+000000812+0000006598+0000000000+I40000006598+0000000000+Z
105836001105836036-000151     105836006001023810588COATHANGERS    PACK-10 0000002000+00002893+00000+0001T   00002893+0000001653          1400 LM7212               1BZ
105837000105837               105837               170213LD     1400+00000+LD0000011402+0000011402+000000000+000001597+0000012999+0000000000+I40000012999+0000000000+Z
105837001105837263-000800     105837006003000332281TRUCK PL CONSTRUCTION  0000001000+00011402+00000+0001T   00011402+0000001700          1400 LM7710               1BZ
105838000105838               105838               170213LD     1400+00000+LD0000004062+0000004062+000000000+000000571+0000004630+0000000003+I20000000000+0000004630+Z
105838001105838018-000177     105838006001023797513MUG MINI LOVE ASSTD    0000001000+00000700+00000+0001T   00000700+0000001708          1400 LM7515               1BZ
105838002105838903-000155     105838006009803374435SWT LOLLY I LUV U HEART0000004000+00000525+00000+0001T   00000525+0000001708          1400 LM7150               1BZ
105838003105838077-000245     105838006001023759214GIFT-RIBBON METALLICx2 0000001000+00001227+00000+0001T   00001227+0000001708          1400 LM7112               1BZ
105838004105838112-116038     105838006009681820246TCS CARRIER BAG MIDI   0000001000+00000035+00000+0001T   00000035+0000001708          1400 LM7090               1BZ
105839000105839               105839               170213LD     1400+00000+LD0000001576+0000001576+000000000+000000221+0000001790+0000000007+I20000000000+0000001790+Z
105839001105839903-000295     105839006001704002899SWT MS FRUITY RASCALS  0000001000+00000876+00000+0001T   00000876+0000001710          1400 LM7150               1BZ
105839002105839903-000120     105839006002099001665SWEET GS ZILLIONS 50g  0000001000+00000700+00000+0001T   00000700+0000001710          1400 LM7150               1BZ
105840000105840               105840               170213LD     1400+00000+LD0000007385+0000007385+000000000+000001037+0000008420+0000000002+I20000000000+0000008420+Z
105840001105840112-116038     105840006009681820246TCS CARRIER BAG MIDI   0000001000+00000035+00000+0001T   00000035+0000001713          1400 LM7090               1BZ
105840002105840903-000155     105840006009803374435SWT LOLLY I LUV U HEART0000006000+00000525+00000+0001T   00000525+0000001713          1400 LM7150               1BZ
105840003105840018-000177     105840006001023797513MUG MINI LOVE ASSTD    0000006000+00000700+00000+0001T   00000700+0000001713          1400 LM7515               1BZ
105841000105841               105841               170213LD     1400+00000+LD0000002576+0000002576+000000000+000000362+0000002930+0000000008+I20000000000+0000002930+Z
105841001105841077-000010-U   105841006001023168863CREPE-PAPER CERISE-PINK0000001000+00000788+00000+0001T   00000788+0000001714          1400 LM7112               1BZ
105841002105841077-000299-A   105841006003000670888GIFT-BAG PAPER JMB LOVE0000001000+00001753+00000+0001T   00001753+0000001714          1400 LM7112               1BZ
105841003105841112-116038     105841006009681820246TCS CARRIER BAG MIDI   0000001000+00000035+00000+0001T   00000035+0000001714          1400 LM7090               1BZ
105842000105842               105842               170213LD     1400+00000+LD0000003627+0000003627+000000000+000000508+0000004135+0000000000+I40000004135+0000000000+Z
105842001105842206-000150     105842006003000628667SLICER CUCUMBER        0000001000+00002192+00000+0001T   00002192+0000001716          1400 LM7321               1BZ
105842002105842018-000177     105842006001023797513MUG MINI LOVE ASSTD    0000002000+00000700+00000+0001T   00000700+0000001716          1400 LM7515               1BZ
105842003105842112-116038     105842006009681820246TCS CARRIER BAG MIDI   0000001000+00000035+00000+0001T   00000035+0000001716          1400 LM7090               1BZ
105843000105843               105843               170213LD     1400+00000+LD0000021970+0000021970+000000000+000003078+0000025048+0000000000+I40000025048+0000000000+Z
105843001105843018-000130     105843006001023867537MUG OCC LOVE MINI+HEART0000001000+00003507+00000+0001T   00003507+0000001721          1400 LM7515               1BZ
105843002105843018-050000     105843006003000412679MUG OCC LOVE TWIN BEAR 0000001000+00006139+00000+0001T   00006139+0000001721          1400 LM7515               1BZ
105843003105843366-007917     105843006003000653621DRESS UP MASK ANIMALS  0000002000+00000876+00000+0001T   00000876+0000001721          1400 LM7131               1BZ
105843004105843366-000125     105843006003000006786DRESSUP WINGS/WAND/BAND0000002000+00005262+00000+0001T   00005262+0000001721          1400 LM7131               1BZ
105843005105843112-116069     105843006009681820277TCS CARRIER BAG JUMBO  0000001000+00000048+00000+0001T   00000048+0000001721          1400 LM7090               1BZ
105844000105844               105844               170213LD     1400+00000+LD0000001787+0000001787+000000000+000000251+0000002038+0000000000+I40000002038+0000000000+Z
105844001105844036-000606     105844006003000322213WASHING PEGS PACK 20   0000002000+00000876+00000+0001T   00001314+0008191723          1400 LM7212               1BZ
105844002105844112-116038     105844006009681820246TCS CARRIER BAG MIDI   0000001000+00000035+00000+0001T   00000035+0000001723          1400 LM7090               1BZ
105845000105845               105845               170213LD     1400+00000+LD0000001753+0000001753+000000000+000000246+0000001990+0000000009+I20000000000+0000001990+Z
105845001105845071-003879     105845006936198404198PENCIL HB BLU/WHITE 12s0000001000+00001753+00000+0001T   00002630+0008151726          1400 LM7130               1BZ
105846000105846               105846               170213LD     1400+00000+LD0000000700+0000000700+000000000+000000098+0000000790+0000000008+I20000000000+0000000790+Z
105846001105846018-000177     105846006001023797513MUG MINI LOVE ASSTD    0000001000+00000700+00000+0001T   00000700+0000001726          1400 LM7515               1BZ
105847000105847               105847               170213LD     1400+00000+LD0000003769+0000003769+000000000+000000529+0000004298+0000000000+I40000004298+0000000000+Z
105847001105847903-000087     105847006001704000161SWT SPECKLED-EGGS 50G  0000001000+00001139+00000+0001T   00001139+0000001728          1400 LM7150               1BZ
105847002105847903-000599     105847006003000608119SWEET BALLOONPUMP 18cm 0000001000+00002630+00000+0001T   00002630+0000001728          1400 LM7150               1BZ
105848000105848               105848               170213LD     1400+00000+LD0000002629+0000002629+000000000+000000369+0000002990+0000000008+I20000000000+0000002990+Z
105848001105848077-000011-D   105848006001023808554TISSUE-WRAP WHITE 10PCE0000001000+00000876+00000+0001T   00000876+0000001729          1400 LM7112               1BZ
105848002105848077-000472     105848006003000330133G-BAG DESGNR LRG 25X32 0000001000+00001753+00000+0001T   00001753+0000001729          1400 LM7112               1BZ
105849000105849               105849               170213LD     1400+00000+LD0000004822+0000004822+000000000+000000676+0000005490+0000000008+I20000000000+0000005490+Z
105849001105849024-091103     105849006003453014307BAKING-CUP MUFFIN 50PCE0000001000+00002192+00000+0001T   00002192+0000001733          1400 LM7300               1BZ
105849002105849104-000031     105849006003000614950BASKET PL 27x18x12cm   0000001000+00002630+00000+0001T   00002630+0000001733          1400 LM7210               1BZ
105850000105850               105850               170213LD     1400+00000+LD0000005262+0000005262+000000000+000000737+0000005999+0000000000+I40000005999+0000000000+Z
105850001105850301-000105     105850006003000456062ORN NECKLACE ANGEL ASTD0000001000+00005262+00000+0001T   00005262+0000001812          1400 LM7505               1BZ
105851000105851               105851               170213LD     1400+00000+LD0000001753+0000001753+000000000+000000246+0000001990+0000000009+I20000000000+0000001990+Z
105851001105851903-000619     105851006003000672455SWT LOLLY STR/BRRY 140G0000001000+00001753+00000+0001T   00001753+0000001812          1400 LM7150               1BZ
105852000105852               105852               170213LD     1400+00000+LD0000017391+0000017391+000000000+000002439+0000019830+0000000000+I20000000000+0000019830+Z
105852001105852112-116038     105852006009681820246TCS CARRIER BAG MIDI   0000001000+00000035+00000+0001T   00000035+0000001814          1400 LM7090               1BZ
105852002105852200-003024     105852006001023657299REFUSE BAGS 20PCE BLACK0000005000+00001753+00000+0001T   00001753+0000001814          1400 LM7214               1BZ
105852003105852007-000167     105852006009685857347SPIRAL NOTES A7 72PG   0000001000+00000350+00000+0001T   00000350+0000001814          1400 LM7130               1BZ
105852004105852071-005214     105852006003000152544CELLOTAPE SUPER REFILL 0000001000+00001490+00000+0001T   00001490+0000001814          1400 LM7130               1BZ
105852005105852071-001015     105852006001023910387MARKERS PERMANENT 3PK  0000001000+00001753+00000+0001T   00001753+0000001814          1400 LM7130               1BZ
105852006105852083-000055     105852006003000003853LIGHTER ELCTRNC REFILBL0000001000+00000613+00000+0001T   00000613+0000001814          1400 LM7315               1BZ
105852007105852082-007586     105852006003000654291SUNGLASS DESIGNER ASST 0000001000+00004385+00000+0001T   00004385+0000001814          1400 LM7160               1BZ
105853000105853               105853               170213LD     1400+00000+LD0000002629+0000002629+000000000+000000369+0000002998+0000000000+I40000002998+0000000000+Z
105853001105853007-000535     105853000651728790904NOTE-BOOK DRESS TEEN   0000001000+00001753+00000+0001T   00001753+0000001817          1400 LM7130               1BZ
105853002105853077-000011-C   105853006001023808523TISSUE 10xSHTS RED     0000001000+00000876+00000+0001T   00000876+0000001817          1400 LM7112               1BZ
M17021391                              CASH        LDSLAVE 1                       Z-REPORT No.   478TOTAL (Sales - Refunds)           7511.29       CASH TO BE BANKED                 2484.80       DEBIT CARDS                          0.00       CREDIT CARDS                      5026.49       Z-READING                         7511.29       AIRTIME DEBIT CARD SALES             0.00       AIRTIME CARD SALES                   0.00       OVERS/UNDERS                         0.00       AIRTIME CASH SALES                   0.00       GIFT CARDS                           0.00       GIFT CARD CASH SALES                 0.00       T O T A L  CASH PAYOUTS              0.00                                                                                                                                                                                                                                                                                                                                                      Z
M17021392                              CASH        LDABSENT                                                                                                                                                                                          ANNUAL LEAVE                                                                                                                                                                                    DAY OFF                                                                                                                                                                                         COMMENTS                                                                                                                                                                                                                                                                                                                                                                                       Z
Y17021300                                          LD00000000659100+000084
ZLD17021320023 SLAVE 1      SALES DATA                     NEXT INVOICE NO.  105854 0478
X LD Slave 1 First invoice 105770 170213 Last invoice 105853 170213 Next invoice 105854 Total number of records 000000296 clbackup completed 20:02:04
