306950000306950               306950               170213LD     1400+00000+LD0000004385+0000004385+000000000+000000614+0000004990+0000000009+I20000000000+0000004990+Z
306950001306950082-000110     306950006003000360482READING GLS STRENGHT:2 0000001000+00004385+00000+0001T   00004385+0000000905          1400 JW6160               3AZ
306951000306951               306951               170213LD     1400+00000+LD0000007712+0000007712+000000000+000001082+0000008794+0000000000+I40000008794+0000000000+Z
306951001306951006-000191-1   306951006003000685776BALLOONS FOIL SILV NR 10000001000+00002630+00000+0001T   00002630+0000000918          1400 JW6131               3AZ
306951002306951006-000191-0   306951006003000685653BALLOONS SILVER NR 0   0000001000+00002630+00000+0001T   00002630+0000000918          1400 JW6131               3AZ
306951003306951006-001000     306951006003000093779HELIUM BALLOON FILL    0000004000+00000613+00000+0001T   00000613+0000000918          1400 JW6131               3AZ
306952000306952               306952               170213LD     1400+00000+LD0000016662+0000016662+000000000+000002335+0000018990+0000000007+I20000000000+0000018990+Z
306952001306952018-050000     306952006003000412679MUG OCC LOVE TWIN BEAR 0000001000+00006139+00000+0001T   00006139+0000000926          1400 JW6515               3AZ
306952002306952301-085007     306952006003000673698ORN OCC. LOVE S/PLAQUE 0000001000+00007893+00000+0001T   00007893+0000000926          1400 JW6505               3AZ
306952003306952077-000270     306952006003000395453GIFT-BAG PPR JMB 33X45 0000001000+00002630+00000+0001T   00002630+0000000926          1400 JW6112               3AZ
306953000306953               306953               170213LD     1400+00000+LD0000001576+0000001576+000000000+000000221+0000001790+0000000007+I20000000000+0000001790+Z
306953001306953071-001012     306953006001023474445MARKERS BLACK ROUND    0000001000+00000876+00000+0001T   00000876+0000000936          1400 JW6130               3AZ
306953002306953566-000035     306953006003000385157STICKER FOIL ASSTD     0000001000+00000700+00000+0001T   00000876+0008150936          1400 JW6130               3AZ
306954000306954               306954               170213LD     1400+00000+LD0000012061+0000012061+000000000+000001690+0000013751+0000000000+I40000013751+0000000000+Z
306954001306954112-116069     306954006009681820277TCS CARRIER BAG JUMBO  0000001000+00000048+00000+0001T   00000048+0000000939          1400 JW6090               3AZ
306954002306954009-001506     306954006001023696090MELAMINE TRAY 39x29cm  0000001000+00004385+00000+0001T   00004385+0000000939          1400 JW6210               3AZ
306954003306954079-009700-G   306954006003000545957PAPER SIRIO A4 LIME COL0000002000+00000306+00000+0001T   00000306+0000000939          1400 JW6130               3AZ
306954004306954562-000070     306954006003000600748EDU PLAY DOUGH 50g 8pc 0000001000+00007016+00000+0001T   00007016+0000000939          1400 JW6755               3AZ
306955000306955               306955               170213LD     1400+00000+LD0000010520+0000010520+000000000+000001476+0000011990+0000000006+I20000000000+0000011990+Z
306955001306955220-009104     306955006001023706843ROSE DESS-SPOONS 4PCE  0000001000+00002630+00000+0001T   00002630+0000001010          1400 JW6300               3AZ
306955002306955220-009001     306955006001023167804ROSE TEASPOON 6PCE     0000001000+00002630+00000+0001T   00002630+0000001010          1400 JW6300               3AZ
306955003306955220-009144     306955006001023706881ROSE DESS-FORKS 4PCE   0000002000+00002630+00000+0001T   00002630+0000001010          1400 JW6300               3AZ
306956000306956               306956               170213LD     1400+00000+LD0000004385+0000004385+000000000+000000614+0000004990+0000000009+I20000000000+0000004990+Z
306956001306956050-000887-TS  306956006003000688210PADLOCK COMBO 35mm 8DIG0000001000+00004385+00000+0001T   00004385+0000001019          1400 JW6855               3AZ
306957000306957               306957               170213LD     1400+00000+LD0000005262+0000005262+000000000+000000737+0000005999+0000000000+I40000005999+0000000000+Z
306957001306957106-001120     306957006922286920282W/BOTTLE ALUM 750ml    0000001000+00005262+00000+0001T   00005262+0000001043          1400 JW6210               3AZ
306958000306958               306958               170213LD     1400+00000+LD0000005262+0000005262+000000000+000000737+0000005990+0000000009+I20000000000+0000005990+Z
306958001306958562-006274     306958006001023744432EDU SKETCH-BOARD       0000001000+00005262+00000+0001T   00005262+0000001045          1400 JW6755               3AZ
306959000306959               306959               170213LD     1400+00000+LD0000013453+0000013453+000000000+000001885+0000015338+0000000000+I40000015338+0000000000+Z
306959001306959368-000111     306959006001023780812PLUSH BEAR/DOG 29CM    0000001000+00012279+00000+0001T   00012279+0000001049          1400 JW6745               3AZ
306959002306959903-000087     306959006001704000161SWT SPECKLED-EGGS 50G  0000001000+00001139+00000+0001T   00001139+0000001049          1400 JW6150               3AZ
306959003306959112-116038     306959006009681820246TCS CARRIER BAG MIDI   0000001000+00000035+00000+0001T   00000035+0000001049          1400 JW6090               3AZ
306960000306960               306960               170213LD     1400+00000+LD0000004207+0000004207+000000000+000000590+0000004790+0000000007+I20000000000+0000004790+Z
306960001306960080-000113     306960006003000237449CARD&ENVLPE - LOVE     0000001000+00001753+00000+0001T   00001753+0000001133          1400 JW6112               3AZ
306960002306960077-000303     306960006001023593757GIFT-BAG PAPER MED     0000001000+00001578+00000+0001T   00001578+0000001133          1400 JW6112               3AZ
306960003306960903-000861     306960005010478430822SWT LOVE HEARTS SML    0000001000+00000876+00000+0001T   00000876+0000001133          1400 JW6150               3AZ
306961000306961               306961               170213LD     1400+00000+LD0000007925+0000007925+000000000+000001112+0000009030+0000000007+I20000000000+0000009030+Z
306961001306961112-116038     306961006009681820246TCS CARRIER BAG MIDI   0000001000+00000035+00000+0001T   00000035+0000001139          1400 JW6090               3AZ
306961002306961366-002191     306961006003000117017DRESS UP MASK HORROR   0000003000+00002630+00000+0001T   00002630+0000001139          1400 JW6131               3AZ
306962000306962               306962               170213LD     1400+00000+LD0000004416+0000004416+000000000+000000620+0000005036+0000000000+I40000005036+0000000000+Z
306962001306962034-078810     306962006001023856838DIAPER DISPOSE-BAGSx1000000001000+00002630+00000+0001T   00002630+0000001142          1400 JW6215               3AZ
306962002306962903-000844     306962005010478432567SWT CANDY DL LUV HEARTS0000001000+00001314+00000+0001T   00001314+0000001142          1400 JW6150               3AZ
306962003306962080-000133-A   306962006003000647019MINI VALENTINES CARD   0000001000+00000437+00000+0001T   00000437+0000001142          1400 JW6112               3AZ
306962004306962112-116038     306962006009681820246TCS CARRIER BAG MIDI   0000001000+00000035+00000+0001T   00000035+0000001142          1400 JW6090               3AZ
306963000306963               306963               170213LD     1400+00000+LD0000003541+0000003541+000000000+000000497+0000004030+0000000008+I20000000000+0000004030+Z
306963001306963054-000801     306963006001023119230WIRE-BRUSH+HANDLE FINE 0000001000+00001753+00000+0001T   00001753+0000001143          1400 JW6810               3AZ
306963002306963037-000004     306963006001023763679ASHTRAY PL TUB 8X11CM  0000001000+00001753+00000+0001T   00002192+0008191143          1400 JW6515               3AZ
306963003306963112-116038     306963006009681820246TCS CARRIER BAG MIDI   0000001000+00000035+00000+0001T   00000035+0000001143          1400 JW6090               3AZ
306964000306964               306964               170213LD     1400+00000+LD0000018112+0000018112+000000000+000002539+0000020651+0000000000+I40000020651+0000000000+Z
306964001306964112-116069     306964006009681820277TCS CARRIER BAG JUMBO  0000001000+00000048+00000+0001T   00000048+0000001147          1400 JW6090               3AZ
306964002306964036-000151     306964006001023810588COATHANGERS    PACK-10 0000002000+00002893+00000+0001T   00002893+0000001147          1400 JW6212               3AZ
306964003306964159-000090     306964006003000401246SHOWER-CADDY CHROME    0000001000+00009648+00000+0001T   00009648+0000001147          1400 JW6200               3AZ
306964004306964027-009025     306964006003962000747DUSTPAN-SET PL         0000001000+00002630+00000+0001T   00002630+0000001147          1400 JW6212               3AZ
306965000306965               306965               170213LD     1400+00000+LD0000003507+0000003507+000000000+000000491+0000003990+0000000008+I20000000000+0000003990+Z
306965001306965301-085004     306965006003000420469ORN LOVE PLAQUE 21X10CM0000001000+00003507+00000+0001T   00003946+0006471158          1400 JW6505               3AZ
306966000306966               306966               170213LD     1400+00000+LD0000001753+0000001753+000000000+000000246+0000001990+0000000009+I20000000000+0000001990+Z
306966001306966038-001803     306966006001023766588DOILIES 17cm RND 18PC  0000001000+00001753+00000+0001T   00001753+0000001202          1400 JW6300               3AZ
306967000306967               306967               170213LD     1400+00000+LD0000002630+0000002630+000000000+000000369+0000002990+0000000009+I20000000000+0000002990+Z
306967001306967105-003025     306967006001023594662CONTAINER RECT 28x19cm 0000001000+00002630+00000+0001T   00002630+0000001205          1400 JW6210               3AZ
306968000306968               306968               170213LD     1400+00000+LD0000013770+0000013770+000000000+000001928+0000015690+0000000008+I20000000000+0000015690+Z
306968001306968586-096130     306968006001492961309WATCH LDS GIFT SQU     0000001000+00013157+00000+0001T   00013157+0000001207          1400 JW6160               3AZ
306968002306968077-000317     306968006001023609748GIFT-BAG 11X14CM E/D AN0000001000+00000613+00000+0001T   00000613+0000001207          1400 JW6112               3AZ
306969000306969               306969               170213LD     1400+00000+LD0000004997+0000004997+000000000+000000700+0000005697+0000000000+I40000005697+0000000000+Z
306969001306969077-000342     306969006003000273942G/BAG PAPER LRG 25X32CM0000001000+00001490+00000+0001T   00001490+0000001208          1400 JW6112               3AZ
306969002306969016-006508     306969006003000618583S/JAR GLASS 10X12CM    0000001000+00003507+00000+0001T   00003507+0000001208          1400 JW6300               3AZ
306970000306970               306970               170213LD     1400+00000+LD0000006873+0000006873+000000000+000000963+0000007830+0000000006+I20000000000+0000007830+Z
306970001306970018-005009     306970006001023725608MUG W/PLUSH-BEAR LOVE  0000001000+00003507+00000+0001T   00003507+0000001213          1400 JW6515               3AZ
306970002306970080-000113     306970006003000237449CARD&ENVLPE - LOVE     0000001000+00001753+00000+0001T   00001753+0000001213          1400 JW6112               3AZ
306970003306970112-116038     306970006009681820246TCS CARRIER BAG MIDI   0000001000+00000035+00000+0001T   00000035+0000001213          1400 JW6090               3AZ
306970004306970077-000303     306970006001023593757GIFT-BAG PAPER MED     0000001000+00001578+00000+0001T   00001578+0000001213          1400 JW6112               3AZ
306971000306971               306971               170213LD     1400+00000+LD0000000876+0000000876+000000000+000000123+0000000990+0000000009+I20000000000+0000000990+Z
306971001306971077-000011-D   306971006001023808554TISSUE-WRAP WHITE 10PCE0000001000+00000876+00000+0001T   00000876+0000001213          1400 JW6112               3AZ
306972000306972               306972               170213LD     1400+00000+LD0000002630+0000002630+000000000+000000369+0000002990+0000000009+I20000000000+0000002990+Z
306972001306972159-000684     306972006001023776532BATH BODY-GLOVE 18cm   0000001000+00002630+00000+0001T   00002630+0000001217          1400 JW6200               3AZ
306973000306973               306973               170213LD     1400+00000+LD0000000613+0000000613+000000000+000000086+0000000690+0000000009+I20000000000+0000000690+Z
306973001306973306-000021     306973006001023169433EARBUDS 100PCE IN BAG  0000001000+00000613+00000+0001T   00000613+0000001218          1400 JW6200               3AZ
306974000306974               306974               170213LD     1400+00000+LD0000003462+0000003462+000000000+000000486+0000003940+0000000008+I20000000000+0000003940+Z
306974001306974159-000150-B   306974006003000058440SOAP-BOX PL ASSORTED   0000001000+00000832+00000+0001T   00000832+0000001220          1400 JW6200               3AZ
306974002306974140-006008     306974006001023803214FLY-SWATTERS   SET-OF-40000001000+00002630+00000+0001T   00002630+0000001220          1400 JW6830               3AZ
306975000306975               306975               170213LD     1400+00000+LD0000001753+0000001753+000000000+000000246+0000001990+0000000009+I20000000000+0000001990+Z
306975001306975200-003024     306975006001023657299REFUSE BAGS 20PCE BLACK0000001000+00001753+00000+0001T   00001753+0000001222          1400 JW6214               3AZ
306976000306976               306976               170213LD     1400+00000+LD0000006313+0000006313+000000000+000000885+0000007198+0000000000+I40000007198+0000000000+Z
306976001306976046-000012-VP  306976006003000537914BATTERIES H/P SIZE:AA  0000001000+00004823+00000+0001T   00004823+0000001228          1400 JW6312               3AZ
306976002306976077-000399     306976006003000139514GIFT BAG 18X23CM E/DAY 0000001000+00001490+00000+0001T   00001490+0000001228          1400 JW6112               3AZ
306977000306977               306977               170213LD     1400+00000+LD0000008096+0000008096+000000000+000001136+0000009232+0000000000+I40000009232+0000000000+Z
306977001306977564-000015     306977006003000140862BUBBLE TEST TUBE       0000002000+00001753+00000+0001T   00001753+0000001234          1400 JW6131               3AZ
306977002306977903-005000     306977006002580020007SWT CT MALLOW FISH 120g0000001000+00001314+00000+0001T   00001314+0000001234          1400 JW6150               3AZ
306977003306977112-116038     306977006009681820246TCS CARRIER BAG MIDI   0000001000+00000035+00000+0001T   00000035+0000001234          1400 JW6090               3AZ
306977004306977903-000215     306977006002099001214SWT GS MALLOW TWIST PAC0000001000+00001753+00000+0001T   00001753+0000001234          1400 JW6150               3AZ
306977005306977903-000138     306977006002099004314SWT GS WINE GUMS 60G   0000001000+00000788+00000+0001T   00000788+0000001234          1400 JW6150               3AZ
306977006306977903-000120     306977006002099001665SWEET GS ZILLIONS 50g  0000001000+00000700+00000+0001T   00000700+0000001234          1400 JW6150               3AZ
306978000306978               306978               170213LD     1400+00000+LD0000013968+0000013968+000000000+000001958+0000015926+0000000000+I40000015926+0000000000+Z
306978001306978301-085008     306978006003000673933ORN OCC.LOVE TINSEL HRT0000001000+00003069+00000+0001T   00003069+0000001237          1400 JW6505               3AZ
306978002306978039-091794     306978006001023655875C/SET 6PC 16G RED-HEART0000001000+00003507+00000+0001T   00003507+0000001237          1400 JW6510               3AZ
306978003306978006-000109-A   306978006003000645435BALLOONS HELIUM 2PC    0000001000+00001753+00000+0001T   00001753+0000001237          1400 JW6131               3AZ
306978004306978006-000167-C   306978006003000516971BALLOONS PINK METALLIC 0000001000+00001314+00000+0001T   00001314+0000001237          1400 JW6131               3AZ
306978005306978077-000245     306978006001023759214GIFT-RIBBON METALLICx2 0000002000+00001227+00000+0001T   00001227+0000001237          1400 JW6112               3AZ
306978006306978112-116038     306978006009681820246TCS CARRIER BAG MIDI   0000001000+00000035+00000+0001T   00000035+0000001237          1400 JW6090               3AZ
306978007306978079-009700-D   306978006003000545711PAPER SIRIO A4 RED COL.0000003000+00000306+00000+0001T   00000306+0000001237          1400 JW6130               3AZ
306978008306978079-009700-B   306978006003000547661PAPER SIRIO A4 WHITE   0000003000+00000306+00000+0001T   00000306+0000001237          1400 JW6130               3AZ
306979000306979               306979               170213LD     1400+00000+LD0000017211+0000017211+000000000+000002416+0000019620+0000000007+I20000000000+0000019620+Z
306979001306979112-116038     306979006009681820246TCS CARRIER BAG MIDI   0000001000+00000035+00000+0001T   00000035+0000001241          1400 JW6090               3DZ
306979002306979159-000678     306979006001023729750BATH-SPONGE 2-TONE OVAL0000001000+00002630+00000+0001T   00002630+0000001241          1400 JW6200               3DZ
306979003306979369-001138-D   306979006003000097623BABY BATH VINYL THEMED 0000001000+00002630+00000+0001T   00002630+0000001241          1400 JW6745               3DZ
306979004306979903-000861     306979005010478430822SWT LOVE HEARTS SML    0000004000+00000876+00000+0001T   00000876+0000001241          1400 JW6150               3DZ
306979005306979903-000155     306979006009803374435SWT LOLLY I LUV U HEART0000001000+00000525+00000+0001T   00000525+0000001241          1400 JW6150               3DZ
306979006306979903-000077     306979006939873501687SWT GS MAGIC ROCK FRUIT0000003000+00000525+00000+0001T   00000525+0000001241          1400 JW6150               3DZ
306979007306979492-055602     306979000078257556021SWIM-GOGGLES PLAY      0000001000+00002630+00000+0001T   00002630+0000001241          1400 JW6787               3DZ
306979008306979566-000667     306979006003000658039STICKER FOIL EMBOSSED  0000001000+00002192+00000+0001T   00002192+0000001241          1400 JW6130               3DZ
306979009306979077-000327     306979006001023677686GIFT-BAG 25X32CM E/D BA0000001000+00001490+00000+0001T   00001490+0000001241          1400 JW6112               3DZ
306980000306980               306980               170213LD     1400+00000+LD0000013152+0000013152+000000000+000001843+0000014995+0000000000+I40000014995+0000000000+Z
306980001306980007-000614     306980006001023768667DIARY W/LOCK+PEN LOVE  0000001000+00005262+00000+0001T   00005262+0000001245          1400 JW6130               3AZ
306980002306980018-000136     306980006001023659026MUG OCC LOVE W/PLUSH   0000001000+00003507+00000+0001T   00003507+0000001245          1400 JW6515               3AZ
306980003306980200-003024     306980006001023657299REFUSE BAGS 20PCE BLACK0000001000+00001753+00000+0001T   00001753+0000001245          1400 JW6214               3AZ
306980004306980077-000270     306980006003000395453GIFT-BAG PPR JMB 33X45 0000001000+00002630+00000+0001T   00002630+0000001245          1400 JW6112               3AZ
306981000306981               306981               170213LD     1400+00000+LD0000007452+0000007452+000000000+000001045+0000008497+0000000000+I40000008497+0000000000+Z
306981001306981159-000040     306981006001023767691HOOK-HANGER 4PC S/S    0000001000+00002630+00000+0001T   00002630+0000001254          1400 JW6200               3AZ
306981002306981133-000111     306981006001023842732OVEN-MITTEN 19x30cm    0000001000+00002630+00000+0001T   00002630+0000001254          1400 JW6212               3AZ
306981003306981028-085274     306981006001023641571BBQ LIGHTER         H&L0000001000+00002192+00000+0001T   00002192+0000001254          1400 JW6305               3AZ
306982000306982               306982               170213LD     1400+00000+LD0000005293+0000005293+000000000+000000743+0000006030+0000000006+I20000000000+0000006030+Z
306982001306982105-001067     306982006003000631032CONTAINER CLIP LOCK    0000001000+00001753+00000+0001T   00001753+0000001255          1400 JW6210               3AZ
306982002306982105-001036     306982006003000621118CONTAINER W/VENT 350ml 0000001000+00000876+00000+0001T   00001490+0008161255          1400 JW6210               3AZ
306982003306982105-001067     306982006003000631032CONTAINER CLIP LOCK    0000001000+00001753+00000+0001T   00001753+0000001255          1400 JW6210               3AZ
306982004306982105-001036     306982006003000621118CONTAINER W/VENT 350ml 0000001000+00000876+00000+0001T   00001490+0008161255          1400 JW6210               3AZ
306982005306982112-116038     306982006009681820246TCS CARRIER BAG MIDI   0000001000+00000035+00000+0001T   00000035+0000001255          1400 JW6090               3AZ
306983000306983               306983               170213LD     1400+00000+LD0000001050+0000001050+000000000+000000148+0000001190+0000000008+I20000000000+0000001190+Z
306983001306983903-000155     306983006009803374435SWT LOLLY I LUV U HEART0000002000+00000525+00000+0001T   00000525+0000001401          1400 JW6150               3AZ
306984000306984               306984               170213LD     1400+00000+LD0000012279+0000012279+000000000+000001720+0000013999+0000000000+I40000013999+0000000000+Z
306984001306984133-092004     306984006003000008865TABLE CLOTH 130X160CM  0000001000+00012279+00000+0001T   00012279+0000001404          1400 JW6212               3AZ
306985000306985               306985               170213LD     1400+00000+LD0000011394+0000011394+000000000+000001599+0000012990+0000000003+I20000000000+0000012990+Z
306985001306985076-000017     306985006001811010022TWINE COTTON 50g-BALL  0000001000+00000876+00000+0001T   00000876+0000001410          1400 JW6810               3AZ
306985002306985079-011549     306985006003000682058PAINT A WOOD CRAFT     0000005000+00001753+00000+0001T   00001753+0000001410          1400 JW6130               3AZ
306985003306985200-003024     306985006001023657299REFUSE BAGS 20PCE BLACK0000001000+00001753+00000+0001T   00001753+0000001410          1400 JW6214               3AZ
306986000306986               306986               170213LD     1400+00000+LD0000009034-0000009034-000000000+000001266-0000010300-0000000000+I20000000000+0000010300-Z
306986001306986001-999902     306986000000000999902MAINTENANCE+REPAIR-EQP 0000001000-00007719+00000+0001T   00000000+0000001418          1400 JW69021IC            3 Z
306986002306986001-999902     306986000000000999902MAINTENANCE+REPAIR-EQP 0000001000-00001315+00000+0001T   00000000+0000001418          1400 JW69021IC            3 Z
306987000306987               306987               170213LD     1400+00000+LD0000008000-0000000000+000000000+000000000+0000008000-0000000000+I20000000000+0000008000-Z
306987001306987001-999913     306987000000000999913BUDGET - CAKE          0000001000-00008000+00000+0001X   00000000+0000001419          0000 JW69141IC            3 Z
306988000306988               306988               170213LD     1400+00000+LD0000006611+0000006611+000000000+000000926+0000007530+0000000007+I20000000000+0000007530+Z
306988001306988566-000031     306988006003000283910STICKER BK TEACHER STIC0000003000+00002192+00000+0001T   00002192+0000001431          1400 JW6130               3AZ
306988002306988112-116038     306988006009681820246TCS CARRIER BAG MIDI   0000001000+00000035+00000+0001T   00000035+0000001431          1400 JW6090               3AZ
306989000306989               306989               170213LD     1400+00000+LD0000007047+0000007047+000000000+000000989+0000008030+0000000006+I20000000000+0000008030+Z
306989001306989903-000617     306989006003000644261SWT HS CANDY CANE 19cm 0000004000+00001753+00000+0001T   00001753+0000001432          1400 JW6150               3AZ
306989002306989112-116038     306989006009681820246TCS CARRIER BAG MIDI   0000001000+00000035+00000+0001T   00000035+0000001432          1400 JW6090               3AZ
306990000306990               306990               170213LD     1400+00000+LD0000011834+0000011834+000000000+000001660+0000013490+0000000004+I20000000000+0000013490+Z
306990001306990031-000868-A   306990006001023798534P/FRAME PL BLCK 10X15CM0000001000+00002192+00000+0001T   00002192+0000001434          1400 JW6510               3AZ
306990002306990031-005918     306990006003000580453P/FRAME PL PLAIN 10X15 0000001000+00002630+00000+0001T   00002630+0000001434          1400 JW6510               3AZ
306990003306990040-000207     306990006003000673636C/HOLDER GLS COL. 9CM  0000004000+00001753+00000+0001T   00001753+0000001434          1400 JW6510               3AZ
306991000306991               306991               170213LD     1400+00000+LD0000002192+0000002192+000000000+000000307+0000002499+0000000000+I40000002499+0000000000+Z
306991001306991200-000200     306991006008766091144BAKING ALUM FOIL 2PCE  0000001000+00002192+00000+0001T   00002192+0000001447          1400 JW6214               3AZ
306992000306992               306992               170213LD     1400+00000+LD0000002192+0000002192+000000000+000000307+0000002490+0000000009+I20000000000+0000002490+Z
306992001306992566-000359     306992006003000582709STICKER BOOK LOVE SPARK0000001000+00002192+00000+0001T   00002192+0000001447          1400 JW6130               3AZ
306993000306993               306993               170213LD     1400+00000+LD0000007893+0000007893+000000000+000001106+0000008990+0000000009+I20000000000+0000008990+Z
306993001306993368-000157     306993006003000167401PLUSH RABBIT           0000001000+00007893+00000+0001T   00007893+0000001448          1400 JW6745               3AZ
306994000306994               306994               170213LD     1400+00000+LD0000000831+0000000831+000000000+000000117+0000000940+0000000008+I20000000000+0000000940+Z
306994001306994006-000170-K   306994006003000609284BALLOONS 1PC PURPLE    0000001000+00000218+00000+0001T   00000218+0000001451          1400 JW6131               3AZ
306994002306994006-001000     306994006003000093779HELIUM BALLOON FILL    0000001000+00000613+00000+0001T   00000613+0000001451          1400 JW6131               3AZ
306995000306995               306995               170213LD     1400+00000+LD0000003507+0000003507+000000000+000000491+0000003990+0000000008+I20000000000+0000003990+Z
306995001306995031-000002-A   306995006003000247103P/FRAME LOVE 7.5X7.5CM 0000001000+00003507+00000+0001T   00003507+0000001452          1400 JW6510               3AZ
306996000306996               306996               170213LD     1400+00000+LD0000007674+0000007674+000000000+000001077+0000008751+0000000000+I40000008751+0000000000+Z
306996001306996564-000036     306996006001023708694BUBBLE W/PUZZLE        0000001000+00001490+00000+0001T   00001490+0000001454          1400 JW6131               3AZ
306996002306996077-000299-A   306996006003000670888GIFT-BAG PAPER JMB LOVE0000001000+00001753+00000+0001T   00001753+0000001454          1400 JW6112               3AZ
306996003306996266-000101     306996006003000552658GLIDER PLANE 15.5X45CM 0000001000+00002630+00000+0001T   00002630+0000001454          1400 JW6710               3AZ
306996004306996466-072727     306996006003000027712YO-YO NOVELTY ASSTD    0000001000+00001753+00000+0001T   00001753+0000001454          1400 JW6785               3AZ
306996005306996112-116069     306996006009681820277TCS CARRIER BAG JUMBO  0000001000+00000048+00000+0001T   00000048+0000001454          1400 JW6090               3AZ
306997000306997               306997               170213LD     1400+00000+LD0000003769+0000003769+000000000+000000528+0000004290+0000000007+I20000000000+0000004290+Z
306997001306997200-000220     306997006008766126976BAKEPANS 5PCE          0000001000+00002455+00000+0001T   00002455+0000001502          1400 JW6214               3AZ
306997002306997903-004950     306997006002580020304SWT APRICOT SURPRISE   0000001000+00001314+00000+0001T   00001314+0000001502          1400 JW6150               3AZ
306998000306998               306998               170213LD     1400+00000+LD0000001225+0000001225+000000000+000000172+0000001390+0000000007+I20000000000+0000001390+Z
306998001306998018-000177     306998006001023797513MUG MINI LOVE ASSTD    0000001000+00000700+00000+0001T   00000700+0000001513          1400 JW6515               3AZ
306998002306998903-000155     306998006009803374435SWT LOLLY I LUV U HEART0000001000+00000525+00000+0001T   00000525+0000001513          1400 JW6150               3AZ
306999000306999               306999               170213LD     1400+00000+LD0000005032+0000005032+000000000+000000705+0000005737+0000000000+I40000005737+0000000000+Z
306999001306999018-000136     306999006001023659026MUG OCC LOVE W/PLUSH   0000001000+00003507+00000+0001T   00003507+0000001515          1400 JW6515               3AZ
306999002306999077-000452     306999006003000284986G/BAG METALLIC MED EMB 0000001000+00001490+00000+0001T   00001490+0000001515          1400 JW6112               3AZ
306999003306999112-116038     306999006009681820246TCS CARRIER BAG MIDI   0000001000+00000035+00000+0001T   00000035+0000001515          1400 JW6090               3AZ
307000000307000               307000               170213LD     1400+00000+LD0000018416+0000018416+000000000+000002580+0000020996+0000000000+I40000020996+0000000000+Z
307000001307000366-004047     307000006001023834850DRESS UP ACCESS TEETH  0000001000+00001753+00000+0001T   00001753+0000001516          1400 JW6131               3AZ
307000002307000368-000001     307000006003000097982Plush Bear 25cm        0000001000+00004385+00000+0001T   00004385+0000001516          1400 JW6745               3AZ
307000003307000368-000175     307000006003000270316PLUSH BEAR 4 ASSTD 18CM0000001000+00006139+00000+0001T   00006139+0000001516          1400 JW6745               3AZ
307000004307000368-000265     307000006001023750914PLUSH BEAR 23CM ASSTD C0000001000+00006139+00000+0001T   00006139+0000001516          1400 JW6745               3AZ
307001000307001               307001               170213LD     1400+00000+LD0000004385+0000004385+000000000+000000614+0000004990+0000000009+I20000000000+0000004990+Z
307001001307001369-001032     307001006001023796158BABY RATTLE SET 6PCE   0000001000+00004385+00000+0001T   00004385+0000001517          1400 JW6745               3AZ
307002000307002               307002               170213LD     1400+00000+LD0000007050+0000007050+000000000+000000988+0000008038+0000000000+I40000008038+0000000000+Z
307002001307002006-000803     307002006003000653676STREAMERS SET 3ROLLS   0000001000+00002630+00000+0001T   00002630+0000001521          1400 JW6131               3AZ
307002002307002031-080508     307002006001023802415P/FRAME PL 22X11CM LOVE0000001000+00004385+00000+0001T   00004385+0000001521          1400 JW6510               3AZ
307002003307002112-116038     307002006009681820246TCS CARRIER BAG MIDI   0000001000+00000035+00000+0001T   00000035+0000001521          1400 JW6090               3AZ
307003000307003               307003               170213LD     1400+00000+LD0000022799+0000022799+000000000+000003194+0000025990+0000000003+I20000000000+0000025990+Z
307003001307003368-000111     307003006001023780812PLUSH BEAR/DOG 29CM    0000001000+00012279+00000+0001T   00012279+0000001522          1400 JW6745               3AZ
307003002307003301-085001     307003006003000297610ORN WATERBALL LOVE ASST0000001000+00004823+00000+0001T   00004823+0000001522          1400 JW6505               3AZ
307003003307003018-000136     307003006001023659026MUG OCC LOVE W/PLUSH   0000001000+00003507+00000+0001T   00003507+0000001522          1400 JW6515               3AZ
307003004307003018-000177     307003006001023797513MUG MINI LOVE ASSTD    0000001000+00000700+00000+0001T   00000700+0000001522          1400 JW6515               3AZ
307003005307003077-000299     307003006003000395576G/BAG 32x25cm LRG LOVE 0000001000+00001490+00000+0001T   00001490+0000001522          1400 JW6112               3AZ
307004000307004               307004               170213LD     1400+00000+LD0000002367+0000002367+000000000+000000332+0000002690+0000000009+I20000000000+0000002690+Z
307004001307004051-600706     307004006003000604197S/GARDEN LIGHT 35cm PL 0000001000+00002367+00000+0001T   00002630+0008191530          1400 JW6820               3AZ
307005000307005               307005               170213LD     1400+00000+LD0000004385+0000004385+000000000+000000614+0000004990+0000000009+I20000000000+0000004990+Z
307005001307005082-000110     307005006003000360482READING GLS STRENGHT:2 0000001000+00004385+00000+0001T   00004385+0000001530          1400 JW6160               3AZ
307006000307006               307006               170213LD     1400+00000+LD0000005262+0000005262+000000000+000000737+0000005990+0000000009+I20000000000+0000005990+Z
307006001307006567-010161     307006009780000008516BOOK TOP ASSTD MILLS   0000001000+00005262+00000+0001T   00005262+0000001534          1400 JW6757               3AZ
307007000307007               307007               170213LD     1400+00000+LD0000003153+0000003153+000000000+000000444+0000003597+0000000000+I40000003597+0000000000+Z
307007001307007079-009702-E   307007008427973059439PAPER SIRIO A2 BLUE    0000003000+00001051+00000+0001T   00001051+0000001537          1400 JW6130               3AZ
307008000307008               307008               170213LD     1400+00000+LD0000002190+0000002190+000000000+000000308+0000002490+0000000008+I20000000000+0000002490+Z
307008001307008080-000133     307008006003000535613CARD&ENV MINI ASTD DSGN0000001000+00000437+00000+0001T   00000437+0000001539          1400 JW6112               3AZ
307008002307008018-000120     307008006003000383764MUG CER GLAZE EMBOSSED 0000001000+00001753+00000+0001T   00001753+0000001539          1400 JW6515               3AZ
307009000307009               307009               170213LD     1400+00000+LD0000006272+0000006272+000000000+000000879+0000007151+0000000000+I40000007151+0000000000+Z
307009001307009903-000155     307009006009803374435SWT LOLLY I LUV U HEART0000001000+00000525+00000+0001T   00000525+0000001541          1400 JW6150               3AZ
307009002307009031-000844     307009006001023851789P/FRAME WDN WORDS 2ASS 0000001000+00003507+00000+0001T   00003507+0000001541          1400 JW6510               3AZ
307009003307009080-000127     307009006003000424351VALENTINES DAY 36x24CM 0000001000+00002192+00000+0001T   00002192+0000001541          1400 JW6112               3AZ
307009004307009112-116069     307009006009681820277TCS CARRIER BAG JUMBO  0000001000+00000048+00000+0001T   00000048+0000001541          1400 JW6090               3AZ
307010000307010               307010               170213LD     1400+00000+LD0000005609+0000005609+000000000+000000787+0000006396+0000000000+I40000006396+0000000000+Z
307010001307010077-000011-D   307010006001023808554TISSUE-WRAP WHITE 10PCE0000001000+00000876+00000+0001T   00000876+0000001543          1400 JW6112               3AZ
307010002307010077-000454     307010006003000285266G/BAG METALLIC LRG EMB 0000002000+00001753+00000+0001T   00001753+0000001543          1400 JW6112               3AZ
307010003307010071-081091     307010006001151010287STAED/GENKEM ALL-STICK 0000001000+00001227+00000+0001T   00001227+0000001543          1400 JW6130               3AZ
307011000307011               307011               170213LD     1400+00000+LD0000002366+0000002366+000000000+000000332+0000002690+0000000008+I20000000000+0000002690+Z
307011001307011077-000299     307011006003000395576G/BAG 32x25cm LRG LOVE 0000001000+00001490+00000+0001T   00001490+0000001544          1400 JW6112               3AZ
307011002307011077-000011-D   307011006001023808554TISSUE-WRAP WHITE 10PCE0000001000+00000876+00000+0001T   00000876+0000001544          1400 JW6112               3AZ
307012000307012               307012               170213LD     1400+00000+LD0000008273+0000008273+000000000+000001161+0000009434+0000000000+I40000009434+0000000000+Z
307012001307012112-116038     307012006009681820246TCS CARRIER BAG MIDI   0000001000+00000035+00000+0001T   00000035+0000001552          1400 JW6090               3AZ
307012002307012039-000108     307012006001023524034TEA-LITE CANDLES 8PCE  0000001000+00001490+00000+0001T   00001490+0000001552          1400 JW6510               3AZ
307012003307012088-000104     307012006001023765444INCENSE SET ASSTD FRAG 0000001000+00002192+00000+0001T   00002192+0000001552          1400 JW6212               3AZ
307012004307012040-000210     307012006003000657810CANDLE+HOLDER GLS 6cm  0000004000+00001139+00000+0001T   00001139+0000001552          1400 JW6510               3AZ
307013000307013               307013               170213LD     1400+00000+LD0000000613+0000000613+000000000+000000086+0000000690+0000000009+I20000000000+0000000690+Z
307013001307013083-000055     307013006003000003853LIGHTER ELCTRNC REFILBL0000001000+00000613+00000+0001T   00000613+0000001556          1400 JW6315               3AZ
307014000307014               307014               170213LD     1400+00000+LD0000009416+0000009416+000000000+000001320+0000010730+0000000006+I20000000000+0000010730+Z
307014001307014002-021057     307014006001023812032T/PICKS UMBRELLAS 10PCE0000001000+00000876+00000+0001T   00000876+0000001557          1400 JW6300               3AZ
307014002307014029-000009     307014006001023809575BUCKET GALV  2L        0000001000+00004385+00000+0001T   00004385+0000001557          1400 JW6510               3AZ
307014003307014039-000108     307014006001023524034TEA-LITE CANDLES 8PCE  0000001000+00001490+00000+0001T   00001490+0000001557          1400 JW6510               3AZ
307014004307014033-000008     307014006003000226818PILL REMINDER 28-COMPAR0000001000+00002630+00000+0001T   00002630+0000001557          1400 JW6200               3AZ
307014005307014112-116038     307014006009681820246TCS CARRIER BAG MIDI   0000001000+00000035+00000+0001T   00000035+0000001557          1400 JW6090               3AZ
307015000307015               307015               170213LD     1400+00000+LD0000003067+0000003067+000000000+000000430+0000003490+0000000007+I20000000000+0000003490+Z
307015001307015077-000310     307015006001023608635GIFT-BAG 18X23CM GLOSS 0000001000+00001314+00000+0001T   00001314+0000001558          1400 JW6112               3AZ
307015002307015200-003024     307015006001023657299REFUSE BAGS 20PCE BLACK0000001000+00001753+00000+0001T   00001753+0000001558          1400 JW6214               3AZ
307016000307016               307016               170213LD     1400+00000+LD0000016696+0000016696+000000000+000002340+0000019036+0000000000+I40000019036+0000000000+Z
307016001307016301-006020     307016006003000461493ORN OWL 8x6.5cm 4-ASSTD0000001000+00005262+00000+0001T   00005262+0000001600          1400 JW6505               3AZ
307016002307016104-000131     307016006003000676996BASKET/ORGANISER ROUND 0000002000+00002630+00000+0001T   00002630+0000001600          1400 JW6210               3AZ
307016003307016024-000213     307016006001023458681COOKIE-CUTTER DONUT    0000001000+00006139+00000+0001T   00006139+0000001600          1400 JW6300               3AZ
307016004307016112-116038     307016006009681820246TCS CARRIER BAG MIDI   0000001000+00000035+00000+0001T   00000035+0000001600          1400 JW6090               3AZ
307017000307017               307017               170213LD     1400+00000+LD0000002192+0000002192+000000000+000000307+0000002490+0000000009+I20000000000+0000002490+Z
307017001307017046-000012-A   307017006003000208296BATTERIES H/POWER SZ:AA0000001000+00002192+00000+0001T   00002192+0000001600          1400 JW6312               3AZ
307018000307018               307018               170213LD     1400+00000+LD0000007012+0000007012+000000000+000000983+0000007995+0000000000+I40000007995+0000000000+Z
307018001307018077-000309-A   307018006003000671007GIFT-BAG HOLOGRAM JMB  0000001000+00002192+00000+0001T   00002192+0000001602          1400 JW6112               3AZ
307018002307018006-000111     307018006003000519385BALLOONS LARGE 12PCE   0000001000+00002630+00000+0001T   00002630+0000001602          1400 JW6131               3AZ
307018003307018018-000177     307018006001023797513MUG MINI LOVE ASSTD    0000001000+00000700+00000+0001T   00000700+0000001602          1400 JW6515               3AZ
307018004307018077-000299     307018006003000395576G/BAG 32x25cm LRG LOVE 0000001000+00001490+00000+0001T   00001490+0000001602          1400 JW6112               3AZ
307019000307019               307019               170213LD     1400+00000+LD0000044420+0000044420+000000000+000006224+0000050644+0000000000+I40000050644+0000000000+Z
307019001307019027-009025     307019006003962000747DUSTPAN-SET PL         0000001000+00002630+00000+0001T   00002630+0000001604          1400 JW6212               3AZ
307019002307019261-009924     307019006001023622204WATER-PISTOL SQUIRTER  0000001000+00002630+00000+0001T   00002630+0000001604          1400 JW6710               3AZ
307019003307019496-058431     307019000078257584314POOL SOFT-SIDE 188x46cm0000001000+00024560+00000+0001T   00024560+0000001604          1400 JW6787               3AZ
307019004307019261-009924     307019006001023622204WATER-PISTOL SQUIRTER  0000001000+00002630+00000+0001T   00002630+0000001604          1400 JW6710               3AZ
307019005307019112-116069     307019006009681820277TCS CARRIER BAG JUMBO  0000001000+00000048+00000+0001T   00000048+0000001604          1400 JW6090               3AZ
307019006307019006-000111     307019006003000519385BALLOONS LARGE 12PCE   0000001000+00002630+00000+0001T   00002630+0000001604          1400 JW6131               3AZ
307019007307019560-000104     307019006001023747037ANIMALS WILD IN-TUBE   0000001000+00003507+00000+0001T   00003507+0000001604          1400 JW6745               3AZ
307019008307019560-000102     307019006001023746979ANIMALS FARM IN-TUBE   0000001000+00003507+00000+0001T   00003507+0000001604          1400 JW6745               3AZ
307019009307019903-000087     307019006001704000161SWT SPECKLED-EGGS 50G  0000002000+00001139+00000+0001T   00001139+0000001604          1400 JW6150               3AZ
307020000307020               307020               170213LD     1400+00000+LD0000013636+0000013636+000000000+000001913+0000015549+0000000000+I40000015549+0000000000+Z
307020001307020112-116069     307020006009681820277TCS CARRIER BAG JUMBO  0000001000+00000048+00000+0001T   00000048+0000001606          1400 JW6090               3AZ
307020002307020105-001055     307020006003000219384LUNCH BOX 3-DIVISION   0000002000+00001753+00000+0001T   00002630+0008161606          1400 JW6210               3AZ
307020003307020071-001124     307020006001023802873MARKERS WHITEBOARD 3PCE0000001000+00002630+00000+0001T   00002630+0000001606          1400 JW6130               3AZ
307020004307020306-000957     307020006003000558995FIRSTAID PLASTER 8PC   0000001000+00002630+00000+0001T   00002630+0000001606          1400 JW6200               3AZ
307020005307020306-000965     307020006003000559237FIRSTAID PLASTER 30PC  0000001000+00002630+00000+0001T   00002630+0000001606          1400 JW6200               3AZ
307020006307020306-001024     307020006001023901910FIRST AID COOL/WARM GEL0000001000+00002192+00000+0001T   00002192+0000001606          1400 JW6200               3AZ
307021000307021               307021               170213LD     1400+00000+LD0000005612+0000005612+000000000+000000786+0000006390+0000000008+I20000000000+0000006390+Z
307021001307021206-000630     307021006003000631919SPECTACLE CLEANING BRUS0000001000+00001227+00000+0001T   00001227+0000001608          1400 JW6321               3AZ
307021002307021082-007587     307021006003000654338SUNGLASS DESIGNER ASST 0000001000+00004385+00000+0001T   00004385+0000001608          1400 JW6160               3AZ
307022000307022               307022               170213LD     1400+00000+LD0000001752+0000001752+000000000+000000246+0000001990+0000000008+I20000000000+0000001990+Z
307022001307022903-000861     307022005010478430822SWT LOVE HEARTS SML    0000002000+00000876+00000+0001T   00000876+0000001608          1400 JW6150               3AZ
307023000307023               307023               170213LD     1400+00000+LD0000007277+0000007277+000000000+000001019+0000008290+0000000006+I20000000000+0000008290+Z
307023001307023018-000136     307023006001023659026MUG OCC LOVE W/PLUSH   0000001000+00003507+00000+0001T   00003507+0000001609          1400 JW6515               3AZ
307023002307023077-000926     307023006003000414178G/WRAP 700mmx2m LOVE   0000001000+00002192+00000+0001T   00002192+0000001609          1400 JW6112               3AZ
307023003307023080-000124     307023006003000297733CARD & ENV VALENTINES  0000001000+00001578+00000+0001T   00001578+0000001609          1400 JW6112               3AZ
307024000307024               307024               170213LD     1400+00000+LD0000001753+0000001753+000000000+000000246+0000001990+0000000009+I20000000000+0000001990+Z
307024001307024200-003026     307024006003000276448REFUSE BAGS 10PCE GREEN0000001000+00001753+00000+0001T   00001753+0000001611          1400 JW6214               3AZ
307025000307025               307025               170213LD     1400+00000+LD0000001227+0000001227+000000000+000000172+0000000000+0000000000+ 00000000000+0000000000+Z
307025001307025903-004951     307025006002580020328SWT MALLOW MINI M/SHAKE0000001000+00001227+00000+0001T   00001227+000000              1400 JW61501IC            3 Z
307026000307026               307026               170213LD     1400+00000+LD0000003770+0000003770+000000000+000000528+0000004298+0000000000+I40000004298+0000000000+Z
307026001307026077-000303     307026006001023593757GIFT-BAG PAPER MED     0000001000+00001578+00000+0001T   00001578+0000001613          1400 JW6112               3AZ
307026002307026080-000127     307026006003000424351VALENTINES DAY 36x24CM 0000001000+00002192+00000+0001T   00002192+0000001613          1400 JW6112               3AZ
307027000307027               307027               170213LD     1400+00000+LD0000002100+0000002100+000000000+000000296+0000002390+0000000006+I20000000000+0000002390+Z
307027001307027903-000155     307027006009803374435SWT LOLLY I LUV U HEART0000004000+00000525+00000+0001T   00000525+0000001613          1400 JW6150               3AZ
307028000307028               307028               170213LD     1400+00000+LD0000002629+0000002629+000000000+000000369+0000002990+0000000008+I20000000000+0000002990+Z
307028001307028077-000011-C   307028006001023808523TISSUE 10xSHTS RED     0000001000+00000876+00000+0001T   00000876+0000001614          1400 JW6112               3AZ
307028002307028077-000382     307028006003000247820GIFT-BAG MED 18X23CM   0000001000+00001753+00000+0001T   00001753+0000001614          1400 JW6112               3AZ
307029000307029               307029               170213LD     1400+00000+LD0000005611+0000005611+000000000+000000786+0000006397+0000000000+I40000006397+0000000000+Z
307029001307029006-000190     307029006003000685530BALLOONS LOVE 81x91cm  0000001000+00004385+00000+0001T   00004385+0000001617          1400 JW6131               3AZ
307029002307029006-001000     307029006003000093779HELIUM BALLOON FILL    0000002000+00000613+00000+0001T   00000613+0000001617          1400 JW6131               3AZ
307030000307030               307030               170213LD     1400+00000+LD0000001753+0000001753+000000000+000000246+0000001999+0000000000+I40000001999+0000000000+Z
307030001307030077-000454     307030006003000285266G/BAG METALLIC LRG EMB 0000001000+00001753+00000+0001T   00001753+0000001619          1400 JW6112               3AZ
307031000307031               307031               170213LD     1400+00000+LD0000005260+0000005260+000000000+000000737+0000005997+0000000000+I40000005997+0000000000+Z
307031001307031071-003011     307031006001023762825PEN STICKBALL X10 ASSTD0000001000+00001753+00000+0001T   00001753+0000001620          1400 JW6130               3AZ
307031002307031007-000325     307031006009698066514PAPER A4 160GSM 25SHTS 0000001000+00003507+00000+0001T   00003507+0000001620          1400 JW6130               3AZ
307032000307032               307032               170213LD     1400+00000+LD0000003591+0000003591+000000000+000000505+0000004090+0000000006+I20000000000+0000004090+Z
307032001307032903-000155     307032006009803374435SWT LOLLY I LUV U HEART0000001000+00000525+00000+0001T   00000525+0000001622          1400 JW6150               3AZ
307032002307032077-000314     307032006003000181148GIFT-BAG 11X14CM MATT  0000001000+00000876+00000+0001T   00000876+0000001622          1400 JW6112               3AZ
307032003307032080-000133-A   307032006003000647019MINI VALENTINES CARD   0000001000+00000437+00000+0001T   00000437+0000001622          1400 JW6112               3AZ
307032004307032301-085002     307032006003000420704ORN OCC. LOVE BELL ASST0000001000+00001753+00000+0001T   00002630+0008121622          1400 JW6505               3AZ
307033000307033               307033               170213LD     1400+00000+LD0000004818+0000004818+000000000+000000676+0000005490+0000000004+I20000000000+0000005490+Z
307033001307033903-000121     307033006002099001689SWT GS ZILLIONS SOURS  0000001000+00000700+00000+0001T   00000700+0000001635          1400 JW6150               3AZ
307033002307033903-000619     307033006003000672455SWT LOLLY STR/BRRY 140G0000001000+00001753+00000+0001T   00001753+0000001635          1400 JW6150               3AZ
307033003307033077-000310     307033006001023608635GIFT-BAG 18X23CM GLOSS 0000001000+00001314+00000+0001T   00001314+0000001635          1400 JW6112               3AZ
307033004307033079-009702-E   307033008427973059439PAPER SIRIO A2 BLUE    0000001000+00001051+00000+0001T   00001051+0000001635          1400 JW6130               3AZ
307034000307034               307034               170213LD     1400+00000+LD0000001753+0000001753+000000000+000000246+0000001990+0000000009+I20000000000+0000001990+Z
307034001307034565-000888     307034006003000607846NOVELTY MESH BALL      0000001000+00001753+00000+0001T   00001753+0000001636          1400 JW6745               3AZ
307035000307035               307035               170213LD     1400+00000+LD0000007452+0000007452+000000000+000001045+0000008490+0000000007+I20000000000+0000008490+Z
307035001307035024-000093-B   307035006003000430819MEASURING-SPOONS ASSTD 0000002000+00002630+00000+0001T   00002630+0000001651          1400 JW6300               3AZ
307035002307035028-085274     307035006001023641571BBQ LIGHTER         H&L0000001000+00002192+00000+0001T   00002192+0000001651          1400 JW6305               3AZ
307036000307036               307036               170213LD     1400+00000+LD0000003242+0000003242+000000000+000000455+0000003690+0000000007+I20000000000+0000003690+Z
307036001307036903-000087     307036006001704000161SWT SPECKLED-EGGS 50G  0000001000+00001139+00000+0001T   00001139+0000001651          1400 JW6150               3AZ
307036002307036903-000499     307036006001704012492SWT CHOC MALLOWS 50g   0000001000+00001227+00000+0001T   00001227+0000001651          1400 JW6150               3AZ
307036003307036903-000494     307036006001704009911SWT GUMMY TEENY TEDDIES0000001000+00000876+00000+0001T   00000876+0000001651          1400 JW6150               3AZ
307037000307037               307037               170213LD     1400+00000+LD0000004385+0000004385+000000000+000000614+0000004990+0000000009+I20000000000+0000004990+Z
307037001307037031-000001-A   307037006003000246908P/FRAME GLS LOVE 9X13cm0000001000+00004385+00000+0001T   00004385+0000001651          1400 JW6510               3AZ
307038000307038               307038               170213LD     1400+00000+LD0000003594+0000003594+000000000+000000504+0000004090+0000000008+I20000000000+0000004090+Z
307038001307038080-000127     307038006003000424351VALENTINES DAY 36x24CM 0000001000+00002192+00000+0001T   00002192+0000001655          1400 JW6112               3AZ
307038002307038304-001204     307038006001023737984FLOWER OCC. TEDDY/ROSES0000001000+00001402+00000+0001T   00001490+0006471655          1400 JW6510               3AZ
307039000307039               307039               170213LD     1400+00000+LD0000004766+0000004766+000000000+000000669+0000005430+0000000005+I20000000000+0000005430+Z
307039001307039903-000155     307039006009803374435SWT LOLLY I LUV U HEART0000001000+00000525+00000+0001T   00000525+0000001659          1400 JW6150               3AZ
307039002307039088-000103     307039006008766127102INCENSE 20PCE ASSTD    0000001000+00000700+00000+0001T   00000700+0000001659          1400 JW6212               3AZ
307039003307039159-000636     307039006003000036035BATH PUMICE,BRUSH,FILE 0000001000+00001753+00000+0001T   00001753+0000001659          1400 JW6200               3AZ
307039004307039041-000301     307039006003000422708SKIN HAND CREAM 120ml  0000001000+00001753+00000+0001T   00001753+0000001659          1400 JW6200               3AZ
307039005307039112-116038     307039006009681820246TCS CARRIER BAG MIDI   0000001000+00000035+00000+0001T   00000035+0000001659          1400 JW6090               3AZ
307040000307040               307040               170213LD     1400+00000+LD0000002980+0000002980+000000000+000000418+0000003390+0000000008+I20000000000+0000003390+Z
307040001307040079-130100     307040006003000542635A&C DIY COLOUR EYES 24P0000002000+00001490+00000+0001T   00001490+0000001712          1400 JW6130               3AZ
307041000307041               307041               170213LD     1400+00000+LD0000003507+0000003507+000000000+000000491+0000003990+0000000008+I20000000000+0000003990+Z
307041001307041200-000106     307041006003000510290PICNIC CUPS PAPER 250ml0000001000+00003507+00000+0001T   00003507+0000001713          1400 JW6214               3AZ
307042000307042               307042               170213LD     1400+00000+LD0000001262+0000001262+000000000+000000177+0000001430+0000000009+I20000000000+0000001430+Z
307042001307042112-116038     307042006009681820246TCS CARRIER BAG MIDI   0000001000+00000035+00000+0001T   00000035+0000001714          1400 JW6090               3AZ
307042002307042031-005815     307042009320760100019P/FRAME-CLIP 10x15cm   0000001000+00001227+00000+0001T   00001227+0000001714          1400 JW6510               3AZ
307043000307043               307043               170213LD     1400+00000+LD0000002278+0000002278+000000000+000000320+0000002590+0000000008+I20000000000+0000002590+Z
307043001307043046-000014     307043006001023725387BATTERIES SIZE:AAA 4PCE0000001000+00001139+00000+0001T   00001139+0000001715          1400 JW6312               3AZ
307043002307043466-000517     307043006001023752017BALL TENNIS RED CRICKET0000001000+00001139+00000+0001T   00001139+0000001715          1400 JW6785               3AZ
307044000307044               307044               170213LD     1400+00000+LD0000011255+0000011255+000000000+000001578+0000012830+0000000003+I20000000000+0000012830+Z
307044001307044304-001204     307044006001023737984FLOWER OCC. TEDDY/ROSES0000003000+00001402+00000+0001T   00001490+0006471742          1400 JW6510               3AZ
307044002307044018-000136     307044006001023659026MUG OCC LOVE W/PLUSH   0000002000+00003507+00000+0001T   00003507+0000001742          1400 JW6515               3AZ
307044003307044112-116038     307044006009681820246TCS CARRIER BAG MIDI   0000001000+00000035+00000+0001T   00000035+0000001742          1400 JW6090               3AZ
307045000307045               307045               170213LD     1400+00000+LD0000002192+0000002192+000000000+000000307+0000002490+0000000009+I20000000000+0000002490+Z
307045001307045080-000127     307045006003000424351VALENTINES DAY 36x24CM 0000001000+00002192+00000+0001T   00002192+0000001743          1400 JW6112               3AZ
307046000307046               307046               170213LD     1400+00000+LD0000002630+0000002630+000000000+000000369+0000002990+0000000009+I20000000000+0000002990+Z
307046001307046077-000251     307046006003000639106GIFT-DECOR RIBBON      0000001000+00002630+00000+0001T   00002630+0000001744          1400 JW6112               3AZ
307047000307047               307047               170213LD     1400+00000+LD0000002630+0000002630+000000000+000000369+0000002990+0000000009+I20000000000+0000002990+Z
307047001307047077-000270     307047006003000395453GIFT-BAG PPR JMB 33X45 0000001000+00002630+00000+0001T   00002630+0000001747          1400 JW6112               3AZ
307048000307048               307048               170213LD     1400+00000+LD0000007716+0000007716+000000000+000001081+0000008797+0000000000+I40000008797+0000000000+Z
307048001307048039-000319-7   307048006003000443109B/CANDLES LRG NUMBER-7 0000001000+00000876+00000+0001T   00000876+0000001749          1400 JW6510               3AZ
307048002307048263-000188     307048006001023790927CAR RACER 24cm         0000001000+00005262+00000+0001T   00005262+0000001749          1400 JW6710               3AZ
307048003307048077-000303     307048006001023593757GIFT-BAG PAPER MED     0000001000+00001578+00000+0001T   00001578+0000001749          1400 JW6112               3AZ
307049000307049               307049               170213LD     1400+00000+LD0000002366+0000002366+000000000+000000332+0000002690+0000000008+I20000000000+0000002690+Z
307049001307049077-000384     307049006003000275243G/BAG HOT STMP 18x23CM 0000001000+00001490+00000+0001T   00001490+0000001751          1400 JW6112               3AZ
307049002307049077-000011-D   307049006001023808554TISSUE-WRAP WHITE 10PCE0000001000+00000876+00000+0001T   00000876+0000001751          1400 JW6112               3AZ
307050000307050               307050               170213LD     1400+00000+LD0000012313+0000012313+000000000+000001725+0000014030+0000000008+I20000000000+0000014030+Z
307050001307050018-050000     307050006003000412679MUG OCC LOVE TWIN BEAR 0000002000+00006139+00000+0001T   00006139+0000001752          1400 JW6515               3AZ
307050002307050112-116038     307050006009681820246TCS CARRIER BAG MIDI   0000001000+00000035+00000+0001T   00000035+0000001752          1400 JW6090               3AZ
307051000307051               307051               170213LD     1400+00000+LD0000003507+0000003507+000000000+000000491+0000003998+0000000000+I40000003998+0000000000+Z
307051001307051018-005009     307051006001023725608MUG W/PLUSH-BEAR LOVE  0000001000+00003507+00000+0001T   00003507+0000001753          1400 JW6515               3AZ
307052000307052               307052               170213LD     1400+00000+LD0000001753+0000001753+000000000+000000246+0000001990+0000000009+I20000000000+0000001990+Z
307052001307052084-078824     307052006003000385676NAIL FILES EMERY 24PC  0000001000+00001753+00000+0001T   00001753+0000001753          1400 JW6200               3AZ
307053000307053               307053               170213LD     1400+00000+LD0000004383+0000004383+000000000+000000614+0000004997+0000000000+I40000004997+0000000000+Z
307053001307053077-000151     307053006008766114676GIFT-WRAP C/PHANE ASSTD0000001000+00000876+00000+0001T   00000876+0000001758          1400 JW6112               3AZ
307053002307053107-002106     307053006003000507115BASIN W/HANDLE/ICE BCKT0000001000+00003507+00000+0001T   00003507+0000001758          1400 JW6210               3AZ
307054000307054               307054               170213LD     1400+00000+LD0000008770+0000008770+000000000+000001228+0000009998+0000000000+I40000009998+0000000000+Z
307054001307054050-000365-Z   307054006001023475305PADLOCK IRON 50mm CARD 0000002000+00004385+00000+0001T   00004385+0000001800          1400 JW6855               3AZ
307055000307055               307055               170213LD     1400+00000+LD0000000437+0000000437+000000000+000000062+0000000490+0000000009+I20000000000+0000000490+Z
307055001307055080-000133-A   307055006003000647019MINI VALENTINES CARD   0000001000+00000437+00000+0001T   00000437+0000001800          1400 JW6112               3AZ
307056000307056               307056               170213LD     1400+00000+LD0000001402+0000001402+000000000+000000197+0000001590+0000000009+I20000000000+0000001590+Z
307056001307056304-001204     307056006001023737984FLOWER OCC. TEDDY/ROSES0000001000+00001402+00000+0001T   00001490+0006471804          1400 JW6510               3AZ
307057000307057               307057               170213LD     1400+00000+LD0000003857+0000003857+000000000+000000541+0000004390+0000000008+I20000000000+0000004390+Z
307057001307057077-000472     307057006003000330133G-BAG DESGNR LRG 25X32 0000001000+00001753+00000+0001T   00001753+0000001805          1400 JW6112               3AZ
307057002307057903-000095     307057006001704011495SWT SPECKLED-EGGS 100G 0000001000+00002104+00000+0001T   00002104+0000001805          1400 JW6150               3AZ
307058000307058               307058               170213LD     1400+00000+LD0000007501+0000007501+000000000+000001051+0000008552+0000000000+I40000008552+0000000000+Z
307058001307058080-000127     307058006003000424351VALENTINES DAY 36x24CM 0000002000+00002192+00000+0001T   00002192+0000001807          1400 JW6112               3AZ
307058002307058301-085008     307058006003000673933ORN OCC.LOVE TINSEL HRT0000001000+00003069+00000+0001T   00003069+0000001807          1400 JW6505               3AZ
307058003307058112-116069     307058006009681820277TCS CARRIER BAG JUMBO  0000001000+00000048+00000+0001T   00000048+0000001807          1400 JW6090               3AZ
307059000307059               307059               170213LD     1400+00000+LD0000011060-0000000000+000000000+000000000+0000011060-0000000000+I20000000000+0000011060-Z
307059001307059001-999901     307059000000000999901CASUAL WAGES           0000001000-00011060+00000+0001X  9310021223080 0700KTHOBE0000000000 JW69011IC JANE       3 Z
A17021300                                          17110321LDSLAVE 3                       JW62IC
M17021391                              CASH        LDSLAVE 3                       Z-REPORT No.   485TOTAL (Sales - Refunds)           7540.29       CASH TO BE BANKED                 3587.00       DEBIT CARDS                          0.00       CREDIT CARDS                      3659.69       Z-READING                         7246.69       AIRTIME DEBIT CARD SALES             0.00       AIRTIME CARD SALES                   0.00       OVERS/UNDERS                         0.00       AIRTIME CASH SALES                   0.00       GIFT CARDS                           0.00       GIFT CARD CASH SALES                 0.00       MAINTENANCE+REPAIR-EQP             103.00       BUDGET - CAKE                       80.00       CASUAL WAGES                       110.60       T O T A L  CASH PAYOUTS            293.60                                                                                                                                                                                                      Z
M17021392                              CASH        LDABSENT                                                                                                                                                                                          ANNUAL LEAVE                                                                                                                                                                                    DAY OFF                                                                                                                                                                                         COMMENTS                                                                                                                                                                                                                                                                                                                                                                                       Z
Y17021300                                          LD00000000661794+000106
ZLD17021320023 SLAVE 3      SALES DATA                     NEXT INVOICE NO.  307060 0485
X LD Slave 3 First invoice 306950 170213 Last invoice 307059 170213 Next invoice 307060 Total number of records 000000376 clbackup completed 20:02:07
