106393000106393               106393               170213LE     1400+00000+LE0000003536+0000003536+000000000+000000498+0000004034+0000000000+I40000004034+0000000000+Z
106393001106393083-000050     106393006001023898593LIGHTERS DISPOSABLE    0000001000+00000876+00000+0001T   00000876+0000000902          1400 AH1315               1AZ
106393002106393903-000155     106393006009803374435SWT LOLLY I LUV U HEART0000005000+00000525+00000+0001T   00000525+0000000902          1400 AH1150               1AZ
106393003106393112-116038     106393006009681820246TCS CARRIER BAG MIDI   0000001000+00000035+00000+0001T   00000035+0000000902          1400 AH1090               1AZ
106394000106394               106394               170213LE     1400+00000+LE0000001314+0000001314+000000000+000000184+0000001490+0000000008+I20000000000+0000001490+Z
106394001106394903-000844     106394005010478432567SWT CANDY DL LUV HEARTS0000001000+00001314+00000+0001T   00001314+0000000930          1400 AH1150               1AZ
106395000106395               106395               170213LE     1400+00000+LE0000015342+0000015342+000000000+000002148+0000017490+0000000000+I40000017490+0000000000+Z
106395001106395903-005007     106395006002580020311SWT MALLOW BEAR M/SHAKE0000001000+00001314+00000+0001T   00001314+0000000937          1400 AH1150               1AZ
106395002106395567-075490     106395009780799376296BK NOVEL ROMANCE AFR   0000001000+00003507+00000+0001T   00003507+0000000937          1400 AH1757               1AZ
106395003106395567-075490     106395009780799377576BK NOVEL ROMANCE AFR   0000001000+00003507+00000+0001T   00003507+0000000937          1400 AH1757               1AZ
106395004106395567-075490     106395009780799377583BK NOVEL ROMANCE AFR   0000001000+00003507+00000+0001T   00003507+0000000937          1400 AH1757               1AZ
106395005106395567-075490     106395009780799375121BK NOVEL ROMANCE AFR   0000001000+00003507+00000+0001T   00003507+0000000937          1400 AH1757               1AZ
106396000106396               106396               170213LE     1400+00000+LE0000020217+0000020217+000000000+000002833+0000023050+0000000000+I40000023050+0000000000+Z
106396001106396112-116069     106396006009681820277TCS CARRIER BAG JUMBO  0000001000+00000048+00000+0001T   00000048+0000000946          1400 AH1090               1AZ
106396002106396016-006518     106396006003000351749S/JAR GLS CHECK 350ML  0000004000+00001753+00000+0001T   00001753+0000000946          1400 AH1300               1AZ
106396003106396567-075700     106396006003000339389BOOK NOVEL 3-PACK ASSTD0000001000+00013157+00000+0001T   00013157+0000000946          1400 AH1757               1AZ
106397000106397               106397               170213LE     1400+00000+LE0000000525+0000000525+000000000+000000074+0000000590+0000000009+I20000000000+0000000590+Z
106397001106397306-000019     106397006001023734846TOOTHBRUSH W/DESIGN    0000001000+00000525+00000+0001T   00000525+0000001002          1400 AH1200               1AZ
106398000106398               106398               170213LE     1400+00000+LE0000017056+0000017056+000000000+000002390+0000019440+0000000006+I20000000000+0000019440+Z
106398001106398112-116069     106398006009681820277TCS CARRIER BAG JUMBO  0000001000+00000048+00000+0001T   00000048+0000001007          1400 AH1090               1AZ
106398002106398369-001018     106398006001023712141BATH EVA STICKERS 30PC 0000001000+00004385+00000+0001T   00004385+0000001007          1400 AH1745               1AZ
106398003106398903-000200     106398006009826020234SWT CHOC RP CHOCO 23G  0000001000+00000788+00000+0001T   00000788+0000001007          1400 AH1150               1AZ
106398004106398903-000674     106398006009803358220SWT SHERBET W/LOLLY 4PK0000001000+00001314+00000+0001T   00001314+0000001007          1400 AH1150               1AZ
106398005106398562-088353     106398006001023735966EVA MAT ABC+NR 36PC    0000001000+00007893+00000+0001T   00007893+0000001007          1400 AH1755               1AZ
106398006106398903-000844     106398005010478432567SWT CANDY DL LUV HEARTS0000002000+00001314+00000+0001T   00001314+0000001007          1400 AH1150               1AZ
106399000106399               106399               170213LE     1400+00000+LE0000002980+0000002980+000000000+000000418+0000003390+0000000008+I20000000000+0000003390+Z
106399001106399033-000013     106399006001023567215PILL-REMINDER PL       0000001000+00001227+00000+0001T   00001227+0000001007          1400 AH1200               1AZ
106399002106399002-000720     106399006003000369003C/BOARD 34x25cm W/HNDLE0000001000+00001753+00000+0001T   00002630+0008121007          1400 AH1300               1AZ
106400000106400               106400               170213LE     1400+00000+LE0000001314+0000001314+000000000+000000184+0000001498+0000000000+I40000001498+0000000000+Z
106400001106400077-000310     106400006001023608635GIFT-BAG 18X23CM GLOSS 0000001000+00001314+00000+0001T   00001314+0000001009          1400 AH1112               1AZ
106401000106401               106401               170213LE     1400+00000+LE0000003452+0000003452+000000000+000000484+0000003930+0000000006+I20000000000+0000003930+Z
106401001106401007-000104     106401006009685854865BK COVER BRWN KRFT ROLL0000003000+00000350+00000+0001T   00000350+0000001012          1400 AH1130               1AZ
106401002106401046-000015     106401006001023680839BATTERIES SIZE:D   2PCE0000001000+00002367+00000+0001T   00002367+0000001012          1400 AH1312               1AZ
106401003106401112-116038     106401006009681820246TCS CARRIER BAG MIDI   0000001000+00000035+00000+0001T   00000035+0000001012          1400 AH1090               1AZ
106402000106402               106402               170213LE     1400+00000+LE0000010524+0000010524+000000000+000001474+0000011990+0000000008+I20000000000+0000011990+Z
106402001106402562-000001     106402006009801541556MARLIN PLASTIC ABACUS  0000002000+00005262+00000+0001T   00005262+0000001019          1400 AH1755               1AZ
106403000106403               106403               170213LE     1400+00000+LE0000009695+0000009695+000000000+000001358+0000011053+0000000000+I40000011053+0000000000+Z
106403001106403036-000405     106403006001023630247CLOTHES DRYER PL 18-PEG0000001000+00004385+00000+0001T   00004385+0000001021          1400 AH1212               1AZ
106403002106403301-002040     106403006001023722324ORN SEA BOAT/LIFERING  0000001000+00005262+00000+0001T   00005262+0000001021          1400 AH1505               1AZ
106403003106403112-116069     106403006009681820277TCS CARRIER BAG JUMBO  0000001000+00000048+00000+0001T   00000048+0000001021          1400 AH1090               1AZ
106404000106404               106404               170213LE     1400+00000+LE0000015379+0000015379+000000000+000002156+0000017530+0000000005+I20000000000+0000017530+Z
106404001106404056-065303     106404006001023821041SUN-SHIELD 2PCE ANIMAL 0000001000+00002630+00000+0001T   00002630+0000001023          1400 AH1860               1AZ
106404002106404051-500115     106404006003000528059GARDEN KID SPRAY BOTTLE0000001000+00001753+00000+0001T   00001753+0000001023          1400 AH1820               1AZ
106404003106404036-000010     106404006003000675777LINT REMOVER STICKY    0000001000+00001753+00000+0001T   00001753+0000001023          1400 AH1212               1AZ
106404004106404047-000018-H   106404006001023909954PLUG 1x16A+2x5A SUNKEN 0000001000+00002630+00000+0001T   00002630+0000001023          1400 AH1880               1AZ
106404005106404047-000512-H   106404006001023657473EXT-CORD 3m DBL-J   H&H0000001000+00006578+00000+0001T   00006578+0000001023          1400 AH1880               1AZ
106404006106404112-116038     106404006009681820246TCS CARRIER BAG MIDI   0000001000+00000035+00000+0001T   00000035+0000001023          1400 AH1090               1AZ
106405000106405               106405               170213LE     1400+00000+LE0000016091+0000016091+000000000+000002257+0000018348+0000000000+I40000018348+0000000000+Z
106405001106405112-116069     106405006009681820277TCS CARRIER BAG JUMBO  0000001000+00000048+00000+0001T   00000048+0000001028          1400 AH1090               1AZ
106405002106405200-000211     106405006003000671847BAKING-PANS ALUM-FOIL  0000003000+00001753+00000+0001T   00001753+0000001028          1400 AH1214               1AZ
106405003106405124-001000     106405006003000683734STORAGE TIN SEWING DESN0000001000+00003069+00000+0001T   00003069+0000001028          1400 AH1300               1AZ
106405004106405200-000225     106405006008766126952BAKEPANS 5PCE          0000002000+00002630+00000+0001T   00002630+0000001028          1400 AH1214               1AZ
106405005106405200-000220     106405006008766126976BAKEPANS 5PCE          0000001000+00002455+00000+0001T   00002455+0000001028          1400 AH1214               1AZ
106406000106406               106406               170213LE     1400+00000+LE0000015710+0000015710+000000000+000002209+0000017910+0000000009+I20000000000+0000017910+Z
106406001106406903-000155     106406006009803374435SWT LOLLY I LUV U HEART0000013000+00000525+00000+0001T   00000525+0000001030          1400 AH1150               1AZ
106406002106406903-000194     106406006009826020616SWT CHOC RP LOLLY 25G  0000001000+00001314+00000+0001T   00001314+0000001030          1400 AH1150               1AZ
106406003106406903-000200     106406006009826020234SWT CHOC RP CHOCO 23G  0000004000+00000788+00000+0001T   00000788+0000001030          1400 AH1150               1AZ
106406004106406566-000068     106406006003000418046POP UP LOVE 2 ASSTD    0000002000+00002192+00000+0001T   00002192+0000001030          1400 AH1130               1AZ
106406005106406112-116038     106406006009681820246TCS CARRIER BAG MIDI   0000001000+00000035+00000+0001T   00000035+0000001030          1400 AH1090               1AZ
106407000106407               106407               170213LE     1400+00000+LE0000004768+0000004768+000000000+000000669+0000005430+0000000007+I20000000000+0000005430+Z
106407001106407088-000084     106407006001023798060P/POURRI 120G ASSTD    0000001000+00001753+00000+0001T   00001753+0000001030          1400 AH1212               1AZ
106407002106407039-000108     106407006001023524034TEA-LITE CANDLES 8PCE  0000002000+00001490+00000+0001T   00001490+0000001030          1400 AH1510               1AZ
106407003106407112-116038     106407006009681820246TCS CARRIER BAG MIDI   0000001000+00000035+00000+0001T   00000035+0000001030          1400 AH1090               1AZ
106408000106408               106408               170213LE     1400+00000+LE0000014078+0000014078+000000000+000001972+0000016050+0000000000+I40000016050+0000000000+Z
106408001106408105-002013     106408006002580008494CONTAINER SET 18PCE    0000001000+00007016+00000+0001T   00007016+0000001032          1400 AH1210               1AZ
106408002106408105-001068     106408006003000629046CONTAINER CLIP LOCK    0000002000+00003507+00000+0001T   00003507+0000001032          1400 AH1210               1AZ
106408003106408112-116069     106408006009681820277TCS CARRIER BAG JUMBO  0000001000+00000048+00000+0001T   00000048+0000001032          1400 AH1090               1AZ
106409000106409               106409               170213LE     1400+00000+LE0000005699+0000005699+000000000+000000798+0000006490+0000000007+I20000000000+0000006490+Z
106409001106409903-000844     106409005010478432567SWT CANDY DL LUV HEARTS0000001000+00001314+00000+0001T   00001314+0000001036          1400 AH1150               1AZ
106409002106409006-000190     106409006003000685530BALLOONS LOVE 81x91cm  0000001000+00004385+00000+0001T   00004385+0000001036          1400 AH1131               1AZ
106410000106410               106410               170213LE     1400+00000+LE0000009997+0000009997+000000000+000001400+0000011390+0000000007+I20000000000+0000011390+Z
106410001106410903-000504     106410006001704012416SWT CHOC JELLY BEANS   0000001000+00001227+00000+0001T   00001227+0000001039          1400 AH1150               1AZ
106410002106410079-001001     106410006003000448593CANVAS A3 WOOD MOUNTED 0000002000+00004385+00000+0001T   00004385+0000001039          1400 AH1130               1AZ
106411000106411               106411               170213LE     1400+00000+LE0000009641+0000009641+000000000+000001353+0000010994+0000000000+I40000010994+0000000000+Z
106411001106411107-004510     106411006002580008968STEP-STOOL PL          0000001000+00005262+00000+0001T   00005262+0000001048          1400 AH1210               1AZ
106411002106411903-000137     106411006002099004130SWEET GS JELLY BEAN 60G0000001000+00000788+00000+0001T   00000788+0000001048          1400 AH1150               1AZ
106411003106411903-000138     106411006002099004314SWT GS WINE GUMS 60G   0000001000+00000788+00000+0001T   00000788+0000001048          1400 AH1150               1AZ
106411004106411903-000482     106411006001704001397SWT SOFT-MINTS 60G     0000001000+00000876+00000+0001T   00000876+0000001048          1400 AH1150               1AZ
106411005106411903-000138     106411006002099004314SWT GS WINE GUMS 60G   0000001000+00000788+00000+0001T   00000788+0000001048          1400 AH1150               1AZ
106411006106411903-000699     106411006002099007018SWT CANDY FRUIT CHEWS  0000001000+00001139+00000+0001T   00001139+0000001048          1400 AH1150               1AZ
106412000106412               106412               170213LE     1400+00000+LE0000002541+0000002541+000000000+000000357+0000002890+0000000008+I20000000000+0000002890+Z
106412001106412903-002852     106412000000087108040MENTOS ROLL SPEARMINT  0000001000+00001051+00000+0001T   00001051+0000001049          1400 AH1150               1AZ
106412002106412051-002401     106412006001023523570TRIGGER-SPRAYER   300ml0000001000+00001490+00000+0001T   00001490+0000001049          1400 AH1820               1AZ
106413000106413               106413               170213LE     1400+00000+LE0000007016+0000007016+000000000+000000983+0000007990+0000000009+I20000000000+0000007990+Z
106413001106413105-001069     106413006003000629084CONTAINER CLIP LOCK    0000001000+00007016+00000+0001T   00007016+0000001053          1400 AH1210               1AZ
106414000106414               106414               170213LE     1400+00000+LE0000002630+0000002630+000000000+000000369+0000002990+0000000009+I20000000000+0000002990+Z
106414001106414077-000270     106414006003000395453GIFT-BAG PPR JMB 33X45 0000001000+00002630+00000+0001T   00002630+0000001213          1400 JN2112               1BZ
106415000106415               106415               170213LE     1400+00000+LE0000003542+0000003542+000000000+000000496+0000004038+0000000000+I40000004038+0000000000+Z
106415001106415112-116038     106415006009681820246TCS CARRIER BAG MIDI   0000001000+00000035+00000+0001T   00000035+0000001307          1400 AH1090               1AZ
106415002106415031-005923     106415006003000040322P/FRAME CERT PL 21x29.70000001000+00003507+00000+0001T   00003507+0000001307          1400 AH1510               1AZ
106416000106416               106416               170213LE     1400+00000+LE0000005472+0000005472+000000000+000000769+0000006241+0000000000+I40000006241+0000000000+Z
106416001106416006-000171-H   106416006003000609574BALLOONS 1PC RED PRINT 0000003000+00000218+00000+0001T   00000218+0000001317          1400 AH1131               1AZ
106416002106416006-001000     106416006003000093779HELIUM BALLOON FILL    0000005000+00000613+00000+0001T   00000613+0000001317          1400 AH1131               1AZ
106416003106416006-000109-A   106416006003000645435BALLOONS HELIUM 2PC    0000001000+00001753+00000+0001T   00001753+0000001317          1400 AH1131               1AZ
106417000106417               106417               170213LE     1400+00000+LE0000012672+0000012672+000000000+000001775+0000014440+0000000007+I20000000000+0000014440+Z
106417001106417016-006515-A   106417006003000461707S/JAR GLS W/HANDLE 500 0000008000+00001578+00000+0001T   00001753+0008191322          1400 AH1300               1AZ
106417002106417112-116069     106417006009681820277TCS CARRIER BAG JUMBO  0000001000+00000048+00000+0001T   00000048+0000001322          1400 AH1090               1AZ
106418000106418               106418               170213LE     1400+00000+LE0000005085+0000005085+000000000+000000712+0000005797+0000000000+I40000005797+0000000000+Z
106418001106418018-005009     106418006001023725608MUG W/PLUSH-BEAR LOVE  0000001000+00003507+00000+0001T   00003507+0000001323          1400 AH1515               1AZ
106418002106418077-000303     106418006001023593757GIFT-BAG PAPER MED     0000001000+00001578+00000+0001T   00001578+0000001323          1400 AH1112               1AZ
106419000106419               106419               170213LE     1400+00000+LE0000002192+0000002192+000000000+000000307+0000002490+0000000009+I20000000000+0000002490+Z
106419001106419080-000127     106419006003000424351VALENTINES DAY 36x24CM 0000001000+00002192+00000+0001T   00002192+0000001323          1400 AH1112               1AZ
106420000106420               106420               170213LE     1400+00000+LE0000006139+0000006139+000000000+000000860+0000006990+0000000009+I20000000000+0000006990+Z
106420001106420039-809558     106420006003000344376CANDLE PILLAR 12CM 4AST0000001000+00006139+00000+0001T   00006139+0000001324          1400 AH1510               1AZ
106421000106421               106421               170213LE     1400+00000+LE0000005155+0000005155+000000000+000000722+0000005870+0000000007+I20000000000+0000005870+Z
106421001106421018-000136     106421006001023659026MUG OCC LOVE W/PLUSH   0000001000+00003507+00000+0001T   00003507+0000001324          1400 AH1515               1AZ
106421002106421077-000303     106421006001023593757GIFT-BAG PAPER MED     0000001000+00001578+00000+0001T   00001578+0000001324          1400 AH1112               1AZ
106421003106421112-116038     106421006009681820246TCS CARRIER BAG MIDI   0000002000+00000035+00000+0001T   00000035+0000001324          1400 AH1090               1AZ
106422000106422               106422               170213LE     1400+00000+LE0000004385+0000004385+000000000+000000614+0000004990+0000000009+I20000000000+0000004990+Z
106422001106422082-000105     106422006003000360369READING GLS STRNGHT:1.50000001000+00004385+00000+0001T   00004385+0000001328          1400 AH1160               1AZ
106423000106423               106423               170213LE     1400+00000+LE0000006174+0000006174+000000000+000000865+0000007030+0000000009+I20000000000+0000007030+Z
106423001106423018-005007     106423006003000515516MUG OCC. LOVE W/HEARTS 0000001000+00006139+00000+0001T   00006139+0000001337          1400 AH1515               1AZ
106423002106423112-116038     106423006009681820246TCS CARRIER BAG MIDI   0000001000+00000035+00000+0001T   00000035+0000001337          1400 AH1090               1AZ
106424000106424               106424               170213LE     1400+00000+LE0000002804+0000002804+000000000+000000394+0000003190+0000000008+I20000000000+0000003190+Z
106424001106424108-002020     106424006009654960245WINE GLS STYRENE 220ml 0000002000+00001402+00000+0001T   00001402+0000001337          1400 AH1210               1AZ
106425000106425               106425               170213LE     1400+00000+LE0000003507+0000003507+000000000+000000491+0000003990+0000000008+I20000000000+0000003990+Z
106425001106425018-005009     106425006001023725608MUG W/PLUSH-BEAR LOVE  0000001000+00003507+00000+0001T   00003507+0000001338          1400 AH1515               1AZ
106426000106426               106426               170213LE     1400+00000+LE0000009416+0000009416+000000000+000001320+0000010736+0000000000+I40000010736+0000000000+Z
106426001106426112-116038     106426006009681820246TCS CARRIER BAG MIDI   0000001000+00000035+00000+0001T   00000035+0000001342          1400 AH1090               1AZ
106426002106426047-001337-H   106426006001023429971INS-TAPE 20m BLACK     0000001000+00001753+00000+0001T   00001753+0000001342          1400 AH1880               1AZ
106426003106426037-050016     106426006001023674128ASHTRAY 9CM RND CLUB   0000001000+00001753+00000+0001T   00001753+0000001342          1400 AH1515               1AZ
106426004106426033-005919     106426006003000154883SEWING THREAD 24cm ASST0000001000+00001490+00000+0001T   00001490+0000001342          1400 AH1200               1AZ
106426005106426020-000141     106426006001023629524STEAK-KNIVES P.P.CARD-60000001000+00004385+00000+0001T   00004385+0000001342          1400 AH1300               1AZ
106427000106427               106427               170213LE     1400+00000+LE0000024072+0000024072+000000000+000003374+0000027440+0000000006+I20000000000+0000027440+Z
106427001106427112-116069     106427006009681820277TCS CARRIER BAG JUMBO  0000001000+00000048+00000+0001T   00000048+0000001344          1400 AH1090               1AZ
106427002106427563-000317-B   106427006001023776174SERVIETTES PLN WHT PK400000001000+00001314+00000+0001T   00001314+0000001344          1400 AH1214               1AZ
106427003106427563-000317-G   106427006001023776341SERVIETTES BRIGHT ASSTD0000001000+00002630+00000+0001T   00002630+0000001344          1400 AH1214               1AZ
106427004106427158-001092     106427006003000621729SERVIETTE HOLDER 17CM  0000001000+00004385+00000+0001T   00004385+0000001344          1400 AH1300               1AZ
106427005106427038-092233     106427006003000328925TABLE-MAT N/SLIP ASST  0000001000+00003069+00000+0001T   00003507+0008191344          1400 AH1300               1AZ
106427006106427027-000091     106427006003000343966WINDOW CLEANER 22CM    0000001000+00001753+00000+0001T   00001753+0000001344          1400 AH1212               1AZ
106427007106427903-002850     106427000000087108262MENTOS ROLL FRUIT      0000001000+00001051+00000+0001T   00001051+0000001344          1400 AH1150               1AZ
106427008106427903-002851     106427000000087108538MENTOS ROLL STRAWBERRY 0000001000+00001051+00000+0001T   00001051+0000001344          1400 AH1150               1AZ
106427009106427031-001015     106427006003000674862P/FRAME COLLAGE 6-HOLE 0000001000+00008771+00000+0001T   00008771+0000001344          1400 AH1510               1AZ
106428000106428               106428               170213LE     1400+00000+LE0000004120+0000004120+000000000+000000578+0000004690+0000000008+I20000000000+0000004690+Z
106428001106428493-059010     106428000078257590100BEACH-BALL COLOR-PANELS0000001000+00001490+00000+0001T   00001490+0000001345          1400 AH1787               1AZ
106428002106428463-000366     106428006001023789136SWIM W/NOODLE 150cm    0000001000+00002630+00000+0001T   00002630+0000001345          1400 AH1785               1AZ
106429000106429               106429               170213LE     1400+00000+LE0000024592+0000024592+000000000+000003448+0000028040+0000000000+I20000000000+0000028040+Z
106429001106429150-000770     106429006005387000128UTILITY BOX MEGA       0000001000+00003244+00000+0001T   00003244+0000001353          1400 AH1810               1AZ
106429002106429267-000901     106429006003000635771PUZZLE JIGSAW W/STICKER0000001000+00001753+00000+0001T   00001753+0000001353          1400 AH1755               1AZ
106429003106429566-000021     106429006001023824400STCKRS BK COLOR-IN-SET 0000001000+00000876+00000+0001T   00001314+0008151353          1400 AH1130               1AZ
106429004106429077-000342     106429006003000273942G/BAG PAPER LRG 25X32CM0000001000+00001490+00000+0001T   00001490+0000001353          1400 AH1112               1AZ
106429005106429112-116069     106429006009681820277TCS CARRIER BAG JUMBO  0000001000+00000048+00000+0001T   00000048+0000001353          1400 AH1090               1AZ
106429006106429903-002901     106429005996071650655QUICK MILK 5 S/BERRY   0000001000+00001578+00000+0001T   00001578+0000001353          1400 AH1150               1AZ
106429007106429903-002900     106429005996071650648QUICK MILK 5 CHOCO 5PC 0000001000+00001578+00000+0001T   00001578+0000001353          1400 AH1150               1AZ
106429008106429361-090310     106429006003000542819PONY 6X3X11cm W/ACC.   0000001000+00005262+00000+0001T   00005262+0000001353          1400 AH1725               1AZ
106429009106429263-000613     106429006003000241538CAR FLIP & SHOOT + 3CAR0000001000+00003507+00000+0001T   00003507+0000001353          1400 AH1710               1AZ
106429010106429903-000295     106429006001704002899SWT MS FRUITY RASCALS  0000002000+00000876+00000+0001T   00000876+0000001353          1400 AH1150               1AZ
106429011106429903-000520     106429006001704009898SWT GUMMY MINI SOUR 60g0000002000+00000876+00000+0001T   00000876+0000001353          1400 AH1150               1AZ
106429012106429903-000220     106429006001704007368SWT JELLY BEANS 60G    0000001000+00000876+00000+0001T   00000876+0000001353          1400 AH1150               1AZ
106429013106429903-000503     106429006001704006118SWT VAMPIRE FANGS 60G  0000001000+00000876+00000+0001T   00000876+0000001353          1400 AH1150               1AZ
106430000106430               106430               170213LE     1400+00000+LE0000022804+0000022804+000000000+000003194+0000025990+0000000008+I20000000000+0000025990+Z
106430001106430586-098618     106430006001492986180WATCH GIRLS DBL HRT PNK0000001000+00011402+00000+0001T   00011402+0000001354          1400 AH1160               1AZ
106430002106430586-010753     106430006001492107530WATCH LDS MTL ASSTD    0000001000+00011402+00000+0001T   00011402+0000001354          1400 AH1160               1AZ
106431000106431               106431               170213LE     1400+00000+LE0000008329+0000008329+000000000+000001167+0000009496+0000000000+I40000009496+0000000000+Z
106431001106431088-000084     106431006001023798060P/POURRI 120G ASSTD    0000001000+00001753+00000+0001T   00001753+0000001359          1400 AH1212               1AZ
106431002106431563-000318-L   106431006003000407088SERVIETTES 33cm RED    0000003000+00002192+00000+0001T   00002192+0000001359          1400 AH1214               1AZ
106432000106432               106432               170213LE     1400+00000+LE0000007924+0000007924+000000000+000001112+0000009036+0000000000+I40000009036+0000000000+Z
106432001106432024-000212     106432006001023858030COOKIE-CUTTERS PL SMALL0000001000+00003069+00000+0001T   00003069+0000001405          1400 AH1300               1AZ
106432002106432002-000327     106432006001023381866I/CREAM-SCOOP ASSTD    0000001000+00002630+00000+0001T   00002630+0000001405          1400 AH1300               1AZ
106432003106432080-000133-A   106432006003000647019MINI VALENTINES CARD   0000001000+00000437+00000+0001T   00000437+0000001405          1400 AH1112               1AZ
106432004106432072-020359     106432006003000399758PET DOG/CAT BOWL SMALL 0000001000+00001753+00000+0001T   00001753+0000001405          1400 AH1870               1AZ
106432005106432112-116038     106432006009681820246TCS CARRIER BAG MIDI   0000001000+00000035+00000+0001T   00000035+0000001405          1400 AH1090               1AZ
106433000106433               106433               170213LE     1400+00000+LE0000013184+0000013184+000000000+000001847+0000015030+0000000001+I20000000000+0000015030+Z
106433001106433082-012779     106433006001492127798SUNGLASS KIDS WAYFARER 0000001000+00003507+00000+0001T   00003507+0000001409          1400 AH1160               1AZ
106433002106433082-098792     106433006001492987927SUNGLASS KIDS BOYS     0000002000+00003507+00000+0001T   00003507+0000001409          1400 AH1160               1AZ
106433003106433903-000861     106433005010478430822SWT LOVE HEARTS SML    0000003000+00000876+00000+0001T   00000876+0000001409          1400 AH1150               1AZ
106433004106433112-116038     106433006009681820246TCS CARRIER BAG MIDI   0000001000+00000035+00000+0001T   00000035+0000001409          1400 AH1090               1AZ
106434000106434               106434               170213LE     1400+00000+LE0000009644+0000009644+000000000+000001351+0000010995+0000000000+I40000010995+0000000000+Z
106434001106434560-000189     106434006003000592357ANIMALS SNAKE 78cm     0000002000+00003507+00000+0001T   00003507+0000001411          1400 AH1745               1AZ
106434002106434560-000202     106434006003000322008SNAKE PVC ASSTD        0000001000+00002630+00000+0001T   00002630+0000001411          1400 AH1745               1AZ
106435000106435               106435               170213LE     1400+00000+LE0000005253+0000005253+000000000+000000736+0000005980+0000000009+I20000000000+0000005980+Z
106435001106435200-003024     106435006001023657299REFUSE BAGS 20PCE BLACK0000001000+00001753+00000+0001T   00001753+0000001413          1400 AH1214               1AZ
106435002106435903-000070     106435006001704001106SWT TOFFEE CREAMY 35g  0000004000+00000700+00000+0001T   00000700+0000001413          1400 AH1150               1AZ
106435003106435903-000071     106435006001704001120SWT TOFFEE LIQURICE 35g0000001000+00000700+00000+0001T   00000700+0000001413          1400 AH1150               1AZ
106436000106436               106436               170213LE     1400+00000+LE0000005786+0000005786+000000000+000000811+0000006597+0000000000+I40000006597+0000000000+Z
106436001106436200-000200     106436006008766091144BAKING ALUM FOIL 2PCE  0000001000+00002192+00000+0001T   00002192+0000001417          1400 AH1214               1AZ
106436002106436077-000380     106436006003000247585GIFT-BAG 33X45CM S/COL 0000001000+00002455+00000+0001T   00002455+0000001417          1400 AH1112               1AZ
106436003106436903-000087     106436006001704000161SWT SPECKLED-EGGS 50G  0000001000+00001139+00000+0001T   00001139+0000001417          1400 AH1150               1AZ
106437000106437               106437               170213LE     1400+00000+LE0000015835+0000015835+000000000+000002218+0000018050+0000000003+I20000000000+0000018050+Z
106437001106437265-006905     106437006001023755933TRAIN-SET B/O   EXPRESS0000001000+00013157+00000+0001T   00013157+0000001418          1400 AH1710               1AZ
106437002106437046-000011-A   106437006003000438891BATTERIES SIZE:AA  4PCE0000001000+00002630+00000+0001T   00002630+0000001418          1400 AH1312               1AZ
106437003106437112-116069     106437006009681820277TCS CARRIER BAG JUMBO  0000001000+00000048+00000+0001T   00000048+0000001418          1400 AH1090               1AZ
106438000106438               106438               170213LE     1400+00000+LE0000018812+0000018812+000000000+000002636+0000021448+0000000000+I40000021448+0000000000+Z
106438001106438007-000235     106438006003000134434LABELS RECTANGULAR 60pc0000001000+00000876+00000+0001T   00000876+0000001452          1400 AH1130               1AZ
106438002106438027-000090     106438006001023588265WINDOW-CLEANER LONG-HND0000001000+00002630+00000+0001T   00002630+0000001452          1400 AH1212               1AZ
106438003106438071-005667     106438006003000153060STAPLER SET MTL W/STPLS0000001000+00003507+00000+0001T   00003507+0000001452          1400 AH1130               1AZ
106438004106438071-081091     106438006001151010287STAED/GENKEM ALL-STICK 0000001000+00001227+00000+0001T   00001227+0000001452          1400 AH1130               1AZ
106438005106438024-000165-A   106438006003000674077N/STICK B/WARE RND PAN 0000002000+00005262+00000+0001T   00005262+0000001452          1400 AH1300               1AZ
106438006106438112-116069     106438006009681820277TCS CARRIER BAG JUMBO  0000001000+00000048+00000+0001T   00000048+0000001452          1400 AH1090               1AZ
106439000106439               106439               170213LE     1400+00000+LE0000000436+0000000436+000000000+000000062+0000000490+0000000008+I20000000000+0000000490+Z
106439001106439006-000171-K   106439006003000609697BALLOONS 1PC PURPLE PRN0000001000+00000218+00000+0001T   00000218+0000001500          1400 AH1131               1AZ
106439002106439006-000171-C   106439006003000609178BALLOONS 1PC D/GRN PRNT0000001000+00000218+00000+0001T   00000218+0000001500          1400 AH1131               1AZ
106440000106440               106440               170213LE     1400+00000+LE0000013155+0000013155+000000000+000001843+0000014990+0000000008+I20000000000+0000014990+Z
106440001106440361-000691     106440006003000541256DOLL SML BENDABLE 3PCS 0000001000+00011402+00000+0001T   00011402+0000001508          1400 AH1725               1AZ
106440002106440077-000308     106440006001023595812GIFT-BAG 33X45CM E/DAY 0000001000+00001753+00000+0001T   00001753+0000001508          1400 AH1112               1AZ
106441000106441               106441               170213LE     1400+00000+LE0000008802+0000008802+000000000+000001234+0000010036+0000000000+I40000010036+0000000000+Z
106441001106441020-000141     106441006001023629524STEAK-KNIVES P.P.CARD-60000001000+00004385+00000+0001T   00004385+0000001510          1400 AH1300               1AZ
106441002106441001-091413     106441006001023669179WINE-GLASS RED WINE    0000001000+00002630+00000+0001T   00002630+0000001510          1400 AH1515               1AZ
106441003106441001-000167     106441006001023679659TUMBLER 340ml WILLY    0000002000+00000876+00000+0001T   00000876+0000001510          1400 AH1515               1AZ
106441004106441112-116038     106441006009681820246TCS CARRIER BAG MIDI   0000001000+00000035+00000+0001T   00000035+0000001510          1400 AH1090               1AZ
106442000106442               106442               170213LE     1400+00000+LE0000004554+0000004554+000000000+000000639+0000005190+0000000003+I20000000000+0000005190+Z
106442001106442006-001000     106442006003000093779HELIUM BALLOON FILL    0000006000+00000613+00000+0001T   00000613+0000001513          1400 AH1131               1AZ
106442002106442076-000017     106442006001811010022TWINE COTTON 50g-BALL  0000001000+00000876+00000+0001T   00000876+0000001513          1400 AH1810               1AZ
106443000106443               106443               170213LE     1400+00000+LE0000011609+0000011609+000000000+000001626+0000013235+0000000000+I40000013235+0000000000+Z
106443001106443112-116038     106443006009681820246TCS CARRIER BAG MIDI   0000001000+00000035+00000+0001T   00000035+0000001545          1400 AH1090               1AZ
106443002106443567-075497     106443009780799381672BK NOVEL ROMANCE AFR   0000001000+00006139+00000+0001T   00006139+0000001545          1400 AH1757               1AZ
106443003106443567-075490     106443009780799376951BK NOVEL ROMANCE AFR   0000001000+00003507+00000+0001T   00003507+0000001545          1400 AH1757               1AZ
106443004106443105-001078     106443000700371637750CONTAINER 1,1L CLIP LOC0000001000+00001928+00000+0001T   00001928+0000001545          1400 AH1210               1AZ
106444000106444               106444               170213LE     1400+00000+LE0000018727+0000018727+000000000+000002624+0000021350+0000000001+I20000000000+0000021350+Z
106444001106444077-000303     106444006001023593757GIFT-BAG PAPER MED     0000001000+00001578+00000+0001T   00001578+0000001548          1400 AH1112               1AZ
106444002106444368-000049     106444006003000536955PLUSH BEAR 15cm LOVE   0000001000+00004385+00000+0001T   00004385+0000001548          1400 AH1745               1AZ
106444003106444301-085001     106444006003000297610ORN WATERBALL LOVE ASST0000001000+00004823+00000+0001T   00004823+0000001548          1400 AH1505               1AZ
106444004106444264-000934     106444000090159210818MAISTO DINKY 11cm LAMBO0000001000+00007893+00000+0001T   00007893+0000001548          1400 AH1710               1AZ
106444005106444112-116069     106444006009681820277TCS CARRIER BAG JUMBO  0000001000+00000048+00000+0001T   00000048+0000001548          1400 AH1090               1AZ
106445000106445               106445               170213LE     1400+00000+LE0000008771+0000008771+000000000+000001228+0000009990+0000000009+I20000000000+0000009990+Z
106445001106445039-000799     106445006001023692382CANDLES TEALITE 100PCE 0000001000+00008771+00000+0001T   00008771+0000001549          1400 AH1510               1AZ
106446000106446               106446               170213LE     1400+00000+LE0000009681+0000009681+000000000+000001357+0000011030+0000000008+I20000000000+0000011030+Z
106446001106446041-093000     106446006003000320882B/GIFT SET 4PC B/RANGE 0000001000+00007016+00000+0001T   00007016+0000001557          1400 AH1200               1AZ
106446002106446077-000475     106446006003000640775GIFT-BAG DESIGNER MED  0000001000+00002630+00000+0001T   00002630+0000001557          1400 AH1112               1AZ
106446003106446112-116038     106446006009681820246TCS CARRIER BAG MIDI   0000001000+00000035+00000+0001T   00000035+0000001557          1400 AH1090               1AZ
106447000106447               106447               170213LE     1400+00000+LE0000001314+0000001314+000000000+000000184+0000001490+0000000008+I20000000000+0000001490+Z
106447001106447007-000209     106447006001023582102NOTE STICKY FILE MARKER0000001000+00001314+00000+0001T   00001314+0000001559          1400 AH1130               1AZ
106448000106448               106448               170213LE     1400+00000+LE0000001753+0000001753+000000000+000000246+0000001990+0000000009+I20000000000+0000001990+Z
106448001106448105-001032     106448000700371696634CONTAINER FOODSAVER 1.20000001000+00001753+00000+0001T   00001753+0000001559          1400 AH1210               1AZ
106449000106449               106449               170213LE     1400+00000+LE0000008379+0000008379+000000000+000001174+0000009550+0000000003+I20000000000+0000009550+Z
106449001106449200-000168     106449006003000577026PICNIC PLATTERS 8-PACK 0000001000+00003069+00000+0001T   00003069+0000001601          1400 AH1214               1AZ
106449002106449028-000401     106449006001023120632PLATE-HOLDERS 4PCE  H&L0000001000+00005262+00000+0001T   00005262+0000001601          1400 AH1305               1AZ
106449003106449112-116069     106449006009681820277TCS CARRIER BAG JUMBO  0000001000+00000048+00000+0001T   00000048+0000001601          1400 AH1090               1AZ
106450000106450               106450               170213LE     1400+00000+LE0000001753+0000001753+000000000+000000246+0000001990+0000000009+I20000000000+0000001990+Z
106450001106450080-000113     106450006003000237449CARD&ENVLPE - LOVE     0000001000+00001753+00000+0001T   00001753+0000001601          1400 AH1112               1AZ
106451000106451               106451               170213LE     1400+00000+LE0000000876+0000000876+000000000+000000123+0000000990+0000000009+I20000000000+0000000990+Z
106451001106451078-000025     106451008887013700064SUPERGLUE 3g 1PCE CARD 0000001000+00000876+00000+0001T   00000876+0000001603          1400 AH1810               1AZ
106452000106452               106452               170213LE     1400+00000+LE0000006139+0000006139+000000000+000000860+0000006990+0000000009+I20000000000+0000006990+Z
106452001106452007-000898     106452006001023871947BOOK JOURNAL           0000001000+00006139+00000+0001T   00006139+0000001611          1400 AH1130               1AZ
106453000106453               106453               170213LE     1400+00000+LE0000010173+0000010173+000000000+000001425+0000011590+0000000008+I20000000000+0000011590+Z
106453001106453304-001204     106453006001023737984FLOWER OCC. TEDDY/ROSES0000001000+00001402+00000+0001T   00001490+0006471618          1400 AH1510               1AZ
106453002106453368-000665     106453006003000169016PLUSH BEAR 30cm        0000001000+00008771+00000+0001T   00008771+0000001618          1400 AH1745               1AZ
106454000106454               106454               170213LE     1400+00000+LE0000002980+0000002980+000000000+000000418+0000003390+0000000008+I20000000000+0000003390+Z
106454001106454251-000032     106454006001023515841MASKING-TAPE 36mmx40m  0000001000+00001753+00000+0001T   00001753+0000001619          1400 AH1810               1AZ
106454002106454206-000630     106454006003000631919SPECTACLE CLEANING BRUS0000001000+00001227+00000+0001T   00001227+0000001619          1400 AH1321               1AZ
106455000106455               106455               170213LE     1400+00000+LE0000016597+0000016597+000000000+000002328+0000018920+0000000005+I20000000000+0000018920+Z
106455001106455071-005214     106455006003000152544CELLOTAPE SUPER REFILL 0000001000+00001490+00000+0001T   00001490+0000001720          1400 AH1130               1AZ
106455002106455077-000926     106455006003000414178G/WRAP 700mmx2m LOVE   0000001000+00002192+00000+0001T   00002192+0000001720          1400 AH1112               1AZ
106455003106455077-000290     106455006001023902023GIFT BOX 26x32x13cm    0000001000+00001753+00000+0001T   00001753+0000001720          1400 AH1112               1AZ
106455004106455903-000673     106455006009803358237SWT SHERBET GRAPE 4PK  0000001000+00000876+00000+0001T   00000876+0000001720          1400 AH1150               1AZ
106455005106455903-000674     106455006009803358220SWT SHERBET W/LOLLY 4PK0000001000+00001314+00000+0001T   00001314+0000001720          1400 AH1150               1AZ
106455006106455903-000673     106455006009803358237SWT SHERBET GRAPE 4PK  0000001000+00000876+00000+0001T   00000876+0000001720          1400 AH1150               1AZ
106455007106455903-000674     106455006009803358220SWT SHERBET W/LOLLY 4PK0000002000+00001314+00000+0001T   00001314+0000001720          1400 AH1150               1AZ
106455008106455903-000896     106455006009680772270SWT BITZ BL/CURRANT 50G0000001000+00000788+00000+0001T   00000788+0000001720          1400 AH1150               1AZ
106455009106455112-116038     106455006009681820246TCS CARRIER BAG MIDI   0000001000+00000035+00000+0001T   00000035+0000001720          1400 AH1090               1AZ
106455010106455077-000270     106455006003000395453GIFT-BAG PPR JMB 33X45 0000001000+00002630+00000+0001T   00002630+0000001720          1400 AH1112               1AZ
106455011106455304-001204     106455006001023737984FLOWER OCC. TEDDY/ROSES0000001000+00001402+00000+0001T   00001490+0006471720          1400 AH1510               1AZ
106455012106455304-001011     106455006001023806727FLWR ROSE RED W/BEAR   0000001000+00000613+00000+0001T   00000788+0006471720          1400 AH1510               1AZ
106456000106456               106456               170213LE     1400+00000+LE0000007449+0000007449+000000000+000001045+0000008494+0000000000+I40000008494+0000000000+Z
106456001106456903-000517     106456006001704012768SWT STRAWS FIZZY CHERRY0000002000+00001227+00000+0001T   00001227+0000001725          1400 AH1150               1AZ
106456002106456903-000510     106456006001704012621SWEET MS ZBDZ S/BERRY  0000002000+00001227+00000+0001T   00001227+0000001725          1400 AH1150               1AZ
106456003106456077-000010-Z   106456006001023157874CREPE-PAPER BLK/ORG/PUR0000001000+00000788+00000+0001T   00000788+0000001725          1400 AH1112               1AZ
106456004106456077-000382     106456006003000247820GIFT-BAG MED 18X23CM   0000001000+00001753+00000+0001T   00001753+0000001725          1400 AH1112               1AZ
M17021391                              CASH        LESLAVE 1                       Z-REPORT No.   535TOTAL (Sales - Refunds)           6262.66       CASH TO BE BANKED                 4076.00       DEBIT CARDS                          0.00       CREDIT CARDS                      2186.66       Z-READING                         6262.66       AIRTIME DEBIT CARD SALES             0.00       AIRTIME CARD SALES                   0.00       OVERS/UNDERS                         0.00       AIRTIME CASH SALES                   0.00       GIFT CARDS                           0.00       GIFT CARD CASH SALES                 0.00       T O T A L  CASH PAYOUTS              0.00                                                                                                                                                                                                                                                                                                                                                      Z
M17021392                              CASH        LEABSENT                                                                                                                                                                                          ANNUAL LEAVE                                                                                                                                                                                    DAY OFF                                                                                                                                                                                         COMMENTS                                                                                                                                                                                                                                                                                                                                                                                       Z
Y17021300                                          LE00000000549551+000064
ZLE17021320023 SLAVE 1      SALES DATA                     NEXT INVOICE NO.  106457 0535
X LE Slave 1 First invoice 106393 170213 Last invoice 106456 170213 Next invoice 106457 Total number of records 000000262 clbackup completed 20:02:15
