118991000118991               118991               170213LF     1400+00000+LF0000003507+0000003507+000000000+000000491+0000003990+0000000008+I20000000000+0000003990+Z
118991001118991018-005009     118991006001023725608MUG W/PLUSH-BEAR LOVE  0000001000+00003507+00000+0001T   00003507+0000000842          1400 HM1515               1AZ
118992000118992               118992               170213LF     1400+00000+LF0000000048+0000000048+000000000+000000007+0000000050+0000000005+I20000000000+0000000050+Z
118992001118992112-116069     118992006009681820277TCS CARRIER BAG JUMBO  0000001000+00000048+00000+0001T   00000048+0000000842          1400 HM1090               1AZ
118993000118993               118993               170213LF     1400+00000+LF0000016788+0000016788+000000000+000002356+0000019144+0000000000+I40000019144+0000000000+Z
118993001118993112-116069     118993006009681820277TCS CARRIER BAG JUMBO  0000001000+00000048+00000+0001T   00000048+0000000858          1400 HM1090               1AZ
118993002118993007-010495     118993006003000533510BOARD DRY WIPE & PEN   0000001000+00002630+00000+0001T   00002630+0000000858          1400 HM1130               1AZ
118993003118993306-000020-A   118993006001023873583TISSUES 100PCE 19x18cm 0000001000+00001753+00000+0001T   00001753+0000000858          1400 HM1200               1AZ
118993004118993306-000027     118993006009654960900COTTON WOOL PADS 2-PACK0000001000+00003507+00000+0001T   00003507+0000000858          1400 HM1200               1AZ
118993005118993306-000001     118993006003000450152NAIL BRUSH SET 7/9/14cm0000001000+00002630+00000+0001T   00002630+0000000858          1400 HM1200               1AZ
118993006118993903-000618     118993006003000672370SWT LOLLY RAINBOW GIANT0000001000+00001753+00000+0001T   00001753+0000000858          1400 HM1150               1AZ
118993007118993077-000010-U   118993006001023168863CREPE-PAPER CERISE-PINK0000001000+00000788+00000+0001T   00000788+0000000858          1400 HM1112               1AZ
118993008118993077-000399     118993006003000139514GIFT BAG 18X23CM E/DAY 0000001000+00001490+00000+0001T   00001490+0000000858          1400 HM1112               1AZ
118993009118993077-000151     118993006008766114676GIFT-WRAP C/PHANE ASSTD0000002000+00000876+00000+0001T   00000876+0000000858          1400 HM1112               1AZ
118993010118993080-000133     118993006003000535613CARD&ENV MINI ASTD DSGN0000001000+00000437+00000+0001T   00000437+0000000858          1400 HM1112               1AZ
118994000118994               118994               170213LF     1400+00000+LF0000020163+0000020163+000000000+000002828+0000022990+0000000001+I20000000000+0000022990+Z
118994001118994007-000203     118994006009685850409FILE DISPLAY FLDR ASSTD0000002000+00000437+00000+0001T   00000437+0000000901          1400 HM1130               1AZ
118994002118994105-001100     118994006003000667536CONTAINER SET LITE 2PC 0000002000+00002630+00000+0001T   00002630+0000000901          1400 HM1210               1AZ
118994003118994108-004020     118994006003000667109PLATE PL 19cm DIA SET 20000001000+00001753+00000+0001T   00001753+0000000901          1400 HM1210               1AZ
118994004118994105-001247     118994006003000623310CONTAINER RECT 3PCE    0000001000+00002630+00000+0001T   00002630+0000000901          1400 HM1210               1AZ
118994005118994562-000021     118994006001023800367PLAY DOUGH SET 3 ASSTD 0000001000+00003507+00000+0001T   00003507+0000000901          1400 HM1755               1AZ
118994006118994562-001043     118994006003000478200NUMBERS&ALPHABET MAGNET0000001000+00006139+00000+0001T   00006139+0000000901          1400 HM1755               1AZ
118995000118995               118995               170213LF     1400+00000+LF0000000048+0000000048+000000000+000000007+0000000050+0000000005+I20000000000+0000000050+Z
118995001118995112-116069     118995006009681820277TCS CARRIER BAG JUMBO  0000001000+00000048+00000+0001T   00000048+0000000907          1400 HM1090               1AZ
118996000118996               118996               170213LF     1400+00000+LF0000005435+0000005435+000000000+000000762+0000006190+0000000007+I20000000000+0000006190+Z
118996001118996079-013032-B   118996006003000389445MIXED SHAPES           0000001000+00001753+00000+0001T   00001753+0000000934          1400 HM1130               1AZ
118996002118996079-006494     118996006003000159864GLITTER GLUE 5PCE 11cm 0000001000+00001490+00000+0001T   00001490+0000000934          1400 HM1130               1AZ
118996003118996077-000924     118996006003000414055G/WRAP 700mmx2m WEDDING0000001000+00002192+00000+0001T   00002192+0000000934          1400 HM1112               1AZ
118997000118997               118997               170213LF     1400+00000+LF0000001490+0000001490+000000000+000000209+0000001690+0000000009+I20000000000+0000001690+Z
118997001118997031-000878-B   118997006001023799012P/FRAME 13x18cm PL-SLID0000001000+00001490+00000+0001T   00001490+0000000940          1400 HM1510               1AZ
118998000118998               118998               170213LF     1400+00000+LF0000002630+0000002630+000000000+000000369+0000002990+0000000009+I20000000000+0000002990+Z
118998001118998106-001104     118998006003000364794WATER BOTTLE 600ml PL  0000001000+00002630+00000+0001T   00002630+0000000954          1400 HM1210               1AZ
118999000118999               118999               170213LF     1400+00000+LF0000001314+0000001314+000000000+000000184+0000001490+0000000008+I20000000000+0000001490+Z
118999001118999046-000012     118999006904708013062BATTERIES AA  CARD-OF-40000001000+00001314+00000+0001T   00001314+0000000956          1400 HM1312               1AZ
119000000119000               119000               170213LF     1400+00000+LF0000008771+0000008771+000000000+000001228+0000009990+0000000009+I20000000000+0000009990+Z
119000001119000368-000614     119000006001023705808PLUSH LOVE 30cm        0000001000+00008771+00000+0001T   00008771+0000001041          1400 HM1745               1AZ
119001000119001               119001               170213LF     1400+00000+LF0000000613+0000000613+000000000+000000086+0000000690+0000000009+I20000000000+0000000690+Z
119001001119001077-000311     119001006001023608666GIFT-BAG 11X14CM GLOSS 0000001000+00000613+00000+0001T   00000613+0000001047          1400 HM1112               1AZ
119002000119002               119002               170213LF     1400+00000+LF0000031435+0000031435+000000000+000004405+0000035840+0000000000+I40000035840+0000000000+Z
119002001119002112-116069     119002006009681820277TCS CARRIER BAG JUMBO  0000001000+00000048+00000+0001T   00000048+0000001112          1400 HM1090               1AZ
119002002119002104-000010     119002006001023507822BASKET 30x23cm RECT.   0000001000+00001753+00000+0001T   00001753+0000001112          1400 HM1210               1AZ
119002003119002077-000151     119002006008766114676GIFT-WRAP C/PHANE ASSTD0000001000+00000876+00000+0001T   00000876+0000001112          1400 HM1112               1AZ
119002004119002903-003051     119002008024431008703SWT CHOCO PARTY 25G    0000001000+00000876+00000+0001T   00000876+0000001112          1400 HM1150               1AZ
119002005119002073-000158     119002006003000683352COSMETIC BAG 18x10x3   0000001000+00002192+00000+0001T   00002192+0000001112          1400 HM1200               1AZ
119002006119002301-085004     119002006003000420469ORN LOVE PLAQUE 21X10CM0000001000+00003507+00000+0001T   00003946+0006471112          1400 HM1505               1AZ
119002007119002368-000001     119002006003000097982Plush Bear 25cm        0000001000+00004385+00000+0001T   00004385+0000001112          1400 HM1745               1AZ
119002008119002018-000127     119002006001023380289MUG OCC STRAIGHT LOVE  0000001000+00001578+00000+0001T   00001753+0006471112          1400 HM1515               1AZ
119002009119002018-000136     119002006001023659026MUG OCC LOVE W/PLUSH   0000001000+00003507+00000+0001T   00003507+0000001112          1400 HM1515               1AZ
119002010119002306-001660     119002006003000620579NAIL DRYING MACHINE    0000001000+00007016+00000+0001T   00007016+0000001112          1400 HM1200               1AZ
119002011119002080-000116     119002006003000253555CARD&ENVELOPE-HANDMADE 0000001000+00001753+00000+0001T   00001753+0000001112          1400 HM1112               1AZ
119002012119002077-000310     119002006001023608635GIFT-BAG 18X23CM GLOSS 0000001000+00001314+00000+0001T   00001314+0000001112          1400 HM1112               1AZ
119002013119002304-000720     119002006001023843050F/BUNCH ROSE 6-HEAD AST0000001000+00002630+00000+0001T   00002630+0000001112          1400 HM1510               1AZ
119003000119003               119003               170213LF     1400+00000+LF0000000262+0000000262+000000000+000000037+0000000290+0000000009+I20000000000+0000000290+Z
119003001119003108-003007     119003006002923006590MUG PL 375ml           0000001000+00000262+00000+0001T   00000262+0000001123          1400 HM1210               1AZ
119004000119004               119004               170213LF     1400+00000+LF0000002454+0000002454+000000000+000000344+0000002790+0000000008+I20000000000+0000002790+Z
119004001119004071-081091     119004006001151010287STAED/GENKEM ALL-STICK 0000002000+00001227+00000+0001T   00001227+0000001129          1400 HM1130               1AZ
119005000119005               119005               170213LF     1400+00000+LF0000007101+0000007101+000000000+000000995+0000008096+0000000000+I40000008096+0000000000+Z
119005001119005150-000776     119005006001023839756UTILITY/TOOL-BOX PL    0000001000+00003507+00000+0001T   00003507+0000001140          1400 HM1810               1AZ
119005002119005150-000775     119005006005387117000UTILITY-BOX LARGE      0000001000+00002367+00000+0001T   00002367+0000001140          1400 HM1810               1AZ
119005003119005903-000504     119005006001704012416SWT CHOC JELLY BEANS   0000001000+00001227+00000+0001T   00001227+0000001140          1400 HM1150               1AZ
119006000119006               119006               170213LF     1400+00000+LF0000010392+0000010392+000000000+000001458+0000011850+0000000000+I40000011850+0000000000+Z
119006001119006112-116069     119006006009681820277TCS CARRIER BAG JUMBO  0000001000+00000048+00000+0001T   00000048+0000001143          1400 HM1090               1AZ
119006002119006080-000124     119006006003000297733CARD & ENV VALENTINES  0000001000+00001578+00000+0001T   00001578+0000001143          1400 HM1112               1AZ
119006003119006079-013101     119006006001023863706CRAFT SET DIY PIPE-CLNR0000002000+00002630+00000+0001T   00002630+0000001143          1400 HM1130               1AZ
119006004119006016-006509     119006006003000567355S/JAR GLS MINI LABEL   0000002000+00001753+00000+0001T   00002192+0008191143          1400 HM1300               1AZ
119007000119007               119007               170213LF     1400+00000+LF0000015833+0000015833+000000000+000002218+0000018051+0000000000+I40000018051+0000000000+Z
119007001119007027-009025     119007006003962000747DUSTPAN-SET PL         0000001000+00002630+00000+0001T   00002630+0000001145          1400 HM1212               1AZ
119007002119007112-116069     119007006009681820277TCS CARRIER BAG JUMBO  0000001000+00000048+00000+0001T   00000048+0000001145          1400 HM1090               1AZ
119007003119007036-000405     119007006001023630247CLOTHES DRYER PL 18-PEG0000002000+00004385+00000+0001T   00004385+0000001145          1400 HM1212               1AZ
119007004119007104-000135     119007006001023846419WASTEBIN SWING-LID 28cm0000001000+00004385+00000+0001T   00004385+0000001145          1400 HM1210               1AZ
119008000119008               119008               170213LF     1400+00000+LF0000001753+0000001753+000000000+000000246+0000001990+0000000009+I20000000000+0000001990+Z
119008001119008088-000084     119008006001023798060P/POURRI 120G ASSTD    0000001000+00001753+00000+0001T   00001753+0000001146          1400 HM1212               1AZ
119009000119009               119009               170213LF     1400+00000+LF0000007976+0000007976+000000000+000001119+0000009090+0000000005+I20000000000+0000009090+Z
119009001119009079-000510     119009006001023509079CRAYONS WAX 12-COLOUR  0000001000+00002455+00000+0001T   00002455+0000001147          1400 HM1130               1AZ
119009002119009071-003879     119009006936198404198PENCIL HB BLU/WHITE 12s0000001000+00001753+00000+0001T   00002630+0008151147          1400 HM1130               1AZ
119009003119009071-004202     119009006001023417176SCISSORS-SCHOOL PL/MTL 0000001000+00001139+00000+0001T   00001139+0000001147          1400 HM1130               1AZ
119009004119009007-000043     119009006009635831496DISPLAY-BOOK PL A4 20PG0000001000+00001753+00000+0001T   00001753+0000001147          1400 HM1130               1AZ
119009005119009567-014132     119009006003000560028BOOK COLOURING 24 PAGE 0000001000+00000876+00000+0001T   00000876+0000001147          1400 HM1757               1AZ
119010000119010               119010               170213LF     1400+00000+LF0000001753+0000001753+000000000+000000246+0000001990+0000000009+I20000000000+0000001990+Z
119010001119010071-002999-A   119010006003000611577PEN STICKBALL 10PCE ASS0000001000+00001753+00000+0001T   00001753+0000001150          1400 HM1130               1AZ
119011000119011               119011               170213LF     1400+00000+LF0000004385+0000004385+000000000+000000614+0000004990+0000000009+I20000000000+0000004990+Z
119011001119011079-000261     119011006003000159727PAINT WATER COLOUR CAKE0000001000+00004385+00000+0001T   00004385+0000001150          1400 HM1130               1AZ
119012000119012               119012               170213LF     1400+00000+LF0000003506+0000003506+000000000+000000492+0000003990+0000000008+I20000000000+0000003990+Z
119012001119012080-000106     119012006003000237098CARD&ENVLPE BDAY GIRL  0000001000+00001753+00000+0001T   00001753+0000001155          1400 HM1112               1AZ
119012002119012077-000324     119012006001023677594GIFT-BAG 33X45CM E/D FL0000001000+00001753+00000+0001T   00001753+0000001155          1400 HM1112               1AZ
119013000119013               119013               170213LF     1400+00000+LF0000003507+0000003507+000000000+000000491+0000000000+0000000000+ 00000000000+0000000000+Z
119013001119013034-078821     119013006003000621668BABY HANGERS PL 3PC    0000001000+00003507+00000+0001T   00003507+000000              1400 HM12151IC            1 Z
119014000119014               119014               170213LF     1400+00000+LF0000011792+0000011792+000000000+000001655+0000013440+0000000007+I20000000000+0000013440+Z
119014001119014112-116069     119014006009681820277TCS CARRIER BAG JUMBO  0000001000+00000048+00000+0001T   00000048+0000001218          1400 HM1090               1AZ
119014002119014007-000120     119014006009698062714BOOK DRAWING A4 24-PAGE0000001000+00000525+00000+0001T   00000525+0000001218          1400 HM1130               1AZ
119014003119014007-000043     119014006009635831496DISPLAY-BOOK PL A4 20PG0000002000+00001753+00000+0001T   00001753+0000001218          1400 HM1130               1AZ
119014004119014071-004202     119014006001023417176SCISSORS-SCHOOL PL/MTL 0000002000+00001139+00000+0001T   00001139+0000001218          1400 HM1130               1AZ
119014005119014079-000510     119014006001023509079CRAYONS WAX 12-COLOUR  0000001000+00002455+00000+0001T   00002455+0000001218          1400 HM1130               1AZ
119014006119014567-014133     119014006003000560103BOOK COLOURING 48 PAGE 0000002000+00001490+00000+0001T   00001490+0000001218          1400 HM1757               1AZ
119015000119015               119015               170213LF     1400+00000+LF0000020828+0000020828+000000000+000002920+0000023740+0000000008+I20000000000+0000023740+Z
119015001119015077-000299     119015006003000395576G/BAG 32x25cm LRG LOVE 0000001000+00001490+00000+0001T   00001490+0000001222          1400 HM1112               1AZ
119015002119015567-075466     119015009780263921502BK NOVEL ROMANCE       0000001000+00002630+00000+0001T   00002630+0000001222          1400 HM1757               1AZ
119015003119015112-116069     119015006009681820277TCS CARRIER BAG JUMBO  0000001000+00000048+00000+0001T   00000048+0000001222          1400 HM1090               1AZ
119015004119015567-010161     119015009780000008516BOOK TOP ASSTD MILLS   0000001000+00005262+00000+0001T   00005262+0000001222          1400 HM1757               1AZ
119015005119015567-075466     119015009780263921502BK NOVEL ROMANCE       0000001000+00002630+00000+0001T   00002630+0000001222          1400 HM1757               1AZ
119015006119015080-000133-A   119015006003000647019MINI VALENTINES CARD   0000001000+00000437+00000+0001T   00000437+0000001222          1400 HM1112               1AZ
119015007119015089-000220     119015006003000677368KEY CHAIN+PEN+KNIFE    0000001000+00003069+00000+0001T   00003069+0000001222          1400 HM1205               1AZ
119015008119015018-019000     119015006003000557288MUG OCC. LOVE JUMBO    0000001000+00005262+00000+0001T   00005262+0000001222          1400 HM1515               1AZ
119016000119016               119016               170213LF     1400+00000+LF0000001051+0000001051+000000000+000000148+0000001190+0000000009+I20000000000+0000001190+Z
119016001119016079-009702-G   119016008427973060787PAPER SIRIO A2 FUSHIA  0000001000+00001051+00000+0001T   00001051+0000001233          1400 HM1130               1AZ
119017000119017               119017               170213LF     1400+00000+LF0000001753+0000001753+000000000+000000246+0000001990+0000000009+I20000000000+0000001990+Z
119017001119017464-008112     119017006003000681129GAME SNAKES & LADDERS  0000001000+00001753+00000+0001T   00001753+0000001312          1400 HM1785               1AZ
119018000119018               119018               170213LF     1400+00000+LF0000001578+0000001578+000000000+000000221+0000001790+0000000009+I20000000000+0000001790+Z
119018001119018079-000289     119018006001023493217PAINT WTR COL CAKE 6COL0000001000+00001578+00000+0001T   00001578+0000001313          1400 HM1130               1AZ
119019000119019               119019               170213LF     1400+00000+LF0000000393+0000000393+000000000+000000056+0000000440+0000000009+I20000000000+0000000440+Z
119019001119019001-000001     119019006001023507266SHOT-GLASS 25ml        0000001000+00000393+00000+0001T   00000393+0000001426          1400 HM1515               1AZ
119020000119020               119020               170213LF     1400+00000+LF0000025432+0000025432+000000000+000003563+0000028990+0000000005+I20000000000+0000028990+Z
119020001119020002-250030     119020006003000268641K/SCALE DIGITAL 5kg    0000001000+00015788+00000+0001T   00015788+0000001441          1400 HM1300               1AZ
119020002119020002-000685     119020006001023693785K/TOOL P/MASHER H/HOUSE0000001000+00002192+00000+0001T   00002192+0000001441          1400 HM1300               1AZ
119020003119020002-000094     119020006001023489753PIZZA-CUTTER           0000001000+00002630+00000+0001T   00002630+0000001441          1400 HM1300               1AZ
119020004119020024-000067     119020006001023770097SPATULA-SET 3PCE WHITE 0000001000+00003069+00000+0001T   00003069+0000001441          1400 HM1300               1AZ
119020005119020046-002032-PK2 119020004897006175063BATTERIES CR-2032  2PCE0000001000+00001753+00000+0001T   00001753+0000001441          1400 HM1312               1AZ
119021000119021               119021               170213LF     1400+00000+LF0000014034+0000014034+000000000+000001965+0000015990+0000000009+I20000000000+0000015990+Z
119021001119021140-092001     119021006001023819154MOSQ-NET 900x230x60cm  0000001000+00014034+00000+0001T   00014034+0000001446          1400 HM1830               1AZ
119022000119022               119022               170213LF     1400+00000+LF0000008769+0000008769+000000000+000001229+0000009990+0000000008+I20000000000+0000009990+Z
119022001119022018-050000     119022006003000412679MUG OCC LOVE TWIN BEAR 0000001000+00006139+00000+0001T   00006139+0000001522          1400 HM1515               1AZ
119022002119022077-000270     119022006003000395453GIFT-BAG PPR JMB 33X45 0000001000+00002630+00000+0001T   00002630+0000001522          1400 HM1112               1AZ
119023000119023               119023               170213LF     1400+00000+LF0000008769+0000008769+000000000+000001229+0000009990+0000000008+I20000000000+0000009990+Z
119023001119023077-000270     119023006003000395453GIFT-BAG PPR JMB 33X45 0000001000+00002630+00000+0001T   00002630+0000001522          1400 HM1112               1AZ
119023002119023041-092600     119023006003000114733B/GIFT SET DAISY NAILS 0000001000+00006139+00000+0001T   00006139+0000001522          1400 HM1200               1AZ
119024000119024               119024               170213LF     1400+00000+LF0000007143+0000007143+000000000+000001004+0000008147+0000000000+I40000008147+0000000000+Z
119024001119024077-000011-D   119024006001023808554TISSUE-WRAP WHITE 10PCE0000001000+00000876+00000+0001T   00000876+0000001524          1400 HM1112               1AZ
119024002119024077-000010-C   119024006001023123879CREPE-PAPER RED        0000003000+00000788+00000+0001T   00000788+0000001524          1400 HM1112               1AZ
119024003119024077-000150-D   119024006003000054343GIFT-WRAP CELLPHANE CLR0000003000+00000876+00000+0001T   00000876+0000001524          1400 HM1112               1AZ
119024004119024077-000245     119024006001023759214GIFT-RIBBON METALLICx2 0000001000+00001227+00000+0001T   00001227+0000001524          1400 HM1112               1AZ
119024005119024112-116069     119024006009681820277TCS CARRIER BAG JUMBO  0000001000+00000048+00000+0001T   00000048+0000001524          1400 HM1090               1AZ
119025000119025               119025               170213LF     1400+00000+LF0000028068+0000028068+000000000+000003930+0000031990+0000000008+I20000000000+0000031990+Z
119025001119025031-001000     119025006003000253210P/FRAME CERTIFICATE    0000002000+00014034+00000+0001T   00014034+0000001525          1400 HM1510               1AZ
119026000119026               119026               170213LF     1400+00000+LF0000016528+0000016528+000000000+000002318+0000018846+0000000000+I40000018846+0000000000+Z
119026001119026112-116069     119026006009681820277TCS CARRIER BAG JUMBO  0000001000+00000048+00000+0001T   00000048+0000001532          1400 HM1090               1AZ
119026002119026083-000077     119026006003000092581LIGHTER LONG-REACH 18cm0000001000+00003507+00000+0001T   00003507+0000001532          1400 HM1315               1AZ
119026003119026903-000095     119026006001704011495SWT SPECKLED-EGGS 100G 0000001000+00002104+00000+0001T   00002104+0000001532          1400 HM1150               1AZ
119026004119026206-000620     119026006003000631797BACK SCRATCHER EXTEND  0000001000+00002630+00000+0001T   00002630+0000001532          1400 HM1321               1AZ
119026005119026079-000271     119026006003000160082PAINT-BRUSHES LRGE ART 0000001000+00003069+00000+0001T   00003069+0000001532          1400 HM1130               1AZ
119026006119026079-000275     119026006003000160488PAINT-BRUSHES 6PCE PRO 0000001000+00001753+00000+0001T   00001753+0000001532          1400 HM1130               1AZ
119026007119026079-006494     119026006003000159864GLITTER GLUE 5PCE 11cm 0000002000+00001490+00000+0001T   00001490+0000001532          1400 HM1130               1AZ
119026008119026080-000133-A   119026006003000647019MINI VALENTINES CARD   0000001000+00000437+00000+0001T   00000437+0000001532          1400 HM1112               1AZ
119027000119027               119027               170213LF     1400+00000+LF0000006136+0000006136+000000000+000000861+0000006990+0000000007+I20000000000+0000006990+Z
119027001119027012-000019     119027006003000421046M/WAVE STEAMER MINI H/H0000001000+00002630+00000+0001T   00003507+0008121533          1400 HM1300               1AZ
119027002119027077-000472     119027006003000330133G-BAG DESGNR LRG 25X32 0000001000+00001753+00000+0001T   00001753+0000001533          1400 HM1112               1AZ
119027003119027088-000084     119027006001023798060P/POURRI 120G ASSTD    0000001000+00001753+00000+0001T   00001753+0000001533          1400 HM1212               1AZ
119028000119028               119028               170213LF     1400+00000+LF0000046525+0000046525+000000000+000006516+0000053041+0000000000+I40000053041+0000000000+Z
119028001119028112-116069     119028006009681820277TCS CARRIER BAG JUMBO  0000001000+00000048+00000+0001T   00000048+0000001537          1400 HM1090               1AZ
119028002119028200-000067     119028006003000330683STRAWS DRINKING 100PC  0000002000+00002192+00000+0001T   00002192+0000001537          1400 HM1214               1AZ
119028003119028200-000106     119028006003000510290PICNIC CUPS PAPER 250ml0000005000+00003507+00000+0001T   00003507+0000001537          1400 HM1214               1AZ
119028004119028047-000514-H   119028006001023427502EXT-CORD 10m DBL-J  H&H0000002000+00012279+00000+0001T   00012279+0000001537          1400 HM1880               1AZ
119029000119029               119029               170213LF     1400+00000+LF0000000876+0000000876+000000000+000000123+0000000990+0000000009+I20000000000+0000000990+Z
119029001119029028-000797     119029006001023812124SKEWERS 15cm 100PCE    0000001000+00000876+00000+0001T   00000876+0000001539          1400 HM1305               1AZ
119030000119030               119030               170213LF     1400+00000+LF0000003554+0000003554+000000000+000000499+0000004050+0000000003+I20000000000+0000004050+Z
119030001119030088-000084     119030006001023798060P/POURRI 120G ASSTD    0000002000+00001753+00000+0001T   00001753+0000001540          1400 HM1212               1AZ
119030002119030112-116069     119030006009681820277TCS CARRIER BAG JUMBO  0000001000+00000048+00000+0001T   00000048+0000001540          1400 HM1090               1AZ
119031000119031               119031               170213LF     1400+00000+LF0000012977+0000012977+000000000+000001818+0000014790+0000000005+I20000000000+0000014790+Z
119031001119031077-000270     119031006003000395453GIFT-BAG PPR JMB 33X45 0000001000+00002630+00000+0001T   00002630+0000001542          1400 HM1112               1AZ
119031002119031007-000614     119031006001023768667DIARY W/LOCK+PEN LOVE  0000001000+00005262+00000+0001T   00005262+0000001542          1400 HM1130               1AZ
119031003119031018-005009     119031006001023725608MUG W/PLUSH-BEAR LOVE  0000001000+00003507+00000+0001T   00003507+0000001542          1400 HM1515               1AZ
119031004119031083-000054     119031006001023729071LIGHTER REFILLABLE LED 0000001000+00001578+00000+0001T   00001578+0000001542          1400 HM1315               1AZ
119032000119032               119032               170213LF     1400+00000+LF0000003506+0000003506+000000000+000000492+0000003990+0000000008+I20000000000+0000003990+Z
119032001119032077-000289     119032006001023901996GIFT BOX 20x25x11cm    0000001000+00001753+00000+0001T   00001753+0000001543          1400 HM1112               1AZ
119032002119032080-000103     119032006003000236961CARD&ENVLOPE BDAY-MALE 0000001000+00001753+00000+0001T   00001753+0000001543          1400 HM1112               1AZ
119033000119033               119033               170213LF     1400+00000+LF0000010554+0000010554+000000000+000001488+0000012040+0000000002+I20000000000+0000012040+Z
119033001119033001-000001     119033006001023507266SHOT-GLASS 25ml        0000010000+00000393+00000+0001T   00000393+0000001558          1400 HM1515               1AZ
119033002119033563-000318-L   119033006003000407088SERVIETTES 33cm RED    0000003000+00002192+00000+0001T   00002192+0000001558          1400 HM1214               1AZ
119033003119033112-116069     119033006009681820277TCS CARRIER BAG JUMBO  0000001000+00000048+00000+0001T   00000048+0000001558          1400 HM1090               1AZ
119034000119034               119034               170213LF     1400+00000+LF0000004382+0000004382+000000000+000000615+0000004990+0000000007+I20000000000+0000004990+Z
119034001119034077-000309     119034006001023608604GIFT-BAG 25X32CM GLOSS 0000001000+00001753+00000+0001T   00001753+0000001600          1400 HM1112               1AZ
119034002119034077-000302     119034008010410010195GIFT-BAG 18X23CM E/D   0000001000+00000876+00000+0001T   00000876+0000001600          1400 HM1112               1AZ
119034003119034077-000309     119034006001023608604GIFT-BAG 25X32CM GLOSS 0000001000+00001753+00000+0001T   00001753+0000001600          1400 HM1112               1AZ
119035000119035               119035               170213LF     1400+00000+LF0000003506+0000003506+000000000+000000492+0000003990+0000000008+I20000000000+0000003990+Z
119035001119035089-000030     119035006003000575671K/CHAIN LOVE MTL ASSTD 0000002000+00001753+00000+0001T   00001753+0000001608          1400 HM1205               1AZ
119036000119036               119036               170213LF     1400+00000+LF0000000876+0000000876+000000000+000000123+0000000990+0000000009+I20000000000+0000000990+Z
119036001119036077-000302     119036008010410010195GIFT-BAG 18X23CM E/D   0000001000+00000876+00000+0001T   00000876+0000001613          1400 HM1112               1AZ
119037000119037               119037               170213LF     1400+00000+LF0000003946+0000003946+000000000+000000553+0000004499+0000000000+I40000004499+0000000000+Z
119037001119037077-000376-A   119037006003000669059GIFT-BAG 2-PACK JMB    0000001000+00003946+00000+0001T   00003946+0000001616          1400 HM1112               1AZ
119038000119038               119038               170213LF     1400+00000+LF0000004645+0000004645+000000000+000000651+0000005290+0000000006+I20000000000+0000005290+Z
119038001119038077-000303     119038006001023593757GIFT-BAG PAPER MED     0000001000+00001578+00000+0001T   00001578+0000001618          1400 HM1112               1AZ
119038002119038077-000310     119038006001023608635GIFT-BAG 18X23CM GLOSS 0000001000+00001314+00000+0001T   00001314+0000001618          1400 HM1112               1AZ
119038003119038077-000351     119038006003000139033GIFT-BAG 18X23CM E/D P 0000001000+00001753+00000+0001T   00001753+0000001618          1400 HM1112               1AZ
119039000119039               119039               170213LF     1400+00000+LF0000000613+0000000613+000000000+000000086+0000000690+0000000009+I20000000000+0000000690+Z
119039001119039077-000321     119039006001023677501GIFT-BAG 11X14CM E/D FL0000001000+00000613+00000+0001T   00000613+0000001619          1400 HM1112               1AZ
119040000119040               119040               170213LF     1400+00000+LF0000001753+0000001753+000000000+000000246+0000001990+0000000009+I20000000000+0000001990+Z
119040001119040077-000299-A   119040006003000670888GIFT-BAG PAPER JMB LOVE0000001000+00001753+00000+0001T   00001753+0000001620          1400 HM1112               1AZ
119041000119041               119041               170213LF     1400+00000+LF0000001753+0000001753+000000000+000000246+0000001999+0000000000+I40000001999+0000000000+Z
119041001119041016-006509     119041006003000567355S/JAR GLS MINI LABEL   0000001000+00001753+00000+0001T   00002192+0008191623          1400 HM1300               1AZ
119042000119042               119042               170213LF     1400+00000+LF0000010518+0000010518+000000000+000001475+0000011990+0000000003+I20000000000+0000011990+Z
119042001119042903-000151     119042006009803374411SWT SML RND R/BOW LOLLY0000001000+00000525+00000+0001T   00000525+0000001625          1400 HM1150               1AZ
119042002119042077-000311     119042006001023608666GIFT-BAG 11X14CM GLOSS 0000001000+00000613+00000+0001T   00000613+0000001625          1400 HM1112               1AZ
119042003119042903-002890     119042008935001721352MENTOS GUM PURE F/MINT 0000001000+00001051+00000+0001T   00001051+0000001625          1400 HM1150               1AZ
119042004119042072-020308     119042006001023700971DOG-TOY FOOTBALL 11,5cm0000001000+00001753+00000+0001T   00001753+0000001625          1400 HM1870               1AZ
119042005119042565-000080     119042006003000643424NOVELTY BENDY          0000003000+00002192+00000+0001T   00002192+0000001625          1400 HM1745               1AZ
119043000119043               119043               170213LF     1400+00000+LF0000013157+0000013157+000000000+000001842+0000014990+0000000009+I20000000000+0000014990+Z
119043001119043497-068615     119043000078257686155H/PUMP HIGH-O/PUT 48cm 0000001000+00013157+00000+0001T   00013157+0000001625          1400 HM1787               1AZ
119044000119044               119044               170213LF     1400+00000+LF0000007189+0000007189+000000000+000001008+0000008190+0000000007+I20000000000+0000008190+Z
119044001119044007-010495     119044006003000533510BOARD DRY WIPE & PEN   0000001000+00002630+00000+0001T   00002630+0000001626          1400 HM1130               1AZ
119044002119044034-078833     119044006001023857491SIGN BABY-ON-BOARD     0000001000+00001490+00000+0001T   00001490+0000001626          1400 HM1215               1AZ
119044003119044467-000009     119044006001023682017BEACH-SET 6PCE         0000001000+00003069+00000+0001T   00003069+0000001626          1400 HM1785               1AZ
119045000119045               119045               170213LF     1400+00000+LF0000040378+0000040378+000000000+000005660+0000046030+0000000008+I20000000000+0000046030+Z
119045001119045007-010504     119045006002923014960BLACKBOARD EASEL       0000001000+00007893+00000+0001T   00007893+0000001629          1400 HM1130               1AZ
119045002119045466-000606     119045006001023752178BALL SOC 3-PLY PANEL   0000001000+00012279+00000+0001T   00012279+0000001629          1400 HM1785               1AZ
119045003119045071-000012     119045006001177101006CHALK COLOUR 12PCE     0000001000+00000481+00000+0001T   00000481+0000001629          1400 HM1130               1AZ
119045004119045071-000013     119045006003000535354BOARD DUSTER           0000001000+00002630+00000+0001T   00002630+0000001629          1400 HM1130               1AZ
119045005119045071-004200     119045006001023835901SAFETY SCISSOR         0000001000+00001753+00000+0001T   00001753+0000001629          1400 HM1130               1AZ
119045006119045079-000282     119045006001023493309PAINT TUBS POSTER 12COL0000001000+00002630+00000+0001T   00002630+0000001629          1400 HM1130               1AZ
119045007119045079-000275     119045006003000160488PAINT-BRUSHES 6PCE PRO 0000001000+00001753+00000+0001T   00001753+0000001629          1400 HM1130               1AZ
119045008119045071-000212     119045006009608641190CHALK WHITE 12PCE      0000001000+00000437+00000+0001T   00000437+0000001629          1400 HM1130               1AZ
119045009119045104-000035     119045006003000614752BASKET PL 29x10x31cm   0000001000+00003069+00000+0001T   00003069+0000001629          1400 HM1210               1AZ
119045010119045466-000200     119045006001023621665HULA-HOOP     ASSTD    0000001000+00001753+00000+0001T   00001753+0000001629          1400 HM1785               1AZ
119045011119045075-000412     119045006001023855299SHOPPER-BASKET PL      0000001000+00005700+00000+0001T   00005700+0000001629          1400 HM1160               1AZ
119046000119046               119046               170213LF     1400+00000+LF0000011009+0000011009+000000000+000001543+0000012550+0000000002+I20000000000+0000012550+Z
119046001119046567-075466     119046009780263920680BK NOVEL ROMANCE       0000001000+00002630+00000+0001T   00002630+0000001633          1400 HM1757               1AZ
119046002119046077-000309-A   119046006003000671007GIFT-BAG HOLOGRAM JMB  0000001000+00002192+00000+0001T   00002192+0000001633          1400 HM1112               1AZ
119046003119046018-050000     119046006003000412679MUG OCC LOVE TWIN BEAR 0000001000+00006139+00000+0001T   00006139+0000001633          1400 HM1515               1AZ
119046004119046112-116069     119046006009681820277TCS CARRIER BAG JUMBO  0000001000+00000048+00000+0001T   00000048+0000001633          1400 HM1090               1AZ
119047000119047               119047               170213LF     1400+00000+LF0000002980+0000002980+000000000+000000418+0000003390+0000000008+I20000000000+0000003390+Z
119047001119047080-000113     119047006003000237449CARD&ENVLPE - LOVE     0000001000+00001753+00000+0001T   00001753+0000001633          1400 HM1112               1AZ
119047002119047077-000602     119047006003000395545GIFT-BAG MED 18X23CM   0000001000+00001227+00000+0001T   00001227+0000001633          1400 HM1112               1AZ
119048000119048               119048               170213LF     1400+00000+LF0000012326+0000012326+000000000+000001727+0000014050+0000000003+I20000000000+0000014050+Z
119048001119048077-000270     119048006003000395453GIFT-BAG PPR JMB 33X45 0000001000+00002630+00000+0001T   00002630+0000001635          1400 HM1112               1AZ
119048002119048009-002000     119048006003000593903MELAMINE DINNER SET    0000001000+00009648+00000+0001T   00014911+0008151635          1400 HM1210               1AZ
119048003119048112-116069     119048006009681820277TCS CARRIER BAG JUMBO  0000001000+00000048+00000+0001T   00000048+0000001635          1400 HM1090               1AZ
119049000119049               119049               170213LF     1400+00000+LF0000001227+0000001227+000000000+000000172+0000001390+0000000009+I20000000000+0000001390+Z
119049001119049077-000322     119049006001023677532GIFT-BAG 18X23CM E/D FL0000001000+00001227+00000+0001T   00001227+0000001636          1400 HM1112               1AZ
119050000119050               119050               170213LF     1400+00000+LF0000011402+0000011402+000000000+000001597+0000012990+0000000009+I20000000000+0000012990+Z
119050001119050586-010753     119050006001492107530WATCH LDS MTL ASSTD    0000001000+00011402+00000+0001T   00011402+0000001639          1400 HM1160               1AZ
119051000119051               119051               170213LF     1400+00000+LF0000026314+0000026314+000000000+000003684+0000029990+0000000008+I20000000000+0000029990+Z
119051001119051040-001008     119051006003000323227C/HLDR-SET MTL B/CAGE  0000002000+00013157+00000+0001T   00016665+0008171642          1400 HM1510               1AZ
119052000119052               119052               170213LF     1400+00000+LF0000012322+0000012322+000000000+000001727+0000014040+0000000009+I20000000000+0000014040+Z
119052001119052071-000873     119052006001023758743RUB-BANDS CLR BAG-100  0000001000+00001490+00000+0001T   00001490+0000001648          1400 HM1130               1AZ
119052002119052071-003879     119052006936198404198PENCIL HB BLU/WHITE 12s0000001000+00001753+00000+0001T   00002630+0008151648          1400 HM1130               1AZ
119052003119052007-000128     119052006009635830475BOOK H/COVER A5 96-PAGE0000001000+00000700+00000+0001T   00000700+0000001648          1400 HM1130               1AZ
119052004119052106-001120     119052006922286920282W/BOTTLE ALUM 750ml    0000001000+00005262+00000+0001T   00005262+0000001648          1400 HM1210               1AZ
119052005119052105-001028     119052006003000675470LUNCH BOX W/CLIPS      0000001000+00003069+00000+0001T   00003069+0000001648          1400 HM1210               1AZ
119052006119052112-116069     119052006009681820277TCS CARRIER BAG JUMBO  0000001000+00000048+00000+0001T   00000048+0000001648          1400 HM1090               1AZ
119053000119053               119053               170213LF     1400+00000+LF0000004821+0000004821+000000000+000000675+0000005490+0000000006+I20000000000+0000005490+Z
119053001119053077-000470     119053006003000330171G-BAG DESGN SML 11X14CM0000001000+00001314+00000+0001T   00001314+0000001700          1400 HM1112               1AZ
119053002119053162-092935     119053006001492929354#TAG KIDS 3PK SET      0000001000+00003507+00000+0001T   00003507+0000001700          1400 HM1160               1AZ
119054000119054               119054               170213LF     1400+00000+LF0000031135+0000031135+000000000+000004361+0000035490+0000000006+I20000000000+0000035490+Z
119054001119054046-000012-A   119054006003000208296BATTERIES H/POWER SZ:AA0000001000+00002192+00000+0001T   00002192+0000001703          1400 HM1312               1AZ
119054002119054265-001656     119054006001023867384RADIO CONTROL 4X4 CAR  0000001000+00023683+00000+0001T   00023683+0000001703          1400 HM1710               1AZ
119054003119054071-030014     119054006003000284085PEN NVLTY METALLIC 6PC 0000001000+00002630+00000+0001T   00002630+0000001703          1400 HM1130               1AZ
119054004119054071-003009     119054006001024011373PEN CLICK BALL+SFT GRIP0000001000+00002630+00000+0001T   00002630+0000001703          1400 HM1130               1AZ
119055000119055               119055               170213LF     1400+00000+LF0000002630+0000002630+000000000+000000369+0000002990+0000000009+I20000000000+0000002990+Z
119055001119055567-011495     119055000076645122025BK ACTIVITY 96P BIBLE  0000001000+00002630+00000+0001T   00002630+0000001705          1400 HM1757               1AZ
119056000119056               119056               170213LF     1400+00000+LF0000000876+0000000876+000000000+000000123+0000000990+0000000009+I20000000000+0000000990+Z
119056001119056007-000127     119056006009685853431BOOK H/COVER MEMO 144PG0000001000+00000876+00000+0001T   00000876+0000001706          1400 HM1130               1AZ
119057000119057               119057               170213LF     1400+00000+LF0000000700+0000000700+000000000+000000098+0000000790+0000000008+I20000000000+0000000790+Z
119057001119057903-000121     119057006002099001689SWT GS ZILLIONS SOURS  0000001000+00000700+00000+0001T   00000700+0000001707          1400 HM1150               1AZ
119058000119058               119058               170213LF     1400+00000+LF0000013153+0000013153+000000000+000001842+0000014990+0000000005+I20000000000+0000014990+Z
119058001119058018-050000     119058006003000412679MUG OCC LOVE TWIN BEAR 0000001000+00006139+00000+0001T   00006139+0000001711          1400 HM1515               1AZ
119058002119058018-005009     119058006001023725608MUG W/PLUSH-BEAR LOVE  0000001000+00003507+00000+0001T   00003507+0000001711          1400 HM1515               1AZ
119058003119058018-000130     119058006001023867537MUG OCC LOVE MINI+HEART0000001000+00003507+00000+0001T   00003507+0000001711          1400 HM1515               1AZ
119059000119059               119059               170213LF     1400+00000+LF0000002630+0000002630+000000000+000000369+0000002990+0000000009+I20000000000+0000002990+Z
119059001119059304-001486     119059006003000035335FLWR BUNCH ROSE        0000001000+00002630+00000+0001T   00002630+0000001718          1400 HM1510               1AZ
119060000119060               119060               170213LF     1400+00000+LF0000001578+0000001578+000000000+000000221+0000001790+0000000009+I20000000000+0000001790+Z
119060001119060077-000303     119060006001023593757GIFT-BAG PAPER MED     0000001000+00001578+00000+0001T   00001578+0000001718          1400 HM1112               1AZ
119061000119061               119061               170213LF     1400+00000+LF0000000876+0000000876+000000000+000000123+0000000990+0000000009+I20000000000+0000000990+Z
119061001119061903-000482     119061006001704001397SWT SOFT-MINTS 60G     0000001000+00000876+00000+0001T   00000876+0000001719          1400 HM1150               1AZ
119062000119062               119062               170213LF     1400+00000+LF0000001753+0000001753+000000000+000000246+0000001990+0000000009+I20000000000+0000001990+Z
119062001119062077-000290     119062006001023902023GIFT BOX 26x32x13cm    0000001000+00001753+00000+0001T   00001753+0000001720          1400 HM1112               1AZ
119063000119063               119063               170213LF     1400+00000+LF0000001753+0000001753+000000000+000000246+0000001990+0000000009+I20000000000+0000001990+Z
119063001119063903-000911     119063006009802868454SWT ST GUM TAPE BARBIE 0000001000+00001753+00000+0001T   00001753+0000001720          1400 HM1150               1AZ
119064000119064               119064               170213LF     1400+00000+LF0000001753+0000001753+000000000+000000246+0000001990+0000000009+I20000000000+0000001990+Z
119064001119064077-000290     119064006001023902023GIFT BOX 26x32x13cm    0000001000+00001753+00000+0001T   00001753+0000001721          1400 HM1112               1AZ
119065000119065               119065               170213LF     1400+00000+LF0000001753-0000001753-000000000+000000246-0000002000-0000000001+I20000000000+0000002000-Z
119065001119065903-000911     119065006009802868454SWT ST GUM TAPE BARBIE 0000001000-00001753+00000+0001T   00001753+0000001732          1400 HM11501IC            1 Z
A17021300                                          19311203LFSLAVE 1                       HM11IC
M17021391                              CASH        LFSLAVE 1                       Z-REPORT No.   551TOTAL (Sales - Refunds)           6951.73       CASH TO BE BANKED                 5156.60       DEBIT CARDS                          0.00       CREDIT CARDS                      1795.13       Z-READING                         6951.73       AIRTIME DEBIT CARD SALES             0.00       AIRTIME CARD SALES                   0.00       OVERS/UNDERS                         0.00       AIRTIME CASH SALES                   0.00       GIFT CARDS                           0.00       GIFT CARD CASH SALES                 0.00       T O T A L  CASH PAYOUTS              0.00                                                                                                                                                                                                                                                                                                                                                      Z
M17021392                              CASH        LFABSENT                                                                                                                                                                                          ANNUAL LEAVE                                                                                                                                                                                    DAY OFF                                                                                                                                                                                         COMMENTS                                                                                                                                                                                                                                                                                                                                                                                       Z
Y17021300                                          LF00000000611877+000073
ZLF17021321113 SLAVE 1      SALES DATA                     NEXT INVOICE NO.  119066 0551
X LF Slave 1 First invoice 118991 170213 Last invoice 119065 170213 Next invoice 119066 Total number of records 000000274 clbackup completed 21:11:33
