207372000207372               207372               170213LG     1400+00000+LG0000008464+0000008464+000000000+000001187+0000009651+0000000000+I40000009651+0000000000+Z
207372001207372077-000299     207372006003000395576G/BAG 32x25cm LRG LOVE 0000001000+00001490+00000+0001T   00001490+0000000917          1400 KL4112               2BZ
207372002207372030-000031-A   207372006003000457588PLAQUE W/WORDS ASSTD   0000001000+00004385+00000+0001T   00004823+0006470917          1400 KL4505               2BZ
207372003207372903-000095     207372006001704011495SWT SPECKLED-EGGS 100G 0000001000+00002104+00000+0001T   00002104+0000000917          1400 KL4150               2BZ
207372004207372080-000133-A   207372006003000647019MINI VALENTINES CARD   0000001000+00000437+00000+0001T   00000437+0000000917          1400 KL4112               2BZ
207372005207372112-116069     207372006009681820277TCS CARRIER BAG JUMBO  0000001000+00000048+00000+0001T   00000048+0000000917          1400 KL4090               2BZ
207373000207373               207373               170213LG     1400+00000+LG0000001313+0000001313+000000000+000000185+0000001490+0000000008+I20000000000+0000001490+Z
207373001207373077-000151     207373006008766114676GIFT-WRAP C/PHANE ASSTD0000001000+00000876+00000+0001T   00000876+0000000918          1400 KL4112               2BZ
207373002207373080-000133-A   207373006003000647019MINI VALENTINES CARD   0000001000+00000437+00000+0001T   00000437+0000000918          1400 KL4112               2BZ
207374000207374               207374               170213LG     1400+00000+LG0000007891+0000007891+000000000+000001106+0000008990+0000000007+I20000000000+0000008990+Z
207374001207374007-000043     207374006009635831496DISPLAY-BOOK PL A4 20PG0000001000+00001753+00000+0001T   00001753+0000000959          1400 KL4130               2BZ
207374002207374007-000046     207374006009635831366DISPLAY-BOOK PL A4 30PG0000001000+00002192+00000+0001T   00002192+0000000959          1400 KL4130               2BZ
207374003207374007-000047     207374006009635833698FILE DISPLAY-BK A4 50PG0000001000+00003946+00000+0001T   00003946+0000000959          1400 KL4130               2BZ
207375000207375               207375               170213LG     1400+00000+LG0000005144+0000005144+000000000+000000733+0000005870+0000000007+I20000000000+0000005870+Z
207375001207375001-000001     207375006001023507266SHOT-GLASS 25ml        0000013000+00000393+00000+0001T   00000393+0000001015          1400 KL4515               2BZ
207375002207375112-116038     207375006009681820246TCS CARRIER BAG MIDI   0000001000+00000035+00000+0001T   00000035+0000001015          1400 KL4090               2BZ
207376000207376               207376               170213LG     1400+00000+LG0000001490+0000001490+000000000+000000209+0000001690+0000000009+I20000000000+0000001690+Z
207376001207376077-000327     207376006001023677686GIFT-BAG 25X32CM E/D BA0000001000+00001490+00000+0001T   00001490+0000001021          1400 KL4112               2BZ
207377000207377               207377               170213LG     1400+00000+LG0000002630+0000002630+000000000+000000369+0000002990+0000000009+I20000000000+0000002990+Z
207377001207377027-008813     207377006001023552334DUSTER RETRCTABLE 122cm0000001000+00002630+00000+0001T   00002630+0000001021          1400 KL4212               2BZ
207378000207378               207378               170213LG     1400+00000+LG0000013727+0000013727+000000000+000001923+0000015650+0000000000+I20000000000+0000015650+Z
207378001207378112-116069     207378006009681820277TCS CARRIER BAG JUMBO  0000001000+00000048+00000+0001T   00000048+0000001023          1400 KL4090               2BZ
207378002207378001-000175     207378006001023788108B/MUG GLS LOVE 380ML   0000001000+00004385+00000+0001T   00004385+0000001023          1400 KL4515               2BZ
207378003207378030-000030-A   207378006003000249305PLAQUE GLASS LOVE      0000002000+00003069+00000+0001T   00003069+0000001023          1400 KL4505               2BZ
207378004207378077-000303     207378006001023593757GIFT-BAG PAPER MED     0000002000+00001578+00000+0001T   00001578+0000001023          1400 KL4112               2BZ
207379000207379               207379               170213LG     1400+00000+LG0000003507+0000003507+000000000+000000491+0000003990+0000000008+I20000000000+0000003990+Z
207379001207379203-007000     207379006001023886040SHOT-GLASS DISPOSABLE  0000001000+00003507+00000+0001T   00003507+0000001056          1400 KL4300               2BZ
207380000207380               207380               170213LG     1400+00000+LG0000007892+0000007892+000000000+000001106+0000008998+0000000000+I40000008998+0000000000+Z
207380001207380077-000299-A   207380006003000670888GIFT-BAG PAPER JMB LOVE0000001000+00001753+00000+0001T   00001753+0000001104          1400 KL4112               2BZ
207380002207380018-005007     207380006003000515516MUG OCC. LOVE W/HEARTS 0000001000+00006139+00000+0001T   00006139+0000001104          1400 KL4515               2BZ
207381000207381               207381               170213LG     1400+00000+LG0000010569+0000010569+000000000+000001480+0000012040+0000000009+I20000000000+0000012040+Z
207381001207381019-000104     207381006003000658176VASE GLASSBUD 16CM     0000003000+00003507+00000+0001T   00003507+0000001129          1400 KL4510               2BZ
207381002207381112-116069     207381006009681820277TCS CARRIER BAG JUMBO  0000001000+00000048+00000+0001T   00000048+0000001129          1400 KL4090               2BZ
207382000207382               207382               170213LG     1400+00000+LG0000004385+0000004385+000000000+000000614+0000004990+0000000009+I20000000000+0000004990+Z
207382001207382082-000120     207382006003000360727READING GLS STRENGTH:3 0000001000+00004385+00000+0001T   00004385+0000001131          1400 KL4160               2BZ
207383000207383               207383               170213LG     1400+00000+LG0000007134+0000007134+000000000+000001001+0000008130+0000000005+I20000000000+0000008130+Z
207383001207383903-000087     207383006001704000161SWT SPECKLED-EGGS 50G  0000002000+00001139+00000+0001T   00001139+0000001211          1400 KL4150               2BZ
207383002207383903-000503     207383006001704006118SWT VAMPIRE FANGS 60G  0000002000+00000876+00000+0001T   00000876+0000001211          1400 KL4150               2BZ
207383003207383031-000864-A   207383006001023798350P/FRAME MAHOGANY 10X15 0000001000+00003069+00000+0001T   00003069+0000001211          1400 KL4510               2BZ
207383004207383112-116038     207383006009681820246TCS CARRIER BAG MIDI   0000001000+00000035+00000+0001T   00000035+0000001211          1400 KL4090               2BZ
207384000207384               207384               170213LG     1400+00000+LG0000003067+0000003067+000000000+000000430+0000003490+0000000007+I20000000000+0000003490+Z
207384001207384566-000460     207384000721129024011STICKERS RUB-ON TRANSFR0000001000+00001314+00000+0001T   00001753+0008151214          1400 KL4130               2BZ
207384002207384566-000865     207384006001023788412STICKER ASSTD          0000001000+00001753+00000+0001T   00001753+0000001214          1400 KL4130               2BZ
207385000207385               207385               170213LG     1400+00000+LG0000002805+0000002805+000000000+000000393+0000003190+0000000008+I20000000000+0000003190+Z
207385001207385077-000245     207385006001023759214GIFT-RIBBON METALLICx2 0000001000+00001227+00000+0001T   00001227+0000001219          1400 KL4112               2BZ
207385002207385566-001234     207385006003000217793STICKERS LASER ASSTD   0000001000+00001578+00000+0001T   00001578+0000001219          1400 KL4130               2BZ
207386000207386               207386               170213LG     1400+00000+LG0000005083+0000005083+000000000+000000713+0000005790+0000000006+I20000000000+0000005790+Z
207386001207386903-000138     207386006002099004314SWT GS WINE GUMS 60G   0000002000+00000788+00000+0001T   00000788+0000001228          1400 KL4150               2BZ
207386002207386495-059703     207386000078257597031LOUNGER AIR-MAT ECONO  0000001000+00003507+00000+0001T   00003507+0000001228          1400 KL4787               2BZ
207387000207387               207387               170213LG     1400+00000+LG0000004385+0000004385+000000000+000000614+0000004990+0000000009+I20000000000+0000004990+Z
207387001207387369-001032     207387006001023796158BABY RATTLE SET 6PCE   0000001000+00004385+00000+0001T   00004385+0000001229          1400 KL4745               2BZ
207388000207388               207388               170213LG     1400+00000+LG0000001839+0000001839+000000000+000000258+0000002090+0000000007+I20000000000+0000002090+Z
207388001207388080-000114     207388006003000246472CARD&ENV LOVE-MUSICAL  0000001000+00001314+00000+0001T   00001753+0008151240          1400 KL4112               2BZ
207388002207388903-000155     207388006009803374435SWT LOLLY I LUV U HEART0000001000+00000525+00000+0001T   00000525+0000001240          1400 KL4150               2BZ
207389000207389               207389               170213LG     1400+00000+LG0000000876+0000000876+000000000+000000123+0000000990+0000000009+I20000000000+0000000990+Z
207389001207389306-000021-A   207389006001023891358EARBUDS COTTON 100PCE  0000001000+00000876+00000+0001T   00000876+0000001248          1400 KL4200               2BZ
207390000207390               207390               170213LG     1400+00000+LG0000010963+0000010963+000000000+000001535+0000012490+0000000008+I20000000000+0000012490+Z
207390001207390031-000924     207390006001023669964P/FRAME COLLAGE PL     0000001000+00008771+00000+0001T   00008771+0000001253          1400 KL4510               2BZ
207390002207390077-000309-A   207390006003000671007GIFT-BAG HOLOGRAM JMB  0000001000+00002192+00000+0001T   00002192+0000001253          1400 KL4112               2BZ
207391000207391               207391               170213LG     1400+00000+LG0000000876+0000000876+000000000+000000123+0000000990+0000000009+I20000000000+0000000990+Z
207391001207391033-005921-B   207391006001023678348SEWING-THREAD 200m BLK 0000001000+00000876+00000+0001T   00000876+0000001254          1400 KL4200               2BZ
207392000207392               207392               170213LG     1400+00000+LG0000000788+0000000788+000000000+000000111+0000000890+0000000009+I20000000000+0000000890+Z
207392001207392903-000200     207392006009826020234SWT CHOC RP CHOCO 23G  0000001000+00000788+00000+0001T   00000788+0000001255          1400 KL4150               2BZ
207393000207393               207393               170213LG     1400+00000+LG0000010382+0000010382+000000000+000001455+0000011837+0000000000+I40000011837+0000000000+Z
207393001207393041-093000     207393006003000320882B/GIFT SET 4PC B/RANGE 0000001000+00007016+00000+0001T   00007016+0000001425          1400 KL4200               2BZ
207393002207393080-000113     207393006003000237449CARD&ENVLPE - LOVE     0000001000+00001753+00000+0001T   00001753+0000001425          1400 KL4112               2BZ
207393003207393077-000303     207393006001023593757GIFT-BAG PAPER MED     0000001000+00001578+00000+0001T   00001578+0000001425          1400 KL4112               2BZ
207393004207393112-116038     207393006009681820246TCS CARRIER BAG MIDI   0000001000+00000035+00000+0001T   00000035+0000001425          1400 KL4090               2BZ
207394000207394               207394               170213LG     1400+00000+LG0000008626+0000008626+000000000+000001208+0000009830+0000000004+I20000000000+0000009830+Z
207394001207394206-000150     207394006003000628667SLICER CUCUMBER        0000002000+00002192+00000+0001T   00002192+0000001429          1400 KL4321               2BZ
207394002207394018-000177     207394006001023797513MUG MINI LOVE ASSTD    0000001000+00000700+00000+0001T   00000700+0000001429          1400 KL4515               2BZ
207394003207394036-000020     207394006001023666512LINT-REMOVER B/O SMALL 0000001000+00003507+00000+0001T   00003507+0000001429          1400 KL4212               2BZ
207394004207394112-116038     207394006009681820246TCS CARRIER BAG MIDI   0000001000+00000035+00000+0001T   00000035+0000001429          1400 KL4090               2BZ
207395000207395               207395               170213LG     1400+00000+LG0000001576+0000001576+000000000+000000222+0000001790+0000000008+I20000000000+0000001790+Z
207395001207395903-000896     207395006009680772270SWT BITZ BL/CURRANT 50G0000002000+00000788+00000+0001T   00000788+0000001430          1400 KL4150               2BZ
207396000207396               207396               170213LG     1400+00000+LG0000003101+0000003101+000000000+000000435+0000003530+0000000006+I20000000000+0000003530+Z
207396001207396304-001011     207396006001023806727FLWR ROSE RED W/BEAR   0000001000+00000613+00000+0001T   00000788+0006471433          1400 KL4510               2BZ
207396002207396080-000116     207396006003000253555CARD&ENVELOPE-HANDMADE 0000001000+00001753+00000+0001T   00001753+0000001433          1400 KL4112               2BZ
207396003207396018-000177     207396006001023797513MUG MINI LOVE ASSTD    0000001000+00000700+00000+0001T   00000700+0000001433          1400 KL4515               2BZ
207396004207396112-116038     207396006009681820246TCS CARRIER BAG MIDI   0000001000+00000035+00000+0001T   00000035+0000001433          1400 KL4090               2BZ
207397000207397               207397               170213LG     1400+00000+LG0000001314+0000001314+000000000+000000184+0000001490+0000000008+I20000000000+0000001490+Z
207397001207397018-000119     207397006003000336074MUG DAILY STRAIGHT     0000001000+00001314+00000+0001T   00001753+0008171437          1400 KL4515               2BZ
207398000207398               207398               170213LG     1400+00000+LG0000002630+0000002630+000000000+000000369+0000002990+0000000009+I20000000000+0000002990+Z
207398001207398206-000620     207398006003000631797BACK SCRATCHER EXTEND  0000001000+00002630+00000+0001T   00002630+0000001521          1400 KL4321               2BZ
207399000207399               207399               170213LG     1400+00000+LG0000004385+0000004385+000000000+000000614+0000004990+0000000009+I20000000000+0000004990+Z
207399001207399261-004007     207399006001023707512GUNS DOUBLE WILD-WEST  0000001000+00004385+00000+0001T   00004385+0000001522          1400 KL4710               2BZ
207400000207400               207400               170213LG     1400+00000+LG0000002980+0000002980+000000000+000000418+0000003390+0000000008+I20000000000+0000003390+Z
207400001207400071-001015     207400006001023910387MARKERS PERMANENT 3PK  0000001000+00001753+00000+0001T   00001753+0000001534          1400 KL4130               2BZ
207400002207400071-081091     207400006001151010287STAED/GENKEM ALL-STICK 0000001000+00001227+00000+0001T   00001227+0000001534          1400 KL4130               2BZ
207401000207401               207401               170213LG     1400+00000+LG0000013371+0000013371+000000000+000001874+0000015240+0000000005+I20000000000+0000015240+Z
207401001207401112-116069     207401006009681820277TCS CARRIER BAG JUMBO  0000001000+00000048+00000+0001T   00000048+0000001538          1400 KL4090               2BZ
207401002207401366-000301     207401006003000421077DRESSUP TIARA & EARRING0000001000+00003507+00000+0001T   00003507+0000001538          1400 KL4131               2BZ
207401003207401366-000256     207401006001023918406DRESS UP TIARA&EARRINGS0000002000+00003069+00000+0001T   00003069+0000001538          1400 KL4131               2BZ
207401004207401304-001011     207401006001023806727FLWR ROSE RED W/BEAR   0000006000+00000613+00000+0001T   00000788+0006471538          1400 KL4510               2BZ
207402000207402               207402               170213LG     1400+00000+LG0000010521+0000010521+000000000+000001473+0000000000+0000000000+ 00000000000+0000000000+Z
207402001207402362-019282     207402006003000258079H/ACCESS 16PC BEAD HNDL0000003000+00003507+00000+0001T   00003507+000000              1400 KL41601IC            2 Z
207403000207403               207403               170213LG     1400+00000+LG0000001402+0000001402+000000000+000000197+0000001590+0000000009+I20000000000+0000001590+Z
207403001207403304-001204     207403006001023737984FLOWER OCC. TEDDY/ROSES0000001000+00001402+00000+0001T   00001490+0006471554          1400 KL4510               2BZ
207404000207404               207404               170213LG     1400+00000+LG0000016310+0000016310+000000000+000002285+0000018590+0000000005+I20000000000+0000018590+Z
207404001207404041-007029     207404006003000178049H/GLO BUBBLE-BATH 2L   0000001000+00006139+00000+0001T   00006139+0000001556          1400 KL4200               2BZ
207404002207404018-050000     207404006003000412679MUG OCC LOVE TWIN BEAR 0000001000+00006139+00000+0001T   00006139+0000001556          1400 KL4515               2BZ
207404003207404077-000465     207404006003000681570GIFT-BAG MTLC GLIT LRG 0000001000+00003507+00000+0001T   00003507+0000001556          1400 KL4112               2BZ
207404004207404903-000155     207404006009803374435SWT LOLLY I LUV U HEART0000001000+00000525+00000+0001T   00000525+0000001556          1400 KL4150               2BZ
207405000207405               207405               170213LG     1400+00000+LG0000003507+0000003507+000000000+000000491+0000003990+0000000008+I20000000000+0000003990+Z
207405001207405362-019282     207405006003000258079H/ACCESS 16PC BEAD HNDL0000001000+00003507+00000+0001T   00003507+0000001611          1400 KL4160               2BZ
207406000207406               207406               170213LG     1400+00000+LG0000002192+0000002192+000000000+000000307+0000002490+0000000009+I20000000000+0000002490+Z
207406001207406080-000127     207406006003000424351VALENTINES DAY 36x24CM 0000001000+00002192+00000+0001T   00002192+0000001612          1400 KL4112               2BZ
207407000207407               207407               170213LG     1400+00000+LG0000000048+0000000048+000000000+000000007+0000000050+0000000005+I20000000000+0000000050+Z
207407001207407112-116069     207407006009681820277TCS CARRIER BAG JUMBO  0000001000+00000048+00000+0001T   00000048+0000001614          1400 KL4090               2BZ
207408000207408               207408               170213LG     1400+00000+LG0000004206+0000004206+000000000+000000591+0000004790+0000000007+I20000000000+0000004790+Z
207408001207408077-000115-B   207408006003000181025GIFT-WRAP PPR 700MMX2M 0000001000+00002630+00000+0001T   00002630+0000001642          1400 KL4112               2BZ
207408002207408903-000200     207408006009826020234SWT CHOC RP CHOCO 23G  0000002000+00000788+00000+0001T   00000788+0000001642          1400 KL4150               2BZ
207409000207409               207409               170213LG     1400+00000+LG0000006135+0000006135+000000000+000000860+0000006990+0000000005+I20000000000+0000006990+Z
207409001207409077-000321     207409006001023677501GIFT-BAG 11X14CM E/D FL0000001000+00000613+00000+0001T   00000613+0000001700          1400 KL4112               2BZ
207409002207409024-091103     207409006003453014307BAKING-CUP MUFFIN 50PCE0000001000+00002192+00000+0001T   00002192+0000001700          1400 KL4300               2BZ
207409003207409077-000322     207409006001023677532GIFT-BAG 18X23CM E/D FL0000002000+00001227+00000+0001T   00001227+0000001700          1400 KL4112               2BZ
207409004207409077-000302     207409008010410010195GIFT-BAG 18X23CM E/D   0000001000+00000876+00000+0001T   00000876+0000001700          1400 KL4112               2BZ
207410000207410               207410               170213LG     1400+00000+LG0000009480-0000000000+000000000+000000000+0000009480-0000000000+I20000000000+0000009480-Z
207410001207410001-999901     207410000000000999901CASUAL WAGES           0000001000-00009480+00000+0001X  9512140410080 0600MMOTAU0000000000 KL49011IC            2 Z
A17021300                                          15430100LGSLAVE 2                       KL41IC
M17021301                              IT          LGATT:IT                                          SLAVE 2 LAST SLIP 207410                        NABOOM LG                                       THANKS
M17021391                              CASH        LGSLAVE 2                       Z-REPORT No.   588TOTAL (Sales - Refunds)           2129.66       CASH TO BE BANKED                 1730.00       DEBIT CARDS                          0.00       CREDIT CARDS                       304.86       Z-READING                         2034.86       AIRTIME DEBIT CARD SALES             0.00       AIRTIME CARD SALES                   0.00       OVERS/UNDERS                         0.00       AIRTIME CASH SALES                   0.00       GIFT CARDS                           0.00       GIFT CARD CASH SALES                 0.00       CASUAL WAGES                        94.80       T O T A L  CASH PAYOUTS             94.80                                                                                                                                                                                                                                                                                                      Z
M17021392                              CASH        LGABSENT                                                                                                                                                                                          ANNUAL LEAVE                                                                                                                                                                                    DAY OFF                                                                                                                                                                                         COMMENTS                                                                                                                                                                                                                                                                                                                                                                                       Z
Y17021300                                          LG00000000186993+000037
ZLG17021320023 SLAVE 2      SALES DATA                     NEXT INVOICE NO.  207411 0588
X LG Slave 2 First invoice 207372 170213 Last invoice 207410 170213 Next invoice 207411 Total number of records 000000125 clbackup completed 20:02:22
