300925000300925               300925               170213LG     1400+00000+LG0000017530+0000017530+000000000+000002460+0000019990+           I90000000000+0000000000+Z
300925001300925466-000200     300925006001023621665HULA-HOOP     ASSTD    0000010000+00001753+00000+0001T303471150000                    1400 1IC7851ICV             Z
M17021301                              IT          LGATT:IT                                          SLAVE 3 NOT USED                                NABOOM LG                                       THANKS
M17021391                              CASH        LGSLAVE 3                       Z-REPORT No.   479TOTAL (Sales - Refunds)              0.00       CASH TO BE BANKED                    0.00       DEBIT CARDS                          0.00       CREDIT CARDS                         0.00       Z-READING                            0.00       AIRTIME DEBIT CARD SALES             0.00       AIRTIME CARD SALES                   0.00       OVERS/UNDERS                         0.00       AIRTIME CASH SALES                   0.00       GIFT CARDS                           0.00       GIFT CARD CASH SALES                 0.00       T O T A L  CASH PAYOUTS              0.00                                                                                                                                                                                                                                                                                                                                                      Z
M17021392                              CASH        LGABSENT                                                                                                                                                                                          ANNUAL LEAVE                                                                                                                                                                                    DAY OFF                                                                                                                                                                                         COMMENTS                                                                                                                                                                                                                                                                                                                                                                                       Z
Y17021300                                          LG00000000000000+000000
ZLG17021320023 SLAVE 3      SALES DATA                     NEXT INVOICE NO.  300926 0480
L53930300351883-001-002       LG1702131227461ICMARTINE MALULEK                                                                                                                                                                                                                                                                                                                                                                                                                                                                                                                                                                                                                                                                                                                                                                                                                                                                                                                                                                                      Z
L53930300351883-002-002       LG1702131232571ICMARTINE MALULEK                                                                                                                                                                                                                                                                                                                                                                                                                                                                                                                                                                                                                                                                                                                                                                                                                                                                                                                                                                                      Z
L53949400351089-001-001       LG1702131217521ICMARTINE MALULEK                                                                                                                                                                                                                                                                                                                                                                                                                                                                                                                                                                                                                                                                                                                                                                                                                                                                                                                                                                                      Z
L55322800353420-001-001       LG1702131219591ICMARTINE MALULEK                                                                                                                                                                                                                                                                                                                                                                                                                                                                                                                                                                                                                                                                                                                                                                                                                                                                                                                                                                                      Z
L55606700353767-001-002       LG1702131227261ICMARTINE MALULEK                                                                                                                                                                                                                                                                                                                                                                                                                                                                                                                                                                                                                                                                                                                                                                                                                                                                                                                                                                                      Z
L55606700353767-002-002       LG1702131216581ICMARTINE MALULEK                                                                                                                                                                                                                                                                                                                                                                                                                                                                                                                                                                                                                                                                                                                                                                                                                                                                                                                                                                                      Z
L55619000353761-001-001       LG1702131227551ICMARTINE MALULEK                                                                                                                                                                                                                                                                                                                                                                                                                                                                                                                                                                                                                                                                                                                                                                                                                                                                                                                                                                                      Z
L56223800353436-001-005       LG1702131222571ICMARTINE MALULEK                                                                                                                                                                                                                                                                                                                                                                                                                                                                                                                                                                                                                                                                                                                                                                                                                                                                                                                                                                                      Z
L56223800353436-002-005       LG1702131204071ICMARTINE MALULEK                                                                                                                                                                                                                                                                                                                                                                                                                                                                                                                                                                                                                                                                                                                                                                                                                                                                                                                                                                                      Z
L56223800353436-003-005       LG1702131216231ICMARTINE MALULEK                                                                                                                                                                                                                                                                                                                                                                                                                                                                                                                                                                                                                                                                                                                                                                                                                                                                                                                                                                                      Z
L56223800353436-004-005       LG1702131159371ICMARTINE MALULEK                                                                                                                                                                                                                                                                                                                                                                                                                                                                                                                                                                                                                                                                                                                                                                                                                                                                                                                                                                                      Z
L56223800353436-005-005       LG1702131223171ICMARTINE MALULEK                                                                                                                                                                                                                                                                                                                                                                                                                                                                                                                                                                                                                                                                                                                                                                                                                                                                                                                                                                                      Z
L57004500354818-001-001       LG1702131202011ICMARTINE MALULEK                                                                                                                                                                                                                                                                                                                                                                                                                                                                                                                                                                                                                                                                                                                                                                                                                                                                                                                                                                                      Z
L57834900349101-001-001       LG1702131232521ICMARTINE MALULEK                                                                                                                                                                                                                                                                                                                                                                                                                                                                                                                                                                                                                                                                                                                                                                                                                                                                                                                                                                                      Z
L57838000349483-001-002       LG1702131159521ICMARTINE MALULEK                                                                                                                                                                                                                                                                                                                                                                                                                                                                                                                                                                                                                                                                                                                                                                                                                                                                                                                                                                                      Z
L57838000349483-002-002       LG1702131220391ICMARTINE MALULEK                                                                                                                                                                                                                                                                                                                                                                                                                                                                                                                                                                                                                                                                                                                                                                                                                                                                                                                                                                                      Z
L57848400357010-001-002       LG1702131202481ICMARTINE MALULEK                                                                                                                                                                                                                                                                                                                                                                                                                                                                                                                                                                                                                                                                                                                                                                                                                                                                                                                                                                                      Z
L57848400357010-002-002       LG1702131159021ICMARTINE MALULEK                                                                                                                                                                                                                                                                                                                                                                                                                                                                                                                                                                                                                                                                                                                                                                                                                                                                                                                                                                                      Z
L58016500350680-001-003       LG1702131214581ICMARTINE MALULEK                                                                                                                                                                                                                                                                                                                                                                                                                                                                                                                                                                                                                                                                                                                                                                                                                                                                                                                                                                                      Z
L58016500350680-002-003       LG1702131222011ICMARTINE MALULEK                                                                                                                                                                                                                                                                                                                                                                                                                                                                                                                                                                                                                                                                                                                                                                                                                                                                                                                                                                                      Z
L58016500350680-003-003       LG1702131218451ICMARTINE MALULEK                                                                                                                                                                                                                                                                                                                                                                                                                                                                                                                                                                                                                                                                                                                                                                                                                                                                                                                                                                                      Z
L58017600350439-001-001       LG1702131233011ICMARTINE MALULEK                                                                                                                                                                                                                                                                                                                                                                                                                                                                                                                                                                                                                                                                                                                                                                                                                                                                                                                                                                                      Z
L58034300350096-001-001       LG1702131228201ICMARTINE MALULEK                                                                                                                                                                                                                                                                                                                                                                                                                                                                                                                                                                                                                                                                                                                                                                                                                                                                                                                                                                                      Z
L58035300351266-001-002       LG1702131231401ICMARTINE MALULEK                                                                                                                                                                                                                                                                                                                                                                                                                                                                                                                                                                                                                                                                                                                                                                                                                                                                                                                                                                                      Z
L58035300351266-002-002       LG1702131223051ICMARTINE MALULEK                                                                                                                                                                                                                                                                                                                                                                                                                                                                                                                                                                                                                                                                                                                                                                                                                                                                                                                                                                                      Z
L58037300351197-001-001       LG1702131214141ICMARTINE MALULEK                                                                                                                                                                                                                                                                                                                                                                                                                                                                                                                                                                                                                                                                                                                                                                                                                                                                                                                                                                                      Z
L58082000349680-001-001       LG1702131227331ICMARTINE MALULEK                                                                                                                                                                                                                                                                                                                                                                                                                                                                                                                                                                                                                                                                                                                                                                                                                                                                                                                                                                                      Z
F094769261-003821         1702101431550000041ICSLAVE 3
F094770007-000033         1702101432090000201ICSLAVE 3
V5393030000000033         1702101432090000201ICSLAV               000000000000000170213000000   SLAVE 3     000000000000351883               02
V5394940000000033         1702101432090000201ICSLAV               000000000000000170213000000   SLAVE 3     000000000000351089               01
V5532280000000033         1702101432090000201ICSLAV               000000000000000170213000000   SLAVE 3     000000000000353420               01
V5560670000000033         1702101432090000201ICSLAV               000000000000000170213000000   SLAVE 3     000000000000353767               02
V5561900000000033         1702101432090000201ICSLAV               000000000000000170213000000   SLAVE 3     000000000000353761               01
V5622380000000033         1702101432090000201ICSLAV               000000000000000170213000000   SLAVE 3     000000000000353436               05
V5700450000000033         1702101432090000201ICSLAV               000000000000000170213000000   SLAVE 3     000000000000354818               01
V5783490000000033         1702101432090000201ICSLAV               000000000000000170213000000   SLAVE 3     000000000000349101               01
V5783800000000033         1702101432090000201ICSLAV               000000000000000170213000000   SLAVE 3     000000000000349483               02
V5784840000000033         1702101432090000201ICSLAV               000000000000000170213000000   SLAVE 3     000000000000357010               02
V5801650000000033         1702101432090000201ICSLAV               000000000000000170213000000   SLAVE 3     000000000000350680               03
V5801760000000033         1702101432090000201ICSLAV               000000000000000170213000000   SLAVE 3     000000000000350439               01
V5803430000000033         1702101432090000201ICSLAV               000000000000000170213000000   SLAVE 3     000000000000350096               01
V5803530000000033         1702101432090000201ICSLAV               000000000000000170213000000   SLAVE 3     000000000000351266               02
V5803730000000033         1702101432090000201ICSLAV               000000000000000170213000000   SLAVE 3     000000000000351197               01
V5808200000000033         1702101432090000201ICSLAV               000000000000000170213000000   SLAVE 3     000000000000349680               01
X LG Slave 3 First invoice 300925 170213 Last invoice 300925 170213 Next invoice 300926 Total number of records 000000052 clbackup completed 20:02:24
