108506000108506               108506               170213LH     1400+00000+LH0000008763+0000008763+000000000+000001230+0000009993+0000000000+I40000009993+0000000000+Z
108506001108506080-000133-A   108506006003000647019MINI VALENTINES CARD   0000002000+00000437+00000+0001T   00000437+0000000905          1400 BH1112               1AZ
108506002108506103-000215     108506006003000568635BASKET WICKER/IRON     0000001000+00002630+00000+0001T   00002630+0000000905          1400 BH1300               1AZ
108506003108506103-000225     108506006003000568871BASKET IRON OVAL 20x24 0000001000+00003507+00000+0001T   00003507+0000000905          1400 BH1300               1AZ
108506004108506077-000151     108506006008766114676GIFT-WRAP C/PHANE ASSTD0000002000+00000876+00000+0001T   00000876+0000000905          1400 BH1112               1AZ
108507000108507               108507               170213LH     1400+00000+LH0000011009+0000011009+000000000+000001543+0000012550+0000000002+I20000000000+0000012550+Z
108507001108507112-116069     108507006009681820277TCS CARRIER BAG JUMBO  0000001000+00000048+00000+0001T   00000048+0000000942          1400 BH1090               1AZ
108507002108507007-000050     108507006001023528285DISPLAY-ENVELOPE A4    0000001000+00001753+00000+0001T   00001753+0000000942          1400 BH1130               1AZ
108507003108507089-060027     108507006003000245871KEY-CHAIN HEART 6X6cm  0000001000+00003069+00000+0001T   00003069+0000000942          1400 BH1205               1AZ
108507004108507567-075470     108507006003000643264BK NOVEL CATEGORY B    0000001000+00006139+00000+0001T   00006139+0000000942          1400 BH1757               1AZ
108508000108508               108508               170213LH     1400+00000+LH0000002630+0000002630+000000000+000000369+0000002990+0000000009+I20000000000+0000002990+Z
108508001108508077-000270     108508006003000395453GIFT-BAG PPR JMB 33X45 0000001000+00002630+00000+0001T   00002630+0000000947          1400 BH1112               1AZ
108509000108509               108509               170213LH     1400+00000+LH0000001490+0000001490+000000000+000000209+0000001690+0000000009+I20000000000+0000001690+Z
108509001108509077-000299     108509006003000395576G/BAG 32x25cm LRG LOVE 0000001000+00001490+00000+0001T   00001490+0000001004          1400 BH1112               1AZ
108510000108510               108510               170213LH     1400+00000+LH0000005810+0000005810+000000000+000000819+0000006620+0000000009+I20000000000+0000006620+Z
108510001108510903-000155     108510006009803374435SWT LOLLY I LUV U HEART0000011000+00000525+00000+0001T   00000525+0000001142          1400 BH1150               1AZ
108510002108510112-116038     108510006009681820246TCS CARRIER BAG MIDI   0000001000+00000035+00000+0001T   00000035+0000001142          1400 BH1090               1AZ
108511000108511               108511               170213LH     1400+00000+LH0000009064+0000009064+000000000+000001271+0000010330+0000000005+I20000000000+0000010330+Z
108511001108511027-009025     108511006003962000747DUSTPAN-SET PL         0000001000+00002630+00000+0001T   00002630+0000001148          1400 BH1212               1AZ
108511002108511140-001001     108511006001023599926ROACH-TRAPS 5PCE    BOX0000001000+00003507+00000+0001T   00003507+0000001148          1400 BH1830               1AZ
108511003108511002-000801     108511006003000555994PEELER PL/MTL Y-SHAPE  0000001000+00001139+00000+0001T   00001139+0000001148          1400 BH1300               1AZ
108511004108511047-000507     108511006001023684479PLUG-ADAPTOR EURO TWIN 0000001000+00001753+00000+0001T   00001753+0000001148          1400 BH1880               1AZ
108511005108511112-116038     108511006009681820246TCS CARRIER BAG MIDI   0000001000+00000035+00000+0001T   00000035+0000001148          1400 BH1090               1AZ
108512000108512               108512               170213LH     1400+00000+LH0000008326+0000008326+000000000+000001168+0000009494+0000000000+I40000009494+0000000000+Z
108512001108512077-000150-D   108512006003000054343GIFT-WRAP CELLPHANE CLR0000002000+00000876+00000+0001T   00000876+0000001207          1400 BH1112               1AZ
108512002108512903-000194     108512006009826020616SWT CHOC RP LOLLY 25G  0000001000+00001314+00000+0001T   00001314+0000001207          1400 BH1150               1AZ
108512003108512565-000014     108512006003000671915NOVELTY AIR BALLOON    0000002000+00002630+00000+0001T   00002630+0000001207          1400 BH1745               1AZ
108513000108513               108513               170213LH     1400+00000+LH0000008771+0000008771+000000000+000001228+0000009990+0000000009+I20000000000+0000009990+Z
108513001108513039-000799     108513006001023692382CANDLES TEALITE 100PCE 0000001000+00008771+00000+0001T   00008771+0000001224          1400 BH1510               1AZ
108514000108514               108514               170213LH     1400+00000+LH0000002192+0000002192+000000000+000000307+0000002499+0000000000+I40000002499+0000000000+Z
108514001108514080-000127     108514006003000424351VALENTINES DAY 36x24CM 0000001000+00002192+00000+0001T   00002192+0000001240          1400 BH1112               1AZ
108515000108515               108515               170213LH     1400+00000+LH0000000613+0000000613+000000000+000000086+0000000690+0000000009+I20000000000+0000000690+Z
108515001108515304-001011     108515006001023806727FLWR ROSE RED W/BEAR   0000001000+00000613+00000+0001T   00000788+0006471241          1400 BH1510               1AZ
108516000108516               108516               170213LH     1400+00000+LH0000001314+0000001314+000000000+000000184+0000001490+0000000008+I20000000000+0000001490+Z
108516001108516006-000166-C   108516006003000516377BALLOONS LRG 6PC PINK  0000001000+00001314+00000+0001T   00001314+0000001242          1400 BH1131               1AZ
108517000108517               108517               170213LH     1400+00000+LH0000006920+0000006920+000000000+000000972+0000007890+0000000002+I20000000000+0000007890+Z
108517001108517566-001500     108517006003000658275STICKER PUFFY EMOTION  0000001000+00001753+00000+0001T   00001753+0000001245          1400 BH1130               1AZ
108517002108517566-000451     108517006001023788443STICKERS GLITTER ASSTD 0000002000+00001314+00000+0001T   00001753+0008151245          1400 BH1130               1AZ
108517003108517566-001500     108517006003000658275STICKER PUFFY EMOTION  0000001000+00001753+00000+0001T   00001753+0000001245          1400 BH1130               1AZ
108517004108517903-000183     108517006003000451043SWT LB HEART LOLLY     0000002000+00000393+00000+0001T   00000393+0000001245          1400 BH1150               1AZ
108518000108518               108518               170213LH     1400+00000+LH0000002455+0000002455+000000000+000000344+0000002790+0000000009+I20000000000+0000002790+Z
108518001108518565-000255     108518006003000585168NOVELTY GLOW SLIME     0000001000+00002455+00000+0001T   00002455+0000001245          1400 BH1745               1AZ
108519000108519               108519               170213LH     1400+00000+LH0000002192+0000002192+000000000+000000307+0000002499+0000000000+I40000002499+0000000000+Z
108519001108519007-000095     108519006003000530434ENVELOPES WHITE 20PK C60000001000+00002192+00000+0001T   00002192+0000001315          1400 BH1130               1AZ
108520000108520               108520               170213LH     1400+00000+LH0000017235+0000017235+000000000+000002415+0000019650+0000000000+I40000019650+0000000000+Z
108520001108520031-086301-C   108520006001023910240P/FRAME PL BRONZE 20X250000001000+00007016+00000+0001T   00007016+0000001320          1400 BH1510               1AZ
108520002108520080-000124     108520006003000297733CARD & ENV VALENTINES  0000002000+00001578+00000+0001T   00001578+0000001320          1400 BH1112               1AZ
108520003108520077-000299-A   108520006003000670888GIFT-BAG PAPER JMB LOVE0000001000+00001753+00000+0001T   00001753+0000001320          1400 BH1112               1AZ
108520004108520112-116069     108520006009681820277TCS CARRIER BAG JUMBO  0000001000+00000048+00000+0001T   00000048+0000001320          1400 BH1090               1AZ
108520005108520031-000872-C   108520006001023798770P/FRAME PL BRONZE 20X250000001000+00005262+00000+0001T   00005262+0000001320          1400 BH1510               1AZ
108521000108521               108521               170213LH     1400+00000+LH0000001753+0000001753+000000000+000000246+0000001990+0000000009+I20000000000+0000001990+Z
108521001108521077-000467     108521006003000329991GIFT-BAG STAMP 18X23CM 0000001000+00001753+00000+0001T   00001753+0000001320          1400 BH1112               1AZ
108522000108522               108522               170213LH     1400+00000+LH0000001578+0000001578+000000000+000000221+0000001790+0000000009+I20000000000+0000001790+Z
108522001108522018-000127     108522006001023380289MUG OCC STRAIGHT LOVE  0000001000+00001578+00000+0001T   00001753+0006471323          1400 BH1515               1AZ
108523000108523               108523               170213LH     1400+00000+LH0000013193+0000013193+000000000+000001852+0000015045+0000000000+I40000015045+0000000000+Z
108523001108523077-000399     108523006003000139514GIFT BAG 18X23CM E/DAY 0000001000+00001490+00000+0001T   00001490+0000001412          1400 BH1112               1AZ
108523002108523077-000303     108523006001023593757GIFT-BAG PAPER MED     0000001000+00001578+00000+0001T   00001578+0000001412          1400 BH1112               1AZ
108523003108523903-000183     108523006003000451043SWT LB HEART LOLLY     0000002000+00000393+00000+0001T   00000393+0000001412          1400 BH1150               1AZ
108523004108523903-000155     108523006009803374435SWT LOLLY I LUV U HEART0000001000+00000525+00000+0001T   00000525+0000001412          1400 BH1150               1AZ
108523005108523903-000520     108523006001704009898SWT GUMMY MINI SOUR 60g0000003000+00000876+00000+0001T   00000876+0000001412          1400 BH1150               1AZ
108523006108523016-006521-A   108523006003000602230STORAGE-JAR CHECK 10cm 0000001000+00001753+00000+0001T   00001753+0000001412          1400 BH1300               1AZ
108523007108523016-006523     108523006003000297825S/JAR GLS 550ml W/WORDS0000001000+00004385+00000+0001T   00004385+0000001412          1400 BH1300               1AZ
108523008108523112-116069     108523006009681820277TCS CARRIER BAG JUMBO  0000001000+00000048+00000+0001T   00000048+0000001412          1400 BH1090               1AZ
108524000108524               108524               170213LH     1400+00000+LH0000005608+0000005608+000000000+000000788+0000006390+0000000006+I20000000000+0000006390+Z
108524001108524040-000923     108524006001023587831CANDLE-HOLDER GLS 13.5 0000002000+00001753+00000+0001T   00001753+0000001415          1400 BH1510               1AZ
108524002108524039-000026     108524006001023551610C/TAPERED 25CM M/RED   0000002000+00001051+00000+0001T   00001051+0000001415          1400 BH1510               1AZ
108525000108525               108525               170213LH     1400+00000+LH0000001578+0000001578+000000000+000000221+0000001790+0000000009+I20000000000+0000001790+Z
108525001108525077-000303     108525006001023593757GIFT-BAG PAPER MED     0000001000+00001578+00000+0001T   00001578+0000001536          1400 BH1112               1AZ
108526000108526               108526               170213LH     1400+00000+LH0000003196+0000003196+000000000+000000450+0000003640+0000000006+I20000000000+0000003640+Z
108526001108526077-000305     108526006003000395422GIFT-BAG WINE 10X35CM  0000001000+00001490+00000+0001T   00001490+0000001542          1400 BH1112               1AZ
108526002108526903-000155     108526006009803374435SWT LOLLY I LUV U HEART0000001000+00000525+00000+0001T   00000525+0000001542          1400 BH1150               1AZ
108526003108526903-000200     108526006009826020234SWT CHOC RP CHOCO 23G  0000001000+00000788+00000+0001T   00000788+0000001542          1400 BH1150               1AZ
108526004108526903-000183     108526006003000451043SWT LB HEART LOLLY     0000001000+00000393+00000+0001T   00000393+0000001542          1400 BH1150               1AZ
108527000108527               108527               170213LH     1400+00000+LH0000000525+0000000525+000000000+000000074+0000000590+0000000009+I20000000000+0000000590+Z
108527001108527903-000155     108527006009803374435SWT LOLLY I LUV U HEART0000001000+00000525+00000+0001T   00000525+0000001543          1400 BH1150               1AZ
108528000108528               108528               170213LH     1400+00000+LH0000004420+0000004420+000000000+000000619+0000005030+0000000009+I20000000000+0000005030+Z
108528001108528162-093206     108528006001492932064#TAG KIDS 2PK A/BAND   0000001000+00004385+00000+0001T   00004385+0000001544          1400 BH1160               1AZ
108528002108528112-116038     108528006009681820246TCS CARRIER BAG MIDI   0000001000+00000035+00000+0001T   00000035+0000001544          1400 BH1090               1AZ
108529000108529               108529               170213LH     1400+00000+LH0000007893+0000007893+000000000+000001106+0000008999+0000000000+I40000008999+0000000000+Z
108529001108529304-001114     108529006001023738219FLWR BUNCH ROSES/LILY  0000001000+00007893+00000+0001T   00007893+0000001545          1400 BH1510               1AZ
108530000108530               108530               170213LH     1400+00000+LH0000001753+0000001753+000000000+000000246+0000001990+0000000009+I20000000000+0000001990+Z
108530001108530078-000470     108530006007347000018SHOE-CEMENT 70ml-TIN   0000001000+00001753+00000+0001T   00001753+0000001546          1400 BH1810               1AZ
108531000108531               108531               170213LH     1400+00000+LH0000005875+0000005875+000000000+000000823+0000006690+0000000008+I20000000000+0000006690+Z
108531001108531077-000311     108531006001023608666GIFT-BAG 11X14CM GLOSS 0000001000+00000613+00000+0001T   00000613+0000001548          1400 BH1112               1AZ
108531002108531162-096643     108531006001492966434#TAG NK CHUNKY BEADED  0000001000+00005262+00000+0001T   00005262+0000001548          1400 BH1160               1AZ
108532000108532               108532               170213LH     1400+00000+LH0000005085+0000005085+000000000+000000712+0000005790+0000000007+I20000000000+0000005790+Z
108532001108532018-005009     108532006001023725608MUG W/PLUSH-BEAR LOVE  0000001000+00003507+00000+0001T   00003507+0000001550          1400 BH1515               1AZ
108532002108532077-000303     108532006001023593757GIFT-BAG PAPER MED     0000001000+00001578+00000+0001T   00001578+0000001550          1400 BH1112               1AZ
108533000108533               108533               170213LH     1400+00000+LH0000001578+0000001578+000000000+000000221+0000001790+0000000009+I20000000000+0000001790+Z
108533001108533077-000303     108533006001023593757GIFT-BAG PAPER MED     0000001000+00001578+00000+0001T   00001578+0000001551          1400 BH1112               1AZ
108534000108534               108534               170213LH     1400+00000+LH0000001753+0000001753+000000000+000000246+0000001990+0000000009+I20000000000+0000001990+Z
108534001108534006-000120     108534006001023346889BALLOONS 10PC MIX COL  0000001000+00001753+00000+0001T   00001753+0000001553          1400 BH1131               1AZ
108535000108535               108535               170213LH     1400+00000+LH0000002630+0000002630+000000000+000000369+0000002990+0000000009+I20000000000+0000002990+Z
108535001108535106-001099     108535006003000653447WATER BOTTLE 650ml     0000001000+00002630+00000+0001T   00002630+0000001556          1400 BH1210               1AZ
108536000108536               108536               170213LH     1400+00000+LH0000001578+0000001578+000000000+000000221+0000001790+0000000009+I20000000000+0000001790+Z
108536001108536077-000303     108536006001023593757GIFT-BAG PAPER MED     0000001000+00001578+00000+0001T   00001578+0000001559          1400 BH1112               1AZ
108537000108537               108537               170213LH     1400+00000+LH0000003542+0000003542+000000000+000000496+0000004030+0000000008+I20000000000+0000004030+Z
108537001108537018-005009     108537006001023725608MUG W/PLUSH-BEAR LOVE  0000001000+00003507+00000+0001T   00003507+0000001609          1400 BH1515               1AZ
108537002108537112-116038     108537006009681820246TCS CARRIER BAG MIDI   0000001000+00000035+00000+0001T   00000035+0000001609          1400 BH1090               1AZ
108538000108538               108538               170213LH     1400+00000+LH0000001402+0000001402+000000000+000000197+0000001590+0000000009+I20000000000+0000001590+Z
108538001108538304-001204     108538006001023737984FLOWER OCC. TEDDY/ROSES0000001000+00001402+00000+0001T   00001490+0006471614          1400 BH1510               1AZ
108539000108539               108539               170213LH     1400+00000+LH0000005784+0000005784+000000000+000000810+0000006590+0000000004+I20000000000+0000006590+Z
108539001108539174-008032     108539006009654960603TRAVEL BOTTLES 50ml    0000002000+00001928+00000+0001T   00001928+0000001616          1400 BH1205               1AZ
108539002108539174-008024     108539006009654960368TRAVEL BOTTLES 2-PACK  0000001000+00001928+00000+0001T   00001928+0000001616          1400 BH1205               1AZ
108540000108540               108540               170213LH     1400+00000+LH0000017057+0000017057+000000000+000002392+0000019449+0000000000+I40000019449+0000000000+Z
108540001108540112-116069     108540006009681820277TCS CARRIER BAG JUMBO  0000001000+00000048+00000+0001T   00000048+0000001635          1400 BH1090               1AZ
108540002108540071-081104-A   108540006003000326662GLUE-STICK 8g CRD-OF-3 0000001000+00001227+00000+0001T   00001227+0000001635          1400 BH1130               1AZ
108540003108540079-006495     108540006003000159987GLITTER SHAKERS 6PK    0000001000+00002630+00000+0001T   00002630+0000001635          1400 BH1130               1AZ
108540004108540071-005669     108540006003000153268STAPLER MINI W/STAPLES 0000001000+00002630+00000+0001T   00002630+0000001635          1400 BH1130               1AZ
108540005108540071-001362     108540006003000589258HIGHLIGHTER 4 PACK     0000001000+00002630+00000+0001T   00002630+0000001635          1400 BH1130               1AZ
108540006108540079-000300     108540006001023902245PAINTSET LEARN TO PAINT0000001000+00002630+00000+0001T   00002630+0000001635          1400 BH1130               1AZ
108540007108540007-000322     108540006009685858634PAPER A4 80GSM 100'S   0000001000+00005262+00000+0001T   00005262+0000001635          1400 BH1130               1AZ
108541000108541               108541               170213LH     1400+00000+LH0000014909+0000014909+000000000+000002089+0000016998+0000000000+I40000016998+0000000000+Z
108541001108541077-000270     108541006003000395453GIFT-BAG PPR JMB 33X45 0000001000+00002630+00000+0001T   00002630+0000001648          1400 BH1112               1AZ
108541002108541368-000111     108541006001023780812PLUSH BEAR/DOG 29CM    0000001000+00012279+00000+0001T   00012279+0000001648          1400 BH1745               1AZ
108542000108542               108542               170213LH     1400+00000+LH0000000911+0000000911+000000000+000000128+0000001030+0000000009+I20000000000+0000001030+Z
108542001108542366-007601     108542006003000655472DRESS UP MASK THEATRICA0000001000+00000876+00000+0001T   00000876+0000001700          1400 BH1131               1AZ
108542002108542112-116038     108542006009681820246TCS CARRIER BAG MIDI   0000001000+00000035+00000+0001T   00000035+0000001700          1400 BH1090               1AZ
108543000108543               108543               170213LH     1400+00000+LH0000004208+0000004208+000000000+000000590+0000004790+0000000008+I20000000000+0000004790+Z
108543001108543251-000003     108543006003000266159TAPE D/S 18x300mm V/PCK0000001000+00002630+00000+0001T   00002630+0000001701          1400 BH1810               1AZ
108543002108543251-000031     108543006001023515827MASKING-TAPE 24mmx40m  0000001000+00001578+00000+0001T   00001578+0000001701          1400 BH1810               1AZ
108544000108544               108544               170213LH     1400+00000+LH0000002630+0000002630+000000000+000000369+0000002990+0000000009+I20000000000+0000002990+Z
108544001108544106-008100     108544006001023764126MEASURING-SHAKER 500ml 0000001000+00002630+00000+0001T   00002630+0000001702          1400 BH1210               1AZ
108545000108545               108545               170213LH     1400+00000+LH0000001578+0000001578+000000000+000000221+0000001790+0000000009+I20000000000+0000001790+Z
108545001108545018-000127     108545006001023380289MUG OCC STRAIGHT LOVE  0000001000+00001578+00000+0001T   00001753+0006471711          1400 BH1515               1AZ
108546000108546               108546               170213LH     1400+00000+LH0000005262+0000005262+000000000+000000737+0000005990+0000000009+I20000000000+0000005990+Z
108546001108546263-000623     108546006001023905697VEHICLE HELICOPTER 30cm0000001000+00005262+00000+0001T   00005262+0000001713          1400 BH1710               1AZ
108547000108547               108547               170213LH     1400+00000+LH0000005732+0000005732+000000000+000000804+0000006530+0000000006+I20000000000+0000006530+Z
108547001108547018-000136     108547006001023659026MUG OCC LOVE W/PLUSH   0000001000+00003507+00000+0001T   00003507+0000001854          1400 BH1515               1AZ
108547002108547903-000200     108547006009826020234SWT CHOC RP CHOCO 23G  0000001000+00000788+00000+0001T   00000788+0000001854          1400 BH1150               1AZ
108547003108547304-001204     108547006001023737984FLOWER OCC. TEDDY/ROSES0000001000+00001402+00000+0001T   00001490+0006471854          1400 BH1510               1AZ
108547004108547112-116038     108547006009681820246TCS CARRIER BAG MIDI   0000001000+00000035+00000+0001T   00000035+0000001854          1400 BH1090               1AZ
A17021300                                          11063020LHSLAVE 1                       BH11IC
A17021301                                          11405168LHSLAVE 1                       BH11IC
M17021391                              CASH        LHSLAVE 1                       Z-REPORT No.   541TOTAL (Sales - Refunds)           2412.36       CASH TO BE BANKED                 1366.10       DEBIT CARDS                          0.00       CREDIT CARDS                      1046.26       Z-READING                         2412.36       AIRTIME DEBIT CARD SALES             0.00       AIRTIME CARD SALES                   0.00       OVERS/UNDERS                         0.00       AIRTIME CASH SALES                   0.00       GIFT CARDS                           0.00       GIFT CARD CASH SALES                 0.00       T O T A L  CASH PAYOUTS              0.00                                                                                                                                                                                                                                                                                                                                                      Z
M17021392                              CASH        LHABSENT                                                                                                                                                                                          ANNUAL LEAVE                                                                                                                                                                                    DAY OFF                                                                                                                                                                                         COMMENTS                                                                                                                                                                                                                                                                                                                                                                                       Z
Y17021300                                          LH00000000211795+000042
ZLH17021320023 SLAVE 1      SALES DATA                     NEXT INVOICE NO.  108548 0541
X LH Slave 1 First invoice 108506 170213 Last invoice 108547 170213 Next invoice 108548 Total number of records 000000138 clbackup completed 20:02:32
