202765000202765               202765               170213LH     1400+00000+LH0000004385+0000004385+000000000+000000614+0000004990+0000000009+I20000000000+0000004990+Z
202765001202765369-001032     202765006001023796158BABY RATTLE SET 6PCE   0000001000+00004385+00000+0001T   00004385+0000001051          1400 EA0745               2AZ
202766000202766               202766               170213LH     1400+00000+LH0000062782+0000062782+000000000+000008799+0000071580+0000000001+I20000000000+0000071580+Z
202766001202766112-116069     202766006009681820277TCS CARRIER BAG JUMBO  0000001000+00000048+00000+0001T   00000048+0000001056          1400 EA0090               2AZ
202766002202766036-000501     202766006003000417407HOOK HANGER CHROME     0000001000+00004385+00000+0001T   00004385+0000001056          1400 EA0212               2AZ
202766003202766002-000015     202766006003000555604CAPPUCCINO STENCILS 12P0000001000+00001753+00000+0001T   00001753+0000001056          1400 EA0300               2AZ
202766004202766033-010721     202766006001023678669SAFETY-PINS 20PCE ASSTD0000001000+00000700+00000+0001T   00000700+0000001056          1400 EA0200               2AZ
202766005202766124-001000     202766006003000683734STORAGE TIN SEWING DESN0000001000+00003069+00000+0001T   00003069+0000001056          1400 EA0300               2AZ
202766006202766038-092233     202766006003000328925TABLE-MAT N/SLIP ASST  0000001000+00003069+00000+0001T   00003507+0008191056          1400 EA0300               2AZ
202766007202766002-000652     202766006001023553188M/SPOON WDN 3PC H/HOUSE0000002000+00003069+00000+0001T   00003069+0000001056          1400 EA0300               2AZ
202766008202766038-001800     202766006003000623303DOILIE PAPER HRT 24PC  0000001000+00003507+00000+0001T   00003507+0000001056          1400 EA0300               2AZ
202766009202766024-091103-B   202766006003000422548CAKE BOX 6PC CUPCAKES  0000003000+00002630+00000+0001T   00002630+0000001056          1400 EA0300               2AZ
202766010202766077-000005-A   202766006003000326495TISSUE 10xSHT OCCASIONS0000001000+00002630+00000+0001T   00002630+0000001056          1400 EA0112               2AZ
202766011202766077-000011-X   202766006001023809827TISSUE-WRAP SILVER 10PC0000001000+00001753+00000+0001T   00001753+0000001056          1400 EA0112               2AZ
202766012202766077-000011-D   202766006001023808554TISSUE-WRAP WHITE 10PCE0000001000+00000876+00000+0001T   00000876+0000001056          1400 EA0112               2AZ
202766013202766022-002109     202766006001023501745MUG 6cm DEC            0000002000+00001227+00000+0001T   00001227+0000001056          1400 EA0305               2AZ
202766014202766024-000140     202766006001023902429N/STICK S/FORM 25X6CM  0000001000+00013157+00000+0001T   00013157+0000001056          1400 EA0300               2AZ
202766015202766112-116069     202766006009681820277TCS CARRIER BAG JUMBO  0000001000+00000048+00000+0001T   00000048+0000001056          1400 EA0090               2AZ
202766016202766206-000360     202766006003000631193CITRUS SPRAYER 3PC     0000001000+00001753+00000+0001T   00001753+0000001056          1400 EA0321               2AZ
202766017202766206-000570     202766006003000633463DOOR STOPPER SILI/LEAF 0000001000+00002630+00000+0001T   00002630+0000001056          1400 EA0321               2AZ
202766018202766206-000590     202766006003000633708BAG CLIPS LIPS 2PC     0000001000+00001753+00000+0001T   00001753+0000001056          1400 EA0321               2AZ
202766019202766002-000970     202766006001023770578FUNNELS 3PCE WHITE     0000001000+00001227+00000+0001T   00001227+0000001056          1400 EA0300               2AZ
202766020202766903-000844     202766005010478432567SWT CANDY DL LUV HEARTS0000003000+00001314+00000+0001T   00001314+0000001056          1400 EA0150               2AZ
202767000202767               202767               170213LH     1400+00000+LH0000005294+0000005294+000000000+000000743+0000006030+0000000007+I20000000000+0000006030+Z
202767001202767077-000240     202767006003000326259G/RIBBON 4PC PEARLIZED 0000001000+00001753+00000+0001T   00001753+0000001101          1400 EA0112               2AZ
202767002202767006-000120     202767006001023346889BALLOONS 10PC MIX COL  0000002000+00001753+00000+0001T   00001753+0000001101          1400 EA0131               2AZ
202767003202767112-116038     202767006009681820246TCS CARRIER BAG MIDI   0000001000+00000035+00000+0001T   00000035+0000001101          1400 EA0090               2AZ
202768000202768               202768               170213LH     1400+00000+LH0000006958+0000006958+000000000+000000976+0000007930+0000000004+I20000000000+0000007930+Z
202768001202768112-116038     202768006009681820246TCS CARRIER BAG MIDI   0000001000+00000035+00000+0001T   00000035+0000001104          1400 EA0090               2AZ
202768002202768039-000108     202768006001023524034TEA-LITE CANDLES 8PCE  0000001000+00001490+00000+0001T   00001490+0000001104          1400 EA0510               2AZ
202768003202768039-001023     202768006003000466337CANDLE TEA-LITE METALIC0000001000+00001753+00000+0001T   00001753+0000001104          1400 EA0510               2AZ
202768004202768080-000124     202768006003000297733CARD & ENV VALENTINES  0000001000+00001578+00000+0001T   00001578+0000001104          1400 EA0112               2AZ
202768005202768903-000194     202768006009826020616SWT CHOC RP LOLLY 25G  0000001000+00001314+00000+0001T   00001314+0000001104          1400 EA0150               2AZ
202768006202768903-000200     202768006009826020234SWT CHOC RP CHOCO 23G  0000001000+00000788+00000+0001T   00000788+0000001104          1400 EA0150               2AZ
202769000202769               202769               170213LH     1400+00000+LH0000000876+0000000876+000000000+000000123+0000000990+0000000009+I20000000000+0000000990+Z
202769001202769306-000022     202769006001023734877COTTON-WOOL PLEATS 50g 0000001000+00000876+00000+0001T   00000876+0000001105          1400 EA0200               2AZ
202770000202770               202770               170213LH     1400+00000+LH0000002838+0000002838+000000000+000000399+0000003230+0000000007+I20000000000+0000003230+Z
202770001202770133-000016     202770006003000240609DUSTERS ORANGE PACK-3  0000001000+00001753+00000+0001T   00001753+0000001110          1400 EA0212               2AZ
202770002202770027-000010-B   202770006009635020104SHOE-BRUSH BLACK       0000002000+00000525+00000+0001T   00000525+0000001110          1400 EA0212               2AZ
202770003202770112-116038     202770006009681820246TCS CARRIER BAG MIDI   0000001000+00000035+00000+0001T   00000035+0000001110          1400 EA0090               2AZ
202771000202771               202771               170213LH     1400+00000+LH0000005260+0000005260+000000000+000000737+0000005990+0000000007+I20000000000+0000005990+Z
202771001202771089-000018     202771006003000176724KEY CHAIN INSPIRATION  0000001000+00003507+00000+0001T   00003507+0000001113          1400 EA0205               2AZ
202771002202771039-091780     202771006003000280476CNDL IN-HLDER 2PC FLWR 0000001000+00001753+00000+0001T   00002630+0008171113          1400 EA0510               2AZ
202772000202772               202772               170213LH     1400+00000+LH0000009647+0000009647+000000000+000001351+0000010990+0000000008+I20000000000+0000010990+Z
202772001202772368-000183     202772006003000668175PLUSH BEAR 15cm        0000001000+00005262+00000+0001T   00005262+0000001117          1400 EA0745               2AZ
202772002202772050-000887-TS  202772006003000688210PADLOCK COMBO 35mm 8DIG0000001000+00004385+00000+0001T   00004385+0000001117          1400 EA0855               2AZ
202773000202773               202773               170213LH     1400+00000+LH0000012147+0000012147+000000000+000001703+0000013850+0000000000+I20000000000+0000013850+Z
202773001202773112-116069     202773006009681820277TCS CARRIER BAG JUMBO  0000001000+00000048+00000+0001T   00000048+0000001151          1400 EA0090               2AZ
202773002202773071-003040     202773006003000543342PEN CLUTCH+LEAD 5pce   0000002000+00001753+00000+0001T   00001753+0000001151          1400 EA0130               2AZ
202773003202773077-000303     202773006001023593757GIFT-BAG PAPER MED     0000001000+00001578+00000+0001T   00001578+0000001151          1400 EA0112               2AZ
202773004202773031-000873-A   202773006003000675425P/FRAME WDN WHITE 10X150000001000+00002630+00000+0001T   00002630+0000001151          1400 EA0510               2AZ
202773005202773368-000049     202773006003000536955PLUSH BEAR 15cm LOVE   0000001000+00004385+00000+0001T   00004385+0000001151          1400 EA0745               2AZ
202774000202774               202774               170213LH     1400+00000+LH0000002805+0000002805+000000000+000000393+0000003190+0000000008+I20000000000+0000003190+Z
202774001202774072-020280     202774006001023526526CAT JINGLE-BALLS 6PCE  0000001000+00002192+00000+0001T   00002192+0000001216          1400 EA0870               2AZ
202774002202774027-078282     202774006001023767837SCOURER 25g SPIRAL-BALL0000001000+00000613+00000+0001T   00000613+0000001216          1400 EA0212               2AZ
202775000202775               202775               170213LH     1400+00000+LH0000003156+0000003156+000000000+000000442+0000003598+0000000000+I40000003598+0000000000+Z
202775001202775018-000127     202775006001023380289MUG OCC STRAIGHT LOVE  0000001000+00001578+00000+0001T   00001753+0006471224          1400 EA0515               2AZ
202775002202775077-000303     202775006001023593757GIFT-BAG PAPER MED     0000001000+00001578+00000+0001T   00001578+0000001224          1400 EA0112               2AZ
202776000202776               202776               170213LH     1400+00000+LH0000005795+0000005795+000000000+000000812+0000006600+0000000007+I20000000000+0000006600+Z
202776001202776112-116069     202776006009681820277TCS CARRIER BAG JUMBO  0000001000+00000048+00000+0001T   00000048+0000001228          1400 EA0090               2AZ
202776002202776080-000127     202776006003000424351VALENTINES DAY 36x24CM 0000001000+00002192+00000+0001T   00002192+0000001228          1400 EA0112               2AZ
202776003202776018-000136     202776006001023659026MUG OCC LOVE W/PLUSH   0000001000+00003507+00000+0001T   00003507+0000001228          1400 EA0515               2AZ
202776004202776112-116069     202776006009681820277TCS CARRIER BAG JUMBO  0000001000+00000048+00000+0001T   00000048+0000001228          1400 EA0090               2AZ
202777000202777               202777               170213LH     1400+00000+LH0000005120+0000005120+000000000+000000717+0000005830+0000000007+I20000000000+0000005830+Z
202777001202777112-116038     202777006009681820246TCS CARRIER BAG MIDI   0000001000+00000035+00000+0001T   00000035+0000001359          1400 EA0090               2AZ
202777002202777018-000136     202777006001023659026MUG OCC LOVE W/PLUSH   0000001000+00003507+00000+0001T   00003507+0000001359          1400 EA0515               2AZ
202777003202777077-000303     202777006001023593757GIFT-BAG PAPER MED     0000001000+00001578+00000+0001T   00001578+0000001359          1400 EA0112               2AZ
202778000202778               202778               170213LH     1400+00000+LH0000000911+0000000911+000000000+000000128+0000001039+0000000000+I40000001039+0000000000+Z
202778001202778024-000186     202778006003000276875SILICONE PANCAKE/EGG 3P0000001000+00000876+00000+0001T   00001314+0008121437          1400 EA0300               2AZ
202778002202778112-116038     202778006009681820246TCS CARRIER BAG MIDI   0000001000+00000035+00000+0001T   00000035+0000001437          1400 EA0090               2AZ
202779000202779               202779               170213LH     1400+00000+LH0000008806+0000008806+000000000+000001233+0000010039+0000000000+I40000010039+0000000000+Z
202779001202779006-000165     202779006001023758392BALLOONS LRG BAG-OF-1000000001000+00008771+00000+0001T   00008771+0000001439          1400 EA0131               2AZ
202779002202779112-116038     202779006009681820246TCS CARRIER BAG MIDI   0000001000+00000035+00000+0001T   00000035+0000001439          1400 EA0090               2AZ
202780000202780               202780               170213LH     1400+00000+LH0000004291+0000004291+000000000+000000602+0000004893+0000000000+I40000004893+0000000000+Z
202780001202780304-001011     202780006001023806727FLWR ROSE RED W/BEAR   0000007000+00000613+00000+0001T   00000788+0006471443          1400 EA0510               2AZ
202781000202781               202781               170213LH     1400+00000+LH0000001490+0000001490+000000000+000000209+0000001690+0000000009+I20000000000+0000001690+Z
202781001202781077-000299     202781006003000395576G/BAG 32x25cm LRG LOVE 0000001000+00001490+00000+0001T   00001490+0000001448          1400 EA0112               2AZ
202782000202782               202782               170213LH     1400+00000+LH0000005085+0000005085+000000000+000000712+0000005797+0000000000+I40000005797+0000000000+Z
202782001202782018-000136     202782006001023659026MUG OCC LOVE W/PLUSH   0000001000+00003507+00000+0001T   00003507+0000001506          1400 EA0515               2AZ
202782002202782077-000303     202782006001023593757GIFT-BAG PAPER MED     0000001000+00001578+00000+0001T   00001578+0000001506          1400 EA0112               2AZ
202783000202783               202783               170213LH     1400+00000+LH0000004385+0000004385+000000000+000000614+0000000000+0000000000+ 00000000000+0000000000+Z
202783001202783006-000190     202783006003000685530BALLOONS LOVE 81x91cm  0000001000+00004385+00000+0001T   00004385+000000              1400 EA01311IC            2 Z
202784000202784               202784               170213LH     1400+00000+LH0000002630+0000002630+000000000+000000369+0000002999+0000000000+I40000002999+0000000000+Z
202784001202784006-000111     202784006003000519385BALLOONS LARGE 12PCE   0000001000+00002630+00000+0001T   00002630+0000001521          1400 EA0131               2AZ
202785000202785               202785               170213LH     1400+00000+LH0000010522+0000010522+000000000+000001475+0000011997+0000000000+I40000011997+0000000000+Z
202785001202785466-000400     202785006003000137497DART SET-OF-3          0000002000+00002630+00000+0001T   00002630+0000001522          1400 EA0785               2AZ
202785002202785464-009011     202785006003000647675FISHING WITH TWO RODS  0000001000+00005262+00000+0001T   00005262+0000001522          1400 EA0785               2AZ
202786000202786               202786               170213LH     1400+00000+LH0000005120+0000005120+000000000+000000717+0000005830+0000000007+I20000000000+0000005830+Z
202786001202786077-000303     202786006001023593757GIFT-BAG PAPER MED     0000001000+00001578+00000+0001T   00001578+0000001533          1400 EA0112               2AZ
202786002202786018-000136     202786006001023659026MUG OCC LOVE W/PLUSH   0000001000+00003507+00000+0001T   00003507+0000001533          1400 EA0515               2AZ
202786003202786112-116038     202786006009681820246TCS CARRIER BAG MIDI   0000001000+00000035+00000+0001T   00000035+0000001533          1400 EA0090               2AZ
202787000202787               202787               170213LH     1400+00000+LH0000001753+0000001753+000000000+000000246+0000001990+0000000009+I20000000000+0000001990+Z
202787001202787077-000011     202787006003000542352PAPER RAFFIA ASSTD COL 0000001000+00001753+00000+0001T   00001753+0000001534          1400 EA0112               2AZ
202788000202788               202788               170213LH     1400+00000+LH0000036128+0000036128+000000000+000005067+0000041195+0000000000+I40000041195+0000000000+Z
202788001202788112-116069     202788006009681820277TCS CARRIER BAG JUMBO  0000001000+00000048+00000+0001T   00000048+0000001722          1400 EA0090               2AZ
202788002202788263-000114     202788006001023827609CARS P/BACK RACER  4PCE0000002000+00003069+00000+0001T   00003069+0000001722          1400 EA0710               2AZ
202788003202788903-005003     202788006002580020106SWT DINKY DUMMIES 5PK  0000003000+00001490+00000+0001T   00001490+0000001722          1400 EA0150               2AZ
202788004202788006-000203-A   202788006003453010965SNACK BOX 6PCE ASSTD   0000003000+00002630+00000+0001T   00002630+0000001722          1400 EA0131               2AZ
202788005202788006-000200-B   202788006003000096046PARTY GIRL DESIGN 12PCE0000004000+00002630+00000+0001T   00002630+0000001722          1400 EA0131               2AZ
202788006202788112-116069     202788006009681820277TCS CARRIER BAG JUMBO  0000001000+00000048+00000+0001T   00000048+0000001722          1400 EA0090               2AZ
202788007202788263-000114     202788006001023827609CARS P/BACK RACER  4PCE0000002000+00003069+00000+0001T   00003069+0000001722          1400 EA0710               2AZ
202788008202788006-000812     202788006001023902832HAT CONE WITH TINSEL   0000001000+00000876+00000+0001T   00000876+0000001722          1400 EA0131               2AZ
202789000202789               202789               170213LH     1400+00000+LH0000006665+0000006665+000000000+000000934+0000007590+0000000009+I20000000000+0000007590+Z
202789001202789047-000006-H   202789006001023704054M/PLUG 3x16A+3x5A+CARD 0000001000+00006665+00000+0001T   00006665+0000001723          1400 EA0880               2AZ
202790000202790               202790               170213LH     1400+00000+LH0000002192+0000002192+000000000+000000307+0000002490+0000000009+I20000000000+0000002490+Z
202790001202790050-000363-Z   202790006001023475282PADLOCK IRON 32mm CARD 0000001000+00002192+00000+0001T   00002192+0000001730          1400 EA0855               2AZ
202791000202791               202791               170213LH     1400+00000+LH0000003642+0000003642+000000000+000000511+0000004150+0000000003+I20000000000+0000004150+Z
202791001202791112-116069     202791006009681820277TCS CARRIER BAG JUMBO  0000001000+00000048+00000+0001T   00000048+0000001731          1400 EA0090               2AZ
202791002202791304-001204     202791006001023737984FLOWER OCC. TEDDY/ROSES0000001000+00001402+00000+0001T   00001490+0006471731          1400 EA0510               2AZ
202791003202791080-000127     202791006003000424351VALENTINES DAY 36x24CM 0000001000+00002192+00000+0001T   00002192+0000001731          1400 EA0112               2AZ
202792000202792               202792               170213LH     1400+00000+LH0000000035+0000000035+000000000+000000005+0000000040+0000000000+I20000000000+0000000040+Z
202792001202792112-116038     202792006009681820246TCS CARRIER BAG MIDI   0000001000+00000035+00000+0001T   00000035+0000001731          1400 EA0090               2AZ
202793000202793               202793               170213LH     1400+00000+LH0000000048+0000000048+000000000+000000007+0000000050+0000000005+I20000000000+0000000050+Z
202793001202793112-116069     202793006009681820277TCS CARRIER BAG JUMBO  0000001000+00000048+00000+0001T   00000048+0000001735          1400 EA0090               2AZ
202794000202794               202794               170213LH     1400+00000+LH0000001490+0000001490+000000000+000000209+0000001690+0000000009+I20000000000+0000001690+Z
202794001202794077-000299     202794006003000395576G/BAG 32x25cm LRG LOVE 0000001000+00001490+00000+0001T   00001490+0000001737          1400 EA0112               2AZ
202795000202795               202795               170213LH     1400+00000+LH0000001576+0000001576+000000000+000000222+0000001798+0000000000+I40000001798+0000000000+Z
202795001202795903-000200     202795006009826020234SWT CHOC RP CHOCO 23G  0000002000+00000788+00000+0001T   00000788+0000001740          1400 EA0150               2AZ
202796000202796               202796               170213LH     1400+00000+LH0000002454+0000002454+000000000+000000344+0000002790+0000000008+I20000000000+0000002790+Z
202796001202796077-000151     202796006008766114676GIFT-WRAP C/PHANE ASSTD0000001000+00000876+00000+0001T   00000876+0000001744          1400 EA0112               2AZ
202796002202796077-000348     202796006001023483287GIFT-BOWS 4,5cm 8PCE   0000001000+00001578+00000+0001T   00001578+0000001744          1400 EA0112               2AZ
202797000202797               202797               170213LH     1400+00000+LH0000002138+0000002138+000000000+000000300+0000002430+0000000008+I20000000000+0000002430+Z
202797001202797002-021040     202797006001023812216PARTY-PICKS 100PCE     0000001000+00000525+00000+0001T   00000525+0000001751          1400 EA0300               2AZ
202797002202797028-000799     202797006001023812186SKEWERS BAMBOO 100PCE  0000001000+00001578+00000+0001T   00001578+0000001751          1400 EA0305               2AZ
202797003202797112-116038     202797006009681820246TCS CARRIER BAG MIDI   0000001000+00000035+00000+0001T   00000035+0000001751          1400 EA0090               2AZ
202798000202798               202798               170213LH     1400+00000+LH0000006138+0000006138+000000000+000000860+0000006990+0000000008+I20000000000+0000006990+Z
202798001202798072-020253     202798006001023535696PET DOG TOY RUBBER BONE0000001000+00004385+00000+0001T   00004385+0000001752          1400 EA0870               2AZ
202798002202798072-000228     202798006003000235940DOG-COL REFLCTV 25-40cm0000001000+00001753+00000+0001T   00001753+0000001752          1400 EA0870               2AZ
202799000202799               202799               170213LH     1400+00000+LH0000007484+0000007484+000000000+000001048+0000008532+0000000000+I40000008532+0000000000+Z
202799001202799004-071206     202799006003000605156USB CABLE CHARGER      0000001000+00003507+00000+0001T   00003507+0000001758          1400 EA0310               2AZ
202799002202799903-000194     202799006009826020616SWT CHOC RP LOLLY 25G  0000003000+00001314+00000+0001T   00001314+0000001758          1400 EA0150               2AZ
202799003202799112-116038     202799006009681820246TCS CARRIER BAG MIDI   0000001000+00000035+00000+0001T   00000035+0000001758          1400 EA0090               2AZ
202800000202800               202800               170213LH     1400+00000+LH0000003507+0000003507+000000000+000000491+0000003990+0000000008+I20000000000+0000003990+Z
202800001202800028-002101     202800006002580009507CHAIR JUNIOR    ASSTD  0000001000+00003507+00000+0001T   00003507+0000001801          1400 EA0305               2AZ
202801000202801               202801               170213LH     1400+00000+LH0000006447+0000006447+000000000+000000904+0000007350+0000000001+I20000000000+0000007350+Z
202801001202801077-000299     202801006003000395576G/BAG 32x25cm LRG LOVE 0000001000+00001490+00000+0001T   00001490+0000001802          1400 EA0112               2AZ
202801002202801018-000136     202801006001023659026MUG OCC LOVE W/PLUSH   0000001000+00003507+00000+0001T   00003507+0000001802          1400 EA0515               2AZ
202801003202801304-001204     202801006001023737984FLOWER OCC. TEDDY/ROSES0000001000+00001402+00000+0001T   00001490+0006471802          1400 EA0510               2AZ
202801004202801112-116069     202801006009681820277TCS CARRIER BAG JUMBO  0000001000+00000048+00000+0001T   00000048+0000001802          1400 EA0090               2AZ
202802000202802               202802               170213LH     1400+00000+LH0000000613+0000000613+000000000+000000086+0000000690+0000000009+I20000000000+0000000690+Z
202802001202802304-001011     202802006001023806727FLWR ROSE RED W/BEAR   0000001000+00000613+00000+0001T   00000788+0006471806          1400 EA0510               2AZ
202803000202803               202803               170213LH     1400+00000+LH0000005085+0000005085+000000000+000000712+0000005790+0000000007+I20000000000+0000005790+Z
202803001202803077-000303     202803006001023593757GIFT-BAG PAPER MED     0000001000+00001578+00000+0001T   00001578+0000001808          1400 EA0112               2AZ
202803002202803018-000136     202803006001023659026MUG OCC LOVE W/PLUSH   0000001000+00003507+00000+0001T   00003507+0000001808          1400 EA0515               2AZ
202804000202804               202804               170213LH     1400+00000+LH0000000048+0000000048+000000000+000000007+0000000050+0000000005+I20000000000+0000000050+Z
202804001202804112-116069     202804006009681820277TCS CARRIER BAG JUMBO  0000001000+00000048+00000+0001T   00000048+0000001808          1400 EA0090               2AZ
202805000202805               202805               170213LH     1400+00000+LH0000002630+0000002630+000000000+000000369+0000002990+0000000009+I20000000000+0000002990+Z
202805001202805565-000040     202805006008766115635NOVELTY ICON BEANIE    0000001000+00002630+00000+0001T   00002630+0000001809          1400 EA0745               2AZ
202806000202806               202806               170213LH     1400+00000+LH0000000876+0000000876+000000000+000000123+0000000990+0000000009+I20000000000+0000000990+Z
202806001202806083-000295     202806006001023898562LIGHTER-GAS BUTANE 18ml0000001000+00000876+00000+0001T   00000876+0000001811          1400 EA0315               2AZ
202807000202807               202807               170213LH     1400+00000+LH0000010524+0000010524+000000000+000001474+0000011990+0000000008+I20000000000+0000011990+Z
202807001202807107-004510     202807006002580008968STEP-STOOL PL          0000002000+00005262+00000+0001T   00005262+0000001816          1400 EA0210               2AZ
202808000202808               202808               170213LH     1400+00000+LH0000003067+0000003067+000000000+000000430+0000003490+0000000007+I20000000000+0000003490+Z
202808001202808039-001023     202808006003000466337CANDLE TEA-LITE METALIC0000001000+00001753+00000+0001T   00001753+0000001817          1400 EA0510               2AZ
202808002202808563-000317-B   202808006001023776174SERVIETTES PLN WHT PK400000001000+00001314+00000+0001T   00001314+0000001817          1400 EA0214               2AZ
202809000202809               202809               170213LH     1400+00000+LH0000001490+0000001490+000000000+000000209+0000001690+0000000009+I20000000000+0000001690+Z
202809001202809077-000299     202809006003000395576G/BAG 32x25cm LRG LOVE 0000001000+00001490+00000+0001T   00001490+0000001902          1400 EA0112               2AZ
A17021300                                          11062213LHSLAVE 2                       EA01IC
A17021301                                          11400576LHSLAVE 2                       EA01IC
A17021302                                          14215063LHSLAVE 2                       EA01IC
M17021391                              CASH        LHSLAVE 2                       Z-REPORT No.   541TOTAL (Sales - Refunds)           3098.37       CASH TO BE BANKED                 2179.60       DEBIT CARDS                          0.00       CREDIT CARDS                       918.87       Z-READING                         3098.37       AIRTIME DEBIT CARD SALES             0.00       AIRTIME CARD SALES                   0.00       OVERS/UNDERS                         0.10       AIRTIME CASH SALES                   0.00       GIFT CARDS                           0.00       GIFT CARD CASH SALES                 0.00       T O T A L  CASH PAYOUTS              0.00                                                                                                                                                                                                                                                                                                                                                      Z
M17021392                              CASH        LHABSENT                                                                                                                                                                                          ANNUAL LEAVE                                                                                                                                                                                    DAY OFF                                                                                                                                                                                         COMMENTS                                                                                                                                                                                                                                                                                                                                                                                       Z
Y17021300                                          LH00000000271948+000044
ZLH17021320023 SLAVE 2      SALES DATA                     NEXT INVOICE NO.  202810 0541
X LH Slave 2 First invoice 202765 170213 Last invoice 202809 170213 Next invoice 202810 Total number of records 000000164 clbackup completed 20:02:34
