104025000104025               104025               170213LI     1400+00000+LI0000003541+0000003541+000000000+000000497+0000004030+0000000008+I20000000000+0000004030+Z
104025001104025903-003080     104025005907029004673SWT SNACK STIX CHOC 50g0000001000+00000876+00000+0001T   00000876+0000000928          1400 AI5150               1AZ
104025002104025108-009000     104025006003000638673JELLY MOULD WITH LID PL0000001000+00002630+00000+0001T   00003507+0008170928          1400 AI5210               1AZ
104025003104025112-116038     104025006009681820246TCS CARRIER BAG MIDI   0000001000+00000035+00000+0001T   00000035+0000000928          1400 AI5090               1AZ
104026000104026               104026               170213LI     1400+00000+LI0000003507+0000003507+000000000+000000491+0000000000+0000000000+ 00000000000+0000000000+Z
104026001104026267-000233     104026006001023688576PUZZLE 48pc EDUCATIONAL0000001000+00003507+00000+0001T   00003507+000000              1400 AI57551IC            1 Z
104027000104027               104027               170213LI     1400+00000+LI0000002016+0000002016+000000000+000000283+0000002290+0000000009+I20000000000+0000002290+Z
104027001104027174-008025     104027006009654960399TRAVEL TUBS 4-PACK 30ml0000001000+00002016+00000+0001T   00002016+0000000937          1400 AI52051IC            1AZ
104028000104028               104028               170213LI     1400+00000+LI0000013539+0000013539+000000000+000001897+0000015430+0000000006+I20000000000+0000015430+Z
104028001104028048-000700     104028006001023849731HEAD-LAMP 10xLED (3xAAA0000001000+00004385+00000+0001T   00004385+0000001009          1400 AI5305               1AZ
104028002104028046-000010-A   104028006003000438778BATTERIES SIZE:AAA 4PCE0000002000+00002367+00000+0001T   00002367+0000001009          1400 AI5312               1AZ
104028003104028048-000700     104028006001023849731HEAD-LAMP 10xLED (3xAAA0000001000+00004385+00000+0001T   00004385+0000001009          1400 AI5305               1AZ
104028004104028112-116038     104028006009681820246TCS CARRIER BAG MIDI   0000001000+00000035+00000+0001T   00000035+0000001009          1400 AI5090               1AZ
104029000104029               104029               170213LI     1400+00000+LI0000003857+0000003857+000000000+000000541+0000004390+0000000008+I20000000000+0000004390+Z
104029001104029306-007302     104029006001023730954BACK-SCRATCH+MASSAGE-WH0000001000+00001753+00000+0001T   00001753+0000001010          1400 AI5200               1AZ
104029002104029903-000090     104029006009826020821SWT GS CHOCO COINS 60g 0000001000+00002104+00000+0001T   00002104+0000001010          1400 AI5150               1AZ
104030000104030               104030               170213LI     1400+00000+LI0000004856+0000004856+000000000+000000680+0000005530+0000000006+I20000000000+0000005530+Z
104030001104030018-000136     104030006001023659026MUG OCC LOVE W/PLUSH   0000001000+00003507+00000+0001T   00003507+0000001022          1400 AI5515               1AZ
104030002104030077-000385     104030006003000275366G/BAG GLITTER 18x23CM  0000001000+00001314+00000+0001T   00001314+0000001022          1400 AI5112               1AZ
104030003104030112-116038     104030006009681820246TCS CARRIER BAG MIDI   0000001000+00000035+00000+0001T   00000035+0000001022          1400 AI5090               1AZ
104031000104031               104031               170213LI     1400+00000+LI0000003507+0000003507+000000000+000000491+0000003990+0000000008+I20000000000+0000003990+Z
104031001104031018-000130     104031006001023867537MUG OCC LOVE MINI+HEART0000001000+00003507+00000+0001T   00003507+0000001024          1400 AI5515               1AZ
104032000104032               104032               170213LI     1400+00000+LI0000006139+0000006139+000000000+000000860+0000006990+0000000009+I20000000000+0000006990+Z
104032001104032007-000890-17  104032006003000645671CALENDAR 2017 ASSTD    0000001000+00006139+00000+0001T   00006139+0000001102          1400 AI5130               1AZ
104033000104033               104033               170213LI     1400+00000+LI0000001664+0000001664+000000000+000000234+0000001898+0000000000+I40000001898+0000000000+Z
104033001104033077-000011-D   104033006001023808554TISSUE-WRAP WHITE 10PCE0000001000+00000876+00000+0001T   00000876+0000001105          1400 AI5112               1AZ
104033002104033077-000010-C   104033006001023123879CREPE-PAPER RED        0000001000+00000788+00000+0001T   00000788+0000001105          1400 AI5112               1AZ
104034000104034               104034               170213LI     1400+00000+LI0000000876+0000000876+000000000+000000123+0000000990+0000000009+I20000000000+0000000990+Z
104034001104034078-000025     104034008887013700064SUPERGLUE 3g 1PCE CARD 0000001000+00000876+00000+0001T   00000876+0000001117          1400 AI5810               1AZ
104035000104035               104035               170213LI     1400+00000+LI0000006873+0000006873+000000000+000000964+0000007837+0000000000+I40000007837+0000000000+Z
104035001104035018-019000     104035006003000557288MUG OCC. LOVE JUMBO    0000001000+00005262+00000+0001T   00005262+0000001129          1400 AI5515               1AZ
104035002104035903-000200     104035006009826020234SWT CHOC RP CHOCO 23G  0000002000+00000788+00000+0001T   00000788+0000001129          1400 AI5150               1AZ
104035003104035112-116038     104035006009681820246TCS CARRIER BAG MIDI   0000001000+00000035+00000+0001T   00000035+0000001129          1400 AI5090               1AZ
104036000104036               104036               170213LI     1400+00000+LI0000005733+0000005733+000000000+000000804+0000006530+0000000007+I20000000000+0000006530+Z
104036001104036267-000200     104036006001023892379PUZZLE 24pc CARTOON    0000001000+00002192+00000+0001T   00002192+0000001130          1400 AI5755               1AZ
104036002104036562-059811     104036006003000158164EDU MAGNETIC NUMBERS   0000001000+00001753+00000+0001T   00001753+0000001130          1400 AI5755               1AZ
104036003104036466-000200     104036006001023621665HULA-HOOP     ASSTD    0000001000+00001753+00000+0001T   00001753+0000001130          1400 AI5785               1AZ
104036004104036112-116038     104036006009681820246TCS CARRIER BAG MIDI   0000001000+00000035+00000+0001T   00000035+0000001130          1400 AI5090               1AZ
104037000104037               104037               170213LI     1400+00000+LI0000004382+0000004382+000000000+000000615+0000004990+0000000007+I20000000000+0000004990+Z
104037001104037083-000050     104037006001023898593LIGHTERS DISPOSABLE    0000002000+00000876+00000+0001T   00000876+0000001131          1400 AI5315               1AZ
104037002104037105-001026     104037006001023803399CONTAINERS 3PCE        0000001000+00002630+00000+0001T   00002630+0000001131          1400 AI5210               1AZ
104038000104038               104038               170213LI     1400+00000+LI0000025335+0000025335+000000000+000003549+0000028884+0000000000+I40000028884+0000000000+Z
104038001104038365-005267     104038006001023584366P/SET KITCHEN BAKING PL0000002000+00003507+00000+0001T   00003507+0000001206          1400 AI5725               1AZ
104038002104038361-009105     104038006001023832016DOLLS FEEDING SET 3PC  0000001000+00002630+00000+0001T   00002630+0000001206          1400 AI5725               1AZ
104038003104038024-000212     104038006001023858030COOKIE-CUTTERS PL SMALL0000001000+00003069+00000+0001T   00003069+0000001206          1400 AI5300               1AZ
104038004104038565-000052     104038006003000615551NOVELTY PUTTY FARTS    0000002000+00001578+00000+0001T   00001578+0000001206          1400 AI5745               1AZ
104038005104038565-000044     104038006003000128280BARREL OF SLIME 100g   0000004000+00000613+00000+0001T   00000613+0000001206          1400 AI5745               1AZ
104038006104038562-000020     104038006003000600861EDU PLAY DOUGH 60g 4PC 0000001000+00003507+00000+0001T   00003507+0000001206          1400 AI5755               1AZ
104038007104038562-000020     104038006001023800336EDU PLAY DOUGH 60g 4PC 0000001000+00003507+00000+0001T   00003507+0000001206          1400 AI5755               1AZ
104039000104039               104039               170213LI     1400+00000+LI0000002980+0000002980+000000000+000000418+0000003390+0000000008+I20000000000+0000003390+Z
104039001104039006-000805     104039000013994092418STREAMERS 10-ROLLS     0000002000+00001490+00000+0001T   00001490+0000001208          1400 AI5131               1AZ
104040000104040               104040               170213LI     1400+00000+LI0000002630+0000002630+000000000+000000369+0000002999+0000000000+I40000002999+0000000000+Z
104040001104040004-071192     104040006003000528813USB CABLE 1.0m         0000001000+00002630+00000+0001T   00002630+0000001211          1400 AI5310               1AZ
104041000104041               104041               170213LI     1400+00000+LI0000002224+0000002224+000000000+000000313+0000002537+0000000000+I40000002537+0000000000+Z
104041001104041903-000200     104041006009826020234SWT CHOC RP CHOCO 23G  0000002000+00000788+00000+0001T   00000788+0000001214          1400 AI5150               1AZ
104041002104041304-001011     104041006001023806727FLWR ROSE RED W/BEAR   0000001000+00000613+00000+0001T   00000788+0006471214          1400 AI5510               1AZ
104041003104041112-116038     104041006009681820246TCS CARRIER BAG MIDI   0000001000+00000035+00000+0001T   00000035+0000001214          1400 AI5090               1AZ
104042000104042               104042               170213LI     1400+00000+LI0000004420+0000004420+000000000+000000619+0000005030+0000000009+I20000000000+0000005030+Z
104042001104042004-071270     104042006001023802156CD-DISCS WRITABLE 10PCE0000001000+00004385+00000+0001T   00004385+0000001214          1400 AI5310               1AZ
104042002104042112-116038     104042006009681820246TCS CARRIER BAG MIDI   0000001000+00000035+00000+0001T   00000035+0000001214          1400 AI5090               1AZ
104043000104043               104043               170213LI     1400+00000+LI0000007893+0000007893+000000000+000001106+0000008990+0000000009+I20000000000+0000008990+Z
104043001104043301-085007     104043006003000673698ORN OCC. LOVE S/PLAQUE 0000001000+00007893+00000+0001T   00007893+0000001431          1400 AI5505               1AZ
104044000104044               104044               170213LI     1400+00000+LI0000005381+0000005381+000000000+000000754+0000006130+0000000005+I20000000000+0000006130+Z
104044001104044301-000827     104044006001023872692ORN FAIRY MINI IN-BAG  0000001000+00003946+00000+0001T   00003946+0000001618          1400 AI5505               1AZ
104044002104044018-000177     104044006001023797513MUG MINI LOVE ASSTD    0000002000+00000700+00000+0001T   00000700+0000001618          1400 AI5515               1AZ
104044003104044112-116038     104044006009681820246TCS CARRIER BAG MIDI   0000001000+00000035+00000+0001T   00000035+0000001618          1400 AI5090               1AZ
104045000104045               104045               170213LI     1400+00000+LI0000004420+0000004420+000000000+000000619+0000005030+0000000009+I20000000000+0000005030+Z
104045001104045266-000508     104045006001023837172FIG ROBOT SET OF 6 8cm 0000001000+00004385+00000+0001T   00004385+0000001629          1400 AI5710               1AZ
104045002104045112-116038     104045006009681820246TCS CARRIER BAG MIDI   0000001000+00000035+00000+0001T   00000035+0000001629          1400 AI5090               1AZ
104046000104046               104046               170213LI     1400+00000+LI0000001753+0000001753+000000000+000000246+0000001990+0000000009+I20000000000+0000001990+Z
104046001104046051-002406     104046006003000139415SPRAY PL TRIGGER 700ml 0000001000+00001753+00000+0001T   00001753+0000001631          1400 AI5820               1AZ
104047000104047               104047               170213LI     1400+00000+LI0000004153+0000004153+000000000+000000582+0000004730+0000000005+I20000000000+0000004730+Z
104047001104047018-000119     104047006003000336074MUG DAILY STRAIGHT     0000001000+00001314+00000+0001T   00001753+0008171657          1400 AI5515               1AZ
104047002104047018-000127     104047006001023380289MUG OCC STRAIGHT LOVE  0000001000+00001578+00000+0001T   00001753+0006471657          1400 AI5515               1AZ
104047003104047304-001011     104047006001023806727FLWR ROSE RED W/BEAR   0000002000+00000613+00000+0001T   00000788+0006471657          1400 AI5510               1AZ
104047004104047112-116038     104047006009681820246TCS CARRIER BAG MIDI   0000001000+00000035+00000+0001T   00000035+0000001657          1400 AI5090               1AZ
104048000104048               104048               170213LI     1400+00000+LI0000000350+0000000350+000000000+000000049+0000000390+0000000009+I20000000000+0000000390+Z
104048001104048903-000159     104048006003000417629SWT LB SMALL DUMMIE    0000001000+00000350+00000+0001T   00000350+0000001703          1400 AI5150               1AZ
104049000104049               104049               170213LI     1400+00000+LI0000000613+0000000613+000000000+000000086+0000000690+0000000009+I20000000000+0000000690+Z
104049001104049077-000311     104049006001023608666GIFT-BAG 11X14CM GLOSS 0000001000+00000613+00000+0001T   00000613+0000001705          1400 AI5112               1AZ
104050000104050               104050               170213LI     1400+00000+LI0000007925+0000007925+000000000+000001111+0000009036+0000000000+I40000009036+0000000000+Z
104050001104050903-003075     104050003800065783125SWT CHOC FAFL WAFER 52g0000001000+00000876+00000+0001T   00000876+0000001708          1400 AI5150               1AZ
104050002104050368-000049     104050006003000536955PLUSH BEAR 15cm LOVE   0000001000+00004385+00000+0001T   00004385+0000001708          1400 AI5745               1AZ
104050003104050077-000005-D   104050006003000414567PAPER TISSUE 50x70cm   0000001000+00001753+00000+0001T   00001753+0000001708          1400 AI5112               1AZ
104050004104050077-000302     104050008010410010195GIFT-BAG 18X23CM E/D   0000001000+00000876+00000+0001T   00000876+0000001708          1400 AI5112               1AZ
104050005104050112-116038     104050006009681820246TCS CARRIER BAG MIDI   0000001000+00000035+00000+0001T   00000035+0000001708          1400 AI5090               1AZ
104051000104051               104051               170213LI     1400+00000+LI0000001927+0000001927+000000000+000000271+0000002190+0000000008+I20000000000+0000002190+Z
104051001104051304-001204     104051006001023737984FLOWER OCC. TEDDY/ROSES0000001000+00001402+00000+0001T   00001490+0006471708          1400 AI5510               1AZ
104051002104051903-000151     104051006009803374411SWT SML RND R/BOW LOLLY0000001000+00000525+00000+0001T   00000525+0000001708          1400 AI5150               1AZ
104052000104052               104052               170213LI     1400+00000+LI0000003769+0000003769+000000000+000000528+0000004290+0000000007+I20000000000+0000004290+Z
104052001104052903-000120     104052006002099001665SWEET GS ZILLIONS 50g  0000001000+00000700+00000+0001T   00000700+0000001711          1400 AI5150               1AZ
104052002104052048-000823     104052006003000063611TORCH DYNAMO 2LED 10cm 0000001000+00003069+00000+0001T   00003069+0000001711          1400 AI5305               1AZ
104053000104053               104053               170213LI     1400+00000+LI0000010294+0000010294+000000000+000001443+0000011730+0000000007+I20000000000+0000011730+Z
104053001104053077-000342     104053006003000273942G/BAG PAPER LRG 25X32CM0000001000+00001490+00000+0001T   00001490+0000001715          1400 AI5112               1AZ
104053002104053206-000290     104053006003000632541BOTTLE OPENER SILICONE 0000001000+00002630+00000+0001T   00002630+0000001715          1400 AI5321               1AZ
104053003104053001-000420     104053006003000591169BEER-MUG GLS JOKE G/BOX0000001000+00006139+00000+0001T   00006139+0000001715          1400 AI5515               1AZ
104053004104053112-116038     104053006009681820246TCS CARRIER BAG MIDI   0000001000+00000035+00000+0001T   00000035+0000001715          1400 AI5090               1AZ
104054000104054               104054               170213LI     1400+00000+LI0000001753+0000001753+000000000+000000246+0000001990+0000000009+I20000000000+0000001990+Z
104054001104054077-000290     104054006001023902023GIFT BOX 26x32x13cm    0000001000+00001753+00000+0001T   00001753+0000001715          1400 AI5112               1AZ
104055000104055               104055               170213LI     1400+00000+LI0000001753+0000001753+000000000+000000246+0000001990+0000000009+I20000000000+0000001990+Z
104055001104055566-000065     104055006003000217915STICKERS GLITTER ASSTD 0000001000+00001753+00000+0001T   00001753+0000001721          1400 AI5130               1AZ
104056000104056               104056               170213LI     1400+00000+LI0000003153+0000003153+000000000+000000444+0000003590+0000000007+I20000000000+0000003590+Z
104056001104056007-000119     104056006002324004126BOOK COVER PL          0000003000+00001051+00000+0001T   00001051+0000001721          1400 AI5130               1AZ
104057000104057               104057               170213LI     1400+00000+LI0000008358+0000008358+000000000+000001173+0000009531+0000000000+I40000009531+0000000000+Z
104057001104057105-001036     104057006003000621118CONTAINER W/VENT 350ml 0000002000+00000876+00000+0001T   00001490+0008161725          1400 AI5210               1AZ
104057002104057077-000305     104057006003000395422GIFT-BAG WINE 10X35CM  0000001000+00001490+00000+0001T   00001490+0000001725          1400 AI5112               1AZ
104057003104057567-011000     104057009780749854935BOOK CHILDREN'S READER 0000001000+00001314+00000+0001T   00001753+0008131725          1400 AI5757               1AZ
104057004104057174-000175     104057006001023730985LAUNDRY-BAG FOLD-AWAY  0000001000+00002630+00000+0001T   00002630+0000001725          1400 AI5205               1AZ
104057005104057564-000012     104057006001023130075BUBBLE BOTTLE MAGIC    0000001000+00000700+00000+0001T   00000700+0000001725          1400 AI5131               1AZ
104057006104057080-000133-A   104057006003000647019MINI VALENTINES CARD   0000001000+00000437+00000+0001T   00000437+0000001725          1400 AI5112               1AZ
104057007104057112-116038     104057006009681820246TCS CARRIER BAG MIDI   0000001000+00000035+00000+0001T   00000035+0000001725          1400 AI5090               1AZ
104058000104058               104058               170213LI     1400+00000+LI0000002630+0000002630+000000000+000000369+0000002990+0000000009+I20000000000+0000002990+Z
104058001104058304-001486     104058006003000035335FLWR BUNCH ROSE        0000001000+00002630+00000+0001T   00002630+0000001728          1400 AI5510               1AZ
104059000104059               104059               170213LI     1400+00000+LI0000000035+0000000035+000000000+000000005+0000000040+0000000000+I20000000000+0000000040+Z
104059001104059112-116038     104059006009681820246TCS CARRIER BAG MIDI   0000001000+00000035+00000+0001T   00000035+0000001728          1400 AI5090               1AZ
104060000104060               104060               170213LI     1400+00000+LI0000004822+0000004822+000000000+000000676+0000005490+0000000008+I20000000000+0000005490+Z
104060001104060080-000127     104060006003000424351VALENTINES DAY 36x24CM 0000001000+00002192+00000+0001T   00002192+0000001730          1400 AI5112               1AZ
104060002104060077-000270     104060006003000395453GIFT-BAG PPR JMB 33X45 0000001000+00002630+00000+0001T   00002630+0000001730          1400 AI5112               1AZ
104061000104061               104061               170213LI     1400+00000+LI0000014027+0000014027+000000000+000001966+0000015990+0000000003+I20000000000+0000015990+Z
104061001104061018-000136     104061006001023659026MUG OCC LOVE W/PLUSH   0000001000+00003507+00000+0001T   00003507+0000001745          1400 AI5515               1AZ
104061002104061018-000127     104061006001023380289MUG OCC STRAIGHT LOVE  0000001000+00001578+00000+0001T   00001753+0006471745          1400 AI5515               1AZ
104061003104061304-001204     104061006001023737984FLOWER OCC. TEDDY/ROSES0000002000+00001402+00000+0001T   00001490+0006471745          1400 AI5510               1AZ
104061004104061368-000001     104061006003000097982Plush Bear 25cm        0000001000+00004385+00000+0001T   00004385+0000001745          1400 AI5745               1AZ
104061005104061077-000299-A   104061006003000670888GIFT-BAG PAPER JMB LOVE0000001000+00001753+00000+0001T   00001753+0000001745          1400 AI5112               1AZ
104062000104062               104062               170213LI     1400+00000+LI0000001490+0000001490+000000000+000000209+0000001690+0000000009+I20000000000+0000001690+Z
104062001104062077-000299     104062006003000395576G/BAG 32x25cm LRG LOVE 0000001000+00001490+00000+0001T   00001490+0000001746          1400 AI5112               1AZ
104063000104063               104063               170213LI     1400+00000+LI0000000437+0000000437+000000000+000000062+0000000490+0000000009+I20000000000+0000000490+Z
104063001104063080-000133-A   104063006003000647019MINI VALENTINES CARD   0000001000+00000437+00000+0001T   00000437+0000001752          1400 AI5112               1AZ
104064000104064               104064               170213LI     1400+00000+LI0000000613+0000000613+000000000+000000086+0000000690+0000000009+I20000000000+0000000690+Z
104064001104064083-000055     104064006003000003853LIGHTER ELCTRNC REFILBL0000001000+00000613+00000+0001T   00000613+0000001759          1400 AI5315               1AZ
A17021300                                          09284402LISLAVE 1                       AI52IC
B10402700                                          170213LI174-008025     09365534SLAVE 1     AI51IC0000023000+0000001000+0000000000000+
M17021301                              IT          LIATT:IT                                          SLAVE 1 LAST SLIP 104064                        NYLSTROOM LI                                    THANKS
M17021391                              CASH        LISLAVE 1                       Z-REPORT No.   587TOTAL (Sales - Refunds)           2074.12       CASH TO BE BANKED                 1446.90       DEBIT CARDS                          0.00       CREDIT CARDS                       627.22       Z-READING                         2074.12       AIRTIME DEBIT CARD SALES             0.00       AIRTIME CARD SALES                   0.00       OVERS/UNDERS                         0.00       AIRTIME CASH SALES                   0.00       GIFT CARDS                           0.00       GIFT CARD CASH SALES                 0.00       T O T A L  CASH PAYOUTS              0.00                                                                                                                                                                                                                                                                                                                                                      Z
M17021392                              CASH        LIABSENT                                                                                                                                                                                          ANNUAL LEAVE                                                                                                                                                                                    DAY OFF                                                                                                                                                                                         COMMENTS                                                                                                                                                                                                                                                                                                                                                                                       Z
Y17021300                                          LI00000000182121+000039
ZLI17021320023 SLAVE 1      SALES DATA                     NEXT INVOICE NO.  104065 0587
X LI Slave 1 First invoice 104025 170213 Last invoice 104064 170213 Next invoice 104065 Total number of records 000000137 clbackup completed 20:02:39
