205077000205077               205077               170213LJ     1400+00000+LJ0000012277+0000012277+000000000+000001720+0000013997+0000000000+I40000013997+0000000000+Z
205077001205077077-000382     205077006003000247820GIFT-BAG MED 18X23CM   0000001000+00001753+00000+0001T   00001753+0000000957          1400 PT5112               2AZ
205077002205077566-000321     205077006003000423019STICKER R/DEC BALLERINA0000002000+00005262+00000+0001T   00005262+0000000957          1400 PT5130               2AZ
205078000205078               205078               170213LJ     1400+00000+LJ0000006139+0000006139+000000000+000000860+0000006990+0000000009+I20000000000+0000006990+Z
205078001205078567-011423     205078006003000641345BK COLOURING THERAPY A50000001000+00006139+00000+0001T   00006139+0000000959          1400 PT5757               2AZ
205079000205079               205079               170213LJ     1400+00000+LJ0000002980+0000002980+000000000+000000418+0000003390+0000000008+I20000000000+0000003390+Z
205079001205079077-000299     205079006003000395576G/BAG 32x25cm LRG LOVE 0000002000+00001490+00000+0001T   00001490+0000001010          1400 PT5112               2AZ
205080000205080               205080               170213LJ     1400+00000+LJ0000009117+0000009117+000000000+000001278+0000010390+0000000005+I20000000000+0000010390+Z
205080001205080024-091103     205080006003453014307BAKING-CUP MUFFIN 50PCE0000001000+00002192+00000+0001T   00002192+0000001023          1400 PT5300               2AZ
205080002205080024-091102-B   205080006003000111725BAKING-CUP MUFFIN 40PCE0000001000+00002630+00000+0001T   00002630+0000001023          1400 PT5300               2AZ
205080003205080024-091101     205080006003000419999B/CUP PAPER CUPS FLOWER0000001000+00003507+00000+0001T   00003507+0000001023          1400 PT5300               2AZ
205080004205080077-000010-C   205080006001023123879CREPE-PAPER RED        0000001000+00000788+00000+0001T   00000788+0000001023          1400 PT5112               2AZ
205081000205081               205081               170213LJ     1400+00000+LJ0000002630+0000002630+000000000+000000369+0000002990+0000000009+I20000000000+0000002990+Z
205081001205081089-000100     205081006003000565665K/CHAIN PET LOVERS     0000001000+00002630+00000+0001T   00002630+0000001031          1400 PT5205               2AZ
205082000205082               205082               170213LJ     1400+00000+LJ0000010435+0000010435+000000000+000001462+0000011890+0000000007+I20000000000+0000011890+Z
205082001205082077-000245     205082006001023759214GIFT-RIBBON METALLICx2 0000001000+00001227+00000+0001T   00001227+0000001032          1400 PT5112               2AZ
205082002205082566-000068     205082006003000418046POP UP LOVE 2 ASSTD    0000001000+00002192+00000+0001T   00002192+0000001032          1400 PT5130               2AZ
205082003205082368-000003     205082006003000098231PLUSH PONY 23cm        0000001000+00007016+00000+0001T   00007016+0000001032          1400 PT5745               2AZ
205083000205083               205083               170213LJ     1400+00000+LJ0000034444+0000034444+000000000+000004825+0000039260+0000000009+I20000000000+0000039260+Z
205083001205083112-116053     205083006006438002399TCS CARRIER BAG 38L    0000001000+00000069+00000+0001T   00000069+0000001038          1400 PT5090               2AZ
205083002205083077-000270     205083006003000395453GIFT-BAG PPR JMB 33X45 0000001000+00002630+00000+0001T   00002630+0000001038          1400 PT5112               2AZ
205083003205083301-085007     205083006003000673698ORN OCC. LOVE S/PLAQUE 0000001000+00007893+00000+0001T   00007893+0000001038          1400 PT5505               2AZ
205083004205083077-000303     205083006001023593757GIFT-BAG PAPER MED     0000004000+00001578+00000+0001T   00001578+0000001038          1400 PT5112               2AZ
205083005205083018-030000     205083006003000421060MUG OCCASIONS LOVE 2PCE0000004000+00004385+00000+0001T   00004385+0000001038          1400 PT5515               2AZ
205084000205084               205084               170213LJ     1400+00000+LJ0000002804+0000002804+000000000+000000394+0000003190+0000000008+I20000000000+0000003190+Z
205084001205084046-000011     205084004897006172994BATTERIES SIZE:AA  2PCE0000002000+00001402+00000+0001T   00001402+0000001055          1400 PT5312               2AZ
205085000205085               205085               170213LJ     1400+00000+LJ0000004385+0000004385+000000000+000000614+0000004999+0000000000+I40000004999+0000000000+Z
205085001205085065-003701     205085006001023712912MUSICAL SAXOPHONE      0000001000+00004385+00000+0001T   00004385+0000001121          1400 PT5745               2AZ
205086000205086               205086               170213LJ     1400+00000+LJ0000003506+0000003506+000000000+000000492+0000003990+0000000008+I20000000000+0000003990+Z
205086001205086077-000316     205086006001023609731GIFT-BAG 25X32CM MATT  0000002000+00001753+00000+0001T   00001753+0000001121          1400 PT5112               2AZ
205087000205087               205087               170213LJ     1400+00000+LJ0000002192+0000002192+000000000+000000307+0000002490+0000000009+I20000000000+0000002490+Z
205087001205087007-000046     205087006009635831366DISPLAY-BOOK PL A4 30PG0000001000+00002192+00000+0001T   00002192+0000001124          1400 PT5130               2AZ
205088000205088               205088               170213LJ     1400+00000+LJ0000003507+0000003507+000000000+000000491+0000003990+0000000008+I20000000000+0000003990+Z
205088001205088046-000005     205088004897006174844BATTERY 9VOLT ALKALINE 0000001000+00003507+00000+0001T   00003507+0000001138          1400 PT5312               2AZ
205089000205089               205089               170213LJ     1400+00000+LJ0000002279+0000002279+000000000+000000320+0000002590+0000000009+I20000000000+0000002590+Z
205089001205089027-001020     205089006001246602519BROOM FLOOR W/HANDLE   0000001000+00002279+00000+0001T   00002279+0000001157          1400 PT5212               2AZ
205090000205090               205090               170213LJ     1400+00000+LJ0000000876+0000000876+000000000+000000123+0000000990+0000000009+I20000000000+0000000990+Z
205090001205090566-000307     205090006003000522361STICKER SPARKLE        0000001000+00000876+00000+0001T   00000876+0000001201          1400 PT5130               2AZ
205091000205091               205091               170213LJ     1400+00000+LJ0000002980+0000002980+000000000+000000418+0000003390+0000000008+I20000000000+0000003390+Z
205091001205091565-004101     205091006003000548033BALL BOUNCING EGG      0000002000+00001490+00000+0001T   00001490+0000001215          1400 PT5745               2AZ
205092000205092               205092               170213LJ     1400+00000+LJ0000000613+0000000613+000000000+000000086+0000000690+0000000009+I20000000000+0000000690+Z
205092001205092304-001011     205092006001023806727FLWR ROSE RED W/BEAR   0000001000+00000613+00000+0001T   00000788+0006471217          1400 PT5510               2CZ
205093000205093               205093               170213LJ     1400+00000+LJ0000005259+0000005259+000000000+000000738+0000005990+0000000007+I20000000000+0000005990+Z
205093001205093251-000073     205093006003000452132PROTECTION-PADS BLK ADH0000002000+00001753+00000+0001T   00001753+0000001218          1400 PT5810               2BZ
205093002205093251-000074     205093006003000452255PROTECTION-PADS BLK ADH0000001000+00001753+00000+0001T   00001753+0000001218          1400 PT5810               2BZ
205094000205094               205094               170213LJ     1400+00000+LJ0000001753+0000001753+000000000+000000246+0000001990+0000000009+I20000000000+0000001990+Z
205094001205094037-000004     205094006001023763679ASHTRAY PL TUB 8X11CM  0000001000+00001753+00000+0001T   00002192+0008191232          1400 PT5515               2AZ
205095000205095               205095               170213LJ     1400+00000+LJ0000002488+0000002488+000000000+000000349+0000002830+0000000007+I20000000000+0000002830+Z
205095001205095564-000012     205095006001023130075BUBBLE BOTTLE MAGIC    0000001000+00000700+00000+0001T   00000700+0000001235          1400 PT5131               2AZ
205095002205095006-000124     205095006003000625888BALLOONS 10PC MIX COL  0000001000+00001753+00000+0001T   00001753+0000001235          1400 PT5131               2AZ
205095003205095112-116038     205095006009681820246TCS CARRIER BAG MIDI   0000001000+00000035+00000+0001T   00000035+0000001235          1400 PT5090               2AZ
205096000205096               205096               170213LJ     1400+00000+LJ0000002192+0000002192+000000000+000000307+0000000000+0000000000+ 00000000000+0000000000+Z
205096001205096077-000926     205096006003000414178G/WRAP 700mmx2m LOVE   0000001000+00002192+00000+0001T   00002192+000000              1400 PT51123IC            2 Z
205097000205097               205097               170213LJ     1400+00000+LJ0000001753+0000001753+000000000+000000246+0000001990+0000000009+I20000000000+0000001990+Z
205097001205097077-000908     205097006003000410927G/WRAP 700mmx1m FLOWER 0000001000+00001753+00000+0001T   00001753+0000001238          1400 PT5112               2AZ
205098000205098               205098               170213LJ     1400+00000+LJ0000007694+0000007694+000000000+000001081+0000008770+0000000005+I20000000000+0000008770+Z
205098001205098007-000566     205098006003000640898NOVELTY PHONE NOTE-PAD 0000002000+00001490+00000+0001T   00001490+0000001247          1400 PT5130               2AZ
205098002205098464-000121     205098006003000640492PLAYING CARDS MINI     0000001000+00000700+00000+0001T   00000700+0000001247          1400 PT5785               2AZ
205098003205098018-000177     205098006001023797513MUG MINI LOVE ASSTD    0000004000+00000700+00000+0001T   00000700+0000001247          1400 PT5515               2AZ
205098004205098903-000183     205098006003000451043SWT LB HEART LOLLY     0000003000+00000393+00000+0001T   00000393+0000001247          1400 PT5150               2AZ
205098005205098112-116038     205098006009681820246TCS CARRIER BAG MIDI   0000001000+00000035+00000+0001T   00000035+0000001247          1400 PT5090               2AZ
205099000205099               205099               170213LJ     1400+00000+LJ0000001753+0000001753+000000000+000000246+0000001990+0000000009+I20000000000+0000001990+Z
205099001205099077-000115     205099006001023834225WRAP METALLIC 700mmx1m 0000001000+00001753+00000+0001T   00001753+0000001252          1400 PT5112               2AZ
205100000205100               205100               170213LJ     1400+00000+LJ0000005109+0000005109+000000000+000000720+0000005820+0000000009+I20000000000+0000005820+Z
205100001205100903-000183     205100006003000451043SWT LB HEART LOLLY     0000004000+00000393+00000+0001T   00000393+0000001259          1400 PT5150               2AZ
205100002205100903-000200     205100006009826020234SWT CHOC RP CHOCO 23G  0000001000+00000788+00000+0001T   00000788+0000001259          1400 PT5150               2AZ
205100003205100903-000194     205100006009826020616SWT CHOC RP LOLLY 25G  0000001000+00001314+00000+0001T   00001314+0000001259          1400 PT5150               2AZ
205100004205100018-000177     205100006001023797513MUG MINI LOVE ASSTD    0000002000+00000700+00000+0001T   00000700+0000001259          1400 PT5515               2AZ
205100005205100112-116038     205100006009681820246TCS CARRIER BAG MIDI   0000001000+00000035+00000+0001T   00000035+0000001259          1400 PT5090               2AZ
205101000205101               205101               170213LJ     1400+00000+LJ0000011268+0000011268+000000000+000001579+0000012847+0000000000+I40000012847+0000000000+Z
205101001205101112-116069     205101006009681820277TCS CARRIER BAG JUMBO  0000001000+00000048+00000+0001T   00000048+0000001303          1400 PT5090               2AZ
205101002205101089-000018     205101006003000176724KEY CHAIN INSPIRATION  0000001000+00003507+00000+0001T   00003507+0000001303          1400 PT5205               2AZ
205101003205101077-000011-X   205101006001023809827TISSUE-WRAP SILVER 10PC0000001000+00001753+00000+0001T   00001753+0000001303          1400 PT5112               2AZ
205101004205101077-000465     205101006003000681570GIFT-BAG MTLC GLIT LRG 0000001000+00003507+00000+0001T   00003507+0000001303          1400 PT5112               2AZ
205101005205101903-000126     205101006002099003591SWT ZILLIONS MINT 50G  0000001000+00000700+00000+0001T   00000700+0000001303          1400 PT5150               2AZ
205101006205101565-000043     205101006003000109562NOVELTY BALL FUNNY FACE0000001000+00001753+00000+0001T   00001753+0000001303          1400 PT5745               2AZ
205102000205102               205102               170213LJ     1400+00000+LJ0000001753+0000001753+000000000+000000246+0000001990+0000000009+I20000000000+0000001990+Z
205102001205102084-009407     205102006001023861726SCISSORS 13cm MTL PL-H 0000001000+00001753+00000+0001T   00001753+0000001311          1400 PT5200               2AZ
205103000205103               205103               170213LJ     1400+00000+LJ0000001928+0000001928+000000000+000000270+0000002190+0000000008+I20000000000+0000002190+Z
205103001205103174-008034     205103006009654960610TRAVEL BOTTLES 150ml   0000001000+00001928+00000+0001T   00001928+0000001313          1400 PT5205               2AZ
205104000205104               205104               170213LJ     1400+00000+LJ0000002665+0000002665+000000000+000000374+0000003039+0000000000+I40000003039+0000000000+Z
205104001205104467-000038     205104006003000654864BEACH-SET PL TRUCK 5PC 0000001000+00002630+00000+0001T   00002630+0000001316          1400 PT5785               2AZ
205104002205104112-116038     205104006009681820246TCS CARRIER BAG MIDI   0000001000+00000035+00000+0001T   00000035+0000001316          1400 PT5090               2AZ
205105000205105               205105               170213LJ     1400+00000+LJ0000010917+0000010917+000000000+000001529+0000012440+0000000006+I20000000000+0000012440+Z
205105001205105018-005009     205105006001023725608MUG W/PLUSH-BEAR LOVE  0000001000+00003507+00000+0001T   00003507+0000001318          1400 PT5515               2AZ
205105002205105903-004960     205105008410525221842SWT GUMMY STR/BERRY 50G0000001000+00000964+00000+0001T   00000964+0000001318          1400 PT5150               2AZ
205105003205105018-000177     205105006001023797513MUG MINI LOVE ASSTD    0000001000+00000700+00000+0001T   00000700+0000001318          1400 PT5515               2AZ
205105004205105080-000127     205105006003000424351VALENTINES DAY 36x24CM 0000002000+00002192+00000+0001T   00002192+0000001318          1400 PT5112               2AZ
205105005205105903-000194     205105006009826020616SWT CHOC RP LOLLY 25G  0000001000+00001314+00000+0001T   00001314+0000001318          1400 PT5150               2AZ
205105006205105112-116069     205105006009681820277TCS CARRIER BAG JUMBO  0000001000+00000048+00000+0001T   00000048+0000001318          1400 PT5090               2AZ
205106000205106               205106               170213LJ     1400+00000+LJ0000015609+0000015609+000000000+000002186+0000017795+0000000000+I40000017795+0000000000+Z
205106001205106040-000103     205106000694202201862C/HOLDER-SET 5PC W/TRAY0000001000+00011402+00000+0001T   00013157+0008191331          1400 PT5510               2AZ
205106002205106018-005009     205106006001023725608MUG W/PLUSH-BEAR LOVE  0000001000+00003507+00000+0001T   00003507+0000001331          1400 PT5515               2AZ
205106003205106018-000177     205106006001023797513MUG MINI LOVE ASSTD    0000001000+00000700+00000+0001T   00000700+0000001331          1400 PT5515               2AZ
205107000205107               205107               170213LJ     1400+00000+LJ0000009167+0000009167+000000000+000001285+0000010452+0000000000+I40000010452+0000000000+Z
205107001205107077-000475     205107006003000640775GIFT-BAG DESIGNER MED  0000001000+00002630+00000+0001T   00002630+0000001357          1400 PT5112               2AZ
205107002205107903-000095     205107006001704011495SWT SPECKLED-EGGS 100G 0000001000+00002104+00000+0001T   00002104+0000001357          1400 PT5150               2AZ
205107003205107018-030000     205107006003000421060MUG OCCASIONS LOVE 2PCE0000001000+00004385+00000+0001T   00004385+0000001357          1400 PT5515               2AZ
205107004205107112-116069     205107006009681820277TCS CARRIER BAG JUMBO  0000001000+00000048+00000+0001T   00000048+0000001357          1400 PT5090               2AZ
205108000205108               205108               170213LJ     1400+00000+LJ0000003504+0000003504+000000000+000000492+0000003990+0000000006+I20000000000+0000003990+Z
205108001205108252-000013     205108006001023488107CURTN-HOOK R6 ACETYLx500000002000+00000876+00000+0001T   00000876+0000001401          1400 PT5810               2AZ
205108002205108252-000011     205108006001023475190CURTN-GLIDER ACETYL x500000002000+00000876+00000+0001T   00000876+0000001401          1400 PT5810               2AZ
205109000205109               205109               170213LJ     1400+00000+LJ0000001402+0000001402+000000000+000000197+0000001590+0000000009+I20000000000+0000001590+Z
205109001205109304-001204     205109006001023737984FLOWER OCC. TEDDY/ROSES0000001000+00001402+00000+0001T   00001490+0006471403          1400 PT5510               2AZ
205110000205110               205110               170213LJ     1400+00000+LJ0000000393+0000000393+000000000+000000056+0000000440+0000000009+I20000000000+0000000440+Z
205110001205110903-000183     205110006003000451043SWT LB HEART LOLLY     0000001000+00000393+00000+0001T   00000393+0000001404          1400 PT5150               2AZ
205111000205111               205111               170213LJ     1400+00000+LJ0000007925+0000007925+000000000+000001112+0000009030+0000000007+I20000000000+0000009030+Z
205111001205111206-000450     205111006003000619863DRINKING JAR GLOBE     0000001000+00002630+00000+0001T   00002630+0000001423          1400 PT5321               2BZ
205111002205111206-000620     205111006003000631797BACK SCRATCHER EXTEND  0000002000+00002630+00000+0001T   00002630+0000001423          1400 PT5321               2BZ
205111003205111112-116038     205111006009681820246TCS CARRIER BAG MIDI   0000001000+00000035+00000+0001T   00000035+0000001423          1400 PT5090               2BZ
205112000205112               205112               170213LJ     1400+00000+LJ0000003452+0000003452+000000000+000000485+0000003937+0000000000+I40000003937+0000000000+Z
205112001205112071-081101-A   205112006003000326549GLUE-STICK 25g BLISTER 0000001000+00000788+00000+0001T   00000788+0000001430          1400 PT5130               2BZ
205112002205112002-000905     205112006003000657933CAN-OPENER JAR GRIP    0000001000+00001753+00000+0001T   00001753+0000001430          1400 PT5300               2BZ
205112003205112077-000302     205112008010410010195GIFT-BAG 18X23CM E/D   0000001000+00000876+00000+0001T   00000876+0000001430          1400 PT5112               2BZ
205112004205112112-116038     205112006009681820246TCS CARRIER BAG MIDI   0000001000+00000035+00000+0001T   00000035+0000001430          1400 PT5090               2BZ
205113000205113               205113               170213LJ     1400+00000+LJ0000018873+0000018873+000000000+000002647+0000021520+0000000000+I40000021520+0000000000+Z
205113001205113366-002195     205113006001023990549DRESS UP WINGS FEATHER 0000002000+00005262+00000+0001T   00005262+0000001434          1400 PT5131               2BZ
205113002205113903-000183     205113006003000451043SWT LB HEART LOLLY     0000004000+00000393+00000+0001T   00000393+0000001434          1400 PT5150               2BZ
205113003205113112-116038     205113006009681820246TCS CARRIER BAG MIDI   0000001000+00000035+00000+0001T   00000035+0000001434          1400 PT5090               2BZ
205113004205113018-000177     205113006001023797513MUG MINI LOVE ASSTD    0000004000+00000700+00000+0001T   00000700+0000001434          1400 PT5515               2BZ
205113005205113903-000194     205113006009826020616SWT CHOC RP LOLLY 25G  0000003000+00001314+00000+0001T   00001314+0000001434          1400 PT5150               2BZ
205114000205114               205114               170213LJ     1400+00000+LJ0000006576+0000006576+000000000+000000921+0000007490+0000000007+I20000000000+0000007490+Z
205114001205114037-000008     205114006003000171750ASHTRAY TIN TUB 10X7.5 0000003000+00002192+00000+0001T   00002192+0000001434          1400 PT5515               2BZ
205115000205115               205115               170213LJ     1400+00000+LJ0000011448+0000011448+000000000+000001604+0000013050+0000000002+I20000000000+0000013050+Z
205115001205115077-000151     205115006008766114676GIFT-WRAP C/PHANE ASSTD0000002000+00000876+00000+0001T   00000876+0000001435          1400 PT5112               2BZ
205115002205115028-000026     205115006001023810847COOLER-BAG+POCKET NYLON0000001000+00009648+00000+0001T   00009648+0000001435          1400 PT5305               2BZ
205115003205115112-116069     205115006009681820277TCS CARRIER BAG JUMBO  0000001000+00000048+00000+0001T   00000048+0000001435          1400 PT5090               2BZ
205116000205116               205116               170213LJ     1400+00000+LJ0000002630+0000002630+000000000+000000369+0000002990+0000000009+I20000000000+0000002990+Z
205116001205116077-000235     205116006003000160211GIFT-RIBBON ROLL METALC0000001000+00002630+00000+0001T   00002630+0000001436          1400 PT5112               2BZ
205117000205117               205117               170213LJ     1400+00000+LJ0000007926+0000007926+000000000+000001111+0000009030+0000000007+I20000000000+0000009030+Z
205117001205117077-000151     205117006008766114676GIFT-WRAP C/PHANE ASSTD0000001000+00000876+00000+0001T   00000876+0000001505          1400 PT5112               2AZ
205117002205117077-000251     205117006003000639106GIFT-DECOR RIBBON      0000001000+00002630+00000+0001T   00002630+0000001505          1400 PT5112               2AZ
205117003205117029-000009     205117006001023809575BUCKET GALV  2L        0000001000+00004385+00000+0001T   00004385+0000001505          1400 PT5510               2AZ
205117004205117112-116038     205117006009681820246TCS CARRIER BAG MIDI   0000001000+00000035+00000+0001T   00000035+0000001505          1400 PT5090               2AZ
205118000205118               205118               170213LJ     1400+00000+LJ0000006886+0000006886+000000000+000000966+0000007850+0000000002+I20000000000+0000007850+Z
205118001205118112-116069     205118006009681820277TCS CARRIER BAG JUMBO  0000001000+00000048+00000+0001T   00000048+0000001509          1400 PT5090               2AZ
205118002205118077-000270     205118006003000395453GIFT-BAG PPR JMB 33X45 0000001000+00002630+00000+0001T   00002630+0000001509          1400 PT5112               2AZ
205118003205118080-000124     205118006003000297733CARD & ENV VALENTINES  0000001000+00001578+00000+0001T   00001578+0000001509          1400 PT5112               2AZ
205118004205118073-000157     205118006003000571734COSMETIC QUILTED BAG   0000001000+00002630+00000+0001T   00002630+0000001509          1400 PT5200               2AZ
205119000205119               205119               170213LJ     1400+00000+LJ0000002835+0000002835+000000000+000000397+0000003230+0000000002+I20000000000+0000003230+Z
205119001205119564-000012     205119006001023130075BUBBLE BOTTLE MAGIC    0000004000+00000700+00000+0001T   00000700+0000001510          1400 PT5131               2AZ
205119002205119112-116038     205119006009681820246TCS CARRIER BAG MIDI   0000001000+00000035+00000+0001T   00000035+0000001510          1400 PT5090               2AZ
205120000205120               205120               170213LJ     1400+00000+LJ0000007313+0000007313+000000000+000001025+0000008338+0000000000+I40000008338+0000000000+Z
205120001205120112-116038     205120006009681820246TCS CARRIER BAG MIDI   0000001000+00000035+00000+0001T   00000035+0000001522          1400 PT5090               2AZ
205120002205120368-000175     205120006003000270316PLUSH BEAR 4 ASSTD 18CM0000001000+00006139+00000+0001T   00006139+0000001522          1400 PT5745               2AZ
205120003205120089-000150     205120006003000674268K/CHAIN PLUSH EMOTICON 0000001000+00001139+00000+0001T   00001139+0000001522          1400 PT5205               2AZ
205121000205121               205121               170213LJ     1400+00000+LJ0000004693+0000004693+000000000+000000658+0000005351+0000000000+I40000005351+0000000000+Z
205121001205121077-000926     205121006003000414178G/WRAP 700mmx2m LOVE   0000001000+00002192+00000+0001T   00002192+0000001526          1400 PT5112               2AZ
205121002205121018-000177     205121006001023797513MUG MINI LOVE ASSTD    0000001000+00000700+00000+0001T   00000700+0000001526          1400 PT5515               2AZ
205121003205121301-085002     205121006003000420704ORN OCC. LOVE BELL ASST0000001000+00001753+00000+0001T   00002630+0008121526          1400 PT5505               2AZ
205121004205121112-116069     205121006009681820277TCS CARRIER BAG JUMBO  0000001000+00000048+00000+0001T   00000048+0000001526          1400 PT5090               2AZ
205122000205122               205122               170213LJ     1400+00000+LJ0000002628+0000002628+000000000+000000369+0000002990+0000000007+I20000000000+0000002990+Z
205122001205122903-000123     205122006925925909280SWEET GS MINI MALLOWS  0000003000+00000876+00000+0001T   00000876+0000001531          1400 PT5150               2AZ
205123000205123               205123               170213LJ     1400+00000+LJ0000000613+0000000613+000000000+000000086+0000000690+0000000009+I20000000000+0000000690+Z
205123001205123304-001011     205123006001023806727FLWR ROSE RED W/BEAR   0000001000+00000613+00000+0001T   00000788+0006471536          1400 PT5510               2AZ
205124000205124               205124               170213LJ     1400+00000+LJ0000000613+0000000613+000000000+000000086+0000000690+0000000009+I20000000000+0000000690+Z
205124001205124304-001011     205124006001023806727FLWR ROSE RED W/BEAR   0000001000+00000613+00000+0001T   00000788+0006471536          1400 PT5510               2AZ
205125000205125               205125               170213LJ     1400+00000+LJ0000010679+0000010679+000000000+000001503+0000012182+0000000000+I40000012182+0000000000+Z
205125001205125903-000183     205125006003000451043SWT LB HEART LOLLY     0000007000+00000393+00000+0001T   00000393+0000001538          1400 PT5150               2AZ
205125002205125301-085007     205125006003000673698ORN OCC. LOVE S/PLAQUE 0000001000+00007893+00000+0001T   00007893+0000001538          1400 PT5505               2AZ
205125003205125112-116038     205125006009681820246TCS CARRIER BAG MIDI   0000001000+00000035+00000+0001T   00000035+0000001538          1400 PT5090               2AZ
205126000205126               205126               170213LJ     1400+00000+LJ0000001402+0000001402+000000000+000000197+0000001590+0000000009+I20000000000+0000001590+Z
205126001205126304-001204     205126006001023737984FLOWER OCC. TEDDY/ROSES0000001000+00001402+00000+0001T   00001490+0006471538          1400 PT5510               2AZ
205127000205127               205127               170213LJ     1400+00000+LJ0000005260+0000005260+000000000+000000738+0000005990+0000000008+I20000000000+0000005990+Z
205127001205127006-000111     205127006003000519385BALLOONS LARGE 12PCE   0000002000+00002630+00000+0001T   00002630+0000001539          1400 PT5131               2AZ
205128000205128               205128               170213LJ     1400+00000+LJ0000004645+0000004645+000000000+000000651+0000005290+0000000006+I20000000000+0000005290+Z
205128001205128903-000194     205128006009826020616SWT CHOC RP LOLLY 25G  0000001000+00001314+00000+0001T   00001314+0000001541          1400 PT5150               2AZ
205128002205128077-000303     205128006001023593757GIFT-BAG PAPER MED     0000001000+00001578+00000+0001T   00001578+0000001541          1400 PT5112               2AZ
205128003205128077-000299-A   205128006003000670888GIFT-BAG PAPER JMB LOVE0000001000+00001753+00000+0001T   00001753+0000001541          1400 PT5112               2AZ
205129000205129               205129               170213LJ     1400+00000+LJ0000002630+0000002630+000000000+000000369+0000002990+0000000009+I20000000000+0000002990+Z
205129001205129027-009025     205129006003962000747DUSTPAN-SET PL         0000001000+00002630+00000+0001T   00002630+0000001542          1400 PT5212               2AZ
205130000205130               205130               170213LJ     1400+00000+LJ0000001753+0000001753+000000000+000000246+0000001990+0000000009+I20000000000+0000001990+Z
205130001205130089-000030     205130006003000575671K/CHAIN LOVE MTL ASSTD 0000001000+00001753+00000+0001T   00001753+0000001543          1400 PT5205               2AZ
205131000205131               205131               170213LJ     1400+00000+LJ0000007575+0000007575+000000000+000001062+0000008630+0000000007+I20000000000+0000008630+Z
205131001205131112-116038     205131006009681820246TCS CARRIER BAG MIDI   0000001000+00000035+00000+0001T   00000035+0000001544          1400 PT5090               2AZ
205131002205131368-000049     205131006003000536955PLUSH BEAR 15cm LOVE   0000001000+00004385+00000+0001T   00004385+0000001544          1400 PT5745               2AZ
205131003205131304-001204     205131006001023737984FLOWER OCC. TEDDY/ROSES0000001000+00001402+00000+0001T   00001490+0006471544          1400 PT5510               2AZ
205131004205131080-000113     205131006003000237449CARD&ENVLPE - LOVE     0000001000+00001753+00000+0001T   00001753+0000001544          1400 PT5112               2AZ
205132000205132               205132               170213LJ     1400+00000+LJ0000001788+0000001788+000000000+000000251+0000002030+0000000009+I20000000000+0000002030+Z
205132001205132077-000309     205132006001023608604GIFT-BAG 25X32CM GLOSS 0000001000+00001753+00000+0001T   00001753+0000001549          1400 PT5112               2AZ
205132002205132112-116038     205132006009681820246TCS CARRIER BAG MIDI   0000001000+00000035+00000+0001T   00000035+0000001549          1400 PT5090               2AZ
205133000205133               205133               170213LJ     1400+00000+LJ0000008771+0000008771+000000000+000001228+0000009999+0000000000+I40000009999+0000000000+Z
205133001205133368-000614     205133006001023705808PLUSH LOVE 30cm        0000001000+00008771+00000+0001T   00008771+0000001551          1400 PT5745               2AZ
205134000205134               205134               170213LJ     1400+00000+LJ0000003506+0000003506+000000000+000000492+0000003990+0000000008+I20000000000+0000003990+Z
205134001205134563-000317-J   205134006001023776419SERVIETTE 2PLY 33cm    0000001000+00001753+00000+0001T   00001753+0000001609          1400 PT5214               2AZ
205134002205134563-000317-K   205134006003000697885SERVIETTE 2PLY 33cm    0000001000+00001753+00000+0001T   00001753+0000001609          1400 PT5214               2AZ
205135000205135               205135               170213LJ     1400+00000+LJ0000004235+0000004235+000000000+000000593+0000004820+0000000008+I20000000000+0000004820+Z
205135001205135018-000177     205135006001023797513MUG MINI LOVE ASSTD    0000006000+00000700+00000+0001T   00000700+0000001611          1400 PT5515               2AZ
205135002205135112-116038     205135006009681820246TCS CARRIER BAG MIDI   0000001000+00000035+00000+0001T   00000035+0000001611          1400 PT5090               2AZ
205136000205136               205136               170213LJ     1400+00000+LJ0000007014+0000007014+000000000+000000982+0000007990+0000000006+I20000000000+0000007990+Z
205136001205136018-000136     205136006001023659026MUG OCC LOVE W/PLUSH   0000001000+00003507+00000+0001T   00003507+0000001612          1400 PT5515               2AZ
205136002205136018-005009     205136006001023725608MUG W/PLUSH-BEAR LOVE  0000001000+00003507+00000+0001T   00003507+0000001612          1400 PT5515               2AZ
205137000205137               205137               170213LJ     1400+00000+LJ0000009413+0000009413+000000000+000001319+0000010732+0000000000+I40000010732+0000000000+Z
205137001205137037-000002     205137006001023994745ASHTRAY SPIN METAL 9cm 0000001000+00003507+00000+0001T   00003507+0000001615          1400 PT5515               2AZ
205137002205137084-006995     205137006003000092802NAIL CLIPPER 8cm TOE   0000001000+00001753+00000+0001T   00001753+0000001615          1400 PT5200               2AZ
205137003205137084-070001     205137006001023630018NAIL FILE 12cm         0000001000+00001490+00000+0001T   00001490+0000001615          1400 PT5200               2AZ
205137004205137903-000194     205137006009826020616SWT CHOC RP LOLLY 25G  0000002000+00001314+00000+0001T   00001314+0000001615          1400 PT5150               2AZ
205137005205137112-116038     205137006009681820246TCS CARRIER BAG MIDI   0000001000+00000035+00000+0001T   00000035+0000001615          1400 PT5090               2AZ
205138000205138               205138               170213LJ     1400+00000+LJ0000000876+0000000876+000000000+000000123+0000000990+0000000009+I20000000000+0000000990+Z
205138001205138083-000295     205138006001023898562LIGHTER-GAS BUTANE 18ml0000001000+00000876+00000+0001T   00000876+0000001616          1400 PT5315               2AZ
205139000205139               205139               170213LJ     1400+00000+LJ0000007049+0000007049+000000000+000000987+0000008036+0000000000+I40000008036+0000000000+Z
205139001205139018-000136     205139006001023659026MUG OCC LOVE W/PLUSH   0000002000+00003507+00000+0001T   00003507+0000001622          1400 PT5515               2AZ
205139002205139112-116038     205139006009681820246TCS CARRIER BAG MIDI   0000001000+00000035+00000+0001T   00000035+0000001622          1400 PT5090               2AZ
205140000205140               205140               170213LJ     1400+00000+LJ0000004420+0000004420+000000000+000000619+0000005030+0000000009+I20000000000+0000005030+Z
205140001205140018-030000     205140006003000421060MUG OCCASIONS LOVE 2PCE0000001000+00004385+00000+0001T   00004385+0000001623          1400 PT5515               2AZ
205140002205140112-116038     205140006009681820246TCS CARRIER BAG MIDI   0000001000+00000035+00000+0001T   00000035+0000001623          1400 PT5090               2AZ
205141000205141               205141               170213LJ     1400+00000+LJ0000012892+0000012892+000000000+000001806+0000014690+0000000008+I20000000000+0000014690+Z
205141001205141368-000637     205141006001023874092PLUSH BEAR SLEEPING LOV0000001000+00011402+00000+0001T   00012279+0006471628          1400 PT5745               2AZ
205141002205141077-000299     205141006003000395576G/BAG 32x25cm LRG LOVE 0000001000+00001490+00000+0001T   00001490+0000001628          1400 PT5112               2AZ
205142000205142               205142               170213LJ     1400+00000+LJ0000036878+0000036878+000000000+000005165+0000042043+0000000000+I40000042043+0000000000+Z
205142001205142368-000637     205142006001023874092PLUSH BEAR SLEEPING LOV0000002000+00011402+00000+0001T   00012279+0006471632          1400 PT5745               2AZ
205142002205142112-116069     205142006009681820277TCS CARRIER BAG JUMBO  0000001000+00000048+00000+0001T   00000048+0000001632          1400 PT5090               2AZ
205142003205142903-000194     205142006009826020616SWT CHOC RP LOLLY 25G  0000004000+00001314+00000+0001T   00001314+0000001632          1400 PT5150               2AZ
205142004205142006-000190     205142006003000685530BALLOONS LOVE 81x91cm  0000002000+00004385+00000+0001T   00004385+0000001632          1400 PT5131               2AZ
205143000205143               205143               170213LJ     1400+00000+LJ0000015543+0000015543+000000000+000002183+0000017726+0000000000+I40000017726+0000000000+Z
205143001205143112-116038     205143006009681820246TCS CARRIER BAG MIDI   0000001000+00000035+00000+0001T   00000035+0000001640          1400 PT5090               2AZ
205143002205143077-000010-Z   205143006001023157874CREPE-PAPER BLK/ORG/PUR0000001000+00000788+00000+0001T   00000788+0000001640          1400 PT5112               2AZ
205143003205143077-000010-F   205143006003453000461CREPE-PAPER BLUE       0000001000+00000788+00000+0001T   00000788+0000001640          1400 PT5112               2AZ
205143004205143566-000359     205143006003000582709STICKER BOOK LOVE SPARK0000001000+00002192+00000+0001T   00002192+0000001640          1400 PT5130               2AZ
205143005205143077-000011-D   205143006001023808554TISSUE-WRAP WHITE 10PCE0000001000+00000876+00000+0001T   00000876+0000001640          1400 PT5112               2AZ
205143006205143077-000010-R   205143006001023123916CREPE-PAPER CANARY-YELL0000001000+00000788+00000+0001T   00000788+0000001640          1400 PT5112               2AZ
205143007205143077-000010-Z   205143006001023157874CREPE-PAPER BLK/ORG/PUR0000001000+00000788+00000+0001T   00000788+0000001640          1400 PT5112               2AZ
205143008205143077-000011-E   205143006001023808646TISSUE-WRAP PINK 10PCE 0000001000+00000876+00000+0001T   00000876+0000001640          1400 PT5112               2AZ
205143009205143077-000010-F   205143006003453000461CREPE-PAPER BLUE       0000001000+00000788+00000+0001T   00000788+0000001640          1400 PT5112               2AZ
205143010205143200-000070     205143006003000677290STRAWS 33cm FLEX 70PCE 0000001000+00001753+00000+0001T   00001753+0000001640          1400 PT5214               2AZ
205143011205143077-000011-D   205143006001023808554TISSUE-WRAP WHITE 10PCE0000001000+00000876+00000+0001T   00000876+0000001640          1400 PT5112               2AZ
205143012205143565-000734     205143006003000609987NOVELTY SAND W/MOULD   0000001000+00001753+00000+0001T   00001753+0000001640          1400 PT5745               2AZ
205143013205143002-021021     205143006003000430369TOOTHPICK 3D FRUIT H/H 0000001000+00001490+00000+0001T   00001490+0000001640          1400 PT5300               2AZ
205143014205143002-021057     205143006001023812032T/PICKS UMBRELLAS 10PCE0000002000+00000876+00000+0001T   00000876+0000001640          1400 PT5300               2AZ
205144000205144               205144               170213LJ     1400+00000+LJ0000006576+0000006576+000000000+000000922+0000007498+0000000000+I40000007498+0000000000+Z
205144001205144080-000133-A   205144006003000647019MINI VALENTINES CARD   0000001000+00000437+00000+0001T   00000437+0000001642          1400 PT5112               2AZ
205144002205144368-000265     205144006001023750914PLUSH BEAR 23CM ASSTD C0000001000+00006139+00000+0001T   00006139+0000001642          1400 PT5745               2AZ
205145000205145               205145               170213LJ     1400+00000+LJ0000004385+0000004385+000000000+000000614+0000004999+0000000000+I40000004999+0000000000+Z
205145001205145031-080508     205145006001023802415P/FRAME PL 22X11CM LOVE0000001000+00004385+00000+0001T   00004385+0000001644          1400 PT5510               2AZ
205146000205146               205146               170213LJ     1400+00000+LJ0000004208+0000004208+000000000+000000590+0000004790+0000000008+I20000000000+0000004790+Z
205146001205146018-000129     205146006001023403353MUG OCC. LOVE V-SHAPE  0000001000+00002630+00000+0001T   00002630+0000001644          1400 PT5515               2AZ
205146002205146077-000303     205146006001023593757GIFT-BAG PAPER MED     0000001000+00001578+00000+0001T   00001578+0000001644          1400 PT5112               2AZ
205147000205147               205147               170213LJ     1400+00000+LJ0000004997+0000004997+000000000+000000700+0000005690+0000000007+I20000000000+0000005690+Z
205147001205147077-000299     205147006003000395576G/BAG 32x25cm LRG LOVE 0000001000+00001490+00000+0001T   00001490+0000001645          1400 PT5112               2AZ
205147002205147301-085004     205147006003000420469ORN LOVE PLAQUE 21X10CM0000001000+00003507+00000+0001T   00003946+0006471645          1400 PT5505               2AZ
205148000205148               205148               170213LJ     1400+00000+LJ0000001489+0000001489+000000000+000000209+0000001690+0000000008+I20000000000+0000001690+Z
205148001205148077-000302     205148008010410010195GIFT-BAG 18X23CM E/D   0000001000+00000876+00000+0001T   00000876+0000001647          1400 PT5112               2AZ
205148002205148304-001011     205148006001023806727FLWR ROSE RED W/BEAR   0000001000+00000613+00000+0001T   00000788+0006471647          1400 PT5510               2AZ
205149000205149               205149               170213LJ     1400+00000+LJ0000002751+0000002751+000000000+000000386+0000003130+0000000007+I20000000000+0000003130+Z
205149001205149304-001011     205149006001023806727FLWR ROSE RED W/BEAR   0000002000+00000613+00000+0001T   00000788+0006471648          1400 PT5510               2AZ
205149002205149077-000399     205149006003000139514GIFT BAG 18X23CM E/DAY 0000001000+00001490+00000+0001T   00001490+0000001648          1400 PT5112               2AZ
205149003205149112-116038     205149006009681820246TCS CARRIER BAG MIDI   0000001000+00000035+00000+0001T   00000035+0000001648          1400 PT5090               2AZ
205150000205150               205150               170213LJ     1400+00000+LJ0000001226+0000001226+000000000+000000172+0000001390+0000000008+I20000000000+0000001390+Z
205150001205150304-001011     205150006001023806727FLWR ROSE RED W/BEAR   0000002000+00000613+00000+0001T   00000788+0006471649          1400 PT5510               2AZ
205151000205151               205151               170213LJ     1400+00000+LJ0000001662+0000001662+000000000+000000234+0000001890+0000000006+I20000000000+0000001890+Z
205151001205151006-000172-H   205151006003000610211BALLOONS METALLIC RED  0000001000+00000218+00000+0001T   00000218+0000001650          1400 PT5131               2AZ
205151002205151006-000170-F   205151006003000608669BALLOONS 1PC WHITE     0000001000+00000218+00000+0001T   00000218+0000001650          1400 PT5131               2AZ
205151003205151006-001000     205151006003000093779HELIUM BALLOON FILL    0000002000+00000613+00000+0001T   00000613+0000001650          1400 PT5131               2AZ
205152000205152               205152               170213LJ     1400+00000+LJ0000001227+0000001227+000000000+000000172+0000001390+0000000009+I20000000000+0000001390+Z
205152001205152033-000013     205152006001023567215PILL-REMINDER PL       0000001000+00001227+00000+0001T   00001227+0000001654          1400 PT5200               2AZ
205153000205153               205153               170213LJ     1400+00000+LJ0000012234+0000012234+000000000+000001715+0000013940+0000000009+I20000000000+0000013940+Z
205153001205153368-000012     205153006003000610464PLUSH BEAR 30cm SITTING0000001000+00008771+00000+0001T   00008771+0000001703          1400 PT5745               2AZ
205153002205153077-000381     205153006003000247707GIFT-BAG 25X32CM S/COL 0000001000+00001753+00000+0001T   00001753+0000001703          1400 PT5112               2AZ
205153003205153112-116069     205153006009681820277TCS CARRIER BAG JUMBO  0000001000+00000048+00000+0001T   00000048+0000001703          1400 PT5090               2AZ
205153004205153006-001000     205153006003000093779HELIUM BALLOON FILL    0000002000+00000613+00000+0001T   00000613+0000001703          1400 PT5131               2AZ
205153005205153006-000172-G   205153006003000610167BALLOONS METALLIC SILV 0000001000+00000218+00000+0001T   00000218+0000001703          1400 PT5131               2AZ
205153006205153006-000170-F   205153006003000608669BALLOONS 1PC WHITE     0000001000+00000218+00000+0001T   00000218+0000001703          1400 PT5131               2AZ
205154000205154               205154               170213LJ     1400+00000+LJ0000001227+0000001227+000000000+000000172+0000001390+0000000009+I20000000000+0000001390+Z
205154001205154077-000318     205154006001023609755GIFT-BAG 18X23CM E/D AN0000001000+00001227+00000+0001T   00001227+0000001703          1400 PT5112               2AZ
205155000205155               205155               170213LJ     1400+00000+LJ0000001314+0000001314+000000000+000000184+0000001490+0000000008+I20000000000+0000001490+Z
205155001205155903-000194     205155006009826020616SWT CHOC RP LOLLY 25G  0000001000+00001314+00000+0001T   00001314+0000001704          1400 PT5150               2AZ
205156000205156               205156               170213LJ     1400+00000+LJ0000019296+0000019296+000000000+000002702+0000021998+0000000000+I40000021998+0000000000+Z
205156001205156024-000108     205156006001023422101MUFFIN-PAN 6-CUP  9x4cm0000002000+00009648+00000+0001T   00009648+0000001707          1400 PT5300               2AZ
205157000205157               205157               170213LJ     1400+00000+LJ0000001139+0000001139+000000000+000000160+0000001290+0000000009+I20000000000+0000001290+Z
205157001205157089-000150     205157006003000674268K/CHAIN PLUSH EMOTICON 0000001000+00001139+00000+0001T   00001139+0000001708          1400 PT5205               2AZ
205158000205158               205158               170213LJ     1400+00000+LJ0000004646+0000004646+000000000+000000651+0000005290+0000000007+I20000000000+0000005290+Z
205158001205158089-000150     205158006003000674268K/CHAIN PLUSH EMOTICON 0000001000+00001139+00000+0001T   00001139+0000001708          1400 PT5205               2AZ
205158002205158031-005853     205158006003000442416P/FRAME WDN TWIN HEARTS0000001000+00003507+00000+0001T   00003507+0000001708          1400 PT5510               2AZ
205159000205159               205159               170213LJ     1400+00000+LJ0000002192+0000002192+000000000+000000307+0000002490+0000000009+I20000000000+0000002490+Z
205159001205159018-000170     205159006001023775528MUG OCC. LOVE 2PC MINI 0000001000+00002192+00000+0001T   00002192+0000001709          1400 PT5515               2AZ
205160000205160               205160               170213LJ     1400+00000+LJ0000005963+0000005963+000000000+000000835+0000006790+0000000008+I20000000000+0000006790+Z
205160001205160018-030000     205160006003000421060MUG OCCASIONS LOVE 2PCE0000001000+00004385+00000+0001T   00004385+0000001710          1400 PT5515               2AZ
205160002205160077-000303     205160006001023593757GIFT-BAG PAPER MED     0000001000+00001578+00000+0001T   00001578+0000001710          1400 PT5112               2AZ
205161000205161               205161               170213LJ     1400+00000+LJ0000004032+0000004032+000000000+000000566+0000004598+0000000000+I40000004598+0000000000+Z
205161001205161304-000720     205161006001023843050F/BUNCH ROSE 6-HEAD AST0000001000+00002630+00000+0001T   00002630+0000001714          1400 PT5510               2AZ
205161002205161304-001204     205161006001023737984FLOWER OCC. TEDDY/ROSES0000001000+00001402+00000+0001T   00001490+0006471714          1400 PT5510               2AZ
205162000205162               205162               170213LJ     1400+00000+LJ0000022321+0000022321+000000000+000003128+0000025449+0000000000+I40000025449+0000000000+Z
205162001205162112-116069     205162006009681820277TCS CARRIER BAG JUMBO  0000001000+00000048+00000+0001T   00000048+0000001717          1400 PT5090               2AZ
205162002205162047-002036-H   205162006001023724120ADAPTOR 3x16A WAVY+SRGE0000001000+00005262+00000+0001T   00005262+0000001717          1400 PT5880               2AZ
205162003205162047-000504-H   205162006001023589958PLUG EURODAPTOR 2PIN HH0000001000+00001665+00000+0001T   00001665+0000001717          1400 PT5880               2AZ
205162004205162050-000880-Z   205162006003000528110PADLOCK COMBO BRS 4 WHL0000001000+00004385+00000+0001T   00004385+0000001717          1400 PT5855               2AZ
205162005205162076-000750     205162006003000423347CORD STRETCH 2-CLAW    0000001000+00002630+00000+0001T   00002630+0000001717          1400 PT5810               2AZ
205162006205162005-005404     205162006001023805928SOCKET/TOOL MINI 17PCE 0000001000+00006139+00000+0001T   00006139+0000001717          1400 PT5840               2AZ
205162007205162050-000363-Z   205162006001023475282PADLOCK IRON 32mm CARD 0000001000+00002192+00000+0001T   00002192+0000001717          1400 PT5855               2AZ
205163000205163               205163               170213LJ     1400+00000+LJ0000002192+0000002192+000000000+000000307+0000002490+0000000009+I20000000000+0000002490+Z
205163001205163566-000359     205163006003000582709STICKER BOOK LOVE SPARK0000001000+00002192+00000+0001T   00002192+0000001723          1400 PT5130               2AZ
205164000205164               205164               170213LJ     1400+00000+LJ0000006174+0000006174+000000000+000000865+0000007030+0000000009+I20000000000+0000007030+Z
205164001205164004-078980     205164006003000563135HEADPHONES W/CABLE 1.2M0000001000+00006139+00000+0001T   00006139+0000001725          1400 PT5310               2AZ
205164002205164112-116038     205164006009681820246TCS CARRIER BAG MIDI   0000001000+00000035+00000+0001T   00000035+0000001725          1400 PT5090               2AZ
205165000205165               205165               170213LJ     1400+00000+LJ0000001753+0000001753+000000000+000000246+0000001990+0000000009+I20000000000+0000001990+Z
205165001205165046-002032-PK2 205165004897006175063BATTERIES CR-2032  2PCE0000001000+00001753+00000+0001T   00001753+0000001725          1400 PT5312               2AZ
205166000205166               205166               170213LJ     1400+00000+LJ0000001753+0000001753+000000000+000000246+0000001990+0000000009+I20000000000+0000001990+Z
205166001205166006-000240     205166006003000460595PARTY INVITES 12PC     0000001000+00001753+00000+0001T   00001753+0000001725          1400 PT5131               2AZ
205167000205167               205167               170213LJ     1400+00000+LJ0000007677+0000007677+000000000+000001076+0000008750+0000000003+I20000000000+0000008750+Z
205167001205167368-000184     205167006003000668298PLUSH LAMB 23cm        0000001000+00006139+00000+0001T   00006139+0000001728          1400 PT5745               2AZ
205167002205167077-000299     205167006003000395576G/BAG 32x25cm LRG LOVE 0000001000+00001490+00000+0001T   00001490+0000001728          1400 PT5112               2AZ
205167003205167112-116069     205167006009681820277TCS CARRIER BAG JUMBO  0000001000+00000048+00000+0001T   00000048+0000001728          1400 PT5090               2AZ
205168000205168               205168               170213LJ     1400+00000+LJ0000011083+0000011083+000000000+000001552+0000012630+0000000005+I20000000000+0000012630+Z
205168001205168112-116038     205168006009681820246TCS CARRIER BAG MIDI   0000001000+00000035+00000+0001T   00000035+0000001737          1400 PT5090               2AZ
205168002205168080-000124     205168006003000297733CARD & ENV VALENTINES  0000001000+00001578+00000+0001T   00001578+0000001737          1400 PT5112               2AZ
205168003205168018-030000     205168006003000421060MUG OCCASIONS LOVE 2PCE0000001000+00004385+00000+0001T   00004385+0000001737          1400 PT5515               2AZ
205168004205168368-000049     205168006003000536955PLUSH BEAR 15cm LOVE   0000001000+00004385+00000+0001T   00004385+0000001737          1400 PT5745               2AZ
205168005205168018-000177     205168006001023797513MUG MINI LOVE ASSTD    0000001000+00000700+00000+0001T   00000700+0000001737          1400 PT5515               2AZ
205169000205169               205169               170213LJ     1400+00000+LJ0000029383+0000029383+000000000+000004114+0000033490+0000000007+I20000000000+0000033490+Z
205169001205169072-020247     205169006001246272705PET BED PL MEDIUM      0000001000+00015350+00000+0001T   00015350+0000001740          1400 PT5870               2AZ
205169002205169072-020249     205169006003000451241PET BLANKET FLEECE     0000001000+00005262+00000+0001T   00005262+0000001740          1400 PT5870               2AZ
205169003205169072-020362     205169006001023820471DOG/CAT BOWL PL+S/S DBL0000001000+00008771+00000+0001T   00008771+0000001740          1400 PT5870               2AZ
205170000205170               205170               170213LJ     1400+00000+LJ0000002493+0000002493+000000000+000000351+0000002840+0000000004+I20000000000+0000002840+Z
205170001205170006-001000     205170006003000093779HELIUM BALLOON FILL    0000003000+00000613+00000+0001T   00000613+0000001742          1400 PT5131               2AZ
205170002205170006-000173-D   205170006003000636631BALLOONS 1PC BLUE      0000001000+00000218+00000+0001T   00000218+0000001742          1400 PT5131               2AZ
205170003205170006-000173-B   205170006003000636358BALLOONS HELIUM 1PC WHT0000001000+00000218+00000+0001T   00000218+0000001742          1400 PT5131               2AZ
205170004205170006-000173-A   205170006003000636235BALLOONS HELIUM 1PC BLK0000001000+00000218+00000+0001T   00000218+0000001742          1400 PT5131               2AZ
205171000205171               205171               170213LJ     1400+00000+LJ0000006081+0000006081+000000000+000000854+0000006930+0000000005+I20000000000+0000006930+Z
205171001205171304-001011     205171006001023806727FLWR ROSE RED W/BEAR   0000001000+00000613+00000+0001T   00000788+0006471745          1400 PT5510               2AZ
205171002205171018-000127     205171006001023380289MUG OCC STRAIGHT LOVE  0000001000+00001578+00000+0001T   00001753+0006471745          1400 PT5515               2AZ
205171003205171089-000220     205171006003000677368KEY CHAIN+PEN+KNIFE    0000001000+00003069+00000+0001T   00003069+0000001745          1400 PT5205               2AZ
205171004205171903-000183     205171006003000451043SWT LB HEART LOLLY     0000002000+00000393+00000+0001T   00000393+0000001745          1400 PT5150               2AZ
205171005205171112-116038     205171006009681820246TCS CARRIER BAG MIDI   0000001000+00000035+00000+0001T   00000035+0000001745          1400 PT5090               2AZ
205172000205172               205172               170213LJ     1400+00000+LJ0000003542+0000003542+000000000+000000496+0000004030+0000000008+I20000000000+0000004030+Z
205172001205172018-005009     205172006001023725608MUG W/PLUSH-BEAR LOVE  0000001000+00003507+00000+0001T   00003507+0000001746          1400 PT5515               2AZ
205172002205172112-116038     205172006009681820246TCS CARRIER BAG MIDI   0000001000+00000035+00000+0001T   00000035+0000001746          1400 PT5090               2AZ
205173000205173               205173               170213LJ     1400+00000+LJ0000000788+0000000788+000000000+000000111+0000000890+0000000009+I20000000000+0000000890+Z
205173001205173077-000383     205173006003000247943GIFT-BAG 11X14CM S/COL 0000001000+00000788+00000+0001T   00000788+0000001747          1400 PT5112               2AZ
205174000205174               205174               170213LJ     1400+00000+LJ0000001613+0000001613+000000000+000000226+0000001830+0000000009+I20000000000+0000001830+Z
205174001205174018-000127     205174006001023380289MUG OCC STRAIGHT LOVE  0000001000+00001578+00000+0001T   00001753+0006471749          1400 PT5515               2CZ
205174002205174112-116038     205174006009681820246TCS CARRIER BAG MIDI   0000001000+00000035+00000+0001T   00000035+0000001749          1400 PT5090               2CZ
205175000205175               205175               170213LJ     1400+00000+LJ0000001578+0000001578+000000000+000000221+0000001790+0000000009+I20000000000+0000001790+Z
205175001205175018-000127     205175006001023380289MUG OCC STRAIGHT LOVE  0000001000+00001578+00000+0001T   00001753+0006471759          1400 PT5515               2AZ
205176000205176               205176               170213LJ     1400+00000+LJ0000001839+0000001839+000000000+000000258+0000002090+0000000007+I20000000000+0000002090+Z
205176001205176018-000177     205176006001023797513MUG MINI LOVE ASSTD    0000001000+00000700+00000+0001T   00000700+0000001759          1400 PT5515               2AZ
205176002205176903-000087     205176006001704000161SWT SPECKLED-EGGS 50G  0000001000+00001139+00000+0001T   00001139+0000001759          1400 PT5150               2AZ
205177000205177               205177               170213LJ     1400+00000+LJ0000006138+0000006138+000000000+000000860+0000006990+0000000008+I20000000000+0000006990+Z
205177001205177089-000220     205177006003000677368KEY CHAIN+PEN+KNIFE    0000002000+00003069+00000+0001T   00003069+0000001809          1400 PT5205               2CZ
205178000205178               205178               170213LJ     1400+00000+LJ0000001753+0000001753+000000000+000000246+0000001990+0000000009+I20000000000+0000001990+Z
205178001205178077-000005-D   205178006003000414567PAPER TISSUE 50x70cm   0000001000+00001753+00000+0001T   00001753+0000001810          1400 PT5112               2BZ
205179000205179               205179               170213LJ     1400+00000+LJ0000002628+0000002628+000000000+000000368+0000002990+0000000006+I20000000000+0000002990+Z
205179001205179903-000194     205179006009826020616SWT CHOC RP LOLLY 25G  0000002000+00001314+00000+0001T   00001314+0000001810          1400 PT5150               2BZ
205180000205180               205180               170213LJ     1400+00000+LJ0000003331+0000003331+000000000+000000467+0000003790+0000000008+I20000000000+0000003790+Z
205180001205180077-000455     205180006003000285389G/BAG METALLIC LRG SOL 0000001000+00001753+00000+0001T   00001753+0000001815          1400 PT5112               2BZ
205180002205180080-000124     205180006003000297733CARD & ENV VALENTINES  0000001000+00001578+00000+0001T   00001578+0000001815          1400 PT5112               2BZ
205181000205181               205181               170213LJ     1400+00000+LJ0000001348+0000001348+000000000+000000189+0000001530+0000000007+I20000000000+0000001530+Z
205181001205181018-000177     205181006001023797513MUG MINI LOVE ASSTD    0000001000+00000700+00000+0001T   00000700+0000001819          1400 PT5515               2BZ
205181002205181304-001011     205181006001023806727FLWR ROSE RED W/BEAR   0000001000+00000613+00000+0001T   00000788+0006471819          1400 PT5510               2BZ
205181003205181112-116038     205181006009681820246TCS CARRIER BAG MIDI   0000001000+00000035+00000+0001T   00000035+0000001819          1400 PT5090               2BZ
205182000205182               205182               170213LJ     1400+00000+LJ0000025606+0000025606+000000000+000003590+0000029196+0000000000+I40000029196+0000000000+Z
205182001205182077-000331     205182006001023745255GIFT-BAG 11X14CM E/DAY 0000002000+00000876+00000+0001T   00000876+0000001827          1400 PT5112               2BZ
205182002205182077-000270     205182006003000395453GIFT-BAG PPR JMB 33X45 0000001000+00002630+00000+0001T   00002630+0000001827          1400 PT5112               2BZ
205182003205182077-000327     205182006001023677686GIFT-BAG 25X32CM E/D BA0000001000+00001490+00000+0001T   00001490+0000001827          1400 PT5112               2BZ
205182004205182368-000049     205182006003000536955PLUSH BEAR 15cm LOVE   0000001000+00004385+00000+0001T   00004385+0000001827          1400 PT5745               2BZ
205182005205182301-000827     205182006001023872692ORN FAIRY MINI IN-BAG  0000002000+00003946+00000+0001T   00003946+0000001827          1400 PT5505               2BZ
205182006205182903-000183     205182006003000451043SWT LB HEART LOLLY     0000001000+00000393+00000+0001T   00000393+0000001827          1400 PT5150               2BZ
205182007205182403-000050     205182006003000034956ORN JEWELERY DOLL 30cm 0000001000+00007016+00000+0001T   00007016+0000001827          1400 PT5510               2BZ
205182008205182112-116069     205182006009681820277TCS CARRIER BAG JUMBO  0000001000+00000048+00000+0001T   00000048+0000001827          1400 PT5090               2BZ
205183000205183               205183               170213LJ     1400+00000+LJ0000012278+0000012278+000000000+000001720+0000013990+0000000008+I20000000000+0000013990+Z
205183001205183586-010754     205183006001492107547WATCH LDS HOT DEAL ASST0000001000+00011402+00000+0001T   00011402+0000001828          1400 PT5160               2BZ
205183002205183077-000331     205183006001023745255GIFT-BAG 11X14CM E/DAY 0000001000+00000876+00000+0001T   00000876+0000001828          1400 PT5112               2BZ
M17021391                              CASH        LJSLAVE 2                       Z-REPORT No.   560TOTAL (Sales - Refunds)           7407.41       CASH TO BE BANKED                 4441.80       DEBIT CARDS                          0.00       CREDIT CARDS                      2967.31       Z-READING                         7407.41       AIRTIME DEBIT CARD SALES             0.00       AIRTIME CARD SALES                   0.00       OVERS/UNDERS                         1.70       AIRTIME CASH SALES                   0.00       GIFT CARDS                           0.00       GIFT CARD CASH SALES                 0.00       T O T A L  CASH PAYOUTS              0.00                                                                                                                                                                                                                                                                                                                                                      Z
M17021392                              CASH        LJABSENT                                                                                                                                                                                          ANNUAL LEAVE                                                                                                                                                                                    DAY OFF                                                                                                                                                                                         COMMENTS                                                                                                                                                                                                                                                                                                                                                                                       Z
Y17021300                                          LJ00000000650235+000106
ZLJ17021320033 SLAVE 2      SALES DATA                     NEXT INVOICE NO.  205184 0560
X LJ Slave 2 First invoice 205077 170213 Last invoice 205183 170213 Next invoice 205184 Total number of records 000000365 clbackup completed 20:03:08
