204513000204513               204513               170213LK     1400+00000+LK0000007941+0000007941+000000000+000001113+0000009050+0000000004+I20000000000+0000009050+Z
204513001204513112-116069     204513006009681820277TCS CARRIER BAG JUMBO  0000001000+00000048+00000+0001T   00000048+0000001031          1400 EA6090               2BZ
204513002204513174-000308     204513006003000684939TRAVEL NECK-PILLOW FOAM0000001000+00007893+00000+0001T   00007893+0000001031          1400 EA6205               2BZ
204514000204514               204514               170213LK     1400+00000+LK0000002366+0000002366+000000000+000000332+0000002690+0000000008+I20000000000+0000002690+Z
204514001204514565-000083     204514006003000643622NOVELTY GROW SNOW      0000001000+00001753+00000+0001T   00001753+0000001036          1400 EA6745               2BZ
204514002204514565-000044     204514006003000128280BARREL OF SLIME 100g   0000001000+00000613+00000+0001T   00000613+0000001036          1400 EA6745               2BZ
204515000204515               204515               170213LK     1400+00000+LK0000004385+0000004385+000000000+000000614+0000004990+0000000009+I20000000000+0000004990+Z
204515001204515089-000017     204515006003000331147KEYCHAIN MOM POLY BOX  0000001000+00004385+00000+0001T   00004385+0000001112          1400 EA6205               2BZ
204516000204516               204516               170213LK     1400+00000+LK0000003117+0000003117+000000000+000000437+0000003554+0000000000+I40000003554+0000000000+Z
204516001204516301-085008     204516006003000673933ORN OCC.LOVE TINSEL HRT0000001000+00003069+00000+0001T   00003069+0000001128          1400 EA6505               2BZ
204516002204516112-116069     204516006009681820277TCS CARRIER BAG JUMBO  0000001000+00000048+00000+0001T   00000048+0000001128          1400 EA6090               2BZ
204517000204517               204517               170213LK     1400+00000+LK0000040959+0000040959+000000000+000005740+0000046699+0000000000+I40000046699+0000000000+Z
204517001204517112-116069     204517006009681820277TCS CARRIER BAG JUMBO  0000001000+00000048+00000+0001T   00000048+0000001159          1400 EA6090               2BZ
204517002204517082-000105     204517006003000360369READING GLS STRNGHT:1.50000001000+00004385+00000+0001T   00004385+0000001159          1400 EA6160               2BZ
204517003204517469-003003     204517006001023804808B/BLOCKS 150PC BOX     0000001000+00014034+00000+0001T   00014034+0000001159          1400 EA6755               2BZ
204517004204517046-002032-PK2 204517004897006175063BATTERIES CR-2032  2PCE0000001000+00001753+00000+0001T   00001753+0000001159          1400 EA6312               2BZ
204517005204517036-000151     204517006001023810588COATHANGERS    PACK-10 0000001000+00002893+00000+0001T   00002893+0000001159          1400 EA6212               2BZ
204517006204517082-000120-A   204517006001023755834R/GLASS  FRAME W/CASE  0000001000+00006139+00000+0001T   00006139+0000001159          1400 EA6160               2BZ
204517007204517159-000103     204517006001023890214SHOWER CADDY PL-COATED 0000001000+00003946+00000+0001T   00003946+0000001159          1400 EA6200               2BZ
204517008204517112-116069     204517006009681820277TCS CARRIER BAG JUMBO  0000001000+00000048+00000+0001T   00000048+0000001159          1400 EA6090               2BZ
204517009204517082-000388     204517006001023774385SPECT-CASE SPRING-CLOSE0000001000+00002630+00000+0001T   00002630+0000001159          1400 EA6160               2BZ
204517010204517082-000340     204517006003000649037LENS CLOTH MOIST 30PC  0000001000+00002630+00000+0001T   00002630+0000001159          1400 EA6160               2BZ
204517011204517903-004950     204517006002580020304SWT APRICOT SURPRISE   0000001000+00001314+00000+0001T   00001314+0000001159          1400 EA6150               2BZ
204517012204517903-000699     204517006002099007018SWT CANDY FRUIT CHEWS  0000001000+00001139+00000+0001T   00001139+0000001159          1400 EA6150               2BZ
204518000204518               204518               170213LK     1400+00000+LK0000009249+0000009249+000000000+000001297+0000010540+0000000006+I20000000000+0000010540+Z
204518001204518112-116069     204518006009681820277TCS CARRIER BAG JUMBO  0000001000+00000048+00000+0001T   00000048+0000001201          1400 EA6090               2BZ
204518002204518006-000166-D   204518006003000516490BALLOONS LRG 6PC RED   0000003000+00001314+00000+0001T   00001314+0000001201          1400 EA6131               2BZ
204518003204518079-003002     204518006003000447886A/TUBE 75ML RED        0000002000+00001753+00000+0001T   00001753+0000001201          1400 EA6130               2BZ
204518004204518079-003000     204518006003000448838A/TUBE 75ML WHITE      0000001000+00001753+00000+0001T   00001753+0000001201          1400 EA6130               2BZ
204519000204519               204519               170213LK     1400+00000+LK0000125468+0000125468+000000000+000017575+0000143043+0000000000+I40000143043+0000000000+Z
204519001204519112-116069     204519006009681820277TCS CARRIER BAG JUMBO  0000001000+00000048+00000+0001T   00000048+0000001209          1400 EA6090               2AZ
204519002204519494-058151     204519000078257581511INTEX RIDE-ON ANIMAL   0000001000+00008771+00000+0001T   00008771+0000001209          1400 EA6787               2AZ
204519003204519496-057105     204519000078257571055INTEX POOL BABY GIRAFFE0000001000+00014034+00000+0001T   00014034+0000001209          1400 EA6787               2AZ
204519004204519464-009010     204519006001023800756FISHING-GAME MAG +ROD  0000001000+00003507+00000+0001T   00003507+0000001209          1400 EA6785               2AZ
204519005204519065-001008     204519006001023673190XYLOPHONE 8-KEYS SHAPES0000001000+00004385+00000+0001T   00004385+0000001209          1400 EA6745               2AZ
204519006204519263-000800     204519006003000332281TRUCK PL CONSTRUCTION  0000001000+00011402+00000+0001T   00011402+0000001209          1400 EA6710               2AZ
204519007204519112-116069     204519006009681820277TCS CARRIER BAG JUMBO  0000001000+00000048+00000+0001T   00000048+0000001209          1400 EA6090               2AZ
204519008204519263-000509     204519006001023790620DIY ASSEMBLY VEHICLE   0000001000+00005262+00000+0001T   00005262+0000001209          1400 EA6710               2AZ
204519009204519264-025205     204519006003000642120MAISTO DINKY 4x4 REBELS0000001000+00007893+00000+0001T   00007893+0000001209          1400 EA6710               2AZ
204519010204519264-000918     204519000090159150268MAISTO MDC ATV         0000001000+00005262+00000+0001T   00005262+0000001209          1400 EA6710               2AZ
204519011204519264-000917     204519000090159150305MAISTO DIRT DEMONS     0000001000+00008771+00000+0001T   00008771+0000001209          1400 EA6710               2AZ
204519012204519046-000002     204519006001023585202BATTERIES SIZE:C   2PCE0000002000+00001753+00000+0001T   00001753+0000001209          1400 EA6312               2AZ
204519013204519065-006073     204519006003000466504WOODEN RECORDER ASSTD  0000001000+00006139+00000+0001T   00006139+0000001209          1400 EA6745               2AZ
204519014204519464-000110     204519006001023868824PLAYING-CARDS JUMBO    0000001000+00002630+00000+0001T   00002630+0000001209          1400 EA6785               2AZ
204519015204519903-005001     204519006002580020014SWT CT MALLOW MICE 120g0000001000+00001314+00000+0001T   00001314+0000001209          1400 EA6150               2AZ
204519016204519265-000216     204519006001023681423CAR B/O RACING-SET 36PC0000001000+00021051+00000+0001T   00021051+0000001209          1400 EA6710               2AZ
204519017204519265-006905     204519006001023755933TRAIN-SET B/O   EXPRESS0000001000+00013157+00000+0001T   00013157+0000001209          1400 EA6710               2AZ
204519018204519046-000015     204519006001023680839BATTERIES SIZE:D   2PCE0000002000+00002367+00000+0001T   00002367+0000001209          1400 EA6312               2AZ
204519019204519046-000002     204519006001023585202BATTERIES SIZE:C   2PCE0000002000+00001753+00000+0001T   00001753+0000001209          1400 EA6312               2AZ
204519020204519112-116069     204519006009681820277TCS CARRIER BAG JUMBO  0000001000+00000048+00000+0001T   00000048+0000001209          1400 EA6090               2AZ
204520000204520               204520               170213LK     1400+00000+LK0000036009+0000036009+000000000+000005042+0000041051+0000000000+I40000041051+0000000000+Z
204520001204520112-116069     204520006009681820277TCS CARRIER BAG JUMBO  0000001000+00000048+00000+0001T   00000048+0000001419          1400 EA6090               2BZ
204520002204520265-001659     204520006003000294527BOAT PL B/O            0000001000+00005262+00000+0001T   00005262+0000001419          1400 EA6710               2BZ
204520003204520265-006905     204520006001023755933TRAIN-SET B/O   EXPRESS0000001000+00013157+00000+0001T   00013157+0000001419          1400 EA6710               2BZ
204520004204520265-000011     204520006003000609581B/O HOVER BALL         0000001000+00017542+00000+0001T   00017542+0000001419          1400 EA6710               2BZ
204521000204521               204521               170213LK     1400+00000+LK0000004385+0000004385+000000000+000000614+0000004999+0000000000+I40000004999+0000000000+Z
204521001204521368-000049     204521006003000536955PLUSH BEAR 15cm LOVE   0000001000+00004385+00000+0001T   00004385+0000001422          1400 EA6745               2BZ
204522000204522               204522               170213LK     1400+00000+LK0000002628+0000002628+000000000+000000368+0000002990+0000000006+I20000000000+0000002990+Z
204522001204522006-000166-D   204522006003000516490BALLOONS LRG 6PC RED   0000001000+00001314+00000+0001T   00001314+0000001424          1400 EA6131               2BZ
204522002204522006-000166-H   204522006003000608096BALLOONS HELIUM 6PC WHT0000001000+00001314+00000+0001T   00001314+0000001424          1400 EA6131               2BZ
204523000204523               204523               170213LK     1400+00000+LK0000001753+0000001753+000000000+000000246+0000001990+0000000009+I20000000000+0000001990+Z
204523001204523007-000205     204523006002324000432FILE BINDER 2-RING A4  0000001000+00001753+00000+0001T   00001753+0000001436          1400 EA6130               2BZ
204524000204524               204524               170213LK     1400+00000+LK0000002892+0000002892+000000000+000000406+0000003290+0000000008+I20000000000+0000003290+Z
204524001204524051-002406     204524006003000139415SPRAY PL TRIGGER 700ml 0000001000+00001753+00000+0001T   00001753+0000001437          1400 EA6820               2BZ
204524002204524903-000699     204524006002099007018SWT CANDY FRUIT CHEWS  0000001000+00001139+00000+0001T   00001139+0000001437          1400 EA6150               2BZ
204525000204525               204525               170213LK     1400+00000+LK0000003068+0000003068+000000000+000000430+0000003498+0000000000+I40000003498+0000000000+Z
204525001204525077-000509     204525006003000082582GIFT-BAG SML 6PCE ORG P0000001000+00002192+00000+0001T   00002192+0000001438          1400 EA6112               2BZ
204525002204525077-000011-C   204525006001023808523TISSUE 10xSHTS RED     0000001000+00000876+00000+0001T   00000876+0000001438          1400 EA6112               2BZ
204526000204526               204526               170213LK     1400+00000+LK0000003507+0000003507+000000000+000000491+0000003990+0000000008+I20000000000+0000003990+Z
204526001204526004-071206     204526006003000605156USB CABLE CHARGER      0000001000+00003507+00000+0001T   00003507+0000001503          1400 EA6310               2BZ
204527000204527               204527               170213LK     1400+00000+LK0000000876+0000000876+000000000+000000123+0000000990+0000000009+I20000000000+0000000990+Z
204527001204527077-000302     204527008010410010195GIFT-BAG 18X23CM E/D   0000001000+00000876+00000+0001T   00000876+0000001504          1400 EA6112               2BZ
204528000204528               204528               170213LK     1400+00000+LK0000005699+0000005699+000000000+000000798+0000006497+0000000000+I40000006497+0000000000+Z
204528001204528018-000136     204528006001023659026MUG OCC LOVE W/PLUSH   0000001000+00003507+00000+0001T   00003507+0000001618          1400 EA6515               2BZ
204528002204528563-000318-L   204528006003000407088SERVIETTES 33cm RED    0000001000+00002192+00000+0001T   00002192+0000001618          1400 EA6214               2BZ
204529000204529               204529               170213LK     1400+00000+LK0000001578+0000001578+000000000+000000221+0000001790+0000000009+I20000000000+0000001790+Z
204529001204529018-000127     204529006001023380289MUG OCC STRAIGHT LOVE  0000001000+00001578+00000+0001T   00001753+0006471618          1400 EA6515               2BZ
204530000204530               204530               170213LK     1400+00000+LK0000009028+0000009028+000000000+000001265+0000010290+0000000003+I20000000000+0000010290+Z
204530001204530903-000151     204530006009803374411SWT SML RND R/BOW LOLLY0000001000+00000525+00000+0001T   00000525+0000001622          1400 EA6150               2BZ
204530002204530903-004960     204530008410525221842SWT GUMMY STR/BERRY 50G0000001000+00000964+00000+0001T   00000964+0000001622          1400 EA6150               2BZ
204530003204530903-000861     204530005010478430822SWT LOVE HEARTS SML    0000001000+00000876+00000+0001T   00000876+0000001622          1400 EA6150               2BZ
204530004204530018-000177     204530006001023797513MUG MINI LOVE ASSTD    0000001000+00000700+00000+0001T   00000700+0000001622          1400 EA6515               2BZ
204530005204530030-000031-A   204530006003000457588PLAQUE W/WORDS ASSTD   0000001000+00004385+00000+0001T   00004823+0006471622          1400 EA6505               2BZ
204530006204530077-000303     204530006001023593757GIFT-BAG PAPER MED     0000001000+00001578+00000+0001T   00001578+0000001622          1400 EA6112               2BZ
204531000204531               204531               170213LK     1400+00000+LK0000001578+0000001578+000000000+000000221+0000001790+0000000009+I20000000000+0000001790+Z
204531001204531080-000124     204531006003000297733CARD & ENV VALENTINES  0000001000+00001578+00000+0001T   00001578+0000001629          1400 EA6112               2BZ
204532000204532               204532               170213LK     1400+00000+LK0000010746+0000010746+000000000+000001506+0000012252+0000000000+I40000012252+0000000000+Z
204532001204532903-000095     204532006001704011495SWT SPECKLED-EGGS 100G 0000001000+00002104+00000+0001T   00002104+0000001630          1400 EA6150               2BZ
204532002204532080-000124     204532006003000297733CARD & ENV VALENTINES  0000001000+00001578+00000+0001T   00001578+0000001630          1400 EA6112               2BZ
204532003204532368-000023     204532006003000672264PLUSH BEAR 21.5cm      0000001000+00007016+00000+0001T   00007016+0000001630          1400 EA6745               2BZ
204532004204532112-116069     204532006009681820277TCS CARRIER BAG JUMBO  0000001000+00000048+00000+0001T   00000048+0000001630          1400 EA6090               2BZ
204533000204533               204533               170213LK     1400+00000+LK0000010349+0000010349+000000000+000001449+0000011798+0000000000+I40000011798+0000000000+Z
204533001204533567-010162     204533006003000485123BOOK TOP ASSTD NOVELS  0000001000+00008771+00000+0001T   00008771+0000001632          1400 EA6757               2BZ
204533002204533077-000315     204533006003000181186GIFT-BAG 20x28cm MATT  0000001000+00001578+00000+0001T   00001578+0000001632          1400 EA6112               2BZ
204534000204534               204534               170213LK     1400+00000+LK0000008819+0000008819+000000000+000001235+0000010050+0000000004+I20000000000+0000010050+Z
204534001204534031-086302-C   204534006001023910332P/FRAME COLL. PL 3-HOLE0000001000+00008771+00000+0001T   00008771+0000001635          1400 EA6510               2BZ
204534002204534112-116069     204534006009681820277TCS CARRIER BAG JUMBO  0000001000+00000048+00000+0001T   00000048+0000001635          1400 EA6090               2BZ
204535000204535               204535               170213LK     1400+00000+LK0000015953+0000015953+000000000+000002236+0000018180+0000000009+I20000000000+0000018180+Z
204535001204535903-000138     204535006002099004314SWT GS WINE GUMS 60G   0000001000+00000788+00000+0001T   00000788+0000001637          1400 EA6150               2BZ
204535002204535018-005009     204535006001023725608MUG W/PLUSH-BEAR LOVE  0000001000+00003507+00000+0001T   00003507+0000001637          1400 EA6515               2BZ
204535003204535077-000299     204535006003000395576G/BAG 32x25cm LRG LOVE 0000001000+00001490+00000+0001T   00001490+0000001637          1400 EA6112               2BZ
204535004204535031-006528     204535006001023670083FRAME 13x18cm FLOWERS  0000001000+00002630+00000+0001T   00002630+0000001637          1400 EA6510               2BZ
204535005204535080-000110     204535006003000237326CARD&ENVLPE BDAY-FUNNY 0000001000+00001753+00000+0001T   00001753+0000001637          1400 EA6112               2BZ
204535006204535080-000114     204535006003000246472CARD&ENV LOVE-MUSICAL  0000001000+00001314+00000+0001T   00001753+0008151637          1400 EA6112               2BZ
204535007204535903-000843     204535008693029031067SWT GUMMY JELAXY 80G   0000001000+00000964+00000+0001T   00000964+0000001637          1400 EA6150               2BZ
204535008204535031-000923     204535006001023669933P/FRAME BLK W/WORDS    0000001000+00003507+00000+0001T   00003507+0000001637          1400 EA6510               2BZ
204536000204536               204536               170213LK     1400+00000+LK0000000048+0000000048+000000000+000000007+0000000050+0000000005+I20000000000+0000000050+Z
204536001204536112-116069     204536006009681820277TCS CARRIER BAG JUMBO  0000001000+00000048+00000+0001T   00000048+0000001638          1400 EA6090               2BZ
204537000204537               204537               170213LK     1400+00000+LK0000007061+0000007061+000000000+000000990+0000008050+0000000001+I20000000000+0000008050+Z
204537001204537174-000016     204537006003000559107STORAGE SHOE BAG 1PC   0000002000+00001753+00000+0001T   00002192+0008171647          1400 EA6205               2BZ
204537002204537032-000236     204537006001023731647MIRROR PL STANDING OVAL0000001000+00003507+00000+0001T   00003507+0000001647          1400 EA6510               2BZ
204537003204537112-116069     204537006009681820277TCS CARRIER BAG JUMBO  0000001000+00000048+00000+0001T   00000048+0000001647          1400 EA6090               2BZ
204538000204538               204538               170213LK     1400+00000+LK0000001227+0000001227+000000000+000000172+0000001390+0000000009+I20000000000+0000001390+Z
204538001204538077-000245     204538006001023759214GIFT-RIBBON METALLICx2 0000001000+00001227+00000+0001T   00001227+0000001652          1400 EA6112               2BZ
204539000204539               204539               170213LK     1400+00000+LK0000001578+0000001578+000000000+000000221+0000001790+0000000009+I20000000000+0000001790+Z
204539001204539077-000303     204539006001023593757GIFT-BAG PAPER MED     0000001000+00001578+00000+0001T   00001578+0000001653          1400 EA6112               2AZ
204540000204540               204540               170213LK     1400+00000+LK0000005262+0000005262+000000000+000000737+0000005999+0000000000+I40000005999+0000000000+Z
204540001204540366-002195     204540006001023990549DRESS UP WINGS FEATHER 0000001000+00005262+00000+0001T   00005262+0000001656          1400 EA6131               2BZ
204541000204541               204541               170213LK     1400+00000+LK0000011975+0000011975+000000000+000001678+0000013650+0000000003+I20000000000+0000013650+Z
204541001204541112-116069     204541006009681820277TCS CARRIER BAG JUMBO  0000001000+00000048+00000+0001T   00000048+0000001658          1400 EA6090               2BZ
204541002204541304-001204     204541006001023737984FLOWER OCC. TEDDY/ROSES0000001000+00001402+00000+0001T   00001490+0006471658          1400 EA6510               2BZ
204541003204541368-000005     204541006003000616862PLUSH MONSTER 24cm     0000001000+00010525+00000+0001T   00010525+0000001658          1400 EA6745               2BZ
204542000204542               204542               170213LK     1400+00000+LK0000002366+0000002366+000000000+000000332+0000002690+0000000008+I20000000000+0000002690+Z
204542001204542077-000011-C   204542006001023808523TISSUE 10xSHTS RED     0000001000+00000876+00000+0001T   00000876+0000001700          1400 EA6112               2BZ
204542002204542077-000299     204542006003000395576G/BAG 32x25cm LRG LOVE 0000001000+00001490+00000+0001T   00001490+0000001700          1400 EA6112               2BZ
204543000204543               204543               170213LK     1400+00000+LK0000008771+0000008771+000000000+000001228+0000009999+0000000000+I40000009999+0000000000+Z
204543001204543001-091415     204543006003000329113W/GLS OCC. LOVE 2PC 2800000001000+00008771+00000+0001T   00009648+0006471702          1400 EA6515               2BZ
204544000204544               204544               170213LK     1400+00000+LK0000001227+0000001227+000000000+000000172+0000001390+0000000009+I20000000000+0000001390+Z
204544001204544251-000040     204544006001023515865SEALTAPE CLEAR 48mmx50m0000001000+00001227+00000+0001T   00001227+0000001702          1400 EA6810               2BZ
204545000204545               204545               170213LK     1400+00000+LK0000008373+0000008373+000000000+000001173+0000009540+0000000006+I20000000000+0000009540+Z
204545001204545006-000166-D   204545006003000516490BALLOONS LRG 6PC RED   0000002000+00001314+00000+0001T   00001314+0000001704          1400 EA6131               2BZ
204545002204545006-000166-H   204545006003000608096BALLOONS HELIUM 6PC WHT0000002000+00001314+00000+0001T   00001314+0000001704          1400 EA6131               2BZ
204545003204545301-085008     204545006003000673933ORN OCC.LOVE TINSEL HRT0000001000+00003069+00000+0001T   00003069+0000001704          1400 EA6505               2BZ
204545004204545112-116069     204545006009681820277TCS CARRIER BAG JUMBO  0000001000+00000048+00000+0001T   00000048+0000001704          1400 EA6090               2BZ
204546000204546               204546               170213LK     1400+00000+LK0000006136+0000006136+000000000+000000860+0000006996+0000000000+I40000006996+0000000000+Z
204546001204546018-005009     204546006001023725608MUG W/PLUSH-BEAR LOVE  0000001000+00003507+00000+0001T   00003507+0000001717          1400 EA6515               2BZ
204546002204546304-001204     204546006001023737984FLOWER OCC. TEDDY/ROSES0000001000+00001402+00000+0001T   00001490+0006471717          1400 EA6510               2BZ
204546003204546077-000322     204546006001023677532GIFT-BAG 18X23CM E/D FL0000001000+00001227+00000+0001T   00001227+0000001717          1400 EA6112               2BZ
204547000204547               204547               170213LK     1400+00000+LK0000001753+0000001753+000000000+000000246+0000001999+0000000000+I40000001999+0000000000+Z
204547001204547079-013032-I   204547006003000542550ART+CRAFT DIY EVA FOAM 0000001000+00001753+00000+0001T   00001753+0000001718          1400 EA6130               2BZ
204548000204548               204548               170213LK     1400+00000+LK0000026087+0000026087+000000000+000003658+0000029745+0000000000+I40000029745+0000000000+Z
204548001204548080-000116     204548006003000253555CARD&ENVELOPE-HANDMADE 0000001000+00001753+00000+0001T   00001753+0000001727          1400 EA6112               2BZ
204548002204548080-000113     204548006003000237449CARD&ENVLPE - LOVE     0000001000+00001753+00000+0001T   00001753+0000001727          1400 EA6112               2BZ
204548003204548077-000382     204548006003000247820GIFT-BAG MED 18X23CM   0000001000+00001753+00000+0001T   00001753+0000001727          1400 EA6112               2BZ
204548004204548077-000452     204548006003000284986G/BAG METALLIC MED EMB 0000001000+00001490+00000+0001T   00001490+0000001727          1400 EA6112               2BZ
204548005204548006-006018     204548006001023735256PARTY-SPRAY HAIR ASSORT0000002000+00002630+00000+0001T   00002630+0000001727          1400 EA6131               2BZ
204548006204548006-006018-B   204548006003000008278PARTY-SPRAY HAIR NEON  0000001000+00002630+00000+0001T   00002630+0000001727          1400 EA6131               2BZ
204548007204548112-116069     204548006009681820277TCS CARRIER BAG JUMBO  0000001000+00000048+00000+0001T   00000048+0000001727          1400 EA6090               2BZ
204548008204548366-002809     204548006003000222643DRESS UP MOUSTACHE SET 0000001000+00001753+00000+0001T   00001753+0000001727          1400 EA6131               2BZ
204548009204548366-002680     204548006003000536610DRESS UP HAT POLICE    0000001000+00004385+00000+0001T   00004385+0000001727          1400 EA6131               2BZ
204548010204548082-007580     204548006003000698523SUNGLASS MENS DESIGNER 0000001000+00005262+00000+0001T   00005262+0000001727          1400 EA6160               2BZ
204549000204549               204549               170213LK     1400+00000+LK0000005923+0000005923+000000000+000000830+0000006750+0000000003+I20000000000+0000006750+Z
204549001204549368-000001     204549006003000097982Plush Bear 25cm        0000001000+00004385+00000+0001T   00004385+0000001730          1400 EA6745               2AZ
204549002204549077-000299     204549006003000395576G/BAG 32x25cm LRG LOVE 0000001000+00001490+00000+0001T   00001490+0000001730          1400 EA6112               2AZ
204549003204549112-116069     204549006009681820277TCS CARRIER BAG JUMBO  0000001000+00000048+00000+0001T   00000048+0000001730          1400 EA6090               2AZ
204550000204550               204550               170213LK     1400+00000+LK0000024602+0000024602+000000000+000003447+0000028049+0000000000+I40000028049+0000000000+Z
204550001204550366-002195     204550006001023990549DRESS UP WINGS FEATHER 0000002000+00005262+00000+0001T   00005262+0000001734          1400 EA6131               2BZ
204550002204550366-007600     204550006001023902184MASK THEATRICAL GLITTER0000002000+00001753+00000+0001T   00001753+0000001734          1400 EA6131               2BZ
204550003204550266-002581     204550006001023905833PLAYSET SWORD,BOW&ARROW0000002000+00005262+00000+0001T   00005262+0000001734          1400 EA6710               2BZ
204550004204550112-116069     204550006009681820277TCS CARRIER BAG JUMBO  0000001000+00000048+00000+0001T   00000048+0000001734          1400 EA6090               2BZ
204551000204551               204551               170213LK     1400+00000+LK0000015394+0000015394+000000000+000002157+0000017550+0000000001+I20000000000+0000017550+Z
204551001204551077-000270     204551006003000395453GIFT-BAG PPR JMB 33X45 0000001000+00002630+00000+0001T   00002630+0000001735          1400 EA6112               2BZ
204551002204551368-000637     204551006001023874092PLUSH BEAR SLEEPING LOV0000001000+00011402+00000+0001T   00012279+0006471735          1400 EA6745               2BZ
204551003204551080-000114     204551006003000246472CARD&ENV LOVE-MUSICAL  0000001000+00001314+00000+0001T   00001753+0008151735          1400 EA6112               2BZ
204551004204551112-116069     204551006009681820277TCS CARRIER BAG JUMBO  0000001000+00000048+00000+0001T   00000048+0000001735          1400 EA6090               2BZ
204552000204552               204552               170213LK     1400+00000+LK0000003243+0000003243+000000000+000000455+0000003690+0000000008+I20000000000+0000003690+Z
204552001204552089-001021     204552006003000112319KEY CHAIN MINI BIBLE   0000001000+00001490+00000+0001T   00001490+0000001736          1400 EA6205               2BZ
204552002204552080-000113     204552006003000237449CARD&ENVLPE - LOVE     0000001000+00001753+00000+0001T   00001753+0000001736          1400 EA6112               2BZ
204553000204553               204553               170213LK     1400+00000+LK0000008771+0000008771+000000000+000001228+0000009999+0000000000+I40000009999+0000000000+Z
204553001204553001-091415     204553006003000329113W/GLS OCC. LOVE 2PC 2800000001000+00008771+00000+0001T   00009648+0006471744          1400 EA6515               2BZ
204554000204554               204554               170213LK     1400+00000+LK0000001927+0000001927+000000000+000000270+0000002197+0000000000+I40000002197+0000000000+Z
204554001204554018-000177     204554006001023797513MUG MINI LOVE ASSTD    0000001000+00000700+00000+0001T   00000700+0000001745          1400 EA6515               2BZ
204554002204554077-000318     204554006001023609755GIFT-BAG 18X23CM E/D AN0000001000+00001227+00000+0001T   00001227+0000001745          1400 EA6112               2BZ
204555000204555               204555               170213LK     1400+00000+LK0000004996+0000004996+000000000+000000701+0000005697+0000000000+I40000005697+0000000000+Z
204555001204555039-000108     204555006001023524034TEA-LITE CANDLES 8PCE  0000001000+00001490+00000+0001T   00001490+0000001746          1400 EA6510               2BZ
204555002204555088-000108     204555006001023765536POTPOURRI-OIL 10ml ASST0000002000+00001753+00000+0001T   00001753+0000001746          1400 EA6212               2BZ
204556000204556               204556               170213LK     1400+00000+LK0000012585+0000012585+000000000+000001764+0000014340+0000000009+I20000000000+0000014340+Z
204556001204556112-116069     204556006009681820277TCS CARRIER BAG JUMBO  0000001000+00000048+00000+0001T   00000048+0000001747          1400 EA6090               2BZ
204556002204556079-000196     204556006003000211531P/CRAYON RETRCTBLEx10  0000001000+00004385+00000+0001T   00004385+0000001747          1400 EA6130               2BZ
204556003204556018-000177     204556006001023797513MUG MINI LOVE ASSTD    0000001000+00000700+00000+0001T   00000700+0000001747          1400 EA6515               2BZ
204556004204556567-011510     204556000814625012658BK COLOURING 96P SPRING0000001000+00002630+00000+0001T   00002630+0000001747          1400 EA6757               2BZ
204556005204556267-000200     204556006001023892379PUZZLE 24pc CARTOON    0000001000+00002192+00000+0001T   00002192+0000001747          1400 EA6755               2BZ
204556006204556007-000196     204556006002324002375FILE LEVER ARCH A4     0000001000+00002630+00000+0001T   00002630+0000001747          1400 EA6130               2BZ
204557000204557               204557               170213LK     1400+00000+LK0000001753+0000001753+000000000+000000246+0000001990+0000000009+I20000000000+0000001990+Z
204557001204557077-000299-A   204557006003000670888GIFT-BAG PAPER JMB LOVE0000001000+00001753+00000+0001T   00001753+0000001749          1400 EA6112               2BZ
204558000204558               204558               170213LK     1400+00000+LK0000002978+0000002978+000000000+000000418+0000003390+0000000006+I20000000000+0000003390+Z
204558001204558162-097715     204558006001492977157#TAG NEW COLOUR E/PIERC0000002000+00001139+00000+0001T   00001139+0000001750          1400 EA6160               2BZ
204558002204558903-000121     204558006002099001689SWT GS ZILLIONS SOURS  0000001000+00000700+00000+0001T   00000700+0000001750          1400 EA6150               2BZ
204559000204559               204559               170213LK     1400+00000+LK0000003507+0000003507+000000000+000000491+0000003998+0000000000+I40000003998+0000000000+Z
204559001204559133-000017     204559006003000525171CLEANING-CLOTHS 5PCE   0000001000+00003507+00000+0001T   00003507+0000001751          1400 EA6212               2BZ
204560000204560               204560               170213LK     1400+00000+LK0000015396+0000015396+000000000+000002156+0000017552+0000000000+I40000017552+0000000000+Z
204560001204560030-000031-A   204560006003000457588PLAQUE W/WORDS ASSTD   0000001000+00004385+00000+0001T   00004823+0006471753          1400 EA6505               2BZ
204560002204560563-000318-L   204560006003000407088SERVIETTES 33cm RED    0000001000+00002192+00000+0001T   00002192+0000001753          1400 EA6214               2BZ
204560003204560001-091415     204560006003000329113W/GLS OCC. LOVE 2PC 2800000001000+00008771+00000+0001T   00009648+0006471753          1400 EA6515               2BZ
204560004204560112-116069     204560006009681820277TCS CARRIER BAG JUMBO  0000001000+00000048+00000+0001T   00000048+0000001753          1400 EA6090               2BZ
204561000204561               204561               170213LK     1400+00000+LK0000002980+0000002980+000000000+000000418+0000003390+0000000008+I20000000000+0000003390+Z
204561001204561077-000299     204561006003000395576G/BAG 32x25cm LRG LOVE 0000002000+00001490+00000+0001T   00001490+0000001758          1400 EA6112               2BZ
204562000204562               204562               170213LK     1400+00000+LK0000014645+0000014645+000000000+000002052+0000016697+0000000000+I40000016697+0000000000+Z
204562001204562077-000299     204562006003000395576G/BAG 32x25cm LRG LOVE 0000001000+00001490+00000+0001T   00001490+0000001800          1400 EA6112               2BZ
204562002204562080-000113     204562006003000237449CARD&ENVLPE - LOVE     0000001000+00001753+00000+0001T   00001753+0000001800          1400 EA6112               2BZ
204562003204562368-000637     204562006001023874092PLUSH BEAR SLEEPING LOV0000001000+00011402+00000+0001T   00012279+0006471800          1400 EA6745               2BZ
204563000204563               204563               170213LK     1400+00000+LK0000001753+0000001753+000000000+000000246+0000001990+0000000009+I20000000000+0000001990+Z
204563001204563080-000113     204563006003000237449CARD&ENVLPE - LOVE     0000001000+00001753+00000+0001T   00001753+0000001800          1400 EA6112               2BZ
204564000204564               204564               170213LK     1400+00000+LK0000021532+0000021532+000000000+000003017+0000024549+0000000000+I40000024549+0000000000+Z
204564001204564112-116069     204564006009681820277TCS CARRIER BAG JUMBO  0000001000+00000048+00000+0001T   00000048+0000001812          1400 EA6090               2BZ
204564002204564159-002369     204564006001023999191TOOTHBRUSH HOLDER PL 3 0000001000+00002630+00000+0001T   00002630+0000001812          1400 EA6200               2BZ
204564003204564159-000111     204564006003000629961SHOWER CAP PVC LINED   0000001000+00002630+00000+0001T   00002630+0000001812          1400 EA6200               2BZ
204564004204564031-006227     204564006001024004627P/FRAME COLLAGE 50X28CM0000001000+00008771+00000+0001T   00008771+0000001812          1400 EA6510               2BZ
204564005204564031-000870-C   204564006001023798688P/FRAME WOOD WHITE-PINE0000001000+00006139+00000+0001T   00006139+0000001812          1400 EA6510               2BZ
204564006204564159-000149     204564006003000010998SOAP-DISH FOUR-LEAF    0000001000+00001314+00000+0001T   00001314+0000001812          1400 EA6200               2BZ
A17021300                                          09111259LKSLAVE 2                       EA62IC
A17021301                                          16475545LKSLAVE 2                       EA62IC
M17021391                              CASH        LKSLAVE 2                       Z-REPORT No.   574TOTAL (Sales - Refunds)           6111.27       CASH TO BE BANKED                    0.00       DEBIT CARDS                          0.00       CREDIT CARDS                         0.00       Z-READING                         6111.27       AIRTIME DEBIT CARD SALES             0.00       AIRTIME CARD SALES                   0.00       OVERS/UNDERS                      6111.27-      AIRTIME CASH SALES                   0.00       GIFT CARDS                           0.00       GIFT CARD CASH SALES                 0.00       T O T A L  CASH PAYOUTS              0.00                                                                                                                                                                                                                                                                                                                                                      Z
M17021392                              CASH        LKABSENT                                                                                                                                                                                          ANNUAL LEAVE                                                                                                                                                                                    DAY OFF                                                                                                                                                                                         COMMENTS                                                                                                                                                                                                                                                                                                                                                                                       Z
Y17021300                                          LK00000000536202+000052
ZLK17021320033 SLAVE 2      SALES DATA                     NEXT INVOICE NO.  204565 0575
X LK Slave 2 First invoice 204513 170213 Last invoice 204564 170213 Next invoice 204565 Total number of records 000000216 clbackup completed 20:03:36
