437438000437438               437438               170213MA     1400+00000+MA0000001399+0000001399+000000000+000000198+0000001590+0000000007+I20000000000+0000001590+Z
437438001437438903-000155     437438006009803374435SWT LOLLY I LUV U HEART0000001000+00000525+00000+0001T   00000525+0000000847          1400 JU5150               1AZ
437438002437438080-000133-A   437438006003000647019MINI VALENTINES CARD   0000002000+00000437+00000+0001T   00000437+0000000847          1400 JU5112               1AZ
437439000437439               437439               170213MA     1400+00000+MA0000007893+0000007893+000000000+000001106+0000008999+0000000000+I40000008999+0000000000+Z
437439001437439082-000126     437439006003000646517READING GLASS TWIN 2.5 0000001000+00007893+00000+0001T   00007893+0000000853          1400 JU5160               1AZ
437440000437440               437440               170213MA     1400+00000+MA0000001753+0000001753+000000000+000000246+0000001990+0000000009+I20000000000+0000001990+Z
437440001437440051-002402     437440006001023518347TRIGGER-SPRAYER  500ml 0000001000+00001753+00000+0001T   00001753+0000000856          1400 JU5820               1AZ
437441000437441               437441               170213MA     1400+00000+MA0000006711+0000006711+000000000+000000940+0000007650+0000000001+I20000000000+0000007650+Z
437441001437441112-116069     437441006009681820277TCS CARRIER BAG JUMBO  0000001000+00000048+00000+0001T   00000048+0000001030          1400 JU5090               1AZ
437441002437441077-000303     437441006001023593757GIFT-BAG PAPER MED     0000001000+00001578+00000+0001T   00001578+0000001030          1400 JU5112               1AZ
437441003437441018-000130     437441006001023867537MUG OCC LOVE MINI+HEART0000001000+00003507+00000+0001T   00003507+0000001030          1400 JU5515               1AZ
437441004437441080-000124     437441006003000297733CARD & ENV VALENTINES  0000001000+00001578+00000+0001T   00001578+0000001030          1400 JU5112               1AZ
437442000437442               437442               170213MA     1400+00000+MA0000004032+0000004032+000000000+000000565+0000004597+0000000000+I40000004597+0000000000+Z
437442001437442903-002900     437442005996071650648QUICK MILK 5 CHOCO 5PC 0000001000+00001578+00000+0001T   00001578+0000001046          1400 JU5150               1AZ
437442002437442903-000518     437442006001704012782SWT STRAWS S/BERRY 100g0000002000+00001227+00000+0001T   00001227+0000001046          1400 JU5150               1AZ
437443000437443               437443               170213MA     1400+00000+MA0000005346+0000005346+000000000+000000749+0000006090+0000000005+I20000000000+0000006090+Z
437443001437443018-000136     437443006001023659026MUG OCC LOVE W/PLUSH   0000001000+00003507+00000+0001T   00003507+0000001047          1400 JU5515               1AZ
437443002437443903-000194     437443006009826020616SWT CHOC RP LOLLY 25G  0000001000+00001314+00000+0001T   00001314+0000001047          1400 JU5150               1AZ
437443003437443903-000155     437443006009803374435SWT LOLLY I LUV U HEART0000001000+00000525+00000+0001T   00000525+0000001047          1400 JU5150               1AZ
437444000437444               437444               170213MA     1400+00000+MA0000008582+0000008582+000000000+000001204+0000009780+0000000006+I20000000000+0000009780+Z
437444001437444006-001000     437444006003000093779HELIUM BALLOON FILL    0000014000+00000613+00000+0001T   00000613+0000001114          1400 JU51311IC            1AZ
437445000437445               437445               170213MA     1400+00000+MA0000002630+0000002630+000000000+000000369+0000002990+0000000009+I20000000000+0000002990+Z
437445001437445018-000129     437445006001023403353MUG OCC. LOVE V-SHAPE  0000001000+00002630+00000+0001T   00002630+0000001114          1400 JU5515               1AZ
437446000437446               437446               170213MA     1400+00000+MA0000002192+0000002192+000000000+000000307+0000002490+0000000009+I20000000000+0000002490+Z
437446001437446027-008814     437446006001023797155DUSTER POLYESTER 58cm  0000001000+00002192+00000+0001T   00002192+0000001117          1400 JU5212               1AZ
437447000437447               437447               170213MA     1400+00000+MA0000005308+0000005308+000000000+000000744+0000006050+0000000002+I20000000000+0000006050+Z
437447001437447018-000130     437447006001023867537MUG OCC LOVE MINI+HEART0000001000+00003507+00000+0001T   00003507+0000001118          1400 JU5515               1AZ
437447002437447024-091100     437447006001023914224BAKING-CUPS PAPER 100PC0000001000+00001753+00000+0001T   00001753+0000001118          1400 JU5300               1AZ
437447003437447112-116069     437447006009681820277TCS CARRIER BAG JUMBO  0000001000+00000048+00000+0001T   00000048+0000001118          1400 JU5090               1AZ
437448000437448               437448               170213MA     1400+00000+MA0000001753+0000001753+000000000+000000246+0000001990+0000000009+I20000000000+0000001990+Z
437448001437448071-002999-A   437448006003000611577PEN STICKBALL 10PCE ASS0000001000+00001753+00000+0001T   00001753+0000001121          1400 JU5130               1AZ
437449000437449               437449               170213MA     1400+00000+MA0000005963+0000005963+000000000+000000837+0000006800+0000000000+I20000000000+0000006800+Z
437449001437449077-000303     437449006001023593757GIFT-BAG PAPER MED     0000001000+00001578+00000+0001T   00001578+0000001134          1400 JU5112               1AZ
437449002437449204-000007     437449006003000427062M/HOLDER MAGN POLY LOVE0000001000+00002630+00000+0001T   00003507+0008131134          1400 JU5300               1AZ
437449003437449903-000183     437449006003000451043SWT LB HEART LOLLY     0000001000+00000393+00000+0001T   00000393+0000001134          1400 JU5150               1AZ
437449004437449903-000194     437449006009826020616SWT CHOC RP LOLLY 25G  0000001000+00001314+00000+0001T   00001314+0000001134          1400 JU5150               1AZ
437449005437449112-116069     437449006009681820277TCS CARRIER BAG JUMBO  0000001000+00000048+00000+0001T   00000048+0000001134          1400 JU5090               1AZ
437450000437450               437450               170213MA     1400+00000+MA0000001314+0000001314+000000000+000000184+0000001490+0000000008+I20000000000+0000001490+Z
437450001437450089-000187     437450006003000594245KEY CHAIN PVC DUCK 3.5 0000001000+00001314+00000+0001T   00001314+0000001135          1400 JU5205               1AZ
437451000437451               437451               170213MA     1400+00000+MA0000047404+0000047404+000000000+000006639+0000054043+0000000000+I40000054043+0000000000+Z
437451001437451112-116069     437451006009681820277TCS CARRIER BAG JUMBO  0000001000+00000048+00000+0001T   00000048+0000001140          1400 JU5090               1AZ
437451002437451019-000070     437451006003000297474VASE GLS CLEAR BOTTLE  0000002000+00004385+00000+0001T   00004385+0000001140          1400 JU5510               1AZ
437451003437451002-012271     437451006001023849120TONGS 23cm RUBBER-GRIP 0000003000+00003507+00000+0001T   00003507+0000001140          1400 JU5300               1AZ
437451004437451368-000111     437451006001023780812PLUSH BEAR/DOG 29CM    0000002000+00012279+00000+0001T   00012279+0000001140          1400 JU5745               1AZ
437451005437451002-012271     437451006001023849120TONGS 23cm RUBBER-GRIP 0000001000+00003507+00000+0001T   00003507+0000001140          1400 JU5300               1AZ
437452000437452               437452               170213MA     1400+00000+MA0000001578+0000001578+000000000+000000221+0000001790+0000000009+I20000000000+0000001790+Z
437452001437452006-000214-A   437452006003000311057P/GIRL JNR INVITE 6PCE 0000001000+00001578+00000+0001T   00001578+0000001142          1400 JU5131               1AZ
437453000437453               437453               170213MA     1400+00000+MA0000000613+0000000613+000000000+000000086+0000000690+0000000009+I20000000000+0000000690+Z
437453001437453083-000055     437453006003000003853LIGHTER ELCTRNC REFILBL0000001000+00000613+00000+0001T   00000613+0000001143          1400 JU5315               1AZ
437454000437454               437454               170213MA     1400+00000+MA0000016268+0000016268+000000000+000002278+0000018540+0000000006+I20000000000+0000018540+Z
437454001437454112-116069     437454006009681820277TCS CARRIER BAG JUMBO  0000001000+00000048+00000+0001T   00000048+0000001145          1400 JU5090               1AZ
437454002437454018-000136     437454006001023659026MUG OCC LOVE W/PLUSH   0000003000+00003507+00000+0001T   00003507+0000001145          1400 JU5515               1AZ
437454003437454018-000130     437454006001023867537MUG OCC LOVE MINI+HEART0000001000+00003507+00000+0001T   00003507+0000001145          1400 JU5515               1AZ
437454004437454077-000926     437454006003000414178G/WRAP 700mmx2m LOVE   0000001000+00002192+00000+0001T   00002192+0000001145          1400 JU5112               1AZ
437455000437455               437455               170213MA     1400+00000+MA0000003507+0000003507+000000000+000000491+0000003990+0000000008+I20000000000+0000003990+Z
437455001437455018-005009     437455006001023725608MUG W/PLUSH-BEAR LOVE  0000001000+00003507+00000+0001T   00003507+0000001146          1400 JU5515               1AZ
437456000437456               437456               170213MA     1400+00000+MA0000003554+0000003554+000000000+000000499+0000004050+0000000003+I20000000000+0000004050+Z
437456001437456019-071595     437456006001023756428PEBBLES 250g SKY-BLUE  0000002000+00001753+00000+0001T   00001753+0000001151          1400 JU5510               1AZ
437456002437456112-116069     437456006009681820277TCS CARRIER BAG JUMBO  0000001000+00000048+00000+0001T   00000048+0000001151          1400 JU5090               1AZ
437457000437457               437457               170213MA     1400+00000+MA0000020387+0000020387+000000000+000002858+0000023245+0000000000+I40000023245+0000000000+Z
437457001437457106-008105     437457006009654960566S/DRESSING BOTTLE 500ml0000005000+00001490+00000+0001T   00001490+0000001159          1400 JU5210               1AZ
437457002437457560-000022     437457006003000651511ANIMALS CROC 29.5cm    0000001000+00004385+00000+0001T   00004385+0000001159          1400 JU5745               1AZ
437457003437457560-000302     437457006001023834874DINOSAUR ASSTD DESIGNS 0000001000+00003507+00000+0001T   00003507+0000001159          1400 JU5745               1AZ
437457004437457466-000514     437457006001023196620BALLS TENNIS COLR BAG-30000001000+00002630+00000+0001T   00002630+0000001159          1400 JU5785               1AZ
437457005437457046-000015     437457006001023680839BATTERIES SIZE:D   2PCE0000001000+00002367+00000+0001T   00002367+0000001159          1400 JU5312               1AZ
437457006437457112-116069     437457006009681820277TCS CARRIER BAG JUMBO  0000001000+00000048+00000+0001T   00000048+0000001159          1400 JU5090               1AZ
437458000437458               437458               170213MA     1400+00000+MA0000012673+0000012673+000000000+000001777+0000014450+0000000000+I40000014450+0000000000+Z
437458001437458466-000075     437458006003000669288BALL RUGBY MESH 27.9cm 0000001000+00007016+00000+0001T   00007016+0000001201          1400 JU5785               1AZ
437458002437458105-001066     437458006003000630912CONTAINER CLIP LOCK    0000002000+00001490+00000+0001T   00001490+0000001201          1400 JU5210               1AZ
437458003437458002-001700     437458006003000333707ONION-KEEPER PL        0000001000+00002192+00000+0001T   00002192+0000001201          1400 JU5300               1AZ
437458004437458080-000133-A   437458006003000647019MINI VALENTINES CARD   0000001000+00000437+00000+0001T   00000437+0000001201          1400 JU5112               1AZ
437458005437458112-116069     437458006009681820277TCS CARRIER BAG JUMBO  0000001000+00000048+00000+0001T   00000048+0000001201          1400 JU5090               1AZ
437459000437459               437459               170213MA     1400+00000+MA0000003770+0000003770+000000000+000000528+0000004290+0000000008+I20000000000+0000004290+Z
437459001437459077-000303     437459006001023593757GIFT-BAG PAPER MED     0000001000+00001578+00000+0001T   00001578+0000001242          1400 JU5112               1AZ
437459002437459080-000127     437459006003000424351VALENTINES DAY 36x24CM 0000001000+00002192+00000+0001T   00002192+0000001242          1400 JU5112               1AZ
437460000437460               437460               170213MA     1400+00000+MA0000002192+0000002192+000000000+000000307+0000002490+0000000009+I20000000000+0000002490+Z
437460001437460071-001017     437460006001023892676MARKER DVD FINE+MED 3PC0000001000+00002192+00000+0001T   00002192+0000001249          1400 JU5130               1AZ
437461000437461               437461               170213MA     1400+00000+MA0000007940+0000007940+000000000+000001112+0000009050+0000000002+I20000000000+0000009050+Z
437461001437461034-079078     437461006001023996565COOEY BABY MANICURE-SET0000001000+00003507+00000+0001T   00003507+0000001252          1400 JU5215               1AZ
437461002437461034-079090     437461006001023855503COOEY BRUSH+COMB-SET   0000001000+00004385+00000+0001T   00004385+0000001252          1400 JU5215               1AZ
437461003437461112-116069     437461006009681820277TCS CARRIER BAG JUMBO  0000001000+00000048+00000+0001T   00000048+0000001252          1400 JU5090               1AZ
437462000437462               437462               170213MA     1400+00000+MA0000006187+0000006187+000000000+000000867+0000007050+0000000004+I20000000000+0000007050+Z
437462001437462018-050000     437462006003000412679MUG OCC LOVE TWIN BEAR 0000001000+00006139+00000+0001T   00006139+0000001412          1400 JU5515               1AZ
437462002437462112-116069     437462006009681820277TCS CARRIER BAG JUMBO  0000001000+00000048+00000+0001T   00000048+0000001412          1400 JU5090               1AZ
437463000437463               437463               170213MA     1400+00000+MA0000003201+0000003201+000000000+000000449+0000003650+0000000000+I20000000000+0000003650+Z
437463001437463261-000121     437463006001023341600GUN-CAPS 8-SHOT CARD-9 0000002000+00000700+00000+0001T   00000700+0000001414          1400 JU5710               1AZ
437463002437463261-002267     437463006001023665126GUN 8-SHOT SUPER-CAP   0000001000+00001753+00000+0001T   00001753+0000001414          1400 JU5710               1AZ
437463003437463112-116069     437463006009681820277TCS CARRIER BAG JUMBO  0000001000+00000048+00000+0001T   00000048+0000001414          1400 JU5090               1AZ
437464000437464               437464               170213MA     1400+00000+MA0000006662+0000006662+000000000+000000933+0000007590+0000000005+I20000000000+0000007590+Z
437464001437464006-000098     437464006003000601325PARTY PHOTO BOOTH 20PC 0000001000+00005262+00000+0001T   00005262+0000001415          1400 JU5131               1AZ
437464002437464903-000070     437464006001704001106SWT TOFFEE CREAMY 35g  0000002000+00000700+00000+0001T   00000700+0000001415          1400 JU5150               1AZ
437465000437465               437465               170213MA     1400+00000+MA0000006623+0000006623+000000000+000000929+0000007552+0000000000+I40000007552+0000000000+Z
437465001437465019-000126     437465006003000329571PLANTER GALV W/HANDLE  0000001000+00004823+00000+0001T   00004823+0000001443          1400 JU5510               1AZ
437465002437465077-000151     437465006008766114676GIFT-WRAP C/PHANE ASSTD0000002000+00000876+00000+0001T   00000876+0000001443          1400 JU5112               1AZ
437465003437465112-116069     437465006009681820277TCS CARRIER BAG JUMBO  0000001000+00000048+00000+0001T   00000048+0000001443          1400 JU5090               1AZ
437466000437466               437466               170213MA     1400+00000+MA0000012323+0000012323+000000000+000001728+0000014051+0000000000+I40000014051+0000000000+Z
437466001437466112-116069     437466006009681820277TCS CARRIER BAG JUMBO  0000001000+00000048+00000+0001T   00000048+0000001447          1400 JU5090               1AZ
437466002437466018-050000     437466006003000412679MUG OCC LOVE TWIN BEAR 0000001000+00006139+00000+0001T   00006139+0000001447          1400 JU5515               1AZ
437466003437466107-003120     437466006003000676958BASIN W/HANDLES FLEXI  0000001000+00002630+00000+0001T   00002630+0000001447          1400 JU5210               1AZ
437466004437466077-000472     437466006003000330133G-BAG DESGNR LRG 25X32 0000001000+00001753+00000+0001T   00001753+0000001447          1400 JU5112               1AZ
437466005437466077-000454     437466006003000285266G/BAG METALLIC LRG EMB 0000001000+00001753+00000+0001T   00001753+0000001447          1400 JU5112               1AZ
437467000437467               437467               170213MA     1400+00000+MA0000003507+0000003507+000000000+000000491+0000003990+0000000008+I20000000000+0000003990+Z
437467001437467018-000136     437467006001023659026MUG OCC LOVE W/PLUSH   0000001000+00003507+00000+0001T   00003507+0000001448          1400 JU5515               1AZ
437468000437468               437468               170213MA     1400+00000+MA0000005310+0000005310+000000000+000000744+0000006050+0000000004+I20000000000+0000006050+Z
437468001437468301-000009     437468006001023781406ORN POLY MSG IN PVC BOX0000001000+00005262+00000+0001T   00005262+0000001449          1400 JU5505               1AZ
437468002437468112-116069     437468006009681820277TCS CARRIER BAG JUMBO  0000001000+00000048+00000+0001T   00000048+0000001449          1400 JU5090               1AZ
437469000437469               437469               170213MA     1400+00000+MA0000003506+0000003506+000000000+000000491+0000003990+0000000007+I20000000000+0000003990+Z
437469001437469006-000166-C   437469006003000516377BALLOONS LRG 6PC PINK  0000001000+00001314+00000+0001T   00001314+0000001454          1400 JU5131               1AZ
437469002437469563-000318-L   437469006003000407088SERVIETTES 33cm RED    0000001000+00002192+00000+0001T   00002192+0000001454          1400 JU5214               1AZ
437470000437470               437470               170213MA     1400+00000+MA0000000876+0000000876+000000000+000000123+0000000990+0000000009+I20000000000+0000000990+Z
437470001437470077-000011-L   437470006001023808585P/TISSUE BRIGHT 10SHEET0000001000+00000876+00000+0001T   00000876+0000001454          1400 JU5112               1AZ
437471000437471               437471               170213MA     1400+00000+MA0000003555+0000003555+000000000+000000498+0000004050+0000000003+I20000000000+0000004050+Z
437471001437471567-011507     437471006003000665136BK COLOURING 96P DESPIC0000001000+00003507+00000+0001T   00003507+0000001456          1400 JU5757               1AZ
437471002437471112-116069     437471006009681820277TCS CARRIER BAG JUMBO  0000001000+00000048+00000+0001T   00000048+0000001456          1400 JU5090               1AZ
437472000437472               437472               170213MA     1400+00000+MA0000012404+0000012404+000000000+000001742+0000014140+0000000006+I20000000000+0000014140+Z
437472001437472007-000119     437472006002324004126BOOK COVER PL          0000002000+00001051+00000+0001T   00001051+0000001614          1400 JU5130               1AZ
437472002437472071-004202     437472006001023417176SCISSORS-SCHOOL PL/MTL 0000002000+00001139+00000+0001T   00001139+0000001614          1400 JU5130               1AZ
437472003437472079-000512     437472006001023635853CRAYONS WAX 12-COLOUR  0000002000+00001490+00000+0001T   00001490+0000001614          1400 JU5130               1AZ
437472004437472071-005214     437472006003000152544CELLOTAPE SUPER REFILL 0000001000+00001490+00000+0001T   00001490+0000001614          1400 JU5130               1AZ
437472005437472079-000012     437472006001023655332P/CRAYONS 12-COL LONG  0000002000+00001753+00000+0001T   00001753+0000001614          1400 JU5130               1AZ
437472006437472112-116069     437472006009681820277TCS CARRIER BAG JUMBO  0000001000+00000048+00000+0001T   00000048+0000001614          1400 JU5090               1AZ
437473000437473               437473               170213MA     1400+00000+MA0000007498+0000007498+000000000+000001051+0000008540+0000000009+I20000000000+0000008540+Z
437473001437473080-000114     437473006003000246472CARD&ENV LOVE-MUSICAL  0000002000+00001314+00000+0001T   00001753+0008151622          1400 JU5112               1AZ
437473002437473080-000127     437473006003000424351VALENTINES DAY 36x24CM 0000001000+00002192+00000+0001T   00002192+0000001622          1400 JU5112               1AZ
437473003437473077-000270     437473006003000395453GIFT-BAG PPR JMB 33X45 0000001000+00002630+00000+0001T   00002630+0000001622          1400 JU5112               1AZ
437473004437473112-116069     437473006009681820277TCS CARRIER BAG JUMBO  0000001000+00000048+00000+0001T   00000048+0000001622          1400 JU5090               1AZ
437474000437474               437474               170213MA     1400+00000+MA0000000876+0000000876+000000000+000000123+0000000990+0000000009+I20000000000+0000000990+Z
437474001437474077-000011-D   437474006001023808554TISSUE-WRAP WHITE 10PCE0000001000+00000876+00000+0001T   00000876+0000001622          1400 JU5112               1AZ
437475000437475               437475               170213MA     1400+00000+MA0000009692+0000009692+000000000+000001359+0000011050+0000000001+I20000000000+0000011050+Z
437475001437475368-000001     437475006003000097982Plush Bear 25cm        0000002000+00004385+00000+0001T   00004385+0000001625          1400 JU5745               1AZ
437475002437475112-116069     437475006009681820277TCS CARRIER BAG JUMBO  0000001000+00000048+00000+0001T   00000048+0000001625          1400 JU5090               1AZ
437475003437475080-000133-A   437475006003000647019MINI VALENTINES CARD   0000002000+00000437+00000+0001T   00000437+0000001625          1400 JU5112               1AZ
437476000437476               437476               170213MA     1400+00000+MA0000007013+0000007013+000000000+000000983+0000007990+0000000006+I20000000000+0000007990+Z
437476001437476262-000020     437476006003000644780DIE CAST SINGLE CAR    0000001000+00003507+00000+0001T   00003507+0000001628          1400 JU5710               1AZ
437476002437476002-000657     437476006003000570447M/SPOONS WDN SCOOPS 6PC0000001000+00002630+00000+0001T   00002630+0000001628          1400 JU5300               1AZ
437476003437476039-000323     437476006001023524171BIRTHDAY-CANDLES 24PCE 0000001000+00000876+00000+0001T   00000876+0000001628          1400 JU5510               1AZ
437477000437477               437477               170213MA     1400+00000+MA0000010393+0000010393+000000000+000001457+0000011850+0000000000+I40000011850+0000000000+Z
437477001437477301-085004     437477006003000420469ORN LOVE PLAQUE 21X10CM0000001000+00003507+00000+0001T   00003946+0006471631          1400 JU5505               1AZ
437477002437477018-000127     437477006001023380289MUG OCC STRAIGHT LOVE  0000001000+00001578+00000+0001T   00001753+0006471631          1400 JU5515               1AZ
437477003437477369-001138-D   437477006003000097623BABY BATH VINYL THEMED 0000002000+00002630+00000+0001T   00002630+0000001631          1400 JU5745               1AZ
437477004437477112-116069     437477006009681820277TCS CARRIER BAG JUMBO  0000001000+00000048+00000+0001T   00000048+0000001631          1400 JU5090               1AZ
437478000437478               437478               170213MA     1400+00000+MA0000002278+0000002278+000000000+000000320+0000002590+0000000008+I20000000000+0000002590+Z
437478001437478903-000087     437478006001704000161SWT SPECKLED-EGGS 50G  0000002000+00001139+00000+0001T   00001139+0000001631          1400 JU5150               1AZ
437479000437479               437479               170213MA     1400+00000+MA0000005915+0000005915+000000000+000000830+0000006745+0000000000+I40000006745+0000000000+Z
437479001437479206-000450     437479006003000619863DRINKING JAR GLOBE     0000001000+00002630+00000+0001T   00002630+0000001636          1400 JU5321               1AZ
437479002437479018-000177     437479006001023797513MUG MINI LOVE ASSTD    0000004000+00000700+00000+0001T   00000700+0000001636          1400 JU5515               1AZ
437479003437479083-000049     437479004891035200024CIG-LIGHTER DISPOSABLE 0000001000+00000437+00000+0001T   00000437+0000001636          1400 JU5315               1AZ
437479004437479112-116069     437479006009681820277TCS CARRIER BAG JUMBO  0000001000+00000048+00000+0001T   00000048+0000001636          1400 JU5090               1AZ
437480000437480               437480               170213MA     1400+00000+MA0000001226+0000001226+000000000+000000172+0000001390+0000000008+I20000000000+0000001390+Z
437480001437480006-001000     437480006003000093779HELIUM BALLOON FILL    0000002000+00000613+00000+0001T   00000613+0000001640          1400 JU5131               1AZ
437481000437481               437481               170213MA     1400+00000+MA0000001928+0000001928+000000000+000000270+0000002190+0000000008+I20000000000+0000002190+Z
437481001437481903-004962     437481008410525221880SWT FINI BLCK/RED 50g  0000002000+00000964+00000+0001T   00000964+0000001642          1400 JU5150               1AZ
437482000437482               437482               170213MA     1400+00000+MA0000002630+0000002630+000000000+000000369+0000002999+0000000000+I40000002999+0000000000+Z
437482001437482159-000684     437482006001023776532BATH BODY-GLOVE 18cm   0000001000+00002630+00000+0001T   00002630+0000001644          1400 JU5200               1AZ
437483000437483               437483               170213MA     1400+00000+MA0000005085+0000005085+000000000+000000712+0000005797+0000000000+I40000005797+0000000000+Z
437483001437483018-000136     437483006001023659026MUG OCC LOVE W/PLUSH   0000001000+00003507+00000+0001T   00003507+0000001657          1400 JU5515               1AZ
437483002437483077-000303     437483006001023593757GIFT-BAG PAPER MED     0000001000+00001578+00000+0001T   00001578+0000001657          1400 JU5112               1AZ
437484000437484               437484               170213MA     1400+00000+MA0000001753+0000001753+000000000+000000246+0000001990+0000000009+I20000000000+0000001990+Z
437484001437484077-000472     437484006003000330133G-BAG DESGNR LRG 25X32 0000001000+00001753+00000+0001T   00001753+0000001657          1400 JU5112               1AZ
437485000437485               437485               170213MA     1400+00000+MA0000006624+0000006624+000000000+000000928+0000007550+0000000002+I20000000000+0000007550+Z
437485001437485080-000127     437485006003000424351VALENTINES DAY 36x24CM 0000001000+00002192+00000+0001T   00002192+0000001659          1400 JU5112               1AZ
437485002437485112-116069     437485006009681820277TCS CARRIER BAG JUMBO  0000001000+00000048+00000+0001T   00000048+0000001659          1400 JU5090               1AZ
437485003437485566-000359     437485006003000582709STICKER BOOK LOVE SPARK0000002000+00002192+00000+0001T   00002192+0000001659          1400 JU5130               1AZ
437486000437486               437486               170213MA     1400+00000+MA0000004957+0000004957+000000000+000000695+0000005652+0000000000+I40000005652+0000000000+Z
437486001437486112-116069     437486006009681820277TCS CARRIER BAG JUMBO  0000001000+00000048+00000+0001T   00000048+0000001706          1400 JU5090               1AZ
437486002437486018-000136     437486006001023659026MUG OCC LOVE W/PLUSH   0000001000+00003507+00000+0001T   00003507+0000001706          1400 JU5515               1AZ
437486003437486304-001204     437486006001023737984FLOWER OCC. TEDDY/ROSES0000001000+00001402+00000+0001T   00001490+0006471706          1400 JU5510               1AZ
437487000437487               437487               170213MA     1400+00000+MA0000021475+0000021475+000000000+000003011+0000024486+0000000000+I40000024486+0000000000+Z
437487001437487903-005007     437487006002580020311SWT MALLOW BEAR M/SHAKE0000001000+00001314+00000+0001T   00001314+0000001708          1400 JU5150               1AZ
437487002437487903-000215     437487006002099001214SWT GS MALLOW TWIST PAC0000001000+00001753+00000+0001T   00001753+0000001708          1400 JU5150               1AZ
437487003437487903-000123     437487006925925909280SWEET GS MINI MALLOWS  0000002000+00000876+00000+0001T   00000876+0000001708          1400 JU5150               1AZ
437487004437487089-000501     437487006003000622900KEY CHAIN LIGHT LASER  0000003000+00002192+00000+0001T   00002192+0000001708          1400 JU5205               1AZ
437487005437487077-000011-E   437487006001023808646TISSUE-WRAP PINK 10PCE 0000001000+00000876+00000+0001T   00000876+0000001708          1400 JU5112               1AZ
437487006437487077-000452     437487006003000284986G/BAG METALLIC MED EMB 0000001000+00001490+00000+0001T   00001490+0000001708          1400 JU5112               1AZ
437487007437487046-002013-PK6 437487004897006174851BATTERY BUTTON AG13 6PC0000002000+00001753+00000+0001T   00001753+0000001708          1400 JU5312               1AZ
437487008437487903-000095     437487006001704011495SWT SPECKLED-EGGS 100G 0000002000+00002104+00000+0001T   00002104+0000001708          1400 JU5150               1AZ
437488000437488               437488               170213MA     1400+00000+MA0000007761+0000007761+000000000+000001089+0000008850+0000000000+I20000000000+0000008850+Z
437488001437488080-000113     437488006003000237449CARD&ENVLPE - LOVE     0000001000+00001753+00000+0001T   00001753+0000001711          1400 JU5112               1AZ
437488002437488080-000124     437488006003000297733CARD & ENV VALENTINES  0000001000+00001578+00000+0001T   00001578+0000001711          1400 JU5112               1AZ
437488003437488077-000454     437488006003000285266G/BAG METALLIC LRG EMB 0000002000+00001753+00000+0001T   00001753+0000001711          1400 JU5112               1AZ
437488004437488112-116069     437488006009681820277TCS CARRIER BAG JUMBO  0000001000+00000048+00000+0001T   00000048+0000001711          1400 JU5090               1AZ
437488005437488077-000011-D   437488006001023808554TISSUE-WRAP WHITE 10PCE0000001000+00000876+00000+0001T   00000876+0000001711          1400 JU5112               1AZ
437489000437489               437489               170213MA     1400+00000+MA0000008640+0000008640+000000000+000001210+0000009850+0000000000+I20000000000+0000009850+Z
437489001437489112-116069     437489006009681820277TCS CARRIER BAG JUMBO  0000001000+00000048+00000+0001T   00000048+0000001713          1400 JU5090               1AZ
437489002437489018-005009     437489006001023725608MUG W/PLUSH-BEAR LOVE  0000002000+00003507+00000+0001T   00003507+0000001713          1400 JU5515               1AZ
437489003437489018-000127     437489006001023380289MUG OCC STRAIGHT LOVE  0000001000+00001578+00000+0001T   00001753+0006471713          1400 JU5515               1AZ
437490000437490               437490               170213MA     1400+00000+MA0000003504+0000003504+000000000+000000492+0000003990+0000000006+I20000000000+0000003990+Z
437490001437490077-000151     437490006008766114676GIFT-WRAP C/PHANE ASSTD0000004000+00000876+00000+0001T   00000876+0000001714          1400 JU5112               1AZ
437491000437491               437491               170213MA     1400+00000+MA0000004907+0000004907+000000000+000000689+0000005590+0000000006+I20000000000+0000005590+Z
437491001437491077-000299-A   437491006003000670888GIFT-BAG PAPER JMB LOVE0000001000+00001753+00000+0001T   00001753+0000001716          1400 JU5112               1AZ
437491002437491077-000011-D   437491006001023808554TISSUE-WRAP WHITE 10PCE0000001000+00000876+00000+0001T   00000876+0000001716          1400 JU5112               1AZ
437491003437491903-000087     437491006001704000161SWT SPECKLED-EGGS 50G  0000002000+00001139+00000+0001T   00001139+0000001716          1400 JU5150               1AZ
437492000437492               437492               170213MA     1400+00000+MA0000003243+0000003243+000000000+000000455+0000003690+0000000008+I20000000000+0000003690+Z
437492001437492077-000239     437492006003000160419GIFT-RIBBON ROLL PEARL 0000001000+00001753+00000+0001T   00001753+0000001718          1400 JU5112               1AZ
437492002437492028-000400     437492006001023421661PLATE-HOLDERS 4PCE     0000001000+00001490+00000+0001T   00001490+0000001718          1400 JU5305               1AZ
437493000437493               437493               170213MA     1400+00000+MA0000002892+0000002892+000000000+000000406+0000003290+0000000008+I20000000000+0000003290+Z
437493001437493038-001804     437493006001023766618DOILIES 27cm RND PKT-100000001000+00001753+00000+0001T   00001753+0000001719          1400 JU5300               1AZ
437493002437493903-000087     437493006001704000161SWT SPECKLED-EGGS 50G  0000001000+00001139+00000+0001T   00001139+0000001719          1400 JU5150               1AZ
437494000437494               437494               170213MA     1400+00000+MA0000002630+0000002630+000000000+000000369+0000002990+0000000009+I20000000000+0000002990+Z
437494001437494019-071601     437494006001023771995RIVER-STONES 1kg WHITE 0000001000+00002630+00000+0001T   00002630+0000001719          1400 JU5510               1AZ
437495000437495               437495               170213MA     1400+00000+MA0000008771+0000008771+000000000+000001228+0000009990+0000000009+I20000000000+0000009990+Z
437495001437495001-091415     437495006003000329113W/GLS OCC. LOVE 2PC 2800000001000+00008771+00000+0001T   00009648+0006471720          1400 JU5515               1AZ
437496000437496               437496               170213MA     1400+00000+MA0000006535+0000006535+000000000+000000916+0000007451+0000000000+I40000007451+0000000000+Z
437496001437496018-000136     437496006001023659026MUG OCC LOVE W/PLUSH   0000001000+00003507+00000+0001T   00003507+0000001723          1400 JU5515               1AZ
437496002437496077-000303     437496006001023593757GIFT-BAG PAPER MED     0000001000+00001578+00000+0001T   00001578+0000001723          1400 JU5112               1AZ
437496003437496304-001204     437496006001023737984FLOWER OCC. TEDDY/ROSES0000001000+00001402+00000+0001T   00001490+0006471723          1400 JU5510               1AZ
437496004437496112-116069     437496006009681820277TCS CARRIER BAG JUMBO  0000001000+00000048+00000+0001T   00000048+0000001723          1400 JU5090               1AZ
437497000437497               437497               170213MA     1400+00000+MA0000002629+0000002629+000000000+000000369+0000002990+0000000008+I20000000000+0000002990+Z
437497001437497077-000309     437497006001023608604GIFT-BAG 25X32CM GLOSS 0000001000+00001753+00000+0001T   00001753+0000001726          1400 JU5112               1AZ
437497002437497077-000011-D   437497006001023808554TISSUE-WRAP WHITE 10PCE0000001000+00000876+00000+0001T   00000876+0000001726          1400 JU5112               1AZ
437498000437498               437498               170213MA     1400+00000+MA0000005784+0000005784+000000000+000000810+0000006590+0000000004+I20000000000+0000006590+Z
437498001437498105-001024-A   437498006009654960986CONTAINERS CLEAR 3PCE  0000003000+00001928+00000+0001T   00001928+0000001732          1400 JU5210               1AZ
437499000437499               437499               170213MA     1400+00000+MA0000019342+0000019342+000000000+000002710+0000022050+0000000002+I20000000000+0000022050+Z
437499001437499077-000301     437499008010410010188BAG LRG 25X32CM B/DAY  0000001000+00001753+00000+0001T   00001753+0000001734          1400 JU5112               1AZ
437499002437499368-000175     437499006003000270316PLUSH BEAR 4 ASSTD 18CM0000001000+00006139+00000+0001T   00006139+0000001734          1400 JU5745               1AZ
437499003437499368-000637     437499006001023874092PLUSH BEAR SLEEPING LOV0000001000+00011402+00000+0001T   00012279+0006471734          1400 JU5745               1AZ
437499004437499112-116069     437499006009681820277TCS CARRIER BAG JUMBO  0000001000+00000048+00000+0001T   00000048+0000001734          1400 JU5090               1AZ
437500000437500               437500               170213MA     1400+00000+MA0000008593+0000008593+000000000+000001204+0000009790+0000000007+I20000000000+0000009790+Z
437500001437500077-000303     437500006001023593757GIFT-BAG PAPER MED     0000001000+00001578+00000+0001T   00001578+0000001739          1400 JU5112               1AZ
437500002437500077-000011-D   437500006001023808554TISSUE-WRAP WHITE 10PCE0000001000+00000876+00000+0001T   00000876+0000001739          1400 JU5112               1AZ
437500003437500039-809558     437500006003000344376CANDLE PILLAR 12CM 4AST0000001000+00006139+00000+0001T   00006139+0000001739          1400 JU5510               1AZ
437501000437501               437501               170213MA     1400+00000+MA0000007274+0000007274+000000000+000001021+0000008290+0000000005+I20000000000+0000008290+Z
437501001437501007-000160     437501006009685857286NOTE-BOOK A5 SHORTHAND 0000001000+00001227+00000+0001T   00001227+0000001741          1400 JU5130               1AZ
437501002437501903-000155     437501006009803374435SWT LOLLY I LUV U HEART0000001000+00000525+00000+0001T   00000525+0000001741          1400 JU5150               1AZ
437501003437501903-000844     437501005010478432567SWT CANDY DL LUV HEARTS0000001000+00001314+00000+0001T   00001314+0000001741          1400 JU5150               1AZ
437501004437501565-000041     437501006008766115642NOVELTY BALL ICON 5.5cm0000001000+00002630+00000+0001T   00002630+0000001741          1400 JU5745               1AZ
437501005437501079-009700-I   437501006003000546114PAPER SIRIO A4 LILAC   0000001000+00000306+00000+0001T   00000306+0000001741          1400 JU5130               1AZ
437501006437501079-009700-A   437501006003000547746PAPER SIRIO A4 BLACK   0000002000+00000306+00000+0001T   00000306+0000001741          1400 JU5130               1AZ
437501007437501079-009700-D   437501006003000545711PAPER SIRIO A4 RED COL.0000002000+00000306+00000+0001T   00000306+0000001741          1400 JU5130               1AZ
437501008437501112-116069     437501006009681820277TCS CARRIER BAG JUMBO  0000001000+00000048+00000+0001T   00000048+0000001741          1400 JU5090               1AZ
437502000437502               437502               170213MA     1400+00000+MA0000003507+0000003507+000000000+000000491+0000003990+0000000008+I20000000000+0000003990+Z
437502001437502150-000776     437502006001023839756UTILITY/TOOL-BOX PL    0000001000+00003507+00000+0001T   00003507+0000001744          1400 JU5810               1AZ
B43744400                                          170213MA006-001000     11135099SLAVE 1     JU51IC0000024000+0000014000+0000000000000+
M17021391                              CASH        MASLAVE 1                       Z-REPORT No.   597TOTAL (Sales - Refunds)           4834.37       CASH TO BE BANKED                 2915.20       DEBIT CARDS                          0.00       CREDIT CARDS                      1919.17       Z-READING                         4834.37       AIRTIME DEBIT CARD SALES             0.00       AIRTIME CARD SALES                   0.00       OVERS/UNDERS                         0.00       AIRTIME CASH SALES                   0.00       GIFT CARDS                           0.00       GIFT CARD CASH SALES                 0.00       T O T A L  CASH PAYOUTS              0.00                                                                                                                                                                                                                                                                                                                                                      Z
M17021392                              CASH        MAABSENT                                                                                                                                                                                          ANNUAL LEAVE                                                                                                                                                                                    DAY OFF                                                                                                                                                                                         COMMENTS                                                                                                                                                                                                                                                                                                                                                                                       Z
Y17021300                                          MA00000000424271+000065
ZMA17021320033 SLAVE 1      SALES DATA                     NEXT INVOICE NO.  437503 0597
X MA Slave 1 First invoice 437438 170213 Last invoice 437502 170213 Next invoice 437503 Total number of records 000000237 clbackup completed 20:03:41
