440926000440926               440926               170213MA     1400+00000+MA0000002630+0000002630+000000000+000000369+0000002990+0000000009+I20000000000+0000002990+Z
440926001440926039-000504     440926006001023816290CANDLE VTV 4PC METALLIC0000001000+00002630+00000+0001T   00002630+0000000837          1400 JL2510               2AZ
440927000440927               440927               170213MA     1400+00000+MA0000006624+0000006624+000000000+000000928+0000007550+0000000002+I20000000000+0000007550+Z
440927001440927040-000051     440927006001023799494C/HOLDER GLASS LANTERN 0000001000+00003069+00000+0001T   00003069+0000000839          1400 JL2510               2AZ
440927002440927031-005920     440927006003000580699P/FRAME PL PLAIN 20X25 0000001000+00003507+00000+0001T   00003507+0000000839          1400 JL2510               2AZ
440927003440927112-116069     440927006009681820277TCS CARRIER BAG JUMBO  0000001000+00000048+00000+0001T   00000048+0000000839          1400 JL2090               2AZ
440928000440928               440928               170213MA     1400+00000+MA0000000000+0000000000+000000000+000000000+0000000000+0000000000+I20000000000+0000000000+Z
440928001440928082-000126     440928006003000646517READING GLASS TWIN 2.5 0000001000-00007893+00000+0001T   00007893+0000000921          1400 JL21602IC            2 Z
440928002440928082-000125     440928006003000646395READING GLASS TWIN 2   0000001000+00007893+00000+0001T   00007893+0000000921          1400 JL2160               2 Z
440929000440929               440929               170213MA     1400+00000+MA0000005261+0000005261+000000000+000000737+0000005990+0000000008+I20000000000+0000005990+Z
440929001440929082-000110     440929006003000360482READING GLS STRENGHT:2 0000001000+00004385+00000+0001T   00004385+0000000925          1400 JL2160               2AZ
440929002440929082-026204     440929006001023816443R/GLASSES STRINGS 2PCE 0000001000+00000876+00000+0001T   00000876+0000000925          1400 JL2160               2AZ
440930000440930               440930               170213MA     1400+00000+MA0000010959+0000010959+000000000+000001536+0000012490+0000000005+I20000000000+0000012490+Z
440930001440930079-014152     440930006003000253074ART+CRAFT PK50 ASSTD   0000003000+00003069+00000+0001T   00003069+0000000931          1400 JL2130               2AZ
440930002440930076-000017     440930006001811010022TWINE COTTON 50g-BALL  0000002000+00000876+00000+0001T   00000876+0000000931          1400 JL2810               2AZ
440931000440931               440931               170213MA     1400+00000+MA0000002892+0000002892+000000000+000000405+0000003297+0000000000+I40000003297+0000000000+Z
440931001440931080-000114     440931006003000246472CARD&ENV LOVE-MUSICAL  0000001000+00001314+00000+0001T   00001753+0008150940          1400 JL2112               2AZ
440931002440931077-000303     440931006001023593757GIFT-BAG PAPER MED     0000001000+00001578+00000+0001T   00001578+0000000940          1400 JL2112               2AZ
440932000440932               440932               170213MA     1400+00000+MA0000002669+0000002669+000000000+000000377+0000003040+0000000006+I20000000000+0000003040+Z
440932001440932077-000304     440932006001023483232GIFT-BAG 25X32CM E/DAY 0000001000+00001490+00000+0001T   00001490+0000000947          1400 JL2112               2AZ
440932002440932903-000183     440932006003000451043SWT LB HEART LOLLY     0000003000+00000393+00000+0001T   00000393+0000000947          1400 JL2150               2AZ
440933000440933               440933               170213MA     1400+00000+MA0000004950+0000004950+000000000+000000695+0000005640+0000000005+I20000000000+0000005640+Z
440933001440933007-000160     440933006009685857286NOTE-BOOK A5 SHORTHAND 0000001000+00001227+00000+0001T   00001227+0000000952          1400 JL2130               2AZ
440933002440933007-000537     440933000651728791017NOTE-PAD RND SMILE-FACE0000001000+00000700+00000+0001T   00000700+0000000952          1400 JL2130               2AZ
440933003440933079-000201     440933006003000161430P/CRAYONS THERAPY 10PCE0000001000+00002630+00000+0001T   00002630+0000000952          1400 JL2130               2AZ
440933004440933903-000183     440933006003000451043SWT LB HEART LOLLY     0000001000+00000393+00000+0001T   00000393+0000000952          1400 JL2150               2AZ
440934000440934               440934               170213MA     1400+00000+MA0000003506+0000003506+000000000+000000492+0000003990+0000000008+I20000000000+0000003990+Z
440934001440934027-000917     440934006001023367433DUSTPAN-SET MINI 21x16 0000002000+00001753+00000+0001T   00001753+0000000959          1400 JL2212               2AZ
440935000440935               440935               170213MA     1400+00000+MA0000004433+0000004433+000000000+000000621+0000005050+0000000004+I20000000000+0000005050+Z
440935001440935112-116069     440935006009681820277TCS CARRIER BAG JUMBO  0000001000+00000048+00000+0001T   00000048+0000001001          1400 JL2090               2AZ
440935002440935001-000175     440935006001023788108B/MUG GLS LOVE 380ML   0000001000+00004385+00000+0001T   00004385+0000001001          1400 JL2515               2AZ
440936000440936               440936               170213MA     1400+00000+MA0000030652+0000030652+000000000+000004294+0000034946+0000000000+I40000034946+0000000000+Z
440936001440936112-116069     440936006009681820277TCS CARRIER BAG JUMBO  0000001000+00000048+00000+0001T   00000048+0000001004          1400 JL2090               2AZ
440936002440936039-080945     440936006001023772053C/PILLAR ROUND WHITE   0000002000+00006139+00000+0001T   00006139+0000001004          1400 JL2510               2AZ
440936003440936039-080960     440936006003000333998CANDLE PILLAR BALL 10CM0000001000+00006139+00000+0001T   00006139+0000001004          1400 JL2510               2AZ
440936004440936039-080959     440936006003000048922CANDLE PILLAR BALL 8CM 0000001000+00003069+00000+0001T   00003069+0000001004          1400 JL2510               2AZ
440936005440936039-080941     440936006001023669841CANDLE PILLAR WHT 7X7CM0000001000+00003507+00000+0001T   00003507+0000001004          1400 JL2510               2AZ
440936006440936039-091784     440936006003000275311CANDLE LED CLR CHANGE  0000001000+00004385+00000+0001T   00004385+0000001004          1400 JL2510               2AZ
440936007440936083-000055     440936006003000003853LIGHTER ELCTRNC REFILBL0000002000+00000613+00000+0001T   00000613+0000001004          1400 JL2315               2AZ
440937000440937               440937               170213MA     1400+00000+MA0000002015+0000002015+000000000+000000283+0000002290+0000000008+I20000000000+0000002290+Z
440937001440937002-021040     440937006001023812216PARTY-PICKS 100PCE     0000001000+00000525+00000+0001T   00000525+0000001018          1400 JL2300               2AZ
440937002440937306-000540     440937006003000165780T/BRUSH+GUM PROTECTION 0000001000+00001490+00000+0001T   00001490+0000001018          1400 JL2200               2AZ
440938000440938               440938               170213MA     1400+00000+MA0000002630+0000002630+000000000+000000369+0000002990+0000000009+I20000000000+0000002990+Z
440938001440938077-000270     440938006003000395453GIFT-BAG PPR JMB 33X45 0000001000+00002630+00000+0001T   00002630+0000001030          1400 JL2112               2AZ
440939000440939               440939               170213MA     1400+00000+MA0000007016+0000007016+000000000+000000983+0000007999+0000000000+I40000007999+0000000000+Z
440939001440939203-000006     440939006001023752789COASTER-SET 4PCE       0000001000+00007016+00000+0001T   00008771+0008191036          1400 JL2300               2AZ
440940000440940               440940               170213MA     1400+00000+MA0000000613+0000000613+000000000+000000086+0000000690+0000000009+I20000000000+0000000690+Z
440940001440940083-000055     440940006003000003853LIGHTER ELCTRNC REFILBL0000001000+00000613+00000+0001T   00000613+0000001037          1400 JL2315               2AZ
440941000440941               440941               170213MA     1400+00000+MA0000001053+0000001053+000000000+000000148+0000001200+0000000001+I20000000000+0000001200+Z
440941001440941046-000012     440941006904708013062BATTERIES AA  CARD-OF-40000001000-00001314+00000+0001T   00001314+0000001045          1400 JL23122IC            2 Z
440941002440941046-000010-A   440941006003000438778BATTERIES SIZE:AAA 4PCE0000001000+00002367+00000+0001T   00002367+0000001045          1400 JL2312               2AZ
440942000440942               440942               170213MA     1400+00000+MA0000000613+0000000613+000000000+000000086+0000000690+0000000009+I20000000000+0000000690+Z
440942001440942077-000311     440942006001023608666GIFT-BAG 11X14CM GLOSS 0000001000+00000613+00000+0001T   00000613+0000001045          1400 JL2112               2AZ
440943000440943               440943               170213MA     1400+00000+MA0000003855+0000003855+000000000+000000541+0000004390+0000000006+I20000000000+0000004390+Z
440943001440943077-000151     440943006008766114676GIFT-WRAP C/PHANE ASSTD0000003000+00000876+00000+0001T   00000876+0000001046          1400 JL2112               2AZ
440943002440943077-000245     440943006001023759214GIFT-RIBBON METALLICx2 0000001000+00001227+00000+0001T   00001227+0000001046          1400 JL2112               2AZ
440944000440944               440944               170213MA     1400+00000+MA0000008770+0000008770+000000000+000001228+0000009990+0000000008+I20000000000+0000009990+Z
440944001440944079-001001     440944006003000448593CANVAS A3 WOOD MOUNTED 0000002000+00004385+00000+0001T   00004385+0000001048          1400 JL2130               2AZ
440945000440945               440945               170213MA     1400+00000+MA0000002192+0000002192+000000000+000000307+0000002490+0000000009+I20000000000+0000002490+Z
440945001440945206-000245     440945006003000680818BOTTLE CLEANER PLASTIC 0000001000+00002192+00000+0001T   00002192+0000001053          1400 JL2321               2AZ
440946000440946               440946               170213MA     1400+00000+MA0000005611+0000005611+000000000+000000786+0000006390+0000000007+I20000000000+0000006390+Z
440946001440946079-000195     440946006003000161485P/CRAYONS RETRCTBLEx10 0000001000+00003507+00000+0001T   00003507+0000001056          1400 JL2130               2AZ
440946002440946903-000095     440946006001704011495SWT SPECKLED-EGGS 100G 0000001000+00002104+00000+0001T   00002104+0000001056          1400 JL2150               2AZ
440947000440947               440947               170213MA     1400+00000+MA0000003068+0000003068+000000000+000000430+0000003490+0000000008+I20000000000+0000003490+Z
440947001440947080-000124     440947006003000297733CARD & ENV VALENTINES  0000001000+00001578+00000+0001T   00001578+0000001057          1400 JL2112               2AZ
440947002440947077-000304     440947006001023483232GIFT-BAG 25X32CM E/DAY 0000001000+00001490+00000+0001T   00001490+0000001057          1400 JL2112               2AZ
440948000440948               440948               170213MA     1400+00000+MA0000014908+0000014908+000000000+000002089+0000016997+0000000000+I40000016997+0000000000+Z
440948001440948040-000103     440948000694202201862C/HOLDER-SET 5PC W/TRAY0000001000+00011402+00000+0001T   00013157+0008191202          1400 JL2510               2AZ
440948002440948077-000011-D   440948006001023808554TISSUE-WRAP WHITE 10PCE0000001000+00000876+00000+0001T   00000876+0000001202          1400 JL2112               2AZ
440948003440948077-000270     440948006003000395453GIFT-BAG PPR JMB 33X45 0000001000+00002630+00000+0001T   00002630+0000001202          1400 JL2112               2AZ
440949000440949               440949               170213MA     1400+00000+MA0000005262+0000005262+000000000+000000737+0000005990+0000000009+I20000000000+0000005990+Z
440949001440949031-000902-C   440949006001023726315P/FRAME WDN OAK 13X18CM0000001000+00005262+00000+0001T   00005262+0000001203          1400 JL2510               2AZ
440950000440950               440950               170213MA     1400+00000+MA0000017150+0000017150+000000000+000002402+0000019552+0000000000+I40000019552+0000000000+Z
440950001440950469-004001     440950006003000241927B/BLOCKS 66PC POLICE   0000001000+00015788+00000+0001T   00015788+0000001206          1400 JL2755               2AZ
440950002440950565-000892-A   440950006003000615797NOVELTY FUN BALL       0000001000+00001314+00000+0001T   00001753+0008141206          1400 JL2745               2AZ
440950003440950112-116069     440950006009681820277TCS CARRIER BAG JUMBO  0000001000+00000048+00000+0001T   00000048+0000001206          1400 JL2090               2AZ
440951000440951               440951               170213MA     1400+00000+MA0000006486+0000006486+000000000+000000909+0000007390+0000000005+I20000000000+0000007390+Z
440951001440951903-000120     440951006002099001665SWEET GS ZILLIONS 50g  0000001000+00000700+00000+0001T   00000700+0000001207          1400 JL2150               2AZ
440951002440951142-000812     440951006003000165421GLOVES LATEX 10PCE-5PRS0000001000+00002630+00000+0001T   00002630+0000001207          1400 JL2810               2AZ
440951003440951016-006515-A   440951006003000461707S/JAR GLS W/HANDLE 500 0000002000+00001578+00000+0001T   00001753+0008191207          1400 JL2300               2AZ
440952000440952               440952               170213MA     1400+00000+MA0000001578+0000001578+000000000+000000221+0000001790+0000000009+I20000000000+0000001790+Z
440952001440952077-000315     440952006003000181186GIFT-BAG 20x28cm MATT  0000001000+00001578+00000+0001T   00001578+0000001208          1400 JL2112               2AZ
440953000440953               440953               170213MA     1400+00000+MA0000030553+0000030553+000000000+000004281+0000034834+0000000000+I40000034834+0000000000+Z
440953001440953112-116069     440953006009681820277TCS CARRIER BAG JUMBO  0000001000+00000048+00000+0001T   00000048+0000001217          1400 JL2090               2AZ
440953002440953002-220009     440953006003000567478FOODCOVER COLL. ROUND  0000002000+00005262+00000+0001T   00005262+0000001217          1400 JL2300               2AZ
440953003440953019-071603     440953006001023772039RIVER-STONES 1kg PEACH 0000001000+00002630+00000+0001T   00002630+0000001217          1400 JL2510               2AZ
440953004440953034-001486     440953006001023713803COOEY BABY-FOOD FREEZER0000001000+00003507+00000+0001T   00003507+0000001217          1400 JL2215               2AZ
440953005440953903-000120     440953006002099001665SWEET GS ZILLIONS 50g  0000001000+00000700+00000+0001T   00000700+0000001217          1400 JL2150               2AZ
440953006440953903-000844     440953005010478432567SWT CANDY DL LUV HEARTS0000005000+00001314+00000+0001T   00001314+0000001217          1400 JL2150               2AZ
440953007440953019-071600     440953006001023771971RIVER-STONES 1kg MIXED 0000001000+00002630+00000+0001T   00002630+0000001217          1400 JL2510               2AZ
440953008440953024-000042     440953006002580009255M/CUP MINI 30ML H/HOUSE0000001000+00002192+00000+0001T   00002192+0000001217          1400 JL2300               2AZ
440953009440953105-007011     440953006009654960269HONEY JAR 350ml        0000002000+00000876+00000+0001T   00000876+0000001217          1400 JL2210               2AZ
440954000440954               440954               170213MA     1400+00000+MA0000003555+0000003555+000000000+000000498+0000004053+0000000000+I40000004053+0000000000+Z
440954001440954562-000011     440954006001023782182PLAY DOUGH NEON TUBE   0000001000+00003507+00000+0001T   00003507+0000001226          1400 JL2755               2AZ
440954002440954112-116069     440954006009681820277TCS CARRIER BAG JUMBO  0000001000+00000048+00000+0001T   00000048+0000001226          1400 JL2090               2AZ
440955000440955               440955               170213MA     1400+00000+MA0000005699+0000005699+000000000+000000799+0000006498+0000000000+I40000006498+0000000000+Z
440955001440955084-000895     440955006003000576968NAIL FILES 4PC INCL    0000001000+00002630+00000+0001T   00002630+0000001227          1400 JL2200               2AZ
440955002440955084-009417     440955006001023783493SCISSORS 21+14cm 2PCE  0000001000+00003069+00000+0001T   00003069+0000001227          1400 JL2200               2AZ
440956000440956               440956               170213MA     1400+00000+MA0000013370+0000013370+000000000+000001875+0000015245+0000000000+I40000015245+0000000000+Z
440956001440956046-000014     440956006001023725387BATTERIES SIZE:AAA 4PCE0000003000+00001139+00000+0001T   00001139+0000001235          1400 JL2312               2AZ
440956002440956046-000012     440956006904708013062BATTERIES AA  CARD-OF-40000002000+00001314+00000+0001T   00001314+0000001235          1400 JL2312               2AZ
440956003440956048-071505     440956006001023714626TOUCH-LIGHTS 8cm  SET-20000001000+00004385+00000+0001T   00004385+0000001235          1400 JL2305               2AZ
440956004440956112-116069     440956006009681820277TCS CARRIER BAG JUMBO  0000001000+00000048+00000+0001T   00000048+0000001235          1400 JL2090               2AZ
440956005440956903-000095     440956006001704011495SWT SPECKLED-EGGS 100G 0000001000+00002104+00000+0001T   00002104+0000001235          1400 JL2150               2AZ
440956006440956903-000137     440956006002099004130SWEET GS JELLY BEAN 60G0000001000+00000788+00000+0001T   00000788+0000001235          1400 JL2150               2AZ
440957000440957               440957               170213MA     1400+00000+MA0000000876+0000000876+000000000+000000123+0000000990+0000000009+I20000000000+0000000990+Z
440957001440957306-000501     440957006003000577293T/BRUSH KIDDIES SUCKER 0000001000+00000876+00000+0001T   00000876+0000001235          1400 JL2200               2AZ
440958000440958               440958               170213MA     1400+00000+MA0000003065+0000003065+000000000+000000430+0000003490+0000000005+I20000000000+0000003490+Z
440958001440958006-001000     440958006003000093779HELIUM BALLOON FILL    0000005000+00000613+00000+0001T   00000613+0000001240          1400 JL2131               2AZ
440959000440959               440959               170213MA     1400+00000+MA0000003326+0000003326+000000000+000000469+0000003790+0000000005+I20000000000+0000003790+Z
440959001440959080-000124     440959006003000297733CARD & ENV VALENTINES  0000001000+00001578+00000+0001T   00001578+0000001241          1400 JL2112               2AZ
440959002440959083-000049     440959004891035200024CIG-LIGHTER DISPOSABLE 0000004000+00000437+00000+0001T   00000437+0000001241          1400 JL2315               2AZ
440960000440960               440960               170213MA     1400+00000+MA0000002630+0000002630+000000000+000000369+0000002999+0000000000+I40000002999+0000000000+Z
440960001440960368-000100     440960006001023474742PLUSH MD BEAR 12cm     0000001000+00002630+00000+0001T   00002630+0000001243          1400 JL2745               2AZ
440961000440961               440961               170213MA     1400+00000+MA0000002630+0000002630+000000000+000000369+0000002999+0000000000+I40000002999+0000000000+Z
440961001440961036-000012     440961006001023991584LINT BRUSH W/PL HANDLE 0000001000+00002630+00000+0001T   00002630+0000001246          1400 JL2212               2AZ
440962000440962               440962               170213MA     1400+00000+MA0000003507+0000003507+000000000+000000491+0000003990+0000000008+I20000000000+0000003990+Z
440962001440962200-000012     440962006003000399536BAG 50PCE 165x146mm    0000001000+00003507+00000+0001T   00003507+0000001246          1400 JL2214               2AZ
440963000440963               440963               170213MA     1400+00000+MA0000004385+0000004385+000000000+000000614+0000004990+0000000009+I20000000000+0000004990+Z
440963001440963006-000190     440963006003000685530BALLOONS LOVE 81x91cm  0000001000+00004385+00000+0001T   00004385+0000001252          1400 JL2131               2AZ
440964000440964               440964               170213MA     1400+00000+MA0000024158+0000024158+000000000+000003384+0000027542+0000000000+I40000027542+0000000000+Z
440964001440964112-116069     440964006009681820277TCS CARRIER BAG JUMBO  0000001000+00000048+00000+0001T   00000048+0000001334          1400 JL2090               2AZ
440964002440964466-000051     440964006001023800510WATER BOMB 4,5cm SET 6 0000002000+00003507+00000+0001T   00003507+0000001334          1400 JL2785               2AZ
440964003440964264-000915     440964000090159151074MAISTO FRESH PAINT     0000001000+00004385+00000+0001T   00004385+0000001334          1400 JL2710               2AZ
440964004440964466-000051     440964006001023800510WATER BOMB 4,5cm SET 6 0000002000+00003507+00000+0001T   00003507+0000001334          1400 JL2785               2AZ
440964005440964369-001138     440964006003000555185VINYL 8.5cm THEMED DUCK0000001000+00001753+00000+0001T   00002630+0008141334          1400 JL2745               2AZ
440964006440964369-001138-D   440964006003000097623BABY BATH VINYL THEMED 0000001000+00002630+00000+0001T   00002630+0000001334          1400 JL2745               2AZ
440964007440964077-000407     440964006003000145096G/BAG PP 19X26X8CM     0000001000+00001314+00000+0001T   00001314+0000001334          1400 JL2112               2AZ
440965000440965               440965               170213MA     1400+00000+MA0000000876+0000000876+000000000+000000123+0000000990+0000000009+I20000000000+0000000990+Z
440965001440965077-000011-E   440965006001023808646TISSUE-WRAP PINK 10PCE 0000001000+00000876+00000+0001T   00000876+0000001334          1400 JL2112               2AZ
440966000440966               440966               170213MA     1400+00000+MA0000002366+0000002366+000000000+000000332+0000002690+0000000008+I20000000000+0000002690+Z
440966001440966903-000200     440966006009826020234SWT CHOC RP CHOCO 23G  0000001000+00000788+00000+0001T   00000788+0000001336          1400 JL2150               2AZ
440966002440966080-000124     440966006003000297733CARD & ENV VALENTINES  0000001000+00001578+00000+0001T   00001578+0000001336          1400 JL2112               2AZ
440967000440967               440967               170213MA     1400+00000+MA0000002191+0000002191+000000000+000000307+0000002498+0000000000+I40000002498+0000000000+Z
440967001440967007-000204     440967006009635835272EXAM-PAD 60SHT PUNCHED 0000001000+00000964+00000+0001T   00000964+0000001338          1400 JL2130               2AZ
440967002440967007-000206     440967006009635830215X/PAD 80-SHEETS PUNCHED0000001000+00001227+00000+0001T   00001227+0000001338          1400 JL2130               2AZ
440968000440968               440968               170213MA     1400+00000+MA0000006574+0000006574+000000000+000000921+0000007490+0000000005+I20000000000+0000007490+Z
440968001440968206-000120     440968006003000628308PEELER CARROT SHARPENER0000001000+00001753+00000+0001T   00001753+0000001338          1400 JL2321               2AZ
440968002440968077-000470     440968006003000330171G-BAG DESGN SML 11X14CM0000001000+00001314+00000+0001T   00001314+0000001338          1400 JL2112               2AZ
440968003440968016-009604     440968006001023519559SHAKERS 2PC COW-DESIGNS0000001000+00003507+00000+0001T   00003507+0000001338          1400 JL2300               2AZ
440969000440969               440969               170213MA     1400+00000+MA0000008768+0000008768+000000000+000001228+0000009990+0000000006+I20000000000+0000009990+Z
440969001440969200-000067     440969006003000330683STRAWS DRINKING 100PC  0000004000+00002192+00000+0001T   00002192+0000001350          1400 JL2214               2AZ
440970000440970               440970               170213MA     1400+00000+MA0000009116+0000009116+000000000+000001278+0000010394+0000000000+I40000010394+0000000000+Z
440970001440970077-000327     440970006001023677686GIFT-BAG 25X32CM E/D BA0000001000+00001490+00000+0001T   00001490+0000001353          1400 JL2112               2AZ
440970002440970564-000012     440970006001023130075BUBBLE BOTTLE MAGIC    0000001000+00000700+00000+0001T   00000700+0000001353          1400 JL2131               2AZ
440970003440970362-003000     440970006003000295258GIRL HEART NOTEBOOK    0000001000+00001753+00000+0001T   00002630+0008191353          1400 JL2160               2AZ
440970004440970903-000138     440970006002099004314SWT GS WINE GUMS 60G   0000001000+00000788+00000+0001T   00000788+0000001353          1400 JL2150               2AZ
440970005440970567-011480     440970009781472379375BK PRINCESS AND THE PEA0000001000+00004385+00000+0001T   00004385+0000001353          1400 JL2757               2AZ
440971000440971               440971               170213MA     1400+00000+MA0000007364+0000007364+000000000+000001033+0000008390+0000000007+I20000000000+0000008390+Z
440971001440971046-000011-A   440971006003000438891BATTERIES SIZE:AA  4PCE0000001000+00002630+00000+0001T   00002630+0000001359          1400 JL2312               2AZ
440971002440971046-000010-A   440971006003000438778BATTERIES SIZE:AAA 4PCE0000002000+00002367+00000+0001T   00002367+0000001359          1400 JL2312               2AZ
440972000440972               440972               170213MA     1400+00000+MA0000005262+0000005262+000000000+000000737+0000005999+0000000000+I40000005999+0000000000+Z
440972001440972494-059258     440972000078257592586INTEX TUBE 76cm        0000001000+00005262+00000+0001T   00005262+0000001420          1400 JL2787               2AZ
440973000440973               440973               170213MA     1400+00000+MA0000005085+0000005085+000000000+000000712+0000005790+0000000007+I20000000000+0000005790+Z
440973001440973077-000303     440973006001023593757GIFT-BAG PAPER MED     0000001000+00001578+00000+0001T   00001578+0000001424          1400 JL2112               2AZ
440973002440973018-005009     440973006001023725608MUG W/PLUSH-BEAR LOVE  0000001000+00003507+00000+0001T   00003507+0000001424          1400 JL2515               2AZ
440974000440974               440974               170213MA     1400+00000+MA0000005963+0000005963+000000000+000000835+0000006798+0000000000+I40000006798+0000000000+Z
440974001440974077-000303     440974006001023593757GIFT-BAG PAPER MED     0000001000+00001578+00000+0001T   00001578+0000001426          1400 JL2112               2AZ
440974002440974368-000049     440974006003000536955PLUSH BEAR 15cm LOVE   0000001000+00004385+00000+0001T   00004385+0000001426          1400 JL2745               2AZ
440975000440975               440975               170213MA     1400+00000+MA0000001490+0000001490+000000000+000000209+0000001690+0000000009+I20000000000+0000001690+Z
440975001440975077-000305     440975006003000395422GIFT-BAG WINE 10X35CM  0000001000+00001490+00000+0001T   00001490+0000001426          1400 JL2112               2AZ
440976000440976               440976               170213MA     1400+00000+MA0000017530+0000017530+000000000+000002460+0000019990+0000000000+I20000000000+0000019990+Z
440976001440976046-002025-PK2 440976004897006174868BATTERIES CR-2025  2PCE0000010000+00001753+00000+0001T   00001753+0000001427          1400 JL2312               2AZ
440977000440977               440977               170213MA     1400+00000+MA0000010524+0000010524+000000000+000001474+0000011998+0000000000+I40000011998+0000000000+Z
440977001440977007-010496     440977006003000640652MARKER WHITEBOARD 4PCE 0000001000+00001753+00000+0001T   00001753+0000001431          1400 JL2130               2AZ
440977002440977007-010501     440977006003000455157WIPE & CHALK 45X35CM   0000001000+00008771+00000+0001T   00008771+0000001431          1400 JL2130               2AZ
440978000440978               440978               170213MA     1400+00000+MA0000001578+0000001578+000000000+000000221+0000001790+0000000009+I20000000000+0000001790+Z
440978001440978080-000124     440978006003000297733CARD & ENV VALENTINES  0000001000+00001578+00000+0001T   00001578+0000001431          1400 JL2112               2AZ
440979000440979               440979               170213MA     1400+00000+MA0000010525+0000010525+000000000+000001474+0000011990+0000000009+I20000000000+0000011990+Z
440979001440979368-000005     440979006003000616862PLUSH MONSTER 24cm     0000001000+00010525+00000+0001T   00010525+0000001432          1400 JL2745               2AZ
440980000440980               440980               170213MA     1400+00000+MA0000006138+0000006138+000000000+000000860+0000006990+0000000008+I20000000000+0000006990+Z
440980001440980368-000001     440980006003000097982Plush Bear 25cm        0000001000+00004385+00000+0001T   00004385+0000001436          1400 JL2745               2AZ
440980002440980077-000309     440980006001023608604GIFT-BAG 25X32CM GLOSS 0000001000+00001753+00000+0001T   00001753+0000001436          1400 JL2112               2AZ
440981000440981               440981               170213MA     1400+00000+MA0000025645+0000025645+000000000+000003597+0000029240+0000000002+I20000000000+0000029240+Z
440981001440981112-116069     440981006009681820277TCS CARRIER BAG JUMBO  0000001000+00000048+00000+0001T   00000048+0000001438          1400 JL2090               2AZ
440981002440981083-000295     440981006001023898562LIGHTER-GAS BUTANE 18ml0000001000+00000876+00000+0001T   00000876+0000001438          1400 JL2315               2AZ
440981003440981046-000011-A   440981006003000438891BATTERIES SIZE:AA  4PCE0000001000+00002630+00000+0001T   00002630+0000001438          1400 JL2312               2AZ
440981004440981046-000400     440981006001023804983BATT ALKALINE 1.5Vx30PC0000001000+00003244+00000+0001T   00003244+0000001438          1400 JL2312               2AZ
440981005440981019-071595     440981006001023756428PEBBLES 250g SKY-BLUE  0000001000+00001753+00000+0001T   00001753+0000001438          1400 JL2510               2AZ
440981006440981019-071597     440981006008766071597PEBBLES 250g CLEAR  BAG0000001000+00002192+00000+0001T   00002192+0000001438          1400 JL2510               2AZ
440981007440981019-071596     440981006001023733078PEBBLES GLS 250g ASSTD.0000003000+00001753+00000+0001T   00001753+0000001438          1400 JL2510               2AZ
440981008440981019-071598     440981006001023693228PEBBLES GLS 250g WHITE 0000001000+00001753+00000+0001T   00001753+0000001438          1400 JL2510               2AZ
440981009440981019-071595     440981006001023756428PEBBLES 250g SKY-BLUE  0000001000+00001753+00000+0001T   00001753+0000001438          1400 JL2510               2AZ
440981010440981019-071597     440981006008766071597PEBBLES 250g CLEAR  BAG0000001000+00002192+00000+0001T   00002192+0000001438          1400 JL2510               2AZ
440981011440981019-071595     440981006001023756428PEBBLES 250g SKY-BLUE  0000001000+00001753+00000+0001T   00001753+0000001438          1400 JL2510               2AZ
440981012440981019-071597     440981006008766071597PEBBLES 250g CLEAR  BAG0000001000+00002192+00000+0001T   00002192+0000001438          1400 JL2510               2AZ
440982000440982               440982               170213MA     1400+00000+MA0000012327+0000012327+000000000+000001727+0000014050+0000000004+I20000000000+0000014050+Z
440982001440982368-000111     440982006001023780812PLUSH BEAR/DOG 29CM    0000001000+00012279+00000+0001T   00012279+0000001459          1400 JL2745               2AZ
440982002440982112-116069     440982006009681820277TCS CARRIER BAG JUMBO  0000001000+00000048+00000+0001T   00000048+0000001459          1400 JL2090               2AZ
440983000440983               440983               170213MA     1400+00000+MA0000006139+0000006139+000000000+000000860+0000006990+0000000009+I20000000000+0000006990+Z
440983001440983368-000265     440983006001023750914PLUSH BEAR 23CM ASSTD C0000001000+00006139+00000+0001T   00006139+0000001500          1400 JL2745               2AZ
440984000440984               440984               170213MA     1400+00000+MA0000012279+0000012279+000000000+000001720+0000013990+0000000009+I20000000000+0000013990+Z
440984001440984036-000025     440984006942022055566LINT-REMOVER B/O LRGE  0000001000+00012279+00000+0001T   00012279+0000001501          1400 JL2212               2AZ
440985000440985               440985               170213MA     1400+00000+MA0000002630+0000002630+000000000+000000369+0000002990+0000000009+I20000000000+0000002990+Z
440985001440985466-000584     440985006001023628787SKIPPING-ROPE          0000001000+00002630+00000+0001T   00002630+0000001503          1400 JL2785               2AZ
440986000440986               440986               170213MA     1400+00000+MA0000000612+0000000612+000000000+000000086+0000000690+0000000008+I20000000000+0000000690+Z
440986001440986079-009700-F   440986006003000545872PAPER SIRIO A4 TURQ COL0000001000+00000306+00000+0001T   00000306+0000001506          1400 JL2130               2AZ
440986002440986079-009700-I   440986006003000546114PAPER SIRIO A4 LILAC   0000001000+00000306+00000+0001T   00000306+0000001506          1400 JL2130               2AZ
440987000440987               440987               170213MA     1400+00000+MA0000009694+0000009694+000000000+000001358+0000011050+0000000002+I20000000000+0000011050+Z
440987001440987112-116069     440987006009681820277TCS CARRIER BAG JUMBO  0000001000+00000048+00000+0001T   00000048+0000001508          1400 JL2090               2AZ
440987002440987018-050000     440987006003000412679MUG OCC LOVE TWIN BEAR 0000001000+00006139+00000+0001T   00006139+0000001508          1400 JL2515               2AZ
440987003440987018-000136     440987006001023659026MUG OCC LOVE W/PLUSH   0000001000+00003507+00000+0001T   00003507+0000001508          1400 JL2515               2AZ
440988000440988               440988               170213MA     1400+00000+MA0000001578+0000001578+000000000+000000221+0000001790+0000000009+I20000000000+0000001790+Z
440988001440988018-000127     440988006001023380289MUG OCC STRAIGHT LOVE  0000001000+00001578+00000+0001T   00001753+0006471514          1400 JL2515               2AZ
440989000440989               440989               170213MA     1400+00000+MA0000009470+0000009470+000000000+000001327+0000010790+0000000007+I20000000000+0000010790+Z
440989001440989903-000095     440989006001704011495SWT SPECKLED-EGGS 100G 0000002000+00002104+00000+0001T   00002104+0000001516          1400 JL2150               2AZ
440989002440989304-001116     440989006003000426164F/BUNCH ROSES 12-HEAD  0000001000+00005262+00000+0001T   00005262+0000001516          1400 JL2510               2AZ
440990000440990               440990               170213MA     1400+00000+MA0000004382+0000004382+000000000+000000615+0000004990+0000000007+I20000000000+0000004990+Z
440990001440990018-000025     440990006003000095056MUG S/WARE V-SHAPE CER.0000001000+00002630+00000+0001T   00002630+0000001517          1400 JL2515               2AZ
440990002440990077-000011-D   440990006001023808554TISSUE-WRAP WHITE 10PCE0000001000+00000876+00000+0001T   00000876+0000001517          1400 JL2112               2AZ
440990003440990903-000494     440990006001704009911SWT GUMMY TEENY TEDDIES0000001000+00000876+00000+0001T   00000876+0000001517          1400 JL2150               2AZ
440991000440991               440991               170213MA     1400+00000+MA0000000876+0000000876+000000000+000000123+0000000990+0000000009+I20000000000+0000000990+Z
440991001440991903-003080     440991005907029004673SWT SNACK STIX CHOC 50g0000001000+00000876+00000+0001T   00000876+0000001518          1400 JL2150               2AZ
440992000440992               440992               170213MA     1400+00000+MA0000017589+0000017589+000000000+000002464+0000020053+0000000000+I40000020053+0000000000+Z
440992001440992018-050000     440992006003000412679MUG OCC LOVE TWIN BEAR 0000001000+00006139+00000+0001T   00006139+0000001520          1400 JL2515               2AZ
440992002440992368-000637     440992006001023874092PLUSH BEAR SLEEPING LOV0000001000+00011402+00000+0001T   00012279+0006471520          1400 JL2745               2AZ
440992003440992112-116069     440992006009681820277TCS CARRIER BAG JUMBO  0000001000+00000048+00000+0001T   00000048+0000001520          1400 JL2090               2AZ
440993000440993               440993               170213MA     1400+00000+MA0000015740+0000015740+000000000+000002208+0000017940+0000000008+I20000000000+0000017940+Z
440993001440993466-000200     440993006001023621665HULA-HOOP     ASSTD    0000002000+00001753+00000+0001T   00001753+0000001530          1400 JL2785               2AZ
440993002440993263-000559     440993006003000671908VEHICLE TAPE 5m 4.8cm  0000001000+00003069+00000+0001T   00003069+0000001530          1400 JL2710               2AZ
440993003440993133-000012     440993006001023561084CLEANING-CLOTH GREEN   0000001000+00001753+00000+0001T   00001753+0000001530          1400 JL2212               2AZ
440993004440993112-116069     440993006009681820277TCS CARRIER BAG JUMBO  0000001000+00000048+00000+0001T   00000048+0000001530          1400 JL2090               2AZ
440993005440993903-000095     440993006001704011495SWT SPECKLED-EGGS 100G 0000001000+00002104+00000+0001T   00002104+0000001530          1400 JL2150               2AZ
440993006440993562-000808     440993006003000651573EDU PEG BOARD SML      0000001000+00002630+00000+0001T   00002630+0000001530          1400 JL2755               2AZ
440993007440993564-000053     440993006003000575947BUBBLE WAND AVENGERS   0000001000+00002630+00000+0001T   00002630+0000001530          1400 JL2131               2AZ
440994000440994               440994               170213MA     1400+00000+MA0000010833+0000010833+000000000+000001517+0000012350+0000000000+I20000000000+0000012350+Z
440994001440994018-000177     440994006001023797513MUG MINI LOVE ASSTD    0000001000+00000700+00000+0001T   00000700+0000001531          1400 JL2515               2AZ
440994002440994903-000194     440994006009826020616SWT CHOC RP LOLLY 25G  0000001000+00001314+00000+0001T   00001314+0000001531          1400 JL2150               2AZ
440994003440994001-091415     440994006003000329113W/GLS OCC. LOVE 2PC 2800000001000+00008771+00000+0001T   00009648+0006471531          1400 JL2515               2AZ
440994004440994112-116069     440994006009681820277TCS CARRIER BAG JUMBO  0000001000+00000048+00000+0001T   00000048+0000001531          1400 JL2090               2AZ
440995000440995               440995               170213MA     1400+00000+MA0000003507+0000003507+000000000+000000491+0000003990+0000000008+I20000000000+0000003990+Z
440995001440995466-000106     440995006003000128112BALL PL 20CM BASKETBALL0000001000+00003507+00000+0001T   00003507+0000001533          1400 JL2785               2AZ
440996000440996               440996               170213MA     1400+00000+MA0000002630+0000002630+000000000+000000369+0000002999+0000000000+I40000002999+0000000000+Z
440996001440996051-004036     440996006003000624324PLANT-TIES PL/WIRE 3x100000001000+00002630+00000+0001T   00002630+0000001534          1400 JL2820               2AZ
440997000440997               440997               170213MA     1400+00000+MA0000001313+0000001313+000000000+000000184+0000001490+0000000007+I20000000000+0000001490+Z
440997001440997018-000177     440997006001023797513MUG MINI LOVE ASSTD    0000001000+00000700+00000+0001T   00000700+0000001535          1400 JL2515               2AZ
440997002440997077-000311     440997006001023608666GIFT-BAG 11X14CM GLOSS 0000001000+00000613+00000+0001T   00000613+0000001535          1400 JL2112               2AZ
440998000440998               440998               170213MA     1400+00000+MA0000011450+0000011450+000000000+000001604+0000013050+0000000004+I20000000000+0000013050+Z
440998001440998368-000637     440998006001023874092PLUSH BEAR SLEEPING LOV0000001000+00011402+00000+0001T   00012279+0006471536          1400 JL2745               2AZ
440998002440998112-116069     440998006009681820277TCS CARRIER BAG JUMBO  0000001000+00000048+00000+0001T   00000048+0000001536          1400 JL2090               2AZ
440999000440999               440999               170213MA     1400+00000+MA0000016794+0000016794+000000000+000002353+0000019140+0000000007+I20000000000+0000019140+Z
440999001440999112-116069     440999006009681820277TCS CARRIER BAG JUMBO  0000001000+00000048+00000+0001T   00000048+0000001544          1400 JL2090               2AZ
440999002440999018-040000     440999006003000421183MUG OCCASIONS DAD 2PCE 0000001000+00006139+00000+0001T   00006139+0000001544          1400 JL2515               2AZ
440999003440999018-000136     440999006001023659026MUG OCC LOVE W/PLUSH   0000001000+00003507+00000+0001T   00003507+0000001544          1400 JL2515               2AZ
440999004440999903-000517     440999006001704012768SWT STRAWS FIZZY CHERRY0000004000+00001227+00000+0001T   00001227+0000001544          1400 JL2150               2AZ
440999005440999089-000501     440999006003000622900KEY CHAIN LIGHT LASER  0000001000+00002192+00000+0001T   00002192+0000001544          1400 JL2205               2AZ
441000000441000               441000               170213MA     1400+00000+MA0000008767+0000008767+000000000+000001228+0000009990+0000000005+I20000000000+0000009990+Z
441000001441000077-000299-A   441000006003000670888GIFT-BAG PAPER JMB LOVE0000001000+00001753+00000+0001T   00001753+0000001545          1400 JL2112               2AZ
441000002441000089-000200     441000006003000485840KEY CHAIN POLY LOVE IS 0000001000+00003507+00000+0001T   00004385+0008121545          1400 JL2205               2AZ
441000003441000018-000136     441000006001023659026MUG OCC LOVE W/PLUSH   0000001000+00003507+00000+0001T   00003507+0000001545          1400 JL2515               2AZ
441001000441001               441001               170213MA     1400+00000+MA0000012670+0000012670+000000000+000001778+0000014440+0000000008+I20000000000+0000014440+Z
441001001441001112-116069     441001006009681820277TCS CARRIER BAG JUMBO  0000001000+00000048+00000+0001T   00000048+0000001546          1400 JL2090               2AZ
441001002441001077-000240     441001006003000326259G/RIBBON 4PC PEARLIZED 0000001000+00001753+00000+0001T   00001753+0000001546          1400 JL2112               2AZ
441001003441001089-000019     441001006003000092291K/CHAIN MINI BOOT 13cm 0000001000+00001753+00000+0001T   00001753+0000001546          1400 JL2205               2AZ
441001004441001079-006495     441001006003000159987GLITTER SHAKERS 6PK    0000001000+00002630+00000+0001T   00002630+0000001546          1400 JL2130               2AZ
441001005441001079-003010     441001006003000448845A/TUBE 75ML YELLOW     0000001000+00001753+00000+0001T   00001753+0000001546          1400 JL2130               2AZ
441001006441001079-003002     441001006003000447886A/TUBE 75ML RED        0000001000+00001753+00000+0001T   00001753+0000001546          1400 JL2130               2AZ
441001007441001079-003004     441001006003000448128TUBE 75ML LIGHT GREEN  0000001000+00001753+00000+0001T   00001753+0000001546          1400 JL2130               2AZ
441001008441001071-081091     441001006001151010287STAED/GENKEM ALL-STICK 0000001000+00001227+00000+0001T   00001227+0000001546          1400 JL2130               2AZ
441002000441002               441002               170213MA     1400+00000+MA0000001752+0000001752+000000000+000000246+0000001990+0000000008+I20000000000+0000001990+Z
441002001441002077-000151     441002006008766114676GIFT-WRAP C/PHANE ASSTD0000002000+00000876+00000+0001T   00000876+0000001547          1400 JL2112               2AZ
441003000441003               441003               170213MA     1400+00000+MA0000001139+0000001139+000000000+000000160+0000001290+0000000009+I20000000000+0000001290+Z
441003001441003903-000087     441003006001704000161SWT SPECKLED-EGGS 50G  0000001000+00001139+00000+0001T   00001139+0000001548          1400 JL2150               2AZ
441004000441004               441004               170213MA     1400+00000+MA0000004208+0000004208+000000000+000000590+0000004798+0000000000+I40000004798+0000000000+Z
441004001441004903-000095     441004006001704011495SWT SPECKLED-EGGS 100G 0000002000+00002104+00000+0001T   00002104+0000001551          1400 JL2150               2AZ
441005000441005               441005               170213MA     1400+00000+MA0000001139+0000001139+000000000+000000160+0000001290+0000000009+I20000000000+0000001290+Z
441005001441005903-000087     441005006001704000161SWT SPECKLED-EGGS 50G  0000001000+00001139+00000+0001T   00001139+0000001552          1400 JL2150               2AZ
441006000441006               441006               170213MA     1400+00000+MA0000002366+0000002366+000000000+000000332+0000002698+0000000000+I40000002698+0000000000+Z
441006001441006903-000521     441006006001704009652SWT GUMMY SOFT GUMS    0000001000+00000876+00000+0001T   00000876+0000001556          1400 JL2150               2AZ
441006002441006077-000452     441006006003000284986G/BAG METALLIC MED EMB 0000001000+00001490+00000+0001T   00001490+0000001556          1400 JL2112               2AZ
441007000441007               441007               170213MA     1400+00000+MA0000009116+0000009116+000000000+000001277+0000010390+0000000003+I20000000000+0000010390+Z
441007001441007903-000087     441007006001704000161SWT SPECKLED-EGGS 50G  0000001000+00001139+00000+0001T   00001139+0000001559          1400 JL2150               2AZ
441007002441007018-000136     441007006001023659026MUG OCC LOVE W/PLUSH   0000001000+00003507+00000+0001T   00003507+0000001559          1400 JL2515               2AZ
441007003441007077-000303     441007006001023593757GIFT-BAG PAPER MED     0000001000+00001578+00000+0001T   00001578+0000001559          1400 JL2112               2AZ
441007004441007080-000124     441007006003000297733CARD & ENV VALENTINES  0000001000+00001578+00000+0001T   00001578+0000001559          1400 JL2112               2AZ
441007005441007903-000194     441007006009826020616SWT CHOC RP LOLLY 25G  0000001000+00001314+00000+0001T   00001314+0000001559          1400 JL2150               2AZ
441008000441008               441008               170213MA     1400+00000+MA0000002452+0000002452+000000000+000000345+0000002790+0000000007+I20000000000+0000002790+Z
441008001441008903-000011     441008006002099007315SWT MALLOW CHOC 15G    0000002000+00000437+00000+0001T   00000437+0000001606          1400 JL2150               2AZ
441008002441008077-000303     441008006001023593757GIFT-BAG PAPER MED     0000001000+00001578+00000+0001T   00001578+0000001606          1400 JL2112               2AZ
441009000441009               441009               170213MA     1400+00000+MA0000013155+0000013155+000000000+000001843+0000014998+0000000000+I40000014998+0000000000+Z
441009001441009368-000637     441009006001023874092PLUSH BEAR SLEEPING LOV0000001000+00011402+00000+0001T   00012279+0006471610          1400 JL2745               2AZ
441009002441009077-000299-A   441009006003000670888GIFT-BAG PAPER JMB LOVE0000001000+00001753+00000+0001T   00001753+0000001610          1400 JL2112               2AZ
441010000441010               441010               170213MA     1400+00000+MA0000019779+0000019779+000000000+000002771+0000022550+0000000000+I20000000000+0000022550+Z
441010001441010006-000190     441010006003000685530BALLOONS LOVE 81x91cm  0000001000+00004385+00000+0001T   00004385+0000001614          1400 JL2131               2AZ
441010002441010080-000114     441010006003000246472CARD&ENV LOVE-MUSICAL  0000001000+00001314+00000+0001T   00001753+0008151614          1400 JL2112               2AZ
441010003441010112-116069     441010006009681820277TCS CARRIER BAG JUMBO  0000001000+00000048+00000+0001T   00000048+0000001614          1400 JL2090               2AZ
441010004441010031-001008     441010006003000406494P/FRAME COLLAGE PLASTIC0000001000+00012279+00000+0001T   00012279+0000001614          1400 JL2510               2AZ
441010005441010077-000115     441010006001023834225WRAP METALLIC 700mmx1m 0000001000+00001753+00000+0001T   00001753+0000001614          1400 JL2112               2AZ
441011000441011               441011               170213MA     1400+00000+MA0000001489+0000001489+000000000+000000209+0000001690+0000000008+I20000000000+0000001690+Z
441011001441011083-000055     441011006003000003853LIGHTER ELCTRNC REFILBL0000001000+00000613+00000+0001T   00000613+0000001617          1400 JL2315               2AZ
441011002441011083-000295     441011006001023898562LIGHTER-GAS BUTANE 18ml0000001000+00000876+00000+0001T   00000876+0000001617          1400 JL2315               2AZ
441012000441012               441012               170213MA     1400+00000+MA0000010479+0000010479+000000000+000001470+0000011949+0000000000+I40000011949+0000000000+Z
441012001441012112-116069     441012006009681820277TCS CARRIER BAG JUMBO  0000001000+00000048+00000+0001T   00000048+0000001621          1400 JL2090               2AZ
441012002441012079-000623     441012006001023836274CHALK MARBLE 5PCE      0000001000+00001753+00000+0001T   00001753+0000001621          1400 JL2130               2AZ
441012003441012079-003002     441012006003000447886A/TUBE 75ML RED        0000001000+00001753+00000+0001T   00001753+0000001621          1400 JL2130               2AZ
441012004441012079-003010     441012006003000448845A/TUBE 75ML YELLOW     0000001000+00001753+00000+0001T   00001753+0000001621          1400 JL2130               2AZ
441012005441012079-003005     441012006003000448241A/TUBE 75ML BLUE       0000001000+00001753+00000+0001T   00001753+0000001621          1400 JL2130               2AZ
441012006441012071-081091     441012006001151010287STAED/GENKEM ALL-STICK 0000001000+00001227+00000+0001T   00001227+0000001621          1400 JL2130               2AZ
441012007441012566-000359     441012006003000582709STICKER BOOK LOVE SPARK0000001000+00002192+00000+0001T   00002192+0000001621          1400 JL2130               2AZ
441013000441013               441013               170213MA     1400+00000+MA0000003592+0000003592+000000000+000000503+0000004090+0000000005+I20000000000+0000004090+Z
441013001441013077-000926     441013006003000414178G/WRAP 700mmx2m LOVE   0000001000+00002192+00000+0001T   00002192+0000001622          1400 JL2112               2AZ
441013002441013018-000177     441013006001023797513MUG MINI LOVE ASSTD    0000002000+00000700+00000+0001T   00000700+0000001622          1400 JL2515               2AZ
441014000441014               441014               170213MA     1400+00000+MA0000007061+0000007061+000000000+000000991+0000008052+0000000000+I40000008052+0000000000+Z
441014001441014077-000270     441014006003000395453GIFT-BAG PPR JMB 33X45 0000001000+00002630+00000+0001T   00002630+0000001624          1400 JL2112               2AZ
441014002441014077-000005-D   441014006003000414567PAPER TISSUE 50x70cm   0000001000+00001753+00000+0001T   00001753+0000001624          1400 JL2112               2AZ
441014003441014077-000349-B   441014006001023908315G/RIBBON 3ROLLS 12BOWS 0000001000+00002630+00000+0001T   00002630+0000001624          1400 JL2112               2AZ
441014004441014112-116069     441014006009681820277TCS CARRIER BAG JUMBO  0000001000+00000048+00000+0001T   00000048+0000001624          1400 JL2090               2AZ
441015000441015               441015               170213MA     1400+00000+MA0000017583+0000017583+000000000+000002465+0000020040+0000000008+I20000000000+0000020040+Z
441015001441015112-116069     441015006009681820277TCS CARRIER BAG JUMBO  0000001000+00000048+00000+0001T   00000048+0000001625          1400 JL2090               2AZ
441015002441015083-000049     441015004891035200024CIG-LIGHTER DISPOSABLE 0000001000+00000437+00000+0001T   00000437+0000001625          1400 JL2315               2AZ
441015003441015567-014135     441015006003000560264BOOK COLOURING 240P    0000001000+00003069+00000+0001T   00003507+0008191625          1400 JL2757               2AZ
441015004441015007-000323     441015006009697791042PAPER A4 80GSM 100'S   0000001000+00006139+00000+0001T   00006139+0000001625          1400 JL2130               2AZ
441015005441015566-000031     441015006003000283910STICKER BK TEACHER STIC0000002000+00002192+00000+0001T   00002192+0000001625          1400 JL2130               2AZ
441015006441015079-006500     441015006001023557186GLUE GLITTER 6/10 PCE  0000001000+00001753+00000+0001T   00001753+0000001625          1400 JL2130               2AZ
441015007441015903-000211     441015006002099001238SWT GS MALLOW ICE CREAM0000001000+00001753+00000+0001T   00001753+0000001625          1400 JL2150               2AZ
441016000441016               441016               170213MA     1400+00000+MA0000006269+0000006269+000000000+000000880+0000007140+0000000009+I20000000000+0000007140+Z
441016001441016903-000481     441016006001704007481SWT MOO MILK-SHAKES 60G0000002000+00000876+00000+0001T   00000876+0000001628          1400 JL2150               2AZ
441016002441016903-000087     441016006001704000161SWT SPECKLED-EGGS 50G  0000002000+00001139+00000+0001T   00001139+0000001628          1400 JL2150               2AZ
441016003441016077-000317     441016006001023609748GIFT-BAG 11X14CM E/D AN0000001000+00000613+00000+0001T   00000613+0000001628          1400 JL2112               2AZ
441016004441016077-000303     441016006001023593757GIFT-BAG PAPER MED     0000001000+00001578+00000+0001T   00001578+0000001628          1400 JL2112               2AZ
441016005441016112-116069     441016006009681820277TCS CARRIER BAG JUMBO  0000001000+00000048+00000+0001T   00000048+0000001628          1400 JL2090               2AZ
441017000441017               441017               170213MA     1400+00000+MA0000007923+0000007923+000000000+000001117+0000009040+0000000000+I40000009040+0000000000+Z
441017001441017903-000155     441017006009803374435SWT LOLLY I LUV U HEART0000002000+00000525+00000+0001T   00000525+0000001631          1400 JL2150               2AZ
441017002441017112-116069     441017006009681820277TCS CARRIER BAG JUMBO  0000001000+00000048+00000+0001T   00000048+0000001631          1400 JL2090               2AZ
441017003441017903-000155     441017006009803374435SWT LOLLY I LUV U HEART0000013000+00000525+00000+0001T   00000525+0000001631          1400 JL2150               2AZ
441018000441018               441018               170213MA     1400+00000+MA0000002100+0000002100+000000000+000000294+0000002390+0000000004+I20000000000+0000002390+Z
441018001441018018-000177     441018006001023797513MUG MINI LOVE ASSTD    0000003000+00000700+00000+0001T   00000700+0000001634          1400 JL2515               2AZ
441019000441019               441019               170213MA     1400+00000+MA0000001578+0000001578+000000000+000000221+0000001790+0000000009+I20000000000+0000001790+Z
441019001441019080-000124     441019006003000297733CARD & ENV VALENTINES  0000001000+00001578+00000+0001T   00001578+0000001647          1400 JL2112               2AZ
441020000441020               441020               170213MA     1400+00000+MA0000000876+0000000876+000000000+000000123+0000000990+0000000009+I20000000000+0000000990+Z
441020001441020077-000408     441020006003000145218G/BAG PP 15X21X7CM     0000001000+00000876+00000+0001T   00000876+0000001651          1400 JL2112               2AZ
441021000441021               441021               170213MA     1400+00000+MA0000009469+0000009469+000000000+000001326+0000010795+0000000000+I40000010795+0000000000+Z
441021001441021018-000170     441021006001023775528MUG OCC. LOVE 2PC MINI 0000001000+00002192+00000+0001T   00002192+0000001653          1400 JL2515               2AZ
441021002441021077-000303     441021006001023593757GIFT-BAG PAPER MED     0000001000+00001578+00000+0001T   00001578+0000001653          1400 JL2112               2AZ
441021003441021031-000001-A   441021006003000246908P/FRAME GLS LOVE 9X13cm0000001000+00004385+00000+0001T   00004385+0000001653          1400 JL2510               2AZ
441021004441021903-000844     441021005010478432567SWT CANDY DL LUV HEARTS0000001000+00001314+00000+0001T   00001314+0000001653          1400 JL2150               2AZ
441022000441022               441022               170213MA     1400+00000+MA0000010568+0000010568+000000000+000001482+0000012050+0000000000+I20000000000+0000012050+Z
441022001441022077-000150-D   441022006003000054343GIFT-WRAP CELLPHANE CLR0000003000+00000876+00000+0001T   00000876+0000001655          1400 JL2112               2AZ
441022002441022112-116069     441022006009681820277TCS CARRIER BAG JUMBO  0000001000+00000048+00000+0001T   00000048+0000001655          1400 JL2090               2AZ
441022003441022103-000074     441022006001023691682BASKET BAMBOO 33x21x4cm0000001000+00005262+00000+0001T   00005262+0000001655          1400 JL2300               2AZ
441022004441022072-020366     441022006003000452927PET PLACE MAT ASSTD COL0000001000+00002630+00000+0001T   00002630+0000001655          1400 JL2870               2AZ
441023000441023               441023               170213MA     1400+00000+MA0000006356+0000006356+000000000+000000893+0000007240+0000000009+I20000000000+0000007240+Z
441023001441023112-116069     441023006009681820277TCS CARRIER BAG JUMBO  0000001000+00000048+00000+0001T   00000048+0000001658          1400 JL2090               2AZ
441023002441023018-000127     441023006001023380289MUG OCC STRAIGHT LOVE  0000001000+00001578+00000+0001T   00001753+0006471658          1400 JL2515               2AZ
441023003441023039-000108     441023006001023524034TEA-LITE CANDLES 8PCE  0000001000+00001490+00000+0001T   00001490+0000001658          1400 JL2510               2AZ
441023004441023080-000124     441023006003000297733CARD & ENV VALENTINES  0000001000+00001578+00000+0001T   00001578+0000001658          1400 JL2112               2AZ
441023005441023089-000192-A   441023006001023901774KEY-CHAIN ACRYLIC      0000001000+00000876+00000+0001T   00000876+0000001658          1400 JL2205               2AZ
441023006441023903-000183     441023006003000451043SWT LB HEART LOLLY     0000002000+00000393+00000+0001T   00000393+0000001658          1400 JL2150               2AZ
M17021301                              GLADWYN     MAATT GLADWYN                                                                                     LAST INVOICES DELMAS MA                                                                         SLAVE 1:437501                                  SLAVE 2:441023                                  SLAVE 3:NO SALES ACCUMULATED                                                                    THANKS                                          DELMAS MA
M17021391                              CASH        MASLAVE 2                       Z-REPORT No.   602TOTAL (Sales - Refunds)           7792.60       CASH TO BE BANKED                 4792.30       DEBIT CARDS                          0.00       CREDIT CARDS                      3000.30       Z-READING                         7792.60       AIRTIME DEBIT CARD SALES             0.00       AIRTIME CARD SALES                   0.00       OVERS/UNDERS                         0.00       AIRTIME CASH SALES                   0.00       GIFT CARDS                           0.00       GIFT CARD CASH SALES                 0.00       T O T A L  CASH PAYOUTS              0.00                                                                                                                                                                                                                                                                                                                                                      Z
M17021392                              CASH        MAABSENT                                                                                                                                                                                          ANNUAL LEAVE                                                                                                                                                                                    DAY OFF                                                                                                                                                                                         COMMENTS                                                                                                                                                                                                                                                                                                                                                                                       Z
Y17021300                                          MA00000000693081+000098
ZMA17021320033 SLAVE 2      SALES DATA                     NEXT INVOICE NO.  441024 0602
X MA Slave 2 First invoice 440926 170213 Last invoice 441023 170213 Next invoice 441024 Total number of records 000000353 clbackup completed 20:03:44
