135188000135188               135188               170213MB     1400+00000+MB0000001490+0000001490+000000000+000000209+0000001690+0000000009+I20000000000+0000001690+Z
135188001135188077-000299     135188006003000395576G/BAG 32x25cm LRG LOVE 0000001000+00001490+00000+0001T   00001490+0000000841          1400 DM1112               2AZ
135189000135189               135189               170213MB     1400+00000+MB0000006174+0000006174+000000000+000000865+0000007030+0000000009+I20000000000+0000007030+Z
135189001135189018-050000     135189006003000412679MUG OCC LOVE TWIN BEAR 0000001000+00006139+00000+0001T   00006139+0000000847          1400 DM1515               2AZ
135189002135189112-116038     135189006009681820246TCS CARRIER BAG MIDI   0000001000+00000035+00000+0001T   00000035+0000000847          1400 DM1090               2AZ
135190000135190               135190               170213MB     1400+00000+MB0000017584+0000017584+000000000+000002463+0000020040+0000000007+I20000000000+0000020040+Z
135190001135190018-000158     135190006001023636454MUG DAILY GLS COFFEE   0000008000+00002192+00000+0001T   00002192+0000000907          1400 DM1515               2AZ
135190002135190112-116069     135190006009681820277TCS CARRIER BAG JUMBO  0000001000+00000048+00000+0001T   00000048+0000000907          1400 DM1090               2AZ
135191000135191               135191               170213MB     1400+00000+MB0000009117+0000009117+000000000+000001278+0000010390+0000000005+I20000000000+0000010390+Z
135191001135191077-000299     135191006003000395576G/BAG 32x25cm LRG LOVE 0000002000+00001490+00000+0001T   00001490+0000000908          1400 DM1112               2AZ
135191002135191162-097718     135191006001492977188#TAG CHARM BRACELET    0000001000+00003507+00000+0001T   00003507+0000000908          1400 DM1160               2AZ
135191003135191304-000720     135191006001023843050F/BUNCH ROSE 6-HEAD AST0000001000+00002630+00000+0001T   00002630+0000000908          1400 DM1510               2AZ
135192000135192               135192               170213MB     1400+00000+MB0000008331+0000008331+000000000+000001167+0000009490+0000000008+I20000000000+0000009490+Z
135192001135192366-000255     135192006001023918413DRESS UP TIARA CROWN   0000001000-00003069+00000+0001T   00003069+0000000912          1400 DM11311IC            2 Z
135192002135192082-000122-A   135192006003000403561READING GLS STRENGTH:1 0000001000+00005262+00000+0001T   00005262+0000000912          1400 DM1160               2AZ
135192003135192366-000256     135192006001023918406DRESS UP TIARA&EARRINGS0000001000+00003069+00000+0001T   00003069+0000000912          1400 DM1131               2AZ
135192004135192366-000255     135192006001023918413DRESS UP TIARA CROWN   0000001000+00003069+00000+0001T   00003069+0000000912          1400 DM1131               2AZ
135193000135193               135193               170213MB     1400+00000+MB0000006138+0000006138+000000000+000000860+0000006990+0000000008+I20000000000+0000006990+Z
135193001135193028-000272     135193006001023465283EGG-RINGS 2PCE      H&L0000002000+00003069+00000+0001T   00003069+0000000916          1400 DM1305               2AZ
135194000135194               135194               170213MB     1400+00000+MB0000002805+0000002805+000000000+000000393+0000003190+0000000008+I20000000000+0000003190+Z
135194001135194077-000321     135194006001023677501GIFT-BAG 11X14CM E/D FL0000001000+00000613+00000+0001T   00000613+0000000922          1400 DM1112               2AZ
135194002135194018-000170     135194006001023775528MUG OCC. LOVE 2PC MINI 0000001000+00002192+00000+0001T   00002192+0000000922          1400 DM1515               2AZ
135195000135195               135195               170213MB     1400+00000+MB0000009469+0000009469+000000000+000001327+0000010790+0000000006+I20000000000+0000010790+Z
135195001135195077-000303     135195006001023593757GIFT-BAG PAPER MED     0000001000+00001578+00000+0001T   00001578+0000000948          1400 DM1112               2AZ
135195002135195007-000614     135195006001023768667DIARY W/LOCK+PEN LOVE  0000001000+00005262+00000+0001T   00005262+0000000948          1400 DM1130               2AZ
135195003135195077-000011-D   135195006001023808554TISSUE-WRAP WHITE 10PCE0000001000+00000876+00000+0001T   00000876+0000000948          1400 DM1112               2AZ
135195004135195080-000108     135195006003000237210CARD&ENVLPE BDAY-BOY   0000001000+00001753+00000+0001T   00001753+0000000948          1400 DM1112               2AZ
135196000135196               135196               170213MB     1400+00000+MB0000002456+0000002456+000000000+000000344+0000002800+0000000000+I20000000000+0000002800+Z
135196001135196002-000802     135196006003000426515PEELER STAINLESS STEEL 0000001000-00001490+00000+0001T   00001490+0000001000          1400 DM13001IC            2 Z
135196002135196082-000386     135196006001023718211SPEC-CASE ZIP-OPENING  0000001000+00003946+00000+0001T   00003946+0000001000          1400 DM1160               2AZ
135197000135197               135197               170213MB     1400+00000+MB0000008770+0000008770+000000000+000001228+0000009990+0000000008+I20000000000+0000009990+Z
135197001135197051-600671     135197006001023552730GARDEN-FENCE PL-CTD 5PC0000002000+00004385+00000+0001T   00004385+0000001026          1400 DM1820               2AZ
135198000135198               135198               170213MB     1400+00000+MB0000014504+0000014504+000000000+000002032+0000016536+0000000000+I40000016536+0000000000+Z
135198001135198034-078800     135198006001023856555COOEY WET-WIPES 60PCE  0000001000+00001753+00000+0001T   00001753+0000001033          1400 DM1215               2AZ
135198002135198034-079055-A   135198006003000488209COOEY B/BRUSH 2PCE     0000001000+00004385+00000+0001T   00004385+0000001033          1400 DM1215               2AZ
135198003135198369-000823     135198006001023796035BABY PULL ALONG S/SORT 0000001000+00006139+00000+0001T   00006139+0000001033          1400 DM1745               2AZ
135198004135198369-001010     135198006001023864222BATH VINYL DUCK 4PC    0000001000+00002192+00000+0001T   00002192+0000001033          1400 DM1745               2AZ
135198005135198112-116038     135198006009681820246TCS CARRIER BAG MIDI   0000001000+00000035+00000+0001T   00000035+0000001033          1400 DM1090               2AZ
135199000135199               135199               170213MB     1400+00000+MB0000004943+0000004943+000000000+000000693+0000005630+0000000006+I20000000000+0000005630+Z
135199001135199027-000082     135199006001023760258SCOURERS ROUND   PACK-60000004000+00001227+00000+0001T   00001227+0000001042          1400 1IC212               2AZ
135199002135199112-116038     135199006009681820246TCS CARRIER BAG MIDI   0000001000+00000035+00000+0001T   00000035+0000001042          1400 1IC090               2AZ
135200000135200               135200               170213MB     1400+00000+MB0000021704+0000021704+000000000+000003041+0000024740+0000000005+I20000000000+0000024740+Z
135200001135200065-003635     135200006001023834782GUITAR STRING FLAME    0000001000+00013157+00000+0001T   00013157+0000001052          1400 DM1745               2AZ
135200002135200080-000133     135200006003000535613CARD&ENV MINI ASTD DSGN0000001000+00000437+00000+0001T   00000437+0000001052          1400 DM1112               2AZ
135200003135200077-000303     135200006001023593757GIFT-BAG PAPER MED     0000001000+00001578+00000+0001T   00001578+0000001052          1400 DM1112               2AZ
135200004135200368-000265     135200006001023750914PLUSH BEAR 23CM ASSTD C0000001000+00006139+00000+0001T   00006139+0000001052          1400 DM1745               2AZ
135200005135200903-000183     135200006003000451043SWT LB HEART LOLLY     0000001000+00000393+00000+0001T   00000393+0000001052          1400 DM1150               2AZ
135201000135201               135201               170213MB     1400+00000+MB0000007014+0000007014+000000000+000000982+0000007996+0000000000+I40000007996+0000000000+Z
135201001135201018-005009     135201006001023725608MUG W/PLUSH-BEAR LOVE  0000002000+00003507+00000+0001T   00003507+0000001100          1400 DM1515               2AZ
135202000135202               135202               170213MB     1400+00000+MB0000020870+0000020870+000000000+000002922+0000023790+0000000002+I20000000000+0000023790+Z
135202001135202567-075490     135202009780799373776BK NOVEL ROMANCE AFR   0000003000+00003507+00000+0001T   00003507+0000001104          1400 DM1757               2AZ
135202002135202056-350000     135202006001023998248CAR-SEAT ORGANIZER 59cm0000001000+00008771+00000+0001T   00008771+0000001104          1400 DM1860               2AZ
135202003135202077-000315     135202006003000181186GIFT-BAG 20x28cm MATT  0000001000+00001578+00000+0001T   00001578+0000001104          1400 DM1112               2AZ
135203000135203               135203               170213MB     1400+00000+MB0000002630+0000002630+000000000+000000369+0000002990+0000000009+I20000000000+0000002990+Z
135203001135203306-001001     135203006003000519804FIRSTAID PLASTER FABRIC0000001000+00002630+00000+0001T   00002630+0000001111          1400 DM1200               2AZ
135204000135204               135204               170213MB     1400+00000+MB0000002192+0000002192+000000000+000000307+0000002490+0000000009+I20000000000+0000002490+Z
135204001135204033-006004     135204006001023703316SEWING-KIT IN-POUCH    0000001000+00002192+00000+0001T   00002192+0000001115          1400 DM1200               2AZ
135205000135205               135205               170213MB     1400+00000+MB0000012712+0000012712+000000000+000001781+0000014490+0000000003+I20000000000+0000014490+Z
135205001135205200-003024     135205006001023657299REFUSE BAGS 20PCE BLACK0000002000+00001753+00000+0001T   00001753+0000001121          1400 DM1214               2AZ
135205002135205047-005127     135205006003000093861CABLETIES 100/150/200mm0000001000+00002192+00000+0001T   00002192+0000001121          1400 DM1880               2AZ
135205003135205567-075490     135205009780799376456BK NOVEL ROMANCE AFR   0000001000+00003507+00000+0001T   00003507+0000001121          1400 DM1757               2AZ
135205004135205567-075490     135205009780799368642BK NOVEL ROMANCE AFR   0000001000+00003507+00000+0001T   00003507+0000001121          1400 DM1757               2AZ
135206000135206               135206               170213MB     1400+00000+MB0000006139+0000006139+000000000+000000860+0000006990+0000000009+I20000000000+0000006990+Z
135206001135206002-000097     135206006001023489784CAN-OPENER             0000001000+00006139+00000+0001T   00006139+0000001122          1400 DM1300               2AZ
135207000135207               135207               170213MB     1400+00000+MB0000002927+0000002927+000000000+000000411+0000003330+0000000008+I20000000000+0000003330+Z
135207001135207012-000001     135207006003000331048MICRO PLATE-COVER 26X6 0000001000+00001753+00000+0001T   00002192+0008191123          1400 DM1300               2AZ
135207002135207162-097715     135207006001492977157#TAG NEW COLOUR E/PIERC0000001000+00001139+00000+0001T   00001139+0000001123          1400 DM1160               2AZ
135207003135207112-116038     135207006009681820246TCS CARRIER BAG MIDI   0000001000+00000035+00000+0001T   00000035+0000001123          1400 DM1090               2AZ
135208000135208               135208               170213MB     1400+00000+MB0000002805+0000002805+000000000+000000393+0000003190+0000000008+I20000000000+0000003190+Z
135208001135208077-000245     135208006001023759214GIFT-RIBBON METALLICx2 0000001000+00001227+00000+0001T   00001227+0000001131          1400 DM1112               2AZ
135208002135208077-000303     135208006001023593757GIFT-BAG PAPER MED     0000001000+00001578+00000+0001T   00001578+0000001131          1400 DM1112               2AZ
135209000135209               135209               170213MB     1400+00000+MB0000007016+0000007016+000000000+000000983+0000007999+0000000000+I40000007999+0000000000+Z
135209001135209562-002004     135209006003000229017EDU THINK WHOSE BABY   0000001000+00007016+00000+0001T   00007016+0000001133          1400 DM1755               2AZ
135210000135210               135210               170213MB     1400+00000+MB0000001578+0000001578+000000000+000000221+0000001790+0000000009+I20000000000+0000001790+Z
135210001135210018-000127     135210006001023380289MUG OCC STRAIGHT LOVE  0000001000+00001578+00000+0001T   00001753+0006471140          1400 DM1515               2AZ
135211000135211               135211               170213MB     1400+00000+MB0000021836+0000021836+000000000+000003058+0000024890+0000000004+I20000000000+0000024890+Z
135211001135211304-001204     135211006001023737984FLOWER OCC. TEDDY/ROSES0000001000+00001402+00000+0001T   00001490+0006471143          1400 DM1510               2AZ
135211002135211203-007002     135211006003000456314WINE BOTTLE HOLDER     0000001000+00008771+00000+0001T   00008771+0000001143          1400 DM1300               2AZ
135211003135211001-091415     135211006003000329113W/GLS OCC. LOVE 2PC 2800000001000+00008771+00000+0001T   00009648+0006471143          1400 DM1515               2AZ
135211004135211261-008349     135211006001023787590CAP-GUN 8-SHOT         0000001000+00002192+00000+0001T   00002192+0000001143          1400 DM1710               2AZ
135211005135211261-000121     135211006001023341600GUN-CAPS 8-SHOT CARD-9 0000001000+00000700+00000+0001T   00000700+0000001143          1400 DM1710               2AZ
135212000135212               135212               170213MB     1400+00000+MB0000014420+0000014420+000000000+000002023+0000016440+0000000003+I20000000000+0000016440+Z
135212001135212006-000120     135212006001023346889BALLOONS 10PC MIX COL  0000003000+00001753+00000+0001T   00001753+0000001216          1400 DM1131               2AZ
135212002135212301-085000     135212006003000674299 ORN OCC. LOVE HEARTS  0000001000+00002192+00000+0001T   00002192+0000001216          1400 DM1505               2AZ
135212003135212304-001011     135212006001023806727FLWR ROSE RED W/BEAR   0000007000+00000613+00000+0001T   00000788+0006471216          1400 DM1510               2AZ
135212004135212103-000461     135212006001023795229FLOWER BASKET 26cm-DIA 0000001000+00002630+00000+0001T   00002630+0000001216          1400 DM1300               2AZ
135212005135212112-116069     135212006009681820277TCS CARRIER BAG JUMBO  0000001000+00000048+00000+0001T   00000048+0000001216          1400 DM1090               2AZ
135213000135213               135213               170213MB     1400+00000+MB0000004385+0000004385+000000000+000000614+0000004990+0000000009+I20000000000+0000004990+Z
135213001135213082-007582     135213006003000465804SUNGLASSES EMPORIUM    0000001000+00004385+00000+0001T   00004385+0000001217          1400 DM1160               2AZ
135214000135214               135214               170213MB     1400+00000+MB0000002366+0000002366+000000000+000000332+0000002698+0000000000+I40000002698+0000000000+Z
135214001135214084-009411     135214006001023629968SCISSORS 17cm PL-HANDLE0000001000+00001753+00000+0001T   00001753+0000001219          1400 DM1200               2AZ
135214002135214083-000055     135214006003000003853LIGHTER ELCTRNC REFILBL0000001000+00000613+00000+0001T   00000613+0000001219          1400 DM1315               2AZ
135215000135215               135215               170213MB     1400+00000+MB0000007893+0000007893+000000000+000001106+0000008999+0000000000+I40000008999+0000000000+Z
135215001135215301-085007     135215006003000673698ORN OCC. LOVE S/PLAQUE 0000001000+00007893+00000+0001T   00007893+0000001221          1400 DM1505               2AZ
135216000135216               135216               170213MB     1400+00000+MB0000006137+0000006137+000000000+000000860+0000006997+0000000000+I40000006997+0000000000+Z
135216001135216079-013101     135216006001023863706CRAFT SET DIY PIPE-CLNR0000001000+00002630+00000+0001T   00002630+0000001225          1400 DM1130               2AZ
135216002135216071-005060     135216006003000152186CELLOTAPE 2PACK INVSBLE0000001000+00003507+00000+0001T   00003507+0000001225          1400 DM1130               2AZ
135217000135217               135217               170213MB     1400+00000+MB0000010082+0000010082+000000000+000001412+0000011494+0000000000+I40000011494+0000000000+Z
135217001135217018-005009     135217006001023725608MUG W/PLUSH-BEAR LOVE  0000001000+00003507+00000+0001T   00003507+0000001227          1400 DM1515               2AZ
135217002135217031-000002-A   135217006003000247103P/FRAME LOVE 7.5X7.5CM 0000001000+00003507+00000+0001T   00003507+0000001227          1400 DM1510               2AZ
135217003135217077-000384     135217006003000275243G/BAG HOT STMP 18x23CM 0000001000+00001490+00000+0001T   00001490+0000001227          1400 DM1112               2AZ
135217004135217077-000303     135217006001023593757GIFT-BAG PAPER MED     0000001000+00001578+00000+0001T   00001578+0000001227          1400 DM1112               2AZ
135218000135218               135218               170213MB     1400+00000+MB0000009207+0000009207+000000000+000001290+0000010497+0000000000+I40000010497+0000000000+Z
135218001135218031-000864-A   135218006001023798350P/FRAME MAHOGANY 10X15 0000003000+00003069+00000+0001T   00003069+0000001229          1400 DM1510               2AZ
135219000135219               135219               170213MB     1400+00000+MB0000011128+0000011128+000000000+000001563+0000012691+0000000000+I40000012691+0000000000+Z
135219001135219903-000183     135219006003000451043SWT LB HEART LOLLY     0000002000+00000393+00000+0001T   00000393+0000001235          1400 DM1150               2AZ
135219002135219903-000087     135219006001704000161SWT SPECKLED-EGGS 50G  0000002000+00001139+00000+0001T   00001139+0000001235          1400 DM1150               2AZ
135219003135219077-000270     135219006003000395453GIFT-BAG PPR JMB 33X45 0000001000+00002630+00000+0001T   00002630+0000001235          1400 DM1112               2AZ
135219004135219079-006498     135219006001023836151GLITTER SET 10PCE      0000001000+00003507+00000+0001T   00003507+0000001235          1400 DM1130               2AZ
135219005135219080-000133-A   135219006003000647019MINI VALENTINES CARD   0000001000+00000437+00000+0001T   00000437+0000001235          1400 DM1112               2AZ
135219006135219077-000299     135219006003000395576G/BAG 32x25cm LRG LOVE 0000001000+00001490+00000+0001T   00001490+0000001235          1400 DM1112               2AZ
135220000135220               135220               170213MB     1400+00000+MB0000000439+0000000439+000000000+000000061+0000000500+0000000000+I20000000000+0000000500+Z
135220001135220486-000010     135220006001023544254WALL-CLOCK ROUND 25cm  0000001000-00006139+00000+0001T   00006139+0000001244          1400 DM15101IC            2 Z
135220002135220486-002065     135220006003000057030C/ALARM QTZ PL SQUARE  0000001000+00006578+00000+0001T   00006578+0000001244          1400 DM1510               2AZ
135221000135221               135221               170213MB     1400+00000+MB0000003507+0000003507+000000000+000000491+0000003990+0000000008+I20000000000+0000003990+Z
135221001135221071-000682     135221006003000196920ACCESSORIES DESKTOP ASS0000001000+00003507+00000+0001T   00003507+0000001246          1400 DM1130               2AZ
135222000135222               135222               170213MB     1400+00000+MB0000003416+0000003416+000000000+000000480+0000003890+0000000006+I20000000000+0000003890+Z
135222001135222077-000151     135222006008766114676GIFT-WRAP C/PHANE ASSTD0000002000+00000876+00000+0001T   00000876+0000001251          1400 DM1112               2AZ
135222002135222077-000010-C   135222006001023123879CREPE-PAPER RED        0000001000+00000788+00000+0001T   00000788+0000001251          1400 DM1112               2AZ
135222003135222071-005213     135222006001023690371CELLOTAPE 12mmx33m     0000001000+00000876+00000+0001T   00000876+0000001251          1400 DM1130               2AZ
135223000135223               135223               170213MB     1400+00000+MB0000001578+0000001578+000000000+000000221+0000001790+0000000009+I20000000000+0000001790+Z
135223001135223077-000303     135223006001023593757GIFT-BAG PAPER MED     0000001000+00001578+00000+0001T   00001578+0000001252          1400 DM1112               2AZ
135224000135224               135224               170213MB     1400+00000+MB0000004909+0000004909+000000000+000000688+0000005590+0000000007+I20000000000+0000005590+Z
135224001135224566-001234     135224006003000217793STICKERS LASER ASSTD   0000002000+00001578+00000+0001T   00001578+0000001253          1400 DM1130               2AZ
135224002135224089-000027     135224006003000254071KEY CHAIN MOM/DAD ASSTD0000001000+00001753+00000+0001T   00001753+0000001253          1400 DM1205               2AZ
135225000135225               135225               170213MB     1400+00000+MB0000026308+0000026308+000000000+000003686+0000029990+0000000004+I20000000000+0000029990+Z
135225001135225304-001115     135225006001023738240FLOWER-BUNCH CARNATIONS0000004000+00005262+00000+0001T   00005262+0000001255          1400 DM1510               2AZ
135225002135225072-020354     135225006001023649980DOG/CAT-BOWL LARGE     0000002000+00002630+00000+0001T   00002630+0000001255          1400 DM1870               2AZ
135226000135226               135226               170213MB     1400+00000+MB0000003329+0000003329+000000000+000000468+0000003790+0000000007+I20000000000+0000003790+Z
135226001135226071-081091     135226006001151010287STAED/GENKEM ALL-STICK 0000001000+00001227+00000+0001T   00001227+0000001256          1400 DM1130               2AZ
135226002135226079-009702-B   135226008427973059491PAPER SIRIO A2 WHITE   0000002000+00001051+00000+0001T   00001051+0000001256          1400 DM1130               2AZ
135227000135227               135227               170213MB     1400+00000+MB0000002499-0000000000+000000000+000000000+0000002500-0000000001+I20000000000+0000002500-Z
135227001135227001-999909     135227000000000999909STAFF-REFRESHMENTS     0000001000-00002499+00000+0001X   00000000+0000001303          0000 DM19091IC            2 Z
135228000135228               135228               170213MB     1400+00000+MB0000006045+0000006045+000000000+000000848+0000006890+0000000003+I20000000000+0000006890+Z
135228001135228903-000151     135228006009803374411SWT SML RND R/BOW LOLLY0000001000+00000525+00000+0001T   00000525+0000001404          1400 DM1150               2AZ
135228002135228261-002267     135228006001023665126GUN 8-SHOT SUPER-CAP   0000001000+00001753+00000+0001T   00001753+0000001404          1400 DM1710               2AZ
135228003135228261-000121     135228006001023341600GUN-CAPS 8-SHOT CARD-9 0000001000+00000700+00000+0001T   00000700+0000001404          1400 DM1710               2AZ
135228004135228077-000239     135228006003000160419GIFT-RIBBON ROLL PEARL 0000001000+00001753+00000+0001T   00001753+0000001404          1400 DM1112               2AZ
135228005135228903-000844     135228005010478432567SWT CANDY DL LUV HEARTS0000001000+00001314+00000+0001T   00001314+0000001404          1400 DM1150               2AZ
135229000135229               135229               170213MB     1400+00000+MB0000001050+0000001050+000000000+000000148+0000001190+0000000008+I20000000000+0000001190+Z
135229001135229903-000155     135229006009803374435SWT LOLLY I LUV U HEART0000001000+00000525+00000+0001T   00000525+0000001404          1400 DM1150               2AZ
135229002135229903-000151     135229006009803374411SWT SML RND R/BOW LOLLY0000001000+00000525+00000+0001T   00000525+0000001404          1400 DM1150               2AZ
135230000135230               135230               170213MB     1400+00000+MB0000006399+0000006399+000000000+000000896+0000007290+0000000005+I20000000000+0000007290+Z
135230001135230077-000303     135230006001023593757GIFT-BAG PAPER MED     0000001000+00001578+00000+0001T   00001578+0000001502          1400 DM1112               2BZ
135230002135230031-000844     135230006001023851789P/FRAME WDN WORDS 2ASS 0000001000+00003507+00000+0001T   00003507+0000001502          1400 DM1510               2BZ
135230003135230903-000844     135230005010478432567SWT CANDY DL LUV HEARTS0000001000+00001314+00000+0001T   00001314+0000001502          1400 DM1150               2BZ
135231000135231               135231               170213MB     1400+00000+MB0000001314+0000001314+000000000+000000184+0000001490+0000000008+I20000000000+0000001490+Z
135231001135231107-004105     135231006002923010504BUCKET 9L OPEN         0000001000+00001314+00000+0001T   00001314+0000001502          1400 DM1210               2BZ
135232000135232               135232               170213MB     1400+00000+MB0000023325+0000023325+000000000+000003268+0000026593+0000000000+I40000026593+0000000000+Z
135232001135232112-116038     135232006009681820246TCS CARRIER BAG MIDI   0000001000+00000035+00000+0001T   00000035+0000001504          1400 DM1090               2BZ
135232002135232304-001204     135232006001023737984FLOWER OCC. TEDDY/ROSES0000003000+00001402+00000+0001T   00001490+0006471504          1400 DM1510               2BZ
135232003135232301-085000     135232006003000674299 ORN OCC. LOVE HEARTS  0000001000+00002192+00000+0001T   00002192+0000001504          1400 DM1505               2BZ
135232004135232566-000359     135232006003000582709STICKER BOOK LOVE SPARK0000001000+00002192+00000+0001T   00002192+0000001504          1400 DM1130               2BZ
135232005135232018-000177     135232006001023797513MUG MINI LOVE ASSTD    0000021000+00000700+00000+0001T   00000700+0000001504          1400 DM1515               2BZ
135233000135233               135233               170213MB     1400+00000+MB0000002190+0000002190+000000000+000000307+0000002490+0000000007+I20000000000+0000002490+Z
135233001135233077-000315     135233006003000181186GIFT-BAG 20x28cm MATT  0000001000+00001578+00000+0001T   00001578+0000001551          1400 DM1112               2AZ
135233002135233079-009700-D   135233006003000545711PAPER SIRIO A4 RED COL.0000002000+00000306+00000+0001T   00000306+0000001551          1400 DM1130               2AZ
135234000135234               135234               170213MB     1400+00000+MB0000001314+0000001314+000000000+000000184+0000001490+0000000008+I20000000000+0000001490+Z
135234001135234077-000312     135234006001023608697GIFT-BAG 10X35CM GLOSS 0000001000+00001314+00000+0001T   00001314+0000001552          1400 DM1112               2AZ
135235000135235               135235               170213MB     1400+00000+MB0000001314+0000001314+000000000+000000184+0000001490+0000000008+I20000000000+0000001490+Z
135235001135235080-000114     135235006003000246472CARD&ENV LOVE-MUSICAL  0000001000+00001314+00000+0001T   00001753+0008151553          1400 DM1112               2AZ
135236000135236               135236               170213MB     1400+00000+MB0000002630+0000002630+000000000+000000369+0000002990+0000000009+I20000000000+0000002990+Z
135236001135236077-000270     135236006003000395453GIFT-BAG PPR JMB 33X45 0000001000+00002630+00000+0001T   00002630+0000001554          1400 DM1112               2AZ
135237000135237               135237               170213MB     1400+00000+MB0000010519+0000010519+000000000+000001476+0000011990+0000000005+I20000000000+0000011990+Z
135237001135237206-000370     135237006003000631315STRAW P/DRINKING GLASS 0000002000+00001753+00000+0001T   00001753+0000001556          1400 DM1321               2AZ
135237002135237206-000390     135237006003000631438STRAW PL BUILD A STRAW 0000001000+00002630+00000+0001T   00002630+0000001556          1400 DM1321               2AZ
135237003135237206-000370     135237006003000631315STRAW P/DRINKING GLASS 0000001000+00001753+00000+0001T   00001753+0000001556          1400 DM1321               2AZ
135237004135237206-000390     135237006003000631438STRAW PL BUILD A STRAW 0000001000+00002630+00000+0001T   00002630+0000001556          1400 DM1321               2AZ
135238000135238               135238               170213MB     1400+00000+MB0000004208+0000004208+000000000+000000590+0000004790+0000000008+I20000000000+0000004790+Z
135238001135238077-000303     135238006001023593757GIFT-BAG PAPER MED     0000001000+00001578+00000+0001T   00001578+0000001616          1400 DM1112               2AZ
135238002135238304-000720     135238006001023843050F/BUNCH ROSE 6-HEAD AST0000001000+00002630+00000+0001T   00002630+0000001616          1400 DM1510               2AZ
135239000135239               135239               170213MB     1400+00000+MB0000001224+0000001224+000000000+000000172+0000001396+0000000000+I40000001396+0000000000+Z
135239001135239079-009700-C   135239006003000545636PAPER SIRIO A4 VIOLET  0000004000+00000306+00000+0001T   00000306+0000001618          1400 DM1130               2AZ
135240000135240               135240               170213MB     1400+00000+MB0000008766+0000008766+000000000+000001228+0000009990+0000000004+I20000000000+0000009990+Z
135240001135240018-005009     135240006001023725608MUG W/PLUSH-BEAR LOVE  0000002000+00003507+00000+0001T   00003507+0000001619          1400 DM1515               2AZ
135240002135240077-000408     135240006003000145218G/BAG PP 15X21X7CM     0000002000+00000876+00000+0001T   00000876+0000001619          1400 DM1112               2AZ
135241000135241               135241               170213MB     1400+00000+MB0000002278+0000002278+000000000+000000320+0000002590+0000000008+I20000000000+0000002590+Z
135241001135241033-001363     135241006001023802057HAIR-CLIPS 50mm 48PCE  0000002000+00001139+00000+0001T   00001139+0000001619          1400 DM1200               2AZ
135242000135242               135242               170213MB     1400+00000+MB0000011398+0000011398+000000000+000001597+0000012995+0000000000+I40000012995+0000000000+Z
135242001135242079-014153     135242006003000253166ART+CRAFT DRAGON PK6   0000001000+00002630+00000+0001T   00002630+0000001624          1400 DM1130               2AZ
135242002135242366-000276     135242006003000103140WED LACE ELASTIC GARTER0000001000+00001314+00000+0001T   00001753+0008181624          1400 DM1131               2AZ
135242003135242079-014152     135242006003000253074ART+CRAFT PK50 ASSTD   0000001000+00003069+00000+0001T   00003069+0000001624          1400 DM1130               2AZ
135242004135242261-003342     135242006001023484895GUN RIFLE ACTION-TEAM  0000001000+00004385+00000+0001T   00004385+0000001624          1400 DM1710               2AZ
135243000135243               135243               170213MB     1400+00000+MB0000014160+0000014160+000000000+000001983+0000016140+0000000003+I20000000000+0000016140+Z
135243001135243903-004961     135243008410525221866SWT GUMMY FINI WILD 50g0000001000+00000964+00000+0001T   00000964+0000001625          1400 DM1150               2AZ
135243002135243004-071280     135243006003000129959WRITABLE-CD SINGLE     0000001000+00001314+00000+0001T   00001314+0000001625          1400 DM1310               2AZ
135243003135243018-000130     135243006001023867537MUG OCC LOVE MINI+HEART0000001000+00003507+00000+0001T   00003507+0000001625          1400 DM1515               2AZ
135243004135243903-000844     135243005010478432567SWT CANDY DL LUV HEARTS0000002000+00001314+00000+0001T   00001314+0000001625          1400 DM1150               2AZ
135243005135243018-005009     135243006001023725608MUG W/PLUSH-BEAR LOVE  0000001000+00003507+00000+0001T   00003507+0000001625          1400 DM1515               2AZ
135243006135243080-000127     135243006003000424351VALENTINES DAY 36x24CM 0000001000+00002192+00000+0001T   00002192+0000001625          1400 DM1112               2AZ
135243007135243112-116069     135243006009681820277TCS CARRIER BAG JUMBO  0000001000+00000048+00000+0001T   00000048+0000001625          1400 DM1090               2AZ
135244000135244               135244               170213MB     1400+00000+MB0000016966+0000016966+000000000+000002379+0000019345+0000000000+I40000019345+0000000000+Z
135244001135244016-006518     135244006003000351749S/JAR GLS CHECK 350ML  0000001000+00001753+00000+0001T   00001753+0000001628          1400 DM1300               2AZ
135244002135244903-000006     135244006923431571571SWEET GS SOUR BELT 50g 0000001000+00000876+00000+0001T   00000876+0000001628          1400 DM1150               2AZ
135244003135244903-000519     135244006001704012805SWT MS LIQ-O-GHETTI    0000002000+00001227+00000+0001T   00001227+0000001628          1400 DM1150               2AZ
135244004135244016-006517     135244006003000351626S/JAR GLS CHECK 650ML  0000001000+00002192+00000+0001T   00002192+0000001628          1400 DM1300               2AZ
135244005135244016-006518     135244006003000351749S/JAR GLS CHECK 350ML  0000001000+00001753+00000+0001T   00001753+0000001628          1400 DM1300               2AZ
135244006135244016-006517     135244006003000351626S/JAR GLS CHECK 650ML  0000002000+00002192+00000+0001T   00002192+0000001628          1400 DM1300               2AZ
135244007135244016-006518     135244006003000351749S/JAR GLS CHECK 350ML  0000002000+00001753+00000+0001T   00001753+0000001628          1400 DM1300               2AZ
135244008135244112-116069     135244006009681820277TCS CARRIER BAG JUMBO  0000001000+00000048+00000+0001T   00000048+0000001628          1400 DM1090               2AZ
135245000135245               135245               170213MB     1400+00000+MB0000015259+0000015259+000000000+000002138+0000017390+0000000007+I20000000000+0000017390+Z
135245001135245024-001248     135245006001023759146N/STICK CAKE-MOLD ROUND0000001000+00012279+00000+0001T   00012279+0000001632          1400 DM1300               2AZ
135245002135245903-000521     135245006001704009652SWT GUMMY SOFT GUMS    0000001000+00000876+00000+0001T   00000876+0000001632          1400 DM1150               2AZ
135245003135245903-000095     135245006001704011495SWT SPECKLED-EGGS 100G 0000001000+00002104+00000+0001T   00002104+0000001632          1400 DM1150               2AZ
135246000135246               135246               170213MB     1400+00000+MB0000003507+0000003507+000000000+000000491+0000003990+0000000008+I20000000000+0000003990+Z
135246001135246018-000136     135246006001023659026MUG OCC LOVE W/PLUSH   0000001000+00003507+00000+0001T   00003507+0000001633          1400 DM1515               2AZ
135247000135247               135247               170213MB     1400+00000+MB0000004155+0000004155+000000000+000000582+0000004730+0000000007+I20000000000+0000004730+Z
135247001135247018-005009     135247006001023725608MUG W/PLUSH-BEAR LOVE  0000001000+00003507+00000+0001T   00003507+0000001636          1400 DM1515               2AZ
135247002135247077-000321     135247006001023677501GIFT-BAG 11X14CM E/D FL0000001000+00000613+00000+0001T   00000613+0000001636          1400 DM1112               2AZ
135247003135247112-116038     135247006009681820246TCS CARRIER BAG MIDI   0000001000+00000035+00000+0001T   00000035+0000001636          1400 DM1090               2AZ
135248000135248               135248               170213MB     1400+00000+MB0000002630+0000002630+000000000+000000369+0000002990+0000000009+I20000000000+0000002990+Z
135248001135248366-006103     135248006001023786944DRESS UP FACE PAINT SET0000001000+00002630+00000+0001T   00002630+0000001640          1400 DM1131               2AZ
135249000135249               135249               170213MB     1400+00000+MB0000014905+0000014905+000000000+000002089+0000016994+0000000000+I40000016994+0000000000+Z
135249001135249362-003000     135249006003000295258GIRL HEART NOTEBOOK    0000001000+00001753+00000+0001T   00002630+0008191642          1400 DM1160               2AZ
135249002135249071-003853     135249006001023715579PENCIL BASIC HB 12PCE  0000002000+00001753+00000+0001T   00001753+0000001642          1400 DM1130               2AZ
135249003135249071-008236     135249006003000406753PENCIL-BAG 21x9x6.5cm  0000001000+00003507+00000+0001T   00003507+0000001642          1400 DM1130               2AZ
135249004135249368-000067     135249006003000667864PLUSH REINDEER 20cm    0000001000+00006139+00000+0001T   00006139+0000001642          1400 DM1745               2AZ
135250000135250               135250               170213MB     1400+00000+MB0000010525+0000010525+000000000+000001474+0000011999+0000000000+I40000011999+0000000000+Z
135250001135250024-000124     135250006001023466549N/STICK MINI S/FORM 2PC0000001000+00010525+00000+0001T   00010525+0000001643          1400 DM1300               2AZ
135251000135251               135251               170213MB     1400+00000+MB0000000613+0000000613+000000000+000000086+0000000690+0000000009+I20000000000+0000000690+Z
135251001135251304-001011     135251006001023806727FLWR ROSE RED W/BEAR   0000001000+00000613+00000+0001T   00000788+0006471644          1400 DM1510               2AZ
135252000135252               135252               170213MB     1400+00000+MB0000000035+0000000035+000000000+000000005+0000000040+0000000000+I20000000000+0000000040+Z
135252001135252112-116038     135252006009681820246TCS CARRIER BAG MIDI   0000001000+00000035+00000+0001T   00000035+0000001645          1400 DM1090               2AZ
135253000135253               135253               170213MB     1400+00000+MB0000013409+0000013409+000000000+000001880+0000015280+0000000009+I20000000000+0000015280+Z
135253001135253301-085001     135253006003000297610ORN WATERBALL LOVE ASST0000002000+00004823+00000+0001T   00004823+0000001646          1400 DM1505               2AZ
135253002135253077-000321     135253006001023677501GIFT-BAG 11X14CM E/D FL0000002000+00000613+00000+0001T   00000613+0000001646          1400 DM1112               2AZ
135253003135253007-000193     135253006009635831731BK JOTTER A4 72-PG F/M 0000001000+00000437+00000+0001T   00000437+0000001646          1400 DM1130               2AZ
135253004135253903-000070     135253006001704001106SWT TOFFEE CREAMY 35g  0000003000+00000700+00000+0001T   00000700+0000001646          1400 DM1150               2AZ
135254000135254               135254               170213MB     1400+00000+MB0000009731+0000009731+000000000+000001365+0000011096+0000000000+I40000011096+0000000000+Z
135254001135254080-000133-A   135254006003000647019MINI VALENTINES CARD   0000001000+00000437+00000+0001T   00000437+0000001650          1400 DM1112               2AZ
135254002135254304-001204     135254006001023737984FLOWER OCC. TEDDY/ROSES0000001000+00001402+00000+0001T   00001490+0006471650          1400 DM1510               2AZ
135254003135254368-000175     135254006003000270316PLUSH BEAR 4 ASSTD 18CM0000001000+00006139+00000+0001T   00006139+0000001650          1400 DM1745               2AZ
135254004135254077-000454     135254006003000285266G/BAG METALLIC LRG EMB 0000001000+00001753+00000+0001T   00001753+0000001650          1400 DM1112               2AZ
135255000135255               135255               170213MB     1400+00000+MB0000009116+0000009116+000000000+000001278+0000010394+0000000000+I40000010394+0000000000+Z
135255001135255565-000887     135255006003000412334NOVELTY SILICONE TOY   0000001000+00002192+00000+0001T   00002192+0000001656          1400 DM1745               2AZ
135255002135255034-078810     135255006001023856838DIAPER DISPOSE-BAGSx1000000001000+00002630+00000+0001T   00002630+0000001656          1400 DM1215               2AZ
135255003135255046-000012     135255006904708013062BATTERIES AA  CARD-OF-40000001000+00001314+00000+0001T   00001314+0000001656          1400 DM1312               2AZ
135255004135255077-000384     135255006003000275243G/BAG HOT STMP 18x23CM 0000001000+00001490+00000+0001T   00001490+0000001656          1400 DM1112               2AZ
135255005135255077-000304     135255006001023483232GIFT-BAG 25X32CM E/DAY 0000001000+00001490+00000+0001T   00001490+0000001656          1400 DM1112               2AZ
135256000135256               135256               170213MB     1400+00000+MB0000005085+0000005085+000000000+000000712+0000005790+0000000007+I20000000000+0000005790+Z
135256001135256077-000303     135256006001023593757GIFT-BAG PAPER MED     0000001000+00001578+00000+0001T   00001578+0000001657          1400 DM1112               2AZ
135256002135256018-005009     135256006001023725608MUG W/PLUSH-BEAR LOVE  0000001000+00003507+00000+0001T   00003507+0000001657          1400 DM1515               2AZ
135257000135257               135257               170213MB     1400+00000+MB0000004646+0000004646+000000000+000000651+0000005297+0000000000+I40000005297+0000000000+Z
135257001135257033-001363     135257006001023802057HAIR-CLIPS 50mm 48PCE  0000001000+00001139+00000+0001T   00001139+0000001713          1400 DM1200               2AZ
135257002135257082-098791     135257006001492987910SUNGLASS KIDS BOYS     0000001000+00003507+00000+0001T   00003507+0000001713          1400 DM1160               2AZ
135258000135258               135258               170213MB     1400+00000+MB0000004385+0000004385+000000000+000000614+0000004990+0000000009+I20000000000+0000004990+Z
135258001135258031-080508     135258006001023802415P/FRAME PL 22X11CM LOVE0000001000+00004385+00000+0001T   00004385+0000001714          1400 DM1510               2AZ
135259000135259               135259               170213MB     1400+00000+MB0000006575+0000006575+000000000+000000922+0000007497+0000000000+I40000007497+0000000000+Z
135259001135259016-006509     135259006003000567355S/JAR GLS MINI LABEL   0000001000+00001753+00000+0001T   00002192+0008191716          1400 DM1300               2AZ
135259002135259016-006425     135259006001023998170S/JAR GLS CLIP W/RIBBON0000001000+00002630+00000+0001T   00002630+0000001716          1400 DM1300               2AZ
135259003135259566-000359     135259006003000582709STICKER BOOK LOVE SPARK0000001000+00002192+00000+0001T   00002192+0000001716          1400 DM1130               2AZ
135260000135260               135260               170213MB     1400+00000+MB0000003946+0000003946+000000000+000000553+0000004490+0000000009+I20000000000+0000004490+Z
135260001135260368-000152     135260006003000166886PLUSH BEAR 15cm        0000001000+00003946+00000+0001T   00005262+0008141717          1400 DM1745               2AZ
135261000135261               135261               170213MB     1400+00000+MB0000001576+0000001576+000000000+000000222+0000001790+0000000008+I20000000000+0000001790+Z
135261001135261903-000892     135261008693029700420SWT NOVELTY CHOCO CREAM0000002000+00000788+00000+0001T   00000788+0000001719          1400 DM1150               2AZ
135262000135262               135262               170213MB     1400+00000+MB0000000613+0000000613+000000000+000000086+0000000690+0000000009+I20000000000+0000000690+Z
135262001135262027-078282     135262006001023767837SCOURER 25g SPIRAL-BALL0000001000+00000613+00000+0001T   00000613+0000001722          1400 DM1212               2AZ
135263000135263               135263               170213MB     1400+00000+MB0000003067+0000003067+000000000+000000430+0000003490+0000000007+I20000000000+0000003490+Z
135263001135263080-000113     135263006003000237449CARD&ENVLPE - LOVE     0000001000+00001753+00000+0001T   00001753+0000001723          1400 DM1112               2AZ
135263002135263018-000119     135263006003000336074MUG DAILY STRAIGHT     0000001000+00001314+00000+0001T   00001753+0008171723          1400 DM1515               2AZ
135264000135264               135264               170213MB     1400+00000+MB0000022446+0000022446+000000000+000003145+0000025590+0000000001+I20000000000+0000025590+Z
135264001135264266-001309     135264006001023686992BOYS MARBLES 16mm 50PC 0000001000+00001578+00000+0001T   00001578+0000001725          1400 DM1710               2AZ
135264002135264001-000175     135264006001023788108B/MUG GLS LOVE 380ML   0000001000+00004385+00000+0001T   00004385+0000001725          1400 DM1515               2AZ
135264003135264077-000319     135264006001023609779GIFT-BAG 18X23CM BIRTHD0000001000+00001227+00000+0001T   00001227+0000001725          1400 DM1112               2AZ
135264004135264266-001305     135264006001023560735MARBLES 45MM 3PC PLANET0000001000+00001578+00000+0001T   00001578+0000001725          1400 DM1710               2AZ
135264005135264266-001310     135264006003000616848BOYS PLAYSET MARBLES   0000001000+00001578+00000+0001T   00001578+0000001725          1400 DM1710               2AZ
135264006135264266-001304     135264006001023560711MARBLES MILKY BAG OF 450000001000+00001227+00000+0001T   00001227+0000001725          1400 DM1710               2AZ
135264007135264082-092844     135264006001492928449#TAG SPECTACLE POUCH   0000001000+00002630+00000+0001T   00002630+0000001725          1400 DM1160               2AZ
135264008135264082-096631     135264006001492966311SUNGLASS MEN MATAL ASST0000001000+00006139+00000+0001T   00006139+0000001725          1400 DM1160               2AZ
135264009135264903-000057     135264006005929000173SWT GS NOVELTY GIANT AL0000001000+00002104+00000+0001T   00002104+0000001725          1400 DM1150               2AZ
135265000135265               135265               170213MB     1400+00000+MB0000001753+0000001753+000000000+000000246+0000001990+0000000009+I20000000000+0000001990+Z
135265001135265089-000030     135265006003000575671K/CHAIN LOVE MTL ASSTD 0000001000-00001753+00000+0001T   00001753+0000001731          1400 DM12051IC            2 Z
135265002135265016-009616     1352650060030004416932PC GLS SHAKERS 3-ASSTD0000001000+00001753+00000+0001T   00001753+0000001731          1400 DM1300               2AZ
135265003135265089-000030     135265006003000575671K/CHAIN LOVE MTL ASSTD 0000001000+00001753+00000+0001T   00001753+0000001731          1400 DM1205               2AZ
135266000135266               135266               170213MB     1400+00000+MB0000002453+0000002453+000000000+000000344+0000002790+0000000007+I20000000000+0000002790+Z
135266001135266089-000030     135266006003000575671K/CHAIN LOVE MTL ASSTD 0000001000+00001753+00000+0001T   00001753+0000001732          1400 DM1205               2AZ
135266002135266903-000159     135266006003000417629SWT LB SMALL DUMMIE    0000002000+00000350+00000+0001T   00000350+0000001732          1400 DM1150               2AZ
135267000135267               135267               170213MB     1400+00000+MB0000005963+0000005963+000000000+000000835+0000006790+0000000008+I20000000000+0000006790+Z
135267001135267368-000001     135267006003000097982Plush Bear 25cm        0000001000+00004385+00000+0001T   00004385+0000001739          1400 DM1745               2AZ
135267002135267077-000315     135267006003000181186GIFT-BAG 20x28cm MATT  0000001000+00001578+00000+0001T   00001578+0000001739          1400 DM1112               2AZ
135268000135268               135268               170213MB     1400+00000+MB0000000876+0000000876+000000000+000000123+0000000990+0000000009+I20000000000+0000000990+Z
135268001135268031-000878-A   135268006001023798985P/FRAME 10x15cm PL-SLID0000001000+00000876+00000+0001T   00000876+0000001742          1400 DM1510               2AZ
135269000135269               135269               170213MB     1400+00000+MB0000009480-0000000000+000000000+000000000+0000009480-0000000000+I20000000000+0000009480-Z
135269001135269001-999901     135269000000000999901CASUAL WAGES           0000001000-00009480+00000+0001X  9101056463083 0600SMATHE0000000000 DM19011IC BELA       2 Z
A17021300                                          10370922MBSLAVE 2                       1IC1IC
B13522000                                          170213MB486-000010     12431586SLAVE 2     DM11IC0000600000+0000001000+0000000000000+
M17021391                              CASH        MBSLAVE 2                       Z-REPORT No.   588TOTAL (Sales - Refunds)           6525.23       CASH TO BE BANKED                 4310.30       DEBIT CARDS                          0.00       CREDIT CARDS                      2095.13       Z-READING                         6405.43       AIRTIME DEBIT CARD SALES             0.00       AIRTIME CARD SALES                   0.00       OVERS/UNDERS                         0.00       AIRTIME CASH SALES                   0.00       GIFT CARDS                           0.00       GIFT CARD CASH SALES                 0.00       STAFF-REFRESHMENTS                  24.99       CASUAL WAGES                        94.80       ROUNDING                             0.01       T O T A L  CASH PAYOUTS            119.80                                                                                                                                                                                                      Z
M17021392                              CASH        MBABSENT                                                                                                                                                                                          ANNUAL LEAVE                                                                                                                                                                                    DAY OFF                                                                                                                                                                                         COMMENTS                                                                                                                                                                                                                                                                                                                                                                                       Z
Y17021300                                          MB00000000585128+000080
ZMB17021320043 SLAVE 2      SALES DATA                     NEXT INVOICE NO.  135270 0588
X MB Slave 2 First invoice 135188 170213 Last invoice 135269 170213 Next invoice 135270 Total number of records 000000290 clbackup completed 20:04:10
