316750000316750               316750               170213MC     1400+00000+MC0000000613+0000000613+000000000+000000086+0000000690+0000000009+I20000000000+0000000690+Z
316750001316750304-001011     316750006001023806727FLWR ROSE RED W/BEAR   0000001000+00000613+00000+0001T   00000788+0006470858          1400 BN1510               1AZ
316751000316751               316751               170213MC     1400+00000+MC0000009691+0000009691+000000000+000001359+0000011050+0000000000+I20000000000+0000011050+Z
316751001316751112-116069     316751006009681820277TCS CARRIER BAG JUMBO  0000001000+00000048+00000+0001T   00000048+0000000900          1400 BN1090               1AZ
316751002316751034-078810     316751006001023856838DIAPER DISPOSE-BAGSx1000000001000+00002630+00000+0001T   00002630+0000000900          1400 BN1215               1AZ
316751003316751200-003024     316751006001023657299REFUSE BAGS 20PCE BLACK0000001000+00001753+00000+0001T   00001753+0000000900          1400 BN1214               1AZ
316751004316751464-009010     316751006001023800756FISHING-GAME MAG +ROD  0000001000+00003507+00000+0001T   00003507+0000000900          1400 BN1785               1AZ
316751005316751565-000056     316751006003000643325NOVELTY FINGER BEAMS   0000001000+00001753+00000+0001T   00001753+0000000900          1400 BN1745               1AZ
316752000316752               316752               170213MC     1400+00000+MC0000000700+0000000700+000000000+000000098+0000000790+0000000008+I20000000000+0000000790+Z
316752001316752018-000177     316752006001023797513MUG MINI LOVE ASSTD    0000001000+00000700+00000+0001T   00000700+0000000902          1400 BN1515               1AZ
316753000316753               316753               170213MC     1400+00000+MC0000005295+0000005295+000000000+000000742+0000006030+0000000007+I20000000000+0000006030+Z
316753001316753018-005009     316753006001023725608MUG W/PLUSH-BEAR LOVE  0000001000+00003507+00000+0001T   00003507+0000000932          1400 BN1515               1AZ
316753002316753039-001023     316753006003000466337CANDLE TEA-LITE METALIC0000001000+00001753+00000+0001T   00001753+0000000932          1400 BN1510               1AZ
316753003316753112-116038     316753006003000534906TCS CARRIER BAG MIDI   0000001000+00000035+00000+0001T   00000035+0000000932          1400 BN1090               1AZ
316754000316754               316754               170213MC     1400+00000+MC0000004385+0000004385+000000000+000000614+0000004990+0000000009+I20000000000+0000004990+Z
316754001316754001-000175     316754006001023788108B/MUG GLS LOVE 380ML   0000001000+00004385+00000+0001T   00004385+0000000933          1400 BN1515               1AZ
316755000316755               316755               170213MC     1400+00000+MC0000007890+0000007890+000000000+000001106+0000008996+0000000000+I40000008996+0000000000+Z
316755001316755088-000108     316755006001023765536POTPOURRI-OIL 10ml ASST0000001000+00001753+00000+0001T   00001753+0000001019          1400 BN1212               1AZ
316755002316755031-000873-A   316755006003000675425P/FRAME WDN WHITE 10X150000001000+00002630+00000+0001T   00002630+0000001019          1400 BN1510               1AZ
316755003316755031-000873-B   316755006003000673391P/FRAME WDN WHITE 13X180000001000+00003507+00000+0001T   00003507+0000001019          1400 BN1510               1AZ
316756000316756               316756               170213MC     1400+00000+MC0000005085+0000005085+000000000+000000712+0000005790+0000000007+I20000000000+0000005790+Z
316756001316756077-000303     316756006001023593757GIFT-BAG PAPER MED     0000001000+00001578+00000+0001T   00001578+0000001020          1400 BN1112               1AZ
316756002316756018-000136     316756006001023659026MUG OCC LOVE W/PLUSH   0000001000+00003507+00000+0001T   00003507+0000001020          1400 BN1515               1AZ
316757000316757               316757               170213MC     1400+00000+MC0000003401+0000003401+000000000+000000478+0000003870+0000000009+I20000000000+0000003870+Z
316757001316757079-009700-M   316757006003000634101PAPER SIRIO A4 PINK COL0000006000+00000306+00000+0001T   00000306+0000001052          1400 BN1130               1AZ
316757002316757079-009700-F   316757006003000545872PAPER SIRIO A4 TURQ COL0000005000+00000306+00000+0001T   00000306+0000001052          1400 BN1130               1AZ
316757003316757112-116038     316757006003000534906TCS CARRIER BAG MIDI   0000001000+00000035+00000+0001T   00000035+0000001052          1400 BN1090               1AZ
316758000316758               316758               170213MC     1400+00000+MC0000006138+0000006138+000000000+000000860+0000006990+0000000008+I20000000000+0000006990+Z
316758001316758080-000102     316758006003000236855CARD&ENVLP FEMALE AFR  0000001000+00001753+00000+0001T   00001753+0000001103          1400 BN1112               1AZ
316758002316758082-000115     316758006003000360604READING GLS STRNGHT:2.50000001000+00004385+00000+0001T   00004385+0000001103          1400 BN1160               1AZ
316759000316759               316759               170213MC     1400+00000+MC0000008771+0000008771+000000000+000001228+0000009999+0000000000+I40000009999+0000000000+Z
316759001316759031-086302-C   316759006001023910332P/FRAME COLL. PL 3-HOLE0000001000+00008771+00000+0001T   00008771+0000001105          1400 BN1510               1AZ
316760000316760               316760               170213MC     1400+00000+MC0000019322+0000019322+000000000+000002709+0000022031+0000000000+I40000022031+0000000000+Z
316760001316760071-001363     316760006003000196968HIGHLIGHTER 8PACK      0000001000+00005262+00000+0001T   00005262+0000001139          1400 BN1130               1AZ
316760002316760071-001102     316760006003000274598MARKER PERM MED 2PCE   0000002000+00001753+00000+0001T   00001753+0000001139          1400 BN1130               1AZ
316760003316760071-005667     316760006003000153060STAPLER SET MTL W/STPLS0000001000+00003507+00000+0001T   00003507+0000001139          1400 BN1130               1AZ
316760004316760071-001102     316760006003000274598MARKER PERM MED 2PCE   0000002000+00001753+00000+0001T   00001753+0000001139          1400 BN1130               1AZ
316760005316760071-003011     316760006001023762825PEN STICKBALL X10 ASSTD0000001000+00001753+00000+0001T   00001753+0000001139          1400 BN1130               1AZ
316760006316760112-116038     316760006009681820246TCS CARRIER BAG MIDI   0000001000+00000035+00000+0001T   00000035+0000001139          1400 BN1090               1AZ
316760007316760903-000211     316760006002099001238SWT GS MALLOW ICE CREAM0000001000+00001753+00000+0001T   00001753+0000001139          1400 BN1150               1AZ
316761000316761               316761               170213MC     1400+00000+MC0000000613+0000000613+000000000+000000086+0000000690+0000000009+I20000000000+0000000690+Z
316761001316761077-000311     316761006001023608666GIFT-BAG 11X14CM GLOSS 0000001000+00000613+00000+0001T   00000613+0000001204          1400 BN1112               1AZ
316762000316762               316762               170213MC     1400+00000+MC0000006445+0000006445+000000000+000000904+0000007340+0000000009+I20000000000+0000007340+Z
316762001316762018-000177     316762006001023797513MUG MINI LOVE ASSTD    0000001000+00000700+00000+0001T   00000700+0000001205          1400 BN1515               1AZ
316762002316762080-000133-A   316762006003000647019MINI VALENTINES CARD   0000001000+00000437+00000+0001T   00000437+0000001205          1400 BN1112               1AZ
316762003316762565-000888     316762006003000607846NOVELTY MESH BALL      0000001000+00001753+00000+0001T   00001753+0000001205          1400 BN1745               1AZ
316762004316762266-001026     316762006003000473618SWORD 52cm+35cm AXE    0000001000+00003507+00000+0001T   00003507+0000001205          1400 BN1710               1AZ
316762005316762112-116069     316762006009681820277TCS CARRIER BAG JUMBO  0000001000+00000048+00000+0001T   00000048+0000001205          1400 BN1090               1AZ
316763000316763               316763               170213MC     1400+00000+MC0000005962+0000005962+000000000+000000835+0000006790+0000000007+I20000000000+0000006790+Z
316763001316763085-007026     316763006003000528714P/KNIFE 9cm 15-FUNCTION0000001000+00005262+00000+0001T   00005262+0000001206          1400 BN1305               1AZ
316763002316763018-000177     316763006001023797513MUG MINI LOVE ASSTD    0000001000+00000700+00000+0001T   00000700+0000001206          1400 BN1515               1AZ
316764000316764               316764               170213MC     1400+00000+MC0000000437+0000000437+000000000+000000062+0000000490+0000000009+I20000000000+0000000490+Z
316764001316764083-000049     316764004891035200024CIG-LIGHTER DISPOSABLE 0000001000+00000437+00000+0001T   00000437+0000001211          1400 BN1315               1AZ
316765000316765               316765               170213MC     1400+00000+MC0000006398+0000006398+000000000+000000898+0000007296+0000000000+I40000007296+0000000000+Z
316765001316765077-000235     316765006003000160211GIFT-RIBBON ROLL METALC0000001000+00002630+00000+0001T   00002630+0000001214          1400 BN1112               1AZ
316765002316765071-005213     316765006001023690371CELLOTAPE 12mmx33m     0000001000+00000876+00000+0001T   00000876+0000001214          1400 BN1130               1AZ
316765003316765565-000085     316765006003000643332NOVELTY BEEDZ 10g      0000001000+00002455+00000+0001T   00002455+0000001214          1400 BN1745               1AZ
316765004316765080-000133-A   316765006003000647019MINI VALENTINES CARD   0000001000+00000437+00000+0001T   00000437+0000001214          1400 BN1112               1AZ
316766000316766               316766               170213MC     1400+00000+MC0000003507+0000003507+000000000+000000491+0000003990+0000000008+I20000000000+0000003990+Z
316766001316766018-005009     316766006001023725608MUG W/PLUSH-BEAR LOVE  0000001000+00003507+00000+0001T   00003507+0000001214          1400 BN1515               1AZ
316767000316767               316767               170213MC     1400+00000+MC0000006170+0000006170+000000000+000000865+0000007035+0000000000+I40000007035+0000000000+Z
316767001316767251-000041     316767006001023515889SEAL-TAPE BUFF 48mmx50m0000005000+00001227+00000+0001T   00001227+0000001216          1400 BN1810               1AZ
316767002316767112-116038     316767006003000534906TCS CARRIER BAG MIDI   0000001000+00000035+00000+0001T   00000035+0000001216          1400 BN1090               1AZ
316768000316768               316768               170213MC     1400+00000+MC0000010870+0000010870+000000000+000001524+0000012390+0000000004+I20000000000+0000012390+Z
316768001316768903-003051     316768008024431008703SWT CHOCO PARTY 25G    0000003000+00000876+00000+0001T   00000876+0000001217          1400 BN1150               1AZ
316768002316768903-000848     316768008692806080076SWT SNACK BISCUIT 70g  0000002000+00000613+00000+0001T   00000613+0000001217          1400 BN1150               1AZ
316768003316768562-006275     316768006001023836182EDU BOARD W/MARKER ASST0000001000+00007016+00000+0001T   00007016+0000001217          1400 BN1755               1AZ
316769000316769               316769               170213MC     1400+00000+MC0000005085+0000005085+000000000+000000713+0000005790+0000000008+I20000000000+0000005790+Z
316769001316769903-000710     316769006002099007056SWT REFRESHERS MINT    0000001000+00001139+00000+0001T   00001139+0000001218          1400 BN1150               1AZ
316769002316769133-000008     316769006003000366453KITCHEN SWAB 3PCE CHECK0000001000+00003946+00000+0001T   00003946+0000001218          1400 BN1212               1AZ
316770000316770               316770               170213MC     1400+00000+MC0000000876+0000000876+000000000+000000123+0000000990+0000000009+I20000000000+0000000990+Z
316770001316770078-000025     316770008887013700064SUPERGLUE 3g 1PCE CARD 0000001000+00000876+00000+0001T   00000876+0000001237          1400 BN1810               1AZ
316771000316771               316771               170213MC     1400+00000+MC0000002980+0000002980+000000000+000000418+0000003390+0000000008+I20000000000+0000003390+Z
316771001316771077-000299     316771006003000395576G/BAG 32x25cm LRG LOVE 0000002000+00001490+00000+0001T   00001490+0000001239          1400 BN1112               1AZ
316772000316772               316772               170213MC     1400+00000+MC0000003507+0000003507+000000000+000000491+0000003990+0000000008+I20000000000+0000003990+Z
316772001316772105-006955     316772006003000685325CONTAINER CLEAR BASE 8L0000001000+00003507+00000+0001T   00003507+0000001244          1400 BN1210               1AZ
316773000316773               316773               170213MC     1400+00000+MC0000004383+0000004383+000000000+000000615+0000004990+0000000008+I20000000000+0000004990+Z
316773001316773903-000215     316773006002099001214SWT GS MALLOW TWIST PAC0000001000+00001753+00000+0001T   00001753+0000001252          1400 BN1150               1AZ
316773002316773263-000130     316773006003000305742MOTORBIKE B/BACK 11CM  0000001000+00002630+00000+0001T   00002630+0000001252          1400 BN1710               1AZ
316774000316774               316774               170213MC     1400+00000+MC0000008771+0000008771+000000000+000001228+0000009990+0000000009+I20000000000+0000009990+Z
316774001316774586-010755     316774006001492107554WATCH LDS HOT DEAL ASST0000001000+00008771+00000+0001T   00008771+0000001258          1400 BN1160               1AZ
316775000316775               316775               170213MC     1400+00000+MC0000001226+0000001226+000000000+000000172+0000001390+0000000008+I20000000000+0000001390+Z
316775001316775304-001011     316775006001023806727FLWR ROSE RED W/BEAR   0000002000+00000613+00000+0001T   00000788+0006471405          1400 BN1510               1AZ
316776000316776               316776               170213MC     1400+00000+MC0000002189+0000002189+000000000+000000308+0000002490+0000000007+I20000000000+0000002490+Z
316776001316776304-001011     316776006001023806727FLWR ROSE RED W/BEAR   0000001000+00000613+00000+0001T   00000788+0006471406          1400 BN1510               1AZ
316776002316776903-000200     316776006009826020234SWT CHOC RP CHOCO 23G  0000002000+00000788+00000+0001T   00000788+0000001406          1400 BN1150               1AZ
316777000316777               316777               170213MC     1400+00000+MC0000009679+0000009679+000000000+000001356+0000011030+0000000005+I20000000000+0000011030+Z
316777001316777200-000100     316777006001023764003CUPS 25PCE DISPOSABLE  0000001000+00001928+00000+0001T   00001928+0000001410          1400 BN1214               1AZ
316777002316777261-000121     316777006001023341600GUN-CAPS 8-SHOT CARD-9 0000001000+00000700+00000+0001T   00000700+0000001410          1400 BN1710               1AZ
316777003316777261-008552     316777006001023832580CAP-GUN           ASSTD0000001000+00007016+00000+0001T   00007016+0000001410          1400 BN1710               1AZ
316777004316777112-116038     316777006003000534906TCS CARRIER BAG MIDI   0000001000+00000035+00000+0001T   00000035+0000001410          1400 BN1090               1AZ
316778000316778               316778               170213MC     1400+00000+MC0000007010+0000007010+000000000+000000984+0000000000+0000000000+ 00000000000+0000000000+Z
316778001316778903-000012     316778006002099007308SWT MALLOW S/BERRY     0000002000+00000437+00000+0001T   00000437+000000              1400 BN11502IC            1 Z
316778002316778077-000303     316778006001023593757GIFT-BAG PAPER MED     0000002000+00001578+00000+0001T   00001578+000000              1400 BN11122IC            1 Z
316778003316778077-000299     316778006003000395576G/BAG 32x25cm LRG LOVE 0000002000+00001490+00000+0001T   00001490+000000              1400 BN11122IC            1 Z
316779000316779               316779               170213MC     1400+00000+MC0000005344+0000005344+000000000+000000751+0000006090+0000000005+I20000000000+0000006090+Z
316779001316779077-000299     316779006003000395576G/BAG 32x25cm LRG LOVE 0000003000+00001490+00000+0001T   00001490+0000001420          1400 BN1112               1AZ
316779002316779903-000012     316779006002099007308SWT MALLOW S/BERRY     0000002000+00000437+00000+0001T   00000437+0000001420          1400 BN1150               1AZ
316780000316780               316780               170213MC     1400+00000+MC0000001753+0000001753+000000000+000000246+0000001990+0000000009+I20000000000+0000001990+Z
316780001316780078-000030     316780006003000151141YAMAYO SUPERGLUE 8g    0000001000+00001753+00000+0001T   00001753+0000001421          1400 BN1810               1AZ
316781000316781               316781               170213MC     1400+00000+MC0000001314+0000001314+000000000+000000184+0000001498+0000000000+I40000001498+0000000000+Z
316781001316781077-000310     316781006001023608635GIFT-BAG 18X23CM GLOSS 0000001000+00001314+00000+0001T   00001314+0000001421          1400 BN1112               1AZ
316782000316782               316782               170213MC     1400+00000+MC0000001578+0000001578+000000000+000000221+0000001790+0000000009+I20000000000+0000001790+Z
316782001316782018-000127     316782006001023380289MUG OCC STRAIGHT LOVE  0000001000+00001578+00000+0001T   00001753+0006471422          1400 BN1515               1AZ
316783000316783               316783               170213MC     1400+00000+MC0000003507+0000003507+000000000+000000491+0000003990+0000000008+I20000000000+0000003990+Z
316783001316783083-000305     316783006440024423302CIG-LIGHTER-GAS   300ml0000001000+00003507+00000+0001T   00003507+0000001422          1400 BN1315               1AZ
316784000316784               316784               170213MC     1400+00000+MC0000005871+0000005871+000000000+000000823+0000006694+0000000000+I40000006694+0000000000+Z
316784001316784077-000299     316784006003000395576G/BAG 32x25cm LRG LOVE 0000001000+00001490+00000+0001T   00001490+0000001426          1400 BN1112               1AZ
316784002316784006-000166-C   316784006003000516377BALLOONS LRG 6PC PINK  0000001000+00001314+00000+0001T   00001314+0000001426          1400 BN1131               1AZ
316784003316784006-000166-H   316784006003000608096BALLOONS HELIUM 6PC WHT0000001000+00001314+00000+0001T   00001314+0000001426          1400 BN1131               1AZ
316784004316784006-000119     316784006001023730756BALLOONS 12PC MIX COLS 0000001000+00001753+00000+0001T   00001753+0000001426          1400 BN1131               1AZ
316785000316785               316785               170213MC     1400+00000+MC0000002628+0000002628+000000000+000000368+0000002996+0000000000+I40000002996+0000000000+Z
316785001316785107-004105     316785006002923010504BUCKET 9L OPEN         0000002000+00001314+00000+0001T   00001314+0000001428          1400 BN1210               1AZ
316786000316786               316786               170213MC     1400+00000+MC0000017100+0000017100+000000000+000002395+0000019490+0000000005+I20000000000+0000019490+Z
316786001316786077-000455     316786006003000285389G/BAG METALLIC LRG SOL 0000001000+00001753+00000+0001T   00001753+0000001429          1400 BN1112               1AZ
316786002316786001-091415     316786006003000329113W/GLS OCC. LOVE 2PC 2800000001000+00008771+00000+0001T   00009648+0006471429          1400 BN1515               1AZ
316786003316786030-000030-A   316786006003000249305PLAQUE GLASS LOVE      0000001000+00003069+00000+0001T   00003069+0000001429          1400 BN1505               1AZ
316786004316786031-000923     316786006001023669933P/FRAME BLK W/WORDS    0000001000+00003507+00000+0001T   00003507+0000001429          1400 BN1510               1AZ
316787000316787               316787               170213MC     1400+00000+MC0000009643+0000009643+000000000+000001351+0000010990+0000000004+I20000000000+0000010990+Z
316787001316787077-000299     316787006003000395576G/BAG 32x25cm LRG LOVE 0000001000+00001490+00000+0001T   00001490+0000001430          1400 BN1112               1AZ
316787002316787018-000136     316787006001023659026MUG OCC LOVE W/PLUSH   0000001000+00003507+00000+0001T   00003507+0000001430          1400 BN1515               1AZ
316787003316787903-000709     316787006002099007070SWT QUENCHERS FRUIT    0000001000+00001139+00000+0001T   00001139+0000001430          1400 BN1150               1AZ
316787004316787031-000923     316787006001023669933P/FRAME BLK W/WORDS    0000001000+00003507+00000+0001T   00003507+0000001430          1400 BN1510               1AZ
316788000316788               316788               170213MC     1400+00000+MC0000008976+0000008976+000000000+000001259+0000010235+0000000000+I40000010235+0000000000+Z
316788001316788077-000323     316788006001023677563G/BAG 25X32CM E/DAY FLO0000001000+00001578+00000+0001T   00001578+0000001434          1400 BN1112               1AZ
316788002316788037-000004     316788006001023763679ASHTRAY PL TUB 8X11CM  0000001000+00001753+00000+0001T   00002192+0008191434          1400 BN1515               1AZ
316788003316788031-000878-B   316788006001023799012P/FRAME 13x18cm PL-SLID0000001000+00001490+00000+0001T   00001490+0000001434          1400 BN1510               1AZ
316788004316788072-000329     316788006001023904706PET CAT COLLAR LINING  0000001000+00002630+00000+0001T   00002630+0000001434          1400 BN1870               1AZ
316788005316788112-116038     316788006009681820246TCS CARRIER BAG MIDI   0000001000+00000035+00000+0001T   00000035+0000001434          1400 BN1090               1AZ
316788006316788016-006505     316788006001023617576S/JAR GLS MINI CLIP    0000001000+00001490+00000+0001T   00001490+0000001434          1400 BN1300               1AZ
316789000316789               316789               170213MC     1400+00000+MC0000013627+0000013627+000000000+000001909+0000015536+0000000000+I40000015536+0000000000+Z
316789001316789024-000019     316789006001023822277HILLHOUSE ICING-SET    0000001000+00005262+00000+0001T   00005262+0000001436          1400 BN1300               1AZ
316789002316789024-000018     316789006001023610232CAKE-DEC S/S NOZZLE    0000001000+00003946+00000+0001T   00003946+0000001436          1400 BN1300               1AZ
316789003316789024-091103     316789006003453014307BAKING-CUP MUFFIN 50PCE0000002000+00002192+00000+0001T   00002192+0000001436          1400 BN1300               1AZ
316789004316789112-116038     316789006003000534906TCS CARRIER BAG MIDI   0000001000+00000035+00000+0001T   00000035+0000001436          1400 BN1090               1AZ
316790000316790               316790               170213MC     1400+00000+MC0000027046+0000027046+000000000+000003793+0000030830+0000000009+I20000000000+0000030830+Z
316790001316790039-001023     316790006003000466337CANDLE TEA-LITE METALIC0000002000+00001753+00000+0001T   00001753+0000001441          1400 BN1510               1AZ
316790002316790301-085000     316790006003000674299 ORN OCC. LOVE HEARTS  0000002000+00002192+00000+0001T   00002192+0000001441          1400 BN1505               1AZ
316790003316790112-116069     316790006009681820277TCS CARRIER BAG JUMBO  0000001000+00000048+00000+0001T   00000048+0000001441          1400 BN1090               1AZ
316790004316790301-085008     316790006003000673933ORN OCC.LOVE TINSEL HRT0000004000+00003069+00000+0001T   00003069+0000001441          1400 BN1505               1AZ
316790005316790079-009702-D   316790008427973059354PAPER SIRIO A2 RED COL 0000002000+00001051+00000+0001T   00001051+0000001441          1400 BN1130               1AZ
316790006316790079-009702-G   316790008427973060787PAPER SIRIO A2 FUSHIA  0000002000+00001051+00000+0001T   00001051+0000001441          1400 BN1130               1AZ
316790007316790006-000167-C   316790006003000516971BALLOONS PINK METALLIC 0000002000+00001314+00000+0001T   00001314+0000001441          1400 BN1131               1AZ
316791000316791               316791               170213MC     1400+00000+MC0000003069+0000003069+000000000+000000430+0000003490+0000000009+I20000000000+0000003490+Z
316791001316791089-060027     316791006003000245871KEY-CHAIN HEART 6X6cm  0000001000+00003069+00000+0001T   00003069+0000001442          1400 BN1205               1AZ
316792000316792               316792               170213MC     1400+00000+MC0000015833+0000015833+000000000+000002219+0000018052+0000000000+I40000018052+0000000000+Z
316792001316792039-080961     316792006001023736024C/SET 1GLS-HOLDER+6LITE0000001000+00001753+00000+0001T   00002630+0008171451          1400 BN1510               1AZ
316792002316792040-000103     316792000694202201862C/HOLDER-SET 5PC W/TRAY0000001000+00011402+00000+0001T   00013157+0008191451          1400 BN1510               1AZ
316792003316792077-000270     316792006003000395453GIFT-BAG PPR JMB 33X45 0000001000+00002630+00000+0001T   00002630+0000001451          1400 BN1112               1AZ
316792004316792112-116069     316792006009681820277TCS CARRIER BAG JUMBO  0000001000+00000048+00000+0001T   00000048+0000001451          1400 BN1090               1AZ
316793000316793               316793               170213MC     1400+00000+MC0000003506+0000003506+000000000+000000492+0000003990+0000000008+I20000000000+0000003990+Z
316793001316793903-000211     316793006002099001238SWT GS MALLOW ICE CREAM0000001000+00001753+00000+0001T   00001753+0000001452          1400 BN1150               1AZ
316793002316793006-000120     316793006001023346889BALLOONS 10PC MIX COL  0000001000+00001753+00000+0001T   00001753+0000001452          1400 BN1131               1AZ
316794000316794               316794               170213MC     1400+00000+MC0000009119+0000009119+000000000+000001277+0000010390+0000000006+I20000000000+0000010390+Z
316794001316794077-000303     316794006001023593757GIFT-BAG PAPER MED     0000003000+00001578+00000+0001T   00001578+0000001453          1400 BN1112               1AZ
316794002316794001-000175     316794006001023788108B/MUG GLS LOVE 380ML   0000001000+00004385+00000+0001T   00004385+0000001453          1400 BN1515               1AZ
316795000316795               316795               170213MC     1400+00000+MC0000008634+0000008634+000000000+000001210+0000009840+0000000004+I20000000000+0000009840+Z
316795001316795077-000303     316795006001023593757GIFT-BAG PAPER MED     0000003000+00001578+00000+0001T   00001578+0000001456          1400 BN1112               1AZ
316795002316795031-005853     316795006003000442416P/FRAME WDN TWIN HEARTS0000001000+00003507+00000+0001T   00003507+0000001456          1400 BN1510               1AZ
316795003316795903-000183     316795006003000451043SWT LB HEART LOLLY     0000001000+00000393+00000+0001T   00000393+0000001456          1400 BN1150               1AZ
316796000316796               316796               170213MC     1400+00000+MC0000012616+0000012616+000000000+000001769+0000014385+0000000000+I40000014385+0000000000+Z
316796001316796112-116038     316796006009681820246TCS CARRIER BAG MIDI   0000001000+00000035+00000+0001T   00000035+0000001458          1400 BN1090               1AZ
316796002316796079-013101     316796006001023863706CRAFT SET DIY PIPE-CLNR0000001000+00002630+00000+0001T   00002630+0000001458          1400 BN1130               1AZ
316796003316796079-006496     316796006003000160105GLITTER SHAKERS        0000001000+00001753+00000+0001T   00001753+0000001458          1400 BN1130               1AZ
316796004316796071-009832     316796006003000152674STATIONERY SET 4PCE    0000001000+00005262+00000+0001T   00005262+0000001458          1400 BN1130               1AZ
316796005316796304-003898     316796006001023712790S/FLOWER SPRAY 51CM ASS0000001000+00002630+00000+0001T   00002630+0000001458          1400 BN1510               1AZ
316796006316796079-009700-G   316796006003000545957PAPER SIRIO A4 LIME COL0000001000+00000306+00000+0001T   00000306+0000001458          1400 BN1130               1AZ
316797000316797               316797               170213MC     1400+00000+MC0000006082+0000006082+000000000+000000854+0000006930+0000000006+I20000000000+0000006930+Z
316797001316797071-003863     316797006003000145102PENCIL NOVELTY ERASER  0000001000+00002630+00000+0001T   00002630+0000001459          1400 BN1130               1AZ
316797002316797071-081104-A   316797006003000326662GLUE-STICK 8g CRD-OF-3 0000001000+00001227+00000+0001T   00001227+0000001459          1400 BN1130               1AZ
316797003316797071-002999-A   316797006003000611577PEN STICKBALL 10PCE ASS0000001000+00001753+00000+0001T   00001753+0000001459          1400 BN1130               1AZ
316797004316797071-000325     316797006009635844090RULER PLASTIC 30cm     0000001000+00000437+00000+0001T   00000437+0000001459          1400 BN1130               1AZ
316797005316797112-116038     316797006003000534906TCS CARRIER BAG MIDI   0000001000+00000035+00000+0001T   00000035+0000001459          1400 BN1090               1AZ
316798000316798               316798               170213MC     1400+00000+MC0000002630+0000002630+000000000+000000369+0000002990+0000000009+I20000000000+0000002990+Z
316798001316798159-000117     316798006003000450398SHOWER CAP PVC ASSTD   0000001000+00002630+00000+0001T   00002630+0000001500          1400 BN1200               1AZ
316799000316799               316799               170213MC     1400+00000+MC0000006972+0000006972+000000000+000000977+0000007940+0000000009+I20000000000+0000007940+Z
316799001316799077-000299     316799006003000395576G/BAG 32x25cm LRG LOVE 0000001000+00001490+00000+0001T   00001490+0000001503          1400 BN1112               1AZ
316799002316799903-000194     316799006009826020616SWT CHOC RP LOLLY 25G  0000001000+00001314+00000+0001T   00001314+0000001503          1400 BN1150               1AZ
316799003316799304-001011     316799006001023806727FLWR ROSE RED W/BEAR   0000001000+00000613+00000+0001T   00000788+0006471503          1400 BN1510               1AZ
316799004316799301-085004     316799006003000420469ORN LOVE PLAQUE 21X10CM0000001000+00003507+00000+0001T   00003946+0006471503          1400 BN1505               1AZ
316799005316799112-116069     316799006009681820277TCS CARRIER BAG JUMBO  0000001000+00000048+00000+0001T   00000048+0000001503          1400 BN1090               1AZ
316800000316800               316800               170213MC     1400+00000+MC0000008568+0000008568+000000000+000001204+0000009770+0000000002+I20000000000+0000009770+Z
316800001316800079-009700-F   316800006003000545872PAPER SIRIO A4 TURQ COL0000014000+00000306+00000+0001T   00000306+0000001505          1400 BN1130               1AZ
316800002316800079-009700-M   316800006003000634101PAPER SIRIO A4 PINK COL0000014000+00000306+00000+0001T   00000306+0000001505          1400 BN1130               1AZ
316801000316801               316801               170213MC     1400+00000+MC0000000831+0000000831+000000000+000000117+0000000940+0000000008+I20000000000+0000000940+Z
316801001316801006-001000     316801006003000093779HELIUM BALLOON FILL    0000001000+00000613+00000+0001T   00000613+0000001505          1400 BN1131               1AZ
316801002316801006-000171-H   316801006003000609574BALLOONS 1PC RED PRINT 0000001000+00000218+00000+0001T   00000218+0000001505          1400 BN1131               1AZ
316802000316802               316802               170213MC     1400+00000+MC0000014904+0000014904+000000000+000002088+0000016990+0000000002+I20000000000+0000016990+Z
316802001316802566-001228     316802006003000284153STICKERS CRYSTAL ASSTD 0000001000+00001753+00000+0001T   00001753+0000001510          1400 BN1130               1AZ
316802002316802566-000065     316802006003000217915STICKERS GLITTER ASSTD 0000001000+00001753+00000+0001T   00001753+0000001510          1400 BN1130               1AZ
316802003316802486-000003     316802006001023702395CLOCK QTZ ROUND        0000001000+00003507+00000+0001T   00003507+0000001510          1400 BN1510               1AZ
316802004316802077-000298     316802006003000275342G/BOX OCCASION WEDDING 0000001000+00002192+00000+0001T   00002192+0000001510          1400 BN1112               1AZ
316802005316802159-000643     316802006001023767028BACK-BRUSH ASSTD       0000001000+00003507+00000+0001T   00003507+0000001510          1400 BN1200               1AZ
316802006316802077-000298     316802006003000275342G/BOX OCCASION WEDDING 0000001000+00002192+00000+0001T   00002192+0000001510          1400 BN1112               1AZ
316803000316803               316803               170213MC     1400+00000+MC0000005611+0000005611+000000000+000000786+0000006390+0000000007+I20000000000+0000006390+Z
316803001316803006-000190     316803006003000685530BALLOONS LOVE 81x91cm  0000001000+00004385+00000+0001T   00004385+0000001511          1400 BN1131               1AZ
316803002316803006-001000     316803006003000093779HELIUM BALLOON FILL    0000002000+00000613+00000+0001T   00000613+0000001511          1400 BN1131               1AZ
316804000316804               316804               170213MC     1400+00000+MC0000001753+0000001753+000000000+000000246+0000001990+0000000009+I20000000000+0000001990+Z
316804001316804306-000021-B   316804006003000366217COTTON EARBUDS BABY 55P0000001000+00001753+00000+0001T   00001753+0000001512          1400 BN1200               1AZ
316805000316805               316805               170213MC     1400+00000+MC0000004120+0000004120+000000000+000000578+0000004690+0000000008+I20000000000+0000004690+Z
316805001316805077-000299     316805006003000395576G/BAG 32x25cm LRG LOVE 0000001000+00001490+00000+0001T   00001490+0000001519          1400 BN1112               1AZ
316805002316805162-094342     316805006001492943428#TAG NAVY GRAPHIC BIB  0000001000+00002630+00000+0001T   00005262+0008161519          1400 BN1160               1AZ
316806000316806               316806               170213MC     1400+00000+MC0000017542+0000017542+000000000+000002456+0000019990+0000000008+I20000000000+0000019990+Z
316806001316806586-010651     316806006001492106519WATCH 3PCE GOLD&PEARL  0000001000+00017542+00000+0001T   00017542+0000001520          1400 BN1160               1AZ
316807000316807               316807               170213MC     1400+00000+MC0000001753+0000001753+000000000+000000246+0000001999+0000000000+I40000001999+0000000000+Z
316807001316807077-000011     316807006003000542352PAPER RAFFIA ASSTD COL 0000001000+00001753+00000+0001T   00001753+0000001528          1400 BN1112               1AZ
316808000316808               316808               170213MC     1400+00000+MC0000003589+0000003589+000000000+000000504+0000004090+0000000003+I20000000000+0000004090+Z
316808001316808006-000166-H   316808006003000608096BALLOONS HELIUM 6PC WHT0000001000+00001314+00000+0001T   00001314+0000001532          1400 BN1131               1AZ
316808002316808006-000170-A   316808006003000608065BALLOONS 1PC PINK      0000002000+00000218+00000+0001T   00000218+0000001532          1400 BN1131               1AZ
316808003316808006-001000     316808006003000093779HELIUM BALLOON FILL    0000003000+00000613+00000+0001T   00000613+0000001532          1400 BN11312IC            1AZ
316809000316809               316809               170213MC     1400+00000+MC0000017264+0000017264+000000000+000002419+0000019680+0000000003+I20000000000+0000019680+Z
316809001316809089-060027     316809006003000245871KEY-CHAIN HEART 6X6cm  0000002000+00003069+00000+0001T   00003069+0000001533          1400 BN1205               1AZ
316809002316809077-000010-C   316809006001023123879CREPE-PAPER RED        0000001000+00000788+00000+0001T   00000788+0000001533          1400 BN1112               1AZ
316809003316809903-000510     316809006001704012621SWEET MS ZBDZ S/BERRY  0000002000+00001227+00000+0001T   00001227+0000001533          1400 BN1150               1AZ
316809004316809903-000844     316809005010478432567SWT CANDY DL LUV HEARTS0000006000+00001314+00000+0001T   00001314+0000001533          1400 BN1150               1AZ
316810000316810               316810               170213MC     1400+00000+MC0000000613+0000000613+000000000+000000086+0000000690+0000000009+I20000000000+0000000690+Z
316810001316810006-001000     316810006003000093779HELIUM BALLOON FILL    0000001000+00000613+00000+0001T   00000613+0000001537          1400 BN1131               1AZ
316811000316811               316811               170213MC     1400+00000+MC0000002840+0000002840+000000000+000000398+0000003238+0000000000+I40000003238+0000000000+Z
316811001316811077-000311     316811006001023608666GIFT-BAG 11X14CM GLOSS 0000001000+00000613+00000+0001T   00000613+0000001549          1400 BN1112               1AZ
316811002316811566-000068     316811006003000418046POP UP LOVE 2 ASSTD    0000001000+00002192+00000+0001T   00002192+0000001549          1400 BN1130               1AZ
316811003316811112-116038     316811006003000534906TCS CARRIER BAG MIDI   0000001000+00000035+00000+0001T   00000035+0000001549          1400 BN1090               1AZ
316812000316812               316812               170213MC     1400+00000+MC0000004855+0000004855+000000000+000000680+0000005530+0000000005+I20000000000+0000005530+Z
316812001316812018-000170     316812006001023775528MUG OCC. LOVE 2PC MINI 0000001000+00002192+00000+0001T   00002192+0000001603          1400 BN1515               1AZ
316812002316812903-000194     316812006009826020616SWT CHOC RP LOLLY 25G  0000002000+00001314+00000+0001T   00001314+0000001603          1400 BN1150               1AZ
316812003316812112-116038     316812006003000534906TCS CARRIER BAG MIDI   0000001000+00000035+00000+0001T   00000035+0000001603          1400 BN1090               1AZ
316813000316813               316813               170213MC     1400+00000+MC0000000613+0000000613+000000000+000000086+0000000690+0000000009+I20000000000+0000000690+Z
316813001316813077-000317     316813006001023609748GIFT-BAG 11X14CM E/D AN0000001000+00000613+00000+0001T   00000613+0000001603          1400 BN1112               1AZ
316814000316814               316814               170213MC     1400+00000+MC0000008977+0000008977+000000000+000001258+0000010235+0000000000+I40000010235+0000000000+Z
316814001316814085-007024     316814006001023870926P/KNIFE 15-FUNCTION RED0000001000+00005262+00000+0001T   00005262+0000001607          1400 BN1305               1AZ
316814002316814903-000194     316814006009826020616SWT CHOC RP LOLLY 25G  0000001000+00001314+00000+0001T   00001314+0000001607          1400 BN1150               1AZ
316814003316814077-000010-C   316814006001023123879CREPE-PAPER RED        0000001000+00000788+00000+0001T   00000788+0000001607          1400 BN1112               1AZ
316814004316814077-000303     316814006001023593757GIFT-BAG PAPER MED     0000001000+00001578+00000+0001T   00001578+0000001607          1400 BN1112               1AZ
316814005316814112-116038     316814006003000534906TCS CARRIER BAG MIDI   0000001000+00000035+00000+0001T   00000035+0000001607          1400 BN1090               1AZ
316815000316815               316815               170213MC     1400+00000+MC0000027283+0000027283+000000000+000003822+0000031100+0000000005+I20000000000+0000031100+Z
316815001316815030-004015     316815006003000467624PLAQUE WDN SIGN 30X20CM0000001000+00009648+00000+0001T   00009648+0000001608          1400 BN1505               1AZ
316815002316815077-000270     316815006003000395453GIFT-BAG PPR JMB 33X45 0000001000+00002630+00000+0001T   00002630+0000001608          1400 BN1112               1AZ
316815003316815084-000309     316815006001023905277MANICURE-SET 8PCE G/BOX0000001000+00004385+00000+0001T   00004385+0000001608          1400 BN1200               1AZ
316815004316815007-000898     316815006001023871947BOOK JOURNAL           0000001000+00006139+00000+0001T   00006139+0000001608          1400 BN1130               1AZ
316815005316815082-007584     316815006003000653973SUNGLASS DESIGNER ASST 0000001000+00004385+00000+0001T   00004385+0000001608          1400 BN1160               1AZ
316815006316815112-116069     316815006009681820277TCS CARRIER BAG JUMBO  0000002000+00000048+00000+0001T   00000048+0000001608          1400 BN1090               1AZ
316816000316816               316816               170213MC     1400+00000+MC0000017541+0000017541+000000000+000002456+0000019990+0000000007+I20000000000+0000019990+Z
316816001316816361-000110     316816006001023837509RAG-DOLL 46cm RAG      0000001000+00008771+00000+0001T   00008771+0000001610          1400 BN1725               1AZ
316816002316816082-000110     316816006003000360482READING GLS STRENGHT:2 0000001000+00004385+00000+0001T   00004385+0000001610          1400 BN1160               1AZ
316816003316816082-000100     316816006003000360246READING GLS STRENGHT:1 0000001000+00004385+00000+0001T   00004385+0000001610          1400 BN1160               1AZ
316817000316817               316817               170213MC     1400+00000+MC0000007892+0000007892+000000000+000001106+0000008998+0000000000+I40000008998+0000000000+Z
316817001316817366-002195     316817006001023990549DRESS UP WINGS FEATHER 0000001000+00005262+00000+0001T   00005262+0000001611          1400 BN1131               1AZ
316817002316817006-006018     316817006001023735256PARTY-SPRAY HAIR ASSORT0000001000+00002630+00000+0001T   00002630+0000001611          1400 BN1131               1AZ
316818000316818               316818               170213MC     1400+00000+MC0000003542+0000003542+000000000+000000496+0000004030+0000000008+I20000000000+0000004030+Z
316818001316818301-085004     316818006003000420469ORN LOVE PLAQUE 21X10CM0000001000+00003507+00000+0001T   00003946+0006471612          1400 BN1505               1AZ
316818002316818112-116038     316818006003000534906TCS CARRIER BAG MIDI   0000001000+00000035+00000+0001T   00000035+0000001612          1400 BN1090               1AZ
316819000316819               316819               170213MC     1400+00000+MC0000003104+0000003104+000000000+000000435+0000003530+0000000009+I20000000000+0000003530+Z
316819001316819030-000030-A   316819006003000249305PLAQUE GLASS LOVE      0000001000+00003069+00000+0001T   00003069+0000001613          1400 BN1505               1AZ
316819002316819112-116038     316819006003000534906TCS CARRIER BAG MIDI   0000001000+00000035+00000+0001T   00000035+0000001613          1400 BN1090               1AZ
316820000316820               316820               170213MC     1400+00000+MC0000012101+0000012101+000000000+000001695+0000013796+0000000000+I40000013796+0000000000+Z
316820001316820903-000862     316820005010478533912SWT DOUBLE DIP 19G     0000001000+00001139+00000+0001T   00001139+0000001615          1400 BN1150               1AZ
316820002316820496-059631     316820006941057402611REPAIR-PATCHES   CARDED0000001000+00001314+00000+0001T   00001314+0000001615          1400 BN1787               1AZ
316820003316820495-058889     316820000078257588893LOUNGER PILLOW-BACK    0000001000+00009648+00000+0001T   00009648+0000001615          1400 BN1787               1AZ
316821000316821               316821               170213MC     1400+00000+MC0000007890+0000007890+000000000+000001107+0000008990+0000000007+I20000000000+0000008990+Z
316821001316821108-009000     316821006003000638673JELLY MOULD WITH LID PL0000001000+00002630+00000+0001T   00003507+0008171617          1400 BN1210               1AZ
316821002316821072-020304     316821006001023602497PET DOG-CHEW STRING    0000001000+00002630+00000+0001T   00002630+0000001617          1400 BN1870               1AZ
316821003316821072-020300     316821006008638000434DOG-TOY TUG-A-BALL SML 0000001000+00002630+00000+0001T   00002630+0000001617          1400 BN1870               1AZ
316822000316822               316822               170213MC     1400+00000+MC0000004734+0000004734+000000000+000000663+0000000000+0000000000+ 00000000000+0000000000+Z
316822001316822903-000111     316822006001704006378SWT LIQUORICE-TWISTS   0000001000+00001227+00000+0001T   00001227+000000              1400 BN11502IC            1 Z
316822002316822004-071203     316822006003000183555COMPUTOR LIGHT LED USB 0000001000+00003507+00000+0001T   00003507+000000              1400 BN13102IC            1 Z
316823000316823               316823               170213MC     1400+00000+MC0000001753+0000001753+000000000+000000246+0000001990+0000000009+I20000000000+0000001990+Z
316823001316823565-000889     316823006003000626953NOVELTY SPACE BALLOONS 0000001000+00001753+00000+0001T   00001753+0000001620          1400 BN1745               1AZ
316824000316824               316824               170213MC     1400+00000+MC0000000700+0000000700+000000000+000000098+0000000790+0000000008+I20000000000+0000000790+Z
316824001316824018-000177     316824006001023797513MUG MINI LOVE ASSTD    0000001000+00000700+00000+0001T   00000700+0000001620          1400 BN1515               1AZ
316825000316825               316825               170213MC     1400+00000+MC0000000654+0000000654+000000000+000000093+0000000740+0000000007+I20000000000+0000000740+Z
316825001316825006-000171-H   316825006003000609574BALLOONS 1PC RED PRINT 0000003000+00000218+00000+0001T   00000218+0000001622          1400 BN1131               1AZ
316826000316826               316826               170213MC     1400+00000+MC0000000613+0000000613+000000000+000000086+0000000699+0000000000+I40000000699+0000000000+Z
316826001316826304-001011     316826006001023806727FLWR ROSE RED W/BEAR   0000001000+00000613+00000+0001T   00000788+0006471624          1400 BN1510               1AZ
316827000316827               316827               170213MC     1400+00000+MC0000005262+0000005262+000000000+000000737+0000000000+0000000000+ 00000000000+0000000000+Z
316827001316827065-006072     316827006003000466627WOODEN HARMONICA 12.7cm0000001000+00005262+00000+0001T   00005262+000000              1400 BN17452IC            1 Z
316828000316828               316828               170213MC     1400+00000+MC0000015834+0000015834+000000000+000002218+0000018050+0000000002+I20000000000+0000018050+Z
316828001316828368-000111     316828006001023780812PLUSH BEAR/DOG 29CM    0000001000+00012279+00000+0001T   00012279+0000001627          1400 BN1745               1AZ
316828002316828018-000136     316828006001023659026MUG OCC LOVE W/PLUSH   0000001000+00003507+00000+0001T   00003507+0000001627          1400 BN1515               1AZ
316828003316828112-116069     316828006009681820277TCS CARRIER BAG JUMBO  0000001000+00000048+00000+0001T   00000048+0000001627          1400 BN1090               1AZ
316829000316829               316829               170213MC     1400+00000+MC0000003282+0000003282+000000000+000000462+0000003740+0000000004+I20000000000+0000003740+Z
316829001316829903-003050     316829008024431008239SWT CHOC CONE H/NUT 25G0000003000+00000876+00000+0001T   00000876+0000001627          1400 BN1150               1AZ
316829002316829903-000670     316829006009803358008SWT SHERBET RED LIPS   0000003000+00000218+00000+0001T   00000218+0000001627          1400 BN1150               1AZ
316830000316830               316830               170213MC     1400+00000+MC0000006624+0000006624+000000000+000000928+0000007550+0000000002+I20000000000+0000007550+Z
316830001316830080-000127     316830006003000424351VALENTINES DAY 36x24CM 0000003000+00002192+00000+0001T   00002192+0000001633          1400 BN1112               1AZ
316830002316830112-116069     316830006009681820277TCS CARRIER BAG JUMBO  0000001000+00000048+00000+0001T   00000048+0000001633          1400 BN1090               1AZ
316831000316831               316831               170213MC     1400+00000+MC0000001226+0000001226+000000000+000000172+0000001398+0000000000+I40000001398+0000000000+Z
316831001316831304-001011     316831006001023806727FLWR ROSE RED W/BEAR   0000002000+00000613+00000+0001T   00000788+0006471635          1400 BN1510               1AZ
316832000316832               316832               170213MC     1400+00000+MC0000009645+0000009645+000000000+000001352+0000010997+0000000000+I40000010997+0000000000+Z
316832001316832079-000300     316832006001023902245PAINTSET LEARN TO PAINT0000002000+00002630+00000+0001T   00002630+0000001642          1400 BN1130               1AZ
316832002316832036-000405     316832006001023630247CLOTHES DRYER PL 18-PEG0000001000+00004385+00000+0001T   00004385+0000001642          1400 BN1212               1AZ
316833000316833               316833               170213MC     1400+00000+MC0000004996+0000004996+000000000+000000701+0000005690+0000000007+I20000000000+0000005690+Z
316833001316833077-000010-C   316833006001023123879CREPE-PAPER RED        0000001000+00000788+00000+0001T   00000788+0000001643          1400 BN1112               1AZ
316833002316833565-000040     316833006008766115635NOVELTY ICON BEANIE    0000001000+00002630+00000+0001T   00002630+0000001643          1400 BN1745               1AZ
316833003316833077-000303     316833006001023593757GIFT-BAG PAPER MED     0000001000+00001578+00000+0001T   00001578+0000001643          1400 BN1112               1AZ
316834000316834               316834               170213MC     1400+00000+MC0000006138+0000006138+000000000+000000860+0000006998+0000000000+I40000006998+0000000000+Z
316834001316834077-000314     316834006003000181148GIFT-BAG 11X14CM MATT  0000001000+00000876+00000+0001T   00000876+0000001644          1400 BN1112               1AZ
316834002316834301-085003     316834006003000420827ORN OCCASION LOVE KEY  0000001000+00005262+00000+0001T   00005262+0000001644          1400 BN1505               1AZ
316835000316835               316835               170213MC     1400+00000+MC0000007939+0000007939+000000000+000001113+0000009050+0000000002+I20000000000+0000009050+Z
316835001316835077-000151     316835006008766114676GIFT-WRAP C/PHANE ASSTD0000001000+00000876+00000+0001T   00000876+0000001645          1400 BN1112               1AZ
316835002316835077-000011-Y   316835006001023809858TISSUE-WRAP GOLD 10PCE 0000001000+00001753+00000+0001T   00001753+0000001645          1400 BN1112               1AZ
316835003316835103-000245     316835006003000571550BASKET WOVEN RECT      0000001000+00005262+00000+0001T   00005262+0000001645          1400 BN1300               1AZ
316835004316835112-116069     316835006009681820277TCS CARRIER BAG JUMBO  0000001000+00000048+00000+0001T   00000048+0000001645          1400 BN1090               1AZ
316836000316836               316836               170213MC     1400+00000+MC0000001269+0000001269+000000000+000000179+0000001440+0000000008+I20000000000+0000001440+Z
316836001316836077-000314     316836006003000181148GIFT-BAG 11X14CM MATT  0000001000+00000876+00000+0001T   00000876+0000001646          1400 BN1112               1AZ
316836002316836903-000183     316836006003000451043SWT LB HEART LOLLY     0000001000+00000393+00000+0001T   00000393+0000001646          1400 BN1150               1AZ
316837000316837               316837               170213MC     1400+00000+MC0000007624+0000007624+000000000+000001068+0000008690+0000000002+I20000000000+0000008690+Z
316837001316837077-000299     316837006003000395576G/BAG 32x25cm LRG LOVE 0000001000+00001490+00000+0001T   00001490+0000001647          1400 BN1112               1AZ
316837002316837018-000136     316837006001023659026MUG OCC LOVE W/PLUSH   0000001000+00003507+00000+0001T   00003507+0000001647          1400 BN1515               1AZ
316837003316837018-000177     316837006001023797513MUG MINI LOVE ASSTD    0000001000+00000700+00000+0001T   00000700+0000001647          1400 BN1515               1AZ
316837004316837903-000194     316837006009826020616SWT CHOC RP LOLLY 25G  0000001000+00001314+00000+0001T   00001314+0000001647          1400 BN1150               1AZ
316837005316837304-001011     316837006001023806727FLWR ROSE RED W/BEAR   0000001000+00000613+00000+0001T   00000788+0006471647          1400 BN1510               1AZ
316838000316838               316838               170213MC     1400+00000+MC0000016712+0000016712+000000000+000002341+0000019053+0000000000+I40000019053+0000000000+Z
316838001316838369-061024     316838006008766061024SOFT BALLS W/BELL 4PC  0000001000+00010525+00000+0001T   00010525+0000001648          1400 BN1745               1AZ
316838002316838562-088356     316838006001023767219EVA MAT 27cm           0000001000+00006139+00000+0001T   00006139+0000001648          1400 BN1755               1AZ
316838003316838112-116069     316838006009681820277TCS CARRIER BAG JUMBO  0000001000+00000048+00000+0001T   00000048+0000001648          1400 BN1090               1AZ
316839000316839               316839               170213MC     1400+00000+MC0000001753+0000001753+000000000+000000246+0000001990+0000000009+I20000000000+0000001990+Z
316839001316839077-000455     316839006003000285389G/BAG METALLIC LRG SOL 0000001000+00001753+00000+0001T   00001753+0000001649          1400 BN1112               1AZ
316840000316840               316840               170213MC     1400+00000+MC0000006399+0000006399+000000000+000000896+0000007290+0000000005+I20000000000+0000007290+Z
316840001316840077-000303     316840006001023593757GIFT-BAG PAPER MED     0000001000+00001578+00000+0001T   00001578+0000001650          1400 BN1112               1AZ
316840002316840903-000194     316840006009826020616SWT CHOC RP LOLLY 25G  0000001000+00001314+00000+0001T   00001314+0000001650          1400 BN1150               1AZ
316840003316840018-000136     316840006001023659026MUG OCC LOVE W/PLUSH   0000001000+00003507+00000+0001T   00003507+0000001650          1400 BN1515               1AZ
316841000316841               316841               170213MC     1400+00000+MC0000011442+0000011442+000000000+000001605+0000013047+0000000000+I40000013047+0000000000+Z
316841001316841106-001100-B   316841006003000057948FRIDGE BOTTLE ASSORTED 0000003000+00001490+00000+0001T   00001490+0000001652          1400 BN1210               1AZ
316841002316841112-116069     316841006009681820277TCS CARRIER BAG JUMBO  0000001000+00000048+00000+0001T   00000048+0000001652          1400 BN1090               1AZ
316841003316841361-000661     316841006001023747907DOLL SML ASSTD         0000001000+00003069+00000+0001T   00003069+0000001652          1400 BN1725               1AZ
316841004316841264-000921     316841000090159150442MAISTO CAR 3" FRESH    0000001000+00001753+00000+0001T   00001753+0000001652          1400 BN1710               1AZ
316841005316841304-001204     316841006001023737984FLOWER OCC. TEDDY/ROSES0000001000+00001402+00000+0001T   00001490+0006471652          1400 BN1510               1AZ
316841006316841903-000159     316841006003000417629SWT LB SMALL DUMMIE    0000002000+00000350+00000+0001T   00000350+0000001652          1400 BN1150               1AZ
316842000316842               316842               170213MC     1400+00000+MC0000001490+0000001490+000000000+000000209+0000001690+0000000009+I20000000000+0000001690+Z
316842001316842033-005919     316842006003000154883SEWING THREAD 24cm ASST0000001000+00001490+00000+0001T   00001490+0000001652          1400 BN1200               1AZ
316843000316843               316843               170213MC     1400+00000+MC0000008805+0000008805+000000000+000001233+0000010038+0000000000+I40000010038+0000000000+Z
316843001316843368-000049     316843006003000536955PLUSH BEAR 15cm LOVE   0000002000+00004385+00000+0001T   00004385+0000001656          1400 BN1745               1AZ
316843002316843112-116038     316843006003000534906TCS CARRIER BAG MIDI   0000001000+00000035+00000+0001T   00000035+0000001656          1400 BN1090               1AZ
316844000316844               316844               170213MC     1400+00000+MC0000004385-0000004385-000000000+000000614-0000004999-0000000000+I40000004999-0000000000+Z
316844001316844368-000049     316844006003000536955PLUSH BEAR 15cm LOVE   0000001000-00004385+00000+0001T   00004385+0000001657          1400 BN17451IC            1 Z
316845000316845               316845               170213MC     1400+00000+MC0000004338+0000004338+000000000+000000609+0000004940+0000000007+I20000000000+0000004940+Z
316845001316845566-000068     316845006003000418046POP UP LOVE 2 ASSTD    0000001000+00002192+00000+0001T   00002192+0000001658          1400 BN1130               1AZ
316845002316845565-000043     316845006003000109562NOVELTY BALL FUNNY FACE0000001000+00001753+00000+0001T   00001753+0000001658          1400 BN1745               1AZ
316845003316845903-000183     316845006003000451043SWT LB HEART LOLLY     0000001000+00000393+00000+0001T   00000393+0000001658          1400 BN1150               1AZ
316846000316846               316846               170213MC     1400+00000+MC0000006181+0000006181+000000000+000000867+0000007048+0000000000+I40000007048+0000000000+Z
316846001316846112-116069     316846006009681820277TCS CARRIER BAG JUMBO  0000001000+00000048+00000+0001T   00000048+0000001701          1400 BN1090               1AZ
316846002316846077-000151     316846006008766114676GIFT-WRAP C/PHANE ASSTD0000002000+00000876+00000+0001T   00000876+0000001701          1400 BN1112               1AZ
316846003316846903-000194     316846006009826020616SWT CHOC RP LOLLY 25G  0000002000+00001314+00000+0001T   00001314+0000001701          1400 BN1150               1AZ
316846004316846104-000010     316846006001023507822BASKET 30x23cm RECT.   0000001000+00001753+00000+0001T   00001753+0000001701          1400 BN1210               1AZ
316847000316847               316847               170213MC     1400+00000+MC0000004906+0000004906+000000000+000000689+0000005590+0000000005+I20000000000+0000005590+Z
316847001316847080-000133-A   316847006003000647019MINI VALENTINES CARD   0000002000+00000437+00000+0001T   00000437+0000001702          1400 BN1112               1AZ
316847002316847018-000127     316847006001023380289MUG OCC STRAIGHT LOVE  0000002000+00001578+00000+0001T   00001753+0006471702          1400 BN1515               1AZ
316847003316847306-000021-A   316847006001023891358EARBUDS COTTON 100PCE  0000001000+00000876+00000+0001T   00000876+0000001702          1400 BN1200               1AZ
316848000316848               316848               170213MC     1400+00000+MC0000005170+0000005170+000000000+000000726+0000005890+0000000006+I20000000000+0000005890+Z
316848001316848306-001714     316848006003000061341FACIAL MAKE-UP WIPES 480000001000+00002630+00000+0001T   00002630+0000001703          1400 BN1200               1AZ
316848002316848080-000133-A   316848006003000647019MINI VALENTINES CARD   0000001000+00000437+00000+0001T   00000437+0000001703          1400 BN1112               1AZ
316848003316848306-000021     316848006001023169433EARBUDS 100PCE IN BAG  0000001000+00000613+00000+0001T   00000613+0000001703          1400 BN1200               1AZ
316848004316848077-000299     316848006003000395576G/BAG 32x25cm LRG LOVE 0000001000+00001490+00000+0001T   00001490+0000001703          1400 BN1112               1AZ
316849000316849               316849               170213MC     1400+00000+MC0000001490+0000001490+000000000+000000209+0000001690+0000000009+I20000000000+0000001690+Z
316849001316849077-000299     316849006003000395576G/BAG 32x25cm LRG LOVE 0000001000+00001490+00000+0001T   00001490+0000001703          1400 BN1112               1AZ
316850000316850               316850               170213MC     1400+00000+MC0000000876+0000000876+000000000+000000123+0000000990+0000000009+I20000000000+0000000990+Z
316850001316850077-000302     316850008010410010195GIFT-BAG 18X23CM E/D   0000001000+00000876+00000+0001T   00000876+0000001710          1400 BN1112               1AZ
316851000316851               316851               170213MC     1400+00000+MC0000001578+0000001578+000000000+000000221+0000001790+0000000009+I20000000000+0000001790+Z
316851001316851077-000315     316851006003000181186GIFT-BAG 20x28cm MATT  0000001000+00001578+00000+0001T   00001578+0000001711          1400 BN1112               1AZ
316852000316852               316852               170213MC     1400+00000+MC0000000876+0000000876+000000000+000000123+0000000999+0000000000+I40000000999+0000000000+Z
316852001316852077-000314     316852006003000181148GIFT-BAG 11X14CM MATT  0000001000+00000876+00000+0001T   00000876+0000001715          1400 BN1112               1AZ
316853000316853               316853               170213MC     1400+00000+MC0000001314+0000001314+000000000+000000184+0000001490+0000000008+I20000000000+0000001490+Z
316853001316853007-000044     316853006009635831489DISPLAY-BOOK A4 10-PAGE0000001000+00001314+00000+0001T   00001314+0000001718          1400 BN1130               1AZ
316854000316854               316854               170213MC     1400+00000+MC0000003507+0000003507+000000000+000000491+0000003990+0000000008+I20000000000+0000003990+Z
316854001316854018-000136     316854006001023659026MUG OCC LOVE W/PLUSH   0000001000+00003507+00000+0001T   00003507+0000001720          1400 BN1515               1AZ
316855000316855               316855               170213MC     1400+00000+MC0000002192+0000002192+000000000+000000307+0000002490+0000000009+I20000000000+0000002490+Z
316855001316855033-000780     316855006001023752611COSMETIC-BRUSH-SET 7PCE0000001000+00002192+00000+0001T   00002192+0000001720          1400 BN1200               1AZ
316856000316856               316856               170213MC     1400+00000+MC0000003507+0000003507+000000000+000000491+0000003990+0000000008+I20000000000+0000003990+Z
316856001316856018-005009     316856006001023725608MUG W/PLUSH-BEAR LOVE  0000001000+00003507+00000+0001T   00003507+0000001720          1400 BN1515               1AZ
316857000316857               316857               170213MC     1400+00000+MC0000003069+0000003069+000000000+000000430+0000003490+0000000009+I20000000000+0000003490+Z
316857001316857024-000212     316857006001023858030COOKIE-CUTTERS PL SMALL0000001000+00003069+00000+0001T   00003069+0000001722          1400 BN1300               1AZ
316858000316858               316858               170213MC     1400+00000+MC0000024426+0000024426+000000000+000003422+0000027848+0000000000+I40000027848+0000000000+Z
316858001316858028-002101     316858006002580009507CHAIR JUNIOR    ASSTD  0000001000+00003507+00000+0001T   00003507+0000001725          1400 BN1305               1AZ
316858002316858159-003625     316858006001023902061TOILET-BRUSH W/STD 40cm0000001000+00005262+00000+0001T   00005262+0000001725          1400 BN1200               1AZ
316858003316858056-065302     316858006001023759566CAR SUN-SHIELD ALM-FOIL0000001000+00002630+00000+0001T   00002630+0000001725          1400 BN1860               1AZ
316858004316858018-000127     316858006001023380289MUG OCC STRAIGHT LOVE  0000001000+00001578+00000+0001T   00001753+0006471725          1400 BN1515               1AZ
316858005316858030-004015     316858006003000467624PLAQUE WDN SIGN 30X20CM0000001000+00009648+00000+0001T   00009648+0000001725          1400 BN1505               1AZ
316858006316858077-000309     316858006001023608604GIFT-BAG 25X32CM GLOSS 0000001000+00001753+00000+0001T   00001753+0000001725          1400 BN1112               1AZ
316858007316858112-116069     316858006009681820277TCS CARRIER BAG JUMBO  0000001000+00000048+00000+0001T   00000048+0000001725          1400 BN1090               1AZ
316859000316859               316859               170213MC     1400+00000+MC0000008152+0000008152+000000000+000001143+0000009290+0000000005+I20000000000+0000009290+Z
316859001316859077-000387     316859006003000525751G/BAG 25X32CM B'DAY DIY0000001000+00001578+00000+0001T   00001578+0000001726          1400 BN1112               1AZ
316859002316859080-000133-A   316859006003000647019MINI VALENTINES CARD   0000001000+00000437+00000+0001T   00000437+0000001726          1400 BN1112               1AZ
316859003316859560-000115     316859006003000593187ANIMALS BOBBLE HEAD    0000001000+00003507+00000+0001T   00003507+0000001726          1400 BN1745               1AZ
316859004316859018-000135     316859006003000284474MUG OCC. DAD TUBBY     0000001000+00002630+00000+0001T   00002630+0000001726          1400 BN1515               1AZ
316860000316860               316860               170213MC     1400+00000+MC0000000613+0000000613+000000000+000000086+0000000690+0000000009+I20000000000+0000000690+Z
316860001316860304-001011     316860006001023806727FLWR ROSE RED W/BEAR   0000001000+00000613+00000+0001T   00000788+0006471727          1400 BN1510               1AZ
316861000316861               316861               170213MC     1400+00000+MC0000000613+0000000613+000000000+000000086+0000000690+0000000009+I20000000000+0000000690+Z
316861001316861304-001011     316861006001023806727FLWR ROSE RED W/BEAR   0000001000+00000613+00000+0001T   00000788+0006471727          1400 BN1510               1AZ
316862000316862               316862               170213MC     1400+00000+MC0000003156+0000003156+000000000+000000442+0000003598+0000000000+I40000003598+0000000000+Z
316862001316862077-000303     316862006001023593757GIFT-BAG PAPER MED     0000002000+00001578+00000+0001T   00001578+0000001729          1400 BN1112               1AZ
316863000316863               316863               170213MC     1400+00000+MC0000002191+0000002191+000000000+000000307+0000002490+0000000008+I20000000000+0000002490+Z
316863001316863018-000127     316863006001023380289MUG OCC STRAIGHT LOVE  0000001000+00001578+00000+0001T   00001753+0006471730          1400 BN1515               1AZ
316863002316863077-000317     316863006001023609748GIFT-BAG 11X14CM E/D AN0000001000+00000613+00000+0001T   00000613+0000001730          1400 BN1112               1AZ
316864000316864               316864               170213MC     1400+00000+MC0000000648+0000000648+000000000+000000091+0000000730+0000000009+I20000000000+0000000730+Z
316864001316864304-001011     316864006001023806727FLWR ROSE RED W/BEAR   0000001000+00000613+00000+0001T   00000788+0006471731          1400 BN1510               1AZ
316864002316864112-116038     316864006003000534906TCS CARRIER BAG MIDI   0000001000+00000035+00000+0001T   00000035+0000001731          1400 BN1090               1AZ
316865000316865               316865               170213MC     1400+00000+MC0000007892+0000007892+000000000+000001106+0000008998+0000000000+I40000008998+0000000000+Z
316865001316865562-006275     316865006001023836182EDU BOARD W/MARKER ASST0000001000+00007016+00000+0001T   00007016+0000001733          1400 BN1755               1AZ
316865002316865903-003080     316865005907029004673SWT SNACK STIX CHOC 50g0000001000+00000876+00000+0001T   00000876+0000001733          1400 BN1150               1AZ
316866000316866               316866               170213MC     1400+00000+MC0000005998+0000005998+000000000+000000840+0000006838+0000000000+I40000006838+0000000000+Z
316866001316866018-000127     316866006001023380289MUG OCC STRAIGHT LOVE  0000001000+00001578+00000+0001T   00001753+0006471734          1400 BN1515               1AZ
316866002316866031-000001-A   316866006003000246908P/FRAME GLS LOVE 9X13cm0000001000+00004385+00000+0001T   00004385+0000001734          1400 BN1510               1AZ
316866003316866112-116038     316866006003000534906TCS CARRIER BAG MIDI   0000001000+00000035+00000+0001T   00000035+0000001734          1400 BN1090               1AZ
B31680800                                          170213MC006-001000     15321195SLAVE 1     BN12IC0000004000+0000003000+0000000000000+
M17021391                              CASH        MCSLAVE 1                       Z-REPORT No.   538TOTAL (Sales - Refunds)           7902.69       CASH TO BE BANKED                 5146.90       DEBIT CARDS                          0.00       CREDIT CARDS                      2755.79       Z-READING                         7902.69       AIRTIME DEBIT CARD SALES             0.00       AIRTIME CARD SALES                   0.00       OVERS/UNDERS                         0.00       AIRTIME CASH SALES                   0.00       GIFT CARDS                           0.00       GIFT CARD CASH SALES                 0.00       T O T A L  CASH PAYOUTS              0.00                                                                                                                                                                                                                                                                                                                                                      Z
M17021392                              CASH        MCABSENT                                                                                                                                                                                          ANNUAL LEAVE                                                                                                                                                                                    DAY OFF                                                                                                                                                                                         COMMENTS                                                                                                                                                                                                                                                                                                                                                                                       Z
Y17021300                                          MC00000000698014+000113
ZMC17021320043 SLAVE 1      SALES DATA                     NEXT INVOICE NO.  316867 0538
X MC Slave 1 First invoice 316750 170213 Last invoice 316866 170213 Next invoice 316867 Total number of records 000000407 clbackup completed 20:04:19
