322274000322274               322274               170213MC     1400+00000+MC0000001752+0000001752+000000000+000000246+0000001990+0000000008+I20000000000+0000001990+Z
322274001322274036-000011     322274006003000675890LINT REMOVER REFILL    0000002000+00000876+00000+0001T   00000876+0000000834          1400 JY3212               2AZ
322275000322275               322275               170213MC     1400+00000+MC0000010553+0000010553+000000000+000001481+0000012034+0000000000+I40000012034+0000000000+Z
322275001322275016-006515     322275006003000295555S/JAR GLS EMBOSS. 250ML0000006000+00001753+00000+0001T   00001753+0000000910          1400 JY3300               2AZ
322275002322275112-116038     322275006009681820246TCS CARRIER BAG MIDI   0000001000+00000035+00000+0001T   00000035+0000000910          1400 JY3090               2AZ
322276000322276               322276               170213MC     1400+00000+MC0000005295+0000005295+000000000+000000743+0000006030+0000000008+I20000000000+0000006030+Z
322276001322276056-065303     322276006001023821041SUN-SHIELD 2PCE ANIMAL 0000002000+00002630+00000+0001T   00002630+0000000913          1400 JY3860               2AZ
322276002322276112-116038     322276006009681820246TCS CARRIER BAG MIDI   0000001000+00000035+00000+0001T   00000035+0000000913          1400 JY3090               2AZ
322277000322277               322277               170213MC     1400+00000+MC0000002630+0000002630+000000000+000000369+0000002990+0000000009+I20000000000+0000002990+Z
322277001322277033-000008     322277006003000226818PILL REMINDER 28-COMPAR0000001000+00002630+00000+0001T   00002630+0000000914          1400 JY3200               2AZ
322278000322278               322278               170213MC     1400+00000+MC0000001753+0000001753+000000000+000000246+0000001990+0000000009+I20000000000+0000001990+Z
322278001322278051-002402     322278006001023518347TRIGGER-SPRAYER  500ml 0000001000+00001753+00000+0001T   00001753+0000000920          1400 JY3820               2AZ
322279000322279               322279               170213MC     1400+00000+MC0000003507+0000003507+000000000+000000491+0000003990+0000000008+I20000000000+0000003990+Z
322279001322279486-002083     322279006001023740403A/CLOCK QTZ PL SQR     0000001000+00003507+00000+0001T   00003507+0000000923          1400 JY3510               2AZ
322280000322280               322280               170213MC     1400+00000+MC0000001753+0000001753+000000000+000000246+0000001990+0000000009+I20000000000+0000001990+Z
322280001322280051-002402     322280006001023518347TRIGGER-SPRAYER  500ml 0000001000+00001753+00000+0001T   00001753+0000000923          1400 JY3820               2AZ
322281000322281               322281               170213MC     1400+00000+MC0000004295+0000004295+000000000+000000602+0000004890+0000000007+I20000000000+0000004890+Z
322281001322281018-000136     322281006001023659026MUG OCC LOVE W/PLUSH   0000001000+00003507+00000+0001T   00003507+0000000926          1400 JY3515               2AZ
322281002322281903-000200     322281006009826020234SWT CHOC RP CHOCO 23G  0000001000+00000788+00000+0001T   00000788+0000000926          1400 JY3150               2AZ
322282000322282               322282               170213MC     1400+00000+MC0000004857+0000004857+000000000+000000681+0000005530+0000000008+I20000000000+0000005530+Z
322282001322282039-000332     322282006001023900470CANDLES 8PCE+NUMBERS   0000001000+00002630+00000+0001T   00002630+0000000927          1400 JY3510               2AZ
322282002322282006-000090     322282006001023538505BANNER HAPPY-BIRTHDAY  0000001000+00002192+00000+0001T   00002192+0000000927          1400 JY3131               2AZ
322282003322282112-116038     322282006009681820246TCS CARRIER BAG MIDI   0000001000+00000035+00000+0001T   00000035+0000000927          1400 JY3090               2AZ
322283000322283               322283               170213MC     1400+00000+MC0000002630+0000002630+000000000+000000369+0000002990+0000000009+I20000000000+0000002990+Z
322283001322283108-003023     322283006003000665471TUMBLER W/STRAW 550ml  0000001000+00002630+00000+0001T   00002630+0000000950          1400 JY3210               2AZ
322284000322284               322284               170213MC     1400+00000+MC0000003507+0000003507+000000000+000000491+0000003998+0000000000+I40000003998+0000000000+Z
322284001322284106-001110     322284006001023857880SPORTS-BOTTLES SET-OF-20000001000+00003507+00000+0001T   00003507+0000001007          1400 JY3210               2AZ
322285000322285               322285               170213MC     1400+00000+MC0000001752+0000001752+000000000+000000246+0000001990+0000000008+I20000000000+0000001990+Z
322285001322285567-014132     322285006003000560028BOOK COLOURING 24 PAGE 0000002000+00000876+00000+0001T   00000876+0000001009          1400 JY3757               2AZ
322286000322286               322286               170213MC     1400+00000+MC0000001314+0000001314+000000000+000000184+0000001490+0000000008+I20000000000+0000001490+Z
322286001322286055-009054     322286006001023471994CUP-HOOKS BRS 30mm H&H 0000001000+00001314+00000+0001T   00001314+0000001016          1400 JY3810               2AZ
322287000322287               322287               170213MC     1400+00000+MC0000007223+0000007223+000000000+000001013+0000008236+0000000000+I40000008236+0000000000+Z
322287001322287301-085000     322287006003000674299 ORN OCC. LOVE HEARTS  0000001000+00002192+00000+0001T   00002192+0000001027          1400 JY3505               2AZ
322287002322287088-000084     322287006001023798060P/POURRI 120G ASSTD    0000001000+00001753+00000+0001T   00001753+0000001027          1400 JY3212               2AZ
322287003322287039-000108     322287006001023524034TEA-LITE CANDLES 8PCE  0000001000+00001490+00000+0001T   00001490+0000001027          1400 JY3510               2AZ
322287004322287039-001023     322287006003000466337CANDLE TEA-LITE METALIC0000001000+00001753+00000+0001T   00001753+0000001027          1400 JY3510               2AZ
322287005322287112-116038     322287006009681820246TCS CARRIER BAG MIDI   0000001000+00000035+00000+0001T   00000035+0000001027          1400 JY3090               2AZ
322288000322288               322288               170213MC     1400+00000+MC0000015570+0000015570+000000000+000002182+0000017752+0000000000+I40000017752+0000000000+Z
322288001322288368-000637     322288006001023874092PLUSH BEAR SLEEPING LOV0000001000+00011402+00000+0001T   00012279+0006471031          1400 JY3745               2AZ
322288002322288077-000270     322288006003000395453GIFT-BAG PPR JMB 33X45 0000001000+00002630+00000+0001T   00002630+0000001031          1400 JY3112               2AZ
322288003322288077-000305     322288006003000395422GIFT-BAG WINE 10X35CM  0000001000+00001490+00000+0001T   00001490+0000001031          1400 JY3112               2AZ
322288004322288112-116069     322288006009681820277TCS CARRIER BAG JUMBO  0000001000+00000048+00000+0001T   00000048+0000001031          1400 JY3090               2AZ
322289000322289               322289               170213MC     1400+00000+MC0000013886+0000013886+000000000+000001947+0000015833+0000000000+I40000015833+0000000000+Z
322289001322289072-000329     322289006001023904706PET CAT COLLAR LINING  0000001000+00002630+00000+0001T   00002630+0000001033          1400 JY3870               2AZ
322289002322289072-000326     322289006003000451722PET CAT COLLAR 31x1cm  0000001000+00002630+00000+0001T   00002630+0000001033          1400 JY3870               2AZ
322289003322289567-075470     322289009780007795352BK NOVEL CATEGORY B    0000001000+00006139+00000+0001T   00006139+0000001033          1400 JY3757               2AZ
322289004322289083-000055     322289006003000003853LIGHTER ELCTRNC REFILBL0000004000+00000613+00000+0001T   00000613+0000001033          1400 JY3315               2AZ
322289005322289112-116038     322289006009681820246TCS CARRIER BAG MIDI   0000001000+00000035+00000+0001T   00000035+0000001033          1400 JY3090               2AZ
322290000322290               322290               170213MC     1400+00000+MC0000002240+0000002240+000000000+000000314+0000002554+0000000000+I40000002554+0000000000+Z
322290001322290080-000127     322290006003000424351VALENTINES DAY 36x24CM 0000001000+00002192+00000+0001T   00002192+0000001040          1400 JY3112               2AZ
322290002322290112-116069     322290006009681820277TCS CARRIER BAG JUMBO  0000001000+00000048+00000+0001T   00000048+0000001040          1400 JY3090               2AZ
322291000322291               322291               170213MC     1400+00000+MC0000010571+0000010571+000000000+000001481+0000012050+0000000002+I20000000000+0000012050+Z
322291001322291112-116069     322291006009681820277TCS CARRIER BAG JUMBO  0000001000+00000048+00000+0001T   00000048+0000001044          1400 JY3090               2AZ
322291002322291016-006497     322291006003000120055S/JAR-SET 4PCE MINI    0000002000+00004385+00000+0001T   00004385+0000001044          1400 JY3300               2AZ
322291003322291012-000001     322291006003000331048MICRO PLATE-COVER 26X6 0000001000+00001753+00000+0001T   00002192+0008191044          1400 JY3300               2AZ
322292000322292               322292               170213MC     1400+00000+MC0000000436+0000000436+000000000+000000062+0000000490+0000000008+I20000000000+0000000490+Z
322292001322292203-005501     322292006003000381821DRINKING HELMET 4 2 CAN0000001000-00008771+00000+0001T   00010525+0008191053          1400 JY33001IC            2 Z
322292002322292264-000925-400 322292004893993311002BURAGO 1:43 RACE&PLAY  0000001000+00007893+00000+0001T   00007893+0000001053          1400 JY3710               2AZ
322292003322292046-000012     322292006904708013062BATTERIES AA  CARD-OF-40000001000+00001314+00000+0001T   00001314+0000001053          1400 JY3312               2AZ
322293000322293               322293               170213MC     1400+00000+MC0000001753+0000001753+000000000+000000246+0000001990+0000000009+I20000000000+0000001990+Z
322293001322293046-002032-PK2 322293004897006175063BATTERIES CR-2032  2PCE0000001000+00001753+00000+0001T   00001753+0000001055          1400 JY3312               2AZ
322294000322294               322294               170213MC     1400+00000+MC0000003069+0000003069+000000000+000000430+0000003490+0000000009+I20000000000+0000003490+Z
322294001322294030-000030-A   322294006003000249305PLAQUE GLASS LOVE      0000001000+00003069+00000+0001T   00003069+0000001055          1400 JY3505               2AZ
322295000322295               322295               170213MC     1400+00000+MC0000002192+0000002192+000000000+000000307+0000002490+0000000009+I20000000000+0000002490+Z
322295001322295159-000887     322295006001023730817HOOKS PL SUCTION 9PCE  0000001000+00002192+00000+0001T   00002192+0000001058          1400 JY3200               2AZ
322296000322296               322296               170213MC     1400+00000+MC0000002630+0000002630+000000000+000000369+0000002999+0000000000+I40000002999+0000000000+Z
322296001322296077-000456     322296006003000285549G/BAG METALLIC JMB EMB 0000001000+00002630+00000+0001T   00002630+0000001100          1400 JY3112               2AZ
322297000322297               322297               170213MC     1400+00000+MC0000004418+0000004418+000000000+000000620+0000005030+0000000008+I20000000000+0000005030+Z
322297001322297031-005821     322297006001023667786P/FRAME-GLS CLIP 21X30 0000001000+00002630+00000+0001T   00002630+0000001107          1400 JY3510               2AZ
322297002322297077-000454     322297006003000285266G/BAG METALLIC LRG EMB 0000001000+00001753+00000+0001T   00001753+0000001107          1400 JY3112               2AZ
322297003322297112-116038     322297006009681820246TCS CARRIER BAG MIDI   0000001000+00000035+00000+0001T   00000035+0000001107          1400 JY3090               2AZ
322298000322298               322298               170213MC     1400+00000+MC0000005294+0000005294+000000000+000000743+0000006037+0000000000+I40000006037+0000000000+Z
322298001322298040-000923     322298006001023587831CANDLE-HOLDER GLS 13.5 0000002000+00001753+00000+0001T   00001753+0000001111          1400 JY3510               2AZ
322298002322298040-000109-B   322298006001023918512C/HOLDER CERAMIC FLOWER0000001000+00001753+00000+0001T   00002630+0008171111          1400 JY3510               2AZ
322298003322298112-116038     322298006009681820246TCS CARRIER BAG MIDI   0000001000+00000035+00000+0001T   00000035+0000001111          1400 JY3090               2AZ
322299000322299               322299               170213MC     1400+00000+MC0000006252+0000006252+000000000+000000880+0000007130+0000000002+I20000000000+0000007130+Z
322299001322299077-000011-D   322299006001023808554TISSUE-WRAP WHITE 10PCE0000001000+00000876+00000+0001T   00000876+0000001128          1400 JY3112               2AZ
322299002322299077-000303     322299006001023593757GIFT-BAG PAPER MED     0000002000+00001578+00000+0001T   00001578+0000001128          1400 JY3112               2AZ
322299003322299112-116038     322299006009681820246TCS CARRIER BAG MIDI   0000001000+00000035+00000+0001T   00000035+0000001128          1400 JY3090               2AZ
322299004322299080-000133-A   322299006003000647019MINI VALENTINES CARD   0000005000+00000437+00000+0001T   00000437+0000001128          1400 JY3112               2AZ
322300000322300               322300               170213MC     1400+00000+MC0000005295+0000005295+000000000+000000743+0000006038+0000000000+I40000006038+0000000000+Z
322300001322300027-009005     322300006001023713124D/BRUSH W/TOP BRISTLES 0000001000+00002630+00000+0001T   00002630+0000001131          1400 JY3212               2AZ
322300002322300076-000750     322300006003000423347CORD STRETCH 2-CLAW    0000001000+00002630+00000+0001T   00002630+0000001131          1400 JY3810               2AZ
322300003322300112-116038     322300006009681820246TCS CARRIER BAG MIDI   0000001000+00000035+00000+0001T   00000035+0000001131          1400 JY3090               2AZ
322301000322301               322301               170213MC     1400+00000+MC0000013013+0000013013+000000000+000001823+0000014836+0000000000+I40000014836+0000000000+Z
322301001322301077-000303     322301006001023593757GIFT-BAG PAPER MED     0000001000+00001578+00000+0001T   00001578+0000001133          1400 JY3112               2AZ
322301002322301301-085007     322301006003000673698ORN OCC. LOVE S/PLAQUE 0000001000+00007893+00000+0001T   00007893+0000001133          1400 JY3505               2AZ
322301003322301018-005009     322301006001023725608MUG W/PLUSH-BEAR LOVE  0000001000+00003507+00000+0001T   00003507+0000001133          1400 JY3515               2AZ
322301004322301112-116038     322301006009681820246TCS CARRIER BAG MIDI   0000001000+00000035+00000+0001T   00000035+0000001133          1400 JY3090               2AZ
322302000322302               322302               170213MC     1400+00000+MC0000004420+0000004420+000000000+000000619+0000005030+0000000009+I20000000000+0000005030+Z
322302001322302133-093009     322302006003000106646CUSHION SILK 20x20cm   0000001000+00004385+00000+0001T   00004385+0000001143          1400 JY3212               2AZ
322302002322302112-116038     322302006009681820246TCS CARRIER BAG MIDI   0000001000+00000035+00000+0001T   00000035+0000001143          1400 JY3090               2AZ
322303000322303               322303               170213MC     1400+00000+MC0000005212+0000005212+000000000+000000733+0000005940+0000000005+I20000000000+0000005940+Z
322303001322303903-003075     322303003800065783125SWT CHOC FAFL WAFER 52g0000001000+00000876+00000+0001T   00000876+0000001147          1400 JY3150               2AZ
322303002322303903-000521     322303006001704009652SWT GUMMY SOFT GUMS    0000001000+00000876+00000+0001T   00000876+0000001147          1400 JY3150               2AZ
322303003322303903-000012     322303006002099007308SWT MALLOW S/BERRY     0000001000+00000437+00000+0001T   00000437+0000001147          1400 JY3150               2AZ
322303004322303903-000591     322303006003000563616SWEET ANIMAL 24cm      0000001000+00002630+00000+0001T   00002630+0000001147          1400 JY3150               2AZ
322303005322303903-000183     322303006003000451043SWT LB HEART LOLLY     0000001000+00000393+00000+0001T   00000393+0000001147          1400 JY3150               2AZ
322304000322304               322304               170213MC     1400+00000+MC0000000437+0000000437+000000000+000000062+0000000490+0000000009+I20000000000+0000000490+Z
322304001322304080-000133-A   322304006003000647019MINI VALENTINES CARD   0000001000+00000437+00000+0001T   00000437+0000001148          1400 JY3112               2AZ
322305000322305               322305               170213MC     1400+00000+MC0000004647+0000004647+000000000+000000651+0000005290+0000000008+I20000000000+0000005290+Z
322305001322305089-060027     322305006003000245871KEY-CHAIN HEART 6X6cm  0000001000+00003069+00000+0001T   00003069+0000001149          1400 JY3205               2AZ
322305002322305077-000303     322305006001023593757GIFT-BAG PAPER MED     0000001000+00001578+00000+0001T   00001578+0000001149          1400 JY3112               2AZ
322306000322306               322306               170213MC     1400+00000+MC0000002628+0000002628+000000000+000000368+0000002990+0000000006+I20000000000+0000002990+Z
322306001322306903-000194     322306006009826020616SWT CHOC RP LOLLY 25G  0000002000+00001314+00000+0001T   00001314+0000001150          1400 JY3150               2AZ
322307000322307               322307               170213MC     1400+00000+MC0000002630+0000002630+000000000+000000369+0000002999+0000000000+I40000002999+0000000000+Z
322307001322307140-006008     322307006001023803214FLY-SWATTERS   SET-OF-40000001000+00002630+00000+0001T   00002630+0000001151          1400 JY3830               2AZ
322308000322308               322308               170213MC     1400+00000+MC0000001753+0000001753+000000000+000000246+0000001990+0000000009+I20000000000+0000001990+Z
322308001322308369-001138     322308006003000555185VINYL 8.5cm THEMED DUCK0000001000+00001753+00000+0001T   00002630+0008141152          1400 JY3745               2AZ
322309000322309               322309               170213MC     1400+00000+MC0000006137+0000006137+000000000+000000860+0000006990+0000000007+I20000000000+0000006990+Z
322309001322309082-096892     322309006001492968926SUNGLASS KIDS OVAL     0000001000+00002630+00000+0001T   00002630+0000001152          1400 JY3160               2AZ
322309002322309079-104303     322309006003000186259SKETCH PAD A3   48 PAGE0000001000+00003507+00000+0001T   00003507+0000001152          1400 JY3130               2AZ
322310000322310               322310               170213MC     1400+00000+MC0000000700+0000000700+000000000+000000098+0000000790+0000000008+I20000000000+0000000790+Z
322310001322310018-000177     322310006001023797513MUG MINI LOVE ASSTD    0000001000+00000700+00000+0001T   00000700+0000001156          1400 JY3515               2AZ
322311000322311               322311               170213MC     1400+00000+MC0000002192+0000002192+000000000+000000307+0000002490+0000000009+I20000000000+0000002490+Z
322311001322311077-000926     322311006003000414178G/WRAP 700mmx2m LOVE   0000001000+00002192+00000+0001T   00002192+0000001201          1400 JY3112               2AZ
322312000322312               322312               170213MC     1400+00000+MC0000001578+0000001578+000000000+000000221+0000001790+0000000009+I20000000000+0000001790+Z
322312001322312077-000303     322312006001023593757GIFT-BAG PAPER MED     0000001000+00001578+00000+0001T   00001578+0000001224          1400 JY3112               2AZ
322313000322313               322313               170213MC     1400+00000+MC0000002014+0000002014+000000000+000000282+0000002290+0000000006+I20000000000+0000002290+Z
322313001322313046-000012     322313006904708013062BATTERIES AA  CARD-OF-40000001000+00001314+00000+0001T   00001314+0000001233          1400 JY3312               2AZ
322313002322313564-000012     322313006001023130075BUBBLE BOTTLE MAGIC    0000001000+00000700+00000+0001T   00000700+0000001233          1400 JY3131               2AZ
322314000322314               322314               170213MC     1400+00000+MC0000006698+0000006698+000000000+000000938+0000007630+0000000006+I20000000000+0000007630+Z
322314001322314018-000177     322314006001023797513MUG MINI LOVE ASSTD    0000001000+00000700+00000+0001T   00000700+0000001253          1400 JY3515               2AZ
322314002322314001-000175     322314006001023788108B/MUG GLS LOVE 380ML   0000001000+00004385+00000+0001T   00004385+0000001253          1400 JY3515               2AZ
322314003322314077-000303     322314006001023593757GIFT-BAG PAPER MED     0000001000+00001578+00000+0001T   00001578+0000001253          1400 JY3112               2AZ
322314004322314112-116038     322314006009681820246TCS CARRIER BAG MIDI   0000001000+00000035+00000+0001T   00000035+0000001253          1400 JY3090               2AZ
322315000322315               322315               170213MC     1400+00000+MC0000006219+0000006219+000000000+000000872+0000007090+0000000001+I20000000000+0000007090+Z
322315002322315006-000166-H   322315006003000608096BALLOONS HELIUM 6PC WHT0000001000+00001314+00000+0001T   00001314+0000001308          1400 JY3131               2AZ
322315003322315077-000245     322315006001023759214GIFT-RIBBON METALLICx2 0000001000+00001227+00000+0001T   00001227+0000001308          1400 JY3112               2AZ
322315004322315006-001000     322315006003000093779HELIUM BALLOON FILL    0000006000+00000613+00000+0001T   00000613+0000001308          1400 JY3131               2AZ
322316000322316               322316               170213MC     1400+00000+MC0000044338+0000044338+000000000+000006219+0000050550+0000000007+I20000000000+0000050550+Z
322316001322316903-004950     322316006002580020304SWT APRICOT SURPRISE   0000001000+00001314+00000+0001T   00001314+0000001314          1400 JY3150               2AZ
322316002322316903-000095     322316006001704011495SWT SPECKLED-EGGS 100G 0000002000+00002104+00000+0001T   00002104+0000001314          1400 JY3150               2AZ
322316003322316903-000843     322316008693029031067SWT GUMMY JELAXY 80G   0000002000+00000964+00000+0001T   00000964+0000001314          1400 JY3150               2AZ
322316004322316903-000095     322316006001704011495SWT SPECKLED-EGGS 100G 0000003000+00002104+00000+0001T   00002104+0000001314          1400 JY3150               2AZ
322316005322316903-004952     322316006002580020052SWT FREAKY FACES 100G  0000001000+00001314+00000+0001T   00001314+0000001314          1400 JY3150               2AZ
322316006322316903-000138     322316006002099004314SWT GS WINE GUMS 60G   0000002000+00000788+00000+0001T   00000788+0000001314          1400 JY3150               2AZ
322316007322316903-000295     322316006001704002899SWT MS FRUITY RASCALS  0000006000+00000876+00000+0001T   00000876+0000001314          1400 JY3150               2AZ
322316008322316903-000844     322316005010478432567SWT CANDY DL LUV HEARTS0000005000+00001314+00000+0001T   00001314+0000001314          1400 JY3150               2AZ
322316009322316016-006509     322316006003000567355S/JAR GLS MINI LABEL   0000009000+00001753+00000+0001T   00002192+0008191314          1400 JY3300               2AZ
322316010322316112-116069     322316006009681820277TCS CARRIER BAG JUMBO  0000001000+00000048+00000+0001T   00000048+0000001314          1400 JY3090               2AZ
322316011322316112-116038     322316006009681820246TCS CARRIER BAG MIDI   0000001000+00000035+00000+0001T   00000035+0000001314          1400 JY3090               2AZ
322317000322317               322317               170213MC     1400+00000+MC0000011378+0000011378+000000000+000001604+0000012980+0000000002+I20000000000+0000012980+Z
322317001322317077-000151     322317006008766114676GIFT-WRAP C/PHANE ASSTD0000008000+00000876+00000+0001T   00000876+0000001316          1400 JY3112               2AZ
322317002322317080-000133-A   322317006003000647019MINI VALENTINES CARD   0000010000+00000437+00000+0001T   00000437+0000001316          1400 JY3112               2AZ
322318000322318               322318               170213MC     1400+00000+MC0000000306+0000000306+000000000+000000043+0000000340+0000000009+I20000000000+0000000340+Z
322318001322318306-000020     322318006001023743145POCKET-TISSUES 10PCE   0000001000+00000306+00000+0001T   00000306+0000001317          1400 JY3200               2AZ
322319000322319               322319               170213MC     1400+00000+MC0000001753+0000001753+000000000+000000246+0000001990+0000000009+I20000000000+0000001990+Z
322319001322319078-000480     322319006008741002332BOSTIK SHOE-REPAIR 25ml0000001000+00001753+00000+0001T   00001753+0000001317          1400 JY3810               2AZ
322320000322320               322320               170213MC     1400+00000+MC0000008805+0000008805+000000000+000001233+0000010030+0000000008+I20000000000+0000010030+Z
322320001322320368-000049     322320006003000536955PLUSH BEAR 15cm LOVE   0000002000+00004385+00000+0001T   00004385+0000001318          1400 JY3745               2AZ
322320002322320112-116038     322320006009681820246TCS CARRIER BAG MIDI   0000001000+00000035+00000+0001T   00000035+0000001318          1400 JY3090               2AZ
322321000322321               322321               170213MC     1400+00000+MC0000012136+0000012136+000000000+000001700+0000013830+0000000006+I20000000000+0000013830+Z
322321001322321018-030000     322321006003000421060MUG OCCASIONS LOVE 2PCE0000001000+00004385+00000+0001T   00004385+0000001325          1400 JY3515               2AZ
322321002322321368-000049     322321006003000536955PLUSH BEAR 15cm LOVE   0000001000+00004385+00000+0001T   00004385+0000001325          1400 JY3745               2AZ
322321003322321078-000480     322321006008741002332BOSTIK SHOE-REPAIR 25ml0000001000+00001753+00000+0001T   00001753+0000001325          1400 JY3810               2AZ
322321004322321077-000303     322321006001023593757GIFT-BAG PAPER MED     0000001000+00001578+00000+0001T   00001578+0000001325          1400 JY3112               2AZ
322321005322321112-116038     322321006009681820246TCS CARRIER BAG MIDI   0000001000+00000035+00000+0001T   00000035+0000001325          1400 JY3090               2AZ
322322000322322               322322               170213MC     1400+00000+MC0000002192+0000002192+000000000+000000307+0000002490+0000000009+I20000000000+0000002490+Z
322322001322322301-085000     322322006003000674299 ORN OCC. LOVE HEARTS  0000001000+00002192+00000+0001T   00002192+0000001330          1400 JY3505               2AZ
322323000322323               322323               170213MC     1400+00000+MC0000004339+0000004339+000000000+000000608+0000004940+0000000007+I20000000000+0000004940+Z
322323001322323019-000124     322323006003000329502PLANTER GALV ROUND SML 0000001000+00003507+00000+0001T   00004385+0008171338          1400 JY35101IC            2AZ
322323002322323159-000150-B   322323006003000058440SOAP-BOX PL ASSORTED   0000001000+00000832+00000+0001T   00000832+0000001338          1400 JY3200               2AZ
322324000322324               322324               170213MC     1400+00000+MC0000005256+0000005256+000000000+000000738+0000005990+0000000004+I20000000000+0000005990+Z
322324001322324077-000151     322324006008766114676GIFT-WRAP C/PHANE ASSTD0000006000+00000876+00000+0001T   00000876+0000001339          1400 JY3112               2AZ
322325000322325               322325               170213MC     1400+00000+MC0000000648+0000000648+000000000+000000091+0000000730+0000000009+I20000000000+0000000730+Z
322325001322325077-000311     322325006001023608666GIFT-BAG 11X14CM GLOSS 0000001000+00000613+00000+0001T   00000613+0000001345          1400 JY3112               2AZ
322325002322325112-116038     322325006009681820246TCS CARRIER BAG MIDI   0000001000+00000035+00000+0001T   00000035+0000001345          1400 JY3090               2AZ
322326000322326               322326               170213MC     1400+00000+MC0000011873+0000011873+000000000+000001663+0000013536+0000000000+I40000013536+0000000000+Z
322326001322326159-000643     322326006001023767028BACK-BRUSH ASSTD       0000001000+00003507+00000+0001T   00003507+0000001347          1400 JY3200               2AZ
322326002322326082-098787     322326006001492987873SUNGLASS KIDS FOIL     0000001000+00003946+00000+0001T   00003946+0000001347          1400 JY3160               2AZ
322326003322326032-000334     322326006003000352395MIRROR HAND PL 23X31CM 0000001000+00004385+00000+0001T   00004385+0000001347          1400 JY3510               2AZ
322326004322326112-116038     322326006009681820246TCS CARRIER BAG MIDI   0000001000+00000035+00000+0001T   00000035+0000001347          1400 JY3090               2AZ
322327000322327               322327               170213MC     1400+00000+MC0000008447+0000008447+000000000+000001185+0000009630+0000000002+I20000000000+0000009630+Z
322327001322327903-000194     322327006009826020616SWT CHOC RP LOLLY 25G  0000001000+00001314+00000+0001T   00001314+0000001403          1400 JY3150               2AZ
322327002322327903-000200     322327006009826020234SWT CHOC RP CHOCO 23G  0000002000+00000788+00000+0001T   00000788+0000001403          1400 JY3150               2AZ
322327003322327018-000177     322327006001023797513MUG MINI LOVE ASSTD    0000001000+00000700+00000+0001T   00000700+0000001403          1400 JY3515               2AZ
322327004322327368-000049     322327006003000536955PLUSH BEAR 15cm LOVE   0000001000+00004385+00000+0001T   00004385+0000001403          1400 JY3745               2AZ
322327005322327080-000133-A   322327006003000647019MINI VALENTINES CARD   0000001000+00000437+00000+0001T   00000437+0000001403          1400 JY3112               2AZ
322327006322327112-116038     322327006009681820246TCS CARRIER BAG MIDI   0000001000+00000035+00000+0001T   00000035+0000001403          1400 JY3090               2AZ
322328000322328               322328               170213MC     1400+00000+MC0000001753+0000001753+000000000+000000246+0000001990+0000000009+I20000000000+0000001990+Z
322328001322328078-000470     322328006007347000018SHOE-CEMENT 70ml-TIN   0000001000+00001753+00000+0001T   00001753+0000001403          1400 JY3810               2AZ
322329000322329               322329               170213MC     1400+00000+MC0000000788+0000000788+000000000+000000111+0000000890+0000000009+I20000000000+0000000890+Z
322329001322329903-000200     322329006009826020234SWT CHOC RP CHOCO 23G  0000001000+00000788+00000+0001T   00000788+0000001403          1400 JY3150               2AZ
322330000322330               322330               170213MC     1400+00000+MC0000017535+0000017535+000000000+000002457+0000019992+0000000000+I40000019992+0000000000+Z
322330001322330034-000713     322330006001023899507COOEY TUMBLER NON-SPILL0000001000+00001753+00000+0001T   00002630+0008151533          1400 JY3215               2AZ
322330002322330071-003012     322330006001023802996PEN CLICK 10PK BLUE    0000001000+00001753+00000+0001T   00001753+0000001533          1400 JY3130               2AZ
322330004322330071-003866     322330006003000590018PENCIL NOVELTY RULER   0000001000+00001314+00000+0001T   00001314+0000001533          1400 JY3130               2AZ
322330005322330566-000031     322330006003000283910STICKER BK TEACHER STIC0000003000+00002192+00000+0001T   00002192+0000001533          1400 JY3130               2AZ
322330006322330007-000323     322330006009697791042PAPER A4 80GSM 100'S   0000001000+00006139+00000+0001T   00006139+0000001533          1400 JY3130               2AZ
322331000322331               322331               170213MC     1400+00000+MC0000001578+0000001578+000000000+000000221+0000001790+0000000009+I20000000000+0000001790+Z
322331001322331077-000303     322331006001023593757GIFT-BAG PAPER MED     0000001000+00001578+00000+0001T   00001578+0000001540          1400 JY3112               2AZ
322332000322332               322332               170213MC     1400+00000+MC0000012142+0000012142+000000000+000001704+0000013840+0000000006+I20000000000+0000013840+Z
322332001322332903-000483     322332006001704001410SWT LIQUOR SML SORT 60G0000001000+00000876+00000+0001T   00000876+0000001541          1400 JY3150               2AZ
322332002322332903-000095     322332006001704011495SWT SPECKLED-EGGS 100G 0000001000+00002104+00000+0001T   00002104+0000001541          1400 JY3150               2AZ
322332003322332306-000977     322332006003000559596FIRSTAID PLASTER 75PC  0000001000+00002630+00000+0001T   00002630+0000001541          1400 JY3200               2AZ
322332004322332306-000021-C   322332006003000567294EARBUDS 300PCE IN TUB  0000001000+00001753+00000+0001T   00001753+0000001541          1400 JY3200               2AZ
322332005322332112-116069     322332006009681820277TCS CARRIER BAG JUMBO  0000001000+00000048+00000+0001T   00000048+0000001541          1400 JY3090               2AZ
322332006322332903-000123     322332006925925909280SWEET GS MINI MALLOWS  0000001000+00000876+00000+0001T   00000876+0000001541          1400 JY3150               2AZ
322332007322332903-000137     322332006002099004130SWEET GS JELLY BEAN 60G0000001000+00000788+00000+0001T   00000788+0000001541          1400 JY3150               2AZ
322332008322332496-059631     322332006941057402611REPAIR-PATCHES   CARDED0000001000+00001314+00000+0001T   00001314+0000001541          1400 JY3787               2AZ
322332009322332494-059230     322332000078257592302INTEX SWIN RING 51cm   0000001000+00001753+00000+0001T   00001753+0000001541          1400 JY3787               2AZ
322333000322333               322333               170213MC     1400+00000+MC0000000876+0000000876+000000000+000000123+0000000990+0000000009+I20000000000+0000000990+Z
322333001322333071-003003     322333006003000144525PEN BALL PEN 3PCE BLACK0000001000+00000876+00000+0001T   00000876+0000001544          1400 JY3130               2AZ
322334000322334               322334               170213MC     1400+00000+MC0000005295+0000005295+000000000+000000743+0000006030+0000000008+I20000000000+0000006030+Z
322334001322334368-000040     322334006003000671786PLUSH ICONS 7.5cm      0000002000+00002630+00000+0001T   00002630+0000001545          1400 JY3745               2AZ
322334002322334112-116038     322334006009681820246TCS CARRIER BAG MIDI   0000001000+00000035+00000+0001T   00000035+0000001545          1400 JY3090               2AZ
322335000322335               322335               170213MC     1400+00000+MC0000004418+0000004418+000000000+000000620+0000005030+0000000008+I20000000000+0000005030+Z
322335001322335079-013099     322335006003000081875ART+CRAFT EYES ASSTD   0000001000+00001753+00000+0001T   00001753+0000001546          1400 JY3130               2AZ
322335002322335033-006003     322335006001023678584SEWING-KIT             0000001000+00002630+00000+0001T   00002630+0000001546          1400 JY3200               2AZ
322335003322335112-116038     322335006009681820246TCS CARRIER BAG MIDI   0000001000+00000035+00000+0001T   00000035+0000001546          1400 JY3090               2AZ
322336000322336               322336               170213MC     1400+00000+MC0000001490+0000001490+000000000+000000209+0000001699+0000000000+I40000001699+0000000000+Z
322336001322336077-000299     322336006003000395576G/BAG 32x25cm LRG LOVE 0000001000+00001490+00000+0001T   00001490+0000001548          1400 JY3112               2AZ
322337000322337               322337               170213MC     1400+00000+MC0000014908+0000014908+000000000+000002089+0000016990+0000000007+I20000000000+0000016990+Z
322337001322337041-092011     322337006003000384280BATH G/SET VINTAGE 3PC 0000001000+00004385+00000+0001T   00004385+0000001550          1400 JY3200               2AZ
322337002322337301-085007     322337006003000673698ORN OCC. LOVE S/PLAQUE 0000001000+00007893+00000+0001T   00007893+0000001550          1400 JY3505               2AZ
322337003322337077-000475     322337006003000640775GIFT-BAG DESIGNER MED  0000001000+00002630+00000+0001T   00002630+0000001550          1400 JY3112               2AZ
322338000322338               322338               170213MC     1400+00000+MC0000004821+0000004821+000000000+000000675+0000005490+0000000006+I20000000000+0000005490+Z
322338001322338903-005001     322338006002580020014SWT CT MALLOW MICE 120g0000001000+00001314+00000+0001T   00001314+0000001552          1400 JY3150               2AZ
322338002322338018-000136     322338006001023659026MUG OCC LOVE W/PLUSH   0000001000+00003507+00000+0001T   00003507+0000001552          1400 JY3515               2AZ
322339000322339               322339               170213MC     1400+00000+MC0000003241+0000003241+000000000+000000456+0000003690+0000000007+I20000000000+0000003690+Z
322339001322339304-001204     322339006001023737984FLOWER OCC. TEDDY/ROSES0000002000+00001402+00000+0001T   00001490+0006471557          1400 JY3510               2AZ
322339002322339080-000133-A   322339006003000647019MINI VALENTINES CARD   0000001000+00000437+00000+0001T   00000437+0000001557          1400 JY3112               2AZ
322340000322340               322340               170213MC     1400+00000+MC0000014064+0000014064+000000000+000001970+0000016034+0000000000+I40000016034+0000000000+Z
322340001322340903-000194     322340006009826020616SWT CHOC RP LOLLY 25G  0000002000+00001314+00000+0001T   00001314+0000001602          1400 JY3150               2AZ
322340002322340039-809558     322340006003000344376CANDLE PILLAR 12CM 4AST0000001000+00006139+00000+0001T   00006139+0000001602          1400 JY3510               2AZ
322340003322340301-085003     322340006003000420827ORN OCCASION LOVE KEY  0000001000+00005262+00000+0001T   00005262+0000001602          1400 JY3505               2AZ
322340004322340112-116038     322340006009681820246TCS CARRIER BAG MIDI   0000001000+00000035+00000+0001T   00000035+0000001602          1400 JY3090               2AZ
322341000322341               322341               170213MC     1400+00000+MC0000005875+0000005875+000000000+000000823+0000006690+0000000008+I20000000000+0000006690+Z
322341001322341368-000049     322341006003000536955PLUSH BEAR 15cm LOVE   0000001000+00004385+00000+0001T   00004385+0000001604          1400 JY3745               2AZ
322341002322341077-000299     322341006003000395576G/BAG 32x25cm LRG LOVE 0000001000+00001490+00000+0001T   00001490+0000001604          1400 JY3112               2AZ
322342000322342               322342               170213MC     1400+00000+MC0000003507+0000003507+000000000+000000491+0000003998+0000000000+I10000003798+0000000200+Z
322342001322342018-000136     322342006001023659026MUG OCC LOVE W/PLUSH   0000001000+00003507+00000+0001T   00003507+0000001610          1400 JY3515               2AZ
322343000322343               322343               170213MC     1400+00000+MC0000015816+0000015816+000000000+000002217+0000018033+0000000000+I40000018033+0000000000+Z
322343001322343112-116038     322343006009681820246TCS CARRIER BAG MIDI   0000001000+00000035+00000+0001T   00000035+0000001612          1400 JY3090               2AZ
322343002322343133-000010-A   322343006001023997647CLEANING CLOTH ROLL 30 0000001000+00003507+00000+0001T   00003507+0000001612          1400 JY3212               2AZ
322343003322343072-000329     322343006001023904706PET CAT COLLAR LINING  0000002000+00002630+00000+0001T   00002630+0000001612          1400 JY3870               2AZ
322343004322343046-000012-A   322343006003000208296BATTERIES H/POWER SZ:AA0000001000+00002192+00000+0001T   00002192+0000001612          1400 JY3312               2AZ
322343005322343002-000460     322343006001023770219K/TOOL-RACK 6-PRONG    0000001000+00003946+00000+0001T   00003946+0000001612          1400 JY3300               2AZ
322343006322343903-003075     322343003800065783125SWT CHOC FAFL WAFER 52g0000001000+00000876+00000+0001T   00000876+0000001612          1400 JY3150               2AZ
322344000322344               322344               170213MC     1400+00000+MC0000006174+0000006174+000000000+000000865+0000007039+0000000000+I40000007039+0000000000+Z
322344001322344368-000175     322344006003000270316PLUSH BEAR 4 ASSTD 18CM0000001000+00006139+00000+0001T   00006139+0000001615          1400 JY3745               2AZ
322344002322344112-116038     322344006009681820246TCS CARRIER BAG MIDI   0000001000+00000035+00000+0001T   00000035+0000001615          1400 JY3090               2AZ
322345000322345               322345               170213MC     1400+00000+MC0000002628+0000002628+000000000+000000369+0000002990+0000000007+I20000000000+0000002990+Z
322345001322345080-000133     322345006003000535613CARD&ENV MINI ASTD DSGN0000001000+00000437+00000+0001T   00000437+0000001616          1400 JY3112               2AZ
322345002322345018-000127     322345006001023380289MUG OCC STRAIGHT LOVE  0000001000+00001578+00000+0001T   00001753+0006471616          1400 JY3515               2AZ
322345003322345083-000055     322345006003000003853LIGHTER ELCTRNC REFILBL0000001000+00000613+00000+0001T   00000613+0000001616          1400 JY3315               2AZ
322346000322346               322346               170213MC     1400+00000+MC0000001753+0000001753+000000000+000000246+0000001990+0000000009+I20000000000+0000001990+Z
322346001322346089-000504     322346006001023701886KEY-CHAIN SNAP-HOOK    0000001000+00001753+00000+0001T   00001753+0000001617          1400 JY3205               2AZ
322347000322347               322347               170213MC     1400+00000+MC0000003067+0000003067+000000000+000000430+0000003490+0000000007+I20000000000+0000003490+Z
322347001322347006-000120     322347006001023346889BALLOONS 10PC MIX COL  0000001000+00001753+00000+0001T   00001753+0000001619          1400 JY3131               2AZ
322347002322347006-000166-H   322347006003000608096BALLOONS HELIUM 6PC WHT0000001000+00001314+00000+0001T   00001314+0000001619          1400 JY3131               2AZ
322348000322348               322348               170213MC     1400+00000+MC0000007016+0000007016+000000000+000000983+0000000000+0000000000+ 00000000000+0000000000+Z
322348001322348041-093000     322348006003000320882B/GIFT SET 4PC B/RANGE 0000001000+00007016+00000+0001T   00007016+000000              1400 JY32002IC            2 Z
322349000322349               322349               170213MC     1400+00000+MC0000020201+0000020201+000000000+000002830+0000023031+0000000000+I40000023031+0000000000+Z
322349001322349368-000049     322349006003000536955PLUSH BEAR 15cm LOVE   0000001000+00004385+00000+0001T   00004385+0000001625          1400 JY3745               2AZ
322349002322349018-000136     322349006001023659026MUG OCC LOVE W/PLUSH   0000002000+00003507+00000+0001T   00003507+0000001625          1400 JY3515               2AZ
322349003322349368-000049     322349006003000536955PLUSH BEAR 15cm LOVE   0000001000+00004385+00000+0001T   00004385+0000001625          1400 JY3745               2AZ
322349004322349077-000904     322349006003000410682G/WRAP 700mmx1m PATTERN0000001000+00001753+00000+0001T   00001753+0000001625          1400 JY3112               2AZ
322349005322349077-000922     322349006003000413935G/WRAP 700mmx2m FLOWER 0000001000+00002192+00000+0001T   00002192+0000001625          1400 JY3112               2AZ
322349006322349080-000133     322349006003000535613CARD&ENV MINI ASTD DSGN0000001000+00000437+00000+0001T   00000437+0000001625          1400 JY3112               2AZ
322349007322349112-116038     322349006009681820246TCS CARRIER BAG MIDI   0000001000+00000035+00000+0001T   00000035+0000001625          1400 JY3090               2AZ
322350000322350               322350               170213MC     1400+00000+MC0000001226+0000001226+000000000+000000172+0000001390+0000000008+I20000000000+0000001390+Z
322350001322350304-001011     322350006001023806727FLWR ROSE RED W/BEAR   0000002000+00000613+00000+0001T   00000788+0006471625          1400 JY3510               2AZ
322351000322351               322351               170213MC     1400+00000+MC0000000035+0000000035+000000000+000000005+0000000040+0000000000+I20000000000+0000000040+Z
322351001322351112-116038     322351006009681820246TCS CARRIER BAG MIDI   0000001000+00000035+00000+0001T   00000035+0000001626          1400 JY3090               2AZ
322352000322352               322352               170213MC     1400+00000+MC0000009820+0000009820+000000000+000001376+0000011190+0000000006+I20000000000+0000011190+Z
322352001322352200-000100     322352006001023764003CUPS 25PCE DISPOSABLE  0000001000+00001928+00000+0001T   00001928+0000001627          1400 JY3214               2AZ
322352002322352200-000107     322352006003000638499PICNIC CUPS PAPER 250ml0000001000+00001753+00000+0001T   00001753+0000001627          1400 JY3214               2AZ
322352003322352133-003245     322352006003000419074IRON BRD COVER 122x38cm0000001000+00006139+00000+0001T   00006139+0000001627          1400 JY3212               2AZ
322353000322353               322353               170213MC     1400+00000+MC0000003857+0000003857+000000000+000000541+0000004390+0000000008+I20000000000+0000004390+Z
322353001322353048-000865     322353006003000371433TORCH KEY CHAIN 5LED   0000001000+00002630+00000+0001T   00002630+0000001628          1400 JY3305               2AZ
322353002322353903-000111     322353006001704006378SWT LIQUORICE-TWISTS   0000001000+00001227+00000+0001T   00001227+0000001628          1400 JY3150               2AZ
322354000322354               322354               170213MC     1400+00000+MC0000001753+0000001753+000000000+000000246+0000001990+0000000009+I20000000000+0000001990+Z
322354001322354105-001021     322354006003000667062CONTAINER MICRO/FREEZER0000001000+00001753+00000+0001T   00002630+0008161632          1400 JY3210               2AZ
322355000322355               322355               170213MC     1400+00000+MC0000002192+0000002192+000000000+000000307+0000002499+0000000000+I40000002499+0000000000+Z
322355001322355080-000127     322355006003000424351VALENTINES DAY 36x24CM 0000001000+00002192+00000+0001T   00002192+0000001705          1400 JY3112               2AZ
322356000322356               322356               170213MC     1400+00000+MC0000001578+0000001578+000000000+000000221+0000001790+0000000009+I20000000000+0000001790+Z
322356001322356077-000303     322356006001023593757GIFT-BAG PAPER MED     0000001000+00001578+00000+0001T   00001578+0000001706          1400 JY3112               2AZ
322357000322357               322357               170213MC     1400+00000+MC0000000876+0000000876+000000000+000000123+0000000999+0000000000+I40000000999+0000000000+Z
322357001322357077-000302     322357008010410010195GIFT-BAG 18X23CM E/D   0000001000+00000876+00000+0001T   00000876+0000001708          1400 JY3112               2AZ
322358000322358               322358               170213MC     1400+00000+MC0000001578+0000001578+000000000+000000221+0000001790+0000000009+I20000000000+0000001790+Z
322358001322358077-000303     322358006001023593757GIFT-BAG PAPER MED     0000001000+00001578+00000+0001T   00001578+0000001708          1400 JY3112               2AZ
322359000322359               322359               170213MC     1400+00000+MC0000009941+0000009941+000000000+000001392+0000011330+0000000003+I20000000000+0000011330+Z
322359001322359018-000127     322359006001023380289MUG OCC STRAIGHT LOVE  0000001000+00001578+00000+0001T   00001753+0006471710          1400 JY3515               2AZ
322359002322359018-005009     322359006001023725608MUG W/PLUSH-BEAR LOVE  0000001000+00003507+00000+0001T   00003507+0000001710          1400 JY3515               2AZ
322359003322359077-000310     322359006001023608635GIFT-BAG 18X23CM GLOSS 0000001000+00001314+00000+0001T   00001314+0000001710          1400 JY3112               2AZ
322359004322359018-000136     322359006001023659026MUG OCC LOVE W/PLUSH   0000001000+00003507+00000+0001T   00003507+0000001710          1400 JY3515               2AZ
322359005322359112-116038     322359006009681820246TCS CARRIER BAG MIDI   0000001000+00000035+00000+0001T   00000035+0000001710          1400 JY3090               2AZ
322360000322360               322360               170213MC     1400+00000+MC0000004032+0000004032+000000000+000000566+0000004590+0000000008+I20000000000+0000004590+Z
322360001322360304-001204     322360006001023737984FLOWER OCC. TEDDY/ROSES0000001000+00001402+00000+0001T   00001490+0006471711          1400 JY3510               2AZ
322360002322360368-000040     322360006003000671786PLUSH ICONS 7.5cm      0000001000+00002630+00000+0001T   00002630+0000001711          1400 JY3745               2AZ
322361000322361               322361               170213MC     1400+00000+MC0000002662+0000002662+000000000+000000375+0000003037+0000000000+I40000003037+0000000000+Z
322361001322361077-000309     322361006001023608604GIFT-BAG 25X32CM GLOSS 0000001000+00001753+00000+0001T   00001753+0000001714          1400 JY3112               2AZ
322361002322361080-000133-A   322361006003000647019MINI VALENTINES CARD   0000002000+00000437+00000+0001T   00000437+0000001714          1400 JY3112               2AZ
322361003322361112-116038     322361006009681820246TCS CARRIER BAG MIDI   0000001000+00000035+00000+0001T   00000035+0000001714          1400 JY3090               2AZ
A17021300                                          15581386MCSLAVE 2                       JY32IC
B32232300                                          170213MC019-000124     13381810SLAVE 2     JY31IC0000002000+0000001000+0000000000000+
C32231500                                          170213MC006-000120     13081531SLAVE 2     JY31IC0000000000+0000000000+0010000001000+
C32233000                                          170213MC007-000546     15313780SLAVE 2     JY32IC0000000000+0000000000+0030000001000+
M17021391                              CASH        MCSLAVE 2                       Z-REPORT No.   544TOTAL (Sales - Refunds)           5464.43       CASH TO BE BANKED                 3434.30       DEBIT CARDS                          0.00       CREDIT CARDS                      2030.13       Z-READING                         5464.43       AIRTIME DEBIT CARD SALES             0.00       AIRTIME CARD SALES                   0.00       OVERS/UNDERS                         0.00       AIRTIME CASH SALES                   0.00       GIFT CARDS                           0.00       GIFT CARD CASH SALES                 0.00       T O T A L  CASH PAYOUTS              0.00                                                                                                                                                                                                                                                                                                                                                      Z
M17021392                              CASH        MCABSENT                                                                                                                                                                                          ANNUAL LEAVE                                                                                                                                                                                    DAY OFF                                                                                                                                                                                         COMMENTS                                                                                                                                                                                                                                                                                                                                                                                       Z
Y17021300                                          MC00000000488427+000087
ZMC17021320043 SLAVE 2      SALES DATA                     NEXT INVOICE NO.  322362 0544
X MC Slave 2 First invoice 322274 170213 Last invoice 322361 170213 Next invoice 322362 Total number of records 000000304 clbackup completed 20:04:20
