911005000911005               911005               170213MD     1400+00000+MD0000003506+0000003506+000000000+000000492+0000003990+0000000008+I20000000000+0000003990+Z
911005001911005200-003024     911005006001023657299REFUSE BAGS 20PCE BLACK0000002000+00001753+00000+0001T   00001753+0000000843          1400 MU7214               1AZ
911006000911006               911006               170213MD     1400+00000+MD0000005258+0000005258+000000000+000000738+0000005990+0000000006+I20000000000+0000005990+Z
911006001911006467-000006     911006006001023995483NET-BUTTERFLY 120cm    0000001000+00002630+00000+0001T   00002630+0000000844          1400 MU7785               1AZ
911006002911006903-000123     911006006001704003469SWEET GS MINI MALLOWS  0000003000+00000876+00000+0001T   00000876+0000000844          1400 MU7150               1AZ
911007000911007               911007               170213MD     1400+00000+MD0000020210+0000020210+000000000+000002834+0000023040+0000000004+I20000000000+0000023040+Z
911007001911007031-000924     911007006001023669964P/FRAME COLLAGE PL     0000001000+00008771+00000+0001T   00008771+0000000846          1400 MU7510               1AZ
911007002911007566-001234     911007006003000216635STICKERS LASER ASSTD   0000001000+00001578+00000+0001T   00001578+0000000846          1400 MU7130               1AZ
911007003911007903-000200     911007006009826020234SWT CHOC RP CHOCO 23G  0000006000+00000788+00000+0001T   00000788+0000000846          1400 MU7150               1AZ
911007004911007018-000177     911007006001023797513MUG MINI LOVE ASSTD    0000001000+00000700+00000+0001T   00000700+0000000846          1400 MU7515               1AZ
911007005911007006-000190     911007006003000685530BALLOONS LOVE 81x91cm  0000001000+00004385+00000+0001T   00004385+0000000846          1400 MU7131               1AZ
911007006911007112-116069     911007006009681820277TCS CARRIER BAG JUMBO  0000001000+00000048+00000+0001T   00000048+0000000846          1400 MU7090               1AZ
911008000911008               911008               170213MD     1400+00000+MD0000015786+0000015786+000000000+000002211+0000017990+0000000007+I20000000000+0000017990+Z
911008001911008496-058426     911008000078257584260POOL CRYSTAL-BLU 147x330000001000+00012279+00000+0001T   00012279+0000000847          1400 MU7787               1AZ
911008002911008492-055603     911008000078257556038SWIM-GOGGLES FUN       0000001000+00003507+00000+0001T   00003507+0000000847          1400 MU7787               1AZ
911009000911009               911009               170213MD     1400+00000+MD0000003153+0000003153+000000000+000000442+0000003590+0000000005+I20000000000+0000003590+Z
911009001911009261-002267     911009006001023665126GUN 8-SHOT SUPER-CAP   0000001000+00001753+00000+0001T   00001753+0000000848          1400 MU7710               1AZ
911009002911009261-000121     911009006001023341600GUN-CAPS 8-SHOT CARD-9 0000002000+00000700+00000+0001T   00000700+0000000848          1400 MU7710               1AZ
911010000911010               911010               170213MD     1400+00000+MD0000007890+0000007890+000000000+000001107+0000008990+0000000007+I20000000000+0000008990+Z
911010001911010463-000366     911010006001023789136SWIM W/NOODLE 150cm    0000003000+00002630+00000+0001T   00002630+0000000849          1400 MU7785               1AZ
911011000911011               911011               170213MD     1400+00000+MD0000005260+0000005260+000000000+000000737+0000005990+0000000007+I20000000000+0000005990+Z
911011001911011263-000177     911011006001023826824RACER PULL BACK        0000001000+00003507+00000+0001T   00003507+0000000850          1400 MU7710               1AZ
911011002911011466-000109     911011006003000612345BALL RAINBOW DESIGN    0000001000+00001753+00000+0001T   00001753+0000000850          1400 MU7785               1AZ
911012000911012               911012               170213MD     1400+00000+MD0000008767+0000008767+000000000+000001229+0000009990+0000000006+I20000000000+0000009990+Z
911012001911012463-000366     911012006001023789136SWIM W/NOODLE 150cm    0000001000+00002630+00000+0001T   00002630+0000000852          1400 MU7785               1AZ
911012002911012031-000864-B   911012006001023798381P/FRAME MAHOGANY 13X18 0000001000+00003507+00000+0001T   00003507+0000000852          1400 MU7510               1AZ
911012003911012031-006530     911012006001023995803P/FRAME COL BABY 2ASSTD0000001000+00002630+00000+0001T   00002630+0000000852          1400 MU7510               1AZ
911013000911013               911013               170213MD     1400+00000+MD0000001575+0000001575+000000000+000000222+0000001790+0000000007+I20000000000+0000001790+Z
911013001911013903-000077     911013006939873501687SWT GS MAGIC ROCK FRUIT0000003000+00000525+00000+0001T   00000525+0000000853          1400 MU7150               1AZ
911014000911014               911014               170213MD     1400+00000+MD0000007015+0000007015+000000000+000000983+0000007990+0000000008+I20000000000+0000007990+Z
911014001911014046-000007     911014006001023814692BATTERIES D ALKALN 2PCE0000001000+00006139+00000+0001T   00006139+0000000854          1400 MU7312               1AZ
911014002911014078-000025     911014006002477000334SUPERGLUE 3g 1PCE CARD 0000001000+00000876+00000+0001T   00000876+0000000854          1400 MU7810               1AZ
911015000911015               911015               170213MD     1400+00000+MD0000014032+0000014032+000000000+000001966+0000015990+0000000008+I20000000000+0000015990+Z
911015001911015079-000590     911015006003000543236SKETCH PAD & PAINT SET 0000001000+00007016+00000+0001T   00007016+0000000855          1400 MU7130               1AZ
911015002911015562-000070     911015006003000600748EDU PLAY DOUGH 50g 8pc 0000001000+00007016+00000+0001T   00007016+0000000855          1400 MU7755               1AZ
911016000911016               911016               170213MD     1400+00000+MD0000001753+0000001753+000000000+000000246+0000001990+0000000009+I20000000000+0000001990+Z
911016001911016080-000120     911016006003000236473CARD & ENVELOPE WEDDING0000001000+00001753+00000+0001T   00001753+0000000856          1400 MU7112               1AZ
911017000911017               911017               170213MD     1400+00000+MD0000010524+0000010524+000000000+000001474+0000011990+0000000008+I20000000000+0000011990+Z
911017001911017567-010161     911017006003000102068BOOK TOP ASSTD MILLS   0000002000+00005262+00000+0001T   00005262+0000000857          1400 MU7757               1AZ
911018000911018               911018               170213MD     1400+00000+MD0000032695+0000032695+000000000+000004588+0000000000+0000000000+ 00000000000+0000000000+Z
911018001911018016-006514     911018006003000295432S/JAR EMBOSSED 500ML   0000012000+00001753+00000+0001T   00001753+000000              1400 MU73001IC            1 Z
911018002911018015-000013     911018006003000029532BOWL SERVING 23CM ASSTD0000004000+00002630+00000+0001T   00002630+000000              1400 MU75151IC            1 Z
911018003911018046-000014     911018006001023725387BATTERIES SIZE:AAA 4PCE0000001000+00001139+00000+0001T   00001139+000000              1400 MU73121IC            1 Z
911019000911019               911019               170213MD     1400+00000+MD0000035461+0000035461+000000000+000004976+0000040430+0000000007+I20000000000+0000040430+Z
911019001911019016-006514     911019006003000295432S/JAR EMBOSSED 500ML   0000012000+00001753+00000+0001T   00001753+0000000902          1400 MU7300               1AZ
911019002911019015-000013     911019006003000029532BOWL SERVING 23CM ASSTD0000004000+00002630+00000+0001T   00002630+0000000902          1400 MU7515               1AZ
911019003911019046-000010     911019004897006172987BATTERIES AAA ALKLN 2PC0000001000+00001490+00000+0001T   00001490+0000000902          1400 MU7312               1AZ
911019004911019046-000010-A   911019006003000438778BATTERIES SIZE:AAA 4PCE0000001000+00002367+00000+0001T   00002367+0000000902          1400 MU7312               1AZ
911019005911019112-116069     911019006009681820277TCS CARRIER BAG JUMBO  0000001000+00000048+00000+0001T   00000048+0000000902          1400 MU7090               1AZ
911020000911020               911020               170213MD     1400+00000+MD0000008766+0000008766+000000000+000001230+0000009990+0000000006+I20000000000+0000009990+Z
911020001911020006-006018-B   911020006003000008278PARTY-SPRAY HAIR NEON  0000001000+00002630+00000+0001T   00002630+0000000903          1400 MU7131               1AZ
911020002911020006-006019     911020006001023908193PARTY-SPRAY GLITTER    0000002000+00002630+00000+0001T   00002630+0000000903          1400 MU7131               1AZ
911020003911020903-003080     911020005907029004673SWT SNACK STIX CHOC 50g0000001000+00000876+00000+0001T   00000876+0000000903          1400 MU7150               1AZ
911021000911021               911021               170213MD     1400+00000+MD0000023235+0000023235+000000000+000003257+0000026490+0000000002+I20000000000+0000026490+Z
911021001911021140-001007     911021006001023617163FLY-STICK STAND 260x36 0000005000+00003069+00000+0001T   00003069+0000000905          1400 MU7830               1AZ
911021002911021007-000049     911021006003000274994OFFICE E/LOPE A4 PK 5  0000001000+00002630+00000+0001T   00002630+0000000905          1400 MU7130               1AZ
911021003911021071-000013     911021006003000535354BOARD DUSTER           0000001000+00002630+00000+0001T   00002630+0000000905          1400 MU7130               1AZ
911021004911021050-000364-Z   911021006001023777133PADLOCK IRON 38mm CARD 0000001000+00002630+00000+0001T   00002630+0000000905          1400 MU7855               1AZ
911022000911022               911022               170213MD     1400+00000+MD0000005259+0000005259+000000000+000000738+0000005990+0000000007+I20000000000+0000005990+Z
911022001911022046-000002     911022004897006175742BATTERIES SIZE:C   2PCE0000003000+00001753+00000+0001T   00001753+0000000906          1400 MU7312               1AZ
911023000911023               911023               170213MD     1400+00000+MD0000003555+0000003555+000000000+000000498+0000004050+0000000003+I20000000000+0000004050+Z
911023001911023079-000269     911023006003000159963PAINT-BRUSHES SPONGETIP0000001000+00003507+00000+0001T   00003507+0000000907          1400 MU7130               1AZ
911023002911023112-116069     911023006009681820277TCS CARRIER BAG JUMBO  0000001000+00000048+00000+0001T   00000048+0000000907          1400 MU7090               1AZ
911024000911024               911024               170213MD     1400+00000+MD0000012747+0000012747+000000000+000001786+0000014530+0000000003+I20000000000+0000014530+Z
911024001911024077-000011-L   911024006001023808585P/TISSUE BRIGHT 10SHEET0000002000+00000876+00000+0001T   00000876+0000000908          1400 MU7112               1AZ
911024002911024077-000463     911024006003000321698G/BAG GLITTER MED20x28 0000005000+00002192+00000+0001T   00002192+0000000908          1400 MU7112               1AZ
911024003911024112-116038     911024006009681820246TCS CARRIER BAG MIDI   0000001000+00000035+00000+0001T   00000035+0000000908          1400 MU7090               1AZ
911025000911025               911025               170213MD     1400+00000+MD0000008329+0000008329+000000000+000001168+0000009490+0000000007+I20000000000+0000009490+Z
911025001911025040-000051     911025006001023799494C/HOLDER GLASS LANTERN 0000001000+00003069+00000+0001T   00003069+0000000909          1400 MU7510               1AZ
911025002911025072-020312     911025006003000605330PET TOY PUP STARTER PCK0000001000+00002630+00000+0001T   00002630+0000000909          1400 MU7870               1AZ
911025003911025072-020302     911025006001023858818PET-DOG STICK/RING 24cm0000001000+00002630+00000+0001T   00002630+0000000909          1400 MU7870               1AZ
911026000911026               911026               170213MD     1400+00000+MD0000003769+0000003769+000000000+000000529+0000004290+0000000008+I20000000000+0000004290+Z
911026001911026036-000151     911026006001023810588COATHANGERS    PACK-10 0000001000+00002893+00000+0001T   00002893+0000000910          1400 MU7212               1AZ
911026002911026071-000677     911026006001023110282THUMB-TACKS            0000001000+00000876+00000+0001T   00000876+0000000910          1400 MU7130               1AZ
911027000911027               911027               170213MD     1400+00000+MD0000000437+0000000437+000000000+000000062+0000000490+0000000009+I20000000000+0000000490+Z
911027001911027083-000049     911027004891035200024CIG-LIGHTER DISPOSABLE 0000001000+00000437+00000+0001T   00000437+0000000911          1400 MU7315               1AZ
911028000911028               911028               170213MD     1400+00000+MD0000007186+0000007186+000000000+000001008+0000008190+0000000004+I20000000000+0000008190+Z
911028001911028142-000814     911028006001023183910GLOVES RUBBER  MEDIUM  0000001000+00001753+00000+0001T   00001753+0000000913          1400 MU7810               1AZ
911028002911028140-006004     911028006001023628077FLY-SWATTER RUBBER     0000001000+00001139+00000+0001T   00001139+0000000913          1400 MU7830               1AZ
911028003911028903-003080     911028005907029004673SWT SNACK STIX CHOC 50g0000001000+00000876+00000+0001T   00000876+0000000913          1400 MU7150               1AZ
911028004911028903-000095     911028006001704011495SWT SPECKLED-EGGS 100G 0000001000+00002104+00000+0001T   00002104+0000000913          1400 MU7150               1AZ
911028005911028903-004950     911028006002580020304SWT APRICOT SURPRISE   0000001000+00001314+00000+0001T   00001314+0000000913          1400 MU7150               1AZ
911029000911029               911029               170213MD     1400+00000+MD0000001744+0000001744+000000000+000000248+0000001990+0000000002+I20000000000+0000001990+Z
911029001911029903-000671     911029006009803358015SWT SHERBET BLUE LIPS  0000008000+00000218+00000+0001T   00000218+0000000913          1400 MU7150               1AZ
911030000911030               911030               170213MD     1400+00000+MD0000002629+0000002629+000000000+000000369+0000002990+0000000008+I20000000000+0000002990+Z
911030001911030071-005213     911030006001023690371CELLOTAPE 12mmx33m     0000001000+00000876+00000+0001T   00000876+0000000915          1400 MU7130               1AZ
911030002911030159-000636     911030006003000036035BATH PUMICE,BRUSH,FILE 0000001000+00001753+00000+0001T   00001753+0000000915          1400 MU7200               1AZ
911031000911031               911031               170213MD     1400+00000+MD0000001753+0000001753+000000000+000000246+0000001990+0000000009+I20000000000+0000001990+Z
911031001911031200-003026     911031006003000276448REFUSE BAGS 10PCE GREEN0000001000+00001753+00000+0001T   00001753+0000000916          1400 MU7214               1AZ
911032000911032               911032               170213MD     1400+00000+MD0000003507+0000003507+000000000+000000491+0000003998+0000000000+I40000003998+0000000000+Z
911032001911032072-020266     911032006003000400591PET PUPPY TRAINING PAD 0000001000+00003507+00000+0001T   00003507+0000000917          1400 MU7870               1AZ
911033000911033               911033               170213MD     1400+00000+MD0000005262+0000005262+000000000+000000737+0000005990+0000000009+I20000000000+0000005990+Z
911033001911033024-000165-A   911033006003000674077N/STICK B/WARE RND PAN 0000001000+00005262+00000+0001T   00005262+0000000918          1400 MU7300               1AZ
911034000911034               911034               170213MD     1400+00000+MD0000002628+0000002628+000000000+000000368+0000002990+0000000006+I20000000000+0000002990+Z
911034001911034046-000012     911034004897006175759BATTERIES AA  CARD-OF-40000002000+00001314+00000+0001T   00001314+0000000919          1400 MU7312               1AZ
911035000911035               911035               170213MD     1400+00000+MD0000001753+0000001753+000000000+000000246+0000001990+0000000009+I20000000000+0000001990+Z
911035001911035306-000989     911035006003000559954FIRSTAID PLASTER 30PC  0000001000+00001753+00000+0001T   00001753+0000000920          1400 MU7200               1AZ
911036000911036               911036               170213MD     1400+00000+MD0000002453+0000002453+000000000+000000344+0000002790+0000000007+I20000000000+0000002790+Z
911036001911036046-000014     911036004897006175766BATTERIES SIZE:AAA 4PCE0000001000+00001139+00000+0001T   00001139+0000000921          1400 MU7312               1AZ
911036002911036046-000012     911036004897006175759BATTERIES AA  CARD-OF-40000001000+00001314+00000+0001T   00001314+0000000921          1400 MU7312               1AZ
911037000911037               911037               170213MD     1400+00000+MD0000004385+0000004385+000000000+000000614+0000004990+0000000009+I20000000000+0000004990+Z
911037001911037006-000190     911037006003000685530BALLOONS LOVE 81x91cm  0000001000+00004385+00000+0001T   00004385+0000000922          1400 MU7131               1AZ
911038000911038               911038               170213MD     1400+00000+MD0000000876+0000000876+000000000+000000123+0000000990+0000000009+I20000000000+0000000990+Z
911038001911038366-007601     911038006003000655472DRESS UP MASK THEATRICA0000001000+00000876+00000+0001T   00000876+0000000922          1400 MU7131               1AZ
911039000911039               911039               170213MD     1400+00000+MD0000003506+0000003506+000000000+000000492+0000003990+0000000008+I20000000000+0000003990+Z
911039001911039566-000007     911039006001023671219S/BOOK SUPER VALUE     0000002000+00001753+00000+0001T   00001753+0000000923          1400 MU7130               1AZ
911040000911040               911040               170213MD     1400+00000+MD0000003065+0000003065+000000000+000000430+0000003490+0000000005+I20000000000+0000003490+Z
911040001911040903-000159     911040006003000417629SWT LB SMALL DUMMIE    0000001000+00000350+00000+0001T   00000350+0000000924          1400 MU7150               1AZ
911040002911040903-000898     911040006922516801503SWT POPPING CANDY      0000001000+00001139+00000+0001T   00001139+0000000924          1400 MU7150               1AZ
911040003911040903-000481     911040006001704007481SWT MOO MILK-SHAKES 60G0000001000+00000876+00000+0001T   00000876+0000000924          1400 MU7150               1AZ
911040004911040903-000159     911040006003000417629SWT LB SMALL DUMMIE    0000002000+00000350+00000+0001T   00000350+0000000924          1400 MU7150               1AZ
911041000911041               911041               170213MD     1400+00000+MD0000003506+0000003506+000000000+000000492+0000003990+0000000008+I20000000000+0000003990+Z
911041001911041054-000801     911041006001023119230WIRE-BRUSH+HANDLE FINE 0000002000+00001753+00000+0001T   00001753+0000000925          1400 MU7810               1AZ
911042000911042               911042               170213MD     1400+00000+MD0000005700+0000005700+000000000+000000798+0000006490+0000000008+I20000000000+0000006490+Z
911042001911042046-002023-C   911042004897006173649BATTERIES ALKALN CARD-50000001000+00005700+00000+0001T   00005700+0000000925          1400 MU7312               1AZ
911043000911043               911043               170213MD     1400+00000+MD0000002628+0000002628+000000000+000000368+0000002990+0000000006+I20000000000+0000002990+Z
911043001911043105-001031     911043006003000648252FOODSAVER 800ml        0000002000+00001314+00000+0001T   00001314+0000000926          1400 MU7210               1AZ
911044000911044               911044               170213MD     1400+00000+MD0000004733+0000004733+000000000+000000664+0000005390+0000000007+I20000000000+0000005390+Z
911044001911044200-000070     911044006003000677290STRAWS 33cm FLEX 70PCE 0000002000+00001753+00000+0001T   00001753+0000000927          1400 MU7214               1AZ
911044002911044200-000092     911044006003000576739PICNIC PAPER PLATES 23c0000001000+00001227+00000+0001T   00001227+0000000927          1400 MU7214               1AZ
911045000911045               911045               170213MD     1400+00000+MD0000000876+0000000876+000000000+000000123+0000000990+0000000009+I20000000000+0000000990+Z
911045001911045366-007601     911045006003000655472DRESS UP MASK THEATRICA0000001000+00000876+00000+0001T   00000876+0000000955          1400 MU7131               1AZ
911046000911046               911046               170213MD     1400+00000+MD0000005262+0000005262+000000000+000000737+0000005999+0000000000+I40000005999+0000000000+Z
911046001911046366-002699     911046006003000536733DRESS UP HAT COWGIRL   0000001000+00005262+00000+0001T   00005262+0000001000          1400 MU7131               1AZ
911047000911047               911047               170213MD     1400+00000+MD0000007892+0000007892+000000000+000001106+0000008998+0000000000+I40000008998+0000000000+Z
911047001911047016-002010     911047006003000674480S/BOTTLE GLS W/CAP 1L  0000002000+00003946+00000+0001T   00003946+0000001008          1400 MU7300               1AZ
911048000911048               911048               170213MD     1400+00000+MD0000025697+0000025697+000000000+000003600+0000029290+0000000007+I20000000000+0000029290+Z
911048001911048105-009015     911048006003000467204STORAGE BOX 32L FROSTED0000002000+00011402+00000+0001T   00011402+0000001011          1400 MU7210               1AZ
911048002911048036-000151     911048006001023810588COATHANGERS    PACK-10 0000001000+00002893+00000+0001T   00002893+0000001011          1400 MU7212               1AZ
911049000911049               911049               170213MD     1400+00000+MD0000019512+0000019512+000000000+000002735+0000022247+0000000000+I40000022247+0000000000+Z
911049001911049112-116069     911049006009681820277TCS CARRIER BAG JUMBO  0000001000+00000048+00000+0001T   00000048+0000001021          1400 MU7090               1AZ
911049002911049009-001506     911049006001023696090MELAMINE TRAY 39x29cm  0000001000+00004385+00000+0001T   00004385+0000001021          1400 MU7210               1AZ
911049003911049015-000110     911049006001023854889WHITEWARE MUG 350ML    0000003000+00002192+00000+0001T   00002192+0000001021          1400 MU7515               1AZ
911049004911049016-006720     911049006003000674800S/JAR GLS RHEA 660ML   0000001000+00002630+00000+0001T   00002630+0000001021          1400 MU7300               1AZ
911049005911049220-000032     911049006001023425065BUDGET TEASPOONS 12PCE 0000001000+00002630+00000+0001T   00002630+0000001021          1400 MU7300               1AZ
911049006911049009-001453     911049006003000531400MELAMINE TUMBLER 10cm  0000001000+00001490+00000+0001T   00001490+0000001021          1400 MU7210               1AZ
911049007911049009-001451     911049006001023695970MELAMINE S/BOWL 15cm   0000001000+00001753+00000+0001T   00001753+0000001021          1400 MU7210               1AZ
911050000911050               911050               170213MD     1400+00000+MD0000019553+0000019553+000000000+000002741+0000022290+0000000004+I20000000000+0000022290+Z
911050001911050103-000069     911050006003000630561BASKET RECT 23x28x7cm  0000001000+00007893+00000+0001T   00007893+0000001037          1400 MU7300               1AZ
911050002911050077-000245     911050006001023759214GIFT-RIBBON METALLICx2 0000001000+00001227+00000+0001T   00001227+0000001037          1400 MU7112               1AZ
911050003911050077-000011-D   911050006001023808554TISSUE-WRAP WHITE 10PCE0000001000+00000876+00000+0001T   00000876+0000001037          1400 MU7112               1AZ
911050004911050077-000010-C   911050006001023123879CREPE-PAPER RED        0000001000+00000788+00000+0001T   00000788+0000001037          1400 MU7112               1AZ
911050005911050077-000150-D   911050006003000054343GIFT-WRAP CELLPHANE CLR0000001000+00000876+00000+0001T   00000876+0000001037          1400 MU7112               1AZ
911050006911050301-085007     911050006003000673698ORN OCC. LOVE S/PLAQUE 0000001000+00007893+00000+0001T   00007893+0000001037          1400 MU7505               1AZ
911051000911051               911051               170213MD     1400+00000+MD0000004384+0000004384+000000000+000000614+0000004990+0000000008+I20000000000+0000004990+Z
911051001911051200-000200     911051006008766091144BAKING ALUM FOIL 2PCE  0000002000+00002192+00000+0001T   00002192+0000001040          1400 MU7214               1AZ
911052000911052               911052               170213MD     1400+00000+MD0000019294+0000019294+000000000+000002702+0000021990+0000000006+I20000000000+0000021990+Z
911052001911052077-000011-D   911052006001023808554TISSUE-WRAP WHITE 10PCE0000001000+00000876+00000+0001T   00000876+0000001048          1400 MU7112               1AZ
911052002911052077-000011-E   911052006001023808646TISSUE-WRAP PINK 10PCE 0000001000+00000876+00000+0001T   00000876+0000001048          1400 MU7112               1AZ
911052003911052028-002100     911052006003000243754CHAIR KIDDIES 68x50x48 0000002000+00008771+00000+0001T   00008771+0000001048          1400 MU7305               1AZ
911053000911053               911053               170213MD     1400+00000+MD0000005262+0000005262+000000000+000000737+0000005990+0000000009+I20000000000+0000005990+Z
911053001911053301-086006     911053006003000498918ORN OCCASION LOVE 4ASTD0000001000+00005262+00000+0001T   00005262+0000001058          1400 MU7505               1AZ
911054000911054               911054               170213MD     1400+00000+MD0000002630+0000002630+000000000+000000369+0000002990+0000000009+I20000000000+0000002990+Z
911054001911054079-000573     911054006003000670024OIL PASTELS JUMBO 12PCE0000001000+00002630+00000+0001T   00002630+0000001101          1400 MU7130               1AZ
911055000911055               911055               170213MD     1400+00000+MD0000006785+0000006785+000000000+000000951+0000007736+0000000000+I40000007736+0000000000+Z
911055001911055903-000095     911055006001704011495SWT SPECKLED-EGGS 100G 0000001000+00002104+00000+0001T   00002104+0000001109          1400 MU7150               1AZ
911055002911055903-000087     911055006001704000161SWT SPECKLED-EGGS 50G  0000001000+00001139+00000+0001T   00001139+0000001109          1400 MU7150               1AZ
911055003911055018-000136     911055006001023659026MUG OCC LOVE W/PLUSH   0000001000+00003507+00000+0001T   00003507+0000001109          1400 MU7515               1AZ
911055004911055112-116038     911055006009681820246TCS CARRIER BAG MIDI   0000001000+00000035+00000+0001T   00000035+0000001109          1400 MU7090               1AZ
911056000911056               911056               170213MD     1400+00000+MD0000002454+0000002454+000000000+000000344+0000002790+0000000008+I20000000000+0000002790+Z
911056001911056080-000124     911056006003000297733CARD & ENV VALENTINES  0000001000+00001578+00000+0001T   00001578+0000001112          1400 MU7112               1AZ
911056002911056077-000011-E   911056006001023808646TISSUE-WRAP PINK 10PCE 0000001000+00000876+00000+0001T   00000876+0000001112          1400 MU7112               1AZ
911057000911057               911057               170213MD     1400+00000+MD0000017542+0000017542+000000000+000002456+0000019990+0000000008+I20000000000+0000019990+Z
911057001911057028-002100     911057006003000243754CHAIR KIDDIES 68x50x48 0000002000+00008771+00000+0001T   00008771+0000001117          1400 MU7305               1AZ
911058000911058               911058               170213MD     1400+00000+MD0000014640+0000014640+000000000+000002052+0000016692+0000000000+I40000016692+0000000000+Z
911058001911058079-013111     911058006003000683024CREATE A HAT SET       0000001000+00003946+00000+0001T   00003946+0000001136          1400 MU7130               1AZ
911058002911058077-000378     911058006003000507955G/BAG LRG 25x32cm MOM  0000001000+00001753+00000+0001T   00001753+0000001136          1400 MU7112               1AZ
911058003911058079-013104     911058006001023863799CRAFT DIY HAND-BAG     0000001000+00002630+00000+0001T   00002630+0000001136          1400 MU7130               1AZ
911058004911058562-000051     911058006003000308798EDU EXCAVATION KIT ASST0000001000+00003507+00000+0001T   00003507+0000001136          1400 MU7755               1AZ
911058005911058079-013037     911058000795229376950ARTS & CRAFTS SETS ASST0000001000+00001314+00000+0001T   00001753+0008151136          1400 MU7130               1AZ
911058006911058077-000452     911058006003000284986G/BAG METALLIC MED EMB 0000001000+00001490+00000+0001T   00001490+0000001136          1400 MU7112               1AZ
911059000911059               911059               170213MD     1400+00000+MD0000006746+0000006746+000000000+000000945+0000007691+0000000000+I40000007691+0000000000+Z
911059001911059903-000194     911059006009826020616SWT CHOC RP LOLLY 25G  0000004000+00001314+00000+0001T   00001314+0000001138          1400 MU7150               1AZ
911059002911059077-000299     911059006003000395576G/BAG 32x25cm LRG LOVE 0000001000+00001490+00000+0001T   00001490+0000001138          1400 MU7112               1AZ
911060000911060               911060               170213MD     1400+00000+MD0000008503+0000008503+000000000+000001192+0000009690+0000000005+I20000000000+0000009690+Z
911060001911060566-001118     911060006003000682171STICKERS CELL PHONE    0000001000+00001753+00000+0001T   00001753+0000001144          1400 MU7130               1AZ
911060002911060079-006498     911060006001023836151GLITTER SET 10PCE      0000001000+00003507+00000+0001T   00003507+0000001144          1400 MU7130               1AZ
911060003911060009-001302     911060006001023854544MELAMINE FLOWER PLATE  0000001000+00001490+00000+0001T   00001490+0000001144          1400 MU7210               1AZ
911060004911060009-001304     911060006001023854575MELAMINE FLOWER PLATE  0000001000+00001753+00000+0001T   00001753+0000001144          1400 MU7210               1AZ
911061000911061               911061               170213MD     1400+00000+MD0000021964+0000021964+000000000+000003078+0000025040+0000000002+I20000000000+0000025040+Z
911061001911061079-013101     911061006001023863706CRAFT SET DIY PIPE-CLNR0000002000+00002630+00000+0001T   00002630+0000001148          1400 MU7130               1AZ
911061002911061079-013102     911061006003000019601ART+CRAFT DIY PIPE-CLNR0000003000+00002192+00000+0001T   00002192+0000001148          1400 MU7130               1AZ
911061003911061079-013098     911061006003000197040ART+CRAFT SET DIY      0000002000+00003069+00000+0001T   00003069+0000001148          1400 MU7130               1AZ
911061004911061112-116069     911061006009681820277TCS CARRIER BAG JUMBO  0000001000+00000048+00000+0001T   00000048+0000001148          1400 MU7090               1AZ
911061005911061007-000136     911061008427973108267BOOK COVER ROLL ASSTD  0000001000+00001314+00000+0001T   00001314+0000001148          1400 MU7130               1AZ
911061006911061007-000136     911061008427973108304BOOK COVER ROLL ASSTD  0000001000+00001314+00000+0001T   00001314+0000001148          1400 MU7130               1AZ
911061007911061007-000136     911061008427973108298BOOK COVER ROLL ASSTD  0000001000+00001314+00000+0001T   00001314+0000001148          1400 MU7130               1AZ
911062000911062               911062               170213MD     1400+00000+MD0000001753+0000001753+000000000+000000246+0000001990+0000000009+I20000000000+0000001990+Z
911062001911062072-020271     911062006001023719522CAT LITTER-SCOOP 33cm  0000001000+00001753+00000+0001T   00001753+0000001151          1400 MU7870               1AZ
911063000911063               911063               170213MD     1400+00000+MD0000001753+0000001753+000000000+000000246+0000001990+0000000009+I20000000000+0000001990+Z
911063001911063048-071510     911063006003000061716LIGHT B/O MAGIC BULB   0000001000+00001753+00000+0001T   00002630+0008191210          1400 MU7305               1AZ
911064000911064               911064               170213MD     1400+00000+MD0000000874+0000000874+000000000+000000124+0000000990+0000000008+I20000000000+0000000990+Z
911064001911064903-000012     911064006002099007308SWT MALLOW S/BERRY     0000002000+00000437+00000+0001T   00000437+0000001213          1400 MU7150               1AZ
911065000911065               911065               170213MD     1400+00000+MD0000000876+0000000876+000000000+000000123+0000000990+0000000009+I20000000000+0000000990+Z
911065001911065033-006001     911065006001023135933SEWING-KIT TRAVELLING  0000001000+00000876+00000+0001T   00000876+0000001213          1400 MU7200               1AZ
911066000911066               911066               170213MD     1400+00000+MD0000019426+0000019426+000000000+000002723+0000022140+0000000009+I20000000000+0000022140+Z
911066001911066467-000019     911066006001023746832BEACH-SET 16PCE BUCKET 0000001000+00007893+00000+0001T   00007893+0000001214          1400 MU7785               1AZ
911066002911066264-000925-403 911066004893993300006BURAGO 1:43 STREET FIRE0000001000+00005700+00000+0001T   00005700+0000001214          1400 MU7710               1AZ
911066003911066006-006018     911066006001023735256PARTY-SPRAY HAIR ASSORT0000001000+00002630+00000+0001T   00002630+0000001214          1400 MU7131               1AZ
911066004911066903-000095     911066006001704011495SWT SPECKLED-EGGS 100G 0000001000+00002104+00000+0001T   00002104+0000001214          1400 MU7150               1AZ
911066005911066112-116069     911066006009681820277TCS CARRIER BAG JUMBO  0000001000+00000048+00000+0001T   00000048+0000001214          1400 MU7090               1AZ
911066006911066903-002891     911066008935001721376MENTOS GUM WINTERGREEN 0000001000+00001051+00000+0001T   00001051+0000001214          1400 MU7150               1AZ
911067000911067               911067               170213MD     1400+00000+MD0000021482+0000021482+000000000+000003013+0000024495+0000000000+I40000024495+0000000000+Z
911067001911067112-116069     911067006009681820277TCS CARRIER BAG JUMBO  0000001000+00000048+00000+0001T   00000048+0000001218          1400 MU7090               1AZ
911067002911067159-000684     911067006001023776532BATH BODY-GLOVE 18cm   0000001000+00002630+00000+0001T   00002630+0000001218          1400 MU7200               1AZ
911067003911067306-000020     911067006001023743145POCKET-TISSUES 10PCE   0000002000+00000306+00000+0001T   00000306+0000001218          1400 MU7200               1AZ
911067004911067033-000642     911067006001023681201H/BRUSH PADDLE 24cm    0000001000+00003069+00000+0001T   00003069+0000001218          1400 MU7200               1AZ
911067005911067033-001363     911067006001023802057HAIR-CLIPS 50mm 48PCE  0000001000+00001139+00000+0001T   00001139+0000001218          1400 MU7200               1AZ
911067006911067079-000275     911067006003000160488PAINT-BRUSHES 6PCE PRO 0000002000+00001753+00000+0001T   00001753+0000001218          1400 MU7130               1AZ
911067007911067079-000590     911067006003000543236SKETCH PAD & PAINT SET 0000001000+00007016+00000+0001T   00007016+0000001218          1400 MU7130               1AZ
911067008911067084-000359     911067006003000642960NAIL MANICURE SET S/STE0000001000+00002630+00000+0001T   00002630+0000001218          1400 MU7200               1AZ
911067009911067159-000150-B   911067006003000058440SOAP-BOX PL ASSORTED   0000001000+00000832+00000+0001T   00000832+0000001218          1400 MU7200               1AZ
911068000911068               911068               170213MD     1400+00000+MD0000001788+0000001788+000000000+000000251+0000002030+0000000009+I20000000000+0000002030+Z
911068001911068040-000181     911068006001023870575C/HOLDER GLS ROUND     0000001000+00001753+00000+0001T   00001753+0000001225          1400 MU7510               1AZ
911068002911068112-116038     911068006009681820246TCS CARRIER BAG MIDI   0000001000+00000035+00000+0001T   00000035+0000001225          1400 MU7090               1AZ
911069000911069               911069               170213MD     1400+00000+MD0000001578+0000001578+000000000+000000221+0000001790+0000000009+I20000000000+0000001790+Z
911069001911069018-000127     911069006001023380289MUG OCC STRAIGHT LOVE  0000001000+00001578+00000+0001T   00001753+0006471238          1400 MU7515               1AZ
911070000911070               911070               170213MD     1400+00000+MD0000061259+0000061259+000000000+000008584+0000069843+0000000000+I40000069843+0000000000+Z
911070001911070105-009015     911070006003000467204STORAGE BOX 32L FROSTED0000003000+00011402+00000+0001T   00011402+0000001242          1400 MU7210               1AZ
911070002911070105-009010     911070006002923011518STORAGE BOX 16L GLIDER 0000002000+00007893+00000+0001T   00007893+0000001242          1400 MU7210               1AZ
911070003911070016-006505     911070006001023617576S/JAR GLS MINI CLIP    0000004000+00001490+00000+0001T   00001490+0000001242          1400 MU7300               1AZ
911070004911070104-000010     911070006001023507822BASKET 30x23cm RECT.   0000003000+00001753+00000+0001T   00001753+0000001242          1400 MU7210               1AZ
911070005911070112-116069     911070006009681820277TCS CARRIER BAG JUMBO  0000001000+00000048+00000+0001T   00000048+0000001242          1400 MU7090               1AZ
911071000911071               911071               170213MD     1400+00000+MD0000005262+0000005262+000000000+000000737+0000005990+0000000009+I20000000000+0000005990+Z
911071001911071159-003625     911071006001023902061TOILET-BRUSH W/STD 40cm0000001000+00005262+00000+0001T   00005262+0000001243          1400 MU7200               1AZ
911072000911072               911072               170213MD     1400+00000+MD0000008535+0000008535+000000000+000001198+0000009733+0000000000+I40000009733+0000000000+Z
911072001911072903-000698     911072006002099007032SWT CANDY ECLAIRS 90g  0000001000+00001139+00000+0001T   00001139+0000001245          1400 MU7150               1AZ
911072002911072079-006495     911072006003000159987GLITTER SHAKERS 6PK    0000001000+00002630+00000+0001T   00002630+0000001245          1400 MU7130               1AZ
911072003911072080-000102     911072006003000236855CARD&ENVLP FEMALE AFR  0000001000+00001753+00000+0001T   00001753+0000001245          1400 MU7112               1AZ
911072004911072112-116038     911072006009681820246TCS CARRIER BAG MIDI   0000001000+00000035+00000+0001T   00000035+0000001245          1400 MU7090               1AZ
911072005911072018-000177     911072006001023797513MUG MINI LOVE ASSTD    0000001000+00000700+00000+0001T   00000700+0000001245          1400 MU7515               1AZ
911072006911072903-000087     911072006001704000161SWT SPECKLED-EGGS 50G  0000001000+00001139+00000+0001T   00001139+0000001245          1400 MU7150               1AZ
911072007911072903-000710     911072006002099007056SWT REFRESHERS MINT    0000001000+00001139+00000+0001T   00001139+0000001245          1400 MU7150               1AZ
911073000911073               911073               170213MD     1400+00000+MD0000005469+0000005469+000000000+000000767+0000006230+0000000006+I20000000000+0000006230+Z
911073001911073033-006001     911073006001023135933SEWING-KIT TRAVELLING  0000002000+00000876+00000+0001T   00000876+0000001250          1400 MU7200               1AZ
911073002911073105-001066     911073006003000630912CONTAINER CLIP LOCK    0000001000+00001490+00000+0001T   00001490+0000001250          1400 MU7210               1AZ
911073003911073084-000365     911073006001023731135MANICURE SET ASSORTED  0000001000+00002192+00000+0001T   00002192+0000001250          1400 MU7200               1AZ
911073004911073112-116038     911073006009681820246TCS CARRIER BAG MIDI   0000001000+00000035+00000+0001T   00000035+0000001250          1400 MU7090               1AZ
911074000911074               911074               170213MD     1400+00000+MD0000003331+0000003331+000000000+000000467+0000003790+0000000008+I20000000000+0000003790+Z
911074001911074566-002004     911074006001023672421STICKERS CRYSTAL SHAPES0000001000+00001753+00000+0001T   00001753+0000001252          1400 MU7130               1AZ
911074002911074566-000506     911074006001023671455TATTOO BODY STICKER    0000001000+00001578+00000+0001T   00001578+0000001252          1400 MU7130               1AZ
911075000911075               911075               170213MD     1400+00000+MD0000011399+0000011399+000000000+000001598+0000012990+0000000007+I20000000000+0000012990+Z
911075001911075019-071601     911075006001023771995RIVER-STONES 1kg WHITE 0000001000+00002630+00000+0001T   00002630+0000001257          1400 MU7510               1AZ
911075002911075019-071594     911075006003000505579PEBBLES GLS 250g RED   0000001000+00002630+00000+0001T   00002630+0000001257          1400 MU7510               1AZ
911075003911075019-000084     911075006001023797247VASE GLASS GEOMETRIC   0000001000+00006139+00000+0001T   00006139+0000001257          1400 MU7510               1AZ
911076000911076               911076               170213MD     1400+00000+MD0000000047+0000000047+000000000+000000007+0000000050+0000000004+I20000000000+0000000050+Z
911076001911076019-071601     911076006001023771995RIVER-STONES 1kg WHITE 0000001000-00002630+00000+0001T   00002630+0000001306          1400 MU75101IC            1 Z
911076002911076019-071598     911076006001023693228PEBBLES GLS 250g WHITE 0000001000+00001753+00000+0001T   00001753+0000001306          1400 MU7510               1AZ
911076003911076077-000150-D   911076006003000054343GIFT-WRAP CELLPHANE CLR0000001000+00000876+00000+0001T   00000876+0000001306          1400 MU7112               1AZ
911076004911076112-116069     911076006009681820277TCS CARRIER BAG JUMBO  0000001000+00000048+00000+0001T   00000048+0000001306          1400 MU7090               1AZ
911077000911077               911077               170213MD     1400+00000+MD0000002454+0000002454+000000000+000000344+0000002790+0000000008+I20000000000+0000002790+Z
911077001911077251-000041     911077006001023515889SEAL-TAPE BUFF 48mmx50m0000002000+00001227+00000+0001T   00001227+0000001307          1400 MU7810               1AZ
911078000911078               911078               170213MD     1400+00000+MD0000030918+0000030918+000000000+000004331+0000035249+0000000000+I40000035249+0000000000+Z
911078001911078162-097719     911078006001492977195#TAG NECKLACE          0000001000+00004385+00000+0001T   00004385+0000001310          1400 MU7160               1AZ
911078002911078566-000359     911078006003000582709STICKER BOOK LOVE SPARK0000001000+00002192+00000+0001T   00002192+0000001310          1400 MU7130               1AZ
911078003911078077-000308     911078006001023595812GIFT-BAG 33X45CM E/DAY 0000001000+00001753+00000+0001T   00001753+0000001310          1400 MU7112               1AZ
911078004911078567-014133     911078006003000560103BOOK COLOURING 48 PAGE 0000001000+00001490+00000+0001T   00001490+0000001310          1400 MU7757               1AZ
911078005911078079-000198     911078006003000542475ART+CRAFT SET 66PCE    0000001000+00008771+00000+0001T   00008771+0000001310          1400 MU7130               1AZ
911078006911078497-058329     911078000078257583294BOAT EXPLORER 100      0000001000+00012279+00000+0001T   00012279+0000001310          1400 MU7787               1AZ
911078007911078112-116069     911078006009681820277TCS CARRIER BAG JUMBO  0000001000+00000048+00000+0001T   00000048+0000001310          1400 MU7090               1AZ
911079000911079               911079               170213MD     1400+00000+MD0000002454+0000002454+000000000+000000344+0000002790+0000000008+I20000000000+0000002790+Z
911079001911079206-000630     911079006003000631919SPECTACLE CLEANING BRUS0000002000+00001227+00000+0001T   00001227+0000001313          1400 MU7321               1AZ
911080000911080               911080               170213MD     1400+00000+MD0000005306+0000005306+000000000+000000745+0000006050+0000000001+I20000000000+0000006050+Z
911080001911080200-000125     911080006001023459749CUTLERY-SET 10PCE   H&L0000001000+00000876+00000+0001T   00000876+0000001317          1400 MU7214               1AZ
911080002911080366-007601     911080006003000655472DRESS UP MASK THEATRICA0000002000+00000876+00000+0001T   00000876+0000001317          1400 MU7131               1AZ
911080003911080366-002101     911080006003000617715DRESS UP MASK LIGHT UP 0000001000+00002630+00000+0001T   00002630+0000001317          1400 MU7131               1AZ
911080004911080112-116069     911080006009681820277TCS CARRIER BAG JUMBO  0000001000+00000048+00000+0001T   00000048+0000001317          1400 MU7090               1AZ
911081000911081               911081               170213MD     1400+00000+MD0000006173+0000006173+000000000+000000865+0000007030+0000000008+I20000000000+0000007030+Z
911081001911081004-010013     911081006001023667717HOLDER DISC 24 DIVISION0000001000+00004385+00000+0001T   00004385+0000001320          1400 MU7310               1AZ
911081002911081105-007021     911081006003000684779CONTAINER SQUARE CLR   0000001000+00001753+00000+0001T   00001753+0000001320          1400 MU7210               1AZ
911081003911081112-116038     911081006009681820246TCS CARRIER BAG MIDI   0000001000+00000035+00000+0001T   00000035+0000001320          1400 MU7090               1AZ
911082000911082               911082               170213MD     1400+00000+MD0000009645+0000009645+000000000+000001352+0000010990+0000000007+I20000000000+0000010990+Z
911082001911082366-006110     911082006003000636075DRESS UP HAIR CHALK 6  0000001000+00004385+00000+0001T   00004385+0000001323          1400 MU7131               1AZ
911082002911082006-006018     911082006001023735256PARTY-SPRAY HAIR ASSORT0000002000+00002630+00000+0001T   00002630+0000001323          1400 MU7131               1AZ
911083000911083               911083               170213MD     1400+00000+MD0000001314+0000001314+000000000+000000184+0000001490+0000000008+I20000000000+0000001490+Z
911083001911083077-000310     911083006001023608635GIFT-BAG 18X23CM GLOSS 0000001000+00001314+00000+0001T   00001314+0000001328          1400 MU7112               1AZ
911084000911084               911084               170213MD     1400+00000+MD0000003507+0000003507+000000000+000000491+0000003990+0000000008+I20000000000+0000003990+Z
911084001911084077-000932     911084006003000409808G/WRAP 700mmx5m PATTERN0000001000+00003507+00000+0001T   00003507+0000001332          1400 MU7112               1AZ
911085000911085               911085               170213MD     1400+00000+MD0000019341+0000019341+000000000+000002709+0000000000+0000000000+ 00000000000+0000000000+Z
911085001911085368-000111     911085006001023780812PLUSH BEAR/DOG 29CM    0000001000+00012279+00000+0001T   00012279+000000              1400 MU77451IC            1 Z
911085002911085018-005009     911085006001023725608MUG W/PLUSH-BEAR LOVE  0000001000+00003507+00000+0001T   00003507+000000              1400 MU75151IC            1 Z
911085003911085018-000130     911085006001023867537MUG OCC LOVE MINI+HEART0000001000+00003507+00000+0001T   00003507+000000              1400 MU75151IC            1 Z
911085004911085112-116069     911085006009681820277TCS CARRIER BAG JUMBO  0000001000+00000048+00000+0001T   00000048+000000              1400 MU70901IC            1 Z
911086000911086               911086               170213MD     1400+00000+MD0000021096+0000021096+000000000+000002956+0000024052+0000000000+I40000024052+0000000000+Z
911086001911086018-050000     911086006003000412679MUG OCC LOVE TWIN BEAR 0000001000+00006139+00000+0001T   00006139+0000001340          1400 MU7515               1AZ
911086002911086368-000111     911086006001023780812PLUSH BEAR/DOG 29CM    0000001000+00012279+00000+0001T   00012279+0000001340          1400 MU7745               1AZ
911086003911086077-000270     911086006003000395453GIFT-BAG PPR JMB 33X45 0000001000+00002630+00000+0001T   00002630+0000001340          1400 MU7112               1AZ
911086004911086112-116069     911086006009681820277TCS CARRIER BAG JUMBO  0000001000+00000048+00000+0001T   00000048+0000001340          1400 MU7090               1AZ
911087000911087               911087               170213MD     1400+00000+MD0000021352+0000021352+000000000+000002992+0000024344+0000000000+I40000024344+0000000000+Z
911087001911087018-000127     911087006001023380289MUG OCC STRAIGHT LOVE  0000002000+00001578+00000+0001T   00001753+0006471343          1400 MU7515               1AZ
911087002911087903-005003     911087006002580020106SWT DINKY DUMMIES 5PK  0000001000+00001490+00000+0001T   00001490+0000001343          1400 MU7150               1AZ
911087003911087903-000215     911087006002099001214SWT GS MALLOW TWIST PAC0000001000+00001753+00000+0001T   00001753+0000001343          1400 MU7150               1AZ
911087004911087366-000401     911087006003000242047DRESS UP PRINCESS SET  0000001000+00004385+00000+0001T   00004385+0000001343          1400 MU7131               1AZ
911087005911087361-000431     911087006003000243518DOLL 15cm BENDABLE SET 0000001000+00006139+00000+0001T   00006139+0000001343          1400 MU7725               1AZ
911087006911087112-116069     911087006009681820277TCS CARRIER BAG JUMBO  0000001000+00000048+00000+0001T   00000048+0000001343          1400 MU7090               1AZ
911087007911087077-000520     911087006001023908254GIFT-BAG 25X32CM       0000001000+00001753+00000+0001T   00001753+0000001343          1400 MU7112               1AZ
911087008911087077-000310     911087006001023608635GIFT-BAG 18X23CM GLOSS 0000002000+00001314+00000+0001T   00001314+0000001343          1400 MU7112               1AZ
911088000911088               911088               170213MD     1400+00000+MD0000021964+0000021964+000000000+000003079+0000025043+0000000000+I40000025043+0000000000+Z
911088001911088566-000863     911088006001023788351STICKERS LASER 20x25cm 0000001000+00002630+00000+0001T   00002630+0000001345          1400 MU7130               1AZ
911088002911088112-116069     911088006009681820277TCS CARRIER BAG JUMBO  0000001000+00000048+00000+0001T   00000048+0000001345          1400 MU7090               1AZ
911088003911088566-000950     911088006003000216048STICKERS 3 STYLES 100PC0000002000+00002192+00000+0001T   00002192+0000001345          1400 MU7130               1AZ
911088004911088566-000863     911088006001023788351STICKERS LASER 20x25cm 0000001000+00002630+00000+0001T   00002630+0000001345          1400 MU7130               1AZ
911088005911088267-000054     911088006003000673223PUZZLE 4D MODEL PLANE  0000001000+00001753+00000+0001T   00001753+0000001345          1400 MU7755               1AZ
911088006911088566-000007     911088006001023761187S/BOOK SUPER VALUE     0000001000+00001753+00000+0001T   00001753+0000001345          1400 MU7130               1AZ
911088007911088562-000020     911088006003000600861EDU PLAY DOUGH 60g 4PC 0000001000+00003507+00000+0001T   00003507+0000001345          1400 MU7755               1AZ
911088008911088562-000011     911088006003000600984PLAY DOUGH NEON TUBE   0000001000+00003507+00000+0001T   00003507+0000001345          1400 MU7755               1AZ
911088009911088903-000006     911088006923431571571SWEET GS SOUR BELT 50g 0000002000+00000876+00000+0001T   00000876+0000001345          1400 MU7150               1AZ
911089000911089               911089               170213MD     1400+00000+MD0000013583+0000013583+000000000+000001907+0000015490+0000000000+I20000000000+0000015490+Z
911089001911089080-000133     911089006003000535613CARD&ENV MINI ASTD DSGN0000001000+00000437+00000+0001T   00000437+0000001346          1400 MU7112               1AZ
911089002911089080-000133-A   911089006003000647019MINI VALENTINES CARD   0000001000+00000437+00000+0001T   00000437+0000001346          1400 MU7112               1AZ
911089003911089080-000133     911089006003000535613CARD&ENV MINI ASTD DSGN0000001000+00000437+00000+0001T   00000437+0000001346          1400 MU7112               1AZ
911089004911089084-009407     911089006001023861726SCISSORS 13cm MTL PL-H 0000001000+00001753+00000+0001T   00001753+0000001346          1400 MU7200               1AZ
911089005911089566-002004     911089006001023672421STICKERS CRYSTAL SHAPES0000004000+00001753+00000+0001T   00001753+0000001346          1400 MU7130               1AZ
911089006911089007-000324     91108900600968585864125 SHEETS BRIGHTS MARLI0000001000+00003507+00000+0001T   00003507+0000001346          1400 MU7130               1AZ
911090000911090               911090               170213MD     1400+00000+MD0000018197+0000018197+000000000+000002551+0000020740+0000000008+I20000000000+0000020740+Z
911090001911090466-000517     911090006001023752017BALL TENNIS RED CRICKET0000002000+00001139+00000+0001T   00001139+0000001347          1400 MU7785               1AZ
911090002911090112-116069     911090006009681820277TCS CARRIER BAG JUMBO  0000001000+00000048+00000+0001T   00000048+0000001347          1400 MU7090               1AZ
911090003911090466-000620     911090006003000537617BALL SPORT SET 5.5CM   0000001000+00003946+00000+0001T   00003946+0000001347          1400 MU7785               1AZ
911090004911090077-000315     911090006003000181186GIFT-BAG 20x28cm MATT  0000001000+00001578+00000+0001T   00001578+0000001347          1400 MU7112               1AZ
911090005911090018-050000     911090006003000412679MUG OCC LOVE TWIN BEAR 0000001000+00006139+00000+0001T   00006139+0000001347          1400 MU7515               1AZ
911090006911090903-000095     911090006001704011495SWT SPECKLED-EGGS 100G 0000002000+00002104+00000+0001T   00002104+0000001347          1400 MU7150               1AZ
911091000911091               911091               170213MD     1400+00000+MD0000003542+0000003542+000000000+000000496+0000004030+0000000008+I20000000000+0000004030+Z
911091001911091018-005009     911091006001023725608MUG W/PLUSH-BEAR LOVE  0000001000+00003507+00000+0001T   00003507+0000001348          1400 MU7515               1AZ
911091002911091112-116038     911091006009681820246TCS CARRIER BAG MIDI   0000001000+00000035+00000+0001T   00000035+0000001348          1400 MU7090               1AZ
911092000911092               911092               170213MD     1400+00000+MD0000013535+0000013535+000000000+000001898+0000015433+0000000000+I40000015433+0000000000+Z
911092001911092112-116038     911092006009681820246TCS CARRIER BAG MIDI   0000001000+00000035+00000+0001T   00000035+0000001401          1400 MU7090               1AZ
911092002911092903-000918     911092006009802868522SWEET GUM TAPE H/KITTY 0000001000+00001753+00000+0001T   00001753+0000001401          1400 MU7150               1AZ
911092003911092903-000111     911092006001704006378SWT LIQUORICE-TWISTS   0000001000+00001227+00000+0001T   00001227+0000001401          1400 MU7150               1AZ
911092004911092079-000590     911092006003000543236SKETCH PAD & PAINT SET 0000001000+00007016+00000+0001T   00007016+0000001401          1400 MU7130               1AZ
911092005911092903-000006     911092006923431571571SWEET GS SOUR BELT 50g 0000001000+00000876+00000+0001T   00000876+0000001401          1400 MU7150               1AZ
911092006911092903-000520     911092006001704009898SWT GUMMY MINI SOUR 60g0000003000+00000876+00000+0001T   00000876+0000001401          1400 MU7150               1AZ
911093000911093               911093               170213MD     1400+00000+MD0000006606+0000006606+000000000+000000929+0000007530+0000000005+I20000000000+0000007530+Z
911093001911093080-000133-A   911093006003000647019MINI VALENTINES CARD   0000003000+00000437+00000+0001T   00000437+0000001402          1400 MU7112               1AZ
911093002911093016-006425     911093006001023998170S/JAR GLS CLIP W/RIBBON0000001000+00002630+00000+0001T   00002630+0000001402          1400 MU7300               1AZ
911093003911093112-116038     911093006009681820246TCS CARRIER BAG MIDI   0000001000+00000035+00000+0001T   00000035+0000001402          1400 MU7090               1AZ
911093004911093016-006425     911093006001023998170S/JAR GLS CLIP W/RIBBON0000001000+00002630+00000+0001T   00002630+0000001402          1400 MU7300               1AZ
911094000911094               911094               170213MD     1400+00000+MD0000003710+0000003710+000000000+000000524+0000004230+0000000004+I20000000000+0000004230+Z
911094001911094903-000200     911094006009826020234SWT CHOC RP CHOCO 23G  0000003000+00000788+00000+0001T   00000788+0000001404          1400 MU7150               1AZ
911094002911094112-116038     911094006009681820246TCS CARRIER BAG MIDI   0000001000+00000035+00000+0001T   00000035+0000001404          1400 MU7090               1AZ
911094003911094080-000133-A   911094006003000647019MINI VALENTINES CARD   0000003000+00000437+00000+0001T   00000437+0000001404          1400 MU7112               1AZ
911095000911095               911095               170213MD     1400+00000+MD0000001224+0000001224+000000000+000000172+0000001390+0000000006+I20000000000+0000001390+Z
911095001911095079-009700-A   911095006003000547746PAPER SIRIO A4 BLACK   0000002000+00000306+00000+0001T   00000306+0000001405          1400 MU7130               1AZ
911095002911095079-009700-L   911095006003000546350PAPER SIRIO A4 YELLOW  0000002000+00000306+00000+0001T   00000306+0000001405          1400 MU7130               1AZ
911096000911096               911096               170213MD     1400+00000+MD0000009238+0000009238+000000000+000001296+0000010534+0000000000+I40000010534+0000000000+Z
911096001911096112-116038     911096006009681820246TCS CARRIER BAG MIDI   0000001000+00000035+00000+0001T   00000035+0000001410          1400 MU7090               1AZ
911096002911096903-000809     911096006009680772232SWT CANDY FROOTEEZ 50g 0000001000+00000876+00000+0001T   00000876+0000001410          1400 MU7150               1AZ
911096003911096903-000885     911096008690997017147SWT L/BIRD CHOC BISCUIT0000001000+00000437+00000+0001T   00000437+0000001410          1400 MU7150               1AZ
911096004911096368-000049     911096006003000536955PLUSH BEAR 15cm LOVE   0000001000+00004385+00000+0001T   00004385+0000001410          1400 MU7745               1AZ
911096005911096077-000303     911096006001023593757GIFT-BAG PAPER MED     0000001000+00001578+00000+0001T   00001578+0000001410          1400 MU7112               1AZ
911096006911096903-000862     911096005010478533912SWT DOUBLE DIP 19G     0000001000+00001139+00000+0001T   00001139+0000001410          1400 MU7150               1AZ
911096007911096903-000200     911096006009826020234SWT CHOC RP CHOCO 23G  0000001000+00000788+00000+0001T   00000788+0000001410          1400 MU7150               1AZ
911097000911097               911097               170213MD     1400+00000+MD0000000306+0000000306+000000000+000000043+0000000340+0000000009+I20000000000+0000000340+Z
911097001911097007-000234     911097006009685850638LABELS 24PK            0000001000+00000306+00000+0001T   00000306+0000001410          1400 MU7130               1AZ
911098000911098               911098               170213MD     1400+00000+MD0000001753+0000001753+000000000+000000246+0000001999+0000000000+I40000001999+0000000000+Z
911098001911098072-020271     911098006001023719522CAT LITTER-SCOOP 33cm  0000001000+00001753+00000+0001T   00001753+0000001413          1400 MU7870               1AZ
911099000911099               911099               170213MD     1400+00000+MD0000001753+0000001753+000000000+000000246+0000001990+0000000009+I20000000000+0000001990+Z
911099001911099080-000111     911099006003000252695CARD&ENVELPE - MUSICAL 0000001000+00001753+00000+0001T   00001753+0000001413          1400 MU7112               1AZ
911100000911100               911100               170213MD     1400+00000+MD0000000876+0000000876+000000000+000000123+0000000990+0000000009+I20000000000+0000000990+Z
911100001911100039-000319-2   911100006003000442508B/CANDLES LRG NUMBER-2 0000001000+00000876+00000+0001T   00000876+0000001414          1400 MU7510               1AZ
911101000911101               911101               170213MD     1400+00000+MD0000002630+0000002630+000000000+000000369+0000002990+0000000009+I20000000000+0000002990+Z
911101001911101071-008231     911101006001023811332PENCIL-BAG 20cm        0000001000+00002630+00000+0001T   00002630+0000001414          1400 MU7130               1AZ
911102000911102               911102               170213MD     1400+00000+MD0000010726+0000010726+000000000+000001504+0000012230+0000000000+I20000000000+0000012230+Z
911102001911102112-116038     911102006009681820246TCS CARRIER BAG MIDI   0000001000+00000035+00000+0001T   00000035+0000001418          1400 MU7090               1AZ
911102002911102018-005009     911102006001023725608MUG W/PLUSH-BEAR LOVE  0000001000+00003507+00000+0001T   00003507+0000001418          1400 MU7515               1AZ
911102003911102261-000121     911102006001023341600GUN-CAPS 8-SHOT CARD-9 0000002000+00000700+00000+0001T   00000700+0000001418          1400 MU7710               1AZ
911102004911102565-000889     911102006003000626953NOVELTY SPACE BALLOONS 0000001000+00001753+00000+0001T   00001753+0000001418          1400 MU7745               1AZ
911102005911102006-000339     911102006003000090556GLOW WRISTBAND         0000001000+00001490+00000+0001T   00001490+0000001418          1400 MU7131               1AZ
911102006911102261-002267     911102006001023665126GUN 8-SHOT SUPER-CAP   0000001000+00001753+00000+0001T   00001753+0000001418          1400 MU7710               1AZ
911102007911102903-000200     911102006009826020234SWT CHOC RP CHOCO 23G  0000001000+00000788+00000+0001T   00000788+0000001418          1400 MU7150               1AZ
911103000911103               911103               170213MD     1400+00000+MD0000007662+0000007662+000000000+000001074+0000008730+0000000006+I20000000000+0000008730+Z
911103001911103112-116038     911103006009681820246TCS CARRIER BAG MIDI   0000001000+00000035+00000+0001T   00000035+0000001419          1400 MU7090               1AZ
911103002911103018-005009     911103006001023725608MUG W/PLUSH-BEAR LOVE  0000001000+00003507+00000+0001T   00003507+0000001419          1400 MU7515               1AZ
911103003911103466-072725     911103006001023622532YO-YO PL               0000001000+00002630+00000+0001T   00002630+0000001419          1400 MU7785               1AZ
911103004911103007-000566     911103006003000640898NOVELTY PHONE NOTE-PAD 0000001000+00001490+00000+0001T   00001490+0000001419          1400 MU7130               1AZ
911104000911104               911104               170213MD     1400+00000+MD0000031775+0000031775+000000000+000004453+0000036220+0000000008+I20000000000+0000036220+Z
911104001911104112-116038     911104006009681820246TCS CARRIER BAG MIDI   0000001000+00000035+00000+0001T   00000035+0000001423          1400 MU7090               1AZ
911104002911104301-085007     911104006003000673698ORN OCC. LOVE S/PLAQUE 0000001000+00007893+00000+0001T   00007893+0000001423          1400 MU7505               1AZ
911104003911104080-000133-A   911104006003000647019MINI VALENTINES CARD   0000001000+00000437+00000+0001T   00000437+0000001423          1400 MU7112               1AZ
911104004911104301-086006     911104006003000498918ORN OCCASION LOVE 4ASTD0000001000+00005262+00000+0001T   00005262+0000001423          1400 MU7505               1AZ
911104005911104041-093000     911104006003000320882B/GIFT SET 4PC B/RANGE 0000001000+00007016+00000+0001T   00007016+0000001423          1400 MU7200               1AZ
911104006911104018-000177     911104006001023797513MUG MINI LOVE ASSTD    0000001000+00000700+00000+0001T   00000700+0000001423          1400 MU7515               1AZ
911104007911104903-000200     911104006009826020234SWT CHOC RP CHOCO 23G  0000001000+00000788+00000+0001T   00000788+0000001423          1400 MU7150               1AZ
911104008911104077-000475     911104006003000640775GIFT-BAG DESIGNER MED  0000001000+00002630+00000+0001T   00002630+0000001423          1400 MU7112               1AZ
911104009911104039-080942     911104006001023669872C/PILLAR RND WHT 10X7CM0000002000+00003507+00000+0001T   00003507+0000001423          1400 MU7510               1AZ
911105000911105               911105               170213MD     1400+00000+MD0000003069+0000003069+000000000+000000430+0000003490+0000000009+I20000000000+0000003490+Z
911105001911105089-060027     911105006003000245871KEY-CHAIN HEART 6X6cm  0000001000+00003069+00000+0001T   00003069+0000001425          1400 MU7205               1AZ
911106000911106               911106               170213MD     1400+00000+MD0000001753+0000001753+000000000+000000246+0000001999+0000000000+I40000001999+0000000000+Z
911106001911106565-001212     911106006001023658173NOVELTY MAGIC-SPRING   0000001000+00001753+00000+0001T   00001753+0000001432          1400 MU7745               1AZ
911107000911107               911107               170213MD     1400+00000+MD0000010786+0000010786+000000000+000001511+0000012290+0000000007+I20000000000+0000012290+Z
911107001911107024-000036     911107006001023477002MEASURING-JUG 500ml    0000001000+00001578+00000+0001T   00001578+0000001435          1400 MU7300               1AZ
911107002911107024-000018     911107006001023610232CAKE-DEC S/S NOZZLE    0000001000+00003946+00000+0001T   00003946+0000001435          1400 MU7300               1AZ
911107003911107024-000168-B   911107006003000674916T/PLATE BAKEWARE ROASTE0000001000+00005262+00000+0001T   00005262+0000001435          1400 MU7300               1AZ
911108000911108               911108               170213MD     1400+00000+MD0000002804+0000002804+000000000+000000394+0000003190+0000000008+I20000000000+0000003190+Z
911108001911108105-001005     911108006001023858214CONTAINERS MINI 6PCE   0000001000+00001402+00000+0001T   00001402+0000001443          1400 MU7210               1AZ
911108002911108105-000750     911108006003000190270CONTAINERS 4xMINI 150ml0000001000+00001402+00000+0001T   00001402+0000001443          1400 MU7210               1AZ
911109000911109               911109               170213MD     1400+00000+MD0000001490+0000001490+000000000+000000209+0000001690+0000000009+I20000000000+0000001690+Z
911109001911109077-000305     911109006003000395422GIFT-BAG WINE 10X35CM  0000001000+00001490+00000+0001T   00001490+0000001444          1400 MU7112               1AZ
911110000911110               911110               170213MD     1400+00000+MD0000004120+0000004120+000000000+000000578+0000004690+0000000008+I20000000000+0000004690+Z
911110001911110048-000859     911110006003000423422TORCH 9 LED PL 3XAAA   0000001000+00001753+00000+0001T   00001753+0000001446          1400 MU7305               1AZ
911110002911110046-000010-A   911110006003000438778BATTERIES SIZE:AAA 4PCE0000001000+00002367+00000+0001T   00002367+0000001446          1400 MU7312               1AZ
911111000911111               911111               170213MD     1400+00000+MD0000027931+0000027931+000000000+000003914+0000031845+0000000000+I40000031845+0000000000+Z
911111001911111112-116069     911111006009681820277TCS CARRIER BAG JUMBO  0000001000+00000048+00000+0001T   00000048+0000001452          1400 MU7090               1AZ
911111002911111059-011605     911111006001023384072LANTERN 24cm ASSTD-CLRS0000003000+00003946+00000+0001T   00005262+0008191452          1400 MU7305               1AZ
911111003911111071-001124     911111006001023802873MARKERS WHITEBOARD 3PCE0000001000+00002630+00000+0001T   00002630+0000001452          1400 MU7130               1AZ
911111004911111105-001247     911111006003000623310CONTAINER RECT 3PCE    0000001000+00002630+00000+0001T   00002630+0000001452          1400 MU7210               1AZ
911111005911111105-000605     911111006005387000517STORAGE CONTAINRS 250ml0000001000+00003771+00000+0001T   00003771+0000001452          1400 MU7210               1AZ
911111006911111105-003027     911111006001023114129CONTAINERS PL MINI 4PC 0000002000+00003507+00000+0001T   00004385+0008161452          1400 MU7210               1AZ
911112000911112               911112               170213MD     1400+00000+MD0000002626+0000002626+000000000+000000370+0000002990+0000000006+I20000000000+0000002990+Z
911112001911112903-000155     911112006009803374435SWT LOLLY I LUV U HEART0000002000+00000525+00000+0001T   00000525+0000001454          1400 MU7150               1AZ
911112002911112903-000200     911112006009826020234SWT CHOC RP CHOCO 23G  0000002000+00000788+00000+0001T   00000788+0000001454          1400 MU7150               1AZ
911113000911113               911113               170213MD     1400+00000+MD0000003857+0000003857+000000000+000000541+0000004390+0000000008+I20000000000+0000004390+Z
911113001911113366-002799     911113006003000648238DRESSUP S/ADH FACE HAIR0000001000+00001753+00000+0001T   00001753+0000001500          1400 MU7131               1AZ
911113002911113903-000095     911113006001704011495SWT SPECKLED-EGGS 100G 0000001000+00002104+00000+0001T   00002104+0000001500          1400 MU7150               1AZ
911114000911114               911114               170213MD     1400+00000+MD0000012447+0000012447+000000000+000001746+0000014190+0000000003+I20000000000+0000014190+Z
911114001911114046-000012-VP  911114006003000537914BATTERIES H/P SIZE:AA  0000001000+00004823+00000+0001T   00004823+0000001500          1400 MU7312               1AZ
911114002911114203-007000     911114006001023886040SHOT-GLASS DISPOSABLE  0000001000+00003507+00000+0001T   00003507+0000001500          1400 MU7300               1AZ
911114003911114088-000016     911114006003000525294AIR FRESHENER FRIDGE   0000001000+00001753+00000+0001T   00001753+0000001500          1400 MU7212               1AZ
911114004911114903-000200     911114006009826020234SWT CHOC RP CHOCO 23G  0000003000+00000788+00000+0001T   00000788+0000001500          1400 MU7150               1AZ
911115000911115               911115               170213MD     1400+00000+MD0000010833+0000010833+000000000+000001519+0000012352+0000000000+I40000012352+0000000000+Z
911115001911115079-011520     911115006003000160549ART+CRAFT SET SAND BOTL0000001000+00007016+00000+0001T   00007893+0008191530          1400 MU7130               1AZ
911115002911115079-000207     911115006003000639120COLORING SECRET GARDEN 0000001000+00001753+00000+0001T   00001753+0000001530          1400 MU7130               1AZ
911115003911115903-000921     911115006939495519107SWT NOVELTY SLUSH PUPPY0000001000+00002016+00000+0001T   00002016+0000001530          1400 MU7150               1AZ
911115004911115112-116069     911115006009681820277TCS CARRIER BAG JUMBO  0000001000+00000048+00000+0001T   00000048+0000001530          1400 MU7090               1AZ
911116000911116               911116               170213MD     1400+00000+MD0000007050+0000007050+000000000+000000988+0000008030+0000000008+I20000000000+0000008030+Z
911116001911116366-006110     911116006003000636075DRESS UP HAIR CHALK 6  0000001000+00004385+00000+0001T   00004385+0000001531          1400 MU7131               1AZ
911116002911116079-006495     911116006003000159987GLITTER SHAKERS 6PK    0000001000+00002630+00000+0001T   00002630+0000001531          1400 MU7130               1AZ
911116003911116112-116038     911116006009681820246TCS CARRIER BAG MIDI   0000001000+00000035+00000+0001T   00000035+0000001531          1400 MU7090               1AZ
911117000911117               911117               170213MD     1400+00000+MD0000001314+0000001314+000000000+000000184+0000001490+0000000008+I20000000000+0000001490+Z
911117001911117072-000235     911117006003000236183DOG-COLLAR REFLECTIVE  0000001000+00001314+00000+0001T   00001753+0008191534          1400 MU7870               1AZ
911118000911118               911118               170213MD     1400+00000+MD0000014605+0000014605+000000000+000002047+0000016650+0000000002+I20000000000+0000016650+Z
911118001911118368-000111     911118006001023780812PLUSH BEAR/DOG 29CM    0000001000+00012279+00000+0001T   00012279+0000001544          1400 MU7745               1AZ
911118002911118112-116069     911118006009681820277TCS CARRIER BAG JUMBO  0000001000+00000048+00000+0001T   00000048+0000001544          1400 MU7090               1AZ
911118003911118077-000010-C   911118006001023123879CREPE-PAPER RED        0000001000+00000788+00000+0001T   00000788+0000001544          1400 MU7112               1AZ
911118004911118077-000299     911118006003000395576G/BAG 32x25cm LRG LOVE 0000001000+00001490+00000+0001T   00001490+0000001544          1400 MU7112               1AZ
911119000911119               911119               170213MD     1400+00000+MD0000008981+0000008981+000000000+000001264+0000010240+0000000005+I20000000000+0000010240+Z
911119001911119112-116069     911119006009681820277TCS CARRIER BAG JUMBO  0000001000+00000048+00000+0001T   00000048+0000001546          1400 MU7090               1AZ
911119002911119071-081103     911119006003000197002GLUE STICKS LIQUID 3PCE0000001000+00001753+00000+0001T   00001753+0000001546          1400 MU7130               1AZ
911119003911119077-000010-C   911119006001023123879CREPE-PAPER RED        0000008000+00000788+00000+0001T   00000788+0000001546          1400 MU7112               1AZ
911119004911119071-005213     911119006001023690371CELLOTAPE 12mmx33m     0000001000+00000876+00000+0001T   00000876+0000001546          1400 MU7130               1AZ
911120000911120               911120               170213MD     1400+00000+MD0000011400+0000011400+000000000+000001597+0000012997+0000000000+I40000012997+0000000000+Z
911120001911120082-098782     911120006001492987828SUNGLASS KIDS GIRLS CAT0000001000+00003507+00000+0001T   00003507+0000001552          1400 MU7160               1AZ
911120002911120586-098612     911120006001492986128WATCH KIDS RUBBER ASSTD0000001000+00007893+00000+0001T   00007893+0000001552          1400 MU7160               1AZ
911121000911121               911121               170213MD     1400+00000+MD0000004557+0000004557+000000000+000000640+0000005190+0000000007+I20000000000+0000005190+Z
911121001911121080-000133-A   911121006003000647019MINI VALENTINES CARD   0000001000+00000437+00000+0001T   00000437+0000001553          1400 MU7112               1AZ
911121002911121077-000305     911121006003000395422GIFT-BAG WINE 10X35CM  0000001000+00001490+00000+0001T   00001490+0000001553          1400 MU7112               1AZ
911121003911121085-007038     911121006001024039896P/KNIFE 8cm-BLD PL/GRIP0000001000+00002630+00000+0001T   00002630+0000001553          1400 MU7305               1AZ
911122000911122               911122               170213MD     1400+00000+MD0000004385+0000004385+000000000+000000614+0000004990+0000000009+I20000000000+0000004990+Z
911122001911122050-000880-TS  911122006003000688098PADLOCK COMBO BRS 4 WHL0000001000+00004385+00000+0001T   00004385+0000001555          1400 MU7855               1AZ
911123000911123               911123               170213MD     1400+00000+MD0000002629+0000002629+000000000+000000369+0000002990+0000000008+I20000000000+0000002990+Z
911123001911123007-000045     911123006009608640438DISPLAY-POCKETS A4 10PC0000001000+00000876+00000+0001T   00000876+0000001559          1400 MU7130               1AZ
911123002911123007-000205     911123006002324000432FILE BINDER 2-RING A4  0000001000+00001753+00000+0001T   00001753+0000001559          1400 MU7130               1AZ
911124000911124               911124               170213MD     1400+00000+MD0000003027+0000003027+000000000+000000425+0000003450+0000000002+I20000000000+0000003450+Z
911124001911124080-000113     911124006003000237449CARD&ENVLPE - LOVE     0000001000+00001753+00000+0001T   00001753+0000001604          1400 MU7112               1AZ
911124002911124077-000321     911124006001023677501GIFT-BAG 11X14CM E/D FL0000002000+00000613+00000+0001T   00000613+0000001604          1400 MU7112               1AZ
911124003911124112-116069     911124006009681820277TCS CARRIER BAG JUMBO  0000001000+00000048+00000+0001T   00000048+0000001604          1400 MU7090               1AZ
911125000911125               911125               170213MD     1400+00000+MD0000002630+0000002630+000000000+000000369+0000002990+0000000009+I20000000000+0000002990+Z
911125001911125079-013101     911125006001023863706CRAFT SET DIY PIPE-CLNR0000001000+00002630+00000+0001T   00002630+0000001606          1400 MU7130               1AZ
911126000911126               911126               170213MD     1400+00000+MD0000007062+0000007062+000000000+000000989+0000008051+0000000000+I40000008051+0000000000+Z
911126001911126562-000011     911126006003000600984PLAY DOUGH NEON TUBE   0000002000+00003507+00000+0001T   00003507+0000001609          1400 MU7755               1AZ
911126002911126112-116069     911126006009681820277TCS CARRIER BAG JUMBO  0000001000+00000048+00000+0001T   00000048+0000001609          1400 MU7090               1AZ
911127000911127               911127               170213MD     1400+00000+MD0000001752+0000001752+000000000+000000246+0000001990+0000000008+I20000000000+0000001990+Z
911127001911127903-000006     911127006923431571571SWEET GS SOUR BELT 50g 0000002000+00000876+00000+0001T   00000876+0000001609          1400 MU7150               1AZ
911128000911128               911128               170213MD     1400+00000+MD0000004420+0000004420+000000000+000000619+0000005030+0000000009+I20000000000+0000005030+Z
911128001911128368-000049     911128006003000536955PLUSH BEAR 15cm LOVE   0000001000+00004385+00000+0001T   00004385+0000001611          1400 MU7745               1AZ
911128002911128112-116038     911128006009681820246TCS CARRIER BAG MIDI   0000001000+00000035+00000+0001T   00000035+0000001611          1400 MU7090               1AZ
911129000911129               911129               170213MD     1400+00000+MD0000002630+0000002630+000000000+000000369+0000002990+0000000009+I20000000000+0000002990+Z
911129001911129079-006495     911129006003000159987GLITTER SHAKERS 6PK    0000001000+00002630+00000+0001T   00002630+0000001611          1400 MU7130               1AZ
911130000911130               911130               170213MD     1400+00000+MD0000003555+0000003555+000000000+000000498+0000004050+0000000003+I20000000000+0000004050+Z
911130001911130018-000136     911130006001023659026MUG OCC LOVE W/PLUSH   0000001000+00003507+00000+0001T   00003507+0000001615          1400 MU7515               1AZ
911130002911130112-116069     911130006009681820277TCS CARRIER BAG JUMBO  0000001000+00000048+00000+0001T   00000048+0000001615          1400 MU7090               1AZ
911131000911131               911131               170213MD     1400+00000+MD0000001753+0000001753+000000000+000000246+0000001990+0000000009+I20000000000+0000001990+Z
911131001911131366-007600     911131006001023902184MASK THEATRICAL GLITTER0000001000+00001753+00000+0001T   00001753+0000001615          1400 MU7131               1AZ
911132000911132               911132               170213MD     1400+00000+MD0000004385+0000004385+000000000+000000614+0000004990+0000000009+I20000000000+0000004990+Z
911132001911132368-000049     911132006003000536955PLUSH BEAR 15cm LOVE   0000001000+00004385+00000+0001T   00004385+0000001616          1400 MU7745               1AZ
911133000911133               911133               170213MD     1400+00000+MD0000003990+0000003990+000000000+000000561+0000004551+0000000000+I40000004551+0000000000+Z
911133001911133903-000138     911133006002099004314SWT GS WINE GUMS 60G   0000001000+00000788+00000+0001T   00000788+0000001618          1400 MU7150               1AZ
911133002911133112-116069     911133006009681820277TCS CARRIER BAG JUMBO  0000001000+00000048+00000+0001T   00000048+0000001618          1400 MU7090               1AZ
911133003911133903-000138     911133006002099004314SWT GS WINE GUMS 60G   0000001000+00000788+00000+0001T   00000788+0000001618          1400 MU7150               1AZ
911133004911133903-000709     911133006002099007070SWT QUENCHERS FRUIT    0000001000+00001139+00000+0001T   00001139+0000001618          1400 MU7150               1AZ
911133005911133903-000111     911133006001704006378SWT LIQUORICE-TWISTS   0000001000+00001227+00000+0001T   00001227+0000001618          1400 MU7150               1AZ
911134000911134               911134               170213MD     1400+00000+MD0000001626+0000001626+000000000+000000228+0000001854+0000000000+I40000001854+0000000000+Z
911134001911134077-000315     911134006003000181186GIFT-BAG 20x28cm MATT  0000001000+00001578+00000+0001T   00001578+0000001620          1400 MU7112               1AZ
911134002911134112-116069     911134006009681820277TCS CARRIER BAG JUMBO  0000001000+00000048+00000+0001T   00000048+0000001620          1400 MU7090               1AZ
911135000911135               911135               170213MD     1400+00000+MD0000010479+0000010479+000000000+000001470+0000011949+0000000000+I40000011949+0000000000+Z
911135001911135903-000090     911135006009826020821SWT GS CHOCO COINS 60g 0000001000+00002104+00000+0001T   00002104+0000001621          1400 MU7150               1AZ
911135002911135562-000020     911135006003000600861EDU PLAY DOUGH 60g 4PC 0000001000+00003507+00000+0001T   00003507+0000001621          1400 MU7755               1AZ
911135003911135566-100009     911135006003000102914WED STIK EMBOSSED FOIL 0000001000+00002630+00000+0001T   00002630+0000001621          1400 MU7130               1AZ
911135004911135080-000133     911135006003000535613CARD&ENV MINI ASTD DSGN0000001000+00000437+00000+0001T   00000437+0000001621          1400 MU7112               1AZ
911135005911135080-000102     911135006003000236855CARD&ENVLP FEMALE AFR  0000001000+00001753+00000+0001T   00001753+0000001621          1400 MU7112               1AZ
911135006911135112-116069     911135006009681820277TCS CARRIER BAG JUMBO  0000001000+00000048+00000+0001T   00000048+0000001621          1400 MU7090               1AZ
911136000911136               911136               170213MD     1400+00000+MD0000008378+0000008378+000000000+000001174+0000009552+0000000000+I40000009552+0000000000+Z
911136001911136048-000751     911136006001023849779CAMPING-LANTERN B/O    0000001000+00003507+00000+0001T   00003507+0000001623          1400 MU7305               1AZ
911136002911136046-000012-VP  911136006003000537914BATTERIES H/P SIZE:AA  0000001000+00004823+00000+0001T   00004823+0000001623          1400 MU7312               1AZ
911136003911136112-116069     911136006009681820277TCS CARRIER BAG JUMBO  0000001000+00000048+00000+0001T   00000048+0000001623          1400 MU7090               1AZ
911137000911137               911137               170213MD     1400+00000+MD0000001227+0000001227+000000000+000000172+0000001390+0000000009+I20000000000+0000001390+Z
911137001911137077-000322     911137006001023677532GIFT-BAG 18X23CM E/D FL0000001000+00001227+00000+0001T   00001227+0000001627          1400 MU7112               1AZ
911138000911138               911138               170213MD     1400+00000+MD0000004168+0000004168+000000000+000000584+0000004752+0000000000+I40000004752+0000000000+Z
911138001911138018-000130     911138006001023867537MUG OCC LOVE MINI+HEART0000001000+00003507+00000+0001T   00003507+0000001629          1400 MU7515               1AZ
911138002911138112-116069     911138006009681820277TCS CARRIER BAG JUMBO  0000001000+00000048+00000+0001T   00000048+0000001629          1400 MU7090               1AZ
911138003911138304-001011     911138006001023806727FLWR ROSE RED W/BEAR   0000001000+00000613+00000+0001T   00000788+0006471629          1400 MU7510               1AZ
911139000911139               911139               170213MD     1400+00000+MD0000005260+0000005260+000000000+000000738+0000005998+0000000000+I40000005998+0000000000+Z
911139001911139366-002008     911139006003000457014DRESS UP ACCESS GLOVES 0000001000+00002630+00000+0001T   00002630+0000001632          1400 MU7131               1AZ
911139002911139006-006018     911139006001023735256PARTY-SPRAY HAIR ASSORT0000001000+00002630+00000+0001T   00002630+0000001632          1400 MU7131               1AZ
911140000911140               911140               170213MD     1400+00000+MD0000002630+0000002630+000000000+000000369+0000002990+0000000009+I20000000000+0000002990+Z
911140001911140562-000010     911140006001023762528KID'S PLAY DOUGH       0000001000+00002630+00000+0001T   00002630+0000001632          1400 MU7755               1AZ
911141000911141               911141               170213MD     1400+00000+MD0000007357+0000007357+000000000+000001036+0000008390+0000000003+I20000000000+0000008390+Z
911141001911141079-009702-D   911141008427973059354PAPER SIRIO A2 RED COL 0000007000+00001051+00000+0001T   00001051+0000001635          1400 MU7130               1AZ
911142000911142               911142               170213MD     1400+00000+MD0000004385+0000004385+000000000+000000614+0000004999+0000000000+I40000004999+0000000000+Z
911142001911142051-500100     911142006003000399444GARDEN KIDS SPADE ASSTD0000001000+00004385+00000+0001T   00004385+0000001636          1400 MU7820               1AZ
911143000911143               911143               170213MD     1400+00000+MD0000018807+0000018807+000000000+000002637+0000021444+0000000000+I40000021444+0000000000+Z
911143001911143112-116069     911143006009681820277TCS CARRIER BAG JUMBO  0000001000+00000048+00000+0001T   00000048+0000001639          1400 MU7090               1AZ
911143002911143368-000181     911143006003000668052PLUSH BUNNY 27cm       0000001000+00011402+00000+0001T   00011402+0000001639          1400 MU7745               1AZ
911143003911143304-001011     911143006001023806727FLWR ROSE RED W/BEAR   0000002000+00000613+00000+0001T   00000788+0006471639          1400 MU7510               1AZ
911143004911143903-000200     911143006009826020234SWT CHOC RP CHOCO 23G  0000003000+00000788+00000+0001T   00000788+0000001639          1400 MU7150               1AZ
911143005911143903-000087     911143006001704000161SWT SPECKLED-EGGS 50G  0000001000+00001139+00000+0001T   00001139+0000001639          1400 MU7150               1AZ
911143006911143903-000194     911143006009826020616SWT CHOC RP LOLLY 25G  0000002000+00001314+00000+0001T   00001314+0000001639          1400 MU7150               1AZ
911144000911144               911144               170213MD     1400+00000+MD0000005556+0000005556+000000000+000000781+0000006337+0000000000+I40000006337+0000000000+Z
911144001911144079-009700-M   911144006003000634101PAPER SIRIO A4 PINK COL0000010000+00000306+00000+0001T   00000306+0000001642          1400 MU7130               1AZ
911144002911144079-009700-D   911144006003000545711PAPER SIRIO A4 RED COL.0000008000+00000306+00000+0001T   00000306+0000001642          1400 MU7130               1AZ
911144003911144112-116069     911144006009681820277TCS CARRIER BAG JUMBO  0000001000+00000048+00000+0001T   00000048+0000001642          1400 MU7090               1AZ
911145000911145               911145               170213MD     1400+00000+MD0000004385+0000004385+000000000+000000614+0000004990+0000000009+I20000000000+0000004990+Z
911145001911145072-000620     911145006001023604415PET DOG LEAD 15mmx1.2M 0000001000+00004385+00000+0001L   00004385+0000001643          1400 MU7870               1AZ
911146000911146               911146               170213MD     1400+00000+MD0000003026+0000003026+000000000+000000424+0000003450+0000000000+I20000000000+0000003450+Z
911146001911146077-000303     911146006001023593757GIFT-BAG PAPER MED     0000001000+00001578+00000+0001T   00001578+0000001645          1400 MU7112               1AZ
911146002911146018-000177     911146006001023797513MUG MINI LOVE ASSTD    0000002000+00000700+00000+0001T   00000700+0000001645          1400 MU7515               1AZ
911146003911146112-116069     911146006009681820277TCS CARRIER BAG JUMBO  0000001000+00000048+00000+0001T   00000048+0000001645          1400 MU7090               1AZ
911147000911147               911147               170213MD     1400+00000+MD0000000613+0000000613+000000000+000000086+0000000690+0000000009+I20000000000+0000000690+Z
911147001911147077-000321     911147006001023677501GIFT-BAG 11X14CM E/D FL0000001000+00000613+00000+0001T   00000613+0000001646          1400 MU7112               1AZ
911148000911148               911148               170213MD     1400+00000+MD0000000218+0000000218+000000000+000000031+0000000240+0000000009+I20000000000+0000000240+Z
911148001911148006-000172-J   911148006003000610280BALLOONS METALLIC BLACK0000001000+00000218+00000+0001T   00000218+0000001648          1400 MU7131               1AZ
911149000911149               911149               170213MD     1400+00000+MD0000027623+0000027623+000000000+000003869+0000031490+0000000002+I20000000000+0000031490+Z
911149001911149018-000136     911149006001023659026MUG OCC LOVE W/PLUSH   0000001000+00003507+00000+0001T   00003507+0000001654          1400 MU7515               1AZ
911149002911149001-091415     911149006003000329113W/GLS OCC. LOVE 2PC 2800000001000+00008771+00000+0001T   00009648+0006471654          1400 MU7515               1AZ
911149003911149031-086302-C   911149006001023910332P/FRAME COLL. PL 3-HOLE0000001000+00008771+00000+0001T   00008771+0000001654          1400 MU7510               1AZ
911149004911149903-000194     911149006009826020616SWT CHOC RP LOLLY 25G  0000001000+00001314+00000+0001T   00001314+0000001654          1400 MU7150               1AZ
911149005911149077-000270     911149006003000395453GIFT-BAG PPR JMB 33X45 0000001000+00002630+00000+0001T   00002630+0000001654          1400 MU7112               1AZ
911149006911149304-000720     911149006001023843050F/BUNCH ROSE 6-HEAD AST0000001000+00002630+00000+0001T   00002630+0000001654          1400 MU7510               1AZ
911150000911150               911150               170213MD     1400+00000+MD0000001750+0000001750+000000000+000000246+0000001996+0000000000+I40000001996+0000000000+Z
911150001911150903-000155     911150006009803374435SWT LOLLY I LUV U HEART0000002000+00000525+00000+0001T   00000525+0000001700          1400 MU7150               1AZ
911150002911150018-000177     911150006001023797513MUG MINI LOVE ASSTD    0000001000+00000700+00000+0001T   00000700+0000001700          1400 MU7515               1AZ
911151000911151               911151               170213MD     1400+00000+MD0000003331+0000003331+000000000+000000467+0000003790+0000000008+I20000000000+0000003790+Z
911151001911151565-000085     911151006003000643332NOVELTY BEEDZ 10g      0000001000+00002455+00000+0001T   00002455+0000001701          1400 MU77451IC            1AZ
911151002911151366-007601     911151006003000655472DRESS UP MASK THEATRICA0000001000+00000876+00000+0001T   00000876+0000001701          1400 MU7131               1AZ
911152000911152               911152               170213MD     1400+00000+MD0000011794+0000011794+000000000+000001655+0000013440+0000000009+I20000000000+0000013440+Z
911152001911152562-000010     911152006001023762528KID'S PLAY DOUGH       0000002000+00002630+00000+0001T   00002630+0000001703          1400 MU7755               1AZ
911152002911152566-001118     911152006003000682171STICKERS CELL PHONE    0000001000+00001753+00000+0001T   00001753+0000001703          1400 MU7130               1AZ
911152003911152566-000535     911152006003000284719STICKER SPARKLE EMBOSS 0000001000+00001753+00000+0001T   00001753+0000001703          1400 MU7130               1AZ
911152004911152566-001228     911152006003000284153STICKERS CRYSTAL ASSTD 0000001000+00001753+00000+0001T   00001753+0000001703          1400 MU7130               1AZ
911152005911152903-000510     911152006001704012621SWEET MS ZBDZ S/BERRY  0000001000+00001227+00000+0001T   00001227+0000001703          1400 MU7150               1AZ
911152006911152112-116069     911152006009681820277TCS CARRIER BAG JUMBO  0000001000+00000048+00000+0001T   00000048+0000001703          1400 MU7090               1AZ
911153000911153               911153               170213MD     1400+00000+MD0000008112+0000008112+000000000+000001139+0000009251+0000000000+I40000009251+0000000000+Z
911153001911153106-001118     911153006009654960320WATER BOTTLE PL 500ml  0000004000+00002016+00000+0001T   00002016+0000001707          1400 MU7210               1AZ
911153002911153112-116069     911153006009681820277TCS CARRIER BAG JUMBO  0000001000+00000048+00000+0001T   00000048+0000001707          1400 MU7090               1AZ
911154000911154               911154               170213MD     1400+00000+MD0000005262+0000005262+000000000+000000737+0000005990+0000000009+I20000000000+0000005990+Z
911154001911154567-010161     911154009780000008516BOOK TOP ASSTD MILLS   0000001000+00005262+00000+0001T   00005262+0000001708          1400 MU7757               1AZ
911155000911155               911155               170213MD     1400+00000+MD0000003416+0000003416+000000000+000000480+0000003890+0000000006+I20000000000+0000003890+Z
911155001911155903-000155     911155006009803374435SWT LOLLY I LUV U HEART0000001000+00000525+00000+0001T   00000525+0000001716          1400 MU7150               1AZ
911155002911155903-000151     911155006009803374411SWT SML RND R/BOW LOLLY0000001000+00000525+00000+0001T   00000525+0000001716          1400 MU7150               1AZ
911155003911155903-000137     911155006002099004130SWEET GS JELLY BEAN 60G0000001000+00000788+00000+0001T   00000788+0000001716          1400 MU7150               1AZ
911155004911155018-000127     911155006001023380289MUG OCC STRAIGHT LOVE  0000001000+00001578+00000+0001T   00001753+0006471716          1400 MU7515               1AZ
911156000911156               911156               170213MD     1400+00000+MD0000001227+0000001227+000000000+000000172+0000001390+0000000009+I20000000000+0000001390+Z
911156001911156077-000245     911156006001023759214GIFT-RIBBON METALLICx2 0000001000+00001227+00000+0001T   00001227+0000001723          1400 MU7112               1AZ
911157000911157               911157               170213MD     1400+00000+MD0000010568+0000010568+000000000+000001483+0000012050+0000000001+I20000000000+0000012050+Z
911157001911157112-116069     911157006009681820277TCS CARRIER BAG JUMBO  0000001000+00000048+00000+0001T   00000048+0000001727          1400 MU7090               1AZ
911157002911157466-000054     911157006001023831552BALLS HI-BOUNCE 3CM    0000004000+00002630+00000+0001T   00002630+0000001727          1400 MU7785               1AZ
911158000911158               911158               170213MD     1400+00000+MD0000005262+0000005262+000000000+000000737+0000000000+0000000000+ 00000000000+0000000000+Z
911158001911158050-000250     911158006001023904515PADLOCK K/ALIK BRS 20mm0000001000+00005262+00000+0001T   00005262+000000              1400 MU78551IC            1 Z
911159000911159               911159               170213MD     1400+00000+MD0000003856+0000003856+000000000+000000540+0000004390+0000000006+I20000000000+0000004390+Z
911159001911159050-000361-Z   911159006001023535382PADLOCK IRON 20mm CARD 0000002000+00001928+00000+0001T   00001928+0000001729          1400 MU7855               1AZ
911160000911160               911160               170213MD     1400+00000+MD0000003507+0000003507+000000000+000000491+0000003990+0000000008+I20000000000+0000003990+Z
911160001911160018-000136     911160006001023659026MUG OCC LOVE W/PLUSH   0000001000+00003507+00000+0001T   00003507+0000001730          1400 MU7515               1AZ
911161000911161               911161               170213MD     1400+00000+MD0000001626+0000001626+000000000+000000228+0000001850+0000000004+I20000000000+0000001850+Z
911161001911161077-000303     911161006001023593757GIFT-BAG PAPER MED     0000001000+00001578+00000+0001T   00001578+0000001732          1400 MU7112               1AZ
911161002911161112-116069     911161006009681820277TCS CARRIER BAG JUMBO  0000001000+00000048+00000+0001T   00000048+0000001732          1400 MU7090               1AZ
911162000911162               911162               170213MD     1400+00000+MD0000027323+0000027323+000000000+000003827+0000031150+0000000000+I20000000000+0000031150+Z
911162001911162018-000127     911162006001023380289MUG OCC STRAIGHT LOVE  0000002000+00001578+00000+0001T   00001753+0006471736          1400 MU7515               1AZ
911162002911162368-000614     911162006001023705808PLUSH LOVE 30cm        0000001000+00008771+00000+0001T   00008771+0000001736          1400 MU7745               1AZ
911162003911162368-000111     911162006001023780812PLUSH BEAR/DOG 29CM    0000001000+00012279+00000+0001T   00012279+0000001736          1400 MU7745               1AZ
911162004911162112-116069     911162006009681820277TCS CARRIER BAG JUMBO  0000001000+00000048+00000+0001T   00000048+0000001736          1400 MU7090               1AZ
911162005911162089-060027     911162006003000245871KEY-CHAIN HEART 6X6cm  0000001000+00003069+00000+0001T   00003069+0000001736          1400 MU7205               1AZ
911163000911163               911163               170213MD     1400+00000+MD0000003507+0000003507+000000000+000000491+0000003990+0000000008+I20000000000+0000003990+Z
911163001911163562-000011     911163006003000600984PLAY DOUGH NEON TUBE   0000001000+00003507+00000+0001T   00003507+0000001737          1400 MU7755               1AZ
911164000911164               911164               170213MD     1400+00000+MD0000002891+0000002891+000000000+000000406+0000003290+0000000007+I20000000000+0000003290+Z
911164001911164089-000192-A   911164006001023901774KEY-CHAIN ACRYLIC      0000001000+00000876+00000+0001T   00000876+0000001740          1400 MU7205               1AZ
911164002911164903-000155     911164006009803374435SWT LOLLY I LUV U HEART0000001000+00000525+00000+0001T   00000525+0000001740          1400 MU7150               1AZ
911164003911164006-000788     911164006001023990228CROWN HAPPY BIRTHDAY   0000001000+00001490+00000+0001T   00001490+0000001740          1400 MU7131               1AZ
911165000911165               911165               170213MD     1400+00000+MD0000008771+0000008771+000000000+000001228+0000009999+0000000000+I40000009999+0000000000+Z
911165001911165368-000614     911165006001023705808PLUSH LOVE 30cm        0000001000+00008771+00000+0001T   00008771+0000001743          1400 MU7745               1AZ
911166000911166               911166               170213MD     1400+00000+MD0000006888+0000006888+000000000+000000965+0000007850+0000000003+I20000000000+0000007850+Z
911166001911166301-086006     911166006003000498918ORN OCCASION LOVE 4ASTD0000001000+00005262+00000+0001T   00005262+0000001745          1400 MU7505               1AZ
911166002911166018-000127     911166006001023380289MUG OCC STRAIGHT LOVE  0000001000+00001578+00000+0001T   00001753+0006471745          1400 MU7515               1AZ
911166003911166112-116069     911166006009681820277TCS CARRIER BAG JUMBO  0000001000+00000048+00000+0001T   00000048+0000001745          1400 MU7090               1AZ
911167000911167               911167               170213MD     1400+00000+MD0000021096+0000021096+000000000+000002955+0000024051+0000000000+I40000024051+0000000000+Z
911167001911167077-000299-A   911167006003000670888GIFT-BAG PAPER JMB LOVE0000001000+00001753+00000+0001T   00001753+0000001748          1400 MU7112               1AZ
911167002911167112-116069     911167006009681820277TCS CARRIER BAG JUMBO  0000001000+00000048+00000+0001T   00000048+0000001748          1400 MU7090               1AZ
911167003911167001-091415     911167006003000329113W/GLS OCC. LOVE 2PC 2800000001000+00008771+00000+0001T   00009648+0006471748          1400 MU7515               1AZ
911167004911167019-000122     911167006001023809582PLANTER GALV 22cm ROUND0000002000+00005262+00000+0001T   00005262+0000001748          1400 MU7510               1AZ
911168000911168               911168               170213MD     1400+00000+MD0000000437+0000000437+000000000+000000062+0000000490+0000000009+I20000000000+0000000490+Z
