192081000192081               192081               170213ME     1400+00000+ME0000011268+0000011268+000000000+000001581+0000012849+0000000000+I40000012849+0000000000+Z
192081001192081564-000012     192081006001023130075BUBBLE BOTTLE MAGIC    0000001000+00000700+00000+0001T   00000700+0000000919          1400 VS9131               1AZ
192081002192081104-000031     192081006003000614950BASKET PL 27x18x12cm   0000004000+00002630+00000+0001T   00002630+0000000919          1400 VS9210               1AZ
192081003192081112-116069     192081006009681820277TCS CARRIER BAG JUMBO  0000001000+00000048+00000+0001T   00000048+0000000919          1400 VS9090               1AZ
192082000192082               192082               170213ME     1400+00000+ME0000017163+0000017163+000000000+000002412+0000019575+0000000000+I40000019575+0000000000+Z
192082001192082006-000171-H   192082006003000609574BALLOONS 1PC RED PRINT 0000010000+00000218+00000+0001T   00000218+0000000922          1400 VS9131               1AZ
192082002192082079-014152     192082006003000253074ART+CRAFT PK50 ASSTD   0000001000+00003069+00000+0001T   00003069+0000000922          1400 VS9130               1AZ
192082003192082077-000245     192082006001023759214GIFT-RIBBON METALLICx2 0000001000+00001227+00000+0001T   00001227+0000000922          1400 VS9112               1AZ
192082004192082108-002020     192082006009654960245WINE GLS STYRENE 220ml 0000002000+00001402+00000+0001T   00001402+0000000922          1400 VS9210               1AZ
192082005192082088-000108     192082006001023765536POTPOURRI-OIL 10ml ASST0000001000+00001753+00000+0001T   00001753+0000000922          1400 VS9212               1AZ
192082006192082006-001000     192082006003000093779HELIUM BALLOON FILL    0000010000+00000613+00000+0001T   00000613+0000000922          1400 VS9131               1AZ
192083000192083               192083               170213ME     1400+00000+ME0000012322+0000012322+000000000+000001727+0000014040+0000000009+I20000000000+0000014040+Z
192083001192083112-116069     192083006009681820277TCS CARRIER BAG JUMBO  0000001000+00000048+00000+0001T   00000048+0000001021          1400 VS9090               1AZ
192083002192083366-002695     192083006003000222766DRESS UP HAT ROUND GLIT0000001000+00002192+00000+0001T   00002192+0000001021          1400 VS9131               1AZ
192083003192083566-000309     192083006003000523283STICKER CHALK-BOARD    0000001000+00001753+00000+0001T   00001753+0000001021          1400 VS9130               1AZ
192083004192083079-130010     192083006003000496624ART+CRAFT FOAM DOLLS   0000001000+00004385+00000+0001T   00004385+0000001021          1400 VS9130               1AZ
192083005192083077-000408     192083006003000145218G/BAG PP 15X21X7CM     0000002000+00000876+00000+0001T   00000876+0000001021          1400 VS9112               1AZ
192083006192083077-000509     192083006003000082582GIFT-BAG SML 6PCE ORG P0000001000+00002192+00000+0001T   00002192+0000001021          1400 VS9112               1AZ
192084000192084               192084               170213ME     1400+00000+ME0000004206+0000004206+000000000+000000590+0000004790+0000000006+I20000000000+0000004790+Z
192084001192084006-000120     192084006001023346889BALLOONS 10PC MIX COL  0000002000+00001753+00000+0001T   00001753+0000001024          1400 VS9131               1AZ
192084002192084018-000177     192084006001023797513MUG MINI LOVE ASSTD    0000001000+00000700+00000+0001T   00000700+0000001024          1400 VS9515               1AZ
192085000192085               192085               170213ME     1400+00000+ME0000013414+0000013414+000000000+000001880+0000015294+0000000000+I40000015294+0000000000+Z
192085001192085467-000019     192085006001023746832BEACH-SET 16PCE BUCKET 0000001000+00007893+00000+0001T   00007893+0000001027          1400 VS9785               1AZ
192085002192085467-000018     192085006001023746818BEACH-SET 3PCE         0000001000+00003507+00000+0001T   00003507+0000001027          1400 VS9785               1AZ
192085003192085467-000001     192085006002923008280BEACH BUCKET PL 17x16cm0000001000+00001578+00000+0001T   00001578+0000001027          1400 VS9785               1AZ
192085004192085006-000171-A   192085006003000608935BALLOONS 1PC PINK PRNT 0000002000+00000218+00000+0001T   00000218+0000001027          1400 VS9131               1AZ
192086000192086               192086               170213ME     1400+00000+ME0000012674+0000012674+000000000+000001776+0000014450+0000000000+I40000014450+0000000000+Z
192086001192086018-000177     192086006001023797513MUG MINI LOVE ASSTD    0000001000+00000700+00000+0001T   00000700+0000001042          1400 VS9515               1AZ
192086002192086304-001204     192086006001023737984FLOWER OCC. TEDDY/ROSES0000001000+00001402+00000+0001T   00001490+0006471042          1400 VS9510               1AZ
192086003192086018-005007     192086006003000515516MUG OCC. LOVE W/HEARTS 0000001000+00006139+00000+0001T   00006139+0000001042          1400 VS9515               1AZ
192086004192086031-080508     192086006001023802415P/FRAME PL 22X11CM LOVE0000001000+00004385+00000+0001T   00004385+0000001042          1400 VS9510               1AZ
192086005192086112-116069     192086006009681820277TCS CARRIER BAG JUMBO  0000001000+00000048+00000+0001T   00000048+0000001042          1400 VS9090               1AZ
192087000192087               192087               170213ME     1400+00000+ME0000007016+0000007016+000000000+000000983+0000007990+0000000009+I20000000000+0000007990+Z
192087001192087004-071215     192087006003000459360MOBILE SELFI STICK 80cm0000001000+00007016+00000+0001T   00007016+0000001116          1400 VS9310               1AZ
192088000192088               192088               170213ME     1400+00000+ME0000006138+0000006138+000000000+000000860+0000006990+0000000008+I20000000000+0000006990+Z
192088001192088072-020262     192088006003000305254PET DOG-CHEW TYRE LARGE0000001000+00004385+00000+0001T   00004385+0000001117          1400 VS9870               1AZ
192088002192088072-020353     192088006001023598097DOG/CAT-BOWL 17cm      0000001000+00001753+00000+0001T   00001753+0000001117          1400 VS9870               1AZ
192089000192089               192089               170213ME     1400+00000+ME0000005262+0000005262+000000000+000000737+0000005990+0000000009+I20000000000+0000005990+Z
192089001192089494-059258     192089000078257592586INTEX TUBE 76cm        0000001000+00005262+00000+0001T   00005262+0000001118          1400 VS9787               1AZ
192090000192090               192090               170213ME     1400+00000+ME0000007453+0000007453+000000000+000001044+0000008497+0000000000+I40000008497+0000000000+Z
192090001192090368-000175     192090006003000270316PLUSH BEAR 4 ASSTD 18CM0000001000+00006139+00000+0001T   00006139+0000001136          1400 VS9745               1AZ
192090002192090903-005002     192090006002580020021SWT MALLOW SNAKE 120g  0000001000+00001314+00000+0001T   00001314+0000001136          1400 VS9150               1AZ
192091000192091               192091               170213ME     1400+00000+ME0000004383+0000004383+000000000+000000615+0000004998+0000000000+I40000004998+0000000000+Z
192091001192091079-003007     192091006003000448487A/TUBE 75ML BROWN      0000001000+00001753+00000+0001T   00001753+0000001138          1400 VS9130               1AZ
192091002192091079-000273     192091006003000160327PAINT BRUSHES THICK    0000001000+00002630+00000+0001T   00002630+0000001138          1400 VS9130               1AZ
192092000192092               192092               170213ME     1400+00000+ME0000004385+0000004385+000000000+000000614+0000004990+0000000009+I20000000000+0000004990+Z
192092001192092079-001001     192092006003000448593CANVAS A3 WOOD MOUNTED 0000001000+00004385+00000+0001T   00004385+0000001140          1400 VS9130               1AZ
192093000192093               192093               170213ME     1400+00000+ME0000021048+0000021048+000000000+000002948+0000023990+0000000006+I20000000000+0000023990+Z
192093001192093366-002195     192093006001023990549DRESS UP WINGS FEATHER 0000004000+00005262+00000+0001T   00005262+0000001143          1400 VS9131               1AZ
192094000192094               192094               170213ME     1400+00000+ME0000004328+0000004328+000000000+000000608+0000004930+0000000006+I20000000000+0000004930+Z
192094001192094071-001002     192094006003000217540PENCIL-SHARPNER DOUBLE 0000001000+00001578+00000+0001T   00001578+0000001146          1400 VS9130               1AZ
192094002192094024-091103-A   192094006003000419876B/CUP PAPER SET 48PC   0000001000+00001753+00000+0001T   00001753+0000001146          1400 VS9300               1AZ
192094003192094071-000012     192094006001177101006CHALK COLOUR 12PCE     0000002000+00000481+00000+0001T   00000481+0000001146          1400 VS9130               1AZ
192094004192094112-116038     192094006009681820246TCS CARRIER BAG MIDI   0000001000+00000035+00000+0001T   00000035+0000001146          1400 VS9090               1AZ
192095000192095               192095               170213ME     1400+00000+ME0000021879+0000021879+000000000+000003067+0000024940+0000000006+I20000000000+0000024940+Z
192095001192095036-000151     192095006001023810588COATHANGERS    PACK-10 0000003000+00002893+00000+0001T   00002893+0000001150          1400 VS9212               1AZ
192095002192095038-092233     192095006003000328925TABLE-MAT N/SLIP ASST  0000002000+00003069+00000+0001T   00003507+0008191150          1400 VS9300               1AZ
192095003192095016-009604     192095006001023519559SHAKERS 2PC COW-DESIGNS0000002000+00003507+00000+0001T   00003507+0000001150          1400 VS9300               1AZ
192095004192095112-116069     192095006009681820277TCS CARRIER BAG JUMBO  0000001000+00000048+00000+0001T   00000048+0000001150          1400 VS9090               1AZ
192096000192096               192096               170213ME     1400+00000+ME0000002104+0000002104+000000000+000000295+0000002390+0000000009+I20000000000+0000002390+Z
192096001192096903-000095     192096006001704011495SWT SPECKLED-EGGS 100G 0000001000+00002104+00000+0001T   00002104+0000001150          1400 VS9150               1AZ
192097000192097               192097               170213ME     1400+00000+ME0000005028+0000005028+000000000+000000706+0000005734+0000000000+I40000005734+0000000000+Z
192097001192097903-000843     192097008693029031067SWT GUMMY JELAXY 80G   0000001000+00000964+00000+0001T   00000964+0000001154          1400 VS9150               1AZ
192097002192097077-000011-D   192097006001023808554TISSUE-WRAP WHITE 10PCE0000001000+00000876+00000+0001T   00000876+0000001154          1400 VS9112               1AZ
192097003192097007-000555     192097006001023848239MEMO-PAD MINI LOVE     0000001000+00000613+00000+0001T   00000613+0000001154          1400 VS9130               1AZ
192097004192097903-000077     192097006939873501687SWT GS MAGIC ROCK FRUIT0000001000+00000525+00000+0001T   00000525+0000001154          1400 VS9150               1AZ
192097005192097077-000314     192097006003000181148GIFT-BAG 11X14CM MATT  0000001000+00000876+00000+0001T   00000876+0000001154          1400 VS9112               1AZ
192097006192097565-000071     192097006003000643387NOVELTY WIND UP CHATTER0000001000+00001139+00000+0001T   00001139+0000001154          1400 VS9745               1AZ
192097007192097112-116038     192097006009681820246TCS CARRIER BAG MIDI   0000001000+00000035+00000+0001T   00000035+0000001154          1400 VS9090               1AZ
192098000192098               192098               170213ME     1400+00000+ME0000000876+0000000876+000000000+000000123+0000000990+0000000009+I20000000000+0000000990+Z
192098001192098366-007917     192098006003000653621DRESS UP MASK ANIMALS  0000001000+00000876+00000+0001T   00000876+0000001154          1400 VS9131               1AZ
192099000192099               192099               170213ME     1400+00000+ME0000005259+0000005259+000000000+000000738+0000005990+0000000007+I20000000000+0000005990+Z
192099001192099566-000070     192099006003000283798STICKERS POP UP ASSTD  0000003000+00001753+00000+0001T   00001753+0000001156          1400 VS9130               1AZ
192100000192100               192100               170213ME     1400+00000+ME0000002454+0000002454+000000000+000000344+0000002790+0000000008+I20000000000+0000002790+Z
192100001192100251-000041     192100006001023515889SEAL-TAPE BUFF 48mmx50m0000001000+00001227+00000+0001T   00001227+0000001156          1400 VS9810               1AZ
192100002192100251-000040     192100006001023515865SEALTAPE CLEAR 48mmx50m0000001000+00001227+00000+0001T   00001227+0000001156          1400 VS9810               1AZ
192101000192101               192101               170213ME     1400+00000+ME0000002192+0000002192+000000000+000000307+0000002490+0000000009+I20000000000+0000002490+Z
192101001192101077-000309-A   192101006003000671007GIFT-BAG HOLOGRAM JMB  0000001000+00002192+00000+0001T   00002192+0000001157          1400 VS9112               1AZ
192102000192102               192102               170213ME     1400+00000+ME0000001753+0000001753+000000000+000000246+0000001990+0000000009+I20000000000+0000001990+Z
192102001192102266-000634     192102006003000119554GLIDER BALLOON HELICO  0000001000+00001753+00000+0001T   00001753+0000001203          1400 VS9710               1AZ
192103000192103               192103               170213ME     1400+00000+ME0000001753+0000001753+000000000+000000246+0000001990+0000000009+I20000000000+0000001990+Z
192103001192103077-000454     192103006003000285266G/BAG METALLIC LRG EMB 0000001000+00001753+00000+0001T   00001753+0000001205          1400 VS9112               1AZ
192104000192104               192104               170213ME     1400+00000+ME0000005998+0000005998+000000000+000000840+0000006830+0000000008+I20000000000+0000006830+Z
192104001192104077-000303     192104006001023593757GIFT-BAG PAPER MED     0000001000+00001578+00000+0001T   00001578+0000001208          1400 VS9112               1AZ
192104002192104018-030000     192104006003000421060MUG OCCASIONS LOVE 2PCE0000001000+00004385+00000+0001T   00004385+0000001208          1400 VS9515               1AZ
192104003192104112-116038     192104006009681820246TCS CARRIER BAG MIDI   0000001000+00000035+00000+0001T   00000035+0000001208          1400 VS9090               1AZ
192105000192105               192105               170213ME     1400+00000+ME0000015112+0000015112+000000000+000002118+0000017230+0000000000+I20000000000+0000017230+Z
192105001192105301-085001     192105006003000297610ORN WATERBALL LOVE ASST0000001000+00004823+00000+0001T   00004823+0000001211          1400 VS9505               1AZ
192105002192105018-000177     192105006001023797513MUG MINI LOVE ASSTD    0000001000+00000700+00000+0001T   00000700+0000001211          1400 VS9515               1AZ
192105003192105368-000049     192105006003000536955PLUSH BEAR 15cm LOVE   0000001000+00004385+00000+0001T   00004385+0000001211          1400 VS9745               1AZ
192105004192105304-001011     192105006001023806727FLWR ROSE RED W/BEAR   0000001000+00000613+00000+0001T   00000788+0006471211          1400 VS9510               1AZ
192105005192105077-000303     192105006001023593757GIFT-BAG PAPER MED     0000001000+00001578+00000+0001T   00001578+0000001211          1400 VS9112               1AZ
192105006192105903-000121     192105006002099001689SWT GS ZILLIONS SOURS  0000001000+00000700+00000+0001T   00000700+0000001211          1400 VS9150               1AZ
192105007192105903-000077     192105006939873501687SWT GS MAGIC ROCK FRUIT0000001000+00000525+00000+0001T   00000525+0000001211          1400 VS9150               1AZ
192105008192105112-116038     192105006009681820246TCS CARRIER BAG MIDI   0000001000+00000035+00000+0001T   00000035+0000001211          1400 VS9090               1AZ
192105009192105903-000619     192105006003000672455SWT LOLLY STR/BRRY 140G0000001000+00001753+00000+0001T   00001753+0000001211          1400 VS9150               1AZ
192106000192106               192106               170213ME     1400+00000+ME0000010568+0000010568+000000000+000001482+0000012050+0000000000+I20000000000+0000012050+Z
192106001192106112-116069     192106006009681820277TCS CARRIER BAG JUMBO  0000001000+00000048+00000+0001T   00000048+0000001214          1400 VS9090               1AZ
192106002192106105-007410     192106006003000629671CONTAINER MINI 300ml   0000002000+00002630+00000+0001T   00003507+0008171214          1400 VS9210               1AZ
192106003192106012-000001     192106006003000331048MICRO PLATE-COVER 26X6 0000001000+00001753+00000+0001T   00002192+0008191214          1400 VS9300               1AZ
192106004192106567-011343     192106006003000630592BK COLOURING THERAPY   0000001000+00003507+00000+0001T   00003507+0000001214          1400 VS9757               1AZ
192107000192107               192107               170213ME     1400+00000+ME0000019673+0000019673+000000000+000002758+0000022431+0000000000+I40000022431+0000000000+Z
192107001192107112-116038     192107006009681820246TCS CARRIER BAG MIDI   0000001000+00000035+00000+0001T   00000035+0000001222          1400 VS9090               1AZ
192107002192107024-000038     192107006001023477026MEASURING-JUG 1L (4CUP)0000001000+00001753+00000+0001T   00001753+0000001222          1400 VS9300               1AZ
192107003192107071-002999-A   192107006003000611577PEN STICKBALL 10PCE ASS0000001000+00001753+00000+0001T   00001753+0000001222          1400 VS9130               1AZ
192107004192107007-000610     192107006009685851017DIARY HOMEWORK UNDATED 0000001000+00001402+00000+0001T   00001402+0000001222          1400 VS9130               1AZ
192107005192107368-000175     192107006003000270316PLUSH BEAR 4 ASSTD 18CM0000001000+00006139+00000+0001T   00006139+0000001222          1400 VS9745               1AZ
192107006192107206-000630     192107006003000631919SPECTACLE CLEANING BRUS0000002000+00001227+00000+0001T   00001227+0000001222          1400 VS9321               1AZ
192107007192107082-098791     192107006001492987910SUNGLASS KIDS BOYS     0000001000+00003507+00000+0001T   00003507+0000001222          1400 VS9160               1AZ
192107008192107206-000110     192107006003000628186CHOPSTICKS PLASTIC KIDS0000001000+00002630+00000+0001T   00002630+0000001222          1400 VS9321               1AZ
192108000192108               192108               170213ME     1400+00000+ME0000003507+0000003507+000000000+000000491+0000003990+0000000008+I20000000000+0000003990+Z
192108001192108560-000104     192108006001023747037ANIMALS WILD IN-TUBE   0000001000+00003507+00000+0001T   00003507+0000001226          1400 VS9745               1AZ
192109000192109               192109               170213ME     1400+00000+ME0000004383+0000004383+000000000+000000615+0000004990+0000000008+I20000000000+0000004990+Z
192109001192109362-003003     192109006003000295616HAIR BAND SET 6PCE     0000001000+00001753+00000+0001T   00001753+0000001230          1400 VS9160               1AZ
192109002192109366-000300     192109006001023902955DRESSUP TIARA FEATHER  0000001000+00002630+00000+0001T   00002630+0000001230          1400 VS9131               1AZ
192110000192110               192110               170213ME     1400+00000+ME0000007048+0000007048+000000000+000000989+0000008030+0000000007+I20000000000+0000008030+Z
192110001192110006-000111     192110006003000519385BALLOONS LARGE 12PCE   0000002000+00002630+00000+0001T   00002630+0000001234          1400 VS9131               1AZ
192110002192110006-000124     192110006003000625888BALLOONS 10PC MIX COL  0000001000+00001753+00000+0001T   00001753+0000001234          1400 VS9131               1AZ
192110003192110112-116038     192110006009681820246TCS CARRIER BAG MIDI   0000001000+00000035+00000+0001T   00000035+0000001234          1400 VS9090               1AZ
192111000192111               192111               170213ME     1400+00000+ME0000003416+0000003416+000000000+000000479+0000003890+0000000005+I20000000000+0000003890+Z
192111001192111077-000010-C   192111006001023123879CREPE-PAPER RED        0000001000+00000788+00000+0001T   00000788+0000001240          1400 VS9112               1AZ
192111002192111077-000310     192111006001023608635GIFT-BAG 18X23CM GLOSS 0000001000+00001314+00000+0001T   00001314+0000001240          1400 VS9112               1AZ
192111003192111077-000312     192111006001023608697GIFT-BAG 10X35CM GLOSS 0000001000+00001314+00000+0001T   00001314+0000001240          1400 VS9112               1AZ
192112000192112               192112               170213ME     1400+00000+ME0000005260+0000005260+000000000+000000738+0000005990+0000000008+I20000000000+0000005990+Z
192112001192112079-006495     192112006003000159987GLITTER SHAKERS 6PK    0000002000+00002630+00000+0001T   00002630+0000001246          1400 VS9130               1AZ
192113000192113               192113               170213ME     1400+00000+ME0000005259+0000005259+000000000+000000738+0000005997+0000000000+I40000005997+0000000000+Z
192113001192113077-000011-X   192113006001023809827TISSUE-WRAP SILVER 10PC0000001000+00001753+00000+0001T   00001753+0000001254          1400 VS9112               1AZ
192113002192113077-000011-Y   192113006001023809858TISSUE-WRAP GOLD 10PCE 0000001000+00001753+00000+0001T   00001753+0000001254          1400 VS9112               1AZ
192113003192113077-000299-A   192113006003000670888GIFT-BAG PAPER JMB LOVE0000001000+00001753+00000+0001T   00001753+0000001254          1400 VS9112               1AZ
192114000192114               192114               170213ME     1400+00000+ME0000016968+0000016968+000000000+000002379+0000019347+0000000000+I40000019347+0000000000+Z
192114001192114112-116069     192114006009681820277TCS CARRIER BAG JUMBO  0000001000+00000048+00000+0001T   00000048+0000001259          1400 VS9090               1AZ
192114002192114077-000303     192114006001023593757GIFT-BAG PAPER MED     0000001000+00001578+00000+0001T   00001578+0000001259          1400 VS9112               1AZ
192114003192114077-000475     192114006003000640775GIFT-BAG DESIGNER MED  0000001000+00002630+00000+0001T   00002630+0000001259          1400 VS9112               1AZ
192114004192114030-000040     192114006003000396375PLAQUE WDN HANGING HRTS0000002000+00003069+00000+0001T   00003069+0000001259          1400 VS9505               1AZ
192114005192114024-000033     192114006003000420278MEASURING JUG 1L H/H   0000001000+00002192+00000+0001T   00002192+0000001259          1400 VS9300               1AZ
192114006192114024-000034     192114006001023495235MEASURING-JUG 1-CUP    0000001000+00001578+00000+0001T   00001578+0000001259          1400 VS9300               1AZ
192114007192114079-009702-A   192114008427973059408PAPER SIRIO A2 BLACK   0000001000+00001051+00000+0001T   00001051+0000001259          1400 VS9130               1AZ
192114008192114007-000029     192114006003000577736PRICE FLASH 17x11cm    0000001000+00001753+00000+0001T   00001753+0000001259          1400 VS9130               1AZ
192115000192115               192115               170213ME     1400+00000+ME0000014031+0000014031+000000000+000001966+0000015990+0000000007+I20000000000+0000015990+Z
192115001192115006-000165     192115006001023758392BALLOONS LRG BAG-OF-1000000001000+00008771+00000+0001T   00008771+0000001301          1400 VS9131               1AZ
192115002192115006-000220-B   192115006001023890870PARTY TABLE-CLOTH BOY  0000002000+00002630+00000+0001T   00002630+0000001301          1400 VS9131               1AZ
192116000192116               192116               170213ME     1400+00000+ME0000028724+0000028724+000000000+000004024+0000032748+0000000000+I40000032748+0000000000+Z
192116001192116031-000844     192116006001023851789P/FRAME WDN WORDS 2ASS 0000001000+00003507+00000+0001T   00003507+0000001434          1400 VS9510               1AZ
192116002192116077-000270     192116006003000395453GIFT-BAG PPR JMB 33X45 0000001000+00002630+00000+0001T   00002630+0000001434          1400 VS9112               1AZ
192116003192116030-004015     192116006003000467624PLAQUE WDN SIGN 30X20CM0000001000+00009648+00000+0001T   00009648+0000001434          1400 VS9505               1AZ
192116004192116301-000013     192116006001023781604ORN SENTIMENT STONE 4-A0000001000+00006139+00000+0001T   00006139+0000001434          1400 VS9505               1AZ
192116005192116301-000815     192116006003000462339ORN FAIRY W/UNICORN 6X50000001000+00005262+00000+0001T   00005262+0000001434          1400 VS9505               1AZ
192116006192116077-000299     192116006003000395576G/BAG 32x25cm LRG LOVE 0000001000+00001490+00000+0001T   00001490+0000001434          1400 VS9112               1AZ
192116007192116112-116069     192116006009681820277TCS CARRIER BAG JUMBO  0000001000+00000048+00000+0001T   00000048+0000001434          1400 VS9090               1AZ
192117000192117               192117               170213ME     1400+00000+ME0000004857+0000004857+000000000+000000681+0000005538+0000000000+I40000005538+0000000000+Z
192117001192117071-001124     192117006001023802873MARKERS WHITEBOARD 3PCE0000001000+00002630+00000+0001T   00002630+0000001526          1400 VS9130               1AZ
192117002192117566-000031     192117006003000283910STICKER BK TEACHER STIC0000001000+00002192+00000+0001T   00002192+0000001526          1400 VS9130               1AZ
192117003192117112-116038     192117006009681820246TCS CARRIER BAG MIDI   0000001000+00000035+00000+0001T   00000035+0000001526          1400 VS9090               1AZ
192118000192118               192118               170213ME     1400+00000+ME0000009644+0000009644+000000000+000001352+0000010990+0000000006+I20000000000+0000010990+Z
192118001192118368-000049     192118006003000536955PLUSH BEAR 15cm LOVE   0000001000+00004385+00000+0001T   00004385+0000001529          1400 VS9745               1AZ
192118002192118903-000619     192118006003000672455SWT LOLLY STR/BRRY 140G0000003000+00001753+00000+0001T   00001753+0000001529          1400 VS9150               1AZ
192119000192119               192119               170213ME     1400+00000+ME0000017566+0000017566+000000000+000002464+0000020030+0000000000+I20000000000+0000020030+Z
192119001192119089-000005     192119006003000094806KEY CHAIN CARDS MTL    0000001000+00003069+00000+0001T   00003069+0000001531          1400 VS9205               1AZ
192119002192119089-000004     192119006003000137749KEY CHAIN MTL CHARMS   0000004000+00001753+00000+0001T   00001753+0000001531          1400 VS9205               1AZ
192119003192119089-001021     192119006003000112319KEY CHAIN MINI BIBLE   0000005000+00001490+00000+0001T   00001490+0000001531          1400 VS9205               1AZ
192119004192119112-116038     192119006009681820246TCS CARRIER BAG MIDI   0000001000+00000035+00000+0001T   00000035+0000001531          1400 VS9090               1AZ
192120000192120               192120               170213ME     1400+00000+ME0000000876+0000000876+000000000+000000123+0000000990+0000000009+I20000000000+0000000990+Z
192120001192120077-000314     192120006003000181148GIFT-BAG 11X14CM MATT  0000001000+00000876+00000+0001T   00000876+0000001538          1400 VS9112               1AZ
192121000192121               192121               170213ME     1400+00000+ME0000021482+0000021482+000000000+000003011+0000024490+0000000003+I20000000000+0000024490+Z
192121001192121563-000319-F   192121006003000581931SERVIETTE 2PLY ORANGE  0000002000+00001753+00000+0001T   00001753+0000001548          1400 VS9214               1AZ
192121002192121039-000327     192121006001023775283B/CANDLES COLOUR-FLAME 0000003000+00003946+00000+0001T   00003946+0000001548          1400 VS9510               1AZ
192121003192121039-000319-9   192121006003000443345B/CANDLES LRG NUMBER-9 0000001000+00000876+00000+0001T   00000876+0000001548          1400 VS9510               1AZ
192121004192121158-000167     192121006003000569588WASTEPAPER-BASKET 26cm 0000001000+00005262+00000+0001T   00005262+0000001548          1400 VS9300               1AZ
192122000192122               192122               170213ME     1400+00000+ME0000016870+0000016870+000000000+000002364+0000019230+0000000004+I20000000000+0000019230+Z
192122001192122112-116038     192122006009681820246TCS CARRIER BAG MIDI   0000001000+00000035+00000+0001T   00000035+0000001550          1400 VS9090               1AZ
192122002192122001-091415     192122006003000329113W/GLS OCC. LOVE 2PC 2800000001000+00008771+00000+0001T   00009648+0006471550          1400 VS9515               1AZ
192122003192122077-000305     192122006003000395422GIFT-BAG WINE 10X35CM  0000001000+00001490+00000+0001T   00001490+0000001550          1400 VS9112               1AZ
192122004192122903-000087     192122006001704000161SWT SPECKLED-EGGS 50G  0000001000+00001139+00000+0001T   00001139+0000001550          1400 VS9150               1AZ
192122005192122018-000170     192122006001023775528MUG OCC. LOVE 2PC MINI 0000001000+00002192+00000+0001T   00002192+0000001550          1400 VS9515               1AZ
192122006192122077-000299     192122006003000395576G/BAG 32x25cm LRG LOVE 0000001000+00001490+00000+0001T   00001490+0000001550          1400 VS9112               1AZ
192122007192122077-000358     192122006003000329977GIFT-BAG KIDS 25X32CM  0000001000+00001753+00000+0001T   00001753+0000001550          1400 VS9112               1AZ
192123000192123               192123               170213ME     1400+00000+ME0000001490+0000001490+000000000+000000209+0000001690+0000000009+I20000000000+0000001690+Z
192123001192123077-000305     192123006003000395422GIFT-BAG WINE 10X35CM  0000001000+00001490+00000+0001T   00001490+0000001551          1400 VS9112               1AZ
192124000192124               192124               170213ME     1400+00000+ME0000010524+0000010524+000000000+000001474+0000011998+0000000000+I40000011998+0000000000+Z
192124001192124368-000020     192124006003000672028PLUSH DINOSAUR 37cm    0000001000+00008771+00000+0001T   00008771+0000001554          1400 VS9745               1AZ
192124002192124077-000290     192124006001023902023GIFT BOX 26x32x13cm    0000001000+00001753+00000+0001T   00001753+0000001554          1400 VS9112               1AZ
192125000192125               192125               170213ME     1400+00000+ME0000004383+0000004383+000000000+000000614+0000004997+0000000000+I40000004997+0000000000+Z
192125001192125566-000200     192125006003000384174STICKER PUFFY NEON     0000001000+00000876+00000+0001T   00000876+0000001600          1400 VS9130               1AZ
192125002192125560-000113     192125006001023664464GOLD-FISH 4PC          0000001000+00003507+00000+0001T   00003507+0000001600          1400 VS9745               1AZ
192126000192126               192126               170213ME     1400+00000+ME0000007893+0000007893+000000000+000001106+0000008990+0000000009+I20000000000+0000008990+Z
192126001192126082-000126     192126006003000646517READING GLASS TWIN 2.5 0000001000+00007893+00000+0001T   00007893+0000001606          1400 VS9160               1AZ
192127000192127               192127               170213ME     1400+00000+ME0000008771+0000008771+000000000+000001228+0000009990+0000000009+I20000000000+0000009990+Z
192127001192127464-001704     192127006001023732583DOMINOES 19.5x12x3.5cm 0000001000+00008771+00000+0001T   00008771+0000001609          1400 VS9785               1AZ
192128000192128               192128               170213ME     1400+00000+ME0000006081+0000006081+000000000+000000853+0000006930+0000000004+I20000000000+0000006930+Z
192128001192128077-000310     192128006001023608635GIFT-BAG 18X23CM GLOSS 0000001000+00001314+00000+0001T   00001314+0000001612          1400 VS9112               1AZ
192128002192128077-000011-D   192128006001023808554TISSUE-WRAP WHITE 10PCE0000001000+00000876+00000+0001T   00000876+0000001612          1400 VS9112               1AZ
192128003192128089-000150     192128006003000674268K/CHAIN PLUSH EMOTICON 0000001000+00001139+00000+0001T   00001139+0000001612          1400 VS9205               1AZ
192128004192128018-000127     192128006001023380289MUG OCC STRAIGHT LOVE  0000001000+00001578+00000+0001T   00001753+0006471612          1400 VS9515               1AZ
192128005192128089-000150     192128006003000674268K/CHAIN PLUSH EMOTICON 0000001000+00001139+00000+0001T   00001139+0000001612          1400 VS9205               1AZ
192128006192128112-116038     192128006009681820246TCS CARRIER BAG MIDI   0000001000+00000035+00000+0001T   00000035+0000001612          1400 VS9090               1AZ
192129000192129               192129               170213ME     1400+00000+ME0000001314+0000001314+000000000+000000184+0000001490+0000000008+I20000000000+0000001490+Z
192129001192129077-000310     192129006001023608635GIFT-BAG 18X23CM GLOSS 0000001000+00001314+00000+0001T   00001314+0000001616          1400 VS9112               1AZ
192130000192130               192130               170213ME     1400+00000+ME0000005260+0000005260+000000000+000000738+0000005990+0000000008+I20000000000+0000005990+Z
192130001192130079-000260     192130006001023886385PAINT TUBS WT BASE 4COL0000001000+00002630+00000+0001T   00002630+0000001617          1400 VS9130               1AZ
192130002192130033-006003     192130006001023678584SEWING-KIT             0000001000+00002630+00000+0001T   00002630+0000001617          1400 VS9200               1AZ
192131000192131               192131               170213ME     1400+00000+ME0000001490+0000001490+000000000+000000209+0000001690+0000000009+I20000000000+0000001690+Z
192131001192131077-000299     192131006003000395576G/BAG 32x25cm LRG LOVE 0000001000+00001490+00000+0001T   00001490+0000001625          1400 VS9112               1AZ
192132000192132               192132               170213ME     1400+00000+ME0000002192+0000002192+000000000+000000307+0000002499+0000000000+I40000002499+0000000000+Z
192132001192132077-000309-A   192132006003000671007GIFT-BAG HOLOGRAM JMB  0000001000+00002192+00000+0001T   00002192+0000001627          1400 VS9112               1AZ
192133000192133               192133               170213ME     1400+00000+ME0000005307+0000005307+000000000+000000745+0000006050+0000000002+I20000000000+0000006050+Z
192133001192133079-001002     192133006003000448715CANVAS A4 WOOD MOUNTED 0000001000+00002630+00000+0001T   00002630+0000001629          1400 VS9130               1AZ
192133002192133133-000381     192133006001023713674TABLE-CLOTH 132x178cm  0000001000+00001753+00000+0001T   00001753+0000001629          1400 VS9212               1AZ
192133003192133038-047245     192133006001023637444PLACE-MAT DESIGNS ASSTD0000001000+00000876+00000+0001T   00000876+0000001629          1400 VS9300               1AZ
192133004192133112-116069     192133006009681820277TCS CARRIER BAG JUMBO  0000001000+00000048+00000+0001T   00000048+0000001629          1400 VS9090               1AZ
192134000192134               192134               170213ME     1400+00000+ME0000003506+0000003506+000000000+000000492+0000003998+0000000000+I40000003998+0000000000+Z
192134001192134024-000212     192134006001023858030COOKIE-CUTTERS PL SMALL0000001000+00003069+00000+0001T   00003069+0000001634          1400 VS9300               1AZ
192134002192134080-000133     192134006003000535613CARD&ENV MINI ASTD DSGN0000001000+00000437+00000+0001T   00000437+0000001634          1400 VS9112               1AZ
192135000192135               192135               170213ME     1400+00000+ME0000002630+0000002630+000000000+000000369+0000002999+0000000000+I40000002999+0000000000+Z
192135001192135082-092844     192135006001492928449#TAG SPECTACLE POUCH   0000001000+00002630+00000+0001T   00002630+0000001638          1400 VS9160               1AZ
192136000192136               192136               170213ME     1400+00000+ME0000007629+0000007629+000000000+000001069+0000008690+0000000008+I20000000000+0000008690+Z
192136001192136077-000299     192136006003000395576G/BAG 32x25cm LRG LOVE 0000001000+00001490+00000+0001T   00001490+0000001640          1400 VS9112               1AZ
192136002192136018-005007     192136006003000515516MUG OCC. LOVE W/HEARTS 0000001000+00006139+00000+0001T   00006139+0000001640          1400 VS9515               1AZ
192137000192137               192137               170213ME     1400+00000+ME0000005262+0000005262+000000000+000000737+0000005990+0000000009+I20000000000+0000005990+Z
192137001192137361-000112     192137006003000660261DOLL RAG 30cm          0000001000+00005262+00000+0001T   00005262+0000001641          1400 VS9725               1AZ
192138000192138               192138               170213ME     1400+00000+ME0000005875+0000005875+000000000+000000823+0000006690+0000000008+I20000000000+0000006690+Z
192138001192138031-080508     192138006001023802415P/FRAME PL 22X11CM LOVE0000001000+00004385+00000+0001T   00004385+0000001644          1400 VS9510               1AZ
192138002192138077-000299     192138006003000395576G/BAG 32x25cm LRG LOVE 0000001000+00001490+00000+0001T   00001490+0000001644          1400 VS9112               1AZ
192139000192139               192139               170213ME     1400+00000+ME0000007224+0000007224+000000000+000001016+0000008240+0000000000+I20000000000+0000008240+Z
192139001192139903-000670     192139006009803358008SWT SHERBET RED LIPS   0000006000+00000218+00000+0001T   00000218+0000001645          1400 VS9150               1AZ
192139002192139301-007015     192139006003000394166ORN MINI BLACKBOARD 8PC0000001000+00003069+00000+0001T   00003069+0000001645          1400 VS9505               1AZ
192139003192139071-081091     192139006001151010287STAED/GENKEM ALL-STICK 0000001000+00001227+00000+0001T   00001227+0000001645          1400 VS9130               1AZ
192139004192139071-000012     192139006001177101006CHALK COLOUR 12PCE     0000001000+00000481+00000+0001T   00000481+0000001645          1400 VS9130               1AZ
192139005192139071-004202     192139006001023417176SCISSORS-SCHOOL PL/MTL 0000001000+00001139+00000+0001T   00001139+0000001645          1400 VS9130               1AZ
192140000192140               192140               170213ME     1400+00000+ME0000005698+0000005698+000000000+000000799+0000006490+0000000007+I20000000000+0000006490+Z
192140001192140002-000740     192140006001023763945GRATER 4-WAY WHITE     0000001000+00002192+00000+0001T   00002192+0000001647          1400 VS9300               1AZ
192140002192140007-000043     192140006009635831496DISPLAY-BOOK PL A4 20PG0000002000+00001753+00000+0001T   00001753+0000001647          1400 VS9130               1AZ
192141000192141               192141               170213ME     1400+00000+ME0000005259+0000005259+000000000+000000738+0000005990+0000000007+I20000000000+0000005990+Z
192141001192141077-000358     192141006003000329977GIFT-BAG KIDS 25X32CM  0000001000+00001753+00000+0001T   00001753+0000001648          1400 VS9112               1AZ
192141002192141903-000215     192141006002099001214SWT GS MALLOW TWIST PAC0000001000+00001753+00000+0001T   00001753+0000001648          1400 VS9150               1AZ
192141003192141089-000504     192141006001023701886KEY-CHAIN SNAP-HOOK    0000001000+00001753+00000+0001T   00001753+0000001648          1400 VS9205               1AZ
192142000192142               192142               170213ME     1400+00000+ME0000004384+0000004384+000000000+000000614+0000004990+0000000008+I20000000000+0000004990+Z
192142001192142566-000031     192142006003000283910STICKER BK TEACHER STIC0000002000+00002192+00000+0001T   00002192+0000001648          1400 VS9130               1AZ
192143000192143               192143               170213ME     1400+00000+ME0000003507+0000003507+000000000+000000491+0000003990+0000000008+I20000000000+0000003990+Z
192143001192143031-000864-B   192143006001023798381P/FRAME MAHOGANY 13X18 0000001000+00003507+00000+0001T   00003507+0000001649          1400 VS9510               1AZ
192144000192144               192144               170213ME     1400+00000+ME0000007925+0000007925+000000000+000001111+0000009030+0000000006+I20000000000+0000009030+Z
192144001192144051-002407     192144006003000452491SPRAYER TRIGGER 550ml  0000002000+00001753+00000+0001T   00001753+0000001652          1400 VS9820               1AZ
192144002192144051-002400     192144006001023616180TRIGGER-SPRAYER 900ml  0000002000+00002192+00000+0001T   00002192+0000001652          1400 VS9820               1AZ
192144003192144112-116038     192144006009681820246TCS CARRIER BAG MIDI   0000001000+00000035+00000+0001T   00000035+0000001652          1400 VS9090               1AZ
192145000192145               192145               170213ME     1400+00000+ME0000003506+0000003506+000000000+000000492+0000003990+0000000008+I20000000000+0000003990+Z
192145001192145077-000289     192145006001023901996GIFT BOX 20x25x11cm    0000001000+00001753+00000+0001T   00001753+0000001653          1400 VS9112               1AZ
192145002192145077-000457     192145006003000285662G/BAG METALLIC JMB SOL 0000001000+00001753+00000+0001T   00001753+0000001653          1400 VS9112               1AZ
192146000192146               192146               170213ME     1400+00000+ME0000000306+0000000306+000000000+000000043+0000000340+0000000009+I20000000000+0000000340+Z
192146001192146079-009700-A   192146006003000547746PAPER SIRIO A4 BLACK   0000001000+00000306+00000+0001T   00000306+0000001659          1400 VS9130               1AZ
192147000192147               192147               170213ME     1400+00000+ME0000005262+0000005262+000000000+000000737+0000005990+0000000009+I20000000000+0000005990+Z
192147001192147562-000001     192147006009801541556MARLIN PLASTIC ABACUS  0000001000+00005262+00000+0001T   00005262+0000001700          1400 VS9755               1AZ
192148000192148               192148               170213ME     1400+00000+ME0000011137+0000011137+000000000+000001560+0000012697+0000000000+I40000012697+0000000000+Z
192148001192148030-000031-A   192148006003000457588PLAQUE W/WORDS ASSTD   0000001000+00004385+00000+0001T   00004823+0006471702          1400 VS9505               1AZ
192148002192148018-019000     192148006003000557288MUG OCC. LOVE JUMBO    0000001000+00005262+00000+0001T   00005262+0000001702          1400 VS9515               1AZ
192148003192148077-000299     192148006003000395576G/BAG 32x25cm LRG LOVE 0000001000+00001490+00000+0001T   00001490+0000001702          1400 VS9112               1AZ
192149000192149               192149               170213ME     1400+00000+ME0000003507+0000003507+000000000+000000491+0000003990+0000000008+I20000000000+0000003990+Z
192149001192149018-000136     192149006001023659026MUG OCC LOVE W/PLUSH   0000001000+00003507+00000+0001T   00003507+0000001702          1400 VS9515               1AZ
192150000192150               192150               170213ME     1400+00000+ME0000000876+0000000876+000000000+000000123+0000000990+0000000009+I20000000000+0000000990+Z
192150001192150077-000151     192150006008766114676GIFT-WRAP C/PHANE ASSTD0000001000+00000876+00000+0001T   00000876+0000001703          1400 VS9112               1AZ
192151000192151               192151               170213ME     1400+00000+ME0000000613+0000000613+000000000+000000086+0000000690+0000000009+I20000000000+0000000690+Z
192151001192151304-001011     192151006001023806727FLWR ROSE RED W/BEAR   0000001000+00000613+00000+0001T   00000788+0006471703          1400 VS9510               1AZ
192152000192152               192152               170213ME     1400+00000+ME0000013014+0000013014+000000000+000001823+0000014830+0000000007+I20000000000+0000014830+Z
192152001192152077-000270     192152006003000395453GIFT-BAG PPR JMB 33X45 0000001000+00002630+00000+0001T   00002630+0000001704          1400 VS9112               1AZ
192152002192152001-091415     192152006003000329113W/GLS OCC. LOVE 2PC 2800000001000+00008771+00000+0001T   00009648+0006471704          1400 VS9515               1AZ
192152003192152018-000127     192152006001023380289MUG OCC STRAIGHT LOVE  0000001000+00001578+00000+0001T   00001753+0006471704          1400 VS9515               1AZ
192152004192152112-116038     192152006009681820246TCS CARRIER BAG MIDI   0000001000+00000035+00000+0001T   00000035+0000001704          1400 VS9090               1AZ
192153000192153               192153               170213ME     1400+00000+ME0000004680+0000004680+000000000+000000657+0000005330+0000000007+I20000000000+0000005330+Z
192153001192153002-000016     192153006001023760173CAPPUCCINO-FROTHER B/O 0000001000+00002630+00000+0001T   00002630+0000001743          1400 VS9300               1AZ
192153002192153046-000011     192153004897006172994BATTERIES SIZE:AA  2PCE0000001000+00001402+00000+0001T   00001402+0000001743          1400 VS9312               1AZ
192153003192153033-005994     192153006001023789570SEWING-NEEDLES 16PCE   0000001000+00000613+00000+0001T   00000613+0000001743          1400 VS9200               1AZ
192153004192153112-116038     192153006009681820246TCS CARRIER BAG MIDI   0000001000+00000035+00000+0001T   00000035+0000001743          1400 VS9090               1AZ
192154000192154               192154               170213ME     1400+00000+ME0000002715+0000002715+000000000+000000381+0000003096+0000000000+I40000003096+0000000000+Z
192154001192154006-000812     192154006001023902832HAT CONE WITH TINSEL   0000001000+00000876+00000+0001T   00000876+0000001748          1400 VS9131               1AZ
192154002192154566-002000     192154000721129013206STICKERS CRYSTAL ASSTD 0000001000+00000700+00000+0001T   00000700+0000001748          1400 VS9130               1AZ
192154003192154903-000087     192154006001704000161SWT SPECKLED-EGGS 50G  0000001000+00001139+00000+0001T   00001139+0000001748          1400 VS9150               1AZ
192155000192155               192155               170213ME     1400+00000+ME0000010644+0000010644+000000000+000001492+0000012136+0000000000+I40000012136+0000000000+Z
192155001192155018-030000     192155006003000421060MUG OCCASIONS LOVE 2PCE0000002000+00004385+00000+0001T   00004385+0000001751          1400 VS9515               1AZ
192155002192155077-000010-C   192155006001023123879CREPE-PAPER RED        0000001000+00000788+00000+0001T   00000788+0000001751          1400 VS9112               1AZ
192155003192155079-009702-D   192155008427973059354PAPER SIRIO A2 RED COL 0000001000+00001051+00000+0001T   00001051+0000001751          1400 VS9130               1AZ
192155004192155112-116038     192155006009681820246TCS CARRIER BAG MIDI   0000001000+00000035+00000+0001T   00000035+0000001751          1400 VS9090               1AZ
192156000192156               192156               170213ME     1400+00000+ME0000008331+0000008331+000000000+000001167+0000009490+0000000008+I20000000000+0000009490+Z
192156001192156368-000175     192156006003000270316PLUSH BEAR 4 ASSTD 18CM0000001000+00006139+00000+0001T   00006139+0000001752          1400 VS9745               1AZ
192156002192156077-000463     192156006003000321698G/BAG GLITTER MED20x28 0000001000+00002192+00000+0001T   00002192+0000001752          1400 VS9112               1AZ
192157000192157               192157               170213ME     1400+00000+ME0000002452+0000002452+000000000+000000345+0000002797+0000000000+I40000002797+0000000000+Z
192157001192157077-000408     192157006003000145218G/BAG PP 15X21X7CM     0000001000+00000876+00000+0001T   00000876+0000001753          1400 VS9112               1AZ
192157002192157080-000133     192157006003000535613CARD&ENV MINI ASTD DSGN0000001000+00000437+00000+0001T   00000437+0000001753          1400 VS9112               1AZ
192157003192157089-000150     192157006003000674268K/CHAIN PLUSH EMOTICON 0000001000+00001139+00000+0001T   00001139+0000001753          1400 VS9205               1AZ
192158000192158               192158               170213ME     1400+00000+ME0000007400+0000007400+000000000+000001037+0000008437+0000000000+I40000008437+0000000000+Z
192158001192158039-000108     192158006001023524034TEA-LITE CANDLES 8PCE  0000002000+00001490+00000+0001T   00001490+0000001756          1400 VS9510               1AZ
192158002192158206-000160     192158006003000628780CORN KERNELER          0000001000+00004385+00000+0001T   00004385+0000001756          1400 VS9321               1AZ
192158003192158112-116038     192158006009681820246TCS CARRIER BAG MIDI   0000001000+00000035+00000+0001T   00000035+0000001756          1400 VS9090               1AZ
192159000192159               192159               170213ME     1400+00000+ME0000030213+0000030213+000000000+000004232+0000034440+0000000005+I20000000000+0000034440+Z
192159001192159018-000127     192159006001023380289MUG OCC STRAIGHT LOVE  0000001000+00001578+00000+0001T   00001753+0006471757          1400 VS9515               1AZ
192159002192159077-000312     192159006001023608697GIFT-BAG 10X35CM GLOSS 0000001000+00001314+00000+0001T   00001314+0000001757          1400 VS9112               1AZ
192159003192159301-085007     192159006003000673698ORN OCC. LOVE S/PLAQUE 0000001000+00007893+00000+0001T   00007893+0000001757          1400 VS9505               1AZ
192159004192159301-087001     192159006003000427789ORN OCCASION DAD TROPHY0000001000+00002192+00000+0001T   00002192+0000001757          1400 VS9505               1AZ
192159005192159567-010542     192159009781743461808PIXIE HELLO KITTY ASSTD0000002000+00000700+00000+0001T   00000876+0008131757          1400 VS9757               1AZ
192159006192159261-009943     192159006003000298822GUN WATER JUMBO        0000001000+00015788+00000+0001T   00015788+0000001757          1400 VS9710               1AZ
192159007192159112-116069     192159006009681820277TCS CARRIER BAG JUMBO  0000001000+00000048+00000+0001T   00000048+0000001757          1400 VS9090               1AZ
A17021300                                          12073579MESLAVE 1                       VS91IC
M17021391                              CASH        MESLAVE 1                       Z-REPORT No.   545TOTAL (Sales - Refunds)           6881.12       CASH TO BE BANKED                 4550.00       DEBIT CARDS                       2331.12       CREDIT CARDS                         0.00       Z-READING                         6881.12       AIRTIME DEBIT CARD SALES             0.00       AIRTIME CARD SALES                   0.00       OVERS/UNDERS                         0.00       AIRTIME CASH SALES                   0.00       GIFT CARDS                           0.00       GIFT CARD CASH SALES                 0.00       T O T A L  CASH PAYOUTS              0.00                                                                                                                                                                                                                                                                                                                                                      Z
M17021392                              CASH        MEABSENT                                                                                                                                                                                          ANNUAL LEAVE                                                                                                                                                                                    DAY OFF                                                                                                                                                                                         COMMENTS                                                                                                                                                                                                                                                                                                                                                                                       Z
Y17021300                                          ME00028400603860+000079
ZME17021320043 SLAVE 1      SALES DATA                     NEXT INVOICE NO.  192160 0545
X ME Slave 1 First invoice 192081 170213 Last invoice 192159 170213 Next invoice 192160 Total number of records 000000303 clbackup completed 20:04:27
