200776000200776               200776               170213ME     1400+00000+ME0000001788+0000001788+000000000+000000251+0000002030+0000000009+I20000000000+0000002030+Z
200776001200776080-000104     200776006003000236978CARD&ENVLP MALE AFR    0000001000+00001753+00000+0001T   00001753+0000000904          1400 CH1112               2AZ
200776002200776112-116038     200776006003000534906TCS CARRIER BAG MIDI   0000001000+00000035+00000+0001T   00000035+0000000904          1400 CH1090               2AZ
200777000200777               200777               170213ME     1400+00000+ME0000008282+0000008282+000000000+000001163+0000009440+0000000005+I20000000000+0000009440+Z
200777001200777027-000194     200777006001246602472MOP COMPLETE           0000001000+00002279+00000+0001T   00002279+0000000937          1400 CH1212               2BZ
200777002200777027-001020     200777006001246602519BROOM FLOOR W/HANDLE   0000001000+00002279+00000+0001T   00002279+0000000937          1400 CH1212               2BZ
200777003200777200-003024     200777006001023657299REFUSE BAGS 20PCE BLACK0000002000+00001753+00000+0001T   00001753+0000000937          1400 CH1214               2BZ
200777004200777006-000173-D   200777006003000636631BALLOONS 1PC BLUE      0000001000+00000218+00000+0001T   00000218+0000000937          1400 CH1131               2BZ
200778000200778               200778               170213ME     1400+00000+ME0000001139+0000001139+000000000+000000160+0000001290+0000000009+I20000000000+0000001290+Z
200778001200778159-000043-H   200778006001023416629HOOKS ADHESIVE 3PCE SQR0000001000+00001139+00000+0001T   00001139+0000000946          1400 CH1200               2BZ
200779000200779               200779               170213ME     1400+00000+ME0000002454+0000002454+000000000+000000344+0000002790+0000000008+I20000000000+0000002790+Z
200779001200779071-081091     200779006001151010287STAED/GENKEM ALL-STICK 0000002000+00001227+00000+0001T   00001227+0000001000          1400 CH1130               2BZ
200780000200780               200780               170213ME     1400+00000+ME0000012313+0000012313+000000000+000001724+0000014037+0000000000+I40000014037+0000000000+Z
200780001200780001-091415     200780006003000329113W/GLS OCC. LOVE 2PC 2800000001000+00008771+00000+0001T   00009648+0006471042          1400 CH1515               2AZ
200780002200780031-000923     200780006001023669933P/FRAME BLK W/WORDS    0000001000+00003507+00000+0001T   00003507+0000001042          1400 CH1510               2AZ
200780003200780112-116038     200780006003000534906TCS CARRIER BAG MIDI   0000001000+00000035+00000+0001T   00000035+0000001042          1400 CH1090               2AZ
200781000200781               200781               170213ME     1400+00000+ME0000000613+0000000613+000000000+000000086+0000000690+0000000009+I20000000000+0000000690+Z
200781001200781083-000055     200781006003000003853LIGHTER ELCTRNC REFILBL0000001000+00000613+00000+0001T   00000613+0000001042          1400 CH1315               2AZ
200782000200782               200782               170213ME     1400+00000+ME0000005998+0000005998+000000000+000000840+0000006838+0000000000+I40000006838+0000000000+Z
200782001200782001-000175     200782006001023788108B/MUG GLS LOVE 380ML   0000001000+00004385+00000+0001T   00004385+0000001111          1400 CH1515               2AZ
200782002200782077-000303     200782006001023593757GIFT-BAG PAPER MED     0000001000+00001578+00000+0001T   00001578+0000001111          1400 CH1112               2AZ
200782003200782112-116038     200782006003000534906TCS CARRIER BAG MIDI   0000001000+00000035+00000+0001T   00000035+0000001111          1400 CH1090               2AZ
200783000200783               200783               170213ME     1400+00000+ME0000002454+0000002454+000000000+000000344+0000002790+0000000008+I20000000000+0000002790+Z
200783001200783077-000245     200783006001023759214GIFT-RIBBON METALLICx2 0000002000+00001227+00000+0001T   00001227+0000001112          1400 CH1112               2AZ
200784000200784               200784               170213ME     1400+00000+ME0000004822+0000004822+000000000+000000676+0000005498+0000000000+I40000005498+0000000000+Z
200784001200784203-006000     200784006001023994493ICE-BALL IN-BAG    16PC0000001000+00003332+00000+0001T   00003332+0000001328          1400 CH1300               2AZ
200784002200784200-000061     200784006003000506996STRAWS DRINKING CURLY  0000001000+00001490+00000+0001T   00001490+0000001328          1400 CH1214               2AZ
200785000200785               200785               170213ME     1400+00000+ME0000000437+0000000437+000000000+000000062+0000000490+0000000009+I20000000000+0000000490+Z
200785001200785080-000133-A   200785006003000647019MINI VALENTINES CARD   0000001000+00000437+00000+0001T   00000437+0000001333          1400 CH1112               2AZ
200786000200786               200786               170213ME     1400+00000+ME0000004821+0000004821+000000000+000000675+0000000000+0000000000+ 00000000000+0000000000+Z
200786001200786018-000130     200786006001023867537MUG OCC LOVE MINI+HEART0000001000+00003507+00000+0001T   00003507+000000              1400 CH15151IC            2 Z
200786002200786077-000312     200786006001023608697GIFT-BAG 10X35CM GLOSS 0000001000+00001314+00000+0001T   00001314+000000              1400 CH11121IC            2 Z
200787000200787               200787               170213ME     1400+00000+ME0000005699+0000005699+000000000+000000798+0000006490+0000000007+I20000000000+0000006490+Z
200787001200787001-000175     200787006001023788108B/MUG GLS LOVE 380ML   0000001000+00004385+00000+0001T   00004385+0000001342          1400 CH1515               2AZ
200787002200787077-000310     200787006001023608635GIFT-BAG 18X23CM GLOSS 0000001000+00001314+00000+0001T   00001314+0000001342          1400 CH1112               2AZ
200788000200788               200788               170213ME     1400+00000+ME0000002192+0000002192+000000000+000000307+0000002499+0000000000+I40000002499+0000000000+Z
200788001200788077-000309-A   200788006003000671007GIFT-BAG HOLOGRAM JMB  0000001000+00002192+00000+0001T   00002192+0000001424          1400 CH1112               2AZ
200789000200789               200789               170213ME     1400+00000+ME0000002980+0000002980+000000000+000000418+0000003390+0000000008+I20000000000+0000003390+Z
200789001200789039-000108     200789006001023524034TEA-LITE CANDLES 8PCE  0000002000+00001490+00000+0001T   00001490+0000001429          1400 CH1510               2AZ
200790000200790               200790               170213ME     1400+00000+ME0000002751+0000002751+000000000+000000386+0000003137+0000000000+I40000003137+0000000000+Z
200790001200790304-001011     200790006001023806727FLWR ROSE RED W/BEAR   0000001000+00000613+00000+0001T   00000788+0006471432          1400 CH1510               2AZ
200790002200790077-000151     200790006008766114676GIFT-WRAP C/PHANE ASSTD0000001000+00000876+00000+0001T   00000876+0000001432          1400 CH1112               2AZ
200790003200790077-000245     200790006001023759214GIFT-RIBBON METALLICx2 0000001000+00001227+00000+0001T   00001227+0000001432          1400 CH1112               2AZ
200790004200790112-116038     200790006003000534906TCS CARRIER BAG MIDI   0000001000+00000035+00000+0001T   00000035+0000001432          1400 CH1090               2AZ
200791000200791               200791               170213ME     1400+00000+ME0000011399+0000011399+000000000+000001598+0000012997+0000000000+I40000012997+0000000000+Z
200791001200791301-085007     200791006003000673698ORN OCC. LOVE S/PLAQUE 0000001000+00007893+00000+0001T   00007893+0000001434          1400 CH1505               2AZ
200791002200791080-000103     200791006003000236961CARD&ENVLOPE BDAY-MALE 0000001000+00001753+00000+0001T   00001753+0000001434          1400 CH1112               2AZ
200791003200791080-000109     200791006003000237203CARD&ENVLPE BDAY-BRIGHT0000001000+00001753+00000+0001T   00001753+0000001434          1400 CH1112               2AZ
200792000200792               200792               170213ME     1400+00000+ME0000005873+0000005873+000000000+000000824+0000006690+0000000007+I20000000000+0000006690+Z
200792001200792077-000005-A   200792006003000326495TISSUE 10xSHT OCCASIONS0000002000+00002630+00000+0001T   00002630+0000001440          1400 CH1112               2AZ
200792002200792006-001000     200792006003000093779HELIUM BALLOON FILL    0000001000+00000613+00000+0001T   00000613+0000001440          1400 CH1131               2AZ
200793000200793               200793               170213ME     1400+00000+ME0000001751+0000001751+000000000+000000246+0000001990+0000000007+I20000000000+0000001990+Z
200793001200793080-000133-A   200793006003000647019MINI VALENTINES CARD   0000001000+00000437+00000+0001T   00000437+0000001446          1400 CH1112               2AZ
200793002200793903-000194     200793006009826020616SWT CHOC RP LOLLY 25G  0000001000+00001314+00000+0001T   00001314+0000001446          1400 CH1150               2AZ
200794000200794               200794               170213ME     1400+00000+ME0000005646+0000005646+000000000+000000791+0000006437+0000000000+I40000006437+0000000000+Z
200794001200794112-116038     200794006003000534906TCS CARRIER BAG MIDI   0000001000+00000035+00000+0001T   00000035+0000001450          1400 CH1090               2AZ
200794002200794018-000136     200794006001023659026MUG OCC LOVE W/PLUSH   0000001000+00003507+00000+0001T   00003507+0000001450          1400 CH1515               2AZ
200794003200794903-000095     200794006001704011495SWT SPECKLED-EGGS 100G 0000001000+00002104+00000+0001T   00002104+0000001450          1400 CH1150               2AZ
200795000200795               200795               170213ME     1400+00000+ME0000002192+0000002192+000000000+000000307+0000002490+0000000009+I20000000000+0000002490+Z
200795001200795080-000127     200795006003000424351VALENTINES DAY 36x24CM 0000001000+00002192+00000+0001T   00002192+0000001454          1400 CH1112               2AZ
200796000200796               200796               170213ME     1400+00000+ME0000001402+0000001402+000000000+000000197+0000001590+0000000009+I20000000000+0000001590+Z
200796001200796304-001204     200796006001023737984FLOWER OCC. TEDDY/ROSES0000001000+00001402+00000+0001T   00001490+0006471459          1400 CH1510               2AZ
200797000200797               200797               170213ME     1400+00000+ME0000006574+0000006574+000000000+000000921+0000007490+0000000005+I20000000000+0000007490+Z
200797001200797018-000136     200797006001023659026MUG OCC LOVE W/PLUSH   0000001000+00003507+00000+0001T   00003507+0000001500          1400 CH1515               2AZ
200797002200797903-000619     200797006003000672455SWT LOLLY STR/BRRY 140G0000001000+00001753+00000+0001T   00001753+0000001500          1400 CH1150               2AZ
200797003200797077-000310     200797006001023608635GIFT-BAG 18X23CM GLOSS 0000001000+00001314+00000+0001T   00001314+0000001500          1400 CH1112               2AZ
200798000200798               200798               170213ME     1400+00000+ME0000002936+0000002936+000000000+000000412+0000003340+0000000008+I20000000000+0000003340+Z
200798001200798306-000020     200798006001023743145POCKET-TISSUES 10PCE   0000001000+00000306+00000+0001T   00000306+0000001502          1400 CH1200               2AZ
200798002200798204-000059     200798006001023528162MEMO HOLDER APPS 18PC  0000001000+00002630+00000+0001T   00002630+0000001502          1400 CH1300               2AZ
200799000200799               200799               170213ME     1400+00000+ME0000005262+0000005262+000000000+000000737+0000005999+0000000000+I40000005999+0000000000+Z
200799001200799159-003625     200799006001023902061TOILET-BRUSH W/STD 40cm0000001000+00005262+00000+0001T   00005262+0000001512          1400 CH1200               2AZ
200800000200800               200800               170213ME     1400+00000+ME0000002804+0000002804+000000000+000000394+0000003198+0000000000+I40000003198+0000000000+Z
200800001200800105-000750     200800006003000190270CONTAINERS 4xMINI 150ml0000002000+00001402+00000+0001T   00001402+0000001515          1400 CH1210               2AZ
200801000200801               200801               170213ME     1400+00000+ME0000014078+0000014078+000000000+000001973+0000016051+0000000000+I40000016051+0000000000+Z
200801001200801009-001304     200801006001023854575MELAMINE FLOWER PLATE  0000002000+00001753+00000+0001T   00001753+0000001522          1400 CH1210               2BZ
200801002200801567-011910     200801006003000677122BK MILLS&BOON 3-PACK   0000001000+00005262+00000+0001T   00005262+0000001522          1400 CH1757               2BZ
200801003200801567-010161     200801009780000008516BOOK TOP ASSTD MILLS   0000001000+00005262+00000+0001T   00005262+0000001522          1400 CH1757               2BZ
200801004200801112-116069     200801006009681820277TCS CARRIER BAG JUMBO  0000001000+00000048+00000+0001T   00000048+0000001522          1400 CH1090               2BZ
200802000200802               200802               170213ME     1400+00000+ME0000015786+0000015786+000000000+000002211+0000017997+0000000000+I40000017997+0000000000+Z
200802001200802301-000826     200802006001023784131ORN FAIRY KID W/HOOD   0000001000+00006139+00000+0001T   00006139+0000001525          1400 CH1505               2AZ
200802002200802301-000821     200802006001023762245ORN FAIRY DOOR 4-ASSTD 0000001000+00004385+00000+0001T   00004385+0000001525          1400 CH1505               2AZ
200802003200802301-000815     200802006003000462339ORN FAIRY W/UNICORN 6X50000001000+00005262+00000+0001T   00005262+0000001525          1400 CH1505               2AZ
200803000200803               200803               170213ME     1400+00000+ME0000000788+0000000788+000000000+000000111+0000000890+0000000009+I20000000000+0000000890+Z
200803001200803031-000878-E   200803006003000602599P/FRAME PHOTO BOOTH    0000001000+00000788+00000+0001T   00000788+0000001710          1400 CH1510               2AZ
M17021391                              CASH        MESLAVE 2                       Z-REPORT No.   560TOTAL (Sales - Refunds)           1485.68       CASH TO BE BANKED                  538.80       DEBIT CARDS                        946.88       CREDIT CARDS                         0.00       Z-READING                         1485.68       AIRTIME DEBIT CARD SALES             0.00       AIRTIME CARD SALES                   0.00       OVERS/UNDERS                         0.00       AIRTIME CASH SALES                   0.00       GIFT CARDS                           0.00       GIFT CARD CASH SALES                 0.00       T O T A L  CASH PAYOUTS              0.00                                                                                                                                                                                                                                                                                                                                                      Z
M17021392                              CASH        MEABSENT                                                                                                                                                                                          ANNUAL LEAVE                                                                                                                                                                                    DAY OFF                                                                                                                                                                                         COMMENTS                                                                                                                                                                                                                                                                                                                                                                                       Z
Y17021300                                          ME00006100130413+000027
ZME17021320043 SLAVE 2      SALES DATA                     NEXT INVOICE NO.  200804 0560
X ME Slave 2 First invoice 200776 170213 Last invoice 200803 170213 Next invoice 200804 Total number of records 000000088 clbackup completed 20:04:29
