213865000213865               213865               170213ME     1400+00000+ME0000001314+0000001314+000000000+000000184+0000001490+0000000008+I20000000000+0000001490+Z
213865001213865012-000001-A   213865006003000697663MICROWAVES PLATE-COVER 0000001000+00001314+00000+0001T   00001314+0000001254          1400 MT6300               3AZ
213866000213866               213866               170213ME     1400+00000+ME0000017402+0000017402+000000000+000002441+0000019843+0000000000+I40000019843+0000000000+Z
213866001213866903-000924     213866006942797400615SWT HOT WHEELS SPRAY   0000002000+00001578+00000+0001T   00001578+0000001301          1400 MT6150               3AZ
213866002213866077-000376     213866006003000444427GIFT-BAG 25X32CM 2PK   0000001000+00003069+00000+0001T   00003069+0000001301          1400 MT6112               3AZ
213866003213866112-116069     213866006009681820277TCS CARRIER BAG JUMBO  0000001000+00000048+00000+0001T   00000048+0000001301          1400 MT6090               3AZ
213866004213866031-000878-B   213866006001023799012P/FRAME 13x18cm PL-SLID0000002000+00001490+00000+0001T   00001490+0000001301          1400 MT6510               3AZ
213866005213866206-000630     213866006003000631919SPECTACLE CLEANING BRUS0000001000+00001227+00000+0001T   00001227+0000001301          1400 MT6321               3AZ
213866006213866903-000123     213866006925925909280SWEET GS MINI MALLOWS  0000002000+00000876+00000+0001T   00000876+0000001301          1400 MT6150               3AZ
213866007213866903-000111     213866006001704006378SWT LIQUORICE-TWISTS   0000001000+00001227+00000+0001T   00001227+0000001301          1400 MT6150               3AZ
213866008213866080-000133     213866006003000535613CARD&ENV MINI ASTD DSGN0000001000+00000437+00000+0001T   00000437+0000001301          1400 MT6112               3AZ
213866009213866903-000619     213866006003000672455SWT LOLLY STR/BRRY 140G0000002000+00001753+00000+0001T   00001753+0000001301          1400 MT6150               3AZ
213867000213867               213867               170213ME     1400+00000+ME0000028109+0000028109+000000000+000003940+0000032049+0000000000+I40000032049+0000000000+Z
213867001213867079-000260     213867006001023886385PAINT TUBS WT BASE 4COL0000001000+00002630+00000+0001T   00002630+0000001306          1400 MT6130               3AZ
213867002213867079-001002     213867006003000448715CANVAS A4 WOOD MOUNTED 0000001000+00002630+00000+0001T   00002630+0000001306          1400 MT6130               3AZ
213867003213867903-000610     213867006003000610518SWEET JUMBO BUBBLE GUM 0000001000+00001753+00000+0001T   00001753+0000001306          1400 MT6150               3AZ
213867004213867018-019000     213867006003000557288MUG OCC. LOVE JUMBO    0000001000+00005262+00000+0001T   00005262+0000001306          1400 MT6515               3AZ
213867005213867112-116069     213867006009681820277TCS CARRIER BAG JUMBO  0000001000+00000048+00000+0001T   00000048+0000001306          1400 MT6090               3AZ
213867006213867085-007004     213867006001023870681P/TOOL 15in1 SS W/POUCH0000001000+00007893+00000+0001T   00007893+0000001306          1400 MT6305               3AZ
213867007213867004-010030     213867006003000131587HOLDER DISC 32 SLEEVE  0000001000+00007893+00000+0001T   00007893+0000001306          1400 MT6310               3AZ
213868000213868               213868               170213ME     1400+00000+ME0000005291+0000005291+000000000+000000742+0000006030+0000000003+I20000000000+0000006030+Z
213868001213868564-000012     213868006001023130075BUBBLE BOTTLE MAGIC    0000001000+00000700+00000+0001T   00000700+0000001309          1400 MT6131               3AZ
213868002213868566-000308     213868006003000522521STICKER TAPE 3PCS      0000001000+00002630+00000+0001T   00002630+0000001309          1400 MT6130               3AZ
213868003213868903-005000     213868006002580020007SWT CT MALLOW FISH 120g0000001000+00001314+00000+0001T   00001314+0000001309          1400 MT6150               3AZ
213868004213868079-009700-D   213868006003000545711PAPER SIRIO A4 RED COL.0000002000+00000306+00000+0001T   00000306+0000001309          1400 MT6130               3AZ
213868005213868112-116038     213868006009681820246TCS CARRIER BAG MIDI   0000001000+00000035+00000+0001T   00000035+0000001309          1400 MT6090               3AZ
213869000213869               213869               170213ME     1400+00000+ME0000012310+0000012310+000000000+000001724+0000014034+0000000000+I40000014034+0000000000+Z
213869001213869206-000260     213869006003000632183ICE TRAY BUILDING BLOCK0000001000+00003507+00000+0001T   00003507+0000001311          1400 MT6321               3AZ
213869002213869006-005909     213869006003000081301PARTY FAVOUR STAR WAND 0000004000+00002192+00000+0001T   00002192+0000001311          1400 MT6131               3AZ
213869003213869112-116038     213869006009681820246TCS CARRIER BAG MIDI   0000001000+00000035+00000+0001T   00000035+0000001311          1400 MT6090               3AZ
213870000213870               213870               170213ME     1400+00000+ME0000006306+0000006306+000000000+000000885+0000007190+0000000001+I20000000000+0000007190+Z
213870001213870304-001204     213870006001023737984FLOWER OCC. TEDDY/ROSES0000003000+00001402+00000+0001T   00001490+0006471313          1400 MT6510               3AZ
213870002213870018-000177     213870006001023797513MUG MINI LOVE ASSTD    0000003000+00000700+00000+0001T   00000700+0000001313          1400 MT6515               3AZ
213871000213871               213871               170213ME     1400+00000+ME0000006171+0000006171+000000000+000000866+0000007030+0000000007+I20000000000+0000007030+Z
213871001213871077-000011-D   213871006001023808554TISSUE-WRAP WHITE 10PCE0000001000+00000876+00000+0001T   00000876+0000001314          1400 MT6112               3AZ
213871002213871077-000475     213871006003000640775GIFT-BAG DESIGNER MED  0000002000+00002630+00000+0001T   00002630+0000001314          1400 MT6112               3AZ
213871003213871112-116038     213871006009681820246TCS CARRIER BAG MIDI   0000001000+00000035+00000+0001T   00000035+0000001314          1400 MT6090               3AZ
213872000213872               213872               170213ME     1400+00000+ME0000014687+0000014687+000000000+000002059+0000016746+0000000000+I40000016746+0000000000+Z
213872001213872079-000013     213872006001023463890P/CRAYONS 24COL 18cm   0000001000+00003507+00000+0001T   00003507+0000001320          1400 MT6130               3AZ
213872002213872007-000046     213872006009635831366DISPLAY-BOOK PL A4 30PG0000003000+00002192+00000+0001T   00002192+0000001320          1400 MT6130               3AZ
213872003213872007-000402     213872006009635830864EXERCISE-BOOK A4 72PGE 0000001000+00000525+00000+0001T   00000525+0000001320          1400 MT6130               3AZ
213872004213872007-000405     213872006009635830369EXERCISE-BOOK A5 72PAGE0000001000+00000262+00000+0001T   00000262+0000001320          1400 MT6130               3AZ
213872005213872567-014134     213872006003000560189BOOK COLOURING 96 PAGE 0000001000+00002630+00000+0001T   00002630+0000001320          1400 MT6757               3AZ
213872006213872071-004202     213872006001023417176SCISSORS-SCHOOL PL/MTL 0000001000+00001139+00000+0001T   00001139+0000001320          1400 MT6130               3AZ
213872007213872112-116069     213872006009681820277TCS CARRIER BAG JUMBO  0000001000+00000048+00000+0001T   00000048+0000001320          1400 MT6090               3AZ
213873000213873               213873               170213ME     1400+00000+ME0000003554+0000003554+000000000+000000499+0000004050+0000000003+I20000000000+0000004050+Z
213873001213873006-000800     213873006001023902801HAT CABARET 14x18cm    0000002000+00001753+00000+0001T   00001753+0000001330          1400 MT6131               3AZ
213873002213873112-116069     213873006009681820277TCS CARRIER BAG JUMBO  0000001000+00000048+00000+0001T   00000048+0000001330          1400 MT6090               3AZ
213874000213874               213874               170213ME     1400+00000+ME0000002630+0000002630+000000000+000000369+0000002990+0000000009+I20000000000+0000002990+Z
213874001213874105-007410     213874006003000629671CONTAINER MINI 300ml   0000001000+00002630+00000+0001T   00003507+0008171330          1400 MT6210               3AZ
213875000213875               213875               170213ME     1400+00000+ME0000001753+0000001753+000000000+000000246+0000001990+0000000009+I20000000000+0000001990+Z
213875001213875071-002999-A   213875006003000611577PEN STICKBALL 10PCE ASS0000001000+00001753+00000+0001T   00001753+0000001331          1400 MT6130               3AZ
213876000213876               213876               170213ME     1400+00000+ME0000002980+0000002980+000000000+000000418+0000003390+0000000008+I20000000000+0000003390+Z
213876001213876077-000299     213876006003000395576G/BAG 32x25cm LRG LOVE 0000002000+00001490+00000+0001T   00001490+0000001336          1400 MT6112               3AZ
213877000213877               213877               170213ME     1400+00000+ME0000012714+0000012714+000000000+000001782+0000014490+0000000006+I20000000000+0000014490+Z
213877001213877565-000040     213877006008766115635NOVELTY ICON BEANIE    0000001000+00002630+00000+0001T   00002630+0000001338          1400 MT6745               3AZ
213877002213877206-000170     213877006003000631100POT HOLDER MTL MAN 20CM0000001000+00006139+00000+0001T   00006139+0000001338          1400 MT6321               3AZ
213877003213877206-000135     213877006003000680450T/BAG HLDR SILICONE    0000001000+00001753+00000+0001T   00001753+0000001338          1400 MT6321               3AZ
213877004213877206-000150     213877006003000628667SLICER CUCUMBER        0000001000+00002192+00000+0001T   00002192+0000001338          1400 MT6321               3AZ
213878000213878               213878               170213ME     1400+00000+ME0000001490+0000001490+000000000+000000209+0000001690+0000000009+I20000000000+0000001690+Z
213878001213878077-000304     213878006001023483232GIFT-BAG 25X32CM E/DAY 0000001000+00001490+00000+0001T   00001490+0000001340          1400 MT6112               3AZ
213879000213879               213879               170213ME     1400+00000+ME0000004997+0000004997+000000000+000000700+0000005690+0000000007+I20000000000+0000005690+Z
213879001213879018-000136     213879006001023659026MUG OCC LOVE W/PLUSH   0000001000+00003507+00000+0001T   00003507+0000001350          1400 MT6515               3AZ
213879002213879077-000299     213879006003000395576G/BAG 32x25cm LRG LOVE 0000001000+00001490+00000+0001T   00001490+0000001350          1400 MT6112               3AZ
213880000213880               213880               170213ME     1400+00000+ME0000002366+0000002366+000000000+000000332+0000002690+0000000008+I20000000000+0000002690+Z
213880001213880206-000630     213880006003000631919SPECTACLE CLEANING BRUS0000001000+00001227+00000+0001T   00001227+0000001351          1400 MT6321               3AZ
213880002213880903-000087     213880006001704000161SWT SPECKLED-EGGS 50G  0000001000+00001139+00000+0001T   00001139+0000001351          1400 MT6150               3AZ
213881000213881               213881               170213ME     1400+00000+ME0000007015+0000007015+000000000+000000983+0000007990+0000000008+I20000000000+0000007990+Z
213881001213881077-000011-E   213881006001023808646TISSUE-WRAP PINK 10PCE 0000001000+00000876+00000+0001T   00000876+0000001352          1400 MT6112               3AZ
213881002213881106-000901     213881006003000538058WATER BOTTLE 600ml     0000001000+00006139+00000+0001T   00006139+0000001352          1400 MT6210               3AZ
213882000213882               213882               170213ME     1400+00000+ME0000001578+0000001578+000000000+000000221+0000001790+0000000009+I20000000000+0000001790+Z
213882001213882077-000303     213882006001023593757GIFT-BAG PAPER MED     0000001000+00001578+00000+0001T   00001578+0000001359          1400 MT6112               3AZ
213883000213883               213883               170213ME     1400+00000+ME0000006139+0000006139+000000000+000000860+0000006990+0000000009+I20000000000+0000006990+Z
213883001213883366-000900     213883006003000006960DRESS UP WINGS BUG     0000001000+00006139+00000+0001T   00006139+0000001400          1400 MT6131               3AZ
213884000213884               213884               170213ME     1400+00000+ME0000011400+0000011400+000000000+000001597+0000012997+0000000000+I40000012997+0000000000+Z
213884001213884031-005925     213884006003000466030P/FRAME WDN 9x13CM ASST0000002000+00004385+00000+0001T   00004385+0000001406          1400 MT6510               3AZ
213884002213884566-000367     213884006003000645558STICKER WINDOW DECOR   0000001000+00002630+00000+0001T   00002630+0000001406          1400 MT6130               3AZ
213885000213885               213885               170213ME     1400+00000+ME0000001753+0000001753+000000000+000000246+0000001990+0000000009+I20000000000+0000001990+Z
213885001213885077-000299-A   213885006003000670888GIFT-BAG PAPER JMB LOVE0000001000+00001753+00000+0001T   00001753+0000001406          1400 MT6112               3AZ
213886000213886               213886               170213ME     1400+00000+ME0000031774+0000031774+000000000+000004456+0000036230+0000000000+I40000036230+0000000000+Z
213886001213886112-116069     213886006009681820277TCS CARRIER BAG JUMBO  0000001000+00000048+00000+0001T   00000048+0000001411          1400 MT6090               3AZ
213886002213886903-000111     213886006001704006378SWT LIQUORICE-TWISTS   0000001000+00001227+00000+0001T   00001227+0000001411          1400 MT6150               3AZ
213886003213886047-005126     213886006001023451255CABLETIES 100/150/200mm0000002000+00002192+00000+0001T   00002192+0000001411          1400 MT6880               3AZ
213886004213886133-000088     213886006003000396627DISH CLOTHS ASSORTED   0000001000+00004385+00000+0001T   00004385+0000001411          1400 MT6212               3AZ
213886005213886903-003080     213886005907029004673SWT SNACK STIX CHOC 50g0000002000+00000876+00000+0001T   00000876+0000001411          1400 MT6150               3AZ
213886006213886903-000670     213886006009803358008SWT SHERBET RED LIPS   0000006000+00000218+00000+0001T   00000218+0000001411          1400 MT6150               3AZ
213886007213886903-000087     213886006001704000161SWT SPECKLED-EGGS 50G  0000002000+00001139+00000+0001T   00001139+0000001411          1400 MT6150               3AZ
213886008213886903-002901     213886005996071650655QUICK MILK 5 S/BERRY   0000002000+00001578+00000+0001T   00001578+0000001411          1400 MT6150               3AZ
213886009213886903-000843     213886008693029031067SWT GUMMY JELAXY 80G   0000002000+00000964+00000+0001T   00000964+0000001411          1400 MT6150               3AZ
213886010213886088-000011     213886006001023752826AIR-FRESHNER GEL ASSTD 0000002000+00001753+00000+0001T   00001753+0000001411          1400 MT6212               3AZ
213886011213886002-021042     213886006001023621801TOOTHPICKS 250PCE      0000001000+00001227+00000+0001T   00001227+0000001411          1400 MT6300               3AZ
213886012213886056-005719     213886006001023820983CAR AIR-FRESHENER ASSTD0000001000+00002192+00000+0001T   00002192+0000001411          1400 MT6860               3AZ
213886013213886036-000015     213886006003000430420LINT REMOVER+BRUSH 24cm0000001000+00003507+00000+0001T   00003507+0000001411          1400 MT6212               3AZ
213886014213886078-000025     213886008887013700064SUPERGLUE 3g 1PCE CARD 0000001000+00000876+00000+0001T   00000876+0000001411          1400 MT6810               3AZ
213887000213887               213887               170213ME     1400+00000+ME0000005294+0000005294+000000000+000000743+0000006030+0000000007+I20000000000+0000006030+Z
213887001213887112-116038     213887006009681820246TCS CARRIER BAG MIDI   0000001000+00000035+00000+0001T   00000035+0000001412          1400 MT6090               3AZ
213887002213887903-000215     213887006002099001214SWT GS MALLOW TWIST PAC0000003000+00001753+00000+0001T   00001753+0000001412          1400 MT6150               3AZ
213888000213888               213888               170213ME     1400+00000+ME0000002104+0000002104+000000000+000000295+0000002390+0000000009+I20000000000+0000002390+Z
213888001213888903-000095     213888006001704011495SWT SPECKLED-EGGS 100G 0000001000+00002104+00000+0001T   00002104+0000001554          1400 MT6150               3AZ
213889000213889               213889               170213ME     1400+00000+ME0000007014+0000007014+000000000+000000982+0000007990+0000000006+I20000000000+0000007990+Z
213889001213889104-000180     213889006001023765758CUTLERY-TRAY PL        0000002000+00003507+00000+0001T   00003507+0000001625          1400 MT6210               3AZ
213890000213890               213890               170213ME     1400+00000+ME0000003542+0000003542+000000000+000000496+0000004030+0000000008+I20000000000+0000004030+Z
213890001213890031-000864-B   213890006001023798381P/FRAME MAHOGANY 13X18 0000001000+00003507+00000+0001T   00003507+0000001704          1400 MT6510               3BZ
213890002213890112-116038     213890006009681820246TCS CARRIER BAG MIDI   0000001000+00000035+00000+0001T   00000035+0000001704          1400 MT6090               3BZ
213891000213891               213891               170213ME     1400+00000+ME0000000613+0000000613+000000000+000000086+0000000690+0000000009+I20000000000+0000000690+Z
213891001213891027-078282     213891006001023767837SCOURER 25g SPIRAL-BALL0000001000+00000613+00000+0001T   00000613+0000001704          1400 MT6212               3BZ
213892000213892               213892               170213ME     1400+00000+ME0000016711+0000016711+000000000+000002341+0000019050+0000000002+I20000000000+0000019050+Z
213892001213892001-091415     213892006003000329113W/GLS OCC. LOVE 2PC 2800000001000+00008771+00000+0001T   00009648+0006471706          1400 MT6515               3BZ
213892002213892368-000175     213892006003000270316PLUSH BEAR 4 ASSTD 18CM0000001000+00006139+00000+0001T   00006139+0000001706          1400 MT6745               3BZ
213892003213892077-000290     213892006001023902023GIFT BOX 26x32x13cm    0000001000+00001753+00000+0001T   00001753+0000001706          1400 MT6112               3BZ
213892004213892112-116069     213892006009681820277TCS CARRIER BAG JUMBO  0000001000+00000048+00000+0001T   00000048+0000001706          1400 MT6090               3BZ
213893000213893               213893               170213ME     1400+00000+ME0000010524+0000010524+000000000+000001474+0000011990+0000000008+I20000000000+0000011990+Z
213893001213893001-091415     213893006003000329113W/GLS OCC. LOVE 2PC 2800000001000+00008771+00000+0001T   00009648+0006471707          1400 MT6515               3BZ
213893002213893077-000290     213893006001023902023GIFT BOX 26x32x13cm    0000001000+00001753+00000+0001T   00001753+0000001707          1400 MT6112               3BZ
213894000213894               213894               170213ME     1400+00000+ME0000004997+0000004997+000000000+000000700+0000005690+0000000007+I20000000000+0000005690+Z
213894001213894018-000136     213894006001023659026MUG OCC LOVE W/PLUSH   0000001000+00003507+00000+0001T   00003507+0000001707          1400 MT6515               3BZ
213894002213894077-000299     213894006003000395576G/BAG 32x25cm LRG LOVE 0000001000+00001490+00000+0001T   00001490+0000001707          1400 MT6112               3BZ
213895000213895               213895               170213ME     1400+00000+ME0000041220+0000041220+000000000+000005773+0000046990+0000000003+I20000000000+0000046990+Z
213895001213895266-001024     213895006003000022274SWORD SET MEDIEVAL     0000002000+00015788+00000+0001T   00015788+0000001713          1400 MT6710               3BZ
213895002213895105-007050-B   213895006002580007411CEREAL-STORE 3L ASSTD  0000002000+00003507+00000+0001T   00003507+0000001713          1400 MT6210               3BZ
213895003213895565-000602     213895006003000643790NOVELTY NINJA'S 3PACK  0000001000+00002630+00000+0001T   00002630+0000001713          1400 MT6745               3BZ
213896000213896               213896               170213ME     1400+00000+ME0000005524+0000005524+000000000+000000774+0000006298+0000000000+I40000006298+0000000000+Z
213896001213896002-000800     213896006001023770660PEELER MTL/PL WHITE    0000001000+00001139+00000+0001T   00001139+0000001714          1400 MT6300               3BZ
213896002213896020-000141     213896006001023629524STEAK-KNIVES P.P.CARD-60000001000+00004385+00000+0001T   00004385+0000001714          1400 MT6300               3BZ
213897000213897               213897               170213ME     1400+00000+ME0000002192+0000002192+000000000+000000307+0000002490+0000000009+I20000000000+0000002490+Z
213897001213897563-000318-L   213897006003000407088SERVIETTES 33cm RED    0000001000+00002192+00000+0001T   00002192+0000001718          1400 MT6214               3BZ
213898000213898               213898               170213ME     1400+00000+ME0000004820+0000004820+000000000+000000676+0000005496+0000000000+I40000005496+0000000000+Z
213898001213898306-000957     213898006003000558995FIRSTAID PLASTER 8PC   0000001000+00002630+00000+0001T   00002630+0000001720          1400 MT6200               3BZ
213898002213898306-000022     213898006001023734877COTTON-WOOL PLEATS 50g 0000001000+00000876+00000+0001T   00000876+0000001720          1400 MT6200               3BZ
213898003213898903-000844     213898005010478432567SWT CANDY DL LUV HEARTS0000001000+00001314+00000+0001T   00001314+0000001720          1400 MT6150               3BZ
213899000213899               213899               170213ME     1400+00000+ME0000004080+0000004080+000000000+000000573+0000004650+0000000003+I20000000000+0000004650+Z
213899001213899304-001204     213899006001023737984FLOWER OCC. TEDDY/ROSES0000001000+00001402+00000+0001T   00001490+0006471723          1400 MT6510               3BZ
213899002213899071-030012     213899006003000283842PEN NVLTY GLITTER 6PC  0000001000+00002630+00000+0001T   00002630+0000001723          1400 MT6130               3BZ
213899003213899112-116069     213899006009681820277TCS CARRIER BAG JUMBO  0000001000+00000048+00000+0001T   00000048+0000001723          1400 MT6090               3BZ
213900000213900               213900               170213ME     1400+00000+ME0000013148+0000013148+000000000+000001842+0000014990+0000000000+I40000014990+0000000000+Z
213900001213900079-000275     213900006003000160488PAINT-BRUSHES 6PCE PRO 0000001000+00001753+00000+0001T   00001753+0000001725          1400 MT6130               3BZ
213900002213900079-000012     213900006001023655332P/CRAYONS 12-COL LONG  0000001000+00001753+00000+0001T   00001753+0000001725          1400 MT6130               3BZ
213900003213900077-000312     213900006001023608697GIFT-BAG 10X35CM GLOSS 0000001000+00001314+00000+0001T   00001314+0000001725          1400 MT6112               3BZ
213900004213900560-000106     213900006001023747099FROG FOAM BEADS 10cm   0000001000+00003507+00000+0001T   00003507+0000001725          1400 MT6745               3BZ
213900005213900028-001051     213900006003000569045TUMBLER S/S 250ml      0000001000+00001314+00000+0001T   00001314+0000001725          1400 MT6305               3BZ
213900006213900159-000102     213900006001023552891SHOWER-CADDY 48cm      0000001000+00003507+00000+0001T   00003507+0000001725          1400 MT6200               3BZ
213901000213901               213901               170213ME     1400+00000+ME0000001753+0000001753+000000000+000000246+0000001999+0000000000+I40000001999+0000000000+Z
213901001213901077-000299-A   213901006003000670888GIFT-BAG PAPER JMB LOVE0000001000+00001753+00000+0001T   00001753+0000001727          1400 MT6112               3BZ
213902000213902               213902               170213ME     1400+00000+ME0000002630+0000002630+000000000+000000369+0000002990+0000000009+I20000000000+0000002990+Z
213902001213902263-001003     213902006001023789846CARS RACING SET-OF-2   0000001000+00002630+00000+0001T   00002630+0000001730          1400 MT6710               3BZ
213903000213903               213903               170213ME     1400+00000+ME0000002630+0000002630+000000000+000000369+0000002990+0000000009+I20000000000+0000002990+Z
213903001213903079-013032-D   213903006003000389643RIBBONS                0000001000+00002630+00000+0001T   00002630+0000001730          1400 MT6130               3BZ
213904000213904               213904               170213ME     1400+00000+ME0000027671+0000027671+000000000+000003877+0000031540+0000000008+I20000000000+0000031540+Z
213904001213904077-000270     213904006003000395453GIFT-BAG PPR JMB 33X45 0000001000+00002630+00000+0001T   00002630+0000001739          1400 MT6112               3BZ
213904002213904077-000454     213904006003000285228G/BAG METALLIC LRG EMB 0000001000+00001753+00000+0001T   00001753+0000001739          1400 MT6112               3BZ
213904003213904031-000924     213904006001023669964P/FRAME COLLAGE PL     0000001000+00008771+00000+0001T   00008771+0000001739          1400 MT6510               3BZ
213904004213904018-000136     213904006001023659026MUG OCC LOVE W/PLUSH   0000001000+00003507+00000+0001T   00003507+0000001739          1400 MT6515               3BZ
213904005213904301-085001     213904006003000297610ORN WATERBALL LOVE ASST0000001000+00004823+00000+0001T   00004823+0000001739          1400 MT6505               3BZ
213904006213904368-000175     213904006003000270316PLUSH BEAR 4 ASSTD 18CM0000001000+00006139+00000+0001T   00006139+0000001739          1400 MT6745               3BZ
213904007213904112-116069     213904006009681820277TCS CARRIER BAG JUMBO  0000001000+00000048+00000+0001T   00000048+0000001739          1400 MT6090               3BZ
213905000213905               213905               170213ME     1400+00000+ME0000007892+0000007892+000000000+000001105+0000008990+0000000007+I20000000000+0000008990+Z
213905001213905018-000136     213905006001023659026MUG OCC LOVE W/PLUSH   0000001000+00003507+00000+0001T   00003507+0000001740          1400 MT6515               3BZ
213905002213905001-000175     213905006001023788108B/MUG GLS LOVE 380ML   0000001000+00004385+00000+0001T   00004385+0000001740          1400 MT6515               3BZ
213906000213906               213906               170213ME     1400+00000+ME0000005085+0000005085+000000000+000000712+0000005790+0000000007+I20000000000+0000005790+Z
213906001213906077-000303     213906006001023593757GIFT-BAG PAPER MED     0000001000+00001578+00000+0001T   00001578+0000001742          1400 MT6112               3BZ
213906002213906018-000136     213906006001023659026MUG OCC LOVE W/PLUSH   0000001000+00003507+00000+0001T   00003507+0000001742          1400 MT6515               3BZ
213907000213907               213907               170213ME     1400+00000+ME0000006172+0000006172+000000000+000000865+0000007037+0000000000+I40000007037+0000000000+Z
213907001213907071-000672     213907006003000138975STATIONERY CLIPS PAPER 0000002000+00002192+00000+0001T   00002192+0000001743          1400 MT6130               3BZ
213907002213907012-000001     213907006003000331048MICRO PLATE-COVER 26X6 0000001000+00001753+00000+0001T   00002192+0008191743          1400 MT6300               3BZ
213907003213907112-116038     213907006009681820246TCS CARRIER BAG MIDI   0000001000+00000035+00000+0001T   00000035+0000001743          1400 MT6090               3BZ
213908000213908               213908               170213ME     1400+00000+ME0000003506+0000003506+000000000+000000492+0000003990+0000000008+I20000000000+0000003990+Z
213908001213908903-000624     213908006003000671793SWEET LOLLY BLU/BRRY   0000001000+00001753+00000+0001T   00001753+0000001754          1400 MT6150               3AZ
213908002213908077-000289     213908006001023901996GIFT BOX 20x25x11cm    0000001000+00001753+00000+0001T   00001753+0000001754          1400 MT6112               3AZ
213909000213909               213909               170213ME     1400+00000+ME0000018458+0000018458+000000000+000002587+0000021045+0000000000+I40000021045+0000000000+Z
213909001213909368-000100     213909006001023474742PLUSH MD BEAR 12cm     0000002000+00002630+00000+0001T   00002630+0000001759          1400 MT6745               3AZ
213909003213909565-000887     213909006003000412334NOVELTY SILICONE TOY   0000001000+00002192+00000+0001T   00002192+0000001759          1400 MT6745               3AZ
213909004213909077-000408     213909006003000145218G/BAG PP 15X21X7CM     0000001000+00000876+00000+0001T   00000876+0000001759          1400 MT6112               3AZ
213909005213909077-000151     213909006008766114676GIFT-WRAP C/PHANE ASSTD0000001000+00000876+00000+0001T   00000876+0000001759          1400 MT6112               3AZ
213909006213909903-000616     213909006003000644827SWT HS SWORD 60cm      0000001000+00003507+00000+0001T   00003507+0000001759          1400 MT6150               3AZ
213909007213909566-000068     213909006003000418046POP UP LOVE 2 ASSTD    0000001000+00002192+00000+0001T   00002192+0000001759          1400 MT6130               3AZ
213909008213909112-116069     213909006009681820277TCS CARRIER BAG JUMBO  0000001000+00000048+00000+0001T   00000048+0000001759          1400 MT6090               3AZ
213909009213909018-005009     213909006001023725608MUG W/PLUSH-BEAR LOVE  0000001000+00003507+00000+0001T   00003507+0000001759          1400 MT6515               3AZ
A17021300                                          12052306MESLAVE 3                       MT61IC
A17021301                                          15144370MESLAVE 3                       MT61IC
C21390900                                          170213ME368-000151     17581321SLAVE 3     MT61IC0000000000+0000000000+0020000001000+
M17021391                              CASH        MESLAVE 3                       Z-REPORT No.   538TOTAL (Sales - Refunds)           4345.24       CASH TO BE BANKED                 2457.60       DEBIT CARDS                       1887.64       CREDIT CARDS                         0.00       Z-READING                         4345.24       AIRTIME DEBIT CARD SALES             0.00       AIRTIME CARD SALES                   0.00       OVERS/UNDERS                         0.00       AIRTIME CASH SALES                   0.00       GIFT CARDS                           0.00       GIFT CARD CASH SALES                 0.00       T O T A L  CASH PAYOUTS              0.00                                                                                                                                                                                                                                                                                                                                                      Z
M17021392                              CASH        MEABSENT                                                                                                                                                                                          ANNUAL LEAVE                                                                                                                                                                                    DAY OFF                                                                                                                                                                                         COMMENTS                                                                                                                                                                                                                                                                                                                                                                                       Z
Y17021300                                          ME00016800381313+000045
ZME17021320043 SLAVE 3      SALES DATA                     NEXT INVOICE NO.  213910 0538
X ME Slave 3 First invoice 213865 170213 Last invoice 213909 170213 Next invoice 213910 Total number of records 000000184 clbackup completed 20:04:31
