111078000111078               111078               170213MF     1400+00000+MF0000004856+0000004856+000000000+000000681+0000005530+0000000007+I20000000000+0000005530+Z
111078001111078112-116038     111078006009681820246TCS CARRIER BAG MIDI   0000001000+00000035+00000+0001T   00000035+0000000924          1400 ND8090               1AZ
111078002111078369-001034     111078006003000105632BABY RATTLE SINGLE ASST0000001000+00001753+00000+0001T   00001753+0000000924          1400 ND8745               1AZ
111078003111078565-000052     111078006003000615551NOVELTY PUTTY FARTS    0000001000+00001578+00000+0001T   00001578+0000000924          1400 ND8745               1AZ
111078004111078051-002401     111078006001023523570TRIGGER-SPRAYER   300ml0000001000+00001490+00000+0001T   00001490+0000000924          1400 ND8820               1AZ
111079000111079               111079               170213MF     1400+00000+MF0000021779+0000021779+000000000+000003059+0000024838+0000000000+I40000024838+0000000000+Z
111079001111079200-000305     111079006003000622467FOOD OVEN ROASTING BAGS0000001000+00001753+00000+0001T   00002630+0008170952          1400 ND8214               1AZ
111079002111079112-116069     111079006009681820277TCS CARRIER BAG JUMBO  0000001000+00000048+00000+0001T   00000048+0000000952          1400 ND8090               1AZ
111079003111079012-000001     111079006003000331048MICRO PLATE-COVER 26X6 0000001000+00001753+00000+0001T   00002192+0008190952          1400 ND8300               1AZ
111079004111079204-000030     111079006003000683536MEMO HOLDER SAYINGS    0000001000+00003507+00000+0001T   00003507+0000000952          1400 ND8300               1AZ
111079005111079567-011910     111079006003000677122BK MILLS&BOON 3-PACK   0000001000+00005262+00000+0001T   00005262+0000000952          1400 ND8757               1AZ
111079006111079001-000169     111079006005231103302TUMBLER 240ml HI-BALL  0000012000+00000788+00000+0001T   00000788+0000000952          1400 ND8515               1AZ
111080000111080               111080               170213MF     1400+00000+MF0000001753+0000001753+000000000+000000246+0000001990+0000000009+I20000000000+0000001990+Z
111080001111080004-000012     111080006003000257614CAMERA CASE W/STRAP    0000001000+00001753+00000+0001T   00002630+0008190955          1400 ND8310               1AZ
111081000111081               111081               170213MF     1400+00000+MF0000008067+0000008067+000000000+000001131+0000009198+0000000000+I40000009198+0000000000+Z
111081001111081046-000012-VP  111081006003000537914BATTERIES H/P SIZE:AA  0000001000+00004823+00000+0001T   00004823+0000000959          1400 ND8312               1AZ
111081002111081046-000400     111081006001023804983BATT ALKALINE 1.5Vx30PC0000001000+00003244+00000+0001T   00003244+0000000959          1400 ND8312               1AZ
111082000111082               111082               170213MF     1400+00000+MF0000004843+0000004843+000000000+000000683+0000005520+0000000006+I20000000000+0000005520+Z
111082001111082006-000171-H   111082006003000609574BALLOONS 1PC RED PRINT 0000010000+00000218+00000+0001T   00000218+0000001001          1400 ND8131               1AZ
111082002111082006-000166-G   111082006003000607976BALLOONS HELIUM 6PC BLK0000002000+00001314+00000+0001T   00001314+0000001001          1400 ND8131               1AZ
111082003111082112-116038     111082006009681820246TCS CARRIER BAG MIDI   0000001000+00000035+00000+0001T   00000035+0000001001          1400 ND8090               1AZ
111083000111083               111083               170213MF     1400+00000+MF0000001753+0000001753+000000000+000000246+0000001990+0000000009+I20000000000+0000001990+Z
111083001111083079-000572     111083006003000533633ART+CRAFT O/PASTEL 12PC0000001000+00001753+00000+0001T   00001753+0000001014          1400 ND8130               1AZ
111084000111084               111084               170213MF     1400+00000+MF0000002453+0000002453+000000000+000000344+0000002790+0000000007+I20000000000+0000002790+Z
111084001111084903-000211     111084006002099001238SWT GS MALLOW ICE CREAM0000001000+00001753+00000+0001T   00001753+0000001031          1400 ND8150               1AZ
111084002111084007-000166     111084006009685857316SPIRAL NOTES A6 100PG  0000001000+00000700+00000+0001T   00000700+0000001031          1400 ND8130               1AZ
111085000111085               111085               170213MF     1400+00000+MF0000001753+0000001753+000000000+000000246+0000001990+0000000009+I20000000000+0000001990+Z
111085001111085142-000815     111085006001023183903GLOVES RUBBER LARGE    0000001000+00001753+00000+0001T   00001753+0000001032          1400 ND8810               1AZ
111086000111086               111086               170213MF     1400+00000+MF0000001227+0000001227+000000000+000000172+0000001390+0000000009+I20000000000+0000001390+Z
111086001111086251-000041     111086006001023515889SEAL-TAPE BUFF 48mmx50m0000001000+00001227+00000+0001T   00001227+0000001033          1400 ND8810               1AZ
111087000111087               111087               170213MF     1400+00000+MF0000010990+0000010990+000000000+000001540+0000012530+0000000000+I20000000000+0000012530+Z
111087001111087112-116038     111087006009681820246TCS CARRIER BAG MIDI   0000001000+00000035+00000+0001T   00000035+0000001200          1400 ND8090               1AZ
111087002111087072-000235     111087006003000236183DOG-COLLAR REFLECTIVE  0000004000+00001314+00000+0001T   00001753+0008191200          1400 ND8870               1AZ
111087003111087072-020302     111087006001023858818PET-DOG STICK/RING 24cm0000001000+00002630+00000+0001T   00002630+0000001200          1400 ND8870               1AZ
111087004111087072-020314     111087006003000605453PET TOY PUP VINYL CHICK0000001000+00003069+00000+0001T   00003069+0000001200          1400 ND8870               1AZ
111088000111088               111088               170213MF     1400+00000+MF0000017121+0000017121+000000000+000002399+0000019520+0000000000+I20000000000+0000019520+Z
111088001111088112-116038     111088006009681820246TCS CARRIER BAG MIDI   0000001000+00000035+00000+0001T   00000035+0000001204          1400 ND8090               1AZ
111088002111088567-011344     111088006003000630714BK COLOURING THERAPY 640000001000+00003507+00000+0001T   00003507+0000001204          1400 ND8757               1AZ
111088003111088077-000315     111088006003000181186GIFT-BAG 20x28cm MATT  0000001000+00001578+00000+0001T   00001578+0000001204          1400 ND8112               1AZ
111088004111088077-000310     111088006001023608635GIFT-BAG 18X23CM GLOSS 0000005000+00001314+00000+0001T   00001314+0000001204          1400 ND8112               1AZ
111088005111088079-000206     111088006003000639700PENCIL CRAYONS THERAPY 0000001000+00001753+00000+0001T   00001753+0000001204          1400 ND8130               1AZ
111088006111088077-000317     111088006001023609748GIFT-BAG 11X14CM E/D AN0000003000+00000613+00000+0001T   00000613+0000001204          1400 ND8112               1AZ
111088007111088077-000321     111088006001023677501GIFT-BAG 11X14CM E/D FL0000001000+00000613+00000+0001T   00000613+0000001204          1400 ND8112               1AZ
111088008111088077-000317     111088006001023609748GIFT-BAG 11X14CM E/D AN0000001000+00000613+00000+0001T   00000613+0000001204          1400 ND8112               1AZ
111088009111088077-000321     111088006001023677501GIFT-BAG 11X14CM E/D FL0000001000+00000613+00000+0001T   00000613+0000001204          1400 ND8112               1AZ
111089000111089               111089               170213MF     1400+00000+MF0000001051+0000001051+000000000+000000148+0000001190+0000000009+I20000000000+0000001190+Z
111089001111089903-002892     111089008935001721338MENTOS JUICEBLAST BERRY0000001000+00001051+00000+0001T   00001051+0000001207          1400 ND8150               1AZ
111090000111090               111090               170213MF     1400+00000+MF0000013800+0000013800+000000000+000001934+0000015734+0000000000+I40000015734+0000000000+Z
111090001111090903-000159     111090006003000417629SWT LB SMALL DUMMIE    0000001000+00000350+00000+0001T   00000350+0000001210          1400 ND8150               1AZ
111090002111090301-085002     111090006003000420704ORN OCC. LOVE BELL ASST0000001000+00001753+00000+0001T   00002630+0008121210          1400 ND8505               1AZ
111090003111090566-001234     111090006003000217793STICKERS LASER ASSTD   0000001000+00001578+00000+0001T   00001578+0000001210          1400 ND8130               1AZ
111090004111090903-000211     111090006002099001238SWT GS MALLOW ICE CREAM0000001000+00001753+00000+0001T   00001753+0000001210          1400 ND8150               1AZ
111090005111090564-000037     111090006001023708724BUBBLE W/BLOW RING     0000001000+00003069+00000+0001T   00003069+0000001210          1400 ND8131               1AZ
111090006111090018-019000     111090006003000557288MUG OCC. LOVE JUMBO    0000001000+00005262+00000+0001T   00005262+0000001210          1400 ND8515               1AZ
111090007111090112-116038     111090006009681820246TCS CARRIER BAG MIDI   0000001000+00000035+00000+0001T   00000035+0000001210          1400 ND8090               1AZ
111091000111091               111091               170213MF     1400+00000+MF0000022537+0000022537+000000000+000003158+0000025695+0000000000+I40000025695+0000000000+Z
111091001111091030-004050     111091006003000658732PLAQUE WOODEN SIGN     0000001000+00011402+00000+0001T   00011402+0000001213          1400 ND8505               1AZ
111091002111091077-000308     111091006001023595812GIFT-BAG 33X45CM E/DAY 0000001000+00001753+00000+0001T   00001753+0000001213          1400 ND8112               1AZ
111091003111091368-000021     111091006003000672141PLUSH DINOSAUR 27cm    0000001000+00007016+00000+0001T   00007016+0000001213          1400 ND8745               1AZ
111091004111091263-000010     111091006003000551293VEHICLE ANIMAL WORLD 3p0000001000+00001753+00000+0001T   00001753+0000001213          1400 ND8710               1AZ
111091005111091304-001011     111091006001023806727FLWR ROSE RED W/BEAR   0000001000+00000613+00000+0001T   00000788+0006471213          1400 ND8510               1AZ
111092000111092               111092               170213MF     1400+00000+MF0000020024+0000020024+000000000+000002807+0000022831+0000000000+I40000022831+0000000000+Z
111092001111092112-116038     111092006009681820246TCS CARRIER BAG MIDI   0000001000+00000035+00000+0001T   00000035+0000001215          1400 ND8090               1AZ
111092002111092006-000165     111092006001023758392BALLOONS LRG BAG-OF-1000000001000+00008771+00000+0001T   00008771+0000001215          1400 ND8131               1AZ
111092003111092006-000323-A   111092006001023739452CONFETTI SLVR/GLD 3PACK0000001000+00002630+00000+0001T   00002630+0000001215          1400 ND8131               1AZ
111092004111092903-000510     111092006001704012621SWEET MS ZBDZ S/BERRY  0000001000+00001227+00000+0001T   00001227+0000001215          1400 ND8150               1AZ
111092005111092903-000087     111092006001704000161SWT SPECKLED-EGGS 50G  0000002000+00001139+00000+0001T   00001139+0000001215          1400 ND8150               1AZ
111092006111092903-000518     111092006001704012782SWT STRAWS S/BERRY 100g0000001000+00001227+00000+0001T   00001227+0000001215          1400 ND8150               1AZ
111092007111092903-000215     111092006002099001214SWT GS MALLOW TWIST PAC0000001000+00001753+00000+0001T   00001753+0000001215          1400 ND8150               1AZ
111092008111092903-000151     111092006009803374411SWT SML RND R/BOW LOLLY0000001000+00000525+00000+0001T   00000525+0000001215          1400 ND8150               1AZ
111092009111092018-000127     111092006001023380289MUG OCC STRAIGHT LOVE  0000001000+00001578+00000+0001T   00001753+0006471215          1400 ND8515               1AZ
111093000111093               111093               170213MF     1400+00000+MF0000007889+0000007889+000000000+000001106+0000008990+0000000005+I20000000000+0000008990+Z
111093001111093036-005010     111093006002580008739COATHANGER KIDDIES PL  0000001000+00002630+00000+0001T   00002630+0000001216          1400 ND8212               1AZ
111093002111093034-079078     111093006001023996565COOEY BABY MANICURE-SET0000001000+00003507+00000+0001T   00003507+0000001216          1400 ND8215               1AZ
111093003111093903-000861     111093005010478430822SWT LOVE HEARTS SML    0000002000+00000876+00000+0001T   00000876+0000001216          1400 ND8150               1AZ
111094000111094               111094               170213MF     1400+00000+MF0000021048+0000021048+000000000+000002949+0000023997+0000000000+I40000023997+0000000000+Z
111094001111094089-000004     111094006003000137749KEY CHAIN MTL CHARMS   0000001000+00001753+00000+0001T   00001753+0000001223          1400 ND8205               1AZ
111094002111094466-001012     111094006001023508157CRICKET-SET SIZE-3     0000001000+00011402+00000+0001T   00011402+0000001223          1400 ND8785               1AZ
111094003111094466-000041     111094006003000590100BALL FOOTBALL IN BOX   0000001000+00007893+00000+0001T   00007893+0000001223          1400 ND8785               1AZ
111095000111095               111095               170213MF     1400+00000+MF0000003069+0000003069+000000000+000000430+0000003490+0000000009+I20000000000+0000003490+Z
111095001111095024-000212     111095006001023858030COOKIE-CUTTERS PL SMALL0000001000+00003069+00000+0001T   00003069+0000001224          1400 ND8300               1AZ
111096000111096               111096               170213MF     1400+00000+MF0000001753+0000001753+000000000+000000246+0000001990+0000000009+I20000000000+0000001990+Z
111096001111096006-000107     111096006003000587872BALLOONS ITS BOY/GIRL  0000001000+00001753+00000+0001T   00001753+0000001240          1400 ND8131               1AZ
111097000111097               111097               170213MF     1400+00000+MF0000011662+0000011662+000000000+000001634+0000013290+0000000006+I20000000000+0000013290+Z
111097001111097046-000012-VP  111097006003000537914BATTERIES H/P SIZE:AA  0000001000+00004823+00000+0001T   00004823+0000001250          1400 ND8312               1AZ
111097002111097046-002023-C   111097006001023698254BATTERIES ALKALN CARD-50000001000+00005700+00000+0001T   00005700+0000001250          1400 ND8312               1AZ
111097003111097903-000699     111097006002099007018SWT CANDY FRUIT CHEWS  0000001000+00001139+00000+0001T   00001139+0000001250          1400 ND8150               1AZ
111098000111098               111098               170213MF     1400+00000+MF0000000876+0000000876+000000000+000000123+0000000990+0000000009+I20000000000+0000000990+Z
111098001111098083-000295     111098006001023898562LIGHTER-GAS BUTANE 18ml0000001000+00000876+00000+0001T   00000876+0000001258          1400 ND8315               1AZ
111099000111099               111099               170213MF     1400+00000+MF0000022589+0000022589+000000000+000003168+0000025757+0000000000+I40000025757+0000000000+Z
111099001111099112-116053     111099006006438002399TCS CARRIER BAG 38L    0000001000+00000069+00000+0001T   00000069+0000001304          1400 ND8090               1AZ
111099002111099366-000125     111099006003000006786DRESSUP WINGS/WAND/BAND0000001000+00005262+00000+0001T   00005262+0000001304          1400 ND8131               1AZ
111099003111099079-009700-D   111099006003000545711PAPER SIRIO A4 RED COL.0000002000+00000306+00000+0001T   00000306+0000001304          1400 ND8130               1AZ
111099004111099301-085000     111099006003000674299 ORN OCC. LOVE HEARTS  0000001000+00002192+00000+0001T   00002192+0000001304          1400 ND8505               1AZ
111099005111099006-000167-C   111099006003000516971BALLOONS PINK METALLIC 0000002000+00001314+00000+0001T   00001314+0000001304          1400 ND8131               1AZ
111099006111099903-000861     111099005010478430822SWT LOVE HEARTS SML    0000007000+00000876+00000+0001T   00000876+0000001304          1400 ND8150               1AZ
111099007111099903-000844     111099005010478432567SWT CANDY DL LUV HEARTS0000001000+00001314+00000+0001T   00001314+0000001304          1400 ND8150               1AZ
111099008111099903-000861     111099005010478430822SWT LOVE HEARTS SML    0000005000+00000876+00000+0001T   00000876+0000001304          1400 ND8150               1AZ
111100000111100               111100               170213MF     1400+00000+MF0000009835+0000009835+000000000+000001377+0000011212+0000000000+I40000011212+0000000000+Z
111100001111100018-000177     111100006001023797513MUG MINI LOVE ASSTD    0000014000+00000700+00000+0001T   00000700+0000001306          1400 ND8515               1AZ
111100002111100112-116038     111100006009681820246TCS CARRIER BAG MIDI   0000001000+00000035+00000+0001T   00000035+0000001306          1400 ND8090               1AZ
111101000111101               111101               170213MF     1400+00000+MF0000006401+0000006401+000000000+000000897+0000007290+0000000008+I20000000000+0000007290+Z
111101001111101567-011910     111101006003000677122BK MILLS&BOON 3-PACK   0000001000+00005262+00000+0001T   00005262+0000001307          1400 ND8757               1AZ
111101002111101903-000087     111101006001704000161SWT SPECKLED-EGGS 50G  0000001000+00001139+00000+0001T   00001139+0000001307          1400 ND8150               1AZ
111102000111102               111102               170213MF     1400+00000+MF0000003068+0000003068+000000000+000000430+0000003498+0000000000+I40000003498+0000000000+Z
111102001111102200-000200     111102006008766091144BAKING ALUM FOIL 2PCE  0000001000+00002192+00000+0001T   00002192+0000001310          1400 ND8214               1AZ
111102002111102903-003080     111102005907029004673SWT SNACK STIX CHOC 50g0000001000+00000876+00000+0001T   00000876+0000001310          1400 ND8150               1AZ
111103000111103               111103               170213MF     1400+00000+MF0000000876-0000000876-000000000+000000123-0000001000-0000000001+I20000000000+0000001000-Z
111103001111103903-003080     111103005907029004673SWT SNACK STIX CHOC 50g0000001000-00000876+00000+0001T   00000876+0000001311          1400 ND81501IC            1 Z
111104000111104               111104               170213MF     1400+00000+MF0000002192+0000002192+000000000+000000307+0000002490+0000000009+I20000000000+0000002490+Z
111104001111104080-000127     111104006003000424351VALENTINES DAY 36x24CM 0000001000+00002192+00000+0001T   00002192+0000001318          1400 ND8112               1AZ
111105000111105               111105               170213MF     1400+00000+MF0000004208+0000004208+000000000+000000590+0000004790+0000000008+I20000000000+0000004790+Z
111105001111105903-000095     111105006001704011495SWT SPECKLED-EGGS 100G 0000002000+00002104+00000+0001T   00002104+0000001320          1400 ND8150               1AZ
111106000111106               111106               170213MF     1400+00000+MF0000002192+0000002192+000000000+000000307+0000002490+0000000009+I20000000000+0000002490+Z
111106001111106301-085000     111106006003000674299 ORN OCC. LOVE HEARTS  0000001000+00002192+00000+0001T   00002192+0000001322          1400 ND8505               1AZ
111107000111107               111107               170213MF     1400+00000+MF0000017132+0000017132+000000000+000002400+0000019532+0000000000+I40000019532+0000000000+Z
111107001111107112-116038     111107006009681820246TCS CARRIER BAG MIDI   0000001000+00000035+00000+0001T   00000035+0000001342          1400 ND8090               1AZ
111107002111107001-091415     111107006003000329113W/GLS OCC. LOVE 2PC 2800000001000+00008771+00000+0001T   00009648+0006471342          1400 ND8515               1AZ
111107003111107080-000124     111107006003000297733CARD & ENV VALENTINES  0000001000+00001578+00000+0001T   00001578+0000001342          1400 ND8112               1AZ
111107004111107039-081008     111107006008766081008CANDLES 9PCE SCENTED   0000001000+00002630+00000+0001T   00002630+0000001342          1400 ND8510               1AZ
111107005111107034-078833     111107006001023857491SIGN BABY-ON-BOARD     0000001000+00001490+00000+0001T   00001490+0000001342          1400 ND8215               1AZ
111107006111107046-000012     111107006904708013062BATTERIES AA  CARD-OF-40000002000+00001314+00000+0001T   00001314+0000001342          1400 ND8312               1AZ
111108000111108               111108               170213MF     1400+00000+MF0000015648+0000015648+000000000+000002193+0000017841+0000000000+I40000017841+0000000000+Z
111108001111108112-116069     111108006009681820277TCS CARRIER BAG JUMBO  0000001000+00000048+00000+0001T   00000048+0000001346          1400 ND8090               1AZ
111108002111108079-001007     111108006003000682454PAINT CANVAS ROUND/OVAL0000001000+00005262+00000+0001T   00005262+0000001346          1400 ND8130               1AZ
111108003111108566-001234     111108006003000217793STICKERS LASER ASSTD   0000002000+00001578+00000+0001T   00001578+0000001346          1400 ND8130               1AZ
111108004111108071-081091     111108006001151010287STAED/GENKEM ALL-STICK 0000001000+00001227+00000+0001T   00001227+0000001346          1400 ND8130               1AZ
111108005111108019-000124     111108006003000329502PLANTER GALV ROUND SML 0000001000+00003507+00000+0001T   00004385+0008171346          1400 ND8510               1AZ
111108006111108079-009700-C   111108006003000545636PAPER SIRIO A4 VIOLET  0000004000+00000306+00000+0001T   00000306+0000001346          1400 ND8130               1AZ
111108007111108079-009700-I   111108006003000546114PAPER SIRIO A4 LILAC   0000004000+00000306+00000+0001T   00000306+0000001346          1400 ND8130               1AZ
111109000111109               111109               170213MF     1400+00000+MF0000000350+0000000350+000000000+000000049+0000000390+0000000009+I20000000000+0000000390+Z
111109001111109007-000167     111109006009685857347SPIRAL NOTES A7 72PG   0000001000+00000350+00000+0001T   00000350+0000001351          1400 ND8130               1AZ
111110000111110               111110               170213MF     1400+00000+MF0000004734+0000004734+000000000+000000663+0000005390+0000000007+I20000000000+0000005390+Z
111110001111110080-000124     111110006003000297733CARD & ENV VALENTINES  0000002000+00001578+00000+0001T   00001578+0000001412          1400 ND8112               1AZ
111110002111110018-000127     111110006001023380289MUG OCC STRAIGHT LOVE  0000001000+00001578+00000+0001T   00001753+0006471412          1400 ND8515               1AZ
111111000111111               111111               170213MF     1400+00000+MF0000004383+0000004383+000000000+000000614+0000004997+0000000000+I40000004997+0000000000+Z
111111001111111018-000130     111111006001023867537MUG OCC LOVE MINI+HEART0000001000+00003507+00000+0001T   00003507+0000001415          1400 ND8515               1AZ
111111002111111903-003075     111111003800065783125SWT CHOC FAFL WAFER 52g0000001000+00000876+00000+0001T   00000876+0000001415          1400 ND8150               1AZ
111112000111112               111112               170213MF     1400+00000+MF0000001753+0000001753+000000000+000000246+0000001999+0000000000+I40000001999+0000000000+Z
111112001111112903-000926     111112006914204004556SWT NOVELTY ST N/LACE  0000001000+00001753+00000+0001T   00001753+0000001416          1400 ND8150               1AZ
111113000111113               111113               170213MF     1400+00000+MF0000008499+0000008499+000000000+000001190+0000009689+0000000000+I40000009689+0000000000+Z
111113001111113077-000303     111113006001023593757GIFT-BAG PAPER MED     0000001000+00001578+00000+0001T   00001578+0000001419          1400 ND8112               1AZ
111113002111113903-000844     111113005010478432567SWT CANDY DL LUV HEARTS0000001000+00001314+00000+0001T   00001314+0000001419          1400 ND8150               1AZ
111113003111113903-000120     111113006002099001665SWEET GS ZILLIONS 50g  0000003000+00000700+00000+0001T   00000700+0000001419          1400 ND8150               1AZ
111113004111113031-000923     111113006001023669933P/FRAME BLK W/WORDS    0000001000+00003507+00000+0001T   00003507+0000001419          1400 ND8510               1AZ
111114000111114               111114               170213MF     1400+00000+MF0000001488+0000001488+000000000+000000209+0000001690+0000000007+I20000000000+0000001690+Z
111114001111114903-000896     111114006009680772270SWT BITZ BL/CURRANT 50G0000001000+00000788+00000+0001T   00000788+0000001431          1400 ND8150               1AZ
111114002111114564-000012     111114006001023130075BUBBLE BOTTLE MAGIC    0000001000+00000700+00000+0001T   00000700+0000001431          1400 ND8131               1AZ
111115000111115               111115               170213MF     1400+00000+MF0000001314+0000001314+000000000+000000184+0000001490+0000000008+I20000000000+0000001490+Z
111115001111115903-000844     111115005010478432567SWT CANDY DL LUV HEARTS0000001000+00001314+00000+0001T   00001314+0000001433          1400 ND8150               1AZ
111116000111116               111116               170213MF     1400+00000+MF0000008838+0000008838+000000000+000001239+0000010070+0000000007+I20000000000+0000010070+Z
111116001111116366-000105     111116006001023866103DRESSUP WINGS AND SKIRT0000001000+00007016+00000+0001T   00007016+0000001437          1400 ND8131               1AZ
111116002111116369-000240     111116006001023857224BABY EDU K/RING 21x10cm0000001000+00001753+00000+0001T   00001753+0000001437          1400 ND8745               1AZ
111116003111116112-116053     111116006006438002399TCS CARRIER BAG 38L    0000001000+00000069+00000+0001T   00000069+0000001437          1400 ND8090               1AZ
111117000111117               111117               170213MF     1400+00000+MF0000010732+0000010732+000000000+000001504+0000012230+0000000006+I20000000000+0000012230+Z
111117001111117566-000359     111117006003000582709STICKER BOOK LOVE SPARK0000001000+00002192+00000+0001T   00002192+0000001446          1400 ND8130               1AZ
111117002111117565-000045     111117006003000295890NOVELTY HEADS 8PCE     0000001000+00002630+00000+0001T   00002630+0000001446          1400 ND8745               1AZ
111117003111117071-005214     111117006003000152544CELLOTAPE SUPER REFILL 0000001000+00001490+00000+0001T   00001490+0000001446          1400 ND8130               1AZ
111117004111117031-000001-A   111117006003000246908P/FRAME GLS LOVE 9X13cm0000001000+00004385+00000+0001T   00004385+0000001446          1400 ND8510               1AZ
111117005111117112-116038     111117006009681820246TCS CARRIER BAG MIDI   0000001000+00000035+00000+0001T   00000035+0000001446          1400 ND8090               1AZ
111118000111118               111118               170213MF     1400+00000+MF0000019287+0000019287+000000000+000002705+0000021990+0000000002+I20000000000+0000021990+Z
111118001111118037-000012     111118006003000556526ASHTRAY ROUND S/STEEL  0000006000+00002630+00000+0001T   00002630+0000001450          1400 ND8515               1AZ
111118002111118155-001304     111118006001023606488TAPE STEEL 5mx19mm     0000001000+00003507+00000+0001T   00003507+0000001450          1400 ND8840               1AZ
111119000111119               111119               170213MF     1400+00000+MF0000001753+0000001753+000000000+000000246+0000001990+0000000009+I20000000000+0000001990+Z
111119001111119077-000354     111119006003000139224GIFT-BAG 25X32CM H/MADE0000001000+00001753+00000+0001T   00001753+0000001455          1400 ND8112               1AZ
111120000111120               111120               170213MF     1400+00000+MF0000001139+0000001139+000000000+000000160+0000001290+0000000009+I20000000000+0000001290+Z
111120001111120903-000087     111120006001704000161SWT SPECKLED-EGGS 50G  0000001000+00001139+00000+0001T   00001139+0000001456          1400 ND8150               1AZ
111121000111121               111121               170213MF     1400+00000+MF0000009677+0000009677+000000000+000001355+0000011032+0000000000+I40000011032+0000000000+Z
111121001111121018-000136     111121006001023659026MUG OCC LOVE W/PLUSH   0000002000+00003507+00000+0001T   00003507+0000001459          1400 ND8515               1AZ
111121002111121077-000310     111121006001023608635GIFT-BAG 18X23CM GLOSS 0000002000+00001314+00000+0001T   00001314+0000001459          1400 ND8112               1AZ
111121003111121112-116038     111121006009681820246TCS CARRIER BAG MIDI   0000001000+00000035+00000+0001T   00000035+0000001459          1400 ND8090               1AZ
111122000111122               111122               170213MF     1400+00000+MF0000004385+0000004385+000000000+000000614+0000004990+0000000009+I20000000000+0000004990+Z
111122001111122368-000049     111122006003000536955PLUSH BEAR 15cm LOVE   0000001000+00004385+00000+0001T   00004385+0000001500          1400 ND8745               1AZ
111123000111123               111123               170213MF     1400+00000+MF0000010524+0000010524+000000000+000001474+0000011990+0000000008+I20000000000+0000011990+Z
111123001111123031-000864-C   111123006001023798411P/FRAME MAHOGANY 20X25 0000002000+00005262+00000+0001T   00005262+0000001505          1400 ND8510               1AZ
111124000111124               111124               170213MF     1400+00000+MF0000005820+0000005820+000000000+000000815+0000006635+0000000000+I40000006635+0000000000+Z
111124001111124368-000049     111124006003000536955PLUSH BEAR 15cm LOVE   0000001000+00004385+00000+0001T   00004385+0000001508          1400 ND8745               1AZ
111124002111124903-000070     111124006001704001106SWT TOFFEE CREAMY 35g  0000002000+00000700+00000+0001T   00000700+0000001508          1400 ND8150               1AZ
111124003111124112-116038     111124006009681820246TCS CARRIER BAG MIDI   0000001000+00000035+00000+0001T   00000035+0000001508          1400 ND8090               1AZ
111125000111125               111125               170213MF     1400+00000+MF0000013757+0000013757+000000000+000001932+0000015689+0000000000+I40000015689+0000000000+Z
111125001111125566-000667     111125006003000658039STICKER FOIL EMBOSSED  0000001000+00002192+00000+0001T   00002192+0000001512          1400 ND8130               1AZ
111125002111125566-000858     111125006001023760975STCKRS G/OUTLINE ASSTD 0000006000+00000788+00000+0001T   00000788+0000001512          1400 ND8130               1AZ
111125003111125566-000027     111125006003000215843STICKERS FOIL ASSTD    0000001000+00000876+00000+0001T   00000876+0000001512          1400 ND8130               1AZ
111125004111125204-000007     111125006003000427062M/HOLDER MAGN POLY LOVE0000001000+00002630+00000+0001T   00003507+0008131512          1400 ND8300               1AZ
111125005111125080-000124     111125006003000297733CARD & ENV VALENTINES  0000001000+00001578+00000+0001T   00001578+0000001512          1400 ND8112               1AZ
111125006111125566-000865     111125006001023788412STICKER ASSTD          0000001000+00001753+00000+0001T   00001753+0000001512          1400 ND8130               1AZ
111126000111126               111126               170213MF     1400+00000+MF0000001139+0000001139+000000000+000000160+0000001290+0000000009+I20000000000+0000001290+Z
111126001111126903-000087     111126006001704000161SWT SPECKLED-EGGS 50G  0000001000+00001139+00000+0001T   00001139+0000001513          1400 ND8150               1AZ
111127000111127               111127               170213MF     1400+00000+MF0000000876+0000000876+000000000+000000123+0000000990+0000000009+I20000000000+0000000990+Z
111127001111127903-000520     111127006001704009898SWT GUMMY MINI SOUR 60g0000001000+00000876+00000+0001T   00000876+0000001514          1400 ND8150               1AZ
111128000111128               111128               170213MF     1400+00000+MF0000005698+0000005698+000000000+000000799+0000006490+0000000007+I20000000000+0000006490+Z
111128001111128080-000124     111128006003000297733CARD & ENV VALENTINES  0000001000+00001578+00000+0001T   00001578+0000001519          1400 ND8112               1AZ
111128002111128077-000299     111128006003000395576G/BAG 32x25cm LRG LOVE 0000001000+00001490+00000+0001T   00001490+0000001519          1400 ND8112               1AZ
111128003111128077-000270     111128006003000395453GIFT-BAG PPR JMB 33X45 0000001000+00002630+00000+0001T   00002630+0000001519          1400 ND8112               1AZ
111129000111129               111129               170213MF     1400+00000+MF0000013464+0000013464+000000000+000001887+0000015351+0000000000+I40000015351+0000000000+Z
111129001111129077-000315     111129006003000181186GIFT-BAG 20x28cm MATT  0000001000+00001578+00000+0001T   00001578+0000001526          1400 ND8112               1AZ
111129002111129112-116069     111129006009681820277TCS CARRIER BAG JUMBO  0000001000+00000048+00000+0001T   00000048+0000001526          1400 ND8090               1AZ
111129003111129159-000647     111129006001023995551BRISTLE-BRUSH WDN HNDLE0000001000+00004823+00000+0001T   00004823+0000001526          1400 ND8200               1AZ
111129004111129159-000677     111129006001023729729BATH SPONGE RND 11CM   0000001000+00001753+00000+0001T   00001753+0000001526          1400 ND8200               1AZ
111129005111129018-000129-A   111129006003000441396MUG CERAMIC JUMBO      0000001000+00005262+00000+0001T   00005262+0000001526          1400 ND8515               1AZ
111130000111130               111130               170213MF     1400+00000+MF0000010554+0000010554+000000000+000001479+0000012033+0000000000+I40000012033+0000000000+Z
111130001111130112-116038     111130006009681820246TCS CARRIER BAG MIDI   0000001000+00000035+00000+0001T   00000035+0000001535          1400 ND8090               1AZ
111130002111130018-000136     111130006001023659026MUG OCC LOVE W/PLUSH   0000001000+00003507+00000+0001T   00003507+0000001535          1400 ND8515               1AZ
111130003111130301-085000     111130006003000674299 ORN OCC. LOVE HEARTS  0000001000+00002192+00000+0001T   00002192+0000001535          1400 ND8505               1AZ
111130004111130071-001124     111130006001023802873MARKERS WHITEBOARD 3PCE0000001000+00002630+00000+0001T   00002630+0000001535          1400 ND8130               1AZ
111130005111130564-000036     111130006001023708694BUBBLE W/PUZZLE        0000001000+00001490+00000+0001T   00001490+0000001535          1400 ND8131               1AZ
111130006111130018-000177     111130006001023797513MUG MINI LOVE ASSTD    0000001000+00000700+00000+0001T   00000700+0000001535          1400 ND8515               1AZ
111131000111131               111131               170213MF     1400+00000+MF0000004734+0000004734+000000000+000000663+0000005390+0000000007+I20000000000+0000005390+Z
111131001111131083-000305     111131006440024423302CIG-LIGHTER-GAS   300ml0000001000+00003507+00000+0001T   00003507+0000001541          1400 ND8315               1AZ
111131002111131903-000519     111131006001704012805SWT MS LIQ-O-GHETTI    0000001000+00001227+00000+0001T   00001227+0000001541          1400 ND8150               1AZ
111132000111132               111132               170213MF     1400+00000+MF0000007487+0000007487+000000000+000001050+0000008530+0000000007+I20000000000+0000008530+Z
111132001111132088-000051     111132006001023760289T/FRESHENER RIM-BLOCK  0000001000+00001753+00000+0001T   00001753+0000001546          1400 ND8212               1AZ
111132002111132072-020302     111132006001023858818PET-DOG STICK/RING 24cm0000001000+00002630+00000+0001T   00002630+0000001546          1400 ND8870               1AZ
111132003111132072-020298     111132006003000561629DOG-TOY TUG-ROPE ASSTD 0000001000+00003069+00000+0001T   00003069+0000001546          1400 ND8870               1AZ
111132004111132112-116038     111132006009681820246TCS CARRIER BAG MIDI   0000001000+00000035+00000+0001T   00000035+0000001546          1400 ND8090               1AZ
111133000111133               111133               170213MF     1400+00000+MF0000004028+0000004028+000000000+000000564+0000004590+0000000002+I20000000000+0000004590+Z
111133001111133077-000312     111133006001023608697GIFT-BAG 10X35CM GLOSS 0000001000+00001314+00000+0001T   00001314+0000001548          1400 ND8112               1AZ
111133002111133903-000070     111133006001704001106SWT TOFFEE CREAMY 35g  0000002000+00000700+00000+0001T   00000700+0000001548          1400 ND8150               1AZ
111133003111133903-000844     111133005010478432567SWT CANDY DL LUV HEARTS0000001000+00001314+00000+0001T   00001314+0000001548          1400 ND8150               1AZ
111134000111134               111134               170213MF     1400+00000+MF0000005295+0000005295+000000000+000000742+0000006030+0000000007+I20000000000+0000006030+Z
111134001111134464-008112     111134006003000681129GAME SNAKES & LADDERS  0000001000+00001753+00000+0001T   00001753+0000001553          1400 ND8785               1AZ
111134002111134018-005009     111134006001023725608MUG W/PLUSH-BEAR LOVE  0000001000+00003507+00000+0001T   00003507+0000001553          1400 ND8515               1AZ
111134003111134112-116038     111134006009681820246TCS CARRIER BAG MIDI   0000001000+00000035+00000+0001T   00000035+0000001553          1400 ND8090               1AZ
111135000111135               111135               170213MF     1400+00000+MF0000005700+0000005700+000000000+000000798+0000006490+0000000008+I20000000000+0000006490+Z
111135001111135046-002023-C   111135006001023698254BATTERIES ALKALN CARD-50000001000+00005700+00000+0001T   00005700+0000001603          1400 ND8312               1AZ
111136000111136               111136               170213MF     1400+00000+MF0000011003+0000011003+000000000+000001545+0000012540+0000000008+I20000000000+0000012540+Z
111136001111136112-116069     111136006009681820277TCS CARRIER BAG JUMBO  0000001000+00000048+00000+0001T   00000048+0000001607          1400 ND8090               1AZ
111136002111136079-104304     111136006003000186372SKETCH PAD A4   80 PAGE0000001000+00002192+00000+0001T   00002192+0000001607          1400 ND8130               1AZ
111136003111136007-000196     111136006002324002375FILE LEVER ARCH A4     0000001000+00002630+00000+0001T   00002630+0000001607          1400 ND8130               1AZ
111136004111136071-000006     111136006001023732613PENCIL REFILLABLE 6PK  0000001000+00001753+00000+0001T   00001753+0000001607          1400 ND8130               1AZ
111136005111136071-081112     111136006936198404945CORRECTION TAPE 10mx5mm0000001000+00001753+00000+0001T   00001753+0000001607          1400 ND8130               1AZ
111136006111136080-000133-A   111136006003000647019MINI VALENTINES CARD   0000002000+00000437+00000+0001T   00000437+0000001607          1400 ND8112               1AZ
111136007111136077-000289     111136006001023901996GIFT BOX 20x25x11cm    0000001000+00001753+00000+0001T   00001753+0000001607          1400 ND8112               1AZ
111137000111137               111137               170213MF     1400+00000+MF0000038665+0000038665+000000000+000005419+0000044080+0000000004+I20000000000+0000044080+Z
111137001111137112-116069     111137006009681820277TCS CARRIER BAG JUMBO  0000001000+00000048+00000+0001T   00000048+0000001619          1400 ND8090               1AZ
111137002111137486-002315     111137006001023740526WALL-CLOCK ROUND 20CM  0000004000+00007016+00000+0001T   00007016+0000001619          1400 ND8510               1AZ
111137003111137112-116038     111137006009681820246TCS CARRIER BAG MIDI   0000001000+00000035+00000+0001T   00000035+0000001619          1400 ND8090               1AZ
111137004111137466-000514     111137006001023196620BALLS TENNIS COLR BAG-30000003000+00002630+00000+0001T   00002630+0000001619          1400 ND8785               1AZ
111137005111137046-000012     111137006904708013062BATTERIES AA  CARD-OF-40000002000+00001314+00000+0001T   00001314+0000001619          1400 ND8312               1AZ
111138000111138               111138               170213MF     1400+00000+MF0000005960+0000005960+000000000+000000835+0000006795+0000000000+I40000006795+0000000000+Z
111138001111138077-000309     111138006001023608604GIFT-BAG 25X32CM GLOSS 0000001000+00001753+00000+0001T   00001753+0000001625          1400 ND8112               1AZ
111138002111138464-000121     111138006003000640492PLAYING CARDS MINI     0000001000+00000700+00000+0001T   00000700+0000001625          1400 ND8785               1AZ
111138003111138031-000002-A   111138006003000247103P/FRAME LOVE 7.5X7.5CM 0000001000+00003507+00000+0001T   00003507+0000001625          1400 ND8510               1AZ
111139000111139               111139               170213MF     1400+00000+MF0000004385+0000004385+000000000+000000614+0000004990+0000000009+I20000000000+0000004990+Z
111139001111139031-080508     111139006001023802415P/FRAME PL 22X11CM LOVE0000001000+00004385+00000+0001T   00004385+0000001627          1400 ND8510               1AZ
111140000111140               111140               170213MF     1400+00000+MF0000008771+0000008771+000000000+000001228+0000009990+0000000009+I20000000000+0000009990+Z
111140001111140031-000871-C   111140006003000463169P/FRAME COLLAGE 3-HOLE 0000001000+00008771+00000+0001T   00008771+0000001628          1400 ND8510               1AZ
111141000111141               111141               170213MF     1400+00000+MF0000005963+0000005963+000000000+000000835+0000006790+0000000008+I20000000000+0000006790+Z
111141001111141077-000303     111141006001023593757GIFT-BAG PAPER MED     0000001000+00001578+00000+0001T   00001578+0000001636          1400 ND8112               1AZ
111141002111141031-000001-A   111141006003000246908P/FRAME GLS LOVE 9X13cm0000001000+00004385+00000+0001T   00004385+0000001636          1400 ND8510               1AZ
111142000111142               111142               170213MF     1400+00000+MF0000017539+0000017539+000000000+000002457+0000019990+0000000006+I20000000000+0000019990+Z
111142001111142018-050000     111142006003000412679MUG OCC LOVE TWIN BEAR 0000001000+00006139+00000+0001T   00006139+0000001637          1400 ND8515               1AZ
111142002111142030-000031-A   111142006003000457588PLAQUE W/WORDS ASSTD   0000001000+00004385+00000+0001T   00004823+0006471637          1400 ND8505               1AZ
111142003111142077-000270     111142006003000395453GIFT-BAG PPR JMB 33X45 0000001000+00002630+00000+0001T   00002630+0000001637          1400 ND8112               1AZ
111142004111142031-000001-A   111142006003000246908P/FRAME GLS LOVE 9X13cm0000001000+00004385+00000+0001T   00004385+0000001637          1400 ND8510               1AZ
111143000111143               111143               170213MF     1400+00000+MF0000003507+0000003507+000000000+000000491+0000003998+0000000000+I40000003998+0000000000+Z
111143001111143162-092945     111143006001492929453#TAG KIDS 6PK PURPLE   0000001000+00003507+00000+0001T   00003507+0000001641          1400 ND8160               1AZ
111144000111144               111144               170213MF     1400+00000+MF0000016572+0000016572+000000000+000002322+0000018894+0000000000+I40000018894+0000000000+Z
111144001111144077-000407     111144006003000145096G/BAG PP 19X26X8CM     0000001000+00001314+00000+0001T   00001314+0000001646          1400 ND8112               1AZ
111144002111144077-000010-C   111144006001023123879CREPE-PAPER RED        0000001000+00000788+00000+0001T   00000788+0000001646          1400 ND8112               1AZ
111144003111144001-091415     111144006003000329113W/GLS OCC. LOVE 2PC 2800000001000+00008771+00000+0001T   00009648+0006471646          1400 ND8515               1AZ
111144004111144089-060027     111144006003000245871KEY-CHAIN HEART 6X6cm  0000001000+00003069+00000+0001T   00003069+0000001646          1400 ND8205               1AZ
111144005111144079-013032-D   111144006003000389643RIBBONS                0000001000+00002630+00000+0001T   00002630+0000001646          1400 ND8130               1AZ
111145000111145               111145               170213MF     1400+00000+MF0000003945+0000003945+000000000+000000553+0000004490+0000000008+I20000000000+0000004490+Z
111145001111145024-091102     111145006003453000010BAKING-CUP PAPER 50PC  0000001000+00002192+00000+0001T   00002192+0000001646          1400 ND8300               1AZ
111145002111145072-000327     111145006001023858504CAT-COLLAR+BELL        0000001000+00001753+00000+0001T   00001753+0000001646          1400 ND8870               1AZ
111146000111146               111146               170213MF     1400+00000+MF0000006391+0000006391+000000000+000000897+0000007288+0000000000+I40000007288+0000000000+Z
111146001111146200-000090     111146006001023802200PICNIC-PLATES SET-10   0000001000+00001753+00000+0001T   00001753+0000001652          1400 ND8214               1AZ
111146002111146079-009700-K   111146006003000546275PAPER SIRIO A4 VANILLA 0000001000+00000306+00000+0001T   00000306+0000001652          1400 ND8130               1AZ
111146003111146079-009700-A   111146006003000547746PAPER SIRIO A4 BLACK   0000001000+00000306+00000+0001T   00000306+0000001652          1400 ND8130               1AZ
111146004111146079-009700-H   111146006003000546039PAPER SIRIO A4 EARTH   0000001000+00000306+00000+0001T   00000306+0000001652          1400 ND8130               1AZ
111146005111146079-009700-G   111146006003000545957PAPER SIRIO A4 LIME COL0000001000+00000306+00000+0001T   00000306+0000001652          1400 ND8130               1AZ
111146006111146079-009700-E   111146006003000545797PAPER SIRIO A4 GREY    0000001000+00000306+00000+0001T   00000306+0000001652          1400 ND8130               1AZ
111146007111146079-009700-F   111146006003000545872PAPER SIRIO A4 TURQ COL0000001000+00000306+00000+0001T   00000306+0000001652          1400 ND8130               1AZ
111146008111146079-009700-I   111146006003000546114PAPER SIRIO A4 LILAC   0000001000+00000306+00000+0001T   00000306+0000001652          1400 ND8130               1AZ
111146009111146079-009700-D   111146006003000545711PAPER SIRIO A4 RED COL.0000001000+00000306+00000+0001T   00000306+0000001652          1400 ND8130               1AZ
111146010111146903-000120     111146006002099001665SWEET GS ZILLIONS 50g  0000001000+00000700+00000+0001T   00000700+0000001652          1400 ND8150               1AZ
111146011111146071-000873     111146006001023758743RUB-BANDS CLR BAG-100  0000001000+00001490+00000+0001T   00001490+0000001652          1400 ND8130               1AZ
111147000111147               111147               170213MF     1400+00000+MF0000019295+0000019295+000000000+000002702+0000021990+0000000007+I20000000000+0000021990+Z
111147001111147263-000501     111147006001023790804TRUCK+TRAILR CONVEYANCE0000001000+00017542+00000+0001T   00017542+0000001653          1400 ND8710               1AZ
111147002111147077-000308     111147006001023595812GIFT-BAG 33X45CM E/DAY 0000001000+00001753+00000+0001T   00001753+0000001653          1400 ND8112               1AZ
111148000111148               111148               170213MF     1400+00000+MF0000019029+0000019029+000000000+000002665+0000021694+0000000000+I40000021694+0000000000+Z
111148001111148263-000219     111148006001023547880TRACTOR FARM WHEEL 30cm0000001000+00010525+00000+0001T   00010525+0000001655          1400 ND8710               1AZ
111148002111148077-000299     111148006003000395576G/BAG 32x25cm LRG LOVE 0000001000+00001490+00000+0001T   00001490+0000001655          1400 ND8112               1AZ
111148003111148079-011526     111148006003000408375GLITTER & SAND ART     0000002000+00003507+00000+0001T   00003507+0000001655          1400 ND8130               1AZ
111149000111149               111149               170213MF     1400+00000+MF0000003943+0000003943+000000000+000000553+0000004490+0000000006+I20000000000+0000004490+Z
111149001111149089-000150     111149006003000674268K/CHAIN PLUSH EMOTICON 0000001000+00001139+00000+0001T   00001139+0000001656          1400 ND8205               1AZ
111149002111149304-001011     111149006001023806727FLWR ROSE RED W/BEAR   0000002000+00000613+00000+0001T   00000788+0006471656          1400 ND8510               1AZ
111149003111149077-000303     111149006001023593757GIFT-BAG PAPER MED     0000001000+00001578+00000+0001T   00001578+0000001656          1400 ND8112               1AZ
111150000111150               111150               170213MF     1400+00000+MF0000020374+0000020374+000000000+000002856+0000023230+0000000000+I20000000000+0000023230+Z
111150001111150112-116038     111150006009681820246TCS CARRIER BAG MIDI   0000001000+00000035+00000+0001T   00000035+0000001658          1400 ND8090               1AZ
111150002111150079-000020     111150006003000590889PENCIL DOUBLE ENDED    0000001000+00002630+00000+0001T   00002630+0000001658          1400 ND8130               1AZ
111150003111150018-000129     111150006001023403353MUG OCC. LOVE V-SHAPE  0000001000+00002630+00000+0001T   00002630+0000001658          1400 ND8515               1AZ
111150004111150036-000519     111150006003000560752HOOK HANGER CHROME PL  0000001000+00003507+00000+0001T   00003507+0000001658          1400 ND8212               1AZ
111150005111150089-060027     111150006003000245871KEY-CHAIN HEART 6X6cm  0000001000+00003069+00000+0001T   00003069+0000001658          1400 ND8205               1AZ
111150006111150072-020308     111150006001023700971DOG-TOY FOOTBALL 11,5cm0000001000+00001753+00000+0001T   00001753+0000001658          1400 ND8870               1AZ
111150007111150047-005127     111150006003000093861CABLETIES 100/150/200mm0000001000+00002192+00000+0001T   00002192+0000001658          1400 ND8880               1AZ
111150008111150251-000071     111150006003000451890PROTECTION-PADS BLK ADH0000001000+00001753+00000+0001T   00001753+0000001658          1400 ND8810               1AZ
111150009111150046-000012-A   111150006003000208296BATTERIES H/POWER SZ:AA0000001000+00002192+00000+0001T   00002192+0000001658          1400 ND8312               1AZ
111150010111150083-000055     111150006003000003853LIGHTER ELCTRNC REFILBL0000001000+00000613+00000+0001T   00000613+0000001658          1400 ND8315               1AZ
111151000111151               111151               170213MF     1400+00000+MF0000007541+0000007541+000000000+000001056+0000008597+0000000000+I40000008597+0000000000+Z
111151001111151077-000303     111151006001023593757GIFT-BAG PAPER MED     0000001000+00001578+00000+0001T   00001578+0000001659          1400 ND8112               1AZ
111151002111151018-030000     111151006003000421060MUG OCCASIONS LOVE 2PCE0000001000+00004385+00000+0001T   00004385+0000001659          1400 ND8515               1AZ
111151003111151077-000348     111151006001023483287GIFT-BOWS 4,5cm 8PCE   0000001000+00001578+00000+0001T   00001578+0000001659          1400 ND8112               1AZ
111152000111152               111152               170213MF     1400+00000+MF0000007015+0000007015+000000000+000000983+0000007998+0000000000+I40000007998+0000000000+Z
111152001111152368-000049     111152006003000536955PLUSH BEAR 15cm LOVE   0000001000+00004385+00000+0001T   00004385+0000001701          1400 ND8745               1AZ
111152002111152077-000270     111152006003000395453GIFT-BAG PPR JMB 33X45 0000001000+00002630+00000+0001T   00002630+0000001701          1400 ND8112               1AZ
111153000111153               111153               170213MF     1400+00000+MF0000004115+0000004115+000000000+000000579+0000004690+0000000004+I20000000000+0000004690+Z
111153001111153079-000807     111153006003000670277ART+CRAFT WOODEN STICKS0000001000+00001490+00000+0001T   00001490+0000001701          1400 ND8130               1AZ
111153002111153007-000402     111153006009635830864EXERCISE-BOOK A4 72PGE 0000005000+00000525+00000+0001T   00000525+0000001701          1400 ND8130               1AZ
111154000111154               111154               170213MF     1400+00000+MF0000011692+0000011692+000000000+000001639+0000013331+0000000000+I40000013331+0000000000+Z
111154001111154112-116038     111154006009681820246TCS CARRIER BAG MIDI   0000001000+00000035+00000+0001T   00000035+0000001703          1400 ND8090               1AZ
111154002111154018-000136     111154006001023659026MUG OCC LOVE W/PLUSH   0000001000+00003507+00000+0001T   00003507+0000001703          1400 ND8515               1AZ
111154003111154080-000124     111154006003000297733CARD & ENV VALENTINES  0000001000+00001578+00000+0001T   00001578+0000001703          1400 ND8112               1AZ
111154004111154077-000303     111154006001023593757GIFT-BAG PAPER MED     0000001000+00001578+00000+0001T   00001578+0000001703          1400 ND8112               1AZ
111154005111154903-000200     111154006009826020234SWT CHOC RP CHOCO 23G  0000001000+00000788+00000+0001T   00000788+0000001703          1400 ND8150               1AZ
111154006111154903-004960     111154008410525221842SWT GUMMY STR/BERRY 50G0000001000+00000964+00000+0001T   00000964+0000001703          1400 ND8150               1AZ
111154007111154903-000843     111154008693029031067SWT GUMMY JELAXY 80G   0000001000+00000964+00000+0001T   00000964+0000001703          1400 ND8150               1AZ
111154008111154903-000499     111154006001704012492SWT CHOC MALLOWS 50g   0000001000+00001227+00000+0001T   00001227+0000001703          1400 ND8150               1AZ
111154009111154903-002851     111154000000087108538MENTOS ROLL STRAWBERRY 0000001000+00001051+00000+0001T   00001051+0000001703          1400 ND8150               1AZ
111155000111155               111155               170213MF     1400+00000+MF0000000525+0000000525+000000000+000000074+0000000590+0000000009+I20000000000+0000000590+Z
111155001111155002-021040     111155006001023812216PARTY-PICKS 100PCE     0000001000+00000525+00000+0001T   00000525+0000001705          1400 ND8300               1AZ
111156000111156               111156               170213MF     1400+00000+MF0000001050+0000001050+000000000+000000148+0000001190+0000000008+I20000000000+0000001190+Z
111156001111156077-000321     111156006001023677501GIFT-BAG 11X14CM E/D FL0000001000+00000613+00000+0001T   00000613+0000001711          1400 ND8112               1AZ
111156002111156080-000133     111156006003000535613CARD&ENV MINI ASTD DSGN0000001000+00000437+00000+0001T   00000437+0000001711          1400 ND8112               1AZ
111157000111157               111157               170213MF     1400+00000+MF0000005085+0000005085+000000000+000000712+0000005797+0000000000+I40000005797+0000000000+Z
111157001111157018-000136     111157006001023659026MUG OCC LOVE W/PLUSH   0000001000+00003507+00000+0001T   00003507+0000001718          1400 ND8515               1AZ
111157002111157077-000303     111157006001023593757GIFT-BAG PAPER MED     0000001000+00001578+00000+0001T   00001578+0000001718          1400 ND8112               1AZ
111158000111158               111158               170213MF     1400+00000+MF0000008989+0000008989+000000000+000001261+0000010250+0000000000+I40000010250+0000000000+Z
111158001111158077-000116     111158006003000240777GIFT-WRAP 700mmx2m COL 0000001000+00001753+00000+0001T   00001753+0000001728          1400 ND8112               1AZ
111158002111158200-003026     111158006003000276448REFUSE BAGS 10PCE GREEN0000001000+00001753+00000+0001T   00001753+0000001728          1400 ND8214               1AZ
111158003111158566-000352     111158006001023809261STICKERS LASER ASSTD   0000001000+00002192+00000+0001T   00002192+0000001728          1400 ND8130               1AZ
111158004111158071-005214     111158006003000152544CELLOTAPE SUPER REFILL 0000001000+00001490+00000+0001T   00001490+0000001728          1400 ND8130               1AZ
111158005111158466-000103     111158006001023642134BALL 20cm ASSTD        0000001000+00001753+00000+0001T   00001753+0000001728          1400 ND8785               1AZ
111158006111158112-116069     111158006009681820277TCS CARRIER BAG JUMBO  0000001000+00000048+00000+0001T   00000048+0000001728          1400 ND8090               1AZ
111159000111159               111159               170213MF     1400+00000+MF0000003506+0000003506+000000000+000000492+0000003990+0000000008+I20000000000+0000003990+Z
111159001111159077-000115-B   111159006003000181025GIFT-WRAP PPR 700MMX2M 0000001000+00002630+00000+0001T   00002630+0000001734          1400 ND8112               1AZ
111159002111159077-000151     111159006008766114676GIFT-WRAP C/PHANE ASSTD0000001000+00000876+00000+0001T   00000876+0000001734          1400 ND8112               1AZ
M17021391                              CASH        MFSLAVE 1                       Z-REPORT No.   455TOTAL (Sales - Refunds)           7578.00       CASH TO BE BANKED                 3756.00       DEBIT CARDS                          0.00       CREDIT CARDS                      3822.00       Z-READING                         7578.00       AIRTIME DEBIT CARD SALES             0.00       AIRTIME CARD SALES                   0.00       OVERS/UNDERS                         0.00       AIRTIME CASH SALES                   0.00       GIFT CARDS                           0.00       GIFT CARD CASH SALES                 0.00       T O T A L  CASH PAYOUTS              0.00                                                                                                                                                                                                                                                                                                                                                      Z
M17021392                              CASH        MFABSENT                                                                                                                                                                                          ANNUAL LEAVE      DEBORAH JANSEN                                                                                                                                                                DAY OFF                                                                                                                                                                                         COMMENTS                                                          Z REP 7578.00                                                                                                                                                                                                                                                                                                                Z
Y17021300                                          MF00000000665837+000081
ZMF17021320043 SLAVE 1      SALES DATA                     NEXT INVOICE NO.  111160 0455
X MF Slave 1 First invoice 111078 170213 Last invoice 111159 170213 Next invoice 111160 Total number of records 000000342 clbackup completed 20:04:54
