121353000121353               121353               170213MF     1400+00000+MF0000000700+0000000700+000000000+000000098+0000000790+0000000008+I20000000000+0000000790+Z
121353001121353007-000166     121353006009685857316SPIRAL NOTES A6 100PG  0000001000+00000700+00000+0001T   00000700+0000000902          1400 JY3130               2BZ
121354000121354               121354               170213MF     1400+00000+MF0000002103+0000002103+000000000+000000295+0000002390+0000000008+I20000000000+0000002390+Z
121354001121354077-000245     121354006001023759214GIFT-RIBBON METALLICx2 0000001000+00001227+00000+0001T   00001227+0000000928          1400 JY3112               2BZ
121354002121354077-000151     121354006008766114676GIFT-WRAP C/PHANE ASSTD0000001000+00000876+00000+0001T   00000876+0000000928          1400 JY3112               2BZ
121355000121355               121355               170213MF     1400+00000+MF0000002836+0000002836+000000000+000000400+0000003230+0000000006+I20000000000+0000003230+Z
121355001121355080-000133-A   121355006003000647019MINI VALENTINES CARD   0000001000+00000437+00000+0001T   00000437+0000000929          1400 JY3112               2BZ
121355002121355903-000200     121355006009826020234SWT CHOC RP CHOCO 23G  0000003000+00000788+00000+0001T   00000788+0000000929          1400 JY3150               2BZ
121355003121355112-116038     121355006009681820246TCS CARRIER BAG MIDI   0000001000+00000035+00000+0001T   00000035+0000000929          1400 JY3090               2BZ
121356000121356               121356               170213MF     1400+00000+MF0000018904+0000018904+000000000+000002648+0000021550+0000000002+I20000000000+0000021550+Z
121356001121356368-000111     121356006001023780812PLUSH BEAR/DOG 29CM    0000001000+00012279+00000+0001T   00012279+0000001001          1400 JY3745               2BZ
121356002121356369-001032     121356006001023796158BABY RATTLE SET 6PCE   0000001000+00004385+00000+0001T   00004385+0000001001          1400 JY3745               2BZ
121356003121356369-001010     121356006001023864222BATH VINYL DUCK 4PC    0000001000+00002192+00000+0001T   00002192+0000001001          1400 JY3745               2BZ
121356004121356112-116069     121356006009681820277TCS CARRIER BAG JUMBO  0000001000+00000048+00000+0001T   00000048+0000001001          1400 JY3090               2BZ
121357000121357               121357               170213MF     1400+00000+MF0000005297+0000005297+000000000+000000742+0000006030+0000000009+I20000000000+0000006030+Z
121357001121357082-000122-B   121357006003000403554R/GLASS STRENGTH:1.5   0000001000+00005262+00000+0001T   00005262+0000001005          1400 JY3160               2BZ
121357002121357112-116038     121357006009681820246TCS CARRIER BAG MIDI   0000001000+00000035+00000+0001T   00000035+0000001005          1400 JY3090               2BZ
121358000121358               121358               170213MF     1400+00000+MF0000011343+0000011343+000000000+000001590+0000012933+0000000000+I40000012933+0000000000+Z
121358001121358567-014133     121358006003000560103BOOK COLOURING 48 PAGE 0000001000+00001490+00000+0001T   00001490+0000001009          1400 JY3757               2BZ
121358002121358200-000208     121358006003000293728BAKING ALUM FOIL 5PCE  0000001000+00002630+00000+0001T   00002630+0000001009          1400 JY3214               2BZ
121358003121358174-008024     121358006009654960368TRAVEL BOTTLES 2-PACK  0000001000+00001928+00000+0001T   00001928+0000001009          1400 JY3205               2BZ
121358004121358079-000195     121358006003000161485P/CRAYONS RETRCTBLEx10 0000001000+00003507+00000+0001T   00003507+0000001009          1400 JY3130               2BZ
121358005121358251-000074     121358006003000452255PROTECTION-PADS BLK ADH0000001000+00001753+00000+0001T   00001753+0000001009          1400 JY3810               2BZ
121358006121358112-116038     121358006009681820246TCS CARRIER BAG MIDI   0000001000+00000035+00000+0001T   00000035+0000001009          1400 JY3090               2BZ
121359000121359               121359               170213MF     1400+00000+MF0000004384+0000004384+000000000+000000614+0000004990+0000000008+I20000000000+0000004990+Z
121359001121359251-000002     121359006003000093991TAPE D-SIDED 24x1000mm 0000002000+00002192+00000+0001T   00002192+0000001024          1400 JY3810               2BZ
121360000121360               121360               170213MF     1400+00000+MF0000002278+0000002278+000000000+000000320+0000002590+0000000008+I20000000000+0000002590+Z
121360001121360903-000200     121360006009826020234SWT CHOC RP CHOCO 23G  0000001000+00000788+00000+0001T   00000788+0000001044          1400 JY3150               2BZ
121360002121360071-000873     121360006001023758743RUB-BANDS CLR BAG-100  0000001000+00001490+00000+0001T   00001490+0000001044          1400 JY3130               2BZ
121361000121361               121361               170213MF     1400+00000+MF0000005698+0000005698+000000000+000000799+0000006490+0000000007+I20000000000+0000006490+Z
121361001121361566-000065     121361006003000217915STICKERS GLITTER ASSTD 0000001000+00001753+00000+0001T   00001753+0000001058          1400 JY3130               2BZ
121361002121361566-000009     121361006003000180943STICKER-BOOK HOLOGRAM  0000001000+00001753+00000+0001T   00001753+0000001058          1400 JY3130               2BZ
121361003121361566-000359     121361006003000582709STICKER BOOK LOVE SPARK0000001000+00002192+00000+0001T   00002192+0000001058          1400 JY3130               2BZ
121362000121362               121362               170213MF     1400+00000+MF0000015810+0000015810+000000000+000002218+0000018028+0000000000+I40000018028+0000000000+Z
121362001121362034-078810     121362006001023856838DIAPER DISPOSE-BAGSx1000000001000+00002630+00000+0001T   00002630+0000001103          1400 JY3215               2BZ
121362002121362082-098779     121362006001492987798SUNGLASS KIDS HEART    0000001000+00003507+00000+0001T   00003507+0000001103          1400 JY3160               2BZ
121362003121362072-020302     121362006001023858818PET-DOG STICK/RING 24cm0000001000+00002630+00000+0001T   00002630+0000001103          1400 JY3870               2BZ
121362004121362112-116038     121362006009681820246TCS CARRIER BAG MIDI   0000001000+00000035+00000+0001T   00000035+0000001103          1400 JY3090               2BZ
121362005121362903-000503     121362006001704006118SWT VAMPIRE FANGS 60G  0000004000+00000876+00000+0001T   00000876+0000001103          1400 JY3150               2BZ
121362006121362903-003080     121362005907029004673SWT SNACK STIX CHOC 50g0000001000+00000876+00000+0001T   00000876+0000001103          1400 JY3150               2BZ
121362007121362903-000494     121362006001704009911SWT GUMMY TEENY TEDDIES0000001000+00000876+00000+0001T   00000876+0000001103          1400 JY3150               2BZ
121362008121362903-000483     121362006001704001410SWT LIQUOR SML SORT 60G0000001000+00000876+00000+0001T   00000876+0000001103          1400 JY3150               2BZ
121362009121362903-003051     121362008024431008703SWT CHOCO PARTY 25G    0000001000+00000876+00000+0001T   00000876+0000001103          1400 JY3150               2BZ
121363000121363               121363               170213MF     1400+00000+MF0000005262+0000005262+000000000+000000737+0000005990+0000000009+I20000000000+0000005990+Z
121363001121363565-004004     121363006001023744357NOVELTY INSCT COLLECTOR0000001000+00005262+00000+0001T   00005262+0000001105          1400 JY3745               2BZ
121364000121364               121364               170213MF     1400+00000+MF0000004385+0000004385+000000000+000000614+0000004990+0000000009+I20000000000+0000004990+Z
121364001121364031-000868-D   121364006003000580330P/FRAME PL BLCK CERT.  0000001000+00004385+00000+0001T   00004385+0000001110          1400 JY3510               2BZ
121365000121365               121365               170213MF     1400+00000+MF0000001753+0000001753+000000000+000000246+0000001990+0000000009+I20000000000+0000001990+Z
121365001121365306-000989     121365006003000559954FIRSTAID PLASTER 30PC  0000001000+00001753+00000+0001T   00001753+0000001115          1400 JY3200               2BZ
121366000121366               121366               170213MF     1400+00000+MF0000009150+0000009150+000000000+000001284+0000010430+0000000004+I20000000000+0000010430+Z
121366001121366040-000923     121366006001023587831CANDLE-HOLDER GLS 13.5 0000002000+00001753+00000+0001T   00001753+0000001135          1400 JY3510               2BZ
121366002121366089-000018     121366006003000176724KEY CHAIN INSPIRATION  0000001000+00003507+00000+0001T   00003507+0000001135          1400 JY3205               2BZ
121366003121366039-000026     121366006001023551610C/TAPERED 25CM M/RED   0000002000+00001051+00000+0001T   00001051+0000001135          1400 JY3510               2BZ
121366004121366112-116038     121366006009681820246TCS CARRIER BAG MIDI   0000001000+00000035+00000+0001T   00000035+0000001135          1400 JY3090               2BZ
121367000121367               121367               170213MF     1400+00000+MF0000012923+0000012923+000000000+000001811+0000014730+0000000004+I20000000000+0000014730+Z
121367001121367368-000101     121367006003000449859PLUSH CAT 17cm KITTY   0000001000+00005262+00000+0001T   00005262+0000001146          1400 JY3745               2BZ
121367002121367018-000177     121367006001023797513MUG MINI LOVE ASSTD    0000001000+00000700+00000+0001T   00000700+0000001146          1400 JY3515               2BZ
121367003121367003-000250     121367006003000035045ORN DECOR NOVELTY GRASS0000001000+00001753+00000+0001T   00001753+0000001146          1400 JY3505               2BZ
121367004121367903-000200     121367006009826020234SWT CHOC RP CHOCO 23G  0000001000+00000788+00000+0001T   00000788+0000001146          1400 JY3150               2BZ
121367005121367112-116038     121367006009681820246TCS CARRIER BAG MIDI   0000001000+00000035+00000+0001T   00000035+0000001146          1400 JY3090               2BZ
121367006121367030-000031-A   121367006003000457588PLAQUE W/WORDS ASSTD   0000001000+00004385+00000+0001T   00004823+0006471146          1400 JY3505               2BZ
121368000121368               121368               170213MF     1400+00000+MF0000004994+0000004994+000000000+000000701+0000005690+0000000005+I20000000000+0000005690+Z
121368001121368077-000150-D   121368006003000054343GIFT-WRAP CELLPHANE CLR0000001000+00000876+00000+0001T   00000876+0000001146          1400 JY3112               2BZ
121368002121368018-000177     121368006001023797513MUG MINI LOVE ASSTD    0000001000+00000700+00000+0001T   00000700+0000001146          1400 JY3515               2BZ
121368003121368903-000200     121368006009826020234SWT CHOC RP CHOCO 23G  0000001000+00000788+00000+0001T   00000788+0000001146          1400 JY3150               2BZ
121368004121368368-000100     121368006001023474742PLUSH MD BEAR 12cm     0000001000+00002630+00000+0001T   00002630+0000001146          1400 JY3745               2BZ
121369000121369               121369               170213MF     1400+00000+MF0000016159+0000016159+000000000+000002268+0000018420+0000000007+I20000000000+0000018420+Z
121369001121369083-000049     121369004891035200024CIG-LIGHTER DISPOSABLE 0000003000+00000437+00000+0001T   00000437+0000001148          1400 JY3315               2BZ
121369002121369112-116038     121369006009681820246TCS CARRIER BAG MIDI   0000001000+00000035+00000+0001T   00000035+0000001148          1400 JY3090               2BZ
121369003121369301-085001     121369006003000297610ORN WATERBALL LOVE ASST0000001000+00004823+00000+0001T   00004823+0000001148          1400 JY3505               2BZ
121369004121369030-000031-A   121369006003000457588PLAQUE W/WORDS ASSTD   0000001000+00004385+00000+0001T   00004823+0006471148          1400 JY3505               2BZ
121369005121369018-000177     121369006001023797513MUG MINI LOVE ASSTD    0000002000+00000700+00000+0001T   00000700+0000001148          1400 JY3515               2BZ
121369006121369077-000150-D   121369006003000054343GIFT-WRAP CELLPHANE CLR0000001000+00000876+00000+0001T   00000876+0000001148          1400 JY3112               2BZ
121369007121369903-000200     121369006009826020234SWT CHOC RP CHOCO 23G  0000002000+00000788+00000+0001T   00000788+0000001148          1400 JY3150               2BZ
121369008121369003-000250     121369006003000035045ORN DECOR NOVELTY GRASS0000001000+00001753+00000+0001T   00001753+0000001148          1400 JY3505               2BZ
121370000121370               121370               170213MF     1400+00000+MF0000007894-0000007894-000000000+000001106-0000009000-0000000000+I20000000000+0000009000-Z
121370001121370001-999902     121370000000000999902MAINTENANCE+REPAIR-EQP 0000001000-00007894+00000+0001T   00000000+0000001150          1400 JY39021IC            2 Z
121371000121371               121371               170213MF     1400+00000+MF0000008187+0000008187+000000000+000001148+0000009335+0000000000+I40000009335+0000000000+Z
121371001121371112-116038     121371006009681820246TCS CARRIER BAG MIDI   0000001000+00000035+00000+0001T   00000035+0000001158          1400 JY3090               2BZ
121371002121371903-000518     121371006001704012782SWT STRAWS S/BERRY 100g0000001000+00001227+00000+0001T   00001227+0000001158          1400 JY3150               2BZ
121371003121371301-085000     121371006003000674299 ORN OCC. LOVE HEARTS  0000001000+00002192+00000+0001T   00002192+0000001158          1400 JY3505               2BZ
121371004121371566-000068     121371006003000418046POP UP LOVE 2 ASSTD    0000001000+00002192+00000+0001T   00002192+0000001158          1400 JY3130               2BZ
121371005121371039-000114     121371006001023524058CANDLE T/LITE RED 3.5CM0000001000+00001753+00000+0001T   00001753+0000001158          1400 JY3510               2BZ
121371006121371071-000001-A   121371006003000129607PENCIL LEAD 0.5mm  2PK 0000001000+00000788+00000+0001T   00000788+0000001158          1400 JY3130               2BZ
121372000121372               121372               170213MF     1400+00000+MF0000012042+0000012042+000000000+000001691+0000013733+0000000000+I40000013733+0000000000+Z
121372001121372112-116038     121372006009681820246TCS CARRIER BAG MIDI   0000001000+00000035+00000+0001T   00000035+0000001312          1400 JY3090               2BZ
121372002121372033-001305     121372006003000667314HAIR PINS 4PC SNAP CLIP0000003000+00000788+00000+0001T   00000788+0000001312          1400 JY3200               2BZ
121372003121372306-001001     121372006003000519804FIRSTAID PLASTER FABRIC0000001000+00002630+00000+0001T   00002630+0000001312          1400 JY3200               2BZ
121372004121372251-000003     121372006003000266159TAPE D/S 18x300mm V/PCK0000001000+00002630+00000+0001T   00002630+0000001312          1400 JY3810               2BZ
121372005121372033-001500     121372006003000575763BRA CLIPS 10-PACK      0000001000+00002630+00000+0001T   00002630+0000001312          1400 JY3200               2BZ
121372006121372903-000211     121372006002099001238SWT GS MALLOW ICE CREAM0000001000+00001753+00000+0001T   00001753+0000001312          1400 JY3150               2BZ
121373000121373               121373               170213MF     1400+00000+MF0000005262+0000005262+000000000+000000737+0000005990+0000000009+I20000000000+0000005990+Z
121373001121373107-004510     121373006002580008968STEP-STOOL PL          0000001000+00005262+00000+0001T   00005262+0000001336          1400 JY3210               2BZ
121374000121374               121374               170213MF     1400+00000+MF0000003191+0000003191+000000000+000000447+0000003630+0000000008+I20000000000+0000003630+Z
121374001121374077-000303     121374006001023593757GIFT-BAG PAPER MED     0000002000+00001578+00000+0001T   00001578+0000001344          1400 JY3112               2BZ
121374002121374112-116038     121374006009681820246TCS CARRIER BAG MIDI   0000001000+00000035+00000+0001T   00000035+0000001344          1400 JY3090               2BZ
121375000121375               121375               170213MF     1400+00000+MF0000000918+0000000918+000000000+000000129+0000001040+0000000007+I20000000000+0000001040+Z
121375001121375079-009700-I   121375006003000546114PAPER SIRIO A4 LILAC   0000003000+00000306+00000+0001T   00000306+0000001348          1400 JY3130               2BZ
121376000121376               121376               170213MF     1400+00000+MF0000007629+0000007629+000000000+000001069+0000008690+0000000008+I20000000000+0000008690+Z
121376001121376077-000299     121376006003000395576G/BAG 32x25cm LRG LOVE 0000001000+00001490+00000+0001T   00001490+0000001421          1400 JY3112               2BZ
121376002121376018-050000     121376006003000412679MUG OCC LOVE TWIN BEAR 0000001000+00006139+00000+0001T   00006139+0000001421          1400 JY3515               2BZ
121377000121377               121377               170213MF     1400+00000+MF0000003507+0000003507+000000000+000000491+0000003990+0000000008+I20000000000+0000003990+Z
121377001121377018-000136     121377006001023659026MUG OCC LOVE W/PLUSH   0000001000+00003507+00000+0001T   00003507+0000001423          1400 JY3515               2BZ
121378000121378               121378               170213MF     1400+00000+MF0000001753+0000001753+000000000+000000246+0000001990+0000000009+I20000000000+0000001990+Z
121378001121378903-000211     121378006002099001238SWT GS MALLOW ICE CREAM0000001000+00001753+00000+0001T   00001753+0000001424          1400 JY3150               2BZ
121379000121379               121379               170213MF     1400+00000+MF0000002227+0000002227+000000000+000000312+0000002530+0000000009+I20000000000+0000002530+Z
121379001121379018-000170     121379006001023775528MUG OCC. LOVE 2PC MINI 0000001000+00002192+00000+0001T   00002192+0000001432          1400 JY3515               2BZ
121379002121379112-116038     121379006009681820246TCS CARRIER BAG MIDI   0000001000+00000035+00000+0001T   00000035+0000001432          1400 JY3090               2BZ
121380000121380               121380               170213MF     1400+00000+MF0000005963+0000005963+000000000+000000835+0000006790+0000000008+I20000000000+0000006790+Z
121380001121380031-000001-A   121380006003000246908P/FRAME GLS LOVE 9X13cm0000001000+00004385+00000+0001T   00004385+0000001433          1400 JY3510               2BZ
121380002121380077-000303     121380006001023593757GIFT-BAG PAPER MED     0000001000+00001578+00000+0001T   00001578+0000001433          1400 JY3112               2BZ
121381000121381               121381               170213MF     1400+00000+MF0000007489+0000007489+000000000+000001049+0000008530+0000000008+I20000000000+0000008530+Z
121381001121381566-000359     121381006003000582709STICKER BOOK LOVE SPARK0000001000+00002192+00000+0001T   00002192+0000001437          1400 JY3130               2BZ
121381002121381007-000322     121381006009685858634PAPER A4 80GSM 100'S   0000001000+00005262+00000+0001T   00005262+0000001437          1400 JY3130               2BZ
121381003121381112-116038     121381006009681820246TCS CARRIER BAG MIDI   0000001000+00000035+00000+0001T   00000035+0000001437          1400 JY3090               2BZ
121382000121382               121382               170213MF     1400+00000+MF0000004383+0000004383+000000000+000000615+0000004990+0000000008+I20000000000+0000004990+Z
121382001121382071-001102     121382006003000274598MARKER PERM MED 2PCE   0000001000+00001753+00000+0001T   00001753+0000001438          1400 JY3130               2BZ
121382002121382071-001124     121382006001023802873MARKERS WHITEBOARD 3PCE0000001000+00002630+00000+0001T   00002630+0000001438          1400 JY3130               2BZ
121383000121383               121383               170213MF     1400+00000+MF0000005963+0000005963+000000000+000000835+0000006790+0000000008+I20000000000+0000006790+Z
121383001121383084-000309     121383006001023905277MANICURE-SET 8PCE G/BOX0000001000+00004385+00000+0001T   00004385+0000001459          1400 JY3200               2BZ
121383002121383018-000127     121383006001023380289MUG OCC STRAIGHT LOVE  0000001000+00001578+00000+0001T   00001753+0006471459          1400 JY3515               2BZ
121384000121384               121384               170213MF     1400+00000+MF0000005873+0000005873+000000000+000000823+0000006690+0000000006+I20000000000+0000006690+Z
121384001121384077-000289     121384006001023901996GIFT BOX 20x25x11cm    0000001000+00001753+00000+0001T   00001753+0000001548          1400 JY3112               2BZ
121384002121384018-000136     121384006001023659026MUG OCC LOVE W/PLUSH   0000001000+00003507+00000+0001T   00003507+0000001548          1400 JY3515               2BZ
121384003121384304-001011     121384006001023806727FLWR ROSE RED W/BEAR   0000001000+00000613+00000+0001T   00000788+0006471548          1400 JY3510               2BZ
121385000121385               121385               170213MF     1400+00000+MF0000010046+0000010046+000000000+000001407+0000011450+0000000003+I20000000000+0000011450+Z
121385001121385486-002307     121385006003000443086W/CLOCK QTZ PL ANTIQUE 0000001000+00008771+00000+0001T   00008771+0000001604          1400 JY3510               2BZ
121385002121385007-000206     121385006009635830215X/PAD 80-SHEETS PUNCHED0000001000+00001227+00000+0001T   00001227+0000001604          1400 JY3130               2BZ
121385003121385112-116069     121385006009681820277TCS CARRIER BAG JUMBO  0000001000+00000048+00000+0001T   00000048+0000001604          1400 JY3090               2BZ
121386000121386               121386               170213MF     1400+00000+MF0000021333+0000021333+000000000+000002992+0000024320+0000000005+I20000000000+0000024320+Z
121386001121386566-000362     121386006003000583065STICKER LETTER & NUMBER0000001000-00001753+00000+0001T   00001753+0000001611          1400 JY31301IC            2 Z
121386002121386566-000460     121386000721129024011STICKERS RUB-ON TRANSFR0000002000+00001314+00000+0001T   00001753+0008151611          1400 JY3130               2BZ
121386003121386566-100009     121386006003000102914WED STIK EMBOSSED FOIL 0000001000+00002630+00000+0001T   00002630+0000001611          1400 JY3130               2BZ
121386004121386566-000362     121386006003000583065STICKER LETTER & NUMBER0000001000+00001753+00000+0001T   00001753+0000001611          1400 JY3130               2BZ
121386005121386566-000065     121386006003000217915STICKERS GLITTER ASSTD 0000001000+00001753+00000+0001T   00001753+0000001611          1400 JY3130               2BZ
121386006121386566-000991     121386000721129013121STICKERS GLOW-IN-DARK  0000001000+00002192+00000+0001T   00002192+0000001611          1400 JY3130               2BZ
121386007121386566-000065     121386006003000217915STICKERS GLITTER ASSTD 0000002000+00001753+00000+0001T   00001753+0000001611          1400 JY3130               2BZ
121386008121386566-002000     121386000721129013206STICKERS CRYSTAL ASSTD 0000001000+00000700+00000+0001T   00000700+0000001611          1400 JY3130               2BZ
121386009121386566-100009     121386006003000102914WED STIK EMBOSSED FOIL 0000001000+00002630+00000+0001T   00002630+0000001611          1400 JY31301IC            2BZ
121386010121386566-001501     121386006003000658398STICKER PAPER EMOTION  0000001000+00001753+00000+0001T   00001753+0000001611          1400 JY3130               2BZ
121386011121386112-116038     121386006009681820246TCS CARRIER BAG MIDI   0000001000+00000035+00000+0001T   00000035+0000001611          1400 JY3090               2BZ
121386012121386566-000362     121386006003000583065STICKER LETTER & NUMBER0000002000+00001753+00000+0001T   00001753+0000001611          1400 JY3130               2BZ
121387000121387               121387               170213MF     1400+00000+MF0000018434+0000018434+000000000+000002594+0000021028+0000000000+I40000021028+0000000000+Z
121387001121387112-116069     121387006009681820277TCS CARRIER BAG JUMBO  0000001000+00000048+00000+0001T   00000048+0000001620          1400 JY3090               2BZ
121387002121387304-001204     121387006001023737984FLOWER OCC. TEDDY/ROSES0000005000+00001402+00000+0001T   00001490+0006471620          1400 JY3510               2BZ
121387003121387003-000250     121387006003000035045ORN DECOR NOVELTY GRASS0000002000+00001753+00000+0001T   00001753+0000001620          1400 JY3505               2BZ
121387004121387018-000177     121387006001023797513MUG MINI LOVE ASSTD    0000005000+00000700+00000+0001T   00000700+0000001620          1400 JY3515               2BZ
121387005121387080-000133-A   121387006003000647019MINI VALENTINES CARD   0000005000+00000437+00000+0001T   00000437+0000001620          1400 JY3112               2BZ
121387006121387080-000133     121387006003000535613CARD&ENV MINI ASTD DSGN0000005000+00000437+00000+0001T   00000437+0000001620          1400 JY3112               2BZ
121388000121388               121388               170213MF     1400+00000+MF0000005435+0000005435+000000000+000000762+0000006190+0000000007+I20000000000+0000006190+Z
121388001121388006-000190     121388006003000685530BALLOONS LOVE 81x91cm  0000001000+00004385+00000+0001T   00004385+0000001625          1400 JY3131               2BZ
121388002121388080-000133     121388006003000535613CARD&ENV MINI ASTD DSGN0000001000+00000437+00000+0001T   00000437+0000001625          1400 JY3112               2BZ
121388003121388006-001000     121388006003000093779HELIUM BALLOON FILL    0000001000+00000613+00000+0001T   00000613+0000001625          1400 JY3131               2BZ
121389000121389               121389               170213MF     1400+00000+MF0000014730+0000014730+000000000+000002064+0000016790+0000000004+I20000000000+0000016790+Z
121389001121389046-000014     121389006001023725387BATTERIES SIZE:AAA 4PCE0000002000+00001139+00000+0001T   00001139+0000001626          1400 JY3312               2BZ
121389002121389018-000170     121389006001023775528MUG OCC. LOVE 2PC MINI 0000001000+00002192+00000+0001T   00002192+0000001626          1400 JY3515               2BZ
121389003121389301-085003     121389006003000420827ORN OCCASION LOVE KEY  0000001000+00005262+00000+0001T   00005262+0000001626          1400 JY3505               2BZ
121389004121389006-000190     121389006003000685530BALLOONS LOVE 81x91cm  0000001000+00004385+00000+0001T   00004385+0000001626          1400 JY3131               2BZ
121389005121389006-001000     121389006003000093779HELIUM BALLOON FILL    0000001000+00000613+00000+0001T   00000613+0000001626          1400 JY3131               2BZ
121390000121390               121390               170213MF     1400+00000+MF0000011135+0000011135+000000000+000001560+0000012690+0000000005+I20000000000+0000012690+Z
121390001121390077-000299     121390006003000395576G/BAG 32x25cm LRG LOVE 0000001000+00001490+00000+0001T   00001490+0000001728          1400 JY3112               2BZ
121390002121390030-000031-A   121390006003000457588PLAQUE W/WORDS ASSTD   0000001000+00004385+00000+0001T   00004823+0006471728          1400 JY3505               2BZ
121390003121390018-000136     121390006001023659026MUG OCC LOVE W/PLUSH   0000001000+00003507+00000+0001T   00003507+0000001728          1400 JY3515               2BZ
121390004121390200-003026     121390006003000276448REFUSE BAGS 10PCE GREEN0000001000+00001753+00000+0001T   00001753+0000001728          1400 JY3214               2BZ
121391000121391               121391               170213MF     1400+00000+MF0000003507+0000003507+000000000+000000491+0000003990+0000000008+I20000000000+0000003990+Z
121391001121391077-000934     121391006003000409921G/WRAP 700mmx5m BIRTHDA0000001000+00003507+00000+0001T   00003507+0000001729          1400 JY3112               2BZ
121392000121392               121392               170213MF     1400+00000+MF0000000876+0000000876+000000000+000000123+0000000999+0000000000+I40000000999+0000000000+Z
121392001121392903-003080     121392005907029004673SWT SNACK STIX CHOC 50g0000001000+00000876+00000+0001T   00000876+0000001732          1400 JY3150               2BZ
121393000121393               121393               170213MF     1400+00000+MF0000001490+0000001490+000000000+000000209+0000001690+0000000009+I20000000000+0000001690+Z
121393001121393077-000299     121393006003000395576G/BAG 32x25cm LRG LOVE 0000001000+00001490+00000+0001T   00001490+0000001734          1400 JY3112               2BZ
121394000121394               121394               170213MF     1400+00000+MF0000001753+0000001753+000000000+000000246+0000001990+0000000009+I20000000000+0000001990+Z
121394001121394007-000192     121394006009635830062BOOK H/COVER A4 192PAGE0000001000+00001753+00000+0001T   00001753+0000001737          1400 JY3130               2BZ
121395000121395               121395               170213MF     1400+00000+MF0000006174+0000006174+000000000+000000865+0000007030+0000000009+I20000000000+0000007030+Z
121395001121395018-005007     121395006003000515516MUG OCC. LOVE W/HEARTS 0000001000+00006139+00000+0001T   00006139+0000001740          1400 JY3515               2BZ
121395002121395112-116038     121395006009681820246TCS CARRIER BAG MIDI   0000001000+00000035+00000+0001T   00000035+0000001740          1400 JY3090               2BZ
121396000121396               121396               170213MF     1400+00000+MF0000001139+0000001139+000000000+000000160+0000001290+0000000009+I20000000000+0000001290+Z
121396001121396046-000014     121396006001023725387BATTERIES SIZE:AAA 4PCE0000001000+00001139+00000+0001T   00001139+0000001751          1400 JY3312               2BZ
121397000121397               121397               170213MF     1400+00000+MF0000004207+0000004207+000000000+000000590+0000004797+0000000000+I40000004797+0000000000+Z
121397001121397903-000123     121397006925925909280SWEET GS MINI MALLOWS  0000001000+00000876+00000+0001T   00000876+0000001754          1400 JY3150               2BZ
121397002121397077-000303     121397006001023593757GIFT-BAG PAPER MED     0000001000+00001578+00000+0001T   00001578+0000001754          1400 JY3112               2BZ
121397003121397047-000507     121397006001023684479PLUG-ADAPTOR EURO TWIN 0000001000+00001753+00000+0001T   00001753+0000001754          1400 JY3880               2BZ
121398000121398               121398               170213MF     1400+00000+MF0000001314+0000001314+000000000+000000184+0000001490+0000000008+I20000000000+0000001490+Z
121398001121398903-000844     121398005010478432567SWT CANDY DL LUV HEARTS0000001000+00001314+00000+0001T   00001314+0000001754          1400 JY3150               2BZ
121399000121399               121399               170213MF     1400+00000+MF0000001753-0000001753-000000000+000000246-0000002000-0000000001+I20000000000+0000002000-Z
121399001121399077-000116     121399006003000240777GIFT-WRAP 700mmx2m COL 0000001000-00001753+00000+0001T   00001753+0000001757          1400 JY31121IC            2 Z
121400000121400               121400               170213MF     1400+00000+MF0000020166+0000020166+000000000+000002826+0000022992+0000000000+I40000022992+0000000000+Z
121400001121400077-000270     121400006003000395453GIFT-BAG PPR JMB 33X45 0000001000+00002630+00000+0001T   00002630+0000001801          1400 JY3112               2BZ
121400002121400018-000130     121400006001023867537MUG OCC LOVE MINI+HEART0000001000+00003507+00000+0001T   00003507+0000001801          1400 JY3515               2BZ
121400003121400204-000008     121400006003000567652MEMO HLDR MOM POLY     0000001000+00004385+00000+0001T   00004385+0000001801          1400 JY3300               2BZ
121400004121400301-085006     121400006001023502940ORN LOVE MSG TUBE W/HRT0000001000+00001753+00000+0001T   00001753+0000001801          1400 JY3505               2BZ
121400005121400204-000007     121400006003000427062M/HOLDER MAGN POLY LOVE0000001000+00002630+00000+0001T   00003507+0008131801          1400 JY3300               2BZ
121400006121400903-003080     121400005907029004673SWT SNACK STIX CHOC 50g0000001000+00000876+00000+0001T   00000876+0000001801          1400 JY3150               2BZ
121400007121400368-000049     121400006003000536955PLUSH BEAR 15cm LOVE   0000001000+00004385+00000+0001T   00004385+0000001801          1400 JY3745               2BZ
121401000121401               121401               170213MF     1400+00000+MF0000000876+0000000876+000000000+000000123+0000000990+0000000009+I20000000000+0000000990+Z
121401001121401007-000235     121401006003000134434LABELS RECTANGULAR 60pc0000001000+00000876+00000+0001T   00000876+0000001802          1400 JY3130               2BZ
121402000121402               121402               170213MF     1400+00000+MF0000005033+0000005033+000000000+000000705+0000005730+0000000008+I20000000000+0000005730+Z
121402001121402030-000031-A   121402006003000457588PLAQUE W/WORDS ASSTD   0000001000+00004385+00000+0001T   00004823+0006471803          1400 JY3505               2BZ
121402002121402007-000555     121402006001023848239MEMO-PAD MINI LOVE     0000001000+00000613+00000+0001T   00000613+0000001803          1400 JY3130               2BZ
121402003121402112-116038     121402006009681820246TCS CARRIER BAG MIDI   0000001000+00000035+00000+0001T   00000035+0000001803          1400 JY3090               2BZ
121403000121403               121403               170213MF     1400+00000+MF0000011874+0000011874+000000000+000001664+0000013538+0000000000+I40000013538+0000000000+Z
121403001121403059-011605     121403006001023384072LANTERN 24cm ASSTD-CLRS0000001000+00003946+00000+0001T   00005262+0008191806          1400 JY3305               2BZ
121403002121403059-011604     121403006001023384065LANTERN 28cm ASSTD-CLRS0000001000+00007893+00000+0001T   00007893+0000001806          1400 JY3305               2BZ
121403003121403112-116038     121403006009681820246TCS CARRIER BAG MIDI   0000001000+00000035+00000+0001T   00000035+0000001806          1400 JY3090               2BZ
B12138600                                          170213MF566-000362     16101056SLAVE 2     JY31IC0000002000+0000001000+0000000000000+
B12138601                                          170213MF566-100009     16110663SLAVE 2     JY31IC0000002000+0000001000+0000000000000+
M17021391                              CASH        MFSLAVE 2                       Z-REPORT No.   589TOTAL (Sales - Refunds)           3829.73       CASH TO BE BANKED                 2565.90       DEBIT CARDS                          0.00       CREDIT CARDS                      1173.83       Z-READING                         3739.73       AIRTIME DEBIT CARD SALES             0.00       AIRTIME CARD SALES                   0.00       OVERS/UNDERS                         0.00       AIRTIME CASH SALES                   0.00       GIFT CARDS                           0.00       GIFT CARD CASH SALES                 0.00       MAINTENANCE+REPAIR-EQP              90.00       T O T A L  CASH PAYOUTS             90.00                                                                                                                                                                                                                                                                                                      Z
M17021392                              CASH        MFABSENT                                                                                                                                                                                          ANNUAL LEAVE                                                                                                                                                                                    DAY OFF                                                                                                                                                                                         COMMENTS          Z REP 3829.73                                                                                                                                                                                                                                                                                                                                                                Z
Y17021300                                          MF00000000339641+000049
ZMF17021320043 SLAVE 2      SALES DATA                     NEXT INVOICE NO.  121404 0589
X MF Slave 2 First invoice 121353 170213 Last invoice 121403 170213 Next invoice 121404 Total number of records 000000209 clbackup completed 20:04:56
