140502000140502               140502               170213MF     1400+00000+MF0000003507+0000003507+000000000+000000491+0000003998+           I90000000000+0000000000+Z
140502001140502566-000326     140502006003000639328ROOM DECOR 3D ASSTD    0000001000+00003507+00000+0001T065779400000                    1400 1IC1301ICV             Z
140503000140503               140503               170213MF     1400+00000+MF0000011402+0000011402+000000000+000001597+0000012999+           I90000000000+0000000000+Z
140503001140503104-000140     140503006002580008364WASTEPAPER BIN FLIP 24L0000001000+00011402+00000+0001T025821530000                    1400 1IC2101ICV             Z
M17021391                              CASH        MFSLAVE 4                       Z-REPORT No.   430TOTAL (Sales - Refunds)              0.00       CASH TO BE BANKED                    0.00       DEBIT CARDS                          0.00       CREDIT CARDS                         0.00       Z-READING                            0.00       AIRTIME DEBIT CARD SALES             0.00       AIRTIME CARD SALES                   0.00       OVERS/UNDERS                         0.00       AIRTIME CASH SALES                   0.00       GIFT CARDS                           0.00       GIFT CARD CASH SALES                 0.00       T O T A L  CASH PAYOUTS              0.00                                                                                                                                                                                                                                                                                                                                                      Z
M17021392                              CASH        MFABSENT                                                                                                                                                                                          ANNUAL LEAVE                                                                                                                                                                                    DAY OFF                                                                                                                                                                                         COMMENTS                                                                                                                                                                                                                                                                                                                                                                                       Z
Y17021300                                          MF00000000000000+000000
ZMF17021320053 SLAVE 4      SALES DATA                     NEXT INVOICE NO.  140504 0430
L54175400351256-001-001       MF1702130853141ICTHULI NKOSI                                                                                                                                                                                                                                                                                                                                                                                                                                                                                                                                                                                                                                                                                                                                                                                                                                                                                                                                                                                          Z
L54178900357660-001-003       MF1702130857061ICTHULI NKOSI                                                                                                                                                                                                                                                                                                                                                                                                                                                                                                                                                                                                                                                                                                                                                                                                                                                                                                                                                                                          Z
L54178900357660-002-003       MF1702130857191ICTHULI NKOSI                                                                                                                                                                                                                                                                                                                                                                                                                                                                                                                                                                                                                                                                                                                                                                                                                                                                                                                                                                                          Z
L54178900357660-003-003       MF1702130857301ICTHULI NKOSI                                                                                                                                                                                                                                                                                                                                                                                                                                                                                                                                                                                                                                                                                                                                                                                                                                                                                                                                                                                          Z
L55414400353100-001-001       MF1702130853531ICTHULI NKOSI                                                                                                                                                                                                                                                                                                                                                                                                                                                                                                                                                                                                                                                                                                                                                                                                                                                                                                                                                                                          Z
L56558200354834-001-002       MF1702130854371ICTHULI NKOSI                                                                                                                                                                                                                                                                                                                                                                                                                                                                                                                                                                                                                                                                                                                                                                                                                                                                                                                                                                                          Z
L56558200354834-002-002       MF1702130854241ICTHULI NKOSI                                                                                                                                                                                                                                                                                                                                                                                                                                                                                                                                                                                                                                                                                                                                                                                                                                                                                                                                                                                          Z
L56567700356339-001-001       MF1702130854151ICTHULI NKOSI                                                                                                                                                                                                                                                                                                                                                                                                                                                                                                                                                                                                                                                                                                                                                                                                                                                                                                                                                                                          Z
L57083600354336-001-002       MF1702130855581ICTHULI NKOSI                                                                                                                                                                                                                                                                                                                                                                                                                                                                                                                                                                                                                                                                                                                                                                                                                                                                                                                                                                                          Z
L57083600354336-002-002       MF1702130856181ICTHULI NKOSI                                                                                                                                                                                                                                                                                                                                                                                                                                                                                                                                                                                                                                                                                                                                                                                                                                                                                                                                                                                          Z
L57164300354545-001-001       MF1702130853371ICTHULI NKOSI                                                                                                                                                                                                                                                                                                                                                                                                                                                                                                                                                                                                                                                                                                                                                                                                                                                                                                                                                                                          Z
L57202200353747-001-002       MF1702130855101ICTHULI NKOSI                                                                                                                                                                                                                                                                                                                                                                                                                                                                                                                                                                                                                                                                                                                                                                                                                                                                                                                                                                                          Z
L57202200353747-002-002       MF1702130854571ICTHULI NKOSI                                                                                                                                                                                                                                                                                                                                                                                                                                                                                                                                                                                                                                                                                                                                                                                                                                                                                                                                                                                          Z
L57253800353679-001-001       MF1702130856271ICTHULI NKOSI                                                                                                                                                                                                                                                                                                                                                                                                                                                                                                                                                                                                                                                                                                                                                                                                                                                                                                                                                                                          Z
L57592600359246-001-003       MF1702130855471ICTHULI NKOSI                                                                                                                                                                                                                                                                                                                                                                                                                                                                                                                                                                                                                                                                                                                                                                                                                                                                                                                                                                                          Z
L57592600359246-002-003       MF1702130855311ICTHULI NKOSI                                                                                                                                                                                                                                                                                                                                                                                                                                                                                                                                                                                                                                                                                                                                                                                                                                                                                                                                                                                          Z
L57592600359246-003-003       MF1702130855191ICTHULI NKOSI                                                                                                                                                                                                                                                                                                                                                                                                                                                                                                                                                                                                                                                                                                                                                                                                                                                                                                                                                                                          Z
L57794000357219-001-001       MF1702130853561ICTHULI NKOSI                                                                                                                                                                                                                                                                                                                                                                                                                                                                                                                                                                                                                                                                                                                                                                                                                                                                                                                                                                                          Z
L58215300358398-001-002       MF1702130856551ICTHULI NKOSI                                                                                                                                                                                                                                                                                                                                                                                                                                                                                                                                                                                                                                                                                                                                                                                                                                                                                                                                                                                          Z
L58215300358398-002-002       MF1702130856411ICTHULI NKOSI                                                                                                                                                                                                                                                                                                                                                                                                                                                                                                                                                                                                                                                                                                                                                                                                                                                                                                                                                                                          Z
L58223300358522-001-002       MF1702130857481ICTHULI NKOSI                                                                                                                                                                                                                                                                                                                                                                                                                                                                                                                                                                                                                                                                                                                                                                                                                                                                                                                                                                                          Z
L58223300358522-002-002       MF1702130858091ICTHULI NKOSI                                                                                                                                                                                                                                                                                                                                                                                                                                                                                                                                                                                                                                                                                                                                                                                                                                                                                                                                                                                          Z
V54175400000522-002-002       MF1702130858091ICTHUL               0000000000000001702130000001ICSLAVE 4     170213145418351256N              01
V54178900000522-002-002       MF1702130858091ICTHUL               0000000000000001702130000001ICSLAVE 4     170213150049357660N              03
V55414400000522-002-002       MF1702130858091ICTHUL               0000000000000001702130000001ICSLAVE 4     170213145515353100N              01
V56558200000522-002-002       MF1702130858091ICTHUL               0000000000000001702130000001ICSLAVE 4     170213145339354834N              02
V56567700000522-002-002       MF1702130858091ICTHUL               0000000000000001702130000001ICSLAVE 4     170213145618356339N              01
V57083600000522-002-002       MF1702130858091ICTHUL               0000000000000001702130000001ICSLAVE 4     170213145836354336N              02
V57164300000522-002-002       MF1702130858091ICTHUL               0000000000000001702130000001ICSLAVE 4     170213145450354545N              01
V57202200000522-002-002       MF1702130858091ICTHUL               0000000000000001702130000001ICSLAVE 4     170213145650353747N              02
V57253800000522-002-002       MF1702130858091ICTHUL               0000000000000001702130000001ICSLAVE 4     170213150206353679N              01
V57592600000522-002-002       MF1702130858091ICTHUL               0000000000000001702130000001ICSLAVE 4     170213145739359246N              03
V57794000000522-002-002       MF1702130858091ICTHUL               0000000000000001702130000001ICSLAVE 4     170213145548357219Y              01
V58215300000522-002-002       MF1702130858091ICTHUL               0000000000000001702130000001ICSLAVE 4     170213150013358398Y              02
V58223300000522-002-002       MF1702130858091ICTHUL               0000000000000001702130000001ICSLAVE 4     170213150118358522N              02
X MF Slave 4 First invoice 140502 170213 Last invoice 140503 170213 Next invoice 140504 Total number of records 000000043 clbackup completed 20:05:00
