105473000105473               105473               170213MH     1400+00000+MH0000004328+0000004328+000000000+000000608+0000004936+0000000000+I40000004936+0000000000+Z
105473001105473079-000289     105473006001023493217PAINT WTR COL CAKE 6COL0000001000+00001578+00000+0001T   00001578+0000000902          1400 S71130               1AZ
105473002105473903-000200     105473006009826020234SWT CHOC RP CHOCO 23G  0000002000+00000788+00000+0001T   00000788+0000000902          1400 S71150               1AZ
105473003105473112-116038     105473006009681820246TCS CARRIER BAG MIDI   0000001000+00000035+00000+0001T   00000035+0000000902          1400 S71090               1AZ
105473004105473046-000014     105473006001023725387BATTERIES SIZE:AAA 4PCE0000001000+00001139+00000+0001T   00001139+0000000902          1400 S71312               1AZ
105474000105474               105474               170213MH     1400+00000+MH0000003102+0000003102+000000000+000000435+0000003530+0000000007+I20000000000+0000003530+Z
105474001105474079-006522     105474006001023149442ART+CRAFT GLUE ASSORTED0000001000+00001753+00000+0001T   00001753+0000000959          1400 S71130               1AZ
105474002105474251-000001     105474006001023487681TAPE DBL-SIDE 18x1000mm0000001000+00001314+00000+0001T   00001314+0000000959          1400 S71810               1AZ
105474003105474112-116038     105474006009681820246TCS CARRIER BAG MIDI   0000001000+00000035+00000+0001T   00000035+0000000959          1400 S71090               1AZ
105475000105475               105475               170213MH     1400+00000+MH0000021214+0000021214+000000000+000002975+0000024189+0000000000+I40000024189+0000000000+Z
105475001105475027-008813     105475006001023552334DUSTER RETRCTABLE 122cm0000001000+00002630+00000+0001T   00002630+0000001008          1400 S71212               1AZ
105475002105475027-009025     105475006003962000747DUSTPAN-SET PL         0000001000+00002630+00000+0001T   00002630+0000001008          1400 S71212               1AZ
105475003105475306-000021-C   105475006003000567294EARBUDS 300PCE IN TUB  0000001000+00001753+00000+0001T   00001753+0000001008          1400 S71200               1AZ
105475004105475051-002401     105475006001023523570TRIGGER-SPRAYER   300ml0000001000+00001490+00000+0001T   00001490+0000001008          1400 S71820               1AZ
105475005105475072-020354     105475006001023649980DOG/CAT-BOWL LARGE     0000002000+00002630+00000+0001T   00002630+0000001008          1400 S71870               1AZ
105475006105475027-000090     105475006001023588265WINDOW-CLEANER LONG-HND0000001000+00002630+00000+0001T   00002630+0000001008          1400 S71212               1AZ
105475007105475133-000017     105475006003000525171CLEANING-CLOTHS 5PCE   0000001000+00003507+00000+0001T   00003507+0000001008          1400 S71212               1AZ
105475008105475107-004105     105475006002923010504BUCKET 9L OPEN         0000001000+00001314+00000+0001T   00001314+0000001008          1400 S71210               1AZ
105476000105476               105476               170213MH     1400+00000+MH0000004385+0000004385+000000000+000000614+0000004990+0000000009+I20000000000+0000004990+Z
105476001105476560-000250     105476006001023831040ANIMALS STRETCHABLE    0000001000+00004385+00000+0001T   00004385+0000001033          1400 S71745               1AZ
105477000105477               105477               170213MH     1400+00000+MH0000005295+0000005295+000000000+000000742+0000006037+0000000000+I40000006037+0000000000+Z
105477001105477037-000004     105477006001023763679ASHTRAY PL TUB 8X11CM  0000001000+00001753+00000+0001T   00002192+0008191039          1400 S71515               1AZ
105477002105477072-020254     105477006001023775962PET DOG CHEW BALL 6cm  0000001000+00003507+00000+0001T   00003507+0000001039          1400 S71870               1AZ
105477003105477112-116038     105477006009681820246TCS CARRIER BAG MIDI   0000001000+00000035+00000+0001T   00000035+0000001039          1400 S71090               1AZ
105478000105478               105478               170213MH     1400+00000+MH0000020023+0000020023+000000000+000002805+0000022828+0000000000+I40000022828+0000000000+Z
105478001105478112-116038     105478006009681820246TCS CARRIER BAG MIDI   0000001000+00000035+00000+0001T   00000035+0000001056          1400 S71090               1AZ
105478002105478106-003130     105478006001023625755ICE CUBE TRAY 21-CUBE  0000001000+00002192+00000+0001T   00002192+0000001056          1400 S71210               1AZ
105478003105478084-070005     105478006001023627902NAIL FILES 6PCE H/GLOW 0000001000+00000876+00000+0001T   00000876+0000001056          1400 S71200               1AZ
105478004105478027-000409     105478006001023731012SCRUBBING-BRUSH 15,5cm 0000001000+00001753+00000+0001T   00001753+0000001056          1400 S71212               1AZ
105478005105478027-000081     105478006001023760371SCOURING PADS 10PCE    0000001000+00001139+00000+0001T   00001139+0000001056          1400 S71212               1AZ
105478006105478567-075490     105478009780799377583BK NOVEL ROMANCE AFR   0000001000+00003507+00000+0001T   00003507+0000001056          1400 S71757               1AZ
105478007105478567-075490     105478009780799376470BK NOVEL ROMANCE AFR   0000001000+00003507+00000+0001T   00003507+0000001056          1400 S71757               1AZ
105478008105478567-075490     105478009780799376289BK NOVEL ROMANCE AFR   0000001000+00003507+00000+0001T   00003507+0000001056          1400 S71757               1AZ
105478009105478084-000364     105478006001023624581MANICURE-SET 7PCE LTHR 0000001000+00003507+00000+0001T   00003507+0000001056          1400 S71200               1AZ
105479000105479               105479               170213MH     1400+00000+MH0000003507+0000003507+000000000+000000491+0000003990+0000000008+I20000000000+0000003990+Z
105479001105479002-012271     105479006001023849120TONGS 23cm RUBBER-GRIP 0000001000+00003507+00000+0001T   00003507+0000001113          1400 S71300               1AZ
105480000105480               105480               170213MH     1400+00000+MH0000004733+0000004733+000000000+000000664+0000005390+0000000007+I20000000000+0000005390+Z
105480001105480159-000653     105480006001023688859BATH-SPONGE MESH W/ROPE0000001000+00001753+00000+0001T   00001753+0000001117          1400 S71200               1AZ
105480002105480903-000111     105480006001704006378SWT LIQUORICE-TWISTS   0000001000+00001227+00000+0001T   00001227+0000001117          1400 S71150               1AZ
105480003105480306-000002     105480006003000365852NAIL BRUSHES 3PC ASTD  0000001000+00001753+00000+0001T   00001753+0000001117          1400 S71200               1AZ
105481000105481               105481               170213MH     1400+00000+MH0000009644+0000009644+000000000+000001352+0000010990+0000000006+I20000000000+0000010990+Z
105481001105481018-000170     105481006001023775528MUG OCC. LOVE 2PC MINI 0000001000+00002192+00000+0001T   00002192+0000001122          1400 S71515               1AZ
105481002105481565-000040     105481006008766115635NOVELTY ICON BEANIE    0000002000+00002630+00000+0001T   00002630+0000001122          1400 S71745               1AZ
105481003105481104-000036     105481006003000501038BASKET W/HANGER HOOK   0000001000+00002192+00000+0001T   00002192+0000001122          1400 S71210               1AZ
105482000105482               105482               170213MH     1400+00000+MH0000003506+0000003506+000000000+000000492+0000003990+0000000008+I20000000000+0000003990+Z
105482001105482046-002032-PK2 105482004897006175063BATTERIES CR-2032  2PCE0000002000+00001753+00000+0001T   00001753+0000001123          1400 S71312               1AZ
105483000105483               105483               170213MH     1400+00000+MH0000006137+0000006137+000000000+000000860+0000006990+0000000007+I20000000000+0000006990+Z
105483001105483140-006008     105483006001023803214FLY-SWATTERS   SET-OF-40000001000+00002630+00000+0001T   00002630+0000001125          1400 S71830               1AZ
105483002105483082-000385     105483006001023694164SPECTACLE-CASE ASSTD   0000001000+00003507+00000+0001T   00003507+0000001125          1400 S71160               1AZ
105484000105484               105484               170213MH     1400+00000+MH0000021085+0000021085+000000000+000002956+0000024041+0000000000+I40000024041+0000000000+Z
105484001105484080-000127     105484006003000424351VALENTINES DAY 36x24CM 0000001000+00002192+00000+0001T   00002192+0000001128          1400 S71112               1AZ
105484002105484112-116069     105484006009681820277TCS CARRIER BAG JUMBO  0000001000+00000048+00000+0001T   00000048+0000001128          1400 S71090               1AZ
105484003105484030-000031-A   105484006003000457588PLAQUE W/WORDS ASSTD   0000001000+00004385+00000+0001T   00004823+0006471128          1400 S71505               1AZ
105484004105484566-001234     105484006003000217793STICKERS LASER ASSTD   0000001000+00001578+00000+0001T   00001578+0000001128          1400 S71130               1AZ
105484005105484301-085004     105484006003000420469ORN LOVE PLAQUE 21X10CM0000001000+00003507+00000+0001T   00003946+0006471128          1400 S71505               1AZ
105484006105484301-085000     105484006003000674299 ORN OCC. LOVE HEARTS  0000001000+00002192+00000+0001T   00002192+0000001128          1400 S71505               1AZ
105484007105484903-005000     105484006002580020007SWT CT MALLOW FISH 120g0000001000+00001314+00000+0001T   00001314+0000001128          1400 S71150               1AZ
105484008105484903-000200     105484006009826020234SWT CHOC RP CHOCO 23G  0000002000+00000788+00000+0001T   00000788+0000001128          1400 S71150               1AZ
105484009105484903-000183     105484006003000451043SWT LB HEART LOLLY     0000002000+00000393+00000+0001T   00000393+0000001128          1400 S71150               1AZ
105484010105484103-000472     105484006003000631049FLOWER BASKET W/HANDLE 0000001000+00003507+00000+0001T   00003507+0000001128          1400 S71300               1AZ
105485000105485               105485               170213MH     1400+00000+MH0000003507+0000003507+000000000+000000491+0000003990+0000000008+I20000000000+0000003990+Z
105485001105485562-000020     105485006003000600861EDU PLAY DOUGH 60g 4PC 0000001000+00003507+00000+0001T   00003507+0000001145          1400 S71755               1AZ
105486000105486               105486               170213MH     1400+00000+MH0000003069+0000003069+000000000+000000430+0000003499+0000000000+I40000003499+0000000000+Z
105486001105486464-000107     105486000073854318089PLAY-CARDS 2nd (SINGLE)0000001000+00003069+00000+0001T   00003069+0000001152          1400 S71785               1AZ
105487000105487               105487               170213MH     1400+00000+MH0000010127+0000010127+000000000+000001421+0000011540+0000000008+I20000000000+0000011540+Z
105487001105487019-071595     105487006001023756428PEBBLES 250g SKY-BLUE  0000001000+00001753+00000+0001T   00001753+0000001157          1400 S71510               1AZ
105487002105487077-000011-D   105487006001023808554TISSUE-WRAP WHITE 10PCE0000001000+00000876+00000+0001T   00000876+0000001157          1400 S71112               1AZ
105487003105487038-047244     105487006003000368068PLACE-MAT COLS 43X29CM 0000005000+00001490+00000+0001T   00001490+0000001157          1400 S71300               1AZ
105487004105487112-116069     105487006009681820277TCS CARRIER BAG JUMBO  0000001000+00000048+00000+0001T   00000048+0000001157          1400 S71090               1AZ
105488000105488               105488               170213MH     1400+00000+MH0000002454+0000002454+000000000+000000344+0000002790+0000000008+I20000000000+0000002790+Z
105488001105488031-005815     105488009320760100019P/FRAME-CLIP 10x15cm   0000002000+00001227+00000+0001T   00001227+0000001157          1400 S71510               1AZ
105489000105489               105489               170213MH     1400+00000+MH0000004243+0000004243+000000000+000000595+0000004830+0000000008+I20000000000+0000004830+Z
105489001105489304-000720     105489006001023843050F/BUNCH ROSE 6-HEAD AST0000001000+00002630+00000+0001T   00002630+0000001202          1400 S71510               1AZ
105489002105489566-001234     105489006003000217793STICKERS LASER ASSTD   0000001000+00001578+00000+0001T   00001578+0000001202          1400 S71130               1AZ
105489003105489112-116038     105489006009681820246TCS CARRIER BAG MIDI   0000001000+00000035+00000+0001T   00000035+0000001202          1400 S71090               1AZ
105490000105490               105490               170213MH     1400+00000+MH0000001139+0000001139+000000000+000000160+0000001290+0000000009+I20000000000+0000001290+Z
105490001105490565-000071     105490006003000643387NOVELTY WIND UP CHATTER0000001000+00001139+00000+0001T   00001139+0000001307          1400 S71745               1AZ
105491000105491               105491               170213MH     1400+00000+MH0000000788+0000000788+000000000+000000111+0000000890+0000000009+I20000000000+0000000890+Z
105491001105491903-000200     105491006009826020234SWT CHOC RP CHOCO 23G  0000001000+00000788+00000+0001T   00000788+0000001310          1400 S71150               1AZ
105492000105492               105492               170213MH     1400+00000+MH0000009116+0000009116+000000000+000001279+0000010390+0000000005+I20000000000+0000010390+Z
105492001105492077-000914     105492006003000413454G/WRAP 700mmx2m ANIMAL 0000001000+00002192+00000+0001T   00002192+0000001314          1400 S71112               1AZ
105492002105492077-000235     105492006003000160211GIFT-RIBBON ROLL METALC0000001000+00002630+00000+0001T   00002630+0000001314          1400 S71112               1AZ
105492003105492077-000010-F   105492006003453000461CREPE-PAPER BLUE       0000001000+00000788+00000+0001T   00000788+0000001314          1400 S71112               1AZ
105492004105492077-000467     105492006003000329991GIFT-BAG STAMP 18X23CM 0000001000+00001753+00000+0001T   00001753+0000001314          1400 S71112               1AZ
105492005105492206-000590     105492006003000633708BAG CLIPS LIPS 2PC     0000001000+00001753+00000+0001T   00001753+0000001314          1400 S71321               1AZ
105493000105493               105493               170213MH     1400+00000+MH0000001753+0000001753+000000000+000000246+0000001990+0000000009+I20000000000+0000001990+Z
105493001105493467-000002     105493006001023354518BEACH-SET PL 2PCE      0000001000+00001753+00000+0001T   00001753+0000001316          1400 S71785               1AZ
105494000105494               105494               170213MH     1400+00000+MH0000019342+0000019342+000000000+000002709+0000022051+0000000000+I40000022051+0000000000+Z
105494001105494112-116069     105494006009681820277TCS CARRIER BAG JUMBO  0000001000+00000048+00000+0001T   00000048+0000001322          1400 S71090               1AZ
105494002105494566-000054     105494006003000085781S/BOOK ALBUM+ACCESORIES0000001000+00010525+00000+0001T   00010525+0000001322          1400 S71130               1AZ
105494003105494079-014101     105494006001023908612ART+CRAFT SCOUBIDOUx50 0000001000+00003507+00000+0001T   00003507+0000001322          1400 S71130               1AZ
105494004105494464-009104     105494006001023620279GAME POOL-TABLE 25x42cm0000001000+00005262+00000+0001T   00005262+0000001322          1400 S71785               1AZ
105495000105495               105495               170213MH     1400+00000+MH0000006171+0000006171+000000000+000000866+0000007030+0000000007+I20000000000+0000007030+Z
105495001105495036-000063     105495006009654960436COATHANGERS VIRGIN 5PCE0000001000+00001753+00000+0001T   00001753+0000001323          1400 S71212               1AZ
105495002105495466-000515     105495006001023477408BALLS TENNIS BAG-OF-3  0000001000+00002630+00000+0001T   00002630+0000001323          1400 S71785               1AZ
105495003105495301-085002     105495006003000420704ORN OCC. LOVE BELL ASST0000001000+00001753+00000+0001T   00002630+0008121323          1400 S71505               1AZ
105495004105495112-116038     105495006009681820246TCS CARRIER BAG MIDI   0000001000+00000035+00000+0001T   00000035+0000001323          1400 S71090               1AZ
105496000105496               105496               170213MH     1400+00000+MH0000010560+0000010560+000000000+000001479+0000012030+0000000009+I20000000000+0000012030+Z
105496001105496368-000005     105496006003000616862PLUSH MONSTER 24cm     0000001000+00010525+00000+0001T   00010525+0000001324          1400 S71745               1AZ
105496002105496112-116038     105496006009681820246TCS CARRIER BAG MIDI   0000001000+00000035+00000+0001T   00000035+0000001324          1400 S71090               1AZ
105497000105497               105497               170213MH     1400+00000+MH0000004604+0000004604+000000000+000000647+0000005250+0000000001+I20000000000+0000005250+Z
105497001105497080-000127     105497006003000424351VALENTINES DAY 36x24CM 0000001000+00002192+00000+0001T   00002192+0000001326          1400 S71112               1AZ
105497002105497903-000200     105497006009826020234SWT CHOC RP CHOCO 23G  0000003000+00000788+00000+0001T   00000788+0000001326          1400 S71150               1AZ
105497003105497112-116069     105497006009681820277TCS CARRIER BAG JUMBO  0000001000+00000048+00000+0001T   00000048+0000001326          1400 S71090               1AZ
105498000105498               105498               170213MH     1400+00000+MH0000019820+0000019820+000000000+000002776+0000022590+0000000006+I20000000000+0000022590+Z
105498001105498903-000087     105498006001704000161SWT SPECKLED-EGGS 50G  0000002000+00001139+00000+0001T   00001139+0000001334          1400 S71150               1AZ
105498002105498497-058330     105498000078257583300BOAT EXPLORER 200      0000001000+00017542+00000+0001T   00017542+0000001334          1400 S71787               1AZ
105499000105499               105499               170213MH     1400+00000+MH0000002366+0000002366+000000000+000000332+0000002690+0000000008+I20000000000+0000002690+Z
105499001105499077-000303     105499006001023593757GIFT-BAG PAPER MED     0000001000+00001578+00000+0001T   00001578+0000001354          1400 S71112               1AZ
105499002105499077-000010-C   105499006001023123879CREPE-PAPER RED        0000001000+00000788+00000+0001T   00000788+0000001354          1400 S71112               1AZ
105500000105500               105500               170213MH     1400+00000+MH0000000876+0000000876+000000000+000000123+0000000990+0000000009+I20000000000+0000000990+Z
105500001105500077-000011-D   105500006001023808554TISSUE-WRAP WHITE 10PCE0000001000+00000876+00000+0001T   00000876+0000001358          1400 S71112               1AZ
105501000105501               105501               170213MH     1400+00000+MH0000001314+0000001314+000000000+000000184+0000001490+0000000008+I20000000000+0000001490+Z
105501001105501903-000194     105501006009826020616SWT CHOC RP LOLLY 25G  0000001000+00001314+00000+0001T   00001314+0000001358          1400 S71150               1AZ
105502000105502               105502               170213MH     1400+00000+MH0000005262+0000005262+000000000+000000737+0000005990+0000000009+I20000000000+0000005990+Z
105502001105502366-000125     105502006003000006786DRESSUP WINGS/WAND/BAND0000001000+00005262+00000+0001T   00005262+0000001400          1400 S71131               1AZ
105503000105503               105503               170213MH     1400+00000+MH0000008593+0000008593+000000000+000001204+0000009790+0000000007+I20000000000+0000009790+Z
105503001105503071-001238     105503000060107212485ERASERS  3PCE    CARDED0000001000+00000876+00000+0001T   00000876+0000001402          1400 S71130               1AZ
105503002105503071-003858     105503006001023902276STATIONERY SET PENCIL  0000001000+00002455+00000+0001T   00002455+0000001402          1400 S71130               1AZ
105503003105503490-044669     105503000078257446698INTEX BOB BAG 3-D      0000001000+00005262+00000+0001T   00005262+0000001402          1400 S71787               1AZ
105504000105504               105504               170213MH     1400+00000+MH0000007016+0000007016+000000000+000000983+0000007990+0000000009+I20000000000+0000007990+Z
105504001105504017-000050     105504006003000008223P/ALBUM 200-PHOTO PLAIN0000001000+00007016+00000+0001T   00007016+0000001403          1400 S71510               1AZ
105505000105505               105505               170213MH     1400+00000+MH0000000393+0000000393+000000000+000000056+0000000440+0000000009+I20000000000+0000000440+Z
105505001105505903-000183     105505006003000451043SWT LB HEART LOLLY     0000001000+00000393+00000+0001T   00000393+0000001403          1400 S71150               1AZ
105506000105506               105506               170213MH     1400+00000+MH0000001490+0000001490+000000000+000000209+0000001690+0000000009+I20000000000+0000001690+Z
105506001105506077-000299     105506006003000395576G/BAG 32x25cm LRG LOVE 0000001000+00001490+00000+0001T   00001490+0000001405          1400 S71112               1AZ
105507000105507               105507               170213MH     1400+00000+MH0000007362+0000007362+000000000+000001033+0000008395+0000000000+I40000008395+0000000000+Z
105507001105507903-000843     105507008693029031067SWT GUMMY JELAXY 80G   0000001000+00000964+00000+0001T   00000964+0000001518          1400 S71150               1AZ
105507002105507903-000087     105507006001704000161SWT SPECKLED-EGGS 50G  0000001000+00001139+00000+0001T   00001139+0000001518          1400 S71150               1AZ
105507003105507077-000314     105507006003000181148GIFT-BAG 11X14CM MATT  0000001000+00000876+00000+0001T   00000876+0000001518          1400 S71112               1AZ
105507004105507018-000108     105507006001023380265MUG NOVELTY ICON ASST  0000001000+00001753+00000+0001T   00001753+0000001518          1400 S71515               1AZ
105507005105507124-000006     105507006003000577170STORAGE TIN ROUND 11x9 0000001000+00002630+00000+0001T   00002630+0000001518          1400 S71300               1AZ
105508000105508               105508               170213MH     1400+00000+MH0000004417+0000004417+000000000+000000620+0000005030+0000000007+I20000000000+0000005030+Z
105508001105508079-003010     105508006003000448845A/TUBE 75ML YELLOW     0000001000+00001753+00000+0001T   00001753+0000001529          1400 S71130               1AZ
105508002105508079-003001     105508006003000448951A/TUBE 75ML BLACK      0000001000+00001753+00000+0001T   00001753+0000001529          1400 S71130               1AZ
105508003105508366-007917     105508006003000653621DRESS UP MASK ANIMALS  0000001000+00000876+00000+0001T   00000876+0000001529          1400 S71131               1AZ
105508004105508112-116038     105508006009681820246TCS CARRIER BAG MIDI   0000001000+00000035+00000+0001T   00000035+0000001529          1400 S71090               1AZ
105509000105509               105509               170213MH     1400+00000+MH0000006169+0000006169+000000000+000000866+0000007030+0000000005+I20000000000+0000007030+Z
105509001105509028-002748     105509006001023500410BAR-B-Q FAN H&L        0000001000+00003507+00000+0001T   00003507+0000001530          1400 S71305               1AZ
105509002105509076-000710-H   105509006001023426482SKI-ROPE 7mmx10m       0000001000+00001753+00000+0001T   00001753+0000001530          1400 S71810               1AZ
105509003105509112-116038     105509006009681820246TCS CARRIER BAG MIDI   0000001000+00000035+00000+0001T   00000035+0000001530          1400 S71090               1AZ
105509004105509083-000049     105509004891035200024CIG-LIGHTER DISPOSABLE 0000002000+00000437+00000+0001T   00000437+0000001530          1400 S71315               1AZ
105510000105510               105510               170213MH     1400+00000+MH0000025480+0000025480+000000000+000003570+0000029050+0000000000+I20000000000+0000029050+Z
105510001105510486-002322     105510006003000384747W/CLOCK QTZ SQUARE 30CM0000001000+00011402+00000+0001T   00011402+0000001539          1400 S71510               1AZ
105510002105510486-002320     105510006003000290932W/CLOCK QTZ PL W/LIFE  0000001000+00011402+00000+0001T   00011402+0000001539          1400 S71510               1AZ
105510003105510033-010720     105510006001023678645SAFETY-PINS 50PCE SMALL0000003000+00000876+00000+0001T   00000876+0000001539          1400 S71200               1AZ
105510004105510112-116069     105510006009681820277TCS CARRIER BAG JUMBO  0000001000+00000048+00000+0001T   00000048+0000001539          1400 S71090               1AZ
105511000105511               105511               170213MH     1400+00000+MH0000006172+0000006172+000000000+000000865+0000007037+0000000000+I40000007037+0000000000+Z
105511001105511492-055602     105511000078257556021SWIM-GOGGLES PLAY      0000001000+00002630+00000+0001T   00002630+0000001547          1400 S71787               1AZ
105511002105511463-000128     105511006003000109500SWIM CAP SILICONE ASSTD0000001000+00003507+00000+0001T   00003507+0000001547          1400 S71785               1AZ
105511003105511112-116038     105511006009681820246TCS CARRIER BAG MIDI   0000001000+00000035+00000+0001T   00000035+0000001547          1400 S71090               1AZ
105512000105512               105512               170213MH     1400+00000+MH0000003506+0000003506+000000000+000000492+0000003990+0000000008+I20000000000+0000003990+Z
105512001105512366-002809     105512006003000222643DRESS UP MOUSTACHE SET 0000001000+00001753+00000+0001T   00001753+0000001552          1400 S71131               1AZ
105512002105512366-002799     105512006003000648238DRESSUP S/ADH FACE HAIR0000001000+00001753+00000+0001T   00001753+0000001552          1400 S71131               1AZ
105513000105513               105513               170213MH     1400+00000+MH0000008771+0000008771+000000000+000001228+0000009999+0000000000+I40000009999+0000000000+Z
105513001105513001-091415     105513006003000329113W/GLS OCC. LOVE 2PC 2800000001000+00008771+00000+0001T   00009648+0006471639          1400 S71515               1AZ
105514000105514               105514               170213MH     1400+00000+MH0000003507+0000003507+000000000+000000491+0000003990+0000000008+I20000000000+0000003990+Z
105514001105514004-071206     105514006003000605156USB CABLE CHARGER      0000001000+00003507+00000+0001T   00003507+0000001642          1400 S71310               1AZ
105515000105515               105515               170213MH     1400+00000+MH0000005120+0000005120+000000000+000000717+0000005830+0000000007+I20000000000+0000005830+Z
105515001105515301-085004     105515006003000420469ORN LOVE PLAQUE 21X10CM0000001000+00003507+00000+0001T   00003946+0006471643          1400 S71505               1AZ
105515002105515077-000303     105515006001023593757GIFT-BAG PAPER MED     0000001000+00001578+00000+0001T   00001578+0000001643          1400 S71112               1AZ
105515003105515112-116038     105515006009681820246TCS CARRIER BAG MIDI   0000001000+00000035+00000+0001T   00000035+0000001643          1400 S71090               1AZ
105516000105516               105516               170213MH     1400+00000+MH0000007893+0000007893+000000000+000001106+0000008999+0000000000+I40000008999+0000000000+Z
105516001105516301-085007     105516006003000673698ORN OCC. LOVE S/PLAQUE 0000001000+00007893+00000+0001T   00007893+0000001645          1400 S71505               1AZ
105517000105517               105517               170213MH     1400+00000+MH0000005258+0000005258+000000000+000000738+0000005990+0000000006+I20000000000+0000005990+Z
105517001105517046-002016-PK2 105517004897006175056BATTERIES CR-2016  2PCE0000002000+00001753+00000+0001T   00001753+0000001648          1400 S71312               1AZ
105517002105517903-000006     105517006923431571571SWEET GS SOUR BELT 50g 0000002000+00000876+00000+0001T   00000876+0000001648          1400 S71150               1AZ
105518000105518               105518               170213MH     1400+00000+MH0000004821+0000004821+000000000+000000675+0000005490+0000000006+I20000000000+0000005490+Z
105518001105518018-000136     105518006001023659026MUG OCC LOVE W/PLUSH   0000001000+00003507+00000+0001T   00003507+0000001656          1400 S71515               1AZ
105518002105518903-000194     105518006009826020616SWT CHOC RP LOLLY 25G  0000001000+00001314+00000+0001T   00001314+0000001656          1400 S71150               1AZ
105519000105519               105519               170213MH     1400+00000+MH0000006483+0000006483+000000000+000000910+0000007390+0000000003+I20000000000+0000007390+Z
105519001105519089-060027     105519006003000245871KEY-CHAIN HEART 6X6cm  0000001000+00003069+00000+0001T   00003069+0000001659          1400 S71205               1AZ
105519002105519903-000183     105519006003000451043SWT LB HEART LOLLY     0000002000+00000393+00000+0001T   00000393+0000001659          1400 S71150               1AZ
105519003105519903-000194     105519006009826020616SWT CHOC RP LOLLY 25G  0000002000+00001314+00000+0001T   00001314+0000001659          1400 S71150               1AZ
105520000105520               105520               170213MH     1400+00000+MH0000008591+0000008591+000000000+000001203+0000009794+0000000000+I40000009794+0000000000+Z
105520001105520080-000127     105520006003000424351VALENTINES DAY 36x24CM 0000001000+00002192+00000+0001T   00002192+0000001708          1400 S71112               1AZ
105520002105520077-000303     105520006001023593757GIFT-BAG PAPER MED     0000001000+00001578+00000+0001T   00001578+0000001708          1400 S71112               1AZ
105520003105520031-000923     105520006001023669933P/FRAME BLK W/WORDS    0000001000+00003507+00000+0001T   00003507+0000001708          1400 S71510               1AZ
105520004105520903-000194     105520006009826020616SWT CHOC RP LOLLY 25G  0000001000+00001314+00000+0001T   00001314+0000001708          1400 S71150               1AZ
105521000105521               105521               170213MH     1400+00000+MH0000004385+0000004385+000000000+000000614+0000004990+0000000009+I20000000000+0000004990+Z
105521001105521039-082029     105521006001023852694C/SET 8PC BLK-CANDLE   0000001000+00004385+00000+0001T   00004385+0000001709          1400 S71510               1AZ
105522000105522               105522               170213MH     1400+00000+MH0000005295+0000005295+000000000+000000742+0000006030+0000000007+I20000000000+0000006030+Z
105522001105522200-003024     105522006001023657299REFUSE BAGS 20PCE BLACK0000001000+00001753+00000+0001T   00001753+0000001713          1400 S71214               1AZ
105522002105522020-000625     105522006001023821324BREAD-KNIFE 20cm       0000001000+00003507+00000+0001T   00003507+0000001713          1400 S71300               1AZ
105522003105522112-116038     105522006009681820246TCS CARRIER BAG MIDI   0000001000+00000035+00000+0001T   00000035+0000001713          1400 S71090               1AZ
105523000105523               105523               170213MH     1400+00000+MH0000011223+0000011223+000000000+000001573+0000012796+0000000000+I40000012796+0000000000+Z
105523001105523565-000255     105523006003000585168NOVELTY GLOW SLIME     0000001000+00002455+00000+0001T   00002455+0000001715          1400 S71745               1AZ
105523002105523077-000302     105523008010410010195GIFT-BAG 18X23CM E/D   0000001000+00000876+00000+0001T   00000876+0000001715          1400 S71112               1AZ
105523003105523560-000100     105523006001023834904DRAGON 15cm            0000001000+00005262+00000+0001T   00005262+0000001715          1400 S71745               1AZ
105523004105523206-000220     105523006003000631704EGG TIMER COLOUR-CHANGE0000001000+00002630+00000+0001T   00002630+0000001715          1400 S71321               1AZ
105524000105524               105524               170213MH     1400+00000+MH0000001613+0000001613+000000000+000000226+0000001830+0000000009+I20000000000+0000001830+Z
105524001105524018-000127     105524006001023380289MUG OCC STRAIGHT LOVE  0000001000+00001578+00000+0001T   00001753+0006471720          1400 S71515               1AZ
105524002105524112-116038     105524006009681820246TCS CARRIER BAG MIDI   0000001000+00000035+00000+0001T   00000035+0000001720          1400 S71090               1AZ
105525000105525               105525               170213MH     1400+00000+MH0000021521+0000021521+000000000+000003015+0000024536+0000000000+I40000024536+0000000000+Z
105525001105525112-116038     105525006009681820246TCS CARRIER BAG MIDI   0000001000+00000035+00000+0001T   00000035+0000001727          1400 S71090               1AZ
105525002105525039-809558     105525006003000344376CANDLE PILLAR 12CM 4AST0000002000+00006139+00000+0001T   00006139+0000001727          1400 S71510               1AZ
105525003105525041-093000     105525006003000320882B/GIFT SET 4PC B/RANGE 0000001000+00007016+00000+0001T   00007016+0000001727          1400 S71200               1AZ
105525004105525018-000170     105525006001023775528MUG OCC. LOVE 2PC MINI 0000001000+00002192+00000+0001T   00002192+0000001727          1400 S71515               1AZ
105526000105526               105526               170213MH     1400+00000+MH0000008771+0000008771+000000000+000001228+0000009999+0000000000+I40000009999+0000000000+Z
105526001105526368-000614     105526006001023705808PLUSH LOVE 30cm        0000001000+00008771+00000+0001T   00008771+0000001728          1400 S71745               1AZ
105527000105527               105527               170213MH     1400+00000+MH0000003015+0000003015+000000000+000000423+0000003430+0000000008+I20000000000+0000003430+Z
105527001105527304-001204     105527006001023737984FLOWER OCC. TEDDY/ROSES0000001000+00001402+00000+0001T   00001490+0006471802          1400 S71510               1AZ
105527002105527018-000127     105527006001023380289MUG OCC STRAIGHT LOVE  0000001000+00001578+00000+0001T   00001753+0006471802          1400 S71515               1AZ
105527003105527112-116038     105527006009681820246TCS CARRIER BAG MIDI   0000001000+00000035+00000+0001T   00000035+0000001802          1400 S71090               1AZ
105528000105528               105528               170213MH     1400+00000+MH0000027750+0000027750+000000000+000003889+0000031639+0000000000+I40000031639+0000000000+Z
105528001105528112-116069     105528006009681820277TCS CARRIER BAG JUMBO  0000001000+00000048+00000+0001T   00000048+0000001809          1400 S71090               1AZ
105528002105528368-000111     105528006001023780812PLUSH BEAR/DOG 29CM    0000001000+00012279+00000+0001T   00012279+0000001809          1400 S71745               1AZ
105528003105528077-000299     105528006003000395576G/BAG 32x25cm LRG LOVE 0000001000+00001490+00000+0001T   00001490+0000001809          1400 S71112               1AZ
105528004105528077-000011-E   105528006001023808646TISSUE-WRAP PINK 10PCE 0000001000+00000876+00000+0001T   00000876+0000001809          1400 S71112               1AZ
105528005105528016-006505     105528006001023617576S/JAR GLS MINI CLIP    0000002000+00001490+00000+0001T   00001490+0000001809          1400 S71300               1AZ
105528006105528089-000192-A   105528006001023901774KEY-CHAIN ACRYLIC      0000001000+00000876+00000+0001T   00000876+0000001809          1400 S71205               1AZ
105528007105528903-004951     105528006002580020328SWT MALLOW MINI M/SHAKE0000001000+00001227+00000+0001T   00001227+0000001809          1400 S71150               1AZ
105528008105528903-004962     105528008410525221880SWT FINI BLCK/RED 50g  0000002000+00000964+00000+0001T   00000964+0000001809          1400 S71150               1AZ
105528009105528903-004960     105528008410525221842SWT GUMMY STR/BERRY 50G0000002000+00000964+00000+0001T   00000964+0000001809          1400 S71150               1AZ
105528010105528903-000844     105528005010478432567SWT CANDY DL LUV HEARTS0000001000+00001314+00000+0001T   00001314+0000001809          1400 S71150               1AZ
105528011105528006-000102     105528006001023806819BALLOONS W/BOMBS 50PCE 0000001000+00001490+00000+0001T   00001490+0000001809          1400 S71131               1AZ
105528012105528903-004950     105528006002580020304SWT APRICOT SURPRISE   0000001000+00001314+00000+0001T   00001314+0000001809          1400 S71150               1AZ
105529000105529               105529               170213MH     1400+00000+MH0000000788+0000000788+000000000+000000111+0000000890+0000000009+I20000000000+0000000890+Z
105529001105529903-000200     105529006009826020234SWT CHOC RP CHOCO 23G  0000001000+00000788+00000+0001T   00000788+0000001816          1400 S71150               1AZ
105530000105530               105530               170213MH     1400+00000+MH0000000788+0000000788+000000000+000000111+0000000890+0000000009+I20000000000+0000000890+Z
105530001105530903-000200     105530006009826020234SWT CHOC RP CHOCO 23G  0000001000+00000788+00000+0001T   00000788+0000001816          1400 S71150               1AZ
M17021391                              CASH        MHSLAVE 1                       Z-REPORT No.   552TOTAL (Sales - Refunds)           4781.75       CASH TO BE BANKED                 2474.00       DEBIT CARDS                          0.00       CREDIT CARDS                      2307.75       Z-READING                         4781.75       AIRTIME DEBIT CARD SALES             0.00       AIRTIME CARD SALES                   0.00       OVERS/UNDERS                         0.00       AIRTIME CASH SALES                   0.00       GIFT CARDS                           0.00       GIFT CARD CASH SALES                 0.00       T O T A L  CASH PAYOUTS              0.00                                                                                                                                                                                                                                                                                                                                                      Z
M17021392                              CASH        MHABSENT                                                                                                                                                                                          ANNUAL LEAVE                                                                                                                                                                                    DAY OFF                                                                                                                                                                                         COMMENTS                                                                                                                                                                                                                                                                                                                                                                                       Z
Y17021300                                          MH00000000419661+000058
ZMH17021321243 SLAVE 1      SALES DATA                     NEXT INVOICE NO.  105531 0552
X MH Slave 1 First invoice 105473 170213 Last invoice 105530 170213 Next invoice 105531 Total number of records 000000225 clbackup completed 21:24:06
