116744000116744               116744               170213MH     1400+00000+MH0000002630+0000002630+000000000+000000369+0000002990+0000000009+I20000000000+0000002990+Z
116744001116744058-000061     116744006001023759597KNIFE SNAPOFF+5PCE BLDE0000001000+00002630+00000+0001T   00002630+0000000916          1400 N18840               2AZ
116745000116745               116745               170213MH     1400+00000+MH0000007890+0000007890+000000000+000001106+0000008990+0000000006+I20000000000+0000008990+Z
116745001116745084-078824     116745006003000385676NAIL FILES EMERY 24PC  0000001000+00001753+00000+0001T   00001753+0000000924          1400 N18200               2AZ
116745002116745159-000111     116745006003000330379SHOWER CAP PVC LINED   0000001000+00002630+00000+0001T   00002630+0000000924          1400 N18200               2AZ
116745003116745084-000364     116745006001023624581MANICURE-SET 7PCE LTHR 0000001000+00003507+00000+0001T   00003507+0000000924          1400 N18200               2AZ
116746000116746               116746               170213MH     1400+00000+MH0000008418+0000008418+000000000+000001179+0000009590+0000000007+I20000000000+0000009590+Z
116746001116746560-000700     116746006001023865830GROWING ANIMALS ASSTD  0000002000+00001578+00000+0001T   00001578+0000001041          1400 N18745               2AZ
116746002116746565-004004     116746006001023744357NOVELTY INSCT COLLECTOR0000001000+00005262+00000+0001T   00005262+0000001041          1400 N18745               2AZ
116747000116747               116747               170213MH     1400+00000+MH0000024249+0000024249+000000000+000003397+0000027646+0000000000+I40000027646+0000000000+Z
116747001116747112-116069     116747006009681820277TCS CARRIER BAG JUMBO  0000001000+00000048+00000+0001T   00000048+0000001044          1400 N18090               2AZ
116747002116747031-000874-A   116747006001023798800P/FRAME WDN P/BOX 10X150000001000+00003946+00000+0001T   00003946+0000001044          1400 N18510               2AZ
116747003116747031-000874-B   116747006001023798831P/FRAME WDN P/BOX 13X180000001000+00004385+00000+0001T   00004385+0000001044          1400 N18510               2AZ
116747004116747077-000303     116747006001023593757GIFT-BAG PAPER MED     0000001000+00001578+00000+0001T   00001578+0000001044          1400 N18112               2AZ
116747005116747567-010875     116747006003000071210BOOK-NON-FICTION ASSTD 0000001000+00001314+00000+0001T   00001753+0008131044          1400 N18757               2AZ
116747006116747080-000124     116747006003000297733CARD & ENV VALENTINES  0000001000+00001578+00000+0001T   00001578+0000001044          1400 N18112               2AZ
116747007116747089-060027     116747006003000245871KEY-CHAIN HEART 6X6cm  0000001000+00003069+00000+0001T   00003069+0000001044          1400 N18205               2AZ
116747008116747560-000020     116747006003000653270ANIMALS ASSTD SET      0000001000+00006139+00000+0001T   00006139+0000001044          1400 N18745               2AZ
116747009116747567-010581     116747009780755497881BOOK STICKER MINI ASSTD0000001000+00002192+00000+0001T   00003069+0008131044          1400 N18757               2AZ
116748000116748               116748               170213MH     1400+00000+MH0000012278+0000012278+000000000+000001720+0000013990+0000000008+I20000000000+0000013990+Z
116748001116748035-000001     116748006002596010566UMBRELLA LADIES W/MINI 0000001000+00006139+00000+0001T   00006139+0000001049          1400 N18205               2AZ
116748002116748035-000021     116748006002596020206UMBRELLA GENTS         0000001000+00006139+00000+0001T   00006139+0000001049          1400 N18205               2AZ
116749000116749               116749               170213MH     1400+00000+MH0000005906+0000005906+000000000+000000829+0000006735+0000000000+I40000006735+0000000000+Z
116749001116749903-000892     116749008693029700420SWT NOVELTY CHOCO CREAM0000003000+00000788+00000+0001T   00000788+0000001059          1400 N18150               2AZ
116749002116749072-020310     116749006001023701015PET TOY MINI TENNIS BAL0000001000+00003507+00000+0001T   00003507+0000001059          1400 N18870               2AZ
116749003116749112-116038     116749006009681820246TCS CARRIER BAG MIDI   0000001000+00000035+00000+0001T   00000035+0000001059          1400 N18090               2AZ
116750000116750               116750               170213MH     1400+00000+MH0000001576+0000001576+000000000+000000222+0000001790+0000000008+I20000000000+0000001790+Z
116750001116750903-000200     116750006009826020234SWT CHOC RP CHOCO 23G  0000002000+00000788+00000+0001T   00000788+0000001100          1400 N18150               2AZ
116751000116751               116751               170213MH     1400+00000+MH0000011399+0000011399+000000000+000001597+0000012996+0000000000+I40000012996+0000000000+Z
116751001116751366-002699     116751006003000536733DRESS UP HAT COWGIRL   0000001000+00005262+00000+0001T   00005262+0000001103          1400 N18131               2AZ
116751002116751006-000800     116751006001023902801HAT CABARET 14x18cm    0000001000+00001753+00000+0001T   00001753+0000001103          1400 N18131               2AZ
116751003116751301-085000     116751006003000674299 ORN OCC. LOVE HEARTS  0000002000+00002192+00000+0001T   00002192+0000001103          1400 N18505               2AZ
116752000116752               116752               170213MH     1400+00000+MH0000015467+0000015467+000000000+000002167+0000017630+0000000004+I20000000000+0000017630+Z
116752001116752903-000087     116752006001704000161SWT SPECKLED-EGGS 50G  0000002000+00001139+00000+0001T   00001139+0000001106          1400 N18150               2AZ
116752002116752560-000250     116752006001023831040ANIMALS STRETCHABLE    0000001000+00004385+00000+0001T   00004385+0000001106          1400 N18745               2AZ
116752003116752560-000302     116752006001023834874DINOSAUR ASSTD DESIGNS 0000001000+00003507+00000+0001T   00003507+0000001106          1400 N18745               2AZ
116752004116752560-000100     116752006001023834904DRAGON 15cm            0000001000+00005262+00000+0001T   00005262+0000001106          1400 N18745               2AZ
116752005116752112-116038     116752006009681820246TCS CARRIER BAG MIDI   0000001000+00000035+00000+0001T   00000035+0000001106          1400 N18090               2AZ
116753000116753               116753               170213MH     1400+00000+MH0000017233+0000017233+000000000+000002415+0000019648+0000000000+I40000019648+0000000000+Z
116753001116753112-116069     116753006009681820277TCS CARRIER BAG JUMBO  0000001000+00000048+00000+0001T   00000048+0000001217          1400 N18090               2AZ
116753002116753266-001002     116753006001023914163PLAYSET SWORD & WEAPON 0000001000+00006139+00000+0001T   00006139+0000001217          1400 N18710               2AZ
116753003116753466-000605     116753003427000901125BALL SOC 2-PLY PANEL   0000001000+00007893+00000+0001T   00007893+0000001217          1400 N18785               2AZ
116753004116753261-002267     116753006001023665126GUN 8-SHOT SUPER-CAP   0000001000+00001753+00000+0001T   00001753+0000001217          1400 N18710               2AZ
116753005116753261-000121     116753006001023341600GUN-CAPS 8-SHOT CARD-9 0000002000+00000700+00000+0001T   00000700+0000001217          1400 N18710               2AZ
116754000116754               116754               170213MH     1400+00000+MH0000021307+0000021307+000000000+000002985+0000024290+0000000002+I20000000000+0000024290+Z
116754001116754261-002267     116754006001023665126GUN 8-SHOT SUPER-CAP   0000001000+00001753+00000+0001T   00001753+0000001218          1400 N18710               2AZ
116754002116754261-000121     116754006001023341600GUN-CAPS 8-SHOT CARD-9 0000001000+00000700+00000+0001T   00000700+0000001218          1400 N18710               2AZ
116754003116754567-011000     116754009781416901051BOOK CHILDREN'S READER 0000001000+00001314+00000+0001T   00001753+0008131218          1400 N18757               2AZ
116754004116754567-011423     116754006003000641345BK COLOURING THERAPY A50000001000+00006139+00000+0001T   00006139+0000001218          1400 N18757               2AZ
116754005116754079-000334     116754006003000670437THERAPY P/CRAYONS 18   0000001000+00005262+00000+0001T   00005262+0000001218          1400 N18130               2AZ
116754006116754266-001002     116754006001023914163PLAYSET SWORD & WEAPON 0000001000+00006139+00000+0001T   00006139+0000001218          1400 N18710               2AZ
116755000116755               116755               170213MH     1400+00000+MH0000008769+0000008769+000000000+000001228+0000009990+0000000007+I20000000000+0000009990+Z
116755001116755565-000876     116755006003000305759NOVELTY FUNKY SUNGLASS 0000001000+00003507+00000+0001T   00003507+0000001221          1400 N18745               2AZ
116755002116755366-000125     116755006003000006786DRESSUP WINGS/WAND/BAND0000001000+00005262+00000+0001T   00005262+0000001221          1400 N18131               2AZ
116756000116756               116756               170213MH     1400+00000+MH0000002980+0000002980+000000000+000000418+0000003398+0000000000+I40000003398+0000000000+Z
116756001116756903-000517     116756006001704012768SWT STRAWS FIZZY CHERRY0000001000+00001227+00000+0001T   00001227+0000001230          1400 N18150               2AZ
116756002116756079-006496     116756006003000160105GLITTER SHAKERS        0000001000+00001753+00000+0001T   00001753+0000001230          1400 N18130               2AZ
116757000116757               116757               170213MH     1400+00000+MH0000010554+0000010554+000000000+000001480+0000012030+0000000004+I20000000000+0000012030+Z
116757001116757903-000094     116757006923431501622SWT GS CANDY NECKLACE  0000001000+00000437+00000+0001T   00000437+0000001248          1400 N18150               2AZ
116757002116757266-000640     116757006003000012190GLIDER TWISTER 4PC     0000001000+00002192+00000+0001T   00002192+0000001248          1400 N18710               2AZ
116757003116757560-000703     116757006003000332403INSECTS 9PC ASSTD      0000001000+00001753+00000+0001T   00001753+0000001248          1400 N18745               2AZ
116757004116757266-005280     116757006003000656691BOYS PLAYSET SOLDIERS  0000001000+00003507+00000+0001T   00003507+0000001248          1400 N18710               2AZ
116757005116757112-116038     116757006009681820246TCS CARRIER BAG MIDI   0000001000+00000035+00000+0001T   00000035+0000001248          1400 N18090               2AZ
116757006116757903-000591     116757006003000563616SWEET ANIMAL 24cm      0000001000+00002630+00000+0001T   00002630+0000001248          1400 N18150               2AZ
116758000116758               116758               170213MH     1400+00000+MH0000047474+0000047474+000000000+000006656+0000054130+0000000000+I40000054130+0000000000+Z
116758001116758112-116069     116758006009681820277TCS CARRIER BAG JUMBO  0000001000+00000048+00000+0001T   00000048+0000001258          1400 N18090               2AZ
116758002116758006-000111     116758006003000519385BALLOONS LARGE 12PCE   0000001000+00002630+00000+0001T   00002630+0000001258          1400 N18131               2AZ
116758003116758566-001234     116758006003000217793STICKERS LASER ASSTD   0000001000+00001578+00000+0001T   00001578+0000001258          1400 N18130               2AZ
116758004116758007-000602     116758006003000541270BOOK COVER 2M SOLID COL0000001000+00002630+00000+0001T   00002630+0000001258          1400 N18130               2AZ
116758005116758006-000200-B   116758006003000096046PARTY GIRL DESIGN 12PCE0000002000+00002630+00000+0001T   00002630+0000001258          1400 N18131               2AZ
116758006116758006-000214-A   116758006003000311057P/GIRL JNR INVITE 6PCE 0000004000+00001578+00000+0001T   00001578+0000001258          1400 N18131               2AZ
116758007116758006-000208-A   116758006003000310098P/GIRL PLATES 23cm 6PCE0000004000+00000876+00000+0001T   00001314+0008181258          1400 N18131               2AZ
116758008116758304-001204     116758006001023737984FLOWER OCC. TEDDY/ROSES0000001000+00001402+00000+0001T   00001490+0006471258          1400 N18510               2AZ
116758009116758065-006072     116758006003000466627WOODEN HARMONICA 12.7cm0000001000+00005262+00000+0001T   00005262+0000001258          1400 N18745               2AZ
116758010116758560-000700     116758006001023865830GROWING ANIMALS ASSTD  0000002000+00001578+00000+0001T   00001578+0000001258          1400 N18745               2AZ
116758011116758006-005909     116758006003000081301PARTY FAVOUR STAR WAND 0000003000+00002192+00000+0001T   00002192+0000001258          1400 N18131               2AZ
116758012116758466-072727     116758006003000027712YO-YO NOVELTY ASSTD    0000001000+00001753+00000+0001T   00001753+0000001258          1400 N18785               2AZ
116758013116758560-000256     116758006001023831101GROWING FISH ASSTD     0000001000+00002630+00000+0001T   00002630+0000001258          1400 N18745               2AZ
116758014116758368-000100     116758006001023474742PLUSH MD BEAR 12cm     0000001000+00002630+00000+0001T   00002630+0000001258          1400 N18745               2AZ
116758015116758565-000990     116758006001023673510NOVELTY STICKY SLAPPER 0000001000+00001490+00000+0001T   00001490+0000001258          1400 N18745               2AZ
116758016116758565-000044     116758006003000128280BARREL OF SLIME 100g   0000001000+00000613+00000+0001T   00000613+0000001258          1400 N18745               2AZ
116759000116759               116759               170213MH     1400+00000+MH0000005262+0000005262+000000000+000000737+0000005990+0000000009+I20000000000+0000005990+Z
116759001116759105-007805     116759006002923018920STORAGE BOX CLEAR 9.5L 0000001000+00005262+00000+0001T   00005262+0000001259          1400 N18210               2AZ
116760000116760               116760               170213MH     1400+00000+MH0000002192+0000002192+000000000+000000307+0000002490+0000000009+I20000000000+0000002490+Z
116760001116760077-000918     116760006003000413690G/WRAP 700mmx2m PATTERN0000001000+00002192+00000+0001T   00002192+0000001301          1400 N18112               2AZ
116761000116761               116761               170213MH     1400+00000+MH0000003156+0000003156+000000000+000000442+0000003590+0000000008+I20000000000+0000003590+Z
116761001116761080-000124     116761006003000297733CARD & ENV VALENTINES  0000001000+00001578+00000+0001T   00001578+0000001432          1400 N18112               2AZ
116761002116761077-000303     116761006001023593757GIFT-BAG PAPER MED     0000001000+00001578+00000+0001T   00001578+0000001432          1400 N18112               2AZ
116762000116762               116762               170213MH     1400+00000+MH0000001578+0000001578+000000000+000000221+0000001790+0000000009+I20000000000+0000001790+Z
116762001116762077-000303     116762006001023593757GIFT-BAG PAPER MED     0000001000+00001578+00000+0001T   00001578+0000001433          1400 N18112               2AZ
116763000116763               116763               170213MH     1400+00000+MH0000028049+0000028049+000000000+000003929+0000031978+0000000000+I40000031978+0000000000+Z
116763001116763112-116038     116763006009681820246TCS CARRIER BAG MIDI   0000001000+00000035+00000+0001T   00000035+0000001439          1400 N18090               2AZ
116763002116763567-075490     116763009780799377583BK NOVEL ROMANCE AFR   0000002000+00003507+00000+0001T   00003507+0000001439          1400 N18757               2AZ
116763003116763366-000450     116763006003000653386DRESS UP HEADBAND ASSTD0000001000+00002630+00000+0001T   00002630+0000001439          1400 N18131               2AZ
116763004116763903-000194     116763006009826020616SWT CHOC RP LOLLY 25G  0000001000+00001314+00000+0001T   00001314+0000001439          1400 N18150               2AZ
116763005116763903-000183     116763006003000451043SWT LB HEART LOLLY     0000001000+00000393+00000+0001T   00000393+0000001439          1400 N18150               2AZ
116763006116763001-091415     116763006003000329113W/GLS OCC. LOVE 2PC 2800000001000+00008771+00000+0001T   00009648+0006471439          1400 N18515               2AZ
116763007116763088-000107     116763006001023555823DIFFUSER SET FLOWER    0000001000+00004385+00000+0001T   00004385+0000001439          1400 N18212               2AZ
116763008116763031-000923     116763006001023669933P/FRAME BLK W/WORDS    0000001000+00003507+00000+0001T   00003507+0000001439          1400 N18510               2AZ
116764000116764               116764               170213MH     1400+00000+MH0000008771+0000008771+000000000+000001228+0000009990+0000000009+I20000000000+0000009990+Z
116764001116764019-000040     116764006001023673640VASE GLS 30CM CYLINDER 0000001000+00008771+00000+0001T   00008771+0000001439          1400 N18510               2AZ
116765000116765               116765               170213MH     1400+00000+MH0000028014-0000028014-000000000+000003924-0000031938-0000000000+I40000031938-0000000000+Z
116765001116765001-091415     116765006003000329113W/GLS OCC. LOVE 2PC 2800000001000-00008771+00000+0001T   00009648+0006471444          1400 N185151IC            2 Z
116765003116765088-000107     116765006001023555823DIFFUSER SET FLOWER    0000001000-00004385+00000+0001T   00004385+0000001444          1400 N182121IC            2 Z
116765004116765567-075490     116765009780799377088BK NOVEL ROMANCE AFR   0000001000-00003507+00000+0001T   00003507+0000001444          1400 N187571IC            2 Z
116765005116765366-000450     116765006003000653386DRESS UP HEADBAND ASSTD0000001000-00002630+00000+0001T   00002630+0000001444          1400 N181311IC            2 Z
116765006116765031-000923     116765006001023669933P/FRAME BLK W/WORDS    0000001000-00003507+00000+0001T   00003507+0000001444          1400 N185101IC            2 Z
116765007116765567-075490     116765009780799377583BK NOVEL ROMANCE AFR   0000001000-00003507+00000+0001T   00003507+0000001444          1400 N187571IC            2 Z
116765008116765903-000183     116765006003000451043SWT LB HEART LOLLY     0000001000-00000393+00000+0001T   00000393+0000001444          1400 N181501IC            2 Z
116765009116765903-000194     116765006009826020616SWT CHOC RP LOLLY 25G  0000001000-00001314+00000+0001T   00001314+0000001444          1400 N181501IC            2 Z
116766000116766               116766               170213MH     1400+00000+MH0000017497+0000017497+000000000+000002453+0000019950+0000000000+I40000019950+0000000000+Z
116766001116766077-000010-R   116766006001023123916CREPE-PAPER CANARY-YELL0000001000+00000788+00000+0001T   00000788+0000001447          1400 N18112               2AZ
116766002116766159-000653     116766006001023688859BATH-SPONGE MESH W/ROPE0000001000+00001753+00000+0001T   00001753+0000001447          1400 N18200               2AZ
116766003116766366-002006     116766006001023902696DRESS UP WIGS PARTY ASS0000001000+00007016+00000+0001T   00007016+0000001447          1400 N18131               2AZ
116766004116766366-000900     116766006003000006960DRESS UP WINGS BUG     0000001000+00006139+00000+0001T   00006139+0000001447          1400 N18131               2AZ
116766005116766565-000859     116766006001023691361SUNGLASSES GIANT       0000001000+00001753+00000+0001T   00001753+0000001447          1400 N18745               2AZ
116766006116766112-116069     116766006009681820277TCS CARRIER BAG JUMBO  0000001000+00000048+00000+0001T   00000048+0000001447          1400 N18090               2AZ
116767000116767               116767               170213MH     1400+00000+MH0000031379+0000031379+000000000+000004396+0000035775+0000000000+I40000035775+0000000000+Z
116767001116767112-116038     116767006009681820246TCS CARRIER BAG MIDI   0000001000+00000035+00000+0001T   00000035+0000001453          1400 N18090               2AZ
116767002116767567-010542     116767009781743461761PIXIE HELLO KITTY ASSTD0000001000+00000700+00000+0001T   00000876+0008131453          1400 N18757               2AZ
116767003116767567-010583     116767009780755442164BOOK READER ANIMAL     0000001000+00002630+00000+0001T   00003069+0008131453          1400 N18757               2AZ
116767004116767088-000107     116767006001023555823DIFFUSER SET FLOWER    0000001000+00004385+00000+0001T   00004385+0000001453          1400 N18212               2AZ
116767005116767001-091415     116767006003000329113W/GLS OCC. LOVE 2PC 2800000001000+00008771+00000+0001T   00009648+0006471453          1400 N18515               2AZ
116767006116767903-000194     116767006009826020616SWT CHOC RP LOLLY 25G  0000001000+00001314+00000+0001T   00001314+0000001453          1400 N18150               2AZ
116767007116767567-075490     116767009780799377583BK NOVEL ROMANCE AFR   0000001000+00003507+00000+0001T   00003507+0000001453          1400 N18757               2AZ
116767008116767031-000923     116767006001023669933P/FRAME BLK W/WORDS    0000001000+00003507+00000+0001T   00003507+0000001453          1400 N18510               2AZ
116767009116767366-000450     116767006003000653386DRESS UP HEADBAND ASSTD0000001000+00002630+00000+0001T   00002630+0000001453          1400 N18131               2AZ
116767010116767567-075490     116767009780799377088BK NOVEL ROMANCE AFR   0000001000+00003507+00000+0001T   00003507+0000001453          1400 N18757               2AZ
116767011116767903-000183     116767006003000451043SWT LB HEART LOLLY     0000001000+00000393+00000+0001T   00000393+0000001453          1400 N18150               2AZ
116768000116768               116768               170213MH     1400+00000+MH0000006139+0000006139+000000000+000000860+0000006999+0000000000+I40000006999+0000000000+Z
116768001116768366-001101     116768006003000006991DRESS UP BOYS ASSTD    0000001000+00006139+00000+0001T   00006139+0000001500          1400 N18131               2AZ
116769000116769               116769               170213MH     1400+00000+MH0000003857+0000003857+000000000+000000540+0000004390+0000000007+I20000000000+0000004390+Z
116769001116769903-000159     116769006003000417629SWT LB SMALL DUMMIE    0000001000+00000350+00000+0001T   00000350+0000001501          1400 N18150               2AZ
116769002116769262-000616     116769006001023708991CARS MDC 8PCE CITY     0000001000+00003507+00000+0001T   00003507+0000001501          1400 N18710               2AZ
116770000116770               116770               170213MH     1400+00000+MH0000003507+0000003507+000000000+000000491+0000003990+0000000008+I20000000000+0000003990+Z
116770001116770072-020278     116770006003000024100PET CAT LITTER PAN PL  0000001000+00003507+00000+0001T   00003507+0000001508          1400 N18870               2AZ
116771000116771               116771               170213MH     1400+00000+MH0000013703+0000013703+000000000+000001924+0000015627+0000000000+I40000015627+0000000000+Z
116771001116771112-116038     116771006009681820246TCS CARRIER BAG MIDI   0000001000+00000035+00000+0001T   00000035+0000001532          1400 N18090               2AZ
116771002116771903-000155     116771006009803374435SWT LOLLY I LUV U HEART0000005000+00000525+00000+0001T   00000525+0000001532          1400 N18150               2AZ
116771003116771903-000861     116771005010478430822SWT LOVE HEARTS SML    0000003000+00000876+00000+0001T   00000876+0000001532          1400 N18150               2AZ
116771004116771071-000874     116771006003000010110RUB-BANDS PLN BAG-30   0000001000+00000525+00000+0001T   00000525+0000001532          1400 N18130               2AZ
116771005116771079-013098     116771006003000197040ART+CRAFT SET DIY      0000002000+00003069+00000+0001T   00003069+0000001532          1400 N18130               2AZ
116771006116771071-081091     116771006001151010287STAED/GENKEM ALL-STICK 0000001000+00001227+00000+0001T   00001227+0000001532          1400 N18130               2AZ
116771007116771071-000874     116771006003000010110RUB-BANDS PLN BAG-30   0000001000+00000525+00000+0001T   00000525+0000001532          1400 N18130               2AZ
116772000116772               116772               170213MH     1400+00000+MH0000009908+0000009908+000000000+000001388+0000011290+0000000006+I20000000000+0000011290+Z
116772001116772301-085001     116772006003000297610ORN WATERBALL LOVE ASST0000001000+00004823+00000+0001T   00004823+0000001547          1400 N18505               2AZ
116772002116772077-000303     116772006001023593757GIFT-BAG PAPER MED     0000001000+00001578+00000+0001T   00001578+0000001547          1400 N18112               2AZ
116772003116772018-000136     116772006001023659026MUG OCC LOVE W/PLUSH   0000001000+00003507+00000+0001T   00003507+0000001547          1400 N18515               2AZ
116773000116773               116773               170213MH     1400+00000+MH0000008769+0000008769+000000000+000001229+0000009990+0000000008+I20000000000+0000009990+Z
116773001116773031-000870-C   116773006001023798688P/FRAME WOOD WHITE-PINE0000001000+00006139+00000+0001T   00006139+0000001548          1400 N18510               2AZ
116773002116773077-000270     116773006003000395453GIFT-BAG PPR JMB 33X45 0000001000+00002630+00000+0001T   00002630+0000001548          1400 N18112               2AZ
116774000116774               116774               170213MH     1400+00000+MH0000002192+0000002192+000000000+000000307+0000002490+0000000009+I20000000000+0000002490+Z
116774001116774366-002695     116774006003000222766DRESS UP HAT ROUND GLIT0000001000+00002192+00000+0001T   00002192+0000001549          1400 N18131               2AZ
116775000116775               116775               170213MH     1400+00000+MH0000003506+0000003506+000000000+000000492+0000003990+0000000008+I20000000000+0000003990+Z
116775001116775080-000110     116775006003000237326CARD&ENVLPE BDAY-FUNNY 0000001000+00001753+00000+0001T   00001753+0000001602          1400 N18112               2AZ
116775002116775200-000090     116775006001023802200PICNIC-PLATES SET-10   0000001000+00001753+00000+0001T   00001753+0000001602          1400 N18214               2AZ
116776000116776               116776               170213MH     1400+00000+MH0000002630+0000002630+000000000+000000369+0000002990+0000000009+I20000000000+0000002990+Z
116776001116776031-000846     116776006001023851840P/FRAME PL BLK/SILV    0000001000+00002630+00000+0001T   00002630+0000001607          1400 N18510               2AZ
116777000116777               116777               170213MH     1400+00000+MH0000008800+0000008800+000000000+000001235+0000010030+0000000005+I20000000000+0000010030+Z
116777001116777007-000043     116777006009635831496DISPLAY-BOOK PL A4 20PG0000005000+00001753+00000+0001T   00001753+0000001616          1400 N18130               2AZ
116777002116777112-116038     116777006009681820246TCS CARRIER BAG MIDI   0000001000+00000035+00000+0001T   00000035+0000001616          1400 N18090               2AZ
116778000116778               116778               170213MH     1400+00000+MH0000007890+0000007890+000000000+000001107+0000008990+0000000007+I20000000000+0000008990+Z
116778001116778056-065303     116778006001023821041SUN-SHIELD 2PCE ANIMAL 0000002000+00002630+00000+0001T   00002630+0000001626          1400 N18860               2AZ
116778002116778076-001001     116778006003000266715CORD STRETCH 2-CL 120cm0000001000+00002630+00000+0001T   00002630+0000001626          1400 N18810               2AZ
116779000116779               116779               170213MH     1400+00000+MH0000002014+0000002014+000000000+000000282+0000002290+0000000006+I20000000000+0000002290+Z
116779001116779018-000177     116779006001023797513MUG MINI LOVE ASSTD    0000001000+00000700+00000+0001T   00000700+0000001652          1400 N18515               2AZ
116779002116779903-000194     116779006009826020616SWT CHOC RP LOLLY 25G  0000001000+00001314+00000+0001T   00001314+0000001652          1400 N18150               2AZ
116780000116780               116780               170213MH     1400+00000+MH0000004064+0000004064+000000000+000000570+0000004634+0000000000+I40000004634+0000000000+Z
116780001116780018-000177     116780006001023797513MUG MINI LOVE ASSTD    0000001000+00000700+00000+0001T   00000700+0000001706          1400 N18515               2AZ
116780002116780903-000194     116780006009826020616SWT CHOC RP LOLLY 25G  0000001000+00001314+00000+0001T   00001314+0000001706          1400 N18150               2AZ
116780003116780903-000094     116780006923431501622SWT GS CANDY NECKLACE  0000001000+00000437+00000+0001T   00000437+0000001706          1400 N18150               2AZ
116780004116780080-000124     116780006003000297733CARD & ENV VALENTINES  0000001000+00001578+00000+0001T   00001578+0000001706          1400 N18112               2AZ
116780005116780112-116038     116780006009681820246TCS CARRIER BAG MIDI   0000001000+00000035+00000+0001T   00000035+0000001706          1400 N18090               2AZ
116781000116781               116781               170213MH     1400+00000+MH0000024576+0000024576+000000000+000003450+0000028026+0000000000+I40000028026+0000000000+Z
116781001116781112-116038     116781006009681820246TCS CARRIER BAG MIDI   0000001000+00000035+00000+0001T   00000035+0000001729          1400 N18090               2AZ
116781002116781084-000369     116781006003000594467NAIL MANICURE SET 6PCE 0000001000+00006139+00000+0001T   00006139+0000001729          1400 N18200               2AZ
116781003116781077-000245     116781006001023759214GIFT-RIBBON METALLICx2 0000002000+00001227+00000+0001T   00001227+0000001729          1400 N18112               2AZ
116781004116781077-000349-B   116781006001023908315G/RIBBON 3ROLLS 12BOWS 0000001000+00002630+00000+0001T   00002630+0000001729          1400 N18112               2AZ
116781005116781077-000251     116781006003000639106GIFT-DECOR RIBBON      0000001000+00002630+00000+0001T   00002630+0000001729          1400 N18112               2AZ
116781006116781006-000120     116781006001023346889BALLOONS 10PC MIX COL  0000002000+00001753+00000+0001T   00001753+0000001729          1400 N18131               2AZ
116781007116781903-000095     116781006001704011495SWT SPECKLED-EGGS 100G 0000001000+00002104+00000+0001T   00002104+0000001729          1400 N18150               2AZ
116781008116781006-000120     116781006001023346889BALLOONS 10PC MIX COL  0000001000+00001753+00000+0001T   00001753+0000001729          1400 N18131               2AZ
116781009116781306-000021-C   116781006003000567294EARBUDS 300PCE IN TUB  0000001000+00001753+00000+0001T   00001753+0000001729          1400 N18200               2AZ
116781010116781903-000183     116781006003000451043SWT LB HEART LOLLY     0000004000+00000393+00000+0001T   00000393+0000001729          1400 N18150               2AZ
116782000116782               116782               170213MH     1400+00000+MH0000003156+0000003156+000000000+000000442+0000000000+0000000000+ 00000000000+0000000000+Z
116782001116782083-000054     116782006001023729071LIGHTER REFILLABLE LED 0000002000+00001578+00000+0001T   00001578+000000              1400 N183151IC            2 Z
116783000116783               116783               170213MH     1400+00000+MH0000008239+0000008239+000000000+000001155+0000009390+0000000004+I20000000000+0000009390+Z
116783001116783083-000055     116783006003000003853LIGHTER ELCTRNC REFILBL0000002000+00000613+00000+0001T   00000613+0000001738          1400 N18315               2AZ
116783002116783018-000136     116783006001023659026MUG OCC LOVE W/PLUSH   0000001000+00003507+00000+0001T   00003507+0000001738          1400 N18515               2AZ
116783003116783903-000912     116783006009802868461SWT GUM TAPE HOT WHEELS0000001000+00001753+00000+0001T   00001753+0000001738          1400 N18150               2AZ
116783004116783903-000908     116783006009802868331SWT YOYO HOT WHEELS    0000001000+00001753+00000+0001T   00001753+0000001738          1400 N18150               2AZ
116784000116784               116784               170213MH     1400+00000+MH0000016008+0000016008+000000000+000002243+0000018250+0000000001+I20000000000+0000018250+Z
116784001116784080-000127     116784006003000424351VALENTINES DAY 36x24CM 0000001000+00002192+00000+0001T   00002192+0000001740          1400 N18112               2AZ
116784002116784019-071610     116784006001023904560PEBBLES WATER GEMS 10g 0000001000+00001490+00000+0001T   00001490+0000001740          1400 N18510               2AZ
116784003116784301-085007     116784006003000673698ORN OCC. LOVE S/PLAQUE 0000001000+00007893+00000+0001T   00007893+0000001740          1400 N18505               2AZ
116784004116784019-000070     116784006003000297474VASE GLS CLEAR BOTTLE  0000001000+00004385+00000+0001T   00004385+0000001740          1400 N18510               2AZ
116784005116784112-116069     116784006009681820277TCS CARRIER BAG JUMBO  0000001000+00000048+00000+0001T   00000048+0000001740          1400 N18090               2AZ
B11676500                                          170213MH001-091415     14403089SLAVE 2     N181IC0000002000+0000001000+0000000000000+
C11676500                                          170213MH567-010583     14423223SLAVE 2     N181IC0000000000+0000000000+0020000001000-
M17021391                              CASH        MHSLAVE 2                       Z-REPORT No.   551TOTAL (Sales - Refunds)           4488.24       CASH TO BE BANKED                 2132.20       DEBIT CARDS                          0.00       CREDIT CARDS                      2356.04       Z-READING                         4488.24       AIRTIME DEBIT CARD SALES             0.00       AIRTIME CARD SALES                   0.00       OVERS/UNDERS                         0.00       AIRTIME CASH SALES                   0.00       GIFT CARDS                           0.00       GIFT CARD CASH SALES                 0.00       T O T A L  CASH PAYOUTS              0.00                                                                                                                                                                                                                                                                                                                                                      Z
M17021392                              CASH        MHABSENT                                                                                                                                                                                          ANNUAL LEAVE                                                                                                                                                                                    DAY OFF                                                                                                                                                                                         COMMENTS                                                                                                                                                                                                                                                                                                                                                                                       Z
Y17021300                                          MH00000000421816+000039
ZMH17021321243 SLAVE 2      SALES DATA                     NEXT INVOICE NO.  116785 0551
X MH Slave 2 First invoice 116744 170213 Last invoice 116784 170213 Next invoice 116785 Total number of records 000000203 clbackup completed 21:24:09
