101172000101172               101172               170213MI     1400+00000+MI0000003506+0000003506+000000000+000000492+0000003990+0000000008+I20000000000+0000003990+Z
101172001101172078-000020     101172008887013700071YAMAYO CONTACT-CEMENT  0000002000+00001753+00000+0001T   00001753+0000000914          1400 SM6810               1AZ
101173000101173               101173               170213MI     1400+00000+MI0000000700+0000000700+000000000+000000098+0000000790+0000000008+I20000000000+0000000790+Z
101173001101173018-000177     101173006001023797513MUG MINI LOVE ASSTD    0000001000+00000700+00000+0001T   00000700+0000000915          1400 SM6515               1AZ
101174000101174               101174               170213MI     1400+00000+MI0000001402+0000001402+000000000+000000197+0000001590+0000000009+I20000000000+0000001590+Z
101174001101174027-009030     101174006002814400100DUSTPAN PL             0000001000+00001402+00000+0001T   00001402+0000001029          1400 SM6212               1AZ
101175000101175               101175               170213MI     1400+00000+MI0000001262+0000001262+000000000+000000177+0000001430+0000000009+I20000000000+0000001430+Z
101175001101175266-001308     101175006001023686978MARBLES 45PC L/E       0000001000+00001227+00000+0001T   00001227+0000001034          1400 SM6710               1AZ
101175002101175112-116038     101175006009681820246TCS CARRIER BAG MIDI   0000001000+00000035+00000+0001T   00000035+0000001034          1400 SM6090               1AZ
101176000101176               101176               170213MI     1400+00000+MI0000008057+0000008057+000000000+000001131+0000009188+0000000000+I40000009188+0000000000+Z
101176001101176006-001000     101176006003000093779HELIUM BALLOON FILL    0000006000+00000613+00000+0001T   00000613+0000001040          1400 SM6131               1AZ
101176002101176006-000172-H   101176006003000610211BALLOONS METALLIC RED  0000002000+00000218+00000+0001T   00000218+0000001040          1400 SM6131               1AZ
101176003101176006-000172-A   101176006003000609765BALLOONS METALLIC PINK 0000002000+00000218+00000+0001T   00000218+0000001040          1400 SM6131               1AZ
101176004101176018-000136     101176006001023659026MUG OCC LOVE W/PLUSH   0000001000+00003507+00000+0001T   00003507+0000001040          1400 SM6515               1AZ
101177000101177               101177               170213MI     1400+00000+MI0000017359+0000017359+000000000+000002431+0000019790+0000000000+I20000000000+0000019790+Z
101177001101177903-000844     101177005010478432567SWT CANDY DL LUV HEARTS0000002000+00001314+00000+0001T   00001314+0000001202          1400 SM6150               1AZ
101177002101177001-091415     101177006003000329113W/GLS OCC. LOVE 2PC 2800000001000+00008771+00000+0001T   00009648+0006471202          1400 SM6515               1AZ
101177003101177018-000136     101177006001023659026MUG OCC LOVE W/PLUSH   0000001000+00003507+00000+0001T   00003507+0000001202          1400 SM6515               1AZ
101177004101177018-000177     101177006001023797513MUG MINI LOVE ASSTD    0000001000+00000700+00000+0001T   00000700+0000001202          1400 SM6515               1AZ
101177005101177077-000299-A   101177006003000670888GIFT-BAG PAPER JMB LOVE0000001000+00001753+00000+0001T   00001753+0000001202          1400 SM6112               1AZ
101178000101178               101178               170213MI     1400+00000+MI0000003541+0000003541+000000000+000000497+0000004038+0000000000+I40000004038+0000000000+Z
101178001101178079-013032-B   101178006003000389445MIXED SHAPES           0000001000+00001753+00000+0001T   00001753+0000001314          1400 SM61301IC            1AZ
101178002101178301-085002     101178006003000420704ORN OCC. LOVE BELL ASST0000001000+00001753+00000+0001T   00002630+0008121314          1400 SM6505               1AZ
101178003101178112-116038     101178006009681820246TCS CARRIER BAG MIDI   0000001000+00000035+00000+0001T   00000035+0000001314          1400 SM6090               1AZ
101179000101179               101179               170213MI     1400+00000+MI0000001139+0000001139+000000000+000000160+0000001290+0000000009+I20000000000+0000001290+Z
101179001101179046-000014     101179006001023725387BATTERIES SIZE:AAA 4PCE0000001000+00001139+00000+0001T   00001139+0000001315          1400 SM6312               1AZ
101180000101180               101180               170213MI     1400+00000+MI0000003507+0000003507+000000000+000000491+0000003990+0000000008+I20000000000+0000003990+Z
101180001101180018-000136     101180006001023659026MUG OCC LOVE W/PLUSH   0000001000+00003507+00000+0001T   00003507+0000001319          1400 SM6515               1AZ
101181000101181               101181               170213MI     1400+00000+MI0000003542+0000003542+000000000+000000496+0000004030+0000000008+I20000000000+0000004030+Z
101181001101181018-000136     101181006001023659026MUG OCC LOVE W/PLUSH   0000001000+00003507+00000+0001T   00003507+0000001327          1400 SM6515               1AZ
101181002101181112-116038     101181006009681820246TCS CARRIER BAG MIDI   0000001000+00000035+00000+0001T   00000035+0000001327          1400 SM6090               1AZ
101182000101182               101182               170213MI     1400+00000+MI0000008464+0000008464+000000000+000001186+0000009650+0000000000+I20000000000+0000009650+Z
101182001101182016-006514     101182006003000295432S/JAR EMBOSSED 500ML   0000001000+00001753+00000+0001T   00001753+0000001420          1400 SM6300               1AZ
101182002101182077-000303     101182006001023593757GIFT-BAG PAPER MED     0000002000+00001578+00000+0001T   00001578+0000001420          1400 SM6112               1AZ
101182003101182018-000136     101182006001023659026MUG OCC LOVE W/PLUSH   0000001000+00003507+00000+0001T   00003507+0000001420          1400 SM6515               1AZ
101182004101182112-116069     101182006009681820277TCS CARRIER BAG JUMBO  0000001000+00000048+00000+0001T   00000048+0000001420          1400 SM6090               1AZ
101183000101183               101183               170213MI     1400+00000+MI0000008768+0000008768+000000000+000001228+0000009996+0000000000+I40000009996+0000000000+Z
101183001101183077-000509     101183006003000082582GIFT-BAG SML 6PCE ORG P0000004000+00002192+00000+0001T   00002192+0000001423          1400 SM6112               1AZ
101184000101184               101184               170213MI     1400+00000+MI0000003331+0000003331+000000000+000000467+0000003798+0000000000+I40000003798+0000000000+Z
101184001101184077-000303     101184006001023593757GIFT-BAG PAPER MED     0000001000+00001578+00000+0001T   00001578+0000001515          1400 SM6112               1AZ
101184002101184077-000908     101184006003000410927G/WRAP 700mmx1m FLOWER 0000001000+00001753+00000+0001T   00001753+0000001515          1400 SM6112               1AZ
101185000101185               101185               170213MI     1400+00000+MI0000013005+0000013005+000000000+000001823+0000014820+0000000008+I20000000000+0000014820+Z
101185001101185261-000121     101185006001023341600GUN-CAPS 8-SHOT CARD-9 0000003000+00000700+00000+0001T   00000700+0000001523          1400 SM6710               1AZ
101185002101185261-008552     101185006001023832580CAP-GUN           ASSTD0000001000+00007016+00000+0001T   00007016+0000001523          1400 SM6710               1AZ
101185003101185903-000151     101185006009803374411SWT SML RND R/BOW LOLLY0000001000+00000525+00000+0001T   00000525+0000001523          1400 SM6150               1AZ
101185004101185903-000619     101185006003000672455SWT LOLLY STR/BRRY 140G0000001000+00001753+00000+0001T   00001753+0000001523          1400 SM6150               1AZ
101185005101185018-000177     101185006001023797513MUG MINI LOVE ASSTD    0000001000+00000700+00000+0001T   00000700+0000001523          1400 SM6515               1AZ
101185006101185077-000302     101185008010410010195GIFT-BAG 18X23CM E/D   0000001000+00000876+00000+0001T   00000876+0000001523          1400 SM6112               1AZ
101185007101185112-116038     101185006009681820246TCS CARRIER BAG MIDI   0000001000+00000035+00000+0001T   00000035+0000001523          1400 SM6090               1AZ
101186000101186               101186               170213MI     1400+00000+MI0000003505+0000003505+000000000+000000491+0000003990+0000000006+I20000000000+0000003990+Z
101186001101186018-000177     101186006001023797513MUG MINI LOVE ASSTD    0000001000+00000700+00000+0001T   00000700+0000001524          1400 SM6515               1AZ
101186002101186077-000245     101186006001023759214GIFT-RIBBON METALLICx2 0000001000+00001227+00000+0001T   00001227+0000001524          1400 SM6112               1AZ
101186003101186077-000348     101186006001023483287GIFT-BOWS 4,5cm 8PCE   0000001000+00001578+00000+0001T   00001578+0000001524          1400 SM6112               1AZ
101187000101187               101187               170213MI     1400+00000+MI0000012622+0000012622+000000000+000001771+0000014393+0000000000+I40000014393+0000000000+Z
101187001101187368-000040     101187006003000671786PLUSH ICONS 7.5cm      0000002000+00002630+00000+0001T   00002630+0000001526          1400 SM6745               1AZ
101187002101187077-000011-D   101187006001023808554TISSUE-WRAP WHITE 10PCE0000001000+00000876+00000+0001T   00000876+0000001526          1400 SM6112               1AZ
101187003101187077-000382     101187006003000247820GIFT-BAG MED 18X23CM   0000002000+00001753+00000+0001T   00001753+0000001526          1400 SM6112               1AZ
101187004101187565-004101     101187006003000548033BALL BOUNCING EGG      0000002000+00001490+00000+0001T   00001490+0000001526          1400 SM6745               1AZ
101188000101188               101188               170213MI     1400+00000+MI0000004385+0000004385+000000000+000000614+0000004999+0000000000+I40000004999+0000000000+Z
101188001101188158-008937     101188006003000571642TOILET ROLL HOLDER     0000001000+00004385+00000+0001T   00004385+0000001532          1400 SM6300               1AZ
101189000101189               101189               170213MI     1400+00000+MI0000012277+0000012277+000000000+000001720+0000013997+0000000000+I40000013997+0000000000+Z
101189001101189368-000665     101189006003000169016PLUSH BEAR 30cm        0000001000+00008771+00000+0001T   00008771+0000001533          1400 SM6745               1AZ
101189002101189903-000624     101189006003000671793SWEET LOLLY BLU/BRRY   0000001000+00001753+00000+0001T   00001753+0000001533          1400 SM6150               1AZ
101189003101189077-000309     101189006001023608604GIFT-BAG 25X32CM GLOSS 0000001000+00001753+00000+0001T   00001753+0000001533          1400 SM6112               1AZ
101190000101190               101190               170213MI     1400+00000+MI0000005259+0000005259+000000000+000000738+0000005990+0000000007+I20000000000+0000005990+Z
101190001101190466-064838     101190006001023835031BALLS MASSAGE 8cm SET-30000003000+00001753+00000+0001T   00001753+0000001534          1400 SM6785               1AZ
101191000101191               101191               170213MI     1400+00000+MI0000046523+0000046523+000000000+000006518+0000000000+0000000000+ 00000000000+0000000000+Z
101191001101191112-116069     101191006009681820277TCS CARRIER BAG JUMBO  0000001000+00000048+00000+0001T   00000048+000000              1400 SM60901IC            1 Z
101191002101191560-000243     101191006001023622655ANIMALS OCEAN PLAY SET 0000003000+00006139+00000+0001T   00006139+000000              1400 SM67451IC            1 Z
101191003101191903-000095     101191006001704011495SWT SPECKLED-EGGS 100G 0000005000+00002104+00000+0001T   00002104+000000              1400 SM61501IC            1 Z
101191004101191301-002020     101191006001023753328ORN S/BOAT 22X18CM ASST0000001000+00008771+00000+0001T   00008771+000000              1400 SM65051IC            1 Z
101191005101191082-000384     101191006003000329854SPECTACLE CASE W/HNDLES0000001000+00001753+00000+0001T   00002192+000812              1400 SM61601IC            1 Z
101191006101191560-000116     101191006003000592111ANIMALS FUNNY ANIMALS  0000002000+00003507+00000+0001T   00003507+000000              1400 SM67451IC            1 Z
101192000101192               101192               170213MI     1400+00000+MI0000004385+0000004385+000000000+000000614+0000004990+0000000009+I20000000000+0000004990+Z
101192001101192368-000001     101192006003000097982Plush Bear 25cm        0000001000+00004385+00000+0001T   00004385+0000001632          1400 SM6745               1AZ
101193000101193               101193               170213MI     1400+00000+MI0000002103+0000002103+000000000+000000295+0000002390+0000000008+I20000000000+0000002390+Z
101193001101193077-000011-D   101193006001023808554TISSUE-WRAP WHITE 10PCE0000001000+00000876+00000+0001T   00000876+0000001641          1400 SM6112               1AZ
101193002101193077-000245     101193006001023759214GIFT-RIBBON METALLICx2 0000001000+00001227+00000+0001T   00001227+0000001641          1400 SM6112               1AZ
101194000101194               101194               170213MI     1400+00000+MI0000007014+0000007014+000000000+000000982+0000007996+0000000000+I40000007996+0000000000+Z
101194001101194031-000002-A   101194006003000247103P/FRAME LOVE 7.5X7.5CM 0000002000+00003507+00000+0001T   00003507+0000001644          1400 SM6510               1AZ
101195000101195               101195               170213MI     1400+00000+MI0000001402+0000001402+000000000+000000197+0000001590+0000000009+I20000000000+0000001590+Z
101195001101195304-001204     101195006001023737984FLOWER OCC. TEDDY/ROSES0000001000+00001402+00000+0001T   00001490+0006471649          1400 SM6510               1AZ
101196000101196               101196               170213MI     1400+00000+MI0000001490+0000001490+000000000+000000209+0000001699+0000000000+I40000001699+0000000000+Z
101196001101196077-000299     101196006003000395576G/BAG 32x25cm LRG LOVE 0000001000+00001490+00000+0001T   00001490+0000001706          1400 SM6112               1AZ
101197000101197               101197               170213MI     1400+00000+MI0000002278+0000002278+000000000+000000319+0000002597+0000000000+I40000002597+0000000000+Z
101197001101197018-000177     101197006001023797513MUG MINI LOVE ASSTD    0000001000+00000700+00000+0001T   00000700+0000001710          1400 SM6515               1AZ
101197002101197080-000124     101197006003000297733CARD & ENV VALENTINES  0000001000+00001578+00000+0001T   00001578+0000001710          1400 SM6112               1AZ
101198000101198               101198               170213MI     1400+00000+MI0000002189+0000002189+000000000+000000308+0000002490+0000000007+I20000000000+0000002490+Z
101198001101198083-000049     101198004891035200024CIG-LIGHTER DISPOSABLE 0000001000+00000437+00000+0001T   00000437+0000001711          1400 SM6315               1AZ
101198002101198078-000025     101198008887013700064SUPERGLUE 3g 1PCE CARD 0000002000+00000876+00000+0001T   00000876+0000001711          1400 SM6810               1AZ
101199000101199               101199               170213MI     1400+00000+MI0000006311+0000006311+000000000+000000886+0000007190+0000000007+I20000000000+0000007190+Z
101199001101199200-003024     101199006001023657299REFUSE BAGS 20PCE BLACK0000001000+00001753+00000+0001T   00001753+0000001723          1400 SM6214               1AZ
101199002101199107-004105     101199006002923010504BUCKET 9L OPEN         0000001000-00001314+00000+0001T   00001314+0000001723          1400 SM62101IC            1 Z
101199003101199027-000194     101199006001246602472MOP COMPLETE           0000001000+00002279+00000+0001T   00002279+0000001723          1400 SM6212               1AZ
101199004101199027-001020     101199006001246602519BROOM FLOOR W/HANDLE   0000001000+00002279+00000+0001T   00002279+0000001723          1400 SM6212               1AZ
101199005101199107-004105     101199006002923010504BUCKET 9L OPEN         0000001000+00001314+00000+0001T   00001314+0000001723          1400 SM6210               1AZ
101200000101200               101200               170213MI     1400+00000+MI0000003542+0000003542+000000000+000000496+0000004030+0000000008+I20000000000+0000004030+Z
101200001101200018-005009     101200006001023725608MUG W/PLUSH-BEAR LOVE  0000001000+00003507+00000+0001T   00003507+0000001737          1400 SM6515               1AZ
101200002101200112-116038     101200006009681820246TCS CARRIER BAG MIDI   0000001000+00000035+00000+0001T   00000035+0000001737          1400 SM6090               1AZ
101201000101201               101201               170213MI     1400+00000+MI0000012279+0000012279+000000000+000001720+0000013990+0000000009+I20000000000+0000013990+Z
101201001101201368-000111     101201006001023780812PLUSH BEAR/DOG 29CM    0000001000+00012279+00000+0001T   00012279+0000001740          1400 SM6745               1AZ
101202000101202               101202               170213MI     1400+00000+MI0000013639+0000013639+000000000+000001911+0000015550+0000000000+I40000015550+0000000000+Z
101202001101202018-000136     101202006001023659026MUG OCC LOVE W/PLUSH   0000001000+00003507+00000+0001T   00003507+0000001748          1400 SM6515               1AZ
101202002101202266-003012     101202006001023786128BOYS P/SET ARCHERY 4pc 0000001000+00002630+00000+0001T   00002630+0000001748          1400 SM6710               1AZ
101202003101202366-002195     101202006001023990549DRESS UP WINGS FEATHER 0000001000+00005262+00000+0001T   00005262+0000001748          1400 SM6131               1AZ
101202004101202080-000127     101202006003000424351VALENTINES DAY 36x24CM 0000001000+00002192+00000+0001T   00002192+0000001748          1400 SM6112               1AZ
101202005101202112-116069     101202006009681820277TCS CARRIER BAG JUMBO  0000001000+00000048+00000+0001T   00000048+0000001748          1400 SM6090               1AZ
A17021300                                          09195989MISLAVE 1                       SM61IC
A17021301                                          10192026MISLAVE 1                       SM61IC
A17021302                                          10445411MISLAVE 1                       SM61IC
A17021303                                          10475602MISLAVE 1                       SM61IC
B10117800                                          170213MI079-013032-B   13131816SLAVE 1     SM61IC0000002000+0000001000+0000000000000+
M17021391                              CASH        MISLAVE 1                       Z-REPORT No.   523TOTAL (Sales - Refunds)           1962.71       CASH TO BE BANKED                 1080.20       DEBIT CARDS                          0.00       CREDIT CARDS                       882.51       Z-READING                         1962.71       AIRTIME DEBIT CARD SALES             0.00       AIRTIME CARD SALES                   0.00       OVERS/UNDERS                         0.00       AIRTIME CASH SALES                   0.00       GIFT CARDS                           0.00       GIFT CARD CASH SALES                 0.00       T O T A L  CASH PAYOUTS              0.00                                                                                                                                                                                                                                                                                                                                                      Z
M17021392                              CASH        MIABSENT                                                                                                                                                                                          ANNUAL LEAVE                                                                                                                                                                                    DAY OFF                                                                                                                                                                                         COMMENTS                                                                                                          1962.71                                                                                                                                                                                                                                                                      Z
Y17021300                                          MI00000000173577+000030
ZMI17021320053 SLAVE 1      SALES DATA                     NEXT INVOICE NO.  101203 0523
X MI Slave 1 First invoice 101172 170213 Last invoice 101202 170213 Next invoice 101203 Total number of records 000000116 clbackup completed 20:05:53
