114411000114411               114411               170213MI     1400+00000+MI0000021963+0000021963+000000000+000003079+0000025042+0000000000+I40000025042+0000000000+Z
114411001114411071-003030     114411006003000006007PENS NOVELTY 2PCE      0000001000+00001753+00000+0001T   00001753+0000000922          1400 EM9130               2AZ
114411002114411089-060027     114411006003000245871KEY-CHAIN HEART 6X6cm  0000002000+00003069+00000+0001T   00003069+0000000922          1400 EM9205               2AZ
114411003114411304-001204     114411006001023737984FLOWER OCC. TEDDY/ROSES0000002000+00001402+00000+0001T   00001490+0006470922          1400 EM9510               2AZ
114411004114411903-000155     114411006009803374435SWT LOLLY I LUV U HEART0000002000+00000525+00000+0001T   00000525+0000000922          1400 EM9150               2AZ
114411005114411077-000303     114411006001023593757GIFT-BAG PAPER MED     0000002000+00001578+00000+0001T   00001578+0000000922          1400 EM9112               2AZ
114411006114411112-116069     114411006009681820277TCS CARRIER BAG JUMBO  0000001000+00000048+00000+0001T   00000048+0000000922          1400 EM9090               2AZ
114411007114411082-012779     114411006001492127798SUNGLASS KIDS WAYFARER 0000002000+00003507+00000+0001T   00003507+0000000922          1400 EM9160               2AZ
114412000114412               114412               170213MI     1400+00000+MI0000006139+0000006139+000000000+000000860+0000006990+0000000009+I20000000000+0000006990+Z
114412001114412030-004025     114412006003000416912WALL DEC KEY-RACK      0000001000+00006139+00000+0001T   00006139+0000000952          1400 EM9505               2AZ
114413000114413               114413               170213MI     1400+00000+MI0000011401+0000011401+000000000+000001597+0000012990+0000000008+I20000000000+0000012990+Z
114413001114413071-001124     114413006001023802873MARKERS WHITEBOARD 3PCE0000001000+00002630+00000+0001T   00002630+0000001002          1400 EM9130               2AZ
114413002114413007-010501     114413006003000455157WIPE & CHALK 45X35CM   0000001000+00008771+00000+0001T   00008771+0000001002          1400 EM9130               2AZ
114414000114414               114414               170213MI     1400+00000+MI0000000788+0000000788+000000000+000000111+0000000890+0000000009+I20000000000+0000000890+Z
114414001114414071-000001-A   114414006003000129607PENCIL LEAD 0.5mm  2PK 0000001000+00000788+00000+0001T   00000788+0000001011          1400 EM9130               2AZ
114415000114415               114415               170213MI     1400+00000+MI0000001753+0000001753+000000000+000000246+0000001990+0000000009+I20000000000+0000001990+Z
114415001114415200-003026     114415006003000276448REFUSE BAGS 10PCE GREEN0000001000+00001753+00000+0001T   00001753+0000001046          1400 EM9214               2AZ
114416000114416               114416               170213MI     1400+00000+MI0000006139+0000006139+000000000+000000860+0000006990+0000000009+I20000000000+0000006990+Z
114416001114416368-000265     114416006001023750914PLUSH BEAR 23CM ASSTD C0000001000+00006139+00000+0001T   00006139+0000001048          1400 EM9745               2AZ
114417000114417               114417               170213MI     1400+00000+MI0000002630+0000002630+000000000+000000369+0000002999+0000000000+I40000002999+0000000000+Z
114417001114417031-000878-D   114417006003000602476P/FRAME CERTIFICATE    0000001000+00002630+00000+0001T   00002630+0000001051          1400 EM9510               2AZ
114418000114418               114418               170213MI     1400+00000+MI0000029497+0000029497+000000000+000004139+0000033630+0000000006+I20000000000+0000033630+Z
114418001114418565-000889     114418006003000626953NOVELTY SPACE BALLOONS 0000001000+00001753+00000+0001T   00001753+0000001053          1400 EM9745               2AZ
114418002114418112-116069     114418006009681820277TCS CARRIER BAG JUMBO  0000001000+00000048+00000+0001T   00000048+0000001053          1400 EM9090               2AZ
114418003114418362-019375     114418006001023730664HAIR BAND SET 24PCE    0000001000+00000876+00000+0001T   00000876+0000001053          1400 EM9160               2AZ
114418004114418007-000676     114418006003000284689N/BOOK HOLOGRAM 3PK ASS0000001000+00002630+00000+0001T   00002630+0000001053          1400 EM9130               2AZ
114418005114418007-000184     114418006003000135424NOTEBOOK               0000001000+00001753+00000+0001T   00001753+0000001053          1400 EM9130               2AZ
114418006114418007-000555     114418006001023848239MEMO-PAD MINI LOVE     0000002000+00000613+00000+0001T   00000613+0000001053          1400 EM9130               2AZ
114418007114418007-000537     114418000651728791017NOTE-PAD RND SMILE-FACE0000001000+00000700+00000+0001T   00000700+0000001053          1400 EM9130               2AZ
114418008114418007-000555     114418006001023848239MEMO-PAD MINI LOVE     0000002000+00000613+00000+0001T   00000613+0000001053          1400 EM9130               2AZ
114418009114418007-000723     114418006003000226078MEMO BOOK W/PEN 100SHTS0000001000+00001753+00000+0001T   00001753+0000001053          1400 EM9130               2AZ
114418010114418206-000370     114418006003000631315STRAW P/DRINKING GLASS 0000002000+00001753+00000+0001T   00001753+0000001053          1400 EM9321               2AZ
114418011114418362-000315     114418006003000096008HAIR HEADBAND FLOWERS  0000002000+00001753+00000+0001T   00001753+0000001053          1400 EM9160               2AZ
114418012114418565-000041     114418006008766115642NOVELTY BALL ICON 5.5cm0000004000+00002630+00000+0001T   00002630+0000001053          1400 EM9745               2AZ
114419000114419               114419               170213MI     1400+00000+MI0000007012+0000007012+000000000+000000984+0000007990+0000000006+I20000000000+0000007990+Z
114419001114419200-003024     114419006001023657299REFUSE BAGS 20PCE BLACK0000002000+00001753+00000+0001T   00001753+0000001058          1400 EM9214               2AZ
114419002114419903-000211     114419006002099001238SWT GS MALLOW ICE CREAM0000002000+00001753+00000+0001T   00001753+0000001058          1400 EM9150               2AZ
114420000114420               114420               170213MI     1400+00000+MI0000017746+0000017746+000000000+000002487+0000020233+0000000000+I40000020233+0000000000+Z
114420001114420046-000030     114420006001023878120BATTERY-TESTER (15V+9V)0000001000+00005262+00000+0001T   00005262+0000001115          1400 EM9312               2AZ
114420002114420046-002023-C   114420006001023698254BATTERIES ALKALN CARD-50000001000+00005700+00000+0001T   00005700+0000001115          1400 EM9312               2AZ
114420003114420046-002032-PK2 114420004897006175063BATTERIES CR-2032  2PCE0000002000+00001753+00000+0001T   00001753+0000001115          1400 EM9312               2AZ
114420004114420046-000012-A   114420006003000208296BATTERIES H/POWER SZ:AA0000001000+00002192+00000+0001T   00002192+0000001115          1400 EM9312               2AZ
114420005114420112-116038     114420006009681820246TCS CARRIER BAG MIDI   0000001000+00000035+00000+0001T   00000035+0000001115          1400 EM9090               2AZ
114420006114420903-002850     114420000000087108262MENTOS ROLL FRUIT      0000001000+00001051+00000+0001T   00001051+0000001115          1400 EM9150               2AZ
114421000114421               114421               170213MI     1400+00000+MI0000002366+0000002366+000000000+000000332+0000002690+0000000008+I20000000000+0000002690+Z
114421001114421204-000019     114421006003000677474MEMO HOLDERS THERMOMETE0000001000+00000876+00000+0001T   00000876+0000001124          1400 EM9300               2AZ
114421002114421089-001021     114421006003000112319KEY CHAIN MINI BIBLE   0000001000+00001490+00000+0001T   00001490+0000001124          1400 EM9205               2AZ
114422000114422               114422               170213MI     1400+00000+MI0000008638+0000008638+000000000+000001212+0000009850+0000000000+I20000000000+0000009850+Z
114422001114422006-000093     114422006003000539932PARTY BANNER FLAGS ASST0000002000+00001753+00000+0001T   00001753+0000001130          1400 EM9131               2AZ
114422002114422077-000005-B   114422006003000326617PAPER TISSUE PATTERN   0000001000+00002630+00000+0001T   00002630+0000001130          1400 EM9112               2AZ
114422003114422077-000011-D   114422006001023808554TISSUE-WRAP WHITE 10PCE0000001000+00000876+00000+0001T   00000876+0000001130          1400 EM9112               2AZ
114422004114422018-000127     114422006001023380289MUG OCC STRAIGHT LOVE  0000001000+00001578+00000+0001T   00001753+0006471130          1400 EM9515               2AZ
114422005114422112-116069     114422006009681820277TCS CARRIER BAG JUMBO  0000001000+00000048+00000+0001T   00000048+0000001130          1400 EM9090               2AZ
114423000114423               114423               170213MI     1400+00000+MI0000006011+0000006011+000000000+000000842+0000006853+0000000000+I40000006853+0000000000+Z
114423001114423368-000049     114423006003000536955PLUSH BEAR 15cm LOVE   0000001000+00004385+00000+0001T   00004385+0000001144          1400 EM9745               2AZ
114423002114423077-000303     114423006001023593757GIFT-BAG PAPER MED     0000001000+00001578+00000+0001T   00001578+0000001144          1400 EM9112               2AZ
114423003114423112-116069     114423006009681820277TCS CARRIER BAG JUMBO  0000001000+00000048+00000+0001T   00000048+0000001144          1400 EM9090               2AZ
114424000114424               114424               170213MI     1400+00000+MI0000007309+0000007309+000000000+000001025+0000008334+0000000000+I40000008334+0000000000+Z
114424001114424903-000155     114424006009803374435SWT LOLLY I LUV U HEART0000003000+00000525+00000+0001T   00000525+0000001146          1400 EM9150               2AZ
114424002114424162-097718     114424006001492977188#TAG CHARM BRACELET    0000001000+00003507+00000+0001T   00003507+0000001146          1400 EM9160               2AZ
114424003114424077-000920     114424006003000413812G/WRAP 700mmx2m BIRTHDA0000001000+00002192+00000+0001T   00002192+0000001146          1400 EM9112               2AZ
114424004114424112-116038     114424006009681820246TCS CARRIER BAG MIDI   0000001000+00000035+00000+0001T   00000035+0000001146          1400 EM9090               2AZ
114425000114425               114425               170213MI     1400+00000+MI0000006137+0000006137+000000000+000000860+0000006990+0000000007+I20000000000+0000006990+Z
114425001114425030-000030-A   114425006003000249305PLAQUE GLASS LOVE      0000001000+00003069+00000+0001T   00003069+0000001152          1400 EM9505               2AZ
114425002114425018-000127     114425006001023380289MUG OCC STRAIGHT LOVE  0000001000+00001578+00000+0001T   00001753+0006471152          1400 EM9515               2AZ
114425003114425077-000452     114425006003000284986G/BAG METALLIC MED EMB 0000001000+00001490+00000+0001T   00001490+0000001152          1400 EM9112               2AZ
114426000114426               114426               170213MI     1400+00000+MI0000000048+0000000048+000000000+000000007+0000000050+0000000005+I20000000000+0000000050+Z
114426001114426112-116069     114426006009681820277TCS CARRIER BAG JUMBO  0000001000+00000048+00000+0001T   00000048+0000001153          1400 EM9090               2AZ
114427000114427               114427               170213MI     1400+00000+MI0000018199+0000018199+000000000+000002550+0000020749+0000000000+I40000020749+0000000000+Z
114427001114427077-000299     114427006003000395576G/BAG 32x25cm LRG LOVE 0000001000+00001490+00000+0001T   00001490+0000001203          1400 EM9112               2AZ
114427002114427159-000102     114427006001023552891SHOWER-CADDY 48cm      0000001000+00003507+00000+0001T   00003507+0000001203          1400 EM9200               2AZ
114427003114427492-055609     114427000078257556090EAR-PLUGS+NOSE-CLIP SET0000001000+00001753+00000+0001T   00001753+0000001203          1400 EM9787               2AZ
114427004114427200-003024     114427006001023657299REFUSE BAGS 20PCE BLACK0000001000+00001753+00000+0001T   00001753+0000001203          1400 EM9214               2AZ
114427005114427495-058889     114427000078257588893LOUNGER PILLOW-BACK    0000001000+00009648+00000+0001T   00009648+0000001203          1400 EM9787               2AZ
114427006114427112-116069     114427006009681820277TCS CARRIER BAG JUMBO  0000001000+00000048+00000+0001T   00000048+0000001203          1400 EM9090               2AZ
114428000114428               114428               170213MI     1400+00000+MI0000009994+0000009994+000000000+000001404+0000011398+0000000000+I40000011398+0000000000+Z
114428001114428031-006228     114428006003000142293P/FRAME+PLAQUE 10X15CM 0000001000+00003507+00000+0001T   00003507+0000001211          1400 EM9510               2AZ
114428002114428124-002023     114428006003000367252BISCUIT TIN HEART SHAPE0000001000+00002630+00000+0001T   00003507+0008171211          1400 EM9300               2AZ
114428003114428903-000183     114428006003000451043SWT LB HEART LOLLY     0000003000+00000393+00000+0001T   00000393+0000001211          1400 EM9150               2AZ
114428004114428368-000100     114428006001023474742PLUSH MD BEAR 12cm     0000001000+00002630+00000+0001T   00002630+0000001211          1400 EM9745               2AZ
114428005114428112-116069     114428006009681820277TCS CARRIER BAG JUMBO  0000001000+00000048+00000+0001T   00000048+0000001211          1400 EM9090               2AZ
114429000114429               114429               170213MI     1400+00000+MI0000000964+0000000964+000000000+000000135+0000001090+0000000009+I20000000000+0000001090+Z
114429001114429903-000843     114429008693029031067SWT GUMMY JELAXY 80G   0000001000+00000964+00000+0001T   00000964+0000001211          1400 EM9150               2AZ
114430000114430               114430               170213MI     1400+00000+MI0000000876+0000000876+000000000+000000123+0000000990+0000000009+I20000000000+0000000990+Z
114430001114430033-010720     114430006001023678645SAFETY-PINS 50PCE SMALL0000001000+00000876+00000+0001T   00000876+0000001216          1400 EM9200               2AZ
114431000114431               114431               170213MI     1400+00000+MI0000006185+0000006185+000000000+000000867+0000007052+0000000000+I40000007052+0000000000+Z
114431001114431018-000136     114431006001023659026MUG OCC LOVE W/PLUSH   0000001000+00003507+00000+0001T   00003507+0000001225          1400 EM9515               2AZ
114431002114431103-000215     114431006003000568635BASKET WICKER/IRON     0000001000+00002630+00000+0001T   00002630+0000001225          1400 EM9300               2AZ
114431003114431112-116069     114431006009681820277TCS CARRIER BAG JUMBO  0000001000+00000048+00000+0001T   00000048+0000001225          1400 EM9090               2AZ
114432000114432               114432               170213MI     1400+00000+MI0000013288+0000013288+000000000+000001861+0000015149+0000000000+I40000015149+0000000000+Z
114432001114432368-000049     114432006003000536955PLUSH BEAR 15cm LOVE   0000001000+00004385+00000+0001T   00004385+0000001227          1400 EM9745               2AZ
114432002114432018-000177     114432006001023797513MUG MINI LOVE ASSTD    0000001000+00000700+00000+0001T   00000700+0000001227          1400 EM9515               2AZ
114432003114432077-000303     114432006001023593757GIFT-BAG PAPER MED     0000001000+00001578+00000+0001T   00001578+0000001227          1400 EM9112               2AZ
114432004114432031-080508     114432006001023802415P/FRAME PL 22X11CM LOVE0000001000+00004385+00000+0001T   00004385+0000001227          1400 EM9510               2AZ
114432005114432080-000127     114432006003000424351VALENTINES DAY 36x24CM 0000001000+00002192+00000+0001T   00002192+0000001227          1400 EM9112               2AZ
114432006114432112-116069     114432006009681820277TCS CARRIER BAG JUMBO  0000001000+00000048+00000+0001T   00000048+0000001227          1400 EM9090               2AZ
114433000114433               114433               170213MI     1400+00000+MI0000007014+0000007014+000000000+000000982+0000007990+0000000006+I20000000000+0000007990+Z
114433001114433105-007015     114433006001023168221CONTAINER PL ROUND     0000002000+00003507+00000+0001T   00003507+0000001227          1400 EM9210               2AZ
114434000114434               114434               170213MI     1400+00000+MI0000008815+0000008815+000000000+000001235+0000010050+0000000000+I40000010050+0000000000+Z
114434001114434079-011526     114434006003000408375GLITTER & SAND ART     0000001000+00003507+00000+0001T   00003507+0000001232          1400 EM9130               2AZ
114434002114434263-000003     114434006003000652358VEHICLE BIKE 9.5cm     0000001000+00003507+00000+0001T   00003507+0000001232          1400 EM9710               2AZ
114434003114434077-000333     114434006001023745316GIFT-BAG 25X32CM EVERYD0000001000+00001753+00000+0001T   00001753+0000001232          1400 EM9112               2AZ
114434004114434112-116069     114434006009681820277TCS CARRIER BAG JUMBO  0000001000+00000048+00000+0001T   00000048+0000001232          1400 EM9090               2AZ
114435000114435               114435               170213MI     1400+00000+MI0000009649+0000009649+000000000+000001369+0000011018+0000000000+I40000011018+0000000000+Z
114435001114435080-000133     114435006003000535613CARD&ENV MINI ASTD DSGN0000022000+00000437+00000+0001T   00000437+0000001237          1400 EM9112               2AZ
114435002114435112-116038     114435006009681820246TCS CARRIER BAG MIDI   0000001000+00000035+00000+0001T   00000035+0000001237          1400 EM9090               2AZ
114436000114436               114436               170213MI     1400+00000+MI0000032896+0000032896+000000000+000004623+0000037510+0000000009+I20000000000+0000037510+Z
114436001114436903-000215     114436006002099001214SWT GS MALLOW TWIST PAC0000003000+00001753+00000+0001T   00001753+0000001243          1400 EM9150               2AZ
114436002114436903-000519     114436006001704012805SWT MS LIQ-O-GHETTI    0000002000+00001227+00000+0001T   00001227+0000001243          1400 EM9150               2AZ
114436003114436903-000624     114436006003000671793SWEET LOLLY BLU/BRRY   0000001000+00001753+00000+0001T   00001753+0000001243          1400 EM9150               2AZ
114436004114436903-000618     114436006003000672370SWT LOLLY RAINBOW GIANT0000001000+00001753+00000+0001T   00001753+0000001243          1400 EM9150               2AZ
114436005114436903-000619     114436006003000672455SWT LOLLY STR/BRRY 140G0000001000+00001753+00000+0001T   00001753+0000001243          1400 EM9150               2AZ
114436006114436903-000624     114436006003000671793SWEET LOLLY BLU/BRRY   0000001000+00001753+00000+0001T   00001753+0000001243          1400 EM9150               2AZ
114436007114436903-000618     114436006003000672370SWT LOLLY RAINBOW GIANT0000001000+00001753+00000+0001T   00001753+0000001243          1400 EM9150               2AZ
114436008114436903-000619     114436006003000672455SWT LOLLY STR/BRRY 140G0000002000+00001753+00000+0001T   00001753+0000001243          1400 EM9150               2AZ
114436009114436903-000155     114436006009803374435SWT LOLLY I LUV U HEART0000008000+00000525+00000+0001T   00000525+0000001243          1400 EM9150               2AZ
114436010114436903-000151     114436006009803374411SWT SML RND R/BOW LOLLY0000005000+00000525+00000+0001T   00000525+0000001243          1400 EM9150               2AZ
114436011114436105-001005     114436006001023858214CONTAINERS MINI 6PCE   0000001000+00001402+00000+0001T   00001402+0000001243          1400 EM9210               2AZ
114436012114436903-000183     114436006003000451043SWT LB HEART LOLLY     0000003000+00000393+00000+0001T   00000393+0000001243          1400 EM9150               2AZ
114436013114436903-000211     114436006002099001238SWT GS MALLOW ICE CREAM0000002000+00001753+00000+0001T   00001753+0000001243          1400 EM9150               2AZ
114437000114437               114437               170213MI     1400+00000+MI0000002192+0000002192+000000000+000000307+0000002490+0000000009+I20000000000+0000002490+Z
114437001114437080-000127     114437006003000424351VALENTINES DAY 36x24CM 0000001000+00002192+00000+0001T   00002192+0000001255          1400 EM9112               2AZ
114438000114438               114438               170213MI     1400+00000+MI0000006835+0000006835+000000000+000000960+0000007790+0000000005+I20000000000+0000007790+Z
114438001114438080-000133-A   114438006003000647019MINI VALENTINES CARD   0000001000+00000437+00000+0001T   00000437+0000001256          1400 EM9112               2AZ
114438002114438369-001137-B   114438006003000626373BABY BATH VINYL DUCK   0000001000+00001578+00000+0001T   00001578+0000001256          1400 EM9745               2AZ
114438003114438162-096647     114438006001492966472#TAG EARRINGS KIDS     0000001000+00001753+00000+0001T   00001753+0000001256          1400 EM9160               2AZ
114438004114438206-000220     114438006003000631704EGG TIMER COLOUR-CHANGE0000001000+00002630+00000+0001T   00002630+0000001256          1400 EM9321               2AZ
114438005114438080-000133-A   114438006003000647019MINI VALENTINES CARD   0000001000+00000437+00000+0001T   00000437+0000001256          1400 EM9112               2AZ
114439000114439               114439               170213MI     1400+00000+MI0000006398+0000006398+000000000+000000897+0000007290+0000000005+I20000000000+0000007290+Z
114439001114439006-005909     114439006003000081301PARTY FAVOUR STAR WAND 0000001000+00002192+00000+0001T   00002192+0000001257          1400 EM9131               2AZ
114439002114439200-000090     114439006001023802200PICNIC-PLATES SET-10   0000001000+00001753+00000+0001T   00001753+0000001257          1400 EM9214               2AZ
114439003114439006-000804     114439006003000574445STREAMERS 6-ROLLS 2.5cm0000001000+00001753+00000+0001T   00001753+0000001257          1400 EM9131               2AZ
114439004114439018-000177     114439006001023797513MUG MINI LOVE ASSTD    0000001000+00000700+00000+0001T   00000700+0000001257          1400 EM9515               2AZ
114440000114440               114440               170213MI     1400+00000+MI0000002630+0000002630+000000000+000000369+0000002990+0000000009+I20000000000+0000002990+Z
114440001114440203-003072     114440006001023888884C/SCREW DBL LEVR PL BLK0000001000+00002630+00000+0001T   00002630+0000001301          1400 EM9300               2AZ
114441000114441               114441               170213MI     1400+00000+MI0000003946+0000003946+000000000+000000553+0000004490+0000000009+I20000000000+0000004490+Z
114441001114441083-000030     114441006001023851154CIGARETTE CASE ASSTD   0000001000+00003946+00000+0001T   00003946+0000001305          1400 EM9315               2AZ
114442000114442               114442               170213MI     1400+00000+MI0000007890+0000007890+000000000+000001106+0000008996+0000000000+I40000008996+0000000000+Z
114442001114442002-012267     114442006001023110886SERVING-TONGS SCISSORS 0000001000+00002630+00000+0001T   00002630+0000001314          1400 EM9300               2AZ
114442002114442266-005280     114442006003000656691BOYS PLAYSET SOLDIERS  0000001000+00003507+00000+0001T   00003507+0000001314          1400 EM9710               2AZ
114442003114442034-078841     114442006003000594023MELAMINE KIDS BOWL 17cm0000001000+00001753+00000+0001T   00001753+0000001314          1400 EM9215               2AZ
114443000114443               114443               170213MI     1400+00000+MI0000005461+0000005461+000000000+000000770+0000006230+0000000001+I20000000000+0000006230+Z
114443001114443903-000885     114443008690997017147SWT L/BIRD CHOC BISCUIT0000004000+00000437+00000+0001T   00000437+0000001347          1400 EM9150               2AZ
114443002114443080-000124     114443006003000297733CARD & ENV VALENTINES  0000001000+00001578+00000+0001T   00001578+0000001347          1400 EM9112               2AZ
114443003114443903-000151     114443006009803374411SWT SML RND R/BOW LOLLY0000004000+00000525+00000+0001T   00000525+0000001347          1400 EM9150               2AZ
114443004114443112-116038     114443006009681820246TCS CARRIER BAG MIDI   0000001000+00000035+00000+0001T   00000035+0000001347          1400 EM9090               2AZ
114444000114444               114444               170213MI     1400+00000+MI0000020171+0000020171+000000000+000002826+0000022997+0000000000+I40000022997+0000000000+Z
114444001114444077-000270     114444006003000395453GIFT-BAG PPR JMB 33X45 0000001000+00002630+00000+0001T   00002630+0000001402          1400 EM9112               2AZ
114444002114444368-000111     114444006001023780812PLUSH BEAR/DOG 29CM    0000001000+00012279+00000+0001T   00012279+0000001402          1400 EM9745               2AZ
114444003114444007-000614     114444006001023768667DIARY W/LOCK+PEN LOVE  0000001000+00005262+00000+0001T   00005262+0000001402          1400 EM9130               2AZ
114445000114445               114445               170213MI     1400+00000+MI0000010961+0000010961+000000000+000001536+0000012497+0000000000+I40000012497+0000000000+Z
114445001114445049-001832     114445006003000019359DOORMAT RUBBER-PIN 6mm 0000001000+00005262+00000+0001T   00005262+0000001407          1400 EM9510               2AZ
114445002114445072-020312     114445006003000605330PET TOY PUP STARTER PCK0000001000+00002630+00000+0001T   00002630+0000001407          1400 EM9870               2AZ
114445003114445072-020315     114445006003000623891PET TOY PUPPY RING 3in10000001000+00003069+00000+0001T   00003069+0000001407          1400 EM9870               2AZ
114446000114446               114446               170213MI     1400+00000+MI0000001538+0000001538+000000000+000000216+0000001754+0000000000+I40000001754+0000000000+Z
114446001114446077-000299     114446006003000395576G/BAG 32x25cm LRG LOVE 0000001000+00001490+00000+0001T   00001490+0000001409          1400 EM9112               2AZ
114446002114446112-116069     114446006009681820277TCS CARRIER BAG JUMBO  0000001000+00000048+00000+0001T   00000048+0000001409          1400 EM9090               2AZ
114447000114447               114447               170213MI     1400+00000+MI0000016601+0000016601+000000000+000002330+0000018930+0000000001+I20000000000+0000018930+Z
114447001114447368-000040     114447006003000671786PLUSH ICONS 7.5cm      0000002000+00002630+00000+0001T   00002630+0000001411          1400 EM9745               2AZ
114447002114447038-001803     114447006001023766588DOILIES 17cm RND 18PC  0000003000+00001753+00000+0001T   00001753+0000001411          1400 EM9300               2AZ
114447003114447368-000040     114447006003000671786PLUSH ICONS 7.5cm      0000001000+00002630+00000+0001T   00002630+0000001411          1400 EM9745               2AZ
114447004114447903-000087     114447006001704000161SWT SPECKLED-EGGS 50G  0000003000+00001139+00000+0001T   00001139+0000001411          1400 EM9150               2AZ
114447005114447112-116038     114447006009681820246TCS CARRIER BAG MIDI   0000001000+00000035+00000+0001T   00000035+0000001411          1400 EM9090               2AZ
114448000114448               114448               170213MI     1400+00000+MI0000006663+0000006663+000000000+000000934+0000007597+0000000000+I40000007597+0000000000+Z
114448001114448077-000324     114448006001023677594GIFT-BAG 33X45CM E/D FL0000001000+00001753+00000+0001T   00001753+0000001414          1400 EM9112               2AZ
114448002114448565-000085     114448006003000643332NOVELTY BEEDZ 10g      0000002000+00002455+00000+0001T   00002455+0000001414          1400 EM9745               2AZ
114449000114449               114449               170213MI     1400+00000+MI0000005260+0000005260+000000000+000000737+0000005997+0000000000+I40000005997+0000000000+Z
114449001114449031-000002-A   114449006003000247103P/FRAME LOVE 7.5X7.5CM 0000001000+00003507+00000+0001T   00003507+0000001417          1400 EM9510               2AZ
114449002114449077-000299-A   114449006003000670888GIFT-BAG PAPER JMB LOVE0000001000+00001753+00000+0001T   00001753+0000001417          1400 EM9112               2AZ
114450000114450               114450               170213MI     1400+00000+MI0000017754+0000017754+000000000+000002487+0000020241+0000000000+I40000020241+0000000000+Z
114450001114450018-005009     114450006001023725608MUG W/PLUSH-BEAR LOVE  0000002000+00003507+00000+0001T   00003507+0000001419          1400 EM9515               2AZ
114450002114450112-116069     114450006009681820277TCS CARRIER BAG JUMBO  0000001000+00000048+00000+0001T   00000048+0000001419          1400 EM9090               2AZ
114450003114450077-000303     114450006001023593757GIFT-BAG PAPER MED     0000002000+00001578+00000+0001T   00001578+0000001419          1400 EM9112               2AZ
114450004114450261-000121     114450006001023341600GUN-CAPS 8-SHOT CARD-9 0000002000+00000700+00000+0001T   00000700+0000001419          1400 EM9710               2AZ
114450005114450261-000035     114450006003000550258GUN 4PC POLICE SET     0000001000+00003507+00000+0001T   00003507+0000001419          1400 EM9710               2AZ
114450006114450077-000299     114450006003000395576G/BAG 32x25cm LRG LOVE 0000001000+00001490+00000+0001T   00001490+0000001419          1400 EM9112               2AZ
114450007114450046-000014     114450006001023725387BATTERIES SIZE:AAA 4PCE0000001000+00001139+00000+0001T   00001139+0000001419          1400 EM9312               2AZ
114451000114451               114451               170213MI     1400+00000+MI0000009553+0000009553+000000000+000001340+0000010893+0000000000+I40000010893+0000000000+Z
114451001114451039-000108     114451006001023524034TEA-LITE CANDLES 8PCE  0000001000+00001490+00000+0001T   00001490+0000001422          1400 EM9510               2AZ
114451002114451040-000213     114451006001023617736CANDLE-HOLDER DAISY    0000002000+00001227+00000+0001T   00001227+0000001422          1400 EM9510               2AZ
114451003114451039-000026     114451006001023551610C/TAPERED 25CM M/RED   0000002000+00001051+00000+0001T   00001051+0000001422          1400 EM9510               2AZ
114451004114451018-000136     114451006001023659026MUG OCC LOVE W/PLUSH   0000001000+00003507+00000+0001T   00003507+0000001422          1400 EM9515               2AZ
114452000114452               114452               170213MI     1400+00000+MI0000004822+0000004822+000000000+000000676+0000005498+0000000000+I40000005498+0000000000+Z
114452001114452079-013032-D   114452006003000389643RIBBONS                0000001000+00002630+00000+0001T   00002630+0000001431          1400 EM9130               2AZ
114452002114452080-000127     114452006003000424351VALENTINES DAY 36x24CM 0000001000+00002192+00000+0001T   00002192+0000001431          1400 EM9112               2AZ
114453000114453               114453               170213MI     1400+00000+MI0000013586+0000013586+000000000+000001905+0000015491+0000000000+I40000015491+0000000000+Z
114453001114453040-000183     114453006001023900784CANDLE-HLDR CERAMIC 6cm0000002000+00001314+00000+0001T   00001753+0008171434          1400 EM9510               2AZ
114453002114453039-000635     114453006001023774521CANDLE VTV 4PC WHITE   0000001000+00002192+00000+0001T   00002192+0000001434          1400 EM9510               2AZ
114453003114453006-006018     114453006001023735256PARTY-SPRAY HAIR ASSORT0000001000+00002630+00000+0001T   00002630+0000001434          1400 EM9131               2AZ
114453004114453006-006019     114453006001023908193PARTY-SPRAY GLITTER    0000001000+00002630+00000+0001T   00002630+0000001434          1400 EM9131               2AZ
114453005114453006-006018     114453006001023735256PARTY-SPRAY HAIR ASSORT0000001000+00002630+00000+0001T   00002630+0000001434          1400 EM9131               2AZ
114453006114453077-000011-D   114453006001023808554TISSUE-WRAP WHITE 10PCE0000001000+00000876+00000+0001T   00000876+0000001434          1400 EM9112               2AZ
114454000114454               114454               170213MI     1400+00000+MI0000012585+0000012585+000000000+000001764+0000014349+0000000000+I40000014349+0000000000+Z
114454001114454206-000620     114454006003000631797BACK SCRATCHER EXTEND  0000001000+00002630+00000+0001T   00002630+0000001457          1400 EM9321               2AZ
114454002114454206-000520     114454006003000620708NOVELTY BIRTHDAY CANDLE0000001000+00001314+00000+0001T   00001753+0008181457          1400 EM9321               2AZ
114454003114454206-000530     114454006003000620821BIRTHDAY CANDLES 6PC   0000001000+00001139+00000+0001T   00001753+0008181457          1400 EM9321               2AZ
114454004114454565-000082     114454006003000643639NOVELTY JUMPING BALLS  0000001000+00002192+00000+0001T   00002192+0000001457          1400 EM9745               2AZ
114454005114454562-000080     114454006003000610587EDU WORLD GLOBE        0000001000+00005262+00000+0001T   00005262+0000001457          1400 EM9755               2AZ
114454006114454112-116069     114454006009681820277TCS CARRIER BAG JUMBO  0000001000+00000048+00000+0001T   00000048+0000001457          1400 EM9090               2AZ
114455000114455               114455               170213MI     1400+00000+MI0000004385+0000004385+000000000+000000614+0000004990+0000000009+I20000000000+0000004990+Z
114455001114455002-000153     114455006001023138804MEAT-TENDERIZER        0000001000+00004385+00000+0001T   00004385+0000001511          1400 EM9300               2AZ
114456000114456               114456               170213MI     1400+00000+MI0000011836+0000011836+000000000+000001659+0000013490+0000000005+I20000000000+0000013490+Z
114456001114456563-000318-L   114456006003000407088SERVIETTES 33cm RED    0000002000+00002192+00000+0001T   00002192+0000001514          1400 EM9214               2AZ
114456002114456563-000317-E   114456006001023776280SERVIETTES 20PK KIDS   0000001000+00002630+00000+0001T   00002630+0000001514          1400 EM9214               2AZ
114456003114456563-000318-L   114456006003000407088SERVIETTES 33cm RED    0000001000+00002192+00000+0001T   00002192+0000001514          1400 EM9214               2AZ
114456004114456563-000317-E   114456006001023776280SERVIETTES 20PK KIDS   0000001000+00002630+00000+0001T   00002630+0000001514          1400 EM9214               2AZ
114457000114457               114457               170213MI     1400+00000+MI0000004342+0000004342+000000000+000000609+0000004950+0000000001+I20000000000+0000004950+Z
114457001114457903-004951     114457006002580020328SWT MALLOW MINI M/SHAKE0000001000+00001227+00000+0001T   00001227+0000001515          1400 EM9150               2AZ
114457002114457903-000211     114457006002099001238SWT GS MALLOW ICE CREAM0000001000+00001753+00000+0001T   00001753+0000001515          1400 EM9150               2AZ
114457003114457903-005001     114457006002580020014SWT CT MALLOW MICE 120g0000001000+00001314+00000+0001T   00001314+0000001515          1400 EM9150               2AZ
114457004114457112-116069     114457006009681820277TCS CARRIER BAG JUMBO  0000001000+00000048+00000+0001T   00000048+0000001515          1400 EM9090               2AZ
114458000114458               114458               170213MI     1400+00000+MI0000009642+0000009642+000000000+000001352+0000010990+0000000004+I20000000000+0000010990+Z
114458001114458079-006525     114458006003000681938MASKING FABRIC 10PC    0000001000+00002630+00000+0001T   00002630+0000001541          1400 EM9130               2AZ
114458002114458366-002101     114458006003000617715DRESS UP MASK LIGHT UP 0000001000+00002630+00000+0001T   00002630+0000001541          1400 EM9131               2AZ
114458003114458366-007601     114458006003000655472DRESS UP MASK THEATRICA0000001000+00000876+00000+0001T   00000876+0000001541          1400 EM9131               2AZ
114458004114458366-000302     114458006001023903013DRESSUP DEVIL/MOUSE    0000001000+00002192+00000+0001T   00002192+0000001541          1400 EM9131               2AZ
114458005114458903-005001     114458006002580020014SWT CT MALLOW MICE 120g0000001000+00001314+00000+0001T   00001314+0000001541          1400 EM9150               2AZ
114459000114459               114459               170213MI     1400+00000+MI0000006139+0000006139+000000000+000000860+0000006990+0000000009+I20000000000+0000006990+Z
114459001114459007-000323     114459006009697791042PAPER A4 80GSM 100'S   0000001000+00006139+00000+0001T   00006139+0000001543          1400 EM9130               2AZ
114460000114460               114460               170213MI     1400+00000+MI0000002192+0000002192+000000000+000000307+0000002490+0000000009+I20000000000+0000002490+Z
114460001114460080-000127     114460006003000424351VALENTINES DAY 36x24CM 0000001000-00002192+00000+0001T   00002192+0000001545          1400 EM91121IC            2 Z
114460002114460080-000127     114460006003000424351VALENTINES DAY 36x24CM 0000002000+00002192+00000+0001T   00002192+0000001545          1400 EM91121IC            2AZ
114461000114461               114461               170213MI     1400+00000+MI0000030522+0000030522+000000000+000004279+0000034801+0000000000+I40000034801+0000000000+Z
114461001114461106-001119     114461006003000449972WATER BOTTLE ALUM 750ml0000002000+00003946+00000+0001T   00005262+0008171551          1400 EM9210               2AZ
114461002114461112-116069     114461006009681820277TCS CARRIER BAG JUMBO  0000002000+00000048+00000+0001T   00000048+0000001551          1400 EM9090               2AZ
114461003114461565-000040     114461006008766115635NOVELTY ICON BEANIE    0000001000+00002630+00000+0001T   00002630+0000001551          1400 EM9745               2AZ
114461004114461565-004004     114461006001023744357NOVELTY INSCT COLLECTOR0000001000+00005262+00000+0001T   00005262+0000001551          1400 EM9745               2AZ
114461005114461079-006494     114461006003000159864GLITTER GLUE 5PCE 11cm 0000001000+00001490+00000+0001T   00001490+0000001551          1400 EM9130               2AZ
114461006114461079-013101     114461006001023863706CRAFT SET DIY PIPE-CLNR0000001000+00002630+00000+0001T   00002630+0000001551          1400 EM9130               2AZ
114461007114461072-020347     114461006001023858627PET GROOMING-GLOVE     0000001000+00001753+00000+0001T   00001753+0000001551          1400 EM9870               2AZ
114461008114461072-020312     114461006003000605330PET TOY PUP STARTER PCK0000001000+00002630+00000+0001T   00002630+0000001551          1400 EM9870               2AZ
114461009114461560-000229     114461006003000469468ANIMALS BIG EYES ASSTD 0000001000+00006139+00000+0001T   00006139+0000001551          1400 EM9745               2AZ
114462000114462               114462               170213MI     1400+00000+MI0000007012+0000007012+000000000+000000984+0000007990+0000000006+I20000000000+0000007990+Z
114462001114462071-001102     114462006003000274598MARKER PERM MED 2PCE   0000004000+00001753+00000+0001T   00001753+0000001554          1400 EM9130               2AZ
114463000114463               114463               170213MI     1400+00000+MI0000008536+0000008536+000000000+000001197+0000009733+0000000000+I40000009733+0000000000+Z
114463001114463903-000673     114463006009803358237SWT SHERBET GRAPE 4PK  0000001000+00000876+00000+0001T   00000876+0000001600          1400 EM9150               2AZ
114463002114463903-000674     114463006009803358220SWT SHERBET W/LOLLY 4PK0000001000+00001314+00000+0001T   00001314+0000001600          1400 EM9150               2AZ
114463003114463112-116038     114463006009681820246TCS CARRIER BAG MIDI   0000001000+00000035+00000+0001T   00000035+0000001600          1400 EM9090               2AZ
114463004114463368-000049     114463006003000536955PLUSH BEAR 15cm LOVE   0000001000+00004385+00000+0001T   00004385+0000001600          1400 EM9745               2AZ
114463005114463903-000221     114463006001704007382SWT EENY-MEENY-MOS 60G 0000001000+00000876+00000+0001T   00000876+0000001600          1400 EM9150               2AZ
114463006114463903-000151     114463006009803374411SWT SML RND R/BOW LOLLY0000002000+00000525+00000+0001T   00000525+0000001600          1400 EM9150               2AZ
114464000114464               114464               170213MI     1400+00000+MI0000003069+0000003069+000000000+000000430+0000003499+0000000000+I40000003499+0000000000+Z
114464001114464030-000030-A   114464006003000249305PLAQUE GLASS LOVE      0000001000+00003069+00000+0001T   00003069+0000001604          1400 EM9505               2AZ
114465000114465               114465               170213MI     1400+00000+MI0000003330+0000003330+000000000+000000467+0000003797+0000000000+I40000003797+0000000000+Z
114465001114465089-000100     114465006003000565665K/CHAIN PET LOVERS     0000001000+00002630+00000+0001T   00002630+0000001606          1400 EM9205               2AZ
114465002114465018-000177     114465006001023797513MUG MINI LOVE ASSTD    0000001000+00000700+00000+0001T   00000700+0000001606          1400 EM9515               2AZ
114466000114466               114466               170213MI     1400+00000+MI0000009208+0000009208+000000000+000001290+0000010498+0000000000+I40000010498+0000000000+Z
114466001114466080-000127     114466006003000424351VALENTINES DAY 36x24CM 0000001000+00002192+00000+0001T   00002192+0000001608          1400 EM9112               2AZ
114466002114466041-093000     114466006003000320882B/GIFT SET 4PC B/RANGE 0000001000+00007016+00000+0001T   00007016+0000001608          1400 EM9200               2AZ
114467000114467               114467               170213MI     1400+00000+MI0000008625+0000008625+000000000+000001208+0000009830+0000000003+I20000000000+0000009830+Z
114467001114467018-000170     114467006001023775528MUG OCC. LOVE 2PC MINI 0000002000+00002192+00000+0001T   00002192+0000001610          1400 EM9515               2AZ
114467002114467077-000470     114467006003000330171G-BAG DESGN SML 11X14CM0000002000+00001314+00000+0001T   00001314+0000001610          1400 EM9112               2AZ
114467003114467077-000303     114467006001023593757GIFT-BAG PAPER MED     0000001000+00001578+00000+0001T   00001578+0000001610          1400 EM9112               2AZ
114467004114467112-116038     114467006009681820246TCS CARRIER BAG MIDI   0000001000+00000035+00000+0001T   00000035+0000001610          1400 EM9090               2AZ
114468000114468               114468               170213MI     1400+00000+MI0000022802+0000022802+000000000+000003194+0000025990+0000000006+I20000000000+0000025990+Z
114468001114468301-085003     114468006003000420827ORN OCCASION LOVE KEY  0000001000+00005262+00000+0001T   00005262+0000001615          1400 EM9505               2AZ
114468002114468018-005007     114468006003000515516MUG OCC. LOVE W/HEARTS 0000001000+00006139+00000+0001T   00006139+0000001615          1400 EM9515               2AZ
114468003114468031-086302-C   114468006001023910332P/FRAME COLL. PL 3-HOLE0000001000+00008771+00000+0001T   00008771+0000001615          1400 EM9510               2AZ
114468004114468077-000270     114468006003000395453GIFT-BAG PPR JMB 33X45 0000001000+00002630+00000+0001T   00002630+0000001615          1400 EM9112               2AZ
114469000114469               114469               170213MI     1400+00000+MI0000014907+0000014907+000000000+000002089+0000016990+0000000006+I20000000000+0000016990+Z
114469001114469030-000030-C   114469006003000249466PLAQUE GLASS DAD       0000001000+00003069+00000+0001T   00003069+0000001619          1400 EM9505               2AZ
114469002114469301-085006     114469006001023502940ORN LOVE MSG TUBE W/HRT0000001000+00001753+00000+0001T   00001753+0000001619          1400 EM9505               2AZ
114469003114469301-085007     114469006003000673698ORN OCC. LOVE S/PLAQUE 0000001000+00007893+00000+0001T   00007893+0000001619          1400 EM9505               2AZ
114469004114469077-000463     114469006003000321698G/BAG GLITTER MED20x28 0000001000+00002192+00000+0001T   00002192+0000001619          1400 EM9112               2AZ
114470000114470               114470               170213MI     1400+00000+MI0000001753+0000001753+000000000+000000246+0000001990+0000000009+I20000000000+0000001990+Z
114470001114470006-000800     114470006001023902801HAT CABARET 14x18cm    0000001000+00001753+00000+0001T   00001753+0000001620          1400 EM9131               2AZ
114471000114471               114471               170213MI     1400+00000+MI0000005308+0000005308+000000000+000000745+0000006053+0000000000+I40000006053+0000000000+Z
114471001114471077-000475     114471006003000640775GIFT-BAG DESIGNER MED  0000002000+00002630+00000+0001T   00002630+0000001652          1400 EM9112               2AZ
114471002114471112-116069     114471006009681820277TCS CARRIER BAG JUMBO  0000001000+00000048+00000+0001T   00000048+0000001652          1400 EM9090               2AZ
114472000114472               114472               170213MI     1400+00000+MI0000006883+0000006883+000000000+000000965+0000007840+0000000008+I20000000000+0000007840+Z
114472001114472301-085006     114472006001023502940ORN LOVE MSG TUBE W/HRT0000001000+00001753+00000+0001T   00001753+0000001653          1400 EM9505               2AZ
114472002114472018-000177     114472006001023797513MUG MINI LOVE ASSTD    0000001000+00000700+00000+0001T   00000700+0000001653          1400 EM9515               2AZ
114472003114472077-000384     114472006003000275243G/BAG HOT STMP 18x23CM 0000001000+00001490+00000+0001T   00001490+0000001653          1400 EM9112               2AZ
114472004114472080-000127     114472006003000424351VALENTINES DAY 36x24CM 0000001000+00002192+00000+0001T   00002192+0000001653          1400 EM9112               2AZ
114472005114472018-000177     114472006001023797513MUG MINI LOVE ASSTD    0000001000+00000700+00000+0001T   00000700+0000001653          1400 EM9515               2AZ
114472006114472112-116069     114472006009681820277TCS CARRIER BAG JUMBO  0000001000+00000048+00000+0001T   00000048+0000001653          1400 EM9090               2AZ
114473000114473               114473               170213MI     1400+00000+MI0000008767+0000008767+000000000+000001228+0000009990+0000000005+I20000000000+0000009990+Z
114473001114473004-071203     114473006003000183555COMPUTOR LIGHT LED USB 0000001000+00003507+00000+0001T   00003507+0000001655          1400 EM9310               2AZ
114473002114473018-000136     114473006001023659026MUG OCC LOVE W/PLUSH   0000001000+00003507+00000+0001T   00003507+0000001655          1400 EM9515               2AZ
114473003114473077-000316     114473006001023609731GIFT-BAG 25X32CM MATT  0000001000+00001753+00000+0001T   00001753+0000001655          1400 EM9112               2AZ
114474000114474               114474               170213MI     1400+00000+MI0000002192+0000002192+000000000+000000307+0000002490+0000000009+I20000000000+0000002490+Z
114474001114474077-000914     114474006003000413454G/WRAP 700mmx2m ANIMAL 0000001000+00002192+00000+0001T   00002192+0000001700          1400 EM9112               2AZ
114475000114475               114475               170213MI     1400+00000+MI0000068878+0000068878+000000000+000009653+0000078531+0000000000+I40000078531+0000000000+Z
114475001114475112-116069     114475006009681820277TCS CARRIER BAG JUMBO  0000001000+00000048+00000+0001T   00000048+0000001703          1400 EM9090               2AZ
114475002114475303-000806     114475006001023409768COW-BELL BRASS(5BELLS) 0000001000+00005262+00000+0001T   00005262+0000001703          1400 EM9510               2AZ
114475003114475006-000111     114475006003000519385BALLOONS LARGE 12PCE   0000001000+00002630+00000+0001T   00002630+0000001703          1400 EM9131               2AZ
114475004114475006-000166-H   114475006003000608096BALLOONS HELIUM 6PC WHT0000001000+00001314+00000+0001T   00001314+0000001703          1400 EM9131               2AZ
114475005114475366-002195     114475006001023990549DRESS UP WINGS FEATHER 0000002000+00005262+00000+0001T   00005262+0000001703          1400 EM9131               2AZ
114475006114475903-000619     114475006003000672455SWT LOLLY STR/BRRY 140G0000001000+00001753+00000+0001T   00001753+0000001703          1400 EM9150               2AZ
114475007114475903-000095     114475006001704011495SWT SPECKLED-EGGS 100G 0000001000+00002104+00000+0001T   00002104+0000001703          1400 EM9150               2AZ
114475008114475903-002901     114475005996071650655QUICK MILK 5 S/BERRY   0000002000+00001578+00000+0001T   00001578+0000001703          1400 EM9150               2AZ
114475009114475077-000348     114475006001023483287GIFT-BOWS 4,5cm 8PCE   0000001000+00001578+00000+0001T   00001578+0000001703          1400 EM9112               2AZ
114475010114475077-000303     114475006001023593757GIFT-BAG PAPER MED     0000001000+00001578+00000+0001T   00001578+0000001703          1400 EM9112               2AZ
114475011114475368-000152     114475006003000166886PLUSH BEAR 15cm        0000001000+00003946+00000+0001T   00005262+0008141703          1400 EM9745               2AZ
114475012114475466-000560     114475006003000515448BALL RUGBY SZ-5 RUBBER 0000001000+00012279+00000+0001T   00012279+0000001703          1400 EM9785               2AZ
114475013114475077-000297     114475006001023869814GIFT BOX OCCASIONS SQRE0000001000+00001753+00000+0001T   00001753+0000001703          1400 EM9112               2AZ
114475014114475077-000005-B   114475006003000326617PAPER TISSUE PATTERN   0000001000+00002630+00000+0001T   00002630+0000001703          1400 EM9112               2AZ
114475015114475077-000009     114475006003000152377PAPER CREPE ALUM COL   0000001000+00003069+00000+0001T   00003069+0000001703          1400 EM9112               2AZ
114475016114475301-085007     114475006003000673698ORN OCC. LOVE S/PLAQUE 0000001000+00007893+00000+0001T   00007893+0000001703          1400 EM9505               2AZ
114475017114475077-000333     114475006001023745316GIFT-BAG 25X32CM EVERYD0000001000+00001753+00000+0001T   00001753+0000001703          1400 EM9112               2AZ
114475018114475077-000381     114475006003000247707GIFT-BAG 25X32CM S/COL 0000001000+00001753+00000+0001T   00001753+0000001703          1400 EM9112               2AZ
114475019114475903-000297     114475006001704002950SWT MS WILD BERRY 50G  0000001000+00000876+00000+0001T   00000876+0000001703          1400 EM9150               2AZ
114475020114475903-000295     114475006001704002899SWT MS FRUITY RASCALS  0000002000+00000876+00000+0001T   00000876+0000001703          1400 EM9150               2AZ
114475021114475903-000499     114475006001704012492SWT CHOC MALLOWS 50g   0000001000+00001227+00000+0001T   00001227+0000001703          1400 EM9150               2AZ
114476000114476               114476               170213MI     1400+00000+MI0000000700+0000000700+000000000+000000098+0000000798+0000000000+I40000000798+0000000000+Z
114476001114476018-000177     114476006001023797513MUG MINI LOVE ASSTD    0000001000+00000700+00000+0001T   00000700+0000001705          1400 EM9515               2AZ
114477000114477               114477               170213MI     1400+00000+MI0000002630+0000002630+000000000+000000369+0000002990+0000000009+I20000000000+0000002990+Z
114477001114477079-013032-D   114477006003000389643RIBBONS                0000001000+00002630+00000+0001T   00002630+0000001705          1400 EM9130               2AZ
114478000114478               114478               170213MI     1400+00000+MI0000001314+0000001314+000000000+000000184+0000001490+0000000008+I20000000000+0000001490+Z
114478001114478903-005001     114478006002580020014SWT CT MALLOW MICE 120g0000001000+00001314+00000+0001T   00001314+0000001706          1400 EM9150               2AZ
114479000114479               114479               170213MI     1400+00000+MI0000016645+0000016645+000000000+000002334+0000018979+0000000000+I40000018979+0000000000+Z
114479001114479105-008005     114479006002580009484STORAGE CONTAINER 7.5L 0000001000+00004385+00000+0001T   00004385+0000001711          1400 EM9210               2AZ
114479002114479565-000044     114479006003000128280BARREL OF SLIME 100g   0000020000+00000613+00000+0001T   00000613+0000001711          1400 EM9745               2AZ
114480000114480               114480               170213MI     1400+00000+MI0000003978+0000003978+000000000+000000558+0000004536+0000000000+I40000004536+0000000000+Z
114480001114480080-000133-A   114480006003000647019MINI VALENTINES CARD   0000001000+00000437+00000+0001T   00000437+0000001714          1400 EM9112               2AZ
114480002114480039-000635     114480006001023774521CANDLE VTV 4PC WHITE   0000001000+00002192+00000+0001T   00002192+0000001714          1400 EM9510               2AZ
114480003114480040-000183     114480006001023900784CANDLE-HLDR CERAMIC 6cm0000001000+00001314+00000+0001T   00001753+0008171714          1400 EM9510               2AZ
114480004114480112-116038     114480006009681820246TCS CARRIER BAG MIDI   0000001000+00000035+00000+0001T   00000035+0000001714          1400 EM9090               2AZ
114481000114481               114481               170213MI     1400+00000+MI0000018581+0000018581+000000000+000002603+0000021184+0000000000+I40000021184+0000000000+Z
114481001114481018-000177     114481006001023797513MUG MINI LOVE ASSTD    0000004000+00000700+00000+0001T   00000700+0000001717          1400 EM9515               2AZ
114481002114481567-075490     114481009780799372182BK NOVEL ROMANCE AFR   0000003000+00003507+00000+0001T   00003507+0000001717          1400 EM9757               2AZ
114481003114481018-000129     114481006001023403353MUG OCC. LOVE V-SHAPE  0000002000+00002630+00000+0001T   00002630+0000001717          1400 EM9515               2AZ
114482000114482               114482               170213MI     1400+00000+MI0000011186+0000011186+000000000+000001567+0000012753+0000000000+I40000012753+0000000000+Z
114482001114482030-004015     114482006003000467624PLAQUE WDN SIGN 30X20CM0000001000+00009648+00000+0001T   00009648+0000001719          1400 EM9505               2AZ
114482002114482077-000299     114482006003000395576G/BAG 32x25cm LRG LOVE 0000001000+00001490+00000+0001T   00001490+0000001719          1400 EM9112               2AZ
114482003114482112-116069     114482006009681820277TCS CARRIER BAG JUMBO  0000001000+00000048+00000+0001T   00000048+0000001719          1400 EM9090               2AZ
114483000114483               114483               170213MI     1400+00000+MI0000001578+0000001578+000000000+000000221+0000001799+0000000000+I40000001799+0000000000+Z
114483001114483080-000124     114483006003000297733CARD & ENV VALENTINES  0000001000+00001578+00000+0001T   00001578+0000001720          1400 EM9112               2AZ
114484000114484               114484               170213MI     1400+00000+MI0000003542+0000003542+000000000+000000496+0000004030+0000000008+I20000000000+0000004030+Z
114484001114484018-000136     114484006001023659026MUG OCC LOVE W/PLUSH   0000001000+00003507+00000+0001T   00003507+0000001721          1400 EM9515               2AZ
114484002114484112-116038     114484006009681820246TCS CARRIER BAG MIDI   0000001000+00000035+00000+0001T   00000035+0000001721          1400 EM9090               2AZ
114485000114485               114485               170213MI     1400+00000+MI0000007323+0000007323+000000000+000001027+0000008350+0000000000+I40000008350+0000000000+Z
114485001114485018-000177     114485006001023797513MUG MINI LOVE ASSTD    0000001000+00000700+00000+0001T   00000700+0000001723          1400 EM9515               2AZ
114485002114485080-000127     114485006003000424351VALENTINES DAY 36x24CM 0000001000+00002192+00000+0001T   00002192+0000001723          1400 EM9112               2AZ
114485003114485077-000270     114485006003000395453GIFT-BAG PPR JMB 33X45 0000001000+00002630+00000+0001T   00002630+0000001723          1400 EM9112               2AZ
114485004114485077-000316     114485006001023609731GIFT-BAG 25X32CM MATT  0000001000+00001753+00000+0001T   00001753+0000001723          1400 EM9112               2AZ
114485005114485112-116069     114485006009681820277TCS CARRIER BAG JUMBO  0000001000+00000048+00000+0001T   00000048+0000001723          1400 EM9090               2AZ
114486000114486               114486               170213MI     1400+00000+MI0000001753+0000001753+000000000+000000246+0000001999+0000000000+I40000001999+0000000000+Z
114486001114486077-000382     114486006003000247820GIFT-BAG MED 18X23CM   0000001000+00001753+00000+0001T   00001753+0000001726          1400 EM9112               2AZ
114487000114487               114487               170213MI     1400+00000+MI0000000876+0000000876+000000000+000000123+0000000990+0000000009+I20000000000+0000000990+Z
114487001114487903-000483     114487006001704001410SWT LIQUOR SML SORT 60G0000001000+00000876+00000+0001T   00000876+0000001730          1400 EM9150               2AZ
114488000114488               114488               170213MI     1400+00000+MI0000009205+0000009205+000000000+000001290+0000010490+0000000005+I20000000000+0000010490+Z
114488001114488301-085004     114488006003000420469ORN LOVE PLAQUE 21X10CM0000001000+00003507+00000+0001T   00003946+0006471733          1400 EM9505               2AZ
114488002114488080-000127     114488006003000424351VALENTINES DAY 36x24CM 0000001000+00002192+00000+0001T   00002192+0000001733          1400 EM9112               2AZ
114488003114488200-003026     114488006003000276448REFUSE BAGS 10PCE GREEN0000002000+00001753+00000+0001T   00001753+0000001733          1400 EM9214               2AZ
114489000114489               114489               170213MI     1400+00000+MI0000003811+0000003811+000000000+000000535+0000004340+0000000006+I20000000000+0000004340+Z
114489001114489079-000012     114489006001023655332P/CRAYONS 12-COL LONG  0000001000+00001753+00000+0001T   00001753+0000001740          1400 EM9130               2AZ
114489002114489007-000405     114489006009635830369EXERCISE-BOOK A5 72PAGE0000001000+00000262+00000+0001T   00000262+0000001740          1400 EM9130               2AZ
114489003114489071-005214     114489006003000152544CELLOTAPE SUPER REFILL 0000001000+00001490+00000+0001T   00001490+0000001740          1400 EM9130               2AZ
114489004114489007-000123     114489006003000533879BOOK COVER 450mmx1.5m  0000001000+00000306+00000+0001T   00000306+0000001740          1400 EM9130               2AZ
114490000114490               114490               170213MI     1400+00000+MI0000013157+0000013157+000000000+000001842+0000014999+0000000000+I40000014999+0000000000+Z
114490001114490261-003350     114490006003000398591GUN FLASHING W/CHEST PL0000001000+00013157+00000+0001T   00017542+0008141746          1400 EM9710               2AZ
114491000114491               114491               170213MI     1400+00000+MI0000013199+0000013199+000000000+000001849+0000015048+0000000000+I40000015048+0000000000+Z
114491001114491018-000136     114491006001023659026MUG OCC LOVE W/PLUSH   0000003000+00003507+00000+0001T   00003507+0000001748          1400 EM9515               2AZ
114491002114491077-000115-B   114491006003000181025GIFT-WRAP PPR 700MMX2M 0000001000+00002630+00000+0001T   00002630+0000001748          1400 EM9112               2AZ
114491003114491112-116069     114491006009681820277TCS CARRIER BAG JUMBO  0000001000+00000048+00000+0001T   00000048+0000001748          1400 EM9090               2AZ
114492000114492               114492               170213MI     1400+00000+MI0000013592+0000013592+000000000+000001905+0000015497+0000000000+I40000015497+0000000000+Z
114492001114492562-000001     114492006009801541556MARLIN PLASTIC ABACUS  0000001000+00005262+00000+0001T   00005262+0000001803          1400 EM9755               2AZ
114492002114492007-010504     114492006002923014960BLACKBOARD EASEL       0000001000+00007893+00000+0001T   00007893+0000001803          1400 EM9130               2AZ
114492003114492071-000212     114492006009608641190CHALK WHITE 12PCE      0000001000+00000437+00000+0001T   00000437+0000001803          1400 EM9130               2AZ
114493000114493               114493               170213MI     1400+00000+MI0000000876+0000000876+000000000+000000123+0000000990+0000000009+I20000000000+0000000990+Z
114493001114493108-001004     114493006003000571161MUG SIPPER W/STRAW 450m0000001000+00000876+00000+0001T   00000876+0000001804          1400 EM9210               2AZ
A17021300                                          09251837MISLAVE 2                       EM91IC
A17021301                                          09254372MISLAVE 2                       EM91IC
A17021302                                          09294561MISLAVE 2                       EM91IC
A17021303                                          10442677MISLAVE 2                       EM91IC
A17021304                                          10490273MISLAVE 2                       EM91IC
A17021305                                          15143065MISLAVE 2                       EM91IC
A17021306                                          15550388MISLAVE 2                       EM91IC
M17021391                              CASH        MISLAVE 2                       Z-REPORT No.   530TOTAL (Sales - Refunds)           8692.11       CASH TO BE BANKED                 3411.70       DEBIT CARDS                          0.00       CREDIT CARDS                      5280.41       Z-READING                         8692.11       AIRTIME DEBIT CARD SALES             0.00       AIRTIME CARD SALES                   0.00       OVERS/UNDERS                         0.00       AIRTIME CASH SALES                   0.00       GIFT CARDS                           0.00       GIFT CARD CASH SALES                 0.00       T O T A L  CASH PAYOUTS              0.00                                                                                                                                                                                                                                                                                                                                                      Z
M17021392                              CASH        MIABSENT                                                                                                                                                                                          ANNUAL LEAVE                                                                                                                                                                                    DAY OFF                                                                                                                                                                                         COMMENTS                                                                                                                                                                                                                                                                                                                                                                                       Z
Y17021300                                          MI00000000764769+000083
ZMI17021320053 SLAVE 2      SALES DATA                     NEXT INVOICE NO.  114494 0530
X MI Slave 2 First invoice 114411 170213 Last invoice 114493 170213 Next invoice 114494 Total number of records 000000373 clbackup completed 20:05:54
