105804000105804               105804               170213MJ     1400+00000+MJ0000003507+0000003507+000000000+000000491+0000003990+0000000008+I20000000000+0000003990+Z
105804001105804079-000013     105804006001023463890P/CRAYONS 24COL 18cm   0000001000+00003507+00000+0001T   00003507+0000000836          1400 AM6130               1BZ
105805000105805               105805               170213MJ     1400+00000+MJ0000010989+0000010989+000000000+000001539+0000012520+0000000008+I20000000000+0000012520+Z
105805001105805563-000318-L   105805006003000407088SERVIETTES 33cm RED    0000002000+00002192+00000+0001T   00002192+0000000849          1400 AM6214               1BZ
105805002105805077-000310     105805006001023608635GIFT-BAG 18X23CM GLOSS 0000005000+00001314+00000+0001T   00001314+0000000849          1400 AM6112               1BZ
105805003105805112-116038     105805006009681820246TCS CARRIER BAG MIDI   0000001000+00000035+00000+0001T   00000035+0000000849          1400 AM6090               1BZ
105806000105806               105806               170213MJ     1400+00000+MJ0000007450+0000007450+000000000+000001045+0000008490+0000000005+I20000000000+0000008490+Z
105806001105806006-000090     105806006001023538505BANNER HAPPY-BIRTHDAY  0000001000+00002192+00000+0001T   00002192+0000000859          1400 AM6131               1BZ
105806002105806039-000319-3   105806006003000442621B/CANDLES LRG NUMBER-3 0000001000+00000876+00000+0001T   00000876+0000000859          1400 AM6510               1BZ
105806003105806006-000223     105806006001023891327PARTY EYE-MASK 6PCE    0000002000+00000876+00000+0001T   00000876+0000000859          1400 AM6131               1BZ
105806004105806077-000270     105806006003000395453GIFT-BAG PPR JMB 33X45 0000001000+00002630+00000+0001T   00002630+0000000859          1400 AM6112               1BZ
105807000105807               105807               170213MJ     1400+00000+MJ0000019342+0000019342+000000000+000002709+0000022050+0000000001+I20000000000+0000022050+Z
105807001105807262-000700     105807006003000013319DIE CAST 7PC FARM PLAY 0000001000+00007016+00000+0001T   00007016+0000000905          1400 AM6710               1BZ
105807002105807263-001681     105807006001023658609FARM-SET F/WHEEL TRACT 0000001000+00008771+00000+0001T   00008771+0000000905          1400 AM6710               1BZ
105807003105807263-000506     105807006001023790231CAR SET 3PK CONSTRUCT  0000001000+00003507+00000+0001T   00003507+0000000905          1400 AM6710               1BZ
105807004105807112-116069     105807006009681820277TCS CARRIER BAG JUMBO  0000001000+00000048+00000+0001T   00000048+0000000905          1400 AM6090               1BZ
105808000105808               105808               170213MJ     1400+00000+MJ0000023677+0000023677+000000000+000003318+0000026995+0000000000+I40000026995+0000000000+Z
105808001105808107-004500     105808006003000150557STEP STOOL PL          0000003000+00007016+00000+0001T   00007016+0000000907          1400 AM6210               1BZ
105808002105808306-000024-A   105808006003000577309COTTON-WOOL-PADS 80PC  0000001000+00001753+00000+0001T   00001753+0000000907          1400 AM6200               1BZ
105808003105808306-000021-A   105808006001023891358EARBUDS COTTON 100PCE  0000001000+00000876+00000+0001T   00000876+0000000907          1400 AM6200               1BZ
105809000105809               105809               170213MJ     1400+00000+MJ0000006139+0000006139+000000000+000000860+0000006999+0000000000+I40000006999+0000000000+Z
105809001105809031-007009     105809006003000467822P/FRAME WDN CERTIFICATE0000001000+00006139+00000+0001T   00006139+0000000908          1400 AM6510               1BZ
105810000105810               105810               170213MJ     1400+00000+MJ0000001578+0000001578+000000000+000000221+0000001799+0000000000+I40000001799+0000000000+Z
105810001105810018-000127     105810006001023380289MUG OCC STRAIGHT LOVE  0000001000+00001578+00000+0001T   00001753+0006470945          1400 AM6515               1BZ
105811000105811               105811               170213MJ     1400+00000+MJ0000014029+0000014029+000000000+000001966+0000015995+0000000000+I40000015995+0000000000+Z
105811001105811039-000332     105811006001023900470CANDLES 8PCE+NUMBERS   0000001000+00002630+00000+0001T   00002630+0000000950          1400 AM6510               1BZ
105811002105811366-006103     105811006001023786944DRESS UP FACE PAINT SET0000001000+00002630+00000+0001T   00002630+0000000950          1400 AM6131               1BZ
105811003105811466-002096     105811006001023800398CATCHBALL VELCRO W/BALL0000001000+00005262+00000+0001T   00005262+0000000950          1400 AM6785               1BZ
105811004105811268-000063     105811006003000305872KITE DELTA 4 ASSTDTD   0000001000+00003507+00000+0001T   00003507+0000000950          1400 AM6785               1BZ
105812000105812               105812               170213MJ     1400+00000+MJ0000003682+0000003682+000000000+000000516+0000004198+0000000000+I40000004198+0000000000+Z
105812001105812033-008209     105812006001023678607MEASURING-TAPE 150cm   0000001000+00000613+00000+0001T   00000613+0000000953          1400 AM6200               1BZ
105812002105812106-000899     105812006003000653287WTR BOTTLE 2L W/HANDLE 0000001000+00003069+00000+0001T   00003507+0008190953          1400 AM6210               1BZ
105813000105813               105813               170213MJ     1400+00000+MJ0000001490+0000001490+000000000+000000209+0000001690+0000000009+I20000000000+0000001690+Z
105813001105813077-000299     105813006003000395576G/BAG 32x25cm LRG LOVE 0000001000+00001490+00000+0001T   00001490+0000000955          1400 AM6112               1BZ
105814000105814               105814               170213MJ     1400+00000+MJ0000017540+0000017540+000000000+000002457+0000019990+0000000007+I20000000000+0000019990+Z
105814001105814486-001001     105814006003000530854W/CLOCK QTZ 30cm ROUND 0000001000+00013157+00000+0001T   00013157+0000001008          1400 AM6510               1BZ
105814002105814077-000908     105814006003000410927G/WRAP 700mmx1m FLOWER 0000001000+00001753+00000+0001T   00001753+0000001008          1400 AM6112               1BZ
105814003105814077-000456     105814006003000285549G/BAG METALLIC JMB EMB 0000001000+00002630+00000+0001T   00002630+0000001008          1400 AM6112               1BZ
105815000105815               105815               170213MJ     1400+00000+MJ0000013157+0000013157+000000000+000001842+0000014990+0000000009+I20000000000+0000014990+Z
105815001105815486-001001     105815006003000530854W/CLOCK QTZ 30cm ROUND 0000001000+00013157+00000+0001T   00013157+0000001011          1400 AM6510               1BZ
105816000105816               105816               170213MJ     1400+00000+MJ0000005262+0000005262+000000000+000000737+0000005990+0000000009+I20000000000+0000005990+Z
105816001105816030-001122     105816006003000253487PLAQUE-WALL W/SAYING   0000001000+00005262+00000+0001T   00007016+0008121013          1400 AM6505               1BZ
105817000105817               105817               170213MJ     1400+00000+MJ0000008815+0000008815+000000000+000001236+0000010051+0000000000+I40000010051+0000000000+Z
105817001105817112-116069     105817006009681820277TCS CARRIER BAG JUMBO  0000001000+00000048+00000+0001T   00000048+0000001034          1400 AM6090               1BZ
105817002105817103-000074     105817006001023691682BASKET BAMBOO 33x21x4cm0000001000+00005262+00000+0001T   00005262+0000001034          1400 AM6300               1BZ
105817003105817072-020308     105817006001023700971DOG-TOY FOOTBALL 11,5cm0000001000+00001753+00000+0001T   00001753+0000001034          1400 AM6870               1BZ
105817004105817077-000151     105817006008766114676GIFT-WRAP C/PHANE ASSTD0000002000+00000876+00000+0001T   00000876+0000001034          1400 AM6112               1BZ
105818000105818               105818               170213MJ     1400+00000+MJ0000022792+0000022792+000000000+000003197+0000025980+0000000009+I20000000000+0000025980+Z
105818001105818039-082852     105818006008766082852C/SET 4PC MINI PILLARS 0000001000+00005262+00000+0001T   00005262+0000001036          1400 AM6510               1BZ
105818002105818016-006518     105818006003000351749S/JAR GLS CHECK 350ML  0000010000+00001753+00000+0001T   00001753+0000001036          1400 AM6300               1BZ
105819000105819               105819               170213MJ     1400+00000+MJ0000010520+0000010520+000000000+000001476+0000011990+0000000006+I20000000000+0000011990+Z
105819001105819567-010825     105819009780799360257BOOK ASSTD CAT 7       0000004000+00002630+00000+0001T   00003507+0008131048          1400 AM6757               1BZ
105820000105820               105820               170213MJ     1400+00000+MJ0000000048+0000000048+000000000+000000007+0000000050+0000000005+I20000000000+0000000050+Z
105820001105820112-116069     105820006009681820277TCS CARRIER BAG JUMBO  0000001000+00000048+00000+0001T   00000048+0000001049          1400 AM6090               1BZ
105821000105821               105821               170213MJ     1400+00000+MJ0000023370+0000023370+000000000+000003276+0000026640+0000000006+I20000000000+0000026640+Z
105821001105821112-116069     105821006009681820277TCS CARRIER BAG JUMBO  0000001000+00000048+00000+0001T   00000048+0000001051          1400 AM6090               1BZ
105821002105821077-000602     105821006003000395545GIFT-BAG MED 18X23CM   0000001000+00001227+00000+0001T   00001227+0000001051          1400 AM6112               1BZ
105821003105821365-004002     105821006001023657992KITCHEN-SET ACCESSORIES0000001000+00004385+00000+0001T   00004385+0000001051          1400 AM6725               1BZ
105821004105821105-000750     105821006003000190270CONTAINERS 4xMINI 150ml0000001000+00001402+00000+0001T   00001402+0000001051          1400 AM6210               1BZ
105821005105821079-000335     105821006003000670550THERAPY P/CRAYONS 30   0000001000+00007016+00000+0001T   00007016+0000001051          1400 AM6130               1BZ
105821006105821077-000299     105821006003000395576G/BAG 32x25cm LRG LOVE 0000001000+00001490+00000+0001T   00001490+0000001051          1400 AM6112               1BZ
105821007105821016-006513     105821006003000295739S/JAR GLS EMBOSS. 950ML0000001000+00003069+00000+0001T   00003069+0000001051          1400 AM6300               1BZ
105821008105821016-006515     105821006003000295555S/JAR GLS EMBOSS. 250ML0000002000+00001753+00000+0001T   00001753+0000001051          1400 AM6300               1BZ
105821009105821077-000322     105821006001023677532GIFT-BAG 18X23CM E/D FL0000001000+00001227+00000+0001T   00001227+0000001051          1400 AM6112               1BZ
105822000105822               105822               170213MJ     1400+00000+MJ0000002192+0000002192+000000000+000000307+0000002490+0000000009+I20000000000+0000002490+Z
105822001105822007-000597     105822006009699511129MARLIN SLF ADHESIVE 2M 0000001000+00002192+00000+0001T   00002192+0000001054          1400 AM6130               1BZ
105823000105823               105823               170213MJ     1400+00000+MJ0000005262+0000005262+000000000+000000737+0000005990+0000000009+I20000000000+0000005990+Z
105823001105823361-000112     105823006003000660261DOLL RAG 30cm          0000001000+00005262+00000+0001T   00005262+0000001152          1400 AM6725               1BZ
105824000105824               105824               170213MJ     1400+00000+MJ0000023194+0000023194+000000000+000003252+0000026446+0000000000+I40000026446+0000000000+Z
105824001105824112-116069     105824006009681820277TCS CARRIER BAG JUMBO  0000001000+00000048+00000+0001T   00000048+0000001156          1400 AM6090               1BZ
105824002105824049-004582     105824006001023842923DOORMAT HALF-MOON 40x600000002000+00007016+00000+0001T   00007016+0000001156          1400 AM6510               1BZ
105824003105824039-000026     105824006001023551610C/TAPERED 25CM M/RED   0000002000+00001051+00000+0001T   00001051+0000001156          1400 AM6510               1BZ
105824004105824018-000170     105824006001023775528MUG OCC. LOVE 2PC MINI 0000001000+00002192+00000+0001T   00002192+0000001156          1400 AM6515               1BZ
105824005105824040-000923     105824006001023587831CANDLE-HOLDER GLS 13.5 0000002000+00001753+00000+0001T   00001753+0000001156          1400 AM6510               1BZ
105824006105824040-000183     105824006001023900784CANDLE-HLDR CERAMIC 6cm0000001000+00001314+00000+0001T   00001753+0008171156          1400 AM6510               1BZ
105825000105825               105825               170213MJ     1400+00000+MJ0000001928+0000001928+000000000+000000270+0000002190+0000000008+I20000000000+0000002190+Z
105825001105825903-000843     105825008693029031067SWT GUMMY JELAXY 80G   0000002000+00000964+00000+0001T   00000964+0000001257          1400 AM6150               1BZ
105826000105826               105826               170213MJ     1400+00000+MJ0000015206+0000015206+000000000+000002130+0000017330+0000000006+I20000000000+0000017330+Z
105826001105826369-000045     105826006003000164196BABY TOY EDU MOBILE PHN0000001000+00010174+00000+0001T   00010174+0000001259          1400 AM6745               1BZ
105826002105826065-006040     105826006003000118984BELL WDN HANDLE 19cm   0000001000+00003507+00000+0001T   00003507+0000001259          1400 AM6745               1BZ
105826003105826065-003699     105826006001023690883FLUTE RECORDER PL      0000001000+00001490+00000+0001T   00001490+0000001259          1400 AM6745               1BZ
105826004105826112-116038     105826006009681820246TCS CARRIER BAG MIDI   0000001000+00000035+00000+0001T   00000035+0000001259          1400 AM6090               1BZ
105827000105827               105827               170213MJ     1400+00000+MJ0000027129+0000027129+000000000+000003803+0000030930+0000000002+I20000000000+0000030930+Z
105827001105827112-116069     105827006009681820277TCS CARRIER BAG JUMBO  0000001000+00000048+00000+0001T   00000048+0000001308          1400 AM6090               1BZ
105827002105827304-001011     105827006001023806727FLWR ROSE RED W/BEAR   0000017000+00000613+00000+0001T   00000788+0006471308          1400 AM6510               1BZ
105827003105827082-000126     105827006003000646517READING GLASS TWIN 2.5 0000001000+00007893+00000+0001T   00007893+0000001308          1400 AM6160               1BZ
105827004105827006-000166-D   105827006003000516490BALLOONS LRG 6PC RED   0000001000+00001314+00000+0001T   00001314+0000001308          1400 AM6131               1BZ
105827005105827563-000318-L   105827006003000407088SERVIETTES 33cm RED    0000001000+00002192+00000+0001T   00002192+0000001308          1400 AM6214               1BZ
105827006105827078-000025     105827008887013700064SUPERGLUE 3g 1PCE CARD 0000001000+00000876+00000+0001T   00000876+0000001308          1400 AM6810               1BZ
105827007105827083-000076     105827006001023847171LIGHTER LONG-REACH 28cm0000001000+00004385+00000+0001T   00004385+0000001308          1400 AM6315               1BZ
105828000105828               105828               170213MJ     1400+00000+MJ0000003331+0000003331+000000000+000000467+0000003790+0000000008+I20000000000+0000003790+Z
105828001105828903-000083     105828006001704014090SWT TUBE SPECKLED 115G 0000001000+00002192+00000+0001T   00002192+0000001316          1400 AM6150               1BZ
105828002105828903-000087     105828006001704000161SWT SPECKLED-EGGS 50G  0000001000+00001139+00000+0001T   00001139+0000001316          1400 AM6150               1BZ
105829000105829               105829               170213MJ     1400+00000+MJ0000001753+0000001753+000000000+000000246+0000001990+0000000009+I20000000000+0000001990+Z
105829001105829200-003024     105829006001023657299REFUSE BAGS 20PCE BLACK0000001000+00001753+00000+0001T   00001753+0000001329          1400 AM6214               1BZ
105830000105830               105830               170213MJ     1400+00000+MJ0000031431+0000031431+000000000+000004403+0000035830+0000000004+I20000000000+0000035830+Z
105830001105830112-116069     105830006009681820277TCS CARRIER BAG JUMBO  0000001000+00000048+00000+0001T   00000048+0000001340          1400 AM6090               1BZ
105830002105830039-000798     105830006001023617774CANDLES TEALITE BOX-50 0000001000+00006139+00000+0001T   00006139+0000001340          1400 AM6510               1BZ
105830003105830018-000136     105830006001023659026MUG OCC LOVE W/PLUSH   0000001000+00003507+00000+0001T   00003507+0000001340          1400 AM6515               1BZ
105830004105830077-000303     105830006001023593757GIFT-BAG PAPER MED     0000002000+00001578+00000+0001T   00001578+0000001340          1400 AM6112               1BZ
105830005105830006-000166-H   105830006003000608096BALLOONS HELIUM 6PC WHT0000003000+00001314+00000+0001T   00001314+0000001340          1400 AM6131               1BZ
105830006105830077-000299     105830006003000395576G/BAG 32x25cm LRG LOVE 0000001000+00001490+00000+0001T   00001490+0000001340          1400 AM6112               1BZ
105830007105830077-000454     105830006003000285266G/BAG METALLIC LRG EMB 0000001000+00001753+00000+0001T   00001753+0000001340          1400 AM6112               1BZ
105830008105830563-000318-L   105830006003000407088SERVIETTES 33cm RED    0000004000+00002192+00000+0001T   00002192+0000001340          1400 AM6214               1BZ
105830009105830563-000317-B   105830006001023776174SERVIETTES PLN WHT PK400000002000+00001314+00000+0001T   00001314+0000001340          1400 AM6214               1BZ
105831000105831               105831               170213MJ     1400+00000+MJ0000002628+0000002628+000000000+000000368+0000002990+0000000006+I20000000000+0000002990+Z
105831001105831903-000194     105831006009826020616SWT CHOC RP LOLLY 25G  0000002000+00001314+00000+0001T   00001314+0000001401          1400 AM6150               1BZ
105832000105832               105832               170213MJ     1400+00000+MJ0000006663+0000006663+000000000+000000933+0000007590+0000000006+I20000000000+0000007590+Z
105832001105832077-000303     105832006001023593757GIFT-BAG PAPER MED     0000001000+00001578+00000+0001T   00001578+0000001404          1400 AM6112               1BZ
105832002105832001-000175     105832006001023788108B/MUG GLS LOVE 380ML   0000001000+00004385+00000+0001T   00004385+0000001404          1400 AM6515               1BZ
105832003105832018-000177     105832006001023797513MUG MINI LOVE ASSTD    0000001000+00000700+00000+0001T   00000700+0000001404          1400 AM6515               1BZ
105833000105833               105833               170213MJ     1400+00000+MJ0000005961+0000005961+000000000+000000835+0000006796+0000000000+I40000006796+0000000000+Z
105833001105833002-000970     105833006001023770578FUNNELS 3PCE WHITE     0000002000+00001227+00000+0001T   00001227+0000001409          1400 AM6300               1BZ
105833002105833002-012271     105833006001023849120TONGS 23cm RUBBER-GRIP 0000001000+00003507+00000+0001T   00003507+0000001409          1400 AM6300               1BZ
105834000105834               105834               170213MJ     1400+00000+MJ0000002192+0000002192+000000000+000000307+0000002490+0000000009+I20000000000+0000002490+Z
105834001105834046-000012-A   105834006003000208296BATTERIES H/POWER SZ:AA0000001000+00002192+00000+0001T   00002192+0000001410          1400 AM6312               1BZ
105835000105835               105835               170213MJ     1400+00000+MJ0000006663+0000006663+000000000+000000933+0000007596+0000000000+I40000007596+0000000000+Z
105835001105835077-000303     105835006001023593757GIFT-BAG PAPER MED     0000001000+00001578+00000+0001T   00001578+0000001422          1400 AM6112               1BZ
105835002105835018-000177     105835006001023797513MUG MINI LOVE ASSTD    0000001000+00000700+00000+0001T   00000700+0000001422          1400 AM6515               1BZ
105835003105835368-000049     105835006003000536955PLUSH BEAR 15cm LOVE   0000001000+00004385+00000+0001T   00004385+0000001422          1400 AM6745               1BZ
105836000105836               105836               170213MJ     1400+00000+MJ0000014033+0000014033+000000000+000001965+0000015990+0000000008+I20000000000+0000015990+Z
105836001105836565-004004     105836006001023744357NOVELTY INSCT COLLECTOR0000001000+00005262+00000+0001T   00005262+0000001423          1400 AM6745               1BZ
105836002105836586-011943     105836006001492119434WATCH KIDS BEZEL STRAP 0000001000+00008771+00000+0001T   00008771+0000001423          1400 AM6160               1BZ
105837000105837               105837               170213MJ     1400+00000+MJ0000006174+0000006174+000000000+000000865+0000007030+0000000009+I20000000000+0000007030+Z
105837001105837486-001011     105837006003000057115ALARM-CLOCK PL 13x13cm 0000001000+00006139+00000+0001T   00006139+0000001426          1400 AM6510               1BZ
105837002105837112-116038     105837006009681820246TCS CARRIER BAG MIDI   0000001000+00000035+00000+0001T   00000035+0000001426          1400 AM6090               1BZ
105838000105838               105838               170213MJ     1400+00000+MJ0000006611+0000006611+000000000+000000927+0000007538+0000000000+I40000007538+0000000000+Z
105838001105838036-000350     105838006003000247776HANGER MTL (FOR SCARVES0000001000+00006139+00000+0001T   00006139+0000001430          1400 AM6212               1BZ
105838002105838112-116038     105838006009681820246TCS CARRIER BAG MIDI   0000001000+00000035+00000+0001T   00000035+0000001430          1400 AM6090               1BZ
105838003105838080-000133-A   105838006003000647019MINI VALENTINES CARD   0000001000+00000437+00000+0001T   00000437+0000001430          1400 AM6112               1BZ
105839000105839               105839               170213MJ     1400+00000+MJ0000033985+0000033985+000000000+000004762+0000038747+0000000000+I40000038747+0000000000+Z
105839001105839563-000318-L   105839006003000407088SERVIETTES 33cm RED    0000001000+00002192+00000+0001T   00002192+0000001439          1400 AM6214               1AZ
105839002105839077-000299     105839006003000395576G/BAG 32x25cm LRG LOVE 0000001000+00001490+00000+0001T   00001490+0000001439          1400 AM6112               1AZ
105839003105839486-001002     105839006001023800008A/CLOCK QUARTZ 13x11cm 0000001000+00007016+00000+0001T   00007016+0000001439          1400 AM6510               1AZ
105839004105839368-000111     105839006001023780812PLUSH BEAR/DOG 29CM    0000001000+00012279+00000+0001T   00012279+0000001439          1400 AM6745               1AZ
105839005105839080-000133-A   105839006003000647019MINI VALENTINES CARD   0000001000+00000437+00000+0001T   00000437+0000001439          1400 AM6112               1AZ
105839006105839079-001001     105839006003000448593CANVAS A3 WOOD MOUNTED 0000002000+00004385+00000+0001T   00004385+0000001439          1400 AM6130               1AZ
105839007105839903-000619     105839006003000672455SWT LOLLY STR/BRRY 140G0000001000+00001753+00000+0001T   00001753+0000001439          1400 AM6150               1AZ
105839008105839112-116069     105839006009681820277TCS CARRIER BAG JUMBO  0000001000+00000048+00000+0001T   00000048+0000001439          1400 AM6090               1AZ
105840000105840               105840               170213MJ     1400+00000+MJ0000008988+0000008988+000000000+000001261+0000010240+0000000009+I20000000000+0000010240+Z
105840001105840016-006516     105840006003000351503S/JAR GLS CHECK 150ML  0000006000+00001490+00000+0001T   00001490+0000001442          1400 AM6300               1AZ
105840002105840112-116069     105840006009681820277TCS CARRIER BAG JUMBO  0000001000+00000048+00000+0001T   00000048+0000001442          1400 AM6090               1AZ
105841000105841               105841               170213MJ     1400+00000+MJ0000016708+0000016708+000000000+000002342+0000019050+0000000000+I40000019050+0000000000+Z
105841001105841903-000006     105841006923431571571SWEET GS SOUR BELT 50g 0000002000+00000876+00000+0001T   00000876+0000001448          1400 AM6150               1AZ
105841002105841079-105802     105841006003000543250BAG COLOUR-MY-CLUTCHBAG0000001000+00006139+00000+0001T   00006139+0000001448          1400 AM6130               1AZ
105841003105841566-000007     105841006001023761187S/BOOK SUPER VALUE     0000001000+00001753+00000+0001T   00001753+0000001448          1400 AM6130               1AZ
105841004105841368-000021     105841006003000672141PLUSH DINOSAUR 27cm    0000001000+00007016+00000+0001T   00007016+0000001448          1400 AM6745               1AZ
105841005105841112-116069     105841006009681820277TCS CARRIER BAG JUMBO  0000001000+00000048+00000+0001T   00000048+0000001448          1400 AM6090               1AZ
105842000105842               105842               170213MJ     1400+00000+MJ0000001490+0000001490+000000000+000000209+0000001699+0000000000+I40000001699+0000000000+Z
105842001105842464-000106     105842006001023171153PLAYING-CARDS (SINGLE) 0000001000+00001490+00000+0001T   00001490+0000001532          1400 AM6785               1BZ
105843000105843               105843               170213MJ     1400+00000+MJ0000013190+0000013190+000000000+000001847+0000015037+0000000000+I40000015037+0000000000+Z
105843001105843368-000049     105843006003000536955PLUSH BEAR 15cm LOVE   0000003000+00004385+00000+0001T   00004385+0000001547          1400 AM6745               1BZ
105843002105843112-116038     105843006009681820246TCS CARRIER BAG MIDI   0000001000+00000035+00000+0001T   00000035+0000001547          1400 AM6090               1BZ
105844000105844               105844               170213MJ     1400+00000+MJ0000001139+0000001139+000000000+000000160+0000001290+0000000009+I20000000000+0000001290+Z
105844001105844903-000087     105844006001704000161SWT SPECKLED-EGGS 50G  0000001000+00001139+00000+0001T   00001139+0000001548          1400 AM6150               1BZ
105845000105845               105845               170213MJ     1400+00000+MJ0000004385+0000004385+000000000+000000614+0000004990+0000000009+I20000000000+0000004990+Z
105845001105845018-030000     105845006003000421060MUG OCCASIONS LOVE 2PCE0000001000+00004385+00000+0001T   00004385+0000001548          1400 AM6515               1BZ
105846000105846               105846               170213MJ     1400+00000+MJ0000007838+0000007838+000000000+000001098+0000008930+0000000006+I20000000000+0000008930+Z
105846001105846903-004960     105846008410525221842SWT GUMMY STR/BERRY 50G0000001000+00000964+00000+0001T   00000964+0000001550          1400 AM6150               1BZ
105846002105846077-000303     105846006001023593757GIFT-BAG PAPER MED     0000001000+00001578+00000+0001T   00001578+0000001550          1400 AM6112               1BZ
105846003105846018-030000     105846006003000421060MUG OCCASIONS LOVE 2PCE0000001000+00004385+00000+0001T   00004385+0000001550          1400 AM6515               1BZ
105846004105846077-000151     105846006008766114676GIFT-WRAP C/PHANE ASSTD0000001000+00000876+00000+0001T   00000876+0000001550          1400 AM6112               1BZ
105846005105846112-116038     105846006009681820246TCS CARRIER BAG MIDI   0000001000+00000035+00000+0001T   00000035+0000001550          1400 AM6090               1BZ
105847000105847               105847               170213MJ     1400+00000+MJ0000003243+0000003243+000000000+000000455+0000003690+0000000008+I20000000000+0000003690+Z
105847001105847077-000399     105847006003000139514GIFT BAG 18X23CM E/DAY 0000001000+00001490+00000+0001T   00001490+0000001551          1400 AM6112               1BZ
105847002105847077-000377     105847006003000512904GIFT-BAG VALUE 2-PACK  0000001000+00001753+00000+0001T   00001753+0000001551          1400 AM6112               1BZ
105848000105848               105848               170213MJ     1400+00000+MJ0000011219+0000011219+000000000+000001574+0000012790+0000000003+I20000000000+0000012790+Z
105848001105848162-097714     105848006001492977140#TAG KIDS 3PK STUD     0000001000+00004385+00000+0001T   00004385+0000001552          1400 AM6160               1BZ
105848002105848903-000809     105848006009680772232SWT CANDY FROOTEEZ 50g 0000001000+00000876+00000+0001T   00000876+0000001552          1400 AM6150               1BZ
105848003105848566-000308     105848006003000522521STICKER TAPE 3PCS      0000001000+00002630+00000+0001T   00002630+0000001552          1400 AM6130               1BZ
105848004105848903-000809     105848006009680772232SWT CANDY FROOTEEZ 50g 0000002000+00000876+00000+0001T   00000876+0000001552          1400 AM6150               1BZ
105848005105848903-000895     105848006009680772256SWT MINI BOTZ S/BERRY  0000001000+00000788+00000+0001T   00000788+0000001552          1400 AM6150               1BZ
105848006105848903-000896     105848006009680772270SWT BITZ BL/CURRANT 50G0000001000+00000788+00000+0001T   00000788+0000001552          1400 AM6150               1BZ
105849000105849               105849               170213MJ     1400+00000+MJ0000010260+0000010260+000000000+000001437+0000011690+0000000007+I20000000000+0000011690+Z
105849001105849031-080508     105849006001023802415P/FRAME PL 22X11CM LOVE0000001000+00004385+00000+0001T   00004385+0000001554          1400 AM6510               1BZ
105849002105849018-030000     105849006003000421060MUG OCCASIONS LOVE 2PCE0000001000+00004385+00000+0001T   00004385+0000001554          1400 AM6515               1BZ
105849003105849077-000299     105849006003000395576G/BAG 32x25cm LRG LOVE 0000001000+00001490+00000+0001T   00001490+0000001554          1400 AM6112               1BZ
105850000105850               105850               170213MJ     1400+00000+MJ0000001226+0000001226+000000000+000000172+0000001390+0000000008+I20000000000+0000001390+Z
105850001105850006-001000     105850006003000093779HELIUM BALLOON FILL    0000002000+00000613+00000+0001T   00000613+0000001555          1400 AM6131               1BZ
105851000105851               105851               170213MJ     1400+00000+MJ0000001227+0000001227+000000000+000000172+0000001390+0000000009+I20000000000+0000001390+Z
105851001105851077-000322     105851006001023677532GIFT-BAG 18X23CM E/D FL0000001000+00001227+00000+0001T   00001227+0000001556          1400 AM6112               1BZ
105852000105852               105852               170213MJ     1400+00000+MJ0000013723+0000013723+000000000+000001924+0000015640+0000000007+I20000000000+0000015640+Z
105852001105852040-000210     105852006003000657810CANDLE+HOLDER GLS 6cm  0000002000+00001139+00000+0001T   00001139+0000001601          1400 AM6510               1BZ
105852002105852040-000181     105852006001023870575C/HOLDER GLS ROUND     0000001000+00001753+00000+0001T   00001753+0000001601          1400 AM6510               1BZ
105852003105852039-080941     105852006001023669841CANDLE PILLAR WHT 7X7CM0000001000+00003507+00000+0001T   00003507+0000001601          1400 AM6510               1BZ
105852004105852563-000318-L   105852006003000407088SERVIETTES 33cm RED    0000001000+00002192+00000+0001T   00002192+0000001601          1400 AM6214               1BZ
105852005105852039-000635     105852006001023774521CANDLE VTV 4PC WHITE   0000001000+00002192+00000+0001T   00002192+0000001601          1400 AM6510               1BZ
105852006105852077-000289     105852006001023901996GIFT BOX 20x25x11cm    0000001000+00001753+00000+0001T   00001753+0000001601          1400 AM6112               1BZ
105852007105852112-116069     105852006009681820277TCS CARRIER BAG JUMBO  0000001000+00000048+00000+0001T   00000048+0000001601          1400 AM6090               1BZ
105853000105853               105853               170213MJ     1400+00000+MJ0000010347+0000010347+000000000+000001450+0000011790+0000000007+I20000000000+0000011790+Z
105853001105853203-000006     105853006001023752789COASTER-SET 4PCE       0000001000+00007016+00000+0001T   00008771+0008191602          1400 AM6300               1BZ
105853002105853039-001023     105853006003000466337CANDLE TEA-LITE METALIC0000001000+00001753+00000+0001T   00001753+0000001602          1400 AM6510               1BZ
105853003105853018-000127     105853006001023380289MUG OCC STRAIGHT LOVE  0000001000+00001578+00000+0001T   00001753+0006471602          1400 AM6515               1BZ
105854000105854               105854               170213MJ     1400+00000+MJ0000013464+0000013464+000000000+000001886+0000015350+0000000000+I40000015350+0000000000+Z
105854001105854018-030000     105854006003000421060MUG OCCASIONS LOVE 2PCE0000002000+00004385+00000+0001T   00004385+0000001614          1400 AM6515               1BZ
105854002105854077-000303     105854006001023593757GIFT-BAG PAPER MED     0000002000+00001578+00000+0001T   00001578+0000001614          1400 AM6112               1BZ
105854003105854077-000299     105854006003000395576G/BAG 32x25cm LRG LOVE 0000001000+00001490+00000+0001T   00001490+0000001614          1400 AM6112               1BZ
105854004105854112-116069     105854006009681820277TCS CARRIER BAG JUMBO  0000001000+00000048+00000+0001T   00000048+0000001614          1400 AM6090               1BZ
105855000105855               105855               170213MJ     1400+00000+MJ0000001402+0000001402+000000000+000000197+0000001590+0000000009+I20000000000+0000001590+Z
105855001105855304-001204     105855006001023737984FLOWER OCC. TEDDY/ROSES0000001000+00001402+00000+0001T   00001490+0006471614          1400 AM6510               1BZ
105856000105856               105856               170213MJ     1400+00000+MJ0000003243+0000003243+000000000+000000455+0000003690+0000000008+I20000000000+0000003690+Z
105856001105856077-000472     105856006003000330133G-BAG DESGNR LRG 25X32 0000001000+00001753+00000+0001T   00001753+0000001616          1400 AM6112               1BZ
105856002105856077-000304     105856006001023483232GIFT-BAG 25X32CM E/DAY 0000001000+00001490+00000+0001T   00001490+0000001616          1400 AM6112               1BZ
105857000105857               105857               170213MJ     1400+00000+MJ0000001578+0000001578+000000000+000000221+0000001790+0000000009+I20000000000+0000001790+Z
105857001105857018-000127     105857006001023380289MUG OCC STRAIGHT LOVE  0000001000+00001578+00000+0001T   00001753+0006471618          1400 AM6515               1BZ
105858000105858               105858               170213MJ     1400+00000+MJ0000002278+0000002278+000000000+000000320+0000002590+0000000008+I20000000000+0000002590+Z
105858001105858304-001204     105858006001023737984FLOWER OCC. TEDDY/ROSES0000001000+00001402+00000+0001T   00001490+0006471621          1400 AM6510               1BZ
105858002105858082-026204     105858006001023816443R/GLASSES STRINGS 2PCE 0000001000+00000876+00000+0001T   00000876+0000001621          1400 AM6160               1BZ
105859000105859               105859               170213MJ     1400+00000+MJ0000001314+0000001314+000000000+000000184+0000001490+0000000008+I20000000000+0000001490+Z
105859001105859107-004105     105859006002923010504BUCKET 9L OPEN         0000001000+00001314+00000+0001T   00001314+0000001623          1400 AM6210               1BZ
105860000105860               105860               170213MJ     1400+00000+MJ0000003507+0000003507+000000000+000000491+0000003990+0000000008+I20000000000+0000003990+Z
105860001105860018-005009     105860006001023725608MUG W/PLUSH-BEAR LOVE  0000001000+00003507+00000+0001T   00003507+0000001629          1400 AM6515               1BZ
105861000105861               105861               170213MJ     1400+00000+MJ0000004385-0000004385-000000000+000000614-0000005000-0000000001+I20000000000+0000005000-Z
105861001105861031-000001-A   105861006003000246908P/FRAME GLS LOVE 9X13cm0000001000-00004385+00000+0001T   00004385+0000001653          1400 AM65102IC            1 Z
105862000105862               105862               170213MJ     1400+00000+MJ0000004385+0000004385+000000000+000000614+0000004990+0000000009+I20000000000+0000004990+Z
105862001105862031-000001-A   105862006003000246908P/FRAME GLS LOVE 9X13cm0000001000+00004385+00000+0001T   00004385+0000001654          1400 AM6510               1AZ
105863000105863               105863               170213MJ     1400+00000+MJ0000006609+0000006609+000000000+000000927+0000007536+0000000000+I40000007536+0000000000+Z
105863001105863024-091100     105863006001023914224BAKING-CUPS PAPER 100PC0000002000+00001753+00000+0001T   00001753+0000001657          1400 AM6300               1BZ
105863002105863002-000878     105863006001023770967STRAINER TEA WIRE 7cm  0000001000+00001490+00000+0001T   00001490+0000001657          1400 AM6300               1BZ
105863003105863077-000315     105863006003000181186GIFT-BAG 20x28cm MATT  0000001000+00001578+00000+0001T   00001578+0000001657          1400 AM6112               1BZ
105863004105863112-116038     105863006009681820246TCS CARRIER BAG MIDI   0000001000+00000035+00000+0001T   00000035+0000001657          1400 AM6090               1BZ
105864000105864               105864               170213MJ     1400+00000+MJ0000005307+0000005307+000000000+000000745+0000006052+0000000000+I40000006052+0000000000+Z
105864001105864007-000192     105864006009635830062BOOK H/COVER A4 192PAGE0000003000+00001753+00000+0001T   00001753+0000001700          1400 AM6130               1BZ
105864002105864112-116069     105864006009681820277TCS CARRIER BAG JUMBO  0000001000+00000048+00000+0001T   00000048+0000001700          1400 AM6090               1BZ
105865000105865               105865               170213MJ     1400+00000+MJ0000005262+0000005262+000000000+000000737+0000005990+0000000009+I20000000000+0000005990+Z
105865001105865158-003092     105865006003000621644PAPER TOWEL HOLDER CHR 0000001000+00005262+00000+0001T   00005262+0000001705          1400 AM6300               1BZ
105866000105866               105866               170213MJ     1400+00000+MJ0000004383+0000004383+000000000+000000614+0000004990+0000000007+I20000000000+0000004990+Z
105866001105866089-000192-A   105866006001023901774KEY-CHAIN ACRYLIC      0000001000+00000876+00000+0001T   00000876+0000001706          1400 AM6205               1BZ
105866002105866301-085004     105866006003000420469ORN LOVE PLAQUE 21X10CM0000001000+00003507+00000+0001T   00003946+0006471706          1400 AM6505               1BZ
105867000105867               105867               170213MJ     1400+00000+MJ0000005699+0000005699+000000000+000000798+0000006497+0000000000+I40000006497+0000000000+Z
105867001105867007-000046     105867006009635831366DISPLAY-BOOK PL A4 30PG0000001000+00002192+00000+0001T   00002192+0000001711          1400 AM6130               1BZ
105867002105867368-000120     105867006003000511969PLUSH LOVE DOG 24cm    0000001000+00003507+00000+0001T   00004385+0008141711          1400 AM6745               1BZ
105868000105868               105868               170213MJ     1400+00000+MJ0000004235+0000004235+000000000+000000593+0000004820+0000000008+I20000000000+0000004820+Z
105868001105868903-000120     105868006002099001665SWEET GS ZILLIONS 50g  0000002000+00000700+00000+0001T   00000700+0000001713          1400 AM6150               1BZ
105868002105868018-000177     105868006001023797513MUG MINI LOVE ASSTD    0000004000+00000700+00000+0001T   00000700+0000001713          1400 AM6515               1BZ
105868003105868112-116038     105868006009681820246TCS CARRIER BAG MIDI   0000001000+00000035+00000+0001T   00000035+0000001713          1400 AM6090               1BZ
105869000105869               105869               170213MJ     1400+00000+MJ0000004207+0000004207+000000000+000000589+0000004790+0000000006+I20000000000+0000004790+Z
105869001105869018-000136     105869006001023659026MUG OCC LOVE W/PLUSH   0000001000+00003507+00000+0001T   00003507+0000001714          1400 AM6515               1BZ
105869002105869903-000120     105869006002099001665SWEET GS ZILLIONS 50g  0000001000+00000700+00000+0001T   00000700+0000001714          1400 AM6150               1BZ
105870000105870               105870               170213MJ     1400+00000+MJ0000003507+0000003507+000000000+000000491+0000003998+0000000000+I40000003998+0000000000+Z
105870001105870077-000465     105870006003000681570GIFT-BAG MTLC GLIT LRG 0000001000+00003507+00000+0001T   00003507+0000001741          1400 AM6112               1BZ
105871000105871               105871               170213MJ     1400+00000+MJ0000003331+0000003331+000000000+000000467+0000003790+0000000008+I20000000000+0000003790+Z
105871001105871903-000619     105871006003000672455SWT LOLLY STR/BRRY 140G0000001000+00001753+00000+0001T   00001753+0000001742          1400 AM6150               1BZ
105871002105871077-000303     105871006001023593757GIFT-BAG PAPER MED     0000001000+00001578+00000+0001T   00001578+0000001742          1400 AM6112               1BZ
A17021300                                          10530478MJSLAVE 1                       AM62IC
A17021301                                          11170721MJSLAVE 1                       AM62IC
A17021302                                          12140619MJSLAVE 1                       AM62IC
A17021303                                          12351937MJSLAVE 1                       AM62IC
A17021304                                          12570793MJSLAVE 1                       AM62IC
M17021391                              CASH        MJSLAVE 1                       Z-REPORT No.   547TOTAL (Sales - Refunds)           6427.19       CASH TO BE BANKED                 4143.00       DEBIT CARDS                          0.00       CREDIT CARDS                      2283.79       Z-READING                         6427.19       AIRTIME DEBIT CARD SALES             0.00       AIRTIME CARD SALES                   0.00       OVERS/UNDERS                         0.40-      AIRTIME CASH SALES                   0.00       GIFT CARDS                           0.00       GIFT CARD CASH SALES                 0.00       T O T A L  CASH PAYOUTS              0.00                                                                                                                                                                                                                                                                                                                                                      Z
M17021392                              CASH        MJABSENT                                                                                                                                                                                          ANNUAL LEAVE                                                                                                                                                                                    DAY OFF                                                                                                                                                                                         COMMENTS                                                                                                                                                                                                                                                                                                                                                                                       Z
Y17021300                                          MJ00000000568417+000067
ZMJ17021320053 SLAVE 1      SALES DATA                     NEXT INVOICE NO.  105872 0547
X MJ Slave 1 First invoice 105804 170213 Last invoice 105871 170213 Next invoice 105872 Total number of records 000000253 clbackup completed 20:05:36
