203981000203981               203981               170213MJ     1400+00000+MJ0000008771+0000008771+000000000+000001228+0000009990+0000000009+I20000000000+0000009990+Z
203981001203981031-000924     203981006001023669964P/FRAME COLLAGE PL     0000001000+00008771+00000+0001T   00008771+0000000840          1400 S50510               2AZ
203982000203982               203982               170213MJ     1400+00000+MJ0000010963+0000010963+000000000+000001535+0000012498+0000000000+I40000012498+0000000000+Z
203982001203982019-000080     203982006001023775740VASE GLS FLORIST BALL  0000001000+00008771+00000+0001T   00008771+0000000929          1400 S50510               2AZ
203982002203982563-000318-K   203982006003000404841SERVIETTES 33cm L/BLUE 0000001000+00002192+00000+0001T   00002192+0000000929          1400 S50214               2AZ
203983000203983               203983               170213MJ     1400+00000+MJ0000004385+0000004385+000000000+000000614+0000004990+0000000009+I20000000000+0000004990+Z
203983001203983004-071264     203983006003000427420MOUSEPAD+COASTER DAD   0000001000+00004385+00000+0001T   00006139+0008191057          1400 S50310               2AZ
203984000203984               203984               170213MJ     1400+00000+MJ0000000874+0000000874+000000000+000000124+0000000990+0000000008+I20000000000+0000000990+Z
203984001203984080-000133-A   203984006003000647019MINI VALENTINES CARD   0000002000+00000437+00000+0001T   00000437+0000001110          1400 S50112               2AZ
203985000203985               203985               170213MJ     1400+00000+MJ0000008241+0000008241+000000000+000001154+0000009395+0000000000+I40000009395+0000000000+Z
203985001203985017-000200     203985006003000238965PRINTED ASSTD 100-PHOTO0000001000+00003507+00000+0001T   00003507+0000001151          1400 S50510               2AZ
203985002203985077-000602     203985006003000395545GIFT-BAG MED 18X23CM   0000001000+00001227+00000+0001T   00001227+0000001151          1400 S50112               2AZ
203985003203985084-000364     203985006001023624581MANICURE-SET 7PCE LTHR 0000001000+00003507+00000+0001T   00003507+0000001151          1400 S50200               2AZ
203986000203986               203986               170213MJ     1400+00000+MJ0000005031+0000005031+000000000+000000706+0000005737+0000000000+I40000005737+0000000000+Z
203986001203986567-011015     203986006003000370030BK CHILDREN'S READER   0000002000+00001753+00000+0001T   00002630+0008131155          1400 S50757               2AZ
203986002203986071-081100-A   203986006003000326426GLUE-STICK 25g 2pk     0000001000+00001490+00000+0001T   00001490+0000001155          1400 S50130               2AZ
203986003203986112-116038     203986006009681820246TCS CARRIER BAG MIDI   0000001000+00000035+00000+0001T   00000035+0000001155          1400 S50090               2AZ
203987000203987               203987               170213MJ     1400+00000+MJ0000006138+0000006138+000000000+000000860+0000006990+0000000008+I20000000000+0000006990+Z
203987001203987082-007584     203987006003000653973SUNGLASS DESIGNER ASST 0000001000+00004385+00000+0001T   00004385+0000001157          1400 S50160               2AZ
203987002203987200-003024     203987006001023657299REFUSE BAGS 20PCE BLACK0000001000+00001753+00000+0001T   00001753+0000001157          1400 S50214               2AZ
203988000203988               203988               170213MJ     1400+00000+MJ0000005260+0000005260+000000000+000000738+0000005990+0000000008+I20000000000+0000005990+Z
203988001203988077-000475     203988006003000640775GIFT-BAG DESIGNER MED  0000002000+00002630+00000+0001T   00002630+0000001210          1400 S50112               2AZ
203989000203989               203989               170213MJ     1400+00000+MJ0000004385+0000004385+000000000+000000614+0000004990+0000000009+I20000000000+0000004990+Z
203989001203989031-080508     203989006001023802415P/FRAME PL 22X11CM LOVE0000001000+00004385+00000+0001T   00004385+0000001226          1400 S50510               2AZ
203990000203990               203990               170213MJ     1400+00000+MJ0000004385+0000004385+000000000+000000614+0000004999+0000000000+I40000004999+0000000000+Z
203990001203990082-007584     203990006003000653973SUNGLASS DESIGNER ASST 0000001000+00004385+00000+0001T   00004385+0000001230          1400 S50160               2AZ
203991000203991               203991               170213MJ     1400+00000+MJ0000007888+0000007888+000000000+000001106+0000008990+0000000004+I20000000000+0000008990+Z
203991001203991903-000194     203991006009826020616SWT CHOC RP LOLLY 25G  0000002000+00001314+00000+0001T   00001314+0000001231          1400 S50150               2AZ
203991002203991019-071594     203991006003000505579PEBBLES GLS 250g RED   0000002000+00002630+00000+0001T   00002630+0000001231          1400 S50510               2AZ
203992000203992               203992               170213MJ     1400+00000+MJ0000001314+0000001314+000000000+000000184+0000001490+0000000008+I20000000000+0000001490+Z
203992001203992033-005906-B   203992006001023727848S/LACES RND 90cm ASSTD 0000001000+00001314+00000+0001T   00001314+0000001232          1400 S50200               2AZ
203993000203993               203993               170213MJ     1400+00000+MJ0000001753+0000001753+000000000+000000246+0000001990+0000000009+I20000000000+0000001990+Z
203993001203993078-000030     203993006003000151141YAMAYO SUPERGLUE 8g    0000001000+00001753+00000+0001T   00001753+0000001244          1400 S50810               2AZ
203994000203994               203994               170213MJ     1400+00000+MJ0000009680+0000009680+000000000+000001356+0000011036+0000000000+I40000011036+0000000000+Z
203994001203994301-085002     203994006003000420704ORN OCC. LOVE BELL ASST0000001000+00001753+00000+0001T   00002630+0008121247          1400 S50505               2AZ
203994002203994301-085004     203994006003000420469ORN LOVE PLAQUE 21X10CM0000001000+00003507+00000+0001T   00003946+0006471247          1400 S50505               2AZ
203994003203994031-000001-A   203994006003000246908P/FRAME GLS LOVE 9X13cm0000001000+00004385+00000+0001T   00004385+0000001247          1400 S50510               2AZ
203994004203994112-116038     203994006009681820246TCS CARRIER BAG MIDI   0000001000+00000035+00000+0001T   00000035+0000001247          1400 S50090               2AZ
203995000203995               203995               170213MJ     1400+00000+MJ0000007049+0000007049+000000000+000000987+0000008030+0000000006+I20000000000+0000008030+Z
203995001203995018-000136     203995006001023659026MUG OCC LOVE W/PLUSH   0000002000+00003507+00000+0001T   00003507+0000001248          1400 S50515               2AZ
203995002203995112-116038     203995006009681820246TCS CARRIER BAG MIDI   0000001000+00000035+00000+0001T   00000035+0000001248          1400 S50090               2AZ
203996000203996               203996               170213MJ     1400+00000+MJ0000001314+0000001314+000000000+000000184+0000001490+0000000008+I20000000000+0000001490+Z
203996001203996566-000451     203996006001023788443STICKERS GLITTER ASSTD 0000001000+00001314+00000+0001T   00001753+0008151249          1400 S50130               2AZ
203997000203997               203997               170213MJ     1400+00000+MJ0000006344+0000006344+000000000+000000889+0000007233+0000000000+I40000007233+0000000000+Z
203997001203997564-000035     203997006003000301836BUBBLE NOVELTY SWORD   0000001000+00001753+00000+0001T   00001753+0000001323          1400 S50131               2AZ
203997002203997018-000127     203997006001023380289MUG OCC STRAIGHT LOVE  0000002000+00001578+00000+0001T   00001753+0006471323          1400 S50515               2AZ
203997003203997018-000177     203997006001023797513MUG MINI LOVE ASSTD    0000002000+00000700+00000+0001T   00000700+0000001323          1400 S50515               2AZ
203997004203997112-116038     203997006009681820246TCS CARRIER BAG MIDI   0000001000+00000035+00000+0001T   00000035+0000001323          1400 S50090               2AZ
203998000203998               203998               170213MJ     1400+00000+MJ0000000735+0000000735+000000000+000000103+0000000830+0000000008+I20000000000+0000000830+Z
203998001203998564-000012     203998006001023130075BUBBLE BOTTLE MAGIC    0000001000+00000700+00000+0001T   00000700+0000001340          1400 S50131               2AZ
203998002203998112-116038     203998006009681820246TCS CARRIER BAG MIDI   0000001000+00000035+00000+0001T   00000035+0000001340          1400 S50090               2AZ
203999000203999               203999               170213MJ     1400+00000+MJ0000002630+0000002630+000000000+000000369+0000002990+0000000009+I20000000000+0000002990+Z
203999001203999077-000270     203999006003000395453GIFT-BAG PPR JMB 33X45 0000001000+00002630+00000+0001T   00002630+0000001357          1400 S50112               2AZ
204000000204000               204000               170213MJ     1400+00000+MJ0000004418+0000004418+000000000+000000619+0000005037+0000000000+I40000005037+0000000000+Z
204000001204000018-000127     204000006001023380289MUG OCC STRAIGHT LOVE  0000002000+00001578+00000+0001T   00001753+0006471452          1400 S50515               2AZ
204000002204000206-000630     204000006003000631919SPECTACLE CLEANING BRUS0000001000+00001227+00000+0001T   00001227+0000001452          1400 S50321               2AZ
204000003204000112-116038     204000006009681820246TCS CARRIER BAG MIDI   0000001000+00000035+00000+0001T   00000035+0000001452          1400 S50090               2AZ
204001000204001               204001               170213MJ     1400+00000+MJ0000019323+0000019323+000000000+000002709+0000022030+0000000002+I20000000000+0000022030+Z
204001001204001903-000095     204001006001704011495SWT SPECKLED-EGGS 100G 0000005000+00002104+00000+0001T   00002104+0000001455          1400 S50150               2AZ
204001002204001903-000081     204001006001704014076SWT F/PASTILLES 100G   0000002000+00001753+00000+0001T   00001753+0000001455          1400 S50150               2AZ
204001003204001016-006524     204001006003000579358S/JAR GLS 750ml ASSTD  0000001000+00005262+00000+0001T   00005262+0000001455          1400 S50300               2AZ
204001004204001112-116038     204001006009681820246TCS CARRIER BAG MIDI   0000001000+00000035+00000+0001T   00000035+0000001455          1400 S50090               2AZ
204002000204002               204002               170213MJ     1400+00000+MJ0000028526+0000028526+000000000+000004001+0000000000+0000000000+ 00000000000+0000000000+Z
204002001204002564-000010     204002006003000395477BUBBLE REFILL 1 LITRE  0000001000+00004385+00000+0001T   00004385+000000              1400 S501312IC            2 Z
204002002204002903-000151     204002006009803374411SWT SML RND R/BOW LOLLY0000002000+00000525+00000+0001T   00000525+000000              1400 S501502IC            2 Z
204002003204002018-000170     204002006001023775528MUG OCC. LOVE 2PC MINI 0000001000+00002192+00000+0001T   00002192+000000              1400 S505152IC            2 Z
204002004204002046-001225-PK2 204002004897006178361BATTERY LITHIUM CR-12250000001000+00000876+00000+0001T   00000876+000000              1400 S503122IC            2 Z
204002005204002366-004050     204002006003000308330DRESS UP TEEN BADGES   0000002000+00001490+00000+0001T   00001490+000000              1400 S501312IC            2 Z
204002006204002046-000400     204002006001023804983BATT ALKALINE 1.5Vx30PC0000001000+00003244+00000+0001T   00003244+000000              1400 S503122IC            2 Z
204002007204002024-000120     204002006001023422378NON-STICK LOAF-PAN MINI0000004000+00002630+00000+0001T   00002630+000000              1400 S503002IC            2 Z
204002008204002112-116038     204002006009681820246TCS CARRIER BAG MIDI   0000001000+00000035+00000+0001T   00000035+000000              1400 S500902IC            2 Z
204002009204002046-000400     204002006001023804983BATT ALKALINE 1.5Vx30PC0000001000+00003244+00000+0001T   00003244+000000              1400 S503122IC            2 Z
204003000204003               204003               170213MJ     1400+00000+MJ0000025247+0000025247+000000000+000003541+0000028788+0000000000+I40000028788+0000000000+Z
204003001204003564-000010     204003006003000395477BUBBLE REFILL 1 LITRE  0000001000+00004385+00000+0001T   00004385+0000001459          1400 S50131               2AZ
204003002204003046-000400     204003006001023804983BATT ALKALINE 1.5Vx30PC0000001000+00003244+00000+0001T   00003244+0000001459          1400 S50312               2AZ
204003003204003366-004050     204003006003000308330DRESS UP TEEN BADGES   0000002000+00001490+00000+0001T   00001490+0000001459          1400 S50131               2AZ
204003004204003903-000151     204003006009803374411SWT SML RND R/BOW LOLLY0000002000+00000525+00000+0001T   00000525+0000001459          1400 S50150               2AZ
204003005204003046-001225-PK2 204003004897006178361BATTERY LITHIUM CR-12250000001000+00000876+00000+0001T   00000876+0000001459          1400 S50312               2AZ
204003006204003018-000170     204003006001023775528MUG OCC. LOVE 2PC MINI 0000001000+00002192+00000+0001T   00002192+0000001459          1400 S50515               2AZ
204003007204003024-000120     204003006001023422378NON-STICK LOAF-PAN MINI0000004000+00002630+00000+0001T   00002630+0000001459          1400 S50300               2AZ
204004000204004               204004               170213MJ     1400+00000+MJ0000003944+0000003944+000000000+000000553+0000004490+0000000007+I20000000000+0000004490+Z
204004001204004077-000235     204004006003000160211GIFT-RIBBON ROLL METALC0000001000+00002630+00000+0001T   00002630+0000001500          1400 S50112               2AZ
204004002204004078-009100     204004006008741002349ALL-CLEAR GLUE 25ml CRD0000001000+00001314+00000+0001T   00001314+0000001500          1400 S50810               2AZ
204005000204005               204005               170213MJ     1400+00000+MJ0000007049+0000007049+000000000+000000987+0000008030+0000000006+I20000000000+0000008030+Z
204005001204005018-000136     204005006001023659026MUG OCC LOVE W/PLUSH   0000002000+00003507+00000+0001T   00003507+0000001531          1400 S50515               2AZ
204005002204005112-116038     204005006009681820246TCS CARRIER BAG MIDI   0000001000+00000035+00000+0001T   00000035+0000001531          1400 S50090               2AZ
204006000204006               204006               170213MJ     1400+00000+MJ0000003542+0000003542+000000000+000000496+0000004030+0000000008+I20000000000+0000004030+Z
204006001204006018-005009     204006006001023725608MUG W/PLUSH-BEAR LOVE  0000001000+00003507+00000+0001T   00003507+0000001533          1400 S50515               2AZ
204006002204006112-116038     204006006009681820246TCS CARRIER BAG MIDI   0000001000+00000035+00000+0001T   00000035+0000001533          1400 S50090               2AZ
204007000204007               204007               170213MJ     1400+00000+MJ0000006261+0000006261+000000000+000000880+0000007140+0000000001+I20000000000+0000007140+Z
204007001204007089-000019     204007006003000092291K/CHAIN MINI BOOT 13cm 0000001000+00001753+00000+0001T   00001753+0000001539          1400 S50205               2AZ
204007002204007304-001011     204007006001023806727FLWR ROSE RED W/BEAR   0000001000+00000613+00000+0001T   00000788+0006471539          1400 S50510               2AZ
204007003204007304-001204     204007006001023737984FLOWER OCC. TEDDY/ROSES0000001000+00001402+00000+0001T   00001490+0006471539          1400 S50510               2AZ
204007004204007006-000172-H   204007006003000610211BALLOONS METALLIC RED  0000001000+00000218+00000+0001T   00000218+0000001539          1400 S50131               2AZ
204007005204007006-000170-A   204007006003000608065BALLOONS 1PC PINK      0000001000+00000218+00000+0001T   00000218+0000001539          1400 S50131               2AZ
204007006204007006-000170-K   204007006003000609284BALLOONS 1PC PURPLE    0000001000+00000218+00000+0001T   00000218+0000001539          1400 S50131               2AZ
204007007204007006-001000     204007006003000093779HELIUM BALLOON FILL    0000003000+00000613+00000+0001T   00000613+0000001539          1400 S50131               2AZ
204008000204008               204008               170213MJ     1400+00000+MJ0000005294+0000005294+000000000+000000743+0000006030+0000000007+I20000000000+0000006030+Z
204008001204008108-001005     204008006001023803276MUG SIPPER W/STRAW     0000003000+00001753+00000+0001T   00001753+0000001540          1400 S50210               2AZ
204008002204008112-116038     204008006009681820246TCS CARRIER BAG MIDI   0000001000+00000035+00000+0001T   00000035+0000001540          1400 S50090               2AZ
204009000204009               204009               170213MJ     1400+00000+MJ0000003541+0000003541+000000000+000000497+0000004038+0000000000+I40000004038+0000000000+Z
204009001204009036-000610     204009006001023627230WASHING-PEGS PL PACK-240000002000+00001753+00000+0001T   00001753+0000001603          1400 S50212               2AZ
204009002204009112-116038     204009006009681820246TCS CARRIER BAG MIDI   0000001000+00000035+00000+0001T   00000035+0000001603          1400 S50090               2AZ
204010000204010               204010               170213MJ     1400+00000+MJ0000005260+0000005260+000000000+000000737+0000005997+0000000000+I40000005997+0000000000+Z
204010001204010016-006515     204010006003000295555S/JAR GLS EMBOSS. 250ML0000001000+00001753+00000+0001T   00001753+0000001606          1400 S50300               2AZ
204010002204010048-000870     204010006003000525287LANTERN B/LIGHT MINI   0000001000+00003507+00000+0001T   00003507+0000001606          1400 S50305               2AZ
204011000204011               204011               170213MJ     1400+00000+MJ0000001138+0000001138+000000000+000000160+0000001290+0000000008+I20000000000+0000001290+Z
204011001204011304-001011     204011006001023806727FLWR ROSE RED W/BEAR   0000001000+00000613+00000+0001T   00000788+0006471608          1400 S50510               2AZ
204011002204011903-000151     204011006009803374411SWT SML RND R/BOW LOLLY0000001000+00000525+00000+0001T   00000525+0000001608          1400 S50150               2AZ
204012000204012               204012               170213MJ     1400+00000+MJ0000002630+0000002630+000000000+000000369+0000002999+0000000000+I40000002999+0000000000+Z
204012001204012079-013105     204012006001023863997ART+CRAFT DIY HAND PUPP0000001000+00002630+00000+0001T   00002630+0000001610          1400 S50130               2AZ
204013000204013               204013               170213MJ     1400+00000+MJ0000007049+0000007049+000000000+000000987+0000008030+0000000006+I20000000000+0000008030+Z
204013001204013018-005009     204013006001023725608MUG W/PLUSH-BEAR LOVE  0000002000+00003507+00000+0001T   00003507+0000001612          1400 S50515               2AZ
204013002204013112-116038     204013006009681820246TCS CARRIER BAG MIDI   0000001000+00000035+00000+0001T   00000035+0000001612          1400 S50090               2AZ
204014000204014               204014               170213MJ     1400+00000+MJ0000007892+0000007892+000000000+000001106+0000008990+0000000008+I20000000000+0000008990+Z
204014001204014304-001115     204014006001023738240FLOWER-BUNCH CARNATIONS0000001000+00005262+00000+0001T   00005262+0000001615          1400 S50510               2AZ
204014002204014077-000270     204014006003000395453GIFT-BAG PPR JMB 33X45 0000001000+00002630+00000+0001T   00002630+0000001615          1400 S50112               2AZ
204015000204015               204015               170213MJ     1400+00000+MJ0000000831+0000000831+000000000+000000117+0000000940+0000000008+I20000000000+0000000940+Z
204015001204015006-000170-A   204015006003000608065BALLOONS 1PC PINK      0000001000+00000218+00000+0001T   00000218+0000001617          1400 S50131               2AZ
204015002204015006-001000     204015006003000093779HELIUM BALLOON FILL    0000001000+00000613+00000+0001T   00000613+0000001617          1400 S50131               2AZ
204016000204016               204016               170213MJ     1400+00000+MJ0000002192+0000002192+000000000+000000307+0000002490+0000000009+I20000000000+0000002490+Z
204016001204016050-000363-Z   204016006001023475282PADLOCK IRON 32mm CARD 0000001000+00002192+00000+0001T   00002192+0000001618          1400 S50855               2AZ
204017000204017               204017               170213MJ     1400+00000+MJ0000004383+0000004383+000000000+000000615+0000004990+0000000008+I20000000000+0000004990+Z
204017001204017077-000908     204017006003000410927G/WRAP 700mmx1m FLOWER 0000001000+00001753+00000+0001T   00001753+0000001622          1400 S50112               2AZ
204017002204017077-000270     204017006003000395453GIFT-BAG PPR JMB 33X45 0000001000+00002630+00000+0001T   00002630+0000001622          1400 S50112               2AZ
204018000204018               204018               170213MJ     1400+00000+MJ0000001664+0000001664+000000000+000000234+0000001890+0000000008+I20000000000+0000001890+Z
204018001204018077-000245     204018006001023759214GIFT-RIBBON METALLICx2 0000001000+00001227+00000+0001T   00001227+0000001623          1400 S50112               2AZ
204018002204018080-000133     204018006003000535613CARD&ENV MINI ASTD DSGN0000001000+00000437+00000+0001T   00000437+0000001623          1400 S50112               2AZ
204019000204019               204019               170213MJ     1400+00000+MJ0000007050+0000007050+000000000+000000988+0000008030+0000000008+I20000000000+0000008030+Z
204019001204019031-000001-A   204019006003000246908P/FRAME GLS LOVE 9X13cm0000001000+00004385+00000+0001T   00004385+0000001631          1400 S50510               2AZ
204019002204019159-000684     204019006001023776532BATH BODY-GLOVE 18cm   0000001000+00002630+00000+0001T   00002630+0000001631          1400 S50200               2AZ
204019003204019112-116038     204019006009681820246TCS CARRIER BAG MIDI   0000001000+00000035+00000+0001T   00000035+0000001631          1400 S50090               2AZ
204020000204020               204020               170213MJ     1400+00000+MJ0000012313+0000012313+000000000+000001724+0000014030+0000000007+I20000000000+0000014030+Z
204020001204020001-091415     204020006003000329113W/GLS OCC. LOVE 2PC 2800000001000+00008771+00000+0001T   00009648+0006471633          1400 S50515               2AZ
204020002204020018-000136     204020006001023659026MUG OCC LOVE W/PLUSH   0000001000+00003507+00000+0001T   00003507+0000001633          1400 S50515               2AZ
204020003204020112-116038     204020006009681820246TCS CARRIER BAG MIDI   0000001000+00000035+00000+0001T   00000035+0000001633          1400 S50090               2AZ
204021000204021               204021               170213MJ     1400+00000+MJ0000013973+0000013973+000000000+000001959+0000015932+0000000000+I40000015932+0000000000+Z
204021001204021368-000175     204021006003000270316PLUSH BEAR 4 ASSTD 18CM0000001000+00006139+00000+0001T   00006139+0000001637          1400 S50745               2AZ
204021002204021903-000123     204021006925925909280SWEET GS MINI MALLOWS  0000002000+00000876+00000+0001T   00000876+0000001637          1400 S50150               2AZ
204021003204021016-006516     204021006003000351503S/JAR GLS CHECK 150ML  0000002000+00001490+00000+0001T   00001490+0000001637          1400 S50300               2AZ
204021004204021077-000310     204021006001023608635GIFT-BAG 18X23CM GLOSS 0000001000+00001314+00000+0001T   00001314+0000001637          1400 S50112               2AZ
204021005204021077-000471     204021006003000330096G-BAG DESGN MED 18X23CM0000001000+00001753+00000+0001T   00001753+0000001637          1400 S50112               2AZ
204021006204021112-116038     204021006009681820246TCS CARRIER BAG MIDI   0000001000+00000035+00000+0001T   00000035+0000001637          1400 S50090               2AZ
204022000204022               204022               170213MJ     1400+00000+MJ0000002452+0000002452+000000000+000000344+0000002790+0000000006+I20000000000+0000002790+Z
204022001204022006-001000     204022006003000093779HELIUM BALLOON FILL    0000004000+00000613+00000+0001T   00000613+0000001638          1400 S50131               2AZ
204023000204023               204023               170213MJ     1400+00000+MJ0000001226+0000001226+000000000+000000172+0000001390+0000000008+I20000000000+0000001390+Z
204023001204023903-000849     204023008692806080083SWT SNACK BISCUIT 70g  0000002000+00000613+00000+0001T   00000613+0000001638          1400 S50150               2AZ
204024000204024               204024               170213MJ     1400+00000+MJ0000018060+0000018060+000000000+000002530+0000000000+0000000000+ 00000000000+0000000000+Z
204024001204024903-000710     204024006002099007056SWT REFRESHERS MINT    0000002000+00001139+00000+0001T   00001139+000000              1400 S501502IC            2 Z
204024002204024033-000654     204024006003000364527H/BRUSH 24cm VENT ASSTD0000001000+00003507+00000+0001T   00003507+000000              1400 S502002IC            2 Z
204024003204024089-000010     204024006003000106523KEY CHAIN REFLECTOR 2PC0000001000+00003507+00000+0001T   00003507+000000              1400 S502052IC            2 Z
204024004204024105-001062     204024006003000629244CONTAINER CLIP LOCK    0000004000+00002192+00000+0001T   00002192+000000              1400 S502102IC            2 Z
204025000204025               204025               170213MJ     1400+00000+MJ0000026424+0000026424+000000000+000003701+0000030120+0000000005+I20000000000+0000030120+Z
204025001204025105-001062     204025006003000629244CONTAINER CLIP LOCK    0000003000+00002192+00000+0001T   00002192+0000001642          1400 S50210               2AZ
204025002204025105-001000     204025006003000520275CONTAINER:CEREAL TO GO 0000003000+00003507+00000+0001T   00004823+0008161642          1400 S50210               2AZ
204025003204025089-000010     204025006003000106523KEY CHAIN REFLECTOR 2PC0000001000+00003507+00000+0001T   00003507+0000001642          1400 S50205               2AZ
204025004204025033-000654     204025006003000364527H/BRUSH 24cm VENT ASSTD0000001000+00003507+00000+0001T   00003507+0000001642          1400 S50200               2AZ
204025005204025903-000710     204025006002099007056SWT REFRESHERS MINT    0000002000+00001139+00000+0001T   00001139+0000001642          1400 S50150               2AZ
204025006204025112-116038     204025006009681820246TCS CARRIER BAG MIDI   0000001000+00000035+00000+0001T   00000035+0000001642          1400 S50090               2AZ
204026000204026               204026               170213MJ     1400+00000+MJ0000008771+0000008771+000000000+000001228+0000009990+0000000009+I20000000000+0000009990+Z
204026001204026039-000799     204026006001023692382CANDLES TEALITE 100PCE 0000001000+00008771+00000+0001T   00008771+0000001643          1400 S50510               2AZ
204027000204027               204027               170213MJ     1400+00000+MJ0000023855+0000023855+000000000+000003341+0000027190+0000000006+I20000000000+0000027190+Z
204027001204027265-000316     204027000694202303207CAR RADIO-CONTROL      0000001000+00021051+00000+0001T   00021928+0008191647          1400 S50710               2AZ
204027002204027046-000012     204027006904708013062BATTERIES AA  CARD-OF-40000001000+00001314+00000+0001T   00001314+0000001647          1400 S50312               2AZ
204027003204027046-000004     204027006001023606525BATTERY 9VOLT H/POWER  0000001000+00001490+00000+0001T   00001490+0000001647          1400 S50312               2AZ
204028000204028               204028               170213MJ     1400+00000+MJ0000002630+0000002630+000000000+000000369+0000002990+0000000009+I20000000000+0000002990+Z
204028001204028368-000040     204028006003000671786PLUSH ICONS 7.5cm      0000001000+00002630+00000+0001T   00002630+0000001656          1400 S50745               2AZ
204029000204029               204029               170213MJ     1400+00000+MJ0000004384+0000004384+000000000+000000614+0000004990+0000000008+I20000000000+0000004990+Z
204029001204029563-000318-L   204029006003000407088SERVIETTES 33cm RED    0000002000+00002192+00000+0001T   00002192+0000001657          1400 S50214               2AZ
204030000204030               204030               170213MJ     1400+00000+MJ0000003155+0000003155+000000000+000000443+0000003598+0000000000+I40000003598+0000000000+Z
204030001204030304-001204     204030006001023737984FLOWER OCC. TEDDY/ROSES0000001000+00001402+00000+0001T   00001490+0006471712          1400 S50510               2AZ
204030002204030077-000330     204030006001023745408GIFT-BAG 18X23CM WEDGE 0000001000+00001753+00000+0001T   00001753+0000001712          1400 S50112               2AZ
204031000204031               204031               170213MJ     1400+00000+MJ0000004385+0000004385+000000000+000000614+0000004999+0000000000+I40000004999+0000000000+Z
204031001204031031-000001-A   204031006003000246908P/FRAME GLS LOVE 9X13cm0000001000+00004385+00000+0001T   00004385+0000001716          1400 S50510               2AZ
204032000204032               204032               170213MJ     1400+00000+MJ0000001752+0000001752+000000000+000000246+0000000000+0000000000+ 00000000000+0000000000+Z
204032001204032304-001204     204032006001023737984FLOWER OCC. TEDDY/ROSES0000001000+00001402+00000+0001T   00001490+000647              1400 S505102IC            2 Z
204032002204032304-001489     204032006001023489173FLOWER CARNATION POLY. 0000001000+00000350+00000+0001T   00000350+000000              1400 S505102IC            2 Z
204033000204033               204033               170213MJ     1400+00000+MJ0000000998+0000000998+000000000+000000140+0000001130+0000000008+I20000000000+0000001130+Z
204033001204033304-001011     204033006001023806727FLWR ROSE RED W/BEAR   0000001000+00000613+00000+0001T   00000788+0006471722          1400 S50510               2AZ
204033002204033304-001489     204033006001023489173FLOWER CARNATION POLY. 0000001000+00000350+00000+0001T   00000350+0000001722          1400 S50510               2AZ
204033003204033112-116038     204033006009681820246TCS CARRIER BAG MIDI   0000001000+00000035+00000+0001T   00000035+0000001722          1400 S50090               2AZ
204034000204034               204034               170213MJ     1400+00000+MJ0000003066+0000003066+000000000+000000430+0000003490+0000000006+I20000000000+0000003490+Z
204034001204034903-000123     204034006925925909280SWEET GS MINI MALLOWS  0000002000+00000876+00000+0001T   00000876+0000001732          1400 S50150               2AZ
204034002204034903-004952     204034006002580020052SWT FREAKY FACES 100G  0000001000+00001314+00000+0001T   00001314+0000001732          1400 S50150               2AZ
204035000204035               204035               170213MJ     1400+00000+MJ0000017574+0000017574+000000000+000002463+0000020037+0000000000+I40000020037+0000000000+Z
204035001204035041-093000     204035006003000320882B/GIFT SET 4PC B/RANGE 0000001000+00007016+00000+0001T   00007016+0000001747          1400 S50200               2AZ
204035002204035301-085007     204035006003000673698ORN OCC. LOVE S/PLAQUE 0000001000+00007893+00000+0001T   00007893+0000001747          1400 S50505               2AZ
204035003204035077-000475     204035006003000640775GIFT-BAG DESIGNER MED  0000001000+00002630+00000+0001T   00002630+0000001747          1400 S50112               2AZ
204035004204035112-116038     204035006009681820246TCS CARRIER BAG MIDI   0000001000+00000035+00000+0001T   00000035+0000001747          1400 S50090               2AZ
204036000204036               204036               170213MJ     1400+00000+MJ0000002452+0000002452+000000000+000000344+0000002790+0000000006+I20000000000+0000002790+Z
204036001204036304-001011     204036006001023806727FLWR ROSE RED W/BEAR   0000004000+00000613+00000+0001T   00000788+0006471807          1400 S50510               2AZ
204037000204037               204037               170213MJ     1400+00000+MJ0000002137+0000002137+000000000+000000300+0000002430+0000000007+I20000000000+0000002430+Z
204037001204037304-001011     204037006001023806727FLWR ROSE RED W/BEAR   0000002000+00000613+00000+0001T   00000788+0006471813          1400 S50510               2AZ
204037002204037006-000812     204037006001023902832HAT CONE WITH TINSEL   0000001000+00000876+00000+0001T   00000876+0000001813          1400 S50131               2AZ
204037003204037112-116038     204037006009681820246TCS CARRIER BAG MIDI   0000001000+00000035+00000+0001T   00000035+0000001813          1400 S50090               2AZ
204038000204038               204038               170213MJ     1400+00000+MJ0000025000-0000000000+000000000+000000000+0000025000-0000000000+I20000000000+0000025000-Z
204038001204038001-999911     204038000000000999911SUNDRIES               0000001000-00025000+00000+0001X   00000000+0000001828          0000 S509112IC            2 Z
A17021300                                          11130649MJSLAVE 2                       S502IC
A17021301                                          12510656MJSLAVE 2                       S502IC
A17021302                                          15013210MJSLAVE 2                       S502IC
A17021303                                          18282101MJSLAVE 2                       S502IC
M17021391                              CASH        MJSLAVE 2                       Z-REPORT No.   521TOTAL (Sales - Refunds)           3938.03       CASH TO BE BANKED                 2264.80       DEBIT CARDS                          0.00       CREDIT CARDS                      1423.23       Z-READING                         3688.03       AIRTIME DEBIT CARD SALES             0.00       AIRTIME CARD SALES                   0.00       OVERS/UNDERS                         0.00       AIRTIME CASH SALES                   0.00       GIFT CARDS                           0.00       GIFT CARD CASH SALES                 0.00       SUNDRIES                           250.00       T O T A L  CASH PAYOUTS            250.00                                                                                                                                                                                                                                                                                                      Z
M17021392                              CASH        MJABSENT                                                                                                                                                                                          ANNUAL LEAVE                                                                                                                                                                                    DAY OFF                                                                                                                                                                                         COMMENTS                                                                                                                                                                                                                                                                                                                                                                                       Z
Y17021300                                          MJ00000000345643+000054
ZMJ17021320053 SLAVE 2      SALES DATA                     NEXT INVOICE NO.  204039 0521
X MJ Slave 2 First invoice 203981 170213 Last invoice 204038 170213 Next invoice 204039 Total number of records 000000205 clbackup completed 20:05:39
