104453000104453               104453               170213MK     1400+00000+MK0000006609+0000006609+000000000+000000927+0000007530+0000000006+I20000000000+0000007530+Z
104453001104453055-009054     104453006001023471994CUP-HOOKS BRS 30mm H&H 0000001000+00001314+00000+0001T   00001314+0000000859          1400 SE4810               1AZ
104453002104453071-030012     104453006003000283842PEN NVLTY GLITTER 6PC  0000001000+00002630+00000+0001T   00002630+0000000859          1400 SE4130               1AZ
104453003104453079-000201     104453006003000161430P/CRAYONS THERAPY 10PCE0000001000+00002630+00000+0001T   00002630+0000000859          1400 SE4130               1AZ
104453004104453112-116038     104453006009681820246TCS CARRIER BAG MIDI   0000001000+00000035+00000+0001T   00000035+0000000859          1400 SE4090               1AZ
104454000104454               104454               170213MK     1400+00000+MK0000006171+0000006171+000000000+000000866+0000007037+0000000000+I40000007037+0000000000+Z
104454001104454565-000888     104454006003000607846NOVELTY MESH BALL      0000002000+00001753+00000+0001T   00001753+0000000924          1400 SE4745               1AZ
104454002104454565-000001     104454006003000307951NOVELTY INSECT BALL    0000001000+00002630+00000+0001T   00002630+0000000924          1400 SE4745               1AZ
104454003104454112-116038     104454006009681820246TCS CARRIER BAG MIDI   0000001000+00000035+00000+0001T   00000035+0000000924          1400 SE4090               1AZ
104455000104455               104455               170213MK     1400+00000+MK0000038446+0000038446+000000000+000005390+0000043836+0000000000+I40000043836+0000000000+Z
104455001104455112-116069     104455006009681820277TCS CARRIER BAG JUMBO  0000001000+00000048+00000+0001T   00000048+0000000932          1400 SE4090               1AZ
104455002104455077-000303     104455006001023593757GIFT-BAG PAPER MED     0000002000+00001578+00000+0001T   00001578+0000000932          1400 SE4112               1AZ
104455003104455077-000383     104455006003000247943GIFT-BAG 11X14CM S/COL 0000003000+00000788+00000+0001T   00000788+0000000932          1400 SE4112               1AZ
104455004104455077-000452     104455006003000284986G/BAG METALLIC MED EMB 0000002000+00001490+00000+0001T   00001490+0000000932          1400 SE4112               1AZ
104455005104455301-085001     104455006003000297610ORN WATERBALL LOVE ASST0000003000+00004823+00000+0001T   00004823+0000000932          1400 SE4505               1AZ
104455006104455301-085006     104455006001023502940ORN LOVE MSG TUBE W/HRT0000003000+00001753+00000+0001T   00001753+0000000932          1400 SE4505               1AZ
104455007104455018-005009     104455006001023725608MUG W/PLUSH-BEAR LOVE  0000002000+00003507+00000+0001T   00003507+0000000932          1400 SE4515               1AZ
104455008104455018-000127     104455006001023380289MUG OCC STRAIGHT LOVE  0000002000+00001578+00000+0001T   00001753+0006470932          1400 SE4515               1AZ
104456000104456               104456               170213MK     1400+00000+MK0000010786+0000010786+000000000+000001511+0000012290+0000000007+I20000000000+0000012290+Z
104456001104456301-085001     104456006003000297610ORN WATERBALL LOVE ASST0000001000+00004823+00000+0001T   00004823+0000000935          1400 SE4505               1AZ
104456002104456030-000031-A   104456006003000457588PLAQUE W/WORDS ASSTD   0000001000+00004385+00000+0001T   00004823+0006470935          1400 SE4505               1AZ
104456003104456077-000303     104456006001023593757GIFT-BAG PAPER MED     0000001000+00001578+00000+0001T   00001578+0000000935          1400 SE4112               1AZ
104457000104457               104457               170213MK     1400+00000+MK0000001489+0000001489+000000000+000000209+0000001690+0000000008+I20000000000+0000001690+Z
104457001104457304-001011     104457006001023806727FLWR ROSE RED W/BEAR   0000001000+00000613+00000+0001T   00000788+0006470943          1400 SE4510               1AZ
104457002104457036-000011     104457006003000675890LINT REMOVER REFILL    0000001000+00000876+00000+0001T   00000876+0000000943          1400 SE4212               1AZ
104458000104458               104458               170213MK     1400+00000+MK0000004418+0000004418+000000000+000000620+0000005038+0000000000+I40000005038+0000000000+Z
104458001104458362-000106     104458006003000608911MAKE-UP GIRL BEAUTY-SET0000001000+00002630+00000+0001T   00002630+0000000950          1400 SE4160               1AZ
104458002104458365-000001     104458006003000395262PLAY SET DOCTORS SET   0000001000+00001753+00000+0001T   00001753+0000000950          1400 SE4725               1AZ
104458003104458112-116038     104458006009681820246TCS CARRIER BAG MIDI   0000001000+00000035+00000+0001T   00000035+0000000950          1400 SE4090               1AZ
104459000104459               104459               170213MK     1400+00000+MK0000004385+0000004385+000000000+000000614+0000004990+0000000009+I20000000000+0000004990+Z
104459001104459002-000709     104459006003000674176C/BOARD SLATE ROUND 25C0000001000+00004385+00000+0001T   00004385+0000000950          1400 SE4300               1AZ
104460000104460               104460               170213MK     1400+00000+MK0000004822+0000004822+000000000+000000676+0000005490+0000000008+I20000000000+0000005490+Z
104460001104460080-000127     104460006003000424351VALENTINES DAY 36x24CM 0000001000+00002192+00000+0001T   00002192+0000001101          1400 SE4112               1AZ
104460002104460077-000270     104460006003000395453GIFT-BAG PPR JMB 33X45 0000001000+00002630+00000+0001T   00002630+0000001101          1400 SE4112               1AZ
104461000104461               104461               170213MK     1400+00000+MK0000002100+0000002100+000000000+000000296+0000002390+0000000006+I20000000000+0000002390+Z
104461001104461903-000155     104461006009803374435SWT LOLLY I LUV U HEART0000004000+00000525+00000+0001T   00000525+0000001109          1400 SE4150               1AZ
104462000104462               104462               170213MK     1400+00000+MK0000007321+0000007321+000000000+000001027+0000008348+0000000000+I40000008348+0000000000+Z
104462001104462112-116069     104462006009681820277TCS CARRIER BAG JUMBO  0000001000+00000048+00000+0001T   00000048+0000001112          1400 SE4090               1AZ
104462002104462019-071610     104462006001023904560PEBBLES WATER GEMS 10g 0000001000+00001490+00000+0001T   00001490+0000001112          1400 SE4510               1AZ
104462003104462903-000120     104462006002099001665SWEET GS ZILLIONS 50g  0000002000+00000700+00000+0001T   00000700+0000001112          1400 SE4150               1AZ
104462004104462031-005918     104462006003000580453P/FRAME PL PLAIN 10X15 0000001000+00002630+00000+0001T   00002630+0000001112          1400 SE4510               1AZ
104462005104462077-000381     104462006003000247707GIFT-BAG 25X32CM S/COL 0000001000+00001753+00000+0001T   00001753+0000001112          1400 SE4112               1AZ
104463000104463               104463               170213MK     1400+00000+MK0000003069+0000003069+000000000+000000430+0000003490+0000000009+I20000000000+0000003490+Z
104463001104463365-003056     104463006009635021453KIDDIES WOODEN BROOM   0000001000+00003069+00000+0001T   00003069+0000001120          1400 SE4725               1AZ
104464000104464               104464               170213MK     1400+00000+MK0000004997+0000004997+000000000+000000700+0000005690+0000000007+I20000000000+0000005690+Z
104464001104464077-000299     104464006003000395576G/BAG 32x25cm LRG LOVE 0000001000+00001490+00000+0001T   00001490+0000001126          1400 SE4112               1AZ
104464002104464018-000136     104464006001023659026MUG OCC LOVE W/PLUSH   0000001000+00003507+00000+0001T   00003507+0000001126          1400 SE4515               1AZ
104465000104465               104465               170213MK     1400+00000+MK0000000874+0000000874+000000000+000000124+0000000990+0000000008+I20000000000+0000000990+Z
104465001104465080-000133-A   104465006003000647019MINI VALENTINES CARD   0000001000+00000437+00000+0001T   00000437+0000001153          1400 SE4112               1AZ
104465002104465080-000133     104465006003000535613CARD&ENV MINI ASTD DSGN0000001000+00000437+00000+0001T   00000437+0000001153          1400 SE4112               1AZ
104466000104466               104466               170213MK     1400+00000+MK0000008770+0000008770+000000000+000001228+0000009990+0000000008+I20000000000+0000009990+Z
104466001104466108-001210     104466006002580007244MIXING BOWL WITH LID   0000002000+00004385+00000+0001T   00004385+0000001206          1400 SE4210               1AZ
104467000104467               104467               170213MK     1400+00000+MK0000005085+0000005085+000000000+000000712+0000005790+0000000007+I20000000000+0000005790+Z
104467001104467018-000136     104467006001023659026MUG OCC LOVE W/PLUSH   0000001000+00003507+00000+0001T   00003507+0000001215          1400 SE4515               1AZ
104467002104467077-000303     104467006001023593757GIFT-BAG PAPER MED     0000001000+00001578+00000+0001T   00001578+0000001215          1400 SE4112               1AZ
104468000104468               104468               170213MK     1400+00000+MK0000018046+0000018046+000000000+000002529+0000020575+0000000000+I40000020575+0000000000+Z
104468001104468112-116053     104468006006438002399TCS CARRIER BAG 38L    0000001000+00000069+00000+0001T   00000069+0000001217          1400 SE4090               1AZ
104468002104468368-000111     104468006001023780812PLUSH BEAR/DOG 29CM    0000001000+00012279+00000+0001T   00012279+0000001217          1400 SE4745               1AZ
104468003104468080-000127     104468006003000424351VALENTINES DAY 36x24CM 0000001000+00002192+00000+0001T   00002192+0000001217          1400 SE4112               1AZ
104468004104468903-000619     104468006003000672455SWT LOLLY STR/BRRY 140G0000001000+00001753+00000+0001T   00001753+0000001217          1400 SE4150               1AZ
104468005104468077-000299-A   104468006003000670888GIFT-BAG PAPER JMB LOVE0000001000+00001753+00000+0001T   00001753+0000001217          1400 SE4112               1AZ
104469000104469               104469               170213MK     1400+00000+MK0000007452+0000007452+000000000+000001045+0000008497+0000000000+I40000008497+0000000000+Z
104469001104469566-000031     104469006003000283910STICKER BK TEACHER STIC0000001000+00002192+00000+0001T   00002192+0000001219          1400 SE4130               1AZ
104469002104469566-000001-D   104469006003000141678STICKER ALBUM+STICKERS 0000001000+00002630+00000+0001T   00003157+0008151219          1400 SE4130               1AZ
104469003104469562-000010     104469006001023762528KID'S PLAY DOUGH       0000001000+00002630+00000+0001T   00002630+0000001219          1400 SE4755               1AZ
104470000104470               104470               170213MK     1400+00000+MK0000016601+0000016601+000000000+000002329+0000018930+0000000000+I20000000000+0000018930+Z
104470001104470112-116069     104470006009681820277TCS CARRIER BAG JUMBO  0000001000+00000048+00000+0001T   00000048+0000001220          1400 SE4090               1AZ
104470002104470304-001011     104470006001023806727FLWR ROSE RED W/BEAR   0000022000+00000613+00000+0001T   00000788+0006471220          1400 SE4510               1AZ
104470003104470046-000014-A   104470004897006177708BATTERIES SIZE:AAA 8PCE0000001000+00001753+00000+0001T   00001753+0000001220          1400 SE4312               1AZ
104470004104470046-000012     104470006904708013062BATTERIES AA  CARD-OF-40000001000+00001314+00000+0001T   00001314+0000001220          1400 SE4312               1AZ
104471000104471               104471               170213MK     1400+00000+MK0000027694+0000027694+000000000+000003880+0000031570+0000000004+I20000000000+0000031570+Z
104471001104471112-116053     104471006006438002399TCS CARRIER BAG 38L    0000001000+00000069+00000+0001T   00000069+0000001222          1400 SE4090               1AZ
104471002104471077-000270     104471006003000395453GIFT-BAG PPR JMB 33X45 0000001000+00002630+00000+0001T   00002630+0000001222          1400 SE4112               1AZ
104471003104471080-000127     104471006003000424351VALENTINES DAY 36x24CM 0000001000+00002192+00000+0001T   00002192+0000001222          1400 SE4112               1AZ
104471004104471301-000009     104471006001023781406ORN POLY MSG IN PVC BOX0000001000+00005262+00000+0001T   00005262+0000001222          1400 SE4505               1AZ
104471005104471368-000111     104471006001023780812PLUSH BEAR/DOG 29CM    0000001000+00012279+00000+0001T   00012279+0000001222          1400 SE4745               1AZ
104471006104471301-086006     104471006003000498918ORN OCCASION LOVE 4ASTD0000001000+00005262+00000+0001T   00005262+0000001222          1400 SE4505               1AZ
104472000104472               104472               170213MK     1400+00000+MK0000000876+0000000876+000000000+000000123+0000000990+0000000009+I20000000000+0000000990+Z
104472001104472903-003080     104472005907029004673SWT SNACK STIX CHOC 50g0000001000+00000876+00000+0001T   00000876+0000001226          1400 SE4150               1AZ
104473000104473               104473               170213MK     1400+00000+MK0000007892+0000007892+000000000+000001106+0000008990+0000000008+I20000000000+0000008990+Z
104473001104473071-003040     104473006003000543342PEN CLUTCH+LEAD 5pce   0000001000+00001753+00000+0001T   00001753+0000001226          1400 SE4130               1AZ
104473002104473567-075497     104473009780799381672BK NOVEL ROMANCE AFR   0000001000+00006139+00000+0001T   00006139+0000001226          1400 SE4757               1AZ
104474000104474               104474               170213MK     1400+00000+MK0000003069+0000003069+000000000+000000430+0000003490+0000000009+I20000000000+0000003490+Z
104474001104474031-000036     104474006003000426232P/FRAME PL OVAL BLK/GLD0000001000+00003069+00000+0001T   00003069+0000001229          1400 SE4510               1AZ
104475000104475               104475               170213MK     1400+00000+MK0000000035+0000000035+000000000+000000005+0000000040+0000000000+I20000000000+0000000040+Z
104475001104475112-116038     104475006009681820246TCS CARRIER BAG MIDI   0000001000+00000035+00000+0001T   00000035+0000001230          1400 SE4090               1AZ
104476000104476               104476               170213MK     1400+00000+MK0000001753+0000001753+000000000+000000246+0000001990+0000000009+I20000000000+0000001990+Z
104476001104476077-000299-A   104476006003000670888GIFT-BAG PAPER JMB LOVE0000001000+00001753+00000+0001T   00001753+0000001235          1400 SE4112               1AZ
104477000104477               104477               170213MK     1400+00000+MK0000003507+0000003507+000000000+000000491+0000003998+0000000000+I40000003998+0000000000+Z
104477001104477031-000002-A   104477006003000247103P/FRAME LOVE 7.5X7.5CM 0000001000+00003507+00000+0001T   00003507+0000001240          1400 SE4510               1AZ
104478000104478               104478               170213MK     1400+00000+MK0000018288+0000018288+000000000+000002561+0000020840+0000000009+I20000000000+0000020840+Z
104478001104478112-116069     104478006009681820277TCS CARRIER BAG JUMBO  0000001000+00000048+00000+0001T   00000048+0000001241          1400 SE4090               1AZ
104478002104478034-078805     104478006001023994097BABY W/WIPES 55PCE LACE0000001000+00002455+00000+0001T   00002455+0000001241          1400 SE4215               1AZ
104478003104478046-000012     104478006904708013062BATTERIES AA  CARD-OF-40000002000+00001314+00000+0001T   00001314+0000001241          1400 SE4312               1AZ
104478004104478065-005337     104478006001023619303KEYBOARD B/O 32-KEYS   0000001000+00013157+00000+0001T   00013157+0000001241          1400 SE4745               1AZ
104479000104479               104479               170213MK     1400+00000+MK0000001578+0000001578+000000000+000000221+0000001799+0000000000+I40000001799+0000000000+Z
104479001104479079-013032-C   104479006003000389520POLY SHAPES            0000001000+00001578+00000+0001T   00001578+0000001243          1400 SE4130               1AZ
104480000104480               104480               170213MK     1400+00000+MK0000006172+0000006172+000000000+000000865+0000007030+0000000007+I20000000000+0000007030+Z
104480001104480084-000313     104480006003000638505NAIL CLIPPER SET       0000001000+00003507+00000+0001T   00003507+0000001255          1400 SE4200               1AZ
104480002104480084-000359     104480006003000642960NAIL MANICURE SET S/STE0000001000+00002630+00000+0001T   00002630+0000001255          1400 SE4200               1AZ
104480003104480112-116038     104480006009681820246TCS CARRIER BAG MIDI   0000001000+00000035+00000+0001T   00000035+0000001255          1400 SE4090               1AZ
104481000104481               104481               170213MK     1400+00000+MK0000001753+0000001753+000000000+000000246+0000001999+0000000000+I40000001999+0000000000+Z
104481001104481077-000240     104481006003000326259G/RIBBON 4PC PEARLIZED 0000001000+00001753+00000+0001T   00001753+0000001303          1400 SE4112               1AZ
104482000104482               104482               170213MK     1400+00000+MK0000003069+0000003069+000000000+000000430+0000003490+0000000009+I20000000000+0000003490+Z
104482001104482079-006518     104482006003000647378ART+CRAFT FABRIC MARKER0000001000+00003069+00000+0001T   00003069+0000001438          1400 SE4130               1AZ
104483000104483               104483               170213MK     1400+00000+MK0000003507+0000003507+000000000+000000491+0000003990+0000000008+I20000000000+0000003990+Z
104483001104483031-000002-A   104483006003000247103P/FRAME LOVE 7.5X7.5CM 0000001000+00003507+00000+0001T   00003507+0000001439          1400 SE4510               1AZ
104484000104484               104484               170213MK     1400+00000+MK0000015258+0000015258+000000000+000002138+0000017396+0000000000+I40000017396+0000000000+Z
104484001104484018-050000     104484006003000412679MUG OCC LOVE TWIN BEAR 0000001000+00006139+00000+0001T   00006139+0000001522          1400 SE4515               1AZ
104484002104484077-000299     104484006003000395576G/BAG 32x25cm LRG LOVE 0000002000+00001490+00000+0001T   00001490+0000001522          1400 SE4112               1AZ
104484003104484018-050000     104484006003000412679MUG OCC LOVE TWIN BEAR 0000001000+00006139+00000+0001T   00006139+0000001522          1400 SE4515               1AZ
104485000104485               104485               170213MK     1400+00000+MK0000006485+0000006485+000000000+000000910+0000007390+0000000005+I20000000000+0000007390+Z
104485001104485903-000298     104485006001704012829SWT CANDY RASCALS 50G  0000002000+00000788+00000+0001T   00000788+0000001626          1400 SE4150               1AZ
104485002104485903-002901     104485005996071650655QUICK MILK 5 S/BERRY   0000002000+00001578+00000+0001T   00001578+0000001626          1400 SE4150               1AZ
104485003104485566-001501     104485006003000658398STICKER PAPER EMOTION  0000001000+00001753+00000+0001T   00001753+0000001626          1400 SE4130               1AZ
104486000104486               104486               170213MK     1400+00000+MK0000003678+0000003678+000000000+000000516+0000004194+0000000000+I40000004194+0000000000+Z
104486001104486304-001011     104486006001023806727FLWR ROSE RED W/BEAR   0000006000+00000613+00000+0001T   00000788+0006471629          1400 SE4510               1AZ
104487000104487               104487               170213MK     1400+00000+MK0000000437+0000000437+000000000+000000062+0000000490+0000000009+I20000000000+0000000490+Z
104487001104487080-000133     104487006003000535613CARD&ENV MINI ASTD DSGN0000001000+00000437+00000+0001T   00000437+0000001636          1400 SE4112               1AZ
104488000104488               104488               170213MK     1400+00000+MK0000006926+0000006926+000000000+000000971+0000007890+0000000007+I20000000000+0000007890+Z
104488001104488032-000500     104488006003000591152MIRROR WALL 28x10cm    0000001000+00004385+00000+0001T   00004385+0000001637          1400 SE4510               1AZ
104488002104488077-000010-U   104488006001023168863CREPE-PAPER CERISE-PINK0000001000+00000788+00000+0001T   00000788+0000001637          1400 SE4112               1AZ
104488003104488077-000378     104488006003000507955G/BAG LRG 25x32cm MOM  0000001000+00001753+00000+0001T   00001753+0000001637          1400 SE4112               1AZ
104489000104489               104489               170213MK     1400+00000+MK0000003507+0000003507+000000000+000000491+0000003990+0000000008+I20000000000+0000003990+Z
104489001104489263-000506     104489006001023790231CAR SET 3PK CONSTRUCT  0000001000+00003507+00000+0001T   00003507+0000001638          1400 SE4710               1AZ
104490000104490               104490               170213MK     1400+00000+MK0000004470+0000004470+000000000+000000627+0000005097+0000000000+I40000005097+0000000000+Z
104490001104490019-071611     104490006003000513642PEBBLES W/GEM 10g CLEAR0000001000+00001490+00000+0001T   00001490+0000001640          1400 SE4510               1AZ
104490002104490019-071610     104490006001023904560PEBBLES WATER GEMS 10g 0000001000+00001490+00000+0001T   00001490+0000001640          1400 SE4510               1AZ
104490003104490019-071611     104490006003000513642PEBBLES W/GEM 10g CLEAR0000001000+00001490+00000+0001T   00001490+0000001640          1400 SE4510               1AZ
104491000104491               104491               170213MK     1400+00000+MK0000017276+0000017276+000000000+000002420+0000019696+0000000000+I40000019696+0000000000+Z
104491001104491007-000614     104491006001023768667DIARY W/LOCK+PEN LOVE  0000001000+00005262+00000+0001T   00005262+0000001645          1400 SE4130               1AZ
104491002104491368-000614     104491006001023705808PLUSH LOVE 30cm        0000001000+00008771+00000+0001T   00008771+0000001645          1400 SE4745               1AZ
104491003104491071-000307     104491006003000535118RULER FLEXI 30cm       0000001000+00001490+00000+0001T   00001490+0000001645          1400 SE4130               1AZ
104491004104491077-000299-A   104491006003000670888GIFT-BAG PAPER JMB LOVE0000001000+00001753+00000+0001T   00001753+0000001645          1400 SE4112               1AZ
104492000104492               104492               170213MK     1400+00000+MK0000003451+0000003451+000000000+000000486+0000003930+0000000007+I20000000000+0000003930+Z
104492001104492006-000803     104492006003000653676STREAMERS SET 3ROLLS   0000001000+00002630+00000+0001T   00002630+0000001646          1400 SE4131               1AZ
104492002104492903-000183     104492006003000451043SWT LB HEART LOLLY     0000002000+00000393+00000+0001T   00000393+0000001646          1400 SE4150               1AZ
104492003104492112-116038     104492006009681820246TCS CARRIER BAG MIDI   0000001000+00000035+00000+0001T   00000035+0000001646          1400 SE4090               1AZ
104493000104493               104493               170213MK     1400+00000+MK0000001179+0000001179+000000000+000000168+0000001340+0000000007+I20000000000+0000001340+Z
104493001104493903-000183     104493006003000451043SWT LB HEART LOLLY     0000003000+00000393+00000+0001T   00000393+0000001647          1400 SE4150               1AZ
104494000104494               104494               170213MK     1400+00000+MK0000006172+0000006172+000000000+000000865+0000007030+0000000007+I20000000000+0000007030+Z
104494001104494018-000136     104494006001023659026MUG OCC LOVE W/PLUSH   0000001000+00003507+00000+0001T   00003507+0000001648          1400 SE4515               1AZ
104494002104494077-000270     104494006003000395453GIFT-BAG PPR JMB 33X45 0000001000+00002630+00000+0001T   00002630+0000001648          1400 SE4112               1AZ
104494003104494112-116038     104494006009681820246TCS CARRIER BAG MIDI   0000001000+00000035+00000+0001T   00000035+0000001648          1400 SE4090               1AZ
104495000104495               104495               170213MK     1400+00000+MK0000016487+0000016487+000000000+000002310+0000018797+0000000000+I40000018797+0000000000+Z
104495001104495368-000111     104495006001023780812PLUSH BEAR/DOG 29CM    0000001000+00012279+00000+0001T   00012279+0000001650          1400 SE4745               1AZ
104495002104495903-000057     104495006005929000173SWT GS NOVELTY GIANT AL0000002000+00002104+00000+0001T   00002104+0000001650          1400 SE4150               1AZ
104496000104496               104496               170213MK     1400+00000+MK0000002630+0000002630+000000000+000000369+0000002990+0000000009+I20000000000+0000002990+Z
104496001104496077-000270     104496006003000395453GIFT-BAG PPR JMB 33X45 0000001000+00002630+00000+0001T   00002630+0000001651          1400 SE4112               1AZ
104497000104497               104497               170213MK     1400+00000+MK0000010119+0000010119+000000000+000001417+0000011536+0000000000+I40000011536+0000000000+Z
104497001104497048-000755     104497006003000041282LANTERN PIVOT B/O 12LED0000001000+00004385+00000+0001T   00004385+0000001653          1400 SE4305               1AZ
104497002104497012-000003     104497006003000331192 MICROWAVE CORN STEAMER0000001000+00004385+00000+0001T   00004385+0000001653          1400 SE4300               1AZ
104497003104497112-116038     104497006009681820246TCS CARRIER BAG MIDI   0000001000+00000035+00000+0001T   00000035+0000001653          1400 SE4090               1AZ
104497004104497046-000012     104497006904708013062BATTERIES AA  CARD-OF-40000001000+00001314+00000+0001T   00001314+0000001653          1400 SE4312               1AZ
104498000104498               104498               170213MK     1400+00000+MK0000002192+0000002192+000000000+000000307+0000002490+0000000009+I20000000000+0000002490+Z
104498001104498566-000031     104498006003000283910STICKER BK TEACHER STIC0000001000+00002192+00000+0001T   00002192+0000001655          1400 SE4130               1AZ
104499000104499               104499               170213MK     1400+00000+MK0000021050+0000021050+000000000+000002948+0000023998+0000000000+I40000023998+0000000000+Z
104499001104499039-000799     104499006001023692382CANDLES TEALITE 100PCE 0000001000+00008771+00000+0001T   00008771+0000001657          1400 SE4510               1AZ
104499002104499496-058426     104499000078257584260POOL CRYSTAL-BLU 147x330000001000+00012279+00000+0001T   00012279+0000001657          1400 SE4787               1AZ
104500000104500               104500               170213MK     1400+00000+MK0000008067+0000008067+000000000+000001130+0000009190+0000000007+I20000000000+0000009190+Z
104500001104500018-000170     104500006001023775528MUG OCC. LOVE 2PC MINI 0000001000+00002192+00000+0001T   00002192+0000001658          1400 SE4515               1AZ
104500002104500031-080508     104500006001023802415P/FRAME PL 22X11CM LOVE0000001000+00004385+00000+0001T   00004385+0000001658          1400 SE4510               1AZ
104500003104500077-000299     104500006003000395576G/BAG 32x25cm LRG LOVE 0000001000+00001490+00000+0001T   00001490+0000001658          1400 SE4112               1AZ
104501000104501               104501               170213MK     1400+00000+MK0000003942+0000003942+000000000+000000552+0000004490+0000000004+I20000000000+0000004490+Z
104501001104501566-001012     104501006001023528070STICKERS GLOW IN DARK  0000003000+00001314+00000+0001T   00001314+0000001701          1400 SE4130               1AZ
104502000104502               104502               170213MK     1400+00000+MK0000006172+0000006172+000000000+000000865+0000007030+0000000007+I20000000000+0000007030+Z
104502001104502079-013101     104502006001023863706CRAFT SET DIY PIPE-CLNR0000001000+00002630+00000+0001T   00002630+0000001702          1400 SE4130               1AZ
104502002104502007-000324     10450200600968585864125 SHEETS BRIGHTS MARLI0000001000+00003507+00000+0001T   00003507+0000001702          1400 SE4130               1AZ
104502003104502112-116038     104502006009681820246TCS CARRIER BAG MIDI   0000001000+00000035+00000+0001T   00000035+0000001702          1400 SE4090               1AZ
104503000104503               104503               170213MK     1400+00000+MK0000028461+0000028461+000000000+000003987+0000032448+0000000000+I40000032448+0000000000+Z
104503001104503112-116069     104503006009681820277TCS CARRIER BAG JUMBO  0000001000+00000048+00000+0001T   00000048+0000001709          1400 SE4090               1AZ
104503002104503079-013032-D   104503006003000389643RIBBONS                0000001000+00002630+00000+0001T   00002630+0000001709          1400 SE4130               1AZ
104503003104503071-081091     104503006001151010287STAED/GENKEM ALL-STICK 0000001000+00001227+00000+0001T   00001227+0000001709          1400 SE4130               1AZ
104503004104503007-000324     10450300600968585864125 SHEETS BRIGHTS MARLI0000001000+00003507+00000+0001T   00003507+0000001709          1400 SE4130               1AZ
104503005104503566-000047     104503006003000159093SCRAPBOOK 100xSHEETS   0000002000+00005262+00000+0001T   00005262+0000001709          1400 SE4130               1AZ
104503006104503566-000054     104503006003000085781S/BOOK ALBUM+ACCESORIES0000001000+00010525+00000+0001T   00010525+0000001709          1400 SE4130               1AZ
104504000104504               104504               170213MK     1400+00000+MK0000000788+0000000788+000000000+000000111+0000000890+0000000009+I20000000000+0000000890+Z
104504001104504903-000137     104504006002099004130SWEET GS JELLY BEAN 60G0000001000+00000788+00000+0001T   00000788+0000001713          1400 SE4150               1AZ
104505000104505               104505               170213MK     1400+00000+MK0000005732+0000005732+000000000+000000803+0000006535+0000000000+I40000006535+0000000000+Z
104505001104505112-116038     104505006009681820246TCS CARRIER BAG MIDI   0000001000+00000035+00000+0001T   00000035+0000001715          1400 SE4090               1AZ
104505002104505006-000166-F   104505006003000516735BALLOONS LRG 6PC PURPLE0000001000+00001314+00000+0001T   00001314+0000001715          1400 SE4131               1AZ
104505003104505078-009100     104505006008741002349ALL-CLEAR GLUE 25ml CRD0000001000+00001314+00000+0001T   00001314+0000001715          1400 SE4810               1AZ
104505004104505079-013098     104505006003000197040ART+CRAFT SET DIY      0000001000+00003069+00000+0001T   00003069+0000001715          1400 SE4130               1AZ
104506000104506               104506               170213MK     1400+00000+MK0000005729+0000005729+000000000+000000803+0000006530+0000000002+I20000000000+0000006530+Z
104506001104506903-003080     104506005907029004673SWT SNACK STIX CHOC 50g0000002000+00000876+00000+0001T   00000876+0000001716          1400 SE4150               1AZ
104506002104506903-000844     104506005010478432567SWT CANDY DL LUV HEARTS0000003000+00001314+00000+0001T   00001314+0000001716          1400 SE4150               1AZ
104506003104506112-116038     104506006009681820246TCS CARRIER BAG MIDI   0000001000+00000035+00000+0001T   00000035+0000001716          1400 SE4090               1AZ
104507000104507               104507               170213MK     1400+00000+MK0000011260+0000011260+000000000+000001577+0000012837+0000000000+I40000012837+0000000000+Z
104507001104507001-000175     104507006001023788108B/MUG GLS LOVE 380ML   0000001000+00004385+00000+0001T   00004385+0000001719          1400 SE4515               1AZ
104507002104507018-019000     104507006003000557288MUG OCC. LOVE JUMBO    0000001000+00005262+00000+0001T   00005262+0000001719          1400 SE4515               1AZ
104507003104507077-000303     104507006001023593757GIFT-BAG PAPER MED     0000001000+00001578+00000+0001T   00001578+0000001719          1400 SE4112               1AZ
104507004104507112-116038     104507006009681820246TCS CARRIER BAG MIDI   0000001000+00000035+00000+0001T   00000035+0000001719          1400 SE4090               1AZ
104508000104508               104508               170213MK     1400+00000+MK0000008101+0000008101+000000000+000001136+0000009230+0000000007+I20000000000+0000009230+Z
104508001104508079-000275     104508006003000160488PAINT-BRUSHES 6PCE PRO 0000001000+00001753+00000+0001T   00001753+0000001720          1400 SE4130               1AZ
104508002104508079-000271     104508006003000160082PAINT-BRUSHES LRGE ART 0000001000+00003069+00000+0001T   00003069+0000001720          1400 SE4130               1AZ
104508003104508466-000056     104508006001023839053BALLS 35mm   SET-OF-3  0000001000+00003244+00000+0001T   00003244+0000001720          1400 SE4785               1AZ
104508004104508112-116038     104508006009681820246TCS CARRIER BAG MIDI   0000001000+00000035+00000+0001T   00000035+0000001720          1400 SE4090               1AZ
104509000104509               104509               170213MK     1400+00000+MK0000003507+0000003507+000000000+000000491+0000003990+0000000008+I20000000000+0000003990+Z
104509001104509018-005009     104509006001023725608MUG W/PLUSH-BEAR LOVE  0000001000+00003507+00000+0001T   00003507+0000001720          1400 SE4515               1AZ
104510000104510               104510               170213MK     1400+00000+MK0000008594+0000008594+000000000+000001204+0000009798+0000000000+I40000009798+0000000000+Z
104510001104510041-093000     104510006003000320882B/GIFT SET 4PC B/RANGE 0000001000+00007016+00000+0001T   00007016+0000001724          1400 SE4200               1AZ
104510002104510077-000303     104510006001023593757GIFT-BAG PAPER MED     0000001000+00001578+00000+0001T   00001578+0000001724          1400 SE4112               1AZ
104511000104511               104511               170213MK     1400+00000+MK0000002630+0000002630+000000000+000000369+0000002990+0000000009+I20000000000+0000002990+Z
104511001104511077-000270     104511006003000395453GIFT-BAG PPR JMB 33X45 0000001000+00002630+00000+0001T   00002630+0000001724          1400 SE4112               1AZ
104512000104512               104512               170213MK     1400+00000+MK0000005787+0000005787+000000000+000000811+0000006590+0000000008+I20000000000+0000006590+Z
104512001104512486-001012     104512006001023820907CLOCK ALARM SQR 10X12CM0000001000+00004385+00000+0001T   00004385+0000001726          1400 SE4510               1AZ
104512002104512046-000011     104512004897006172994BATTERIES SIZE:AA  2PCE0000001000+00001402+00000+0001T   00001402+0000001726          1400 SE4312               1AZ
104513000104513               104513               170213MK     1400+00000+MK0000012014+0000012014+000000000+000001683+0000013690+0000000007+I20000000000+0000013690+Z
104513001104513077-000327     104513006001023677686GIFT-BAG 25X32CM E/D BA0000001000+00001490+00000+0001T   00001490+0000001727          1400 SE4112               1AZ
104513002104513562-000211     104513006001023851536PUSH-IN BOARD ALPHABET 0000001000+00005262+00000+0001T   00005262+0000001727          1400 SE4755               1AZ
104513003104513562-000199     104513006001023732910PUSH-IN BOARD WDN ASSTD0000001000+00005262+00000+0001T   00005262+0000001727          1400 SE4755               1AZ
104514000104514               104514               170213MK     1400+00000+MK0000004728+0000004728+000000000+000000665+0000005390+0000000003+I20000000000+0000005390+Z
104514001104514903-000295     104514006001704002899SWT MS FRUITY RASCALS  0000001000+00000876+00000+0001T   00000876+0000001728          1400 SE4150               1AZ
104514002104514046-000012     104514006904708013062BATTERIES AA  CARD-OF-40000001000+00001314+00000+0001T   00001314+0000001728          1400 SE4312               1AZ
104514003104514077-000314     104514006003000181148GIFT-BAG 11X14CM MATT  0000002000+00000876+00000+0001T   00000876+0000001728          1400 SE4112               1AZ
104514004104514903-000183     104514006003000451043SWT LB HEART LOLLY     0000002000+00000393+00000+0001T   00000393+0000001728          1400 SE4150               1AZ
104515000104515               104515               170213MK     1400+00000+MK0000005292+0000005292+000000000+000000743+0000006030+0000000005+I20000000000+0000006030+Z
104515001104515903-000121     104515006002099001689SWT GS ZILLIONS SOURS  0000001000+00000700+00000+0001T   00000700+0000001729          1400 SE4150               1AZ
104515002104515071-001019     104515006001023474513MARKER BLACK NAME-PEN  0000001000+00000876+00000+0001T   00000876+0000001729          1400 SE4130               1AZ
104515003104515007-000249     104515006003000590254GLUE DOTS 180x5mm      0000001000+00002630+00000+0001T   00002630+0000001729          1400 SE4130               1AZ
104515004104515112-116038     104515006009681820246TCS CARRIER BAG MIDI   0000001000+00000035+00000+0001T   00000035+0000001729          1400 SE4090               1AZ
104515005104515079-009702-D   104515008427973059354PAPER SIRIO A2 RED COL 0000001000+00001051+00000+0001T   00001051+0000001729          1400 SE4130               1AZ
104516000104516               104516               170213MK     1400+00000+MK0000002455+0000002455+000000000+000000344+0000002790+0000000009+I20000000000+0000002790+Z
104516001104516034-078805     104516006001023994097BABY W/WIPES 55PCE LACE0000001000+00002455+00000+0001T   00002455+0000001730          1400 SE4215               1AZ
104517000104517               104517               170213MK     1400+00000+MK0000002630+0000002630+000000000+000000369+0000002990+0000000009+I20000000000+0000002990+Z
104517001104517034-078810     104517006001023856838DIAPER DISPOSE-BAGSx1000000001000+00002630+00000+0001T   00002630+0000001731          1400 SE4215               1AZ
104518000104518               104518               170213MK     1400+00000+MK0000001927+0000001927+000000000+000000270+0000002190+0000000007+I20000000000+0000002190+Z
104518001104518007-000555     104518006001023848239MEMO-PAD MINI LOVE     0000001000+00000613+00000+0001T   00000613+0000001731          1400 SE4130               1AZ
104518002104518903-000844     104518005010478432567SWT CANDY DL LUV HEARTS0000001000+00001314+00000+0001T   00001314+0000001731          1400 SE4150               1AZ
104519000104519               104519               170213MK     1400+00000+MK0000009557+0000009557+000000000+000001340+0000010897+0000000000+I40000010897+0000000000+Z
104519001104519301-085007     104519006003000673698ORN OCC. LOVE S/PLAQUE 0000001000+00007893+00000+0001T   00007893+0000001734          1400 SE4505               1AZ
104519002104519077-000011-D   104519006001023808554TISSUE-WRAP WHITE 10PCE0000001000+00000876+00000+0001T   00000876+0000001734          1400 SE4112               1AZ
104519003104519077-000010-C   104519006001023123879CREPE-PAPER RED        0000001000+00000788+00000+0001T   00000788+0000001734          1400 SE4112               1AZ
104520000104520               104520               170213MK     1400+00000+MK0000007663+0000007663+000000000+000001074+0000008737+0000000000+I40000008737+0000000000+Z
104520001104520039-000108     104520006001023524034TEA-LITE CANDLES 8PCE  0000001000+00001490+00000+0001T   00001490+0000001756          1400 SE4510               1AZ
104520002104520088-000108     104520006001023765536POTPOURRI-OIL 10ml ASST0000001000+00001753+00000+0001T   00001753+0000001756          1400 SE4212               1AZ
104520003104520030-000031-A   104520006003000457588PLAQUE W/WORDS ASSTD   0000001000+00004385+00000+0001T   00004823+0006471756          1400 SE4505               1AZ
104520004104520112-116038     104520006009681820246TCS CARRIER BAG MIDI   0000001000+00000035+00000+0001T   00000035+0000001756          1400 SE4090               1AZ
104521000104521               104521               170213MK     1400+00000+MK0000000788+0000000788+000000000+000000111+0000000890+0000000009+I20000000000+0000000890+Z
104521001104521903-000137     104521006002099004130SWEET GS JELLY BEAN 60G0000001000+00000788+00000+0001T   00000788+0000001805          1400 SE4150               1AZ
M17021391                              CASH        MKSLAVE 1                       Z-REPORT No.   581TOTAL (Sales - Refunds)           5672.13       CASH TO BE BANKED                 2841.20       DEBIT CARDS                          0.00       CREDIT CARDS                      2830.93       Z-READING                         5672.13       AIRTIME DEBIT CARD SALES             0.00       AIRTIME CARD SALES                   0.00       OVERS/UNDERS                         0.00       AIRTIME CASH SALES                   0.00       GIFT CARDS                           0.00       GIFT CARD CASH SALES                 0.00       T O T A L  CASH PAYOUTS              0.00                                                                                                                                                                                                                                                                                                                                                      Z
M17021392                              CASH        MKABSENT                                                                                                                                                                                          ANNUAL LEAVE                                                                                                                                                                                    DAY OFF                                                                                                                                                                                         COMMENTS                                                                                                                                                                                                                                                                                                                                                                                       Z
Y17021300                                          MK00000000497775+000069
ZMK17021318123 SLAVE 1      SALES DATA                     NEXT INVOICE NO.  104522 0581
X MK Slave 1 First invoice 104453 170213 Last invoice 104521 170213 Next invoice 104522 Total number of records 000000244 clbackup completed 18:12:17
