202971000202971               202971               170213MK     1400+00000+MK0000004993+0000004993+000000000+000000702+0000005690+0000000005+I20000000000+0000005690+Z
202971001202971079-009702-D   202971008427973059354PAPER SIRIO A2 RED COL 0000002000+00001051+00000+0001T   00001051+0000000953          1400 J94130               2AZ
202971002202971071-004202     202971006001023417176SCISSORS-SCHOOL PL/MTL 0000001000+00001139+00000+0001T   00001139+0000000953          1400 J94130               2AZ
202971003202971071-001012     202971006001023474445MARKERS BLACK ROUND    0000001000+00000876+00000+0001T   00000876+0000000953          1400 J94130               2AZ
202971004202971076-000017     202971006001811010022TWINE COTTON 50g-BALL  0000001000+00000876+00000+0001T   00000876+0000000953          1400 J94810               2AZ
202972000202972               202972               170213MK     1400+00000+MK0000000048+0000000048+000000000+000000007+0000000050+0000000005+I20000000000+0000000050+Z
202972001202972112-116069     202972006009681820277TCS CARRIER BAG JUMBO  0000001000+00000048+00000+0001T   00000048+0000000955          1400 J94090               2AZ
202973000202973               202973               170213MK     1400+00000+MK0000001753+0000001753+000000000+000000246+0000001990+0000000009+I20000000000+0000001990+Z
202973001202973027-000917     202973006001023367433DUSTPAN-SET MINI 21x16 0000001000+00001753+00000+0001T   00001753+0000000955          1400 J94212               2AZ
202974000202974               202974               170213MK     1400+00000+MK0000005259+0000005259+000000000+000000737+0000005996+0000000000+I40000005996+0000000000+Z
202974001202974077-000407     202974006003000145096G/BAG PP 19X26X8CM     0000001000+00001314+00000+0001T   00001314+0000001002          1400 J94112               2AZ
202974002202974079-000126     202974006003000661633ANIMAL PUZZLE PACK     0000001000+00001753+00000+0001T   00001753+0000001002          1400 J94130               2AZ
202974003202974072-020261     202974006003000305131PET DOG-CHEW TYRE SMALL0000001000+00002192+00000+0001T   00002192+0000001002          1400 J94870               2AZ
202975000202975               202975               170213MK     1400+00000+MK0000006138+0000006138+000000000+000000860+0000006990+0000000008+I20000000000+0000006990+Z
202975001202975024-000065     202975006001023770424SPATULA SILICONE 25CM  0000001000+00003946+00000+0001T   00003946+0000001014          1400 J94300               2AZ
202975002202975566-000031     202975006003000283910STICKER BK TEACHER STIC0000001000+00002192+00000+0001T   00002192+0000001014          1400 J94130               2AZ
202976000202976               202976               170213MK     1400+00000+MK0000006224+0000006224+000000000+000000872+0000007090+0000000006+I20000000000+0000007090+Z
202976001202976903-000518     202976006001704012782SWT STRAWS S/BERRY 100g0000001000+00001227+00000+0001T   00001227+0000001023          1400 J94150               2AZ
202976002202976031-006228     202976006003000142293P/FRAME+PLAQUE 10X15CM 0000001000+00003507+00000+0001T   00003507+0000001023          1400 J94510               2AZ
202976003202976077-000299     202976006003000395576G/BAG 32x25cm LRG LOVE 0000001000+00001490+00000+0001T   00001490+0000001023          1400 J94112               2AZ
202977000202977               202977               170213MK     1400+00000+MK0000007014+0000007014+000000000+000000982+0000007990+0000000006+I20000000000+0000007990+Z
202977001202977007-000325     202977006009698066514PAPER A4 160GSM 25SHTS 0000001000+00003507+00000+0001T   00003507+0000001024          1400 J94130               2AZ
202977002202977007-000324     20297700600968585864125 SHEETS BRIGHTS MARLI0000001000+00003507+00000+0001T   00003507+0000001024          1400 J94130               2AZ
202978000202978               202978               170213MK     1400+00000+MK0000000700+0000000700+000000000+000000098+0000000790+0000000008+I20000000000+0000000790+Z
202978001202978565-000256     202978006003000609826NOVELTY GLOW SLIME     0000001000+00000700+00000+0001T   00000700+0000001322          1400 J94745               2AZ
202979000202979               202979               170213MK     1400+00000+MK0000008770+0000008770+000000000+000001228+0000009998+0000000000+I40000009998+0000000000+Z
202979001202979009-001312     202979006001023854728MELAMINE FLOWER TRAY RE0000002000+00004385+00000+0001T   00004385+0000001324          1400 J94210               2AZ
202980000202980               202980               170213MK     1400+00000+MK0000008771+0000008771+000000000+000001228+0000009999+0000000000+I40000009999+0000000000+Z
202980001202980496-059421     202980000078257594214POOL 122cm STARFISH    0000001000+00008771+00000+0001T   00008771+0000001335          1400 J94787               2AZ
202981000202981               202981               170213MK     1400+00000+MK0000009165+0000009165+000000000+000001284+0000010440+0000000009+I20000000000+0000010440+Z
202981001202981112-116069     202981006009681820277TCS CARRIER BAG JUMBO  0000001000+00000048+00000+0001T   00000048+0000001336          1400 J94090               2AZ
202981002202981563-000318-L   202981006003000407088SERVIETTES 33cm RED    0000001000+00002192+00000+0001T   00002192+0000001336          1400 J94214               2AZ
202981003202981080-000127     202981006003000424351VALENTINES DAY 36x24CM 0000001000+00002192+00000+0001T   00002192+0000001336          1400 J94112               2AZ
202981004202981304-001011     202981006001023806727FLWR ROSE RED W/BEAR   0000002000+00000613+00000+0001T   00000788+0006471336          1400 J94510               2AZ
202981005202981301-085004     202981006003000420469ORN LOVE PLAQUE 21X10CM0000001000+00003507+00000+0001T   00003946+0006471336          1400 J94505               2AZ
202982000202982               202982               170213MK     1400+00000+MK0000002192+0000002192+000000000+000000307+0000002490+0000000009+I20000000000+0000002490+Z
202982001202982077-000926     202982006003000414178G/WRAP 700mmx2m LOVE   0000001000+00002192+00000+0001T   00002192+0000001347          1400 J94112               2AZ
202983000202983               202983               170213MK     1400+00000+MK0000000876+0000000876+000000000+000000123+0000000990+0000000009+I20000000000+0000000990+Z
202983001202983078-000025     202983008887013700064SUPERGLUE 3g 1PCE CARD 0000001000+00000876+00000+0001T   00000876+0000001350          1400 J94810               2AZ
202984000202984               202984               170213MK     1400+00000+MK0000005262+0000005262+000000000+000000737+0000005999+0000000000+I40000005999+0000000000+Z
202984001202984159-000107     202984006001023640406SHOWER-CURTAIN 180cm   0000001000+00005262+00000+0001T   00006139+0008191351          1400 J94200               2AZ
202985000202985               202985               170213MK     1400+00000+MK0000019331+0000019331+000000000+000002710+0000022041+0000000000+I40000022041+0000000000+Z
202985001202985112-116069     202985006009681820277TCS CARRIER BAG JUMBO  0000001000+00000048+00000+0001T   00000048+0000001353          1400 J94090               2AZ
202985002202985039-001023     202985006003000466337CANDLE TEA-LITE METALIC0000001000+00001753+00000+0001T   00001753+0000001353          1400 J94510               2AZ
202985003202985563-000318-L   202985006003000407088SERVIETTES 33cm RED    0000001000+00002192+00000+0001T   00002192+0000001353          1400 J94214               2AZ
202985004202985080-000127     202985006003000424351VALENTINES DAY 36x24CM 0000001000+00002192+00000+0001T   00002192+0000001353          1400 J94112               2AZ
202985005202985077-000926     202985006003000414178G/WRAP 700mmx2m LOVE   0000001000+00002192+00000+0001T   00002192+0000001353          1400 J94112               2AZ
202985006202985028-000796-A   202985006001023897152SKEWERS BAMBOO 100P 4mm0000001000+00001753+00000+0001T   00001753+0000001353          1400 J94305               2AZ
202985007202985903-000844     202985005010478432567SWT CANDY DL LUV HEARTS0000003000+00001314+00000+0001T   00001314+0000001353          1400 J94150               2AZ
202985008202985079-000126     202985006003000661633ANIMAL PUZZLE PACK     0000003000+00001753+00000+0001T   00001753+0000001353          1400 J94130               2AZ
202986000202986               202986               170213MK     1400+00000+MK0000002192+0000002192+000000000+000000307+0000002490+0000000009+I20000000000+0000002490+Z
202986001202986080-000127     202986006003000424351VALENTINES DAY 36x24CM 0000001000+00002192+00000+0001T   00002192+0000001354          1400 J94112               2AZ
202987000202987               202987               170213MK     1400+00000+MK0000006187+0000006187+000000000+000000867+0000007050+0000000004+I20000000000+0000007050+Z
202987001202987368-000104     202987006001023751348PLUSH BEAR RUFFLED-LOOK0000001000+00006139+00000+0001T   00006139+0000001355          1400 J94745               2AZ
202987002202987112-116069     202987006009681820277TCS CARRIER BAG JUMBO  0000001000+00000048+00000+0001T   00000048+0000001355          1400 J94090               2AZ
202988000202988               202988               170213MK     1400+00000+MK0000010173+0000010173+000000000+000001427+0000011600+0000000000+I40000011600+0000000000+Z
202988001202988903-000095     202988006001704011495SWT SPECKLED-EGGS 100G 0000001000+00002104+00000+0001T   00002104+0000001358          1400 J94150               2AZ
202988002202988903-000087     202988006001704000161SWT SPECKLED-EGGS 50G  0000001000+00001139+00000+0001T   00001139+0000001358          1400 J94150               2AZ
202988003202988903-000183     202988006003000451043SWT LB HEART LOLLY     0000001000+00000393+00000+0001T   00000393+0000001358          1400 J94150               2AZ
202988004202988077-000318     202988006001023609755GIFT-BAG 18X23CM E/D AN0000001000+00001227+00000+0001T   00001227+0000001358          1400 J94112               2AZ
202988005202988018-019000     202988006003000557288MUG OCC. LOVE JUMBO    0000001000+00005262+00000+0001T   00005262+0000001358          1400 J94515               2AZ
202988006202988112-116069     202988006009681820277TCS CARRIER BAG JUMBO  0000001000+00000048+00000+0001T   00000048+0000001358          1400 J94090               2AZ
202989000202989               202989               170213MK     1400+00000+MK0000016135+0000016135+000000000+000002260+0000018395+0000000000+I40000018395+0000000000+Z
202989001202989004-078990     202989006001023994431EARPHONES MINI 1.2m    0000001000+00003507+00000+0001T   00003507+0000001400          1400 J94310               2AZ
202989002202989002-021042     202989006001023621801TOOTHPICKS 250PCE      0000001000+00001227+00000+0001T   00001227+0000001400          1400 J94300               2AZ
202989003202989159-080358     202989006001023742315SHOWER /DRAIN FILTER   0000001000+00002630+00000+0001T   00002630+0000001400          1400 J94200               2AZ
202989004202989486-001015     202989006001023885838WALL CLOCK SQ 26CM ASST0000001000+00008771+00000+0001T   00008771+0000001400          1400 J94510               2AZ
202990000202990               202990               170213MK     1400+00000+MK0000001753+0000001753+000000000+000000246+0000001999+0000000000+I40000001999+0000000000+Z
202990001202990031-006534     202990006001023995896P/FRAME AUTO 10x15cm   0000001000+00001753+00000+0001T   00001753+0000001409          1400 J94510               2AZ
202991000202991               202991               170213MK     1400+00000+MK0000003901+0000003901+000000000+000000547+0000004440+0000000008+I20000000000+0000004440+Z
202991001202991018-000177     202991006001023797513MUG MINI LOVE ASSTD    0000003000+00000700+00000+0001T   00000700+0000001416          1400 J94515               2AZ
202991002202991007-010496     202991006003000640652MARKER WHITEBOARD 4PCE 0000001000+00001753+00000+0001T   00001753+0000001416          1400 J94130               2AZ
202991003202991112-116069     202991006009681820277TCS CARRIER BAG JUMBO  0000001000+00000048+00000+0001T   00000048+0000001416          1400 J94090               2AZ
202992000202992               202992               170213MK     1400+00000+MK0000007453+0000007453+000000000+000001044+0000008490+0000000007+I20000000000+0000008490+Z
202992001202992046-000012     202992006904708013062BATTERIES AA  CARD-OF-40000001000+00001314+00000+0001T   00001314+0000001417          1400 J94312               2AZ
202992002202992486-001011     202992006003000057115ALARM-CLOCK PL 13x13cm 0000001000+00006139+00000+0001T   00006139+0000001417          1400 J94510               2AZ
202993000202993               202993               170213MK     1400+00000+MK0000002540+0000002540+000000000+000000356+0000002890+0000000006+I20000000000+0000002890+Z
202993001202993304-001011     202993006001023806727FLWR ROSE RED W/BEAR   0000001000+00000613+00000+0001T   00000788+0006471418          1400 J94510               2AZ
202993002202993018-000177     202993006001023797513MUG MINI LOVE ASSTD    0000001000+00000700+00000+0001T   00000700+0000001418          1400 J94515               2AZ
202993003202993903-000499     202993006001704012492SWT CHOC MALLOWS 50g   0000001000+00001227+00000+0001T   00001227+0000001418          1400 J94150               2AZ
202994000202994               202994               170213MK     1400+00000+MK0000004857+0000004857+000000000+000000681+0000005530+0000000008+I20000000000+0000005530+Z
202994001202994065-006042     202994006001023712998MARACAS 2PCE CHA-CHA   0000001000+00001753+00000+0001T   00001753+0000001419          1400 J94745               2AZ
202994002202994089-000220     202994006003000677368KEY CHAIN+PEN+KNIFE    0000001000+00003069+00000+0001T   00003069+0000001419          1400 J94205               2AZ
202994003202994112-116038     202994006009681820246TCS CARRIER BAG MIDI   0000001000+00000035+00000+0001T   00000035+0000001419          1400 J94090               2AZ
202995000202995               202995               170213MK     1400+00000+MK0000004383+0000004383+000000000+000000615+0000004998+0000000000+I40000004998+0000000000+Z
202995001202995365-008629     202995006001023494009PLAY C/PHONE B/O MUSIC 0000001000+00002630+00000+0001T   00002630+0000001421          1400 J94725               2AZ
202995002202995065-006041     202995006001023712974TAMBOURINE 15cm P/BAND 0000001000+00001753+00000+0001T   00001753+0000001421          1400 J94745               2AZ
202996000202996               202996               170213MK     1400+00000+MK0000004733+0000004733+000000000+000000663+0000005390+0000000006+I20000000000+0000005390+Z
202996001202996304-001011     202996006001023806727FLWR ROSE RED W/BEAR   0000001000+00000613+00000+0001T   00000788+0006471424          1400 J94510               2AZ
202996002202996018-000136     202996006001023659026MUG OCC LOVE W/PLUSH   0000001000+00003507+00000+0001T   00003507+0000001424          1400 J94515               2AZ
202996003202996304-001011     202996006001023806727FLWR ROSE RED W/BEAR   0000001000+00000613+00000+0001T   00000788+0006471424          1400 J94510               2AZ
202997000202997               202997               170213MK     1400+00000+MK0000004385+0000004385+000000000+000000614+0000004990+0000000009+I20000000000+0000004990+Z
202997001202997006-000190     202997006003000685530BALLOONS LOVE 81x91cm  0000001000+00004385+00000+0001T   00004385+0000001425          1400 J94131               2AZ
202998000202998               202998               170213MK     1400+00000+MK0000013157+0000013157+000000000+000001842+0000014990+0000000009+I20000000000+0000014990+Z
202998001202998029-000012     202998006001577033754BUCKET GALV 10L        0000001000+00013157+00000+0001T   00013157+0000001430          1400 J94510               2AZ
202999000202999               202999               170213MK     1400+00000+MK0000004385+0000004385+000000000+000000614+0000004999+0000000000+I40000004999+0000000000+Z
202999001202999158-008937     202999006003000571642TOILET ROLL HOLDER     0000001000+00004385+00000+0001T   00004385+0000001431          1400 J94300               2AZ
203000000203000               203000               170213MK     1400+00000+MK0000012628+0000012628+000000000+000001769+0000014390+0000000007+I20000000000+0000014390+Z
203000001203000304-001011     203000006001023806727FLWR ROSE RED W/BEAR   0000002000+00000613+00000+0001T   00000788+0006471432          1400 J94510               2AZ
203000002203000368-000637     203000006001023874092PLUSH BEAR SLEEPING LOV0000001000+00011402+00000+0001T   00012279+0006471432          1400 J94745               2AZ
203001000203001               203001               170213MK     1400+00000+MK0000002185+0000002185+000000000+000000310+0000002490+0000000005+I20000000000+0000002490+Z
203001001203001903-000183     203001006003000451043SWT LB HEART LOLLY     0000004000+00000393+00000+0001T   00000393+0000001433          1400 J94150               2AZ
203001002203001304-001011     203001006001023806727FLWR ROSE RED W/BEAR   0000001000+00000613+00000+0001T   00000788+0006471433          1400 J94510               2AZ
203002000203002               203002               170213MK     1400+00000+MK0000005310+0000005310+000000000+000000744+0000006050+0000000004+I20000000000+0000006050+Z
203002001203002301-086006     203002006003000498918ORN OCCASION LOVE 4ASTD0000001000+00005262+00000+0001T   00005262+0000001434          1400 J94505               2AZ
203002002203002112-116069     203002006009681820277TCS CARRIER BAG JUMBO  0000001000+00000048+00000+0001T   00000048+0000001434          1400 J94090               2AZ
203003000203003               203003               170213MK     1400+00000+MK0000019341+0000019341+000000000+000002710+0000022051+0000000000+I40000022051+0000000000+Z
203003001203003077-000520     203003006001023908254GIFT-BAG 25X32CM       0000001000+00001753+00000+0001T   00001753+0000001438          1400 J94112               2AZ
203003002203003031-000903-A   203003006003000457113P/FRAME PL STRESSESD   0000001000+00004385+00000+0001T   00004385+0000001438          1400 J94510               2AZ
203003003203003031-000903-B   203003006003000457236P/FRAME PL CREAMY 13X180000001000+00005262+00000+0001T   00005262+0000001438          1400 J94510               2AZ
203003004203003031-000903-C   203003006003000457359P/FRAME PL CREAMY 20X250000001000+00007893+00000+0001T   00007893+0000001438          1400 J94510               2AZ
203003005203003112-116069     203003006009681820277TCS CARRIER BAG JUMBO  0000001000+00000048+00000+0001T   00000048+0000001438          1400 J94090               2AZ
203004000203004               203004               170213MK     1400+00000+MK0000013022+0000013022+000000000+000001827+0000014849+0000000000+I40000014849+0000000000+Z
203004001203004112-116069     203004006009681820277TCS CARRIER BAG JUMBO  0000001000+00000048+00000+0001T   00000048+0000001443          1400 J94090               2AZ
203004002203004079-013032-E   203004006003000389766ART+CRAFT COL/PAPER    0000002000+00002630+00000+0001T   00002630+0000001443          1400 J94130               2AZ
203004003203004077-000270     203004006003000395453GIFT-BAG PPR JMB 33X45 0000001000+00002630+00000+0001T   00002630+0000001443          1400 J94112               2AZ
203004004203004077-000239     203004006003000160419GIFT-RIBBON ROLL PEARL 0000001000+00001753+00000+0001T   00001753+0000001443          1400 J94112               2AZ
203004005203004071-005211     203004006003000152346CELLOTAPE MOUNTING TAPE0000001000+00001753+00000+0001T   00001753+0000001443          1400 J94130               2AZ
203004006203004080-000124     203004006003000297733CARD & ENV VALENTINES  0000001000+00001578+00000+0001T   00001578+0000001443          1400 J94112               2AZ
203005000203005               203005               170213MK     1400+00000+MK0000001753+0000001753+000000000+000000246+0000001990+0000000009+I20000000000+0000001990+Z
203005001203005079-013032     203005006003000389209SET LETTERS 2 ASSTD    0000001000+00001753+00000+0001T   00001753+0000001443          1400 J94130               2AZ
203006000203006               203006               170213MK     1400+00000+MK0000003325+0000003325+000000000+000000470+0000003790+0000000005+I20000000000+0000003790+Z
203006001203006903-000183     203006006003000451043SWT LB HEART LOLLY     0000004000+00000393+00000+0001T   00000393+0000001448          1400 J94150               2AZ
203006002203006079-003002     203006006003000447886A/TUBE 75ML RED        0000001000+00001753+00000+0001T   00001753+0000001448          1400 J94130               2AZ
203007000203007               203007               170213MK     1400+00000+MK0000008765+0000008765+000000000+000001230+0000009990+0000000005+I20000000000+0000009990+Z
203007001203007903-000911     203007006009802868454SWT ST GUM TAPE BARBIE 0000001000+00001753+00000+0001T   00001753+0000001448          1400 J94150               2AZ
203007002203007903-000918     203007006009802868522SWEET GUM TAPE H/KITTY 0000002000+00001753+00000+0001T   00001753+0000001448          1400 J94150               2AZ
203007003203007903-000911     203007006009802868454SWT ST GUM TAPE BARBIE 0000002000+00001753+00000+0001T   00001753+0000001448          1400 J94150               2AZ
203008000203008               203008               170213MK     1400+00000+MK0000010941+0000010941+000000000+000001533+0000012474+0000000000+I40000012474+0000000000+Z
203008001203008112-116053     203008006006438002399TCS CARRIER BAG 38L    0000001000+00000069+00000+0001T   00000069+0000001456          1400 J94090               2AZ
203008002203008368-000049     203008006003000536955PLUSH BEAR 15cm LOVE   0000002000+00004385+00000+0001T   00004385+0000001456          1400 J94745               2AZ
203008003203008304-001011     203008006001023806727FLWR ROSE RED W/BEAR   0000002000+00000613+00000+0001T   00000788+0006471456          1400 J94510               2AZ
203008004203008903-000520     203008006001704009898SWT GUMMY MINI SOUR 60g0000001000+00000876+00000+0001T   00000876+0000001456          1400 J94150               2AZ
203009000203009               203009               170213MK     1400+00000+MK0000005260+0000005260+000000000+000000738+0000005990+0000000008+I20000000000+0000005990+Z
203009001203009007-000602     203009006003000541270BOOK COVER 2M SOLID COL0000001000+00002630+00000+0001T   00002630+0000001457          1400 J94130               2AZ
203009002203009566-000308     203009006003000522521STICKER TAPE 3PCS      0000001000+00002630+00000+0001T   00002630+0000001457          1400 J94130               2AZ
203010000203010               203010               170213MK     1400+00000+MK0000010414+0000010414+000000000+000001459+0000011870+0000000003+I20000000000+0000011870+Z
203010001203010112-116053     203010006006438002399TCS CARRIER BAG 38L    0000001000+00000069+00000+0001T   00000069+0000001500          1400 J94090               2AZ
203010002203010018-000136     203010006001023659026MUG OCC LOVE W/PLUSH   0000001000+00003507+00000+0001T   00003507+0000001500          1400 J94515               2AZ
203010003203010018-000127     203010006001023380289MUG OCC STRAIGHT LOVE  0000001000+00001578+00000+0001T   00001753+0006471500          1400 J94515               2AZ
203010004203010080-000127     203010006003000424351VALENTINES DAY 36x24CM 0000001000+00002192+00000+0001T   00002192+0000001500          1400 J94112               2AZ
203010005203010077-000299     203010006003000395576G/BAG 32x25cm LRG LOVE 0000001000+00001490+00000+0001T   00001490+0000001500          1400 J94112               2AZ
203010006203010077-000303     203010006001023593757GIFT-BAG PAPER MED     0000001000+00001578+00000+0001T   00001578+0000001500          1400 J94112               2AZ
203011000203011               203011               170213MK     1400+00000+MK0000003506+0000003506+000000000+000000492+0000003990+0000000008+I20000000000+0000003990+Z
203011001203011103-000030     203011006003000510085BASKET WOVE ROUND 17X170000001000+00001753+00000+0001T   00002192+0008161500          1400 J94300               2AZ
203011002203011018-000200     203011006001023816573M/DAILY V-SHAPE PSYCH  0000001000+00001753+00000+0001T   00001753+0000001500          1400 J94515               2AZ
203012000203012               203012               170213MK     1400+00000+MK0000008767+0000008767+000000000+000001229+0000009990+0000000006+I20000000000+0000009990+Z
203012001203012567-011311     203012006003000593453BOOK ACTIVITY DOT TO   0000002000+00002630+00000+0001T   00002630+0000001505          1400 J94757               2AZ
203012002203012031-000002-A   203012006003000247103P/FRAME LOVE 7.5X7.5CM 0000001000+00003507+00000+0001T   00003507+0000001505          1400 J94510               2AZ
203013000203013               203013               170213MK     1400+00000+MK0000004385+0000004385+000000000+000000614+0000004990+0000000009+I20000000000+0000004990+Z
203013001203013261-003342     203013006001023484895GUN RIFLE ACTION-TEAM  0000001000+00004385+00000+0001T   00004385+0000001507          1400 J94710               2AZ
203014000203014               203014               170213MK     1400+00000+MK0000002495+0000002495+000000000+000000351+0000002840+0000000006+I20000000000+0000002840+Z
203014001203014903-000183     203014006003000451043SWT LB HEART LOLLY     0000001000+00000393+00000+0001T   00000393+0000001509          1400 J94150               2AZ
203014002203014077-000010-C   203014006001023123879CREPE-PAPER RED        0000001000+00000788+00000+0001T   00000788+0000001509          1400 J94112               2AZ
203014003203014077-000310     203014006001023608635GIFT-BAG 18X23CM GLOSS 0000001000+00001314+00000+0001T   00001314+0000001509          1400 J94112               2AZ
203015000203015               203015               170213MK     1400+00000+MK0000004385+0000004385+000000000+000000614+0000004990+0000000009+I20000000000+0000004990+Z
203015001203015031-000851     203015006001023851994P/FRAME COL 4-H 31X17CM0000001000+00004385+00000+0001T   00004385+0000001516          1400 J94510               2AZ
203016000203016               203016               170213MK     1400+00000+MK0000009680+0000009680+000000000+000001357+0000011037+0000000000+I40000011037+0000000000+Z
203016001203016112-116038     203016006009681820246TCS CARRIER BAG MIDI   0000001000+00000035+00000+0001T   00000035+0000001519          1400 J94090               2AZ
203016002203016464-000256     203016006003000523559GAME CHESS 20x20cm     0000001000+00005262+00000+0001T   00005262+0000001519          1400 J94785               2AZ
203016003203016079-000012     203016006001023655332P/CRAYONS 12-COL LONG  0000001000+00001753+00000+0001T   00001753+0000001519          1400 J94130               2AZ
203016004203016567-011493     203016000076645122070BK COLOURING 96P SCHOOL0000001000+00002630+00000+0001T   00002630+0000001519          1400 J94757               2AZ
203017000203017               203017               170213MK     1400+00000+MK0000004680+0000004680+000000000+000000657+0000005330+0000000007+I20000000000+0000005330+Z
203017001203017031-005918     203017006003000580453P/FRAME PL PLAIN 10X15 0000001000+00002630+00000+0001T   00002630+0000001520          1400 J94510               2AZ
203017002203017031-005815     203017009320760100019P/FRAME-CLIP 10x15cm   0000001000+00001227+00000+0001T   00001227+0000001520          1400 J94510               2AZ
203017003203017077-000010-C   203017006001023123879CREPE-PAPER RED        0000001000+00000788+00000+0001T   00000788+0000001520          1400 J94112               2AZ
203017004203017112-116038     203017006009681820246TCS CARRIER BAG MIDI   0000001000+00000035+00000+0001T   00000035+0000001520          1400 J94090               2AZ
203018000203018               203018               170213MK     1400+00000+MK0000011401+0000011401+000000000+000001597+0000012990+0000000008+I20000000000+0000012990+Z
203018001203018077-000270     203018006003000395453GIFT-BAG PPR JMB 33X45 0000001000+00002630+00000+0001T   00002630+0000001521          1400 J94112               2AZ
203018002203018368-000614     203018006001023705808PLUSH LOVE 30cm        0000001000+00008771+00000+0001T   00008771+0000001521          1400 J94745               2AZ
203019000203019               203019               170213MK     1400+00000+MK0000007656+0000007656+000000000+000001075+0000008730+0000000001+I20000000000+0000008730+Z
203019001203019903-000503     203019006001704006118SWT VAMPIRE FANGS 60G  0000001000+00000876+00000+0001T   00000876+0000001524          1400 J94150               2AZ
203019002203019112-116038     203019006009681820246TCS CARRIER BAG MIDI   0000001000+00000035+00000+0001T   00000035+0000001524          1400 J94090               2AZ
203019003203019903-000494     203019006001704009911SWT GUMMY TEENY TEDDIES0000001000+00000876+00000+0001T   00000876+0000001524          1400 J94150               2AZ
203019004203019903-000137     203019006002099004130SWEET GS JELLY BEAN 60G0000001000+00000788+00000+0001T   00000788+0000001524          1400 J94150               2AZ
203019005203019903-000521     203019006001704009652SWT GUMMY SOFT GUMS    0000001000+00000876+00000+0001T   00000876+0000001524          1400 J94150               2AZ
203019006203019903-000520     203019006001704009898SWT GUMMY MINI SOUR 60g0000001000+00000876+00000+0001T   00000876+0000001524          1400 J94150               2AZ
203019007203019903-000810     203019006009680772249SWT FROOTEEZ SOUR 50g  0000001000+00000876+00000+0001T   00000876+0000001524          1400 J94150               2AZ
203019008203019903-000087     203019006001704000161SWT SPECKLED-EGGS 50G  0000001000+00001139+00000+0001T   00001139+0000001524          1400 J94150               2AZ
203019009203019903-000844     203019005010478432567SWT CANDY DL LUV HEARTS0000001000+00001314+00000+0001T   00001314+0000001524          1400 J94150               2AZ
203020000203020               203020               170213MK     1400+00000+MK0000001227+0000001227+000000000+000000172+0000001390+0000000009+I20000000000+0000001390+Z
203020001203020903-000518     203020006001704012782SWT STRAWS S/BERRY 100g0000001000+00001227+00000+0001T   00001227+0000001525          1400 J94150               2AZ
203021000203021               203021               170213MK     1400+00000+MK0000005262+0000005262+000000000+000000737+0000005990+0000000009+I20000000000+0000005990+Z
203021001203021039-000500     203021006001023816450C/VOTIVE 8PC RAINBOW   0000001000+00005262+00000+0001T   00005262+0000001526          1400 J94510               2AZ
203022000203022               203022               170213MK     1400+00000+MK0000004120+0000004120+000000000+000000578+0000004690+0000000008+I20000000000+0000004690+Z
203022001203022079-006494     203022006003000159864GLITTER GLUE 5PCE 11cm 0000001000+00001490+00000+0001T   00001490+0000001549          1400 J94130               2AZ
203022002203022079-000282     203022006001023493309PAINT TUBS POSTER 12COL0000001000+00002630+00000+0001T   00002630+0000001549          1400 J94130               2AZ
203023000203023               203023               170213MK     1400+00000+MK0000005260+0000005260+000000000+000000738+0000005998+0000000000+I40000005998+0000000000+Z
203023001203023039-081008     203023006008766081008CANDLES 9PCE SCENTED   0000002000+00002630+00000+0001T   00002630+0000001550          1400 J94510               2AZ
203024000203024               203024               170213MK     1400+00000+MK0000003507+0000003507+000000000+000000491+0000003990+0000000008+I20000000000+0000003990+Z
203024001203024301-085004     203024006003000420469ORN LOVE PLAQUE 21X10CM0000001000+00003507+00000+0001T   00003946+0006471551          1400 J94505               2AZ
203025000203025               203025               170213MK     1400+00000+MK0000009909+0000009909+000000000+000001388+0000011297+0000000000+I40000011297+0000000000+Z
203025001203025080-000139     203025006003000611690CARD & ENV MINI SET 6PC0000001000+00002192+00000+0001T   00002192+0000001555          1400 J94112               2AZ
203025002203025368-000175     203025006003000270316PLUSH BEAR 4 ASSTD 18CM0000001000+00006139+00000+0001T   00006139+0000001555          1400 J94745               2AZ
203025003203025077-000315     203025006003000181186GIFT-BAG 20x28cm MATT  0000001000+00001578+00000+0001T   00001578+0000001555          1400 J94112               2AZ
203026000203026               203026               170213MK     1400+00000+MK0000005872+0000005872+000000000+000000824+0000006696+0000000000+I40000006696+0000000000+Z
203026001203026006-000800     203026006001023902801HAT CABARET 14x18cm    0000002000+00001753+00000+0001T   00001753+0000001557          1400 J94131               2AZ
203026002203026903-003080     203026005907029004673SWT SNACK STIX CHOC 50g0000001000+00000876+00000+0001T   00000876+0000001557          1400 J94150               2AZ
203026003203026079-006494     203026006003000159864GLITTER GLUE 5PCE 11cm 0000001000+00001490+00000+0001T   00001490+0000001557          1400 J94130               2AZ
203027000203027               203027               170213MK     1400+00000+MK0000023745+0000023745+000000000+000003325+0000027070+0000000000+I20000000000+0000027070+Z
203027001203027112-116053     203027006006438002399TCS CARRIER BAG 38L    0000001000+00000069+00000+0001T   00000069+0000001602          1400 J94090               2AZ
203027002203027065-006076     203027006003000466863WOODEN 2PC MARACAS 19cm0000003000+00004385+00000+0001T   00004385+0000001602          1400 J94745               2AZ
203027003203027065-006080     203027006003000466740WOODEN 2PC MARACAS 11cm0000003000+00003507+00000+0001T   00003507+0000001602          1400 J94745               2AZ
203028000203028               203028               170213MK     1400+00000+MK0000003890+0000003890+000000000+000000552+0000004440+0000000002+I20000000000+0000004440+Z
203028001203028903-000183     203028006003000451043SWT LB HEART LOLLY     0000007000+00000393+00000+0001T   00000393+0000001603          1400 J94150               2AZ
203028002203028903-000087     203028006001704000161SWT SPECKLED-EGGS 50G  0000001000+00001139+00000+0001T   00001139+0000001603          1400 J94150               2AZ
203029000203029               203029               170213MK     1400+00000+MK0000004385-0000004385-000000000+000000614-0000005000-0000000001+I20000000000+0000005000-Z
203029001203029261-003342     203029006001023484895GUN RIFLE ACTION-TEAM  0000001000-00004385+00000+0001T   00004385+0000001605          1400 J947101IC            2 Z
203030000203030               203030               170213MK     1400+00000+MK0000001794+0000001794+000000000+000000253+0000002040+0000000007+I20000000000+0000002040+Z
203030001203030077-000010-C   203030006001023123879CREPE-PAPER RED        0000001000+00000788+00000+0001T   00000788+0000001606          1400 J94112               2AZ
203030002203030304-001011     203030006001023806727FLWR ROSE RED W/BEAR   0000001000+00000613+00000+0001T   00000788+0006471606          1400 J94510               2AZ
203030003203030903-000183     203030006003000451043SWT LB HEART LOLLY     0000001000+00000393+00000+0001T   00000393+0000001606          1400 J94150               2AZ
203031000203031               203031               170213MK     1400+00000+MK0000000613+0000000613+000000000+000000086+0000000690+0000000009+I20000000000+0000000690+Z
203031001203031304-001011     203031006001023806727FLWR ROSE RED W/BEAR   0000001000+00000613+00000+0001T   00000788+0006471608          1400 J94510               2AZ
203032000203032               203032               170213MK     1400+00000+MK0000016130+0000016130+000000000+000002263+0000018393+0000000000+I40000018393+0000000000+Z
203032001203032565-000888     203032006003000607846NOVELTY MESH BALL      0000001000+00001753+00000+0001T   00001753+0000001613          1400 J94745               2AZ
203032002203032112-116069     203032006009681820277TCS CARRIER BAG JUMBO  0000001000+00000048+00000+0001T   00000048+0000001613          1400 J94090               2AZ
203032003203032018-005009     203032006001023725608MUG W/PLUSH-BEAR LOVE  0000001000+00003507+00000+0001T   00003507+0000001613          1400 J94515               2AZ
203032004203032089-000033     203032006003000621217KEY CHAIN MOM POLY ASST0000001000+00001753+00000+0001T   00002630+0008121613          1400 J94205               2AZ
203032005203032903-003080     203032005907029004673SWT SNACK STIX CHOC 50g0000001000+00000876+00000+0001T   00000876+0000001613          1400 J94150               2AZ
203032006203032567-011443     203032009781847506719BK PUZZLE WORDSEARCH   0000001000+00003507+00000+0001T   00003507+0000001613          1400 J94757               2AZ
203032007203032903-000183     203032006003000451043SWT LB HEART LOLLY     0000002000+00000393+00000+0001T   00000393+0000001613          1400 J94150               2AZ
203032008203032018-005009     203032006001023725608MUG W/PLUSH-BEAR LOVE  0000001000+00003507+00000+0001T   00003507+0000001613          1400 J94515               2AZ
203032009203032903-000183     203032006003000451043SWT LB HEART LOLLY     0000001000+00000393+00000+0001T   00000393+0000001613          1400 J94150               2AZ
203033000203033               203033               170213MK     1400+00000+MK0000019776+0000019776+000000000+000002771+0000022540+0000000007+I20000000000+0000022540+Z
203033001203033112-116069     203033006009681820277TCS CARRIER BAG JUMBO  0000001000+00000048+00000+0001T   00000048+0000001614          1400 J94090               2AZ
203033002203033080-000127     203033006003000424351VALENTINES DAY 36x24CM 0000001000+00002192+00000+0001T   00002192+0000001614          1400 J94112               2AZ
203033003203033077-000009     203033006003000152377PAPER CREPE ALUM COL   0000001000+00003069+00000+0001T   00003069+0000001614          1400 J94112               2AZ
203033004203033001-091415     203033006003000329113W/GLS OCC. LOVE 2PC 2800000001000+00008771+00000+0001T   00009648+0006471614          1400 J94515               2AZ
203033005203033040-000209     203033006003000673872C/HOLDER GLS CLEAR 6.5 0000004000+00000876+00000+0001T   00000876+0000001614          1400 J94510               2AZ
203033006203033039-000635     203033006001023774521CANDLE VTV 4PC WHITE   0000001000+00002192+00000+0001T   00002192+0000001614          1400 J94510               2AZ
203034000203034               203034               170213MK     1400+00000+MK0000001578+0000001578+000000000+000000221+0000001790+0000000009+I20000000000+0000001790+Z
203034001203034018-000127     203034006001023380289MUG OCC STRAIGHT LOVE  0000001000+00001578+00000+0001T   00001753+0006471615          1400 J94515               2AZ
203035000203035               203035               170213MK     1400+00000+MK0000006134+0000006134+000000000+000000861+0000006995+0000000000+I40000006995+0000000000+Z
203035001203035903-000077     203035006939873501687SWT GS MAGIC ROCK FRUIT0000002000+00000525+00000+0001T   00000525+0000001617          1400 J94150               2AZ
203035002203035033-000013     203035006001023567215PILL-REMINDER PL       0000002000+00001227+00000+0001T   00001227+0000001617          1400 J94200               2AZ
203035003203035079-006495     203035006003000159987GLITTER SHAKERS 6PK    0000001000+00002630+00000+0001T   00002630+0000001617          1400 J94130               2AZ
203036000203036               203036               170213MK     1400+00000+MK0000004383+0000004383+000000000+000000615+0000004998+0000000000+I40000004998+0000000000+Z
203036001203036566-000036     203036006003000384051STICKERS MOTIVATION    0000001000+00001753+00000+0001T   00001753+0000001618          1400 J94130               2AZ
203036002203036566-000004     203036006003000062270STICKER BOOK ABC/BORDER0000001000+00002630+00000+0001T   00002630+0000001618          1400 J94130               2AZ
203037000203037               203037               170213MK     1400+00000+MK0000001227+0000001227+000000000+000000172+0000001390+0000000009+I20000000000+0000001390+Z
203037001203037033-000013     203037006001023567215PILL-REMINDER PL       0000001000+00001227+00000+0001T   00001227+0000001618          1400 J94200               2AZ
203038000203038               203038               170213MK     1400+00000+MK0000004468+0000004468+000000000+000000627+0000005095+0000000000+I40000005095+0000000000+Z
203038001203038077-000383     203038006003000247943GIFT-BAG 11X14CM S/COL 0000001000+00000788+00000+0001T   00000788+0000001620          1400 J94112               2AZ
203038002203038018-000177     203038006001023797513MUG MINI LOVE ASSTD    0000001000+00000700+00000+0001T   00000700+0000001620          1400 J94515               2AZ
203038003203038077-000299     203038006003000395576G/BAG 32x25cm LRG LOVE 0000002000+00001490+00000+0001T   00001490+0000001620          1400 J94112               2AZ
203039000203039               203039               170213MK     1400+00000+MK0000003681+0000003681+000000000+000000516+0000004197+0000000000+I40000004197+0000000000+Z
203039001203039031-005815     203039009320760100019P/FRAME-CLIP 10x15cm   0000003000+00001227+00000+0001T   00001227+0000001621          1400 J94510               2AZ
203040000203040               203040               170213MK     1400+00000+MK0000011639+0000011639+000000000+000001632+0000013271+0000000000+I40000013271+0000000000+Z
203040001203040112-116053     203040006006438002399TCS CARRIER BAG 38L    0000001000+00000069+00000+0001T   00000069+0000001625          1400 J94090               2AZ
203040002203040566-000031     203040006003000283910STICKER BK TEACHER STIC0000001000+00002192+00000+0001T   00002192+0000001625          1400 J94130               2AZ
203040003203040089-000018     203040006003000176724KEY CHAIN INSPIRATION  0000001000+00003507+00000+0001T   00003507+0000001625          1400 J94205               2AZ
203040004203040084-091590     203040006003000092864FOOT FILE 17cm         0000001000+00001753+00000+0001T   00001753+0000001625          1400 J94200               2AZ
203040005203040304-001011     203040006001023806727FLWR ROSE RED W/BEAR   0000001000+00000613+00000+0001T   00000788+0006471625          1400 J94510               2AZ
203040006203040016-006509     203040006003000567355S/JAR GLS MINI LABEL   0000001000+00001753+00000+0001T   00002192+0008191625          1400 J94300               2AZ
203040007203040038-047246     203040006001023873750PLACEMAT 44x28cm KIDS  0000002000+00000876+00000+0001T   00000876+0000001625          1400 J94300               2AZ
203041000203041               203041               170213MK     1400+00000+MK0000048276+0000048276+000000000+000006765+0000055041+0000000000+I40000055041+0000000000+Z
203041001203041112-116069     203041006009681820277TCS CARRIER BAG JUMBO  0000001000+00000048+00000+0001T   00000048+0000001628          1400 J94090               2AZ
203041002203041002-000684     203041006001023693778K/TOOL TURNER H/HOUSE  0000001000+00002192+00000+0001T   00002192+0000001628          1400 J94300               2AZ
203041003203041077-000382     203041006003000247820GIFT-BAG MED 18X23CM   0000001000+00001753+00000+0001T   00001753+0000001628          1400 J94112               2AZ
203041004203041024-000002     203041006001023741899S/BURNER-COVER SILV/BLK0000001000+00003946+00000+0001T   00004385+0008191628          1400 J94300               2AZ
203041005203041047-000513-H   203041006001023427496EXT-CORD 5M JANUS 10A  0000001000+00007893+00000+0001T   00007893+0000001628          1400 J94880               2AZ
203041006203041047-000512-H   203041006001023657473EXT-CORD 3m DBL-J   H&H0000001000+00006578+00000+0001T   00006578+0000001628          1400 J94880               2AZ
203041007203041368-000151     203041006003000166725PLUSH BEAR 14cm        0000001000+00004385+00000+0001T   00004385+0000001628          1400 J94745               2AZ
203041008203041036-000014     203041006001246500822LINT REMOVER 40x SHEET 0000001000+00003946+00000+0001T   00003946+0000001628          1400 J94212               2AZ
203041009203041565-000043     203041006003000109562NOVELTY BALL FUNNY FACE0000001000+00001753+00000+0001T   00001753+0000001628          1400 J94745               2AZ
203041010203041159-000035     203041006003000420759HOOKS W/HANGER 2PC S/S 0000001000+00002630+00000+0001T   00003069+0008131628          1400 J94200               2AZ
203041011203041036-000501     203041006003000417407HOOK HANGER CHROME     0000001000+00004385+00000+0001T   00004385+0000001628          1400 J94212               2AZ
203041012203041566-000031     203041006003000283910STICKER BK TEACHER STIC0000002000+00002192+00000+0001T   00002192+0000001628          1400 J94130               2AZ
203041013203041204-083002     203041006008766083002M/HOLD BUTTERFLIES 4PCE0000001000+00001753+00000+0001T   00001753+0000001628          1400 J94300               2AZ
203041014203041030-000007     203041006001023527325PLAQUE WDN B/BOARD ASST0000001000+00002630+00000+0001T   00002630+0000001628          1400 J94505               2AZ
203042000203042               203042               170213MK     1400+00000+MK0000009062+0000009062+000000000+000001270+0000010332+0000000000+I40000010332+0000000000+Z
203042001203042112-116038     203042006009681820246TCS CARRIER BAG MIDI   0000001000+00000035+00000+0001T   00000035+0000001632          1400 J94090               2AZ
203042002203042903-000482     203042006001704001397SWT SOFT-MINTS 60G     0000001000+00000876+00000+0001T   00000876+0000001632          1400 J94150               2AZ
203042003203042007-000555     203042006001023848239MEMO-PAD MINI LOVE     0000001000+00000613+00000+0001T   00000613+0000001632          1400 J94130               2AZ
203042004203042071-003011     203042006001023762825PEN STICKBALL X10 ASSTD0000001000+00001753+00000+0001T   00001753+0000001632          1400 J94130               2AZ
203042005203042903-004960     203042008410525221842SWT GUMMY STR/BERRY 50G0000001000+00000964+00000+0001T   00000964+0000001632          1400 J94150               2AZ
203042006203042903-000844     203042005010478432567SWT CANDY DL LUV HEARTS0000001000+00001314+00000+0001T   00001314+0000001632          1400 J94150               2AZ
203042007203042031-000847     203042006001023851871P/FRAME TWIN 10X15CM   0000001000+00003507+00000+0001T   00003507+0000001632          1400 J94510               2AZ
203043000203043               203043               170213MK     1400+00000+MK0000003946+0000003946+000000000+000000553+0000004490+0000000009+I20000000000+0000004490+Z
203043001203043079-013111     203043006003000683024CREATE A HAT SET       0000001000+00003946+00000+0001T   00003946+0000001633          1400 J94130               2AZ
203044000203044               203044               170213MK     1400+00000+MK0000007015+0000007015+000000000+000000983+0000007990+0000000008+I20000000000+0000007990+Z
203044001203044077-000357     203044006003000139354GIFT-BAG 18X23CM B/DAY 0000001000+00001753+00000+0001T   00001753+0000001644          1400 J94112               2AZ
203044002203044018-000129-A   203044006003000441396MUG CERAMIC JUMBO      0000001000+00005262+00000+0001T   00005262+0000001644          1400 J94515               2AZ
203045000203045               203045               170213MK     1400+00000+MK0000190500-0000000000+000000000+000000000+0000190500-0000000000+I20000000000+0000190500-Z
203045001203045001-999912     203045000000000999912STOCKTAKES             0000001000-00190500+00000+0001X   00000000+0000001657          0000 J949121IC            2 Z
203046000203046               203046               170213MK     1400+00000+MK0000007176+0000007176+000000000+000001008+0000008184+0000000000+I40000008184+0000000000+Z
203046001203046018-000170     203046006001023775528MUG OCC. LOVE 2PC MINI 0000002000+00002192+00000+0001T   00002192+0000001659          1400 J94515               2AZ
203046002203046903-000183     203046006003000451043SWT LB HEART LOLLY     0000003000+00000393+00000+0001T   00000393+0000001659          1400 J94150               2AZ
203046003203046018-000127     203046006001023380289MUG OCC STRAIGHT LOVE  0000001000+00001578+00000+0001T   00001753+0006471659          1400 J94515               2AZ
203046004203046112-116038     203046006009681820246TCS CARRIER BAG MIDI   0000001000+00000035+00000+0001T   00000035+0000001659          1400 J94090               2AZ
203047000203047               203047               170213MK     1400+00000+MK0000009694+0000009694+000000000+000001358+0000011050+0000000002+I20000000000+0000011050+Z
203047001203047018-005007     203047006003000515516MUG OCC. LOVE W/HEARTS 0000001000+00006139+00000+0001T   00006139+0000001701          1400 J94515               2AZ
203047002203047018-000136     203047006001023659026MUG OCC LOVE W/PLUSH   0000001000+00003507+00000+0001T   00003507+0000001701          1400 J94515               2AZ
203047003203047112-116069     203047006009681820277TCS CARRIER BAG JUMBO  0000001000+00000048+00000+0001T   00000048+0000001701          1400 J94090               2AZ
203048000203048               203048               170213MK     1400+00000+MK0000002630+0000002630+000000000+000000369+0000002999+0000000000+I40000002999+0000000000+Z
203048001203048077-000270     203048006003000395453GIFT-BAG PPR JMB 33X45 0000001000+00002630+00000+0001T   00002630+0000001710          1400 J94112               2AZ
203049000203049               203049               170213MK     1400+00000+MK0000001753+0000001753+000000000+000000246+0000001990+0000000009+I20000000000+0000001990+Z
203049001203049079-013099     203049006003000081875ART+CRAFT EYES ASSTD   0000001000+00001753+00000+0001T   00001753+0000001715          1400 J94130               2AZ
203050000203050               203050               170213MK     1400+00000+MK0000002980+0000002980+000000000+000000418+0000003390+0000000008+I20000000000+0000003390+Z
203050001203050903-000090     203050006009826020821SWT GS CHOCO COINS 60g 0000001000+00002104+00000+0001T   00002104+0000001729          1400 J94150               2AZ
203050002203050077-000011-D   203050006001023808554TISSUE-WRAP WHITE 10PCE0000001000+00000876+00000+0001T   00000876+0000001729          1400 J94112               2AZ
203051000203051               203051               170213MK     1400+00000+MK0000012189+0000012189+000000000+000001708+0000013897+0000000000+I40000013897+0000000000+Z
203051001203051077-000010-C   203051006001023123879CREPE-PAPER RED        0000001000+00000788+00000+0001T   00000788+0000001741          1400 J94112               2AZ
203051002203051031-000924     203051006001023669964P/FRAME COLLAGE PL     0000001000+00008771+00000+0001T   00008771+0000001741          1400 J94510               2AZ
203051003203051077-000270     203051006003000395453GIFT-BAG PPR JMB 33X45 0000001000+00002630+00000+0001T   00002630+0000001741          1400 J94112               2AZ
203052000203052               203052               170213MK     1400+00000+MK0000005468+0000005468+000000000+000000767+0000006230+0000000005+I20000000000+0000006230+Z
203052001203052112-116038     203052006009681820246TCS CARRIER BAG MIDI   0000001000+00000035+00000+0001T   00000035+0000001742          1400 J94090               2AZ
203052002203052903-000619     203052006003000672455SWT LOLLY STR/BRRY 140G0000001000+00001753+00000+0001T   00001753+0000001742          1400 J94150               2AZ
203052003203052077-000310     203052006001023608635GIFT-BAG 18X23CM GLOSS 0000001000+00001314+00000+0001T   00001314+0000001742          1400 J94112               2AZ
203052004203052903-002901     203052005996071650655QUICK MILK 5 S/BERRY   0000001000+00001578+00000+0001T   00001578+0000001742          1400 J94150               2AZ
203052005203052903-000896     203052006009680772270SWT BITZ BL/CURRANT 50G0000001000+00000788+00000+0001T   00000788+0000001742          1400 J94150               2AZ
203053000203053               203053               170213MK     1400+00000+MK0000015611+0000015611+000000000+000002186+0000017797+0000000000+I40000017797+0000000000+Z
203053001203053080-000124     203053006003000297733CARD & ENV VALENTINES  0000001000+00001578+00000+0001T   00001578+0000001744          1400 J94112               2AZ
203053002203053001-091415     203053006003000329113W/GLS OCC. LOVE 2PC 2800000001000+00008771+00000+0001T   00009648+0006471744          1400 J94515               2AZ
203053003203053088-000080     203053006003000622863DRAWER LINERS SCENTED  0000001000+00005262+00000+0001T   00005262+0000001744          1400 J94212               2AZ
203054000203054               203054               170213MK     1400+00000+MK0000005170+0000005170+000000000+000000726+0000005890+0000000006+I20000000000+0000005890+Z
203054001203054079-013099     203054006003000081875ART+CRAFT EYES ASSTD   0000001000+00001753+00000+0001T   00001753+0000001746          1400 J94130               2AZ
203054002203054071-001012     203054006001023474445MARKERS BLACK ROUND    0000001000+00000876+00000+0001T   00000876+0000001746          1400 J94130               2AZ
203054003203054033-005991     203054006001023678546NEEDLES H/HOLD-REPAIR  0000001000+00000788+00000+0001T   00000788+0000001746          1400 J94200               2AZ
203054004203054079-000126     203054006003000661633ANIMAL PUZZLE PACK     0000001000+00001753+00000+0001T   00001753+0000001746          1400 J94130               2AZ
203055000203055               203055               170213MK     1400+00000+MK0000002015+0000002015+000000000+000000283+0000002290+0000000008+I20000000000+0000002290+Z
203055001203055903-000896     203055006009680772270SWT BITZ BL/CURRANT 50G0000001000+00000788+00000+0001T   00000788+0000001747          1400 J94150               2AZ
203055002203055903-000111     203055006001704006378SWT LIQUORICE-TWISTS   0000001000+00001227+00000+0001T   00001227+0000001747          1400 J94150               2AZ
A17021300                                          11030529MKSLAVE 2                       J941IC
M17021301                              IT          MKSLAVE 1 104521                                  SLAVE  2 203055                                 SLAVE 3 NO SALES                                SECUNDA MK                                      THANK YOU
M17021391                              CASH        MKSLAVE 2                       Z-REPORT No.   582TOTAL (Sales - Refunds)           6671.45       CASH TO BE BANKED                 1350.20       DEBIT CARDS                          0.00       CREDIT CARDS                      3416.25       Z-READING                         4766.45       AIRTIME DEBIT CARD SALES             0.00       AIRTIME CARD SALES                   0.00       OVERS/UNDERS                         0.00       AIRTIME CASH SALES                   0.00       GIFT CARDS                           0.00       GIFT CARD CASH SALES                 0.00       STOCKTAKES                        1905.00       T O T A L  CASH PAYOUTS           1905.00                                                                                                                                                                                                                                                                                                      Z
M17021392                              CASH        MKABSENT                                                                                                                                                                                          ANNUAL LEAVE                                                                                                                                                                                    DAY OFF                                                                                                                                                                                         COMMENTS                                                                                                                                                                                                                                                                                                                                                                                       Z
Y17021300                                          MK00000000589829+000083
ZMK17021318123 SLAVE 2      SALES DATA                     NEXT INVOICE NO.  203056 0582
X MK Slave 2 First invoice 202971 170213 Last invoice 203055 170213 Next invoice 203056 Total number of records 000000330 clbackup completed 18:12:20
