107325000107325               107325               170213ML     1400+00000+ML0000001753+0000001753+000000000+000000246+0000001990+0000000009+I20000000000+0000001990+Z
107325001107325089-000504     107325006001023701886KEY-CHAIN SNAP-HOOK    0000001000+00001753+00000+0001T   00001753+0000000920          1400 RJ6205               1CZ
107326000107326               107326               170213ML     1400+00000+ML0000008771+0000008771+000000000+000001228+0000009990+0000000009+I20000000000+0000009990+Z
107326001107326039-000799     107326006001023692382CANDLES TEALITE 100PCE 0000001000+00008771+00000+0001T   00008771+0000000938          1400 RJ6510               1BZ
107327000107327               107327               170213ML     1400+00000+ML0000014028+0000014028+000000000+000001964+0000015990+0000000002+I20000000000+0000015990+Z
107327001107327002-012271     107327006001023849120TONGS 23cm RUBBER-GRIP 0000004000+00003507+00000+0001T   00003507+0000000940          1400 RJ6300               1BZ
107328000107328               107328               170213ML     1400+00000+ML0000001314+0000001314+000000000+000000184+0000001490+0000000008+I20000000000+0000001490+Z
107328001107328077-000470     107328006003000330171G-BAG DESGN SML 11X14CM0000001000+00001314+00000+0001T   00001314+0000001004          1400 RJ6112               1BZ
107329000107329               107329               170213ML     1400+00000+ML0000003069+0000003069+000000000+000000430+0000003490+0000000009+I20000000000+0000003490+Z
107329001107329002-000652     107329006001023553188M/SPOON WDN 3PC H/HOUSE0000001000+00003069+00000+0001T   00003069+0000001024          1400 RJ6300               1BZ
107330000107330               107330               170213ML     1400+00000+ML0000001753+0000001753+000000000+000000246+0000001990+0000000009+I20000000000+0000001990+Z
107330001107330007-000230     107330006001023995315LABELS STICK-ON STARS  0000001000+00001753+00000+0001T   00001753+0000001049          1400 RJ6130               1CZ
107331000107331               107331               170213ML     1400+00000+ML0000010557+0000010557+000000000+000001480+0000012030+0000000007+I20000000000+0000012030+Z
107331001107331018-050000     107331006003000412679MUG OCC LOVE TWIN BEAR 0000001000+00006139+00000+0001T   00006139+0000001058          1400 RJ6515               1CZ
107331002107331077-000289     107331006001023901996GIFT BOX 20x25x11cm    0000001000+00001753+00000+0001T   00001753+0000001058          1400 RJ6112               1CZ
107331003107331031-005918     107331006003000580453P/FRAME PL PLAIN 10X15 0000001000+00002630+00000+0001T   00002630+0000001058          1400 RJ6510               1CZ
107331004107331112-116038     107331006009681820246TCS CARRIER BAG MIDI   0000001000+00000035+00000+0001T   00000035+0000001058          1400 RJ6090               1CZ
107332000107332               107332               170213ML     1400+00000+ML0000010302+0000010302+000000000+000001447+0000011740+0000000009+I20000000000+0000011740+Z
107332001107332051-600630     107332006001023868374PLANTER W/TRAY PL RECT 0000001000+00003244+00000+0001T   00003244+0000001110          1400 RJ6820               1BZ
107332002107332036-000063     107332006009654960436COATHANGERS VIRGIN 5PCE0000002000+00001753+00000+0001T   00001753+0000001110          1400 RJ6212               1BZ
107332003107332080-000133-A   107332006003000647019MINI VALENTINES CARD   0000002000+00000437+00000+0001T   00000437+0000001110          1400 RJ6112               1BZ
107332004107332088-000082     107332006001023798008P/POURRI SACHETS 5x10ml0000001000+00002630+00000+0001T   00002630+0000001110          1400 RJ6212               1BZ
107332005107332112-116069     107332006009681820277TCS CARRIER BAG JUMBO  0000001000+00000048+00000+0001T   00000048+0000001110          1400 RJ6090               1BZ
107333000107333               107333               170213ML     1400+00000+ML0000026295+0000026295+000000000+000003690+0000029985+0000000000+I40000029985+0000000000+Z
107333001107333304-001512     107333006003000036202FLOWER S/FLOWER 65CM   0000015000+00001753+00000+0001T   00001753+0000001223          1400 RJ6510               1BZ
107334000107334               107334               170213ML     1400+00000+ML0000003243+0000003243+000000000+000000455+0000003690+0000000008+I20000000000+0000003690+Z
107334001107334006-000124     107334006003000625888BALLOONS 10PC MIX COL  0000001000+00001753+00000+0001T   00001753+0000001230          1400 RJ6131               1CZ
107334002107334006-000805     107334000013994092418STREAMERS 10-ROLLS     0000001000+00001490+00000+0001T   00001490+0000001230          1400 RJ6131               1CZ
107335000107335               107335               170213ML     1400+00000+ML0000005260+0000005260+000000000+000000738+0000005990+0000000008+I20000000000+0000005990+Z
107335001107335056-065302     107335006001023759566CAR SUN-SHIELD ALM-FOIL0000001000+00002630+00000+0001T   00002630+0000001234          1400 RJ6860               1BZ
107335002107335072-020320     107335006003000603343PET DOG TOY TUG-ROPE   0000001000+00002630+00000+0001T   00002630+0000001234          1400 RJ6870               1BZ
107336000107336               107336               170213ML     1400+00000+ML0000001753+0000001753+000000000+000000246+0000001990+0000000009+I20000000000+0000001990+Z
107336001107336051-002407     107336006003000452491SPRAYER TRIGGER 550ml  0000001000+00001753+00000+0001T   00001753+0000001236          1400 RJ6820               1CZ
107337000107337               107337               170213ML     1400+00000+ML0000005995+0000005995+000000000+000000841+0000006836+0000000000+I40000006836+0000000000+Z
107337001107337016-006515     107337006003000295555S/JAR GLS EMBOSS. 250ML0000002000+00001753+00000+0001T   00001753+0000001246          1400 RJ6300               1BZ
107337002107337903-000510     107337006001704012621SWEET MS ZBDZ S/BERRY  0000002000+00001227+00000+0001T   00001227+0000001246          1400 RJ6150               1BZ
107337003107337112-116038     107337006009681820246TCS CARRIER BAG MIDI   0000001000+00000035+00000+0001T   00000035+0000001246          1400 RJ6090               1BZ
107338000107338               107338               170213ML     1400+00000+ML0000007016+0000007016+000000000+000000983+0000007990+0000000009+I20000000000+0000007990+Z
107338001107338560-000245     107338006001023622716RUBBER ANIMALS 10PC ASS0000001000+00007016+00000+0001T   00007016+0000001248          1400 RJ6745               1BZ
107339000107339               107339               170213ML     1400+00000+ML0000007893+0000007893+000000000+000001106+0000008999+0000000000+I40000008999+0000000000+Z
107339001107339004-071209     107339006003000604678MOBILE IN CAR HOLDER   0000001000+00007893+00000+0001T   00007893+0000001256          1400 RJ6310               1BZ
107340000107340               107340               170213ML     1400+00000+ML0000002630+0000002630+000000000+000000369+0000002990+0000000009+I20000000000+0000002990+Z
107340001107340492-055602     107340000078257556021SWIM-GOGGLES PLAY      0000001000+00002630+00000+0001T   00002630+0000001257          1400 RJ6787               1CZ
107341000107341               107341               170213ML     1400+00000+ML0000009076+0000009076+000000000+000001273+0000010349+0000000000+I40000010349+0000000000+Z
107341001107341089-000220     107341006003000677368KEY CHAIN+PEN+KNIFE    0000001000+00003069+00000+0001T   00003069+0000001338          1400 RJ6205               1BZ
107341002107341903-000844     107341005010478432567SWT CANDY DL LUV HEARTS0000001000+00001314+00000+0001T   00001314+0000001338          1400 RJ6150               1BZ
107341003107341077-000380     107341006003000247585GIFT-BAG 33X45CM S/COL 0000001000+00002455+00000+0001T   00002455+0000001338          1400 RJ6112               1BZ
107341004107341077-000382     107341006003000247820GIFT-BAG MED 18X23CM   0000001000+00001753+00000+0001T   00001753+0000001338          1400 RJ6112               1BZ
107341005107341080-000133-A   107341006003000647019MINI VALENTINES CARD   0000001000+00000437+00000+0001T   00000437+0000001338          1400 RJ6112               1BZ
107341006107341112-116069     107341006009681820277TCS CARRIER BAG JUMBO  0000001000+00000048+00000+0001T   00000048+0000001338          1400 RJ6090               1BZ
107342000107342               107342               170213ML     1400+00000+ML0000013804+0000013804+000000000+000001934+0000015738+0000000000+I40000015738+0000000000+Z
107342001107342368-000111     107342006001023780812PLUSH BEAR/DOG 29CM    0000001000+00012279+00000+0001T   00012279+0000001350          1400 RJ6745               1BZ
107342002107342112-116038     107342006009681820246TCS CARRIER BAG MIDI   0000001000+00000035+00000+0001T   00000035+0000001350          1400 RJ6090               1BZ
107342003107342077-000299     107342006003000395576G/BAG 32x25cm LRG LOVE 0000001000+00001490+00000+0001T   00001490+0000001350          1400 RJ6112               1BZ
107343000107343               107343               170213ML     1400+00000+ML0000006352+0000006352+000000000+000000892+0000007244+0000000000+I40000007244+0000000000+Z
107343001107343903-000155     107343006009803374435SWT LOLLY I LUV U HEART0000004000+00000525+00000+0001T   00000525+0000001352          1400 RJ6150               1BZ
107343002107343036-000013     107343006001246500860LINT REMOVER REFILLS   0000001000+00003946+00000+0001T   00003946+0000001352          1400 RJ6212               1BZ
107343003107343079-009700-M   107343006003000634101PAPER SIRIO A4 PINK COL0000001000+00000306+00000+0001T   00000306+0000001352          1400 RJ6130               1BZ
107344000107344               107344               170213ML     1400+00000+ML0000016074+0000016074+000000000+000002255+0000018320+0000000009+I20000000000+0000018320+Z
107344001107344112-116038     107344006009681820246TCS CARRIER BAG MIDI   0000001000+00000035+00000+0001T   00000035+0000001353          1400 RJ6090               1BZ
107344002107344006-000166-G   107344006003000607976BALLOONS HELIUM 6PC BLK0000001000+00001314+00000+0001T   00001314+0000001353          1400 RJ6131               1BZ
107344003107344006-000805     107344000013994092418STREAMERS 10-ROLLS     0000004000+00001490+00000+0001T   00001490+0000001353          1400 RJ6131               1BZ
107344004107344006-000109-A   107344006003000645435BALLOONS HELIUM 2PC    0000005000+00001753+00000+0001T   00001753+0000001353          1400 RJ6131               1BZ
107345000107345               107345               170213ML     1400+00000+ML0000010524+0000010524+000000000+000001474+0000011990+0000000008+I20000000000+0000011990+Z
107345001107345264-000927     107345000090159393009MAISTO MOTORBIKE 1:18  0000001000+00008771+00000+0001T   00008771+0000001353          1400 RJ6710               1BZ
107345002107345077-000357     107345006003000139354GIFT-BAG 18X23CM B/DAY 0000001000+00001753+00000+0001T   00001753+0000001353          1400 RJ6112               1BZ
107346000107346               107346               170213ML     1400+00000+ML0000007923+0000007923+000000000+000001111+0000009034+0000000000+I40000009034+0000000000+Z
107346001107346077-000918     107346006003000413690G/WRAP 700mmx2m PATTERN0000001000+00002192+00000+0001T   00002192+0000001356          1400 RJ6112               1BZ
107346002107346903-000155     107346006009803374435SWT LOLLY I LUV U HEART0000002000+00000525+00000+0001T   00000525+0000001356          1400 RJ6150               1BZ
107346003107346903-000087     107346006001704000161SWT SPECKLED-EGGS 50G  0000001000+00001139+00000+0001T   00001139+0000001356          1400 RJ6150               1BZ
107346004107346562-000200     107346006001023732941PUSH-IN TRANSPORT      0000001000+00003507+00000+0001T   00003507+0000001356          1400 RJ6755               1BZ
107346005107346112-116038     107346006009681820246TCS CARRIER BAG MIDI   0000001000+00000035+00000+0001T   00000035+0000001356          1400 RJ6090               1BZ
107347000107347               107347               170213ML     1400+00000+ML0000005872+0000005872+000000000+000000824+0000006690+0000000006+I20000000000+0000006690+Z
107347001107347251-000002     107347006003000093991TAPE D-SIDED 24x1000mm 0000001000+00002192+00000+0001T   00002192+0000001357          1400 RJ6810               1BZ
107347002107347030-003700     107347006003000416790WALL DEC WDN ASTD WHT  0000001000+00002630+00000+0001T   00002630+0000001357          1400 RJ6505               1BZ
107347003107347903-000155     107347006009803374435SWT LOLLY I LUV U HEART0000002000+00000525+00000+0001T   00000525+0000001357          1400 RJ6150               1BZ
107348000107348               107348               170213ML     1400+00000+ML0000005262+0000005262+000000000+000000737+0000005990+0000000009+I20000000000+0000005990+Z
107348001107348031-000903-B   107348006003000457236P/FRAME PL CREAMY 13X180000001000+00005262+00000+0001T   00005262+0000001358          1400 RJ6510               1BZ
107349000107349               107349               170213ML     1400+00000+ML0000004557+0000004557+000000000+000000639+0000005196+0000000000+I40000005196+0000000000+Z
107349001107349018-005009     107349006001023725608MUG W/PLUSH-BEAR LOVE  0000001000+00003507+00000+0001T   00003507+0000001401          1400 RJ6515               1BZ
107349002107349903-000155     107349006009803374435SWT LOLLY I LUV U HEART0000001000+00000525+00000+0001T   00000525+0000001401          1400 RJ6150               1BZ
107349003107349903-000151     107349006009803374411SWT SML RND R/BOW LOLLY0000001000+00000525+00000+0001T   00000525+0000001401          1400 RJ6150               1BZ
107350000107350               107350               170213ML     1400+00000+ML0000005085+0000005085+000000000+000000712+0000005790+0000000007+I20000000000+0000005790+Z
107350001107350018-000136     107350006001023659026MUG OCC LOVE W/PLUSH   0000001000+00003507+00000+0001T   00003507+0000001405          1400 RJ6515               1BZ
107350002107350077-000303     107350006001023593757GIFT-BAG PAPER MED     0000001000+00001578+00000+0001T   00001578+0000001405          1400 RJ6112               1BZ
107351000107351               107351               170213ML     1400+00000+ML0000003156+0000003156+000000000+000000442+0000003598+0000000000+I40000003598+0000000000+Z
107351001107351018-000127     107351006001023380289MUG OCC STRAIGHT LOVE  0000002000+00001578+00000+0001T   00001753+0006471409          1400 RJ6515               1CZ
107352000107352               107352               170213ML     1400+00000+ML0000002803+0000002803+000000000+000000394+0000003190+0000000007+I20000000000+0000003190+Z
107352001107352077-000289     107352006001023901996GIFT BOX 20x25x11cm    0000001000+00001753+00000+0001T   00001753+0000001411          1400 RJ6112               1BZ
107352002107352903-000155     107352006009803374435SWT LOLLY I LUV U HEART0000002000+00000525+00000+0001T   00000525+0000001411          1400 RJ6150               1BZ
107353000107353               107353               170213ML     1400+00000+ML0000003065+0000003065+000000000+000000431+0000003490+0000000006+I20000000000+0000003490+Z
107353001107353903-000848     107353008692806080076SWT SNACK BISCUIT 70g  0000001000+00000613+00000+0001T   00000613+0000001422          1400 RJ6150               1CZ
107353002107353903-000119     107353006001704007337SWT COCONUT-WHEEL      0000002000+00000788+00000+0001T   00000788+0000001422          1400 RJ6150               1CZ
107353003107353903-003075     107353003800065783125SWT CHOC FAFL WAFER 52g0000001000+00000876+00000+0001T   00000876+0000001422          1400 RJ6150               1CZ
107354000107354               107354               170213ML     1400+00000+ML0000013847+0000013847+000000000+000001941+0000015780+0000000008+I20000000000+0000015780+Z
107354001107354018-000177     107354006001023797513MUG MINI LOVE ASSTD    0000004000+00000700+00000+0001T   00000700+0000001428          1400 RJ6515               1BZ
107354002107354018-050000     107354006003000412679MUG OCC LOVE TWIN BEAR 0000001000+00006139+00000+0001T   00006139+0000001428          1400 RJ6515               1BZ
107354003107354077-000270     107354006003000395453GIFT-BAG PPR JMB 33X45 0000001000+00002630+00000+0001T   00002630+0000001428          1400 RJ6112               1BZ
107354004107354903-000087     107354006001704000161SWT SPECKLED-EGGS 50G  0000002000+00001139+00000+0001T   00001139+0000001428          1400 RJ6150               1BZ
107355000107355               107355               170213ML     1400+00000+ML0000004385+0000004385+000000000+000000614+0000004990+0000000009+I20000000000+0000004990+Z
107355001107355031-000001-A   107355006003000246908P/FRAME GLS LOVE 9X13cm0000001000+00004385+00000+0001T   00004385+0000001434          1400 RJ6510               1CZ
107356000107356               107356               170213ML     1400+00000+ML0000014066+0000014066+000000000+000001971+0000016030+0000000007+I20000000000+0000016030+Z
107356001107356006-000803     107356006003000653676STREAMERS SET 3ROLLS   0000002000+00002630+00000+0001T   00002630+0000001438          1400 RJ6131               1CZ
107356002107356006-000165     107356006001023758392BALLOONS LRG BAG-OF-1000000001000+00008771+00000+0001T   00008771+0000001438          1400 RJ6131               1CZ
107356003107356112-116038     107356006009681820246TCS CARRIER BAG MIDI   0000001000+00000035+00000+0001T   00000035+0000001438          1400 RJ6090               1CZ
107357000107357               107357               170213ML     1400+00000+ML0000002892+0000002892+000000000+000000405+0000003290+0000000007+I20000000000+0000003290+Z
107357001107357565-000015     107357006003000672035NOVELTY SLIME ANIMAL   0000001000+00002192+00000+0001T   00002192+0000001440          1400 RJ6745               1BZ
107357002107357565-000256     107357006003000609826NOVELTY GLOW SLIME     0000001000+00000700+00000+0001T   00000700+0000001440          1400 RJ6745               1BZ
107358000107358               107358               170213ML     1400+00000+ML0000002192+0000002192+000000000+000000307+0000002490+0000000009+I20000000000+0000002490+Z
107358001107358563-000318-L   107358006003000407088SERVIETTES 33cm RED    0000001000+00002192+00000+0001T   00002192+0000001442          1400 RJ6214               1BZ
107359000107359               107359               170213ML     1400+00000+ML0000013641+0000013641+000000000+000001911+0000015550+0000000002+I20000000000+0000015550+Z
107359001107359112-116069     107359006009681820277TCS CARRIER BAG JUMBO  0000001000+00000048+00000+0001T   00000048+0000001521          1400 RJ6090               1BZ
107359002107359567-011386     107359009781405374132BK RELIGIOUS STICKER   0000001000+00002630+00000+0001T   00003507+0008141521          1400 RJ6757               1BZ
107359003107359104-000036     107359006003000501038BASKET W/HANGER HOOK   0000001000+00002192+00000+0001T   00002192+0000001521          1400 RJ6210               1BZ
107359004107359012-000020     107359006003000442102M/WAVE STEAMER 2-TIER  0000001000+00008771+00000+0001T   00008771+0000001521          1400 RJ6300               1BZ
107360000107360               107360               170213ML     1400+00000+ML0000011432+0000011432+000000000+000001602+0000013034+0000000000+I40000013034+0000000000+Z
107360001107360080-000124     107360006003000297733CARD & ENV VALENTINES  0000001000+00001578+00000+0001T   00001578+0000001527          1400 RJ6112               1BZ
107360002107360206-000580     107360006003000633586DOOR STOPPER STOP 12CM 0000001000+00002192+00000+0001T   00002192+0000001527          1400 RJ6321               1BZ
107360003107360009-001509     107360006003000531448MELAMINE PARTY TUMBLER 0000001000+00001490+00000+0001T   00001490+0000001527          1400 RJ6210               1BZ
107360004107360105-007405     107360006003000629558CONTAINER MINI 300ml   0000001000+00002630+00000+0001T   00003069+0008171527          1400 RJ6210               1BZ
107360005107360105-007400     107360006003000629435CONTAINER MINI 140ml   0000001000+00003507+00000+0001T   00003507+0000001527          1400 RJ6210               1BZ
107360006107360112-116038     107360006009681820246TCS CARRIER BAG MIDI   0000001000+00000035+00000+0001T   00000035+0000001527          1400 RJ6090               1BZ
107361000107361               107361               170213ML     1400+00000+ML0000003507+0000003507+000000000+000000491+0000003990+0000000008+I20000000000+0000003990+Z
107361001107361560-000189     107361006003000592357ANIMALS SNAKE 78cm     0000001000+00003507+00000+0001T   00003507+0000001528          1400 RJ6745               1CZ
107362000107362               107362               170213ML     1400+00000+ML0000029869+0000029869+000000000+000004183+0000034050+0000000002+I20000000000+0000034050+Z
107362001107362368-000111     107362006001023780812PLUSH BEAR/DOG 29CM    0000001000+00012279+00000+0001T   00012279+0000001529          1400 RJ6745               1BZ
107362002107362368-000161     107362006003000167760PLUSH BEAR BABY ASSTD  0000001000+00017542+00000+0001T   00017542+0000001529          1400 RJ6745               1BZ
107362003107362112-116069     107362006009681820277TCS CARRIER BAG JUMBO  0000001000+00000048+00000+0001T   00000048+0000001529          1400 RJ60902IC            1BZ
107363000107363               107363               170213ML     1400+00000+ML0000003507+0000003507+000000000+000000491+0000003998+0000000000+I40000003998+0000000000+Z
107363001107363018-000136     107363006001023659026MUG OCC LOVE W/PLUSH   0000001000+00003507+00000+0001T   00003507+0000001530          1400 RJ6515               1BZ
107364000107364               107364               170213ML     1400+00000+ML0000015785+0000015785+000000000+000002212+0000000000+0000000000+ 00000000000+0000000000+Z
107364001107364077-000472     107364006003000330133G-BAG DESGNR LRG 25X32 0000001000+00001753+00000+0001T   00001753+000000              1400 RJ61122IC            1 Z
107364002107364368-000111     107364006001023780812PLUSH BEAR/DOG 29CM    0000001000+00012279+00000+0001T   00012279+000000              1400 RJ67452IC            1 Z
107364003107364301-085006     107364006001023502940ORN LOVE MSG TUBE W/HRT0000001000+00001753+00000+0001T   00001753+000000              1400 RJ65052IC            1 Z
107365000107365               107365               170213ML     1400+00000+ML0000014032+0000014032+000000000+000001966+0000015990+0000000008+I20000000000+0000015990+Z
107365001107365077-000472     107365006003000330133G-BAG DESGNR LRG 25X32 0000001000+00001753+00000+0001T   00001753+0000001534          1400 RJ6112               1BZ
107365002107365368-000111     107365006001023780812PLUSH BEAR/DOG 29CM    0000001000+00012279+00000+0001T   00012279+0000001534          1400 RJ6745               1BZ
107366000107366               107366               170213ML     1400+00000+ML0000000048+0000000048+000000000+000000007+0000000050+0000000005+I20000000000+0000000050+Z
107366001107366112-116069     107366006009681820277TCS CARRIER BAG JUMBO  0000001000+00000048+00000+0001T   00000048+0000001535          1400 RJ6090               1CZ
107367000107367               107367               170213ML     1400+00000+ML0000001572+0000001572+000000000+000000224+0000001790+0000000006+I20000000000+0000001790+Z
107367001107367001-000001     107367006001023507266SHOT-GLASS 25ml        0000004000+00000393+00000+0001T   00000393+0000001536          1400 RJ6515               1BZ
107368000107368               107368               170213ML     1400+00000+ML0000001313+0000001313+000000000+000000185+0000001490+0000000008+I20000000000+0000001490+Z
107368001107368007-000203     107368006009685850409FILE DISPLAY FLDR ASSTD0000001000+00000437+00000+0001T   00000437+0000001536          1400 RJ6130               1BZ
107368002107368903-000123     107368006925925909280SWEET GS MINI MALLOWS  0000001000+00000876+00000+0001T   00000876+0000001536          1400 RJ6150               1BZ
107369000107369               107369               170213ML     1400+00000+ML0000010557+0000010557+000000000+000001479+0000012036+0000000000+I40000012036+0000000000+Z
107369001107369368-000171     107369006003000233250PLUSH BEAR 14cm        0000001000+00005262+00000+0001T   00005262+0000001539          1400 RJ6745               1BZ
107369002107369566-001501     107369006003000658398STICKER PAPER EMOTION  0000001000+00001753+00000+0001T   00001753+0000001539          1400 RJ6130               1BZ
107369003107369031-000856     107369006001023852113P/FRAME PL BROWN 10X15 0000001000+00003507+00000+0001T   00003507+0000001539          1400 RJ6510               1BZ
107369004107369112-116038     107369006009681820246TCS CARRIER BAG MIDI   0000001000+00000035+00000+0001T   00000035+0000001539          1400 RJ6090               1BZ
107370000107370               107370               170213ML     1400+00000+ML0000008770+0000008770+000000000+000001228+0000009990+0000000008+I20000000000+0000009990+Z
107370001107370082-007585     107370006003000654093SUNGLASS DESIGNER ASST 0000001000+00004385+00000+0001T   00004385+0000001554          1400 RJ6160               1BZ
107370002107370082-007584     107370006003000653973SUNGLASS DESIGNER ASST 0000001000+00004385+00000+0001T   00004385+0000001554          1400 RJ6160               1BZ
107371000107371               107371               170213ML     1400+00000+ML0000000437+0000000437+000000000+000000062+0000000490+0000000009+I20000000000+0000000490+Z
107371001107371083-000049     107371004891035200024CIG-LIGHTER DISPOSABLE 0000001000+00000437+00000+0001T   00000437+0000001555          1400 RJ6315               1BZ
107372000107372               107372               170213ML     1400+00000+ML0000003506+0000003506+000000000+000000492+0000003990+0000000008+I20000000000+0000003990+Z
107372001107372159-000636     107372006003000036035BATH PUMICE,BRUSH,FILE 0000001000+00001753+00000+0001T   00001753+0000001556          1400 RJ6200               1CZ
107372002107372200-003026     107372006003000276448REFUSE BAGS 10PCE GREEN0000001000+00001753+00000+0001T   00001753+0000001556          1400 RJ6214               1CZ
107373000107373               107373               170213ML     1400+00000+ML0000013548+0000013548+000000000+000001900+0000015448+0000000000+I40000015448+0000000000+Z
107373001107373077-000358     107373006003000329977GIFT-BAG KIDS 25X32CM  0000001000+00001753+00000+0001T   00001753+0000001605          1400 RJ6112               1BZ
107373002107373368-000184     107373006003000668298PLUSH LAMB 23cm        0000001000+00006139+00000+0001T   00006139+0000001605          1400 RJ6745               1BZ
107373003107373112-116069     107373006009681820277TCS CARRIER BAG JUMBO  0000001000+00000048+00000+0001T   00000048+0000001605          1400 RJ6090               1BZ
107373004107373903-000155     107373006009803374435SWT LOLLY I LUV U HEART0000002000+00000525+00000+0001T   00000525+0000001605          1400 RJ6150               1BZ
107373005107373304-001011     107373006001023806727FLWR ROSE RED W/BEAR   0000001000+00000613+00000+0001T   00000788+0006471605          1400 RJ6510               1BZ
107373006107373018-000170     107373006001023775528MUG OCC. LOVE 2PC MINI 0000001000+00002192+00000+0001T   00002192+0000001605          1400 RJ6515               1BZ
107373007107373301-085002     107373006003000420704ORN OCC. LOVE BELL ASST0000001000+00001753+00000+0001T   00002630+0008121605          1400 RJ6505               1BZ
107374000107374               107374               170213ML     1400+00000+ML0000011573+0000011573+000000000+000001622+0000013195+0000000000+I40000013195+0000000000+Z
107374001107374001-000175     107374006001023788108B/MUG GLS LOVE 380ML   0000001000+00004385+00000+0001T   00004385+0000001706          1400 RJ6515               1AZ
107374002107374368-000049     107374006003000536955PLUSH BEAR 15cm LOVE   0000001000+00004385+00000+0001T   00004385+0000001706          1400 RJ6745               1AZ
107374003107374077-000467     107374006003000329991GIFT-BAG STAMP 18X23CM 0000001000+00001753+00000+0001T   00001753+0000001706          1400 RJ6112               1AZ
107374004107374903-000155     107374006009803374435SWT LOLLY I LUV U HEART0000002000+00000525+00000+0001T   00000525+0000001706          1400 RJ6150               1AZ
107375000107375               107375               170213ML     1400+00000+ML0000002804+0000002804+000000000+000000394+0000003190+0000000008+I20000000000+0000003190+Z
107375001107375304-001204     107375006001023737984FLOWER OCC. TEDDY/ROSES0000002000+00001402+00000+0001T   00001490+0006471707          1400 RJ6510               1AZ
A17021300                                          12495698MLSLAVE 1                       RJ62IC
A17021301                                          12504264MLSLAVE 1                       RJ62IC
A17021302                                          14065071MLSLAVE 1                       RJ62IC
A17021303                                          14134476MLSLAVE 1                       RJ62IC
A17021304                                          17275369MLSLAVE 1                       RJ62IC
B10736200                                          170213ML112-116069     15284584SLAVE 1     RJ62IC0000002000+0000001000+0000000000000+
M17021391                              CASH        MLSLAVE 1                       Z-REPORT No.   576TOTAL (Sales - Refunds)           4246.60       CASH TO BE BANKED                 2699.70       DEBIT CARDS                          0.00       CREDIT CARDS                      1546.90       Z-READING                         4246.60       AIRTIME DEBIT CARD SALES             0.00       AIRTIME CARD SALES                   0.00       OVERS/UNDERS                         0.00       AIRTIME CASH SALES                   0.00       GIFT CARDS                           0.00       GIFT CARD CASH SALES                 0.00       T O T A L  CASH PAYOUTS              0.00                                                                                                                                                                                                                                                                                                                                                      Z
M17021392                              CASH        MLABSENT                                                                                                                                                                                          ANNUAL LEAVE                                                                                                                                                                                    DAY OFF                                                                                                                                                                                         COMMENTS                                                                                                                                                                                                                                                                                                                                                                                       Z
Y17021300                                          ML00000000372683+000050
ZML17021320053 SLAVE 1      SALES DATA                     NEXT INVOICE NO.  107376 0576
X ML Slave 1 First invoice 107325 170213 Last invoice 107375 170213 Next invoice 107376 Total number of records 000000182 clbackup completed 20:05:59
