205824000205824               205824               170213ML     1400+00000+ML0000014909+0000014909+000000000+000002089+0000016990+0000000008+I20000000000+0000016990+Z
205824001205824368-000111     205824006001023780812PLUSH BEAR/DOG 29CM    0000001000+00012279+00000+0001T   00012279+0000000908          1400 FG4745               2BZ
205824002205824077-000270     205824006003000395453GIFT-BAG PPR JMB 33X45 0000001000+00002630+00000+0001T   00002630+0000000908          1400 FG4112               2BZ
205825000205825               205825               170213ML     1400+00000+ML0000015787+0000015787+000000000+000002211+0000017998+0000000000+I40000017998+0000000000+Z
205825001205825024-000107     205825006001023422071MUFFIN-PAN 12-CUP      0000001000+00009648+00000+0001T   00009648+0000000921          1400 FG4300               2BZ
205825002205825368-000175     205825006003000270316PLUSH BEAR 4 ASSTD 18CM0000001000+00006139+00000+0001T   00006139+0000000921          1400 FG4745               2BZ
205826000205826               205826               170213ML     1400+00000+ML0000002630+0000002630+000000000+000000369+0000002999+0000000000+I40000002999+0000000000+Z
205826001205826006-000111     205826006003000519385BALLOONS LARGE 12PCE   0000001000+00002630+00000+0001T   00002630+0000000930          1400 FG4131               2BZ
205827000205827               205827               170213ML     1400+00000+ML0000002892+0000002892+000000000+000000405+0000003290+0000000007+I20000000000+0000003290+Z
205827001205827033-005907     205827006003000433506SHOE LACES 4-PAIR SET  0000001000+00002192+00000+0001T   00002192+0000000949          1400 FG4200               2BZ
205827002205827018-000177     205827006001023797513MUG MINI LOVE ASSTD    0000001000+00000700+00000+0001T   00000700+0000000949          1400 FG4515               2BZ
205828000205828               205828               170213ML     1400+00000+ML0000014515+0000014515+000000000+000002034+0000016540+0000000009+I20000000000+0000016540+Z
205828001205828112-116069     205828006009681820277TCS CARRIER BAG JUMBO  0000001000+00000048+00000+0001T   00000048+0000000959          1400 FG4090               2BZ
205828002205828018-050000     205828006003000412679MUG OCC LOVE TWIN BEAR 0000001000+00006139+00000+0001T   00006139+0000000959          1400 FG4515               2BZ
205828003205828018-000130     205828006001023867537MUG OCC LOVE MINI+HEART0000001000+00003507+00000+0001T   00003507+0000000959          1400 FG4515               2BZ
205828004205828002-000015     205828006003000555604CAPPUCCINO STENCILS 12P0000001000+00001753+00000+0001T   00001753+0000000959          1400 FG4300               2BZ
205828005205828077-000303     205828006001023593757GIFT-BAG PAPER MED     0000001000+00001578+00000+0001T   00001578+0000000959          1400 FG4112               2BZ
205828006205828077-000299     205828006003000395576G/BAG 32x25cm LRG LOVE 0000001000+00001490+00000+0001T   00001490+0000000959          1400 FG4112               2BZ
205829000205829               205829               170213ML     1400+00000+ML0000012061+0000012061+000000000+000001690+0000013750+0000000001+I20000000000+0000013750+Z
205829001205829077-000011-D   205829006001023808554TISSUE-WRAP WHITE 10PCE0000001000+00000876+00000+0001T   00000876+0000001019          1400 FG4112               2BZ
205829002205829077-000010-C   205829006001023123879CREPE-PAPER RED        0000001000+00000788+00000+0001T   00000788+0000001019          1400 FG4112               2BZ
205829003205829001-091415     205829006003000329113W/GLS OCC. LOVE 2PC 2800000001000+00008771+00000+0001T   00009648+0006471019          1400 FG4515               2BZ
205829004205829077-000303     205829006001023593757GIFT-BAG PAPER MED     0000001000+00001578+00000+0001T   00001578+0000001019          1400 FG4112               2BZ
205829005205829112-116069     205829006009681820277TCS CARRIER BAG JUMBO  0000001000+00000048+00000+0001T   00000048+0000001019          1400 FG4090               2BZ
205830000205830               205830               170213ML     1400+00000+ML0000003506+0000003506+000000000+000000492+0000003990+0000000008+I20000000000+0000003990+Z
205830001205830565-000889     205830006003000626953NOVELTY SPACE BALLOONS 0000002000+00001753+00000+0001T   00001753+0000001020          1400 FG4745               2BZ
205831000205831               205831               170213ML     1400+00000+ML0000016348+0000016348+000000000+000002295+0000018643+0000000000+I40000018643+0000000000+Z
205831001205831565-000889     205831006003000626953NOVELTY SPACE BALLOONS 0000003000+00001753+00000+0001T   00001753+0000001027          1400 FG4745               2BZ
205831002205831077-000289     205831006001023901996GIFT BOX 20x25x11cm    0000001000+00001753+00000+0001T   00001753+0000001027          1400 FG4112               2BZ
205831003205831903-003080     205831005907029004673SWT SNACK STIX CHOC 50g0000002000+00000876+00000+0001T   00000876+0000001027          1400 FG4150               2BZ
205831004205831903-000897     205831008692806325207SWT CHOC DBL MINI ROLL 0000001000+00000876+00000+0001T   00000876+0000001027          1400 FG4150               2BZ
205831005205831903-000095     205831006001704011495SWT SPECKLED-EGGS 100G 0000002000+00002104+00000+0001T   00002104+0000001027          1400 FG4150               2BZ
205831006205831903-003050     205831008024431008239SWT CHOC CONE H/NUT 25G0000001000+00000876+00000+0001T   00000876+0000001027          1400 FG4150               2BZ
205831007205831903-000119     205831006001704007337SWT COCONUT-WHEEL      0000002000+00000788+00000+0001T   00000788+0000001027          1400 FG4150               2BZ
205831008205831112-116069     205831006009681820277TCS CARRIER BAG JUMBO  0000001000+00000048+00000+0001T   00000048+0000001027          1400 FG4090               2BZ
205832000205832               205832               170213ML     1400+00000+ML0000004385+0000004385+000000000+000000614+0000004990+0000000009+I20000000000+0000004990+Z
205832001205832082-000105     205832006003000360369READING GLS STRNGHT:1.50000001000+00004385+00000+0001T   00004385+0000001037          1400 FG4160               2BZ
205833000205833               205833               170213ML     1400+00000+ML0000006605+0000006605+000000000+000000926+0000007530+0000000001+I20000000000+0000007530+Z
205833001205833002-021057     205833006001023812032T/PICKS UMBRELLAS 10PCE0000003000+00000876+00000+0001T   00000876+0000001112          1400 FG4300               2BZ
205833002205833200-000066     205833006003000365975STRAWS 12PCE W/UMBRELLA0000003000+00001314+00000+0001T   00001314+0000001112          1400 FG4214               2BZ
205833003205833112-116038     205833006009681820246TCS CARRIER BAG MIDI   0000001000+00000035+00000+0001T   00000035+0000001112          1400 FG4090               2BZ
205834000205834               205834               170213ML     1400+00000+ML0000001753+0000001753+000000000+000000246+0000001990+0000000009+I20000000000+0000001990+Z
205834001205834016-006509     205834006003000567355S/JAR GLS MINI LABEL   0000001000+00001753+00000+0001T   00002192+0008191124          1400 FG4300               2AZ
205835000205835               205835               170213ML     1400+00000+ML0000009676+0000009676+000000000+000001358+0000011030+0000000004+I20000000000+0000011030+Z
205835001205835112-116038     205835006009681820246TCS CARRIER BAG MIDI   0000001000+00000035+00000+0001T   00000035+0000001131          1400 FG4090               2BZ
205835002205835903-000517     205835006001704012768SWT STRAWS FIZZY CHERRY0000001000+00001227+00000+0001T   00001227+0000001131          1400 FG4150               2BZ
205835003205835206-000190     205835006003000631346PEELER FINGER 2PC      0000001000+00002630+00000+0001T   00003069+0008171131          1400 FG4321               2BZ
205835004205835903-000155     205835006009803374435SWT LOLLY I LUV U HEART0000001000+00000525+00000+0001T   00000525+0000001131          1400 FG4150               2BZ
205835005205835903-000861     205835005010478430822SWT LOVE HEARTS SML    0000001000+00000876+00000+0001T   00000876+0000001131          1400 FG4150               2BZ
205835006205835037-000012     205835006003000556526ASHTRAY ROUND S/STEEL  0000001000+00002630+00000+0001T   00002630+0000001131          1400 FG4515               2BZ
205835007205835037-050016     205835006001023674128ASHTRAY 9CM RND CLUB   0000001000+00001753+00000+0001T   00001753+0000001131          1400 FG4515               2BZ
205836000205836               205836               170213ML     1400+00000+ML0000002804+0000002804+000000000+000000393+0000003190+0000000007+I20000000000+0000003190+Z
205836001205836007-000208     205836006001023582096NOTE-PAD S/STICK 100'S 0000001000+00001490+00000+0001T   00001490+0000001132          1400 FG4130               2BZ
205836002205836007-000209     205836006001023582102NOTE STICKY FILE MARKER0000001000+00001314+00000+0001T   00001314+0000001132          1400 FG4130               2BZ
205837000205837               205837               170213ML     1400+00000+ML0000004420+0000004420+000000000+000000619+0000005030+0000000009+I20000000000+0000005030+Z
205837001205837104-000135     205837006001023846419WASTEBIN SWING-LID 28cm0000001000+00004385+00000+0001T   00004385+0000001133          1400 FG4210               2BZ
205837002205837112-116038     205837006009681820246TCS CARRIER BAG MIDI   0000001000+00000035+00000+0001T   00000035+0000001133          1400 FG4090               2BZ
205838000205838               205838               170213ML     1400+00000+ML0000003946+0000003946+000000000+000000553+0000004490+0000000009+I20000000000+0000004490+Z
205838001205838002-012268     205838006001023555526TONGS NYLON 26CM LNG   0000001000+00003946+00000+0001T   00003946+0000001135          1400 FG4300               2AZ
205839000205839               205839               170213ML     1400+00000+ML0000035121+0000035121+000000000+000004922+0000040043+0000000000+I40000040043+0000000000+Z
205839001205839112-116069     205839006009681820277TCS CARRIER BAG JUMBO  0000001000+00000048+00000+0001T   00000048+0000001143          1400 FG4090               2BZ
205839002205839567-011424     205839006003000641468BK COLOURING THERAPY A40000001000+00006139+00000+0001T   00006139+0000001143          1400 FG4757               2BZ
205839003205839567-011343     205839006003000630592BK COLOURING THERAPY   0000001000+00003507+00000+0001T   00003507+0000001143          1400 FG4757               2BZ
205839004205839567-011344     205839006003000630714BK COLOURING THERAPY 640000001000+00003507+00000+0001T   00003507+0000001143          1400 FG4757               2BZ
205839005205839079-000335     205839006003000670550THERAPY P/CRAYONS 30   0000001000+00007016+00000+0001T   00007016+0000001143          1400 FG4130               2BZ
205839006205839079-000336     205839006003000670758SUPER FINE MARKER PENS 0000001000+00005262+00000+0001T   00005262+0000001143          1400 FG4130               2BZ
205839007205839071-030012     205839006003000283842PEN NVLTY GLITTER 6PC  0000001000+00002630+00000+0001T   00002630+0000001143          1400 FG4130               2BZ
205839008205839071-000006     205839006001023732613PENCIL REFILLABLE 6PK  0000001000+00001753+00000+0001T   00001753+0000001143          1400 FG4130               2BZ
205839009205839038-000205     205839006001926001205PLACE-MATS PVC ASSTD-C 0000003000+00001753+00000+0001T   00001753+0000001143          1400 FG4300               2BZ
205840000205840               205840               170213ML     1400+00000+ML0000004733+0000004733+000000000+000000664+0000005390+0000000007+I20000000000+0000005390+Z
205840001205840007-000167     205840006009685857347SPIRAL NOTES A7 72PG   0000001000+00000350+00000+0001T   00000350+0000001143          1400 FG4130               2BZ
205840002205840037-000006     205840006003000171996ASHTRAY PL TUB GIANT   0000001000+00002630+00000+0001T   00003069+0008191143          1400 FG4515               2BZ
205840003205840037-000004     205840006001023763679ASHTRAY PL TUB 8X11CM  0000001000+00001753+00000+0001T   00002192+0008191143          1400 FG4515               2BZ
205841000205841               205841               170213ML     1400+00000+ML0000002628+0000002628+000000000+000000368+0000002990+0000000006+I20000000000+0000002990+Z
205841001205841046-000012     205841006904708013062BATTERIES AA  CARD-OF-40000002000+00001314+00000+0001T   00001314+0000001144          1400 FG4312               2BZ
205842000205842               205842               170213ML     1400+00000+ML0000001490+0000001490+000000000+000000209+0000001690+0000000009+I20000000000+0000001690+Z
205842001205842106-001100-B   205842006005387194452FRIDGE BOTTLE ASSORTED 0000001000+00001490+00000+0001T   00001490+0000001147          1400 FG4210               2BZ
205843000205843               205843               170213ML     1400+00000+ML0000001753+0000001753+000000000+000000246+0000001990+0000000009+I20000000000+0000001990+Z
205843001205843077-000520     205843006001023908254GIFT-BAG 25X32CM       0000001000+00001753+00000+0001T   00001753+0000001148          1400 FG4112               2BZ
205844000205844               205844               170213ML     1400+00000+ML0000005297+0000005297+000000000+000000742+0000006030+0000000009+I20000000000+0000006030+Z
205844001205844085-007022     205844004711412009401P/KNIFE S/S 10-FUNCTION0000001000+00005262+00000+0001T   00005262+0000001154          1400 FG4305               2BZ
205844002205844112-116038     205844006009681820246TCS CARRIER BAG MIDI   0000001000+00000035+00000+0001T   00000035+0000001154          1400 FG4090               2BZ
205845000205845               205845               170213ML     1400+00000+ML0000004383+0000004383+000000000+000000614+0000004990+0000000007+I20000000000+0000004990+Z
205845001205845562-000020     205845006003000600861EDU PLAY DOUGH 60g 4PC 0000001000+00003507+00000+0001T   00003507+0000001207          1400 FG4755               2BZ
205845002205845267-000179     205845006003000539161PUZZLE JIGSAW 24pc MINI0000001000+00000876+00000+0001T   00001227+0008141207          1400 FG4755               2BZ
205846000205846               205846               170213ML     1400+00000+ML0000000525+0000000525+000000000+000000074+0000000590+0000000009+I20000000000+0000000590+Z
205846001205846903-000155     205846006009803374435SWT LOLLY I LUV U HEART0000001000+00000525+00000+0001T   00000525+0000001210          1400 FG4150               2BZ
205847000205847               205847               170213ML     1400+00000+ML0000003104+0000003104+000000000+000000435+0000003530+0000000009+I20000000000+0000003530+Z
205847001205847027-008219     205847006003000664306BROOM HOLDER 2PC SCREWS0000001000+00003069+00000+0001T   00003069+0000001213          1400 FG4212               2BZ
205847002205847112-116038     205847006009681820246TCS CARRIER BAG MIDI   0000001000+00000035+00000+0001T   00000035+0000001213          1400 FG4090               2BZ
205848000205848               205848               170213ML     1400+00000+ML0000003507+0000003507+000000000+000000491+0000003990+0000000008+I20000000000+0000003990+Z
205848001205848903-000596     205848006003000607754SWEET MONEYBOX 12cm J/B0000001000+00003507+00000+0001T   00003507+0000001216          1400 FG4150               2BZ
205849000205849               205849               170213ML     1400+00000+ML0000010521+0000010521+000000000+000001473+0000011994+0000000000+I40000011994+0000000000+Z
205849001205849018-005009     205849006001023725608MUG W/PLUSH-BEAR LOVE  0000001000+00003507+00000+0001T   00003507+0000001223          1400 FG4515               2BZ
205849002205849072-020278     205849006003000024100PET CAT LITTER PAN PL  0000002000+00003507+00000+0001T   00003507+0000001223          1400 FG4870               2BZ
205850000205850               205850               170213ML     1400+00000+ML0000009253+0000009253+000000000+000001298+0000010550+0000000001+I20000000000+0000010550+Z
205850001205850112-116069     205850006009681820277TCS CARRIER BAG JUMBO  0000001000+00000048+00000+0001T   00000048+0000001225          1400 FG4090               2BZ
205850002205850566-000367     205850006003000645558STICKER WINDOW DECOR   0000001000+00002630+00000+0001T   00002630+0000001225          1400 FG4130               2BZ
205850003205850566-000359     205850006003000582709STICKER BOOK LOVE SPARK0000001000+00002192+00000+0001T   00002192+0000001225          1400 FG4130               2BZ
205850004205850079-013032-D   205850006003000389643RIBBONS                0000001000+00002630+00000+0001T   00002630+0000001225          1400 FG4130               2BZ
205850005205850200-003026     205850006003000276448REFUSE BAGS 10PCE GREEN0000001000+00001753+00000+0001T   00001753+0000001225          1400 FG4214               2BZ
205851000205851               205851               170213ML     1400+00000+ML0000001490+0000001490+000000000+000000209+0000001690+0000000009+I20000000000+0000001690+Z
205851001205851077-000305     205851006003000395422GIFT-BAG WINE 10X35CM  0000001000+00001490+00000+0001T   00001490+0000001230          1400 FG4112               2BZ
205852000205852               205852               170213ML     1400+00000+ML0000003506+0000003506+000000000+000000492+0000003990+0000000008+I20000000000+0000003990+Z
205852001205852046-002032-PK2 205852004897006175063BATTERIES CR-2032  2PCE0000002000+00001753+00000+0001T   00001753+0000001236          1400 FG4312               2BZ
205853000205853               205853               170213ML     1400+00000+ML0000000525+0000000525+000000000+000000074+0000000590+0000000009+I20000000000+0000000590+Z
205853001205853903-000155     205853006009803374435SWT LOLLY I LUV U HEART0000001000+00000525+00000+0001T   00000525+0000001244          1400 FG4150               2BZ
205854000205854               205854               170213ML     1400+00000+ML0000005700+0000005700+000000000+000000798+0000006490+0000000008+I20000000000+0000006490+Z
205854001205854159-000801     205854006001023999832BATHMAT 36x59cm ASST   0000001000+00005700+00000+0001T   00005700+0000001248          1400 FG4200               2BZ
205855000205855               205855               170213ML     1400+00000+ML0000006664+0000006664+000000000+000000934+0000007590+0000000008+I20000000000+0000007590+Z
205855001205855027-009030     205855006002814400100DUSTPAN PL             0000001000+00001402+00000+0001T   00001402+0000001300          1400 FG4212               2BZ
205855002205855567-010161     205855009780000008516BOOK TOP ASSTD MILLS   0000001000+00005262+00000+0001T   00005262+0000001300          1400 FG4757               2BZ
205856000205856               205856               170213ML     1400+00000+ML0000005030+0000005030+000000000+000000706+0000005730+0000000006+I20000000000+0000005730+Z
205856001205856112-116038     205856006009681820246TCS CARRIER BAG MIDI   0000001000+00000035+00000+0001T   00000035+0000001301          1400 FG4090               2BZ
205856002205856306-000023     205856006001023606976COTTON-WOOL-BALLS 50PCE0000001000+00000876+00000+0001T   00000876+0000001301          1400 FG4200               2BZ
205856003205856567-014133     205856006003000560103BOOK COLOURING 48 PAGE 0000001000+00001490+00000+0001T   00001490+0000001301          1400 FG4757               2BZ
205856004205856306-000007     205856006001023905093DENTAL FLOSS METHOL    0000001000+00001753+00000+0001T   00001753+0000001301          1400 FG4200               2BZ
205856005205856306-000021-D   205856006003000622108COTTON EARBUDS COSMETIC0000001000+00000876+00000+0001T   00001139+0008171301          1400 FG4200               2BZ
205857000205857               205857               170213ML     1400+00000+ML0000021096+0000021096+000000000+000002956+0000024050+0000000002+I20000000000+0000024050+Z
205857001205857112-116069     205857006009681820277TCS CARRIER BAG JUMBO  0000001000+00000048+00000+0001T   00000048+0000001310          1400 FG4090               2BZ
205857002205857301-085007     205857006003000673698ORN OCC. LOVE S/PLAQUE 0000001000+00007893+00000+0001T   00007893+0000001310          1400 FG4505               2BZ
205857003205857304-001114     205857006001023738219FLWR BUNCH ROSES/LILY  0000001000+00007893+00000+0001T   00007893+0000001310          1400 FG4510               2BZ
205857004205857019-000285     205857006001023889829VASE CERAMIC 25CM ASSTD0000001000+00005262+00000+0001T   00005262+0000001310          1400 FG4510               2BZ
205858000205858               205858               170213ML     1400+00000+ML0000009645+0000009645+000000000+000001351+0000010996+0000000000+I40000010996+0000000000+Z
205858001205858048-071504     205858006003000225057TOUCH-LIGHT BAR TYPE   0000001000+00004385+00000+0001T   00004385+0000001322          1400 FG4305               2BZ
205858002205858048-000870     205858006003000525287LANTERN B/LIGHT MINI   0000001000+00003507+00000+0001T   00003507+0000001322          1400 FG4305               2BZ
205858003205858046-000014-A   205858004897006177708BATTERIES SIZE:AAA 8PCE0000001000+00001753+00000+0001T   00001753+0000001322          1400 FG4312               2BZ
205859000205859               205859               170213ML     1400+00000+ML0000001753+0000001753+000000000+000000246+0000001990+0000000009+I20000000000+0000001990+Z
205859001205859077-000454     205859006003000285266G/BAG METALLIC LRG EMB 0000001000+00001753+00000+0001T   00001753+0000001330          1400 FG4112               2BZ
205860000205860               205860               170213ML     1400+00000+ML0000002630+0000002630+000000000+000000369+0000002990+0000000009+I20000000000+0000002990+Z
205860001205860361-000296     205860006001023750402DOLL 27cm GLITZY/ANGEL 0000001000+00002630+00000+0001T   00002630+0000001332          1400 FG4725               2BZ
205861000205861               205861               170213ML     1400+00000+ML0000015833+0000015833+000000000+000002218+0000018050+0000000001+I20000000000+0000018050+Z
205861001205861361-003010     205861006003000210480D/BABY 24cm MOULD 3PCS 0000001000+00005262+00000+0001T   00005262+0000001336          1400 FG4725               2BZ
205861002205861267-000233     205861006001023688576PUZZLE 48pc EDUCATIONAL0000001000+00003507+00000+0001T   00003507+0000001336          1400 FG4755               2BZ
205861003205861065-003639     205861006001023787620GUITAR ROCKER          0000001000+00007016+00000+0001T   00007016+0000001336          1400 FG4745               2BZ
205861004205861112-116069     205861006009681820277TCS CARRIER BAG JUMBO  0000001000+00000048+00000+0001T   00000048+0000001336          1400 FG4090               2BZ
205862000205862               205862               170213ML     1400+00000+ML0000002278+0000002278+000000000+000000320+0000002590+0000000008+I20000000000+0000002590+Z
205862001205862903-000155     205862006009803374435SWT LOLLY I LUV U HEART0000001000+00000525+00000+0001T   00000525+0000001340          1400 FG4150               2BZ
205862002205862080-000105     205862006003000236237CARD & ENVELOPE BDAY   0000001000+00001753+00000+0001T   00001753+0000001340          1400 FG4112               2BZ
205863000205863               205863               170213ML     1400+00000+ML0000006139+0000006139+000000000+000000860+0000006990+0000000009+I20000000000+0000006990+Z
205863001205863368-000265     205863006001023750914PLUSH BEAR 23CM ASSTD C0000001000+00006139+00000+0001T   00006139+0000001411          1400 FG4745               2BZ
205864000205864               205864               170213ML     1400+00000+ML0000011572+0000011572+000000000+000001623+0000013195+0000000000+I40000013195+0000000000+Z
205864001205864040-000213     205864006001023617736CANDLE-HOLDER DAISY    0000002000+00001227+00000+0001T   00001227+0000001412          1400 FG4510               2BZ
205864002205864039-000021     205864006003000285907C/TAPERED 25CM M/SILVER0000002000+00001051+00000+0001T   00001051+0000001412          1400 FG4510               2BZ
205864003205864031-086219-C   205864006001023808905P/FRAME WDN A4 30X40CM 0000001000+00007016+00000+0001T   00007016+0000001412          1400 FG4510               2BZ
205865000205865               205865               170213ML     1400+00000+ML0000004068+0000004068+000000000+000000570+0000004630+0000000008+I20000000000+0000004630+Z
205865001205865047-002041     205865006002521079170PLUG-ADAPTOR 2x16A 2x5A0000001000+00003157+00000+0001T   00003157+0000001414          1400 FG4880               2BZ
205865002205865047-000505     205865006009636901976PLUG-ADAPTOR 2-PIN     0000001000+00000876+00000+0001T   00000876+0000001414          1400 FG4880               2BZ
205865003205865112-116038     205865006009681820246TCS CARRIER BAG MIDI   0000001000+00000035+00000+0001T   00000035+0000001414          1400 FG4090               2BZ
205866000205866               205866               170213ML     1400+00000+ML0000004030+0000004030+000000000+000000566+0000004590+0000000006+I20000000000+0000004590+Z
205866001205866077-000150-D   205866006003000054343GIFT-WRAP CELLPHANE CLR0000001000+00000876+00000+0001T   00000876+0000001418          1400 FG4112               2BZ
205866002205866077-000151     205866006008766114676GIFT-WRAP C/PHANE ASSTD0000001000+00000876+00000+0001T   00000876+0000001418          1400 FG4112               2BZ
205866003205866903-000087     205866006001704000161SWT SPECKLED-EGGS 50G  0000002000+00001139+00000+0001T   00001139+0000001418          1400 FG4150               2BZ
205867000205867               205867               170213ML     1400+00000+ML0000009502+0000009502+000000000+000001333+0000010830+0000000005+I20000000000+0000010830+Z
205867001205867112-116038     205867006009681820246TCS CARRIER BAG MIDI   0000001000+00000035+00000+0001T   00000035+0000001419          1400 FG4090               2BZ
205867002205867079-006522     205867006001023149442ART+CRAFT GLUE ASSORTED0000001000+00001753+00000+0001T   00001753+0000001419          1400 FG4130               2BZ
205867003205867079-006495     205867006003000159987GLITTER SHAKERS 6PK    0000001000+00002630+00000+0001T   00002630+0000001419          1400 FG4130               2BZ
205867004205867079-013032-D   205867006003000389643RIBBONS                0000001000+00002630+00000+0001T   00002630+0000001419          1400 FG4130               2BZ
205867005205867077-000245     205867006001023759214GIFT-RIBBON METALLICx2 0000002000+00001227+00000+0001T   00001227+0000001419          1400 FG4112               2BZ
205868000205868               205868               170213ML     1400+00000+ML0000001051+0000001051+000000000+000000148+0000001190+0000000009+I20000000000+0000001190+Z
205868001205868903-002850     205868000000087108262MENTOS ROLL FRUIT      0000001000+00001051+00000+0001T   00001051+0000001420          1400 FG4150               2BZ
205869000205869               205869               170213ML     1400+00000+ML0000007051+0000007051+000000000+000000988+0000008030+0000000009+I20000000000+0000008030+Z
205869001205869041-093000     205869006003000320882B/GIFT SET 4PC B/RANGE 0000001000+00007016+00000+0001T   00007016+0000001451          1400 FG4200               2BZ
205869002205869112-116038     205869006009681820246TCS CARRIER BAG MIDI   0000001000+00000035+00000+0001T   00000035+0000001451          1400 FG4090               2BZ
205870000205870               205870               170213ML     1400+00000+ML0000001578+0000001578+000000000+000000221+0000001790+0000000009+I20000000000+0000001790+Z
205870001205870077-000303     205870006001023593757GIFT-BAG PAPER MED     0000001000+00001578+00000+0001T   00001578+0000001453          1400 FG4112               2BZ
205871000205871               205871               170213ML     1400+00000+ML0000011751+0000011751+000000000+000001646+0000013397+0000000000+I40000013397+0000000000+Z
205871001205871077-000299     205871006003000395576G/BAG 32x25cm LRG LOVE 0000001000+00001490+00000+0001T   00001490+0000001458          1400 FG4112               2BZ
205871002205871368-000012     205871006003000610464PLUSH BEAR 30cm SITTING0000001000+00008771+00000+0001T   00008771+0000001458          1400 FG4745               2BZ
205871003205871007-000208     205871006001023582096NOTE-PAD S/STICK 100'S 0000001000+00001490+00000+0001T   00001490+0000001458          1400 FG4130               2BZ
205872000205872               205872               170213ML     1400+00000+ML0000004420+0000004420+000000000+000000619+0000005030+0000000009+I20000000000+0000005030+Z
205872001205872024-000118     205872006001023422316N/STICK C/PAN HEART    0000001000+00004385+00000+0001T   00004385+0000001501          1400 FG4300               2BZ
205872002205872112-116038     205872006009681820246TCS CARRIER BAG MIDI   0000001000+00000035+00000+0001T   00000035+0000001501          1400 FG4090               2BZ
205873000205873               205873               170213ML     1400+00000+ML0000001525+0000001525+000000000+000000214+0000001730+0000000009+I20000000000+0000001730+Z
205873001205873077-000299     205873006003000395576G/BAG 32x25cm LRG LOVE 0000001000+00001490+00000+0001T   00001490+0000001503          1400 FG4112               2BZ
205873002205873112-116038     205873006009681820246TCS CARRIER BAG MIDI   0000001000+00000035+00000+0001T   00000035+0000001503          1400 FG4090               2BZ
205874000205874               205874               170213ML     1400+00000+ML0000008066+0000008066+000000000+000001131+0000009190+0000000007+I20000000000+0000009190+Z
205874001205874077-000455     205874006003000285389G/BAG METALLIC LRG SOL 0000001000+00001753+00000+0001T   00001753+0000001506          1400 FG4112               2BZ
205874002205874031-006533     205874006001023995865P/FRAME 32X18CM 2-HOLE 0000001000+00005262+00000+0001T   00005262+0000001506          1400 FG4510               2BZ
205874003205874033-000124     205874006009654960597COMBS HANDLE + TAIL 2PC0000001000+00001051+00000+0001T   00001051+0000001506          1400 FG4200               2BZ
205875000205875               205875               170213ML     1400+00000+ML0000000613+0000000613+000000000+000000086+0000000690+0000000009+I20000000000+0000000690+Z
205875001205875304-001011     205875006001023806727FLWR ROSE RED W/BEAR   0000001000+00000613+00000+0001T   00000788+0006471507          1400 FG4510               2BZ
205876000205876               205876               170213ML     1400+00000+ML0000004385-0000004385-000000000+000000614-0000005000-0000000001+I20000000000+0000005000-Z
205876001205876024-000118     205876006001023422316N/STICK C/PAN HEART    0000001000-00004385+00000+0001T   00004385+0000001514          1400 FG43002IC            2 Z
205877000205877               205877               170213ML     1400+00000+ML0000011747+0000011747+000000000+000001647+0000013390+0000000004+I20000000000+0000013390+Z
205877001205877077-000452     205877006003000284986G/BAG METALLIC MED EMB 0000001000+00001490+00000+0001T   00001490+0000001515          1400 FG4112               2AZ
205877002205877903-000155     205877006009803374435SWT LOLLY I LUV U HEART0000002000+00000525+00000+0001T   00000525+0000001515          1400 FG4150               2AZ
205877003205877028-085274     205877006001023641571BBQ LIGHTER         H&L0000001000+00002192+00000+0001T   00002192+0000001515          1400 FG4305               2AZ
205877004205877079-000201     205877006003000161430P/CRAYONS THERAPY 10PCE0000001000+00002630+00000+0001T   00002630+0000001515          1400 FG4130               2AZ
205877005205877030-000031-A   205877006003000457588PLAQUE W/WORDS ASSTD   0000001000+00004385+00000+0001T   00004823+0006471515          1400 FG4505               2AZ
205878000205878               205878               170213ML     1400+00000+ML0000003507+0000003507+000000000+000000491+0000003990+0000000008+I20000000000+0000003990+Z
205878001205878018-005009     205878006001023725608MUG W/PLUSH-BEAR LOVE  0000001000+00003507+00000+0001T   00003507+0000001605          1400 FG4515               2BZ
205879000205879               205879               170213ML     1400+00000+ML0000001314+0000001314+000000000+000000184+0000001490+0000000008+I20000000000+0000001490+Z
205879001205879077-000470     205879006003000330171G-BAG DESGN SML 11X14CM0000001000+00001314+00000+0001T   00001314+0000001608          1400 FG4112               2BZ
205880000205880               205880               170213ML     1400+00000+ML0000002452+0000002452+000000000+000000344+0000002790+0000000006+I20000000000+0000002790+Z
205880001205880018-000177     205880006001023797513MUG MINI LOVE ASSTD    0000001000+00000700+00000+0001T   00000700+0000001613          1400 FG4515               2BZ
205880002205880077-000150-D   205880006003000054343GIFT-WRAP CELLPHANE CLR0000002000+00000876+00000+0001T   00000876+0000001613          1400 FG4112               2BZ
205881000205881               205881               170213ML     1400+00000+ML0000016253+0000016253+000000000+000002277+0000018530+0000000000+I40000018530+0000000000+Z
205881001205881112-116038     205881006009681820246TCS CARRIER BAG MIDI   0000001000+00000035+00000+0001T   00000035+0000001616          1400 FG4090               2BZ
205881002205881006-000113     205881006003000671816BALLOONS WATER FILLER  0000002000+00003507+00000+0001T   00003507+0000001616          1400 FG4131               2BZ
205881003205881466-000051     205881006001023800510WATER BOMB 4,5cm SET 6 0000001000+00003507+00000+0001T   00003507+0000001616          1400 FG4785               2BZ
205881004205881039-000319-1   205881006003000442386B/CANDLES LRG NUMBER-1 0000002000+00000876+00000+0001T   00000876+0000001616          1400 FG4510               2BZ
205881005205881565-000888     205881006003000607846NOVELTY MESH BALL      0000001000+00001753+00000+0001T   00001753+0000001616          1400 FG4745               2BZ
205881006205881006-000090     205881006001023538505BANNER HAPPY-BIRTHDAY  0000001000+00002192+00000+0001T   00002192+0000001616          1400 FG4131               2BZ
205882000205882               205882               170213ML     1400+00000+ML0000001753+0000001753+000000000+000000246+0000001990+0000000009+I20000000000+0000001990+Z
205882001205882078-000470     205882006007347000018SHOE-CEMENT 70ml-TIN   0000001000+00001753+00000+0001T   00001753+0000001619          1400 FG4810               2BZ
205883000205883               205883               170213ML     1400+00000+ML0000003711+0000003711+000000000+000000521+0000004232+0000000000+I40000004232+0000000000+Z
205883001205883077-000311     205883006001023608666GIFT-BAG 11X14CM GLOSS 0000002000+00000613+00000+0001T   00000613+0000001621          1400 FG4112               2BZ
205883002205883018-000177     205883006001023797513MUG MINI LOVE ASSTD    0000002000+00000700+00000+0001T   00000700+0000001621          1400 FG4515               2BZ
205883003205883903-000155     205883006009803374435SWT LOLLY I LUV U HEART0000002000+00000525+00000+0001T   00000525+0000001621          1400 FG4150               2BZ
205883004205883112-116038     205883006009681820246TCS CARRIER BAG MIDI   0000001000+00000035+00000+0001T   00000035+0000001621          1400 FG4090               2BZ
205884000205884               205884               170213ML     1400+00000+ML0000001314+0000001314+000000000+000000184+0000001490+0000000008+I20000000000+0000001490+Z
205884001205884077-000310     205884006001023608635GIFT-BAG 18X23CM GLOSS 0000001000+00001314+00000+0001T   00001314+0000001623          1400 FG4112               2BZ
205885000205885               205885               170213ML     1400+00000+ML0000016664+0000016664+000000000+000002334+0000018998+0000000000+I40000018998+0000000000+Z
205885001205885082-007580     205885006003000698523SUNGLASS MENS DESIGNER 0000001000+00005262+00000+0001T   00005262+0000001627          1400 FG4160               2BZ
205885002205885586-099637     205885006001492996370WATCH LDS DIGITAL TURQ 0000001000+00011402+00000+0001T   00011402+0000001627          1400 FG4160               2BZ
205886000205886               205886               170213ML     1400+00000+ML0000006167+0000006167+000000000+000000866+0000007033+0000000000+I40000007033+0000000000+Z
205886001205886018-000130     205886006001023867537MUG OCC LOVE MINI+HEART0000001000+00003507+00000+0001T   00003507+0000001629          1400 FG4515               2BZ
205886002205886903-000155     205886006009803374435SWT LOLLY I LUV U HEART0000005000+00000525+00000+0001T   00000525+0000001629          1400 FG4150               2BZ
205886003205886112-116038     205886006009681820246TCS CARRIER BAG MIDI   0000001000+00000035+00000+0001T   00000035+0000001629          1400 FG4090               2BZ
205887000205887               205887               170213ML     1400+00000+ML0000002313+0000002313+000000000+000000324+0000002630+0000000007+I20000000000+0000002630+Z
205887001205887077-000303     205887006001023593757GIFT-BAG PAPER MED     0000001000+00001578+00000+0001T   00001578+0000001631          1400 FG4112               2BZ
205887002205887018-000177     205887006001023797513MUG MINI LOVE ASSTD    0000001000+00000700+00000+0001T   00000700+0000001631          1400 FG4515               2BZ
205887003205887112-116038     205887006009681820246TCS CARRIER BAG MIDI   0000001000+00000035+00000+0001T   00000035+0000001631          1400 FG4090               2BZ
205888000205888               205888               170213ML     1400+00000+ML0000002313+0000002313+000000000+000000325+0000002638+0000000000+I40000002638+0000000000+Z
205888001205888033-005991     205888006001023678546NEEDLES H/HOLD-REPAIR  0000001000+00000788+00000+0001T   00000788+0000001643          1400 FG4200               2BZ
205888002205888033-005919     205888006003000154883SEWING THREAD 24cm ASST0000001000+00001490+00000+0001T   00001490+0000001643          1400 FG4200               2BZ
205888003205888112-116038     205888006009681820246TCS CARRIER BAG MIDI   0000001000+00000035+00000+0001T   00000035+0000001643          1400 FG4090               2BZ
205889000205889               205889               170213ML     1400+00000+ML0000008771+0000008771+000000000+000001228+0000000000+0000000000+ 00000000000+0000000000+Z
205889001205889586-011941     205889006001492119410WATCH KIDS RAINBOW ASST0000001000+00008771+00000+0001T   00008771+000000              1400 FG41602IC            2 Z
205890000205890               205890               170213ML     1400+00000+ML0000009998+0000009998+000000000+000001400+0000011398+0000000000+I40000011398+0000000000+Z
205890001205890586-011941     205890006001492119410WATCH KIDS RAINBOW ASST0000001000+00008771+00000+0001T   00008771+0000001647          1400 FG4160               2BZ
205890002205890903-004951     205890006002580020328SWT MALLOW MINI M/SHAKE0000001000+00001227+00000+0001T   00001227+0000001647          1400 FG4150               2BZ
205891000205891               205891               170213ML     1400+00000+ML0000034770+0000034770+000000000+000004873+0000039640+0000000003+I20000000000+0000039640+Z
205891001205891077-000290     205891006001023902023GIFT BOX 26x32x13cm    0000001000+00001753+00000+0001T   00001753+0000001650          1400 FG4112               2BZ
205891002205891368-000111     205891006001023780812PLUSH BEAR/DOG 29CM    0000001000+00012279+00000+0001T   00012279+0000001650          1400 FG4745               2BZ
205891003205891112-116069     205891006009681820277TCS CARRIER BAG JUMBO  0000001000+00000048+00000+0001T   00000048+0000001650          1400 FG4090               2BZ
205891004205891077-000349-B   205891006001023908315G/RIBBON 3ROLLS 12BOWS 0000001000+00002630+00000+0001T   00002630+0000001650          1400 FG4112               2BZ
205891005205891077-000251     205891006003000639106GIFT-DECOR RIBBON      0000001000+00002630+00000+0001T   00002630+0000001650          1400 FG4112               2BZ
205891006205891903-000155     205891006009803374435SWT LOLLY I LUV U HEART0000001000+00000525+00000+0001T   00000525+0000001650          1400 FG4150               2BZ
205891007205891031-005853     205891006003000442416P/FRAME WDN TWIN HEARTS0000002000+00003507+00000+0001T   00003507+0000001650          1400 FG4510               2BZ
205891008205891077-000297     205891006001023869814GIFT BOX OCCASIONS SQRE0000002000+00001753+00000+0001T   00001753+0000001650          1400 FG4112               2BZ
205891009205891006-000190     205891006003000685530BALLOONS LOVE 81x91cm  0000001000+00004385+00000+0001T   00004385+0000001650          1400 FG4131               2BZ
205892000205892               205892               170213ML     1400+00000+ML0000011449+0000011449+000000000+000001604+0000013053+0000000000+I40000013053+0000000000+Z
205892001205892077-000011-D   205892006001023808554TISSUE-WRAP WHITE 10PCE0000001000+00000876+00000+0001T   00000876+0000001652          1400 FG4112               2BZ
205892002205892368-000005     205892006003000616862PLUSH MONSTER 24cm     0000001000+00010525+00000+0001T   00010525+0000001652          1400 FG4745               2BZ
205892003205892112-116069     205892006009681820277TCS CARRIER BAG JUMBO  0000001000+00000048+00000+0001T   00000048+0000001652          1400 FG4090               2BZ
205893000205893               205893               170213ML     1400+00000+ML0000000350+0000000350+000000000+000000049+0000000390+0000000009+I20000000000+0000000390+Z
205893001205893007-000104     205893006009685854865BK COVER BRWN KRFT ROLL0000001000+00000350+00000+0001T   00000350+0000001652          1400 FG4130               2BZ
205894000205894               205894               170213ML     1400+00000+ML0000000876+0000000876+000000000+000000123+0000000990+0000000009+I20000000000+0000000990+Z
205894001205894007-000235     205894006003000134434LABELS RECTANGULAR 60pc0000001000+00000876+00000+0001T   00000876+0000001653          1400 FG4130               2BZ
205895000205895               205895               170213ML     1400+00000+ML0000001839+0000001839+000000000+000000258+0000002090+0000000007+I20000000000+0000002090+Z
205895001205895077-000317     205895006001023609748GIFT-BAG 11X14CM E/D AN0000003000+00000613+00000+0001T   00000613+0000001654          1400 FG4112               2BZ
205896000205896               205896               170213ML     1400+00000+ML0000002804+0000002804+000000000+000000394+0000003190+0000000008+I20000000000+0000003190+Z
205896001205896079-013032-J   205896006003000542710A&C DIY COLOUR P/FLOWER0000001000+00001753+00000+0001T   00001753+0000001654          1400 FG4130               2BZ
205896002205896903-002890     205896008935001721352MENTOS GUM PURE F/MINT 0000001000+00001051+00000+0001T   00001051+0000001654          1400 FG4150               2BZ
205897000205897               205897               170213ML     1400+00000+ML0000003977+0000003977+000000000+000000558+0000004530+0000000005+I20000000000+0000004530+Z
205897001205897903-000155     205897006009803374435SWT LOLLY I LUV U HEART0000002000+00000525+00000+0001T   00000525+0000001701          1400 FG4150               2BZ
205897002205897018-000170     205897006001023775528MUG OCC. LOVE 2PC MINI 0000001000+00002192+00000+0001T   00002192+0000001701          1400 FG4515               2BZ
205897003205897018-000177     205897006001023797513MUG MINI LOVE ASSTD    0000001000+00000700+00000+0001T   00000700+0000001701          1400 FG4515               2BZ
205897004205897112-116038     205897006009681820246TCS CARRIER BAG MIDI   0000001000+00000035+00000+0001T   00000035+0000001701          1400 FG4090               2BZ
205898000205898               205898               170213ML     1400+00000+ML0000002630+0000002630+000000000+000000369+0000002990+0000000009+I20000000000+0000002990+Z
205898001205898077-000251     205898006003000639106GIFT-DECOR RIBBON      0000001000+00002630+00000+0001T   00002630+0000001702          1400 FG4112               2BZ
205899000205899               205899               170213ML     1400+00000+ML0000012762+0000012762+000000000+000001788+0000000000+0000000000+ 00000000000+0000000000+Z
205899001205899077-000304     205899006001023483232GIFT-BAG 25X32CM E/DAY 0000001000+00001490+00000+0001T   00001490+000000              1400 FG41122IC            2 Z
205899002205899018-050000     205899006003000412679MUG OCC LOVE TWIN BEAR 0000001000+00006139+00000+0001T   00006139+000000              1400 FG45152IC            2 Z
205899003205899018-005009     205899006001023725608MUG W/PLUSH-BEAR LOVE  0000001000+00003507+00000+0001T   00003507+000000              1400 FG45152IC            2 Z
205899004205899077-000386     205899006003000275489G/BAG POP UP 18x23CM   0000001000+00001578+00000+0001T   00001578+000000              1400 FG41122IC            2 Z
205899005205899112-116069     205899006009681820277TCS CARRIER BAG JUMBO  0000001000+00000048+00000+0001T   00000048+000000              1400 FG40902IC            2 Z
205900000205900               205900               170213ML     1400+00000+ML0000012762+0000012762+000000000+000001788+0000014550+0000000000+I40000014550+0000000000+Z
205900001205900018-050000     205900006003000412679MUG OCC LOVE TWIN BEAR 0000001000+00006139+00000+0001T   00006139+0000001705          1400 FG4515               2BZ
205900002205900018-005009     205900006001023725608MUG W/PLUSH-BEAR LOVE  0000001000+00003507+00000+0001T   00003507+0000001705          1400 FG4515               2BZ
205900003205900112-116069     205900006009681820277TCS CARRIER BAG JUMBO  0000001000+00000048+00000+0001T   00000048+0000001705          1400 FG4090               2BZ
205900004205900077-000299     205900006003000395576G/BAG 32x25cm LRG LOVE 0000001000+00001490+00000+0001T   00001490+0000001705          1400 FG4112               2BZ
205900005205900077-000386     205900006003000275489G/BAG POP UP 18x23CM   0000001000+00001578+00000+0001T   00001578+0000001705          1400 FG4112               2BZ
205901000205901               205901               170213ML     1400+00000+ML0000015780+0000015780+000000000+000002213+0000017990+0000000003+I20000000000+0000017990+Z
205901001205901200-000090     205901006001023802200PICNIC-PLATES SET-10   0000001000+00001753+00000+0001T   00001753+0000001707          1400 FG4214               2BZ
205901002205901261-004007     205901006001023707512GUNS DOUBLE WILD-WEST  0000001000+00004385+00000+0001T   00004385+0000001707          1400 FG4710               2BZ
205901003205901079-000273     205901006003000160327PAINT BRUSHES THICK    0000001000+00002630+00000+0001T   00002630+0000001707          1400 FG4130               2BZ
205901004205901079-003000     205901006003000448838A/TUBE 75ML WHITE      0000001000+00001753+00000+0001T   00001753+0000001707          1400 FG4130               2BZ
205901005205901079-003001     205901006003000448951A/TUBE 75ML BLACK      0000001000+00001753+00000+0001T   00001753+0000001707          1400 FG4130               2BZ
205901006205901079-003005     205901006003000448241A/TUBE 75ML BLUE       0000001000+00001753+00000+0001T   00001753+0000001707          1400 FG4130               2BZ
205901007205901366-002694     205901006003000088997DRESS UP HAT COWBOY PL 0000001000+00001753+00000+0001T   00001753+0000001707          1400 FG4131               2BZ
205902000205902               205902               170213ML     1400+00000+ML0000001753+0000001753+000000000+000000246+0000001990+0000000009+I20000000000+0000001990+Z
205902001205902200-003024     205902006001023657299REFUSE BAGS 20PCE BLACK0000001000+00001753+00000+0001T   00001753+0000001709          1400 FG4214               2BZ
205903000205903               205903               170213ML     1400+00000+ML0000001753+0000001753+000000000+000000246+0000001990+0000000009+I20000000000+0000001990+Z
205903001205903089-000033     205903006003000621217KEY CHAIN MOM POLY ASST0000001000+00001753+00000+0001T   00002630+0008121710          1400 FG4205               2BZ
205904000205904               205904               170213ML     1400+00000+ML0000001840+0000001840+000000000+000000258+0000002090+0000000008+I20000000000+0000002090+Z
205904001205904006-000102     205904006001023806819BALLOONS W/BOMBS 50PCE 0000001000+00001490+00000+0001T   00001490+0000001713          1400 FG4131               2BZ
205904002205904903-000159     205904006003000417629SWT LB SMALL DUMMIE    0000001000+00000350+00000+0001T   00000350+0000001713          1400 FG4150               2BZ
205905000205905               205905               170213ML     1400+00000+ML0000001753+0000001753+000000000+000000246+0000001990+0000000009+I20000000000+0000001990+Z
205905001205905080-000102     205905006003000236855CARD&ENVLP FEMALE AFR  0000001000+00001753+00000+0001T   00001753+0000001717          1400 FG4112               2BZ
205906000205906               205906               170213ML     1400+00000+ML0000010524+0000010524+000000000+000001474+0000011998+0000000000+I40000011998+0000000000+Z
205906001205906174-000004     205906006003000583317SHOE BAG 9-POCKETS     0000002000+00005262+00000+0001T   00005262+0000001726          1400 FG4205               2BZ
205907000205907               205907               170213ML     1400+00000+ML0000007941+0000007941+000000000+000001113+0000009050+0000000004+I20000000000+0000009050+Z
205907001205907263-001005     205907006003000013340VEHICLE DUNE BUGGY SET 0000001000+00007893+00000+0001T   00007893+0000001726          1400 FG4710               2BZ
205907002205907112-116069     205907006009681820277TCS CARRIER BAG JUMBO  0000001000+00000048+00000+0001T   00000048+0000001726          1400 FG4090               2BZ
205908000205908               205908               170213ML     1400+00000+ML0000002630+0000002630+000000000+000000369+0000002990+0000000009+I20000000000+0000002990+Z
205908001205908106-001109     205908006003000666355W/BOTTLE 650ml         0000001000+00002630+00000+0001T   00002630+0000001727          1400 FG4210               2BZ
205909000205909               205909               170213ML     1400+00000+ML0000008767+0000008767+000000000+000001228+0000009990+0000000005+I20000000000+0000009990+Z
205909001205909018-000136     205909006001023659026MUG OCC LOVE W/PLUSH   0000002000+00003507+00000+0001T   00003507+0000001729          1400 FG4515               2BZ
205909002205909077-000471     205909006003000330096G-BAG DESGN MED 18X23CM0000001000+00001753+00000+0001T   00001753+0000001729          1400 FG4112               2BZ
205910000205910               205910               170213ML     1400+00000+ML0000000700+0000000700+000000000+000000098+0000000790+0000000008+I20000000000+0000000790+Z
205910001205910903-000159     205910006003000417629SWT LB SMALL DUMMIE    0000002000+00000350+00000+0001T   00000350+0000001730          1400 FG41502IC            2BZ
205911000205911               205911               170213ML     1400+00000+ML0000004733+0000004733+000000000+000000664+0000005390+0000000007+I20000000000+0000005390+Z
205911001205911567-011495     205911000076645122032BK ACTIVITY 96P BIBLE  0000001000+00002630+00000+0001T   00002630+0000001731          1400 FG4757               2BZ
205911002205911369-001137     205911006003000555062VINYL 5.7cm THEMED DUCK0000001000+00001753+00000+0001T   00001753+0000001731          1400 FG4745               2BZ
205911003205911903-000159     205911006003000417629SWT LB SMALL DUMMIE    0000001000+00000350+00000+0001T   00000350+0000001731          1400 FG4150               2BZ
205912000205912               205912               170213ML     1400+00000+ML0000035296+0000035296+000000000+000004947+0000040243+0000000000+I40000040243+0000000000+Z
205912001205912565-000081     205912006003000643493NOVELTY MUSICAL TUBE   0000002000+00002630+00000+0001T   00002630+0000001734          1400 FG4745               2BZ
205912002205912112-116069     205912006009681820277TCS CARRIER BAG JUMBO  0000001000+00000048+00000+0001T   00000048+0000001734          1400 FG4090               2BZ
205912003205912006-000227     205912006003000328086PARTY BIRTHDAY BADGES  0000001000+00003069+00000+0001T   00003069+0000001734          1400 FG4131               2BZ
205912004205912265-000381     205912006001023827852BATTERY OPERATED BOAT  0000003000+00005262+00000+0001T   00005262+0000001734          1400 FG4710               2BZ
205912005205912046-000011-A   205912006003000438891BATTERIES SIZE:AA  4PCE0000001000+00002630+00000+0001T   00002630+0000001734          1400 FG4312               2BZ
205912006205912565-000990     205912006001023673510NOVELTY STICKY SLAPPER 0000001000+00001490+00000+0001T   00001490+0000001734          1400 FG4745               2BZ
205912007205912565-000888     205912006003000607846NOVELTY MESH BALL      0000002000+00001753+00000+0001T   00001753+0000001734          1400 FG4745               2BZ
205912008205912077-000934     205912006003000409921G/WRAP 700mmx5m BIRTHDA0000001000+00003507+00000+0001T   00003507+0000001734          1400 FG4112               2BZ
205913000205913               205913               170213ML     1400+00000+ML0000002625+0000002625+000000000+000000370+0000002990+0000000005+I20000000000+0000002990+Z
205913001205913903-000155     205913006009803374435SWT LOLLY I LUV U HEART0000005000+00000525+00000+0001T   00000525+0000001734          1400 FG4150               2BZ
205914000205914               205914               170213ML     1400+00000+ML0000002626+0000002626+000000000+000000370+0000002990+0000000006+I20000000000+0000002990+Z
205914001205914903-000895     205914006009680772256SWT MINI BOTZ S/BERRY  0000002000+00000788+00000+0001T   00000788+0000001735          1400 FG4150               2BZ
205914002205914903-000155     205914006009803374435SWT LOLLY I LUV U HEART0000002000+00000525+00000+0001T   00000525+0000001735          1400 FG4150               2BZ
205915000205915               205915               170213ML     1400+00000+ML0000002717+0000002717+000000000+000000381+0000003090+0000000008+I20000000000+0000003090+Z
205915001205915077-000245     205915006001023759214GIFT-RIBBON METALLICx2 0000001000+00001227+00000+0001T   00001227+0000001735          1400 FG4112               2BZ
205915002205915077-000305     205915006003000395422GIFT-BAG WINE 10X35CM  0000001000+00001490+00000+0001T   00001490+0000001735          1400 FG4112               2BZ
205916000205916               205916               170213ML     1400+00000+ML0000012640-0000000000+000000000+000000000+0000012640-0000000000+I20000000000+0000012640-Z
205916001205916001-999901     205916000000000999901CASUAL WAGES           0000001000-00012640+00000+0001X  8903010705082 0800TMATHI0000000000 FG49012IC BELA       2 Z
205917000205917               205917               170213ML     1400+00000+ML0000007185+0000007185+000000000+000001007+0000008190+0000000002+I20000000000+0000008190+Z
205917001205917079-009700-D   205917006003000545711PAPER SIRIO A4 RED COL.0000002000+00000306+00000+0001T   00000306+0000001741          1400 FG4130               2BZ
205917002205917071-001019     205917006001023474513MARKER BLACK NAME-PEN  0000001000+00000876+00000+0001T   00000876+0000001741          1400 FG4130               2BZ
205917003205917006-000167-F   205917006003000517411BALLOONS SILV METALLIC 0000002000+00001314+00000+0001T   00001314+0000001741          1400 FG4131               2BZ
205917004205917104-000187     205917006003000138586FRIDGE CONDIMENT CADDY 0000001000+00003069+00000+0001T   00003069+0000001741          1400 FG4210               2BZ
205918000205918               205918               170213ML     1400+00000+ML0000001753+0000001753+000000000+000000246+0000000000+0000000000+ 00000000000+0000000000+Z
205918001205918078-000030     205918006003000151141YAMAYO SUPERGLUE 8g    0000001000+00001753+00000+0001T   00001753+000000              1400 FG48102IC            2 Z
205919000205919               205919               170213ML     1400+00000+ML0000000876+0000000876+000000000+000000123+0000000990+0000000009+I20000000000+0000000990+Z
205919001205919078-000025     205919008887013700064SUPERGLUE 3g 1PCE CARD 0000001000+00000876+00000+0001T   00000876+0000001746          1400 FG4810               2BZ
205920000205920               205920               170213ML     1400+00000+ML0000007451+0000007451+000000000+000001044+0000008490+0000000005+I20000000000+0000008490+Z
205920001205920077-000455     205920006003000285389G/BAG METALLIC LRG SOL 0000001000+00001753+00000+0001T   00001753+0000001758          1400 FG4112               2BZ
205920002205920368-000001     205920006003000097982Plush Bear 25cm        0000001000+00004385+00000+0001T   00004385+0000001758          1400 FG4745               2BZ
205920003205920304-001011     205920006001023806727FLWR ROSE RED W/BEAR   0000001000+00000613+00000+0001T   00000788+0006471758          1400 FG4510               2BZ
205920004205920018-000177     205920006001023797513MUG MINI LOVE ASSTD    0000001000+00000700+00000+0001T   00000700+0000001758          1400 FG4515               2BZ
A17021300                                          09403953MLSLAVE 2                       FG42IC
A17021301                                          10204702MLSLAVE 2                       FG42IC
A17021302                                          11110055MLSLAVE 2                       FG42IC
A17021303                                          12360336MLSLAVE 2                       FG42IC
A17021304                                          14071095MLSLAVE 2                       FG42IC
A17021305                                          14431581MLSLAVE 2                       FG42IC
A17021306                                          16482017MLSLAVE 2                       FG42IC
A17021307                                          17443789MLSLAVE 2                       FG42IC
B20591000                                          170213ML903-000159     17303543SLAVE 2     FG42IC0000003000+0000002000+0000000000000+
M17021391                              CASH        MLSLAVE 2                       Z-REPORT No.   582TOTAL (Sales - Refunds)           6945.18       CASH TO BE BANKED                 4099.40       DEBIT CARDS                          0.00       CREDIT CARDS                      2719.38       Z-READING                         6818.78       AIRTIME DEBIT CARD SALES             0.00       AIRTIME CARD SALES                   0.00       OVERS/UNDERS                         0.00       AIRTIME CASH SALES                   0.00       GIFT CARDS                           0.00       GIFT CARD CASH SALES                 0.00       CASUAL WAGES                       126.40       T O T A L  CASH PAYOUTS            126.40                                                                                                                                                                                                                                                                                                      Z
M17021392                              CASH        MLABSENT                                                                                                                                                                                          ANNUAL LEAVE                                                                                                                                                                                    DAY OFF                                                                                                                                                                                         COMMENTS                                                                                                                                                                                                                                                                                                                                                                                       Z
Y17021300                                          ML00000000613981+000092
ZML17021320063 SLAVE 2      SALES DATA                     NEXT INVOICE NO.  205921 0582
X ML Slave 2 First invoice 205824 170213 Last invoice 205920 170213 Next invoice 205921 Total number of records 000000354 clbackup completed 20:06:02
