100132000100132               100132               170213MM     1400+00000+MM0000001753+0000001753+000000000+000000246+0000001990+0000000009+I20000000000+0000001990+Z
100132001100132566-000065     100132006003000217915STICKERS GLITTER ASSTD 0000001000+00001753+00000+0001T   00001753+0000001000          1400 KI3130               1AZ
100133000100133               100133               170213MM     1400+00000+MM0000017590+0000017590+000000000+000002463+0000020050+0000000003+I20000000000+0000020050+Z
100133001100133056-350000     100133006001023998248CAR-SEAT ORGANIZER 59cm0000002000+00008771+00000+0001T   00008771+0000001001          1400 KI3860               1AZ
100133002100133112-116069     100133006009681820277TCS CARRIER BAG JUMBO  0000001000+00000048+00000+0001T   00000048+0000001001          1400 KI3090               1AZ
100134000100134               100134               170213MM     1400+00000+MM0000004294+0000004294+000000000+000000603+0000004890+0000000007+I20000000000+0000004890+Z
100134001100134563-000318-L   100134006003000407088SERVIETTES 33cm RED    0000001000+00002192+00000+0001T   00002192+0000001001          1400 KI3214               1AZ
100134002100134039-000024     100134006003000286300C/TAPERED 25CM M/WHITE 0000002000+00001051+00000+0001T   00001051+0000001001          1400 KI3510               1AZ
100135000100135               100135               170213MM     1400+00000+MM0000014252+0000014252+000000000+000001996+0000016248+0000000000+I40000016248+0000000000+Z
100135001100135018-000127     100135006001023380289MUG OCC STRAIGHT LOVE  0000001000+00001578+00000+0001T   00001753+0006471029          1400 KI3515               1AZ
100135002100135018-005009     100135006001023725608MUG W/PLUSH-BEAR LOVE  0000001000+00003507+00000+0001T   00003507+0000001029          1400 KI3515               1AZ
100135003100135368-000049     100135006003000536955PLUSH BEAR 15cm LOVE   0000001000+00004385+00000+0001T   00004385+0000001029          1400 KI3745               1AZ
100135004100135077-000303     100135006001023593757GIFT-BAG PAPER MED     0000003000+00001578+00000+0001T   00001578+0000001029          1400 KI3112               1AZ
100135005100135112-116069     100135006009681820277TCS CARRIER BAG JUMBO  0000001000+00000048+00000+0001T   00000048+0000001029          1400 KI3090               1AZ
100136000100136               100136               170213MM     1400+00000+MM0000026134+0000026134+000000000+000003662+0000029796+0000000000+I40000029796+0000000000+Z
100136001100136467-000019     100136006001023746832BEACH-SET 16PCE BUCKET 0000001000+00007893+00000+0001T   00007893+0000001056          1400 KI3785               1AZ
100136002100136490-044669     100136000078257446698INTEX BOB BAG 3-D      0000001000+00005262+00000+0001T   00005262+0000001056          1400 KI3787               1AZ
100136003100136108-001040     100136006001023596451TUMBLER 280ml CLEAR    0000003000+00000657+00000+0001T   00000657+0000001056          1400 KI3210               1AZ
100136004100136036-000521     100136006003000338184HOOK-HANGER 8-HOOK     0000001000+00001753+00000+0001T   00001753+0000001056          1400 KI3212               1AZ
100136005100136493-059020     100136000078257590209BEACH-BALL 51cm GLOSSY 0000001000+00001578+00000+0001T   00001578+0000001056          1400 KI3787               1AZ
100136006100136493-059010     100136000078257590100BEACH-BALL COLOR-PANELS0000001000+00001490+00000+0001T   00001490+0000001056          1400 KI3787               1AZ
100136007100136133-003245     100136006003000419074IRON BRD COVER 122x38cm0000001000+00006139+00000+0001T   00006139+0000001056          1400 KI3212               1AZ
100136008100136112-116069     100136006009681820277TCS CARRIER BAG JUMBO  0000001000+00000048+00000+0001T   00000048+0000001056          1400 KI3090               1AZ
100137000100137               100137               170213MM     1400+00000+MM0000010522+0000010522+000000000+000001475+0000011997+0000000000+I40000011997+0000000000+Z
100137001100137140-000030     100137006003000373123TRAP MOUSE PL PACK-2   0000002000+00002630+00000+0001T   00002630+0000001101          1400 KI3830               1AZ
100137002100137056-065301     100137006001023625861CAR SUN-SHIELD 114x66cm0000001000+00005262+00000+0001T   00005262+0000001101          1400 KI3860               1AZ
100138000100138               100138               170213MM     1400+00000+MM0000013989+0000013989+000000000+000001961+0000015950+0000000000+I20000000000+0000015950+Z
100138001100138072-020311     100138006003000494132PET DOG TOY VINYL BALL 0000001000+00003069+00000+0001T   00003069+0000001102          1400 KI3870               1AZ
100138002100138142-000815     100138006001023183903GLOVES RUBBER LARGE    0000002000+00001753+00000+0001T   00001753+0000001102          1400 KI3810               1AZ
100138003100138022-002109     100138006001023501745MUG 6cm DEC            0000001000+00001227+00000+0001T   00001227+0000001102          1400 KI3305               1AZ
100138004100138124-001300     100138006003000486861STORAGE TIN WASHING    0000001000+00006139+00000+0001T   00006139+0000001102          1400 KI3300               1AZ
100138005100138112-116069     100138006009681820277TCS CARRIER BAG JUMBO  0000001000+00000048+00000+0001T   00000048+0000001102          1400 KI3090               1AZ
100139000100139               100139               170213MM     1400+00000+MM0000005262+0000005262+000000000+000000737+0000005990+0000000009+I20000000000+0000005990+Z
100139001100139079-105609     100139006003000612697ART+CRAFT ALPHABET KIT 0000001000+00005262+00000+0001T   00005262+0000001132          1400 KI3130               1BZ
100140000100140               100140               170213MM     1400+00000+MM0000001753+0000001753+000000000+000000246+0000001990+0000000009+I20000000000+0000001990+Z
100140001100140080-000101     100140006003000236732CARD&ENVLPE FEMALE     0000001000+00001753+00000+0001T   00001753+0000001133          1400 KI3112               1AZ
100141000100141               100141               170213MM     1400+00000+MM0000011972+0000011972+000000000+000001678+0000013650+0000000000+I20000000000+0000013650+Z
100141001100141039-000108     100141006001023524034TEA-LITE CANDLES 8PCE  0000003000+00001490+00000+0001T   00001490+0000001136          1400 KI3510               1AZ
100141002100141080-000127     100141006003000424351VALENTINES DAY 36x24CM 0000001000+00002192+00000+0001T   00002192+0000001136          1400 KI3112               1AZ
100141003100141112-116069     100141006009681820277TCS CARRIER BAG JUMBO  0000001000+00000048+00000+0001T   00000048+0000001136          1400 KI3090               1AZ
100141004100141304-001116     100141006003000426164F/BUNCH ROSES 12-HEAD  0000001000+00005262+00000+0001T   00005262+0000001136          1400 KI3510               1AZ
100142000100142               100142               170213MM     1400+00000+MM0000001753+0000001753+000000000+000000246+0000001990+0000000009+I20000000000+0000001990+Z
100142001100142071-002999-A   100142006003000611577PEN STICKBALL 10PCE ASS0000001000+00001753+00000+0001T   00001753+0000001144          1400 KI3130               1CZ
100143000100143               100143               170213MM     1400+00000+MM0000010961+0000010961+000000000+000001536+0000012490+0000000007+I20000000000+0000012490+Z
100143001100143036-000014     100143006001246500822LINT REMOVER 40x SHEET 0000001000+00003946+00000+0001T   00003946+0000001146          1400 KI3212               1AZ
100143002100143036-000013     100143006001246500860LINT REMOVER REFILLS   0000001000+00003946+00000+0001T   00003946+0000001146          1400 KI3212               1AZ
100143003100143089-000005     100143006003000094806KEY CHAIN CARDS MTL    0000001000+00003069+00000+0001T   00003069+0000001146          1400 KI3205               1AZ
100144000100144               100144               170213MM     1400+00000+MM0000000876+0000000876+000000000+000000123+0000000990+0000000009+I20000000000+0000000990+Z
100144001100144077-000011-E   100144006001023808646TISSUE-WRAP PINK 10PCE 0000001000+00000876+00000+0001T   00000876+0000001148          1400 KI3112               1AZ
100145000100145               100145               170213MM     1400+00000+MM0000005786+0000005786+000000000+000000812+0000006590+0000000008+I20000000000+0000006590+Z
100145001100145036-000151     100145006001023810588COATHANGERS    PACK-10 0000002000+00002893+00000+0001T   00002893+0000001213          1400 KI3212               1AZ
100146000100146               100146               170213MM     1400+00000+MM0000006139+0000006139+000000000+000000860+0000006990+0000000009+I20000000000+0000006990+Z
100146001100146031-007009     100146006003000467822P/FRAME WDN CERTIFICATE0000001000+00006139+00000+0001T   00006139+0000001232          1400 KI3510               1AZ
100147000100147               100147               170213MM     1400+00000+MM0000009766+0000009766+000000000+000001370+0000011130+0000000006+I20000000000+0000011130+Z
100147001100147251-000060     100147006001023628039PROTECT-PADS ADH 13PCE 0000002000+00002016+00000+0001T   00002016+0000001235          1400 KI3810               1AZ
100147002100147305-075000     100147006003000620555W/CHIMES HEART SHAPE   0000001000+00003069+00000+0001T   00003069+0000001235          1400 KI3505               1AZ
100147003100147562-000005     100147006001023584212EDU TOY MONEY & CASH   0000001000+00002630+00000+0001T   00002630+0000001235          1400 KI3755               1AZ
100147004100147112-116038     100147006003000534906TCS CARRIER BAG MIDI   0000001000+00000035+00000+0001T   00000035+0000001235          1400 KI3090               1AZ
100148000100148               100148               170213MM     1400+00000+MM0000002366+0000002366+000000000+000000332+0000002698+0000000000+I40000002698+0000000000+Z
100148001100148304-001011     100148006001023806727FLWR ROSE RED W/BEAR   0000001000+00000613+00000+0001T   00000788+0006471247          1400 KI3510               1AZ
100148002100148301-085002     100148006003000420704ORN OCC. LOVE BELL ASST0000001000+00001753+00000+0001T   00002630+0008121247          1400 KI3505               1AZ
100149000100149               100149               170213MM     1400+00000+MM0000001752+0000001752+000000000+000000246+0000001990+0000000008+I20000000000+0000001990+Z
100149001100149077-000011-D   100149006001023808554TISSUE-WRAP WHITE 10PCE0000001000+00000876+00000+0001T   00000876+0000001248          1400 KI3112               1AZ
100149002100149077-000011-E   100149006001023808646TISSUE-WRAP PINK 10PCE 0000001000+00000876+00000+0001T   00000876+0000001248          1400 KI3112               1AZ
100150000100150               100150               170213MM     1400+00000+MM0000003542+0000003542+000000000+000000496+0000004038+0000000000+I40000004038+0000000000+Z
100150001100150031-005853     100150006003000442416P/FRAME WDN TWIN HEARTS0000001000+00003507+00000+0001T   00003507+0000001257          1400 KI3510               1AZ
100150002100150112-116038     100150006003000534906TCS CARRIER BAG MIDI   0000001000+00000035+00000+0001T   00000035+0000001257          1400 KI3090               1AZ
100151000100151               100151               170213MM     1400+00000+MM0000011399+0000011399+000000000+000001598+0000012990+0000000007+I20000000000+0000012990+Z
100151001100151077-000904     100151006003000410682G/WRAP 700mmx1m PATTERN0000001000+00001753+00000+0001T   00001753+0000001258          1400 KI3112               1AZ
100151002100151562-088335     100151006003000425372EVA PUZZLE MAT MINI    0000001000+00001753+00000+0001T   00001753+0000001258          1400 KI3755               1AZ
100151003100151562-088353     100151006001023735966EVA MAT ABC+NR 36PC    0000001000+00007893+00000+0001T   00007893+0000001258          1400 KI3755               1AZ
100152000100152               100152               170213MM     1400+00000+MM0000015787+0000015787+000000000+000002211+0000017990+0000000008+I20000000000+0000017990+Z
100152001100152031-000009     100152006003000306381P/FRAME COLLAGE HEARTS 0000001000+00013157+00000+0001T   00013157+0000001259          1400 KI3510               1AZ
100152002100152077-000115-B   100152006003000181025GIFT-WRAP PPR 700MMX2M 0000001000+00002630+00000+0001T   00002630+0000001259          1400 KI3112               1AZ
100153000100153               100153               170213MM     1400+00000+MM0000003891+0000003891+000000000+000000546+0000004430+0000000007+I20000000000+0000004430+Z
100153001100153077-000245     100153006001023759214GIFT-RIBBON METALLICx2 0000001000+00001227+00000+0001T   00001227+0000001300          1400 KI3112               1AZ
100153002100153079-006500     100153006001023557186GLUE GLITTER 6/10 PCE  0000001000+00001753+00000+0001T   00001753+0000001300          1400 KI3130               1AZ
100153003100153903-000861     100153005010478430822SWT LOVE HEARTS SML    0000001000+00000876+00000+0001T   00000876+0000001300          1400 KI3150               1AZ
100153004100153112-116038     100153006003000534906TCS CARRIER BAG MIDI   0000001000+00000035+00000+0001T   00000035+0000001300          1400 KI3090               1AZ
100154000100154               100154               170213MM     1400+00000+MM0000006137+0000006137+000000000+000000860+0000006990+0000000007+I20000000000+0000006990+Z
100154001100154018-000130     100154006001023867537MUG OCC LOVE MINI+HEART0000001000+00003507+00000+0001T   00003507+0000001309          1400 KI3515               1AZ
100154002100154077-000270     100154006003000395453GIFT-BAG PPR JMB 33X45 0000001000+00002630+00000+0001T   00002630+0000001309          1400 KI3112               1AZ
100155000100155               100155               170213MM     1400+00000+MM0000001753+0000001753+000000000+000000246+0000001990+0000000009+I20000000000+0000001990+Z
100155001100155046-002013-PK6 100155004897006174851BATTERY BUTTON AG13 6PC0000001000+00001753+00000+0001T   00001753+0000001312          1400 KI3312               1AZ
100156000100156               100156               170213MM     1400+00000+MM0000002192+0000002192+000000000+000000307+0000002490+0000000009+I20000000000+0000002490+Z
100156001100156047-005127     100156006003000093861CABLETIES 100/150/200mm0000001000+00002192+00000+0001T   00002192+0000001315          1400 KI3880               1AZ
100157000100157               100157               170213MM     1400+00000+MM0000001578+0000001578+000000000+000000221+0000001790+0000000009+I20000000000+0000001790+Z
100157001100157016-006515-A   100157006003000461707S/JAR GLS W/HANDLE 500 0000001000+00001578+00000+0001T   00001753+0008191316          1400 KI3300               1AZ
100158000100158               100158               170213MM     1400+00000+MM0000007500+0000007500+000000000+000001051+0000008551+0000000000+I40000008551+0000000000+Z
100158001100158024-000097     100158006001023770035MEASURING-SET 11PCE WHT0000001000+00002192+00000+0001T   00002192+0000001319          1400 KI3300               1AZ
100158002100158103-000225     100158006003000568871BASKET IRON OVAL 20x24 0000001000+00003507+00000+0001T   00003507+0000001319          1400 KI3300               1AZ
100158003100158077-000354     100158006003000139224GIFT-BAG 25X32CM H/MADE0000001000+00001753+00000+0001T   00001753+0000001319          1400 KI3112               1AZ
100158004100158112-116069     100158006009681820277TCS CARRIER BAG JUMBO  0000001000+00000048+00000+0001T   00000048+0000001319          1400 KI3090               1AZ
100159000100159               100159               170213MM     1400+00000+MM0000011400+0000011400+000000000+000001596+0000012996+0000000000+I40000012996+0000000000+Z
100159001100159075-000412     100159006001023855299SHOPPER-BASKET PL      0000002000+00005700+00000+0001T   00005700+0000001326          1400 KI3160               1AZ
100160000100160               100160               170213MM     1400+00000+MM0000010215+0000010215+000000000+000001433+0000011640+0000000008+I20000000000+0000011640+Z
100160001100160566-000359     100160006003000582709STICKER BOOK LOVE SPARK0000001000+00002192+00000+0001T   00002192+0000001328          1400 KI3130               1AZ
100160002100160024-091100     100160006001023914224BAKING-CUPS PAPER 100PC0000001000+00001753+00000+0001T   00001753+0000001328          1400 KI3300               1AZ
100160003100160079-006498     100160006001023836151GLITTER SET 10PCE      0000001000+00003507+00000+0001T   00003507+0000001328          1400 KI3130               1AZ
100160004100160304-001011     100160006001023806727FLWR ROSE RED W/BEAR   0000001000+00000613+00000+0001T   00000788+0006471328          1400 KI3510               1AZ
100160005100160079-009702-B   100160008427973059491PAPER SIRIO A2 WHITE   0000001000+00001051+00000+0001T   00001051+0000001328          1400 KI3130               1AZ
100160006100160079-009702-D   100160008427973059354PAPER SIRIO A2 RED COL 0000001000+00001051+00000+0001T   00001051+0000001328          1400 KI3130               1AZ
100160007100160112-116069     100160006009681820277TCS CARRIER BAG JUMBO  0000001000+00000048+00000+0001T   00000048+0000001328          1400 KI3090               1AZ
100161000100161               100161               170213MM     1400+00000+MM0000005875+0000005875+000000000+000000823+0000006698+0000000000+I40000006698+0000000000+Z
100161001100161018-030000     100161006003000421060MUG OCCASIONS LOVE 2PCE0000001000+00004385+00000+0001T   00004385+0000001332          1400 KI3515               1AZ
100161002100161077-000452     100161006003000284986G/BAG METALLIC MED EMB 0000001000+00001490+00000+0001T   00001490+0000001332          1400 KI3112               1AZ
100162000100162               100162               170213MM     1400+00000+MM0000008819+0000008819+000000000+000001235+0000010050+0000000004+I20000000000+0000010050+Z
100162001100162368-000614     100162006001023705808PLUSH LOVE 30cm        0000001000+00008771+00000+0001T   00008771+0000001348          1400 KI3745               1AZ
100162002100162112-116069     100162006009681820277TCS CARRIER BAG JUMBO  0000001000+00000048+00000+0001T   00000048+0000001348          1400 KI3090               1AZ
100163000100163               100163               170213MM     1400+00000+MM0000015828+0000015828+000000000+000002220+0000018040+0000000008+I20000000000+0000018040+Z
100163001100163304-001204     100163006001023737984FLOWER OCC. TEDDY/ROSES0000001000+00001402+00000+0001T   00001490+0006471352          1400 KI3510               1AZ
100163002100163206-000320     100163006003000632909BOTTLE STOPPER+MARKERS 0000001000+00005262+00000+0001T   00005262+0000001352          1400 KI3321               1AZ
100163003100163077-000305     100163006003000395422GIFT-BAG WINE 10X35CM  0000002000+00001490+00000+0001T   00001490+0000001352          1400 KI3112               1AZ
100163004100163368-000053     100163006003000633449PLUSH BEAR 15.5cm MUM  0000001000+00005262+00000+0001T   00005262+0000001352          1400 KI3745               1AZ
100163005100163080-000133     100163006003000535613CARD&ENV MINI ASTD DSGN0000001000+00000437+00000+0001T   00000437+0000001352          1400 KI3112               1AZ
100163006100163080-000133-A   100163006003000647019MINI VALENTINES CARD   0000001000+00000437+00000+0001T   00000437+0000001352          1400 KI3112               1AZ
100163007100163112-116069     100163006009681820277TCS CARRIER BAG JUMBO  0000001000+00000048+00000+0001T   00000048+0000001352          1400 KI3090               1AZ
100164000100164               100164               170213MM     1400+00000+MM0000001490+0000001490+000000000+000000209+0000001690+0000000009+I20000000000+0000001690+Z
100164001100164077-000299     100164006003000395576G/BAG 32x25cm LRG LOVE 0000001000+00001490+00000+0001T   00001490+0000001355          1400 KI3112               1AZ
100165000100165               100165               170213MM     1400+00000+MM0000010559+0000010559+000000000+000001479+0000012038+0000000000+I40000012038+0000000000+Z
100165001100165039-000799     100165006001023692382CANDLES TEALITE 100PCE 0000001000+00008771+00000+0001T   00008771+0000001358          1400 KI3510               1CZ
100165002100165564-000035     100165006003000301836BUBBLE NOVELTY SWORD   0000001000+00001753+00000+0001T   00001753+0000001358          1400 KI3131               1CZ
100165003100165112-116038     100165006003000534906TCS CARRIER BAG MIDI   0000001000+00000035+00000+0001T   00000035+0000001358          1400 KI3090               1CZ
100166000100166               100166               170213MM     1400+00000+MM0000007662+0000007662+000000000+000001074+0000008730+0000000006+I20000000000+0000008730+Z
100166001100166077-000452     100166006003000284986G/BAG METALLIC MED EMB 0000001000+00001490+00000+0001T   00001490+0000001359          1400 KI3112               1AZ
100166002100166031-000002-A   100166006003000247103P/FRAME LOVE 7.5X7.5CM 0000001000+00003507+00000+0001T   00003507+0000001359          1400 KI3510               1AZ
100166003100166089-000145     100166006003000576616K/CHAIN LIGHT W/COMPASS0000001000+00002630+00000+0001T   00003069+0008121359          1400 KI3205               1AZ
100166004100166112-116038     100166006003000534906TCS CARRIER BAG MIDI   0000001000+00000035+00000+0001T   00000035+0000001359          1400 KI3090               1AZ
100167000100167               100167               170213MM     1400+00000+MM0000004416+0000004416+000000000+000000620+0000005036+0000000000+I40000005036+0000000000+Z
100167001100167077-000011-D   100167006001023808554TISSUE-WRAP WHITE 10PCE0000002000+00000876+00000+0001T   00000876+0000001406          1400 KI3112               1AZ
100167002100167077-000005-D   100167006003000414567PAPER TISSUE 50x70cm   0000001000+00001753+00000+0001T   00001753+0000001406          1400 KI3112               1AZ
100167003100167903-000861     100167005010478430822SWT LOVE HEARTS SML    0000001000+00000876+00000+0001T   00000876+0000001406          1400 KI3150               1AZ
100167004100167112-116038     100167006003000534906TCS CARRIER BAG MIDI   0000001000+00000035+00000+0001T   00000035+0000001406          1400 KI3090               1AZ
100168000100168               100168               170213MM     1400+00000+MM0000006871+0000006871+000000000+000000965+0000007836+0000000000+I40000007836+0000000000+Z
100168001100168003-009202     100168006003000405725ORN STONE FLOWERPOT    0000002000+00002630+00000+0001T   00002630+0000001437          1400 2IC505               1AZ
100168002100168903-000892     100168008693029700420SWT NOVELTY CHOCO CREAM0000002000+00000788+00000+0001T   00000788+0000001437          1400 2IC150               1AZ
100168003100168112-116038     100168006009681820246TCS CARRIER BAG MIDI   0000001000+00000035+00000+0001T   00000035+0000001437          1400 2IC090               1AZ
100169000100169               100169               170213MM     1400+00000+MM0000001753+0000001753+000000000+000000246+0000001990+0000000009+I20000000000+0000001990+Z
100169001100169006-000120     100169006001023346889BALLOONS 10PC MIX COL  0000001000+00001753+00000+0001T   00001753+0000001438          1400 2IC131               1AZ
100170000100170               100170               170213MM     1400+00000+MM0000004822+0000004822+000000000+000000676+0000005490+0000000008+I20000000000+0000005490+Z
100170001100170018-000170     100170006001023775528MUG OCC. LOVE 2PC MINI 0000001000+00002192+00000+0001T   00002192+0000001503          1400 KI3515               1AZ
100170002100170077-000270     100170006003000395453GIFT-BAG PPR JMB 33X45 0000001000+00002630+00000+0001T   00002630+0000001503          1400 KI3112               1AZ
100171000100171               100171               170213MM     1400+00000+MM0000007012+0000007012+000000000+000000984+0000000000+0000000000+ 00000000000+0000000000+Z
100171001100171039-000504     100171006001023816290CANDLE VTV 4PC METALLIC0000001000+00002630+00000+0001T   00002630+000000              1400 KI35102IC            1 Z
100171002100171039-001020     100171006001023617798CANDLES FLOATING BOX-4 0000001000+00002455+00000+0001T   00002455+000000              1400 KI35102IC            1 Z
100171003100171039-000026     100171006001023551610C/TAPERED 25CM M/RED   0000001000+00001051+00000+0001T   00001051+000000              1400 KI35102IC            1 Z
100171004100171039-000027     100171006003000286546C/TAPERED 25CM M/ORANGE0000001000+00000876+00000+0001T   00000876+000000              1400 KI35102IC            1 Z
100172000100172               100172               170213MM     1400+00000+MM0000008238+0000008238+000000000+000001157+0000009390+0000000005+I20000000000+0000009390+Z
100172001100172039-000026     100172006001023551610C/TAPERED 25CM M/RED   0000003000+00001051+00000+0001T   00001051+0000001508          1400 KI3510               1AZ
100172002100172039-000504     100172006001023816290CANDLE VTV 4PC METALLIC0000001000+00002630+00000+0001T   00002630+0000001508          1400 KI3510               1AZ
100172003100172039-001020     100172006001023617798CANDLES FLOATING BOX-4 0000001000+00002455+00000+0001T   00002455+0000001508          1400 KI3510               1AZ
100173000100173               100173               170213MM     1400+00000+MM0000001753+0000001753+000000000+000000246+0000001990+0000000009+I20000000000+0000001990+Z
100173001100173206-000590     100173006003000633708BAG CLIPS LIPS 2PC     0000001000+00001753+00000+0001T   00001753+0000001510          1400 KI3321               1AZ
100174000100174               100174               170213MM     1400+00000+MM0000017542+0000017542+000000000+000002456+0000019990+0000000008+I20000000000+0000019990+Z
100174001100174072-020237     100174006003000623402PET BED COTTON TEXTILE 0000001000+00017542+00000+0001T   00017542+0000001513          1400 KI3870               1AZ
100175000100175               100175               170213MM     1400+00000+MM0000004385+0000004385+000000000+000000614+0000004990+0000000009+I20000000000+0000004990+Z
100175001100175082-007585     100175006003000654093SUNGLASS DESIGNER ASST 0000001000+00004385+00000+0001T   00004385+0000001517          1400 KI3160               1AZ
100176000100176               100176               170213MM     1400+00000+MM0000006139+0000006139+000000000+000000860+0000006990+0000000009+I20000000000+0000006990+Z
100176001100176018-005007     100176006003000515516MUG OCC. LOVE W/HEARTS 0000001000+00006139+00000+0001T   00006139+0000001519          1400 KI3515               1AZ
100177000100177               100177               170213MM     1400+00000+MM0000017542-0000017542-000000000+000002456-0000020000-0000000002+I20000000000+0000020000-Z
100177001100177072-020237     100177006003000623402PET BED COTTON TEXTILE 0000001000-00017542+00000+0001T   00017542+0000001522          1400 KI38702IC            1 Z
100178000100178               100178               170213MM     1400+00000+MM0000003506+0000003506+000000000+000000492+0000003990+0000000008+I20000000000+0000003990+Z
100178001100178071-003853     100178006001023715579PENCIL BASIC HB 12PCE  0000002000+00001753+00000+0001T   00001753+0000001525          1400 KI3130               1BZ
100179000100179               100179               170213MM     1400+00000+MM0000007278+0000007278+000000000+000001020+0000008290+0000000008+I20000000000+0000008290+Z
100179001100179082-000120-A   100179006001023755834R/GLASS  FRAME W/CASE  0000001000+00006139+00000+0001T   00006139+0000001528          1400 KI3160               1BZ
100179002100179007-010192     100179006009635830536BOOK H/COVER A5 192PAGE0000001000+00001139+00000+0001T   00001139+0000001528          1400 KI3130               1BZ
100180000100180               100180               170213MM     1400+00000+MM0000003069+0000003069+000000000+000000430+0000003490+0000000009+I20000000000+0000003490+Z
100180001100180038-092233     100180006003000328925TABLE-MAT N/SLIP ASST  0000001000+00003069+00000+0001T   00003507+0008191533          1400 KI3300               1AZ
100181000100181               100181               170213MM     1400+00000+MM0000005295+0000005295+000000000+000000743+0000006030+0000000008+I20000000000+0000006030+Z
100181001100181565-000040     100181006008766115635NOVELTY ICON BEANIE    0000002000+00002630+00000+0001T   00002630+0000001534          1400 KI3745               1AZ
100181002100181112-116038     100181006003000534906TCS CARRIER BAG MIDI   0000001000+00000035+00000+0001T   00000035+0000001534          1400 KI3090               1AZ
100182000100182               100182               170213MM     1400+00000+MM0000004822+0000004822+000000000+000000676+0000005490+0000000008+I20000000000+0000005490+Z
100182001100182565-000887     100182006003000412334NOVELTY SILICONE TOY   0000001000+00002192+00000+0001T   00002192+0000001535          1400 KI3745               1AZ
100182002100182560-000202     100182006003000322008SNAKE PVC ASSTD        0000001000+00002630+00000+0001T   00002630+0000001535          1400 KI3745               1AZ
100183000100183               100183               170213MM     1400+00000+MM0000007574+0000007574+000000000+000001061+0000008630+0000000005+I20000000000+0000008630+Z
100183001100183567-075497     100183009780799381627BK NOVEL ROMANCE AFR   0000001000+00006139+00000+0001T   00006139+0000001542          1400 KI3757               1AZ
100183002100183018-000177     100183006001023797513MUG MINI LOVE ASSTD    0000002000+00000700+00000+0001T   00000700+0000001542          1400 KI3515               1AZ
100183003100183112-116038     100183006003000534906TCS CARRIER BAG MIDI   0000001000+00000035+00000+0001T   00000035+0000001542          1400 KI3090               1AZ
100184000100184               100184               170213MM     1400+00000+MM0000013816+0000013816+000000000+000001936+0000015752+0000000000+I40000015752+0000000000+Z
100184001100184112-116069     100184006009681820277TCS CARRIER BAG JUMBO  0000001000+00000048+00000+0001T   00000048+0000001549          1400 KI3090               1AZ
100184002100184469-006554     100184006003000542123B/BLOCKS STORAGE TRUCK 0000001000+00010525+00000+0001T   00010525+0000001549          1400 KI3755               1AZ
100184003100184006-000120     100184006001023346889BALLOONS 10PC MIX COL  0000001000+00001753+00000+0001T   00001753+0000001549          1400 KI3131               1AZ
100184004100184006-000805     100184000013994092418STREAMERS 10-ROLLS     0000001000+00001490+00000+0001T   00001490+0000001549          1400 KI3131               1AZ
100185000100185               100185               170213MM     1400+00000+MM0000006171+0000006171+000000000+000000866+0000007030+0000000007+I20000000000+0000007030+Z
100185001100185079-013032-D   100185006003000389643RIBBONS                0000001000+00002630+00000+0001T   00002630+0000001600          1400 KI3130               1AZ
100185002100185079-000275     100185006003000160488PAINT-BRUSHES 6PCE PRO 0000001000+00001753+00000+0001T   00001753+0000001600          1400 KI3130               1AZ
100185003100185079-003002     100185006003000447886A/TUBE 75ML RED        0000001000+00001753+00000+0001T   00001753+0000001600          1400 KI3130               1AZ
100185004100185112-116038     100185006003000534906TCS CARRIER BAG MIDI   0000001000+00000035+00000+0001T   00000035+0000001600          1400 KI3090               1AZ
100186000100186               100186               170213MM     1400+00000+MM0000007752+0000007752+000000000+000001086+0000008838+0000000000+I40000008838+0000000000+Z
100186001100186077-000303     100186006001023593757GIFT-BAG PAPER MED     0000001000+00001578+00000+0001T   00001578+0000001625          1400 KI3112               1AZ
100186002100186368-000265     100186006001023750914PLUSH BEAR 23CM ASSTD C0000001000+00006139+00000+0001T   00006139+0000001625          1400 KI3745               1AZ
100186003100186112-116038     100186006003000534906TCS CARRIER BAG MIDI   0000001000+00000035+00000+0001T   00000035+0000001625          1400 KI3090               1AZ
100187000100187               100187               170213MM     1400+00000+MM0000004341+0000004341+000000000+000000610+0000004951+0000000000+I40000004951+0000000000+Z
100187001100187079-006495     100187006003000159987GLITTER SHAKERS 6PK    0000001000+00002630+00000+0001T   00002630+0000001633          1400 KI3130               1BZ
100187002100187079-009700-B   100187006003000547661PAPER SIRIO A4 WHITE   0000002000+00000306+00000+0001T   00000306+0000001633          1400 KI3130               1BZ
100187003100187079-009702-D   100187008427973059354PAPER SIRIO A2 RED COL 0000001000+00001051+00000+0001T   00001051+0000001633          1400 KI3130               1BZ
100187004100187112-116069     100187006009681820277TCS CARRIER BAG JUMBO  0000001000+00000048+00000+0001T   00000048+0000001633          1400 KI3090               1BZ
100188000100188               100188               170213MM     1400+00000+MM0000008726+0000008726+000000000+000001224+0000009950+0000000000+I40000009950+0000000000+Z
100188001100188079-000600     100188006003000160990ART-SHEETS FOAM ASSTD-C0000001000+00003507+00000+0001T   00003507+0000001636          1400 KI3130               1AZ
100188002100188079-006522     100188006001023149442ART+CRAFT GLUE ASSORTED0000001000+00001753+00000+0001T   00001753+0000001636          1400 KI3130               1AZ
100188003100188033-005991     100188006001023678546NEEDLES H/HOLD-REPAIR  0000001000+00000788+00000+0001T   00000788+0000001636          1400 KI3200               1AZ
100188004100188079-013032-H   100188006003000496501GLITTER PRINCESS ACC   0000001000+00002630+00000+0001T   00002630+0000001636          1400 KI3130               1AZ
100188005100188112-116069     100188006009681820277TCS CARRIER BAG JUMBO  0000001000+00000048+00000+0001T   00000048+0000001636          1400 KI3090               1AZ
100189000100189               100189               170213MM     1400+00000+MM0000020988+0000020988+000000000+000002940+0000023928+0000000000+I40000023928+0000000000+Z
100189001100189031-006540     100189006001023695031P/FRAME PL 3-(10X15CM) 0000001000+00006139+00000+0001T   00006139+0000001651          1400 KI3510               1BZ
100189002100189077-000932     100189006003000409808G/WRAP 700mmx5m PATTERN0000001000+00003507+00000+0001T   00003507+0000001651          1400 KI3112               1BZ
100189003100189018-000177     100189006001023797513MUG MINI LOVE ASSTD    0000010000+00000700+00000+0001T   00000700+0000001651          1400 KI3515               1BZ
100189004100189046-000012     100189006904708013062BATTERIES AA  CARD-OF-40000001000+00001314+00000+0001T   00001314+0000001651          1400 KI3312               1BZ
100189005100189077-000299     100189006003000395576G/BAG 32x25cm LRG LOVE 0000002000+00001490+00000+0001T   00001490+0000001651          1400 KI3112               1BZ
100189006100189112-116069     100189006009681820277TCS CARRIER BAG JUMBO  0000001000+00000048+00000+0001T   00000048+0000001651          1400 KI3090               1BZ
100190000100190               100190               170213MM     1400+00000+MM0000000876+0000000876+000000000+000000123+0000000990+0000000009+I20000000000+0000000990+Z
100190001100190071-001238     100190000060107212485ERASERS  3PCE    CARDED0000001000+00000876+00000+0001T   00000876+0000001651          1400 KI3130               1AZ
100191000100191               100191               170213MM     1400+00000+MM0000005260+0000005260+000000000+000000738+0000005998+0000000000+I40000005998+0000000000+Z
100191001100191204-000059     100191006001023528162MEMO HOLDER APPS 18PC  0000002000+00002630+00000+0001T   00002630+0000001653          1400 KI3300               1AZ
100192000100192               100192               170213MM     1400+00000+MM0000001525+0000001525+000000000+000000214+0000001730+0000000009+I20000000000+0000001730+Z
100192001100192039-000108     100192006001023524034TEA-LITE CANDLES 8PCE  0000001000+00001490+00000+0001T   00001490+0000001653          1400 KI3510               1AZ
100192002100192112-116038     100192006003000534906TCS CARRIER BAG MIDI   0000001000+00000035+00000+0001T   00000035+0000001653          1400 KI3090               1AZ
100193000100193               100193               170213MM     1400+00000+MM0000004385+0000004385+000000000+000000614+0000004999+0000000000+I40000004999+0000000000+Z
100193001100193018-030000     100193006003000421060MUG OCCASIONS LOVE 2PCE0000001000+00004385+00000+0001T   00004385+0000001700          1400 KI3515               1AZ
100194000100194               100194               170213MM     1400+00000+MM0000006139+0000006139+000000000+000000860+0000006990+0000000009+I20000000000+0000006990+Z
100194001100194082-000120-B   100194006001023755865R/GLASS RND FRAME      0000001000+00006139+00000+0001T   00006139+0000001702          1400 KI3160               1CZ
100195000100195               100195               170213MM     1400+00000+MM0000003068+0000003068+000000000+000000430+0000003490+0000000008+I20000000000+0000003490+Z
100195001100195080-000124     100195006003000297733CARD & ENV VALENTINES  0000001000+00001578+00000+0001T   00001578+0000001705          1400 KI3112               1AZ
100195002100195077-000452     100195006003000284986G/BAG METALLIC MED EMB 0000001000+00001490+00000+0001T   00001490+0000001705          1400 KI3112               1AZ
100196000100196               100196               170213MM     1400+00000+MM0000006359+0000006359+000000000+000000893+0000007250+0000000002+I20000000000+0000007250+Z
100196001100196079-009702-G   100196008427973060787PAPER SIRIO A2 FUSHIA  0000001000+00001051+00000+0001T   00001051+0000001708          1400 KI3130               1AZ
100196002100196079-000260     100196006001023886385PAINT TUBS WT BASE 4COL0000001000+00002630+00000+0001T   00002630+0000001708          1400 KI3130               1AZ
100196003100196079-006495     100196006003000159987GLITTER SHAKERS 6PK    0000001000+00002630+00000+0001T   00002630+0000001708          1400 KI3130               1AZ
100196004100196112-116069     100196006009681820277TCS CARRIER BAG JUMBO  0000001000+00000048+00000+0001T   00000048+0000001708          1400 KI3090               1AZ
100197000100197               100197               170213MM     1400+00000+MM0000003812+0000003812+000000000+000000535+0000004340+0000000007+I20000000000+0000004340+Z
100197001100197079-000260     100197006001023886385PAINT TUBS WT BASE 4COL0000001000+00002630+00000+0001T   00002630+0000001709          1400 KI3130               1AZ
100197002100197078-000025     100197008887013700064SUPERGLUE 3g 1PCE CARD 0000001000+00000876+00000+0001T   00000876+0000001709          1400 KI3810               1AZ
100197003100197079-009700-I   100197006003000546114PAPER SIRIO A4 LILAC   0000001000+00000306+00000+0001T   00000306+0000001709          1400 KI3130               1AZ
100198000100198               100198               170213MM     1400+00000+MM0000001664+0000001664+000000000+000000234+0000001890+0000000008+I20000000000+0000001890+Z
100198001100198071-005213     100198006001023690371CELLOTAPE 12mmx33m     0000001000+00000876+00000+0001T   00000876+0000001709          1400 KI3130               1AZ
100198002100198071-081101-A   100198006003000326549GLUE-STICK 25g BLISTER 0000001000+00000788+00000+0001T   00000788+0000001709          1400 KI3130               1AZ
100199000100199               100199               170213MM     1400+00000+MM0000001753+0000001753+000000000+000000246+0000001990+0000000009+I20000000000+0000001990+Z
100199001100199077-000240     100199006003000326259G/RIBBON 4PC PEARLIZED 0000001000+00001753+00000+0001T   00001753+0000001710          1400 KI3112               1AZ
100200000100200               100200               170213MM     1400+00000+MM0000003855+0000003855+000000000+000000542+0000004397+0000000000+I40000004397+0000000000+Z
100200001100200203-008282     100200006003000597703WINE GLS PL 2PC CHAMP. 0000001000+00001753+00000+0001T   00002630+0008171712          1400 KI3300               1AZ
100200002100200039-000026     100200006001023551610C/TAPERED 25CM M/RED   0000002000+00001051+00000+0001T   00001051+0000001712          1400 KI3510               1AZ
100201000100201               100201               170213MM     1400+00000+MM0000003507+0000003507+000000000+000000491+0000000000+0000000000+ 00000000000+0000000000+Z
100201001100201079-000600     100201006003000160990ART-SHEETS FOAM ASSTD-C0000001000+00003507+00000+0001T   00003507+000000              1400 KI31302IC            1 Z
100202000100202               100202               170213MM     1400+00000+MM0000005908+0000005908+000000000+000000829+0000006730+0000000007+I20000000000+0000006730+Z
100202001100202112-116038     100202006003000534906TCS CARRIER BAG MIDI   0000001000+00000035+00000+0001T   00000035+0000001714          1400 KI3090               1AZ
100202002100202079-006494     100202006003000159864GLITTER GLUE 5PCE 11cm 0000001000+00001490+00000+0001T   00001490+0000001714          1400 KI3130               1AZ
100202003100202566-000004     100202006003000062270STICKER BOOK ABC/BORDER0000001000+00002630+00000+0001T   00002630+0000001714          1400 KI3130               1AZ
100202004100202564-000035     100202006003000301836BUBBLE NOVELTY SWORD   0000001000+00001753+00000+0001T   00001753+0000001714          1400 KI3131               1AZ
100203000100203               100203               170213MM     1400+00000+MM0000005700+0000005700+000000000+000000798+0000006498+0000000000+I40000006498+0000000000+Z
100203001100203075-000412     100203006001023855299SHOPPER-BASKET PL      0000001000+00005700+00000+0001T   00005700+0000001716          1400 KI3160               1AZ
100204000100204               100204               170213MM     1400+00000+MM0000005910+0000005910+000000000+000000828+0000006730+0000000008+I20000000000+0000006730+Z
100204001100204001-000175     100204006001023788108B/MUG GLS LOVE 380ML   0000001000+00004385+00000+0001T   00004385+0000001721          1400 KI3515               1AZ
100204002100204077-000452     100204006003000284986G/BAG METALLIC MED EMB 0000001000+00001490+00000+0001T   00001490+0000001721          1400 KI3112               1AZ
100204003100204112-116038     100204006003000534906TCS CARRIER BAG MIDI   0000001000+00000035+00000+0001T   00000035+0000001721          1400 KI3090               1AZ
100205000100205               100205               170213MM     1400+00000+MM0000022850+0000022850+000000000+000003201+0000026051+0000000000+I40000026051+0000000000+Z
100205001100205001-091415     100205006003000329113W/GLS OCC. LOVE 2PC 2800000002000+00008771+00000+0001T   00009648+0006471726          1400 KI3515               1AZ
100205002100205077-000270     100205006003000395453GIFT-BAG PPR JMB 33X45 0000002000+00002630+00000+0001T   00002630+0000001726          1400 KI3112               1AZ
100205003100205112-116069     100205006009681820277TCS CARRIER BAG JUMBO  0000001000+00000048+00000+0001T   00000048+0000001726          1400 KI3090               1AZ
100206000100206               100206               170213MM     1400+00000+MM0000021686+0000021686+000000000+000003038+0000024724+0000000000+I40000024724+0000000000+Z
100206001100206030-000010     100206006003000084395P/DOOR HANGER 2-ASSTD  0000002000+00001314+00000+0001T   00001490+0008181732          1400 KI3505               1AZ
100206002100206006-000166-H   100206006003000608096BALLOONS HELIUM 6PC WHT0000001000+00001314+00000+0001T   00001314+0000001732          1400 KI3131               1AZ
100206003100206018-000130     100206006001023867537MUG OCC LOVE MINI+HEART0000001000+00003507+00000+0001T   00003507+0000001732          1400 KI3515               1AZ
100206004100206304-001011     100206006001023806727FLWR ROSE RED W/BEAR   0000006000+00000613+00000+0001T   00000788+0006471732          1400 KI3510               1AZ
100206005100206301-085002     100206006003000420704ORN OCC. LOVE BELL ASST0000001000+00001753+00000+0001T   00002630+0008121732          1400 KI3505               1AZ
100206006100206112-116038     100206006003000534906TCS CARRIER BAG MIDI   0000001000+00000035+00000+0001T   00000035+0000001732          1400 KI3090               1AZ
100206007100206001-091415     100206006003000329113W/GLS OCC. LOVE 2PC 2800000001000+00008771+00000+0001T   00009648+0006471732          1400 KI3515               1AZ
100207000100207               100207               170213MM     1400+00000+MM0000001402+0000001402+000000000+000000197+0000001590+0000000009+I20000000000+0000001590+Z
100207001100207304-001204     100207006001023737984FLOWER OCC. TEDDY/ROSES0000001000+00001402+00000+0001T   00001490+0006471744          1400 U61510               1AZ
M17021391                              CASH        MMSLAVE 1                       Z-REPORT No.   585TOTAL (Sales - Refunds)           5770.18       CASH TO BE BANKED                 3230.00       DEBIT CARDS                          0.00       CREDIT CARDS                      2540.18       Z-READING                         5770.18       AIRTIME DEBIT CARD SALES             0.00       AIRTIME CARD SALES                   0.00       OVERS/UNDERS                         0.00       AIRTIME CASH SALES                   0.00       GIFT CARDS                           0.00       GIFT CARD CASH SALES                 0.00       T O T A L  CASH PAYOUTS              0.00                                                                                                                                                                                                                                                                                                                                                      Z
M17021392                              CASH        MMABSENT                                                                                                                                                                                          ANNUAL LEAVE                                                                                                                                                                                    DAY OFF                                                                                                                                                                                         COMMENTS                                                                                                                                                                                                                                                                                                                                                                                       Z
Y17021300                                          MM00000000523956+000073
ZMM17021320063 SLAVE 1      SALES DATA                     NEXT INVOICE NO.  100208 0585
X MM Slave 1 First invoice 100132 170213 Last invoice 100207 170213 Next invoice 100208 Total number of records 000000272 clbackup completed 20:06:24
