208808000208808               208808               170213MM     1400+00000+MM0000013817+0000013817+000000000+000001936+0000015753+0000000000+I40000015753+0000000000+Z
208808001208808077-000299     208808006003000395576G/BAG 32x25cm LRG LOVE 0000001000+00001490+00000+0001T   00001490+0000000919          1400 J81112               2DZ
208808002208808368-000111     208808006001023780812PLUSH BEAR/DOG 29CM    0000001000+00012279+00000+0001T   00012279+0000000919          1400 J81745               2DZ
208808003208808112-116069     208808006009681820277TCS CARRIER BAG JUMBO  0000001000+00000048+00000+0001T   00000048+0000000919          1400 J81090               2DZ
208809000208809               208809               170213MM     1400+00000+MM0000000788+0000000788+000000000+000000111+0000000890+0000000009+I20000000000+0000000890+Z
208809001208809077-000010-U   208809006001023168863CREPE-PAPER CERISE-PINK0000001000+00000788+00000+0001T   00000788+0000000919          1400 J81112               2DZ
208810000208810               208810               170213MM     1400+00000+MM0000005120+0000005120+000000000+000000717+0000005830+0000000007+I20000000000+0000005830+Z
208810001208810077-000303     208810006001023593757GIFT-BAG PAPER MED     0000001000+00001578+00000+0001T   00001578+0000000930          1400 J81112               2DZ
208810002208810033-000652     208810006003000364282HAIR BRUSH 24cm ASSTD  0000001000+00003507+00000+0001T   00003507+0000000930          1400 J81200               2DZ
208810003208810112-116038     208810006009681820246TCS CARRIER BAG MIDI   0000001000+00000035+00000+0001T   00000035+0000000930          1400 J81090               2DZ
208811000208811               208811               170213MM     1400+00000+MM0000026700+0000026700+000000000+000003741+0000030440+0000000001+I20000000000+0000030440+Z
208811001208811112-116069     208811006009681820277TCS CARRIER BAG JUMBO  0000001000+00000048+00000+0001T   00000048+0000000936          1400 J81090               2DZ
208811002208811084-000364     208811006001023624581MANICURE-SET 7PCE LTHR 0000001000+00003507+00000+0001T   00003507+0000000936          1400 J81200               2DZ
208811003208811362-001045     208811006001023843449MAKE-UP TEEN GIFT SET  0000001000+00005262+00000+0001T   00005262+0000000936          1400 J81160               2DZ
208811004208811046-002023-C   208811006001023698254BATTERIES ALKALN CARD-50000001000+00005700+00000+0001T   00005700+0000000936          1400 J81312               2DZ
208811005208811033-000780     208811006001023752611COSMETIC-BRUSH-SET 7PCE0000001000+00002192+00000+0001T   00002192+0000000936          1400 J81200               2DZ
208811006208811362-001052     208811006001023915078NAIL TEEN ART SET 5PCE 0000001000+00002630+00000+0001T   00002630+0000000936          1400 J81160               2DZ
208811007208811362-000104     208811006003000451159NAIL STICKERS 16PC     0000002000+00000876+00000+0001T   00001314+0008180936          1400 J81160               2DZ
208811008208811077-000399     208811006003000139514GIFT BAG 18X23CM E/DAY 0000001000+00001490+00000+0001T   00001490+0000000936          1400 J81112               2DZ
208811009208811077-000322     208811006001023677532GIFT-BAG 18X23CM E/D FL0000001000+00001227+00000+0001T   00001227+0000000936          1400 J81112               2DZ
208811010208811077-000926     208811006003000414178G/WRAP 700mmx2m LOVE   0000001000+00002192+00000+0001T   00002192+0000000936          1400 J81112               2DZ
208811011208811903-000070     208811006001704001106SWT TOFFEE CREAMY 35g  0000001000+00000700+00000+0001T   00000700+0000000936          1400 J81150               2DZ
208812000208812               208812               170213MM     1400+00000+MM0000001402+0000001402+000000000+000000197+0000001590+0000000009+I20000000000+0000001590+Z
208812001208812304-001204     208812006001023737984FLOWER OCC. TEDDY/ROSES0000001000+00001402+00000+0001T   00001490+0006470955          1400 J81510               2DZ
208813000208813               208813               170213MM     1400+00000+MM0000004418+0000004418+000000000+000000620+0000005030+0000000008+I20000000000+0000005030+Z
208813001208813159-000117     208813006003000450398SHOWER CAP PVC ASSTD   0000001000+00002630+00000+0001T   00002630+0000000957          1400 J81200               2DZ
208813002208813002-086259     208813006001023722232TOOTHPICK-HOLDER 2-ASST0000001000+00001753+00000+0001T   00001753+0000000957          1400 J81300               2DZ
208813003208813112-116038     208813006009681820246TCS CARRIER BAG MIDI   0000001000+00000035+00000+0001T   00000035+0000000957          1400 J81090               2DZ
208814000208814               208814               170213MM     1400+00000+MM0000003068+0000003068+000000000+000000430+0000003498+0000000000+I40000003498+0000000000+Z
208814001208814106-001100-B   208814006005387194452FRIDGE BOTTLE ASSORTED 0000001000+00001490+00000+0001T   00001490+0000001004          1400 J81210               2DZ
208814002208814106-003115     208814006002689011357ICE CUBE-TRAYS 2PCE WHT0000001000+00001578+00000+0001T   00001578+0000001004          1400 J81210               2DZ
208815000208815               208815               170213MM     1400+00000+MM0000003717+0000003717+000000000+000000521+0000004230+0000000008+I20000000000+0000004230+Z
208815001208815033-006004     208815006001023703316SEWING-KIT IN-POUCH    0000001000+00002192+00000+0001T   00002192+0000001006          1400 J81200               2DZ
208815002208815032-000309     208815006001023477804MIRROR STANDING PL SML 0000001000+00001490+00000+0001T   00001490+0000001006          1400 J81510               2DZ
208815003208815112-116038     208815006009681820246TCS CARRIER BAG MIDI   0000001000+00000035+00000+0001T   00000035+0000001006          1400 J81090               2DZ
208816000208816               208816               170213MM     1400+00000+MM0000018463+0000018463+000000000+000002588+0000021050+0000000001+I20000000000+0000021050+Z
208816001208816112-116069     208816006009681820277TCS CARRIER BAG JUMBO  0000001000+00000048+00000+0001T   00000048+0000001027          1400 J81090               2DZ
208816002208816301-085007     208816006003000673698ORN OCC. LOVE S/PLAQUE 0000001000+00007893+00000+0001T   00007893+0000001027          1400 J81505               2DZ
208816003208816366-002195     208816006001023990549DRESS UP WINGS FEATHER 0000001000+00005262+00000+0001T   00005262+0000001027          1400 J81131               2DZ
208816004208816077-000201     208816006003000152612GIFT-BOX WEDDING PVC   0000002000+00002630+00000+0001T   00002630+0000001027          1400 J81112               2DZ
208817000208817               208817               170213MM     1400+00000+MM0000010524+0000010524+000000000+000001474+0000011998+0000000000+I40000011998+0000000000+Z
208817001208817003-000250     208817006003000035045ORN DECOR NOVELTY GRASS0000001000+00001753+00000+0001T   00001753+0000001127          1400 J81505               2DZ
208817002208817001-091415     208817006003000329113W/GLS OCC. LOVE 2PC 2800000001000+00008771+00000+0001T   00009648+0006471127          1400 J81515               2DZ
208818000208818               208818               170213MM     1400+00000+MM0000002980+0000002980+000000000+000000418+0000003390+0000000008+I20000000000+0000003390+Z
208818001208818077-000299     208818006003000395576G/BAG 32x25cm LRG LOVE 0000001000+00001490+00000+0001T   00001490+0000001129          1400 J81112               2DZ
208818002208818077-000452     208818006003000284986G/BAG METALLIC MED EMB 0000001000+00001490+00000+0001T   00001490+0000001129          1400 J81112               2DZ
208819000208819               208819               170213MM     1400+00000+MM0000027671+0000027671+000000000+000003877+0000031540+0000000008+I20000000000+0000031540+Z
208819001208819112-116069     208819006009681820277TCS CARRIER BAG JUMBO  0000001000+00000048+00000+0001T   00000048+0000001137          1400 J81090               2DZ
208819002208819301-085004     208819006003000420469ORN LOVE PLAQUE 21X10CM0000001000+00003507+00000+0001T   00003946+0006471137          1400 J81505               2DZ
208819003208819018-000136     208819006001023659026MUG OCC LOVE W/PLUSH   0000001000+00003507+00000+0001T   00003507+0000001137          1400 J81515               2DZ
208819004208819301-085007     208819006003000673698ORN OCC. LOVE S/PLAQUE 0000002000+00007893+00000+0001T   00007893+0000001137          1400 J81505               2DZ
208819005208819301-085001     208819006003000297610ORN WATERBALL LOVE ASST0000001000+00004823+00000+0001T   00004823+0000001137          1400 J81505               2DZ
208820000208820               208820               170213MM     1400+00000+MM0000001753+0000001753+000000000+000000246+0000001990+0000000009+I20000000000+0000001990+Z
208820001208820200-003024     208820006001023657299REFUSE BAGS 20PCE BLACK0000001000+00001753+00000+0001T   00001753+0000001139          1400 J81214               2DZ
208821000208821               208821               170213MM     1400+00000+MM0000010345+0000010345+000000000+000001450+0000011790+0000000005+I20000000000+0000011790+Z
208821001208821565-004101     208821006003000548033BALL BOUNCING EGG      0000004000+00001490+00000+0001T   00001490+0000001158          1400 J81745               2DZ
208821002208821082-000120     208821006003000360727READING GLS STRENGTH:3 0000001000+00004385+00000+0001T   00004385+0000001158          1400 J81160               2DZ
208822000208822               208822               170213MM     1400+00000+MM0000005732+0000005732+000000000+000000804+0000006536+0000000000+I40000006536+0000000000+Z
208822001208822077-000302     208822008010410010195GIFT-BAG 18X23CM E/D   0000003000+00000876+00000+0001T   00000876+0000001213          1400 J81112               2DZ
208822002208822089-000220     208822006003000677368KEY CHAIN+PEN+KNIFE    0000001000+00003069+00000+0001T   00003069+0000001213          1400 J81205               2DZ
208822003208822112-116038     208822006009681820246TCS CARRIER BAG MIDI   0000001000+00000035+00000+0001T   00000035+0000001213          1400 J81090               2DZ
208823000208823               208823               170213MM     1400+00000+MM0000002630+0000002630+000000000+000000369+0000002990+0000000009+I20000000000+0000002990+Z
208823001208823077-000270     208823006003000395453GIFT-BAG PPR JMB 33X45 0000001000+00002630+00000+0001T   00002630+0000001216          1400 J81112               2DZ
208824000208824               208824               170213MM     1400+00000+MM0000005775+0000005775+000000000+000000810+0000006580+0000000005+I20000000000+0000006580+Z
208824001208824362-003000     208824006003000295258GIRL HEART NOTEBOOK    0000001000+00001753+00000+0001T   00002630+0008191218          1400 J81160               2DZ
208824002208824301-085008     208824006003000673933ORN OCC.LOVE TINSEL HRT0000001000+00003069+00000+0001T   00003069+0000001218          1400 J81505               2DZ
208824003208824079-009700-B   208824006003000547661PAPER SIRIO A4 WHITE   0000003000+00000306+00000+0001T   00000306+0000001218          1400 J81130               2DZ
208824004208824112-116038     208824006009681820246TCS CARRIER BAG MIDI   0000001000+00000035+00000+0001T   00000035+0000001218          1400 J81090               2DZ
208825000208825               208825               170213MM     1400+00000+MM0000005871+0000005871+000000000+000000824+0000006690+0000000005+I20000000000+0000006690+Z
208825001208825047-000153     208825006001023596475SOCKET-PROTECTORS 4PCE 0000002000+00001402+00000+0001T   00001402+0000001241          1400 J81880               2DZ
208825002208825903-000211     208825006002099001238SWT GS MALLOW ICE CREAM0000001000+00001753+00000+0001T   00001753+0000001241          1400 J81150               2DZ
208825003208825903-005001     208825006002580020014SWT CT MALLOW MICE 120g0000001000+00001314+00000+0001T   00001314+0000001241          1400 J81150               2DZ
208826000208826               208826               170213MM     1400+00000+MM0000010559+0000010559+000000000+000001479+0000012038+0000000000+I40000012038+0000000000+Z
208826001208826001-091415     208826006003000329113W/GLS OCC. LOVE 2PC 2800000001000+00008771+00000+0001T   00009648+0006471247          1400 J81515               2DZ
208826002208826089-000030     208826006003000575671K/CHAIN LOVE MTL ASSTD 0000001000+00001753+00000+0001T   00001753+0000001247          1400 J81205               2DZ
208826003208826112-116038     208826006009681820246TCS CARRIER BAG MIDI   0000001000+00000035+00000+0001T   00000035+0000001247          1400 J81090               2DZ
208827000208827               208827               170213MM     1400+00000+MM0000006174+0000006174+000000000+000000865+0000007039+0000000000+I40000007039+0000000000+Z
208827001208827018-050000     208827006003000412679MUG OCC LOVE TWIN BEAR 0000001000+00006139+00000+0001T   00006139+0000001249          1400 J81515               2DZ
208827002208827112-116038     208827006009681820246TCS CARRIER BAG MIDI   0000001000+00000035+00000+0001T   00000035+0000001249          1400 J81090               2DZ
208828000208828               208828               170213MM     1400+00000+MM0000015395+0000015395+000000000+000002157+0000017552+0000000000+I40000017552+0000000000+Z
208828001208828112-116069     208828006009681820277TCS CARRIER BAG JUMBO  0000001000+00000048+00000+0001T   00000048+0000001306          1400 J81090               2DZ
208828002208828080-000127     208828006003000424351VALENTINES DAY 36x24CM 0000001000+00002192+00000+0001T   00002192+0000001306          1400 J81112               2DZ
208828003208828077-000299-A   208828006003000670888GIFT-BAG PAPER JMB LOVE0000001000+00001753+00000+0001T   00001753+0000001306          1400 J81112               2DZ
208828004208828368-000637     208828006001023874092PLUSH BEAR SLEEPING LOV0000001000+00011402+00000+0001T   00012279+0006471306          1400 J81745               2DZ
208829000208829               208829               170213MM     1400+00000+MM0000005699+0000005699+000000000+000000799+0000006490+0000000008+I20000000000+0000006490+Z
208829001208829089-060027     208829006003000245871KEY-CHAIN HEART 6X6cm  0000001000+00003069+00000+0001T   00003069+0000001306          1400 J81205               2DZ
208829002208829077-000005-B   208829006003000326617PAPER TISSUE PATTERN   0000001000+00002630+00000+0001T   00002630+0000001306          1400 J81112               2DZ
208830000208830               208830               170213MM     1400+00000+MM0000000876+0000000876+000000000+000000123+0000000990+0000000009+I20000000000+0000000990+Z
208830001208830903-000482     208830006001704001397SWT SOFT-MINTS 60G     0000001000+00000876+00000+0001T   00000876+0000001308          1400 J81150               2DZ
208831000208831               208831               170213MM     1400+00000+MM0000017569+0000017569+000000000+000002461+0000020030+0000000000+I40000020030+0000000000+Z
208831001208831112-116038     208831006009681820246TCS CARRIER BAG MIDI   0000001000+00000035+00000+0001T   00000035+0000001334          1400 U61090               2AZ
208831002208831018-005009     208831006001023725608MUG W/PLUSH-BEAR LOVE  0000004000+00003507+00000+0001T   00003507+0000001334          1400 U61515               2AZ
208831003208831200-003026     208831006003000276448REFUSE BAGS 10PCE GREEN0000002000+00001753+00000+0001T   00001753+0000001334          1400 U61214               2AZ
208832000208832               208832               170213MM     1400+00000+MM0000003278+0000003278+000000000+000000460+0000003730+0000000008+I20000000000+0000003730+Z
208832001208832088-000084     208832006001023798060P/POURRI 120G ASSTD    0000001000+00001753+00000+0001T   00001753+0000001342          1400 U61212               2AZ
208832002208832565-004101     208832006003000548033BALL BOUNCING EGG      0000001000+00001490+00000+0001T   00001490+0000001342          1400 U61745               2AZ
208832003208832112-116038     208832006009681820246TCS CARRIER BAG MIDI   0000001000+00000035+00000+0001T   00000035+0000001342          1400 U61090               2AZ
208833000208833               208833               170213MM     1400+00000+MM0000000876+0000000876+000000000+000000123+0000000990+0000000009+I20000000000+0000000990+Z
208833001208833039-000319-2   208833006003000442508B/CANDLES LRG NUMBER-2 0000001000+00000876+00000+0001T   00000876+0000001351          1400 U61510               2AZ
208834000208834               208834               170213MM     1400+00000+MM0000013635+0000013635+000000000+000001912+0000015540+0000000007+I20000000000+0000015540+Z
208834001208834112-116069     208834006009681820277TCS CARRIER BAG JUMBO  0000001000+00000048+00000+0001T   00000048+0000001358          1400 U61090               2AZ
208834002208834006-000789     208834006001023148612CROWN BOY              0000002000+00002192+00000+0001T   00002192+0000001358          1400 U61131               2AZ
208834003208834565-000889     208834006003000626953NOVELTY SPACE BALLOONS 0000001000+00001753+00000+0001T   00001753+0000001358          1400 U61745               2AZ
208834004208834567-011401     208834009781453000571BK COLOURING BABY ANIMA0000001000+00001314+00000+0001T   00001314+0000001358          1400 U61757               2AZ
208834005208834566-001118     208834006003000682171STICKERS CELL PHONE    0000001000+00001753+00000+0001T   00001753+0000001358          1400 U61130               2AZ
208834006208834079-006495     208834006003000159987GLITTER SHAKERS 6PK    0000001000+00002630+00000+0001T   00002630+0000001358          1400 U61130               2AZ
208834007208834903-000926     208834006914204004556SWT NOVELTY ST N/LACE  0000001000+00001753+00000+0001T   00001753+0000001358          1400 U61150               2AZ
208835000208835               208835               170213MM     1400+00000+MM0000000876+0000000876+000000000+000000123+0000000990+0000000009+I20000000000+0000000990+Z
208835001208835071-003003     208835006003000144525PEN BALL PEN 3PCE BLACK0000001000+00000876+00000+0001T   00000876+0000001400          1400 U61130               2AZ
208836000208836               208836               170213MM     1400+00000+MM0000038094+0000038094+000000000+000005342+0000043436+0000000000+I40000043436+0000000000+Z
208836001208836112-116069     208836006009681820277TCS CARRIER BAG JUMBO  0000001000+00000048+00000+0001T   00000048+0000001409          1400 U61090               2AZ
208836002208836088-000084     208836006001023798060P/POURRI 120G ASSTD    0000002000+00001753+00000+0001T   00001753+0000001409          1400 U61212               2AZ
208836003208836903-000517     208836006001704012768SWT STRAWS FIZZY CHERRY0000001000+00001227+00000+0001T   00001227+0000001409          1400 U61150               2AZ
208836004208836903-000111     208836006001704006378SWT LIQUORICE-TWISTS   0000001000+00001227+00000+0001T   00001227+0000001409          1400 U61150               2AZ
208836005208836903-004951     208836006002580020328SWT MALLOW MINI M/SHAKE0000001000+00001227+00000+0001T   00001227+0000001409          1400 U61150               2AZ
208836006208836903-000710     208836006002099007056SWT REFRESHERS MINT    0000001000+00001139+00000+0001T   00001139+0000001409          1400 U61150               2AZ
208836007208836903-000095     208836006001704011495SWT SPECKLED-EGGS 100G 0000001000+00002104+00000+0001T   00002104+0000001409          1400 U61150               2AZ
208836008208836206-000150     208836006003000628667SLICER CUCUMBER        0000001000+00002192+00000+0001T   00002192+0000001409          1400 U61321               2AZ
208836009208836039-082852     208836006008766082852C/SET 4PC MINI PILLARS 0000002000+00005262+00000+0001T   00005262+0000001409          1400 U61510               2AZ
208836010208836903-000861     208836005010478430822SWT LOVE HEARTS SML    0000001000+00000876+00000+0001T   00000876+0000001409          1400 U61150               2AZ
208836011208836040-000170     208836006001023774613C/HOLDER GLASS CUP 6CM 0000004000+00002630+00000+0001T   00002630+0000001409          1400 U61510               2AZ
208836012208836040-000209     208836006003000673872C/HOLDER GLS CLEAR 6.5 0000004000+00000876+00000+0001T   00000876+0000001409          1400 U61510               2AZ
208837000208837               208837               170213MM     1400+00000+MM0000007012+0000007012+000000000+000000984+0000007990+0000000006+I20000000000+0000007990+Z
208837001208837158-000005     208837006001023594839CELLPHONE STAND 10.5cm 0000004000+00001753+00000+0001T   00002630+0008171409          1400 U61300               2AZ
208838000208838               208838               170213MM     1400+00000+MM0000014673+0000014673+000000000+000002057+0000016730+0000000000+I40000016730+0000000000+Z
208838001208838031-007005     208838006003000465989P/FRM WDN GREY-STRESS  0000001000+00005700+00000+0001T   00005700+0000001412          1400 U61510               2AZ
208838002208838563-000318-L   208838006003000407088SERVIETTES 33cm RED    0000001000+00002192+00000+0001T   00002192+0000001412          1400 U61214               2AZ
208838003208838039-000021     208838006003000285907C/TAPERED 25CM M/SILVER0000001000+00001051+00000+0001T   00001051+0000001412          1400 U61510               2AZ
208838004208838039-000026     208838006001023551610C/TAPERED 25CM M/RED   0000001000+00001051+00000+0001T   00001051+0000001412          1400 U61510               2AZ
208838005208838077-000312     208838006001023608697GIFT-BAG 10X35CM GLOSS 0000001000+00001314+00000+0001T   00001314+0000001412          1400 U61112               2AZ
208838006208838077-000011-B   208838006003000682904PAPER TISSUE 50x66cm   0000001000+00000876+00000+0001T   00000876+0000001412          1400 U61112               2AZ
208838007208838040-000213     208838006001023617736CANDLE-HOLDER DAISY    0000002000+00001227+00000+0001T   00001227+0000001412          1400 U61510               2AZ
208838008208838112-116038     208838006009681820246TCS CARRIER BAG MIDI   0000001000+00000035+00000+0001T   00000035+0000001412          1400 U61090               2AZ
208839000208839               208839               170213MM     1400+00000+MM0000005996+0000005996+000000000+000000841+0000006830+0000000007+I20000000000+0000006830+Z
208839001208839024-000018     208839006001023610232CAKE-DEC S/S NOZZLE    0000001000+00003946+00000+0001T   00003946+0000001413          1400 U61300               2AZ
208839002208839903-000123     208839006925925909280SWEET GS MINI MALLOWS  0000001000+00000876+00000+0001T   00000876+0000001413          1400 U61150               2AZ
208839003208839027-078343     208839006008766078343SCRUB-BRUSH IRON-SHAPE 0000001000+00001139+00000+0001T   00001578+0008191413          1400 U61212               2AZ
208839004208839112-116038     208839006009681820246TCS CARRIER BAG MIDI   0000001000+00000035+00000+0001T   00000035+0000001413          1400 U61090               2AZ
208840000208840               208840               170213MM     1400+00000+MM0000004385+0000004385+000000000+000000614+0000004999+0000000000+I40000004999+0000000000+Z
208840001208840206-000160     208840006003000628780CORN KERNELER          0000001000+00004385+00000+0001T   00004385+0000001417          1400 U61321               2AZ
208841000208841               208841               170213MM     1400+00000+MM0000008593+0000008593+000000000+000001206+0000009799+0000000000+I40000009799+0000000000+Z
208841001208841006-000800     208841006001023902801HAT CABARET 14x18cm    0000002000+00001753+00000+0001T   00001753+0000001421          1400 J81131               2DZ
208841002208841566-000362     208841006003000583065STICKER LETTER & NUMBER0000001000+00001753+00000+0001T   00001753+0000001421          1400 J81130               2DZ
208841003208841079-006500     208841006001023557186GLUE GLITTER 6/10 PCE  0000001000+00001753+00000+0001T   00001753+0000001421          1400 J81130               2DZ
208841004208841079-009700-B   208841006003000547661PAPER SIRIO A4 WHITE   0000001000+00000306+00000+0001T   00000306+0000001421          1400 J81130               2DZ
208841005208841077-000245     208841006001023759214GIFT-RIBBON METALLICx2 0000001000+00001227+00000+0001T   00001227+0000001421          1400 J81112               2DZ
208841006208841112-116069     208841006009681820277TCS CARRIER BAG JUMBO  0000001000+00000048+00000+0001T   00000048+0000001421          1400 J81090               2DZ
208842000208842               208842               170213MM     1400+00000+MM0000000876+0000000876+000000000+000000123+0000000990+0000000009+I20000000000+0000000990+Z
208842001208842077-000011-C   208842006001023808523TISSUE 10xSHTS RED     0000001000+00000876+00000+0001T   00000876+0000001421          1400 J81112               2DZ
208843000208843               208843               170213MM     1400+00000+MM0000000437+0000000437+000000000+000000062+0000000490+0000000009+I20000000000+0000000490+Z
208843001208843080-000133     208843006003000535613CARD&ENV MINI ASTD DSGN0000001000+00000437+00000+0001T   00000437+0000001423          1400 J81112               2DZ
208844000208844               208844               170213MM     1400+00000+MM0000003554+0000003554+000000000+000000499+0000004050+0000000003+I20000000000+0000004050+Z
208844001208844077-000289     208844006001023901996GIFT BOX 20x25x11cm    0000002000+00001753+00000+0001T   00001753+0000001424          1400 J81112               2DZ
208844002208844112-116069     208844006009681820277TCS CARRIER BAG JUMBO  0000001000+00000048+00000+0001T   00000048+0000001424          1400 J81090               2DZ
208845000208845               208845               170213MM     1400+00000+MM0000005297+0000005297+000000000+000000742+0000006030+0000000009+I20000000000+0000006030+Z
208845001208845031-006541     208845006001023695062P/FRAME COLLAGE PL ASST0000001000+00005262+00000+0001T   00005262+0000001428          1400 U61510               2AZ
208845002208845112-116038     208845006009681820246TCS CARRIER BAG MIDI   0000001000+00000035+00000+0001T   00000035+0000001428          1400 U61090               2AZ
208846000208846               208846               170213MM     1400+00000+MM0000007925+0000007925+000000000+000001111+0000009036+0000000000+I40000009036+0000000000+Z
208846001208846007-000534     208846006001023847836NOTE-BOOK H/C ASSTD    0000001000+00002630+00000+0001T   00002630+0000001437          1400 J81130               2DZ
208846002208846007-000589     208846006001023810120NOTES DIARY+KEY 50PG   0000001000+00003507+00000+0001T   00003507+0000001437          1400 J81130               2DZ
208846003208846007-000551     208846006001023848079NOTE-PAD SHOP-LIST ASST0000001000+00001753+00000+0001T   00001753+0000001437          1400 J81130               2DZ
208846004208846112-116038     208846006009681820246TCS CARRIER BAG MIDI   0000001000+00000035+00000+0001T   00000035+0000001437          1400 J81090               2DZ
208847000208847               208847               170213MM     1400+00000+MM0000010132+0000010132+000000000+000001420+0000011550+0000000002+I20000000000+0000011550+Z
208847001208847112-116069     208847006009681820277TCS CARRIER BAG JUMBO  0000001000+00000048+00000+0001T   00000048+0000001438          1400 J81090               2DZ
208847002208847104-000053     208847006003000011193BASKET PL 25X32X6cm    0000001000+00004385+00000+0001T   00004385+0000001438          1400 J81210               2DZ
208847003208847080-000133     208847006003000535613CARD&ENV MINI ASTD DSGN0000001000+00000437+00000+0001T   00000437+0000001438          1400 J81112               2DZ
208847004208847018-019000     208847006003000557288MUG OCC. LOVE JUMBO    0000001000+00005262+00000+0001T   00005262+0000001438          1400 J81515               2DZ
208848000208848               208848               170213MM     1400+00000+MM0000004385+0000004385+000000000+000000614+0000004999+0000000000+I40000004999+0000000000+Z
208848001208848206-000180     208848006003000631223TEA INFUSER TEAMAN     0000001000+00004385+00000+0001T   00004385+0000001442          1400 J81321               2AZ
208849000208849               208849               170213MM     1400+00000+MM0000019343+0000019343+000000000+000002710+0000022053+0000000000+I40000022053+0000000000+Z
208849001208849030-004060     208849006003000658855PLAQUE WOODEN SIGN     0000001000+00012279+00000+0001T   00012279+0000001447          1400 J81505               2DZ
208849002208849015-002070     208849006001023893932BOWL S/STEEL SALAD 30cm0000001000+00007016+00000+0001T   00007016+0000001447          1400 J81515               2DZ
208849003208849112-116069     208849006009681820277TCS CARRIER BAG JUMBO  0000001000+00000048+00000+0001T   00000048+0000001447          1400 J81090               2DZ
208850000208850               208850               170213MM     1400+00000+MM0000014079+0000014079+000000000+000001972+0000016051+0000000000+I40000016051+0000000000+Z
208850001208850080-000127     208850006003000424351VALENTINES DAY 36x24CM 0000001000+00002192+00000+0001T   00002192+0000001452          1400 J81112               2DZ
208850002208850080-000124     208850006003000297733CARD & ENV VALENTINES  0000001000+00001578+00000+0001T   00001578+0000001452          1400 J81112               2DZ
208850003208850077-000299     208850006003000395576G/BAG 32x25cm LRG LOVE 0000001000+00001490+00000+0001T   00001490+0000001452          1400 J81112               2DZ
208850004208850001-091415     208850006003000329113W/GLS OCC. LOVE 2PC 2800000001000+00008771+00000+0001T   00009648+0006471452          1400 J81515               2DZ
208850005208850112-116069     208850006009681820277TCS CARRIER BAG JUMBO  0000001000+00000048+00000+0001T   00000048+0000001452          1400 J81090               2DZ
208851000208851               208851               170213MM     1400+00000+MM0000005120+0000005120+000000000+000000717+0000005830+0000000007+I20000000000+0000005830+Z
208851001208851018-005009     208851006001023725608MUG W/PLUSH-BEAR LOVE  0000001000+00003507+00000+0001T   00003507+0000001454          1400 J81515               2DZ
208851002208851018-000127     208851006001023380289MUG OCC STRAIGHT LOVE  0000001000+00001578+00000+0001T   00001753+0006471454          1400 J81515               2DZ
208851003208851112-116038     208851006009681820246TCS CARRIER BAG MIDI   0000001000+00000035+00000+0001T   00000035+0000001454          1400 J81090               2DZ
208852000208852               208852               170213MM     1400+00000+MM0000014076+0000014076+000000000+000001974+0000016050+0000000000+I20000000000+0000016050+Z
208852001208852112-116069     208852006009681820277TCS CARRIER BAG JUMBO  0000001000+00000048+00000+0001T   00000048+0000001455          1400 J81090               2DZ
208852002208852056-080200     208852006003000625420CAR BOOT MAT ANTISLIP  0000001000+00005262+00000+0001T   00005262+0000001455          1400 J81860               2DZ
208852003208852076-000750     208852006003000423347CORD STRETCH 2-CLAW    0000001000+00002630+00000+0001T   00002630+0000001455          1400 J81810               2DZ
208852004208852072-020300     208852006008632000430DOG-TOY TUG-A-BALL SML 0000001000+00002630+00000+0001T   00002630+0000001455          1400 J81870               2DZ
208852005208852903-000215     208852006002099001214SWT GS MALLOW TWIST PAC0000002000+00001753+00000+0001T   00001753+0000001455          1400 J81150               2DZ
208853000208853               208853               170213MM     1400+00000+MM0000002630+0000002630+000000000+000000369+0000002990+0000000009+I20000000000+0000002990+Z
208853001208853206-000600     208853006003000631551TOILET PAPER SUDUKO    0000001000+00002630+00000+0001T   00002630+0000001456          1400 J81321               2BZ
208854000208854               208854               170213MM     1400+00000+MM0000002630+0000002630+000000000+000000369+0000002990+0000000009+I20000000000+0000002990+Z
208854001208854077-000270     208854006003000395453GIFT-BAG PPR JMB 33X45 0000001000+00002630+00000+0001T   00002630+0000001456          1400 J81112               2DZ
208855000208855               208855               170213MM     1400+00000+MM0000007893+0000007893+000000000+000001106+0000008999+0000000000+I40000008999+0000000000+Z
208855001208855007-010504     208855006002923014960BLACKBOARD EASEL       0000001000+00007893+00000+0001T   00007893+0000001458          1400 J81130               2DZ
208856000208856               208856               170213MM     1400+00000+MM0000004994+0000004994+000000000+000000700+0000005694+0000000000+I40000005694+0000000000+Z
208856001208856006-000166-D   208856006003000516490BALLOONS LRG 6PC RED   0000001000+00001314+00000+0001T   00001314+0000001501          1400 J81131               2DZ
208856002208856006-000167-C   208856006003000516971BALLOONS PINK METALLIC 0000001000+00001314+00000+0001T   00001314+0000001501          1400 J81131               2DZ
208856003208856077-000245     208856006001023759214GIFT-RIBBON METALLICx2 0000001000+00001227+00000+0001T   00001227+0000001501          1400 J81112               2DZ
208856004208856903-000087     208856006001704000161SWT SPECKLED-EGGS 50G  0000001000+00001139+00000+0001T   00001139+0000001501          1400 J81150               2DZ
208857000208857               208857               170213MM     1400+00000+MM0000013817+0000013817+000000000+000001936+0000015750+0000000003+I20000000000+0000015750+Z
208857001208857077-000299     208857006003000395576G/BAG 32x25cm LRG LOVE 0000001000+00001490+00000+0001T   00001490+0000001502          1400 J81112               2DZ
208857002208857368-000111     208857006001023780812PLUSH BEAR/DOG 29CM    0000001000+00012279+00000+0001T   00012279+0000001502          1400 J81745               2DZ
208857003208857112-116069     208857006009681820277TCS CARRIER BAG JUMBO  0000001000+00000048+00000+0001T   00000048+0000001502          1400 J81090               2DZ
208858000208858               208858               170213MM     1400+00000+MM0000011953+0000011953+000000000+000001678+0000013631+0000000000+I40000013631+0000000000+Z
208858001208858564-000011     208858006001023865892BUBBLE REFILL 350ml    0000002000+00002630+00000+0001T   00002630+0000001526          1400 J81131               2DZ
208858002208858162-093351     208858006001492933511#TAG PASTEL COTTON ER  0000001000+00002630+00000+0001T   00004385+0008161526          1400 J81160               2DZ
208858003208858162-094331     208858006001492943312#TAG HOT DEAL ER SETS 20000001000+00000876+00000+0001T   00001753+0008161526          1400 J81160               2DZ
208858004208858903-000920     208858000041396002155SWT CANDY STICK/TATT   0000001000+00000700+00000+0001T   00000700+0000001526          1400 J81150               2DZ
208858005208858903-000861     208858005010478430822SWT LOVE HEARTS SML    0000001000+00000876+00000+0001T   00000876+0000001526          1400 J81150               2DZ
208858006208858903-000892     208858008693029700420SWT NOVELTY CHOCO CREAM0000002000+00000788+00000+0001T   00000788+0000001526          1400 J81150               2DZ
208858007208858112-116038     208858006009681820246TCS CARRIER BAG MIDI   0000001000+00000035+00000+0001T   00000035+0000001526          1400 J81090               2DZ
208859000208859               208859               170213MM     1400+00000+MM0000018464+0000018464+000000000+000002587+0000000000+0000000000+ 00000000000+0000000000+Z
208859001208859263-000562     208859006001023827951TRUCK FRIC FIRE-ENGINE 0000001000+00005262+00000+0001T   00005262+000000              1400 J817102IC            2 Z
208859002208859361-003002     208859006003000302734DOLL 11cm W/DRESSES    0000001000+00005262+00000+0001T   00005262+000000              1400 J817252IC            2 Z
208859003208859112-116069     208859006009681820277TCS CARRIER BAG JUMBO  0000001000+00000048+00000+0001T   00000048+000000              1400 J810902IC            2 Z
208859004208859006-000850     208859006009645926649PARTY LUCKY-PACKET GIRL0000001000+00003946+00000+0001T   00003946+000000              1400 J811312IC            2 Z
208859005208859006-000851     208859006007151000273PARTY LUCKY-PACKET BOY 0000001000+00003946+00000+0001T   00003946+000000              1400 J811312IC            2 Z
208860000208860               208860               170213MM     1400+00000+MM0000010572+0000010572+000000000+000001481+0000012053+0000000000+I40000012053+0000000000+Z
208860001208860112-116069     208860006009681820277TCS CARRIER BAG JUMBO  0000001000+00000048+00000+0001T   00000048+0000001534          1400 J81090               2DZ
208860002208860263-000562     208860006001023827951TRUCK FRIC FIRE-ENGINE 0000001000+00005262+00000+0001T   00005262+0000001534          1400 J81710               2DZ
208860003208860361-003002     208860006003000302734DOLL 11cm W/DRESSES    0000001000+00005262+00000+0001T   00005262+0000001534          1400 J81725               2DZ
208861000208861               208861               170213MM     1400+00000+MM0000007454+0000007454+000000000+000001044+0000008490+0000000008+I20000000000+0000008490+Z
208861001208861567-010161     208861009780000008516BOOK TOP ASSTD MILLS   0000001000+00005262+00000+0001T   00005262+0000001536          1400 J81757               2DZ
208861002208861024-091103     208861006003453014307BAKING-CUP MUFFIN 50PCE0000001000+00002192+00000+0001T   00002192+0000001536          1400 J81300               2DZ
208862000208862               208862               170213MM     1400+00000+MM0000019782+0000019782+000000000+000002770+0000022552+0000000000+I40000022552+0000000000+Z
208862001208862368-000161     208862006003000167760PLUSH BEAR BABY ASSTD  0000001000+00017542+00000+0001T   00017542+0000001546          1400 J81745               2DZ
208862002208862080-000127     208862006003000424351VALENTINES DAY 36x24CM 0000001000+00002192+00000+0001T   00002192+0000001546          1400 J81112               2DZ
208862003208862112-116069     208862006009681820277TCS CARRIER BAG JUMBO  0000001000+00000048+00000+0001T   00000048+0000001546          1400 J81090               2DZ
208863000208863               208863               170213MM     1400+00000+MM0000016777+0000016777+000000000+000002352+0000019129+0000000000+I40000019129+0000000000+Z
208863001208863267-000311     208863006003000610730PUZZLE WOOD TRAY ASSTD 0000001000+00003507+00000+0001T   00003507+0000001604          1400 J81755               2DZ
208863002208863007-000325     208863006009698066514PAPER A4 160GSM 25SHTS 0000001000+00003507+00000+0001T   00003507+0000001604          1400 J81130               2DZ
208863003208863077-000407     208863006003000145096G/BAG PP 19X26X8CM     0000001000+00001314+00000+0001T   00001314+0000001604          1400 J81112               2DZ
208863004208863566-002009     208863000721129023939STICKERS CRYSTAL  ASSTD0000001000+00000876+00000+0001T   00000876+0000001604          1400 J81130               2DZ
208863005208863566-002004     208863006001023672421STICKERS CRYSTAL SHAPES0000001000+00001753+00000+0001T   00001753+0000001604          1400 J81130               2DZ
208863006208863566-001501     208863006003000658398STICKER PAPER EMOTION  0000001000+00001753+00000+0001T   00001753+0000001604          1400 J81130               2DZ
208863007208863018-000134     208863006001023606105MUG DAILY ANIMALS 4-ASS0000001000+00001753+00000+0001T   00001753+0000001604          1400 J81515               2DZ
208863008208863027-000194     208863006001246602472MOP COMPLETE           0000001000+00002279+00000+0001T   00002279+0000001604          1400 J81212               2DZ
208863009208863112-116038     208863006009681820246TCS CARRIER BAG MIDI   0000001000+00000035+00000+0001T   00000035+0000001604          1400 J81090               2DZ
208864000208864               208864               170213MM     1400+00000+MM0000005787+0000005787+000000000+000000811+0000006598+0000000000+I40000006598+0000000000+Z
208864001208864368-000049     208864006003000536955PLUSH BEAR 15cm LOVE   0000001000+00004385+00000+0001T   00004385+0000001636          1400 J81745               2DZ
208864002208864304-001204     208864006001023737984FLOWER OCC. TEDDY/ROSES0000001000+00001402+00000+0001T   00001490+0006471636          1400 J81510               2DZ
208865000208865               208865               170213MM     1400+00000+MM0000002630+0000002630+000000000+000000369+0000002990+0000000009+I20000000000+0000002990+Z
208865001208865007-000049     208865006003000274994OFFICE E/LOPE A4 PK 5  0000001000+00002630+00000+0001T   00002630+0000001637          1400 J81130               2DZ
208866000208866               208866               170213MM     1400+00000+MM0000012326+0000012326+000000000+000001727+0000014050+0000000003+I20000000000+0000014050+Z
208866001208866018-005007     208866006003000515516MUG OCC. LOVE W/HEARTS 0000002000+00006139+00000+0001T   00006139+0000001652          1400 J81515               2DZ
208866002208866112-116069     208866006009681820277TCS CARRIER BAG JUMBO  0000001000+00000048+00000+0001T   00000048+0000001652          1400 J81090               2DZ
208867000208867               208867               170213MM     1400+00000+MM0000008366+0000008366+000000000+000001172+0000009538+0000000000+I40000009538+0000000000+Z
208867001208867018-050000     208867006003000412679MUG OCC LOVE TWIN BEAR 0000001000+00006139+00000+0001T   00006139+0000001656          1400 J81515               2DZ
208867002208867018-000170     208867006001023775528MUG OCC. LOVE 2PC MINI 0000001000+00002192+00000+0001T   00002192+0000001656          1400 J81515               2DZ
208867003208867112-116038     208867006009681820246TCS CARRIER BAG MIDI   0000001000+00000035+00000+0001T   00000035+0000001656          1400 J81090               2DZ
208868000208868               208868               170213MM     1400+00000+MM0000005032+0000005032+000000000+000000705+0000005730+0000000007+I20000000000+0000005730+Z
208868001208868077-000452     208868006003000284986G/BAG METALLIC MED EMB 0000001000+00001490+00000+0001T   00001490+0000001712          1400 J81112               2DZ
208868002208868018-005009     208868006001023725608MUG W/PLUSH-BEAR LOVE  0000001000+00003507+00000+0001T   00003507+0000001712          1400 J81515               2DZ
208868003208868112-116038     208868006009681820246TCS CARRIER BAG MIDI   0000001000+00000035+00000+0001T   00000035+0000001712          1400 J81090               2DZ
208869000208869               208869               170213MM     1400+00000+MM0000003504+0000003504+000000000+000000492+0000003990+0000000006+I20000000000+0000003990+Z
208869001208869077-000452     208869006003000284986G/BAG METALLIC MED EMB 0000001000+00001490+00000+0001T   00001490+0000001714          1400 J81112               2DZ
208869002208869903-000521     208869006001704009652SWT GUMMY SOFT GUMS    0000002000+00000876+00000+0001T   00000876+0000001714          1400 J81150               2DZ
208869003208869903-000216     208869006925925900966SWT MALLOW TWIST ERKO  0000001000+00000262+00000+0001T   00000262+0000001714          1400 J81150               2DZ
208870000208870               208870               170213MM     1400+00000+MM0000001801+0000001801+000000000+000000253+0000002050+0000000004+I20000000000+0000002050+Z
208870001208870077-000299-A   208870006003000670888GIFT-BAG PAPER JMB LOVE0000001000+00001753+00000+0001T   00001753+0000001716          1400 J81112               2DZ
208870002208870112-116069     208870006009681820277TCS CARRIER BAG JUMBO  0000001000+00000048+00000+0001T   00000048+0000001716          1400 J81090               2DZ
208871000208871               208871               170213MM     1400+00000+MM0000003064+0000003064+000000000+000000431+0000003495+0000000000+I40000003495+0000000000+Z
208871001208871077-000309-A   208871006003000671007GIFT-BAG HOLOGRAM JMB  0000001000+00002192+00000+0001T   00002192+0000001718          1400 J81112               2DZ
208871002208871006-000171-H   208871006003000609574BALLOONS 1PC RED PRINT 0000004000+00000218+00000+0001T   00000218+0000001718          1400 J81131               2DZ
208872000208872               208872               170213MM     1400+00000+MM0000007049+0000007049+000000000+000000987+0000008030+0000000006+I20000000000+0000008030+Z
208872001208872018-000136     208872006001023659026MUG OCC LOVE W/PLUSH   0000001000+00003507+00000+0001T   00003507+0000001723          1400 J81515               2AZ
208872002208872018-005009     208872006001023725608MUG W/PLUSH-BEAR LOVE  0000001000+00003507+00000+0001T   00003507+0000001723          1400 J81515               2AZ
208872003208872112-116038     208872006009681820246TCS CARRIER BAG MIDI   0000001000+00000035+00000+0001T   00000035+0000001723          1400 J81090               2AZ
208873000208873               208873               170213MM     1400+00000+MM0000008760+0000008760+000000000+000001230+0000009990+0000000000+I20000000000+0000009990+Z
208873001208873001-000167     208873006001023679659TUMBLER 340ml WILLY    0000010000+00000876+00000+0001T   00000876+0000001729          1400 J81515               2AZ
208874000208874               208874               170213MM     1400+00000+MM0000002630+0000002630+000000000+000000369+0000002999+0000000000+I40000002999+0000000000+Z
208874001208874366-000292     208874006001023828958HEADBAND COL-FEATHERS  0000001000+00002630+00000+0001T   00002630+0000001730          1400 J81131               2DZ
208875000208875               208875               170213MM     1400+00000+MM0000006170+0000006170+000000000+000000864+0000007030+0000000004+I20000000000+0000007030+Z
208875001208875031-005853     208875006003000442416P/FRAME WDN TWIN HEARTS0000001000+00003507+00000+0001T   00003507+0000001731          1400 J81510               2DZ
208875002208875030-000010     208875006003000084395P/DOOR HANGER 2-ASSTD  0000001000+00001314+00000+0001T   00001490+0008181731          1400 J81505               2DZ
208875003208875077-000312     208875006001023608697GIFT-BAG 10X35CM GLOSS 0000001000+00001314+00000+0001T   00001314+0000001731          1400 J81112               2DZ
208875004208875112-116038     208875006009681820246TCS CARRIER BAG MIDI   0000001000+00000035+00000+0001T   00000035+0000001731          1400 J81090               2DZ
208876000208876               208876               170213MM     1400+00000+MM0000001753+0000001753+000000000+000000246+0000001990+0000000009+I20000000000+0000001990+Z
208876001208876071-008216     208876006003000380558P/BAG GLITTER 4 ASSTD  0000001000+00001753+00000+0001T   00001753+0000001732          1400 J81130               2DZ
208877000208877               208877               170213MM     1400+00000+MM0000003069+0000003069+000000000+000000430+0000003490+0000000009+I20000000000+0000003490+Z
208877001208877079-000271     208877006003000160082PAINT-BRUSHES LRGE ART 0000001000+00003069+00000+0001T   00003069+0000001736          1400 J81130               2DZ
208878000208878               208878               170213MM     1400+00000+MM0000003506+0000003506+000000000+000000492+0000003990+0000000008+I20000000000+0000003990+Z
208878001208878028-000796-A   208878006001023897152SKEWERS BAMBOO 100P 4mm0000002000+00001753+00000+0001T   00001753+0000001743          1400 J81305               2DZ
208879000208879               208879               170213MM     1400+00000+MM0000003507+0000003507+000000000+000000491+0000003998+0000000000+I40000003998+0000000000+Z
208879001208879018-000136     208879006001023659026MUG OCC LOVE W/PLUSH   0000001000+00003507+00000+0001T   00003507+0000001744          1400 J81515               2DZ
208880000208880               208880               170213MM     1400+00000+MM0000015782+0000015782+000000000+000002212+0000017994+0000000000+I40000017994+0000000000+Z
208880001208880082-093365     208880006001492933658SUNGLASS ENAMEL SQUARE 0000001000+00004385+00000+0001T   00006139+0008161746          1400 J81160               2DZ
208880002208880264-000916     208880000090159151012MAISTO BURNING KEY CARS0000001000+00004385+00000+0001T   00004385+0000001746          1400 J81710               2DZ
208880003208880366-007600     208880006001023902184MASK THEATRICAL GLITTER0000002000+00001753+00000+0001T   00001753+0000001746          1400 J81131               2DZ
208880004208880006-000800     208880006001023902801HAT CABARET 14x18cm    0000002000+00001753+00000+0001T   00001753+0000001746          1400 J81131               2DZ
208881000208881               208881               170213MM     1400+00000+MM0000006137+0000006137+000000000+000000860+0000006990+0000000007+I20000000000+0000006990+Z
208881001208881206-000390     208881006003000631438STRAW PL BUILD A STRAW 0000001000+00002630+00000+0001T   00002630+0000001748          1400 J81321               2AZ
208881002208881031-000002-A   208881006003000247103P/FRAME LOVE 7.5X7.5CM 0000001000+00003507+00000+0001T   00003507+0000001748          1400 J81510               2AZ
208882000208882               208882               170213MM     1400+00000+MM0000002240+0000002240+000000000+000000314+0000002550+0000000004+I20000000000+0000002550+Z
208882001208882080-000127     208882006003000424351VALENTINES DAY 36x24CM 0000001000+00002192+00000+0001T   00002192+0000001749          1400 J81112               2AZ
208882002208882112-116069     208882006009681820277TCS CARRIER BAG JUMBO  0000001000+00000048+00000+0001T   00000048+0000001749          1400 J81090               2AZ
208883000208883               208883               170213MM     1400+00000+MM0000002192+0000002192+000000000+000000307+0000002490+0000000009+I20000000000+0000002490+Z
208883001208883301-085000     208883006003000674299 ORN OCC. LOVE HEARTS  0000001000+00002192+00000+0001T   00002192+0000001750          1400 J81505               2AZ
208884000208884               208884               170213MM     1400+00000+MM0000006521+0000006521+000000000+000000914+0000007435+0000000000+I40000007435+0000000000+Z
208884001208884077-000245     208884006001023759214GIFT-RIBBON METALLICx2 0000001000+00001227+00000+0001T   00001227+0000001751          1400 J81112               2AZ
208884002208884071-001010     208884006001023893314MARKERS-METALIC 3PCE   0000001000+00003507+00000+0001T   00003507+0000001751          1400 J81130               2AZ
208884003208884077-000151     208884006008766114676GIFT-WRAP C/PHANE ASSTD0000002000+00000876+00000+0001T   00000876+0000001751          1400 J81112               2AZ
208884004208884112-116038     208884006009681820246TCS CARRIER BAG MIDI   0000001000+00000035+00000+0001T   00000035+0000001751          1400 J81090               2AZ
208885000208885               208885               170213MM     1400+00000+MM0000001753+0000001753+000000000+000000246+0000001990+0000000009+I20000000000+0000001990+Z
208885001208885077-000289     208885006001023901996GIFT BOX 20x25x11cm    0000001000+00001753+00000+0001T   00001753+0000001752          1400 J81112               2AZ
208886000208886               208886               170213MM     1400+00000+MM0000015833+0000015833+000000000+000002219+0000018052+0000000000+I40000018052+0000000000+Z
208886001208886077-000308     208886006001023595812GIFT-BAG 33X45CM E/DAY 0000001000+00001753+00000+0001T   00001753+0000001754          1400 J81112               2AZ
208886002208886080-000108     208886006003000237210CARD&ENVLPE BDAY-BOY   0000001000+00001753+00000+0001T   00001753+0000001754          1400 J81112               2AZ
208886003208886263-000516     208886006003000493913VEHICLE TRUCK CARRIER  0000001000+00012279+00000+0001T   00012279+0000001754          1400 J81710               2AZ
208886004208886112-116069     208886006009681820277TCS CARRIER BAG JUMBO  0000001000+00000048+00000+0001T   00000048+0000001754          1400 J81090               2AZ
208887000208887               208887               170213MM     1400+00000+MM0000015824+0000015824+000000000+000002218+0000018042+0000000000+I40000018042+0000000000+Z
208887001208887301-085000     208887006003000674299 ORN OCC. LOVE HEARTS  0000001000+00002192+00000+0001T   00002192+0000001756          1400 J81505               2AZ
208887002208887301-085008     208887006003000673933ORN OCC.LOVE TINSEL HRT0000001000+00003069+00000+0001T   00003069+0000001756          1400 J81505               2AZ
208887003208887006-000166-D   208887006003000516490BALLOONS LRG 6PC RED   0000004000+00001314+00000+0001T   00001314+0000001756          1400 J81131               2AZ
208887004208887112-116069     208887006009681820277TCS CARRIER BAG JUMBO  0000001000+00000048+00000+0001T   00000048+0000001756          1400 J81090               2AZ
208887005208887564-000035     208887006003000301836BUBBLE NOVELTY SWORD   0000003000+00001753+00000+0001T   00001753+0000001756          1400 J81131               2AZ
208888000208888               208888               170213MM     1400+00000+MM0000007489+0000007489+000000000+000001049+0000008530+0000000008+I20000000000+0000008530+Z
208888001208888562-000001     208888006009801541556MARLIN PLASTIC ABACUS  0000001000+00005262+00000+0001T   00005262+0000001758          1400 J81755               2AZ
208888002208888007-000046     208888006009635831366DISPLAY-BOOK PL A4 30PG0000001000+00002192+00000+0001T   00002192+0000001758          1400 J81130               2AZ
208888003208888112-116038     208888006009681820246TCS CARRIER BAG MIDI   0000001000+00000035+00000+0001T   00000035+0000001758          1400 J81090               2AZ
M17021391                              CASH        MMSLAVE 2                       Z-REPORT No.   582TOTAL (Sales - Refunds)           7304.26       CASH TO BE BANKED                 3386.70       DEBIT CARDS                          0.00       CREDIT CARDS                      3917.56       Z-READING                         7304.26       AIRTIME DEBIT CARD SALES             0.00       AIRTIME CARD SALES                   0.00       OVERS/UNDERS                         0.00       AIRTIME CASH SALES                   0.00       GIFT CARDS                           0.00       GIFT CARD CASH SALES                 0.00       T O T A L  CASH PAYOUTS              0.00                                                                                                                                                                                                                                                                                                                                                      Z
M17021392                              CASH        MMABSENT                                                                                                                                                                                          ANNUAL LEAVE                                                                                                                                                                                    DAY OFF                                                                                                                                                                                         COMMENTS                                                                                                                                                                                                                                                                                                                                                                                       Z
Y17021300                                          MM00000000640915+000080
ZMM17021320063 SLAVE 2      SALES DATA                     NEXT INVOICE NO.  208889 0582
X MM Slave 2 First invoice 208808 170213 Last invoice 208888 170213 Next invoice 208889 Total number of records 000000325 clbackup completed 20:06:27
