108649000108649               108649               170213MN     1400+00000+MN0000006609+0000006609+000000000+000000927+0000007536+0000000000+I40000007536+0000000000+Z
108649001108649082-000340     108649006003000649037LENS CLOTH MOIST 30PC  0000001000+00002630+00000+0001T   00002630+0000001047          1400 HR1160               1AZ
108649002108649082-011564     108649006001492115641#SUNGLASS POUCH AZTEC  0000001000+00002630+00000+0001T   00002630+0000001047          1400 HR1160               1AZ
108649003108649903-004950     108649006002580020304SWT APRICOT SURPRISE   0000001000+00001314+00000+0001T   00001314+0000001047          1400 HR1150               1AZ
108649004108649112-116038     108649006009681820246TCS CARRIER BAG MIDI   0000001000+00000035+00000+0001T   00000035+0000001047          1400 HR1090               1AZ
108650000108650               108650               170213MN     1400+00000+MN0000007016+0000007016+000000000+000000983+0000007990+0000000009+I20000000000+0000007990+Z
108650001108650562-000002     108650006001023491015COUNTING-FRAME 30x20cm 0000001000+00007016+00000+0001T   00007016+0000001155          1400 HR1755               1CZ
108651000108651               108651               170213MN     1400+00000+MN0000000035+0000000035+000000000+000000005+0000000040+0000000000+I20000000000+0000000040+Z
108651001108651112-116038     108651006009681820246TCS CARRIER BAG MIDI   0000001000+00000035+00000+0001T   00000035+0000001157          1400 HR1090               1CZ
108652000108652               108652               170213MN     1400+00000+MN0000001753+0000001753+000000000+000000246+0000001990+0000000009+I20000000000+0000001990+Z
108652001108652046-002032-PK2 108652004897006175063BATTERIES CR-2032  2PCE0000001000+00001753+00000+0001T   00001753+0000001239          1400 HR1312               1CZ
108653000108653               108653               170213MN     1400+00000+MN0000000437+0000000437+000000000+000000062+0000000490+0000000009+I20000000000+0000000490+Z
108653001108653080-000133     108653006003000535613CARD&ENV MINI ASTD DSGN0000001000+00000437+00000+0001T   00000437+0000001240          1400 HR1112               1CZ
108654000108654               108654               170213MN     1400+00000+MN0000006136+0000006136+000000000+000000861+0000006997+0000000000+I40000006997+0000000000+Z
108654001108654078-000025     108654008887013700064SUPERGLUE 3g 1PCE CARD 0000001000+00000876+00000+0001T   00000876+0000001247          1400 HR1810               1CZ
108654002108654083-000058     108654006003000400331LIGHTER JET CIGAR REFIL0000002000+00002630+00000+0001T   00002630+0000001247          1400 HR1315               1CZ
108655000108655               108655               170213MN     1400+00000+MN0000001578+0000001578+000000000+000000221+0000001790+0000000009+I20000000000+0000001790+Z
108655001108655018-000127     108655006001023380289MUG OCC STRAIGHT LOVE  0000001000+00001578+00000+0001T   00001753+0006471247          1400 HR1515               1CZ
108656000108656               108656               170213MN     1400+00000+MN0000003506+0000003506+000000000+000000492+0000003990+0000000008+I20000000000+0000003990+Z
108656001108656007-000534     108656006001023847836NOTE-BOOK H/C ASSTD    0000001000+00002630+00000+0001T   00002630+0000001249          1400 HR1130               1CZ
108656002108656089-000099     108656006003000677566KEY CHAIN MTL SPORT AST0000001000+00000876+00000+0001T   00000876+0000001249          1400 HR1205               1CZ
108657000108657               108657               170213MN     1400+00000+MN0000010524+0000010524+000000000+000001474+0000011998+0000000000+I40000011998+0000000000+Z
108657001108657028-002100     108657006003000243754CHAIR KIDDIES 68x50x48 0000001000+00008771+00000+0001T   00008771+0000001326          1400 HR1305               1CZ
108657002108657466-000200     108657006001023621665HULA-HOOP     ASSTD    0000001000+00001753+00000+0001T   00001753+0000001326          1400 HR1785               1CZ
108658000108658               108658               170213MN     1400+00000+MN0000001753+0000001753+000000000+000000246+0000001990+0000000009+I20000000000+0000001990+Z
108658001108658047-000508     108658006009636901983PLG EURODAPTOR 3x5A-2PN0000001000+00001753+00000+0001T   00001753+0000001327          1400 HR1880               1CZ
108659000108659               108659               170213MN     1400+00000+MN0000010524+0000010524+000000000+000001474+0000011998+0000000000+I40000011998+0000000000+Z
108659001108659028-002100     108659006003000243754CHAIR KIDDIES 68x50x48 0000001000+00008771+00000+0001T   00008771+0000001338          1400 HR1305               1CZ
108659002108659466-064834     108659006008766064834BALL W/SPIKES 20cm     0000001000+00001753+00000+0001T   00001753+0000001338          1400 HR1785               1CZ
108660000108660               108660               170213MN     1400+00000+MN0000003069+0000003069+000000000+000000430+0000003490+0000000009+I20000000000+0000003490+Z
108660001108660089-000184     108660006003000577323KEY CHAIN OWL POLY MINI0000001000+00003069+00000+0001T   00003069+0000001343          1400 HR1205               1CZ
108661000108661               108661               170213MN     1400+00000+MN0000006609+0000006609+000000000+000000927+0000007530+0000000006+I20000000000+0000007530+Z
108661001108661361-003009     108661006003000210442DOLL BABY BENDABLE 3PCE0000001000+00002630+00000+0001T   00002630+0000001346          1400 HR1725               1CZ
108661002108661261-000030     108661006003000549535GUN CAP PISTOL         0000001000+00002630+00000+0001T   00002630+0000001346          1400 HR1710               1CZ
108661003108661903-000674     108661006009803358220SWT SHERBET W/LOLLY 4PK0000001000+00001314+00000+0001T   00001314+0000001346          1400 HR1150               1CZ
108661004108661112-116038     108661006009681820246TCS CARRIER BAG MIDI   0000001000+00000035+00000+0001T   00000035+0000001346          1400 HR1090               1CZ
108662000108662               108662               170213MN     1400+00000+MN0000005258+0000005258+000000000+000000737+0000005990+0000000005+I20000000000+0000005990+Z
108662001108662018-005009     108662006001023725608MUG W/PLUSH-BEAR LOVE  0000001000+00003507+00000+0001T   00003507+0000001348          1400 HR1515               1CZ
108662002108662077-000407     108662006003000145096G/BAG PP 19X26X8CM     0000001000+00001314+00000+0001T   00001314+0000001348          1400 HR1112               1CZ
108662003108662080-000133     108662006003000535613CARD&ENV MINI ASTD DSGN0000001000+00000437+00000+0001T   00000437+0000001348          1400 HR1112               1CZ
108663000108663               108663               170213MN     1400+00000+MN0000008771+0000008771+000000000+000001228+0000009999+0000000000+I40000009999+0000000000+Z
108663001108663361-000110     108663006001023837509RAG-DOLL 46cm RAG      0000001000+00008771+00000+0001T   00008771+0000001349          1400 HR1725               1CZ
108664000108664               108664               170213MN     1400+00000+MN0000005259+0000005259+000000000+000000737+0000005990+0000000006+I20000000000+0000005990+Z
108664001108664077-000151     108664006008766114676GIFT-WRAP C/PHANE ASSTD0000002000+00000876+00000+0001T   00000876+0000001349          1400 HR1112               1CZ
108664002108664007-000325     108664006009698066514PAPER A4 160GSM 25SHTS 0000001000+00003507+00000+0001T   00003507+0000001349          1400 HR1130               1CZ
108665000108665               108665               170213MN     1400+00000+MN0000006577+0000006577+000000000+000000921+0000007490+0000000008+I20000000000+0000007490+Z
108665001108665006-000190     108665006003000685530BALLOONS LOVE 81x91cm  0000001000+00004385+00000+0001T   00004385+0000001353          1400 HR1131               1CZ
108665002108665301-085000     108665006003000674299 ORN OCC. LOVE HEARTS  0000001000+00002192+00000+0001T   00002192+0000001353          1400 HR1505               1CZ
108666000108666               108666               170213MN     1400+00000+MN0000005044+0000005044+000000000+000000708+0000005752+0000000000+I40000005752+0000000000+Z
108666001108666112-116069     108666006009681820277TCS CARRIER BAG JUMBO  0000001000+00000048+00000+0001T   00000048+0000001358          1400 HR1090               1CZ
108666002108666077-000408     108666006003000145218G/BAG PP 15X21X7CM     0000001000+00000876+00000+0001T   00000876+0000001358          1400 HR1112               1CZ
108666003108666018-000133     108666006003000427543MUG OCCASIONS DAD HERO 0000001000+00002630+00000+0001T   00002630+0000001358          1400 HR1515               1CZ
108666004108666006-000788     108666006001023990228CROWN HAPPY BIRTHDAY   0000001000+00001490+00000+0001T   00001490+0000001358          1400 HR1131               1CZ
108667000108667               108667               170213MN     1400+00000+MN0000007624+0000007624+000000000+000001070+0000008690+0000000004+I20000000000+0000008690+Z
108667001108667006-000812     108667006001023902832HAT CONE WITH TINSEL   0000001000+00000876+00000+0001T   00000876+0000001400          1400 HR1131               1CZ
108667002108667006-000124     108667006003000625888BALLOONS 10PC MIX COL  0000001000+00001753+00000+0001T   00001753+0000001400          1400 HR1131               1CZ
108667003108667006-000208-H   108667006003000412945PINK/BLUE PLATES 23cm  0000001000+00001753+00000+0001T   00001753+0000001400          1400 HR1131               1CZ
108667004108667006-000210-H   108667006003000430055PINK/BLUE CUPS 230g 6PC0000001000+00001490+00000+0001T   00001490+0000001400          1400 HR1131               1CZ
108667005108667039-000323     108667006001023524171BIRTHDAY-CANDLES 24PCE 0000001000+00000876+00000+0001T   00000876+0000001400          1400 HR1510               1CZ
108667006108667006-000223     108667006001023891327PARTY EYE-MASK 6PCE    0000001000+00000876+00000+0001T   00000876+0000001400          1400 HR1131               1CZ
108668000108668               108668               170213MN     1400+00000+MN0000007397+0000007397+000000000+000001037+0000008430+0000000004+I20000000000+0000008430+Z
108668001108668566-001234     108668006003000217793STICKERS LASER ASSTD   0000002000+00001578+00000+0001T   00001578+0000001403          1400 HR1130               1CZ
108668002108668112-116038     108668006009681820246TCS CARRIER BAG MIDI   0000001000+00000035+00000+0001T   00000035+0000001403          1400 HR1090               1CZ
108668003108668046-000012     108668006904708013062BATTERIES AA  CARD-OF-40000001000+00001314+00000+0001T   00001314+0000001403          1400 HR1312               1CZ
108668004108668046-000014     108668006001023725387BATTERIES SIZE:AAA 4PCE0000001000+00001139+00000+0001T   00001139+0000001403          1400 HR1312               1CZ
108668005108668046-002025-PK2 108668004897006174868BATTERIES CR-2025  2PCE0000001000+00001753+00000+0001T   00001753+0000001403          1400 HR1312               1CZ
108669000108669               108669               170213MN     1400+00000+MN0000000964+0000000964+000000000+000000135+0000001090+0000000009+I20000000000+0000001090+Z
108669001108669903-000843     108669008693029031067SWT GUMMY JELAXY 80G   0000001000+00000964+00000+0001T   00000964+0000001434          1400 HR1150               1BZ
108670000108670               108670               170213MN     1400+00000+MN0000001753+0000001753+000000000+000000246+0000001990+0000000009+I20000000000+0000001990+Z
108670001108670089-000027     108670006003000254071KEY CHAIN MOM/DAD ASSTD0000001000+00001753+00000+0001T   00001753+0000001520          1400 HR1205               1CZ
108671000108671               108671               170213MN     1400+00000+MN0000008771+0000008771+000000000+000001228+0000009990+0000000009+I20000000000+0000009990+Z
108671001108671027-000852     108671006003000431007MOP TWIST HANDLE 1.3M  0000001000+00008771+00000+0001T   00008771+0000001521          1400 HR1212               1CZ
108672000108672               108672               170213MN     1400+00000+MN0000003507+0000003507+000000000+000000491+0000003990+0000000008+I20000000000+0000003990+Z
108672001108672031-000923     108672006001023669933P/FRAME BLK W/WORDS    0000001000+00003507+00000+0001T   00003507+0000001521          1400 HR1510               1CZ
108673000108673               108673               170213MN     1400+00000+MN0000007481+0000007481+000000000+000001048+0000008520+0000000009+I20000000000+0000008520+Z
108673001108673006-000166-E   108673006003000516612BALLOONS LRG 6PC GREEN 0000005000+00001314+00000+0001T   00001314+0000001525          1400 HR1131               1CZ
108673002108673076-000017     108673006001811010022TWINE COTTON 50g-BALL  0000001000+00000876+00000+0001T   00000876+0000001525          1400 HR1810               1CZ
108673003108673112-116038     108673006009681820246TCS CARRIER BAG MIDI   0000001000+00000035+00000+0001T   00000035+0000001525          1400 HR1090               1CZ
108674000108674               108674               170213MN     1400+00000+MN0000004734+0000004734+000000000+000000663+0000005390+0000000007+I20000000000+0000005390+Z
108674001108674560-000700     108674006001023865830GROWING ANIMALS ASSTD  0000003000+00001578+00000+0001T   00001578+0000001526          1400 HR1745               1CZ
108675000108675               108675               170213MN     1400+00000+MN0000004418+0000004418+000000000+000000619+0000005030+0000000007+I20000000000+0000005030+Z
108675001108675018-005009     108675006001023725608MUG W/PLUSH-BEAR LOVE  0000001000+00003507+00000+0001T   00003507+0000001528          1400 HR1515               1CZ
108675002108675077-000408     108675006003000145218G/BAG PP 15X21X7CM     0000001000+00000876+00000+0001T   00000876+0000001528          1400 HR1112               1CZ
108675003108675112-116038     108675006009681820246TCS CARRIER BAG MIDI   0000001000+00000035+00000+0001T   00000035+0000001528          1400 HR1090               1CZ
108676000108676               108676               170213MN     1400+00000+MN0000003770+0000003770+000000000+000000528+0000004290+0000000008+I20000000000+0000004290+Z
108676001108676018-000170     108676006001023775528MUG OCC. LOVE 2PC MINI 0000001000+00002192+00000+0001T   00002192+0000001633          1400 HR1515               1CZ
108676002108676077-000303     108676006001023593757GIFT-BAG PAPER MED     0000001000+00001578+00000+0001T   00001578+0000001633          1400 HR1112               1CZ
108677000108677               108677               170213MN     1400+00000+MN0000000035+0000000035+000000000+000000005+0000000040+0000000000+I20000000000+0000000040+Z
108677001108677112-116038     108677006009681820246TCS CARRIER BAG MIDI   0000001000+00000035+00000+0001T   00000035+0000001634          1400 HR1090               1CZ
108678000108678               108678               170213MN     1400+00000+MN0000002628+0000002628+000000000+000000369+0000002990+0000000007+I20000000000+0000002990+Z
108678001108678077-000408     108678006003000145218G/BAG PP 15X21X7CM     0000003000+00000876+00000+0001T   00000876+0000001635          1400 HR1112               1CZ
108679000108679               108679               170213MN     1400+00000+MN0000010559+0000010559+000000000+000001479+0000012030+0000000008+I20000000000+0000012030+Z
108679001108679077-000467     108679006003000329991GIFT-BAG STAMP 18X23CM 0000001000+00001753+00000+0001T   00001753+0000001641          1400 HR1112               1CZ
108679002108679001-091415     108679006003000329113W/GLS OCC. LOVE 2PC 2800000001000+00008771+00000+0001T   00009648+0006471641          1400 HR1515               1CZ
108679003108679112-116038     108679006009681820246TCS CARRIER BAG MIDI   0000001000+00000035+00000+0001T   00000035+0000001641          1400 HR1090               1CZ
108680000108680               108680               170213MN     1400+00000+MN0000001137+0000001137+000000000+000000160+0000001297+0000000000+I40000001297+0000000000+Z
108680001108680018-000177     108680006001023797513MUG MINI LOVE ASSTD    0000001000+00000700+00000+0001T   00000700+0000001657          1400 HR1515               1AZ
108680002108680080-000133     108680006003000535613CARD&ENV MINI ASTD DSGN0000001000+00000437+00000+0001T   00000437+0000001657          1400 HR1112               1AZ
108681000108681               108681               170213MN     1400+00000+MN0000004385+0000004385+000000000+000000614+0000004990+0000000009+I20000000000+0000004990+Z
108681001108681082-000110     108681006003000360482READING GLS STRENGHT:2 0000001000+00004385+00000+0001T   00004385+0000001700          1400 HR1160               1CZ
108682000108682               108682               170213MN     1400+00000+MN0000003507+0000003507+000000000+000000491+0000003990+0000000008+I20000000000+0000003990+Z
108682001108682366-006105     108682006003000617050DRESS UP FACE PAINT    0000001000+00003507+00000+0001T   00003507+0000001722          1400 HR1131               1CZ
108683000108683               108683               170213MN     1400+00000+MN0000012640-0000000000+000000000+000000000+0000012640-0000000000+I20000000000+0000012640-Z
108683001108683001-999901     108683000000000999901CASUAL WAGES           0000001000-00012640+00000+0001X  9212256612088 0800ASAMBO0000000000 HR19011IC            1 Z
A17021300                                          09283738MNSLAVE 1                       HR12IC
A17021301                                          10030588MNSLAVE 1                       HR12IC
M17021391                              CASH        MNSLAVE 1                       Z-REPORT No.   263TOTAL (Sales - Refunds)           1857.97       CASH TO BE BANKED                 1175.80       DEBIT CARDS                          0.00       CREDIT CARDS                       555.77       Z-READING                         1731.57       AIRTIME DEBIT CARD SALES             0.00       AIRTIME CARD SALES                   0.00       OVERS/UNDERS                         0.00       AIRTIME CASH SALES                   0.00       GIFT CARDS                           0.00       GIFT CARD CASH SALES                 0.00       CASUAL WAGES                       126.40       T O T A L  CASH PAYOUTS            126.40                                                                                                                                                                                                                                                                                                      Z
M17021392                              CASH        MNABSENT                                                                                                                                                                                          ANNUAL LEAVE                                                                                                                                                                                    DAY OFF                                                                                                                                                                                         COMMENTS                                                                                                                                                                                                                                                                                                                                                                                       Z
Y17021300                                          MN00000000163128+000034
ZMN17021320063 SLAVE 1      SALES DATA                     NEXT INVOICE NO.  108684 0263
X MN Slave 1 First invoice 108649 170213 Last invoice 108683 170213 Next invoice 108684 Total number of records 000000110 clbackup completed 20:06:14
