200420000200420               200420               170213MN     1400+00000+MN0000001578+0000001578+000000000+000000221+0000001790+0000000009+I20000000000+0000001790+Z
200420001200420018-000127     200420006001023380289MUG OCC STRAIGHT LOVE  0000001000+00001578+00000+0001T   00001753+0006470916          1400 DY8515               2CZ
200421000200421               200421               170213MN     1400+00000+MN0000005260+0000005260+000000000+000000738+0000005990+0000000008+I20000000000+0000005990+Z
200421001200421046-000011-A   200421006003000438891BATTERIES SIZE:AA  4PCE0000002000+00002630+00000+0001T   00002630+0000000948          1400 DY8312               2CZ
200422000200422               200422               170213MN     1400+00000+MN0000005262+0000005262+000000000+000000737+0000005999+0000000000+I40000005999+0000000000+Z
200422001200422018-019000     200422006003000557288MUG OCC. LOVE JUMBO    0000001000+00005262+00000+0001T   00005262+0000000952          1400 DY8515               2CZ
200423000200423               200423               170213MN     1400+00000+MN0000012716+0000012716+000000000+000001781+0000014490+0000000007+I20000000000+0000014490+Z
200423001200423265-000903     200423006003000535774BATTERY OPERATED RACER 0000001000+00011402+00000+0001T   00011402+0000000954          1400 DY8710               2CZ
200423002200423006-000167-F   200423006003000517411BALLOONS SILV METALLIC 0000001000+00001314+00000+0001T   00001314+0000000954          1400 DY8131               2CZ
200424000200424               200424               170213MN     1400+00000+MN0000011428+0000011428+000000000+000001603+0000013030+0000000001+I20000000000+0000013030+Z
200424001200424112-116038     200424006009681820246TCS CARRIER BAG MIDI   0000001000+00000035+00000+0001T   00000035+0000001004          1400 DY8090               2CZ
200424002200424076-000017     200424006001811010022TWINE COTTON 50g-BALL  0000001000+00000876+00000+0001T   00000876+0000001004          1400 DY8810               2CZ
200424003200424077-000011-C   200424006001023808523TISSUE 10xSHTS RED     0000001000+00000876+00000+0001T   00000876+0000001004          1400 DY8112               2CZ
200424004200424077-000005-B   200424006003000326617PAPER TISSUE PATTERN   0000001000+00002630+00000+0001T   00002630+0000001004          1400 DY8112               2CZ
200424005200424006-000166-D   200424006003000516490BALLOONS LRG 6PC RED   0000002000+00001314+00000+0001T   00001314+0000001004          1400 DY8131               2CZ
200424006200424006-000093     200424006003000539932PARTY BANNER FLAGS ASST0000001000+00001753+00000+0001T   00001753+0000001004          1400 DY8131               2CZ
200424007200424006-000220-B   200424006001023890870PARTY TABLE-CLOTH BOY  0000001000+00002630+00000+0001T   00002630+0000001004          1400 DY8131               2CZ
200425000200425               200425               170213MN     1400+00000+MN0000002630+0000002630+000000000+000000369+0000002990+0000000009+I20000000000+0000002990+Z
200425001200425261-009924     200425006001023622204WATER-PISTOL SQUIRTER  0000001000+00002630+00000+0001T   00002630+0000001020          1400 DY8710               2CZ
200426000200426               200426               170213MN     1400+00000+MN0000002839+0000002839+000000000+000000399+0000003230+0000000008+I20000000000+0000003230+Z
200426001200426105-001005     200426006001023858214CONTAINERS MINI 6PCE   0000001000+00001402+00000+0001T   00001402+0000001023          1400 DY8210               2CZ
200426002200426105-000750     200426006003000190270CONTAINERS 4xMINI 150ml0000001000+00001402+00000+0001T   00001402+0000001023          1400 DY8210               2CZ
200426003200426112-116038     200426006009681820246TCS CARRIER BAG MIDI   0000001000+00000035+00000+0001T   00000035+0000001023          1400 DY8090               2CZ
200427000200427               200427               170213MN     1400+00000+MN0000005874+0000005874+000000000+000000823+0000006690+0000000007+I20000000000+0000006690+Z
200427001200427051-600706     200427006003000604197S/GARDEN LIGHT 35cm PL 0000001000+00002367+00000+0001T   00002630+0008191030          1400 DY8820               2CZ
200427002200427028-085275     200427006003000092611BBQ LIGHTER FLEXIBLE   0000001000+00003507+00000+0001T   00003507+0000001030          1400 DY8305               2CZ
200428000200428               200428               170213MN     1400+00000+MN0000004385+0000004385+000000000+000000614+0000004990+0000000009+I20000000000+0000004990+Z
200428001200428009-001712     200428006001023807823MELAMINE TRAY RECT DSGN0000001000+00004385+00000+0001T   00004385+0000001034          1400 DY8210               2CZ
200429000200429               200429               170213MN     1400+00000+MN0000001051+0000001051+000000000+000000148+0000001190+0000000009+I20000000000+0000001190+Z
200429001200429903-002852     200429000000087108040MENTOS ROLL SPEARMINT  0000001000+00001051+00000+0001T   00001051+0000001035          1400 DY8150               2CZ
200430000200430               200430               170213MN     1400+00000+MN0000040380+0000040380+000000000+000005662+0000046042+0000000000+I40000046042+0000000000+Z
200430001200430159-000020     200430006001023905543HAIR DRYING MICROFIBRE 0000002000+00002630+00000+0001T   00002630+0000001048          1400 DY8200               2CZ
200430002200430112-116069     200430006009681820277TCS CARRIER BAG JUMBO  0000001000+00000048+00000+0001T   00000048+0000001048          1400 DY8090               2CZ
200430003200430159-000020     200430006001023905543HAIR DRYING MICROFIBRE 0000004000+00002630+00000+0001T   00002630+0000001048          1400 DY8200               2CZ
200430004200430071-001124     200430006001023802873MARKERS WHITEBOARD 3PCE0000004000+00002630+00000+0001T   00002630+0000001048          1400 DY8130               2CZ
200430005200430024-000107     200430006001023422071MUFFIN-PAN 12-CUP      0000001000+00009648+00000+0001T   00009648+0000001048          1400 DY8300               2CZ
200430006200430028-085274     200430006001023641571BBQ LIGHTER         H&L0000002000+00002192+00000+0001T   00002192+0000001048          1400 DY8305               2CZ
200431000200431               200431               170213MN     1400+00000+MN0000001753+0000001753+000000000+000000246+0000001990+0000000009+I20000000000+0000001990+Z
200431001200431007-000050     200431006001023528285DISPLAY-ENVELOPE A4    0000001000+00001753+00000+0001T   00001753+0000001050          1400 DY8130               2CZ
200432000200432               200432               170213MN     1400+00000+MN0000007487+0000007487+000000000+000001049+0000008530+0000000006+I20000000000+0000008530+Z
200432001200432024-091106     200432006003000443130C/STAND PAPER 3-TIER   0000001000+00003507+00000+0001T   00003507+0000001107          1400 DY8300               2CZ
200432002200432563-000318-D   200432006003000404001SERVIETTES 33cm BLUE   0000001000+00002192+00000+0001T   00002192+0000001107          1400 DY8214               2CZ
200432003200432200-003024     200432006001023657299REFUSE BAGS 20PCE BLACK0000001000+00001753+00000+0001T   00001753+0000001107          1400 DY8214               2CZ
200432004200432112-116038     200432006009681820246TCS CARRIER BAG MIDI   0000001000+00000035+00000+0001T   00000035+0000001107          1400 DY8090               2CZ
200433000200433               200433               170213MN     1400+00000+MN0000004385+0000004385+000000000+000000614+0000004999+0000000000+I40000004999+0000000000+Z
200433001200433124-000002     200433006003000092246STORAGE TIN RECT       0000001000+00004385+00000+0001T   00004385+0000001115          1400 DY8300               2CZ
200434000200434               200434               170213MN     1400+00000+MN0000002366+0000002366+000000000+000000332+0000002698+0000000000+I40000002698+0000000000+Z
200434001200434089-000033     200434006003000621217KEY CHAIN MOM POLY ASST0000001000+00001753+00000+0001T   00002630+0008121123          1400 DY8205               2CZ
200434002200434007-000555     200434006001023848239MEMO-PAD MINI LOVE     0000001000+00000613+00000+0001T   00000613+0000001123          1400 DY8130               2CZ
200435000200435               200435               170213MN     1400+00000+MN0000001800+0000001800+000000000+000000253+0000002050+0000000003+I20000000000+0000002050+Z
200435001200435112-116069     200435006009681820277TCS CARRIER BAG JUMBO  0000001000+00000048+00000+0001T   00000048+0000001131          1400 DY8090               2CZ
200435002200435027-078282     200435006001023767837SCOURER 25g SPIRAL-BALL0000001000+00000613+00000+0001T   00000613+0000001131          1400 DY8212               2CZ
200435003200435002-000801     200435006003000555994PEELER PL/MTL Y-SHAPE  0000001000+00001139+00000+0001T   00001139+0000001131          1400 DY8300               2CZ
200436000200436               200436               170213MN     1400+00000+MN0000002630+0000002630+000000000+000000369+0000002990+0000000009+I20000000000+0000002990+Z
200436001200436263-001003     200436006001023789846CARS RACING SET-OF-2   0000001000+00002630+00000+0001T   00002630+0000001139          1400 DY8710               2CZ
200437000200437               200437               170213MN     1400+00000+MN0000002192+0000002192+000000000+000000307+0000002490+0000000009+I20000000000+0000002490+Z
200437001200437018-000170     200437006001023775528MUG OCC. LOVE 2PC MINI 0000001000+00002192+00000+0001T   00002192+0000001154          1400 DY8515               2CZ
200438000200438               200438               170213MN     1400+00000+MN0000001490+0000001490+000000000+000000209+0000001690+0000000009+I20000000000+0000001690+Z
200438001200438031-000878-B   200438006001023799012P/FRAME 13x18cm PL-SLID0000001000+00001490+00000+0001T   00001490+0000001155          1400 DY8510               2CZ
200439000200439               200439               170213MN     1400+00000+MN0000003944+0000003944+000000000+000000553+0000004490+0000000007+I20000000000+0000004490+Z
200439001200439006-000166-D   200439006003000516490BALLOONS LRG 6PC RED   0000001000+00001314+00000+0001T   00001314+0000001206          1400 DY8131               2CZ
200439002200439006-000111     200439006003000519385BALLOONS LARGE 12PCE   0000001000+00002630+00000+0001T   00002630+0000001206          1400 DY8131               2CZ
200440000200440               200440               170213MN     1400+00000+MN0000003068+0000003068+000000000+000000430+0000003490+0000000008+I20000000000+0000003490+Z
200440001200440018-000127     200440006001023380289MUG OCC STRAIGHT LOVE  0000001000+00001578+00000+0001T   00001753+0006471208          1400 DY8515               2CZ
200440002200440077-000299     200440006003000395576G/BAG 32x25cm LRG LOVE 0000001000+00001490+00000+0001T   00001490+0000001208          1400 DY8112               2CZ
200441000200441               200441               170213MN     1400+00000+MN0000003506+0000003506+000000000+000000492+0000003990+0000000008+I20000000000+0000003990+Z
200441001200441368-000040     200441006003000671786PLUSH ICONS 7.5cm      0000001000+00002630+00000+0001T   00002630+0000001210          1400 DY8745               2CZ
200441002200441077-000408     200441006003000145218G/BAG PP 15X21X7CM     0000001000+00000876+00000+0001T   00000876+0000001210          1400 DY8112               2CZ
200442000200442               200442               170213MN     1400+00000+MN0000001314+0000001314+000000000+000000184+0000001490+0000000008+I20000000000+0000001490+Z
200442001200442006-000166-D   200442006003000516490BALLOONS LRG 6PC RED   0000001000+00001314+00000+0001T   00001314+0000001211          1400 DY8131               2CZ
200443000200443               200443               170213MN     1400+00000+MN0000012273+0000012273+000000000+000001721+0000013990+0000000004+I20000000000+0000013990+Z
200443001200443077-000299     200443006003000395576G/BAG 32x25cm LRG LOVE 0000001000+00001490+00000+0001T   00001490+0000001216          1400 DY8112               2CZ
200443002200443361-000127     200443006003000602216DOLL SML 15cm MERMAID  0000001000+00001753+00000+0001T   00001753+0000001216          1400 DY8725               2CZ
200443003200443018-000127     200443006001023380289MUG OCC STRAIGHT LOVE  0000001000+00001578+00000+0001T   00001753+0006471216          1400 DY8515               2CZ
200443004200443018-000022     200443006001023648082MUG N/BONE 320ML BARREL0000001000+00002630+00000+0001T   00002630+0000001216          1400 DY8515               2CZ
200443005200443107-002117     200443006002580008890BASIN PL 32cm(VIRGIN)4L0000001000+00001753+00000+0001T   00001753+0000001216          1400 DY8210               2CZ
200443006200443263-000114     200443006001023827609CARS P/BACK RACER  4PCE0000001000+00003069+00000+0001T   00003069+0000001216          1400 DY8710               2CZ
200444000200444               200444               170213MN     1400+00000+MN0000000700+0000000700+000000000+000000098+0000000790+0000000008+I20000000000+0000000790+Z
200444001200444018-000177     200444006001023797513MUG MINI LOVE ASSTD    0000001000+00000700+00000+0001T   00000700+0000001217          1400 DY8515               2CZ
200445000200445               200445               170213MN     1400+00000+MN0000003331+0000003331+000000000+000000467+0000003790+0000000008+I20000000000+0000003790+Z
200445001200445016-006515     200445006003000295555S/JAR GLS EMBOSS. 250ML0000001000+00001753+00000+0001T   00001753+0000001221          1400 DY8300               2CZ
200445002200445266-001303     200445006001023560698MARBLES 25MM 10PC GOONS0000001000+00001578+00000+0001T   00001578+0000001221          1400 DY8710               2CZ
200446000200446               200446               170213MN     1400+00000+MN0000019294+0000019294+000000000+000002702+0000021990+0000000006+I20000000000+0000021990+Z
200446001200446001-091415     200446006003000329113W/GLS OCC. LOVE 2PC 2800000001000+00008771+00000+0001T   00009648+0006471249          1400 DY8515               2CZ
200446002200446006-000190     200446006003000685530BALLOONS LOVE 81x91cm  0000001000+00004385+00000+0001T   00004385+0000001249          1400 DY8131               2CZ
200446003200446039-000114     200446006001023524058CANDLE T/LITE RED 3.5CM0000001000+00001753+00000+0001T   00001753+0000001249          1400 DY8510               2CZ
200446004200446019-000083     200446006001023797209V/GLASS CUT 3-ASST 20CM0000001000+00004385+00000+0001T   00006139+0008171249          1400 DY8510               2CZ
200447000200447               200447               170213MN     1400+00000+MN0000001314+0000001314+000000000+000000184+0000001490+0000000008+I20000000000+0000001490+Z
200447001200447089-000098     200447006003000677443KEY CHAIN OPENER ASSTD 0000001000+00001314+00000+0001T   00001314+0000001253          1400 DY8205               2CZ
200448000200448               200448               170213MN     1400+00000+MN0000002192+0000002192+000000000+000000307+0000002490+0000000009+I20000000000+0000002490+Z
200448001200448080-000127     200448006003000424351VALENTINES DAY 36x24CM 0000001000+00002192+00000+0001T   00002192+0000001254          1400 DY8112               2CZ
200449000200449               200449               170213MN     1400+00000+MN0000006139+0000006139+000000000+000000860+0000006990+0000000009+I20000000000+0000006990+Z
200449001200449019-000051     200449006003000457304VASE GLS ASSORTED      0000001000+00006139+00000+0001T   00006139+0000001302          1400 DY8510               2CZ
200450000200450               200450               170213MN     1400+00000+MN0000005308+0000005308+000000000+000000745+0000006050+0000000003+I20000000000+0000006050+Z
200450001200450133-000002     200450006001926059749DISH CLOTH MICROFIBRE  0000002000+00002630+00000+0001T   00002630+0000001309          1400 DY8212               2CZ
200450002200450112-116069     200450006009681820277TCS CARRIER BAG JUMBO  0000001000+00000048+00000+0001T   00000048+0000001309          1400 DY8090               2CZ
200451000200451               200451               170213MN     1400+00000+MN0000026009+0000026009+000000000+000003643+0000029652+0000000000+I40000029652+0000000000+Z
200451001200451304-001204     200451006001023737984FLOWER OCC. TEDDY/ROSES0000001000+00001402+00000+0001T   00001490+0006471315          1400 DY8510               2CZ
200451002200451040-001013     200451006003000327966C/HOLDER SET 3PC W/TRAY0000001000+00014911+00000+0001T   00014911+0000001315          1400 DY8510               2CZ
200451003200451030-004015     200451006003000467624PLAQUE WDN SIGN 30X20CM0000001000+00009648+00000+0001T   00009648+0000001315          1400 DY8505               2CZ
200451004200451112-116069     200451006009681820277TCS CARRIER BAG JUMBO  0000001000+00000048+00000+0001T   00000048+0000001315          1400 DY8090               2CZ
200452000200452               200452               170213MN     1400+00000+MN0000033888+0000033888+000000000+000004750+0000038638+0000000000+I40000038638+0000000000+Z
200452001200452567-011427     200452009780799352528BK READER BEGIN LEES   0000001000+00003507+00000+0001T   00004823+0008141328          1400 DY8757               2CZ
200452002200452567-011428     200452009780799352573BK READER BEGIN LEES   0000001000+00003507+00000+0001T   00004823+0008141328          1400 DY8757               2CZ
200452003200452077-000330     200452006001023745408GIFT-BAG 18X23CM WEDGE 0000001000+00001753+00000+0001T   00001753+0000001328          1400 DY8112               2CZ
200452004200452564-000038     200452006003000470624BUBBLE SPRING 230ml    0000001000+00004385+00000+0001T   00004385+0000001328          1400 DY8131               2CZ
200452005200452065-006072     200452006003000466627WOODEN HARMONICA 12.7cm0000001000+00005262+00000+0001T   00005262+0000001328          1400 DY8745               2CZ
200452006200452079-012208     200452006001023801081ART + CRAFT SET STAMP  0000001000+00003507+00000+0001T   00003507+0000001328          1400 DY8130               2CZ
200452007200452079-105610     200452006003000249473ART+CRAFT SPONGE INK PA0000001000+00003507+00000+0001T   00003507+0000001328          1400 DY8130               2CZ
200452008200452065-003699     200452006001023690883FLUTE RECORDER PL      0000001000+00001490+00000+0001T   00001490+0000001328          1400 DY8745               2CZ
200452009200452079-105601     200452006003000231171ART+CRAFT STAMP ASSTD  0000002000+00001753+00000+0001T   00001753+0000001328          1400 DY8130               2CZ
200452010200452903-000183     200452006003000451043SWT LB HEART LOLLY     0000002000+00000393+00000+0001T   00000393+0000001328          1400 DY8150               2CZ
200452011200452565-000893     200452006003000643516NOVELTY FLASHING BALL  0000001000+00002630+00000+0001T   00002630+0000001328          1400 DY8745               2CZ
200452012200452112-116069     200452006009681820277TCS CARRIER BAG JUMBO  0000001000+00000048+00000+0001T   00000048+0000001328          1400 DY8090               2CZ
200453000200453               200453               170213MN     1400+00000+MN0000001753+0000001753+000000000+000000246+0000001990+0000000009+I20000000000+0000001990+Z
200453001200453133-000381     200453006001023713674TABLE-CLOTH 132x178cm  0000001000+00001753+00000+0001T   00001753+0000001336          1400 DY8212               2CZ
200454000200454               200454               170213MN     1400+00000+MN0000001753+0000001753+000000000+000000246+0000001990+0000000009+I20000000000+0000001990+Z
200454001200454304-001140     200454006003000679010FLOWER MINI MOSS 40G   0000001000+00001753+00000+0001T   00001753+0000001415          1400 DY8510               2CZ
200455000200455               200455               170213MN     1400+00000+MN0000003506+0000003506+000000000+000000492+0000003990+0000000008+I20000000000+0000003990+Z
200455001200455200-003026     200455006003000276448REFUSE BAGS 10PCE GREEN0000002000+00001753+00000+0001T   00001753+0000001419          1400 DY8214               2CZ
200456000200456               200456               170213MN     1400+00000+MN0000006139+0000006139+000000000+000000860+0000006990+0000000009+I20000000000+0000006990+Z
200456001200456031-006540     200456006001023695031P/FRAME PL 3-(10X15CM) 0000001000+00006139+00000+0001T   00006139+0000001424          1400 DY8510               2CZ
200457000200457               200457               170213MN     1400+00000+MN0000000700+0000000700+000000000+000000098+0000000790+0000000008+I20000000000+0000000790+Z
200457001200457018-000177     200457006001023797513MUG MINI LOVE ASSTD    0000001000+00000700+00000+0001T   00000700+0000001432          1400 DY8515               2CZ
200458000200458               200458               170213MN     1400+00000+MN0000012276+0000012276+000000000+000001719+0000013990+0000000005+I20000000000+0000013990+Z
200458001200458079-011526     200458006003000408375GLITTER & SAND ART     0000001000+00003507+00000+0001T   00003507+0000001434          1400 DY8130               2CZ
200458002200458079-000116     200458006001023907592ART PAINT-BY-NUMB 12PCE0000001000+00003507+00000+0001T   00003507+0000001434          1400 DY8130               2CZ
200458003200458107-004510     200458006002580008968STEP-STOOL PL          0000001000+00005262+00000+0001T   00005262+0000001434          1400 DY8210               2CZ
200459000200459               200459               170213MN     1400+00000+MN0000001753+0000001753+000000000+000000246+0000001990+0000000009+I20000000000+0000001990+Z
200459001200459089-000030     200459006003000575671K/CHAIN LOVE MTL ASSTD 0000001000+00001753+00000+0001T   00001753+0000001434          1400 DY8205               2CZ
200460000200460               200460               170213MN     1400+00000+MN0000001753+0000001753+000000000+000000246+0000001990+0000000009+I20000000000+0000001990+Z
200460001200460089-000027     200460006003000254071KEY CHAIN MOM/DAD ASSTD0000001000+00001753+00000+0001T   00001753+0000001438          1400 DY8205               2CZ
200461000200461               200461               170213MN     1400+00000+MN0000002630+0000002630+000000000+000000369+0000002990+0000000009+I20000000000+0000002990+Z
200461001200461007-000557     200461006003000379484DIARY GIRL W/LOCK 50PG 0000001000+00002630+00000+0001T   00002630+0000001500          1400 DY8130               2CZ
200462000200462               200462               170213MN     1400+00000+MN0000001314+0000001314+000000000+000000184+0000001490+0000000008+I20000000000+0000001490+Z
200462001200462046-000012     200462006904708013062BATTERIES AA  CARD-OF-40000001000+00001314+00000+0001T   00001314+0000001505          1400 DY8312               2CZ
200463000200463               200463               170213MN     1400+00000+MN0000001753+0000001753+000000000+000000246+0000001990+0000000009+I20000000000+0000001990+Z
200463001200463077-000316     200463006001023609731GIFT-BAG 25X32CM MATT  0000001000+00001753+00000+0001T   00001753+0000001506          1400 DY8112               2CZ
200464000200464               200464               170213MN     1400+00000+MN0000002192+0000002192+000000000+000000307+0000002490+0000000009+I20000000000+0000002490+Z
200464001200464018-000170     200464006001023775528MUG OCC. LOVE 2PC MINI 0000001000+00002192+00000+0001T   00002192+0000001507          1400 DY8515               2CZ
200465000200465               200465               170213MN     1400+00000+MN0000003506+0000003506+000000000+000000492+0000003990+0000000008+I20000000000+0000003990+Z
200465001200465079-006500     200465006001023557186GLUE GLITTER 6/10 PCE  0000002000+00001753+00000+0001T   00001753+0000001508          1400 DY8130               2CZ
200466000200466               200466               170213MN     1400+00000+MN0000000700+0000000700+000000000+000000098+0000000790+0000000008+I20000000000+0000000790+Z
200466001200466261-000121     200466006001023341600GUN-CAPS 8-SHOT CARD-9 0000001000+00000700+00000+0001T   00000700+0000001516          1400 DY8710               2BZ
200467000200467               200467               170213MN     1400+00000+MN0000002192+0000002192+000000000+000000307+0000002490+0000000009+I20000000000+0000002490+Z
200467001200467018-000170     200467006001023775528MUG OCC. LOVE 2PC MINI 0000001000+00002192+00000+0001T   00002192+0000001517          1400 DY8515               2CZ
200468000200468               200468               170213MN     1400+00000+MN0000006360+0000006360+000000000+000000892+0000007252+0000000000+I40000007252+0000000000+Z
200468001200468077-000475     200468006003000640775GIFT-BAG DESIGNER MED  0000001000+00002630+00000+0001T   00002630+0000001527          1400 DY8112               2CZ
200468002200468077-000299     200468006003000395576G/BAG 32x25cm LRG LOVE 0000001000+00001490+00000+0001T   00001490+0000001527          1400 DY8112               2CZ
200468003200468080-000127     200468006003000424351VALENTINES DAY 36x24CM 0000001000+00002192+00000+0001T   00002192+0000001527          1400 DY8112               2CZ
200468004200468112-116069     200468006009681820277TCS CARRIER BAG JUMBO  0000001000+00000048+00000+0001T   00000048+0000001527          1400 DY8090               2CZ
200469000200469               200469               170213MN     1400+00000+MN0000010028+0000010028+000000000+000001407+0000011430+0000000005+I20000000000+0000011430+Z
200469001200469105-001160     200469006003000666409CONTAINER SET LITE 6PC 0000001000+00001753+00000+0001T   00001753+0000001529          1400 DY8210               2CZ
200469002200469051-600706     200469006003000604197S/GARDEN LIGHT 35cm PL 0000001000+00002367+00000+0001T   00002630+0008191529          1400 DY8820               2CZ
200469003200469563-000317-G   200469006001023776341SERVIETTES BRIGHT ASSTD0000001000+00002630+00000+0001T   00002630+0000001529          1400 DY8214               2CZ
200469004200469077-000452     200469006003000284986G/BAG METALLIC MED EMB 0000001000+00001490+00000+0001T   00001490+0000001529          1400 DY8112               2CZ
200469005200469112-116038     200469006009681820246TCS CARRIER BAG MIDI   0000001000+00000035+00000+0001T   00000035+0000001529          1400 DY8090               2CZ
200469006200469903-000211     200469006002099001238SWT GS MALLOW ICE CREAM0000001000+00001753+00000+0001T   00001753+0000001529          1400 DY8150               2CZ
200470000200470               200470               170213MN     1400+00000+MN0000003507+0000003507+000000000+000000491+0000003998+0000000000+I40000003998+0000000000+Z
200470001200470018-005009     200470006001023725608MUG W/PLUSH-BEAR LOVE  0000001000+00003507+00000+0001T   00003507+0000001535          1400 DY8515               2CZ
200471000200471               200471               170213MN     1400+00000+MN0000001753+0000001753+000000000+000000246+0000001990+0000000009+I20000000000+0000001990+Z
200471001200471466-000200     200471006001023621665HULA-HOOP     ASSTD    0000001000+00001753+00000+0001T   00001753+0000001537          1400 DY8785               2CZ
200472000200472               200472               170213MN     1400+00000+MN0000060523+0000060523+000000000+000008475+0000068990+0000000008+I20000000000+0000068990+Z
200472001200472496-058484     200472000078257584840POOL 305x183x56cm      0000001000+00052630+00000+0001T   00052630+0000001553          1400 DY8787               2CZ
200472002200472466-000605     200472003427000901125BALL SOC 2-PLY PANEL   0000001000+00007893+00000+0001T   00007893+0000001553          1400 DY8785               2CZ
200473000200473               200473               170213MN     1400+00000+MN0000001490+0000001490+000000000+000000209+0000001690+0000000009+I20000000000+0000001690+Z
200473001200473077-000299     200473006003000395576G/BAG 32x25cm LRG LOVE 0000001000+00001490+00000+0001T   00001490+0000001553          1400 DY8112               2CZ
200474000200474               200474               170213MN     1400+00000+MN0000004416+0000004416+000000000+000000619+0000005030+0000000005+I20000000000+0000005030+Z
200474001200474077-000309     200474006001023608604GIFT-BAG 25X32CM GLOSS 0000001000+00001753+00000+0001T   00001753+0000001606          1400 DY8112               2CZ
200474002200474077-000470     200474006003000330171G-BAG DESGN SML 11X14CM0000002000+00001314+00000+0001T   00001314+0000001606          1400 DY8112               2CZ
200474003200474112-116038     200474006009681820246TCS CARRIER BAG MIDI   0000001000+00000035+00000+0001T   00000035+0000001606          1400 DY8090               2CZ
200475000200475               200475               170213MN     1400+00000+MN0000005260+0000005260+000000000+000000738+0000005998+0000000000+I40000005998+0000000000+Z
200475001200475076-001001     200475006003000266715CORD STRETCH 2-CL 120cm0000001000+00002630+00000+0001T   00002630+0000001608          1400 DY8810               2CZ
200475002200475206-000220     200475006003000631704EGG TIMER COLOUR-CHANGE0000001000+00002630+00000+0001T   00002630+0000001608          1400 DY8321               2CZ
200476000200476               200476               170213MN     1400+00000+MN0000007016+0000007016+000000000+000000983+0000007990+0000000009+I20000000000+0000007990+Z
200476001200476265-001658     200476006003000123896BOAT PL B/O BUMP&GO    0000001000+00007016+00000+0001T   00007016+0000001609          1400 DY8710               2CZ
200477000200477               200477               170213MN     1400+00000+MN0000011401+0000011401+000000000+000001597+0000012990+0000000008+I20000000000+0000012990+Z
200477001200477031-086302-C   200477006001023910332P/FRAME COLL. PL 3-HOLE0000001000+00008771+00000+0001T   00008771+0000001616          1400 DY8510               2CZ
200477002200477077-000270     200477006003000395453GIFT-BAG PPR JMB 33X45 0000001000+00002630+00000+0001T   00002630+0000001616          1400 DY8112               2CZ
200478000200478               200478               170213MN     1400+00000+MN0000004385+0000004385+000000000+000000614+0000004990+0000000009+I20000000000+0000004990+Z
200478001200478018-030000     200478006003000421060MUG OCCASIONS LOVE 2PCE0000001000+00004385+00000+0001T   00004385+0000001619          1400 DY8515               2CZ
200479000200479               200479               170213MN     1400+00000+MN0000000035+0000000035+000000000+000000005+0000000040+0000000000+I20000000000+0000000040+Z
200479001200479112-116038     200479006009681820246TCS CARRIER BAG MIDI   0000001000+00000035+00000+0001T   00000035+0000001620          1400 DY8090               2CZ
200480000200480               200480               170213MN     1400+00000+MN0000004855+0000004855+000000000+000000681+0000005536+0000000000+I40000005536+0000000000+Z
200480001200480046-000012     200480006904708013062BATTERIES AA  CARD-OF-40000001000+00001314+00000+0001T   00001314+0000001623          1400 DY8312               2CZ
200480002200480200-003024     200480006001023657299REFUSE BAGS 20PCE BLACK0000002000+00001753+00000+0001T   00001753+0000001623          1400 DY8214               2CZ
200480003200480112-116038     200480006009681820246TCS CARRIER BAG MIDI   0000001000+00000035+00000+0001T   00000035+0000001623          1400 DY8090               2CZ
200481000200481               200481               170213MN     1400+00000+MN0000012540+0000012540+000000000+000001757+0000000000+0000000000+ 00000000000+0000000000+Z
200481001200481301-085001     200481006003000297610ORN WATERBALL LOVE ASST0000001000+00004823+00000+0001T   00004823+000000              1400 DY85052IC            2 Z
200481002200481077-000303     200481006001023593757GIFT-BAG PAPER MED     0000001000+00001578+00000+0001T   00001578+000000              1400 DY81122IC            2 Z
200481003200481032-000136     200481006001023328182M/STANDING STAND. ROUND0000001000+00006139+00000+0001T   00006139+000000              1400 DY85102IC            2 Z
200482000200482               200482               170213MN     1400+00000+MN0000012715+0000012715+000000000+000001782+0000014490+0000000007+I20000000000+0000014490+Z
200482001200482077-000289     200482006001023901996GIFT BOX 20x25x11cm    0000001000+00001753+00000+0001T   00001753+0000001633          1400 DY8112               2CZ
200482002200482301-085001     200482006003000297610ORN WATERBALL LOVE ASST0000001000+00004823+00000+0001T   00004823+0000001633          1400 DY8505               2CZ
200482003200482032-000136     200482006001023328182M/STANDING STAND. ROUND0000001000+00006139+00000+0001T   00006139+0000001633          1400 DY8510               2CZ
200483000200483               200483               170213MN     1400+00000+MN0000000035+0000000035+000000000+000000005+0000000040+0000000000+I20000000000+0000000040+Z
200483001200483112-116038     200483006009681820246TCS CARRIER BAG MIDI   0000001000+00000035+00000+0001T   00000035+0000001634          1400 DY8090               2CZ
200484000200484               200484               170213MN     1400+00000+MN0000001578+0000001578+000000000+000000221+0000001790+0000000009+I20000000000+0000001790+Z
200484001200484018-000127     200484006001023380289MUG OCC STRAIGHT LOVE  0000001000+00001578+00000+0001T   00001753+0006471637          1400 DY8515               2CZ
200485000200485               200485               170213MN     1400+00000+MN0000045037+0000045037+000000000+000006308+0000051345+0000000000+I40000051345+0000000000+Z
200485001200485112-116069     200485006009681820277TCS CARRIER BAG JUMBO  0000001000+00000048+00000+0001T   00000048+0000001640          1400 DY8090               2CZ
200485002200485019-000080     200485006001023775740VASE GLS FLORIST BALL  0000001000+00008771+00000+0001T   00008771+0000001640          1400 DY8510               2CZ
200485003200485266-001310     200485006003000616848BOYS PLAYSET MARBLES   0000001000+00001578+00000+0001T   00001578+0000001640          1400 DY8710               2CZ
200485004200485560-000243     200485006001023622655ANIMALS OCEAN PLAY SET 0000001000+00006139+00000+0001T   00006139+0000001640          1400 DY8745               2CZ
200485005200485560-000113     200485006001023664464GOLD-FISH 4PC          0000001000+00003507+00000+0001T   00003507+0000001640          1400 DY8745               2CZ
200485006200485006-000090     200485006001023538505BANNER HAPPY-BIRTHDAY  0000001000+00002192+00000+0001T   00002192+0000001640          1400 DY8131               2CZ
200485007200485563-000317-H   200485006001023776358SERVIETTE DOTS+STRIPES 0000001000+00002630+00000+0001T   00002630+0000001640          1400 DY8214               2CZ
200485008200485006-006013     200485006001023735195PARTY-SPRAY STRING     0000001000+00002630+00000+0001T   00002630+0000001640          1400 DY8131               2CZ
200485009200485463-000501     200485006003000574551SLIP & SLIDE 4.88mx71cm0000001000+00017542+00000+0001T   00017542+0000001640          1400 DY8785               2CZ
200486000200486               200486               170213MN     1400+00000+MN0000001752+0000001752+000000000+000000246+0000001990+0000000008+I20000000000+0000001990+Z
200486001200486089-000192-A   200486006001023901774KEY-CHAIN ACRYLIC      0000002000+00000876+00000+0001T   00000876+0000001642          1400 DY8205               2CZ
200487000200487               200487               170213MN     1400+00000+MN0000001578+0000001578+000000000+000000221+0000001790+0000000009+I20000000000+0000001790+Z
200487001200487080-000124     200487006003000297733CARD & ENV VALENTINES  0000001000+00001578+00000+0001T   00001578+0000001643          1400 DY8112               2CZ
200488000200488               200488               170213MN     1400+00000+MN0000007014+0000007014+000000000+000000982+0000007996+0000000000+I40000007996+0000000000+Z
200488001200488562-000520     200488006003000112777EDU BLOCKS WDN ALPHABET0000002000+00003507+00000+0001T   00003507+0000001646          1400 DY8755               2CZ
200489000200489               200489               170213MN     1400+00000+MN0000002452+0000002452+000000000+000000344+0000002796+0000000000+I40000002796+0000000000+Z
200489001200489304-001011     200489006001023806727FLWR ROSE RED W/BEAR   0000002000+00000613+00000+0001T   00000788+0006471649          1400 DY8510               2CZ
200489002200489077-000311     200489006001023608666GIFT-BAG 11X14CM GLOSS 0000002000+00000613+00000+0001T   00000613+0000001649          1400 DY8112               2CZ
200490000200490               200490               170213MN     1400+00000+MN0000002192+0000002192+000000000+000000307+0000002490+0000000009+I20000000000+0000002490+Z
200490001200490566-000359     200490006003000582709STICKER BOOK LOVE SPARK0000001000+00002192+00000+0001T   00002192+0000001652          1400 DY8130               2CZ
200491000200491               200491               170213MN     1400+00000+MN0000001578+0000001578+000000000+000000221+0000001790+0000000009+I20000000000+0000001790+Z
200491001200491077-000303     200491006001023593757GIFT-BAG PAPER MED     0000001000+00001578+00000+0001T   00001578+0000001707          1400 DY8112               2CZ
200492000200492               200492               170213MN     1400+00000+MN0000001224+0000001224+000000000+000000172+0000001390+0000000006+I20000000000+0000001390+Z
200492001200492007-000123     200492006003000533879BOOK COVER 450mmx1.5m  0000004000+00000306+00000+0001T   00000306+0000001713          1400 DY8130               2CZ
200493000200493               200493               170213MN     1400+00000+MN0000000035+0000000035+000000000+000000005+0000000040+0000000000+I20000000000+0000000040+Z
200493001200493112-116038     200493006009681820246TCS CARRIER BAG MIDI   0000001000+00000035+00000+0001T   00000035+0000001713          1400 DY8090               2CZ
A17021300                                          09230010MNSLAVE 2                       DY82IC
A17021301                                          09284532MNSLAVE 2                       DY82IC
A17021302                                          10014657MNSLAVE 2                       DY82IC
M17021391                              CASH        MNSLAVE 2                       Z-REPORT No.   265TOTAL (Sales - Refunds)           5490.19       CASH TO BE BANKED                 3360.70       DEBIT CARDS                          0.00       CREDIT CARDS                      2129.49       Z-READING                         5490.19       AIRTIME DEBIT CARD SALES             0.00       AIRTIME CARD SALES                   0.00       OVERS/UNDERS                         0.00       AIRTIME CASH SALES                   0.00       GIFT CARDS                           0.00       GIFT CARD CASH SALES                 0.00       T O T A L  CASH PAYOUTS              0.00                                                                                                                                                                                                                                                                                                                                                      Z
M17021392                              CASH        MNABSENT                                                                                                                                                                                          ANNUAL LEAVE                                                                                                                                                                                    DAY OFF                                                                                                                                                                                         COMMENTS                                                                                                                                                                                                                                                                                                                                                                                       Z
Y17021300                                          MN00000000481925+000073
ZMN17021320063 SLAVE 2      SALES DATA                     NEXT INVOICE NO.  200494 0265
X MN Slave 2 First invoice 200420 170213 Last invoice 200493 170213 Next invoice 200494 Total number of records 000000233 clbackup completed 20:06:17
