209389000209389               209389               170213MO     1400+00000+MO0000010610+0000010610+000000000+000001487+0000012090+0000000007+I20000000000+0000012090+Z
209389001209389565-000080     209389006003000643424NOVELTY BENDY          0000001000+00002192+00000+0001T   00002192+0000000929          1400 LM7745               2AZ
209389002209389486-001002     209389006001023800008A/CLOCK QUARTZ 13x11cm 0000001000+00007016+00000+0001T   00007016+0000000929          1400 LM7510               2AZ
209389003209389046-000011     209389004897006172994BATTERIES SIZE:AA  2PCE0000001000+00001402+00000+0001T   00001402+0000000929          1400 LM7312               2AZ
209390000209390               209390               170213MO     1400+00000+MO0000001753+0000001753+000000000+000000246+0000001990+0000000009+I20000000000+0000001990+Z
209390001209390071-010481     209390006001023417220MAGNIFYING-GLASS 90mm-D0000001000+00001753+00000+0001T   00001753+0000000945          1400 LM7130               2AZ
209391000209391               209391               170213MO     1400+00000+MO0000000613+0000000613+000000000+000000086+0000000690+0000000009+I20000000000+0000000690+Z
209391001209391083-000055     209391006003000003853LIGHTER ELCTRNC REFILBL0000001000+00000613+00000+0001T   00000613+0000000948          1400 LM7315               2AZ
209392000209392               209392               170213MO     1400+00000+MO0000002927+0000002927+000000000+000000411+0000003330+0000000008+I20000000000+0000003330+Z
209392001209392027-078343     209392006008766078343SCRUB-BRUSH IRON-SHAPE 0000001000+00001139+00000+0001T   00001578+0008191005          1400 LM7212               2AZ
209392002209392054-000801     209392006001023119230WIRE-BRUSH+HANDLE FINE 0000001000+00001753+00000+0001T   00001753+0000001005          1400 LM7810               2AZ
209392003209392112-116038     209392006009681820246TCS CARRIER BAG MIDI   0000001000+00000035+00000+0001T   00000035+0000001005          1400 LM7090               2AZ
209393000209393               209393               170213MO     1400+00000+MO0000000700+0000000700+000000000+000000098+0000000790+0000000008+I20000000000+0000000790+Z
209393001209393033-010721     209393006001023678669SAFETY-PINS 20PCE ASSTD0000001000+00000700+00000+0001T   00000700+0000001009          1400 LM7200               2AZ
209394000209394               209394               170213MO     1400+00000+MO0000002665+0000002665+000000000+000000374+0000003030+0000000009+I20000000000+0000003030+Z
209394001209394019-071603     209394006001023772039RIVER-STONES 1kg PEACH 0000001000+00002630+00000+0001T   00002630+0000001018          1400 LM7510               2AZ
209394002209394112-116038     209394006009681820246TCS CARRIER BAG MIDI   0000001000+00000035+00000+0001T   00000035+0000001018          1400 LM7090               2AZ
209395000209395               209395               170213MO     1400+00000+MO0000005734+0000005734+000000000+000000804+0000006530+0000000008+I20000000000+0000006530+Z
209395001209395002-000722     209395006003000673360C/BOARD+KNIFE 3-ASSTD  0000001000+00003069+00000+0001T   00003069+0000001021          1400 LM7300               2AZ
209395002209395200-000042     209395006001023868886BAG-SEALERS 10PCE      0000001000+00002630+00000+0001T   00002630+0000001021          1400 LM7214               2AZ
209395003209395112-116038     209395006009681820246TCS CARRIER BAG MIDI   0000001000+00000035+00000+0001T   00000035+0000001021          1400 LM7090               2AZ
209396000209396               209396               170213MO     1400+00000+MO0000005291+0000005291+000000000+000000741+0000006030+0000000002+I20000000000+0000006030+Z
209396001209396112-116038     209396006009681820246TCS CARRIER BAG MIDI   0000001000+00000035+00000+0001T   00000035+0000001143          1400 LM7090               2AZ
209396002209396903-000194     209396006009826020616SWT CHOC RP LOLLY 25G  0000004000+00001314+00000+0001T   00001314+0000001143          1400 LM7150               2AZ
209397000209397               209397               170213MO     1400+00000+MO0000006576+0000006576+000000000+000000921+0000007497+0000000000+I40000007497+0000000000+Z
209397001209397903-000194     209397006009826020616SWT CHOC RP LOLLY 25G  0000001000+00001314+00000+0001T   00001314+0000001145          1400 LM7150               2AZ
209397002209397566-000320     209397006003000422890STICKERS R/DEC. NATURE 0000001000+00005262+00000+0001T   00005262+0000001145          1400 LM7130               2AZ
209398000209398               209398               170213MO     1400+00000+MO0000001613+0000001613+000000000+000000226+0000001830+0000000009+I20000000000+0000001830+Z
209398001209398018-000127     209398006001023380289MUG OCC STRAIGHT LOVE  0000001000+00001578+00000+0001T   00001753+0006471150          1400 LM7515               2AZ
209398002209398112-116038     209398006009681820246TCS CARRIER BAG MIDI   0000001000+00000035+00000+0001T   00000035+0000001150          1400 LM7090               2AZ
209399000209399               209399               170213MO     1400+00000+MO0000002364+0000002364+000000000+000000333+0000002690+0000000007+I20000000000+0000002690+Z
209399001209399903-000200     209399006009826020234SWT CHOC RP CHOCO 23G  0000003000+00000788+00000+0001T   00000788+0000001235          1400 LM7150               2AZ
209400000209400               209400               170213MO     1400+00000+MO0000003506+0000003506+000000000+000000492+0000003990+0000000008+I20000000000+0000003990+Z
209400001209400174-000010     209400006001023462381W/MACHINE-BAG 25x40cm  0000002000+00001753+00000+0001T   00001753+0000001239          1400 LM7205               2AZ
209401000209401               209401               170213MO     1400+00000+MO0000002630+0000002630+000000000+000000369+0000002990+0000000009+I20000000000+0000002990+Z
209401001209401077-000270     209401006003000395453GIFT-BAG PPR JMB 33X45 0000001000+00002630+00000+0001T   00002630+0000001313          1400 LM7112               2AZ
209402000209402               209402               170213MO     1400+00000+MO0000001753+0000001753+000000000+000000246+0000001990+0000000009+I20000000000+0000001990+Z
209402001209402089-000504     209402006001023701886KEY-CHAIN SNAP-HOOK    0000001000+00001753+00000+0001T   00001753+0000001315          1400 LM7205               2AZ
209403000209403               209403               170213MO     1400+00000+MO0000001753+0000001753+000000000+000000246+0000001990+0000000009+I20000000000+0000001990+Z
209403001209403133-000018     209403006003000583218SWAB MICROFIBRE 30x30cm0000001000+00001753+00000+0001T   00001753+0000001319          1400 LM7212               2AZ
209404000209404               209404               170213MO     1400+00000+MO0000008769+0000008769+000000000+000001228+0000009990+0000000007+I20000000000+0000009990+Z
209404001209404079-000214     209404006001023420053ART-SET  PNT+CRAYN+PENS0000001000+00003507+00000+0001T   00003507+0000001327          1400 LM7130               2AZ
209404002209404159-000107     209404006001023640406SHOWER-CURTAIN 180cm   0000001000+00005262+00000+0001T   00006139+0008191327          1400 LM7200               2AZ
209405000209405               209405               170213MO     1400+00000+MO0000000874+0000000874+000000000+000000124+0000000990+0000000008+I20000000000+0000000990+Z
209405001209405903-000094     209405006923431501622SWT GS CANDY NECKLACE  0000002000+00000437+00000+0001T   00000437+0000001328          1400 LM7150               2AZ
209406000209406               209406               170213MO     1400+00000+MO0000009430+0000009430+000000000+000001321+0000010751+0000000000+I40000010751+0000000000+Z
209406001209406368-000049     209406006003000536955PLUSH BEAR 15cm LOVE   0000001000+00004385+00000+0001T   00004385+0000001337          1400 LM7745               2AZ
209406002209406495-059703     209406000078257597031LOUNGER AIR-MAT ECONO  0000001000+00003507+00000+0001T   00003507+0000001337          1400 LM7787               2AZ
209406003209406077-000299     209406006003000395576G/BAG 32x25cm LRG LOVE 0000001000+00001490+00000+0001T   00001490+0000001337          1400 LM7112               2AZ
209406004209406112-116069     209406006009681820277TCS CARRIER BAG JUMBO  0000001000+00000048+00000+0001T   00000048+0000001337          1400 LM7090               2AZ
209407000209407               209407               170213MO     1400+00000+MO0000006138+0000006138+000000000+000000860+0000006990+0000000008+I20000000000+0000006990+Z
209407001209407306-000021-A   209407006001023891358EARBUDS COTTON 100PCE  0000001000+00000876+00000+0001T   00000876+0000001345          1400 LM7200               2AZ
209407002209407159-000107     209407006001023640406SHOWER-CURTAIN 180cm   0000001000+00005262+00000+0001T   00006139+0008191345          1400 LM7200               2AZ
209408000209408               209408               170213MO     1400+00000+MO0000005959+0000005959+000000000+000000836+0000006795+0000000000+I40000006795+0000000000+Z
209408001209408251-000040     209408006001023515865SEALTAPE CLEAR 48mmx50m0000001000+00001227+00000+0001T   00001227+0000001348          1400 LM7810               2AZ
209408002209408251-000041     209408006001023515889SEAL-TAPE BUFF 48mmx50m0000001000+00001227+00000+0001T   00001227+0000001348          1400 LM7810               2AZ
209408003209408200-003024     209408006001023657299REFUSE BAGS 20PCE BLACK0000001000+00001753+00000+0001T   00001753+0000001348          1400 LM7214               2AZ
209408004209408903-000897     209408008692806325207SWT CHOC DBL MINI ROLL 0000002000+00000876+00000+0001T   00000876+0000001348          1400 LM7150               2AZ
209409000209409               209409               170213MO     1400+00000+MO0000008806+0000008806+000000000+000001233+0000010039+0000000000+I40000010039+0000000000+Z
209409001209409001-091415     209409006003000329113W/GLS OCC. LOVE 2PC 2800000001000+00008771+00000+0001T   00009648+0006471350          1400 LM7515               2AZ
209409002209409112-116038     209409006009681820246TCS CARRIER BAG MIDI   0000001000+00000035+00000+0001T   00000035+0000001350          1400 LM7090               2AZ
209410000209410               209410               170213MO     1400+00000+MO0000006752+0000006752+000000000+000000946+0000007690+0000000008+I20000000000+0000007690+Z
209410001209410368-000175     209410006003000270316PLUSH BEAR 4 ASSTD 18CM0000001000+00006139+00000+0001T   00006139+0000001351          1400 LM7745               2AZ
209410002209410304-001011     209410006001023806727FLWR ROSE RED W/BEAR   0000001000+00000613+00000+0001T   00000788+0006471351          1400 LM7510               2AZ
209411000209411               209411               170213MO     1400+00000+MO0000008771+0000008771+000000000+000001228+0000009999+0000000000+I40000009999+0000000000+Z
209411001209411072-020242     209411006003000053728PET BED COTTON TEXTILE 0000001000+00008771+00000+0001T   00008771+0000001353          1400 LM7870               2AZ
209412000209412               209412               170213MO     1400+00000+MO0000017136+0000017136+000000000+000002400+0000019530+0000000006+I20000000000+0000019530+Z
209412001209412031-000844     209412006001023851789P/FRAME WDN WORDS 2ASS 0000001000+00003507+00000+0001T   00003507+0000001357          1400 LM7510               2AZ
209412002209412077-000918     209412006003000413690G/WRAP 700mmx2m PATTERN0000001000+00002192+00000+0001T   00002192+0000001357          1400 LM7112               2AZ
209412003209412040-000103     209412000694202201862C/HOLDER-SET 5PC W/TRAY0000001000+00011402+00000+0001T   00013157+0008191357          1400 LM7510               2AZ
209412004209412112-116038     209412006009681820246TCS CARRIER BAG MIDI   0000001000+00000035+00000+0001T   00000035+0000001357          1400 LM7090               2AZ
209413000209413               209413               170213MO     1400+00000+MO0000003541+0000003541+000000000+000000497+0000004030+0000000008+I20000000000+0000004030+Z
209413001209413252-000011     209413006001023475190CURTN-GLIDER ACETYL x500000001000+00000876+00000+0001T   00000876+0000001358          1400 LM78102IC            2AZ
209413002209413033-000005     209413006001023511584SHEET+IRN-BOARD-BND 4PC0000001000+00002630+00000+0001T   00002630+0000001358          1400 LM7200               2AZ
209413003209413112-116038     209413006009681820246TCS CARRIER BAG MIDI   0000001000+00000035+00000+0001T   00000035+0000001358          1400 LM7090               2AZ
209414000209414               209414               170213MO     1400+00000+MO0000008800+0000008800+000000000+000001234+0000010030+0000000004+I20000000000+0000010030+Z
209414001209414047-005126     209414006001023451255CABLETIES 100/150/200mm0000001000+00002192+00000+0001T   00002192+0000001359          1400 LM7880               2AZ
209414002209414112-116038     209414006009681820246TCS CARRIER BAG MIDI   0000001000+00000035+00000+0001T   00000035+0000001359          1400 LM7090               2AZ
209414003209414077-000310     209414006001023608635GIFT-BAG 18X23CM GLOSS 0000001000+00001314+00000+0001T   00001314+0000001359          1400 LM7112               2AZ
209414004209414071-001124     209414006001023802873MARKERS WHITEBOARD 3PCE0000001000+00002630+00000+0001T   00002630+0000001359          1400 LM7130               2AZ
209414005209414071-001015     209414006001023910387MARKERS PERMANENT 3PK  0000001000+00001753+00000+0001T   00001753+0000001359          1400 LM7130               2AZ
209414006209414033-005931     209414006001023678447PINS ON-WHEEL PEARLIZED0000001000+00000876+00000+0001T   00000876+0000001359          1400 LM7200               2AZ
209415000209415               209415               170213MO     1400+00000+MO0000022806+0000022806+000000000+000003197+0000026003+0000000000+I40000026003+0000000000+Z
209415001209415077-000270     209415006003000395453GIFT-BAG PPR JMB 33X45 0000001000+00002630+00000+0001T   00002630+0000001409          1400 LM7112               2AZ
209415002209415080-000127     209415006003000424351VALENTINES DAY 36x24CM 0000001000+00002192+00000+0001T   00002192+0000001409          1400 LM7112               2AZ
209415003209415041-092015     209415006003000384761BATH VINTAGE WIRE CADDY0000001000+00012279+00000+0001T   00012279+0000001409          1400 LM7200               2AZ
209415004209415301-085004     209415006003000420469ORN LOVE PLAQUE 21X10CM0000001000+00003507+00000+0001T   00003946+0006471409          1400 LM7505               2AZ
209415005209415039-000026     209415006001023551610C/TAPERED 25CM M/RED   0000002000+00001051+00000+0001T   00001051+0000001409          1400 LM7510               2AZ
209415006209415112-116069     209415006009681820277TCS CARRIER BAG JUMBO  0000002000+00000048+00000+0001T   00000048+0000001409          1400 LM7090               2AZ
209416000209416               209416               170213MO     1400+00000+MO0000007049+0000007049+000000000+000000987+0000008030+0000000006+I20000000000+0000008030+Z
209416001209416560-000704     209416006003000592234ANIMALS BUGS&LIZARDS   0000001000+00003507+00000+0001T   00003507+0000001413          1400 LM7745               2AZ
209416002209416361-003004     209416006003000302796DOLL INTERCHNG HAIR&ACC0000001000+00003507+00000+0001T   00003507+0000001413          1400 LM7725               2AZ
209416003209416112-116038     209416006009681820246TCS CARRIER BAG MIDI   0000001000+00000035+00000+0001T   00000035+0000001413          1400 LM7090               2AZ
209417000209417               209417               170213MO     1400+00000+MO0000003507+0000003507+000000000+000000491+0000003998+0000000000+I40000003998+0000000000+Z
209417001209417301-085004     209417006003000420469ORN LOVE PLAQUE 21X10CM0000001000+00003507+00000+0001T   00003946+0006471421          1400 LM7505               2AZ
209418000209418               209418               170213MO     1400+00000+MO0000001490+0000001490+000000000+000000209+0000001690+0000000009+I20000000000+0000001690+Z
209418001209418006-000102     209418006001023806819BALLOONS W/BOMBS 50PCE 0000001000+00001490+00000+0001T   00001490+0000001422          1400 LM7131               2AZ
209419000209419               209419               170213MO     1400+00000+MO0000000788+0000000788+000000000+000000111+0000000890+0000000009+I20000000000+0000000890+Z
209419001209419903-000892     209419008693029700420SWT NOVELTY CHOCO CREAM0000001000+00000788+00000+0001T   00000788+0000001423          1400 LM7150               2AZ
209420000209420               209420               170213MO     1400+00000+MO0000007363+0000007363+000000000+000001033+0000008390+0000000006+I20000000000+0000008390+Z
209420001209420071-030012     209420006003000283842PEN NVLTY GLITTER 6PC  0000001000+00002630+00000+0001T   00002630+0000001425          1400 LM7130               2AZ
209420002209420071-003011     209420006001023762825PEN STICKBALL X10 ASSTD0000001000+00001753+00000+0001T   00001753+0000001425          1400 LM7130               2AZ
209420003209420071-000307     209420006003000535118RULER FLEXI 30cm       0000002000+00001490+00000+0001T   00001490+0000001425          1400 LM7130               2AZ
209421000209421               209421               170213MO     1400+00000+MO0000002192+0000002192+000000000+000000307+0000002490+0000000009+I20000000000+0000002490+Z
209421001209421566-000359     209421006003000582709STICKER BOOK LOVE SPARK0000001000+00002192+00000+0001T   00002192+0000001549          1400 LM7130               2AZ
209422000209422               209422               170213MO     1400+00000+MO0000004420+0000004420+000000000+000000619+0000005030+0000000009+I20000000000+0000005030+Z
209422001209422368-000001     209422006003000097982Plush Bear 25cm        0000001000+00004385+00000+0001T   00004385+0000001553          1400 LM7745               2AZ
209422002209422112-116038     209422006009681820246TCS CARRIER BAG MIDI   0000001000+00000035+00000+0001T   00000035+0000001553          1400 LM7090               2AZ
209423000209423               209423               170213MO     1400+00000+MO0000002192+0000002192+000000000+000000307+0000002490+0000000009+I20000000000+0000002490+Z
209423001209423050-000363-Z   209423006001023475282PADLOCK IRON 32mm CARD 0000001000+00002192+00000+0001T   00002192+0000001602          1400 LM7855               2AZ
209424000209424               209424               170213MO     1400+00000+MO0000001753+0000001753+000000000+000000246+0000001990+0000000009+I20000000000+0000001990+Z
209424001209424051-002406     209424006003000139415SPRAY PL TRIGGER 700ml 0000001000+00001753+00000+0001T   00001753+0000001608          1400 LM7820               2AZ
209425000209425               209425               170213MO     1400+00000+MO0000005085+0000005085+000000000+000000713+0000005790+0000000008+I20000000000+0000005790+Z
209425001209425071-003858     209425006001023902276STATIONERY SET PENCIL  0000001000+00002455+00000+0001T   00002455+0000001610          1400 LM7130               2AZ
209425002209425004-071192     209425006003000528813USB CABLE 1.0m         0000001000+00002630+00000+0001T   00002630+0000001610          1400 LM7310               2AZ
209426000209426               209426               170213MO     1400+00000+MO0000001575+0000001575+000000000+000000222+0000001790+0000000007+I20000000000+0000001790+Z
209426001209426903-000155     209426006009803374435SWT LOLLY I LUV U HEART0000003000+00000525+00000+0001T   00000525+0000001627          1400 LM7150               2AZ
209427000209427               209427               170213MO     1400+00000+MO0000007661+0000007661+000000000+000001075+0000008730+0000000006+I20000000000+0000008730+Z
209427001209427492-055602     209427000078257556021SWIM-GOGGLES PLAY      0000001000+00002630+00000+0001T   00002630+0000001628          1400 LM7787               2AZ
209427002209427497-069613     209427000078257696130HAND-PUMP PL DBL-QUICK 0000001000+00002630+00000+0001T   00002630+0000001628          1400 LM7787               2AZ
209427003209427491-059640     209427000078257596409INTEX:ARMBAND 3-6YRS   0000001000+00001753+00000+0001T   00001753+0000001628          1400 LM7787               2AZ
209427004209427304-001011     209427006001023806727FLWR ROSE RED W/BEAR   0000001000+00000613+00000+0001T   00000788+0006471628          1400 LM7510               2AZ
209427005209427112-116038     209427006009681820246TCS CARRIER BAG MIDI   0000001000+00000035+00000+0001T   00000035+0000001628          1400 LM7090               2AZ
209428000209428               209428               170213MO     1400+00000+MO0000001753+0000001753+000000000+000000246+0000001990+0000000009+I20000000000+0000001990+Z
209428001209428039-000114     209428006001023524058CANDLE T/LITE RED 3.5CM0000001000+00001753+00000+0001T   00001753+0000001633          1400 LM7510               2AZ
209429000209429               209429               170213MO     1400+00000+MO0000005998+0000005998+000000000+000000840+0000006830+0000000008+I20000000000+0000006830+Z
209429001209429368-000049     209429006003000536955PLUSH BEAR 15cm LOVE   0000001000+00004385+00000+0001T   00004385+0000001634          1400 LM7745               2AZ
209429002209429018-000127     209429006001023380289MUG OCC STRAIGHT LOVE  0000001000+00001578+00000+0001T   00001753+0006471634          1400 LM7515               2AZ
209429003209429112-116038     209429006009681820246TCS CARRIER BAG MIDI   0000001000+00000035+00000+0001T   00000035+0000001634          1400 LM7090               2AZ
209430000209430               209430               170213MO     1400+00000+MO0000007049+0000007049+000000000+000000987+0000008030+0000000006+I20000000000+0000008030+Z
209430001209430018-000136     209430006001023659026MUG OCC LOVE W/PLUSH   0000002000+00003507+00000+0001T   00003507+0000001637          1400 LM7515               2AZ
209430002209430112-116038     209430006009681820246TCS CARRIER BAG MIDI   0000001000+00000035+00000+0001T   00000035+0000001637          1400 LM7090               2AZ
209431000209431               209431               170213MO     1400+00000+MO0000003507+0000003507+000000000+000000491+0000003990+0000000008+I20000000000+0000003990+Z
209431001209431007-000561     209431006003000589128NOVELTY NOTEBOOK       0000001000+00003507+00000+0001T   00003507+0000001638          1400 LM7130               2AZ
209432000209432               209432               170213MO     1400+00000+MO0000001757+0000001757+000000000+000000246+0000002000+0000000003+I20000000000+0000002000+Z
209432001209432018-000136     209432006001023659026MUG OCC LOVE W/PLUSH   0000002000-00003507+00000+0001T   00003507+0000001641          1400 LM75152IC            2 Z
209432002209432001-091415     209432006003000329113W/GLS OCC. LOVE 2PC 2800000001000+00008771+00000+0001T   00009648+0006471641          1400 LM7515               2AZ
209433000209433               209433               170213MO     1400+00000+MO0000000613+0000000613+000000000+000000086+0000000690+0000000009+I20000000000+0000000690+Z
209433001209433304-001011     209433006001023806727FLWR ROSE RED W/BEAR   0000001000+00000613+00000+0001T   00000788+0006471642          1400 LM7510               2AZ
209434000209434               209434               170213MO     1400+00000+MO0000013154+0000013154+000000000+000001843+0000014990+0000000007+I20000000000+0000014990+Z
209434001209434077-000333     209434006001023745316GIFT-BAG 25X32CM EVERYD0000001000+00001753+00000+0001T   00001753+0000001643          1400 LM7112               2AZ
209434002209434077-000151     209434006008766114676GIFT-WRAP C/PHANE ASSTD0000001000+00000876+00000+0001T   00000876+0000001643          1400 LM7112               2AZ
209434003209434403-000500     209434006003000247592MONEY-BANK DECOR PIGGY 0000001000+00010525+00000+0001T   00010525+0000001643          1400 LM7510               2AZ
209435000209435               209435               170213MO     1400+00000+MO0000006134+0000006134+000000000+000000860+0000006990+0000000004+I20000000000+0000006990+Z
209435001209435071-003866     209435006003000590018PENCIL NOVELTY RULER   0000002000+00001314+00000+0001T   00001314+0000001648          1400 LM7130               2AZ
209435002209435071-003009     209435006001024011373PEN CLICK BALL+SFT GRIP0000001000+00002630+00000+0001T   00002630+0000001648          1400 LM7130               2AZ
209435003209435089-000192-A   209435006001023901774KEY-CHAIN ACRYLIC      0000001000+00000876+00000+0001T   00000876+0000001648          1400 LM7205               2AZ
209436000209436               209436               170213MO     1400+00000+MO0000000876+0000000876+000000000+000000123+0000000990+0000000009+I20000000000+0000000990+Z
209436001209436089-000192-A   209436006001023901774KEY-CHAIN ACRYLIC      0000001000+00000876+00000+0001T   00000876+0000001648          1400 LM7205               2AZ
209437000209437               209437               170213MO     1400+00000+MO0000005296+0000005296+000000000+000000742+0000006038+0000000000+I40000006038+0000000000+Z
209437001209437006-000789     209437006001023148612CROWN BOY              0000001000+00002192+00000+0001T   00002192+0000001650          1400 LM7131               2AZ
209437002209437366-000256     209437006001023918406DRESS UP TIARA&EARRINGS0000001000+00003069+00000+0001T   00003069+0000001650          1400 LM7131               2AZ
209437003209437112-116038     209437006009681820246TCS CARRIER BAG MIDI   0000001000+00000035+00000+0001T   00000035+0000001650          1400 LM7090               2AZ
209438000209438               209438               170213MO     1400+00000+MO0000002192+0000002192+000000000+000000307+0000002490+0000000009+I20000000000+0000002490+Z
209438001209438493-059050     209438000078257590506BEACH-BALL 61cm LIVELY 0000001000+00002192+00000+0001T   00002192+0000001659          1400 LM7787               2AZ
209439000209439               209439               170213MO     1400+00000+MO0000001402+0000001402+000000000+000000197+0000001590+0000000009+I20000000000+0000001590+Z
209439001209439304-001204     209439006001023737984FLOWER OCC. TEDDY/ROSES0000001000+00001402+00000+0001T   00001490+0006471703          1400 LM7510               2AZ
209440000209440               209440               170213MO     1400+00000+MO0000005310+0000005310+000000000+000000744+0000006050+0000000004+I20000000000+0000006050+Z
209440001209440464-009104     209440006001023620279GAME POOL-TABLE 25x42cm0000001000+00005262+00000+0001T   00005262+0000001737          1400 LM7785               2AZ
209440002209440112-116069     209440006009681820277TCS CARRIER BAG JUMBO  0000001000+00000048+00000+0001T   00000048+0000001737          1400 LM7090               2AZ
209441000209441               209441               170213MO     1400+00000+MO0000004420+0000004420+000000000+000000619+0000005030+0000000009+I20000000000+0000005030+Z
209441001209441031-080508     209441006001023802415P/FRAME PL 22X11CM LOVE0000001000+00004385+00000+0001T   00004385+0000001740          1400 LM7510               2AZ
209441002209441112-116038     209441006003000534906TCS CARRIER BAG MIDI   0000001000+00000035+00000+0001T   00000035+0000001740          1400 LM7090               2AZ
209442000209442               209442               170213MO     1400+00000+MO0000002751+0000002751+000000000+000000386+0000003130+0000000007+I20000000000+0000003130+Z
209442001209442304-001204     209442006001023737984FLOWER OCC. TEDDY/ROSES0000001000+00001402+00000+0001T   00001490+0006471741          1400 LM7510               2AZ
209442002209442903-000194     209442006009826020616SWT CHOC RP LOLLY 25G  0000001000+00001314+00000+0001T   00001314+0000001741          1400 LM7150               2AZ
209442003209442112-116038     209442006009681820246TCS CARRIER BAG MIDI   0000001000+00000035+00000+0001T   00000035+0000001741          1400 LM7090               2AZ
209443000209443               209443               170213MO     1400+00000+MO0000015463+0000015463+000000000+000002169+0000017630+0000000002+I20000000000+0000017630+Z
209443001209443037-000006     209443006003000171996ASHTRAY PL TUB GIANT   0000002000+00002630+00000+0001T   00003069+0008191747          1400 LM7515               2AZ
209443002209443108-001002     209443006003000503810TUMBLER PL 4PC 400ml   0000002000+00002192+00000+0001T   00002192+0000001747          1400 LM7210               2AZ
209443003209443112-116038     209443006009681820246TCS CARRIER BAG MIDI   0000001000+00000035+00000+0001T   00000035+0000001747          1400 LM7090               2AZ
209443004209443903-000211     209443006002099001238SWT GS MALLOW ICE CREAM0000002000+00001753+00000+0001T   00001753+0000001747          1400 LM7150               2AZ
209443005209443903-000709     209443006002099007070SWT QUENCHERS FRUIT    0000002000+00001139+00000+0001T   00001139+0000001747          1400 LM7150               2AZ
209444000209444               209444               170213MO     1400+00000+MO0000001490+0000001490+000000000+000000209+0000001690+0000000009+I20000000000+0000001690+Z
209444001209444077-000299     209444006003000395576G/BAG 32x25cm LRG LOVE 0000001000+00001490+00000+0001T   00001490+0000001748          1400 LM7112               2AZ
209445000209445               209445               170213MO     1400+00000+MO0000001490+0000001490+000000000+000000209+0000001690+0000000009+I20000000000+0000001690+Z
209445001209445077-000299     209445006003000395576G/BAG 32x25cm LRG LOVE 0000001000+00001490+00000+0001T   00001490+0000001750          1400 LM7112               2AZ
209446000209446               209446               170213MO     1400+00000+MO0000003507+0000003507+000000000+000000491+0000003990+0000000008+I20000000000+0000003990+Z
209446001209446018-005009     209446006001023725608MUG W/PLUSH-BEAR LOVE  0000001000+00003507+00000+0001T   00003507+0000001755          1400 LM7515               2AZ
209447000209447               209447               170213MO     1400+00000+MO0000001490+0000001490+000000000+000000209+0000001690+0000000009+I20000000000+0000001690+Z
209447001209447077-000299     209447006003000395576G/BAG 32x25cm LRG LOVE 0000001000+00001490+00000+0001T   00001490+0000001757          1400 LM7112               2AZ
209448000209448               209448               170213MO     1400+00000+MO0000001753+0000001753+000000000+000000246+0000001990+0000000009+I20000000000+0000001990+Z
209448001209448466-000583     209448006001023156617SKIPPING-ROPE 224cm    0000001000+00001753+00000+0001T   00001753+0000001758          1400 LM7785               2AZ
209449000209449               209449               170213MO     1400+00000+MO0000006397+0000006397+000000000+000000898+0000007295+0000000000+I40000007295+0000000000+Z
209449001209449018-000129     209449006001023403353MUG OCC. LOVE V-SHAPE  0000001000+00002630+00000+0001T   00002630+0000001802          1400 LM7515               2AZ
209449002209449077-000303     209449006001023593757GIFT-BAG PAPER MED     0000001000+00001578+00000+0001T   00001578+0000001802          1400 LM7112               2AZ
209449003209449903-000517     209449006001704012768SWT STRAWS FIZZY CHERRY0000001000+00001227+00000+0001T   00001227+0000001802          1400 LM7150               2AZ
209449004209449903-000012     209449006002099007308SWT MALLOW S/BERRY     0000001000+00000437+00000+0001T   00000437+0000001802          1400 LM7150               2AZ
209449005209449903-000155     209449006009803374435SWT LOLLY I LUV U HEART0000001000+00000525+00000+0001T   00000525+0000001802          1400 LM7150               2AZ
209450000209450               209450               170213MO     1400+00000+MO0000009415+0000009415+000000000+000001320+0000010730+0000000005+I20000000000+0000010730+Z
209450001209450089-000184     209450006003000577323KEY CHAIN OWL POLY MINI0000001000+00003069+00000+0001T   00003069+0000001803          1400 LM7205               2AZ
209450002209450046-002016-PK2 209450004897006175056BATTERIES CR-2016  2PCE0000002000+00001753+00000+0001T   00001753+0000001803          1400 LM7312               2AZ
209450003209450018-000170     209450006001023775528MUG OCC. LOVE 2PC MINI 0000001000+00002192+00000+0001T   00002192+0000001803          1400 LM7515               2AZ
209450004209450304-001011     209450006001023806727FLWR ROSE RED W/BEAR   0000001000+00000613+00000+0001T   00000788+0006471803          1400 LM7510               2AZ
209450005209450112-116038     209450006009681820246TCS CARRIER BAG MIDI   0000001000+00000035+00000+0001T   00000035+0000001803          1400 LM7090               2AZ
B20941300                                          170213MO252-000011     13575425SLAVE 2     LM72IC0000002000+0000001000+0000000000000+
M17021391                              CASH        MOSLAVE 2                       Z-REPORT No.   148TOTAL (Sales - Refunds)           3491.35       CASH TO BE BANKED                 2607.20       DEBIT CARDS                          0.00       CREDIT CARDS                       884.15       Z-READING                         3491.35       AIRTIME DEBIT CARD SALES             0.00       AIRTIME CARD SALES                   0.00       OVERS/UNDERS                         0.00       AIRTIME CASH SALES                   0.00       GIFT CARDS                           0.00       GIFT CARD CASH SALES                 0.00       T O T A L  CASH PAYOUTS              0.00                                                                                                                                                                                                                                                                                                                                                      Z
M17021392                              CASH        MOABSENT                                                                                                                                                                                          ANNUAL LEAVE                                                                                                                                                                                    DAY OFF                                                                                                                                                                                         COMMENTS                                                                                                                                                                                                                                                                                                                                                                                       Z
Y17021300                                          MO00000000313576+000062
ZMO17021320063 SLAVE 2      SALES DATA                     NEXT INVOICE NO.  209451 0148
X MO Slave 2 First invoice 209389 170213 Last invoice 209450 170213 Next invoice 209451 Total number of records 000000200 clbackup completed 20:06:34
