103270000103270               103270               170213MP     1400+00000+MP0000047892+0000047892+000000000+000006706+0000054590+0000000008+I20000000000+0000054590+Z
103270001103270496-056483     103270000078257564835POOL F/CENTER 262x175cm0000001000+00041753+00000+0001T   00041753+0000000859          1400 BH8787               1AZ
103270002103270497-068614     103270000078257686148H/PUMP HIGH-O/PUT 36cm 0000001000+00006139+00000+0001T   00006139+0000000859          1400 BH8787               1AZ
103271000103271               103271               170213MP     1400+00000+MP0000005829+0000005829+000000000+000000818+0000006640+0000000007+I20000000000+0000006640+Z
103271001103271903-000120     103271006002099001665SWEET GS ZILLIONS 50g  0000002000+00000700+00000+0001T   00000700+0000000906          1400 BH8150               1AZ
103271002103271566-000996     103271000721129013176TATTOOS TEMP BE ME ASST0000002000+00000876+00000+0001T   00000876+0000000906          1400 BH8130               1AZ
103271003103271566-001108     103271000721129017341NAIL-JEWELLERY ASSTD   0000001000+00000876+00000+0001T   00000876+0000000906          1400 BH8130               1AZ
103271004103271079-013032-J   103271006003000542710A&C DIY COLOUR P/FLOWER0000001000+00001753+00000+0001T   00001753+0000000906          1400 BH8130               1AZ
103271005103271112-116069     103271006009681820277TCS CARRIER BAG JUMBO  0000001000+00000048+00000+0001T   00000048+0000000906          1400 BH8090               1AZ
103272000103272               103272               170213MP     1400+00000+MP0000014911+0000014911+000000000+000002088+0000016990+0000000009+I20000000000+0000016990+Z
103272001103272140-092000     103272006001023819130MOSQ-NET 1250x250x65cm 0000001000+00014911+00000+0001T   00014911+0000000907          1400 BH8830               1AZ
103273000103273               103273               170213MP     1400+00000+MP0000001753+0000001753+000000000+000000246+0000001990+0000000009+I20000000000+0000001990+Z
103273001103273039-000114     103273006001023524058CANDLE T/LITE RED 3.5CM0000001000+00001753+00000+0001T   00001753+0000000908          1400 BH8510               1AZ
103274000103274               103274               170213MP     1400+00000+MP0000001753+0000001753+000000000+000000246+0000001990+0000000009+I20000000000+0000001990+Z
103274001103274039-000114     103274006001023524058CANDLE T/LITE RED 3.5CM0000001000+00001753+00000+0001T   00001753+0000000908          1400 BH8510               1AZ
103275000103275               103275               170213MP     1400+00000+MP0000001753+0000001753+000000000+000000246+0000001990+0000000009+I20000000000+0000001990+Z
103275001103275024-006874     103275006001023769978PASTRY-BRUSH SQ WHITE  0000001000+00001753+00000+0001T   00001753+0000000909          1400 BH8300               1AZ
103276000103276               103276               170213MP     1400+00000+MP0000001753+0000001753+000000000+000000246+0000001990+0000000009+I20000000000+0000001990+Z
103276001103276366-007600     103276006001023902184MASK THEATRICAL GLITTER0000001000+00001753+00000+0001T   00001753+0000000910          1400 BH8131               1AZ
103277000103277               103277               170213MP     1400+00000+MP0000000876+0000000876+000000000+000000123+0000000990+0000000009+I20000000000+0000000990+Z
103277001103277006-000223     103277006001023891297PARTY EYE-MASK 6PCE    0000001000+00000876+00000+0001T   00000876+0000000912          1400 BH8131               1AZ
103278000103278               103278               170213MP     1400+00000+MP0000001753+0000001753+000000000+000000246+0000001990+0000000009+I20000000000+0000001990+Z
103278001103278200-000305     103278006003000622467FOOD OVEN ROASTING BAGS0000001000+00001753+00000+0001T   00002630+0008170913          1400 BH8214               1AZ
103279000103279               103279               170213MP     1400+00000+MP0000004385+0000004385+000000000+000000614+0000004990+0000000009+I20000000000+0000004990+Z
103279001103279050-000887-Z   103279006001023821966PADLOCK COMB 10-DIGIT  0000001000+00004385+00000+0001T   00004385+0000000914          1400 BH8855               1AZ
103280000103280               103280               170213MP     1400+00000+MP0000006311+0000006311+000000000+000000885+0000007190+0000000006+I20000000000+0000007190+Z
103280001103280567-011513     103280009781445430409BK FOOD PAR 100 RECIPES0000001000+00003244+00000+0001T   00003244+0000000917          1400 BH8757               1AZ
103280002103280306-001135-A   103280006003000359110FIRSTAID SUPPORT HAND  0000001000+00001314+00000+0001T   00001753+0008170917          1400 BH8200               1AZ
103280003103280037-000004     103280006001023763679ASHTRAY PL TUB 8X11CM  0000001000+00001753+00000+0001T   00002192+0008190917          1400 BH8515               1AZ
103281000103281               103281               170213MP     1400+00000+MP0000012279+0000012279+000000000+000001720+0000013990+0000000009+I20000000000+0000013990+Z
103281001103281368-000113     103281006001023780874PLUSH BLINGED LOVE 30cm0000001000+00012279+00000+0001T   00012279+0000000918          1400 BH8745               1AZ
103282000103282               103282               170213MP     1400+00000+MP0000001753+0000001753+000000000+000000246+0000001990+0000000009+I20000000000+0000001990+Z
103282001103282046-002025-PK2 103282004897006174868BATTERIES CR-2025  2PCE0000001000+00001753+00000+0001T   00001753+0000000920          1400 BH8312               1AZ
103283000103283               103283               170213MP     1400+00000+MP0000002629+0000002629+000000000+000000369+0000002990+0000000008+I20000000000+0000002990+Z
103283001103283567-014132     103283006003000560028BOOK COLOURING 24 PAGE 0000001000+00000876+00000+0001T   00000876+0000000923          1400 BH8757               1AZ
103283002103283200-003024     103283006001023657299REFUSE BAGS 20PCE BLACK0000001000+00001753+00000+0001T   00001753+0000000923          1400 BH8214               1AZ
103284000103284               103284               170213MP     1400+00000+MP0000003507+0000003507+000000000+000000491+0000003990+0000000008+I20000000000+0000003990+Z
103284001103284018-000136     103284006001023659026MUG OCC LOVE W/PLUSH   0000001000+00003507+00000+0001T   00003507+0000000924          1400 BH8515               1AZ
103285000103285               103285               170213MP     1400+00000+MP0000013904+0000013904+000000000+000001948+0000015850+0000000002+I20000000000+0000015850+Z
103285001103285562-000070     103285006003000600748EDU PLAY DOUGH 50g 8pc 0000001000+00007016+00000+0001T   00007016+0000000925          1400 BH8755               1AZ
103285002103285301-086006     103285006003000498918ORN OCCASION LOVE 4ASTD0000001000+00005262+00000+0001T   00005262+0000000925          1400 BH8505               1AZ
103285003103285077-000303     103285006001023593757GIFT-BAG PAPER MED     0000001000+00001578+00000+0001T   00001578+0000000925          1400 BH8112               1AZ
103285004103285112-116069     103285006009681820277TCS CARRIER BAG JUMBO  0000001000+00000048+00000+0001T   00000048+0000000925          1400 BH8090               1AZ
103286000103286               103286               170213MP     1400+00000+MP0000002852+0000002852+000000000+000000401+0000003250+0000000003+I20000000000+0000003250+Z
103286001103286466-064834     103286006008766064834BALL W/SPIKES 20cm     0000001000+00001753+00000+0001T   00001753+0000000928          1400 BH8785               1AZ
103286002103286903-002850     103286000000087108262MENTOS ROLL FRUIT      0000001000+00001051+00000+0001T   00001051+0000000928          1400 BH8150               1AZ
103286003103286112-116069     103286006009681820277TCS CARRIER BAG JUMBO  0000001000+00000048+00000+0001T   00000048+0000000928          1400 BH8090               1AZ
103287000103287               103287               170213MP     1400+00000+MP0000000613+0000000613+000000000+000000086+0000000690+0000000009+I20000000000+0000000690+Z
103287001103287150-004028-H   103287006003000649976BATH-PLUG RUBBER BLACK 0000001000+00000613+00000+0001T   00000613+0000000930          1400 BH8810               1AZ
103288000103288               103288               170213MP     1400+00000+MP0000004822+0000004822+000000000+000000676+0000005490+0000000008+I20000000000+0000005490+Z
103288001103288567-014135     103288006003000560264BOOK COLOURING 240P    0000001000+00003069+00000+0001T   00003507+0008190933          1400 BH8757               1AZ
103288002103288079-000206     103288006003000639700PENCIL CRAYONS THERAPY 0000001000+00001753+00000+0001T   00001753+0000000933          1400 BH8130               1AZ
103289000103289               103289               170213MP     1400+00000+MP0000002630+0000002630+000000000+000000369+0000002990+0000000009+I20000000000+0000002990+Z
103289001103289072-020295     103289006003000451609PET CAT TOY MOUSE W/ZIP0000001000+00002630+00000+0001T   00002630+0000000935          1400 BH8870               1AZ
103290000103290               103290               170213MP     1400+00000+MP0000017361+0000017361+000000000+000002433+0000019790+0000000004+I20000000000+0000019790+Z
103290001103290565-000886     103290006003000337057CRITTERS PUFFER BALLS  0000001000+00004385+00000+0001T   00004385+0000000940          1400 BH8745               1AZ
103290002103290361-000431     103290006003000243518DOLL 15cm BENDABLE SET 0000001000+00006139+00000+0001T   00006139+0000000940          1400 BH8725               1AZ
103290003103290079-000207     103290006003000639120COLORING SECRET GARDEN 0000001000+00001753+00000+0001T   00001753+0000000940          1400 BH8130               1AZ
103290004103290903-000911     103290006009802868454SWT ST GUM TAPE BARBIE 0000001000+00001753+00000+0001T   00001753+0000000940          1400 BH8150               1AZ
103290005103290466-000103     103290006001023642134BALL 20cm ASSTD        0000001000+00001753+00000+0001T   00001753+0000000940          1400 BH8785               1AZ
103290006103290565-000885     103290006003000122929NOVELTY PRICKLY BALL   0000001000+00001578+00000+0001T   00001578+0000000940          1400 BH8745               1AZ
103291000103291               103291               170213MP     1400+00000+MP0000003507+0000003507+000000000+000000491+0000003990+0000000008+I20000000000+0000003990+Z
103291001103291006-000113     103291006003000671816BALLOONS WATER FILLER  0000001000+00003507+00000+0001T   00003507+0000000942          1400 BH8131               1AZ
103292000103292               103292               170213MP     1400+00000+MP0000004385+0000004385+000000000+000000614+0000004990+0000000009+I20000000000+0000004990+Z
103292001103292048-071505     103292006001023714626TOUCH-LIGHTS 8cm  SET-20000001000+00004385+00000+0001T   00004385+0000000943          1400 BH8305               1AZ
103293000103293               103293               170213MP     1400+00000+MP0000000876+0000000876+000000000+000000123+0000000990+0000000009+I20000000000+0000000990+Z
103293001103293566-000200     103293006003000384174STICKER PUFFY NEON     0000001000+00000876+00000+0001T   00000876+0000000945          1400 BH8130               1AZ
103294000103294               103294               170213MP     1400+00000+MP0000015078+0000015078+000000000+000002115+0000017190+0000000003+I20000000000+0000017190+Z
103294001103294079-003014     103294006003000633951PAINT ACRYLIC 75ml SILV0000001000+00002630+00000+0001T   00002630+0000000950          1400 BH8130               1AZ
103294002103294079-003000     103294006003000448838A/TUBE 75ML WHITE      0000001000+00001753+00000+0001T   00001753+0000000950          1400 BH8130               1AZ
103294003103294079-000275     103294006003000160488PAINT-BRUSHES 6PCE PRO 0000001000+00001753+00000+0001T   00001753+0000000950          1400 BH8130               1AZ
103294004103294079-000280     103294006003000160723PAINT READYMIX 6PCE    0000001000+00002630+00000+0001T   00002630+0000000950          1400 BH8130               1AZ
103294005103294903-000095     103294006001704011495SWT SPECKLED-EGGS 100G 0000003000+00002104+00000+0001T   00002104+0000000950          1400 BH8150               1AZ
103295000103295               103295               170213MP     1400+00000+MP0000007541+0000007541+000000000+000001057+0000008590+0000000008+I20000000000+0000008590+Z
103295001103295567-010163     103295006003000485161BOOK TOP ASSTD CHILDREN0000001000+00006139+00000+0001T   00006139+0000000951          1400 BH8757               1AZ
103295002103295903-000925     103295006009706300296SWT NOVELTY SURPRISE   0000001000+00001402+00000+0001T   00001402+0000000951          1400 BH8150               1AZ
103296000103296               103296               170213MP     1400+00000+MP0000002630+0000002630+000000000+000000369+0000002990+0000000009+I20000000000+0000002990+Z
103296001103296159-000679     103296006001023588289BATH-SPONGE RND 2pk    0000001000+00002630+00000+0001T   00002630+0000000952          1400 BH8200               1AZ
103297000103297               103297               170213MP     1400+00000+MP0000000876+0000000876+000000000+000000123+0000000990+0000000009+I20000000000+0000000990+Z
103297001103297033-005921-B   103297006001023678348SEWING-THREAD 200m BLK 0000001000+00000876+00000+0001T   00000876+0000000954          1400 BH8200               1AZ
103298000103298               103298               170213MP     1400+00000+MP0000018418+0000018418+000000000+000002580+0000020990+0000000008+I20000000000+0000020990+Z
103298001103298496-059431     103298000078257594313POOL FISH-DESGN 132x28 0000001000+00012279+00000+0001T   00012279+0000000955          1400 BH8787               1AZ
103298002103298497-068614     103298000078257686148H/PUMP HIGH-O/PUT 36cm 0000001000+00006139+00000+0001T   00006139+0000000955          1400 BH8787               1AZ
103299000103299               103299               170213MP     1400+00000+MP0000012640-0000000000+000000000+000000000+0000012640-0000000000+I20000000000+0000012640-Z
103299001103299001-999901     103299000000000999901CASUAL WAGES           0000001000-00012640+00000+0001X  9704100943081 0400SMADON0000000000 BH89011IC SELA       1 Z
103300000103300               103300               170213MP     1400+00000+MP0000000876+0000000876+000000000+000000123+0000000990+0000000009+I20000000000+0000000990+Z
103300001103300083-000295     103300006001023898562LIGHTER-GAS BUTANE 18ml0000001000+00000876+00000+0001T   00000876+0000001016          1400 BH8315               1AZ
103301000103301               103301               170213MP     1400+00000+MP0000000700+0000000700+000000000+000000098+0000000798+0000000000+I40000000798+0000000000+Z
103301001103301903-000071     103301006001704001120SWT TOFFEE LIQURICE 35g0000001000+00000700+00000+0001T   00000700+0000001027          1400 BH8150               1AZ
103302000103302               103302               170213MP     1400+00000+MP0000001400+0000001400+000000000+000000196+0000001590+0000000006+I20000000000+0000001590+Z
103302001103302018-000177     103302006001023797513MUG MINI LOVE ASSTD    0000002000+00000700+00000+0001T   00000700+0000001119          1400 BH8515               1AZ
103303000103303               103303               170213MP     1400+00000+MP0000024599+0000024599+000000000+000003449+0000028048+0000000000+I40000028048+0000000000+Z
103303001103303566-000038     103303006003000100514TATTOO METALLIC 6 ASST 0000001000+00001753+00000+0001T   00001753+0000001126          1400 BH8130               1AZ
103303002103303366-002006     103303006001023902696DRESS UP WIGS PARTY ASS0000001000+00007016+00000+0001T   00007016+0000001126          1400 BH8131               1AZ
103303003103303366-002195     103303006001023990549DRESS UP WINGS FEATHER 0000001000+00005262+00000+0001T   00005262+0000001126          1400 BH8131               1AZ
103303004103303006-000323-D   103303006003000126248CONFETTI H/BIRTHDAY 3PK0000003000+00002630+00000+0001T   00002630+0000001126          1400 BH8131               1AZ
103303005103303006-006018     103303006001023735256PARTY-SPRAY HAIR ASSORT0000001000+00002630+00000+0001T   00002630+0000001126          1400 BH8131               1AZ
103303006103303112-116069     103303006009681820277TCS CARRIER BAG JUMBO  0000001000+00000048+00000+0001T   00000048+0000001126          1400 BH8090               1AZ
103304000103304               103304               170213MP     1400+00000+MP0000003507+0000003507+000000000+000000491+0000003990+0000000008+I20000000000+0000003990+Z
103304001103304262-000616     103304006001023708991CARS MDC 8PCE CITY     0000001000+00003507+00000+0001T   00003507+0000001129          1400 BH8710               1AZ
103305000103305               103305               170213MP     1400+00000+MP0000000437+0000000437+000000000+000000062+0000000490+0000000009+I20000000000+0000000490+Z
103305001103305080-000133-A   103305006003000647019MINI VALENTINES CARD   0000001000+00000437+00000+0001T   00000437+0000001220          1400 BH8112               1AZ
103306000103306               103306               170213MP     1400+00000+MP0000007049+0000007049+000000000+000000987+0000008030+0000000006+I20000000000+0000008030+Z
103306001103306018-000136     103306006001023659026MUG OCC LOVE W/PLUSH   0000002000+00003507+00000+0001T   00003507+0000001225          1400 BH8515               1AZ
103306002103306112-116038     103306006009681820246TCS CARRIER BAG MIDI   0000001000+00000035+00000+0001T   00000035+0000001225          1400 BH8090               1AZ
103307000103307               103307               170213MP     1400+00000+MP0000003507+0000003507+000000000+000000491+0000003990+0000000008+I20000000000+0000003990+Z
103307001103307560-000189     103307006003000592357ANIMALS SNAKE 78cm     0000001000+00003507+00000+0001T   00003507+0000001226          1400 BH8745               1AZ
103308000103308               103308               170213MP     1400+00000+MP0000020168+0000020168+000000000+000002825+0000022990+0000000003+I20000000000+0000022990+Z
103308001103308566-000320     103308006003000422890STICKERS R/DEC. NATURE 0000001000+00005262+00000+0001T   00005262+0000001231          1400 BH8130               1AZ
103308002103308079-006498     103308006001023836151GLITTER SET 10PCE      0000001000+00003507+00000+0001T   00003507+0000001231          1400 BH8130               1AZ
103308003103308469-006646     103308006003000595655B/BLOCKS BUILD 3 DESIGN0000001000+00005262+00000+0001T   00005262+0000001231          1400 BH8755               1AZ
103308004103308566-000991     103308000721129013121STICKERS GLOW-IN-DARK  0000002000+00002192+00000+0001T   00002192+0000001231          1400 BH8130               1AZ
103308005103308903-000610     103308006003000610518SWEET JUMBO BUBBLE GUM 0000001000+00001753+00000+0001T   00001753+0000001231          1400 BH8150               1AZ
103309000103309               103309               170213MP     1400+00000+MP0000001753+0000001753+000000000+000000246+0000001990+0000000009+I20000000000+0000001990+Z
103309001103309077-000467     103309006003000329991GIFT-BAG STAMP 18X23CM 0000001000+00001753+00000+0001T   00001753+0000001234          1400 BH8112               1AZ
103310000103310               103310               170213MP     1400+00000+MP0000002677+0000002677+000000000+000000376+0000003050+0000000003+I20000000000+0000003050+Z
103310001103310006-000092     103310006001023739650BANNER BIRTHDAY PAPER  0000001000+00001753+00000+0001T   00001753+0000001236          1400 BH8131               1AZ
103310002103310039-000319-1   103310006003000442386B/CANDLES LRG NUMBER-1 0000001000+00000876+00000+0001T   00000876+0000001236          1400 BH8510               1AZ
103310003103310112-116069     103310006009681820277TCS CARRIER BAG JUMBO  0000001000+00000048+00000+0001T   00000048+0000001236          1400 BH8090               1AZ
103311000103311               103311               170213MP     1400+00000+MP0000009206+0000009206+000000000+000001290+0000010496+0000000000+I40000010496+0000000000+Z
103311001103311565-000080     103311006003000643424NOVELTY BENDY          0000001000+00002192+00000+0001T   00002192+0000001259          1400 BH8745               1AZ
103311002103311903-000898     103311006922516801503SWT POPPING CANDY      0000001000+00001139+00000+0001T   00001139+0000001259          1400 BH8150               1AZ
103311003103311565-000990     103311006001023673510NOVELTY STICKY SLAPPER 0000001000+00001490+00000+0001T   00001490+0000001259          1400 BH8745               1AZ
103311004103311266-000508     103311006001023837172FIG ROBOT SET OF 6 8cm 0000001000+00004385+00000+0001T   00004385+0000001259          1400 BH8710               1AZ
103312000103312               103312               170213MP     1400+00000+MP0000001752+0000001752+000000000+000000246+0000001998+0000000000+I40000001998+0000000000+Z
103312001103312039-000319-8   103312006003000443222B/CANDLES LRG NUMBER-8 0000001000+00000876+00000+0001T   00000876+0000001316          1400 BH8510               1AZ
103312002103312039-000319-3   103312006003000442621B/CANDLES LRG NUMBER-3 0000001000+00000876+00000+0001T   00000876+0000001316          1400 BH8510               1AZ
103313000103313               103313               170213MP     1400+00000+MP0000001228+0000001228+000000000+000000174+0000001400+0000000002+I20000000000+0000001400+Z
103313001103313080-000133     103313006003000535613CARD&ENV MINI ASTD DSGN0000001000+00000437+00000+0001T   00000437+0000001517          1400 BH8112               1AZ
103313002103313080-000133-A   103313006003000647019MINI VALENTINES CARD   0000001000+00000437+00000+0001T   00000437+0000001517          1400 BH8112               1AZ
103313003103313079-009700-I   103313006003000546114PAPER SIRIO A4 LILAC   0000001000+00000306+00000+0001T   00000306+0000001517          1400 BH8130               1AZ
103313004103313112-116069     103313006009681820277TCS CARRIER BAG JUMBO  0000001000+00000048+00000+0001T   00000048+0000001517          1400 BH8090               1AZ
103314000103314               103314               170213MP     1400+00000+MP0000002975+0000002975+000000000+000000418+0000003393+0000000000+I40000003393+0000000000+Z
103314001103314079-009702-F   103314008427973059392PAPER SIRIO A2 GREEN   0000001000+00001051+00000+0001T   00001051+0000001520          1400 BH8130               1AZ
103314002103314079-009700-D   103314006003000545711PAPER SIRIO A4 RED COL.0000002000+00000306+00000+0001T   00000306+0000001520          1400 BH8130               1AZ
103314003103314079-009700-F   103314006003000545872PAPER SIRIO A4 TURQ COL0000002000+00000306+00000+0001T   00000306+0000001520          1400 BH8130               1AZ
103314004103314565-000735     103314006003000615674NOVELTY PUTTY BOUNCING 0000001000+00000700+00000+0001T   00000700+0000001520          1400 BH8745               1AZ
103315000103315               103315               170213MP     1400+00000+MP0000001578+0000001578+000000000+000000221+0000001790+0000000009+I20000000000+0000001790+Z
103315001103315077-000303     103315006001023593757GIFT-BAG PAPER MED     0000001000+00001578+00000+0001T   00001578+0000001558          1400 BH8112               1AZ
103316000103316               103316               170213MP     1400+00000+MP0000004997+0000004997+000000000+000000700+0000005690+0000000007+I20000000000+0000005690+Z
103316001103316466-001801     103316006001023343482BALLS TABLE-TENNIS BOX60000001000+00001490+00000+0001T   00001490+0000001601          1400 BH8785               1AZ
103316002103316203-007000     103316006001023886040SHOT-GLASS DISPOSABLE  0000001000+00003507+00000+0001T   00003507+0000001601          1400 BH8300               1AZ
103317000103317               103317               170213MP     1400+00000+MP0000008770+0000008770+000000000+000001228+0000009998+0000000000+I40000009998+0000000000+Z
103317001103317016-006497     103317006003000120055S/JAR-SET 4PCE MINI    0000002000+00004385+00000+0001T   00004385+0000001604          1400 BH8300               1AZ
103318000103318               103318               170213MP     1400+00000+MP0000003506+0000003506+000000000+000000492+0000003990+0000000008+I20000000000+0000003990+Z
103318001103318366-004047     103318006001023834850DRESS UP ACCESS TEETH  0000002000+00001753+00000+0001T   00001753+0000001606          1400 BH8131               1AZ
103319000103319               103319               170213MP     1400+00000+MP0000002630+0000002630+000000000+000000369+0000002990+0000000009+I20000000000+0000002990+Z
103319001103319466-000515     103319006001023477408BALLS TENNIS BAG-OF-3  0000001000+00002630+00000+0001T   00002630+0000001609          1400 BH8785               1AZ
103320000103320               103320               170213MP     1400+00000+MP0000011447+0000011447+000000000+000001604+0000013050+0000000001+I20000000000+0000013050+Z
103320001103320368-000012     103320006003000610464PLUSH BEAR 30cm SITTING0000001000+00008771+00000+0001T   00008771+0000001622          1400 BH8745               1AZ
103320002103320018-000127     103320006001023380289MUG OCC STRAIGHT LOVE  0000001000+00001578+00000+0001T   00001753+0006471622          1400 BH8515               1AZ
103320003103320112-116069     103320006009681820277TCS CARRIER BAG JUMBO  0000001000+00000048+00000+0001T   00000048+0000001622          1400 BH8090               1AZ
103320004103320903-000155     103320006009803374435SWT LOLLY I LUV U HEART0000002000+00000525+00000+0001T   00000525+0000001622          1400 BH8150               1AZ
103321000103321               103321               170213MP     1400+00000+MP0000007452+0000007452+000000000+000001045+0000008497+0000000000+I40000008497+0000000000+Z
103321001103321016-006425     103321006001023998170S/JAR GLS CLIP W/RIBBON0000002000+00002630+00000+0001T   00002630+0000001625          1400 BH8300               1AZ
103321002103321080-000127     103321006003000424351VALENTINES DAY 36x24CM 0000001000+00002192+00000+0001T   00002192+0000001625          1400 BH8112               1AZ
103322000103322               103322               170213MP     1400+00000+MP0000000048+0000000048+000000000+000000007+0000000050+0000000005+I20000000000+0000000050+Z
103322001103322112-116069     103322006009681820277TCS CARRIER BAG JUMBO  0000001000+00000048+00000+0001T   00000048+0000001626          1400 BH8090               1AZ
103323000103323               103323               170213MP     1400+00000+MP0000009902+0000009902+000000000+000001390+0000011290+0000000002+I20000000000+0000011290+Z
103323001103323006-000167-B   103323006003000516858BALLOONS BLUE METALLIC 0000001000+00001314+00000+0001T   00001314+0000001631          1400 BH8131               1AZ
103323002103323564-000012     103323006001023130075BUBBLE BOTTLE MAGIC    0000001000+00000700+00000+0001T   00000700+0000001631          1400 BH8131               1AZ
103323003103323006-000323-D   103323006003000126248CONFETTI H/BIRTHDAY 3PK0000001000+00002630+00000+0001T   00002630+0000001631          1400 BH8131               1AZ
103323004103323007-000324     10332300600968585864125 SHEETS BRIGHTS MARLI0000001000+00003507+00000+0001T   00003507+0000001631          1400 BH8130               1AZ
103323005103323006-001000     103323006003000093779HELIUM BALLOON FILL    0000001000+00000613+00000+0001T   00000613+0000001631          1400 BH8131               1AZ
103323006103323006-000172-A   103323006003000609765BALLOONS METALLIC PINK 0000002000+00000218+00000+0001T   00000218+0000001631          1400 BH8131               1AZ
103323007103323006-000170-K   103323006003000609284BALLOONS 1PC PURPLE    0000002000+00000218+00000+0001T   00000218+0000001631          1400 BH8131               1AZ
103323008103323006-000172-J   103323006003000610280BALLOONS METALLIC BLACK0000001000+00000218+00000+0001T   00000218+0000001631          1400 BH8131               1AZ
103323009103323112-116069     103323006009681820277TCS CARRIER BAG JUMBO  0000001000+00000048+00000+0001T   00000048+0000001631          1400 BH8090               1AZ
103324000103324               103324               170213MP     1400+00000+MP0000008771+0000008771+000000000+000001228+0000009990+0000000009+I20000000000+0000009990+Z
103324001103324486-002316     103324006003000335602WALL-CLOCK QTZ RND 30CM0000001000+00008771+00000+0001T   00008771+0000001635          1400 BH8510               1AZ
103325000103325               103325               170213MP     1400+00000+MP0000001928+0000001928+000000000+000000270+0000002198+0000000000+I40000002198+0000000000+Z
103325001103325106-001115     103325006009654960313WATER-BOTTLE PL 750ml  0000001000+00001928+00000+0001T   00001928+0000001642          1400 BH8210               1AZ
103326000103326               103326               170213MP     1400+00000+MP0000013414+0000013414+000000000+000001881+0000015295+0000000000+I40000015295+0000000000+Z
103326001103326368-000152     103326006003000166886PLUSH BEAR 15cm        0000003000+00003946+00000+0001T   00005262+0008141645          1400 BH8745               1AZ
103326002103326077-000010-C   103326006001023123879CREPE-PAPER RED        0000002000+00000788+00000+0001T   00000788+0000001645          1400 BH8112               1AZ
103327000103327               103327               170213MP     1400+00000+MP0000010742+0000010742+000000000+000001506+0000012248+0000000000+I40000012248+0000000000+Z
103327001103327112-116069     103327006009681820277TCS CARRIER BAG JUMBO  0000001000+00000048+00000+0001T   00000048+0000001647          1400 BH8090               1AZ
103327002103327903-000194     103327006009826020616SWT CHOC RP LOLLY 25G  0000001000+00001314+00000+0001T   00001314+0000001647          1400 BH8150               1AZ
103327003103327084-000364     103327006001023624581MANICURE-SET 7PCE LTHR 0000001000+00003507+00000+0001T   00003507+0000001647          1400 BH8200               1AZ
103327004103327084-000895     103327006003000576968NAIL FILES 4PC INCL    0000001000+00002630+00000+0001T   00002630+0000001647          1400 BH8200               1AZ
103327005103327084-006995     103327006003000092802NAIL CLIPPER 8cm TOE   0000001000+00001753+00000+0001T   00001753+0000001647          1400 BH8200               1AZ
103327006103327306-000540     103327006003000165780T/BRUSH+GUM PROTECTION 0000001000+00001490+00000+0001T   00001490+0000001647          1400 BH8200               1AZ
103328000103328               103328               170213MP     1400+00000+MP0000058754+0000058754+000000000+000008229+0000066983+0000000000+I40000066983+0000000000+Z
103328001103328107-004510     103328006002580008968STEP-STOOL PL          0000008000+00005262+00000+0001T   00005262+0000001710          1400 BH8210               1AZ
103328002103328107-003127     103328006003000491629BATH TUB W/HANDLES     0000002000+00004385+00000+0001T   00004385+0000001710          1400 BH8210               1AZ
103328003103328466-000106     103328006003000128112BALL PL 20CM BASKETBALL0000001000+00003507+00000+0001T   00003507+0000001710          1400 BH8785               1AZ
103328004103328565-000042     103328006003000252459NOVELTY STRESS BALL    0000002000+00001314+00000+0001T   00001314+0000001710          1400 BH8745               1AZ
103328005103328306-000021-B   103328006003000366217COTTON EARBUDS BABY 55P0000001000+00001753+00000+0001T   00001753+0000001710          1400 BH8200               1AZ
103329000103329               103329               170213MP     1400+00000+MP0000008327+0000008327+000000000+000001167+0000009490+0000000004+I20000000000+0000009490+Z
103329001103329304-001011     103329006001023806727FLWR ROSE RED W/BEAR   0000004000+00000613+00000+0001T   00000788+0006471712          1400 BH8510               1AZ
103329002103329077-000305     103329006003000395422GIFT-BAG WINE 10X35CM  0000001000+00001490+00000+0001T   00001490+0000001712          1400 BH8112               1AZ
103329003103329006-000190     103329006003000685530BALLOONS LOVE 81x91cm  0000001000+00004385+00000+0001T   00004385+0000001712          1400 BH8131               1AZ
103330000103330               103330               170213MP     1400+00000+MP0000000786+0000000786+000000000+000000111+0000000890+0000000007+I20000000000+0000000890+Z
103330001103330903-000099     103330006923431501646SWT CANDY GS WTCH B/LET0000003000+00000262+00000+0001T   00000262+0000001716          1400 BH8150               1AZ
103331000103331               103331               170213MP     1400+00000+MP0000001490+0000001490+000000000+000000209+0000001699+0000000000+I40000001699+0000000000+Z
103331001103331077-000299     103331006003000395576G/BAG 32x25cm LRG LOVE 0000001000+00001490+00000+0001T   00001490+0000001752          1400 BH8112               1AZ
103332000103332               103332               170213MP     1400+00000+MP0000005085+0000005085+000000000+000000712+0000005790+0000000007+I20000000000+0000005790+Z
103332001103332077-000303     103332006001023593757GIFT-BAG PAPER MED     0000001000+00001578+00000+0001T   00001578+0000001857          1400 BH8112               1AZ
103332002103332018-000136     103332006001023659026MUG OCC LOVE W/PLUSH   0000001000+00003507+00000+0001T   00003507+0000001857          1400 BH8515               1AZ
A17021300                                          11300017MPSLAVE 1                       BH82IC
M17021391                              CASH        MPSLAVE 1                       Z-REPORT No.    83TOTAL (Sales - Refunds)           2330.80       CASH TO BE BANKED                 2204.40       DEBIT CARDS                          0.00       CREDIT CARDS                         0.00       Z-READING                         2204.40       AIRTIME DEBIT CARD SALES             0.00       AIRTIME CARD SALES                   0.00       OVERS/UNDERS                         0.00       AIRTIME CASH SALES                   0.00       GIFT CARDS                           0.00       GIFT CARD CASH SALES                 0.00       CASUAL WAGES                       126.40       T O T A L  CASH PAYOUTS            126.40                                                                                                                                                                                                                                                                                                      Z
M17021392                              CASH        MPABSENT                                                                                                                                                                                          ANNUAL LEAVE                                                                                                                                                                                    DAY OFF                                                                                                                                                                                         COMMENTS                                                                                                          2204.40                                                                                                                                                                                                                                                                      Z
M17021393                              CASH        MPSLAVE 1                       Z-REPORT No.    84TOTAL (Sales - Refunds)           2751.71       CASH TO BE BANKED                 1135.20       DEBIT CARDS                          0.00       CREDIT CARDS                      1616.51       Z-READING                         2751.71       AIRTIME DEBIT CARD SALES             0.00       AIRTIME CARD SALES                   0.00       OVERS/UNDERS                         0.00       AIRTIME CASH SALES                   0.00       GIFT CARDS                           0.00       GIFT CARD CASH SALES                 0.00       T O T A L  CASH PAYOUTS              0.00                                                                                                                                                                                                                                                                                                                                                      Z
M17021394                              CASH        MPABSENT                                                                                                                                                                                          ANNUAL LEAVE                                                                                                                                                                                    DAY OFF                                                                                                                                                                                         COMMENTS                                                                                                          Z REP:2751.71                                                                                                                                                                                                                                                                Z
Y17021300                                          MP00000000204630+000029
Y17021301                                          MP00000000241461+000033
ZMP17021320063 SLAVE 1      SALES DATA                     NEXT INVOICE NO.  103333 0084
X MP Slave 1 First invoice 103270 170213 Last invoice 103332 170213 Next invoice 103333 Total number of records 000000207 clbackup completed 20:06:33
