204704000204704               204704               170213MP     1400+00000+MP0000008506+0000008506+000000000+000001192+0000009690+0000000008+I20000000000+0000009690+Z
204704001204704046-000400     204704006001023804983BATT ALKALINE 1.5Vx30PC0000001000+00003244+00000+0001T   00003244+0000000902          1400 HT5312               2AZ
204704002204704071-002877     204704006003000143726LASER POINTER PEN      0000001000+00005262+00000+0001T   00005262+0000000902          1400 HT5130               2AZ
204705000204705               204705               170213MP     1400+00000+MP0000009294+0000009294+000000000+000001303+0000010597+0000000000+I40000010597+0000000000+Z
204705001204705903-000087     204705006001704000161SWT SPECKLED-EGGS 50G  0000002000+00001139+00000+0001T   00001139+0000000912          1400 HT5150               2AZ
204705002204705562-000070     204705006003000600748EDU PLAY DOUGH 50g 8pc 0000001000+00007016+00000+0001T   00007016+0000000912          1400 HT5755               2AZ
204706000204706               204706               170213MP     1400+00000+MP0000001753+0000001753+000000000+000000246+0000001990+0000000009+I20000000000+0000001990+Z
204706001204706046-000002     204706006001023585202BATTERIES SIZE:C   2PCE0000001000+00001753+00000+0001T   00001753+0000000921          1400 HT5312               2AZ
204707000204707               204707               170213MP     1400+00000+MP0000009485+0000009485+000000000+000001337+0000010822+0000000000+I40000010822+0000000000+Z
204707001204707903-000155     204707006009803374435SWT LOLLY I LUV U HEART0000018000+00000525+00000+0001T   00000525+0000000937          1400 HT5150               2AZ
204707002204707112-116038     204707006009681820246TCS CARRIER BAG MIDI   0000001000+00000035+00000+0001T   00000035+0000000937          1400 HT5090               2AZ
204708000204708               204708               170213MP     1400+00000+MP0000001314+0000001314+000000000+000000184+0000001490+0000000008+I20000000000+0000001490+Z
204708001204708046-000012     204708006904708013062BATTERIES AA  CARD-OF-40000001000+00001314+00000+0001T   00001314+0000000952          1400 HT53121IC            2AZ
204709000204709               204709               170213MP     1400+00000+MP0000004206+0000004206+000000000+000000590+0000004790+0000000006+I20000000000+0000004790+Z
204709001204709046-000012     204709006904708013062BATTERIES AA  CARD-OF-40000001000+00001314+00000+0001T   00001314+0000000953          1400 HT5312               2AZ
204709002204709046-002025-PK2 204709004897006174868BATTERIES CR-2025  2PCE0000001000+00001753+00000+0001T   00001753+0000000953          1400 HT5312               2AZ
204709003204709903-000710     204709006002099007056SWT REFRESHERS MINT    0000001000+00001139+00000+0001T   00001139+0000000953          1400 HT5150               2AZ
204710000204710               204710               170213MP     1400+00000+MP0000021085+0000021085+000000000+000002958+0000024043+0000000000+I40000024043+0000000000+Z
204710001204710112-116069     204710006009681820277TCS CARRIER BAG JUMBO  0000001000+00000048+00000+0001T   00000048+0000001003          1400 HT5090               2AZ
204710002204710108-005005     204710006003000667451TRAY PL 29x21cm RECT   0000003000+00001753+00000+0001T   00001753+0000001003          1400 HT5210               2AZ
204710003204710019-000130     204710006003000456130PLANTER T/PLATE W/HNDL 0000004000+00001753+00000+0001T   00001753+0000001003          1400 HT5510               2AZ
204710004204710200-000031-A   204710006003000598717DISPOSABLE ROLL FOIL   0000001000+00002630+00000+0001T   00002630+0000001003          1400 HT5214               2AZ
204710005204710206-000290     204710006003000632541BOTTLE OPENER SILICONE 0000001000+00002630+00000+0001T   00002630+0000001003          1400 HT5321               2AZ
204710006204710200-000020     204710006925406841030BAG ZIPPERSEAL 25PC    0000001000+00002192+00000+0001T   00002192+0000001003          1400 HT5214               2AZ
204710007204710046-000012     204710006904708013062BATTERIES AA  CARD-OF-40000001000+00001314+00000+0001T   00001314+0000001003          1400 HT5312               2AZ
204711000204711               204711               170213MP     1400+00000+MP0000005260+0000005260+000000000+000000738+0000005990+0000000008+I20000000000+0000005990+Z
204711001204711077-000115-B   204711006003000181025GIFT-WRAP PPR 700MMX2M 0000002000+00002630+00000+0001T   00002630+0000001010          1400 HT5112               2AZ
204712000204712               204712               170213MP     1400+00000+MP0000001753+0000001753+000000000+000000246+0000001990+0000000009+I20000000000+0000001990+Z
204712001204712077-000290     204712006001023902023GIFT BOX 26x32x13cm    0000001000+00001753+00000+0001T   00001753+0000001044          1400 HT5112               2AZ
204713000204713               204713               170213MP     1400+00000+MP0000000048+0000000048+000000000+000000007+0000000050+0000000005+I20000000000+0000000050+Z
204713001204713112-116069     204713006009681820277TCS CARRIER BAG JUMBO  0000001000+00000048+00000+0001T   00000048+0000001046          1400 HT5090               2AZ
204714000204714               204714               170213MP     1400+00000+MP0000000874+0000000874+000000000+000000124+0000000990+0000000008+I20000000000+0000000990+Z
204714001204714071-000325     204714006009635844090RULER PLASTIC 30cm     0000002000+00000437+00000+0001T   00000437+0000001104          1400 HT5130               2AZ
204715000204715               204715               170213MP     1400+00000+MP0000003507+0000003507+000000000+000000491+0000003990+0000000008+I20000000000+0000003990+Z
204715001204715105-007800     204715006002923018913STORAGE BOX CLEAR 5.5L 0000001000+00003507+00000+0001T   00003507+0000001113          1400 HT5210               2AZ
204716000204716               204716               170213MP     1400+00000+MP0000002630+0000002630+000000000+000000369+0000002990+0000000009+I20000000000+0000002990+Z
204716001204716027-009025     204716006003962000747DUSTPAN-SET PL         0000001000+00002630+00000+0001T   00002630+0000001148          1400 HT5212               2AZ
204717000204717               204717               170213MP     1400+00000+MP0000000048+0000000048+000000000+000000007+0000000050+0000000005+I20000000000+0000000050+Z
204717001204717112-116069     204717006009681820277TCS CARRIER BAG JUMBO  0000001000+00000048+00000+0001T   00000048+0000001149          1400 HT5090               2AZ
204718000204718               204718               170213MP     1400+00000+MP0000002626+0000002626+000000000+000000368+0000002990+0000000004+I20000000000+0000002990+Z
204718001204718304-001011     204718006001023806727FLWR ROSE RED W/BEAR   0000002000+00000613+00000+0001T   00000788+0006471200          1400 HT5510               2AZ
204718002204718018-000177     204718006001023797513MUG MINI LOVE ASSTD    0000002000+00000700+00000+0001T   00000700+0000001200          1400 HT5515               2AZ
204719000204719               204719               170213MP     1400+00000+MP0000011009+0000011009+000000000+000001543+0000012550+0000000002+I20000000000+0000012550+Z
204719001204719112-116069     204719006009681820277TCS CARRIER BAG JUMBO  0000001000+00000048+00000+0001T   00000048+0000001211          1400 HT5090               2AZ
204719002204719024-000002     204719006001023741899S/BURNER-COVER SILV/BLK0000001000+00003946+00000+0001T   00004385+0008191211          1400 HT5300               2AZ
204719003204719306-000006     204719006001023776440DENTAL FLOSS PICKS 50PC0000001000+00001753+00000+0001T   00001753+0000001211          1400 HT5200               2AZ
204719004204719303-000806     204719006001023409768COW-BELL BRASS(5BELLS) 0000001000+00005262+00000+0001T   00005262+0000001211          1400 HT5510               2AZ
204720000204720               204720               170213MP     1400+00000+MP0000005260+0000005260+000000000+000000738+0000005990+0000000008+I20000000000+0000005990+Z
204720001204720108-003024     204720006003000667284TUMBLER W/STRAW 450ML  0000002000+00002630+00000+0001T   00002630+0000001321          1400 HT5210               2AZ
204721000204721               204721               170213MP     1400+00000+MP0000005469+0000005469+000000000+000000768+0000006237+0000000000+I40000006237+0000000000+Z
204721001204721112-116038     204721006009681820246TCS CARRIER BAG MIDI   0000001000+00000035+00000+0001T   00000035+0000001330          1400 HT50902IC            2AZ
204721002204721080-000112     204721006003000252749CARD&ENVLP BDAY-MUSICAL0000001000+00001753+00000+0001T   00001753+0000001330          1400 HT5112               2AZ
204721003204721563-000317-C   204721006001023776204SERVIETTES 20PK  FLOWER0000001000+00002630+00000+0001T   00002630+0000001330          1400 HT5214               2AZ
204721004204721903-002852     204721000000087108040MENTOS ROLL SPEARMINT  0000001000+00001051+00000+0001T   00001051+0000001330          1400 HT5150               2AZ
204722000204722               204722               170213MP     1400+00000+MP0000004996+0000004996+000000000+000000701+0000005690+0000000007+I20000000000+0000005690+Z
204722001204722089-000145     204722006003000576616K/CHAIN LIGHT W/COMPASS0000001000+00002630+00000+0001T   00003069+0008121331          1400 HT5205               2AZ
204722002204722903-003075     204722003800065783125SWT CHOC FAFL WAFER 52g0000001000+00000876+00000+0001T   00000876+0000001331          1400 HT5150               2AZ
204722003204722089-001021     204722006003000112319KEY CHAIN MINI BIBLE   0000001000+00001490+00000+0001T   00001490+0000001331          1400 HT5205               2AZ
204723000204723               204723               170213MP     1400+00000+MP0000003069+0000003069+000000000+000000430+0000003499+0000000000+I40000003499+0000000000+Z
204723001204723105-001028     204723006003000675470LUNCH BOX W/CLIPS      0000001000+00003069+00000+0001T   00003069+0000001357          1400 HT5210               2AZ
204724000204724               204724               170213MP     1400+00000+MP0000003506+0000003506+000000000+000000492+0000003998+0000000000+I40000003998+0000000000+Z
204724001204724088-000084     204724006001023798060P/POURRI 120G ASSTD    0000002000+00001753+00000+0001T   00001753+0000001359          1400 HT5212               2AZ
204725000204725               204725               170213MP     1400+00000+MP0000007185+0000007185+000000000+000001008+0000008193+0000000000+I40000008193+0000000000+Z
204725001204725903-000099     204725006923431501646SWT CANDY GS WTCH B/LET0000004000+00000262+00000+0001T   00000262+0000001401          1400 HT5150               2AZ
204725002204725562-000010     204725006001023762528KID'S PLAY DOUGH       0000001000+00002630+00000+0001T   00002630+0000001401          1400 HT5755               2AZ
204725003204725562-000020     204725006003000600861EDU PLAY DOUGH 60g 4PC 0000001000+00003507+00000+0001T   00003507+0000001401          1400 HT5755               2AZ
204726000204726               204726               170213MP     1400+00000+MP0000009485+0000009485+000000000+000001337+0000010820+0000000002+I20000000000+0000010820+Z
204726001204726903-000155     204726006009803374435SWT LOLLY I LUV U HEART0000018000+00000525+00000+0001T   00000525+0000001403          1400 HT5150               2AZ
204726002204726112-116038     204726006009681820246TCS CARRIER BAG MIDI   0000001000+00000035+00000+0001T   00000035+0000001403          1400 HT5090               2AZ
204727000204727               204727               170213MP     1400+00000+MP0000008352+0000008352+000000000+000001177+0000009529+0000000000+I40000009529+0000000000+Z
204727001204727112-116038     204727006009681820246TCS CARRIER BAG MIDI   0000001000+00000035+00000+0001T   00000035+0000001411          1400 HT5090               2AZ
204727002204727903-000200     204727006009826020234SWT CHOC RP CHOCO 23G  0000010000+00000788+00000+0001T   00000788+0000001411          1400 HT5150               2AZ
204727003204727080-000133-A   204727006003000647019MINI VALENTINES CARD   0000001000+00000437+00000+0001T   00000437+0000001411          1400 HT5112               2AZ
204728000204728               204728               170213MP     1400+00000+MP0000000876+0000000876+000000000+000000123+0000000990+0000000009+I20000000000+0000000990+Z
204728001204728077-000408     204728006003000145218G/BAG PP 15X21X7CM     0000001000+00000876+00000+0001T   00000876+0000001415          1400 HT5112               2AZ
204729000204729               204729               170213MP     1400+00000+MP0000001051+0000001051+000000000+000000148+0000001190+0000000009+I20000000000+0000001190+Z
204729001204729903-002890     204729008935001721352MENTOS GUM PURE F/MINT 0000001000+00001051+00000+0001T   00001051+0000001416          1400 HT5150               2AZ
204730000204730               204730               170213MP     1400+00000+MP0000008097+0000008097+000000000+000001136+0000009233+0000000000+I40000009233+0000000000+Z
204730001204730903-000121     204730006002099001689SWT GS ZILLIONS SOURS  0000001000+00000700+00000+0001T   00000700+0000001427          1400 HT5150               2AZ
204730002204730903-000137     204730006002099004130SWEET GS JELLY BEAN 60G0000001000+00000788+00000+0001T   00000788+0000001427          1400 HT5150               2AZ
204730003204730562-000009     204730000730589212029PLAY MODELLING CARDED  0000002000+00002455+00000+0001T   00002455+0000001427          1400 HT5755               2AZ
204730004204730903-000137     204730006002099004130SWEET GS JELLY BEAN 60G0000001000+00000788+00000+0001T   00000788+0000001427          1400 HT5150               2AZ
204730005204730112-116038     204730006009681820246TCS CARRIER BAG MIDI   0000001000+00000035+00000+0001T   00000035+0000001427          1400 HT5090               2AZ
204730006204730903-000810     204730006009680772249SWT FROOTEEZ SOUR 50g  0000001000+00000876+00000+0001T   00000876+0000001427          1400 HT5150               2AZ
204731000204731               204731               170213MP     1400+00000+MP0000004820+0000004820+000000000+000000676+0000005496+0000000000+I40000005496+0000000000+Z
204731001204731051-002402     204731006001023518347TRIGGER-SPRAYER  500ml 0000002000+00001753+00000+0001T   00001753+0000001451          1400 HT5820               2AZ
204731002204731306-001690     204731006003000620937EYELASH CURLERS        0000001000+00001314+00000+0001T   00001753+0008171451          1400 HT5200               2AZ
204732000204732               204732               170213MP     1400+00000+MP0000014382+0000014382+000000000+000002015+0000016390+0000000007+I20000000000+0000016390+Z
204732001204732304-001011     204732006001023806727FLWR ROSE RED W/BEAR   0000001000+00000613+00000+0001T   00000788+0006471506          1400 HT5510               2AZ
204732002204732368-000113     204732006001023780874PLUSH BLINGED LOVE 30cm0000001000+00012279+00000+0001T   00012279+0000001506          1400 HT5745               2AZ
204732003204732077-000299     204732006003000395576G/BAG 32x25cm LRG LOVE 0000001000+00001490+00000+0001T   00001490+0000001506          1400 HT5112               2AZ
204733000204733               204733               170213MP     1400+00000+MP0000001226+0000001226+000000000+000000172+0000001390+0000000008+I20000000000+0000001390+Z
204733001204733304-001011     204733006001023806727FLWR ROSE RED W/BEAR   0000002000+00000613+00000+0001T   00000788+0006471507          1400 HT5510               2AZ
204734000204734               204734               170213MP     1400+00000+MP0000001837+0000001837+000000000+000000259+0000002096+0000000000+I40000002096+0000000000+Z
204734001204734079-009702-B   204734008427973059491PAPER SIRIO A2 WHITE   0000001000+00001051+00000+0001T   00001051+0000001509          1400 HT5130               2AZ
204734002204734903-000099     204734006923431501646SWT CANDY GS WTCH B/LET0000003000+00000262+00000+0001T   00000262+0000001509          1400 HT5150               2AZ
204735000204735               204735               170213MP     1400+00000+MP0000001924+0000001924+000000000+000000272+0000002190+0000000006+I20000000000+0000002190+Z
204735001204735903-000094     204735006923431501622SWT GS CANDY NECKLACE  0000002000+00000437+00000+0001T   00000437+0000001519          1400 HT5150               2AZ
204735002204735903-000099     204735006923431501646SWT CANDY GS WTCH B/LET0000001000+00000262+00000+0001T   00000262+0000001519          1400 HT5150               2AZ
204735003204735903-000200     204735006009826020234SWT CHOC RP CHOCO 23G  0000001000+00000788+00000+0001T   00000788+0000001519          1400 HT5150               2AZ
204736000204736               204736               170213MP     1400+00000+MP0000005698+0000005698+000000000+000000798+0000006490+0000000006+I20000000000+0000006490+Z
204736001204736018-000136     204736006001023659026MUG OCC LOVE W/PLUSH   0000001000+00003507+00000+0001T   00003507+0000001522          1400 HT5515               2AZ
204736002204736077-000303     204736006001023593757GIFT-BAG PAPER MED     0000001000+00001578+00000+0001T   00001578+0000001522          1400 HT5112               2AZ
204736003204736304-001011     204736006001023806727FLWR ROSE RED W/BEAR   0000001000+00000613+00000+0001T   00000788+0006471522          1400 HT5510               2AZ
204737000204737               204737               170213MP     1400+00000+MP0000007016+0000007016+000000000+000000983+0000007990+0000000009+I20000000000+0000007990+Z
204737001204737562-000002     204737006001023491015COUNTING-FRAME 30x20cm 0000001000+00007016+00000+0001T   00007016+0000001522          1400 HT5755               2AZ
204738000204738               204738               170213MP     1400+00000+MP0000008640+0000008640+000000000+000001210+0000009850+0000000000+I20000000000+0000009850+Z
204738001204738077-000303     204738006001023593757GIFT-BAG PAPER MED     0000001000+00001578+00000+0001T   00001578+0000001524          1400 HT5112               2AZ
204738002204738018-000136     204738006001023659026MUG OCC LOVE W/PLUSH   0000002000+00003507+00000+0001T   00003507+0000001524          1400 HT5515               2AZ
204738003204738112-116069     204738006009681820277TCS CARRIER BAG JUMBO  0000001000+00000048+00000+0001T   00000048+0000001524          1400 HT5090               2AZ
204739000204739               204739               170213MP     1400+00000+MP0000008803+0000008803+000000000+000001233+0000010036+0000000000+I40000010036+0000000000+Z
204739001204739903-000083     204739006001704014090SWT TUBE SPECKLED 115G 0000004000+00002192+00000+0001T   00002192+0000001525          1400 HT5150               2AZ
204739002204739112-116038     204739006009681820246TCS CARRIER BAG MIDI   0000001000+00000035+00000+0001T   00000035+0000001525          1400 HT5090               2AZ
204740000204740               204740               170213MP     1400+00000+MP0000003244+0000003244+000000000+000000455+0000003690+0000000009+I20000000000+0000003690+Z
204740001204740567-011513     204740009781445430409BK FOOD PAR 100 RECIPES0000001000+00003244+00000+0001T   00003244+0000001527          1400 HT5757               2AZ
204741000204741               204741               170213MP     1400+00000+MP0000010307+0000010307+000000000+000001445+0000011750+0000000002+I20000000000+0000011750+Z
204741001204741562-000002     204741006001023491015COUNTING-FRAME 30x20cm 0000001000+00007016+00000+0001T   00007016+0000001529          1400 HT5755               2AZ
204741002204741071-000307     204741006003000535118RULER FLEXI 30cm       0000001000+00001490+00000+0001T   00001490+0000001529          1400 HT5130               2AZ
204741003204741071-010481     204741006001023417220MAGNIFYING-GLASS 90mm-D0000001000+00001753+00000+0001T   00001753+0000001529          1400 HT5130               2AZ
204741004204741112-116069     204741006009681820277TCS CARRIER BAG JUMBO  0000001000+00000048+00000+0001T   00000048+0000001529          1400 HT5090               2AZ
204742000204742               204742               170213MP     1400+00000+MP0000003713+0000003713+000000000+000000521+0000004230+0000000004+I20000000000+0000004230+Z
204742001204742077-000311     204742006001023608666GIFT-BAG 11X14CM GLOSS 0000006000+00000613+00000+0001T   00000613+0000001530          1400 HT5112               2AZ
204742002204742112-116038     204742006009681820246TCS CARRIER BAG MIDI   0000001000+00000035+00000+0001T   00000035+0000001530          1400 HT5090               2AZ
204743000204743               204743               170213MP     1400+00000+MP0000000876+0000000876+000000000+000000123+0000000990+0000000009+I20000000000+0000000990+Z
204743001204743077-000011-D   204743006001023808554TISSUE-WRAP WHITE 10PCE0000001000+00000876+00000+0001T   00000876+0000001531          1400 HT5112               2AZ
204744000204744               204744               170213MP     1400+00000+MP0000001227+0000001227+000000000+000000172+0000001390+0000000009+I20000000000+0000001390+Z
204744001204744903-000111     204744006001704006378SWT LIQUORICE-TWISTS   0000001000+00001227+00000+0001T   00001227+0000001531          1400 HT5150               2AZ
204745000204745               204745               170213MP     1400+00000+MP0000007629+0000007629+000000000+000001069+0000008690+0000000008+I20000000000+0000008690+Z
204745001204745018-050000     204745006003000412679MUG OCC LOVE TWIN BEAR 0000001000+00006139+00000+0001T   00006139+0000001535          1400 HT5515               2AZ
204745002204745077-000299     204745006003000395576G/BAG 32x25cm LRG LOVE 0000001000+00001490+00000+0001T   00001490+0000001535          1400 HT5112               2AZ
204746000204746               204746               170213MP     1400+00000+MP0000017539+0000017539+000000000+000002457+0000019990+0000000006+I20000000000+0000019990+Z
204746001204746077-000270     204746006003000395453GIFT-BAG PPR JMB 33X45 0000001000+00002630+00000+0001T   00002630+0000001544          1400 HT5112               2BZ
204746002204746301-085004     204746006003000420469ORN LOVE PLAQUE 21X10CM0000001000+00003507+00000+0001T   00003946+0006471544          1400 HT5505               2BZ
204746003204746368-000637     204746006001023874092PLUSH BEAR SLEEPING LOV0000001000+00011402+00000+0001T   00012279+0006471544          1400 HT5745               2BZ
204747000204747               204747               170213MP     1400+00000+MP0000000613+0000000613+000000000+000000086+0000000690+0000000009+I20000000000+0000000690+Z
204747001204747304-001011     204747006001023806727FLWR ROSE RED W/BEAR   0000001000+00000613+00000+0001T   00000788+0006471547          1400 HT5510               2AZ
204748000204748               204748               170213MP     1400+00000+MP0000001752+0000001752+000000000+000000246+0000001990+0000000008+I20000000000+0000001990+Z
204748001204748039-000319-8   204748006003000443222B/CANDLES LRG NUMBER-8 0000001000+00000876+00000+0001T   00000876+0000001551          1400 HT5510               2BZ
204748002204748039-000319-2   204748006003000442508B/CANDLES LRG NUMBER-2 0000001000+00000876+00000+0001T   00000876+0000001551          1400 HT5510               2BZ
204749000204749               204749               170213MP     1400+00000+MP0000005169+0000005169+000000000+000000725+0000005890+0000000004+I20000000000+0000005890+Z
204749001204749006-001000     204749006003000093779HELIUM BALLOON FILL    0000002000+00000613+00000+0001T   00000613+0000001558          1400 HT5131               2BZ
204749002204749006-000173-A   204749006003000636235BALLOONS HELIUM 1PC BLK0000002000+00000218+00000+0001T   00000218+0000001558          1400 HT5131               2BZ
204749003204749018-005009     204749006001023725608MUG W/PLUSH-BEAR LOVE  0000001000+00003507+00000+0001T   00003507+0000001558          1400 HT5515               2BZ
204750000204750               204750               170213MP     1400+00000+MP0000003243+0000003243+000000000+000000455+0000003690+0000000008+I20000000000+0000003690+Z
204750001204750077-000311     204750006001023608666GIFT-BAG 11X14CM GLOSS 0000001000+00000613+00000+0001T   00000613+0000001653          1400 FL6112               2BZ
204750002204750080-000142     204750006003000662456CARD & ENV GIANT AFRI  0000001000+00002630+00000+0001T   00002630+0000001653          1400 FL6112               2BZ
204751000204751               204751               170213MP     1400+00000+MP0000006359+0000006359+000000000+000000891+0000007250+0000000000+I40000007250+0000000000+Z
204751001204751018-000136     204751006001023659026MUG OCC LOVE W/PLUSH   0000001000+00003507+00000+0001T   00003507+0000001655          1400 FL6515               2BZ
204751002204751077-000299     204751006003000395576G/BAG 32x25cm LRG LOVE 0000001000+00001490+00000+0001T   00001490+0000001655          1400 FL6112               2BZ
204751003204751566-000451     204751006001023788443STICKERS GLITTER ASSTD 0000001000+00001314+00000+0001T   00001753+0008151655          1400 FL6130               2BZ
204751004204751112-116069     204751006009681820277TCS CARRIER BAG JUMBO  0000001000+00000048+00000+0001T   00000048+0000001655          1400 FL6090               2BZ
204752000204752               204752               170213MP     1400+00000+MP0000000613+0000000613+000000000+000000086+0000000690+0000000009+I20000000000+0000000690+Z
204752001204752077-000311     204752006001023608666GIFT-BAG 11X14CM GLOSS 0000001000+00000613+00000+0001T   00000613+0000001657          1400 FL6112               2CZ
204753000204753               204753               170213MP     1400+00000+MP0000007016+0000007016+000000000+000000983+0000007990+0000000009+I20000000000+0000007990+Z
204753001204753266-008043     204753006003000474134BOYS FIG. P/SET 55pc   0000001000+00007016+00000+0001T   00007016+0000001658          1400 FL6710               2CZ
204754000204754               204754               170213MP     1400+00000+MP0000006084+0000006084+000000000+000000853+0000006937+0000000000+I40000006937+0000000000+Z
204754001204754018-030000     204754006003000421060MUG OCCASIONS LOVE 2PCE0000001000+00004385+00000+0001T   00004385+0000001707          1400 FL6515               2BZ
204754002204754903-000200     204754006009826020234SWT CHOC RP CHOCO 23G  0000001000+00000788+00000+0001T   00000788+0000001707          1400 FL6150               2BZ
204754003204754903-003075     204754003800065783125SWT CHOC FAFL WAFER 52g0000001000+00000876+00000+0001T   00000876+0000001707          1400 FL6150               2BZ
204754004204754112-116038     204754006003000534906TCS CARRIER BAG MIDI   0000001000+00000035+00000+0001T   00000035+0000001707          1400 FL6090               2BZ
204755000204755               204755               170213MP     1400+00000+MP0000001753+0000001753+000000000+000000246+0000001990+0000000009+I20000000000+0000001990+Z
204755001204755077-000472     204755006003000330133G-BAG DESGNR LRG 25X32 0000001000+00001753+00000+0001T   00001753+0000001724          1400 HT5112               2AZ
204756000204756               204756               170213MP     1400+00000+MP0000002630+0000002630+000000000+000000369+0000002990+0000000009+I20000000000+0000002990+Z
204756001204756107-003120     204756006003000676958BASIN W/HANDLES FLEXI  0000001000+00002630+00000+0001T   00002630+0000001730          1400 HT5210               2AZ
204757000204757               204757               170213MP     1400+00000+MP0000001227+0000001227+000000000+000000172+0000001390+0000000009+I20000000000+0000001390+Z
204757001204757903-000519     204757006001704012805SWT MS LIQ-O-GHETTI    0000001000+00001227+00000+0001T   00001227+0000001731          1400 HT5150               2AZ
204758000204758               204758               170213MP     1400+00000+MP0000005260+0000005260+000000000+000000737+0000005997+0000000000+I40000005997+0000000000+Z
204758001204758028-085275     204758006003000092611BBQ LIGHTER FLEXIBLE   0000001000+00003507+00000+0001T   00003507+0000001733          1400 HT5305               2AZ
204758002204758079-006500     204758006001023557186GLUE GLITTER 6/10 PCE  0000001000+00001753+00000+0001T   00001753+0000001733          1400 HT5130               2AZ
204759000204759               204759               170213MP     1400+00000+MP0000004731+0000004731+000000000+000000664+0000005390+0000000005+I20000000000+0000005390+Z
204759001204759077-000310     204759006001023608635GIFT-BAG 18X23CM GLOSS 0000001000+00001314+00000+0001T   00001314+0000001742          1400 HT5112               2AZ
204759002204759903-000087     204759006001704000161SWT SPECKLED-EGGS 50G  0000001000+00001139+00000+0001T   00001139+0000001742          1400 HT5150               2AZ
204759003204759903-000221     204759006001704007382SWT EENY-MEENY-MOS 60G 0000001000+00000876+00000+0001T   00000876+0000001742          1400 HT5150               2AZ
204759004204759903-000925     204759006009706300296SWT NOVELTY SURPRISE   0000001000+00001402+00000+0001T   00001402+0000001742          1400 HT5150               2AZ
204760000204760               204760               170213MP     1400+00000+MP0000001314+0000001314+000000000+000000184+0000001498+0000000000+I40000001498+0000000000+Z
204760001204760077-000310     204760006001023608635GIFT-BAG 18X23CM GLOSS 0000001000+00001314+00000+0001T   00001314+0000001745          1400 HT5112               2AZ
204761000204761               204761               170213MP     1400+00000+MP0000002013+0000002013+000000000+000000284+0000002290+0000000007+I20000000000+0000002290+Z
204761001204761903-000200     204761006009826020234SWT CHOC RP CHOCO 23G  0000002000+00000788+00000+0001T   00000788+0000001810          1400 HT5150               2AZ
204761002204761080-000133-A   204761006003000647019MINI VALENTINES CARD   0000001000+00000437+00000+0001T   00000437+0000001810          1400 HT5112               2AZ
A17021300                                          15520203MPSLAVE 2                       HT52IC
A17021301                                          19011435MPSLAVE 2                       HT51IC
B20470800                                          170213MP046-000012     09523481SLAVE 2     HT51IC0000002000+0000001000+0000000000000+
B20472100                                          170213MP112-116038     13293216SLAVE 2     HT52IC0000002000+0000001000+0000000000000+
M17021391                              CASH        MPSLAVE 2                       Z-REPORT No.    83TOTAL (Sales - Refunds)           3297.11       CASH TO BE BANKED                 2042.50       DEBIT CARDS                          0.00       CREDIT CARDS                      1254.61       Z-READING                         3297.11       AIRTIME DEBIT CARD SALES             0.00       AIRTIME CARD SALES                   0.00       OVERS/UNDERS                         0.00       AIRTIME CASH SALES                   0.00       GIFT CARDS                           0.00       GIFT CARD CASH SALES                 0.00       T O T A L  CASH PAYOUTS              0.00                                                                                                                                                                                                                                                                                                                                                      Z
M17021392                              CASH        MPABSENT                                                                                                                                                                                          ANNUAL LEAVE                                                                                                                                                                                    DAY OFF                                                                                                                                                                                         COMMENTS                                                                                                          R3297.11                                                                                                                                                                                                                                                                     Z
Y17021300                                          MP00000000289402+000058
ZMP17021320063 SLAVE 2      SALES DATA                     NEXT INVOICE NO.  204762 0083
X MP Slave 2 First invoice 204704 170213 Last invoice 204761 170213 Next invoice 204762 Total number of records 000000187 clbackup completed 20:06:33
