100001000100001               100001               170213N1     1400+00000+N10000002454+0000002454+000000000+000000344+0000002798+0000000000+I40000002798+0000000000+Z
100001001100001040-000212     100001006003000112418C/HOLDER RND T-LITE 6CM0000002000+00001227+00000+0001T   00001227+0000001711          1400 GH5510               1AZ
100002000100002               100002               170213N1     1400+00000+N10000004208+0000004208+000000000+000000590+0000004790+0000000008+I20000000000+0000004790+Z
100002001100002077-000315     100002006003000181186GIFT-BAG 20x28cm MATT  0000001000+00001578+00000+0001T   00001578+0000001711          1400 GH5112               1AZ
100002002100002077-000005-B   100002006003000326617PAPER TISSUE PATTERN   0000001000+00002630+00000+0001T   00002630+0000001711          1400 GH5112               1AZ
100003000100003               100003               170213N1     1400+00000+N10000001402+0000001402+000000000+000000197+0000001590+0000000009+I20000000000+0000001590+Z
100003001100003105-001005     100003006001023858214CONTAINERS MINI 6PCE   0000001000+00001402+00000+0001T   00001402+0000001712          1400 GH5210               1AZ
100004000100004               100004               170213N1     1400+00000+N10000007890+0000007890+000000000+000001107+0000008990+0000000007+I20000000000+0000008990+Z
100004001100004560-000202     100004006003000322008SNAKE PVC ASSTD        0000003000+00002630+00000+0001T   00002630+0000001712          1400 GH5745               1AZ
100005000100005               100005               170213N1     1400+00000+N10000002192+0000002192+000000000+000000307+0000002490+0000000009+I20000000000+0000002490+Z
100005001100005566-000352     100005006001023809261STICKERS LASER ASSTD   0000001000+00002192+00000+0001T   00002192+0000001713          1400 GH5130               1AZ
100006000100006               100006               170213N1     1400+00000+N10000016682+0000016682+000000000+000002341+0000019023+0000000000+I40000019023+0000000000+Z
100006001100006112-116038     100006006009681820246TCS CARRIER BAG MIDI   0000001000+00000035+00000+0001T   00000035+0000001715          1400 GH5090               1AZ
100006002100006007-000127     100006006009685853431BOOK H/COVER MEMO 144PG0000015000+00000876+00000+0001T   00000876+0000001715          1400 GH5130               1AZ
100006003100006018-005009     100006006001023725608MUG W/PLUSH-BEAR LOVE  0000001000+00003507+00000+0001T   00003507+0000001715          1400 GH5515               1AZ
100007000100007               100007               170213N1     1400+00000+N10000004292+0000004292+000000000+000000603+0000004895+0000000000+I40000004895+0000000000+Z
100007001100007077-000472     100007006003000330133G-BAG DESGNR LRG 25X32 0000001000+00001753+00000+0001T   00001753+0000001717          1400 GH5112               1AZ
100007002100007077-000010-D   100007006001023123886CREPE-PAPER WHITE      0000001000+00000788+00000+0001T   00000788+0000001717          1400 GH5112               1AZ
100007003100007080-000133-A   100007006003000647019MINI VALENTINES CARD   0000001000+00000437+00000+0001T   00000437+0000001717          1400 GH5112               1AZ
100007004100007903-000844     100007005010478432567SWT CANDY DL LUV HEARTS0000001000+00001314+00000+0001T   00001314+0000001717          1400 GH5150               1AZ
100008000100008               100008               170213N1     1400+00000+N10000023749+0000023749+000000000+000003327+0000027076+0000000000+I40000027076+0000000000+Z
100008001100008018-000129     100008006001023403353MUG OCC. LOVE V-SHAPE  0000001000+00002630+00000+0001T   00002630+0000001719          1400 GH5515               1AZ
100008002100008112-116053     100008006006438002399TCS CARRIER BAG 38L    0000001000+00000069+00000+0001T   00000069+0000001719          1400 GH5090               1AZ
100008003100008368-000637     100008006001023874092PLUSH BEAR SLEEPING LOV0000001000+00011402+00000+0001T   00012279+0006471719          1400 GH5745               1AZ
100008004100008030-004015     100008006003000467624PLAQUE WDN SIGN 30X20CM0000001000+00009648+00000+0001T   00009648+0000001719          1400 GH5505               1AZ
100009000100009               100009               170213N1     1400+00000+N10000007312+0000007312+000000000+000001024+0000008336+0000000000+I40000008336+0000000000+Z
100009001100009112-116038     100009006009681820246TCS CARRIER BAG MIDI   0000001000+00000035+00000+0001T   00000035+0000001721          1400 GH5090               1AZ
100009002100009251-000031     100009006001023515827MASKING-TAPE 24mmx40m  0000001000+00001578+00000+0001T   00001578+0000001721          1400 GH5810               1AZ
100009003100009018-000136     100009006001023659026MUG OCC LOVE W/PLUSH   0000001000+00003507+00000+0001T   00003507+0000001721          1400 GH5515               1AZ
100009004100009200-000025-A   100009006925406841054BAG ZIPPERSEAL 15PC    0000001000+00002192+00000+0001T   00002192+0000001721          1400 GH5214               1AZ
100010000100010               100010               170213N1     1400+00000+N10000003946+0000003946+000000000+000000553+0000004490+0000000009+I20000000000+0000004490+Z
100010001100010031-000902-B   100010006001023726285P/FRAME WDN OAK 10X15CM0000001000+00003946+00000+0001T   00003946+0000001722          1400 GH5510               1AZ
100011000100011               100011               170213N1     1400+00000+N10000004822+0000004822+000000000+000000676+0000005490+0000000008+I20000000000+0000005490+Z
100011001100011077-000456     100011006003000285549G/BAG METALLIC JMB EMB 0000001000+00002630+00000+0001T   00002630+0000001723          1400 GH5112               1AZ
100011002100011080-000127     100011006003000424351VALENTINES DAY 36x24CM 0000001000+00002192+00000+0001T   00002192+0000001723          1400 GH5112               1AZ
100012000100012               100012               170213N1     1400+00000+N10000011450+0000011450+000000000+000001604+0000013054+0000000000+I40000013054+0000000000+Z
100012001100012368-000637     100012006001023874092PLUSH BEAR SLEEPING LOV0000001000+00011402+00000+0001T   00012279+0006471726          1400 GH5745               1AZ
100012002100012112-116069     100012006009681820277TCS CARRIER BAG JUMBO  0000001000+00000048+00000+0001T   00000048+0000001726          1400 GH5090               1AZ
100013000100013               100013               170213N1     1400+00000+N10000006885+0000006885+000000000+000000965+0000007850+0000000000+I40000007850+0000000000+Z
100013001100013263-000015     100013006003000656097VEHICLES LAUNCH & GO   0000001000+00004385+00000+0001T   00004385+0000001728          1400 GH5710               1AZ
100013002100013304-001011     100013006001023806727FLWR ROSE RED W/BEAR   0000004000+00000613+00000+0001T   00000788+0006471728          1400 GH5510               1AZ
100013003100013112-116069     100013006009681820277TCS CARRIER BAG JUMBO  0000001000+00000048+00000+0001T   00000048+0000001728          1400 GH5090               1AZ
100014000100014               100014               170213N1     1400+00000+N10000010153+0000010153+000000000+000001423+0000011576+0000000000+I40000011576+0000000000+Z
100014001100014112-116053     100014006006438002399TCS CARRIER BAG 38L    0000001000+00000069+00000+0001T   00000069+0000001732          1400 GH5090               1AZ
100014002100014366-002701     100014006001023903136DRESS UP HAWAII FLOWER 0000001000+00001753+00000+0001T   00001753+0000001732          1400 GH5131               1AZ
100014003100014366-000256     100014006001023918406DRESS UP TIARA&EARRINGS0000001000+00003069+00000+0001T   00003069+0000001732          1400 GH5131               1AZ
100014004100014366-000125     100014006003000006786DRESSUP WINGS/WAND/BAND0000001000+00005262+00000+0001T   00005262+0000001732          1400 GH5131               1AZ
100015000100015               100015               170213N1     1400+00000+N10000004383+0000004383+000000000+000000615+0000004998+0000000000+I40000004998+0000000000+Z
100015001100015077-000472     100015006003000330133G-BAG DESGNR LRG 25X32 0000001000+00001753+00000+0001T   00001753+0000001734          1400 GH5112               1AZ
100015002100015018-000129     100015006001023403353MUG OCC. LOVE V-SHAPE  0000001000+00002630+00000+0001T   00002630+0000001734          1400 GH5515               1AZ
100016000100016               100016               170213N1     1400+00000+N10000016418+0000016418+000000000+000002300+0000018718+0000000000+I40000018718+0000000000+Z
100016001100016077-000310     100016006001023608635GIFT-BAG 18X23CM GLOSS 0000001000+00001314+00000+0001T   00001314+0000001737          1400 GH5112               1AZ
100016002100016264-000900     100016000090159850151MAISTO CAR 3" GLOW RIDE0000001000+00005262+00000+0001T   00005262+0000001737          1400 GH5710               1AZ
100016003100016903-000071     100016006001704001120SWT TOFFEE LIQURICE 35g0000004000+00000700+00000+0001T   00000700+0000001737          1400 GH5150               1AZ
100016004100016903-000070     100016006001704001106SWT TOFFEE CREAMY 35g  0000004000+00000700+00000+0001T   00000700+0000001737          1400 GH51501IC            1AZ
100016005100016565-004101     100016006003000548033BALL BOUNCING EGG      0000002000+00001490+00000+0001T   00001490+0000001737          1400 GH5745               1AZ
100016006100016903-000518     100016006001704012782SWT STRAWS S/BERRY 100g0000001000+00001227+00000+0001T   00001227+0000001737          1400 GH5150               1AZ
100016007100016112-116038     100016006009681820246TCS CARRIER BAG MIDI   0000001000+00000035+00000+0001T   00000035+0000001737          1400 GH5090               1AZ
100017000100017               100017               170213N1     1400+00000+N10000015729+0000015729+000000000+000002205+0000017934+0000000000+I40000017934+0000000000+Z
100017001100017080-000133-A   100017006003000647019MINI VALENTINES CARD   0000001000+00000437+00000+0001T   00000437+0000001741          1400 GH5112               1AZ
100017002100017206-000630     100017006003000631919SPECTACLE CLEANING BRUS0000001000+00001227+00000+0001T   00001227+0000001741          1400 GH5321               1AZ
100017003100017301-085002     100017006003000420704ORN OCC. LOVE BELL ASST0000001000+00001753+00000+0001T   00002630+0008121741          1400 GH5505               1AZ
100017004100017077-000239     100017006003000160419GIFT-RIBBON ROLL PEARL 0000001000+00001753+00000+0001T   00001753+0000001741          1400 GH5112               1AZ
100017005100017001-091415     100017006003000329113W/GLS OCC. LOVE 2PC 2800000001000+00008771+00000+0001T   00009648+0006471741          1400 GH5515               1AZ
100017006100017089-000019     100017006003000092291K/CHAIN MINI BOOT 13cm 0000001000+00001753+00000+0001T   00001753+0000001741          1400 GH5205               1AZ
100017007100017112-116038     100017006009681820246TCS CARRIER BAG MIDI   0000001000+00000035+00000+0001T   00000035+0000001741          1400 GH5090               1AZ
100018000100018               100018               170213N1     1400+00000+N10000003417+0000003417+000000000+000000480+0000003897+0000000000+I40000003897+0000000000+Z
100018001100018304-001011     100018006001023806727FLWR ROSE RED W/BEAR   0000001000+00000613+00000+0001T   00000788+0006471743          1400 GH5510               1AZ
100018002100018304-001204     100018006001023737984FLOWER OCC. TEDDY/ROSES0000002000+00001402+00000+0001T   00001490+0006471743          1400 GH5510               1AZ
100019000100019               100019               170213N1     1400+00000+N10000010745+0000010745+000000000+000001506+0000012250+0000000001+I20000000000+0000012250+Z
100019001100019368-000265     100019006001023750914PLUSH BEAR 23CM ASSTD C0000001000+00006139+00000+0001T   00006139+0000001744          1400 GH5745               1AZ
100019002100019080-000127     100019006003000424351VALENTINES DAY 36x24CM 0000001000+00002192+00000+0001T   00002192+0000001744          1400 GH5112               1AZ
100019003100019304-001011     100019006001023806727FLWR ROSE RED W/BEAR   0000001000+00000613+00000+0001T   00000788+0006471744          1400 GH5510               1AZ
100019004100019903-000619     100019006003000672455SWT LOLLY STR/BRRY 140G0000001000+00001753+00000+0001T   00001753+0000001744          1400 GH5150               1AZ
100019005100019112-116069     100019006009681820277TCS CARRIER BAG JUMBO  0000001000+00000048+00000+0001T   00000048+0000001744          1400 GH5090               1AZ
100020000100020               100020               170213N1     1400+00000+N10000006174+0000006174+000000000+000000865+0000007030+0000000009+I20000000000+0000007030+Z
100020001100020007-000890-17  100020006003000645671CALENDAR 2017 ASSTD    0000001000+00006139+00000+0001T   00006139+0000001746          1400 GH5130               1AZ
100020002100020112-116038     100020006009681820246TCS CARRIER BAG MIDI   0000001000+00000035+00000+0001T   00000035+0000001746          1400 GH5090               1AZ
100021000100021               100021               170213N1     1400+00000+N10000009256+0000009256+000000000+000001297+0000010553+0000000000+I40000010553+0000000000+Z
100021001100021016-006513     100021006003000295739S/JAR GLS EMBOSS. 950ML0000001000+00003069+00000+0001T   00003069+0000001749          1400 GH5300               1AZ
100021002100021018-050000     100021006003000412679MUG OCC LOVE TWIN BEAR 0000001000+00006139+00000+0001T   00006139+0000001749          1400 GH5515               1AZ
100021003100021112-116069     100021006009681820277TCS CARRIER BAG JUMBO  0000001000+00000048+00000+0001T   00000048+0000001749          1400 GH5090               1AZ
100022000100022               100022               170213N1     1400+00000+N10000008152+0000008152+000000000+000001144+0000009296+0000000000+I40000009296+0000000000+Z
100022001100022077-000456     100022006003000285549G/BAG METALLIC JMB EMB 0000001000+00002630+00000+0001T   00002630+0000001751          1400 GH5112               1AZ
100022002100022006-000800     100022006001023902801HAT CABARET 14x18cm    0000001000+00001753+00000+0001T   00001753+0000001751          1400 GH5131               1AZ
100022003100022079-013101     100022006001023863706CRAFT SET DIY PIPE-CLNR0000001000+00002630+00000+0001T   00002630+0000001751          1400 GH5130               1AZ
100022004100022565-000071     100022006003000643387NOVELTY WIND UP CHATTER0000001000+00001139+00000+0001T   00001139+0000001751          1400 GH5745               1AZ
100023000100023               100023               170213N1     1400+00000+N10000005260+0000005260+000000000+000000737+0000005990+0000000007+I20000000000+0000005990+Z
100023001100023565-000083     100023006003000643622NOVELTY GROW SNOW      0000001000+00001753+00000+0001T   00001753+0000001752          1400 GH5745               1AZ
100023002100023562-000052     100023006003000112333EDU EXCAVATION DIAMOND 0000001000+00003507+00000+0001T   00003507+0000001752          1400 GH5755               1AZ
100024000100024               100024               170213N1     1400+00000+N10000005260+0000005260+000000000+000000738+0000005990+0000000008+I20000000000+0000005990+Z
100024001100024104-000031     100024006003000614950BASKET PL 27x18x12cm   0000002000+00002630+00000+0001T   00002630+0000001755          1400 GH5210               1AZ
100025000100025               100025               170213N1     1400+00000+N10000004822+0000004822+000000000+000000676+0000005498+0000000000+I40000005498+0000000000+Z
100025001100025080-000133-A   100025006003000647019MINI VALENTINES CARD   0000001000+00000437+00000+0001T   00000437+0000001756          1400 GH5112               1AZ
100025002100025018-030000     100025006003000421060MUG OCCASIONS LOVE 2PCE0000001000+00004385+00000+0001T   00004385+0000001756          1400 GH5515               1AZ
100026000100026               100026               170213N1     1400+00000+N10000008379+0000008379+000000000+000001174+0000009553+0000000000+I40000009553+0000000000+Z
100026001100026112-116069     100026006009681820277TCS CARRIER BAG JUMBO  0000001000+00000048+00000+0001T   00000048+0000001758          1400 GH5090               1AZ
100026002100026018-050000     100026006003000412679MUG OCC LOVE TWIN BEAR 0000001000+00006139+00000+0001T   00006139+0000001758          1400 GH5515               1AZ
100026003100026080-000127     100026006003000424351VALENTINES DAY 36x24CM 0000001000+00002192+00000+0001T   00002192+0000001758          1400 GH5112               1AZ
100027000100027               100027               170213N1     1400+00000+N10000001753+0000001753+000000000+000000246+0000001990+0000000009+I20000000000+0000001990+Z
100027001100027077-000472     100027006003000330133G-BAG DESGNR LRG 25X32 0000001000+00001753+00000+0001T   00001753+0000001759          1400 GH5112               1AZ
100028000100028               100028               170213N1     1400+00000+N10000006577+0000006577+000000000+000000921+0000007498+0000000000+I40000007498+0000000000+Z
100028001100028080-000127     100028006003000424351VALENTINES DAY 36x24CM 0000001000+00002192+00000+0001T   00002192+0000001802          1400 GH5112               1AZ
100028002100028368-000001     100028006003000097982Plush Bear 25cm        0000001000+00004385+00000+0001T   00004385+0000001802          1400 GH5745               1AZ
100029000100029               100029               170213N1     1400+00000+N10000001227+0000001227+000000000+000000172+0000001390+0000000009+I20000000000+0000001390+Z
100029001100029079-000010     100029006001023173409P/CRAYONS 12-COL SHORT 0000001000+00001227+00000+0001T   00001227+0000001802          1400 GH5130               1AZ
100030000100030               100030               170213N1     1400+00000+N10000009679+0000009679+000000000+000001356+0000011030+0000000005+I20000000000+0000011030+Z
100030001100030112-116038     100030006009681820246TCS CARRIER BAG MIDI   0000001000+00000035+00000+0001T   00000035+0000001803          1400 GH5090               1AZ
100030002100030006-006019     100030006001023908193PARTY-SPRAY GLITTER    0000001000+00002630+00000+0001T   00002630+0000001803          1400 GH5131               1AZ
100030003100030162-093343     100030006001492933436#TAG KIDS PASTEL BEADED0000002000+00003507+00000+0001T   00003507+0000001803          1400 GH5160               1AZ
100031000100031               100031               170213N1     1400+00000+N10000006139+0000006139+000000000+000000860+0000006990+0000000009+I20000000000+0000006990+Z
100031001100031368-000175     100031006003000270316PLUSH BEAR 4 ASSTD 18CM0000001000+00006139+00000+0001T   00006139+0000001804          1400 GH5745               1AZ
100032000100032               100032               170213N1     1400+00000+N10000002192+0000002192+000000000+000000307+0000002490+0000000009+I20000000000+0000002490+Z
100032001100032563-000318-L   100032006003000407088SERVIETTES 33cm RED    0000001000+00002192+00000+0001T   00002192+0000001812          1400 GH5214               1AZ
109962000109962               109962               170213N1     1400+00000+N10000003117+0000003117+000000000+000000437+0000003550+0000000004+I20000000000+0000003550+Z
109962001109962002-000652     109962006001023553188M/SPOON WDN 3PC H/HOUSE0000001000+00003069+00000+0001T   00003069+0000000940          1400 GH5300               1AZ
109962002109962112-116069     109962006009681820277TCS CARRIER BAG JUMBO  0000001000+00000048+00000+0001T   00000048+0000000940          1400 GH5090               1AZ
109963000109963               109963               170213N1     1400+00000+N10000000700+0000000700+000000000+000000098+0000000790+0000000008+I20000000000+0000000790+Z
109963001109963564-000012     109963006001023130075BUBBLE BOTTLE MAGIC    0000001000+00000700+00000+0001T   00000700+0000000946          1400 GH5131               1AZ
109964000109964               109964               170213N1     1400+00000+N10000004645+0000004645+000000000+000000651+0000005296+0000000000+I40000005296+0000000000+Z
109964001109964903-000844     109964005010478432567SWT CANDY DL LUV HEARTS0000001000+00001314+00000+0001T   00001314+0000000950          1400 GH5150               1AZ
109964002109964024-000036     109964006001023477002MEASURING-JUG 500ml    0000001000+00001578+00000+0001T   00001578+0000000950          1400 GH5300               1AZ
109964003109964024-091100     109964006001023914224BAKING-CUPS PAPER 100PC0000001000+00001753+00000+0001T   00001753+0000000950          1400 GH5300               1AZ
109965000109965               109965               170213N1     1400+00000+N10000012764+0000012764+000000000+000001788+0000014552+0000000000+I40000014552+0000000000+Z
109965001109965030-000031-A   109965006003000457588PLAQUE W/WORDS ASSTD   0000001000+00004385+00000+0001T   00004823+0006470957          1400 GH5505               1AZ
109965002109965030-083576     109965006003000431236PLAQUE WDN GARDEN 12X8 0000001000+00002192+00000+0001T   00002192+0000000957          1400 GH5505               1AZ
109965003109965368-000104     109965006001023751348PLUSH BEAR RUFFLED-LOOK0000001000+00006139+00000+0001T   00006139+0000000957          1400 GH5745               1AZ
109965004109965112-116069     109965006009681820277TCS CARRIER BAG JUMBO  0000001000+00000048+00000+0001T   00000048+0000000957          1400 GH5090               1AZ
109966000109966               109966               170213N1     1400+00000+N10000018419+0000018419+000000000+000002579+0000020998+0000000000+I40000020998+0000000000+Z
109966001109966030-004015     109966006003000467624PLAQUE WDN SIGN 30X20CM0000001000+00009648+00000+0001T   00009648+0000000958          1400 GH5505               1AZ
109966002109966031-000925     109966006001023669995P/FRAME WDN WHITE W/WRD0000001000+00008771+00000+0001T   00008771+0000000958          1400 GH5510               1AZ
109967000109967               109967               170213N1     1400+00000+N10000002630+0000002630+000000000+000000369+0000002990+0000000009+I20000000000+0000002990+Z
109967001109967567-075466     109967009780263917444BK NOVEL ROMANCE       0000001000+00002630+00000+0001T   00002630+0000001008          1400 GH5757               1AZ
109968000109968               109968               170213N1     1400+00000+N10000002279+0000002279+000000000+000000320+0000002590+0000000009+I20000000000+0000002590+Z
109968001109968027-001020     109968006001246602519BROOM FLOOR W/HANDLE   0000001000+00002279+00000+0001T   00002279+0000001019          1400 GH5212               1AZ
109969000109969               109969               170213N1     1400+00000+N10000008275+0000008275+000000000+000001159+0000009434+0000000000+I40000009434+0000000000+Z
109969001109969304-001011     109969006001023806727FLWR ROSE RED W/BEAR   0000002000+00000613+00000+0001T   00000788+0006471026          1400 GH5510               1AZ
109969002109969018-005009     109969006001023725608MUG W/PLUSH-BEAR LOVE  0000002000+00003507+00000+0001T   00003507+0000001026          1400 GH5515               1AZ
109969003109969112-116038     109969006009681820246TCS CARRIER BAG MIDI   0000001000+00000035+00000+0001T   00000035+0000001026          1400 GH5090               1AZ
109970000109970               109970               170213N1     1400+00000+N10000009690+0000009690+000000000+000001360+0000011050+0000000000+I20000000000+0000011050+Z
109970001109970077-000115     109970006001023834225WRAP METALLIC 700mmx1m 0000004000+00001753+00000+0001T   00001753+0000001036          1400 GH5112               1AZ
109970002109970220-000032     109970006001023425065BUDGET TEASPOONS 12PCE 0000001000+00002630+00000+0001T   00002630+0000001036          1400 GH5300               1AZ
109970003109970112-116069     109970006009681820277TCS CARRIER BAG JUMBO  0000001000+00000048+00000+0001T   00000048+0000001036          1400 GH5090               1AZ
109971000109971               109971               170213N1     1400+00000+N10000001313+0000001313+000000000+000000185+0000001490+0000000008+I20000000000+0000001490+Z
109971001109971078-000025     109971008887013700064SUPERGLUE 3g 1PCE CARD 0000001000+00000876+00000+0001T   00000876+0000001048          1400 GH5810               1AZ
109971002109971080-000133-A   109971006003000647019MINI VALENTINES CARD   0000001000+00000437+00000+0001T   00000437+0000001048          1400 GH5112               1AZ
109972000109972               109972               170213N1     1400+00000+N10000023287+0000023287+000000000+000003262+0000026540+0000000009+I20000000000+0000026540+Z
109972001109972365-003060     109972006001023831255CASH-REGISTER B/O PL   0000001000+00017542+00000+0001T   00017542+0000001129          1400 GH5725               1AZ
109972002109972079-000280     109972006003000160723PAINT READYMIX 6PCE    0000001000+00002630+00000+0001T   00002630+0000001129          1400 GH5130               1AZ
109972003109972034-078800     109972006001023856555COOEY WET-WIPES 60PCE  0000001000+00001753+00000+0001T   00001753+0000001129          1400 GH5215               1AZ
109972004109972046-000012     109972006904708013062BATTERIES AA  CARD-OF-40000001000+00001314+00000+0001T   00001314+0000001129          1400 GH5312               1AZ
109972005109972112-116069     109972006009681820277TCS CARRIER BAG JUMBO  0000001000+00000048+00000+0001T   00000048+0000001129          1400 GH5090               1AZ
109973000109973               109973               170213N1     1400+00000+N10000004384+0000004384+000000000+000000614+0000004990+0000000008+I20000000000+0000004990+Z
109973001109973051-002400     109973006001023616180TRIGGER-SPRAYER 900ml  0000002000+00002192+00000+0001T   00002192+0000001136          1400 GH5820               1AZ
109974000109974               109974               170213N1     1400+00000+N10000004032+0000004032+000000000+000000566+0000004590+0000000008+I20000000000+0000004590+Z
109974001109974565-000070     109974006003000643691NOVELTY CREATURES 5cm  0000002000+00002016+00000+0001T   00002016+0000001137          1400 GH5745               1AZ
109975000109975               109975               170213N1     1400+00000+N10000000437+0000000437+000000000+000000062+0000000490+0000000009+I20000000000+0000000490+Z
109975001109975080-000133-A   109975006003000647019MINI VALENTINES CARD   0000001000+00000437+00000+0001T   00000437+0000001140          1400 GH5112               1AZ
109976000109976               109976               170213N1     1400+00000+N10000003069+0000003069+000000000+000000430+0000003499+0000000000+I40000003499+0000000000+Z
109976001109976024-000040     109976006001023332509MEASURING-JUG 2.00L    0000001000+00003069+00000+0001T   00003069+0000001153          1400 GH5300               1AZ
109977000109977               109977               170213N1     1400+00000+N10000003507+0000003507+000000000+000000491+0000003998+0000000000+I40000003998+0000000000+Z
109977001109977495-059703     109977000078257597031LOUNGER AIR-MAT ECONO  0000001000+00003507+00000+0001T   00003507+0000001155          1400 GH5787               1AZ
109978000109978               109978               170213N1     1400+00000+N10000005959+0000005959+000000000+000000836+0000006795+0000000000+I40000006795+0000000000+Z
109978001109978079-003003     109978006003000448005A/TUBE 75ML DARK GREEN 0000001000+00001753+00000+0001T   00001753+0000001157          1400 GH5130               1AZ
109978002109978079-003005     109978006003000448241A/TUBE 75ML BLUE       0000001000+00001753+00000+0001T   00001753+0000001157          1400 GH5130               1AZ
109978003109978079-003001     109978006003000448951A/TUBE 75ML BLACK      0000001000+00001753+00000+0001T   00001753+0000001157          1400 GH5130               1AZ
109978004109978903-000070     109978006001704001106SWT TOFFEE CREAMY 35g  0000001000+00000700+00000+0001T   00000700+0000001157          1400 GH5150               1AZ
109979000109979               109979               170213N1     1400+00000+N10000016515+0000016515+000000000+000002316+0000018831+0000000000+I40000018831+0000000000+Z
109979001109979050-000362-Z   109979006001023475275PADLOCK IRON 25mm CARD 0000001000+00002016+00000+0001T   00002016+0000001215          1400 GH5855               1AZ
109979002109979034-079078     109979006001023996565COOEY BABY MANICURE-SET0000001000+00003507+00000+0001T   00003507+0000001215          1400 GH5215               1AZ
109979003109979019-071597     109979006008766071597PEBBLES 250g CLEAR  BAG0000001000+00002192+00000+0001T   00002192+0000001215          1400 GH5510               1AZ
109979004109979019-071598     109979006001023693228PEBBLES GLS 250g WHITE 0000001000+00001753+00000+0001T   00001753+0000001215          1400 GH5510               1AZ
109979005109979019-071595     109979006001023756428PEBBLES 250g SKY-BLUE  0000001000+00001753+00000+0001T   00001753+0000001215          1400 GH5510               1AZ
109979006109979084-006995     109979006003000092802NAIL CLIPPER 8cm TOE   0000002000+00001753+00000+0001T   00001753+0000001215          1400 GH5200               1AZ
109979007109979046-000002     109979006001023585202BATTERIES SIZE:C   2PCE0000001000+00001753+00000+0001T   00001753+0000001215          1400 GH5312               1AZ
109979008109979112-116038     109979006009681820246TCS CARRIER BAG MIDI   0000001000+00000035+00000+0001T   00000035+0000001215          1400 GH5090               1AZ
109980000109980               109980               170213N1     1400+00000+N10000001753+0000001753+000000000+000000246+0000001990+0000000009+I20000000000+0000001990+Z
109980001109980024-091100     109980006001023914224BAKING-CUPS PAPER 100PC0000001000+00001753+00000+0001T   00001753+0000001358          1400 GH5300               1AZ
109981000109981               109981               170213N1     1400+00000+N10000016136+0000016136+000000000+000002261+0000018390+0000000007+I20000000000+0000018390+Z
109981001109981366-002006     109981006001023902696DRESS UP WIGS PARTY ASS0000002000+00007016+00000+0001T   00007016+0000001418          1400 GH5131               1AZ
109981002109981903-000095     109981006001704011495SWT SPECKLED-EGGS 100G 0000001000+00002104+00000+0001T   00002104+0000001418          1400 GH5150               1AZ
109982000109982               109982               170213N1     1400+00000+N10000003542+0000003542+000000000+000000496+0000004038+0000000000+I40000004038+0000000000+Z
109982001109982031-005853     109982006003000442416P/FRAME WDN TWIN HEARTS0000001000+00003507+00000+0001T   00003507+0000001445          1400 GH5510               1AZ
109982002109982112-116038     109982006009681820246TCS CARRIER BAG MIDI   0000001000+00000035+00000+0001T   00000035+0000001445          1400 GH5090               1AZ
109983000109983               109983               170213N1     1400+00000+N10000007717+0000007717+000000000+000001081+0000008798+0000000000+I40000008798+0000000000+Z
109983001109983077-000303     109983006001023593757GIFT-BAG PAPER MED     0000001000+00001578+00000+0001T   00001578+0000001448          1400 GH5112               1AZ
109983002109983368-000175     109983006003000270316PLUSH BEAR 4 ASSTD 18CM0000001000+00006139+00000+0001T   00006139+0000001448          1400 GH5745               1AZ
109984000109984               109984               170213N1     1400+00000+N10000003400+0000003400+000000000+000000477+0000003877+0000000000+I40000003877+0000000000+Z
109984001109984077-000472     109984006003000330133G-BAG DESGNR LRG 25X32 0000001000+00001753+00000+0001T   00001753+0000001450          1400 GH5112               1AZ
109984002109984077-000315     109984006003000181186GIFT-BAG 20x28cm MATT  0000001000+00001578+00000+0001T   00001578+0000001450          1400 GH5112               1AZ
109984003109984112-116053     109984006006438002399TCS CARRIER BAG 38L    0000001000+00000069+00000+0001T   00000069+0000001450          1400 GH5090               1AZ
109985000109985               109985               170213N1     1400+00000+N10000003816+0000003816+000000000+000000536+0000004350+0000000002+I20000000000+0000004350+Z
109985001109985006-000124     109985006003000625888BALLOONS 10PC MIX COL  0000001000+00001753+00000+0001T   00001753+0000001454          1400 GH5131               1AZ
109985002109985006-000812     109985006001023902832HAT CONE WITH TINSEL   0000001000+00000876+00000+0001T   00000876+0000001454          1400 GH5131               1AZ
109985003109985039-000322     109985006001023524157B/CANDLES W/HOLDERS 24 0000001000+00001139+00000+0001T   00001139+0000001454          1400 GH5510               1AZ
109985004109985112-116069     109985006009681820277TCS CARRIER BAG JUMBO  0000001000+00000048+00000+0001T   00000048+0000001454          1400 GH5090               1AZ
109986000109986               109986               170213N1     1400+00000+N10000010461+0000010461+000000000+000001467+0000011920+0000000008+I20000000000+0000011920+Z
109986001109986079-006494     109986006003000159864GLITTER GLUE 5PCE 11cm 0000001000+00001490+00000+0001T   00001490+0000001508          1400 GH5130               1AZ
109986002109986206-000120     109986006003000628308PEELER CARROT SHARPENER0000001000+00001753+00000+0001T   00001753+0000001508          1400 GH5321               1AZ
109986003109986566-000858     109986006001023760975STCKRS G/OUTLINE ASSTD 0000002000+00000788+00000+0001T   00000788+0000001508          1400 GH5130               1AZ
109986004109986566-002000     109986000721129013206STICKERS CRYSTAL ASSTD 0000003000+00000700+00000+0001T   00000700+0000001508          1400 GH5130               1AZ
109986005109986007-000324     10998600600968585864125 SHEETS BRIGHTS MARLI0000001000+00003507+00000+0001T   00003507+0000001508          1400 GH5130               1AZ
109986006109986112-116038     109986006009681820246TCS CARRIER BAG MIDI   0000001000+00000035+00000+0001T   00000035+0000001508          1400 GH5090               1AZ
109987000109987               109987               170213N1     1400+00000+N10000003507+0000003507+000000000+000000491+0000003990+0000000008+I20000000000+0000003990+Z
109987001109987261-003961     109987006003000550371GUN HAND COMBAT        0000001000+00003507+00000+0001T   00003507+0000001509          1400 GH5710               1AZ
109988000109988               109988               170213N1     1400+00000+N10000001578+0000001578+000000000+000000221+0000001790+0000000009+I20000000000+0000001790+Z
109988001109988018-000127     109988006001023380289MUG OCC STRAIGHT LOVE  0000001000+00001578+00000+0001T   00001753+0006471513          1400 GH5515               1AZ
109989000109989               109989               170213N1     1400+00000+N10000001753+0000001753+000000000+000000246+0000001990+0000000009+I20000000000+0000001990+Z
109989001109989077-000472     109989006003000330133G-BAG DESGNR LRG 25X32 0000001000+00001753+00000+0001T   00001753+0000001515          1400 GH5112               1AZ
109990000109990               109990               170213N1     1400+00000+N10000004385+0000004385+000000000+000000614+0000004990+0000000009+I20000000000+0000004990+Z
109990001109990047-002035-H   109990006001023586087P/ADAPTOR 3-WAY-2PIN   0000001000+00004385+00000+0001T   00004385+0000001516          1400 GH5880               1AZ
109991000109991               109991               170213N1     1400+00000+N10000031551+0000031551+000000000+000004420+0000035971+0000000000+I40000035971+0000000000+Z
109991001109991112-116053     109991006006438002399TCS CARRIER BAG 38L    0000001000+00000069+00000+0001T   00000069+0000001604          1400 GH5090               1AZ
109991002109991080-000127     109991006003000424351VALENTINES DAY 36x24CM 0000002000+00002192+00000+0001T   00002192+0000001604          1400 GH5112               1AZ
109991003109991368-000113     109991006001023780874PLUSH BLINGED LOVE 30cm0000001000+00012279+00000+0001T   00012279+0000001604          1400 GH5745               1AZ
109991004109991018-050000     109991006003000412679MUG OCC LOVE TWIN BEAR 0000001000+00006139+00000+0001T   00006139+0000001604          1400 GH5515               1AZ
109991005109991018-030000     109991006003000421060MUG OCCASIONS LOVE 2PCE0000001000+00004385+00000+0001T   00004385+0000001604          1400 GH5515               1AZ
109991006109991301-085008     109991006003000673933ORN OCC.LOVE TINSEL HRT0000001000+00003069+00000+0001T   00003069+0000001604          1400 GH5505               1AZ
109991007109991304-001011     109991006001023806727FLWR ROSE RED W/BEAR   0000002000+00000613+00000+0001T   00000788+0006471604          1400 GH5510               1AZ
109992000109992               109992               170213N1     1400+00000+N10000001139+0000001139+000000000+000000160+0000001290+0000000009+I20000000000+0000001290+Z
109992001109992903-000087     109992006001704000161SWT SPECKLED-EGGS 50G  0000001000+00001139+00000+0001T   00001139+0000001648          1400 GH5150               1AZ
109993000109993               109993               170213N1     1400+00000+N10000000788+0000000788+000000000+000000111+0000000890+0000000009+I20000000000+0000000890+Z
109993001109993903-000137     109993006002099004130SWEET GS JELLY BEAN 60G0000001000+00000788+00000+0001T   00000788+0000001658          1400 GH5150               1AZ
109994000109994               109994               170213N1     1400+00000+N10000009243+0000009243+000000000+000001295+0000010538+0000000000+I40000010538+0000000000+Z
109994001109994031-000924     109994006001023669964P/FRAME COLLAGE PL     0000001000+00008771+00000+0001T   00008771+0000001703          1400 GH5510               1AZ
109994002109994112-116038     109994006009681820246TCS CARRIER BAG MIDI   0000001000+00000035+00000+0001T   00000035+0000001703          1400 GH5090               1AZ
109994003109994083-000049     109994004891035200024CIG-LIGHTER DISPOSABLE 0000001000+00000437+00000+0001T   00000437+0000001703          1400 GH5315               1AZ
109995000109995               109995               170213N1     1400+00000+N10000006705+0000006705+000000000+000000942+0000007647+0000000000+I40000007647+0000000000+Z
109995001109995304-001011     109995006001023806727FLWR ROSE RED W/BEAR   0000005000+00000613+00000+0001T   00000788+0006471705          1400 GH5510               1AZ
109995002109995304-001204     109995006001023737984FLOWER OCC. TEDDY/ROSES0000001000+00001402+00000+0001T   00001490+0006471705          1400 GH5510               1AZ
109995003109995077-000472     109995006003000330133G-BAG DESGNR LRG 25X32 0000001000+00001753+00000+0001T   00001753+0000001705          1400 GH5112               1AZ
109995004109995080-000133-A   109995006003000647019MINI VALENTINES CARD   0000001000+00000437+00000+0001T   00000437+0000001705          1400 GH5112               1AZ
109995005109995112-116069     109995006009681820277TCS CARRIER BAG JUMBO  0000001000+00000048+00000+0001T   00000048+0000001705          1400 GH5090               1AZ
109996000109996               109996               170213N1     1400+00000+N10000001490+0000001490+000000000+000000209+0000001690+0000000009+I20000000000+0000001690+Z
109996001109996077-000305     109996006003000395422GIFT-BAG WINE 10X35CM  0000001000+00001490+00000+0001T   00001490+0000001705          1400 GH5112               1AZ
109997000109997               109997               170213N1     1400+00000+N10000019029+0000019029+000000000+000002667+0000021696+0000000000+I40000021696+0000000000+Z
109997001109997567-011900     109997006003000677535BK PROMO CLEARANCE     0000002000+00007893+00000+0001T   00007893+0000001707          1400 GH5757               1AZ
109997002109997080-000106     109997006003000237098CARD&ENVLPE BDAY GIRL  0000001000+00001753+00000+0001T   00001753+0000001707          1400 GH5112               1AZ
109997003109997077-000304     109997006001023483232GIFT-BAG 25X32CM E/DAY 0000001000+00001490+00000+0001T   00001490+0000001707          1400 GH5112               1AZ
109998000109998               109998               170213N1     1400+00000+N10000003942+0000003942+000000000+000000552+0000004490+0000000004+I20000000000+0000004490+Z
109998001109998903-000844     109998005010478432567SWT CANDY DL LUV HEARTS0000003000+00001314+00000+0001T   00001314+0000001707          1400 GH5150               1AZ
109999000109999               109999               170213N1     1400+00000+N10000010524+0000010524+000000000+000001474+0000011990+0000000008+I20000000000+0000011990+Z
109999001109999369-000821     109999006003000164431BABY SHAPE-SORTER RND  0000001000+00008771+00000+0001T   00008771+0000001709          1400 GH5745               1AZ
109999002109999077-000457     109999006003000285662G/BAG METALLIC JMB SOL 0000001000+00001753+00000+0001T   00001753+0000001709          1400 GH5112               1AZ
A17021300                                          08522589N1SLAVE 1                       GH52IC
A17021301                                          09161370N1SLAVE 1                       GH52IC
A17021302                                          09422666N1SLAVE 1                       GH52IC
A17021303                                          09533540N1SLAVE 1                       GH52IC
A17021304                                          10143124N1SLAVE 1                       GH52IC
A17021305                                          10332387N1SLAVE 1                       GH52IC
A17021306                                          11045104N1SLAVE 1                       GH52IC
A17021307                                          11571761N1SLAVE 1                       GH52IC
A17021308                                          12003746N1SLAVE 1                       GH52IC
A17021309                                          14465593N1SLAVE 1                       GH52IC
A17021310                                          18043885N1SLAVE 1                       GH52IC
B10001600                                          170213N1903-000070     17355101SLAVE 1     GH51IC0000005000+0000004000+0000000000000+
M17021391                              CASH        N1SLAVE 1                       Z-REPORT No.   625TOTAL (Sales - Refunds)           5703.41       CASH TO BE BANKED                 2118.20       DEBIT CARDS                          0.00       CREDIT CARDS                      3585.21       Z-READING                         5703.41       AIRTIME DEBIT CARD SALES             0.00       AIRTIME CARD SALES                   0.00       OVERS/UNDERS                         0.00       AIRTIME CASH SALES                   0.00       GIFT CARDS                           0.00       GIFT CARD CASH SALES                 0.00       T O T A L  CASH PAYOUTS              0.00                                                                                                                                                                                                                                                                                                                                                      Z
M17021392                              CASH        N1ABSENT                                                                                                                                                                                          ANNUAL LEAVE                                                                                                                                                                                    DAY OFF                                                                                                                                                                                         COMMENTS                                                                                                                                                                                                                                                                                                                                                                                       Z
Y17021300                                          N100000000500480+000070
ZN117021321113 SLAVE 1      SALES DATA                     NEXT INVOICE NO.  100033 0625
X N1 Slave 1 First invoice 109962 170213 Last invoice 100032 170213 Next invoice 100033 Total number of records 000000260 clbackup completed 21:11:41
