205729000205729               205729               170213N1     1400+00000+N10000014501+0000014501+000000000+000002031+0000016532+0000000000+I40000016532+0000000000+Z
205729001205729046-000012     205729006904708013062BATTERIES AA  CARD-OF-40000001000+00001314+00000+0001T   00001314+0000000947          1400 U46312               2AZ
205729002205729034-079090     205729006001023855503COOEY BRUSH+COMB-SET   0000001000+00004385+00000+0001T   00004385+0000000947          1400 U46215               2AZ
205729003205729018-000130     205729006001023867537MUG OCC LOVE MINI+HEART0000002000+00003507+00000+0001T   00003507+0000000947          1400 U46515               2AZ
205729004205729112-116038     205729006009681820246TCS CARRIER BAG MIDI   0000001000+00000035+00000+0001T   00000035+0000000947          1400 U46090               2AZ
205729005205729034-078800     205729006001023856555COOEY WET-WIPES 60PCE  0000001000+00001753+00000+0001T   00001753+0000000947          1400 U46215               2AZ
205730000205730               205730               170213N1     1400+00000+N10000002630+0000002630+000000000+000000369+0000002990+0000000009+I20000000000+0000002990+Z
205730001205730006-000111     205730006003000519385BALLOONS LARGE 12PCE   0000001000+00002630+00000+0001T   00002630+0000001033          1400 2IC131               2AZ
205731000205731               205731               170213N1     1400+00000+N10000004430+0000004430+000000000+000000621+0000005051+0000000000+I40000005051+0000000000+Z
205731001205731077-000011-C   205731006001023808523TISSUE 10xSHTS RED     0000001000+00000876+00000+0001T   00000876+0000001040          1400 2IC112               2AZ
205731002205731080-000127     205731006003000424351VALENTINES DAY 36x24CM 0000001000+00002192+00000+0001T   00002192+0000001040          1400 2IC112               2AZ
205731003205731077-000310     205731006001023608635GIFT-BAG 18X23CM GLOSS 0000001000+00001314+00000+0001T   00001314+0000001040          1400 2IC112               2AZ
205731004205731112-116069     205731006009681820277TCS CARRIER BAG JUMBO  0000001000+00000048+00000+0001T   00000048+0000001040          1400 2IC090               2AZ
205732000205732               205732               170213N1     1400+00000+N10000001753+0000001753+000000000+000000246+0000001990+0000000009+I20000000000+0000001990+Z
205732001205732077-000239     205732006003000160419GIFT-RIBBON ROLL PEARL 0000001000+00001753+00000+0001T   00001753+0000001041          1400 2IC112               2AZ
205733000205733               205733               170213N1     1400+00000+N10000001753+0000001753+000000000+000000246+0000001990+0000000009+I20000000000+0000001990+Z
205733001205733200-003024     205733006001023657299REFUSE BAGS 20PCE BLACK0000001000+00001753+00000+0001T   00001753+0000001103          1400 U46214               2AZ
205734000205734               205734               170213N1     1400+00000+N10000001314+0000001314+000000000+000000184+0000001490+0000000008+I20000000000+0000001490+Z
205734001205734046-000012     205734006904708013062BATTERIES AA  CARD-OF-40000001000+00001314+00000+0001T   00001314+0000001104          1400 U46312               2AZ
205735000205735               205735               170213N1     1400+00000+N10000001314+0000001314+000000000+000000184+0000001498+0000000000+I40000001498+0000000000+Z
205735001205735251-000001     205735006001023487681TAPE DBL-SIDE 18x1000mm0000001000+00001314+00000+0001T   00001314+0000001113          1400 U46810               2AZ
205736000205736               205736               170213N1     1400+00000+N10000003507+0000003507+000000000+000000491+0000003990+0000000008+I20000000000+0000003990+Z
205736001205736567-011445     205736009781847509772BK COLOURING DINOSAUR  0000001000+00003507+00000+0001T   00003507+0000001115          1400 U46757               2AZ
205737000205737               205737               170213N1     1400+00000+N10000006399+0000006399+000000000+000000898+0000007297+0000000000+I40000007297+0000000000+Z
205737001205737565-000081     205737006003000643493NOVELTY MUSICAL TUBE   0000002000+00002630+00000+0001T   00002630+0000001121          1400 U46745               2AZ
205737002205737903-000709     205737006002099007070SWT QUENCHERS FRUIT    0000001000+00001139+00000+0001T   00001139+0000001121          1400 U46150               2AZ
205738000205738               205738               170213N1     1400+00000+N10000018417+0000018417+000000000+000002580+0000020997+0000000000+I40000020997+0000000000+Z
205738001205738567-075497     205738009780799371895BK NOVEL ROMANCE AFR   0000001000+00006139+00000+0001T   00006139+0000001122          1400 U46757               2AZ
205738002205738567-075497     205738009780799371871BK NOVEL ROMANCE AFR   0000001000+00006139+00000+0001T   00006139+0000001122          1400 U46757               2AZ
205738003205738567-075497     205738009780799371864BK NOVEL ROMANCE AFR   0000001000+00006139+00000+0001T   00006139+0000001122          1400 U46757               2AZ
205739000205739               205739               170213N1     1400+00000+N10000028064+0000028064+000000000+000003931+0000031995+0000000000+I40000031995+0000000000+Z
205739001205739072-020238     205739006003000578009PET BED FLEECE X-LARGE 0000001000+00020174+00000+0001T   00020174+0000001145          1400 U46870               2AZ
205739002205739306-000007     205739006001023905093DENTAL FLOSS METHOL    0000001000+00001753+00000+0001T   00001753+0000001145          1400 U46200               2AZ
205739003205739072-020310     205739006001023701015PET TOY MINI TENNIS BAL0000001000+00003507+00000+0001T   00003507+0000001145          1400 U46870               2AZ
205739004205739200-000003     205739006003000532360DISPOSABLE BAG 100PC   0000001000+00002630+00000+0001T   00002630+0000001145          1400 U46214               2AZ
205740000205740               205740               170213N1     1400+00000+N10000003716+0000003716+000000000+000000522+0000004230+0000000008+I20000000000+0000004230+Z
205740001205740903-002853     205740000000087108019MENTOS ROLL MINT       0000001000+00001051+00000+0001T   00001051+0000001157          1400 U46150               2AZ
205740002205740560-000202     205740006003000322008SNAKE PVC ASSTD        0000001000+00002630+00000+0001T   00002630+0000001157          1400 U46745               2AZ
205740003205740112-116038     205740006009681820246TCS CARRIER BAG MIDI   0000001000+00000035+00000+0001T   00000035+0000001157          1400 U46090               2AZ
205741000205741               205741               170213N1     1400+00000+N10000004998+0000004998+000000000+000000700+0000005690+0000000008+I20000000000+0000005690+Z
205741001205741019-000128     205741006003000365364PLANTER GALV 2-ASSTD   0000001000+00004385+00000+0001T   00006139+0008171207          1400 U46510               2AZ
205741002205741083-000055     205741006003000003853LIGHTER ELCTRNC REFILBL0000001000+00000613+00000+0001T   00000613+0000001207          1400 U46315               2AZ
205742000205742               205742               170213N1     1400+00000+N10000010339+0000010339+000000000+000001450+0000011789+0000000000+I40000011789+0000000000+Z
205742001205742304-001204     205742006001023737984FLOWER OCC. TEDDY/ROSES0000002000+00001402+00000+0001T   00001490+0006471214          1400 U46510               2AZ
205742002205742077-000311     205742006001023608666GIFT-BAG 11X14CM GLOSS 0000002000+00000613+00000+0001T   00000613+0000001214          1400 U46112               2AZ
205742003205742077-000318     205742006001023609755GIFT-BAG 18X23CM E/D AN0000002000+00001227+00000+0001T   00001227+0000001214          1400 U46112               2AZ
205742004205742077-000322     205742006001023677532GIFT-BAG 18X23CM E/D FL0000001000+00001227+00000+0001T   00001227+0000001214          1400 U46112               2AZ
205742005205742018-000119     205742006003000336074MUG DAILY STRAIGHT     0000002000+00001314+00000+0001T   00001753+0008171214          1400 U46515               2AZ
205743000205743               205743               170213N1     1400+00000+N10000005259+0000005259+000000000+000000738+0000005990+0000000007+I20000000000+0000005990+Z
205743001205743077-000115     205743006001023834225WRAP METALLIC 700mmx1m 0000003000+00001753+00000+0001T   00001753+0000001216          1400 U46112               2AZ
205744000205744               205744               170213N1     1400+00000+N10000003945+0000003945+000000000+000000553+0000004490+0000000008+I20000000000+0000004490+Z
205744001205744007-000046     205744006009635831366DISPLAY-BOOK PL A4 30PG0000001000+00002192+00000+0001T   00002192+0000001220          1400 U46130               2AZ
205744002205744007-000192     205744006009635830062BOOK H/COVER A4 192PAGE0000001000+00001753+00000+0001T   00001753+0000001220          1400 U46130               2AZ
205745000205745               205745               170213N1     1400+00000+N10000004433+0000004433+000000000+000000621+0000005050+0000000004+I20000000000+0000005050+Z
205745001205745261-003901     205745006001023707451GUN SET PL POLICE+ACCES0000001000+00004385+00000+0001T   00004385+0000001222          1400 U46710               2AZ
205745002205745112-116069     205745006009681820277TCS CARRIER BAG JUMBO  0000001000+00000048+00000+0001T   00000048+0000001222          1400 U46090               2AZ
205746000205746               205746               170213N1     1400+00000+N10000000874+0000000874+000000000+000000124+0000000990+0000000008+I20000000000+0000000990+Z
205746001205746080-000133-A   205746006003000647019MINI VALENTINES CARD   0000002000+00000437+00000+0001T   00000437+0000001228          1400 U46112               2AZ
205747000205747               205747               170213N1     1400+00000+N10000002192+0000002192+000000000+000000307+0000002499+0000000000+I40000002499+0000000000+Z
205747001205747077-000920     205747006003000413812G/WRAP 700mmx2m BIRTHDA0000001000+00002192+00000+0001T   00002192+0000001235          1400 U46112               2AZ
205748000205748               205748               170213N1     1400+00000+N10000017610+0000017610+000000000+000002467+0000020077+0000000000+I40000020077+0000000000+Z
205748001205748368-000104     205748006001023751348PLUSH BEAR RUFFLED-LOOK0000001000+00006139+00000+0001T   00006139+0000001238          1400 U46745               2AZ
205748002205748466-001012     205748006001023508157CRICKET-SET SIZE-3     0000001000+00011402+00000+0001T   00011402+0000001238          1400 U46785               2AZ
205748003205748112-116053     205748006006438002399TCS CARRIER BAG 38L    0000001000+00000069+00000+0001T   00000069+0000001238          1400 U46090               2AZ
205749000205749               205749               170213N1     1400+00000+N10000001753+0000001753+000000000+000000246+0000001999+0000000000+I40000001999+0000000000+Z
205749001205749080-000102     205749006003000236855CARD&ENVLP FEMALE AFR  0000001000+00001753+00000+0001T   00001753+0000001239          1400 U46112               2AZ
205750000205750               205750               170213N1     1400+00000+N10000007890+0000007890+000000000+000001107+0000008990+0000000007+I20000000000+0000008990+Z
205750001205750072-020350     205750006001023598035PET DOG/CAT BOWL DOUBLE0000001000+00002630+00000+0001T   00002630+0000001240          1400 U46870               2AZ
205750002205750072-020276     205750006001023858474CAT LITTER-PAN PL      0000002000+00002630+00000+0001T   00002630+0000001240          1400 U46870               2AZ
205751000205751               205751               170213N1     1400+00000+N10000001226+0000001226+000000000+000000172+0000001390+0000000008+I20000000000+0000001390+Z
205751001205751304-001011     205751006001023806727FLWR ROSE RED W/BEAR   0000002000+00000613+00000+0001T   00000788+0006471241          1400 U46510               2AZ
205752000205752               205752               170213N1     1400+00000+N10000007455+0000007455+000000000+000001044+0000008490+0000000009+I20000000000+0000008490+Z
205752001205752002-000711     205752006003000442775C/BOARD WDN 24x33.5x1.60000001000+00007455+00000+0001T   00007455+0000001259          1400 U46300               2AZ
205753000205753               205753               170213N1     1400+00000+N10000003507+0000003507+000000000+000000491+0000003998+0000000000+I40000003998+0000000000+Z
205753001205753031-086102     205753006001023900722P/FRAME PL WORD-TOP 4AS0000001000+00003507+00000+0001T   00003507+0000001307          1400 U46510               2AZ
205754000205754               205754               170213N1     1400+00000+N10000001226+0000001226+000000000+000000172+0000001390+0000000008+I20000000000+0000001390+Z
205754001205754304-001011     205754006001023806727FLWR ROSE RED W/BEAR   0000002000+00000613+00000+0001T   00000788+0006471308          1400 U46510               2AZ
205755000205755               205755               170213N1     1400+00000+N10000002365+0000002365+000000000+000000332+0000002697+0000000000+I40000002697+0000000000+Z
205755001205755077-000310     205755006001023608635GIFT-BAG 18X23CM GLOSS 0000001000+00001314+00000+0001T   00001314+0000001310          1400 U46112               2AZ
205755002205755903-002851     205755000000087108538MENTOS ROLL STRAWBERRY 0000001000+00001051+00000+0001T   00001051+0000001310          1400 U46150               2AZ
205756000205756               205756               170213N1     1400+00000+N10000007893+0000007893+000000000+000001106+0000008999+0000000000+I40000008999+0000000000+Z
205756001205756050-004107-Z   205756006001023812629PADLOCK DISCUS S/S 70mm0000001000+00007893+00000+0001T   00007893+0000001311          1400 U46855               2AZ
205757000205757               205757               170213N1     1400+00000+N10000012279+0000012279+000000000+000001720+0000013999+0000000000+I40000013999+0000000000+Z
205757001205757368-000113     205757006001023780874PLUSH BLINGED LOVE 30cm0000001000+00012279+00000+0001T   00012279+0000001316          1400 U46745               2AZ
205758000205758               205758               170213N1     1400+00000+N10000010774+0000010774+000000000+000001513+0000012287+0000000000+I40000012287+0000000000+Z
205758001205758464-000253     205758006001023341402GAME LUDO       POLYBAG0000001000+00001314+00000+0001T   00001314+0000001322          1400 U46785               2AZ
205758002205758304-001011     205758006001023806727FLWR ROSE RED W/BEAR   0000001000+00000613+00000+0001T   00000788+0006471322          1400 U46510               2AZ
205758003205758077-000302     205758008010410010195GIFT-BAG 18X23CM E/D   0000001000+00000876+00000+0001T   00000876+0000001322          1400 U46112               2AZ
205758004205758077-000322     205758006001023677532GIFT-BAG 18X23CM E/D FL0000001000+00001227+00000+0001T   00001227+0000001322          1400 U46112               2AZ
205758005205758362-101405     205758006003000229703BEAD PLASTIC DIY SET   0000001000+00001753+00000+0001T   00001753+0000001322          1400 U46160               2AZ
205758006205758018-000170     205758006001023775528MUG OCC. LOVE 2PC MINI 0000001000+00002192+00000+0001T   00002192+0000001322          1400 U46515               2AZ
205758007205758080-000133-A   205758006003000647019MINI VALENTINES CARD   0000002000+00000437+00000+0001T   00000437+0000001322          1400 U46112               2AZ
205758008205758903-000099     205758006923431501646SWT CANDY GS WTCH B/LET0000001000+00000262+00000+0001T   00000262+0000001322          1400 U46150               2AZ
205758009205758903-000295     205758006001704002899SWT MS FRUITY RASCALS  0000001000+00000876+00000+0001T   00000876+0000001322          1400 U46150               2AZ
205758010205758903-000099     205758006923431501646SWT CANDY GS WTCH B/LET0000001000+00000262+00000+0001T   00000262+0000001322          1400 U46150               2AZ
205758011205758903-000151     205758006009803374411SWT SML RND R/BOW LOLLY0000001000+00000525+00000+0001T   00000525+0000001322          1400 U46150               2AZ
205759000205759               205759               170213N1     1400+00000+N10000008767+0000008767+000000000+000001228+0000009995+0000000000+I40000009995+0000000000+Z
205759001205759079-006498     205759006001023836151GLITTER SET 10PCE      0000001000+00003507+00000+0001T   00003507+0000001326          1400 U46130               2AZ
205759002205759567-011483     205759006003000663453BK COLOURING 96P SMURFS0000001000+00003507+00000+0001T   00003507+0000001326          1400 U46757               2AZ
205759003205759077-000472     205759006003000330133G-BAG DESGNR LRG 25X32 0000001000+00001753+00000+0001T   00001753+0000001326          1400 U46112               2AZ
205760000205760               205760               170213N1     1400+00000+N10000005679+0000005679+000000000+000000797+0000006476+0000000000+I40000006476+0000000000+Z
205760001205760077-000010-D   205760006001023123886CREPE-PAPER WHITE      0000001000+00000788+00000+0001T   00000788+0000001331          1400 U46112               2AZ
205760002205760077-000456     205760006003000285549G/BAG METALLIC JMB EMB 0000001000+00002630+00000+0001T   00002630+0000001331          1400 U46112               2AZ
205760003205760080-000127     205760006003000424351VALENTINES DAY 36x24CM 0000001000+00002192+00000+0001T   00002192+0000001331          1400 U46112               2AZ
205760004205760112-116053     205760006006438002399TCS CARRIER BAG 38L    0000001000+00000069+00000+0001T   00000069+0000001331          1400 U46090               2AZ
205761000205761               205761               170213N1     1400+00000+N10000003769+0000003769+000000000+000000529+0000004290+0000000008+I20000000000+0000004290+Z
205761001205761077-000381     205761006003000247707GIFT-BAG 25X32CM S/COL 0000001000+00001753+00000+0001T   00001753+0000001332          1400 U46112               2AZ
205761002205761565-000070     205761006003000643691NOVELTY CREATURES 5cm  0000001000+00002016+00000+0001T   00002016+0000001332          1400 U46745               2AZ
205762000205762               205762               170213N1     1400+00000+N10000002192+0000002192+000000000+000000307+0000002490+0000000009+I20000000000+0000002490+Z
205762001205762080-000127     205762006003000424351VALENTINES DAY 36x24CM 0000001000+00002192+00000+0001T   00002192+0000001338          1400 U46112               2AZ
205763000205763               205763               170213N1     1400+00000+N10000002630+0000002630+000000000+000000369+0000002990+0000000009+I20000000000+0000002990+Z
205763001205763903-000594     205763006003000564057SWT SWORD 18cm J/BEAN  0000001000+00002630+00000+0001T   00002630+0000001339          1400 U46150               2AZ
205764000205764               205764               170213N1     1400+00000+N10000004385+0000004385+000000000+000000614+0000004999+0000000000+I40000004999+0000000000+Z
205764001205764104-000030     205764006001023803481BASKET PL 28x20x12cm   0000001000+00004385+00000+0001T   00004385+0000001341          1400 U46210               2AZ
205765000205765               205765               170213N1     1400+00000+N10000003768+0000003768+000000000+000000529+0000004297+0000000000+I40000004297+0000000000+Z
205765001205765362-003000     205765006003000295258GIRL HEART NOTEBOOK    0000001000+00001753+00000+0001T   00002630+0008191345          1400 U46160               2AZ
205765002205765362-101405     205765006003000229703BEAD PLASTIC DIY SET   0000001000+00001753+00000+0001T   00001753+0000001345          1400 U46160               2AZ
205765003205765903-000099     205765006923431501646SWT CANDY GS WTCH B/LET0000001000+00000262+00000+0001T   00000262+0000001345          1400 U46150               2AZ
205766000205766               205766               170213N1     1400+00000+N10000004028+0000004028+000000000+000000565+0000004593+0000000000+I40000004593+0000000000+Z
205766001205766903-000099     205766006923431501646SWT CANDY GS WTCH B/LET0000001000+00000262+00000+0001T   00000262+0000001348          1400 U46150               2AZ
205766002205766464-000121     205766006003000640492PLAYING CARDS MINI     0000001000+00000700+00000+0001T   00000700+0000001348          1400 U46785               2AZ
205766003205766565-000889     205766006003000626953NOVELTY SPACE BALLOONS 0000001000+00001753+00000+0001T   00001753+0000001348          1400 U46745               2AZ
205766004205766903-000120     205766006002099001665SWEET GS ZILLIONS 50g  0000001000+00000700+00000+0001T   00000700+0000001348          1400 U46150               2AZ
205766005205766565-000044     205766006003000128280BARREL OF SLIME 100g   0000001000+00000613+00000+0001T   00000613+0000001348          1400 U46745               2AZ
205767000205767               205767               170213N1     1400+00000+N10000003243+0000003243+000000000+000000455+0000003690+0000000008+I20000000000+0000003690+Z
205767001205767077-000011-X   205767006001023809827TISSUE-WRAP SILVER 10PC0000001000+00001753+00000+0001T   00001753+0000001353          1400 U46112               2AZ
205767002205767077-000399     205767006003000139514GIFT BAG 18X23CM E/DAY 0000001000+00001490+00000+0001T   00001490+0000001353          1400 U46112               2AZ
205768000205768               205768               170213N1     1400+00000+N10000017573+0000017573+000000000+000002462+0000020030+0000000005+I20000000000+0000020030+Z
205768001205768004-071204     205768006003000624904USB IN-CAR CHARGER 2.1A0000001000+00003507+00000+0001T   00003507+0000001405          1400 U46310               2AZ
205768002205768001-091415     205768006003000329113W/GLS OCC. LOVE 2PC 2800000001000+00008771+00000+0001T   00009648+0006471405          1400 U46515               2AZ
205768003205768200-000104     205768006003000677412PICNIC CUPS PL 6PCE    0000002000+00002630+00000+0001T   00002630+0000001405          1400 U46214               2AZ
205768004205768112-116038     205768006009681820246TCS CARRIER BAG MIDI   0000001000+00000035+00000+0001T   00000035+0000001405          1400 U46090               2AZ
205769000205769               205769               170213N1     1400+00000+N10000006174+0000006174+000000000+000000865+0000007030+0000000009+I20000000000+0000007030+Z
205769001205769018-005007     205769006003000515516MUG OCC. LOVE W/HEARTS 0000001000+00006139+00000+0001T   00006139+0000001407          1400 U46515               2AZ
205769002205769112-116038     205769006009681820246TCS CARRIER BAG MIDI   0000001000+00000035+00000+0001T   00000035+0000001407          1400 U46090               2AZ
205770000205770               205770               170213N1     1400+00000+N10000002630+0000002630+000000000+000000369+0000002990+0000000009+I20000000000+0000002990+Z
205770001205770206-000620     205770006003000631797BACK SCRATCHER EXTEND  0000001000+00002630+00000+0001T   00002630+0000001415          1400 U46321               2AZ
205771000205771               205771               170213N1     1400+00000+N10000000437+0000000437+000000000+000000062+0000000490+0000000009+I20000000000+0000000490+Z
205771001205771080-000133-A   205771006003000647019MINI VALENTINES CARD   0000001000+00000437+00000+0001T   00000437+0000001416          1400 U46112               2AZ
205772000205772               205772               170213N1     1400+00000+N10000002630-0000002630-000000000+000000369-0000003000-0000000001+I20000000000+0000003000-Z
205772001205772006-000111     205772006003000519385BALLOONS LARGE 12PCE   0000001000-00002630+00000+0001T   00002630+0000001418          1400 U461312IC            2 Z
205773000205773               205773               170213N1     1400+00000+N10000002240+0000002240+000000000+000000314+0000002550+0000000004+I20000000000+0000002550+Z
205773001205773080-000127     205773006003000424351VALENTINES DAY 36x24CM 0000001000+00002192+00000+0001T   00002192+0000001436          1400 U46112               2AZ
205773002205773112-116069     205773006009681820277TCS CARRIER BAG JUMBO  0000001000+00000048+00000+0001T   00000048+0000001436          1400 U46090               2AZ
205774000205774               205774               170213N1     1400+00000+N10000023713+0000023713+000000000+000003322+0000027035+0000000000+I40000027035+0000000000+Z
205774001205774368-000175     205774006003000270316PLUSH BEAR 4 ASSTD 18CM0000001000+00006139+00000+0001T   00006139+0000001518          1400 U46745               2AZ
205774002205774368-000104     205774006001023751348PLUSH BEAR RUFFLED-LOOK0000001000+00006139+00000+0001T   00006139+0000001518          1400 U46745               2AZ
205774003205774018-000130     205774006001023867537MUG OCC LOVE MINI+HEART0000001000+00003507+00000+0001T   00003507+0000001518          1400 U46515               2AZ
205774004205774301-085007     205774006003000673698ORN OCC. LOVE S/PLAQUE 0000001000+00007893+00000+0001T   00007893+0000001518          1400 U46505               2AZ
205774005205774112-116038     205774006009681820246TCS CARRIER BAG MIDI   0000001000+00000035+00000+0001T   00000035+0000001518          1400 U46090               2AZ
205775000205775               205775               170213N1     1400+00000+N10000003466+0000003466+000000000+000000487+0000003953+0000000000+I40000003953+0000000000+Z
205775001205775077-000010-D   205775006001023123886CREPE-PAPER WHITE      0000001000+00000788+00000+0001T   00000788+0000001519          1400 U46112               2AZ
205775002205775104-000031     205775006003000614950BASKET PL 27x18x12cm   0000001000+00002630+00000+0001T   00002630+0000001519          1400 U46210               2AZ
205775003205775112-116069     205775006009681820277TCS CARRIER BAG JUMBO  0000001000+00000048+00000+0001T   00000048+0000001519          1400 U46090               2AZ
205776000205776               205776               170213N1     1400+00000+N10000002891+0000002891+000000000+000000406+0000003290+0000000007+I20000000000+0000003290+Z
205776001205776564-000030     205776006001023897022BUBBLE NOVELTY BOTTLE  0000001000+00000876+00000+0001T   00000876+0000001522          1400 U46131               2AZ
205776002205776084-070005     205776006001023627902NAIL FILES 6PCE H/GLOW 0000001000+00000876+00000+0001T   00000876+0000001522          1400 U46200               2AZ
205776003205776903-000087     205776006001704000161SWT SPECKLED-EGGS 50G  0000001000+00001139+00000+0001T   00001139+0000001522          1400 U46150               2AZ
205777000205777               205777               170213N1     1400+00000+N10000001139+0000001139+000000000+000000160+0000001290+0000000009+I20000000000+0000001290+Z
205777001205777039-000322     205777006001023524157B/CANDLES W/HOLDERS 24 0000001000+00001139+00000+0001T   00001139+0000001528          1400 U46510               2AZ
205778000205778               205778               170213N1     1400+00000+N10000010218+0000010218+000000000+000001432+0000011650+0000000000+I40000011650+0000000000+Z
205778001205778018-005007     205778006003000515516MUG OCC. LOVE W/HEARTS 0000001000+00006139+00000+0001T   00006139+0000001530          1400 U46515               2AZ
205778002205778304-001011     205778006001023806727FLWR ROSE RED W/BEAR   0000003000+00000613+00000+0001T   00000788+0006471530          1400 U46510               2AZ
205778003205778080-000127     205778006003000424351VALENTINES DAY 36x24CM 0000001000+00002192+00000+0001T   00002192+0000001530          1400 U46112               2AZ
205778004205778112-116069     205778006009681820277TCS CARRIER BAG JUMBO  0000001000+00000048+00000+0001T   00000048+0000001530          1400 U46090               2AZ
205779000205779               205779               170213N1     1400+00000+N10000008771+0000008771+000000000+000001228+0000009990+0000000009+I20000000000+0000009990+Z
205779001205779368-000614     205779006001023705808PLUSH LOVE 30cm        0000001000+00008771+00000+0001T   00008771+0000001531          1400 U46745               2AZ
205780000205780               205780               170213N1     1400+00000+N10000013203+0000013203+000000000+000001849+0000015052+0000000000+I40000015052+0000000000+Z
205780001205780206-000610     205780006003000631674BOMB SHOTS PL 10PC     0000001000+00003507+00000+0001T   00003507+0000001532          1400 U46321               2AZ
205780002205780403-000030     205780006003000282159J/HOLDER MTL SML 2-ASST0000001000+00009648+00000+0001T   00009648+0000001532          1400 U46510               2AZ
205780003205780112-116069     205780006009681820277TCS CARRIER BAG JUMBO  0000001000+00000048+00000+0001T   00000048+0000001532          1400 U46090               2AZ
205781000205781               205781               170213N1     1400+00000+N10000015168+0000015168+000000000+000002127+0000017290+0000000005+I20000000000+0000017290+Z
205781001205781050-000362-Z   205781006001023475275PADLOCK IRON 25mm CARD 0000001000+00002016+00000+0001T   00002016+0000001537          1400 U46855               2AZ
205781002205781150-000770     205781006005387000128UTILITY BOX MEGA       0000001000+00003244+00000+0001T   00003244+0000001537          1400 U46810               2AZ
205781003205781903-000137     205781006002099004130SWEET GS JELLY BEAN 60G0000001000+00000788+00000+0001T   00000788+0000001537          1400 U46150               2AZ
205781004205781903-000095     205781006001704011495SWT SPECKLED-EGGS 100G 0000001000+00002104+00000+0001T   00002104+0000001537          1400 U46150               2AZ
205781005205781174-000305     205781006003000105502TRAVEL NECK-PILLOW     0000001000+00007016+00000+0001T   00007016+0000001537          1400 U46205               2AZ
205782000205782               205782               170213N1     1400+00000+N10000001698+0000001698+000000000+000000239+0000001937+0000000000+I40000001937+0000000000+Z
205782001205782304-001011     205782006001023806727FLWR ROSE RED W/BEAR   0000002000+00000613+00000+0001T   00000788+0006471541          1400 U46510               2AZ
205782002205782080-000133-A   205782006003000647019MINI VALENTINES CARD   0000001000+00000437+00000+0001T   00000437+0000001541          1400 U46112               2AZ
205782003205782112-116038     205782006009681820246TCS CARRIER BAG MIDI   0000001000+00000035+00000+0001T   00000035+0000001541          1400 U46090               2AZ
205783000205783               205783               170213N1     1400+00000+N10000005262+0000005262+000000000+000000737+0000005990+0000000009+I20000000000+0000005990+Z
205783001205783007-000614     205783006001023768667DIARY W/LOCK+PEN LOVE  0000001000+00005262+00000+0001T   00005262+0000001547          1400 U46130               2AZ
205784000205784               205784               170213N1     1400+00000+N10000000874+0000000874+000000000+000000124+0000000998+0000000000+I40000000998+0000000000+Z
205784001205784080-000133-A   205784006003000647019MINI VALENTINES CARD   0000002000+00000437+00000+0001T   00000437+0000001548          1400 U46112               2AZ
205785000205785               205785               170213N1     1400+00000+N10000001227+0000001227+000000000+000000172+0000001390+0000000009+I20000000000+0000001390+Z
205785001205785077-000245     205785006001023759214GIFT-RIBBON METALLICx2 0000001000+00001227+00000+0001T   00001227+0000001553          1400 U46112               2AZ
205786000205786               205786               170213N1     1400+00000+N10000007221+0000007221+000000000+000001013+0000008234+0000000000+I40000008234+0000000000+Z
205786001205786903-000080     205786006001704014052SWT TUBE RASCALS 125G  0000001000+00001753+00000+0001T   00001753+0000001610          1400 U46150               2AZ
205786002205786159-000653     205786006001023688859BATH-SPONGE MESH W/ROPE0000001000+00001753+00000+0001T   00001753+0000001610          1400 U46200               2AZ
205786003205786903-000518     205786006001704012782SWT STRAWS S/BERRY 100g0000001000+00001227+00000+0001T   00001227+0000001610          1400 U46150               2AZ
205786004205786018-000119     205786006003000336074MUG DAILY STRAIGHT     0000001000+00001314+00000+0001T   00001753+0008171610          1400 U46515               2AZ
205786005205786112-116038     205786006009681820246TCS CARRIER BAG MIDI   0000001000+00000035+00000+0001T   00000035+0000001610          1400 U46090               2AZ
205786006205786565-000071     205786006003000643387NOVELTY WIND UP CHATTER0000001000+00001139+00000+0001T   00001139+0000001610          1400 U46745               2AZ
205787000205787               205787               170213N1     1400+00000+N10000009693+0000009693+000000000+000001358+0000011051+0000000000+I40000011051+0000000000+Z
205787001205787903-000612     205787006003000617449SWT TRUMPET 20cm       0000001000+00001753+00000+0001T   00001753+0000001613          1400 U46150               2AZ
205787002205787031-000868-D   205787006003000580330P/FRAME PL BLCK CERT.  0000001000+00004385+00000+0001T   00004385+0000001613          1400 U46510               2AZ
205787003205787031-005923     205787006003000040322P/FRAME CERT PL 21x29.70000001000+00003507+00000+0001T   00003507+0000001613          1400 U46510               2AZ
205787004205787112-116069     205787006009681820277TCS CARRIER BAG JUMBO  0000001000+00000048+00000+0001T   00000048+0000001613          1400 U46090               2AZ
205788000205788               205788               170213N1     1400+00000+N10000004385+0000004385+000000000+000000614+0000004990+0000000009+I20000000000+0000004990+Z
205788001205788105-007010-B   205788006002580007381CONTAINER 9L ASSORTED  0000001000+00004385+00000+0001T   00004385+0000001622          1400 U46210               2AZ
205789000205789               205789               170213N1     1400+00000+N10000005260+0000005260+000000000+000000738+0000005990+0000000008+I20000000000+0000005990+Z
205789001205789034-078810     205789006001023856838DIAPER DISPOSE-BAGSx1000000001000+00002630+00000+0001T   00002630+0000001625          1400 U46215               2AZ
205789002205789106-001104     205789006003000364794WATER BOTTLE 600ml PL  0000001000+00002630+00000+0001T   00002630+0000001625          1400 U46210               2AZ
205790000205790               205790               170213N1     1400+00000+N10000008771+0000008771+000000000+000001228+0000009990+0000000009+I20000000000+0000009990+Z
205790001205790001-091415     205790006003000329113W/GLS OCC. LOVE 2PC 2800000001000+00008771+00000+0001T   00009648+0006471626          1400 U46515               2AZ
205791000205791               205791               170213N1     1400+00000+N10000005085+0000005085+000000000+000000712+0000005790+0000000007+I20000000000+0000005790+Z
205791001205791031-000923     205791006001023669933P/FRAME BLK W/WORDS    0000001000+00003507+00000+0001T   00003507+0000001627          1400 U46510               2AZ
205791002205791077-000315     205791006003000181186GIFT-BAG 20x28cm MATT  0000001000+00001578+00000+0001T   00001578+0000001627          1400 U46112               2AZ
205792000205792               205792               170213N1     1400+00000+N10000001753+0000001753+000000000+000000246+0000001990+0000000009+I20000000000+0000001990+Z
205792001205792079-000623     205792006001023836274CHALK MARBLE 5PCE      0000001000+00001753+00000+0001T   00001753+0000001630          1400 U46130               2AZ
205793000205793               205793               170213N1     1400+00000+N10000002630+0000002630+000000000+000000369+0000002990+0000000009+I20000000000+0000002990+Z
205793001205793018-000129     205793006001023403353MUG OCC. LOVE V-SHAPE  0000001000+00002630+00000+0001T   00002630+0000001632          1400 U46515               2AZ
205794000205794               205794               170213N1     1400+00000+N10000000035+0000000035+000000000+000000005+0000000040+0000000000+I20000000000+0000000040+Z
205794001205794112-116038     205794006009681820246TCS CARRIER BAG MIDI   0000001000+00000035+00000+0001T   00000035+0000001633          1400 U46090               2AZ
205795000205795               205795               170213N1     1400+00000+N10000001751+0000001751+000000000+000000246+0000001990+0000000007+I20000000000+0000001990+Z
205795001205795018-000177     205795006001023797513MUG MINI LOVE ASSTD    0000001000+00000700+00000+0001T   00000700+0000001636          1400 U46515               2AZ
205795002205795039-000026     205795006001023551610C/TAPERED 25CM M/RED   0000001000+00001051+00000+0001T   00001051+0000001636          1400 U46510               2AZ
205796000205796               205796               170213N1     1400+00000+N10000005732+0000005732+000000000+000000804+0000006536+0000000000+I40000006536+0000000000+Z
205796001205796018-000129     205796006001023403353MUG OCC. LOVE V-SHAPE  0000001000+00002630+00000+0001T   00002630+0000001637          1400 U46515               2AZ
205796002205796039-001023     205796006003000466337CANDLE TEA-LITE METALIC0000001000+00001753+00000+0001T   00001753+0000001637          1400 U46510               2AZ
205796003205796077-000310     205796006001023608635GIFT-BAG 18X23CM GLOSS 0000001000+00001314+00000+0001T   00001314+0000001637          1400 U46112               2AZ
205796004205796112-116038     205796006009681820246TCS CARRIER BAG MIDI   0000001000+00000035+00000+0001T   00000035+0000001637          1400 U46090               2AZ
205797000205797               205797               170213N1     1400+00000+N10000002630+0000002630+000000000+000000369+0000002990+0000000009+I20000000000+0000002990+Z
205797001205797077-000456     205797006003000285549G/BAG METALLIC JMB EMB 0000001000+00002630+00000+0001T   00002630+0000001638          1400 U46112               2AZ
205798000205798               205798               170213N1     1400+00000+N10000002630+0000002630+000000000+000000369+0000002999+0000000000+I40000002999+0000000000+Z
205798001205798077-000512     205798006003000590223GIFT-BAG DESIGNER LRG  0000001000+00002630+00000+0001T   00002630+0000001644          1400 U46112               2AZ
205799000205799               205799               170213N1     1400+00000+N10000000878+0000000878+000000000+000000123+0000001000+0000000001+I20000000000+0000001000+Z
205799001205799028-000031     205799006003000270897COOLER-BAG THERMAL 6PK 0000001000-00003507+00000+0001T   00003507+0000001645          1400 U463052IC            2 Z
205799002205799028-000030     205799006001023810908COOLER-BAG 6PACK       0000001000+00004385+00000+0001T   00004385+0000001645          1400 U46305               2AZ
205800000205800               205800               170213N1     1400+00000+N10000007016+0000007016+000000000+000000983+0000007990+0000000009+I20000000000+0000007990+Z
205800001205800562-006275     205800006001023836182EDU BOARD W/MARKER ASST0000001000+00007016+00000+0001T   00007016+0000001646          1400 U46755               2AZ
205801000205801               205801               170213N1     1400+00000+N10000004032+0000004032+000000000+000000566+0000004590+0000000008+I20000000000+0000004590+Z
205801001205801565-000070     205801006003000643691NOVELTY CREATURES 5cm  0000002000+00002016+00000+0001T   00002016+0000001647          1400 U46745               2AZ
205802000205802               205802               170213N1     1400+00000+N10000003554+0000003554+000000000+000000499+0000004050+0000000003+I20000000000+0000004050+Z
205802001205802077-000301     205802008010410010188BAG LRG 25X32CM B/DAY  0000002000+00001753+00000+0001T   00001753+0000001648          1400 U46112               2AZ
205802002205802112-116069     205802006009681820277TCS CARRIER BAG JUMBO  0000001000+00000048+00000+0001T   00000048+0000001648          1400 U46090               2AZ
205803000205803               205803               170213N1     1400+00000+N10000008582+0000008582+000000000+000001204+0000009786+0000000000+I40000009786+0000000000+Z
205803001205803304-001011     205803006001023806727FLWR ROSE RED W/BEAR   0000014000+00000613+00000+0001T   00000788+0006471653          1400 U46510               2AZ
205804000205804               205804               170213N1     1400+00000+N10000000613+0000000613+000000000+000000086+0000000690+0000000009+I20000000000+0000000690+Z
205804001205804565-000044     205804006003000128280BARREL OF SLIME 100g   0000001000+00000613+00000+0001T   00000613+0000001657          1400 U46745               2AZ
205805000205805               205805               170213N1     1400+00000+N10000011885+0000011885+000000000+000001666+0000013550+0000000001+I20000000000+0000013550+Z
205805001205805466-000614     205805006003000502486BALL SOC 10.1CM 3PCE   0000001000+00007016+00000+0001T   00007016+0000001702          1400 U46785               2AZ
205805002205805077-000382     205805006003000247820GIFT-BAG MED 18X23CM   0000001000+00001753+00000+0001T   00001753+0000001702          1400 U46112               2AZ
205805003205805077-000327     205805006001023677686GIFT-BAG 25X32CM E/D BA0000001000+00001490+00000+0001T   00001490+0000001702          1400 U46112               2AZ
205805004205805903-002901     205805005996071650655QUICK MILK 5 S/BERRY   0000001000+00001578+00000+0001T   00001578+0000001702          1400 U46150               2AZ
205805005205805112-116069     205805006009681820277TCS CARRIER BAG JUMBO  0000001000+00000048+00000+0001T   00000048+0000001702          1400 U46090               2AZ
205806000205806               205806               170213N1     1400+00000+N10000002192+0000002192+000000000+000000307+0000002490+0000000009+I20000000000+0000002490+Z
205806001205806200-000002     205806006925406821049BAG FLIP TOP 80PCE     0000001000+00002192+00000+0001T   00002192+0000001736          1400 U46214               2AZ
205807000205807               205807               170213N1     1400+00000+N10000014690+0000014690+000000000+000002060+0000016750+0000000000+I40000016750+0000000000+Z
205807001205807039-000500     205807006001023816450C/VOTIVE 8PC RAINBOW   0000001000+00005262+00000+0001T   00005262+0000001737          1400 U46510               2AZ
205807002205807006-000788     205807006001023990228CROWN HAPPY BIRTHDAY   0000001000+00001490+00000+0001T   00001490+0000001737          1400 U46131               2AZ
205807003205807006-000323-D   205807006003000126248CONFETTI H/BIRTHDAY 3PK0000001000+00002630+00000+0001T   00002630+0000001737          1400 U46131               2AZ
205807004205807040-000170     205807006001023774613C/HOLDER GLASS CUP 6CM 0000002000+00002630+00000+0001T   00002630+0000001737          1400 U46510               2AZ
205807005205807112-116069     205807006009681820277TCS CARRIER BAG JUMBO  0000001000+00000048+00000+0001T   00000048+0000001737          1400 U46090               2AZ
A17021300                                          09032701N1SLAVE 2                       U462IC
A17021301                                          09115046N1SLAVE 2                       U462IC
A17021302                                          09151377N1SLAVE 2                       U462IC
A17021303                                          09422480N1SLAVE 2                       U461IC
A17021304                                          10155838N1SLAVE 2                       2IC2IC
A17021305                                          10183283N1SLAVE 2                       2IC2IC
A17021306                                          10365193N1SLAVE 2                       2IC2IC
A17021307                                          11370862N1SLAVE 2                       U462IC
A17021308                                          11383926N1SLAVE 2                       U462IC
C20579900                                          170213N1028-000031     16450751SLAVE 2     U462IC0000000000+0000000000+0030000001000-
M17021391                              CASH        N1SLAVE 2                       Z-REPORT No.   613TOTAL (Sales - Refunds)           5211.15       CASH TO BE BANKED                 2130.60       DEBIT CARDS                          0.00       CREDIT CARDS                      3080.55       Z-READING                         5211.15       AIRTIME DEBIT CARD SALES             0.00       AIRTIME CARD SALES                   0.00       OVERS/UNDERS                         0.00       AIRTIME CASH SALES                   0.00       GIFT CARDS                           0.00       GIFT CARD CASH SALES                 0.00       T O T A L  CASH PAYOUTS              0.00                                                                                                                                                                                                                                                                                                                                                      Z
M17021392                              CASH        N1ABSENT                                                                                                                                                                                          ANNUAL LEAVE                                                                                                                                                                                    DAY OFF                                                                                                                                                                                         COMMENTS                                                                                                                                                                                                                                                                                                                                                                                       Z
Y17021300                                          N100000000463486+000078
ZN117021321113 SLAVE 2      SALES DATA                     NEXT INVOICE NO.  205808 0613
X N1 Slave 2 First invoice 205729 170213 Last invoice 205807 170213 Next invoice 205808 Total number of records 000000269 clbackup completed 21:11:43
