903921000903921               903921               170213N2     1400+00000+N20000002700+0000002700+000000000+000000383+0000003083+0000000000+I40000003083+0000000000+Z
903921001903921566-002000     903921000721129013206STICKERS CRYSTAL ASSTD 0000001000+00000700+00000+0001T   00000700+0000001144          1400 LQ7130               1AZ
903921002903921903-000183     903921006003000451043SWT LB HEART LOLLY     0000005000+00000393+00000+0001T   00000393+0000001144          1400 LQ7150               1AZ
903921003903921112-116038     903921006009681820246TCS CARRIER BAG MIDI   0000001000+00000035+00000+0001T   00000035+0000001144          1400 LQ7090               1AZ
903922000903922               903922               170213N2     1400+00000+N20000010294+0000010294+000000000+000001443+0000011737+0000000000+I40000011737+0000000000+Z
903922001903922106-001125     903922006003000666270WATER BOTTLE 600ml     0000001000+00002630+00000+0001T   00002630+0000001217          1400 LQ7210               1AZ
903922002903922159-000114     903922006001023507945SHOWER CAP PVC ASSTD   0000001000+00001490+00000+0001T   00001490+0000001217          1400 LQ7200               1AZ
903922003903922035-000002     903922006002596010542UMBRELLA LADIES PRINTED0000001000+00006139+00000+0001T   00006139+0000001217          1400 LQ7205               1AZ
903922004903922112-116038     903922006009681820246TCS CARRIER BAG MIDI   0000001000+00000035+00000+0001T   00000035+0000001217          1400 LQ7090               1AZ
903923000903923               903923               170213N2     1400+00000+N20000001753+0000001753+000000000+000000246+0000001990+0000000009+I20000000000+0000001990+Z
903923001903923077-000316     903923006001023609731GIFT-BAG 25X32CM MATT  0000001000+00001753+00000+0001T   00001753+0000001254          1400 LQ7112               1AZ
903924000903924               903924               170213N2     1400+00000+N20000017541+0000017541+000000000+000002457+0000019998+0000000000+I40000019998+0000000000+Z
903924001903924266-000606     903924006003000657216BOYS PLAYSET ROCKET    0000001000+00006139+00000+0001T   00006139+0000001302          1400 LQ7710               1AZ
903924002903924261-003817     903924006001023536532GUN RIFLE WITH ROCKET  0000001000+00011402+00000+0001T   00011402+0000001302          1400 LQ7710               1AZ
903925000903925               903925               170213N2     1400+00000+N20000004382+0000004382+000000000+000000615+0000004997+0000000000+I40000004997+0000000000+Z
903925001903925039-000319-3   903925006003000442621B/CANDLES LRG NUMBER-3 0000001000+00000876+00000+0001T   00000876+0000001322          1400 LQ7510               1AZ
903925002903925072-020353     903925006001023598097DOG/CAT-BOWL 17cm      0000002000+00001753+00000+0001T   00001753+0000001322          1400 LQ7870               1AZ
903926000903926               903926               170213N2     1400+00000+N20000001753+0000001753+000000000+000000246+0000001990+0000000009+I20000000000+0000001990+Z
903926001903926072-020353     903926006001023598097DOG/CAT-BOWL 17cm      0000001000+00001753+00000+0001T   00001753+0000001324          1400 LQ7870               1AZ
903927000903927               903927               170213N2     1400+00000+N20000004734+0000004734+000000000+000000664+0000005398+0000000000+I40000005398+0000000000+Z
903927001903927046-000010-A   903927006003000438778BATTERIES SIZE:AAA 4PCE0000002000+00002367+00000+0001T   00002367+0000001333          1400 LQ7312               1AZ
903928000903928               903928               170213N2     1400+00000+N20000004383+0000004383+000000000+000000615+0000004998+0000000000+I40000004998+0000000000+Z
903928001903928077-000239     903928006003000160419GIFT-RIBBON ROLL PEARL 0000001000+00001753+00000+0001T   00001753+0000001401          1400 LQ7112               1AZ
903928002903928077-000235     903928006003000160211GIFT-RIBBON ROLL METALC0000001000+00002630+00000+0001T   00002630+0000001401          1400 LQ7112               1AZ
903929000903929               903929               170213N2     1400+00000+N20000001753+0000001753+000000000+000000246+0000001999+0000000000+I40000001999+0000000000+Z
903929001903929077-000235     903929006003000160211GIFT-RIBBON ROLL METALC0000001000-00002630+00000+0001T   00002630+0000001405          1400 LQ71122IC            1 Z
903929002903929077-000235     903929006003000160211GIFT-RIBBON ROLL METALC0000001000+00002630+00000+0001T   00002630+0000001405          1400 LQ71122IC            1AZ
903929003903929077-000239     903929006003000160419GIFT-RIBBON ROLL PEARL 0000001000+00001753+00000+0001T   00001753+0000001405          1400 LQ7112               1AZ
903930000903930               903930               170213N2     1400+00000+N20000005260+0000005260+000000000+000000737+0000005990+0000000007+I20000000000+0000005990+Z
903930001903930133-000017     903930006003000525171CLEANING-CLOTHS 5PCE   0000001000+00003507+00000+0001T   00003507+0000001406          1400 LQ7212               1AZ
903930002903930012-000001     903930006003000331048MICRO PLATE-COVER 26X6 0000001000+00001753+00000+0001T   00002192+0008191406          1400 LQ7300               1AZ
903931000903931               903931               170213N2     1400+00000+N20000004383-0000004383-000000000+000000615-0000005000-0000000002+I20000000000+0000005000-Z
903931001903931077-000235     903931006003000160211GIFT-RIBBON ROLL METALC0000001000-00002630+00000+0001T   00002630+0000001410          1400 LQ71122IC            1AZ
903931002903931077-000239     903931006003000160419GIFT-RIBBON ROLL PEARL 0000001000-00001753+00000+0001T   00001753+0000001410          1400 LQ71122IC            1 Z
903932000903932               903932               170213N2     1400+00000+N20000014054+0000014054+000000000+000001973+0000016027+0000000000+I40000016027+0000000000+Z
903932001903932077-000239     903932006003000160419GIFT-RIBBON ROLL PEARL 0000001000+00001753+00000+0001T   00001753+0000001416          1400 LQ7112               1AZ
903932002903932903-000215     903932006002099001214SWT GS MALLOW TWIST PAC0000002000+00001753+00000+0001T   00001753+0000001416          1400 LQ7150               1AZ
903932003903932077-000150-D   903932006003000054343GIFT-WRAP CELLPHANE CLR0000001000+00000876+00000+0001T   00000876+0000001416          1400 LQ7112               1AZ
903932004903932077-000151     903932006008766114676GIFT-WRAP C/PHANE ASSTD0000002000+00000876+00000+0001T   00000876+0000001416          1400 LQ7112               1AZ
903932005903932077-000150-D   903932006003000054343GIFT-WRAP CELLPHANE CLR0000001000+00000876+00000+0001T   00000876+0000001416          1400 LQ7112               1AZ
903932006903932077-000151     903932006008766114676GIFT-WRAP C/PHANE ASSTD0000001000+00000876+00000+0001T   00000876+0000001416          1400 LQ7112               1AZ
903932007903932077-000150-D   903932006003000054343GIFT-WRAP CELLPHANE CLR0000001000+00000876+00000+0001T   00000876+0000001416          1400 LQ7112               1AZ
903932008903932077-000151     903932006008766114676GIFT-WRAP C/PHANE ASSTD0000001000+00000876+00000+0001T   00000876+0000001416          1400 LQ7112               1AZ
903932009903932077-000150-D   903932006003000054343GIFT-WRAP CELLPHANE CLR0000001000+00000876+00000+0001T   00000876+0000001416          1400 LQ7112               1AZ
903932010903932077-000151     903932006008766114676GIFT-WRAP C/PHANE ASSTD0000002000+00000876+00000+0001T   00000876+0000001416          1400 LQ7112               1AZ
903932011903932112-116038     903932006009681820246TCS CARRIER BAG MIDI   0000001000+00000035+00000+0001T   00000035+0000001416          1400 LQ7090               1AZ
903933000903933               903933               170213N2     1400+00000+N20000001578+0000001578+000000000+000000221+0000001790+0000000009+I20000000000+0000001790+Z
903933001903933077-000303     903933006001023593757GIFT-BAG PAPER MED     0000001000+00001578+00000+0001T   00001578+0000001416          1400 LQ7112               1AZ
903934000903934               903934               170213N2     1400+00000+N20000010963+0000010963+000000000+000001535+0000012490+0000000008+I20000000000+0000012490+Z
903934001903934001-091415     903934006003000329113W/GLS OCC. LOVE 2PC 2800000001000+00008771+00000+0001T   00009648+0006471417          1400 LQ7515               1AZ
903934002903934080-000127     903934006003000424351VALENTINES DAY 36x24CM 0000001000+00002192+00000+0001T   00002192+0000001417          1400 LQ7112               1AZ
903935000903935               903935               170213N2     1400+00000+N20000006532+0000006532+000000000+000000915+0000007440+0000000007+I20000000000+0000007440+Z
903935001903935018-000127     903935006001023380289MUG OCC STRAIGHT LOVE  0000001000+00001578+00000+0001T   00001753+0006471432          1400 LQ7515               1AZ
903935002903935080-000127     903935006003000424351VALENTINES DAY 36x24CM 0000001000+00002192+00000+0001T   00002192+0000001432          1400 LQ7112               1AZ
903935003903935903-004952     903935006002580020052SWT FREAKY FACES 100G  0000001000+00001314+00000+0001T   00001314+0000001432          1400 LQ7150               1AZ
903935004903935464-000121     903935006003000640492PLAYING CARDS MINI     0000002000+00000700+00000+0001T   00000700+0000001432          1400 LQ7785               1AZ
903935005903935112-116069     903935006009681820277TCS CARRIER BAG JUMBO  0000001000+00000048+00000+0001T   00000048+0000001432          1400 LQ7090               1AZ
903936000903936               903936               170213N2     1400+00000+N20000006139+0000006139+000000000+000000860+0000006990+0000000009+I20000000000+0000006990+Z
903936001903936486-000010     903936006001023544254WALL-CLOCK ROUND 25cm  0000001000+00006139+00000+0001T   00006139+0000001442          1400 LQ7510               1AZ
903937000903937               903937               170213N2     1400+00000+N20000003945+0000003945+000000000+000000553+0000004498+0000000000+I40000004498+0000000000+Z
903937001903937077-000381     903937006003000247707GIFT-BAG 25X32CM S/COL 0000001000+00001753+00000+0001T   00001753+0000001445          1400 LQ7112               1AZ
903937002903937080-000127     903937006003000424351VALENTINES DAY 36x24CM 0000001000+00002192+00000+0001T   00002192+0000001445          1400 LQ7112               1AZ
903938000903938               903938               170213N2     1400+00000+N20000002629+0000002629+000000000+000000369+0000002998+0000000000+I40000002998+0000000000+Z
903938001903938077-000239     903938006003000160419GIFT-RIBBON ROLL PEARL 0000001000+00001753+00000+0001T   00001753+0000001447          1400 LQ7112               1AZ
903938002903938077-000151     903938006008766114676GIFT-WRAP C/PHANE ASSTD0000001000+00000876+00000+0001T   00000876+0000001447          1400 LQ7112               1AZ
903939000903939               903939               170213N2     1400+00000+N20000006576+0000006576+000000000+000000921+0000007490+0000000007+I20000000000+0000007490+Z
903939001903939077-000922     903939006003000413935G/WRAP 700mmx2m FLOWER 0000003000+00002192+00000+0001T   00002192+0000001518          1400 LQ7112               1AZ
903940000903940               903940               170213N2     1400+00000+N20000010118+0000010118+000000000+000001418+0000011536+0000000000+I40000011536+0000000000+Z
903940001903940079-006494     903940006003000159864GLITTER GLUE 5PCE 11cm 0000001000+00001490+00000+0001T   00001490+0000001523          1400 LQ7130               1AZ
903940002903940566-000352     903940006001023809261STICKERS LASER ASSTD   0000001000+00002192+00000+0001T   00002192+0000001523          1400 LQ7130               1AZ
903940003903940903-000087     903940006001704000161SWT SPECKLED-EGGS 50G  0000001000+00001139+00000+0001T   00001139+0000001523          1400 LQ7150               1AZ
903940004903940366-000125     903940006003000006786DRESSUP WINGS/WAND/BAND0000001000+00005262+00000+0001T   00005262+0000001523          1400 LQ7131               1AZ
903940005903940112-116038     903940006009681820246TCS CARRIER BAG MIDI   0000001000+00000035+00000+0001T   00000035+0000001523          1400 LQ7090               1AZ
903941000903941               903941               170213N2     1400+00000+N20000002630+0000002630+000000000+000000369+0000002990+0000000009+I20000000000+0000002990+Z
903941001903941018-000128     903941006001023868978MUG OCCASIONS MESSAGES 0000001000+00002630+00000+0001T   00002630+0000001531          1400 LQ7515               1AZ
903942000903942               903942               170213N2     1400+00000+N20000006139+0000006139+000000000+000000860+0000006990+0000000009+I20000000000+0000006990+Z
903942001903942206-000430     903942006003000619627MUG COLOUR CHANGING    0000001000+00006139+00000+0001T   00006139+0000001536          1400 LQ7321               1AZ
903943000903943               903943               170213N2     1400+00000+N20000004680+0000004680+000000000+000000657+0000005337+0000000000+I40000005337+0000000000+Z
903943001903943560-000107     903943006003000547906DOMESTIC 3PC MINI PETS 0000001000+00001753+00000+0001T   00001753+0000001549          1400 LQ7745               1AZ
903943002903943365-000001     903943006003000395262PLAY SET DOCTORS SET   0000001000+00001753+00000+0001T   00001753+0000001549          1400 LQ7725               1AZ
903943003903943046-000014     903943006001023725387BATTERIES SIZE:AAA 4PCE0000001000+00001139+00000+0001T   00001139+0000001549          1400 LQ7312               1AZ
903943004903943112-116038     903943006009681820246TCS CARRIER BAG MIDI   0000001000+00000035+00000+0001T   00000035+0000001549          1400 LQ7090               1AZ
903944000903944               903944               170213N2     1400+00000+N20000001965+0000001965+000000000+000000280+0000002240+0000000005+I20000000000+0000002240+Z
903944001903944903-000183     903944006003000451043SWT LB HEART LOLLY     0000005000+00000393+00000+0001T   00000393+0000001550          1400 LQ7150               1AZ
903945000903945               903945               170213N2     1400+00000+N20000005733+0000005733+000000000+000000804+0000006537+0000000000+I40000006537+0000000000+Z
903945001903945105-000750     903945006003000190270CONTAINERS 4xMINI 150ml0000001000+00001402+00000+0001T   00001402+0000001552          1400 LQ7210               1AZ
903945002903945903-000518     903945006001704012782SWT STRAWS S/BERRY 100g0000001000+00001227+00000+0001T   00001227+0000001552          1400 LQ7150               1AZ
903945003903945038-092233     903945006003000328925TABLE-MAT N/SLIP ASST  0000001000+00003069+00000+0001T   00003507+0008191552          1400 LQ7300               1AZ
903945004903945112-116038     903945006009681820246TCS CARRIER BAG MIDI   0000001000+00000035+00000+0001T   00000035+0000001552          1400 LQ7090               1AZ
903946000903946               903946               170213N2     1400+00000+N20000000000+0000000000+000000000+000000000+0000000000+0000000000+I20000000000+0000000000+Z
903946001903946083-000055     903946006003000003853LIGHTER ELCTRNC REFILBL0000001000-00000613+00000+0001T   00000613+0000001558          1400 LQ73152IC            1AZ
903946002903946083-000055     903946006003000003853LIGHTER ELCTRNC REFILBL0000001000+00000613+00000+0001T   00000613+0000001558          1400 LQ73152IC            1 Z
903947000903947               903947               170213N2     1400+00000+N20000000876+0000000876+000000000+000000123+0000000990+0000000009+I20000000000+0000000990+Z
903947001903947006-000812     903947006001023902832HAT CONE WITH TINSEL   0000001000+00000876+00000+0001T   00000876+0000001558          1400 LQ7131               1AZ
903948000903948               903948               170213N2     1400+00000+N20000002664+0000002664+000000000+000000374+0000003030+0000000008+I20000000000+0000003030+Z
903948001903948903-000219     903948006925925911450SWT ERKO MALLOW CHOC   0000001000+00001753+00000+0001T   00001753+0000001622          1400 LQ7150               1AZ
903948002903948306-000021-A   903948006001023891358EARBUDS COTTON 100PCE  0000001000+00000876+00000+0001T   00000876+0000001622          1400 LQ7200               1AZ
903948003903948112-116038     903948006009681820246TCS CARRIER BAG MIDI   0000001000+00000035+00000+0001T   00000035+0000001622          1400 LQ7090               1AZ
903949000903949               903949               170213N2     1400+00000+N20000011401+0000011401+000000000+000001597+0000012998+0000000000+I40000012998+0000000000+Z
903949001903949206-000460     903949006003000619986BOOKMARK ZIPPER        0000001000+00004385+00000+0001T   00004385+0000001715          1400 LQ7321               1AZ
903949002903949079-000335     903949006003000670550THERAPY P/CRAYONS 30   0000001000+00007016+00000+0001T   00007016+0000001715          1400 LQ7130               1AZ
903950000903950               903950               170213N2     1400+00000+N20000001402+0000001402+000000000+000000197+0000001590+0000000009+I20000000000+0000001590+Z
903950001903950304-001204     903950006001023737984FLOWER OCC. TEDDY/ROSES0000001000+00001402+00000+0001T   00001490+0006471716          1400 LQ7510               1AZ
903951000903951               903951               170213N2     1400+00000+N20000027675+0000027675+000000000+000003877+0000031552+0000000000+I40000031552+0000000000+Z
903951001903951368-000113     903951006001023780874PLUSH BLINGED LOVE 30cm0000001000+00012279+00000+0001T   00012279+0000001734          1400 LQ7745               1AZ
903951002903951031-000921     903951006001023667755P/FRAME COLLAGE 4-HOLE 0000001000+00003069+00000+0001T   00003069+0000001734          1400 LQ7510               1AZ
903951003903951031-001008     903951006946859289842P/FRAME COLLAGE PLASTIC0000001000+00012279+00000+0001T   00012279+0000001734          1400 LQ7510               1AZ
903951004903951112-116069     903951006009681820277TCS CARRIER BAG JUMBO  0000001000+00000048+00000+0001T   00000048+0000001734          1400 LQ7090               1AZ
903952000903952               903952               170213N2     1400+00000+N20000013136+0000013136+000000000+000001843+0000014979+0000000000+I40000014979+0000000000+Z
903952001903952027-000917     903952006001023367433DUSTPAN-SET MINI 21x16 0000003000+00001753+00000+0001T   00001753+0000001736          1400 LQ7212               1AZ
903952002903952301-085002     903952006003000420704ORN OCC. LOVE BELL ASST0000001000+00001753+00000+0001T   00002630+0008121736          1400 LQ7505               1AZ
903952003903952903-000194     903952006009826020616SWT CHOC RP LOLLY 25G  0000002000+00001314+00000+0001T   00001314+0000001736          1400 LQ7150               1AZ
903952004903952566-000200     903952006003000384174STICKER PUFFY NEON     0000001000+00000876+00000+0001T   00000876+0000001736          1400 LQ7130               1AZ
903952005903952566-000068     903952006003000418046POP UP LOVE 2 ASSTD    0000001000+00002192+00000+0001T   00002192+0000001736          1400 LQ7130               1AZ
903952006903952903-000183     903952006003000451043SWT LB HEART LOLLY     0000001000+00000393+00000+0001T   00000393+0000001736          1400 LQ7150               1AZ
903952007903952112-116038     903952006009681820246TCS CARRIER BAG MIDI   0000001000+00000035+00000+0001T   00000035+0000001736          1400 LQ7090               1AZ
903953000903953               903953               170213N2     1400+00000+N20000011094+0000011094+000000000+000001556+0000012650+0000000000+I40000012650+0000000000+Z
903953001903953162-093298     903953006001492932989#TAG OWL PENDANT NK    0000001000+00005262+00000+0001T   00005262+0000001753          1400 LQ7160               1AZ
903953002903953016-006509     903953006003000567355S/JAR GLS MINI LABEL   0000001000+00001753+00000+0001T   00002192+0008191753          1400 LQ7300               1AZ
903953003903953077-000311     903953006001023608666GIFT-BAG 11X14CM GLOSS 0000001000+00000613+00000+0001T   00000613+0000001753          1400 LQ7112               1AZ
903953004903953077-000010-Z   903953006001023157874CREPE-PAPER BLK/ORG/PUR0000001000+00000788+00000+0001T   00000788+0000001753          1400 LQ7112               1AZ
903953005903953077-000309     903953006001023608604GIFT-BAG 25X32CM GLOSS 0000001000+00001753+00000+0001T   00001753+0000001753          1400 LQ7112               1AZ
903953006903953162-093297     903953006001492932972#TAG GOLD BIRD PENDANT 0000001000-00001753+00000+0001T   00001753+0000001753          1400 LQ71602IC            1 Z
903953007903953162-093297     903953006001492932972#TAG GOLD BIRD PENDANT 0000001000+00001753+00000+0001T   00001753+0000001753          1400 LQ71602IC            1AZ
903953008903953162-093298     903953006001492932989#TAG OWL PENDANT NK    0000001000-00005262+00000+0001T   00005262+0000001753          1400 LQ71602IC            1 Z
903953009903953162-097723     903953006001492977232#TAG OWL PENDANT NK    0000001000+00006139+00000+0001T   00006139+0000001753          1400 LQ7160               1AZ
903953010903953112-116069     903953006009681820277TCS CARRIER BAG JUMBO  0000001000+00000048+00000+0001T   00000048+0000001753          1400 LQ7090               1AZ
M17021301                              IT          N2ATT IT DPT                                      LAST SLIP ON SLAVE 1                            IS 903953                                       THANKS N2
M17021391                              CASH        N2SLAVE 1                       Z-REPORT No.   592TOTAL (Sales - Refunds)           2303.22       CASH TO BE BANKED                  590.00       DEBIT CARDS                          0.00       CREDIT CARDS                      1713.22       Z-READING                         2303.22       AIRTIME DEBIT CARD SALES             0.00       AIRTIME CARD SALES                   0.00       OVERS/UNDERS                         0.00       AIRTIME CASH SALES                   0.00       GIFT CARDS                           0.00       GIFT CARD CASH SALES                 0.00       T O T A L  CASH PAYOUTS              0.00                                                                                                                                                                                                                                                                                                                                                      Z
M17021392                              CASH        N2ABSENT                                                                                                                                                                                          ANNUAL LEAVE                                                                                                                                                                                    DAY OFF                                                                                                                                                                                         COMMENTS                                                                                                                                                                                                                                                                                                                                                                                       Z
Y17021300                                          N200000000216740+000032
ZN217021320073 SLAVE 1      SALES DATA                     NEXT INVOICE NO.  903954 0592
X N2 Slave 1 First invoice 903921 170213 Last invoice 903953 170213 Next invoice 903954 Total number of records 000000132 clbackup completed 20:07:44
