101659000101659               101659               170213N2     1400+00000+N20000004385+0000004385+000000000+000000614+0000004990+0000000009+I20000000000+0000004990+Z
101659001101659368-000049     101659006003000536955PLUSH BEAR 15cm LOVE   0000001000+00004385+00000+0001T   00004385+0000000909          1400 AS7745               2AZ
101660000101660               101660               170213N2     1400+00000+N20000006139+0000006139+000000000+000000860+0000006990+0000000009+I20000000000+0000006990+Z
101660001101660567-075470     101660009780007795352BK NOVEL CATEGORY B    0000001000+00006139+00000+0001T   00006139+0000000914          1400 AS7757               2AZ
101661000101661               101661               170213N2     1400+00000+N20000031576+0000031576+000000000+000004421+0000035997+0000000000+I40000035997+0000000000+Z
101661001101661486-010001     101661006003000283323WALL-CLOCK QTZ 60CM RND0000001000+00026314+00000+0001T   00026314+0000000927          1400 AS7510               2AZ
101661002101661082-007580     101661006003000698523SUNGLASS MENS DESIGNER 0000001000+00005262+00000+0001T   00005262+0000000927          1400 AS7160               2AZ
101662000101662               101662               170213N2     1400+00000+N20000001752+0000001752+000000000+000000246+0000001990+0000000008+I20000000000+0000001990+Z
101662001101662077-000150-D   101662006003000054343GIFT-WRAP CELLPHANE CLR0000002000+00000876+00000+0001T   00000876+0000000939          1400 AS7112               2AZ
101663000101663               101663               170213N2     1400+00000+N20000017585+0000017585+000000000+000002463+0000020048+0000000000+I40000020048+0000000000+Z
101663001101663369-001017     101663006001023698544VINYL PIRATE DUCK SET  0000002000+00003507+00000+0001T   00003507+0000000950          1400 AS7745               2AZ
101663002101663369-001010     101663006001023864222BATH VINYL DUCK 4PC    0000002000+00002192+00000+0001T   00002192+0000000950          1400 AS7745               2AZ
101663003101663266-000608     101663006003000657513BOYS FOAM ROCKET 38cm  0000001000+00006139+00000+0001T   00006139+0000000950          1400 AS7710               2AZ
101663004101663112-116069     101663006009681820277TCS CARRIER BAG JUMBO  0000001000+00000048+00000+0001T   00000048+0000000950          1400 AS7090               2AZ
101664000101664               101664               170213N2     1400+00000+N20000026314+0000026314+000000000+000003684+0000029990+0000000008+I20000000000+0000029990+Z
101664001101664486-010001     101664006003000283323WALL-CLOCK QTZ 60CM RND0000001000+00026314+00000+0001T   00026314+0000001014          1400 AS7510               2AZ
101665000101665               101665               170213N2     1400+00000+N20000001572+0000001572+000000000+000000224+0000001790+0000000006+I20000000000+0000001790+Z
101665001101665903-000183     101665006003000451043SWT LB HEART LOLLY     0000004000+00000393+00000+0001T   00000393+0000001018          1400 AS7150               2AZ
101666000101666               101666               170213N2     1400+00000+N20000008769+0000008769+000000000+000001228+0000009990+0000000007+I20000000000+0000009990+Z
101666001101666267-000311     101666006003000610730PUZZLE WOOD TRAY ASSTD 0000001000+00003507+00000+0001T   00003507+0000001022          1400 AS7755               2AZ
101666002101666267-001998     101666008711147355350PUZZLE 300pc FAIRY-TALE0000001000+00005262+00000+0001T   00005262+0000001022          1400 AS7755               2AZ
101667000101667               101667               170213N2     1400+00000+N20000007344+0000007344+000000000+000001036+0000008380+0000000000+I40000008380+0000000000+Z
101667001101667903-000200     101667006009826020234SWT CHOC RP CHOCO 23G  0000004000+00000788+00000+0001T   00000788+0000001028          1400 AS7150               2AZ
101667002101667903-000183     101667006003000451043SWT LB HEART LOLLY     0000005000+00000393+00000+0001T   00000393+0000001028          1400 AS7150               2AZ
101667003101667033-000782     101667006001023905482COSMETIC SPONGES 12PC  0000001000+00002192+00000+0001T   00002192+0000001028          1400 AS7200               2AZ
101667004101667112-116038     101667006009681820246TCS CARRIER BAG MIDI   0000001000+00000035+00000+0001T   00000035+0000001028          1400 AS7090               2AZ
101668000101668               101668               170213N2     1400+00000+N20000001578+0000001578+000000000+000000221+0000001799+0000000000+I40000001799+0000000000+Z
101668001101668077-000303     101668006001023593757GIFT-BAG PAPER MED     0000001000+00001578+00000+0001T   00001578+0000001029          1400 AS7112               2AZ
101669000101669               101669               170213N2     1400+00000+N20000002804+0000002804+000000000+000000393+0000003190+0000000007+I20000000000+0000003190+Z
101669001101669046-000012     101669006904708013062BATTERIES AA  CARD-OF-40000001000+00001314+00000+0001T   00001314+0000001029          1400 AS7312               2AZ
101669002101669039-000108     101669006001023524034TEA-LITE CANDLES 8PCE  0000001000+00001490+00000+0001T   00001490+0000001029          1400 AS7510               2AZ
101670000101670               101670               170213N2     1400+00000+N20000009693+0000009693+000000000+000001358+0000011051+0000000000+I40000011051+0000000000+Z
101670001101670362-001103     101670006001023793515JWLRY GRL ASS 2PC ASSTD0000001000+00001753+00000+0001T   00001753+0000001034          1400 AS7160               2AZ
101670002101670366-000301     101670006003000421077DRESSUP TIARA & EARRING0000001000+00003507+00000+0001T   00003507+0000001034          1400 AS7131               2AZ
101670003101670362-000107     101670006003000608799MAKE-UP GIRL BEAUTY-SET0000001000+00004385+00000+0001T   00004385+0000001034          1400 AS7160               2AZ
101670004101670112-116069     101670006009681820277TCS CARRIER BAG JUMBO  0000001000+00000048+00000+0001T   00000048+0000001034          1400 AS7090               2AZ
101671000101671               101671               170213N2     1400+00000+N20000003507+0000003507+000000000+000000491+0000003990+0000000008+I20000000000+0000003990+Z
101671001101671567-011905     101671006003000676200BK PROMO CLEARANCE FOOD0000001000+00003507+00000+0001T   00004385+0008141034          1400 AS7757               2AZ
101672000101672               101672               170213N2     1400+00000+N20000025209+0000025209+000000000+000003534+0000028743+0000000000+I40000028743+0000000000+Z
101672001101672027-783002     101672006001023874658SCOURERS FOAM PACK OF 30000001000+00001490+00000+0001T   00001490+0000001044          1400 AS7212               2AZ
101672002101672027-783006     101672006003000060719SCOURERS SPONGE        0000001000+00000876+00000+0001T   00000876+0000001044          1400 AS7212               2AZ
101672003101672200-003024     101672006001023657299REFUSE BAGS 20PCE BLACK0000001000+00001753+00000+0001T   00001753+0000001044          1400 AS7214               2AZ
101672004101672903-000215     101672006002099001214SWT GS MALLOW TWIST PAC0000001000+00001753+00000+0001T   00001753+0000001044          1400 AS7150               2AZ
101672005101672047-001337-H   101672006001023429971INS-TAPE 20m BLACK     0000001000+00001753+00000+0001T   00001753+0000001044          1400 AS7880               2AZ
101672006101672047-000010-H   101672006001023879929M/PLUG 10-WAY-SURGE    0000001000+00012279+00000+0001T   00012279+0000001044          1400 AS7880               2AZ
101672007101672018-000177     101672006001023797513MUG MINI LOVE ASSTD    0000002000+00000700+00000+0001T   00000700+0000001044          1400 AS7515               2AZ
101672008101672018-000127     101672006001023380289MUG OCC STRAIGHT LOVE  0000001000+00001578+00000+0001T   00001753+0006471044          1400 AS7515               2AZ
101672009101672027-001020     101672006001246602519BROOM FLOOR W/HANDLE   0000001000+00002279+00000+0001T   00002279+0000001044          1400 AS7212               2AZ
101672010101672112-116069     101672006009681820277TCS CARRIER BAG JUMBO  0000001000+00000048+00000+0001T   00000048+0000001044          1400 AS7090               2AZ
101673000101673               101673               170213N2     1400+00000+N20000001753+0000001753+000000000+000000246+0000001990+0000000009+I20000000000+0000001990+Z
101673001101673071-002999-A   101673006003000611577PEN STICKBALL 10PCE ASS0000001000+00001753+00000+0001T   00001753+0000001047          1400 AS7130               2AZ
101674000101674               101674               170213N2     1400+00000+N20000006136+0000006136+000000000+000000861+0000006990+0000000007+I20000000000+0000006990+Z
101674001101674077-000235     101674006003000160211GIFT-RIBBON ROLL METALC0000001000+00002630+00000+0001T   00002630+0000001057          1400 AS7112               2AZ
101674002101674006-000120     101674006001023346889BALLOONS 10PC MIX COL  0000002000+00001753+00000+0001T   00001753+0000001057          1400 AS7131               2AZ
101675000101675               101675               170213N2     1400+00000+N20000003628+0000003628+000000000+000000509+0000004130+0000000007+I20000000000+0000004130+Z
101675001101675018-000127     101675006001023380289MUG OCC STRAIGHT LOVE  0000001000+00001578+00000+0001T   00001753+0006471058          1400 AS7515               2AZ
101675002101675077-000303     101675006001023593757GIFT-BAG PAPER MED     0000001000+00001578+00000+0001T   00001578+0000001058          1400 AS7112               2AZ
101675003101675080-000133-A   101675006003000647019MINI VALENTINES CARD   0000001000+00000437+00000+0001T   00000437+0000001058          1400 AS7112               2AZ
101675004101675112-116038     101675006009681820246TCS CARRIER BAG MIDI   0000001000+00000035+00000+0001T   00000035+0000001058          1400 AS7090               2AZ
101676000101676               101676               170213N2     1400+00000+N20000005747+0000005747+000000000+000000805+0000006552+0000000000+I40000006552+0000000000+Z
101676001101676031-005853     101676006003000442416P/FRAME WDN TWIN HEARTS0000001000+00003507+00000+0001T   00003507+0000001059          1400 AS7510               2AZ
101676002101676080-000127     101676006003000424351VALENTINES DAY 36x24CM 0000001000+00002192+00000+0001T   00002192+0000001059          1400 AS7112               2AZ
101676003101676112-116069     101676006009681820277TCS CARRIER BAG JUMBO  0000001000+00000048+00000+0001T   00000048+0000001059          1400 AS7090               2AZ
101677000101677               101677               170213N2     1400+00000+N20000001226+0000001226+000000000+000000172+0000001390+0000000008+I20000000000+0000001390+Z
101677001101677304-001011     101677006001023806727FLWR ROSE RED W/BEAR   0000002000+00000613+00000+0001T   00000788+0006471118          1400 AS7510               2AZ
101678000101678               101678               170213N2     1400+00000+N20000002980+0000002980+000000000+000000418+0000003390+0000000008+I20000000000+0000003390+Z
101678001101678150-003733     101678006003000561735SINK STRAINER S/S 1PCE 0000002000+00001490+00000+0001T   00001490+0000001121          1400 AS7810               2AZ
101679000101679               101679               170213N2     1400+00000+N20000001753+0000001753+000000000+000000246+0000001990+0000000009+I20000000000+0000001990+Z
101679001101679046-002032-PK2 101679004897006175063BATTERIES CR-2032  2PCE0000001000+00001753+00000+0001T   00001753+0000001129          1400 AS7312               2AZ
101680000101680               101680               170213N2     1400+00000+N20000005260+0000005260+000000000+000000737+0000005997+0000000000+I40000005997+0000000000+Z
101680001101680133-000010-B   101680006003000577422CLEANING CLOTH ROLL 25 0000001000+00003507+00000+0001T   00003507+0000001131          1400 AS7212               2AZ
101680002101680036-000521     101680006003000338184HOOK-HANGER 8-HOOK     0000001000+00001753+00000+0001T   00001753+0000001131          1400 AS7212               2AZ
101681000101681               101681               170213N2     1400+00000+N20000004385+0000004385+000000000+000000614+0000004990+0000000009+I20000000000+0000004990+Z
101681001101681028-000030     101681006001023810908COOLER-BAG 6PACK       0000001000+00004385+00000+0001T   00004385+0000001135          1400 AS7305               2AZ
101682000101682               101682               170213N2     1400+00000+N20000010129+0000010129+000000000+000001421+0000011550+0000000000+I40000011550+0000000000+Z
101682001101682027-008813     101682006001023552334DUSTER RETRCTABLE 122cm0000001000+00002630+00000+0001T   00002630+0000001137          1400 AS7212               2AZ
101682002101682566-002004     101682006001023672421STICKERS CRYSTAL SHAPES0000001000+00001753+00000+0001T   00001753+0000001137          1400 AS7130               2AZ
101682003101682079-013099     101682006003000081875ART+CRAFT EYES ASSTD   0000001000+00001753+00000+0001T   00001753+0000001137          1400 AS7130               2AZ
101682004101682079-014152     101682006003000253074ART+CRAFT PK50 ASSTD   0000001000+00003069+00000+0001T   00003069+0000001137          1400 AS7130               2AZ
101682005101682077-000011-D   101682006001023808554TISSUE-WRAP WHITE 10PCE0000001000+00000876+00000+0001T   00000876+0000001137          1400 AS7112               2AZ
101682006101682112-116069     101682006009681820277TCS CARRIER BAG JUMBO  0000001000+00000048+00000+0001T   00000048+0000001137          1400 AS7090               2AZ
101683000101683               101683               170213N2     1400+00000+N20000010349+0000010349+000000000+000001449+0000011798+0000000000+I40000011798+0000000000+Z
101683001101683077-000315     101683006003000181186GIFT-BAG 20x28cm MATT  0000001000+00001578+00000+0001T   00001578+0000001209          1400 AS7112               2AZ
101683002101683368-000614     101683006001023705808PLUSH LOVE 30cm        0000001000+00008771+00000+0001T   00008771+0000001209          1400 AS7745               2AZ
101684000101684               101684               170213N2     1400+00000+N20000013060+0000013060+000000000+000001834+0000014894+0000000000+I40000014894+0000000000+Z
101684001101684566-000068     101684006003000418046POP UP LOVE 2 ASSTD    0000001000+00002192+00000+0001T   00002192+0000001217          1400 AS7130               2AZ
101684002101684077-000312     101684006001023608697GIFT-BAG 10X35CM GLOSS 0000002000+00001314+00000+0001T   00001314+0000001217          1400 AS7112               2AZ
101684003101684018-000129     101684006001023403353MUG OCC. LOVE V-SHAPE  0000002000+00002630+00000+0001T   00002630+0000001217          1400 AS7515               2AZ
101684004101684077-000011-X   101684006001023809827TISSUE-WRAP SILVER 10PC0000001000+00001753+00000+0001T   00001753+0000001217          1400 AS7112               2AZ
101684005101684903-000183     101684006003000451043SWT LB HEART LOLLY     0000003000+00000393+00000+0001T   00000393+0000001217          1400 AS7150               2AZ
101684006101684112-116069     101684006009681820277TCS CARRIER BAG JUMBO  0000001000+00000048+00000+0001T   00000048+0000001217          1400 AS7090               2AZ
101685000101685               101685               170213N2     1400+00000+N20000005259+0000005259+000000000+000000738+0000005997+0000000000+I40000005997+0000000000+Z
101685001101685007-000547     101685006001023847966N/BOOK/DIARY+PEN ASSTD 0000001000+00004385+00000+0001T   00004385+0000001221          1400 AS7130               2AZ
101685002101685080-000133-A   101685006003000647019MINI VALENTINES CARD   0000002000+00000437+00000+0001T   00000437+0000001221          1400 AS7112               2AZ
101686000101686               101686               170213N2     1400+00000+N20000011838+0000011838+000000000+000001659+0000013490+0000000007+I20000000000+0000013490+Z
101686001101686080-000133-A   101686006003000647019MINI VALENTINES CARD   0000001000+00000437+00000+0001T   00000437+0000001223          1400 AS7112               2AZ
101686002101686001-091415     101686006003000329113W/GLS OCC. LOVE 2PC 2800000001000+00008771+00000+0001T   00009648+0006471223          1400 AS7515               2AZ
101686003101686903-000591     101686006003000563616SWEET ANIMAL 24cm      0000001000+00002630+00000+0001T   00002630+0000001223          1400 AS7150               2AZ
101687000101687               101687               170213N2     1400+00000+N20000005084+0000005084+000000000+000000713+0000005797+0000000000+I40000005797+0000000000+Z
101687001101687077-000151     101687006008766114676GIFT-WRAP C/PHANE ASSTD0000001000+00000876+00000+0001T   00000876+0000001244          1400 AS7112               2AZ
101687002101687080-000124     101687006003000297733CARD & ENV VALENTINES  0000001000+00001578+00000+0001T   00001578+0000001244          1400 AS7112               2AZ
101687003101687104-000031     101687006003000614950BASKET PL 27x18x12cm   0000001000+00002630+00000+0001T   00002630+0000001244          1400 AS7210               2AZ
101688000101688               101688               170213N2     1400+00000+N20000003506+0000003506+000000000+000000492+0000003990+0000000008+I20000000000+0000003990+Z
101688001101688051-002402     101688006001023518347TRIGGER-SPRAYER  500ml 0000002000+00001753+00000+0001T   00001753+0000001246          1400 AS7820               2AZ
101689000101689               101689               170213N2     1400+00000+N20000007015+0000007015+000000000+000000983+0000007990+0000000008+I20000000000+0000007990+Z
101689001101689262-000651     101689006001023754561DIE CAST SET 5PC RACER 0000001000+00002630+00000+0001T   00002630+0000001247          1400 AS7710               2AZ
101689002101689263-001000     101689006003000600212VEHICLE PICK UP SET    0000001000+00004385+00000+0001T   00004385+0000001247          1400 AS7710               2AZ
101690000101690               101690               170213N2     1400+00000+N20000010117+0000010117+000000000+000001419+0000011530+0000000006+I20000000000+0000011530+Z
101690001101690018-000129     101690006001023403353MUG OCC. LOVE V-SHAPE  0000001000+00002630+00000+0001T   00002630+0000001249          1400 AS7515               2AZ
101690002101690133-000002     101690006001926059749DISH CLOTH MICROFIBRE  0000001000+00002630+00000+0001T   00002630+0000001249          1400 AS7212               2AZ
101690003101690083-000058     101690006003000400331LIGHTER JET CIGAR REFIL0000001000+00002630+00000+0001T   00002630+0000001249          1400 AS7315               2AZ
101690004101690112-116038     101690006009681820246TCS CARRIER BAG MIDI   0000001000+00000035+00000+0001T   00000035+0000001249          1400 AS7090               2AZ
101690005101690046-000012-A   101690006003000208296BATTERIES H/POWER SZ:AA0000001000+00002192+00000+0001T   00002192+0000001249          1400 AS7312               2AZ
101691000101691               101691               170213N2     1400+00000+N20000009206+0000009206+000000000+000001289+0000010490+0000000005+I20000000000+0000010490+Z
101691001101691563-000318-L   101691006003000407088SERVIETTES 33cm RED    0000001000+00002192+00000+0001T   00002192+0000001251          1400 AS7214               2AZ
101691002101691200-000205     101691006008766127027BAKEPANS 36PCE (PIE)   0000001000+00003507+00000+0001T   00003507+0000001251          1400 AS7214               2AZ
101691003101691007-000324     10169100600968585864125 SHEETS BRIGHTS MARLI0000001000+00003507+00000+0001T   00003507+0000001251          1400 AS7130               2AZ
101692000101692               101692               170213N2     1400+00000+N20000000393+0000000393+000000000+000000056+0000000440+0000000009+I20000000000+0000000440+Z
101692001101692903-000183     101692006003000451043SWT LB HEART LOLLY     0000001000+00000393+00000+0001T   00000393+0000001309          1400 AS7150               2AZ
101693000101693               101693               170213N2     1400+00000+N20000004944+0000004944+000000000+000000693+0000005637+0000000000+I40000005637+0000000000+Z
101693001101693304-001204     101693006001023737984FLOWER OCC. TEDDY/ROSES0000001000+00001402+00000+0001T   00001490+0006471313          1400 AS7510               2AZ
101693002101693018-000136     101693006001023659026MUG OCC LOVE W/PLUSH   0000001000+00003507+00000+0001T   00003507+0000001313          1400 AS7515               2AZ
101693003101693112-116038     101693006009681820246TCS CARRIER BAG MIDI   0000001000+00000035+00000+0001T   00000035+0000001313          1400 AS7090               2AZ
101694000101694               101694               170213N2     1400+00000+N20000007015+0000007015+000000000+000000983+0000007990+0000000008+I20000000000+0000007990+Z
101694001101694206-000310     101694006003000632787BOTTLE-STOPPER SILICONE0000001000+00002630+00000+0001T   00002630+0000001319          1400 AS7321               2AZ
101694002101694206-000410     101694006003000619382SOUP LADLE SEAMONSTER  0000001000+00004385+00000+0001T   00004385+0000001319          1400 AS7321               2AZ
101695000101695               101695               170213N2     1400+00000+N20000015781+0000015781+000000000+000002212+0000017993+0000000000+I40000017993+0000000000+Z
101695001101695031-000848     101695006001023851901P/FRAME COLLAGE 2ASSTD 0000001000+00004385+00000+0001T   00004385+0000001342          1400 AS7510               2AZ
101695002101695264-000921     101695000090159150442MAISTO CAR 3" FRESH    0000002000+00001753+00000+0001T   00001753+0000001342          1400 AS7710               2AZ
101695003101695369-001031     101695006001023796219BABY RATTLE SET 2PC    0000001000+00003507+00000+0001T   00003507+0000001342          1400 AS7745               2AZ
101695004101695018-000128     101695006001023868978MUG OCCASIONS MESSAGES 0000001000+00002630+00000+0001T   00002630+0000001342          1400 AS7515               2AZ
101695005101695077-000301     101695008010410010188BAG LRG 25X32CM B/DAY  0000001000+00001753+00000+0001T   00001753+0000001342          1400 AS7112               2AZ
101696000101696               101696               170213N2     1400+00000+N20000001227+0000001227+000000000+000000172+0000001399+0000000000+I40000001399+0000000000+Z
101696001101696077-000245     101696006001023759214GIFT-RIBBON METALLICx2 0000001000+00001227+00000+0001T   00001227+0000001419          1400 AS7112               2AZ
101697000101697               101697               170213N2     1400+00000+N20000000700+0000000700+000000000+000000098+0000000790+0000000008+I20000000000+0000000790+Z
101697001101697903-000120     101697006002099001665SWEET GS ZILLIONS 50g  0000001000+00000700+00000+0001T   00000700+0000001435          1400 AS7150               2AZ
101698000101698               101698               170213N2     1400+00000+N20000032493+0000032493+000000000+000004553+0000037046+0000000000+I40000037046+0000000000+Z
101698001101698306-000977     101698006003000559596FIRSTAID PLASTER 75PC  0000001000+00002630+00000+0001T   00002630+0000001445          1400 AS7200               2AZ
101698002101698046-000012     101698006904708013062BATTERIES AA  CARD-OF-40000001000+00001314+00000+0001T   00001314+0000001445          1400 AS7312               2AZ
101698003101698079-000282     101698006001023493309PAINT TUBS POSTER 12COL0000001000+00002630+00000+0001T   00002630+0000001445          1400 AS7130               2AZ
101698004101698366-001100     101698006003000031443DRESS UP HAT PIRATE    0000001000+00005262+00000+0001T   00005262+0000001445          1400 AS7131               2AZ
101698005101698366-001101     101698006003000006991DRESS UP BOYS ASSTD    0000001000+00006139+00000+0001T   00006139+0000001445          1400 AS7131               2AZ
101698006101698567-010160     101698006003000484966BOOK TOP ASSTD CHILDREN0000001000+00006578+00000+0001T   00006578+0000001445          1400 AS7757               2AZ
101698007101698051-002407     101698006003000452491SPRAYER TRIGGER 550ml  0000001000+00001753+00000+0001T   00001753+0000001445          1400 AS7820               2AZ
101698008101698112-116069     101698006009681820277TCS CARRIER BAG JUMBO  0000001000+00000048+00000+0001T   00000048+0000001445          1400 AS7090               2AZ
101698009101698266-001002     101698006001023914163PLAYSET SWORD & WEAPON 0000001000+00006139+00000+0001T   00006139+0000001445          1400 AS7710               2AZ
101699000101699               101699               170213N2     1400+00000+N20000000000+0000000000+000000000+000000000+0000000000+0000000000+I20000000000+0000000000+Z
101699001101699051-002401     101699006001023523570TRIGGER-SPRAYER   300ml0000001000-00001490+00000+0001T   00001490+0000001453          1400 AS78202IC            2 Z
101699002101699051-002401     101699006001023523570TRIGGER-SPRAYER   300ml0000001000+00001490+00000+0001T   00001490+0000001453          1400 AS78202IC            2 Z
101700000101700               101700               170213N2     1400+00000+N20000001753+0000001753+000000000+000000246+0000001999+0000000000+I40000001999+0000000000+Z
101700001101700080-000116     101700006003000253555CARD&ENVELOPE-HANDMADE 0000001000+00001753+00000+0001T   00001753+0000001454          1400 AS7112               2AZ
101701000101701               101701               170213N2     1400+00000+N20000014032+0000014032+000000000+000001966+0000015998+0000000000+I40000015998+0000000000+Z
101701001101701368-000637     101701006001023874092PLUSH BEAR SLEEPING LOV0000001000+00011402+00000+0001T   00012279+0006471459          1400 AS7745               2AZ
101701002101701077-000456     101701006003000285549G/BAG METALLIC JMB EMB 0000001000+00002630+00000+0001T   00002630+0000001459          1400 AS7112               2AZ
101702000101702               101702               170213N2     1400+00000+N20000003506+0000003506+000000000+000000492+0000003998+0000000000+I40000003998+0000000000+Z
101702001101702366-004047     101702006001023834850DRESS UP ACCESS TEETH  0000002000+00001753+00000+0001T   00001753+0000001502          1400 AS7131               2AZ
101703000101703               101703               170213N2     1400+00000+N20000005734+0000005734+000000000+000000804+0000006538+0000000000+I40000006538+0000000000+Z
101703001101703366-000300     101703006001023902955DRESSUP TIARA FEATHER  0000001000+00002630+00000+0001T   00002630+0000001603          1400 AS7131               2AZ
101703002101703366-000256     101703006001023918406DRESS UP TIARA&EARRINGS0000001000+00003069+00000+0001T   00003069+0000001603          1400 AS7131               2AZ
101703003101703112-116038     101703006009681820246TCS CARRIER BAG MIDI   0000001000+00000035+00000+0001T   00000035+0000001603          1400 AS7090               2AZ
101704000101704               101704               170213N2     1400+00000+N20000008153+0000008153+000000000+000001142+0000009290+0000000005+I20000000000+0000009290+Z
101704001101704077-000310     101704006001023608635GIFT-BAG 18X23CM GLOSS 0000001000+00001314+00000+0001T   00001314+0000001605          1400 AS7112               2AZ
101704002101704368-000049     101704006003000536955PLUSH BEAR 15cm LOVE   0000001000+00004385+00000+0001T   00004385+0000001605          1400 AS7745               2AZ
101704003101704903-000510     101704006001704012621SWEET MS ZBDZ S/BERRY  0000001000+00001227+00000+0001T   00001227+0000001605          1400 AS7150               2AZ
101704004101704903-000517     101704006001704012768SWT STRAWS FIZZY CHERRY0000001000+00001227+00000+0001T   00001227+0000001605          1400 AS7150               2AZ
101705000101705               101705               170213N2     1400+00000+N20000004384+0000004384+000000000+000000614+0000004998+0000000000+I40000004998+0000000000+Z
101705001101705200-000200     101705006008766091144BAKING ALUM FOIL 2PCE  0000001000+00002192+00000+0001T   00002192+0000001607          1400 AS7214               2AZ
101705002101705206-000245     101705006003000680818BOTTLE CLEANER PLASTIC 0000001000+00002192+00000+0001T   00002192+0000001607          1400 AS7321               2AZ
101706000101706               101706               170213N2     1400+00000+N20000007541+0000007541+000000000+000001056+0000008597+0000000000+I40000008597+0000000000+Z
101706001101706368-000049     101706006003000536955PLUSH BEAR 15cm LOVE   0000001000+00004385+00000+0001T   00004385+0000001609          1400 AS7745               2AZ
101706002101706018-000127     101706006001023380289MUG OCC STRAIGHT LOVE  0000001000+00001578+00000+0001T   00001753+0006471609          1400 AS7515               2AZ
101706003101706077-000315     101706006003000181186GIFT-BAG 20x28cm MATT  0000001000+00001578+00000+0001T   00001578+0000001609          1400 AS7112               2AZ
101707000101707               101707               170213N2     1400+00000+N20000006048+0000006048+000000000+000000847+0000006890+0000000005+I20000000000+0000006890+Z
101707001101707077-000310     101707006001023608635GIFT-BAG 18X23CM GLOSS 0000001000+00001314+00000+0001T   00001314+0000001626          1400 AS7112               2AZ
101707002101707077-000303     101707006001023593757GIFT-BAG PAPER MED     0000001000+00001578+00000+0001T   00001578+0000001626          1400 AS7112               2AZ
101707003101707080-000124     101707006003000297733CARD & ENV VALENTINES  0000001000+00001578+00000+0001T   00001578+0000001626          1400 AS7112               2AZ
101707004101707077-000315     101707006003000181186GIFT-BAG 20x28cm MATT  0000001000+00001578+00000+0001T   00001578+0000001626          1400 AS7112               2AZ
101708000101708               101708               170213N2     1400+00000+N20000007925+0000007925+000000000+000001111+0000009036+0000000000+I40000009036+0000000000+Z
101708001101708162-089199     101708006001492891996SS KIDS BEADED N/WEAR  0000001000+00002630+00000+0001T   00002630+0000001630          1400 AS7160               2AZ
101708002101708018-005009     101708006001023725608MUG W/PLUSH-BEAR LOVE  0000001000+00003507+00000+0001T   00003507+0000001630          1400 AS7515               2AZ
101708003101708077-000351     101708006003000139033GIFT-BAG 18X23CM E/D P 0000001000+00001753+00000+0001T   00001753+0000001630          1400 AS7112               2AZ
101708004101708112-116038     101708006009681820246TCS CARRIER BAG MIDI   0000001000+00000035+00000+0001T   00000035+0000001630          1400 AS7090               2AZ
101709000101709               101709               170213N2     1400+00000+N20000003507+0000003507+000000000+000000491+0000003990+0000000008+I20000000000+0000003990+Z
101709001101709018-000136     101709006001023659026MUG OCC LOVE W/PLUSH   0000001000+00003507+00000+0001T   00003507+0000001637          1400 AS7515               2AZ
101710000101710               101710               170213N2     1400+00000+N20000001223+0000001223+000000000+000000174+0000001397+0000000000+I40000001397+0000000000+Z
101710001101710080-000133-A   101710006003000647019MINI VALENTINES CARD   0000001000+00000437+00000+0001T   00000437+0000001641          1400 AS7112               2AZ
101710002101710903-000183     101710006003000451043SWT LB HEART LOLLY     0000002000+00000393+00000+0001T   00000393+0000001641          1400 AS7150               2AZ
101711000101711               101711               170213N2     1400+00000+N20000013155+0000013155+000000000+000001842+0000014997+0000000000+I40000014997+0000000000+Z
101711001101711104-000030     101711006001023803481BASKET PL 28x20x12cm   0000003000+00004385+00000+0001T   00004385+0000001642          1400 AS7210               2AZ
101712000101712               101712               170213N2     1400+00000+N20000003507+0000003507+000000000+000000491+0000003990+0000000008+I20000000000+0000003990+Z
101712001101712018-000136     101712006001023659026MUG OCC LOVE W/PLUSH   0000001000+00003507+00000+0001T   00003507+0000001643          1400 AS7515               2AZ
101713000101713               101713               170213N2     1400+00000+N20000013856+0000013856+000000000+000001941+0000015797+0000000000+I40000015797+0000000000+Z
101713001101713368-000049     101713006003000536955PLUSH BEAR 15cm LOVE   0000001000+00004385+00000+0001T   00004385+0000001644          1400 AS7745               2AZ
101713002101713301-085007     101713006003000673698ORN OCC. LOVE S/PLAQUE 0000001000+00007893+00000+0001T   00007893+0000001644          1400 AS7505               2AZ
101713003101713077-000303     101713006001023593757GIFT-BAG PAPER MED     0000001000+00001578+00000+0001T   00001578+0000001644          1400 AS7112               2AZ
101714000101714               101714               170213N2     1400+00000+N20000000786+0000000786+000000000+000000112+0000000890+0000000008+I20000000000+0000000890+Z
101714001101714903-000183     101714006003000451043SWT LB HEART LOLLY     0000002000+00000393+00000+0001T   00000393+0000001645          1400 AS7150               2AZ
101715000101715               101715               170213N2     1400+00000+N20000020293+0000020293+000000000+000002848+0000023141+0000000000+I40000023141+0000000000+Z
101715001101715304-001011     101715006001023806727FLWR ROSE RED W/BEAR   0000004000+00000613+00000+0001T   00000788+0006471648          1400 AS7510               2AZ
101715002101715903-000183     101715006003000451043SWT LB HEART LOLLY     0000004000+00000393+00000+0001T   00000393+0000001648          1400 AS7150               2AZ
101715003101715018-005009     101715006001023725608MUG W/PLUSH-BEAR LOVE  0000001000+00003507+00000+0001T   00003507+0000001648          1400 AS7515               2AZ
101715004101715368-000175     101715006003000270316PLUSH BEAR 4 ASSTD 18CM0000001000+00006139+00000+0001T   00006139+0000001648          1400 AS7745               2AZ
101715005101715039-000114     101715006001023524058CANDLE T/LITE RED 3.5CM0000001000+00001753+00000+0001T   00001753+0000001648          1400 AS7510               2AZ
101715006101715001-000175     101715006001023788108B/MUG GLS LOVE 380ML   0000001000+00004385+00000+0001T   00004385+0000001648          1400 AS7515               2AZ
101715007101715112-116069     101715006009681820277TCS CARRIER BAG JUMBO  0000001000+00000048+00000+0001T   00000048+0000001648          1400 AS7090               2AZ
101715008101715080-000133-A   101715006003000647019MINI VALENTINES CARD   0000001000+00000437+00000+0001T   00000437+0000001648          1400 AS7112               2AZ
101716000101716               101716               170213N2     1400+00000+N20000036346+0000036346+000000000+000005094+0000041440+0000000000+I40000041440+0000000000+Z
101716001101716112-116069     101716006009681820277TCS CARRIER BAG JUMBO  0000001000+00000048+00000+0001T   00000048+0000001651          1400 AS7090               2AZ
101716002101716024-000165-F   101716006003000674671N/STICK MUFFIN PAN     0000002000+00005262+00000+0001T   00005262+0000001651          1400 AS7300               2AZ
101716003101716079-011526     101716006003000408375GLITTER & SAND ART     0000001000+00003507+00000+0001T   00003507+0000001651          1400 AS7130               2AZ
101716004101716079-003020     101716006003000662944PAINT ACRYLIC SET TUBE 0000001000+00005262+00000+0001T   00005262+0000001651          1400 AS7130               2AZ
101716005101716079-130010     101716006003000496624ART+CRAFT FOAM DOLLS   0000001000+00004385+00000+0001T   00004385+0000001651          1400 AS7130               2AZ
101716006101716566-000359     101716006003000582709STICKER BOOK LOVE SPARK0000001000+00002192+00000+0001T   00002192+0000001651          1400 AS7130               2AZ
101716007101716084-000889     101716006003000293674NAIL FILE EMERY 18CM   0000001000+00001753+00000+0001T   00001753+0000001651          1400 AS7200               2AZ
101716008101716264-000921     101716000090159150442MAISTO CAR 3" FRESH    0000001000+00001753+00000+0001T   00001753+0000001651          1400 AS7710               2AZ
101716009101716903-000095     101716006001704011495SWT SPECKLED-EGGS 100G 0000001000+00002104+00000+0001T   00002104+0000001651          1400 AS7150               2AZ
101716010101716079-014004     101716006003000080045ART+CRAFT JEWELRY ASSTD0000001000+00003507+00000+0001T   00003507+0000001651          1400 AS7130               2AZ
101716011101716080-000133-A   101716006003000647019MINI VALENTINES CARD   0000003000+00000437+00000+0001T   00000437+0000001651          1400 AS7112               2AZ
101717000101717               101717               170213N2     1400+00000+N20000003068+0000003068+000000000+000000430+0000003498+0000000000+I40000003498+0000000000+Z
101717001101717566-000200     101717006003000384174STICKER PUFFY NEON     0000001000+00000876+00000+0001T   00000876+0000001653          1400 AS7130               2AZ
101717002101717566-000068     101717006003000418046POP UP LOVE 2 ASSTD    0000001000+00002192+00000+0001T   00002192+0000001653          1400 AS7130               2AZ
101718000101718               101718               170213N2     1400+00000+N20000004030+0000004030+000000000+000000566+0000004590+0000000006+I20000000000+0000004590+Z
101718001101718033-000124     101718006009654960597COMBS HANDLE + TAIL 2PC0000001000+00001051+00000+0001T   00001051+0000001700          1400 AS7200               2AZ
101718002101718306-000006     101718006001023776440DENTAL FLOSS PICKS 50PC0000001000+00001753+00000+0001T   00001753+0000001700          1400 AS7200               2AZ
101718003101718304-001011     101718006001023806727FLWR ROSE RED W/BEAR   0000002000+00000613+00000+0001T   00000788+0006471700          1400 AS7510               2AZ
101719000101719               101719               170213N2     1400+00000+N20000007889+0000007889+000000000+000001106+0000008995+0000000000+I40000008995+0000000000+Z
101719001101719077-000151     101719006008766114676GIFT-WRAP C/PHANE ASSTD0000001000+00000876+00000+0001T   00000876+0000001705          1400 AS7112               2AZ
101719002101719903-000215     101719006002099001214SWT GS MALLOW TWIST PAC0000001000+00001753+00000+0001T   00001753+0000001705          1400 AS7150               2AZ
101719003101719567-011443     101719009781847506719BK PUZZLE WORDSEARCH   0000001000+00003507+00000+0001T   00003507+0000001705          1400 AS7757               2AZ
101719004101719077-000309     101719006001023608604GIFT-BAG 25X32CM GLOSS 0000001000+00001753+00000+0001T   00001753+0000001705          1400 AS7112               2AZ
101720000101720               101720               170213N2     1400+00000+N20000007573+0000007573+000000000+000001062+0000008635+0000000000+I40000008635+0000000000+Z
101720001101720077-000245     101720006001023759214GIFT-RIBBON METALLICx2 0000002000+00001227+00000+0001T   00001227+0000001714          1400 AS7112               2AZ
101720002101720077-000303     101720006001023593757GIFT-BAG PAPER MED     0000001000+00001578+00000+0001T   00001578+0000001714          1400 AS7112               2AZ
101720003101720089-000030     101720006003000575671K/CHAIN LOVE MTL ASSTD 0000001000+00001753+00000+0001T   00001753+0000001714          1400 AS7205               2AZ
101720004101720077-000239     101720006003000160419GIFT-RIBBON ROLL PEARL 0000001000+00001753+00000+0001T   00001753+0000001714          1400 AS7112               2AZ
101720005101720112-116038     101720006009681820246TCS CARRIER BAG MIDI   0000001000+00000035+00000+0001T   00000035+0000001714          1400 AS7090               2AZ
101721000101721               101721               170213N2     1400+00000+N20000007889+0000007889+000000000+000001106+0000008995+0000000000+I40000008995+0000000000+Z
101721001101721079-000341     101721006001023407146FELT-TIP PENS 12PCE    0000001000+00001753+00000+0001T   00001753+0000001720          1400 AS7130               2AZ
101721002101721071-001019     101721006001023474513MARKER BLACK NAME-PEN  0000001000+00000876+00000+0001T   00000876+0000001720          1400 AS7130               2AZ
101721003101721903-000861     101721005010478430822SWT LOVE HEARTS SML    0000001000+00000876+00000+0001T   00000876+0000001720          1400 AS7150               2AZ
101721004101721566-000068     101721006003000418046POP UP LOVE 2 ASSTD    0000001000+00002192+00000+0001T   00002192+0000001720          1400 AS7130               2AZ
101721005101721080-000127     101721006003000424351VALENTINES DAY 36x24CM 0000001000+00002192+00000+0001T   00002192+0000001720          1400 AS7112               2AZ
101722000101722               101722               170213N2     1400+00000+N20000000700+0000000700+000000000+000000098+0000000798+0000000000+I40000000798+0000000000+Z
101722001101722007-000104     101722006009685854865BK COVER BRWN KRFT ROLL0000002000+00000350+00000+0001T   00000350+0000001721          1400 AS7130               2AZ
101723000101723               101723               170213N2     1400+00000+N20000005256+0000005256+000000000+000000737+0000005993+0000000000+I40000005993+0000000000+Z
101723001101723903-000194     101723006009826020616SWT CHOC RP LOLLY 25G  0000002000+00001314+00000+0001T   00001314+0000001725          1400 AS7150               2AZ
101723002101723080-000127     101723006003000424351VALENTINES DAY 36x24CM 0000001000+00002192+00000+0001T   00002192+0000001725          1400 AS7112               2AZ
101723003101723903-000670     101723006009803358008SWT SHERBET RED LIPS   0000002000+00000218+00000+0001T   00000218+0000001725          1400 AS7150               2AZ
101724000101724               101724               170213N2     1400+00000+N20000004208+0000004208+000000000+000000590+0000004798+0000000000+I40000004798+0000000000+Z
101724001101724077-000303     101724006001023593757GIFT-BAG PAPER MED     0000001000+00001578+00000+0001T   00001578+0000001727          1400 AS7112               2AZ
101724002101724077-000316-A   101724006003000681457GIFT-BAG METALLIC PPR  0000001000+00002630+00000+0001T   00002630+0000001727          1400 AS7112               2AZ
101725000101725               101725               170213N2     1400+00000+N20000005171+0000005171+000000000+000000726+0000005897+0000000000+I40000005897+0000000000+Z
101725001101725079-013101     101725006001023863706CRAFT SET DIY PIPE-CLNR0000001000+00002630+00000+0001T   00002630+0000001742          1400 AS7130               2AZ
101725002101725079-006496     101725006003000160105GLITTER SHAKERS        0000001000+00001753+00000+0001T   00001753+0000001742          1400 AS7130               2AZ
101725003101725566-000858     101725006001023760975STCKRS G/OUTLINE ASSTD 0000001000+00000788+00000+0001T   00000788+0000001742          1400 AS7130               2AZ
101726000101726               101726               170213N2     1400+00000+N20000005109+0000005109+000000000+000000728+0000005830+0000000007+I20000000000+0000005830+Z
101726001101726903-000183     101726006003000451043SWT LB HEART LOLLY     0000013000+00000393+00000+0001T   00000393+0000001743          1400 AS7150               2AZ
101727000101727               101727               170213N2     1400+00000+N20000010027+0000010027+000000000+000001407+0000011434+0000000000+I40000011434+0000000000+Z
101727001101727206-000450     101727006003000619863DRINKING JAR GLOBE     0000001000+00002630+00000+0001T   00002630+0000001747          1400 AS7321               2AZ
101727002101727007-000566     101727006003000640898NOVELTY PHONE NOTE-PAD 0000001000+00001490+00000+0001T   00001490+0000001747          1400 AS7130               2AZ
101727003101727077-000311     101727006001023608666GIFT-BAG 11X14CM GLOSS 0000001000+00000613+00000+0001T   00000613+0000001747          1400 AS7112               2AZ
101727004101727565-000071     101727006003000643387NOVELTY WIND UP CHATTER0000001000+00001139+00000+0001T   00001139+0000001747          1400 AS7745               2AZ
101727005101727565-004101     101727006003000548033BALL BOUNCING EGG      0000001000+00001490+00000+0001T   00001490+0000001747          1400 AS7745               2AZ
101727006101727112-116038     101727006009681820246TCS CARRIER BAG MIDI   0000001000+00000035+00000+0001T   00000035+0000001747          1400 AS7090               2AZ
101727007101727083-000058     101727006003000400331LIGHTER JET CIGAR REFIL0000001000+00002630+00000+0001T   00002630+0000001747          1400 AS7315               2AZ
101728000101728               101728               170213N2     1400+00000+N20000008328+0000008328+000000000+000001166+0000009490+0000000004+I20000000000+0000009490+Z
101728001101728018-000136     101728006001023659026MUG OCC LOVE W/PLUSH   0000001000+00003507+00000+0001T   00003507+0000001751          1400 AS7515               2AZ
101728002101728018-005009     101728006001023725608MUG W/PLUSH-BEAR LOVE  0000001000+00003507+00000+0001T   00003507+0000001751          1400 AS7515               2AZ
101728003101728903-000194     101728006009826020616SWT CHOC RP LOLLY 25G  0000001000+00001314+00000+0001T   00001314+0000001751          1400 AS7150               2AZ
101729000101729               101729               170213N2     1400+00000+N20000003770+0000003770+000000000+000000528+0000004290+0000000008+I20000000000+0000004290+Z
101729001101729077-000303     101729006001023593757GIFT-BAG PAPER MED     0000001000+00001578+00000+0001T   00001578+0000001751          1400 AS7112               2AZ
101729002101729077-000509     101729006003000082582GIFT-BAG SML 6PCE ORG P0000001000+00002192+00000+0001T   00002192+0000001751          1400 AS7112               2AZ
101730000101730               101730               170213N2     1400+00000+N20000005259+0000005259+000000000+000000738+0000005990+0000000007+I20000000000+0000005990+Z
101730001101730077-000351     101730006003000139033GIFT-BAG 18X23CM E/D P 0000002000+00001753+00000+0001T   00001753+0000001752          1400 AS7112               2AZ
101730002101730077-000471     101730006003000330096G-BAG DESGN MED 18X23CM0000001000+00001753+00000+0001T   00001753+0000001752          1400 AS7112               2AZ
101731000101731               101731               170213N2     1400+00000+N20000000788+0000000788+000000000+000000111+0000000899+0000000000+I40000000899+0000000000+Z
101731001101731033-005991     101731006001023678546NEEDLES H/HOLD-REPAIR  0000001000+00000788+00000+0001T   00000788+0000001754          1400 AS7200               2AZ
101732000101732               101732               170213N2     1400+00000+N20000001578+0000001578+000000000+000000221+0000001790+0000000009+I20000000000+0000001790+Z
101732001101732018-000127     101732006001023380289MUG OCC STRAIGHT LOVE  0000001000+00001578+00000+0001T   00001753+0006471803          1400 AS7515               2AZ
101733000101733               101733               170213N2     1400+00000+N20000000788+0000000788+000000000+000000111+0000000890+0000000009+I20000000000+0000000890+Z
101733001101733071-081101-A   101733006003000326549GLUE-STICK 25g BLISTER 0000001000+00000788+00000+0001T   00000788+0000001807          1400 AS7130               2AZ
101734000101734               101734               170213N2     1400+00000+N20000000780-0000000780-000000000+000000110-0000000890-0000000000+I20000000000+0000000890-Z
101734001101734001-999906     101734000000000999906STATIONERY(PHOTOCOPIES)0000001000-00000780+00000+0001T   00000000+0000001809          1400 AS79062IC            2 Z
A17021300                                          10551374N2SLAVE 2                       AS72IC
M17021301                              IT          N2ASTT IT DPT                                     LAST SLIP ON SLAVE 2                            IS                                              101734                                          THANKS N2
M17021391                              CASH        N2SLAVE 2                       Z-REPORT No.   620TOTAL (Sales - Refunds)           6409.76       CASH TO BE BANKED                 2015.30       DEBIT CARDS                          0.00       CREDIT CARDS                      4385.56       Z-READING                         6400.86       AIRTIME DEBIT CARD SALES             0.00       AIRTIME CARD SALES                   0.00       OVERS/UNDERS                         0.00       AIRTIME CASH SALES                   0.00       GIFT CARDS                           0.00       GIFT CARD CASH SALES                 0.00       STATIONERY(PHOTOCOPIES)              8.90       T O T A L  CASH PAYOUTS              8.90                                                                                                                                                                                                                                                                                                      Z
M17021392                              CASH        N2ABSENT                                                                                                                                                                                          ANNUAL LEAVE                                                                                                                                                                                    DAY OFF                                                                                                                                                                                         COMMENTS                                                                                                                                                                                                                                                                                                                                                                                       Z
Y17021300                                          N200000000563881+000075
ZN217021320073 SLAVE 2      SALES DATA                     NEXT INVOICE NO.  101735 0620
X N2 Slave 2 First invoice 101659 170213 Last invoice 101734 170213 Next invoice 101735 Total number of records 000000289 clbackup completed 20:07:45
