708593000708593               708593               170213N3     1400+00000+N30000028723+0000028723+000000000+000004024+0000032747+0000000000+I40000032747+0000000000+Z
708593001708593112-116069     708593006009681820277TCS CARRIER BAG JUMBO  0000001000+00000048+00000+0001T   00000048+0000001008          1400 54P090               1BZ
708593002708593039-000624     708593006003000054923C/SET 4PC PILLARS 5X8CM0000001000+00007016+00000+0001T   00007016+0000001008          1400 54P510               1BZ
708593003708593133-083230     708593006001023714305T/CLOTH 132x183cm OBLNG0000001000+00003507+00000+0001T   00003507+0000001008          1400 54P212               1BZ
708593004708593001-091415     708593006003000329113W/GLS OCC. LOVE 2PC 2800000001000+00008771+00000+0001T   00009648+0006471008          1400 54P515               1BZ
708593005708593039-000108     708593006001023524034TEA-LITE CANDLES 8PCE  0000001000+00001490+00000+0001T   00001490+0000001008          1400 54P510               1BZ
708593006708593039-001023     708593006003000466337CANDLE TEA-LITE METALIC0000001000+00001753+00000+0001T   00001753+0000001008          1400 54P510               1BZ
708593007708593040-000051     708593006001023799494C/HOLDER GLASS LANTERN 0000002000+00003069+00000+0001T   00003069+0000001008          1400 54P510               1BZ
708594000708594               708594               170213N3     1400+00000+N30000022139+0000022139+000000000+000003104+0000025243+0000000000+I40000025243+0000000000+Z
708594001708594112-116069     708594006009681820277TCS CARRIER BAG JUMBO  0000001000+00000048+00000+0001T   00000048+0000001059          1400 54P090               1BZ
708594002708594001-091415     708594006003000329113W/GLS OCC. LOVE 2PC 2800000001000+00008771+00000+0001T   00009648+0006471059          1400 54P515               1BZ
708594003708594018-000170     708594006001023775528MUG OCC. LOVE 2PC MINI 0000001000+00002192+00000+0001T   00002192+0000001059          1400 54P515               1BZ
708594004708594566-000070     708594006003000283798STICKERS POP UP ASSTD  0000001000+00001753+00000+0001T   00001753+0000001059          1400 54P130               1BZ
708594005708594007-000542     708594006001023847874NOTE-BOOK H/C SKETCHPAD0000002000+00003507+00000+0001T   00003507+0000001059          1400 54P130               1BZ
708594006708594080-000133-A   708594006003000647019MINI VALENTINES CARD   0000003000+00000437+00000+0001T   00000437+0000001059          1400 54P112               1BZ
708594007708594903-000155     708594006009803374435SWT LOLLY I LUV U HEART0000002000+00000525+00000+0001T   00000525+0000001059          1400 54P150               1BZ
708595000708595               708595               170213N3     1400+00000+N30000004384+0000004384+000000000+000000614+0000004990+0000000008+I20000000000+0000004990+Z
708595001708595015-000110     708595006001023854889WHITEWARE MUG 350ML    0000002000+00002192+00000+0001T   00002192+0000001102          1400 54P515               1BZ
708596000708596               708596               170213N3     1400+00000+N30000009553+0000009553+000000000+000001341+0000010894+0000000000+I40000010894+0000000000+Z
708596001708596903-000155     708596006009803374435SWT LOLLY I LUV U HEART0000001000+00000525+00000+0001T   00000525+0000001158          1400 54P150               1BZ
708596002708596159-000114     708596006001023507945SHOWER CAP PVC ASSTD   0000001000+00001490+00000+0001T   00001490+0000001158          1400 54P200               1BZ
708596003708596903-000155     708596006009803374435SWT LOLLY I LUV U HEART0000001000+00000525+00000+0001T   00000525+0000001158          1400 54P150               1BZ
708596004708596089-000030     708596006003000575671K/CHAIN LOVE MTL ASSTD 0000001000+00001753+00000+0001T   00001753+0000001158          1400 54P205               1BZ
708596005708596565-000890     708596006003000322107NOVELTY HIBOUNCE BALL  0000002000-00002630+00000+0001T   00002630+0000001158          1400 54P7453IC            1 Z
708596006708596565-000890     708596006003000322107NOVELTY HIBOUNCE BALL  0000002000+00002630+00000+0001T   00002630+0000001158          1400 54P7453IC            1BZ
708596007708596565-000893     708596006003000643516NOVELTY FLASHING BALL  0000002000+00002630+00000+0001T   00002630+0000001158          1400 54P745               1BZ
708597000708597               708597               170213N3     1400+00000+N30000001624+0000001624+000000000+000000229+0000001850+0000000003+I20000000000+0000001850+Z
708597001708597077-000010-C   708597006001023123879CREPE-PAPER RED        0000002000+00000788+00000+0001T   00000788+0000001213          1400 54P112               1BZ
708597002708597112-116069     708597006009681820277TCS CARRIER BAG JUMBO  0000001000+00000048+00000+0001T   00000048+0000001213          1400 54P090               1BZ
708598000708598               708598               170213N3     1400+00000+N30000030478+0000030478+000000000+000004269+0000034747+0000000000+I40000034747+0000000000+Z
708598001708598105-008005     708598006002580009484STORAGE CONTAINER 7.5L 0000001000+00004385+00000+0001T   00004385+0000001233          1400 54P210               1BZ
708598002708598133-083230     708598006001023714305T/CLOTH 132x183cm OBLNG0000002000+00003507+00000+0001T   00003507+0000001233          1400 54P212               1BZ
708598003708598071-081100-A   708598006003000326426GLUE-STICK 25g 2pk     0000001000+00001490+00000+0001T   00001490+0000001233          1400 54P130               1BZ
708598004708598071-001238     708598000060107212485ERASERS  3PCE    CARDED0000001000+00000876+00000+0001T   00000876+0000001233          1400 54P130               1BZ
708598005708598365-003115     708598006003000157525PLAY-SET IRON+BOARD+ACC0000001000+00016665+00000+0001T   00016665+0000001233          1400 54P725               1BZ
708598006708598112-116069     708598006009681820277TCS CARRIER BAG JUMBO  0000001000+00000048+00000+0001T   00000048+0000001233          1400 54P090               1BZ
708599000708599               708599               170213N3     1400+00000+N30000021704+0000021704+000000000+000003042+0000024746+0000000000+I40000024746+0000000000+Z
708599001708599112-116069     708599006009681820277TCS CARRIER BAG JUMBO  0000001000+00000048+00000+0001T   00000048+0000001245          1400 54P090               1BZ
708599002708599562-000011     708599006003000600984PLAY DOUGH NEON TUBE   0000001000+00003507+00000+0001T   00003507+0000001245          1400 54P755               1BZ
708599003708599567-014134     708599006003000560189BOOK COLOURING 96 PAGE 0000001000+00002630+00000+0001T   00002630+0000001245          1400 54P757               1BZ
708599004708599366-001101     708599006003000006991DRESS UP BOYS ASSTD    0000001000+00006139+00000+0001T   00006139+0000001245          1400 54P131               1BZ
708599005708599079-000201     708599006003000161430P/CRAYONS THERAPY 10PCE0000001000+00002630+00000+0001T   00002630+0000001245          1400 54P130               1BZ
708599006708599079-000206     708599006003000639700PENCIL CRAYONS THERAPY 0000001000+00001753+00000+0001T   00001753+0000001245          1400 54P130               1BZ
708599007708599079-000512     708599006001023635853CRAYONS WAX 12-COLOUR  0000001000+00001490+00000+0001T   00001490+0000001245          1400 54P130               1BZ
708599008708599567-011344     708599006003000630714BK COLOURING THERAPY 640000001000+00003507+00000+0001T   00003507+0000001245          1400 54P757               1BZ
708600000708600               708600               170213N3     1400+00000+N30000004385+0000004385+000000000+000000614+0000004999+0000000000+I40000004999+0000000000+Z
708600001708600104-000030     708600006001023803481BASKET PL 28x20x12cm   0000001000+00004385+00000+0001T   00004385+0000001300          1400 54P210               1BZ
708601000708601               708601               170213N3     1400+00000+N30000008015+0000008015+000000000+000001125+0000009140+0000000000+I40000009140+0000000000+Z
708601001708601077-000314     708601006003000181148GIFT-BAG 11X14CM MATT  0000001000+00000876+00000+0001T   00000876+0000001308          1400 54P112               1BZ
708601002708601362-003003     708601006003000295616HAIR BAND SET 6PCE     0000001000+00001753+00000+0001T   00001753+0000001308          1400 54P160               1BZ
708601003708601564-000012     708601006001023130075BUBBLE BOTTLE MAGIC    0000001000+00000700+00000+0001T   00000700+0000001308          1400 54P131               1BZ
708601004708601362-001103     708601006001023793515JWLRY GRL ASS 2PC ASSTD0000001000+00001753+00000+0001T   00001753+0000001308          1400 54P160               1BZ
708601005708601903-000670     708601006009803358008SWT SHERBET RED LIPS   0000001000+00000218+00000+0001T   00000218+0000001308          1400 54P150               1BZ
708601006708601903-000155     708601006009803374435SWT LOLLY I LUV U HEART0000001000+00000525+00000+0001T   00000525+0000001308          1400 54P150               1BZ
708601007708601903-000861     708601005010478430822SWT LOVE HEARTS SML    0000001000+00000876+00000+0001T   00000876+0000001308          1400 54P150               1BZ
708601008708601077-000310     708601006001023608635GIFT-BAG 18X23CM GLOSS 0000001000+00001314+00000+0001T   00001314+0000001308          1400 54P112               1BZ
708602000708602               708602               170213N3     1400+00000+N30000003507+0000003507+000000000+000000491+0000003998+0000000000+I40000003998+0000000000+Z
708602001708602007-000325     708602006009698066514PAPER A4 160GSM 25SHTS 0000001000+00003507+00000+0001T   00003507+0000001309          1400 54P130               1BZ
708603000708603               708603               170213N3     1400+00000+N30000005262+0000005262+000000000+000000737+0000005990+0000000009+I20000000000+0000005990+Z
708603001708603018-017000     708603006003000541850MUG OCC. MOM JUMBO ASST0000001000+00005262+00000+0001T   00005262+0000001309          1400 54P515               1BZ
708604000708604               708604               170213N3     1400+00000+N30000010963+0000010963+000000000+000001535+0000012490+0000000008+I20000000000+0000012490+Z
708604001708604077-000309-A   708604006003000671007GIFT-BAG HOLOGRAM JMB  0000001000+00002192+00000+0001T   00002192+0000001311          1400 54P112               1BZ
708604002708604368-000614     708604006001023705808PLUSH LOVE 30cm        0000001000+00008771+00000+0001T   00008771+0000001311          1400 54P745               1BZ
708605000708605               708605               170213N3     1400+00000+N30000006139+0000006139+000000000+000000860+0000006999+0000000000+I40000006999+0000000000+Z
708605001708605366-001101     708605006003000006991DRESS UP BOYS ASSTD    0000001000+00006139+00000+0001T   00006139+0000001317          1400 54P131               1BZ
708606000708606               708606               170213N3     1400+00000+N30000009516+0000009516+000000000+000001333+0000010849+0000000000+I40000010849+0000000000+Z
708606001708606080-000124     708606006003000297733CARD & ENV VALENTINES  0000003000+00001578+00000+0001T   00001578+0000001323          1400 54P112               1BZ
708606002708606077-000315     708606006003000181186GIFT-BAG 20x28cm MATT  0000003000+00001578+00000+0001T   00001578+0000001323          1400 54P112               1BZ
708606003708606112-116069     708606006009681820277TCS CARRIER BAG JUMBO  0000001000+00000048+00000+0001T   00000048+0000001323          1400 54P090               1BZ
708607000708607               708607               170213N3     1400+00000+N30000006623+0000006623+000000000+000000929+0000007550+0000000002+I20000000000+0000007550+Z
708607001708607112-116069     708607006009681820277TCS CARRIER BAG JUMBO  0000001000+00000048+00000+0001T   00000048+0000001325          1400 54P090               1BZ
708607002708607079-003012     708607006003000447893A/TUBE 75ML VIOLET     0000001000+00001753+00000+0001T   00001753+0000001325          1400 54P130               1BZ
708607003708607079-003010     708607006003000448845A/TUBE 75ML YELLOW     0000001000+00001753+00000+0001T   00001753+0000001325          1400 54P130               1BZ
708607004708607079-000271     708607006003000160082PAINT-BRUSHES LRGE ART 0000001000+00003069+00000+0001T   00003069+0000001325          1400 54P130               1BZ
708608000708608               708608               170213N3     1400+00000+N30000015833+0000015833+000000000+000002218+0000018051+0000000000+I40000018051+0000000000+Z
708608001708608112-116069     708608006009681820277TCS CARRIER BAG JUMBO  0000001000+00000048+00000+0001T   00000048+0000001326          1400 54P090               1BZ
708608002708608039-000799     708608006001023692382CANDLES TEALITE 100PCE 0000001000+00008771+00000+0001T   00008771+0000001326          1400 54P510               1BZ
708608003708608366-000255     708608006001023918413DRESS UP TIARA CROWN   0000002000+00003069+00000+0001T   00003069+0000001326          1400 54P131               1BZ
708608004708608039-000319-5   708608006003000442867B/CANDLES LRG NUMBER-5 0000001000+00000876+00000+0001T   00000876+0000001326          1400 54P510               1BZ
708609000708609               708609               170213N3     1400+00000+N30000002804+0000002804+000000000+000000394+0000003190+0000000008+I20000000000+0000003190+Z
708609001708609304-001204     708609006001023737984FLOWER OCC. TEDDY/ROSES0000002000+00001402+00000+0001T   00001490+0006471328          1400 54P510               1BZ
708610000708610               708610               170213N3     1400+00000+N30000001927+0000001927+000000000+000000271+0000002198+0000000000+I40000002198+0000000000+Z
708610001708610077-000304     708610006001023483232GIFT-BAG 25X32CM E/DAY 0000001000+00001490+00000+0001T   00001490+0000001338          1400 54P112               1BZ
708610002708610080-000133-A   708610006003000647019MINI VALENTINES CARD   0000001000+00000437+00000+0001T   00000437+0000001338          1400 54P112               1BZ
708611000708611               708611               170213N3     1400+00000+N30000013903+0000013903+000000000+000001948+0000015851+0000000000+I40000015851+0000000000+Z
708611001708611112-116069     708611006009681820277TCS CARRIER BAG JUMBO  0000001000+00000048+00000+0001T   00000048+0000001425          1400 54P090               1BZ
708611002708611006-000165     708611006001023758392BALLOONS LRG BAG-OF-1000000001000+00008771+00000+0001T   00008771+0000001425          1400 54P131               1BZ
708611003708611200-000060     708611006001023625762STRAWS 18cm FLEX 200PCE0000001000+00002455+00000+0001T   00002455+0000001425          1400 54P214               1BZ
708611004708611565-000043     708611006003000109562NOVELTY BALL FUNNY FACE0000001000+00001753+00000+0001T   00001753+0000001425          1400 54P745               1BZ
708611005708611006-000812     708611006001023902832HAT CONE WITH TINSEL   0000001000+00000876+00000+0001T   00000876+0000001425          1400 54P131               1BZ
708612000708612               708612               170213N3     1400+00000+N30000011798+0000011798+000000000+000001653+0000013450+0000000001+I20000000000+0000013450+Z
708612001708612266-001304     708612006001023560711MARBLES MILKY BAG OF 450000001000+00001227+00000+0001T   00001227+0000001427          1400 54P710               1BZ
708612002708612368-000049     708612006003000536955PLUSH BEAR 15cm LOVE   0000001000+00004385+00000+0001T   00004385+0000001427          1400 54P745               1BZ
708612003708612204-000008     708612006003000567652MEMO HLDR MOM POLY     0000001000+00004385+00000+0001T   00004385+0000001427          1400 54P300               1BZ
708612004708612089-000030     708612006003000575671K/CHAIN LOVE MTL ASSTD 0000001000+00001753+00000+0001T   00001753+0000001427          1400 54P205               1BZ
708612005708612112-116069     708612006009681820277TCS CARRIER BAG JUMBO  0000001000+00000048+00000+0001T   00000048+0000001427          1400 54P090               1BZ
708613000708613               708613               170213N3     1400+00000+N30000013642+0000013642+000000000+000001911+0000015553+0000000000+I40000015553+0000000000+Z
708613001708613112-116069     708613006009681820277TCS CARRIER BAG JUMBO  0000001000+00000048+00000+0001T   00000048+0000001429          1400 54P090               1BZ
708613002708613080-000127     708613006003000424351VALENTINES DAY 36x24CM 0000001000+00002192+00000+0001T   00002192+0000001429          1400 54P112               1BZ
708613003708613368-000637     708613006001023874092PLUSH BEAR SLEEPING LOV0000001000+00011402+00000+0001T   00012279+0006471429          1400 54P745               1BZ
708614000708614               708614               170213N3     1400+00000+N30000004465+0000004465+000000000+000000628+0000005093+0000000000+I40000005093+0000000000+Z
708614001708614903-000155     708614006009803374435SWT LOLLY I LUV U HEART0000004000+00000525+00000+0001T   00000525+0000001442          1400 54P150               1BZ
708614002708614077-000311     708614006001023608666GIFT-BAG 11X14CM GLOSS 0000001000+00000613+00000+0001T   00000613+0000001442          1400 54P112               1BZ
708614003708614077-000314     708614006003000181148GIFT-BAG 11X14CM MATT  0000002000+00000876+00000+0001T   00000876+0000001442          1400 54P112               1BZ
708615000708615               708615               170213N3     1400+00000+N30000008503+0000008503+000000000+000001192+0000009690+0000000005+I20000000000+0000009690+Z
708615001708615018-050000     708615006003000412679MUG OCC LOVE TWIN BEAR 0000001000+00006139+00000+0001T   00006139+0000001442          1400 54P515               1BZ
708615002708615903-000155     708615006009803374435SWT LOLLY I LUV U HEART0000002000+00000525+00000+0001T   00000525+0000001442          1400 54P150               1BZ
708615003708615077-000470     708615006003000330171G-BAG DESGN SML 11X14CM0000001000+00001314+00000+0001T   00001314+0000001442          1400 54P112               1BZ
708616000708616               708616               170213N3     1400+00000+N30000010520+0000010520+000000000+000001474+0000011990+0000000004+I20000000000+0000011990+Z
708616001708616024-091100     708616006001023914224BAKING-CUPS PAPER 100PC0000001000+00001753+00000+0001T   00001753+0000001450          1400 54P300               1BZ
708616002708616301-085004     708616006003000420469ORN LOVE PLAQUE 21X10CM0000002000+00003507+00000+0001T   00003946+0006471450          1400 54P505               1BZ
708616003708616466-064834     708616006008766064834BALL W/SPIKES 20cm     0000001000+00001753+00000+0001T   00001753+0000001450          1400 54P785               1BZ
708617000708617               708617               170213N3     1400+00000+N30000006972+0000006972+000000000+000000978+0000007950+0000000000+I40000007950+0000000000+Z
708617001708617112-116069     708617006009681820277TCS CARRIER BAG JUMBO  0000001000+00000048+00000+0001T   00000048+0000001524          1400 54P090               1BZ
708617002708617027-783002     708617006001023874658SCOURERS FOAM PACK OF 30000001000+00001490+00000+0001T   00001490+0000001524          1400 54P212               1BZ
708617003708617200-000020     708617006925406841030BAG ZIPPERSEAL 25PC    0000001000+00002192+00000+0001T   00002192+0000001524          1400 54P214               1BZ
708617004708617200-000065     708617006001023323675DRINKING-STRAWS 38PCE  0000001000+00000613+00000+0001T   00000613+0000001524          1400 54P214               1BZ
708617005708617036-000606     708617006003000322213WASHING PEGS PACK 20   0000001000+00000876+00000+0001T   00001314+0008191524          1400 54P212               1BZ
708617006708617174-000174     708617006003000511105STORAGE BOX NON-WOVEN  0000001000+00001753+00000+0001T   00002630+0008171524          1400 54P205               1BZ
708618000708618               708618               170213N3     1400+00000+N30000008819+0000008819+000000000+000001235+0000010050+0000000004+I20000000000+0000010050+Z
708618001708618019-000076     708618006001023757159V/GLASS 25CM C/DESIGN  0000001000+00008771+00000+0001T   00008771+0000001531          1400 54P510               1BZ
708618002708618112-116069     708618006009681820277TCS CARRIER BAG JUMBO  0000001000+00000048+00000+0001T   00000048+0000001531          1400 54P090               1BZ
708619000708619               708619               170213N3     1400+00000+N30000004869+0000004869+000000000+000000682+0000005551+0000000000+I40000005551+0000000000+Z
708619001708619018-005009     708619006001023725608MUG W/PLUSH-BEAR LOVE  0000001000+00003507+00000+0001T   00003507+0000001541          1400 54P515               1BZ
708619002708619077-000310     708619006001023608635GIFT-BAG 18X23CM GLOSS 0000001000+00001314+00000+0001T   00001314+0000001541          1400 54P112               1BZ
708619003708619112-116069     708619006009681820277TCS CARRIER BAG JUMBO  0000001000+00000048+00000+0001T   00000048+0000001541          1400 54P090               1BZ
708620000708620               708620               170213N3     1400+00000+N30000013026+0000013026+000000000+000001825+0000014851+0000000000+I40000014851+0000000000+Z
708620001708620124-001300     708620006003000486861STORAGE TIN WASHING    0000002000+00006139+00000+0001T   00006139+0000001543          1400 54P300               1BZ
708620002708620018-000177     708620006001023797513MUG MINI LOVE ASSTD    0000001000+00000700+00000+0001T   00000700+0000001543          1400 54P515               1BZ
708620003708620112-116069     708620006009681820277TCS CARRIER BAG JUMBO  0000001000+00000048+00000+0001T   00000048+0000001543          1400 54P090               1BZ
708621000708621               708621               170213N3     1400+00000+N30000001753+0000001753+000000000+000000246+0000001990+0000000009+I20000000000+0000001990+Z
708621001708621046-002032-PK2 708621004897006175063BATTERIES CR-2032  2PCE0000001000+00001753+00000+0001T   00001753+0000001544          1400 54P312               1BZ
708622000708622               708622               170213N3     1400+00000+N30000017541+0000017541+000000000+000002456+0000019990+0000000007+I20000000000+0000019990+Z
708622001708622464-003000     708622006003000328475GAME THINK:WORD BUILDER0000001000+00013157+00000+0001T   00013157+0000001545          1400 54P785               1BZ
708622002708622077-000926     708622006003000414178G/WRAP 700mmx2m LOVE   0000002000+00002192+00000+0001T   00002192+0000001545          1400 54P112               1BZ
708623000708623               708623               170213N3     1400+00000+N30000003200+0000003200+000000000+000000451+0000003651+0000000000+I40000003651+0000000000+Z
708623001708623001-000169     708623006005231103302TUMBLER 240ml HI-BALL  0000004000+00000788+00000+0001T   00000788+0000001555          1400 54P515               1BZ
708623002708623112-116069     708623006009681820277TCS CARRIER BAG JUMBO  0000001000+00000048+00000+0001T   00000048+0000001555          1400 54P090               1BZ
708624000708624               708624               170213N3     1400+00000+N30000006004+0000006004+000000000+000000843+0000006840+0000000007+I20000000000+0000006840+Z
708624001708624112-116069     708624006009681820277TCS CARRIER BAG JUMBO  0000001000+00000048+00000+0001T   00000048+0000001614          1400 54P090               1BZ
708624002708624006-000124     708624006003000625888BALLOONS 10PC MIX COL  0000001000+00001753+00000+0001T   00001753+0000001614          1400 54P131               1BZ
708624003708624903-000215     708624006002099001214SWT GS MALLOW TWIST PAC0000001000+00001753+00000+0001T   00001753+0000001614          1400 54P150               1BZ
708624004708624564-000012     708624006001023130075BUBBLE BOTTLE MAGIC    0000002000+00000700+00000+0001T   00000700+0000001614          1400 54P131               1BZ
708624005708624903-000155     708624006009803374435SWT LOLLY I LUV U HEART0000002000+00000525+00000+0001T   00000525+0000001614          1400 54P150               1BZ
708625000708625               708625               170213N3     1400+00000+N30000001490+0000001490+000000000+000000209+0000001690+0000000009+I20000000000+0000001690+Z
708625001708625077-000305     708625006003000395422GIFT-BAG WINE 10X35CM  0000001000+00001490+00000+0001T   00001490+0000001627          1400 54P112               1BZ
708626000708626               708626               170213N3     1400+00000+N30000005262+0000005262+000000000+000000737+0000005990+0000000009+I20000000000+0000005990+Z
708626001708626104-000190     708626006004779016334DISH DRAINER PL ASSTD  0000001000+00005262+00000+0001T   00005262+0000001634          1400 54P210               1BZ
708627000708627               708627               170213N3     1400+00000+N30000015610+0000015610+000000000+000002187+0000017797+0000000000+I40000017797+0000000000+Z
708627001708627077-000309     708627006001023608604GIFT-BAG 25X32CM GLOSS 0000001000+00001753+00000+0001T   00001753+0000001649          1400 54P112               1BZ
708627002708627368-000113     708627006001023780874PLUSH BLINGED LOVE 30cm0000001000+00012279+00000+0001T   00012279+0000001649          1400 54P745               1BZ
708627003708627080-000124     708627006003000297733CARD & ENV VALENTINES  0000001000+00001578+00000+0001T   00001578+0000001649          1400 54P112               1BZ
708628000708628               708628               170213N3     1400+00000+N30000006878+0000006878+000000000+000000968+0000007846+0000000000+I40000007846+0000000000+Z
708628001708628366-006103     708628006001023786944DRESS UP FACE PAINT SET0000001000+00002630+00000+0001T   00002630+0000001651          1400 54P131               1BZ
708628002708628112-116069     708628006009681820277TCS CARRIER BAG JUMBO  0000001000+00000048+00000+0001T   00000048+0000001651          1400 54P090               1BZ
708628003708628903-000155     708628006009803374435SWT LOLLY I LUV U HEART0000004000+00000525+00000+0001T   00000525+0000001651          1400 54P150               1BZ
708628004708628903-000151     708628006009803374411SWT SML RND R/BOW LOLLY0000004000+00000525+00000+0001T   00000525+0000001651          1400 54P150               1BZ
708629000708629               708629               170213N3     1400+00000+N30000005568+0000005568+000000000+000000780+0000006348+0000000000+I40000006348+0000000000+Z
708629001708629018-000170     708629006001023775528MUG OCC. LOVE 2PC MINI 0000001000+00002192+00000+0001T   00002192+0000001654          1400 54P515               1BZ
708629002708629018-000177     708629006001023797513MUG MINI LOVE ASSTD    0000001000+00000700+00000+0001T   00000700+0000001654          1400 54P515               1BZ
708629003708629077-000310     708629006001023608635GIFT-BAG 18X23CM GLOSS 0000002000+00001314+00000+0001T   00001314+0000001654          1400 54P112               1BZ
708629004708629112-116069     708629006009681820277TCS CARRIER BAG JUMBO  0000001000+00000048+00000+0001T   00000048+0000001654          1400 54P090               1BZ
708630000708630               708630               170213N3     1400+00000+N30000004908+0000004908+000000000+000000688+0000005590+0000000006+I20000000000+0000005590+Z
708630001708630903-000517     708630006001704012768SWT STRAWS FIZZY CHERRY0000001000+00001227+00000+0001T   00001227+0000001714          1400 54P150               1BZ
708630002708630903-000519     708630006001704012805SWT MS LIQ-O-GHETTI    0000001000+00001227+00000+0001T   00001227+0000001714          1400 54P150               1BZ
708630003708630018-000127     708630006001023380289MUG OCC STRAIGHT LOVE  0000001000+00001578+00000+0001T   00001753+0006471714          1400 54P515               1BZ
708630004708630903-000861     708630005010478430822SWT LOVE HEARTS SML    0000001000+00000876+00000+0001T   00000876+0000001714          1400 54P150               1BZ
708631000708631               708631               170213N3     1400+00000+N30000008771+0000008771+000000000+000001228+0000009990+0000000009+I20000000000+0000009990+Z
708631001708631261-003906     708631006003000472376RIFLE 57cm +ACCESS 8PCE0000001000+00008771+00000+0001T   00008771+0000001715          1400 54P710               1BZ
708632000708632               708632               170213N3     1400+00000+N30000005260+0000005260+000000000+000000738+0000005998+0000000000+I40000005998+0000000000+Z
708632001708632366-000300     708632006001023902955DRESSUP TIARA FEATHER  0000002000+00002630+00000+0001T   00002630+0000001723          1400 54P131               1BZ
708633000708633               708633               170213N3     1400+00000+N30000002629+0000002629+000000000+000000369+0000002990+0000000008+I20000000000+0000002990+Z
708633001708633077-000381     708633006003000247707GIFT-BAG 25X32CM S/COL 0000001000+00001753+00000+0001T   00001753+0000001724          1400 54P112               1BZ
708633002708633077-000011-C   708633006001023808523TISSUE 10xSHTS RED     0000001000+00000876+00000+0001T   00000876+0000001724          1400 54P112               1BZ
708634000708634               708634               170213N3     1400+00000+N30000007891+0000007891+000000000+000001106+0000008997+0000000000+I40000008997+0000000000+Z
708634001708634084-000369     708634006003000594467NAIL MANICURE SET 6PCE 0000001000+00006139+00000+0001T   00006139+0000001727          1400 54P200               1BZ
708634002708634252-000013     708634006001023488107CURTN-HOOK R6 ACETYLx500000002000+00000876+00000+0001T   00000876+0000001727          1400 54P810               1BZ
708635000708635               708635               170213N3     1400+00000+N30000001753+0000001753+000000000+000000246+0000001990+0000000009+I20000000000+0000001990+Z
708635001708635080-000106     708635006003000237098CARD&ENVLPE BDAY GIRL  0000001000+00001753+00000+0001T   00001753+0000001727          1400 54P112               1BZ
708636000708636               708636               170213N3     1400+00000+N30000024600+0000024600+000000000+000003446+0000028046+0000000000+I40000028046+0000000000+Z
708636001708636112-116069     708636006009681820277TCS CARRIER BAG JUMBO  0000001000+00000048+00000+0001T   00000048+0000001749          1400 54P090               1BZ
708636002708636105-001025     708636006009654960771CONTAINERS CLEAR 4PCE  0000001000+00003069+00000+0001T   00003069+0000001749          1400 54P210               1BZ
708636003708636133-000002     708636006001926059749DISH CLOTH MICROFIBRE  0000001000+00002630+00000+0001T   00002630+0000001749          1400 54P212               1BZ
708636004708636133-046633     708636009300601747023TABLECLOTH VINYL ASSTD 0000001000+00006139+00000+0001T   00006139+0000001749          1400 54P212               1BZ
708636005708636200-000205     708636006008766127027BAKEPANS 36PCE (PIE)   0000001000+00003507+00000+0001T   00003507+0000001749          1400 54P214               1BZ
708636006708636366-000301     708636006003000421077DRESSUP TIARA & EARRING0000001000+00003507+00000+0001T   00003507+0000001749          1400 54P131               1BZ
708636007708636075-000412     708636006001023855299SHOPPER-BASKET PL      0000001000+00005700+00000+0001T   00005700+0000001749          1400 54P160               1BZ
708637000708637               708637               170213N3     1400+00000+N30000003419+0000003419+000000000+000000479+0000003898+0000000000+I40000003898+0000000000+Z
708637001708637563-000318-L   708637006003000407088SERVIETTES 33cm RED    0000001000+00002192+00000+0001T   00002192+0000001803          1400 54P214               1BZ
708637002708637077-000245     708637006001023759214GIFT-RIBBON METALLICx2 0000001000+00001227+00000+0001T   00001227+0000001803          1400 54P112               1BZ
A17021300                                          08593943N3SLAVE 1                       54P3IC
A17021301                                          09150607N3SLAVE 1                       54P3IC
B70859600                                          170213N3565-000890     11550368SLAVE 1     54P3IC0000025000+0000002000+0000000000000+
B70859601                                          170213N3565-000890     11563868SLAVE 1     54P3IC0000025000+0000002000+0000000000000+
B70859602                                          170213N3565-000893     11565554SLAVE 1     54P3IC0000025000+0000002000+0000000000000+
M17021391                              CASH        N3SLAVE 1                       Z-REPORT No.   595TOTAL (Sales - Refunds)           4703.41       CASH TO BE BANKED                 1383.00       DEBIT CARDS                          0.00       CREDIT CARDS                      3320.41       Z-READING                         4703.41       AIRTIME DEBIT CARD SALES             0.00       AIRTIME CARD SALES                   0.00       OVERS/UNDERS                         0.00       AIRTIME CASH SALES                   0.00       GIFT CARDS                           0.00       GIFT CARD CASH SALES                 0.00       T O T A L  CASH PAYOUTS              0.00                                                                                                                                                                                                                                                                                                                                                      Z
M17021392                              CASH        N3ABSENT                                                                                                                                                                                          ANNUAL LEAVE                                                                                                                                                                                    DAY OFF                                                                                                                                                                                         COMMENTS                                                                                                                                                                                                                                                                                                                                                                                       Z
Y17021300                                          N300000000417893+000045
ZN317021321113 SLAVE 1      SALES DATA                     NEXT INVOICE NO.  708638 0595
X N3 Slave 1 First invoice 708593 170213 Last invoice 708637 170213 Next invoice 708638 Total number of records 000000199 clbackup completed 21:11:34
