801208000801208               801208               170213N3     1400+00000+N30000002278+0000002278+000000000+000000320+0000002590+0000000008+I20000000000+0000002590+Z
801208001801208079-000512     801208006001023635853CRAYONS WAX 12-COLOUR  0000001000+00001490+00000+0001T   00001490+0000000859          1400 EY9130               2CZ
801208002801208077-000010-C   801208006001023123879CREPE-PAPER RED        0000001000+00000788+00000+0001T   00000788+0000000859          1400 EY9112               2CZ
801209000801209               801209               170213N3     1400+00000+N30000021096+0000021096+000000000+000002955+0000024050+0000000001+I20000000000+0000024050+Z
801209001801209112-116069     801209006009681820277TCS CARRIER BAG JUMBO  0000001000+00000048+00000+0001T   00000048+0000000912          1400 EY9090               2BZ
801209002801209567-010161     801209009780000008516BOOK TOP ASSTD MILLS   0000004000+00005262+00000+0001T   00005262+0000000912          1400 EY9757               2BZ
801210000801210               801210               170213N3     1400+00000+N30000001753+0000001753+000000000+000000246+0000001990+0000000009+I20000000000+0000001990+Z
801210001801210200-003024     801210006001023657299REFUSE BAGS 20PCE BLACK0000001000+00001753+00000+0001T   00001753+0000000914          1400 EY9214               2CZ
801211000801211               801211               170213N3     1400+00000+N30000014903+0000014903+000000000+000002090+0000016993+0000000000+I40000016993+0000000000+Z
801211001801211306-001720     801211006003000276257HAND SANITIZER WIPES   0000001000+00001753+00000+0001T   00001753+0000000929          1400 EY9200               2AZ
801211002801211566-001228     801211006003000284153STICKERS CRYSTAL ASSTD 0000005000+00001753+00000+0001T   00001753+0000000929          1400 EY9130               2AZ
801211003801211079-130010     801211006003000496624ART+CRAFT FOAM DOLLS   0000001000+00004385+00000+0001T   00004385+0000000929          1400 EY9130               2AZ
801212000801212               801212               170213N3     1400+00000+N30000001402+0000001402+000000000+000000197+0000001590+0000000009+I20000000000+0000001590+Z
801212001801212304-001204     801212006001023737984FLOWER OCC. TEDDY/ROSES0000001000+00001402+00000+0001T   00001490+0006470932          1400 EY9510               2AZ
801213000801213               801213               170213N3     1400+00000+N30000009470+0000009470+000000000+000001327+0000010797+0000000000+I40000010797+0000000000+Z
801213001801213077-000315     801213006003000181186GIFT-BAG 20x28cm MATT  0000001000+00001578+00000+0001T   00001578+0000000939          1400 EY9112               2BZ
801213002801213206-000320     801213006003000632909BOTTLE STOPPER+MARKERS 0000001000+00005262+00000+0001T   00005262+0000000939          1400 EY9321               2BZ
801213003801213206-000280     801213006003000632428COCKTAIL STIRRER 6PCS  0000001000+00002630+00000+0001T   00002630+0000000939          1400 EY9321               2BZ
801214000801214               801214               170213N3     1400+00000+N30000017319+0000017319+000000000+000002428+0000019740+0000000007+I20000000000+0000019740+Z
801214001801214368-000012     801214006003000610464PLUSH BEAR 30cm SITTING0000001000+00008771+00000+0001T   00008771+0000000953          1400 EY9745               2CZ
801214002801214077-000011-C   801214006001023808523TISSUE 10xSHTS RED     0000001000+00000876+00000+0001T   00000876+0000000953          1400 EY9112               2CZ
801214003801214077-000235     801214006003000160211GIFT-RIBBON ROLL METALC0000001000+00002630+00000+0001T   00002630+0000000953          1400 EY9112               2CZ
801214004801214304-001011     801214006001023806727FLWR ROSE RED W/BEAR   0000001000+00000613+00000+0001T   00000788+0006470953          1400 EY9510               2CZ
801214005801214903-000911     801214006009802868454SWT ST GUM TAPE BARBIE 0000001000+00001753+00000+0001T   00001753+0000000953          1400 EY9150               2CZ
801214006801214077-000150-D   801214006003000054343GIFT-WRAP CELLPHANE CLR0000002000+00000876+00000+0001T   00000876+0000000953          1400 EY9112               2CZ
801214007801214071-005213     801214006001023690371CELLOTAPE 12mmx33m     0000001000+00000876+00000+0001T   00000876+0000000953          1400 EY9130               2CZ
801214008801214112-116069     801214006009681820277TCS CARRIER BAG JUMBO  0000001000+00000048+00000+0001T   00000048+0000000953          1400 EY9090               2CZ
801215000801215               801215               170213N3     1400+00000+N30000000700+0000000700+000000000+000000098+0000000790+0000000008+I20000000000+0000000790+Z
801215001801215564-000012     801215006001023130075BUBBLE BOTTLE MAGIC    0000001000+00000700+00000+0001T   00000700+0000000955          1400 EY9131               2CZ
801216000801216               801216               170213N3     1400+00000+N30000006137+0000006137+000000000+000000860+0000006990+0000000007+I20000000000+0000006990+Z
801216001801216079-013099     801216006003000081875ART+CRAFT EYES ASSTD   0000001000+00001753+00000+0001T   00001753+0000000955          1400 EY9130               2CZ
801216002801216566-000031     801216006003000283910STICKER BK TEACHER STIC0000002000+00002192+00000+0001T   00002192+0000000955          1400 EY9130               2CZ
801217000801217               801217               170213N3     1400+00000+N30000004556+0000004556+000000000+000000640+0000005190+0000000006+I20000000000+0000005190+Z
801217001801217079-009702-G   801217008427973060787PAPER SIRIO A2 FUSHIA  0000001000+00001051+00000+0001T   00001051+0000001007          1400 EY9130               2BZ
801217002801217079-009702-D   801217008427973059354PAPER SIRIO A2 RED COL 0000001000+00001051+00000+0001T   00001051+0000001007          1400 EY9130               2BZ
801217003801217077-000245     801217006001023759214GIFT-RIBBON METALLICx2 0000002000+00001227+00000+0001T   00001227+0000001007          1400 EY9112               2BZ
801218000801218               801218               170213N3     1400+00000+N30000002978+0000002978+000000000+000000419+0000003390+0000000007+I20000000000+0000003390+Z
801218001801218079-009702-G   801218008427973060787PAPER SIRIO A2 FUSHIA  0000001000+00001051+00000+0001T   00001051+0000001008          1400 EY9130               2BZ
801218002801218079-009702-C   801218008427973059309PAPER SIRIO A2 VIOLET  0000001000+00001051+00000+0001T   00001051+0000001008          1400 EY9130               2BZ
801218003801218105-001010     801218006002580007329LUNCH-BOX 1L  ASSTD    0000001000+00000876+00000+0001T   00000876+0000001008          1400 EY9210               2BZ
801219000801219               801219               170213N3     1400+00000+N30000006834+0000006834+000000000+000000961+0000007795+0000000000+I40000007795+0000000000+Z
801219001801219071-001124     801219006001023802873MARKERS WHITEBOARD 3PCE0000001000+00002630+00000+0001T   00002630+0000001012          1400 EY9130               2DZ
801219002801219079-009702-B   801219008427973059491PAPER SIRIO A2 WHITE   0000004000+00001051+00000+0001T   00001051+0000001012          1400 EY9130               2DZ
801220000801220               801220               170213N3     1400+00000+N30000008099+0000008099+000000000+000001135+0000009234+0000000000+I40000009234+0000000000+Z
801220001801220112-116038     801220006009681820246TCS CARRIER BAG MIDI   0000001000+00000035+00000+0001T   00000035+0000001020          1400 EY9090               2CZ
801220002801220079-014101     801220006001023908612ART+CRAFT SCOUBIDOUx50 0000002000+00003507+00000+0001T   00003507+0000001020          1400 EY9130               2CZ
801220003801220903-000155     801220006009803374435SWT LOLLY I LUV U HEART0000002000+00000525+00000+0001T   00000525+0000001020          1400 EY9150               2CZ
801221000801221               801221               170213N3     1400+00000+N30000004382+0000004382+000000000+000000615+0000004990+0000000007+I20000000000+0000004990+Z
801221001801221079-000359     801221006003000639823FELT-TIP PENS THERAPY  0000001000+00002630+00000+0001T   00002630+0000001027          1400 EY9130               2DZ
801221002801221108-001225     801221006003000010240SALAD BOWL MINI 380ML  0000002000+00000876+00000+0001T   00000876+0000001027          1400 EY9210               2DZ
801222000801222               801222               170213N3     1400+00000+N30000003541+0000003541+000000000+000000497+0000004030+0000000008+I20000000000+0000004030+Z
801222001801222112-116038     801222006009681820246TCS CARRIER BAG MIDI   0000001000+00000035+00000+0001T   00000035+0000001043          1400 EY9090               2BZ
801222002801222018-000108     801222006001023380265MUG NOVELTY ICON ASST  0000001000+00001753+00000+0001T   00001753+0000001043          1400 EY9515               2BZ
801222003801222027-783000     801222006001023874641SCOURERS RAINBOW 5PCE  0000001000+00001753+00000+0001T   00001753+0000001043          1400 EY9212               2BZ
801223000801223               801223               170213N3     1400+00000+N30000007027+0000007027+000000000+000000997+0000008020+0000000004+I20000000000+0000008020+Z
801223001801223112-116038     801223006009681820246TCS CARRIER BAG MIDI   0000001000+00000035+00000+0001T   00000035+0000001051          1400 EY9090               2CZ
801223002801223903-000094     801223006923431501622SWT GS CANDY NECKLACE  0000016000+00000437+00000+0001T   00000437+0000001051          1400 EY9150               2CZ
801224000801224               801224               170213N3     1400+00000+N30000002630+0000002630+000000000+000000369+0000002999+0000000000+I40000002999+0000000000+Z
801224001801224033-000008     801224006003000226818PILL REMINDER 28-COMPAR0000001000+00002630+00000+0001T   00002630+0000001058          1400 EY9200               2BZ
801225000801225               801225               170213N3     1400+00000+N30000000349+0000000349+000000000+000000049+0000000390+0000000008+I20000000000+0000000390+Z
801225001801225033-000008     801225006003000226818PILL REMINDER 28-COMPAR0000001000-00002630+00000+0001T   00002630+0000001102          1400 EY92003IC            2 Z
801225002801225033-000008     801225006003000226818PILL REMINDER 28-COMPAR0000001000+00002630+00000+0001T   00002630+0000001102          1400 EY92003IC            2BZ
801225003801225033-000013     801225006001023567215PILL-REMINDER PL       0000002000+00001227+00000+0001T   00001227+0000001102          1400 EY9200               2BZ
801225004801225903-000155     801225006009803374435SWT LOLLY I LUV U HEART0000001000+00000525+00000+0001T   00000525+0000001102          1400 EY9150               2BZ
801225005801225033-000008     801225006003000226818PILL REMINDER 28-COMPAR0000001000-00002630+00000+0001T   00002630+0000001102          1400 EY92003IC            2 Z
801226000801226               801226               170213N3     1400+00000+N30000001435+0000001435+000000000+000000201+0000001630+0000000006+I20000000000+0000001630+Z
801226001801226112-116038     801226006009681820246TCS CARRIER BAG MIDI   0000001000+00000035+00000+0001T   00000035+0000001105          1400 EY9090               2CZ
801226002801226564-000012     801226006001023130075BUBBLE BOTTLE MAGIC    0000002000+00000700+00000+0001T   00000700+0000001105          1400 EY9131               2CZ
801227000801227               801227               170213N3     1400+00000+N30000002630+0000002630+000000000+000000369+0000002990+0000000009+I20000000000+0000002990+Z
801227001801227366-006103     801227006001023786944DRESS UP FACE PAINT SET0000001000+00002630+00000+0001T   00002630+0000001105          1400 EY9131               2AZ
801228000801228               801228               170213N3     1400+00000+N30000013185+0000013185+000000000+000001850+0000015030+0000000005+I20000000000+0000015030+Z
801228001801228112-116038     801228006009681820246TCS CARRIER BAG MIDI   0000001000+00000035+00000+0001T   00000035+0000001106          1400 EY9090               2BZ
801228002801228366-006103     801228006001023786944DRESS UP FACE PAINT SET0000005000+00002630+00000+0001T   00002630+0000001106          1400 EY9131               2BZ
801229000801229               801229               170213N3     1400+00000+N30000002630+0000002630+000000000+000000369+0000002990+0000000009+I20000000000+0000002990+Z
801229001801229366-006103     801229006001023786944DRESS UP FACE PAINT SET0000001000+00002630+00000+0001T   00002630+0000001107          1400 EY9131               2DZ
801230000801230               801230               170213N3     1400+00000+N30000000876+0000000876+000000000+000000123+0000000990+0000000009+I20000000000+0000000990+Z
801230001801230078-000025     801230008887013700064SUPERGLUE 3g 1PCE CARD 0000001000+00000876+00000+0001T   00000876+0000001107          1400 EY9810               2CZ
801231000801231               801231               170213N3     1400+00000+N30000018376+0000018376+000000000+000002575+0000020951+0000000000+I40000020951+0000000000+Z
801231001801231112-116069     801231006009681820277TCS CARRIER BAG JUMBO  0000001000+00000048+00000+0001T   00000048+0000001114          1400 EY9090               2BZ
801231002801231366-001100     801231006003000031443DRESS UP HAT PIRATE    0000001000+00005262+00000+0001T   00005262+0000001114          1400 EY9131               2BZ
801231003801231366-001101     801231006003000006991DRESS UP BOYS ASSTD    0000001000+00006139+00000+0001T   00006139+0000001114          1400 EY9131               2BZ
801231004801231266-001020     801231006001023791689MASK & 2 SWORDS PL SET 0000001000+00004823+00000+0001T   00004823+0000001114          1400 EY9710               2BZ
801231005801231903-000090     801231006009826020821SWT GS CHOCO COINS 60g 0000001000+00002104+00000+0001T   00002104+0000001114          1400 EY9150               2BZ
801232000801232               801232               170213N3     1400+00000+N30000003243+0000003243+000000000+000000455+0000003698+0000000000+I40000003698+0000000000+Z
801232001801232200-000130     801232006001023645067DESSERT-SPOONS 10PCE   0000001000+00000613+00000+0001T   00000613+0000001116          1400 EY9214               2CZ
801232002801232366-000300     801232006001023902955DRESSUP TIARA FEATHER  0000001000+00002630+00000+0001T   00002630+0000001116          1400 EY9131               2CZ
801233000801233               801233               170213N3     1400+00000+N30000007276+0000007276+000000000+000001020+0000008296+0000000000+I40000008296+0000000000+Z
801233001801233040-000213     801233006001023617736CANDLE-HOLDER DAISY    0000002000+00001227+00000+0001T   00001227+0000001119          1400 EY9510               2CZ
801233002801233200-000003     801233006003000532360DISPOSABLE BAG 100PC   0000001000+00002630+00000+0001T   00002630+0000001119          1400 EY9214               2CZ
801233003801233200-000020     801233006925406841030BAG ZIPPERSEAL 25PC    0000001000+00002192+00000+0001T   00002192+0000001119          1400 EY9214               2CZ
801234000801234               801234               170213N3     1400+00000+N30000005032+0000005032+000000000+000000705+0000005730+0000000007+I20000000000+0000005730+Z
801234001801234112-116038     801234006009681820246TCS CARRIER BAG MIDI   0000001000+00000035+00000+0001T   00000035+0000001122          1400 EY9090               2BZ
801234002801234079-006498     801234006001023836151GLITTER SET 10PCE      0000001000+00003507+00000+0001T   00003507+0000001122          1400 EY9130               2BZ
801234003801234079-006494     801234006003000159864GLITTER GLUE 5PCE 11cm 0000001000+00001490+00000+0001T   00001490+0000001122          1400 EY9130               2BZ
801235000801235               801235               170213N3     1400+00000+N30000003979+0000003979+000000000+000000558+0000004530+0000000007+I20000000000+0000004530+Z
801235001801235112-116038     801235006009681820246TCS CARRIER BAG MIDI   0000001000+00000035+00000+0001T   00000035+0000001127          1400 EY9090               2CZ
801235002801235903-005007     801235006002580020311SWT MALLOW BEAR M/SHAKE0000001000+00001314+00000+0001T   00001314+0000001127          1400 EY9150               2CZ
801235003801235567-075466     801235009780263251661BK NOVEL ROMANCE       0000001000+00002630+00000+0001T   00002630+0000001127          1400 EY9757               2CZ
801236000801236               801236               170213N3     1400+00000+N30000001839+0000001839+000000000+000000258+0000002097+0000000000+I40000002097+0000000000+Z
801236001801236002-021040     801236006001023812216PARTY-PICKS 100PCE     0000001000+00000525+00000+0001T   00000525+0000001132          1400 EY9300               2CZ
801236002801236077-000310     801236006001023608635GIFT-BAG 18X23CM GLOSS 0000001000+00001314+00000+0001T   00001314+0000001132          1400 EY9112               2CZ
801237000801237               801237               170213N3     1400+00000+N30000009679+0000009679+000000000+000001356+0000011035+0000000000+I40000011035+0000000000+Z
801237001801237112-116038     801237006009681820246TCS CARRIER BAG MIDI   0000001000+00000035+00000+0001T   00000035+0000001134          1400 EY9090               2DZ
801237002801237018-000170     801237006001023775528MUG OCC. LOVE 2PC MINI 0000001000+00002192+00000+0001T   00002192+0000001134          1400 EY9515               2DZ
801237003801237007-000724     801237006003000225958NOTE MAGNETIC 60SHTS   0000001000+00001753+00000+0001T   00001753+0000001134          1400 EY9130               2DZ
801237004801237203-007000     801237006001023886040SHOT-GLASS DISPOSABLE  0000001000+00003507+00000+0001T   00003507+0000001134          1400 EY9300               2DZ
801237005801237106-003130     801237006001023625755ICE CUBE TRAY 21-CUBE  0000001000+00002192+00000+0001T   00002192+0000001134          1400 EY9210               2DZ
801238000801238               801238               170213N3     1400+00000+N30000006138+0000006138+000000000+000000860+0000006998+0000000000+I40000006998+0000000000+Z
801238001801238105-001180     801238006003000666522CONTAINER SET LITE 3PC 0000002000+00003069+00000+0001T   00003069+0000001141          1400 EY9210               2CZ
801239000801239               801239               170213N3     1400+00000+N30000014469+0000014469+000000000+000002026+0000016495+0000000000+I40000016495+0000000000+Z
801239001801239368-000049     801239006003000536955PLUSH BEAR 15cm LOVE   0000002000+00004385+00000+0001T   00004385+0000001144          1400 EY9745               2AZ
801239002801239018-000170     801239006001023775528MUG OCC. LOVE 2PC MINI 0000001000+00002192+00000+0001T   00002192+0000001144          1400 EY9515               2AZ
801239003801239301-085004     801239006003000420469ORN LOVE PLAQUE 21X10CM0000001000+00003507+00000+0001T   00003946+0006471144          1400 EY9505               2AZ
801240000801240               801240               170213N3     1400+00000+N30000008806+0000008806+000000000+000001233+0000010039+0000000000+I40000010039+0000000000+Z
801240001801240112-116038     801240006009681820246TCS CARRIER BAG MIDI   0000001000+00000035+00000+0001T   00000035+0000001156          1400 EY9090               2CZ
801240002801240001-091415     801240006003000329113W/GLS OCC. LOVE 2PC 2800000001000+00008771+00000+0001T   00009648+0006471156          1400 EY9515               2CZ
801241000801241               801241               170213N3     1400+00000+N30000000876+0000000876+000000000+000000123+0000000990+0000000009+I20000000000+0000000990+Z
801241001801241077-000314     801241006003000181148GIFT-BAG 11X14CM MATT  0000001000+00000876+00000+0001T   00000876+0000001207          1400 EY9112               2CZ
801242000801242               801242               170213N3     1400+00000+N30000008770+0000008770+000000000+000001228+0000009998+0000000000+I40000009998+0000000000+Z
801242001801242162-093295     801242006001492932958#TAG BLUES BEADED NK   0000002000+00004385+00000+0001T   00004385+0000001209          1400 EY9160               2CZ
801243000801243               801243               170213N3     1400+00000+N30000010347+0000010347+000000000+000001449+0000011796+0000000000+I40000011796+0000000000+Z
801243001801243077-000315     801243006003000181186GIFT-BAG 20x28cm MATT  0000001000+00001578+00000+0001T   00001578+0000001225          1400 EY9112               2CZ
801243002801243031-000868-A   801243006001023798534P/FRAME PL BLCK 10X15CM0000002000+00002192+00000+0001T   00002192+0000001225          1400 EY9510               2CZ
801243003801243368-000049     801243006003000536955PLUSH BEAR 15cm LOVE   0000001000+00004385+00000+0001T   00004385+0000001225          1400 EY9745               2CZ
801244000801244               801244               170213N3     1400+00000+N30000004857+0000004857+000000000+000000681+0000005538+0000000000+I40000005538+0000000000+Z
801244001801244080-000133-A   801244006003000647019MINI VALENTINES CARD   0000001000+00000437+00000+0001T   00000437+0000001227          1400 EY9112               2BZ
801244002801244030-000031-A   801244006003000457588PLAQUE W/WORDS ASSTD   0000001000+00004385+00000+0001T   00004823+0006471227          1400 EY9505               2BZ
801244003801244112-116038     801244006009681820246TCS CARRIER BAG MIDI   0000001000+00000035+00000+0001T   00000035+0000001227          1400 EY9090               2BZ
801245000801245               801245               170213N3     1400+00000+N30000003067+0000003067+000000000+000000430+0000003497+0000000000+I40000003497+0000000000+Z
801245001801245464-000238     801245006001023644039GAME SNAKES+LADDERS    0000001000+00001314+00000+0001T   00001314+0000001232          1400 EY9785               2CZ
801245002801245491-059642     801245000078257596423INTEX ARMBAND 6-12YRS  0000001000+00001753+00000+0001T   00001753+0000001232          1400 EY9787               2CZ
801246000801246               801246               170213N3     1400+00000+N30000004781+0000004781+000000000+000000671+0000005452+0000000000+I40000005452+0000000000+Z
801246001801246112-116069     801246006009681820277TCS CARRIER BAG JUMBO  0000001000+00000048+00000+0001T   00000048+0000001234          1400 EY9090               2DZ
801246002801246200-000200     801246006008766091144BAKING ALUM FOIL 2PCE  0000001000+00002192+00000+0001T   00002192+0000001234          1400 EY9214               2DZ
801246003801246079-006522     801246006001023149442ART+CRAFT GLUE ASSORTED0000001000+00001753+00000+0001T   00001753+0000001234          1400 EY9130               2DZ
801246004801246077-000010-C   801246006001023123879CREPE-PAPER RED        0000001000+00000788+00000+0001T   00000788+0000001234          1400 EY9112               2DZ
801247000801247               801247               170213N3     1400+00000+N30000001753+0000001753+000000000+000000246+0000001990+0000000009+I20000000000+0000001990+Z
801247001801247264-000921     801247000090159150442MAISTO CAR 3" FRESH    0000001000+00001753+00000+0001T   00001753+0000001235          1400 EY9710               2CZ
801248000801248               801248               170213N3     1400+00000+N30000003507+0000003507+000000000+000000491+0000003998+0000000000+I40000003998+0000000000+Z
801248001801248036-000020     801248006001023666512LINT-REMOVER B/O SMALL 0000001000+00003507+00000+0001T   00003507+0000001257          1400 EY9212               2CZ
801249000801249               801249               170213N3     1400+00000+N30000008770+0000008770+000000000+000001228+0000009998+0000000000+I40000009998+0000000000+Z
801249001801249368-000049     801249006003000536955PLUSH BEAR 15cm LOVE   0000001000+00004385+00000+0001T   00004385+0000001259          1400 EY9745               2CZ
801249002801249001-000175     801249006001023788108B/MUG GLS LOVE 380ML   0000001000+00004385+00000+0001T   00004385+0000001259          1400 EY9515               2CZ
801250000801250               801250               170213N3     1400+00000+N30000000876+0000000876+000000000+000000123+0000000990+0000000009+I20000000000+0000000990+Z
801250001801250903-000503     801250006001704006118SWT VAMPIRE FANGS 60G  0000001000+00000876+00000+0001T   00000876+0000001343          1400 EY9150               2CZ
801251000801251               801251               170213N3     1400+00000+N30000005260+0000005260+000000000+000000737+0000005997+0000000000+I40000005997+0000000000+Z
801251001801251261-000004     801251006003000599578GUN SPACE PING PONG    0000001000+00003507+00000+0001T   00003507+0000001345          1400 EY9710               2AZ
801251002801251077-000116     801251006003000240777GIFT-WRAP 700mmx2m COL 0000001000+00001753+00000+0001T   00001753+0000001345          1400 EY9112               2AZ
801252000801252               801252               170213N3     1400+00000+N30000001753+0000001753+000000000+000000246+0000001990+0000000009+I20000000000+0000001990+Z
801252001801252077-000309     801252006001023608604GIFT-BAG 25X32CM GLOSS 0000001000+00001753+00000+0001T   00001753+0000001349          1400 EY9112               2CZ
801253000801253               801253               170213N3     1400+00000+N30000007891+0000007891+000000000+000001105+0000008996+0000000000+I40000008996+0000000000+Z
801253001801253077-000310     801253006001023608635GIFT-BAG 18X23CM GLOSS 0000001000+00001314+00000+0001T   00001314+0000001414          1400 EY9112               2AZ
801253002801253077-000509     801253006003000082582GIFT-BAG SML 6PCE ORG P0000001000+00002192+00000+0001T   00002192+0000001414          1400 EY9112               2AZ
801253003801253368-000049     801253006003000536955PLUSH BEAR 15cm LOVE   0000001000+00004385+00000+0001T   00004385+0000001414          1400 EY9745               2AZ
801254000801254               801254               170213N3     1400+00000+N30000001787+0000001787+000000000+000000251+0000002038+0000000000+I40000002038+0000000000+Z
801254001801254078-000025     801254008887013700064SUPERGLUE 3g 1PCE CARD 0000001000+00000876+00000+0001T   00000876+0000001418          1400 EY9810               2DZ
801254002801254077-000011-C   801254006001023808523TISSUE 10xSHTS RED     0000001000+00000876+00000+0001T   00000876+0000001418          1400 EY9112               2DZ
801254003801254112-116038     801254006009681820246TCS CARRIER BAG MIDI   0000001000+00000035+00000+0001T   00000035+0000001418          1400 EY9090               2DZ
801255000801255               801255               170213N3     1400+00000+N30000002190+0000002190+000000000+000000308+0000002490+0000000008+I20000000000+0000002490+Z
801255001801255080-000133     801255006003000535613CARD&ENV MINI ASTD DSGN0000001000+00000437+00000+0001T   00000437+0000001421          1400 EY9112               2AZ
801255002801255089-000030     801255006003000575671K/CHAIN LOVE MTL ASSTD 0000001000+00001753+00000+0001T   00001753+0000001421          1400 EY9205               2AZ
801256000801256               801256               170213N3     1400+00000+N30000006139+0000006139+000000000+000000860+0000006999+0000000000+I40000006999+0000000000+Z
801256001801256366-001101     801256006003000006991DRESS UP BOYS ASSTD    0000001000+00006139+00000+0001T   00006139+0000001426          1400 EY9131               2DZ
801257000801257               801257               170213N3     1400+00000+N30000014028+0000014028+000000000+000001966+0000015994+0000000000+I40000015994+0000000000+Z
801257001801257080-000133-A   801257006003000647019MINI VALENTINES CARD   0000001000+00000437+00000+0001T   00000437+0000001436          1400 EY9112               2DZ
801257002801257039-081008     801257006008766081008CANDLES 9PCE SCENTED   0000001000+00002630+00000+0001T   00002630+0000001436          1400 EY9510               2DZ
801257003801257079-011524     801257006003000408139ART+CRFT FINGER PUPPETS0000001000+00004385+00000+0001T   00004385+0000001436          1400 EY9130               2DZ
801257004801257079-000271     801257006003000160082PAINT-BRUSHES LRGE ART 0000001000+00003069+00000+0001T   00003069+0000001436          1400 EY9130               2DZ
801257005801257079-000286     801257006001023797032FINGER-PAINT 4PCE      0000001000+00003507+00000+0001T   00003507+0000001436          1400 EY9130               2DZ
801258000801258               801258               170213N3     1400+00000+N30000003331+0000003331+000000000+000000467+0000003790+0000000008+I20000000000+0000003790+Z
801258001801258089-000030     801258006003000575671K/CHAIN LOVE MTL ASSTD 0000001000+00001753+00000+0001T   00001753+0000001437          1400 EY9205               2CZ
801258002801258077-000315     801258006003000181186GIFT-BAG 20x28cm MATT  0000001000+00001578+00000+0001T   00001578+0000001437          1400 EY9112               2CZ
801259000801259               801259               170213N3     1400+00000+N30000003102+0000003102+000000000+000000436+0000003530+0000000008+I20000000000+0000003530+Z
801259001801259206-000600     801259006003000631551TOILET PAPER SUDUKO    0000001000+00002630+00000+0001T   00002630+0000001447          1400 EY9321               2CZ
801259002801259112-116038     801259006009681820246TCS CARRIER BAG MIDI   0000001000+00000035+00000+0001T   00000035+0000001447          1400 EY9090               2CZ
801259003801259083-000049     801259004891035200024CIG-LIGHTER DISPOSABLE 0000001000+00000437+00000+0001T   00000437+0000001447          1400 EY9315               2CZ
801260000801260               801260               170213N3     1400+00000+N30000030731+0000030731+000000000+000004305+0000035036+0000000000+I40000035036+0000000000+Z
801260001801260112-116038     801260006009681820246TCS CARRIER BAG MIDI   0000001000+00000035+00000+0001T   00000035+0000001451          1400 EY9090               2CZ
801260002801260903-000123     801260006925925909280SWEET GS MINI MALLOWS  0000001000+00000876+00000+0001T   00000876+0000001451          1400 EY9150               2CZ
801260003801260586-010649     801260006001492106496WATCH LDS RND B/FLY WHT0000001000+00015788+00000+0001T   00015788+0000001451          1400 EY9160               2CZ
801260004801260586-098616     801260006001492986166WATCH TEEN CHARM HRT   0000001000+00011402+00000+0001T   00011402+0000001451          1400 EY9160               2CZ
801260005801260034-078810     801260006001023856838DIAPER DISPOSE-BAGSx1000000001000+00002630+00000+0001T   00002630+0000001451          1400 EY9215               2CZ
801261000801261               801261               170213N3     1400+00000+N30000004208+0000004208+000000000+000000590+0000004790+0000000008+I20000000000+0000004790+Z
801261001801261077-000235     801261006003000160211GIFT-RIBBON ROLL METALC0000001000+00002630+00000+0001T   00002630+0000001457          1400 EY9112               2CZ
801261002801261077-000315     801261006003000181186GIFT-BAG 20x28cm MATT  0000001000+00001578+00000+0001T   00001578+0000001457          1400 EY9112               2CZ
801262000801262               801262               170213N3     1400+00000+N30000001753+0000001753+000000000+000000246+0000001999+0000000000+I40000001999+0000000000+Z
801262001801262071-003011     801262006001023762825PEN STICKBALL X10 ASSTD0000001000+00001753+00000+0001T   00001753+0000001505          1400 EY9130               2CZ
801263000801263               801263               170213N3     1400+00000+N30000004385+0000004385+000000000+000000614+0000004999+0000000000+I40000004999+0000000000+Z
801263001801263368-000049     801263006003000536955PLUSH BEAR 15cm LOVE   0000001000+00004385+00000+0001T   00004385+0000001510          1400 EY9745               2DZ
801264000801264               801264               170213N3     1400+00000+N30000007541+0000007541+000000000+000001057+0000008598+0000000000+I40000008598+0000000000+Z
801264001801264018-050000     801264006003000412679MUG OCC LOVE TWIN BEAR 0000001000+00006139+00000+0001T   00006139+0000001530          1400 EY9515               2CZ
801264002801264304-001204     801264006001023737984FLOWER OCC. TEDDY/ROSES0000001000+00001402+00000+0001T   00001490+0006471530          1400 EY9510               2CZ
801265000801265               801265               170213N3     1400+00000+N30000001753+0000001753+000000000+000000246+0000001990+0000000009+I20000000000+0000001990+Z
801265001801265077-000316     801265006001023609731GIFT-BAG 25X32CM MATT  0000001000+00001753+00000+0001T   00001753+0000001531          1400 EY9112               2BZ
801266000801266               801266               170213N3     1400+00000+N30000007365+0000007365+000000000+000001032+0000008390+0000000007+I20000000000+0000008390+Z
801266001801266368-000049     801266006003000536955PLUSH BEAR 15cm LOVE   0000001000+00004385+00000+0001T   00004385+0000001532          1400 EY9745               2CZ
801266002801266018-000127     801266006001023380289MUG OCC STRAIGHT LOVE  0000001000+00001578+00000+0001T   00001753+0006471532          1400 EY9515               2CZ
801266003801266304-001204     801266006001023737984FLOWER OCC. TEDDY/ROSES0000001000+00001402+00000+0001T   00001490+0006471532          1400 EY9510               2CZ
801267000801267               801267               170213N3     1400+00000+N30000026876+0000026876+000000000+000003769+0000030645+0000000000+I40000030645+0000000000+Z
801267001801267112-116069     801267006009681820277TCS CARRIER BAG JUMBO  0000001000+00000048+00000+0001T   00000048+0000001535          1400 EY9090               2CZ
801267002801267077-000351     801267006003000139033GIFT-BAG 18X23CM E/D P 0000001000+00001753+00000+0001T   00001753+0000001535          1400 EY9112               2CZ
801267003801267304-001204     801267006001023737984FLOWER OCC. TEDDY/ROSES0000006000+00001402+00000+0001T   00001490+0006471535          1400 EY9510               2CZ
801267004801267106-000901     801267006003000538058WATER BOTTLE 600ml     0000001000+00006139+00000+0001T   00006139+0000001535          1400 EY9210               2CZ
801267005801267106-001120     801267006922286920282W/BOTTLE ALUM 750ml    0000001000+00005262+00000+0001T   00005262+0000001535          1400 EY9210               2CZ
801267006801267106-000890     801267000876416080628WATER BOTTLE PL 700ml  0000001000+00005262+00000+0001T   00005262+0000001535          1400 EY9210               2CZ
801268000801268               801268               170213N3     1400+00000+N30000025206+0000025206+000000000+000003535+0000028740+0000000001+I20000000000+0000028740+Z
801268001801268107-004510     801268006002580008968STEP-STOOL PL          0000001000+00005262+00000+0001T   00005262+0000001541          1400 EY9210               2DZ
801268002801268112-116069     801268006009681820277TCS CARRIER BAG JUMBO  0000001000+00000048+00000+0001T   00000048+0000001541          1400 EY9090               2DZ
801268003801268079-001002     801268006003000448715CANVAS A4 WOOD MOUNTED 0000001000+00002630+00000+0001T   00002630+0000001541          1400 EY9130               2DZ
801268004801268071-000873     801268006001023758743RUB-BANDS CLR BAG-100  0000001000+00001490+00000+0001T   00001490+0000001541          1400 EY9130               2DZ
801268005801268252-000011     801268006001023475190CURTN-GLIDER ACETYL x500000006000+00000876+00000+0001T   00000876+0000001541          1400 EY9810               2DZ
801268006801268036-000610     801268006001023627230WASHING-PEGS PL PACK-240000001000+00001753+00000+0001T   00001753+0000001541          1400 EY9212               2DZ
801268007801268079-013102     801268006003000019601ART+CRAFT DIY PIPE-CLNR0000001000+00002192+00000+0001T   00002192+0000001541          1400 EY9130               2DZ
801268008801268079-014152     801268006003000253074ART+CRAFT PK50 ASSTD   0000001000+00003069+00000+0001T   00003069+0000001541          1400 EY9130               2DZ
801268009801268078-000030     801268006003000151141YAMAYO SUPERGLUE 8g    0000001000+00001753+00000+0001T   00001753+0000001541          1400 EY9810               2DZ
801268010801268079-013099     801268006003000081875ART+CRAFT EYES ASSTD   0000001000+00001753+00000+0001T   00001753+0000001541          1400 EY9130               2DZ
801269000801269               801269               170213N3     1400+00000+N30000002278+0000002278+000000000+000000320+0000002590+0000000008+I20000000000+0000002590+Z
801269001801269077-000316     801269006001023609731GIFT-BAG 25X32CM MATT  0000001000+00001753+00000+0001T   00001753+0000001542          1400 EY9112               2DZ
801269002801269903-000155     801269006009803374435SWT LOLLY I LUV U HEART0000001000+00000525+00000+0001T   00000525+0000001542          1400 EY9150               2DZ
801270000801270               801270               170213N3     1400+00000+N30000008804+0000008804+000000000+000001234+0000010030+0000000008+I20000000000+0000010030+Z
801270001801270112-116038     801270006009681820246TCS CARRIER BAG MIDI   0000001000+00000035+00000+0001T   00000035+0000001543          1400 EY9090               2CZ
801270002801270368-000175     801270006003000270316PLUSH BEAR 4 ASSTD 18CM0000001000+00006139+00000+0001T   00006139+0000001543          1400 EY9745               2CZ
801270003801270031-000868-B   801270006001023798565P/FRAME PL BLCK 13X18CM0000001000+00002630+00000+0001T   00002630+0000001543          1400 EY9510               2CZ
801271000801271               801271               170213N3     1400+00000+N30000006169+0000006169+000000000+000000865+0000007030+0000000004+I20000000000+0000007030+Z
801271001801271903-000617     801271006003000644261SWT HS CANDY CANE 19cm 0000001000+00001753+00000+0001T   00001753+0000001553          1400 EY9150               2AZ
801271002801271077-000310     801271006001023608635GIFT-BAG 18X23CM GLOSS 0000002000+00001314+00000+0001T   00001314+0000001553          1400 EY9112               2AZ
801271003801271112-116038     801271006009681820246TCS CARRIER BAG MIDI   0000001000+00000035+00000+0001T   00000035+0000001553          1400 EY9090               2AZ
801271004801271903-000059     801271006005929000517SWT GS NOVELTY ALIEN VA0000001000+00001753+00000+0001T   00001753+0000001553          1400 EY9150               2AZ
801272000801272               801272               170213N3     1400+00000+N30000003507+0000003507+000000000+000000491+0000003990+0000000008+I20000000000+0000003990+Z
801272001801272077-000932     801272006003000409808G/WRAP 700mmx5m PATTERN0000001000+00003507+00000+0001T   00003507+0000001553          1400 EY9112               2AZ
801273000801273               801273               170213N3     1400+00000+N30000017540+0000017540+000000000+000002457+0000019997+0000000000+I40000019997+0000000000+Z
801273001801273020-000019     801273006003000515387K/SCISSORS IN-HOLDER   0000001000+00006139+00000+0001T   00006139+0000001556          1400 EY9300               2BZ
801273002801273124-001300     801273006003000486861STORAGE TIN WASHING    0000001000+00006139+00000+0001T   00006139+0000001556          1400 EY9300               2BZ
801273003801273107-004510     801273006002580008968STEP-STOOL PL          0000001000+00005262+00000+0001T   00005262+0000001556          1400 EY92103IC            2BZ
801274000801274               801274               170213N3     1400+00000+N30000001664+0000001664+000000000+000000234+0000001890+0000000008+I20000000000+0000001890+Z
801274001801274033-005921-B   801274006001023678348SEWING-THREAD 200m BLK 0000001000+00000876+00000+0001T   00000876+0000001557          1400 EY9200               2BZ
801274002801274033-005991     801274006001023678546NEEDLES H/HOLD-REPAIR  0000001000+00000788+00000+0001T   00000788+0000001557          1400 EY9200               2BZ
801275000801275               801275               170213N3     1400+00000+N30000002892+0000002892+000000000+000000406+0000003290+0000000008+I20000000000+0000003290+Z
801275001801275012-000001     801275006003000331048MICRO PLATE-COVER 26X6 0000001000+00001753+00000+0001T   00002192+0008191600          1400 EY9300               2DZ
801275002801275903-000087     801275006001704000161SWT SPECKLED-EGGS 50G  0000001000+00001139+00000+0001T   00001139+0000001600          1400 EY9150               2DZ
801276000801276               801276               170213N3     1400+00000+N30000002454+0000002454+000000000+000000344+0000002798+0000000000+I40000002798+0000000000+Z
801276001801276903-000220     801276006001704007368SWT JELLY BEANS 60G    0000001000+00000876+00000+0001T   00000876+0000001603          1400 EY9150               2BZ
801276002801276080-000124     801276006003000297733CARD & ENV VALENTINES  0000001000+00001578+00000+0001T   00001578+0000001603          1400 EY9112               2BZ
801277000801277               801277               170213N3     1400+00000+N30000001795+0000001795+000000000+000000253+0000002048+0000000000+I40000002048+0000000000+Z
801277001801277903-000183     801277006003000451043SWT LB HEART LOLLY     0000001000+00000393+00000+0001T   00000393+0000001604          1400 EY9150               2CZ
801277002801277304-001204     801277006001023737984FLOWER OCC. TEDDY/ROSES0000001000+00001402+00000+0001T   00001490+0006471604          1400 EY9510               2CZ
801278000801278               801278               170213N3     1400+00000+N30000011436+0000011436+000000000+000001602+0000013030+0000000008+I20000000000+0000013030+Z
801278001801278112-116038     801278006009681820246TCS CARRIER BAG MIDI   0000001000+00000035+00000+0001T   00000035+0000001607          1400 EY9090               2DZ
801278002801278039-000798     801278006001023617774CANDLES TEALITE BOX-50 0000001000+00006139+00000+0001T   00006139+0000001607          1400 EY9510               2DZ
801278003801278039-082852     801278006008766082852C/SET 4PC MINI PILLARS 0000001000+00005262+00000+0001T   00005262+0000001607          1400 EY9510               2DZ
801279000801279               801279               170213N3     1400+00000+N30000013805+0000013805+000000000+000001938+0000015743+0000000000+I40000015743+0000000000+Z
801279001801279079-009702-B   801279008427973059491PAPER SIRIO A2 WHITE   0000002000+00001051+00000+0001T   00001051+0000001611          1400 EY9130               2DZ
801279002801279079-009702-F   801279008427973059392PAPER SIRIO A2 GREEN   0000001000+00001051+00000+0001T   00001051+0000001611          1400 EY9130               2DZ
801279003801279112-116069     801279006009681820277TCS CARRIER BAG JUMBO  0000001000+00000048+00000+0001T   00000048+0000001611          1400 EY9090               2DZ
801279004801279079-013032     801279006003000389209SET LETTERS 2 ASSTD    0000001000+00001753+00000+0001T   00001753+0000001611          1400 EY9130               2DZ
801279005801279079-006494     801279006003000159864GLITTER GLUE 5PCE 11cm 0000001000+00001490+00000+0001T   00001490+0000001611          1400 EY9130               2DZ
801279006801279079-009700-C   801279006003000545636PAPER SIRIO A4 VIOLET  0000004000+00000306+00000+0001T   00000306+0000001611          1400 EY9130               2DZ
801279007801279071-000306     801279006001023715371STENCILS ART FUN SET   0000001000+00003507+00000+0001T   00003507+0000001611          1400 EY9130               2DZ
801279008801279566-000367     801279006003000645558STICKER WINDOW DECOR   0000001000+00002630+00000+0001T   00002630+0000001611          1400 EY9130               2DZ
801280000801280               801280               170213N3     1400+00000+N30000006170+0000006170+000000000+000000865+0000007035+0000000000+I40000007035+0000000000+Z
801280001801280112-116038     801280006009681820246TCS CARRIER BAG MIDI   0000001000+00000035+00000+0001T   00000035+0000001613          1400 EY9090               2CZ
801280002801280040-000213     801280006001023617736CANDLE-HOLDER DAISY    0000003000+00001227+00000+0001T   00001227+0000001613          1400 EY9510               2CZ
801280003801280040-000212     801280006003000112418C/HOLDER RND T-LITE 6CM0000002000+00001227+00000+0001T   00001227+0000001613          1400 EY9510               2CZ
801281000801281               801281               170213N3     1400+00000+N30000003506+0000003506+000000000+000000492+0000003998+0000000000+I40000003998+0000000000+Z
801281001801281266-000938     801281006001023186676SWORD+SCABBARD         0000001000+00002630+00000+0001T   00002630+0000001614          1400 EY9710               2CZ
801281002801281903-000220     801281006001704007368SWT JELLY BEANS 60G    0000001000+00000876+00000+0001T   00000876+0000001614          1400 EY9150               2CZ
801282000801282               801282               170213N3     1400+00000+N30000007498+0000007498+000000000+000001052+0000008550+0000000000+I20000000000+0000008550+Z
801282001801282112-116069     801282006009681820277TCS CARRIER BAG JUMBO  0000001000+00000048+00000+0001T   00000048+0000001617          1400 EY9090               2CZ
801282002801282077-000011-C   801282006001023808523TISSUE 10xSHTS RED     0000001000+00000876+00000+0001T   00000876+0000001617          1400 EY9112               2CZ
801282003801282077-000351     801282006003000139033GIFT-BAG 18X23CM E/D P 0000001000+00001753+00000+0001T   00001753+0000001617          1400 EY9112               2CZ
801282004801282306-001002     801282006003000560233PLASTER FABRIC 10PC    0000001000+00001490+00000+0001T   00001490+0000001617          1400 EY9200               2CZ
801282005801282089-000030     801282006003000575671K/CHAIN LOVE MTL ASSTD 0000001000+00001753+00000+0001T   00001753+0000001617          1400 EY9205               2CZ
801282006801282018-000127     801282006001023380289MUG OCC STRAIGHT LOVE  0000001000+00001578+00000+0001T   00001753+0006471617          1400 EY9515               2CZ
801283000801283               801283               170213N3     1400+00000+N30000006173+0000006173+000000000+000000865+0000007038+0000000000+I40000007038+0000000000+Z
801283001801283112-116038     801283006009681820246TCS CARRIER BAG MIDI   0000001000+00000035+00000+0001T   00000035+0000001620          1400 EY9090               2BZ
801283002801283089-000030     801283006003000575671K/CHAIN LOVE MTL ASSTD 0000001000+00001753+00000+0001T   00001753+0000001620          1400 EY9205               2BZ
801283003801283560-000109     801283006003000547784DINO'S PAINT GLOWING   0000001000+00004385+00000+0001T   00004385+0000001620          1400 EY9745               2BZ
801284000801284               801284               170213N3     1400+00000+N30000001578+0000001578+000000000+000000221+0000001790+0000000009+I20000000000+0000001790+Z
801284001801284251-000031     801284006001023515827MASKING-TAPE 24mmx40m  0000001000+00001578+00000+0001T   00001578+0000001621          1400 EY9810               2CZ
801285000801285               801285               170213N3     1400+00000+N30000011450+0000011450+000000000+000001604+0000013050+0000000004+I20000000000+0000013050+Z
801285001801285368-000637     801285006001023874092PLUSH BEAR SLEEPING LOV0000001000+00011402+00000+0001T   00012279+0006471622          1400 EY9745               2CZ
801285002801285112-116069     801285006009681820277TCS CARRIER BAG JUMBO  0000001000+00000048+00000+0001T   00000048+0000001622          1400 EY9090               2CZ
801286000801286               801286               170213N3     1400+00000+N30000003506+0000003506+000000000+000000492+0000003990+0000000008+I20000000000+0000003990+Z
801286001801286466-008889     801286006001023835376WHISTLE SPORTS+STRING  0000002000+00001753+00000+0001T   00001753+0000001622          1400 EY9785               2CZ
801287000801287               801287               170213N3     1400+00000+N30000004385+0000004385+000000000+000000614+0000004990+0000000009+I20000000000+0000004990+Z
801287001801287162-093206     801287006001492932064#TAG KIDS 2PK A/BAND   0000001000+00004385+00000+0001T   00004385+0000001623          1400 EY9160               2CZ
801288000801288               801288               170213N3     1400+00000+N30000004504+0000004504+000000000+000000632+0000005130+0000000006+I20000000000+0000005130+Z
801288001801288112-116038     801288006009681820246TCS CARRIER BAG MIDI   0000001000+00000035+00000+0001T   00000035+0000001627          1400 EY9090               2CZ
801288002801288565-000044     801288006003000128280BARREL OF SLIME 100g   0000002000+00000613+00000+0001T   00000613+0000001627          1400 EY9745               2CZ
801288003801288903-000593     801288006003000563890SWT WATER GUN 15cm     0000001000+00001753+00000+0001T   00001753+0000001627          1400 EY9150               2CZ
801288004801288565-000049     801288006003000548156NOVELTY SLIME "BOOGERS"0000001000+00001490+00000+0001T   00001490+0000001627          1400 EY9745               2CZ
801289000801289               801289               170213N3     1400+00000+N30000008187+0000008187+000000000+000001147+0000009330+0000000004+I20000000000+0000009330+Z
801289001801289112-116038     801289006009681820246TCS CARRIER BAG MIDI   0000001000+00000035+00000+0001T   00000035+0000001630          1400 EY9090               2CZ
801289002801289031-005853     801289006003000442416P/FRAME WDN TWIN HEARTS0000001000+00003507+00000+0001T   00003507+0000001630          1400 EY9510               2CZ
801289003801289018-000127     801289006001023380289MUG OCC STRAIGHT LOVE  0000001000+00001578+00000+0001T   00001753+0006471630          1400 EY9515               2CZ
801289004801289077-000310     801289006001023608635GIFT-BAG 18X23CM GLOSS 0000001000+00001314+00000+0001T   00001314+0000001630          1400 EY9112               2CZ
801289005801289077-000011-X   801289006001023809827TISSUE-WRAP SILVER 10PC0000001000+00001753+00000+0001T   00001753+0000001630          1400 EY9112               2CZ
801290000801290               801290               170213N3     1400+00000+N30000006485+0000006485+000000000+000000910+0000007390+0000000005+I20000000000+0000007390+Z
801290001801290077-000316     801290006001023609731GIFT-BAG 25X32CM MATT  0000001000+00001753+00000+0001T   00001753+0000001633          1400 EY9112               2CZ
801290002801290077-000010-C   801290006001023123879CREPE-PAPER RED        0000001000+00000788+00000+0001T   00000788+0000001633          1400 EY9112               2CZ
801290003801290031-005853     801290006003000442416P/FRAME WDN TWIN HEARTS0000001000+00003507+00000+0001T   00003507+0000001633          1400 EY9510               2CZ
801290004801290080-000133-A   801290006003000647019MINI VALENTINES CARD   0000001000+00000437+00000+0001T   00000437+0000001633          1400 EY9112               2CZ
801291000801291               801291               170213N3     1400+00000+N30000002630+0000002630+000000000+000000369+0000002999+0000000000+I40000002999+0000000000+Z
801291001801291050-000364-Z   801291006001023777133PADLOCK IRON 38mm CARD 0000001000+00002630+00000+0001T   00002630+0000001635          1400 EY9855               2CZ
801292000801292               801292               170213N3     1400+00000+N30000001753+0000001753+000000000+000000246+0000001990+0000000009+I20000000000+0000001990+Z
801292001801292206-000370     801292006003000631315STRAW P/DRINKING GLASS 0000001000+00001753+00000+0001T   00001753+0000001640          1400 EY9321               2DZ
801293000801293               801293               170213N3     1400+00000+N30000007013+0000007013+000000000+000000983+0000007990+0000000006+I20000000000+0000007990+Z
801293001801293366-002101     801293006003000617715DRESS UP MASK LIGHT UP 0000001000+00002630+00000+0001T   00002630+0000001644          1400 EY9131               2CZ
801293002801293362-002467     801293006003000167623HAIR EXT LONG 61cm     0000001000+00003507+00000+0001T   00003507+0000001644          1400 EY9160               2CZ
801293003801293077-000011-D   801293006001023808554TISSUE-WRAP WHITE 10PCE0000001000+00000876+00000+0001T   00000876+0000001644          1400 EY9112               2CZ
801294000801294               801294               170213N3     1400+00000+N30000001753+0000001753+000000000+000000246+0000001990+0000000009+I20000000000+0000001990+Z
801294001801294077-000316     801294006001023609731GIFT-BAG 25X32CM MATT  0000001000+00001753+00000+0001T   00001753+0000001646          1400 EY9112               2CZ
801295000801295               801295               170213N3     1400+00000+N30000008625+0000008625+000000000+000001209+0000009834+0000000000+I40000009834+0000000000+Z
801295001801295001-000175     801295006001023788108B/MUG GLS LOVE 380ML   0000001000+00004385+00000+0001T   00004385+0000001649          1400 EY9515               2AZ
801295002801295112-116038     801295006009681820246TCS CARRIER BAG MIDI   0000001000+00000035+00000+0001T   00000035+0000001649          1400 EY9090               2AZ
801295003801295903-000861     801295005010478430822SWT LOVE HEARTS SML    0000001000+00000876+00000+0001T   00000876+0000001649          1400 EY9150               2AZ
801295004801295903-000087     801295006001704000161SWT SPECKLED-EGGS 50G  0000001000+00001139+00000+0001T   00001139+0000001649          1400 EY9150               2AZ
801295005801295077-000011-C   801295006001023808523TISSUE 10xSHTS RED     0000001000+00000876+00000+0001T   00000876+0000001649          1400 EY9112               2AZ
801295006801295077-000310     801295006001023608635GIFT-BAG 18X23CM GLOSS 0000001000+00001314+00000+0001T   00001314+0000001649          1400 EY9112               2AZ
801296000801296               801296               170213N3     1400+00000+N30000017147+0000017147+000000000+000002403+0000019550+0000000000+I40000019550+0000000000+Z
801296001801296112-116069     801296006009681820277TCS CARRIER BAG JUMBO  0000001000+00000048+00000+0001T   00000048+0000001650          1400 EY9090               2BZ
801296002801296564-009019     801296006001023498519BUBBLE TOY GUN         0000001000+00004385+00000+0001T   00004385+0000001650          1400 EY9131               2BZ
801296003801296564-000001     801296006003000140589BUBBLE B/O GUN PL      0000001000+00004385+00000+0001T   00004385+0000001650          1400 EY9131               2BZ
801296004801296039-001023     801296006003000466337CANDLE TEA-LITE METALIC0000001000+00001753+00000+0001T   00001753+0000001650          1400 EY9510               2BZ
801296005801296036-000013     801296006001246500860LINT REMOVER REFILLS   0000001000+00003946+00000+0001T   00003946+0000001650          1400 EY9212               2BZ
801296006801296072-020309     801296006001023700995DOG-TOY DUMBELL F/BALL 0000001000+00002630+00000+0001T   00002630+0000001650          1400 EY9870               2BZ
801297000801297               801297               170213N3     1400+00000+N30000016712+0000016712+000000000+000002340+0000019052+0000000000+I40000019052+0000000000+Z
801297001801297112-116069     801297006009681820277TCS CARRIER BAG JUMBO  0000001000+00000048+00000+0001T   00000048+0000001654          1400 EY9090               2CZ
801297002801297065-005337     801297006001023619303KEYBOARD B/O 32-KEYS   0000001000+00013157+00000+0001T   00013157+0000001654          1400 EY9745               2CZ
801297003801297267-000311     801297006003000610730PUZZLE WOOD TRAY ASSTD 0000001000+00003507+00000+0001T   00003507+0000001654          1400 EY9755               2CZ
801298000801298               801298               170213N3     1400+00000+N30000001753+0000001753+000000000+000000246+0000001990+0000000009+I20000000000+0000001990+Z
801298001801298077-000309     801298006001023608604GIFT-BAG 25X32CM GLOSS 0000001000+00001753+00000+0001T   00001753+0000001654          1400 EY9112               2CZ
801299000801299               801299               170213N3     1400+00000+N30000003331+0000003331+000000000+000000467+0000003798+0000000000+I40000003798+0000000000+Z
801299001801299903-000087     801299006001704000161SWT SPECKLED-EGGS 50G  0000001000+00001139+00000+0001T   00001139+0000001658          1400 EY9150               2CZ
801299002801299362-003005     801299006003000295166HAIR H/BAND SET 2PCE   0000001000+00002192+00000+0001T   00002192+0000001658          1400 EY9160               2CZ
801300000801300               801300               170213N3     1400+00000+N30000001753+0000001753+000000000+000000246+0000001990+0000000009+I20000000000+0000001990+Z
801300001801300089-000030     801300006003000575671K/CHAIN LOVE MTL ASSTD 0000001000+00001753+00000+0001T   00001753+0000001659          1400 EY9205               2CZ
801301000801301               801301               170213N3     1400+00000+N30000007016+0000007016+000000000+000000983+0000007990+0000000009+I20000000000+0000007990+Z
801301001801301562-006275     801301006001023836182EDU BOARD W/MARKER ASST0000001000+00007016+00000+0001T   00007016+0000001700          1400 EY9755               2CZ
801302000801302               801302               170213N3     1400+00000+N30000004420+0000004420+000000000+000000619+0000005039+0000000000+I40000005039+0000000000+Z
801302001801302112-116038     801302006009681820246TCS CARRIER BAG MIDI   0000001000+00000035+00000+0001T   00000035+0000001704          1400 EY9090               2CZ
801302002801302018-030000     801302006003000421060MUG OCCASIONS LOVE 2PCE0000001000+00004385+00000+0001T   00004385+0000001704          1400 EY9515               2CZ
801303000801303               801303               170213N3     1400+00000+N30000018726+0000018726+000000000+000002624+0000021350+0000000000+I40000021350+0000000000+Z
801303001801303112-116069     801303006009681820277TCS CARRIER BAG JUMBO  0000001000+00000048+00000+0001T   00000048+0000001706          1400 EY9090               2CZ
801303002801303368-000020     801303006003000672028PLUSH DINOSAUR 37cm    0000001000+00008771+00000+0001T   00008771+0000001706          1400 EY9745               2CZ
801303003801303263-000188     801303006001023790927CAR RACER 24cm         0000001000+00005262+00000+0001T   00005262+0000001706          1400 EY9710               2CZ
801303004801303006-000111     801303006003000519385BALLOONS LARGE 12PCE   0000001000+00002630+00000+0001T   00002630+0000001706          1400 EY9131               2CZ
801303005801303077-000245     801303006001023759214GIFT-RIBBON METALLICx2 0000001000+00001227+00000+0001T   00001227+0000001706          1400 EY9112               2CZ
801303006801303903-000138     801303006002099004314SWT GS WINE GUMS 60G   0000001000+00000788+00000+0001T   00000788+0000001706          1400 EY9150               2CZ
801304000801304               801304               170213N3     1400+00000+N30000006869+0000006869+000000000+000000965+0000007834+0000000000+I40000007834+0000000000+Z
801304001801304112-116038     801304006009681820246TCS CARRIER BAG MIDI   0000001000+00000035+00000+0001T   00000035+0000001711          1400 EY9090               2CZ
801304002801304903-000619     801304006003000672455SWT LOLLY STR/BRRY 140G0000002000+00001753+00000+0001T   00001753+0000001711          1400 EY9150               2CZ
801304003801304903-000119     801304006001704007337SWT COCONUT-WHEEL      0000002000+00000788+00000+0001T   00000788+0000001711          1400 EY9150               2CZ
801304004801304903-000861     801304005010478430822SWT LOVE HEARTS SML    0000002000+00000876+00000+0001T   00000876+0000001711          1400 EY9150               2CZ
801305000801305               801305               170213N3     1400+00000+N30000004647+0000004647+000000000+000000651+0000005298+0000000000+I40000005298+0000000000+Z
801305001801305077-000380     801305006003000247585GIFT-BAG 33X45CM S/COL 0000001000+00002455+00000+0001T   00002455+0000001712          1400 EY9112               2CZ
801305002801305080-000127     801305006003000424351VALENTINES DAY 36x24CM 0000001000+00002192+00000+0001T   00002192+0000001712          1400 EY9112               2CZ
801306000801306               801306               170213N3     1400+00000+N30000011259+0000011259+000000000+000001577+0000012830+0000000006+I20000000000+0000012830+Z
801306001801306112-116038     801306006009681820246TCS CARRIER BAG MIDI   0000001000+00000035+00000+0001T   00000035+0000001714          1400 EY9090               2BZ
801306002801306001-091415     801306006003000329113W/GLS OCC. LOVE 2PC 2800000001000+00008771+00000+0001T   00009648+0006471714          1400 EY9515               2BZ
801306003801306566-000535     801306006003000284719STICKER SPARKLE EMBOSS 0000001000+00001753+00000+0001T   00001753+0000001714          1400 EY9130               2BZ
801306004801306564-000012     801306006001023130075BUBBLE BOTTLE MAGIC    0000001000+00000700+00000+0001T   00000700+0000001714          1400 EY9131               2BZ
801307000801307               801307               170213N3     1400+00000+N30000000613+0000000613+000000000+000000086+0000000690+0000000009+I20000000000+0000000690+Z
801307001801307077-000311     801307006001023608666GIFT-BAG 11X14CM GLOSS 0000001000+00000613+00000+0001T   00000613+0000001714          1400 EY9112               2CZ
801308000801308               801308               170213N3     1400+00000+N30000004420+0000004420+000000000+000000619+0000005039+0000000000+I40000005039+0000000000+Z
801308001801308019-000070     801308006003000297474VASE GLS CLEAR BOTTLE  0000001000+00004385+00000+0001T   00004385+0000001716          1400 EY9510               2CZ
801308002801308112-116038     801308006009681820246TCS CARRIER BAG MIDI   0000001000+00000035+00000+0001T   00000035+0000001716          1400 EY9090               2CZ
801309000801309               801309               170213N3     1400+00000+N30000030812+0000030812+000000000+000004321+0000035130+0000000003+I20000000000+0000035130+Z
801309001801309112-116069     801309006009681820277TCS CARRIER BAG JUMBO  0000001000+00000048+00000+0001T   00000048+0000001719          1400 EY9090               2CZ
801309002801309206-000450     801309006003000619863DRINKING JAR GLOBE     0000001000+00002630+00000+0001T   00002630+0000001719          1400 EY9321               2CZ
801309003801309206-000600     801309006003000631551TOILET PAPER SUDUKO    0000001000+00002630+00000+0001T   00002630+0000001719          1400 EY9321               2CZ
801309004801309206-000620     801309006003000631797BACK SCRATCHER EXTEND  0000001000+00002630+00000+0001T   00002630+0000001719          1400 EY9321               2CZ
801309005801309007-000325     801309006009698066514PAPER A4 160GSM 25SHTS 0000001000+00003507+00000+0001T   00003507+0000001719          1400 EY9130               2CZ
801309006801309077-000116     801309006003000240777GIFT-WRAP 700mmx2m COL 0000002000+00001753+00000+0001T   00001753+0000001719          1400 EY9112               2CZ
801309007801309016-006515     801309006003000295555S/JAR GLS EMBOSS. 250ML0000002000+00001753+00000+0001T   00001753+0000001719          1400 EY9300               2CZ
801309008801309077-000011-X   801309006001023809827TISSUE-WRAP SILVER 10PC0000001000+00001753+00000+0001T   00001753+0000001719          1400 EY9112               2CZ
801309009801309903-000503     801309006001704006118SWT VAMPIRE FANGS 60G  0000002000+00000876+00000+0001T   00000876+0000001719          1400 EY9150               2CZ
801309010801309903-000095     801309006001704011495SWT SPECKLED-EGGS 100G 0000001000+00002104+00000+0001T   00002104+0000001719          1400 EY9150               2CZ
801309011801309071-005214     801309006003000152544CELLOTAPE SUPER REFILL 0000001000+00001490+00000+0001T   00001490+0000001719          1400 EY9130               2CZ
801309012801309903-000844     801309005010478432567SWT CANDY DL LUV HEARTS0000004000+00001314+00000+0001T   00001314+0000001719          1400 EY9150               2CZ
801310000801310               801310               170213N3     1400+00000+N30000013198+0000013198+000000000+000001851+0000015049+0000000000+I40000015049+0000000000+Z
801310001801310112-116069     801310006009681820277TCS CARRIER BAG JUMBO  0000001000+00000048+00000+0001T   00000048+0000001722          1400 EY9090               2CZ
801310002801310079-001001     801310006003000448593CANVAS A3 WOOD MOUNTED 0000001000+00004385+00000+0001T   00004385+0000001722          1400 EY9130               2CZ
801310003801310079-006522     801310006001023149442ART+CRAFT GLUE ASSORTED0000001000+00001753+00000+0001T   00001753+0000001722          1400 EY9130               2CZ
801310004801310079-003010     801310006003000448845A/TUBE 75ML YELLOW     0000001000+00001753+00000+0001T   00001753+0000001722          1400 EY9130               2CZ
801310005801310079-003002     801310006003000447886A/TUBE 75ML RED        0000001000+00001753+00000+0001T   00001753+0000001722          1400 EY9130               2CZ
801310006801310079-003005     801310006003000448241A/TUBE 75ML BLUE       0000001000+00001753+00000+0001T   00001753+0000001722          1400 EY9130               2CZ
801310007801310077-000005-D   801310006003000414567PAPER TISSUE 50x70cm   0000001000+00001753+00000+0001T   00001753+0000001722          1400 EY9112               2CZ
801311000801311               801311               170213N3     1400+00000+N30000017364+0000017364+000000000+000002433+0000019797+0000000000+I40000019797+0000000000+Z
801311001801311077-000380     801311006003000247585GIFT-BAG 33X45CM S/COL 0000001000+00002455+00000+0001T   00002455+0000001723          1400 EY9112               2CZ
801311002801311368-000113     801311006001023780874PLUSH BLINGED LOVE 30cm0000001000+00012279+00000+0001T   00012279+0000001723          1400 EY9745               2CZ
801311003801311567-011509     801311000814625012832BK COLOURING 96P LITTLE0000001000+00002630+00000+0001T   00002630+0000001723          1400 EY9757               2CZ
801312000801312               801312               170213N3     1400+00000+N30000004383+0000004383+000000000+000000614+0000004990+0000000007+I20000000000+0000004990+Z
801312001801312089-000192-A   801312006001023901774KEY-CHAIN ACRYLIC      0000001000+00000876+00000+0001T   00000876+0000001724          1400 EY9205               2CZ
801312002801312018-000136     801312006001023659026MUG OCC LOVE W/PLUSH   0000001000+00003507+00000+0001T   00003507+0000001724          1400 EY9515               2CZ
801313000801313               801313               170213N3     1400+00000+N30000001753+0000001753+000000000+000000246+0000001990+0000000009+I20000000000+0000001990+Z
801313001801313028-000796-A   801313006001023897152SKEWERS BAMBOO 100P 4mm0000001000+00001753+00000+0001T   00001753+0000001725          1400 EY9305               2CZ
801314000801314               801314               170213N3     1400+00000+N30000002192+0000002192+000000000+000000307+0000002499+0000000000+I40000002499+0000000000+Z
801314001801314077-000309-A   801314006003000671007GIFT-BAG HOLOGRAM JMB  0000001000+00002192+00000+0001T   00002192+0000001727          1400 EY9112               2CZ
801315000801315               801315               170213N3     1400+00000+N30000002190+0000002190+000000000+000000308+0000002498+0000000000+I40000002498+0000000000+Z
801315001801315080-000133     801315006003000535613CARD&ENV MINI ASTD DSGN0000001000+00000437+00000+0001T   00000437+0000001743          1400 EY9112               2CZ
801315002801315077-000351     801315006003000139033GIFT-BAG 18X23CM E/D P 0000001000+00001753+00000+0001T   00001753+0000001743          1400 EY9112               2CZ
801316000801316               801316               170213N3     1400+00000+N30000004385+0000004385+000000000+000000614+0000004999+0000000000+I40000004999+0000000000+Z
801316001801316029-000009     801316006001023809575BUCKET GALV  2L        0000001000+00004385+00000+0001T   00004385+0000001744          1400 EY9510               2CZ
801317000801317               801317               170213N3     1400+00000+N30000006839+0000006839+000000000+000000958+0000007797+0000000000+I40000007797+0000000000+Z
801317001801317366-001101     801317006003000006991DRESS UP BOYS ASSTD    0000001000+00006139+00000+0001T   00006139+0000001746          1400 EY9131               2CZ
801317002801317564-000012     801317006001023130075BUBBLE BOTTLE MAGIC    0000001000+00000700+00000+0001T   00000700+0000001746          1400 EY9131               2CZ
801318000801318               801318               170213N3     1400+00000+N30000006172+0000006172+000000000+000000865+0000007037+0000000000+I40000007037+0000000000+Z
801318001801318112-116038     801318006009681820246TCS CARRIER BAG MIDI   0000001000+00000035+00000+0001T   00000035+0000001748          1400 EY9090               2CZ
801318002801318106-007105     801318006001023857644JUG 1,8L FRIDGE-DOOR   0000001000+00003507+00000+0001T   00003507+0000001748          1400 EY9210               2CZ
801318003801318108-003024     801318006003000667284TUMBLER W/STRAW 450ML  0000001000+00002630+00000+0001T   00002630+0000001748          1400 EY9210               2CZ
801319000801319               801319               170213N3     1400+00000+N30000002278+0000002278+000000000+000000320+0000002590+0000000008+I20000000000+0000002590+Z
801319001801319200-000107     801319006003000638499PICNIC CUPS PAPER 250ml0000001000+00001753+00000+0001T   00001753+0000001748          1400 EY9214               2CZ
801319002801319002-021040     801319006001023812216PARTY-PICKS 100PCE     0000001000+00000525+00000+0001T   00000525+0000001748          1400 EY9300               2CZ
801320000801320               801320               170213N3     1400+00000+N30000021535+0000021535+000000000+000003016+0000024550+0000000001+I20000000000+0000024550+Z
801320001801320112-116069     801320006009681820277TCS CARRIER BAG JUMBO  0000001000+00000048+00000+0001T   00000048+0000001751          1400 EY9090               2CZ
801320002801320082-000122-A   801320006003000403561READING GLS STRENGTH:1 0000001000+00005262+00000+0001T   00005262+0000001751          1400 EY9160               2CZ
801320003801320075-000412     801320006001023855299SHOPPER-BASKET PL      0000001000+00005700+00000+0001T   00005700+0000001751          1400 EY9160               2CZ
801320004801320466-000802     801320003523930009754BOXING-SET GLOVES+BAG  0000001000+00010525+00000+0001T   00010525+0000001751          1400 EY9785               2CZ
801321000801321               801321               170213N3     1400+00000+N30000005699+0000005699+000000000+000000799+0000006490+0000000008+I20000000000+0000006490+Z
801321001801321104-000031     801321006003000614950BASKET PL 27x18x12cm   0000001000+00002630+00000+0001T   00002630+0000001752          1400 EY9210               2CZ
801321002801321105-001028     801321006003000675470LUNCH BOX W/CLIPS      0000001000+00003069+00000+0001T   00003069+0000001752          1400 EY9210               2CZ
801322000801322               801322               170213N3     1400+00000+N30000007365+0000007365+000000000+000001032+0000008397+0000000000+I40000008397+0000000000+Z
801322001801322018-050000     801322006003000412679MUG OCC LOVE TWIN BEAR 0000001000+00006139+00000+0001T   00006139+0000001755          1400 EY9515               2BZ
801322002801322077-000311     801322006001023608666GIFT-BAG 11X14CM GLOSS 0000002000+00000613+00000+0001T   00000613+0000001755          1400 EY9112               2BZ
801323000801323               801323               170213N3     1400+00000+N30000007892+0000007892+000000000+000001106+0000008998+0000000000+I40000008998+0000000000+Z
801323001801323366-000125     801323006003000006786DRESSUP WINGS/WAND/BAND0000001000+00005262+00000+0001T   00005262+0000001758          1400 EY9131               2CZ
801323002801323262-000651     801323006001023754561DIE CAST SET 5PC RACER 0000001000+00002630+00000+0001T   00002630+0000001758          1400 EY9710               2CZ
801324000801324               801324               170213N3     1400+00000+N30000001753+0000001753+000000000+000000246+0000001999+0000000000+I40000001999+0000000000+Z
801324001801324077-000309     801324006001023608604GIFT-BAG 25X32CM GLOSS 0000001000+00001753+00000+0001T   00001753+0000001800          1400 EY9112               2CZ
801325000801325               801325               170213N3     1400+00000+N30000002661+0000002661+000000000+000000375+0000003030+0000000006+I20000000000+0000003030+Z
801325001801325077-000314     801325006003000181148GIFT-BAG 11X14CM MATT  0000002000+00000876+00000+0001T   00000876+0000001802          1400 EY9112               2CZ
801325002801325112-116038     801325006009681820246TCS CARRIER BAG MIDI   0000001000+00000035+00000+0001T   00000035+0000001802          1400 EY9090               2CZ
801325003801325080-000133     801325006003000535613CARD&ENV MINI ASTD DSGN0000002000+00000437+00000+0001T   00000437+0000001802          1400 EY9112               2CZ
801326000801326               801326               170213N3     1400+00000+N30000000437+0000000437+000000000+000000062+0000000490+0000000009+I20000000000+0000000490+Z
801326001801326080-000133-A   801326006003000647019MINI VALENTINES CARD   0000001000+00000437+00000+0001T   00000437+0000001805          1400 EY9112               2CZ
801327000801327               801327               170213N3     1400+00000+N30000004996+0000004996+000000000+000000701+0000005697+0000000000+I40000005697+0000000000+Z
801327001801327903-000087     801327006001704000161SWT SPECKLED-EGGS 50G  0000001000+00001139+00000+0001T   00001139+0000001806          1400 EY9150               2CZ
801327002801327077-000239     801327006003000160419GIFT-RIBBON ROLL PEARL 0000001000+00001753+00000+0001T   00001753+0000001806          1400 EY9112               2CZ
801327003801327903-000095     801327006001704011495SWT SPECKLED-EGGS 100G 0000001000+00002104+00000+0001T   00002104+0000001806          1400 EY9150               2CZ
801328000801328               801328               170213N3     1400+00000+N30000002630+0000002630+000000000+000000369+0000002990+0000000009+I20000000000+0000002990+Z
801328001801328266-003012     801328006001023786128BOYS P/SET ARCHERY 4pc 0000001000+00002630+00000+0001T   00002630+0000001807          1400 EY9710               2CZ
801329000801329               801329               170213N3     1400+00000+N30000005255+0000005255+000000000+000000740+0000005995+0000000000+I40000005995+0000000000+Z
801329001801329079-009702-D   801329008427973059354PAPER SIRIO A2 RED COL 0000005000+00001051+00000+0001T   00001051+0000001808          1400 EY9130               2CZ
801330000801330               801330               170213N3     1400+00000+N30000007888+0000007888+000000000+000001106+0000008994+0000000000+I40000008994+0000000000+Z
801330001801330018-000129     801330006001023403353MUG OCC. LOVE V-SHAPE  0000001000+00002630+00000+0001T   00002630+0000001810          1400 EY9515               2CZ
801330002801330077-000310     801330006001023608635GIFT-BAG 18X23CM GLOSS 0000001000+00001314+00000+0001T   00001314+0000001810          1400 EY9112               2CZ
801330003801330018-000129     801330006001023403353MUG OCC. LOVE V-SHAPE  0000001000+00002630+00000+0001T   00002630+0000001810          1400 EY9515               2CZ
801330004801330077-000310     801330006001023608635GIFT-BAG 18X23CM GLOSS 0000001000+00001314+00000+0001T   00001314+0000001810          1400 EY9112               2CZ
801331000801331               801331               170213N3     1400+00000+N30000004557+0000004557+000000000+000000639+0000005190+0000000006+I20000000000+0000005190+Z
801331001801331133-083230     801331006001023714305T/CLOTH 132x183cm OBLNG0000001000+00003507+00000+0001T   00003507+0000001831          1400 EY9212               2CZ
801331002801331903-000155     801331006009803374435SWT LOLLY I LUV U HEART0000002000+00000525+00000+0001T   00000525+0000001831          1400 EY9150               2CZ
B80127300                                          170213N3107-004510     15553854SLAVE 2     EY93IC0000002000+0000001000+0000000000000+
M17021391                              CASH        N3SLAVE 2                       Z-REPORT No.   598TOTAL (Sales - Refunds)           9555.01       CASH TO BE BANKED                 3982.90       DEBIT CARDS                          0.00       CREDIT CARDS                      5572.11       Z-READING                         9555.01       AIRTIME DEBIT CARD SALES             0.00       AIRTIME CARD SALES                   0.00       OVERS/UNDERS                         0.00       AIRTIME CASH SALES                   0.00       GIFT CARDS                           0.00       GIFT CARD CASH SALES                 0.00       T O T A L  CASH PAYOUTS              0.00                                                                                                                                                                                                                                                                                                                                                      Z
M17021392                              CASH        N3ABSENT                                                                                                                                                                                          ANNUAL LEAVE                                                                                                                                                                                    DAY OFF                                                                                                                                                                                         COMMENTS                                                                                                                                                                                                                                                                                                                                                                                       Z
Y17021300                                          N300000000843670+000124
ZN317021321113 SLAVE 2      SALES DATA                     NEXT INVOICE NO.  801332 0598
X N3 Slave 2 First invoice 801208 170213 Last invoice 801331 170213 Next invoice 801332 Total number of records 000000457 clbackup completed 21:11:36
