107606000107606               107606               170213N4     1400+00000+N40000002936+0000002936+000000000+000000412+0000003340+0000000008+I20000000000+0000003340+Z
107606001107606079-009700-D   107606006003000545711PAPER SIRIO A4 RED COL.0000001000+00000306+00000+0001T   00000306+0000000923          1400 PD4130               1AZ
107606002107606079-000344     107606006001023904010FELT-TIP PENS 12PCE    0000001000+00002630+00000+0001T   00002630+0000000923          1400 PD4130               1AZ
107607000107607               107607               170213N4     1400+00000+N40000001839+0000001839+000000000+000000258+0000002090+0000000007+I20000000000+0000002090+Z
107607001107607083-000055     107607006003000003853LIGHTER ELCTRNC REFILBL0000003000+00000613+00000+0001T   00000613+0000000942          1400 PD4315               1AZ
107608000107608               107608               170213N4     1400+00000+N40000008506+0000008506+000000000+000001192+0000009690+0000000008+I20000000000+0000009690+Z
107608001107608150-000773     107608006001023681065TACKLE-BOX 18-SECTION  0000001000+00005262+00000+0001T   00005262+0000000957          1400 PD4810               1AZ
107608002107608150-000770     107608006005387000128UTILITY BOX MEGA       0000001000+00003244+00000+0001T   00003244+0000000957          1400 PD4810               1AZ
107609000107609               107609               170213N4     1400+00000+N40000007695+0000007695+000000000+000001082+0000008777+0000000000+I40000008777+0000000000+Z
107609001107609018-000127     107609006001023380289MUG OCC STRAIGHT LOVE  0000001000+00001578+00000+0001T   00001753+0006471202          1400 PD4515               1AZ
107609002107609903-000137     107609006002099004130SWEET GS JELLY BEAN 60G0000002000+00000788+00000+0001T   00000788+0000001202          1400 PD4150               1AZ
107609003107609903-000120     107609006002099001665SWEET GS ZILLIONS 50g  0000002000+00000700+00000+0001T   00000700+0000001202          1400 PD4150               1AZ
107609004107609903-000137     107609006002099004130SWEET GS JELLY BEAN 60G0000001000+00000788+00000+0001T   00000788+0000001202          1400 PD4150               1AZ
107609005107609903-000200     107609006009826020234SWT CHOC RP CHOCO 23G  0000001000+00000788+00000+0001T   00000788+0000001202          1400 PD4150               1AZ
107609006107609018-000177     107609006001023797513MUG MINI LOVE ASSTD    0000001000+00000700+00000+0001T   00000700+0000001202          1400 PD4515               1AZ
107609007107609903-000183     107609006003000451043SWT LB HEART LOLLY     0000001000+00000393+00000+0001T   00000393+0000001202          1400 PD4150               1AZ
107609008107609080-000133-A   107609006003000647019MINI VALENTINES CARD   0000001000+00000437+00000+0001T   00000437+0000001202          1400 PD4112               1AZ
107609009107609112-116038     107609006009681820246TCS CARRIER BAG MIDI   0000001000+00000035+00000+0001T   00000035+0000001202          1400 PD4090               1AZ
107610000107610               107610               170213N4     1400+00000+N40000004559+0000004559+000000000+000000639+0000005190+0000000008+I20000000000+0000005190+Z
107610001107610140-001007     107610006001023617163FLY-STICK STAND 260x36 0000001000+00003069+00000+0001T   00003069+0000001206          1400 PD4830               1AZ
107610002107610565-000990     107610006001023673510NOVELTY STICKY SLAPPER 0000001000+00001490+00000+0001T   00001490+0000001206          1400 PD4745               1AZ
107611000107611               107611               170213N4     1400+00000+N40000001311+0000001311+000000000+000000186+0000001490+0000000007+I20000000000+0000001490+Z
107611001107611080-000133-A   107611006003000647019MINI VALENTINES CARD   0000003000+00000437+00000+0001T   00000437+0000001207          1400 PD4112               1AZ
107612000107612               107612               170213N4     1400+00000+N40000009594+0000009594+000000000+000001344+0000010938+0000000000+I40000010938+0000000000+Z
107612001107612001-091415     107612006003000329113W/GLS OCC. LOVE 2PC 2800000001000+00008771+00000+0001T   00009648+0006471215          1400 PD4515               1AZ
107612002107612903-000200     107612006009826020234SWT CHOC RP CHOCO 23G  0000001000+00000788+00000+0001T   00000788+0000001215          1400 PD4150               1AZ
107612003107612112-116038     107612006009681820246TCS CARRIER BAG MIDI   0000001000+00000035+00000+0001T   00000035+0000001215          1400 PD4090               1AZ
107613000107613               107613               170213N4     1400+00000+N40000006432+0000006432+000000000+000000902+0000007330+0000000004+I20000000000+0000007330+Z
107613001107613903-000844     107613005010478432567SWT CANDY DL LUV HEARTS0000001000+00001314+00000+0001T   00001314+0000001216          1400 PD4150               1AZ
107613002107613080-000133-A   107613006003000647019MINI VALENTINES CARD   0000001000+00000437+00000+0001T   00000437+0000001216          1400 PD4112               1AZ
107613003107613046-000014     107613006001023725387BATTERIES SIZE:AAA 4PCE0000001000+00001139+00000+0001T   00001139+0000001216          1400 PD4312               1AZ
107613004107613004-071212     107613006003000438129LAPTOP STAND ADJUSTABLE0000001000+00003507+00000+0001T   00003507+0000001216          1400 PD4310               1AZ
107613005107613112-116038     107613006009681820246TCS CARRIER BAG MIDI   0000001000+00000035+00000+0001T   00000035+0000001216          1400 PD4090               1AZ
107614000107614               107614               170213N4     1400+00000+N40000000700+0000000700+000000000+000000098+0000000790+0000000008+I20000000000+0000000790+Z
107614001107614903-000159     107614006003000417629SWT LB SMALL DUMMIE    0000002000+00000350+00000+0001T   00000350+0000001216          1400 PD4150               1AZ
107615000107615               107615               170213N4     1400+00000+N40000006569+0000006569+000000000+000000921+0000007490+0000000000+I40000007490+0000000000+Z
107615001107615903-000844     107615005010478432567SWT CANDY DL LUV HEARTS0000001000+00001314+00000+0001T   00001314+0000001220          1400 PD4150               1AZ
107615002107615903-000194     107615006009826020616SWT CHOC RP LOLLY 25G  0000003000+00001314+00000+0001T   00001314+0000001220          1400 PD4150               1AZ
107615003107615903-000200     107615006009826020234SWT CHOC RP CHOCO 23G  0000001000+00000788+00000+0001T   00000788+0000001220          1400 PD4150               1AZ
107615004107615903-000077     107615006939873501687SWT GS MAGIC ROCK FRUIT0000001000+00000525+00000+0001T   00000525+0000001220          1400 PD4150               1AZ
107616000107616               107616               170213N4     1400+00000+N40000031569+0000031569+000000000+000004424+0000035993+0000000000+I40000035993+0000000000+Z
107616001107616079-001003     107616006003000588640ART+CRAFT PAINT CANVAS 0000002000+00010525+00000+0001T   00010525+0000001223          1400 PD4130               1AZ
107616002107616079-003014     107616006003000633951PAINT ACRYLIC 75ml SILV0000001000+00002630+00000+0001T   00002630+0000001223          1400 PD4130               1AZ
107616003107616079-003015     107616006003000634071PAINT ACRYLIC 75ml GOLD0000001000+00002630+00000+0001T   00002630+0000001223          1400 PD4130               1AZ
107616004107616079-003001     107616006003000448951A/TUBE 75ML BLACK      0000001000+00001753+00000+0001T   00001753+0000001223          1400 PD4130               1AZ
107616005107616079-003000     107616006003000448838A/TUBE 75ML WHITE      0000001000+00001753+00000+0001T   00001753+0000001223          1400 PD4130               1AZ
107616006107616079-003009     107616006003000448722A/TUBE 75ML NATURAL    0000001000+00001753+00000+0001T   00001753+0000001223          1400 PD4130               1AZ
107617000107617               107617               170213N4     1400+00000+N40000002192+0000002192+000000000+000000307+0000002490+0000000009+I20000000000+0000002490+Z
107617001107617566-000359     107617006003000582709STICKER BOOK LOVE SPARK0000001000+00002192+00000+0001T   00002192+0000001234          1400 PD4130               1AZ
107618000107618               107618               170213N4     1400+00000+N40000001139+0000001139+000000000+000000160+0000001299+0000000000+I40000001299+0000000000+Z
107618001107618039-000322     107618006001023524157B/CANDLES W/HOLDERS 24 0000001000+00001139+00000+0001T   00001139+0000001236          1400 PD4510               1AZ
107619000107619               107619               170213N4     1400+00000+N40000006396+0000006396+000000000+000000898+0000007294+0000000000+I40000007294+0000000000+Z
107619001107619566-000359     107619006003000582709STICKER BOOK LOVE SPARK0000001000+00002192+00000+0001T   00002192+0000001239          1400 PD4130               1AZ
107619002107619903-000220     107619006001704007368SWT JELLY BEANS 60G    0000001000+00000876+00000+0001T   00000876+0000001239          1400 PD4150               1AZ
107619003107619903-000087     107619006001704000161SWT SPECKLED-EGGS 50G  0000001000+00001139+00000+0001T   00001139+0000001239          1400 PD4150               1AZ
107619004107619903-000481     107619006001704007481SWT MOO MILK-SHAKES 60G0000001000+00000876+00000+0001T   00000876+0000001239          1400 PD4150               1AZ
107619005107619903-000482     107619006001704001397SWT SOFT-MINTS 60G     0000001000+00000876+00000+0001T   00000876+0000001239          1400 PD4150               1AZ
107619006107619080-000133-A   107619006003000647019MINI VALENTINES CARD   0000001000+00000437+00000+0001T   00000437+0000001239          1400 PD4112               1AZ
107620000107620               107620               170213N4     1400+00000+N40000006577+0000006577+000000000+000000921+0000007490+0000000008+I20000000000+0000007490+Z
107620001107620006-000190     107620006003000685530BALLOONS LOVE 81x91cm  0000001000+00004385+00000+0001T   00004385+0000001242          1400 PD4131               1AZ
107620002107620080-000127     107620006003000424351VALENTINES DAY 36x24CM 0000001000+00002192+00000+0001T   00002192+0000001242          1400 PD4112               1AZ
107621000107621               107621               170213N4     1400+00000+N40000008378+0000008378+000000000+000001174+0000009552+0000000000+I40000009552+0000000000+Z
107621001107621080-000127     107621006003000424351VALENTINES DAY 36x24CM 0000001000+00002192+00000+0001T   00002192+0000001245          1400 PD4112               1AZ
107621002107621001-000175     107621006001023788108B/MUG GLS LOVE 380ML   0000001000+00004385+00000+0001T   00004385+0000001245          1400 PD4515               1AZ
107621003107621903-000619     107621006003000672455SWT LOLLY STR/BRRY 140G0000001000+00001753+00000+0001T   00001753+0000001245          1400 PD4150               1AZ
107621004107621112-116069     107621006009681820277TCS CARRIER BAG JUMBO  0000001000+00000048+00000+0001T   00000048+0000001245          1400 PD4090               1AZ
107622000107622               107622               170213N4     1400+00000+N40000006796+0000006796+000000000+000000954+0000007750+0000000000+I40000007750+0000000000+Z
107622001107622112-116069     107622006009681820277TCS CARRIER BAG JUMBO  0000001000+00000048+00000+0001T   00000048+0000001247          1400 PD4090               1AZ
107622002107622903-000155     107622006009803374435SWT LOLLY I LUV U HEART0000002000+00000525+00000+0001T   00000525+0000001247          1400 PD4150               1AZ
107622003107622903-000619     107622006003000672455SWT LOLLY STR/BRRY 140G0000001000+00001753+00000+0001T   00001753+0000001247          1400 PD4150               1AZ
107622004107622080-000127     107622006003000424351VALENTINES DAY 36x24CM 0000001000+00002192+00000+0001T   00002192+0000001247          1400 PD4112               1AZ
107622005107622903-000082     107622006001704014892SWT MINI WINE GUMS 100G0000001000+00001753+00000+0001T   00001753+0000001247          1400 PD4150               1AZ
107623000107623               107623               170213N4     1400+00000+N40000001753+0000001753+000000000+000000246+0000001990+0000000009+I20000000000+0000001990+Z
107623001107623006-000800     107623006001023902801HAT CABARET 14x18cm    0000001000+00001753+00000+0001T   00001753+0000001248          1400 PD4131               1AZ
107624000107624               107624               170213N4     1400+00000+N40000008768+0000008768+000000000+000001229+0000009997+0000000000+I40000009997+0000000000+Z
107624001107624264-000922     107624000090159250012MAISTO CAR PULL-BACK   0000001000+00006139+00000+0001T   00007016+0008191250          1400 PD4710               1AZ
107624002107624077-000472     107624006003000330133G-BAG DESGNR LRG 25X32 0000001000+00001753+00000+0001T   00001753+0000001250          1400 PD4112               1AZ
107624003107624077-000011-D   107624006001023808554TISSUE-WRAP WHITE 10PCE0000001000+00000876+00000+0001T   00000876+0000001250          1400 PD4112               1AZ
107625000107625               107625               170213N4     1400+00000+N40000001753+0000001753+000000000+000000246+0000001999+0000000000+I40000001999+0000000000+Z
107625001107625080-000112     107625006003000252749CARD&ENVLP BDAY-MUSICAL0000001000+00001753+00000+0001T   00001753+0000001253          1400 PD4112               1AZ
107626000107626               107626               170213N4     1400+00000+N40000003857+0000003857+000000000+000000541+0000004398+0000000000+I40000004398+0000000000+Z
107626001107626206-000630     107626006003000631919SPECTACLE CLEANING BRUS0000001000+00001227+00000+0001T   00001227+0000001315          1400 PD4321               1AZ
107626002107626206-000620     107626006003000631797BACK SCRATCHER EXTEND  0000001000+00002630+00000+0001T   00002630+0000001315          1400 PD4321               1AZ
107627000107627               107627               170213N4     1400+00000+N40000000874+0000000874+000000000+000000124+0000000998+0000000000+I40000000998+0000000000+Z
107627001107627080-000133-A   107627006003000647019MINI VALENTINES CARD   0000002000+00000437+00000+0001T   00000437+0000001324          1400 PD4112               1AZ
107628000107628               107628               170213N4     1400+00000+N40000005260+0000005260+000000000+000000737+0000005990+0000000007+I20000000000+0000005990+Z
107628001107628071-005214     107628006003000152544CELLOTAPE SUPER REFILL 0000001000+00001490+00000+0001T   00001490+0000001328          1400 PD4130               1AZ
107628002107628071-001005     107628006001023558169PENCIL-SHARPENER DOUBLE0000001000+00001578+00000+0001T   00001578+0000001328          1400 PD4130               1AZ
107628003107628019-071597     107628006008766071597PEBBLES 250g CLEAR  BAG0000001000+00002192+00000+0001T   00002192+0000001328          1400 PD4510               1AZ
107629000107629               107629               170213N4     1400+00000+N40000012306+0000012306+000000000+000001726+0000014032+0000000000+I40000014032+0000000000+Z
107629001107629306-000540     107629006003000165780T/BRUSH+GUM PROTECTION 0000001000+00001490+00000+0001T   00001490+0000001334          1400 PD4200               1AZ
107629002107629306-000965     107629006003000559237FIRSTAID PLASTER 30PC  0000001000+00002630+00000+0001T   00002630+0000001334          1400 PD4200               1AZ
107629003107629563-000318-K   107629006003000404841SERVIETTES 33cm L/BLUE 0000001000+00002192+00000+0001T   00002192+0000001334          1400 PD4214               1AZ
107629004107629563-000318-G   107629006003000404360SERVIETTES 33cm PINK   0000001000+00002192+00000+0001T   00002192+0000001334          1400 PD4214               1AZ
107629005107629563-000318-L   107629006003000407088SERVIETTES 33cm RED    0000001000+00002192+00000+0001T   00002192+0000001334          1400 PD4214               1AZ
107629006107629112-116038     107629006009681820246TCS CARRIER BAG MIDI   0000001000+00000035+00000+0001T   00000035+0000001334          1400 PD4090               1AZ
107629007107629903-000155     107629006009803374435SWT LOLLY I LUV U HEART0000003000+00000525+00000+0001T   00000525+0000001334          1400 PD4150               1AZ
107630000107630               107630               170213N4     1400+00000+N40000008624+0000008624+000000000+000001210+0000009834+0000000000+I40000009834+0000000000+Z
107630001107630903-000120     107630006002099001665SWEET GS ZILLIONS 50g  0000001000+00000700+00000+0001T   00000700+0000001337          1400 PD4150               1AZ
107630002107630071-003012     107630006001023802996PEN CLICK 10PK BLUE    0000003000+00001753+00000+0001T   00001753+0000001337          1400 PD4130               1AZ
107630003107630105-007410     107630006003000629671CONTAINER MINI 300ml   0000001000+00002630+00000+0001T   00003507+0008171337          1400 PD4210               1AZ
107630004107630112-116038     107630006009681820246TCS CARRIER BAG MIDI   0000001000+00000035+00000+0001T   00000035+0000001337          1400 PD4090               1AZ
107631000107631               107631               170213N4     1400+00000+N40000002192+0000002192+000000000+000000307+0000002490+0000000009+I20000000000+0000002490+Z
107631001107631080-000127     107631006003000424351VALENTINES DAY 36x24CM 0000001000+00002192+00000+0001T   00002192+0000001340          1400 PD4112               1AZ
107632000107632               107632               170213N4     1400+00000+N40000027492+0000027492+000000000+000003852+0000031340+0000000004+I20000000000+0000031340+Z
107632001107632563-000317-J   107632006001023776419SERVIETTE 2PLY 33cm    0000001000+00001753+00000+0001T   00001753+0000001349          1400 PD4214               1AZ
107632002107632563-000317-K   107632006003000697885SERVIETTE 2PLY 33cm    0000001000+00001753+00000+0001T   00001753+0000001349          1400 PD4214               1AZ
107632003107632301-085008     107632006003000673933ORN OCC.LOVE TINSEL HRT0000002000+00003069+00000+0001T   00003069+0000001349          1400 PD4505               1AZ
107632004107632206-000100     107632006003000628063TONGS ICE COLD FINGERS 0000001000+00002192+00000+0001T   00002192+0000001349          1400 PD4321               1AZ
107632005107632206-000630     107632006003000631919SPECTACLE CLEANING BRUS0000002000+00001227+00000+0001T   00001227+0000001349          1400 PD4321               1AZ
107632006107632112-116069     107632006009681820277TCS CARRIER BAG JUMBO  0000001000+00000048+00000+0001T   00000048+0000001349          1400 PD4090               1AZ
107632007107632006-000190     107632006003000685530BALLOONS LOVE 81x91cm  0000002000+00004385+00000+0001T   00004385+0000001349          1400 PD4131               1AZ
107632008107632080-000127     107632006003000424351VALENTINES DAY 36x24CM 0000002000+00002192+00000+0001T   00002192+0000001349          1400 PD4112               1AZ
107633000107633               107633               170213N4     1400+00000+N40000034156+0000034156+000000000+000004787+0000038943+0000000000+I40000038943+0000000000+Z
107633001107633007-000653     107633006001023784469NOTE-BOOK SET+PEN+BAG  0000001000+00004385+00000+0001T   00004385+0000001352          1400 PD4130               1AZ
107633002107633001-091415     107633006003000329113W/GLS OCC. LOVE 2PC 2800000001000+00008771+00000+0001T   00009648+0006471352          1400 PD4515               1AZ
107633003107633089-000030     107633006003000575671K/CHAIN LOVE MTL ASSTD 0000001000+00001753+00000+0001T   00001753+0000001352          1400 PD4205               1AZ
107633004107633162-010779     107633006001492107790#TAG LDS ALICEBAND     0000001000+00002630+00000+0001T   00002630+0000001352          1400 PD4160               1AZ
107633005107633039-000026     107633006001023551610C/TAPERED 25CM M/RED   0000002000+00001051+00000+0001T   00001051+0000001352          1400 PD4510               1AZ
107633006107633112-116069     107633006009681820277TCS CARRIER BAG JUMBO  0000001000+00000048+00000+0001T   00000048+0000001352          1400 PD4090               1AZ
107633007107633466-000106     107633006003000128112BALL PL 20CM BASKETBALL0000001000+00003507+00000+0001T   00003507+0000001352          1400 PD4785               1AZ
107633008107633071-001015     107633006001023910387MARKERS PERMANENT 3PK  0000001000+00001753+00000+0001T   00001753+0000001352          1400 PD4130               1AZ
107633009107633019-071594     107633006003000505579PEBBLES GLS 250g RED   0000001000+00002630+00000+0001T   00002630+0000001352          1400 PD4510               1AZ
107633010107633105-001027     107633006003000364916LUNCH BOX W/CLIPS 2-DIV0000001000+00002192+00000+0001T   00002192+0000001352          1400 PD4210               1AZ
107633011107633031-000848     107633006001023851901P/FRAME COLLAGE 2ASSTD 0000001000+00004385+00000+0001T   00004385+0000001352          1400 PD4510               1AZ
107634000107634               107634               170213N4     1400+00000+N40000007892+0000007892+000000000+000001106+0000008990+0000000008+I20000000000+0000008990+Z
107634001107634077-000115     107634006001023834225WRAP METALLIC 700mmx1m 0000001000+00001753+00000+0001T   00001753+0000001358          1400 PD4112               1AZ
107634002107634018-050000     107634006003000412679MUG OCC LOVE TWIN BEAR 0000001000+00006139+00000+0001T   00006139+0000001358          1400 PD4515               1AZ
107635000107635               107635               170213N4     1400+00000+N40000007452+0000007452+000000000+000001045+0000008497+0000000000+I40000008497+0000000000+Z
107635001107635082-007580     107635006003000698523SUNGLASS MENS DESIGNER 0000001000+00005262+00000+0001T   00005262+0000001412          1400 PD4160               1AZ
107635002107635024-091100     107635006001023914224BAKING-CUPS PAPER 100PC0000001000+00001753+00000+0001T   00001753+0000001412          1400 PD4300               1AZ
107635003107635080-000133-A   107635006003000647019MINI VALENTINES CARD   0000001000+00000437+00000+0001T   00000437+0000001412          1400 PD4112               1AZ
107636000107636               107636               170213N4     1400+00000+N40000011398+0000011398+000000000+000001596+0000012990+0000000004+I20000000000+0000012990+Z
107636001107636566-000068     107636006003000418046POP UP LOVE 2 ASSTD    0000002000+00002192+00000+0001T   00002192+0000001415          1400 PD4130               1AZ
107636002107636018-005009     107636006001023725608MUG W/PLUSH-BEAR LOVE  0000002000+00003507+00000+0001T   00003507+0000001415          1400 PD4515               1AZ
107637000107637               107637               170213N4     1400+00000+N40000001050+0000001050+000000000+000000148+0000001190+0000000008+I20000000000+0000001190+Z
107637001107637903-000155     107637006009803374435SWT LOLLY I LUV U HEART0000002000+00000525+00000+0001T   00000525+0000001416          1400 PD4150               1AZ
107638000107638               107638               170213N4     1400+00000+N40000001753+0000001753+000000000+000000246+0000001999+0000000000+I40000001999+0000000000+Z
107638001107638006-000124     107638006003000625888BALLOONS 10PC MIX COL  0000001000+00001753+00000+0001T   00001753+0000001418          1400 PD4131               1AZ
107639000107639               107639               170213N4     1400+00000+N40000010523+0000010523+000000000+000001475+0000011990+0000000008+I20000000000+0000011990+Z
107639001107639566-000863     107639006001023788351STICKERS LASER 20x25cm 0000001000+00002630+00000+0001T   00002630+0000001419          1400 PD4130               1AZ
107639002107639301-085007     107639006003000673698ORN OCC. LOVE S/PLAQUE 0000001000+00007893+00000+0001T   00007893+0000001419          1400 PD4505               1AZ
107640000107640               107640               170213N4     1400+00000+N40000007626+0000007626+000000000+000001070+0000008690+0000000006+I20000000000+0000008690+Z
107640001107640903-000499     107640006001704012492SWT CHOC MALLOWS 50g   0000001000+00001227+00000+0001T   00001227+0000001421          1400 PD4150               1AZ
107640002107640033-001363     107640006001023802057HAIR-CLIPS 50mm 48PCE  0000001000+00001139+00000+0001T   00001139+0000001421          1400 PD4200               1AZ
107640003107640033-000008     107640006003000226818PILL REMINDER 28-COMPAR0000002000+00002630+00000+0001T   00002630+0000001421          1400 PD4200               1AZ
107641000107641               107641               170213N4     1400+00000+N40000002664+0000002664+000000000+000000374+0000003030+0000000008+I20000000000+0000003030+Z
107641001107641077-000011-D   107641006001023808554TISSUE-WRAP WHITE 10PCE0000001000+00000876+00000+0001T   00000876+0000001431          1400 PD4112               1AZ
107641002107641206-000120     107641006003000628308PEELER CARROT SHARPENER0000001000+00001753+00000+0001T   00001753+0000001431          1400 PD4321               1AZ
107641003107641112-116038     107641006009681820246TCS CARRIER BAG MIDI   0000001000+00000035+00000+0001T   00000035+0000001431          1400 PD4090               1AZ
107642000107642               107642               170213N4     1400+00000+N40000007800+0000007800+000000000+000001093+0000008890+0000000003+I20000000000+0000008890+Z
107642001107642018-000177     107642006001023797513MUG MINI LOVE ASSTD    0000001000+00000700+00000+0001T   00000700+0000001432          1400 PD4515               1AZ
107642002107642018-000136     107642006001023659026MUG OCC LOVE W/PLUSH   0000001000+00003507+00000+0001T   00003507+0000001432          1400 PD4515               1AZ
107642003107642077-000472     107642006003000330133G-BAG DESGNR LRG 25X32 0000001000+00001753+00000+0001T   00001753+0000001432          1400 PD4112               1AZ
107642004107642304-001011     107642006001023806727FLWR ROSE RED W/BEAR   0000001000+00000613+00000+0001T   00000788+0006471432          1400 PD4510               1AZ
107642005107642206-000630     107642006003000631919SPECTACLE CLEANING BRUS0000001000+00001227+00000+0001T   00001227+0000001432          1400 PD4321               1AZ
107643000107643               107643               170213N4     1400+00000+N40000001753+0000001753+000000000+000000246+0000001990+0000000009+I20000000000+0000001990+Z
107643001107643080-000111     107643006003000252695CARD&ENVELPE - MUSICAL 0000001000+00001753+00000+0001T   00001753+0000001440          1400 PD4112               1AZ
107644000107644               107644               170213N4     1400+00000+N40000015044+0000015044+000000000+000002107+0000017151+0000000000+I40000017151+0000000000+Z
107644001107644006-000190     107644006003000685530BALLOONS LOVE 81x91cm  0000001000+00004385+00000+0001T   00004385+0000001447          1400 PD4131               1AZ
107644002107644261-009920     107644006001023583451GUN PISTOL SQUIRTER    0000001000+00001227+00000+0001T   00001227+0000001447          1400 PD4710               1AZ
107644003107644031-000871-C   107644006003000463169P/FRAME COLLAGE 3-HOLE 0000001000+00008771+00000+0001T   00008771+0000001447          1400 PD4510               1AZ
107644004107644112-116069     107644006009681820277TCS CARRIER BAG JUMBO  0000001000+00000048+00000+0001T   00000048+0000001447          1400 PD4090               1AZ
107644005107644304-001011     107644006001023806727FLWR ROSE RED W/BEAR   0000001000+00000613+00000+0001T   00000788+0006471447          1400 PD4510               1AZ
107645000107645               107645               170213N4     1400+00000+N40000002240+0000002240+000000000+000000314+0000002554+0000000000+I40000002554+0000000000+Z
107645001107645080-000127     107645006003000424351VALENTINES DAY 36x24CM 0000001000+00002192+00000+0001T   00002192+0000001451          1400 PD4112               1AZ
107645002107645112-116069     107645006009681820277TCS CARRIER BAG JUMBO  0000001000+00000048+00000+0001T   00000048+0000001451          1400 PD4090               1AZ
107646000107646               107646               170213N4     1400+00000+N40000001227+0000001227+000000000+000000172+0000001390+0000000009+I20000000000+0000001390+Z
107646001107646903-000499     107646006001704012492SWT CHOC MALLOWS 50g   0000001000+00001227+00000+0001T   00001227+0000001453          1400 PD4150               1AZ
107647000107647               107647               170213N4     1400+00000+N40000005262+0000005262+000000000+000000737+0000005999+0000000000+I40000005999+0000000000+Z
107647001107647567-010161     107647009780000008516BOOK TOP ASSTD MILLS   0000001000+00005262+00000+0001T   00005262+0000001457          1400 PD4757               1AZ
107648000107648               107648               170213N4     1400+00000+N40000008771+0000008771+000000000+000001228+0000009999+0000000000+I40000009999+0000000000+Z
107648001107648001-091415     107648006003000329113W/GLS OCC. LOVE 2PC 2800000001000+00008771+00000+0001T   00009648+0006471504          1400 PD4515               1AZ
107649000107649               107649               170213N4     1400+00000+N40000012763+0000012763+000000000+000001788+0000014551+0000000000+I40000014551+0000000000+Z
107649001107649001-091415     107649006003000329113W/GLS OCC. LOVE 2PC 2800000001000+00008771+00000+0001T   00009648+0006471506          1400 PD4515               1AZ
107649002107649031-005853     107649006003000442416P/FRAME WDN TWIN HEARTS0000001000+00003507+00000+0001T   00003507+0000001506          1400 PD4510               1AZ
107649003107649083-000049     107649004891035200024CIG-LIGHTER DISPOSABLE 0000001000+00000437+00000+0001T   00000437+0000001506          1400 PD4315               1AZ
107649004107649112-116069     107649006009681820277TCS CARRIER BAG JUMBO  0000001000+00000048+00000+0001T   00000048+0000001506          1400 PD4090               1AZ
107650000107650               107650               170213N4     1400+00000+N40000003681+0000003681+000000000+000000516+0000004190+0000000007+I20000000000+0000004190+Z
107650001107650038-001805     107650006003000466405DOILIES PAPER 60PC 3ASS0000001000+00003069+00000+0001T   00003069+0000001507          1400 PD4300               1AZ
107650002107650079-009700-M   107650006003000634101PAPER SIRIO A4 PINK COL0000001000+00000306+00000+0001T   00000306+0000001507          1400 PD4130               1AZ
107650003107650079-009700-D   107650006003000545711PAPER SIRIO A4 RED COL.0000001000+00000306+00000+0001T   00000306+0000001507          1400 PD4130               1AZ
107651000107651               107651               170213N4     1400+00000+N40000002100+0000002100+000000000+000000294+0000002390+0000000004+I20000000000+0000002390+Z
107651001107651018-000177     107651006001023797513MUG MINI LOVE ASSTD    0000003000+00000700+00000+0001T   00000700+0000001510          1400 PD4515               1AZ
107652000107652               107652               170213N4     1400+00000+N40000004031+0000004031+000000000+000000566+0000004590+0000000007+I20000000000+0000004590+Z
107652001107652006-000120     107652006001023346889BALLOONS 10PC MIX COL  0000001000+00001753+00000+0001T   00001753+0000001512          1400 PD4131               1AZ
107652002107652903-000200     107652006009826020234SWT CHOC RP CHOCO 23G  0000001000+00000788+00000+0001T   00000788+0000001512          1400 PD4150               1AZ
107652003107652564-000036     107652006001023708694BUBBLE W/PUZZLE        0000001000+00001490+00000+0001T   00001490+0000001512          1400 PD4131               1AZ
107653000107653               107653               170213N4     1400+00000+N40000001753+0000001753+000000000+000000246+0000001999+0000000000+I40000001999+0000000000+Z
107653001107653262-000617     107653006001023754981CAR MDC VINTAGE        0000001000+00001753+00000+0001T   00001753+0000001516          1400 PD4710               1AZ
107654000107654               107654               170213N4     1400+00000+N40000010522+0000010522+000000000+000001475+0000011990+0000000007+I20000000000+0000011990+Z
107654001107654080-000136     107654006003000589036CARD & ENV GIANT MALE  0000001000+00002630+00000+0001T   00002630+0000001517          1400 PD4112               1AZ
107654002107654007-000890-17  107654006003000645671CALENDAR 2017 ASSTD    0000001000+00006139+00000+0001T   00006139+0000001517          1400 PD4130               1AZ
107654003107654077-000308     107654006001023595812GIFT-BAG 33X45CM E/DAY 0000001000+00001753+00000+0001T   00001753+0000001517          1400 PD4112               1AZ
107655000107655               107655               170213N4     1400+00000+N40000002192+0000002192+000000000+000000307+0000002499+0000000000+I40000002499+0000000000+Z
107655001107655080-000127     107655006003000424351VALENTINES DAY 36x24CM 0000001000+00002192+00000+0001T   00002192+0000001518          1400 PD4112               1AZ
107656000107656               107656               170213N4     1400+00000+N40000003507+0000003507+000000000+000000491+0000003990+0000000008+I20000000000+0000003990+Z
107656001107656174-000314     107656006003000053575TRAVEL SEWING KIT      0000001000+00003507+00000+0001T   00003507+0000001519          1400 PD4205               1AZ
107657000107657               107657               170213N4     1400+00000+N40000009381+0000009381+000000000+000001314+0000010695+0000000000+I40000010695+0000000000+Z
107657001107657566-000506     107657006001023671455TATTOO BODY STICKER    0000001000+00001578+00000+0001T   00001578+0000001538          1400 FV1130               1AZ
107657002107657077-000151     107657006008766114676GIFT-WRAP C/PHANE ASSTD0000001000+00000876+00000+0001T   00000876+0000001538          1400 FV1112               1AZ
107657003107657077-000245     107657006001023759214GIFT-RIBBON METALLICx2 0000001000+00001227+00000+0001T   00001227+0000001538          1400 FV1112               1AZ
107657004107657075-000412     107657006001023855299SHOPPER-BASKET PL      0000001000+00005700+00000+0001T   00005700+0000001538          1400 FV1160               1AZ
107658000107658               107658               170213N4     1400+00000+N40000005262+0000005262+000000000+000000737+0000005990+0000000009+I20000000000+0000005990+Z
107658001107658492-055684     107658000078257556847SWIM-GOGGLE RACE-PRO   0000001000+00005262+00000+0001T   00005262+0000001626          1400 PD4787               1AZ
107659000107659               107659               170213N4     1400+00000+N40000022852+0000022852+000000000+000003201+0000026053+0000000000+I40000026053+0000000000+Z
107659001107659368-000113     107659006001023780874PLUSH BLINGED LOVE 30cm0000001000+00012279+00000+0001T   00012279+0000001628          1400 PD4745               1AZ
107659002107659030-004080     107659006003000657780PLAQUE WOODEN SIGN     0000001000+00010525+00000+0001T   00010525+0000001628          1400 PD4505               1AZ
107659003107659112-116069     107659006009681820277TCS CARRIER BAG JUMBO  0000001000+00000048+00000+0001T   00000048+0000001628          1400 PD4090               1AZ
107660000107660               107660               170213N4     1400+00000+N40000000786+0000000786+000000000+000000111+0000000890+0000000007+I20000000000+0000000890+Z
107660001107660903-000216     107660006925925900966SWT MALLOW TWIST ERKO  0000003000+00000262+00000+0001T   00000262+0000001629          1400 PD4150               1AZ
107661000107661               107661               170213N4     1400+00000+N40000003504+0000003504+000000000+000000492+0000003990+0000000006+I20000000000+0000003990+Z
107661001107661903-000006     107661006923431571571SWEET GS SOUR BELT 50g 0000003000+00000876+00000+0001T   00000876+0000001630          1400 PD4150               1AZ
107661002107661903-000295     107661006001704002899SWT MS FRUITY RASCALS  0000001000+00000876+00000+0001T   00000876+0000001630          1400 PD4150               1AZ
107662000107662               107662               170213N4     1400+00000+N40000000437+0000000437+000000000+000000062+0000000490+0000000009+I20000000000+0000000490+Z
107662001107662080-000133-A   107662006003000647019MINI VALENTINES CARD   0000001000+00000437+00000+0001T   00000437+0000001631          1400 PD4112               1AZ
107663000107663               107663               170213N4     1400+00000+N40000005172+0000005172+000000000+000000725+0000005897+0000000000+I40000005897+0000000000+Z
107663001107663903-000095     107663006001704011495SWT SPECKLED-EGGS 100G 0000001000+00002104+00000+0001T   00002104+0000001634          1400 PD4150               1AZ
107663002107663080-000127     107663006003000424351VALENTINES DAY 36x24CM 0000001000+00002192+00000+0001T   00002192+0000001634          1400 PD4112               1AZ
107663003107663903-000481     107663006001704007481SWT MOO MILK-SHAKES 60G0000001000+00000876+00000+0001T   00000876+0000001634          1400 PD4150               1AZ
107664000107664               107664               170213N4     1400+00000+N40000001050+0000001050+000000000+000000148+0000001190+0000000008+I20000000000+0000001190+Z
107664001107664903-000151     107664006009803374411SWT SML RND R/BOW LOLLY0000001000+00000525+00000+0001T   00000525+0000001635          1400 PD4150               1AZ
107664002107664903-000155     107664006009803374435SWT LOLLY I LUV U HEART0000001000+00000525+00000+0001T   00000525+0000001635          1400 PD4150               1AZ
107665000107665               107665               170213N4     1400+00000+N40000018637+0000018637+000000000+000002612+0000021249+0000000000+I40000021249+0000000000+Z
107665001107665079-000286     107665006001023797032FINGER-PAINT 4PCE      0000001000+00003507+00000+0001T   00003507+0000001637          1400 PD4130               1AZ
107665002107665007-000566     107665006003000640898NOVELTY PHONE NOTE-PAD 0000001000+00001490+00000+0001T   00001490+0000001637          1400 PD4130               1AZ
107665003107665079-000335     107665006003000670550THERAPY P/CRAYONS 30   0000001000+00007016+00000+0001T   00007016+0000001637          1400 PD4130               1AZ
107665004107665567-011423     107665006003000641345BK COLOURING THERAPY A50000001000+00006139+00000+0001T   00006139+0000001637          1400 PD4757               1AZ
107665005107665112-116069     107665006009681820277TCS CARRIER BAG JUMBO  0000001000+00000048+00000+0001T   00000048+0000001637          1400 PD4090               1AZ
107665006107665080-000133     107665006003000535613CARD&ENV MINI ASTD DSGN0000001000+00000437+00000+0001T   00000437+0000001637          1400 PD4112               1AZ
107666000107666               107666               170213N4     1400+00000+N40000001400+0000001400+000000000+000000196+0000001596+0000000000+I40000001596+0000000000+Z
107666001107666018-000177     107666006001023797513MUG MINI LOVE ASSTD    0000002000+00000700+00000+0001T   00000700+0000001639          1400 PD4515               1AZ
107667000107667               107667               170213N4     1400+00000+N40000008535+0000008535+000000000+000001197+0000009732+0000000000+I40000009732+0000000000+Z
107667001107667027-078343     107667006008766078343SCRUB-BRUSH IRON-SHAPE 0000001000+00001139+00000+0001T   00001578+0008191649          1400 PD4212               1AZ
107667002107667362-000299     107667006003000654758HAIR CLIPS METAL WORDS 0000002000+00001753+00000+0001T   00001753+0000001649          1400 PD4160               1AZ
107667003107667018-000177     107667006001023797513MUG MINI LOVE ASSTD    0000001000+00000700+00000+0001T   00000700+0000001649          1400 PD4515               1AZ
107667004107667174-008024     107667006009654960368TRAVEL BOTTLES 2-PACK  0000001000+00001928+00000+0001T   00001928+0000001649          1400 PD4205               1AZ
107667005107667206-000630     107667006003000631919SPECTACLE CLEANING BRUS0000001000+00001227+00000+0001T   00001227+0000001649          1400 PD4321               1AZ
107667006107667112-116038     107667006009681820246TCS CARRIER BAG MIDI   0000001000+00000035+00000+0001T   00000035+0000001649          1400 PD4090               1AZ
107668000107668               107668               170213N4     1400+00000+N40000021267+0000021267+000000000+000002981+0000024248+0000000000+I40000024248+0000000000+Z
107668001107668304-001204     107668006001023737984FLOWER OCC. TEDDY/ROSES0000002000+00001402+00000+0001T   00001490+0006471652          1400 PD4510               1AZ
107668002107668077-000309     107668006001023608604GIFT-BAG 25X32CM GLOSS 0000001000+00001753+00000+0001T   00001753+0000001652          1400 PD4112               1AZ
107668003107668030-000040     107668006003000396375PLAQUE WDN HANGING HRTS0000002000+00003069+00000+0001T   00003069+0000001652          1400 PD4505               1AZ
107668004107668112-116069     107668006009681820277TCS CARRIER BAG JUMBO  0000001000+00000048+00000+0001T   00000048+0000001652          1400 PD4090               1AZ
107668005107668077-000151     107668006008766114676GIFT-WRAP C/PHANE ASSTD0000001000+00000876+00000+0001T   00000876+0000001652          1400 PD4112               1AZ
107668006107668030-004015     107668006003000467624PLAQUE WDN SIGN 30X20CM0000001000+00009648+00000+0001T   00009648+0000001652          1400 PD4505               1AZ
107669000107669               107669               170213N4     1400+00000+N40000001753+0000001753+000000000+000000246+0000001990+0000000009+I20000000000+0000001990+Z
107669001107669080-000117     107669006003000236350CARD & ENVELOPE THANK U0000001000+00001753+00000+0001T   00001753+0000001700          1400 PD4112               1AZ
107670000107670               107670               170213N4     1400+00000+N40000003541+0000003541+000000000+000000497+0000004030+0000000008+I20000000000+0000004030+Z
107670001107670048-000859     107670006003000423422TORCH 9 LED PL 3XAAA   0000001000+00001753+00000+0001T   00001753+0000001703          1400 PD4305               1AZ
107670002107670051-002402     107670006001023518347TRIGGER-SPRAYER  500ml 0000001000+00001753+00000+0001T   00001753+0000001703          1400 PD4820               1AZ
107670003107670112-116038     107670006009681820246TCS CARRIER BAG MIDI   0000001000+00000035+00000+0001T   00000035+0000001703          1400 PD4090               1AZ
107671000107671               107671               170213N4     1400+00000+N40000010641+0000010641+000000000+000001493+0000012134+0000000000+I40000012134+0000000000+Z
107671001107671018-019000     107671006003000557288MUG OCC. LOVE JUMBO    0000001000+00005262+00000+0001T   00005262+0000001705          1400 PD4515               1AZ
107671002107671903-000519     107671006001704012805SWT MS LIQ-O-GHETTI    0000001000+00001227+00000+0001T   00001227+0000001705          1400 PD4150               1AZ
107671003107671903-000095     107671006001704011495SWT SPECKLED-EGGS 100G 0000001000+00002104+00000+0001T   00002104+0000001705          1400 PD4150               1AZ
107671004107671903-000200     107671006009826020234SWT CHOC RP CHOCO 23G  0000002000+00000788+00000+0001T   00000788+0000001705          1400 PD4150               1AZ
107671005107671112-116038     107671006009681820246TCS CARRIER BAG MIDI   0000001000+00000035+00000+0001T   00000035+0000001705          1400 PD4090               1AZ
107671006107671080-000133-A   107671006003000647019MINI VALENTINES CARD   0000001000+00000437+00000+0001T   00000437+0000001705          1400 PD4112               1AZ
107672000107672               107672               170213N4     1400+00000+N40000003065+0000003065+000000000+000000430+0000003495+0000000000+I40000003495+0000000000+Z
107672001107672903-000194     107672006009826020616SWT CHOC RP LOLLY 25G  0000002000+00001314+00000+0001T   00001314+0000001706          1400 PD4150               1AZ
107672002107672903-000094     107672006923431501622SWT GS CANDY NECKLACE  0000001000+00000437+00000+0001T   00000437+0000001706          1400 PD4150               1AZ
107673000107673               107673               170213N4     1400+00000+N40000007016+0000007016+000000000+000000983+0000007999+0000000000+I40000007999+0000000000+Z
107673001107673366-000105     107673006001023866103DRESSUP WINGS AND SKIRT0000001000+00007016+00000+0001T   00007016+0000001709          1400 PD4131               1AZ
107674000107674               107674               170213N4     1400+00000+N40000004155+0000004155+000000000+000000583+0000004738+0000000000+I40000004738+0000000000+Z
107674001107674112-116038     107674006009681820246TCS CARRIER BAG MIDI   0000001000+00000035+00000+0001T   00000035+0000001723          1400 PD4090               1AZ
107674002107674564-000011     107674006001023865892BUBBLE REFILL 350ml    0000001000+00002630+00000+0001T   00002630+0000001723          1400 PD4131               1AZ
107674003107674004-078992     107674004905524102529EARPHONES MINI         0000001000+00001490+00000+0001T   00001490+0000001723          1400 PD4310               1AZ
107675000107675               107675               170213N4     1400+00000+N40000000437+0000000437+000000000+000000062+0000000490+0000000009+I20000000000+0000000490+Z
107675001107675080-000133-A   107675006003000647019MINI VALENTINES CARD   0000001000+00000437+00000+0001T   00000437+0000001727          1400 PD4112               1AZ
107676000107676               107676               170213N4     1400+00000+N40000012936+0000012936+000000000+000001814+0000014750+0000000000+I40000014750+0000000000+Z
107676001107676304-001204     107676006001023737984FLOWER OCC. TEDDY/ROSES0000002000+00001402+00000+0001T   00001490+0006471733          1400 PD4510               1AZ
107676002107676368-000049     107676006003000536955PLUSH BEAR 15cm LOVE   0000001000+00004385+00000+0001T   00004385+0000001733          1400 PD4745               1AZ
107676003107676018-019000     107676006003000557288MUG OCC. LOVE JUMBO    0000001000+00005262+00000+0001T   00005262+0000001733          1400 PD4515               1AZ
107676004107676112-116069     107676006009681820277TCS CARRIER BAG JUMBO  0000001000+00000048+00000+0001T   00000048+0000001733          1400 PD4090               1AZ
107676005107676080-000133-A   107676006003000647019MINI VALENTINES CARD   0000001000+00000437+00000+0001T   00000437+0000001733          1400 PD4112               1AZ
107677000107677               107677               170213N4     1400+00000+N40000030304+0000030304+000000000+000004246+0000034550+0000000000+I40000034550+0000000000+Z
107677001107677112-116069     107677006009681820277TCS CARRIER BAG JUMBO  0000001000+00000048+00000+0001T   00000048+0000001739          1400 PD4090               1AZ
107677002107677466-000515     107677006001023477408BALLS TENNIS BAG-OF-3  0000001000+00002630+00000+0001T   00002630+0000001739          1400 PD4785               1AZ
107677003107677072-020366     107677006003000452927PET PLACE MAT ASSTD COL0000001000+00002630+00000+0001T   00002630+0000001739          1400 PD4870               1AZ
107677004107677072-020311     107677006003000494132PET DOG TOY VINYL BALL 0000001000+00003069+00000+0001T   00003069+0000001739          1400 PD4870               1AZ
107677005107677140-092001     107677006001023819154MOSQ-NET 900x230x60cm  0000001000+00014034+00000+0001T   00014034+0000001739          1400 PD4830               1AZ
107677006107677007-010504     107677006002923014960BLACKBOARD EASEL       0000001000+00007893+00000+0001T   00007893+0000001739          1400 PD4130               1AZ
107678000107678               107678               170213N4     1400+00000+N40000014383+0000014383+000000000+000002015+0000016398+0000000000+I40000016398+0000000000+Z
107678001107678368-000111     107678006001023780812PLUSH BEAR/DOG 29CM    0000001000+00012279+00000+0001T   00012279+0000001740          1400 PD4745               1AZ
107678002107678903-000095     107678006001704011495SWT SPECKLED-EGGS 100G 0000001000+00002104+00000+0001T   00002104+0000001740          1400 PD4150               1AZ
107679000107679               107679               170213N4     1400+00000+N40000000437+0000000437+000000000+000000062+0000000490+0000000009+I20000000000+0000000490+Z
107679001107679080-000133     107679006003000535613CARD&ENV MINI ASTD DSGN0000001000+00000437+00000+0001T   00000437+0000001741          1400 PD4112               1AZ
107680000107680               107680               170213N4     1400+00000+N40000005786+0000005786+000000000+000000812+0000006590+0000000008+I20000000000+0000006590+Z
107680001107680036-000151     107680006001023810588COATHANGERS    PACK-10 0000002000+00002893+00000+0001T   00002893+0000001742          1400 PD4212               1AZ
107681000107681               107681               170213N4     1400+00000+N40000005262+0000005262+000000000+000000737+0000005990+0000000009+I20000000000+0000005990+Z
107681001107681266-002581     107681006001023905833PLAYSET SWORD,BOW&ARROW0000001000+00005262+00000+0001T   00005262+0000001743          1400 PD4710               1AZ
107682000107682               107682               170213N4     1400+00000+N40000012362+0000012362+000000000+000001732+0000014094+0000000000+I40000014094+0000000000+Z
107682001107682018-000119     107682006003000336074MUG DAILY STRAIGHT     0000001000+00001314+00000+0001T   00001753+0008171745          1400 PD4515               1AZ
107682002107682301-085003     107682006003000420827ORN OCCASION LOVE KEY  0000001000+00005262+00000+0001T   00005262+0000001745          1400 PD4505               1AZ
107682003107682304-001204     107682006001023737984FLOWER OCC. TEDDY/ROSES0000001000+00001402+00000+0001T   00001490+0006471745          1400 PD4510               1AZ
107682004107682080-000127     107682006003000424351VALENTINES DAY 36x24CM 0000001000+00002192+00000+0001T   00002192+0000001745          1400 PD4112               1AZ
107682005107682077-000309-A   107682006003000671007GIFT-BAG HOLOGRAM JMB  0000001000+00002192+00000+0001T   00002192+0000001745          1400 PD4112               1AZ
107683000107683               107683               170213N4     1400+00000+N40000004822+0000004822+000000000+000000676+0000005498+0000000000+I40000005498+0000000000+Z
107683001107683024-091103     107683006003453014307BAKING-CUP MUFFIN 50PCE0000001000+00002192+00000+0001T   00002192+0000001747          1400 PD4300               1AZ
107683002107683464-000110     107683006001023868824PLAYING-CARDS JUMBO    0000001000+00002630+00000+0001T   00002630+0000001747          1400 PD4785               1AZ
A17021300                                          10000577N4SLAVE 1                       PD41IC
M17021301                              IT          N4ATT IT                                          LAST TILL SLIP ON SLAVE 1                       107683                                          THANK YOU N4
M17021391                              CASH        N4SLAVE 1                       Z-REPORT No.   618TOTAL (Sales - Refunds)           6478.08       CASH TO BE BANKED                 2001.40       DEBIT CARDS                          0.00       CREDIT CARDS                      4476.68       Z-READING                         6478.08       AIRTIME DEBIT CARD SALES             0.00       AIRTIME CARD SALES                   0.00       OVERS/UNDERS                         0.00       AIRTIME CASH SALES                   0.00       GIFT CARDS                           0.00       GIFT CARD CASH SALES                 0.00       T O T A L  CASH PAYOUTS              0.00                                                                                                                                                                                                                                                                                                                                                      Z
M17021392                              CASH        N4ABSENT                                                                                                                                                                                          ANNUAL LEAVE                                                                                                                                                                                    DAY OFF                                                                                                                                                                                         COMMENTS                                                                                                                                                                                                                                                                                                                                                                                       Z
Y17021300                                          N400000000568410+000078
ZN417021320083 SLAVE 1      SALES DATA                     NEXT INVOICE NO.  107684 0618
X N4 Slave 1 First invoice 107606 170213 Last invoice 107683 170213 Next invoice 107684 Total number of records 000000307 clbackup completed 20:08:14
