201330000201330               201330               170213N4     1400+00000+N40000009375+0000009375+000000000+000001315+0000010690+0000000000+I20000000000+0000010690+Z
201330001201330018-000129     201330006001023403353MUG OCC. LOVE V-SHAPE  0000001000+00002630+00000+0001T   00002630+0000000919          1400 SM7515               2AZ
201330002201330006-000812     201330006001023902832HAT CONE WITH TINSEL   0000001000+00000876+00000+0001T   00000876+0000000919          1400 SM7131               2AZ
201330003201330306-000020     201330006001023743145POCKET-TISSUES 10PCE   0000002000+00000306+00000+0001T   00000306+0000000919          1400 SM7200               2AZ
201330004201330564-000012     201330006001023130075BUBBLE BOTTLE MAGIC    0000002000+00000700+00000+0001T   00000700+0000000919          1400 SM7131               2AZ
201330005201330079-000010     201330006001023173409P/CRAYONS 12-COL SHORT 0000001000+00001227+00000+0001T   00001227+0000000919          1400 SM7130               2AZ
201330006201330567-011495     201330000076645122032BK ACTIVITY 96P BIBLE  0000001000+00002630+00000+0001T   00002630+0000000919          1400 SM7757               2AZ
201331000201331               201331               170213N4     1400+00000+N40000009208+0000009208+000000000+000001290+0000010498+0000000000+I40000010498+0000000000+Z
201331001201331033-000642     201331006001023681201H/BRUSH PADDLE 24cm    0000001000+00003069+00000+0001T   00003069+0000001002          1400 SM7200               2AZ
201331002201331486-000010     201331006001023544254WALL-CLOCK ROUND 25cm  0000001000+00006139+00000+0001T   00006139+0000001002          1400 SM7510               2AZ
201332000201332               201332               170213N4     1400+00000+N40000001314+0000001314+000000000+000000184+0000001490+0000000008+I20000000000+0000001490+Z
201332001201332107-004105     201332006002923010504BUCKET 9L OPEN         0000001000+00001314+00000+0001T   00001314+0000001010          1400 SM7210               2AZ
201333000201333               201333               170213N4     1400+00000+N40000001753+0000001753+000000000+000000246+0000001990+0000000009+I20000000000+0000001990+Z
201333001201333039-001023     201333006003000466337CANDLE TEA-LITE METALIC0000001000+00001753+00000+0001T   00001753+0000001011          1400 SM7510               2AZ
201334000201334               201334               170213N4     1400+00000+N40000013814+0000013814+000000000+000001937+0000015750+0000000001+I20000000000+0000015750+Z
201334001201334464-003002     201334006003000328550GAME THINK:CHESS KIDS  0000001000+00012279+00000+0001T   00012279+0000001013          1400 SM7785               2AZ
201334002201334903-002891     201334008935001721376MENTOS GUM WINTERGREEN 0000001000+00001051+00000+0001T   00001051+0000001013          1400 SM7150               2AZ
201334003201334903-000670     201334006009803358008SWT SHERBET RED LIPS   0000002000+00000218+00000+0001T   00000218+0000001013          1400 SM7150               2AZ
201334004201334112-116069     201334006009681820277TCS CARRIER BAG JUMBO  0000001000+00000048+00000+0001T   00000048+0000001013          1400 SM7090               2AZ
201335000201335               201335               170213N4     1400+00000+N40000000876+0000000876+000000000+000000123+0000000990+0000000009+I20000000000+0000000990+Z
201335001201335903-000123     201335006925925909280SWEET GS MINI MALLOWS  0000001000+00000876+00000+0001T   00000876+0000001030          1400 SM7150               2AZ
201336000201336               201336               170213N4     1400+00000+N40000035084+0000035084+000000000+000004912+0000039996+0000000000+I40000039996+0000000000+Z
201336001201336497-058330     201336000078257583300BOAT EXPLORER 200      0000002000+00017542+00000+0001T   00017542+0000001101          1400 SM7787               2AZ
201337000201337               201337               170213N4     1400+00000+N40000007751+0000007751+000000000+000001086+0000008837+0000000000+I40000008837+0000000000+Z
201337001201337002-000652     201337006001023553188M/SPOON WDN 3PC H/HOUSE0000001000+00003069+00000+0001T   00003069+0000001134          1400 SM7300               2AZ
201337002201337024-000069     201337006001023849571EGG-WHISK S/S 30cm     0000001000+00003069+00000+0001T   00003069+0000001134          1400 SM7300               2AZ
201337003201337080-000124     201337006003000297733CARD & ENV VALENTINES  0000001000+00001578+00000+0001T   00001578+0000001134          1400 SM7112               2AZ
201337004201337112-116038     201337006009681820246TCS CARRIER BAG MIDI   0000001000+00000035+00000+0001T   00000035+0000001134          1400 SM7090               2AZ
201338000201338               201338               170213N4     1400+00000+N40000000612+0000000612+000000000+000000086+0000000690+0000000008+I20000000000+0000000690+Z
201338001201338079-009700-D   201338006003000545711PAPER SIRIO A4 RED COL.0000002000+00000306+00000+0001T   00000306+0000001135          1400 SM7130               2AZ
201339000201339               201339               170213N4     1400+00000+N40000008987+0000008987+000000000+000001260+0000010247+0000000000+I40000010247+0000000000+Z
201339001201339301-085008     201339006003000673933ORN OCC.LOVE TINSEL HRT0000001000+00003069+00000+0001T   00003069+0000001140          1400 SM7505               2AZ
201339002201339304-001011     201339006001023806727FLWR ROSE RED W/BEAR   0000006000+00000613+00000+0001T   00000788+0006471140          1400 SM7510               2AZ
201339003201339112-116069     201339006009681820277TCS CARRIER BAG JUMBO  0000001000+00000048+00000+0001T   00000048+0000001140          1400 SM7090               2AZ
201339004201339566-000068     201339006003000418046POP UP LOVE 2 ASSTD    0000001000+00002192+00000+0001T   00002192+0000001140          1400 SM7130               2AZ
201340000201340               201340               170213N4     1400+00000+N40000017097+0000017097+000000000+000002398+0000019490+0000000005+I20000000000+0000019490+Z
201340001201340077-000115-B   201340006003000181025GIFT-WRAP PPR 700MMX2M 0000001000+00002630+00000+0001T   00002630+0000001143          1400 SM7112               2AZ
201340002201340565-000083     201340006003000643622NOVELTY GROW SNOW      0000001000+00001753+00000+0001T   00001753+0000001143          1400 SM7745               2AZ
201340003201340039-001023     201340006003000466337CANDLE TEA-LITE METALIC0000001000+00001753+00000+0001T   00001753+0000001143          1400 SM7510               2AZ
201340004201340006-000345     201340006003000677726GLOW STICKS 50x19.5cm  0000001000+00005262+00000+0001T   00005262+0000001143          1400 SM7131               2AZ
201340005201340903-000090     201340006009826020821SWT GS CHOCO COINS 60g 0000001000+00002104+00000+0001T   00002104+0000001143          1400 SM7150               2AZ
201340006201340088-000108     201340006001023765536POTPOURRI-OIL 10ml ASST0000001000+00001753+00000+0001T   00001753+0000001143          1400 SM7212               2AZ
201340007201340079-009700-M   201340006003000634101PAPER SIRIO A4 PINK COL0000001000+00000306+00000+0001T   00000306+0000001143          1400 SM7130               2AZ
201340008201340079-009700-D   201340006003000545711PAPER SIRIO A4 RED COL.0000001000+00000306+00000+0001T   00000306+0000001143          1400 SM7130               2AZ
201340009201340079-009700-F   201340006003000545872PAPER SIRIO A4 TURQ COL0000001000+00000306+00000+0001T   00000306+0000001143          1400 SM7130               2AZ
201340010201340112-116069     201340006009681820277TCS CARRIER BAG JUMBO  0000001000+00000048+00000+0001T   00000048+0000001143          1400 SM7090               2AZ
201340011201340077-000151     201340006008766114676GIFT-WRAP C/PHANE ASSTD0000001000+00000876+00000+0001T   00000876+0000001143          1400 SM7112               2AZ
201341000201341               201341               170213N4     1400+00000+N40000005786+0000005786+000000000+000000812+0000006590+0000000008+I20000000000+0000006590+Z
201341001201341036-000151     201341006001023810588COATHANGERS    PACK-10 0000002000+00002893+00000+0001T   00002893+0000001151          1400 SM7212               2AZ
201342000201342               201342               170213N4     1400+00000+N40000007715+0000007715+000000000+000001081+0000008796+0000000000+I40000008796+0000000000+Z
201342001201342033-001363     201342006001023802057HAIR-CLIPS 50mm 48PCE  0000001000+00001139+00000+0001T   00001139+0000001156          1400 SM7200               2AZ
201342002201342494-059258     201342000078257592586INTEX TUBE 76cm        0000001000+00005262+00000+0001T   00005262+0000001156          1400 SM7787               2AZ
201342003201342080-000127     201342006003000424351VALENTINES DAY 36x24CM 0000001000-00002192+00000+0001T   00002192+0000001156          1400 SM71122IC            2AZ
201342004201342080-000127     201342006003000424351VALENTINES DAY 36x24CM 0000001000+00002192+00000+0001T   00002192+0000001156          1400 SM71122IC            2AZ
201342005201342903-000844     201342005010478432567SWT CANDY DL LUV HEARTS0000001000+00001314+00000+0001T   00001314+0000001156          1400 SM7150               2AZ
201343000201343               201343               170213N4     1400+00000+N40000001578+0000001578+000000000+000000221+0000001790+0000000009+I20000000000+0000001790+Z
201343001201343024-000034     201343006001023495235MEASURING-JUG 1-CUP    0000001000+00001578+00000+0001T   00001578+0000001236          1400 SM7300               2AZ
201344000201344               201344               170213N4     1400+00000+N40000002192+0000002192+000000000+000000307+0000002499+0000000000+I40000002499+0000000000+Z
201344001201344031-000868-A   201344006001023798534P/FRAME PL BLCK 10X15CM0000001000+00002192+00000+0001T   00002192+0000001305          1400 SM7510               2AZ
201345000201345               201345               170213N4     1400+00000+N40000007016+0000007016+000000000+000000983+0000007999+0000000000+I40000007999+0000000000+Z
201345001201345039-000624     201345006003000054923C/SET 4PC PILLARS 5X8CM0000001000+00007016+00000+0001T   00007016+0000001306          1400 SM7510               2AZ
201346000201346               201346               170213N4     1400+00000+N40000001578+0000001578+000000000+000000221+0000001790+0000000009+I20000000000+0000001790+Z
201346001201346080-000124     201346006003000297733CARD & ENV VALENTINES  0000001000+00001578+00000+0001T   00001578+0000001307          1400 SM7112               2AZ
201347000201347               201347               170213N4     1400+00000+N40000003327+0000003327+000000000+000000466+0000003790+0000000003+I20000000000+0000003790+Z
201347001201347304-001011     201347006001023806727FLWR ROSE RED W/BEAR   0000001000+00000613+00000+0001T   00000788+0006471310          1400 SM7510               2AZ
201347002201347903-004950     201347006002580020304SWT APRICOT SURPRISE   0000001000+00001314+00000+0001T   00001314+0000001310          1400 SM7150               2AZ
201347003201347018-000177     201347006001023797513MUG MINI LOVE ASSTD    0000002000+00000700+00000+0001T   00000700+0000001310          1400 SM7515               2AZ
201348000201348               201348               170213N4     1400+00000+N40000000000+0000000000+000000000+000000000+0000000000+0000000000+I20000000000+0000000000+Z
201348001201348001-091415     201348006003000329113W/GLS OCC. LOVE 2PC 2800000001000-00008771+00000+0001T   00009648+0006471314          1400 SM75152IC            2 Z
201348002201348031-000924     201348006001023669964P/FRAME COLLAGE PL     0000001000+00008771+00000+0001T   00008771+0000001314          1400 SM7510               2 Z
201349000201349               201349               170213N4     1400+00000+N40000006698+0000006698+000000000+000000938+0000007636+0000000000+I40000007636+0000000000+Z
201349001201349001-000175     201349006001023788108B/MUG GLS LOVE 380ML   0000001000+00004385+00000+0001T   00004385+0000001328          1400 SM7515               2AZ
201349002201349018-000127     201349006001023380289MUG OCC STRAIGHT LOVE  0000001000+00001578+00000+0001T   00001753+0006471328          1400 SM7515               2AZ
201349003201349112-116038     201349006009681820246TCS CARRIER BAG MIDI   0000001000+00000035+00000+0001T   00000035+0000001328          1400 SM7090               2AZ
201349004201349018-000177     201349006001023797513MUG MINI LOVE ASSTD    0000001000+00000700+00000+0001T   00000700+0000001328          1400 SM7515               2AZ
201350000201350               201350               170213N4     1400+00000+N40000009851+0000009851+000000000+000001381+0000011230+0000000002+I20000000000+0000011230+Z
201350001201350040-000212     201350006003000112418C/HOLDER RND T-LITE 6CM0000008000+00001227+00000+0001T   00001227+0000001349          1400 SM7510               2AZ
201350002201350112-116038     201350006009681820246TCS CARRIER BAG MIDI   0000001000+00000035+00000+0001T   00000035+0000001349          1400 SM7090               2AZ
201351000201351               201351               170213N4     1400+00000+N40000004385+0000004385+000000000+000000614+0000004990+0000000009+I20000000000+0000004990+Z
201351001201351368-000049     201351006003000536955PLUSH BEAR 15cm LOVE   0000001000+00004385+00000+0001T   00004385+0000001355          1400 SM7745               2AZ
201352000201352               201352               170213N4     1400+00000+N40000001578+0000001578+000000000+000000221+0000001799+0000000000+I10000001399+0000000400+Z
201352001201352266-001310     201352006003000616848BOYS PLAYSET MARBLES   0000001000+00001578+00000+0001T   00001578+0000001401          1400 SM7710               2AZ
201353000201353               201353               170213N4     1400+00000+N40000004501+0000004501+000000000+000000632+0000005133+0000000000+I40000005133+0000000000+Z
201353001201353018-000177     201353006001023797513MUG MINI LOVE ASSTD    0000002000+00000700+00000+0001T   00000700+0000001507          1400 FV1515               2AZ
201353002201353080-000133-A   201353006003000647019MINI VALENTINES CARD   0000002000+00000437+00000+0001T   00000437+0000001507          1400 FV1112               2AZ
201353003201353566-000359     201353006003000582709STICKER BOOK LOVE SPARK0000001000+00002192+00000+0001T   00002192+0000001507          1400 FV1130               2AZ
201353004201353112-116038     201353006009681820246TCS CARRIER BAG MIDI   0000001000+00000035+00000+0001T   00000035+0000001507          1400 FV1090               2AZ
201354000201354               201354               170213N4     1400+00000+N40000008806+0000008806+000000000+000001233+0000010039+0000000000+I40000010039+0000000000+Z
201354001201354039-000799     201354006001023692382CANDLES TEALITE 100PCE 0000001000+00008771+00000+0001T   00008771+0000001508          1400 FV1510               2AZ
201354002201354112-116038     201354006009681820246TCS CARRIER BAG MIDI   0000001000+00000035+00000+0001T   00000035+0000001508          1400 FV1090               2AZ
201355000201355               201355               170213N4     1400+00000+N40000002192+0000002192+000000000+000000307+0000002490+0000000009+I20000000000+0000002490+Z
201355001201355080-000127     201355006003000424351VALENTINES DAY 36x24CM 0000001000+00002192+00000+0001T   00002192+0000001526          1400 SM7112               2AZ
201356000201356               201356               170213N4     1400+00000+N40000011083+0000011083+000000000+000001553+0000012636+0000000000+I40000012636+0000000000+Z
201356001201356368-000049     201356006003000536955PLUSH BEAR 15cm LOVE   0000002000+00004385+00000+0001T   00004385+0000001528          1400 SM7745               2AZ
201356002201356903-000087     201356006001704000161SWT SPECKLED-EGGS 50G  0000002000+00001139+00000+0001T   00001139+0000001528          1400 SM7150               2AZ
201356003201356112-116038     201356006009681820246TCS CARRIER BAG MIDI   0000001000+00000035+00000+0001T   00000035+0000001528          1400 SM7090               2AZ
201357000201357               201357               170213N4     1400+00000+N40000000613+0000000613+000000000+000000086+0000000690+0000000009+I20000000000+0000000690+Z
201357001201357565-000044     201357006003000128280BARREL OF SLIME 100g   0000001000+00000613+00000+0001T   00000613+0000001528          1400 SM7745               2AZ
201358000201358               201358               170213N4     1400+00000+N40000000613+0000000613+000000000+000000086+0000000690+0000000009+I20000000000+0000000690+Z
201358001201358565-000044     201358006003000128280BARREL OF SLIME 100g   0000001000+00000613+00000+0001T   00000613+0000001529          1400 SM7745               2AZ
201359000201359               201359               170213N4     1400+00000+N40000019603+0000019603+000000000+000002746+0000022349+0000000000+I40000022349+0000000000+Z
201359001201359031-005853     201359006003000442416P/FRAME WDN TWIN HEARTS0000001000+00003507+00000+0001T   00003507+0000001534          1400 SM7510               2AZ
201359002201359368-000175     201359006003000270316PLUSH BEAR 4 ASSTD 18CM0000002000+00006139+00000+0001T   00006139+0000001534          1400 SM7745               2AZ
201359003201359565-000080     201359006003000643424NOVELTY BENDY          0000001000+00002192+00000+0001T   00002192+0000001534          1400 SM7745               2AZ
201359004201359018-000127     201359006001023380289MUG OCC STRAIGHT LOVE  0000001000+00001578+00000+0001T   00001753+0006471534          1400 SM7515               2AZ
201359005201359112-116069     201359006009681820277TCS CARRIER BAG JUMBO  0000001000+00000048+00000+0001T   00000048+0000001534          1400 SM7090               2AZ
201360000201360               201360               170213N4     1400+00000+N40000005084+0000005084+000000000+000000713+0000005797+0000000000+I40000005797+0000000000+Z
201360001201360006-006019     201360006001023908193PARTY-SPRAY GLITTER    0000001000+00002630+00000+0001T   00002630+0000001536          1400 SM7131               2AZ
201360002201360903-000519     201360006001704012805SWT MS LIQ-O-GHETTI    0000001000+00001227+00000+0001T   00001227+0000001536          1400 SM7150               2AZ
201360003201360077-000245     201360006001023759214GIFT-RIBBON METALLICx2 0000001000+00001227+00000+0001T   00001227+0000001536          1400 SM7112               2AZ
201361000201361               201361               170213N4     1400+00000+N40000012186+0000012186+000000000+000001707+0000013893+0000000000+I40000013893+0000000000+Z
201361001201361077-000323     201361006001023677563G/BAG 25X32CM E/DAY FLO0000001000+00001578+00000+0001T   00001578+0000001537          1400 SM7112               2AZ
201361002201361368-000049     201361006003000536955PLUSH BEAR 15cm LOVE   0000001000+00004385+00000+0001T   00004385+0000001537          1400 SM7745               2AZ
201361003201361301-085001     201361006003000297610ORN WATERBALL LOVE ASST0000001000+00004823+00000+0001T   00004823+0000001537          1400 SM7505               2AZ
201361004201361018-000177     201361006001023797513MUG MINI LOVE ASSTD    0000002000+00000700+00000+0001T   00000700+0000001537          1400 SM7515               2AZ
201362000201362               201362               170213N4     1400+00000+N40000007050+0000007050+000000000+000000988+0000008030+0000000008+I20000000000+0000008030+Z
201362001201362018-050000     201362006003000412679MUG OCC LOVE TWIN BEAR 0000001000+00006139+00000+0001T   00006139+0000001539          1400 SM7515               2AZ
201362002201362077-000151     201362006008766114676GIFT-WRAP C/PHANE ASSTD0000001000+00000876+00000+0001T   00000876+0000001539          1400 SM7112               2AZ
201362003201362112-116038     201362006009681820246TCS CARRIER BAG MIDI   0000001000+00000035+00000+0001T   00000035+0000001539          1400 SM7090               2AZ
201363000201363               201363               170213N4     1400+00000+N40000001490+0000001490+000000000+000000209+0000001690+0000000009+I20000000000+0000001690+Z
201363001201363077-000305     201363006003000395422GIFT-BAG WINE 10X35CM  0000001000+00001490+00000+0001T   00001490+0000001539          1400 SM7112               2AZ
201364000201364               201364               170213N4     1400+00000+N40000007062+0000007062+000000000+000000990+0000008052+0000000000+I40000008052+0000000000+Z
201364001201364077-000301     201364008010410010188BAG LRG 25X32CM B/DAY  0000001000+00001753+00000+0001T   00001753+0000001541          1400 SM7112               2AZ
201364002201364079-013102     201364006003000019601ART+CRAFT DIY PIPE-CLNR0000001000+00002192+00000+0001T   00002192+0000001541          1400 SM7130               2AZ
201364003201364079-013098     201364006003000197040ART+CRAFT SET DIY      0000001000+00003069+00000+0001T   00003069+0000001541          1400 SM7130               2AZ
201364004201364112-116069     201364006009681820277TCS CARRIER BAG JUMBO  0000001000+00000048+00000+0001T   00000048+0000001541          1400 SM7090               2AZ
201365000201365               201365               170213N4     1400+00000+N40000001576+0000001576+000000000+000000222+0000001790+0000000008+I20000000000+0000001790+Z
201365001201365903-000200     201365006009826020234SWT CHOC RP CHOCO 23G  0000002000+00000788+00000+0001T   00000788+0000001542          1400 SM7150               2AZ
201366000201366               201366               170213N4     1400+00000+N40000000437+0000000437+000000000+000000062+0000000490+0000000009+I20000000000+0000000490+Z
201366001201366080-000133-A   201366006003000647019MINI VALENTINES CARD   0000001000+00000437+00000+0001T   00000437+0000001543          1400 SM7112               2AZ
201367000201367               201367               170213N4     1400+00000+N40000008626+0000008626+000000000+000001208+0000009834+0000000000+I40000009834+0000000000+Z
201367001201367018-000127     201367006001023380289MUG OCC STRAIGHT LOVE  0000001000+00001578+00000+0001T   00001753+0006471548          1400 SM7515               2AZ
201367002201367368-000049     201367006003000536955PLUSH BEAR 15cm LOVE   0000001000+00004385+00000+0001T   00004385+0000001548          1400 SM7745               2AZ
201367003201367903-000194     201367006009826020616SWT CHOC RP LOLLY 25G  0000002000+00001314+00000+0001T   00001314+0000001548          1400 SM7150               2AZ
201367004201367112-116038     201367006009681820246TCS CARRIER BAG MIDI   0000001000+00000035+00000+0001T   00000035+0000001548          1400 SM7090               2AZ
201368000201368               201368               170213N4     1400+00000+N40000003068+0000003068+000000000+000000430+0000003498+0000000000+I40000003498+0000000000+Z
201368001201368566-000359     201368006003000582709STICKER BOOK LOVE SPARK0000001000+00002192+00000+0001T   00002192+0000001551          1400 SM7130               2AZ
201368002201368077-000151     201368006008766114676GIFT-WRAP C/PHANE ASSTD0000001000+00000876+00000+0001T   00000876+0000001551          1400 SM7112               2AZ
201369000201369               201369               170213N4     1400+00000+N40000006710+0000006710+000000000+000000941+0000007651+0000000000+I40000007651+0000000000+Z
201369001201369080-000127     201369006003000424351VALENTINES DAY 36x24CM 0000001000+00002192+00000+0001T   00002192+0000001553          1400 SM7112               2AZ
201369002201369016-006516     201369006003000351503S/JAR GLS CHECK 150ML  0000001000+00001490+00000+0001T   00001490+0000001553          1400 SM7300               2AZ
201369003201369077-000245     201369006001023759214GIFT-RIBBON METALLICx2 0000001000+00001227+00000+0001T   00001227+0000001553          1400 SM7112               2AZ
201369004201369112-116069     201369006009681820277TCS CARRIER BAG JUMBO  0000001000+00000048+00000+0001T   00000048+0000001553          1400 SM7090               2AZ
201369005201369007-000050     201369006001023528285DISPLAY-ENVELOPE A4    0000001000+00001753+00000+0001T   00001753+0000001553          1400 SM7130               2AZ
201370000201370               201370               170213N4     1400+00000+N40000008365+0000008365+000000000+000001172+0000009537+0000000000+I40000009537+0000000000+Z
201370001201370206-000150     201370006003000628667SLICER CUCUMBER        0000001000+00002192+00000+0001T   00002192+0000001555          1400 SM7321               2AZ
201370002201370206-000120     201370006003000628308PEELER CARROT SHARPENER0000001000+00001753+00000+0001T   00001753+0000001555          1400 SM7321               2AZ
201370003201370206-000160     201370006003000628780CORN KERNELER          0000001000+00004385+00000+0001T   00004385+0000001555          1400 SM7321               2AZ
201370004201370112-116038     201370006009681820246TCS CARRIER BAG MIDI   0000001000+00000035+00000+0001T   00000035+0000001555          1400 SM7090               2AZ
201371000201371               201371               170213N4     1400+00000+N40000004384+0000004384+000000000+000000614+0000004998+0000000000+I40000004998+0000000000+Z
201371001201371106-003130     201371006001023625755ICE CUBE TRAY 21-CUBE  0000002000+00002192+00000+0001T   00002192+0000001600          1400 SM7210               2AZ
201372000201372               201372               170213N4     1400+00000+N40000006956+0000006956+000000000+000000976+0000007930+0000000002+I20000000000+0000007930+Z
201372001201372566-000359     201372006003000582709STICKER BOOK LOVE SPARK0000001000+00002192+00000+0001T   00002192+0000001602          1400 SM7130               2AZ
201372002201372903-000518     201372006001704012782SWT STRAWS S/BERRY 100g0000003000+00001227+00000+0001T   00001227+0000001602          1400 SM7150               2AZ
201372003201372903-000216     201372006925925900966SWT MALLOW TWIST ERKO  0000004000+00000262+00000+0001T   00000262+0000001602          1400 SM7150               2AZ
201372004201372112-116038     201372006009681820246TCS CARRIER BAG MIDI   0000001000+00000035+00000+0001T   00000035+0000001602          1400 SM7090               2AZ
201373000201373               201373               170213N4     1400+00000+N40000012279+0000012279+000000000+000001720+0000013999+0000000000+I40000013999+0000000000+Z
201373001201373368-000111     201373006001023780812PLUSH BEAR/DOG 29CM    0000001000+00012279+00000+0001T   00012279+0000001604          1400 SM7745               2AZ
201374000201374               201374               170213N4     1400+00000+N40000003681+0000003681+000000000+000000516+0000004197+0000000000+I40000004197+0000000000+Z
201374001201374106-001115     201374006009654960313WATER-BOTTLE PL 750ml  0000001000+00001928+00000+0001T   00001928+0000001605          1400 SM7210               2AZ
201374002201374046-002025-PK2 201374004897006174868BATTERIES CR-2025  2PCE0000001000+00001753+00000+0001T   00001753+0000001605          1400 SM7312               2AZ
201375000201375               201375               170213N4     1400+00000+N40000005296+0000005296+000000000+000000742+0000006030+0000000008+I20000000000+0000006030+Z
201375001201375088-000052     201375006001023760401T/FRESHENER CISTERN BLK0000001000+00000876+00000+0001T   00000876+0000001610          1400 SM7212               2AZ
201375002201375082-000100     201375006003000360246READING GLS STRENGHT:1 0000001000+00004385+00000+0001T   00004385+0000001610          1400 SM7160               2AZ
201375003201375112-116038     201375006009681820246TCS CARRIER BAG MIDI   0000001000+00000035+00000+0001T   00000035+0000001610          1400 SM7090               2AZ
201376000201376               201376               170213N4     1400+00000+N40000003507+0000003507+000000000+000000491+0000003998+0000000000+I40000003998+0000000000+Z
201376001201376019-000225     201376006001023764706VASE GLASS W/ROPE 19CM 0000001000+00003507+00000+0001T   00003507+0000001613          1400 SM7510               2AZ
201377000201377               201377               170213N4     1400+00000+N40000006750+0000006750+000000000+000000946+0000007696+0000000000+I40000007696+0000000000+Z
201377001201377301-085003     201377006003000420827ORN OCCASION LOVE KEY  0000001000+00005262+00000+0001T   00005262+0000001619          1400 FV1505               2AZ
201377002201377018-000177     201377006001023797513MUG MINI LOVE ASSTD    0000001000+00000700+00000+0001T   00000700+0000001619          1400 FV1515               2AZ
201377003201377903-000200     201377006009826020234SWT CHOC RP CHOCO 23G  0000001000+00000788+00000+0001T   00000788+0000001619          1400 FV1150               2AZ
201378000201378               201378               170213N4     1400+00000+N40000005699+0000005699+000000000+000000798+0000006497+0000000000+I40000006497+0000000000+Z
201378001201378030-000031-A   201378006003000457588PLAQUE W/WORDS ASSTD   0000001000+00004385+00000+0001T   00004823+0006471621          1400 FV1505               2AZ
201378002201378903-000844     201378005010478432567SWT CANDY DL LUV HEARTS0000001000+00001314+00000+0001T   00001314+0000001621          1400 FV1150               2AZ
201379000201379               201379               170213N4     1400+00000+N40000004028+0000004028+000000000+000000564+0000004592+0000000000+I40000004592+0000000000+Z
201379001201379903-000194     201379006009826020616SWT CHOC RP LOLLY 25G  0000002000+00001314+00000+0001T   00001314+0000001622          1400 FV1150               2AZ
201379002201379018-000177     201379006001023797513MUG MINI LOVE ASSTD    0000002000+00000700+00000+0001T   00000700+0000001622          1400 FV1515               2AZ
201380000201380               201380               170213N4     1400+00000+N40000016664+0000016664+000000000+000002333+0000018997+0000000000+I40000018997+0000000000+Z
201380001201380031-001002     201380006003000253142P/FRAME COLLAGE 68X35CM0000001000+00013157+00000+0001T   00013157+0000001624          1400 FV1510               2AZ
201380002201380077-000932     201380006003000409808G/WRAP 700mmx5m PATTERN0000001000+00003507+00000+0001T   00003507+0000001624          1400 FV1112               2AZ
201381000201381               201381               170213N4     1400+00000+N40000001753+0000001753+000000000+000000246+0000001990+0000000009+I20000000000+0000001990+Z
201381001201381046-002032-PK2 201381004897006175063BATTERIES CR-2032  2PCE0000001000+00001753+00000+0001T   00001753+0000001624          1400 FV1312               2AZ
201382000201382               201382               170213N4     1400+00000+N40000001663+0000001663+000000000+000000234+0000001897+0000000000+I40000001897+0000000000+Z
201382001201382304-001011     201382006001023806727FLWR ROSE RED W/BEAR   0000002000+00000613+00000+0001T   00000788+0006471626          1400 FV1510               2AZ
201382002201382080-000133-A   201382006003000647019MINI VALENTINES CARD   0000001000+00000437+00000+0001T   00000437+0000001626          1400 FV1112               2AZ
201383000201383               201383               170213N4     1400+00000+N40000003506+0000003506+000000000+000000492+0000003990+0000000008+I20000000000+0000003990+Z
201383001201383024-091100     201383006001023914224BAKING-CUPS PAPER 100PC0000002000+00001753+00000+0001T   00001753+0000001635          1400 FV1300               2AZ
201384000201384               201384               170213N4     1400+00000+N40000001975+0000001975+000000000+000000278+0000002250+0000000003+I20000000000+0000002250+Z
201384001201384079-009702-D   201384008427973059354PAPER SIRIO A2 RED COL 0000001000+00001051+00000+0001T   00001051+0000001653          1400 VM8130               2AZ
201384002201384033-010720     201384006001023678645SAFETY-PINS 50PCE SMALL0000001000+00000876+00000+0001T   00000876+0000001653          1400 VM8200               2AZ
201384003201384112-116069     201384006009681820277TCS CARRIER BAG JUMBO  0000001000+00000048+00000+0001T   00000048+0000001653          1400 VM8090               2AZ
201385000201385               201385               170213N4     1400+00000+N40000001490+0000001490+000000000+000000209+0000001690+0000000009+I20000000000+0000001690+Z
201385001201385039-000108     201385006001023524034TEA-LITE CANDLES 8PCE  0000001000+00001490+00000+0001T   00001490+0000001653          1400 VM8510               2AZ
201386000201386               201386               170213N4     1400+00000+N40000004556+0000004556+000000000+000000640+0000005190+0000000006+I20000000000+0000005190+Z
201386001201386039-000026     201386006001023551610C/TAPERED 25CM M/RED   0000002000+00001051+00000+0001T   00001051+0000001700          1400 VM8510               2AZ
201386002201386040-000213     201386006001023617736CANDLE-HOLDER DAISY    0000002000+00001227+00000+0001T   00001227+0000001700          1400 VM8510               2AZ
201387000201387               201387               170213N4     1400+00000+N40000017978+0000017978+000000000+000002518+0000020496+0000000000+I40000020496+0000000000+Z
201387001201387018-000136     201387006001023659026MUG OCC LOVE W/PLUSH   0000001000+00003507+00000+0001T   00003507+0000001729          1400 FV1515               2AZ
201387002201387368-000111     201387006001023780812PLUSH BEAR/DOG 29CM    0000001000+00012279+00000+0001T   00012279+0000001729          1400 FV1745               2AZ
201387003201387077-000309-A   201387006003000671007GIFT-BAG HOLOGRAM JMB  0000001000+00002192+00000+0001T   00002192+0000001729          1400 FV1112               2AZ
201388000201388               201388               170213N4     1400+00000+N40000007010+0000007010+000000000+000000985+0000007990+0000000005+I20000000000+0000007990+Z
201388001201388304-001204     201388006001023737984FLOWER OCC. TEDDY/ROSES0000005000+00001402+00000+0001T   00001490+0006471730          1400 FV1510               2AZ
201389000201389               201389               170213N4     1400+00000+N40000010043+0000010043+000000000+000001407+0000011450+0000000000+I40000011450+0000000000+Z
201389001201389368-000614     201389006001023705808PLUSH LOVE 30cm        0000001000+00008771+00000+0001T   00008771+0000001734          1400 FV1745               2AZ
201389002201389079-009700-J   201389006003000546190PAPER SIRIO A4 BLUE    0000002000+00000306+00000+0001T   00000306+0000001734          1400 FV1130               2AZ
201389003201389079-009700-D   201389006003000545711PAPER SIRIO A4 RED COL.0000002000+00000306+00000+0001T   00000306+0000001734          1400 FV1130               2AZ
201389004201389112-116069     201389006009681820277TCS CARRIER BAG JUMBO  0000001000+00000048+00000+0001T   00000048+0000001734          1400 FV1090               2AZ
201390000201390               201390               170213N4     1400+00000+N40000005699+0000005699+000000000+000000798+0000006497+0000000000+I40000006497+0000000000+Z
201390001201390018-000170     201390006001023775528MUG OCC. LOVE 2PC MINI 0000001000+00002192+00000+0001T   00002192+0000001736          1400 FV1515               2AZ
201390002201390301-085004     201390006003000420469ORN LOVE PLAQUE 21X10CM0000001000+00003507+00000+0001T   00003946+0006471736          1400 FV1505               2AZ
201391000201391               201391               170213N4     1400+00000+N40000002980+0000002980+000000000+000000418+0000003390+0000000008+I20000000000+0000003390+Z
201391001201391077-000115     201391006001023834225WRAP METALLIC 700mmx1m 0000001000+00001753+00000+0001T   00001753+0000001741          1400 FV1112               2AZ
201391002201391077-000245     201391006001023759214GIFT-RIBBON METALLICx2 0000001000+00001227+00000+0001T   00001227+0000001741          1400 FV1112               2AZ
201392000201392               201392               170213N4     1400+00000+N40000007890+0000007890+000000000+000001107+0000008997+0000000000+I40000008997+0000000000+Z
201392001201392566-000367     201392006003000645558STICKER WINDOW DECOR   0000003000+00002630+00000+0001T   00002630+0000001750          1400 FV1130               2AZ
201393000201393               201393               170213N4     1400+00000+N40000010307+0000010307+000000000+000001444+0000011750+0000000001+I20000000000+0000011750+Z
201393001201393018-000130     201393006001023867537MUG OCC LOVE MINI+HEART0000001000+00003507+00000+0001T   00003507+0000001751          1400 FV1515               2AZ
201393002201393007-000614     201393006001023768667DIARY W/LOCK+PEN LOVE  0000001000+00005262+00000+0001T   00005262+0000001751          1400 FV1130               2AZ
201393003201393077-000304     201393006001023483232GIFT-BAG 25X32CM E/DAY 0000001000+00001490+00000+0001T   00001490+0000001751          1400 FV1112               2AZ
201393004201393112-116069     201393006009681820277TCS CARRIER BAG JUMBO  0000001000+00000048+00000+0001T   00000048+0000001751          1400 FV1090               2AZ
201394000201394               201394               170213N4     1400+00000+N40000006136+0000006136+000000000+000000861+0000006990+0000000007+I20000000000+0000006990+Z
201394001201394220-009101     201394006001023706829ROSE TEASPOONS 4PCE    0000002000+00001753+00000+0001T   00001753+0000001752          1400 FV1300               2AZ
201394002201394220-000032     201394006001023425065BUDGET TEASPOONS 12PCE 0000001000+00002630+00000+0001T   00002630+0000001752          1400 FV1300               2AZ
201395000201395               201395               170213N4     1400+00000+N40000012310+0000012310+000000000+000001725+0000014030+0000000005+I20000000000+0000014030+Z
201395001201395020-000141     201395006001023629524STEAK-KNIVES P.P.CARD-60000001000+00004385+00000+0001T   00004385+0000001753          1400 FV1300               2AZ
201395002201395024-000072     201395006001023849502EGG-WHISK SET-OF-3     0000001000+00003507+00000+0001T   00003507+0000001753          1400 FV1300               2AZ
201395003201395080-000111     201395006003000252695CARD&ENVELPE - MUSICAL 0000001000+00001753+00000+0001T   00001753+0000001753          1400 FV1112               2AZ
201395004201395082-000388     201395006001023774385SPECT-CASE SPRING-CLOSE0000001000+00002630+00000+0001T   00002630+0000001753          1400 FV1160               2AZ
201395005201395112-116038     201395006009681820246TCS CARRIER BAG MIDI   0000001000+00000035+00000+0001T   00000035+0000001753          1400 FV1090               2AZ
201396000201396               201396               170213N4     1400+00000+N40000008769+0000008769+000000000+000001228+0000009997+0000000000+I40000009997+0000000000+Z
201396001201396089-000200     201396006003000485840KEY CHAIN POLY LOVE IS 0000001000+00003507+00000+0001T   00004385+0008121754          1400 FV1205               2AZ
201396002201396079-000336     201396006003000670758SUPER FINE MARKER PENS 0000001000+00005262+00000+0001T   00005262+0000001754          1400 FV1130               2AZ
201397000201397               201397               170213N4     1400+00000+N40000003278+0000003278+000000000+000000460+0000003730+0000000008+I20000000000+0000003730+Z
201397001201397077-000305     201397006003000395422GIFT-BAG WINE 10X35CM  0000001000+00001490+00000+0001T   00001490+0000001755          1400 FV1112               2AZ
201397002201397089-000030     201397006003000575671K/CHAIN LOVE MTL ASSTD 0000001000+00001753+00000+0001T   00001753+0000001755          1400 FV1205               2AZ
201397003201397112-116038     201397006009681820246TCS CARRIER BAG MIDI   0000001000+00000035+00000+0001T   00000035+0000001755          1400 FV1090               2AZ
201398000201398               201398               170213N4     1400+00000+N40000007015+0000007015+000000000+000000983+0000007990+0000000008+I20000000000+0000007990+Z
201398001201398077-000150-D   201398006003000054343GIFT-WRAP CELLPHANE CLR0000001000+00000876+00000+0001T   00000876+0000001756          1400 FV1112               2AZ
201398002201398368-000175     201398006003000270316PLUSH BEAR 4 ASSTD 18CM0000001000+00006139+00000+0001T   00006139+0000001756          1400 FV1745               2AZ
201399000201399               201399               170213N4     1400+00000+N40000011482+0000011482+000000000+000001608+0000013090+0000000000+I40000013090+0000000000+Z
201399001201399018-000177     201399006001023797513MUG MINI LOVE ASSTD    0000002000+00000700+00000+0001T   00000700+0000001802          1400 FV1515               2AZ
201399002201399031-005853     201399006003000442416P/FRAME WDN TWIN HEARTS0000001000+00003507+00000+0001T   00003507+0000001802          1400 FV1510               2AZ
201399003201399903-000194     201399006009826020616SWT CHOC RP LOLLY 25G  0000001000+00001314+00000+0001T   00001314+0000001802          1400 FV1150               2AZ
201399004201399031-000864-A   201399006001023798350P/FRAME MAHOGANY 10X15 0000001000+00003069+00000+0001T   00003069+0000001802          1400 FV1510               2AZ
201399005201399080-000127     201399006003000424351VALENTINES DAY 36x24CM 0000001000+00002192+00000+0001T   00002192+0000001802          1400 FV1112               2AZ
201400000201400               201400               170213N4     1400+00000+N40000001753+0000001753+000000000+000000246+0000001990+0000000009+I20000000000+0000001990+Z
201400001201400012-000001     201400006003000331048MICRO PLATE-COVER 26X6 0000001000+00001753+00000+0001T   00002192+0008191804          1400 FV1300               2AZ
201401000201401               201401               170213N4     1400+00000+N40000003770+0000003770+000000000+000000528+0000004298+0000000000+I40000004298+0000000000+Z
201401001201401028-000799     201401006001023812186SKEWERS BAMBOO 100PCE  0000001000+00001578+00000+0001T   00001578+0000001805          1400 FV1305               2AZ
201401002201401200-000067     201401006003000330683STRAWS DRINKING 100PC  0000001000+00002192+00000+0001T   00002192+0000001805          1400 FV1214               2AZ
A17021300                                          14314728N4SLAVE 2                       FV13IC
A17021301                                          14540997N4SLAVE 2                       FV13IC
A17021302                                          16252003N4SLAVE 2                       FV13IC
A17021303                                          16280476N4SLAVE 2                       FV13IC
A17021304                                          17560356N4SLAVE 2                       FV11IC
M17021301                              IT          N4ATT IT                                          LAST TILL SLIP ON SLAVE 2                       201401                                          THANK YOU N4
M17021391                              CASH        N4SLAVE 2                       Z-REPORT No.   259TOTAL (Sales - Refunds)           5324.92       CASH TO BE BANKED                 1844.70       DEBIT CARDS                          0.00       CREDIT CARDS                      3480.22       Z-READING                         5324.92       AIRTIME DEBIT CARD SALES             0.00       AIRTIME CARD SALES                   0.00       OVERS/UNDERS                         0.00       AIRTIME CASH SALES                   0.00       GIFT CARDS                           0.00       GIFT CARD CASH SALES                 0.00       T O T A L  CASH PAYOUTS              0.00                                                                                                                                                                                                                                                                                                                                                      Z
M17021392                              CASH        N4ABSENT                                                                                                                                                                                          ANNUAL LEAVE                                                                                                                                                                                    DAY OFF                                                                                                                                                                                         COMMENTS                                                                                                                                                                                                                                                                                                                                                                                       Z
Y17021300                                          N400000000478210+000072
ZN417021320083 SLAVE 2      SALES DATA                     NEXT INVOICE NO.  201402 0259
X N4 Slave 2 First invoice 201330 170213 Last invoice 201401 170213 Next invoice 201402 Total number of records 000000260 clbackup completed 20:08:17
