108543000108543               108543               170213N5     1400+00000+N50000004154+0000004154+000000000+000000583+0000004730+0000000007+I20000000000+0000004730+Z
108543001108543200-003026     108543006003000276448REFUSE BAGS 10PCE GREEN0000001000+00001753+00000+0001T   00001753+0000000943          1400 EY9214               1AZ
108543002108543306-000021     108543006001023169433EARBUDS 100PCE IN BAG  0000001000+00000613+00000+0001T   00000613+0000000943          1400 EY9200               1AZ
108543003108543012-000001     108543006003000331048MICRO PLATE-COVER 26X6 0000001000+00001753+00000+0001T   00002192+0008190943          1400 EY9300               1AZ
108543004108543112-116038     108543006009681820246TCS CARRIER BAG MIDI   0000001000+00000035+00000+0001T   00000035+0000000943          1400 EY9090               1AZ
108544000108544               108544               170213N5     1400+00000+N50000004420+0000004420+000000000+000000619+0000005039+0000000000+I40000005039+0000000000+Z
108544001108544206-000160     108544006003000628780CORN KERNELER          0000001000+00004385+00000+0001T   00004385+0000000951          1400 EY9321               1AZ
108544002108544112-116038     108544006009681820246TCS CARRIER BAG MIDI   0000001000+00000035+00000+0001T   00000035+0000000951          1400 EY9090               1AZ
108545000108545               108545               170213N5     1400+00000+N50000003507+0000003507+000000000+000000491+0000003990+0000000008+I20000000000+0000003990+Z
108545001108545463-000128     108545006003000109500SWIM CAP SILICONE ASSTD0000001000+00003507+00000+0001T   00003507+0000000951          1400 EY9785               1AZ
108546000108546               108546               170213N5     1400+00000+N50000001752+0000001752+000000000+000000246+0000001990+0000000008+I20000000000+0000001990+Z
108546001108546366-007917     108546006003000653621DRESS UP MASK ANIMALS  0000002000+00000876+00000+0001T   00000876+0000001011          1400 EY9131               1AZ
108547000108547               108547               170213N5     1400+00000+N50000003506+0000003506+000000000+000000492+0000003998+0000000000+I40000003998+0000000000+Z
108547001108547036-000063     108547006009654960436COATHANGERS VIRGIN 5PCE0000002000+00001753+00000+0001T   00001753+0000001013          1400 EY9212               1AZ
108548000108548               108548               170213N5     1400+00000+N50000004645+0000004645+000000000+000000651+0000005296+0000000000+I40000005296+0000000000+Z
108548001108548566-002000     108548000721129013206STICKERS CRYSTAL ASSTD 0000001000+00000700+00000+0001T   00000700+0000001021          1400 EY9130               1AZ
108548002108548566-000065     108548006003000217915STICKERS GLITTER ASSTD 0000001000+00001753+00000+0001T   00001753+0000001021          1400 EY9130               1AZ
108548003108548566-000950     108548006003000216048STICKERS 3 STYLES 100PC0000001000+00002192+00000+0001T   00002192+0000001021          1400 EY9130               1AZ
108549000108549               108549               170213N5     1400+00000+N50000004734+0000004734+000000000+000000663+0000005390+0000000007+I20000000000+0000005390+Z
108549001108549083-000054     108549006001023729071LIGHTER REFILLABLE LED 0000003000+00001578+00000+0001T   00001578+0000001022          1400 EY9315               1AZ
108550000108550               108550               170213N5     1400+00000+N50000001401+0000001401+000000000+000000197+0000001590+0000000008+I20000000000+0000001590+Z
108550001108550304-001011     108550006001023806727FLWR ROSE RED W/BEAR   0000001000+00000613+00000+0001T   00000788+0006471134          1400 N64510               1AZ
108550002108550903-000200     108550006009826020234SWT CHOC RP CHOCO 23G  0000001000+00000788+00000+0001T   00000788+0000001134          1400 N64150               1AZ
108551000108551               108551               170213N5     1400+00000+N50000001753+0000001753+000000000+000000246+0000001990+0000000009+I20000000000+0000001990+Z
108551001108551077-000309     108551006001023608604GIFT-BAG 25X32CM GLOSS 0000001000+00001753+00000+0001T   00001753+0000001135          1400 N64112               1AZ
108552000108552               108552               170213N5     1400+00000+N50000002366+0000002366+000000000+000000332+0000002690+0000000008+I20000000000+0000002690+Z
108552001108552077-000151     108552006008766114676GIFT-WRAP C/PHANE ASSTD0000001000+00000876+00000+0001T   00000876+0000001147          1400 N64112               1AZ
108552002108552077-000305     108552006003000395422GIFT-BAG WINE 10X35CM  0000001000+00001490+00000+0001T   00001490+0000001147          1400 N64112               1AZ
108553000108553               108553               170213N5     1400+00000+N50000000876+0000000876+000000000+000000123+0000000990+0000000009+I20000000000+0000000990+Z
108553001108553084-070005     108553006001023627902NAIL FILES 6PCE H/GLOW 0000001000+00000876+00000+0001T   00000876+0000001324          1400 N64200               1AZ
108554000108554               108554               170213N5     1400+00000+N50000001402+0000001402+000000000+000000197+0000001590+0000000009+I20000000000+0000001590+Z
108554001108554304-001204     108554006001023737984FLOWER OCC. TEDDY/ROSES0000001000+00001402+00000+0001T   00001490+0006471403          1400 N64510               1AZ
108555000108555               108555               170213N5     1400+00000+N50000007892+0000007892+000000000+000001105+0000008990+0000000007+I20000000000+0000008990+Z
108555001108555301-085004     108555006003000420469ORN LOVE PLAQUE 21X10CM0000001000+00003507+00000+0001T   00003946+0006471404          1400 N64505               1AZ
108555002108555001-000175     108555006001023788108B/MUG GLS LOVE 380ML   0000001000+00004385+00000+0001T   00004385+0000001404          1400 N64515               1AZ
108556000108556               108556               170213N5     1400+00000+N50000000876+0000000876+000000000+000000123+0000000990+0000000009+I20000000000+0000000990+Z
108556001108556089-000192-A   108556006001023901774KEY-CHAIN ACRYLIC      0000001000+00000876+00000+0001T   00000876+0000001409          1400 N64205               1AZ
108557000108557               108557               170213N5     1400+00000+N50000002016+0000002016+000000000+000000283+0000002290+0000000009+I20000000000+0000002290+Z
108557001108557050-000362-Z   108557006001023475275PADLOCK IRON 25mm CARD 0000001000+00002016+00000+0001T   00002016+0000001447          1400 N64855               1AZ
108558000108558               108558               170213N5     1400+00000+N50000002630+0000002630+000000000+000000369+0000002990+0000000009+I20000000000+0000002990+Z
108558001108558079-006495     108558006003000159987GLITTER SHAKERS 6PK    0000001000+00002630+00000+0001T   00002630+0000001500          1400 N64130               1AZ
108559000108559               108559               170213N5     1400+00000+N50000004064+0000004064+000000000+000000572+0000004630+0000000006+I20000000000+0000004630+Z
108559001108559007-000119     108559006002324004126BOOK COVER PL          0000003000+00001051+00000+0001T   00001051+0000001519          1400 N64130               1AZ
108559002108559071-005213     108559006001023690371CELLOTAPE 12mmx33m     0000001000+00000876+00000+0001T   00000876+0000001519          1400 N64130               1AZ
108559003108559112-116038     108559006009681820246TCS CARRIER BAG MIDI   0000001000+00000035+00000+0001T   00000035+0000001519          1400 N64090               1AZ
108560000108560               108560               170213N5     1400+00000+N50000001227+0000001227+000000000+000000172+0000001390+0000000009+I20000000000+0000001390+Z
108560001108560071-081091     108560006001151010287STAED/GENKEM ALL-STICK 0000001000+00001227+00000+0001T   00001227+0000001521          1400 N64130               1AZ
108561000108561               108561               170213N5     1400+00000+N50000013157+0000013157+000000000+000001842+0000014990+0000000009+I20000000000+0000014990+Z
108561001108561586-010653     108561006001492106533WATCH MENS CLASSIC BLK 0000001000+00013157+00000+0001T   00013157+0000001523          1400 N64160               1AZ
108562000108562               108562               170213N5     1400+00000+N50000000876+0000000876+000000000+000000123+0000000990+0000000009+I20000000000+0000000990+Z
108562001108562088-000052     108562006001023760401T/FRESHENER CISTERN BLK0000001000+00000876+00000+0001T   00000876+0000001602          1400 EY9212               1AZ
108563000108563               108563               170213N5     1400+00000+N50000005260+0000005260+000000000+000000738+0000005990+0000000008+I20000000000+0000005990+Z
108563001108563079-013101     108563006001023863706CRAFT SET DIY PIPE-CLNR0000002000+00002630+00000+0001T   00002630+0000001605          1400 EY9130               1AZ
108564000108564               108564               170213N5     1400+00000+N50000005262+0000005262+000000000+000000737+0000005990+0000000009+I20000000000+0000005990+Z
108564001108564140-005093     108564006003000331338INSECT-KILL RAQT-SHAPED0000001000+00005262+00000+0001T   00005262+0000001628          1400 EY9830               1AZ
108565000108565               108565               170213N5     1400+00000+N50000012760+0000012760+000000000+000001789+0000014549+0000000000+I40000014549+0000000000+Z
108565001108565563-000317-J   108565006001023776419SERVIETTE 2PLY 33cm    0000002000+00001753+00000+0001T   00001753+0000001635          1400 EY9214               1AZ
108565002108565007-000551     108565006001023848079NOTE-PAD SHOP-LIST ASST0000001000+00001753+00000+0001T   00001753+0000001635          1400 EY9130               1AZ
108565003108565566-000309     108565006003000523283STICKER CHALK-BOARD    0000001000+00001753+00000+0001T   00001753+0000001635          1400 EY9130               1AZ
108565004108565174-000140     108565006003000367450STORAGE ORGANISER 30X300000001000+00005700+00000+0001T   00005700+0000001635          1400 EY9205               1AZ
108565005108565112-116069     108565006009681820277TCS CARRIER BAG JUMBO  0000001000+00000048+00000+0001T   00000048+0000001635          1400 EY9090               1AZ
108566000108566               108566               170213N5     1400+00000+N50000010555+0000010555+000000000+000001481+0000012036+0000000000+I40000012036+0000000000+Z
108566001108566079-006495     108566006003000159987GLITTER SHAKERS 6PK    0000004000+00002630+00000+0001T   00002630+0000001638          1400 EY9130               1AZ
108566002108566112-116038     108566006009681820246TCS CARRIER BAG MIDI   0000001000+00000035+00000+0001T   00000035+0000001638          1400 EY9090               1AZ
108567000108567               108567               170213N5     1400+00000+N50000001139+0000001139+000000000+000000160+0000001290+0000000009+I20000000000+0000001290+Z
108567001108567903-000087     108567006001704000161SWT SPECKLED-EGGS 50G  0000001000+00001139+00000+0001T   00001139+0000001638          1400 EY9150               1AZ
108568000108568               108568               170213N5     1400+00000+N50000012278+0000012278+000000000+000001720+0000013990+0000000008+I20000000000+0000013990+Z
108568001108568369-001032     108568006001023796158BABY RATTLE SET 6PCE   0000001000+00004385+00000+0001T   00004385+0000001645          1400 EY9745               1AZ
108568002108568369-001023     108568006001023712288BATH ANIMALS SQUEAKY 6P0000001000+00007893+00000+0001T   00007893+0000001645          1400 EY9745               1AZ
108569000108569               108569               170213N5     1400+00000+N50000001578+0000001578+000000000+000000221+0000001790+0000000009+I20000000000+0000001790+Z
108569001108569018-000127     108569006001023380289MUG OCC STRAIGHT LOVE  0000001000+00001578+00000+0001T   00001753+0006471646          1400 EY9515               1AZ
108570000108570               108570               170213N5     1400+00000+N50000004432+0000004432+000000000+000000621+0000005053+0000000000+I40000005053+0000000000+Z
108570001108570002-000740     108570006001023763945GRATER 4-WAY WHITE     0000001000+00002192+00000+0001T   00002192+0000001649          1400 EY9300               1AZ
108570002108570200-000200     108570006008766091144BAKING ALUM FOIL 2PCE  0000001000+00002192+00000+0001T   00002192+0000001649          1400 EY9214               1AZ
108570003108570112-116069     108570006009681820277TCS CARRIER BAG JUMBO  0000001000+00000048+00000+0001T   00000048+0000001649          1400 EY9090               1AZ
108571000108571               108571               170213N5     1400+00000+N50000006345+0000006345+000000000+000000891+0000007230+0000000006+I20000000000+0000007230+Z
108571001108571403-000509     108571006001023699664MONEY-BANK PL. PIGGY   0000002000+00002630+00000+0001T   00002630+0000001649          1400 EY9510               1AZ
108571002108571002-021040     108571006001023812216PARTY-PICKS 100PCE     0000002000+00000525+00000+0001T   00000525+0000001649          1400 EY9300               1AZ
108571003108571112-116038     108571006009681820246TCS CARRIER BAG MIDI   0000001000+00000035+00000+0001T   00000035+0000001649          1400 EY9090               1AZ
108572000108572               108572               170213N5     1400+00000+N50000002663+0000002663+000000000+000000373+0000003030+0000000006+I20000000000+0000003030+Z
108572001108572565-000042     108572006003000252459NOVELTY STRESS BALL    0000002000+00001314+00000+0001T   00001314+0000001651          1400 EY9745               1AZ
108572002108572112-116038     108572006009681820246TCS CARRIER BAG MIDI   0000001000+00000035+00000+0001T   00000035+0000001651          1400 EY9090               1AZ
108573000108573               108573               170213N5     1400+00000+N50000001753+0000001753+000000000+000000246+0000001990+0000000009+I20000000000+0000001990+Z
108573001108573077-000309     108573006001023608604GIFT-BAG 25X32CM GLOSS 0000001000+00001753+00000+0001T   00001753+0000001652          1400 EY9112               1AZ
108574000108574               108574               170213N5     1400+00000+N50000010524+0000010524+000000000+000001474+0000011998+0000000000+I40000011998+0000000000+Z
108574001108574007-000551     108574006001023848079NOTE-PAD SHOP-LIST ASST0000001000+00001753+00000+0001T   00001753+0000001659          1400 EY9130               1AZ
108574002108574002-000748     108574006001023477439GRATER S/S 4-WAY  BLACK0000001000+00008771+00000+0001T   00008771+0000001659          1400 EY9300               1AZ
108575000108575               108575               170213N5     1400+00000+N50000003067+0000003067+000000000+000000430+0000003497+0000000000+I40000003497+0000000000+Z
108575001108575903-000610     108575006003000610518SWEET JUMBO BUBBLE GUM 0000001000+00001753+00000+0001T   00001753+0000001702          1400 EY9150               1AZ
108575002108575078-009100     108575006008741002349ALL-CLEAR GLUE 25ml CRD0000001000+00001314+00000+0001T   00001314+0000001702          1400 EY9810               1AZ
108576000108576               108576               170213N5     1400+00000+N50000002630+0000002630+000000000+000000369+0000002990+0000000009+I20000000000+0000002990+Z
108576001108576562-000010     108576006001023762528KID'S PLAY DOUGH       0000001000+00002630+00000+0001T   00002630+0000001711          1400 EY9755               1AZ
108577000108577               108577               170213N5     1400+00000+N50000007937+0000007937+000000000+000001113+0000009050+0000000000+I40000009050+0000000000+Z
108577001108577903-000006     108577006923431571571SWEET GS SOUR BELT 50g 0000001000+00000876+00000+0001T   00000876+0000001718          1400 EY9150               1AZ
108577002108577266-000101     108577006003000552658GLIDER PLANE 15.5X45CM 0000001000+00002630+00000+0001T   00002630+0000001718          1400 EY9710               1AZ
108577003108577079-000116     108577006001023907592ART PAINT-BY-NUMB 12PCE0000001000+00003507+00000+0001T   00003507+0000001718          1400 EY9130               1AZ
108577004108577903-000006     108577006923431571571SWEET GS SOUR BELT 50g 0000001000+00000876+00000+0001T   00000876+0000001718          1400 EY9150               1AZ
108577005108577112-116069     108577006009681820277TCS CARRIER BAG JUMBO  0000001000+00000048+00000+0001T   00000048+0000001718          1400 EY9090               1AZ
108578000108578               108578               170213N5     1400+00000+N50000014034+0000014034+000000000+000001965+0000015990+0000000009+I20000000000+0000015990+Z
108578001108578140-092001     108578006001023819154MOSQ-NET 900x230x60cm  0000001000+00014034+00000+0001T   00014034+0000001721          1400 EY9830               1AZ
108578002108578903-000499     108578006001704012492SWT CHOC MALLOWS 50g   0000001000-00001227+00000+0001T   00001227+0000001721          1400 EY91502IC            1 Z
108578003108578903-000499     108578006001704012492SWT CHOC MALLOWS 50g   0000001000+00001227+00000+0001T   00001227+0000001721          1400 EY91502IC            1AZ
108579000108579               108579               170213N5     1400+00000+N50000003507+0000003507+000000000+000000491+0000003990+0000000008+I20000000000+0000003990+Z
108579001108579018-000136     108579006001023659026MUG OCC LOVE W/PLUSH   0000001000+00003507+00000+0001T   00003507+0000001721          1400 EY9515               1AZ
108580000108580               108580               170213N5     1400+00000+N50000000035+0000000035+000000000+000000005+0000000040+0000000000+I20000000000+0000000040+Z
108580001108580112-116038     108580006009681820246TCS CARRIER BAG MIDI   0000001000+00000035+00000+0001T   00000035+0000001722          1400 EY9090               1AZ
108581000108581               108581               170213N5     1400+00000+N50000009682+0000009682+000000000+000001356+0000011038+0000000000+I40000011038+0000000000+Z
108581001108581562-000211     108581006001023851536PUSH-IN BOARD ALPHABET 0000001000+00005262+00000+0001T   00005262+0000001725          1400 EY9755               1AZ
108581002108581562-000212     108581006001023851567PUSH-IN BOARD NUMBERS  0000001000+00004385+00000+0001T   00004385+0000001725          1400 EY9755               1AZ
108581003108581112-116038     108581006009681820246TCS CARRIER BAG MIDI   0000001000+00000035+00000+0001T   00000035+0000001725          1400 EY9090               1AZ
108582000108582               108582               170213N5     1400+00000+N50000007735+0000007735+000000000+000001083+0000008810+0000000008+I20000000000+0000008810+Z
108582001108582018-000177     108582006001023797513MUG MINI LOVE ASSTD    0000011000+00000700+00000+0001T   00000700+0000001727          1400 EY9515               1AZ
108582002108582112-116038     108582006009681820246TCS CARRIER BAG MIDI   0000001000+00000035+00000+0001T   00000035+0000001727          1400 EY9090               1AZ
108583000108583               108583               170213N5     1400+00000+N50000006136+0000006136+000000000+000000860+0000006990+0000000006+I20000000000+0000006990+Z
108583001108583018-000136     108583006001023659026MUG OCC LOVE W/PLUSH   0000001000+00003507+00000+0001T   00003507+0000001737          1400 EY9515               1AZ
108583002108583077-000382     108583006003000247820GIFT-BAG MED 18X23CM   0000001000+00001753+00000+0001T   00001753+0000001737          1400 EY9112               1AZ
108583003108583903-000295     108583006001704002899SWT MS FRUITY RASCALS  0000001000+00000876+00000+0001T   00000876+0000001737          1400 EY9150               1AZ
108584000108584               108584               170213N5     1400+00000+N50000007748+0000007748+000000000+000001087+0000008835+0000000000+I40000008835+0000000000+Z
108584001108584077-000011-D   108584006001023808554TISSUE-WRAP WHITE 10PCE0000001000+00000876+00000+0001T   00000876+0000001745          1400 EY9112               1AZ
108584002108584018-000170     108584006001023775528MUG OCC. LOVE 2PC MINI 0000001000+00002192+00000+0001T   00002192+0000001745          1400 EY9515               1AZ
108584003108584077-000309     108584006001023608604GIFT-BAG 25X32CM GLOSS 0000001000+00001753+00000+0001T   00001753+0000001745          1400 EY9112               1AZ
108584004108584083-000049     108584004891035200024CIG-LIGHTER DISPOSABLE 0000001000+00000437+00000+0001T   00000437+0000001745          1400 EY9315               1AZ
108584005108584077-000924     108584006003000414055G/WRAP 700mmx2m WEDDING0000001000+00002455+00000+0001T   00002455+0000001745          1400 EY9112               1AZ
108584006108584112-116038     108584006009681820246TCS CARRIER BAG MIDI   0000001000+00000035+00000+0001T   00000035+0000001745          1400 EY9090               1AZ
108585000108585               108585               170213N5     1400+00000+N50000003856+0000003856+000000000+000000540+0000004396+0000000000+I40000004396+0000000000+Z
108585001108585200-000100     108585006001023764003CUPS 25PCE DISPOSABLE  0000002000+00001928+00000+0001T   00001928+0000001748          1400 EY9214               1AZ
108586000108586               108586               170213N5     1400+00000+N50000002892+0000002892+000000000+000000405+0000003290+0000000007+I20000000000+0000003290+Z
108586001108586077-000470     108586006003000330171G-BAG DESGN SML 11X14CM0000001000+00001314+00000+0001T   00001314+0000001749          1400 EY9112               1AZ
108586002108586077-000315     108586006003000181186GIFT-BAG 20x28cm MATT  0000001000+00001578+00000+0001T   00001578+0000001749          1400 EY9112               1AZ
108587000108587               108587               170213N5     1400+00000+N50000007892+0000007892+000000000+000001106+0000008990+0000000008+I20000000000+0000008990+Z
108587001108587206-000280     108587006003000632428COCKTAIL STIRRER 6PCS  0000001000+00002630+00000+0001T   00002630+0000001750          1400 EY9321               1AZ
108587002108587206-000320     108587006003000632909BOTTLE STOPPER+MARKERS 0000001000+00005262+00000+0001T   00005262+0000001750          1400 EY9321               1AZ
108588000108588               108588               170213N5     1400+00000+N50000001578+0000001578+000000000+000000221+0000001790+0000000009+I20000000000+0000001790+Z
108588001108588077-000315     108588006003000181186GIFT-BAG 20x28cm MATT  0000001000+00001578+00000+0001T   00001578+0000001750          1400 EY9112               1AZ
108589000108589               108589               170213N5     1400+00000+N50000001578+0000001578+000000000+000000221+0000001790+0000000009+I20000000000+0000001790+Z
108589001108589077-000315     108589006003000181186GIFT-BAG 20x28cm MATT  0000001000+00001578+00000+0001T   00001578+0000001751          1400 EY9112               1AZ
108590000108590               108590               170213N5     1400+00000+N50000005869+0000005869+000000000+000000823+0000006690+0000000002+I20000000000+0000006690+Z
108590001108590362-004000     108590000613153000225DISNEY T/BELL TRINKETS 0000003000+00000700+00000+0001T   00000876+0008181754          1400 EY91602IC            1AZ
108590002108590162-097715     108590006001492977157#TAG NEW COLOUR E/PIERC0000001000+00001139+00000+0001T   00001139+0000001754          1400 EY9160               1AZ
108590003108590162-096646     108590006001492966465#TAG HOT DEALS KIDS HR 0000001000+00002630+00000+0001T   00002630+0000001754          1400 EY9160               1AZ
108591000108591               108591               170213N5     1400+00000+N50000005962+0000005962+000000000+000000835+0000006790+0000000007+I20000000000+0000006790+Z
108591001108591080-000124     108591006003000297733CARD & ENV VALENTINES  0000001000+00001578+00000+0001T   00001578+0000001755          1400 EY9112               1AZ
108591002108591080-000127     108591006003000424351VALENTINES DAY 36x24CM 0000002000+00002192+00000+0001T   00002192+0000001755          1400 EY9112               1AZ
A17021300                                          09565593N5SLAVE 1                       EY92IC
A17021301                                          09583932N5SLAVE 1                       EY92IC
A17021302                                          14260803N5SLAVE 1                       N642IC
A17021303                                          17575059N5SLAVE 1                       EY92IC
B10859000                                          170213N5362-004000     17542614SLAVE 1     EY92IC0000003000+0000001000+0000000000000+
M17021301                              7           N5LAST TILL SLIP NO 108591
M17021391                              CASH        N5SLAVE 1                       Z-REPORT No.   174TOTAL (Sales - Refunds)           2664.45       CASH TO BE BANKED                 1716.60       DEBIT CARDS                          0.00       CREDIT CARDS                       947.85       Z-READING                         2664.45       AIRTIME DEBIT CARD SALES             0.00       AIRTIME CARD SALES                   0.00       OVERS/UNDERS                         0.00       AIRTIME CASH SALES                   0.00       GIFT CARDS                           0.00       GIFT CARD CASH SALES                 0.00       T O T A L  CASH PAYOUTS              0.00                                                                                                                                                                                                                                                                                                                                                      Z
M17021392                              CASH        N5ABSENT                                                                                                                                                                                          ANNUAL LEAVE                                                                                                                                                                                    DAY OFF                                                                                                                                                                                         COMMENTS                                                                                                                                                                                                                                                                                                                                                                                       Z
Y17021300                                          N500000000235168+000049
ZN517021320083 SLAVE 1      SALES DATA                     NEXT INVOICE NO.  108592 0174
F094813028-003601         1702101215020000061ICSLAVE 1
F094813065-005337         1702101215020000201ICSLAVE 1
F094813146-000402         1702101215020000101ICSLAVE 1
F094813146-000410         1702101215020000081ICSLAVE 1
F094813146-000432         1702101215020000031ICSLAVE 1
F094813263-000147         1702101215020000051ICSLAVE 1
F094813263-000800         1702101215020000051ICSLAVE 1
F094813264-000927         1702101215020000061ICSLAVE 1
F094813265-000316         1702101215020000121ICSLAVE 1
F094813265-006905         1702101215020000031ICSLAVE 1
F094813266-003014         1702101215020000021ICSLAVE 1
F094813301-001123         1702101215020000061ICSLAVE 1
F094813365-064009         1702101215020000101ICSLAVE 1
F094813466-000004         1702101215020000061ICSLAVE 1
F094813466-000005         1702101215020000121ICSLAVE 1
F094813466-000007         1702101215020000041ICSLAVE 1
F094813466-000584         1702101215020000121ICSLAVE 1
F094813466-006141         1702101215020000081ICSLAVE 1
F094813565-000081         1702101215020000121ICSLAVE 1
X N5 Slave 1 First invoice 108543 170213 Last invoice 108591 170213 Next invoice 108592 Total number of records 000000172 clbackup completed 20:08:12
