208443000208443               208443               170213N5     1400+00000+N50000008374+0000008374+000000000+000001174+0000009540+0000000008+I20000000000+0000009540+Z
208443001208443071-000012     208443006001177101006CHALK COLOUR 12PCE     0000001000+00000481+00000+0001T   00000481+0000000913          1400 EY9130               2AZ
208443002208443007-010504     208443006002923014960BLACKBOARD EASEL       0000001000+00007893+00000+0001T   00007893+0000000913          1400 EY9130               2AZ
208444000208444               208444               170213N5     1400+00000+N50000006745+0000006745+000000000+000000947+0000007690+0000000002+I20000000000+0000007690+Z
208444001208444304-001204     208444006001023737984FLOWER OCC. TEDDY/ROSES0000002000+00001402+00000+0001T   00001490+0006470925          1400 EY9510               2AZ
208444002208444083-000055     208444006003000003853LIGHTER ELCTRNC REFILBL0000002000+00000613+00000+0001T   00000613+0000000925          1400 EY9315               2AZ
208444003208444007-000166     208444006009685857316SPIRAL NOTES A6 100PG  0000001000+00000700+00000+0001T   00000700+0000000925          1400 EY9130               2AZ
208444004208444007-000160     208444006009685857286NOTE-BOOK A5 SHORTHAND 0000001000+00001227+00000+0001T   00001227+0000000925          1400 EY9130               2AZ
208444005208444903-000200     208444006009826020234SWT CHOC RP CHOCO 23G  0000001000+00000788+00000+0001T   00000788+0000000925          1400 EY9150               2AZ
208445000208445               208445               170213N5     1400+00000+N50000079595+0000079595+000000000+000011158+0000090753+0000000000+I40000090753+0000000000+Z
208445001208445203-005007     208445006003000288793DRINKING GAME TICTACTOE0000001000+00015788+00000+0001T   00015788+0000000938          1400 EY9300               2AZ
208445002208445001-091415     208445006003000329113W/GLS OCC. LOVE 2PC 2800000001000+00008771+00000+0001T   00009648+0006470938          1400 EY9515               2AZ
208445003208445006-005904     208445006001023823205P/FAVOUR SOCCER BALL 6P0000001000+00002630+00000+0001T   00002630+0000000938          1400 EY9131               2AZ
208445004208445006-000111     208445006003000519385BALLOONS LARGE 12PCE   0000001000+00002630+00000+0001T   00002630+0000000938          1400 EY9131               2AZ
208445005208445903-000610     208445006003000610518SWEET JUMBO BUBBLE GUM 0000001000+00001753+00000+0001T   00001753+0000000938          1400 EY9150               2AZ
208445006208445006-000201-B   208445006003000601271PARTY BOYS DSGN A 8PC  0000002000+00001753+00000+0001T   00001753+0000000938          1400 EY9131               2AZ
208445007208445206-000620     208445006003000631797BACK SCRATCHER EXTEND  0000001000+00002630+00000+0001T   00002630+0000000938          1400 EY9321               2AZ
208445008208445206-000390     208445006003000631438STRAW PL BUILD A STRAW 0000002000+00002630+00000+0001T   00002630+0000000938          1400 EY9321               2AZ
208445009208445206-000370     208445006003000631315STRAW P/DRINKING GLASS 0000001000+00001753+00000+0001T   00001753+0000000938          1400 EY9321               2AZ
208445010208445039-000320     208445006001023816153BIRTHDAY-CANDLES 13PCE 0000001000+00002630+00000+0001T   00002630+0000000938          1400 EY9510               2AZ
208445011208445366-007932     208445006003000238057ACCESS CLOWN BOWTIE    0000001000+00003069+00000+0001T   00003069+0000000938          1400 EY9131               2AZ
208445012208445206-000160     208445006003000628780CORN KERNELER          0000001000+00004385+00000+0001T   00004385+0000000938          1400 EY9321               2AZ
208445013208445206-000230     208445006003000631827MUFFIN TOP BAKING CUPS 0000001000+00001753+00000+0001T   00002630+0008170938          1400 EY9321               2AZ
208445014208445200-000130     208445006001023645067DESSERT-SPOONS 10PCE   0000001000+00000613+00000+0001T   00000613+0000000938          1400 EY9214               2AZ
208445015208445077-000308     208445006001023595812GIFT-BAG 33X45CM E/DAY 0000001000+00001753+00000+0001T   00001753+0000000938          1400 EY9112               2AZ
208445016208445206-000245     208445006003000680818BOTTLE CLEANER PLASTIC 0000001000+00002192+00000+0001T   00002192+0000000938          1400 EY9321               2AZ
208445017208445206-000110     208445006003000628186CHOPSTICKS PLASTIC KIDS0000001000+00002630+00000+0001T   00002630+0000000938          1400 EY9321               2AZ
208445018208445206-000230     208445006003000631827MUFFIN TOP BAKING CUPS 0000001000+00001753+00000+0001T   00002630+0008170938          1400 EY9321               2AZ
208445019208445080-000138     208445006003000589272CARD & ENV GIANT BABY  0000001000+00002630+00000+0001T   00002630+0000000938          1400 EY9112               2AZ
208445020208445019-000131     208445006003000456253PLANT. T/PLATE 10X12.5 0000002000+00002630+00000+0001T   00002630+0000000938          1400 EY9510               2AZ
208445021208445083-000058     208445006003000400331LIGHTER JET CIGAR REFIL0000001000+00002630+00000+0001T   00002630+0000000938          1400 EY9315               2AZ
208445022208445112-116053     208445006006438002399TCS CARRIER BAG 38L    0000001000+00000069+00000+0001T   00000069+0000000938          1400 EY9090               2AZ
208445023208445031-000923     208445006001023669933P/FRAME BLK W/WORDS    0000001000+00003507+00000+0001T   00003507+0000000938          1400 EY9510               2AZ
208446000208446               208446               170213N5     1400+00000+N50000006137+0000006137+000000000+000000860+0000006997+0000000000+I40000006997+0000000000+Z
208446001208446018-005009     208446006001023725608MUG W/PLUSH-BEAR LOVE  0000001000+00003507+00000+0001T   00003507+0000001001          1400 EY9515               2AZ
208446002208446563-000317-H   208446006001023776358SERVIETTE DOTS+STRIPES 0000001000+00002630+00000+0001T   00002630+0000001001          1400 EY9214               2AZ
208447000208447               208447               170213N5     1400+00000+N50000026311-0000026311-000000000+000003686-0000030000-0000000003+I20000000000+0000030000-Z
208447001208447065-003639     208447006001023787620GUITAR ROCKER          0000002000-00007016+00000+0001T   00007016+0000001013          1400 EY97452IC            2 Z
208447002208447496-058426     208447000078257584260POOL CRYSTAL-BLU 147x330000001000-00012279+00000+0001T   00012279+0000001013          1400 EY97872IC            2 Z
208448000208448               208448               170213N5     1400+00000+N50000008241+0000008241+000000000+000001154+0000009395+0000000000+I40000009395+0000000000+Z
208448001208448071-005667     208448006003000153060STAPLER SET MTL W/STPLS0000001000+00003507+00000+0001T   00003507+0000001054          1400 N64130               2AZ
208448002208448071-005060     208448006003000152186CELLOTAPE 2PACK INVSBLE0000001000+00003507+00000+0001T   00003507+0000001054          1400 N64130               2AZ
208448003208448071-081091     208448006001151010287STAED/GENKEM ALL-STICK 0000001000+00001227+00000+0001T   00001227+0000001054          1400 N64130               2AZ
208449000208449               208449               170213N5     1400+00000+N50000005993+0000005993+000000000+000000842+0000006830+0000000005+I20000000000+0000006830+Z
208449001208449036-000010     208449006003000675777LINT REMOVER STICKY    0000001000+00001753+00000+0001T   00001753+0000001055          1400 N64212               2AZ
208449002208449084-006995     208449006003000092802NAIL CLIPPER 8cm TOE   0000001000+00001753+00000+0001T   00001753+0000001055          1400 N64200               2AZ
208449003208449159-000043-H   208449006001023416629HOOKS ADHESIVE 3PCE SQR0000001000+00001139+00000+0001T   00001139+0000001055          1400 N64200               2AZ
208449004208449071-000212     208449006009608641190CHALK WHITE 12PCE      0000001000+00000437+00000+0001T   00000437+0000001055          1400 N64130               2AZ
208449005208449036-000011     208449006003000675890LINT REMOVER REFILL    0000001000+00000876+00000+0001T   00000876+0000001055          1400 N64212               2AZ
208449006208449112-116038     208449006009681820246TCS CARRIER BAG MIDI   0000001000+00000035+00000+0001T   00000035+0000001055          1400 N64090               2AZ
208450000208450               208450               170213N5     1400+00000+N50000005295+0000005295+000000000+000000742+0000006030+0000000007+I20000000000+0000006030+Z
208450001208450079-000012     208450006001023655332P/CRAYONS 12-COL LONG  0000001000+00001753+00000+0001T   00001753+0000001056          1400 N64130               2AZ
208450002208450567-011449     208450009780857260284BOOK STICKER TRAVEL    0000001000+00003507+00000+0001T   00003507+0000001056          1400 N64757               2AZ
208450003208450112-116038     208450006009681820246TCS CARRIER BAG MIDI   0000001000+00000035+00000+0001T   00000035+0000001056          1400 N64090               2AZ
208451000208451               208451               170213N5     1400+00000+N50000002892+0000002892+000000000+000000405+0000003290+0000000007+I20000000000+0000003290+Z
208451001208451018-000127     208451006001023380289MUG OCC STRAIGHT LOVE  0000001000+00001578+00000+0001T   00001753+0006471102          1400 N64515               2AZ
208451002208451077-000312     208451006001023608697GIFT-BAG 10X35CM GLOSS 0000001000+00001314+00000+0001T   00001314+0000001102          1400 N64112               2AZ
208452000208452               208452               170213N5     1400+00000+N50000001314+0000001314+000000000+000000184+0000001490+0000000008+I20000000000+0000001490+Z
208452001208452077-000470     208452006003000330171G-BAG DESGN SML 11X14CM0000001000+00001314+00000+0001T   00001314+0000001115          1400 EY9112               2AZ
208453000208453               208453               170213N5     1400+00000+N50000006610+0000006610+000000000+000000927+0000007530+0000000007+I20000000000+0000007530+Z
208453001208453903-000481     208453006001704007481SWT MOO MILK-SHAKES 60G0000001000+00000876+00000+0001T   00000876+0000001120          1400 EY9150               2AZ
208453002208453567-011505     208453000814625012092BK COLOURING 96P PRINCE0000001000+00003069+00000+0001T   00003069+0000001120          1400 EY9757               2AZ
208453003208453567-011497     208453000814625012795BK COLOURING 96P GHOUL 0000001000+00002630+00000+0001T   00002630+0000001120          1400 EY9757               2AZ
208453004208453112-116038     208453006009681820246TCS CARRIER BAG MIDI   0000001000+00000035+00000+0001T   00000035+0000001120          1400 EY9090               2AZ
208454000208454               208454               170213N5     1400+00000+N50000005260+0000005260+000000000+000000737+0000005997+0000000000+I40000005997+0000000000+Z
208454001208454562-000216     208454006003000113880EDU PUSH-IN WDN BOARD  0000001000+00001753+00000+0001T   00001753+0000001122          1400 EY9755               2AZ
208454002208454567-011343     208454006003000630592BK COLOURING THERAPY   0000001000+00003507+00000+0001T   00003507+0000001122          1400 EY9757               2AZ
208455000208455               208455               170213N5     1400+00000+N50000003542+0000003542+000000000+000000496+0000004038+0000000000+I40000004038+0000000000+Z
208455001208455018-000136     208455006001023659026MUG OCC LOVE W/PLUSH   0000001000+00003507+00000+0001T   00003507+0000001129          1400 EY9515               2AZ
208455002208455112-116038     208455006009681820246TCS CARRIER BAG MIDI   0000001000+00000035+00000+0001T   00000035+0000001129          1400 EY9090               2AZ
208456000208456               208456               170213N5     1400+00000+N50000031640+0000031640+000000000+000004432+0000036072+0000000000+I40000036072+0000000000+Z
208456001208456031-007010     208456006003000467945P/FRAME WDN CERTIFICATE0000001000+00008771+00000+0001T   00008771+0000001134          1400 EY9510               2AZ
208456002208456200-000012     208456006003000399536BAG 50PCE 165x146mm    0000001000+00003507+00000+0001T   00003507+0000001134          1400 EY9214               2AZ
208456003208456088-000055     208456006003000623068TOILET FRESHENER CISTER0000001000+00001753+00000+0001T   00001753+0000001134          1400 EY9212               2AZ
208456004208456133-001218     208456006003000622443IRON REST SILICONE     0000001000+00004385+00000+0001T   00004385+0000001134          1400 EY9212               2AZ
208456005208456079-001002     208456006003000448715CANVAS A4 WOOD MOUNTED 0000001000+00002630+00000+0001T   00002630+0000001134          1400 EY9130               2AZ
208456006208456030-004080     208456006003000657780PLAQUE WOODEN SIGN     0000001000+00010525+00000+0001T   00010525+0000001134          1400 EY9505               2AZ
208456007208456112-116053     208456006006438002399TCS CARRIER BAG 38L    0000001000+00000069+00000+0001T   00000069+0000001134          1400 EY9090               2AZ
208457000208457               208457               170213N5     1400+00000+N50000002192+0000002192+000000000+000000307+0000002490+0000000009+I20000000000+0000002490+Z
208457001208457018-000170     208457006001023775528MUG OCC. LOVE 2PC MINI 0000001000+00002192+00000+0001T   00002192+0000001140          1400 EY9515               2AZ
208458000208458               208458               170213N5     1400+00000+N50000003507+0000003507+000000000+000000491+0000003990+0000000008+I20000000000+0000003990+Z
208458001208458105-007050-B   208458006002580007411CEREAL-STORE 3L ASSTD  0000001000+00003507+00000+0001T   00003507+0000001141          1400 EY9210               2AZ
208459000208459               208459               170213N5     1400+00000+N50000019706+0000019706+000000000+000002762+0000022468+0000000000+I40000022468+0000000000+Z
208459001208459105-001010     208459006002580007329LUNCH-BOX 1L  ASSTD    0000003000+00000876+00000+0001T   00000876+0000001147          1400 EY9210               2AZ
208459002208459105-001024-A   208459006009654960986CONTAINERS CLEAR 3PCE  0000001000+00001928+00000+0001T   00001928+0000001147          1400 EY9210               2AZ
208459003208459077-000010-Z   208459006001023157874CREPE-PAPER BLK/ORG/PUR0000001000+00000788+00000+0001T   00000788+0000001147          1400 EY9112               2AZ
208459004208459077-000011-X   208459006001023809827TISSUE-WRAP SILVER 10PC0000001000+00001753+00000+0001T   00001753+0000001147          1400 EY9112               2AZ
208459005208459080-000127     208459006003000424351VALENTINES DAY 36x24CM 0000001000+00002192+00000+0001T   00002192+0000001147          1400 EY9112               2AZ
208459006208459030-004015     208459006003000467624PLAQUE WDN SIGN 30X20CM0000001000+00009648+00000+0001T   00009648+0000001147          1400 EY9505               2AZ
208459007208459018-000177     208459006001023797513MUG MINI LOVE ASSTD    0000001000+00000700+00000+0001T   00000700+0000001147          1400 EY9515               2AZ
208459008208459112-116053     208459006006438002399TCS CARRIER BAG 38L    0000001000+00000069+00000+0001T   00000069+0000001147          1400 EY9090               2AZ
208460000208460               208460               170213N5     1400+00000+N50000001578+0000001578+000000000+000000221+0000001799+0000000000+I10000000100+0000001699+Z
208460001208460080-000124     208460006003000297733CARD & ENV VALENTINES  0000001000+00001578+00000+0001T   00001578+0000001156          1400 EY9112               2AZ
208461000208461               208461               170213N5     1400+00000+N50000000876+0000000876+000000000+000000123+0000000990+0000000009+I20000000000+0000000990+Z
208461001208461903-000503     208461006001704006118SWT VAMPIRE FANGS 60G  0000001000+00000876+00000+0001T   00000876+0000001157          1400 EY9150               2AZ
208462000208462               208462               170213N5     1400+00000+N50000008768+0000008768+000000000+000001229+0000009997+0000000000+I40000009997+0000000000+Z
208462001208462080-000110     208462006003000237326CARD&ENVLPE BDAY-FUNNY 0000001000+00001753+00000+0001T   00001753+0000001208          1400 EY9112               2AZ
208462002208462562-000026     208462006001023910578KID'S DOUGH SET 9PCE   0000001000+00004385+00000+0001T   00004385+0000001208          1400 EY9755               2AZ
208462003208462562-000010     208462006001023762528KID'S PLAY DOUGH       0000001000+00002630+00000+0001T   00002630+0000001208          1400 EY9755               2AZ
208463000208463               208463               170213N5     1400+00000+N50000011445+0000011445+000000000+000001605+0000013050+0000000000+I20000000000+0000013050+Z
208463001208463267-000233     208463006001023688576PUZZLE 48pc EDUCATIONAL0000001000+00003507+00000+0001T   00003507+0000001213          1400 EY9755               2AZ
208463002208463492-055602     208463000078257556021SWIM-GOGGLES PLAY      0000003000+00002630+00000+0001T   00002630+0000001213          1400 EY9787               2AZ
208463003208463112-116069     208463006009681820277TCS CARRIER BAG JUMBO  0000001000+00000048+00000+0001T   00000048+0000001213          1400 EY9090               2AZ
208464000208464               208464               170213N5     1400+00000+N50000007624+0000007624+000000000+000001071+0000008695+0000000000+I40000008695+0000000000+Z
208464001208464903-000200     208464006009826020234SWT CHOC RP CHOCO 23G  0000002000+00000788+00000+0001T   00000788+0000001218          1400 EY9150               2AZ
208464002208464903-000183     208464006003000451043SWT LB HEART LOLLY     0000002000+00000393+00000+0001T   00000393+0000001218          1400 EY9150               2AZ
208464003208464018-019000     208464006003000557288MUG OCC. LOVE JUMBO    0000001000+00005262+00000+0001T   00005262+0000001218          1400 EY9515               2AZ
208465000208465               208465               170213N5     1400+00000+N50000011009+0000011009+000000000+000001542+0000012551+0000000000+I40000012551+0000000000+Z
208465001208465018-000170     208465006001023775528MUG OCC. LOVE 2PC MINI 0000001000+00002192+00000+0001T   00002192+0000001220          1400 EY9515               2AZ
208465002208465031-000923     208465006001023669933P/FRAME BLK W/WORDS    0000001000+00003507+00000+0001T   00003507+0000001220          1400 EY9510               2AZ
208465003208465018-019000     208465006003000557288MUG OCC. LOVE JUMBO    0000001000+00005262+00000+0001T   00005262+0000001220          1400 EY9515               2AZ
208465004208465112-116069     208465006009681820277TCS CARRIER BAG JUMBO  0000001000+00000048+00000+0001T   00000048+0000001220          1400 EY9090               2AZ
208466000208466               208466               170213N5     1400+00000+N50000007893+0000007893+000000000+000001106+0000008999+0000000000+I40000008999+0000000000+Z
208466001208466004-071209     208466006003000604678MOBILE IN CAR HOLDER   0000001000+00007893+00000+0001T   00007893+0000001223          1400 EY9310               2AZ
208467000208467               208467               170213N5     1400+00000+N50000008502+0000008502+000000000+000001193+0000009695+0000000000+I40000009695+0000000000+Z
208467001208467088-000084     208467006001023798060P/POURRI 120G ASSTD    0000001000+00001753+00000+0001T   00001753+0000001235          1400 EY9212               2AZ
208467002208467006-000190     208467006003000685530BALLOONS LOVE 81x91cm  0000001000+00004385+00000+0001T   00004385+0000001235          1400 EY9131               2AZ
208467003208467903-000200     208467006009826020234SWT CHOC RP CHOCO 23G  0000003000+00000788+00000+0001T   00000788+0000001235          1400 EY9150               2AZ
208468000208468               208468               170213N5     1400+00000+N50000007016+0000007016+000000000+000000983+0000007999+0000000000+I40000007999+0000000000+Z
208468001208468079-000590     208468006003000543236SKETCH PAD & PAINT SET 0000001000+00007016+00000+0001T   00007016+0000001237          1400 EY9130               2AZ
208469000208469               208469               170213N5     1400+00000+N50000004385+0000004385+000000000+000000614+0000004999+0000000000+I40000004999+0000000000+Z
208469001208469079-001001     208469006003000448593CANVAS A3 WOOD MOUNTED 0000001000+00004385+00000+0001T   00004385+0000001246          1400 EY9130               2AZ
208470000208470               208470               170213N5     1400+00000+N50000006172+0000006172+000000000+000000865+0000007030+0000000007+I20000000000+0000007030+Z
208470001208470567-011351     208470009780709722366BK STICKER AND COLOURIN0000001000+00003507+00000+0001T   00003507+0000001257          1400 EY9757               2AZ
208470002208470567-011308     208470006003000598472BOOK COLOURING COPY    0000001000+00002630+00000+0001T   00002630+0000001257          1400 EY9757               2AZ
208470003208470112-116038     208470006009681820246TCS CARRIER BAG MIDI   0000001000+00000035+00000+0001T   00000035+0000001257          1400 EY9090               2AZ
208471000208471               208471               170213N5     1400+00000+N50000001753+0000001753+000000000+000000246+0000001990+0000000009+I20000000000+0000001990+Z
208471001208471200-003024     208471006001023657299REFUSE BAGS 20PCE BLACK0000001000+00001753+00000+0001T   00001753+0000001303          1400 EY9214               2AZ
208472000208472               208472               170213N5     1400+00000+N50000008771+0000008771+000000000+000001228+0000009990+0000000009+I20000000000+0000009990+Z
208472001208472203-000107     208472006001023820358ICE-BUCKET T/PLATE DECO0000001000+00008771+00000+0001T   00008771+0000001310          1400 EY9300               2AZ
208473000208473               208473               170213N5     1400+00000+N50000019589+0000019589+000000000+000002746+0000022330+0000000005+I20000000000+0000022330+Z
208473001208473112-116038     208473006009681820246TCS CARRIER BAG MIDI   0000001000+00000035+00000+0001T   00000035+0000001311          1400 EY9090               2AZ
208473002208473004-071209     208473006003000604678MOBILE IN CAR HOLDER   0000001000+00007893+00000+0001T   00007893+0000001311          1400 EY9310               2AZ
208473003208473027-009030     208473006002814400100DUSTPAN PL             0000001000+00001402+00000+0001T   00001402+0000001311          1400 EY9212               2AZ
208473004208473046-000400     208473006001023804983BATT ALKALINE 1.5Vx30PC0000001000+00003244+00000+0001T   00003244+0000001311          1400 EY9312               2AZ
208473005208473146-000434     208473006003000304875SPRAY TWIST-NOZZLE GUN 0000001000+00005262+00000+0001T   00005262+0000001311          1400 EY9820               2AZ
208473006208473146-000402     208473006003000303557CLIP-ON CONNECTOR 13mm 0000001000+00001753+00000+0001T   00001753+0000001311          1400 EY9820               2AZ
208474000208474               208474               170213N5     1400+00000+N50000003506+0000003506+000000000+000000492+0000003990+0000000008+I20000000000+0000003990+Z
208474001208474903-000614     208474006003000617333SWT PLIERS TWISTER 17cm0000002000+00001753+00000+0001T   00001753+0000001315          1400 EY9150               2AZ
208475000208475               208475               170213N5     1400+00000+N50000010961+0000010961+000000000+000001536+0000012497+0000000000+I40000012497+0000000000+Z
208475001208475206-000245     208475006003000680818BOTTLE CLEANER PLASTIC 0000001000+00002192+00000+0001T   00002192+0000001318          1400 EY9321               2AZ
208475002208475206-000620     208475006003000631797BACK SCRATCHER EXTEND  0000001000+00002630+00000+0001T   00002630+0000001318          1400 EY9321               2AZ
208475003208475566-000316     208475006003000521821STICKERS MIRRORS HOME  0000001000+00006139+00000+0001T   00006139+0000001318          1400 EY9130               2AZ
208476000208476               208476               170213N5     1400+00000+N50000004821+0000004821+000000000+000000676+0000005490+0000000007+I20000000000+0000005490+Z
208476001208476089-000005     208476006003000094806KEY CHAIN CARDS MTL    0000001000+00003069+00000+0001T   00003069+0000001319          1400 EY9205               2AZ
208476002208476089-000192-A   208476006001023901774KEY-CHAIN ACRYLIC      0000002000+00000876+00000+0001T   00000876+0000001319          1400 EY9205               2AZ
208477000208477               208477               170213N5     1400+00000+N50000003069+0000003069+000000000+000000430+0000003490+0000000009+I20000000000+0000003490+Z
208477001208477089-000205     208477006003000485963KEY CHAIN LEATHER W/ZIP0000001000+00003069+00000+0001T   00003069+0000001320          1400 EY9205               2AZ
208478000208478               208478               170213N5     1400+00000+N50000004675+0000004675+000000000+000000657+0000005332+0000000000+I40000005332+0000000000+Z
208478001208478028-085274     208478006001023641571BBQ LIGHTER         H&L0000001000+00002192+00000+0001T   00002192+0000001323          1400 EY9305               2AZ
208478002208478018-000177     208478006001023797513MUG MINI LOVE ASSTD    0000001000+00000700+00000+0001T   00000700+0000001323          1400 EY9515               2AZ
208478003208478089-000192-A   208478006001023901774KEY-CHAIN ACRYLIC      0000001000+00000876+00000+0001T   00000876+0000001323          1400 EY9205               2AZ
208478004208478006-000173-B   208478006003000636358BALLOONS HELIUM 1PC WHT0000002000+00000218+00000+0001T   00000218+0000001323          1400 EY9131               2AZ
208478005208478006-000173-A   208478006003000636235BALLOONS HELIUM 1PC BLK0000002000+00000218+00000+0001T   00000218+0000001323          1400 EY9131               2AZ
208478006208478112-116038     208478006009681820246TCS CARRIER BAG MIDI   0000001000+00000035+00000+0001T   00000035+0000001323          1400 EY9090               2AZ
208479000208479               208479               170213N5     1400+00000+N50000001179+0000001179+000000000+000000168+0000001340+0000000007+I20000000000+0000001340+Z
208479001208479903-000183     208479006003000451043SWT LB HEART LOLLY     0000003000+00000393+00000+0001T   00000393+0000001325          1400 EY9150               2AZ
208480000208480               208480               170213N5     1400+00000+N50000001314+0000001314+000000000+000000184+0000001490+0000000008+I20000000000+0000001490+Z
208480001208480077-000310     208480006001023608635GIFT-BAG 18X23CM GLOSS 0000001000+00001314+00000+0001T   00001314+0000001334          1400 EY9112               2AZ
208481000208481               208481               170213N5     1400+00000+N50000003506+0000003506+000000000+000000492+0000003998+0000000000+I40000003998+0000000000+Z
208481001208481077-000309     208481006001023608604GIFT-BAG 25X32CM GLOSS 0000001000+00001753+00000+0001T   00001753+0000001348          1400 EY9112               2AZ
208481002208481088-000084     208481006001023798060P/POURRI 120G ASSTD    0000001000+00001753+00000+0001T   00001753+0000001348          1400 EY9212               2AZ
208482000208482               208482               170213N5     1400+00000+N50000010963+0000010963+000000000+000001535+0000012498+0000000000+I40000012498+0000000000+Z
208482001208482046-000012-A   208482006003000208296BATTERIES H/POWER SZ:AA0000001000+00002192+00000+0001T   00002192+0000001351          1400 EY9312               2AZ
208482002208482586-098617     208482006001492986173WATCH KIDS BASIC ASSTD 0000001000+00008771+00000+0001T   00008771+0000001351          1400 EY9160               2AZ
208483000208483               208483               170213N5     1400+00000+N50000005295+0000005295+000000000+000000743+0000006038+0000000000+I40000006038+0000000000+Z
208483001208483206-000620     208483006003000631797BACK SCRATCHER EXTEND  0000001000+00002630+00000+0001T   00002630+0000001353          1400 EY9321               2AZ
208483002208483108-003023     208483006003000665471TUMBLER W/STRAW 550ml  0000001000+00002630+00000+0001T   00002630+0000001353          1400 EY9210               2AZ
208483003208483112-116038     208483006009681820246TCS CARRIER BAG MIDI   0000001000+00000035+00000+0001T   00000035+0000001353          1400 EY9090               2AZ
208484000208484               208484               170213N5     1400+00000+N50000009681+0000009681+000000000+000001356+0000011037+0000000000+I40000011037+0000000000+Z
208484001208484007-000597     208484006009699511129MARLIN SLF ADHESIVE 2M 0000002000+00002192+00000+0001T   00002192+0000001405          1400 EY9130               2AZ
208484002208484030-000031     208484006001023721662P/GLASS DAD W/BADGE ASS0000001000+00005262+00000+0001T   00005262+0000001405          1400 EY9505               2AZ
208484003208484112-116038     208484006009681820246TCS CARRIER BAG MIDI   0000001000+00000035+00000+0001T   00000035+0000001405          1400 EY9090               2AZ
208485000208485               208485               170213N5     1400+00000+N50000006489+0000006489+000000000+000000909+0000007390+0000000008+I20000000000+0000007390+Z
208485001208485077-000319     208485006001023609779GIFT-BAG 18X23CM BIRTHD0000001000+00001227+00000+0001T   00001227+0000001417          1400 N64112               2AZ
208485002208485150-000773     208485006001023681065TACKLE-BOX 18-SECTION  0000001000+00005262+00000+0001T   00005262+0000001417          1400 N64810               2AZ
208486000208486               208486               170213N5     1400+00000+N50000003507+0000003507+000000000+000000491+0000003990+0000000008+I20000000000+0000003990+Z
208486001208486567-011343     208486006003000630592BK COLOURING THERAPY   0000001000+00003507+00000+0001T   00003507+0000001433          1400 N64757               2AZ
208487000208487               208487               170213N5     1400+00000+N50000002980+0000002980+000000000+000000418+0000003398+0000000000+I40000003398+0000000000+Z
208487001208487077-000304     208487006001023483232GIFT-BAG 25X32CM E/DAY 0000002000+00001490+00000+0001T   00001490+0000001448          1400 N64112               2AZ
208488000208488               208488               170213N5     1400+00000+N50000001578+0000001578+000000000+000000221+0000001790+0000000009+I20000000000+0000001790+Z
208488001208488077-000315     208488006003000181186GIFT-BAG 20x28cm MATT  0000001000+00001578+00000+0001T   00001578+0000001452          1400 N64112               2AZ
208489000208489               208489               170213N5     1400+00000+N50000001753+0000001753+000000000+000000246+0000001990+0000000009+I20000000000+0000001990+Z
208489001208489903-000211     208489006002099001238SWT GS MALLOW ICE CREAM0000001000+00001753+00000+0001T   00001753+0000001453          1400 N64150               2AZ
208490000208490               208490               170213N5     1400+00000+N50000004235+0000004235+000000000+000000598+0000004830+0000000003+I20000000000+0000004830+Z
208490001208490903-000183     208490006003000451043SWT LB HEART LOLLY     0000004000+00000393+00000+0001T   00000393+0000001456          1400 N64150               2AZ
208490002208490077-000150-D   208490006003000054343GIFT-WRAP CELLPHANE CLR0000002000+00000876+00000+0001T   00000876+0000001456          1400 N64112               2AZ
208490003208490077-000011-D   208490006001023808554TISSUE-WRAP WHITE 10PCE0000001000+00000876+00000+0001T   00000876+0000001456          1400 N64112               2AZ
208490004208490112-116038     208490006009681820246TCS CARRIER BAG MIDI   0000001000+00000035+00000+0001T   00000035+0000001456          1400 N64090               2AZ
208491000208491               208491               170213N5     1400+00000+N50000014363+0000014363+000000000+000002018+0000016380+0000000001+I20000000000+0000016380+Z
208491001208491903-000183     208491006003000451043SWT LB HEART LOLLY     0000003000+00000393+00000+0001T   00000393+0000001502          1400 N64150               2AZ
208491002208491077-000382     208491006003000247820GIFT-BAG MED 18X23CM   0000003000+00001753+00000+0001T   00001753+0000001502          1400 N64112               2AZ
208491003208491018-019000     208491006003000557288MUG OCC. LOVE JUMBO    0000001000-00005262+00000+0001T   00005262+0000001502          1400 N645152IC            2 Z
208491004208491018-019000     208491006003000557288MUG OCC. LOVE JUMBO    0000001000+00005262+00000+0001T   00005262+0000001502          1400 N645152IC            2AZ
208491005208491018-000129     208491006001023403353MUG OCC. LOVE V-SHAPE  0000003000+00002630+00000+0001T   00002630+0000001502          1400 N64515               2AZ
208491006208491112-116038     208491006009681820246TCS CARRIER BAG MIDI   0000001000+00000035+00000+0001T   00000035+0000001502          1400 N64090               2AZ
208492000208492               208492               170213N5     1400+00000+N50000017538+0000017538+000000000+000002457+0000019995+0000000000+I40000019995+0000000000+Z
208492001208492464-000111     208492006001023114624GAME SKITTLES WOODEN   0000001000+00006139+00000+0001T   00006139+0000001505          1400 N64785               2AZ
208492002208492466-002096     208492006001023800398CATCHBALL VELCRO W/BALL0000001000+00005262+00000+0001T   00005262+0000001505          1400 N64785               2AZ
208492003208492079-014004     208492006003000080045ART+CRAFT JEWELRY ASSTD0000001000+00003507+00000+0001T   00003507+0000001505          1400 N64130               2AZ
208492004208492369-001138-D   208492006003000097623BABY BATH VINYL THEMED 0000001000+00002630+00000+0001T   00002630+0000001505          1400 N64745               2AZ
208493000208493               208493               170213N5     1400+00000+N50000014489+0000014489+000000000+000002029+0000016510+0000000008+I20000000000+0000016510+Z
208493001208493077-000310     208493006001023608635GIFT-BAG 18X23CM GLOSS 0000011000+00001314+00000+0001T   00001314+0000001506          1400 N64112               2AZ
208493002208493112-116038     208493006009681820246TCS CARRIER BAG MIDI   0000001000+00000035+00000+0001T   00000035+0000001506          1400 N64090               2AZ
208494000208494               208494               170213N5     1400+00000+N50000006186+0000006186+000000000+000000867+0000007050+0000000003+I20000000000+0000007050+Z
208494001208494368-000049     208494006003000536955PLUSH BEAR 15cm LOVE   0000001000+00004385+00000+0001T   00004385+0000001507          1400 N64745               2AZ
208494002208494077-000301     208494008010410010188BAG LRG 25X32CM B/DAY  0000001000+00001753+00000+0001T   00001753+0000001507          1400 N64112               2AZ
208494003208494112-116069     208494006009681820277TCS CARRIER BAG JUMBO  0000001000+00000048+00000+0001T   00000048+0000001507          1400 N64090               2AZ
208495000208495               208495               170213N5     1400+00000+N50000001578+0000001578+000000000+000000221+0000001790+0000000009+I20000000000+0000001790+Z
208495001208495018-000127     208495006001023380289MUG OCC STRAIGHT LOVE  0000001000+00001578+00000+0001T   00001753+0006471510          1400 N64515               2AZ
208496000208496               208496               170213N5     1400+00000+N50000002100+0000002100+000000000+000000294+0000002390+0000000004+I20000000000+0000002390+Z
208496001208496464-000121     208496006003000640492PLAYING CARDS MINI     0000003000+00000700+00000+0001T   00000700+0000001528          1400 N64785               2AZ
208497000208497               208497               170213N5     1400+00000+N50000001753+0000001753+000000000+000000246+0000001990+0000000009+I20000000000+0000001990+Z
208497001208497077-000382     208497006003000247820GIFT-BAG MED 18X23CM   0000001000+00001753+00000+0001T   00001753+0000001533          1400 N64112               2AZ
208498000208498               208498               170213N5     1400+00000+N50000007050+0000007050+000000000+000000988+0000008030+0000000008+I20000000000+0000008030+Z
208498001208498368-000104     208498006001023751348PLUSH BEAR RUFFLED-LOOK0000001000+00006139+00000+0001T   00006139+0000001536          1400 N64745               2AZ
208498002208498077-000011-E   208498006001023808646TISSUE-WRAP PINK 10PCE 0000001000+00000876+00000+0001T   00000876+0000001536          1400 N64112               2AZ
208498003208498112-116038     208498006009681820246TCS CARRIER BAG MIDI   0000001000+00000035+00000+0001T   00000035+0000001536          1400 N64090               2AZ
208499000208499               208499               170213N5     1400+00000+N50000001578+0000001578+000000000+000000221+0000001790+0000000009+I20000000000+0000001790+Z
208499001208499018-000127     208499006001023380289MUG OCC STRAIGHT LOVE  0000001000+00001578+00000+0001T   00001753+0006471542          1400 N64515               2AZ
208500000208500               208500               170213N5     1400+00000+N50000002805+0000002805+000000000+000000393+0000003190+0000000008+I20000000000+0000003190+Z
208500001208500266-001302     208500006001023331892MARBLES 16MM 45PC      0000001000+00001227+00000+0001T   00001227+0000001548          1400 N64710               2AZ
208500002208500266-001310     208500006003000616848BOYS PLAYSET MARBLES   0000001000+00001578+00000+0001T   00001578+0000001548          1400 N64710               2AZ
208501000208501               208501               170213N5     1400+00000+N50000004120+0000004120+000000000+000000578+0000004690+0000000008+I20000000000+0000004690+Z
208501001208501018-000129     208501006001023403353MUG OCC. LOVE V-SHAPE  0000001000+00002630+00000+0001T   00002630+0000001549          1400 N64515               2AZ
208501002208501077-000384     208501006003000275243G/BAG HOT STMP 18x23CM 0000001000+00001490+00000+0001T   00001490+0000001549          1400 N64112               2AZ
208502000208502               208502               170213N5     1400+00000+N50000004908+0000004908+000000000+000000688+0000005596+0000000000+I40000005596+0000000000+Z
208502001208502007-000160     208502006009685857286NOTE-BOOK A5 SHORTHAND 0000004000+00001227+00000+0001T   00001227+0000001551          1400 N64130               2AZ
208503000208503               208503               170213N5     1400+00000+N50000001753+0000001753+000000000+000000246+0000001990+0000000009+I20000000000+0000001990+Z
208503001208503903-000059     208503006002099001269SWT GS NOVELTY ALIEN VA0000001000+00001753+00000+0001T   00001753+0000001552          1400 N64150               2AZ
208504000208504               208504               170213N5     1400+00000+N50000002629+0000002629+000000000+000000369+0000002990+0000000008+I20000000000+0000002990+Z
208504001208504077-000381     208504006003000247707GIFT-BAG 25X32CM S/COL 0000001000+00001753+00000+0001T   00001753+0000001601          1400 N64112               2AZ
208504002208504077-000011-C   208504006001023808523TISSUE 10xSHTS RED     0000001000+00000876+00000+0001T   00000876+0000001601          1400 N64112               2AZ
208505000208505               208505               170213N5     1400+00000+N50000000035+0000000035+000000000+000000005+0000000040+0000000000+I20000000000+0000000040+Z
208505001208505112-116038     208505006009681820246TCS CARRIER BAG MIDI   0000001000+00000035+00000+0001T   00000035+0000001603          1400 N64090               2AZ
208506000208506               208506               170213N5     1400+00000+N50000004553+0000004553+000000000+000000638+0000005190+0000000001+I20000000000+0000005190+Z
208506001208506261-000121     208506006001023341600GUN-CAPS 8-SHOT CARD-9 0000004000+00000700+00000+0001T   00000700+0000001606          1400 N64710               2AZ
208506002208506080-000110     208506006003000237326CARD&ENVLPE BDAY-FUNNY 0000001000+00001753+00000+0001T   00001753+0000001606          1400 N64112               2AZ
208507000208507               208507               170213N5     1400+00000+N50000002630+0000002630+000000000+000000369+0000002990+0000000009+I20000000000+0000002990+Z
208507001208507106-001104     208507006003000364794WATER BOTTLE 600ml PL  0000001000+00002630+00000+0001T   00002630+0000001607          1400 N64210               2AZ
208508000208508               208508               170213N5     1400+00000+N50000004385+0000004385+000000000+000000614+0000004999+0000000000+I40000004999+0000000000+Z
208508001208508368-000049     208508006003000536955PLUSH BEAR 15cm LOVE   0000001000+00004385+00000+0001T   00004385+0000001613          1400 N64745               2AZ
208509000208509               208509               170213N5     1400+00000+N50000008805+0000008805+000000000+000001233+0000010038+0000000000+I40000010038+0000000000+Z
208509001208509368-000049     208509006003000536955PLUSH BEAR 15cm LOVE   0000002000+00004385+00000+0001T   00004385+0000001616          1400 N64745               2AZ
208509002208509112-116038     208509006009681820246TCS CARRIER BAG MIDI   0000001000+00000035+00000+0001T   00000035+0000001616          1400 N64090               2AZ
208510000208510               208510               170213N5     1400+00000+N50000007050+0000007050+000000000+000000988+0000008038+0000000000+I40000008038+0000000000+Z
208510001208510206-000620     208510006003000631797BACK SCRATCHER EXTEND  0000001000+00002630+00000+0001T   00002630+0000001708          1400 N64321               2AZ
208510002208510036-000501     208510006003000417407HOOK HANGER CHROME     0000001000+00004385+00000+0001T   00004385+0000001708          1400 N64212               2AZ
208510003208510112-116038     208510006009681820246TCS CARRIER BAG MIDI   0000001000+00000035+00000+0001T   00000035+0000001708          1400 N64090               2AZ
208511000208511               208511               170213N5     1400+00000+N50000017100+0000017100+000000000+000002396+0000019490+0000000006+I20000000000+0000019490+Z
208511001208511018-000170     208511006001023775528MUG OCC. LOVE 2PC MINI 0000001000+00002192+00000+0001T   00002192+0000001722          1400 N64515               2AZ
208511002208511368-000637     208511006001023874092PLUSH BEAR SLEEPING LOV0000001000+00011402+00000+0001T   00012279+0006471722          1400 N64745               2AZ
208511003208511077-000309     208511006001023608604GIFT-BAG 25X32CM GLOSS 0000002000+00001753+00000+0001T   00001753+0000001722          1400 N64112               2AZ
A17021300                                          09313495N5SLAVE 2                       EY92IC
A17021301                                          09583382N5SLAVE 2                       EY92IC
A17021302                                          10014678N5SLAVE 2                       EY92IC
A17021303                                          14281996N5SLAVE 2                       N642IC
A17021304                                          14532432N5SLAVE 2                       N642IC
A17021305                                          17262056N5SLAVE 2                       N642IC
M17021301                              7           N5LAST TILL SLIP NO 208511
M17021391                              CASH        N5SLAVE 2                       Z-REPORT No.   177TOTAL (Sales - Refunds)           5504.68       CASH TO BE BANKED                 2082.49       DEBIT CARDS                          0.00       CREDIT CARDS                      3422.19       Z-READING                         5504.68       AIRTIME DEBIT CARD SALES             0.00       AIRTIME CARD SALES                   0.00       OVERS/UNDERS                         0.00       AIRTIME CASH SALES                   0.00       GIFT CARDS                           0.00       GIFT CARD CASH SALES                 0.00       T O T A L  CASH PAYOUTS              0.00                                                                                                                                                                                                                                                                                                                                                      Z
M17021392                              CASH        N5ABSENT                                                                                                                                                                                          ANNUAL LEAVE                                                                                                                                                                                    DAY OFF                                                                                                                                                                                         COMMENTS                                                                                                                                                                                                                                                                                                                                                                                       Z
Y17021300                                          N500000000514606+000068
ZN517021320083 SLAVE 2      SALES DATA                     NEXT INVOICE NO.  208512 0177
F094813028-003601         1702101226570000061ICSLAVE 2
F094813065-005337         1702101226570000201ICSLAVE 2
F094813146-000402         1702101226570000101ICSLAVE 2
F094813146-000410         1702101226570000081ICSLAVE 2
F094813146-000432         1702101226570000031ICSLAVE 2
F094813263-000147         1702101226570000051ICSLAVE 2
F094813263-000800         1702101226570000051ICSLAVE 2
F094813264-000927         1702101226570000061ICSLAVE 2
F094813265-000316         1702101226570000121ICSLAVE 2
F094813265-006905         1702101226570000031ICSLAVE 2
F094813266-003014         1702101226570000021ICSLAVE 2
F094813301-001123         1702101226570000061ICSLAVE 2
F094813365-064009         1702101226570000101ICSLAVE 2
F094813466-000004         1702101226570000061ICSLAVE 2
F094813466-000005         1702101226570000121ICSLAVE 2
F094813466-000007         1702101226570000041ICSLAVE 2
F094813466-000584         1702101226570000121ICSLAVE 2
F094813466-006141         1702101226570000081ICSLAVE 2
F094813565-000081         1702101226570000121ICSLAVE 2
X N5 Slave 2 First invoice 208443 170213 Last invoice 208511 170213 Next invoice 208512 Total number of records 000000283 clbackup completed 20:08:12
