100001000100001               100001               170213N6     1400+00000+N60000005998+0000005998+000000000+000000840+0000006830+0000000008+I20000000000+0000006830+Z
100001001100001267-000182     100001006003000390274PUZZLE 24pc ASSTD      0000001000+00004385+00000+0001T   00004385+0000001408          1400 K15755               1AZ
100001002100001018-000127     100001006001023380289MUG OCC STRAIGHT LOVE  0000001000+00001578+00000+0001T   00001753+0006471408          1400 K15515               1AZ
100001003100001112-116038     100001006009681820246TCS CARRIER BAG MIDI   0000001000+00000035+00000+0001T   00000035+0000001408          1400 K15090               1AZ
100002000100002               100002               170213N6     1400+00000+N60000005908+0000005908+000000000+000000828+0000006736+0000000000+I40000006736+0000000000+Z
100002001100002018-005009     100002006001023725608MUG W/PLUSH-BEAR LOVE  0000001000+00003507+00000+0001T   00003507+0000001454          1400 K15515               1AZ
100002002100002903-000200     100002006009826020234SWT CHOC RP CHOCO 23G  0000001000+00000788+00000+0001T   00000788+0000001454          1400 K15150               1AZ
100002003100002018-000127     100002006001023380289MUG OCC STRAIGHT LOVE  0000001000+00001578+00000+0001T   00001753+0006471454          1400 K15515               1AZ
100002004100002112-116038     100002006009681820246TCS CARRIER BAG MIDI   0000001000+00000035+00000+0001T   00000035+0000001454          1400 K15090               1AZ
100003000100003               100003               170213N6     1400+00000+N60000008412+0000008412+000000000+000001180+0000009590+0000000002+I20000000000+0000009590+Z
100003001100003903-000194     100003006009826020616SWT CHOC RP LOLLY 25G  0000002000+00001314+00000+0001T   00001314+0000001549          1400 K15150               1AZ
100003002100003903-000200     100003006009826020234SWT CHOC RP CHOCO 23G  0000002000+00000788+00000+0001T   00000788+0000001549          1400 K15150               1AZ
100003003100003080-000124     100003006003000297733CARD & ENV VALENTINES  0000001000+00001578+00000+0001T   00001578+0000001549          1400 K15112               1AZ
100003004100003077-000270     100003006003000395453GIFT-BAG PPR JMB 33X45 0000001000+00002630+00000+0001T   00002630+0000001549          1400 K15112               1AZ
100004000100004               100004               170213N6     1400+00000+N60000005429+0000005429+000000000+000000763+0000006190+0000000002+I20000000000+0000006190+Z
100004001100004080-000114     100004006003000246472CARD&ENV LOVE-MUSICAL  0000001000+00001314+00000+0001T   00001753+0008151550          1400 K15112               1AZ
100004002100004903-000194     100004006009826020616SWT CHOC RP LOLLY 25G  0000001000+00001314+00000+0001T   00001314+0000001550          1400 K15150               1AZ
100004003100004903-000200     100004006009826020234SWT CHOC RP CHOCO 23G  0000002000+00000788+00000+0001T   00000788+0000001550          1400 K15150               1AZ
100004004100004903-000201     100004006009826020371SWT CHOC HEART 30g     0000001000+00000788+00000+0001T   00000788+0000001550          1400 K15150               1AZ
100004005100004080-000133     100004006003000535613CARD&ENV MINI ASTD DSGN0000001000+00000437+00000+0001T   00000437+0000001550          1400 K15112               1AZ
100005000100005               100005               170213N6     1400+00000+N60000003507+0000003507+000000000+000000491+0000003990+0000000008+I20000000000+0000003990+Z
100005001100005018-000136     100005006001023659026MUG OCC LOVE W/PLUSH   0000001000+00003507+00000+0001T   00003507+0000001645          1400 K15515               1AZ
100006000100006               100006               170213N6     1400+00000+N60000000876+0000000876+000000000+000000123+0000000990+0000000009+I20000000000+0000000990+Z
100006001100006077-000314     100006006003000181148GIFT-BAG 11X14CM MATT  0000001000+00000876+00000+0001T   00000876+0000001746          1400 K15112               1AZ
100007000100007               100007               170213N6     1400+00000+N60000026612+0000026612+000000000+000003731+0000030340+0000000003+I20000000000+0000030340+Z
100007001100007088-000052     100007006001023760401T/FRESHENER CISTERN BLK0000002000+00000876+00000+0001T   00000876+0000001750          1400 K15212               1AZ
100007002100007084-091590     100007006003000092864FOOT FILE 17cm         0000001000+00001753+00000+0001T   00001753+0000001750          1400 K15200               1AZ
100007003100007903-000892     100007008693029700420SWT NOVELTY CHOCO CREAM0000001000+00000788+00000+0001T   00000788+0000001750          1400 K15150               1AZ
100007004100007200-000003     100007006003000532360DISPOSABLE BAG 100PC   0000001000+00002630+00000+0001T   00002630+0000001750          1400 K15214               1AZ
100007005100007036-000615     100007004713928167880WASH-PEGS PL PCK-24    0000002000+00001753+00000+0001T   00001753+0000001750          1400 K15212               1AZ
100007006100007251-000041     100007006001023515889SEAL-TAPE BUFF 48mmx50m0000001000+00001227+00000+0001T   00001227+0000001750          1400 K15810               1AZ
100007007100007200-000200     100007006008766091144BAKING ALUM FOIL 2PCE  0000001000+00002192+00000+0001T   00002192+0000001750          1400 K15214               1AZ
100007008100007200-000010     100007006925406841061BAG ZIPPERSEAL 35PC    0000001000+00002192+00000+0001T   00002192+0000001750          1400 K15214               1AZ
100007009100007112-116069     100007006009681820277TCS CARRIER BAG JUMBO  0000001000+00000048+00000+0001T   00000048+0000001750          1400 K15090               1AZ
100007010100007200-003024     100007006001023657299REFUSE BAGS 20PCE BLACK0000001000+00001753+00000+0001T   00001753+0000001750          1400 K15214               1AZ
100007011100007466-006135     100007006001023669049GOLF-SET PLASTIC       0000001000+00008771+00000+0001T   00008771+0000001750          1400 K15785               1AZ
100008000100008               100008               170213N6     1400+00000+N60000006139+0000006139+000000000+000000860+0000006999+0000000000+I40000006999+0000000000+Z
100008001100008035-000001     100008006002596010566UMBRELLA LADIES W/MINI 0000001000+00006139+00000+0001T   00006139+0000001753          1400 K15205               1AZ
100009000100009               100009               170213N6     1400+00000+N60000002192+0000002192+000000000+000000307+0000002490+0000000009+I20000000000+0000002490+Z
100009001100009077-000309-A   100009006003000671007GIFT-BAG HOLOGRAM JMB  0000001000+00002192+00000+0001T   00002192+0000001755          1400 K15112               1AZ
100010000100010               100010               170213N6     1400+00000+N60000003506+0000003506+000000000+000000492+0000003990+0000000008+I20000000000+0000003990+Z
100010001100010200-000125     100010006001023459749CUTLERY-SET 10PCE   H&L0000001000+00000876+00000+0001T   00000876+0000001756          1400 K15214               1AZ
100010002100010200-000230     100010006008766126990BAKEPANS 5PC RND 23x3cm0000001000+00002630+00000+0001T   00002630+0000001756          1400 K15214               1AZ
109997000109997               109997               170213N6     1400+00000+N60000004254+0000004254+000000000+000000597+0000004850+0000000001+I20000000000+0000004850+Z
109997001109997366-007601     109997006003000655472DRESS UP MASK THEATRICA0000003000+00000876+00000+0001T   00000876+0000001100          1400 K15131               1AZ
109997002109997566-001234     109997006003000217793STICKERS LASER ASSTD   0000001000+00001578+00000+0001T   00001578+0000001100          1400 K15130               1AZ
109997003109997112-116069     109997006009681820277TCS CARRIER BAG JUMBO  0000001000+00000048+00000+0001T   00000048+0000001100          1400 K15090               1AZ
109998000109998               109998               170213N6     1400+00000+N60000007453+0000007453+000000000+000001044+0000008497+0000000000+I40000008497+0000000000+Z
109998001109998567-004962     109998009780636049093TYB G03 ENGLISH        0000001000+00002192+00000+0001T   00002192+0000001238          1400 K15757               1AZ
109998002109998567-004957     109998009780636049086TYB G02 ENGLISH        0000001000+00002192+00000+0001T   00002192+0000001238          1400 K15757               1AZ
109998003109998089-060027     109998006003000245871KEY-CHAIN HEART 6X6cm  0000001000+00003069+00000+0001T   00003069+0000001238          1400 K15205               1AZ
109999000109999               109999               170213N6     1400+00000+N60000001753+0000001753+000000000+000000246+0000001990+0000000009+I20000000000+0000001990+Z
109999001109999078-000480     109999006008741002332BOSTIK SHOE-REPAIR 25ml0000001000+00001753+00000+0001T   00001753+0000001324          1400 K15810               1AZ
A17021300                                          14053468N6SLAVE 1                       K152IC
A17021301                                          17582326N6SLAVE 1                       K152IC
A17021302                                          17595542N6SLAVE 1                       K152IC
M17021391                              CASH        N6SLAVE 1                       Z-REPORT No.   450TOTAL (Sales - Refunds)            934.82       CASH TO BE BANKED                  712.50       DEBIT CARDS                          0.00       CREDIT CARDS                       222.32       Z-READING                          934.82       AIRTIME DEBIT CARD SALES             0.00       AIRTIME CARD SALES                   0.00       OVERS/UNDERS                         0.00       AIRTIME CASH SALES                   0.00       GIFT CARDS                           0.00       GIFT CARD CASH SALES                 0.00       T O T A L  CASH PAYOUTS              0.00                                                                                                                                                                                                                                                                                                                                                      Z
M17021392                              CASH        N6ABSENT                                                                                                                                                                                          ANNUAL LEAVE                                                                                                                                                                                    DAY OFF                                                                                                                                                                                         COMMENTS                                                                                                                                                                                                                                                                                                                                                                                       Z
Y17021300                                          N600000000082039+000013
ZN617021320083 SLAVE 1      SALES DATA                     NEXT INVOICE NO.  100011 0450
X N6 Slave 1 First invoice 109997 170213 Last invoice 100010 170213 Next invoice 100011 Total number of records 000000060 clbackup completed 20:08:34
