201023000201023               201023               170213N6     1400+00000+N60000003507+0000003507+000000000+000000491+0000003990+0000000008+I20000000000+0000003990+Z
201023001201023077-000934     201023006003000409921G/WRAP 700mmx5m BIRTHDA0000001000+00003507+00000+0001T   00003507+0000000955          1400 HG1112               2AZ
201024000201024               201024               170213N6     1400+00000+N60000001753+0000001753+000000000+000000246+0000001990+0000000009+I20000000000+0000001990+Z
201024001201024006-000120     201024006001023346889BALLOONS 10PC MIX COL  0000001000+00001753+00000+0001T   00001753+0000001014          1400 HG1131               2AZ
201025000201025               201025               170213N6     1400+00000+N60000005297+0000005297+000000000+000000742+0000006039+0000000000+I40000006039+0000000000+Z
201025001201025006-000098     201025006003000601325PARTY PHOTO BOOTH 20PC 0000001000+00005262+00000+0001T   00005262+0000001019          1400 HG1131               2AZ
201025002201025112-116038     201025006009681820246TCS CARRIER BAG MIDI   0000001000+00000035+00000+0001T   00000035+0000001019          1400 HG1090               2AZ
201026000201026               201026               170213N6     1400+00000+N60000001490+0000001490+000000000+000000209+0000001690+0000000009+I20000000000+0000001690+Z
201026001201026071-000873     201026006001023758743RUB-BANDS CLR BAG-100  0000001000+00001490+00000+0001T   00001490+0000001030          1400 HG1130               2AZ
201027000201027               201027               170213N6     1400+00000+N60000006873+0000006873+000000000+000000963+0000007830+0000000006+I20000000000+0000007830+Z
201027001201027251-000002     201027006003000093991TAPE D-SIDED 24x1000mm 0000002000+00002192+00000+0001T   00002192+0000001040          1400 HG1810               2AZ
201027002201027903-000510     201027006001704012621SWEET MS ZBDZ S/BERRY  0000002000+00001227+00000+0001T   00001227+0000001040          1400 HG1150               2AZ
201027003201027112-116038     201027006009681820246TCS CARRIER BAG MIDI   0000001000+00000035+00000+0001T   00000035+0000001040          1400 HG1090               2AZ
201028000201028               201028               170213N6     1400+00000+N60000000700+0000000700+000000000+000000098+0000000790+0000000008+I20000000000+0000000790+Z
201028001201028018-000177     201028006001023797513MUG MINI LOVE ASSTD    0000001000+00000700+00000+0001T   00000700+0000001042          1400 HG1515               2AZ
201029000201029               201029               170213N6     1400+00000+N60000001139+0000001139+000000000+000000160+0000001290+0000000009+I20000000000+0000001290+Z
201029001201029046-000014     201029006001023725387BATTERIES SIZE:AAA 4PCE0000001000+00001139+00000+0001T   00001139+0000001044          1400 HG1312               2AZ
201030000201030               201030               170213N6     1400+00000+N60000002192+0000002192+000000000+000000307+0000002490+0000000009+I20000000000+0000002490+Z
201030001201030077-000922     201030006003000413935G/WRAP 700mmx2m FLOWER 0000001000+00002192+00000+0001T   00002192+0000001113          1400 HG1112               2AZ
201031000201031               201031               170213N6     1400+00000+N60000010521+0000010521+000000000+000001473+0000011990+0000000004+I20000000000+0000011990+Z
201031001201031365-005267     201031006001023584366P/SET KITCHEN BAKING PL0000003000+00003507+00000+0001T   00003507+0000001143          1400 HG1725               2AZ
201032000201032               201032               170213N6     1400+00000+N60000002192+0000002192+000000000+000000307+0000002490+0000000009+I20000000000+0000002490+Z
201032001201032206-000580     201032006003000633586DOOR STOPPER STOP 12CM 0000001000+00002192+00000+0001T   00002192+0000001144          1400 HG1321               2AZ
201033000201033               201033               170213N6     1400+00000+N60000009252+0000009252+000000000+000001297+0000010549+0000000000+I40000010549+0000000000+Z
201033001201033077-000310     201033006001023608635GIFT-BAG 18X23CM GLOSS 0000001000+00001314+00000+0001T   00001314+0000001157          1400 HG1112               2AZ
201033002201033365-000027     201033006001023786852P/SET TEA-SET PL 9PCS  0000001000+00003946+00000+0001T   00003946+0000001157          1400 HG1725               2AZ
201033003201033034-091300     201033006003000683598COOEY BABY SHAMPOO JUG 0000001000+00002630+00000+0001T   00002630+0000001157          1400 HG1215               2AZ
201033004201033903-005000     201033006002580020007SWT CT MALLOW FISH 120g0000001000+00001314+00000+0001T   00001314+0000001157          1400 HG1150               2AZ
201033005201033112-116069     201033006009681820277TCS CARRIER BAG JUMBO  0000001000+00000048+00000+0001T   00000048+0000001157          1400 HG1090               2AZ
201034000201034               201034               170213N6     1400+00000+N60000003506+0000003506+000000000+000000492+0000003990+0000000008+I20000000000+0000003990+Z
201034001201034080-000105     201034006003000236237CARD & ENVELOPE BDAY   0000001000+00001753+00000+0001T   00001753+0000001209          1400 HG1112               2AZ
201034002201034080-000111     201034006003000252695CARD&ENVELPE - MUSICAL 0000001000+00001753+00000+0001T   00001753+0000001209          1400 HG1112               2AZ
201035000201035               201035               170213N6     1400+00000+N60000000876+0000000876+000000000+000000123+0000000990+0000000009+I20000000000+0000000990+Z
201035001201035077-000314     201035006003000181148GIFT-BAG 11X14CM MATT  0000001000+00000876+00000+0001T   00000876+0000001238          1400 HG1112               2AZ
201036000201036               201036               170213N6     1400+00000+N60000008149+0000008149+000000000+000001142+0000009290+0000000001+I20000000000+0000009290+Z
201036001201036077-000310     201036006001023608635GIFT-BAG 18X23CM GLOSS 0000001000+00001314+00000+0001T   00001314+0000001306          1400 HG1112               2AZ
201036002201036080-000114     201036006003000246472CARD&ENV LOVE-MUSICAL  0000001000+00001314+00000+0001T   00001753+0008151306          1400 HG1112               2AZ
201036003201036903-000155     201036006009803374435SWT LOLLY I LUV U HEART0000001000+00000525+00000+0001T   00000525+0000001306          1400 HG1150               2AZ
201036004201036903-000194     201036006009826020616SWT CHOC RP LOLLY 25G  0000001000+00001314+00000+0001T   00001314+0000001306          1400 HG1150               2AZ
201036005201036018-000127     201036006001023380289MUG OCC STRAIGHT LOVE  0000001000+00001578+00000+0001T   00001753+0006471306          1400 HG1515               2AZ
201036006201036903-000095     201036006001704011495SWT SPECKLED-EGGS 100G 0000001000+00002104+00000+0001T   00002104+0000001306          1400 HG1150               2AZ
201037000201037               201037               170213N6     1400+00000+N60000001490+0000001490+000000000+000000209+0000001690+0000000009+I20000000000+0000001690+Z
201037001201037002-021064     201037006001023822246TOOTHPICKS IN-HOLDER   0000001000+00001490+00000+0001T   00001490+0000001310          1400 HG1300               2AZ
201038000201038               201038               170213N6     1400+00000+N60000002630+0000002630+000000000+000000369+0000002990+0000000009+I20000000000+0000002990+Z
201038001201038079-000254     201038006002923016407ART APRON ASSTD        0000001000+00002630+00000+0001T   00002630+0000001355          1400 HG1130               2AZ
201039000201039               201039               170213N6     1400+00000+N60000008771+0000008771+000000000+000001228+0000009990+0000000009+I20000000000+0000009990+Z
201039001201039001-091415     201039006003000329113W/GLS OCC. LOVE 2PC 2800000001000+00008771+00000+0001T   00009648+0006471404          1400 HG1515               2AZ
201040000201040               201040               170213N6     1400+00000+N60000004943+0000004943+000000000+000000693+0000005636+0000000000+I40000005636+0000000000+Z
201040001201040007-000206     201040006009635830215X/PAD 80-SHEETS PUNCHED0000004000+00001227+00000+0001T   00001227+0000001414          1400 HG1130               2AZ
201040002201040112-116038     201040006009681820246TCS CARRIER BAG MIDI   0000001000+00000035+00000+0001T   00000035+0000001414          1400 HG1090               2AZ
201041000201041               201041               170213N6     1400+00000+N60000006224+0000006224+000000000+000000872+0000007096+0000000000+I40000007096+0000000000+Z
201041001201041018-030000     201041006003000421060MUG OCCASIONS LOVE 2PCE0000001000+00004385+00000+0001T   00004385+0000001417          1400 HG1515               2AZ
201041002201041903-000155     201041006009803374435SWT LOLLY I LUV U HEART0000001000+00000525+00000+0001T   00000525+0000001417          1400 HG1150               2AZ
201041003201041077-000310     201041006001023608635GIFT-BAG 18X23CM GLOSS 0000001000+00001314+00000+0001T   00001314+0000001417          1400 HG1112               2AZ
201042000201042               201042               170213N6     1400+00000+N60000011818+0000011818+000000000+000001657+0000013470+0000000005+I20000000000+0000013470+Z
201042001201042261-003821     201042006003000398713GUN HAND COWBOY PLAYSET0000001000+00006139+00000+0001T   00006139+0000001418          1400 HG1710               2AZ
201042002201042565-000500     201042006003000636792NOVELTY CUSHION        0000001000+00001753+00000+0001T   00001753+0000001418          1400 HG1745               2AZ
201042003201042564-000025     201042006003000617104BUBBLE NOVELTY         0000001000+00001753+00000+0001T   00001753+0000001418          1400 HG1131               2AZ
201042004201042903-000095     201042006001704011495SWT SPECKLED-EGGS 100G 0000001000+00002104+00000+0001T   00002104+0000001418          1400 HG1150               2AZ
201042005201042112-116053     201042006006438002399TCS CARRIER BAG 38L    0000001000+00000069+00000+0001T   00000069+0000001418          1400 HG1090               2AZ
201043000201043               201043               170213N6     1400+00000+N60000002630+0000002630+000000000+000000369+0000002990+0000000009+I20000000000+0000002990+Z
201043001201043567-075699     201043006003000428168BK NOVEL CATEGORY A    0000001000+00002630+00000+0001T   00003069+0008191430          1400 HG1757               2AZ
201044000201044               201044               170213N6     1400+00000+N60000000788+0000000788+000000000+000000111+0000000890+0000000009+I20000000000+0000000890+Z
201044001201044033-005991     201044006001023678546NEEDLES H/HOLD-REPAIR  0000001000+00000788+00000+0001T   00000788+0000001434          1400 HG1200               2AZ
201045000201045               201045               170213N6     1400+00000+N60000026263+0000026263+000000000+000003680+0000029940+0000000003+I20000000000+0000029940+Z
201045001201045565-000071     201045006003000643387NOVELTY WIND UP CHATTER0000001000+00001139+00000+0001T   00001139+0000001525          1400 HG1745               2AZ
201045002201045004-071206     201045006003000605156USB CABLE CHARGER      0000001000+00003507+00000+0001T   00003507+0000001525          1400 HG1310               2AZ
201045003201045368-000160     201045006003000208579PLUSH MAD HATTER RABBIT0000001000+00010525+00000+0001T   00010525+0000001525          1400 HG1745               2AZ
201045004201045566-000066     201045006003000283675STICKERS GLITTER 25PCS 0000002000+00001753+00000+0001T   00001753+0000001525          1400 HG1130               2AZ
201045005201045566-001234     201045006003000217793STICKERS LASER ASSTD   0000002000+00001578+00000+0001T   00001578+0000001525          1400 HG1130               2AZ
201045006201045566-000950     201045006003000216048STICKERS 3 STYLES 100PC0000001000+00002192+00000+0001T   00002192+0000001525          1400 HG1130               2AZ
201045007201045112-116069     201045006009681820277TCS CARRIER BAG JUMBO  0000001000+00000048+00000+0001T   00000048+0000001525          1400 HG1090               2AZ
201045008201045564-000030     201045006001023897022BUBBLE NOVELTY BOTTLE  0000001000+00000876+00000+0001T   00000876+0000001525          1400 HG1131               2AZ
201045009201045903-005000     201045006002580020007SWT CT MALLOW FISH 120g0000001000+00001314+00000+0001T   00001314+0000001525          1400 HG1150               2AZ
201046000201046               201046               170213N6     1400+00000+N60000004420+0000004420+000000000+000000619+0000005039+0000000000+I40000005039+0000000000+Z
201046001201046267-000182     201046006003000390274PUZZLE 24pc ASSTD      0000001000+00004385+00000+0001T   00004385+0000001532          1400 HG1755               2AZ
201046002201046112-116038     201046006009681820246TCS CARRIER BAG MIDI   0000001000+00000035+00000+0001T   00000035+0000001532          1400 HG1090               2AZ
201047000201047               201047               170213N6     1400+00000+N60000001314+0000001314+000000000+000000184+0000001490+0000000008+I20000000000+0000001490+Z
201047001201047080-000114     201047006003000246472CARD&ENV LOVE-MUSICAL  0000001000+00001314+00000+0001T   00001753+0008151539          1400 HG1112               2AZ
201048000201048               201048               170213N6     1400+00000+N60000013795+0000013795+000000000+000001933+0000015728+0000000000+I40000015728+0000000000+Z
201048001201048018-000119     201048006003000336074MUG DAILY STRAIGHT     0000001000+00001314+00000+0001T   00001753+0008171545          1400 HG1515               2AZ
201048002201048301-085006     201048006001023502940ORN LOVE MSG TUBE W/HRT0000001000+00001753+00000+0001T   00001753+0000001545          1400 HG1505               2AZ
201048003201048903-000194     201048006009826020616SWT CHOC RP LOLLY 25G  0000001000+00001314+00000+0001T   00001314+0000001545          1400 HG1150               2AZ
201048004201048077-000310     201048006001023608635GIFT-BAG 18X23CM GLOSS 0000001000+00001314+00000+0001T   00001314+0000001545          1400 HG1112               2AZ
201048005201048368-000049     201048006003000536955PLUSH BEAR 15cm LOVE   0000001000+00004385+00000+0001T   00004385+0000001545          1400 HG1745               2AZ
201048006201048903-000201     201048006009826020371SWT CHOC HEART 30g     0000001000+00000788+00000+0001T   00000788+0000001545          1400 HG1150               2AZ
201048007201048566-001234     201048006003000217793STICKERS LASER ASSTD   0000001000+00001578+00000+0001T   00001578+0000001545          1400 HG1130               2AZ
201048008201048077-000310     201048006001023608635GIFT-BAG 18X23CM GLOSS 0000001000+00001314+00000+0001T   00001314+0000001545          1400 HG1112               2AZ
201048009201048112-116038     201048006009681820246TCS CARRIER BAG MIDI   0000001000+00000035+00000+0001T   00000035+0000001545          1400 HG1090               2AZ
201049000201049               201049               170213N6     1400+00000+N60000008100+0000008100+000000000+000001135+0000009230+0000000005+I20000000000+0000009230+Z
201049001201049018-000127     201049006001023380289MUG OCC STRAIGHT LOVE  0000004000+00001578+00000+0001T   00001753+0006471551          1400 HG1515               2AZ
201049002201049112-116038     201049006009681820246TCS CARRIER BAG MIDI   0000001000+00000035+00000+0001T   00000035+0000001551          1400 HG1090               2AZ
201049003201049079-000012     201049006001023655332P/CRAYONS 12-COL LONG  0000001000+00001753+00000+0001T   00001753+0000001551          1400 HG1130               2AZ
201050000201050               201050               170213N6     1400+00000+N60000003506+0000003506+000000000+000000492+0000003990+0000000008+I20000000000+0000003990+Z
201050001201050466-008889     201050006001023835376WHISTLE SPORTS+STRING  0000002000+00001753+00000+0001T   00001753+0000001551          1400 HG1785               2AZ
201051000201051               201051               170213N6     1400+00000+N60000026950+0000026950+000000000+000003777+0000030727+0000000000+I40000030727+0000000000+Z
201051001201051018-000136     201051006001023659026MUG OCC LOVE W/PLUSH   0000001000+00003507+00000+0001T   00003507+0000001558          1400 HG1515               2AZ
201051002201051565-000055     201051006003000028252NOVELTY B/O FINGR-BEAMS0000001000+00001753+00000+0001T   00001753+0000001558          1400 HG1745               2AZ
201051003201051903-000155     201051006009803374435SWT LOLLY I LUV U HEART0000001000+00000525+00000+0001T   00000525+0000001558          1400 HG1150               2AZ
201051004201051903-000844     201051005010478432567SWT CANDY DL LUV HEARTS0000001000+00001314+00000+0001T   00001314+0000001558          1400 HG1150               2AZ
201051005201051080-000133     201051006003000535613CARD&ENV MINI ASTD DSGN0000001000+00000437+00000+0001T   00000437+0000001558          1400 HG1112               2AZ
201051006201051903-000155     201051006009803374435SWT LOLLY I LUV U HEART0000001000+00000525+00000+0001T   00000525+0000001558          1400 HG1150               2AZ
201051007201051903-000844     201051005010478432567SWT CANDY DL LUV HEARTS0000001000+00001314+00000+0001T   00001314+0000001558          1400 HG1150               2AZ
201051008201051112-116038     201051006009681820246TCS CARRIER BAG MIDI   0000001000+00000035+00000+0001T   00000035+0000001558          1400 HG1090               2AZ
201051009201051469-003001     201051006003000541560BUILDING BLOCKS VEHICLE0000001000+00001753+00000+0001T   00001753+0000001558          1400 HG1755               2AZ
201051010201051065-003639     201051006001023787620GUITAR ROCKER          0000001000+00007016+00000+0001T   00007016+0000001558          1400 HG1745               2AZ
201051011201051368-000665     201051006003000169016PLUSH BEAR 30cm        0000001000+00008771+00000+0001T   00008771+0000001558          1400 HG1745               2AZ
201052000201052               201052               170213N6     1400+00000+N60000008592+0000008592+000000000+000001204+0000009790+0000000006+I20000000000+0000009790+Z
201052001201052007-000602     201052006003000541270BOOK COVER 2M SOLID COL0000001000+00002630+00000+0001T   00002630+0000001604          1400 HG1130               2AZ
201052002201052077-000303     201052006001023593757GIFT-BAG PAPER MED     0000001000+00001578+00000+0001T   00001578+0000001604          1400 HG1112               2AZ
201052003201052080-000127     201052006003000424351VALENTINES DAY 36x24CM 0000002000+00002192+00000+0001T   00002192+0000001604          1400 HG1112               2AZ
201053000201053               201053               170213N6     1400+00000+N60000009819+0000009819+000000000+000001376+0000011195+0000000000+I40000011195+0000000000+Z
201053001201053077-000318     201053006001023609755GIFT-BAG 18X23CM E/D AN0000001000+00001227+00000+0001T   00001227+0000001610          1400 HG1112               2AZ
201053002201053077-000302     201053008010410010195GIFT-BAG 18X23CM E/D   0000002000+00000876+00000+0001T   00000876+0000001610          1400 HG1112               2AZ
201053003201053018-019000     201053006003000557288MUG OCC. LOVE JUMBO    0000001000+00005262+00000+0001T   00005262+0000001610          1400 HG1515               2AZ
201053004201053018-000127     201053006001023380289MUG OCC STRAIGHT LOVE  0000001000+00001578+00000+0001T   00001753+0006471610          1400 HG1515               2AZ
201054000201054               201054               170213N6     1400+00000+N60000004207+0000004207+000000000+000000589+0000004790+0000000006+I20000000000+0000004790+Z
201054001201054007-000325     201054006009698066514PAPER A4 160GSM 25SHTS 0000001000+00003507+00000+0001T   00003507+0000001611          1400 HG1130               2AZ
201054002201054903-000120     201054006002099001665SWEET GS ZILLIONS 50g  0000001000+00000700+00000+0001T   00000700+0000001611          1400 HG1150               2AZ
201055000201055               201055               170213N6     1400+00000+N60000003507+0000003507+000000000+000000491+0000003990+0000000008+I20000000000+0000003990+Z
201055001201055018-005009     201055006001023725608MUG W/PLUSH-BEAR LOVE  0000001000+00003507+00000+0001T   00003507+0000001611          1400 HG1515               2AZ
201056000201056               201056               170213N6     1400+00000+N60000004470+0000004470+000000000+000000626+0000005090+0000000006+I20000000000+0000005090+Z
201056001201056018-000127     201056006001023380289MUG OCC STRAIGHT LOVE  0000002000+00001578+00000+0001T   00001753+0006471612          1400 HG1515               2AZ
201056002201056077-000310     201056006001023608635GIFT-BAG 18X23CM GLOSS 0000001000+00001314+00000+0001T   00001314+0000001612          1400 HG1112               2AZ
201057000201057               201057               170213N6     1400+00000+N60000000035+0000000035+000000000+000000005+0000000040+0000000000+I20000000000+0000000040+Z
201057001201057112-116038     201057006009681820246TCS CARRIER BAG MIDI   0000001000+00000035+00000+0001T   00000035+0000001613          1400 HG1090               2AZ
201058000201058               201058               170213N6     1400+00000+N60000003507+0000003507+000000000+000000491+0000003990+0000000008+I20000000000+0000003990+Z
201058001201058567-011484     201058006003000663491BK COLOURING 96P HELLO 0000001000+00003507+00000+0001T   00003507+0000001614          1400 HG1757               2AZ
201059000201059               201059               170213N6     1400+00000+N60000007049+0000007049+000000000+000000987+0000008030+0000000006+I20000000000+0000008030+Z
201059001201059112-116038     201059006009681820246TCS CARRIER BAG MIDI   0000001000+00000035+00000+0001T   00000035+0000001615          1400 HG1090               2AZ
201059002201059018-000136     201059006001023659026MUG OCC LOVE W/PLUSH   0000002000+00003507+00000+0001T   00003507+0000001615          1400 HG1515               2AZ
201060000201060               201060               170213N6     1400+00000+N60000003980+0000003980+000000000+000000558+0000004530+0000000008+I20000000000+0000004530+Z
201060001201060566-000031     201060006003000283910STICKER BK TEACHER STIC0000001000+00002192+00000+0001T   00002192+0000001621          1400 HG1130               2AZ
201060002201060566-000007     201060006001023761187S/BOOK SUPER VALUE     0000001000+00001753+00000+0001T   00001753+0000001621          1400 HG1130               2AZ
201060003201060112-116038     201060006009681820246TCS CARRIER BAG MIDI   0000001000+00000035+00000+0001T   00000035+0000001621          1400 HG1090               2AZ
201061000201061               201061               170213N6     1400+00000+N60000007050+0000007050+000000000+000000988+0000008030+0000000008+I20000000000+0000008030+Z
201061001201061018-019000     201061006003000557288MUG OCC. LOVE JUMBO    0000001000+00005262+00000+0001T   00005262+0000001624          1400 HG1515               2AZ
201061002201061112-116038     201061006009681820246TCS CARRIER BAG MIDI   0000001000+00000035+00000+0001T   00000035+0000001624          1400 HG1090               2AZ
201061003201061077-000382     201061006003000247820GIFT-BAG MED 18X23CM   0000001000+00001753+00000+0001T   00001753+0000001624          1400 HG1112               2AZ
201062000201062               201062               170213N6     1400+00000+N60000001753+0000001753+000000000+000000246+0000001990+0000000009+I20000000000+0000001990+Z
201062001201062007-000723     201062006003000226078MEMO BOOK W/PEN 100SHTS0000001000+00001753+00000+0001T   00001753+0000001628          1400 HG1130               2AZ
201063000201063               201063               170213N6     1400+00000+N60000001227+0000001227+000000000+000000172+0000001390+0000000009+I20000000000+0000001390+Z
201063001201063903-000504     201063006001704012416SWT CHOC JELLY BEANS   0000001000+00001227+00000+0001T   00001227+0000001628          1400 HG1150               2AZ
201064000201064               201064               170213N6     1400+00000+N60000001753+0000001753+000000000+000000246+0000001990+0000000009+I20000000000+0000001990+Z
201064001201064077-000308     201064006001023595812GIFT-BAG 33X45CM E/DAY 0000001000+00001753+00000+0001T   00001753+0000001632          1400 HG1112               2AZ
201065000201065               201065               170213N6     1400+00000+N60000001578+0000001578+000000000+000000221+0000001790+0000000009+I20000000000+0000001790+Z
201065001201065565-000052     201065006003000615551NOVELTY PUTTY FARTS    0000001000+00001578+00000+0001T   00001578+0000001633          1400 HG1745               2AZ
201066000201066               201066               170213N6     1400+00000+N60000003507+0000003507+000000000+000000491+0000003998+0000000000+I40000003998+0000000000+Z
201066001201066562-000020     201066006003000600861EDU PLAY DOUGH 60g 4PC 0000001000+00003507+00000+0001T   00003507+0000001639          1400 HG1755               2AZ
201067000201067               201067               170213N6     1400+00000+N60000001525+0000001525+000000000+000000214+0000001730+0000000009+I20000000000+0000001730+Z
201067001201067077-000305     201067006003000395422GIFT-BAG WINE 10X35CM  0000001000+00001490+00000+0001T   00001490+0000001641          1400 HG1112               2AZ
201067002201067112-116038     201067006009681820246TCS CARRIER BAG MIDI   0000001000+00000035+00000+0001T   00000035+0000001641          1400 HG1090               2AZ
201068000201068               201068               170213N6     1400+00000+N60000002487+0000002487+000000000+000000349+0000002830+0000000006+I20000000000+0000002830+Z
201068001201068112-116038     201068006009681820246TCS CARRIER BAG MIDI   0000001000+00000035+00000+0001T   00000035+0000001642          1400 HG1090               2AZ
201068002201068304-001011     201068006001023806727FLWR ROSE RED W/BEAR   0000004000+00000613+00000+0001T   00000788+0006471642          1400 HG1510               2AZ
201069000201069               201069               170213N6     1400+00000+N60000001226+0000001226+000000000+000000172+0000001390+0000000008+I20000000000+0000001390+Z
201069001201069304-001011     201069006001023806727FLWR ROSE RED W/BEAR   0000002000+00000613+00000+0001T   00000788+0006471643          1400 HG1510               2AZ
201070000201070               201070               170213N6     1400+00000+N60000000876+0000000876+000000000+000000123+0000000990+0000000009+I20000000000+0000000990+Z
201070001201070076-000017     201070006001811010022TWINE COTTON 50g-BALL  0000001000+00000876+00000+0001T   00000876+0000001643          1400 HG1810               2AZ
201071000201071               201071               170213N6     1400+00000+N60000007048+0000007048+000000000+000000988+0000008030+0000000006+I20000000000+0000008030+Z
201071001201071112-116038     201071006009681820246TCS CARRIER BAG MIDI   0000001000+00000035+00000+0001T   00000035+0000001645          1400 HG1090               2AZ
201071002201071018-000136     201071006001023659026MUG OCC LOVE W/PLUSH   0000001000+00003507+00000+0001T   00003507+0000001645          1400 HG1515               2AZ
201071003201071301-085006     201071006001023502940ORN LOVE MSG TUBE W/HRT0000001000+00001753+00000+0001T   00001753+0000001645          1400 HG1505               2AZ
201071004201071077-000309     201071006001023608604GIFT-BAG 25X32CM GLOSS 0000001000+00001753+00000+0001T   00001753+0000001645          1400 HG1112               2AZ
201072000201072               201072               170213N6     1400+00000+N60000005085+0000005085+000000000+000000712+0000005790+0000000007+I20000000000+0000005790+Z
201072001201072018-005009     201072006001023725608MUG W/PLUSH-BEAR LOVE  0000001000+00003507+00000+0001T   00003507+0000001649          1400 HG1515               2AZ
201072002201072077-000303     201072006001023593757GIFT-BAG PAPER MED     0000001000+00001578+00000+0001T   00001578+0000001649          1400 HG1112               2AZ
201073000201073               201073               170213N6     1400+00000+N60000004153+0000004153+000000000+000000582+0000004730+0000000005+I20000000000+0000004730+Z
201073001201073112-116038     201073006009681820246TCS CARRIER BAG MIDI   0000001000+00000035+00000+0001T   00000035+0000001650          1400 HG1090               2AZ
201073002201073077-000310     201073006001023608635GIFT-BAG 18X23CM GLOSS 0000002000+00001314+00000+0001T   00001314+0000001650          1400 HG1112               2AZ
201073003201073077-000327     201073006001023677686GIFT-BAG 25X32CM E/D BA0000001000+00001490+00000+0001T   00001490+0000001650          1400 HG1112               2AZ
201074000201074               201074               170213N6     1400+00000+N60000001753+0000001753+000000000+000000246+0000001990+0000000009+I20000000000+0000001990+Z
201074001201074039-001023     201074006003000466337CANDLE TEA-LITE METALIC0000001000+00001753+00000+0001T   00001753+0000001652          1400 HG1510               2AZ
201075000201075               201075               170213N6     1400+00000+N60000002630+0000002630+000000000+000000369+0000002990+0000000009+I20000000000+0000002990+Z
201075001201075206-000620     201075006003000631797BACK SCRATCHER EXTEND  0000001000+00002630+00000+0001T   00002630+0000001656          1400 HG1321               2AZ
201076000201076               201076               170213N6     1400+00000+N60000006574+0000006574+000000000+000000921+0000007490+0000000005+I20000000000+0000007490+Z
201076001201076040-100035     201076006001023871589OIL-BURNER-SET 3PCE    0000001000+00003507+00000+0001T   00003507+0000001709          1400 HG1510               2AZ
201076002201076088-000108     201076006001023765536POTPOURRI-OIL 10ml ASST0000001000+00001753+00000+0001T   00001753+0000001709          1400 HG1212               2AZ
201076003201076306-000524     201076006003000571215TOOTHBRUSH ADULT       0000001000+00001314+00000+0001T   00001314+0000001709          1400 HG1200               2AZ
201077000201077               201077               170213N6     1400+00000+N60000003507+0000003507+000000000+000000491+0000003990+0000000008+I20000000000+0000003990+Z
201077001201077018-000136     201077006001023659026MUG OCC LOVE W/PLUSH   0000001000+00003507+00000+0001T   00003507+0000001709          1400 HG1515               2AZ
201078000201078               201078               170213N6     1400+00000+N60000002716+0000002716+000000000+000000381+0000003090+0000000007+I20000000000+0000003090+Z
201078001201078077-000310     201078006001023608635GIFT-BAG 18X23CM GLOSS 0000001000+00001314+00000+0001T   00001314+0000001714          1400 HG1112               2AZ
201078002201078304-001204     201078006001023737984FLOWER OCC. TEDDY/ROSES0000001000+00001402+00000+0001T   00001490+0006471714          1400 HG1510               2AZ
201079000201079               201079               170213N6     1400+00000+N60000002628+0000002628+000000000+000000368+0000002990+0000000006+I20000000000+0000002990+Z
201079001201079033-005906-B   201079006001023727848S/LACES RND 90cm ASSTD 0000002000+00001314+00000+0001T   00001314+0000001723          1400 HG1200               2AZ
201080000201080               201080               170213N6     1400+00000+N60000000437+0000000437+000000000+000000062+0000000490+0000000009+I20000000000+0000000490+Z
201080001201080080-000133     201080006003000535613CARD&ENV MINI ASTD DSGN0000001000+00000437+00000+0001T   00000437+0000001733          1400 HG1112               2AZ
201081000201081               201081               170213N6     1400+00000+N60000021074+0000021074+000000000+000002955+0000024029+0000000000+I40000024029+0000000000+Z
201081001201081030-000007     201081006001023527325PLAQUE WDN B/BOARD ASST0000001000+00002630+00000+0001T   00002630+0000001737          1400 HG1505               2AZ
201081002201081368-000175     201081006003000270316PLUSH BEAR 4 ASSTD 18CM0000001000+00006139+00000+0001T   00006139+0000001737          1400 HG1745               2AZ
201081003201081077-000303     201081006001023593757GIFT-BAG PAPER MED     0000001000+00001578+00000+0001T   00001578+0000001737          1400 HG1112               2AZ
201081004201081077-000311     201081006001023608666GIFT-BAG 11X14CM GLOSS 0000001000+00000613+00000+0001T   00000613+0000001737          1400 HG1112               2AZ
201081005201081368-000104     201081006001023751348PLUSH BEAR RUFFLED-LOOK0000001000+00006139+00000+0001T   00006139+0000001737          1400 HG1745               2AZ
201081006201081903-000155     201081006009803374435SWT LOLLY I LUV U HEART0000001000+00000525+00000+0001T   00000525+0000001737          1400 HG1150               2AZ
201081007201081903-000201     201081006009826020371SWT CHOC HEART 30g     0000001000+00000788+00000+0001T   00000788+0000001737          1400 HG1150               2AZ
201081008201081903-000155     201081006009803374435SWT LOLLY I LUV U HEART0000001000+00000525+00000+0001T   00000525+0000001737          1400 HG1150               2AZ
201081009201081903-000201     201081006009826020371SWT CHOC HEART 30g     0000001000+00000788+00000+0001T   00000788+0000001737          1400 HG1150               2AZ
201081010201081112-116038     201081006009681820246TCS CARRIER BAG MIDI   0000001000+00000035+00000+0001T   00000035+0000001737          1400 HG1090               2AZ
201081011201081077-000310     201081006001023608635GIFT-BAG 18X23CM GLOSS 0000001000+00001314+00000+0001T   00001314+0000001737          1400 HG1112               2AZ
201082000201082               201082               170213N6     1400+00000+N60000002927+0000002927+000000000+000000410+0000003330+0000000007+I20000000000+0000003330+Z
201082001201082080-000114     201082006003000246472CARD&ENV LOVE-MUSICAL  0000001000+00001314+00000+0001T   00001753+0008151738          1400 HG1112               2AZ
201082002201082566-001234     201082006003000217793STICKERS LASER ASSTD   0000001000+00001578+00000+0001T   00001578+0000001738          1400 HG1130               2AZ
201082003201082112-116038     201082006009681820246TCS CARRIER BAG MIDI   0000001000+00000035+00000+0001T   00000035+0000001738          1400 HG1090               2AZ
201083000201083               201083               170213N6     1400+00000+N60000003977+0000003977+000000000+000000557+0000004534+0000000000+I40000004534+0000000000+Z
201083001201083584-002041     201083006003000241934ASSORTED CARTOON DVD   0000003000+00001314+00000+0001T   00001314+0000001743          1400 HG1310               2AZ
201083002201083112-116038     201083006009681820246TCS CARRIER BAG MIDI   0000001000+00000035+00000+0001T   00000035+0000001743          1400 HG1090               2AZ
A17021300                                          08445575N6SLAVE 2                       HG12IC
A17021301                                          12251008N6SLAVE 2                       HG12IC
M17021391                              CASH        N6SLAVE 2                       Z-REPORT No.   450TOTAL (Sales - Refunds)           3573.50       CASH TO BE BANKED                 2327.80       DEBIT CARDS                          0.00       CREDIT CARDS                      1245.70       Z-READING                         3573.50       AIRTIME DEBIT CARD SALES             0.00       AIRTIME CARD SALES                   0.00       OVERS/UNDERS                         0.00       AIRTIME CASH SALES                   0.00       GIFT CARDS                           0.00       GIFT CARD CASH SALES                 0.00       T O T A L  CASH PAYOUTS              0.00                                                                                                                                                                                                                                                                                                                                                      Z
M17021392                              CASH        N6ABSENT                                                                                                                                                                                          ANNUAL LEAVE                                                                                                                                                                                    DAY OFF                                                                                                                                                                                         COMMENTS                                                                                                                                                                                                                                                                                                                                                                                       Z
Y17021300                                          N600000000313746+000061
ZN617021320083 SLAVE 2      SALES DATA                     NEXT INVOICE NO.  201084 0450
X N6 Slave 2 First invoice 201023 170213 Last invoice 201083 170213 Next invoice 201084 Total number of records 000000213 clbackup completed 20:08:36
