107921000107921               107921               170213N7     1400+00000+N70000007889+0000007889+000000000+000001107+0000008996+0000000000+I40000008996+0000000000+Z
107921001107921077-000239     107921006003000160419GIFT-RIBBON ROLL PEARL 0000001000+00001753+00000+0001T   00001753+0000000905          1400 SY1112               1AZ
107921002107921006-000111     107921006003000519385BALLOONS LARGE 12PCE   0000001000+00002630+00000+0001T   00002630+0000000905          1400 SY1131               1AZ
107921003107921006-000093     107921006003000539932PARTY BANNER FLAGS ASST0000002000+00001753+00000+0001T   00001753+0000000905          1400 SY1131               1AZ
107922000107922               107922               170213N7     1400+00000+N70000001227+0000001227+000000000+000000172+0000001390+0000000009+I20000000000+0000001390+Z
107922001107922077-000319     107922006001023609779GIFT-BAG 18X23CM BIRTHD0000001000+00001227+00000+0001T   00001227+0000001003          1400 SY1112               1AZ
107923000107923               107923               170213N7     1400+00000+N70000001226+0000001226+000000000+000000172+0000001390+0000000008+I20000000000+0000001390+Z
107923001107923304-001011     107923006001023806727FLWR ROSE RED W/BEAR   0000002000+00000613+00000+0001T   00000788+0006471011          1400 SY1510               1AZ
107924000107924               107924               170213N7     1400+00000+N70000032081+0000032081+000000000+000004494+0000036575+0000000000+I40000036575+0000000000+Z
107924001107924018-019000     107924006003000557288MUG OCC. LOVE JUMBO    0000001000+00005262+00000+0001T   00005262+0000001032          1400 SY1515               1AZ
107924002107924018-000170     107924006001023775528MUG OCC. LOVE 2PC MINI 0000001000+00002192+00000+0001T   00002192+0000001032          1400 SY1515               1AZ
107924003107924368-000111     107924006001023780812PLUSH BEAR/DOG 29CM    0000002000+00012279+00000+0001T   00012279+0000001032          1400 SY1745               1AZ
107924004107924112-116053     107924006006438002399TCS CARRIER BAG 38L    0000001000+00000069+00000+0001T   00000069+0000001032          1400 SY1090               1AZ
107925000107925               107925               170213N7     1400+00000+N70000001753+0000001753+000000000+000000246+0000001990+0000000009+I20000000000+0000001990+Z
107925001107925012-000001     107925006003000331048MICRO PLATE-COVER 26X6 0000001000+00001753+00000+0001T   00002192+0008191036          1400 SY1300               1AZ
107926000107926               107926               170213N7     1400+00000+N70000020479+0000020479+000000000+000002870+0000023349+0000000000+I40000023349+0000000000+Z
107926001107926903-000200     107926006009826020234SWT CHOC RP CHOCO 23G  0000002000+00000788+00000+0001T   00000788+0000001050          1400 SY1150               1AZ
107926002107926368-000111     107926006001023780812PLUSH BEAR/DOG 29CM    0000001000+00012279+00000+0001T   00012279+0000001050          1400 SY1745               1AZ
107926003107926563-000319-C   107926006003000581573SERVIETTE 2PLY GREEN   0000001000+00001314+00000+0001T   00001314+0000001050          1400 SY1214               1AZ
107926004107926018-019000     107926006003000557288MUG OCC. LOVE JUMBO    0000001000+00005262+00000+0001T   00005262+0000001050          1400 SY1515               1AZ
107926005107926112-116069     107926006009681820277TCS CARRIER BAG JUMBO  0000001000+00000048+00000+0001T   00000048+0000001050          1400 SY1090               1AZ
107927000107927               107927               170213N7     1400+00000+N70000014514+0000014514+000000000+000002036+0000016550+0000000000+I40000016550+0000000000+Z
107927001107927065-006041     107927006001023712974TAMBOURINE 15cm P/BAND 0000001000+00001753+00000+0001T   00001753+0000001052          1400 SY1745               1AZ
107927002107927046-000012-VP  107927006003000537914BATTERIES H/P SIZE:AA  0000001000+00004823+00000+0001T   00004823+0000001052          1400 SY1312               1AZ
107927003107927072-020312     107927006003000605330PET TOY PUP STARTER PCK0000001000+00002630+00000+0001T   00002630+0000001052          1400 SY1870               1AZ
107927004107927072-020366     107927006003000452927PET PLACE MAT ASSTD COL0000001000+00002630+00000+0001T   00002630+0000001052          1400 SY1870               1AZ
107927005107927072-020305     107927006003000024261PET DOG ASST CANVAS TOY0000001000+00002630+00000+0001T   00002630+0000001052          1400 SY1870               1AZ
107927006107927112-116069     107927006009681820277TCS CARRIER BAG JUMBO  0000001000+00000048+00000+0001T   00000048+0000001052          1400 SY1090               1AZ
107928000107928               107928               170213N7     1400+00000+N70000001227+0000001227+000000000+000000172+0000001390+0000000009+I20000000000+0000001390+Z
107928001107928033-000013     107928006001023567215PILL-REMINDER PL       0000001000+00001227+00000+0001T   00001227+0000001052          1400 SY1200               1AZ
107929000107929               107929               170213N7     1400+00000+N70000004385+0000004385+000000000+000000614+0000004990+0000000009+I20000000000+0000004990+Z
107929001107929018-030000     107929006003000421060MUG OCCASIONS LOVE 2PCE0000001000+00004385+00000+0001T   00004385+0000001109          1400 SY1515               1AZ
107930000107930               107930               170213N7     1400+00000+N70000001753+0000001753+000000000+000000246+0000001990+0000000009+I20000000000+0000001990+Z
107930001107930027-000917     107930006001023367433DUSTPAN-SET MINI 21x16 0000001000+00001753+00000+0001T   00001753+0000001113          1400 SY1212               1AZ
107931000107931               107931               170213N7     1400+00000+N70000001753+0000001753+000000000+000000246+0000001990+0000000009+I20000000000+0000001990+Z
107931001107931046-002013-PK6 107931004897006174851BATTERY BUTTON AG13 6PC0000001000+00001753+00000+0001T   00001753+0000001157          1400 SY1312               1AZ
107932000107932               107932               170213N7     1400+00000+N70000003418+0000003418+000000000+000000479+0000003890+0000000007+I20000000000+0000003890+Z
107932001107932047-000001-BB  107932006001023723536INS-TAPE BLACK 18mmx10m0000002000+00000613+00000+0001T   00000613+0000001206          1400 SY1880               1AZ
107932002107932159-000887     107932006001023730817HOOKS PL SUCTION 9PCE  0000001000+00002192+00000+0001T   00002192+0000001206          1400 SY1200               1AZ
107933000107933               107933               170213N7     1400+00000+N70000001753+0000001753+000000000+000000246+0000001990+0000000009+I20000000000+0000001990+Z
107933001107933071-010481     107933006001023417220MAGNIFYING-GLASS 90mm-D0000001000+00001753+00000+0001T   00001753+0000001208          1400 SY1130               1AZ
107934000107934               107934               170213N7     1400+00000+N70000002192+0000002192+000000000+000000307+0000002490+0000000009+I20000000000+0000002490+Z
107934001107934046-000012-A   107934006003000208296BATTERIES H/POWER SZ:AA0000001000+00002192+00000+0001T   00002192+0000001214          1400 SY1312               1AZ
107935000107935               107935               170213N7     1400+00000+N70000017578+0000017578+000000000+000002467+0000020040+0000000005+I20000000000+0000020040+Z
107935001107935112-116069     107935006009681820277TCS CARRIER BAG JUMBO  0000001000+00000048+00000+0001T   00000048+0000001220          1400 SY1090               1AZ
107935002107935024-091100     107935006001023914224BAKING-CUPS PAPER 100PC0000010000+00001753+00000+0001T   00001753+0000001220          1400 SY1300               1AZ
107936000107936               107936               170213N7     1400+00000+N70000024882+0000024882+000000000+000003488+0000028370+0000000000+I20000000000+0000028370+Z
107936001107936106-001106     107936006003000667475WATER BOTTLE 700ML     0000001000+00002630+00000+0001T   00002630+0000001233          1400 SY1210               1AZ
107936002107936466-000103     107936000681070950312BALL 20cm ASSTD        0000001000+00001753+00000+0001T   00001753+0000001233          1400 SY1785               1AZ
107936003107936174-000305     107936006003000105502TRAVEL NECK-PILLOW     0000001000+00007016+00000+0001T   00007016+0000001233          1400 SY1205               1AZ
107936004107936036-000063     107936006009654960436COATHANGERS VIRGIN 5PCE0000001000+00001753+00000+0001T   00001753+0000001233          1400 SY1212               1AZ
107936005107936159-000637     107936006001023735058BATH PUMICE STONE      0000001000+00000700+00000+0001T   00000700+0000001233          1400 SY1200               1AZ
107936006107936027-783000     107936006001023874641SCOURERS RAINBOW 5PCE  0000001000+00001753+00000+0001T   00001753+0000001233          1400 SY1212               1AZ
107936007107936159-000647     107936006001023995551BRISTLE-BRUSH WDN HNDLE0000001000+00004823+00000+0001T   00004823+0000001233          1400 SY1200               1AZ
107936008107936267-000219     107936006003000301997PUZZLE 100pc FUNNY CAR 0000001000+00004385+00000+0001T   00004385+0000001233          1400 SY1755               1AZ
107936009107936112-116053     107936006006438002399TCS CARRIER BAG 38L    0000001000+00000069+00000+0001T   00000069+0000001233          1400 SY1090               1AZ
107937000107937               107937               170213N7     1400+00000+N70000013011+0000013011+000000000+000001822+0000014833+0000000000+I40000014833+0000000000+Z
107937001107937018-000130     107937006001023867537MUG OCC LOVE MINI+HEART0000002000+00003507+00000+0001T   00003507+0000001237          1400 SY1515               1AZ
107937002107937080-000124     107937006003000297733CARD & ENV VALENTINES  0000001000+00001578+00000+0001T   00001578+0000001237          1400 SY1112               1AZ
107937003107937566-000359     107937006003000582709STICKER BOOK LOVE SPARK0000002000+00002192+00000+0001T   00002192+0000001237          1400 SY1130               1AZ
107937004107937112-116038     107937006009681820246TCS CARRIER BAG MIDI   0000001000+00000035+00000+0001T   00000035+0000001237          1400 SY1090               1AZ
107938000107938               107938               170213N7     1400+00000+N70000007013+0000007013+000000000+000000984+0000007990+0000000007+I20000000000+0000007990+Z
107938001107938006-000323-D   107938006003000126248CONFETTI H/BIRTHDAY 3PK0000001000+00002630+00000+0001T   00002630+0000001238          1400 SY1131               1AZ
107938002107938006-000104     107938006001023990112BALLOONS 40PC AIR PUMP 0000001000+00002630+00000+0001T   00002630+0000001238          1400 SY1131               1AZ
107938003107938562-088335     107938006003000425372EVA PUZZLE MAT MINI    0000001000+00001753+00000+0001T   00001753+0000001238          1400 SY1755               1AZ
107939000107939               107939               170213N7     1400+00000+N70000001753+0000001753+000000000+000000246+0000001990+0000000009+I20000000000+0000001990+Z
107939001107939056-005751     107939006003000102877CAR AIR-FRESH SHOE ASST0000001000+00001753+00000+0001T   00001753+0000001242          1400 SY1860               1AZ
107940000107940               107940               170213N7     1400+00000+N70000010556+0000010556+000000000+000001478+0000012030+0000000004+I20000000000+0000012030+Z
107940001107940079-000342     107940006001023913326FELT-TIP PENS 24PCE    0000002000+00003507+00000+0001T   00003507+0000001247          1400 SY1130               1AZ
107940002107940567-011343     107940006003000630592BK COLOURING THERAPY   0000001000+00003507+00000+0001T   00003507+0000001247          1400 SY1757               1AZ
107940003107940112-116038     107940006009681820246TCS CARRIER BAG MIDI   0000001000+00000035+00000+0001T   00000035+0000001247          1400 SY1090               1AZ
107941000107941               107941               170213N7     1400+00000+N70000002630+0000002630+000000000+000000369+0000002990+0000000009+I20000000000+0000002990+Z
107941001107941565-000041     107941006008766115642NOVELTY BALL ICON 5.5cm0000001000+00002630+00000+0001T   00002630+0000001248          1400 SY1745               1AZ
107942000107942               107942               170213N7     1400+00000+N70000004856+0000004856+000000000+000000680+0000005536+0000000000+I40000005536+0000000000+Z
107942001107942036-000020     107942006001023666512LINT-REMOVER B/O SMALL 0000001000+00003507+00000+0001T   00003507+0000001250          1400 SY1212               1AZ
107942002107942046-000012     107942006904708013062BATTERIES AA  CARD-OF-40000001000+00001314+00000+0001T   00001314+0000001250          1400 SY1312               1AZ
107942003107942112-116038     107942006009681820246TCS CARRIER BAG MIDI   0000001000+00000035+00000+0001T   00000035+0000001250          1400 SY1090               1AZ
107943000107943               107943               170213N7     1400+00000+N70000002192+0000002192+000000000+000000307+0000002490+0000000009+I20000000000+0000002490+Z
107943001107943077-000509     107943006003000082582GIFT-BAG SML 6PCE ORG P0000001000+00002192+00000+0001T   00002192+0000001330          1400 SY1112               1AZ
107944000107944               107944               170213N7     1400+00000+N70000000437+0000000437+000000000+000000062+0000000490+0000000009+I20000000000+0000000490+Z
107944001107944080-000133-A   107944006003000647019MINI VALENTINES CARD   0000001000+00000437+00000+0001T   00000437+0000001331          1400 SY1112               1AZ
107945000107945               107945               170213N7     1400+00000+N70000003507+0000003507+000000000+000000491+0000003990+0000000008+I20000000000+0000003990+Z
107945001107945012-000002     107945006003000331079MICRO PLATE-COVER 26X9 0000001000+00003507+00000+0001T   00003507+0000001336          1400 SY1300               1AZ
107946000107946               107946               170213N7     1400+00000+N70000005262+0000005262+000000000+000000737+0000005990+0000000009+I20000000000+0000005990+Z
107946001107946079-003020     107946006003000662944PAINT ACRYLIC SET TUBE 0000001000+00005262+00000+0001T   00005262+0000001341          1400 SY1130               1AZ
107947000107947               107947               170213N7     1400+00000+N70000003930+0000003930+000000000+000000560+0000004490+0000000000+I20000000000+0000004490+Z
107947001107947903-000183     107947006003000451043SWT LB HEART LOLLY     0000010000+00000393+00000+0001T   00000393+0000001352          1400 SY1150               1AZ
107948000107948               107948               170213N7     1400+00000+N70000011221+0000011221+000000000+000001573+0000012794+0000000000+I40000012794+0000000000+Z
107948001107948077-000303     107948006001023593757GIFT-BAG PAPER MED     0000001000+00001578+00000+0001T   00001578+0000001403          1400 SY1112               1AZ
107948002107948018-019000     107948006003000557288MUG OCC. LOVE JUMBO    0000001000+00005262+00000+0001T   00005262+0000001403          1400 SY1515               1AZ
107948003107948903-000482     107948006001704001397SWT SOFT-MINTS 60G     0000002000+00000876+00000+0001T   00000876+0000001403          1400 SY1150               1AZ
107948004107948903-000087     107948006001704000161SWT SPECKLED-EGGS 50G  0000001000+00001139+00000+0001T   00001139+0000001403          1400 SY1150               1AZ
107948005107948903-000613     107948006003000617173SWT LIPS DUMMY 10G     0000001000+00001490+00000+0001T   00001490+0000001403          1400 SY1150               1AZ
107949000107949               107949               170213N7     1400+00000+N70000007893+0000007893+000000000+000001106+0000008999+0000000000+I40000008999+0000000000+Z
107949001107949206-000480     107949006003000620227MOP SHOES CHENILLE 2PC 0000001000+00007893+00000+0001T   00007893+0000001412          1400 SY1321               1AZ
107950000107950               107950               170213N7     1400+00000+N70000006312+0000006312+000000000+000000885+0000007190+0000000007+I20000000000+0000007190+Z
107950001107950077-000311     107950006001023608666GIFT-BAG 11X14CM GLOSS 0000001000+00000613+00000+0001T   00000613+0000001415          1400 SY1112               1AZ
107950002107950080-000133-A   107950006003000647019MINI VALENTINES CARD   0000001000+00000437+00000+0001T   00000437+0000001415          1400 SY1112               1AZ
107950003107950301-085003     107950006003000420827ORN OCCASION LOVE KEY  0000001000+00005262+00000+0001T   00005262+0000001415          1400 SY1505               1AZ
107951000107951               107951               170213N7     1400+00000+N70000002803+0000002803+000000000+000000394+0000003190+0000000007+I20000000000+0000003190+Z
107951001107951077-000311     107951006001023608666GIFT-BAG 11X14CM GLOSS 0000001000+00000613+00000+0001T   00000613+0000001416          1400 SY1112               1AZ
107951002107951080-000133-A   107951006003000647019MINI VALENTINES CARD   0000001000+00000437+00000+0001T   00000437+0000001416          1400 SY1112               1AZ
107951003107951301-085002     107951006003000420704ORN OCC. LOVE BELL ASST0000001000+00001753+00000+0001T   00002630+0008121416          1400 SY1505               1AZ
107952000107952               107952               170213N7     1400+00000+N70000005260+0000005260+000000000+000000737+0000005990+0000000007+I20000000000+0000005990+Z
107952001107952903-000612     107952006003000617449SWT TRUMPET 20cm       0000001000+00001753+00000+0001T   00001753+0000001417          1400 SY1150               1AZ
107952002107952018-000130     107952006001023867537MUG OCC LOVE MINI+HEART0000001000+00003507+00000+0001T   00003507+0000001417          1400 SY1515               1AZ
107953000107953               107953               170213N7     1400+00000+N70000013010+0000013010+000000000+000001824+0000014834+0000000000+I40000014834+0000000000+Z
107953001107953024-000038     107953006001023477026MEASURING-JUG 1L (4CUP)0000001000+00001753+00000+0001T   00001753+0000001419          1400 SY1300               1AZ
107953002107953206-000630     107953006003000631919SPECTACLE CLEANING BRUS0000002000+00001227+00000+0001T   00001227+0000001419          1400 SY1321               1AZ
107953003107953565-000015     107953006003000672035NOVELTY SLIME ANIMAL   0000001000+00002192+00000+0001T   00002192+0000001419          1400 SY1745               1AZ
107953004107953037-000004     107953006001023763679ASHTRAY PL TUB 8X11CM  0000001000+00001753+00000+0001T   00002192+0008191419          1400 SY1515               1AZ
107953005107953301-085001     107953006003000297610ORN WATERBALL LOVE ASST0000001000+00004823+00000+0001T   00004823+0000001419          1400 SY1505               1AZ
107953006107953112-116038     107953006009681820246TCS CARRIER BAG MIDI   0000001000+00000035+00000+0001T   00000035+0000001419          1400 SY1090               1AZ
107954000107954               107954               170213N7     1400+00000+N70000012311+0000012311+000000000+000001725+0000014036+0000000000+I40000014036+0000000000+Z
107954001107954903-000619     107954006003000672455SWT LOLLY STR/BRRY 140G0000002000+00001753+00000+0001T   00001753+0000001421          1400 SY1150               1AZ
107954002107954368-000049     107954006003000536955PLUSH BEAR 15cm LOVE   0000002000+00004385+00000+0001T   00004385+0000001421          1400 SY1745               1AZ
107954003107954112-116038     107954006009681820246TCS CARRIER BAG MIDI   0000001000+00000035+00000+0001T   00000035+0000001421          1400 SY1090               1AZ
107955000107955               107955               170213N7     1400+00000+N70000000000+0000000000+000000000+000000000+0000000000+0000000000+I20000000000+0000000000+Z
107955001107955007-000123     107955006003000533879BOOK COVER 450mmx1.5m  0000001000-00000306+00000+0001T   00000306+0000001424          1400 SY11303IC            1 Z
107955002107955007-000123     107955006003000533879BOOK COVER 450mmx1.5m  0000001000+00000306+00000+0001T   00000306+0000001424          1400 SY11303IC            1 Z
107956000107956               107956               170213N7     1400+00000+N70000001226+0000001226+000000000+000000172+0000001390+0000000008+I20000000000+0000001390+Z
107956001107956304-001011     107956006001023806727FLWR ROSE RED W/BEAR   0000002000+00000613+00000+0001T   00000788+0006471426          1400 SY1510               1AZ
107957000107957               107957               170213N7     1400+00000+N70000010132+0000010132+000000000+000001420+0000011552+0000000000+I40000011552+0000000000+Z
107957001107957267-000202     107957006003000339808PUZZLE 48pc DINOSAUR   0000001000+00003069+00000+0001T   00003069+0000001428          1400 SY1755               1AZ
107957002107957267-000182     107957006003000390274PUZZLE 24pc ASSTD      0000001000+00004385+00000+0001T   00004385+0000001428          1400 SY1755               1AZ
107957003107957112-116069     107957006009681820277TCS CARRIER BAG JUMBO  0000001000+00000048+00000+0001T   00000048+0000001428          1400 SY1090               1AZ
107957004107957903-000594     107957006003000564057SWT SWORD 18cm J/BEAN  0000001000+00002630+00000+0001T   00002630+0000001428          1400 SY1150               1AZ
107958000107958               107958               170213N7     1400+00000+N70000005607+0000005607+000000000+000000787+0000006390+0000000004+I20000000000+0000006390+Z
107958001107958077-000151     107958006008766114676GIFT-WRAP C/PHANE ASSTD0000002000+00000876+00000+0001T   00000876+0000001429          1400 SY1112               1AZ
107958002107958077-000150-D   107958006003000054343GIFT-WRAP CELLPHANE CLR0000001000+00000876+00000+0001T   00000876+0000001429          1400 SY1112               1AZ
107958003107958304-001011     107958006001023806727FLWR ROSE RED W/BEAR   0000002000+00000613+00000+0001T   00000788+0006471429          1400 SY1510               1AZ
107958004107958362-000299     107958006003000654758HAIR CLIPS METAL WORDS 0000001000+00001753+00000+0001T   00001753+0000001429          1400 SY1160               1AZ
107959000107959               107959               170213N7     1400+00000+N70000009240+0000009240+000000000+000001296+0000010536+0000000000+I40000010536+0000000000+Z
107959001107959466-000200     107959006001023621665HULA-HOOP     ASSTD    0000001000+00001753+00000+0001T   00001753+0000001445          1400 SY1785               1AZ
107959002107959036-000615     107959006003000218769WASH-PEGS PL PCK-24    0000001000+00001753+00000+0001T   00001753+0000001445          1400 SY1212               1AZ
107959003107959162-087876     107959006001492878768#TAG 2PK HEADBANDS     0000001000+00000876+00000+0001T   00001753+0008161445          1400 SY1160               1AZ
107959004107959301-085001     107959006003000297610ORN WATERBALL LOVE ASST0000001000+00004823+00000+0001T   00004823+0000001445          1400 SY1505               1AZ
107959005107959112-116038     107959006009681820246TCS CARRIER BAG MIDI   0000001000+00000035+00000+0001T   00000035+0000001445          1400 SY1090               1AZ
107960000107960               107960               170213N7     1400+00000+N70000001753+0000001753+000000000+000000246+0000001990+0000000009+I20000000000+0000001990+Z
107960001107960903-000618     107960006003000672370SWT LOLLY RAINBOW GIANT0000001000+00001753+00000+0001T   00001753+0000001446          1400 SY1150               1AZ
107961000107961               107961               170213N7     1400+00000+N70000005033+0000005033+000000000+000000705+0000005730+0000000008+I20000000000+0000005730+Z
107961001107961304-001011     107961006001023806727FLWR ROSE RED W/BEAR   0000001000+00000613+00000+0001T   00000788+0006471456          1400 SY1510               1AZ
107961002107961031-080508     107961006001023802415P/FRAME PL 22X11CM LOVE0000001000+00004385+00000+0001T   00004385+0000001456          1400 SY1510               1AZ
107961003107961112-116038     107961006009681820246TCS CARRIER BAG MIDI   0000001000+00000035+00000+0001T   00000035+0000001456          1400 SY1090               1AZ
107962000107962               107962               170213N7     1400+00000+N70000001490+0000001490+000000000+000000209+0000001699+0000000000+I40000001699+0000000000+Z
107962001107962903-005003     107962006002580020106SWT DINKY DUMMIES 5PK  0000001000+00001490+00000+0001T   00001490+0000001509          1400 SY1150               1AZ
107963000107963               107963               170213N7     1400+00000+N70000003856+0000003856+000000000+000000541+0000004390+0000000007+I20000000000+0000004390+Z
107963001107963306-000021-A   107963006001023891358EARBUDS COTTON 100PCE  0000001000+00000876+00000+0001T   00000876+0000001510          1400 SY1200               1AZ
107963002107963264-000921     107963000090159150442MAISTO CAR 3" FRESH    0000001000+00001753+00000+0001T   00001753+0000001510          1400 SY1710               1AZ
107963003107963206-000630     107963006003000631919SPECTACLE CLEANING BRUS0000001000+00001227+00000+0001T   00001227+0000001510          1400 SY1321               1AZ
107964000107964               107964               170213N7     1400+00000+N70000001753+0000001753+000000000+000000246+0000001990+0000000009+I20000000000+0000001990+Z
107964001107964047-000507     107964006001023684479PLUG-ADAPTOR EURO TWIN 0000001000+00001753+00000+0001T   00001753+0000001510          1400 SY1880               1AZ
107965000107965               107965               170213N7     1400+00000+N70000006784+0000006784+000000000+000000951+0000007730+0000000005+I20000000000+0000007730+Z
107965001107965033-008209     107965006001023678607MEASURING-TAPE 150cm   0000001000+00000613+00000+0001T   00000613+0000001512          1400 SY1200               1AZ
107965002107965084-070005     107965006001023627902NAIL FILES 6PCE H/GLOW 0000001000+00000876+00000+0001T   00000876+0000001512          1400 SY1200               1AZ
107965003107965047-000507     107965006001023684479PLUG-ADAPTOR EURO TWIN 0000001000+00001753+00000+0001T   00001753+0000001512          1400 SY1880               1AZ
107965004107965174-000303     107965006003000053605TRAVEL NECK WALLET     0000001000+00003507+00000+0001T   00003507+0000001512          1400 SY1205               1AZ
107965005107965112-116038     107965006009681820246TCS CARRIER BAG MIDI   0000001000+00000035+00000+0001T   00000035+0000001512          1400 SY1090               1AZ
107966000107966               107966               170213N7     1400+00000+N70000004120+0000004120+000000000+000000577+0000004690+0000000007+I20000000000+0000004690+Z
107966001107966174-000303     107966006003000053605TRAVEL NECK WALLET     0000001000+00003507+00000+0001T   00003507+0000001513          1400 SY1205               1AZ
107966002107966033-008209     107966006001023678607MEASURING-TAPE 150cm   0000001000+00000613+00000+0001T   00000613+0000001513          1400 SY1200               1AZ
107967000107967               107967               170213N7     1400+00000+N70000011257+0000011257+000000000+000001577+0000012830+0000000004+I20000000000+0000012830+Z
107967001107967056-065302     107967006001023759566CAR SUN-SHIELD ALM-FOIL0000001000+00002630+00000+0001T   00002630+0000001516          1400 SY1860               1AZ
107967002107967018-000130     107967006001023867537MUG OCC LOVE MINI+HEART0000001000+00003507+00000+0001T   00003507+0000001516          1400 SY1515               1AZ
107967003107967031-000923     107967006001023669933P/FRAME BLK W/WORDS    0000001000+00003507+00000+0001T   00003507+0000001516          1400 SY1510               1AZ
107967004107967077-000303     107967006001023593757GIFT-BAG PAPER MED     0000001000+00001578+00000+0001T   00001578+0000001516          1400 SY1112               1AZ
107967005107967112-116038     107967006009681820246TCS CARRIER BAG MIDI   0000001000+00000035+00000+0001T   00000035+0000001516          1400 SY1090               1AZ
107968000107968               107968               170213N7     1400+00000+N70000017542+0000017542+000000000+000002456+0000019998+0000000000+I40000019998+0000000000+Z
107968001107968019-000049     107968006001023673732V/GLASS FOOTED 17X25CM 0000001000+00017542+00000+0001T   00017542+0000001518          1400 SY1510               1AZ
107969000107969               107969               170213N7     1400+00000+N70000003506+0000003506+000000000+000000492+0000003990+0000000008+I20000000000+0000003990+Z
107969001107969080-000133-A   107969006003000647019MINI VALENTINES CARD   0000001000+00000437+00000+0001T   00000437+0000001518          1400 SY1112               1AZ
107969002107969024-007001     107969006002580007688CAKE/BISCUIT-SERVER    0000001000+00003069+00000+0001T   00003069+0000001518          1400 SY1300               1AZ
107970000107970               107970               170213N7     1400+00000+N70000003628+0000003628+000000000+000000509+0000004130+0000000007+I20000000000+0000004130+Z
107970001107970018-000127     107970006001023380289MUG OCC STRAIGHT LOVE  0000001000+00001578+00000+0001T   00001753+0006471520          1400 SY1515               1AZ
107970002107970080-000133-A   107970006003000647019MINI VALENTINES CARD   0000001000+00000437+00000+0001T   00000437+0000001520          1400 SY1112               1AZ
107970003107970077-000303     107970006001023593757GIFT-BAG PAPER MED     0000001000+00001578+00000+0001T   00001578+0000001520          1400 SY1112               1AZ
107970004107970112-116038     107970006009681820246TCS CARRIER BAG MIDI   0000001000+00000035+00000+0001T   00000035+0000001520          1400 SY1090               1AZ
107971000107971               107971               170213N7     1400+00000+N70000002630+0000002630+000000000+000000369+0000002990+0000000009+I20000000000+0000002990+Z
107971001107971106-001106     107971006003000667475WATER BOTTLE 700ML     0000001000+00002630+00000+0001T   00002630+0000001532          1400 SY1210               1AZ
107972000107972               107972               170213N7     1400+00000+N70000006173+0000006173+000000000+000000865+0000007030+0000000008+I20000000000+0000007030+Z
107972001107972018-019000     107972006003000557288MUG OCC. LOVE JUMBO    0000001000+00005262+00000+0001T   00005262+0000001535          1400 SY1515               1AZ
107972002107972112-116038     107972006009681820246TCS CARRIER BAG MIDI   0000001000+00000035+00000+0001T   00000035+0000001535          1400 SY1090               1AZ
107972003107972903-000295     107972006001704002899SWT MS FRUITY RASCALS  0000001000+00000876+00000+0001T   00000876+0000001535          1400 SY1150               1AZ
107973000107973               107973               170213N7     1400+00000+N70000006137+0000006137+000000000+000000860+0000006997+0000000000+I40000006997+0000000000+Z
107973001107973072-020307-A   107973006003000650095PET TOY TENNIS BALLSx4 0000001000+00003507+00000+0001T   00003507+0000001536          1400 SY1870               1AZ
107973002107973072-020350     107973006001023598035PET DOG/CAT BOWL DOUBLE0000001000+00002630+00000+0001T   00002630+0000001536          1400 SY1870               1AZ
107974000107974               107974               170213N7     1400+00000+N70000007752+0000007752+000000000+000001086+0000008838+0000000000+I40000008838+0000000000+Z
107974001107974018-050000     107974006003000412679MUG OCC LOVE TWIN BEAR 0000001000+00006139+00000+0001T   00006139+0000001539          1400 SY1515               1AZ
107974002107974077-000315     107974006003000181186GIFT-BAG 20x28cm MATT  0000001000+00001578+00000+0001T   00001578+0000001539          1400 SY1112               1AZ
107974003107974112-116038     107974006009681820246TCS CARRIER BAG MIDI   0000001000+00000035+00000+0001T   00000035+0000001539          1400 SY1090               1AZ
107975000107975               107975               170213N7     1400+00000+N70000007755+0000007755+000000000+000001089+0000008844+0000000000+I40000008844+0000000000+Z
107975001107975304-001011     107975006001023806727FLWR ROSE RED W/BEAR   0000008000+00000613+00000+0001T   00000788+0006471542          1400 SY1510               1AZ
107975002107975033-005905-B   107975006001023727787S/LACES FLAT 90cm ASSTD0000001000+00000876+00000+0001T   00000876+0000001542          1400 SY1200               1AZ
107975003107975033-005991     107975006001023678546NEEDLES H/HOLD-REPAIR  0000001000+00000788+00000+0001T   00000788+0000001542          1400 SY1200               1AZ
107975004107975071-004202     107975006001023417176SCISSORS-SCHOOL PL/MTL 0000001000+00001139+00000+0001T   00001139+0000001542          1400 SY1130               1AZ
107975005107975112-116069     107975006009681820277TCS CARRIER BAG JUMBO  0000001000+00000048+00000+0001T   00000048+0000001542          1400 SY1090               1AZ
107976000107976               107976               170213N7     1400+00000+N70000006186+0000006186+000000000+000000867+0000007050+0000000003+I20000000000+0000007050+Z
107976001107976031-080508     107976006001023802415P/FRAME PL 22X11CM LOVE0000001000+00004385+00000+0001T   00004385+0000001543          1400 SY1510               1AZ
107976002107976077-000381     107976006003000247707GIFT-BAG 25X32CM S/COL 0000001000+00001753+00000+0001T   00001753+0000001543          1400 SY1112               1AZ
107976003107976112-116069     107976006009681820277TCS CARRIER BAG JUMBO  0000001000+00000048+00000+0001T   00000048+0000001543          1400 SY1090               1AZ
107977000107977               107977               170213N7     1400+00000+N70000003069+0000003069+000000000+000000430+0000003490+0000000009+I20000000000+0000003490+Z
107977001107977030-000030-A   107977006003000249305PLAQUE GLASS LOVE      0000001000+00003069+00000+0001T   00003069+0000001543          1400 SY1505               1AZ
107978000107978               107978               170213N7     1400+00000+N70000002630+0000002630+000000000+000000369+0000002990+0000000009+I20000000000+0000002990+Z
107978001107978306-000993     107978006003000560110FIRSTAID PLASTER 75PC  0000001000+00002630+00000+0001T   00002630+0000001543          1400 SY1200               1AZ
107979000107979               107979               170213N7     1400+00000+N70000001839+0000001839+000000000+000000258+0000002090+0000000007+I20000000000+0000002090+Z
107979001107979304-001011     107979006001023806727FLWR ROSE RED W/BEAR   0000003000+00000613+00000+0001T   00000788+0006471547          1400 SY1510               1AZ
107980000107980               107980               170213N7     1400+00000+N70000001925+0000001925+000000000+000000271+0000002190+0000000006+I20000000000+0000002190+Z
107980001107980007-010192     107980006009635830536BOOK H/COVER A5 192PAGE0000001000+00001139+00000+0001T   00001139+0000001552          1400 SY1130               1AZ
107980002107980903-000099     107980006923431501646SWT CANDY GS WTCH B/LET0000003000+00000262+00000+0001T   00000262+0000001552          1400 SY1150               1AZ
107981000107981               107981               170213N7     1400+00000+N70000000613+0000000613+000000000+000000086+0000000690+0000000009+I20000000000+0000000690+Z
107981001107981304-001011     107981006001023806727FLWR ROSE RED W/BEAR   0000001000+00000613+00000+0001T   00000788+0006471553          1400 SY1510               1AZ
107982000107982               107982               170213N7     1400+00000+N70000002764+0000002764+000000000+000000388+0000003150+0000000002+I20000000000+0000003150+Z
107982001107982077-000310     107982006001023608635GIFT-BAG 18X23CM GLOSS 0000001000+00001314+00000+0001T   00001314+0000001554          1400 SY1112               1AZ
107982002107982304-001204     107982006001023737984FLOWER OCC. TEDDY/ROSES0000001000+00001402+00000+0001T   00001490+0006471554          1400 SY1510               1AZ
107982003107982112-116069     107982006009681820277TCS CARRIER BAG JUMBO  0000001000+00000048+00000+0001T   00000048+0000001554          1400 SY1090               1AZ
107983000107983               107983               170213N7     1400+00000+N70000017276+0000017276+000000000+000002420+0000019696+0000000000+I40000019696+0000000000+Z
107983001107983567-075490     107983009780799376920BK NOVEL ROMANCE AFR   0000001000+00003507+00000+0001T   00003507+0000001558          1400 SY1757               1AZ
107983002107983368-000111     107983006001023780812PLUSH BEAR/DOG 29CM    0000001000+00012279+00000+0001T   00012279+0000001558          1400 SY1745               1AZ
107983003107983077-000299     107983006003000395576G/BAG 32x25cm LRG LOVE 0000001000+00001490+00000+0001T   00001490+0000001558          1400 SY1112               1AZ
107984000107984               107984               170213N7     1400+00000+N70000002192+0000002192+000000000+000000307+0000002490+0000000009+I20000000000+0000002490+Z
107984001107984251-000002     107984006003000093991TAPE D-SIDED 24x1000mm 0000001000+00002192+00000+0001T   00002192+0000001600          1400 SY1810               1AZ
107985000107985               107985               170213N7     1400+00000+N70000025909+0000025909+000000000+000003634+0000029543+0000000000+I40000029543+0000000000+Z
107985001107985105-001028     107985006003000675470LUNCH BOX W/CLIPS      0000002000+00003069+00000+0001T   00003069+0000001607          1400 SY1210               1AZ
107985002107985105-001150     107985006003000666287CONTAINER SET LITE 3PC 0000001000+00002630+00000+0001T   00002630+0000001607          1400 SY1210               1AZ
107985003107985105-001180     107985006003000666522CONTAINER SET LITE 3PC 0000001000+00003069+00000+0001T   00003069+0000001607          1400 SY1210               1AZ
107985004107985105-001160     107985006003000666409CONTAINER SET LITE 6PC 0000002000+00001753+00000+0001T   00001753+0000001607          1400 SY1210               1AZ
107985005107985105-000750     107985006003000190270CONTAINERS 4xMINI 150ml0000001000+00001402+00000+0001T   00001402+0000001607          1400 SY1210               1AZ
107985006107985105-001005     107985006001023858214CONTAINERS MINI 6PCE   0000001000+00001402+00000+0001T   00001402+0000001607          1400 SY1210               1AZ
107985007107985106-001118     107985006009654960320WATER BOTTLE PL 500ml  0000002000+00002016+00000+0001T   00002016+0000001607          1400 SY1210               1AZ
107985008107985105-001025     107985006009654960771CONTAINERS CLEAR 4PCE  0000001000+00003069+00000+0001T   00003069+0000001607          1400 SY1210               1AZ
107985009107985306-000021     107985006001023169433EARBUDS 100PCE IN BAG  0000001000+00000613+00000+0001T   00000613+0000001607          1400 SY1200               1AZ
107985010107985112-116069     107985006009681820277TCS CARRIER BAG JUMBO  0000001000+00000048+00000+0001T   00000048+0000001607          1400 SY1090               1AZ
107986000107986               107986               170213N7     1400+00000+N70000009295+0000009295+000000000+000001302+0000010590+0000000007+I20000000000+0000010590+Z
107986001107986030-000031-A   107986006003000457588PLAQUE W/WORDS ASSTD   0000001000+00004385+00000+0001T   00004823+0006471611          1400 SY1505               1AZ
107986002107986368-000001     107986006003000097982Plush Bear 25cm        0000001000+00004385+00000+0001T   00004385+0000001611          1400 SY1745               1AZ
107986003107986903-000077     107986006939873501687SWT GS MAGIC ROCK FRUIT0000001000+00000525+00000+0001T   00000525+0000001611          1400 SY1150               1AZ
107987000107987               107987               170213N7     1400+00000+N70000004385+0000004385+000000000+000000614+0000004990+0000000009+I20000000000+0000004990+Z
107987001107987001-000175     107987006001023788108B/MUG GLS LOVE 380ML   0000001000+00004385+00000+0001T   00004385+0000001612          1400 SY1515               1AZ
107988000107988               107988               170213N7     1400+00000+N70000008770+0000008770+000000000+000001228+0000009998+0000000000+I40000009998+0000000000+Z
107988001107988082-000110     107988006003000360482READING GLS STRENGHT:2 0000002000+00004385+00000+0001T   00004385+0000001613          1400 SY1160               1AZ
107989000107989               107989               170213N7     1400+00000+N70000006174+0000006174+000000000+000000865+0000007030+0000000009+I20000000000+0000007030+Z
107989001107989018-050000     107989006003000412679MUG OCC LOVE TWIN BEAR 0000001000+00006139+00000+0001T   00006139+0000001614          1400 SY1515               1AZ
107989002107989112-116038     107989006009681820246TCS CARRIER BAG MIDI   0000001000+00000035+00000+0001T   00000035+0000001614          1400 SY1090               1AZ
107990000107990               107990               170213N7     1400+00000+N70000015394+0000015394+000000000+000002157+0000017550+0000000001+I20000000000+0000017550+Z
107990001107990077-000310     107990006001023608635GIFT-BAG 18X23CM GLOSS 0000001000+00001314+00000+0001T   00001314+0000001618          1400 SY1112               1AZ
107990002107990368-000113     107990006001023780874PLUSH BLINGED LOVE 30cm0000001000+00012279+00000+0001T   00012279+0000001618          1400 SY1745               1AZ
107990003107990112-116069     107990006009681820277TCS CARRIER BAG JUMBO  0000001000+00000048+00000+0001T   00000048+0000001618          1400 SY1090               1AZ
107990004107990077-000309     107990006001023608604GIFT-BAG 25X32CM GLOSS 0000001000+00001753+00000+0001T   00001753+0000001618          1400 SY1112               1AZ
107991000107991               107991               170213N7     1400+00000+N70000014077+0000014077+000000000+000001972+0000016049+0000000000+I40000016049+0000000000+Z
107991001107991204-000012     107991006001023888518M/HOLDR 7PC DAYS WEEK  0000001000+00003507+00000+0001T   00003507+0000001620          1400 SY1300               1AZ
107991002107991039-000635     107991006001023774521CANDLE VTV 4PC WHITE   0000002000+00002192+00000+0001T   00002192+0000001620          1400 SY1510               1AZ
107991003107991301-085008     107991006003000673933ORN OCC.LOVE TINSEL HRT0000002000+00003069+00000+0001T   00003069+0000001620          1400 SY1505               1AZ
107991004107991112-116069     107991006009681820277TCS CARRIER BAG JUMBO  0000001000+00000048+00000+0001T   00000048+0000001620          1400 SY1090               1AZ
107992000107992               107992               170213N7     1400+00000+N70000007893+0000007893+000000000+000001106+0000008999+0000000000+I40000008999+0000000000+Z
107992001107992301-085007     107992006003000673698ORN OCC. LOVE S/PLAQUE 0000001000+00007893+00000+0001T   00007893+0000001623          1400 SY1505               1AZ
107993000107993               107993               170213N7     1400+00000+N70000003103+0000003103+000000000+000000435+0000003530+0000000008+I20000000000+0000003530+Z
107993001107993301-085000     107993006003000674299 ORN OCC. LOVE HEARTS  0000001000+00002192+00000+0001T   00002192+0000001649          1400 SY1505               1AZ
107993002107993903-000295     107993006001704002899SWT MS FRUITY RASCALS  0000001000+00000876+00000+0001T   00000876+0000001649          1400 SY1150               1AZ
107993003107993112-116038     107993006009681820246TCS CARRIER BAG MIDI   0000001000+00000035+00000+0001T   00000035+0000001649          1400 SY1090               1AZ
107994000107994               107994               170213N7     1400+00000+N70000010173+0000010173+000000000+000001425+0000011590+0000000008+I20000000000+0000011590+Z
107994001107994368-000012     107994006003000610464PLUSH BEAR 30cm SITTING0000001000+00008771+00000+0001T   00008771+0000001649          1400 SY1745               1AZ
107994002107994304-001204     107994006001023737984FLOWER OCC. TEDDY/ROSES0000001000+00001402+00000+0001T   00001490+0006471649          1400 SY1510               1AZ
107995000107995               107995               170213N7     1400+00000+N70000002630+0000002630+000000000+000000369+0000002990+0000000009+I20000000000+0000002990+Z
107995001107995079-000260     107995006001023886385PAINT TUBS WT BASE 4COL0000001000+00002630+00000+0001T   00002630+0000001656          1400 SY1130               1AZ
107996000107996               107996               170213N7     1400+00000+N70000006576+0000006576+000000000+000000921+0000007490+0000000007+I20000000000+0000007490+Z
107996001107996301-085004     107996006003000420469ORN LOVE PLAQUE 21X10CM0000001000+00003507+00000+0001T   00003946+0006471659          1400 SY1505               1AZ
107996002107996089-060027     107996006003000245871KEY-CHAIN HEART 6X6cm  0000001000+00003069+00000+0001T   00003069+0000001659          1400 SY1205               1AZ
107997000107997               107997               170213N7     1400+00000+N70000003944+0000003944+000000000+000000553+0000004497+0000000000+I40000004497+0000000000+Z
107997001107997077-000312     107997006001023608697GIFT-BAG 10X35CM GLOSS 0000001000+00001314+00000+0001T   00001314+0000001725          1400 SY1112               1AZ
107997002107997200-000208     107997006003000293728BAKING ALUM FOIL 5PCE  0000001000+00002630+00000+0001T   00002630+0000001725          1400 SY1214               1AZ
107998000107998               107998               170213N7     1400+00000+N70000001578+0000001578+000000000+000000221+0000001790+0000000009+I20000000000+0000001790+Z
107998001107998080-000124     107998006003000297733CARD & ENV VALENTINES  0000001000+00001578+00000+0001T   00001578+0000001738          1400 SY1112               1AZ
107999000107999               107999               170213N7     1400+00000+N70000006710+0000006710+000000000+000000941+0000007651+0000000000+I40000007651+0000000000+Z
107999001107999563-000318-L   107999006003000407088SERVIETTES 33cm RED    0000001000+00002192+00000+0001T   00002192+0000001744          1400 SY1214               1AZ
107999002107999039-000108     107999006001023524034TEA-LITE CANDLES 8PCE  0000001000+00001490+00000+0001T   00001490+0000001744          1400 SY1510               1AZ
107999003107999077-000010-C   107999006001023123879CREPE-PAPER RED        0000001000+00000788+00000+0001T   00000788+0000001744          1400 SY1112               1AZ
107999004107999080-000127     107999006003000424351VALENTINES DAY 36x24CM 0000001000+00002192+00000+0001T   00002192+0000001744          1400 SY1112               1AZ
107999005107999112-116069     107999006009681820277TCS CARRIER BAG JUMBO  0000001000+00000048+00000+0001T   00000048+0000001744          1400 SY1090               1AZ
108000000108000               108000               170213N7     1400+00000+N70000003507+0000003507+000000000+000000491+0000003998+0000000000+I40000003998+0000000000+Z
108000001108000366-006105     108000006003000617050DRESS UP FACE PAINT    0000001000+00003507+00000+0001T   00003507+0000001747          1400 SY1131               1AZ
108001000108001               108001               170213N7     1400+00000+N70000002628+0000002628+000000000+000000368+0000002996+0000000000+I40000002996+0000000000+Z
108001001108001903-000844     108001005010478432567SWT CANDY DL LUV HEARTS0000002000+00001314+00000+0001T   00001314+0000001749          1400 SY1150               1AZ
108002000108002               108002               170213N7     1400+00000+N70000000876+0000000876+000000000+000000123+0000000990+0000000009+I20000000000+0000000990+Z
108002001108002077-000314     108002006003000181148GIFT-BAG 11X14CM MATT  0000001000+00000876+00000+0001T   00000876+0000001749          1400 SY1112               1AZ
A17021300                                          09073455N7SLAVE 1                       SY12IC
A17021301                                          10133868N7SLAVE 1                       SY12IC
A17021302                                          15522499N7SLAVE 1                       SY12IC
A17021303                                          16003283N7SLAVE 1                       SY12IC
B10795500                                          170213N7007-000123     14242349SLAVE 1     SY13IC0000003000+0000001000+0000000000000+
M17021301                              IT DEPT     N7ATT IT DEPT                                     LAST TILL SLIP ON                               SLAVE 1 108002                                  THANKS N7
M17021391                              CASH        N7SLAVE 1                       Z-REPORT No.   504TOTAL (Sales - Refunds)           6170.73       CASH TO BE BANKED                 2886.80       DEBIT CARDS                          0.00       CREDIT CARDS                      3283.93       Z-READING                         6170.73       AIRTIME DEBIT CARD SALES             0.00       AIRTIME CARD SALES                   0.00       OVERS/UNDERS                         0.00       AIRTIME CASH SALES                   0.00       GIFT CARDS                           0.00       GIFT CARD CASH SALES                 0.00       T O T A L  CASH PAYOUTS              0.00                                                                                                                                                                                                                                                                                                                                                      Z
M17021392                              CASH        N7ABSENT                                                                                                                                                                                          ANNUAL LEAVE                                                                                                                                                                                    DAY OFF                                                                                                                                                                                         COMMENTS                                                                                                                                                                                                                                                                                                                                                                                       Z
Y17021300                                          N700000000541863+000082
ZN717021320083 SLAVE 1      SALES DATA                     NEXT INVOICE NO.  108003 0504
X N7 Slave 1 First invoice 107921 170213 Last invoice 108002 170213 Next invoice 108003 Total number of records 000000294 clbackup completed 20:08:43
