200804000200804               200804               170213N7     1400+00000+N70000010523+0000010523+000000000+000001474+0000011997+0000000000+I40000011997+0000000000+Z
200804001200804107-004500     200804006003000150557STEP STOOL PL          0000001000+00007016+00000+0001T   00007016+0000000919          1400 J84210               2BZ
200804002200804560-000189     200804006003000592357ANIMALS SNAKE 78cm     0000001000+00003507+00000+0001T   00003507+0000000919          1400 J84745               2BZ
200805000200805               200805               170213N7     1400+00000+N70000003944+0000003944+000000000+000000553+0000004490+0000000007+I20000000000+0000004490+Z
200805001200805108-009020-B   200805006005387000067SALAD SML W/LID ASSTD-C0000001000+00001314+00000+0001T   00001314+0000001037          1400 J84210               2BZ
200805002200805105-001150     200805006003000666287CONTAINER SET LITE 3PC 0000001000+00002630+00000+0001T   00002630+0000001037          1400 J84210               2BZ
200806000200806               200806               170213N7     1400+00000+N70000003329+0000003329+000000000+000000468+0000003790+0000000007+I20000000000+0000003790+Z
200806001200806133-000012     200806006001023561084CLEANING-CLOTH GREEN   0000001000+00001753+00000+0001T   00001753+0000001121          1400 J84212               2BZ
200806002200806027-000081     200806006001023760371SCOURING PADS 10PCE    0000001000+00001139+00000+0001T   00001139+0000001121          1400 J84212               2BZ
200806003200806083-000049     200806004891035200024CIG-LIGHTER DISPOSABLE 0000001000+00000437+00000+0001T   00000437+0000001121          1400 J84315               2BZ
200807000200807               200807               170213N7     1400+00000+N70000002630+0000002630+000000000+000000369+0000002990+0000000009+I20000000000+0000002990+Z
200807001200807077-000270     200807006003000395453GIFT-BAG PPR JMB 33X45 0000001000+00002630+00000+0001T   00002630+0000001122          1400 J84112               2BZ
200808000200808               200808               170213N7     1400+00000+N70000000048+0000000048+000000000+000000007+0000000050+0000000005+I20000000000+0000000050+Z
200808001200808112-116069     200808006009681820277TCS CARRIER BAG JUMBO  0000001000+00000048+00000+0001T   00000048+0000001122          1400 J84090               2BZ
200809000200809               200809               170213N7     1400+00000+N70000005084+0000005084+000000000+000000713+0000005790+0000000007+I20000000000+0000005790+Z
200809001200809077-000348     200809006001023483287GIFT-BOWS 4,5cm 8PCE   0000001000+00001578+00000+0001T   00001578+0000001125          1400 J84112               2BZ
200809002200809080-000102     200809006003000236855CARD&ENVLP FEMALE AFR  0000001000+00001753+00000+0001T   00001753+0000001125          1400 J84112               2BZ
200809003200809080-000111     200809006003000252695CARD&ENVELPE - MUSICAL 0000001000+00001753+00000+0001T   00001753+0000001125          1400 J84112               2BZ
200810000200810               200810               170213N7     1400+00000+N70000003593+0000003593+000000000+000000504+0000004090+0000000007+I20000000000+0000004090+Z
200810001200810077-000151     200810006008766114676GIFT-WRAP C/PHANE ASSTD0000001000+00000876+00000+0001T   00000876+0000001131          1400 J84112               2BZ
200810002200810018-000127     200810006001023380289MUG OCC STRAIGHT LOVE  0000001000+00001578+00000+0001T   00001753+0006471131          1400 J84515               2BZ
200810003200810903-000087     200810006001704000161SWT SPECKLED-EGGS 50G  0000001000+00001139+00000+0001T   00001139+0000001131          1400 J84150               2BZ
200811000200811               200811               170213N7     1400+00000+N70000000262+0000000262+000000000+000000037+0000000290+0000000009+I20000000000+0000000290+Z
200811001200811108-003007     200811006002923006590MUG PL 375ml           0000001000+00000262+00000+0001T   00000262+0000001211          1400 J84210               2BZ
200812000200812               200812               170213N7     1400+00000+N70000009207+0000009207+000000000+000001290+0000010497+0000000000+I40000010497+0000000000+Z
200812001200812028-000272     200812006001023465283EGG-RINGS 2PCE      H&L0000003000+00003069+00000+0001T   00003069+0000001213          1400 J84305               2BZ
200813000200813               200813               170213N7     1400+00000+N70000000613+0000000613+000000000+000000086+0000000690+0000000009+I20000000000+0000000690+Z
200813001200813077-000311     200813006001023608666GIFT-BAG 11X14CM GLOSS 0000001000+00000613+00000+0001T   00000613+0000001231          1400 J84112               2BZ
200814000200814               200814               170213N7     1400+00000+N70000000876+0000000876+000000000+000000123+0000000990+0000000009+I20000000000+0000000990+Z
200814001200814903-000482     200814006001704001397SWT SOFT-MINTS 60G     0000001000+00000876+00000+0001T   00000876+0000001256          1400 J84150               2BZ
200815000200815               200815               170213N7     1400+00000+N70000008273+0000008273+000000000+000001160+0000009430+0000000003+I20000000000+0000009430+Z
200815001200815112-116038     200815006009681820246TCS CARRIER BAG MIDI   0000001000+00000035+00000+0001T   00000035+0000001301          1400 J84090               2BZ
200815002200815564-000012     200815006001023130075BUBBLE BOTTLE MAGIC    0000002000+00000700+00000+0001T   00000700+0000001301          1400 J84131               2BZ
200815003200815564-000011     200815006001023865892BUBBLE REFILL 350ml    0000002000+00002630+00000+0001T   00002630+0000001301          1400 J84131               2BZ
200815004200815080-000124     200815006003000297733CARD & ENV VALENTINES  0000001000+00001578+00000+0001T   00001578+0000001301          1400 J84112               2BZ
200816000200816               200816               170213N7     1400+00000+N70000004817+0000004817+000000000+000000675+0000005492+0000000000+I40000005492+0000000000+Z
200816001200816261-000121     200816006001023341600GUN-CAPS 8-SHOT CARD-9 0000003000+00000700+00000+0001T   00000700+0000001304          1400 J84710               2BZ
200816002200816304-001011     200816006001023806727FLWR ROSE RED W/BEAR   0000001000+00000613+00000+0001T   00000788+0006471304          1400 J84510               2BZ
200816003200816903-000095     200816006001704011495SWT SPECKLED-EGGS 100G 0000001000+00002104+00000+0001T   00002104+0000001304          1400 J84150               2BZ
200817000200817               200817               170213N7     1400+00000+N70000002453+0000002453+000000000+000000344+0000002797+0000000000+I40000002797+0000000000+Z
200817001200817007-000302     200817006009635830000BOOK H/COVER A4 96-PAGE0000001000+00001139+00000+0001T   00001139+0000001307          1400 J84130               2BZ
200817002200817046-000012     200817006904708013062BATTERIES AA  CARD-OF-40000001000+00001314+00000+0001T   00001314+0000001307          1400 J84312               2BZ
200818000200818               200818               170213N7     1400+00000+N70000001753+0000001753+000000000+000000246+0000001990+0000000009+I20000000000+0000001990+Z
200818001200818466-000200     200818006001023621665HULA-HOOP     ASSTD    0000001000+00001753+00000+0001T   00001753+0000001346          1400 J84785               2BZ
200819000200819               200819               170213N7     1400+00000+N70000009380+0000009380+000000000+000001314+0000010690+0000000004+I20000000000+0000010690+Z
200819001200819562-000020     200819006003000600861EDU PLAY DOUGH 60g 4PC 0000001000+00003507+00000+0001T   00003507+0000001347          1400 J84755               2BZ
200819002200819562-000011     200819006003000600984PLAY DOUGH NEON TUBE   0000001000+00003507+00000+0001T   00003507+0000001347          1400 J84755               2BZ
200819003200819565-000044     200819006003000128280BARREL OF SLIME 100g   0000001000+00000613+00000+0001T   00000613+0000001347          1400 J84745               2BZ
200819004200819079-000623     200819006001023836274CHALK MARBLE 5PCE      0000001000+00001753+00000+0001T   00001753+0000001347          1400 J84130               2BZ
200820000200820               200820               170213N7     1400+00000+N70000007016+0000007016+000000000+000000983+0000007990+0000000009+I20000000000+0000007990+Z
200820001200820562-000002     200820006001023491015COUNTING-FRAME 30x20cm 0000001000+00007016+00000+0001T   00007016+0000001407          1400 J84755               2BZ
200821000200821               200821               170213N7     1400+00000+N70000001139+0000001139+000000000+000000160+0000001290+0000000009+I20000000000+0000001290+Z
200821001200821007-010192     200821006009635830536BOOK H/COVER A5 192PAGE0000001000+00001139+00000+0001T   00001139+0000001408          1400 J84130               2BZ
200822000200822               200822               170213N7     1400+00000+N70000015785+0000015785+000000000+000002211+0000017996+0000000000+I40000017996+0000000000+Z
200822001200822046-000012     200822006904708013062BATTERIES AA  CARD-OF-40000001000+00001314+00000+0001T   00001314+0000001410          1400 J84312               2BZ
200822002200822016-001000     200822006001023901439STORAGE-JAR GLS W/STRAW0000001000+00003069+00000+0001T   00003069+0000001410          1400 J84300               2BZ
200822003200822261-003817     200822006001023536532GUN RIFLE WITH ROCKET  0000001000+00011402+00000+0001T   00011402+0000001410          1400 J84710               2BZ
200823000200823               200823               170213N7     1400+00000+N70000001400+0000001400+000000000+000000196+0000001596+0000000000+I40000001596+0000000000+Z
200823001200823564-000012     200823006001023130075BUBBLE BOTTLE MAGIC    0000002000+00000700+00000+0001T   00000700+0000001411          1400 J84131               2BZ
200824000200824               200824               170213N7     1400+00000+N70000010154+0000010154+000000000+000001422+0000011570+0000000006+I20000000000+0000011570+Z
200824001200824107-004505     200824006003000677177STEP STOOL FOLDABLE    0000001000+00008771+00000+0001T   00008771+0000001417          1400 J84210               2BZ
200824002200824107-004105     200824006002923010504BUCKET 9L OPEN         0000001000+00001314+00000+0001T   00001314+0000001417          1400 J84210               2BZ
200824003200824112-116053     200824006006438002399TCS CARRIER BAG 38L    0000001000+00000069+00000+0001T   00000069+0000001417          1400 J84090               2BZ
200825000200825               200825               170213N7     1400+00000+N70000004645+0000004645+000000000+000000652+0000005290+0000000007+I20000000000+0000005290+Z
200825001200825077-000311     200825006001023608666GIFT-BAG 11X14CM GLOSS 0000001000+00000613+00000+0001T   00000613+0000001420          1400 J84112               2BZ
200825002200825018-000129     200825006001023403353MUG OCC. LOVE V-SHAPE  0000001000+00002630+00000+0001T   00002630+0000001420          1400 J84515               2BZ
200825003200825304-001204     200825006001023737984FLOWER OCC. TEDDY/ROSES0000001000+00001402+00000+0001T   00001490+0006471420          1400 J84510               2BZ
200826000200826               200826               170213N7     1400+00000+N70000013637+0000013637+000000000+000001912+0000015540+0000000009+I20000000000+0000015540+Z
200826001200826077-000512     200826006003000590223GIFT-BAG DESIGNER LRG  0000001000+00002630+00000+0001T   00002630+0000001422          1400 J84112               2BZ
200826002200826077-000297     200826006001023869814GIFT BOX OCCASIONS SQRE0000001000+00001753+00000+0001T   00001753+0000001422          1400 J84112               2BZ
200826003200826077-000239     200826006003000160419GIFT-RIBBON ROLL PEARL 0000001000+00001753+00000+0001T   00001753+0000001422          1400 J84112               2BZ
200826004200826162-093298     200826006001492932989#TAG OWL PENDANT NK    0000001000+00005262+00000+0001T   00005262+0000001422          1400 J84160               2BZ
200826005200826077-000303     200826006001023593757GIFT-BAG PAPER MED     0000001000+00001578+00000+0001T   00001578+0000001422          1400 J84112               2BZ
200826006200826112-116069     200826006009681820277TCS CARRIER BAG JUMBO  0000001000+00000048+00000+0001T   00000048+0000001422          1400 J84090               2BZ
200826007200826304-001011     200826006001023806727FLWR ROSE RED W/BEAR   0000001000+00000613+00000+0001T   00000788+0006471422          1400 J84510               2BZ
200827000200827               200827               170213N7     1400+00000+N70000019730+0000019730+000000000+000002765+0000022495+0000000000+I40000022495+0000000000+Z
200827001200827077-000457     200827006003000285662G/BAG METALLIC JMB SOL 0000001000+00001753+00000+0001T   00001753+0000001428          1400 J84112               2BZ
200827002200827301-085003     200827006003000420827ORN OCCASION LOVE KEY  0000001000+00005262+00000+0001T   00005262+0000001428          1400 J84505               2BZ
200827003200827080-000133-A   200827006003000647019MINI VALENTINES CARD   0000001000+00000437+00000+0001T   00000437+0000001428          1400 J84112               2BZ
200827004200827108-007000     200827006008766085105SERVING-TABLE          0000002000+00006139+00000+0001T   00006139+0000001428          1400 J84210               2BZ
200828000200828               200828               170213N7     1400+00000+N70000001753+0000001753+000000000+000000246+0000001990+0000000009+I20000000000+0000001990+Z
200828001200828903-000912     200828006009802868461SWT GUM TAPE HOT WHEELS0000001000+00001753+00000+0001T   00001753+0000001444          1400 J84150               2BZ
200829000200829               200829               170213N7     1400+00000+N70000014694+0000014694+000000000+000002058+0000016752+0000000000+I40000016752+0000000000+Z
200829001200829006-000190     200829006003000685530BALLOONS LOVE 81x91cm  0000001000+00004385+00000+0001T   00004385+0000001446          1400 J84131               2BZ
200829002200829001-091415     200829006003000329113W/GLS OCC. LOVE 2PC 2800000001000+00008771+00000+0001T   00009648+0006471446          1400 J84515               2BZ
200829003200829077-000299     200829006003000395576G/BAG 32x25cm LRG LOVE 0000001000+00001490+00000+0001T   00001490+0000001446          1400 J84112               2BZ
200829004200829112-116069     200829006009681820277TCS CARRIER BAG JUMBO  0000001000+00000048+00000+0001T   00000048+0000001446          1400 J84090               2BZ
200830000200830               200830               170213N7     1400+00000+N70000004368-0000004368-000000000+000000612-0000004980-0000000000+I20000000000+0000004980-Z
200830001200830001-999907     200830000000000999907CLEANING-MATERIALS     0000001000-00004368+00000+0001T   00000000+0000001621          1400 J849072IC            2 Z
200831000200831               200831               170213N7     1400+00000+N70000010962+0000010962+000000000+000001536+0000012498+0000000000+I40000012498+0000000000+Z
200831001200831361-009104     200831006001023619365DOLL ACCESSORY STROLLER0000001000+00007016+00000+0001T   00007016+0000001623          1400 J84725               2BZ
200831002200831007-000047     200831006009635833698FILE DISPLAY-BK A4 50PG0000001000+00003946+00000+0001T   00003946+0000001623          1400 J84130               2BZ
200832000200832               200832               170213N7     1400+00000+N70000006562+0000006562+000000000+000000927+0000007489+0000000000+I40000007489+0000000000+Z
200832001200832080-000133-A   200832006003000647019MINI VALENTINES CARD   0000010000+00000437+00000+0001T   00000437+0000001640          1400 J84112               2BZ
200832002200832566-000359     200832006003000582709STICKER BOOK LOVE SPARK0000001000+00002192+00000+0001T   00002192+0000001640          1400 J84130               2BZ
200833000200833               200833               170213N7     1400+00000+N70000009029+0000009029+000000000+000001265+0000010294+0000000000+I40000010294+0000000000+Z
200833001200833089-000018     200833006003000176724KEY CHAIN INSPIRATION  0000002000+00003507+00000+0001T   00003507+0000001642          1400 J84205               2BZ
200833002200833080-000133-A   200833006003000647019MINI VALENTINES CARD   0000001000+00000437+00000+0001T   00000437+0000001642          1400 J84112               2BZ
200833003200833077-000303     200833006001023593757GIFT-BAG PAPER MED     0000001000+00001578+00000+0001T   00001578+0000001642          1400 J84112               2BZ
200834000200834               200834               170213N7     1400+00000+N70000001788+0000001788+000000000+000000251+0000002039+0000000000+I40000002039+0000000000+Z
200834001200834077-000382     200834006003000247820GIFT-BAG MED 18X23CM   0000001000+00001753+00000+0001T   00001753+0000001643          1400 J84112               2BZ
200834002200834112-116038     200834006009681820246TCS CARRIER BAG MIDI   0000001000+00000035+00000+0001T   00000035+0000001643          1400 J84090               2BZ
200835000200835               200835               170213N7     1400+00000+N70000007016+0000007016+000000000+000000983+0000007990+0000000009+I20000000000+0000007990+Z
200835001200835107-004500     200835006003000150557STEP STOOL PL          0000001000+00007016+00000+0001T   00007016+0000001644          1400 J84210               2BZ
200836000200836               200836               170213N7     1400+00000+N70000007927+0000007927+000000000+000001110+0000009030+0000000007+I20000000000+0000009030+Z
200836001200836301-085004     200836006003000420469ORN LOVE PLAQUE 21X10CM0000001000+00003507+00000+0001T   00003946+0006471645          1400 J84505               2BZ
200836002200836018-030000     200836006003000421060MUG OCCASIONS LOVE 2PCE0000001000+00004385+00000+0001T   00004385+0000001645          1400 J84515               2BZ
200836003200836112-116038     200836006009681820246TCS CARRIER BAG MIDI   0000001000+00000035+00000+0001T   00000035+0000001645          1400 J84090               2BZ
200837000200837               200837               170213N7     1400+00000+N70000018110+0000018110+000000000+000002539+0000020640+0000000009+I20000000000+0000020640+Z
200837001200837018-050000     200837006003000412679MUG OCC LOVE TWIN BEAR 0000001000+00006139+00000+0001T   00006139+0000001655          1400 J84515               2BZ
200837002200837077-000351     200837006003000139033GIFT-BAG 18X23CM E/D P 0000001000+00001753+00000+0001T   00001753+0000001655          1400 J84112               2BZ
200837003200837033-001365     200837006001023802118HAIR CLIPS 200PC ASSTD 0000001000+00002630+00000+0001T   00002630+0000001655          1400 J84200               2BZ
200837004200837304-001204     200837006001023737984FLOWER OCC. TEDDY/ROSES0000001000+00001402+00000+0001T   00001490+0006471655          1400 J84510               2BZ
200837005200837903-000619     200837006003000672455SWT LOLLY STR/BRRY 140G0000001000+00001753+00000+0001T   00001753+0000001655          1400 J84150               2BZ
200837006200837368-000001     200837006003000097982Plush Bear 25cm        0000001000+00004385+00000+0001T   00004385+0000001655          1400 J84745               2BZ
200837007200837112-116069     200837006009681820277TCS CARRIER BAG JUMBO  0000001000+00000048+00000+0001T   00000048+0000001655          1400 J84090               2BZ
200838000200838               200838               170213N7     1400+00000+N70000003943+0000003943+000000000+000000553+0000004490+0000000006+I20000000000+0000004490+Z
200838001200838301-085002     200838006003000420704ORN OCC. LOVE BELL ASST0000001000+00001753+00000+0001T   00002630+0008121705          1400 J84505               2BZ
200838002200838903-000123     200838006925925909280SWEET GS MINI MALLOWS  0000001000+00000876+00000+0001T   00000876+0000001705          1400 J84150               2BZ
200838003200838077-000310     200838006001023608635GIFT-BAG 18X23CM GLOSS 0000001000+00001314+00000+0001T   00001314+0000001705          1400 J84112               2BZ
200839000200839               200839               170213N7     1400+00000+N70000004559+0000004559+000000000+000000639+0000005190+0000000008+I20000000000+0000005190+Z
200839001200839077-000299     200839006003000395576G/BAG 32x25cm LRG LOVE 0000001000+00001490+00000+0001T   00001490+0000001706          1400 J84112               2BZ
200839002200839030-000030-A   200839006003000249305PLAQUE GLASS LOVE      0000001000+00003069+00000+0001T   00003069+0000001706          1400 J84505               2BZ
200840000200840               200840               170213N7     1400+00000+N70000001227+0000001227+000000000+000000172+0000001390+0000000009+I20000000000+0000001390+Z
200840001200840077-000245     200840006001023759214GIFT-RIBBON METALLICx2 0000001000+00001227+00000+0001T   00001227+0000001707          1400 J84112               2BZ
200841000200841               200841               170213N7     1400+00000+N70000001613+0000001613+000000000+000000226+0000001839+0000000000+I40000001839+0000000000+Z
200841001200841018-000127     200841006001023380289MUG OCC STRAIGHT LOVE  0000001000+00001578+00000+0001T   00001753+0006471714          1400 J84515               2BZ
200841002200841112-116038     200841006009681820246TCS CARRIER BAG MIDI   0000001000+00000035+00000+0001T   00000035+0000001714          1400 J84090               2BZ
200842000200842               200842               170213N7     1400+00000+N70000010740+0000010740+000000000+000001507+0000012247+0000000000+I40000012247+0000000000+Z
200842001200842361-000664     200842006003000157402DOLL BIG EYE BEAUTY    0000001000+00003507+00000+0001T   00004385+0008191718          1400 J84725               2BZ
200842002200842080-000133-A   200842006003000647019MINI VALENTINES CARD   0000002000+00000437+00000+0001T   00000437+0000001718          1400 J84112               2BZ
200842003200842567-011344     200842006003000630714BK COLOURING THERAPY 640000001000+00003507+00000+0001T   00003507+0000001718          1400 J84757               2BZ
200842004200842079-000206     200842006003000639700PENCIL CRAYONS THERAPY 0000001000+00001753+00000+0001T   00001753+0000001718          1400 J84130               2BZ
200842005200842112-116069     200842006009681820277TCS CARRIER BAG JUMBO  0000001000+00000048+00000+0001T   00000048+0000001718          1400 J84090               2BZ
200842006200842903-002890     200842008935001721352MENTOS GUM PURE F/MINT 0000001000+00001051+00000+0001T   00001051+0000001718          1400 J84150               2BZ
200843000200843               200843               170213N7     1400+00000+N70000003505+0000003505+000000000+000000491+0000003990+0000000006+I20000000000+0000003990+Z
200843001200843077-000310     200843006001023608635GIFT-BAG 18X23CM GLOSS 0000001000+00001314+00000+0001T   00001314+0000001719          1400 J84112               2BZ
200843002200843018-000127     200843006001023380289MUG OCC STRAIGHT LOVE  0000001000+00001578+00000+0001T   00001753+0006471719          1400 J84515               2BZ
200843003200843304-001011     200843006001023806727FLWR ROSE RED W/BEAR   0000001000+00000613+00000+0001T   00000788+0006471719          1400 J84510               2BZ
200844000200844               200844               170213N7     1400+00000+N70000002190+0000002190+000000000+000000308+0000002498+0000000000+I40000002498+0000000000+Z
200844001200844080-000133-A   200844006003000647019MINI VALENTINES CARD   0000001000+00000437+00000+0001T   00000437+0000001720          1400 J84112               2BZ
200844002200844301-085002     200844006003000420704ORN OCC. LOVE BELL ASST0000001000+00001753+00000+0001T   00002630+0008121720          1400 J84505               2BZ
200845000200845               200845               170213N7     1400+00000+N70000007500+0000007500+000000000+000001052+0000008552+0000000000+I40000008552+0000000000+Z
200845001200845036-000151     200845006001023810588COATHANGERS    PACK-10 0000001000+00002893+00000+0001T   00002893+0000001721          1400 J84212               2BZ
200845002200845036-000014     200845006001246500822LINT REMOVER 40x SHEET 0000001000+00003946+00000+0001T   00003946+0000001721          1400 J84212               2BZ
200845003200845112-116069     200845006009681820277TCS CARRIER BAG JUMBO  0000001000+00000048+00000+0001T   00000048+0000001721          1400 J84090               2BZ
200845004200845083-000055     200845006003000003853LIGHTER ELCTRNC REFILBL0000001000+00000613+00000+0001T   00000613+0000001721          1400 J84315               2BZ
200846000200846               200846               170213N7     1400+00000+N70000008710+0000008710+000000000+000001223+0000009933+0000000000+I40000009933+0000000000+Z
200846001200846046-000015     200846006001023680839BATTERIES SIZE:D   2PCE0000002000+00002367+00000+0001T   00002367+0000001724          1400 J84312               2BZ
200846002200846046-000012     200846006904708013062BATTERIES AA  CARD-OF-40000001000+00001314+00000+0001T   00001314+0000001724          1400 J84312               2BZ
200846003200846046-002025-PK2 200846004897006174868BATTERIES CR-2025  2PCE0000001000+00001753+00000+0001T   00001753+0000001724          1400 J84312               2BZ
200846004200846080-000133-A   200846006003000647019MINI VALENTINES CARD   0000002000+00000437+00000+0001T   00000437+0000001724          1400 J84112               2BZ
200846005200846112-116038     200846006009681820246TCS CARRIER BAG MIDI   0000001000+00000035+00000+0001T   00000035+0000001724          1400 J84090               2BZ
200847000200847               200847               170213N7     1400+00000+N70000003156+0000003156+000000000+000000442+0000003598+0000000000+I40000003598+0000000000+Z
200847001200847566-001234     200847006003000217793STICKERS LASER ASSTD   0000002000+00001578+00000+0001T   00001578+0000001726          1400 J84130               2BZ
200848000200848               200848               170213N7     1400+00000+N70000001139+0000001139+000000000+000000160+0000001290+0000000009+I20000000000+0000001290+Z
200848001200848007-010192     200848006009635830536BOOK H/COVER A5 192PAGE0000001000+00001139+00000+0001T   00001139+0000001727          1400 J84130               2BZ
200849000200849               200849               170213N7     1400+00000+N70000007190+0000007190+000000000+000001007+0000008190+0000000007+I20000000000+0000008190+Z
200849001200849006-000190     200849006003000685530BALLOONS LOVE 81x91cm  0000001000+00004385+00000+0001T   00004385+0000001727          1400 J84131               2BZ
200849002200849304-001011     200849006001023806727FLWR ROSE RED W/BEAR   0000001000+00000613+00000+0001T   00000788+0006471727          1400 J84510               2BZ
200849003200849080-000127     200849006003000424351VALENTINES DAY 36x24CM 0000001000+00002192+00000+0001T   00002192+0000001727          1400 J84112               2BZ
200850000200850               200850               170213N7     1400+00000+N70000017710+0000017710+000000000+000002482+0000020192+0000000000+I40000020192+0000000000+Z
200850001200850903-000095     200850006001704011495SWT SPECKLED-EGGS 100G 0000001000+00002104+00000+0001T   00002104+0000001734          1400 J84150               2BZ
200850002200850018-005009     200850006001023725608MUG W/PLUSH-BEAR LOVE  0000001000+00003507+00000+0001T   00003507+0000001734          1400 J84515               2BZ
200850003200850077-000303     200850006001023593757GIFT-BAG PAPER MED     0000001000+00001578+00000+0001T   00001578+0000001734          1400 J84112               2BZ
200850004200850304-001204     200850006001023737984FLOWER OCC. TEDDY/ROSES0000001000+00001402+00000+0001T   00001490+0006471734          1400 J84510               2BZ
200850005200850368-000175     200850006003000270316PLUSH BEAR 4 ASSTD 18CM0000001000+00006139+00000+0001T   00006139+0000001734          1400 J84745               2BZ
200850006200850304-001204     200850006001023737984FLOWER OCC. TEDDY/ROSES0000001000+00001402+00000+0001T   00001490+0006471734          1400 J84510               2BZ
200850007200850077-000303     200850006001023593757GIFT-BAG PAPER MED     0000001000+00001578+00000+0001T   00001578+0000001734          1400 J84112               2BZ
200851000200851               200851               170213N7     1400+00000+N70000008771+0000008771+000000000+000001228+0000009999+0000000000+I40000009999+0000000000+Z
200851001200851001-091415     200851006003000329113W/GLS OCC. LOVE 2PC 2800000001000+00008771+00000+0001T   00009648+0006471738          1400 J84515               2BZ
200852000200852               200852               170213N7     1400+00000+N70000008771+0000008771+000000000+000001228+0000009999+0000000000+I40000009999+0000000000+Z
200852001200852039-000799     200852006001023692382CANDLES TEALITE 100PCE 0000001000+00008771+00000+0001T   00008771+0000001739          1400 J84510               2BZ
200853000200853               200853               170213N7     1400+00000+N70000001753+0000001753+000000000+000000246+0000001990+0000000009+I20000000000+0000001990+Z
200853001200853080-000117     200853006003000236350CARD & ENVELOPE THANK U0000001000+00001753+00000+0001T   00001753+0000001744          1400 J84112               2BZ
200854000200854               200854               170213N7     1400+00000+N70000007060+0000007060+000000000+000000991+0000008051+0000000000+I40000008051+0000000000+Z
200854001200854051-006100     200854006003000267170GARDEN KID TOOLSET 3PCE0000001000+00002630+00000+0001T   00002630+0000001746          1400 J84820               2BZ
200854002200854019-000130     200854006003000456130PLANTER T/PLATE W/HNDL 0000002000+00001753+00000+0001T   00001753+0000001746          1400 J84510               2BZ
200854003200854112-116069     200854006009681820277TCS CARRIER BAG JUMBO  0000001000+00000048+00000+0001T   00000048+0000001746          1400 J84090               2BZ
200854004200854077-000011-E   200854006001023808646TISSUE-WRAP PINK 10PCE 0000001000+00000876+00000+0001T   00000876+0000001746          1400 J84112               2BZ
200855000200855               200855               170213N7     1400+00000+N70000004781+0000004781+000000000+000000670+0000005450+0000000001+I20000000000+0000005450+Z
200855001200855304-001011     200855006001023806727FLWR ROSE RED W/BEAR   0000001000+00000613+00000+0001T   00000788+0006471748          1400 J84510               2BZ
200855002200855018-005009     200855006001023725608MUG W/PLUSH-BEAR LOVE  0000001000+00003507+00000+0001T   00003507+0000001748          1400 J84515               2BZ
200855003200855304-001011     200855006001023806727FLWR ROSE RED W/BEAR   0000001000+00000613+00000+0001T   00000788+0006471748          1400 J84510               2BZ
200855004200855112-116069     200855006009681820277TCS CARRIER BAG JUMBO  0000001000+00000048+00000+0001T   00000048+0000001748          1400 J84090               2BZ
200856000200856               200856               170213N7     1400+00000+N70000004385+0000004385+000000000+000000614+0000004990+0000000009+I20000000000+0000004990+Z
200856001200856368-000001     200856006003000097982Plush Bear 25cm        0000001000+00004385+00000+0001T   00004385+0000001748          1400 J84745               2BZ
200857000200857               200857               170213N7     1400+00000+N70000004383+0000004383+000000000+000000615+0000004998+0000000000+I40000004998+0000000000+Z
200857001200857007-000714     200857006003000227150NOTE-BK A6 WIRO 80SHTS 0000001000+00002630+00000+0001T   00002630+0000001750          1400 J84130               2BZ
200857002200857079-000341     200857006920705495519FELT-TIP PENS 12PCE    0000001000+00001753+00000+0001T   00001753+0000001750          1400 J84130               2BZ
200858000200858               200858               170213N7     1400+00000+N70000004385+0000004385+000000000+000000614+0000004999+0000000000+I40000004999+0000000000+Z
200858001200858368-000001     200858006003000097982Plush Bear 25cm        0000001000+00004385+00000+0001T   00004385+0000001755          1400 J84745               2BZ
200859000200859               200859               170213N7     1400+00000+N70000001490+0000001490+000000000+000000209+0000001690+0000000009+I20000000000+0000001690+Z
200859001200859079-006494     200859006003000159864GLITTER GLUE 5PCE 11cm 0000001000+00001490+00000+0001T   00001490+0000001757          1400 J84130               2BZ
A17021300                                          10134038N7SLAVE 2                       J843IC
A17021301                                          12142871N7SLAVE 2                       J843IC
A17021302                                          16022088N7SLAVE 2                       J843IC
M17021301                              IT DEPT     N7ATT IT DEPT                                     LAST TILL SLIP ON                               SLAVE 200859                                    THANKS N7
M17021391                              CASH        N7SLAVE 2                       Z-REPORT No.   509TOTAL (Sales - Refunds)           3841.17       CASH TO BE BANKED                 1602.90       DEBIT CARDS                          0.00       CREDIT CARDS                      2188.47       Z-READING                         3791.37       AIRTIME DEBIT CARD SALES             0.00       AIRTIME CARD SALES                   0.00       OVERS/UNDERS                         0.00       AIRTIME CASH SALES                   0.00       GIFT CARDS                           0.00       GIFT CARD CASH SALES                 0.00       CLEANING-MATERIALS                  49.80       T O T A L  CASH PAYOUTS             49.80                                                                                                                                                                                                                                                                                                      Z
M17021392                              CASH        N7ABSENT                                                                                                                                                                                          ANNUAL LEAVE                                                                                                                                                                                    DAY OFF                                                                                                                                                                                         COMMENTS                                                                                                                                                                                                                                                                                                                                                                                       Z
Y17021300                                          N700000000337093+000055
ZN717021320083 SLAVE 2      SALES DATA                     NEXT INVOICE NO.  200860 0509
X N7 Slave 2 First invoice 200804 170213 Last invoice 200859 170213 Next invoice 200860 Total number of records 000000202 clbackup completed 20:08:45
