202099000202099               202099               170213N8     1400+00000+N80000003507+0000003507+000000000+000000491+0000003998+0000000000+I40000003998+0000000000+Z
202099001202099562-000052     202099006003000112333EDU EXCAVATION DIAMOND 0000001000+00003507+00000+0001T   00003507+0000000917          1400 HT9755               2AZ
202100000202100               202100               170213N8     1400+00000+N80000006575+0000006575+000000000+000000922+0000007490+0000000007+I20000000000+0000007490+Z
202100001202100039-000320     202100006001023816153BIRTHDAY-CANDLES 13PCE 0000001000+00002630+00000+0001T   00002630+0000000919          1400 HT9510               2AZ
202100002202100077-000457     202100006003000285662G/BAG METALLIC JMB SOL 0000001000+00001753+00000+0001T   00001753+0000000919          1400 HT9112               2AZ
202100003202100077-000309-A   202100006003000671007GIFT-BAG HOLOGRAM JMB  0000001000+00002192+00000+0001T   00002192+0000000919          1400 HT9112               2AZ
202101000202101               202101               170213N8     1400+00000+N80000022600+0000022600+000000000+000003168+0000025768+0000000000+I40000025768+0000000000+Z
202101001202101024-091106     202101006003000443130C/STAND PAPER 3-TIER   0000003000+00003507+00000+0001T   00003507+0000000924          1400 HT9300               2AZ
202101002202101564-000011     202101006001023865892BUBBLE REFILL 350ml    0000004000+00002630+00000+0001T   00002630+0000000924          1400 HT9131               2AZ
202101003202101466-001801     202101006001023343482BALLS TABLE-TENNIS BOX60000001000+00001490+00000+0001T   00001490+0000000924          1400 HT9785               2AZ
202101004202101112-116053     202101006006438002399TCS CARRIER BAG 38L    0000001000+00000069+00000+0001T   00000069+0000000924          1400 HT9090               2AZ
202102000202102               202102               170213N8     1400+00000+N80000002138+0000002138+000000000+000000300+0000002438+0000000000+I40000002438+0000000000+Z
202102001202102903-000155     202102006009803374435SWT LOLLY I LUV U HEART0000001000+00000525+00000+0001T   00000525+0000000934          1400 HT9150               2AZ
202102002202102018-000127     202102006001023380289MUG OCC STRAIGHT LOVE  0000001000+00001578+00000+0001T   00001753+0006470934          1400 HT9515               2AZ
202102003202102112-116038     202102006009681820246TCS CARRIER BAG MIDI   0000001000+00000035+00000+0001T   00000035+0000000934          1400 HT9090               2AZ
202103000202103               202103               170213N8     1400+00000+N80000024558+0000024558+000000000+000003440+0000027998+0000000000+I40000027998+0000000000+Z
202103001202103368-000111     202103006001023780812PLUSH BEAR/DOG 29CM    0000002000+00012279+00000+0001T   00012279+0000001013          1400 HT9745               2AZ
202104000202104               202104               170213N8     1400+00000+N80000003490-0000000000+000000000+000000000+0000003490-0000000000+I20000000000+0000003490-Z
202104001202104001-999909     202104000000000999909STAFF-REFRESHMENTS     0000001000-00003490+00000+0001X   00000000+0000001014          0000 HT99091IC            2 Z
202105000202105               202105               170213N8     1400+00000+N80000008770+0000008770+000000000+000001228+0000009990+0000000008+I20000000000+0000009990+Z
202105001202105082-000110     202105006003000360482READING GLS STRENGHT:2 0000001000+00004385+00000+0001T   00004385+0000001016          1400 HT9160               2AZ
202105002202105082-000120     202105006003000360727READING GLS STRENGTH:3 0000001000+00004385+00000+0001T   00004385+0000001016          1400 HT9160               2AZ
202106000202106               202106               170213N8     1400+00000+N80000014058+0000014058+000000000+000001972+0000016030+0000000000+I20000000000+0000016030+Z
202106001202106903-000844     202106005010478432567SWT CANDY DL LUV HEARTS0000001000+00001314+00000+0001T   00001314+0000001024          1400 HT9150               2AZ
202106002202106089-000187     202106006003000594245KEY CHAIN PVC DUCK 3.5 0000001000+00001314+00000+0001T   00001314+0000001024          1400 HT9205               2AZ
202106003202106046-002032-PK2 202106004897006175063BATTERIES CR-2032  2PCE0000004000+00001753+00000+0001T   00001753+0000001024          1400 HT9312               2AZ
202106004202106077-000005-B   202106006003000326617PAPER TISSUE PATTERN   0000001000+00002630+00000+0001T   00002630+0000001024          1400 HT9112               2AZ
202106005202106089-000028     202106006003000253999K/CHAIN MTL RELIGIOUS  0000001000+00001753+00000+0001T   00001753+0000001024          1400 HT9205               2AZ
202106006202106112-116038     202106006009681820246TCS CARRIER BAG MIDI   0000001000+00000035+00000+0001T   00000035+0000001024          1400 HT9090               2AZ
202107000202107               202107               170213N8     1400+00000+N80000002630+0000002630+000000000+000000369+0000002990+0000000009+I20000000000+0000002990+Z
202107001202107567-075466     202107006001023644572BK NOVEL ROMANCE       0000001000+00002630+00000+0001T   00002630+0000001029          1400 HT9757               2AZ
202108000202108               202108               170213N8     1400+00000+N80000023714+0000023714+000000000+000003321+0000027035+0000000000+I40000027035+0000000000+Z
202108001202108018-019000     202108006003000557288MUG OCC. LOVE JUMBO    0000002000+00005262+00000+0001T   00005262+0000001031          1400 HT9515               2AZ
202108002202108006-000190     202108006003000685530BALLOONS LOVE 81x91cm  0000003000+00004385+00000+0001T   00004385+0000001031          1400 HT9131               2AZ
202108003202108112-116038     202108006009681820246TCS CARRIER BAG MIDI   0000001000+00000035+00000+0001T   00000035+0000001031          1400 HT9090               2AZ
202109000202109               202109               170213N8     1400+00000+N80000002189+0000002189+000000000+000000308+0000002490+0000000007+I20000000000+0000002490+Z
202109001202109252-000013     202109006001023488107CURTN-HOOK R6 ACETYLx500000002000+00000876+00000+0001T   00000876+0000001032          1400 HT9810               2AZ
202109002202109162-087855     202109006001492878553SS LARGE GOLD HOOP     0000001000+00000437+00000+0001T   00000437+0000001032          1400 HT9160               2AZ
202110000202110               202110               170213N8     1400+00000+N80000005693+0000005693+000000000+000000800+0000006493+0000000000+I40000006493+0000000000+Z
202110001202110903-000087     202110006001704000161SWT SPECKLED-EGGS 50G  0000002000+00001139+00000+0001T   00001139+0000001033          1400 HT9150               2AZ
202110002202110903-000200     202110006009826020234SWT CHOC RP CHOCO 23G  0000002000+00000788+00000+0001T   00000788+0000001033          1400 HT9150               2AZ
202110003202110077-000311     202110006001023608666GIFT-BAG 11X14CM GLOSS 0000003000+00000613+00000+0001T   00000613+0000001033          1400 HT9112               2AZ
202111000202111               202111               170213N8     1400+00000+N80000005080+0000005080+000000000+000000712+0000005790+0000000002+I20000000000+0000005790+Z
202111001202111077-000310     202111006001023608635GIFT-BAG 18X23CM GLOSS 0000002000+00001314+00000+0001T   00001314+0000001034          1400 HT9112               2AZ
202111002202111077-000311     202111006001023608666GIFT-BAG 11X14CM GLOSS 0000004000+00000613+00000+0001T   00000613+0000001034          1400 HT9112               2AZ
202112000202112               202112               170213N8     1400+00000+N80000007016+0000007016+000000000+000000983+0000007999+0000000000+I40000007999+0000000000+Z
202112001202112018-000132     202112006003000580361MUG OCC. DAD W/TROPHY  0000001000+00007016+00000+0001T   00007016+0000001037          1400 HT9515               2AZ
202113000202113               202113               170213N8     1400+00000+N80000001578+0000001578+000000000+000000221+0000001799+0000000000+I40000001799+0000000000+Z
202113001202113018-000127     202113006001023380289MUG OCC STRAIGHT LOVE  0000001000+00001578+00000+0001T   00001753+0006471237          1400 HT9515               2AZ
202114000202114               202114               170213N8     1400+00000+N80000012710+0000012710+000000000+000001783+0000014493+0000000000+I40000014493+0000000000+Z
202114001202114140-001007     202114006001023617163FLY-STICK STAND 260x36 0000002000+00003069+00000+0001T   00003069+0000001240          1400 HT9830               2AZ
202114002202114039-000114     202114006001023524058CANDLE T/LITE RED 3.5CM0000001000+00001753+00000+0001T   00001753+0000001240          1400 HT9510               2AZ
202114003202114563-000318-L   202114006003000407088SERVIETTES 33cm RED    0000001000+00002192+00000+0001T   00002192+0000001240          1400 HT9214               2AZ
202114004202114077-000005-D   202114006003000414567PAPER TISSUE 50x70cm   0000001000+00001753+00000+0001T   00001753+0000001240          1400 HT9112               2AZ
202114005202114080-000133-A   202114006003000647019MINI VALENTINES CARD   0000002000+00000437+00000+0001T   00000437+0000001240          1400 HT9112               2AZ
202115000202115               202115               170213N8     1400+00000+N80000011133+0000011133+000000000+000001562+0000012695+0000000000+I40000012695+0000000000+Z
202115001202115027-056188     202115006003000570539DISH BRUSH LADY SHAPE  0000001000+00002630+00000+0001T   00002630+0000001242          1400 HT9212               2AZ
202115002202115027-000409     202115006001023731012SCRUBBING-BRUSH 15,5cm 0000001000+00001753+00000+0001T   00001753+0000001242          1400 HT9212               2AZ
202115003202115251-000003     202115006003000266159TAPE D/S 18x300mm V/PCK0000001000+00002630+00000+0001T   00002630+0000001242          1400 HT9810               2AZ
202115004202115565-004101     202115006003000548033BALL BOUNCING EGG      0000001000+00001490+00000+0001T   00001490+0000001242          1400 HT9745               2AZ
202115005202115083-000058     202115006003000400331LIGHTER JET CIGAR REFIL0000001000+00002630+00000+0001T   00002630+0000001242          1400 HT9315               2AZ
202116000202116               202116               170213N8     1400+00000+N80000004646+0000004646+000000000+000000651+0000005290+0000000007+I20000000000+0000005290+Z
202116001202116565-000071     202116006003000643387NOVELTY WIND UP CHATTER0000001000+00001139+00000+0001T   00001139+0000001252          1400 HT9745               2AZ
202116002202116162-098802     202116006001492988023#TAG 6PK HAIRBANDS     0000001000+00003507+00000+0001T   00003507+0000001252          1400 HT9160               2AZ
202117000202117               202117               170213N8     1400+00000+N80000027408+0000027408+000000000+000003838+0000031246+0000000000+I40000031246+0000000000+Z
202117001202117306-000969     202117006003000559350FIRSTAID PLASTER 10PC  0000001000+00001490+00000+0001T   00001490+0000001257          1400 HT9200               2AZ
202117002202117024-000140     202117006001023902429N/STICK S/FORM 25X6CM  0000001000+00013157+00000+0001T   00013157+0000001257          1400 HT9300               2AZ
202117003202117567-011354     202117006003000638161BK STICKER PRINCESS    0000001000+00003507+00000+0001T   00003507+0000001257          1400 HT9757               2AZ
202117004202117567-011348     202117009780709717638BK STICKER ANIMAL WORLD0000001000+00003507+00000+0001T   00003507+0000001257          1400 HT9757               2AZ
202117005202117567-011438     202117009780857260628BK ACTIVITY BOYS STICKE0000001000+00003507+00000+0001T   00003507+0000001257          1400 HT9757               2AZ
202117006202117080-000127     202117006003000424351VALENTINES DAY 36x24CM 0000001000+00002192+00000+0001T   00002192+0000001257          1400 HT9112               2AZ
202117007202117112-116069     202117006009681820277TCS CARRIER BAG JUMBO  0000001000+00000048+00000+0001T   00000048+0000001257          1400 HT9090               2AZ
202118000202118               202118               170213N8     1400+00000+N80000011400+0000011400+000000000+000001597+0000012997+0000000000+I40000012997+0000000000+Z
202118001202118001-091415     202118006003000329113W/GLS OCC. LOVE 2PC 2800000001000+00008771+00000+0001T   00009648+0006471259          1400 HT9515               2AZ
202118002202118077-000382     202118006003000247820GIFT-BAG MED 18X23CM   0000001000+00001753+00000+0001T   00001753+0000001259          1400 HT9112               2AZ
202118003202118077-000011-C   202118006001023808523TISSUE 10xSHTS RED     0000001000+00000876+00000+0001T   00000876+0000001259          1400 HT9112               2AZ
202119000202119               202119               170213N8     1400+00000+N80000008713+0000008713+000000000+000001222+0000009935+0000000000+I40000009935+0000000000+Z
202119001202119565-001212     202119006001023658173NOVELTY MAGIC-SPRING   0000001000+00001753+00000+0001T   00001753+0000001308          1400 HT9745               2AZ
202119002202119006-000120     202119006001023346889BALLOONS 10PC MIX COL  0000001000+00001753+00000+0001T   00001753+0000001308          1400 HT9131               2AZ
202119003202119077-000011-C   202119006001023808523TISSUE 10xSHTS RED     0000001000+00000876+00000+0001T   00000876+0000001308          1400 HT9112               2AZ
202119004202119031-000864-A   202119006001023798350P/FRAME MAHOGANY 10X15 0000001000+00003069+00000+0001T   00003069+0000001308          1400 HT9510               2AZ
202119005202119200-000092     202119006003000576739PICNIC PAPER PLATES 23c0000001000+00001227+00000+0001T   00001227+0000001308          1400 HT9214               2AZ
202119006202119112-116038     202119006009681820246TCS CARRIER BAG MIDI   0000001000+00000035+00000+0001T   00000035+0000001308          1400 HT9090               2AZ
202120000202120               202120               170213N8     1400+00000+N80000057943+0000057943+000000000+000008119+0000066062+0000000000+I40000066062+0000000000+Z
202120001202120077-000309-A   202120006003000671007GIFT-BAG HOLOGRAM JMB  0000001000+00002192+00000+0001T   00002192+0000001316          1400 HT9112               2AZ
202120002202120567-011350     202120009780709716662BK STICKER COLOUR DOT  0000001000+00003507+00000+0001T   00003507+0000001316          1400 HT9757               2AZ
202120003202120031-000924     202120006001023669964P/FRAME COLLAGE PL     0000001000+00008771+00000+0001T   00008771+0000001316          1400 HT9510               2AZ
202120004202120369-000042     202120006001023993854BABY BEAR RATTLE ASSTD 0000002000+00004385+00000+0001T   00004385+0000001316          1400 HT9745               2AZ
202120005202120264-000915     202120000090159151074MAISTO FRESH PAINT     0000001000+00004385+00000+0001T   00004385+0000001316          1400 HT9710               2AZ
202120006202120024-000002     202120006001023741899S/BURNER-COVER SILV/BLK0000001000+00003946+00000+0001T   00004385+0008191316          1400 HT9300               2AZ
202120007202120077-000309     202120006001023608604GIFT-BAG 25X32CM GLOSS 0000001000+00001753+00000+0001T   00001753+0000001316          1400 HT9112               2AZ
202120008202120106-001109     202120006003000666355W/BOTTLE 650ml         0000001000+00002630+00000+0001T   00002630+0000001316          1400 HT9210               2AZ
202120009202120106-008100     202120006001023764126MEASURING-SHAKER 500ml 0000001000+00002630+00000+0001T   00002630+0000001316          1400 HT9210               2AZ
202120010202120369-000500     202120006003000478767BABY KEYS & REMOTE     0000001000+00007893+00000+0001T   00007893+0000001316          1400 HT9745               2AZ
202120011202120037-000006     202120006003000171996ASHTRAY PL TUB GIANT   0000002000+00002630+00000+0001T   00003069+0008191316          1400 HT9515               2AZ
202120012202120039-081008     202120006008766081008CANDLES 9PCE SCENTED   0000001000+00002630+00000+0001T   00002630+0000001316          1400 HT9510               2AZ
202120013202120031-000923     202120006001023669933P/FRAME BLK W/WORDS    0000001000+00003507+00000+0001T   00003507+0000001316          1400 HT9510               2AZ
202120014202120112-116053     202120006006438002399TCS CARRIER BAG 38L    0000001000+00000069+00000+0001T   00000069+0000001316          1400 HT9090               2AZ
202121000202121               202121               170213N8     1400+00000+N80000003980+0000003980+000000000+000000558+0000004530+0000000008+I20000000000+0000004530+Z
202121001202121563-000318-L   202121006003000407088SERVIETTES 33cm RED    0000001000+00002192+00000+0001T   00002192+0000001318          1400 HT9214               2AZ
202121002202121084-009407     202121006001023861726SCISSORS 13cm MTL PL-H 0000001000+00001753+00000+0001T   00001753+0000001318          1400 HT9200               2AZ
202121003202121112-116038     202121006009681820246TCS CARRIER BAG MIDI   0000001000+00000035+00000+0001T   00000035+0000001318          1400 HT9090               2AZ
202122000202122               202122               170213N8     1400+00000+N80000000700+0000000700+000000000+000000098+0000000790+0000000008+I20000000000+0000000790+Z
202122001202122007-000166     202122006009685857316SPIRAL NOTES A6 100PG  0000001000+00000700+00000+0001T   00000700+0000001324          1400 HT9130               2AZ
202123000202123               202123               170213N8     1400+00000+N80000005434+0000005434+000000000+000000762+0000006190+0000000006+I20000000000+0000006190+Z
202123001202123563-000318-G   202123006003000404360SERVIETTES 33cm PINK   0000001000+00002192+00000+0001T   00002192+0000001354          1400 HT9214               2AZ
202123002202123039-000323     202123006001023524171BIRTHDAY-CANDLES 24PCE 0000001000+00000876+00000+0001T   00000876+0000001354          1400 HT9510               2AZ
202123003202123083-000055     202123006003000003853LIGHTER ELCTRNC REFILBL0000001000+00000613+00000+0001T   00000613+0000001354          1400 HT9315               2AZ
202123004202123006-000120     202123006001023346889BALLOONS 10PC MIX COL  0000001000+00001753+00000+0001T   00001753+0000001354          1400 HT9131               2AZ
202124000202124               202124               170213N8     1400+00000+N80000006836+0000006836+000000000+000000959+0000007790+0000000005+I20000000000+0000007790+Z
202124001202124077-000239     202124006003000160419GIFT-RIBBON ROLL PEARL 0000001000+00001753+00000+0001T   00001753+0000001359          1400 HT9112               2AZ
202124002202124036-000151     202124006001023810588COATHANGERS    PACK-10 0000001000+00002893+00000+0001T   00002893+0000001359          1400 HT9212               2AZ
202124003202124077-000011-C   202124006001023808523TISSUE 10xSHTS RED     0000001000+00000876+00000+0001T   00000876+0000001359          1400 HT9112               2AZ
202124004202124077-000310     202124006001023608635GIFT-BAG 18X23CM GLOSS 0000001000+00001314+00000+0001T   00001314+0000001359          1400 HT9112               2AZ
202125000202125               202125               170213N8     1400+00000+N80000012538+0000012538+000000000+000001758+0000014290+0000000006+I20000000000+0000014290+Z
202125001202125050-000362-Z   202125006001023475275PADLOCK IRON 25mm CARD 0000001000+00002016+00000+0001T   00002016+0000001521          1400 HT9855               2AZ
202125002202125368-000040     202125006003000671786PLUSH ICONS 7.5cm      0000001000+00002630+00000+0001T   00002630+0000001521          1400 HT9745               2AZ
202125003202125077-000381     202125006003000247707GIFT-BAG 25X32CM S/COL 0000001000+00001753+00000+0001T   00001753+0000001521          1400 HT9112               2AZ
202125004202125565-000008     202125006003000548828NOVELTY B/O ROBOT FISH 0000001000+00006139+00000+0001T   00006139+0000001521          1400 HT9745               2AZ
202126000202126               202126               170213N8     1400+00000+N80000029502+0000029502+000000000+000004136+0000033638+0000000000+I40000033638+0000000000+Z
202126001202126112-116069     202126006009681820277TCS CARRIER BAG JUMBO  0000001000+00000048+00000+0001T   00000048+0000001535          1400 HT9090               2AZ
202126002202126565-004004     202126006001023744357NOVELTY INSCT COLLECTOR0000003000+00005262+00000+0001T   00005262+0000001535          1400 HT9745               2AZ
202126003202126565-000084     202126006003000643431NOVELTY CATAPULT B/FLY 0000004000+00001753+00000+0001T   00001753+0000001535          1400 HT9745               2AZ
202126004202126564-000012     202126006001023130075BUBBLE BOTTLE MAGIC    0000003000+00000700+00000+0001T   00000700+0000001535          1400 HT9131               2AZ
202126005202126903-000151     202126006009803374411SWT SML RND R/BOW LOLLY0000002000+00000525+00000+0001T   00000525+0000001535          1400 HT9150               2AZ
202126006202126903-000619     202126006003000672455SWT LOLLY STR/BRRY 140G0000002000+00001753+00000+0001T   00001753+0000001535          1400 HT9150               2AZ
202127000202127               202127               170213N8     1400+00000+N80000001753+0000001753+000000000+000000246+0000001999+0000000000+I40000001999+0000000000+Z
202127001202127903-000610     202127006003000610518SWEET JUMBO BUBBLE GUM 0000001000+00001753+00000+0001T   00001753+0000001536          1400 HT9150               2AZ
202128000202128               202128               170213N8     1400+00000+N80000019579+0000019579+000000000+000002747+0000022320+0000000006+I20000000000+0000022320+Z
202128001202128903-000619     202128006003000672455SWT LOLLY STR/BRRY 140G0000001000+00001753+00000+0001T   00001753+0000001550          1400 HT9150               2AZ
202128002202128903-000624     202128006003000671793SWEET LOLLY BLU/BRRY   0000001000+00001753+00000+0001T   00001753+0000001550          1400 HT9150               2AZ
202128003202128903-000151     202128006009803374411SWT SML RND R/BOW LOLLY0000004000+00000525+00000+0001T   00000525+0000001550          1400 HT9150               2AZ
202128004202128903-000510     202128006001704012621SWEET MS ZBDZ S/BERRY  0000001000+00001227+00000+0001T   00001227+0000001550          1400 HT9150               2AZ
202128005202128006-005909     202128006003000081301PARTY FAVOUR STAR WAND 0000002000+00002192+00000+0001T   00002192+0000001550          1400 HT9131               2AZ
202128006202128566-000992     202128006001023600639STICKERS GLOW-IN-DARK  0000001000+00001314+00000+0001T   00001314+0000001550          1400 HT9130               2AZ
202128007202128566-000065     202128006003000217915STICKERS GLITTER ASSTD 0000001000+00001753+00000+0001T   00001753+0000001550          1400 HT9130               2AZ
202128008202128362-001052     202128006001023915078NAIL TEEN ART SET 5PCE 0000002000+00002630+00000+0001T   00002630+0000001550          1400 HT9160               2AZ
202128009202128112-116038     202128006009681820246TCS CARRIER BAG MIDI   0000001000+00000035+00000+0001T   00000035+0000001550          1400 HT9090               2AZ
202129000202129               202129               170213N8     1400+00000+N80000003507+0000003507+000000000+000000491+0000003990+0000000008+I20000000000+0000003990+Z
202129001202129369-001031     202129006001023796219BABY RATTLE SET 2PC    0000001000+00003507+00000+0001T   00003507+0000001556          1400 HT9745               2AZ
202130000202130               202130               170213N8     1400+00000+N80000006572+0000006572+000000000+000000922+0000007494+0000000000+I40000007494+0000000000+Z
202130001202130018-000170     202130006001023775528MUG OCC. LOVE 2PC MINI 0000001000+00002192+00000+0001T   00002192+0000001601          1400 HT9515               2AZ
202130002202130903-000194     202130006009826020616SWT CHOC RP LOLLY 25G  0000001000+00001314+00000+0001T   00001314+0000001601          1400 HT9150               2AZ
202130003202130903-000617     202130006003000644261SWT HS CANDY CANE 19cm 0000001000+00001753+00000+0001T   00001753+0000001601          1400 HT9150               2AZ
202130004202130077-000302     202130008010410010195GIFT-BAG 18X23CM E/D   0000001000+00000876+00000+0001T   00000876+0000001601          1400 HT9112               2AZ
202130005202130080-000133-A   202130006003000647019MINI VALENTINES CARD   0000001000+00000437+00000+0001T   00000437+0000001601          1400 HT9112               2AZ
202131000202131               202131               170213N8     1400+00000+N80000000876+0000000876+000000000+000000123+0000000999+0000000000+I40000000999+0000000000+Z
202131001202131071-005213     202131006001023690371CELLOTAPE 12mmx33m     0000001000+00000876+00000+0001T   00000876+0000001603          1400 HT9130               2AZ
202132000202132               202132               170213N8     1400+00000+N80000003554+0000003554+000000000+000000499+0000004050+0000000003+I20000000000+0000004050+Z
202132001202132016-006509     202132006003000567355S/JAR GLS MINI LABEL   0000001000+00001753+00000+0001T   00002192+0008191611          1400 HT9300               2AZ
202132002202132077-000316     202132006001023609731GIFT-BAG 25X32CM MATT  0000001000+00001753+00000+0001T   00001753+0000001611          1400 HT9112               2AZ
202132003202132112-116069     202132006009681820277TCS CARRIER BAG JUMBO  0000001000+00000048+00000+0001T   00000048+0000001611          1400 HT9090               2AZ
202133000202133               202133               170213N8     1400+00000+N80000006377+0000006377+000000000+000000895+0000007272+0000000000+I40000007272+0000000000+Z
202133001202133078-000025     202133008887013700064SUPERGLUE 3g 1PCE CARD 0000001000+00000876+00000+0001T   00000876+0000001615          1400 HT9810               2AZ
202133002202133903-000844     202133005010478432567SWT CANDY DL LUV HEARTS0000001000+00001314+00000+0001T   00001314+0000001615          1400 HT9150               2AZ
202133003202133200-000065     202133006001023323675DRINKING-STRAWS 38PCE  0000001000+00000613+00000+0001T   00000613+0000001615          1400 HT9214               2AZ
202133004202133566-000200     202133006003000384174STICKER PUFFY NEON     0000002000+00000876+00000+0001T   00000876+0000001615          1400 HT9130               2AZ
202133005202133077-000457     202133006003000285662G/BAG METALLIC JMB SOL 0000001000+00001753+00000+0001T   00001753+0000001615          1400 HT9112               2AZ
202133006202133112-116053     202133006006438002399TCS CARRIER BAG 38L    0000001000+00000069+00000+0001T   00000069+0000001615          1400 HT9090               2AZ
202134000202134               202134               170213N8     1400+00000+N80000006741+0000006741+000000000+000000945+0000007680+0000000006+I20000000000+0000007680+Z
202134001202134032-000309     202134006001023477804MIRROR STANDING PL SML 0000001000+00001490+00000+0001T   00001490+0000001618          1400 HT9510               2AZ
202134002202134304-001167     202134006001023846099FLOWER LOTUS FLOATING  0000001000+00002192+00000+0001T   00002192+0000001618          1400 HT9510               2AZ
202134003202134206-000100     202134006003000628063TONGS ICE COLD FINGERS 0000001000+00002192+00000+0001T   00002192+0000001618          1400 HT9321               2AZ
202134004202134159-000150-B   202134006003000058440SOAP-BOX PL ASSORTED   0000001000+00000832+00000+0001T   00000832+0000001618          1400 HT9200               2AZ
202134005202134112-116038     202134006009681820246TCS CARRIER BAG MIDI   0000001000+00000035+00000+0001T   00000035+0000001618          1400 HT9090               2AZ
202135000202135               202135               170213N8     1400+00000+N80000014809+0000014809+000000000+000002077+0000016886+0000000000+I40000016886+0000000000+Z
202135001202135903-000844     202135005010478432567SWT CANDY DL LUV HEARTS0000003000+00001314+00000+0001T   00001314+0000001629          1400 HT9150               2AZ
202135002202135566-001228     202135006003000284153STICKERS CRYSTAL ASSTD 0000002000+00001753+00000+0001T   00001753+0000001629          1400 HT9130               2AZ
202135003202135080-000133-A   202135006003000647019MINI VALENTINES CARD   0000001000+00000437+00000+0001T   00000437+0000001629          1400 HT9112               2AZ
202135004202135071-000873     202135006001023758743RUB-BANDS CLR BAG-100  0000001000+00001490+00000+0001T   00001490+0000001629          1400 HT9130               2AZ
202135005202135007-000209     202135006001023582102NOTE STICKY FILE MARKER0000001000+00001314+00000+0001T   00001314+0000001629          1400 HT9130               2AZ
202135006202135077-000235     202135006003000160211GIFT-RIBBON ROLL METALC0000001000+00002630+00000+0001T   00002630+0000001629          1400 HT9112               2AZ
202135007202135016-006516     202135006003000351503S/JAR GLS CHECK 150ML  0000001000+00001490+00000+0001T   00001490+0000001629          1400 HT9300               2AZ
202136000202136               202136               170213N8     1400+00000+N80000010349+0000010349+000000000+000001449+0000011790+0000000008+I20000000000+0000011790+Z
202136001202136368-000012     202136006003000610464PLUSH BEAR 30cm SITTING0000001000+00008771+00000+0001T   00008771+0000001632          1400 HT9745               2AZ
202136002202136018-000127     202136006001023380289MUG OCC STRAIGHT LOVE  0000001000+00001578+00000+0001T   00001753+0006471632          1400 HT9515               2AZ
202137000202137               202137               170213N8     1400+00000+N80000019336+0000019336+000000000+000002711+0000022047+0000000000+I40000022047+0000000000+Z
202137001202137048-000751     202137006001023849779CAMPING-LANTERN B/O    0000001000+00003507+00000+0001T   00003507+0000001635          1400 HT9305               2AZ
202137002202137104-000020     202137006916920023026BASKET 25x14x10cm      0000001000+00001753+00000+0001T   00001753+0000001635          1400 HT9210               2AZ
202137003202137105-007410     202137006003000629671CONTAINER MINI 300ml   0000001000+00002630+00000+0001T   00003507+0008171635          1400 HT9210               2AZ
202137004202137133-000083     202137006003000450510DISH DRAINING MAT      0000002000+00005262+00000+0001T   00005262+0000001635          1400 HT9212               2AZ
202137005202137080-000133-A   202137006003000647019MINI VALENTINES CARD   0000002000+00000437+00000+0001T   00000437+0000001635          1400 HT9112               2AZ
202137006202137112-116069     202137006009681820277TCS CARRIER BAG JUMBO  0000001000+00000048+00000+0001T   00000048+0000001635          1400 HT9090               2AZ
202138000202138               202138               170213N8     1400+00000+N80000003505+0000003505+000000000+000000492+0000003997+0000000000+I40000003997+0000000000+Z
202138001202138077-000011-X   202138006001023809827TISSUE-WRAP SILVER 10PC0000001000+00001753+00000+0001T   00001753+0000001642          1400 HT9112               2AZ
202138002202138077-000011-L   202138006001023808585P/TISSUE BRIGHT 10SHEET0000001000+00000876+00000+0001T   00000876+0000001642          1400 HT9112               2AZ
202138003202138077-000011-E   202138006001023808646TISSUE-WRAP PINK 10PCE 0000001000+00000876+00000+0001T   00000876+0000001642          1400 HT9112               2AZ
202139000202139               202139               170213N8     1400+00000+N80000004061+0000004061+000000000+000000573+0000004634+0000000000+I40000004634+0000000000+Z
202139001202139080-000133-A   202139006003000647019MINI VALENTINES CARD   0000001000+00000437+00000+0001T   00000437+0000001644          1400 HT9112               2AZ
202139002202139903-000151     202139006009803374411SWT SML RND R/BOW LOLLY0000001000+00000525+00000+0001T   00000525+0000001644          1400 HT9150               2AZ
202139003202139046-002016-PK2 202139004897006175056BATTERIES CR-2016  2PCE0000001000+00001753+00000+0001T   00001753+0000001644          1400 HT9312               2AZ
202139004202139903-000151     202139006009803374411SWT SML RND R/BOW LOLLY0000001000+00000525+00000+0001T   00000525+0000001644          1400 HT9150               2AZ
202139005202139903-000183     202139006003000451043SWT LB HEART LOLLY     0000002000+00000393+00000+0001T   00000393+0000001644          1400 HT9150               2AZ
202139006202139112-116038     202139006009681820246TCS CARRIER BAG MIDI   0000001000+00000035+00000+0001T   00000035+0000001644          1400 HT9090               2AZ
202140000202140               202140               170213N8     1400+00000+N80000003541+0000003541+000000000+000000497+0000004038+0000000000+I40000004038+0000000000+Z
202140001202140301-085002     202140006003000420704ORN OCC. LOVE BELL ASST0000002000+00001753+00000+0001T   00002630+0008121650          1400 HT9505               2AZ
202140002202140112-116038     202140006009681820246TCS CARRIER BAG MIDI   0000001000+00000035+00000+0001T   00000035+0000001650          1400 HT9090               2AZ
202141000202141               202141               170213N8     1400+00000+N80000001753+0000001753+000000000+000000246+0000001990+0000000009+I20000000000+0000001990+Z
202141001202141077-000239     202141006003000160419GIFT-RIBBON ROLL PEARL 0000001000+00001753+00000+0001T   00001753+0000001656          1400 HT9112               2AZ
202142000202142               202142               170213N8     1400+00000+N80000021024+0000021024+000000000+000002952+0000023976+0000000000+I40000023976+0000000000+Z
202142001202142564-000030     202142006001023897022BUBBLE NOVELTY BOTTLE  0000024000+00000876+00000+0001T   00000876+0000001742          1400 EH2131               2BZ
A17021300                                          09312087N8SLAVE 2                       HT92IC
M17021391                              CASH        N8SLAVE 2                       Z-REPORT No.   366TOTAL (Sales - Refunds)           5134.16       CASH TO BE BANKED                 1319.90       DEBIT CARDS                          0.00       CREDIT CARDS                         0.00       Z-READING                         5099.26       AIRTIME DEBIT CARD SALES             0.00       AIRTIME CARD SALES                   0.00       OVERS/UNDERS                      3779.36-      AIRTIME CASH SALES                   0.00       GIFT CARDS                           0.00       GIFT CARD CASH SALES                 0.00       STAFF-REFRESHMENTS                  34.90       T O T A L  CASH PAYOUTS             34.90                                                                                                                                                                                                                                                                                                      Z
M17021392                              CASH        N8ABSENT                                                                                                                                                                                          ANNUAL LEAVE                                                                                                                                                                                    DAY OFF                                                                                                                                                                                         COMMENTS                                                                                                                                                                                                                                                                                                                                                                                       Z
Y17021300                                          N800000000450386+000043
ZN817021320083 SLAVE 2      SALES DATA                     NEXT INVOICE NO.  202143 0366
X N8 Slave 2 First invoice 202099 170213 Last invoice 202142 170213 Next invoice 202143 Total number of records 000000206 clbackup completed 20:08:50
