207164000207164               207164               170213N9     1400+00000+N90000002892+0000002892+000000000+000000406+0000003290+0000000008+I20000000000+0000003290+Z
207164001207164105-001005     207164006001023858214CONTAINERS MINI 6PCE   0000001000+00001402+00000+0001T   00001402+0000001105          1400 GL6210               2AZ
207164002207164565-004101     207164006003000548033BALL BOUNCING EGG      0000001000+00001490+00000+0001T   00001490+0000001105          1400 GL6745               2AZ
207165000207165               207165               170213N9     1400+00000+N90000010524+0000010524+000000000+000001474+0000011990+0000000008+I20000000000+0000011990+Z
207165001207165368-000614     207165006001023705808PLUSH LOVE 30cm        0000001000+00008771+00000+0001T   00008771+0000001109          1400 GL6745               2AZ
207165002207165077-000316     207165006001023609731GIFT-BAG 25X32CM MATT  0000001000+00001753+00000+0001T   00001753+0000001109          1400 GL6112               2AZ
207166000207166               207166               170213N9     1400+00000+N90000005294+0000005294+000000000+000000743+0000006030+0000000007+I20000000000+0000006030+Z
207166001207166077-000235     207166006003000160211GIFT-RIBBON ROLL METALC0000001000+00002630+00000+0001T   00002630+0000001121          1400 GL6112               2AZ
207166002207166077-000151     207166006008766114676GIFT-WRAP C/PHANE ASSTD0000001000+00000876+00000+0001T   00000876+0000001121          1400 GL6112               2AZ
207166003207166079-013032     207166006003000389209SET LETTERS 2 ASSTD    0000001000+00001753+00000+0001T   00001753+0000001121          1400 GL6130               2AZ
207166004207166112-116038     207166006009681820246TCS CARRIER BAG MIDI   0000001000+00000035+00000+0001T   00000035+0000001121          1400 GL6090               2AZ
207167000207167               207167               170213N9     1400+00000+N90000000525+0000000525+000000000+000000074+0000000590+0000000009+I20000000000+0000000590+Z
207167001207167027-000010-B   207167006009635020104SHOE-BRUSH BLACK       0000001000+00000525+00000+0001T   00000525+0000001124          1400 GL6212               2AZ
207168000207168               207168               170213N9     1400+00000+N90000002630+0000002630+000000000+000000369+0000002990+0000000009+I20000000000+0000002990+Z
207168001207168079-013101     207168006001023863706CRAFT SET DIY PIPE-CLNR0000001000+00002630+00000+0001T   00002630+0000001133          1400 GL6130               2AZ
207169000207169               207169               170213N9     1400+00000+N90000002630+0000002630+000000000+000000369+0000002990+0000000009+I20000000000+0000002990+Z
207169001207169018-000129     207169006001023403353MUG OCC. LOVE V-SHAPE  0000001000+00002630+00000+0001T   00002630+0000001229          1400 GL6515               2AZ
207170000207170               207170               170213N9     1400+00000+N90000002665+0000002665+000000000+000000374+0000003030+0000000009+I20000000000+0000003030+Z
207170001207170018-000129     207170006001023403353MUG OCC. LOVE V-SHAPE  0000001000+00002630+00000+0001T   00002630+0000001231          1400 GL6515               2AZ
207170002207170112-116038     207170006009681820246TCS CARRIER BAG MIDI   0000001000+00000035+00000+0001T   00000035+0000001231          1400 GL6090               2AZ
207171000207171               207171               170213N9     1400+00000+N90000001314+0000001314+000000000+000000184+0000001490+0000000008+I20000000000+0000001490+Z
207171001207171107-004105     207171006009703860984BUCKET 9L OPEN         0000001000+00001314+00000+0001T   00001314+0000001232          1400 GL6210               2AZ
207172000207172               207172               170213N9     1400+00000+N90000005645+0000005645+000000000+000000792+0000006437+0000000000+I40000006437+0000000000+Z
207172001207172567-014133     207172006003000560103BOOK COLOURING 48 PAGE 0000001000+00001490+00000+0001T   00001490+0000001258          1400 GL6757               2AZ
207172002207172079-000512     207172006001023635853CRAYONS WAX 12-COLOUR  0000001000+00001490+00000+0001T   00001490+0000001258          1400 GL6130               2AZ
207172003207172562-000010     207172006001023762528KID'S PLAY DOUGH       0000001000+00002630+00000+0001T   00002630+0000001258          1400 GL6755               2AZ
207172004207172112-116038     207172006009681820246TCS CARRIER BAG MIDI   0000001000+00000035+00000+0001T   00000035+0000001258          1400 GL6090               2AZ
207173000207173               207173               170213N9     1400+00000+N90000001578+0000001578+000000000+000000221+0000001790+0000000009+I20000000000+0000001790+Z
207173001207173565-000885     207173006003000122929NOVELTY PRICKLY BALL   0000001000+00001578+00000+0001T   00001578+0000001259          1400 GL6745               2AZ
207174000207174               207174               170213N9     1400+00000+N90000013152+0000013152+000000000+000001842+0000014990+0000000004+I20000000000+0000014990+Z
207174001207174077-000011-D   207174006001023808554TISSUE-WRAP WHITE 10PCE0000001000+00000876+00000+0001T   00000876+0000001301          1400 GL6112               2AZ
207174002207174031-000844     207174006001023851789P/FRAME WDN WORDS 2ASS 0000001000+00003507+00000+0001T   00003507+0000001301          1400 GL6510               2AZ
207174003207174031-080508     207174006001023802415P/FRAME PL 22X11CM LOVE0000001000+00004385+00000+0001T   00004385+0000001301          1400 GL6510               2AZ
207174004207174080-000127     207174006003000424351VALENTINES DAY 36x24CM 0000001000+00002192+00000+0001T   00002192+0000001301          1400 GL6112               2AZ
207174005207174077-000309-A   207174006003000671007GIFT-BAG HOLOGRAM JMB  0000001000+00002192+00000+0001T   00002192+0000001301          1400 GL6112               2AZ
207175000207175               207175               170213N9     1400+00000+N90000002630+0000002630+000000000+000000369+0000002990+0000000009+I20000000000+0000002990+Z
207175001207175079-013101     207175006001023863706CRAFT SET DIY PIPE-CLNR0000001000+00002630+00000+0001T   00002630+0000001318          1400 GL6130               2AZ
207176000207176               207176               170213N9     1400+00000+N90000022705+0000022705+000000000+000003184+0000025889+0000000000+I40000025889+0000000000+Z
207176001207176077-000150-D   207176006003000054343GIFT-WRAP CELLPHANE CLR0000002000+00000876+00000+0001T   00000876+0000001444          1400 GL6112               2AZ
207176002207176018-000129     207176006001023403353MUG OCC. LOVE V-SHAPE  0000001000+00002630+00000+0001T   00002630+0000001444          1400 GL6515               2AZ
207176003207176903-002892     207176008935001721338MENTOS JUICEBLAST BERRY0000001000+00001051+00000+0001T   00001051+0000001444          1400 GL6150               2AZ
207176004207176903-000194     207176006009826020616SWT CHOC RP LOLLY 25G  0000001000+00001314+00000+0001T   00001314+0000001444          1400 GL6150               2AZ
207176005207176903-000200     207176006009826020234SWT CHOC RP CHOCO 23G  0000001000+00000788+00000+0001T   00000788+0000001444          1400 GL6150               2AZ
207176006207176903-002851     207176000000087108538MENTOS ROLL STRAWBERRY 0000001000+00001051+00000+0001T   00001051+0000001444          1400 GL6150               2AZ
207176007207176903-000517     207176006001704012768SWT STRAWS FIZZY CHERRY0000001000+00001227+00000+0001T   00001227+0000001444          1400 GL6150               2AZ
207176008207176368-000113     207176006001023780874PLUSH BLINGED LOVE 30cm0000001000+00012279+00000+0001T   00012279+0000001444          1400 GL6745               2AZ
207176009207176304-001011     207176006001023806727FLWR ROSE RED W/BEAR   0000001000+00000613+00000+0001T   00000788+0006471444          1400 GL6510               2AZ
207177000207177               207177               170213N9     1400+00000+N90000003679+0000003679+000000000+000000516+0000004190+0000000005+I20000000000+0000004190+Z
207177001207177903-002850     207177000000087108262MENTOS ROLL FRUIT      0000001000+00001051+00000+0001T   00001051+0000001501          1400 GL6150               2AZ
207177002207177903-000194     207177006009826020616SWT CHOC RP LOLLY 25G  0000001000+00001314+00000+0001T   00001314+0000001501          1400 GL6150               2AZ
207177003207177077-000310     207177006001023608635GIFT-BAG 18X23CM GLOSS 0000001000+00001314+00000+0001T   00001314+0000001501          1400 GL6112               2AZ
207178000207178               207178               170213N9     1400+00000+N90000000035+0000000035+000000000+000000005+0000000040+0000000000+I20000000000+0000000040+Z
207178001207178112-116038     207178006009681820246TCS CARRIER BAG MIDI   0000001000+00000035+00000+0001T   00000035+0000001503          1400 GL6090               2AZ
207179000207179               207179               170213N9     1400+00000+N90000001051-0000001051-000000000+000000148-0000001199-0000000000+I40000001199-0000000000+Z
207179001207179903-002850     207179000000087108262MENTOS ROLL FRUIT      0000001000-00001051+00000+0001T   00001051+0000001505          1400 GL61501IC            2 Z
207180000207180               207180               170213N9     1400+00000+N90000003945+0000003945+000000000+000000553+0000004490+0000000008+I20000000000+0000004490+Z
207180001207180267-000200     207180006001023892379PUZZLE 24pc CARTOON    0000001000+00002192+00000+0001T   00002192+0000001509          1400 GL6755               2AZ
207180002207180038-000205     207180006001926001205PLACE-MATS PVC ASSTD-C 0000001000+00001753+00000+0001T   00001753+0000001509          1400 GL6300               2AZ
207181000207181               207181               170213N9     1400+00000+N90000002630+0000002630+000000000+000000369+0000002990+0000000009+I20000000000+0000002990+Z
207181001207181079-013101     207181006001023863706CRAFT SET DIY PIPE-CLNR0000001000+00002630+00000+0001T   00002630+0000001511          1400 GL6130               2AZ
207182000207182               207182               170213N9     1400+00000+N90000000481+0000000481+000000000+000000068+0000000540+0000000009+I20000000000+0000000540+Z
207182001207182071-000012     207182006001177101006CHALK COLOUR 12PCE     0000001000+00000481+00000+0001T   00000481+0000001520          1400 GL6130               2AZ
207183000207183               207183               170213N9     1400+00000+N90000003944+0000003944+000000000+000000553+0000004490+0000000007+I20000000000+0000004490+Z
207183001207183079-000514     207183009556341898321CRAYONS WAX 24-COLOUR  0000001000+00002630+00000+0001T   00002630+0000001538          1400 GL6130               2AZ
207183002207183046-000012     207183006904708013062BATTERIES AA  CARD-OF-40000001000+00001314+00000+0001T   00001314+0000001538          1400 GL6312               2AZ
207184000207184               207184               170213N9     1400+00000+N90000007047+0000007047+000000000+000000989+0000008030+0000000006+I20000000000+0000008030+Z
207184001207184079-003009     207184006003000448722A/TUBE 75ML NATURAL    0000001000+00001753+00000+0001T   00001753+0000001541          1400 GL6130               2AZ
207184002207184079-003004     207184006003000448128TUBE 75ML LIGHT GREEN  0000001000+00001753+00000+0001T   00001753+0000001541          1400 GL6130               2AZ
207184003207184079-003005     207184006003000448241A/TUBE 75ML BLUE       0000001000+00001753+00000+0001T   00001753+0000001541          1400 GL6130               2AZ
207184004207184079-000275     207184006003000160488PAINT-BRUSHES 6PCE PRO 0000001000+00001753+00000+0001T   00001753+0000001541          1400 GL6130               2AZ
207184005207184112-116038     207184006009681820246TCS CARRIER BAG MIDI   0000001000+00000035+00000+0001T   00000035+0000001541          1400 GL6090               2AZ
207185000207185               207185               170213N9     1400+00000+N90000006173+0000006173+000000000+000000865+0000007038+0000000000+I40000007038+0000000000+Z
207185001207185048-000700     207185006001023849731HEAD-LAMP 10xLED (3xAAA0000001000+00004385+00000+0001T   00004385+0000001545          1400 GL6305               2AZ
207185002207185306-001720     207185006003000276257HAND SANITIZER WIPES   0000001000+00001753+00000+0001T   00001753+0000001545          1400 GL6200               2AZ
207185003207185112-116038     207185006009681820246TCS CARRIER BAG MIDI   0000001000+00000035+00000+0001T   00000035+0000001545          1400 GL6090               2AZ
207186000207186               207186               170213N9     1400+00000+N90000011437+0000011437+000000000+000001602+0000013030+0000000009+I20000000000+0000013030+Z
207186001207186368-000637     207186006001023874092PLUSH BEAR SLEEPING LOV0000001000+00011402+00000+0001T   00012279+0006471547          1400 GL6745               2AZ
207186002207186112-116038     207186006009681820246TCS CARRIER BAG MIDI   0000001000+00000035+00000+0001T   00000035+0000001547          1400 GL6090               2AZ
207187000207187               207187               170213N9     1400+00000+N90000001490+0000001490+000000000+000000209+0000001690+0000000009+I20000000000+0000001690+Z
207187001207187004-078992     207187004905524102529EARPHONES MINI         0000001000+00001490+00000+0001T   00001490+0000001548          1400 GL6310               2AZ
207188000207188               207188               170213N9     1400+00000+N90000010323+0000010323+000000000+000001451+0000011774+0000000000+I40000011774+0000000000+Z
207188001207188077-000316     207188006001023609731GIFT-BAG 25X32CM MATT  0000001000+00001753+00000+0001T   00001753+0000001553          1400 GL6112               2AZ
207188002207188903-000194     207188006009826020616SWT CHOC RP LOLLY 25G  0000005000+00001314+00000+0001T   00001314+0000001553          1400 GL6150               2AZ
207188003207188903-000183     207188006003000451043SWT LB HEART LOLLY     0000004000+00000393+00000+0001T   00000393+0000001553          1400 GL6150               2AZ
207188004207188112-116038     207188006009681820246TCS CARRIER BAG MIDI   0000001000+00000035+00000+0001T   00000035+0000001553          1400 GL6090               2AZ
207188005207188903-000183     207188006003000451043SWT LB HEART LOLLY     0000001000+00000393+00000+0001T   00000393+0000001553          1400 GL6150               2AZ
207189000207189               207189               170213N9     1400+00000+N90000001314+0000001314+000000000+000000184+0000001490+0000000008+I20000000000+0000001490+Z
207189001207189903-000194     207189006009826020616SWT CHOC RP LOLLY 25G  0000001000+00001314+00000+0001T   00001314+0000001554          1400 GL6150               2AZ
207190000207190               207190               170213N9     1400+00000+N90000006135+0000006135+000000000+000000859+0000006990+0000000004+I20000000000+0000006990+Z
207190001207190903-000194     207190006009826020616SWT CHOC RP LOLLY 25G  0000001000+00001314+00000+0001T   00001314+0000001555          1400 GL6150               2AZ
207190002207190077-000310     207190006001023608635GIFT-BAG 18X23CM GLOSS 0000001000+00001314+00000+0001T   00001314+0000001555          1400 GL6112               2AZ
207190003207190018-000136     207190006001023659026MUG OCC LOVE W/PLUSH   0000001000+00003507+00000+0001T   00003507+0000001555          1400 GL6515               2AZ
207191000207191               207191               170213N9     1400+00000+N90000009945+0000009945+000000000+000001393+0000011330+0000000008+I20000000000+0000011330+Z
207191001207191028-000027     207191006003000275816C/BAG+POCKET 27x18x23cm0000001000+00008771+00000+0001T   00008771+0000001600          1400 GL6305               2AZ
207191002207191112-116038     207191006009681820246TCS CARRIER BAG MIDI   0000001000+00000035+00000+0001T   00000035+0000001600          1400 GL6090               2AZ
207191003207191903-000709     207191006002099007070SWT QUENCHERS FRUIT    0000001000+00001139+00000+0001T   00001139+0000001600          1400 GL6150               2AZ
207192000207192               207192               170213N9     1400+00000+N90000004032+0000004032+000000000+000000566+0000004590+0000000008+I20000000000+0000004590+Z
207192001207192486-000001     207192006001023507969ALARM-CLOCK SQ ASS     0000001000+00002630+00000+0001T   00002630+0000001717          1400 GL6510               2AZ
207192002207192046-000011     207192004897006172994BATTERIES SIZE:AA  2PCE0000001000+00001402+00000+0001T   00001402+0000001717          1400 GL6312               2AZ
207193000207193               207193               170213N9     1400+00000+N90000005697+0000005697+000000000+000000798+0000006495+0000000000+I40000006495+0000000000+Z
207193001207193018-000136     207193006001023659026MUG OCC LOVE W/PLUSH   0000001000+00003507+00000+0001T   00003507+0000001719          1400 GL6515               2AZ
207193002207193077-000310     207193006001023608635GIFT-BAG 18X23CM GLOSS 0000001000+00001314+00000+0001T   00001314+0000001719          1400 GL6112               2AZ
207193003207193903-000481     207193006001704007481SWT MOO MILK-SHAKES 60G0000001000+00000876+00000+0001T   00000876+0000001719          1400 GL6150               2AZ
207194000207194               207194               170213N9     1400+00000+N90000000035+0000000035+000000000+000000005+0000000040+0000000000+I20000000000+0000000040+Z
207194001207194112-116038     207194006009681820246TCS CARRIER BAG MIDI   0000001000+00000035+00000+0001T   00000035+0000001719          1400 GL6090               2AZ
207195000207195               207195               170213N9     1400+00000+N90000007013+0000007013+000000000+000000983+0000007990+0000000006+I20000000000+0000007990+Z
207195001207195252-000013     207195006001023488107CURTN-HOOK R6 ACETYLx500000001000+00000876+00000+0001T   00000876+0000001720          1400 GL6810               2AZ
207195002207195079-000280     207195006003000160723PAINT READYMIX 6PCE    0000001000+00002630+00000+0001T   00002630+0000001720          1400 GL6130               2AZ
207195003207195079-006498     207195006001023836151GLITTER SET 10PCE      0000001000+00003507+00000+0001T   00003507+0000001720          1400 GL6130               2AZ
207196000207196               207196               170213N9     1400+00000+N90000011043+0000011043+000000000+000001550+0000012593+0000000000+I40000012593+0000000000+Z
207196001207196018-000129     207196006001023403353MUG OCC. LOVE V-SHAPE  0000001000+00002630+00000+0001T   00002630+0000001759          1400 GL6515               2AZ
207196002207196306-000020     207196006001023743145POCKET-TISSUES 10PCE   0000002000+00000306+00000+0001T   00000306+0000001759          1400 GL6200               2AZ
207196003207196903-000183     207196006003000451043SWT LB HEART LOLLY     0000002000+00000393+00000+0001T   00000393+0000001759          1400 GL6150               2AZ
207196004207196903-000615     207196006003000617456SWT JET PLANE J/B 5G   0000001000+00001753+00000+0001T   00001753+0000001759          1400 GL6150               2AZ
207196005207196082-007580     207196006003000698523SUNGLASS MENS DESIGNER 0000001000+00005262+00000+0001T   00005262+0000001759          1400 GL6160               2AZ
A17021300                                          09040127N9SLAVE 2                       GL61IC
A17021301                                          09231233N9SLAVE 2                       GL61IC
A17021302                                          10071024N9SLAVE 2                       GL61IC
M17021391                              CASH        N9SLAVE 2                       Z-REPORT No.   152TOTAL (Sales - Refunds)           1931.17       CASH TO BE BANKED                 1240.90       DEBIT CARDS                          0.00       CREDIT CARDS                       702.26       Z-READING                         1931.17       AIRTIME DEBIT CARD SALES             0.00       AIRTIME CARD SALES                   0.00       OVERS/UNDERS                        11.99       AIRTIME CASH SALES                   0.00       GIFT CARDS                           0.00       GIFT CARD CASH SALES                 0.00       T O T A L  CASH PAYOUTS              0.00                                                                                                                                                                                                                                                                                                                                                      Z
M17021392                              CASH        N9ABSENT                                                                                                                                                                                          ANNUAL LEAVE                                                                                                                                                                                    DAY OFF                                                                                                                                                                                         COMMENTS                                                                                                                                                                                                                                                                                                                                                                                       Z
Y17021300                                          N900000000170582+000032
ZN917021320083 SLAVE 2      SALES DATA                     NEXT INVOICE NO.  207197 0152
X N9 Slave 2 First invoice 207164 170213 Last invoice 207196 170213 Next invoice 207197 Total number of records 000000122 clbackup completed 20:08:36
