112105000112105               112105               170213NA     1400+00000+NA0000006139+0000006139+000000000+000000860+0000006990+0000000009+I20000000000+0000006990+Z
112105001112105027-000029     112105006003000439676FLOOR-BROOM 1.2m ASSTD 0000001000+00006139+00000+0001T   00006139+0000000850          1400 J58212               1AZ
112106000112106               112106               170213NA     1400+00000+NA0000005699+0000005699+000000000+000000798+0000006497+0000000000+I40000006497+0000000000+Z
112106001112106046-000012-A   112106006003000208296BATTERIES H/POWER SZ:AA0000001000+00002192+00000+0001T   00002192+0000000908          1400 J58312               1AZ
112106002112106046-000005     112106004897006174844BATTERY 9VOLT ALKALINE 0000001000+00003507+00000+0001T   00003507+0000000908          1400 J58312               1AZ
112107000112107               112107               170213NA     1400+00000+NA0000013640+0000013640+000000000+000001911+0000015550+0000000001+I20000000000+0000015550+Z
112107001112107466-000515     112107006001023477408BALLS TENNIS BAG-OF-3  0000001000+00002630+00000+0001T   00002630+0000000931          1400 J58785               1AZ
112107002112107159-000801     112107006001023999832BATHMAT 36x59cm ASST   0000001000+00005700+00000+0001T   00005700+0000000931          1400 J58200               1AZ
112107003112107159-000107     112107006001023640406SHOWER-CURTAIN 180cm   0000001000+00005262+00000+0001T   00006139+0008190931          1400 J58200               1AZ
112107004112107112-116069     112107006009681820277TCS CARRIER BAG JUMBO  0000001000+00000048+00000+0001T   00000048+0000000931          1400 J58090               1AZ
112108000112108               112108               170213NA     1400+00000+NA0000017568+0000017568+000000000+000002465+0000020030+0000000003+I20000000000+0000020030+Z
112108001112108112-116038     112108006009681820246TCS CARRIER BAG MIDI   0000001000+00000035+00000+0001T   00000035+0000000956          1400 J58090               1AZ
112108002112108006-006018     112108006001023735256PARTY-SPRAY HAIR ASSORT0000001000+00002630+00000+0001T   00002630+0000000956          1400 J58131               1AZ
112108003112108006-006018-B   112108006003000008278PARTY-SPRAY HAIR NEON  0000002000+00002630+00000+0001T   00002630+0000000956          1400 J58131               1AZ
112108004112108006-006018     112108006001023735256PARTY-SPRAY HAIR ASSORT0000001000+00002630+00000+0001T   00002630+0000000956          1400 J58131               1AZ
112108005112108006-006018-B   112108006003000008278PARTY-SPRAY HAIR NEON  0000001000+00002630+00000+0001T   00002630+0000000956          1400 J58131               1AZ
112108006112108006-006018     112108006001023735256PARTY-SPRAY HAIR ASSORT0000001000+00002630+00000+0001T   00002630+0000000956          1400 J58131               1AZ
112108007112108301-085002     112108006003000420704ORN OCC. LOVE BELL ASST0000001000+00001753+00000+0001T   00002630+0008120956          1400 J58505               1AZ
112109000112109               112109               170213NA     1400+00000+NA0000015654+0000015654+000000000+000002194+0000017848+0000000000+I40000017848+0000000000+Z
112109001112109140-006004     112109006001023628077FLY-SWATTER RUBBER     0000001000+00001139+00000+0001T   00001139+0000001005          1400 J58830               1AZ
112109002112109036-000501     112109006003000417407HOOK HANGER CHROME     0000001000+00004385+00000+0001T   00004385+0000001005          1400 J58212               1AZ
112109003112109077-000297     112109006001023869814GIFT BOX OCCASIONS SQRE0000001000+00001753+00000+0001T   00001753+0000001005          1400 J58112               1AZ
112109004112109027-000917     112109006001023367433DUSTPAN-SET MINI 21x16 0000001000+00001753+00000+0001T   00001753+0000001005          1400 J58212               1AZ
112109005112109058-000062     112109006001023622976HOBBY-KNIFE+BLADE 15cm 0000001000+00003507+00000+0001T   00003507+0000001005          1400 J58840               1AZ
112109006112109140-001007     112109006001023617163FLY-STICK STAND 260x36 0000001000+00003069+00000+0001T   00003069+0000001005          1400 J58830               1AZ
112109007112109112-116069     112109006009681820277TCS CARRIER BAG JUMBO  0000001000+00000048+00000+0001T   00000048+0000001005          1400 J58090               1AZ
112110000112110               112110               170213NA     1400+00000+NA0000006664+0000006664+000000000+000000934+0000007590+0000000008+I20000000000+0000007590+Z
112110001112110140-005093     112110006003000331338INSECT-KILL RAQT-SHAPED0000001000+00005262+00000+0001T   00005262+0000001008          1400 J58830               1AZ
112110002112110046-000011     112110004897006172994BATTERIES SIZE:AA  2PCE0000001000+00001402+00000+0001T   00001402+0000001008          1400 J58312               1AZ
112111000112111               112111               170213NA     1400+00000+NA0000013157+0000013157+000000000+000001842+0000014990+0000000009+I20000000000+0000014990+Z
112111001112111586-010653     112111006001492106533WATCH MENS CLASSIC BLK 0000001000+00013157+00000+0001T   00013157+0000001014          1400 J58160               1AZ
112112000112112               112112               170213NA     1400+00000+NA0000013597-0000000000+000000000+000000000+0000013600-0000000003+I20000000000+0000013600-Z
112112001112112001-999909     112112000000000999909STAFF-REFRESHMENTS     0000001000-00013597+00000+0001X   00000000+0000001015          0000 J589091IC            1 Z
112113000112113               112113               170213NA     1400+00000+NA0000001753+0000001753+000000000+000000246+0000001990+0000000009+I20000000000+0000001990+Z
112113001112113080-000116     112113006003000253555CARD&ENVELOPE-HANDMADE 0000001000+00001753+00000+0001T   00001753+0000001016          1400 J58112               1AZ
112114000112114               112114               170213NA     1400+00000+NA0000000613+0000000613+000000000+000000086+0000000690+0000000009+I20000000000+0000000690+Z
112114001112114083-000055     112114006003000003853LIGHTER ELCTRNC REFILBL0000001000+00000613+00000+0001T   00000613+0000001140          1400 J58315               1AZ
112115000112115               112115               170213NA     1400+00000+NA0000011402+0000011402+000000000+000001597+0000012990+0000000009+I20000000000+0000012990+Z
112115001112115368-000637     112115006001023874092PLUSH BEAR SLEEPING LOV0000001000+00011402+00000+0001T   00012279+0006471154          1400 J58745               1AZ
112116000112116               112116               170213NA     1400+00000+NA0000001753+0000001753+000000000+000000246+0000001990+0000000009+I20000000000+0000001990+Z
112116001112116200-003024     112116006001023657299REFUSE BAGS 20PCE BLACK0000001000+00001753+00000+0001T   00001753+0000001200          1400 J58214               1AZ
112117000112117               112117               170213NA     1400+00000+NA0000002192+0000002192+000000000+000000307+0000002490+0000000009+I20000000000+0000002490+Z
112117001112117566-000359     112117006003000582709STICKER BOOK LOVE SPARK0000001000+00002192+00000+0001T   00002192+0000001259          1400 J58130               1AZ
112118000112118               112118               170213NA     1400+00000+NA0000000437+0000000437+000000000+000000062+0000000490+0000000009+I20000000000+0000000490+Z
112118001112118083-000049     112118004891035200024CIG-LIGHTER DISPOSABLE 0000001000+00000437+00000+0001T   00000437+0000001301          1400 J58315               1AZ
112119000112119               112119               170213NA     1400+00000+NA0000001753+0000001753+000000000+000000246+0000001990+0000000009+I20000000000+0000001990+Z
112119001112119562-088335     112119006003000425372EVA PUZZLE MAT MINI    0000001000+00001753+00000+0001T   00001753+0000001520          1400 J58755               1AZ
112120000112120               112120               170213NA     1400+00000+NA0000012832+0000012832+000000000+000001800+0000014630+0000000002+I20000000000+0000014630+Z
112120001112120039-001023     112120006003000466337CANDLE TEA-LITE METALIC0000001000+00001753+00000+0001T   00001753+0000001521          1400 J58510               1AZ
112120002112120563-000318-L   112120006003000407088SERVIETTES 33cm RED    0000002000+00002192+00000+0001T   00002192+0000001521          1400 J58214               1AZ
112120003112120903-000710     112120006002099007056SWT REFRESHERS MINT    0000001000+00001139+00000+0001T   00001139+0000001521          1400 J58150               1AZ
112120004112120903-000137     112120006002099004130SWEET GS JELLY BEAN 60G0000001000+00000788+00000+0001T   00000788+0000001521          1400 J58150               1AZ
112120005112120903-000499     112120006001704012492SWT CHOC MALLOWS 50g   0000001000+00001227+00000+0001T   00001227+0000001521          1400 J58150               1AZ
112120006112120903-000211     112120006002099001238SWT GS MALLOW ICE CREAM0000002000+00001753+00000+0001T   00001753+0000001521          1400 J58150               1AZ
112120007112120112-116038     112120006009681820246TCS CARRIER BAG MIDI   0000001000+00000035+00000+0001T   00000035+0000001521          1400 J58090               1AZ
112121000112121               112121               170213NA     1400+00000+NA0000002185+0000002185+000000000+000000310+0000002490+0000000005+I20000000000+0000002490+Z
112121001112121080-000133-A   112121006003000647019MINI VALENTINES CARD   0000005000+00000437+00000+0001T   00000437+0000001529          1400 J58112               1AZ
112122000112122               112122               170213NA     1400+00000+NA0000000876+0000000876+000000000+000000123+0000000990+0000000009+I20000000000+0000000990+Z
112122001112122078-000025     112122008887013700064SUPERGLUE 3g 1PCE CARD 0000001000+00000876+00000+0001T   00000876+0000001529          1400 J58810               1AZ
112123000112123               112123               170213NA     1400+00000+NA0000001227+0000001227+000000000+000000172+0000001390+0000000009+I20000000000+0000001390+Z
112123001112123251-000040     112123006001023515865SEALTAPE CLEAR 48mmx50m0000001000+00001227+00000+0001T   00001227+0000001544          1400 J58810               1AZ
112124000112124               112124               170213NA     1400+00000+NA0000005260+0000005260+000000000+000000738+0000005990+0000000008+I20000000000+0000005990+Z
112124001112124565-000001     112124006003000307951NOVELTY INSECT BALL    0000002000+00002630+00000+0001T   00002630+0000001550          1400 J58745               1AZ
112125000112125               112125               170213NA     1400+00000+NA0000001400+0000001400+000000000+000000196+0000001590+0000000006+I20000000000+0000001590+Z
112125001112125566-002000     112125000721129013206STICKERS CRYSTAL ASSTD 0000002000+00000700+00000+0001T   00000700+0000001614          1400 J58130               1AZ
112126000112126               112126               170213NA     1400+00000+NA0000023189+0000023189+000000000+000003251+0000026440+0000000000+I40000026440+0000000000+Z
112126001112126077-000351     112126006003000139033GIFT-BAG 18X23CM E/D P 0000001000+00001753+00000+0001T   00001753+0000001621          1400 J58112               1AZ
112126002112126903-000090     112126006009826020821SWT GS CHOCO COINS 60g 0000001000+00002104+00000+0001T   00002104+0000001621          1400 J58150               1AZ
112126003112126903-003051     112126008024431008703SWT CHOCO PARTY 25G    0000001000+00000876+00000+0001T   00000876+0000001621          1400 J58150               1AZ
112126004112126903-000517     112126006001704012768SWT STRAWS FIZZY CHERRY0000001000+00001227+00000+0001T   00001227+0000001621          1400 J58150               1AZ
112126005112126903-000083     112126006001704014090SWT TUBE SPECKLED 115G 0000001000+00002192+00000+0001T   00002192+0000001621          1400 J58150               1AZ
112126006112126903-000120     112126006002099001665SWEET GS ZILLIONS 50g  0000001000+00000700+00000+0001T   00000700+0000001621          1400 J58150               1AZ
112126007112126903-000095     112126006001704011495SWT SPECKLED-EGGS 100G 0000001000+00002104+00000+0001T   00002104+0000001621          1400 J58150               1AZ
112126008112126903-000151     112126006009803374411SWT SML RND R/BOW LOLLY0000001000+00000525+00000+0001T   00000525+0000001621          1400 J58150               1AZ
112126009112126903-000087     112126006001704000161SWT SPECKLED-EGGS 50G  0000001000+00001139+00000+0001T   00001139+0000001621          1400 J58150               1AZ
112126010112126018-000177     112126006001023797513MUG MINI LOVE ASSTD    0000001000+00000700+00000+0001T   00000700+0000001621          1400 J58515               1AZ
112126011112126077-000299     112126006003000395576G/BAG 32x25cm LRG LOVE 0000001000+00001490+00000+0001T   00001490+0000001621          1400 J58112               1AZ
112126012112126077-000309-A   112126006003000671007GIFT-BAG HOLOGRAM JMB  0000001000+00002192+00000+0001T   00002192+0000001621          1400 J58112               1AZ
112126013112126112-116069     112126006009681820277TCS CARRIER BAG JUMBO  0000001000+00000048+00000+0001T   00000048+0000001621          1400 J58090               1AZ
112126014112126368-000265     112126006001023750914PLUSH BEAR 23CM ASSTD C0000001000+00006139+00000+0001T   00006139+0000001621          1400 J58745               1AZ
112127000112127               112127               170213NA     1400+00000+NA0000004385+0000004385+000000000+000000614+0000004990+0000000009+I20000000000+0000004990+Z
112127001112127006-000190     112127006003000685530BALLOONS LOVE 81x91cm  0000001000+00004385+00000+0001T   00004385+0000001625          1400 J58131               1AZ
112128000112128               112128               170213NA     1400+00000+NA0000002454+0000002454+000000000+000000344+0000002798+0000000000+I40000002798+0000000000+Z
112128001112128903-000519     112128006001704012805SWT MS LIQ-O-GHETTI    0000001000+00001227+00000+0001T   00001227+0000001630          1400 J58150               1AZ
112128002112128903-000518     112128006001704012782SWT STRAWS S/BERRY 100g0000001000+00001227+00000+0001T   00001227+0000001630          1400 J58150               1AZ
112129000112129               112129               170213NA     1400+00000+NA0000002279+0000002279+000000000+000000320+0000002590+0000000009+I20000000000+0000002590+Z
112129001112129027-001020     112129006001246602519BROOM FLOOR W/HANDLE   0000001000+00002279+00000+0001T   00002279+0000001641          1400 J58212               1AZ
112130000112130               112130               170213NA     1400+00000+NA0000001753+0000001753+000000000+000000246+0000001990+0000000009+I20000000000+0000001990+Z
112130001112130306-000024-A   112130006003000577309COTTON-WOOL-PADS 80PC  0000001000+00001753+00000+0001T   00001753+0000001642          1400 J58200               1AZ
112131000112131               112131               170213NA     1400+00000+NA0000001578+0000001578+000000000+000000221+0000001790+0000000009+I20000000000+0000001790+Z
112131001112131077-000303     112131006001023593757GIFT-BAG PAPER MED     0000001000+00001578+00000+0001T   00001578+0000001647          1400 J58112               1AZ
112132000112132               112132               170213NA     1400+00000+NA0000001488+0000001488+000000000+000000209+0000001690+0000000007+I20000000000+0000001690+Z
112132001112132903-000200     112132006009826020234SWT CHOC RP CHOCO 23G  0000001000+00000788+00000+0001T   00000788+0000001649          1400 J58150               1AZ
112132002112132566-002000     112132000721129013206STICKERS CRYSTAL ASSTD 0000001000+00000700+00000+0001T   00000700+0000001649          1400 J58130               1AZ
112133000112133               112133               170213NA     1400+00000+NA0000011398+0000011398+000000000+000001597+0000012990+0000000005+I20000000000+0000012990+Z
112133001112133089-060027     112133006003000245871KEY-CHAIN HEART 6X6cm  0000001000+00003069+00000+0001T   00003069+0000001703          1400 J58205               1AZ
112133002112133018-000127     112133006001023380289MUG OCC STRAIGHT LOVE  0000001000+00001578+00000+0001T   00001753+0006471703          1400 J58515               1AZ
112133003112133077-000315     112133006003000181186GIFT-BAG 20x28cm MATT  0000001000+00001578+00000+0001T   00001578+0000001703          1400 J58112               1AZ
112133004112133368-000049     112133006003000536955PLUSH BEAR 15cm LOVE   0000001000+00004385+00000+0001T   00004385+0000001703          1400 J58745               1AZ
112133005112133903-000200     112133006009826020234SWT CHOC RP CHOCO 23G  0000001000+00000788+00000+0001T   00000788+0000001703          1400 J58150               1AZ
112134000112134               112134               170213NA     1400+00000+NA0000003364+0000003364+000000000+000000472+0000003830+0000000006+I20000000000+0000003830+Z
112134001112134566-002000     112134000721129013206STICKERS CRYSTAL ASSTD 0000001000+00000700+00000+0001T   00000700+0000001718          1400 J58130               1AZ
112134002112134566-000200     112134006003000384174STICKER PUFFY NEON     0000001000+00000876+00000+0001T   00000876+0000001718          1400 J58130               1AZ
112134003112134566-001501     112134006003000658398STICKER PAPER EMOTION  0000001000+00001753+00000+0001T   00001753+0000001718          1400 J58130               1AZ
112134004112134112-116038     112134006009681820246TCS CARRIER BAG MIDI   0000001000+00000035+00000+0001T   00000035+0000001718          1400 J58090               1AZ
A17021300                                          09102527NASLAVE 1                       J581IC
A17021301                                          09130421NASLAVE 1                       J581IC
A17021302                                          14261525NASLAVE 1                       J583IC
A17021303                                          17050394NASLAVE 1                       J583IC
A17021304                                          17244585NASLAVE 1                       J582IC
M17021301                              SHIEHAAM    NASLAVE 01 Z READING R1983.13                     CASH BANKING R1311.30                           CT CARDS R535.83                                PAYOUT 1. STAFF REFRESHMENTS R135.97
M17021302                              IT          NAATT: IT                                         SLAVE 01 LAST SLIP NO 112134
M17021391                              CASH        NASLAVE 1                       Z-REPORT No.   512TOTAL (Sales - Refunds)           1983.13       CASH TO BE BANKED                 1311.30       DEBIT CARDS                          0.00       CREDIT CARDS                       535.83       Z-READING                         1847.13       AIRTIME DEBIT CARD SALES             0.00       AIRTIME CARD SALES                   0.00       OVERS/UNDERS                         0.00       AIRTIME CASH SALES                   0.00       GIFT CARDS                           0.00       GIFT CARD CASH SALES                 0.00       STAFF-REFRESHMENTS                 135.97       ROUNDING                             0.03       T O T A L  CASH PAYOUTS            136.00                                                                                                                                                                                                                                                      Z
M17021392                              CASH        NAABSENT                                                                                                                                                                                          ANNUAL LEAVE                                                                                                                                                                                    DAY OFF                                                                                                                                                                                         COMMENTS                                                                                                                                                                                                                                                                                                                                                                                       Z
Y17021300                                          NA00005600174092+000029
ZNA17021320083 SLAVE 1      SALES DATA                     NEXT INVOICE NO.  112135 0512
T093990496-028142                                          1702131241040000021ICSLAVE 1
X NA Slave 1 First invoice 112105 170213 Last invoice 112134 170213 Next invoice 112135 Total number of records 000000117 clbackup completed 20:08:59
