129051000129051               129051               170213NA     1400+00000+NA0000007016+0000007016+000000000+000000983+0000007999+0000000000+I40000007999+0000000000+Z
129051001129051567-010598     129051009781842058527BOOK DICTIONERY GG AFR 0000001000+00007016+00000+0001T   00007016+0000001023          1400 LE3757               2AZ
129052000129052               129052               170213NA     1400+00000+NA0000001139+0000001139+000000000+000000160+0000001290+0000000009+I20000000000+0000001290+Z
129052001129052903-000709     129052006002099007070SWT QUENCHERS FRUIT    0000001000+00001139+00000+0001T   00001139+0000001028          1400 LE3150               2AZ
129053000129053               129053               170213NA     1400+00000+NA0000001578+0000001578+000000000+000000221+0000001790+0000000009+I20000000000+0000001790+Z
129053001129053080-000124     129053006003000297733CARD & ENV VALENTINES  0000001000+00001578+00000+0001T   00001578+0000001040          1400 LE3112               2AZ
129054000129054               129054               170213NA     1400+00000+NA0000010782+0000010782+000000000+000001512+0000012290+0000000004+I20000000000+0000012290+Z
129054001129054903-000087     129054006001704000161SWT SPECKLED-EGGS 50G  0000003000+00001139+00000+0001T   00001139+0000001103          1400 LE3150               2AZ
129054002129054030-000031-A   129054006003000457588PLAQUE W/WORDS ASSTD   0000001000+00004385+00000+0001T   00004823+0006471103          1400 LE3505               2AZ
129054003129054903-000200     129054006009826020234SWT CHOC RP CHOCO 23G  0000001000+00000788+00000+0001T   00000788+0000001103          1400 LE3150               2AZ
129054004129054080-000127     129054006003000424351VALENTINES DAY 36x24CM 0000001000+00002192+00000+0001T   00002192+0000001103          1400 LE3112               2AZ
129055000129055               129055               170213NA     1400+00000+NA0000001753+0000001753+000000000+000000246+0000001990+0000000009+I20000000000+0000001990+Z
129055001129055108-005005     129055006003000667451TRAY PL 29x21cm RECT   0000001000+00001753+00000+0001T   00001753+0000001210          1400 LE3210               2AZ
129056000129056               129056               170213NA     1400+00000+NA0000006171+0000006171+000000000+000000866+0000007037+0000000000+I40000007037+0000000000+Z
129056001129056133-000012     129056006001023561084CLEANING-CLOTH GREEN   0000001000+00001753+00000+0001T   00001753+0000001220          1400 LE3212               2AZ
129056002129056567-075699     129056006003000428168BK NOVEL CATEGORY A    0000001000+00002630+00000+0001T   00003069+0008191220          1400 LE3757               2AZ
129056003129056306-000002     129056006003000365852NAIL BRUSHES 3PC ASTD  0000001000+00001753+00000+0001T   00001753+0000001220          1400 LE3200               2AZ
129056004129056112-116038     129056006009681820246TCS CARRIER BAG MIDI   0000001000+00000035+00000+0001T   00000035+0000001220          1400 LE3090               2AZ
129057000129057               129057               170213NA     1400+00000+NA0000000876+0000000876+000000000+000000123+0000000990+0000000009+I20000000000+0000000990+Z
129057001129057077-000302     129057008010410010195GIFT-BAG 18X23CM E/D   0000001000+00000876+00000+0001T   00000876+0000001221          1400 LE3112               2AZ
129058000129058               129058               170213NA     1400+00000+NA0000010522+0000010522+000000000+000001474+0000011996+0000000000+I40000011996+0000000000+Z
129058001129058368-000265     129058006001023750914PLUSH BEAR 23CM ASSTD C0000001000+00006139+00000+0001T   00006139+0000001225          1400 LE3745               2AZ
129058002129058089-060027     129058006003000245871KEY-CHAIN HEART 6X6cm  0000001000+00003069+00000+0001T   00003069+0000001225          1400 LE3205               2AZ
129058003129058077-000310     129058006001023608635GIFT-BAG 18X23CM GLOSS 0000001000+00001314+00000+0001T   00001314+0000001225          1400 LE3112               2AZ
129059000129059               129059               170213NA     1400+00000+NA0000005695+0000005695+000000000+000000798+0000006493+0000000000+I40000006493+0000000000+Z
129059001129059566-002000     129059000721129013206STICKERS CRYSTAL ASSTD 0000001000+00000700+00000+0001T   00000700+0000001229          1400 LE3130               2AZ
129059002129059566-000858     129059006001023760975STCKRS G/OUTLINE ASSTD 0000001000+00000788+00000+0001T   00000788+0000001229          1400 LE3130               2AZ
129059003129059567-011378     129059009781472307491BK STICKER SCENE JAKE  0000001000+00003507+00000+0001T   00003507+0000001229          1400 LE3757               2AZ
129059004129059007-000537     129059000651728791017NOTE-PAD RND SMILE-FACE0000001000+00000700+00000+0001T   00000700+0000001229          1400 LE3130               2AZ
129060000129060               129060               170213NA     1400+00000+NA0000005291+0000005291+000000000+000000741+0000006030+0000000002+I20000000000+0000006030+Z
129060001129060903-000194     129060006009826020616SWT CHOC RP LOLLY 25G  0000004000+00001314+00000+0001T   00001314+0000001324          1400 LE3150               2AZ
129060002129060112-116038     129060006009681820246TCS CARRIER BAG MIDI   0000001000+00000035+00000+0001T   00000035+0000001324          1400 LE3090               2AZ
129061000129061               129061               170213NA     1400+00000+NA0000028282+0000028282+000000000+000003962+0000032244+0000000000+I40000032244+0000000000+Z
129061001129061089-000501     129061006003000622900KEY CHAIN LIGHT LASER  0000002000+00002192+00000+0001T   00002192+0000001334          1400 LE3205               2AZ
129061002129061079-000334     129061006003000670437THERAPY P/CRAYONS 18   0000002000+00005262+00000+0001T   00005262+0000001334          1400 LE3130               2AZ
129061003129061567-011344     129061006003000630714BK COLOURING THERAPY 640000002000+00003507+00000+0001T   00003507+0000001334          1400 LE3757               2AZ
129061004129061140-005093     129061006003000331338INSECT-KILL RAQT-SHAPED0000001000+00005262+00000+0001T   00005262+0000001334          1400 LE3830               2AZ
129061005129061903-000151     129061006009803374411SWT SML RND R/BOW LOLLY0000002000+00000525+00000+0001T   00000525+0000001334          1400 LE3150               2AZ
129061006129061112-116069     129061006009681820277TCS CARRIER BAG JUMBO  0000001000+00000048+00000+0001T   00000048+0000001334          1400 LE3090               2AZ
129062000129062               129062               170213NA     1400+00000+NA0000007715+0000007715+000000000+000001081+0000008796+0000000000+I40000008796+0000000000+Z
129062001129062027-078343     129062006008766078343SCRUB-BRUSH IRON-SHAPE 0000001000+00001139+00000+0001T   00001578+0008191340          1400 LE3212               2AZ
129062002129062903-000844     129062005010478432567SWT CANDY DL LUV HEARTS0000001000+00001314+00000+0001T   00001314+0000001340          1400 LE3150               2AZ
129062003129062027-008812     129062006003000465460DUSTER MICROFIBRE 58cm 0000001000+00005262+00000+0001T   00005262+0000001340          1400 LE3212               2AZ
129063000129063               129063               170213NA     1400+00000+NA0000025954+0000025954+000000000+000003637+0000029591+0000000000+I40000029591+0000000000+Z
129063001129063080-000133-A   129063006003000647019MINI VALENTINES CARD   0000001000+00000437+00000+0001T   00000437+0000001411          1400 LE3112               2AZ
129063002129063251-000041     129063006001023515889SEAL-TAPE BUFF 48mmx50m0000002000+00001227+00000+0001T   00001227+0000001411          1400 LE3810               2AZ
129063003129063403-000030     129063006003000282159J/HOLDER MTL SML 2-ASST0000002000+00009648+00000+0001T   00009648+0000001411          1400 LE3510               2AZ
129063004129063566-000359     129063006003000582709STICKER BOOK LOVE SPARK0000001000+00002192+00000+0001T   00002192+0000001411          1400 LE3130               2AZ
129063005129063903-000077     129063006939873501687SWT GS MAGIC ROCK FRUIT0000003000+00000525+00000+0001T   00000525+0000001411          1400 LE3150               2AZ
129064000129064               129064               170213NA     1400+00000+NA0000007892+0000007892+000000000+000001105+0000008997+0000000000+I40000008997+0000000000+Z
129064001129064034-079090     129064006001023855503COOEY BRUSH+COMB-SET   0000001000+00004385+00000+0001T   00004385+0000001421          1400 LE3215               2AZ
129064002129064162-096635     129064006001492966359#TAG EARRINGS MTL DROP 0000001000+00003507+00000+0001T   00003507+0000001421          1400 LE3160               2AZ
129065000129065               129065               170213NA     1400+00000+NA0000005898+0000005898+000000000+000000832+0000006730+0000000000+I20000000000+0000006730+Z
129065001129065077-000150-D   129065006003000054343GIFT-WRAP CELLPHANE CLR0000002000+00000876+00000+0001T   00000876+0000001425          1400 LE3112               2AZ
129065002129065030-000010     129065006003000084395P/DOOR HANGER 2-ASSTD  0000001000+00001314+00000+0001T   00001490+0008181425          1400 LE3505               2AZ
129065003129065903-000183     129065006003000451043SWT LB HEART LOLLY     0000004000+00000393+00000+0001T   00000393+0000001425          1400 LE3150               2AZ
129065004129065080-000133-A   129065006003000647019MINI VALENTINES CARD   0000001000+00000437+00000+0001T   00000437+0000001425          1400 LE3112               2AZ
129065005129065903-000200     129065006009826020234SWT CHOC RP CHOCO 23G  0000001000+00000788+00000+0001T   00000788+0000001425          1400 LE3150               2AZ
129065006129065112-116038     129065006009681820246TCS CARRIER BAG MIDI   0000001000+00000035+00000+0001T   00000035+0000001425          1400 LE3090               2AZ
129066000129066               129066               170213NA     1400+00000+NA0000000437+0000000437+000000000+000000062+0000000499+0000000000+I40000000499+0000000000+Z
129066001129066080-000133-A   129066006003000647019MINI VALENTINES CARD   0000001000+00000437+00000+0001T   00000437+0000001458          1400 LE3112               2AZ
129067000129067               129067               170213NA     1400+00000+NA0000005309+0000005309+000000000+000000744+0000006050+0000000003+I20000000000+0000006050+Z
129067001129067031-000864-A   129067006001023798350P/FRAME MAHOGANY 10X15 0000001000+00003069+00000+0001T   00003069+0000001500          1400 LE3510               2AZ
129067002129067080-000127     129067006003000424351VALENTINES DAY 36x24CM 0000001000+00002192+00000+0001T   00002192+0000001500          1400 LE3112               2AZ
129067003129067112-116069     129067006009681820277TCS CARRIER BAG JUMBO  0000001000+00000048+00000+0001T   00000048+0000001500          1400 LE3090               2AZ
129068000129068               129068               170213NA     1400+00000+NA0000001314+0000001314+000000000+000000184+0000001490+0000000008+I20000000000+0000001490+Z
129068001129068077-000310     129068006001023608635GIFT-BAG 18X23CM GLOSS 0000001000+00001314+00000+0001T   00001314+0000001604          1400 LE3112               2AZ
129069000129069               129069               170213NA     1400+00000+NA0000005645+0000005645+000000000+000000792+0000006437+0000000000+I40000006437+0000000000+Z
129069001129069077-000245     129069006001023759214GIFT-RIBBON METALLICx2 0000001000+00001227+00000+0001T   00001227+0000001652          1400 LE3112               2AZ
129069002129069039-000100     12906900600300060614625CM WHITE CANDLE 6PC  0000001000+00002630+00000+0001T   00002630+0000001652          1400 LE3510               2AZ
129069003129069077-000904     129069006003000410682G/WRAP 700mmx1m PATTERN0000001000+00001753+00000+0001T   00001753+0000001652          1400 LE3112               2AZ
129069004129069112-116038     129069006009681820246TCS CARRIER BAG MIDI   0000001000+00000035+00000+0001T   00000035+0000001652          1400 LE3090               2AZ
129070000129070               129070               170213NA     1400+00000+NA0000017542+0000017542+000000000+000002456+0000019990+0000000008+I20000000000+0000019990+Z
129070001129070403-000032     129070006003000514731J/HOLDER HEART-SHAPE   0000001000+00017542+00000+0001T   00017542+0000001653          1400 LE3510               2AZ
129071000129071               129071               170213NA     1400+00000+NA0000002278+0000002278+000000000+000000320+0000002590+0000000008+I20000000000+0000002590+Z
129071001129071046-000014     129071006001023725387BATTERIES SIZE:AAA 4PCE0000002000+00001139+00000+0001T   00001139+0000001654          1400 LE3312               2AZ
129072000129072               129072               170213NA     1400+00000+NA0000003506+0000003506+000000000+000000492+0000003990+0000000008+I20000000000+0000003990+Z
129072001129072903-000624     129072006003000671793SWEET LOLLY BLU/BRRY   0000001000+00001753+00000+0001T   00001753+0000001655          1400 LE3150               2AZ
129072002129072903-000619     129072006003000672455SWT LOLLY STR/BRRY 140G0000001000+00001753+00000+0001T   00001753+0000001655          1400 LE3150               2AZ
129073000129073               129073               170213NA     1400+00000+NA0000001753+0000001753+000000000+000000246+0000001990+0000000009+I20000000000+0000001990+Z
129073001129073080-000123     129073006003000237722CARD&ENVELOPE-SYMPATHY 0000001000+00001753+00000+0001T   00001753+0000001656          1400 LE3112               2AZ
129074000129074               129074               170213NA     1400+00000+NA0000001753+0000001753+000000000+000000246+0000001990+0000000009+I20000000000+0000001990+Z
129074001129074077-000309     129074006001023608604GIFT-BAG 25X32CM GLOSS 0000001000+00001753+00000+0001T   00001753+0000001702          1400 LE3112               2AZ
129075000129075               129075               170213NA     1400+00000+NA0000005873+0000005873+000000000+000000824+0000006690+0000000007+I20000000000+0000006690+Z
129075001129075031-005918     129075006003000580453P/FRAME PL PLAIN 10X15 0000001000+00002630+00000+0001T   00002630+0000001704          1400 LE3510               2AZ
129075002129075077-000299     129075006003000395576G/BAG 32x25cm LRG LOVE 0000001000+00001490+00000+0001T   00001490+0000001704          1400 LE3112               2AZ
129075003129075089-000030     129075006003000575671K/CHAIN LOVE MTL ASSTD 0000001000+00001753+00000+0001T   00001753+0000001704          1400 LE3205               2AZ
129076000129076               129076               170213NA     1400+00000+NA0000005344+0000005344+000000000+000000750+0000006090+0000000004+I20000000000+0000006090+Z
129076001129076903-000194     129076006009826020616SWT CHOC RP LOLLY 25G  0000001000+00001314+00000+0001T   00001314+0000001730          1400 LE3150               2AZ
129076002129076903-000200     129076006009826020234SWT CHOC RP CHOCO 23G  0000002000+00000788+00000+0001T   00000788+0000001730          1400 LE3150               2AZ
129076003129076018-000127     129076006001023380289MUG OCC STRAIGHT LOVE  0000001000+00001578+00000+0001T   00001753+0006471730          1400 LE3515               2AZ
129076004129076077-000302     129076008010410010195GIFT-BAG 18X23CM E/D   0000001000+00000876+00000+0001T   00000876+0000001730          1400 LE3112               2AZ
129077000129077               129077               170213NA     1400+00000+NA0000004642+0000004642+000000000+000000653+0000005295+0000000000+I40000005295+0000000000+Z
129077001129077018-000127     129077006001023380289MUG OCC STRAIGHT LOVE  0000001000+00001578+00000+0001T   00001753+0006471731          1400 LE3515               2AZ
129077002129077362-003000     129077006003000295258GIRL HEART NOTEBOOK    0000001000+00001753+00000+0001T   00002630+0008191731          1400 LE3160               2AZ
129077003129077080-000133-A   129077006003000647019MINI VALENTINES CARD   0000003000+00000437+00000+0001T   00000437+0000001731          1400 LE3112               2AZ
A17021300                                          09320239NASLAVE 2                       LE32IC
A17021301                                          17253211NASLAVE 2                       LE32IC
C12906200                                          170213NA024-000042     13391478SLAVE 2     LE32IC0000000000+0000000000+0010000001000+
M17021301                              SHIEHAAM    NASLAVE 02 Z READING R2073.64                     CASH BANKING R819.80                            CT CARDS R1253.84
M17021302                              IT          NAATT:IT                                          SLAVE 02 LAST SLIP NO 129077
M17021391                              CASH        NASLAVE 2                       Z-REPORT No.   455TOTAL (Sales - Refunds)           2073.64       CASH TO BE BANKED                  819.80       DEBIT CARDS                          0.00       CREDIT CARDS                      1253.84       Z-READING                         2073.64       AIRTIME DEBIT CARD SALES             0.00       AIRTIME CARD SALES                   0.00       OVERS/UNDERS                         0.00       AIRTIME CASH SALES                   0.00       GIFT CARDS                           0.00       GIFT CARD CASH SALES                 0.00       T O T A L  CASH PAYOUTS              0.00                                                                                                                                                                                                                                                                                                                                                      Z
M17021392                              CASH        NAABSENT                                                                                                                                                                                          ANNUAL LEAVE                                                                                                                                                                                    DAY OFF                                                                                                                                                                                         COMMENTS                                                                                                                                                                                                                                                                                                                                                                                       Z
Y17021300                                          NA00000000181960+000027
ZNA17021320093 SLAVE 2      SALES DATA                     NEXT INVOICE NO.  129078 0455
T093990496-028142                                          1702131243230000021ICSLAVE 2
X NA Slave 2 First invoice 129051 170213 Last invoice 129077 170213 Next invoice 129078 Total number of records 000000106 clbackup completed 20:09:01
