103925000103925               103925               170213NB     1400+00000+NB0000011781+0000011781+000000000+000001653+0000013434+0000000000+I40000013434+0000000000+Z
103925001103925112-116038     103925006009681820246TCS CARRIER BAG MIDI   0000001000+00000035+00000+0001T   00000035+0000001122          1400 PH7090               1AZ
103925002103925038-047250     103925006001023816009PLACE MAT ASSORTED     0000002000+00001753+00000+0001T   00001753+0000001122          1400 PH7300               1AZ
103925003103925306-001002     103925006003000560233PLASTER FABRIC 10PC    0000001000+00001490+00000+0001T   00001490+0000001122          1400 PH7200               1AZ
103925004103925306-001125-A   103925006003000359127FIRSTAID SUPPORT KNEE  0000001000+00002630+00000+0001T   00002630+0000001122          1400 PH7200               1AZ
103925005103925106-005120     103925006001023897336ICE-LOLLY-MAKER 6PCE   0000001000+00003069+00000+0001T   00003069+0000001122          1400 PH7210               1AZ
103925006103925079-009702-D   103925008427973059354PAPER SIRIO A2 RED COL 0000001000+00001051+00000+0001T   00001051+0000001122          1400 PH7130               1AZ
103926000103926               103926               170213NB     1400+00000+NB0000010524+0000010524+000000000+000001474+0000011990+0000000008+I20000000000+0000011990+Z
103926001103926024-000165-B   103926006003000674190N/STICK ROUND PIE PAN  0000002000+00005262+00000+0001T   00005262+0000001123          1400 PH7300               1AZ
103927000103927               103927               170213NB     1400+00000+NB0000016522+0000016522+000000000+000002315+0000018830+0000000007+I20000000000+0000018830+Z
103927001103927368-000111     103927006001023780812PLUSH BEAR/DOG 29CM    0000001000+00012279+00000+0001T   00012279+0000001149          1400 2IC745               1AZ
103927002103927903-000095     103927006001704011495SWT SPECKLED-EGGS 100G 0000002000+00002104+00000+0001T   00002104+0000001149          1400 2IC150               1AZ
103927003103927112-116038     103927006009681820246TCS CARRIER BAG MIDI   0000001000+00000035+00000+0001T   00000035+0000001149          1400 2IC090               1AZ
103928000103928               103928               170213NB     1400+00000+NB0000008415+0000008415+000000000+000001181+0000009596+0000000000+I40000009596+0000000000+Z
103928001103928563-000317-K   103928006003000697885SERVIETTE 2PLY 33cm    0000001000+00001753+00000+0001T   00001753+0000001151          1400 PH7214               1AZ
103928002103928563-000317-J   103928006001023776419SERVIETTE 2PLY 33cm    0000001000+00001753+00000+0001T   00001753+0000001151          1400 PH7214               1AZ
103928003103928159-000117     103928006003000450398SHOWER CAP PVC ASSTD   0000001000+00002630+00000+0001T   00002630+0000001151          1400 PH7200               1AZ
103928004103928027-001020     103928006001246602519BROOM FLOOR W/HANDLE   0000001000+00002279+00000+0001T   00002279+0000001151          1400 PH7212               1AZ
103929000103929               103929               170213NB     1400+00000+NB0000011722+0000011722+000000000+000001651+0000013370+0000000003+I20000000000+0000013370+Z
103929001103929006-000171-D   103929006003000609291BALLOONS 1PC ORANGE PRN0000001000+00000218+00000+0001T   00000218+0000001209          1400 PH7131               1AZ
103929002103929006-001000     103929006003000093779HELIUM BALLOON FILL    0000001000+00000613+00000+0001T   00000613+0000001209          1400 PH7131               1AZ
103929003103929006-000166-D   103929006003000516490BALLOONS LRG 6PC RED   0000001000+00001314+00000+0001T   00001314+0000001209          1400 PH7131               1AZ
103929004103929006-001000     103929006003000093779HELIUM BALLOON FILL    0000002000+00000613+00000+0001T   00000613+0000001209          1400 PH7131               1AZ
103929005103929112-116038     103929006009681820246TCS CARRIER BAG MIDI   0000001000+00000035+00000+0001T   00000035+0000001209          1400 PH7090               1AZ
103929006103929077-000116     103929006003000240777GIFT-WRAP 700mmx2m COL 0000001000+00001753+00000+0001T   00001753+0000001209          1400 PH7112               1AZ
103929007103929077-000926     103929006003000414178G/WRAP 700mmx2m LOVE   0000001000+00002192+00000+0001T   00002192+0000001209          1400 PH7112               1AZ
103929008103929077-000245     103929006001023759214GIFT-RIBBON METALLICx2 0000001000+00001227+00000+0001T   00001227+0000001209          1400 PH7112               1AZ
103929009103929903-000183     103929006003000451043SWT LB HEART LOLLY     0000008000+00000393+00000+0001T   00000393+0000001209          1400 PH7150               1AZ
103930000103930               103930               170213NB     1400+00000+NB0000005260+0000005260+000000000+000000738+0000005990+0000000008+I20000000000+0000005990+Z
103930001103930019-071601     103930006001023771995RIVER-STONES 1kg WHITE 0000002000+00002630+00000+0001T   00002630+0000001210          1400 PH7510               1AZ
103931000103931               103931               170213NB     1400+00000+NB0000022567+0000022567+000000000+000003161+0000025728+0000000000+I40000025728+0000000000+Z
103931001103931112-116038     103931006009681820246TCS CARRIER BAG MIDI   0000001000+00000035+00000+0001T   00000035+0000001218          1400 PH7090               1AZ
103931002103931200-000012     103931006003000399536BAG 50PCE 165x146mm    0000002000+00003507+00000+0001T   00003507+0000001218          1400 PH7214               1AZ
103931003103931200-000020     103931006925406841030BAG ZIPPERSEAL 25PC    0000001000+00002192+00000+0001T   00002192+0000001218          1400 PH7214               1AZ
103931004103931200-000080     103931005024418420439ICE-CUBE-MAKER 336PCE  0000001000+00001753+00000+0001T   00001753+0000001218          1400 PH7214               1AZ
103931005103931004-071204     103931006003000624904USB IN-CAR CHARGER 2.1A0000001000+00003507+00000+0001T   00003507+0000001218          1400 PH7310               1AZ
103931006103931048-000700     103931006001023849731HEAD-LAMP 10xLED (3xAAA0000001000+00004385+00000+0001T   00004385+0000001218          1400 PH7305               1AZ
103931007103931362-003002     103931006003000295494GIRL ORGANZA BAG ACC   0000001000+00001314+00000+0001T   00001753+0008181218          1400 PH7160               1AZ
103931008103931046-000010-A   103931006003000438778BATTERIES SIZE:AAA 4PCE0000001000+00002367+00000+0001T   00002367+0000001218          1400 PH7312               1AZ
103932000103932               103932               170213NB     1400+00000+NB0000003717+0000003717+000000000+000000521+0000004230+0000000008+I20000000000+0000004230+Z
103932001103932030-000030-A   103932006003000249305PLAQUE GLASS LOVE      0000001000+00003069+00000+0001T   00003069+0000001219          1400 PH7505               1AZ
103932002103932304-001011     103932006001023806727FLWR ROSE RED W/BEAR   0000001000+00000613+00000+0001T   00000788+0006471219          1400 PH7510               1AZ
103932003103932112-116038     103932006009681820246TCS CARRIER BAG MIDI   0000001000+00000035+00000+0001T   00000035+0000001219          1400 PH7090               1AZ
103933000103933               103933               170213NB     1400+00000+NB0000007048+0000007048+000000000+000000988+0000008036+0000000000+I40000008036+0000000000+Z
103933001103933368-000040     103933006003000671786PLUSH ICONS 7.5cm      0000001000+00002630+00000+0001T   00002630+0000001222          1400 PH7745               1AZ
103933002103933162-097718     103933006001492977188#TAG CHARM BRACELET    0000001000+00003507+00000+0001T   00003507+0000001222          1400 PH7160               1AZ
103933003103933077-000408     103933006003000145218G/BAG PP 15X21X7CM     0000001000+00000876+00000+0001T   00000876+0000001222          1400 PH7112               1AZ
103933004103933112-116038     103933006009681820246TCS CARRIER BAG MIDI   0000001000+00000035+00000+0001T   00000035+0000001222          1400 PH7090               1AZ
103934000103934               103934               170213NB     1400+00000+NB0000012325+0000012325+000000000+000001727+0000014052+0000000000+I40000014052+0000000000+Z
103934001103934466-000109     103934006003000612345BALL RAINBOW DESIGN    0000001000+00001753+00000+0001T   00001753+0000001301          1400 PH7785               1AZ
103934002103934369-000821     103934006003000164431BABY SHAPE-SORTER RND  0000001000+00008771+00000+0001T   00008771+0000001301          1400 PH7745               1AZ
103934003103934200-003026     103934006003000276448REFUSE BAGS 10PCE GREEN0000001000+00001753+00000+0001T   00001753+0000001301          1400 PH7214               1AZ
103934004103934112-116069     103934006009681820277TCS CARRIER BAG JUMBO  0000001000+00000048+00000+0001T   00000048+0000001301          1400 PH7090               1AZ
103935000103935               103935               170213NB     1400+00000+NB0000013416+0000013416+000000000+000001880+0000015290+0000000006+I20000000000+0000015290+Z
103935001103935033-006003     103935006001023678584SEWING-KIT             0000001000+00002630+00000+0001T   00002630+0000001312          1400 PH7200               1AZ
103935002103935032-000312     103935006003000191956MIRROR POCKET RECT ASST0000001000+00001490+00000+0001T   00001490+0000001312          1400 PH7510               1AZ
103935003103935002-021040     103935006001023812216PARTY-PICKS 100PCE     0000001000+00000525+00000+0001T   00000525+0000001312          1400 PH7300               1AZ
103935004103935306-001625     103935000694202803202PILLOW FOAM 46X9X29cm  0000001000+00008771+00000+0001T   00013157+0008171312          1400 PH7200               1AZ
103936000103936               103936               170213NB     1400+00000+NB0000000876+0000000876+000000000+000000123+0000000990+0000000009+I20000000000+0000000990+Z
103936001103936083-000295     103936000644002201821LIGHTER-GAS BUTANE 18ml0000001000+00000876+00000+0001T   00000876+0000001313          1400 PH7315               1AZ
103937000103937               103937               170213NB     1400+00000+NB0000005646+0000005646+000000000+000000791+0000006437+0000000000+I40000006437+0000000000+Z
103937001103937040-000220     103937006001023845313C/HOLDER HEART 17X18CM 0000001000+00004385+00000+0001T   00004385+0000001317          1400 PH7510               1AZ
103937002103937304-001011     103937006001023806727FLWR ROSE RED W/BEAR   0000002000+00000613+00000+0001T   00000788+0006471317          1400 PH7510               1AZ
103937003103937112-116038     103937006009681820246TCS CARRIER BAG MIDI   0000001000+00000035+00000+0001T   00000035+0000001317          1400 PH7090               1AZ
103938000103938               103938               170213NB     1400+00000+NB0000000613+0000000613+000000000+000000086+0000000690+0000000009+I20000000000+0000000690+Z
103938001103938304-001011     103938006001023806727FLWR ROSE RED W/BEAR   0000001000+00000613+00000+0001T   00000788+0006471318          1400 PH7510               1AZ
103939000103939               103939               170213NB     1400+00000+NB0000010641+0000010641+000000000+000001493+0000012134+0000000000+I40000012134+0000000000+Z
103939001103939112-116038     103939006009681820246TCS CARRIER BAG MIDI   0000001000+00000035+00000+0001T   00000035+0000001327          1400 PH7090               1AZ
103939002103939072-020350     103939006001023598035PET DOG/CAT BOWL DOUBLE0000001000+00002630+00000+0001T   00002630+0000001327          1400 PH7870               1AZ
103939003103939903-004951     103939006002580020328SWT MALLOW MINI M/SHAKE0000001000+00001227+00000+0001T   00001227+0000001327          1400 PH7150               1AZ
103939004103939304-001011     103939006001023806727FLWR ROSE RED W/BEAR   0000001000+00000613+00000+0001T   00000788+0006471327          1400 PH7510               1AZ
103939005103939079-000282     103939006001023493309PAINT TUBS POSTER 12COL0000001000+00002630+00000+0001T   00002630+0000001327          1400 PH7130               1AZ
103939006103939071-004200     103939006001023835901SAFETY SCISSOR         0000001000+00001753+00000+0001T   00001753+0000001327          1400 PH7130               1AZ
103939007103939564-000015     103939006003000140862BUBBLE TEST TUBE       0000001000+00001753+00000+0001T   00001753+0000001327          1400 PH7131               1AZ
103940000103940               103940               170213NB     1400+00000+NB0000003243+0000003243+000000000+000000455+0000003698+0000000000+I40000003698+0000000000+Z
103940001103940080-000113     103940006003000237449CARD&ENVLPE - LOVE     0000001000+00001753+00000+0001T   00001753+0000001328          1400 PH7112               1AZ
103940002103940077-000299     103940006003000395576G/BAG 32x25cm LRG LOVE 0000001000+00001490+00000+0001T   00001490+0000001328          1400 PH7112               1AZ
103941000103941               103941               170213NB     1400+00000+NB0000000035+0000000035+000000000+000000005+0000000040+0000000000+I20000000000+0000000040+Z
103941001103941112-116038     103941006009681820246TCS CARRIER BAG MIDI   0000001000+00000035+00000+0001T   00000035+0000001329          1400 PH7090               1AZ
103942000103942               103942               170213NB     1400+00000+NB0000001261+0000001261+000000000+000000177+0000001430+0000000008+I20000000000+0000001430+Z
103942001103942304-001011     103942006001023806727FLWR ROSE RED W/BEAR   0000002000+00000613+00000+0001T   00000788+0006471331          1400 PH7510               1AZ
103942002103942112-116038     103942006009681820246TCS CARRIER BAG MIDI   0000001000+00000035+00000+0001T   00000035+0000001331          1400 PH7090               1AZ
103943000103943               103943               170213NB     1400+00000+NB0000002630+0000002630+000000000+000000369+0000002990+0000000009+I20000000000+0000002990+Z
103943001103943366-002101     103943006003000617715DRESS UP MASK LIGHT UP 0000001000+00002630+00000+0001T   00002630+0000001334          1400 PH7131               1AZ
103944000103944               103944               170213NB     1400+00000+NB0000011517+0000011517+000000000+000001615+0000013132+0000000000+I40000013132+0000000000+Z
103944001103944112-116038     103944006009681820246TCS CARRIER BAG MIDI   0000001000+00000035+00000+0001T   00000035+0000001336          1400 PH7090               1AZ
103944002103944903-005003     103944006002580020106SWT DINKY DUMMIES 5PK  0000001000+00001490+00000+0001T   00001490+0000001336          1400 PH7150               1AZ
103944003103944019-000131     103944006003000456253PLANT. T/PLATE 10X12.5 0000001000+00002630+00000+0001T   00002630+0000001336          1400 PH7510               1AZ
103944004103944036-000020     103944006001023666512LINT-REMOVER B/O SMALL 0000001000+00003507+00000+0001T   00003507+0000001336          1400 PH7212               1AZ
103944005103944046-000011     103944004897006172994BATTERIES SIZE:AA  2PCE0000001000+00001402+00000+0001T   00001402+0000001336          1400 PH7312               1AZ
103944006103944033-001363     103944006001023802057HAIR-CLIPS 50mm 48PCE  0000001000+00001139+00000+0001T   00001139+0000001336          1400 PH7200               1AZ
103944007103944012-000001-A   103944006003000697663MICROWAVES PLATE-COVER 0000001000+00001314+00000+0001T   00001314+0000001336          1400 PH7300               1AZ
103945000103945               103945               170213NB     1400+00000+NB0000003542+0000003542+000000000+000000496+0000004030+0000000008+I20000000000+0000004030+Z
103945001103945031-000864-B   103945006001023798381P/FRAME MAHOGANY 13X18 0000001000+00003507+00000+0001T   00003507+0000001419          1400 PH7510               1AZ
103945002103945112-116038     103945006009681820246TCS CARRIER BAG MIDI   0000001000+00000035+00000+0001T   00000035+0000001419          1400 PH7090               1AZ
103946000103946               103946               170213NB     1400+00000+NB0000014064+0000014064+000000000+000001970+0000016034+0000000000+I40000016034+0000000000+Z
103946001103946112-116038     103946006009681820246TCS CARRIER BAG MIDI   0000001000+00000035+00000+0001T   00000035+0000001432          1400 PH7090               1AZ
103946002103946562-063360     103946006003000652167EDU LEARN LETTERS WDN  0000001000+00005262+00000+0001T   00005262+0000001432          1400 PH7755               1AZ
103946003103946079-000206     103946006003000639700PENCIL CRAYONS THERAPY 0000001000+00001753+00000+0001T   00001753+0000001432          1400 PH7130               1AZ
103946004103946567-011356     103946006003000638321BK STICKER&ACTIVITY FUN0000001000+00003507+00000+0001T   00003507+0000001432          1400 PH7757               1AZ
103946005103946562-000011     103946006003000600984PLAY DOUGH NEON TUBE   0000001000+00003507+00000+0001T   00003507+0000001432          1400 PH7755               1AZ
103947000103947               103947               170213NB     1400+00000+NB0000001529+0000001529+000000000+000000217+0000001740+0000000006+I20000000000+0000001740+Z
103947001103947903-000183     103947006003000451043SWT LB HEART LOLLY     0000003000+00000393+00000+0001T   00000393+0000001433          1400 PH7150               1AZ
103947002103947903-000159     103947006003000417629SWT LB SMALL DUMMIE    0000001000+00000350+00000+0001T   00000350+0000001433          1400 PH7150               1AZ
103948000103948               103948               170213NB     1400+00000+NB0000002488+0000002488+000000000+000000349+0000002830+0000000007+I20000000000+0000002830+Z
103948001103948304-001011     103948006001023806727FLWR ROSE RED W/BEAR   0000002000+00000613+00000+0001T   00000788+0006471443          1400 PH7510               1AZ
103948002103948077-000322     103948006001023677532GIFT-BAG 18X23CM E/D FL0000001000+00001227+00000+0001T   00001227+0000001443          1400 PH7112               1AZ
103948003103948112-116038     103948006009681820246TCS CARRIER BAG MIDI   0000001000+00000035+00000+0001T   00000035+0000001443          1400 PH7090               1AZ
103949000103949               103949               170213NB     1400+00000+NB0000008097+0000008097+000000000+000001135+0000009232+0000000000+I40000009232+0000000000+Z
103949001103949306-000985     103949006003000559831FIRSTAID PLASTER 10PC  0000001000+00001490+00000+0001T   00001490+0000001445          1400 PH7200               1AZ
103949002103949306-000969     103949006003000559350FIRSTAID PLASTER 10PC  0000001000+00001490+00000+0001T   00001490+0000001445          1400 PH7200               1AZ
103949003103949566-000951     103949006003000217670STICKERS 3 STYLES ASSTD0000001000+00002192+00000+0001T   00002192+0000001445          1400 PH7130               1AZ
103949004103949566-000049     103949006003000159215STICKERS RIBBON/SLIDERS0000001000+00000876+00000+0001T   00001490+0008151445          1400 PH7130               1AZ
103949005103949566-000062     103949006001023689641S/BOOK STICKER GLITTER 0000001000+00000700+00000+0001T   00000876+0008151445          1400 PH7130               1AZ
103949006103949566-000039     103949006003000142194STICKERS POP-UP  SHAKER0000001000+00001314+00000+0001T   00001753+0008151445          1400 PH7130               1AZ
103949007103949112-116038     103949006009681820246TCS CARRIER BAG MIDI   0000001000+00000035+00000+0001T   00000035+0000001445          1400 PH7090               1AZ
103950000103950               103950               170213NB     1400+00000+NB0000002630+0000002630+000000000+000000369+0000002990+0000000009+I20000000000+0000002990+Z
103950001103950466-000514     103950006001023196620BALLS TENNIS COLR BAG-30000001000+00002630+00000+0001T   00002630+0000001446          1400 PH7785               1AZ
103951000103951               103951               170213NB     1400+00000+NB0000015905+0000015905+000000000+000002230+0000018135+0000000000+I40000018135+0000000000+Z
103951001103951112-116038     103951006009681820246TCS CARRIER BAG MIDI   0000001000+00000035+00000+0001T   00000035+0000001450          1400 PH7090               1AZ
103951002103951903-000215     103951006002099001214SWT GS MALLOW TWIST PAC0000001000+00001753+00000+0001T   00001753+0000001450          1400 PH7150               1AZ
103951003103951033-000124     103951006009654960597COMBS HANDLE + TAIL 2PC0000001000+00001051+00000+0001T   00001051+0000001450          1400 PH7200               1AZ
103951004103951903-000137     103951006002099004130SWEET GS JELLY BEAN 60G0000001000+00000788+00000+0001T   00000788+0000001450          1400 PH7150               1AZ
103951005103951567-075497     103951009780799381627BK NOVEL ROMANCE AFR   0000001000+00006139+00000+0001T   00006139+0000001450          1400 PH7757               1AZ
103951006103951567-075497     103951009780799381665BK NOVEL ROMANCE AFR   0000001000+00006139+00000+0001T   00006139+0000001450          1400 PH7757               1AZ
103952000103952               103952               170213NB     1400+00000+NB0000014063+0000014063+000000000+000001969+0000016030+0000000002+I20000000000+0000016030+Z
103952001103952567-011313     103952006003000593965DIERESTORIES AFR ASSTD 0000003000+00003507+00000+0001T   00003507+0000001451          1400 PH7757               1AZ
103952002103952567-010565     103952006003000572472BOOK AFRIKAANS CAT 2   0000001000+00003507+00000+0001T   00003507+0000001451          1400 PH7757               1AZ
103952003103952112-116038     103952006009681820246TCS CARRIER BAG MIDI   0000001000+00000035+00000+0001T   00000035+0000001451          1400 PH7090               1AZ
103953000103953               103953               170213NB     1400+00000+NB0000009236+0000009236+000000000+000001295+0000010530+0000000001+I20000000000+0000010530+Z
103953001103953112-116038     103953006009681820246TCS CARRIER BAG MIDI   0000001000+00000035+00000+0001T   00000035+0000001453          1400 PH7090               1AZ
103953002103953903-004951     103953006002580020328SWT MALLOW MINI M/SHAKE0000001000+00001227+00000+0001T   00001227+0000001453          1400 PH7150               1AZ
103953003103953903-000095     103953006001704011495SWT SPECKLED-EGGS 100G 0000001000+00002104+00000+0001T   00002104+0000001453          1400 PH7150               1AZ
103953004103953903-000297     103953006001704002950SWT MS WILD BERRY 50G  0000001000+00000876+00000+0001T   00000876+0000001453          1400 PH7150               1AZ
103953005103953903-000521     103953006001704009652SWT GUMMY SOFT GUMS    0000001000+00000876+00000+0001T   00000876+0000001453          1400 PH7150               1AZ
103953006103953903-004963     103953008410525221873SWT GUMMY SOUR COLA 50g0000001000+00000964+00000+0001T   00000964+0000001453          1400 PH7150               1AZ
103953007103953903-000220     103953006001704007368SWT JELLY BEANS 60G    0000001000+00000876+00000+0001T   00000876+0000001453          1400 PH7150               1AZ
103953008103953903-004960     103953008410525221842SWT GUMMY STR/BERRY 50G0000001000+00000964+00000+0001T   00000964+0000001453          1400 PH7150               1AZ
103953009103953903-005002     103953006002580020021SWT MALLOW SNAKE 120g  0000001000+00001314+00000+0001T   00001314+0000001453          1400 PH7150               1AZ
103954000103954               103954               170213NB     1400+00000+NB0000000876+0000000876+000000000+000000123+0000000990+0000000009+I20000000000+0000000990+Z
103954001103954027-783006     103954006003000060719SCOURERS SPONGE        0000001000+00000876+00000+0001T   00000876+0000001507          1400 PH7212               1AZ
103955000103955               103955               170213NB     1400+00000+NB0000008276+0000008276+000000000+000001160+0000009430+0000000006+I20000000000+0000009430+Z
103955001103955903-000095     103955006001704011495SWT SPECKLED-EGGS 100G 0000001000+00002104+00000+0001T   00002104+0000001515          1400 PH7150               1AZ
103955002103955105-003027     103955006001023114129CONTAINERS PL MINI 4PC 0000001000+00003507+00000+0001T   00004385+0008161515          1400 PH7210               1AZ
103955003103955018-000133     103955006003000427543MUG OCCASIONS DAD HERO 0000001000+00002630+00000+0001T   00002630+0000001515          1400 PH7515               1AZ
103955004103955112-116038     103955006009681820246TCS CARRIER BAG MIDI   0000001000+00000035+00000+0001T   00000035+0000001515          1400 PH7090               1AZ
103956000103956               103956               170213NB     1400+00000+NB0000046190+0000046190+000000000+000006473+0000052663+0000000000+I40000052663+0000000000+Z
103956001103956112-116053     103956006006438002399TCS CARRIER BAG 38L    0000001000+00000069+00000+0001T   00000069+0000001530          1400 PH7090               1AZ
103956002103956174-000305     103956006003000105502TRAVEL NECK-PILLOW     0000001000+00007016+00000+0001T   00007016+0000001530          1400 PH7205               1AZ
103956003103956133-083230     103956006001023714305T/CLOTH 132x183cm OBLNG0000001000+00003507+00000+0001T   00003507+0000001530          1400 PH7212               1AZ
103956004103956007-000230     103956006001023995315LABELS STICK-ON STARS  0000001000+00001753+00000+0001T   00001753+0000001530          1400 PH7130               1AZ
103956005103956012-000019     103956006003000421046M/WAVE STEAMER MINI H/H0000001000+00002630+00000+0001T   00003507+0008121530          1400 PH7300               1AZ
103956006103956012-000012     103956006003000333646MICROWAVE MICRO-POT    0000001000+00003069+00000+0001T   00003069+0000001530          1400 PH7300               1AZ
103956007103956306-000510     103956006001024000469T/BRUSH ADULT CROSS    0000001000+00001227+00000+0001T   00001227+0000001530          1400 PH7200               1AZ
103956008103956105-001101     103956006003000667659CONTAINER SET LITE 2PC 0000001000+00002630+00000+0001T   00002630+0000001530          1400 PH7210               1AZ
103956009103956077-000299     103956006003000395576G/BAG 32x25cm LRG LOVE 0000001000+00001490+00000+0001T   00001490+0000001530          1400 PH7112               1AZ
103956010103956080-000113     103956006003000237449CARD&ENVLPE - LOVE     0000001000+00001753+00000+0001T   00001753+0000001530          1400 PH7112               1AZ
103956011103956084-010311     103956006001023601926CUTICLE CLIPPERS 12cm  0000001000+00004385+00000+0001T   00004385+0000001530          1400 PH7200               1AZ
103956012103956073-000155     103956006003000571772COSMETIC BAG STRIPE    0000001000+00002630+00000+0001T   00003507+0008121530          1400 PH7200               1AZ
103956013103956001-091415     103956006003000329113W/GLS OCC. LOVE 2PC 2800000001000+00008771+00000+0001T   00009648+0006471530          1400 PH7515               1AZ
103956014103956174-000010     103956006001023462381W/MACHINE-BAG 25x40cm  0000001000+00001753+00000+0001T   00001753+0000001530          1400 PH7205               1AZ
103956015103956033-000603     103956006003000365456HAIR BRUSH 23CM VENT   0000001000+00003507+00000+0001T   00003507+0000001530          1400 PH7200               1AZ
103957000103957               103957               170213NB     1400+00000+NB0000003506+0000003506+000000000+000000492+0000003990+0000000008+I20000000000+0000003990+Z
103957001103957039-000114     103957006001023524058CANDLE T/LITE RED 3.5CM0000001000+00001753+00000+0001T   00001753+0000001530          1400 PH7510               1AZ
103957002103957039-001023     103957006003000466337CANDLE TEA-LITE METALIC0000001000+00001753+00000+0001T   00001753+0000001530          1400 PH7510               1AZ
103958000103958               103958               170213NB     1400+00000+NB0000003243+0000003243+000000000+000000455+0000003690+0000000008+I20000000000+0000003690+Z
103958001103958002-000883     103958006001023770394CAN-OPENER             0000001000+00001753+00000+0001T   00001753+0000001533          1400 PH7300               1AZ
103958002103958036-000605     103958006001023158611WASHING-PEGS WDN PCK-240000001000+00001490+00000+0001T   00001490+0000001533          1400 PH7212               1AZ
103959000103959               103959               170213NB     1400+00000+NB0000004292+0000004292+000000000+000000603+0000004890+0000000005+I20000000000+0000004890+Z
103959001103959031-000878-A   103959006001023798985P/FRAME 10x15cm PL-SLID0000004000+00000876+00000+0001T   00000876+0000001543          1400 PH7510               1AZ
103959002103959077-000010-D   103959006001023123886CREPE-PAPER WHITE      0000001000+00000788+00000+0001T   00000788+0000001543          1400 PH7112               1AZ
103960000103960               103960               170213NB     1400+00000+NB0000006138+0000006138+000000000+000000860+0000006998+0000000000+I40000006998+0000000000+Z
103960001103960077-000457     103960006003000285662G/BAG METALLIC JMB SOL 0000001000+00001753+00000+0001T   00001753+0000001545          1400 PH7112               1AZ
103960002103960006-000190     103960006003000685530BALLOONS LOVE 81x91cm  0000001000+00004385+00000+0001T   00004385+0000001545          1400 PH7131               1AZ
103961000103961               103961               170213NB     1400+00000+NB0000006137+0000006137+000000000+000000860+0000006990+0000000007+I20000000000+0000006990+Z
103961001103961004-078991     103961006001023996855EARPHONES+EAR-CLIP 1.0m0000001000+00002630+00000+0001T   00002630+0000001551          1400 PH7310               1AZ
103961002103961004-078990     103961006001023994431EARPHONES MINI 1.2m    0000001000+00003507+00000+0001T   00003507+0000001551          1400 PH7310               1AZ
103962000103962               103962               170213NB     1400+00000+NB0000003069+0000003069+000000000+000000430+0000003490+0000000009+I20000000000+0000003490+Z
103962001103962038-001805     103962006003000466405DOILIES PAPER 60PC 3ASS0000001000+00003069+00000+0001T   00003069+0000001551          1400 PH7300               1AZ
103963000103963               103963               170213NB     1400+00000+NB0000006137+0000006137+000000000+000000860+0000006990+0000000007+I20000000000+0000006990+Z
103963001103963304-000720     103963006001023843050F/BUNCH ROSE 6-HEAD AST0000001000+00002630+00000+0001T   00002630+0000001553          1400 PH7510               1AZ
103963002103963903-000616     103963006003000644827SWT HS SWORD 60cm      0000001000+00003507+00000+0001T   00003507+0000001553          1400 PH7150               1AZ
103964000103964               103964               170213NB     1400+00000+NB0000000035+0000000035+000000000+000000005+0000000040+0000000000+I20000000000+0000000040+Z
103964001103964112-116038     103964006009681820246TCS CARRIER BAG MIDI   0000001000+00000035+00000+0001T   00000035+0000001553          1400 PH7090               1AZ
103965000103965               103965               170213NB     1400+00000+NB0000002192+0000002192+000000000+000000307+0000002490+0000000009+I20000000000+0000002490+Z
103965001103965077-000916     103965006003000413577G/WRAP 700mmx2m BBY/KID0000001000+00002192+00000+0001T   00002192+0000001604          1400 PH7112               1AZ
103966000103966               103966               170213NB     1400+00000+NB0000011402+0000011402+000000000+000001597+0000012999+0000000000+I40000012999+0000000000+Z
103966001103966105-009015     103966006002923000031STORAGE BOX 32L FROSTED0000001000+00011402+00000+0001T   00011402+0000001608          1400 PH7210               1AZ
103967000103967               103967               170213NB     1400+00000+NB0000009692+0000009692+000000000+000001358+0000011050+0000000000+I20000000000+0000011050+Z
103967001103967112-116069     103967006009681820277TCS CARRIER BAG JUMBO  0000001000+00000048+00000+0001T   00000048+0000001609          1400 PH7090               1AZ
103967002103967007-000196     103967006002324002375FILE LEVER ARCH A4     0000001000+00002630+00000+0001T   00002630+0000001609          1400 PH7130               1AZ
103967003103967007-000324     10396700600968585864125 SHEETS BRIGHTS MARLI0000002000+00003507+00000+0001T   00003507+0000001609          1400 PH7130               1AZ
103968000103968               103968               170213NB     1400+00000+NB0000001753+0000001753+000000000+000000246+0000001990+0000000009+I20000000000+0000001990+Z
103968001103968566-000299     103968006003000682386STICKER LABEL C/BOARD  0000001000+00001753+00000+0001T   00001753+0000001618          1400 PH7130               1AZ
103969000103969               103969               170213NB     1400+00000+NB0000002630+0000002630+000000000+000000369+0000002990+0000000009+I20000000000+0000002990+Z
103969001103969006-000111     103969006003000519385BALLOONS LARGE 12PCE   0000001000+00002630+00000+0001T   00002630+0000001621          1400 PH7131               1AZ
103970000103970               103970               170213NB     1400+00000+NB0000016707+0000016707+000000000+000002341+0000019040+0000000008+I20000000000+0000019040+Z
103970001103970112-116069     103970006009681820277TCS CARRIER BAG JUMBO  0000001000+00000048+00000+0001T   00000048+0000001624          1400 PH7090               1AZ
103970002103970077-000301     103970008010410010188BAG LRG 25X32CM B/DAY  0000001000+00001753+00000+0001T   00001753+0000001624          1400 PH7112               1AZ
103970003103970133-000069     103970006001926021555DISH-CLOTH 40X60cm     0000002000+00003507+00000+0001T   00004385+0008121624          1400 PH7212               1AZ
103970004103970159-000107     103970006001023640406SHOWER-CURTAIN 180cm   0000001000+00005262+00000+0001T   00006139+0008191624          1400 PH7200               1AZ
103970005103970563-000317-C   103970006001023776204SERVIETTES 20PK  FLOWER0000001000+00002630+00000+0001T   00002630+0000001624          1400 PH7214               1AZ
103971000103971               103971               170213NB     1400+00000+NB0000017542+0000017542+000000000+000002456+0000019990+0000000008+I20000000000+0000019990+Z
103971001103971264-015055     103971000090159150558ALL-STARS ELITE TRNS   0000001000+00017542+00000+0001T   00017542+0000001625          1400 PH7710               1AZ
103972000103972               103972               170213NB     1400+00000+NB0000005698+0000005698+000000000+000000799+0000006490+0000000007+I20000000000+0000006490+Z
103972001103972051-002400     103972006001023616180TRIGGER-SPRAYER 900ml  0000001000+00002192+00000+0001T   00002192+0000001626          1400 PH7820               1AZ
103972002103972051-002402     103972006001023518347TRIGGER-SPRAYER  500ml 0000002000+00001753+00000+0001T   00001753+0000001626          1400 PH7820               1AZ
103973000103973               103973               170213NB     1400+00000+NB0000003069+0000003069+000000000+000000430+0000003490+0000000009+I20000000000+0000003490+Z
103973001103973174-008026     103973006009654960429TRAVEL BOTTLES 2-PACK  0000001000+00003069+00000+0001T   00003069+0000001629          1400 PH7205               1AZ
103974000103974               103974               170213NB     1400+00000+NB0000010549+0000010549+000000000+000001482+0000012030+0000000001+I20000000000+0000012030+Z
103974001103974079-006495     103974006003000159987GLITTER SHAKERS 6PK    0000001000+00002630+00000+0001T   00002630+0000001639          1400 PH7130               1AZ
103974002103974079-013032-J   103974006003000542710A&C DIY COLOUR P/FLOWER0000001000+00001753+00000+0001T   00001753+0000001639          1400 PH7130               1AZ
103974003103974566-000037     103974006003000383948STICKER 3D GEL         0000001000+00001753+00000+0001T   00001753+0000001639          1400 PH7130               1AZ
103974004103974566-001118     103974006003000682171STICKERS CELL PHONE    0000001000+00001753+00000+0001T   00001753+0000001639          1400 PH7130               1AZ
103974005103974112-116038     103974006009681820246TCS CARRIER BAG MIDI   0000001000+00000035+00000+0001T   00000035+0000001639          1400 PH7090               1AZ
103974006103974903-000077     103974006939873501687SWT GS MAGIC ROCK FRUIT0000005000+00000525+00000+0001T   00000525+0000001639          1400 PH7150               1AZ
103975000103975               103975               170213NB     1400+00000+NB0000006138+0000006138+000000000+000000860+0000006998+0000000000+I40000006998+0000000000+Z
103975001103975024-000003     103975006001023462206S/BURNER COVERS ASSTD  0000001000+00004385+00000+0001T   00004385+0000001640          1400 PH7300               1AZ
103975002103975174-000011     103975006001023523778W/MACHINE-BAG 50x40cm  0000001000+00001753+00000+0001T   00001753+0000001640          1400 PH7205               1AZ
103976000103976               103976               170213NB     1400+00000+NB0000003507+0000003507+000000000+000000491+0000003990+0000000008+I20000000000+0000003990+Z
103976001103976162-097718     103976006001492977188#TAG CHARM BRACELET    0000001000+00003507+00000+0001T   00003507+0000001644          1400 PH7160               1AZ
103977000103977               103977               170213NB     1400+00000+NB0000007751+0000007751+000000000+000001086+0000008830+0000000007+I20000000000+0000008830+Z
103977001103977112-116038     103977006009681820246TCS CARRIER BAG MIDI   0000001000+00000035+00000+0001T   00000035+0000001649          1400 PH7090               1AZ
103977002103977018-030000     103977006003000421060MUG OCCASIONS LOVE 2PCE0000001000+00004385+00000+0001T   00004385+0000001649          1400 PH7515               1AZ
103977003103977077-000303     103977006001023593757GIFT-BAG PAPER MED     0000001000+00001578+00000+0001T   00001578+0000001649          1400 PH7112               1AZ
103977004103977466-000077     103977006003000669448MINI MESH BEAN BALL    0000001000+00001753+00000+0001T   00001753+0000001649          1400 PH7785               1AZ
103978000103978               103978               170213NB     1400+00000+NB0000005084+0000005084+000000000+000000713+0000005790+0000000007+I20000000000+0000005790+Z
103978001103978006-000111     103978006003000519385BALLOONS LARGE 12PCE   0000001000+00002630+00000+0001T   00002630+0000001649          1400 PH7131               1AZ
103978002103978903-000518     103978006001704012782SWT STRAWS S/BERRY 100g0000001000+00001227+00000+0001T   00001227+0000001649          1400 PH7150               1AZ
103978003103978903-000510     103978006001704012621SWEET MS ZBDZ S/BERRY  0000001000+00001227+00000+0001T   00001227+0000001649          1400 PH7150               1AZ
103979000103979               103979               170213NB     1400+00000+NB0000000876+0000000876+000000000+000000123+0000000990+0000000009+I20000000000+0000000990+Z
103979001103979046-001620-PK2 103979004897006178408BATTERY LITHIUM CR-16200000001000+00000876+00000+0001T   00000876+0000001650          1400 PH7312               1AZ
103980000103980               103980               170213NB     1400+00000+NB0000002226+0000002226+000000000+000000312+0000002538+0000000000+I40000002538+0000000000+Z
103980001103980018-000127     103980006001023380289MUG OCC STRAIGHT LOVE  0000001000+00001578+00000+0001T   00001753+0006471652          1400 PH7515               1AZ
103980002103980304-001011     103980006001023806727FLWR ROSE RED W/BEAR   0000001000+00000613+00000+0001T   00000788+0006471652          1400 PH7510               1AZ
103980003103980112-116038     103980006009681820246TCS CARRIER BAG MIDI   0000001000+00000035+00000+0001T   00000035+0000001652          1400 PH7090               1AZ
103981000103981               103981               170213NB     1400+00000+NB0000002839+0000002839+000000000+000000398+0000003230+0000000007+I20000000000+0000003230+Z
103981001103981304-001011     103981006001023806727FLWR ROSE RED W/BEAR   0000002000+00000613+00000+0001T   00000788+0006471653          1400 PH7510               1AZ
103981002103981018-000127     103981006001023380289MUG OCC STRAIGHT LOVE  0000001000+00001578+00000+0001T   00001753+0006471653          1400 PH7515               1AZ
103981003103981112-116038     103981006009681820246TCS CARRIER BAG MIDI   0000001000+00000035+00000+0001T   00000035+0000001653          1400 PH7090               1AZ
103982000103982               103982               170213NB     1400+00000+NB0000026861+0000026861+000000000+000003768+0000030629+0000000000+I40000030629+0000000000+Z
103982001103982112-116038     103982006009681820246TCS CARRIER BAG MIDI   0000001000+00000035+00000+0001T   00000035+0000001654          1400 PH7090               1AZ
103982002103982133-000081     103982006003000277315DISH CLOTH 40x70cm     0000008000+00002630+00000+0001T   00002630+0000001654          1400 PH7212               1AZ
103982003103982133-000017     103982006003000525171CLEANING-CLOTHS 5PCE   0000001000+00003507+00000+0001T   00003507+0000001654          1400 PH7212               1AZ
103982004103982027-001020     103982006001246602519BROOM FLOOR W/HANDLE   0000001000+00002279+00000+0001T   00002279+0000001654          1400 PH7212               1AZ
103983000103983               103983               170213NB     1400+00000+NB0000014910+0000014910+000000000+000002088+0000016998+0000000000+I40000016998+0000000000+Z
103983001103983029-000012     103983006001577033754BUCKET GALV 10L        0000001000+00013157+00000+0001T   00013157+0000001656          1400 PH7510               1AZ
103983002103983080-000115     103983006003000237333CARD&ENVELOPE - BLANKS 0000001000+00001753+00000+0001T   00001753+0000001656          1400 PH7112               1AZ
103984000103984               103984               170213NB     1400+00000+NB0000003152+0000003152+000000000+000000444+0000003590+0000000006+I20000000000+0000003590+Z
103984001103984007-000193     103984006009635831731BK JOTTER A4 72-PG F/M 0000002000+00000437+00000+0001T   00000437+0000001656          1400 PH7130               1AZ
103984002103984565-000071     103984006003000643387NOVELTY WIND UP CHATTER0000002000+00001139+00000+0001T   00001139+0000001656          1400 PH7745               1AZ
A17021300                                          13190036NBSLAVE 1                       PH72IC
A17021301                                          16573022NBSLAVE 1                       PH72IC
M17021391                              CASH        NBSLAVE 1                       Z-REPORT No.   580TOTAL (Sales - Refunds)           5399.41       CASH TO BE BANKED                 2604.70       DEBIT CARDS                          0.00       CREDIT CARDS                      2794.71       Z-READING                         5399.41       AIRTIME DEBIT CARD SALES             0.00       AIRTIME CARD SALES                   0.00       OVERS/UNDERS                         0.00       AIRTIME CASH SALES                   0.00       GIFT CARDS                           0.00       GIFT CARD CASH SALES                 0.00       T O T A L  CASH PAYOUTS              0.00                                                                                                                                                                                                                                                                                                                                                      Z
M17021392                              CASH        NBABSENT                                                                                                                                                                                          ANNUAL LEAVE                                                                                                                                                                                    DAY OFF                                                                                                                                                                                         COMMENTS          BALANCED                                                                                                                                                                                                                                                                                                                                                                     Z
Y17021300                                          NB00000000473790+000060
ZNB17021320093 SLAVE 1      SALES DATA                     NEXT INVOICE NO.  103985 0580
X NB Slave 1 First invoice 103925 170213 Last invoice 103984 170213 Next invoice 103985 Total number of records 000000257 clbackup completed 20:09:35
