119144000119144               119144               170213NB     1400+00000+NB0000006137+0000006137+000000000+000000860+0000006990+0000000007+I20000000000+0000006990+Z
119144001119144007-000714     119144006003000227150NOTE-BK A6 WIRO 80SHTS 0000001000+00002630+00000+0001T   00002630+0000000900          1400 PH7130               2AZ
119144002119144007-000710     119144006001023909244NOTE BOOK JOURNAL      0000001000+00003507+00000+0001T   00003507+0000000900          1400 PH7130               2AZ
119145000119145               119145               170213NB     1400+00000+NB0000000437+0000000437+000000000+000000062+0000000490+0000000009+I20000000000+0000000490+Z
119145001119145083-000049     119145004891035200024CIG-LIGHTER DISPOSABLE 0000001000+00000437+00000+0001T   00000437+0000000915          1400 PH7315               2AZ
119146000119146               119146               170213NB     1400+00000+NB0000000613+0000000613+000000000+000000086+0000000690+0000000009+I20000000000+0000000690+Z
119146001119146150-004028-H   119146006003000649976BATH-PLUG RUBBER BLACK 0000001000+00000613+00000+0001T   00000613+0000000918          1400 PH7810               2AZ
119147000119147               119147               170213NB     1400+00000+NB0000001314+0000001314+000000000+000000184+0000001490+0000000008+I20000000000+0000001490+Z
119147001119147566-000202     119147006003000443567STCKRS SPARKLE RIM ASST0000001000+00001314+00000+0001T   00001314+0000000919          1400 PH7130               2AZ
119148000119148               119148               170213NB     1400+00000+NB0000006621+0000006621+000000000+000000929+0000007550+0000000000+I20000000000+0000007550+Z
119148001119148112-116069     119148006009681820277TCS CARRIER BAG JUMBO  0000001000+00000048+00000+0001T   00000048+0000000933          1400 PH7090               2AZ
119148002119148007-000044     119148006009635831489DISPLAY-BOOK A4 10-PAGE0000001000+00001314+00000+0001T   00001314+0000000933          1400 PH7130               2AZ
119148003119148007-000205     119148006002324000432FILE BINDER 2-RING A4  0000003000+00001753+00000+0001T   00001753+0000000933          1400 PH7130               2AZ
119149000119149               119149               170213NB     1400+00000+NB0000006135+0000006135+000000000+000000859+0000006990+0000000004+I20000000000+0000006990+Z
119149001119149046-000012     119149006904708013062BATTERIES AA  CARD-OF-40000002000+00001314+00000+0001T   00001314+0000000934          1400 PH7312               2AZ
119149002119149301-085004     119149006003000420469ORN LOVE PLAQUE 21X10CM0000001000+00003507+00000+0001T   00003946+0006470934          1400 PH7505               2AZ
119150000119150               119150               170213NB     1400+00000+NB0000003542+0000003542+000000000+000000496+0000004030+0000000008+I20000000000+0000004030+Z
119150001119150112-116038     119150006009681820246TCS CARRIER BAG MIDI   0000001000+00000035+00000+0001T   00000035+0000000938          1400 PH7090               2AZ
119150002119150133-000017     119150006003000525171CLEANING-CLOTHS 5PCE   0000001000+00003507+00000+0001T   00003507+0000000938          1400 PH7212               2AZ
119151000119151               119151               170213NB     1400+00000+NB0000006837+0000006837+000000000+000000959+0000007790+0000000006+I20000000000+0000007790+Z
119151001119151266-001303     119151006001023560698MARBLES 25MM 10PC GOONS0000001000+00001578+00000+0001T   00001578+0000000944          1400 PH7710               2AZ
119151002119151903-000926     119151006914204004556SWT NOVELTY ST N/LACE  0000003000+00001753+00000+0001T   00001753+0000000944          1400 PH7150               2AZ
119152000119152               119152               170213NB     1400+00000+NB0000004377-0000004377-000000000+000000613-0000004990-0000000000+I20000000000+0000004990-Z
119152001119152001-999902     119152000000000999902MAINTENANCE+REPAIR-EQP 0000001000-00004377+00000+0001T   00000000+0000001001          1400 HY39021IC            2 Z
119153000119153               119153               170213NB     1400+00000+NB0000004385+0000004385+000000000+000000614+0000004990+0000000009+I20000000000+0000004990+Z
119153001119153050-000365-Z   119153006001023475305PADLOCK IRON 50mm CARD 0000001000+00004385+00000+0001T   00004385+0000001002          1400 HY3855               2AZ
119154000119154               119154               170213NB     1400+00000+NB0000003508-0000003508-000000000+000000492-0000004000-0000000000+I20000000000+0000004000-Z
119154001119154001-999906     119154000000000999906STATIONERY(PHOTOCOPIES)0000001000-00003508+00000+0001T   00000000+0000001003          1400 HY39061IC            2 Z
119155000119155               119155               170213NB     1400+00000+NB0000001753+0000001753+000000000+000000246+0000001990+0000000009+I20000000000+0000001990+Z
119155001119155048-000859     119155006003000423422TORCH 9 LED PL 3XAAA   0000001000+00001753+00000+0001T   00001753+0000001009          1400 HY3305               2AZ
119156000119156               119156               170213NB     1400+00000+NB0000003980+0000003980+000000000+000000558+0000004530+0000000008+I20000000000+0000004530+Z
119156001119156112-116038     119156006009681820246TCS CARRIER BAG MIDI   0000001000+00000035+00000+0001T   00000035+0000001012          1400 HY3090               2AZ
119156002119156563-000317-K   119156006003000697885SERVIETTE 2PLY 33cm    0000001000+00001753+00000+0001T   00001753+0000001012          1400 HY3214               2AZ
119156003119156563-000318-L   119156006003000407088SERVIETTES 33cm RED    0000001000+00002192+00000+0001T   00002192+0000001012          1400 HY3214               2AZ
119157000119157               119157               170213NB     1400+00000+NB0000003946+0000003946+000000000+000000553+0000004490+0000000009+I20000000000+0000004490+Z
119157001119157036-000013     119157006001246500860LINT REMOVER REFILLS   0000001000+00003946+00000+0001T   00003946+0000001014          1400 HY3212               2AZ
119158000119158               119158               170213NB     1400+00000+NB0000007051+0000007051+000000000+000000988+0000008039+0000000000+I40000008039+0000000000+Z
119158001119158112-116038     119158006009681820246TCS CARRIER BAG MIDI   0000001000+00000035+00000+0001T   00000035+0000001038          1400 HY3090               2AZ
119158002119158004-071215     119158006003000459360MOBILE SELFI STICK 80cm0000001000+00007016+00000+0001T   00007016+0000001038          1400 HY3310               2AZ
119159000119159               119159               170213NB     1400+00000+NB0000005610+0000005610+000000000+000000787+0000006390+0000000007+I20000000000+0000006390+Z
119159001119159036-000012     119159006001023991584LINT BRUSH W/PL HANDLE 0000001000+00002630+00000+0001T   00002630+0000001041          1400 HY3212               2AZ
119159002119159089-000141-H   119159006001023416568KEY-CHAINS 6PCE     H&H0000002000+00001490+00000+0001T   00001490+0000001041          1400 HY3205               2AZ
119160000119160               119160               170213NB     1400+00000+NB0000001753+0000001753+000000000+000000246+0000001990+0000000009+I20000000000+0000001990+Z
119160001119160051-002402     119160006001023518347TRIGGER-SPRAYER  500ml 0000001000+00001753+00000+0001T   00001753+0000001042          1400 HY3820               2AZ
119161000119161               119161               170213NB     1400+00000+NB0000021117+0000021117+000000000+000002958+0000024070+0000000005+I20000000000+0000024070+Z
119161001119161112-116053     119161006006438002399TCS CARRIER BAG 38L    0000001000+00000069+00000+0001T   00000069+0000001044          1400 HY3090               2AZ
119161002119161105-008005     119161006002580009484STORAGE CONTAINER 7.5L 0000002000+00004385+00000+0001T   00004385+0000001044          1400 HY3210               2AZ
119161003119161002-003725     119161006001023849557COLANDER S/S 24x10cm   0000002000+00006139+00000+0001T   00006139+0000001044          1400 HY3300               2AZ
119162000119162               119162               170213NB     1400+00000+NB0000006399+0000006399+000000000+000000896+0000007290+0000000005+I20000000000+0000007290+Z
119162001119162080-000114     119162006003000246472CARD&ENV LOVE-MUSICAL  0000001000+00001314+00000+0001T   00001753+0008151047          1400 HY3112               2AZ
119162002119162018-000136     119162006001023659026MUG OCC LOVE W/PLUSH   0000001000+00003507+00000+0001T   00003507+0000001047          1400 HY3515               2AZ
119162003119162077-000303     119162006001023593757GIFT-BAG PAPER MED     0000001000+00001578+00000+0001T   00001578+0000001047          1400 HY31121IC            2AZ
119163000119163               119163               170213NB     1400+00000+NB0000007712+0000007712+000000000+000001082+0000008790+0000000004+I20000000000+0000008790+Z
119163001119163564-000012     119163006001023130075BUBBLE BOTTLE MAGIC    0000001000+00000700+00000+0001T   00000700+0000001049          1400 HY3131               2AZ
119163002119163019-000130     119163006003000456130PLANTER T/PLATE W/HNDL 0000004000+00001753+00000+0001T   00001753+0000001049          1400 HY3510               2AZ
119164000119164               119164               170213NB     1400+00000+NB0000010433+0000010433+000000000+000001461+0000011890+0000000004+I20000000000+0000011890+Z
119164001119164018-000136     119164006001023659026MUG OCC LOVE W/PLUSH   0000001000+00003507+00000+0001T   00003507+0000001050          1400 HY3515               2AZ
119164002119164206-000630     119164006003000631919SPECTACLE CLEANING BRUS0000001000+00001227+00000+0001T   00001227+0000001050          1400 HY3321               2AZ
119164003119164206-000245     119164006003000680818BOTTLE CLEANER PLASTIC 0000001000+00002192+00000+0001T   00002192+0000001050          1400 HY3321               2AZ
119164004119164206-000610     119164006003000631674BOMB SHOTS PL 10PC     0000001000+00003507+00000+0001T   00003507+0000001050          1400 HY3321               2AZ
119165000119165               119165               170213NB     1400+00000+NB0000007395+0000007395+000000000+000001037+0000008430+0000000002+I20000000000+0000008430+Z
119165001119165112-116038     119165006009681820246TCS CARRIER BAG MIDI   0000001000+00000035+00000+0001T   00000035+0000001059          1400 PH7090               2AZ
119165002119165304-001011     119165006001023806727FLWR ROSE RED W/BEAR   0000004000+00000613+00000+0001T   00000788+0006471059          1400 PH7510               2AZ
119165003119165366-007601     119165006003000655472DRESS UP MASK THEATRICA0000001000+00000876+00000+0001T   00000876+0000001059          1400 PH7131               2AZ
119165004119165006-000223     119165006001023891327PARTY EYE-MASK 6PCE    0000001000+00000876+00000+0001T   00000876+0000001059          1400 PH7131               2AZ
119165005119165077-000303     119165006001023593757GIFT-BAG PAPER MED     0000002000+00001578+00000+0001T   00001578+0000001059          1400 PH7112               2AZ
119166000119166               119166               170213NB     1400+00000+NB0000001752+0000001752+000000000+000000246+0000001990+0000000008+I20000000000+0000001990+Z
119166001119166071-001019     119166006001023474513MARKER BLACK NAME-PEN  0000002000+00000876+00000+0001T   00000876+0000001100          1400 PH7130               2AZ
119167000119167               119167               170213NB     1400+00000+NB0000001745-0000001745-000000000+000000245-0000001990-0000000000+I20000000000+0000001990-Z
119167001119167001-999906     119167000000000999906STATIONERY(PHOTOCOPIES)0000001000-00001745+00000+0001T   00000000+0000001100          1400 PH79061IC            2 Z
119168000119168               119168               170213NB     1400+00000+NB0000000876+0000000876+000000000+000000123+0000000990+0000000009+I20000000000+0000000990+Z
119168001119168903-000521     119168006001704009652SWT GUMMY SOFT GUMS    0000001000+00000876+00000+0001T   00000876+0000001101          1400 PH7150               2AZ
119169000119169               119169               170213NB     1400+00000+NB0000013364+0000013364+000000000+000001872+0000015236+0000000000+I40000015236+0000000000+Z
119169001119169112-116038     119169006009681820246TCS CARRIER BAG MIDI   0000001000+00000035+00000+0001T   00000035+0000001105          1400 PH7090               2AZ
119169002119169020-000142     119169006003000223138KNIFE-SET 3PCE UTILITY 0000001000+00003069+00000+0001T   00003069+0000001105          1400 PH7300               2AZ
119169003119169001-000175     119169006001023788108B/MUG GLS LOVE 380ML   0000001000+00004385+00000+0001T   00004385+0000001105          1400 PH7515               2AZ
119169004119169082-007587     119169006003000654338SUNGLASS DESIGNER ASST 0000001000+00004385+00000+0001T   00004385+0000001105          1400 PH7160               2AZ
119169005119169051-002401     119169006001023523570TRIGGER-SPRAYER   300ml0000001000+00001490+00000+0001T   00001490+0000001105          1400 PH7820               2AZ
119170000119170               119170               170213NB     1400+00000+NB0000001261+0000001261+000000000+000000177+0000001438+0000000000+I40000001438+0000000000+Z
119170001119170112-116038     119170006009681820246TCS CARRIER BAG MIDI   0000001000+00000035+00000+0001T   00000035+0000001108          1400 PH7090               2AZ
119170002119170304-001011     119170006001023806727FLWR ROSE RED W/BEAR   0000002000+00000613+00000+0001T   00000788+0006471108          1400 PH7510               2AZ
119171000119171               119171               170213NB     1400+00000+NB0000001226+0000001226+000000000+000000172+0000001398+0000000000+I40000001398+0000000000+Z
119171001119171304-001011     119171006001023806727FLWR ROSE RED W/BEAR   0000002000+00000613+00000+0001T   00000788+0006471110          1400 PH7510               2AZ
119172000119172               119172               170213NB     1400+00000+NB0000030940+0000030940+000000000+000004334+0000035274+0000000000+I40000035274+0000000000+Z
119172001119172112-116053     119172006006438002399TCS CARRIER BAG 38L    0000001000+00000069+00000+0001T   00000069+0000001122          1400 PH7090               2AZ
119172002119172077-000926     119172006003000414178G/WRAP 700mmx2m LOVE   0000001000+00002192+00000+0001T   00002192+0000001122          1400 PH7112               2AZ
119172003119172361-003371     119172006003000404759DOLL FAMILY+POOL 31cm  0000001000+00010525+00000+0001T   00010525+0000001122          1400 PH7725               2AZ
119172004119172361-000685     119172006003000397211DOLL BABY 25cm & ACCESS0000001000+00014911+00000+0001T   00014911+0000001122          1400 PH7725               2AZ
119172005119172077-000328     119172006003000668939GIFT-BAG PAPER JMB     0000001000+00001753+00000+0001T   00001753+0000001122          1400 PH7112               2AZ
119172006119172071-005214     119172006003000152544CELLOTAPE SUPER REFILL 0000001000+00001490+00000+0001T   00001490+0000001122          1400 PH7130               2AZ
119173000119173               119173               170213NB     1400+00000+NB0000001613+0000001613+000000000+000000226+0000001830+0000000009+I20000000000+0000001830+Z
119173001119173018-000127     119173006001023380289MUG OCC STRAIGHT LOVE  0000001000+00001578+00000+0001T   00001753+0006471128          1400 PH7515               2AZ
119173002119173112-116038     119173006009681820246TCS CARRIER BAG MIDI   0000001000+00000035+00000+0001T   00000035+0000001128          1400 PH70902IC            2AZ
119174000119174               119174               170213NB     1400+00000+NB0000005698+0000005698+000000000+000000799+0000006490+0000000007+I20000000000+0000006490+Z
119174001119174072-020216     119174006001023775900PET CHEWS BARBI-ROLLS  0000002000+00001753+00000+0001T   00001753+0000001130          1400 PH7870               2AZ
119174002119174072-020257     119174006001023598110DOG-CHEW SHOE 13cm     0000001000+00002192+00000+0001T   00002192+0000001130          1400 PH7870               2AZ
119175000119175               119175               170213NB     1400+00000+NB0000002628+0000002628+000000000+000000368+0000002990+0000000006+I20000000000+0000002990+Z
119175001119175018-000119     119175006003000336074MUG DAILY STRAIGHT     0000002000+00001314+00000+0001T   00001753+0008171132          1400 PH7515               2AZ
119176000119176               119176               170213NB     1400+00000+NB0000002192+0000002192+000000000+000000307+0000002490+0000000009+I20000000000+0000002490+Z
119176001119176046-000012-A   119176006003000208296BATTERIES H/POWER SZ:AA0000001000+00002192+00000+0001T   00002192+0000001138          1400 PH7312               2AZ
119177000119177               119177               170213NB     1400+00000+NB0000000439-0000000439-000000000+000000061-0000000500-0000000000+I20000000000+0000000500-Z
119177001119177046-000012-A   119177006003000208296BATTERIES H/POWER SZ:AA0000001000-00002192+00000+0001T   00002192+0000001147          1400 PH73122IC            2 Z
119177002119177046-000014-A   119177004897006177708BATTERIES SIZE:AAA 8PCE0000001000+00001753+00000+0001T   00001753+0000001147          1400 PH7312               2 Z
119178000119178               119178               170213NB     1400+00000+NB0000001753+0000001753+000000000+000000246+0000001990+0000000009+I20000000000+0000001990+Z
119178001119178566-000535     119178006003000284719STICKER SPARKLE EMBOSS 0000001000+00001753+00000+0001T   00001753+0000001148          1400 2IC130               2AZ
119179000119179               119179               170213NB     1400+00000+NB0000035212+0000035212+000000000+000004934+0000040146+0000000000+I40000040146+0000000000+Z
119179001119179112-116053     119179006006438002399TCS CARRIER BAG 38L    0000001000+00000069+00000+0001T   00000069+0000001154          1400 2IC090               2AZ
119179002119179016-006512     119179006001023908032S/JAR GLS EAPPLE 3.7L  0000002000+00007016+00000+0001T   00007016+0000001154          1400 2IC300               2AZ
119179003119179079-000277     119179006003000160600PAINT-BRUSHES 15PCE    0000001000+00002630+00000+0001T   00002630+0000001154          1400 2IC130               2AZ
119179004119179562-000011     119179006001023782182PLAY DOUGH NEON TUBE   0000001000+00003507+00000+0001T   00003507+0000001154          1400 2IC755               2AZ
119179005119179079-000286     119179006001023797032FINGER-PAINT 4PCE      0000001000+00003507+00000+0001T   00003507+0000001154          1400 2IC130               2AZ
119179006119179200-003026     119179006003000276448REFUSE BAGS 10PCE GREEN0000002000+00001753+00000+0001T   00001753+0000001154          1400 2IC214               2AZ
119179007119179112-116053     119179006006438002399TCS CARRIER BAG 38L    0000001000+00000069+00000+0001T   00000069+0000001154          1400 2IC090               2AZ
119179008119179107-003102     119179006002580007657BASIN  34X48X16cm OVAL 0000001000+00004385+00000+0001T   00004385+0000001154          1400 2IC210               2AZ
119179009119179567-075490     119179009780799376272BK NOVEL ROMANCE AFR   0000001000+00003507+00000+0001T   00003507+0000001154          1400 2IC757               2AZ
119180000119180               119180               170213NB     1400+00000+NB0000001227+0000001227+000000000+000000172+0000001390+0000000009+I20000000000+0000001390+Z
119180001119180033-001403     119180006009654960504HAIR-CURLERS 4PC X-LRG 0000001000+00001227+00000+0001T   00001227+0000001224          1400 PH7200               2AZ
119181000119181               119181               170213NB     1400+00000+NB0000007391+0000007391+000000000+000001039+0000008430+0000000000+I20000000000+0000008430+Z
119181001119181112-116038     119181006009681820246TCS CARRIER BAG MIDI   0000001000+00000035+00000+0001T   00000035+0000001238          1400 PH7090               2AZ
119181002119181077-000010-D   119181006001023123886CREPE-PAPER WHITE      0000006000+00000788+00000+0001T   00000788+0000001238          1400 PH7112               2AZ
119181003119181006-000166-D   119181006003000516490BALLOONS LRG 6PC RED   0000002000+00001314+00000+0001T   00001314+0000001238          1400 PH7131               2AZ
119182000119182               119182               170213NB     1400+00000+NB0000007391+0000007391+000000000+000001039+0000008430+0000000000+I20000000000+0000008430+Z
119182001119182077-000010-D   119182006001023123886CREPE-PAPER WHITE      0000006000+00000788+00000+0001T   00000788+0000001239          1400 PH7112               2AZ
119182002119182006-000166-D   119182006003000516490BALLOONS LRG 6PC RED   0000002000+00001314+00000+0001T   00001314+0000001239          1400 PH7131               2AZ
119182003119182112-116038     119182006009681820246TCS CARRIER BAG MIDI   0000001000+00000035+00000+0001T   00000035+0000001239          1400 PH7090               2AZ
119183000119183               119183               170213NB     1400+00000+NB0000001787+0000001787+000000000+000000251+0000002030+0000000008+I20000000000+0000002030+Z
119183001119183077-000151     119183006008766114676GIFT-WRAP C/PHANE ASSTD0000002000+00000876+00000+0001T   00000876+0000001242          1400 PH7112               2AZ
119183002119183112-116038     119183006009681820246TCS CARRIER BAG MIDI   0000001000+00000035+00000+0001T   00000035+0000001242          1400 PH7090               2AZ
119184000119184               119184               170213NB     1400+00000+NB0000020063+0000020063+000000000+000002810+0000022873+0000000000+I40000022873+0000000000+Z
119184001119184112-116053     119184006006438002399TCS CARRIER BAG 38L    0000001000+00000069+00000+0001T   00000069+0000001246          1400 PH7090               2AZ
119184002119184304-001011     119184006001023806727FLWR ROSE RED W/BEAR   0000004000+00000613+00000+0001T   00000788+0006471246          1400 PH7510               2AZ
119184003119184031-000009     119184006003000306381P/FRAME COLLAGE HEARTS 0000001000+00013157+00000+0001T   00013157+0000001246          1400 PH75101IC            2AZ
119184004119184031-080508     119184006001023802415P/FRAME PL 22X11CM LOVE0000001000+00004385+00000+0001T   00004385+0000001246          1400 PH7510               2AZ
119185000119185               119185               170213NB     1400+00000+NB0000009240+0000009240+000000000+000001295+0000010530+0000000005+I20000000000+0000010530+Z
119185001119185112-116038     119185006009681820246TCS CARRIER BAG MIDI   0000001000+00000035+00000+0001T   00000035+0000001248          1400 PH7090               2AZ
119185002119185159-000636     119185006003000036035BATH PUMICE,BRUSH,FILE 0000001000+00001753+00000+0001T   00001753+0000001248          1400 PH7200               2AZ
119185003119185046-000012     119185006904708013062BATTERIES AA  CARD-OF-40000001000+00001314+00000+0001T   00001314+0000001248          1400 PH7312               2AZ
119185004119185564-000001     119185006003000140589BUBBLE B/O GUN PL      0000001000+00004385+00000+0001T   00004385+0000001248          1400 PH7131               2AZ
119185005119185200-003024     119185006001023657299REFUSE BAGS 20PCE BLACK0000001000+00001753+00000+0001T   00001753+0000001248          1400 PH7214               2AZ
119186000119186               119186               170213NB     1400+00000+NB0000001753+0000001753+000000000+000000246+0000001990+0000000009+I20000000000+0000001990+Z
119186001119186048-000859     119186006003000423422TORCH 9 LED PL 3XAAA   0000001000+00001753+00000+0001T   00001753+0000001249          1400 PH7305               2AZ
119187000119187               119187               170213NB     1400+00000+NB0000016879+0000016879+000000000+000002366+0000019245+0000000000+I40000019245+0000000000+Z
119187001119187112-116069     119187006009681820277TCS CARRIER BAG JUMBO  0000001000+00000048+00000+0001T   00000048+0000001342          1400 PH7090               2AZ
119187002119187036-005010     119187006002580008739COATHANGER KIDDIES PL  0000001000+00002630+00000+0001T   00002630+0000001342          1400 PH7212               2AZ
119187003119187036-000151     119187006001023810588COATHANGERS    PACK-10 0000001000+00002893+00000+0001T   00002893+0000001342          1400 PH7212               2AZ
119187004119187055-009254     119187006001023527073PICTURE-HOOK+PINS 5PCE 0000001000+00001490+00000+0001T   00001490+0000001342          1400 PH7810               2AZ
119187005119187055-009258     119187006001023426215P/HOOK+PIN 2PNx7PCE H&H0000001000+00001490+00000+0001T   00001490+0000001342          1400 PH7810               2AZ
119187006119187306-001022     119187006001023899750FIRSTAID FEVER PATCH   0000001000+00001314+00000+0001T   00001753+0008171342          1400 PH7200               2AZ
119187007119187031-000864-B   119187006001023798381P/FRAME MAHOGANY 13X18 0000002000+00003507+00000+0001T   00003507+0000001342          1400 PH7510               2AZ
119188000119188               119188               170213NB     1400+00000+NB0000002455+0000002455+000000000+000000344+0000002790+0000000009+I20000000000+0000002790+Z
119188001119188079-000802     119188006001023528902ART+CRAFT STICKS 100PCE0000001000+00002455+00000+0001T   00002455+0000001344          1400 2IC130               2AZ
119189000119189               119189               170213NB     1400+00000+NB0000002630+0000002630+000000000+000000369+0000002990+0000000009+I20000000000+0000002990+Z
119189001119189362-019285     119189006001023869456HAIR BAND SET ASS. CARD0000001000+00002630+00000+0001T   00002630+0000001350          1400 2IC160               2AZ
119190000119190               119190               170213NB     1400+00000+NB0000001525+0000001525+000000000+000000214+0000001730+0000000009+I20000000000+0000001730+Z
119190001119190077-000299     119190006003000395576G/BAG 32x25cm LRG LOVE 0000001000+00001490+00000+0001T   00001490+0000001355          1400 2IC112               2AZ
119190002119190112-116038     119190006009681820246TCS CARRIER BAG MIDI   0000001000+00000035+00000+0001T   00000035+0000001355          1400 2IC090               2AZ
119191000119191               119191               170213NB     1400+00000+NB0000001752+0000001752+000000000+000000246+0000001990+0000000008+I20000000000+0000001990+Z
119191001119191077-000151     119191006008766114676GIFT-WRAP C/PHANE ASSTD0000002000+00000876+00000+0001T   00000876+0000001356          1400 2IC112               2AZ
119192000119192               119192               170213NB     1400+00000+NB0000001261+0000001261+000000000+000000177+0000001430+0000000008+I20000000000+0000001430+Z
119192001119192112-116038     119192006009681820246TCS CARRIER BAG MIDI   0000001000+00000035+00000+0001T   00000035+0000001400          1400 2IC090               2AZ
119192002119192007-000167     119192006009685857347SPIRAL NOTES A7 72PG   0000001000+00000350+00000+0001T   00000350+0000001400          1400 2IC130               2AZ
119192003119192007-000127     119192006009685853431BOOK H/COVER MEMO 144PG0000001000+00000876+00000+0001T   00000876+0000001400          1400 2IC130               2AZ
119193000119193               119193               170213NB     1400+00000+NB0000001262+0000001262+000000000+000000177+0000001430+0000000009+I20000000000+0000001430+Z
119193001119193112-116038     119193006009681820246TCS CARRIER BAG MIDI   0000001000+00000035+00000+0001T   00000035+0000001405          1400 2IC090               2AZ
119193002119193071-081091     119193006001151010287STAED/GENKEM ALL-STICK 0000001000+00001227+00000+0001T   00001227+0000001405          1400 2IC130               2AZ
119194000119194               119194               170213NB     1400+00000+NB0000004385+0000004385+000000000+000000614+0000004990+0000000009+I20000000000+0000004990+Z
119194001119194368-000049     119194006003000536955PLUSH BEAR 15cm LOVE   0000001000+00004385+00000+0001T   00004385+0000001406          1400 2IC745               2AZ
119195000119195               119195               170213NB     1400+00000+NB0000010908+0000010908+000000000+000001529+0000012430+0000000007+I20000000000+0000012430+Z
119195001119195112-116038     119195006009681820246TCS CARRIER BAG MIDI   0000001000+00000035+00000+0001T   00000035+0000001412          1400 2IC090               2AZ
119195002119195903-000095     119195006001704011495SWT SPECKLED-EGGS 100G 0000001000+00002104+00000+0001T   00002104+0000001412          1400 2IC150               2AZ
119195003119195007-000898     119195006001023871947BOOK JOURNAL           0000001000+00006139+00000+0001T   00006139+0000001412          1400 2IC130               2AZ
119195004119195007-000557     119195006003000379484DIARY GIRL W/LOCK 50PG 0000001000+00002630+00000+0001T   00002630+0000001412          1400 2IC130               2AZ
119196000119196               119196               170213NB     1400+00000+NB0000010994+0000010994+000000000+000001540+0000012530+0000000004+I20000000000+0000012530+Z
119196001119196112-116038     119196006009681820246TCS CARRIER BAG MIDI   0000001000+00000035+00000+0001T   00000035+0000001414          1400 2IC090               2AZ
119196002119196105-001185     119196006003000666645CONTAINER SET LITE 2PC 0000001000+00003069+00000+0001T   00003069+0000001414          1400 2IC210               2AZ
119196003119196903-005002     119196006002580020021SWT MALLOW SNAKE 120g  0000001000+00001314+00000+0001T   00001314+0000001414          1400 2IC150               2AZ
119196004119196220-000040     119196006003000352548S/SPOONS S/S 2PC CLOUD 0000001000+00003507+00000+0001T   00003507+0000001414          1400 2IC300               2AZ
119196005119196002-000652     119196006001023553188M/SPOON WDN 3PC H/HOUSE0000001000+00003069+00000+0001T   00003069+0000001414          1400 2IC300               2AZ
119197000119197               119197               170213NB     1400+00000+NB0000008804+0000008804+000000000+000001234+0000010030+0000000008+I20000000000+0000010030+Z
119197001119197112-116038     119197006009681820246TCS CARRIER BAG MIDI   0000001000+00000035+00000+0001T   00000035+0000001416          1400 2IC090               2AZ
119197002119197051-002407     119197006003000452491SPRAYER TRIGGER 550ml  0000001000+00001753+00000+0001T   00001753+0000001416          1400 2IC820               2AZ
119197003119197065-003639     119197006001023787620GUITAR ROCKER          0000001000+00007016+00000+0001T   00007016+0000001416          1400 2IC745               2AZ
119198000119198               119198               170213NB     1400+00000+NB0000006875+0000006875+000000000+000000963+0000007838+0000000000+I40000007838+0000000000+Z
119198001119198112-116038     119198006009681820246TCS CARRIER BAG MIDI   0000001000+00000035+00000+0001T   00000035+0000001459          1400 2IC090               2AZ
119198002119198039-082852     119198006008766082852C/SET 4PC MINI PILLARS 0000001000+00005262+00000+0001T   00005262+0000001459          1400 2IC510               2AZ
119198003119198077-000303     119198006001023593757GIFT-BAG PAPER MED     0000001000+00001578+00000+0001T   00001578+0000001459          1400 2IC112               2AZ
119199000119199               119199               170213NB     1400+00000+NB0000000035+0000000035+000000000+000000005+0000000040+0000000000+I20000000000+0000000040+Z
119199001119199112-116038     119199006009681820246TCS CARRIER BAG MIDI   0000001000+00000035+00000+0001T   00000035+0000001500          1400 2IC090               2AZ
119200000119200               119200               170213NB     1400+00000+NB0000008590+0000008590+000000000+000001205+0000009795+0000000000+I40000009795+0000000000+Z
119200001119200566-000037     119200006003000383948STICKER 3D GEL         0000001000+00001753+00000+0001T   00001753+0000001540          1400 2IC130               2AZ
119200002119200566-000036     119200006003000384051STICKERS MOTIVATION    0000002000+00001753+00000+0001T   00001753+0000001540          1400 2IC130               2AZ
119200003119200566-000950     119200006003000216048STICKERS 3 STYLES 100PC0000001000+00002192+00000+0001T   00002192+0000001540          1400 2IC130               2AZ
119200004119200566-001227     119200006001023707741STICKERS TEEN LASER    0000001000+00001139+00000+0001T   00001490+0008151540          1400 2IC130               2AZ
119201000119201               119201               170213NB     1400+00000+NB0000004645+0000004645+000000000+000000652+0000005297+0000000000+I40000005297+0000000000+Z
119201001119201159-000677     119201006001023729729BATH SPONGE RND 11CM   0000001000+00001753+00000+0001T   00001753+0000001634          1400 PH7200               2AZ
119201002119201200-003024     119201006001023657299REFUSE BAGS 20PCE BLACK0000001000+00001753+00000+0001T   00001753+0000001634          1400 PH7214               2AZ
119201003119201903-000087     119201006001704000161SWT SPECKLED-EGGS 50G  0000001000+00001139+00000+0001T   00001139+0000001634          1400 PH7150               2AZ
119202000119202               119202               170213NB     1400+00000+NB0000007391-0000007391-000000000+000001039-0000008430-0000000000+I20000000000+0000008430-Z
119202001119202006-000166-D   119202006003000516490BALLOONS LRG 6PC RED   0000002000-00001314+00000+0001T   00001314+0000001636          1400 PH71311IC            2 Z
119202002119202077-000010-D   119202006001023123886CREPE-PAPER WHITE      0000006000-00000788+00000+0001T   00000788+0000001636          1400 PH71121IC            2 Z
119202003119202112-116038     119202006003000534906TCS CARRIER BAG MIDI   0000001000-00000035+00000+0001T   00000035+0000001636          1400 PH70901IC            2 Z
A17021300                                          09311762NBSLAVE 2                       PH72IC
A17021301                                          10515645NBSLAVE 2                       PH71IC
A17021302                                          11232392NBSLAVE 2                       PH71IC
B11916200                                          170213NB077-000303     10465481SLAVE 2     HY31IC0000002000+0000001000+0000000000000+
B11917300                                          170213NB112-116038     11282772SLAVE 2     PH72IC0000002000+0000001000+0000000000000+
B11918400                                          170213NB031-000009     12444407SLAVE 2     PH71IC0000002000+0000001000+0000000000000+
M17021391                              CASH        NBSLAVE 2                       Z-REPORT No.   587TOTAL (Sales - Refunds)           3824.69       CASH TO BE BANKED                 2049.10       DEBIT CARDS                          0.00       CREDIT CARDS                      1665.79       Z-READING                         3714.89       AIRTIME DEBIT CARD SALES             0.00       AIRTIME CARD SALES                   0.00       OVERS/UNDERS                         0.00       AIRTIME CASH SALES                   0.00       GIFT CARDS                           0.00       GIFT CARD CASH SALES                 0.00       MAINTENANCE+REPAIR-EQP              49.90       STATIONERY(PHOTOCOPIES)             59.90       T O T A L  CASH PAYOUTS            109.80                                                                                                                                                                                                                                                      Z
M17021392                              CASH        NBABSENT                                                                                                                                                                                          ANNUAL LEAVE                                                                                                                                                                                    DAY OFF                                                                                                                                                                                         COMMENTS          BALANCED                                                                                                                                                                                                                                                                                                                                                                     Z
Y17021300                                          NB00000000345290+000055
ZNB17021320093 SLAVE 2      SALES DATA                     NEXT INVOICE NO.  119203 0587
X NB Slave 2 First invoice 119144 170213 Last invoice 119202 170213 Next invoice 119203 Total number of records 000000211 clbackup completed 20:09:37
