504261000504261               504261               170213NF     1400+00000+NF0000036353+0000036353+000000000+000005092+0000041440+0000000005+I20000000000+0000041440+Z
504261001504261028-002101     504261006002580009507CHAIR JUNIOR    ASSTD  0000002000+00003507+00000+0001T   00003507+0000000916          1400 SO5305               1AZ
504261002504261028-002102     504261006002580009514TABLE KIDDIES          0000001000+00014034+00000+0001T   00014034+0000000916          1400 SO5305               1AZ
504261003504261083-000050     504261006001023898593LIGHTERS DISPOSABLE    0000001000+00000876+00000+0001T   00000876+0000000916          1400 SO5315               1AZ
504261004504261071-081091     504261006001151010287STAED/GENKEM ALL-STICK 0000001000+00001227+00000+0001T   00001227+0000000916          1400 SO5130               1AZ
504261005504261562-058925     504261006003000599998EDU B/O TOY TABLET     0000001000+00011402+00000+0001T   00011402+0000000916          1400 SO5755               1AZ
504261006504261077-000151     504261006008766114676GIFT-WRAP C/PHANE ASSTD0000002000+00000876+00000+0001T   00000876+0000000916          1400 SO5112               1AZ
504261007504261112-116069     504261006003000535064TCS CARRIER BAG JUMBO  0000001000+00000048+00000+0001T   00000048+0000000916          1400 SO5090               1AZ
504262000504262               504262               170213NF     1400+00000+NF0000001578+0000001578+000000000+000000221+0000001790+0000000009+I20000000000+0000001790+Z
504262001504262266-001303     504262006001023560698MARBLES 25MM 10PC GOONS0000001000+00001578+00000+0001T   00001578+0000000949          1400 SO5710               1AZ
504263000504263               504263               170213NF     1400+00000+NF0000009648+0000009648+000000000+000001351+0000010999+0000000000+I40000010999+0000000000+Z
504263001504263028-000026     504263006001023810847COOLER-BAG+POCKET NYLON0000001000+00009648+00000+0001T   00009648+0000000958          1400 SO5305               1AZ
504264000504264               504264               170213NF     1400+00000+NF0000001753+0000001753+000000000+000000246+0000001990+0000000009+I20000000000+0000001990+Z
504264001504264007-000050     504264006001023528285DISPLAY-ENVELOPE A4    0000001000+00001753+00000+0001T   00001753+0000001006          1400 SO5130               1AZ
504265000504265               504265               170213NF     1400+00000+NF0000022097+0000022097+000000000+000003097+0000025190+0000000004+I20000000000+0000025190+Z
504265001504265031-006545     504265006003000329564P/FRME PL 35x28CM WEDD.0000001000+00011402+00000+0001T   00011402+0000001023          1400 SO5510               1AZ
504265002504265077-000299-A   504265006003000670888GIFT-BAG PAPER JMB LOVE0000001000+00001753+00000+0001T   00001753+0000001023          1400 SO5112               1AZ
504265003504265018-000129     504265006001023403353MUG OCC. LOVE V-SHAPE  0000001000+00002630+00000+0001T   00002630+0000001023          1400 SO5515               1AZ
504265004504265903-000138     504265006002099004314SWT GS WINE GUMS 60G   0000001000+00000788+00000+0001T   00000788+0000001023          1400 SO5150               1AZ
504265005504265048-000700     504265006001023849731HEAD-LAMP 10xLED (3xAAA0000001000+00004385+00000+0001T   00004385+0000001023          1400 SO5305               1AZ
504265006504265046-000014     504265006001023725387BATTERIES SIZE:AAA 4PCE0000001000+00001139+00000+0001T   00001139+0000001023          1400 SO5312               1AZ
504266000504266               504266               170213NF     1400+00000+NF0000002892+0000002892+000000000+000000405+0000003290+0000000007+I20000000000+0000003290+Z
504266001504266078-013424     504266006008741000338CONTACT-ADHESIVE 50ml  0000001000+00001578+00000+0001T   00001578+0000001030          1400 SO5810               1AZ
504266002504266903-005001     504266006002580020014SWT CT MALLOW MICE 120g0000001000+00001314+00000+0001T   00001314+0000001030          1400 SO5150               1AZ
504267000504267               504267               170213NF     1400+00000+NF0000032933+0000032933+000000000+000004614+0000037547+0000000000+I40000037547+0000000000+Z
504267001504267002-000600     504267006001023587329KITCHEN-TOOL-SET STAND 0000001000+00014911+00000+0001T   00014911+0000001035          1400 SO5300               1AZ
504267002504267220-000020     504267006001023797780SERVING-SPOONS 2PC     0000001000+00004385+00000+0001T   00004385+0000001035          1400 SO5300               1AZ
504267003504267024-000071     504267006001023415653E/WHISK S/S & SILICONE 0000001000+00002630+00000+0001T   00002630+0000001035          1400 SO5300               1AZ
504267004504267002-000656     504267006003000442898M/SPOONS WDN 4PC BAMBOO0000001000+00003507+00000+0001T   00003507+0000001035          1400 SO5300               1AZ
504267005504267024-091103     504267006003453014307BAKING-CUP MUFFIN 50PCE0000001000+00002192+00000+0001T   00002192+0000001035          1400 SO5300               1AZ
504267006504267024-091102-B   504267006003000111725BAKING-CUP MUFFIN 40PCE0000001000+00002630+00000+0001T   00002630+0000001035          1400 SO5300               1AZ
504267007504267203-006050     504267006003000441808C/TAIL SHAKER W/ACCESS.0000001000+00002630+00000+0001T   00003507+0008171035          1400 SO5300               1AZ
504267008504267112-116069     504267006003000535064TCS CARRIER BAG JUMBO  0000001000+00000048+00000+0001T   00000048+0000001035          1400 SO5090               1AZ
504268000504268               504268               170213NF     1400+00000+NF0000008803+0000008803+000000000+000001234+0000010037+0000000000+I40000010037+0000000000+Z
504268001504268071-002999-A   504268006003000611577PEN STICKBALL 10PCE ASS0000001000+00001753+00000+0001T   00001753+0000001129          1400 SO5130               1AZ
504268002504268361-000123     504268006001023866073DOLL 28cm FASHION GIRL 0000001000+00004385+00000+0001T   00004385+0000001129          1400 SO5725               1AZ
504268003504268071-003018     504268006003000340545PEN BALL MED POINT     0000001000+00002630+00000+0001T   00002630+0000001129          1400 SO5130               1AZ
504268004504268112-116038     504268006003000534906TCS CARRIER BAG MIDI   0000001000+00000035+00000+0001T   00000035+0000001129          1400 SO5090               1AZ
504269000504269               504269               170213NF     1400+00000+NF0000005262+0000005262+000000000+000000737+0000005990+0000000009+I20000000000+0000005990+Z
504269001504269158-000167     504269006003000569588WASTEPAPER-BASKET 26cm 0000001000+00005262+00000+0001T   00005262+0000001130          1400 SO5300               1AZ
504270000504270               504270               170213NF     1400+00000+NF0000051422+0000051422+000000000+000007208+0000058630+0000000000+I20000000000+0000058630+Z
504270001504270368-000001     504270006003000097982Plush Bear 25cm        0000001000+00004385+00000+0001T   00004385+0000001139          1400 SO5745               1AZ
504270002504270018-000136     504270006001023659026MUG OCC LOVE W/PLUSH   0000001000+00003507+00000+0001T   00003507+0000001139          1400 SO5515               1AZ
504270003504270263-000130     504270006003000305742MOTORBIKE B/BACK 11CM  0000001000+00002630+00000+0001T   00002630+0000001139          1400 SO5710               1AZ
504270004504270080-000133-A   504270006003000647019MINI VALENTINES CARD   0000004000+00000437+00000+0001T   00000437+0000001139          1400 SO5112               1AZ
504270005504270103-000215     504270006003000568635BASKET WICKER/IRON     0000001000+00002630+00000+0001T   00002630+0000001139          1400 SO5300               1AZ
504270006504270031-000001-A   504270006003000246908P/FRAME GLS LOVE 9X13cm0000001000+00004385+00000+0001T   00004385+0000001139          1400 SO5510               1AZ
504270007504270306-000023-A   504270006003000110148COTTON WOOL BALLS 50PCE0000001000+00000700+00000+0001T   00001314+0008171139          1400 SO5200               1AZ
504270008504270903-000095     504270006001704011495SWT SPECKLED-EGGS 100G 0000002000+00002104+00000+0001T   00002104+0000001139          1400 SO5150               1AZ
504270009504270903-000221     504270006001704007382SWT EENY-MEENY-MOS 60G 0000001000+00000876+00000+0001T   00000876+0000001139          1400 SO5150               1AZ
504270010504270072-000162     504270006003000094462PET DOG SHIRT GIRL MED 0000001000+00006139+00000+0001T   00006139+0000001139          1400 SO5870               1AZ
504270011504270001-000175     504270006001023788108B/MUG GLS LOVE 380ML   0000001000+00004385+00000+0001T   00004385+0000001139          1400 SO5515               1AZ
504270012504270018-000130     504270006001023867537MUG OCC LOVE MINI+HEART0000001000+00003507+00000+0001T   00003507+0000001139          1400 SO5515               1AZ
504270013504270018-005009     504270006001023725608MUG W/PLUSH-BEAR LOVE  0000001000+00003507+00000+0001T   00003507+0000001139          1400 SO5515               1AZ
504270014504270301-000823     504270006001023762184ORN FAIRY NECKLACE     0000001000+00004823+00000+0001T   00004823+0000001139          1400 SO5505               1AZ
504270015504270903-004950     504270006002580020304SWT APRICOT SURPRISE   0000001000+00001314+00000+0001T   00001314+0000001139          1400 SO5150               1AZ
504270016504270007-000557     504270006003000379484DIARY GIRL W/LOCK 50PG 0000001000+00002630+00000+0001T   00002630+0000001139          1400 SO5130               1AZ
504270017504270112-116069     504270006003000535064TCS CARRIER BAG JUMBO  0000001000+00000048+00000+0001T   00000048+0000001139          1400 SO5090               1AZ
504271000504271               504271               170213NF     1400+00000+NF0000001753+0000001753+000000000+000000246+0000001990+0000000009+I20000000000+0000001990+Z
504271001504271071-008229     504271006003000216017PENCIL-BAG ASTD COL A5 0000001000+00001753+00000+0001T   00001753+0000001139          1400 SO5130               1AZ
504272000504272               504272               170213NF     1400+00000+NF0000004383+0000004383+000000000+000000614+0000004990+0000000007+I20000000000+0000004990+Z
504272001504272018-000130     504272006001023867537MUG OCC LOVE MINI+HEART0000001000+00003507+00000+0001T   00003507+0000001140          1400 SO5515               1AZ
504272002504272077-000302     504272008010410010195GIFT-BAG 18X23CM E/D   0000001000+00000876+00000+0001T   00000876+0000001140          1400 SO5112               1AZ
504273000504273               504273               170213NF     1400+00000+NF0000052116+0000052116+000000000+000007308+0000059420+0000000004+I20000000000+0000059420+Z
504273001504273080-000133-A   504273006003000647019MINI VALENTINES CARD   0000006000+00000437+00000+0001T   00000437+0000001143          1400 SO5112               1AZ
504273002504273112-116069     504273006003000535064TCS CARRIER BAG JUMBO  0000001000+00000048+00000+0001T   00000048+0000001143          1400 SO5090               1AZ
504273003504273029-000009     504273006001023809575BUCKET GALV  2L        0000001000+00004385+00000+0001T   00004385+0000001143          1400 SO5510               1AZ
504273004504273077-000245     504273006001023759214GIFT-RIBBON METALLICx2 0000001000+00001227+00000+0001T   00001227+0000001143          1400 SO5112               1AZ
504273005504273077-000310     504273006001023608635GIFT-BAG 18X23CM GLOSS 0000001000+00001314+00000+0001T   00001314+0000001143          1400 SO5112               1AZ
504273006504273077-000454     504273006003000285266G/BAG METALLIC LRG EMB 0000001000+00001753+00000+0001T   00001753+0000001143          1400 SO5112               1AZ
504273007504273077-000455     504273006003000285389G/BAG METALLIC LRG SOL 0000002000+00001753+00000+0001T   00001753+0000001143          1400 SO5112               1AZ
504273008504273562-088364     504273006003000122806EDU BUILDING BLOCKS    0000001000+00006139+00000+0001T   00006139+0000001143          1400 SO5755               1AZ
504273009504273077-000310     504273006001023608635GIFT-BAG 18X23CM GLOSS 0000002000+00001314+00000+0001T   00001314+0000001143          1400 SO5112               1AZ
504273010504273077-000299-A   504273006003000670888GIFT-BAG PAPER JMB LOVE0000001000+00001753+00000+0001T   00001753+0000001143          1400 SO5112               1AZ
504273011504273006-000852     504273006009541801866PARTY LUCKY-PCKT UNISEX0000001000+00003946+00000+0001T   00003946+0000001143          1400 SO5131               1AZ
504273012504273006-000852     504273006009541801880PARTY LUCKY-PCKT UNISEX0000001000+00003946+00000+0001T   00003946+0000001143          1400 SO5131               1AZ
504273013504273566-000997     504273006001023554086STICKERS TATTOOS BOOK  0000002000+00003507+00000+0001T   00003507+0000001143          1400 SO5130               1AZ
504273014504273566-000359     504273006003000582709STICKER BOOK LOVE SPARK0000002000+00002192+00000+0001T   00002192+0000001143          1400 SO5130               1AZ
504273015504273566-000068     504273006003000418046POP UP LOVE 2 ASSTD    0000001000+00002192+00000+0001T   00002192+0000001143          1400 SO5130               1AZ
504273016504273903-000211     504273006002099001238SWT GS MALLOW ICE CREAM0000003000+00001753+00000+0001T   00001753+0000001143          1400 SO5150               1AZ
504274000504274               504274               170213NF     1400+00000+NF0000010523+0000010523+000000000+000001475+0000011990+0000000008+I20000000000+0000011990+Z
504274001504274023-003000     504274006003000142910F/PAN ALUM 20X3.9 H/H  0000001000+00007893+00000+0001T   00010525+0008121149          1400 SO5300               1AZ
504274002504274018-000022     504274006001023648082MUG N/BONE 320ML BARREL0000001000+00002630+00000+0001T   00002630+0000001149          1400 SO5515               1AZ
504275000504275               504275               170213NF     1400+00000+NF0000002137+0000002137+000000000+000000301+0000002430+0000000008+I20000000000+0000002430+Z
504275001504275033-000124     504275006009654960597COMBS HANDLE + TAIL 2PC0000001000+00001051+00000+0001T   00001051+0000001153          1400 SO5200               1AZ
504275002504275033-000121     504275006009654960573COMBS FAMILY PACK-OF-2 0000001000+00001051+00000+0001T   00001051+0000001153          1400 SO5200               1AZ
504275003504275112-116038     504275006003000534906TCS CARRIER BAG MIDI   0000001000+00000035+00000+0001T   00000035+0000001153          1400 SO5090               1AZ
504276000504276               504276               170213NF     1400+00000+NF0000009817+0000009817+000000000+000001377+0000011190+0000000004+I20000000000+0000011190+Z
504276001504276903-000481     504276006001704007481SWT MOO MILK-SHAKES 60G0000001000+00000876+00000+0001T   00000876+0000001159          1400 SO5150               1AZ
504276002504276903-000483     504276006001704001410SWT LIQUOR SML SORT 60G0000001000+00000876+00000+0001T   00000876+0000001159          1400 SO5150               1AZ
504276003504276077-000327     504276006001023677686GIFT-BAG 25X32CM E/D BA0000001000+00001490+00000+0001T   00001490+0000001159          1400 SO5112               1AZ
504276004504276071-008229     504276006003000216017PENCIL-BAG ASTD COL A5 0000001000+00001753+00000+0001T   00001753+0000001159          1400 SO5130               1AZ
504276005504276567-011306     504276006003000598434BOOK ACTIVITY TRACE    0000001000+00003069+00000+0001T   00003069+0000001159          1400 SO5757               1AZ
504276006504276079-000012     504276006001023655332P/CRAYONS 12-COL LONG  0000001000+00001753+00000+0001T   00001753+0000001159          1400 SO5130               1AZ
504277000504277               504277               170213NF     1400+00000+NF0000005171+0000005171+000000000+000000726+0000005890+0000000007+I20000000000+0000005890+Z
504277001504277089-000027     504277006003000254071KEY CHAIN MOM/DAD ASSTD0000001000+00001753+00000+0001T   00001753+0000001200          1400 SO5205               1AZ
504277002504277162-094342     504277006001492943428#TAG NAVY GRAPHIC BIB  0000001000+00002630+00000+0001T   00005262+0008161200          1400 SO5160               1AZ
504277003504277903-000891     504277006009702258997SWT GUM BEECHIES MUSK  0000001000+00000788+00000+0001T   00000788+0000001200          1400 SO5150               1AZ
504278000504278               504278               170213NF     1400+00000+NF0000011402+0000011402+000000000+000001597+0000012990+0000000009+I20000000000+0000012990+Z
504278001504278368-000637     504278006001023874092PLUSH BEAR SLEEPING LOV0000001000+00011402+00000+0001T   00012279+0006471210          1400 SO5745               1AZ
504279000504279               504279               170213NF     1400+00000+NF0000016219+0000016219+000000000+000002273+0000018490+0000000002+I20000000000+0000018490+Z
504279001504279563-000317-K   504279006003000697885SERVIETTE 2PLY 33cm    0000001000+00001753+00000+0001T   00001753+0000001221          1400 SO5214               1AZ
504279002504279563-000317-J   504279006001023776419SERVIETTE 2PLY 33cm    0000001000+00001753+00000+0001T   00001753+0000001221          1400 SO5214               1AZ
504279003504279563-000317-K   504279006003000697885SERVIETTE 2PLY 33cm    0000001000+00001753+00000+0001T   00001753+0000001221          1400 SO5214               1AZ
504279004504279566-000068     504279006003000418046POP UP LOVE 2 ASSTD    0000005000+00002192+00000+0001T   00002192+0000001221          1400 SO5130               1AZ
504280000504280               504280               170213NF     1400+00000+NF0000001753+0000001753+000000000+000000246+0000001990+0000000009+I20000000000+0000001990+Z
504280001504280047-000502-H   504280006001023780041PLUG 2x2PIN EURO       0000001000+00001753+00000+0001T   00001753+0000001227          1400 SO5880               1AZ
504281000504281               504281               170213NF     1400+00000+NF0000007893+0000007893+000000000+000001106+0000008990+0000000009+I20000000000+0000008990+Z
504281001504281047-000513-H   504281006001023427496EXT-CORD 5M JANUS 10A  0000001000+00007893+00000+0001T   00007893+0000001227          1400 SO5880               1AZ
504282000504282               504282               170213NF     1400+00000+NF0000002192+0000002192+000000000+000000307+0000002490+0000000009+I20000000000+0000002490+Z
504282001504282080-000127     504282006003000424351VALENTINES DAY 36x24CM 0000001000+00002192+00000+0001T   00002192+0000001228          1400 SO5112               1AZ
504283000504283               504283               170213NF     1400+00000+NF0000005262+0000005262+000000000+000000737+0000005990+0000000009+I20000000000+0000005990+Z
504283001504283107-004510     504283006002580008968STEP-STOOL PL          0000001000+00005262+00000+0001T   00005262+0000001230          1400 SO5210               1AZ
504284000504284               504284               170213NF     1400+00000+NF0000001314+0000001314+000000000+000000184+0000001490+0000000008+I20000000000+0000001490+Z
504284001504284563-000317-B   504284006001023776174SERVIETTES PLN WHT PK400000001000+00001314+00000+0001T   00001314+0000001312          1400 SO5214               1AZ
504285000504285               504285               170213NF     1400+00000+NF0000003592+0000003592+000000000+000000503+0000004090+0000000005+I20000000000+0000004090+Z
504285001504285018-000177     504285006001023797513MUG MINI LOVE ASSTD    0000002000+00000700+00000+0001T   00000700+0000001358          1400 SO5515               1AZ
504285002504285077-000509     504285006003000082582GIFT-BAG SML 6PCE ORG P0000001000+00002192+00000+0001T   00002192+0000001358          1400 SO5112               1AZ
504286000504286               504286               170213NF     1400+00000+NF0000010434+0000010434+000000000+000001463+0000011897+0000000000+I40000011897+0000000000+Z
504286001504286028-000026     504286006001023810847COOLER-BAG+POCKET NYLON0000001000+00009648+00000+0001T   00009648+0000001400          1400 SO5305               1BZ
504286002504286903-000183     504286006003000451043SWT LB HEART LOLLY     0000002000+00000393+00000+0001T   00000393+0000001400          1400 SO5150               1BZ
504287000504287               504287               170213NF     1400+00000+NF0000014063+0000014063+000000000+000001971+0000016030+0000000004+I20000000000+0000016030+Z
504287001504287903-000220     504287006001704007368SWT JELLY BEANS 60G    0000001000+00000876+00000+0001T   00000876+0000001406          1400 SO5150               1BZ
504287002504287903-000483     504287006001704001410SWT LIQUOR SML SORT 60G0000001000+00000876+00000+0001T   00000876+0000001406          1400 SO5150               1BZ
504287003504287903-000221     504287006001704007382SWT EENY-MEENY-MOS 60G 0000001000+00000876+00000+0001T   00000876+0000001406          1400 SO5150               1BZ
504287004504287083-000058     504287006003000400331LIGHTER JET CIGAR REFIL0000001000+00002630+00000+0001T   00002630+0000001406          1400 SO5315               1BZ
504287005504287034-079055-A   504287006003000488209COOEY B/BRUSH 2PCE     0000001000+00004385+00000+0001T   00004385+0000001406          1400 SO5215               1BZ
504287006504287112-116038     504287006009681820246TCS CARRIER BAG MIDI   0000001000+00000035+00000+0001T   00000035+0000001406          1400 SO5090               1BZ
504287007504287082-000105     504287006003000360369READING GLS STRNGHT:1.50000001000+00004385+00000+0001T   00004385+0000001406          1400 SO5160               1BZ
504288000504288               504288               170213NF     1400+00000+NF0000024237+0000024237+000000000+000003399+0000027630+0000000006+I20000000000+0000027630+Z
504288001504288050-000361-Z   504288006001023535382PADLOCK IRON 20mm CARD 0000001000+00001928+00000+0001T   00001928+0000001413          1400 SO5855               1BZ
504288002504288362-019285     504288006001023869456HAIR BAND SET ASS. CARD0000001000+00002630+00000+0001T   00002630+0000001413          1400 SO5160               1BZ
504288003504288075-000360     504288006003000267705PURSE 9x6cm B-FLY/ROSE 0000001000+00002630+00000+0001T   00002630+0000001413          1400 SO5160               1BZ
504288004504288267-000020     504288006001023892355PUZZLE 4x16PCE COLOR-IN0000001000+00001753+00000+0001T   00001753+0000001413          1400 SO5755               1BZ
504288005504288071-003051     504288006003000217304PEN ASST               0000002000+00000788+00000+0001T   00001139+0008151413          1400 SO5130               1BZ
504288006504288079-001114     504288006003000390083A+C PAPER MOSAIC SET   0000001000+00002630+00000+0001T   00002630+0000001413          1400 SO5130               1BZ
504288007504288080-000138     504288006003000589272CARD & ENV GIANT BABY  0000001000+00002630+00000+0001T   00002630+0000001413          1400 SO5112               1BZ
504288008504288903-000844     504288005010478432567SWT CANDY DL LUV HEARTS0000002000+00001314+00000+0001T   00001314+0000001413          1400 SO5150               1BZ
504288009504288903-004963     504288008410525221873SWT GUMMY SOUR COLA 50g0000001000+00000964+00000+0001T   00000964+0000001413          1400 SO5150               1BZ
504288010504288903-004961     504288008410525221866SWT GUMMY FINI WILD 50g0000001000+00000964+00000+0001T   00000964+0000001413          1400 SO5150               1BZ
504288011504288903-004962     504288008410525221880SWT FINI BLCK/RED 50g  0000001000+00000964+00000+0001T   00000964+0000001413          1400 SO5150               1BZ
504288012504288903-004961     504288008410525221866SWT GUMMY FINI WILD 50g0000001000+00000964+00000+0001T   00000964+0000001413          1400 SO5150               1BZ
504288013504288112-116069     504288006009681820277TCS CARRIER BAG JUMBO  0000001000+00000048+00000+0001T   00000048+0000001413          1400 SO5090               1BZ
504288014504288903-004963     504288008410525221873SWT GUMMY SOUR COLA 50g0000002000+00000964+00000+0001T   00000964+0000001413          1400 SO5150               1BZ
504289000504289               504289               170213NF     1400+00000+NF0000005213+0000005213+000000000+000000731+0000005940+0000000004+I20000000000+0000005940+Z
504289001504289006-000172-B   504289006003000609819BALLOONS METALLIC L/GRN0000001000+00000218+00000+0001T   00000218+0000001418          1400 SO5131               1BZ
504289002504289006-001000     504289006003000093779HELIUM BALLOON FILL    0000001000+00000613+00000+0001T   00000613+0000001418          1400 SO5131               1BZ
504289003504289040-000172     504289006001023794536C/HOLDER GLS FRIENDSHIP0000001000+00003069+00000+0001T   00003069+0000001418          1400 SO5510               1BZ
504289004504289018-000177     504289006001023797513MUG MINI LOVE ASSTD    0000001000+00000700+00000+0001T   00000700+0000001418          1400 SO5515               1BZ
504289005504289077-000321     504289006001023677501GIFT-BAG 11X14CM E/D FL0000001000+00000613+00000+0001T   00000613+0000001418          1400 SO5112               1BZ
504290000504290               504290               170213NF     1400+00000+NF0000004121+0000004121+000000000+000000577+0000004690+0000000008+I20000000000+0000004690+Z
504290001504290046-000014-VP  504290006003000537952BATTERIES H/P SIZE:AAA 0000001000+00004121+00000+0001T   00004121+0000001420          1400 SO5312               1BZ
504291000504291               504291               170213NF     1400+00000+NF0000005170+0000005170+000000000+000000726+0000005890+0000000006+I20000000000+0000005890+Z
504291001504291077-000011-D   504291006001023808554TISSUE-WRAP WHITE 10PCE0000001000+00000876+00000+0001T   00000876+0000001421          1400 SO5112               1BZ
504291002504291077-000011-X   504291006001023809827TISSUE-WRAP SILVER 10PC0000001000+00001753+00000+0001T   00001753+0000001421          1400 SO5112               1BZ
504291003504291077-000010-Z   504291006001023157874CREPE-PAPER BLK/ORG/PUR0000001000+00000788+00000+0001T   00000788+0000001421          1400 SO5112               1BZ
504291004504291080-000107     504291006003000237081CARD&ENVELPE BDAY BOY  0000001000+00001753+00000+0001T   00001753+0000001421          1400 SO5112               1BZ
504292000504292               504292               170213NF     1400+00000+NF0000002630+0000002630+000000000+000000369+0000002990+0000000009+I20000000000+0000002990+Z
504292001504292002-000884     504292006001023769589CAN-OPENER BUTTERFLY   0000001000+00002630+00000+0001T   00002630+0000001424          1400 SO5300               1BZ
504293000504293               504293               170213NF     1400+00000+NF0000001753+0000001753+000000000+000000246+0000001990+0000000009+I20000000000+0000001990+Z
504293001504293089-000030     504293006003000575671K/CHAIN LOVE MTL ASSTD 0000001000+00001753+00000+0001T   00001753+0000001427          1400 SO5205               1BZ
504294000504294               504294               170213NF     1400+00000+NF0000003144+0000003144+000000000+000000448+0000003590+0000000002+I20000000000+0000003590+Z
504294001504294903-000183     504294006003000451043SWT LB HEART LOLLY     0000008000+00000393+00000+0001T   00000393+0000001447          1400 SO5150               1BZ
504295000504295               504295               170213NF     1400+00000+NF0000007045+0000007045+000000000+000000990+0000008030+0000000005+I20000000000+0000008030+Z
504295001504295080-000133-A   504295006003000647019MINI VALENTINES CARD   0000002000+00000437+00000+0001T   00000437+0000001658          1400 SO5112               1AZ
504295002504295304-000720     504295006001023843050F/BUNCH ROSE 6-HEAD AST0000001000+00002630+00000+0001T   00002630+0000001658          1400 SO5510               1AZ
504295003504295017-000199     50429500600300037852460-PHOTO WEDDING ALBUM 0000002000+00001753+00000+0001T   00002630+0008171658          1400 SO5510               1AZ
504295004504295112-116038     504295006003000534906TCS CARRIER BAG MIDI   0000001000+00000035+00000+0001T   00000035+0000001658          1400 SO5090               1AZ
504296000504296               504296               170213NF     1400+00000+NF0000010963+0000010963+000000000+000001535+0000012498+0000000000+I40000012498+0000000000+Z
504296001504296586-011941     504296006001492119410WATCH KIDS RAINBOW ASST0000001000+00008771+00000+0001T   00008771+0000001659          1400 SO5160               1AZ
504296002504296018-000170     504296006001023775528MUG OCC. LOVE 2PC MINI 0000001000+00002192+00000+0001T   00002192+0000001659          1400 SO5515               1AZ
504297000504297               504297               170213NF     1400+00000+NF0000019338+0000019338+000000000+000002711+0000022049+0000000000+I40000022049+0000000000+Z
504297001504297112-116069     504297006003000535064TCS CARRIER BAG JUMBO  0000001000+00000048+00000+0001T   00000048+0000001701          1400 SO5090               1AZ
504297002504297024-000093-A   504297006003000430697MEASURING-CUPS ASSTD   0000001000+00004385+00000+0001T   00004385+0000001701          1400 SO5300               1AZ
504297003504297024-000093-B   504297006003000430819MEASURING-SPOONS ASSTD 0000001000+00002630+00000+0001T   00002630+0000001701          1400 SO5300               1AZ
504297004504297024-000078     504297006001023849168SIEVE FLOUR 16cm PL-RIM0000001000+00004385+00000+0001T   00004385+0000001701          1400 SO5300               1AZ
504297005504297133-061111     504297006001023775092TOWEL MAGIC ALL-PURPOSE0000001000+00002630+00000+0001T   00002630+0000001701          1400 SO5212               1AZ
504297006504297567-011472     504297009781472336200BK READER MINI BAMBI   0000001000+00002630+00000+0001T   00002630+0000001701          1400 SO5757               1AZ
504297007504297567-011474     504297009781472346728BK READER MINI ALADDIN 0000001000+00002630+00000+0001T   00002630+0000001701          1400 SO5757               1AZ
504298000504298               504298               170213NF     1400+00000+NF0000016708+0000016708+000000000+000002342+0000019050+0000000000+I20000000000+0000019050+Z
504298001504298018-000136     504298006001023659026MUG OCC LOVE W/PLUSH   0000001000+00003507+00000+0001T   00003507+0000001722          1400 SO5515               1AZ
504298002504298301-085007     504298006003000673698ORN OCC. LOVE S/PLAQUE 0000001000+00007893+00000+0001T   00007893+0000001722          1400 SO5505               1AZ
504298003504298304-000720     504298006001023843050F/BUNCH ROSE 6-HEAD AST0000001000+00002630+00000+0001T   00002630+0000001722          1400 SO5510               1AZ
504298004504298566-000367     504298006003000645558STICKER WINDOW DECOR   0000001000+00002630+00000+0001T   00002630+0000001722          1400 SO5130               1AZ
504298005504298112-116069     504298006003000535064TCS CARRIER BAG JUMBO  0000001000+00000048+00000+0001T   00000048+0000001722          1400 SO5090               1AZ
A17021300                                          08454383NFSLAVE 1                       SO51IC
A17021301                                          17410706NFSLAVE 1                       SO51IC
M17021301                              SHIEHAAM    NFATT. SHIEHAAM                                                                                   BANKING R3885.70                                                                                CR. CARDS R1050.27                                                                              THANKS                                          POSTMASBURG NF
M17021302                              IT          NFATT. IT                                                                                         THE LAST TILL SLIP NO. IS 504298                                                                THANKS                                          POSTMASBURG NF
M17021391                              CASH        NFSLAVE 1                       Z-REPORT No.   578TOTAL (Sales - Refunds)           4935.97       CASH TO BE BANKED                 3885.70       DEBIT CARDS                          0.00       CREDIT CARDS                      1050.27       Z-READING                         4935.97       AIRTIME DEBIT CARD SALES             0.00       AIRTIME CARD SALES                   0.00       OVERS/UNDERS                         0.00       AIRTIME CASH SALES                   0.00       GIFT CARDS                           0.00       GIFT CARD CASH SALES                 0.00       T O T A L  CASH PAYOUTS              0.00                                                                                                                                                                                                                                                                                                                                                      Z
M17021392                              CASH        NFABSENT                                                                                                                                                                                          ANNUAL LEAVE                                                                                                                                                                                    DAY OFF                                                                                                                                                                                         COMMENTS                                                                                                                                                                                                                                                                                                                                                                                       Z
Y17021300                                          NF00000000433087+000038
ZNF17021320093 SLAVE 1      SALES DATA                     NEXT INVOICE NO.  504299 0578
X NF Slave 1 First invoice 504261 170213 Last invoice 504298 170213 Next invoice 504299 Total number of records 000000193 clbackup completed 20:09:54
