602900000602900               602900               170213NF     1400+00000+NF0000007800+0000007800+000000000+000001094+0000008894+0000000000+I40000008894+0000000000+Z
602900001602900003-008001     602900006003000580125ORN SCARECROW 15CM ASST0000002000+00003507+00000+0001T   00003507+0000000821          1400 SU5505               2BZ
602900002602900903-000183     602900006003000451043SWT LB HEART LOLLY     0000002000+00000393+00000+0001T   00000393+0000000821          1400 SU5150               2BZ
602901000602901               602901               170213NF     1400+00000+NF0000004997+0000004997+000000000+000000700+0000005697+0000000000+I40000005697+0000000000+Z
602901001602901018-000136     602901006001023659026MUG OCC LOVE W/PLUSH   0000001000+00003507+00000+0001T   00003507+0000000827          1400 SU5515               2BZ
602901002602901077-000299     602901006003000395576G/BAG 32x25cm LRG LOVE 0000001000+00001490+00000+0001T   00001490+0000000827          1400 SU5112               2BZ
602902000602902               602902               170213NF     1400+00000+NF0000004732+0000004732+000000000+000000664+0000005390+0000000006+I20000000000+0000005390+Z
602902001602902007-000167     602902006009685857347SPIRAL NOTES A7 72PG   0000001000+00000350+00000+0001T   00000350+0000000836          1400 SU5130               2BZ
602902002602902071-000305     602902006001023715340RULER/STENCILS         0000001000+00001753+00000+0001T   00001753+0000000836          1400 SU5130               2BZ
602902003602902071-003004     602902006003000662821PEN BALL POINT 3PC BLUE0000001000+00000876+00000+0001T   00000876+0000000836          1400 SU5130               2BZ
602902004602902105-001032     602902000700371696634CONTAINER FOODSAVER 1.20000001000+00001753+00000+0001T   00001753+0000000836          1400 SU5210               2BZ
602903000602903               602903               170213NF     1400+00000+NF0000003104+0000003104+000000000+000000435+0000003530+0000000009+I20000000000+0000003530+Z
602903001602903012-000012     602903006003000333646MICROWAVE MICRO-POT    0000001000+00003069+00000+0001T   00003069+0000000845          1400 SU5300               2BZ
602903002602903112-116038     602903006009681820246TCS CARRIER BAG MIDI   0000001000+00000035+00000+0001T   00000035+0000000845          1400 SU5090               2BZ
602904000602904               602904               170213NF     1400+00000+NF0000010784+0000010784+000000000+000001510+0000012290+0000000004+I20000000000+0000012290+Z
602904001602904033-005907     602904006003000433506SHOE LACES 4-PAIR SET  0000001000+00002192+00000+0001T   00002192+0000000902          1400 SU5200               2BZ
602904002602904565-004005     602904006003000109081NOVELTY BUG VIEWER     0000001000+00004385+00000+0001T   00004385+0000000902          1400 SU5745               2BZ
602904003602904267-000311     602904006003000610730PUZZLE WOOD TRAY ASSTD 0000001000+00003507+00000+0001T   00003507+0000000902          1400 SU5755               2BZ
602904004602904018-000177     602904006001023797513MUG MINI LOVE ASSTD    0000001000+00000700+00000+0001T   00000700+0000000902          1400 SU5515               2BZ
602905000602905               602905               170213NF     1400+00000+NF0000022533+0000022533+000000000+000003175+0000025700+0000000008+I20000000000+0000025700+Z
602905001602905006-000120     602905006001023346889BALLOONS 10PC MIX COL  0000002000+00001753+00000+0001T   00001753+0000000920          1400 SU5131               2BZ
602905002602905903-000183     602905006003000451043SWT LB HEART LOLLY     0000018000+00000393+00000+0001T   00000393+0000000920          1400 SU5150               2BZ
602905003602905018-005009     602905006001023725608MUG W/PLUSH-BEAR LOVE  0000002000+00003507+00000+0001T   00003507+0000000920          1400 SU5515               2BZ
602905004602905112-116038     602905006009681820246TCS CARRIER BAG MIDI   0000001000+00000035+00000+0001T   00000035+0000000920          1400 SU5090               2BZ
602905005602905006-001000     602905006003000093779HELIUM BALLOON FILL    0000008000+00000613+00000+0001T   00000613+0000000920          1400 SU5131               2BZ
602906000602906               602906               170213NF     1400+00000+NF0000007048+0000007048+000000000+000000988+0000008030+0000000006+I20000000000+0000008030+Z
602906001602906133-000017     602906006003000525171CLEANING-CLOTHS 5PCE   0000001000+00003507+00000+0001T   00003507+0000000921          1400 SU5212               2BZ
602906002602906133-000016     602906006003000240609DUSTERS ORANGE PACK-3  0000002000+00001753+00000+0001T   00001753+0000000921          1400 SU5212               2BZ
602906003602906112-116038     602906006009681820246TCS CARRIER BAG MIDI   0000001000+00000035+00000+0001T   00000035+0000000921          1400 SU5090               2BZ
602907000602907               602907               170213NF     1400+00000+NF0000000788+0000000788+000000000+000000111+0000000890+0000000009+I20000000000+0000000890+Z
602907001602907903-000138     602907006002099004314SWT GS WINE GUMS 60G   0000001000+00000788+00000+0001T   00000788+0000000923          1400 SU5150               2BZ
602908000602908               602908               170213NF     1400+00000+NF0000020563+0000020563+000000000+000002883+0000023446+0000000000+I40000023446+0000000000+Z
602908001602908903-000215     602908006002099001214SWT GS MALLOW TWIST PAC0000001000+00001753+00000+0001T   00001753+0000000942          1400 SU5150               2BZ
602908002602908903-000211     602908006002099001238SWT GS MALLOW ICE CREAM0000001000+00001753+00000+0001T   00001753+0000000942          1400 SU5150               2BZ
602908003602908077-000327     602908006001023677686GIFT-BAG 25X32CM E/D BA0000002000+00001490+00000+0001T   00001490+0000000942          1400 SU5112               2BZ
602908004602908562-063364     602908006003000113163EDU CLOCK WOODEN       0000001000+00007016+00000+0001T   00007016+0000000942          1400 SU5755               2BZ
602908005602908562-000743     602908006001023712318EDU BLOCKS SHAPE PL    0000001000+00004385+00000+0001T   00004385+0000000942          1400 SU5755               2BZ
602908006602908112-116069     602908006009681820277TCS CARRIER BAG JUMBO  0000001000+00000048+00000+0001T   00000048+0000000942          1400 SU5090               2BZ
602908007602908077-000011-F   602908006001023808431TISSUE-WRAP BLUE/LILAC 0000001000+00000876+00000+0001T   00000876+0000000942          1400 SU5112               2BZ
602908008602908077-000011-E   602908006001023808646TISSUE-WRAP PINK 10PCE 0000001000+00000876+00000+0001T   00000876+0000000942          1400 SU5112               2BZ
602908009602908077-000011-L   602908006001023808585P/TISSUE BRIGHT 10SHEET0000001000+00000876+00000+0001T   00000876+0000000942          1400 SU5112               2BZ
602909000602909               602909               170213NF     1400+00000+NF0000035643+0000035643+000000000+000004995+0000040630+0000000008+I20000000000+0000040630+Z
602909001602909562-000021     602909006001023800367PLAY DOUGH SET 3 ASSTD 0000002000+00003507+00000+0001T   00003507+0000000947          1400 SU5755               2BZ
602909002602909361-000249     602909006001023793706DOLL 29cm FASION  ASSTD0000001000+00004385+00000+0001T   00005262+0008190947          1400 SU5725               2BZ
602909003602909301-006020     602909006003000461493ORN OWL 8x6.5cm 4-ASSTD0000001000+00005262+00000+0001T   00005262+0000000947          1400 SU5505               2BZ
602909004602909266-001101     602909006003000600472BOYS FIG P/SET W/ACCESS0000001000+00004385+00000+0001T   00004385+0000000947          1400 SU5710               2BZ
602909005602909112-116069     602909006009681820277TCS CARRIER BAG JUMBO  0000001000+00000048+00000+0001T   00000048+0000000947          1400 SU5090               2BZ
602909006602909159-000637     602909006001023735058BATH PUMICE STONE      0000002000+00000700+00000+0001T   00000700+0000000947          1400 SU5200               2BZ
602909007602909366-004047     602909006001023834850DRESS UP ACCESS TEETH  0000002000+00001753+00000+0001T   00001753+0000000947          1400 SU5131               2BZ
602909008602909200-003024     602909006001023657299REFUSE BAGS 20PCE BLACK0000001000+00001753+00000+0001T   00001753+0000000947          1400 SU5214               2BZ
602909009602909108-003023     602909006003000665471TUMBLER W/STRAW 550ml  0000003000+00002630+00000+0001T   00002630+0000000947          1400 SU5210               2BZ
602910000602910               602910               170213NF     1400+00000+NF0000020611+0000020611+000000000+000002886+0000023497+0000000000+I40000023497+0000000000+Z
602910001602910072-020237     602910006003000623402PET BED COTTON TEXTILE 0000001000+00017542+00000+0001T   00017542+0000000950          1400 SU5870               2BZ
602910002602910072-000014     602910006003000451845PET DOG/CAT BRUSH 20cm 0000001000+00003069+00000+0001T   00003069+0000000950          1400 SU5870               2BZ
602911000602911               602911               170213NF     1400+00000+NF0000014074+0000014074+000000000+000001973+0000016047+0000000000+I40000016047+0000000000+Z
602911001602911200-003024     602911006001023657299REFUSE BAGS 20PCE BLACK0000003000+00001753+00000+0001T   00001753+0000000952          1400 SU5214               2BZ
602911002602911133-000010-A   602911006001023997647CLEANING CLOTH ROLL 30 0000002000+00003507+00000+0001T   00003507+0000000952          1400 SU5212               2BZ
602911003602911027-000409     602911006001023731012SCRUBBING-BRUSH 15,5cm 0000001000+00001753+00000+0001T   00001753+0000000952          1400 SU5212               2BZ
602911004602911112-116069     602911006009681820277TCS CARRIER BAG JUMBO  0000001000+00000048+00000+0001T   00000048+0000000952          1400 SU5090               2BZ
602912000602912               602912               170213NF     1400+00000+NF0000001753+0000001753+000000000+000000246+0000001990+0000000009+I20000000000+0000001990+Z
602912001602912007-000094     602912006003000659289ENVELOPES WHT 5PK C4   0000001000+00001753+00000+0001T   00001753+0000000957          1400 SU5130               2BZ
602913000602913               602913               170213NF     1400+00000+NF0000000700+0000000700+000000000+000000098+0000000790+0000000008+I20000000000+0000000790+Z
602913001602913903-000120     602913006002099001665SWEET GS ZILLIONS 50g  0000001000+00000700+00000+0001T   00000700+0000001017          1400 SU5150               2BZ
602914000602914               602914               170213NF     1400+00000+NF0000025040+0000025040+000000000+000003509+0000028540+0000000009+I20000000000+0000028540+Z
602914001602914077-000270     602914006003000395453GIFT-BAG PPR JMB 33X45 0000001000+00002630+00000+0001T   00002630+0000001040          1400 SU5112               2BZ
602914002602914368-000111     602914006001023780812PLUSH BEAR/DOG 29CM    0000001000+00012279+00000+0001T   00012279+0000001040          1400 SU5745               2BZ
602914003602914075-000412     602914006001023855299SHOPPER-BASKET PL      0000001000+00005700+00000+0001T   00005700+0000001040          1400 SU5160               2BZ
602914004602914162-096647     602914006001492966472#TAG EARRINGS KIDS     0000001000+00001753+00000+0001T   00001753+0000001040          1400 SU5160               2BZ
602914005602914133-000081     602914006003000277315DISH CLOTH 40x70cm     0000001000+00002630+00000+0001T   00002630+0000001040          1400 SU5212               2BZ
602914006602914112-116069     602914006009681820277TCS CARRIER BAG JUMBO  0000001000+00000048+00000+0001T   00000048+0000001040          1400 SU5090               2BZ
602915000602915               602915               170213NF     1400+00000+NF0000024752+0000024752+000000000+000003469+0000028221+0000000000+I40000028221+0000000000+Z
602915001602915077-000011-L   602915006001023808585P/TISSUE BRIGHT 10SHEET0000001000+00000876+00000+0001T   00000876+0000001046          1400 SU5112               2BZ
602915002602915006-000165     602915006001023758392BALLOONS LRG BAG-OF-1000000001000+00008771+00000+0001T   00008771+0000001046          1400 SU5131               2BZ
602915004602915018-019000     602915006003000557288MUG OCC. LOVE JUMBO    0000001000+00005262+00000+0001T   00005262+0000001046          1400 SU5515               2BZ
602915005602915112-116038     602915006009681820246TCS CARRIER BAG MIDI   0000001000+00000035+00000+0001T   00000035+0000001046          1400 SU5090               2BZ
602915006602915006-001000     602915006003000093779HELIUM BALLOON FILL    0000016000+00000613+00000+0001T   00000613+0000001046          1400 SU5131               2BZ
602916000602916               602916               170213NF     1400+00000+NF0000007926+0000007926+000000000+000001111+0000009037+0000000000+I40000009037+0000000000+Z
602916001602916368-000049     602916006003000536955PLUSH BEAR 15cm LOVE   0000001000+00004385+00000+0001T   00004385+0000001053          1400 SU5745               2BZ
602916002602916103-000215     602916006003000568635BASKET WICKER/IRON     0000001000+00002630+00000+0001T   00002630+0000001053          1400 SU5300               2BZ
602916003602916077-000151     602916006008766114676GIFT-WRAP C/PHANE ASSTD0000001000+00000876+00000+0001T   00000876+0000001053          1400 SU5112               2BZ
602916004602916112-116038     602916006009681820246TCS CARRIER BAG MIDI   0000001000+00000035+00000+0001T   00000035+0000001053          1400 SU5090               2BZ
602917000602917               602917               170213NF     1400+00000+NF0000001839+0000001839+000000000+000000259+0000002090+0000000008+I20000000000+0000002090+Z
602917001602917903-000137     602917006002099004130SWEET GS JELLY BEAN 60G0000001000+00000788+00000+0001T   00000788+0000001055          1400 SU5150               2BZ
602917002602917903-002853     602917000000087108019MENTOS ROLL MINT       0000001000+00001051+00000+0001T   00001051+0000001055          1400 SU5150               2BZ
602918000602918               602918               170213NF     1400+00000+NF0000003856+0000003856+000000000+000000541+0000004390+0000000007+I20000000000+0000004390+Z
602918001602918077-000327     602918006001023677686GIFT-BAG 25X32CM E/D BA0000001000+00001490+00000+0001T   00001490+0000001100          1400 SU5112               2BZ
602918002602918033-005919     602918006003000154883SEWING THREAD 24cm ASST0000001000+00001490+00000+0001T   00001490+0000001100          1400 SU5200               2BZ
602918003602918033-006001     602918006001023135933SEWING-KIT TRAVELLING  0000001000+00000876+00000+0001T   00000876+0000001100          1400 SU5200               2BZ
602919000602919               602919               170213NF     1400+00000+NF0000001753+0000001753+000000000+000000246+0000001999+0000000000+I40000001999+0000000000+Z
602919001602919077-000382     602919006003000247820GIFT-BAG MED 18X23CM   0000001000+00001753+00000+0001T   00001753+0000001104          1400 SU5112               2BZ
602920000602920               602920               170213NF     1400+00000+NF0000001227+0000001227+000000000+000000172+0000001390+0000000009+I20000000000+0000001390+Z
602920001602920200-000092     602920006003000576739PICNIC PAPER PLATES 23c0000001000+00001227+00000+0001T   00001227+0000001239          1400 SU5214               2BZ
602921000602921               602921               170213NF     1400+00000+NF0000004418+0000004418+000000000+000000619+0000005030+0000000007+I20000000000+0000005030+Z
602921001602921301-085008     602921006003000673933ORN OCC.LOVE TINSEL HRT0000001000+00003069+00000+0001T   00003069+0000001242          1400 SU5505               2BZ
602921002602921030-000010     602921006003000084395P/DOOR HANGER 2-ASSTD  0000001000+00001314+00000+0001T   00001490+0008181242          1400 SU5505               2BZ
602921003602921112-116038     602921006009681820246TCS CARRIER BAG MIDI   0000001000+00000035+00000+0001T   00000035+0000001242          1400 SU5090               2BZ
602922000602922               602922               170213NF     1400+00000+NF0000002541+0000002541+000000000+000000357+0000002890+0000000008+I20000000000+0000002890+Z
602922001602922564-000015     602922006003000140862BUBBLE TEST TUBE       0000001000+00001753+00000+0001T   00001753+0000001248          1400 SU5131               2BZ
602922002602922903-000138     602922006002099004314SWT GS WINE GUMS 60G   0000001000+00000788+00000+0001T   00000788+0000001248          1400 SU5150               2BZ
602923000602923               602923               170213NF     1400+00000+NF0000002630+0000002630+000000000+000000369+0000002990+0000000009+I20000000000+0000002990+Z
602923001602923262-000651     602923006001023754561DIE CAST SET 5PC RACER 0000001000+00002630+00000+0001T   00002630+0000001252          1400 SU5710               2BZ
602924000602924               602924               170213NF     1400+00000+NF0000006926+0000006926+000000000+000000970+0000007890+0000000006+I20000000000+0000007890+Z
602924001602924018-000136     602924006001023659026MUG OCC LOVE W/PLUSH   0000001000+00003507+00000+0001T   00003507+0000001258          1400 SU5515               2BZ
602924002602924903-000519     602924006001704012805SWT MS LIQ-O-GHETTI    0000001000+00001227+00000+0001T   00001227+0000001258          1400 SU5150               2BZ
602924003602924077-000920     602924006003000413812G/WRAP 700mmx2m BIRTHDA0000001000+00002192+00000+0001T   00002192+0000001258          1400 SU5112               2BZ
602925000602925               602925               170213NF     1400+00000+NF0000001753+0000001753+000000000+000000246+0000001990+0000000009+I20000000000+0000001990+Z
602925001602925007-000050     602925006001023528285DISPLAY-ENVELOPE A4    0000001000+00001753+00000+0001T   00001753+0000001259          1400 SU5130               2BZ
602926000602926               602926               170213NF     1400+00000+NF0000005262+0000005262+000000000+000000737+0000005990+0000000009+I20000000000+0000005990+Z
602926001602926469-006646     602926006003000595655B/BLOCKS BUILD 3 DESIGN0000001000+00005262+00000+0001T   00005262+0000001300          1400 SU5755               2BZ
602927000602927               602927               170213NF     1400+00000+NF0000020645+0000020645+000000000+000002892+0000023537+0000000000+I10000013537+0000010000+Z
602927001602927040-001013     602927006003000327966C/HOLDER SET 3PC W/TRAY0000001000+00014911+00000+0001T   00014911+0000001303          1400 SU5510               2BZ
602927002602927024-091100     602927006001023914224BAKING-CUPS PAPER 100PC0000001000+00001753+00000+0001T   00001753+0000001303          1400 SU5300               2BZ
602927003602927024-000018     602927006001023610232CAKE-DEC S/S NOZZLE    0000001000+00003946+00000+0001T   00003946+0000001303          1400 SU5300               2BZ
602927004602927112-116038     602927006009681820246TCS CARRIER BAG MIDI   0000001000+00000035+00000+0001T   00000035+0000001303          1400 SU5090               2BZ
602928000602928               602928               170213NF     1400+00000+NF0000010555+0000010555+000000000+000001481+0000012030+0000000006+I20000000000+0000012030+Z
602928001602928368-000100     602928006001023474742PLUSH MD BEAR 12cm     0000004000+00002630+00000+0001T   00002630+0000001304          1400 SU5745               2BZ
602928002602928112-116038     602928006009681820246TCS CARRIER BAG MIDI   0000001000+00000035+00000+0001T   00000035+0000001304          1400 SU5090               2BZ
602929000602929               602929               170213NF     1400+00000+NF0000001753+0000001753+000000000+000000246+0000001990+0000000009+I20000000000+0000001990+Z
602929001602929089-000030     602929006003000575671K/CHAIN LOVE MTL ASSTD 0000001000+00001753+00000+0001T   00001753+0000001312          1400 SU5205               2BZ
602930000602930               602930               170213NF     1400+00000+NF0000003414+0000003414+000000000+000000480+0000003894+0000000000+I40000003894+0000000000+Z
602930001602930030-000010     602930006003000084395P/DOOR HANGER 2-ASSTD  0000002000+00001314+00000+0001T   00001490+0008181316          1400 SU5505               2BZ
602930002602930903-000183     602930006003000451043SWT LB HEART LOLLY     0000002000+00000393+00000+0001T   00000393+0000001316          1400 SU5150               2BZ
602931000602931               602931               170213NF     1400+00000+NF0000011872+0000011872+000000000+000001663+0000013535+0000000000+I40000013535+0000000000+Z
602931001602931077-000299     602931006003000395576G/BAG 32x25cm LRG LOVE 0000001000+00001490+00000+0001T   00001490+0000001320          1400 SU5112               2BZ
602931002602931024-000019     602931006001023822277HILLHOUSE ICING-SET    0000001000+00005262+00000+0001T   00005262+0000001320          1400 SU5300               2BZ
602931003602931301-085004     602931006003000420469ORN LOVE PLAQUE 21X10CM0000001000+00003507+00000+0001T   00003946+0006471320          1400 SU5505               2BZ
602931004602931112-116038     602931006009681820246TCS CARRIER BAG MIDI   0000001000+00000035+00000+0001T   00000035+0000001320          1400 SU5090               2BZ
602931005602931080-000124     602931006003000297733CARD & ENV VALENTINES  0000001000+00001578+00000+0001T   00001578+0000001320          1400 SU5112               2BZ
602932000602932               602932               170213NF     1400+00000+NF0000002893+0000002893+000000000+000000406+0000003290+0000000009+I20000000000+0000003290+Z
602932001602932036-000151     602932006001023810588COATHANGERS    PACK-10 0000001000+00002893+00000+0001T   00002893+0000001329          1400 SU5212               2BZ
602933000602933               602933               170213NF     1400+00000+NF0000000876+0000000876+000000000+000000123+0000000990+0000000009+I20000000000+0000000990+Z
602933001602933903-000483     602933006001704001410SWT LIQUOR SML SORT 60G0000001000+00000876+00000+0001T   00000876+0000001333          1400 SU5150               2BZ
602934000602934               602934               170213NF     1400+00000+NF0000026353+0000026353+000000000+000003692+0000030040+0000000005+I20000000000+0000030040+Z
602934001602934003-008015     602934006001023764898ORN GNOME IN WHEEL 12CM0000001000+00005262+00000+0001T   00005262+0000001336          1400 SU5505               2BZ
602934002602934028-000026     602934006001023810847COOLER-BAG+POCKET NYLON0000001000+00009648+00000+0001T   00009648+0000001336          1400 SU5305               2BZ
602934003602934027-000852     602934006003000431007MOP TWIST HANDLE 1.3M  0000001000+00008771+00000+0001T   00008771+0000001336          1400 SU5212               2BZ
602934004602934027-000194     602934006001246602472MOP COMPLETE           0000001000+00002279+00000+0001T   00002279+0000001336          1400 SU5212               2BZ
602934005602934903-000183     602934006003000451043SWT LB HEART LOLLY     0000001000+00000393+00000+0001T   00000393+0000001336          1400 SU5150               2BZ
602935000602935               602935               170213NF     1400+00000+NF0000019336+0000019336+000000000+000002710+0000022046+0000000000+I40000022046+0000000000+Z
602935001602935019-000051     602935006003000457304VASE GLS ASSORTED      0000002000+00006139+00000+0001T   00006139+0000001341          1400 SU5510               2BZ
602935002602935039-000116     602935006001023799463C/FLOATING-BALL BOX-9  0000001000+00002630+00000+0001T   00002630+0000001341          1400 SU5510               2BZ
602935003602935040-000208     602935006003000673599C/HOLDER GLS COL. 5.5CM0000002000+00000876+00000+0001T   00000876+0000001341          1400 SU5510               2BZ
602935004602935039-080938     602935006001023733832C/IN-HOLDER GLS ASSTD  0000002000+00001314+00000+0001T   00001314+0000001341          1400 SU5510               2BZ
602935005602935112-116069     602935006009681820277TCS CARRIER BAG JUMBO  0000001000+00000048+00000+0001T   00000048+0000001341          1400 SU5090               2BZ
602936000602936               602936               170213NF     1400+00000+NF0000051908+0000051908+000000000+000007273+0000059181+0000000000+I40000059181+0000000000+Z
602936001602936262-000654     602936006001023839114DIE CAST VEHICLES ASS  0000001000+00003946+00000+0001T   00005262+0008141345          1400 SU5710               2BZ
602936002602936366-000105     602936006001023866103DRESSUP WINGS AND SKIRT0000001000+00007016+00000+0001T   00007016+0000001345          1400 SU5131               2BZ
602936003602936105-000013     602936006003000521050LUNCH BOX 2-DIVISION   0000002000+00001314+00000+0001T   00001314+0000001345          1400 SU5210               2BZ
602936004602936562-000809     602936006001023589712EDU PEG BOARD          0000001000+00007893+00000+0001T   00007893+0000001345          1400 SU5755               2BZ
602936005602936565-000085     602936006003000643332NOVELTY BEEDZ 10g      0000002000+00002455+00000+0001T   00002455+0000001345          1400 SU5745               2BZ
602936006602936562-000504     602936006001023619327EDU CUBE RUBIX         0000001000+00002630+00000+0001T   00002630+0000001345          1400 SU5755               2BZ
602936007602936562-006274     602936006001023744432EDU SKETCH-BOARD       0000001000+00005262+00000+0001T   00005262+0000001345          1400 SU5755               2BZ
602936008602936562-000810     602936006003000158867EDU PEG BOARD ART SETS 0000001000+00004385+00000+0001T   00004385+0000001345          1400 SU5755               2BZ
602936009602936112-116069     602936006009681820277TCS CARRIER BAG JUMBO  0000001000+00000048+00000+0001T   00000048+0000001345          1400 SU5090               2BZ
602936010602936368-000637     602936006001023874092PLUSH BEAR SLEEPING LOV0000001000+00011402+00000+0001T   00012279+0006471345          1400 SU5745               2BZ
602936011602936112-116038     602936006009681820246TCS CARRIER BAG MIDI   0000001000+00000035+00000+0001T   00000035+0000001345          1400 SU5090               2BZ
602936012602936903-000610     602936006003000610518SWEET JUMBO BUBBLE GUM 0000001000+00001753+00000+0001T   00001753+0000001345          1400 SU5150               2BZ
602937000602937               602937               170213NF     1400+00000+NF0000010872+0000010872+000000000+000001524+0000012396+0000000000+I40000012396+0000000000+Z
602937001602937077-000327     602937006001023677686GIFT-BAG 25X32CM E/D BA0000001000+00001490+00000+0001T   00001490+0000001430          1400 SU5112               2BZ
602937002602937034-078833     602937006001023857491SIGN BABY-ON-BOARD     0000001000+00001490+00000+0001T   00001490+0000001430          1400 SU5215               2BZ
602937003602937567-007951     602937009781775782452LHA BABA SE KLEIN PIENK0000001000+00007016+00000+0001T   00007016+0000001430          1400 SU5757               2BZ
602937004602937077-000011-D   602937006001023808554TISSUE-WRAP WHITE 10PCE0000001000+00000876+00000+0001T   00000876+0000001430          1400 SU5112               2BZ
602938000602938               602938               170213NF     1400+00000+NF0000002225+0000002225+000000000+000000312+0000002530+0000000007+I20000000000+0000002530+Z
602938001602938306-000023-A   602938006003000110148COTTON WOOL BALLS 50PCE0000001000+00000700+00000+0001T   00001314+0008171434          1400 SU5200               2BZ
602938002602938084-070001     602938006001023630018NAIL FILE 12cm         0000001000+00001490+00000+0001T   00001490+0000001434          1400 SU5200               2BZ
602938003602938112-116038     602938006009681820246TCS CARRIER BAG MIDI   0000001000+00000035+00000+0001T   00000035+0000001434          1400 SU5090               2BZ
602939000602939               602939               170213NF     1400+00000+NF0000006608+0000006608+000000000+000000927+0000007535+0000000000+I40000007535+0000000000+Z
602939001602939033-001364     602939006001023802088HAIR-CLIPS 65mm 24PCE  0000001000+00000876+00000+0001T   00000876+0000001438          1400 SU5200               2BZ
602939002602939007-000209     602939006001023582102NOTE STICKY FILE MARKER0000001000+00001314+00000+0001T   00001314+0000001438          1400 SU5130               2BZ
602939003602939007-000551     602939006001023848079NOTE-PAD SHOP-LIST ASST0000001000+00001753+00000+0001T   00001753+0000001438          1400 SU5130               2BZ
602939004602939039-000504     602939006001023816290CANDLE VTV 4PC METALLIC0000001000+00002630+00000+0001T   00002630+0000001438          1400 SU5510               2BZ
602939005602939112-116038     602939006009681820246TCS CARRIER BAG MIDI   0000001000+00000035+00000+0001T   00000035+0000001438          1400 SU5090               2BZ
602940000602940               602940               170213NF     1400+00000+NF0000008464+0000008464+000000000+000001187+0000009650+0000000001+I20000000000+0000009650+Z
602940001602940006-000805     602940000013994092418STREAMERS 10-ROLLS     0000001000+00001490+00000+0001T   00001490+0000001439          1400 SU5131               2BZ
602940002602940301-085008     602940006003000673933ORN OCC.LOVE TINSEL HRT0000001000+00003069+00000+0001T   00003069+0000001439          1400 SU5505               2BZ
602940003602940071-081091     602940006001151010287STAED/GENKEM ALL-STICK 0000001000+00001227+00000+0001T   00001227+0000001439          1400 SU5130               2BZ
602940004602940566-000367     602940006003000645558STICKER WINDOW DECOR   0000001000+00002630+00000+0001T   00002630+0000001439          1400 SU5130               2BZ
602940005602940112-116069     602940006009681820277TCS CARRIER BAG JUMBO  0000001000+00000048+00000+0001T   00000048+0000001439          1400 SU5090               2BZ
602941000602941               602941               170213NF     1400+00000+NF0000008270+0000008270+000000000+000001161+0000009430+0000000001+I20000000000+0000009430+Z
602941001602941903-000090     602941006009826020821SWT GS CHOCO COINS 60g 0000001000+00002104+00000+0001T   00002104+0000001441          1400 SU5150               2BZ
602941002602941903-000070     602941006001704001106SWT TOFFEE CREAMY 35g  0000001000+00000700+00000+0001T   00000700+0000001441          1400 SU5150               2BZ
602941003602941089-000027     602941006003000254071KEY CHAIN MOM/DAD ASSTD0000001000+00001753+00000+0001T   00001753+0000001441          1400 SU5205               2BZ
602941004602941903-000844     602941005010478432567SWT CANDY DL LUV HEARTS0000001000+00001314+00000+0001T   00001314+0000001441          1400 SU5150               2BZ
602941005602941018-000127     602941006001023380289MUG OCC STRAIGHT LOVE  0000001000+00001578+00000+0001T   00001753+0006471441          1400 SU5515               2BZ
602941006602941112-116038     602941006009681820246TCS CARRIER BAG MIDI   0000001000+00000035+00000+0001T   00000035+0000001441          1400 SU5090               2BZ
602941007602941903-000183     602941006003000451043SWT LB HEART LOLLY     0000002000+00000393+00000+0001T   00000393+0000001441          1400 SU5150               2BZ
602942000602942               602942               170213NF     1400+00000+NF0000002146+0000002146+000000000+000000302+0000002448+0000000000+I40000002448+0000000000+Z
602942001602942903-000183     602942006003000451043SWT LB HEART LOLLY     0000001000+00000393+00000+0001T   00000393+0000001444          1400 SU5150               2BZ
602942002602942200-003024     602942006001023657299REFUSE BAGS 20PCE BLACK0000001000+00001753+00000+0001T   00001753+0000001444          1400 SU5214               2BZ
602943000602943               602943               170213NF     1400+00000+NF0000014910+0000014910+000000000+000002088+0000016998+0000000000+I40000016998+0000000000+Z
602943001602943263-000307     602943006003000013777JEEP PL W/TRAILER+QUAD 0000001000+00013157+00000+0001T   00013157+0000001450          1400 SU5710               2BZ
602943002602943903-000614     602943006003000617333SWT PLIERS TWISTER 17cm0000001000+00001753+00000+0001T   00001753+0000001450          1400 SU5150               2BZ
602944000602944               602944               170213NF     1400+00000+NF0000005295+0000005295+000000000+000000743+0000006030+0000000008+I20000000000+0000006030+Z
602944001602944304-000720     602944006001023843050F/BUNCH ROSE 6-HEAD AST0000002000+00002630+00000+0001T   00002630+0000001451          1400 SU5510               2BZ
602944002602944112-116038     602944006009681820246TCS CARRIER BAG MIDI   0000001000+00000035+00000+0001T   00000035+0000001451          1400 SU5090               2BZ
602945000602945               602945               170213NF     1400+00000+NF0000038801+0000038801+000000000+000005439+0000044240+0000000000+I40000044240+0000000000+Z
602945001602945903-000861     602945005010478430822SWT LOVE HEARTS SML    0000004000+00000876+00000+0001T   00000876+0000001502          1400 SU5150               2BZ
602945002602945071-000006     602945006001023732613PENCIL REFILLABLE 6PK  0000001000+00001753+00000+0001T   00001753+0000001502          1400 SU5130               2BZ
602945003602945071-003858     602945006001023902276STATIONERY SET PENCIL  0000001000+00002455+00000+0001T   00002455+0000001502          1400 SU5130               2BZ
602945004602945362-001026     602945006001023829191MAKE-UP TEEN LIP-GLOSS 0000001000+00005262+00000+0001T   00005262+0000001502          1400 SU5160               2BZ
602945005602945077-000318     602945006001023609755GIFT-BAG 18X23CM E/D AN0000001000+00001227+00000+0001T   00001227+0000001502          1400 SU5112               2BZ
602945006602945077-000351     602945006003000139033GIFT-BAG 18X23CM E/D P 0000001000+00001753+00000+0001T   00001753+0000001502          1400 SU5112               2BZ
602945007602945368-000175     602945006003000270316PLUSH BEAR 4 ASSTD 18CM0000002000+00006139+00000+0001T   00006139+0000001502          1400 SU5745               2BZ
602945008602945266-001025     602945006003000108756BOYS TOYS SWORD 75cm   0000001000+00005262+00000+0001T   00005262+0000001502          1400 SU5710               2BZ
602945009602945112-116069     602945006009681820277TCS CARRIER BAG JUMBO  0000001000+00000048+00000+0001T   00000048+0000001502          1400 SU5090               2BZ
602945010602945903-000624     602945006003000671793SWEET LOLLY BLU/BRRY   0000001000+00001753+00000+0001T   00001753+0000001502          1400 SU5150               2BZ
602945011602945903-000619     602945006003000672455SWT LOLLY STR/BRRY 140G0000002000+00001753+00000+0001T   00001753+0000001502          1400 SU5150               2BZ
602946000602946               602946               170213NF     1400+00000+NF0000015829+0000015829+000000000+000002219+0000018048+0000000000+I40000018048+0000000000+Z
602946001602946206-000610     602946006003000631674BOMB SHOTS PL 10PC     0000001000+00003507+00000+0001T   00003507+0000001506          1400 SU5321               2BZ
602946002602946024-000118     602946006001023422316N/STICK C/PAN HEART    0000001000+00004385+00000+0001T   00004385+0000001506          1400 SU5300               2BZ
602946003602946206-000350     602946006003000633265EGG MOULD SUNRISE      0000001000+00002630+00000+0001T   00002630+0000001506          1400 SU5321               2BZ
602946004602946103-000215     602946006003000568635BASKET WICKER/IRON     0000001000+00002630+00000+0001T   00002630+0000001506          1400 SU5300               2BZ
602946005602946077-000151     602946006008766114676GIFT-WRAP C/PHANE ASSTD0000001000+00000876+00000+0001T   00000876+0000001506          1400 SU5112               2BZ
602946006602946112-116069     602946006009681820277TCS CARRIER BAG JUMBO  0000001000+00000048+00000+0001T   00000048+0000001506          1400 SU5090               2BZ
602946007602946089-000027     602946006003000254071KEY CHAIN MOM/DAD ASSTD0000001000+00001753+00000+0001T   00001753+0000001506          1400 SU5205               2BZ
602947000602947               602947               170213NF     1400+00000+NF0000003504+0000003504+000000000+000000492+0000003990+0000000006+I20000000000+0000003990+Z
602947001602947077-000150-D   602947006003000054343GIFT-WRAP CELLPHANE CLR0000004000+00000876+00000+0001T   00000876+0000001511          1400 SU5112               2BZ
602948000602948               602948               170213NF     1400+00000+NF0000002192+0000002192+000000000+000000307+0000002490+0000000009+I20000000000+0000002490+Z
602948001602948080-000139     602948006003000611690CARD & ENV MINI SET 6PC0000001000+00002192+00000+0001T   00002192+0000001512          1400 SU5112               2BZ
602949000602949               602949               170213NF     1400+00000+NF0000004819+0000004819+000000000+000000677+0000005490+0000000006+I20000000000+0000005490+Z
602949001602949071-003004     602949006003000662821PEN BALL POINT 3PC BLUE0000001000+00000876+00000+0001T   00000876+0000001514          1400 SU5130               2BZ
602949002602949071-000325     602949006009635844090RULER PLASTIC 30cm     0000001000+00000437+00000+0001T   00000437+0000001514          1400 SU5130               2BZ
602949003602949007-000050     602949006001023528285DISPLAY-ENVELOPE A4    0000001000+00001753+00000+0001T   00001753+0000001514          1400 SU5130               2BZ
602949004602949007-000192     602949006009635830062BOOK H/COVER A4 192PAGE0000001000+00001753+00000+0001T   00001753+0000001514          1400 SU5130               2BZ
602950000602950               602950               170213NF     1400+00000+NF0000003507+0000003507+000000000+000000491+0000003990+0000000008+I20000000000+0000003990+Z
602950001602950204-000003     602950006003000593583MEMO HOLDERS POLY 4ASST0000001000+00003507+00000+0001T   00003507+0000001515          1400 SU5300               2BZ
602951000602951               602951               170213NF     1400+00000+NF0000008362+0000008362+000000000+000001172+0000009530+0000000004+I20000000000+0000009530+Z
602951001602951018-000129     602951006001023403353MUG OCC. LOVE V-SHAPE  0000001000+00002630+00000+0001T   00002630+0000001524          1400 SU5515               2BZ
602951002602951031-000002-A   602951006003000247103P/FRAME LOVE 7.5X7.5CM 0000001000+00003507+00000+0001T   00003507+0000001524          1400 SU5510               2BZ
602951003602951077-000299     602951006003000395576G/BAG 32x25cm LRG LOVE 0000001000+00001490+00000+0001T   00001490+0000001524          1400 SU5112               2BZ
602951004602951112-116038     602951006009681820246TCS CARRIER BAG MIDI   0000001000+00000035+00000+0001T   00000035+0000001524          1400 SU5090               2BZ
602951005602951564-000012     602951006001023130075BUBBLE BOTTLE MAGIC    0000001000+00000700+00000+0001T   00000700+0000001524          1400 SU5131               2BZ
602952000602952               602952               170213NF     1400+00000+NF0000019295+0000019295+000000000+000002702+0000021997+0000000000+I40000021997+0000000000+Z
602952001602952403-000032     602952006003000514731J/HOLDER HEART-SHAPE   0000001000+00017542+00000+0001T   00017542+0000001530          1400 SU5510               2BZ
602952002602952077-000299-A   602952006003000670888GIFT-BAG PAPER JMB LOVE0000001000+00001753+00000+0001T   00001753+0000001530          1400 SU5112               2BZ
602953000602953               602953               170213NF     1400+00000+NF0000014934+0000014934+000000000+000002099+0000017030+0000000003+I20000000000+0000017030+Z
602953001602953903-000895     602953006009680772256SWT MINI BOTZ S/BERRY  0000001000+00000788+00000+0001T   00000788+0000001532          1400 SU5150               2BZ
602953002602953903-000011     602953006002099007315SWT MALLOW CHOC 15G    0000003000+00000437+00000+0001T   00000437+0000001532          1400 SU5150               2BZ
602953003602953077-000151     602953006008766114676GIFT-WRAP C/PHANE ASSTD0000001000+00000876+00000+0001T   00000876+0000001532          1400 SU5112               2BZ
602953004602953077-000010-D   602953006001023123886CREPE-PAPER WHITE      0000001000+00000788+00000+0001T   00000788+0000001532          1400 SU5112               2BZ
602953005602953903-000211     602953006002099001238SWT GS MALLOW ICE CREAM0000001000+00001753+00000+0001T   00001753+0000001532          1400 SU5150               2BZ
602953006602953018-000108     602953006001023380265MUG NOVELTY ICON ASST  0000001000+00001753+00000+0001T   00001753+0000001532          1400 SU5515               2BZ
602953007602953565-000043     602953006003000109562NOVELTY BALL FUNNY FACE0000001000+00001753+00000+0001T   00001753+0000001532          1400 SU5745               2BZ
602953008602953903-000885     602953008690997017147SWT L/BIRD CHOC BISCUIT0000002000+00000437+00000+0001T   00000437+0000001532          1400 SU5150               2BZ
602953009602953903-000810     602953006009680772249SWT FROOTEEZ SOUR 50g  0000001000+00000876+00000+0001T   00000876+0000001532          1400 SU5150               2BZ
602953010602953077-000310     602953006001023608635GIFT-BAG 18X23CM GLOSS 0000001000+00001314+00000+0001T   00001314+0000001532          1400 SU5112               2BZ
602953011602953018-000177     602953006001023797513MUG MINI LOVE ASSTD    0000004000+00000700+00000+0001T   00000700+0000001532          1400 SU5515               2BZ
602953012602953112-116069     602953006009681820277TCS CARRIER BAG JUMBO  0000001000+00000048+00000+0001T   00000048+0000001532          1400 SU5090               2BZ
602954000602954               602954               170213NF     1400+00000+NF0000004383+0000004383+000000000+000000614+0000004990+0000000007+I20000000000+0000004990+Z
602954001602954903-005000     602954006002580020007SWT CT MALLOW FISH 120g0000001000+00001314+00000+0001T   00001314+0000001534          1400 SU5150               2BZ
602954002602954301-085008     602954006003000673933ORN OCC.LOVE TINSEL HRT0000001000+00003069+00000+0001T   00003069+0000001534          1400 SU5505               2BZ
602955000602955               602955               170213NF     1400+00000+NF0000001490+0000001490+000000000+000000209+0000001690+0000000009+I20000000000+0000001690+Z
602955001602955046-000004     602955006001023606525BATTERY 9VOLT H/POWER  0000001000+00001490+00000+0001T   00001490+0000001536          1400 SU5312               2BZ
602956000602956               602956               170213NF     1400+00000+NF0000002630+0000002630+000000000+000000369+0000002990+0000000009+I20000000000+0000002990+Z
602956001602956466-000515     602956006001023477408BALLS TENNIS BAG-OF-3  0000001000+00002630+00000+0001T   00002630+0000001540          1400 SU5785               2BZ
602957000602957               602957               170213NF     1400+00000+NF0000016747+0000016747+000000000+000002347+0000019094+0000000000+I40000019094+0000000000+Z
602957001602957077-000270     602957006003000395453GIFT-BAG PPR JMB 33X45 0000001000+00002630+00000+0001T   00002630+0000001542          1400 SU5112               2BZ
602957002602957016-006500     602957006003000618460S/JAR GLS HERMETICO    0000001000+00004385+00000+0001T   00004385+0000001542          1400 SU5300               2BZ
602957003602957016-006425     602957006001023998170S/JAR GLS CLIP W/RIBBON0000001000+00002630+00000+0001T   00002630+0000001542          1400 SU5300               2BZ
602957004602957030-000031-A   602957006003000457588PLAQUE W/WORDS ASSTD   0000001000+00004385+00000+0001T   00004823+0006471542          1400 SU5505               2BZ
602957005602957080-000124     602957006003000297733CARD & ENV VALENTINES  0000001000+00001578+00000+0001T   00001578+0000001542          1400 SU5112               2BZ
602957006602957903-000087     602957006001704000161SWT SPECKLED-EGGS 50G  0000001000+00001139+00000+0001T   00001139+0000001542          1400 SU5150               2BZ
602958000602958               602958               170213NF     1400+00000+NF0000005295+0000005295+000000000+000000742+0000006030+0000000007+I20000000000+0000006030+Z
602958001602958018-000136     602958006001023659026MUG OCC LOVE W/PLUSH   0000001000+00003507+00000+0001T   00003507+0000001543          1400 SU5515               2BZ
602958002602958903-000926     602958006914204004556SWT NOVELTY ST N/LACE  0000001000+00001753+00000+0001T   00001753+0000001543          1400 SU5150               2BZ
602958003602958112-116038     602958006009681820246TCS CARRIER BAG MIDI   0000001000+00000035+00000+0001T   00000035+0000001543          1400 SU5090               2BZ
602959000602959               602959               170213NF     1400+00000+NF0000001051+0000001051+000000000+000000148+0000001190+0000000009+I20000000000+0000001190+Z
602959001602959079-009702-D   602959006003000546671PAPER SIRIO A2 RED COL 0000001000+00001051+00000+0001T   00001051+0000001547          1400 SU5130               2BZ
602960000602960               602960               170213NF     1400+00000+NF0000004385+0000004385+000000000+000000614+0000004990+0000000009+I20000000000+0000004990+Z
602960001602960105-008005     602960006002580009484STORAGE CONTAINER 7.5L 0000001000+00004385+00000+0001T   00004385+0000001547          1400 SU5210               2BZ
602961000602961               602961               170213NF     1400+00000+NF0000001490+0000001490+000000000+000000209+0000001690+0000000009+I20000000000+0000001690+Z
602961001602961077-000299     602961006003000395576G/BAG 32x25cm LRG LOVE 0000001000+00001490+00000+0001T   00001490+0000001549          1400 SU5112               2BZ
602962000602962               602962               170213NF     1400+00000+NF0000007061+0000007061+000000000+000000990+0000008051+0000000000+I40000008051+0000000000+Z
602962001602962159-000643     602962006001023767028BACK-BRUSH ASSTD       0000001000+00003507+00000+0001T   00003507+0000001551          1400 SU5200               2BZ
602962002602962159-000648     602962006001023995582MESH-SPONGE WDN HANDLE 0000001000+00002630+00000+0001T   00002630+0000001551          1400 SU5200               2BZ
602962003602962033-006001     602962006001023135933SEWING-KIT TRAVELLING  0000001000+00000876+00000+0001T   00000876+0000001551          1400 SU5200               2BZ
602962004602962112-116069     602962006009681820277TCS CARRIER BAG JUMBO  0000001000+00000048+00000+0001T   00000048+0000001551          1400 SU5090               2BZ
602963000602963               602963               170213NF     1400+00000+NF0000002454+0000002454+000000000+000000344+0000002798+0000000000+I40000002798+0000000000+Z
602963001602963200-000092     602963006003000576739PICNIC PAPER PLATES 23c0000002000+00001227+00000+0001T   00001227+0000001553          1400 SU5214               2BZ
602964000602964               602964               170213NF     1400+00000+NF0000008771+0000008771+000000000+000001228+0000009990+0000000009+I20000000000+0000009990+Z
602964001602964006-000165     602964006001023758392BALLOONS LRG BAG-OF-1000000001000+00008771+00000+0001T   00008771+0000001554          1400 SU5131               2BZ
602965000602965               602965               170213NF     1400+00000+NF0000005028+0000005028+000000000+000000706+0000005730+0000000004+I20000000000+0000005730+Z
602965001602965362-003009     602965006003000295647HAIR BAND SET ASSORTED 0000001000+00001753+00000+0001T   00001753+0000001555          1400 SU5160               2BZ
602965002602965033-000125     602965006009654960658COMBS GENTS MINI 2PC   0000001000+00001051+00000+0001T   00001051+0000001555          1400 SU5200               2BZ
602965003602965306-000021     602965006001023169433EARBUDS 100PCE IN BAG  0000001000+00000613+00000+0001T   00000613+0000001555          1400 SU5200               2BZ
602965004602965084-070005     602965006001023627902NAIL FILES 6PCE H/GLOW 0000001000+00000876+00000+0001T   00000876+0000001555          1400 SU5200               2BZ
602965005602965112-116038     602965006009681820246TCS CARRIER BAG MIDI   0000001000+00000035+00000+0001T   00000035+0000001555          1400 SU5090               2BZ
602965006602965903-000120     602965006002099001665SWEET GS ZILLIONS 50g  0000001000+00000700+00000+0001T   00000700+0000001555          1400 SU5150               2BZ
602966000602966               602966               170213NF     1400+00000+NF0000004242+0000004242+000000000+000000594+0000004830+0000000006+I20000000000+0000004830+Z
602966001602966018-000130     602966006001023867537MUG OCC LOVE MINI+HEART0000001000+00003507+00000+0001T   00003507+0000001556          1400 SU5515               2BZ
602966002602966112-116038     602966006009681820246TCS CARRIER BAG MIDI   0000001000+00000035+00000+0001T   00000035+0000001556          1400 SU5090               2BZ
602966003602966903-000121     602966006002099001689SWT GS ZILLIONS SOURS  0000001000+00000700+00000+0001T   00000700+0000001556          1400 SU5150               2BZ
602967000602967               602967               170213NF     1400+00000+NF0000007454+0000007454+000000000+000001046+0000008500+0000000000+I40000008500+0000000000+Z
602967001602967077-000289     602967006001023901996GIFT BOX 20x25x11cm    0000001000+00001753+00000+0001T   00001753+0000001601          1400 SU5112               2BZ
602967002602967563-000318-L   602967006003000407088SERVIETTES 33cm RED    0000001000+00002192+00000+0001T   00002192+0000001601          1400 SU5214               2BZ
602967003602967077-000011-D   602967006001023808554TISSUE-WRAP WHITE 10PCE0000001000+00000876+00000+0001T   00000876+0000001601          1400 SU5112               2BZ
602967004602967080-000127     602967006003000424351VALENTINES DAY 36x24CM 0000001000+00002192+00000+0001T   00002192+0000001601          1400 SU5112               2BZ
602967005602967903-000183     602967006003000451043SWT LB HEART LOLLY     0000001000+00000393+00000+0001T   00000393+0000001601          1400 SU5150               2BZ
602967006602967112-116069     602967006009681820277TCS CARRIER BAG JUMBO  0000001000+00000048+00000+0001T   00000048+0000001601          1400 SU5090               2BZ
602968000602968               602968               170213NF     1400+00000+NF0000006139+0000006139+000000000+000000860+0000006999+0000000000+I40000006999+0000000000+Z
602968001602968368-000265     602968006001023750914PLUSH BEAR 23CM ASSTD C0000001000+00006139+00000+0001T   00006139+0000001603          1400 SU5745               2BZ
602969000602969               602969               170213NF     1400+00000+NF0000004383+0000004383+000000000+000000614+0000004997+0000000000+I40000004997+0000000000+Z
602969001602969204-000012     602969006001023888518M/HOLDR 7PC DAYS WEEK  0000001000+00003507+00000+0001T   00003507+0000001606          1400 SU5300               2BZ
602969002602969204-000019     602969006001023736499MEMO HOLDERS THERMOMETE0000001000+00000876+00000+0001T   00000876+0000001606          1400 SU5300               2BZ
602970000602970               602970               170213NF     1400+00000+NF0000003853+0000003853+000000000+000000540+0000004390+0000000003+I20000000000+0000004390+Z
602970001602970903-000070     602970006001704001106SWT TOFFEE CREAMY 35g  0000001000+00000700+00000+0001T   00000700+0000001609          1400 SU5150               2BZ
602970002602970004-071218     602970006003000443369C/PHONE STAND ASSTD-COL0000001000+00001753+00000+0001T   00001753+0000001609          1400 SU5310               2BZ
602970003602970903-000070     602970006001704001106SWT TOFFEE CREAMY 35g  0000002000+00000700+00000+0001T   00000700+0000001609          1400 SU5150               2BZ
602971000602971               602971               170213NF     1400+00000+NF0000012610+0000012610+000000000+000001769+0000014370+0000000009+I20000000000+0000014370+Z
602971001602971030-000039     602971006003000465873PLAQUE ORN SENTIMENT   0000001000+00003946+00000+0001T   00005262+0008121611          1400 SU5505               2BZ
602971002602971077-000471     602971006003000330096G-BAG DESGN MED 18X23CM0000001000+00001753+00000+0001T   00001753+0000001611          1400 SU5112               2BZ
602971003602971089-000192-A   602971006001023901774KEY-CHAIN ACRYLIC      0000002000+00000876+00000+0001T   00000876+0000001611          1400 SU5205               2BZ
602971004602971566-000200     602971006003000384174STICKER PUFFY NEON     0000001000+00000876+00000+0001T   00000876+0000001611          1400 SU5130               2BZ
602971005602971079-000282     602971006001023493309PAINT TUBS POSTER 12COL0000001000+00002630+00000+0001T   00002630+0000001611          1400 SU5130               2BZ
602971006602971566-002000     602971000721129013206STICKERS CRYSTAL ASSTD 0000001000+00000700+00000+0001T   00000700+0000001611          1400 SU5130               2BZ
602971007602971079-009700-D   602971006003000545711PAPER SIRIO A4 RED COL.0000003000+00000306+00000+0001T   00000306+0000001611          1400 SU5130               2BZ
602971008602971112-116038     602971006009681820246TCS CARRIER BAG MIDI   0000001000+00000035+00000+0001T   00000035+0000001611          1400 SU5090               2BZ
602972000602972               602972               170213NF     1400+00000+NF0000002630+0000002630+000000000+000000369+0000002990+0000000009+I20000000000+0000002990+Z
602972001602972083-000058     602972006003000400331LIGHTER JET CIGAR REFIL0000001000+00002630+00000+0001T   00002630+0000001614          1400 SU5315               2BZ
602973000602973               602973               170213NF     1400+00000+NF0000003507+0000003507+000000000+000000491+0000003990+0000000008+I20000000000+0000003990+Z
602973001602973018-005009     602973006001023725608MUG W/PLUSH-BEAR LOVE  0000001000+00003507+00000+0001T   00003507+0000001615          1400 SU5515               2BZ
602974000602974               602974               170213NF     1400+00000+NF0000004856+0000004856+000000000+000000680+0000005530+0000000006+I20000000000+0000005530+Z
602974001602974018-005009     602974006001023725608MUG W/PLUSH-BEAR LOVE  0000001000+00003507+00000+0001T   00003507+0000001618          1400 SU5515               2BZ
602974002602974077-000310     602974006001023608635GIFT-BAG 18X23CM GLOSS 0000001000+00001314+00000+0001T   00001314+0000001618          1400 SU5112               2BZ
602974003602974112-116038     602974006009681820246TCS CARRIER BAG MIDI   0000001000+00000035+00000+0001T   00000035+0000001618          1400 SU5090               2BZ
602975000602975               602975               170213NF     1400+00000+NF0000007015+0000007015+000000000+000000983+0000007990+0000000008+I20000000000+0000007990+Z
602975001602975019-000070     602975006003000297474VASE GLS CLEAR BOTTLE  0000001000+00004385+00000+0001T   00004385+0000001622          1400 SU5510               2BZ
602975002602975018-000129     602975006001023403353MUG OCC. LOVE V-SHAPE  0000001000+00002630+00000+0001T   00002630+0000001622          1400 SU5515               2BZ
602976000602976               602976               170213NF     1400+00000+NF0000003157+0000003157+000000000+000000442+0000003599+0000000000+I40000003599+0000000000+Z
602976001602976047-002041     602976006002521079170PLUG-ADAPTOR 2x16A 2x5A0000001000+00003157+00000+0001T   00003157+0000001626          1400 SU5880               2BZ
602977000602977               602977               170213NF     1400+00000+NF0000012565+0000012565+000000000+000001762+0000014327+0000000000+I40000014327+0000000000+Z
602977001602977016-006514     602977006003000295432S/JAR EMBOSSED 500ML   0000002000+00001753+00000+0001T   00001753+0000001630          1400 SU5300               2BZ
602977002602977071-003866     602977006003000590018PENCIL NOVELTY RULER   0000003000+00001314+00000+0001T   00001314+0000001630          1400 SU5130               2BZ
602977003602977071-001233     602977006001023991409ERASERS PL 12PCE ASSTD 0000001000+00000876+00000+0001T   00001314+0008151630          1400 SU5130               2BZ
602977004602977071-003866     602977006003000590018PENCIL NOVELTY RULER   0000001000+00001314+00000+0001T   00001314+0000001630          1400 SU5130               2BZ
602977005602977077-000011     602977006003000542352PAPER RAFFIA ASSTD COL 0000001000+00001753+00000+0001T   00001753+0000001630          1400 SU5112               2BZ
602977006602977112-116038     602977006009681820246TCS CARRIER BAG MIDI   0000001000+00000035+00000+0001T   00000035+0000001630          1400 SU5090               2BZ
602977007602977903-000087     602977006001704000161SWT SPECKLED-EGGS 50G  0000001000+00001139+00000+0001T   00001139+0000001630          1400 SU5150               2BZ
602978000602978               602978               170213NF     1400+00000+NF0000011397+0000011397+000000000+000001597+0000012990+0000000004+I20000000000+0000012990+Z
602978001602978004-071206     602978006003000605156USB CABLE CHARGER      0000001000+00003507+00000+0001T   00003507+0000001631          1400 SU5310               2BZ
602978002602978084-006995     602978006003000092802NAIL CLIPPER 8cm TOE   0000001000+00001753+00000+0001T   00001753+0000001631          1400 SU5200               2BZ
602978003602978106-001125     602978006003000666270WATER BOTTLE 600ml     0000001000+00002630+00000+0001T   00002630+0000001631          1400 SU5210               2BZ
602978004602978105-001310     602978006003000572731CONTAINER COLOUR SQUARE0000001000+00003507+00000+0001T   00003507+0000001631          1400 SU5210               2BZ
602979000602979               602979               170213NF     1400+00000+NF0000007364+0000007364+000000000+000001032+0000008390+0000000006+I20000000000+0000008390+Z
602979001602979006-000190     602979006003000685530BALLOONS LOVE 81x91cm  0000001000+00004385+00000+0001T   00004385+0000001640          1400 SU5131               2BZ
602979002602979089-000030     602979006003000575671K/CHAIN LOVE MTL ASSTD 0000001000+00001753+00000+0001T   00001753+0000001640          1400 SU5205               2BZ
602979003602979006-001000     602979006003000093779HELIUM BALLOON FILL    0000002000+00000613+00000+0001T   00000613+0000001640          1400 SU5131               2BZ
602980000602980               602980               170213NF     1400+00000+NF0000007050+0000007050+000000000+000000988+0000008038+0000000000+I40000008038+0000000000+Z
602980001602980301-000819     602980006001023716323ORN FAIRY SITTING ASSTD0000001000+00003069+00000+0001T   00003069+0000001644          1400 SU5505               2BZ
602980002602980301-000827     602980006001023872692ORN FAIRY MINI IN-BAG  0000001000+00003946+00000+0001T   00003946+0000001644          1400 SU5505               2BZ
602980003602980112-116038     602980006009681820246TCS CARRIER BAG MIDI   0000001000+00000035+00000+0001T   00000035+0000001644          1400 SU5090               2BZ
602981000602981               602981               170213NF     1400+00000+NF0000024514+0000024514+000000000+000003435+0000027949+0000000000+I40000027949+0000000000+Z
602981001602981301-085003     602981006003000420827ORN OCCASION LOVE KEY  0000001000+00005262+00000+0001T   00005262+0000001646          1400 SU5505               2BZ
602981002602981001-091415     602981006003000329113W/GLS OCC. LOVE 2PC 2800000001000+00008771+00000+0001T   00009648+0006471646          1400 SU5515               2BZ
602981003602981200-000031-A   602981006003000598717DISPOSABLE ROLL FOIL   0000001000+00002630+00000+0001T   00002630+0000001646          1400 SU5214               2BZ
602981004602981903-000137     602981006002099004130SWEET GS JELLY BEAN 60G0000001000+00000788+00000+0001T   00000788+0000001646          1400 SU5150               2BZ
602981005602981030-000007     602981006001023527325PLAQUE WDN B/BOARD ASST0000001000+00002630+00000+0001T   00002630+0000001646          1400 SU5505               2BZ
602981006602981104-000053     602981006003000011193BASKET PL 25X32X6cm    0000001000+00004385+00000+0001T   00004385+0000001646          1400 SU5210               2BZ
602981007602981112-116069     602981006009681820277TCS CARRIER BAG JUMBO  0000001000+00000048+00000+0001T   00000048+0000001646          1400 SU5090               2BZ
602982000602982               602982               170213NF     1400+00000+NF0000002892+0000002892+000000000+000000406+0000003290+0000000008+I20000000000+0000003290+Z
602982001602982077-000289     602982006001023901996GIFT BOX 20x25x11cm    0000001000+00001753+00000+0001T   00001753+0000001647          1400 SU5112               2BZ
602982002602982903-000087     602982006001704000161SWT SPECKLED-EGGS 50G  0000001000+00001139+00000+0001T   00001139+0000001647          1400 SU5150               2BZ
602983000602983               602983               170213NF     1400+00000+NF0000006576+0000006576+000000000+000000922+0000007490+0000000008+I20000000000+0000007490+Z
602983001602983017-000221     602983006003000238019P/ALBUM ADHESIVE 20PG  0000001000+00006139+00000+0001T   00006139+0000001702          1400 SU5510               2BZ
602983002602983080-000133-A   602983006003000647019MINI VALENTINES CARD   0000001000+00000437+00000+0001T   00000437+0000001702          1400 SU5112               2BZ
602984000602984               602984               170213NF     1400+00000+NF0000022343+0000022343+000000000+000003134+0000025477+0000000000+I40000025477+0000000000+Z
602984001602984080-000133-A   602984006003000647019MINI VALENTINES CARD   0000003000+00000437+00000+0001T   00000437+0000001705          1400 SU5112               2BZ
602984002602984077-000245     602984006001023759214GIFT-RIBBON METALLICx2 0000001000+00001227+00000+0001T   00001227+0000001705          1400 SU5112               2BZ
602984003602984018-005009     602984006001023725608MUG W/PLUSH-BEAR LOVE  0000002000+00003507+00000+0001T   00003507+0000001705          1400 SU5515               2BZ
602984004602984079-009702-D   602984006003000546671PAPER SIRIO A2 RED COL 0000001000+00001051+00000+0001T   00001051+0000001705          1400 SU5130               2BZ
602984005602984080-000139     602984006003000611690CARD & ENV MINI SET 6PC0000002000+00002192+00000+0001T   00002192+0000001705          1400 SU5112               2BZ
602984006602984006-001000     602984006003000093779HELIUM BALLOON FILL    0000012000+00000613+00000+0001T   00000613+0000001705          1400 SU5131               2BZ
602985000602985               602985               170213NF     1400+00000+NF0000007801+0000007801+000000000+000001094+0000008890+0000000005+I20000000000+0000008890+Z
602985001602985006-000190     602985006003000685530BALLOONS LOVE 81x91cm  0000001000+00004385+00000+0001T   00004385+0000001708          1400 SU5131               2BZ
602985002602985077-000289     602985006001023901996GIFT BOX 20x25x11cm    0000001000+00001753+00000+0001T   00001753+0000001708          1400 SU5112               2BZ
602985003602985006-001000     602985006003000093779HELIUM BALLOON FILL    0000002000+00000613+00000+0001T   00000613+0000001708          1400 SU5131               2BZ
602985004602985080-000133-A   602985006003000647019MINI VALENTINES CARD   0000001000+00000437+00000+0001T   00000437+0000001708          1400 SU5112               2BZ
602986000602986               602986               170213NF     1400+00000+NF0000010520+0000010520+000000000+000001474+0000011994+0000000000+I40000011994+0000000000+Z
602986001602986079-000012     602986006001023655332P/CRAYONS 12-COL LONG  0000001000+00001753+00000+0001T   00001753+0000001710          1400 SU5130               2AZ
602986002602986079-000013     602986006001023463890P/CRAYONS 24COL 18cm   0000002000+00003507+00000+0001T   00003507+0000001710          1400 SU5130               2AZ
602986003602986077-000289     602986006001023901996GIFT BOX 20x25x11cm    0000001000+00001753+00000+0001T   00001753+0000001710          1400 SU5112               2AZ
602987000602987               602987               170213NF     1400+00000+NF0000006752+0000006752+000000000+000000946+0000007698+0000000000+I40000007698+0000000000+Z
602987001602987018-019000     602987006003000557288MUG OCC. LOVE JUMBO    0000001000+00005262+00000+0001T   00005262+0000001711          1400 SU5515               2AZ
602987002602987077-000299     602987006003000395576G/BAG 32x25cm LRG LOVE 0000001000+00001490+00000+0001T   00001490+0000001711          1400 SU5112               2AZ
602988000602988               602988               170213NF     1400+00000+NF0000004822+0000004822+000000000+000000676+0000005490+0000000008+I20000000000+0000005490+Z
602988001602988007-000196     602988006002324002375FILE LEVER ARCH A4     0000001000+00002630+00000+0001T   00002630+0000001712          1400 SU5130               2AZ
602988002602988077-000918     602988006003000413690G/WRAP 700mmx2m PATTERN0000001000+00002192+00000+0001T   00002192+0000001712          1400 SU5112               2AZ
A17021300                                          10065557NFSLAVE 2                       SU53IC
A17021301                                          10114616NFSLAVE 2                       SU53IC
A17021302                                          10235913NFSLAVE 2                       SU53IC
A17021303                                          10574599NFSLAVE 2                       SU53IC
A17021304                                          11332489NFSLAVE 2                       SU53IC
C60290400                                          170213NF085-007050     08475897SLAVE 2     SU53IC0000000000+0000000000+0010000001000+
C60291500                                          170213NF077-000245     10450791SLAVE 2     SU53IC0000000000+0000000000+0030000001000+
C60293200                                          170213NF018-000136     13285004SLAVE 2     SU53IC0000000000+0000000000+0010000001000+
M17021301                              IT          NFATT. IT                                                                                         THE LAST TILL SLIP NO.602988                                                                    THANKS                                          POSTMASBURG NF
M17021302                              SHIEHAAM    NFATT. SHIEHAAM                                                                                   BANKING R4208.50                                                                                CR. CARDS R5022.14                                                                              THANKS                                          POSTMASBURG NF
M17021391                              CASH        NFSLAVE 2                       Z-REPORT No.   540TOTAL (Sales - Refunds)           9230.64       CASH TO BE BANKED                 4208.50       DEBIT CARDS                          0.00       CREDIT CARDS                      5022.14       Z-READING                         9230.64       AIRTIME DEBIT CARD SALES             0.00       AIRTIME CARD SALES                   0.00       OVERS/UNDERS                         0.00       AIRTIME CASH SALES                   0.00       GIFT CARDS                           0.00       GIFT CARD CASH SALES                 0.00       T O T A L  CASH PAYOUTS              0.00                                                                                                                                                                                                                                                                                                                                                      Z
M17021392                              CASH        NFABSENT                                                                                                                                                                                          ANNUAL LEAVE                                                                                                                                                                                    DAY OFF                                                                                                                                                                                         COMMENTS                                                                                                                                                                                                                                                                                                                                                                                       Z
Y17021300                                          NF00000000809918+000089
ZNF17021320093 SLAVE 2      SALES DATA                     NEXT INVOICE NO.  602989 0540
X NF Slave 2 First invoice 602900 170213 Last invoice 602988 170213 Next invoice 602989 Total number of records 000000401 clbackup completed 20:09:55
