618925000618925               618925               170213NG     1400+00000+NG0000001490+0000001490+000000000+000000209+0000001690+0000000009+I20000000000+0000001690+Z
618925001618925039-000108     618925006001023524034TEA-LITE CANDLES 8PCE  0000001000+00001490+00000+0001T   00001490+0000001012          1400 N30510               1AZ
618926000618926               618926               170213NG     1400+00000+NG0000019781+0000019781+000000000+000002771+0000022552+0000000000+I40000022552+0000000000+Z
618926001618926263-000509     618926006001023790620DIY ASSEMBLY VEHICLE   0000001000+00005262+00000+0001T   00005262+0000001057          1400 N30710               1AZ
618926002618926263-000800     618926006003000332281TRUCK PL CONSTRUCTION  0000001000+00011402+00000+0001T   00011402+0000001057          1400 N30710               1AZ
618926003618926361-090314     618926006003000654390PONY WITH WINGS        0000001000+00003069+00000+0001T   00003069+0000001057          1400 N30725               1AZ
618926004618926112-116069     618926006009681820277TCS CARRIER BAG JUMBO  0000001000+00000048+00000+0001T   00000048+0000001057          1400 N30090               1AZ
618927000618927               618927               170213NG     1400+00000+NG0000018996+0000018996+000000000+000002665+0000021661+0000000000+I40000021661+0000000000+Z
618927001618927079-009700-L   618927006003000546350PAPER SIRIO A4 YELLOW  0000003000+00000306+00000+0001T   00000306+0000001101          1400 N30130               1AZ
618927002618927079-009700-F   618927006003000545872PAPER SIRIO A4 TURQ COL0000003000+00000306+00000+0001T   00000306+0000001101          1400 N30130               1AZ
618927003618927079-009700-G   618927006003000545957PAPER SIRIO A4 LIME COL0000003000+00000306+00000+0001T   00000306+0000001101          1400 N30130               1AZ
618927004618927079-009700-B   618927006003000547661PAPER SIRIO A4 WHITE   0000010000+00000306+00000+0001T   00000306+0000001101          1400 N30130               1AZ
618927005618927079-009702-G   618927008427973060787PAPER SIRIO A2 FUSHIA  0000001000+00001051+00000+0001T   00001051+0000001101          1400 N30130               1AZ
618927006618927006-000124     618927006003000625888BALLOONS 10PC MIX COL  0000001000+00001753+00000+0001T   00001753+0000001101          1400 N30131               1AZ
618927007618927006-000111     618927006003000519385BALLOONS LARGE 12PCE   0000001000+00002630+00000+0001T   00002630+0000001101          1400 N30131               1AZ
618927008618927564-000012     618927006001023130075BUBBLE BOTTLE MAGIC    0000011000+00000700+00000+0001T   00000700+0000001101          1400 N30131               1AZ
618927009618927112-116069     618927006009681820277TCS CARRIER BAG JUMBO  0000001000+00000048+00000+0001T   00000048+0000001101          1400 N30090               1AZ
618928000618928               618928               170213NG     1400+00000+NG0000022804+0000022804+000000000+000003193+0000025997+0000000000+I40000025997+0000000000+Z
618928001618928072-020244     618928000694202207840PET BED COTTON 90x70cm 0000001000+00017542+00000+0001T   00017542+0000001102          1400 N30870               1AZ
618928002618928107-004510     618928006002580008968STEP-STOOL PL          0000001000+00005262+00000+0001T   00005262+0000001102          1400 N30210               1AZ
618929000618929               618929               170213NG     1400+00000+NG0000005259+0000005259+000000000+000000738+0000005990+0000000007+I20000000000+0000005990+Z
618929001618929903-000211     618929006002099001238SWT GS MALLOW ICE CREAM0000001000+00001753+00000+0001T   00001753+0000001102          1400 N30150               1AZ
618929002618929006-000120     618929006001023346889BALLOONS 10PC MIX COL  0000001000+00001753+00000+0001T   00001753+0000001102          1400 N30131               1AZ
618929003618929071-081103     618929006003000197002GLUE STICKS LIQUID 3PCE0000001000+00001753+00000+0001T   00001753+0000001102          1400 N30130               1AZ
618930000618930               618930               170213NG     1400+00000+NG0000033716+0000033716+000000000+000004727+0000038443+0000000000+I40000038443+0000000000+Z
618930001618930072-020285     618930006003000451364PET CAT TOY BALLS PK-4 0000001000+00002630+00000+0001T   00002630+0000001110          1400 N30870               1AZ
618930002618930072-000350     618930006003000304882PET CAT TOY PLUSH W/BEL0000001000+00003069+00000+0001T   00003069+0000001110          1400 N30870               1AZ
618930003618930072-020295     618930006003000451609PET CAT TOY MOUSE W/ZIP0000001000+00002630+00000+0001T   00002630+0000001110          1400 N30870               1AZ
618930004618930072-020296     618930006005398061040PET CATNIP MARLTONS    0000001000+00002016+00000+0001T   00002016+0000001110          1400 N30870               1AZ
618930005618930301-085001     618930006003000297610ORN WATERBALL LOVE ASST0000001000+00004823+00000+0001T   00004823+0000001110          1400 N30505               1AZ
618930006618930051-002402     618930006001023518347TRIGGER-SPRAYER  500ml 0000001000+00001753+00000+0001T   00001753+0000001110          1400 N30820               1AZ
618930007618930028-000796-A   618930006001023897152SKEWERS BAMBOO 100P 4mm0000001000+00001753+00000+0001T   00001753+0000001110          1400 N30305               1AZ
618930008618930028-000796     618930006001023812094SKEWERS 25cm 50PCE 4mm 0000002000+00001490+00000+0001T   00001490+0000001110          1400 N30305               1AZ
618930009618930072-020297-A   618930006003000603947PET CAT SCRATCH PAD    0000001000+00008771+00000+0001T   00008771+0000001110          1400 N30870               1AZ
618930010618930112-116069     618930006009681820277TCS CARRIER BAG JUMBO  0000001000+00000048+00000+0001T   00000048+0000001110          1400 N30090               1AZ
618930011618930077-000452     618930006003000284986G/BAG METALLIC MED EMB 0000001000+00001490+00000+0001T   00001490+0000001110          1400 N30112               1AZ
618930012618930903-000619     618930006003000672455SWT LOLLY STR/BRRY 140G0000001000+00001753+00000+0001T   00001753+0000001110          1400 N30150               1AZ
618931000618931               618931               170213NG     1400+00000+NG0000001752+0000001752+000000000+000000246+0000001990+0000000008+I20000000000+0000001990+Z
618931001618931077-000408     618931006003000145218G/BAG PP 15X21X7CM     0000001000+00000876+00000+0001T   00000876+0000001110          1400 N30112               1AZ
618931002618931077-000151     618931006008766114676GIFT-WRAP C/PHANE ASSTD0000001000+00000876+00000+0001T   00000876+0000001110          1400 N30112               1AZ
618932000618932               618932               170213NG     1400+00000+NG0000008819+0000008819+000000000+000001235+0000010050+0000000004+I20000000000+0000010050+Z
618932001618932006-000165     618932006001023758392BALLOONS LRG BAG-OF-1000000001000+00008771+00000+0001T   00008771+0000001116          1400 N30131               1AZ
618932002618932112-116069     618932006009681820277TCS CARRIER BAG JUMBO  0000001000+00000048+00000+0001T   00000048+0000001116          1400 N30090               1AZ
618933000618933               618933               170213NG     1400+00000+NG0000002192+0000002192+000000000+000000307+0000002490+0000000009+I20000000000+0000002490+Z
618933001618933563-000318-L   618933006003000407088SERVIETTES 33cm RED    0000001000+00002192+00000+0001T   00002192+0000001117          1400 N30214               1AZ
618934000618934               618934               170213NG     1400+00000+NG0000002630+0000002630+000000000+000000369+0000002990+0000000009+I20000000000+0000002990+Z
618934001618934251-000003     618934006003000266159TAPE D/S 18x300mm V/PCK0000001000+00002630+00000+0001T   00002630+0000001122          1400 N30810               1AZ
618935000618935               618935               170213NG     1400+00000+NG0000003902+0000003902+000000000+000000547+0000004440+0000000009+I20000000000+0000004440+Z
618935001618935077-000310     618935006001023608635GIFT-BAG 18X23CM GLOSS 0000002000+00001314+00000+0001T   00001314+0000001128          1400 N30112               1AZ
618935002618935304-001011     618935006001023806727FLWR ROSE RED W/BEAR   0000002000+00000613+00000+0001T   00000788+0006471128          1400 N30510               1AZ
618935003618935112-116069     618935006009681820277TCS CARRIER BAG JUMBO  0000001000+00000048+00000+0001T   00000048+0000001128          1400 N30090               1AZ
618936000618936               618936               170213NG     1400+00000+NG0000017542-0000017542-000000000+000002456-0000020000-0000000002+I20000000000+0000020000-Z
618936001618936031-000924     618936006001023669964P/FRAME COLLAGE PL     0000001000-00008771+00000+0001T   00008771+0000001230          1400 N305102IC            1 Z
618936002618936031-086302-C   618936006001023910332P/FRAME COLL. PL 3-HOLE0000001000-00008771+00000+0001T   00008771+0000001230          1400 N305102IC            1 Z
618937000618937               618937               170213NG     1400+00000+NG0000010081+0000010081+000000000+000001414+0000011495+0000000000+I40000011495+0000000000+Z
618937001618937200-003024     618937006001023657299REFUSE BAGS 20PCE BLACK0000002000+00001753+00000+0001T   00001753+0000001233          1400 N30214               1AZ
618937002618937306-000989     618937006003000559954FIRSTAID PLASTER 30PC  0000001000+00001753+00000+0001T   00001753+0000001233          1400 N30200               1AZ
618937003618937079-014152     618937006003000253074ART+CRAFT PK50 ASSTD   0000001000+00003069+00000+0001T   00003069+0000001233          1400 N30130               1AZ
618937004618937071-000305     618937006001023715340RULER/STENCILS         0000001000+00001753+00000+0001T   00001753+0000001233          1400 N30130               1AZ
618938000618938               618938               170213NG     1400+00000+NG0000006010+0000006010+000000000+000000842+0000006850+0000000002+I20000000000+0000006850+Z
618938001618938077-000380     618938006003000247585GIFT-BAG 33X45CM S/COL 0000001000+00002455+00000+0001T   00002455+0000001234          1400 N30112               1AZ
618938002618938018-005009     618938006001023725608MUG W/PLUSH-BEAR LOVE  0000001000+00003507+00000+0001T   00003507+0000001234          1400 N30515               1AZ
618938003618938112-116069     618938006009681820277TCS CARRIER BAG JUMBO  0000001000+00000048+00000+0001T   00000048+0000001234          1400 N30090               1AZ
618939000618939               618939               170213NG     1400+00000+NG0000007940+0000007940+000000000+000001113+0000009053+0000000000+I40000009053+0000000000+Z
618939001618939049-001832     618939006003000019359DOORMAT RUBBER-PIN 6mm 0000001000+00005262+00000+0001T   00005262+0000001235          1400 N30510               1AZ
618939002618939204-000007     618939006003000427062M/HOLDER MAGN POLY LOVE0000001000+00002630+00000+0001T   00003507+0008131235          1400 N30300               1AZ
618939003618939112-116069     618939006009681820277TCS CARRIER BAG JUMBO  0000001000+00000048+00000+0001T   00000048+0000001235          1400 N30090               1AZ
618940000618940               618940               170213NG     1400+00000+NG0000002502+0000002502+000000000+000000351+0000002853+0000000000+I40000002853+0000000000+Z
618940001618940018-000127     618940006001023380289MUG OCC STRAIGHT LOVE  0000001000+00001578+00000+0001T   00001753+0006471239          1400 N30515               1AZ
618940002618940903-003075     618940003800065783125SWT CHOC FAFL WAFER 52g0000001000+00000876+00000+0001T   00000876+0000001239          1400 N30150               1AZ
618940003618940112-116069     618940006009681820277TCS CARRIER BAG JUMBO  0000001000+00000048+00000+0001T   00000048+0000001239          1400 N30090               1AZ
618941000618941               618941               170213NG     1400+00000+NG0000041878+0000041878+000000000+000005867+0000047740+0000000005+I20000000000+0000047740+Z
618941001618941112-116069     618941006009681820277TCS CARRIER BAG JUMBO  0000001000+00000048+00000+0001T   00000048+0000001243          1400 N30090               1AZ
618941002618941174-000305     618941006003000105502TRAVEL NECK-PILLOW     0000001000+00007016+00000+0001T   00007016+0000001243          1400 N30205               1AZ
618941003618941040-000503     618941006003000288632C/HOLDER FLOWER 27CM   0000001000+00011402+00000+0001T   00011402+0000001243          1400 N30510               1AZ
618941004618941002-000652     618941006001023553188M/SPOON WDN 3PC H/HOUSE0000001000+00003069+00000+0001T   00003069+0000001243          1400 N30300               1AZ
618941005618941084-000889     618941006003000293674NAIL FILE EMERY 18CM   0000001000+00001753+00000+0001T   00001753+0000001243          1400 N30200               1AZ
618941006618941039-001023     618941006003000466337CANDLE TEA-LITE METALIC0000001000+00001753+00000+0001T   00001753+0000001243          1400 N30510               1AZ
618941007618941039-000108     618941006001023524034TEA-LITE CANDLES 8PCE  0000001000+00001490+00000+0001T   00001490+0000001243          1400 N30510               1AZ
618941008618941002-000740     618941006001023763945GRATER 4-WAY WHITE     0000001000+00002192+00000+0001T   00002192+0000001243          1400 N30300               1AZ
618941009618941019-000083     618941006001023797209V/GLASS CUT 3-ASST 20CM0000001000+00004385+00000+0001T   00006139+0008171243          1400 N30510               1AZ
618941010618941039-080944     618941006001023758897C/PILLAR RND WHT 12X7CM0000002000+00004385+00000+0001T   00004385+0000001243          1400 N30510               1AZ
618942000618942               618942               170213NG     1400+00000+NG0000007237+0000007237+000000000+000001015+0000008250+0000000002+I20000000000+0000008250+Z
618942001618942056-005748     618942006003000491797CAR AIR-FRESH HATS ASST0000001000+00002630+00000+0001T   00002630+0000001246          1400 N30860               1AZ
618942002618942089-000220     618942006003000677368KEY CHAIN+PEN+KNIFE    0000001000+00003069+00000+0001T   00003069+0000001246          1400 N30205               1AZ
618942003618942112-116069     618942006009681820277TCS CARRIER BAG JUMBO  0000001000+00000048+00000+0001T   00000048+0000001246          1400 N30090               1AZ
618942004618942077-000452     618942006003000284986G/BAG METALLIC MED EMB 0000001000+00001490+00000+0001T   00001490+0000001246          1400 N30112               1AZ
618943000618943               618943               170213NG     1400+00000+NG0000005961+0000005961+000000000+000000835+0000006790+0000000006+I20000000000+0000006790+Z
618943001618943018-000177     618943006001023797513MUG MINI LOVE ASSTD    0000001000+00000700+00000+0001T   00000700+0000001246          1400 N30515               1AZ
618943002618943089-000220     618943006003000677368KEY CHAIN+PEN+KNIFE    0000001000+00003069+00000+0001T   00003069+0000001246          1400 N30205               1AZ
618943003618943046-000012-A   618943006003000208296BATTERIES H/POWER SZ:AA0000001000+00002192+00000+0001T   00002192+0000001246          1400 N30312               1AZ
618944000618944               618944               170213NG     1400+00000+NG0000005835+0000005835+000000000+000000818+0000006650+0000000003+I20000000000+0000006650+Z
618944001618944031-000001-A   618944006003000246908P/FRAME GLS LOVE 9X13cm0000001000+00004385+00000+0001T   00004385+0000001247          1400 N30510               1AZ
618944002618944304-001204     618944006001023737984FLOWER OCC. TEDDY/ROSES0000001000+00001402+00000+0001T   00001490+0006471247          1400 N30510               1AZ
618944003618944112-116069     618944006009681820277TCS CARRIER BAG JUMBO  0000001000+00000048+00000+0001T   00000048+0000001247          1400 N30090               1AZ
618945000618945               618945               170213NG     1400+00000+NG0000008331+0000008331+000000000+000001167+0000009498+0000000000+I40000009498+0000000000+Z
618945001618945018-000170     618945006001023775528MUG OCC. LOVE 2PC MINI 0000001000+00002192+00000+0001T   00002192+0000001255          1400 N30515               1AZ
618945002618945368-000701     618945006003000477432PLUSH DOG              0000001000+00006139+00000+0001T   00006139+0000001255          1400 N30745               1AZ
618946000618946               618946               170213NG     1400+00000+NG0000002192+0000002192+000000000+000000307+0000002490+0000000009+I20000000000+0000002490+Z
618946001618946080-000127     618946006003000424351VALENTINES DAY 36x24CM 0000001000+00002192+00000+0001T   00002192+0000001257          1400 N30112               1AZ
618947000618947               618947               170213NG     1400+00000+NG0000002102+0000002102+000000000+000000295+0000002390+0000000007+I20000000000+0000002390+Z
618947001618947077-000151     618947006008766114676GIFT-WRAP C/PHANE ASSTD0000001000+00000876+00000+0001T   00000876+0000001259          1400 N30112               1AZ
618947002618947304-001011     618947006001023806727FLWR ROSE RED W/BEAR   0000002000+00000613+00000+0001T   00000788+0006471259          1400 N30510               1AZ
618948000618948               618948               170213NG     1400+00000+NG0000009644+0000009644+000000000+000001351+0000010995+0000000000+I40000010995+0000000000+Z
618948001618948903-003080     618948005907029004673SWT SNACK STIX CHOC 50g0000001000+00000876+00000+0001T   00000876+0000001301          1400 N30150               1AZ
618948002618948567-010395     618948006002242053466GENERIC AFRIKAANS READE0000001000+00002192+00000+0001T   00002192+0000001301          1400 N30757               1AZ
618948003618948567-010394     618948006002242053459GENERIC AFRIKAANS READE0000001000+00002192+00000+0001T   00002192+0000001301          1400 N30757               1AZ
618948004618948567-010395     618948006002242053466GENERIC AFRIKAANS READE0000002000+00002192+00000+0001T   00002192+0000001301          1400 N30757               1AZ
618949000618949               618949               170213NG     1400+00000+NG0000015299+0000015299+000000000+000002145+0000017444+0000000000+I40000017444+0000000000+Z
618949001618949903-000123     618949006925925909280SWEET GS MINI MALLOWS  0000001000+00000876+00000+0001T   00000876+0000001302          1400 N30150               1AZ
618949002618949105-007015     618949006001023168221CONTAINER PL ROUND     0000001000+00003507+00000+0001T   00003507+0000001302          1400 N30210               1AZ
618949003618949903-005000     618949006002580020007SWT CT MALLOW FISH 120g0000001000+00001314+00000+0001T   00001314+0000001302          1400 N30150               1AZ
618949004618949566-001234     618949006003000217793STICKERS LASER ASSTD   0000001000+00001578+00000+0001T   00001578+0000001302          1400 N30130               1AZ
618949005618949566-000200     618949006003000384174STICKER PUFFY NEON     0000001000+00000876+00000+0001T   00000876+0000001302          1400 N30130               1AZ
618949006618949903-000095     618949006001704011495SWT SPECKLED-EGGS 100G 0000001000+00002104+00000+0001T   00002104+0000001302          1400 N30150               1AZ
618949007618949903-000295     618949006001704002899SWT MS FRUITY RASCALS  0000001000+00000876+00000+0001T   00000876+0000001302          1400 N30150               1AZ
618949008618949903-000520     618949006001704009898SWT GUMMY MINI SOUR 60g0000001000+00000876+00000+0001T   00000876+0000001302          1400 N30150               1AZ
618949009618949150-000770     618949006005387000128UTILITY BOX MEGA       0000001000+00003244+00000+0001T   00003244+0000001302          1400 N30810               1AZ
618949010618949112-116069     618949006009681820277TCS CARRIER BAG JUMBO  0000001000+00000048+00000+0001T   00000048+0000001302          1400 N30090               1AZ
618950000618950               618950               170213NG     1400+00000+NG0000003506+0000003506+000000000+000000492+0000003990+0000000008+I20000000000+0000003990+Z
618950001618950084-078824     618950006003000385676NAIL FILES EMERY 24PC  0000001000+00001753+00000+0001T   00001753+0000001303          1400 N30200               1AZ
618950002618950084-006996     618950006003000092833NAIL CLIPPER 6cm       0000001000+00001753+00000+0001T   00001753+0000001303          1400 N30200               1AZ
618951000618951               618951               170213NG     1400+00000+NG0000006620+0000006620+000000000+000000928+0000007540+0000000008+I20000000000+0000007540+Z
618951001618951018-005009     618951006001023725608MUG W/PLUSH-BEAR LOVE  0000001000+00003507+00000+0001T   00003507+0000001304          1400 N30515               1AZ
618951002618951304-001011     618951006001023806727FLWR ROSE RED W/BEAR   0000005000+00000613+00000+0001T   00000788+0006471304          1400 N30510               1AZ
618951003618951112-116069     618951006009681820277TCS CARRIER BAG JUMBO  0000001000+00000048+00000+0001T   00000048+0000001304          1400 N30090               1AZ
618952000618952               618952               170213NG     1400+00000+NG0000000350+0000000350+000000000+000000049+0000000390+0000000009+I20000000000+0000000390+Z
618952001618952002-000879     618952006001023770004STRAINER TEA 7cm H/H   0000001000+00000350+00000+0001T   00000350+0000001305          1400 N30300               1AZ
618953000618953               618953               170213NG     1400+00000+NG0000004385+0000004385+000000000+000000614+0000004999+0000000000+I40000004999+0000000000+Z
618953001618953261-003342     618953006001023484895GUN RIFLE ACTION-TEAM  0000001000+00004385+00000+0001T   00004385+0000001308          1400 N30710               1AZ
618954000618954               618954               170213NG     1400+00000+NG0000002496+0000002496+000000000+000000351+0000002840+0000000007+I20000000000+0000002840+Z
618954001618954071-001028     618954008887013700385MARKER WHT-RND YM-500  0000001000+00001578+00000+0001T   00001578+0000001311          1400 N30130               1AZ
618954002618954071-000212     618954006009608641190CHALK WHITE 12PCE      0000001000+00000437+00000+0001T   00000437+0000001311          1400 N30130               1AZ
618954003618954071-000012     618954006001177101006CHALK COLOUR 12PCE     0000001000+00000481+00000+0001T   00000481+0000001311          1400 N30130               1AZ
618955000618955               618955               170213NG     1400+00000+NG0000001490+0000001490+000000000+000000209+0000001690+0000000009+I20000000000+0000001690+Z
618955001618955150-001234-2   618955005019190010022PLATE-HANGER P/C SIZE-20000001000+00001490+00000+0001T   00001490+0000001313          1400 N30810               1AZ
618956000618956               618956               170213NG     1400+00000+NG0000005262+0000005262+000000000+000000737+0000005999+0000000000+I40000005999+0000000000+Z
618956001618956006-000345     618956006003000677726GLOW STICKS 50x19.5cm  0000001000+00005262+00000+0001T   00005262+0000001318          1400 N30131               1AZ
618957000618957               618957               170213NG     1400+00000+NG0000008466+0000008466+000000000+000001186+0000009652+0000000000+I40000009652+0000000000+Z
618957001618957028-000401     618957006001023120632PLATE-HOLDERS 4PCE  H&L0000001000+00005262+00000+0001T   00005262+0000001325          1400 N30305               1AZ
618957002618957266-010101     618957006001023331885MARBLES 16mm 90 PC     0000002000+00001578+00000+0001T   00001578+0000001325          1400 N30710               1AZ
618957003618957112-116069     618957006009681820277TCS CARRIER BAG JUMBO  0000001000+00000048+00000+0001T   00000048+0000001325          1400 N30090               1AZ
618958000618958               618958               170213NG     1400+00000+NG0000020212+0000020212+000000000+000002834+0000023046+0000000000+I40000023046+0000000000+Z
618958001618958077-000115-B   618958006003000181025GIFT-WRAP PPR 700MMX2M 0000004000+00002630+00000+0001T   00002630+0000001329          1400 N30112               1AZ
618958002618958006-006018     618958006001023735256PARTY-SPRAY HAIR ASSORT0000001000+00002630+00000+0001T   00002630+0000001329          1400 N30131               1AZ
618958003618958079-006498     618958006001023836151GLITTER SET 10PCE      0000001000+00003507+00000+0001T   00003507+0000001329          1400 N30130               1AZ
618958004618958079-013097     618958006003000081639ART+CRAFT FELT ANIMALS 0000001000+00003507+00000+0001T   00003507+0000001329          1400 N30130               1AZ
618958005618958112-116069     618958006009681820277TCS CARRIER BAG JUMBO  0000001000+00000048+00000+0001T   00000048+0000001329          1400 N30090               1AZ
618959000618959               618959               170213NG     1400+00000+NG0000001927+0000001927+000000000+000000271+0000002190+0000000008+I20000000000+0000002190+Z
618959001618959077-000010-Z   618959006001023157874CREPE-PAPER BLK/ORG/PUR0000001000+00000788+00000+0001T   00000788+0000001329          1400 N30112               1AZ
618959002618959903-000087     618959006001704000161SWT SPECKLED-EGGS 50G  0000001000+00001139+00000+0001T   00001139+0000001329          1400 N30150               1AZ
618960000618960               618960               170213NG     1400+00000+NG0000002366+0000002366+000000000+000000332+0000002690+0000000008+I20000000000+0000002690+Z
618960001618960051-002402     618960006001023518347TRIGGER-SPRAYER  500ml 0000001000+00001753+00000+0001T   00001753+0000001333          1400 N308202IC            1AZ
618960002618960007-000555     618960006001023848239MEMO-PAD MINI LOVE     0000001000+00000613+00000+0001T   00000613+0000001333          1400 N30130               1AZ
618961000618961               618961               170213NG     1400+00000+NG0000001753+0000001753+000000000+000000246+0000001990+0000000009+I20000000000+0000001990+Z
618961001618961080-000113     618961006003000237449CARD&ENVLPE - LOVE     0000001000+00001753+00000+0001T   00001753+0000001606          1400 N30112               1AZ
618962000618962               618962               170213NG     1400+00000+NG0000016001+0000016001+000000000+000002244+0000018240+0000000005+I20000000000+0000018240+Z
618962001618962903-000898     618962006922516801503SWT POPPING CANDY      0000001000+00001139+00000+0001T   00001139+0000001609          1400 N30150               1AZ
618962002618962006-000166-D   618962006003000516490BALLOONS LRG 6PC RED   0000001000+00001314+00000+0001T   00001314+0000001609          1400 N30131               1AZ
618962003618962366-006104     618962006003000616930DRESS UP FACE PAINT    0000001000+00001753+00000+0001T   00001753+0000001609          1400 N30131               1AZ
618962004618962903-000810     618962006009680772249SWT FROOTEEZ SOUR 50g  0000001000+00000876+00000+0001T   00000876+0000001609          1400 N30150               1AZ
618962005618962031-000844     618962006001023851789P/FRAME WDN WORDS 2ASS 0000001000+00003507+00000+0001T   00003507+0000001609          1400 N30510               1AZ
618962006618962018-019000     618962006003000557288MUG OCC. LOVE JUMBO    0000001000+00005262+00000+0001T   00005262+0000001609          1400 N30515               1AZ
618962007618962079-009702-D   618962008427973059354PAPER SIRIO A2 RED COL 0000002000+00001051+00000+0001T   00001051+0000001609          1400 N30130               1AZ
618962008618962112-116069     618962006009681820277TCS CARRIER BAG JUMBO  0000001000+00000048+00000+0001T   00000048+0000001609          1400 N30090               1AZ
618963000618963               618963               170213NG     1400+00000+NG0000000700+0000000700+000000000+000000098+0000000790+0000000008+I20000000000+0000000790+Z
618963001618963018-000177     618963006001023797513MUG MINI LOVE ASSTD    0000001000+00000700+00000+0001T   00000700+0000001610          1400 N30515               1AZ
618964000618964               618964               170213NG     1400+00000+NG0000008770+0000008770+000000000+000001228+0000009998+0000000000+I40000009998+0000000000+Z
618964001618964036-000405     618964006001023630247CLOTHES DRYER PL 18-PEG0000002000+00004385+00000+0001T   00004385+0000001611          1400 N30212               1AZ
618965000618965               618965               170213NG     1400+00000+NG0000006139+0000006139+000000000+000000860+0000006999+0000000000+I40000006999+0000000000+Z
618965001618965304-001124     618965006003000534289FLOWER BUNCH ROSE/MUM  0000001000+00006139+00000+0001T   00006139+0000001615          1400 N30510               1AZ
618966000618966               618966               170213NG     1400+00000+NG0000001490+0000001490+000000000+000000209+0000001690+0000000009+I20000000000+0000001690+Z
618966001618966077-000299     618966006003000395576G/BAG 32x25cm LRG LOVE 0000001000+00001490+00000+0001T   00001490+0000001622          1400 N30112               1AZ
618967000618967               618967               170213NG     1400+00000+NG0000011884+0000011884+000000000+000001666+0000013550+0000000000+I40000013550+0000000000+Z
618967001618967033-000642     618967006001023681201H/BRUSH PADDLE 24cm    0000001000+00003069+00000+0001T   00003069+0000001625          1400 N30200               1AZ
618967002618967306-000023     618967006001023606976COTTON-WOOL-BALLS 50PCE0000001000+00000876+00000+0001T   00000876+0000001625          1400 N30200               1AZ
618967003618967072-000232     618967006003000236060DOG-COL REFLCTV 35-51cm0000001000+00001753+00000+0001T   00001753+0000001625          1400 N30870               1AZ
618967004618967200-000306     618967006003000358144TOAST BAGS 2-PACK      0000001000+00003069+00000+0001T   00003069+0000001625          1400 N30214               1AZ
618967005618967024-000031     618967006003000295760MIXING BOWL PL W/HANDLE0000001000+00003069+00000+0001T   00003069+0000001625          1400 N30300               1AZ
618967006618967112-116069     618967006009681820277TCS CARRIER BAG JUMBO  0000001000+00000048+00000+0001T   00000048+0000001625          1400 N30090               1AZ
618968000618968               618968               170213NG     1400+00000+NG0000011091+0000011091+000000000+000001556+0000012640+0000000007+I20000000000+0000012640+Z
618968001618968079-009702-A   618968008427973059408PAPER SIRIO A2 BLACK   0000002000+00001051+00000+0001T   00001051+0000001628          1400 N30130               1AZ
618968002618968079-009702-D   618968008427973059354PAPER SIRIO A2 RED COL 0000001000+00001051+00000+0001T   00001051+0000001628          1400 N30130               1AZ
618968003618968006-000167-F   618968006003000517411BALLOONS SILV METALLIC 0000001000+00001314+00000+0001T   00001314+0000001628          1400 N30131               1AZ
618968004618968563-000318-L   618968006003000407088SERVIETTES 33cm RED    0000003000+00002192+00000+0001T   00002192+0000001628          1400 N30214               1AZ
618968005618968112-116069     618968006009681820277TCS CARRIER BAG JUMBO  0000001000+00000048+00000+0001T   00000048+0000001628          1400 N30090               1AZ
618969000618969               618969               170213NG     1400+00000+NG0000009031+0000009031+000000000+000001265+0000010296+0000000000+I40000010296+0000000000+Z
618969001618969018-030000     618969006003000421060MUG OCCASIONS LOVE 2PCE0000001000+00004385+00000+0001T   00004385+0000001630          1400 N30515               1AZ
618969002618969077-000303     618969006001023593757GIFT-BAG PAPER MED     0000002000+00001578+00000+0001T   00001578+0000001630          1400 N30112               1AZ
618969003618969077-000299     618969006003000395576G/BAG 32x25cm LRG LOVE 0000001000+00001490+00000+0001T   00001490+0000001630          1400 N30112               1AZ
618970000618970               618970               170213NG     1400+00000+NG0000018288+0000018288+000000000+000002561+0000020849+0000000000+I40000020849+0000000000+Z
618970001618970077-000310     618970006001023608635GIFT-BAG 18X23CM GLOSS 0000001000+00001314+00000+0001T   00001314+0000001632          1400 N30112               1AZ
618970002618970077-000315     618970006003000181186GIFT-BAG 20x28cm MATT  0000001000+00001578+00000+0001T   00001578+0000001632          1400 N30112               1AZ
618970003618970112-116069     618970006009681820277TCS CARRIER BAG JUMBO  0000001000+00000048+00000+0001T   00000048+0000001632          1400 N30090               1AZ
618970004618970001-000175     618970006001023788108B/MUG GLS LOVE 380ML   0000001000+00004385+00000+0001T   00004385+0000001632          1400 N30515               1AZ
618970005618970001-091415     618970006003000329113W/GLS OCC. LOVE 2PC 2800000001000+00008771+00000+0001T   00009648+0006471632          1400 N30515               1AZ
618970006618970080-000127     618970006003000424351VALENTINES DAY 36x24CM 0000001000+00002192+00000+0001T   00002192+0000001632          1400 N30112               1AZ
618971000618971               618971               170213NG     1400+00000+NG0000007893+0000007893+000000000+000001106+0000008999+0000000000+I40000008999+0000000000+Z
618971001618971031-006544     618971006003000279401P/FRAME WDN DISTRESSED 0000001000+00007893+00000+0001T   00007893+0000001634          1400 N30510               1AZ
618972000618972               618972               170213NG     1400+00000+NG0000005921+0000005921+000000000+000000830+0000006751+0000000000+I40000006751+0000000000+Z
618972001618972018-000136     618972006001023659026MUG OCC LOVE W/PLUSH   0000001000+00003507+00000+0001T   00003507+0000001635          1400 N30515               1AZ
618972002618972077-000151     618972006008766114676GIFT-WRAP C/PHANE ASSTD0000001000+00000876+00000+0001T   00000876+0000001635          1400 N30112               1AZ
618972003618972077-000299     618972006003000395576G/BAG 32x25cm LRG LOVE 0000001000+00001490+00000+0001T   00001490+0000001635          1400 N30112               1AZ
618972004618972112-116069     618972006009681820277TCS CARRIER BAG JUMBO  0000001000+00000048+00000+0001T   00000048+0000001635          1400 N30090               1AZ
618973000618973               618973               170213NG     1400+00000+NG0000003069+0000003069+000000000+000000430+0000003490+0000000009+I20000000000+0000003490+Z
618973001618973366-000256     618973006001023918406DRESS UP TIARA&EARRINGS0000001000+00003069+00000+0001T   00003069+0000001637          1400 N30131               1AZ
618974000618974               618974               170213NG     1400+00000+NG0000014079+0000014079+000000000+000001972+0000016050+0000000001+I20000000000+0000016050+Z
618974001618974301-085004     618974006003000420469ORN LOVE PLAQUE 21X10CM0000001000+00003507+00000+0001T   00003946+0006471646          1400 N30505               1AZ
618974002618974077-000299-A   618974006003000670888GIFT-BAG PAPER JMB LOVE0000001000+00001753+00000+0001T   00001753+0000001646          1400 N30112               1AZ
618974003618974001-091415     618974006003000329113W/GLS OCC. LOVE 2PC 2800000001000+00008771+00000+0001T   00009648+0006471646          1400 N30515               1AZ
618974004618974112-116069     618974006009681820277TCS CARRIER BAG JUMBO  0000001000+00000048+00000+0001T   00000048+0000001646          1400 N30090               1AZ
618975000618975               618975               170213NG     1400+00000+NG0000002277+0000002277+000000000+000000320+0000002590+0000000007+I20000000000+0000002590+Z
618975001618975903-002853     618975000000087108019MENTOS ROLL MINT       0000001000+00001051+00000+0001T   00001051+0000001646          1400 N30150               1AZ
618975002618975006-001000     618975006003000093779HELIUM BALLOON FILL    0000002000+00000613+00000+0001T   00000613+0000001646          1400 N30131               1AZ
618976000618976               618976               170213NG     1400+00000+NG0000001490+0000001490+000000000+000000209+0000001690+0000000009+I20000000000+0000001690+Z
618976001618976077-000299     618976006003000395576G/BAG 32x25cm LRG LOVE 0000001000+00001490+00000+0001T   00001490+0000001647          1400 N30112               1AZ
618977000618977               618977               170213NG     1400+00000+NG0000003555+0000003555+000000000+000000498+0000004050+0000000003+I20000000000+0000004050+Z
618977001618977079-013097     618977006003000081639ART+CRAFT FELT ANIMALS 0000001000+00003507+00000+0001T   00003507+0000001648          1400 N30130               1AZ
618977002618977112-116069     618977006009681820277TCS CARRIER BAG JUMBO  0000001000+00000048+00000+0001T   00000048+0000001648          1400 N30090               1AZ
618978000618978               618978               170213NG     1400+00000+NG0000027236+0000027236+000000000+000003820+0000031050+0000000006+I20000000000+0000031050+Z
618978001618978006-000167-C   618978006003000516971BALLOONS PINK METALLIC 0000003000+00001314+00000+0001T   00001314+0000001649          1400 N30131               1AZ
618978002618978006-001000     618978006003000093779HELIUM BALLOON FILL    0000038000+00000613+00000+0001T   00000613+0000001649          1400 N30131               1AZ
618979000618979               618979               170213NG     1400+00000+NG0000001801+0000001801+000000000+000000253+0000002050+0000000004+I20000000000+0000002050+Z
618979001618979012-000001     618979006003000331048MICRO PLATE-COVER 26X6 0000001000+00001753+00000+0001T   00002192+0008191652          1400 N30300               1AZ
618979002618979112-116069     618979006009681820277TCS CARRIER BAG JUMBO  0000001000+00000048+00000+0001T   00000048+0000001652          1400 N30090               1AZ
618980000618980               618980               170213NG     1400+00000+NG0000011449+0000011449+000000000+000001604+0000013050+0000000003+I20000000000+0000013050+Z
618980001618980263-000509     618980006001023790620DIY ASSEMBLY VEHICLE   0000001000+00005262+00000+0001T   00005262+0000001652          1400 N30710               1AZ
618980002618980369-001006     618980006001023400345VINYL SQUEAKY TOYS 6PCE0000001000+00006139+00000+0001T   00006139+0000001652          1400 N30745               1AZ
618980003618980112-116069     618980006009681820277TCS CARRIER BAG JUMBO  0000001000+00000048+00000+0001T   00000048+0000001652          1400 N30090               1AZ
618981000618981               618981               170213NG     1400+00000+NG0000012587+0000012587+000000000+000001764+0000014351+0000000000+I40000014351+0000000000+Z
618981001618981366-001101     618981006003000006991DRESS UP BOYS ASSTD    0000001000+00006139+00000+0001T   00006139+0000001654          1400 N30131               1AZ
618981002618981079-013032-C   618981006003000389520POLY SHAPES            0000001000+00001578+00000+0001T   00001578+0000001654          1400 N30130               1AZ
618981003618981079-013102     618981006003000019601ART+CRAFT DIY PIPE-CLNR0000001000+00002192+00000+0001T   00002192+0000001654          1400 N30130               1AZ
618981004618981079-006525     618981006003000681938MASKING FABRIC 10PC    0000001000+00002630+00000+0001T   00002630+0000001654          1400 N30130               1AZ
618981005618981112-116069     618981006009681820277TCS CARRIER BAG JUMBO  0000001000+00000048+00000+0001T   00000048+0000001654          1400 N30090               1AZ
618982000618982               618982               170213NG     1400+00000+NG0000000876+0000000876+000000000+000000123+0000000990+0000000009+I20000000000+0000000990+Z
618982001618982077-000408     618982006003000145218G/BAG PP 15X21X7CM     0000001000+00000876+00000+0001T   00000876+0000001654          1400 N30112               1AZ
618983000618983               618983               170213NG     1400+00000+NG0000013637+0000013637+000000000+000001910+0000015547+0000000000+I40000015547+0000000000+Z
618983001618983030-000031-A   618983006003000457588PLAQUE W/WORDS ASSTD   0000001000+00004385+00000+0001T   00004823+0006471656          1400 N30505               1AZ
618983002618983031-005853     618983006003000442416P/FRAME WDN TWIN HEARTS0000001000+00003507+00000+0001T   00003507+0000001656          1400 N30510               1AZ
618983003618983006-000166-D   618983006003000516490BALLOONS LRG 6PC RED   0000002000+00001314+00000+0001T   00001314+0000001656          1400 N30131               1AZ
618983004618983301-085008     618983006003000673933ORN OCC.LOVE TINSEL HRT0000001000+00003069+00000+0001T   00003069+0000001656          1400 N30505               1AZ
618983005618983112-116069     618983006009681820277TCS CARRIER BAG JUMBO  0000001000+00000048+00000+0001T   00000048+0000001656          1400 N30090               1AZ
618984000618984               618984               170213NG     1400+00000+NG0000004433+0000004433+000000000+000000621+0000005050+0000000004+I20000000000+0000005050+Z
618984001618984001-000175     618984006001023788108B/MUG GLS LOVE 380ML   0000001000+00004385+00000+0001T   00004385+0000001700          1400 N30515               1AZ
618984002618984112-116069     618984006009681820277TCS CARRIER BAG JUMBO  0000001000+00000048+00000+0001T   00000048+0000001700          1400 N30090               1AZ
618985000618985               618985               170213NG     1400+00000+NG0000008817+0000008817+000000000+000001235+0000010052+0000000000+I40000010052+0000000000+Z
618985001618985016-006524     618985006003000579358S/JAR GLS 750ml ASSTD  0000001000+00005262+00000+0001T   00005262+0000001703          1400 N30300               1AZ
618985002618985039-080941     618985006001023669841CANDLE PILLAR WHT 7X7CM0000001000+00003507+00000+0001T   00003507+0000001703          1400 N30510               1AZ
618985003618985112-116069     618985006009681820277TCS CARRIER BAG JUMBO  0000001000+00000048+00000+0001T   00000048+0000001703          1400 N30090               1AZ
618986000618986               618986               170213NG     1400+00000+NG0000000876+0000000876+000000000+000000123+0000000990+0000000009+I20000000000+0000000990+Z
618986001618986077-000151     618986006008766114676GIFT-WRAP C/PHANE ASSTD0000001000+00000876+00000+0001T   00000876+0000001706          1400 N30112               1AZ
618987000618987               618987               170213NG     1400+00000+NG0000003066+0000003066+000000000+000000431+0000003497+0000000000+I40000003497+0000000000+Z
618987001618987077-000011-E   618987006001023808646TISSUE-WRAP PINK 10PCE 0000001000+00000876+00000+0001T   00000876+0000001709          1400 N30112               1AZ
618987002618987080-000133     618987006003000535613CARD&ENV MINI ASTD DSGN0000001000+00000437+00000+0001T   00000437+0000001709          1400 N30112               1AZ
618987003618987077-000290     618987006001023902023GIFT BOX 26x32x13cm    0000001000+00001753+00000+0001T   00001753+0000001709          1400 N30112               1AZ
618988000618988               618988               170213NG     1400+00000+NG0000002240+0000002240+000000000+000000314+0000002550+0000000004+I20000000000+0000002550+Z
618988001618988080-000127     618988006003000424351VALENTINES DAY 36x24CM 0000001000+00002192+00000+0001T   00002192+0000001714          1400 N30112               1AZ
618988002618988112-116069     618988006009681820277TCS CARRIER BAG JUMBO  0000001000+00000048+00000+0001T   00000048+0000001714          1400 N30090               1AZ
618989000618989               618989               170213NG     1400+00000+NG0000001753+0000001753+000000000+000000246+0000001990+0000000009+I20000000000+0000001990+Z
618989001618989565-000043     618989006003000109562NOVELTY BALL FUNNY FACE0000001000+00001753+00000+0001T   00001753+0000001714          1400 N30745               1AZ
618990000618990               618990               170213NG     1400+00000+NG0000013815+0000013815+000000000+000001935+0000015750+0000000000+I40000015750+0000000000+Z
618990001618990004-071206     618990006003000605156USB CABLE CHARGER      0000001000+00003507+00000+0001T   00003507+0000001718          1400 N30310               1AZ
618990002618990019-000102     618990006003000280919VASE GLS BUD 18X6CM    0000002000+00004385+00000+0001T   00004385+0000001718          1400 N30510               1AZ
618990003618990112-116069     618990006009681820277TCS CARRIER BAG JUMBO  0000001000+00000048+00000+0001T   00000048+0000001718          1400 N30090               1AZ
618990004618990565-004101     618990006003000548033BALL BOUNCING EGG      0000001000+00001490+00000+0001T   00001490+0000001718          1400 N30745               1AZ
618991000618991               618991               170213NG     1400+00000+NG0000002630+0000002630+000000000+000000369+0000002990+0000000009+I20000000000+0000002990+Z
618991001618991108-003023     618991006003000665471TUMBLER W/STRAW 550ml  0000001000+00002630+00000+0001T   00002630+0000001718          1400 N30210               1AZ
618992000618992               618992               170213NG     1400+00000+NG0000001753+0000001753+000000000+000000246+0000001999+0000000000+I40000001999+0000000000+Z
618992001618992200-003024     618992006001023657299REFUSE BAGS 20PCE BLACK0000001000+00001753+00000+0001T   00001753+0000001721          1400 N30214               1AZ
618993000618993               618993               170213NG     1400+00000+NG0000004431+0000004431+000000000+000000622+0000005053+0000000000+I40000005053+0000000000+Z
618993001618993055-009260     618993006001023613073PICTURE-HOOK+PIN 9PCE  0000001000+00002630+00000+0001T   00002630+0000001722          1400 N30810               1AZ
618993002618993200-003024     618993006001023657299REFUSE BAGS 20PCE BLACK0000001000+00001753+00000+0001T   00001753+0000001722          1400 N30214               1AZ
618993003618993112-116069     618993006009681820277TCS CARRIER BAG JUMBO  0000001000+00000048+00000+0001T   00000048+0000001722          1400 N30090               1AZ
618994000618994               618994               170213NG     1400+00000+NG0000001578+0000001578+000000000+000000221+0000001799+0000000000+I40000001799+0000000000+Z
618994001618994077-000303     618994006001023593757GIFT-BAG PAPER MED     0000001000+00001578+00000+0001T   00001578+0000001730          1400 N30112               1AZ
618995000618995               618995               170213NG     1400+00000+NG0000019079+0000019079+000000000+000002673+0000021750+0000000002+I20000000000+0000021750+Z
618995001618995031-001008     618995006003000406494P/FRAME COLLAGE PLASTIC0000001000+00012279+00000+0001T   00012279+0000001731          1400 N30510               1AZ
618995002618995077-000299     618995006003000395576G/BAG 32x25cm LRG LOVE 0000001000+00001490+00000+0001T   00001490+0000001731          1400 N30112               1AZ
618995003618995039-000500     618995006001023816450C/VOTIVE 8PC RAINBOW   0000001000+00005262+00000+0001T   00005262+0000001731          1400 N30510               1AZ
618995004618995112-116069     618995006009681820277TCS CARRIER BAG JUMBO  0000001000+00000048+00000+0001T   00000048+0000001731          1400 N30090               1AZ
618996000618996               618996               170213NG     1400+00000+NG0000005262+0000005262+000000000+000000737+0000005990+0000000009+I20000000000+0000005990+Z
618996001618996018-019000     618996006003000557288MUG OCC. LOVE JUMBO    0000001000+00005262+00000+0001T   00005262+0000001735          1400 N30515               1AZ
618997000618997               618997               170213NG     1400+00000+NG0000007100+0000007100+000000000+000000996+0000008090+0000000006+I20000000000+0000008090+Z
618997001618997903-000619     618997006003000672455SWT LOLLY STR/BRRY 140G0000001000+00001753+00000+0001T   00001753+0000001739          1400 N30150               1AZ
618997002618997018-000108     618997006001023380265MUG NOVELTY ICON ASST  0000001000+00001753+00000+0001T   00001753+0000001739          1400 N30515               1AZ
618997003618997368-000040     618997006003000671786PLUSH ICONS 7.5cm      0000001000+00002630+00000+0001T   00002630+0000001739          1400 N30745               1AZ
618997004618997903-004960     618997008410525221842SWT GUMMY STR/BERRY 50G0000001000+00000964+00000+0001T   00000964+0000001739          1400 N30150               1AZ
618998000618998               618998               170213NG     1400+00000+NG0000008725+0000008725+000000000+000001223+0000009940+0000000008+I20000000000+0000009940+Z
618998001618998024-000168-A   618998006003000674794TINPLATE LOAF PAN      0000001000+00003507+00000+0001T   00003507+0000001744          1400 N30300               1AZ
618998002618998077-000011-F   618998006001023808431TISSUE-WRAP BLUE/LILAC 0000001000+00000876+00000+0001T   00000876+0000001744          1400 N30112               1AZ
618998003618998077-000310     618998006001023608635GIFT-BAG 18X23CM GLOSS 0000001000+00001314+00000+0001T   00001314+0000001744          1400 N30112               1AZ
618998004618998565-004101     618998006003000548033BALL BOUNCING EGG      0000002000+00001490+00000+0001T   00001490+0000001744          1400 N30745               1AZ
618998005618998112-116069     618998006009681820277TCS CARRIER BAG JUMBO  0000001000+00000048+00000+0001T   00000048+0000001744          1400 N30090               1AZ
618999000618999               618999               170213NG     1400+00000+NG0000001753+0000001753+000000000+000000246+0000001990+0000000009+I20000000000+0000001990+Z
618999001618999077-000299-A   618999006003000670888GIFT-BAG PAPER JMB LOVE0000001000+00001753+00000+0001T   00001753+0000001745          1400 N30112               1AZ
619000000619000               619000               170213NG     1400+00000+NG0000003069+0000003069+000000000+000000430+0000003490+0000000009+I20000000000+0000003490+Z
619000001619000079-014152     619000006003000253074ART+CRAFT PK50 ASSTD   0000001000+00003069+00000+0001T   00003069+0000001748          1400 N30130               1AZ
619001000619001               619001               170213NG     1400+00000+NG0000004385+0000004385+000000000+000000614+0000004990+0000000009+I20000000000+0000004990+Z
619001001619001031-000001-A   619001006003000246908P/FRAME GLS LOVE 9X13cm0000001000+00004385+00000+0001T   00004385+0000001748          1400 N30510               1AZ
619002000619002               619002               170213NG     1400+00000+NG0000005262+0000005262+000000000+000000737+0000005990+0000000009+I20000000000+0000005990+Z
619002001619002018-019000     619002006003000557288MUG OCC. LOVE JUMBO    0000001000+00005262+00000+0001T   00005262+0000001752          1400 N30515               1AZ
619003000619003               619003               170213NG     1400+00000+NG0000008242+0000008242+000000000+000001155+0000009390+0000000007+I20000000000+0000009390+Z
619003001619003077-000299     619003006003000395576G/BAG 32x25cm LRG LOVE 0000001000+00001490+00000+0001T   00001490+0000001752          1400 N30112               1AZ
619003002619003368-000175     619003006003000270316PLUSH BEAR 4 ASSTD 18CM0000001000+00006139+00000+0001T   00006139+0000001752          1400 N30745               1AZ
619003003619003304-001011     619003006001023806727FLWR ROSE RED W/BEAR   0000001000+00000613+00000+0001T   00000788+0006471752          1400 N30510               1AZ
619004000619004               619004               170213NG     1400+00000+NG0000003507+0000003507+000000000+000000491+0000003998+0000000000+I40000003998+0000000000+Z
619004001619004031-000923     619004006001023669933P/FRAME BLK W/WORDS    0000001000+00003507+00000+0001T   00003507+0000001754          1400 N30510               1AZ
619005000619005               619005               170213NG     1400+00000+NG0000001226+0000001226+000000000+000000172+0000001398+0000000000+I40000001398+0000000000+Z
619005001619005304-001011     619005006001023806727FLWR ROSE RED W/BEAR   0000002000+00000613+00000+0001T   00000788+0006471757          1400 N30510               1AZ
619006000619006               619006               170213NG     1400+00000+NG0000007016+0000007016+000000000+000000983+0000007999+0000000000+I40000007999+0000000000+Z
619006001619006203-000007     619006006001023762856COASTER-SET 4PCE ROUND 0000001000+00007016+00000+0001T   00008771+0008191800          1400 N30300               1AZ
A17021300                                          17034722NGSLAVE 1                       N301IC
B61896000                                          170213NG051-002402     13331930SLAVE 1     N302IC0000002000+0000001000+0000000000000+
M17021391                              CASH        NGSLAVE 1                       Z-REPORT No.   605TOTAL (Sales - Refunds)           6802.52       CASH TO BE BANKED                 3076.80       DEBIT CARDS                          0.00       CREDIT CARDS                      3725.72       Z-READING                         6802.52       AIRTIME DEBIT CARD SALES             0.00       AIRTIME CARD SALES                   0.00       OVERS/UNDERS                         0.00       AIRTIME CASH SALES                   0.00       GIFT CARDS                           0.00       GIFT CARD CASH SALES                 0.00       T O T A L  CASH PAYOUTS              0.00                                                                                                                                                                                                                                                                                                                                                      Z
M17021392                              CASH        NGABSENT                                                                                                                                                                                          ANNUAL LEAVE                                                                                                                                                                                    DAY OFF                                                                                                                                                                                         COMMENTS                                                                                                                                                                                                                                                                                                                                                                                       Z
Y17021300                                          NG00000000614468+000081
ZNG17021320103 SLAVE 1      SALES DATA                     NEXT INVOICE NO.  619007 0605
X NG Slave 1 First invoice 618925 170213 Last invoice 619006 170213 Next invoice 619007 Total number of records 000000318 clbackup completed 20:10:36
