118812000118812               118812               170213NH     1400+00000+NH0000020215+0000020215+000000000+000002831+0000023046+0000000000+I40000023046+0000000000+Z
118812001118812262-000616     118812006001023708991CARS MDC 8PCE CITY     0000002000+00003507+00000+0001T   00003507+0000000908          1400 AT6710               1AZ
118812002118812262-000652     118812006003000615643DIE CAST SET 8PC RACER 0000001000+00003507+00000+0001T   00003507+0000000908          1400 AT6710               1AZ
118812003118812262-000616     118812006001023708991CARS MDC 8PCE CITY     0000001000+00003507+00000+0001T   00003507+0000000908          1400 AT6710               1AZ
118812004118812368-000104     118812006001023751348PLUSH BEAR RUFFLED-LOOK0000001000+00006139+00000+0001T   00006139+0000000908          1400 AT6745               1AZ
118812005118812112-116069     118812006009681820277TCS CARRIER BAG JUMBO  0000001000+00000048+00000+0001T   00000048+0000000908          1400 AT6090               1AZ
118813000118813               118813               170213NH     1400+00000+NH0000024156+0000024156+000000000+000003386+0000027542+0000000000+I40000027542+0000000000+Z
118813001118813112-116069     118813006009681820277TCS CARRIER BAG JUMBO  0000001000+00000048+00000+0001T   00000048+0000000923          1400 AT6090               1AZ
118813002118813019-071595     118813006001023756428PEBBLES 250g SKY-BLUE  0000001000+00001753+00000+0001T   00001753+0000000923          1400 AT6510               1AZ
118813003118813078-009100     118813006008741002349ALL-CLEAR GLUE 25ml CRD0000001000+00001314+00000+0001T   00001314+0000000923          1400 AT6810               1AZ
118813004118813031-000902-A   118813006001023726254P/FRAME WDN OAK 6X9CM  0000003000+00003507+00000+0001T   00003507+0000000923          1400 AT6510               1AZ
118813005118813079-014153     118813006003000253166ART+CRAFT DRAGON PK6   0000004000+00002630+00000+0001T   00002630+0000000923          1400 AT6130               1AZ
118814000118814               118814               170213NH     1400+00000+NH0000001753+0000001753+000000000+000000246+0000001990+0000000009+I20000000000+0000001990+Z
118814001118814027-000409     118814006001023731012SCRUBBING-BRUSH 15,5cm 0000001000+00001753+00000+0001T   00001753+0000000931          1400 AT6212               1AZ
118815000118815               118815               170213NH     1400+00000+NH0000002103+0000002103+000000000+000000295+0000002390+0000000008+I20000000000+0000002390+Z
118815001118815077-000150-D   118815006003000054343GIFT-WRAP CELLPHANE CLR0000001000+00000876+00000+0001T   00000876+0000000932          1400 AT6112               1AZ
118815002118815077-000245     118815006001023759214GIFT-RIBBON METALLICx2 0000001000+00001227+00000+0001T   00001227+0000000932          1400 AT6112               1AZ
118816000118816               118816               170213NH     1400+00000+NH0000001050+0000001050+000000000+000000148+0000001190+0000000008+I20000000000+0000001190+Z
118816001118816903-000151     118816006009803374411SWT SML RND R/BOW LOLLY0000002000+00000525+00000+0001T   00000525+0000001005          1400 AT6150               1AZ
118817000118817               118817               170213NH     1400+00000+NH0000005262+0000005262+000000000+000000737+0000005990+0000000009+I20000000000+0000005990+Z
118817001118817107-004510     118817006002580008968STEP-STOOL PL          0000001000+00005262+00000+0001T   00005262+0000001029          1400 AT6210               1AZ
118818000118818               118818               170213NH     1400+00000+NH0000011401+0000011401+000000000+000001597+0000012998+0000000000+I40000012998+0000000000+Z
118818001118818566-000316     118818006003000521821STICKERS MIRRORS HOME  0000001000+00006139+00000+0001T   00006139+0000001109          1400 AT6130               1AZ
118818002118818566-000320     118818006003000422890STICKERS R/DEC. NATURE 0000001000+00005262+00000+0001T   00005262+0000001109          1400 AT6130               1AZ
118819000118819               118819               170213NH     1400+00000+NH0000009641+0000009641+000000000+000001354+0000010990+0000000005+I20000000000+0000010990+Z
118819001118819024-000116     118819006001023422286N/STICK C/PAN SQUARE   0000001000+00004823+00000+0001T   00004823+0000001117          1400 AT63001IC            1AZ
118819002118819079-009702-D   118819008427973059354PAPER SIRIO A2 RED COL 0000003000+00001051+00000+0001T   00001051+0000001117          1400 AT6130               1AZ
118819003118819047-000504-H   118819006001023589958PLUG EURODAPTOR 2PIN HH0000001000+00001665+00000+0001T   00001665+0000001117          1400 AT6880               1AZ
118820000118820               118820               170213NH     1400+00000+NH0000002364+0000002364+000000000+000000333+0000002690+0000000007+I20000000000+0000002690+Z
118820001118820566-000858     118820006001023760975STCKRS G/OUTLINE ASSTD 0000003000+00000788+00000+0001T   00000788+0000001118          1400 AT6130               1AZ
118821000118821               118821               170213NH     1400+00000+NH0000006139+0000006139+000000000+000000860+0000006990+0000000009+I20000000000+0000006990+Z
118821001118821039-000798     118821006001023617774CANDLES TEALITE BOX-50 0000001000+00006139+00000+0001T   00006139+0000001121          1400 AT6510               1AZ
118822000118822               118822               170213NH     1400+00000+NH0000004294+0000004294+000000000+000000602+0000004890+0000000006+I20000000000+0000004890+Z
118822001118822565-000100     118822006003000571147NOVELTY SHOELACES 6 COL0000002000+00001490+00000+0001T   00001490+0000001122          1400 AT6745               1AZ
118822002118822903-004950     118822006002580020304SWT APRICOT SURPRISE   0000001000+00001314+00000+0001T   00001314+0000001122          1400 AT6150               1AZ
118823000118823               118823               170213NH     1400+00000+NH0000000035+0000000035+000000000+000000005+0000000040+0000000000+I20000000000+0000000040+Z
118823001118823112-116038     118823006009681820246TCS CARRIER BAG MIDI   0000001000+00000035+00000+0001T   00000035+0000001123          1400 AT6090               1AZ
118824000118824               118824               170213NH     1400+00000+NH0000005262+0000005262+000000000+000000737+0000005999+0000000000+I40000005999+0000000000+Z
118824001118824104-000183     118824006003000593729CUTLERY DRAINER 3DIV PL0000001000+00005262+00000+0001T   00005262+0000001125          1400 AT6210               1AZ
118825000118825               118825               170213NH     1400+00000+NH0000004385+0000004385+000000000+000000614+0000004990+0000000009+I20000000000+0000004990+Z
118825001118825082-000115     118825006003000360604READING GLS STRNGHT:2.50000001000+00004385+00000+0001T   00004385+0000001133          1400 AT6160               1AZ
118826000118826               118826               170213NH     1400+00000+NH0000002015+0000002015+000000000+000000283+0000002290+0000000008+I20000000000+0000002290+Z
118826001118826018-000127     118826006001023380289MUG OCC STRAIGHT LOVE  0000001000+00001578+00000+0001T   00001753+0006471135          1400 AT6515               1AZ
118826002118826080-000133-A   118826006003000647019MINI VALENTINES CARD   0000001000+00000437+00000+0001T   00000437+0000001135          1400 AT6112               1AZ
118827000118827               118827               170213NH     1400+00000+NH0000003507+0000003507+000000000+000000491+0000003990+0000000008+I20000000000+0000003990+Z
118827001118827038-001800     118827006003000623303DOILIE PAPER HRT 24PC  0000001000+00003507+00000+0001T   00003507+0000001144          1400 AT6300               1AZ
118828000118828               118828               170213NH     1400+00000+NH0000001490+0000001490+000000000+000000209+0000001690+0000000009+I20000000000+0000001690+Z
118828001118828079-006494     118828006003000159864GLITTER GLUE 5PCE 11cm 0000001000+00001490+00000+0001T   00001490+0000001145          1400 AT6130               1AZ
118829000118829               118829               170213NH     1400+00000+NH0000001227+0000001227+000000000+000000172+0000001390+0000000009+I20000000000+0000001390+Z
118829001118829251-000040     118829006001023515865SEALTAPE CLEAR 48mmx50m0000001000+00001227+00000+0001T   00001227+0000001146          1400 AT6810               1AZ
118830000118830               118830               170213NH     1400+00000+NH0000021482+0000021482+000000000+000003010+0000024490+0000000002+I20000000000+0000024490+Z
118830001118830006-001000     118830006003000093779HELIUM BALLOON FILL    0000005000+00000613+00000+0001T   00000613+0000001159          1400 AT6131               1AZ
118830002118830039-080959     118830006003000048922CANDLE PILLAR BALL 8CM 0000002000+00003069+00000+0001T   00003069+0000001159          1400 AT6510               1AZ
118830003118830019-000079     118830006001023775726VASE 30cm CRACK-DESIGN 0000001000+00012279+00000+0001T   00012279+0000001159          1400 AT6510               1AZ
118831000118831               118831               170213NH     1400+00000+NH0000027628+0000027628+000000000+000003868+0000031496+0000000000+I40000031496+0000000000+Z
118831001118831046-000012     118831006904708013062BATTERIES AA  CARD-OF-40000001000+00001314+00000+0001T   00001314+0000001204          1400 AT6312               1AZ
118831002118831486-010001     118831006003000283323WALL-CLOCK QTZ 60CM RND0000001000+00026314+00000+0001T   00026314+0000001204          1400 AT6510               1AZ
118832000118832               118832               170213NH     1400+00000+NH0000001753+0000001753+000000000+000000246+0000001990+0000000009+I20000000000+0000001990+Z
118832001118832088-000084     118832006001023798060P/POURRI 120G ASSTD    0000001000+00001753+00000+0001T   00001753+0000001207          1400 AT6212               1AZ
118833000118833               118833               170213NH     1400+00000+NH0000002630+0000002630+000000000+000000369+0000002990+0000000009+I20000000000+0000002990+Z
118833001118833263-000130     118833006003000305742MOTORBIKE B/BACK 11CM  0000001000+00002630+00000+0001T   00002630+0000001209          1400 AT6710               1AZ
118834000118834               118834               170213NH     1400+00000+NH0000002100+0000002100+000000000+000000294+0000002390+0000000004+I20000000000+0000002390+Z
118834001118834564-000012     118834006001023130075BUBBLE BOTTLE MAGIC    0000003000+00000700+00000+0001T   00000700+0000001214          1400 AT6131               1AZ
118835000118835               118835               170213NH     1400+00000+NH0000008975+0000008975+000000000+000001259+0000010234+0000000000+I40000010234+0000000000+Z
118835001118835112-116038     118835006009681820246TCS CARRIER BAG MIDI   0000001000+00000035+00000+0001T   00000035+0000001216          1400 AT6090               1AZ
118835002118835006-006018     118835006001023735256PARTY-SPRAY HAIR ASSORT0000001000+00002630+00000+0001T   00002630+0000001216          1400 AT6131               1AZ
118835003118835566-000065     118835006003000217915STICKERS GLITTER ASSTD 0000001000+00001753+00000+0001T   00001753+0000001216          1400 AT6130               1AZ
118835004118835079-013101     118835006001023863706CRAFT SET DIY PIPE-CLNR0000001000+00002630+00000+0001T   00002630+0000001216          1400 AT6130               1AZ
118835005118835903-000120     118835006002099001665SWEET GS ZILLIONS 50g  0000001000+00000700+00000+0001T   00000700+0000001216          1400 AT6150               1AZ
118835006118835903-000517     118835006001704012768SWT STRAWS FIZZY CHERRY0000001000+00001227+00000+0001T   00001227+0000001216          1400 AT6150               1AZ
118836000118836               118836               170213NH     1400+00000+NH0000019501+0000019501+000000000+000002740+0000022240+0000000001+I20000000000+0000022240+Z
118836001118836112-116069     118836006009681820277TCS CARRIER BAG JUMBO  0000001000+00000048+00000+0001T   00000048+0000001219          1400 AT6090               1AZ
118836002118836018-005009     118836006001023725608MUG W/PLUSH-BEAR LOVE  0000001000+00003507+00000+0001T   00003507+0000001219          1400 AT6515               1AZ
118836003118836077-000245     118836006001023759214GIFT-RIBBON METALLICx2 0000001000+00001227+00000+0001T   00001227+0000001219          1400 AT6112               1AZ
118836004118836566-000367     118836006003000645558STICKER WINDOW DECOR   0000002000+00002630+00000+0001T   00002630+0000001219          1400 AT6130               1AZ
118836005118836079-009702-D   118836006003000546671PAPER SIRIO A2 RED COL 0000009000+00001051+00000+0001T   00001051+0000001219          1400 AT6130               1AZ
118837000118837               118837               170213NH     1400+00000+NH0000001490+0000001490+000000000+000000209+0000001690+0000000009+I20000000000+0000001690+Z
118837001118837903-005003     118837006002580020106SWT DINKY DUMMIES 5PK  0000001000+00001490+00000+0001T   00001490+0000001332          1400 AT6150               1AZ
118838000118838               118838               170213NH     1400+00000+NH0000004821+0000004821+000000000+000000675+0000005496+0000000000+I40000005496+0000000000+Z
118838001118838018-005009     118838006001023725608MUG W/PLUSH-BEAR LOVE  0000001000+00003507+00000+0001T   00003507+0000001341          1400 AT6515               1AZ
118838002118838077-000310     118838006001023608635GIFT-BAG 18X23CM GLOSS 0000001000+00001314+00000+0001T   00001314+0000001341          1400 AT6112               1AZ
118839000118839               118839               170213NH     1400+00000+NH0000003542+0000003542+000000000+000000496+0000004030+0000000008+I20000000000+0000004030+Z
118839001118839133-000017     118839006003000525171CLEANING-CLOTHS 5PCE   0000001000+00003507+00000+0001T   00003507+0000001344          1400 AT6212               1AZ
118839002118839112-116038     118839006009681820246TCS CARRIER BAG MIDI   0000001000+00000035+00000+0001T   00000035+0000001344          1400 AT6090               1AZ
118840000118840               118840               170213NH     1400+00000+NH0000016665+0000016665+000000000+000002334+0000018999+0000000000+I40000018999+0000000000+Z
118840001118840028-000040     118840006003000453016PICNIC BAG W/ALU HNDLES0000001000+00016665+00000+0001T   00016665+0000001347          1400 AT6305               1AZ
118841000118841               118841               170213NH     1400+00000+NH0000013183+0000013183+000000000+000001848+0000015031+0000000000+I40000015031+0000000000+Z
118841001118841567-075490     118841009780799375138BK NOVEL ROMANCE AFR   0000001000+00003507+00000+0001T   00003507+0000001350          1400 AT6757               1AZ
118841002118841567-075490     118841009780799375145BK NOVEL ROMANCE AFR   0000001000+00003507+00000+0001T   00003507+0000001350          1400 AT6757               1AZ
118841003118841362-001105     118841006003000635917JEWELLERY BRACELETS    0000002000+00000876+00000+0001T   00000876+0000001350          1400 AT6160               1AZ
118841004118841263-000801     118841006003000547883VEHICLE COMIC TRANSPORT0000001000+00002192+00000+0001T   00002192+0000001350          1400 AT6710               1AZ
118841005118841263-000010     118841006003000551293VEHICLE ANIMAL WORLD 3p0000001000+00001753+00000+0001T   00001753+0000001350          1400 AT6710               1AZ
118841006118841112-116038     118841006009681820246TCS CARRIER BAG MIDI   0000001000+00000035+00000+0001T   00000035+0000001350          1400 AT6090               1AZ
118841007118841080-000133-A   118841006003000647019MINI VALENTINES CARD   0000001000+00000437+00000+0001T   00000437+0000001350          1400 AT6112               1AZ
118842000118842               118842               170213NH     1400+00000+NH0000008765+0000008765+000000000+000001230+0000009990+0000000005+I20000000000+0000009990+Z
118842001118842200-003024     118842006001023657299REFUSE BAGS 20PCE BLACK0000003000+00001753+00000+0001T   00001753+0000001352          1400 AT6214               1AZ
118842002118842200-003026     118842006003000276448REFUSE BAGS 10PCE GREEN0000002000+00001753+00000+0001T   00001753+0000001352          1400 AT6214               1AZ
118843000118843               118843               170213NH     1400+00000+NH0000006187+0000006187+000000000+000000867+0000007050+0000000004+I20000000000+0000007050+Z
118843001118843018-005007     118843006003000515516MUG OCC. LOVE W/HEARTS 0000001000+00006139+00000+0001T   00006139+0000001355          1400 AT6515               1AZ
118843002118843112-116069     118843006009681820277TCS CARRIER BAG JUMBO  0000001000+00000048+00000+0001T   00000048+0000001355          1400 AT6090               1AZ
118844000118844               118844               170213NH     1400+00000+NH0000004998+0000004998+000000000+000000700+0000005690+0000000008+I20000000000+0000005690+Z
118844001118844368-000049     118844006003000536955PLUSH BEAR 15cm LOVE   0000001000+00004385+00000+0001T   00004385+0000001358          1400 AT6745               1AZ
118844002118844304-001011     118844006001023806727FLWR ROSE RED W/BEAR   0000001000+00000613+00000+0001T   00000788+0006471358          1400 AT6510               1AZ
118845000118845               118845               170213NH     1400+00000+NH0000041692+0000041692+000000000+000005844+0000047536+0000000000+I40000047536+0000000000+Z
118845001118845112-116069     118845006009681820277TCS CARRIER BAG JUMBO  0000001000+00000048+00000+0001T   00000048+0000001404          1400 AT6090               1AZ
118845002118845027-077605     118845006001023997678STEELWOOL PADS 12PC 72g0000001000+00001753+00000+0001T   00001753+0000001404          1400 AT6212               1AZ
118845003118845133-000003     118845006003000583133DISH CLOTH MICROFIBRE  0000001000+00004385+00000+0001T   00004385+0000001404          1400 AT6212               1AZ
118845004118845027-000092     118845006003000365739BLIND CLEANER MICROFIBR0000001000+00002630+00000+0001T   00002630+0000001404          1400 AT6212               1AZ
118845005118845133-000010     118845006001023905215CLEANING CLOTHS 6PCE   0000001000+00001753+00000+0001T   00001753+0000001404          1400 AT6212               1AZ
118845006118845220-000032     118845006001023425065BUDGET TEASPOONS 12PCE 0000001000+00002630+00000+0001T   00002630+0000001404          1400 AT6300               1AZ
118845007118845108-005010     118845006001023915016TRAY 45cmx31cm RECT    0000001000+00003507+00000+0001T   00003507+0000001404          1400 AT6210               1AZ
118845008118845015-000110     118845006001023854889WHITEWARE MUG 350ML    0000004000+00002192+00000+0001T   00002192+0000001404          1400 AT6515               1AZ
118845009118845079-013106     118845006003000081998ART+CRAFT PIPE-CLEANERS0000001000+00003069+00000+0001T   00003069+0000001404          1400 AT6130               1AZ
118845010118845088-000011     118845006001023752826AIR-FRESHNER GEL ASSTD 0000003000+00001753+00000+0001T   00001753+0000001404          1400 AT6212               1AZ
118845011118845088-000052     118845006001023760401T/FRESHENER CISTERN BLK0000002000+00000876+00000+0001T   00000876+0000001404          1400 AT6212               1AZ
118845012118845088-000018     118845006003000103331AIR FRESHENER 280 ml   0000002000+00003069+00000+0001T   00003069+0000001404          1400 AT6212               1AZ
118846000118846               118846               170213NH     1400+00000+NH0000003506+0000003506+000000000+000000492+0000003998+0000000000+I40000003998+0000000000+Z
118846001118846006-000120     118846006001023346889BALLOONS 10PC MIX COL  0000002000+00001753+00000+0001T   00001753+0000001406          1400 AT6131               1AZ
118847000118847               118847               170213NH     1400+00000+NH0000008185+0000008185+000000000+000001147+0000009332+0000000000+I40000009332+0000000000+Z
118847001118847304-001011     118847006001023806727FLWR ROSE RED W/BEAR   0000001000+00000613+00000+0001T   00000788+0006471407          1400 AT6510               1AZ
118847002118847018-000136     118847006001023659026MUG OCC LOVE W/PLUSH   0000001000+00003507+00000+0001T   00003507+0000001407          1400 AT6515               1AZ
118847003118847112-116038     118847006009681820246TCS CARRIER BAG MIDI   0000001000+00000035+00000+0001T   00000035+0000001407          1400 AT6090               1AZ
118847004118847018-000177     118847006001023797513MUG MINI LOVE ASSTD    0000002000+00000700+00000+0001T   00000700+0000001407          1400 AT6515               1AZ
118847005118847083-000058     118847006003000400331LIGHTER JET CIGAR REFIL0000001000+00002630+00000+0001T   00002630+0000001407          1400 AT6315               1AZ
118848000118848               118848               170213NH     1400+00000+NH0000001314+0000001314+000000000+000000184+0000001498+0000000000+I40000001498+0000000000+Z
118848001118848006-000166-C   118848006003000516377BALLOONS LRG 6PC PINK  0000001000+00001314+00000+0001T   00001314+0000001409          1400 AT6131               1AZ
118849000118849               118849               170213NH     1400+00000+NH0000001576+0000001576+000000000+000000222+0000001790+0000000008+I20000000000+0000001790+Z
118849001118849903-000200     118849006009826020234SWT CHOC RP CHOCO 23G  0000002000+00000788+00000+0001T   00000788+0000001411          1400 AT6150               1AZ
118850000118850               118850               170213NH     1400+00000+NH0000020609+0000020609+000000000+000002887+0000023490+0000000006+I20000000000+0000023490+Z
118850001118850001-091415     118850006003000329113W/GLS OCC. LOVE 2PC 2800000001000+00008771+00000+0001T   00009648+0006471412          1400 AT6515               1AZ
118850002118850039-081008     118850006008766081008CANDLES 9PCE SCENTED   0000001000+00002630+00000+0001T   00002630+0000001412          1400 AT6510               1AZ
118850003118850039-000799     118850006001023692382CANDLES TEALITE 100PCE 0000001000+00008771+00000+0001T   00008771+0000001412          1400 AT6510               1AZ
118850004118850080-000133-A   118850006003000647019MINI VALENTINES CARD   0000001000+00000437+00000+0001T   00000437+0000001412          1400 AT6112               1AZ
118851000118851               118851               170213NH     1400+00000+NH0000001051+0000001051+000000000+000000148+0000001190+0000000009+I20000000000+0000001190+Z
118851001118851033-000125     118851006009654960658COMBS GENTS MINI 2PC   0000001000+00001051+00000+0001T   00001051+0000001419          1400 AT6200               1AZ
118852000118852               118852               170213NH     1400+00000+NH0000002800+0000002800+000000000+000000392+0000003190+0000000002+I20000000000+0000003190+Z
118852001118852362-004000     118852000613153000225DISNEY T/BELL TRINKETS 0000004000+00000700+00000+0001T   00000876+0008181421          1400 AT6160               1AZ
118853000118853               118853               170213NH     1400+00000+NH0000011353+0000011353+000000000+000001594+0000012940+0000000007+I20000000000+0000012940+Z
118853001118853112-116069     118853006009681820277TCS CARRIER BAG JUMBO  0000001000+00000048+00000+0001T   00000048+0000001425          1400 AT6090               1AZ
118853002118853077-000240     118853006003000326259G/RIBBON 4PC PEARLIZED 0000001000+00001753+00000+0001T   00001753+0000001425          1400 AT6112               1AZ
118853003118853006-000118     118853006001023730725BALLOONS 6PC TWISTER   0000001000+00001753+00000+0001T   00001753+0000001425          1400 AT6131               1AZ
118853004118853006-000120     118853006001023346889BALLOONS 10PC MIX COL  0000001000+00001753+00000+0001T   00001753+0000001425          1400 AT6131               1AZ
118853005118853006-000220-A   118853006001023890849PARTY TABLE-CLOTH GIRL 0000001000+00002630+00000+0001T   00002630+0000001425          1400 AT6131               1AZ
118853006118853077-000011-L   118853006001023808585P/TISSUE BRIGHT 10SHEET0000001000+00000876+00000+0001T   00000876+0000001425          1400 AT6112               1AZ
118853007118853077-000010-U   118853006001023168863CREPE-PAPER CERISE-PINK0000001000+00000788+00000+0001T   00000788+0000001425          1400 AT6112               1AZ
118853008118853077-000011-R   118853006001023808462P/TISSUE DARK 10-SHEETS0000001000+00000876+00000+0001T   00000876+0000001425          1400 AT6112               1AZ
118853009118853077-000011-E   118853006001023808646TISSUE-WRAP PINK 10PCE 0000001000+00000876+00000+0001T   00000876+0000001425          1400 AT6112               1AZ
118854000118854               118854               170213NH     1400+00000+NH0000003068+0000003068+000000000+000000430+0000003490+0000000008+I20000000000+0000003490+Z
118854001118854077-000303     118854006001023593757GIFT-BAG PAPER MED     0000001000+00001578+00000+0001T   00001578+0000001426          1400 AT6112               1AZ
118854002118854077-000299     118854006003000395576G/BAG 32x25cm LRG LOVE 0000001000+00001490+00000+0001T   00001490+0000001426          1400 AT6112               1AZ
118855000118855               118855               170213NH     1400+00000+NH0000004382+0000004382+000000000+000000615+0000004990+0000000007+I20000000000+0000004990+Z
118855001118855566-000308     118855006003000522521STICKER TAPE 3PCS      0000001000+00002630+00000+0001T   00002630+0000001429          1400 AT6130               1AZ
118855002118855077-000011-F   118855006001023808431TISSUE-WRAP BLUE/LILAC 0000001000+00000876+00000+0001T   00000876+0000001429          1400 AT6112               1AZ
118855003118855077-000011-D   118855006001023808554TISSUE-WRAP WHITE 10PCE0000001000+00000876+00000+0001T   00000876+0000001429          1400 AT6112               1AZ
118856000118856               118856               170213NH     1400+00000+NH0000001753+0000001753+000000000+000000246+0000001990+0000000009+I20000000000+0000001990+Z
118856001118856046-002013-PK6 118856004897006174851BATTERY BUTTON AG13 6PC0000001000+00001753+00000+0001T   00001753+0000001433          1400 AT6312               1AZ
118857000118857               118857               170213NH     1400+00000+NH0000008771+0000008771+000000000+000001228+0000009990+0000000009+I20000000000+0000009990+Z
118857001118857031-007004     118857006003000463077P/FRAME A3 CERTIFICATE 0000001000+00008771+00000+0001T   00008771+0000001434          1400 AT6510               1AZ
118858000118858               118858               170213NH     1400+00000+NH0000018201+0000018201+000000000+000002549+0000020750+0000000000+I40000020750+0000000000+Z
118858001118858077-000299     118858006003000395576G/BAG 32x25cm LRG LOVE 0000001000+00001490+00000+0001T   00001490+0000001449          1400 AT6112               1AZ
118858002118858301-085004     118858006003000420469ORN LOVE PLAQUE 21X10CM0000001000+00003507+00000+0001T   00003946+0006471449          1400 AT6505               1AZ
118858003118858001-000175     118858006001023788108B/MUG GLS LOVE 380ML   0000001000+00004385+00000+0001T   00004385+0000001449          1400 AT6515               1AZ
118858004118858001-091415     118858006003000329113W/GLS OCC. LOVE 2PC 2800000001000+00008771+00000+0001T   00009648+0006471449          1400 AT6515               1AZ
118858005118858112-116069     118858006009681820277TCS CARRIER BAG JUMBO  0000001000+00000048+00000+0001T   00000048+0000001449          1400 AT6090               1AZ
118859000118859               118859               170213NH     1400+00000+NH0000002980+0000002980+000000000+000000418+0000003398+0000000000+I40000003398+0000000000+Z
118859001118859006-005902     118859006001023823175PARTY FAVOUR ASSTD 6PCE0000001000+00001753+00000+0001T   00001753+0000001454          1400 AT6131               1AZ
118859002118859200-000092     118859006003000576739PICNIC PAPER PLATES 23c0000001000+00001227+00000+0001T   00001227+0000001454          1400 AT6214               1AZ
118860000118860               118860               170213NH     1400+00000+NH0000012149+0000012149+000000000+000001702+0000013851+0000000000+I40000013851+0000000000+Z
118860001118860496-057104     118860000078257571048INTEX POOL BABY RAINBOW0000001000+00007016+00000+0001T   00007016+0000001501          1400 AT6787               1AZ
118860002118860077-000303     118860006001023593757GIFT-BAG PAPER MED     0000001000+00001578+00000+0001T   00001578+0000001501          1400 AT61121IC            1AZ
118860003118860301-085004     118860006003000420469ORN LOVE PLAQUE 21X10CM0000001000+00003507+00000+0001T   00003946+0006471501          1400 AT6505               1AZ
118860004118860112-116069     118860006009681820277TCS CARRIER BAG JUMBO  0000001000+00000048+00000+0001T   00000048+0000001501          1400 AT6090               1AZ
118861000118861               118861               170213NH     1400+00000+NH0000005262+0000005262+000000000+000000737+0000005990+0000000009+I20000000000+0000005990+Z
118861001118861366-002811     118861006003000615650DRESS UP ACCESS RIBBON 0000001000+00005262+00000+0001T   00005262+0000001503          1400 AT6131               1AZ
118862000118862               118862               170213NH     1400+00000+NH0000000437+0000000437+000000000+000000062+0000000490+0000000009+I20000000000+0000000490+Z
118862001118862080-000133-A   118862006003000647019MINI VALENTINES CARD   0000001000+00000437+00000+0001T   00000437+0000001508          1400 AT6112               1AZ
118863000118863               118863               170213NH     1400+00000+NH0000001490+0000001490+000000000+000000209+0000001690+0000000009+I20000000000+0000001690+Z
118863001118863077-000299     118863006003000395576G/BAG 32x25cm LRG LOVE 0000001000+00001490+00000+0001T   00001490+0000001516          1400 AT6112               1AZ
118864000118864               118864               170213NH     1400+00000+NH0000002630+0000002630+000000000+000000369+0000002990+0000000009+I20000000000+0000002990+Z
118864001118864077-000270     118864006003000395453GIFT-BAG PPR JMB 33X45 0000001000+00002630+00000+0001T   00002630+0000001543          1400 AT6112               1AZ
118865000118865               118865               170213NH     1400+00000+NH0000007147+0000007147+000000000+000001002+0000008140+0000000009+I20000000000+0000008140+Z
118865001118865077-000310     118865006001023608635GIFT-BAG 18X23CM GLOSS 0000001000+00001314+00000+0001T   00001314+0000001548          1400 AT6112               1AZ
118865002118865018-005009     118865006001023725608MUG W/PLUSH-BEAR LOVE  0000001000+00003507+00000+0001T   00003507+0000001548          1400 AT6515               1AZ
118865003118865903-000087     118865006001704000161SWT SPECKLED-EGGS 50G  0000002000+00001139+00000+0001T   00001139+0000001548          1400 AT6150               1AZ
118865004118865112-116069     118865006009681820277TCS CARRIER BAG JUMBO  0000001000+00000048+00000+0001T   00000048+0000001548          1400 AT6090               1AZ
118866000118866               118866               170213NH     1400+00000+NH0000002240+0000002240+000000000+000000314+0000002550+0000000004+I20000000000+0000002550+Z
118866001118866080-000127     118866006003000424351VALENTINES DAY 36x24CM 0000001000+00002192+00000+0001T   00002192+0000001549          1400 AT6112               1AZ
118866002118866112-116069     118866006009681820277TCS CARRIER BAG JUMBO  0000001000+00000048+00000+0001T   00000048+0000001549          1400 AT6090               1AZ
118867000118867               118867               170213NH     1400+00000+NH0000001578+0000001578+000000000+000000221+0000001790+0000000009+I20000000000+0000001790+Z
118867001118867018-000127     118867006001023380289MUG OCC STRAIGHT LOVE  0000001000+00001578+00000+0001T   00001753+0006471550          1400 AT6515               1AZ
118868000118868               118868               170213NH     1400+00000+NH0000007454+0000007454+000000000+000001044+0000008490+0000000008+I20000000000+0000008490+Z
118868001118868565-000080     118868006003000643424NOVELTY BENDY          0000001000+00002192+00000+0001T   00002192+0000001551          1400 AT6745               1AZ
118868002118868072-020249     118868006003000451241PET BLANKET FLEECE     0000001000+00005262+00000+0001T   00005262+0000001551          1400 AT6870               1AZ
118869000118869               118869               170213NH     1400+00000+NH0000005260+0000005260+000000000+000000737+0000005990+0000000007+I20000000000+0000005990+Z
118869001118869077-000454     118869006003000285266G/BAG METALLIC LRG EMB 0000001000+00001753+00000+0001T   00001753+0000001551          1400 AT6112               1AZ
118869002118869018-005009     118869006001023725608MUG W/PLUSH-BEAR LOVE  0000001000+00003507+00000+0001T   00003507+0000001551          1400 AT6515               1AZ
118870000118870               118870               170213NH     1400+00000+NH0000003506+0000003506+000000000+000000492+0000003990+0000000008+I20000000000+0000003990+Z
118870001118870200-003024     118870006001023657299REFUSE BAGS 20PCE BLACK0000002000+00001753+00000+0001T   00001753+0000001553          1400 AT6214               1AZ
118871000118871               118871               170213NH     1400+00000+NH0000007049+0000007049+000000000+000000987+0000008030+0000000006+I20000000000+0000008030+Z
118871001118871018-005009     118871006001023725608MUG W/PLUSH-BEAR LOVE  0000002000+00003507+00000+0001T   00003507+0000001555          1400 AT6515               1AZ
118871002118871112-116038     118871006009681820246TCS CARRIER BAG MIDI   0000001000+00000035+00000+0001T   00000035+0000001555          1400 AT6090               1AZ
118872000118872               118872               170213NH     1400+00000+NH0000015395+0000015395+000000000+000002156+0000017551+0000000000+I40000017551+0000000000+Z
118872001118872080-000127     118872006003000424351VALENTINES DAY 36x24CM 0000001000+00002192+00000+0001T   00002192+0000001602          1400 AT6112               1AZ
118872002118872030-000031-A   118872006003000457588PLAQUE W/WORDS ASSTD   0000003000+00004385+00000+0001T   00004823+0006471602          1400 AT6505               1AZ
118872003118872112-116069     118872006009681820277TCS CARRIER BAG JUMBO  0000001000+00000048+00000+0001T   00000048+0000001602          1400 AT6090               1AZ
118873000118873               118873               170213NH     1400+00000+NH0000004385+0000004385+000000000+000000614+0000004990+0000000009+I20000000000+0000004990+Z
118873001118873564-000001     118873006003000140589BUBBLE B/O GUN PL      0000001000+00004385+00000+0001T   00004385+0000001633          1400 AT6131               1AZ
118874000118874               118874               170213NH     1400+00000+NH0000001314+0000001314+000000000+000000184+0000001490+0000000008+I20000000000+0000001490+Z
118874001118874046-000012     118874006904708013062BATTERIES AA  CARD-OF-40000001000+00001314+00000+0001T   00001314+0000001634          1400 AT6312               1AZ
118875000118875               118875               170213NH     1400+00000+NH0000004997+0000004997+000000000+000000700+0000005690+0000000007+I20000000000+0000005690+Z
118875001118875077-000299     118875006003000395576G/BAG 32x25cm LRG LOVE 0000001000+00001490+00000+0001T   00001490+0000001635          1400 AT6112               1AZ
118875002118875018-000136     118875006001023659026MUG OCC LOVE W/PLUSH   0000001000+00003507+00000+0001T   00003507+0000001635          1400 AT6515               1AZ
118876000118876               118876               170213NH     1400+00000+NH0000003506+0000003506+000000000+000000492+0000003998+0000000000+I40000003998+0000000000+Z
118876001118876006-000120     118876006001023346889BALLOONS 10PC MIX COL  0000002000+00001753+00000+0001T   00001753+0000001636          1400 AT6131               1AZ
118877000118877               118877               170213NH     1400+00000+NH0000016660+0000016660+000000000+000002335+0000018995+0000000000+I40000018995+0000000000+Z
118877001118877072-020353     118877006001023598097DOG/CAT-BOWL 17cm      0000002000+00001753+00000+0001T   00001753+0000001640          1400 AT6870               1AZ
118877002118877072-020308     118877006001023700971DOG-TOY FOOTBALL 11,5cm0000001000+00001753+00000+0001T   00001753+0000001640          1400 AT6870               1AZ
118877003118877072-020316     118877006003000603589PET TOY PUP TUG CHEWS  0000001000+00002630+00000+0001T   00002630+0000001640          1400 AT6870               1AZ
118877004118877072-020242     118877006003000053728PET BED COTTON TEXTILE 0000001000+00008771+00000+0001T   00008771+0000001640          1400 AT6870               1AZ
118878000118878               118878               170213NH     1400+00000+NH0000021698+0000021698+000000000+000003043+0000024741+0000000000+I40000024741+0000000000+Z
118878001118878112-116069     118878006009681820277TCS CARRIER BAG JUMBO  0000001000+00000048+00000+0001T   00000048+0000001643          1400 AT6090               1AZ
118878002118878366-000105     118878006001023866103DRESSUP WINGS AND SKIRT0000001000+00007016+00000+0001T   00007016+0000001643          1400 AT6131               1AZ
118878003118878362-003007     118878006003000295401GIRL FASHION SUNGLASSES0000001000+00001578+00000+0001T   00001753+0008191643          1400 AT6160               1AZ
118878004118878566-002000     118878000721129013206STICKERS CRYSTAL ASSTD 0000002000+00000700+00000+0001T   00000700+0000001643          1400 AT6130               1AZ
118878005118878903-005003     118878006002580020106SWT DINKY DUMMIES 5PK  0000004000+00001490+00000+0001T   00001490+0000001643          1400 AT6150               1AZ
118878006118878903-000619     118878006003000672455SWT LOLLY STR/BRRY 140G0000002000+00001753+00000+0001T   00001753+0000001643          1400 AT6150               1AZ
118878007118878903-000926     118878006914204004556SWT NOVELTY ST N/LACE  0000001000+00001753+00000+0001T   00001753+0000001643          1400 AT6150               1AZ
118878008118878903-000094     118878006923431501622SWT GS CANDY NECKLACE  0000001000+00000437+00000+0001T   00000437+0000001643          1400 AT6150               1AZ
118879000118879               118879               170213NH     1400+00000+NH0000001402+0000001402+000000000+000000197+0000001590+0000000009+I20000000000+0000001590+Z
118879001118879304-001204     118879006001023737984FLOWER OCC. TEDDY/ROSES0000001000+00001402+00000+0001T   00001490+0006471644          1400 AT6510               1AZ
118880000118880               118880               170213NH     1400+00000+NH0000006186+0000006186+000000000+000000867+0000007050+0000000003+I20000000000+0000007050+Z
118880001118880079-013106     118880006003000081998ART+CRAFT PIPE-CLEANERS0000002000+00003069+00000+0001T   00003069+0000001648          1400 AT6130               1AZ
118880002118880112-116069     118880006009681820277TCS CARRIER BAG JUMBO  0000001000+00000048+00000+0001T   00000048+0000001648          1400 AT6090               1AZ
118881000118881               118881               170213NH     1400+00000+NH0000001578+0000001578+000000000+000000221+0000001799+0000000000+I40000001799+0000000000+Z
118881001118881077-000315     118881006003000181186GIFT-BAG 20x28cm MATT  0000001000+00001578+00000+0001T   00001578+0000001649          1400 AT6112               1AZ
118882000118882               118882               170213NH     1400+00000+NH0000005995+0000005995+000000000+000000840+0000006830+0000000005+I20000000000+0000006830+Z
118882001118882077-000315     118882006003000181186GIFT-BAG 20x28cm MATT  0000001000+00001578+00000+0001T   00001578+0000001651          1400 AT6112               1AZ
118882002118882077-000310     118882006001023608635GIFT-BAG 18X23CM GLOSS 0000001000+00001314+00000+0001T   00001314+0000001651          1400 AT6112               1AZ
118882003118882077-000314     118882006003000181148GIFT-BAG 11X14CM MATT  0000001000+00000876+00000+0001T   00000876+0000001651          1400 AT6112               1AZ
118882004118882077-000922     118882006003000413935G/WRAP 700mmx2m FLOWER 0000001000+00002192+00000+0001T   00002192+0000001651          1400 AT6112               1AZ
118882005118882112-116038     118882006009681820246TCS CARRIER BAG MIDI   0000001000+00000035+00000+0001T   00000035+0000001651          1400 AT6090               1AZ
118883000118883               118883               170213NH     1400+00000+NH0000001578+0000001578+000000000+000000221+0000001790+0000000009+I20000000000+0000001790+Z
118883001118883077-000303     118883006001023593757GIFT-BAG PAPER MED     0000001000+00001578+00000+0001T   00001578+0000001652          1400 AT6112               1AZ
118884000118884               118884               170213NH     1400+00000+NH0000000613+0000000613+000000000+000000086+0000000690+0000000009+I20000000000+0000000690+Z
118884001118884304-001011     118884006001023806727FLWR ROSE RED W/BEAR   0000001000+00000613+00000+0001T   00000788+0006471653          1400 AT6510               1AZ
118885000118885               118885               170213NH     1400+00000+NH0000008590+0000008590+000000000+000001205+0000009790+0000000005+I20000000000+0000009790+Z
118885001118885566-000028     118885006003000265541STICKER BK ASSTD 250PCE0000001000+00001753+00000+0001T   00001753+0000001655          1400 AT6130               1AZ
118885002118885006-000120     118885006001023346889BALLOONS 10PC MIX COL  0000003000+00001753+00000+0001T   00001753+0000001655          1400 AT6131               1AZ
118885003118885566-001234     118885006003000217793STICKERS LASER ASSTD   0000001000+00001578+00000+0001T   00001578+0000001655          1400 AT6130               1AZ
118886000118886               118886               170213NH     1400+00000+NH0000015946+0000015946+000000000+000002240+0000018186+0000000000+I40000018186+0000000000+Z
118886001118886903-000087     118886006001704000161SWT SPECKLED-EGGS 50G  0000014000+00001139+00000+0001T   00001139+0000001658          1400 AT6150               1AZ
118887000118887               118887               170213NH     1400+00000+NH0000010524+0000010524+000000000+000001474+0000011998+0000000000+I40000011998+0000000000+Z
118887001118887261-003903     118887006001023827746GUN SET ARMY ASSTD     0000001000+00006139+00000+0001T   00006139+0000001700          1400 AT6710               1AZ
118887002118887261-003901     118887006001023707451GUN SET PL POLICE+ACCES0000001000+00004385+00000+0001T   00004385+0000001700          1400 AT6710               1AZ
118888000118888               118888               170213NH     1400+00000+NH0000010525+0000010525+000000000+000001474+0000011990+0000000009+I20000000000+0000011990+Z
118888001118888065-001009     118888006001023712851XYLOPHONE 23cm         0000001000+00010525+00000+0001T   00010525+0000001701          1400 AT6745               1AZ
118889000118889               118889               170213NH     1400+00000+NH0000000096+0000000096+000000000+000000014+0000000110+0000000000+I20000000000+0000000110+Z
118889001118889112-116069     118889006009681820277TCS CARRIER BAG JUMBO  0000002000+00000048+00000+0001T   00000048+0000001702          1400 AT6090               1AZ
118890000118890               118890               170213NH     1400+00000+NH0000001613+0000001613+000000000+000000226+0000001830+0000000009+I20000000000+0000001830+Z
118890001118890018-000127     118890006001023380289MUG OCC STRAIGHT LOVE  0000001000+00001578+00000+0001T   00001753+0006471703          1400 AT6515               1AZ
118890002118890112-116038     118890006009681820246TCS CARRIER BAG MIDI   0000001000+00000035+00000+0001T   00000035+0000001703          1400 AT6090               1AZ
118891000118891               118891               170213NH     1400+00000+NH0000005260+0000005260+000000000+000000738+0000005990+0000000008+I20000000000+0000005990+Z
118891001118891018-000129     118891006001023403353MUG OCC. LOVE V-SHAPE  0000002000+00002630+00000+0001T   00002630+0000001704          1400 AT6515               1AZ
118892000118892               118892               170213NH     1400+00000+NH0000001314+0000001314+000000000+000000184+0000001490+0000000008+I20000000000+0000001490+Z
118892001118892903-004952     118892006002580020052SWT FREAKY FACES 100G  0000001000+00001314+00000+0001T   00001314+0000001707          1400 AT6150               1AZ
118893000118893               118893               170213NH     1400+00000+NH0000001753+0000001753+000000000+000000246+0000001990+0000000009+I20000000000+0000001990+Z
118893001118893006-000124     118893006003000625888BALLOONS 10PC MIX COL  0000001000+00001753+00000+0001T   00001753+0000001708          1400 AT6131               1AZ
118894000118894               118894               170213NH     1400+00000+NH0000006571+0000006571+000000000+000000922+0000007493+0000000000+I40000007493+0000000000+Z
118894001118894006-000120     118894006001023346889BALLOONS 10PC MIX COL  0000002000+00001753+00000+0001T   00001753+0000001711          1400 AT6131               1AZ
118894002118894006-001000     118894006003000093779HELIUM BALLOON FILL    0000005000+00000613+00000+0001T   00000613+0000001711          1400 AT6131               1AZ
118895000118895               118895               170213NH     1400+00000+NH0000006310+0000006310+000000000+000000885+0000007190+0000000005+I20000000000+0000007190+Z
118895001118895903-000518     118895006001704012782SWT STRAWS S/BERRY 100g0000001000+00001227+00000+0001T   00001227+0000001712          1400 AT6150               1AZ
118895002118895903-000087     118895006001704000161SWT SPECKLED-EGGS 50G  0000001000+00001139+00000+0001T   00001139+0000001712          1400 AT6150               1AZ
118895003118895903-000295     118895006001704002899SWT MS FRUITY RASCALS  0000001000+00000876+00000+0001T   00000876+0000001712          1400 AT6150               1AZ
118895004118895077-000303     118895006001023593757GIFT-BAG PAPER MED     0000001000+00001578+00000+0001T   00001578+0000001712          1400 AT6112               1AZ
118895005118895565-004101     118895006003000548033BALL BOUNCING EGG      0000001000+00001490+00000+0001T   00001490+0000001712          1400 AT6745               1AZ
118896000118896               118896               170213NH     1400+00000+NH0000004246+0000004246+000000000+000000597+0000004843+0000000000+I40000004843+0000000000+Z
118896001118896006-000171-K   118896006003000609697BALLOONS 1PC PURPLE PRN0000003000+00000218+00000+0001T   00000218+0000001714          1400 AT6131               1AZ
118896002118896006-001000     118896006003000093779HELIUM BALLOON FILL    0000003000+00000613+00000+0001T   00000613+0000001714          1400 AT6131               1AZ
118896003118896903-000619     118896006003000672455SWT LOLLY STR/BRRY 140G0000001000+00001753+00000+0001T   00001753+0000001714          1400 AT6150               1AZ
118897000118897               118897               170213NH     1400+00000+NH0000001753+0000001753+000000000+000000246+0000001990+0000000009+I20000000000+0000001990+Z
118897001118897077-000240     118897006003000326259G/RIBBON 4PC PEARLIZED 0000001000+00001753+00000+0001T   00001753+0000001715          1400 AT6112               1AZ
118898000118898               118898               170213NH     1400+00000+NH0000015304+0000015304+000000000+000002145+0000017449+0000000000+I40000017449+0000000000+Z
118898001118898018-000129     118898006001023403353MUG OCC. LOVE V-SHAPE  0000001000+00002630+00000+0001T   00002630+0000001719          1400 AT6515               1AZ
118898002118898368-000049     118898006003000536955PLUSH BEAR 15cm LOVE   0000001000+00004385+00000+0001T   00004385+0000001719          1400 AT6745               1AZ
118898003118898077-000151     118898006008766114676GIFT-WRAP C/PHANE ASSTD0000002000+00000876+00000+0001T   00000876+0000001719          1400 AT6112               1AZ
118898004118898103-000245     118898006003000571550BASKET WOVEN RECT      0000001000+00005262+00000+0001T   00005262+0000001719          1400 AT6300               1AZ
118898005118898077-000245     118898006001023759214GIFT-RIBBON METALLICx2 0000001000+00001227+00000+0001T   00001227+0000001719          1400 AT6112               1AZ
118898006118898112-116069     118898006009681820277TCS CARRIER BAG JUMBO  0000001000+00000048+00000+0001T   00000048+0000001719          1400 AT6090               1AZ
118899000118899               118899               170213NH     1400+00000+NH0000002454+0000002454+000000000+000000344+0000002798+0000000000+I40000002798+0000000000+Z
118899001118899251-000041     118899006001023515889SEAL-TAPE BUFF 48mmx50m0000002000+00001227+00000+0001T   00001227+0000001721          1400 AT6810               1AZ
118900000118900               118900               170213NH     1400+00000+NH0000036467+0000036467+000000000+000005113+0000041580+0000000000+I40000041580+0000000000+Z
118900001118900006-000120     118900006001023346889BALLOONS 10PC MIX COL  0000001000+00001753+00000+0001T   00001753+0000001724          1400 AT6131               1AZ
118900002118900006-001000     118900006003000093779HELIUM BALLOON FILL    0000005000+00000613+00000+0001T   00000613+0000001724          1400 AT6131               1AZ
118900003118900304-001204     118900006001023737984FLOWER OCC. TEDDY/ROSES0000002000+00001402+00000+0001T   00001490+0006471724          1400 AT6510               1AZ
118900004118900080-000133-A   118900006003000647019MINI VALENTINES CARD   0000001000+00000437+00000+0001T   00000437+0000001724          1400 AT6112               1AZ
118900005118900031-000924     118900006001023669964P/FRAME COLLAGE PL     0000001000+00008771+00000+0001T   00008771+0000001724          1400 AT6510               1AZ
118900006118900018-005009     118900006001023725608MUG W/PLUSH-BEAR LOVE  0000002000+00003507+00000+0001T   00003507+0000001724          1400 AT6515               1AZ
118900007118900039-000026     118900006001023551610C/TAPERED 25CM M/RED   0000002000+00001051+00000+0001T   00001051+0000001724          1400 AT6510               1AZ
118900008118900040-000923     118900006001023587831CANDLE-HOLDER GLS 13.5 0000002000+00001753+00000+0001T   00001753+0000001724          1400 AT6510               1AZ
118900009118900368-000049     118900006003000536955PLUSH BEAR 15cm LOVE   0000001000+00004385+00000+0001T   00004385+0000001724          1400 AT6745               1AZ
118900010118900018-000129     118900006001023403353MUG OCC. LOVE V-SHAPE  0000001000+00002630+00000+0001T   00002630+0000001724          1400 AT6515               1AZ
118901000118901               118901               170213NH     1400+00000+NH0000005260+0000005260+000000000+000000738+0000005990+0000000008+I20000000000+0000005990+Z
118901001118901018-000129     118901006001023403353MUG OCC. LOVE V-SHAPE  0000001000+00002630+00000+0001T   00002630+0000001725          1400 AT6515               1AZ
118901002118901077-000270     118901006003000395453GIFT-BAG PPR JMB 33X45 0000001000+00002630+00000+0001T   00002630+0000001725          1400 AT6112               1AZ
118902000118902               118902               170213NH     1400+00000+NH0000007499+0000007499+000000000+000001052+0000008550+0000000001+I20000000000+0000008550+Z
118902001118902080-000127     118902006003000424351VALENTINES DAY 36x24CM 0000001000+00002192+00000+0001T   00002192+0000001726          1400 AT6112               1AZ
118902002118902366-002809     118902006003000222643DRESS UP MOUSTACHE SET 0000002000+00001753+00000+0001T   00001753+0000001726          1400 AT6131               1AZ
118902003118902006-000120     118902006001023346889BALLOONS 10PC MIX COL  0000001000+00001753+00000+0001T   00001753+0000001726          1400 AT6131               1AZ
118902004118902112-116069     118902006009681820277TCS CARRIER BAG JUMBO  0000001000+00000048+00000+0001T   00000048+0000001726          1400 AT6090               1AZ
118903000118903               118903               170213NH     1400+00000+NH0000001613+0000001613+000000000+000000226+0000001830+0000000009+I20000000000+0000001830+Z
118903001118903077-000303     118903006001023593757GIFT-BAG PAPER MED     0000001000+00001578+00000+0001T   00001578+0000001726          1400 AT6112               1AZ
118903002118903112-116038     118903006009681820246TCS CARRIER BAG MIDI   0000001000+00000035+00000+0001T   00000035+0000001726          1400 AT6090               1AZ
118904000118904               118904               170213NH     1400+00000+NH0000003117+0000003117+000000000+000000437+0000003550+0000000004+I20000000000+0000003550+Z
118904001118904301-085008     118904006003000673933ORN OCC.LOVE TINSEL HRT0000001000+00003069+00000+0001T   00003069+0000001727          1400 AT6505               1AZ
118904002118904112-116069     118904006009681820277TCS CARRIER BAG JUMBO  0000001000+00000048+00000+0001T   00000048+0000001727          1400 AT6090               1AZ
118905000118905               118905               170213NH     1400+00000+NH0000001490+0000001490+000000000+000000209+0000001690+0000000009+I20000000000+0000001690+Z
118905001118905077-000452     118905006003000284986G/BAG METALLIC MED EMB 0000001000+00001490+00000+0001T   00001490+0000001727          1400 AT6112               1AZ
118906000118906               118906               170213NH     1400+00000+NH0000014254+0000014254+000000000+000001997+0000016250+0000000001+I20000000000+0000016250+Z
118906001118906077-000299     118906006003000395576G/BAG 32x25cm LRG LOVE 0000001000+00001490+00000+0001T   00001490+0000001728          1400 AT6112               1AZ
118906002118906301-001129     118906000694202803905ORN FOUNTAIN ZEN ASSTD 0000001000+00011402+00000+0001T   00011402+0000001728          1400 AT6505               1AZ
118906003118906112-116069     118906006009681820277TCS CARRIER BAG JUMBO  0000001000+00000048+00000+0001T   00000048+0000001728          1400 AT6090               1AZ
118906004118906046-000012     118906006904708013062BATTERIES AA  CARD-OF-40000001000+00001314+00000+0001T   00001314+0000001728          1400 AT6312               1AZ
118907000118907               118907               170213NH     1400+00000+NH0000001753+0000001753+000000000+000000246+0000001990+0000000009+I20000000000+0000001990+Z
118907001118907054-000801     118907006001023119230WIRE-BRUSH+HANDLE FINE 0000001000+00001753+00000+0001T   00001753+0000001730          1400 AT6810               1AZ
118908000118908               118908               170213NH     1400+00000+NH0000007148+0000007148+000000000+000001002+0000000000+0000000000+ 00000000000+0000000000+Z
118908001118908077-000303     118908006001023593757GIFT-BAG PAPER MED     0000001000+00001578+00000+0001T   00001578+000000              1400 AT61121IC            1 Z
118908002118908077-000310     118908006001023608635GIFT-BAG 18X23CM GLOSS 0000001000+00001314+00000+0001T   00001314+000000              1400 AT61121IC            1 Z
118908003118908018-000127     118908006001023380289MUG OCC STRAIGHT LOVE  0000001000+00001578+00000+0001T   00001753+000647              1400 AT65151IC            1 Z
118908004118908018-000129     118908006001023403353MUG OCC. LOVE V-SHAPE  0000001000+00002630+00000+0001T   00002630+000000              1400 AT65151IC            1 Z
118908005118908112-116069     118908006009681820277TCS CARRIER BAG JUMBO  0000001000+00000048+00000+0001T   00000048+000000              1400 AT60901IC            1 Z
118909000118909               118909               170213NH     1400+00000+NH0000007148+0000007148+000000000+000001002+0000008150+0000000000+I40000008150+0000000000+Z
118909001118909077-000310     118909006001023608635GIFT-BAG 18X23CM GLOSS 0000001000+00001314+00000+0001T   00001314+0000001735          1400 AT6112               1AZ
118909002118909077-000303     118909006001023593757GIFT-BAG PAPER MED     0000001000+00001578+00000+0001T   00001578+0000001735          1400 AT6112               1AZ
118909003118909018-000129     118909006001023403353MUG OCC. LOVE V-SHAPE  0000001000+00002630+00000+0001T   00002630+0000001735          1400 AT6515               1AZ
118909004118909018-000127     118909006001023380289MUG OCC STRAIGHT LOVE  0000001000+00001578+00000+0001T   00001753+0006471735          1400 AT6515               1AZ
118909005118909112-116069     118909006009681820277TCS CARRIER BAG JUMBO  0000001000+00000048+00000+0001T   00000048+0000001735          1400 AT6090               1AZ
118910000118910               118910               170213NH     1400+00000+NH0000016268+0000016268+000000000+000002281+0000018540+0000000009+I20000000000+0000018540+Z
118910001118910563-000318-L   118910006003000407088SERVIETTES 33cm RED    0000001000+00002192+00000+0001T   00002192+0000001736          1400 AT6214               1AZ
118910002118910203-008282     118910006003000597703WINE GLS PL 2PC CHAMP. 0000001000+00001753+00000+0001T   00002630+0008171736          1400 AT6300               1AZ
118910003118910039-000108     118910006001023524034TEA-LITE CANDLES 8PCE  0000002000+00001490+00000+0001T   00001490+0000001736          1400 AT6510               1AZ
118910004118910304-001204     118910006001023737984FLOWER OCC. TEDDY/ROSES0000001000+00001402+00000+0001T   00001490+0006471736          1400 AT6510               1AZ
118910005118910304-001114     118910006001023738219FLWR BUNCH ROSES/LILY  0000001000+00007893+00000+0001T   00007893+0000001736          1400 AT6510               1AZ
118910006118910112-116069     118910006009681820277TCS CARRIER BAG JUMBO  0000001000+00000048+00000+0001T   00000048+0000001736          1400 AT6090               1AZ
118911000118911               118911               170213NH     1400+00000+NH0000011885+0000011885+000000000+000001666+0000013550+0000000001+I20000000000+0000013550+Z
118911001118911365-003056     118911006009635021453KIDDIES WOODEN BROOM   0000001000+00003069+00000+0001T   00003069+0000001739          1400 AT6725               1AZ
118911002118911564-000036     118911006001023708694BUBBLE W/PUZZLE        0000001000+00001490+00000+0001T   00001490+0000001739          1400 AT6131               1AZ
118911003118911903-000087     118911006001704000161SWT SPECKLED-EGGS 50G  0000001000+00001139+00000+0001T   00001139+0000001739          1400 AT6150               1AZ
118911004118911261-003903     118911006001023827746GUN SET ARMY ASSTD     0000001000+00006139+00000+0001T   00006139+0000001739          1400 AT6710               1AZ
118911005118911112-116069     118911006009681820277TCS CARRIER BAG JUMBO  0000001000+00000048+00000+0001T   00000048+0000001739          1400 AT6090               1AZ
118912000118912               118912               170213NH     1400+00000+NH0000010523+0000010523+000000000+000001474+0000011990+0000000007+I20000000000+0000011990+Z
118912001118912077-000301     118912008010410010188BAG LRG 25X32CM B/DAY  0000001000+00001753+00000+0001T   00001753+0000001742          1400 AT6112               1AZ
118912002118912048-000755     118912006003000041282LANTERN PIVOT B/O 12LED0000001000+00004385+00000+0001T   00004385+0000001742          1400 AT6305               1AZ
118912003118912301-000015     118912006001023479907ORN SENTIMENT STONE    0000001000+00004385+00000+0001T   00004385+0000001742          1400 AT6505               1AZ
118913000118913               118913               170213NH     1400+00000+NH0000002192+0000002192+000000000+000000307+0000002490+0000000009+I20000000000+0000002490+Z
118913001118913080-000127     118913006003000424351VALENTINES DAY 36x24CM 0000001000+00002192+00000+0001T   00002192+0000001743          1400 AT6112               1AZ
118914000118914               118914               170213NH     1400+00000+NH0000002192+0000002192+000000000+000000307+0000002490+0000000009+I20000000000+0000002490+Z
118914001118914563-000318-L   118914006003000407088SERVIETTES 33cm RED    0000001000+00002192+00000+0001T   00002192+0000001746          1400 AT6214               1AZ
118915000118915               118915               170213NH     1400+00000+NH0000005699+0000005699+000000000+000000798+0000006497+0000000000+I40000006497+0000000000+Z
118915001118915368-000049     118915006003000536955PLUSH BEAR 15cm LOVE   0000001000+00004385+00000+0001T   00004385+0000001750          1400 AT6745               1AZ
118915002118915077-000310     118915006001023608635GIFT-BAG 18X23CM GLOSS 0000001000+00001314+00000+0001T   00001314+0000001750          1400 AT6112               1AZ
118916000118916               118916               170213NH     1400+00000+NH0000010309+0000010309+000000000+000001444+0000011750+0000000003+I20000000000+0000011750+Z
118916001118916001-091415     118916006003000329113W/GLS OCC. LOVE 2PC 2800000001000+00008771+00000+0001T   00009648+0006471752          1400 AT6515               1AZ
118916002118916077-000299     118916006003000395576G/BAG 32x25cm LRG LOVE 0000001000+00001490+00000+0001T   00001490+0000001752          1400 AT6112               1AZ
118916003118916112-116069     118916006009681820277TCS CARRIER BAG JUMBO  0000001000+00000048+00000+0001T   00000048+0000001752          1400 AT6090               1AZ
118917000118917               118917               170213NH     1400+00000+NH0000005963+0000005963+000000000+000000835+0000006790+0000000008+I20000000000+0000006790+Z
118917001118917077-000303     118917006001023593757GIFT-BAG PAPER MED     0000001000+00001578+00000+0001T   00001578+0000001752          1400 AT6112               1AZ
118917002118917001-000175     118917006001023788108B/MUG GLS LOVE 380ML   0000001000+00004385+00000+0001T   00004385+0000001752          1400 AT6515               1AZ
118918000118918               118918               170213NH     1400+00000+NH0000005260+0000005260+000000000+000000738+0000005998+0000000000+I40000005998+0000000000+Z
118918001118918079-013101     118918006001023863706CRAFT SET DIY PIPE-CLNR0000002000+00002630+00000+0001T   00002630+0000001755          1400 AT6130               1AZ
118919000118919               118919               170213NH     1400+00000+NH0000010083+0000010083+000000000+000001413+0000011496+0000000000+I40000011496+0000000000+Z
118919001118919082-098799     118919006001492987996SUNGLASS KIDS BOYS     0000001000+00003946+00000+0001T   00003946+0000001757          1400 AT6160               1AZ
118919002118919162-090787     118919006001492907871SS 6PK HAIRBANDS BROWNS0000001000+00002630+00000+0001T   00002630+0000001757          1400 AT6160               1AZ
118919003118919362-002467     118919006003000167623HAIR EXT LONG 61cm     0000001000+00003507+00000+0001T   00003507+0000001757          1400 AT6160               1AZ
118920000118920               118920               170213NH     1400+00000+NH0000001753+0000001753+000000000+000000246+0000001990+0000000009+I20000000000+0000001990+Z
118920001118920006-000120     118920006001023346889BALLOONS 10PC MIX COL  0000001000+00001753+00000+0001T   00001753+0000001758          1400 AT6131               1AZ
A17021300                                          17410080NHSLAVE 1                       AT61IC
B11881900                                          170213NH024-000116     11163327SLAVE 1     AT61IC0000002000+0000001000+0000000000000+
B11886000                                          170213NH077-000303     15002075SLAVE 1     AT61IC0000002000+0000001000+0000000000000+
C11885600                                          170213NH030-000031-A   14313482SLAVE 1     AT61IC0000000000+0000000000+0010000001000+
C11887300                                          170213NH077-000351     16320662SLAVE 1     AT61IC0000000000+0000000000+0010000002000+
C11887301                                          170213NH301-000070     16321176SLAVE 1     AT61IC0000000000+0000000000+0020000002000+
M17021391                              CASH        NHSLAVE 1                       Z-REPORT No.   552TOTAL (Sales - Refunds)           8839.66       CASH TO BE BANKED                 4291.90       DEBIT CARDS                          0.00       CREDIT CARDS                      4547.76       Z-READING                         8839.66       AIRTIME DEBIT CARD SALES             0.00       AIRTIME CARD SALES                   0.00       OVERS/UNDERS                         0.00       AIRTIME CASH SALES                   0.00       GIFT CARDS                           0.00       GIFT CARD CASH SALES                 0.00       T O T A L  CASH PAYOUTS              0.00                                                                                                                                                                                                                                                                                                                                                      Z
M17021392                              CASH        NHABSENT                                                                                                                                                                                          ANNUAL LEAVE                                                                                                                                                                                    DAY OFF                                                                                                                                                                                         COMMENTS                                                                                                                                                                                                                                                                                                                                                                                       Z
Y17021300                                          NH00000000775756+000108
ZNH17021321123 SLAVE 1      SALES DATA                     NEXT INVOICE NO.  118921 0552
X NH Slave 1 First invoice 118812 170213 Last invoice 118920 170213 Next invoice 118921 Total number of records 000000386 clbackup completed 21:12:00
