139792000139792               139792               170213NH     1400+00000+NH0000001753+0000001753+000000000+000000246+0000001990+0000000009+I20000000000+0000001990+Z
139792001139792002-001068     139792006001023812001DISP. BOTTLES PL H/H   0000001000+00001753+00000+0001T   00001753+0000000946          1400 PM6300               3AZ
139793000139793               139793               170213NH     1400+00000+NH0000000035+0000000035+000000000+000000005+0000000040+0000000000+I20000000000+0000000040+Z
139793001139793112-116038     139793006009681820246TCS CARRIER BAG MIDI   0000001000+00000035+00000+0001T   00000035+0000000947          1400 PM6090               3AZ
139794000139794               139794               170213NH     1400+00000+NH0000008817+0000008817+000000000+000001236+0000010050+0000000003+I20000000000+0000010050+Z
139794001139794562-002003     139794006003000228898EDU LEARN TO COUNT     0000001000+00007016+00000+0001T   00007016+0000000951          1400 PM6755               3AZ
139794002139794077-000381     139794006003000247707GIFT-BAG 25X32CM S/COL 0000001000+00001753+00000+0001T   00001753+0000000951          1400 PM6112               3AZ
139794003139794112-116069     139794006009681820277TCS CARRIER BAG JUMBO  0000001000+00000048+00000+0001T   00000048+0000000951          1400 PM6090               3AZ
139795000139795               139795               170213NH     1400+00000+NH0000004385+0000004385+000000000+000000614+0000004999+0000000000+I40000004999+0000000000+Z
139795001139795016-006497     139795006003000120055S/JAR-SET 4PCE MINI    0000001000+00004385+00000+0001T   00004385+0000000953          1400 PM6300               3AZ
139796000139796               139796               170213NH     1400+00000+NH0000008770+0000008770+000000000+000001228+0000009998+0000000000+I40000009998+0000000000+Z
139796001139796368-000049     139796006003000536955PLUSH BEAR 15cm LOVE   0000002000+00004385+00000+0001T   00004385+0000001017          1400 PM6745               3AZ
139797000139797               139797               170213NH     1400+00000+NH0000008806+0000008806+000000000+000001233+0000010039+0000000000+I40000010039+0000000000+Z
139797001139797001-091415     139797006003000329113W/GLS OCC. LOVE 2PC 2800000001000+00008771+00000+0001T   00009648+0006471038          1400 PM6515               3AZ
139797002139797112-116038     139797006009681820246TCS CARRIER BAG MIDI   0000001000+00000035+00000+0001T   00000035+0000001038          1400 PM6090               3AZ
139798000139798               139798               170213NH     1400+00000+NH0000002630+0000002630+000000000+000000369+0000002990+0000000009+I20000000000+0000002990+Z
139798001139798077-000235     139798006003000160211GIFT-RIBBON ROLL METALC0000001000+00002630+00000+0001T   00002630+0000001039          1400 PM6112               3AZ
139799000139799               139799               170213NH     1400+00000+NH0000002630+0000002630+000000000+000000369+0000002990+0000000009+I20000000000+0000002990+Z
139799001139799108-003023     139799006003000665471TUMBLER W/STRAW 550ml  0000001000+00002630+00000+0001T   00002630+0000001041          1400 PM6210               3AZ
139800000139800               139800               170213NH     1400+00000+NH0000005260+0000005260+000000000+000000738+0000005990+0000000008+I20000000000+0000005990+Z
139800001139800306-001622     139800006003000450091INNER SOLES 1-PAIR     0000002000+00002630+00000+0001T   00002630+0000001055          1400 PM6200               3AZ
139801000139801               139801               170213NH     1400+00000+NH0000002240+0000002240+000000000+000000314+0000002554+0000000000+I40000002554+0000000000+Z
139801001139801080-000127     139801006003000424351VALENTINES DAY 36x24CM 0000001000+00002192+00000+0001T   00002192+0000001058          1400 PM6112               3AZ
139801002139801112-116069     139801006009681820277TCS CARRIER BAG JUMBO  0000001000+00000048+00000+0001T   00000048+0000001058          1400 PM6090               3AZ
139802000139802               139802               170213NH     1400+00000+NH0000010522+0000010522+000000000+000001475+0000011990+0000000007+I20000000000+0000011990+Z
139802001139802018-000139     139802006003000547227MUG S/WARE SLANTED SHPE0000001000+00001753+00000+0001T   00002630+0008171100          1400 PM6515               3AZ
139802002139802018-000025     139802006003000095056MUG S/WARE V-SHAPE CER.0000001000+00002630+00000+0001T   00002630+0000001100          1400 PM6515               3AZ
139802003139802007-000898     139802006001023871947BOOK JOURNAL           0000001000+00006139+00000+0001T   00006139+0000001100          1400 PM6130               3AZ
139803000139803               139803               170213NH     1400+00000+NH0000007940+0000007940+000000000+000001112+0000009050+0000000002+I20000000000+0000009050+Z
139803001139803112-116069     139803006009681820277TCS CARRIER BAG JUMBO  0000001000+00000048+00000+0001T   00000048+0000001111          1400 PM6090               3AZ
139803002139803038-000215     139803006003000621613PLACE-MAT RECT 30x40cm 0000001000+00003507+00000+0001T   00003507+0000001111          1400 PM6300               3AZ
139803003139803009-001506     139803006001023696090MELAMINE TRAY 39x29cm  0000001000+00004385+00000+0001T   00004385+0000001111          1400 PM6210               3AZ
139804000139804               139804               170213NH     1400+00000+NH0000000035+0000000035+000000000+000000005+0000000040+0000000000+I20000000000+0000000040+Z
139804001139804112-116038     139804006009681820246TCS CARRIER BAG MIDI   0000001000+00000035+00000+0001T   00000035+0000001120          1400 PM6090               3AZ
139805000139805               139805               170213NH     1400+00000+NH0000005700-0000005700-000000000+000000798-0000006500-0000000002+I20000000000+0000006500-Z
139805001139805075-000412     139805006001023855299SHOPPER-BASKET PL      0000001000-00005700+00000+0001T   00005700+0000001130          1400 PM61602IC            3 Z
139806000139806               139806               170213NH     1400+00000+NH0000008377+0000008377+000000000+000001175+0000009550+0000000002+I20000000000+0000009550+Z
139806001139806304-001200     139806006003000427239FLOWER HYDRANGEA 66CM  0000001000+00002630+00000+0001T   00002630+0000001134          1400 PM6510               3AZ
139806002139806304-001488     139806006003000035373FLOWER GLADIOLUS 79cm  0000001000+00002630+00000+0001T   00002630+0000001134          1400 PM6510               3AZ
139806003139806304-001508     139806006003000036165FLWR ORCHID SPRAY 77CM 0000001000+00003069+00000+0001T   00003069+0000001134          1400 PM6510               3AZ
139806004139806112-116069     139806006009681820277TCS CARRIER BAG JUMBO  0000001000+00000048+00000+0001T   00000048+0000001134          1400 PM6090               3AZ
139807000139807               139807               170213NH     1400+00000+NH0000001227+0000001227+000000000+000000172+0000001390+0000000009+I20000000000+0000001390+Z
139807001139807251-000041     139807006001023515889SEAL-TAPE BUFF 48mmx50m0000001000+00001227+00000+0001T   00001227+0000001140          1400 PM6810               3AZ
139808000139808               139808               170213NH     1400+00000+NH0000002980+0000002980+000000000+000000418+0000003398+0000000000+I40000003398+0000000000+Z
139808001139808077-000299     139808006003000395576G/BAG 32x25cm LRG LOVE 0000002000+00001490+00000+0001T   00001490+0000001141          1400 PM6112               3AZ
139809000139809               139809               170213NH     1400+00000+NH0000082566+0000082566+000000000+000011566+0000094132+0000000000+I40000094132+0000000000+Z
139809001139809003-000141     139809006001023806758ORN FROG ON MUSHROOM   0000001000+00004385+00000+0001T   00004385+0000001150          1400 PM6505               3AZ
139809002139809003-008010     139809006001023711373ORN FIG. FARMER ASST   0000001000+00005262+00000+0001T   00005262+0000001150          1400 PM6505               3AZ
139809003139809003-002360     139809006001023996008 ORN SOLAR LIGHT GNOME 0000002000+00005262+00000+0001T   00005262+0000001150          1400 PM6505               3AZ
139809004139809038-001805     139809006003000466405DOILIES PAPER 60PC 3ASS0000001000+00003069+00000+0001T   00003069+0000001150          1400 PM6300               3AZ
139809005139809369-000100     139809006003000596256BABY BATH TOY SURFER   0000001000+00003507+00000+0001T   00003507+0000001150          1400 PM6745               3AZ
139809006139809112-116069     139809006009681820277TCS CARRIER BAG JUMBO  0000001000+00000048+00000+0001T   00000048+0000001150          1400 PM6090               3AZ
139809007139809903-000591     139809006003000563616SWEET ANIMAL 24cm      0000001000+00002630+00000+0001T   00002630+0000001150          1400 PM6150               3AZ
139809008139809003-008020     139809006001023762214ORN GNOME HANGING 17CM 0000002000+00004385+00000+0001T   00004385+0000001150          1400 PM6505               3AZ
139809009139809019-071600     139809006001023771971RIVER-STONES 1kg MIXED 0000001000+00002630+00000+0001T   00002630+0000001150          1400 PM6510               3AZ
139809010139809019-071601     139809006001023771995RIVER-STONES 1kg WHITE 0000001000+00002630+00000+0001T   00002630+0000001150          1400 PM6510               3AZ
139809011139809003-009107     139809006003000456727Garden Welcome Signs   0000001000+00005262+00000+0001T   00005262+0000001150          1400 PM6505               3AZ
139809012139809031-000924     139809006001023669964P/FRAME COLLAGE PL     0000001000+00008771+00000+0001T   00008771+0000001150          1400 PM6510               3AZ
139809013139809031-001008     139809006003000406494P/FRAME COLLAGE PLASTIC0000001000+00012279+00000+0001T   00012279+0000001150          1400 PM6510               3AZ
139809014139809112-116069     139809006009681820277TCS CARRIER BAG JUMBO  0000001000+00000048+00000+0001T   00000048+0000001150          1400 PM6090               3AZ
139809015139809031-000924     139809006001023669964P/FRAME COLLAGE PL     0000001000+00008771+00000+0001T   00008771+0000001150          1400 PM6510               3AZ
139809016139809079-013032     139809006003000389209SET LETTERS 2 ASSTD    0000001000+00001753+00000+0001T   00001753+0000001150          1400 PM6130               3AZ
139809017139809024-000042     139809006002580009255M/CUP MINI 30ML H/HOUSE0000001000+00002192+00000+0001T   00002192+0000001150          1400 PM6300               3AZ
139809018139809112-116038     139809006009681820246TCS CARRIER BAG MIDI   0000001000+00000035+00000+0001T   00000035+0000001150          1400 PM6090               3AZ
139810000139810               139810               170213NH     1400+00000+NH0000002104+0000002104+000000000+000000295+0000002390+0000000009+I20000000000+0000002390+Z
139810001139810903-000090     139810006009826020821SWT GS CHOCO COINS 60g 0000001000+00002104+00000+0001T   00002104+0000001150          1400 PM6150               3AZ
139811000139811               139811               170213NH     1400+00000+NH0000004558+0000004558+000000000+000000639+0000005197+0000000000+I40000005197+0000000000+Z
139811001139811903-000087     139811006001704000161SWT SPECKLED-EGGS 50G  0000001000+00001139+00000+0001T   00001139+0000001204          1400 NN7150               3AZ
139811002139811903-000504     139811006001704012416SWT CHOC JELLY BEANS   0000001000+00001227+00000+0001T   00001227+0000001204          1400 NN7150               3AZ
139811003139811018-000170     139811006001023775528MUG OCC. LOVE 2PC MINI 0000001000+00002192+00000+0001T   00002192+0000001204          1400 NN7515               3AZ
139812000139812               139812               170213NH     1400+00000+NH0000001578+0000001578+000000000+000000221+0000001790+0000000009+I20000000000+0000001790+Z
139812001139812018-000127     139812006001023380289MUG OCC STRAIGHT LOVE  0000001000+00001578+00000+0001T   00001753+0006471204          1400 NN7515               3AZ
139813000139813               139813               170213NH     1400+00000+NH0000003069+0000003069+000000000+000000430+0000003499+0000000000+I40000003499+0000000000+Z
139813001139813366-007932     139813006003000238057ACCESS CLOWN BOWTIE    0000001000+00003069+00000+0001T   00003069+0000001206          1400 NN7131               3AZ
139814000139814               139814               170213NH     1400+00000+NH0000019248+0000019248+000000000+000002697+0000021945+0000000000+I40000021945+0000000000+Z
139814001139814261-003342     139814006001023484895GUN RIFLE ACTION-TEAM  0000001000+00004385+00000+0001T   00004385+0000001209          1400 NN7710               3AZ
139814002139814261-003901     139814006001023707451GUN SET PL POLICE+ACCES0000001000+00004385+00000+0001T   00004385+0000001209          1400 NN77102IC            3AZ
139814003139814007-000566     139814006003000640898NOVELTY PHONE NOTE-PAD 0000001000+00001490+00000+0001T   00001490+0000001209          1400 NN7130               3AZ
139814004139814261-000004     139814006003000599578GUN SPACE PING PONG    0000001000+00003507+00000+0001T   00003507+0000001209          1400 NN7710               3AZ
139814005139814007-000566     139814006003000640898NOVELTY PHONE NOTE-PAD 0000002000+00001490+00000+0001T   00001490+0000001209          1400 NN7130               3AZ
139814006139814261-002267     139814006001023665126GUN 8-SHOT SUPER-CAP   0000001000+00001753+00000+0001T   00001753+0000001209          1400 NN7710               3AZ
139814007139814261-000121     139814006001023341600GUN-CAPS 8-SHOT CARD-9 0000001000+00000700+00000+0001T   00000700+0000001209          1400 NN7710               3AZ
139814008139814112-116069     139814006009681820277TCS CARRIER BAG JUMBO  0000001000+00000048+00000+0001T   00000048+0000001209          1400 NN7090               3AZ
139815000139815               139815               170213NH     1400+00000+NH0000005033+0000005033+000000000+000000705+0000005738+0000000000+I40000005738+0000000000+Z
139815001139815304-001011     139815006001023806727FLWR ROSE RED W/BEAR   0000001000+00000613+00000+0001T   00000788+0006471227          1400 PM6510               3AZ
139815002139815001-000175     139815006001023788108B/MUG GLS LOVE 380ML   0000001000+00004385+00000+0001T   00004385+0000001227          1400 PM6515               3AZ
139815003139815112-116038     139815006009681820246TCS CARRIER BAG MIDI   0000001000+00000035+00000+0001T   00000035+0000001227          1400 PM6090               3AZ
139816000139816               139816               170213NH     1400+00000+NH0000002192+0000002192+000000000+000000307+0000002490+0000000009+I20000000000+0000002490+Z
139816001139816200-000200     139816006008766091144BAKING ALUM FOIL 2PCE  0000001000+00002192+00000+0001T   00002192+0000001228          1400 PM6214               3AZ
139817000139817               139817               170213NH     1400+00000+NH0000001227+0000001227+000000000+000000172+0000001390+0000000009+I20000000000+0000001390+Z
139817001139817071-081091     139817006001151010287STAED/GENKEM ALL-STICK 0000001000+00001227+00000+0001T   00001227+0000001229          1400 PM6130               3AZ
139818000139818               139818               170213NH     1400+00000+NH0000004385+0000004385+000000000+000000614+0000004999+0000000000+I40000004999+0000000000+Z
139818001139818082-007585     139818006003000654093SUNGLASS DESIGNER ASST 0000001000+00004385+00000+0001T   00004385+0000001231          1400 PM6160               3AZ
139819000139819               139819               170213NH     1400+00000+NH0000002192+0000002192+000000000+000000307+0000002490+0000000009+I20000000000+0000002490+Z
139819001139819007-000046     139819006009635831366DISPLAY-BOOK PL A4 30PG0000001000+00002192+00000+0001T   00002192+0000001234          1400 PM6130               3AZ
139820000139820               139820               170213NH     1400+00000+NH0000014503+0000014503+000000000+000002033+0000016530+0000000006+I20000000000+0000016530+Z
139820001139820903-000211     139820006002099001238SWT GS MALLOW ICE CREAM0000001000+00001753+00000+0001T   00001753+0000001251          1400 PM6150               3AZ
139820002139820016-002000     139820006003000674404S/BOTTLE GLS W/PL CAP  0000001000+00002630+00000+0001T   00002630+0000001251          1400 PM6300               3AZ
139820003139820200-000306     139820006003000358144TOAST BAGS 2-PACK      0000001000+00003069+00000+0001T   00003069+0000001251          1400 PM6214               3AZ
139820004139820079-000590     139820006003000543236SKETCH PAD & PAINT SET 0000001000+00007016+00000+0001T   00007016+0000001251          1400 PM6130               3AZ
139820005139820112-116038     139820006009681820246TCS CARRIER BAG MIDI   0000001000+00000035+00000+0001T   00000035+0000001251          1400 PM6090               3AZ
139821000139821               139821               170213NH     1400+00000+NH0000007892+0000007892+000000000+000001105+0000008997+0000000000+I40000008997+0000000000+Z
139821002139821403-000006     139821006001023805362JEWEL STAND PL         0000001000+00005700+00000+0001T   00005700+0000001308          1400 PM6510               3AZ
139821003139821080-000127     139821006003000424351VALENTINES DAY 36x24CM 0000001000+00002192+00000+0001T   00002192+0000001308          1400 PM6112               3AZ
139822000139822               139822               170213NH     1400+00000+NH0000003506+0000003506+000000000+000000492+0000003990+0000000008+I20000000000+0000003990+Z
139822001139822903-000624     139822006003000671793SWEET LOLLY BLU/BRRY   0000001000+00001753+00000+0001T   00001753+0000001309          1400 PM6150               3AZ
139822002139822903-000619     139822006003000672455SWT LOLLY STR/BRRY 140G0000001000+00001753+00000+0001T   00001753+0000001309          1400 PM6150               3AZ
139823000139823               139823               170213NH     1400+00000+NH0000033794+0000033794+000000000+000004735+0000038520+0000000009+I20000000000+0000038520+Z
139823001139823564-001028     139823006001023708663BUBBLE CELEBRATION 6ml 0000011000+00003069+00000+0001T   00003069+0000001311          1400 PM6131               3AZ
139823002139823112-116038     139823006009681820246TCS CARRIER BAG MIDI   0000001000+00000035+00000+0001T   00000035+0000001311          1400 PM6090               3AZ
139824000139824               139824               170213NH     1400+00000+NH0000002192+0000002192+000000000+000000307+0000002490+0000000009+I20000000000+0000002490+Z
139824001139824080-000127     139824006003000424351VALENTINES DAY 36x24CM 0000001000+00002192+00000+0001T   00002192+0000001311          1400 PM6112               3AZ
139825000139825               139825               170213NH     1400+00000+NH0000005698+0000005698+000000000+000000799+0000006490+0000000007+I20000000000+0000006490+Z
139825001139825089-000004     139825006003000137749KEY CHAIN MTL CHARMS   0000002000+00001753+00000+0001T   00001753+0000001314          1400 PM6205               3AZ
139825002139825080-000127     139825006003000424351VALENTINES DAY 36x24CM 0000001000+00002192+00000+0001T   00002192+0000001314          1400 PM6112               3AZ
139826000139826               139826               170213NH     1400+00000+NH0000003330+0000003330+000000000+000000467+0000003797+0000000000+I40000003797+0000000000+Z
139826001139826018-000127     139826006001023380289MUG OCC STRAIGHT LOVE  0000001000+00001578+00000+0001T   00001753+0006471316          1400 PM6515               3AZ
139826002139826078-000025     139826008887013700064SUPERGLUE 3g 1PCE CARD 0000001000+00000876+00000+0001T   00000876+0000001316          1400 PM6810               3AZ
139826003139826031-000878-A   139826006001023798985P/FRAME 10x15cm PL-SLID0000001000+00000876+00000+0001T   00000876+0000001316          1400 PM6510               3AZ
139827000139827               139827               170213NH     1400+00000+NH0000010572+0000010572+000000000+000001481+0000012050+0000000003+I20000000000+0000012050+Z
139827001139827001-000175     139827006001023788108B/MUG GLS LOVE 380ML   0000001000+00004385+00000+0001T   00004385+0000001410          1400 AT8515               3AZ
139827002139827365-000024     139827006003000655236PLAY-SET TEA-SET       0000001000+00006139+00000+0001T   00006139+0000001410          1400 AT8725               3AZ
139827004139827112-116069     139827006009681820277TCS CARRIER BAG JUMBO  0000001000+00000048+00000+0001T   00000048+0000001410          1400 AT8090               3AZ
139828000139828               139828               170213NH     1400+00000+NH0000026358+0000026358+000000000+000003691+0000030049+0000000000+I40000030049+0000000000+Z
139828001139828112-116069     139828006009681820277TCS CARRIER BAG JUMBO  0000001000+00000048+00000+0001T   00000048+0000001426          1400 AT8090               3AZ
139828002139828104-000053     139828006003000011193BASKET PL 25X32X6cm    0000006000+00004385+00000+0001T   00004385+0000001426          1400 AT8210               3AZ
139829000139829               139829               170213NH     1400+00000+NH0000016692+0000016692+000000000+000002340+0000019032+0000000000+I40000019032+0000000000+Z
139829001139829112-116038     139829006009681820246TCS CARRIER BAG MIDI   0000001000+00000035+00000+0001T   00000035+0000001430          1400 AT8090               3AZ
139829002139829079-013032-E   139829006003000389766ART+CRAFT COL/PAPER    0000001000+00002630+00000+0001T   00002630+0000001430          1400 AT8130               3AZ
139829003139829079-000600     139829006003000160990ART-SHEETS FOAM ASSTD-C0000001000+00003507+00000+0001T   00003507+0000001430          1400 AT8130               3AZ
139829004139829566-000064     139829006001023689702STICKERS GLITTER BORDER0000001000+00003507+00000+0001T   00003507+0000001430          1400 AT8130               3AZ
139829005139829079-000260     139829006001023886385PAINT TUBS WT BASE 4COL0000001000+00002630+00000+0001T   00002630+0000001430          1400 AT8130               3AZ
139829006139829903-000211     139829006002099001238SWT GS MALLOW ICE CREAM0000001000+00001753+00000+0001T   00001753+0000001430          1400 AT8150               3AZ
139829007139829200-000104     139829006003000677412PICNIC CUPS PL 6PCE    0000001000+00002630+00000+0001T   00002630+0000001430          1400 AT8214               3AZ
139830000139830               139830               170213NH     1400+00000+NH0000002192+0000002192+000000000+000000307+0000002490+0000000009+I20000000000+0000002490+Z
139830001139830108-001208     139830006003000667147ICE CREAM BOWLS 4-PACK 0000001000+00002192+00000+0001T   00002192+0000001432          1400 AT8210               3AZ
139831000139831               139831               170213NH     1400+00000+NH0000002630+0000002630+000000000+000000369+0000002990+0000000009+I20000000000+0000002990+Z
139831001139831079-013101     139831006001023863706CRAFT SET DIY PIPE-CLNR0000001000+00002630+00000+0001T   00002630+0000001435          1400 PM6130               3AZ
139832000139832               139832               170213NH     1400+00000+NH0000020288+0000020288+000000000+000002844+0000023132+0000000000+I40000023132+0000000000+Z
139832001139832079-013101     139832006001023863706CRAFT SET DIY PIPE-CLNR0000001000+00002630+00000+0001T   00002630+0000001441          1400 PM6130               3AZ
139832002139832112-116038     139832006009681820246TCS CARRIER BAG MIDI   0000001000+00000035+00000+0001T   00000035+0000001441          1400 PM6090               3AZ
139832003139832206-000310     139832006003000632787BOTTLE-STOPPER SILICONE0000001000+00002630+00000+0001T   00002630+0000001441          1400 PM6321               3AZ
139832004139832206-000630     139832006003000631919SPECTACLE CLEANING BRUS0000001000+00001227+00000+0001T   00001227+0000001441          1400 PM6321               3AZ
139832005139832206-000290     139832006003000632541BOTTLE OPENER SILICONE 0000001000+00002630+00000+0001T   00002630+0000001441          1400 PM6321               3AZ
139832006139832206-000170     139832006003000631100POT HOLDER MTL MAN 20CM0000001000+00006139+00000+0001T   00006139+0000001441          1400 PM6321               3AZ
139832007139832077-000299     139832006003000395576G/BAG 32x25cm LRG LOVE 0000001000+00001490+00000+0001T   00001490+0000001441          1400 PM6112               3AZ
139832008139832206-000610     139832006003000631674BOMB SHOTS PL 10PC     0000001000+00003507+00000+0001T   00003507+0000001441          1400 PM6321               3AZ
139833000139833               139833               170213NH     1400+00000+NH0000017150+0000017150+000000000+000002402+0000019552+0000000000+I40000019552+0000000000+Z
139833001139833046-000012     139833006904708013062BATTERIES AA  CARD-OF-40000001000+00001314+00000+0001T   00001314+0000001448          1400 PM6312               3AZ
139833002139833265-000312     139833006003000014187ATTERY OPERATED D/SAUR 0000001000+00015788+00000+0001T   00015788+0000001448          1400 PM6710               3AZ
139833003139833112-116069     139833006009681820277TCS CARRIER BAG JUMBO  0000001000+00000048+00000+0001T   00000048+0000001448          1400 PM6090               3AZ
139834000139834               139834               170213NH     1400+00000+NH0000035605+0000035605+000000000+000004986+0000040591+0000000000+I40000040591+0000000000+Z
139834001139834301-001123     139834000694202803967ORN FOUNTAIN MEDITATION0000001000+00015788+00000+0001T   00015788+0000001453          1400 PM6505               3AZ
139834002139834046-000012-A   139834006003000208296BATTERIES H/POWER SZ:AA0000001000+00002192+00000+0001T   00002192+0000001453          1400 PM6312               3AZ
139834003139834301-001125     139834000694202803950ORN FOUNTAIN TOWER     0000001000+00017542+00000+0001T   00017542+0000001453          1400 PM6505               3AZ
139834004139834112-116069     139834006009681820277TCS CARRIER BAG JUMBO  0000001000+00000048+00000+0001T   00000048+0000001453          1400 PM6090               3AZ
139834005139834112-116038     139834006009681820246TCS CARRIER BAG MIDI   0000001000+00000035+00000+0001T   00000035+0000001453          1400 PM6090               3AZ
139835000139835               139835               170213NH     1400+00000+NH0000009682+0000009682+000000000+000001356+0000011030+0000000008+I20000000000+0000011030+Z
139835001139835030-000031-A   139835006003000457588PLAQUE W/WORDS ASSTD   0000001000+00004385+00000+0001T   00004823+0006471507          1400 PM6505               3AZ
139835002139835018-019000     139835006003000557288MUG OCC. LOVE JUMBO    0000001000+00005262+00000+0001T   00005262+0000001507          1400 PM6515               3AZ
139835003139835112-116038     139835006009681820246TCS CARRIER BAG MIDI   0000001000+00000035+00000+0001T   00000035+0000001507          1400 PM6090               3AZ
139836000139836               139836               170213NH     1400+00000+NH0000004470+0000004470+000000000+000000626+0000005090+0000000006+I20000000000+0000005090+Z
139836001139836030-000010     139836006003000084395P/DOOR HANGER 2-ASSTD  0000001000+00001314+00000+0001T   00001490+0008181509          1400 PM6505               3AZ
139836002139836080-000124     139836006003000297733CARD & ENV VALENTINES  0000001000+00001578+00000+0001T   00001578+0000001509          1400 PM6112               3AZ
139836003139836018-000127     139836006001023380289MUG OCC STRAIGHT LOVE  0000001000+00001578+00000+0001T   00001753+0006471509          1400 PM6515               3AZ
139837000139837               139837               170213NH     1400+00000+NH0000001753+0000001753+000000000+000000246+0000001990+0000000009+I20000000000+0000001990+Z
139837001139837077-000472     139837006003000330133G-BAG DESGNR LRG 25X32 0000001000+00001753+00000+0001T   00001753+0000001526          1400 PM6112               3AZ
139838000139838               139838               170213NH     1400+00000+NH0000001314+0000001314+000000000+000000184+0000001498+0000000000+I40000001498+0000000000+Z
139838001139838251-000001     139838006001023487681TAPE DBL-SIDE 18x1000mm0000001000+00001314+00000+0001T   00001314+0000001527          1400 PM6810               3AZ
139839000139839               139839               170213NH     1400+00000+NH0000004385+0000004385+000000000+000000614+0000004990+0000000009+I20000000000+0000004990+Z
139839001139839082-000120     139839006003000360727READING GLS STRENGTH:3 0000001000+00004385+00000+0001T   00004385+0000001531          1400 NN7160               3AZ
139840000139840               139840               170213NH     1400+00000+NH0000005699+0000005699+000000000+000000799+0000006490+0000000008+I20000000000+0000006490+Z
139840001139840080-000133-A   139840006003000647019MINI VALENTINES CARD   0000001000+00000437+00000+0001T   00000437+0000001535          1400 PM6112               3AZ
139840002139840103-000474     139840006003000630363BAMBOO FLOWER BASKET   0000001000+00005262+00000+0001T   00005262+0000001535          1400 PM6300               3AZ
139841000139841               139841               170213NH     1400+00000+NH0000002665+0000002665+000000000+000000374+0000003030+0000000009+I20000000000+0000003030+Z
139841001139841031-086219     139841006001023761729P/FRAME 9x13cm CURVED  0000001000+00002630+00000+0001T   00002630+0000001537          1400 PM6510               3AZ
139841002139841112-116038     139841006009681820246TCS CARRIER BAG MIDI   0000001000+00000035+00000+0001T   00000035+0000001537          1400 PM6090               3AZ
139842000139842               139842               170213NH     1400+00000+NH0000001753+0000001753+000000000+000000246+0000001990+0000000009+I20000000000+0000001990+Z
139842001139842077-000472     139842006003000330133G-BAG DESGNR LRG 25X32 0000001000+00001753+00000+0001T   00001753+0000001542          1400 PM6112               3AZ
139843000139843               139843               170213NH     1400+00000+NH0000004420+0000004420+000000000+000000619+0000005030+0000000009+I20000000000+0000005030+Z
139843001139843030-000031-A   139843006003000457588PLAQUE W/WORDS ASSTD   0000001000+00004385+00000+0001T   00004823+0006471554          1400 PM6505               3AZ
139843002139843112-116038     139843006009681820246TCS CARRIER BAG MIDI   0000001000+00000035+00000+0001T   00000035+0000001554          1400 PM6090               3AZ
139844000139844               139844               170213NH     1400+00000+NH0000007883+0000007883+000000000+000001106+0000008980+0000000009+I20000000000+0000008980+Z
139844001139844006-000120     139844006001023346889BALLOONS 10PC MIX COL  0000001000+00001753+00000+0001T   00001753+0000001555          1400 PM6131               3AZ
139844002139844006-001000     139844006003000093779HELIUM BALLOON FILL    0000010000+00000613+00000+0001T   00000613+0000001555          1400 PM6131               3AZ
139845000139845               139845               170213NH     1400+00000+NH0000001753+0000001753+000000000+000000246+0000001990+0000000009+I20000000000+0000001990+Z
139845001139845006-000120     139845006001023346889BALLOONS 10PC MIX COL  0000001000+00001753+00000+0001T   00001753+0000001615          1400 PM6131               3AZ
139846000139846               139846               170213NH     1400+00000+NH0000002629+0000002629+000000000+000000369+0000002990+0000000008+I20000000000+0000002990+Z
139846001139846200-003026     139846006003000276448REFUSE BAGS 10PCE GREEN0000001000+00001753+00000+0001T   00001753+0000001620          1400 PM6214               3AZ
139846002139846077-000151     139846006008766114676GIFT-WRAP C/PHANE ASSTD0000001000+00000876+00000+0001T   00000876+0000001620          1400 PM6112               3AZ
139847000139847               139847               170213NH     1400+00000+NH0000003769+0000003769+000000000+000000529+0000004298+0000000000+I40000004298+0000000000+Z
139847001139847903-000087     139847006001704000161SWT SPECKLED-EGGS 50G  0000001000+00001139+00000+0001T   00001139+0000001623          1400 PM6150               3AZ
139847002139847007-000601     139847006003000541195BOOK COVER ADHESIVE 2M 0000001000+00002630+00000+0001T   00002630+0000001623          1400 PM6130               3AZ
139848000139848               139848               170213NH     1400+00000+NH0000004734+0000004734+000000000+000000663+0000005397+0000000000+I40000005397+0000000000+Z
139848001139848018-000127     139848006001023380289MUG OCC STRAIGHT LOVE  0000001000+00001578+00000+0001T   00001753+0006471624          1400 PM6515               3AZ
139848002139848077-000303     139848006001023593757GIFT-BAG PAPER MED     0000001000+00001578+00000+0001T   00001578+0000001624          1400 PM6112               3AZ
139848003139848083-000054     139848006001023729071LIGHTER REFILLABLE LED 0000001000+00001578+00000+0001T   00001578+0000001624          1400 PM6315               3AZ
139849000139849               139849               170213NH     1400+00000+NH0000002451+0000002451+000000000+000000344+0000002790+0000000005+I20000000000+0000002790+Z
139849001139849079-009700-D   139849006003000545711PAPER SIRIO A4 RED COL.0000001000+00000306+00000+0001T   00000306+0000001633          1400 AT8130               3AZ
139849002139849079-009700-E   139849006003000545797PAPER SIRIO A4 GREY    0000002000+00000306+00000+0001T   00000306+0000001633          1400 AT8130               3AZ
139849003139849079-009700-D   139849006003000545711PAPER SIRIO A4 RED COL.0000001000+00000306+00000+0001T   00000306+0000001633          1400 AT8130               3AZ
139849004139849077-000245     139849006001023759214GIFT-RIBBON METALLICx2 0000001000+00001227+00000+0001T   00001227+0000001633          1400 AT8112               3AZ
139850000139850               139850               170213NH     1400+00000+NH0000004243+0000004243+000000000+000000595+0000004838+0000000000+I40000004838+0000000000+Z
139850001139850080-000124     139850006003000297733CARD & ENV VALENTINES  0000001000+00001578+00000+0001T   00001578+0000001725          1400 NN7112               3AZ
139850002139850018-000129     139850006001023403353MUG OCC. LOVE V-SHAPE  0000001000+00002630+00000+0001T   00002630+0000001725          1400 NN7515               3AZ
139850003139850112-116038     139850006009681820246TCS CARRIER BAG MIDI   0000001000+00000035+00000+0001T   00000035+0000001725          1400 NN7090               3AZ
139851000139851               139851               170213NH     1400+00000+NH0000005262+0000005262+000000000+000000737+0000005999+0000000000+I40000005999+0000000000+Z
139851001139851366-000125     139851006003000006786DRESSUP WINGS/WAND/BAND0000001000+00005262+00000+0001T   00005262+0000001726          1400 NN7131               3AZ
139852000139852               139852               170213NH     1400+00000+NH0000003680+0000003680+000000000+000000516+0000004196+0000000000+I40000004196+0000000000+Z
139852001139852076-000017     139852006001811010022TWINE COTTON 50g-BALL  0000001000+00000876+00000+0001T   00000876+0000001729          1400 NN7810               3AZ
139852002139852903-005003     139852006002580020106SWT DINKY DUMMIES 5PK  0000001000+00001490+00000+0001T   00001490+0000001729          1400 NN7150               3AZ
139852003139852251-000001     139852006001023487681TAPE DBL-SIDE 18x1000mm0000001000+00001314+00000+0001T   00001314+0000001729          1400 NN7810               3AZ
139853000139853               139853               170213NH     1400+00000+NH0000005522+0000005522+000000000+000000774+0000006296+0000000000+I40000006296+0000000000+Z
139853001139853077-000303     139853006001023593757GIFT-BAG PAPER MED     0000001000+00001578+00000+0001T   00001578+0000001730          1400 NN7112               3AZ
139853002139853018-000127     139853006001023380289MUG OCC STRAIGHT LOVE  0000001000+00001578+00000+0001T   00001753+0006471730          1400 NN7515               3AZ
139853003139853304-001011     139853006001023806727FLWR ROSE RED W/BEAR   0000001000+00000613+00000+0001T   00000788+0006471730          1400 NN7510               3AZ
139853004139853306-000002     139853006003000365852NAIL BRUSHES 3PC ASTD  0000001000+00001753+00000+0001T   00001753+0000001730          1400 NN7200               3AZ
139854000139854               139854               170213NH     1400+00000+NH0000003945+0000003945+000000000+000000553+0000004498+0000000000+I40000004498+0000000000+Z
139854001139854220-005003     139854006003000566150ELOFF TEASPOONS 4PC    0000001000+00001753+00000+0001T   00001753+0000001736          1400 NN7300               3AZ
139854002139854002-000684     139854006001023693778K/TOOL TURNER H/HOUSE  0000001000+00002192+00000+0001T   00002192+0000001736          1400 NN7300               3AZ
139855000139855               139855               170213NH     1400+00000+NH0000012279+0000012279+000000000+000001720+0000013999+0000000000+I40000013999+0000000000+Z
139855001139855031-001008     139855006003000406494P/FRAME COLLAGE PLASTIC0000001000+00012279+00000+0001T   00012279+0000001738          1400 NN7510               3AZ
139856000139856               139856               170213NH     1400+00000+NH0000002630+0000002630+000000000+000000369+0000002999+0000000000+I40000002999+0000000000+Z
139856001139856077-000270     139856006003000395453GIFT-BAG PPR JMB 33X45 0000001000+00002630+00000+0001T   00002630+0000001739          1400 NN7112               3AZ
139857000139857               139857               170213NH     1400+00000+NH0000000048+0000000048+000000000+000000007+0000000050+0000000005+I20000000000+0000000050+Z
139857001139857112-116069     139857006009681820277TCS CARRIER BAG JUMBO  0000001000+00000048+00000+0001T   00000048+0000001740          1400 NN7090               3AZ
A17021300                                          09060226NHSLAVE 3                       PM62IC
A17021301                                          09111655NHSLAVE 3                       PM62IC
A17021302                                          11310427NHSLAVE 3                       PM62IC
A17021303                                          16545860NHSLAVE 3                       PM62IC
B13981400                                          170213NH261-003901     12065210SLAVE 3     NN72IC0000002000+0000001000+0000000000000+
C13982100                                          170213NH080-000133-A   13073895SLAVE 3     PM61IC0000000000+0000000000+0010000001000+
C13982700                                          170213NH565-000071     14093300SLAVE 3     AT81IC0000000000+0000000000+0030000001000+
M17021391                              CASH        NHSLAVE 3                       Z-REPORT No.   480TOTAL (Sales - Refunds)           5249.01       CASH TO BE BANKED                 2020.60       DEBIT CARDS                          0.00       CREDIT CARDS                      3228.41       Z-READING                         5249.01       AIRTIME DEBIT CARD SALES             0.00       AIRTIME CARD SALES                   0.00       OVERS/UNDERS                         0.00       AIRTIME CASH SALES                   0.00       GIFT CARDS                           0.00       GIFT CARD CASH SALES                 0.00       T O T A L  CASH PAYOUTS              0.00                                                                                                                                                                                                                                                                                                                                                      Z
M17021392                              CASH        NHABSENT                                                                                                                                                                                          ANNUAL LEAVE                                                                                                                                                                                    DAY OFF                                                                                                                                                                                         COMMENTS                                                                                                                                                                                                                                                                                                                                                                                       Z
M17021393                              CASH        NHSLAVE 3                       Z-REPORT No.   481TOTAL (Sales - Refunds)            428.75       CASH TO BE BANKED                    0.00       DEBIT CARDS                        428.25       CREDIT CARDS                         0.00       Z-READING                          428.75       AIRTIME DEBIT CARD SALES             0.00       AIRTIME CARD SALES                   0.00       OVERS/UNDERS                         0.50-      AIRTIME CASH SALES                   0.00       GIFT CARDS                           0.00       GIFT CARD CASH SALES                 0.00       T O T A L  CASH PAYOUTS              0.00                                                                                                                                                                                                                                                                                                                                                      Z
M17021394                              CASH        NHABSENT                                                                                                                                                                                          ANNUAL LEAVE                                                                                                                                                                                    DAY OFF                                                                                                                                                                                         COMMENTS                                                                                                                                                                                                                                                                                                                                                                                       Z
Y17021300                                          NH00000000466321+000057
Y17021301                                          NH00000000037609+000008
ZNH17021321123 SLAVE 3      SALES DATA                     NEXT INVOICE NO.  139858 0481
X NH Slave 3 First invoice 139792 170213 Last invoice 139857 170213 Next invoice 139858 Total number of records 000000240 clbackup completed 21:12:03
