107946000107946               107946               170213NJ     1400+00000+NJ0000005261+0000005261+000000000+000000737+0000005998+0000000000+I40000005998+0000000000+Z
107946001107946106-000899     107946006003000653287WTR BOTTLE 2L W/HANDLE 0000001000+00003069+00000+0001T   00003507+0008190931          1400 EU4210               1AZ
107946002107946566-000991     107946000721129013121STICKERS GLOW-IN-DARK  0000001000+00002192+00000+0001T   00002192+0000000931          1400 EU4130               1AZ
107947000107947               107947               170213NJ     1400+00000+NJ0000003190+0000003190+000000000+000000448+0000003630+0000000008+I20000000000+0000003630+Z
107947001107947903-000155     107947006009803374435SWT LOLLY I LUV U HEART0000001000+00000525+00000+0001T   00000525+0000000955          1400 EU4150               1AZ
107947002107947079-006495     107947006003000159987GLITTER SHAKERS 6PK    0000001000+00002630+00000+0001T   00002630+0000000955          1400 EU4130               1AZ
107947003107947112-116038     107947006009681820246TCS CARRIER BAG MIDI   0000001000+00000035+00000+0001T   00000035+0000000955          1400 EU4090               1AZ
107948000107948               107948               170213NJ     1400+00000+NJ0000033805+0000033805+000000000+000004738+0000038543+0000000000+I40000038543+0000000000+Z
107948001107948007-010504     107948006002923014960BLACKBOARD EASEL       0000002000+00007893+00000+0001T   00007893+0000001050          1400 EU4130               1AZ
107948002107948466-000606     107948006001023752178BALL SOC 3-PLY PANEL   0000001000+00012279+00000+0001T   00012279+0000001050          1400 EU4785               1AZ
107948003107948566-001501     107948006003000658398STICKER PAPER EMOTION  0000001000+00001753+00000+0001T   00001753+0000001050          1400 EU4130               1AZ
107948004107948071-000012     107948006001177101006CHALK COLOUR 12PCE     0000001000+00000481+00000+0001T   00000481+0000001050          1400 EU4130               1AZ
107948005107948071-000212     107948006009608641190CHALK WHITE 12PCE      0000001000+00000437+00000+0001T   00000437+0000001050          1400 EU4130               1AZ
107948006107948567-014135     107948006003000560264BOOK COLOURING 240P    0000001000+00003069+00000+0001T   00003507+0008191050          1400 EU4757               1AZ
107949000107949               107949               170213NJ     1400+00000+NJ0000005295+0000005295+000000000+000000743+0000006030+0000000008+I20000000000+0000006030+Z
107949001107949365-001186     107949006003000545940PLAY-SET MINI CASTLE   0000002000+00002630+00000+0001T   00002630+0000001152          1400 EU4725               1AZ
107949002107949112-116038     107949006009681820246TCS CARRIER BAG MIDI   0000001000+00000035+00000+0001T   00000035+0000001152          1400 EU4090               1AZ
107950000107950               107950               170213NJ     1400+00000+NJ0000001578+0000001578+000000000+000000221+0000001790+0000000009+I20000000000+0000001790+Z
107950001107950018-000127     107950006001023380289MUG OCC STRAIGHT LOVE  0000001000+00001578+00000+0001T   00001753+0006471159          1400 EU4515               1AZ
107951000107951               107951               170213NJ     1400+00000+NJ0000001578+0000001578+000000000+000000221+0000001790+0000000009+I20000000000+0000001790+Z
107951001107951077-000303     107951006001023593757GIFT-BAG PAPER MED     0000001000+00001578+00000+0001T   00001578+0000001201          1400 EU4112               1AZ
107952000107952               107952               170213NJ     1400+00000+NJ0000004383+0000004383+000000000+000000614+0000004997+0000000000+I40000004997+0000000000+Z
107952001107952077-000303     107952006001023593757GIFT-BAG PAPER MED     0000001000+00001578+00000+0001T   00001578+0000001501          1400 IM5112               1BZ
107952002107952077-000318     107952006001023609755GIFT-BAG 18X23CM E/D AN0000001000+00001227+00000+0001T   00001227+0000001501          1400 IM5112               1BZ
107952003107952077-000303     107952006001023593757GIFT-BAG PAPER MED     0000001000+00001578+00000+0001T   00001578+0000001501          1400 IM5112               1BZ
107953000107953               107953               170213NJ     1400+00000+NJ0000000481+0000000481+000000000+000000068+0000000540+0000000009+I20000000000+0000000540+Z
107953001107953071-000012     107953006001177101006CHALK COLOUR 12PCE     0000001000+00000481+00000+0001T   00000481+0000001505          1400 IM5130               1BZ
107954000107954               107954               170213NJ     1400+00000+NJ0000006576+0000006576+000000000+000000921+0000007490+0000000007+I20000000000+0000007490+Z
107954001107954366-000302     107954006001023903013DRESSUP DEVIL/MOUSE    0000003000+00002192+00000+0001T   00002192+0000001506          1400 IM5131               1BZ
107955000107955               107955               170213NJ     1400+00000+NJ0000037054+0000037054+000000000+000005191+0000042240+0000000005+I20000000000+0000042240+Z
107955001107955361-003002     107955006003000302734DOLL 11cm W/DRESSES    0000002000+00005262+00000+0001T   00005262+0000001508          1400 IM5725               1BZ
107955002107955112-116069     107955006009681820277TCS CARRIER BAG JUMBO  0000001000+00000048+00000+0001T   00000048+0000001508          1400 IM5090               1BZ
107955003107955266-008047     107955006001023792013COMBAT VEH&ACC IN B/PCK0000004000+00005262+00000+0001T   00005262+0000001508          1400 IM5710               1BZ
107955004107955079-000512     107955006001023635853CRAYONS WAX 12-COLOUR  0000002000+00001490+00000+0001T   00001490+0000001508          1400 IM5130               1BZ
107955005107955079-000010     107955006001023173409P/CRAYONS 12-COL SHORT 0000002000+00001227+00000+0001T   00001227+0000001508          1400 IM5130               1BZ
107956000107956               107956               170213NJ     1400+00000+NJ0000003244+0000003244+000000000+000000455+0000003690+0000000009+I20000000000+0000003690+Z
107956001107956046-000400     107956006001023804983BATT ALKALINE 1.5Vx30PC0000001000+00003244+00000+0001T   00003244+0000001509          1400 IM5312               1BZ
107957000107957               107957               170213NJ     1400+00000+NJ0000002892+0000002892+000000000+000000406+0000003290+0000000008+I20000000000+0000003290+Z
107957001107957046-000014     107957006001023725387BATTERIES SIZE:AAA 4PCE0000001000+00001139+00000+0001T   00001139+0000001545          1400 IM5312               1BZ
107957002107957048-000859     107957006003000423422TORCH 9 LED PL 3XAAA   0000001000+00001753+00000+0001T   00001753+0000001545          1400 IM5305               1BZ
107958000107958               107958               170213NJ     1400+00000+NJ0000000525+0000000525+000000000+000000074+0000000590+0000000009+I20000000000+0000000590+Z
107958001107958306-000019     107958006001023734846TOOTHBRUSH W/DESIGN    0000001000+00000525+00000+0001T   00000525+0000001546          1400 IM5200               1BZ
107959000107959               107959               170213NJ     1400+00000+NJ0000004594+0000004594+000000000+000000644+0000005230+0000000008+I20000000000+0000005230+Z
107959001107959020-000142     107959006003000223138KNIFE-SET 3PCE UTILITY 0000001000+00003069+00000+0001T   00003069+0000001602          1400 IM5300               1BZ
107959002107959159-080352     107959006916920733314HOOKS 3PCE             0000001000+00001490+00000+0001T   00001490+0000001602          1400 IM5200               1BZ
107959003107959112-116038     107959006009681820246TCS CARRIER BAG MIDI   0000001000+00000035+00000+0001T   00000035+0000001602          1400 IM5090               1BZ
107960000107960               107960               170213NJ     1400+00000+NJ0000008008+0000008008+000000000+000001124+0000009132+0000000000+I40000009132+0000000000+Z
107960001107960112-116038     107960006009681820246TCS CARRIER BAG MIDI   0000001000+00000035+00000+0001T   00000035+0000001606          1400 IM5090               1CZ
107960002107960903-000848     107960008692806080076SWT SNACK BISCUIT 70g  0000003000+00000613+00000+0001T   00000613+0000001606          1400 IM5150               1CZ
107960003107960903-000087     107960006001704000161SWT SPECKLED-EGGS 50G  0000002000+00001139+00000+0001T   00001139+0000001606          1400 IM5150               1CZ
107960004107960903-000095     107960006001704011495SWT SPECKLED-EGGS 100G 0000001000+00002104+00000+0001T   00002104+0000001606          1400 IM5150               1CZ
107960005107960903-003050     107960008024431008239SWT CHOC CONE H/NUT 25G0000002000+00000876+00000+0001T   00000876+0000001606          1400 IM5150               1CZ
107961000107961               107961               170213NJ     1400+00000+NJ0000002192+0000002192+000000000+000000307+0000002490+0000000009+I20000000000+0000002490+Z
107961001107961033-005907     107961006003000433506SHOE LACES 4-PAIR SET  0000001000+00002192+00000+0001T   00002192+0000001651          1400 IM5200               1BZ
107962000107962               107962               170213NJ     1400+00000+NJ0000002628+0000002628+000000000+000000368+0000002990+0000000006+I20000000000+0000002990+Z
107962001107962030-000010     107962006003000084395P/DOOR HANGER 2-ASSTD  0000002000+00001314+00000+0001T   00001490+0008181652          1400 IM5505               1BZ
107963000107963               107963               170213NJ     1400+00000+NJ0000004207+0000004207+000000000+000000590+0000004790+0000000007+I20000000000+0000004790+Z
107963001107963077-000299-A   107963006003000670888GIFT-BAG PAPER JMB LOVE0000001000+00001753+00000+0001T   00001753+0000001654          1400 IM5112               1CZ
107963002107963903-002901     107963005996071650655QUICK MILK 5 S/BERRY   0000001000+00001578+00000+0001T   00001578+0000001654          1400 IM5150               1CZ
107963003107963077-000314     107963006003000181148GIFT-BAG 11X14CM MATT  0000001000+00000876+00000+0001T   00000876+0000001654          1400 IM5112               1CZ
107964000107964               107964               170213NJ     1400+00000+NJ0000003856+0000003856+000000000+000000541+0000004390+0000000007+I20000000000+0000004390+Z
107964001107964077-000011-C   107964006001023808523TISSUE 10xSHTS RED     0000001000+00000876+00000+0001T   00000876+0000001706          1400 IM5112               1BZ
107964002107964077-000245     107964006001023759214GIFT-RIBBON METALLICx2 0000001000+00001227+00000+0001T   00001227+0000001706          1400 IM5112               1BZ
107964003107964006-000120     107964006001023346889BALLOONS 10PC MIX COL  0000001000+00001753+00000+0001T   00001753+0000001706          1400 IM5131               1BZ
107965000107965               107965               170213NJ     1400+00000+NJ0000002804+0000002804+000000000+000000394+0000003190+0000000008+I20000000000+0000003190+Z
107965001107965304-001204     107965006001023737984FLOWER OCC. TEDDY/ROSES0000002000+00001402+00000+0001T   00001490+0006471710          1400 IM5510               1BZ
107966000107966               107966               170213NJ     1400+00000+NJ0000007893+0000007893+000000000+000001106+0000008999+0000000000+I40000008999+0000000000+Z
107966001107966206-000480     107966006003000620227MOP SHOES CHENILLE 2PC 0000001000+00007893+00000+0001T   00007893+0000001739          1400 IM5321               1BZ
A17021300                                          09303209NJSLAVE 1                       EU43IC
A17021301                                          09324158NJSLAVE 1                       EU43IC
A17021302                                          10064268NJSLAVE 1                       EU41IC
M17021391                              CASH        NJSLAVE 1                       Z-REPORT No.   561TOTAL (Sales - Refunds)           1618.29       CASH TO BE BANKED                  941.60       DEBIT CARDS                          0.00       CREDIT CARDS                       676.69       Z-READING                         1618.29       AIRTIME DEBIT CARD SALES             0.00       AIRTIME CARD SALES                   0.00       OVERS/UNDERS                         0.00       AIRTIME CASH SALES                   0.00       GIFT CARDS                           0.00       GIFT CARD CASH SALES                 0.00       T O T A L  CASH PAYOUTS              0.00                                                                                                                                                                                                                                                                                                                                                      Z
M17021392                              CASH        NJABSENT                                                                                                                                                                                          ANNUAL LEAVE                                                                                                                                                                                    DAY OFF                                                                                                                                                                                         COMMENTS                                                                                                                                                                                                                                                                                                                                                                                       Z
Y17021300                                          NJ00000000142044+000021
ZNJ17021320103 SLAVE 1      SALES DATA                     NEXT INVOICE NO.  107967 0561
F094678089-001021         1702031006090000601ICSLAVE 1
F094774019-000128         1702081013250000051ICSLAVE 1
F094774031-086280         1702081013250000021ICSLAVE 1
F094774486-001002         1702081013250000011ICSLAVE 1
X NJ Slave 1 First invoice 107946 170213 Last invoice 107966 170213 Next invoice 107967 Total number of records 000000079 clbackup completed 20:10:33
