205140000205140               205140               170213NJ     1400+00000+NJ0000009679+0000009679+000000000+000001357+0000011036+0000000000+I40000011036+0000000000+Z
205140001205140027-008815     205140006003000439799DUSTER 62cm RUBBER-GRIP0000001000+00004385+00000+0001T   00004385+0000000921          1400 JH1212               2AZ
205140002205140566-000004     205140006003000062270STICKER BOOK ABC/BORDER0000001000+00002630+00000+0001T   00002630+0000000921          1400 JH1130               2AZ
205140003205140566-000018     205140006001023995018S/BOOK H/MADE STICKER  0000001000+00000876+00000+0001T   00000876+0000000921          1400 JH1130               2AZ
205140004205140077-000454     205140006003000285266G/BAG METALLIC LRG EMB 0000001000+00001753+00000+0001T   00001753+0000000921          1400 JH1112               2AZ
205140005205140112-116038     205140006009681820246TCS CARRIER BAG MIDI   0000001000+00000035+00000+0001T   00000035+0000000921          1400 JH1090               2AZ
205141000205141               205141               170213NJ     1400+00000+NJ0000007482+0000007482+000000000+000001051+0000008533+0000000000+I40000008533+0000000000+Z
205141001205141018-005009     205141006001023725608MUG W/PLUSH-BEAR LOVE  0000001000+00003507+00000+0001T   00003507+0000000933          1400 JH1515               2AZ
205141002205141903-000200     205141006009826020234SWT CHOC RP CHOCO 23G  0000005000+00000788+00000+0001T   00000788+0000000933          1400 JH1150               2AZ
205141003205141112-116038     205141006009681820246TCS CARRIER BAG MIDI   0000001000+00000035+00000+0001T   00000035+0000000933          1400 JH1090               2AZ
205142000205142               205142               170213NJ     1400+00000+NJ0000010524+0000010524+000000000+000001474+0000011998+0000000000+I40000011998+0000000000+Z
205142001205142024-000003     205142006001023462206S/BURNER COVERS ASSTD  0000001000+00004385+00000+0001T   00004385+0000001005          1400 JH1300               2AZ
205142002205142031-000860-C   205142006001023798237P/FRAME PL ANTIQUE-BLK 0000001000+00006139+00000+0001T   00006139+0000001005          1400 JH1510               2AZ
205143000205143               205143               170213NJ     1400+00000+NJ0000001753+0000001753+000000000+000000246+0000001990+0000000009+I20000000000+0000001990+Z
205143001205143006-000120     205143006001023346889BALLOONS 10PC MIX COL  0000001000+00001753+00000+0001T   00001753+0000001007          1400 JH1131               2AZ
205144000205144               205144               170213NJ     1400+00000+NJ0000003191+0000003191+000000000+000000447+0000003630+0000000008+I20000000000+0000003630+Z
205144001205144006-000214-A   205144006003000311057P/GIRL JNR INVITE 6PCE 0000002000+00001578+00000+0001T   00001578+0000001027          1400 JH1131               2AZ
205144002205144112-116038     205144006009681820246TCS CARRIER BAG MIDI   0000001000+00000035+00000+0001T   00000035+0000001027          1400 JH1090               2AZ
205145000205145               205145               170213NJ     1400+00000+NJ0000002980+0000002980+000000000+000000418+0000003390+0000000008+I20000000000+0000003390+Z
205145001205145071-081110     205145006936198405454CORRECTION FLUID PEN   0000002000+00001490+00000+0001T   00001490+0000001040          1400 JH1130               2AZ
205146000205146               205146               170213NJ     1400+00000+NJ0000004385+0000004385+000000000+000000614+0000004990+0000000009+I20000000000+0000004990+Z
205146001205146018-030000     205146006003000421060MUG OCCASIONS LOVE 2PCE0000001000+00004385+00000+0001T   00004385+0000001050          1400 JH1515               2AZ
205147000205147               205147               170213NJ     1400+00000+NJ0000007047+0000007047+000000000+000000987+0000008030+0000000004+I20000000000+0000008030+Z
205147001205147304-001011     205147006001023806727FLWR ROSE RED W/BEAR   0000001000+00000613+00000+0001T   00000788+0006471055          1400 JH1510               2AZ
205147002205147903-000194     205147006009826020616SWT CHOC RP LOLLY 25G  0000001000+00001314+00000+0001T   00001314+0000001055          1400 JH1150               2AZ
205147003205147018-000136     205147006001023659026MUG OCC LOVE W/PLUSH   0000001000+00003507+00000+0001T   00003507+0000001055          1400 JH1515               2AZ
205147004205147077-000303     205147006001023593757GIFT-BAG PAPER MED     0000001000+00001578+00000+0001T   00001578+0000001055          1400 JH1112               2AZ
205147005205147112-116038     205147006009681820246TCS CARRIER BAG MIDI   0000001000+00000035+00000+0001T   00000035+0000001055          1400 JH1090               2AZ
205148000205148               205148               170213NJ     1400+00000+NJ0000001753+0000001753+000000000+000000246+0000001990+0000000009+I20000000000+0000001990+Z
205148001205148089-000030     205148006003000575671K/CHAIN LOVE MTL ASSTD 0000001000+00001753+00000+0001T   00001753+0000001059          1400 JH1205               2AZ
205149000205149               205149               170213NJ     1400+00000+NJ0000008800+0000008800+000000000+000001233+0000010030+0000000003+I20000000000+0000010030+Z
205149001205149304-001011     205149006001023806727FLWR ROSE RED W/BEAR   0000001000+00000613+00000+0001T   00000788+0006471100          1400 JH1510               2AZ
205149002205149903-000194     205149006009826020616SWT CHOC RP LOLLY 25G  0000001000+00001314+00000+0001T   00001314+0000001100          1400 JH1150               2AZ
205149003205149077-000303     205149006001023593757GIFT-BAG PAPER MED     0000001000+00001578+00000+0001T   00001578+0000001100          1400 JH1112               2AZ
205149004205149089-000030     205149006003000575671K/CHAIN LOVE MTL ASSTD 0000001000+00001753+00000+0001T   00001753+0000001100          1400 JH1205               2AZ
205149005205149018-000136     205149006001023659026MUG OCC LOVE W/PLUSH   0000001000+00003507+00000+0001T   00003507+0000001100          1400 JH1515               2AZ
205149006205149112-116038     205149006009681820246TCS CARRIER BAG MIDI   0000001000+00000035+00000+0001T   00000035+0000001100          1400 JH1090               2AZ
205150000205150               205150               170213NJ     1400+00000+NJ0000005120+0000005120+000000000+000000717+0000005830+0000000007+I20000000000+0000005830+Z
205150001205150301-085004     205150006003000420469ORN LOVE PLAQUE 21X10CM0000001000+00003507+00000+0001T   00003946+0006471109          1400 JH1505               2AZ
205150002205150080-000124     205150006003000297733CARD & ENV VALENTINES  0000001000+00001578+00000+0001T   00001578+0000001109          1400 JH1112               2AZ
205150003205150112-116038     205150006009681820246TCS CARRIER BAG MIDI   0000001000+00000035+00000+0001T   00000035+0000001109          1400 JH1090               2AZ
205151000205151               205151               170213NJ     1400+00000+NJ0000001578+0000001578+000000000+000000221+0000001799+0000000000+I40000001799+0000000000+Z
205151001205151077-000315     205151006003000181186GIFT-BAG 20x28cm MATT  0000001000+00001578+00000+0001T   00001578+0000001121          1400 JH1112               2AZ
205152000205152               205152               170213NJ     1400+00000+NJ0000012140+0000012140+000000000+000001705+0000013840+0000000005+I20000000000+0000013840+Z
205152001205152200-000061     205152006003000506996STRAWS DRINKING CURLY  0000001000+00001490+00000+0001T   00001490+0000001126          1400 JH1214               2AZ
205152002205152301-085002     205152006003000420704ORN OCC. LOVE BELL ASST0000001000+00001753+00000+0001T   00002630+0008121126          1400 JH1505               2AZ
205152003205152077-000299     205152006003000395576G/BAG 32x25cm LRG LOVE 0000002000+00001490+00000+0001T   00001490+0000001126          1400 JH1112               2AZ
205152004205152903-000155     205152006009803374435SWT LOLLY I LUV U HEART0000001000+00000525+00000+0001T   00000525+0000001126          1400 JH1150               2AZ
205152005205152077-000010-D   205152006001023123886CREPE-PAPER WHITE      0000001000+00000788+00000+0001T   00000788+0000001126          1400 JH1112               2AZ
205152006205152077-000245     205152006001023759214GIFT-RIBBON METALLICx2 0000001000+00001227+00000+0001T   00001227+0000001126          1400 JH1112               2AZ
205152007205152903-000200     205152006009826020234SWT CHOC RP CHOCO 23G  0000002000+00000788+00000+0001T   00000788+0000001126          1400 JH1150               2AZ
205152008205152200-000069     205152006003000664429STRAWS DRINKING PAPER  0000001000+00001753+00000+0001T   00001753+0000001126          1400 JH1214               2AZ
205152009205152112-116069     205152006009681820277TCS CARRIER BAG JUMBO  0000001000+00000048+00000+0001T   00000048+0000001126          1400 JH1090               2AZ
205153000205153               205153               170213NJ     1400+00000+NJ0000004682+0000004682+000000000+000000656+0000005330+0000000008+I20000000000+0000005330+Z
205153001205153018-000127     205153006001023380289MUG OCC STRAIGHT LOVE  0000001000+00001578+00000+0001T   00001753+0006471129          1400 JH1515               2AZ
205153002205153030-000030-A   205153006003000249305PLAQUE GLASS LOVE      0000001000+00003069+00000+0001T   00003069+0000001129          1400 JH1505               2AZ
205153003205153112-116038     205153006003000534906TCS CARRIER BAG MIDI   0000001000+00000035+00000+0001T   00000035+0000001129          1400 JH1090               2AZ
205154000205154               205154               170213NJ     1400+00000+NJ0000003069+0000003069+000000000+000000430+0000003490+0000000009+I20000000000+0000003490+Z
205154001205154089-000220     205154006003000677368KEY CHAIN+PEN+KNIFE    0000001000+00003069+00000+0001T   00003069+0000001130          1400 JH1205               2AZ
205155000205155               205155               170213NJ     1400+00000+NJ0000002630+0000002630+000000000+000000369+0000002990+0000000009+I20000000000+0000002990+Z
205155001205155071-005669     205155006003000153268STAPLER MINI W/STAPLES 0000001000+00002630+00000+0001T   00002630+0000001134          1400 JH1130               2AZ
205156000205156               205156               170213NJ     1400+00000+NJ0000093735+0000093735+000000000+000013137+0000106872+0000000000+I40000106872+0000000000+Z
205156001205156490-049602     205156000078257496020FUN-BALLS 100PCE 6.5CM 0000001000+00015788+00000+0001T   00015788+0000001150          1400 JH1787               2AZ
205156002205156466-000584     205156006001023628787SKIPPING-ROPE          0000002000+00002630+00000+0001T   00002630+0000001150          1400 JH1785               2AZ
205156003205156567-010584     205156009780755488971BOOK COLOURING ANIMALS 0000001000+00002630+00000+0001T   00002630+0000001150          1400 JH1757               2AZ
205156004205156567-010584     205156009780755488940BOOK COLOURING ANIMALS 0000003000+00002630+00000+0001T   00002630+0000001150          1400 JH1757               2AZ
205156005205156903-000912     205156006009802868461SWT GUM TAPE HOT WHEELS0000001000+00001753+00000+0001T   00001753+0000001150          1400 JH1150               2AZ
205156006205156079-000280     205156006003000160723PAINT READYMIX 6PCE    0000001000+00002630+00000+0001T   00002630+0000001150          1400 JH1130               2AZ
205156007205156079-000260     205156006001023886385PAINT TUBS WT BASE 4COL0000001000+00002630+00000+0001T   00002630+0000001150          1400 JH1130               2AZ
205156008205156079-000282     205156006001023493309PAINT TUBS POSTER 12COL0000001000+00002630+00000+0001T   00002630+0000001150          1400 JH1130               2AZ
205156009205156079-000277     205156006003000160600PAINT-BRUSHES 15PCE    0000001000+00002630+00000+0001T   00002630+0000001150          1400 JH1130               2AZ
205156010205156562-000010     205156006001023762528KID'S PLAY DOUGH       0000002000+00002630+00000+0001T   00002630+0000001150          1400 JH1755               2AZ
205156011205156564-000012     205156006001023130075BUBBLE BOTTLE MAGIC    0000001000+00000700+00000+0001T   00000700+0000001150          1400 JH1131               2AZ
205156012205156466-001021     205156005014294062007CRICKET-SET SIZE 1     0000001000+00010525+00000+0001T   00010525+0000001150          1400 JH1785               2AZ
205156013205156466-000200     205156006001023621665HULA-HOOP     ASSTD    0000004000+00001753+00000+0001T   00001753+0000001150          1400 JH1785               2AZ
205156014205156112-116069     205156006009681820277TCS CARRIER BAG JUMBO  0000001000+00000048+00000+0001T   00000048+0000001150          1400 JH1090               2AZ
205156015205156112-116038     205156006009681820246TCS CARRIER BAG MIDI   0000001000+00000035+00000+0001T   00000035+0000001150          1400 JH1090               2AZ
205156016205156007-010503     205156006003000455393WIPE & CHALK 90X60CM   0000001000+00026314+00000+0001T   00026314+0000001150          1400 JH1130               2AZ
205157000205157               205157               170213NJ     1400+00000+NJ0000000876+0000000876+000000000+000000123+0000000990+0000000009+I20000000000+0000000990+Z
205157001205157903-000482     205157006001704001397SWT SOFT-MINTS 60G     0000001000+00000876+00000+0001T   00000876+0000001201          1400 JH1150               2AZ
205158000205158               205158               170213NJ     1400+00000+NJ0000003944+0000003944+000000000+000000553+0000004490+0000000007+I20000000000+0000004490+Z
205158001205158077-000151     205158006008766114676GIFT-WRAP C/PHANE ASSTD0000002000+00000876+00000+0001T   00000876+0000001207          1400 JH1112               2AZ
205158002205158566-000359     205158006003000582709STICKER BOOK LOVE SPARK0000001000+00002192+00000+0001T   00002192+0000001207          1400 JH1130               2AZ
205159000205159               205159               170213NJ     1400+00000+NJ0000017542+0000017542+000000000+000002456+0000019990+0000000008+I20000000000+0000019990+Z
205159001205159586-010652     205159006001492106526WATCH MENS CANVAS      0000001000+00017542+00000+0001T   00017542+0000001208          1400 JH1160               2AZ
205160000205160               205160               170213NJ     1400+00000+NJ0000000962+0000000962+000000000+000000136+0000001090+0000000008+I20000000000+0000001090+Z
205160001205160080-000133     205160006003000535613CARD&ENV MINI ASTD DSGN0000001000+00000437+00000+0001T   00000437+0000001223          1400 JH1112               2AZ
205160002205160903-000155     205160006009803374435SWT LOLLY I LUV U HEART0000001000+00000525+00000+0001T   00000525+0000001223          1400 JH1150               2AZ
205161000205161               205161               170213NJ     1400+00000+NJ0000008771+0000008771+000000000+000001228+0000009990+0000000009+I20000000000+0000009990+Z
205161001205161028-000027     205161006003000275816C/BAG+POCKET 27x18x23cm0000001000+00008771+00000+0001T   00008771+0000001227          1400 JH1305               2AZ
205162000205162               205162               170213NJ     1400+00000+NJ0000001753+0000001753+000000000+000000246+0000001999+0000000000+I40000001999+0000000000+Z
205162001205162019-071598     205162006001023693228PEBBLES GLS 250g WHITE 0000001000+00001753+00000+0001T   00001753+0000001228          1400 JH1510               2AZ
205163000205163               205163               170213NJ     1400+00000+NJ0000009854+0000009854+000000000+000001381+0000011235+0000000000+I40000011235+0000000000+Z
205163001205163903-000095     205163006001704011495SWT SPECKLED-EGGS 100G 0000003000+00002104+00000+0001T   00002104+0000001231          1400 JH1150               2AZ
205163002205163133-000010-A   205163006001023997647CLEANING CLOTH ROLL 30 0000001000+00003507+00000+0001T   00003507+0000001231          1400 JH1212               2AZ
205163003205163112-116038     205163006009681820246TCS CARRIER BAG MIDI   0000001000+00000035+00000+0001T   00000035+0000001231          1400 JH1090               2AZ
205164000205164               205164               170213NJ     1400+00000+NJ0000014067+0000014067+000000000+000001971+0000016030+0000000008+I20000000000+0000016030+Z
205164001205164562-002004     205164006003000229017EDU THINK WHOSE BABY   0000001000+00007016+00000+0001T   00007016+0000001234          1400 JH1755               2AZ
205164002205164562-002007     205164006003000228188LEARNING EDU ALPHABET  0000001000+00007016+00000+0001T   00007016+0000001234          1400 JH1755               2AZ
205164003205164112-116038     205164006009681820246TCS CARRIER BAG MIDI   0000001000+00000035+00000+0001T   00000035+0000001234          1400 JH1090               2AZ
205165000205165               205165               170213NJ     1400+00000+NJ0000001928+0000001928+000000000+000000270+0000002190+0000000008+I20000000000+0000002190+Z
205165001205165028-000795     205165006001023812063SKEWERS 10cm 100PCE 3mm0000002000+00000964+00000+0001T   00000964+0000001241          1400 JH1305               2AZ
205166000205166               205166               170213NJ     1400+00000+NJ0000003104+0000003104+000000000+000000435+0000003530+0000000009+I20000000000+0000003530+Z
205166001205166567-014135     205166006003000560264BOOK COLOURING 240P    0000001000+00003069+00000+0001T   00003507+0008191244          1400 JH1757               2AZ
205166002205166112-116038     205166006009681820246TCS CARRIER BAG MIDI   0000001000+00000035+00000+0001T   00000035+0000001244          1400 JH1090               2AZ
205167000205167               205167               170213NJ     1400+00000+NJ0000015424+0000015424+000000000+000002166+0000017590+0000000000+I20000000000+0000017590+Z
205167001205167077-000011-C   205167006001023808523TISSUE 10xSHTS RED     0000001000+00000876+00000+0001T   00000876+0000001253          1400 JH1112               2AZ
205167002205167001-091415     205167006003000329113W/GLS OCC. LOVE 2PC 2800000001000+00008771+00000+0001T   00009648+0006471253          1400 JH1515               2AZ
205167003205167903-000155     205167006009803374435SWT LOLLY I LUV U HEART0000003000+00000525+00000+0001T   00000525+0000001253          1400 JH1150               2AZ
205167004205167903-000183     205167006003000451043SWT LB HEART LOLLY     0000004000+00000393+00000+0001T   00000393+0000001253          1400 JH11502IC            2AZ
205167005205167077-000270     205167006003000395453GIFT-BAG PPR JMB 33X45 0000001000+00002630+00000+0001T   00002630+0000001253          1400 JH1112               2AZ
205168000205168               205168               170213NJ     1400+00000+NJ0000000876+0000000876+000000000+000000123+0000000990+0000000009+I20000000000+0000000990+Z
205168001205168078-000025     205168008887013700064SUPERGLUE 3g 1PCE CARD 0000001000+00000876+00000+0001T   00000876+0000001300          1400 JH1810               2AZ
205169000205169               205169               170213NJ     1400+00000+NJ0000050537+0000050537+000000000+000007089+0000057626+0000000000+I40000057626+0000000000+Z
205169001205169112-116069     205169006009681820277TCS CARRIER BAG JUMBO  0000001000+00000048+00000+0001T   00000048+0000001306          1400 JH1090               2AZ
205169002205169039-000799     205169006001023692382CANDLES TEALITE 100PCE 0000001000+00008771+00000+0001T   00008771+0000001306          1400 JH1510               2AZ
205169003205169016-009750     205169006001023888341CONDIMENTS OIL BOTTLES 0000001000+00003507+00000+0001T   00003507+0000001306          1400 JH1300               2AZ
205169004205169006-000093     205169006003000539932PARTY BANNER FLAGS ASST0000004000+00001753+00000+0001T   00001753+0000001306          1400 JH1131               2AZ
205169005205169077-000010-F   205169006003453000461CREPE-PAPER BLUE       0000005000+00000788+00000+0001T   00000788+0000001306          1400 JH1112               2AZ
205169006205169077-000010-D   205169006001023123886CREPE-PAPER WHITE      0000004000+00000788+00000+0001T   00000788+0000001306          1400 JH1112               2AZ
205169007205169563-000317-B   205169006001023776174SERVIETTES PLN WHT PK400000001000+00001314+00000+0001T   00001314+0000001306          1400 JH1214               2AZ
205169008205169077-000297     205169006001023869814GIFT BOX OCCASIONS SQRE0000001000+00001753+00000+0001T   00001753+0000001306          1400 JH1112               2AZ
205169009205169077-000300     205169006001023483249GIFT BOX OCCASIONS HEXG0000001000+00002192+00000+0001T   00002192+0000001306          1400 JH1112               2AZ
205169010205169028-000795     205169006001023812063SKEWERS 10cm 100PCE 3mm0000001000+00000964+00000+0001T   00000964+0000001306          1400 JH1305               2AZ
205169011205169033-006003     205169006001023678584SEWING-KIT             0000001000+00002630+00000+0001T   00002630+0000001306          1400 JH1200               2AZ
205169012205169007-000167     205169006009685857347SPIRAL NOTES A7 72PG   0000001000+00000350+00000+0001T   00000350+0000001306          1400 JH1130               2AZ
205169013205169203-001247     205169006001023770813C/SCREW WAITER'S-FRIEND0000001000+00002630+00000+0001T   00002630+0000001306          1400 JH1300               2AZ
205169014205169039-000100     20516900600300060614625CM WHITE CANDLE 6PC  0000001000+00002630+00000+0001T   00002630+0000001306          1400 JH1510               2AZ
205169015205169304-001606     205169006001023842527BRANCH DRIED WHEAT 75cm0000002000+00003946+00000+0001T   00003946+0000001306          1400 JH1510               2AZ
205169016205169304-001122     205169006001023804518FLOWER WISTERIA 61CM   0000002000+00000876+00000+0001T   00001490+0008181306          1400 JH1510               2AZ
205170000205170               205170               170213NJ     1400+00000+NJ0000005294+0000005294+000000000+000000743+0000006030+0000000007+I20000000000+0000006030+Z
205170001205170369-001034     205170006003000105632BABY RATTLE SINGLE ASST0000001000+00001753+00000+0001T   00001753+0000001310          1400 JH1745               2AZ
205170002205170018-000108     205170006001023380265MUG NOVELTY ICON ASST  0000001000+00001753+00000+0001T   00001753+0000001310          1400 JH1515               2AZ
205170003205170084-091590     205170006003000092864FOOT FILE 17cm         0000001000+00001753+00000+0001T   00001753+0000001310          1400 JH1200               2AZ
205170004205170112-116038     205170006009681820246TCS CARRIER BAG MIDI   0000001000+00000035+00000+0001T   00000035+0000001310          1400 JH1090               2AZ
205171000205171               205171               170213NJ     1400+00000+NJ0000005085+0000005085+000000000+000000712+0000005790+0000000007+I20000000000+0000005790+Z
205171001205171018-000136     205171006001023659026MUG OCC LOVE W/PLUSH   0000001000+00003507+00000+0001T   00003507+0000001311          1400 JH1515               2AZ
205171002205171077-000303     205171006001023593757GIFT-BAG PAPER MED     0000001000+00001578+00000+0001T   00001578+0000001311          1400 JH1112               2AZ
205172000205172               205172               170213NJ     1400+00000+NJ0000038809+0000038809+000000000+000005437+0000044246+0000000000+I40000044246+0000000000+Z
205172001205172077-000303     205172006001023593757GIFT-BAG PAPER MED     0000001000+00001578+00000+0001T   00001578+0000001314          1400 JH1112               2AZ
205172002205172072-000150     205172006003000093892PET DOG SHIRT BOY SMALL0000001000+00006139+00000+0001T   00006139+0000001314          1400 JH1870               2AZ
205172003205172072-020350     205172006001023598035PET DOG/CAT BOWL DOUBLE0000001000+00002630+00000+0001T   00002630+0000001314          1400 JH1870               2AZ
205172004205172018-019000     205172006003000557288MUG OCC. LOVE JUMBO    0000001000+00005262+00000+0001T   00005262+0000001314          1400 JH1515               2AZ
205172005205172072-020311     205172006003000494132PET DOG TOY VINYL BALL 0000001000+00003069+00000+0001T   00003069+0000001314          1400 JH1870               2AZ
205172006205172072-000327     205172006001023858504CAT-COLLAR+BELL        0000001000+00001753+00000+0001T   00001753+0000001314          1400 JH1870               2AZ
205172007205172903-000200     205172006009826020234SWT CHOC RP CHOCO 23G  0000001000+00000788+00000+0001T   00000788+0000001314          1400 JH1150               2AZ
205172008205172072-020241     205172006946859290039PET CAVE 42x45x40cm    0000001000+00017542+00000+0001T   00017542+0000001314          1400 JH1870               2AZ
205172009205172112-116069     205172006009681820277TCS CARRIER BAG JUMBO  0000001000+00000048+00000+0001T   00000048+0000001314          1400 JH1090               2AZ
205173000205173               205173               170213NJ     1400+00000+NJ0000011011+0000011011+000000000+000001542+0000012550+0000000003+I20000000000+0000012550+Z
205173001205173001-091415     205173006003000329113W/GLS OCC. LOVE 2PC 2800000001000+00008771+00000+0001T   00009648+0006471316          1400 JH1515               2AZ
205173002205173080-000127     205173006003000424351VALENTINES DAY 36x24CM 0000001000+00002192+00000+0001T   00002192+0000001316          1400 JH1112               2AZ
205173003205173112-116069     205173006009681820277TCS CARRIER BAG JUMBO  0000001000+00000048+00000+0001T   00000048+0000001316          1400 JH1090               2AZ
205174000205174               205174               170213NJ     1400+00000+NJ0000007893+0000007893+000000000+000001106+0000008999+0000000000+I40000008999+0000000000+Z
205174001205174301-085007     205174006003000673698ORN OCC. LOVE S/PLAQUE 0000001000+00007893+00000+0001T   00007893+0000001320          1400 JH1505               2AZ
205175000205175               205175               170213NJ     1400+00000+NJ0000021354+0000021354+000000000+000002993+0000024347+0000000000+I40000024347+0000000000+Z
205175001205175077-000301     205175008010410010188BAG LRG 25X32CM B/DAY  0000002000+00001753+00000+0001T   00001753+0000001340          1400 JH1112               2AZ
205175002205175028-000917     205175006001023776938BBQ GRILL-CLEANER 38cm 0000001000+00005262+00000+0001T   00005262+0000001340          1400 JH1305               2AZ
205175003205175567-011303     205175006002242057389BOOK READER AFR CHOMP  0000001000+00003069+00000+0001T   00003507+0008131340          1400 JH1757               2AZ
205175004205175080-000124     205175006003000297733CARD & ENV VALENTINES  0000001000+00001578+00000+0001T   00001578+0000001340          1400 JH1112               2AZ
205175005205175567-011301     205175009781928231165BOOK READER AFR DISNEY 0000001000+00004385+00000+0001T   00004385+0000001340          1400 JH1757               2AZ
205175006205175072-000228     205175006003000235940DOG-COL REFLCTV 25-40cm0000001000+00001753+00000+0001T   00001753+0000001340          1400 JH1870               2AZ
205175007205175112-116069     205175006009681820277TCS CARRIER BAG JUMBO  0000001000+00000048+00000+0001T   00000048+0000001340          1400 JH1090               2AZ
205175008205175077-000299-A   205175006003000670888GIFT-BAG PAPER JMB LOVE0000001000+00001753+00000+0001T   00001753+0000001340          1400 JH1112               2AZ
205176000205176               205176               170213NJ     1400+00000+NJ0000003507+0000003507+000000000+000000491+0000003990+0000000008+I20000000000+0000003990+Z
205176001205176018-005009     205176006001023725608MUG W/PLUSH-BEAR LOVE  0000001000+00003507+00000+0001T   00003507+0000001341          1400 JH1515               2AZ
205177000205177               205177               170213NJ     1400+00000+NJ0000003507+0000003507+000000000+000000491+0000003990+0000000008+I20000000000+0000003990+Z
205177001205177018-000136     205177006001023659026MUG OCC LOVE W/PLUSH   0000001000+00003507+00000+0001T   00003507+0000001347          1400 JH1515               2AZ
205178000205178               205178               170213NJ     1400+00000+NJ0000013501+0000013501+000000000+000001891+0000015390+0000000002+I20000000000+0000015390+Z
205178001205178016-009750     205178006001023888341CONDIMENTS OIL BOTTLES 0000003000+00003507+00000+0001T   00003507+0000001349          1400 JH1300               2AZ
205178002205178019-071610     205178006001023904560PEBBLES WATER GEMS 10g 0000002000+00001490+00000+0001T   00001490+0000001349          1400 JH1510               2AZ
205179000205179               205179               170213NJ     1400+00000+NJ0000001578+0000001578+000000000+000000221+0000001790+0000000009+I20000000000+0000001790+Z
205179001205179018-000127     205179006001023380289MUG OCC STRAIGHT LOVE  0000001000+00001578+00000+0001T   00001753+0006471350          1400 JH1515               2AZ
205180000205180               205180               170213NJ     1400+00000+NJ0000004822+0000004822+000000000+000000676+0000005498+0000000000+I40000005498+0000000000+Z
205180001205180077-000011-R   205180006001023808462P/TISSUE DARK 10-SHEETS0000001000+00000876+00000+0001T   00000876+0000001353          1400 JH1112               2AZ
205180002205180077-000376-A   205180006003000669059GIFT-BAG 2-PACK JMB    0000001000+00003946+00000+0001T   00003946+0000001353          1400 JH1112               2AZ
205181000205181               205181               170213NJ     1400+00000+NJ0000021328+0000021328+000000000+000002994+0000024322+0000000000+I40000024322+0000000000+Z
205181001205181047-000011-H   205181006001023879943M/PLUG 6-WAY-SURGE     0000001000+00008771+00000+0001T   00008771+0000001400          1400 JH1880               2AZ
205181002205181566-000359     205181006003000582709STICKER BOOK LOVE SPARK0000002000+00002192+00000+0001T   00002192+0000001400          1400 JH1130               2AZ
205181003205181903-000155     205181006009803374435SWT LOLLY I LUV U HEART0000014000+00000525+00000+0001T   00000525+0000001400          1400 JH1150               2AZ
205181004205181903-000200     205181006009826020234SWT CHOC RP CHOCO 23G  0000001000+00000788+00000+0001T   00000788+0000001400          1400 JH1150               2AZ
205181005205181112-116038     205181006009681820246TCS CARRIER BAG MIDI   0000001000+00000035+00000+0001T   00000035+0000001400          1400 JH1090               2AZ
205182000205182               205182               170213NJ     1400+00000+NJ0000017307+0000017307+000000000+000002425+0000019732+0000000000+I40000019732+0000000000+Z
205182001205182565-000071     205182006003000643387NOVELTY WIND UP CHATTER0000001000+00001139+00000+0001T   00001139+0000001421          1400 JH1745               2AZ
205182002205182089-000220     205182006003000677368KEY CHAIN+PEN+KNIFE    0000001000+00003069+00000+0001T   00003069+0000001421          1400 JH1205               2AZ
205182003205182089-000027     205182006003000254071KEY CHAIN MOM/DAD ASSTD0000001000+00001753+00000+0001T   00001753+0000001421          1400 JH1205               2AZ
205182004205182018-030000     205182006003000421060MUG OCCASIONS LOVE 2PCE0000001000+00004385+00000+0001T   00004385+0000001421          1400 JH1515               2AZ
205182005205182566-000359     205182006003000582709STICKER BOOK LOVE SPARK0000001000+00002192+00000+0001T   00002192+0000001421          1400 JH1130               2AZ
205182006205182112-116038     205182006009681820246TCS CARRIER BAG MIDI   0000001000+00000035+00000+0001T   00000035+0000001421          1400 JH1090               2AZ
205182007205182466-000106     205182006003000128112BALL PL 20CM BASKETBALL0000001000+00003507+00000+0001T   00003507+0000001421          1400 JH1785               2AZ
205182008205182903-000510     205182006001704012621SWEET MS ZBDZ S/BERRY  0000001000+00001227+00000+0001T   00001227+0000001421          1400 JH1150               2AZ
205183000205183               205183               170213NJ     1400+00000+NJ0000012135+0000012135+000000000+000001700+0000013830+0000000005+I20000000000+0000013830+Z
205183001205183112-116038     205183006009681820246TCS CARRIER BAG MIDI   0000001000+00000035+00000+0001T   00000035+0000001422          1400 JH1090               2AZ
205183002205183301-085001     205183006003000297610ORN WATERBALL LOVE ASST0000001000+00004823+00000+0001T   00004823+0000001422          1400 JH1505               2AZ
205183003205183018-000136     205183006001023659026MUG OCC LOVE W/PLUSH   0000001000+00003507+00000+0001T   00003507+0000001422          1400 JH1515               2AZ
205183004205183080-000124     205183006003000297733CARD & ENV VALENTINES  0000001000+00001578+00000+0001T   00001578+0000001422          1400 JH1112               2AZ
205183005205183566-000359     205183006003000582709STICKER BOOK LOVE SPARK0000001000+00002192+00000+0001T   00002192+0000001422          1400 JH1130               2AZ
205184000205184               205184               170213NJ     1400+00000+NJ0000001753+0000001753+000000000+000000246+0000001990+0000000009+I20000000000+0000001990+Z
205184001205184466-000200     205184006001023621665HULA-HOOP     ASSTD    0000001000+00001753+00000+0001T   00001753+0000001425          1400 JH1785               2AZ
205185000205185               205185               170213NJ     1400+00000+NJ0000012500+0000012500+000000000+000001752+0000014250+0000000002+I20000000000+0000014250+Z
205185001205185030-000030-A   205185006003000249305PLAQUE GLASS LOVE      0000001000+00003069+00000+0001T   00003069+0000001445          1400 JH1505               2AZ
205185002205185301-085007     205185006003000673698ORN OCC. LOVE S/PLAQUE 0000001000+00007893+00000+0001T   00007893+0000001445          1400 JH1505               2AZ
205185003205185077-000299     205185006003000395576G/BAG 32x25cm LRG LOVE 0000001000+00001490+00000+0001T   00001490+0000001445          1400 JH1112               2AZ
205185004205185112-116069     205185006009681820277TCS CARRIER BAG JUMBO  0000001000+00000048+00000+0001T   00000048+0000001445          1400 JH1090               2AZ
205186000205186               205186               170213NJ     1400+00000+NJ0000009764+0000009764+000000000+000001370+0000011134+0000000000+I40000011134+0000000000+Z
205186001205186028-000795     205186006001023812063SKEWERS 10cm 100PCE 3mm0000001000+00000964+00000+0001T   00000964+0000001447          1400 JH1305               2AZ
205186002205186903-000215     205186006002099001214SWT GS MALLOW TWIST PAC0000004000+00001753+00000+0001T   00001753+0000001447          1400 JH1150               2AZ
205186003205186077-000011     205186006003000542352PAPER RAFFIA ASSTD COL 0000001000+00001753+00000+0001T   00001753+0000001447          1400 JH1112               2AZ
205186004205186112-116038     205186006009681820246TCS CARRIER BAG MIDI   0000001000+00000035+00000+0001T   00000035+0000001447          1400 JH1090               2AZ
205187000205187               205187               170213NJ     1400+00000+NJ0000001227+0000001227+000000000+000000172+0000001390+0000000009+I20000000000+0000001390+Z
205187001205187007-000206     205187006009635830215X/PAD 80-SHEETS PUNCHED0000001000+00001227+00000+0001T   00001227+0000001450          1400 JH1130               2AZ
205188000205188               205188               170213NJ     1400+00000+NJ0000036164+0000036164+000000000+000005073+0000041237+0000000000+I40000041237+0000000000+Z
205188001205188105-001000     205188006003000520275CONTAINER:CEREAL TO GO 0000001000+00003507+00000+0001T   00004823+0008161453          1400 JH1210               2AZ
205188002205188033-000119     205188006003000285563COMBS PL STYLING 3PC   0000001000+00001753+00000+0001T   00001753+0000001453          1400 JH1200               2AZ
205188003205188084-091594     205188006003000620692FOOT FILE/GRATER       0000001000+00004823+00000+0001T   00004823+0000001453          1400 JH1200               2AZ
205188004205188200-000042     205188006001023868886BAG-SEALERS 10PCE      0000001000+00002630+00000+0001T   00002630+0000001453          1400 JH1214               2AZ
205188005205188071-003011     205188006001023762825PEN STICKBALL X10 ASSTD0000010000+00001753+00000+0001T   00001753+0000001453          1400 JH1130               2AZ
205188006205188033-000126     205188006003000676736HAIR COMB BRIGHT 20cm  0000001000+00002630+00000+0001T   00002630+0000001453          1400 JH1200               2AZ
205188007205188033-000123     205188006003000622382HAIR COMB STRAIGHTENING0000001000+00001753+00000+0001T   00001753+0000001453          1400 JH1200               2AZ
205188008205188159-000114     205188006001023507945SHOWER CAP PVC ASSTD   0000001000+00001490+00000+0001T   00001490+0000001453          1400 JH1200               2AZ
205188009205188112-116069     205188006009681820277TCS CARRIER BAG JUMBO  0000001000+00000048+00000+0001T   00000048+0000001453          1400 JH1090               2AZ
205189000205189               205189               170213NJ     1400+00000+NJ0000000525+0000000525+000000000+000000074+0000000590+0000000009+I20000000000+0000000590+Z
205189001205189903-000155     205189006009803374435SWT LOLLY I LUV U HEART0000001000+00000525+00000+0001T   00000525+0000001455          1400 JH1150               2AZ
205190000205190               205190               170213NJ     1400+00000+NJ0000001578+0000001578+000000000+000000221+0000001790+0000000009+I20000000000+0000001790+Z
205190001205190077-000303     205190006001023593757GIFT-BAG PAPER MED     0000001000+00001578+00000+0001T   00001578+0000001455          1400 JH1112               2AZ
205191000205191               205191               170213NJ     1400+00000+NJ0000004822+0000004822+000000000+000000676+0000005490+0000000008+I20000000000+0000005490+Z
205191001205191077-000926     205191006003000414178G/WRAP 700mmx2m LOVE   0000001000+00002192+00000+0001T   00002192+0000001504          1400 JH1112               2AZ
205191002205191077-000270     205191006003000395453GIFT-BAG PPR JMB 33X45 0000001000+00002630+00000+0001T   00002630+0000001504          1400 JH1112               2AZ
205192000205192               205192               170213NJ     1400+00000+NJ0000005250+0000005250+000000000+000000740+0000005990+0000000000+I20000000000+0000005990+Z
205192001205192903-000155     205192006009803374435SWT LOLLY I LUV U HEART0000010000+00000525+00000+0001T   00000525+0000001510          1400 JH1150               2AZ
205193000205193               205193               170213NJ     1400+00000+NJ0000001575+0000001575+000000000+000000222+0000001790+0000000007+I20000000000+0000001790+Z
205193001205193903-000155     205193006009803374435SWT LOLLY I LUV U HEART0000003000+00000525+00000+0001T   00000525+0000001514          1400 JH1150               2AZ
205194000205194               205194               170213NJ     1400+00000+NJ0000031178+0000031178+000000000+000004367+0000035540+0000000005+I20000000000+0000035540+Z
205194001205194036-000350     205194006003000247776HANGER MTL (FOR SCARVES0000001000+00006139+00000+0001T   00006139+0000001522          1400 JH1212               2AZ
205194002205194368-000099     205194006001023680259PLUSH DOG 23cm ASSTD   0000001000+00008771+00000+0001T   00008771+0000001522          1400 JH1745               2AZ
205194003205194036-000350     205194006003000247776HANGER MTL (FOR SCARVES0000001000+00006139+00000+0001T   00006139+0000001522          1400 JH1212               2AZ
205194004205194304-001011     205194006001023806727FLWR ROSE RED W/BEAR   0000001000+00000613+00000+0001T   00000788+0006471522          1400 JH1510               2AZ
205194005205194301-085000     205194006003000674299 ORN OCC. LOVE HEARTS  0000003000+00002192+00000+0001T   00002192+0000001522          1400 JH1505               2AZ
205194006205194079-013032-G   205194006003000496389FOAM BUTTERFLIES       0000001000+00002192+00000+0001T   00002192+0000001522          1400 JH1130               2AZ
205194007205194112-116069     205194006009681820277TCS CARRIER BAG JUMBO  0000001000+00000048+00000+0001T   00000048+0000001522          1400 JH1090               2AZ
205194008205194018-000177     205194006001023797513MUG MINI LOVE ASSTD    0000001000+00000700+00000+0001T   00000700+0000001522          1400 JH1515               2AZ
205195000205195               205195               170213NJ     1400+00000+NJ0000007890+0000007890+000000000+000001107+0000008997+0000000000+I40000008997+0000000000+Z
205195001205195567-075466     205195009780263250855BK NOVEL ROMANCE       0000001000+00002630+00000+0001T   00002630+0000001530          1400 JH17571IC            2DZ
205195002205195567-075466     205195009780263918557BK NOVEL ROMANCE       0000001000+00002630+00000+0001T   00002630+0000001530          1400 JH1757               2DZ
205195003205195366-006103     205195006001023786944DRESS UP FACE PAINT SET0000001000+00002630+00000+0001T   00002630+0000001530          1400 JH1131               2DZ
205196000205196               205196               170213NJ     1400+00000+NJ0000001490+0000001490+000000000+000000209+0000001690+0000000009+I20000000000+0000001690+Z
205196001205196140-001004     205196006001023880932FLY-RIBBONS 4PCE PL    0000001000+00001490+00000+0001T   00001490+0000001531          1400 JH1830               2AZ
205197000205197               205197               170213NJ     1400+00000+NJ0000003769+0000003769+000000000+000000529+0000004290+0000000008+I20000000000+0000004290+Z
205197001205197077-000456     205197006003000285549G/BAG METALLIC JMB EMB 0000001000+00002630+00000+0001T   00002630+0000001534          1400 JH1112               2AZ
205197002205197903-000087     205197006001704000161SWT SPECKLED-EGGS 50G  0000001000+00001139+00000+0001T   00001139+0000001534          1400 JH1150               2AZ
205198000205198               205198               170213NJ     1400+00000+NJ0000006395+0000006395+000000000+000000896+0000007290+0000000001+I20000000000+0000007290+Z
205198001205198903-005007     205198006002580020311SWT MALLOW BEAR M/SHAKE0000001000+00001314+00000+0001T   00001314+0000001536          1400 JH1150               2AZ
205198002205198903-005001     205198006002580020014SWT CT MALLOW MICE 120g0000001000+00001314+00000+0001T   00001314+0000001536          1400 JH1150               2AZ
205198003205198903-000087     205198006001704000161SWT SPECKLED-EGGS 50G  0000001000+00001139+00000+0001T   00001139+0000001536          1400 JH1150               2AZ
205198004205198105-001037     205198006003000615438CONTAINER W/VENT 700ml 0000002000+00001314+00000+0001T   00001753+0008161536          1400 JH1210               2AZ
205199000205199               205199               170213NJ     1400+00000+NJ0000010872+0000010872+000000000+000001524+0000012390+0000000006+I20000000000+0000012390+Z
205199001205199301-085001     205199006003000297610ORN WATERBALL LOVE ASST0000002000+00004823+00000+0001T   00004823+0000001619          1400 JH1505               2AZ
205199002205199077-000311     205199006001023608666GIFT-BAG 11X14CM GLOSS 0000002000+00000613+00000+0001T   00000613+0000001619          1400 JH1112               2AZ
205200000205200               205200               170213NJ     1400+00000+NJ0000029819+0000029819+000000000+000004176+0000033995+0000000000+I40000033995+0000000000+Z
205200001205200072-020245     205200006001023617996PET BED FLEECE W/SIDES 0000001000+00014911+00000+0001T   00014911+0000001626          1400 JH1870               2AZ
205200002205200001-091415     205200006003000329113W/GLS OCC. LOVE 2PC 2800000001000+00008771+00000+0001T   00009648+0006471626          1400 JH1515               2AZ
205200003205200077-000270     205200006003000395453GIFT-BAG PPR JMB 33X45 0000001000+00002630+00000+0001T   00002630+0000001626          1400 JH1112               2AZ
205200004205200002-012271     205200006001023849120TONGS 23cm RUBBER-GRIP 0000001000+00003507+00000+0001T   00003507+0000001626          1400 JH1300               2AZ
205201000205201               205201               170213NJ     1400+00000+NJ0000001578+0000001578+000000000+000000221+0000001790+0000000009+I20000000000+0000001790+Z
205201001205201077-000303     205201006001023593757GIFT-BAG PAPER MED     0000001000+00001578+00000+0001T   00001578+0000001632          1400 JH1112               2AZ
205202000205202               205202               170213NJ     1400+00000+NJ0000003156+0000003156+000000000+000000442+0000003598+0000000000+I40000003598+0000000000+Z
205202001205202077-000303     205202006001023593757GIFT-BAG PAPER MED     0000002000+00001578+00000+0001T   00001578+0000001641          1400 JH1112               2AZ
205203000205203               205203               170213NJ     1400+00000+NJ0000025275+0000025275+000000000+000003545+0000028820+0000000000+I20000000000+0000028820+Z
205203001205203018-000136     205203006001023659026MUG OCC LOVE W/PLUSH   0000002000+00003507+00000+0001T   00003507+0000001745          1400 JH1515               2AZ
205203002205203077-000303     205203006001023593757GIFT-BAG PAPER MED     0000004000+00001578+00000+0001T   00001578+0000001745          1400 JH1112               2AZ
205203003205203903-000087     205203006001704000161SWT SPECKLED-EGGS 50G  0000004000+00001139+00000+0001T   00001139+0000001745          1400 JH1150               2AZ
205203004205203018-000127     205203006001023380289MUG OCC STRAIGHT LOVE  0000002000+00001578+00000+0001T   00001753+0006471745          1400 JH1515               2AZ
205203005205203112-116038     205203006009681820246TCS CARRIER BAG MIDI   0000001000+00000035+00000+0001T   00000035+0000001745          1400 JH1090               2AZ
205203006205203903-000504     205203006001704012416SWT CHOC JELLY BEANS   0000001000+00001227+00000+0001T   00001227+0000001745          1400 JH1150               2AZ
205203007205203903-000012     205203006002099007308SWT MALLOW S/BERRY     0000004000+00000437+00000+0001T   00000437+0000001745          1400 JH1150               2AZ
205203008205203903-000517     205203006001704012768SWT STRAWS FIZZY CHERRY0000001000+00001227+00000+0001T   00001227+0000001745          1400 JH1150               2AZ
205204000205204               205204               170213NJ     1400+00000+NJ0000001227+0000001227+000000000+000000172+0000001390+0000000009+I20000000000+0000001390+Z
205204001205204903-000510     205204006001704012621SWEET MS ZBDZ S/BERRY  0000001000+00001227+00000+0001T   00001227+0000001747          1400 JH1150               2AZ
205205000205205               205205               170213NJ     1400+00000+NJ0000000890-0000000000+000000000+000000000+0000000890-0000000000+I20000000000+0000000890-Z
205205001205205001-999909     205205000000000999909STAFF-REFRESHMENTS     0000001000-00000890+00000+0001X   00000000+0000001757          0000 JH19091IC            2 Z
205206000205206               205206               170213NJ     1400+00000+NJ0000005262+0000005262+000000000+000000737+0000005990+0000000009+I20000000000+0000005990+Z
205206001205206366-002195     205206006001023990549DRESS UP WINGS FEATHER 0000001000+00005262+00000+0001T   00005262+0000001758          1400 JH1131               2AZ
A17021300                                          09004623NJSLAVE 2                       JH13IC
A17021301                                          09224709NJSLAVE 2                       JH11IC
A17021302                                          10055681NJSLAVE 2                       JH11IC
A17021303                                          12045103NJSLAVE 2                       JH11IC
A17021304                                          17545280NJSLAVE 2                       JH11IC
A17021305                                          17562272NJSLAVE 2                       JH11IC
B20516700                                          170213NJ903-000183     12523467SLAVE 2     JH12IC0000005000+0000004000+0000000000000+
B20519500                                          170213NJ567-075466     15284403SLAVE 2     JH11IC0000002000+0000001000+0000000000000+
M17021391                              CASH        NJSLAVE 2                       Z-REPORT No.   568TOTAL (Sales - Refunds)           7754.43       CASH TO BE BANKED                 3373.50       DEBIT CARDS                          0.00       CREDIT CARDS                      4372.03       Z-READING                         7745.53       AIRTIME DEBIT CARD SALES             0.00       AIRTIME CARD SALES                   0.00       OVERS/UNDERS                         0.00       AIRTIME CASH SALES                   0.00       GIFT CARDS                           0.00       GIFT CARD CASH SALES                 0.00       STAFF-REFRESHMENTS                   8.90       T O T A L  CASH PAYOUTS              8.90                                                                                                                                                                                                                                                                                                      Z
M17021392                              CASH        NJABSENT                                                                                                                                                                                          ANNUAL LEAVE                                                                                                                                                                                    DAY OFF                                                                                                                                                                                         COMMENTS                                                                                                                                                                                                                                                                                                                                                                                       Z
Y17021300                                          NJ00000000680386+000066
ZNJ17021320103 SLAVE 2      SALES DATA                     NEXT INVOICE NO.  205207 0568
F094678089-001021         1702031009530000601ICSLAVE 2
F094774019-000128         1702081013510000051ICSLAVE 2
F094774031-086280         1702081013510000021ICSLAVE 2
F094774486-001002         1702081013510000011ICSLAVE 2
X NJ Slave 2 First invoice 205140 170213 Last invoice 205206 170213 Next invoice 205207 Total number of records 000000297 clbackup completed 20:10:35
