630327000630327               630327               170213NK     1400+00000+NK0000002454+0000002454+000000000+000000344+0000002790+0000000008+I20000000000+0000002790+Z
630327001630327077-000011-C   630327006001023808523TISSUE 10xSHTS RED     0000001000+00000876+00000+0001T   00000876+0000001203          1400 KS7112               2AZ
630327002630327018-000127     630327006001023380289MUG OCC STRAIGHT LOVE  0000001000+00001578+00000+0001T   00001753+0006471203          1400 KS7515               2AZ
630328000630328               630328               170213NK     1400+00000+NK0000019336+0000019336+000000000+000002709+0000022045+0000000000+I40000022045+0000000000+Z
630328001630328047-005127     630328006003000093861CABLETIES 100/150/200mm0000001000+00002192+00000+0001T   00002192+0000001206          1400 KS7880               2AZ
630328002630328150-000774     630328006005387116003UTILITY-BOX MEDIUM     0000001000+00000964+00000+0001T   00000964+0000001206          1400 KS7810               2AZ
630328003630328150-000775     630328006001023129253UTILITY-BOX LARGE      0000001000+00002367+00000+0001T   00002367+0000001206          1400 KS7810               2AZ
630328004630328150-000770     630328006003000059843UTILITY BOX MEGA       0000001000+00003244+00000+0001T   00003244+0000001206          1400 KS7810               2AZ
630328005630328150-000776     630328006001023839756UTILITY/TOOL-BOX PL    0000001000+00003507+00000+0001T   00003507+0000001206          1400 KS7810               2AZ
630328006630328047-009003     630328006001023810427CABLE TWIRLY 1.8m      0000001000+00003507+00000+0001T   00003507+0000001206          1400 KS7880               2AZ
630328007630328150-000776     630328006001023839756UTILITY/TOOL-BOX PL    0000001000+00003507+00000+0001T   00003507+0000001206          1400 KS7810               2AZ
630328008630328112-116069     630328006003000535064TCS CARRIER BAG JUMBO  0000001000+00000048+00000+0001T   00000048+0000001206          1400 KS7090               2AZ
630329000630329               630329               170213NK     1400+00000+NK0000002192+0000002192+000000000+000000307+0000002490+0000000009+I20000000000+0000002490+Z
630329001630329077-000924     630329006003000414055G/WRAP 700mmx2m WEDDING0000001000+00002192+00000+0001T   00002192+0000001218          1400 KS7112               2AZ
630330000630330               630330               170213NK     1400+00000+NK0000002630+0000002630+000000000+000000369+0000002990+0000000009+I20000000000+0000002990+Z
630330001630330159-000020     630330006001023905543HAIR DRYING MICROFIBRE 0000001000+00002630+00000+0001T   00002630+0000001504          1400 KS7200               2AZ
630331000630331               630331               170213NK     1400+00000+NK0000001314+0000001314+000000000+000000184+0000001490+0000000008+I20000000000+0000001490+Z
630331001630331046-000012     630331006904708013062BATTERIES AA  CARD-OF-40000001000+00001314+00000+0001T   00001314+0000001508          1400 KS7312               2AZ
630332000630332               630332               170213NK     1400+00000+NK0000001538+0000001538+000000000+000000216+0000001750+0000000004+I20000000000+0000001750+Z
630332001630332077-000299     630332006003000395576G/BAG 32x25cm LRG LOVE 0000001000+00001490+00000+0001T   00001490+0000001510          1400 KS7112               2AZ
630332002630332112-116069     630332006003000535064TCS CARRIER BAG JUMBO  0000001000+00000048+00000+0001T   00000048+0000001510          1400 KS7090               2AZ
630333000630333               630333               170213NK     1400+00000+NK0000011751+0000011751+000000000+000001646+0000013397+0000000000+I40000013397+0000000000+Z
630333001630333039-000799     630333006001023692382CANDLES TEALITE 100PCE 0000001000+00008771+00000+0001T   00008771+0000001512          1400 KS7510               2AZ
630333002630333565-004101     630333006003000548033BALL BOUNCING EGG      0000002000+00001490+00000+0001T   00001490+0000001512          1400 KS7745               2AZ
630334000630334               630334               170213NK     1400+00000+NK0000001928+0000001928+000000000+000000270+0000002190+0000000008+I20000000000+0000002190+Z
630334001630334903-000843     630334008693029031067SWT GUMMY JELAXY 80G   0000002000+00000964+00000+0001T   00000964+0000001513          1400 KS7150               2AZ
630335000630335               630335               170213NK     1400+00000+NK0000002665+0000002665+000000000+000000374+0000003030+0000000009+I20000000000+0000003030+Z
630335001630335159-000684     630335006001023776532BATH BODY-GLOVE 18cm   0000001000+00002630+00000+0001T   00002630+0000001516          1400 KS7200               2AZ
630335002630335112-116038     630335006003000534906TCS CARRIER BAG MIDI   0000001000+00000035+00000+0001T   00000035+0000001516          1400 KS7090               2AZ
630336000630336               630336               170213NK     1400+00000+NK0000003542+0000003542+000000000+000000496+0000004030+0000000008+I20000000000+0000004030+Z
630336001630336301-085004     630336006003000420469ORN LOVE PLAQUE 21X10CM0000001000+00003507+00000+0001T   00003946+0006471522          1400 KS7505               2AZ
630336002630336112-116038     630336006003000534906TCS CARRIER BAG MIDI   0000001000+00000035+00000+0001T   00000035+0000001522          1400 KS7090               2AZ
630337000630337               630337               170213NK     1400+00000+NK0000009166+0000009166+000000000+000001285+0000010450+0000000001+I20000000000+0000010450+Z
630337001630337105-001067     630337006003000631032CONTAINER CLIP LOCK    0000001000+00001753+00000+0001T   00001753+0000001524          1400 KS7210               2AZ
630337002630337105-001180     630337006003000666522CONTAINER SET LITE 3PC 0000001000+00003069+00000+0001T   00003069+0000001524          1400 KS7210               2AZ
630337003630337105-001185     630337006003000666645CONTAINER SET LITE 2PC 0000001000+00003069+00000+0001T   00003069+0000001524          1400 KS7210               2AZ
630337004630337002-021042     630337006001023621801TOOTHPICKS 250PCE      0000001000+00001227+00000+0001T   00001227+0000001524          1400 KS7300               2AZ
630337005630337112-116069     630337006003000535064TCS CARRIER BAG JUMBO  0000001000+00000048+00000+0001T   00000048+0000001524          1400 KS7090               2AZ
630338000630338               630338               170213NK     1400+00000+NK0000001437+0000001437+000000000+000000202+0000001630+0000000009+I20000000000+0000001630+Z
630338001630338304-001204     630338006001023737984FLOWER OCC. TEDDY/ROSES0000001000+00001402+00000+0001T   00001490+0006471525          1400 KS7510               2AZ
630338002630338112-116038     630338006003000534906TCS CARRIER BAG MIDI   0000001000+00000035+00000+0001T   00000035+0000001525          1400 KS7090               2AZ
630339000630339               630339               170213NK     1400+00000+NK0000001051+0000001051+000000000+000000148+0000001190+0000000009+I20000000000+0000001190+Z
630339001630339903-002891     630339008935001721376MENTOS GUM WINTERGREEN 0000001000+00001051+00000+0001T   00001051+0000001531          1400 KS7150               2AZ
630340000630340               630340               170213NK     1400+00000+NK0000002665+0000002665+000000000+000000374+0000003030+0000000009+I20000000000+0000003030+Z
630340001630340031-005918     630340006003000580453P/FRAME PL PLAIN 10X15 0000001000+00002630+00000+0001T   00002630+0000001532          1400 KS7510               2AZ
630340002630340112-116038     630340006003000534906TCS CARRIER BAG MIDI   0000001000+00000035+00000+0001T   00000035+0000001532          1400 KS7090               2AZ
630341000630341               630341               170213NK     1400+00000+NK0000005260+0000005260+000000000+000000737+0000005997+0000000000+I40000005997+0000000000+Z
630341001630341079-000286     630341006001023797032FINGER-PAINT 4PCE      0000001000+00003507+00000+0001T   00003507+0000001536          1400 KS7130               2AZ
630341002630341079-000275     630341006003000160488PAINT-BRUSHES 6PCE PRO 0000001000+00001753+00000+0001T   00001753+0000001536          1400 KS7130               2AZ
630342000630342               630342               170213NK     1400+00000+NK0000005923+0000005923+000000000+000000830+0000006750+0000000003+I20000000000+0000006750+Z
630342001630342077-000299     630342006003000395576G/BAG 32x25cm LRG LOVE 0000001000+00001490+00000+0001T   00001490+0000001554          1400 KS7112               2AZ
630342002630342368-000001     630342006003000097982Plush Bear 25cm        0000001000+00004385+00000+0001T   00004385+0000001554          1400 KS7745               2AZ
630342003630342112-116069     630342006003000535064TCS CARRIER BAG JUMBO  0000001000+00000048+00000+0001T   00000048+0000001554          1400 KS7090               2AZ
630343000630343               630343               170213NK     1400+00000+NK0000002192+0000002192+000000000+000000307+0000002490+0000000009+I20000000000+0000002490+Z
630343001630343567-010395     630343006002242053466GENERIC AFRIKAANS READE0000001000+00002192+00000+0001T   00002192+0000001555          1400 KS7757               2AZ
630344000630344               630344               170213NK     1400+00000+NK0000002892+0000002892+000000000+000000405+0000003290+0000000007+I20000000000+0000003290+Z
630344001630344903-000194     630344006009826020616SWT CHOC RP LOLLY 25G  0000001000+00001314+00000+0001T   00001314+0000001601          1400 KS7150               2AZ
630344002630344018-000127     630344006001023380289MUG OCC STRAIGHT LOVE  0000001000+00001578+00000+0001T   00001753+0006471601          1400 KS7515               2AZ
630345000630345               630345               170213NK     1400+00000+NK0000005875+0000005875+000000000+000000823+0000006690+0000000008+I20000000000+0000006690+Z
630345001630345031-080508     630345006001023802415P/FRAME PL 22X11CM LOVE0000001000+00004385+00000+0001T   00004385+0000001608          1400 KS7510               2AZ
630345002630345077-000299     630345006003000395576G/BAG 32x25cm LRG LOVE 0000001000+00001490+00000+0001T   00001490+0000001608          1400 KS7112               2AZ
630346000630346               630346               170213NK     1400+00000+NK0000001753+0000001753+000000000+000000246+0000001990+0000000009+I20000000000+0000001990+Z
630346001630346080-000113     630346006003000237449CARD&ENVLPE - LOVE     0000001000+00001753+00000+0001T   00001753+0000001609          1400 KS7112               2AZ
630347000630347               630347               170213NK     1400+00000+NK0000005262+0000005262+000000000+000000737+0000005999+0000000000+I40000005999+0000000000+Z
630347001630347301-085003     630347006003000420827ORN OCCASION LOVE KEY  0000001000+00005262+00000+0001T   00005262+0000001611          1400 KS7505               2AZ
630348000630348               630348               170213NK     1400+00000+NK0000001753+0000001753+000000000+000000246+0000001990+0000000009+I20000000000+0000001990+Z
630348001630348006-000120     630348006001023346889BALLOONS 10PC MIX COL  0000001000+00001753+00000+0001T   00001753+0000001611          1400 KS7131               2AZ
630349000630349               630349               170213NK     1400+00000+NK0000003542+0000003542+000000000+000000496+0000004038+0000000000+I40000004038+0000000000+Z
630349001630349018-005009     630349006001023725608MUG W/PLUSH-BEAR LOVE  0000001000+00003507+00000+0001T   00003507+0000001614          1400 KS7515               2AZ
630349002630349112-116038     630349006003000534906TCS CARRIER BAG MIDI   0000001000+00000035+00000+0001T   00000035+0000001614          1400 KS7090               2AZ
630350000630350               630350               170213NK     1400+00000+NK0000001662+0000001662+000000000+000000235+0000001890+0000000007+I20000000000+0000001890+Z
630350001630350362-001105     630350006003000635917JEWELLERY BRACELETS    0000001000+00000876+00000+0001T   00000876+0000001615          1400 KS7160               2AZ
630350002630350903-000183     630350006003000451043SWT LB HEART LOLLY     0000002000+00000393+00000+0001T   00000393+0000001615          1400 KS7150               2AZ
630351000630351               630351               170213NK     1400+00000+NK0000002630+0000002630+000000000+000000369+0000002990+0000000009+I20000000000+0000002990+Z
630351001630351079-006495     630351006003000159987GLITTER SHAKERS 6PK    0000001000+00002630+00000+0001T   00002630+0000001616          1400 KS7130               2AZ
630352000630352               630352               170213NK     1400+00000+NK0000000700+0000000700+000000000+000000098+0000000790+0000000008+I20000000000+0000000790+Z
630352001630352159-000637     630352006001023735058BATH PUMICE STONE      0000001000+00000700+00000+0001T   00000700+0000001616          1400 KS7200               2AZ
630353000630353               630353               170213NK     1400+00000+NK0000007892+0000007892+000000000+000001106+0000008998+0000000000+I40000008998+0000000000+Z
630353001630353204-000001     630353006003000575558M/HOLD BOTTLE OPENER   0000001000+00001753+00000+0001T   00001753+0000001620          1400 KS7300               2AZ
630353002630353035-000001     630353006002596010566UMBRELLA LADIES W/MINI 0000001000+00006139+00000+0001T   00006139+0000001620          1400 KS7205               2AZ
630354000630354               630354               170213NK     1400+00000+NK0000014504+0000014504+000000000+000002032+0000016530+0000000006+I20000000000+0000016530+Z
630354001630354903-000619     630354006003000672455SWT LOLLY STR/BRRY 140G0000002000+00001753+00000+0001T   00001753+0000001623          1400 KS7150               2AZ
630354002630354903-000083     630354006001704014090SWT TUBE SPECKLED 115G 0000001000+00002192+00000+0001T   00002192+0000001623          1400 KS7150               2AZ
630354003630354368-000614     630354006001023705808PLUSH LOVE 30cm        0000001000+00008771+00000+0001T   00008771+0000001623          1400 KS7745               2AZ
630354004630354112-116038     630354006009681820246TCS CARRIER BAG MIDI   0000001000+00000035+00000+0001T   00000035+0000001623          1400 KS7090               2AZ
630355000630355               630355               170213NK     1400+00000+NK0000014504+0000014504+000000000+000002032+0000016536+0000000000+I40000016536+0000000000+Z
630355001630355112-116038     630355006003000534906TCS CARRIER BAG MIDI   0000001000+00000035+00000+0001T   00000035+0000001625          1400 KS7090               2AZ
630355002630355368-000614     630355006001023705808PLUSH LOVE 30cm        0000001000+00008771+00000+0001T   00008771+0000001625          1400 KS7745               2AZ
630355003630355903-000083     630355006001704014090SWT TUBE SPECKLED 115G 0000001000+00002192+00000+0001T   00002192+0000001625          1400 KS7150               2AZ
630355004630355903-000619     630355006003000672455SWT LOLLY STR/BRRY 140G0000002000+00001753+00000+0001T   00001753+0000001625          1400 KS7150               2AZ
630356000630356               630356               170213NK     1400+00000+NK0000014504-0000014504-000000000+000002032-0000016540-0000000004+I20000000000+0000016540-Z
630356001630356112-116038     630356006003000534906TCS CARRIER BAG MIDI   0000001000-00000035+00000+0001T   00000035+0000001627          1400 KS70901IC            2 Z
630356002630356368-000614     630356006001023705808PLUSH LOVE 30cm        0000001000-00008771+00000+0001T   00008771+0000001627          1400 KS77451IC            2 Z
630356003630356903-000083     630356006001704014090SWT TUBE SPECKLED 115G 0000001000-00002192+00000+0001T   00002192+0000001627          1400 KS71501IC            2 Z
630356004630356903-000619     630356006003000672455SWT LOLLY STR/BRRY 140G0000002000-00001753+00000+0001T   00001753+0000001627          1400 KS71501IC            2 Z
630357000630357               630357               170213NK     1400+00000+NK0000004856+0000004856+000000000+000000680+0000005530+0000000006+I20000000000+0000005530+Z
630357001630357018-005009     630357006001023725608MUG W/PLUSH-BEAR LOVE  0000001000+00003507+00000+0001T   00003507+0000001629          1400 KS7515               2AZ
630357002630357112-116038     630357006009681820246TCS CARRIER BAG MIDI   0000001000+00000035+00000+0001T   00000035+0000001629          1400 KS7090               2AZ
630357003630357903-000194     630357006009826020616SWT CHOC RP LOLLY 25G  0000001000+00001314+00000+0001T   00001314+0000001629          1400 KS7150               2AZ
630358000630358               630358               170213NK     1400+00000+NK0000016662+0000016662+000000000+000002334+0000018990+0000000006+I20000000000+0000018990+Z
630358001630358301-085002     630358006003000420704ORN OCC. LOVE BELL ASST0000001000+00001753+00000+0001T   00002630+0008121630          1400 KS7505               2AZ
630358002630358031-000001-A   630358006003000246908P/FRAME GLS LOVE 9X13cm0000001000+00004385+00000+0001T   00004385+0000001630          1400 KS7510               2AZ
630358003630358368-000614     630358006001023705808PLUSH LOVE 30cm        0000001000+00008771+00000+0001T   00008771+0000001630          1400 KS7745               2AZ
630358004630358077-000454     630358006003000285266G/BAG METALLIC LRG EMB 0000001000+00001753+00000+0001T   00001753+0000001630          1400 KS7112               2AZ
630359000630359               630359               170213NK     1400+00000+NK0000001314+0000001314+000000000+000000184+0000001490+0000000008+I20000000000+0000001490+Z
630359001630359903-000194     630359006009826020616SWT CHOC RP LOLLY 25G  0000001000+00001314+00000+0001T   00001314+0000001632          1400 KS7150               2AZ
630360000630360               630360               170213NK     1400+00000+NK0000001490+0000001490+000000000+000000209+0000001690+0000000009+I20000000000+0000001690+Z
630360001630360028-000796     630360006001023812094SKEWERS 25cm 50PCE 4mm 0000001000+00001490+00000+0001T   00001490+0000001632          1400 KS7305               2AZ
630361000630361               630361               170213NK     1400+00000+NK0000002539+0000002539+000000000+000000358+0000002897+0000000000+I40000002897+0000000000+Z
630361001630361903-000183     630361006003000451043SWT LB HEART LOLLY     0000002000+00000393+00000+0001T   00000393+0000001634          1400 KS7150               2AZ
630361002630361039-001023     630361006003000466337CANDLE TEA-LITE METALIC0000001000+00001753+00000+0001T   00001753+0000001634          1400 KS7510               2AZ
630362000630362               630362               170213NK     1400+00000+NK0000009241+0000009241+000000000+000001295+0000010536+0000000000+I40000010536+0000000000+Z
630362001630362304-001011     630362006001023806727FLWR ROSE RED W/BEAR   0000001000+00000613+00000+0001T   00000788+0006471637          1400 KS7510               2AZ
630362002630362301-085003     630362006003000420827ORN OCCASION LOVE KEY  0000001000+00005262+00000+0001T   00005262+0000001637          1400 KS7505               2AZ
630362003630362080-000113     630362006003000237449CARD&ENVLPE - LOVE     0000001000+00001753+00000+0001T   00001753+0000001637          1400 KS7112               2AZ
630362004630362077-000303     630362006001023593757GIFT-BAG PAPER MED     0000001000+00001578+00000+0001T   00001578+0000001637          1400 KS7112               2AZ
630362005630362112-116038     630362006009681820246TCS CARRIER BAG MIDI   0000001000+00000035+00000+0001T   00000035+0000001637          1400 KS7090               2AZ
630363000630363               630363               170213NK     1400+00000+NK0000004242+0000004242+000000000+000000595+0000004830+0000000007+I20000000000+0000004830+Z
630363001630363033-001399     630363006001023905512HAIR-PINS 100PCE       0000001000+00001753+00000+0001T   00001753+0000001638          1400 KS7200               2AZ
630363002630363033-001400     630363006009654960474HAIR-CURLERS 10PCE SML 0000002000+00001227+00000+0001T   00001227+0000001638          1400 KS7200               2AZ
630363003630363112-116038     630363006009681820246TCS CARRIER BAG MIDI   0000001000+00000035+00000+0001T   00000035+0000001638          1400 KS7090               2AZ
630364000630364               630364               170213NK     1400+00000+NK0000001490+0000001490+000000000+000000209+0000001690+0000000009+I20000000000+0000001690+Z
630364001630364016-006510     630364006003000593330STORAGE-JAR 6PC 10ml   0000001000+00001490+00000+0001T   00001490+0000001638          1400 KS7300               2AZ
630365000630365               630365               170213NK     1400+00000+NK0000004385+0000004385+000000000+000000614+0000004999+0000000000+I40000004999+0000000000+Z
630365001630365082-000100     630365006003000360246READING GLS STRENGHT:1 0000001000+00004385+00000+0001T   00004385+0000001640          1400 KS7160               2AZ
630366000630366               630366               170213NK     1400+00000+NK0000003331+0000003331+000000000+000000467+0000003790+0000000008+I20000000000+0000003790+Z
630366001630366903-000087     630366006001704000161SWT SPECKLED-EGGS 50G  0000001000+00001139+00000+0001T   00001139+0000001641          1400 KS7150               2AZ
630366002630366018-000170     630366006001023775528MUG OCC. LOVE 2PC MINI 0000001000+00002192+00000+0001T   00002192+0000001641          1400 KS7515               2AZ
630367000630367               630367               170213NK     1400+00000+NK0000001753+0000001753+000000000+000000246+0000001990+0000000009+I20000000000+0000001990+Z
630367001630367200-003024     630367006001023657299REFUSE BAGS 20PCE BLACK0000001000+00001753+00000+0001T   00001753+0000001642          1400 KS7214               2AZ
630368000630368               630368               170213NK     1400+00000+NK0000005084+0000005084+000000000+000000713+0000005790+0000000007+I20000000000+0000005790+Z
630368001630368033-001363     630368006001023802057HAIR-CLIPS 50mm 48PCE  0000001000+00001139+00000+0001T   00001139+0000001645          1400 KS7200               2AZ
630368002630368362-000316     630368006003000654994HAIR HEADBAND FASHION  0000001000+00002192+00000+0001T   00002192+0000001645          1400 KS7160               2AZ
630368003630368039-001023     630368006003000466337CANDLE TEA-LITE METALIC0000001000+00001753+00000+0001T   00001753+0000001645          1400 KS7510               2AZ
630369000630369               630369               170213NK     1400+00000+NK0000000648+0000000648+000000000+000000091+0000000730+0000000009+I20000000000+0000000730+Z
630369001630369304-001011     630369006001023806727FLWR ROSE RED W/BEAR   0000001000+00000613+00000+0001T   00000788+0006471646          1400 KS7510               2AZ
630369002630369112-116038     630369006009681820246TCS CARRIER BAG MIDI   0000001000+00000035+00000+0001T   00000035+0000001646          1400 KS7090               2AZ
630370000630370               630370               170213NK     1400+00000+NK0000008624+0000008624+000000000+000001208+0000009832+0000000000+I40000009832+0000000000+Z
630370001630370079-006498     630370006001023836151GLITTER SET 10PCE      0000001000+00003507+00000+0001T   00003507+0000001648          1400 KS7130               2AZ
630370002630370033-000106     630370006001023678027ELASTIC  6mmx3m  CARDED0000001000+00000876+00000+0001T   00000876+0000001648          1400 KS7200               2AZ
630370003630370566-001234     630370006003000217793STICKERS LASER ASSTD   0000001000+00001578+00000+0001T   00001578+0000001648          1400 KS7130               2AZ
630370004630370903-000194     630370006009826020616SWT CHOC RP LOLLY 25G  0000002000+00001314+00000+0001T   00001314+0000001648          1400 KS7150               2AZ
630370005630370112-116038     630370006009681820246TCS CARRIER BAG MIDI   0000001000+00000035+00000+0001T   00000035+0000001648          1400 KS7090               2AZ
630371000630371               630371               170213NK     1400+00000+NK0000020162+0000020162+000000000+000002823+0000022980+0000000005+I20000000000+0000022980+Z
630371001630371077-000245     630371006001023759214GIFT-RIBBON METALLICx2 0000001000+00001227+00000+0001T   00001227+0000001651          1400 KS7112               2AZ
630371002630371112-116038     630371006009681820246TCS CARRIER BAG MIDI   0000001000+00000035+00000+0001T   00000035+0000001651          1400 KS7090               2AZ
630371003630371018-000177     630371006001023797513MUG MINI LOVE ASSTD    0000027000+00000700+00000+0001T   00000700+0000001651          1400 KS7515               2AZ
630372000630372               630372               170213NK     1400+00000+NK0000000613+0000000613+000000000+000000086+0000000690+0000000009+I20000000000+0000000690+Z
630372001630372565-000044     630372006003000128280BARREL OF SLIME 100g   0000001000+00000613+00000+0001T   00000613+0000001651          1400 KS7745               2AZ
630373000630373               630373               170213NK     1400+00000+NK0000001578+0000001578+000000000+000000221+0000001799+0000000000+I40000001799+0000000000+Z
630373001630373080-000124     630373006003000297733CARD & ENV VALENTINES  0000001000+00001578+00000+0001T   00001578+0000001654          1400 KS7112               2AZ
630374000630374               630374               170213NK     1400+00000+NK0000004944+0000004944+000000000+000000693+0000005630+0000000007+I20000000000+0000005630+Z
630374002630374304-001204     630374006001023737984FLOWER OCC. TEDDY/ROSES0000001000+00001402+00000+0001T   00001490+0006471657          1400 KS7510               2AZ
630374003630374112-116038     630374006009681820246TCS CARRIER BAG MIDI   0000001000+00000035+00000+0001T   00000035+0000001657          1400 KS7090               2AZ
630374004630374301-085004     630374006003000420469ORN LOVE PLAQUE 21X10CM0000001000+00003507+00000+0001T   00003946+0006471657          1400 KS7505               2AZ
630375000630375               630375               170213NK     1400+00000+NK0000001753+0000001753+000000000+000000246+0000001990+0000000009+I20000000000+0000001990+Z
630375001630375306-000024-A   630375006003000577309COTTON-WOOL-PADS 80PC  0000001000+00001753+00000+0001T   00001753+0000001658          1400 KS7200               2AZ
630376000630376               630376               170213NK     1400+00000+NK0000014720-0000000000+000000000+000000000+0000014720-0000000000+I20000000000+0000014720-Z
630376001630376001-999901     630376000000000999901CASUAL WAGES           0000001000-00014720+00000+0001X  9801260039088 0800MDU PL0000000000 KS79011IC OOY        2 Z
630377000630377               630377               170213NK     1400+00000+NK0000013243+0000013243+000000000+000001855+0000015090+0000000008+I20000000000+0000015090+Z
630377001630377047-000512-H   630377006001023657473EXT-CORD 3m DBL-J   H&H0000001000+00006578+00000+0001T   00006578+0000001705          1400 KS7880               2AZ
630377002630377047-000006-H   630377006001023704054M/PLUG 3x16A+3x5A+CARD 0000001000+00006665+00000+0001T   00006665+0000001705          1400 KS7880               2AZ
630378000630378               630378               170213NK     1400+00000+NK0000001753+0000001753+000000000+000000246+0000001990+0000000009+I20000000000+0000001990+Z
630378001630378903-000612     630378006003000617449SWT TRUMPET 20cm       0000001000+00001753+00000+0001T   00001753+0000001706          1400 KS7150               2AZ
630379000630379               630379               170213NK     1400+00000+NK0000000876+0000000876+000000000+000000123+0000000990+0000000009+I20000000000+0000000990+Z
630379001630379077-000314     630379006003000181148GIFT-BAG 11X14CM MATT  0000001000+00000876+00000+0001T   00000876+0000001710          1400 KS7112               2AZ
A17021300                                          14505435NKSLAVE 2                       DH61IC
A17021301                                          14525778NKSLAVE 2                       DH61IC
A17021302                                          17012665NKSLAVE 2                       KS71IC
C63037400                                          170213NK304-001114     16564451SLAVE 2     KS71IC0000000000+0000000000+0010000001000+
M17021301                              IT          NKGLADWYN                                         LAST TILL SLIP NO'630379                        THANK YOU                                       KBY NK
M17021302                              SHIEHAAM    NKSHIEHAAM                                        BANKING     R1470.80                            C/CARDS     R1070.73                            Z-READING   R2688.73                            THANK YOU                                       KBY NK
M17021391                              CASH        NKSLAVE 2                       Z-REPORT No.   619TOTAL (Sales - Refunds)           2688.73       CASH TO BE BANKED                 1470.80       DEBIT CARDS                          0.00       CREDIT CARDS                      1070.73       Z-READING                         2541.53       AIRTIME DEBIT CARD SALES             0.00       AIRTIME CARD SALES                   0.00       OVERS/UNDERS                         0.00       AIRTIME CASH SALES                   0.00       GIFT CARDS                           0.00       GIFT CARD CASH SALES                 0.00       CASUAL WAGES                       147.20       T O T A L  CASH PAYOUTS            147.20                                                                                                                                                                                                                                                                                                      Z
M17021392                              CASH        NKABSENT                                                                                                                                                                                          ANNUAL LEAVE                                                                                                                                                                                    DAY OFF                                                                                                                                                                                         COMMENTS                                                          BALANCE                                                                                                                                                                                                                                                                                                                      Z
Y17021300                                          NK00013500250594+000051
ZNK17021321123 SLAVE 2      SALES DATA                     NEXT INVOICE NO.  630380 0619
X NK Slave 2 First invoice 630327 170213 Last invoice 630379 170213 Next invoice 630380 Total number of records 000000176 clbackup completed 21:12:40
