105492000105492               105492               170213NL     1400+00000+NL0000014028+0000014028+000000000+000001964+0000015992+0000000000+I40000015992+0000000000+Z
105492001105492567-075490     105492009780799372298BK NOVEL ROMANCE AFR   0000002000+00003507+00000+0001T   00003507+0000000905          1400 SR8757               1AZ
105492002105492567-075490     105492009780799376272BK NOVEL ROMANCE AFR   0000001000+00003507+00000+0001T   00003507+0000000905          1400 SR8757               1AZ
105492003105492567-075490     105492009780799376470BK NOVEL ROMANCE AFR   0000001000+00003507+00000+0001T   00003507+0000000905          1400 SR8757               1AZ
105493000105493               105493               170213NL     1400+00000+NL0000033822+0000033822+000000000+000004740+0000038560+0000000002+I20000000000+0000038560+Z
105493001105493103-000627     105493006003000676057BAMBOO BASKET W/ROPE   0000004000+00003069+00000+0001T   00003069+0000000919          1400 SR8300               1AZ
105493002105493103-000088     105493006001023795625BAMBOO BASKET  W/HNDLES0000003000+00003069+00000+0001T   00003069+0000000919          1400 SR8300               1AZ
105493003105493079-009000     105493006003000249619CANVAS P/SET 20X20CM   0000002000+00003507+00000+0001T   00003507+0000000919          1400 SR8130               1AZ
105493004105493077-000150-D   105493006003000054343GIFT-WRAP CELLPHANE CLR0000003000+00000876+00000+0001T   00000876+0000000919          1400 SR8112               1AZ
105493005105493077-000151     105493006008766114676GIFT-WRAP C/PHANE ASSTD0000003000+00000876+00000+0001T   00000876+0000000919          1400 SR8112               1AZ
105493006105493112-116053     105493006006438002399TCS CARRIER BAG 38L    0000001000+00000069+00000+0001T   00000069+0000000919          1400 SR8090               1AZ
105494000105494               105494               170213NL     1400+00000+NL0000014341+0000014341+000000000+000002010+0000016351+0000000000+I40000016351+0000000000+Z
105494001105494200-000010     105494006925406841061BAG ZIPPERSEAL 35PC    0000001000+00002192+00000+0001T   00002192+0000000921          1400 SR8214               1AZ
105494002105494002-000715     105494006001023806574CUTTING-BOARD 28x20cm  0000001000+00003946+00000+0001T   00003946+0000000921          1400 SR8300               1AZ
105494003105494562-000070     105494006003000600748EDU PLAY DOUGH 50g 8pc 0000001000+00007016+00000+0001T   00007016+0000000921          1400 SR8755               1AZ
105494004105494903-000087     105494006001704000161SWT SPECKLED-EGGS 50G  0000001000+00001139+00000+0001T   00001139+0000000921          1400 SR8150               1AZ
105494005105494112-116069     105494006009681820277TCS CARRIER BAG JUMBO  0000001000+00000048+00000+0001T   00000048+0000000921          1400 SR8090               1AZ
105495000105495               105495               170213NL     1400+00000+NL0000013901+0000013901+000000000+000001948+0000015840+0000000009+I20000000000+0000015840+Z
105495001105495112-116069     105495006009681820277TCS CARRIER BAG JUMBO  0000001000+00000048+00000+0001T   00000048+0000000941          1400 SR8090               1AZ
105495002105495467-000009     105495006001023682017BEACH-SET 6PCE         0000002000+00003069+00000+0001T   00003069+0000000941          1400 SR8785               1AZ
105495003105495261-000032     105495006003000549771GUN W/SUCTION DARTS    0000001000+00002630+00000+0001T   00002630+0000000941          1400 SR8710               1AZ
105495004105495366-000400     105495006001023918468DRESS UP SHOES IN BOX  0000001000+00003507+00000+0001T   00003507+0000000941          1400 SR8131               1AZ
105495005105495362-003007     105495006003000295401GIRL FASHION SUNGLASSES0000001000+00001578+00000+0001T   00001753+0008190941          1400 SR8160               1AZ
105496000105496               105496               170213NL     1400+00000+NL0000001139+0000001139+000000000+000000160+0000001290+0000000009+I20000000000+0000001290+Z
105496001105496903-000087     105496006001704000161SWT SPECKLED-EGGS 50G  0000001000+00001139+00000+0001T   00001139+0000000942          1400 SR8150               1AZ
105497000105497               105497               170213NL     1400+00000+NL0000007891+0000007891+000000000+000001105+0000008990+0000000006+I20000000000+0000008990+Z
105497001105497565-000887     105497006003000412334NOVELTY SILICONE TOY   0000002000+00002192+00000+0001T   00002192+0000000951          1400 SR8745               1AZ
105497002105497562-000011     105497006003000600984PLAY DOUGH NEON TUBE   0000001000+00003507+00000+0001T   00003507+0000000951          1400 SR8755               1AZ
105498000105498               105498               170213NL     1400+00000+NL0000011881+0000011881+000000000+000001665+0000013546+0000000000+I40000013546+0000000000+Z
105498001105498112-116069     105498006009681820277TCS CARRIER BAG JUMBO  0000001000+00000048+00000+0001T   00000048+0000000957          1400 SR8090               1AZ
105498002105498007-000211     105498006003000005796STATIONERY N/PAD 3PCK  0000001000+00001578+00000+0001T   00001578+0000000957          1400 SR8130               1AZ
105498003105498007-000167     105498006009685857347SPIRAL NOTES A7 72PG   0000003000+00000350+00000+0001T   00000350+0000000957          1400 SR8130               1AZ
105498004105498071-000701     105498006001023852830CLIPBOARD A4  23x30cm  0000001000+00003507+00000+0001T   00003507+0000000957          1400 SR8130               1AZ
105498005105498007-000205     105498006002324000432FILE BINDER 2-RING A4  0000002000+00001753+00000+0001T   00001753+0000000957          1400 SR8130               1AZ
105498006105498089-000501     105498006003000622900KEY CHAIN LIGHT LASER  0000001000+00002192+00000+0001T   00002192+0000000957          1400 SR8205               1AZ
105499000105499               105499               170213NL     1400+00000+NL0000003818+0000003818+000000000+000000535+0000004350+0000000003+I20000000000+0000004350+Z
105499001105499018-000127     105499006001023380289MUG OCC STRAIGHT LOVE  0000001000+00001578+00000+0001T   00001753+0006471009          1400 SR8515               1AZ
105499002105499080-000127     105499006003000424351VALENTINES DAY 36x24CM 0000001000+00002192+00000+0001T   00002192+0000001009          1400 SR8112               1AZ
105499003105499112-116069     105499006009681820277TCS CARRIER BAG JUMBO  0000001000+00000048+00000+0001T   00000048+0000001009          1400 SR8090               1AZ
105500000105500               105500               170213NL     1400+00000+NL0000005262+0000005262+000000000+000000737+0000005990+0000000009+I20000000000+0000005990+Z
105500001105500562-063360     105500006003000652167EDU LEARN LETTERS WDN  0000001000+00005262+00000+0001T   00005262+0000001012          1400 SR8755               1AZ
105501000105501               105501               170213NL     1400+00000+NL0000010524+0000010524+000000000+000001474+0000011990+0000000008+I20000000000+0000011990+Z
105501001105501174-000153     105501006003000060795STORAGE ORGANISER 3-DRW0000002000+00005262+00000+0001T   00005262+0000001025          1400 SR8205               1AZ
105502000105502               105502               170213NL     1400+00000+NL0000004342+0000004342+000000000+000000609+0000004950+0000000001+I20000000000+0000004950+Z
105502001105502080-000127     105502006003000424351VALENTINES DAY 36x24CM 0000001000+00002192+00000+0001T   00002192+0000001034          1400 SR8112               1AZ
105502002105502903-000200     105502006009826020234SWT CHOC RP CHOCO 23G  0000001000+00000788+00000+0001T   00000788+0000001034          1400 SR8150               1AZ
105502003105502903-000194     105502006009826020616SWT CHOC RP LOLLY 25G  0000001000+00001314+00000+0001T   00001314+0000001034          1400 SR8150               1AZ
105502004105502112-116069     105502006009681820277TCS CARRIER BAG JUMBO  0000001000+00000048+00000+0001T   00000048+0000001034          1400 SR8090               1AZ
105503000105503               105503               170213NL     1400+00000+NL0000022430+0000022430+000000000+000003143+0000025573+0000000000+I40000025573+0000000000+Z
105503001105503018-000129     105503006001023403353MUG OCC. LOVE V-SHAPE  0000001000+00002630+00000+0001T   00002630+0000001043          1400 SR8515               1AZ
105503002105503018-005009     105503006001023725608MUG W/PLUSH-BEAR LOVE  0000001000+00003507+00000+0001T   00003507+0000001043          1400 SR8515               1AZ
105503003105503368-000637     105503006001023874092PLUSH BEAR SLEEPING LOV0000001000+00011402+00000+0001T   00012279+0006471043          1400 SR8745               1AZ
105503004105503080-000127     105503006003000424351VALENTINES DAY 36x24CM 0000001000+00002192+00000+0001T   00002192+0000001043          1400 SR8112               1AZ
105503005105503077-000270     105503006003000395453GIFT-BAG PPR JMB 33X45 0000001000+00002630+00000+0001T   00002630+0000001043          1400 SR8112               1AZ
105503006105503112-116053     105503006006438002399TCS CARRIER BAG 38L    0000001000+00000069+00000+0001T   00000069+0000001043          1400 SR8090               1AZ
105504000105504               105504               170213NL     1400+00000+NL0000007677+0000007677+000000000+000001076+0000008750+0000000003+I20000000000+0000008750+Z
105504001105504018-050000     105504006003000412679MUG OCC LOVE TWIN BEAR 0000001000+00006139+00000+0001T   00006139+0000001048          1400 SR8515               1AZ
105504002105504077-000299     105504006003000395576G/BAG 32x25cm LRG LOVE 0000001000+00001490+00000+0001T   00001490+0000001048          1400 SR8112               1AZ
105504003105504112-116069     105504006009681820277TCS CARRIER BAG JUMBO  0000001000+00000048+00000+0001T   00000048+0000001048          1400 SR8090               1AZ
105505000105505               105505               170213NL     1400+00000+NL0000008241+0000008241+000000000+000001155+0000009390+0000000006+I20000000000+0000009390+Z
105505001105505006-000190     105505006003000685530BALLOONS LOVE 81x91cm  0000001000+00004385+00000+0001T   00004385+0000001051          1400 SR8131               1AZ
105505002105505006-000111     105505006003000519385BALLOONS LARGE 12PCE   0000001000+00002630+00000+0001T   00002630+0000001051          1400 SR8131               1AZ
105505003105505006-001000     105505006003000093779HELIUM BALLOON FILL    0000002000+00000613+00000+0001T   00000613+0000001051          1400 SR8131               1AZ
105506000105506               105506               170213NL     1400+00000+NL0000003191+0000003191+000000000+000000447+0000003630+0000000008+I20000000000+0000003630+Z
105506001105506018-000127     105506006001023380289MUG OCC STRAIGHT LOVE  0000002000+00001578+00000+0001T   00001753+0006471054          1400 SR8515               1AZ
105506002105506112-116038     105506006009681820246TCS CARRIER BAG MIDI   0000001000+00000035+00000+0001T   00000035+0000001054          1400 SR8090               1AZ
105507000105507               105507               170213NL     1400+00000+NL0000006698+0000006698+000000000+000000938+0000007630+0000000006+I20000000000+0000007630+Z
105507001105507031-000002-A   105507006003000247103P/FRAME LOVE 7.5X7.5CM 0000001000+00003507+00000+0001T   00003507+0000001055          1400 SR8510               1AZ
105507002105507077-000303     105507006001023593757GIFT-BAG PAPER MED     0000001000+00001578+00000+0001T   00001578+0000001055          1400 SR8112               1AZ
105507003105507080-000124     105507006003000297733CARD & ENV VALENTINES  0000001000+00001578+00000+0001T   00001578+0000001055          1400 SR8112               1AZ
105507004105507112-116038     105507006009681820246TCS CARRIER BAG MIDI   0000001000+00000035+00000+0001T   00000035+0000001055          1400 SR8090               1AZ
105508000105508               105508               170213NL     1400+00000+NL0000014270+0000014270+000000000+000002002+0000016270+0000000002+I20000000000+0000016270+Z
105508001105508105-000750     105508006003000190270CONTAINERS 4xMINI 150ml0000001000+00001402+00000+0001T   00001402+0000001100          1400 SR8210               1AZ
105508002105508105-001005     105508006001023858214CONTAINERS MINI 6PCE   0000001000+00001402+00000+0001T   00001402+0000001100          1400 SR8210               1AZ
105508003105508105-007000-B   105508006002580007374CONTAINER 3L ASSORTED  0000002000+00002192+00000+0001T   00002192+0000001100          1400 SR8210               1AZ
105508004105508079-000206     105508006003000639700PENCIL CRAYONS THERAPY 0000001000+00001753+00000+0001T   00001753+0000001100          1400 SR8130               1AZ
105508005105508071-005669     105508006003000153268STAPLER MINI W/STAPLES 0000001000+00002630+00000+0001T   00002630+0000001100          1400 SR8130               1AZ
105508006105508079-000300     105508006001023902245PAINTSET LEARN TO PAINT0000001000+00002630+00000+0001T   00002630+0000001100          1400 SR8130               1AZ
105508007105508112-116053     105508006006438002399TCS CARRIER BAG 38L    0000001000+00000069+00000+0001T   00000069+0000001100          1400 SR8090               1AZ
105509000105509               105509               170213NL     1400+00000+NL0000004645+0000004645+000000000+000000652+0000005297+0000000000+I40000005297+0000000000+Z
105509001105509903-000200     105509006009826020234SWT CHOC RP CHOCO 23G  0000002000+00000788+00000+0001T   00000788+0000001103          1400 SR8150               1AZ
105509002105509564-001028     105509006001023708663BUBBLE CELEBRATION 6ml 0000001000+00003069+00000+0001T   00003069+0000001103          1400 SR8131               1AZ
105510000105510               105510               170213NL     1400+00000+NL0000003542+0000003542+000000000+000000496+0000004030+0000000008+I20000000000+0000004030+Z
105510001105510018-000130     105510006001023867537MUG OCC LOVE MINI+HEART0000001000+00003507+00000+0001T   00003507+0000001126          1400 SR8515               1AZ
105510002105510112-116038     105510006009681820246TCS CARRIER BAG MIDI   0000001000+00000035+00000+0001T   00000035+0000001126          1400 SR8090               1AZ
105511000105511               105511               170213NL     1400+00000+NL0000006611+0000006611+000000000+000000926+0000007530+0000000007+I20000000000+0000007530+Z
105511001105511567-011428     105511009780799352542BK READER BEGIN LEES   0000001000+00003507+00000+0001T   00004823+0008141139          1400 SR8757               1AZ
105511002105511567-010555     105511009780799363142TIPPIE READERS ASSORTED0000001000+00003069+00000+0001T   00003069+0000001139          1400 SR8757               1AZ
105511003105511112-116038     105511006009681820246TCS CARRIER BAG MIDI   0000001000+00000035+00000+0001T   00000035+0000001139          1400 SR8090               1AZ
105512000105512               105512               170213NL     1400+00000+NL0000002630+0000002630+000000000+000000369+0000002990+0000000009+I20000000000+0000002990+Z
105512001105512077-000270     105512006003000395453GIFT-BAG PPR JMB 33X45 0000001000+00002630+00000+0001T   00002630+0000001141          1400 SR8112               1AZ
105513000105513               105513               170213NL     1400+00000+NL0000005085+0000005085+000000000+000000713+0000005790+0000000008+I20000000000+0000005790+Z
105513001105513142-000812     105513006003000165421GLOVES LATEX 10PCE-5PRS0000001000+00002630+00000+0001T   00002630+0000001142          1400 SR8810               1AZ
105513002105513200-000220     105513006008766126976BAKEPANS 5PCE          0000001000+00002455+00000+0001T   00002455+0000001142          1400 SR8214               1AZ
105514000105514               105514               170213NL     1400+00000+NL0000002192+0000002192+000000000+000000307+0000002490+0000000009+I20000000000+0000002490+Z
105514001105514080-000139     105514006003000611690CARD & ENV MINI SET 6PC0000001000+00002192+00000+0001T   00002192+0000001152          1400 SR8112               1AZ
105515000105515               105515               170213NL     1400+00000+NL0000001490+0000001490+000000000+000000209+0000001690+0000000009+I20000000000+0000001690+Z
105515001105515077-000305     105515006003000395422GIFT-BAG WINE 10X35CM  0000001000+00001490+00000+0001T   00001490+0000001154          1400 SR8112               1AZ
105516000105516               105516               170213NL     1400+00000+NL0000008771+0000008771+000000000+000001228+0000009999+0000000000+I40000009999+0000000000+Z
105516001105516001-091415     105516006003000329113W/GLS OCC. LOVE 2PC 2800000001000+00008771+00000+0001T   00009648+0006471204          1400 SR8515               1AZ
105517000105517               105517               170213NL     1400+00000+NL0000015082+0000015082+000000000+000002113+0000017190+0000000005+I20000000000+0000017190+Z
105517001105517366-000356     105517006003000006908DRESS UP WINGS FAIRY   0000002000+00004385+00000+0001T   00004385+0000001208          1400 SR8131               1AZ
105517002105517903-000090     105517006009826020821SWT GS CHOCO COINS 60g 0000003000+00002104+00000+0001T   00002104+0000001208          1400 SR8150               1AZ
105518000105518               105518               170213NL     1400+00000+NL0000006223+0000006223+000000000+000000873+0000007090+0000000006+I20000000000+0000007090+Z
105518001105518306-001720     105518006003000276257HAND SANITIZER WIPES   0000001000+00001753+00000+0001T   00001753+0000001216          1400 SR8200               1AZ
105518002105518019-071610     105518006001023904560PEBBLES WATER GEMS 10g 0000003000+00001490+00000+0001T   00001490+0000001216          1400 SR8510               1AZ
105519000105519               105519               170213NL     1400+00000+NL0000005117+0000005117+000000000+000000718+0000005830+0000000005+I20000000000+0000005830+Z
105519001105519077-000011-C   105519006001023808523TISSUE 10xSHTS RED     0000003000+00000876+00000+0001T   00000876+0000001222          1400 SR8112               1AZ
105519002105519903-000518     105519006001704012782SWT STRAWS S/BERRY 100g0000002000+00001227+00000+0001T   00001227+0000001222          1400 SR8150               1AZ
105519003105519112-116038     105519006009681820246TCS CARRIER BAG MIDI   0000001000+00000035+00000+0001T   00000035+0000001222          1400 SR8090               1AZ
105520000105520               105520               170213NL     1400+00000+NL0000001753+0000001753+000000000+000000246+0000001990+0000000009+I20000000000+0000001990+Z
105520001105520077-000381     105520006003000247707GIFT-BAG 25X32CM S/COL 0000001000+00001753+00000+0001T   00001753+0000001228          1400 SR8112               1AZ
105521000105521               105521               170213NL     1400+00000+NL0000004207+0000004207+000000000+000000589+0000004790+0000000006+I20000000000+0000004790+Z
105521001105521033-010721     105521006001023678669SAFETY-PINS 20PCE ASSTD0000001000+00000700+00000+0001T   00000700+0000001239          1400 SR8200               1AZ
105521002105521002-000679     105521006003000426188K/TOOL SET NYLON 3PC   0000001000+00003507+00000+0001T   00003507+0000001239          1400 SR8300               1AZ
105522000105522               105522               170213NL     1400+00000+NL0000000876+0000000876+000000000+000000123+0000000990+0000000009+I20000000000+0000000990+Z
105522001105522077-000151     105522006008766114676GIFT-WRAP C/PHANE ASSTD0000001000+00000876+00000+0001T   00000876+0000001241          1400 SR8112               1AZ
105523000105523               105523               170213NL     1400+00000+NL0000012762+0000012762+000000000+000001788+0000014550+0000000000+I40000014550+0000000000+Z
105523001105523368-000104     105523006001023751348PLUSH BEAR RUFFLED-LOOK0000001000+00006139+00000+0001T   00006139+0000001250          1400 SR8745               1AZ
105523002105523103-000090     105523006001023795786WOVEN HEART SHAPED     0000001000+00003507+00000+0001T   00003507+0000001250          1400 SR8300               1AZ
105523003105523077-000151     105523006008766114676GIFT-WRAP C/PHANE ASSTD0000001000+00000876+00000+0001T   00000876+0000001250          1400 SR8112               1AZ
105523004105523080-000127     105523006003000424351VALENTINES DAY 36x24CM 0000001000+00002192+00000+0001T   00002192+0000001250          1400 SR8112               1AZ
105523005105523112-116069     105523006009681820277TCS CARRIER BAG JUMBO  0000001000+00000048+00000+0001T   00000048+0000001250          1400 SR8090               1AZ
105524000105524               105524               170213NL     1400+00000+NL0000002980+0000002980+000000000+000000418+0000003390+0000000008+I20000000000+0000003390+Z
105524001105524033-005903-B   105524006001023678164B/LACES FLAT 120cm ASST0000002000+00001490+00000+0001T   00001490+0000001255          1400 SR8200               1AZ
105525000105525               105525               170213NL     1400+00000+NL0000000612+0000000612+000000000+000000086+0000000690+0000000008+I20000000000+0000000690+Z
105525001105525007-000234     105525006009685850638LABELS 24PK            0000002000+00000306+00000+0001T   00000306+0000001302          1400 SR8130               1AZ
105526000105526               105526               170213NL     1400+00000+NL0000001753+0000001753+000000000+000000246+0000001990+0000000009+I20000000000+0000001990+Z
105526001105526039-000318     105526006003000406159B/DAY CANDLES SMALL NO 0000001000+00001753+00000+0001T   00001753+0000001305          1400 SR8510               1AZ
105527000105527               105527               170213NL     1400+00000+NL0000008541+0000008541+000000000+000001197+0000009730+0000000008+I20000000000+0000009730+Z
105527001105527039-000108     105527006001023524034TEA-LITE CANDLES 8PCE  0000001000+00001490+00000+0001T   00001490+0000001313          1400 SR8510               1AZ
105527002105527039-000624     105527006003000054923C/SET 4PC PILLARS 5X8CM0000001000+00007016+00000+0001T   00007016+0000001313          1400 SR8510               1AZ
105527003105527112-116038     105527006009681820246TCS CARRIER BAG MIDI   0000001000+00000035+00000+0001T   00000035+0000001313          1400 SR8090               1AZ
105528000105528               105528               170213NL     1400+00000+NL0000028284+0000028284+000000000+000003963+0000032240+0000000007+I20000000000+0000032240+Z
105528001105528024-000107     105528006001023422071MUFFIN-PAN 12-CUP      0000002000+00009648+00000+0001T   00009648+0000001315          1400 SR8300               1AZ
105528002105528112-116069     105528006009681820277TCS CARRIER BAG JUMBO  0000001000+00000048+00000+0001T   00000048+0000001315          1400 SR8090               1AZ
105528003105528565-004101     105528006003000548033BALL BOUNCING EGG      0000006000+00001490+00000+0001T   00001490+0000001315          1400 SR8745               1AZ
105529000105529               105529               170213NL     1400+00000+NL0000006139+0000006139+000000000+000000860+0000006990+0000000009+I20000000000+0000006990+Z
105529001105529018-050000     105529006003000412679MUG OCC LOVE TWIN BEAR 0000001000+00006139+00000+0001T   00006139+0000001321          1400 SR8515               1AZ
105530000105530               105530               170213NL     1400+00000+NL0000000874+0000000874+000000000+000000124+0000000990+0000000008+I20000000000+0000000990+Z
105530001105530080-000133-A   105530006003000647019MINI VALENTINES CARD   0000002000+00000437+00000+0001T   00000437+0000001322          1400 SR8112               1AZ
105531000105531               105531               170213NL     1400+00000+NL0000001753+0000001753+000000000+000000246+0000001990+0000000009+I20000000000+0000001990+Z
105531001105531105-007021     105531006003000684779CONTAINER SQUARE CLR   0000001000+00001753+00000+0001T   00001753+0000001325          1400 SR8210               1AZ
105532000105532               105532               170213NL     1400+00000+NL0000000613+0000000613+000000000+000000086+0000000690+0000000009+I20000000000+0000000690+Z
105532001105532083-000055     105532006003000003853LIGHTER ELCTRNC REFILBL0000001000+00000613+00000+0001T   00000613+0000001332          1400 SR8315               1AZ
105533000105533               105533               170213NL     1400+00000+NL0000007830+0000007830+000000000+000001098+0000008928+0000000000+I40000008928+0000000000+Z
105533001105533903-005000     105533006002580020007SWT CT MALLOW FISH 120g0000001000+00001314+00000+0001T   00001314+0000001343          1400 SR8150               1AZ
105533002105533563-000317-B   105533006001023776174SERVIETTES PLN WHT PK400000001000+00001314+00000+0001T   00001314+0000001343          1400 SR8214               1AZ
105533003105533366-002681     105533006003000653744DRESS UP HAT FIRE CHIEF0000001000+00000876+00000+0001T   00000876+0000001343          1400 SR8131               1AZ
105533004105533903-000087     105533006001704000161SWT SPECKLED-EGGS 50G  0000001000+00001139+00000+0001T   00001139+0000001343          1400 SR8150               1AZ
105533005105533903-000099     105533006923431501646SWT CANDY GS WTCH B/LET0000002000+00000262+00000+0001T   00000262+0000001343          1400 SR8150               1AZ
105533006105533112-116038     105533006009681820246TCS CARRIER BAG MIDI   0000001000+00000035+00000+0001T   00000035+0000001343          1400 SR8090               1AZ
105533007105533006-000166-G   105533006003000607976BALLOONS HELIUM 6PC BLK0000001000+00001314+00000+0001T   00001314+0000001343          1400 SR8131               1AZ
105533008105533006-000167-E   105533006003000517213BALLOONS GOLD METALLIC 0000001000+00001314+00000+0001T   00001314+0000001343          1400 SR8131               1AZ
105534000105534               105534               170213NL     1400+00000+NL0000005120+0000005120+000000000+000000717+0000005837+0000000000+I40000005837+0000000000+Z
105534001105534031-005853     105534006003000442416P/FRAME WDN TWIN HEARTS0000001000+00003507+00000+0001T   00003507+0000001352          1400 SR8510               1AZ
105534002105534077-000303     105534006001023593757GIFT-BAG PAPER MED     0000001000+00001578+00000+0001T   00001578+0000001352          1400 SR8112               1AZ
105534003105534112-116038     105534006009681820246TCS CARRIER BAG MIDI   0000001000+00000035+00000+0001T   00000035+0000001352          1400 SR8090               1AZ
105535000105535               105535               170213NL     1400+00000+NL0000001578+0000001578+000000000+000000221+0000001790+0000000009+I20000000000+0000001790+Z
105535001105535080-000124     105535006003000297733CARD & ENV VALENTINES  0000001000+00001578+00000+0001T   00001578+0000001404          1400 SR8112               1AZ
105536000105536               105536               170213NL     1400+00000+NL0000002630+0000002630+000000000+000000369+0000002990+0000000009+I20000000000+0000002990+Z
105536001105536004-071192     105536006003000528813USB CABLE 1.0m         0000001000+00002630+00000+0001T   00002630+0000001407          1400 SR8310               1AZ
105537000105537               105537               170213NL     1400+00000+NL0000003507+0000003507+000000000+000000491+0000003990+0000000008+I20000000000+0000003990+Z
105537001105537018-000136     105537006001023659026MUG OCC LOVE W/PLUSH   0000001000+00003507+00000+0001T   00003507+0000001411          1400 SR8515               1AZ
105538000105538               105538               170213NL     1400+00000+NL0000001753+0000001753+000000000+000000246+0000001990+0000000009+I20000000000+0000001990+Z
105538001105538077-000299-A   105538006003000670888GIFT-BAG PAPER JMB LOVE0000001000+00001753+00000+0001T   00001753+0000001414          1400 SR8112               1AZ
105539000105539               105539               170213NL     1400+00000+NL0000011450+0000011450+000000000+000001604+0000013054+0000000000+I40000013054+0000000000+Z
105539001105539263-000216     105539006001023755643MONSTER JEEP FRICTION  0000001000+00011402+00000+0001T   00011402+0000001416          1400 SR8710               1AZ
105539002105539112-116069     105539006009681820277TCS CARRIER BAG JUMBO  0000001000+00000048+00000+0001T   00000048+0000001416          1400 SR8090               1AZ
105540000105540               105540               170213NL     1400+00000+NL0000000613+0000000613+000000000+000000086+0000000690+0000000009+I20000000000+0000000690+Z
105540001105540304-001502     105540006003000035533FLWR SATIN R/BUD 55CM  0000001000+00000613+00000+0001T   00000613+0000001419          1400 SR8510               1AZ
105541000105541               105541               170213NL     1400+00000+NL0000000832+0000000832+000000000+000000117+0000000940+0000000009+I20000000000+0000000940+Z
105541001105541159-000150-B   105541006005387002009SOAP-BOX PL ASSORTED   0000001000+00000832+00000+0001T   00000832+0000001424          1400 SR8200               1AZ
105542000105542               105542               170213NL     1400+00000+NL0000053553+0000053553+000000000+000007507+0000061060+0000000000+I40000061060+0000000000+Z
105542001105542566-000047     105542006003000159093SCRAPBOOK 100xSHEETS   0000001000+00005262+00000+0001T   00005262+0000001428          1400 SR8130               1AZ
105542002105542024-000180     105542006003000120888SILICONE LOAF-PAN      0000001000+00008771+00000+0001T   00008771+0000001428          1400 SR8300               1AZ
105542003105542566-000052     105542006003000275656SCRAPBOOK SLEEVE 10PCE 0000001000+00001753+00000+0001T   00001753+0000001428          1400 SR8130               1AZ
105542004105542006-000102     105542006001023806819BALLOONS W/BOMBS 50PCE 0000001000+00001490+00000+0001T   00001490+0000001428          1400 SR8131               1AZ
105542005105542055-009260     105542006001023613073PICTURE-HOOK+PIN 9PCE  0000001000+00002630+00000+0001T   00002630+0000001428          1400 SR8810               1AZ
105542006105542083-000063     105542006001023847058LIGHTER LONG    19x1,6 0000001000+00002630+00000+0001T   00003507+0008191428          1400 SR8315               1AZ
105542007105542024-000042     105542006002580009255M/CUP MINI 30ML H/HOUSE0000001000+00002192+00000+0001T   00002192+0000001428          1400 SR8300               1AZ
105542008105542566-000006     105542006001023671189STICKER-BOOK DRESS-UP  0000001000+00002630+00000+0001T   00002630+0000001428          1400 SR8130               1AZ
105542009105542046-000014-A   105542004897006177708BATTERIES SIZE:AAA 8PCE0000001000+00001753+00000+0001T   00001753+0000001428          1400 SR8312               1AZ
105542010105542200-000306     105542006003000358144TOAST BAGS 2-PACK      0000003000+00003069+00000+0001T   00003069+0000001428          1400 SR8214               1AZ
105542011105542046-000012-VP  105542006003000537914BATTERIES H/P SIZE:AA  0000001000+00004823+00000+0001T   00004823+0000001428          1400 SR8312               1AZ
105542012105542566-000052     105542006003000275656SCRAPBOOK SLEEVE 10PCE 0000004000+00001753+00000+0001T   00001753+0000001428          1400 SR8130               1AZ
105542013105542903-000510     105542006001704012621SWEET MS ZBDZ S/BERRY  0000001000+00001227+00000+0001T   00001227+0000001428          1400 SR8150               1AZ
105542014105542903-000095     105542006001704011495SWT SPECKLED-EGGS 100G 0000001000+00002104+00000+0001T   00002104+0000001428          1400 SR8150               1AZ
105542015105542112-116053     105542006006438002399TCS CARRIER BAG 38L    0000001000+00000069+00000+0001T   00000069+0000001428          1400 SR8090               1AZ
105543000105543               105543               170213NL     1400+00000+NL0000024246+0000024246+000000000+000003400+0000027640+0000000006+I20000000000+0000027640+Z
105543001105543301-085001     105543006003000297610ORN WATERBALL LOVE ASST0000002000+00004823+00000+0001T   00004823+0000001429          1400 SR8505               1AZ
105543002105543006-000323-A   105543006001023739452CONFETTI SLVR/GLD 3PACK0000003000+00002630+00000+0001T   00002630+0000001429          1400 SR8131               1AZ
105543003105543077-000299     105543006003000395576G/BAG 32x25cm LRG LOVE 0000001000+00001490+00000+0001T   00001490+0000001429          1400 SR8112               1AZ
105543004105543563-000318-L   105543006003000407088SERVIETTES 33cm RED    0000001000+00002192+00000+0001T   00002192+0000001429          1400 SR8214               1AZ
105543005105543565-004101     105543006003000548033BALL BOUNCING EGG      0000002000+00001490+00000+0001T   00001490+0000001429          1400 SR8745               1AZ
105543006105543112-116069     105543006009681820277TCS CARRIER BAG JUMBO  0000001000+00000048+00000+0001T   00000048+0000001429          1400 SR8090               1AZ
105544000105544               105544               170213NL     1400+00000+NL0000004385+0000004385+000000000+000000614+0000004990+0000000009+I20000000000+0000004990+Z
105544001105544031-005840     105544006001023481412P/FRAME-CLIP 30X40CM   0000001000+00004385+00000+0001T   00004385+0000001430          1400 SR8510               1AZ
105545000105545               105545               170213NL     1400+00000+NL0000004558+0000004558+000000000+000000639+0000005197+0000000000+I40000005197+0000000000+Z
105545001105545903-002853     105545000000087108019MENTOS ROLL MINT       0000001000+00001051+00000+0001T   00001051+0000001431          1400 SR8150               1AZ
105545002105545072-020310     105545006001023701015PET TOY MINI TENNIS BAL0000001000+00003507+00000+0001T   00003507+0000001431          1400 SR8870               1AZ
105546000105546               105546               170213NL     1400+00000+NL0000009030+0000009030+000000000+000001265+0000010290+0000000005+I20000000000+0000010290+Z
105546001105546018-000177     105546006001023797513MUG MINI LOVE ASSTD    0000001000+00000700+00000+0001T   00000700+0000001436          1400 SR8515               1AZ
105546002105546301-085001     105546006003000297610ORN WATERBALL LOVE ASST0000001000+00004823+00000+0001T   00004823+0000001436          1400 SR8505               1AZ
105546003105546031-005853     105546006003000442416P/FRAME WDN TWIN HEARTS0000001000+00003507+00000+0001T   00003507+0000001436          1400 SR8510               1AZ
105547000105547               105547               170213NL     1400+00000+NL0000002630+0000002630+000000000+000000369+0000002990+0000000009+I20000000000+0000002990+Z
105547001105547083-000058     105547006003000400331LIGHTER JET CIGAR REFIL0000001000+00002630+00000+0001T   00002630+0000001502          1400 SR8315               1AZ
105548000105548               105548               170213NL     1400+00000+NL0000000613+0000000613+000000000+000000086+0000000690+0000000009+I20000000000+0000000690+Z
105548001105548083-000055     105548006003000003853LIGHTER ELCTRNC REFILBL0000001000+00000613+00000+0001T   00000613+0000001503          1400 SR8315               1AZ
105549000105549               105549               170213NL     1400+00000+NL0000000393+0000000393+000000000+000000056+0000000440+0000000009+I20000000000+0000000440+Z
105549001105549903-000183     105549006003000451043SWT LB HEART LOLLY     0000001000+00000393+00000+0001T   00000393+0000001507          1400 SR8150               1AZ
105550000105550               105550               170213NL     1400+00000+NL0000001753+0000001753+000000000+000000246+0000001990+0000000009+I20000000000+0000001990+Z
105550001105550079-000206     105550006003000639700PENCIL CRAYONS THERAPY 0000001000+00001753+00000+0001T   00001753+0000001508          1400 SR8130               1AZ
105551000105551               105551               170213NL     1400+00000+NL0000000613+0000000613+000000000+000000086+0000000690+0000000009+I20000000000+0000000690+Z
105551001105551083-000055     105551006003000003853LIGHTER ELCTRNC REFILBL0000001000+00000613+00000+0001T   00000613+0000001510          1400 SR8315               1AZ
105552000105552               105552               170213NL     1400+00000+NL0000006623+0000006623+000000000+000000929+0000007550+0000000002+I20000000000+0000007550+Z
105552001105552566-000028     105552006003000265541STICKER BK ASSTD 250PCE0000001000+00001753+00000+0001T   00001753+0000001516          1400 SR8130               1AZ
105552002105552007-000196     105552006002324002375FILE LEVER ARCH A4     0000001000+00002630+00000+0001T   00002630+0000001516          1400 SR8130               1AZ
105552003105552077-000922     105552006003000413935G/WRAP 700mmx2m FLOWER 0000001000+00002192+00000+0001T   00002192+0000001516          1400 SR8112               1AZ
105552004105552112-116069     105552006009681820277TCS CARRIER BAG JUMBO  0000001000+00000048+00000+0001T   00000048+0000001516          1400 SR8090               1AZ
105553000105553               105553               170213NL     1400+00000+NL0000003506+0000003506+000000000+000000492+0000003990+0000000008+I20000000000+0000003990+Z
105553001105553565-000002     105553006003000308071NOVELTY GROWING ANIMALS0000002000+00001753+00000+0001T   00001753+0000001517          1400 SR8745               1AZ
105554000105554               105554               170213NL     1400+00000+NL0000004385+0000004385+000000000+000000614+0000004990+0000000009+I20000000000+0000004990+Z
105554001105554082-007587     105554006003000654338SUNGLASS DESIGNER ASST 0000001000+00004385+00000+0001T   00004385+0000001520          1400 SR8160               1AZ
105555000105555               105555               170213NL     1400+00000+NL0000012795+0000012795+000000000+000001795+0000014590+0000000000+I20000000000+0000014590+Z
105555001105555046-000014-A   105555004897006177708BATTERIES SIZE:AAA 8PCE0000001000+00001753+00000+0001T   00001753+0000001523          1400 SR8312               1AZ
105555002105555071-000006     105555006001023732613PENCIL REFILLABLE 6PK  0000001000+00001753+00000+0001T   00001753+0000001523          1400 SR8130               1AZ
105555003105555071-000325     105555006009635844090RULER PLASTIC 30cm     0000001000+00000437+00000+0001T   00000437+0000001523          1400 SR8130               1AZ
105555004105555030-000031-A   105555006003000457588PLAQUE W/WORDS ASSTD   0000001000+00004385+00000+0001T   00004823+0006471523          1400 SR8505               1AZ
105555005105555306-000022     105555006001023734877COTTON-WOOL PLEATS 50g 0000001000+00000876+00000+0001T   00000876+0000001523          1400 SR8200               1AZ
105555006105555903-002851     105555000000087108538MENTOS ROLL STRAWBERRY 0000001000+00001051+00000+0001T   00001051+0000001523          1400 SR8150               1AZ
105555007105555903-000844     105555005010478432567SWT CANDY DL LUV HEARTS0000001000+00001314+00000+0001T   00001314+0000001523          1400 SR8150               1AZ
105555008105555304-001502     105555006003000035533FLWR SATIN R/BUD 55CM  0000002000+00000613+00000+0001T   00000613+0000001523          1400 SR8510               1AZ
105556000105556               105556               170213NL     1400+00000+NL0000008771+0000008771+000000000+000001228+0000009990+0000000009+I20000000000+0000009990+Z
105556001105556006-000165     105556006001023758392BALLOONS LRG BAG-OF-1000000001000+00008771+00000+0001T   00008771+0000001524          1400 SR8131               1AZ
105557000105557               105557               170213NL     1400+00000+NL0000005085+0000005085+000000000+000000712+0000005797+0000000000+I40000005797+0000000000+Z
105557001105557301-085004     105557006003000420469ORN LOVE PLAQUE 21X10CM0000001000+00003507+00000+0001T   00003946+0006471525          1400 SR8505               1AZ
105557002105557077-000303     105557006001023593757GIFT-BAG PAPER MED     0000001000+00001578+00000+0001T   00001578+0000001525          1400 SR8112               1AZ
105558000105558               105558               170213NL     1400+00000+NL0000009456+0000009456+000000000+000001333+0000010789+0000000000+I40000010789+0000000000+Z
105558001105558028-000797     105558006001023812124SKEWERS 15cm 100PCE    0000001000+00000876+00000+0001T   00000876+0000001528          1400 SR8305               1AZ
105558002105558033-010720     105558006001023678645SAFETY-PINS 50PCE SMALL0000001000+00000876+00000+0001T   00000876+0000001528          1400 SR8200               1AZ
105558003105558079-014152     105558006003000253074ART+CRAFT PK50 ASSTD   0000001000+00003069+00000+0001T   00003069+0000001528          1400 SR8130               1AZ
105558004105558079-009700-B   105558006003000547661PAPER SIRIO A4 WHITE   0000003000+00000306+00000+0001T   00000306+0000001528          1400 SR8130               1AZ
105558005105558079-009700-D   105558006003000545711PAPER SIRIO A4 RED COL.0000003000+00000306+00000+0001T   00000306+0000001528          1400 SR8130               1AZ
105558006105558903-000183     105558006003000451043SWT LB HEART LOLLY     0000007000+00000393+00000+0001T   00000393+0000001528          1400 SR8150               1AZ
105558007105558112-116069     105558006009681820277TCS CARRIER BAG JUMBO  0000001000+00000048+00000+0001T   00000048+0000001528          1400 SR8090               1AZ
105559000105559               105559               170213NL     1400+00000+NL0000001753+0000001753+000000000+000000246+0000001999+0000000000+I40000001999+0000000000+Z
105559001105559077-000299-A   105559006003000670888GIFT-BAG PAPER JMB LOVE0000001000+00001753+00000+0001T   00001753+0000001529          1400 SR8112               1AZ
105560000105560               105560               170213NL     1400+00000+NL0000007892+0000007892+000000000+000001106+0000008998+0000000000+I40000008998+0000000000+Z
105560001105560301-000827     105560006001023872692ORN FAIRY MINI IN-BAG  0000002000+00003946+00000+0001T   00003946+0000001530          1400 SR8505               1AZ
105561000105561               105561               170213NL     1400+00000+NL0000007014+0000007014+000000000+000000982+0000007996+0000000000+I40000007996+0000000000+Z
105561001105561159-000102     105561006001023552891SHOWER-CADDY 48cm      0000002000+00003507+00000+0001T   00003507+0000001532          1400 SR8200               1AZ
105562000105562               105562               170213NL     1400+00000+NL0000003890+0000003890+000000000+000000547+0000004437+0000000000+I40000004437+0000000000+Z
105562001105562088-000084     105562006001023798060P/POURRI 120G ASSTD    0000001000+00001753+00000+0001T   00001753+0000001533          1400 SR8212               1AZ
105562002105562039-081560     105562006003000462988C/SET 2PC STAR-CANDLE  0000002000+00001051+00000+0001T   00001402+0008171533          1400 SR8510               1AZ
105562003105562112-116038     105562006009681820246TCS CARRIER BAG MIDI   0000001000+00000035+00000+0001T   00000035+0000001533          1400 SR8090               1AZ
105563000105563               105563               170213NL     1400+00000+NL0000000788+0000000788+000000000+000000111+0000000890+0000000009+I20000000000+0000000890+Z
105563001105563903-000200     105563006009826020234SWT CHOC RP CHOCO 23G  0000001000+00000788+00000+0001T   00000788+0000001534          1400 SR8150               1AZ
105564000105564               105564               170213NL     1400+00000+NL0000005963+0000005963+000000000+000000835+0000006790+0000000008+I20000000000+0000006790+Z
105564001105564077-000315     105564006003000181186GIFT-BAG 20x28cm MATT  0000001000+00001578+00000+0001T   00001578+0000001535          1400 SR8112               1AZ
105564002105564368-000001     105564006003000097982Plush Bear 25cm        0000001000+00004385+00000+0001T   00004385+0000001535          1400 SR8745               1AZ
105565000105565               105565               170213NL     1400+00000+NL0000001753+0000001753+000000000+000000246+0000001990+0000000009+I20000000000+0000001990+Z
105565001105565903-000211     105565006002099001238SWT GS MALLOW ICE CREAM0000001000+00001753+00000+0001T   00001753+0000001538          1400 SR8150               1AZ
105566000105566               105566               170213NL     1400+00000+NL0000004378+0000004378+000000000+000000617+0000004995+0000000000+I40000004995+0000000000+Z
105566001105566565-000081     105566006003000643493NOVELTY MUSICAL TUBE   0000001000+00002630+00000+0001T   00002630+0000001542          1400 SR8745               1AZ
105566002105566083-000049     105566004891035200024CIG-LIGHTER DISPOSABLE 0000004000+00000437+00000+0001T   00000437+0000001542          1400 SR8315               1AZ
105567000105567               105567               170213NL     1400+00000+NL0000014095+0000014095+000000000+000001978+0000016070+0000000003+I20000000000+0000016070+Z
105567001105567080-000133     105567006003000535613CARD&ENV MINI ASTD DSGN0000003000+00000437+00000+0001T   00000437+0000001545          1400 SR8112               1AZ
105567002105567080-000133-A   105567006003000647019MINI VALENTINES CARD   0000001000+00000437+00000+0001T   00000437+0000001545          1400 SR8112               1AZ
105567003105567049-004582     105567006001023842923DOORMAT HALF-MOON 40x600000001000+00007016+00000+0001T   00007016+0000001545          1400 SR8510               1AZ
105567004105567112-116053     105567006006438002399TCS CARRIER BAG 38L    0000001000+00000069+00000+0001T   00000069+0000001545          1400 SR8090               1AZ
105567005105567049-001832     105567006003000019359DOORMAT RUBBER-PIN 6mm 0000001000+00005262+00000+0001T   00005262+0000001545          1400 SR8510               1AZ
105568000105568               105568               170213NL     1400+00000+NL0000001753+0000001753+000000000+000000246+0000001999+0000000000+I40000001999+0000000000+Z
105568001105568203-006201     105568006003000376261ICE BALL PL 20P F/SHAPE0000001000+00001753+00000+0001T   00002192+0008171547          1400 SR8300               1AZ
105569000105569               105569               170213NL     1400+00000+NL0000001226+0000001226+000000000+000000172+0000001390+0000000008+I20000000000+0000001390+Z
105569001105569006-001000     105569006003000093779HELIUM BALLOON FILL    0000002000+00000613+00000+0001T   00000613+0000001548          1400 SR8131               1AZ
105570000105570               105570               170213NL     1400+00000+NL0000014938+0000014938+000000000+000002094+0000017032+0000000000+I40000017032+0000000000+Z
105570001105570079-000275     105570006003000160488PAINT-BRUSHES 6PCE PRO 0000001000+00001753+00000+0001T   00001753+0000001556          1400 SR8130               1AZ
105570002105570007-000324     10557000600968585864125 SHEETS BRIGHTS MARLI0000001000+00003507+00000+0001T   00003507+0000001556          1400 SR8130               1AZ
105570003105570077-000305     105570006003000395422GIFT-BAG WINE 10X35CM  0000001000+00001490+00000+0001T   00001490+0000001556          1400 SR8112               1AZ
105570004105570079-013102     105570006003000019601ART+CRAFT DIY PIPE-CLNR0000001000+00002192+00000+0001T   00002192+0000001556          1400 SR8130               1AZ
105570005105570079-006522     105570006001023149442ART+CRAFT GLUE ASSORTED0000001000+00001753+00000+0001T   00001753+0000001556          1400 SR8130               1AZ
105570006105570079-013032-C   105570006003000389520POLY SHAPES            0000001000+00001578+00000+0001T   00001578+0000001556          1400 SR8130               1AZ
105570007105570079-000260     105570006001023886385PAINT TUBS WT BASE 4COL0000001000+00002630+00000+0001T   00002630+0000001556          1400 SR8130               1AZ
105570008105570112-116038     105570006009681820246TCS CARRIER BAG MIDI   0000001000+00000035+00000+0001T   00000035+0000001556          1400 SR8090               1AZ
105571000105571               105571               170213NL     1400+00000+NL0000001525+0000001525+000000000+000000214+0000001730+0000000009+I20000000000+0000001730+Z
105571001105571051-002401     105571006001023523570TRIGGER-SPRAYER   300ml0000001000+00001490+00000+0001T   00001490+0000001558          1400 SR8820               1AZ
105571002105571112-116038     105571006009681820246TCS CARRIER BAG MIDI   0000001000+00000035+00000+0001T   00000035+0000001558          1400 SR8090               1AZ
105572000105572               105572               170213NL     1400+00000+NL0000020056+0000020056+000000000+000002813+0000022869+0000000000+I40000022869+0000000000+Z
105572001105572077-000303     105572006001023593757GIFT-BAG PAPER MED     0000001000+00001578+00000+0001T   00001578+0000001603          1400 SR8112               1AZ
105572002105572006-000166-H   105572006003000608096BALLOONS HELIUM 6PC WHT0000001000+00001314+00000+0001T   00001314+0000001603          1400 SR8131               1AZ
105572003105572006-001000     105572006003000093779HELIUM BALLOON FILL    0000028000+00000613+00000+0001T   00000613+0000001603          1400 SR8131               1AZ
105573000105573               105573               170213NL     1400+00000+NL0000002665+0000002665+000000000+000000374+0000003039+0000000000+I40000003039+0000000000+Z
105573001105573018-000129     105573006001023403353MUG OCC. LOVE V-SHAPE  0000001000+00002630+00000+0001T   00002630+0000001610          1400 SR8515               1AZ
105573002105573112-116038     105573006009681820246TCS CARRIER BAG MIDI   0000001000+00000035+00000+0001T   00000035+0000001610          1400 SR8090               1AZ
105574000105574               105574               170213NL     1400+00000+NL0000005699+0000005699+000000000+000000798+0000006497+0000000000+I40000006497+0000000000+Z
105574001105574018-000130     105574006001023867537MUG OCC LOVE MINI+HEART0000001000+00003507+00000+0001T   00003507+0000001625          1400 SR8515               1AZ
105574002105574251-000002     105574006003000093991TAPE D-SIDED 24x1000mm 0000001000+00002192+00000+0001T   00002192+0000001625          1400 SR8810               1AZ
105575000105575               105575               170213NL     1400+00000+NL0000007664+0000007664+000000000+000001074+0000008730+0000000008+I20000000000+0000008730+Z
105575001105575051-002401     105575006001023523570TRIGGER-SPRAYER   300ml0000001000+00001490+00000+0001T   00001490+0000001626          1400 SR8820               1AZ
105575002105575368-000175     105575006003000270316PLUSH BEAR 4 ASSTD 18CM0000001000+00006139+00000+0001T   00006139+0000001626          1400 SR8745               1AZ
105575003105575112-116038     105575006009681820246TCS CARRIER BAG MIDI   0000001000+00000035+00000+0001T   00000035+0000001626          1400 SR8090               1AZ
105576000105576               105576               170213NL     1400+00000+NL0000003507+0000003507+000000000+000000491+0000003990+0000000008+I20000000000+0000003990+Z
105576001105576018-005009     105576006001023725608MUG W/PLUSH-BEAR LOVE  0000001000+00003507+00000+0001T   00003507+0000001627          1400 SR8515               1AZ
105577000105577               105577               170213NL     1400+00000+NL0000024411+0000024411+000000000+000003420+0000027831+0000000000+I40000027831+0000000000+Z
105577001105577001-091415     105577006003000329113W/GLS OCC. LOVE 2PC 2800000001000+00008771+00000+0001T   00009648+0006471635          1400 SR8515               1AZ
105577002105577262-000020     105577006003000644780DIE CAST SINGLE CAR    0000001000+00003507+00000+0001T   00003507+0000001635          1400 SR8710               1AZ
105577003105577077-000245     105577006001023759214GIFT-RIBBON METALLICx2 0000001000+00001227+00000+0001T   00001227+0000001635          1400 SR8112               1AZ
105577004105577006-000111     105577006003000519385BALLOONS LARGE 12PCE   0000002000+00002630+00000+0001T   00002630+0000001635          1400 SR8131               1AZ
105577005105577112-116038     105577006009681820246TCS CARRIER BAG MIDI   0000001000+00000035+00000+0001T   00000035+0000001635          1400 SR8090               1AZ
105577006105577006-000190     105577006003000685530BALLOONS LOVE 81x91cm  0000001000+00004385+00000+0001T   00004385+0000001635          1400 SR8131               1AZ
105577007105577006-001000     105577006003000093779HELIUM BALLOON FILL    0000002000+00000613+00000+0001T   00000613+0000001635          1400 SR8131               1AZ
105578000105578               105578               170213NL     1400+00000+NL0000002630+0000002630+000000000+000000369+0000002990+0000000009+I20000000000+0000002990+Z
105578001105578004-078991     105578006001023996855EARPHONES+EAR-CLIP 1.0m0000001000+00002630+00000+0001T   00002630+0000001636          1400 SR8310               1AZ
105579000105579               105579               170213NL     1400+00000+NL0000003507+0000003507+000000000+000000491+0000003990+0000000008+I20000000000+0000003990+Z
105579001105579007-000324     10557900600968585864125 SHEETS BRIGHTS MARLI0000001000+00003507+00000+0001T   00003507+0000001636          1400 SR8130               1AZ
105580000105580               105580               170213NL     1400+00000+NL0000007748+0000007748+000000000+000001086+0000008830+0000000004+I20000000000+0000008830+Z
105580001105580033-000121     105580006009654960573COMBS FAMILY PACK-OF-2 0000001000+00001051+00000+0001T   00001051+0000001638          1400 SR8200               1AZ
105580002105580903-000070     105580006001704001106SWT TOFFEE CREAMY 35g  0000002000+00000700+00000+0001T   00000700+0000001638          1400 SR8150               1AZ
105580003105580112-116038     105580006009681820246TCS CARRIER BAG MIDI   0000001000+00000035+00000+0001T   00000035+0000001638          1400 SR8090               1AZ
105580004105580106-000890     105580000876416080628WATER BOTTLE PL 700ml  0000001000+00005262+00000+0001T   00005262+0000001638          1400 SR8210               1AZ
105581000105581               105581               170213NL     1400+00000+NL0000004418+0000004418+000000000+000000619+0000005030+0000000007+I20000000000+0000005030+Z
105581001105581077-000302     105581008010410010195GIFT-BAG 18X23CM E/D   0000001000+00000876+00000+0001T   00000876+0000001639          1400 SR8112               1AZ
105581002105581018-000130     105581006001023867537MUG OCC LOVE MINI+HEART0000001000+00003507+00000+0001T   00003507+0000001639          1400 SR8515               1AZ
105581003105581112-116038     105581006009681820246TCS CARRIER BAG MIDI   0000001000+00000035+00000+0001T   00000035+0000001639          1400 SR8090               1AZ
105582000105582               105582               170213NL     1400+00000+NL0000001314+0000001314+000000000+000000184+0000001490+0000000008+I20000000000+0000001490+Z
105582001105582077-000470     105582006003000330171G-BAG DESGN SML 11X14CM0000001000+00001314+00000+0001T   00001314+0000001641          1400 SR8112               1AZ
105583000105583               105583               170213NL     1400+00000+NL0000005262+0000005262+000000000+000000737+0000005990+0000000009+I20000000000+0000005990+Z
105583001105583007-000657     105583006003000081905STATIONERY SET GIRL    0000001000+00005262+00000+0001T   00005262+0000001642          1400 SR8130               1AZ
105584000105584               105584               170213NL     1400+00000+NL0000005085+0000005085+000000000+000000712+0000005790+0000000007+I20000000000+0000005790+Z
105584001105584077-000303     105584006001023593757GIFT-BAG PAPER MED     0000001000+00001578+00000+0001T   00001578+0000001646          1400 SR8112               1AZ
105584002105584018-000130     105584006001023867537MUG OCC LOVE MINI+HEART0000001000+00003507+00000+0001T   00003507+0000001646          1400 SR8515               1AZ
105585000105585               105585               170213NL     1400+00000+NL0000001227+0000001227+000000000+000000172+0000001390+0000000009+I20000000000+0000001390+Z
105585001105585077-000322     105585006001023677532GIFT-BAG 18X23CM E/D FL0000001000+00001227+00000+0001T   00001227+0000001647          1400 SR8112               1AZ
105586000105586               105586               170213NL     1400+00000+NL0000005699+0000005699+000000000+000000798+0000006490+0000000007+I20000000000+0000006490+Z
105586001105586033-000654     105586006003000364527H/BRUSH 24cm VENT ASSTD0000001000+00003507+00000+0001T   00003507+0000001648          1400 SR8200               1AZ
105586002105586077-000463     105586006003000321698G/BAG GLITTER MED20x28 0000001000+00002192+00000+0001T   00002192+0000001648          1400 SR8112               1AZ
105587000105587               105587               170213NL     1400+00000+NL0000000613+0000000613+000000000+000000086+0000000690+0000000009+I20000000000+0000000690+Z
105587001105587083-000055     105587006003000003853LIGHTER ELCTRNC REFILBL0000001000+00000613+00000+0001T   00000613+0000001650          1400 SR8315               1AZ
105588000105588               105588               170213NL     1400+00000+NL0000003506+0000003506+000000000+000000492+0000003990+0000000008+I20000000000+0000003990+Z
105588001105588560-000107     105588006003000547906DOMESTIC 3PC MINI PETS 0000002000+00001753+00000+0001T   00001753+0000001651          1400 SR8745               1AZ
105589000105589               105589               170213NL     1400+00000+NL0000010869+0000010869+000000000+000001524+0000012393+0000000000+I40000012393+0000000000+Z
105589001105589018-005009     105589006001023725608MUG W/PLUSH-BEAR LOVE  0000002000+00003507+00000+0001T   00003507+0000001653          1400 SR8515               1AZ
105589002105589079-000275     105589006003000160488PAINT-BRUSHES 6PCE PRO 0000001000+00001753+00000+0001T   00001753+0000001653          1400 SR8130               1AZ
105589003105589903-002851     105589000000087108538MENTOS ROLL STRAWBERRY 0000002000+00001051+00000+0001T   00001051+0000001653          1400 SR8150               1AZ
105590000105590               105590               170213NL     1400+00000+NL0000003507+0000003507+000000000+000000491+0000003990+0000000008+I20000000000+0000003990+Z
105590001105590071-001010     105590006001023893314MARKERS-METALIC 3PCE   0000001000+00003507+00000+0001T   00003507+0000001654          1400 SR8130               1AZ
105591000105591               105591               170213NL     1400+00000+NL0000017223+0000017223+000000000+000002414+0000019630+0000000007+I20000000000+0000019630+Z
105591001105591261-000031     105591006003000549658GUN HAND CAP 8 SHOT    0000001000+00006139+00000+0001T   00006139+0000001701          1400 SR8710               1AZ
105591002105591261-000121     105591006001023341600GUN-CAPS 8-SHOT CARD-9 0000007000+00000700+00000+0001T   00000700+0000001701          1400 SR8710               1AZ
105591003105591046-001616-PK2 105591004897006178378BATTERY LITHIUM CR-16160000001000+00000876+00000+0001T   00000876+0000001701          1400 SR8312               1AZ
105591004105591046-002430-PK2 105591004897006178422BATTERY LITHIUM CR-24300000001000+00002630+00000+0001T   00002630+0000001701          1400 SR8312               1AZ
105591005105591046-002450-PK2 105591004897006178446BATTERY LITHIUM CR-24500000001000+00002630+00000+0001T   00002630+0000001701          1400 SR8312               1AZ
105591006105591112-116069     105591006009681820277TCS CARRIER BAG JUMBO  0000001000+00000048+00000+0001T   00000048+0000001701          1400 SR8090               1AZ
105592000105592               105592               170213NL     1400+00000+NL0000000876+0000000876+000000000+000000123+0000000990+0000000009+I20000000000+0000000990+Z
105592001105592077-000314     105592006003000181148GIFT-BAG 11X14CM MATT  0000001000+00000876+00000+0001T   00000876+0000001707          1400 SR8112               1AZ
105593000105593               105593               170213NL     1400+00000+NL0000008329+0000008329+000000000+000001167+0000009496+0000000000+I40000009496+0000000000+Z
105593001105593251-000002     105593006003000093991TAPE D-SIDED 24x1000mm 0000001000+00002192+00000+0001T   00002192+0000001713          1400 SR8810               1AZ
105593002105593200-000011     105593006003000613489DISPOSABLE BAG ZIPER   0000001000+00003507+00000+0001T   00003507+0000001713          1400 SR8214               1AZ
105593003105593006-000111     105593006003000519385BALLOONS LARGE 12PCE   0000001000+00002630+00000+0001T   00002630+0000001713          1400 SR8131               1AZ
105594000105594               105594               170213NL     1400+00000+NL0000006044+0000006044+000000000+000000848+0000006892+0000000000+I40000006892+0000000000+Z
105594001105594006-000124     105594006003000625888BALLOONS 10PC MIX COL  0000001000+00001753+00000+0001T   00001753+0000001716          1400 SR8131               1AZ
105594002105594006-001000     105594006003000093779HELIUM BALLOON FILL    0000007000+00000613+00000+0001T   00000613+0000001716          1400 SR8131               1AZ
105595000105595               105595               170213NL     1400+00000+NL0000006698+0000006698+000000000+000000938+0000007636+0000000000+I40000007636+0000000000+Z
105595001105595080-000124     105595006003000297733CARD & ENV VALENTINES  0000001000+00001578+00000+0001T   00001578+0000001718          1400 SR8112               1AZ
105595002105595018-000136     105595006001023659026MUG OCC LOVE W/PLUSH   0000001000+00003507+00000+0001T   00003507+0000001718          1400 SR8515               1AZ
105595003105595077-000303     105595006001023593757GIFT-BAG PAPER MED     0000001000+00001578+00000+0001T   00001578+0000001718          1400 SR8112               1AZ
105595004105595112-116038     105595006009681820246TCS CARRIER BAG MIDI   0000001000+00000035+00000+0001T   00000035+0000001718          1400 SR8090               1AZ
105596000105596               105596               170213NL     1400+00000+NL0000014978+0000014978+000000000+000002098+0000017070+0000000006+I20000000000+0000017070+Z
105596001105596077-000150-D   105596006003000054343GIFT-WRAP CELLPHANE CLR0000002000+00000876+00000+0001T   00000876+0000001723          1400 SR8112               1AZ
105596002105596029-000012     105596006001577033754BUCKET GALV 10L        0000001000+00013157+00000+0001T   00013157+0000001723          1400 SR8510               1AZ
105596003105596112-116053     105596006006438002399TCS CARRIER BAG 38L    0000001000+00000069+00000+0001T   00000069+0000001723          1400 SR8090               1AZ
105597000105597               105597               170213NL     1400+00000+NL0000004420+0000004420+000000000+000000619+0000005030+0000000009+I20000000000+0000005030+Z
105597001105597031-080508     105597006001023802415P/FRAME PL 22X11CM LOVE0000001000+00004385+00000+0001T   00004385+0000001724          1400 SR8510               1AZ
105597002105597112-116038     105597006009681820246TCS CARRIER BAG MIDI   0000001000+00000035+00000+0001T   00000035+0000001724          1400 SR8090               1AZ
105598000105598               105598               170213NL     1400+00000+NL0000017403+0000017403+000000000+000002439+0000019842+0000000000+I40000019842+0000000000+Z
105598001105598006-000166-H   105598006003000608096BALLOONS HELIUM 6PC WHT0000001000+00001314+00000+0001T   00001314+0000001726          1400 SR8131               1AZ
105598002105598006-000166-C   105598006003000516377BALLOONS LRG 6PC PINK  0000001000+00001314+00000+0001T   00001314+0000001726          1400 SR8131               1AZ
105598003105598304-001204     105598006001023737984FLOWER OCC. TEDDY/ROSES0000003000+00001402+00000+0001T   00001490+0006471726          1400 SR8510               1AZ
105598004105598018-000136     105598006001023659026MUG OCC LOVE W/PLUSH   0000002000+00003507+00000+0001T   00003507+0000001726          1400 SR8515               1AZ
105598005105598018-005009     105598006001023725608MUG W/PLUSH-BEAR LOVE  0000001000+00003507+00000+0001T   00003507+0000001726          1400 SR8515               1AZ
105598006105598112-116069     105598006009681820277TCS CARRIER BAG JUMBO  0000001000+00000048+00000+0001T   00000048+0000001726          1400 SR8090               1AZ
105599000105599               105599               170213NL     1400+00000+NL0000003770+0000003770+000000000+000000528+0000004290+0000000008+I20000000000+0000004290+Z
105599001105599077-000348     105599006001023483287GIFT-BOWS 4,5cm 8PCE   0000001000+00001578+00000+0001T   00001578+0000001727          1400 SR8112               1AZ
105599002105599077-000926     105599006003000414178G/WRAP 700mmx2m LOVE   0000001000+00002192+00000+0001T   00002192+0000001727          1400 SR8112               1AZ
105600000105600               105600               170213NL     1400+00000+NL0000001314+0000001314+000000000+000000184+0000001490+0000000008+I20000000000+0000001490+Z
105600001105600006-000166-C   105600006003000516377BALLOONS LRG 6PC PINK  0000001000+00001314+00000+0001T   00001314+0000001728          1400 SR8131               1AZ
105601000105601               105601               170213NL     1400+00000+NL0000005085+0000005085+000000000+000000712+0000005797+0000000000+I40000005797+0000000000+Z
105601001105601018-005009     105601006001023725608MUG W/PLUSH-BEAR LOVE  0000001000+00003507+00000+0001T   00003507+0000001731          1400 SR8515               1AZ
105601002105601077-000303     105601006001023593757GIFT-BAG PAPER MED     0000001000+00001578+00000+0001T   00001578+0000001731          1400 SR8112               1AZ
105602000105602               105602               170213NL     1400+00000+NL0000002628+0000002628+000000000+000000369+0000002990+0000000007+I20000000000+0000002990+Z
105602001105602077-000314     105602006003000181148GIFT-BAG 11X14CM MATT  0000003000+00000876+00000+0001T   00000876+0000001732          1400 SR8112               1AZ
105603000105603               105603               170213NL     1400+00000+NL0000003104+0000003104+000000000+000000435+0000003539+0000000000+I40000003539+0000000000+Z
105603001105603103-000088     105603006001023795625BAMBOO BASKET  W/HNDLES0000001000+00003069+00000+0001T   00003069+0000001735          1400 SR8300               1AZ
105603002105603112-116038     105603006009681820246TCS CARRIER BAG MIDI   0000001000+00000035+00000+0001T   00000035+0000001735          1400 SR8090               1AZ
105604000105604               105604               170213NL     1400+00000+NL0000014100+0000014100+000000000+000001976+0000016076+0000000000+I40000016076+0000000000+Z
105604001105604077-000270     105604006003000395453GIFT-BAG PPR JMB 33X45 0000001000+00002630+00000+0001T   00002630+0000001737          1400 SR8112               1AZ
105604002105604039-081008     105604006008766081008CANDLES 9PCE SCENTED   0000001000+00002630+00000+0001T   00002630+0000001737          1400 SR8510               1AZ
105604003105604031-000924     105604006001023669964P/FRAME COLLAGE PL     0000001000+00008771+00000+0001T   00008771+0000001737          1400 SR8510               1AZ
105604004105604112-116053     105604006006438002399TCS CARRIER BAG 38L    0000001000+00000069+00000+0001T   00000069+0000001737          1400 SR8090               1AZ
105605000105605               105605               170213NL     1400+00000+NL0000000876+0000000876+000000000+000000123+0000000999+0000000000+I40000000999+0000000000+Z
105605001105605077-000314     105605006003000181148GIFT-BAG 11X14CM MATT  0000001000+00000876+00000+0001T   00000876+0000001742          1400 SR8112               1AZ
105606000105606               105606               170213NL     1400+00000+NL0000003507+0000003507+000000000+000000491+0000003990+0000000008+I20000000000+0000003990+Z
105606001105606562-000011     105606006003000600984PLAY DOUGH NEON TUBE   0000001000+00003507+00000+0001T   00003507+0000001742          1400 SR8755               1AZ
105607000105607               105607               170213NL     1400+00000+NL0000001578+0000001578+000000000+000000221+0000001790+0000000009+I20000000000+0000001790+Z
105607001105607077-000303     105607006001023593757GIFT-BAG PAPER MED     0000001000+00001578+00000+0001T   00001578+0000001742          1400 SR8112               1AZ
105608000105608               105608               170213NL     1400+00000+NL0000017709+0000017709+000000000+000002481+0000020190+0000000000+I40000020190+0000000000+Z
105608001105608200-000106     105608006003000510290PICNIC CUPS PAPER 250ml0000002000+00003507+00000+0001T   00003507+0000001745          1400 SR8214               1AZ
105608002105608903-000095     105608006001704011495SWT SPECKLED-EGGS 100G 0000001000+00002104+00000+0001T   00002104+0000001745          1400 SR8150               1AZ
105608003105608565-000044     105608006003000128280BARREL OF SLIME 100g   0000003000+00000613+00000+0001T   00000613+0000001745          1400 SR8745               1AZ
105608004105608106-001120     105608006922286920282W/BOTTLE ALUM 750ml    0000001000+00005262+00000+0001T   00005262+0000001745          1400 SR8210               1AZ
105608005105608565-004101     105608006003000548033BALL BOUNCING EGG      0000001000+00001490+00000+0001T   00001490+0000001745          1400 SR8745               1AZ
105609000105609               105609               170213NL     1400+00000+NL0000006661+0000006661+000000000+000000934+0000007595+0000000000+I40000007595+0000000000+Z
105609001105609072-000228     105609006003000235940DOG-COL REFLCTV 25-40cm0000001000+00001753+00000+0001T   00001753+0000001747          1400 SR8870               1AZ
105609002105609072-000326     105609006003000451722PET CAT COLLAR 31x1cm  0000001000+00002630+00000+0001T   00002630+0000001747          1400 SR8870               1AZ
105609003105609903-000923     105609008714786126428SWT TURTLE DUO SPRAY   0000001000+00001314+00000+0001T   00001753+0008191747          1400 SR8150               1AZ
105609004105609903-004960     105609008410525221842SWT GUMMY STR/BERRY 50G0000001000+00000964+00000+0001T   00000964+0000001747          1400 SR8150               1AZ
105610000105610               105610               170213NL     1400+00000+NL0000015037+0000015037+000000000+000002109+0000017146+0000000000+I40000017146+0000000000+Z
105610001105610903-000220     105610006001704007368SWT JELLY BEANS 60G    0000001000+00000876+00000+0001T   00000876+0000001749          1400 SR8150               1AZ
105610002105610903-000698     105610006002099007032SWT CANDY ECLAIRS 90g  0000001000+00001139+00000+0001T   00001139+0000001749          1400 SR8150               1AZ
105610003105610566-000068     105610006003000418046POP UP LOVE 2 ASSTD    0000001000+00002192+00000+0001T   00002192+0000001749          1400 SR8130               1AZ
105610004105610077-000011-Y   105610006001023809858TISSUE-WRAP GOLD 10PCE 0000001000+00001753+00000+0001T   00001753+0000001749          1400 SR8112               1AZ
105610005105610903-000517     105610006001704012768SWT STRAWS FIZZY CHERRY0000001000+00001227+00000+0001T   00001227+0000001749          1400 SR8150               1AZ
105610006105610077-000299     105610006003000395576G/BAG 32x25cm LRG LOVE 0000001000+00001490+00000+0001T   00001490+0000001749          1400 SR8112               1AZ
105610007105610080-000124     105610006003000297733CARD & ENV VALENTINES  0000001000+00001578+00000+0001T   00001578+0000001749          1400 SR8112               1AZ
105610008105610903-000095     105610006001704011495SWT SPECKLED-EGGS 100G 0000001000+00002104+00000+0001T   00002104+0000001749          1400 SR8150               1AZ
105610009105610018-000129     105610006001023403353MUG OCC. LOVE V-SHAPE  0000001000+00002630+00000+0001T   00002630+0000001749          1400 SR8515               1AZ
105610010105610112-116069     105610006009681820277TCS CARRIER BAG JUMBO  0000001000+00000048+00000+0001T   00000048+0000001749          1400 SR8090               1AZ
105611000105611               105611               170213NL     1400+00000+NL0000007012+0000007012+000000000+000000984+0000007990+0000000006+I20000000000+0000007990+Z
105611001105611903-000211     105611006002099001238SWT GS MALLOW ICE CREAM0000004000+00001753+00000+0001T   00001753+0000001751          1400 SR8150               1AZ
A17021300                                          13374457NLSLAVE 1                       SR81IC
A17021301                                          17522761NLSLAVE 1                       SR83IC
C10554700                                          170213NL083-000055     14393608SLAVE 1     SR83IC0000000000+0000000000+0010000001000+
M17021301                              SHIEHAAM    NLSLAVE 01 Z READING R9667.13                     CASH BANKING R5194.50                           CT CARDS R4472.63
M17021302                              IT          NLATT:IT                                          SLAVE 01 LAST SLIP NO 105611
M17021391                              CASH        NLSLAVE 1                       Z-REPORT No.   578TOTAL (Sales - Refunds)           9667.13       CASH TO BE BANKED                 5194.50       DEBIT CARDS                          0.00       CREDIT CARDS                      4472.63       Z-READING                         9667.13       AIRTIME DEBIT CARD SALES             0.00       AIRTIME CARD SALES                   0.00       OVERS/UNDERS                         0.00       AIRTIME CASH SALES                   0.00       GIFT CARDS                           0.00       GIFT CARD CASH SALES                 0.00       T O T A L  CASH PAYOUTS              0.00                                                                                                                                                                                                                                                                                                                                                      Z
M17021392                              CASH        NLABSENT                                                                                                                                                                                          ANNUAL LEAVE                                                                                                                                                                                    DAY OFF                                                                                                                                                                                         COMMENTS                                                                                                                                                                                                                                                                                                                                                                                       Z
Y17021300                                          NL00000000848406+000120
ZNL17021320113 SLAVE 1      SALES DATA                     NEXT INVOICE NO.  105612 0578
X NL Slave 1 First invoice 105492 170213 Last invoice 105611 170213 Next invoice 105612 Total number of records 000000439 clbackup completed 20:11:16
