201640000201640               201640               170213NL     1400+00000+NL0000021077+0000021077+000000000+000002951+0000024020+0000000008+I20000000000+0000024020+Z
201640001201640567-075490     201640009780799376456BK NOVEL ROMANCE AFR   0000001000+00003507+00000+0001T   00003507+0000000930          1400 LB7757               2AZ
201640002201640567-075490     201640009780799372298BK NOVEL ROMANCE AFR   0000001000+00003507+00000+0001T   00003507+0000000930          1400 LB7757               2AZ
201640003201640567-075490     201640009780799376470BK NOVEL ROMANCE AFR   0000001000+00003507+00000+0001T   00003507+0000000930          1400 LB7757               2AZ
201640004201640567-075490     201640009780799375794BK NOVEL ROMANCE AFR   0000001000+00003507+00000+0001T   00003507+0000000930          1400 LB7757               2AZ
201640005201640567-075490     201640009780799375138BK NOVEL ROMANCE AFR   0000002000+00003507+00000+0001T   00003507+0000000930          1400 LB7757               2AZ
201640006201640112-116038     201640006009681820246TCS CARRIER BAG MIDI   0000001000+00000035+00000+0001T   00000035+0000000930          1400 LB7090               2AZ
201641000201641               201641               170213NL     1400+00000+NL0000002192+0000002192+000000000+000000307+0000002490+0000000009+I20000000000+0000002490+Z
201641001201641080-000127     201641006003000424351VALENTINES DAY 36x24CM 0000001000+00002192+00000+0001T   00002192+0000001054          1400 LB7112               2AZ
201642000201642               201642               170213NL     1400+00000+NL0000017568+0000017568+000000000+000002462+0000020030+0000000000+I40000020030+0000000000+Z
201642001201642903-002901     201642005996071650655QUICK MILK 5 S/BERRY   0000002000+00001578+00000+0001T   00001578+0000001103          1400 LB7150               2AZ
201642002201642903-002900     201642005996071650648QUICK MILK 5 CHOCO 5PC 0000002000+00001578+00000+0001T   00001578+0000001103          1400 LB7150               2AZ
201642003201642567-075497     201642009780799381641BK NOVEL ROMANCE AFR   0000001000+00006139+00000+0001T   00006139+0000001103          1400 LB7757               2AZ
201642004201642903-000510     201642006001704012621SWEET MS ZBDZ S/BERRY  0000001000+00001227+00000+0001T   00001227+0000001103          1400 LB7150               2AZ
201642005201642903-000844     201642005010478432567SWT CANDY DL LUV HEARTS0000001000+00001314+00000+0001T   00001314+0000001103          1400 LB7150               2AZ
201642006201642112-116038     201642006009681820246TCS CARRIER BAG MIDI   0000001000+00000035+00000+0001T   00000035+0000001103          1400 LB7090               2AZ
201642007201642903-000015     201642006003000690947SWT MIKE N IKE B/BLAST 0000001000+00001051+00000+0001T   00001051+0000001103          1400 LB7150               2AZ
201642008201642565-004101     201642006003000548033BALL BOUNCING EGG      0000001000+00001490+00000+0001T   00001490+0000001103          1400 LB7745               2AZ
201643000201643               201643               170213NL     1400+00000+NL0000003506+0000003506+000000000+000000492+0000003990+0000000008+I20000000000+0000003990+Z
201643001201643079-000601     201643006003000640379ART+CRAFT SHEETS METAL 0000001000+00002630+00000+0001T   00002630+0000001106          1400 LB71301IC            2AZ
201643002201643263-000410     201643006001023827135VEHICLE BOAT           0000001000+00000876+00000+0001T   00001314+0008141106          1400 LB7710               2AZ
201644000201644               201644               170213NL     1400+00000+NL0000002630+0000002630+000000000+000000369+0000002990+0000000009+I20000000000+0000002990+Z
201644001201644077-000270     201644006003000395453GIFT-BAG PPR JMB 33X45 0000001000+00002630+00000+0001T   00002630+0000001133          1400 LB7112               2AZ
201645000201645               201645               170213NL     1400+00000+NL0000071104+0000071104+000000000+000009961+0000081065+0000000000+I40000081065+0000000000+Z
201645001201645369-000821     201645006003000164431BABY SHAPE-SORTER RND  0000001000+00008771+00000+0001T   00008771+0000001142          1400 LB7745               2AZ
201645002201645369-000823     201645006001023796035BABY PULL ALONG S/SORT 0000001000+00006139+00000+0001T   00006139+0000001142          1400 LB7745               2AZ
201645003201645560-000297     201645006003000469789ANIMAL SPIDER          0000001000+00002192+00000+0001T   00002192+0000001142          1400 LB7745               2AZ
201645004201645562-000212     201645006001023851567PUSH-IN BOARD NUMBERS  0000001000+00004385+00000+0001T   00004385+0000001142          1400 LB7755               2AZ
201645005201645562-000743     201645006001023712318EDU BLOCKS SHAPE PL    0000001000+00004385+00000+0001T   00004385+0000001142          1400 LB7755               2AZ
201645006201645112-116053     201645006006438002399TCS CARRIER BAG 38L    0000001000+00000069+00000+0001T   00000069+0000001142          1400 LB7090               2AZ
201645007201645007-010502     201645006003000455270WIPE & CHALK 60X45CM   0000001000+00015788+00000+0001T   00015788+0000001142          1400 LB7130               2AZ
201645008201645564-000037     201645006001023708724BUBBLE W/BLOW RING     0000001000+00003069+00000+0001T   00003069+0000001142          1400 LB7131               2AZ
201645009201645903-000927     201645000686464546003SWT NOVELTY LOLLY 17g  0000001000+00002192+00000+0001T   00002192+0000001142          1400 LB7150               2AZ
201645010201645567-000046     201645009780710512550BK EDU BIG & EASY NUM  0000001000+00002630+00000+0001T   00002630+0000001142          1400 LB7757               2AZ
201645011201645567-011310     201645006003000593378BOOK ACTIVITY DOT      0000001000+00001753+00000+0001T   00001753+0000001142          1400 LB7757               2AZ
201645012201645567-014135     201645006003000560264BOOK COLOURING 240P    0000001000+00003069+00000+0001T   00003507+0008191142          1400 LB7757               2AZ
201645013201645562-000209     201645006003000104710EDU 32PCS BLOCKS WAGON 0000001000+00011402+00000+0001T   00011402+0000001142          1400 LB7755               2AZ
201645014201645079-000280     201645006003000160723PAINT READYMIX 6PCE    0000001000+00002630+00000+0001T   00002630+0000001142          1400 LB7130               2AZ
201645015201645006-000111     201645006003000519385BALLOONS LARGE 12PCE   0000001000+00002630+00000+0001T   00002630+0000001142          1400 LB7131               2AZ
201646000201646               201646               170213NL     1400+00000+NL0000008766+0000008766+000000000+000001229+0000009990+0000000005+I20000000000+0000009990+Z
201646001201646031-000923     201646006001023669933P/FRAME BLK W/WORDS    0000001000+00003507+00000+0001T   00003507+0000001143          1400 LB7510               2AZ
201646002201646566-001500     201646006003000658275STICKER PUFFY EMOTION  0000002000+00001753+00000+0001T   00001753+0000001143          1400 LB7130               2AZ
201646003201646566-000070     201646006003000283798STICKERS POP UP ASSTD  0000001000+00001753+00000+0001T   00001753+0000001143          1400 LB7130               2AZ
201647000201647               201647               170213NL     1400+00000+NL0000001753+0000001753+000000000+000000246+0000001999+0000000000+I40000001999+0000000000+Z
201647001201647306-000024-A   201647006003000577309COTTON-WOOL-PADS 80PC  0000001000+00001753+00000+0001T   00001753+0000001210          1400 LB7200               2AZ
201648000201648               201648               170213NL     1400+00000+NL0000014911+0000014911+000000000+000002088+0000016990+0000000009+I20000000000+0000016990+Z
201648001201648140-092000     201648006001023819130MOSQ-NET 1250x250x65cm 0000001000+00014911+00000+0001T   00014911+0000001230          1400 LB7830               2AZ
201649000201649               201649               170213NL     1400+00000+NL0000002192+0000002192+000000000+000000307+0000002499+0000000000+I40000002499+0000000000+Z
201649001201649566-000359     201649006003000582709STICKER BOOK LOVE SPARK0000001000+00002192+00000+0001T   00002192+0000001236          1400 LB7130               2AZ
201650000201650               201650               170213NL     1400+00000+NL0000010118+0000010118+000000000+000001417+0000011530+0000000005+I20000000000+0000011530+Z
201650001201650203-007003     201650006003000116331SHOT-GLASS DISPOSABLE  0000001000+00003069+00000+0001T   00003069+0000001237          1400 LB7300               2AZ
201650002201650203-007000     201650006001023886040SHOT-GLASS DISPOSABLE  0000002000+00003507+00000+0001T   00003507+0000001237          1400 LB7300               2AZ
201650003201650112-116038     201650006009681820246TCS CARRIER BAG MIDI   0000001000+00000035+00000+0001T   00000035+0000001237          1400 LB7090               2AZ
201651000201651               201651               170213NL     1400+00000+NL0000001753+0000001753+000000000+000000246+0000001990+0000000009+I20000000000+0000001990+Z
201651001201651306-000021-C   201651006003000567294EARBUDS 300PCE IN TUB  0000001000+00001753+00000+0001T   00001753+0000001238          1400 LB7200               2AZ
201652000201652               201652               170213NL     1400+00000+NL0000004419+0000004419+000000000+000000619+0000005030+0000000008+I20000000000+0000005030+Z
201652001201652051-002400     201652006001023616180TRIGGER-SPRAYER 900ml  0000002000+00002192+00000+0001T   00002192+0000001241          1400 LB7820               2AZ
201652002201652112-116038     201652006009681820246TCS CARRIER BAG MIDI   0000001000+00000035+00000+0001T   00000035+0000001241          1400 LB7090               2AZ
201653000201653               201653               170213NL     1400+00000+NL0000028940+0000028940+000000000+000004053+0000032990+0000000003+I20000000000+0000032990+Z
201653001201653040-000220     201653006001023845313C/HOLDER HEART 17X18CM 0000002000+00004385+00000+0001T   00004385+0000001245          1400 LB7510               2AZ
201653002201653039-000794     201653006946859289958CANDLE T/LITE 3PC LED  0000002000+00004385+00000+0001T   00004385+0000001245          1400 LB7510               2AZ
201653003201653040-000007     201653006001023900890C/HOLDER MTL LANTERN   0000002000+00005262+00000+0001T   00005262+0000001245          1400 LB7510               2AZ
201653004201653033-010720     201653006001023678645SAFETY-PINS 50PCE SMALL0000001000+00000876+00000+0001T   00000876+0000001245          1400 LB7200               2AZ
201654000201654               201654               170213NL     1400+00000+NL0000001753+0000001753+000000000+000000246+0000001990+0000000009+I20000000000+0000001990+Z
201654001201654089-000019     201654006003000092291K/CHAIN MINI BOOT 13cm 0000001000+00001753+00000+0001T   00001753+0000001326          1400 LB7205               2AZ
201655000201655               201655               170213NL     1400+00000+NL0000005259+0000005259+000000000+000000738+0000005997+0000000000+I40000005997+0000000000+Z
201655001201655088-000108     201655006001023765536POTPOURRI-OIL 10ml ASST0000003000+00001753+00000+0001T   00001753+0000001328          1400 LB7212               2AZ
201656000201656               201656               170213NL     1400+00000+NL0000009643+0000009643+000000000+000001352+0000010990+0000000005+I20000000000+0000010990+Z
201656001201656251-000002     201656006003000093991TAPE D-SIDED 24x1000mm 0000001000+00002192+00000+0001T   00002192+0000001334          1400 LB7810               2AZ
201656002201656903-002851     201656000000087108538MENTOS ROLL STRAWBERRY 0000001000+00001051+00000+0001T   00001051+0000001334          1400 LB7150               2AZ
201656003201656903-000077     201656006939873501687SWT GS MAGIC ROCK FRUIT0000001000+00000525+00000+0001T   00000525+0000001334          1400 LB7150               2AZ
201656004201656077-000321     201656006001023677501GIFT-BAG 11X14CM E/D FL0000001000+00000613+00000+0001T   00000613+0000001334          1400 LB7112               2AZ
201656005201656301-000125     201656006003000420582ORN BRACELET INSPIRATIO0000001000+00005262+00000+0001T   00005262+0000001334          1400 LB7505               2AZ
201657000201657               201657               170213NL     1400+00000+NL0000004385+0000004385+000000000+000000614+0000004990+0000000009+I20000000000+0000004990+Z
201657001201657082-000115     201657006003000360604READING GLS STRNGHT:2.50000001000+00004385+00000+0001T   00004385+0000001336          1400 LB7160               2AZ
201658000201658               201658               170213NL     1400+00000+NL0000009695+0000009695+000000000+000001358+0000011050+0000000003+I20000000000+0000011050+Z
201658001201658203-000107     201658006001023820358ICE-BUCKET T/PLATE DECO0000001000+00008771+00000+0001T   00008771+0000001337          1400 LB7300               2AZ
201658002201658077-000151     201658006008766114676GIFT-WRAP C/PHANE ASSTD0000001000+00000876+00000+0001T   00000876+0000001337          1400 LB7112               2AZ
201658003201658112-116069     201658006009681820277TCS CARRIER BAG JUMBO  0000001000+00000048+00000+0001T   00000048+0000001337          1400 LB7090               2AZ
201659000201659               201659               170213NL     1400+00000+NL0000016693+0000016693+000000000+000002339+0000019032+0000000000+I40000019032+0000000000+Z
201659001201659903-000619     201659006003000672455SWT LOLLY STR/BRRY 140G0000002000+00001753+00000+0001T   00001753+0000001343          1400 LB7150               2AZ
201659002201659903-000194     201659006009826020616SWT CHOC RP LOLLY 25G  0000002000+00001314+00000+0001T   00001314+0000001343          1400 LB7150               2AZ
201659003201659362-001045     201659006001023843449MAKE-UP TEEN GIFT SET  0000002000+00005262+00000+0001T   00005262+0000001343          1400 LB7160               2AZ
201659004201659112-116038     201659006009681820246TCS CARRIER BAG MIDI   0000001000+00000035+00000+0001T   00000035+0000001343          1400 LB7090               2AZ
201660000201660               201660               170213NL     1400+00000+NL0000006611+0000006611+000000000+000000926+0000007530+0000000007+I20000000000+0000007530+Z
201660001201660563-000318-L   201660006003000407088SERVIETTES 33cm RED    0000003000+00002192+00000+0001T   00002192+0000001344          1400 LB7214               2AZ
201660002201660112-116038     201660006009681820246TCS CARRIER BAG MIDI   0000001000+00000035+00000+0001T   00000035+0000001344          1400 LB7090               2AZ
201661000201661               201661               170213NL     1400+00000+NL0000002104+0000002104+000000000+000000295+0000002390+0000000009+I20000000000+0000002390+Z
201661001201661903-000095     201661006001704011495SWT SPECKLED-EGGS 100G 0000001000+00002104+00000+0001T   00002104+0000001345          1400 LB71503IC            2AZ
201662000201662               201662               170213NL     1400+00000+NL0000001262+0000001262+000000000+000000177+0000001430+0000000009+I20000000000+0000001430+Z
201662001201662002-000970     201662006001023770578FUNNELS 3PCE WHITE     0000001000+00001227+00000+0001T   00001227+0000001352          1400 LB7300               2AZ
201662002201662112-116038     201662006009681820246TCS CARRIER BAG MIDI   0000001000+00000035+00000+0001T   00000035+0000001352          1400 LB7090               2AZ
201663000201663               201663               170213NL     1400+00000+NL0000001139+0000001139+000000000+000000160+0000001290+0000000009+I20000000000+0000001290+Z
201663001201663039-000322     201663006001023524157B/CANDLES W/HOLDERS 24 0000001000+00001139+00000+0001T   00001139+0000001414          1400 LB7510               2AZ
201664000201664               201664               170213NL     1400+00000+NL0000008771+0000008771+000000000+000001228+0000009990+0000000009+I20000000000+0000009990+Z
201664001201664006-000165     201664006001023758392BALLOONS LRG BAG-OF-1000000001000+00008771+00000+0001T   00008771+0000001416          1400 LB7131               2AZ
201665000201665               201665               170213NL     1400+00000+NL0000004559+0000004559+000000000+000000639+0000005190+0000000008+I20000000000+0000005190+Z
201665001201665038-092233     201665006003000328925TABLE-MAT N/SLIP ASST  0000001000+00003069+00000+0001T   00003507+0008191430          1400 LB7300               2AZ
201665002201665051-002401     201665006001023523570TRIGGER-SPRAYER   300ml0000001000+00001490+00000+0001T   00001490+0000001430          1400 LB7820               2AZ
201666000201666               201666               170213NL     1400+00000+NL0000017611+0000017611+000000000+000002466+0000020077+0000000000+I40000020077+0000000000+Z
201666001201666368-000161     201666006003000167760PLUSH BEAR BABY ASSTD  0000001000+00017542+00000+0001T   00017542+0000001431          1400 LB7745               2AZ
201666002201666112-116053     201666006006438002399TCS CARRIER BAG 38L    0000001000+00000069+00000+0001T   00000069+0000001431          1400 LB7090               2AZ
201667000201667               201667               170213NL     1400+00000+NL0000002978+0000002978+000000000+000000418+0000003390+0000000006+I20000000000+0000003390+Z
201667001201667083-000055     201667006003000003853LIGHTER ELCTRNC REFILBL0000002000+00000613+00000+0001T   00000613+0000001443          1400 LB7315               2AZ
201667002201667083-000295     201667006001023898562LIGHTER-GAS BUTANE 18ml0000002000+00000876+00000+0001T   00000876+0000001443          1400 LB7315               2AZ
201668000201668               201668               170213NL     1400+00000+NL0000029416+0000029416+000000000+000004124+0000033540+0000000000+I40000033540+0000000000+Z
201668001201668072-020315     201668006003000623891PET TOY PUPPY RING 3in10000001000+00003069+00000+0001T   00003069+0000001446          1400 LB7870               2AZ
201668002201668072-020259     201668006001023602664DOG-CHEW BONE 10cm 2PCE0000001000+00003507+00000+0001T   00003507+0000001446          1400 LB7870               2AZ
201668003201668072-020351     201668006001023598059DOG/CAT BOWL PL 16cm   0000002000+00002630+00000+0001T   00002630+0000001446          1400 LB7870               2AZ
201668004201668162-097722     201668006001492977225#TAG BLACKWRISTWEAR    0000001000+00004385+00000+0001T   00004385+0000001446          1400 LB7160               2AZ
201668005201668072-020300     201668006008632000430DOG-TOY TUG-A-BALL SML 0000001000+00002630+00000+0001T   00002630+0000001446          1400 LB7870               2AZ
201668006201668047-005126     201668006001023451255CABLETIES 100/150/200mm0000001000+00002192+00000+0001T   00002192+0000001446          1400 LB7880               2AZ
201668007201668251-000001     201668006001023487681TAPE DBL-SIDE 18x1000mm0000001000+00001314+00000+0001T   00001314+0000001446          1400 LB7810               2AZ
201668008201668078-000025     201668008887013700064SUPERGLUE 3g 1PCE CARD 0000002000+00000876+00000+0001T   00000876+0000001446          1400 LB7810               2AZ
201668009201668112-116069     201668006009681820277TCS CARRIER BAG JUMBO  0000001000+00000048+00000+0001T   00000048+0000001446          1400 LB7090               2AZ
201668010201668903-000908     201668006009802868331SWT YOYO HOT WHEELS    0000003000+00001753+00000+0001T   00001753+0000001446          1400 LB7150               2AZ
201669000201669               201669               170213NL     1400+00000+NL0000004992+0000004992+000000000+000000699+0000005690+0000000001+I20000000000+0000005690+Z
201669001201669261-000121     201669006001023341600GUN-CAPS 8-SHOT CARD-9 0000004000+00000700+00000+0001T   00000700+0000001447          1400 LB7710               2AZ
201669002201669261-008349     201669006001023787590CAP-GUN 8-SHOT         0000001000+00002192+00000+0001T   00002192+0000001447          1400 LB7710               2AZ
201670000201670               201670               170213NL     1400+00000+NL0000010252+0000010252+000000000+000001437+0000011680+0000000009+I20000000000+0000011680+Z
201670001201670565-000081     201670006003000643493NOVELTY MUSICAL TUBE   0000001000+00002630+00000+0001T   00002630+0000001447          1400 LB7745               2AZ
201670002201670083-000058     201670006003000400331LIGHTER JET CIGAR REFIL0000001000+00002630+00000+0001T   00002630+0000001447          1400 LB7315               2AZ
201670003201670261-000121     201670006001023341600GUN-CAPS 8-SHOT CARD-9 0000004000+00000700+00000+0001T   00000700+0000001447          1400 LB7710               2AZ
201670004201670261-008349     201670006001023787590CAP-GUN 8-SHOT         0000001000+00002192+00000+0001T   00002192+0000001447          1400 LB7710               2AZ
201671000201671               201671               170213NL     1400+00000+NL0000005262+0000005262+000000000+000000737+0000005990+0000000009+I20000000000+0000005990+Z
201671001201671018-019000     201671006003000557288MUG OCC. LOVE JUMBO    0000001000+00005262+00000+0001T   00005262+0000001448          1400 LB7515               2AZ
201672000201672               201672               170213NL     1400+00000+NL0000003591+0000003591+000000000+000000504+0000004090+0000000005+I20000000000+0000004090+Z
201672001201672089-000192-A   201672006001023901774KEY-CHAIN ACRYLIC      0000001000+00000876+00000+0001T   00000876+0000001451          1400 LB7205               2AZ
201672002201672903-000710     201672006002099007056SWT REFRESHERS MINT    0000001000+00001139+00000+0001T   00001139+0000001451          1400 LB7150               2AZ
201672003201672903-000295     201672006001704002899SWT MS FRUITY RASCALS  0000001000+00000876+00000+0001T   00000876+0000001451          1400 LB7150               2AZ
201672004201672903-000120     201672006002099001665SWEET GS ZILLIONS 50g  0000001000+00000700+00000+0001T   00000700+0000001451          1400 LB7150               2AZ
201673000201673               201673               170213NL     1400+00000+NL0000002630+0000002630+000000000+000000369+0000002990+0000000009+I20000000000+0000002990+Z
201673001201673306-001714     201673006003000061341FACIAL MAKE-UP WIPES 480000001000+00002630+00000+0001T   00002630+0000001451          1400 LB7200               2AZ
201674000201674               201674               170213NL     1400+00000+NL0000006576+0000006576+000000000+000000921+0000007497+0000000000+I40000007497+0000000000+Z
201674001201674018-019000     201674006003000557288MUG OCC. LOVE JUMBO    0000001000+00005262+00000+0001T   00005262+0000001610          1400 LB7515               2AZ
201674002201674903-000844     201674005010478432567SWT CANDY DL LUV HEARTS0000001000+00001314+00000+0001T   00001314+0000001610          1400 LB7150               2AZ
201675000201675               201675               170213NL     1400+00000+NL0000005120+0000005120+000000000+000000717+0000005830+0000000007+I20000000000+0000005830+Z
201675001201675077-000303     201675006001023593757GIFT-BAG PAPER MED     0000001000+00001578+00000+0001T   00001578+0000001612          1400 LB7112               2AZ
201675002201675018-000136     201675006001023659026MUG OCC LOVE W/PLUSH   0000001000+00003507+00000+0001T   00003507+0000001612          1400 LB7515               2AZ
201675003201675112-116038     201675006009681820246TCS CARRIER BAG MIDI   0000001000+00000035+00000+0001T   00000035+0000001612          1400 LB7090               2AZ
201676000201676               201676               170213NL     1400+00000+NL0000004206+0000004206+000000000+000000589+0000004790+0000000005+I20000000000+0000004790+Z
201676001201676077-000470     201676006003000330171G-BAG DESGN SML 11X14CM0000002000+00001314+00000+0001T   00001314+0000001612          1400 LB7112               2AZ
201676002201676077-000303     201676006001023593757GIFT-BAG PAPER MED     0000001000+00001578+00000+0001T   00001578+0000001612          1400 LB7112               2AZ
201677000201677               201677               170213NL     1400+00000+NL0000002630+0000002630+000000000+000000369+0000002990+0000000009+I20000000000+0000002990+Z
201677001201677077-000270     201677006003000395453GIFT-BAG PPR JMB 33X45 0000001000+00002630+00000+0001T   00002630+0000001613          1400 LB7112               2AZ
201678000201678               201678               170213NL     1400+00000+NL0000003539+0000003539+000000000+000000496+0000004030+0000000005+I20000000000+0000004030+Z
201678001201678039-000319-1   201678006003000442386B/CANDLES LRG NUMBER-1 0000001000+00000876+00000+0001T   00000876+0000001618          1400 LB7510               2AZ
201678002201678006-000167-B   201678006003000516858BALLOONS BLUE METALLIC 0000001000+00001314+00000+0001T   00001314+0000001618          1400 LB7131               2AZ
201678003201678006-000166-H   201678006003000608096BALLOONS HELIUM 6PC WHT0000001000+00001314+00000+0001T   00001314+0000001618          1400 LB7131               2AZ
201678004201678112-116038     201678006009681820246TCS CARRIER BAG MIDI   0000001000+00000035+00000+0001T   00000035+0000001618          1400 LB7090               2AZ
201679000201679               201679               170213NL     1400+00000+NL0000004510+0000004510+000000000+000000634+0000005144+0000000000+I40000005144+0000000000+Z
201679001201679006-000111     201679006003000519385BALLOONS LARGE 12PCE   0000001000+00002630+00000+0001T   00002630+0000001648          1400 LB7131               2AZ
201679002201679006-001000     201679006003000093779HELIUM BALLOON FILL    0000002000+00000613+00000+0001T   00000613+0000001648          1400 LB7131               2AZ
201679003201679903-000671     201679006009803358015SWT SHERBET BLUE LIPS  0000003000+00000218+00000+0001T   00000218+0000001648          1400 LB7150               2AZ
201680000201680               201680               170213NL     1400+00000+NL0000028938+0000028938+000000000+000004055+0000032993+0000000000+I40000032993+0000000000+Z
201680001201680464-009011     201680006003000647675FISHING WITH TWO RODS  0000002000+00005262+00000+0001T   00005262+0000001703          1400 LB7785               2AZ
201680002201680264-000922     201680000090159250012MAISTO CAR PULL-BACK   0000002000+00006139+00000+0001T   00007016+0008191703          1400 LB7710               2AZ
201680003201680565-000002     201680006003000308071NOVELTY GROWING ANIMALS0000002000+00001753+00000+0001T   00001753+0000001703          1400 LB7745               2AZ
201680004201680903-000599     201680006003000608119SWEET BALLOONPUMP 18cm 0000001000+00002630+00000+0001T   00002630+0000001703          1400 LB7150               2AZ
201681000201681               201681               170213NL     1400+00000+NL0000008376+0000008376+000000000+000001175+0000009551+0000000000+I40000009551+0000000000+Z
201681001201681028-000016     201681006001334007004ICE-BRICK CLEAR    400g0000002000+00001753+00000+0001T   00001753+0000001708          1400 LB7305               2AZ
201681002201681007-000196     201681006002324002375FILE LEVER ARCH A4     0000001000+00002630+00000+0001T   00002630+0000001708          1400 LB7130               2AZ
201681003201681112-116069     201681006009681820277TCS CARRIER BAG JUMBO  0000001000+00000048+00000+0001T   00000048+0000001708          1400 LB7090               2AZ
201681004201681566-000352     201681006001023809261STICKERS LASER ASSTD   0000001000+00002192+00000+0001T   00002192+0000001708          1400 LB7130               2AZ
201682000201682               201682               170213NL     1400+00000+NL0000004382+0000004382+000000000+000000615+0000004990+0000000007+I20000000000+0000004990+Z
201682001201682006-000120     201682006001023346889BALLOONS 10PC MIX COL  0000002000+00001753+00000+0001T   00001753+0000001708          1400 LB7131               2AZ
201682002201682076-000017     201682006001811010022TWINE COTTON 50g-BALL  0000001000+00000876+00000+0001T   00000876+0000001708          1400 LB7810               2AZ
201683000201683               201683               170213NL     1400+00000+NL0000001137+0000001137+000000000+000000160+0000001290+0000000007+I20000000000+0000001290+Z
201683001201683080-000133-A   201683006003000647019MINI VALENTINES CARD   0000001000+00000437+00000+0001T   00000437+0000001726          1400 LB7112               2AZ
201683002201683018-000177     201683006001023797513MUG MINI LOVE ASSTD    0000001000+00000700+00000+0001T   00000700+0000001726          1400 LB7515               2AZ
201684000201684               201684               170213NL     1400+00000+NL0000006136+0000006136+000000000+000000861+0000006997+0000000000+I40000006997+0000000000+Z
201684001201684077-000314     201684006003000181148GIFT-BAG 11X14CM MATT  0000001000+00000876+00000+0001T   00000876+0000001727          1400 LB7112               2AZ
201684002201684301-085001     201684006003000297610ORN WATERBALL LOVE ASST0000001000+00004823+00000+0001T   00004823+0000001727          1400 LB7505               2AZ
201684003201684080-000133-A   201684006003000647019MINI VALENTINES CARD   0000001000+00000437+00000+0001T   00000437+0000001727          1400 LB7112               2AZ
201685000201685               201685               170213NL     1400+00000+NL0000001578+0000001578+000000000+000000221+0000001790+0000000009+I20000000000+0000001790+Z
201685001201685077-000315     201685006003000181186GIFT-BAG 20x28cm MATT  0000001000+00001578+00000+0001T   00001578+0000001747          1400 LB7112               2AZ
201686000201686               201686               170213NL     1400+00000+NL0000017151+0000017151+000000000+000002402+0000019550+0000000003+I20000000000+0000019550+Z
201686001201686046-000012-A   201686006003000208296BATTERIES H/POWER SZ:AA0000001000+00002192+00000+0001T   00002192+0000001748          1400 LB7312               2AZ
201686002201686369-000241     201686006003000207664BABY TOY MUSICAL ASSTD 0000001000+00014911+00000+0001T   00014911+0000001748          1400 LB7745               2AZ
201686003201686112-116069     201686006009681820277TCS CARRIER BAG JUMBO  0000001000+00000048+00000+0001T   00000048+0000001748          1400 LB7090               2AZ
201687000201687               201687               170213NL     1400+00000+NL0000009031+0000009031+000000000+000001266+0000010290+0000000007+I20000000000+0000010290+Z
201687001201687077-000303     201687006001023593757GIFT-BAG PAPER MED     0000001000+00001578+00000+0001T   00001578+0000001804          1400 LB7112               2AZ
201687002201687301-085001     201687006003000297610ORN WATERBALL LOVE ASST0000001000+00004823+00000+0001T   00004823+0000001804          1400 LB7505               2AZ
201687003201687565-000040     201687006008766115635NOVELTY ICON BEANIE    0000001000+00002630+00000+0001T   00002630+0000001804          1400 LB7745               2AZ
201688000201688               201688               170213NL     1400+00000+NL0000001314+0000001314+000000000+000000184+0000001490+0000000008+I20000000000+0000001490+Z
201688001201688006-000166-H   201688006003000608096BALLOONS HELIUM 6PC WHT0000001000+00001314+00000+0001T   00001314+0000001804          1400 LB7131               2AZ
201689000201689               201689               170213NL     1400+00000+NL0000019801+0000019801+000000000+000002774+0000022575+0000000000+I40000022575+0000000000+Z
201689001201689266-001020     201689006001023791689MASK & 2 SWORDS PL SET 0000001000+00004823+00000+0001T   00004823+0000001806          1400 LB7710               2AZ
201689002201689261-003821     201689006003000398713GUN HAND COWBOY PLAYSET0000001000+00006139+00000+0001T   00006139+0000001806          1400 LB7710               2AZ
201689003201689261-003344     201689006001023186294GUN RIFLE PL CAP       0000001000+00004385+00000+0001T   00004385+0000001806          1400 LB7710               2AZ
201689004201689261-004007     201689006001023707512GUNS DOUBLE WILD-WEST  0000001000+00004385+00000+0001T   00004385+0000001806          1400 LB7710               2AZ
201689005201689112-116053     201689006006438002399TCS CARRIER BAG 38L    0000001000+00000069+00000+0001T   00000069+0000001806          1400 LB7090               2AZ
201690000201690               201690               170213NL     1400+00000+NL0000001753+0000001753+000000000+000000246+0000001990+0000000009+I20000000000+0000001990+Z
201690001201690077-000908     201690006003000410927G/WRAP 700mmx1m FLOWER 0000001000+00001753+00000+0001T   00001753+0000001807          1400 LB7112               2AZ
A17021300                                          17013413NLSLAVE 2                       LB71IC
B20164300                                          170213NL079-000601     11055155SLAVE 2     LB71IC0000040000+0000001000+0000000000000+
B20166100                                          170213NL903-000095     13453370SLAVE 2     LB73IC0000024000+0000001000+0000000000000+
C20166400                                          170213NL251-000073     14163933SLAVE 2     LB73IC0000000000+0000000000+0010000001000+
M17021301                              SHIEHAAM    NLZ-READING TOTAL R5307.06                        CASH BANKING R 2617.10                          CT CARDS R 2689.96
M17021302                              IT          NLATT:IT                                          SLAVE 2 LAST SLIP NO 201690
M17021391                              CASH        NLSLAVE 2                       Z-REPORT No.   570TOTAL (Sales - Refunds)           5307.06       CASH TO BE BANKED                 2617.10       DEBIT CARDS                          0.00       CREDIT CARDS                      2689.96       Z-READING                         5307.06       AIRTIME DEBIT CARD SALES             0.00       AIRTIME CARD SALES                   0.00       OVERS/UNDERS                         0.00       AIRTIME CASH SALES                   0.00       GIFT CARDS                           0.00       GIFT CARD CASH SALES                 0.00       T O T A L  CASH PAYOUTS              0.00                                                                                                                                                                                                                                                                                                                                                      Z
M17021392                              CASH        NLABSENT                                                                                                                                                                                          ANNUAL LEAVE                                                                                                                                                                                    DAY OFF                                                                                                                                                                                         COMMENTS                                                                                                                                                                                                                                                                                                                                                                                       Z
Y17021300                                          NL00017100465713+000051
ZNL17021320113 SLAVE 2      SALES DATA                     NEXT INVOICE NO.  201691 0570
X NL Slave 2 First invoice 201640 170213 Last invoice 201690 170213 Next invoice 201691 Total number of records 000000204 clbackup completed 20:11:18
