107022000107022               107022               170213NN     1400+00000+NN0000006139+0000006139+000000000+000000860+0000006990+0000000009+I20000000000+0000006990+Z
107022001107022304-001124     107022006003000534289FLOWER BUNCH ROSE/MUM  0000001000+00006139+00000+0001T   00006139+0000000935          1400 H57510               1AZ
107023000107023               107023               170213NN     1400+00000+NN0000006573+0000006573+000000000+000000924+0000007490+0000000007+I20000000000+0000007490+Z
107023001107023368-000100     107023006001023474742PLUSH MD BEAR 12cm     0000001000+00002630+00000+0001T   00002630+0000001113          1400 H57745               1AZ
107023002107023903-000183     107023006003000451043SWT LB HEART LOLLY     0000001000+00000393+00000+0001T   00000393+0000001113          1400 H57150               1AZ
107023003107023080-000133-A   107023006003000647019MINI VALENTINES CARD   0000002000+00000437+00000+0001T   00000437+0000001113          1400 H57112               1AZ
107023004107023903-000194     107023006009826020616SWT CHOC RP LOLLY 25G  0000002000+00001314+00000+0001T   00001314+0000001113          1400 H57150               1AZ
107023006107023112-116069     107023006009681820277TCS CARRIER BAG JUMBO  0000001000+00000048+00000+0001T   00000048+0000001113          1400 H57090               1AZ
107024000107024               107024               170213NN     1400+00000+NN0000001801+0000001801+000000000+000000253+0000002050+0000000004+I20000000000+0000002050+Z
107024001107024051-002402     107024006001023518347TRIGGER-SPRAYER  500ml 0000001000+00001753+00000+0001T   00001753+0000001114          1400 H57820               1AZ
107024002107024112-116069     107024006009681820277TCS CARRIER BAG JUMBO  0000001000+00000048+00000+0001T   00000048+0000001114          1400 H57090               1AZ
107025000107025               107025               170213NN     1400+00000+NN0000007013+0000007013+000000000+000000982+0000007990+0000000005+I20000000000+0000007990+Z
107025001107025018-000130     107025006001023867537MUG OCC LOVE MINI+HEART0000001000+00003507+00000+0001T   00003507+0000001150          1400 H57515               1AZ
107025002107025077-000922     107025006003000413935G/WRAP 700mmx2m FLOWER 0000001000+00002192+00000+0001T   00002192+0000001150          1400 H57112               1AZ
107025003107025903-000194     107025006009826020616SWT CHOC RP LOLLY 25G  0000001000+00001314+00000+0001T   00001314+0000001150          1400 H57150               1AZ
107026000107026               107026               170213NN     1400+00000+NN0000001578+0000001578+000000000+000000221+0000001790+0000000009+I20000000000+0000001790+Z
107026001107026077-000303     107026006001023593757GIFT-BAG PAPER MED     0000001000+00001578+00000+0001T   00001578+0000001152          1400 H57112               1AZ
107027000107027               107027               170213NN     1400+00000+NN0000029818+0000029818+000000000+000004177+0000033995+0000000000+I40000033995+0000000000+Z
107027001107027072-020353     107027006001023598097DOG/CAT-BOWL 17cm      0000001000+00001753+00000+0001T   00001753+0000001210          1400 H57870               1AZ
107027002107027072-020249     107027006003000451241PET BLANKET FLEECE     0000001000+00005262+00000+0001T   00005262+0000001210          1400 H57870               1AZ
107027003107027072-020316     107027006003000603589PET TOY PUP TUG CHEWS  0000001000+00002630+00000+0001T   00002630+0000001210          1400 H57870               1AZ
107027004107027072-000600     107027006003000148431PET DOG HARNESS NYLON  0000001000+00005262+00000+0001T   00005262+0000001210          1400 H57870               1AZ
107027005107027072-020245     107027006001023617996PET BED FLEECE W/SIDES 0000001000+00014911+00000+0001T   00014911+0000001210          1400 H57870               1AZ
107028000107028               107028               170213NN     1400+00000+NN0000015347+0000015347+000000000+000002150+0000017490+0000000007+I20000000000+0000017490+Z
107028001107028077-000309-A   107028006003000671007GIFT-BAG HOLOGRAM JMB  0000001000+00002192+00000+0001T   00002192+0000001212          1400 H57112               1AZ
107028002107028039-001023     107028006003000466337CANDLE TEA-LITE METALIC0000001000+00001753+00000+0001T   00001753+0000001212          1400 H57510               1AZ
107028003107028368-000637     107028006001023874092PLUSH BEAR SLEEPING LOV0000001000+00011402+00000+0001T   00012279+0006471212          1400 H57745               1AZ
107029000107029               107029               170213NN     1400+00000+NN0000008806+0000008806+000000000+000001233+0000010039+0000000000+I40000010039+0000000000+Z
107029001107029001-091415     107029006003000329113W/GLS OCC. LOVE 2PC 2800000001000+00008771+00000+0001T   00009648+0006471312          1400 H57515               1AZ
107029002107029112-116038     107029006009681820246TCS CARRIER BAG MIDI   0000001000+00000035+00000+0001T   00000035+0000001312          1400 H57090               1AZ
107030000107030               107030               170213NN     1400+00000+NN0000008711+0000008711+000000000+000001223+0000009930+0000000004+I20000000000+0000009930+Z
107030001107030903-000709     107030006002099007070SWT QUENCHERS FRUIT    0000002000+00001139+00000+0001T   00001139+0000001313          1400 H57150               1AZ
107030002107030903-000710     107030006002099007056SWT REFRESHERS MINT    0000001000+00001139+00000+0001T   00001139+0000001313          1400 H57150               1AZ
107030003107030016-006515     107030006003000295555S/JAR GLS EMBOSS. 250ML0000003000+00001753+00000+0001T   00001753+0000001313          1400 H57300               1AZ
107030004107030112-116038     107030006009681820246TCS CARRIER BAG MIDI   0000001000+00000035+00000+0001T   00000035+0000001313          1400 H57090               1AZ
107031000107031               107031               170213NN     1400+00000+NN0000034705+0000034705+000000000+000004861+0000039566+0000000000+I40000039566+0000000000+Z
107031001107031112-116053     107031006006438002399TCS CARRIER BAG 38L    0000001000+00000069+00000+0001T   00000069+0000001317          1400 H57090               1AZ
107031002107031366-002803     107031006003000531875DRESS UP POMPOM 2PC SET0000001000+00003507+00000+0001T   00003507+0000001317          1400 H57131               1AZ
107031003107031903-004952     107031006002580020052SWT FREAKY FACES 100G  0000001000+00001314+00000+0001T   00001314+0000001317          1400 H57150               1AZ
107031004107031200-003026     107031006003000276448REFUSE BAGS 10PCE GREEN0000002000+00001753+00000+0001T   00001753+0000001317          1400 H57214               1AZ
107031005107031567-010161     107031009780000008516BOOK TOP ASSTD MILLS   0000001000+00005262+00000+0001T   00005262+0000001317          1400 H57757               1AZ
107031006107031001-091415     107031006003000329113W/GLS OCC. LOVE 2PC 2800000001000+00008771+00000+0001T   00009648+0006471317          1400 H57515               1AZ
107031007107031162-085613     107031006001492856131SS KIDS PEARL SET      0000002000+00003507+00000+0001T   00003507+0000001317          1400 H57160               1AZ
107031008107031018-019000     107031006003000557288MUG OCC. LOVE JUMBO    0000001000+00005262+00000+0001T   00005262+0000001317          1400 H57515               1AZ
107032000107032               107032               170213NN     1400+00000+NN0000005611+0000005611+000000000+000000786+0000006390+0000000007+I20000000000+0000006390+Z
107032001107032006-000190     107032006003000685530BALLOONS LOVE 81x91cm  0000001000+00004385+00000+0001T   00004385+0000001319          1400 H57131               1AZ
107032002107032006-001000     107032006003000093779HELIUM BALLOON FILL    0000002000+00000613+00000+0001T   00000613+0000001319          1400 H57131               1AZ
107033000107033               107033               170213NN     1400+00000+NN0000005259+0000005259+000000000+000000738+0000005990+0000000007+I20000000000+0000005990+Z
107033001107033077-000239     107033006003000160419GIFT-RIBBON ROLL PEARL 0000003000+00001753+00000+0001T   00001753+0000001324          1400 H57112               1AZ
107034000107034               107034               170213NN     1400+00000+NN0000000787+0000000787+000000000+000000111+0000000890+0000000008+I20000000000+0000000890+Z
107034001107034903-000885     107034008690997017147SWT L/BIRD CHOC BISCUIT0000001000+00000437+00000+0001T   00000437+0000001332          1400 H57150               1AZ
107034002107034903-000159     107034006003000417629SWT LB SMALL DUMMIE    0000001000+00000350+00000+0001T   00000350+0000001332          1400 H57150               1AZ
107035000107035               107035               170213NN     1400+00000+NN0000024599+0000024599+000000000+000003445+0000028044+0000000000+I40000028044+0000000000+Z
107035001107035305-075005     107035006003000621934DREAM CATCHER EVA ASSTD0000001000+00003507+00000+0001T   00003507+0000001335          1400 H57505               1AZ
107035002107035162-097721     107035006001492977218#TAG PASTEL WRISTWEAR  0000001000+00004385+00000+0001T   00004385+0000001335          1400 H57160               1AZ
107035003107035566-001012     107035006001023528070STICKERS GLOW IN DARK  0000001000+00001314+00000+0001T   00001314+0000001335          1400 H57130               1AZ
107035004107035007-010500     107035006003000455034WIPE & CHALK 30X20CM   0000001000+00006139+00000+0001T   00006139+0000001335          1400 H57130               1AZ
107035006107035071-000306     107035006001023715371STENCILS ART FUN SET   0000002000+00003507+00000+0001T   00003507+0000001335          1400 H57130               1AZ
107035007107035903-000927     107035000686464546003SWT NOVELTY LOLLY 17g  0000001000+00002192+00000+0001T   00002192+0000001335          1400 H57150               1AZ
107035008107035112-116069     107035006009681820277TCS CARRIER BAG JUMBO  0000001000+00000048+00000+0001T   00000048+0000001335          1400 H57090               1AZ
107036000107036               107036               170213NN     1400+00000+NN0000013328+0000013328+000000000+000001867+0000015190+0000000005+I20000000000+0000015190+Z
107036001107036080-000113     107036006003000237449CARD&ENVLPE - LOVE     0000001000+00001753+00000+0001T   00001753+0000001336          1400 H57112               1AZ
107036002107036031-000874-B   107036006001023798831P/FRAME WDN P/BOX 13X180000001000+00004385+00000+0001T   00004385+0000001336          1400 H57510               1AZ
107036003107036077-000299     107036006003000395576G/BAG 32x25cm LRG LOVE 0000001000+00001490+00000+0001T   00001490+0000001336          1400 H57112               1AZ
107036004107036031-000874-C   107036006001023798862P/FRAME WDN P/BOX 20X250000001000+00005700+00000+0001T   00005700+0000001336          1400 H57510               1AZ
107037000107037               107037               170213NN     1400+00000+NN0000005963+0000005963+000000000+000000835+0000006790+0000000008+I20000000000+0000006790+Z
107037001107037077-000303     107037006001023593757GIFT-BAG PAPER MED     0000001000+00001578+00000+0001T   00001578+0000001338          1400 H57112               1AZ
107037002107037368-000049     107037006003000536955PLUSH BEAR 15cm LOVE   0000001000+00004385+00000+0001T   00004385+0000001338          1400 H57745               1AZ
107038000107038               107038               170213NN     1400+00000+NN0000007927+0000007927+000000000+000001111+0000009030+0000000008+I20000000000+0000009030+Z
107038001107038071-030014     107038006003000284085PEN NVLTY METALLIC 6PC 0000001000+00002630+00000+0001T   00002630+0000001343          1400 H57130               1AZ
107038002107038082-007580     107038006003000698523SUNGLASS MENS DESIGNER 0000001000+00005262+00000+0001T   00005262+0000001343          1400 H57160               1AZ
107038003107038112-116038     107038006009681820246TCS CARRIER BAG MIDI   0000001000+00000035+00000+0001T   00000035+0000001343          1400 H57090               1AZ
107039000107039               107039               170213NN     1400+00000+NN0000001262+0000001262+000000000+000000177+0000001439+0000000000+I40000001439+0000000000+Z
107039001107039007-000206     107039006009635830215X/PAD 80-SHEETS PUNCHED0000001000+00001227+00000+0001T   00001227+0000001345          1400 H57130               1AZ
107039002107039112-116038     107039006009681820246TCS CARRIER BAG MIDI   0000001000+00000035+00000+0001T   00000035+0000001345          1400 H57090               1AZ
107040000107040               107040               170213NN     1400+00000+NN0000002629+0000002629+000000000+000000369+0000002990+0000000008+I20000000000+0000002990+Z
107040001107040084-009411     107040006001023629968SCISSORS 17cm PL-HANDLE0000001000+00001753+00000+0001T   00001753+0000001345          1400 H57200               1AZ
107040002107040077-000150-D   107040006003000054343GIFT-WRAP CELLPHANE CLR0000001000+00000876+00000+0001T   00000876+0000001345          1400 H57112               1AZ
107041000107041               107041               170213NN     1400+00000+NN0000015783+0000015783+000000000+000002211+0000017994+0000000000+I40000017994+0000000000+Z
107041001107041200-003024     107041006001023657299REFUSE BAGS 20PCE BLACK0000001000+00001753+00000+0001T   00001753+0000001350          1400 H57214               1AZ
107041002107041567-075490     107041009780799371277BK NOVEL ROMANCE AFR   0000001000+00003507+00000+0001T   00003507+0000001350          1400 H57757               1AZ
107041003107041567-075490     107041009780799357080BK NOVEL ROMANCE AFR   0000001000+00003507+00000+0001T   00003507+0000001350          1400 H57757               1AZ
107041004107041051-600710     107041006003000604432S/GARDEN SPOT-LIGHT LED0000001000+00007016+00000+0001T   00007016+0000001350          1400 H57820               1AZ
107042000107042               107042               170213NN     1400+00000+NN0000008770+0000008770+000000000+000001228+0000009990+0000000008+I20000000000+0000009990+Z
107042001107042368-000049     107042006003000536955PLUSH BEAR 15cm LOVE   0000001000+00004385+00000+0001T   00004385+0000001353          1400 H57745               1AZ
107042002107042006-000190     107042006003000685530BALLOONS LOVE 81x91cm  0000001000+00004385+00000+0001T   00004385+0000001353          1400 H571311IC            1AZ
107043000107043               107043               170213NN     1400+00000+NN0000018464+0000018464+000000000+000002587+0000021050+0000000001+I20000000000+0000021050+Z
107043001107043112-116069     107043006009681820277TCS CARRIER BAG JUMBO  0000001000+00000048+00000+0001T   00000048+0000001354          1400 H57090               1AZ
107043002107043265-001658     107043006003000123896BOAT PL B/O BUMP&GO    0000001000+00007016+00000+0001T   00007016+0000001354          1400 H57710               1AZ
107043003107043089-000010     107043006003000106523KEY CHAIN REFLECTOR 2PC0000001000+00003507+00000+0001T   00003507+0000001354          1400 H57205               1AZ
107043004107043262-000653     107043006008766060553DIE CAST SET AIRPORT   0000001000+00007893+00000+0001T   00007893+0000001354          1400 H57710               1AZ
107044000107044               107044               170213NN     1400+00000+NN0000007014+0000007014+000000000+000000982+0000007996+0000000000+I40000007996+0000000000+Z
107044001107044018-000136     107044006001023659026MUG OCC LOVE W/PLUSH   0000001000+00003507+00000+0001T   00003507+0000001502          1400 H57515               1AZ
107044002107044301-085004     107044006003000420469ORN LOVE PLAQUE 21X10CM0000001000+00003507+00000+0001T   00003946+0006471502          1400 H57505               1AZ
107045000107045               107045               170213NN     1400+00000+NN0000002665+0000002665+000000000+000000374+0000003030+0000000009+I20000000000+0000003030+Z
107045001107045018-000129     107045006001023403353MUG OCC. LOVE V-SHAPE  0000001000+00002630+00000+0001T   00002630+0000001504          1400 H57515               1AZ
107045002107045112-116038     107045006009681820246TCS CARRIER BAG MIDI   0000001000+00000035+00000+0001T   00000035+0000001504          1400 H57090               1AZ
107046000107046               107046               170213NN     1400+00000+NN0000011402+0000011402+000000000+000001597+0000012990+0000000009+I20000000000+0000012990+Z
107046001107046035-000030     107046006002596030229UMBRELLA GOLF 16-RIB   0000001000+00011402+00000+0001T   00011402+0000001539          1400 H57205               1AZ
107047000107047               107047               170213NN     1400+00000+NN0000009100+0000009100+000000000+000001276+0000010376+0000000000+I40000010376+0000000000+Z
107047001107047903-000087     107047006001704000161SWT SPECKLED-EGGS 50G  0000001000+00001139+00000+0001T   00001139+0000001558          1400 H57150               1AZ
107047002107047567-011424     107047006003000641468BK COLOURING THERAPY A40000001000+00006139+00000+0001T   00006139+0000001558          1400 H57757               1AZ
107047003107047077-000299-A   107047006003000670888GIFT-BAG PAPER JMB LOVE0000001000+00001753+00000+0001T   00001753+0000001558          1400 H57112               1AZ
107047004107047112-116053     107047006006438002399TCS CARRIER BAG 38L    0000001000+00000069+00000+0001T   00000069+0000001558          1400 H57090               1AZ
107048000107048               107048               170213NN     1400+00000+NN0000001362+0000001362+000000000+000000191+0000001550+0000000003+I20000000000+0000001550+Z
107048001107048077-000310     107048006001023608635GIFT-BAG 18X23CM GLOSS 0000001000+00001314+00000+0001T   00001314+0000001559          1400 H57112               1AZ
107048002107048112-116069     107048006009681820277TCS CARRIER BAG JUMBO  0000001000+00000048+00000+0001T   00000048+0000001559          1400 H57090               1AZ
107049000107049               107049               170213NN     1400+00000+NN0000016200+0000016200+000000000+000002272+0000018472+0000000000+I40000018472+0000000000+Z
107049001107049304-001115     107049006001023738240FLOWER-BUNCH CARNATIONS0000001000+00005262+00000+0001T   00005262+0000001610          1400 H57510               1AZ
107049002107049301-085008     107049006003000673933ORN OCC.LOVE TINSEL HRT0000001000+00003069+00000+0001T   00003069+0000001610          1400 H57505               1AZ
107049003107049040-000207     107049006003000673636C/HOLDER GLS COL. 9CM  0000001000+00001753+00000+0001T   00001753+0000001610          1400 H57510               1AZ
107049004107049016-006425     107049006001023998170S/JAR GLS CLIP W/RIBBON0000001000+00002630+00000+0001T   00002630+0000001610          1400 H57300               1AZ
107049005107049077-000303     107049006001023593757GIFT-BAG PAPER MED     0000001000+00001578+00000+0001T   00001578+0000001610          1400 H57112               1AZ
107049006107049039-000026     107049006001023551610C/TAPERED 25CM M/RED   0000001000+00001051+00000+0001T   00001051+0000001610          1400 H57510               1AZ
107049007107049077-000010-C   107049006001023123879CREPE-PAPER RED        0000001000+00000788+00000+0001T   00000788+0000001610          1400 H57112               1AZ
107049008107049112-116053     107049006006438002399TCS CARRIER BAG 38L    0000001000+00000069+00000+0001T   00000069+0000001610          1400 H57090               1AZ
107050000107050               107050               170213NN     1400+00000+NN0000014032+0000014032+000000000+000001966+0000015990+0000000008+I20000000000+0000015990+Z
107050001107050368-000637     107050006001023874092PLUSH BEAR SLEEPING LOV0000001000+00011402+00000+0001T   00012279+0006471613          1400 H57745               1AZ
107050002107050077-000270     107050006003000395453GIFT-BAG PPR JMB 33X45 0000001000+00002630+00000+0001T   00002630+0000001613          1400 H57112               1AZ
107051000107051               107051               170213NN     1400+00000+NN0000017186+0000017186+000000000+000002409+0000019590+0000000005+I20000000000+0000019590+Z
107051001107051368-000637     107051006001023874092PLUSH BEAR SLEEPING LOV0000001000+00011402+00000+0001T   00012279+0006471615          1400 H57745               1AZ
107051002107051304-001204     107051006001023737984FLOWER OCC. TEDDY/ROSES0000001000+00001402+00000+0001T   00001490+0006471615          1400 H57510               1AZ
107051003107051903-000123     107051006925925909280SWEET GS MINI MALLOWS  0000002000+00000876+00000+0001T   00000876+0000001615          1400 H57150               1AZ
107051004107051077-000270     107051006003000395453GIFT-BAG PPR JMB 33X45 0000001000+00002630+00000+0001T   00002630+0000001615          1400 H57112               1AZ
107052000107052               107052               170213NN     1400+00000+NN0000003069+0000003069+000000000+000000430+0000003490+0000000009+I20000000000+0000003490+Z
107052001107052174-008026     107052006009654960429TRAVEL BOTTLES 2-PACK  0000001000+00003069+00000+0001T   00003069+0000001618          1400 H57205               1AZ
107053000107053               107053               170213NN     1400+00000+NN0000000035+0000000035+000000000+000000005+0000000040+0000000000+I20000000000+0000000040+Z
107053001107053112-116038     107053006009681820246TCS CARRIER BAG MIDI   0000001000+00000035+00000+0001T   00000035+0000001619          1400 H57090               1AZ
107054000107054               107054               170213NN     1400+00000+NN0000000876+0000000876+000000000+000000123+0000000990+0000000009+I20000000000+0000000990+Z
107054001107054077-000302     107054008010410010195GIFT-BAG 18X23CM E/D   0000001000+00000876+00000+0001T   00000876+0000001620          1400 H57112               1AZ
107055000107055               107055               170213NN     1400+00000+NN0000000436+0000000436+000000000+000000062+0000000490+0000000008+I20000000000+0000000490+Z
107055001107055006-000170-B   107055006003000608300BALLOONS 1PC L/GREEN   0000002000+00000218+00000+0001T   00000218+0000001621          1400 H57131               1AZ
107056000107056               107056               170213NN     1400+00000+NN0000014032+0000014032+000000000+000001966+0000015990+0000000008+I20000000000+0000015990+Z
107056001107056077-000270     107056006003000395453GIFT-BAG PPR JMB 33X45 0000001000+00002630+00000+0001T   00002630+0000001632          1400 H57112               1AZ
107056002107056368-000637     107056006001023874092PLUSH BEAR SLEEPING LOV0000001000+00011402+00000+0001T   00012279+0006471632          1400 H57745               1AZ
107057000107057               107057               170213NN     1400+00000+NN0000008768+0000008768+000000000+000001230+0000009998+0000000000+I40000009998+0000000000+Z
107057001107057006-000170-B   107057006003000608300BALLOONS 1PC L/GREEN   0000001000+00000218+00000+0001T   00000218+0000001638          1400 H57131               1AZ
107057002107057006-001000     107057006003000093779HELIUM BALLOON FILL    0000001000+00000613+00000+0001T   00000613+0000001638          1400 H57131               1AZ
107057003107057077-000302     107057008010410010195GIFT-BAG 18X23CM E/D   0000001000+00000876+00000+0001T   00000876+0000001638          1400 H57112               1AZ
107057004107057077-000151     107057006008766114676GIFT-WRAP C/PHANE ASSTD0000001000+00000876+00000+0001T   00000876+0000001638          1400 H57112               1AZ
107057005107057079-000201     107057006003000161430P/CRAYONS THERAPY 10PCE0000001000+00002630+00000+0001T   00002630+0000001638          1400 H57130               1AZ
107057006107057567-011422     107057006003000641222BK COLOURING THERAPY   0000001000+00003507+00000+0001T   00003507+0000001638          1400 H57757               1AZ
107057007107057112-116069     107057006009681820277TCS CARRIER BAG JUMBO  0000001000+00000048+00000+0001T   00000048+0000001638          1400 H57090               1AZ
107058000107058               107058               170213NN     1400+00000+NN0000007927+0000007927+000000000+000001110+0000009030+0000000007+I20000000000+0000009030+Z
107058001107058263-000015     107058006003000656097VEHICLES LAUNCH & GO   0000001000+00004385+00000+0001T   00004385+0000001714          1400 HB5710               1AZ
107058002107058567-011350     107058009780709716662BK STICKER COLOUR DOT  0000001000+00003507+00000+0001T   00003507+0000001714          1400 HB5757               1AZ
107058003107058112-116038     107058006009681820246TCS CARRIER BAG MIDI   0000001000+00000035+00000+0001T   00000035+0000001714          1400 HB5090               1AZ
107059000107059               107059               170213NN     1400+00000+NN0000001490+0000001490+000000000+000000209+0000001690+0000000009+I20000000000+0000001690+Z
107059001107059077-000299     107059006003000395576G/BAG 32x25cm LRG LOVE 0000001000+00001490+00000+0001T   00001490+0000001722          1400 H57112               1AZ
A17021300                                          11080392NNSLAVE 1                       H571IC
A17021301                                          13581030NNSLAVE 1                       H573IC
A17021302                                          15001290NNSLAVE 1                       H571IC
B10704200                                          170213NN006-000190     13525984SLAVE 1     H571IC0000002000+0000001000+0000000000000+
C10702300                                          170213NN088-000107     11131475SLAVE 1     H571IC0000000000+0000000000+0050000001000+
C10703500                                          170213NN112-116038     13343062SLAVE 1     H573IC0000000000+0000000000+0050000001000+
M17021301                              IT          NNLAST TILL SLIP NO                               107046                                          THANX NN
M17021302                              SHIEAAM     NNBANKING 2169.10                                                                                 CREDIT CARDS 1779.19                                                                            Z READING 3948.29                                                                               THANX NN
M17021391                              CASH        NNSLAVE 1                       Z-REPORT No.   590TOTAL (Sales - Refunds)           3948.29       CASH TO BE BANKED                 2169.10       DEBIT CARDS                          0.00       CREDIT CARDS                      1779.19       Z-READING                         3948.29       AIRTIME DEBIT CARD SALES             0.00       AIRTIME CARD SALES                   0.00       OVERS/UNDERS                         0.00       AIRTIME CASH SALES                   0.00       GIFT CARDS                           0.00       GIFT CARD CASH SALES                 0.00       T O T A L  CASH PAYOUTS              0.00                                                                                                                                                                                                                                                                                                                                                      Z
M17021392                              CASH        NNABSENT                                                                                                                                                                                          ANNUAL LEAVE                                                                                                                                                                                    DAY OFF                                                                                                                                                                                         COMMENTS                                                                                                                                                                                                                                                                                                                                                                                       Z
Y17021300                                          NN00000000346467+000038
ZNN17021320113 SLAVE 1      SALES DATA                     NEXT INVOICE NO.  107060 0590
X NN Slave 1 First invoice 107022 170213 Last invoice 107059 170213 Next invoice 107060 Total number of records 000000161 clbackup completed 20:11:10
