205657000205657               205657               170213NN     1400+00000+NN0000004908+0000004908+000000000+000000688+0000005590+0000000006+I20000000000+0000005590+Z
205657001205657251-000041     205657006001023515889SEAL-TAPE BUFF 48mmx50m0000004000+00001227+00000+0001T   00001227+0000000917          1400 SO5810               2AZ
205658000205658               205658               170213NN     1400+00000+NN0000004385+0000004385+000000000+000000614+0000004990+0000000009+I20000000000+0000004990+Z
205658001205658004-078993     205658006001023716569EARPHONES W/1.1m CORD  0000001000+00004385+00000+0001T   00004385+0000000935          1400 SO5310               2AZ
205659000205659               205659               170213NN     1400+00000+NN0000006486+0000006486+000000000+000000909+0000007395+0000000000+I40000007395+0000000000+Z
205659001205659108-002020     205659006009654960245WINE GLS STYRENE 220ml 0000001000+00001402+00000+0001T   00001402+0000000943          1400 SO5210               2AZ
205659002205659566-000068     205659006003000418046POP UP LOVE 2 ASSTD    0000001000+00002192+00000+0001T   00002192+0000000943          1400 SO5130               2AZ
205659003205659077-000303     205659006001023593757GIFT-BAG PAPER MED     0000001000+00001578+00000+0001T   00001578+0000000943          1400 SO5112               2AZ
205659004205659006-000166-D   205659006003000516490BALLOONS LRG 6PC RED   0000001000+00001314+00000+0001T   00001314+0000000943          1400 SO5131               2AZ
205660000205660               205660               170213NN     1400+00000+NN0000017145+0000017145+000000000+000002403+0000019548+0000000000+I40000019548+0000000000+Z
205660001205660174-008034     205660006009654960610TRAVEL BOTTLES 150ml   0000001000+00001928+00000+0001T   00001928+0000000949          1400 SO5205               2AZ
205660002205660567-000042     205660009781842057889BK DICTIONARY 399PG ENG0000001000+00003946+00000+0001T   00003946+0000000949          1400 SO5757               2AZ
205660003205660567-010598     205660009781842058527BOOK DICTIONERY GG AFR 0000001000+00007016+00000+0001T   00007016+0000000949          1400 SO5757               2AZ
205660004205660036-000063     205660006009654960436COATHANGERS VIRGIN 5PCE0000001000+00001753+00000+0001T   00001753+0000000949          1400 SO5212               2AZ
205660005205660903-000504     205660006001704012416SWT CHOC JELLY BEANS   0000002000+00001227+00000+0001T   00001227+0000000949          1400 SO5150               2AZ
205660006205660112-116069     205660006009681820277TCS CARRIER BAG JUMBO  0000001000+00000048+00000+0001T   00000048+0000000949          1400 SO5090               2AZ
205661000205661               205661               170213NN     1400+00000+NN0000022607+0000022607+000000000+000003168+0000025775+0000000000+I40000025775+0000000000+Z
205661001205661006-001000     205661006003000093779HELIUM BALLOON FILL    0000006000+00000613+00000+0001T   00000613+0000000958          1400 SO5131               2AZ
205661002205661006-000166-D   205661006003000516490BALLOONS LRG 6PC RED   0000001000+00001314+00000+0001T   00001314+0000000958          1400 SO5131               2AZ
205661003205661071-005060     205661006003000152186CELLOTAPE 2PACK INVSBLE0000001000+00003507+00000+0001T   00003507+0000000958          1400 SO5130               2AZ
205661004205661071-000212     205661006009608641190CHALK WHITE 12PCE      0000001000+00000437+00000+0001T   00000437+0000000958          1400 SO5130               2AZ
205661005205661071-000012     205661006001177101006CHALK COLOUR 12PCE     0000001000+00000481+00000+0001T   00000481+0000000958          1400 SO5130               2AZ
205661006205661079-001001     205661006003000448593CANVAS A3 WOOD MOUNTED 0000003000+00004385+00000+0001T   00004385+0000000958          1400 SO5130               2AZ
205661007205661112-116038     205661006009681820246TCS CARRIER BAG MIDI   0000001000+00000035+00000+0001T   00000035+0000000958          1400 SO5090               2AZ
205662000205662               205662               170213NN     1400+00000+NN0000000876+0000000876+000000000+000000123+0000000990+0000000009+I20000000000+0000000990+Z
205662001205662903-000897     205662008692806325207SWT CHOC DBL MINI ROLL 0000001000+00000876+00000+0001T   00000876+0000001012          1400 SO5150               2AZ
205663000205663               205663               170213NN     1400+00000+NN0000008364+0000008364+000000000+000001172+0000009530+0000000006+I20000000000+0000009530+Z
205663001205663563-000318-L   205663006003000407088SERVIETTES 33cm RED    0000003000+00002192+00000+0001T   00002192+0000001043          1400 SO5214               2AZ
205663002205663566-001228     205663006003000284153STICKERS CRYSTAL ASSTD 0000001000+00001753+00000+0001T   00001753+0000001043          1400 SO5130               2AZ
205663003205663112-116038     205663006009681820246TCS CARRIER BAG MIDI   0000001000+00000035+00000+0001T   00000035+0000001043          1400 SO5090               2AZ
205664000205664               205664               170213NN     1400+00000+NN0000000874+0000000874+000000000+000000124+0000000990+0000000008+I20000000000+0000000990+Z
205664001205664080-000133     205664006003000535613CARD&ENV MINI ASTD DSGN0000001000+00000437+00000+0001T   00000437+0000001046          1400 SO5112               2AZ
205664002205664080-000133-A   205664006003000647019MINI VALENTINES CARD   0000001000+00000437+00000+0001T   00000437+0000001046          1400 SO5112               2AZ
205665000205665               205665               170213NN     1400+00000+NN0000006137+0000006137+000000000+000000860+0000006990+0000000007+I20000000000+0000006990+Z
205665001205665004-071192     205665006003000528813USB CABLE 1.0m         0000001000+00002630+00000+0001T   00002630+0000001048          1400 SO5310               2AZ
205665002205665004-071204     205665006003000624904USB IN-CAR CHARGER 2.1A0000001000+00003507+00000+0001T   00003507+0000001048          1400 SO5310               2AZ
205666000205666               205666               170213NN     1400+00000+NN0000003506+0000003506+000000000+000000492+0000003990+0000000008+I20000000000+0000003990+Z
205666001205666007-000029     205666006003000577736PRICE FLASH 17x11cm    0000002000+00001753+00000+0001T   00001753+0000001053          1400 SO5130               2AZ
205667000205667               205667               170213NN     1400+00000+NN0000008677+0000008677+000000000+000001216+0000009893+0000000000+I40000009893+0000000000+Z
205667001205667566-000359     205667006003000582709STICKER BOOK LOVE SPARK0000001000+00002192+00000+0001T   00002192+0000001104          1400 SO5130               2AZ
205667002205667200-000092     205667006003000576739PICNIC PAPER PLATES 23c0000001000+00001227+00000+0001T   00001227+0000001104          1400 SO5214               2AZ
205667003205667034-000329     205667006001023564290BOTTLE-BRUSHES WHT 2PCE0000001000+00001314+00000+0001T   00001314+0000001104          1400 SO5215               2AZ
205667004205667251-000001     205667006001023487681TAPE DBL-SIDE 18x1000mm0000001000+00001314+00000+0001T   00001314+0000001104          1400 SO5810               2AZ
205667005205667368-000100     205667006001023474742PLUSH MD BEAR 12cm     0000001000+00002630+00000+0001T   00002630+0000001104          1400 SO5745               2AZ
205668000205668               205668               170213NN     1400+00000+NN0000002630+0000002630+000000000+000000369+0000002990+0000000009+I20000000000+0000002990+Z
205668001205668032-000137     205668006001023763068MIRROR PL SWIVEL OVAL  0000001000+00002630+00000+0001T   00003507+0008171134          1400 SO5510               2AZ
205669000205669               205669               170213NN     1400+00000+NN0000009119+0000009119+000000000+000001278+0000010397+0000000000+I40000010397+0000000000+Z
205669001205669051-600630     205669006001023868374PLANTER W/TRAY PL RECT 0000001000+00003244+00000+0001T   00003244+0000001151          1400 SO5820               2AZ
205669002205669051-600632     205669006001023868404PLANTER W/TRAY PL RECT 0000001000+00004385+00000+0001T   00004385+0000001151          1400 SO5820               2AZ
205669003205669304-000717     205669006001023712578FLWRS STAR 51CM     (F)0000001000+00001490+00000+0001T   00001490+0000001151          1400 SO5510               2AZ
205670000205670               205670               170213NN     1400+00000+NN0000091920+0000091920+000000000+000012874+0000104790+0000000004+I20000000000+0000104790+Z
205670001205670365-003115     205670006003000157525PLAY-SET IRON+BOARD+ACC0000001000+00016665+00000+0001T   00016665+0000001159          1400 SO5725               2AZ
205670002205670365-003056     205670006009635021453KIDDIES WOODEN BROOM   0000001000+00003069+00000+0001T   00003069+0000001159          1400 SO5725               2AZ
205670003205670469-003003     205670006001023804808B/BLOCKS 150PC BOX     0000001000+00014034+00000+0001T   00014034+0000001159          1400 SO5755               2AZ
205670004205670071-081091     205670006001151010287STAED/GENKEM ALL-STICK 0000002000+00001227+00000+0001T   00001227+0000001159          1400 SO5130               2AZ
205670005205670469-003003     205670006001023804808B/BLOCKS 150PC BOX     0000001000+00014034+00000+0001T   00014034+0000001159          1400 SO5755               2AZ
205670006205670562-000026     205670006001023910578KID'S DOUGH SET 9PCE   0000002000+00004385+00000+0001T   00004385+0000001159          1400 SO5755               2AZ
205670007205670071-081104-A   205670006003000326662GLUE-STICK 8g CRD-OF-3 0000007000+00001227+00000+0001T   00001227+0000001159          1400 SO5130               2AZ
205670008205670071-005667     205670006003000153060STAPLER SET MTL W/STPLS0000001000+00003507+00000+0001T   00003507+0000001159          1400 SO5130               2AZ
205670009205670071-001015     205670006001023910387MARKERS PERMANENT 3PK  0000001000+00001753+00000+0001T   00001753+0000001159          1400 SO5130               2AZ
205670010205670007-000199     205670006002324001200FILE RING-BINDER A4    0000001000+00003507+00000+0001T   00003507+0000001159          1400 SO5130               2AZ
205670011205670112-116053     205670006006438002399TCS CARRIER BAG 38L    0000001000+00000069+00000+0001T   00000069+0000001159          1400 SO5090               2AZ
205670012205670565-000735     205670006003000615674NOVELTY PUTTY BOUNCING 0000022000+00000700+00000+0001T   00000700+0000001159          1400 SO5745               2AZ
205670013205670112-116053     205670006006438002399TCS CARRIER BAG 38L    0000001000+00000069+00000+0001T   00000069+0000001159          1400 SO5090               2AZ
205671000205671               205671               170213NN     1400+00000+NN0000000876+0000000876+000000000+000000123+0000000990+0000000009+I20000000000+0000000990+Z
205671001205671903-000897     205671008692806325207SWT CHOC DBL MINI ROLL 0000001000+00000876+00000+0001T   00000876+0000001201          1400 SO5150               2AZ
205672000205672               205672               170213NN     1400+00000+NN0000002630+0000002630+000000000+000000369+0000002990+0000000009+I20000000000+0000002990+Z
205672001205672018-000129     205672006001023403353MUG OCC. LOVE V-SHAPE  0000001000+00002630+00000+0001T   00002630+0000001202          1400 SO5515               2AZ
205673000205673               205673               170213NN     1400+00000+NN0000002630+0000002630+000000000+000000369+0000002990+0000000009+I20000000000+0000002990+Z
205673001205673018-000129     205673006001023403353MUG OCC. LOVE V-SHAPE  0000001000+00002630+00000+0001T   00002630+0000001203          1400 SO5515               2AZ
205674000205674               205674               170213NN     1400+00000+NN0000003507+0000003507+000000000+000000491+0000003990+0000000008+I20000000000+0000003990+Z
205674001205674018-005009     205674006001023725608MUG W/PLUSH-BEAR LOVE  0000001000+00003507+00000+0001T   00003507+0000001207          1400 SO5515               2AZ
205675000205675               205675               170213NN     1400+00000+NN0000006574+0000006574+000000000+000000922+0000007490+0000000006+I20000000000+0000007490+Z
205675001205675079-006522     205675006001023149442ART+CRAFT GLUE ASSORTED0000001000+00001753+00000+0001T   00001753+0000001208          1400 SO5130               2AZ
205675002205675079-003005     205675006003000448241A/TUBE 75ML BLUE       0000001000+00001753+00000+0001T   00001753+0000001208          1400 SO5130               2AZ
205675003205675566-000068     205675006003000418046POP UP LOVE 2 ASSTD    0000001000+00002192+00000+0001T   00002192+0000001208          1400 SO5130               2AZ
205675004205675566-000200     205675006003000384174STICKER PUFFY NEON     0000001000+00000876+00000+0001T   00000876+0000001208          1400 SO5130               2AZ
205676000205676               205676               170213NN     1400+00000+NN0000003945+0000003945+000000000+000000553+0000004490+0000000008+I20000000000+0000004490+Z
205676001205676467-000004     205676006001023347596NET FISHING 100cm LONG 0000001000+00002192+00000+0001T   00002192+0000001211          1400 SO5785               2AZ
205676002205676566-000055     205676006003000661268STICKER DRESS UP GIRL  0000001000+00001753+00000+0001T   00001753+0000001211          1400 SO5130               2AZ
205677000205677               205677               170213NN     1400+00000+NN0000012273+0000012273+000000000+000001720+0000013993+0000000000+I40000013993+0000000000+Z
205677001205677362-000302     205677006003000095469HAIR CLIP LRG GIRLS    0000001000+00001578+00000+0001T   00001578+0000001218          1400 SO5160               2AZ
205677002205677362-000306     205677006003000450039HAIR BAND SET 18PC     0000001000+00001490+00000+0001T   00001490+0000001218          1400 SO5160               2AZ
205677003205677362-000299     205677006003000654758HAIR CLIPS METAL WORDS 0000001000+00001753+00000+0001T   00001753+0000001218          1400 SO5160               2AZ
205677004205677362-000304     205677006003000654635HAIR HEADBAND SOFT 2PCE0000001000+00002192+00000+0001T   00002192+0000001218          1400 SO5160               2AZ
205677005205677362-019282     205677006003000258079H/ACCESS 16PC BEAD HNDL0000001000+00003507+00000+0001T   00003507+0000001218          1400 SO5160               2AZ
205677006205677077-000467     205677006003000329991GIFT-BAG STAMP 18X23CM 0000001000+00001753+00000+0001T   00001753+0000001218          1400 SO5112               2AZ
205678000205678               205678               170213NN     1400+00000+NN0000007734+0000007734+000000000+000001092+0000008820+0000000006+I20000000000+0000008820+Z
205678001205678903-004960     205678008410525221842SWT GUMMY STR/BERRY 50G0000003000+00000964+00000+0001T   00000964+0000001220          1400 SO5150               2AZ
205678002205678903-000885     205678008690997017147SWT L/BIRD CHOC BISCUIT0000005000+00000437+00000+0001T   00000437+0000001220          1400 SO5150               2AZ
205678003205678080-000133-A   205678006003000647019MINI VALENTINES CARD   0000006000+00000437+00000+0001T   00000437+0000001220          1400 SO5112               2AZ
205678004205678112-116038     205678006009681820246TCS CARRIER BAG MIDI   0000001000+00000035+00000+0001T   00000035+0000001220          1400 SO5090               2AZ
205679000205679               205679               170213NN     1400+00000+NN0000003507+0000003507+000000000+000000491+0000003990+0000000008+I20000000000+0000003990+Z
205679001205679562-000020     205679006003000600861EDU PLAY DOUGH 60g 4PC 0000001000+00003507+00000+0001T   00003507+0000001230          1400 SO5755               2AZ
205680000205680               205680               170213NN     1400+00000+NN0000001314+0000001314+000000000+000000184+0000001498+0000000000+I40000001498+0000000000+Z
205680001205680046-000012     205680006904708013062BATTERIES AA  CARD-OF-40000001000+00001314+00000+0001T   00001314+0000001243          1400 SO5312               2AZ
205681000205681               205681               170213NN     1400+00000+NN0000003507+0000003507+000000000+000000491+0000003998+0000000000+I40000003998+0000000000+Z
205681001205681028-002101     205681006002580009507CHAIR JUNIOR    ASSTD  0000001000+00003507+00000+0001T   00003507+0000001246          1400 SO5305               2AZ
205682000205682               205682               170213NN     1400+00000+NN0000004993+0000004993+000000000+000000702+0000005690+0000000005+I20000000000+0000005690+Z
205682001205682566-001118     205682006003000682171STICKERS CELL PHONE    0000001000+00001753+00000+0001T   00001753+0000001249          1400 SO5130               2AZ
205682002205682077-000408     205682006003000145218G/BAG PP 15X21X7CM     0000001000+00000876+00000+0001T   00000876+0000001249          1400 SO5112               2AZ
205682003205682077-000383     205682006003000247943GIFT-BAG 11X14CM S/COL 0000003000+00000788+00000+0001T   00000788+0000001249          1400 SO5112               2AZ
205683000205683               205683               170213NN     1400+00000+NN0000050760+0000050760+000000000+000007116+0000057870+0000000006+I20000000000+0000057870+Z
205683001205683085-007001     205683006001023909329P/TOOL MINI 7in1       0000001000+00002630+00000+0001T   00002630+0000001314          1400 SO5305               2AZ
205683002205683001-000175     205683006001023788108B/MUG GLS LOVE 380ML   0000001000+00004385+00000+0001T   00004385+0000001314          1400 SO5515               2AZ
205683003205683077-000245     205683006001023759214GIFT-RIBBON METALLICx2 0000002000+00001227+00000+0001T   00001227+0000001314          1400 SO5112               2AZ
205683004205683071-001010     205683006001023893314MARKERS-METALIC 3PCE   0000001000+00003507+00000+0001T   00003507+0000001314          1400 SO5130               2AZ
205683005205683071-001102     205683006003000274598MARKER PERM MED 2PCE   0000001000+00001753+00000+0001T   00001753+0000001314          1400 SO5130               2AZ
205683006205683071-005060     205683006003000152186CELLOTAPE 2PACK INVSBLE0000001000+00003507+00000+0001T   00003507+0000001314          1400 SO5130               2AZ
205683007205683085-007001     205683006001023909329P/TOOL MINI 7in1       0000001000+00002630+00000+0001T   00002630+0000001314          1400 SO5305               2AZ
205683008205683007-000119     205683006002324004126BOOK COVER PL          0000006000+00001051+00000+0001T   00001051+0000001314          1400 SO5130               2AZ
205683009205683903-000194     205683006009826020616SWT CHOC RP LOLLY 25G  0000002000+00001314+00000+0001T   00001314+0000001314          1400 SO5150               2AZ
205683010205683903-000200     205683006009826020234SWT CHOC RP CHOCO 23G  0000001000+00000788+00000+0001T   00000788+0000001314          1400 SO5150               2AZ
205683011205683001-091415     205683006003000329113W/GLS OCC. LOVE 2PC 2800000001000+00008771+00000+0001T   00009648+0006471314          1400 SO5515               2AZ
205683012205683085-007001     205683006001023909329P/TOOL MINI 7in1       0000001000+00002630+00000+0001T   00002630+0000001314          1400 SO5305               2AZ
205683013205683001-091415     205683006003000329113W/GLS OCC. LOVE 2PC 2800000001000+00008771+00000+0001T   00009648+0006471314          1400 SO5515               2AZ
205684000205684               205684               170213NN     1400+00000+NN0000004941+0000004941+000000000+000000693+0000005630+0000000004+I20000000000+0000005630+Z
205684001205684261-002267     205684006001023665126GUN 8-SHOT SUPER-CAP   0000001000+00001753+00000+0001T   00001753+0000001337          1400 HB5710               2AZ
205684002205684261-000121     205684006001023341600GUN-CAPS 8-SHOT CARD-9 0000002000+00000700+00000+0001T   00000700+0000001337          1400 HB5710               2AZ
205684003205684261-002267     205684006001023665126GUN 8-SHOT SUPER-CAP   0000001000+00001753+00000+0001T   00001753+0000001337          1400 HB5710               2AZ
205684004205684112-116038     205684006009681820246TCS CARRIER BAG MIDI   0000001000+00000035+00000+0001T   00000035+0000001337          1400 HB5090               2AZ
205685000205685               205685               170213NN     1400+00000+NN0000014079+0000014079+000000000+000001973+0000016052+0000000000+I40000016052+0000000000+Z
205685001205685174-000308     205685006003000684939TRAVEL NECK-PILLOW FOAM0000001000+00007893+00000+0001T   00007893+0000001403          1400 HB5205               2AZ
205685002205685030-000031-A   205685006003000457588PLAQUE W/WORDS ASSTD   0000001000+00004385+00000+0001T   00004823+0006471403          1400 HB5505               2AZ
205685003205685301-085002     205685006003000420704ORN OCC. LOVE BELL ASST0000001000+00001753+00000+0001T   00002630+0008121403          1400 HB5505               2AZ
205685006205685112-116069     205685006009681820277TCS CARRIER BAG JUMBO  0000001000+00000048+00000+0001T   00000048+0000001403          1400 HB5090               2AZ
205686000205686               205686               170213NN     1400+00000+NN0000006138+0000006138+000000000+000000860+0000006990+0000000008+I20000000000+0000006990+Z
205686001205686562-000212     205686006001023851567PUSH-IN BOARD NUMBERS  0000001000+00004385+00000+0001T   00004385+0000001404          1400 HB5755               2AZ
205686002205686072-000232     205686006003000236060DOG-COL REFLCTV 35-51cm0000001000+00001753+00000+0001T   00001753+0000001404          1400 HB5870               2AZ
205687000205687               205687               170213NN     1400+00000+NN0000003069+0000003069+000000000+000000430+0000003490+0000000009+I20000000000+0000003490+Z
205687001205687038-001805     205687006003000466405DOILIES PAPER 60PC 3ASS0000001000+00003069+00000+0001T   00003069+0000001410          1400 HB5300               2AZ
205688000205688               205688               170213NN     1400+00000+NN0000002630+0000002630+000000000+000000369+0000002990+0000000009+I20000000000+0000002990+Z
205688001205688019-071603     205688006001023772039RIVER-STONES 1kg PEACH 0000001000+00002630+00000+0001T   00002630+0000001414          1400 HB5510               2AZ
205689000205689               205689               170213NN     1400+00000+NN0000007189+0000007189+000000000+000001007+0000008190+0000000006+I20000000000+0000008190+Z
205689001205689018-000127     205689006001023380289MUG OCC STRAIGHT LOVE  0000001000+00001578+00000+0001T   00001753+0006471417          1400 HB5515               2AZ
205689002205689006-001000     205689006003000093779HELIUM BALLOON FILL    0000002000+00000613+00000+0001T   00000613+0000001417          1400 HB5131               2AZ
205689003205689006-000190     205689006003000685530BALLOONS LOVE 81x91cm  0000001000+00004385+00000+0001T   00004385+0000001417          1400 HB5131               2AZ
205690000205690               205690               170213NN     1400+00000+NN0000000437+0000000437+000000000+000000062+0000000490+0000000009+I20000000000+0000000490+Z
205690001205690083-000049     205690004891035200024CIG-LIGHTER DISPOSABLE 0000001000+00000437+00000+0001T   00000437+0000001432          1400 HB5315               2AZ
205691000205691               205691               170213NN     1400+00000+NN0000009777+0000009777+000000000+000001372+0000011140+0000000009+I20000000000+0000011140+Z
205691001205691006-000210-H   205691006003000430055PINK/BLUE CUPS 230g 6PC0000001000+00001490+00000+0001T   00001490+0000001439          1400 HB5131               2AZ
205691002205691006-000208-H   205691006003000412945PINK/BLUE PLATES 23cm  0000001000+00001753+00000+0001T   00001753+0000001439          1400 HB5131               2AZ
205691003205691039-000324     205691006001023775221B/CANDLES+HOLDERS 24PCE0000001000+00001490+00000+0001T   00001490+0000001439          1400 HB5510               2AZ
205691004205691563-000317-J   205691006001023776419SERVIETTE 2PLY 33cm    0000001000+00001753+00000+0001T   00001753+0000001439          1400 HB5214               2AZ
205691005205691006-000208-H   205691006003000412945PINK/BLUE PLATES 23cm  0000001000+00001753+00000+0001T   00001753+0000001439          1400 HB5131               2AZ
205691006205691006-000210-H   205691006003000430055PINK/BLUE CUPS 230g 6PC0000001000+00001490+00000+0001T   00001490+0000001439          1400 HB5131               2AZ
205691007205691112-116069     205691006009681820277TCS CARRIER BAG JUMBO  0000001000+00000048+00000+0001T   00000048+0000001439          1400 HB5090               2AZ
205692000205692               205692               170213NN     1400+00000+NN0000000437+0000000437+000000000+000000062+0000000490+0000000009+I20000000000+0000000490+Z
205692001205692080-000133-A   205692006003000647019MINI VALENTINES CARD   0000001000+00000437+00000+0001T   00000437+0000001445          1400 HB5112               2AZ
205693000205693               205693               170213NN     1400+00000+NN0000004992+0000004992+000000000+000000700+0000005690+0000000002+I20000000000+0000005690+Z
205693001205693006-000167-C   205693006003000516971BALLOONS PINK METALLIC 0000001000+00001314+00000+0001T   00001314+0000001457          1400 HB5131               2AZ
205693002205693006-001000     205693006003000093779HELIUM BALLOON FILL    0000006000+00000613+00000+0001T   00000613+0000001457          1400 HB5131               2AZ
205694000205694               205694               170213NN     1400+00000+NN0000005045+0000005045+000000000+000000707+0000005750+0000000002+I20000000000+0000005750+Z
205694001205694077-000299     205694006003000395576G/BAG 32x25cm LRG LOVE 0000001000+00001490+00000+0001T   00001490+0000001507          1400 SO5112               2AZ
205694002205694018-000136     205694006001023659026MUG OCC LOVE W/PLUSH   0000001000+00003507+00000+0001T   00003507+0000001507          1400 SO5515               2AZ
205694003205694112-116069     205694006009681820277TCS CARRIER BAG JUMBO  0000001000+00000048+00000+0001T   00000048+0000001507          1400 SO5090               2AZ
205695000205695               205695               170213NN     1400+00000+NN0000003507+0000003507+000000000+000000491+0000003990+0000000008+I20000000000+0000003990+Z
205695001205695089-000010     205695006003000106523KEY CHAIN REFLECTOR 2PC0000001000+00003507+00000+0001T   00003507+0000001511          1400 SO5205               2AZ
205696000205696               205696               170213NN     1400+00000+NN0000011834+0000011834+000000000+000001661+0000013495+0000000000+I40000013495+0000000000+Z
205696001205696560-000022     205696006003000651511ANIMALS CROC 29.5cm    0000001000+00004385+00000+0001T   00004385+0000001515          1400 SO5745               2AZ
205696002205696903-000123     205696006925925909280SWEET GS MINI MALLOWS  0000001000+00000876+00000+0001T   00000876+0000001515          1400 SO5150               2AZ
205696003205696903-000670     205696006009803358008SWT SHERBET RED LIPS   0000003000+00000218+00000+0001T   00000218+0000001515          1400 SO5150               2AZ
205696004205696200-003026     205696006003000276448REFUSE BAGS 10PCE GREEN0000001000+00001753+00000+0001T   00001753+0000001515          1400 SO5214               2AZ
205696005205696903-000211     205696006002099001238SWT GS MALLOW ICE CREAM0000001000+00001753+00000+0001T   00001753+0000001515          1400 SO5150               2AZ
205696006205696903-002851     205696000000087108538MENTOS ROLL STRAWBERRY 0000001000+00001051+00000+0001T   00001051+0000001515          1400 SO5150               2AZ
205696007205696112-116069     205696006009681820277TCS CARRIER BAG JUMBO  0000001000+00000048+00000+0001T   00000048+0000001515          1400 SO5090               2AZ
205696008205696903-004950     205696006002580020304SWT APRICOT SURPRISE   0000001000+00001314+00000+0001T   00001314+0000001515          1400 SO5150               2AZ
205697000205697               205697               170213NN     1400+00000+NN0000004906+0000004906+000000000+000000688+0000005590+0000000004+I20000000000+0000005590+Z
205697001205697002-009893     205697006001023764300CUTTING-BOARD 20x30cm  0000001000+00002630+00000+0001T   00002630+0000001523          1400 SO5300               2AZ
205697002205697903-000123     205697006925925909280SWEET GS MINI MALLOWS  0000001000+00000876+00000+0001T   00000876+0000001523          1400 SO5150               2AZ
205697003205697903-000070     205697006001704001106SWT TOFFEE CREAMY 35g  0000002000+00000700+00000+0001T   00000700+0000001523          1400 SO5150               2AZ
205698000205698               205698               170213NN     1400+00000+NN0000013152+0000013152+000000000+000001843+0000014995+0000000000+I40000014995+0000000000+Z
205698001205698361-000664     205698006003000157402DOLL BIG EYE BEAUTY    0000001000+00003507+00000+0001T   00004385+0008191526          1400 SO5725               2AZ
205698002205698365-003059     205698006001023794321PLAY SET 8PC BEAUTY SET0000001000+00004385+00000+0001T   00004385+0000001526          1400 SO5725               2AZ
205698003205698077-000270     205698006003000395453GIFT-BAG PPR JMB 33X45 0000002000+00002630+00000+0001T   00002630+0000001526          1400 SO5112               2AZ
205699000205699               205699               170213NN     1400+00000+NN0000005648+0000005648+000000000+000000796+0000006444+0000000000+I40000006444+0000000000+Z
205699001205699566-000359     205699006003000582709STICKER BOOK LOVE SPARK0000001000+00002192+00000+0001T   00002192+0000001530          1400 SO5130               2AZ
205699002205699079-009700-B   205699006003000547661PAPER SIRIO A4 WHITE   0000003000+00000306+00000+0001T   00000306+0000001530          1400 SO5130               2AZ
205699003205699079-009700-D   205699006003000545711PAPER SIRIO A4 RED COL.0000003000+00000306+00000+0001T   00000306+0000001530          1400 SO5130               2AZ
205699004205699112-116069     205699006009681820277TCS CARRIER BAG JUMBO  0000001000+00000048+00000+0001T   00000048+0000001530          1400 SO5090               2AZ
205699005205699903-000183     205699006003000451043SWT LB HEART LOLLY     0000004000+00000393+00000+0001T   00000393+0000001530          1400 SO5150               2AZ
205700000205700               205700               170213NN     1400+00000+NN0000006886+0000006886+000000000+000000966+0000007850+0000000002+I20000000000+0000007850+Z
205700001205700002-000016     205700006001023760173CAPPUCCINO-FROTHER B/O 0000001000+00002630+00000+0001T   00002630+0000001532          1400 SO5300               2AZ
205700002205700567-075466     205700009780263250886BK NOVEL ROMANCE       0000001000+00002630+00000+0001T   00002630+0000001532          1400 SO5757               2AZ
205700003205700077-000315     205700006003000181186GIFT-BAG 20x28cm MATT  0000001000+00001578+00000+0001T   00001578+0000001532          1400 SO5112               2AZ
205700004205700112-116069     205700006009681820277TCS CARRIER BAG JUMBO  0000001000+00000048+00000+0001T   00000048+0000001532          1400 SO5090               2AZ
205701000205701               205701               170213NN     1400+00000+NN0000007016+0000007016+000000000+000000983+0000007990+0000000009+I20000000000+0000007990+Z
205701001205701562-006275     205701006001023836182EDU BOARD W/MARKER ASST0000001000+00007016+00000+0001T   00007016+0000001532          1400 SO5755               2AZ
205702000205702               205702               170213NN     1400+00000+NN0000008004+0000008004+000000000+000001125+0000009129+0000000000+I40000009129+0000000000+Z
205702001205702079-009700-A   205702006003000547746PAPER SIRIO A4 BLACK   0000007000+00000306+00000+0001T   00000306+0000001537          1400 SO5130               2AZ
205702002205702079-009700-D   205702006003000545711PAPER SIRIO A4 RED COL.0000019000+00000306+00000+0001T   00000306+0000001537          1400 SO5130               2AZ
205702003205702112-116069     205702006009681820277TCS CARRIER BAG JUMBO  0000001000+00000048+00000+0001T   00000048+0000001537          1400 SO5090               2AZ
205703000205703               205703               170213NN     1400+00000+NN0000006884+0000006884+000000000+000000966+0000007850+0000000000+I20000000000+0000007850+Z
205703001205703039-000319-2   205703006003000442508B/CANDLES LRG NUMBER-2 0000001000+00000876+00000+0001T   00000876+0000001538          1400 SO5510               2AZ
205703002205703006-000124     205703006003000625888BALLOONS 10PC MIX COL  0000002000+00001753+00000+0001T   00001753+0000001538          1400 SO5131               2AZ
205703003205703200-000092     205703006003000576739PICNIC PAPER PLATES 23c0000002000+00001227+00000+0001T   00001227+0000001538          1400 SO5214               2AZ
205703004205703112-116069     205703006009681820277TCS CARRIER BAG JUMBO  0000001000+00000048+00000+0001T   00000048+0000001538          1400 SO5090               2AZ
205704000205704               205704               170213NN     1400+00000+NN0000002192+0000002192+000000000+000000307+0000002490+0000000009+I20000000000+0000002490+Z
205704001205704369-001010     205704006001023864222BATH VINYL DUCK 4PC    0000001000+00002192+00000+0001T   00002192+0000001539          1400 SO5745               2AZ
205705000205705               205705               170213NN     1400+00000+NN0000003945+0000003945+000000000+000000553+0000004498+0000000000+I40000004498+0000000000+Z
205705001205705072-020261     205705006003000305131PET DOG-CHEW TYRE SMALL0000001000+00002192+00000+0001T   00002192+0000001549          1400 SO5870               2AZ
205705002205705077-000309     205705006001023608604GIFT-BAG 25X32CM GLOSS 0000001000+00001753+00000+0001T   00001753+0000001549          1400 SO5112               2AZ
205706000205706               205706               170213NN     1400+00000+NN0000031471+0000031471+000000000+000004415+0000035886+0000000000+I40000035886+0000000000+Z
205706001205706006-000098     205706006003000601325PARTY PHOTO BOOTH 20PC 0000001000+00005262+00000+0001T   00005262+0000001609          1400 SO5131               2AZ
205706002205706079-006495     205706006003000159987GLITTER SHAKERS 6PK    0000001000+00002630+00000+0001T   00002630+0000001609          1400 SO5130               2AZ
205706003205706565-000071     205706006003000643387NOVELTY WIND UP CHATTER0000001000+00001139+00000+0001T   00001139+0000001609          1400 SO5745               2AZ
205706004205706903-002851     205706000000087108538MENTOS ROLL STRAWBERRY 0000001000+00001051+00000+0001T   00001051+0000001609          1400 SO5150               2AZ
205706005205706903-000844     205706005010478432567SWT CANDY DL LUV HEARTS0000001000+00001314+00000+0001T   00001314+0000001609          1400 SO5150               2AZ
205706006205706903-002850     205706000000087108262MENTOS ROLL FRUIT      0000001000+00001051+00000+0001T   00001051+0000001609          1400 SO5150               2AZ
205706007205706903-003061     205706000660973182129SWT CANDY FRUIT SOUR   0000001000+00000744+00000+0001T   00000744+0000001609          1400 SO5150               2AZ
205706008205706903-000087     205706006001704000161SWT SPECKLED-EGGS 50G  0000001000+00001139+00000+0001T   00001139+0000001609          1400 SO5150               2AZ
205706009205706039-000319-3   205706006003000442621B/CANDLES LRG NUMBER-3 0000001000+00000876+00000+0001T   00000876+0000001609          1400 SO5510               2AZ
205706010205706039-000319-0   205706006003000441273B/CANDLES LRG NUMBER-0 0000001000+00000876+00000+0001T   00000876+0000001609          1400 SO5510               2AZ
205706011205706903-000077     205706006939873501687SWT GS MAGIC ROCK FRUIT0000001000+00000525+00000+0001T   00000525+0000001609          1400 SO5150               2AZ
205706012205706903-000521     205706006001704009652SWT GUMMY SOFT GUMS    0000001000+00000876+00000+0001T   00000876+0000001609          1400 SO5150               2AZ
205706013205706903-000137     205706006002099004130SWEET GS JELLY BEAN 60G0000001000+00000788+00000+0001T   00000788+0000001609          1400 SO5150               2AZ
205706014205706079-009000     205706006003000249619CANVAS P/SET 20X20CM   0000001000+00003507+00000+0001T   00003507+0000001609          1400 SO5130               2AZ
205706015205706079-000261     205706006003000159727PAINT WATER COLOUR CAKE0000001000+00004385+00000+0001T   00004385+0000001609          1400 SO5130               2AZ
205706016205706112-116069     205706006009681820277TCS CARRIER BAG JUMBO  0000001000+00000048+00000+0001T   00000048+0000001609          1400 SO5090               2AZ
205706017205706006-000191-3   205706006003000686018BALLOONS FOIL SILV NR 30000001000+00002630+00000+0001T   00002630+0000001609          1400 SO5131               2AZ
205706018205706006-000191-0   205706006003000685653BALLOONS SILVER NR 0   0000001000+00002630+00000+0001T   00002630+0000001609          1400 SO5131               2AZ
205707000205707               205707               170213NN     1400+00000+NN0000018416+0000018416+000000000+000002580+0000020996+0000000000+I40000020996+0000000000+Z
205707001205707031-000872-B   205707006001023798749P/FRAME PL BRONZA 13X180000001000+00003507+00000+0001T   00003507+0000001613          1400 SO5510               2AZ
205707002205707368-000111     205707006001023780812PLUSH BEAR/DOG 29CM    0000001000+00012279+00000+0001T   00012279+0000001613          1400 SO5745               2AZ
205707003205707077-000316-A   205707006003000681457GIFT-BAG METALLIC PPR  0000001000+00002630+00000+0001T   00002630+0000001613          1400 SO5112               2AZ
205708000205708               205708               170213NN     1400+00000+NN0000001311+0000001311+000000000+000000186+0000001490+0000000007+I20000000000+0000001490+Z
205708001205708080-000133     205708006003000535613CARD&ENV MINI ASTD DSGN0000003000+00000437+00000+0001T   00000437+0000001614          1400 SO5112               2AZ
205709000205709               205709               170213NN     1400+00000+NN0000001753+0000001753+000000000+000000246+0000001990+0000000009+I20000000000+0000001990+Z
205709001205709077-000454     205709006003000285266G/BAG METALLIC LRG EMB 0000001000+00001753+00000+0001T   00001753+0000001627          1400 SO5112               2AZ
205710000205710               205710               170213NN     1400+00000+NN0000002630+0000002630+000000000+000000369+0000002990+0000000009+I20000000000+0000002990+Z
205710001205710567-075466     205710009780263919004BK NOVEL ROMANCE       0000001000+00002630+00000+0001T   00002630+0000001627          1400 SO5757               2AZ
205711000205711               205711               170213NN     1400+00000+NN0000031632+0000031632+000000000+000004429+0000036060+0000000001+I20000000000+0000036060+Z
205711001205711018-005009     205711006001023725608MUG W/PLUSH-BEAR LOVE  0000009000+00003507+00000+0001T   00003507+0000001644          1400 SO5515               2AZ
205711002205711112-116053     205711006006438002399TCS CARRIER BAG 38L    0000001000+00000069+00000+0001T   00000069+0000001644          1400 SO5090               2AZ
205712000205712               205712               170213NN     1400+00000+NN0000025104+0000025104+000000000+000003519+0000028620+0000000003+I20000000000+0000028620+Z
205712001205712071-000013     205712006003000535354BOARD DUSTER           0000001000+00002630+00000+0001T   00002630+0000001647          1400 SO5130               2AZ
205712002205712071-000012     205712006001177101006CHALK COLOUR 12PCE     0000001000+00000481+00000+0001T   00000481+0000001647          1400 SO5130               2AZ
205712003205712065-003642     205712006003000396405GUITAR ROCKER 2 TONE   0000001000+00005262+00000+0001T   00005262+0000001647          1400 SO5745               2AZ
205712004205712107-004500     205712006003000150557STEP STOOL PL          0000001000+00007016+00000+0001T   00007016+0000001647          1400 SO5210               2AZ
205712005205712007-010504     205712006002923014960BLACKBOARD EASEL       0000001000+00007893+00000+0001T   00007893+0000001647          1400 SO5130               2AZ
205712006205712112-116053     205712006006438002399TCS CARRIER BAG 38L    0000001000+00000069+00000+0001T   00000069+0000001647          1400 SO5090               2AZ
205712007205712466-000109     205712006003000612345BALL RAINBOW DESIGN    0000001000+00001753+00000+0001T   00001753+0000001647          1400 SO5785               2AZ
205713000205713               205713               170213NN     1400+00000+NN0000002630+0000002630+000000000+000000369+0000002990+0000000009+I20000000000+0000002990+Z
205713001205713079-006495     205713006003000159987GLITTER SHAKERS 6PK    0000001000+00002630+00000+0001T   00002630+0000001648          1400 SO5130               2AZ
205714000205714               205714               170213NN     1400+00000+NN0000001753+0000001753+000000000+000000246+0000001990+0000000009+I20000000000+0000001990+Z
205714001205714080-000113     205714006003000237449CARD&ENVLPE - LOVE     0000001000+00001753+00000+0001T   00001753+0000001650          1400 SO5112               2AZ
205715000205715               205715               170213NN     1400+00000+NN0000001051+0000001051+000000000+000000148+0000001190+0000000009+I20000000000+0000001190+Z
205715001205715079-009702-D   205715008427973059354PAPER SIRIO A2 RED COL 0000001000+00001051+00000+0001T   00001051+0000001652          1400 SO5130               2AZ
205716000205716               205716               170213NN     1400+00000+NN0000011705+0000011705+000000000+000001642+0000013347+0000000000+I40000013347+0000000000+Z
205716001205716077-000151     205716006008766114676GIFT-WRAP C/PHANE ASSTD0000001000+00000876+00000+0001T   00000876+0000001656          1400 SO5112               2AZ
205716002205716071-005213     205716006001023690371CELLOTAPE 12mmx33m     0000001000+00000876+00000+0001T   00000876+0000001656          1400 SO5130               2AZ
205716003205716077-000151     205716006008766114676GIFT-WRAP C/PHANE ASSTD0000001000+00000876+00000+0001T   00000876+0000001656          1400 SO5112               2AZ
205716004205716071-005678     205716006001023496294PUNCH 2 HOLE           0000001000+00002630+00000+0001T   00002630+0000001656          1400 SO5130               2AZ
205716005205716077-000115     205716006001023834225WRAP METALLIC 700mmx1m 0000001000+00001753+00000+0001T   00001753+0000001656          1400 SO5112               2AZ
205716006205716567-011433     205716009780600623236BOOK HAMLYN 20-MINUTE  0000001000+00003507+00000+0001T   00003507+0000001656          1400 SO5757               2AZ
205716007205716112-116069     205716006009681820277TCS CARRIER BAG JUMBO  0000001000+00000048+00000+0001T   00000048+0000001656          1400 SO5090               2AZ
205716008205716903-000087     205716006001704000161SWT SPECKLED-EGGS 50G  0000001000+00001139+00000+0001T   00001139+0000001656          1400 SO5150               2AZ
205717000205717               205717               170213NN     1400+00000+NN0000003507+0000003507+000000000+000000491+0000003990+0000000008+I20000000000+0000003990+Z
205717001205717267-000233     205717006001023688576PUZZLE 48pc EDUCATIONAL0000001000+00003507+00000+0001T   00003507+0000001656          1400 SO5755               2AZ
205718000205718               205718               170213NN     1400+00000+NN0000011436+0000011436+000000000+000001602+0000013038+0000000000+I40000013038+0000000000+Z
205718001205718039-000500     205718006001023816450C/VOTIVE 8PC RAINBOW   0000001000+00005262+00000+0001T   00005262+0000001659          1400 SO5510               2AZ
205718002205718039-000798     205718006001023617774CANDLES TEALITE BOX-50 0000001000+00006139+00000+0001T   00006139+0000001659          1400 SO5510               2AZ
205718003205718112-116038     205718006009681820246TCS CARRIER BAG MIDI   0000001000+00000035+00000+0001T   00000035+0000001659          1400 SO5090               2AZ
205719000205719               205719               170213NN     1400+00000+NN0000000876+0000000876+000000000+000000123+0000000999+0000000000+I40000000999+0000000000+Z
205719001205719077-000302     205719008010410010195GIFT-BAG 18X23CM E/D   0000001000+00000876+00000+0001T   00000876+0000001701          1400 SO5112               2AZ
205720000205720               205720               170213NN     1400+00000+NN0000003506+0000003506+000000000+000000492+0000003990+0000000008+I20000000000+0000003990+Z
205720001205720007-000050     205720006001023528285DISPLAY-ENVELOPE A4    0000002000+00001753+00000+0001T   00001753+0000001701          1400 SO5130               2AZ
205721000205721               205721               170213NN     1400+00000+NN0000008768+0000008768+000000000+000001229+0000009997+0000000000+I40000009997+0000000000+Z
205721001205721018-019000     205721006003000557288MUG OCC. LOVE JUMBO    0000001000+00005262+00000+0001T   00005262+0000001708          1400 SO5515               2AZ
205721002205721077-000299-A   205721006003000670888GIFT-BAG PAPER JMB LOVE0000001000+00001753+00000+0001T   00001753+0000001708          1400 SO5112               2AZ
205721003205721039-001023     205721006003000466337CANDLE TEA-LITE METALIC0000001000+00001753+00000+0001T   00001753+0000001708          1400 SO5510               2AZ
205722000205722               205722               170213NN     1400+00000+NN0000001051+0000001051+000000000+000000148+0000001190+0000000009+I20000000000+0000001190+Z
205722001205722007-000119     205722006002324004126BOOK COVER PL          0000001000+00001051+00000+0001T   00001051+0000001709          1400 SO5130               2AZ
205723000205723               205723               170213NN     1400+00000+NN0000000876+0000000876+000000000+000000123+0000000990+0000000009+I20000000000+0000000990+Z
205723001205723046-001616-PK2 205723004897006178378BATTERY LITHIUM CR-16160000001000+00000876+00000+0001T   00000876+0000001710          1400 SO5312               2AZ
205724000205724               205724               170213NN     1400+00000+NN0000000437+0000000437+000000000+000000062+0000000490+0000000009+I20000000000+0000000490+Z
205724001205724080-000133     205724006003000535613CARD&ENV MINI ASTD DSGN0000001000+00000437+00000+0001T   00000437+0000001710          1400 SO5112               2AZ
205725000205725               205725               170213NN     1400+00000+NN0000004821+0000004821+000000000+000000675+0000005496+0000000000+I40000005496+0000000000+Z
205725001205725077-000932     205725006003000409808G/WRAP 700mmx5m PATTERN0000001000+00003507+00000+0001T   00003507+0000001715          1400 SO5112               2AZ
205725002205725077-000310     205725006001023608635GIFT-BAG 18X23CM GLOSS 0000001000+00001314+00000+0001T   00001314+0000001715          1400 SO5112               2AZ
205726000205726               205726               170213NN     1400+00000+NN0000001578+0000001578+000000000+000000221+0000001799+0000000000+I40000001799+0000000000+Z
205726001205726077-000315     205726006003000181186GIFT-BAG 20x28cm MATT  0000001000+00001578+00000+0001T   00001578+0000001716          1400 SO5112               2AZ
205727000205727               205727               170213NN     1400+00000+NN0000008771+0000008771+000000000+000001228+0000009999+0000000000+I40000009999+0000000000+Z
205727001205727001-091415     205727006003000329113W/GLS OCC. LOVE 2PC 2800000001000+00008771+00000+0001T   00009648+0006471722          1400 SO5515               2AZ
205728000205728               205728               170213NN     1400+00000+NN0000000918+0000000918+000000000+000000129+0000001040+0000000007+I20000000000+0000001040+Z
205728001205728079-009700-D   205728006003000545711PAPER SIRIO A4 RED COL.0000003000+00000306+00000+0001T   00000306+0000001724          1400 SO5130               2AZ
205729000205729               205729               170213NN     1400+00000+NN0000005085+0000005085+000000000+000000712+0000005790+0000000007+I20000000000+0000005790+Z
205729001205729018-000136     205729006001023659026MUG OCC LOVE W/PLUSH   0000001000+00003507+00000+0001T   00003507+0000001726          1400 SO5515               2AZ
205729002205729077-000303     205729006001023593757GIFT-BAG PAPER MED     0000001000+00001578+00000+0001T   00001578+0000001726          1400 SO5112               2AZ
205730000205730               205730               170213NN     1400+00000+NN0000004383+0000004383+000000000+000000614+0000004990+0000000007+I20000000000+0000004990+Z
205730001205730018-000136     205730006001023659026MUG OCC LOVE W/PLUSH   0000001000+00003507+00000+0001T   00003507+0000001745          1400 SO5515               2AZ
205730002205730077-000302     205730008010410010195GIFT-BAG 18X23CM E/D   0000001000+00000876+00000+0001T   00000876+0000001745          1400 SO5112               2AZ
205731000205731               205731               170213NN     1400+00000+NN0000000035+0000000035+000000000+000000005+0000000040+0000000000+I20000000000+0000000040+Z
205731001205731112-116038     205731006009681820246TCS CARRIER BAG MIDI   0000001000+00000035+00000+0001T   00000035+0000001746          1400 SO5090               2AZ
205732000205732               205732               170213NN     1400+00000+NN0000007487+0000007487+000000000+000001050+0000008530+0000000007+I20000000000+0000008530+Z
205732001205732562-000010     205732006001023762528KID'S PLAY DOUGH       0000001000+00002630+00000+0001T   00002630+0000001749          1400 SO5755               2AZ
205732002205732079-013101     205732006001023863706CRAFT SET DIY PIPE-CLNR0000001000+00002630+00000+0001T   00002630+0000001749          1400 SO5130               2AZ
205732003205732566-000951     205732006003000217670STICKERS 3 STYLES ASSTD0000001000+00002192+00000+0001T   00002192+0000001749          1400 SO5130               2AZ
205732004205732112-116038     205732006009681820246TCS CARRIER BAG MIDI   0000001000+00000035+00000+0001T   00000035+0000001749          1400 SO5090               2AZ
205733000205733               205733               170213NN     1400+00000+NN0000000700+0000000700+000000000+000000098+0000000790+0000000008+I20000000000+0000000790+Z
205733001205733903-000126     205733006002099003591SWT ZILLIONS MINT 50G  0000001000+00000700+00000+0001T   00000700+0000001750          1400 SO5150               2AZ
205734000205734               205734               170213NN     1400+00000+NN0000003944+0000003944+000000000+000000553+0000004490+0000000007+I20000000000+0000004490+Z
205734001205734080-000133-A   205734006003000647019MINI VALENTINES CARD   0000001000+00000437+00000+0001T   00000437+0000001755          1400 SO5112               2AZ
205734002205734018-005009     205734006001023725608MUG W/PLUSH-BEAR LOVE  0000001000+00003507+00000+0001T   00003507+0000001755          1400 SO5515               2AZ
205735000205735               205735               170213NN     1400+00000+NN0000002630+0000002630+000000000+000000369+0000002990+0000000009+I20000000000+0000002990+Z
205735001205735030-000037     205735006003000430482PLAQUE GLS MOM W/FLOWER0000001000+00002630+00000+0001T   00002630+0000001757          1400 SO5505               2AZ
205736000205736               205736               170213NN     1400+00000+NN0000001314+0000001314+000000000+000000184+0000001490+0000000008+I20000000000+0000001490+Z
205736001205736077-000407     205736006003000145096G/BAG PP 19X26X8CM     0000001000+00001314+00000+0001T   00001314+0000001758          1400 SO5112               2AZ
205737000205737               205737               170213NN     1400+00000+NN0000002190+0000002190+000000000+000000308+0000002490+0000000008+I20000000000+0000002490+Z
205737001205737071-003879     205737006936198404198PENCIL HB BLU/WHITE 12s0000001000+00001753+00000+0001T   00002630+0008151801          1400 SO5130               2AZ
205737002205737080-000133-A   205737006003000647019MINI VALENTINES CARD   0000001000+00000437+00000+0001T   00000437+0000001801          1400 SO5112               2AZ
205738000205738               205738               170213NN     1400+00000+NN0000001753+0000001753+000000000+000000246+0000001990+0000000009+I20000000000+0000001990+Z
205738001205738903-000926     205738006914204004556SWT NOVELTY ST N/LACE  0000001000+00001753+00000+0001T   00001753+0000001801          1400 SO5150               2AZ
A17021300                                          11071991NNSLAVE 2                       SO51IC
A17021301                                          13245893NNSLAVE 2                       SO51IC
A17021302                                          13415226NNSLAVE 2                       HB51IC
A17021303                                          13595207NNSLAVE 2                       HB51IC
A17021304                                          17482686NNSLAVE 2                       SO53IC
C20568500                                          170213NN077-000388     14024053SLAVE 2     HB51IC0000000000+0000000000+0050000001000+
C20568501                                          170213NN567-011399     14025198SLAVE 2     HB51IC0000000000+0000000000+0040000001000+
C20572700                                          170213NN077-000299     17204153SLAVE 2     SO53IC0000000000+0000000000+0010000001000+
M17021301                              IT          NNLAST TILL SLIP NO.                              205738                                                                                          THANX NN
M17021302                              SHIEAAM     NNBANKING 4493.70                                                                                 CREDIT CARDS 2686.67                                                                            Z READING 7180.37                                                                               THANX NN
M17021391                              CASH        NNSLAVE 2                       Z-REPORT No.   583TOTAL (Sales - Refunds)           7180.37       CASH TO BE BANKED                 4493.70       DEBIT CARDS                          0.00       CREDIT CARDS                      2686.67       Z-READING                         7180.37       AIRTIME DEBIT CARD SALES             0.00       AIRTIME CARD SALES                   0.00       OVERS/UNDERS                         0.00       AIRTIME CASH SALES                   0.00       GIFT CARDS                           0.00       GIFT CARD CASH SALES                 0.00       T O T A L  CASH PAYOUTS              0.00                                                                                                                                                                                                                                                                                                                                                      Z
M17021392                              CASH        NNABSENT                                                                                                                                                                                          ANNUAL LEAVE                                                                                                                                                                                    DAY OFF                                                                                                                                                                                         COMMENTS                                                                                                                                                                                                                                                                                                                                                                                       Z
Y17021300                                          NN00000000630114+000082
ZNN17021320113 SLAVE 2      SALES DATA                     NEXT INVOICE NO.  205739 0583
X NN Slave 2 First invoice 205657 170213 Last invoice 205738 170213 Next invoice 205739 Total number of records 000000327 clbackup completed 20:11:13
