300361000300361               300361               170213NN     1400+00000+NN0000078833+0000078833+000000000+000011044+0000089877+           I00000000000+0000000000+Z
300361001300361105-001235     300361006003000572755CONTAINER FROSTED ROUND0000001000+00001753+00000+0001T                                1400 1IC2101ICD             Z
300361002300361018-000177     300361006001023797513MUG MINI LOVE ASSTD    0000002000+00000700+00000+0001T                                1400 1IC5151ICD             Z
300361003300361016-007000     300361006003000233625EGG BASKET HEN SHAPE   0000001000+00007016+00000+0001T                                1400 1IC3001ICD             Z
300361004300361105-001230     300361006003000572632CONTAINER FROSTED      0000001000+00001753+00000+0001T                                1400 1IC2101ICD             Z
300361005300361105-008005     300361006002580009484STORAGE CONTAINER 7.5L 0000001000+00004385+00000+0001T                                1400 1IC2101ICD             Z
300361006300361031-086302-C   300361006001023910332P/FRAME COLL. PL 3-HOLE0000001000+00008771+00000+0001T                                1400 1IC5101ICD             Z
300361007300361016-006545     300361006003000579877S/JAR GLS COUNTER 2SIDE0000001000+00008771+00000+0001T                                1400 1IC3001ICD             Z
300361008300361009-001453     300361006003000531400MELAMINE TUMBLER 10cm  0000002000+00001490+00000+0001T                                1400 1IC2101ICD             Z
300361009300361019-000020     300361006003000673612VASE GLS 22CM BAUBLE   0000002000+00005262+00000+0001T                                1400 1IC5101ICD             Z
300361010300361016-006425     300361006001023998170S/JAR GLS CLIP W/RIBBON0000001000+00002630+00000+0001T                                1400 1IC3001ICD             Z
300361011300361003-000142     300361006001023725578ORN SIGN HANGING ASST  0000001000+00007016+00000+0001T                                1400 1IC5051ICD             Z
300361012300361039-000026     300361006001023551610C/TAPERED 25CM M/RED   0000002000+00001051+00000+0001T                                1400 1IC5101ICD             Z
300361013300361108-003022     300361006003000598830TUMBLER W/STRAW & SCREW0000001000+00003507+00000+0001T                                1400 1IC2101ICD             Z
300361014300361019-000015     300361006003000673537VASE GLS W/STND P/SHAPE0000001000+00008771+00000+0001T                                1400 1IC5101ICD             Z
300361015300361019-000102     300361006003000280919VASE GLS BUD 18X6CM    0000001000+00004385+00000+0001T                                1400 1IC5101ICD             Z
300361016300361003-008018     300361006003000420049ORN SIGN FLOWER GARDEN 0000001000+00003069+00000+0001T                                1400 1IC5051ICD             Z
300362000300362               300362               170213NN     1400+00000+NN0000099795+0000099795+000000000+000013978+0000113773+           I90000000000+0000000000+Z
300362001300362077-000380     300362006003000247585GIFT-BAG 33X45CM S/COL 0000001000+00002455+00000+0001T032805590000                    1400 1IC1121ICV             Z
300362002300362265-000322     300362000771171140207BATTERY MOTORBIKE QUAD 0000001000+00010525+00000+0001T032805590000                    1400 1IC7101ICV             Z
300362003300362304-001508     300362006003000036165FLWR ORCHID SPRAY 77CM 0000002000+00003069+00000+0001T032805590000                    1400 1IC5101ICV             Z
300362004300362065-005337     300362006001023619303KEYBOARD B/O 32-KEYS   0000001000+00013157+00000+0001T032805590000                    1400 1IC7451ICV             Z
300362005300362266-000608     300362006003000657513BOYS FOAM ROCKET 38cm  0000001000+00006139+00000+0001T032805590000                    1400 1IC7101ICV             Z
300362006300362200-003026     300362006003000276448REFUSE BAGS 10PCE GREEN0000001000+00001753+00000+0001T032805590000                    1400 1IC2141ICV             Z
300362007300362076-000018     300362006001023777836TWINE NYLON 50g 4PCE   0000001000+00003507+00000+0001T032805590000                    1400 1IC8101ICV             Z
300362008300362466-000518     300362006003000027460BADMINTON SET          0000001000+00003507+00000+0001T032805590000                    1400 1IC7851ICV             Z
300362009300362004-079102     300362006003000605033USB POWER BANK 1200MAH 0000001000+00006139+00000+0001T032805590000                    1400 1IC3101ICV             Z
300362010300362004-071204     300362006003000624904USB IN-CAR CHARGER 2.1A0000002000+00003507+00000+0001T032805590000                    1400 1IC3101ICV             Z
300362011300362105-007050-B   300362006002580007411CEREAL-STORE 3L ASSTD  0000001000+00003507+00000+0001T032805590000                    1400 1IC2101ICV             Z
300362012300362263-000176     300362006001023790446CAR PL RACER           0000001000+00006139+00000+0001T032805590000                    1400 1IC7101ICV             Z
300362013300362077-000289     300362006001023901996GIFT BOX 20x25x11cm    0000002000+00001753+00000+0001T032805590000                    1400 1IC1121ICV             Z
300362014300362204-000001     300362006001023533722M/HOLD BOTTLE OPENER   0000001000+00001753+00000+0001T032805590000                    1400 1IC3001ICV             Z
300362015300362071-002877     300362006003000143726LASER POINTER PEN      0000001000+00005262+00000+0001T032805590000                    1400 1IC1301ICV             Z
300362016300362565-000893     300362006003000643516NOVELTY FLASHING BALL  0000001000+00002630+00000+0001T032805590000                    1400 1IC7451ICV             Z
300362017300362403-000031     300362006003000302222J/HOLDER MTL LRG 2-ASST0000001000+00013157+00000+0001T032805590000                    1400 1IC5101ICV             Z
300362018300362028-000031     300362006003000270897COOLER-BAG THERMAL 6PK 0000001000+00003507+00000+0001T032805590000                    1400 1IC3051ICV             Z
M17021391                              CASH        NNSLAVE 3                       Z-REPORT No.   185TOTAL (Sales - Refunds)              0.00       CASH TO BE BANKED                    0.00       DEBIT CARDS                          0.00       CREDIT CARDS                         0.00       Z-READING                            0.00       AIRTIME DEBIT CARD SALES             0.00       AIRTIME CARD SALES                   0.00       OVERS/UNDERS                         0.00       AIRTIME CASH SALES                   0.00       GIFT CARDS                           0.00       GIFT CARD CASH SALES                 0.00       T O T A L  CASH PAYOUTS              0.00                                                                                                                                                                                                                                                                                                                                                      Z
M17021392                              CASH        NNABSENT                                                                                                                                                                                          ANNUAL LEAVE                                                                                                                                                                                    DAY OFF                                                                                                                                                                                         COMMENTS                                                                                                                                                                                                                                                                                                                                                                                       Z
Y17021300                                          NN00000000000000+000000
ZNN17021320113 SLAVE 3      SALES DATA                     NEXT INVOICE NO.  300363 0185
L58171300349674-001-001       NN1702130957351ICMENOLITA ARENDS                                                                                                                                                                                                                                                                                                                                                                                                                                                                                                                                                                                                                                                                                                                                                                                                                                                                                                                                                                                      Z
L58624700353509-001-001       NN1702130957571ICMENOLITA ARENDS                                                                                                                                                                                                                                                                                                                                                                                                                                                                                                                                                                                                                                                                                                                                                                                                                                                                                                                                                                                      Z
F094830305-074052         1702130953570000041ICSLAVE 3
F094830305-074058         1702130953570000041ICSLAVE 3
F094830305-074101         1702130953570000021ICSLAVE 3
R5795620001474101         1702130953570000021ICSLAV567-007951     0097817757824521702130000031ICSLAVE 3     170213095438                     00
V5817130000074101         1702130953570000021ICSLAV               0000000000000001702130000001ICSLAVE 3     170213095822349674N              01
V5862470000074101         1702130953570000021ICSLAV               0000000000000001702130000001ICSLAVE 3     170213095928353509N              01
X NN Slave 3 First invoice 300361 170213 Last invoice 300362 170213 Next invoice 300363 Total number of records 000000048 clbackup completed 20:11:14
