126037000126037               126037               170213OA     1400+00000+OA0000015908+0000015908+000000000+000002233+0000018141+0000000000+I40000018141+0000000000+Z
126037001126037112-116069     126037006009681820277TCS CARRIER BAG JUMBO  0000001000+00000048+00000+0001T   00000048+0000001104          1400 AY3090               1AZ
126037002126037903-000200     126037006009826020234SWT CHOC RP CHOCO 23G  0000002000+00000788+00000+0001T   00000788+0000001104          1400 AY3150               1AZ
126037003126037080-000127     126037006003000424351VALENTINES DAY 36x24CM 0000001000+00002192+00000+0001T   00002192+0000001104          1400 AY3112               1AZ
126037004126037039-000114     126037006001023524058CANDLE T/LITE RED 3.5CM0000001000+00001753+00000+0001T   00001753+0000001104          1400 AY3510               1AZ
126037005126037362-004000     126037000613153000225DISNEY T/BELL TRINKETS 0000001000+00000700+00000+0001T   00000876+0008181104          1400 AY3160               1AZ
126037006126037903-000200     126037006009826020234SWT CHOC RP CHOCO 23G  0000001000+00000788+00000+0001T   00000788+0000001104          1400 AY3150               1AZ
126037007126037077-000151     126037006008766114676GIFT-WRAP C/PHANE ASSTD0000001000+00000876+00000+0001T   00000876+0000001104          1400 AY3112               1AZ
126037008126037301-085002     126037006003000420704ORN OCC. LOVE BELL ASST0000001000+00001753+00000+0001T   00002630+0008121104          1400 AY3505               1AZ
126037009126037903-000200     126037006009826020234SWT CHOC RP CHOCO 23G  0000001000+00000788+00000+0001T   00000788+0000001104          1400 AY3150               1AZ
126037010126037039-001023     126037006003000466337CANDLE TEA-LITE METALIC0000001000+00001753+00000+0001T   00001753+0000001104          1400 AY3510               1AZ
126037011126037088-000084     126037006001023798060P/POURRI 120G ASSTD    0000001000+00001753+00000+0001T   00001753+0000001104          1400 AY3212               1AZ
126037012126037903-000843     126037008693029031067SWT GUMMY JELAXY 80G   0000002000+00000964+00000+0001T   00000964+0000001104          1400 AY3150               1AZ
126038000126038               126038               170213OA     1400+00000+OA0000013987+0000013987+000000000+000001960+0000015940+0000000007+I20000000000+0000015940+Z
126038001126038112-116069     126038006009681820277TCS CARRIER BAG JUMBO  0000001000+00000048+00000+0001T   00000048+0000001139          1400 AY3090               1AZ
126038002126038368-000001     126038006003000097982Plush Bear 25cm        0000001000+00004385+00000+0001T   00004385+0000001139          1400 AY3745               1AZ
126038003126038018-000127     126038006001023380289MUG OCC STRAIGHT LOVE  0000001000+00001578+00000+0001T   00001753+0006471139          1400 AY3515               1AZ
126038004126038077-000317     126038006001023609748GIFT-BAG 11X14CM E/D AN0000001000+00000613+00000+0001T   00000613+0000001139          1400 AY3112               1AZ
126038005126038065-006072     126038006003000466627WOODEN HARMONICA 12.7cm0000001000+00005262+00000+0001T   00005262+0000001139          1400 AY3745               1AZ
126038006126038077-000302     126038008010410010195GIFT-BAG 18X23CM E/D   0000001000+00000876+00000+0001T   00000876+0000001139          1400 AY3112               1AZ
126038007126038018-000177     126038006001023797513MUG MINI LOVE ASSTD    0000001000+00000700+00000+0001T   00000700+0000001139          1400 AY3515               1AZ
126038008126038903-000155     126038006009803374435SWT LOLLY I LUV U HEART0000001000+00000525+00000+0001T   00000525+0000001139          1400 AY3150               1AZ
126039000126039               126039               170213OA     1400+00000+OA0000017538+0000017538+000000000+000002458+0000019996+0000000000+I40000019996+0000000000+Z
126039001126039077-000472     126039006003000330133G-BAG DESGNR LRG 25X32 0000002000+00001753+00000+0001T   00001753+0000001150          1400 AY3112               1AZ
126039002126039562-002000     126039006003000228539EDU THINK FIRST MEMORY 0000002000+00007016+00000+0001T   00007016+0000001150          1400 AY3755               1AZ
126040000126040               126040               170213OA     1400+00000+OA0000018451+0000018451+000000000+000002584+0000021035+0000000000+I40000021035+0000000000+Z
126040001126040301-085002     126040006003000420704ORN OCC. LOVE BELL ASST0000001000+00001753+00000+0001T   00002630+0008121155          1400 AY3505               1AZ
126040002126040031-080508     126040006001023802415P/FRAME PL 22X11CM LOVE0000001000+00004385+00000+0001T   00004385+0000001155          1400 AY3510               1AZ
126040003126040001-091415     126040006003000329113W/GLS OCC. LOVE 2PC 2800000001000+00008771+00000+0001T   00009648+0006471155          1400 AY3515               1AZ
126040004126040031-000002-A   126040006003000247103P/FRAME LOVE 7.5X7.5CM 0000001000+00003507+00000+0001T   00003507+0000001155          1400 AY3510               1AZ
126040005126040112-116038     126040006009681820246TCS CARRIER BAG MIDI   0000001000+00000035+00000+0001T   00000035+0000001155          1400 AY3090               1AZ
126041000126041               126041               170213OA     1400+00000+OA0000001753+0000001753+000000000+000000246+0000001990+0000000009+I20000000000+0000001990+Z
126041001126041024-000083     126041006001023770943SIEVE FLOUR 20cm MTL-RI0000001000+00001753+00000+0001T   00001753+0000001208          1400 AY3300               1AZ
126042000126042               126042               170213OA     1400+00000+OA0000001490+0000001490+000000000+000000209+0000001699+0000000000+I40000001699+0000000000+Z
126042001126042106-008105     126042006009654960566S/DRESSING BOTTLE 500ml0000001000+00001490+00000+0001T   00001490+0000001209          1400 AY3210               1AZ
126043000126043               126043               170213OA     1400+00000+OA0000015565+0000015565+000000000+000002182+0000017747+0000000000+I40000017747+0000000000+Z
126043001126043112-116069     126043006009681820277TCS CARRIER BAG JUMBO  0000001000+00000048+00000+0001T   00000048+0000001212          1400 AY3090               1AZ
126043002126043077-000289     126043006001023901996GIFT BOX 20x25x11cm    0000001000+00001753+00000+0001T   00001753+0000001212          1400 AY3112               1AZ
126043003126043105-000750     126043006003000190270CONTAINERS 4xMINI 150ml0000001000+00001402+00000+0001T   00001402+0000001212          1400 AY3210               1AZ
126043004126043564-000038     126043006003000470624BUBBLE SPRING 230ml    0000001000+00004385+00000+0001T   00004385+0000001212          1400 AY3131               1AZ
126043005126043022-002109     126043006001023501745MUG 6cm DEC            0000001000+00001227+00000+0001T   00001227+0000001212          1400 AY3305               1AZ
126043006126043560-000107     126043006003000547906DOMESTIC 3PC MINI PETS 0000001000+00001753+00000+0001T   00001753+0000001212          1400 AY3745               1AZ
126043007126043562-000020     126043006003000600861EDU PLAY DOUGH 60g 4PC 0000001000+00003507+00000+0001T   00003507+0000001212          1400 AY3755               1AZ
126043008126043077-000452     126043006003000284986G/BAG METALLIC MED EMB 0000001000+00001490+00000+0001T   00001490+0000001212          1400 AY3112               1AZ
126044000126044               126044               170213OA     1400+00000+OA0000002629+0000002629+000000000+000000369+0000002998+0000000000+I40000002998+0000000000+Z
126044001126044077-000011-F   126044006001023808431TISSUE-WRAP BLUE/LILAC 0000001000+00000876+00000+0001T   00000876+0000001215          1400 AY3112               1AZ
126044002126044077-000381     126044006003000247707GIFT-BAG 25X32CM S/COL 0000001000+00001753+00000+0001T   00001753+0000001215          1400 AY3112               1AZ
126045000126045               126045               170213OA     1400+00000+OA0000002192+0000002192+000000000+000000307+0000002490+0000000009+I20000000000+0000002490+Z
126045001126045047-005126     126045006001023451255CABLETIES 100/150/200mm0000001000+00002192+00000+0001T   00002192+0000001219          1400 AY3880               1AZ
126046000126046               126046               170213OA     1400+00000+OA0000005120+0000005120+000000000+000000717+0000005837+0000000000+I40000005837+0000000000+Z
126046001126046018-000127     126046006001023380289MUG OCC STRAIGHT LOVE  0000001000+00001578+00000+0001T   00001753+0006471222          1400 AY3515               1AZ
126046002126046567-075490     126046009780799377071BK NOVEL ROMANCE AFR   0000001000+00003507+00000+0001T   00003507+0000001222          1400 AY3757               1AZ
126046003126046112-116038     126046006009681820246TCS CARRIER BAG MIDI   0000001000+00000035+00000+0001T   00000035+0000001222          1400 AY3090               1AZ
126047000126047               126047               170213OA     1400+00000+OA0000003979+0000003979+000000000+000000558+0000004530+0000000007+I20000000000+0000004530+Z
126047001126047034-078823     126047006001023856869FACE CLOTHS PACK-5     0000001000+00002630+00000+0001T   00002630+0000001247          1400 AY3215               1AZ
126047002126047034-000329     126047006001023564290BOTTLE-BRUSHES WHT 2PCE0000001000+00001314+00000+0001T   00001314+0000001247          1400 AY3215               1AZ
126047003126047112-116038     126047006009681820246TCS CARRIER BAG MIDI   0000001000+00000035+00000+0001T   00000035+0000001247          1400 AY3090               1AZ
126048000126048               126048               170213OA     1400+00000+OA0000017542+0000017542+000000000+000002456+0000019998+0000000000+I40000019998+0000000000+Z
126048001126048072-020237     126048006003000623402PET BED COTTON TEXTILE 0000001000+00017542+00000+0001T   00017542+0000001305          1400 AY3870               1AZ
126049000126049               126049               170213OA     1400+00000+OA0000011269+0000011269+000000000+000001580+0000012849+0000000000+I40000012849+0000000000+Z
126049001126049112-116069     126049006009681820277TCS CARRIER BAG JUMBO  0000001000+00000048+00000+0001T   00000048+0000001326          1400 AY3090               1AZ
126049002126049301-001127     126049006946859290169ORN FOUNTAIN CAS/W.FALL0000001000+00006139+00000+0001T   00006139+0000001326          1400 AY3505               1AZ
126049003126049077-000299     126049006003000395576G/BAG 32x25cm LRG LOVE 0000001000+00001490+00000+0001T   00001490+0000001326          1400 AY3112               1AZ
126049004126049046-000012     126049006904708013062BATTERIES AA  CARD-OF-40000001000+00001314+00000+0001T   00001314+0000001326          1400 AY3312               1AZ
126049005126049566-002004     126049006001023672421STICKERS CRYSTAL SHAPES0000001000+00001753+00000+0001T   00001753+0000001326          1400 AY3130               1AZ
126049006126049903-000155     126049006009803374435SWT LOLLY I LUV U HEART0000001000+00000525+00000+0001T   00000525+0000001326          1400 AY3150               1AZ
126050000126050               126050               170213OA     1400+00000+OA0000007061+0000007061+000000000+000000990+0000008050+0000000001+I20000000000+0000008050+Z
126050001126050112-116069     126050006009681820277TCS CARRIER BAG JUMBO  0000001000+00000048+00000+0001T   00000048+0000001327          1400 AY3090               1AZ
126050002126050077-000358     126050006003000329977GIFT-BAG KIDS 25X32CM  0000001000+00001753+00000+0001T   00001753+0000001327          1400 AY3112               1AZ
126050003126050018-000136     126050006001023659026MUG OCC LOVE W/PLUSH   0000001000+00003507+00000+0001T   00003507+0000001327          1400 AY3515               1AZ
126050004126050024-091103-A   126050006003000419876B/CUP PAPER SET 48PC   0000001000+00001753+00000+0001T   00001753+0000001327          1400 AY3300               1AZ
126051000126051               126051               170213OA     1400+00000+OA0000016612+0000016612+000000000+000002332+0000018944+0000000000+I40000018944+0000000000+Z
126051001126051903-000099     126051006923431501646SWT CANDY GS WTCH B/LET0000001000+00000262+00000+0001T   00000262+0000001331          1400 AY3150               1AZ
126051002126051112-116069     126051006009681820277TCS CARRIER BAG JUMBO  0000001000+00000048+00000+0001T   00000048+0000001331          1400 AY3090               1AZ
126051003126051003-000250     126051006003000035045ORN DECOR NOVELTY GRASS0000001000+00001753+00000+0001T   00001753+0000001331          1400 AY3505               1AZ
126051004126051563-000317-H   126051006001023776358SERVIETTE DOTS+STRIPES 0000001000+00002630+00000+0001T   00002630+0000001331          1400 AY3214               1AZ
126051005126051077-000382     126051006003000247820GIFT-BAG MED 18X23CM   0000005000+00001753+00000+0001T   00001753+0000001331          1400 AY3112               1AZ
126051006126051903-000151     126051006009803374411SWT SML RND R/BOW LOLLY0000001000+00000525+00000+0001T   00000525+0000001331          1400 AY3150               1AZ
126051007126051564-000035     126051006003000301836BUBBLE NOVELTY SWORD   0000001000+00001753+00000+0001T   00001753+0000001331          1400 AY3131               1AZ
126051008126051089-000192-A   126051006001023901774KEY-CHAIN ACRYLIC      0000001000+00000876+00000+0001T   00000876+0000001331          1400 AY3205               1AZ
126052000126052               126052               170213OA     1400+00000+OA0000027572+0000027572+000000000+000003864+0000031430+0000000006+I20000000000+0000031430+Z
126052001126052077-000330     126052006001023745408GIFT-BAG 18X23CM WEDGE 0000001000+00001753+00000+0001T   00001753+0000001333          1400 AY3112               1AZ
126052002126052112-116069     126052006009681820277TCS CARRIER BAG JUMBO  0000001000+00000048+00000+0001T   00000048+0000001333          1400 AY3090               1AZ
126052003126052080-000105     126052006003000236237CARD & ENVELOPE BDAY   0000001000+00001753+00000+0001T   00001753+0000001333          1400 AY3112               1AZ
126052004126052006-000165     126052006001023758392BALLOONS LRG BAG-OF-1000000001000+00008771+00000+0001T   00008771+0000001333          1400 AY3131               1AZ
126052005126052077-000310     126052006001023608635GIFT-BAG 18X23CM GLOSS 0000003000+00001314+00000+0001T   00001314+0000001333          1400 AY3112               1AZ
126052006126052077-000452     126052006003000284986G/BAG METALLIC MED EMB 0000001000+00001490+00000+0001T   00001490+0000001333          1400 AY3112               1AZ
126052007126052077-000315     126052006003000181186GIFT-BAG 20x28cm MATT  0000002000+00001578+00000+0001T   00001578+0000001333          1400 AY3112               1AZ
126052008126052077-000309     126052006001023608604GIFT-BAG 25X32CM GLOSS 0000003000+00001753+00000+0001T   00001753+0000001333          1400 AY3112               1AZ
126052009126052018-000177     126052006001023797513MUG MINI LOVE ASSTD    0000002000+00000700+00000+0001T   00000700+0000001333          1400 AY3515               1AZ
126053000126053               126053               170213OA     1400+00000+OA0000007014+0000007014+000000000+000000982+0000007996+0000000000+I40000007996+0000000000+Z
126053001126053104-000055     126053006001023889416BASKET PL 32x22x8cm    0000002000+00003507+00000+0001T   00003507+0000001336          1400 AY3210               1AZ
126054000126054               126054               170213OA     1400+00000+OA0000000700+0000000700+000000000+000000098+0000000790+0000000008+I20000000000+0000000790+Z
126054001126054018-000177     126054006001023797513MUG MINI LOVE ASSTD    0000001000+00000700+00000+0001T   00000700+0000001338          1400 AY3515               1AZ
126055000126055               126055               170213OA     1400+00000+OA0000021050+0000021050+000000000+000002948+0000023998+0000000000+I40000023998+0000000000+Z
126055001126055361-000124     126055006003000468621DOLL 28cm MERMAID SET  0000001000+00008771+00000+0001T   00008771+0000001344          1400 AY3725               1AZ
126055002126055263-000302     126055006003000403738JEEP PL W/ROOF TOP RAFT0000001000+00012279+00000+0001T   00012279+0000001344          1400 AY3710               1AZ
126056000126056               126056               170213OA     1400+00000+OA0000014031+0000014031+000000000+000001966+0000015990+0000000007+I20000000000+0000015990+Z
126056001126056077-000011-C   126056006001023808523TISSUE 10xSHTS RED     0000001000+00000876+00000+0001T   00000876+0000001356          1400 AY3112               1AZ
126056002126056077-000299-A   126056006003000670888GIFT-BAG PAPER JMB LOVE0000001000+00001753+00000+0001T   00001753+0000001356          1400 AY3112               1AZ
126056003126056368-000637     126056006001023874092PLUSH BEAR SLEEPING LOV0000001000+00011402+00000+0001T   00012279+0006471356          1400 AY3745               1AZ
126057000126057               126057               170213OA     1400+00000+OA0000006080+0000006080+000000000+000000852+0000006932+0000000000+I40000006932+0000000000+Z
126057001126057071-081103     126057006003000197002GLUE STICKS LIQUID 3PCE0000001000+00001753+00000+0001T   00001753+0000001509          1400 AY3130               1AZ
126057002126057566-000359     126057006003000582709STICKER BOOK LOVE SPARK0000001000+00002192+00000+0001T   00002192+0000001509          1400 AY3130               1AZ
126057003126057018-000177     126057006001023797513MUG MINI LOVE ASSTD    0000001000+00000700+00000+0001T   00000700+0000001509          1400 AY3515               1AZ
126057004126057112-116038     126057006009681820246TCS CARRIER BAG MIDI   0000001000+00000035+00000+0001T   00000035+0000001509          1400 AY3090               1AZ
126057005126057018-000177     126057006001023797513MUG MINI LOVE ASSTD    0000002000+00000700+00000+0001T   00000700+0000001509          1400 AY3515               1AZ
126058000126058               126058               170213OA     1400+00000+OA0000001578+0000001578+000000000+000000221+0000001790+0000000009+I20000000000+0000001790+Z
126058001126058018-000127     126058006001023380289MUG OCC STRAIGHT LOVE  0000001000+00001578+00000+0001T   00001753+0006471510          1400 AY3515               1AZ
126059000126059               126059               170213OA     1400+00000+OA0000009943+0000009943+000000000+000001394+0000011337+0000000000+I40000011337+0000000000+Z
126059001126059903-000087     126059006001704000161SWT SPECKLED-EGGS 50G  0000001000+00001139+00000+0001T   00001139+0000001511          1400 AY3150               1AZ
126059002126059301-085007     126059006003000673698ORN OCC. LOVE S/PLAQUE 0000001000+00007893+00000+0001T   00007893+0000001511          1400 AY3505               1AZ
126059003126059077-000011-E   126059006001023808646TISSUE-WRAP PINK 10PCE 0000001000+00000876+00000+0001T   00000876+0000001511          1400 AY3112               1AZ
126059004126059112-116038     126059006009681820246TCS CARRIER BAG MIDI   0000001000+00000035+00000+0001T   00000035+0000001511          1400 AY3090               1AZ
126060000126060               126060               170213OA     1400+00000+OA0000047744+0000047744+000000000+000006691+0000054435+0000000000+I10000050005+0000004430+Z
126060001126060007-010504     126060006002923014960BLACKBOARD EASEL       0000001000+00007893+00000+0001T   00007893+0000001521          1400 AY3130               1AZ
126060002126060562-000002     126060006001023491015COUNTING-FRAME 30x20cm 0000001000+00007016+00000+0001T   00007016+0000001521          1400 AY3755               1AZ
126060003126060567-004963     126060009780636049031TYB G03 MATHS          0000001000+00002192+00000+0001T   00002192+0000001521          1400 AY3757               1AZ
126060004126060567-004962     126060009780636049093TYB G03 ENGLISH        0000001000+00002192+00000+0001T   00002192+0000001521          1400 AY3757               1AZ
126060005126060567-004954     126060009780636049192SPF G01 AFRIKAANS      0000001000+00002192+00000+0001T   00002192+0000001521          1400 AY3757               1AZ
126060006126060567-004959     126060009780636049208BOOK EDU SPF G2 AFRIK. 0000001000+00002192+00000+0001T   00002192+0000001521          1400 AY3757               1AZ
126060007126060567-004965     126060009780636049215SPF G03 AFRIKAANS      0000001000+00002192+00000+0001T   00002192+0000001521          1400 AY3757               1AZ
126060008126060007-000561     126060006003000589128NOVELTY NOTEBOOK       0000002000+00003507+00000+0001T   00003507+0000001521          1400 AY3130               1AZ
126060009126060071-000212     126060006003000445318CHALK WHITE 12PCE      0000001000+00000437+00000+0001T   00000437+0000001521          1400 AY3130               1AZ
126060010126060071-000012     126060006001177101006CHALK COLOUR 12PCE     0000002000+00000481+00000+0001T   00000481+0000001521          1400 AY3130               1AZ
126060011126060079-000510     126060006001023509079CRAYONS WAX 12-COLOUR  0000001000+00002455+00000+0001T   00002455+0000001521          1400 AY3130               1AZ
126060012126060567-011425     126060009781472362896BK COLOURING PLAYTIME  0000001000+00002630+00000+0001T   00002630+0000001521          1400 AY3757               1AZ
126060013126060567-014135     126060006003000560264BOOK COLOURING 240P    0000001000+00003069+00000+0001T   00003507+0008191521          1400 AY3757               1AZ
126060014126060112-116069     126060006009681820277TCS CARRIER BAG JUMBO  0000001000+00000048+00000+0001T   00000048+0000001521          1400 AY3090               1AZ
126060015126060079-000286     126060006001023797032FINGER-PAINT 4PCE      0000001000+00003507+00000+0001T   00003507+0000001521          1400 AY3130               1AZ
126060016126060903-000612     126060006003000617449SWT TRUMPET 20cm       0000001000+00001753+00000+0001T   00001753+0000001521          1400 AY3150               1AZ
126061000126061               126061               170213OA     1400+00000+OA0000013197+0000013197+000000000+000001852+0000015049+0000000000+I40000015049+0000000000+Z
126061001126061079-006525     126061006003000681938MASKING FABRIC 10PC    0000001000+00002630+00000+0001T   00002630+0000001525          1400 AY3130               1AZ
126061002126061079-013032-B   126061006003000389445MIXED SHAPES           0000001000+00001753+00000+0001T   00001753+0000001525          1400 AY3130               1AZ
126061003126061079-013032-J   126061006003000542710A&C DIY COLOUR P/FLOWER0000001000+00001753+00000+0001T   00001753+0000001525          1400 AY3130               1AZ
126061004126061079-000601     126061006003000640379ART+CRAFT SHEETS METAL 0000001000+00002630+00000+0001T   00002630+0000001525          1400 AY3130               1AZ
126061005126061079-013032-E   126061006003000389766ART+CRAFT COL/PAPER    0000001000+00002630+00000+0001T   00002630+0000001525          1400 AY3130               1AZ
126061006126061079-006522     126061006001023149442ART+CRAFT GLUE ASSORTED0000001000+00001753+00000+0001T   00001753+0000001525          1400 AY3130               1AZ
126061007126061112-116069     126061006009681820277TCS CARRIER BAG JUMBO  0000001000+00000048+00000+0001T   00000048+0000001525          1400 AY3090               1AZ
126062000126062               126062               170213OA     1400+00000+OA0000000788+0000000788+000000000+000000111+0000000890+0000000009+I20000000000+0000000890+Z
126062001126062077-000010-U   126062006001023168863CREPE-PAPER CERISE-PINK0000001000+00000788+00000+0001T   00000788+0000001526          1400 AY3112               1AZ
126063000126063               126063               170213OA     1400+00000+OA0000023417+0000023417+000000000+000003279+0000026696+0000000000+I40000026696+0000000000+Z
126063001126063365-003048     126063006001023589354PLAY BEAUTY COSMETIC   0000001000+00004385+00000+0001T   00004385+0000001610          1400 AY3725               1AZ
126063002126063077-000327     126063006001023677686GIFT-BAG 25X32CM E/D BA0000001000+00001490+00000+0001T   00001490+0000001610          1400 AY3112               1AZ
126063003126063263-000310     126063006003000013869JEEP PL FRICTION W/TRAI0000001000+00017542+00000+0001T   00017542+0000001610          1400 AY3710               1AZ
126064000126064               126064               170213OA     1400+00000+OA0000003243+0000003243+000000000+000000455+0000003698+0000000000+I40000003698+0000000000+Z
126064001126064903-002850     126064000000087108262MENTOS ROLL FRUIT      0000001000+00001051+00000+0001T   00001051+0000001616          1400 AY3150               1AZ
126064002126064080-000127     126064006003000424351VALENTINES DAY 36x24CM 0000001000+00002192+00000+0001T   00002192+0000001616          1400 AY3112               1AZ
126065000126065               126065               170213OA     1400+00000+OA0000005821+0000005821+000000000+000000816+0000006630+0000000007+I20000000000+0000006630+Z
126065001126065566-001234     126065006003000217793STICKERS LASER ASSTD   0000002000+00001578+00000+0001T   00001578+0000001617          1400 AY3130               1AZ
126065002126065566-000006     126065006001023671189STICKER-BOOK DRESS-UP  0000001000+00002630+00000+0001T   00002630+0000001617          1400 AY3130               1AZ
126065003126065112-116038     126065006009681820246TCS CARRIER BAG MIDI   0000001000+00000035+00000+0001T   00000035+0000001617          1400 AY3090               1AZ
126066000126066               126066               170213OA     1400+00000+OA0000029474+0000029474+000000000+000004130+0000033600+0000000004+I20000000000+0000033600+Z
126066001126066104-000020     126066006916920023026BASKET 25x14x10cm      0000001000+00001753+00000+0001T   00001753+0000001624          1400 AY3210               1AZ
126066002126066103-000250     126066006003000571673BASKET WOVEN 29x23x6cm 0000001000+00004823+00000+0001T   00004823+0000001624          1400 AY3300               1AZ
126066003126066019-071603     126066006001023772039RIVER-STONES 1kg PEACH 0000001000+00002630+00000+0001T   00002630+0000001624          1400 AY3510               1AZ
126066004126066019-071601     126066006001023771995RIVER-STONES 1kg WHITE 0000001000+00002630+00000+0001T   00002630+0000001624          1400 AY3510               1AZ
126066005126066019-000047-A   126066006001023749048VASE GLASS 30CM CLEAR  0000001000+00008771+00000+0001T   00008771+0000001624          1400 AY3510               1AZ
126066006126066019-000076     126066006001023757159V/GLASS 25CM C/DESIGN  0000001000+00008771+00000+0001T   00008771+0000001624          1400 AY3510               1AZ
126066007126066112-116069     126066006009681820277TCS CARRIER BAG JUMBO  0000002000+00000048+00000+0001T   00000048+0000001624          1400 AY3090               1AZ
126067000126067               126067               170213OA     1400+00000+OA0000004385+0000004385+000000000+000000614+0000004990+0000000009+I20000000000+0000004990+Z
126067001126067368-000001     126067006003000097982Plush Bear 25cm        0000001000+00004385+00000+0001T   00004385+0000001642          1400 AY3745               1AZ
126068000126068               126068               170213OA     1400+00000+OA0000001490+0000001490+000000000+000000209+0000001690+0000000009+I20000000000+0000001690+Z
126068001126068077-000299     126068006003000395576G/BAG 32x25cm LRG LOVE 0000001000+00001490+00000+0001T   00001490+0000001652          1400 AY3112               1AZ
126069000126069               126069               170213OA     1400+00000+OA0000006138+0000006138+000000000+000000860+0000006990+0000000008+I20000000000+0000006990+Z
126069001126069368-000001     126069006003000097982Plush Bear 25cm        0000001000+00004385+00000+0001T   00004385+0000001716          1400 AY3745               1AZ
126069002126069012-000001     126069006003000331048MICRO PLATE-COVER 26X6 0000001000+00001753+00000+0001T   00002192+0008191716          1400 AY3300               1AZ
126070000126070               126070               170213OA     1400+00000+OA0000008800+0000008800+000000000+000001235+0000010035+0000000000+I40000010035+0000000000+Z
126070001126070006-000200-B   126070006003000096046PARTY GIRL DESIGN 12PCE0000001000+00002630+00000+0001T   00002630+0000001727          1400 AY3131               1AZ
126070002126070006-005902     126070006001023823175PARTY FAVOUR ASSTD 6PCE0000003000+00001753+00000+0001T   00001753+0000001727          1400 AY3131               1AZ
126070003126070039-000319-6   126070006003000442980B/CANDLES LRG NUMBER-6 0000001000+00000876+00000+0001T   00000876+0000001727          1400 AY3510               1AZ
126070004126070112-116038     126070006009681820246TCS CARRIER BAG MIDI   0000001000+00000035+00000+0001T   00000035+0000001727          1400 AY3090               1AZ
126071000126071               126071               170213OA     1400+00000+OA0000002630+0000002630+000000000+000000369+0000002990+0000000009+I20000000000+0000002990+Z
126071001126071077-000115-B   126071006003000181025GIFT-WRAP PPR 700MMX2M 0000001000+00002630+00000+0001T   00002630+0000001728          1400 AY3112               1AZ
A17021300                                          10274609OASLAVE 1                       AY33IC
A17021301                                          15215522OASLAVE 1                       AY33IC
M17021301                              IT          OALAST TILL SLIP NO WAS 126071                    WONDERBOOM (OA)                                 THANK YOU
M17021391                              CASH        OASLAVE 1                       Z-REPORT No.   593TOTAL (Sales - Refunds)           4402.00       CASH TO BE BANKED                 1452.10       DEBIT CARDS                          0.00       CREDIT CARDS                      2949.90       Z-READING                         4402.00       AIRTIME DEBIT CARD SALES             0.00       AIRTIME CARD SALES                   0.00       OVERS/UNDERS                         0.00       AIRTIME CASH SALES                   0.00       GIFT CARDS                           0.00       GIFT CARD CASH SALES                 0.00       T O T A L  CASH PAYOUTS              0.00                                                                                                                                                                                                                                                                                                                                                      Z
M17021392                              CASH        OAABSENT                                                                                                                                                                                          ANNUAL LEAVE                                                                                                                                                                                    DAY OFF                                                                                                                                                                                         COMMENTS                                                                                                                                                                                                                                                                                                                                                                                       Z
Y17021300                                          OA00000000386191+000035
ZOA17021320113 SLAVE 1      SALES DATA                     NEXT INVOICE NO.  126072 0593
X OA Slave 1 First invoice 126037 170213 Last invoice 126071 170213 Next invoice 126072 Total number of records 000000181 clbackup completed 20:11:29
