140606000140606               140606               170213OA     1400+00000+OA0000009643+0000009643+000000000+000001351+0000010990+0000000004+I20000000000+0000010990+Z
140606001140606077-000319     140606006001023609779GIFT-BAG 18X23CM BIRTHD0000001000+00001227+00000+0001T   00001227+0000000904          1400 PS8112               3AZ
140606002140606080-000127     140606006003000424351VALENTINES DAY 36x24CM 0000001000+00002192+00000+0001T   00002192+0000000904          1400 PS8112               3AZ
140606003140606006-000190     140606006003000685530BALLOONS LOVE 81x91cm  0000001000+00004385+00000+0001T   00004385+0000000904          1400 PS8131               3AZ
140606004140606006-001000     140606006003000093779HELIUM BALLOON FILL    0000003000+00000613+00000+0001T   00000613+0000000904          1400 PS8131               3AZ
140607000140607               140607               170213OA     1400+00000+OA0000026972+0000026972+000000000+000003784+0000030756+0000000000+I40000030756+0000000000+Z
140607001140607304-001011     140607006001023806727FLWR ROSE RED W/BEAR   0000044000+00000613+00000+0001T   00000788+0006470937          1400 PS8510               3AZ
140608000140608               140608               170213OA     1400+00000+OA0000017537+0000017537+000000000+000002458+0000019995+0000000000+I40000019995+0000000000+Z
140608001140608079-001003     140608006003000588640ART+CRAFT PAINT CANVAS 0000001000+00010525+00000+0001T   00010525+0000001000          1400 PS8130               3AZ
140608002140608031-000878-A   140608006001023798985P/FRAME 10x15cm PL-SLID0000001000+00000876+00000+0001T   00000876+0000001000          1400 PS8510               3AZ
140608003140608079-003015     140608006003000634071PAINT ACRYLIC 75ml GOLD0000001000+00002630+00000+0001T   00002630+0000001000          1400 PS8130               3AZ
140608004140608079-003007     140608006003000448487A/TUBE 75ML BROWN      0000001000+00001753+00000+0001T   00001753+0000001000          1400 PS8130               3AZ
140608005140608079-003000     140608006003000448838A/TUBE 75ML WHITE      0000001000+00001753+00000+0001T   00001753+0000001000          1400 PS8130               3AZ
140609000140609               140609               170213OA     1400+00000+OA0000009636+0000009636+000000000+000001353+0000010989+0000000000+I40000010989+0000000000+Z
140609001140609077-000011-L   140609006001023808585P/TISSUE BRIGHT 10SHEET0000001000+00000876+00000+0001T   00000876+0000001007          1400 PS8112               3AZ
140609002140609077-000011-F   140609006001023808431TISSUE-WRAP BLUE/LILAC 0000004000+00000876+00000+0001T   00000876+0000001007          1400 PS8112               3AZ
140609003140609077-000011-L   140609006001023808585P/TISSUE BRIGHT 10SHEET0000001000+00000876+00000+0001T   00000876+0000001007          1400 PS8112               3AZ
140609004140609077-000011-F   140609006001023808431TISSUE-WRAP BLUE/LILAC 0000001000+00000876+00000+0001T   00000876+0000001007          1400 PS8112               3AZ
140609005140609077-000011-R   140609006001023808462P/TISSUE DARK 10-SHEETS0000001000+00000876+00000+0001T   00000876+0000001007          1400 PS8112               3AZ
140609006140609077-000011-L   140609006001023808585P/TISSUE BRIGHT 10SHEET0000001000+00000876+00000+0001T   00000876+0000001007          1400 PS8112               3AZ
140609007140609077-000011-D   140609006001023808554TISSUE-WRAP WHITE 10PCE0000002000+00000876+00000+0001T   00000876+0000001007          1400 PS8112               3AZ
140610000140610               140610               170213OA     1400+00000+OA0000000700+0000000700+000000000+000000098+0000000790+0000000008+I20000000000+0000000790+Z
140610001140610566-000847     140610006001023761033STICKERS G/OUTLINE ASTD0000002000+00000350+00000+0001T   00000350+0000001009          1400 PS8130               3AZ
140611000140611               140611               170213OA     1400+00000+OA0000010570+0000010570+000000000+000001482+0000012052+0000000000+I40000012052+0000000000+Z
140611001140611112-116069     140611006009681820277TCS CARRIER BAG JUMBO  0000001000+00000048+00000+0001T   00000048+0000001023          1400 PS8090               3AZ
140611002140611018-050000     140611006003000412679MUG OCC LOVE TWIN BEAR 0000001000+00006139+00000+0001T   00006139+0000001023          1400 PS8515               3AZ
140611003140611077-000309     140611006001023608604GIFT-BAG 25X32CM GLOSS 0000001000+00001753+00000+0001T   00001753+0000001023          1400 PS8112               3AZ
140611004140611084-009410     140611006001023477651SCISSORS 21cm PL-HANDLE0000001000+00002630+00000+0001T   00002630+0000001023          1400 PS8200               3AZ
140612000140612               140612               170213OA     1400+00000+OA0000006047+0000006047+000000000+000000848+0000006890+0000000005+I20000000000+0000006890+Z
140612001140612140-001007     140612006001023617163FLY-STICK STAND 260x36 0000001000+00003069+00000+0001T   00003069+0000001026          1400 PS8830               3AZ
140612002140612466-000517     140612006001023752017BALL TENNIS RED CRICKET0000002000+00001139+00000+0001T   00001139+0000001026          1400 PS8785               3AZ
140612003140612564-000012     140612006001023130075BUBBLE BOTTLE MAGIC    0000001000+00000700+00000+0001T   00000700+0000001026          1400 PS8131               3AZ
140613000140613               140613               170213OA     1400+00000+OA0000023282+0000023282+000000000+000003263+0000026545+0000000000+I40000026545+0000000000+Z
140613001140613112-116069     140613006009681820277TCS CARRIER BAG JUMBO  0000001000+00000048+00000+0001T   00000048+0000001035          1400 PS8090               3AZ
140613002140613105-007052     140613006003000614639CEREAL STORER 3.6L     0000001000+00004385+00000+0001T   00004385+0000001035          1400 PS8210               3AZ
140613003140613105-007015     140613006001023168221CONTAINER PL ROUND     0000001000+00003507+00000+0001T   00003507+0000001035          1400 PS8210               3AZ
140613004140613220-009100     140613006001023706928ROSE PLACE-SETTING 3PCE0000001000+00002630+00000+0001T   00002630+0000001035          1400 PS8300               3AZ
140613005140613020-000620     140613006001023629722UTILITY-KNIFE 12cm-BLDE0000001000+00002630+00000+0001T   00002630+0000001035          1400 PS8300               3AZ
140613006140613002-000652     140613006001023553188M/SPOON WDN 3PC H/HOUSE0000001000+00003069+00000+0001T   00003069+0000001035          1400 PS8300               3AZ
140613007140613105-007015     140613006001023168221CONTAINER PL ROUND     0000001000+00003507+00000+0001T   00003507+0000001035          1400 PS8210               3AZ
140613008140613034-078841     140613006003000594023MELAMINE KIDS BOWL 17cm0000001000+00001753+00000+0001T   00001753+0000001035          1400 PS8215               3AZ
140613009140613105-007021     140613006003000684779CONTAINER SQUARE CLR   0000001000+00001753+00000+0001T   00001753+0000001035          1400 PS8210               3AZ
140614000140614               140614               170213OA     1400+00000+OA0000010132+0000010132+000000000+000001419+0000011551+0000000000+I40000011551+0000000000+Z
140614001140614112-116069     140614006009681820277TCS CARRIER BAG JUMBO  0000001000+00000048+00000+0001T   00000048+0000001054          1400 PS8090               3AZ
140614002140614077-000310     140614006001023608635GIFT-BAG 18X23CM GLOSS 0000001000+00001314+00000+0001T   00001314+0000001054          1400 PS8112               3AZ
140614003140614018-030000     140614006003000421060MUG OCCASIONS LOVE 2PCE0000002000+00004385+00000+0001T   00004385+0000001054          1400 PS8515               3AZ
140615000140615               140615               170213OA     1400+00000+OA0000003506+0000003506+000000000+000000491+0000003990+0000000007+I20000000000+0000003990+Z
140615001140615077-000407     140615006003000145096G/BAG PP 19X26X8CM     0000001000+00001314+00000+0001T   00001314+0000001147          1400 PS8112               3AZ
140615002140615080-000127     140615006003000424351VALENTINES DAY 36x24CM 0000001000+00002192+00000+0001T   00002192+0000001147          1400 PS8112               3AZ
140616000140616               140616               170213OA     1400+00000+OA0000003888+0000003888+000000000+000000547+0000004430+0000000005+I20000000000+0000004430+Z
140616001140616104-000065     140616006003000250066BASKET SQUARE MESH     0000001000+00001753+00000+0001T   00001753+0000001149          1400 PS8210               3AZ
140616002140616077-000311     140616006001023608666GIFT-BAG 11X14CM GLOSS 0000002000+00000613+00000+0001T   00000613+0000001149          1400 PS8112               3AZ
140616003140616080-000133     140616006003000535613CARD&ENV MINI ASTD DSGN0000002000+00000437+00000+0001T   00000437+0000001149          1400 PS8112               3AZ
140616004140616112-116038     140616006009681820246TCS CARRIER BAG MIDI   0000001000+00000035+00000+0001T   00000035+0000001149          1400 PS8090               3AZ
140617000140617               140617               170213OA     1400+00000+OA0000008461+0000008461+000000000+000001187+0000009648+0000000000+I40000009648+0000000000+Z
140617001140617105-001024-A   140617006009654960986CONTAINERS CLEAR 3PCE  0000001000+00001928+00000+0001T   00001928+0000001209          1400 PS8210               3AZ
140617002140617112-116069     140617006009681820277TCS CARRIER BAG JUMBO  0000001000+00000048+00000+0001T   00000048+0000001209          1400 PS8090               3AZ
140617003140617105-007410     140617006003000629671CONTAINER MINI 300ml   0000001000+00002630+00000+0001T   00003507+0008171209          1400 PS8210               3AZ
140617004140617077-000245     140617006001023759214GIFT-RIBBON METALLICx2 0000001000+00001227+00000+0001T   00001227+0000001209          1400 PS8112               3AZ
140617005140617077-000151     140617006008766114676GIFT-WRAP C/PHANE ASSTD0000003000+00000876+00000+0001T   00000876+0000001209          1400 PS8112               3AZ
140618000140618               140618               170213OA     1400+00000+OA0000008989+0000008989+000000000+000001260+0000010240+0000000009+I20000000000+0000010240+Z
140618001140618112-116069     140618006009681820277TCS CARRIER BAG JUMBO  0000001000+00000048+00000+0001T   00000048+0000001215          1400 PS8090               3AZ
140618002140618007-000406     140618006009635830659NATURE-STUDY-BOOK 72PG 0000001000+00000700+00000+0001T   00000700+0000001215          1400 PS8130               3AZ
140618003140618903-000090     140618006009826020821SWT GS CHOCO COINS 60g 0000001000+00002104+00000+0001T   00002104+0000001215          1400 PS8150               3AZ
140618004140618079-000344     140618006001023904010FELT-TIP PENS 12PCE    0000001000+00002630+00000+0001T   00002630+0000001215          1400 PS8130               3AZ
140618005140618562-058911     140618006001023705778EDU MAGNETIC UPPER CASE0000001000+00003507+00000+0001T   00003507+0000001215          1400 PS8755               3AZ
140619000140619               140619               170213OA     1400+00000+OA0000000525+0000000525+000000000+000000074+0000000590+0000000009+I20000000000+0000000590+Z
140619001140619903-000155     140619006009803374435SWT LOLLY I LUV U HEART0000001000+00000525+00000+0001T   00000525+0000001217          1400 PS8150               3AZ
140620000140620               140620               170213OA     1400+00000+OA0000001753+0000001753+000000000+000000246+0000001990+0000000009+I20000000000+0000001990+Z
140620001140620019-000130     140620006003000456130PLANTER T/PLATE W/HNDL 0000001000+00001753+00000+0001T   00001753+0000001227          1400 PS8510               3AZ
140621000140621               140621               170213OA     1400+00000+OA0000002800+0000002800+000000000+000000392+0000003190+0000000002+I20000000000+0000003190+Z
140621001140621018-000177     140621006001023797513MUG MINI LOVE ASSTD    0000004000+00000700+00000+0001T   00000700+0000001228          1400 PS8515               3AZ
140622000140622               140622               170213OA     1400+00000+OA0000002135+0000002135+000000000+000000301+0000002430+0000000006+I20000000000+0000002430+Z
140622001140622112-116038     140622006009681820246TCS CARRIER BAG MIDI   0000001000+00000035+00000+0001T   00000035+0000001229          1400 PS8090               3AZ
140622002140622903-000155     140622006009803374435SWT LOLLY I LUV U HEART0000004000+00000525+00000+0001T   00000525+0000001229          1400 PS8150               3AZ
140623000140623               140623               170213OA     1400+00000+OA0000003153+0000003153+000000000+000000442+0000003590+0000000005+I20000000000+0000003590+Z
140623001140623306-000006     140623006001023776440DENTAL FLOSS PICKS 50PC0000001000+00001753+00000+0001T   00001753+0000001230          1400 PS8200               3AZ
140623002140623018-000177     140623006001023797513MUG MINI LOVE ASSTD    0000002000+00000700+00000+0001T   00000700+0000001230          1400 PS8515               3AZ
140624000140624               140624               170213OA     1400+00000+OA0000005260+0000005260+000000000+000000738+0000005990+0000000008+I20000000000+0000005990+Z
140624001140624565-000041     140624006008766115642NOVELTY BALL ICON 5.5cm0000002000+00002630+00000+0001T   00002630+0000001240          1400 PS8745               3AZ
140625000140625               140625               170213OA     1400+00000+OA0000003507+0000003507+000000000+000000491+0000003990+0000000008+I20000000000+0000003990+Z
140625001140625562-000020     140625006003000600861EDU PLAY DOUGH 60g 4PC 0000001000+00003507+00000+0001T   00003507+0000001247          1400 PS8755               3AZ
140626000140626               140626               170213OA     1400+00000+OA0000008627+0000008627+000000000+000001208+0000009830+0000000005+I20000000000+0000009830+Z
140626001140626018-000127     140626006001023380289MUG OCC STRAIGHT LOVE  0000001000+00001578+00000+0001T   00001753+0006471253          1400 PS8515               3AZ
140626002140626567-011429     140626009780799352603BK READER BEGIN LEES   0000002000+00003507+00000+0001T   00004823+0008141253          1400 PS8757               3AZ
140626003140626112-116038     140626006009681820246TCS CARRIER BAG MIDI   0000001000+00000035+00000+0001T   00000035+0000001253          1400 PS8090               3AZ
140627000140627               140627               170213OA     1400+00000+OA0000001226+0000001226+000000000+000000172+0000001390+0000000008+I20000000000+0000001390+Z
140627001140627006-001000     140627006003000093779HELIUM BALLOON FILL    0000002000+00000613+00000+0001T   00000613+0000001301          1400 PS8131               3AZ
140628000140628               140628               170213OA     1400+00000+OA0000000876+0000000876+000000000+000000123+0000000990+0000000009+I20000000000+0000000990+Z
140628001140628077-000150-D   140628006003000054343GIFT-WRAP CELLPHANE CLR0000001000+00000876+00000+0001T   00000876+0000001302          1400 PS8112               3AZ
140629000140629               140629               170213OA     1400+00000+OA0000004429+0000004429+000000000+000000621+0000005050+0000000000+I20000000000+0000005050+Z
140629001140629112-116069     140629006009681820277TCS CARRIER BAG JUMBO  0000001000+00000048+00000+0001T   00000048+0000001407          1400 PS8090               3AZ
140629002140629077-000290     140629006001023902023GIFT BOX 26x32x13cm    0000001000+00001753+00000+0001T   00001753+0000001407          1400 PS8112               3AZ
140629003140629077-000470     140629006003000330171G-BAG DESGN SML 11X14CM0000002000+00001314+00000+0001T   00001314+0000001407          1400 PS8112               3AZ
140630000140630               140630               170213OA     1400+00000+OA0000007449+0000007449+000000000+000001044+0000008493+0000000000+I40000008493+0000000000+Z
140630001140630006-000812     140630006001023902832HAT CONE WITH TINSEL   0000001000+00000876+00000+0001T   00000876+0000001409          1400 PS8131               3AZ
140630002140630018-000136     140630006001023659026MUG OCC LOVE W/PLUSH   0000001000+00003507+00000+0001T   00003507+0000001409          1400 PS8515               3AZ
140630003140630039-000319-1   140630006003000442386B/CANDLES LRG NUMBER-1 0000001000+00000876+00000+0001T   00000876+0000001409          1400 PS8510               3AZ
140630004140630039-000319-9   140630006003000443345B/CANDLES LRG NUMBER-9 0000001000+00000876+00000+0001T   00000876+0000001409          1400 PS8510               3AZ
140630005140630077-000310     140630006001023608635GIFT-BAG 18X23CM GLOSS 0000001000+00001314+00000+0001T   00001314+0000001409          1400 PS8112               3AZ
140631000140631               140631               170213OA     1400+00000+OA0000010524+0000010524+000000000+000001474+0000011998+0000000000+I40000011998+0000000000+Z
140631001140631361-000113     140631006001023680204DOLL 30cm RAG          0000002000+00005262+00000+0001T   00005262+0000001411          1400 PS8725               3AZ
140632000140632               140632               170213OA     1400+00000+OA0000013639+0000013639+000000000+000001912+0000015550+0000000001+I20000000000+0000015550+Z
140632001140632112-116069     140632006009681820277TCS CARRIER BAG JUMBO  0000001000+00000048+00000+0001T   00000048+0000001417          1400 PS8090               3AZ
140632002140632174-000305     140632006003000105502TRAVEL NECK-PILLOW     0000001000+00007016+00000+0001T   00007016+0000001417          1400 PS8205               3AZ
140632003140632012-000001     140632006003000331048MICRO PLATE-COVER 26X6 0000002000+00001753+00000+0001T   00002192+0008191417          1400 PS8300               3AZ
140632004140632072-000012     140632006001023602510PET DOG/CAT BRUSH 23cm 0000001000+00003069+00000+0001T   00003069+0000001417          1400 PS8870               3AZ
140633000140633               140633               170213OA     1400+00000+OA0000003542+0000003542+000000000+000000496+0000004038+0000000000+I40000004038+0000000000+Z
140633001140633018-005009     140633006001023725608MUG W/PLUSH-BEAR LOVE  0000001000+00003507+00000+0001T   00003507+0000001421          1400 PS8515               3AZ
140633002140633112-116038     140633006009681820246TCS CARRIER BAG MIDI   0000001000+00000035+00000+0001T   00000035+0000001421          1400 PS8090               3AZ
140634000140634               140634               170213OA     1400+00000+OA0000000437+0000000437+000000000+000000062+0000000490+0000000009+I20000000000+0000000490+Z
140634001140634083-000049     140634004891035200024CIG-LIGHTER DISPOSABLE 0000001000+00000437+00000+0001T   00000437+0000001431          1400 PS8315               3AZ
140635000140635               140635               170213OA     1400+00000+OA0000001226+0000001226+000000000+000000172+0000001390+0000000008+I20000000000+0000001390+Z
140635001140635306-000021     140635006001023169433EARBUDS 100PCE IN BAG  0000002000+00000613+00000+0001T   00000613+0000001431          1400 PS8200               3AZ
140636000140636               140636               170213OA     1400+00000+OA0000010653+0000010653+000000000+000001495+0000012148+0000000000+I40000012148+0000000000+Z
140636001140636077-000380     140636006003000247585GIFT-BAG 33X45CM S/COL 0000001000+00002455+00000+0001T   00002455+0000001456          1400 PS8112               3AZ
140636002140636464-000107     140636000073854318089PLAY-CARDS 2nd (SINGLE)0000001000+00003069+00000+0001T   00003069+0000001456          1400 PS8785               3AZ
140636003140636079-000807     140636006003000670277ART+CRAFT WOODEN STICKS0000001000+00001490+00000+0001T   00001490+0000001456          1400 PS8130               3AZ
140636004140636071-000325     140636006009635844090RULER PLASTIC 30cm     0000001000+00000437+00000+0001T   00000437+0000001456          1400 PS8130               3AZ
140636005140636903-000494     140636006001704009911SWT GUMMY TEENY TEDDIES0000001000+00000876+00000+0001T   00000876+0000001456          1400 PS8150               3AZ
140636006140636903-000155     140636006009803374435SWT LOLLY I LUV U HEART0000001000+00000525+00000+0001T   00000525+0000001456          1400 PS8150               3AZ
140636007140636024-091100     140636006001023914224BAKING-CUPS PAPER 100PC0000001000+00001753+00000+0001T   00001753+0000001456          1400 PS8300               3AZ
140636008140636112-116069     140636006009681820277TCS CARRIER BAG JUMBO  0000001000+00000048+00000+0001T   00000048+0000001456          1400 PS8090               3AZ
140637000140637               140637               170213OA     1400+00000+OA0000003507+0000003507+000000000+000000491+0000003990+0000000008+I20000000000+0000003990+Z
140637001140637018-000136     140637006001023659026MUG OCC LOVE W/PLUSH   0000001000+00003507+00000+0001T   00003507+0000001500          1400 PS8515               3AZ
140638000140638               140638               170213OA     1400+00000+OA0000001490+0000001490+000000000+000000209+0000001690+0000000009+I20000000000+0000001690+Z
140638001140638077-000299     140638006003000395576G/BAG 32x25cm LRG LOVE 0000001000+00001490+00000+0001T   00001490+0000001537          1400 HT2112               3AZ
140639000140639               140639               170213OA     1400+00000+OA0000008505+0000008505+000000000+000001192+0000009697+0000000000+I40000009697+0000000000+Z
140639001140639046-000030     140639006001023878120BATTERY-TESTER (15V+9V)0000001000+00005262+00000+0001T   00005262+0000001542          1400 HT2312               3AZ
140639002140639565-000050     140639006001023906199SLIME BOMB DISPLAY BOX 0000001000+00001753+00000+0001T   00001753+0000001542          1400 HT2745               3AZ
140639003140639565-004101     140639006003000548033BALL BOUNCING EGG      0000001000+00001490+00000+0001T   00001490+0000001542          1400 HT2745               3AZ
140640000140640               140640               170213OA     1400+00000+OA0000007629+0000007629+000000000+000001069+0000008690+0000000008+I20000000000+0000008690+Z
140640001140640089-001021     140640006003000112319KEY CHAIN MINI BIBLE   0000001000+00001490+00000+0001T   00001490+0000001543          1400 HT2205               3AZ
140640002140640004-079102     140640006003000605033USB POWER BANK 1200MAH 0000001000+00006139+00000+0001T   00006139+0000001543          1400 HT2310               3AZ
140641000140641               140641               170213OA     1400+00000+OA0000005262+0000005262+000000000+000000737+0000005999+0000000000+I40000005999+0000000000+Z
140641001140641366-002195     140641006001023990549DRESS UP WINGS FEATHER 0000001000+00005262+00000+0001T   00005262+0000001546          1400 HT2131               3AZ
140642000140642               140642               170213OA     1400+00000+OA0000000437+0000000437+000000000+000000062+0000000490+0000000009+I20000000000+0000000490+Z
140642001140642080-000133-A   140642006003000647019MINI VALENTINES CARD   0000001000+00000437+00000+0001T   00000437+0000001547          1400 HT2112               3AZ
140643000140643               140643               170213OA     1400+00000+OA0000001753+0000001753+000000000+000000246+0000001990+0000000009+I20000000000+0000001990+Z
140643001140643079-013099     140643006003000081875ART+CRAFT EYES ASSTD   0000001000+00001753+00000+0001T   00001753+0000001549          1400 HT2130               3AZ
140644000140644               140644               170213OA     1400+00000+OA0000003528+0000003528+000000000+000000500+0000004028+0000000000+I40000004028+0000000000+Z
140644001140644006-000173-B   140644006003000636358BALLOONS HELIUM 1PC WHT0000005000+00000218+00000+0001T   00000218+0000001553          1400 HT2131               3AZ
140644002140644006-000172-H   140644006003000610211BALLOONS METALLIC RED  0000005000+00000218+00000+0001T   00000218+0000001553          1400 HT2131               3AZ
140644003140644080-000133-A   140644006003000647019MINI VALENTINES CARD   0000001000+00000437+00000+0001T   00000437+0000001553          1400 HT2112               3AZ
140644004140644071-001012     140644006001023474445MARKERS BLACK ROUND    0000001000+00000876+00000+0001T   00000876+0000001553          1400 HT2130               3AZ
140644005140644112-116038     140644006009681820246TCS CARRIER BAG MIDI   0000001000+00000035+00000+0001T   00000035+0000001553          1400 HT2090               3AZ
140645000140645               140645               170213OA     1400+00000+OA0000006139+0000006139+000000000+000000860+0000006990+0000000009+I20000000000+0000006990+Z
140645001140645082-096891     140645006001492968919SUNGLASS MENS MASK     0000001000+00006139+00000+0001T   00006139+0000001555          1400 HT2160               3AZ
140646000140646               140646               170213OA     1400+00000+OA0000002804+0000002804+000000000+000000394+0000003190+0000000008+I20000000000+0000003190+Z
140646001140646105-000750     140646006003000190270CONTAINERS 4xMINI 150ml0000002000+00001402+00000+0001T   00001402+0000001557          1400 HT2210               3AZ
140647000140647               140647               170213OA     1400+00000+OA0000003542+0000003542+000000000+000000496+0000004030+0000000008+I20000000000+0000004030+Z
140647001140647304-001168     140647006003000407781FLWR FLOATING LOTUS ASS0000001000+00003507+00000+0001T   00003507+0000001558          1400 HT2510               3AZ
140647002140647112-116038     140647006009681820246TCS CARRIER BAG MIDI   0000001000+00000035+00000+0001T   00000035+0000001558          1400 HT2090               3AZ
140648000140648               140648               170213OA     1400+00000+OA0000001752+0000001752+000000000+000000246+0000001990+0000000008+I20000000000+0000001990+Z
140648001140648039-000319-5   140648006003000442867B/CANDLES LRG NUMBER-5 0000001000+00000876+00000+0001T   00000876+0000001603          1400 HT2510               3AZ
140648002140648039-000319-1   140648006003000442386B/CANDLES LRG NUMBER-1 0000001000+00000876+00000+0001T   00000876+0000001603          1400 HT2510               3AZ
140649000140649               140649               170213OA     1400+00000+OA0000007924+0000007924+000000000+000001112+0000009030+0000000006+I20000000000+0000009030+Z
140649001140649112-116038     140649006009681820246TCS CARRIER BAG MIDI   0000001000+00000035+00000+0001T   00000035+0000001608          1400 HT2090               3AZ
140649002140649077-000358     140649006003000329977GIFT-BAG KIDS 25X32CM  0000003000+00001753+00000+0001T   00001753+0000001608          1400 HT2112               3AZ
140649003140649566-000004     140649006003000062270STICKER BOOK ABC/BORDER0000001000+00002630+00000+0001T   00002630+0000001608          1400 HT2130               3AZ
140650000140650               140650               170213OA     1400+00000+OA0000000876+0000000876+000000000+000000123+0000000990+0000000009+I20000000000+0000000990+Z
140650001140650077-000011-C   140650006001023808523TISSUE 10xSHTS RED     0000001000+00000876+00000+0001T   00000876+0000001615          1400 HT2112               3AZ
140651000140651               140651               170213OA     1400+00000+OA0000003069+0000003069+000000000+000000430+0000003499+0000000000+I40000003499+0000000000+Z
140651001140651024-000212     140651006001023858030COOKIE-CUTTERS PL SMALL0000001000+00003069+00000+0001T   00003069+0000001617          1400 HT2300               3AZ
140652000140652               140652               170213OA     1400+00000+OA0000017978+0000017978+000000000+000002518+0000020490+0000000006+I20000000000+0000020490+Z
140652001140652040-000103     140652000694202201862C/HOLDER-SET 5PC W/TRAY0000001000+00011402+00000+0001T   00013157+0008191623          1400 HT2510               3AZ
140652002140652007-000614     140652006001023768667DIARY W/LOCK+PEN LOVE  0000001000+00005262+00000+0001T   00005262+0000001623          1400 HT2130               3AZ
140652003140652903-000844     140652005010478432567SWT CANDY DL LUV HEARTS0000001000+00001314+00000+0001T   00001314+0000001623          1400 HT2150               3AZ
140653000140653               140653               170213OA     1400+00000+OA0000007014+0000007014+000000000+000000982+0000007990+0000000006+I20000000000+0000007990+Z
140653001140653072-000601     140653006003000603466PET DOG HARNESS 20-35cm0000002000+00003507+00000+0001T   00003507+0000001732          1400 HT2870               3AZ
140654000140654               140654               170213OA     1400+00000+OA0000007928+0000007928+000000000+000001111+0000009030+0000000009+I20000000000+0000009030+Z
140654001140654301-085007     140654006003000673698ORN OCC. LOVE S/PLAQUE 0000001000+00007893+00000+0001T   00007893+0000001735          1400 HT2505               3AZ
140654002140654112-116038     140654006009681820246TCS CARRIER BAG MIDI   0000001000+00000035+00000+0001T   00000035+0000001735          1400 HT2090               3AZ
140655000140655               140655               170213OA     1400+00000+OA0000014910+0000014910+000000000+000002088+0000016998+0000000000+I40000016998+0000000000+Z
140655001140655024-000170     140655006003000120642SILICONE CAKE-PAN RND  0000002000+00007455+00000+0001T   00007455+0000001741          1400 HT2300               3AZ
M17021301                              IT          OALAST TILL SLIP NO WAS 140655                    WONDERBOOM (OA)                                 THANK YOU
M17021391                              CASH        OASLAVE 3                       Z-REPORT No.   632TOTAL (Sales - Refunds)           3728.04       CASH TO BE BANKED                 1743.70       DEBIT CARDS                          0.00       CREDIT CARDS                      1984.34       Z-READING                         3728.04       AIRTIME DEBIT CARD SALES             0.00       AIRTIME CARD SALES                   0.00       OVERS/UNDERS                         0.00       AIRTIME CASH SALES                   0.00       GIFT CARDS                           0.00       GIFT CARD CASH SALES                 0.00       T O T A L  CASH PAYOUTS              0.00                                                                                                                                                                                                                                                                                                                                                      Z
M17021392                              CASH        OAABSENT                                                                                                                                                                                          ANNUAL LEAVE                                                                                                                                                                                    DAY OFF                                                                                                                                                                                         COMMENTS                                                                                                                                                                                                                                                                                                                                                                                       Z
Y17021300                                          OA00000000327171+000050
ZOA17021320113 SLAVE 3      SALES DATA                     NEXT INVOICE NO.  140656 0632
X OA Slave 3 First invoice 140606 170213 Last invoice 140655 170213 Next invoice 140656 Total number of records 000000180 clbackup completed 20:11:32
