118977000118977               118977               170213OB     1400+00000+OB0000008681+0000008681+000000000+000001216+0000009897+0000000000+I40000009897+0000000000+Z
118977001118977033-000013     118977006001023567215PILL-REMINDER PL       0000001000+00001227+00000+0001T   00001227+0000000925          1400 J74200               1AZ
118977002118977046-000012-A   118977006003000208296BATTERIES H/POWER SZ:AA0000001000+00002192+00000+0001T   00002192+0000000925          1400 J74312               1AZ
118977003118977104-000190     118977006004779016334DISH DRAINER PL ASSTD  0000001000+00005262+00000+0001T   00005262+0000000925          1400 J74210               1AZ
118978000118978               118978               170213OB     1400+00000+OB0000000876+0000000876+000000000+000000123+0000000990+0000000009+I20000000000+0000000990+Z
118978001118978565-000013     118978006003000672233NOVELTY TWISTY 21cm    0000001000+00000876+00000+0001T   00000876+0000000926          1400 J74745               1AZ
118979000118979               118979               170213OB     1400+00000+OB0000007573+0000007573+000000000+000001062+0000008630+0000000005+I20000000000+0000008630+Z
118979001118979150-000772     118979006005387000227UTILITY-BOX SMALL      0000002000+00000657+00000+0001T   00000657+0000000940          1400 J74810               1AZ
118979002118979150-000774     118979006005387000234UTILITY-BOX MEDIUM     0000001000+00000964+00000+0001T   00000964+0000000940          1400 J74810               1AZ
118979003118979076-001001     118979006003000266715CORD STRETCH 2-CL 120cm0000002000+00002630+00000+0001T   00002630+0000000940          1400 J74810               1AZ
118979004118979112-116038     118979006009681820246TCS CARRIER BAG MIDI   0000001000+00000035+00000+0001T   00000035+0000000940          1400 J74090               1AZ
118980000118980               118980               170213OB     1400+00000+OB0000007925+0000007925+000000000+000001112+0000009030+0000000007+I20000000000+0000009030+Z
118980001118980112-116038     118980006009681820246TCS CARRIER BAG MIDI   0000001000+00000035+00000+0001T   00000035+0000000955          1400 J74090               1AZ
118980002118980079-000277     118980006003000160600PAINT-BRUSHES 15PCE    0000001000+00002630+00000+0001T   00002630+0000000955          1400 J74130               1AZ
118980003118980019-071600     118980006001023771971RIVER-STONES 1kg MIXED 0000002000+00002630+00000+0001T   00002630+0000000955          1400 J74510               1AZ
118981000118981               118981               170213OB     1400+00000+OB0000007016+0000007016+000000000+000000983+0000007990+0000000009+I20000000000+0000007990+Z
118981001118981003-062568     118981006001023722348ORN ANIMAL ASSTD 15CM  0000001000+00007016+00000+0001T   00007016+0000001009          1400 J74505               1AZ
118982000118982               118982               170213OB     1400+00000+OB0000002752+0000002752+000000000+000000386+0000003138+0000000000+I40000003138+0000000000+Z
118982001118982903-004960     118982008410525221842SWT GUMMY STR/BERRY 50G0000001000+00000964+00000+0001T   00000964+0000001011          1400 J74150               1AZ
118982002118982903-000215     118982006002099001214SWT GS MALLOW TWIST PAC0000001000+00001753+00000+0001T   00001753+0000001011          1400 J74150               1AZ
118982003118982112-116038     118982006009681820246TCS CARRIER BAG MIDI   0000001000+00000035+00000+0001T   00000035+0000001011          1400 J74090               1AZ
118983000118983               118983               170213OB     1400+00000+OB0000007485+0000007485+000000000+000001050+0000008530+0000000005+I20000000000+0000008530+Z
118983001118983018-000022     118983006001023648082MUG N/BONE 320ML BARREL0000001000+00002630+00000+0001T   00002630+0000001012          1400 J74515               1AZ
118983002118983080-000133     118983006003000535613CARD&ENV MINI ASTD DSGN0000001000+00000437+00000+0001T   00000437+0000001012          1400 J74112               1AZ
118983003118983089-000018     118983006003000176724KEY CHAIN INSPIRATION  0000001000+00003507+00000+0001T   00003507+0000001012          1400 J74205               1AZ
118983004118983077-000011-R   118983006001023808462P/TISSUE DARK 10-SHEETS0000001000+00000876+00000+0001T   00000876+0000001012          1400 J74112               1AZ
118983005118983112-116038     118983006009681820246TCS CARRIER BAG MIDI   0000001000+00000035+00000+0001T   00000035+0000001012          1400 J74090               1AZ
118984000118984               118984               170213OB     1400+00000+OB0000015551+0000015551+000000000+000002179+0000017730+0000000000+I40000017730+0000000000+Z
118984001118984464-000025     118984000047754689242LICENSED BXD CHKRS TTT 0000001000+00001314+00000+0001T   00001753+0008151046          1400 J74785               1AZ
118984002118984263-000130     118984006003000305742MOTORBIKE B/BACK 11CM  0000001000+00002630+00000+0001T   00002630+0000001046          1400 J74710               1AZ
118984003118984464-000238     118984006001023644039GAME SNAKES+LADDERS    0000001000+00001314+00000+0001T   00001314+0000001046          1400 J74785               1AZ
118984004118984464-000253     118984006001023341402GAME LUDO       POLYBAG0000001000+00001314+00000+0001T   00001314+0000001046          1400 J74785               1AZ
118984005118984112-116038     118984006009681820246TCS CARRIER BAG MIDI   0000001000+00000035+00000+0001T   00000035+0000001046          1400 J74090               1AZ
118984006118984306-000021     118984006001023169433EARBUDS 100PCE IN BAG  0000001000+00000613+00000+0001T   00000613+0000001046          1400 J74200               1AZ
118984007118984031-000857     118984006001023852144P/FRAME PL BROWN 13X18 0000001000+00003946+00000+0001T   00003946+0000001046          1400 J74510               1AZ
118984008118984261-008345     118984006003000599219GUN HAND LONG BARREL   0000001000+00004385+00000+0001T   00004385+0000001046          1400 J74710               1AZ
118985000118985               118985               170213OB     1400+00000+OB0000000000+0000000000+000000000+000000000+0000000000+0000000000+I20000000000+0000000000+Z
118985001118985018-000136     118985006001023659026MUG OCC LOVE W/PLUSH   0000001000-00003507+00000+0001T   00003507+0000001100          1400 J745151IC            1 Z
118985002118985018-000136     118985006001023659026MUG OCC LOVE W/PLUSH   0000001000+00003507+00000+0001T   00003507+0000001100          1400 J745151IC            1 Z
118986000118986               118986               170213OB     1400+00000+OB0000001753+0000001753+000000000+000000246+0000001990+0000000009+I20000000000+0000001990+Z
118986001118986463-000122     118986006001023188069SWIM-GOGGLES           0000001000+00001753+00000+0001T   00001753+0000001101          1400 J74785               1AZ
118987000118987               118987               170213OB     1400+00000+OB0000003509+0000003509+000000000+000000491+0000004000+0000000000+I20000000000+0000004000+Z
118987001118987463-000122     118987006001023188069SWIM-GOGGLES           0000001000-00001753+00000+0001T   00001753+0000001104          1400 J747851IC            1 Z
118987002118987492-055684     118987000078257556847SWIM-GOGGLE RACE-PRO   0000001000+00005262+00000+0001T   00005262+0000001104          1400 J74787               1AZ
118988000118988               118988               170213OB     1400+00000+OB0000005608+0000005608+000000000+000000788+0000006390+0000000006+I20000000000+0000006390+Z
118988001118988039-000026     118988006001023551610C/TAPERED 25CM M/RED   0000002000+00001051+00000+0001T   00001051+0000001117          1400 J74510               1AZ
118988002118988040-000923     118988006001023587831CANDLE-HOLDER GLS 13.5 0000002000+00001753+00000+0001T   00001753+0000001117          1400 J74510               1AZ
118989000118989               118989               170213OB     1400+00000+OB0000008548+0000008548+000000000+000001198+0000009746+0000000000+I40000009746+0000000000+Z
118989001118989077-000926     118989006003000414178G/WRAP 700mmx2m LOVE   0000001000+00002192+00000+0001T   00002192+0000001144          1400 JY1112               1BZ
118989002118989903-000183     118989006003000451043SWT LB HEART LOLLY     0000001000+00000393+00000+0001T   00000393+0000001144          1400 JY1150               1BZ
118989003118989368-000049     118989006003000536955PLUSH BEAR 15cm LOVE   0000001000+00004385+00000+0001T   00004385+0000001144          1400 JY1745               1BZ
118989004118989077-000303     118989006001023593757GIFT-BAG PAPER MED     0000001000+00001578+00000+0001T   00001578+0000001144          1400 JY1112               1BZ
118990000118990               118990               170213OB     1400+00000+OB0000008064+0000008064+000000000+000001131+0000009190+0000000005+I20000000000+0000009190+Z
118990001118990466-072727     118990006003000027712YO-YO NOVELTY ASSTD    0000001000+00001753+00000+0001T   00001753+0000001145          1400 JY1785               1BZ
118990002118990072-000228     118990006003000235940DOG-COL REFLCTV 25-40cm0000001000+00001753+00000+0001T   00001753+0000001145          1400 JY1870               1BZ
118990003118990566-000028     118990006003000265541STICKER BK ASSTD 250PCE0000001000+00001753+00000+0001T   00001753+0000001145          1400 JY1130               1BZ
118990004118990083-000055     118990006003000003853LIGHTER ELCTRNC REFILBL0000001000+00000613+00000+0001T   00000613+0000001145          1400 JY1315               1BZ
118990005118990032-000336     118990006001023369109MIRROR HANGING MAGNETIC0000001000+00002192+00000+0001T   00002192+0000001145          1400 JY1510               1BZ
118991000118991               118991               170213OB     1400+00000+OB0000015347+0000015347+000000000+000002150+0000017490+0000000007+I20000000000+0000017490+Z
118991001118991368-000637     118991006001023874092PLUSH BEAR SLEEPING LOV0000001000+00011402+00000+0001T   00012279+0006471207          1400 JY1745               1BZ
118991002118991080-000127     118991006003000424351VALENTINES DAY 36x24CM 0000001000+00002192+00000+0001T   00002192+0000001207          1400 JY1112               1BZ
118991003118991077-000299-A   118991006003000670888GIFT-BAG PAPER JMB LOVE0000001000+00001753+00000+0001T   00001753+0000001207          1400 JY1112               1BZ
118992000118992               118992               170213OB     1400+00000+OB0000006139+0000006139+000000000+000000860+0000006990+0000000009+I20000000000+0000006990+Z
118992001118992266-001002     118992006001023914163PLAYSET SWORD & WEAPON 0000001000+00006139+00000+0001T   00006139+0000001208          1400 JY1710               1BZ
118993000118993               118993               170213OB     1400+00000+OB0000009240+0000009240+000000000+000001295+0000010530+0000000005+I20000000000+0000010530+Z
118993001118993083-000058     118993006003000400331LIGHTER JET CIGAR REFIL0000001000+00002630+00000+0001T   00002630+0000001218          1400 JY1315               1BZ
118993002118993903-000807     118993006009680772317SWT CHEWEEZ APPLE 36g  0000001000+00000700+00000+0001T   00000700+0000001218          1400 JY1150               1BZ
118993003118993150-003733     118993006003000561735SINK STRAINER S/S 1PCE 0000001000+00001490+00000+0001T   00001490+0000001218          1400 JY1810               1BZ
118993004118993084-000309     118993006001023905277MANICURE-SET 8PCE G/BOX0000001000+00004385+00000+0001T   00004385+0000001218          1400 JY1200               1BZ
118993005118993112-116038     118993006009681820246TCS CARRIER BAG MIDI   0000001000+00000035+00000+0001T   00000035+0000001218          1400 JY1090               1BZ
118994000118994               118994               170213OB     1400+00000+OB0000005262+0000005262+000000000+000000737+0000005990+0000000009+I20000000000+0000005990+Z
118994001118994071-003201     118994006003000274673STATION SET PEN/PENCIL 0000001000+00005262+00000+0001T   00005262+0000001219          1400 JY1130               1BZ
118995000118995               118995               170213OB     1400+00000+OB0000013061+0000013061+000000000+000001833+0000014894+0000000000+I40000014894+0000000000+Z
118995001118995112-116069     118995006009681820277TCS CARRIER BAG JUMBO  0000001000+00000048+00000+0001T   00000048+0000001221          1400 JY1090               1BZ
118995002118995200-000011     118995006003000613489DISPOSABLE BAG ZIPER   0000001000+00003507+00000+0001T   00003507+0000001221          1400 JY1214               1BZ
118995003118995200-000012     118995006003000399536BAG 50PCE 165x146mm    0000001000+00003507+00000+0001T   00003507+0000001221          1400 JY1214               1BZ
118995004118995903-000183     118995006003000451043SWT LB HEART LOLLY     0000003000+00000393+00000+0001T   00000393+0000001221          1400 JY1150               1BZ
118995005118995047-005127     118995006003000093861CABLETIES 100/150/200mm0000001000+00002192+00000+0001T   00002192+0000001221          1400 JY1880               1BZ
118995006118995038-047246     118995006001023873750PLACEMAT 44x28cm KIDS  0000003000+00000876+00000+0001T   00000876+0000001221          1400 JY1300               1BZ
118996000118996               118996               170213OB     1400+00000+OB0000000437+0000000437+000000000+000000062+0000000490+0000000009+I20000000000+0000000490+Z
118996001118996080-000133     118996006003000535613CARD&ENV MINI ASTD DSGN0000001000+00000437+00000+0001T   00000437+0000001222          1400 JY1112               1BZ
118997000118997               118997               170213OB     1400+00000+OB0000009804+0000009804+000000000+000001377+0000011181+0000000000+I40000011181+0000000000+Z
118997001118997112-116038     118997006009681820246TCS CARRIER BAG MIDI   0000001000+00000035+00000+0001T   00000035+0000001241          1400 JY1090               1BZ
118997002118997016-006710     118997006003000674725S/JAR GLS RHEA 425ml   0000001000+00002630+00000+0001T   00002630+0000001241          1400 JY1300               1BZ
118997003118997031-000878-A   118997006001023798985P/FRAME 10x15cm PL-SLID0000001000+00000876+00000+0001T   00000876+0000001241          1400 JY1510               1BZ
118997004118997903-000843     118997008693029031067SWT GUMMY JELAXY 80G   0000001000+00000964+00000+0001T   00000964+0000001241          1400 JY1150               1BZ
118997005118997903-000220     118997006001704007368SWT JELLY BEANS 60G    0000001000+00000876+00000+0001T   00000876+0000001241          1400 JY1150               1BZ
118997006118997903-000521     118997006001704009652SWT GUMMY SOFT GUMS    0000001000+00000876+00000+0001T   00000876+0000001241          1400 JY1150               1BZ
118997007118997903-000087     118997006001704000161SWT SPECKLED-EGGS 50G  0000001000+00001139+00000+0001T   00001139+0000001241          1400 JY1150               1BZ
118997008118997903-000499     118997006001704012492SWT CHOC MALLOWS 50g   0000001000+00001227+00000+0001T   00001227+0000001241          1400 JY1150               1BZ
118997009118997903-000200     118997006009826020234SWT CHOC RP CHOCO 23G  0000001000+00000788+00000+0001T   00000788+0000001241          1400 JY1150               1BZ
118997010118997903-000183     118997006003000451043SWT LB HEART LOLLY     0000001000+00000393+00000+0001T   00000393+0000001241          1400 JY1150               1BZ
118998000118998               118998               170213OB     1400+00000+OB0000004385+0000004385+000000000+000000614+0000004990+0000000009+I20000000000+0000004990+Z
118998001118998082-000105     118998006003000360369READING GLS STRNGHT:1.50000001000+00004385+00000+0001T   00004385+0000001241          1400 JY1160               1BZ
118999000118999               118999               170213OB     1400+00000+OB0000013979+0000013979+000000000+000001958+0000015930+0000000007+I20000000000+0000015930+Z
118999001118999030-000031-A   118999006003000457588PLAQUE W/WORDS ASSTD   0000001000+00004385+00000+0001T   00004823+0006471242          1400 JY1505               1BZ
118999002118999112-116038     118999006009681820246TCS CARRIER BAG MIDI   0000001000+00000035+00000+0001T   00000035+0000001242          1400 JY1090               1BZ
118999003118999001-091415     118999006003000329113W/GLS OCC. LOVE 2PC 2800000001000+00008771+00000+0001T   00009648+0006471242          1400 JY1515               1BZ
118999004118999903-000200     118999006009826020234SWT CHOC RP CHOCO 23G  0000001000+00000788+00000+0001T   00000788+0000001242          1400 JY1150               1BZ
119000000119000               119000               170213OB     1400+00000+OB0000017316+0000017316+000000000+000002430+0000019746+0000000000+I40000019746+0000000000+Z
119000001119000112-116069     119000006009681820277TCS CARRIER BAG JUMBO  0000001000+00000048+00000+0001T   00000048+0000001245          1400 JY1090               1BZ
119000002119000028-000026     119000006001023810847COOLER-BAG+POCKET NYLON0000001000+00009648+00000+0001T   00009648+0000001245          1400 JY1305               1BZ
119000003119000903-000200     119000006009826020234SWT CHOC RP CHOCO 23G  0000002000+00000788+00000+0001T   00000788+0000001245          1400 JY1150               1BZ
119000004119000200-003026     119000006003000276448REFUSE BAGS 10PCE GREEN0000001000+00001753+00000+0001T   00001753+0000001245          1400 JY1214               1BZ
119000005119000903-000809     119000006009680772232SWT CANDY FROOTEEZ 50g 0000002000+00000876+00000+0001T   00000876+0000001245          1400 JY1150               1BZ
119000006119000903-000183     119000006003000451043SWT LB HEART LOLLY     0000002000+00000393+00000+0001T   00000393+0000001245          1400 JY1150               1BZ
119000007119000077-000455     119000006003000285389G/BAG METALLIC LRG SOL 0000001000+00001753+00000+0001T   00001753+0000001245          1400 JY1112               1BZ
119001000119001               119001               170213OB     1400+00000+OB0000008850+0000008850+000000000+000001243+0000010090+0000000003+I20000000000+0000010090+Z
119001001119001077-000289     119001006001023901996GIFT BOX 20x25x11cm    0000001000+00001753+00000+0001T   00001753+0000001248          1400 JY1112               1BZ
119001002119001903-000200     119001006009826020234SWT CHOC RP CHOCO 23G  0000002000+00000788+00000+0001T   00000788+0000001248          1400 JY1150               1BZ
119001003119001903-000710     119001006002099007056SWT REFRESHERS MINT    0000001000+00001139+00000+0001T   00001139+0000001248          1400 JY1150               1BZ
119001004119001903-000482     119001006001704001397SWT SOFT-MINTS 60G     0000001000+00000876+00000+0001T   00000876+0000001248          1400 JY1150               1BZ
119001005119001903-000521     119001006001704009652SWT GUMMY SOFT GUMS    0000001000+00000876+00000+0001T   00000876+0000001248          1400 JY1150               1BZ
119001006119001018-000129     119001006001023403353MUG OCC. LOVE V-SHAPE  0000001000+00002630+00000+0001T   00002630+0000001248          1400 JY1515               1BZ
119002000119002               119002               170213OB     1400+00000+OB0000005948+0000005948+000000000+000000836+0000006780+0000000004+I20000000000+0000006780+Z
119002001119002071-001012     119002006001023474445MARKERS BLACK ROUND    0000001000+00000876+00000+0001T   00000876+0000001253          1400 JY1130               1BZ
119002002119002071-001019     119002006001023474513MARKER BLACK NAME-PEN  0000001000+00000876+00000+0001T   00000876+0000001253          1400 JY1130               1BZ
119002003119002566-000865     119002006001023788412STICKER ASSTD          0000001000+00001753+00000+0001T   00001753+0000001253          1400 JY1130               1BZ
119002004119002079-009702-D   119002008427973059354PAPER SIRIO A2 RED COL 0000001000+00001051+00000+0001T   00001051+0000001253          1400 JY1130               1BZ
119002005119002079-009700-B   119002006003000547661PAPER SIRIO A4 WHITE   0000001000+00000306+00000+0001T   00000306+0000001253          1400 JY1130               1BZ
119002006119002112-116038     119002006009681820246TCS CARRIER BAG MIDI   0000001000+00000035+00000+0001T   00000035+0000001253          1400 JY1090               1BZ
119002007119002079-009702-D   119002008427973059354PAPER SIRIO A2 RED COL 0000001000+00001051+00000+0001T   00001051+0000001253          1400 JY1130               1BZ
119003000119003               119003               170213OB     1400+00000+OB0000004944+0000004944+000000000+000000693+0000005630+0000000007+I20000000000+0000005630+Z
119003001119003027-009030     119003006002814400100DUSTPAN PL             0000001000+00001402+00000+0001T   00001402+0000001254          1400 JY1212               1BZ
119003002119003106-007130     119003006003000011025JUG PL 2.4L            0000001000+00003507+00000+0001T   00003507+0000001254          1400 JY1210               1BZ
119003003119003112-116038     119003006009681820246TCS CARRIER BAG MIDI   0000001000+00000035+00000+0001T   00000035+0000001254          1400 JY1090               1BZ
119004000119004               119004               170213OB     1400+00000+OB0000023487+0000023487+000000000+000003291+0000026778+0000000000+I40000026778+0000000000+Z
119004001119004031-000868-C   119004006001023798596P/FRAME PL BLCK 20X25CM0000001000+00003507+00000+0001T   00003507+0000001257          1400 JY1510               1BZ
119004002119004006-000166-D   119004006003000516490BALLOONS LRG 6PC RED   0000002000+00001314+00000+0001T   00001314+0000001257          1400 JY1131               1BZ
119004003119004006-000190     119004006003000685530BALLOONS LOVE 81x91cm  0000002000+00004385+00000+0001T   00004385+0000001257          1400 JY1131               1BZ
119004004119004006-001000     119004006003000093779HELIUM BALLOON FILL    0000014000+00000613+00000+0001T   00000613+0000001257          1400 JY1131               1BZ
119005000119005               119005               170213OB     1400+00000+OB0000011398-0000011398-000000000+000001596-0000013000-0000000006+I20000000000+0000013000-Z
119005001119005006-000166-D   119005006003000516490BALLOONS LRG 6PC RED   0000002000-00001314+00000+0001T   00001314+0000001300          1400 J741311IC            1 Z
119005002119005006-000190     119005006003000685530BALLOONS LOVE 81x91cm  0000002000-00004385+00000+0001T   00004385+0000001300          1400 J741311IC            1 Z
119006000119006               119006               170213OB     1400+00000+OB0000004505+0000004505+000000000+000000631+0000005130+0000000006+I20000000000+0000005130+Z
119006001119006563-000318-L   119006006003000407088SERVIETTES 33cm RED    0000001000+00002192+00000+0001T   00002192+0000001353          1400 J74214               1AZ
119006002119006077-000303     119006006001023593757GIFT-BAG PAPER MED     0000001000+00001578+00000+0001T   00001578+0000001353          1400 J74112               1AZ
119006003119006018-000177     119006006001023797513MUG MINI LOVE ASSTD    0000001000+00000700+00000+0001T   00000700+0000001353          1400 J74515               1AZ
119006004119006112-116038     119006006009681820246TCS CARRIER BAG MIDI   0000001000+00000035+00000+0001T   00000035+0000001353          1400 J74090               1AZ
119007000119007               119007               170213OB     1400+00000+OB0000003330+0000003330+000000000+000000467+0000003790+0000000007+I20000000000+0000003790+Z
119007001119007033-001364     119007006001023802088HAIR-CLIPS 65mm 24PCE  0000001000+00000876+00000+0001T   00000876+0000001354          1400 J74200               1AZ
119007002119007033-001401     119007006009654960481HAIR-CURLERS 8PCE MED  0000001000+00001227+00000+0001T   00001227+0000001354          1400 J74200               1AZ
119007003119007033-001402     119007006009654960498HAIR-CURLERS 6PCE LRG  0000001000+00001227+00000+0001T   00001227+0000001354          1400 J74200               1AZ
119008000119008               119008               170213OB     1400+00000+OB0000008771+0000008771+000000000+000001228+0000009999+0000000000+I40000009999+0000000000+Z
119008001119008368-000012     119008006003000610464PLUSH BEAR 30cm SITTING0000001000+00008771+00000+0001T   00008771+0000001404          1400 J74745               1AZ
119009000119009               119009               170213OB     1400+00000+OB0000000035+0000000035+000000000+000000005+0000000040+0000000000+I20000000000+0000000040+Z
119009001119009112-116038     119009006009681820246TCS CARRIER BAG MIDI   0000001000+00000035+00000+0001T   00000035+0000001404          1400 J74090               1AZ
119010000119010               119010               170213OB     1400+00000+OB0000000919+0000000919+000000000+000000129+0000001040+0000000008+I20000000000+0000001040+Z
119010001119010306-000020     119010006001023743145POCKET-TISSUES 10PCE   0000001000+00000306+00000+0001T   00000306+0000001405          1400 J74200               1AZ
119010002119010083-000055     119010006003000003853LIGHTER ELCTRNC REFILBL0000001000+00000613+00000+0001T   00000613+0000001405          1400 J74315               1AZ
119011000119011               119011               170213OB     1400+00000+OB0000001578+0000001578+000000000+000000221+0000001790+0000000009+I20000000000+0000001790+Z
119011001119011077-000315     119011006003000181186GIFT-BAG 20x28cm MATT  0000001000+00001578+00000+0001T   00001578+0000001414          1400 JY1112               1BZ
119012000119012               119012               170213OB     1400+00000+OB0000023377+0000023377+000000000+000003274+0000026650+0000000001+I20000000000+0000026650+Z
119012001119012263-000623     119012006001023905697VEHICLE HELICOPTER 30cm0000001000+00005262+00000+0001T   00005262+0000001419          1400 JY1710               1BZ
119012002119012565-000255     119012006003000585168NOVELTY GLOW SLIME     0000002000+00002455+00000+0001T   00002455+0000001419          1400 JY1745               1BZ
119012003119012560-000776     119012006001023472939ANIMALS FARM/WILD 6PCE 0000001000+00013157+00000+0001T   00013157+0000001419          1400 JY1745               1BZ
119012004119012112-116069     119012006009681820277TCS CARRIER BAG JUMBO  0000001000+00000048+00000+0001T   00000048+0000001419          1400 JY1090               1BZ
119013000119013               119013               170213OB     1400+00000+OB0000021094+0000021094+000000000+000002956+0000024050+0000000000+I40000024050+0000000000+Z
119013001119013112-116069     119013006009681820277TCS CARRIER BAG JUMBO  0000001000+00000048+00000+0001T   00000048+0000001422          1400 JY1090               1BZ
119013002119013080-000113     119013006003000237449CARD&ENVLPE - LOVE     0000001000+00001753+00000+0001T   00001753+0000001422          1400 JY1112               1BZ
119013003119013077-000467     119013006003000329991GIFT-BAG STAMP 18X23CM 0000001000+00001753+00000+0001T   00001753+0000001422          1400 JY1112               1BZ
119013004119013030-004015     119013006003000467624PLAQUE WDN SIGN 30X20CM0000001000+00009648+00000+0001T   00009648+0000001422          1400 JY1505               1BZ
119013005119013018-000129     119013006001023403353MUG OCC. LOVE V-SHAPE  0000001000+00002630+00000+0001T   00002630+0000001422          1400 JY1515               1BZ
119013006119013018-019000     119013006003000557288MUG OCC. LOVE JUMBO    0000001000+00005262+00000+0001T   00005262+0000001422          1400 JY1515               1BZ
119014000119014               119014               170213OB     1400+00000+OB0000003945+0000003945+000000000+000000553+0000004490+0000000008+I20000000000+0000004490+Z
119014001119014080-000127     119014006003000424351VALENTINES DAY 36x24CM 0000001000+00002192+00000+0001T   00002192+0000001423          1400 JY1112               1BZ
119014002119014077-000299-A   119014006003000670888GIFT-BAG PAPER JMB LOVE0000001000+00001753+00000+0001T   00001753+0000001423          1400 JY1112               1BZ
119015000119015               119015               170213OB     1400+00000+OB0000023144+0000023144+000000000+000003247+0000026391+0000000000+I40000026391+0000000000+Z
119015001119015077-000289     119015006001023901996GIFT BOX 20x25x11cm    0000001000+00001753+00000+0001T   00001753+0000001441          1400 JY1112               1BZ
119015002119015016-006514     119015006003000295432S/JAR EMBOSSED 500ML   0000001000+00001753+00000+0001T   00001753+0000001441          1400 JY1300               1BZ
119015003119015018-005009     119015006001023725608MUG W/PLUSH-BEAR LOVE  0000001000+00003507+00000+0001T   00003507+0000001441          1400 JY1515               1BZ
119015004119015560-000243     119015006001023622655ANIMALS OCEAN PLAY SET 0000001000+00006139+00000+0001T   00006139+0000001441          1400 JY1745               1BZ
119015005119015077-000407     119015006003000145096G/BAG PP 19X26X8CM     0000001000+00001314+00000+0001T   00001314+0000001441          1400 JY1112               1BZ
119015006119015566-001501     119015006003000658398STICKER PAPER EMOTION  0000001000+00001753+00000+0001T   00001753+0000001441          1400 JY1130               1BZ
119015007119015077-000011-C   119015006001023808523TISSUE 10xSHTS RED     0000001000+00000876+00000+0001T   00000876+0000001441          1400 JY1112               1BZ
119015008119015077-000289     119015006001023901996GIFT BOX 20x25x11cm    0000001000+00001753+00000+0001T   00001753+0000001441          1400 JY1112               1BZ
119015009119015112-116069     119015006009681820277TCS CARRIER BAG JUMBO  0000001000+00000048+00000+0001T   00000048+0000001441          1400 JY1090               1BZ
119015010119015033-000642     119015006001023681201H/BRUSH PADDLE 24cm    0000001000+00003069+00000+0001T   00003069+0000001441          1400 JY1200               1BZ
119015011119015903-000183     119015006003000451043SWT LB HEART LOLLY     0000003000+00000393+00000+0001T   00000393+0000001441          1400 JY1150               1BZ
119016000119016               119016               170213OB     1400+00000+OB0000001662+0000001662+000000000+000000234+0000001890+0000000006+I20000000000+0000001890+Z
119016001119016006-000171-E   119016006003000609406BALLOONS 1PC BLUE PRNT 0000001000+00000218+00000+0001T   00000218+0000001445          1400 JY1131               1BZ
119016002119016006-000171-C   119016006003000609178BALLOONS 1PC D/GRN PRNT0000001000+00000218+00000+0001T   00000218+0000001445          1400 JY1131               1BZ
119016003119016006-001000     119016006003000093779HELIUM BALLOON FILL    0000002000+00000613+00000+0001T   00000613+0000001445          1400 JY1131               1BZ
119017000119017               119017               170213OB     1400+00000+OB0000005173+0000005173+000000000+000000725+0000005890+0000000008+I20000000000+0000005890+Z
119017001119017903-000095     119017006001704011495SWT SPECKLED-EGGS 100G 0000001000+00002104+00000+0001T   00002104+0000001446          1400 JY1150               1BZ
119017002119017079-013098     119017006003000197040ART+CRAFT SET DIY      0000001000+00003069+00000+0001T   00003069+0000001446          1400 JY1130               1BZ
119018000119018               119018               170213OB     1400+00000+OB0000010961+0000010961+000000000+000001536+0000012497+0000000000+I40000012497+0000000000+Z
119018001119018031-007006     119018006003000466108P/FRM WDN G/STRESSED   0000001000+00007016+00000+0001T   00007016+0000001452          1400 JY1510               1BZ
119018002119018077-000463     119018006003000321698G/BAG GLITTER MED20x28 0000001000+00002192+00000+0001T   00002192+0000001452          1400 JY1112               1BZ
119018003119018903-000619     119018006003000672455SWT LOLLY STR/BRRY 140G0000001000+00001753+00000+0001T   00001753+0000001452          1400 JY1150               1BZ
119019000119019               119019               170213OB     1400+00000+OB0000007271+0000007271+000000000+000001021+0000008290+0000000002+I20000000000+0000008290+Z
119019001119019018-005009     119019006001023725608MUG W/PLUSH-BEAR LOVE  0000001000+00003507+00000+0001T   00003507+0000001453          1400 JY1515               1BZ
119019002119019077-000303     119019006001023593757GIFT-BAG PAPER MED     0000001000+00001578+00000+0001T   00001578+0000001453          1400 JY1112               1BZ
119019003119019080-000133-A   119019006003000647019MINI VALENTINES CARD   0000002000+00000437+00000+0001T   00000437+0000001453          1400 JY1112               1BZ
119019004119019077-000314     119019006003000181148GIFT-BAG 11X14CM MATT  0000001000+00000876+00000+0001T   00000876+0000001453          1400 JY1112               1BZ
119019005119019903-000670     119019006009803358008SWT SHERBET RED LIPS   0000002000+00000218+00000+0001T   00000218+0000001453          1400 JY1150               1BZ
119020000119020               119020               170213OB     1400+00000+OB0000003156+0000003156+000000000+000000442+0000003590+0000000008+I20000000000+0000003590+Z
119020001119020018-000127     119020006001023380289MUG OCC STRAIGHT LOVE  0000002000+00001578+00000+0001T   00001753+0006471500          1400 JY1515               1BZ
119021000119021               119021               170213OB     1400+00000+OB0000001578+0000001578+000000000+000000221+0000001790+0000000009+I20000000000+0000001790+Z
119021001119021018-000127     119021006001023380289MUG OCC STRAIGHT LOVE  0000001000+00001578+00000+0001T   00001753+0006471500          1400 JY1515               1BZ
119022000119022               119022               170213OB     1400+00000+OB0000007584+0000007584+000000000+000001064+0000008640+0000000008+I20000000000+0000008640+Z
119022001119022077-000303     119022006001023593757GIFT-BAG PAPER MED     0000002000+00001578+00000+0001T   00001578+0000001507          1400 JY1112               1BZ
119022002119022007-000045     119022006009608640438DISPLAY-POCKETS A4 10PC0000005000+00000876+00000+0001T   00000876+0000001507          1400 JY1130               1BZ
119022003119022112-116069     119022006009681820277TCS CARRIER BAG JUMBO  0000001000+00000048+00000+0001T   00000048+0000001507          1400 JY1090               1BZ
119023000119023               119023               170213OB     1400+00000+OB0000012278+0000012278+000000000+000001720+0000013990+0000000008+I20000000000+0000013990+Z
119023001119023365-000071     119023006001023542366PLAY-SET CD PLAYER B/O 0000002000+00006139+00000+0001T   00006139+0000001508          1400 JY1725               1BZ
119024000119024               119024               170213OB     1400+00000+OB0000000874+0000000874+000000000+000000124+0000000990+0000000008+I20000000000+0000000990+Z
119024001119024903-000094     119024006923431501622SWT GS CANDY NECKLACE  0000002000+00000437+00000+0001T   00000437+0000001508          1400 JY1150               1BZ
119025000119025               119025               170213OB     1400+00000+OB0000001578+0000001578+000000000+000000221+0000001790+0000000009+I20000000000+0000001790+Z
119025001119025018-000127     119025006001023380289MUG OCC STRAIGHT LOVE  0000001000+00001578+00000+0001T   00001753+0006471510          1400 JY1515               1BZ
119026000119026               119026               170213OB     1400+00000+OB0000001578+0000001578+000000000+000000221+0000001790+0000000009+I20000000000+0000001790+Z
119026001119026018-000127     119026006001023380289MUG OCC STRAIGHT LOVE  0000001000+00001578+00000+0001T   00001753+0006471511          1400 JY1515               1BZ
119027000119027               119027               170213OB     1400+00000+OB0000038192+0000038192+000000000+000005352+0000043540+0000000004+I20000000000+0000043540+Z
119027001119027112-116069     119027006009681820277TCS CARRIER BAG JUMBO  0000001000+00000048+00000+0001T   00000048+0000001517          1400 JY1090               1BZ
119027002119027567-011438     119027009780857260628BK ACTIVITY BOYS STICKE0000001000+00003507+00000+0001T   00003507+0000001517          1400 JY1757               1BZ
119027003119027077-000299     119027006003000395576G/BAG 32x25cm LRG LOVE 0000001000+00001490+00000+0001T   00001490+0000001517          1400 JY1112               1BZ
119027004119027001-091415     119027006003000329113W/GLS OCC. LOVE 2PC 2800000001000+00008771+00000+0001T   00009648+0006471517          1400 JY1515               1BZ
119027005119027301-085003     119027006003000420827ORN OCCASION LOVE KEY  0000001000+00005262+00000+0001T   00005262+0000001517          1400 JY1505               1BZ
119027006119027024-000118     119027006001023422316N/STICK C/PAN HEART    0000001000+00004385+00000+0001T   00004385+0000001517          1400 JY1300               1BZ
119027007119027301-085007     119027006003000673698ORN OCC. LOVE S/PLAQUE 0000001000+00007893+00000+0001T   00007893+0000001517          1400 JY1505               1BZ
119027008119027018-000127     119027006001023380289MUG OCC STRAIGHT LOVE  0000001000+00001578+00000+0001T   00001753+0006471517          1400 JY1515               1BZ
119027009119027903-000183     119027006003000451043SWT LB HEART LOLLY     0000001000+00000393+00000+0001T   00000393+0000001517          1400 JY1150               1BZ
119027010119027903-000200     119027006009826020234SWT CHOC RP CHOCO 23G  0000001000+00000788+00000+0001T   00000788+0000001517          1400 JY1150               1BZ
119027011119027903-000183     119027006003000451043SWT LB HEART LOLLY     0000001000+00000393+00000+0001T   00000393+0000001517          1400 JY1150               1BZ
119027012119027018-000127     119027006001023380289MUG OCC STRAIGHT LOVE  0000001000-00001578+00000+0001T   00001753+0006471517          1400 JY15151IC            1 Z
119027013119027018-019000     119027006003000557288MUG OCC. LOVE JUMBO    0000001000+00005262+00000+0001T   00005262+0000001517          1400 JY1515               1BZ
119028000119028               119028               170213OB     1400+00000+OB0000009681+0000009681+000000000+000001357+0000011038+0000000000+I40000011038+0000000000+Z
119028001119028080-000113     119028006003000237449CARD&ENVLPE - LOVE     0000001000+00001753+00000+0001T   00001753+0000001520          1400 JY1112               1BZ
119028002119028301-085007     119028006003000673698ORN OCC. LOVE S/PLAQUE 0000001000+00007893+00000+0001T   00007893+0000001520          1400 JY1505               1BZ
119028003119028112-116038     119028006009681820246TCS CARRIER BAG MIDI   0000001000+00000035+00000+0001T   00000035+0000001520          1400 JY1090               1BZ
119029000119029               119029               170213OB     1400+00000+OB0000033885+0000033885+000000000+000004749+0000038634+0000000000+I40000038634+0000000000+Z
119029001119029112-116069     119029006009681820277TCS CARRIER BAG JUMBO  0000001000+00000048+00000+0001T   00000048+0000001524          1400 JY1090               1BZ
119029002119029124-000001     119029000738380781690STORAGE TIN TISSUE     0000003000+00002630+00000+0001T   00003507+0008171524          1400 JY1300               1BZ
119029003119029301-085001     119029006003000297610ORN WATERBALL LOVE ASST0000001000+00004823+00000+0001T   00004823+0000001524          1400 JY1505               1BZ
119029004119029018-000177     119029006001023797513MUG MINI LOVE ASSTD    0000004000+00000700+00000+0001T   00000700+0000001524          1400 JY1515               1BZ
119029005119029018-000170     119029006001023775528MUG OCC. LOVE 2PC MINI 0000001000+00002192+00000+0001T   00002192+0000001524          1400 JY1515               1BZ
119029006119029072-020257     119029006001023598110DOG-CHEW SHOE 13cm     0000003000+00002192+00000+0001T   00002192+0000001524          1400 JY1870               1BZ
119029007119029903-000200     119029006009826020234SWT CHOC RP CHOCO 23G  0000001000+00000788+00000+0001T   00000788+0000001524          1400 JY1150               1BZ
119029008119029566-000068     119029006003000418046POP UP LOVE 2 ASSTD    0000001000+00002192+00000+0001T   00002192+0000001524          1400 JY1130               1BZ
119029009119029567-011135     119029009781782442424BOOK STICKER ASSTD     0000001000+00001314+00000+0001T   00001753+0008131524          1400 JY1757               1BZ
119029010119029567-010655     119029009781472317100BK ACTIVITY ASSTD      0000001000+00005262+00000+0001T   00007016+0008131524          1400 JY1757               1BZ
119030000119030               119030               170213OB     1400+00000+OB0000004383+0000004383+000000000+000000614+0000004990+0000000007+I20000000000+0000004990+Z
119030001119030301-085004     119030006003000420469ORN LOVE PLAQUE 21X10CM0000001000+00003507+00000+0001T   00003946+0006471524          1400 JY1505               1BZ
119030002119030903-003080     119030005907029004673SWT SNACK STIX CHOC 50g0000001000+00000876+00000+0001T   00000876+0000001524          1400 JY1150               1BZ
119031000119031               119031               170213OB     1400+00000+OB0000004732+0000004732+000000000+000000664+0000005390+0000000006+I20000000000+0000005390+Z
119031001119031006-000223     119031006001023891327PARTY EYE-MASK 6PCE    0000002000+00000876+00000+0001T   00000876+0000001529          1400 JY1131               1BZ
119031002119031016-006510     119031006003000593330STORAGE-JAR 6PC 10ml   0000002000+00001490+00000+0001T   00001490+0000001529          1400 JY1300               1BZ
119032000119032               119032               170213OB     1400+00000+OB0000004207+0000004207+000000000+000000590+0000004797+0000000000+I40000004797+0000000000+Z
119032001119032565-000015     119032006003000672035NOVELTY SLIME ANIMAL   0000001000+00002192+00000+0001T   00002192+0000001531          1400 JY1745               1BZ
119032002119032903-000521     119032006001704009652SWT GUMMY SOFT GUMS    0000001000+00000876+00000+0001T   00000876+0000001531          1400 JY1150               1BZ
119032003119032903-000710     119032006002099007056SWT REFRESHERS MINT    0000001000+00001139+00000+0001T   00001139+0000001531          1400 JY1150               1BZ
119033000119033               119033               170213OB     1400+00000+OB0000008769+0000008769+000000000+000001228+0000009990+0000000007+I20000000000+0000009990+Z
119033001119033366-000125     119033006003000006786DRESSUP WINGS/WAND/BAND0000001000+00005262+00000+0001T   00005262+0000001537          1400 J74131               1AZ
119033002119033366-000400     119033006001023918468DRESS UP SHOES IN BOX  0000001000+00003507+00000+0001T   00003507+0000001537          1400 J74131               1AZ
119034000119034               119034               170213OB     1400+00000+OB0000003506+0000003506+000000000+000000492+0000003990+0000000008+I20000000000+0000003990+Z
119034001119034565-000083     119034006003000643622NOVELTY GROW SNOW      0000001000+00001753+00000+0001T   00001753+0000001538          1400 J74745               1AZ
119034002119034362-002464     119034006003000167388HAIR EXT 30cm 6PCS COL 0000001000+00001753+00000+0001T   00001753+0000001538          1400 J74160               1AZ
119035000119035               119035               170213OB     1400+00000+OB0000003506+0000003506+000000000+000000492+0000003990+0000000008+I20000000000+0000003990+Z
119035001119035077-000351     119035006003000139033GIFT-BAG 18X23CM E/D P 0000002000+00001753+00000+0001T   00001753+0000001548          1400 JY1112               1BZ
119036000119036               119036               170213OB     1400+00000+OB0000006139+0000006139+000000000+000000860+0000006999+0000000000+I40000006999+0000000000+Z
119036001119036368-000104     119036006001023751348PLUSH BEAR RUFFLED-LOOK0000001000+00006139+00000+0001T   00006139+0000001552          1400 JY1745               1BZ
119037000119037               119037               170213OB     1400+00000+OB0000038276+0000038276+000000000+000005367+0000043640+0000000003+I20000000000+0000043640+Z
119037001119037112-116069     119037006009681820277TCS CARRIER BAG JUMBO  0000001000+00000048+00000+0001T   00000048+0000001559          1400 JY1090               1BZ
119037002119037366-000901     119037006003000563807DRESS UP WINGS B/FLY   0000002000+00007893+00000+0001T   00007893+0000001559          1400 JY1131               1BZ
119037003119037006-000203-A   119037006003453010965SNACK BOX 6PCE ASSTD   0000003000+00002630+00000+0001T   00002630+0000001559          1400 JY1131               1BZ
119037004119037006-000210-H   119037006003000430055PINK/BLUE CUPS 230g 6PC0000003000+00001490+00000+0001T   00001490+0000001559          1400 JY1131               1BZ
119037005119037563-000317-K   119037006003000697885SERVIETTE 2PLY 33cm    0000002000+00001753+00000+0001T   00001753+0000001559          1400 JY1214               1BZ
119037006119037039-000327     119037006001023775283B/CANDLES COLOUR-FLAME 0000001000+00003946+00000+0001T   00003946+0000001559          1400 JY1510               1BZ
119037007119037039-000337     119037006003000293513B'DAY-CANDLES MUSICAL  0000001000+00002630+00000+0001T   00002630+0000001559          1400 JY1510               1BZ
119038000119038               119038               170213OB     1400+00000+OB0000005262+0000005262+000000000+000000737+0000005990+0000000009+I20000000000+0000005990+Z
119038001119038018-019000     119038006003000557288MUG OCC. LOVE JUMBO    0000001000+00005262+00000+0001T   00005262+0000001604          1400 JY1515               1BZ
119039000119039               119039               170213OB     1400+00000+OB0000001753+0000001753+000000000+000000246+0000001990+0000000009+I20000000000+0000001990+Z
119039001119039080-000101     119039006003000236732CARD&ENVLPE FEMALE     0000001000+00001753+00000+0001T   00001753+0000001605          1400 JY1112               1BZ
119040000119040               119040               170213OB     1400+00000+OB0000011924+0000011924+000000000+000001672+0000013596+0000000000+I40000013596+0000000000+Z
119040001119040041-093000     119040006003000320882B/GIFT SET 4PC B/RANGE 0000001000+00007016+00000+0001T   00007016+0000001627          1400 JY1200               1BZ
119040002119040304-000720     119040006001023843050F/BUNCH ROSE 6-HEAD AST0000001000+00002630+00000+0001T   00002630+0000001627          1400 JY1510               1BZ
119040003119040903-000200     119040006009826020234SWT CHOC RP CHOCO 23G  0000001000+00000788+00000+0001T   00000788+0000001627          1400 JY1150               1BZ
119040004119040077-000299     119040006003000395576G/BAG 32x25cm LRG LOVE 0000001000+00001490+00000+0001T   00001490+0000001627          1400 JY1112               1BZ
119041000119041               119041               170213OB     1400+00000+OB0000001578+0000001578+000000000+000000221+0000001790+0000000009+I20000000000+0000001790+Z
119041001119041080-000124     119041006003000297733CARD & ENV VALENTINES  0000001000+00001578+00000+0001T   00001578+0000001627          1400 JY1112               1BZ
119042000119042               119042               170213OB     1400+00000+OB0000001578+0000001578+000000000+000000221+0000001790+0000000009+I20000000000+0000001790+Z
119042001119042077-000303     119042006001023593757GIFT-BAG PAPER MED     0000001000+00001578+00000+0001T   00001578+0000001628          1400 JY1112               1BZ
119043000119043               119043               170213OB     1400+00000+OB0000006345+0000006345+000000000+000000890+0000007230+0000000005+I20000000000+0000007230+Z
119043001119043080-000133-A   119043006003000647019MINI VALENTINES CARD   0000001000+00000437+00000+0001T   00000437+0000001629          1400 JY1112               1BZ
119043002119043018-000136     119043006001023659026MUG OCC LOVE W/PLUSH   0000001000+00003507+00000+0001T   00003507+0000001629          1400 JY1515               1BZ
119043003119043903-000200     119043006009826020234SWT CHOC RP CHOCO 23G  0000001000+00000788+00000+0001T   00000788+0000001629          1400 JY1150               1BZ
119043004119043112-116038     119043006009681820246TCS CARRIER BAG MIDI   0000001000+00000035+00000+0001T   00000035+0000001629          1400 JY1090               1BZ
119043005119043077-000303     119043006001023593757GIFT-BAG PAPER MED     0000001000+00001578+00000+0001T   00001578+0000001629          1400 JY1112               1BZ
119044000119044               119044               170213OB     1400+00000+OB0000003944+0000003944+000000000+000000553+0000004497+0000000000+I40000004497+0000000000+Z
119044001119044018-005009     119044006001023725608MUG W/PLUSH-BEAR LOVE  0000001000+00003507+00000+0001T   00003507+0000001634          1400 JY1515               1BZ
119044002119044080-000133-A   119044006003000647019MINI VALENTINES CARD   0000001000+00000437+00000+0001T   00000437+0000001634          1400 JY1112               1BZ
119045000119045               119045               170213OB     1400+00000+OB0000005959+0000005959+000000000+000000836+0000006790+0000000005+I20000000000+0000006790+Z
119045001119045018-000177     119045006001023797513MUG MINI LOVE ASSTD    0000001000+00000700+00000+0001T   00000700+0000001637          1400 JY1515               1BZ
119045002119045077-000011-D   119045006001023808554TISSUE-WRAP WHITE 10PCE0000001000+00000876+00000+0001T   00000876+0000001637          1400 JY1112               1BZ
119045003119045077-000005-B   119045006003000326617PAPER TISSUE PATTERN   0000001000+00002630+00000+0001T   00002630+0000001637          1400 JY1112               1BZ
119045004119045077-000299-A   119045006003000670888GIFT-BAG PAPER JMB LOVE0000001000+00001753+00000+0001T   00001753+0000001637          1400 JY1112               1BZ
119046000119046               119046               170213OB     1400+00000+OB0000004385+0000004385+000000000+000000614+0000004990+0000000009+I20000000000+0000004990+Z
119046001119046047-002040-H   119046006003000219117P/ADAPTOR 3x16A 3x5A   0000001000+00004385+00000+0001T   00004385+0000001638          1400 JY1880               1BZ
119047000119047               119047               170213OB     1400+00000+OB0000004944+0000004944+000000000+000000693+0000005630+0000000007+I20000000000+0000005630+Z
119047001119047077-000303     119047006001023593757GIFT-BAG PAPER MED     0000001000+00001578+00000+0001T   00001578+0000001641          1400 JY1112               1BZ
119047002119047903-000211     119047006002099001238SWT GS MALLOW ICE CREAM0000001000+00001753+00000+0001T   00001753+0000001641          1400 JY1150               1BZ
119047003119047018-000127     119047006001023380289MUG OCC STRAIGHT LOVE  0000001000+00001578+00000+0001T   00001753+0006471641          1400 JY1515               1BZ
119047004119047112-116038     119047006009681820246TCS CARRIER BAG MIDI   0000001000+00000035+00000+0001T   00000035+0000001641          1400 JY1090               1BZ
119048000119048               119048               170213OB     1400+00000+OB0000004385+0000004385+000000000+000000614+0000004999+0000000000+I40000004999+0000000000+Z
119048001119048368-000049     119048006003000536955PLUSH BEAR 15cm LOVE   0000001000+00004385+00000+0001T   00004385+0000001644          1400 JY1745               1BZ
119049000119049               119049               170213OB     1400+00000+OB0000001051+0000001051+000000000+000000148+0000001190+0000000009+I20000000000+0000001190+Z
119049001119049079-009702-D   119049008427973059354PAPER SIRIO A2 RED COL 0000001000+00001051+00000+0001T   00001051+0000001645          1400 JY1130               1BZ
119050000119050               119050               170213OB     1400+00000+OB0000005085+0000005085+000000000+000000712+0000005790+0000000007+I20000000000+0000005790+Z
119050001119050301-085004     119050006003000420469ORN LOVE PLAQUE 21X10CM0000001000+00003507+00000+0001T   00003946+0006471647          1400 JY1505               1BZ
119050002119050018-000127     119050006001023380289MUG OCC STRAIGHT LOVE  0000001000+00001578+00000+0001T   00001753+0006471647          1400 JY1515               1BZ
119051000119051               119051               170213OB     1400+00000+OB0000000437+0000000437+000000000+000000062+0000000490+0000000009+I20000000000+0000000490+Z
119051001119051080-000133-A   119051006003000647019MINI VALENTINES CARD   0000001000+00000437+00000+0001T   00000437+0000001648          1400 JY1112               1BZ
119052000119052               119052               170213OB     1400+00000+OB0000002232+0000002232+000000000+000000314+0000002546+0000000000+I40000002546+0000000000+Z
119052001119052903-000155     119052006009803374435SWT LOLLY I LUV U HEART0000001000+00000525+00000+0001T   00000525+0000001649          1400 JY1150               1BZ
119052002119052903-000183     119052006003000451043SWT LB HEART LOLLY     0000001000+00000393+00000+0001T   00000393+0000001649          1400 JY1150               1BZ
119052003119052903-000194     119052006009826020616SWT CHOC RP LOLLY 25G  0000001000+00001314+00000+0001T   00001314+0000001649          1400 JY1150               1BZ
119053000119053               119053               170213OB     1400+00000+OB0000001927+0000001927+000000000+000000270+0000002190+0000000007+I20000000000+0000002190+Z
119053001119053006-000167-C   119053006003000516971BALLOONS PINK METALLIC 0000001000+00001314+00000+0001T   00001314+0000001652          1400 JY1131               1BZ
119053002119053077-000311     119053006001023608666GIFT-BAG 11X14CM GLOSS 0000001000+00000613+00000+0001T   00000613+0000001652          1400 JY1112               1BZ
119054000119054               119054               170213OB     1400+00000+OB0000001969+0000001969+000000000+000000278+0000002240+0000000007+I20000000000+0000002240+Z
119054001119054903-000183     119054006003000451043SWT LB HEART LOLLY     0000001000+00000393+00000+0001T   00000393+0000001657          1400 JY1150               1BZ
119054002119054903-000200     119054006009826020234SWT CHOC RP CHOCO 23G  0000002000+00000788+00000+0001T   00000788+0000001657          1400 JY1150               1BZ
119055000119055               119055               170213OB     1400+00000+OB0000001753+0000001753+000000000+000000246+0000001990+0000000009+I20000000000+0000001990+Z
119055001119055006-000093     119055006003000539932PARTY BANNER FLAGS ASST0000001000+00001753+00000+0001T   00001753+0000001657          1400 JY1131               1BZ
119056000119056               119056               170213OB     1400+00000+OB0000013769+0000013769+000000000+000001929+0000015690+0000000008+I20000000000+0000015690+Z
119056001119056077-000299     119056006003000395576G/BAG 32x25cm LRG LOVE 0000001000+00001490+00000+0001T   00001490+0000001709          1400 JY1112               1BZ
119056002119056368-000111     119056006001023780812PLUSH BEAR/DOG 29CM    0000001000+00012279+00000+0001T   00012279+0000001709          1400 JY1745               1BZ
119057000119057               119057               170213OB     1400+00000+OB0000005031+0000005031+000000000+000000706+0000005737+0000000000+I40000005737+0000000000+Z
119057001119057079-003007     119057006003000448487A/TUBE 75ML BROWN      0000001000+00001753+00000+0001T   00001753+0000001711          1400 JY1130               1BZ
119057002119057079-003013     119057006003000633838PAINT ACRYLIC TUBE BRNZ0000001000+00002630+00000+0001T   00002630+0000001711          1400 JY1130               1BZ
119057003119057200-000065     119057006003000568901DRINKING-STRAWS 38PCE  0000001000+00000613+00000+0001T   00000613+0000001711          1400 JY1214               1BZ
119057004119057112-116038     119057006009681820246TCS CARRIER BAG MIDI   0000001000+00000035+00000+0001T   00000035+0000001711          1400 JY1090               1BZ
119058000119058               119058               170213OB     1400+00000+OB0000033329+0000033329+000000000+000004668+0000037990+0000000007+I20000000000+0000037990+Z
119058001119058497-068614     119058000078257686148H/PUMP HIGH-O/PUT 36cm 0000001000+00006139+00000+0001T   00006139+0000001715          1400 JY1787               1BZ
119058002119058496-058431     119058000078257584314POOL SOFT-SIDE 188x46cm0000001000+00024560+00000+0001T   00024560+0000001715          1400 JY1787               1BZ
119058003119058104-000031     119058006003000614950BASKET PL 27x18x12cm   0000001000+00002630+00000+0001T   00002630+0000001715          1400 JY1210               1BZ
119059000119059               119059               170213OB     1400+00000+OB0000009676+0000009676+000000000+000001355+0000011030+0000000001+I20000000000+0000011030+Z
119059001119059565-000052     119059006003000615551NOVELTY PUTTY FARTS    0000002000+00001578+00000+0001T   00001578+0000001718          1400 JY1745               1BZ
119059002119059018-000177     119059006001023797513MUG MINI LOVE ASSTD    0000002000+00000700+00000+0001T   00000700+0000001718          1400 JY1515               1BZ
119059003119059018-000136     119059006001023659026MUG OCC LOVE W/PLUSH   0000001000+00003507+00000+0001T   00003507+0000001718          1400 JY1515               1BZ
119059004119059080-000124     119059006003000297733CARD & ENV VALENTINES  0000001000+00001578+00000+0001T   00001578+0000001718          1400 JY1112               1BZ
119059005119059112-116038     119059006009681820246TCS CARRIER BAG MIDI   0000001000+00000035+00000+0001T   00000035+0000001718          1400 JY1090               1BZ
119060000119060               119060               170213OB     1400+00000+OB0000005085+0000005085+000000000+000000712+0000005790+0000000007+I20000000000+0000005790+Z
119060001119060031-005853     119060006003000442416P/FRAME WDN TWIN HEARTS0000001000+00003507+00000+0001T   00003507+0000001721          1400 JY1510               1BZ
119060002119060018-000127     119060006001023380289MUG OCC STRAIGHT LOVE  0000001000+00001578+00000+0001T   00001753+0006471721          1400 JY1515               1BZ
119061000119061               119061               170213OB     1400+00000+OB0000008806+0000008806+000000000+000001233+0000010030+0000000009+I20000000000+0000010030+Z
119061001119061001-091415     119061006003000329113W/GLS OCC. LOVE 2PC 2800000001000+00008771+00000+0001T   00009648+0006471723          1400 JY1515               1BZ
119061002119061112-116038     119061006009681820246TCS CARRIER BAG MIDI   0000001000+00000035+00000+0001T   00000035+0000001723          1400 JY1090               1BZ
119062000119062               119062               170213OB     1400+00000+OB0000003507+0000003507+000000000+000000491+0000003998+0000000000+I40000003998+0000000000+Z
119062001119062077-000934     119062006003000409921G/WRAP 700mmx5m BIRTHDA0000001000+00003507+00000+0001T   00003507+0000001724          1400 JY1112               1BZ
119063000119063               119063               170213OB     1400+00000+OB0000001753+0000001753+000000000+000000246+0000001990+0000000009+I20000000000+0000001990+Z
119063001119063566-020150     119063006001023889126STICKERS FOAM 3D ASSTD 0000001000+00001753+00000+0001T   00001753+0000001724          1400 JY1130               1BZ
119064000119064               119064               170213OB     1400+00000+OB0000007827+0000007827+000000000+000001100+0000008920+0000000007+I20000000000+0000008920+Z
119064001119064903-000843     119064008693029031067SWT GUMMY JELAXY 80G   0000002000+00000964+00000+0001T   00000964+0000001737          1400 1IC150               1BZ
119064002119064903-000183     119064006003000451043SWT LB HEART LOLLY     0000004000+00000393+00000+0001T   00000393+0000001737          1400 1IC150               1BZ
119064003119064018-000177     119064006001023797513MUG MINI LOVE ASSTD    0000002000+00000700+00000+0001T   00000700+0000001737          1400 1IC515               1BZ
119064004119064077-000310     119064006001023608635GIFT-BAG 18X23CM GLOSS 0000001000+00001314+00000+0001T   00001314+0000001737          1400 1IC112               1BZ
119064005119064077-000303     119064006001023593757GIFT-BAG PAPER MED     0000001000+00001578+00000+0001T   00001578+0000001737          1400 1IC112               1BZ
119064006119064112-116038     119064006009681820246TCS CARRIER BAG MIDI   0000001000+00000035+00000+0001T   00000035+0000001737          1400 1IC090               1BZ
119065000119065               119065               170213OB     1400+00000+OB0000001578+0000001578+000000000+000000221+0000001790+0000000009+I20000000000+0000001790+Z
119065001119065018-000127     119065006001023380289MUG OCC STRAIGHT LOVE  0000001000+00001578+00000+0001T   00001753+0006471738          1400 1IC515               1BZ
119066000119066               119066               170213OB     1400+00000+OB0000008771+0000008771+000000000+000001228+0000009999+0000000000+I40000009999+0000000000+Z
119066001119066368-000012     119066006003000610464PLUSH BEAR 30cm SITTING0000001000+00008771+00000+0001T   00008771+0000001739          1400 1IC745               1BZ
119067000119067               119067               170213OB     1400+00000+OB0000001139+0000001139+000000000+000000160+0000001290+0000000009+I20000000000+0000001290+Z
119067001119067007-010192     119067006009635830536BOOK H/COVER A5 192PAGE0000001000+00001139+00000+0001T   00001139+0000001739          1400 1IC130               1BZ
119068000119068               119068               170213OB     1400+00000+OB0000000613+0000000613+000000000+000000086+0000000690+0000000009+I20000000000+0000000690+Z
119068001119068565-000044     119068006003000128280BARREL OF SLIME 100g   0000001000+00000613+00000+0001T   00000613+0000001740          1400 1IC745               1BZ
A17021300                                          09575451OBSLAVE 1                       J742IC
A17021301                                          11005324OBSLAVE 1                       J741IC
A17021302                                          13005544OBSLAVE 1                       J741IC
M17021301                              IT          OBATT GLADWYN                                     THE LAST DOC FOR SLAVE 1 IS 119068              THANKS                                          NIGEL OB
M17021391                              CASH        OBSLAVE 1                       Z-REPORT No.   623TOTAL (Sales - Refunds)           7739.47       CASH TO BE BANKED                 4810.60       DEBIT CARDS                          0.00       CREDIT CARDS                      2928.87       Z-READING                         7739.47       AIRTIME DEBIT CARD SALES             0.00       AIRTIME CARD SALES                   0.00       OVERS/UNDERS                         0.00       AIRTIME CASH SALES                   0.00       GIFT CARDS                           0.00       GIFT CARD CASH SALES                 0.00       T O T A L  CASH PAYOUTS              0.00                                                                                                                                                                                                                                                                                                                                                      Z
M17021392                              CASH        OBABSENT                                                                                                                                                                                          ANNUAL LEAVE                                                                                                                                                                                    DAY OFF                                                                                                                                                                                         COMMENTS                                                                                                                                                                                                                                                                                                                                                                                       Z
Y17021300                                          OB00000000697440+000091
ZOB17021321123 SLAVE 1      SALES DATA                     NEXT INVOICE NO.  119069 0623
X OB Slave 1 First invoice 118977 170213 Last invoice 119068 170213 Next invoice 119069 Total number of records 000000375 clbackup completed 21:12:27
