128232000128232               128232               170213OB     1400+00000+OB0000007539+0000007539+000000000+000001057+0000008596+0000000000+I40000008596+0000000000+Z
128232001128232077-000381     128232006003000247707GIFT-BAG 25X32CM S/COL 0000001000+00001753+00000+0001T   00001753+0000001024          1400 SJ51121IC            2AZ
128232002128232077-000380     128232006003000247585GIFT-BAG 33X45CM S/COL 0000001000+00002455+00000+0001T   00002455+0000001024          1400 SJ5112               2AZ
128232003128232077-000011-X   128232006001023809827TISSUE-WRAP SILVER 10PC0000001000+00001753+00000+0001T   00001753+0000001024          1400 SJ5112               2AZ
128232004128232369-001137-B   128232006003000626373BABY BATH VINYL DUCK   0000001000+00001578+00000+0001T   00001578+0000001024          1400 SJ5745               2AZ
128233000128233               128233               170213OB     1400+00000+OB0000001752+0000001752+000000000+000000246+0000001990+0000000008+I20000000000+0000001990+Z
128233001128233033-005931     128233006001023678447PINS ON-WHEEL PEARLIZED0000002000+00000876+00000+0001T   00000876+0000001036          1400 SJ5200               2AZ
128234000128234               128234               170213OB     1400+00000+OB0000002630+0000002630+000000000+000000369+0000002990+0000000009+I20000000000+0000002990+Z
128234001128234002-012267     128234006001023110886SERVING-TONGS SCISSORS 0000001000+00002630+00000+0001T   00002630+0000001047          1400 SJ5300               2AZ
128235000128235               128235               170213OB     1400+00000+OB0000000613+0000000613+000000000+000000086+0000000690+0000000009+I20000000000+0000000690+Z
128235001128235306-000021     128235006001023169433EARBUDS 100PCE IN BAG  0000001000+00000613+00000+0001T   00000613+0000001051          1400 SJ5200               2AZ
128236000128236               128236               170213OB     1400+00000+OB0000005310+0000005310+000000000+000000744+0000006050+0000000004+I20000000000+0000006050+Z
128236001128236159-003625     128236006001023902061TOILET-BRUSH W/STD 40cm0000001000+00005262+00000+0001T   00005262+0000001159          1400 SJ5200               2AZ
128236002128236112-116069     128236006009681820277TCS CARRIER BAG JUMBO  0000001000+00000048+00000+0001T   00000048+0000001159          1400 SJ5090               2AZ
128237000128237               128237               170213OB     1400+00000+OB0000006173+0000006173+000000000+000000865+0000007030+0000000008+I20000000000+0000007030+Z
128237001128237006-000190     128237006003000685530BALLOONS LOVE 81x91cm  0000001000+00004385+00000+0001T   00004385+0000001305          1400 SJ5131               2AZ
128237002128237077-000299-A   128237006003000670888GIFT-BAG PAPER JMB LOVE0000001000+00001753+00000+0001T   00001753+0000001305          1400 SJ5112               2AZ
128237003128237112-116038     128237006009681820246TCS CARRIER BAG MIDI   0000001000+00000035+00000+0001T   00000035+0000001305          1400 SJ5090               2AZ
128238000128238               128238               170213OB     1400+00000+OB0000009867+0000009867+000000000+000001383+0000011250+0000000000+I20000000000+0000011250+Z
128238001128238018-000129     128238006001023403353MUG OCC. LOVE V-SHAPE  0000001000+00002630+00000+0001T   00002630+0000001310          1400 SJ5515               2AZ
128238002128238903-000194     128238006009826020616SWT CHOC RP LOLLY 25G  0000001000+00001314+00000+0001T   00001314+0000001310          1400 SJ5150               2AZ
128238003128238018-030000     128238006003000421060MUG OCCASIONS LOVE 2PCE0000001000+00004385+00000+0001T   00004385+0000001310          1400 SJ5515               2AZ
128238004128238077-000299     128238006003000395576G/BAG 32x25cm LRG LOVE 0000001000+00001490+00000+0001T   00001490+0000001310          1400 SJ5112               2AZ
128238005128238112-116069     128238006009681820277TCS CARRIER BAG JUMBO  0000001000+00000048+00000+0001T   00000048+0000001310          1400 SJ5090               2AZ
128239000128239               128239               170213OB     1400+00000+OB0000010557+0000010557+000000000+000001479+0000012030+0000000006+I20000000000+0000012030+Z
128239001128239003-009201     128239006003000407798O/WELCOME STONE RND ASS0000002000+00004385+00000+0001T   00004385+0000001312          1400 SJ5505               2AZ
128239002128239077-000314     128239006003000181148GIFT-BAG 11X14CM MATT  0000002000+00000876+00000+0001T   00000876+0000001312          1400 SJ5112               2AZ
128239003128239112-116038     128239006009681820246TCS CARRIER BAG MIDI   0000001000+00000035+00000+0001T   00000035+0000001312          1400 SJ5090               2AZ
128240000128240               128240               170213OB     1400+00000+OB0000006399+0000006399+000000000+000000897+0000007290+0000000006+I20000000000+0000007290+Z
128240001128240566-000304     1282400060030004440453-D POP-UP ROUND       0000001000+00002455+00000+0001T   00002455+0000001315          1400 SJ5130               2AZ
128240002128240361-003001     128240006003000302628DOLL 11CM W/HAT & BAG  0000001000+00001314+00000+0001T   00001314+0000001315          1400 SJ5725               2AZ
128240003128240560-000201     128240006001023400147RUBBER SNAKE 86cm      0000001000+00002630+00000+0001T   00002630+0000001315          1400 SJ5745               2AZ
128241000128241               128241               170213OB     1400+00000+OB0000005785+0000005785+000000000+000000810+0000006590+0000000005+I20000000000+0000006590+Z
128241001128241077-000303     128241006001023593757GIFT-BAG PAPER MED     0000001000+00001578+00000+0001T   00001578+0000001319          1400 SJ5112               2AZ
128241002128241018-000136     128241006001023659026MUG OCC LOVE W/PLUSH   0000001000+00003507+00000+0001T   00003507+0000001319          1400 SJ5515               2AZ
128241003128241018-000177     128241006001023797513MUG MINI LOVE ASSTD    0000001000+00000700+00000+0001T   00000700+0000001319          1400 SJ5515               2AZ
128242000128242               128242               170213OB     1400+00000+OB0000003507+0000003507+000000000+000000491+0000003998+0000000000+I40000003998+0000000000+Z
128242001128242031-000002-A   128242006003000247103P/FRAME LOVE 7.5X7.5CM 0000001000+00003507+00000+0001T   00003507+0000001321          1400 SJ5510               2AZ
128243000128243               128243               170213OB     1400+00000+OB0000005385+0000005385+000000000+000000757+0000006140+0000000002+I20000000000+0000006140+Z
128243001128243903-000194     128243006009826020616SWT CHOC RP LOLLY 25G  0000002000+00001314+00000+0001T   00001314+0000001322          1400 SJ5150               2AZ
128243002128243018-000127     128243006001023380289MUG OCC STRAIGHT LOVE  0000001000+00001578+00000+0001T   00001753+0006471322          1400 SJ5515               2AZ
128243003128243903-000183     128243006003000451043SWT LB HEART LOLLY     0000003000+00000393+00000+0001T   00000393+0000001322          1400 SJ5150               2AZ
128244000128244               128244               170213OB     1400+00000+OB0000017559+0000017559+000000000+000002464+0000020020+0000000003+I20000000000+0000020020+Z
128244001128244124-000001     128244000738380781690STORAGE TIN TISSUE     0000001000+00002630+00000+0001T   00003507+0008171342          1400 SJ5300               2AZ
128244002128244301-085002     128244006003000420704ORN OCC. LOVE BELL ASST0000001000+00001753+00000+0001T   00002630+0008121342          1400 SJ5505               2AZ
128244003128244007-000119     128244006002324004126BOOK COVER PL          0000001000+00001051+00000+0001T   00001051+0000001342          1400 SJ5130               2AZ
128244004128244077-000470     128244006003000330171G-BAG DESGN SML 11X14CM0000004000+00001314+00000+0001T   00001314+0000001342          1400 SJ5112               2AZ
128244005128244112-116038     128244006009681820246TCS CARRIER BAG MIDI   0000001000+00000035+00000+0001T   00000035+0000001342          1400 SJ5090               2AZ
128244006128244077-000011-L   128244006001023808585P/TISSUE BRIGHT 10SHEET0000001000+00000876+00000+0001T   00000876+0000001342          1400 SJ5112               2AZ
128244007128244077-000005-B   128244006003000326617PAPER TISSUE PATTERN   0000001000+00002630+00000+0001T   00002630+0000001342          1400 SJ5112               2AZ
128244008128244077-000011-L   128244006001023808585P/TISSUE BRIGHT 10SHEET0000001000+00000876+00000+0001T   00000876+0000001342          1400 SJ5112               2AZ
128244009128244077-000011-E   128244006001023808646TISSUE-WRAP PINK 10PCE 0000001000+00000876+00000+0001T   00000876+0000001342          1400 SJ5112               2AZ
128244010128244903-000200     128244006009826020234SWT CHOC RP CHOCO 23G  0000002000+00000788+00000+0001T   00000788+0000001342          1400 SJ5150               2AZ
128245000128245               128245               170213OB     1400+00000+OB0000005996+0000005996+000000000+000000840+0000006830+0000000006+I20000000000+0000006830+Z
128245001128245018-000136     128245006001023659026MUG OCC LOVE W/PLUSH   0000001000+00003507+00000+0001T   00003507+0000001343          1400 SJ5515               2AZ
128245002128245077-000011-C   128245006001023808523TISSUE 10xSHTS RED     0000001000+00000876+00000+0001T   00000876+0000001343          1400 SJ5112               2AZ
128245003128245077-000303     128245006001023593757GIFT-BAG PAPER MED     0000001000+00001578+00000+0001T   00001578+0000001343          1400 SJ5112               2AZ
128245004128245112-116038     128245006009681820246TCS CARRIER BAG MIDI   0000001000+00000035+00000+0001T   00000035+0000001343          1400 SJ5090               2AZ
128246000128246               128246               170213OB     1400+00000+OB0000008060+0000008060+000000000+000001132+0000009190+0000000002+I20000000000+0000009190+Z
128246001128246001-000167     128246006001023679659TUMBLER 340ml WILLY    0000006000+00000876+00000+0001T   00000876+0000001347          1400 SJ5515               2AZ
128246002128246107-002100     128246006002638001354BASIN PL 36cm          0000002000+00001402+00000+0001T   00001402+0000001347          1400 SJ5210               2AZ
128247000128247               128247               170213OB     1400+00000+OB0000004375+0000004375+000000000+000000618+0000004990+0000000003+I20000000000+0000004990+Z
128247001128247903-000012     128247006002099007308SWT MALLOW S/BERRY     0000006000+00000437+00000+0001T   00000437+0000001349          1400 SJ5150               2AZ
128247002128247903-000211     128247006002099001238SWT GS MALLOW ICE CREAM0000001000+00001753+00000+0001T   00001753+0000001349          1400 SJ5150               2AZ
128248000128248               128248               170213OB     1400+00000+OB0000001314+0000001314+000000000+000000184+0000001490+0000000008+I20000000000+0000001490+Z
128248001128248007-000209     128248006001023582102NOTE STICKY FILE MARKER0000001000+00001314+00000+0001T   00001314+0000001353          1400 SJ5130               2AZ
128249000128249               128249               170213OB     1400+00000+OB0000009764+0000009764+000000000+000001370+0000011134+0000000000+I40000011134+0000000000+Z
128249001128249565-000071     128249006003000643387NOVELTY WIND UP CHATTER0000001000+00001139+00000+0001T   00001139+0000001358          1400 SJ5745               2AZ
128249002128249565-001212     128249006001023658173NOVELTY MAGIC-SPRING   0000001000+00001753+00000+0001T   00001753+0000001358          1400 SJ5745               2AZ
128249003128249565-000052     128249006003000615551NOVELTY PUTTY FARTS    0000001000+00001578+00000+0001T   00001578+0000001358          1400 SJ5745               2AZ
128249004128249903-000907     128249006009802868324SWEET LASER BARBIE     0000001000+00002016+00000+0001T   00002016+0000001358          1400 SJ5150               2AZ
128249005128249565-004101     128249006003000548033BALL BOUNCING EGG      0000001000+00001490+00000+0001T   00001490+0000001358          1400 SJ5745               2AZ
128249006128249112-116038     128249006009681820246TCS CARRIER BAG MIDI   0000001000+00000035+00000+0001T   00000035+0000001358          1400 SJ5090               2AZ
128249007128249903-000612     128249006003000617449SWT TRUMPET 20cm       0000001000+00001753+00000+0001T   00001753+0000001358          1400 SJ5150               2AZ
128250000128250               128250               170213OB     1400+00000+OB0000007012+0000007012+000000000+000000984+0000007990+0000000006+I20000000000+0000007990+Z
128250001128250006-000223     128250006001023891327PARTY EYE-MASK 6PCE    0000001000+00000876+00000+0001T   00000876+0000001359          1400 SJ5131               2AZ
128250002128250006-000099     128250006003000554348PARTY PHOTO FUN SIGNS  0000001000+00002630+00000+0001T   00002630+0000001359          1400 SJ5131               2AZ
128250003128250566-000865     128250006001023788412STICKER ASSTD          0000002000+00001753+00000+0001T   00001753+0000001359          1400 SJ5130               2AZ
128251000128251               128251               170213OB     1400+00000+OB0000000876+0000000876+000000000+000000123+0000000990+0000000009+I20000000000+0000000990+Z
128251001128251071-000677     128251006001023110282THUMB-TACKS            0000001000+00000876+00000+0001T   00000876+0000001402          1400 SJ5130               2AZ
128252000128252               128252               170213OB     1400+00000+OB0000013667+0000013667+000000000+000001916+0000015580+0000000003+I20000000000+0000015580+Z
128252001128252903-000194     128252006009826020616SWT CHOC RP LOLLY 25G  0000002000+00001314+00000+0001T   00001314+0000001404          1400 SJ5150               2AZ
128252002128252301-085004     128252006003000420469ORN LOVE PLAQUE 21X10CM0000001000+00003507+00000+0001T   00003946+0006471404          1400 SJ5505               2AZ
128252003128252080-000133-A   128252006003000647019MINI VALENTINES CARD   0000002000+00000437+00000+0001T   00000437+0000001404          1400 SJ5112               2AZ
128252004128252080-000124     128252006003000297733CARD & ENV VALENTINES  0000001000+00001578+00000+0001T   00001578+0000001404          1400 SJ5112               2AZ
128252005128252006-000166-H   128252006003000608096BALLOONS HELIUM 6PC WHT0000001000+00001314+00000+0001T   00001314+0000001404          1400 SJ5131               2AZ
128252006128252006-000166-D   128252006003000516490BALLOONS LRG 6PC RED   0000001000+00001314+00000+0001T   00001314+0000001404          1400 SJ5131               2AZ
128252007128252006-001000     128252006003000093779HELIUM BALLOON FILL    0000004000+00000613+00000+0001T   00000613+0000001404          1400 SJ5131               2AZ
128253000128253               128253               170213OB     1400+00000+OB0000018629+0000018629+000000000+000002611+0000021240+0000000000+I40000021240+0000000000+Z
128253001128253306-000023-A   128253006003000110148COTTON WOOL BALLS 50PCE0000001000+00000700+00000+0001T   00001314+0008171414          1400 SJ5200               2AZ
128253002128253903-000059     128253006005929000395SWT GS NOVELTY ALIEN VA0000001000+00001753+00000+0001T   00001753+0000001414          1400 SJ5150               2AZ
128253003128253206-000430     128253006003000619627MUG COLOUR CHANGING    0000001000+00006139+00000+0001T   00006139+0000001414          1400 SJ5321               2AZ
128253004128253080-000127     128253006003000424351VALENTINES DAY 36x24CM 0000001000+00002192+00000+0001T   00002192+0000001414          1400 SJ5112               2AZ
128253005128253565-000044     128253006003000128280BARREL OF SLIME 100g   0000001000+00000613+00000+0001T   00000613+0000001414          1400 SJ5745               2AZ
128253006128253565-000080     128253006003000643424NOVELTY BENDY          0000001000+00002192+00000+0001T   00002192+0000001414          1400 SJ5745               2AZ
128253007128253112-116069     128253006009681820277TCS CARRIER BAG JUMBO  0000001000+00000048+00000+0001T   00000048+0000001414          1400 SJ5090               2AZ
128253008128253006-000166-D   128253006003000516490BALLOONS LRG 6PC RED   0000001000+00001314+00000+0001T   00001314+0000001414          1400 SJ5131               2AZ
128253009128253006-001000     128253006003000093779HELIUM BALLOON FILL    0000006000+00000613+00000+0001T   00000613+0000001414          1400 SJ5131               2AZ
128254000128254               128254               170213OB     1400+00000+OB0000008451+0000008451+000000000+000001184+0000009635+0000000000+I40000009635+0000000000+Z
128254001128254903-000619     128254006003000672455SWT LOLLY STR/BRRY 140G0000001000+00001753+00000+0001T   00001753+0000001423          1400 SJ5150               2AZ
128254002128254018-000136     128254006001023659026MUG OCC LOVE W/PLUSH   0000001000+00003507+00000+0001T   00003507+0000001423          1400 SJ5515               2AZ
128254003128254018-000127     128254006001023380289MUG OCC STRAIGHT LOVE  0000001000+00001578+00000+0001T   00001753+0006471423          1400 SJ5515               2AZ
128254004128254077-000303     128254006001023593757GIFT-BAG PAPER MED     0000001000+00001578+00000+0001T   00001578+0000001423          1400 SJ5112               2AZ
128254005128254112-116038     128254006009681820246TCS CARRIER BAG MIDI   0000001000+00000035+00000+0001T   00000035+0000001423          1400 SJ5090               2AZ
128255000128255               128255               170213OB     1400+00000+OB0000000876+0000000876+000000000+000000123+0000000990+0000000009+I20000000000+0000000990+Z
128255001128255006-000223     128255006001023891327PARTY EYE-MASK 6PCE    0000001000+00000876+00000+0001T   00000876+0000001433          1400 SJ5131               2AZ
128256000128256               128256               170213OB     1400+00000+OB0000012671+0000012671+000000000+000001776+0000014447+0000000000+I40000014447+0000000000+Z
128256001128256027-783000     128256006001023874641SCOURERS RAINBOW 5PCE  0000001000+00001753+00000+0001T   00001753+0000001436          1400 SJ5212               2AZ
128256002128256007-000199     128256006002324001200FILE RING-BINDER A4    0000001000+00003507+00000+0001T   00003507+0000001436          1400 SJ5130               2AZ
128256003128256027-078281     128256006001023767806SCOURERS BRS 8g  PACK-30000001000+00000876+00000+0001T   00000876+0000001436          1400 SJ5212               2AZ
128256004128256466-000051     128256006001023800510WATER BOMB 4,5cm SET 6 0000001000+00003507+00000+0001T   00003507+0000001436          1400 SJ5785               2AZ
128256005128256027-000082     128256006001023760258SCOURERS ROUND   PACK-60000001000+00001227+00000+0001T   00001227+0000001436          1400 SJ5212               2AZ
128256006128256027-077605     128256006001023997678STEELWOOL PADS 12PC 72g0000001000+00001753+00000+0001T   00001753+0000001436          1400 SJ5212               2AZ
128256007128256112-116069     128256006009681820277TCS CARRIER BAG JUMBO  0000001000+00000048+00000+0001T   00000048+0000001436          1400 SJ5090               2AZ
128257000128257               128257               170213OB     1400+00000+OB0000005262+0000005262+000000000+000000737+0000005990+0000000009+I20000000000+0000005990+Z
128257001128257560-000108     128257006003000548262ANIMALS DINOSAUR+ACC   0000001000+00005262+00000+0001T   00005262+0000001439          1400 SJ5745               2AZ
128258000128258               128258               170213OB     1400+00000+OB0000006734+0000006734+000000000+000000946+0000007680+0000000000+I20000000000+0000007680+Z
128258001128258006-000166-D   128258006003000516490BALLOONS LRG 6PC RED   0000001000+00001314+00000+0001T   00001314+0000001630          1400 SJ5131               2AZ
128258002128258006-001000     128258006003000093779HELIUM BALLOON FILL    0000005000+00000613+00000+0001T   00000613+0000001630          1400 SJ5131               2AZ
128258003128258039-000108     128258006001023524034TEA-LITE CANDLES 8PCE  0000001000+00001490+00000+0001T   00001490+0000001630          1400 SJ5510               2AZ
128258004128258080-000133-A   128258006003000647019MINI VALENTINES CARD   0000001000+00000437+00000+0001T   00000437+0000001630          1400 SJ5112               2AZ
128258005128258903-000183     128258006003000451043SWT LB HEART LOLLY     0000001000+00000393+00000+0001T   00000393+0000001630          1400 SJ5150               2AZ
128258006128258112-116038     128258006009681820246TCS CARRIER BAG MIDI   0000001000+00000035+00000+0001T   00000035+0000001630          1400 SJ5090               2AZ
128259000128259               128259               170213OB     1400+00000+OB0000009013+0000009013+000000000+000001265+0000010270+0000000008+I20000000000+0000010270+Z
128259001128259033-005907     128259006003000433506SHOE LACES 4-PAIR SET  0000001000+00002192+00000+0001T   00002192+0000001704          1400 SJ5200               2AZ
128259002128259018-000177     128259006001023797513MUG MINI LOVE ASSTD    0000003000+00000700+00000+0001T   00000700+0000001704          1400 SJ5515               2AZ
128259003128259903-000183     128259006003000451043SWT LB HEART LOLLY     0000003000+00000393+00000+0001T   00000393+0000001704          1400 SJ5150               2AZ
128259004128259018-005009     128259006001023725608MUG W/PLUSH-BEAR LOVE  0000001000+00003507+00000+0001T   00003507+0000001704          1400 SJ5515               2AZ
128259005128259112-116038     128259006009681820246TCS CARRIER BAG MIDI   0000001000+00000035+00000+0001T   00000035+0000001704          1400 SJ5090               2AZ
128260000128260               128260               170213OB     1400+00000+OB0000003507+0000003507+000000000+000000491+0000003990+0000000008+I20000000000+0000003990+Z
128260001128260033-000651     128260006003000365579HAIR BRUSH 23cm ASSTD  0000001000+00003507+00000+0001T   00003507+0000001747          1400 SJ5200               2AZ
128261000128261               128261               170213OB     1400+00000+OB0000005080+0000005080+000000000+000000715+0000005790+0000000005+I20000000000+0000005790+Z
128261001128261076-000017     128261006001811010022TWINE COTTON 50g-BALL  0000001000+00000876+00000+0001T   00000876+0000001749          1400 SJ5810               2AZ
128261002128261079-009702-D   128261008427973059354PAPER SIRIO A2 RED COL 0000002000+00001051+00000+0001T   00001051+0000001749          1400 SJ5130               2AZ
128261003128261079-009702-B   128261008427973059491PAPER SIRIO A2 WHITE   0000002000+00001051+00000+0001T   00001051+0000001749          1400 SJ5130               2AZ
128262000128262               128262               170213OB     1400+00000+OB0000004382+0000004382+000000000+000000615+0000004990+0000000007+I20000000000+0000004990+Z
128262001128262566-001500     128262006003000658275STICKER PUFFY EMOTION  0000001000+00001753+00000+0001T   00001753+0000001752          1400 SJ5130               2AZ
128262002128262566-000200     128262006003000384174STICKER PUFFY NEON     0000001000+00000876+00000+0001T   00000876+0000001752          1400 SJ5130               2AZ
128262003128262566-000535     128262006003000284719STICKER SPARKLE EMBOSS 0000001000+00001753+00000+0001T   00001753+0000001752          1400 SJ5130               2AZ
A17021300                                          09291704OBSLAVE 2                       SJ51IC
B12823200                                          170213OB077-000381     10225261SLAVE 2     SJ51IC0000002000+0000001000+0000000000000+
M17021301                              IT          OBATT GLADWYN                                     THE LAST DOC FOR SLAVE 2 IS 128262              THANKS                                          NIGEL OB
M17021391                              CASH        OBSLAVE 2                       Z-REPORT No.   624TOTAL (Sales - Refunds)           2378.80       CASH TO BE BANKED                 1688.30       DEBIT CARDS                          0.00       CREDIT CARDS                       690.50       Z-READING                         2378.80       AIRTIME DEBIT CARD SALES             0.00       AIRTIME CARD SALES                   0.00       OVERS/UNDERS                         0.00       AIRTIME CASH SALES                   0.00       GIFT CARDS                           0.00       GIFT CARD CASH SALES                 0.00       T O T A L  CASH PAYOUTS              0.00                                                                                                                                                                                                                                                                                                                                                      Z
M17021392                              CASH        OBABSENT                                                                                                                                                                                          ANNUAL LEAVE                                                                                                                                                                                    DAY OFF                                                                                                                                                                                         COMMENTS                                                                                                                                                                                                                                                                                                                                                                                       Z
Y17021300                                          OB00000000208745+000031
ZOB17021321123 SLAVE 2      SALES DATA                     NEXT INVOICE NO.  128263 0624
X OB Slave 2 First invoice 128232 170213 Last invoice 128262 170213 Next invoice 128263 Total number of records 000000146 clbackup completed 21:12:29
